{
  "contracts/farm.sol": {
    "FairLaunch": {
      "abi": [
        {
          "inputs": [
            {
              "internalType": "address",
              "name": "_sea",
              "type": "address"
            },
            {
              "internalType": "address",
              "name": "_devaddr",
              "type": "address"
            },
            {
              "internalType": "uint256",
              "name": "_seaPerBlock",
              "type": "uint256"
            },
            {
              "internalType": "uint256",
              "name": "_startBlock",
              "type": "uint256"
            },
            {
              "internalType": "uint256",
              "name": "_bonusEndBlock",
              "type": "uint256"
            }
          ],
          "stateMutability": "nonpayable",
          "type": "constructor"
        },
        {
          "anonymous": false,
          "inputs": [
            {
              "indexed": true,
              "internalType": "address",
              "name": "user",
              "type": "address"
            },
            {
              "indexed": true,
              "internalType": "uint256",
              "name": "pid",
              "type": "uint256"
            },
            {
              "indexed": false,
              "internalType": "uint256",
              "name": "amount",
              "type": "uint256"
            }
          ],
          "name": "Deposit",
          "type": "event"
        },
        {
          "anonymous": false,
          "inputs": [
            {
              "indexed": true,
              "internalType": "address",
              "name": "user",
              "type": "address"
            },
            {
              "indexed": true,
              "internalType": "uint256",
              "name": "pid",
              "type": "uint256"
            },
            {
              "indexed": false,
              "internalType": "uint256",
              "name": "amount",
              "type": "uint256"
            }
          ],
          "name": "EmergencyWithdraw",
          "type": "event"
        },
        {
          "anonymous": false,
          "inputs": [
            {
              "indexed": true,
              "internalType": "address",
              "name": "to",
              "type": "address"
            },
            {
              "indexed": true,
              "internalType": "uint256",
              "name": "amount",
              "type": "uint256"
            }
          ],
          "name": "ManualMint",
          "type": "event"
        },
        {
          "anonymous": false,
          "inputs": [
            {
              "indexed": true,
              "internalType": "address",
              "name": "previousOwner",
              "type": "address"
            },
            {
              "indexed": true,
              "internalType": "address",
              "name": "newOwner",
              "type": "address"
            }
          ],
          "name": "OwnershipTransferred",
          "type": "event"
        },
        {
          "anonymous": false,
          "inputs": [
            {
              "indexed": true,
              "internalType": "address",
              "name": "devAddr",
              "type": "address"
            }
          ],
          "name": "SetDevAddress",
          "type": "event"
        },
        {
          "anonymous": false,
          "inputs": [
            {
              "indexed": true,
              "internalType": "uint256",
              "name": "seaPerBlock",
              "type": "uint256"
            }
          ],
          "name": "SetSeaPerBlock",
          "type": "event"
        },
        {
          "anonymous": false,
          "inputs": [
            {
              "indexed": true,
              "internalType": "address",
              "name": "user",
              "type": "address"
            },
            {
              "indexed": true,
              "internalType": "uint256",
              "name": "pid",
              "type": "uint256"
            },
            {
              "indexed": false,
              "internalType": "uint256",
              "name": "amount",
              "type": "uint256"
            }
          ],
          "name": "Withdraw",
          "type": "event"
        },
        {
          "inputs": [
            {
              "internalType": "uint256",
              "name": "_allocPoint",
              "type": "uint256"
            },
            {
              "internalType": "address",
              "name": "_stakeToken",
              "type": "address"
            },
            {
              "internalType": "bool",
              "name": "_withUpdate",
              "type": "bool"
            }
          ],
          "name": "addPool",
          "outputs": [],
          "stateMutability": "nonpayable",
          "type": "function"
        },
        {
          "inputs": [],
          "name": "bonusEndBlock",
          "outputs": [
            {
              "internalType": "uint256",
              "name": "",
              "type": "uint256"
            }
          ],
          "stateMutability": "view",
          "type": "function"
        },
        {
          "inputs": [],
          "name": "bonusMultiplier",
          "outputs": [
            {
              "internalType": "uint256",
              "name": "",
              "type": "uint256"
            }
          ],
          "stateMutability": "view",
          "type": "function"
        },
        {
          "inputs": [
            {
              "internalType": "address",
              "name": "_for",
              "type": "address"
            },
            {
              "internalType": "uint256",
              "name": "_pid",
              "type": "uint256"
            },
            {
              "internalType": "uint256",
              "name": "_amount",
              "type": "uint256"
            }
          ],
          "name": "deposit",
          "outputs": [],
          "stateMutability": "nonpayable",
          "type": "function"
        },
        {
          "inputs": [],
          "name": "devaddr",
          "outputs": [
            {
              "internalType": "address",
              "name": "",
              "type": "address"
            }
          ],
          "stateMutability": "view",
          "type": "function"
        },
        {
          "inputs": [
            {
              "internalType": "uint256",
              "name": "_pid",
              "type": "uint256"
            }
          ],
          "name": "emergencyWithdraw",
          "outputs": [],
          "stateMutability": "nonpayable",
          "type": "function"
        },
        {
          "inputs": [
            {
              "internalType": "address",
              "name": "",
              "type": "address"
            }
          ],
          "name": "executor",
          "outputs": [
            {
              "internalType": "bool",
              "name": "",
              "type": "bool"
            }
          ],
          "stateMutability": "view",
          "type": "function"
        },
        {
          "inputs": [],
          "name": "getBlock",
          "outputs": [
            {
              "internalType": "uint256",
              "name": "",
              "type": "uint256"
            }
          ],
          "stateMutability": "view",
          "type": "function"
        },
        {
          "inputs": [
            {
              "internalType": "uint256",
              "name": "_lastRewardBlock",
              "type": "uint256"
            },
            {
              "internalType": "uint256",
              "name": "_currentBlock",
              "type": "uint256"
            }
          ],
          "name": "getMultiplier",
          "outputs": [
            {
              "internalType": "uint256",
              "name": "",
              "type": "uint256"
            }
          ],
          "stateMutability": "view",
          "type": "function"
        },
        {
          "inputs": [
            {
              "internalType": "uint256",
              "name": "_pid",
              "type": "uint256"
            }
          ],
          "name": "harvest",
          "outputs": [],
          "stateMutability": "nonpayable",
          "type": "function"
        },
        {
          "inputs": [
            {
              "internalType": "address",
              "name": "_stakeToken",
              "type": "address"
            }
          ],
          "name": "isDuplicatedPool",
          "outputs": [
            {
              "internalType": "bool",
              "name": "",
              "type": "bool"
            }
          ],
          "stateMutability": "view",
          "type": "function"
        },
        {
          "inputs": [
            {
              "internalType": "address",
              "name": "_to",
              "type": "address"
            },
            {
              "internalType": "uint256",
              "name": "_amount",
              "type": "uint256"
            }
          ],
          "name": "manualMint",
          "outputs": [],
          "stateMutability": "nonpayable",
          "type": "function"
        },
        {
          "inputs": [],
          "name": "massUpdatePools",
          "outputs": [],
          "stateMutability": "nonpayable",
          "type": "function"
        },
        {
          "inputs": [],
          "name": "owner",
          "outputs": [
            {
              "internalType": "address",
              "name": "",
              "type": "address"
            }
          ],
          "stateMutability": "view",
          "type": "function"
        },
        {
          "inputs": [
            {
              "internalType": "uint256",
              "name": "_pid",
              "type": "uint256"
            },
            {
              "internalType": "address",
              "name": "_user",
              "type": "address"
            }
          ],
          "name": "pendingSea",
          "outputs": [
            {
              "internalType": "uint256",
              "name": "",
              "type": "uint256"
            }
          ],
          "stateMutability": "view",
          "type": "function"
        },
        {
          "inputs": [
            {
              "internalType": "uint256",
              "name": "",
              "type": "uint256"
            }
          ],
          "name": "poolInfo",
          "outputs": [
            {
              "internalType": "address",
              "name": "stakeToken",
              "type": "address"
            },
            {
              "internalType": "uint256",
              "name": "allocPoint",
              "type": "uint256"
            },
            {
              "internalType": "uint256",
              "name": "lastRewardBlock",
              "type": "uint256"
            },
            {
              "internalType": "uint256",
              "name": "accSeaPerShare",
              "type": "uint256"
            },
            {
              "internalType": "uint256",
              "name": "accSeaPerShareTilBonusEnd",
              "type": "uint256"
            }
          ],
          "stateMutability": "view",
          "type": "function"
        },
        {
          "inputs": [],
          "name": "poolLength",
          "outputs": [
            {
              "internalType": "uint256",
              "name": "",
              "type": "uint256"
            }
          ],
          "stateMutability": "view",
          "type": "function"
        },
        {
          "inputs": [],
          "name": "renounceOwnership",
          "outputs": [],
          "stateMutability": "nonpayable",
          "type": "function"
        },
        {
          "inputs": [],
          "name": "sea",
          "outputs": [
            {
              "internalType": "address",
              "name": "",
              "type": "address"
            }
          ],
          "stateMutability": "view",
          "type": "function"
        },
        {
          "inputs": [],
          "name": "seaPerBlock",
          "outputs": [
            {
              "internalType": "uint256",
              "name": "",
              "type": "uint256"
            }
          ],
          "stateMutability": "view",
          "type": "function"
        },
        {
          "inputs": [
            {
              "internalType": "uint256",
              "name": "_bonusMultiplier",
              "type": "uint256"
            },
            {
              "internalType": "uint256",
              "name": "_bonusEndBlock",
              "type": "uint256"
            }
          ],
          "name": "setBonus",
          "outputs": [],
          "stateMutability": "nonpayable",
          "type": "function"
        },
        {
          "inputs": [
            {
              "internalType": "address",
              "name": "_devaddr",
              "type": "address"
            }
          ],
          "name": "setDev",
          "outputs": [],
          "stateMutability": "nonpayable",
          "type": "function"
        },
        {
          "inputs": [
            {
              "internalType": "address",
              "name": "_address",
              "type": "address"
            },
            {
              "internalType": "bool",
              "name": "_type",
              "type": "bool"
            }
          ],
          "name": "setExecutor",
          "outputs": [
            {
              "internalType": "bool",
              "name": "",
              "type": "bool"
            }
          ],
          "stateMutability": "nonpayable",
          "type": "function"
        },
        {
          "inputs": [
            {
              "internalType": "uint256",
              "name": "_pid",
              "type": "uint256"
            },
            {
              "internalType": "uint256",
              "name": "_allocPoint",
              "type": "uint256"
            },
            {
              "internalType": "bool",
              "name": "_withUpdate",
              "type": "bool"
            }
          ],
          "name": "setPool",
          "outputs": [],
          "stateMutability": "nonpayable",
          "type": "function"
        },
        {
          "inputs": [
            {
              "internalType": "uint256",
              "name": "_seaPerBlock",
              "type": "uint256"
            }
          ],
          "name": "setSeaPerBlock",
          "outputs": [],
          "stateMutability": "nonpayable",
          "type": "function"
        },
        {
          "inputs": [],
          "name": "startBlock",
          "outputs": [
            {
              "internalType": "uint256",
              "name": "",
              "type": "uint256"
            }
          ],
          "stateMutability": "view",
          "type": "function"
        },
        {
          "inputs": [],
          "name": "totalAllocPoint",
          "outputs": [
            {
              "internalType": "uint256",
              "name": "",
              "type": "uint256"
            }
          ],
          "stateMutability": "view",
          "type": "function"
        },
        {
          "inputs": [
            {
              "internalType": "address",
              "name": "newOwner",
              "type": "address"
            }
          ],
          "name": "transferOwnership",
          "outputs": [],
          "stateMutability": "nonpayable",
          "type": "function"
        },
        {
          "inputs": [
            {
              "internalType": "uint256",
              "name": "_pid",
              "type": "uint256"
            }
          ],
          "name": "updatePool",
          "outputs": [],
          "stateMutability": "nonpayable",
          "type": "function"
        },
        {
          "inputs": [
            {
              "internalType": "uint256",
              "name": "",
              "type": "uint256"
            },
            {
              "internalType": "address",
              "name": "",
              "type": "address"
            }
          ],
          "name": "userInfo",
          "outputs": [
            {
              "internalType": "uint256",
              "name": "amount",
              "type": "uint256"
            },
            {
              "internalType": "uint256",
              "name": "rewardDebt",
              "type": "uint256"
            },
            {
              "internalType": "uint256",
              "name": "bonusDebt",
              "type": "uint256"
            },
            {
              "internalType": "address",
              "name": "fundedBy",
              "type": "address"
            }
          ],
          "stateMutability": "view",
          "type": "function"
        },
        {
          "inputs": [
            {
              "internalType": "address",
              "name": "_for",
              "type": "address"
            },
            {
              "internalType": "uint256",
              "name": "_pid",
              "type": "uint256"
            },
            {
              "internalType": "uint256",
              "name": "_amount",
              "type": "uint256"
            }
          ],
          "name": "withdraw",
          "outputs": [],
          "stateMutability": "nonpayable",
          "type": "function"
        },
        {
          "inputs": [
            {
              "internalType": "address",
              "name": "_for",
              "type": "address"
            },
            {
              "internalType": "uint256",
              "name": "_pid",
              "type": "uint256"
            }
          ],
          "name": "withdrawAll",
          "outputs": [],
          "stateMutability": "nonpayable",
          "type": "function"
        },
        {
          "inputs": [
            {
              "internalType": "address",
              "name": "_address",
              "type": "address"
            },
            {
              "internalType": "uint256",
              "name": "_amt",
              "type": "uint256"
            }
          ],
          "name": "withdrawalERC20",
          "outputs": [
            {
              "internalType": "bool",
              "name": "",
              "type": "bool"
            }
          ],
          "stateMutability": "nonpayable",
          "type": "function"
        }
      ],
      "devdoc": {
        "kind": "dev",
        "methods": {
          "owner()": {
            "details": "Returns the address of the current owner."
          },
          "renounceOwnership()": {
            "details": "Leaves the contract without owner. It will not be possible to call `onlyOwner` functions anymore. Can only be called by the current owner. NOTE: Renouncing ownership will leave the contract without an owner, thereby removing any functionality that is only available to the owner."
          },
          "transferOwnership(address)": {
            "details": "Transfers ownership of the contract to a new account (`newOwner`). Can only be called by the current owner."
          }
        },
        "version": 1
      },
      "evm": {
        "bytecode": {
          "linkReferences": {},
          "object": "60806040523480156200001157600080fd5b506040516200273338038062002733833981016040819052620000349162000126565b6200004862000042620000b5565b620000b9565b6001808055600060058190556009819055600280546001600160a01b039889166001600160a01b0319918216179091556003805497909816961695909517909555600492909255600691909155600a55338152600b60205260409020805460ff1916909117905562000178565b3390565b600080546001600160a01b038381166001600160a01b0319831681178455604051919092169283917f8be0079c531659141344cd1fd0a4f28419497f9722a3daafe3b4186f6b6457e09190a35050565b80516001600160a01b03811681146200012157600080fd5b919050565b600080600080600060a086880312156200013e578081fd5b620001498662000109565b9450620001596020870162000109565b6040870151606088015160809098015196999198509695945092505050565b6125ab80620001886000396000f3fe608060405234801561001057600080fd5b50600436106101fb5760003560e01c8063715018a61161011a578063b5c5f672116100ad578063d4a91e381161007c578063d4a91e38146103ee578063ddc6326214610401578063e4c5ff4614610414578063f110180414610427578063f2fde38b1461042f576101fb565b8063b5c5f672146103ad578063cc6dbc27146103c0578063d477f05f146103d3578063d49e77cd146103e6576101fb565b8063930ed033116100e9578063930ed0331461035c57806393f1a40b1461036f578063a8b973a114610392578063b03df69d1461039a576101fb565b8063715018a6146103265780637abceffd1461032e5780638da5cb5b146103415780638dbb1e3a14610349576101fb565b80632e97766d116101925780634ecaac41116101615780634ecaac41146102e357806351eb05a6146102f85780635312ea8e1461030b578063630b5ba11461031e576101fb565b80632e97766d146102ad57806346ca6bea146102b557806348c7e528146102c857806348cd4cb1146102db576101fb565b806317caf6f1116101ce57806317caf6f11461026a5780631aed6553146102725780631e1bff3f1461027a57806324cdee221461029a576101fb565b8063037c99b014610200578063081e3eda146102155780630efe6a8b146102335780631526fe2714610246575b600080fd5b61021361020e366004611ea4565b610442565b005b61021d6104d4565b60405161022a919061246f565b60405180910390f35b610213610241366004611dbc565b6104da565b610259610254366004611e0a565b6106bb565b60405161022a959493929190611f5f565b61021d610706565b61021d61070c565b61028d610288366004611d5d565b610712565b60405161022a9190611f8d565b61021d6102a8366004611e3a565b610781565b61021d61090b565b6102136102c3366004611ec5565b61090f565b61028d6102d6366004611d43565b6109df565b61021d6109f4565b6102eb6109fa565b60405161022a9190611f0e565b610213610306366004611e0a565b610a09565b610213610319366004611e0a565b610cfe565b610213610db3565b610213610dde565b61021361033c366004611e65565b610e29565b6102eb611004565b61021d610357366004611ea4565b611013565b61028d61036a366004611d93565b6110a3565b61038261037d366004611e3a565b611101565b60405161022a9493929190612478565b61021d61113c565b61028d6103a8366004611d43565b611142565b6102136103bb366004611dbc565b6111c6565b6102136103ce366004611d93565b61120c565b6102136103e1366004611d43565b61127c565b6102eb611318565b6102136103fc366004611e0a565b611327565b61021361040f366004611e0a565b611399565b610213610422366004611d93565b61143c565b61021d61153a565b61021361043d366004611d43565b611540565b61044a6115ae565b6001600160a01b031661045b611004565b6001600160a01b03161461048a5760405162461bcd60e51b81526004016104819061224b565b60405180910390fd5b4381116104a95760405162461bcd60e51b815260040161048190612011565b600182116104c95760405162461bcd60e51b8152600401610481906121d3565b600591909155600655565b60075490565b60018060008282546104ec919061249c565b909155505060015460078054600091908590811061051a57634e487b7160e01b600052603260045260246000fd5b600091825260208083208784526008825260408085206001600160a01b03808c168752935290932060038101546005909302909301935016156105835760038101546001600160a01b031633146105835760405162461bcd60e51b8152600401610481906122da565b81546001600160a01b03166105aa5760405162461bcd60e51b81526004016104819061235e565b6105b385610a09565b8054156105c4576105c486866115b2565b60038101546001600160a01b03166105eb576003810180546001600160a01b031916331790555b8154610602906001600160a01b0316333087611703565b805461060e908561175b565b80825560038301546106319164e8d4a510009161062b919061178a565b906117cf565b6001820155600482015481546106519164e8d4a510009161062b9161178a565b6002820155604051859033907f90890809c654f11d6e72a28fa60149770a0d11ec6c92319d6ceb2bb0a4ea1a159061068a90889061246f565b60405180910390a3505060015481146106b55760405162461bcd60e51b8152600401610481906123df565b50505050565b600781815481106106cb57600080fd5b6000918252602090912060059091020180546001820154600283015460038401546004909401546001600160a01b0390931694509092909185565b60095481565b60065481565b600061071c6115ae565b6001600160a01b031661072d611004565b6001600160a01b0316146107535760405162461bcd60e51b81526004016104819061224b565b506001600160a01b0382166000908152600b60205260409020805460ff191682151517905560015b92915050565b600080600784815481106107a557634e487b7160e01b600052603260045260246000fd5b600091825260208083208784526008825260408085206001600160a01b03808a16875293528085206003600590950290920193840154845491516370a0823160e01b815294965091949193919216906370a0823190610808903090600401611f0e565b60206040518083038186803b15801561082057600080fd5b505afa158015610834573d6000803e3d6000fd5b505050506040513d601f19601f820116820180604052508101906108589190611e22565b905083600201544311801561086c57508015155b156108d2576000610881856002015443611013565b905060006108ae60095461062b88600101546108a86004548761178a90919063ffffffff16565b9061178a565b90506108cd6108c68461062b8464e8d4a5100061178a565b859061175b565b935050505b61090083600101546108fa64e8d4a5100061062b86886000015461178a90919063ffffffff16565b906117fa565b979650505050505050565b4390565b336000908152600b602052604090205460ff1661093e5760405162461bcd60e51b81526004016104819061207f565b801561094c5761094c610db3565b61099d826109976007868154811061097457634e487b7160e01b600052603260045260246000fd5b9060005260206000209060050201600101546009546117fa90919063ffffffff16565b9061175b565b60098190555081600784815481106109c557634e487b7160e01b600052603260045260246000fd5b906000526020600020906005020160010181905550505050565b600b6020526000908152604090205460ff1681565b600a5481565b6002546001600160a01b031681565b600060078281548110610a2c57634e487b7160e01b600052603260045260246000fd5b9060005260206000209060050201905080600201544311610a4d5750610cfb565b80546040516370a0823160e01b81526000916001600160a01b0316906370a0823190610a7d903090600401611f0e565b60206040518083038186803b158015610a9557600080fd5b505afa158015610aa9573d6000803e3d6000fd5b505050506040513d601f19601f82011682018060405250810190610acd9190611e22565b905080610ae1575043600290910155610cfb565b6000610af1836002015443611013565b90506000610b1860095461062b86600101546108a86004548761178a90919063ffffffff16565b6002546003549192506001600160a01b03908116916340c10f199116610b44606461062b86601461178a565b6040518363ffffffff1660e01b8152600401610b61929190611f46565b602060405180830381600087803b158015610b7b57600080fd5b505af1158015610b8f573d6000803e3d6000fd5b505050506040513d601f19601f82011682018060405250810190610bb39190611dee565b506002546040516340c10f1960e01b81526001600160a01b03909116906340c10f1990610be69030908590600401611f46565b602060405180830381600087803b158015610c0057600080fd5b505af1158015610c14573d6000803e3d6000fd5b505050506040513d601f19601f82011682018060405250810190610c389190611dee565b50610c5a610c4f8461062b8464e8d4a5100061178a565b60038601549061175b565b60038501556006544311610c7357600384015460048501555b60065443118015610c8957506006548460020154105b15610ced576000610cc360095461062b87600101546108a86004546108a86005546108a88d600201546006546117fa90919063ffffffff16565b9050610ce6610cdb8561062b8464e8d4a5100061178a565b60048701549061175b565b6004860155505b438460020181905550505050505b50565b600060078281548110610d2157634e487b7160e01b600052603260045260246000fd5b600091825260208083208584526008825260408085203380875293528420805485825560018201959095556005909302018054909450919291610d71916001600160a01b03919091169083611826565b8154604051859133917fbb757047c2b5f3974fe26b7c10f732e7bce710b0952a71082702781e62ae059591610da59161246f565b60405180910390a350505050565b60075460005b81811015610dda57610dca81610a09565b610dd381612536565b9050610db9565b5050565b610de66115ae565b6001600160a01b0316610df7611004565b6001600160a01b031614610e1d5760405162461bcd60e51b81526004016104819061224b565b610e276000611845565b565b610e316115ae565b6001600160a01b0316610e42611004565b6001600160a01b031614610e685760405162461bcd60e51b81526004016104819061224b565b8015610e7657610e76610db3565b6001600160a01b038216610e9c5760405162461bcd60e51b8152600401610481906120e8565b610ea582611142565b15610ec25760405162461bcd60e51b815260040161048190612442565b6000600a544311610ed557600a54610ed7565b435b600954909150610ee7908561175b565b6009556040805160a0810182526001600160a01b039485168152602081019586529081019182526000606082018181526080830182815260078054600181018255935292517fa66cc928b5edb82af9bd49922954155ab7b0942694bea4ce44661d9a8736c688600590930292830180546001600160a01b031916919097161790955594517fa66cc928b5edb82af9bd49922954155ab7b0942694bea4ce44661d9a8736c68986015590517fa66cc928b5edb82af9bd49922954155ab7b0942694bea4ce44661d9a8736c68a85015591517fa66cc928b5edb82af9bd49922954155ab7b0942694bea4ce44661d9a8736c68b84015550517fa66cc928b5edb82af9bd49922954155ab7b0942694bea4ce44661d9a8736c68c90910155565b6000546001600160a01b031690565b6000818311156110355760405162461bcd60e51b8152600401610481906122ac565b60065482116110565760055461104f906108a884866117fa565b905061077b565b60065483106110695761104f82846117fa565b61109c611081600654846117fa90919063ffffffff16565b6109976005546108a8876006546117fa90919063ffffffff16565b9392505050565b60006110ad6115ae565b6001600160a01b03166110be611004565b6001600160a01b0316146110e45760405162461bcd60e51b81526004016104819061224b565b6110f86001600160a01b0384163384611826565b50600192915050565b60086020908152600092835260408084209091529082529020805460018201546002830154600390930154919290916001600160a01b031684565b60055481565b600754600090815b818110156111ba57836001600160a01b03166007828154811061117d57634e487b7160e01b600052603260045260246000fd5b60009182526020909120600590910201546001600160a01b031614156111a8576001925050506111c1565b806111b281612536565b91505061114a565b5060009150505b919050565b60018060008282546111d8919061249c565b90915550506001546111eb848484611895565b60015481146106b55760405162461bcd60e51b8152600401610481906123df565b600180600082825461121e919061249c565b909155505060015460008281526008602090815260408083206001600160a01b03871684529091529020546112569084908490611895565b60015481146112775760405162461bcd60e51b8152600401610481906123df565b505050565b6112846115ae565b6001600160a01b0316611295611004565b6001600160a01b0316146112bb5760405162461bcd60e51b81526004016104819061224b565b6001600160a01b0381166112ce57600080fd5b600380546001600160a01b0319166001600160a01b0383169081179091556040517ff5721dfa6ddbf8e4a2cd38b2152fff4008050b9b37de59ae1e022dde4bd5df7390600090a250565b6003546001600160a01b031681565b61132f6115ae565b6001600160a01b0316611340611004565b6001600160a01b0316146113665760405162461bcd60e51b81526004016104819061224b565b600481905560405181907f045c280c0ee21a223bf57ba9b47035cda586d0472889fcf81d6ecf95a72fbf6490600090a250565b6000600782815481106113bc57634e487b7160e01b600052603260045260246000fd5b600091825260208083208584526008825260408085203386529092529220600590910290910191506113ed83610a09565b6113f733846115b2565b600382015481546114129164e8d4a510009161062b9161178a565b6001820155600482015481546114329164e8d4a510009161062b9161178a565b6002909101555050565b6114446115ae565b6001600160a01b0316611455611004565b6001600160a01b03161461147b5760405162461bcd60e51b81526004016104819061224b565b6002546040516340c10f1960e01b81526001600160a01b03909116906340c10f19906114ad9085908590600401611f46565b602060405180830381600087803b1580156114c757600080fd5b505af11580156114db573d6000803e3d6000fd5b505050506040513d601f19601f820116820180604052508101906114ff9190611dee565b5060405181906001600160a01b038416907f5a513126cbc10dde78a9844543bd609b2c5b0f4169cecb81f0378f00fa2bdbf090600090a35050565b60045481565b6115486115ae565b6001600160a01b0316611559611004565b6001600160a01b03161461157f5760405162461bcd60e51b81526004016104819061224b565b6001600160a01b0381166115a55760405162461bcd60e51b815260040161048190611fcb565b610cfb81611845565b3390565b6000600782815481106115d557634e487b7160e01b600052603260045260246000fd5b600091825260208083208584526008825260408085206001600160a01b038916865290925292208054600590920290920192506116245760405162461bcd60e51b815260040161048190612416565b600061165282600101546108fa64e8d4a5100061062b8760030154876000015461178a90919063ffffffff16565b6002546040516370a0823160e01b81529192506001600160a01b0316906370a0823190611683903090600401611f0e565b60206040518083038186803b15801561169b57600080fd5b505afa1580156116af573d6000803e3d6000fd5b505050506040513d601f19601f820116820180604052508101906116d39190611e22565b8111156116f25760405162461bcd60e51b815260040161048190612280565b6116fc85826119f9565b5050505050565b6106b5846323b872dd60e01b85858560405160240161172493929190611f22565b60408051601f198184030181529190526020810180516001600160e01b03166001600160e01b031990931692909217909152611b92565b600080611768838561249c565b90508381101561109c5760405162461bcd60e51b815260040161048190612048565b6000826117995750600061077b565b60006117a583856124d4565b9050826117b285836124b4565b1461109c5760405162461bcd60e51b81526004016104819061220a565b60008082116117f05760405162461bcd60e51b81526004016104819061219c565b61109c82846124b4565b60008282111561181c5760405162461bcd60e51b81526004016104819061211f565b61109c82846124f3565b6112778363a9059cbb60e01b8484604051602401611724929190611f46565b600080546001600160a01b038381166001600160a01b0319831681178455604051919092169283917f8be0079c531659141344cd1fd0a4f28419497f9722a3daafe3b4186f6b6457e09190a35050565b6000600783815481106118b857634e487b7160e01b600052603260045260246000fd5b600091825260208083208684526008825260408085206001600160a01b03808b168752935290932060038101546005909302909301935016331461190e5760405162461bcd60e51b8152600401610481906120c3565b805483111561192f5760405162461bcd60e51b815260040161048190612332565b61193884610a09565b61194285856115b2565b805461194e90846117fa565b808255600383015461196b9164e8d4a510009161062b919061178a565b60018201556004820154815461198b9164e8d4a510009161062b9161178a565b600282015581546001600160a01b0316156119b65781546119b6906001600160a01b03163385611826565b8054604051859133917ff279e6a1f5e320cca91135676d9cb6e44ca8a08c0b88342bcdb1144f6511b568916119ea9161246f565b60405180910390a35050505050565b6002546040516370a0823160e01b81526000916001600160a01b0316906370a0823190611a2a903090600401611f0e565b60206040518083038186803b158015611a4257600080fd5b505afa158015611a56573d6000803e3d6000fd5b505050506040513d601f19601f82011682018060405250810190611a7a9190611e22565b905080821115611b0e5760025460405163a9059cbb60e01b81526001600160a01b039091169063a9059cbb90611ab69086908590600401611f46565b602060405180830381600087803b158015611ad057600080fd5b505af1158015611ae4573d6000803e3d6000fd5b505050506040513d601f19601f82011682018060405250810190611b089190611dee565b50611277565b60025460405163a9059cbb60e01b81526001600160a01b039091169063a9059cbb90611b409086908690600401611f46565b602060405180830381600087803b158015611b5a57600080fd5b505af1158015611b6e573d6000803e3d6000fd5b505050506040513d601f19601f820116820180604052508101906106b59190611dee565b6000611be7826040518060400160405280602081526020017f5361666545524332303a206c6f772d6c6576656c2063616c6c206661696c6564815250856001600160a01b0316611c219092919063ffffffff16565b8051909150156112775780806020019051810190611c059190611dee565b6112775760405162461bcd60e51b815260040161048190612395565b6060611c308484600085611c38565b949350505050565b606082471015611c5a5760405162461bcd60e51b815260040161048190612156565b611c6385611ced565b611c7f5760405162461bcd60e51b8152600401610481906122fb565b600080866001600160a01b03168587604051611c9b9190611ef2565b60006040518083038185875af1925050503d8060008114611cd8576040519150601f19603f3d011682016040523d82523d6000602084013e611cdd565b606091505b5091509150610900828286611cf3565b3b151590565b60608315611d0257508161109c565b825115611d125782518084602001fd5b8160405162461bcd60e51b81526004016104819190611f98565b80356001600160a01b03811681146111c157600080fd5b600060208284031215611d54578081fd5b61109c82611d2c565b60008060408385031215611d6f578081fd5b611d7883611d2c565b91506020830135611d8881612567565b809150509250929050565b60008060408385031215611da5578182fd5b611dae83611d2c565b946020939093013593505050565b600080600060608486031215611dd0578081fd5b611dd984611d2c565b95602085013595506040909401359392505050565b600060208284031215611dff578081fd5b815161109c81612567565b600060208284031215611e1b578081fd5b5035919050565b600060208284031215611e33578081fd5b5051919050565b60008060408385031215611e4c578182fd5b82359150611e5c60208401611d2c565b90509250929050565b600080600060608486031215611e79578283fd5b83359250611e8960208501611d2c565b91506040840135611e9981612567565b809150509250925092565b60008060408385031215611eb6578182fd5b50508035926020909101359150565b600080600060608486031215611ed9578283fd5b83359250602084013591506040840135611e9981612567565b60008251611f0481846020870161250a565b9190910192915050565b6001600160a01b0391909116815260200190565b6001600160a01b039384168152919092166020820152604081019190915260600190565b6001600160a01b03929092168252602082015260400190565b6001600160a01b03959095168552602085019390935260408401919091526060830152608082015260a00190565b901515815260200190565b6000602082528251806020840152611fb781604085016020870161250a565b601f01601f19169190910160400192915050565b60208082526026908201527f4f776e61626c653a206e6577206f776e657220697320746865207a65726f206160408201526564647265737360d01b606082015260800190565b6020808252601b908201527f736574426f6e75733a2062616420626f6e7573456e64426c6f636b0000000000604082015260600190565b6020808252601b908201527f536166654d6174683a206164646974696f6e206f766572666c6f770000000000604082015260600190565b60208082526024908201527f6578656375746f723a2063616c6c6572206973206e6f742074686520657865636040820152633aba37b960e11b606082015260800190565b6020808252600b908201526a37b7363c90333ab73232b960a91b604082015260600190565b60208082526018908201527f6164643a206e6f74207374616b65546f6b656e20616464720000000000000000604082015260600190565b6020808252601e908201527f536166654d6174683a207375627472616374696f6e206f766572666c6f770000604082015260600190565b60208082526026908201527f416464726573733a20696e73756666696369656e742062616c616e636520666f6040820152651c8818d85b1b60d21b606082015260800190565b6020808252601a908201527f536166654d6174683a206469766973696f6e206279207a65726f000000000000604082015260600190565b6020808252601d908201527f736574426f6e75733a2062616420626f6e75734d756c7469706c696572000000604082015260600190565b60208082526021908201527f536166654d6174683a206d756c7469706c69636174696f6e206f766572666c6f6040820152607760f81b606082015260800190565b6020808252818101527f4f776e61626c653a2063616c6c6572206973206e6f7420746865206f776e6572604082015260600190565b602080825260129082015271777466206e6f7420656e6f7567682053656160701b604082015260600190565b602080825260149082015273109b1bd8dac81c985b99d948195e18d95959195960621b604082015260600190565b6020808252600790820152663130b21039b7b360c91b604082015260600190565b6020808252601d908201527f416464726573733a2063616c6c20746f206e6f6e2d636f6e7472616374000000604082015260600190565b6020808252601290820152711dda5d1a191c985dce881b9bdd0819dbdbd960721b604082015260600190565b6020808252601b908201527f6465706f7369743a206e6f7420616363657074206465706f7369740000000000604082015260600190565b6020808252602a908201527f5361666545524332303a204552433230206f7065726174696f6e20646964206e6040820152691bdd081cdd58d8d9595960b21b606082015260800190565b6020808252601f908201527f5265656e7472616e637947756172643a207265656e7472616e742063616c6c00604082015260600190565b6020808252601290820152711b9bdd1a1a5b99c81d1bc81a185c9d995cdd60721b604082015260600190565b60208082526013908201527206164643a207374616b65546f6b656e2064757606c1b604082015260600190565b90815260200190565b938452602084019290925260408301526001600160a01b0316606082015260800190565b600082198211156124af576124af612551565b500190565b6000826124cf57634e487b7160e01b81526012600452602481fd5b500490565b60008160001904831182151516156124ee576124ee612551565b500290565b60008282101561250557612505612551565b500390565b60005b8381101561252557818101518382015260200161250d565b838111156106b55750506000910152565b600060001982141561254a5761254a612551565b5060010190565b634e487b7160e01b600052601160045260246000fd5b8015158114610cfb57600080fdfea26469706673582212202bada4cc4e25cda83b4be18a962ce1dcb2aa39a809f4f9592e4c40890d3465ba64736f6c63430008000033",
          "opcodes": "PUSH1 0x80 PUSH1 0x40 MSTORE CALLVALUE DUP1 ISZERO PUSH3 0x11 JUMPI PUSH1 0x0 DUP1 REVERT JUMPDEST POP PUSH1 0x40 MLOAD PUSH3 0x2733 CODESIZE SUB DUP1 PUSH3 0x2733 DUP4 CODECOPY DUP2 ADD PUSH1 0x40 DUP2 SWAP1 MSTORE PUSH3 0x34 SWAP2 PUSH3 0x126 JUMP JUMPDEST PUSH3 0x48 PUSH3 0x42 PUSH3 0xB5 JUMP JUMPDEST PUSH3 0xB9 JUMP JUMPDEST PUSH1 0x1 DUP1 DUP1 SSTORE PUSH1 0x0 PUSH1 0x5 DUP2 SWAP1 SSTORE PUSH1 0x9 DUP2 SWAP1 SSTORE PUSH1 0x2 DUP1 SLOAD PUSH1 0x1 PUSH1 0x1 PUSH1 0xA0 SHL SUB SWAP9 DUP10 AND PUSH1 0x1 PUSH1 0x1 PUSH1 0xA0 SHL SUB NOT SWAP2 DUP3 AND OR SWAP1 SWAP2 SSTORE PUSH1 0x3 DUP1 SLOAD SWAP8 SWAP1 SWAP9 AND SWAP7 AND SWAP6 SWAP1 SWAP6 OR SWAP1 SWAP6 SSTORE PUSH1 0x4 SWAP3 SWAP1 SWAP3 SSTORE PUSH1 0x6 SWAP2 SWAP1 SWAP2 SSTORE PUSH1 0xA SSTORE CALLER DUP2 MSTORE PUSH1 0xB PUSH1 0x20 MSTORE PUSH1 0x40 SWAP1 KECCAK256 DUP1 SLOAD PUSH1 0xFF NOT AND SWAP1 SWAP2 OR SWAP1 SSTORE PUSH3 0x178 JUMP JUMPDEST CALLER SWAP1 JUMP JUMPDEST PUSH1 0x0 DUP1 SLOAD PUSH1 0x1 PUSH1 0x1 PUSH1 0xA0 SHL SUB DUP4 DUP2 AND PUSH1 0x1 PUSH1 0x1 PUSH1 0xA0 SHL SUB NOT DUP4 AND DUP2 OR DUP5 SSTORE PUSH1 0x40 MLOAD SWAP2 SWAP1 SWAP3 AND SWAP3 DUP4 SWAP2 PUSH32 0x8BE0079C531659141344CD1FD0A4F28419497F9722A3DAAFE3B4186F6B6457E0 SWAP2 SWAP1 LOG3 POP POP JUMP JUMPDEST DUP1 MLOAD PUSH1 0x1 PUSH1 0x1 PUSH1 0xA0 SHL SUB DUP2 AND DUP2 EQ PUSH3 0x121 JUMPI PUSH1 0x0 DUP1 REVERT JUMPDEST SWAP2 SWAP1 POP JUMP JUMPDEST PUSH1 0x0 DUP1 PUSH1 0x0 DUP1 PUSH1 0x0 PUSH1 0xA0 DUP7 DUP9 SUB SLT ISZERO PUSH3 0x13E JUMPI DUP1 DUP2 REVERT JUMPDEST PUSH3 0x149 DUP7 PUSH3 0x109 JUMP JUMPDEST SWAP5 POP PUSH3 0x159 PUSH1 0x20 DUP8 ADD PUSH3 0x109 JUMP JUMPDEST PUSH1 0x40 DUP8 ADD MLOAD PUSH1 0x60 DUP9 ADD MLOAD PUSH1 0x80 SWAP1 SWAP9 ADD MLOAD SWAP7 SWAP10 SWAP2 SWAP9 POP SWAP7 SWAP6 SWAP5 POP SWAP3 POP POP POP JUMP JUMPDEST PUSH2 0x25AB DUP1 PUSH3 0x188 PUSH1 0x0 CODECOPY PUSH1 0x0 RETURN INVALID PUSH1 0x80 PUSH1 0x40 MSTORE CALLVALUE DUP1 ISZERO PUSH2 0x10 JUMPI PUSH1 0x0 DUP1 REVERT JUMPDEST POP PUSH1 0x4 CALLDATASIZE LT PUSH2 0x1FB JUMPI PUSH1 0x0 CALLDATALOAD PUSH1 0xE0 SHR DUP1 PUSH4 0x715018A6 GT PUSH2 0x11A JUMPI DUP1 PUSH4 0xB5C5F672 GT PUSH2 0xAD JUMPI DUP1 PUSH4 0xD4A91E38 GT PUSH2 0x7C JUMPI DUP1 PUSH4 0xD4A91E38 EQ PUSH2 0x3EE JUMPI DUP1 PUSH4 0xDDC63262 EQ PUSH2 0x401 JUMPI DUP1 PUSH4 0xE4C5FF46 EQ PUSH2 0x414 JUMPI DUP1 PUSH4 0xF1101804 EQ PUSH2 0x427 JUMPI DUP1 PUSH4 0xF2FDE38B EQ PUSH2 0x42F JUMPI PUSH2 0x1FB JUMP JUMPDEST DUP1 PUSH4 0xB5C5F672 EQ PUSH2 0x3AD JUMPI DUP1 PUSH4 0xCC6DBC27 EQ PUSH2 0x3C0 JUMPI DUP1 PUSH4 0xD477F05F EQ PUSH2 0x3D3 JUMPI DUP1 PUSH4 0xD49E77CD EQ PUSH2 0x3E6 JUMPI PUSH2 0x1FB JUMP JUMPDEST DUP1 PUSH4 0x930ED033 GT PUSH2 0xE9 JUMPI DUP1 PUSH4 0x930ED033 EQ PUSH2 0x35C JUMPI DUP1 PUSH4 0x93F1A40B EQ PUSH2 0x36F JUMPI DUP1 PUSH4 0xA8B973A1 EQ PUSH2 0x392 JUMPI DUP1 PUSH4 0xB03DF69D EQ PUSH2 0x39A JUMPI PUSH2 0x1FB JUMP JUMPDEST DUP1 PUSH4 0x715018A6 EQ PUSH2 0x326 JUMPI DUP1 PUSH4 0x7ABCEFFD EQ PUSH2 0x32E JUMPI DUP1 PUSH4 0x8DA5CB5B EQ PUSH2 0x341 JUMPI DUP1 PUSH4 0x8DBB1E3A EQ PUSH2 0x349 JUMPI PUSH2 0x1FB JUMP JUMPDEST DUP1 PUSH4 0x2E97766D GT PUSH2 0x192 JUMPI DUP1 PUSH4 0x4ECAAC41 GT PUSH2 0x161 JUMPI DUP1 PUSH4 0x4ECAAC41 EQ PUSH2 0x2E3 JUMPI DUP1 PUSH4 0x51EB05A6 EQ PUSH2 0x2F8 JUMPI DUP1 PUSH4 0x5312EA8E EQ PUSH2 0x30B JUMPI DUP1 PUSH4 0x630B5BA1 EQ PUSH2 0x31E JUMPI PUSH2 0x1FB JUMP JUMPDEST DUP1 PUSH4 0x2E97766D EQ PUSH2 0x2AD JUMPI DUP1 PUSH4 0x46CA6BEA EQ PUSH2 0x2B5 JUMPI DUP1 PUSH4 0x48C7E528 EQ PUSH2 0x2C8 JUMPI DUP1 PUSH4 0x48CD4CB1 EQ PUSH2 0x2DB JUMPI PUSH2 0x1FB JUMP JUMPDEST DUP1 PUSH4 0x17CAF6F1 GT PUSH2 0x1CE JUMPI DUP1 PUSH4 0x17CAF6F1 EQ PUSH2 0x26A JUMPI DUP1 PUSH4 0x1AED6553 EQ PUSH2 0x272 JUMPI DUP1 PUSH4 0x1E1BFF3F EQ PUSH2 0x27A JUMPI DUP1 PUSH4 0x24CDEE22 EQ PUSH2 0x29A JUMPI PUSH2 0x1FB JUMP JUMPDEST DUP1 PUSH4 0x37C99B0 EQ PUSH2 0x200 JUMPI DUP1 PUSH4 0x81E3EDA EQ PUSH2 0x215 JUMPI DUP1 PUSH4 0xEFE6A8B EQ PUSH2 0x233 JUMPI DUP1 PUSH4 0x1526FE27 EQ PUSH2 0x246 JUMPI JUMPDEST PUSH1 0x0 DUP1 REVERT JUMPDEST PUSH2 0x213 PUSH2 0x20E CALLDATASIZE PUSH1 0x4 PUSH2 0x1EA4 JUMP JUMPDEST PUSH2 0x442 JUMP JUMPDEST STOP JUMPDEST PUSH2 0x21D PUSH2 0x4D4 JUMP JUMPDEST PUSH1 0x40 MLOAD PUSH2 0x22A SWAP2 SWAP1 PUSH2 0x246F JUMP JUMPDEST PUSH1 0x40 MLOAD DUP1 SWAP2 SUB SWAP1 RETURN JUMPDEST PUSH2 0x213 PUSH2 0x241 CALLDATASIZE PUSH1 0x4 PUSH2 0x1DBC JUMP JUMPDEST PUSH2 0x4DA JUMP JUMPDEST PUSH2 0x259 PUSH2 0x254 CALLDATASIZE PUSH1 0x4 PUSH2 0x1E0A JUMP JUMPDEST PUSH2 0x6BB JUMP JUMPDEST PUSH1 0x40 MLOAD PUSH2 0x22A SWAP6 SWAP5 SWAP4 SWAP3 SWAP2 SWAP1 PUSH2 0x1F5F JUMP JUMPDEST PUSH2 0x21D PUSH2 0x706 JUMP JUMPDEST PUSH2 0x21D PUSH2 0x70C JUMP JUMPDEST PUSH2 0x28D PUSH2 0x288 CALLDATASIZE PUSH1 0x4 PUSH2 0x1D5D JUMP JUMPDEST PUSH2 0x712 JUMP JUMPDEST PUSH1 0x40 MLOAD PUSH2 0x22A SWAP2 SWAP1 PUSH2 0x1F8D JUMP JUMPDEST PUSH2 0x21D PUSH2 0x2A8 CALLDATASIZE PUSH1 0x4 PUSH2 0x1E3A JUMP JUMPDEST PUSH2 0x781 JUMP JUMPDEST PUSH2 0x21D PUSH2 0x90B JUMP JUMPDEST PUSH2 0x213 PUSH2 0x2C3 CALLDATASIZE PUSH1 0x4 PUSH2 0x1EC5 JUMP JUMPDEST PUSH2 0x90F JUMP JUMPDEST PUSH2 0x28D PUSH2 0x2D6 CALLDATASIZE PUSH1 0x4 PUSH2 0x1D43 JUMP JUMPDEST PUSH2 0x9DF JUMP JUMPDEST PUSH2 0x21D PUSH2 0x9F4 JUMP JUMPDEST PUSH2 0x2EB PUSH2 0x9FA JUMP JUMPDEST PUSH1 0x40 MLOAD PUSH2 0x22A SWAP2 SWAP1 PUSH2 0x1F0E JUMP JUMPDEST PUSH2 0x213 PUSH2 0x306 CALLDATASIZE PUSH1 0x4 PUSH2 0x1E0A JUMP JUMPDEST PUSH2 0xA09 JUMP JUMPDEST PUSH2 0x213 PUSH2 0x319 CALLDATASIZE PUSH1 0x4 PUSH2 0x1E0A JUMP JUMPDEST PUSH2 0xCFE JUMP JUMPDEST PUSH2 0x213 PUSH2 0xDB3 JUMP JUMPDEST PUSH2 0x213 PUSH2 0xDDE JUMP JUMPDEST PUSH2 0x213 PUSH2 0x33C CALLDATASIZE PUSH1 0x4 PUSH2 0x1E65 JUMP JUMPDEST PUSH2 0xE29 JUMP JUMPDEST PUSH2 0x2EB PUSH2 0x1004 JUMP JUMPDEST PUSH2 0x21D PUSH2 0x357 CALLDATASIZE PUSH1 0x4 PUSH2 0x1EA4 JUMP JUMPDEST PUSH2 0x1013 JUMP JUMPDEST PUSH2 0x28D PUSH2 0x36A CALLDATASIZE PUSH1 0x4 PUSH2 0x1D93 JUMP JUMPDEST PUSH2 0x10A3 JUMP JUMPDEST PUSH2 0x382 PUSH2 0x37D CALLDATASIZE PUSH1 0x4 PUSH2 0x1E3A JUMP JUMPDEST PUSH2 0x1101 JUMP JUMPDEST PUSH1 0x40 MLOAD PUSH2 0x22A SWAP5 SWAP4 SWAP3 SWAP2 SWAP1 PUSH2 0x2478 JUMP JUMPDEST PUSH2 0x21D PUSH2 0x113C JUMP JUMPDEST PUSH2 0x28D PUSH2 0x3A8 CALLDATASIZE PUSH1 0x4 PUSH2 0x1D43 JUMP JUMPDEST PUSH2 0x1142 JUMP JUMPDEST PUSH2 0x213 PUSH2 0x3BB CALLDATASIZE PUSH1 0x4 PUSH2 0x1DBC JUMP JUMPDEST PUSH2 0x11C6 JUMP JUMPDEST PUSH2 0x213 PUSH2 0x3CE CALLDATASIZE PUSH1 0x4 PUSH2 0x1D93 JUMP JUMPDEST PUSH2 0x120C JUMP JUMPDEST PUSH2 0x213 PUSH2 0x3E1 CALLDATASIZE PUSH1 0x4 PUSH2 0x1D43 JUMP JUMPDEST PUSH2 0x127C JUMP JUMPDEST PUSH2 0x2EB PUSH2 0x1318 JUMP JUMPDEST PUSH2 0x213 PUSH2 0x3FC CALLDATASIZE PUSH1 0x4 PUSH2 0x1E0A JUMP JUMPDEST PUSH2 0x1327 JUMP JUMPDEST PUSH2 0x213 PUSH2 0x40F CALLDATASIZE PUSH1 0x4 PUSH2 0x1E0A JUMP JUMPDEST PUSH2 0x1399 JUMP JUMPDEST PUSH2 0x213 PUSH2 0x422 CALLDATASIZE PUSH1 0x4 PUSH2 0x1D93 JUMP JUMPDEST PUSH2 0x143C JUMP JUMPDEST PUSH2 0x21D PUSH2 0x153A JUMP JUMPDEST PUSH2 0x213 PUSH2 0x43D CALLDATASIZE PUSH1 0x4 PUSH2 0x1D43 JUMP JUMPDEST PUSH2 0x1540 JUMP JUMPDEST PUSH2 0x44A PUSH2 0x15AE JUMP JUMPDEST PUSH1 0x1 PUSH1 0x1 PUSH1 0xA0 SHL SUB AND PUSH2 0x45B PUSH2 0x1004 JUMP JUMPDEST PUSH1 0x1 PUSH1 0x1 PUSH1 0xA0 SHL SUB AND EQ PUSH2 0x48A JUMPI PUSH1 0x40 MLOAD PUSH3 0x461BCD PUSH1 0xE5 SHL DUP2 MSTORE PUSH1 0x4 ADD PUSH2 0x481 SWAP1 PUSH2 0x224B JUMP JUMPDEST PUSH1 0x40 MLOAD DUP1 SWAP2 SUB SWAP1 REVERT JUMPDEST NUMBER DUP2 GT PUSH2 0x4A9 JUMPI PUSH1 0x40 MLOAD PUSH3 0x461BCD PUSH1 0xE5 SHL DUP2 MSTORE PUSH1 0x4 ADD PUSH2 0x481 SWAP1 PUSH2 0x2011 JUMP JUMPDEST PUSH1 0x1 DUP3 GT PUSH2 0x4C9 JUMPI PUSH1 0x40 MLOAD PUSH3 0x461BCD PUSH1 0xE5 SHL DUP2 MSTORE PUSH1 0x4 ADD PUSH2 0x481 SWAP1 PUSH2 0x21D3 JUMP JUMPDEST PUSH1 0x5 SWAP2 SWAP1 SWAP2 SSTORE PUSH1 0x6 SSTORE JUMP JUMPDEST PUSH1 0x7 SLOAD SWAP1 JUMP JUMPDEST PUSH1 0x1 DUP1 PUSH1 0x0 DUP3 DUP3 SLOAD PUSH2 0x4EC SWAP2 SWAP1 PUSH2 0x249C JUMP JUMPDEST SWAP1 SWAP2 SSTORE POP POP PUSH1 0x1 SLOAD PUSH1 0x7 DUP1 SLOAD PUSH1 0x0 SWAP2 SWAP1 DUP6 SWAP1 DUP2 LT PUSH2 0x51A JUMPI PUSH4 0x4E487B71 PUSH1 0xE0 SHL PUSH1 0x0 MSTORE PUSH1 0x32 PUSH1 0x4 MSTORE PUSH1 0x24 PUSH1 0x0 REVERT JUMPDEST PUSH1 0x0 SWAP2 DUP3 MSTORE PUSH1 0x20 DUP1 DUP4 KECCAK256 DUP8 DUP5 MSTORE PUSH1 0x8 DUP3 MSTORE PUSH1 0x40 DUP1 DUP6 KECCAK256 PUSH1 0x1 PUSH1 0x1 PUSH1 0xA0 SHL SUB DUP1 DUP13 AND DUP8 MSTORE SWAP4 MSTORE SWAP1 SWAP4 KECCAK256 PUSH1 0x3 DUP2 ADD SLOAD PUSH1 0x5 SWAP1 SWAP4 MUL SWAP1 SWAP4 ADD SWAP4 POP AND ISZERO PUSH2 0x583 JUMPI PUSH1 0x3 DUP2 ADD SLOAD PUSH1 0x1 PUSH1 0x1 PUSH1 0xA0 SHL SUB AND CALLER EQ PUSH2 0x583 JUMPI PUSH1 0x40 MLOAD PUSH3 0x461BCD PUSH1 0xE5 SHL DUP2 MSTORE PUSH1 0x4 ADD PUSH2 0x481 SWAP1 PUSH2 0x22DA JUMP JUMPDEST DUP2 SLOAD PUSH1 0x1 PUSH1 0x1 PUSH1 0xA0 SHL SUB AND PUSH2 0x5AA JUMPI PUSH1 0x40 MLOAD PUSH3 0x461BCD PUSH1 0xE5 SHL DUP2 MSTORE PUSH1 0x4 ADD PUSH2 0x481 SWAP1 PUSH2 0x235E JUMP JUMPDEST PUSH2 0x5B3 DUP6 PUSH2 0xA09 JUMP JUMPDEST DUP1 SLOAD ISZERO PUSH2 0x5C4 JUMPI PUSH2 0x5C4 DUP7 DUP7 PUSH2 0x15B2 JUMP JUMPDEST PUSH1 0x3 DUP2 ADD SLOAD PUSH1 0x1 PUSH1 0x1 PUSH1 0xA0 SHL SUB AND PUSH2 0x5EB JUMPI PUSH1 0x3 DUP2 ADD DUP1 SLOAD PUSH1 0x1 PUSH1 0x1 PUSH1 0xA0 SHL SUB NOT AND CALLER OR SWAP1 SSTORE JUMPDEST DUP2 SLOAD PUSH2 0x602 SWAP1 PUSH1 0x1 PUSH1 0x1 PUSH1 0xA0 SHL SUB AND CALLER ADDRESS DUP8 PUSH2 0x1703 JUMP JUMPDEST DUP1 SLOAD PUSH2 0x60E SWAP1 DUP6 PUSH2 0x175B JUMP JUMPDEST DUP1 DUP3 SSTORE PUSH1 0x3 DUP4 ADD SLOAD PUSH2 0x631 SWAP2 PUSH5 0xE8D4A51000 SWAP2 PUSH2 0x62B SWAP2 SWAP1 PUSH2 0x178A JUMP JUMPDEST SWAP1 PUSH2 0x17CF JUMP JUMPDEST PUSH1 0x1 DUP3 ADD SSTORE PUSH1 0x4 DUP3 ADD SLOAD DUP2 SLOAD PUSH2 0x651 SWAP2 PUSH5 0xE8D4A51000 SWAP2 PUSH2 0x62B SWAP2 PUSH2 0x178A JUMP JUMPDEST PUSH1 0x2 DUP3 ADD SSTORE PUSH1 0x40 MLOAD DUP6 SWAP1 CALLER SWAP1 PUSH32 0x90890809C654F11D6E72A28FA60149770A0D11EC6C92319D6CEB2BB0A4EA1A15 SWAP1 PUSH2 0x68A SWAP1 DUP9 SWAP1 PUSH2 0x246F JUMP JUMPDEST PUSH1 0x40 MLOAD DUP1 SWAP2 SUB SWAP1 LOG3 POP POP PUSH1 0x1 SLOAD DUP2 EQ PUSH2 0x6B5 JUMPI PUSH1 0x40 MLOAD PUSH3 0x461BCD PUSH1 0xE5 SHL DUP2 MSTORE PUSH1 0x4 ADD PUSH2 0x481 SWAP1 PUSH2 0x23DF JUMP JUMPDEST POP POP POP POP JUMP JUMPDEST PUSH1 0x7 DUP2 DUP2 SLOAD DUP2 LT PUSH2 0x6CB JUMPI PUSH1 0x0 DUP1 REVERT JUMPDEST PUSH1 0x0 SWAP2 DUP3 MSTORE PUSH1 0x20 SWAP1 SWAP2 KECCAK256 PUSH1 0x5 SWAP1 SWAP2 MUL ADD DUP1 SLOAD PUSH1 0x1 DUP3 ADD SLOAD PUSH1 0x2 DUP4 ADD SLOAD PUSH1 0x3 DUP5 ADD SLOAD PUSH1 0x4 SWAP1 SWAP5 ADD SLOAD PUSH1 0x1 PUSH1 0x1 PUSH1 0xA0 SHL SUB SWAP1 SWAP4 AND SWAP5 POP SWAP1 SWAP3 SWAP1 SWAP2 DUP6 JUMP JUMPDEST PUSH1 0x9 SLOAD DUP2 JUMP JUMPDEST PUSH1 0x6 SLOAD DUP2 JUMP JUMPDEST PUSH1 0x0 PUSH2 0x71C PUSH2 0x15AE JUMP JUMPDEST PUSH1 0x1 PUSH1 0x1 PUSH1 0xA0 SHL SUB AND PUSH2 0x72D PUSH2 0x1004 JUMP JUMPDEST PUSH1 0x1 PUSH1 0x1 PUSH1 0xA0 SHL SUB AND EQ PUSH2 0x753 JUMPI PUSH1 0x40 MLOAD PUSH3 0x461BCD PUSH1 0xE5 SHL DUP2 MSTORE PUSH1 0x4 ADD PUSH2 0x481 SWAP1 PUSH2 0x224B JUMP JUMPDEST POP PUSH1 0x1 PUSH1 0x1 PUSH1 0xA0 SHL SUB DUP3 AND PUSH1 0x0 SWAP1 DUP2 MSTORE PUSH1 0xB PUSH1 0x20 MSTORE PUSH1 0x40 SWAP1 KECCAK256 DUP1 SLOAD PUSH1 0xFF NOT AND DUP3 ISZERO ISZERO OR SWAP1 SSTORE PUSH1 0x1 JUMPDEST SWAP3 SWAP2 POP POP JUMP JUMPDEST PUSH1 0x0 DUP1 PUSH1 0x7 DUP5 DUP2 SLOAD DUP2 LT PUSH2 0x7A5 JUMPI PUSH4 0x4E487B71 PUSH1 0xE0 SHL PUSH1 0x0 MSTORE PUSH1 0x32 PUSH1 0x4 MSTORE PUSH1 0x24 PUSH1 0x0 REVERT JUMPDEST PUSH1 0x0 SWAP2 DUP3 MSTORE PUSH1 0x20 DUP1 DUP4 KECCAK256 DUP8 DUP5 MSTORE PUSH1 0x8 DUP3 MSTORE PUSH1 0x40 DUP1 DUP6 KECCAK256 PUSH1 0x1 PUSH1 0x1 PUSH1 0xA0 SHL SUB DUP1 DUP11 AND DUP8 MSTORE SWAP4 MSTORE DUP1 DUP6 KECCAK256 PUSH1 0x3 PUSH1 0x5 SWAP1 SWAP6 MUL SWAP1 SWAP3 ADD SWAP4 DUP5 ADD SLOAD DUP5 SLOAD SWAP2 MLOAD PUSH4 0x70A08231 PUSH1 0xE0 SHL DUP2 MSTORE SWAP5 SWAP7 POP SWAP2 SWAP5 SWAP2 SWAP4 SWAP2 SWAP3 AND SWAP1 PUSH4 0x70A08231 SWAP1 PUSH2 0x808 SWAP1 ADDRESS SWAP1 PUSH1 0x4 ADD PUSH2 0x1F0E JUMP JUMPDEST PUSH1 0x20 PUSH1 0x40 MLOAD DUP1 DUP4 SUB DUP2 DUP7 DUP1 EXTCODESIZE ISZERO DUP1 ISZERO PUSH2 0x820 JUMPI PUSH1 0x0 DUP1 REVERT JUMPDEST POP GAS STATICCALL ISZERO DUP1 ISZERO PUSH2 0x834 JUMPI RETURNDATASIZE PUSH1 0x0 DUP1 RETURNDATACOPY RETURNDATASIZE PUSH1 0x0 REVERT JUMPDEST POP POP POP POP PUSH1 0x40 MLOAD RETURNDATASIZE PUSH1 0x1F NOT PUSH1 0x1F DUP3 ADD AND DUP3 ADD DUP1 PUSH1 0x40 MSTORE POP DUP2 ADD SWAP1 PUSH2 0x858 SWAP2 SWAP1 PUSH2 0x1E22 JUMP JUMPDEST SWAP1 POP DUP4 PUSH1 0x2 ADD SLOAD NUMBER GT DUP1 ISZERO PUSH2 0x86C JUMPI POP DUP1 ISZERO ISZERO JUMPDEST ISZERO PUSH2 0x8D2 JUMPI PUSH1 0x0 PUSH2 0x881 DUP6 PUSH1 0x2 ADD SLOAD NUMBER PUSH2 0x1013 JUMP JUMPDEST SWAP1 POP PUSH1 0x0 PUSH2 0x8AE PUSH1 0x9 SLOAD PUSH2 0x62B DUP9 PUSH1 0x1 ADD SLOAD PUSH2 0x8A8 PUSH1 0x4 SLOAD DUP8 PUSH2 0x178A SWAP1 SWAP2 SWAP1 PUSH4 0xFFFFFFFF AND JUMP JUMPDEST SWAP1 PUSH2 0x178A JUMP JUMPDEST SWAP1 POP PUSH2 0x8CD PUSH2 0x8C6 DUP5 PUSH2 0x62B DUP5 PUSH5 0xE8D4A51000 PUSH2 0x178A JUMP JUMPDEST DUP6 SWAP1 PUSH2 0x175B JUMP JUMPDEST SWAP4 POP POP POP JUMPDEST PUSH2 0x900 DUP4 PUSH1 0x1 ADD SLOAD PUSH2 0x8FA PUSH5 0xE8D4A51000 PUSH2 0x62B DUP7 DUP9 PUSH1 0x0 ADD SLOAD PUSH2 0x178A SWAP1 SWAP2 SWAP1 PUSH4 0xFFFFFFFF AND JUMP JUMPDEST SWAP1 PUSH2 0x17FA JUMP JUMPDEST SWAP8 SWAP7 POP POP POP POP POP POP POP JUMP JUMPDEST NUMBER SWAP1 JUMP JUMPDEST CALLER PUSH1 0x0 SWAP1 DUP2 MSTORE PUSH1 0xB PUSH1 0x20 MSTORE PUSH1 0x40 SWAP1 KECCAK256 SLOAD PUSH1 0xFF AND PUSH2 0x93E JUMPI PUSH1 0x40 MLOAD PUSH3 0x461BCD PUSH1 0xE5 SHL DUP2 MSTORE PUSH1 0x4 ADD PUSH2 0x481 SWAP1 PUSH2 0x207F JUMP JUMPDEST DUP1 ISZERO PUSH2 0x94C JUMPI PUSH2 0x94C PUSH2 0xDB3 JUMP JUMPDEST PUSH2 0x99D DUP3 PUSH2 0x997 PUSH1 0x7 DUP7 DUP2 SLOAD DUP2 LT PUSH2 0x974 JUMPI PUSH4 0x4E487B71 PUSH1 0xE0 SHL PUSH1 0x0 MSTORE PUSH1 0x32 PUSH1 0x4 MSTORE PUSH1 0x24 PUSH1 0x0 REVERT JUMPDEST SWAP1 PUSH1 0x0 MSTORE PUSH1 0x20 PUSH1 0x0 KECCAK256 SWAP1 PUSH1 0x5 MUL ADD PUSH1 0x1 ADD SLOAD PUSH1 0x9 SLOAD PUSH2 0x17FA SWAP1 SWAP2 SWAP1 PUSH4 0xFFFFFFFF AND JUMP JUMPDEST SWAP1 PUSH2 0x175B JUMP JUMPDEST PUSH1 0x9 DUP2 SWAP1 SSTORE POP DUP2 PUSH1 0x7 DUP5 DUP2 SLOAD DUP2 LT PUSH2 0x9C5 JUMPI PUSH4 0x4E487B71 PUSH1 0xE0 SHL PUSH1 0x0 MSTORE PUSH1 0x32 PUSH1 0x4 MSTORE PUSH1 0x24 PUSH1 0x0 REVERT JUMPDEST SWAP1 PUSH1 0x0 MSTORE PUSH1 0x20 PUSH1 0x0 KECCAK256 SWAP1 PUSH1 0x5 MUL ADD PUSH1 0x1 ADD DUP2 SWAP1 SSTORE POP POP POP POP JUMP JUMPDEST PUSH1 0xB PUSH1 0x20 MSTORE PUSH1 0x0 SWAP1 DUP2 MSTORE PUSH1 0x40 SWAP1 KECCAK256 SLOAD PUSH1 0xFF AND DUP2 JUMP JUMPDEST PUSH1 0xA SLOAD DUP2 JUMP JUMPDEST PUSH1 0x2 SLOAD PUSH1 0x1 PUSH1 0x1 PUSH1 0xA0 SHL SUB AND DUP2 JUMP JUMPDEST PUSH1 0x0 PUSH1 0x7 DUP3 DUP2 SLOAD DUP2 LT PUSH2 0xA2C JUMPI PUSH4 0x4E487B71 PUSH1 0xE0 SHL PUSH1 0x0 MSTORE PUSH1 0x32 PUSH1 0x4 MSTORE PUSH1 0x24 PUSH1 0x0 REVERT JUMPDEST SWAP1 PUSH1 0x0 MSTORE PUSH1 0x20 PUSH1 0x0 KECCAK256 SWAP1 PUSH1 0x5 MUL ADD SWAP1 POP DUP1 PUSH1 0x2 ADD SLOAD NUMBER GT PUSH2 0xA4D JUMPI POP PUSH2 0xCFB JUMP JUMPDEST DUP1 SLOAD PUSH1 0x40 MLOAD PUSH4 0x70A08231 PUSH1 0xE0 SHL DUP2 MSTORE PUSH1 0x0 SWAP2 PUSH1 0x1 PUSH1 0x1 PUSH1 0xA0 SHL SUB AND SWAP1 PUSH4 0x70A08231 SWAP1 PUSH2 0xA7D SWAP1 ADDRESS SWAP1 PUSH1 0x4 ADD PUSH2 0x1F0E JUMP JUMPDEST PUSH1 0x20 PUSH1 0x40 MLOAD DUP1 DUP4 SUB DUP2 DUP7 DUP1 EXTCODESIZE ISZERO DUP1 ISZERO PUSH2 0xA95 JUMPI PUSH1 0x0 DUP1 REVERT JUMPDEST POP GAS STATICCALL ISZERO DUP1 ISZERO PUSH2 0xAA9 JUMPI RETURNDATASIZE PUSH1 0x0 DUP1 RETURNDATACOPY RETURNDATASIZE PUSH1 0x0 REVERT JUMPDEST POP POP POP POP PUSH1 0x40 MLOAD RETURNDATASIZE PUSH1 0x1F NOT PUSH1 0x1F DUP3 ADD AND DUP3 ADD DUP1 PUSH1 0x40 MSTORE POP DUP2 ADD SWAP1 PUSH2 0xACD SWAP2 SWAP1 PUSH2 0x1E22 JUMP JUMPDEST SWAP1 POP DUP1 PUSH2 0xAE1 JUMPI POP NUMBER PUSH1 0x2 SWAP1 SWAP2 ADD SSTORE PUSH2 0xCFB JUMP JUMPDEST PUSH1 0x0 PUSH2 0xAF1 DUP4 PUSH1 0x2 ADD SLOAD NUMBER PUSH2 0x1013 JUMP JUMPDEST SWAP1 POP PUSH1 0x0 PUSH2 0xB18 PUSH1 0x9 SLOAD PUSH2 0x62B DUP7 PUSH1 0x1 ADD SLOAD PUSH2 0x8A8 PUSH1 0x4 SLOAD DUP8 PUSH2 0x178A SWAP1 SWAP2 SWAP1 PUSH4 0xFFFFFFFF AND JUMP JUMPDEST PUSH1 0x2 SLOAD PUSH1 0x3 SLOAD SWAP2 SWAP3 POP PUSH1 0x1 PUSH1 0x1 PUSH1 0xA0 SHL SUB SWAP1 DUP2 AND SWAP2 PUSH4 0x40C10F19 SWAP2 AND PUSH2 0xB44 PUSH1 0x64 PUSH2 0x62B DUP7 PUSH1 0x14 PUSH2 0x178A JUMP JUMPDEST PUSH1 0x40 MLOAD DUP4 PUSH4 0xFFFFFFFF AND PUSH1 0xE0 SHL DUP2 MSTORE PUSH1 0x4 ADD PUSH2 0xB61 SWAP3 SWAP2 SWAP1 PUSH2 0x1F46 JUMP JUMPDEST PUSH1 0x20 PUSH1 0x40 MLOAD DUP1 DUP4 SUB DUP2 PUSH1 0x0 DUP8 DUP1 EXTCODESIZE ISZERO DUP1 ISZERO PUSH2 0xB7B JUMPI PUSH1 0x0 DUP1 REVERT JUMPDEST POP GAS CALL ISZERO DUP1 ISZERO PUSH2 0xB8F JUMPI RETURNDATASIZE PUSH1 0x0 DUP1 RETURNDATACOPY RETURNDATASIZE PUSH1 0x0 REVERT JUMPDEST POP POP POP POP PUSH1 0x40 MLOAD RETURNDATASIZE PUSH1 0x1F NOT PUSH1 0x1F DUP3 ADD AND DUP3 ADD DUP1 PUSH1 0x40 MSTORE POP DUP2 ADD SWAP1 PUSH2 0xBB3 SWAP2 SWAP1 PUSH2 0x1DEE JUMP JUMPDEST POP PUSH1 0x2 SLOAD PUSH1 0x40 MLOAD PUSH4 0x40C10F19 PUSH1 0xE0 SHL DUP2 MSTORE PUSH1 0x1 PUSH1 0x1 PUSH1 0xA0 SHL SUB SWAP1 SWAP2 AND SWAP1 PUSH4 0x40C10F19 SWAP1 PUSH2 0xBE6 SWAP1 ADDRESS SWAP1 DUP6 SWAP1 PUSH1 0x4 ADD PUSH2 0x1F46 JUMP JUMPDEST PUSH1 0x20 PUSH1 0x40 MLOAD DUP1 DUP4 SUB DUP2 PUSH1 0x0 DUP8 DUP1 EXTCODESIZE ISZERO DUP1 ISZERO PUSH2 0xC00 JUMPI PUSH1 0x0 DUP1 REVERT JUMPDEST POP GAS CALL ISZERO DUP1 ISZERO PUSH2 0xC14 JUMPI RETURNDATASIZE PUSH1 0x0 DUP1 RETURNDATACOPY RETURNDATASIZE PUSH1 0x0 REVERT JUMPDEST POP POP POP POP PUSH1 0x40 MLOAD RETURNDATASIZE PUSH1 0x1F NOT PUSH1 0x1F DUP3 ADD AND DUP3 ADD DUP1 PUSH1 0x40 MSTORE POP DUP2 ADD SWAP1 PUSH2 0xC38 SWAP2 SWAP1 PUSH2 0x1DEE JUMP JUMPDEST POP PUSH2 0xC5A PUSH2 0xC4F DUP5 PUSH2 0x62B DUP5 PUSH5 0xE8D4A51000 PUSH2 0x178A JUMP JUMPDEST PUSH1 0x3 DUP7 ADD SLOAD SWAP1 PUSH2 0x175B JUMP JUMPDEST PUSH1 0x3 DUP6 ADD SSTORE PUSH1 0x6 SLOAD NUMBER GT PUSH2 0xC73 JUMPI PUSH1 0x3 DUP5 ADD SLOAD PUSH1 0x4 DUP6 ADD SSTORE JUMPDEST PUSH1 0x6 SLOAD NUMBER GT DUP1 ISZERO PUSH2 0xC89 JUMPI POP PUSH1 0x6 SLOAD DUP5 PUSH1 0x2 ADD SLOAD LT JUMPDEST ISZERO PUSH2 0xCED JUMPI PUSH1 0x0 PUSH2 0xCC3 PUSH1 0x9 SLOAD PUSH2 0x62B DUP8 PUSH1 0x1 ADD SLOAD PUSH2 0x8A8 PUSH1 0x4 SLOAD PUSH2 0x8A8 PUSH1 0x5 SLOAD PUSH2 0x8A8 DUP14 PUSH1 0x2 ADD SLOAD PUSH1 0x6 SLOAD PUSH2 0x17FA SWAP1 SWAP2 SWAP1 PUSH4 0xFFFFFFFF AND JUMP JUMPDEST SWAP1 POP PUSH2 0xCE6 PUSH2 0xCDB DUP6 PUSH2 0x62B DUP5 PUSH5 0xE8D4A51000 PUSH2 0x178A JUMP JUMPDEST PUSH1 0x4 DUP8 ADD SLOAD SWAP1 PUSH2 0x175B JUMP JUMPDEST PUSH1 0x4 DUP7 ADD SSTORE POP JUMPDEST NUMBER DUP5 PUSH1 0x2 ADD DUP2 SWAP1 SSTORE POP POP POP POP POP JUMPDEST POP JUMP JUMPDEST PUSH1 0x0 PUSH1 0x7 DUP3 DUP2 SLOAD DUP2 LT PUSH2 0xD21 JUMPI PUSH4 0x4E487B71 PUSH1 0xE0 SHL PUSH1 0x0 MSTORE PUSH1 0x32 PUSH1 0x4 MSTORE PUSH1 0x24 PUSH1 0x0 REVERT JUMPDEST PUSH1 0x0 SWAP2 DUP3 MSTORE PUSH1 0x20 DUP1 DUP4 KECCAK256 DUP6 DUP5 MSTORE PUSH1 0x8 DUP3 MSTORE PUSH1 0x40 DUP1 DUP6 KECCAK256 CALLER DUP1 DUP8 MSTORE SWAP4 MSTORE DUP5 KECCAK256 DUP1 SLOAD DUP6 DUP3 SSTORE PUSH1 0x1 DUP3 ADD SWAP6 SWAP1 SWAP6 SSTORE PUSH1 0x5 SWAP1 SWAP4 MUL ADD DUP1 SLOAD SWAP1 SWAP5 POP SWAP2 SWAP3 SWAP2 PUSH2 0xD71 SWAP2 PUSH1 0x1 PUSH1 0x1 PUSH1 0xA0 SHL SUB SWAP2 SWAP1 SWAP2 AND SWAP1 DUP4 PUSH2 0x1826 JUMP JUMPDEST DUP2 SLOAD PUSH1 0x40 MLOAD DUP6 SWAP2 CALLER SWAP2 PUSH32 0xBB757047C2B5F3974FE26B7C10F732E7BCE710B0952A71082702781E62AE0595 SWAP2 PUSH2 0xDA5 SWAP2 PUSH2 0x246F JUMP JUMPDEST PUSH1 0x40 MLOAD DUP1 SWAP2 SUB SWAP1 LOG3 POP POP POP POP JUMP JUMPDEST PUSH1 0x7 SLOAD PUSH1 0x0 JUMPDEST DUP2 DUP2 LT ISZERO PUSH2 0xDDA JUMPI PUSH2 0xDCA DUP2 PUSH2 0xA09 JUMP JUMPDEST PUSH2 0xDD3 DUP2 PUSH2 0x2536 JUMP JUMPDEST SWAP1 POP PUSH2 0xDB9 JUMP JUMPDEST POP POP JUMP JUMPDEST PUSH2 0xDE6 PUSH2 0x15AE JUMP JUMPDEST PUSH1 0x1 PUSH1 0x1 PUSH1 0xA0 SHL SUB AND PUSH2 0xDF7 PUSH2 0x1004 JUMP JUMPDEST PUSH1 0x1 PUSH1 0x1 PUSH1 0xA0 SHL SUB AND EQ PUSH2 0xE1D JUMPI PUSH1 0x40 MLOAD PUSH3 0x461BCD PUSH1 0xE5 SHL DUP2 MSTORE PUSH1 0x4 ADD PUSH2 0x481 SWAP1 PUSH2 0x224B JUMP JUMPDEST PUSH2 0xE27 PUSH1 0x0 PUSH2 0x1845 JUMP JUMPDEST JUMP JUMPDEST PUSH2 0xE31 PUSH2 0x15AE JUMP JUMPDEST PUSH1 0x1 PUSH1 0x1 PUSH1 0xA0 SHL SUB AND PUSH2 0xE42 PUSH2 0x1004 JUMP JUMPDEST PUSH1 0x1 PUSH1 0x1 PUSH1 0xA0 SHL SUB AND EQ PUSH2 0xE68 JUMPI PUSH1 0x40 MLOAD PUSH3 0x461BCD PUSH1 0xE5 SHL DUP2 MSTORE PUSH1 0x4 ADD PUSH2 0x481 SWAP1 PUSH2 0x224B JUMP JUMPDEST DUP1 ISZERO PUSH2 0xE76 JUMPI PUSH2 0xE76 PUSH2 0xDB3 JUMP JUMPDEST PUSH1 0x1 PUSH1 0x1 PUSH1 0xA0 SHL SUB DUP3 AND PUSH2 0xE9C JUMPI PUSH1 0x40 MLOAD PUSH3 0x461BCD PUSH1 0xE5 SHL DUP2 MSTORE PUSH1 0x4 ADD PUSH2 0x481 SWAP1 PUSH2 0x20E8 JUMP JUMPDEST PUSH2 0xEA5 DUP3 PUSH2 0x1142 JUMP JUMPDEST ISZERO PUSH2 0xEC2 JUMPI PUSH1 0x40 MLOAD PUSH3 0x461BCD PUSH1 0xE5 SHL DUP2 MSTORE PUSH1 0x4 ADD PUSH2 0x481 SWAP1 PUSH2 0x2442 JUMP JUMPDEST PUSH1 0x0 PUSH1 0xA SLOAD NUMBER GT PUSH2 0xED5 JUMPI PUSH1 0xA SLOAD PUSH2 0xED7 JUMP JUMPDEST NUMBER JUMPDEST PUSH1 0x9 SLOAD SWAP1 SWAP2 POP PUSH2 0xEE7 SWAP1 DUP6 PUSH2 0x175B JUMP JUMPDEST PUSH1 0x9 SSTORE PUSH1 0x40 DUP1 MLOAD PUSH1 0xA0 DUP2 ADD DUP3 MSTORE PUSH1 0x1 PUSH1 0x1 PUSH1 0xA0 SHL SUB SWAP5 DUP6 AND DUP2 MSTORE PUSH1 0x20 DUP2 ADD SWAP6 DUP7 MSTORE SWAP1 DUP2 ADD SWAP2 DUP3 MSTORE PUSH1 0x0 PUSH1 0x60 DUP3 ADD DUP2 DUP2 MSTORE PUSH1 0x80 DUP4 ADD DUP3 DUP2 MSTORE PUSH1 0x7 DUP1 SLOAD PUSH1 0x1 DUP2 ADD DUP3 SSTORE SWAP4 MSTORE SWAP3 MLOAD PUSH32 0xA66CC928B5EDB82AF9BD49922954155AB7B0942694BEA4CE44661D9A8736C688 PUSH1 0x5 SWAP1 SWAP4 MUL SWAP3 DUP4 ADD DUP1 SLOAD PUSH1 0x1 PUSH1 0x1 PUSH1 0xA0 SHL SUB NOT AND SWAP2 SWAP1 SWAP8 AND OR SWAP1 SWAP6 SSTORE SWAP5 MLOAD PUSH32 0xA66CC928B5EDB82AF9BD49922954155AB7B0942694BEA4CE44661D9A8736C689 DUP7 ADD SSTORE SWAP1 MLOAD PUSH32 0xA66CC928B5EDB82AF9BD49922954155AB7B0942694BEA4CE44661D9A8736C68A DUP6 ADD SSTORE SWAP2 MLOAD PUSH32 0xA66CC928B5EDB82AF9BD49922954155AB7B0942694BEA4CE44661D9A8736C68B DUP5 ADD SSTORE POP MLOAD PUSH32 0xA66CC928B5EDB82AF9BD49922954155AB7B0942694BEA4CE44661D9A8736C68C SWAP1 SWAP2 ADD SSTORE JUMP JUMPDEST PUSH1 0x0 SLOAD PUSH1 0x1 PUSH1 0x1 PUSH1 0xA0 SHL SUB AND SWAP1 JUMP JUMPDEST PUSH1 0x0 DUP2 DUP4 GT ISZERO PUSH2 0x1035 JUMPI PUSH1 0x40 MLOAD PUSH3 0x461BCD PUSH1 0xE5 SHL DUP2 MSTORE PUSH1 0x4 ADD PUSH2 0x481 SWAP1 PUSH2 0x22AC JUMP JUMPDEST PUSH1 0x6 SLOAD DUP3 GT PUSH2 0x1056 JUMPI PUSH1 0x5 SLOAD PUSH2 0x104F SWAP1 PUSH2 0x8A8 DUP5 DUP7 PUSH2 0x17FA JUMP JUMPDEST SWAP1 POP PUSH2 0x77B JUMP JUMPDEST PUSH1 0x6 SLOAD DUP4 LT PUSH2 0x1069 JUMPI PUSH2 0x104F DUP3 DUP5 PUSH2 0x17FA JUMP JUMPDEST PUSH2 0x109C PUSH2 0x1081 PUSH1 0x6 SLOAD DUP5 PUSH2 0x17FA SWAP1 SWAP2 SWAP1 PUSH4 0xFFFFFFFF AND JUMP JUMPDEST PUSH2 0x997 PUSH1 0x5 SLOAD PUSH2 0x8A8 DUP8 PUSH1 0x6 SLOAD PUSH2 0x17FA SWAP1 SWAP2 SWAP1 PUSH4 0xFFFFFFFF AND JUMP JUMPDEST SWAP4 SWAP3 POP POP POP JUMP JUMPDEST PUSH1 0x0 PUSH2 0x10AD PUSH2 0x15AE JUMP JUMPDEST PUSH1 0x1 PUSH1 0x1 PUSH1 0xA0 SHL SUB AND PUSH2 0x10BE PUSH2 0x1004 JUMP JUMPDEST PUSH1 0x1 PUSH1 0x1 PUSH1 0xA0 SHL SUB AND EQ PUSH2 0x10E4 JUMPI PUSH1 0x40 MLOAD PUSH3 0x461BCD PUSH1 0xE5 SHL DUP2 MSTORE PUSH1 0x4 ADD PUSH2 0x481 SWAP1 PUSH2 0x224B JUMP JUMPDEST PUSH2 0x10F8 PUSH1 0x1 PUSH1 0x1 PUSH1 0xA0 SHL SUB DUP5 AND CALLER DUP5 PUSH2 0x1826 JUMP JUMPDEST POP PUSH1 0x1 SWAP3 SWAP2 POP POP JUMP JUMPDEST PUSH1 0x8 PUSH1 0x20 SWAP1 DUP2 MSTORE PUSH1 0x0 SWAP3 DUP4 MSTORE PUSH1 0x40 DUP1 DUP5 KECCAK256 SWAP1 SWAP2 MSTORE SWAP1 DUP3 MSTORE SWAP1 KECCAK256 DUP1 SLOAD PUSH1 0x1 DUP3 ADD SLOAD PUSH1 0x2 DUP4 ADD SLOAD PUSH1 0x3 SWAP1 SWAP4 ADD SLOAD SWAP2 SWAP3 SWAP1 SWAP2 PUSH1 0x1 PUSH1 0x1 PUSH1 0xA0 SHL SUB AND DUP5 JUMP JUMPDEST PUSH1 0x5 SLOAD DUP2 JUMP JUMPDEST PUSH1 0x7 SLOAD PUSH1 0x0 SWAP1 DUP2 JUMPDEST DUP2 DUP2 LT ISZERO PUSH2 0x11BA JUMPI DUP4 PUSH1 0x1 PUSH1 0x1 PUSH1 0xA0 SHL SUB AND PUSH1 0x7 DUP3 DUP2 SLOAD DUP2 LT PUSH2 0x117D JUMPI PUSH4 0x4E487B71 PUSH1 0xE0 SHL PUSH1 0x0 MSTORE PUSH1 0x32 PUSH1 0x4 MSTORE PUSH1 0x24 PUSH1 0x0 REVERT JUMPDEST PUSH1 0x0 SWAP2 DUP3 MSTORE PUSH1 0x20 SWAP1 SWAP2 KECCAK256 PUSH1 0x5 SWAP1 SWAP2 MUL ADD SLOAD PUSH1 0x1 PUSH1 0x1 PUSH1 0xA0 SHL SUB AND EQ ISZERO PUSH2 0x11A8 JUMPI PUSH1 0x1 SWAP3 POP POP POP PUSH2 0x11C1 JUMP JUMPDEST DUP1 PUSH2 0x11B2 DUP2 PUSH2 0x2536 JUMP JUMPDEST SWAP2 POP POP PUSH2 0x114A JUMP JUMPDEST POP PUSH1 0x0 SWAP2 POP POP JUMPDEST SWAP2 SWAP1 POP JUMP JUMPDEST PUSH1 0x1 DUP1 PUSH1 0x0 DUP3 DUP3 SLOAD PUSH2 0x11D8 SWAP2 SWAP1 PUSH2 0x249C JUMP JUMPDEST SWAP1 SWAP2 SSTORE POP POP PUSH1 0x1 SLOAD PUSH2 0x11EB DUP5 DUP5 DUP5 PUSH2 0x1895 JUMP JUMPDEST PUSH1 0x1 SLOAD DUP2 EQ PUSH2 0x6B5 JUMPI PUSH1 0x40 MLOAD PUSH3 0x461BCD PUSH1 0xE5 SHL DUP2 MSTORE PUSH1 0x4 ADD PUSH2 0x481 SWAP1 PUSH2 0x23DF JUMP JUMPDEST PUSH1 0x1 DUP1 PUSH1 0x0 DUP3 DUP3 SLOAD PUSH2 0x121E SWAP2 SWAP1 PUSH2 0x249C JUMP JUMPDEST SWAP1 SWAP2 SSTORE POP POP PUSH1 0x1 SLOAD PUSH1 0x0 DUP3 DUP2 MSTORE PUSH1 0x8 PUSH1 0x20 SWAP1 DUP2 MSTORE PUSH1 0x40 DUP1 DUP4 KECCAK256 PUSH1 0x1 PUSH1 0x1 PUSH1 0xA0 SHL SUB DUP8 AND DUP5 MSTORE SWAP1 SWAP2 MSTORE SWAP1 KECCAK256 SLOAD PUSH2 0x1256 SWAP1 DUP5 SWAP1 DUP5 SWAP1 PUSH2 0x1895 JUMP JUMPDEST PUSH1 0x1 SLOAD DUP2 EQ PUSH2 0x1277 JUMPI PUSH1 0x40 MLOAD PUSH3 0x461BCD PUSH1 0xE5 SHL DUP2 MSTORE PUSH1 0x4 ADD PUSH2 0x481 SWAP1 PUSH2 0x23DF JUMP JUMPDEST POP POP POP JUMP JUMPDEST PUSH2 0x1284 PUSH2 0x15AE JUMP JUMPDEST PUSH1 0x1 PUSH1 0x1 PUSH1 0xA0 SHL SUB AND PUSH2 0x1295 PUSH2 0x1004 JUMP JUMPDEST PUSH1 0x1 PUSH1 0x1 PUSH1 0xA0 SHL SUB AND EQ PUSH2 0x12BB JUMPI PUSH1 0x40 MLOAD PUSH3 0x461BCD PUSH1 0xE5 SHL DUP2 MSTORE PUSH1 0x4 ADD PUSH2 0x481 SWAP1 PUSH2 0x224B JUMP JUMPDEST PUSH1 0x1 PUSH1 0x1 PUSH1 0xA0 SHL SUB DUP2 AND PUSH2 0x12CE JUMPI PUSH1 0x0 DUP1 REVERT JUMPDEST PUSH1 0x3 DUP1 SLOAD PUSH1 0x1 PUSH1 0x1 PUSH1 0xA0 SHL SUB NOT AND PUSH1 0x1 PUSH1 0x1 PUSH1 0xA0 SHL SUB DUP4 AND SWAP1 DUP2 OR SWAP1 SWAP2 SSTORE PUSH1 0x40 MLOAD PUSH32 0xF5721DFA6DDBF8E4A2CD38B2152FFF4008050B9B37DE59AE1E022DDE4BD5DF73 SWAP1 PUSH1 0x0 SWAP1 LOG2 POP JUMP JUMPDEST PUSH1 0x3 SLOAD PUSH1 0x1 PUSH1 0x1 PUSH1 0xA0 SHL SUB AND DUP2 JUMP JUMPDEST PUSH2 0x132F PUSH2 0x15AE JUMP JUMPDEST PUSH1 0x1 PUSH1 0x1 PUSH1 0xA0 SHL SUB AND PUSH2 0x1340 PUSH2 0x1004 JUMP JUMPDEST PUSH1 0x1 PUSH1 0x1 PUSH1 0xA0 SHL SUB AND EQ PUSH2 0x1366 JUMPI PUSH1 0x40 MLOAD PUSH3 0x461BCD PUSH1 0xE5 SHL DUP2 MSTORE PUSH1 0x4 ADD PUSH2 0x481 SWAP1 PUSH2 0x224B JUMP JUMPDEST PUSH1 0x4 DUP2 SWAP1 SSTORE PUSH1 0x40 MLOAD DUP2 SWAP1 PUSH32 0x45C280C0EE21A223BF57BA9B47035CDA586D0472889FCF81D6ECF95A72FBF64 SWAP1 PUSH1 0x0 SWAP1 LOG2 POP JUMP JUMPDEST PUSH1 0x0 PUSH1 0x7 DUP3 DUP2 SLOAD DUP2 LT PUSH2 0x13BC JUMPI PUSH4 0x4E487B71 PUSH1 0xE0 SHL PUSH1 0x0 MSTORE PUSH1 0x32 PUSH1 0x4 MSTORE PUSH1 0x24 PUSH1 0x0 REVERT JUMPDEST PUSH1 0x0 SWAP2 DUP3 MSTORE PUSH1 0x20 DUP1 DUP4 KECCAK256 DUP6 DUP5 MSTORE PUSH1 0x8 DUP3 MSTORE PUSH1 0x40 DUP1 DUP6 KECCAK256 CALLER DUP7 MSTORE SWAP1 SWAP3 MSTORE SWAP3 KECCAK256 PUSH1 0x5 SWAP1 SWAP2 MUL SWAP1 SWAP2 ADD SWAP2 POP PUSH2 0x13ED DUP4 PUSH2 0xA09 JUMP JUMPDEST PUSH2 0x13F7 CALLER DUP5 PUSH2 0x15B2 JUMP JUMPDEST PUSH1 0x3 DUP3 ADD SLOAD DUP2 SLOAD PUSH2 0x1412 SWAP2 PUSH5 0xE8D4A51000 SWAP2 PUSH2 0x62B SWAP2 PUSH2 0x178A JUMP JUMPDEST PUSH1 0x1 DUP3 ADD SSTORE PUSH1 0x4 DUP3 ADD SLOAD DUP2 SLOAD PUSH2 0x1432 SWAP2 PUSH5 0xE8D4A51000 SWAP2 PUSH2 0x62B SWAP2 PUSH2 0x178A JUMP JUMPDEST PUSH1 0x2 SWAP1 SWAP2 ADD SSTORE POP POP JUMP JUMPDEST PUSH2 0x1444 PUSH2 0x15AE JUMP JUMPDEST PUSH1 0x1 PUSH1 0x1 PUSH1 0xA0 SHL SUB AND PUSH2 0x1455 PUSH2 0x1004 JUMP JUMPDEST PUSH1 0x1 PUSH1 0x1 PUSH1 0xA0 SHL SUB AND EQ PUSH2 0x147B JUMPI PUSH1 0x40 MLOAD PUSH3 0x461BCD PUSH1 0xE5 SHL DUP2 MSTORE PUSH1 0x4 ADD PUSH2 0x481 SWAP1 PUSH2 0x224B JUMP JUMPDEST PUSH1 0x2 SLOAD PUSH1 0x40 MLOAD PUSH4 0x40C10F19 PUSH1 0xE0 SHL DUP2 MSTORE PUSH1 0x1 PUSH1 0x1 PUSH1 0xA0 SHL SUB SWAP1 SWAP2 AND SWAP1 PUSH4 0x40C10F19 SWAP1 PUSH2 0x14AD SWAP1 DUP6 SWAP1 DUP6 SWAP1 PUSH1 0x4 ADD PUSH2 0x1F46 JUMP JUMPDEST PUSH1 0x20 PUSH1 0x40 MLOAD DUP1 DUP4 SUB DUP2 PUSH1 0x0 DUP8 DUP1 EXTCODESIZE ISZERO DUP1 ISZERO PUSH2 0x14C7 JUMPI PUSH1 0x0 DUP1 REVERT JUMPDEST POP GAS CALL ISZERO DUP1 ISZERO PUSH2 0x14DB JUMPI RETURNDATASIZE PUSH1 0x0 DUP1 RETURNDATACOPY RETURNDATASIZE PUSH1 0x0 REVERT JUMPDEST POP POP POP POP PUSH1 0x40 MLOAD RETURNDATASIZE PUSH1 0x1F NOT PUSH1 0x1F DUP3 ADD AND DUP3 ADD DUP1 PUSH1 0x40 MSTORE POP DUP2 ADD SWAP1 PUSH2 0x14FF SWAP2 SWAP1 PUSH2 0x1DEE JUMP JUMPDEST POP PUSH1 0x40 MLOAD DUP2 SWAP1 PUSH1 0x1 PUSH1 0x1 PUSH1 0xA0 SHL SUB DUP5 AND SWAP1 PUSH32 0x5A513126CBC10DDE78A9844543BD609B2C5B0F4169CECB81F0378F00FA2BDBF0 SWAP1 PUSH1 0x0 SWAP1 LOG3 POP POP JUMP JUMPDEST PUSH1 0x4 SLOAD DUP2 JUMP JUMPDEST PUSH2 0x1548 PUSH2 0x15AE JUMP JUMPDEST PUSH1 0x1 PUSH1 0x1 PUSH1 0xA0 SHL SUB AND PUSH2 0x1559 PUSH2 0x1004 JUMP JUMPDEST PUSH1 0x1 PUSH1 0x1 PUSH1 0xA0 SHL SUB AND EQ PUSH2 0x157F JUMPI PUSH1 0x40 MLOAD PUSH3 0x461BCD PUSH1 0xE5 SHL DUP2 MSTORE PUSH1 0x4 ADD PUSH2 0x481 SWAP1 PUSH2 0x224B JUMP JUMPDEST PUSH1 0x1 PUSH1 0x1 PUSH1 0xA0 SHL SUB DUP2 AND PUSH2 0x15A5 JUMPI PUSH1 0x40 MLOAD PUSH3 0x461BCD PUSH1 0xE5 SHL DUP2 MSTORE PUSH1 0x4 ADD PUSH2 0x481 SWAP1 PUSH2 0x1FCB JUMP JUMPDEST PUSH2 0xCFB DUP2 PUSH2 0x1845 JUMP JUMPDEST CALLER SWAP1 JUMP JUMPDEST PUSH1 0x0 PUSH1 0x7 DUP3 DUP2 SLOAD DUP2 LT PUSH2 0x15D5 JUMPI PUSH4 0x4E487B71 PUSH1 0xE0 SHL PUSH1 0x0 MSTORE PUSH1 0x32 PUSH1 0x4 MSTORE PUSH1 0x24 PUSH1 0x0 REVERT JUMPDEST PUSH1 0x0 SWAP2 DUP3 MSTORE PUSH1 0x20 DUP1 DUP4 KECCAK256 DUP6 DUP5 MSTORE PUSH1 0x8 DUP3 MSTORE PUSH1 0x40 DUP1 DUP6 KECCAK256 PUSH1 0x1 PUSH1 0x1 PUSH1 0xA0 SHL SUB DUP10 AND DUP7 MSTORE SWAP1 SWAP3 MSTORE SWAP3 KECCAK256 DUP1 SLOAD PUSH1 0x5 SWAP1 SWAP3 MUL SWAP1 SWAP3 ADD SWAP3 POP PUSH2 0x1624 JUMPI PUSH1 0x40 MLOAD PUSH3 0x461BCD PUSH1 0xE5 SHL DUP2 MSTORE PUSH1 0x4 ADD PUSH2 0x481 SWAP1 PUSH2 0x2416 JUMP JUMPDEST PUSH1 0x0 PUSH2 0x1652 DUP3 PUSH1 0x1 ADD SLOAD PUSH2 0x8FA PUSH5 0xE8D4A51000 PUSH2 0x62B DUP8 PUSH1 0x3 ADD SLOAD DUP8 PUSH1 0x0 ADD SLOAD PUSH2 0x178A SWAP1 SWAP2 SWAP1 PUSH4 0xFFFFFFFF AND JUMP JUMPDEST PUSH1 0x2 SLOAD PUSH1 0x40 MLOAD PUSH4 0x70A08231 PUSH1 0xE0 SHL DUP2 MSTORE SWAP2 SWAP3 POP PUSH1 0x1 PUSH1 0x1 PUSH1 0xA0 SHL SUB AND SWAP1 PUSH4 0x70A08231 SWAP1 PUSH2 0x1683 SWAP1 ADDRESS SWAP1 PUSH1 0x4 ADD PUSH2 0x1F0E JUMP JUMPDEST PUSH1 0x20 PUSH1 0x40 MLOAD DUP1 DUP4 SUB DUP2 DUP7 DUP1 EXTCODESIZE ISZERO DUP1 ISZERO PUSH2 0x169B JUMPI PUSH1 0x0 DUP1 REVERT JUMPDEST POP GAS STATICCALL ISZERO DUP1 ISZERO PUSH2 0x16AF JUMPI RETURNDATASIZE PUSH1 0x0 DUP1 RETURNDATACOPY RETURNDATASIZE PUSH1 0x0 REVERT JUMPDEST POP POP POP POP PUSH1 0x40 MLOAD RETURNDATASIZE PUSH1 0x1F NOT PUSH1 0x1F DUP3 ADD AND DUP3 ADD DUP1 PUSH1 0x40 MSTORE POP DUP2 ADD SWAP1 PUSH2 0x16D3 SWAP2 SWAP1 PUSH2 0x1E22 JUMP JUMPDEST DUP2 GT ISZERO PUSH2 0x16F2 JUMPI PUSH1 0x40 MLOAD PUSH3 0x461BCD PUSH1 0xE5 SHL DUP2 MSTORE PUSH1 0x4 ADD PUSH2 0x481 SWAP1 PUSH2 0x2280 JUMP JUMPDEST PUSH2 0x16FC DUP6 DUP3 PUSH2 0x19F9 JUMP JUMPDEST POP POP POP POP POP JUMP JUMPDEST PUSH2 0x6B5 DUP5 PUSH4 0x23B872DD PUSH1 0xE0 SHL DUP6 DUP6 DUP6 PUSH1 0x40 MLOAD PUSH1 0x24 ADD PUSH2 0x1724 SWAP4 SWAP3 SWAP2 SWAP1 PUSH2 0x1F22 JUMP JUMPDEST PUSH1 0x40 DUP1 MLOAD PUSH1 0x1F NOT DUP2 DUP5 SUB ADD DUP2 MSTORE SWAP2 SWAP1 MSTORE PUSH1 0x20 DUP2 ADD DUP1 MLOAD PUSH1 0x1 PUSH1 0x1 PUSH1 0xE0 SHL SUB AND PUSH1 0x1 PUSH1 0x1 PUSH1 0xE0 SHL SUB NOT SWAP1 SWAP4 AND SWAP3 SWAP1 SWAP3 OR SWAP1 SWAP2 MSTORE PUSH2 0x1B92 JUMP JUMPDEST PUSH1 0x0 DUP1 PUSH2 0x1768 DUP4 DUP6 PUSH2 0x249C JUMP JUMPDEST SWAP1 POP DUP4 DUP2 LT ISZERO PUSH2 0x109C JUMPI PUSH1 0x40 MLOAD PUSH3 0x461BCD PUSH1 0xE5 SHL DUP2 MSTORE PUSH1 0x4 ADD PUSH2 0x481 SWAP1 PUSH2 0x2048 JUMP JUMPDEST PUSH1 0x0 DUP3 PUSH2 0x1799 JUMPI POP PUSH1 0x0 PUSH2 0x77B JUMP JUMPDEST PUSH1 0x0 PUSH2 0x17A5 DUP4 DUP6 PUSH2 0x24D4 JUMP JUMPDEST SWAP1 POP DUP3 PUSH2 0x17B2 DUP6 DUP4 PUSH2 0x24B4 JUMP JUMPDEST EQ PUSH2 0x109C JUMPI PUSH1 0x40 MLOAD PUSH3 0x461BCD PUSH1 0xE5 SHL DUP2 MSTORE PUSH1 0x4 ADD PUSH2 0x481 SWAP1 PUSH2 0x220A JUMP JUMPDEST PUSH1 0x0 DUP1 DUP3 GT PUSH2 0x17F0 JUMPI PUSH1 0x40 MLOAD PUSH3 0x461BCD PUSH1 0xE5 SHL DUP2 MSTORE PUSH1 0x4 ADD PUSH2 0x481 SWAP1 PUSH2 0x219C JUMP JUMPDEST PUSH2 0x109C DUP3 DUP5 PUSH2 0x24B4 JUMP JUMPDEST PUSH1 0x0 DUP3 DUP3 GT ISZERO PUSH2 0x181C JUMPI PUSH1 0x40 MLOAD PUSH3 0x461BCD PUSH1 0xE5 SHL DUP2 MSTORE PUSH1 0x4 ADD PUSH2 0x481 SWAP1 PUSH2 0x211F JUMP JUMPDEST PUSH2 0x109C DUP3 DUP5 PUSH2 0x24F3 JUMP JUMPDEST PUSH2 0x1277 DUP4 PUSH4 0xA9059CBB PUSH1 0xE0 SHL DUP5 DUP5 PUSH1 0x40 MLOAD PUSH1 0x24 ADD PUSH2 0x1724 SWAP3 SWAP2 SWAP1 PUSH2 0x1F46 JUMP JUMPDEST PUSH1 0x0 DUP1 SLOAD PUSH1 0x1 PUSH1 0x1 PUSH1 0xA0 SHL SUB DUP4 DUP2 AND PUSH1 0x1 PUSH1 0x1 PUSH1 0xA0 SHL SUB NOT DUP4 AND DUP2 OR DUP5 SSTORE PUSH1 0x40 MLOAD SWAP2 SWAP1 SWAP3 AND SWAP3 DUP4 SWAP2 PUSH32 0x8BE0079C531659141344CD1FD0A4F28419497F9722A3DAAFE3B4186F6B6457E0 SWAP2 SWAP1 LOG3 POP POP JUMP JUMPDEST PUSH1 0x0 PUSH1 0x7 DUP4 DUP2 SLOAD DUP2 LT PUSH2 0x18B8 JUMPI PUSH4 0x4E487B71 PUSH1 0xE0 SHL PUSH1 0x0 MSTORE PUSH1 0x32 PUSH1 0x4 MSTORE PUSH1 0x24 PUSH1 0x0 REVERT JUMPDEST PUSH1 0x0 SWAP2 DUP3 MSTORE PUSH1 0x20 DUP1 DUP4 KECCAK256 DUP7 DUP5 MSTORE PUSH1 0x8 DUP3 MSTORE PUSH1 0x40 DUP1 DUP6 KECCAK256 PUSH1 0x1 PUSH1 0x1 PUSH1 0xA0 SHL SUB DUP1 DUP12 AND DUP8 MSTORE SWAP4 MSTORE SWAP1 SWAP4 KECCAK256 PUSH1 0x3 DUP2 ADD SLOAD PUSH1 0x5 SWAP1 SWAP4 MUL SWAP1 SWAP4 ADD SWAP4 POP AND CALLER EQ PUSH2 0x190E JUMPI PUSH1 0x40 MLOAD PUSH3 0x461BCD PUSH1 0xE5 SHL DUP2 MSTORE PUSH1 0x4 ADD PUSH2 0x481 SWAP1 PUSH2 0x20C3 JUMP JUMPDEST DUP1 SLOAD DUP4 GT ISZERO PUSH2 0x192F JUMPI PUSH1 0x40 MLOAD PUSH3 0x461BCD PUSH1 0xE5 SHL DUP2 MSTORE PUSH1 0x4 ADD PUSH2 0x481 SWAP1 PUSH2 0x2332 JUMP JUMPDEST PUSH2 0x1938 DUP5 PUSH2 0xA09 JUMP JUMPDEST PUSH2 0x1942 DUP6 DUP6 PUSH2 0x15B2 JUMP JUMPDEST DUP1 SLOAD PUSH2 0x194E SWAP1 DUP5 PUSH2 0x17FA JUMP JUMPDEST DUP1 DUP3 SSTORE PUSH1 0x3 DUP4 ADD SLOAD PUSH2 0x196B SWAP2 PUSH5 0xE8D4A51000 SWAP2 PUSH2 0x62B SWAP2 SWAP1 PUSH2 0x178A JUMP JUMPDEST PUSH1 0x1 DUP3 ADD SSTORE PUSH1 0x4 DUP3 ADD SLOAD DUP2 SLOAD PUSH2 0x198B SWAP2 PUSH5 0xE8D4A51000 SWAP2 PUSH2 0x62B SWAP2 PUSH2 0x178A JUMP JUMPDEST PUSH1 0x2 DUP3 ADD SSTORE DUP2 SLOAD PUSH1 0x1 PUSH1 0x1 PUSH1 0xA0 SHL SUB AND ISZERO PUSH2 0x19B6 JUMPI DUP2 SLOAD PUSH2 0x19B6 SWAP1 PUSH1 0x1 PUSH1 0x1 PUSH1 0xA0 SHL SUB AND CALLER DUP6 PUSH2 0x1826 JUMP JUMPDEST DUP1 SLOAD PUSH1 0x40 MLOAD DUP6 SWAP2 CALLER SWAP2 PUSH32 0xF279E6A1F5E320CCA91135676D9CB6E44CA8A08C0B88342BCDB1144F6511B568 SWAP2 PUSH2 0x19EA SWAP2 PUSH2 0x246F JUMP JUMPDEST PUSH1 0x40 MLOAD DUP1 SWAP2 SUB SWAP1 LOG3 POP POP POP POP POP JUMP JUMPDEST PUSH1 0x2 SLOAD PUSH1 0x40 MLOAD PUSH4 0x70A08231 PUSH1 0xE0 SHL DUP2 MSTORE PUSH1 0x0 SWAP2 PUSH1 0x1 PUSH1 0x1 PUSH1 0xA0 SHL SUB AND SWAP1 PUSH4 0x70A08231 SWAP1 PUSH2 0x1A2A SWAP1 ADDRESS SWAP1 PUSH1 0x4 ADD PUSH2 0x1F0E JUMP JUMPDEST PUSH1 0x20 PUSH1 0x40 MLOAD DUP1 DUP4 SUB DUP2 DUP7 DUP1 EXTCODESIZE ISZERO DUP1 ISZERO PUSH2 0x1A42 JUMPI PUSH1 0x0 DUP1 REVERT JUMPDEST POP GAS STATICCALL ISZERO DUP1 ISZERO PUSH2 0x1A56 JUMPI RETURNDATASIZE PUSH1 0x0 DUP1 RETURNDATACOPY RETURNDATASIZE PUSH1 0x0 REVERT JUMPDEST POP POP POP POP PUSH1 0x40 MLOAD RETURNDATASIZE PUSH1 0x1F NOT PUSH1 0x1F DUP3 ADD AND DUP3 ADD DUP1 PUSH1 0x40 MSTORE POP DUP2 ADD SWAP1 PUSH2 0x1A7A SWAP2 SWAP1 PUSH2 0x1E22 JUMP JUMPDEST SWAP1 POP DUP1 DUP3 GT ISZERO PUSH2 0x1B0E JUMPI PUSH1 0x2 SLOAD PUSH1 0x40 MLOAD PUSH4 0xA9059CBB PUSH1 0xE0 SHL DUP2 MSTORE PUSH1 0x1 PUSH1 0x1 PUSH1 0xA0 SHL SUB SWAP1 SWAP2 AND SWAP1 PUSH4 0xA9059CBB SWAP1 PUSH2 0x1AB6 SWAP1 DUP7 SWAP1 DUP6 SWAP1 PUSH1 0x4 ADD PUSH2 0x1F46 JUMP JUMPDEST PUSH1 0x20 PUSH1 0x40 MLOAD DUP1 DUP4 SUB DUP2 PUSH1 0x0 DUP8 DUP1 EXTCODESIZE ISZERO DUP1 ISZERO PUSH2 0x1AD0 JUMPI PUSH1 0x0 DUP1 REVERT JUMPDEST POP GAS CALL ISZERO DUP1 ISZERO PUSH2 0x1AE4 JUMPI RETURNDATASIZE PUSH1 0x0 DUP1 RETURNDATACOPY RETURNDATASIZE PUSH1 0x0 REVERT JUMPDEST POP POP POP POP PUSH1 0x40 MLOAD RETURNDATASIZE PUSH1 0x1F NOT PUSH1 0x1F DUP3 ADD AND DUP3 ADD DUP1 PUSH1 0x40 MSTORE POP DUP2 ADD SWAP1 PUSH2 0x1B08 SWAP2 SWAP1 PUSH2 0x1DEE JUMP JUMPDEST POP PUSH2 0x1277 JUMP JUMPDEST PUSH1 0x2 SLOAD PUSH1 0x40 MLOAD PUSH4 0xA9059CBB PUSH1 0xE0 SHL DUP2 MSTORE PUSH1 0x1 PUSH1 0x1 PUSH1 0xA0 SHL SUB SWAP1 SWAP2 AND SWAP1 PUSH4 0xA9059CBB SWAP1 PUSH2 0x1B40 SWAP1 DUP7 SWAP1 DUP7 SWAP1 PUSH1 0x4 ADD PUSH2 0x1F46 JUMP JUMPDEST PUSH1 0x20 PUSH1 0x40 MLOAD DUP1 DUP4 SUB DUP2 PUSH1 0x0 DUP8 DUP1 EXTCODESIZE ISZERO DUP1 ISZERO PUSH2 0x1B5A JUMPI PUSH1 0x0 DUP1 REVERT JUMPDEST POP GAS CALL ISZERO DUP1 ISZERO PUSH2 0x1B6E JUMPI RETURNDATASIZE PUSH1 0x0 DUP1 RETURNDATACOPY RETURNDATASIZE PUSH1 0x0 REVERT JUMPDEST POP POP POP POP PUSH1 0x40 MLOAD RETURNDATASIZE PUSH1 0x1F NOT PUSH1 0x1F DUP3 ADD AND DUP3 ADD DUP1 PUSH1 0x40 MSTORE POP DUP2 ADD SWAP1 PUSH2 0x6B5 SWAP2 SWAP1 PUSH2 0x1DEE JUMP JUMPDEST PUSH1 0x0 PUSH2 0x1BE7 DUP3 PUSH1 0x40 MLOAD DUP1 PUSH1 0x40 ADD PUSH1 0x40 MSTORE DUP1 PUSH1 0x20 DUP2 MSTORE PUSH1 0x20 ADD PUSH32 0x5361666545524332303A206C6F772D6C6576656C2063616C6C206661696C6564 DUP2 MSTORE POP DUP6 PUSH1 0x1 PUSH1 0x1 PUSH1 0xA0 SHL SUB AND PUSH2 0x1C21 SWAP1 SWAP3 SWAP2 SWAP1 PUSH4 0xFFFFFFFF AND JUMP JUMPDEST DUP1 MLOAD SWAP1 SWAP2 POP ISZERO PUSH2 0x1277 JUMPI DUP1 DUP1 PUSH1 0x20 ADD SWAP1 MLOAD DUP2 ADD SWAP1 PUSH2 0x1C05 SWAP2 SWAP1 PUSH2 0x1DEE JUMP JUMPDEST PUSH2 0x1277 JUMPI PUSH1 0x40 MLOAD PUSH3 0x461BCD PUSH1 0xE5 SHL DUP2 MSTORE PUSH1 0x4 ADD PUSH2 0x481 SWAP1 PUSH2 0x2395 JUMP JUMPDEST PUSH1 0x60 PUSH2 0x1C30 DUP5 DUP5 PUSH1 0x0 DUP6 PUSH2 0x1C38 JUMP JUMPDEST SWAP5 SWAP4 POP POP POP POP JUMP JUMPDEST PUSH1 0x60 DUP3 SELFBALANCE LT ISZERO PUSH2 0x1C5A JUMPI PUSH1 0x40 MLOAD PUSH3 0x461BCD PUSH1 0xE5 SHL DUP2 MSTORE PUSH1 0x4 ADD PUSH2 0x481 SWAP1 PUSH2 0x2156 JUMP JUMPDEST PUSH2 0x1C63 DUP6 PUSH2 0x1CED JUMP JUMPDEST PUSH2 0x1C7F JUMPI PUSH1 0x40 MLOAD PUSH3 0x461BCD PUSH1 0xE5 SHL DUP2 MSTORE PUSH1 0x4 ADD PUSH2 0x481 SWAP1 PUSH2 0x22FB JUMP JUMPDEST PUSH1 0x0 DUP1 DUP7 PUSH1 0x1 PUSH1 0x1 PUSH1 0xA0 SHL SUB AND DUP6 DUP8 PUSH1 0x40 MLOAD PUSH2 0x1C9B SWAP2 SWAP1 PUSH2 0x1EF2 JUMP JUMPDEST PUSH1 0x0 PUSH1 0x40 MLOAD DUP1 DUP4 SUB DUP2 DUP6 DUP8 GAS CALL SWAP3 POP POP POP RETURNDATASIZE DUP1 PUSH1 0x0 DUP2 EQ PUSH2 0x1CD8 JUMPI PUSH1 0x40 MLOAD SWAP2 POP PUSH1 0x1F NOT PUSH1 0x3F RETURNDATASIZE ADD AND DUP3 ADD PUSH1 0x40 MSTORE RETURNDATASIZE DUP3 MSTORE RETURNDATASIZE PUSH1 0x0 PUSH1 0x20 DUP5 ADD RETURNDATACOPY PUSH2 0x1CDD JUMP JUMPDEST PUSH1 0x60 SWAP2 POP JUMPDEST POP SWAP2 POP SWAP2 POP PUSH2 0x900 DUP3 DUP3 DUP7 PUSH2 0x1CF3 JUMP JUMPDEST EXTCODESIZE ISZERO ISZERO SWAP1 JUMP JUMPDEST PUSH1 0x60 DUP4 ISZERO PUSH2 0x1D02 JUMPI POP DUP2 PUSH2 0x109C JUMP JUMPDEST DUP3 MLOAD ISZERO PUSH2 0x1D12 JUMPI DUP3 MLOAD DUP1 DUP5 PUSH1 0x20 ADD REVERT JUMPDEST DUP2 PUSH1 0x40 MLOAD PUSH3 0x461BCD PUSH1 0xE5 SHL DUP2 MSTORE PUSH1 0x4 ADD PUSH2 0x481 SWAP2 SWAP1 PUSH2 0x1F98 JUMP JUMPDEST DUP1 CALLDATALOAD PUSH1 0x1 PUSH1 0x1 PUSH1 0xA0 SHL SUB DUP2 AND DUP2 EQ PUSH2 0x11C1 JUMPI PUSH1 0x0 DUP1 REVERT JUMPDEST PUSH1 0x0 PUSH1 0x20 DUP3 DUP5 SUB SLT ISZERO PUSH2 0x1D54 JUMPI DUP1 DUP2 REVERT JUMPDEST PUSH2 0x109C DUP3 PUSH2 0x1D2C JUMP JUMPDEST PUSH1 0x0 DUP1 PUSH1 0x40 DUP4 DUP6 SUB SLT ISZERO PUSH2 0x1D6F JUMPI DUP1 DUP2 REVERT JUMPDEST PUSH2 0x1D78 DUP4 PUSH2 0x1D2C JUMP JUMPDEST SWAP2 POP PUSH1 0x20 DUP4 ADD CALLDATALOAD PUSH2 0x1D88 DUP2 PUSH2 0x2567 JUMP JUMPDEST DUP1 SWAP2 POP POP SWAP3 POP SWAP3 SWAP1 POP JUMP JUMPDEST PUSH1 0x0 DUP1 PUSH1 0x40 DUP4 DUP6 SUB SLT ISZERO PUSH2 0x1DA5 JUMPI DUP2 DUP3 REVERT JUMPDEST PUSH2 0x1DAE DUP4 PUSH2 0x1D2C JUMP JUMPDEST SWAP5 PUSH1 0x20 SWAP4 SWAP1 SWAP4 ADD CALLDATALOAD SWAP4 POP POP POP JUMP JUMPDEST PUSH1 0x0 DUP1 PUSH1 0x0 PUSH1 0x60 DUP5 DUP7 SUB SLT ISZERO PUSH2 0x1DD0 JUMPI DUP1 DUP2 REVERT JUMPDEST PUSH2 0x1DD9 DUP5 PUSH2 0x1D2C JUMP JUMPDEST SWAP6 PUSH1 0x20 DUP6 ADD CALLDATALOAD SWAP6 POP PUSH1 0x40 SWAP1 SWAP5 ADD CALLDATALOAD SWAP4 SWAP3 POP POP POP JUMP JUMPDEST PUSH1 0x0 PUSH1 0x20 DUP3 DUP5 SUB SLT ISZERO PUSH2 0x1DFF JUMPI DUP1 DUP2 REVERT JUMPDEST DUP2 MLOAD PUSH2 0x109C DUP2 PUSH2 0x2567 JUMP JUMPDEST PUSH1 0x0 PUSH1 0x20 DUP3 DUP5 SUB SLT ISZERO PUSH2 0x1E1B JUMPI DUP1 DUP2 REVERT JUMPDEST POP CALLDATALOAD SWAP2 SWAP1 POP JUMP JUMPDEST PUSH1 0x0 PUSH1 0x20 DUP3 DUP5 SUB SLT ISZERO PUSH2 0x1E33 JUMPI DUP1 DUP2 REVERT JUMPDEST POP MLOAD SWAP2 SWAP1 POP JUMP JUMPDEST PUSH1 0x0 DUP1 PUSH1 0x40 DUP4 DUP6 SUB SLT ISZERO PUSH2 0x1E4C JUMPI DUP2 DUP3 REVERT JUMPDEST DUP3 CALLDATALOAD SWAP2 POP PUSH2 0x1E5C PUSH1 0x20 DUP5 ADD PUSH2 0x1D2C JUMP JUMPDEST SWAP1 POP SWAP3 POP SWAP3 SWAP1 POP JUMP JUMPDEST PUSH1 0x0 DUP1 PUSH1 0x0 PUSH1 0x60 DUP5 DUP7 SUB SLT ISZERO PUSH2 0x1E79 JUMPI DUP3 DUP4 REVERT JUMPDEST DUP4 CALLDATALOAD SWAP3 POP PUSH2 0x1E89 PUSH1 0x20 DUP6 ADD PUSH2 0x1D2C JUMP JUMPDEST SWAP2 POP PUSH1 0x40 DUP5 ADD CALLDATALOAD PUSH2 0x1E99 DUP2 PUSH2 0x2567 JUMP JUMPDEST DUP1 SWAP2 POP POP SWAP3 POP SWAP3 POP SWAP3 JUMP JUMPDEST PUSH1 0x0 DUP1 PUSH1 0x40 DUP4 DUP6 SUB SLT ISZERO PUSH2 0x1EB6 JUMPI DUP2 DUP3 REVERT JUMPDEST POP POP DUP1 CALLDATALOAD SWAP3 PUSH1 0x20 SWAP1 SWAP2 ADD CALLDATALOAD SWAP2 POP JUMP JUMPDEST PUSH1 0x0 DUP1 PUSH1 0x0 PUSH1 0x60 DUP5 DUP7 SUB SLT ISZERO PUSH2 0x1ED9 JUMPI DUP3 DUP4 REVERT JUMPDEST DUP4 CALLDATALOAD SWAP3 POP PUSH1 0x20 DUP5 ADD CALLDATALOAD SWAP2 POP PUSH1 0x40 DUP5 ADD CALLDATALOAD PUSH2 0x1E99 DUP2 PUSH2 0x2567 JUMP JUMPDEST PUSH1 0x0 DUP3 MLOAD PUSH2 0x1F04 DUP2 DUP5 PUSH1 0x20 DUP8 ADD PUSH2 0x250A JUMP JUMPDEST SWAP2 SWAP1 SWAP2 ADD SWAP3 SWAP2 POP POP JUMP JUMPDEST PUSH1 0x1 PUSH1 0x1 PUSH1 0xA0 SHL SUB SWAP2 SWAP1 SWAP2 AND DUP2 MSTORE PUSH1 0x20 ADD SWAP1 JUMP JUMPDEST PUSH1 0x1 PUSH1 0x1 PUSH1 0xA0 SHL SUB SWAP4 DUP5 AND DUP2 MSTORE SWAP2 SWAP1 SWAP3 AND PUSH1 0x20 DUP3 ADD MSTORE PUSH1 0x40 DUP2 ADD SWAP2 SWAP1 SWAP2 MSTORE PUSH1 0x60 ADD SWAP1 JUMP JUMPDEST PUSH1 0x1 PUSH1 0x1 PUSH1 0xA0 SHL SUB SWAP3 SWAP1 SWAP3 AND DUP3 MSTORE PUSH1 0x20 DUP3 ADD MSTORE PUSH1 0x40 ADD SWAP1 JUMP JUMPDEST PUSH1 0x1 PUSH1 0x1 PUSH1 0xA0 SHL SUB SWAP6 SWAP1 SWAP6 AND DUP6 MSTORE PUSH1 0x20 DUP6 ADD SWAP4 SWAP1 SWAP4 MSTORE PUSH1 0x40 DUP5 ADD SWAP2 SWAP1 SWAP2 MSTORE PUSH1 0x60 DUP4 ADD MSTORE PUSH1 0x80 DUP3 ADD MSTORE PUSH1 0xA0 ADD SWAP1 JUMP JUMPDEST SWAP1 ISZERO ISZERO DUP2 MSTORE PUSH1 0x20 ADD SWAP1 JUMP JUMPDEST PUSH1 0x0 PUSH1 0x20 DUP3 MSTORE DUP3 MLOAD DUP1 PUSH1 0x20 DUP5 ADD MSTORE PUSH2 0x1FB7 DUP2 PUSH1 0x40 DUP6 ADD PUSH1 0x20 DUP8 ADD PUSH2 0x250A JUMP JUMPDEST PUSH1 0x1F ADD PUSH1 0x1F NOT AND SWAP2 SWAP1 SWAP2 ADD PUSH1 0x40 ADD SWAP3 SWAP2 POP POP JUMP JUMPDEST PUSH1 0x20 DUP1 DUP3 MSTORE PUSH1 0x26 SWAP1 DUP3 ADD MSTORE PUSH32 0x4F776E61626C653A206E6577206F776E657220697320746865207A65726F2061 PUSH1 0x40 DUP3 ADD MSTORE PUSH6 0x646472657373 PUSH1 0xD0 SHL PUSH1 0x60 DUP3 ADD MSTORE PUSH1 0x80 ADD SWAP1 JUMP JUMPDEST PUSH1 0x20 DUP1 DUP3 MSTORE PUSH1 0x1B SWAP1 DUP3 ADD MSTORE PUSH32 0x736574426F6E75733A2062616420626F6E7573456E64426C6F636B0000000000 PUSH1 0x40 DUP3 ADD MSTORE PUSH1 0x60 ADD SWAP1 JUMP JUMPDEST PUSH1 0x20 DUP1 DUP3 MSTORE PUSH1 0x1B SWAP1 DUP3 ADD MSTORE PUSH32 0x536166654D6174683A206164646974696F6E206F766572666C6F770000000000 PUSH1 0x40 DUP3 ADD MSTORE PUSH1 0x60 ADD SWAP1 JUMP JUMPDEST PUSH1 0x20 DUP1 DUP3 MSTORE PUSH1 0x24 SWAP1 DUP3 ADD MSTORE PUSH32 0x6578656375746F723A2063616C6C6572206973206E6F74207468652065786563 PUSH1 0x40 DUP3 ADD MSTORE PUSH4 0x3ABA37B9 PUSH1 0xE1 SHL PUSH1 0x60 DUP3 ADD MSTORE PUSH1 0x80 ADD SWAP1 JUMP JUMPDEST PUSH1 0x20 DUP1 DUP3 MSTORE PUSH1 0xB SWAP1 DUP3 ADD MSTORE PUSH11 0x37B7363C90333AB73232B9 PUSH1 0xA9 SHL PUSH1 0x40 DUP3 ADD MSTORE PUSH1 0x60 ADD SWAP1 JUMP JUMPDEST PUSH1 0x20 DUP1 DUP3 MSTORE PUSH1 0x18 SWAP1 DUP3 ADD MSTORE PUSH32 0x6164643A206E6F74207374616B65546F6B656E20616464720000000000000000 PUSH1 0x40 DUP3 ADD MSTORE PUSH1 0x60 ADD SWAP1 JUMP JUMPDEST PUSH1 0x20 DUP1 DUP3 MSTORE PUSH1 0x1E SWAP1 DUP3 ADD MSTORE PUSH32 0x536166654D6174683A207375627472616374696F6E206F766572666C6F770000 PUSH1 0x40 DUP3 ADD MSTORE PUSH1 0x60 ADD SWAP1 JUMP JUMPDEST PUSH1 0x20 DUP1 DUP3 MSTORE PUSH1 0x26 SWAP1 DUP3 ADD MSTORE PUSH32 0x416464726573733A20696E73756666696369656E742062616C616E636520666F PUSH1 0x40 DUP3 ADD MSTORE PUSH6 0x1C8818D85B1B PUSH1 0xD2 SHL PUSH1 0x60 DUP3 ADD MSTORE PUSH1 0x80 ADD SWAP1 JUMP JUMPDEST PUSH1 0x20 DUP1 DUP3 MSTORE PUSH1 0x1A SWAP1 DUP3 ADD MSTORE PUSH32 0x536166654D6174683A206469766973696F6E206279207A65726F000000000000 PUSH1 0x40 DUP3 ADD MSTORE PUSH1 0x60 ADD SWAP1 JUMP JUMPDEST PUSH1 0x20 DUP1 DUP3 MSTORE PUSH1 0x1D SWAP1 DUP3 ADD MSTORE PUSH32 0x736574426F6E75733A2062616420626F6E75734D756C7469706C696572000000 PUSH1 0x40 DUP3 ADD MSTORE PUSH1 0x60 ADD SWAP1 JUMP JUMPDEST PUSH1 0x20 DUP1 DUP3 MSTORE PUSH1 0x21 SWAP1 DUP3 ADD MSTORE PUSH32 0x536166654D6174683A206D756C7469706C69636174696F6E206F766572666C6F PUSH1 0x40 DUP3 ADD MSTORE PUSH1 0x77 PUSH1 0xF8 SHL PUSH1 0x60 DUP3 ADD MSTORE PUSH1 0x80 ADD SWAP1 JUMP JUMPDEST PUSH1 0x20 DUP1 DUP3 MSTORE DUP2 DUP2 ADD MSTORE PUSH32 0x4F776E61626C653A2063616C6C6572206973206E6F7420746865206F776E6572 PUSH1 0x40 DUP3 ADD MSTORE PUSH1 0x60 ADD SWAP1 JUMP JUMPDEST PUSH1 0x20 DUP1 DUP3 MSTORE PUSH1 0x12 SWAP1 DUP3 ADD MSTORE PUSH18 0x777466206E6F7420656E6F75676820536561 PUSH1 0x70 SHL PUSH1 0x40 DUP3 ADD MSTORE PUSH1 0x60 ADD SWAP1 JUMP JUMPDEST PUSH1 0x20 DUP1 DUP3 MSTORE PUSH1 0x14 SWAP1 DUP3 ADD MSTORE PUSH20 0x109B1BD8DAC81C985B99D948195E18D959591959 PUSH1 0x62 SHL PUSH1 0x40 DUP3 ADD MSTORE PUSH1 0x60 ADD SWAP1 JUMP JUMPDEST PUSH1 0x20 DUP1 DUP3 MSTORE PUSH1 0x7 SWAP1 DUP3 ADD MSTORE PUSH7 0x3130B21039B7B3 PUSH1 0xC9 SHL PUSH1 0x40 DUP3 ADD MSTORE PUSH1 0x60 ADD SWAP1 JUMP JUMPDEST PUSH1 0x20 DUP1 DUP3 MSTORE PUSH1 0x1D SWAP1 DUP3 ADD MSTORE PUSH32 0x416464726573733A2063616C6C20746F206E6F6E2D636F6E7472616374000000 PUSH1 0x40 DUP3 ADD MSTORE PUSH1 0x60 ADD SWAP1 JUMP JUMPDEST PUSH1 0x20 DUP1 DUP3 MSTORE PUSH1 0x12 SWAP1 DUP3 ADD MSTORE PUSH18 0x1DDA5D1A191C985DCE881B9BDD0819DBDBD9 PUSH1 0x72 SHL PUSH1 0x40 DUP3 ADD MSTORE PUSH1 0x60 ADD SWAP1 JUMP JUMPDEST PUSH1 0x20 DUP1 DUP3 MSTORE PUSH1 0x1B SWAP1 DUP3 ADD MSTORE PUSH32 0x6465706F7369743A206E6F7420616363657074206465706F7369740000000000 PUSH1 0x40 DUP3 ADD MSTORE PUSH1 0x60 ADD SWAP1 JUMP JUMPDEST PUSH1 0x20 DUP1 DUP3 MSTORE PUSH1 0x2A SWAP1 DUP3 ADD MSTORE PUSH32 0x5361666545524332303A204552433230206F7065726174696F6E20646964206E PUSH1 0x40 DUP3 ADD MSTORE PUSH10 0x1BDD081CDD58D8D95959 PUSH1 0xB2 SHL PUSH1 0x60 DUP3 ADD MSTORE PUSH1 0x80 ADD SWAP1 JUMP JUMPDEST PUSH1 0x20 DUP1 DUP3 MSTORE PUSH1 0x1F SWAP1 DUP3 ADD MSTORE PUSH32 0x5265656E7472616E637947756172643A207265656E7472616E742063616C6C00 PUSH1 0x40 DUP3 ADD MSTORE PUSH1 0x60 ADD SWAP1 JUMP JUMPDEST PUSH1 0x20 DUP1 DUP3 MSTORE PUSH1 0x12 SWAP1 DUP3 ADD MSTORE PUSH18 0x1B9BDD1A1A5B99C81D1BC81A185C9D995CDD PUSH1 0x72 SHL PUSH1 0x40 DUP3 ADD MSTORE PUSH1 0x60 ADD SWAP1 JUMP JUMPDEST PUSH1 0x20 DUP1 DUP3 MSTORE PUSH1 0x13 SWAP1 DUP3 ADD MSTORE PUSH19 0x6164643A207374616B65546F6B656E2064757 PUSH1 0x6C SHL PUSH1 0x40 DUP3 ADD MSTORE PUSH1 0x60 ADD SWAP1 JUMP JUMPDEST SWAP1 DUP2 MSTORE PUSH1 0x20 ADD SWAP1 JUMP JUMPDEST SWAP4 DUP5 MSTORE PUSH1 0x20 DUP5 ADD SWAP3 SWAP1 SWAP3 MSTORE PUSH1 0x40 DUP4 ADD MSTORE PUSH1 0x1 PUSH1 0x1 PUSH1 0xA0 SHL SUB AND PUSH1 0x60 DUP3 ADD MSTORE PUSH1 0x80 ADD SWAP1 JUMP JUMPDEST PUSH1 0x0 DUP3 NOT DUP3 GT ISZERO PUSH2 0x24AF JUMPI PUSH2 0x24AF PUSH2 0x2551 JUMP JUMPDEST POP ADD SWAP1 JUMP JUMPDEST PUSH1 0x0 DUP3 PUSH2 0x24CF JUMPI PUSH4 0x4E487B71 PUSH1 0xE0 SHL DUP2 MSTORE PUSH1 0x12 PUSH1 0x4 MSTORE PUSH1 0x24 DUP2 REVERT JUMPDEST POP DIV SWAP1 JUMP JUMPDEST PUSH1 0x0 DUP2 PUSH1 0x0 NOT DIV DUP4 GT DUP3 ISZERO ISZERO AND ISZERO PUSH2 0x24EE JUMPI PUSH2 0x24EE PUSH2 0x2551 JUMP JUMPDEST POP MUL SWAP1 JUMP JUMPDEST PUSH1 0x0 DUP3 DUP3 LT ISZERO PUSH2 0x2505 JUMPI PUSH2 0x2505 PUSH2 0x2551 JUMP JUMPDEST POP SUB SWAP1 JUMP JUMPDEST PUSH1 0x0 JUMPDEST DUP4 DUP2 LT ISZERO PUSH2 0x2525 JUMPI DUP2 DUP2 ADD MLOAD DUP4 DUP3 ADD MSTORE PUSH1 0x20 ADD PUSH2 0x250D JUMP JUMPDEST DUP4 DUP2 GT ISZERO PUSH2 0x6B5 JUMPI POP POP PUSH1 0x0 SWAP2 ADD MSTORE JUMP JUMPDEST PUSH1 0x0 PUSH1 0x0 NOT DUP3 EQ ISZERO PUSH2 0x254A JUMPI PUSH2 0x254A PUSH2 0x2551 JUMP JUMPDEST POP PUSH1 0x1 ADD SWAP1 JUMP JUMPDEST PUSH4 0x4E487B71 PUSH1 0xE0 SHL PUSH1 0x0 MSTORE PUSH1 0x11 PUSH1 0x4 MSTORE PUSH1 0x24 PUSH1 0x0 REVERT JUMPDEST DUP1 ISZERO ISZERO DUP2 EQ PUSH2 0xCFB JUMPI PUSH1 0x0 DUP1 REVERT INVALID LOG2 PUSH5 0x6970667358 0x22 SLT KECCAK256 0x2B 0xAD LOG4 0xCC 0x4E 0x25 0xCD 0xA8 EXTCODESIZE 0x4B 0xE1 DUP11 SWAP7 0x2C 0xE1 0xDC 0xB2 0xAA CODECOPY 0xA8 MULMOD DELEGATECALL 0xF9 MSIZE 0x2E 0x4C BLOCKHASH DUP10 0xD CALLVALUE PUSH6 0xBA64736F6C63 NUMBER STOP ADDMOD STOP STOP CALLER "
        },
        "gasEstimates": {
          "creation": {
            "codeDepositCost": "1928600",
            "executionCost": "infinite",
            "totalCost": "infinite"
          },
          "external": {
            "addPool(uint256,address,bool)": "infinite",
            "bonusEndBlock()": "1096",
            "bonusMultiplier()": "1117",
            "deposit(address,uint256,uint256)": "infinite",
            "devaddr()": "1181",
            "emergencyWithdraw(uint256)": "infinite",
            "executor(address)": "1354",
            "getBlock()": "273",
            "getMultiplier(uint256,uint256)": "infinite",
            "harvest(uint256)": "infinite",
            "isDuplicatedPool(address)": "infinite",
            "manualMint(address,uint256)": "infinite",
            "massUpdatePools()": "infinite",
            "owner()": "1160",
            "pendingSea(uint256,address)": "infinite",
            "poolInfo(uint256)": "5515",
            "poolLength()": "1097",
            "renounceOwnership()": "23550",
            "sea()": "1115",
            "seaPerBlock()": "1138",
            "setBonus(uint256,uint256)": "41281",
            "setDev(address)": "23364",
            "setExecutor(address,bool)": "22431",
            "setPool(uint256,uint256,bool)": "infinite",
            "setSeaPerBlock(uint256)": "22355",
            "startBlock()": "1140",
            "totalAllocPoint()": "1074",
            "transferOwnership(address)": "23831",
            "updatePool(uint256)": "infinite",
            "userInfo(uint256,address)": "3961",
            "withdraw(address,uint256,uint256)": "infinite",
            "withdrawAll(address,uint256)": "infinite",
            "withdrawalERC20(address,uint256)": "infinite"
          },
          "internal": {
            "_harvest(address,uint256)": "infinite",
            "_withdraw(address,uint256,uint256)": "infinite",
            "safeSeaTransfer(address,uint256)": "infinite"
          }
        },
        "methodIdentifiers": {
          "addPool(uint256,address,bool)": "7abceffd",
          "bonusEndBlock()": "1aed6553",
          "bonusMultiplier()": "a8b973a1",
          "deposit(address,uint256,uint256)": "0efe6a8b",
          "devaddr()": "d49e77cd",
          "emergencyWithdraw(uint256)": "5312ea8e",
          "executor(address)": "48c7e528",
          "getBlock()": "2e97766d",
          "getMultiplier(uint256,uint256)": "8dbb1e3a",
          "harvest(uint256)": "ddc63262",
          "isDuplicatedPool(address)": "b03df69d",
          "manualMint(address,uint256)": "e4c5ff46",
          "massUpdatePools()": "630b5ba1",
          "owner()": "8da5cb5b",
          "pendingSea(uint256,address)": "24cdee22",
          "poolInfo(uint256)": "1526fe27",
          "poolLength()": "081e3eda",
          "renounceOwnership()": "715018a6",
          "sea()": "4ecaac41",
          "seaPerBlock()": "f1101804",
          "setBonus(uint256,uint256)": "037c99b0",
          "setDev(address)": "d477f05f",
          "setExecutor(address,bool)": "1e1bff3f",
          "setPool(uint256,uint256,bool)": "46ca6bea",
          "setSeaPerBlock(uint256)": "d4a91e38",
          "startBlock()": "48cd4cb1",
          "totalAllocPoint()": "17caf6f1",
          "transferOwnership(address)": "f2fde38b",
          "updatePool(uint256)": "51eb05a6",
          "userInfo(uint256,address)": "93f1a40b",
          "withdraw(address,uint256,uint256)": "b5c5f672",
          "withdrawAll(address,uint256)": "cc6dbc27",
          "withdrawalERC20(address,uint256)": "930ed033"
        }
      },
      "storageLayout": {
        "storage": [
          {
            "astId": 7,
            "contract": "contracts/farm.sol:FairLaunch",
            "label": "_owner",
            "offset": 0,
            "slot": "0",
            "type": "t_address"
          },
          {
            "astId": 1069,
            "contract": "contracts/farm.sol:FairLaunch",
            "label": "_guardCounter",
            "offset": 0,
            "slot": "1",
            "type": "t_uint256"
          },
          {
            "astId": 1214,
            "contract": "contracts/farm.sol:FairLaunch",
            "label": "sea",
            "offset": 0,
            "slot": "2",
            "type": "t_address"
          },
          {
            "astId": 1216,
            "contract": "contracts/farm.sol:FairLaunch",
            "label": "devaddr",
            "offset": 0,
            "slot": "3",
            "type": "t_address"
          },
          {
            "astId": 1218,
            "contract": "contracts/farm.sol:FairLaunch",
            "label": "seaPerBlock",
            "offset": 0,
            "slot": "4",
            "type": "t_uint256"
          },
          {
            "astId": 1220,
            "contract": "contracts/farm.sol:FairLaunch",
            "label": "bonusMultiplier",
            "offset": 0,
            "slot": "5",
            "type": "t_uint256"
          },
          {
            "astId": 1222,
            "contract": "contracts/farm.sol:FairLaunch",
            "label": "bonusEndBlock",
            "offset": 0,
            "slot": "6",
            "type": "t_uint256"
          },
          {
            "astId": 1226,
            "contract": "contracts/farm.sol:FairLaunch",
            "label": "poolInfo",
            "offset": 0,
            "slot": "7",
            "type": "t_array(t_struct(PoolInfo)1212_storage)dyn_storage"
          },
          {
            "astId": 1233,
            "contract": "contracts/farm.sol:FairLaunch",
            "label": "userInfo",
            "offset": 0,
            "slot": "8",
            "type": "t_mapping(t_uint256,t_mapping(t_address,t_struct(UserInfo)1201_storage))"
          },
          {
            "astId": 1235,
            "contract": "contracts/farm.sol:FairLaunch",
            "label": "totalAllocPoint",
            "offset": 0,
            "slot": "9",
            "type": "t_uint256"
          },
          {
            "astId": 1237,
            "contract": "contracts/farm.sol:FairLaunch",
            "label": "startBlock",
            "offset": 0,
            "slot": "10",
            "type": "t_uint256"
          },
          {
            "astId": 1241,
            "contract": "contracts/farm.sol:FairLaunch",
            "label": "executor",
            "offset": 0,
            "slot": "11",
            "type": "t_mapping(t_address,t_bool)"
          }
        ],
        "types": {
          "t_address": {
            "encoding": "inplace",
            "label": "address",
            "numberOfBytes": "20"
          },
          "t_array(t_struct(PoolInfo)1212_storage)dyn_storage": {
            "base": "t_struct(PoolInfo)1212_storage",
            "encoding": "dynamic_array",
            "label": "struct FairLaunch.PoolInfo[]",
            "numberOfBytes": "32"
          },
          "t_bool": {
            "encoding": "inplace",
            "label": "bool",
            "numberOfBytes": "1"
          },
          "t_mapping(t_address,t_bool)": {
            "encoding": "mapping",
            "key": "t_address",
            "label": "mapping(address => bool)",
            "numberOfBytes": "32",
            "value": "t_bool"
          },
          "t_mapping(t_address,t_struct(UserInfo)1201_storage)": {
            "encoding": "mapping",
            "key": "t_address",
            "label": "mapping(address => struct FairLaunch.UserInfo)",
            "numberOfBytes": "32",
            "value": "t_struct(UserInfo)1201_storage"
          },
          "t_mapping(t_uint256,t_mapping(t_address,t_struct(UserInfo)1201_storage))": {
            "encoding": "mapping",
            "key": "t_uint256",
            "label": "mapping(uint256 => mapping(address => struct FairLaunch.UserInfo))",
            "numberOfBytes": "32",
            "value": "t_mapping(t_address,t_struct(UserInfo)1201_storage)"
          },
          "t_struct(PoolInfo)1212_storage": {
            "encoding": "inplace",
            "label": "struct FairLaunch.PoolInfo",
            "members": [
              {
                "astId": 1203,
                "contract": "contracts/farm.sol:FairLaunch",
                "label": "stakeToken",
                "offset": 0,
                "slot": "0",
                "type": "t_address"
              },
              {
                "astId": 1205,
                "contract": "contracts/farm.sol:FairLaunch",
                "label": "allocPoint",
                "offset": 0,
                "slot": "1",
                "type": "t_uint256"
              },
              {
                "astId": 1207,
                "contract": "contracts/farm.sol:FairLaunch",
                "label": "lastRewardBlock",
                "offset": 0,
                "slot": "2",
                "type": "t_uint256"
              },
              {
                "astId": 1209,
                "contract": "contracts/farm.sol:FairLaunch",
                "label": "accSeaPerShare",
                "offset": 0,
                "slot": "3",
                "type": "t_uint256"
              },
              {
                "astId": 1211,
                "contract": "contracts/farm.sol:FairLaunch",
                "label": "accSeaPerShareTilBonusEnd",
                "offset": 0,
                "slot": "4",
                "type": "t_uint256"
              }
            ],
            "numberOfBytes": "160"
          },
          "t_struct(UserInfo)1201_storage": {
            "encoding": "inplace",
            "label": "struct FairLaunch.UserInfo",
            "members": [
              {
                "astId": 1194,
                "contract": "contracts/farm.sol:FairLaunch",
                "label": "amount",
                "offset": 0,
                "slot": "0",
                "type": "t_uint256"
              },
              {
                "astId": 1196,
                "contract": "contracts/farm.sol:FairLaunch",
                "label": "rewardDebt",
                "offset": 0,
                "slot": "1",
                "type": "t_uint256"
              },
              {
                "astId": 1198,
                "contract": "contracts/farm.sol:FairLaunch",
                "label": "bonusDebt",
                "offset": 0,
                "slot": "2",
                "type": "t_uint256"
              },
              {
                "astId": 1200,
                "contract": "contracts/farm.sol:FairLaunch",
                "label": "fundedBy",
                "offset": 0,
                "slot": "3",
                "type": "t_address"
              }
            ],
            "numberOfBytes": "128"
          },
          "t_uint256": {
            "encoding": "inplace",
            "label": "uint256",
            "numberOfBytes": "32"
          }
        }
      },
      "userdoc": {
        "kind": "user",
        "methods": {},
        "version": 1
      }
    }
  }
}