{
  "_format": "hh-sol-artifact-1",
  "contractName": "USDCERC20Token",
  "sourceName": "contracts/IDO/USDCTest.sol",
  "abi": [
    {
      "inputs": [],
      "stateMutability": "nonpayable",
      "type": "constructor"
    },
    {
      "anonymous": false,
      "inputs": [
        {
          "indexed": true,
          "internalType": "address",
          "name": "owner",
          "type": "address"
        },
        {
          "indexed": true,
          "internalType": "address",
          "name": "spender",
          "type": "address"
        },
        {
          "indexed": false,
          "internalType": "uint256",
          "name": "value",
          "type": "uint256"
        }
      ],
      "name": "Approval",
      "type": "event"
    },
    {
      "anonymous": false,
      "inputs": [
        {
          "indexed": true,
          "internalType": "address",
          "name": "previousOwner",
          "type": "address"
        },
        {
          "indexed": true,
          "internalType": "address",
          "name": "newOwner",
          "type": "address"
        }
      ],
      "name": "OwnershipTransferred",
      "type": "event"
    },
    {
      "anonymous": false,
      "inputs": [
        {
          "indexed": false,
          "internalType": "uint256",
          "name": "previousTWAPEpochPeriod",
          "type": "uint256"
        },
        {
          "indexed": false,
          "internalType": "uint256",
          "name": "newTWAPEpochPeriod",
          "type": "uint256"
        }
      ],
      "name": "TWAPEpochChanged",
      "type": "event"
    },
    {
      "anonymous": false,
      "inputs": [
        {
          "indexed": true,
          "internalType": "address",
          "name": "previousTWAPOracle",
          "type": "address"
        },
        {
          "indexed": true,
          "internalType": "address",
          "name": "newTWAPOracle",
          "type": "address"
        }
      ],
      "name": "TWAPOracleChanged",
      "type": "event"
    },
    {
      "anonymous": false,
      "inputs": [
        {
          "indexed": true,
          "internalType": "address",
          "name": "newTWAPSource",
          "type": "address"
        }
      ],
      "name": "TWAPSourceAdded",
      "type": "event"
    },
    {
      "anonymous": false,
      "inputs": [
        {
          "indexed": true,
          "internalType": "address",
          "name": "removedTWAPSource",
          "type": "address"
        }
      ],
      "name": "TWAPSourceRemoved",
      "type": "event"
    },
    {
      "anonymous": false,
      "inputs": [
        {
          "indexed": true,
          "internalType": "address",
          "name": "from",
          "type": "address"
        },
        {
          "indexed": true,
          "internalType": "address",
          "name": "to",
          "type": "address"
        },
        {
          "indexed": false,
          "internalType": "uint256",
          "name": "value",
          "type": "uint256"
        }
      ],
      "name": "Transfer",
      "type": "event"
    },
    {
      "stateMutability": "payable",
      "type": "fallback"
    },
    {
      "inputs": [],
      "name": "DOMAIN_SEPARATOR",
      "outputs": [
        {
          "internalType": "bytes32",
          "name": "",
          "type": "bytes32"
        }
      ],
      "stateMutability": "view",
      "type": "function"
    },
    {
      "inputs": [],
      "name": "PERMIT_TYPEHASH",
      "outputs": [
        {
          "internalType": "bytes32",
          "name": "",
          "type": "bytes32"
        }
      ],
      "stateMutability": "view",
      "type": "function"
    },
    {
      "inputs": [
        {
          "internalType": "address",
          "name": "account_",
          "type": "address"
        },
        {
          "internalType": "uint256",
          "name": "amount_",
          "type": "uint256"
        }
      ],
      "name": "_burnFrom",
      "outputs": [],
      "stateMutability": "nonpayable",
      "type": "function"
    },
    {
      "inputs": [
        {
          "internalType": "address",
          "name": "newTWAPSourceDexPool_",
          "type": "address"
        }
      ],
      "name": "addTWAPSource",
      "outputs": [],
      "stateMutability": "nonpayable",
      "type": "function"
    },
    {
      "inputs": [
        {
          "internalType": "address",
          "name": "owner",
          "type": "address"
        },
        {
          "internalType": "address",
          "name": "spender",
          "type": "address"
        }
      ],
      "name": "allowance",
      "outputs": [
        {
          "internalType": "uint256",
          "name": "",
          "type": "uint256"
        }
      ],
      "stateMutability": "view",
      "type": "function"
    },
    {
      "inputs": [
        {
          "internalType": "address",
          "name": "spender",
          "type": "address"
        },
        {
          "internalType": "uint256",
          "name": "amount",
          "type": "uint256"
        }
      ],
      "name": "approve",
      "outputs": [
        {
          "internalType": "bool",
          "name": "",
          "type": "bool"
        }
      ],
      "stateMutability": "nonpayable",
      "type": "function"
    },
    {
      "inputs": [
        {
          "internalType": "address",
          "name": "account",
          "type": "address"
        }
      ],
      "name": "balanceOf",
      "outputs": [
        {
          "internalType": "uint256",
          "name": "",
          "type": "uint256"
        }
      ],
      "stateMutability": "view",
      "type": "function"
    },
    {
      "inputs": [
        {
          "internalType": "uint256",
          "name": "amount",
          "type": "uint256"
        }
      ],
      "name": "burn",
      "outputs": [],
      "stateMutability": "nonpayable",
      "type": "function"
    },
    {
      "inputs": [
        {
          "internalType": "address",
          "name": "account_",
          "type": "address"
        },
        {
          "internalType": "uint256",
          "name": "amount_",
          "type": "uint256"
        }
      ],
      "name": "burnFrom",
      "outputs": [],
      "stateMutability": "nonpayable",
      "type": "function"
    },
    {
      "inputs": [
        {
          "internalType": "uint256",
          "name": "newTWAPEpochPeriod_",
          "type": "uint256"
        }
      ],
      "name": "changeTWAPEpochPeriod",
      "outputs": [],
      "stateMutability": "nonpayable",
      "type": "function"
    },
    {
      "inputs": [
        {
          "internalType": "address",
          "name": "newTWAPOracle_",
          "type": "address"
        }
      ],
      "name": "changeTWAPOracle",
      "outputs": [],
      "stateMutability": "nonpayable",
      "type": "function"
    },
    {
      "inputs": [],
      "name": "decimals",
      "outputs": [
        {
          "internalType": "uint8",
          "name": "",
          "type": "uint8"
        }
      ],
      "stateMutability": "view",
      "type": "function"
    },
    {
      "inputs": [
        {
          "internalType": "address",
          "name": "spender",
          "type": "address"
        },
        {
          "internalType": "uint256",
          "name": "subtractedValue",
          "type": "uint256"
        }
      ],
      "name": "decreaseAllowance",
      "outputs": [
        {
          "internalType": "bool",
          "name": "",
          "type": "bool"
        }
      ],
      "stateMutability": "nonpayable",
      "type": "function"
    },
    {
      "inputs": [],
      "name": "deposit",
      "outputs": [],
      "stateMutability": "payable",
      "type": "function"
    },
    {
      "inputs": [
        {
          "internalType": "address",
          "name": "spender",
          "type": "address"
        },
        {
          "internalType": "uint256",
          "name": "addedValue",
          "type": "uint256"
        }
      ],
      "name": "increaseAllowance",
      "outputs": [
        {
          "internalType": "bool",
          "name": "",
          "type": "bool"
        }
      ],
      "stateMutability": "nonpayable",
      "type": "function"
    },
    {
      "inputs": [
        {
          "internalType": "address",
          "name": "account_",
          "type": "address"
        },
        {
          "internalType": "uint256",
          "name": "amount_",
          "type": "uint256"
        }
      ],
      "name": "mint",
      "outputs": [],
      "stateMutability": "nonpayable",
      "type": "function"
    },
    {
      "inputs": [],
      "name": "name",
      "outputs": [
        {
          "internalType": "string",
          "name": "",
          "type": "string"
        }
      ],
      "stateMutability": "view",
      "type": "function"
    },
    {
      "inputs": [
        {
          "internalType": "address",
          "name": "owner",
          "type": "address"
        }
      ],
      "name": "nonces",
      "outputs": [
        {
          "internalType": "uint256",
          "name": "",
          "type": "uint256"
        }
      ],
      "stateMutability": "view",
      "type": "function"
    },
    {
      "inputs": [],
      "name": "owner",
      "outputs": [
        {
          "internalType": "address",
          "name": "",
          "type": "address"
        }
      ],
      "stateMutability": "view",
      "type": "function"
    },
    {
      "inputs": [
        {
          "internalType": "address",
          "name": "owner",
          "type": "address"
        },
        {
          "internalType": "address",
          "name": "spender",
          "type": "address"
        },
        {
          "internalType": "uint256",
          "name": "amount",
          "type": "uint256"
        },
        {
          "internalType": "uint256",
          "name": "deadline",
          "type": "uint256"
        },
        {
          "internalType": "uint8",
          "name": "v",
          "type": "uint8"
        },
        {
          "internalType": "bytes32",
          "name": "r",
          "type": "bytes32"
        },
        {
          "internalType": "bytes32",
          "name": "s",
          "type": "bytes32"
        }
      ],
      "name": "permit",
      "outputs": [],
      "stateMutability": "nonpayable",
      "type": "function"
    },
    {
      "inputs": [
        {
          "internalType": "address",
          "name": "twapSourceToRemove_",
          "type": "address"
        }
      ],
      "name": "removeTWAPSource",
      "outputs": [],
      "stateMutability": "nonpayable",
      "type": "function"
    },
    {
      "inputs": [],
      "name": "renounceOwnership",
      "outputs": [],
      "stateMutability": "nonpayable",
      "type": "function"
    },
    {
      "inputs": [
        {
          "internalType": "address",
          "name": "vault_",
          "type": "address"
        }
      ],
      "name": "setVault",
      "outputs": [
        {
          "internalType": "bool",
          "name": "",
          "type": "bool"
        }
      ],
      "stateMutability": "nonpayable",
      "type": "function"
    },
    {
      "inputs": [],
      "name": "symbol",
      "outputs": [
        {
          "internalType": "string",
          "name": "",
          "type": "string"
        }
      ],
      "stateMutability": "view",
      "type": "function"
    },
    {
      "inputs": [],
      "name": "totalSupply",
      "outputs": [
        {
          "internalType": "uint256",
          "name": "",
          "type": "uint256"
        }
      ],
      "stateMutability": "view",
      "type": "function"
    },
    {
      "inputs": [
        {
          "internalType": "address",
          "name": "recipient",
          "type": "address"
        },
        {
          "internalType": "uint256",
          "name": "amount",
          "type": "uint256"
        }
      ],
      "name": "transfer",
      "outputs": [
        {
          "internalType": "bool",
          "name": "",
          "type": "bool"
        }
      ],
      "stateMutability": "nonpayable",
      "type": "function"
    },
    {
      "inputs": [
        {
          "internalType": "address",
          "name": "sender",
          "type": "address"
        },
        {
          "internalType": "address",
          "name": "recipient",
          "type": "address"
        },
        {
          "internalType": "uint256",
          "name": "amount",
          "type": "uint256"
        }
      ],
      "name": "transferFrom",
      "outputs": [
        {
          "internalType": "bool",
          "name": "",
          "type": "bool"
        }
      ],
      "stateMutability": "nonpayable",
      "type": "function"
    },
    {
      "inputs": [
        {
          "internalType": "address",
          "name": "newOwner_",
          "type": "address"
        }
      ],
      "name": "transferOwnership",
      "outputs": [],
      "stateMutability": "nonpayable",
      "type": "function"
    },
    {
      "inputs": [],
      "name": "twapEpochPeriod",
      "outputs": [
        {
          "internalType": "uint256",
          "name": "",
          "type": "uint256"
        }
      ],
      "stateMutability": "view",
      "type": "function"
    },
    {
      "inputs": [],
      "name": "twapOracle",
      "outputs": [
        {
          "internalType": "contract ITWAPOracle",
          "name": "",
          "type": "address"
        }
      ],
      "stateMutability": "view",
      "type": "function"
    },
    {
      "inputs": [],
      "name": "vault",
      "outputs": [
        {
          "internalType": "address",
          "name": "",
          "type": "address"
        }
      ],
      "stateMutability": "view",
      "type": "function"
    }
  ],
  "bytecode": "0x60806040523480156200001157600080fd5b50604051806040016040528060098152602001681554d110c815195cdd60ba1b815250604051806040016040528060098152602001681554d110c815195cdd60ba1b81525060068282828282828260039080519060200190620000769291906200023d565b5081516200008c9060049060208501906200023d565b506005805460ff191660ff92909216919091179055504690507f8b73c3c69bb8fe3d512ecc4cf759cc79239f7b179b0ffacaa9a75d522b39400f620000d0620001a3565b805160209182012060408051808201825260018152603160f81b90840152805180840194909452838101919091527fc89efdaa54c0f20c7adf612882df0950f5a951637e0307cdcb4c672f298b8bc6606084015260808301939093523060a0808401919091528351808403909101815260c0909201928390528151910120600755600880546001600160a01b0319163317908190556001600160a01b0316906000907f8be0079c531659141344cd1fd0a4f28419497f9722a3daafe3b4186f6b6457e0908290a3505050505050620002e9565b60038054604080516020601f6002600019610100600188161502019095169490940493840181900481028201810190925282815260609390929091830182828015620002335780601f10620002075761010080835404028352916020019162000233565b820191906000526020600020905b8154815290600101906020018083116200021557829003601f168201915b5050505050905090565b828054600181600116156101000203166002900490600052602060002090601f016020900481019282620002755760008555620002c0565b82601f106200029057805160ff1916838001178555620002c0565b82800160010185558215620002c0579182015b82811115620002c0578251825591602001919060010190620002a3565b50620002ce929150620002d2565b5090565b5b80821115620002ce5760008155600101620002d3565b611cff80620002f96000396000f3fe6080604052600436106101d85760003560e01c806379cc679011610102578063c18230ec11610095578063dd62ed3e11610064578063dd62ed3e14610704578063efa058b11461073f578063f2fde38b14610772578063fbfa77cf146107a5576101d8565b8063c18230ec1461065e578063c5bc700214610691578063d0e30db0146101d8578063d505accf146106a6576101d8565b806395d89b41116100d157806395d89b411461059e578063a22b35ce146105b3578063a457c2d7146105ec578063a9059cbb14610625576101d8565b806379cc6790146104ec5780637ecebe00146105255780638da5cb5b146105585780639043292a14610589576101d8565b80633644e5151161017a5780634daff8a3116101495780634daff8a3146104475780636817031b1461047157806370a08231146104a4578063715018a6146104d7576101d8565b80633644e5151461039657806339509351146103ab57806340c10f19146103e457806342966c681461041d576101d8565b806323b872dd116101b657806323b872dd146102e057806330adf81f14610323578063313ce567146103385780633144fdf614610363576101d8565b806306fdde03146101e2578063095ea7b31461026c57806318160ddd146102b9575b6101e06107ba565b005b3480156101ee57600080fd5b506101f76107c6565b6040805160208082528351818301528351919283929083019185019080838360005b83811015610231578181015183820152602001610219565b50505050905090810190601f16801561025e5780820380516001836020036101000a031916815260200191505b509250505060405180910390f35b34801561027857600080fd5b506102a56004803603604081101561028f57600080fd5b506001600160a01b03813516906020013561085c565b604080519115158252519081900360200190f35b3480156102c557600080fd5b506102ce610873565b60408051918252519081900360200190f35b3480156102ec57600080fd5b506102a56004803603606081101561030357600080fd5b506001600160a01b03813581169160208101359091169060400135610879565b34801561032f57600080fd5b506102ce6108e2565b34801561034457600080fd5b5061034d610906565b6040805160ff9092168252519081900360200190f35b34801561036f57600080fd5b506101e06004803603602081101561038657600080fd5b50356001600160a01b031661090f565b3480156103a257600080fd5b506102ce6109b8565b3480156103b757600080fd5b506102a5600480360360408110156103ce57600080fd5b506001600160a01b0381351690602001356109be565b3480156103f057600080fd5b506101e06004803603604081101561040757600080fd5b506001600160a01b0381351690602001356109f4565b34801561042957600080fd5b506101e06004803603602081101561044057600080fd5b5035610a4b565b34801561045357600080fd5b506101e06004803603602081101561046a57600080fd5b5035610a58565b34801561047d57600080fd5b506102a56004803603602081101561049457600080fd5b50356001600160a01b0316610b26565b3480156104b057600080fd5b506102ce600480360360208110156104c757600080fd5b50356001600160a01b0316610b9b565b3480156104e357600080fd5b506101e0610bb6565b3480156104f857600080fd5b506101e06004803603604081101561050f57600080fd5b506001600160a01b038135169060200135610c4d565b34801561053157600080fd5b506102ce6004803603602081101561054857600080fd5b50356001600160a01b0316610c57565b34801561056457600080fd5b5061056d610c78565b604080516001600160a01b039092168252519081900360200190f35b34801561059557600080fd5b5061056d610c87565b3480156105aa57600080fd5b506101f7610c96565b3480156105bf57600080fd5b506101e0600480360360408110156105d657600080fd5b506001600160a01b038135169060200135610cf7565b3480156105f857600080fd5b506102a56004803603604081101561060f57600080fd5b506001600160a01b038135169060200135610d43565b34801561063157600080fd5b506102a56004803603604081101561064857600080fd5b506001600160a01b038135169060200135610d92565b34801561066a57600080fd5b506101e06004803603602081101561068157600080fd5b50356001600160a01b0316610d9f565b34801561069d57600080fd5b506102ce610e69565b3480156106b257600080fd5b506101e0600480360360e08110156106c957600080fd5b506001600160a01b03813581169160208101359091169060408101359060608101359060ff6080820135169060a08101359060c00135610e6f565b34801561071057600080fd5b506102ce6004803603604081101561072757600080fd5b506001600160a01b038135811691602001351661109c565b34801561074b57600080fd5b506101e06004803603602081101561076257600080fd5b50356001600160a01b03166110c7565b34801561077e57600080fd5b506101e06004803603602081101561079557600080fd5b50356001600160a01b0316611191565b3480156107b157600080fd5b5061056d61127f565b6107c4333461128e565b565b60038054604080516020601f60026000196101006001881615020190951694909404938401819004810282018101909252828152606093909290918301828280156108525780601f1061082757610100808354040283529160200191610852565b820191906000526020600020905b81548152906001019060200180831161083557829003601f168201915b5050505050905090565b600061086933848461137e565b5060015b92915050565b60025490565b600061088684848461146a565b6108d884336108d385604051806060016040528060288152602001611bac602891396001600160a01b038a16600090815260016020908152604080832033845290915290205491906115c5565b61137e565b5060019392505050565b7f6e71edae12b1b97f4d1f60370fef10105fa2faae0126114a169c64845d6126c981565b60055460ff1690565b6008546001600160a01b0316331461095c576040805162461bcd60e51b81526020600482018190526024820152600080516020611bf7833981519152604482015290519081900360640190fd5b600c546040516001600160a01b038084169216907f04d449efb9af82ca8fd89ca047e3c023180cac06245c5ace8ecf96c7f637c00a90600090a3600c80546001600160a01b0319166001600160a01b0392909216919091179055565b60075481565b3360008181526001602090815260408083206001600160a01b038716845290915281205490916108699185906108d3908661165c565b6009546001600160a01b03163314610a3d5760405162461bcd60e51b8152600401808060200182810382526023815260200180611bd46023913960400191505060405180910390fd5b610a47828261128e565b5050565b610a5533826116bd565b50565b6008546001600160a01b03163314610aa5576040805162461bcd60e51b81526020600482018190526024820152600080516020611bf7833981519152604482015290519081900360640190fd5b60008111610ae45760405162461bcd60e51b815260040180806020018281038252603c815260200180611afe603c913960400191505060405180910390fd5b600d54604080519182526020820183905280517fcddeab46bd7c7fa32f59b80523bce21904a7f2031ac8fbefa3f9c2ba24cc0e9f9281900390910190a1600d55565b6008546000906001600160a01b03163314610b76576040805162461bcd60e51b81526020600482018190526024820152600080516020611bf7833981519152604482015290519081900360640190fd5b50600980546001600160a01b0383166001600160a01b03199091161790556001919050565b6001600160a01b031660009081526020819052604090205490565b6008546001600160a01b03163314610c03576040805162461bcd60e51b81526020600482018190526024820152600080516020611bf7833981519152604482015290519081900360640190fd5b6008546040516000916001600160a01b0316907f8be0079c531659141344cd1fd0a4f28419497f9722a3daafe3b4186f6b6457e0908390a3600880546001600160a01b0319169055565b610a478282610cf7565b6001600160a01b038116600090815260066020526040812061086d906117b9565b6008546001600160a01b031690565b600c546001600160a01b031681565b60048054604080516020601f60026000196101006001881615020190951694909404938401819004810282018101909252828152606093909290918301828280156108525780601f1061082757610100808354040283529160200191610852565b6000610d2782604051806060016040528060248152602001611c1760249139610d20863361109c565b91906115c5565b9050610d3483338361137e565b610d3e83836116bd565b505050565b600061086933846108d385604051806060016040528060258152602001611ca5602591393360009081526001602090815260408083206001600160a01b038d16845290915290205491906115c5565b600061086933848461146a565b6008546001600160a01b03163314610dec576040805162461bcd60e51b81526020600482018190526024820152600080516020611bf7833981519152604482015290519081900360640190fd5b610df7600a826117bd565b610e325760405162461bcd60e51b815260040180806020018281038252602e815260200180611a66602e913960400191505060405180910390fd5b6040516001600160a01b038216907fb702ce677d2c4388aab38b10f96ca003dbe3dadb46fbf858cb7d55cba6bebc4690600090a250565b600d5481565b83421115610ec4576040805162461bcd60e51b815260206004820152601860248201527f5065726d69743a206578706972656420646561646c696e650000000000000000604482015290519081900360640190fd5b6001600160a01b03871660009081526006602052604081207f6e71edae12b1b97f4d1f60370fef10105fa2faae0126114a169c64845d6126c990899089908990610f0d906117b9565b604080516020808201979097526001600160a01b0395861681830152939094166060840152608083019190915260a082015260c08082018990528251808303909101815260e08201835280519084012060075461190160f01b610100840152610102830152610122808301829052835180840390910181526101428301808552815191860191909120600091829052610162840180865281905260ff8a166101828501526101a284018990526101c28401889052935191955092936001926101e280820193601f1981019281900390910190855afa158015610ff3573d6000803e3d6000fd5b5050604051601f1901519150506001600160a01b038116158015906110295750896001600160a01b0316816001600160a01b0316145b6110645760405162461bcd60e51b8152600401808060200182810382526021815260200180611b8b6021913960400191505060405180910390fd5b6001600160a01b038a166000908152600660205260409020611085906117d2565b6110908a8a8a61137e565b50505050505050505050565b6001600160a01b03918216600090815260016020908152604080832093909416825291909152205490565b6008546001600160a01b03163314611114576040805162461bcd60e51b81526020600482018190526024820152600080516020611bf7833981519152604482015290519081900360640190fd5b61111f600a826117db565b61115a5760405162461bcd60e51b815260040180806020018281038252602b815260200180611b3a602b913960400191505060405180910390fd5b6040516001600160a01b038216907f677b09947a451559cdf8756f4cb518daf9620feb88ad8f3434a77f4cbfc73bc990600090a250565b6008546001600160a01b031633146111de576040805162461bcd60e51b81526020600482018190526024820152600080516020611bf7833981519152604482015290519081900360640190fd5b6001600160a01b0381166112235760405162461bcd60e51b8152600401808060200182810382526026815260200180611ab66026913960400191505060405180910390fd5b6008546040516001600160a01b038084169216907f8be0079c531659141344cd1fd0a4f28419497f9722a3daafe3b4186f6b6457e090600090a3600880546001600160a01b0319166001600160a01b0392909216919091179055565b6009546001600160a01b031690565b6001600160a01b0382166112e9576040805162461bcd60e51b815260206004820152601f60248201527f45524332303a206d696e7420746f20746865207a65726f206164647265737300604482015290519081900360640190fd5b6112f43083836117f0565b600254611301908261165c565b6002556001600160a01b038216600090815260208190526040902054611327908261165c565b6001600160a01b038316600081815260208181526040918290209390935580518481529051919230927fddf252ad1be2c89b69c2b068fc378daa952ba7f163c4a11628f55a4df523b3ef9281900390910190a35050565b6001600160a01b0383166113c35760405162461bcd60e51b8152600401808060200182810382526024815260200180611c816024913960400191505060405180910390fd5b6001600160a01b0382166114085760405162461bcd60e51b8152600401808060200182810382526022815260200180611adc6022913960400191505060405180910390fd5b6001600160a01b03808416600081815260016020908152604080832094871680845294825291829020859055815185815291517f8c5be1e5ebec7d5bd14f71427d1e84f3dd0314c0f7b2291e5b200ac8c7c3b9259281900390910190a3505050565b6001600160a01b0383166114af5760405162461bcd60e51b8152600401808060200182810382526025815260200180611c5c6025913960400191505060405180910390fd5b6001600160a01b0382166114f45760405162461bcd60e51b8152600401808060200182810382526023815260200180611a436023913960400191505060405180910390fd5b6114ff8383836117f0565b61153c81604051806060016040528060268152602001611b65602691396001600160a01b03861660009081526020819052604090205491906115c5565b6001600160a01b03808516600090815260208190526040808220939093559084168152205461156b908261165c565b6001600160a01b038084166000818152602081815260409182902094909455805185815290519193928716927fddf252ad1be2c89b69c2b068fc378daa952ba7f163c4a11628f55a4df523b3ef92918290030190a3505050565b600081848411156116545760405162461bcd60e51b81526004018080602001828103825283818151815260200191508051906020019080838360005b83811015611619578181015183820152602001611601565b50505050905090810190601f1680156116465780820380516001836020036101000a031916815260200191505b509250505060405180910390fd5b505050900390565b6000828201838110156116b6576040805162461bcd60e51b815260206004820152601b60248201527f536166654d6174683a206164646974696f6e206f766572666c6f770000000000604482015290519081900360640190fd5b9392505050565b6001600160a01b0382166117025760405162461bcd60e51b8152600401808060200182810382526021815260200180611c3b6021913960400191505060405180910390fd5b61170e826000836117f0565b61174b81604051806060016040528060228152602001611a94602291396001600160a01b03851660009081526020819052604090205491906115c5565b6001600160a01b038316600090815260208190526040902055600254611771908261182d565b6002556040805182815290516000916001600160a01b038516917fddf252ad1be2c89b69c2b068fc378daa952ba7f163c4a11628f55a4df523b3ef9181900360200190a35050565b5490565b60006116b6836001600160a01b03841661186f565b80546001019055565b60006116b6836001600160a01b0384166118b9565b6117fb600a8461197f565b156118115761180c83600d54611994565b610d3e565b61181c600a8361197f565b15610d3e57610d3e82600d54611994565b60006116b683836040518060400160405280601e81526020017f536166654d6174683a207375627472616374696f6e206f766572666c6f7700008152506115c5565b600061187b8383611a2a565b6118b15750815460018181018455600084815260208082209093018490558454848252828601909352604090209190915561086d565b50600061086d565b6000818152600183016020526040812054801561197557835460001980830191908101906000908790839081106118ec57fe5b906000526020600020015490508087600001848154811061190957fe5b60009182526020808320909101929092558281526001898101909252604090209084019055865487908061193957fe5b6001900381819060005260206000200160009055905586600101600087815260200190815260200160002060009055600194505050505061086d565b600091505061086d565b60006116b6836001600160a01b038416611a2a565b61199f600a8361197f565b15610a4757600c54604080516377a8d4c160e11b81526001600160a01b038581166004830152602482018590529151919092169163ef51a9829160448083019260209291908290030181600087803b1580156119fa57600080fd5b505af1158015611a0e573d6000803e3d6000fd5b505050506040513d6020811015611a2457600080fd5b50505050565b6000908152600191909101602052604090205415159056fe45524332303a207472616e7366657220746f20746865207a65726f20616464726573734f6c796d7075734552433230544f6b656e3a205457415020536f7572636520616c72656164792073746f7265642e45524332303a206275726e20616d6f756e7420657863656564732062616c616e63654f776e61626c653a206e6577206f776e657220697320746865207a65726f206164647265737345524332303a20617070726f766520746f20746865207a65726f2061646472657373545741504f7261636c65557064617465723a20545741502045706f636820706572696f64206d7573742062652067726561746572207468616e20302e4f6c796d7075734552433230544f6b656e3a205457415020736f75726365206e6f742070726573656e742e45524332303a207472616e7366657220616d6f756e7420657863656564732062616c616e63655a65726f537761705065726d69743a20496e76616c6964207369676e617475726545524332303a207472616e7366657220616d6f756e74206578636565647320616c6c6f77616e63655661756c744f776e65643a2063616c6c6572206973206e6f7420746865205661756c744f776e61626c653a2063616c6c6572206973206e6f7420746865206f776e657245524332303a206275726e20616d6f756e74206578636565647320616c6c6f77616e636545524332303a206275726e2066726f6d20746865207a65726f206164647265737345524332303a207472616e736665722066726f6d20746865207a65726f206164647265737345524332303a20617070726f76652066726f6d20746865207a65726f206164647265737345524332303a2064656372656173656420616c6c6f77616e63652062656c6f77207a65726fa2646970667358221220b99b510000cc922f680674068b8c25d4ce403e39b3bf8a98d128da9f8ae2672864736f6c63430007050033",
  "linkReferences": {},
  "deployedLinkReferences": {}
}