{
  "_format": "hh-sol-artifact-1",
  "contractName": "FairLaunch",
  "sourceName": "contracts/farm.sol",
  "abi": [
    {
      "inputs": [
        {
          "internalType": "address",
          "name": "_sea",
          "type": "address"
        },
        {
          "internalType": "address",
          "name": "_devaddr",
          "type": "address"
        },
        {
          "internalType": "uint256",
          "name": "_seaPerBlock",
          "type": "uint256"
        },
        {
          "internalType": "uint256",
          "name": "_startBlock",
          "type": "uint256"
        },
        {
          "internalType": "uint256",
          "name": "_bonusEndBlock",
          "type": "uint256"
        }
      ],
      "stateMutability": "nonpayable",
      "type": "constructor"
    },
    {
      "anonymous": false,
      "inputs": [
        {
          "indexed": true,
          "internalType": "address",
          "name": "user",
          "type": "address"
        },
        {
          "indexed": true,
          "internalType": "uint256",
          "name": "pid",
          "type": "uint256"
        },
        {
          "indexed": false,
          "internalType": "uint256",
          "name": "amount",
          "type": "uint256"
        }
      ],
      "name": "Deposit",
      "type": "event"
    },
    {
      "anonymous": false,
      "inputs": [
        {
          "indexed": true,
          "internalType": "address",
          "name": "user",
          "type": "address"
        },
        {
          "indexed": true,
          "internalType": "uint256",
          "name": "pid",
          "type": "uint256"
        },
        {
          "indexed": false,
          "internalType": "uint256",
          "name": "amount",
          "type": "uint256"
        }
      ],
      "name": "EmergencyWithdraw",
      "type": "event"
    },
    {
      "anonymous": false,
      "inputs": [
        {
          "indexed": true,
          "internalType": "address",
          "name": "to",
          "type": "address"
        },
        {
          "indexed": true,
          "internalType": "uint256",
          "name": "amount",
          "type": "uint256"
        }
      ],
      "name": "ManualMint",
      "type": "event"
    },
    {
      "anonymous": false,
      "inputs": [
        {
          "indexed": true,
          "internalType": "address",
          "name": "previousOwner",
          "type": "address"
        },
        {
          "indexed": true,
          "internalType": "address",
          "name": "newOwner",
          "type": "address"
        }
      ],
      "name": "OwnershipTransferred",
      "type": "event"
    },
    {
      "anonymous": false,
      "inputs": [
        {
          "indexed": true,
          "internalType": "address",
          "name": "devAddr",
          "type": "address"
        }
      ],
      "name": "SetDevAddress",
      "type": "event"
    },
    {
      "anonymous": false,
      "inputs": [
        {
          "indexed": true,
          "internalType": "uint256",
          "name": "seaPerBlock",
          "type": "uint256"
        }
      ],
      "name": "SetSeaPerBlock",
      "type": "event"
    },
    {
      "anonymous": false,
      "inputs": [
        {
          "indexed": true,
          "internalType": "address",
          "name": "user",
          "type": "address"
        },
        {
          "indexed": true,
          "internalType": "uint256",
          "name": "pid",
          "type": "uint256"
        },
        {
          "indexed": false,
          "internalType": "uint256",
          "name": "amount",
          "type": "uint256"
        }
      ],
      "name": "Withdraw",
      "type": "event"
    },
    {
      "inputs": [
        {
          "internalType": "uint256",
          "name": "_allocPoint",
          "type": "uint256"
        },
        {
          "internalType": "address",
          "name": "_stakeToken",
          "type": "address"
        },
        {
          "internalType": "bool",
          "name": "_withUpdate",
          "type": "bool"
        }
      ],
      "name": "addPool",
      "outputs": [],
      "stateMutability": "nonpayable",
      "type": "function"
    },
    {
      "inputs": [],
      "name": "bonusEndBlock",
      "outputs": [
        {
          "internalType": "uint256",
          "name": "",
          "type": "uint256"
        }
      ],
      "stateMutability": "view",
      "type": "function"
    },
    {
      "inputs": [],
      "name": "bonusMultiplier",
      "outputs": [
        {
          "internalType": "uint256",
          "name": "",
          "type": "uint256"
        }
      ],
      "stateMutability": "view",
      "type": "function"
    },
    {
      "inputs": [
        {
          "internalType": "address",
          "name": "_for",
          "type": "address"
        },
        {
          "internalType": "uint256",
          "name": "_pid",
          "type": "uint256"
        },
        {
          "internalType": "uint256",
          "name": "_amount",
          "type": "uint256"
        }
      ],
      "name": "deposit",
      "outputs": [],
      "stateMutability": "nonpayable",
      "type": "function"
    },
    {
      "inputs": [],
      "name": "devaddr",
      "outputs": [
        {
          "internalType": "address",
          "name": "",
          "type": "address"
        }
      ],
      "stateMutability": "view",
      "type": "function"
    },
    {
      "inputs": [
        {
          "internalType": "uint256",
          "name": "_pid",
          "type": "uint256"
        }
      ],
      "name": "emergencyWithdraw",
      "outputs": [],
      "stateMutability": "nonpayable",
      "type": "function"
    },
    {
      "inputs": [
        {
          "internalType": "address",
          "name": "",
          "type": "address"
        }
      ],
      "name": "executor",
      "outputs": [
        {
          "internalType": "bool",
          "name": "",
          "type": "bool"
        }
      ],
      "stateMutability": "view",
      "type": "function"
    },
    {
      "inputs": [],
      "name": "getBlock",
      "outputs": [
        {
          "internalType": "uint256",
          "name": "",
          "type": "uint256"
        }
      ],
      "stateMutability": "view",
      "type": "function"
    },
    {
      "inputs": [
        {
          "internalType": "uint256",
          "name": "_lastRewardBlock",
          "type": "uint256"
        },
        {
          "internalType": "uint256",
          "name": "_currentBlock",
          "type": "uint256"
        }
      ],
      "name": "getMultiplier",
      "outputs": [
        {
          "internalType": "uint256",
          "name": "",
          "type": "uint256"
        }
      ],
      "stateMutability": "view",
      "type": "function"
    },
    {
      "inputs": [
        {
          "internalType": "uint256",
          "name": "_pid",
          "type": "uint256"
        }
      ],
      "name": "harvest",
      "outputs": [],
      "stateMutability": "nonpayable",
      "type": "function"
    },
    {
      "inputs": [
        {
          "internalType": "address",
          "name": "_stakeToken",
          "type": "address"
        }
      ],
      "name": "isDuplicatedPool",
      "outputs": [
        {
          "internalType": "bool",
          "name": "",
          "type": "bool"
        }
      ],
      "stateMutability": "view",
      "type": "function"
    },
    {
      "inputs": [
        {
          "internalType": "address",
          "name": "_to",
          "type": "address"
        },
        {
          "internalType": "uint256",
          "name": "_amount",
          "type": "uint256"
        }
      ],
      "name": "manualMint",
      "outputs": [],
      "stateMutability": "nonpayable",
      "type": "function"
    },
    {
      "inputs": [],
      "name": "massUpdatePools",
      "outputs": [],
      "stateMutability": "nonpayable",
      "type": "function"
    },
    {
      "inputs": [],
      "name": "owner",
      "outputs": [
        {
          "internalType": "address",
          "name": "",
          "type": "address"
        }
      ],
      "stateMutability": "view",
      "type": "function"
    },
    {
      "inputs": [
        {
          "internalType": "uint256",
          "name": "_pid",
          "type": "uint256"
        },
        {
          "internalType": "address",
          "name": "_user",
          "type": "address"
        }
      ],
      "name": "pendingSea",
      "outputs": [
        {
          "internalType": "uint256",
          "name": "",
          "type": "uint256"
        }
      ],
      "stateMutability": "view",
      "type": "function"
    },
    {
      "inputs": [
        {
          "internalType": "uint256",
          "name": "",
          "type": "uint256"
        }
      ],
      "name": "poolInfo",
      "outputs": [
        {
          "internalType": "address",
          "name": "stakeToken",
          "type": "address"
        },
        {
          "internalType": "uint256",
          "name": "allocPoint",
          "type": "uint256"
        },
        {
          "internalType": "uint256",
          "name": "lastRewardBlock",
          "type": "uint256"
        },
        {
          "internalType": "uint256",
          "name": "accSeaPerShare",
          "type": "uint256"
        },
        {
          "internalType": "uint256",
          "name": "accSeaPerShareTilBonusEnd",
          "type": "uint256"
        }
      ],
      "stateMutability": "view",
      "type": "function"
    },
    {
      "inputs": [],
      "name": "poolLength",
      "outputs": [
        {
          "internalType": "uint256",
          "name": "",
          "type": "uint256"
        }
      ],
      "stateMutability": "view",
      "type": "function"
    },
    {
      "inputs": [],
      "name": "renounceOwnership",
      "outputs": [],
      "stateMutability": "nonpayable",
      "type": "function"
    },
    {
      "inputs": [],
      "name": "sea",
      "outputs": [
        {
          "internalType": "address",
          "name": "",
          "type": "address"
        }
      ],
      "stateMutability": "view",
      "type": "function"
    },
    {
      "inputs": [],
      "name": "seaPerBlock",
      "outputs": [
        {
          "internalType": "uint256",
          "name": "",
          "type": "uint256"
        }
      ],
      "stateMutability": "view",
      "type": "function"
    },
    {
      "inputs": [
        {
          "internalType": "uint256",
          "name": "_bonusMultiplier",
          "type": "uint256"
        },
        {
          "internalType": "uint256",
          "name": "_bonusEndBlock",
          "type": "uint256"
        }
      ],
      "name": "setBonus",
      "outputs": [],
      "stateMutability": "nonpayable",
      "type": "function"
    },
    {
      "inputs": [
        {
          "internalType": "address",
          "name": "_devaddr",
          "type": "address"
        }
      ],
      "name": "setDev",
      "outputs": [],
      "stateMutability": "nonpayable",
      "type": "function"
    },
    {
      "inputs": [
        {
          "internalType": "address",
          "name": "_address",
          "type": "address"
        },
        {
          "internalType": "bool",
          "name": "_type",
          "type": "bool"
        }
      ],
      "name": "setExecutor",
      "outputs": [
        {
          "internalType": "bool",
          "name": "",
          "type": "bool"
        }
      ],
      "stateMutability": "nonpayable",
      "type": "function"
    },
    {
      "inputs": [
        {
          "internalType": "uint256",
          "name": "_pid",
          "type": "uint256"
        },
        {
          "internalType": "uint256",
          "name": "_allocPoint",
          "type": "uint256"
        },
        {
          "internalType": "bool",
          "name": "_withUpdate",
          "type": "bool"
        }
      ],
      "name": "setPool",
      "outputs": [],
      "stateMutability": "nonpayable",
      "type": "function"
    },
    {
      "inputs": [
        {
          "internalType": "uint256",
          "name": "_seaPerBlock",
          "type": "uint256"
        }
      ],
      "name": "setSeaPerBlock",
      "outputs": [],
      "stateMutability": "nonpayable",
      "type": "function"
    },
    {
      "inputs": [],
      "name": "startBlock",
      "outputs": [
        {
          "internalType": "uint256",
          "name": "",
          "type": "uint256"
        }
      ],
      "stateMutability": "view",
      "type": "function"
    },
    {
      "inputs": [],
      "name": "totalAllocPoint",
      "outputs": [
        {
          "internalType": "uint256",
          "name": "",
          "type": "uint256"
        }
      ],
      "stateMutability": "view",
      "type": "function"
    },
    {
      "inputs": [
        {
          "internalType": "address",
          "name": "newOwner",
          "type": "address"
        }
      ],
      "name": "transferOwnership",
      "outputs": [],
      "stateMutability": "nonpayable",
      "type": "function"
    },
    {
      "inputs": [
        {
          "internalType": "uint256",
          "name": "_pid",
          "type": "uint256"
        }
      ],
      "name": "updatePool",
      "outputs": [],
      "stateMutability": "nonpayable",
      "type": "function"
    },
    {
      "inputs": [
        {
          "internalType": "uint256",
          "name": "",
          "type": "uint256"
        },
        {
          "internalType": "address",
          "name": "",
          "type": "address"
        }
      ],
      "name": "userInfo",
      "outputs": [
        {
          "internalType": "uint256",
          "name": "amount",
          "type": "uint256"
        },
        {
          "internalType": "uint256",
          "name": "rewardDebt",
          "type": "uint256"
        },
        {
          "internalType": "uint256",
          "name": "bonusDebt",
          "type": "uint256"
        },
        {
          "internalType": "address",
          "name": "fundedBy",
          "type": "address"
        }
      ],
      "stateMutability": "view",
      "type": "function"
    },
    {
      "inputs": [
        {
          "internalType": "address",
          "name": "_for",
          "type": "address"
        },
        {
          "internalType": "uint256",
          "name": "_pid",
          "type": "uint256"
        },
        {
          "internalType": "uint256",
          "name": "_amount",
          "type": "uint256"
        }
      ],
      "name": "withdraw",
      "outputs": [],
      "stateMutability": "nonpayable",
      "type": "function"
    },
    {
      "inputs": [
        {
          "internalType": "address",
          "name": "_for",
          "type": "address"
        },
        {
          "internalType": "uint256",
          "name": "_pid",
          "type": "uint256"
        }
      ],
      "name": "withdrawAll",
      "outputs": [],
      "stateMutability": "nonpayable",
      "type": "function"
    },
    {
      "inputs": [
        {
          "internalType": "address",
          "name": "_address",
          "type": "address"
        },
        {
          "internalType": "uint256",
          "name": "_amt",
          "type": "uint256"
        }
      ],
      "name": "withdrawalERC20",
      "outputs": [
        {
          "internalType": "bool",
          "name": "",
          "type": "bool"
        }
      ],
      "stateMutability": "nonpayable",
      "type": "function"
    }
  ],
  "bytecode": "0x60806040523480156200001157600080fd5b506040516200273338038062002733833981016040819052620000349162000126565b6200004862000042620000b5565b620000b9565b6001808055600060058190556009819055600280546001600160a01b039889166001600160a01b0319918216179091556003805497909816961695909517909555600492909255600691909155600a55338152600b60205260409020805460ff1916909117905562000178565b3390565b600080546001600160a01b038381166001600160a01b0319831681178455604051919092169283917f8be0079c531659141344cd1fd0a4f28419497f9722a3daafe3b4186f6b6457e09190a35050565b80516001600160a01b03811681146200012157600080fd5b919050565b600080600080600060a086880312156200013e578081fd5b620001498662000109565b9450620001596020870162000109565b6040870151606088015160809098015196999198509695945092505050565b6125ab80620001886000396000f3fe608060405234801561001057600080fd5b50600436106101fb5760003560e01c8063715018a61161011a578063b5c5f672116100ad578063d4a91e381161007c578063d4a91e38146103ee578063ddc6326214610401578063e4c5ff4614610414578063f110180414610427578063f2fde38b1461042f576101fb565b8063b5c5f672146103ad578063cc6dbc27146103c0578063d477f05f146103d3578063d49e77cd146103e6576101fb565b8063930ed033116100e9578063930ed0331461035c57806393f1a40b1461036f578063a8b973a114610392578063b03df69d1461039a576101fb565b8063715018a6146103265780637abceffd1461032e5780638da5cb5b146103415780638dbb1e3a14610349576101fb565b80632e97766d116101925780634ecaac41116101615780634ecaac41146102e357806351eb05a6146102f85780635312ea8e1461030b578063630b5ba11461031e576101fb565b80632e97766d146102ad57806346ca6bea146102b557806348c7e528146102c857806348cd4cb1146102db576101fb565b806317caf6f1116101ce57806317caf6f11461026a5780631aed6553146102725780631e1bff3f1461027a57806324cdee221461029a576101fb565b8063037c99b014610200578063081e3eda146102155780630efe6a8b146102335780631526fe2714610246575b600080fd5b61021361020e366004611ea4565b610442565b005b61021d6104d4565b60405161022a919061246f565b60405180910390f35b610213610241366004611dbc565b6104da565b610259610254366004611e0a565b6106bb565b60405161022a959493929190611f5f565b61021d610706565b61021d61070c565b61028d610288366004611d5d565b610712565b60405161022a9190611f8d565b61021d6102a8366004611e3a565b610781565b61021d61090b565b6102136102c3366004611ec5565b61090f565b61028d6102d6366004611d43565b6109df565b61021d6109f4565b6102eb6109fa565b60405161022a9190611f0e565b610213610306366004611e0a565b610a09565b610213610319366004611e0a565b610cfe565b610213610db3565b610213610dde565b61021361033c366004611e65565b610e29565b6102eb611004565b61021d610357366004611ea4565b611013565b61028d61036a366004611d93565b6110a3565b61038261037d366004611e3a565b611101565b60405161022a9493929190612478565b61021d61113c565b61028d6103a8366004611d43565b611142565b6102136103bb366004611dbc565b6111c6565b6102136103ce366004611d93565b61120c565b6102136103e1366004611d43565b61127c565b6102eb611318565b6102136103fc366004611e0a565b611327565b61021361040f366004611e0a565b611399565b610213610422366004611d93565b61143c565b61021d61153a565b61021361043d366004611d43565b611540565b61044a6115ae565b6001600160a01b031661045b611004565b6001600160a01b03161461048a5760405162461bcd60e51b81526004016104819061224b565b60405180910390fd5b4381116104a95760405162461bcd60e51b815260040161048190612011565b600182116104c95760405162461bcd60e51b8152600401610481906121d3565b600591909155600655565b60075490565b60018060008282546104ec919061249c565b909155505060015460078054600091908590811061051a57634e487b7160e01b600052603260045260246000fd5b600091825260208083208784526008825260408085206001600160a01b03808c168752935290932060038101546005909302909301935016156105835760038101546001600160a01b031633146105835760405162461bcd60e51b8152600401610481906122da565b81546001600160a01b03166105aa5760405162461bcd60e51b81526004016104819061235e565b6105b385610a09565b8054156105c4576105c486866115b2565b60038101546001600160a01b03166105eb576003810180546001600160a01b031916331790555b8154610602906001600160a01b0316333087611703565b805461060e908561175b565b80825560038301546106319164e8d4a510009161062b919061178a565b906117cf565b6001820155600482015481546106519164e8d4a510009161062b9161178a565b6002820155604051859033907f90890809c654f11d6e72a28fa60149770a0d11ec6c92319d6ceb2bb0a4ea1a159061068a90889061246f565b60405180910390a3505060015481146106b55760405162461bcd60e51b8152600401610481906123df565b50505050565b600781815481106106cb57600080fd5b6000918252602090912060059091020180546001820154600283015460038401546004909401546001600160a01b0390931694509092909185565b60095481565b60065481565b600061071c6115ae565b6001600160a01b031661072d611004565b6001600160a01b0316146107535760405162461bcd60e51b81526004016104819061224b565b506001600160a01b0382166000908152600b60205260409020805460ff191682151517905560015b92915050565b600080600784815481106107a557634e487b7160e01b600052603260045260246000fd5b600091825260208083208784526008825260408085206001600160a01b03808a16875293528085206003600590950290920193840154845491516370a0823160e01b815294965091949193919216906370a0823190610808903090600401611f0e565b60206040518083038186803b15801561082057600080fd5b505afa158015610834573d6000803e3d6000fd5b505050506040513d601f19601f820116820180604052508101906108589190611e22565b905083600201544311801561086c57508015155b156108d2576000610881856002015443611013565b905060006108ae60095461062b88600101546108a86004548761178a90919063ffffffff16565b9061178a565b90506108cd6108c68461062b8464e8d4a5100061178a565b859061175b565b935050505b61090083600101546108fa64e8d4a5100061062b86886000015461178a90919063ffffffff16565b906117fa565b979650505050505050565b4390565b336000908152600b602052604090205460ff1661093e5760405162461bcd60e51b81526004016104819061207f565b801561094c5761094c610db3565b61099d826109976007868154811061097457634e487b7160e01b600052603260045260246000fd5b9060005260206000209060050201600101546009546117fa90919063ffffffff16565b9061175b565b60098190555081600784815481106109c557634e487b7160e01b600052603260045260246000fd5b906000526020600020906005020160010181905550505050565b600b6020526000908152604090205460ff1681565b600a5481565b6002546001600160a01b031681565b600060078281548110610a2c57634e487b7160e01b600052603260045260246000fd5b9060005260206000209060050201905080600201544311610a4d5750610cfb565b80546040516370a0823160e01b81526000916001600160a01b0316906370a0823190610a7d903090600401611f0e565b60206040518083038186803b158015610a9557600080fd5b505afa158015610aa9573d6000803e3d6000fd5b505050506040513d601f19601f82011682018060405250810190610acd9190611e22565b905080610ae1575043600290910155610cfb565b6000610af1836002015443611013565b90506000610b1860095461062b86600101546108a86004548761178a90919063ffffffff16565b6002546003549192506001600160a01b03908116916340c10f199116610b44606461062b86601461178a565b6040518363ffffffff1660e01b8152600401610b61929190611f46565b602060405180830381600087803b158015610b7b57600080fd5b505af1158015610b8f573d6000803e3d6000fd5b505050506040513d601f19601f82011682018060405250810190610bb39190611dee565b506002546040516340c10f1960e01b81526001600160a01b03909116906340c10f1990610be69030908590600401611f46565b602060405180830381600087803b158015610c0057600080fd5b505af1158015610c14573d6000803e3d6000fd5b505050506040513d601f19601f82011682018060405250810190610c389190611dee565b50610c5a610c4f8461062b8464e8d4a5100061178a565b60038601549061175b565b60038501556006544311610c7357600384015460048501555b60065443118015610c8957506006548460020154105b15610ced576000610cc360095461062b87600101546108a86004546108a86005546108a88d600201546006546117fa90919063ffffffff16565b9050610ce6610cdb8561062b8464e8d4a5100061178a565b60048701549061175b565b6004860155505b438460020181905550505050505b50565b600060078281548110610d2157634e487b7160e01b600052603260045260246000fd5b600091825260208083208584526008825260408085203380875293528420805485825560018201959095556005909302018054909450919291610d71916001600160a01b03919091169083611826565b8154604051859133917fbb757047c2b5f3974fe26b7c10f732e7bce710b0952a71082702781e62ae059591610da59161246f565b60405180910390a350505050565b60075460005b81811015610dda57610dca81610a09565b610dd381612536565b9050610db9565b5050565b610de66115ae565b6001600160a01b0316610df7611004565b6001600160a01b031614610e1d5760405162461bcd60e51b81526004016104819061224b565b610e276000611845565b565b610e316115ae565b6001600160a01b0316610e42611004565b6001600160a01b031614610e685760405162461bcd60e51b81526004016104819061224b565b8015610e7657610e76610db3565b6001600160a01b038216610e9c5760405162461bcd60e51b8152600401610481906120e8565b610ea582611142565b15610ec25760405162461bcd60e51b815260040161048190612442565b6000600a544311610ed557600a54610ed7565b435b600954909150610ee7908561175b565b6009556040805160a0810182526001600160a01b039485168152602081019586529081019182526000606082018181526080830182815260078054600181018255935292517fa66cc928b5edb82af9bd49922954155ab7b0942694bea4ce44661d9a8736c688600590930292830180546001600160a01b031916919097161790955594517fa66cc928b5edb82af9bd49922954155ab7b0942694bea4ce44661d9a8736c68986015590517fa66cc928b5edb82af9bd49922954155ab7b0942694bea4ce44661d9a8736c68a85015591517fa66cc928b5edb82af9bd49922954155ab7b0942694bea4ce44661d9a8736c68b84015550517fa66cc928b5edb82af9bd49922954155ab7b0942694bea4ce44661d9a8736c68c90910155565b6000546001600160a01b031690565b6000818311156110355760405162461bcd60e51b8152600401610481906122ac565b60065482116110565760055461104f906108a884866117fa565b905061077b565b60065483106110695761104f82846117fa565b61109c611081600654846117fa90919063ffffffff16565b6109976005546108a8876006546117fa90919063ffffffff16565b9392505050565b60006110ad6115ae565b6001600160a01b03166110be611004565b6001600160a01b0316146110e45760405162461bcd60e51b81526004016104819061224b565b6110f86001600160a01b0384163384611826565b50600192915050565b60086020908152600092835260408084209091529082529020805460018201546002830154600390930154919290916001600160a01b031684565b60055481565b600754600090815b818110156111ba57836001600160a01b03166007828154811061117d57634e487b7160e01b600052603260045260246000fd5b60009182526020909120600590910201546001600160a01b031614156111a8576001925050506111c1565b806111b281612536565b91505061114a565b5060009150505b919050565b60018060008282546111d8919061249c565b90915550506001546111eb848484611895565b60015481146106b55760405162461bcd60e51b8152600401610481906123df565b600180600082825461121e919061249c565b909155505060015460008281526008602090815260408083206001600160a01b03871684529091529020546112569084908490611895565b60015481146112775760405162461bcd60e51b8152600401610481906123df565b505050565b6112846115ae565b6001600160a01b0316611295611004565b6001600160a01b0316146112bb5760405162461bcd60e51b81526004016104819061224b565b6001600160a01b0381166112ce57600080fd5b600380546001600160a01b0319166001600160a01b0383169081179091556040517ff5721dfa6ddbf8e4a2cd38b2152fff4008050b9b37de59ae1e022dde4bd5df7390600090a250565b6003546001600160a01b031681565b61132f6115ae565b6001600160a01b0316611340611004565b6001600160a01b0316146113665760405162461bcd60e51b81526004016104819061224b565b600481905560405181907f045c280c0ee21a223bf57ba9b47035cda586d0472889fcf81d6ecf95a72fbf6490600090a250565b6000600782815481106113bc57634e487b7160e01b600052603260045260246000fd5b600091825260208083208584526008825260408085203386529092529220600590910290910191506113ed83610a09565b6113f733846115b2565b600382015481546114129164e8d4a510009161062b9161178a565b6001820155600482015481546114329164e8d4a510009161062b9161178a565b6002909101555050565b6114446115ae565b6001600160a01b0316611455611004565b6001600160a01b03161461147b5760405162461bcd60e51b81526004016104819061224b565b6002546040516340c10f1960e01b81526001600160a01b03909116906340c10f19906114ad9085908590600401611f46565b602060405180830381600087803b1580156114c757600080fd5b505af11580156114db573d6000803e3d6000fd5b505050506040513d601f19601f820116820180604052508101906114ff9190611dee565b5060405181906001600160a01b038416907f5a513126cbc10dde78a9844543bd609b2c5b0f4169cecb81f0378f00fa2bdbf090600090a35050565b60045481565b6115486115ae565b6001600160a01b0316611559611004565b6001600160a01b03161461157f5760405162461bcd60e51b81526004016104819061224b565b6001600160a01b0381166115a55760405162461bcd60e51b815260040161048190611fcb565b610cfb81611845565b3390565b6000600782815481106115d557634e487b7160e01b600052603260045260246000fd5b600091825260208083208584526008825260408085206001600160a01b038916865290925292208054600590920290920192506116245760405162461bcd60e51b815260040161048190612416565b600061165282600101546108fa64e8d4a5100061062b8760030154876000015461178a90919063ffffffff16565b6002546040516370a0823160e01b81529192506001600160a01b0316906370a0823190611683903090600401611f0e565b60206040518083038186803b15801561169b57600080fd5b505afa1580156116af573d6000803e3d6000fd5b505050506040513d601f19601f820116820180604052508101906116d39190611e22565b8111156116f25760405162461bcd60e51b815260040161048190612280565b6116fc85826119f9565b5050505050565b6106b5846323b872dd60e01b85858560405160240161172493929190611f22565b60408051601f198184030181529190526020810180516001600160e01b03166001600160e01b031990931692909217909152611b92565b600080611768838561249c565b90508381101561109c5760405162461bcd60e51b815260040161048190612048565b6000826117995750600061077b565b60006117a583856124d4565b9050826117b285836124b4565b1461109c5760405162461bcd60e51b81526004016104819061220a565b60008082116117f05760405162461bcd60e51b81526004016104819061219c565b61109c82846124b4565b60008282111561181c5760405162461bcd60e51b81526004016104819061211f565b61109c82846124f3565b6112778363a9059cbb60e01b8484604051602401611724929190611f46565b600080546001600160a01b038381166001600160a01b0319831681178455604051919092169283917f8be0079c531659141344cd1fd0a4f28419497f9722a3daafe3b4186f6b6457e09190a35050565b6000600783815481106118b857634e487b7160e01b600052603260045260246000fd5b600091825260208083208684526008825260408085206001600160a01b03808b168752935290932060038101546005909302909301935016331461190e5760405162461bcd60e51b8152600401610481906120c3565b805483111561192f5760405162461bcd60e51b815260040161048190612332565b61193884610a09565b61194285856115b2565b805461194e90846117fa565b808255600383015461196b9164e8d4a510009161062b919061178a565b60018201556004820154815461198b9164e8d4a510009161062b9161178a565b600282015581546001600160a01b0316156119b65781546119b6906001600160a01b03163385611826565b8054604051859133917ff279e6a1f5e320cca91135676d9cb6e44ca8a08c0b88342bcdb1144f6511b568916119ea9161246f565b60405180910390a35050505050565b6002546040516370a0823160e01b81526000916001600160a01b0316906370a0823190611a2a903090600401611f0e565b60206040518083038186803b158015611a4257600080fd5b505afa158015611a56573d6000803e3d6000fd5b505050506040513d601f19601f82011682018060405250810190611a7a9190611e22565b905080821115611b0e5760025460405163a9059cbb60e01b81526001600160a01b039091169063a9059cbb90611ab69086908590600401611f46565b602060405180830381600087803b158015611ad057600080fd5b505af1158015611ae4573d6000803e3d6000fd5b505050506040513d601f19601f82011682018060405250810190611b089190611dee565b50611277565b60025460405163a9059cbb60e01b81526001600160a01b039091169063a9059cbb90611b409086908690600401611f46565b602060405180830381600087803b158015611b5a57600080fd5b505af1158015611b6e573d6000803e3d6000fd5b505050506040513d601f19601f820116820180604052508101906106b59190611dee565b6000611be7826040518060400160405280602081526020017f5361666545524332303a206c6f772d6c6576656c2063616c6c206661696c6564815250856001600160a01b0316611c219092919063ffffffff16565b8051909150156112775780806020019051810190611c059190611dee565b6112775760405162461bcd60e51b815260040161048190612395565b6060611c308484600085611c38565b949350505050565b606082471015611c5a5760405162461bcd60e51b815260040161048190612156565b611c6385611ced565b611c7f5760405162461bcd60e51b8152600401610481906122fb565b600080866001600160a01b03168587604051611c9b9190611ef2565b60006040518083038185875af1925050503d8060008114611cd8576040519150601f19603f3d011682016040523d82523d6000602084013e611cdd565b606091505b5091509150610900828286611cf3565b3b151590565b60608315611d0257508161109c565b825115611d125782518084602001fd5b8160405162461bcd60e51b81526004016104819190611f98565b80356001600160a01b03811681146111c157600080fd5b600060208284031215611d54578081fd5b61109c82611d2c565b60008060408385031215611d6f578081fd5b611d7883611d2c565b91506020830135611d8881612567565b809150509250929050565b60008060408385031215611da5578182fd5b611dae83611d2c565b946020939093013593505050565b600080600060608486031215611dd0578081fd5b611dd984611d2c565b95602085013595506040909401359392505050565b600060208284031215611dff578081fd5b815161109c81612567565b600060208284031215611e1b578081fd5b5035919050565b600060208284031215611e33578081fd5b5051919050565b60008060408385031215611e4c578182fd5b82359150611e5c60208401611d2c565b90509250929050565b600080600060608486031215611e79578283fd5b83359250611e8960208501611d2c565b91506040840135611e9981612567565b809150509250925092565b60008060408385031215611eb6578182fd5b50508035926020909101359150565b600080600060608486031215611ed9578283fd5b83359250602084013591506040840135611e9981612567565b60008251611f0481846020870161250a565b9190910192915050565b6001600160a01b0391909116815260200190565b6001600160a01b039384168152919092166020820152604081019190915260600190565b6001600160a01b03929092168252602082015260400190565b6001600160a01b03959095168552602085019390935260408401919091526060830152608082015260a00190565b901515815260200190565b6000602082528251806020840152611fb781604085016020870161250a565b601f01601f19169190910160400192915050565b60208082526026908201527f4f776e61626c653a206e6577206f776e657220697320746865207a65726f206160408201526564647265737360d01b606082015260800190565b6020808252601b908201527f736574426f6e75733a2062616420626f6e7573456e64426c6f636b0000000000604082015260600190565b6020808252601b908201527f536166654d6174683a206164646974696f6e206f766572666c6f770000000000604082015260600190565b60208082526024908201527f6578656375746f723a2063616c6c6572206973206e6f742074686520657865636040820152633aba37b960e11b606082015260800190565b6020808252600b908201526a37b7363c90333ab73232b960a91b604082015260600190565b60208082526018908201527f6164643a206e6f74207374616b65546f6b656e20616464720000000000000000604082015260600190565b6020808252601e908201527f536166654d6174683a207375627472616374696f6e206f766572666c6f770000604082015260600190565b60208082526026908201527f416464726573733a20696e73756666696369656e742062616c616e636520666f6040820152651c8818d85b1b60d21b606082015260800190565b6020808252601a908201527f536166654d6174683a206469766973696f6e206279207a65726f000000000000604082015260600190565b6020808252601d908201527f736574426f6e75733a2062616420626f6e75734d756c7469706c696572000000604082015260600190565b60208082526021908201527f536166654d6174683a206d756c7469706c69636174696f6e206f766572666c6f6040820152607760f81b606082015260800190565b6020808252818101527f4f776e61626c653a2063616c6c6572206973206e6f7420746865206f776e6572604082015260600190565b602080825260129082015271777466206e6f7420656e6f7567682053656160701b604082015260600190565b602080825260149082015273109b1bd8dac81c985b99d948195e18d95959195960621b604082015260600190565b6020808252600790820152663130b21039b7b360c91b604082015260600190565b6020808252601d908201527f416464726573733a2063616c6c20746f206e6f6e2d636f6e7472616374000000604082015260600190565b6020808252601290820152711dda5d1a191c985dce881b9bdd0819dbdbd960721b604082015260600190565b6020808252601b908201527f6465706f7369743a206e6f7420616363657074206465706f7369740000000000604082015260600190565b6020808252602a908201527f5361666545524332303a204552433230206f7065726174696f6e20646964206e6040820152691bdd081cdd58d8d9595960b21b606082015260800190565b6020808252601f908201527f5265656e7472616e637947756172643a207265656e7472616e742063616c6c00604082015260600190565b6020808252601290820152711b9bdd1a1a5b99c81d1bc81a185c9d995cdd60721b604082015260600190565b60208082526013908201527206164643a207374616b65546f6b656e2064757606c1b604082015260600190565b90815260200190565b938452602084019290925260408301526001600160a01b0316606082015260800190565b600082198211156124af576124af612551565b500190565b6000826124cf57634e487b7160e01b81526012600452602481fd5b500490565b60008160001904831182151516156124ee576124ee612551565b500290565b60008282101561250557612505612551565b500390565b60005b8381101561252557818101518382015260200161250d565b838111156106b55750506000910152565b600060001982141561254a5761254a612551565b5060010190565b634e487b7160e01b600052601160045260246000fd5b8015158114610cfb57600080fdfea26469706673582212202bada4cc4e25cda83b4be18a962ce1dcb2aa39a809f4f9592e4c40890d3465ba64736f6c63430008000033",
  "linkReferences": {},
  "deployedLinkReferences": {}
}