{
	"contracts/mirrorseaMain.sol": {
		"mirrorseaMain": {
			"abi": [
				{
					"anonymous": false,
					"inputs": [
						{
							"indexed": true,
							"internalType": "address",
							"name": "previousOwner",
							"type": "address"
						},
						{
							"indexed": true,
							"internalType": "address",
							"name": "newOwner",
							"type": "address"
						}
					],
					"name": "OwnershipTransferred",
					"type": "event"
				},
				{
					"inputs": [],
					"name": "OrderIndex",
					"outputs": [
						{
							"internalType": "uint256",
							"name": "",
							"type": "uint256"
						}
					],
					"stateMutability": "view",
					"type": "function"
				},
				{
					"inputs": [],
					"name": "PRECISION",
					"outputs": [
						{
							"internalType": "uint256",
							"name": "",
							"type": "uint256"
						}
					],
					"stateMutability": "view",
					"type": "function"
				},
				{
					"inputs": [
						{
							"internalType": "bool",
							"name": "_marketState",
							"type": "bool"
						},
						{
							"internalType": "uint256",
							"name": "_id",
							"type": "uint256"
						},
						{
							"internalType": "uint256",
							"name": "_timestamp",
							"type": "uint256"
						},
						{
							"internalType": "string",
							"name": "_symbols",
							"type": "string"
						},
						{
							"internalType": "uint256",
							"name": "_price18",
							"type": "uint256"
						},
						{
							"internalType": "bytes",
							"name": "_signature",
							"type": "bytes"
						},
						{
							"internalType": "uint256",
							"name": "_adjustMargin",
							"type": "uint256"
						}
					],
					"name": "adjustPosition",
					"outputs": [
						{
							"internalType": "bool",
							"name": "",
							"type": "bool"
						}
					],
					"stateMutability": "nonpayable",
					"type": "function"
				},
				{
					"inputs": [
						{
							"internalType": "bool",
							"name": "_marketState",
							"type": "bool"
						},
						{
							"internalType": "uint256",
							"name": "_id",
							"type": "uint256"
						},
						{
							"internalType": "uint256",
							"name": "_timestamp",
							"type": "uint256"
						},
						{
							"internalType": "string",
							"name": "_symbols",
							"type": "string"
						},
						{
							"internalType": "uint256",
							"name": "_price18",
							"type": "uint256"
						},
						{
							"internalType": "bytes",
							"name": "_signature",
							"type": "bytes"
						}
					],
					"name": "closePosition",
					"outputs": [
						{
							"internalType": "bool",
							"name": "",
							"type": "bool"
						}
					],
					"stateMutability": "nonpayable",
					"type": "function"
				},
				{
					"inputs": [
						{
							"internalType": "address",
							"name": "",
							"type": "address"
						}
					],
					"name": "executor",
					"outputs": [
						{
							"internalType": "bool",
							"name": "",
							"type": "bool"
						}
					],
					"stateMutability": "view",
					"type": "function"
				},
				{
					"inputs": [],
					"name": "feePercent",
					"outputs": [
						{
							"internalType": "uint256",
							"name": "",
							"type": "uint256"
						}
					],
					"stateMutability": "view",
					"type": "function"
				},
				{
					"inputs": [
						{
							"internalType": "bool",
							"name": "_marketState",
							"type": "bool"
						},
						{
							"internalType": "uint256",
							"name": "_id",
							"type": "uint256"
						},
						{
							"internalType": "uint256",
							"name": "_timestamp",
							"type": "uint256"
						},
						{
							"internalType": "string",
							"name": "_symbols",
							"type": "string"
						},
						{
							"internalType": "uint256",
							"name": "_price18",
							"type": "uint256"
						},
						{
							"internalType": "bytes",
							"name": "_signature",
							"type": "bytes"
						}
					],
					"name": "forcedLiquidation",
					"outputs": [
						{
							"internalType": "bool",
							"name": "",
							"type": "bool"
						}
					],
					"stateMutability": "nonpayable",
					"type": "function"
				},
				{
					"inputs": [],
					"name": "helperLogic",
					"outputs": [
						{
							"internalType": "contract IhelperLogic",
							"name": "",
							"type": "address"
						}
					],
					"stateMutability": "view",
					"type": "function"
				},
				{
					"inputs": [
						{
							"internalType": "address",
							"name": "_signer",
							"type": "address"
						},
						{
							"internalType": "contract IhelperLogic",
							"name": "_helperLogic",
							"type": "address"
						},
						{
							"internalType": "contract IERC20Upgradeable",
							"name": "_usc",
							"type": "address"
						},
						{
							"internalType": "contract IOracle",
							"name": "_oracle",
							"type": "address"
						}
					],
					"name": "initialize",
					"outputs": [],
					"stateMutability": "nonpayable",
					"type": "function"
				},
				{
					"inputs": [
						{
							"internalType": "bool",
							"name": "_marketState",
							"type": "bool"
						},
						{
							"internalType": "uint256[]",
							"name": "_id",
							"type": "uint256[]"
						},
						{
							"internalType": "uint256[]",
							"name": "_timestamp",
							"type": "uint256[]"
						},
						{
							"internalType": "string[]",
							"name": "_symbols",
							"type": "string[]"
						},
						{
							"internalType": "uint256[]",
							"name": "_price18",
							"type": "uint256[]"
						},
						{
							"internalType": "bytes[]",
							"name": "_signature",
							"type": "bytes[]"
						}
					],
					"name": "liquidation",
					"outputs": [
						{
							"internalType": "bool",
							"name": "",
							"type": "bool"
						}
					],
					"stateMutability": "nonpayable",
					"type": "function"
				},
				{
					"inputs": [],
					"name": "minVal",
					"outputs": [
						{
							"internalType": "uint256",
							"name": "",
							"type": "uint256"
						}
					],
					"stateMutability": "view",
					"type": "function"
				},
				{
					"inputs": [
						{
							"internalType": "address",
							"name": "",
							"type": "address"
						},
						{
							"internalType": "uint256",
							"name": "",
							"type": "uint256"
						}
					],
					"name": "myCloseOrderIdList",
					"outputs": [
						{
							"internalType": "uint256",
							"name": "",
							"type": "uint256"
						}
					],
					"stateMutability": "view",
					"type": "function"
				},
				{
					"inputs": [
						{
							"internalType": "address",
							"name": "_user",
							"type": "address"
						}
					],
					"name": "myCloseOrderIdListLength",
					"outputs": [
						{
							"internalType": "uint256",
							"name": "",
							"type": "uint256"
						}
					],
					"stateMutability": "view",
					"type": "function"
				},
				{
					"inputs": [
						{
							"internalType": "address",
							"name": "",
							"type": "address"
						},
						{
							"internalType": "uint256",
							"name": "",
							"type": "uint256"
						}
					],
					"name": "myCloseOrderIdList_index",
					"outputs": [
						{
							"internalType": "uint256",
							"name": "",
							"type": "uint256"
						}
					],
					"stateMutability": "view",
					"type": "function"
				},
				{
					"inputs": [
						{
							"internalType": "address",
							"name": "",
							"type": "address"
						},
						{
							"internalType": "uint256",
							"name": "",
							"type": "uint256"
						}
					],
					"name": "myOpenOrderIdList",
					"outputs": [
						{
							"internalType": "uint256",
							"name": "",
							"type": "uint256"
						}
					],
					"stateMutability": "view",
					"type": "function"
				},
				{
					"inputs": [
						{
							"internalType": "address",
							"name": "_user",
							"type": "address"
						}
					],
					"name": "myOpenOrderIdListLength",
					"outputs": [
						{
							"internalType": "uint256",
							"name": "",
							"type": "uint256"
						}
					],
					"stateMutability": "view",
					"type": "function"
				},
				{
					"inputs": [
						{
							"internalType": "address",
							"name": "",
							"type": "address"
						},
						{
							"internalType": "uint256",
							"name": "",
							"type": "uint256"
						}
					],
					"name": "myOpenOrderIdList_index",
					"outputs": [
						{
							"internalType": "uint256",
							"name": "",
							"type": "uint256"
						}
					],
					"stateMutability": "view",
					"type": "function"
				},
				{
					"inputs": [
						{
							"internalType": "uint256",
							"name": "",
							"type": "uint256"
						}
					],
					"name": "openOrderIdList",
					"outputs": [
						{
							"internalType": "uint256",
							"name": "",
							"type": "uint256"
						}
					],
					"stateMutability": "view",
					"type": "function"
				},
				{
					"inputs": [
						{
							"internalType": "uint256",
							"name": "",
							"type": "uint256"
						}
					],
					"name": "openOrderIdList_index",
					"outputs": [
						{
							"internalType": "uint256",
							"name": "",
							"type": "uint256"
						}
					],
					"stateMutability": "view",
					"type": "function"
				},
				{
					"inputs": [
						{
							"internalType": "bool",
							"name": "_marketState",
							"type": "bool"
						},
						{
							"internalType": "uint256",
							"name": "_margin",
							"type": "uint256"
						},
						{
							"internalType": "uint256",
							"name": "_timestamp",
							"type": "uint256"
						},
						{
							"internalType": "uint256",
							"name": "_direction",
							"type": "uint256"
						},
						{
							"internalType": "uint256",
							"name": "_type",
							"type": "uint256"
						},
						{
							"internalType": "string",
							"name": "_symbols",
							"type": "string"
						},
						{
							"internalType": "uint256",
							"name": "_price18",
							"type": "uint256"
						},
						{
							"internalType": "uint256",
							"name": "_amt",
							"type": "uint256"
						},
						{
							"internalType": "bytes",
							"name": "_signature",
							"type": "bytes"
						}
					],
					"name": "openPosition",
					"outputs": [
						{
							"internalType": "bool",
							"name": "",
							"type": "bool"
						}
					],
					"stateMutability": "nonpayable",
					"type": "function"
				},
				{
					"inputs": [],
					"name": "oracle",
					"outputs": [
						{
							"internalType": "contract IOracle",
							"name": "",
							"type": "address"
						}
					],
					"stateMutability": "view",
					"type": "function"
				},
				{
					"inputs": [
						{
							"internalType": "uint256",
							"name": "_id",
							"type": "uint256"
						}
					],
					"name": "orderInfo",
					"outputs": [
						{
							"components": [
								{
									"internalType": "address",
									"name": "user",
									"type": "address"
								},
								{
									"internalType": "uint256",
									"name": "_type",
									"type": "uint256"
								},
								{
									"internalType": "string",
									"name": "symbols",
									"type": "string"
								},
								{
									"internalType": "uint256",
									"name": "state",
									"type": "uint256"
								},
								{
									"internalType": "uint256",
									"name": "direction",
									"type": "uint256"
								},
								{
									"internalType": "uint256",
									"name": "openPrice18",
									"type": "uint256"
								},
								{
									"internalType": "uint256",
									"name": "openTime",
									"type": "uint256"
								},
								{
									"internalType": "uint256",
									"name": "closePrice18",
									"type": "uint256"
								},
								{
									"internalType": "uint256",
									"name": "closeTime",
									"type": "uint256"
								},
								{
									"internalType": "uint256",
									"name": "amt",
									"type": "uint256"
								},
								{
									"internalType": "uint256",
									"name": "margin",
									"type": "uint256"
								}
							],
							"internalType": "struct mirrorseaMain.OrderInfo",
							"name": "",
							"type": "tuple"
						}
					],
					"stateMutability": "view",
					"type": "function"
				},
				{
					"inputs": [],
					"name": "owner",
					"outputs": [
						{
							"internalType": "address",
							"name": "",
							"type": "address"
						}
					],
					"stateMutability": "view",
					"type": "function"
				},
				{
					"inputs": [
						{
							"internalType": "address",
							"name": "_user",
							"type": "address"
						},
						{
							"internalType": "uint256",
							"name": "_type",
							"type": "uint256"
						},
						{
							"internalType": "uint256",
							"name": "_row",
							"type": "uint256"
						},
						{
							"internalType": "uint256",
							"name": "_page",
							"type": "uint256"
						}
					],
					"name": "pagination",
					"outputs": [
						{
							"internalType": "uint256[]",
							"name": "",
							"type": "uint256[]"
						}
					],
					"stateMutability": "view",
					"type": "function"
				},
				{
					"inputs": [],
					"name": "renounceOwnership",
					"outputs": [],
					"stateMutability": "nonpayable",
					"type": "function"
				},
				{
					"inputs": [
						{
							"internalType": "address",
							"name": "_address",
							"type": "address"
						},
						{
							"internalType": "bool",
							"name": "_type",
							"type": "bool"
						}
					],
					"name": "setExecutor",
					"outputs": [
						{
							"internalType": "bool",
							"name": "",
							"type": "bool"
						}
					],
					"stateMutability": "nonpayable",
					"type": "function"
				},
				{
					"inputs": [
						{
							"internalType": "uint256",
							"name": "_val",
							"type": "uint256"
						}
					],
					"name": "setFeePercent",
					"outputs": [
						{
							"internalType": "bool",
							"name": "",
							"type": "bool"
						}
					],
					"stateMutability": "nonpayable",
					"type": "function"
				},
				{
					"inputs": [
						{
							"internalType": "uint256",
							"name": "id",
							"type": "uint256"
						},
						{
							"internalType": "address",
							"name": "user",
							"type": "address"
						},
						{
							"internalType": "uint256",
							"name": "_type",
							"type": "uint256"
						},
						{
							"internalType": "string",
							"name": "symbols",
							"type": "string"
						},
						{
							"internalType": "uint256",
							"name": "state",
							"type": "uint256"
						},
						{
							"internalType": "uint256",
							"name": "direction",
							"type": "uint256"
						},
						{
							"internalType": "uint256",
							"name": "openPrice18",
							"type": "uint256"
						},
						{
							"internalType": "uint256",
							"name": "openTime",
							"type": "uint256"
						},
						{
							"internalType": "uint256",
							"name": "closePrice18",
							"type": "uint256"
						},
						{
							"internalType": "uint256",
							"name": "closeTime",
							"type": "uint256"
						},
						{
							"internalType": "uint256",
							"name": "amt",
							"type": "uint256"
						},
						{
							"internalType": "uint256",
							"name": "margin",
							"type": "uint256"
						}
					],
					"name": "setOrderInfo",
					"outputs": [
						{
							"internalType": "bool",
							"name": "",
							"type": "bool"
						}
					],
					"stateMutability": "nonpayable",
					"type": "function"
				},
				{
					"inputs": [
						{
							"internalType": "address",
							"name": "_address",
							"type": "address"
						}
					],
					"name": "setSigner",
					"outputs": [
						{
							"internalType": "bool",
							"name": "",
							"type": "bool"
						}
					],
					"stateMutability": "nonpayable",
					"type": "function"
				},
				{
					"inputs": [
						{
							"internalType": "address",
							"name": "user",
							"type": "address"
						},
						{
							"internalType": "uint256",
							"name": "number",
							"type": "uint256"
						},
						{
							"internalType": "uint256",
							"name": "_val",
							"type": "uint256"
						}
					],
					"name": "setmyOpenOrderIdList_index",
					"outputs": [],
					"stateMutability": "nonpayable",
					"type": "function"
				},
				{
					"inputs": [],
					"name": "signer",
					"outputs": [
						{
							"internalType": "address",
							"name": "",
							"type": "address"
						}
					],
					"stateMutability": "view",
					"type": "function"
				},
				{
					"inputs": [
						{
							"internalType": "address",
							"name": "newOwner",
							"type": "address"
						}
					],
					"name": "transferOwnership",
					"outputs": [],
					"stateMutability": "nonpayable",
					"type": "function"
				},
				{
					"inputs": [],
					"name": "usc",
					"outputs": [
						{
							"internalType": "contract IERC20Upgradeable",
							"name": "",
							"type": "address"
						}
					],
					"stateMutability": "view",
					"type": "function"
				}
			],
			"devdoc": {
				"kind": "dev",
				"methods": {
					"owner()": {
						"details": "Returns the address of the current owner."
					},
					"renounceOwnership()": {
						"details": "Leaves the contract without owner. It will not be possible to call `onlyOwner` functions anymore. Can only be called by the current owner. NOTE: Renouncing ownership will leave the contract without an owner, thereby removing any functionality that is only available to the owner."
					},
					"transferOwnership(address)": {
						"details": "Transfers ownership of the contract to a new account (`newOwner`). Can only be called by the current owner."
					}
				},
				"version": 1
			},
			"evm": {
				"assembly": "    /* \"contracts/mirrorseaMain.sol\":910:17044  contract mirrorseaMain is Initializable, OwnableUpgradeable {... */\n  mstore(0x40, 0x80)\n  callvalue\n  dup1\n  iszero\n  tag_1\n  jumpi\n  0x00\n  dup1\n  revert\ntag_1:\n  pop\n  dataSize(sub_0)\n  dup1\n  dataOffset(sub_0)\n  0x00\n  codecopy\n  0x00\n  return\nstop\n\nsub_0: assembly {\n        /* \"contracts/mirrorseaMain.sol\":910:17044  contract mirrorseaMain is Initializable, OwnableUpgradeable {... */\n      mstore(0x40, 0x80)\n      callvalue\n      dup1\n      iszero\n      tag_1\n      jumpi\n      0x00\n      dup1\n      revert\n    tag_1:\n      pop\n      jumpi(tag_2, lt(calldatasize, 0x04))\n      shr(0xe0, calldataload(0x00))\n      dup1\n      0x7dc0d1d0\n      gt\n      tag_36\n      jumpi\n      dup1\n      0xdb4a5aa9\n      gt\n      tag_37\n      jumpi\n      dup1\n      0xf14053ad\n      gt\n      tag_38\n      jumpi\n      dup1\n      0xf14053ad\n      eq\n      tag_31\n      jumpi\n      dup1\n      0xf2fde38b\n      eq\n      tag_32\n      jumpi\n      dup1\n      0xf7ab69fd\n      eq\n      tag_33\n      jumpi\n      dup1\n      0xf8c8765e\n      eq\n      tag_34\n      jumpi\n      dup1\n      0xfc234d06\n      eq\n      tag_35\n      jumpi\n      jump(tag_2)\n    tag_38:\n      dup1\n      0xdb4a5aa9\n      eq\n      tag_27\n      jumpi\n      dup1\n      0xe4e95520\n      eq\n      tag_28\n      jumpi\n      dup1\n      0xec4c4f34\n      eq\n      tag_29\n      jumpi\n      dup1\n      0xf0c765e4\n      eq\n      tag_30\n      jumpi\n      jump(tag_2)\n    tag_37:\n      dup1\n      0xa8ecb028\n      gt\n      tag_39\n      jumpi\n      dup1\n      0xa8ecb028\n      eq\n      tag_23\n      jumpi\n      dup1\n      0xaaf5eb68\n      eq\n      tag_24\n      jumpi\n      dup1\n      0xaecf77b1\n      eq\n      tag_25\n      jumpi\n      dup1\n      0xc2ec527d\n      eq\n      tag_26\n      jumpi\n      jump(tag_2)\n    tag_39:\n      dup1\n      0x7dc0d1d0\n      eq\n      tag_19\n      jumpi\n      dup1\n      0x7fd6f15c\n      eq\n      tag_20\n      jumpi\n      dup1\n      0x8da5cb5b\n      eq\n      tag_21\n      jumpi\n      dup1\n      0xa0ad12e2\n      eq\n      tag_22\n      jumpi\n      jump(tag_2)\n    tag_36:\n      dup1\n      0x48c7e528\n      gt\n      tag_40\n      jumpi\n      dup1\n      0x6e812437\n      gt\n      tag_41\n      jumpi\n      dup1\n      0x6e812437\n      eq\n      tag_15\n      jumpi\n      dup1\n      0x715018a6\n      eq\n      tag_16\n      jumpi\n      dup1\n      0x7be3a1a1\n      eq\n      tag_17\n      jumpi\n      dup1\n      0x7ce3489b\n      eq\n      tag_18\n      jumpi\n      jump(tag_2)\n    tag_41:\n      dup1\n      0x48c7e528\n      eq\n      tag_11\n      jumpi\n      dup1\n      0x4b989ce3\n      eq\n      tag_12\n      jumpi\n      dup1\n      0x6ab34a4a\n      eq\n      tag_13\n      jumpi\n      dup1\n      0x6c19e783\n      eq\n      tag_14\n      jumpi\n      jump(tag_2)\n    tag_40:\n      dup1\n      0x1e64610c\n      gt\n      tag_42\n      jumpi\n      dup1\n      0x1e64610c\n      eq\n      tag_7\n      jumpi\n      dup1\n      0x238ac933\n      eq\n      tag_8\n      jumpi\n      dup1\n      0x3011d3d5\n      eq\n      tag_9\n      jumpi\n      dup1\n      0x43b1f3cb\n      eq\n      tag_10\n      jumpi\n      jump(tag_2)\n    tag_42:\n      dup1\n      0x080270a8\n      eq\n      tag_3\n      jumpi\n      dup1\n      0x0f58d242\n      eq\n      tag_4\n      jumpi\n      dup1\n      0x1402573d\n      eq\n      tag_5\n      jumpi\n      dup1\n      0x1e1bff3f\n      eq\n      tag_6\n      jumpi\n    tag_2:\n      0x00\n      dup1\n      revert\n        /* \"contracts/mirrorseaMain.sol\":4502:5775  function pagination(... */\n    tag_3:\n      tag_43\n      tag_44\n      calldatasize\n      0x04\n      tag_45\n      jump\t// in\n    tag_44:\n      tag_46\n      jump\t// in\n    tag_43:\n      mload(0x40)\n      tag_47\n      swap2\n      swap1\n      tag_48\n      jump\t// in\n    tag_47:\n      mload(0x40)\n      dup1\n      swap2\n      sub\n      swap1\n      return\n        /* \"contracts/mirrorseaMain.sol\":1347:1379  uint256[] public openOrderIdList */\n    tag_4:\n      tag_49\n      tag_50\n      calldatasize\n      0x04\n      tag_51\n      jump\t// in\n    tag_50:\n      tag_52\n      jump\t// in\n    tag_49:\n      mload(0x40)\n      tag_47\n      swap2\n      swap1\n      tag_54\n      jump\t// in\n        /* \"contracts/mirrorseaMain.sol\":16864:17042  function setmyOpenOrderIdList_index(... */\n    tag_5:\n      tag_55\n      tag_56\n      calldatasize\n      0x04\n      tag_57\n      jump\t// in\n    tag_56:\n      tag_58\n      jump\t// in\n    tag_55:\n      stop\n        /* \"contracts/mirrorseaMain.sol\":2999:3176  function setExecutor(address _address, bool _type)... */\n    tag_6:\n      tag_59\n      tag_60\n      calldatasize\n      0x04\n      tag_61\n      jump\t// in\n    tag_60:\n      tag_62\n      jump\t// in\n    tag_59:\n      mload(0x40)\n      tag_47\n      swap2\n      swap1\n      tag_64\n      jump\t// in\n        /* \"contracts/mirrorseaMain.sol\":1196:1227  IhelperLogic public helperLogic */\n    tag_7:\n      tag_65\n      tag_66\n      jump\t// in\n    tag_65:\n      mload(0x40)\n      tag_47\n      swap2\n      swap1\n      tag_72\n      jump\t// in\n        /* \"contracts/mirrorseaMain.sol\":1135:1156  address public signer */\n    tag_8:\n      tag_65\n      tag_70\n      jump\t// in\n        /* \"contracts/mirrorseaMain.sol\":1162:1190  IERC20Upgradeable public usc */\n    tag_9:\n      tag_65\n      tag_74\n      jump\t// in\n        /* \"contracts/mirrorseaMain.sol\":1385:1441  mapping(uint256 => uint256) public openOrderIdList_index */\n    tag_10:\n      tag_49\n      tag_78\n      calldatasize\n      0x04\n      tag_51\n      jump\t// in\n    tag_78:\n      tag_79\n      jump\t// in\n        /* \"contracts/mirrorseaMain.sol\":1089:1129  mapping(address => bool) public executor */\n    tag_11:\n      tag_59\n      tag_82\n      calldatasize\n      0x04\n      tag_83\n      jump\t// in\n    tag_82:\n      tag_84\n      jump\t// in\n        /* \"contracts/mirrorseaMain.sol\":12377:13228  function liquidation(... */\n    tag_12:\n      tag_59\n      tag_87\n      calldatasize\n      0x04\n      tag_88\n      jump\t// in\n    tag_87:\n      tag_89\n      jump\t// in\n        /* \"contracts/mirrorseaMain.sol\":3603:3715  function orderInfo(uint256 _id) external view returns (OrderInfo memory) {... */\n    tag_13:\n      tag_91\n      tag_92\n      calldatasize\n      0x04\n      tag_51\n      jump\t// in\n    tag_92:\n      tag_93\n      jump\t// in\n    tag_91:\n      mload(0x40)\n      tag_47\n      swap2\n      swap1\n      tag_95\n      jump\t// in\n        /* \"contracts/mirrorseaMain.sol\":3471:3597  function setSigner(address _address) external onlyOwner returns (bool) {... */\n    tag_14:\n      tag_59\n      tag_97\n      calldatasize\n      0x04\n      tag_83\n      jump\t// in\n    tag_97:\n      tag_98\n      jump\t// in\n        /* \"contracts/mirrorseaMain.sol\":11393:11985  function closePosition(... */\n    tag_15:\n      tag_59\n      tag_101\n      calldatasize\n      0x04\n      tag_102\n      jump\t// in\n    tag_101:\n      tag_103\n      jump\t// in\n        /* \"@openzeppelin/contracts-upgradeable/access/OwnableUpgradeable.sol\":1934:2035  function renounceOwnership() public virtual onlyOwner {... */\n    tag_16:\n      tag_55\n      tag_106\n      jump\t// in\n        /* \"contracts/mirrorseaMain.sol\":1508:1594  mapping(address => mapping(uint256 => uint256))... */\n    tag_17:\n      tag_49\n      tag_108\n      calldatasize\n      0x04\n      tag_109\n      jump\t// in\n    tag_108:\n      tag_110\n      jump\t// in\n        /* \"contracts/mirrorseaMain.sol\":3326:3452  function setFeePercent(uint256 _val) external onlyOwner returns (bool) {... */\n    tag_18:\n      tag_59\n      tag_113\n      calldatasize\n      0x04\n      tag_51\n      jump\t// in\n    tag_113:\n      tag_114\n      jump\t// in\n        /* \"contracts/mirrorseaMain.sol\":1233:1254  IOracle public oracle */\n    tag_19:\n      tag_65\n      tag_117\n      jump\t// in\n        /* \"contracts/mirrorseaMain.sol\":1756:1781  uint256 public feePercent */\n    tag_20:\n      tag_49\n      tag_121\n      jump\t// in\n        /* \"@openzeppelin/contracts-upgradeable/access/OwnableUpgradeable.sol\":1302:1387  function owner() public view virtual returns (address) {... */\n    tag_21:\n      tag_65\n      tag_124\n      jump\t// in\n        /* \"contracts/mirrorseaMain.sol\":13234:13787  function forcedLiquidation(... */\n    tag_22:\n      tag_59\n      tag_127\n      calldatasize\n      0x04\n      tag_102\n      jump\t// in\n    tag_127:\n      tag_128\n      jump\t// in\n        /* \"contracts/mirrorseaMain.sol\":15120:16858  function adjustPosition(... */\n    tag_23:\n      tag_59\n      tag_131\n      calldatasize\n      0x04\n      tag_132\n      jump\t// in\n    tag_131:\n      tag_133\n      jump\t// in\n        /* \"contracts/mirrorseaMain.sol\":1787:1811  uint256 public PRECISION */\n    tag_24:\n      tag_49\n      tag_136\n      jump\t// in\n        /* \"contracts/mirrorseaMain.sol\":2830:2993  function myCloseOrderIdListLength(address _user)... */\n    tag_25:\n      tag_49\n      tag_139\n      calldatasize\n      0x04\n      tag_83\n      jump\t// in\n    tag_139:\n      tag_140\n      jump\t// in\n        /* \"contracts/mirrorseaMain.sol\":1448:1502  mapping(address => uint256[]) public myOpenOrderIdList */\n    tag_26:\n      tag_49\n      tag_143\n      calldatasize\n      0x04\n      tag_109\n      jump\t// in\n    tag_143:\n      tag_144\n      jump\t// in\n        /* \"contracts/mirrorseaMain.sol\":5781:7670  function openPosition(... */\n    tag_27:\n      tag_59\n      tag_147\n      calldatasize\n      0x04\n      tag_148\n      jump\t// in\n    tag_147:\n      tag_149\n      jump\t// in\n        /* \"contracts/mirrorseaMain.sol\":2663:2824  function myOpenOrderIdListLength(address _user)... */\n    tag_28:\n      tag_49\n      tag_152\n      calldatasize\n      0x04\n      tag_83\n      jump\t// in\n    tag_152:\n      tag_153\n      jump\t// in\n        /* \"contracts/mirrorseaMain.sol\":1601:1656  mapping(address => uint256[]) public myCloseOrderIdList */\n    tag_29:\n      tag_49\n      tag_156\n      calldatasize\n      0x04\n      tag_109\n      jump\t// in\n    tag_156:\n      tag_157\n      jump\t// in\n        /* \"contracts/mirrorseaMain.sol\":1662:1749  mapping(address => mapping(uint256 => uint256))... */\n    tag_30:\n      tag_49\n      tag_160\n      calldatasize\n      0x04\n      tag_109\n      jump\t// in\n    tag_160:\n      tag_161\n      jump\t// in\n        /* \"contracts/mirrorseaMain.sol\":1818:1839  uint256 public minVal */\n    tag_31:\n      tag_49\n      tag_164\n      jump\t// in\n        /* \"@openzeppelin/contracts-upgradeable/access/OwnableUpgradeable.sol\":2184:2382  function transferOwnership(address newOwner) public virtual onlyOwner {... */\n    tag_32:\n      tag_55\n      tag_167\n      calldatasize\n      0x04\n      tag_83\n      jump\t// in\n    tag_167:\n      tag_168\n      jump\t// in\n        /* \"contracts/mirrorseaMain.sol\":1315:1340  uint256 public OrderIndex */\n    tag_33:\n      tag_49\n      tag_170\n      jump\t// in\n        /* \"contracts/mirrorseaMain.sol\":2277:2657  function initialize(... */\n    tag_34:\n      tag_55\n      tag_173\n      calldatasize\n      0x04\n      tag_174\n      jump\t// in\n    tag_173:\n      tag_175\n      jump\t// in\n        /* \"contracts/mirrorseaMain.sol\":3721:4496  function setOrderInfo(... */\n    tag_35:\n      tag_59\n      tag_177\n      calldatasize\n      0x04\n      tag_178\n      jump\t// in\n    tag_177:\n      tag_179\n      jump\t// in\n        /* \"contracts/mirrorseaMain.sol\":4502:5775  function pagination(... */\n    tag_46:\n        /* \"contracts/mirrorseaMain.sol\":4642:4658  uint256[] memory */\n      0x60\n        /* \"contracts/mirrorseaMain.sol\":4670:4683  uint256 index */\n      0x00\n      dup1\n        /* \"contracts/mirrorseaMain.sol\":4642:4658  uint256[] memory */\n      dup3\n        /* \"contracts/mirrorseaMain.sol\":4750:4760  _type == 0 */\n      dup7\n        /* \"contracts/mirrorseaMain.sol\":4746:4969  if (_type == 0) {... */\n      tag_182\n      jumpi\n        /* \"contracts/mirrorseaMain.sol\":4784:4799  openOrderIdList */\n      0x6c\n        /* \"contracts/mirrorseaMain.sol\":4776:4799  _list = openOrderIdList */\n      dup1\n      sload\n      dup1\n      0x20\n      mul\n      0x20\n      add\n      mload(0x40)\n      swap1\n      dup2\n      add\n      0x40\n      mstore\n      dup1\n      swap3\n      swap2\n      swap1\n      dup2\n      dup2\n      mstore\n      0x20\n      add\n      dup3\n      dup1\n      sload\n      dup1\n      iszero\n      tag_183\n      jumpi\n      0x20\n      mul\n      dup3\n      add\n      swap2\n      swap1\n      0x00\n      mstore\n      keccak256(0x00, 0x20)\n      swap1\n    tag_184:\n      dup2\n      sload\n      dup2\n      mstore\n      0x20\n      add\n      swap1\n      0x01\n      add\n      swap1\n      dup1\n      dup4\n      gt\n      tag_184\n      jumpi\n    tag_183:\n      pop\n      pop\n      pop\n      pop\n      pop\n      swap1\n      pop\n        /* \"contracts/mirrorseaMain.sol\":4746:4969  if (_type == 0) {... */\n      jump(tag_190)\n    tag_182:\n        /* \"contracts/mirrorseaMain.sol\":4820:4825  _type */\n      dup7\n        /* \"contracts/mirrorseaMain.sol\":4829:4830  1 */\n      0x01\n        /* \"contracts/mirrorseaMain.sol\":4820:4830  _type == 1 */\n      eq\n        /* \"contracts/mirrorseaMain.sol\":4816:4969  if (_type == 1) {... */\n      iszero\n      tag_186\n      jumpi\n      sub(shl(0xa0, 0x01), 0x01)\n        /* \"contracts/mirrorseaMain.sol\":4854:4878  myOpenOrderIdList[_user] */\n      dup9\n      and\n      0x00\n      swap1\n      dup2\n      mstore\n        /* \"contracts/mirrorseaMain.sol\":4854:4871  myOpenOrderIdList */\n      0x6e\n        /* \"contracts/mirrorseaMain.sol\":4854:4878  myOpenOrderIdList[_user] */\n      0x20\n      swap1\n      dup2\n      mstore\n      0x40\n      swap2\n      dup3\n      swap1\n      keccak256\n        /* \"contracts/mirrorseaMain.sol\":4846:4878  _list = myOpenOrderIdList[_user] */\n      dup1\n      sload\n      dup4\n      mload\n      dup2\n      dup5\n      mul\n      dup2\n      add\n      dup5\n      add\n      swap1\n      swap5\n      mstore\n      dup1\n      dup5\n      mstore\n        /* \"contracts/mirrorseaMain.sol\":4854:4878  myOpenOrderIdList[_user] */\n      swap1\n      swap2\n        /* \"contracts/mirrorseaMain.sol\":4846:4878  _list = myOpenOrderIdList[_user] */\n      dup4\n      add\n        /* \"contracts/mirrorseaMain.sol\":4854:4878  myOpenOrderIdList[_user] */\n      dup3\n        /* \"contracts/mirrorseaMain.sol\":4846:4878  _list = myOpenOrderIdList[_user] */\n      dup3\n      dup1\n      iszero\n      tag_183\n      jumpi\n      0x20\n      mul\n      dup3\n      add\n      swap2\n      swap1\n      0x00\n      mstore\n      keccak256(0x00, 0x20)\n      swap1\n      dup2\n      sload\n      dup2\n      mstore\n      0x20\n      add\n      swap1\n      0x01\n      add\n      swap1\n      dup1\n      dup4\n      gt\n      tag_184\n      jumpi\n      pop\n      pop\n      pop\n      pop\n      pop\n      swap1\n      pop\n        /* \"contracts/mirrorseaMain.sol\":4816:4969  if (_type == 1) {... */\n      jump(tag_190)\n    tag_186:\n        /* \"contracts/mirrorseaMain.sol\":4899:4904  _type */\n      dup7\n        /* \"contracts/mirrorseaMain.sol\":4908:4909  2 */\n      0x02\n        /* \"contracts/mirrorseaMain.sol\":4899:4909  _type == 2 */\n      eq\n        /* \"contracts/mirrorseaMain.sol\":4895:4969  if (_type == 2) {... */\n      iszero\n      tag_190\n      jumpi\n      sub(shl(0xa0, 0x01), 0x01)\n        /* \"contracts/mirrorseaMain.sol\":4933:4958  myCloseOrderIdList[_user] */\n      dup9\n      and\n      0x00\n      swap1\n      dup2\n      mstore\n        /* \"contracts/mirrorseaMain.sol\":4933:4951  myCloseOrderIdList */\n      0x70\n        /* \"contracts/mirrorseaMain.sol\":4933:4958  myCloseOrderIdList[_user] */\n      0x20\n      swap1\n      dup2\n      mstore\n      0x40\n      swap2\n      dup3\n      swap1\n      keccak256\n        /* \"contracts/mirrorseaMain.sol\":4925:4958  _list = myCloseOrderIdList[_user] */\n      dup1\n      sload\n      dup4\n      mload\n      dup2\n      dup5\n      mul\n      dup2\n      add\n      dup5\n      add\n      swap1\n      swap5\n      mstore\n      dup1\n      dup5\n      mstore\n        /* \"contracts/mirrorseaMain.sol\":4933:4958  myCloseOrderIdList[_user] */\n      swap1\n      swap2\n        /* \"contracts/mirrorseaMain.sol\":4925:4958  _list = myCloseOrderIdList[_user] */\n      dup4\n      add\n        /* \"contracts/mirrorseaMain.sol\":4933:4958  myCloseOrderIdList[_user] */\n      dup3\n        /* \"contracts/mirrorseaMain.sol\":4925:4958  _list = myCloseOrderIdList[_user] */\n      dup3\n      dup1\n      iszero\n      tag_191\n      jumpi\n      0x20\n      mul\n      dup3\n      add\n      swap2\n      swap1\n      0x00\n      mstore\n      keccak256(0x00, 0x20)\n      swap1\n    tag_192:\n      dup2\n      sload\n      dup2\n      mstore\n      0x20\n      add\n      swap1\n      0x01\n      add\n      swap1\n      dup1\n      dup4\n      gt\n      tag_192\n      jumpi\n    tag_191:\n      pop\n      pop\n      pop\n      pop\n      pop\n      swap1\n      pop\n        /* \"contracts/mirrorseaMain.sol\":4895:4969  if (_type == 2) {... */\n    tag_190:\n        /* \"contracts/mirrorseaMain.sol\":4978:4992  uint256 remAmt */\n      0x00\n        /* \"contracts/mirrorseaMain.sol\":4995:5038  _list.length.sub(_row.mul(_page).sub(_row)) */\n      tag_193\n        /* \"contracts/mirrorseaMain.sol\":5012:5037  _row.mul(_page).sub(_row) */\n      tag_194\n        /* \"contracts/mirrorseaMain.sol\":5032:5036  _row */\n      dup9\n        /* \"contracts/mirrorseaMain.sol\":5012:5027  _row.mul(_page) */\n      tag_195\n        /* \"contracts/mirrorseaMain.sol\":5032:5036  _row */\n      dup2\n        /* \"contracts/mirrorseaMain.sol\":5021:5026  _page */\n      dup11\n        /* \"contracts/mirrorseaMain.sol\":5012:5020  _row.mul */\n      tag_196\n        /* \"contracts/mirrorseaMain.sol\":5012:5027  _row.mul(_page) */\n      jump\t// in\n    tag_195:\n        /* \"contracts/mirrorseaMain.sol\":5012:5031  _row.mul(_page).sub */\n      swap1\n      tag_197\n        /* \"contracts/mirrorseaMain.sol\":5012:5037  _row.mul(_page).sub(_row) */\n      jump\t// in\n    tag_194:\n        /* \"contracts/mirrorseaMain.sol\":4995:5007  _list.length */\n      dup4\n      mload\n      swap1\n        /* \"contracts/mirrorseaMain.sol\":4995:5011  _list.length.sub */\n      tag_197\n        /* \"contracts/mirrorseaMain.sol\":4995:5038  _list.length.sub(_row.mul(_page).sub(_row)) */\n      jump\t// in\n    tag_193:\n        /* \"contracts/mirrorseaMain.sol\":4978:5038  uint256 remAmt = _list.length.sub(_row.mul(_page).sub(_row)) */\n      swap1\n      pop\n        /* \"contracts/mirrorseaMain.sol\":5062:5066  _row */\n      dup7\n        /* \"contracts/mirrorseaMain.sol\":5052:5058  remAmt */\n      dup2\n        /* \"contracts/mirrorseaMain.sol\":5052:5066  remAmt >= _row */\n      lt\n        /* \"contracts/mirrorseaMain.sol\":5048:5146  if (remAmt >= _row) {... */\n      tag_198\n      jumpi\n        /* \"contracts/mirrorseaMain.sol\":5088:5092  _row */\n      dup7\n        /* \"contracts/mirrorseaMain.sol\":5082:5092  arr = _row */\n      swap3\n      pop\n        /* \"contracts/mirrorseaMain.sol\":5048:5146  if (remAmt >= _row) {... */\n      jump(tag_199)\n    tag_198:\n        /* \"contracts/mirrorseaMain.sol\":5129:5135  remAmt */\n      dup1\n        /* \"contracts/mirrorseaMain.sol\":5123:5135  arr = remAmt */\n      swap3\n      pop\n        /* \"contracts/mirrorseaMain.sol\":5048:5146  if (remAmt >= _row) {... */\n    tag_199:\n        /* \"contracts/mirrorseaMain.sol\":5192:5204  _list.length */\n      dup2\n      mload\n        /* \"contracts/mirrorseaMain.sol\":5164:5189  _row.mul(_page).sub(_row) */\n      tag_200\n        /* \"contracts/mirrorseaMain.sol\":5184:5188  _row */\n      dup9\n        /* \"contracts/mirrorseaMain.sol\":5164:5179  _row.mul(_page) */\n      tag_195\n        /* \"contracts/mirrorseaMain.sol\":5184:5188  _row */\n      dup2\n        /* \"contracts/mirrorseaMain.sol\":5173:5178  _page */\n      dup11\n        /* \"contracts/mirrorseaMain.sol\":5164:5172  _row.mul */\n      tag_196\n        /* \"contracts/mirrorseaMain.sol\":5164:5179  _row.mul(_page) */\n      jump\t// in\n        /* \"contracts/mirrorseaMain.sol\":5164:5189  _row.mul(_page).sub(_row) */\n    tag_200:\n        /* \"contracts/mirrorseaMain.sol\":5164:5204  _row.mul(_page).sub(_row) < _list.length */\n      lt\n        /* \"contracts/mirrorseaMain.sol\":5156:5219  require(_row.mul(_page).sub(_row) < _list.length, \"length err\") */\n      tag_202\n      jumpi\n      mload(0x40)\n      shl(0xe5, 0x461bcd)\n      dup2\n      mstore\n      0x04\n      add\n      tag_203\n      swap1\n      tag_204\n      jump\t// in\n    tag_203:\n      mload(0x40)\n      dup1\n      swap2\n      sub\n      swap1\n      revert\n    tag_202:\n        /* \"contracts/mirrorseaMain.sol\":5237:5245  arr != 0 */\n      dup3\n        /* \"contracts/mirrorseaMain.sol\":5229:5261  require(arr != 0, \"arr no good\") */\n      tag_205\n      jumpi\n      mload(0x40)\n      shl(0xe5, 0x461bcd)\n      dup2\n      mstore\n      0x04\n      add\n      tag_203\n      swap1\n      tag_207\n      jump\t// in\n    tag_205:\n        /* \"contracts/mirrorseaMain.sol\":5272:5296  uint256[] memory newList */\n      0x00\n        /* \"contracts/mirrorseaMain.sol\":5313:5316  arr */\n      dup4\n        /* \"contracts/mirrorseaMain.sol\":5299:5317  new uint256[](arr) */\n      0xffffffffffffffff\n      dup2\n      gt\n      iszero\n      tag_208\n      jumpi\n      mstore(0x00, shl(0xe0, 0x4e487b71))\n      mstore(0x04, 0x41)\n      revert(0x00, 0x24)\n    tag_208:\n      mload(0x40)\n      swap1\n      dup1\n      dup3\n      mstore\n      dup1\n      0x20\n      mul\n      0x20\n      add\n      dup3\n      add\n      0x40\n      mstore\n      dup1\n      iszero\n      tag_209\n      jumpi\n      dup2\n      0x20\n      add\n      0x20\n      dup3\n      mul\n      dup1\n      calldatasize\n      dup4\n      calldatacopy\n      add\n      swap1\n      pop\n    tag_209:\n      pop\n        /* \"contracts/mirrorseaMain.sol\":5272:5317  uint256[] memory newList = new uint256[](arr) */\n      swap1\n      pop\n        /* \"contracts/mirrorseaMain.sol\":5333:5342  uint256 i */\n      0x00\n        /* \"contracts/mirrorseaMain.sol\":5345:5358  remAmt.sub(1) */\n      tag_213\n        /* \"contracts/mirrorseaMain.sol\":5345:5351  remAmt */\n      dup4\n        /* \"contracts/mirrorseaMain.sol\":5356:5357  1 */\n      0x01\n        /* \"contracts/mirrorseaMain.sol\":5345:5355  remAmt.sub */\n      tag_197\n        /* \"contracts/mirrorseaMain.sol\":5345:5358  remAmt.sub(1) */\n      jump\t// in\n    tag_213:\n        /* \"contracts/mirrorseaMain.sol\":5333:5358  uint256 i = remAmt.sub(1) */\n      swap1\n      pop\n        /* \"contracts/mirrorseaMain.sol\":5328:5512  for (uint256 i = remAmt.sub(1); index < arr; i--) {... */\n    tag_210:\n        /* \"contracts/mirrorseaMain.sol\":5368:5371  arr */\n      dup5\n        /* \"contracts/mirrorseaMain.sol\":5360:5365  index */\n      dup7\n        /* \"contracts/mirrorseaMain.sol\":5360:5371  index < arr */\n      lt\n        /* \"contracts/mirrorseaMain.sol\":5328:5512  for (uint256 i = remAmt.sub(1); index < arr; i--) {... */\n      iszero\n      tag_211\n      jumpi\n        /* \"contracts/mirrorseaMain.sol\":5409:5414  _list */\n      dup4\n        /* \"contracts/mirrorseaMain.sol\":5415:5416  i */\n      dup2\n        /* \"contracts/mirrorseaMain.sol\":5409:5417  _list[i] */\n      dup2\n      mload\n      dup2\n      lt\n      tag_214\n      jumpi\n      mstore(0x00, shl(0xe0, 0x4e487b71))\n      mstore(0x04, 0x32)\n      revert(0x00, 0x24)\n    tag_214:\n      0x20\n      mul\n      0x20\n      add\n      add\n      mload\n        /* \"contracts/mirrorseaMain.sol\":5392:5399  newList */\n      dup3\n        /* \"contracts/mirrorseaMain.sol\":5400:5405  index */\n      dup8\n        /* \"contracts/mirrorseaMain.sol\":5392:5406  newList[index] */\n      dup2\n      mload\n      dup2\n      lt\n      tag_215\n      jumpi\n      mstore(0x00, shl(0xe0, 0x4e487b71))\n      mstore(0x04, 0x32)\n      revert(0x00, 0x24)\n    tag_215:\n      0x20\n      swap1\n      dup2\n      mul\n      swap2\n      swap1\n      swap2\n      add\n      add\n        /* \"contracts/mirrorseaMain.sol\":5392:5417  newList[index] = _list[i] */\n      mstore\n        /* \"contracts/mirrorseaMain.sol\":5435:5441  i == 0 */\n      dup1\n        /* \"contracts/mirrorseaMain.sol\":5431:5481  if (i == 0) {... */\n      tag_216\n      jumpi\n        /* \"contracts/mirrorseaMain.sol\":5461:5466  break */\n      jump(tag_211)\n        /* \"contracts/mirrorseaMain.sol\":5431:5481  if (i == 0) {... */\n    tag_216:\n        /* \"contracts/mirrorseaMain.sol\":5494:5501  index++ */\n      dup6\n      tag_217\n      dup2\n      tag_218\n      jump\t// in\n    tag_217:\n      swap7\n      pop\n      pop\n        /* \"contracts/mirrorseaMain.sol\":5373:5376  i-- */\n      dup1\n      dup1\n      tag_219\n      swap1\n      tag_220\n      jump\t// in\n    tag_219:\n      swap2\n      pop\n      pop\n        /* \"contracts/mirrorseaMain.sol\":5328:5512  for (uint256 i = remAmt.sub(1); index < arr; i--) {... */\n      jump(tag_210)\n    tag_211:\n      pop\n        /* \"contracts/mirrorseaMain.sol\":5761:5768  newList */\n      swap10\n        /* \"contracts/mirrorseaMain.sol\":4502:5775  function pagination(... */\n      swap9\n      pop\n      pop\n      pop\n      pop\n      pop\n      pop\n      pop\n      pop\n      pop\n      jump\t// out\n        /* \"contracts/mirrorseaMain.sol\":1347:1379  uint256[] public openOrderIdList */\n    tag_52:\n      0x6c\n      dup2\n      dup2\n      sload\n      dup2\n      lt\n      tag_221\n      jumpi\n      0x00\n      dup1\n      revert\n    tag_221:\n      0x00\n      swap2\n      dup3\n      mstore\n      0x20\n      swap1\n      swap2\n      keccak256\n      add\n      sload\n      swap1\n      pop\n      dup2\n      jump\t// out\n        /* \"contracts/mirrorseaMain.sol\":16864:17042  function setmyOpenOrderIdList_index(... */\n    tag_58:\n      sub(shl(0xa0, 0x01), 0x01)\n        /* \"contracts/mirrorseaMain.sol\":16991:17020  myOpenOrderIdList_index[user] */\n      swap1\n      swap3\n      and\n      0x00\n      swap1\n      dup2\n      mstore\n        /* \"contracts/mirrorseaMain.sol\":16991:17014  myOpenOrderIdList_index */\n      0x6f\n        /* \"contracts/mirrorseaMain.sol\":16991:17020  myOpenOrderIdList_index[user] */\n      0x20\n      swap1\n      dup2\n      mstore\n      0x40\n      dup1\n      dup4\n      keccak256\n        /* \"contracts/mirrorseaMain.sol\":16991:17028  myOpenOrderIdList_index[user][number] */\n      swap4\n      dup4\n      mstore\n      swap3\n      swap1\n      mstore\n      keccak256\n        /* \"contracts/mirrorseaMain.sol\":16991:17035  myOpenOrderIdList_index[user][number] = _val */\n      sstore\n        /* \"contracts/mirrorseaMain.sol\":16864:17042  function setmyOpenOrderIdList_index(... */\n      jump\t// out\n        /* \"contracts/mirrorseaMain.sol\":2999:3176  function setExecutor(address _address, bool _type)... */\n    tag_62:\n        /* \"contracts/mirrorseaMain.sol\":3102:3106  bool */\n      0x00\n        /* \"@openzeppelin/contracts-upgradeable/access/OwnableUpgradeable.sol\":1525:1537  _msgSender() */\n      tag_225\n        /* \"@openzeppelin/contracts-upgradeable/access/OwnableUpgradeable.sol\":1525:1535  _msgSender */\n      tag_226\n        /* \"@openzeppelin/contracts-upgradeable/access/OwnableUpgradeable.sol\":1525:1537  _msgSender() */\n      jump\t// in\n    tag_225:\n      sub(shl(0xa0, 0x01), 0x01)\n        /* \"@openzeppelin/contracts-upgradeable/access/OwnableUpgradeable.sol\":1514:1537  owner() == _msgSender() */\n      and\n        /* \"@openzeppelin/contracts-upgradeable/access/OwnableUpgradeable.sol\":1514:1521  owner() */\n      tag_227\n        /* \"@openzeppelin/contracts-upgradeable/access/OwnableUpgradeable.sol\":1514:1519  owner */\n      tag_124\n        /* \"@openzeppelin/contracts-upgradeable/access/OwnableUpgradeable.sol\":1514:1521  owner() */\n      jump\t// in\n    tag_227:\n      sub(shl(0xa0, 0x01), 0x01)\n        /* \"@openzeppelin/contracts-upgradeable/access/OwnableUpgradeable.sol\":1514:1537  owner() == _msgSender() */\n      and\n      eq\n        /* \"@openzeppelin/contracts-upgradeable/access/OwnableUpgradeable.sol\":1506:1574  require(owner() == _msgSender(), \"Ownable: caller is not the owner\") */\n      tag_228\n      jumpi\n      mload(0x40)\n      shl(0xe5, 0x461bcd)\n      dup2\n      mstore\n      0x04\n      add\n      tag_203\n      swap1\n      tag_230\n      jump\t// in\n    tag_228:\n      pop\n      sub(shl(0xa0, 0x01), 0x01)\n        /* \"contracts/mirrorseaMain.sol\":3122:3140  executor[_address] */\n      dup3\n      and\n      0x00\n      swap1\n      dup2\n      mstore\n        /* \"contracts/mirrorseaMain.sol\":3122:3130  executor */\n      0x65\n        /* \"contracts/mirrorseaMain.sol\":3122:3140  executor[_address] */\n      0x20\n      mstore\n      0x40\n      swap1\n      keccak256\n        /* \"contracts/mirrorseaMain.sol\":3122:3148  executor[_address] = _type */\n      dup1\n      sload\n      dup3\n      iszero\n      iszero\n      not(0xff)\n      swap1\n      swap2\n      and\n      or\n      swap1\n      sstore\n      0x01\n        /* \"contracts/mirrorseaMain.sol\":2999:3176  function setExecutor(address _address, bool _type)... */\n      swap3\n      swap2\n      pop\n      pop\n      jump\t// out\n        /* \"contracts/mirrorseaMain.sol\":1196:1227  IhelperLogic public helperLogic */\n    tag_66:\n      and(sub(shl(0xa0, 0x01), 0x01), sload(0x68))\n      dup2\n      jump\t// out\n        /* \"contracts/mirrorseaMain.sol\":1135:1156  address public signer */\n    tag_70:\n      and(sub(shl(0xa0, 0x01), 0x01), sload(0x66))\n      dup2\n      jump\t// out\n        /* \"contracts/mirrorseaMain.sol\":1162:1190  IERC20Upgradeable public usc */\n    tag_74:\n      and(sub(shl(0xa0, 0x01), 0x01), sload(0x67))\n      dup2\n      jump\t// out\n        /* \"contracts/mirrorseaMain.sol\":1385:1441  mapping(uint256 => uint256) public openOrderIdList_index */\n    tag_79:\n      mstore(0x20, 0x6d)\n      0x00\n      swap1\n      dup2\n      mstore\n      0x40\n      swap1\n      keccak256\n      sload\n      dup2\n      jump\t// out\n        /* \"contracts/mirrorseaMain.sol\":1089:1129  mapping(address => bool) public executor */\n    tag_84:\n      mstore(0x20, 0x65)\n      0x00\n      swap1\n      dup2\n      mstore\n      0x40\n      swap1\n      keccak256\n      sload\n      0xff\n      and\n      dup2\n      jump\t// out\n        /* \"contracts/mirrorseaMain.sol\":12377:13228  function liquidation(... */\n    tag_89:\n        /* \"contracts/mirrorseaMain.sol\":3233:3243  msg.sender */\n      caller\n        /* \"contracts/mirrorseaMain.sol\":12633:12637  bool */\n      0x00\n        /* \"contracts/mirrorseaMain.sol\":3224:3244  executor[msg.sender] */\n      swap1\n      dup2\n      mstore\n        /* \"contracts/mirrorseaMain.sol\":3224:3232  executor */\n      0x65\n        /* \"contracts/mirrorseaMain.sol\":3224:3244  executor[msg.sender] */\n      0x20\n      mstore\n      0x40\n      dup2\n      keccak256\n      sload\n      0xff\n      and\n        /* \"contracts/mirrorseaMain.sol\":3216:3285  require(executor[msg.sender], \"executor: caller is not the executor\") */\n      tag_233\n      jumpi\n      mload(0x40)\n      shl(0xe5, 0x461bcd)\n      dup2\n      mstore\n      0x04\n      add\n      tag_203\n      swap1\n      tag_235\n      jump\t// in\n    tag_233:\n        /* \"contracts/mirrorseaMain.sol\":12654:12663  uint256 i */\n      0x00\n        /* \"contracts/mirrorseaMain.sol\":12649:13200  for (uint256 i = 0; i < _id.length; i++) {... */\n    tag_237:\n        /* \"contracts/mirrorseaMain.sol\":12673:12676  _id */\n      dup7\n        /* \"contracts/mirrorseaMain.sol\":12673:12683  _id.length */\n      mload\n        /* \"contracts/mirrorseaMain.sol\":12669:12670  i */\n      dup2\n        /* \"contracts/mirrorseaMain.sol\":12669:12683  i < _id.length */\n      lt\n        /* \"contracts/mirrorseaMain.sol\":12649:13200  for (uint256 i = 0; i < _id.length; i++) {... */\n      iszero\n      tag_238\n      jumpi\n        /* \"contracts/mirrorseaMain.sol\":12704:12727  OrderInfo storage order */\n      0x00\n        /* \"contracts/mirrorseaMain.sol\":12730:12740  _orderInfo */\n      0x6a\n        /* \"contracts/mirrorseaMain.sol\":12730:12748  _orderInfo[_id[i]] */\n      0x00\n        /* \"contracts/mirrorseaMain.sol\":12741:12744  _id */\n      dup10\n        /* \"contracts/mirrorseaMain.sol\":12745:12746  i */\n      dup5\n        /* \"contracts/mirrorseaMain.sol\":12741:12747  _id[i] */\n      dup2\n      mload\n      dup2\n      lt\n      tag_240\n      jumpi\n      mstore(0x00, shl(0xe0, 0x4e487b71))\n      mstore(0x04, 0x32)\n      revert(0x00, 0x24)\n    tag_240:\n      0x20\n      mul\n      0x20\n      add\n      add\n      mload\n        /* \"contracts/mirrorseaMain.sol\":12730:12748  _orderInfo[_id[i]] */\n      dup2\n      mstore\n      0x20\n      add\n      swap1\n      dup2\n      mstore\n      0x20\n      add\n      0x00\n      keccak256\n        /* \"contracts/mirrorseaMain.sol\":12704:12748  OrderInfo storage order = _orderInfo[_id[i]] */\n      swap1\n      pop\n        /* \"contracts/mirrorseaMain.sol\":12767:12812  _isSolvent(_id[i], _price18[i], order.margin) */\n      tag_241\n        /* \"contracts/mirrorseaMain.sol\":12778:12781  _id */\n      dup9\n        /* \"contracts/mirrorseaMain.sol\":12782:12783  i */\n      dup4\n        /* \"contracts/mirrorseaMain.sol\":12778:12784  _id[i] */\n      dup2\n      mload\n      dup2\n      lt\n      tag_242\n      jumpi\n      mstore(0x00, shl(0xe0, 0x4e487b71))\n      mstore(0x04, 0x32)\n      revert(0x00, 0x24)\n    tag_242:\n      0x20\n      mul\n      0x20\n      add\n      add\n      mload\n        /* \"contracts/mirrorseaMain.sol\":12786:12794  _price18 */\n      dup7\n        /* \"contracts/mirrorseaMain.sol\":12795:12796  i */\n      dup5\n        /* \"contracts/mirrorseaMain.sol\":12786:12797  _price18[i] */\n      dup2\n      mload\n      dup2\n      lt\n      tag_243\n      jumpi\n      mstore(0x00, shl(0xe0, 0x4e487b71))\n      mstore(0x04, 0x32)\n      revert(0x00, 0x24)\n    tag_243:\n      0x20\n      mul\n      0x20\n      add\n      add\n      mload\n        /* \"contracts/mirrorseaMain.sol\":12799:12804  order */\n      dup4\n        /* \"contracts/mirrorseaMain.sol\":12799:12811  order.margin */\n      0x0a\n      add\n      sload\n        /* \"contracts/mirrorseaMain.sol\":12767:12777  _isSolvent */\n      tag_244\n        /* \"contracts/mirrorseaMain.sol\":12767:12812  _isSolvent(_id[i], _price18[i], order.margin) */\n      jump\t// in\n    tag_241:\n        /* \"contracts/mirrorseaMain.sol\":12762:13190  if (!_isSolvent(_id[i], _price18[i], order.margin)) {... */\n      tag_245\n      jumpi\n        /* \"contracts/mirrorseaMain.sol\":12859:13175  _closePosition(... */\n      tag_246\n        /* \"contracts/mirrorseaMain.sol\":12899:12911  _marketState */\n      dup10\n        /* \"contracts/mirrorseaMain.sol\":12937:12942  order */\n      dup3\n        /* \"contracts/mirrorseaMain.sol\":12968:12969  3 */\n      0x03\n        /* \"contracts/mirrorseaMain.sol\":12995:12998  _id */\n      dup12\n        /* \"contracts/mirrorseaMain.sol\":12999:13000  i */\n      dup7\n        /* \"contracts/mirrorseaMain.sol\":12995:13001  _id[i] */\n      dup2\n      mload\n      dup2\n      lt\n      tag_247\n      jumpi\n      mstore(0x00, shl(0xe0, 0x4e487b71))\n      mstore(0x04, 0x32)\n      revert(0x00, 0x24)\n    tag_247:\n      0x20\n      mul\n      0x20\n      add\n      add\n      mload\n        /* \"contracts/mirrorseaMain.sol\":13027:13037  _timestamp */\n      dup12\n        /* \"contracts/mirrorseaMain.sol\":13038:13039  i */\n      dup8\n        /* \"contracts/mirrorseaMain.sol\":13027:13040  _timestamp[i] */\n      dup2\n      mload\n      dup2\n      lt\n      tag_248\n      jumpi\n      mstore(0x00, shl(0xe0, 0x4e487b71))\n      mstore(0x04, 0x32)\n      revert(0x00, 0x24)\n    tag_248:\n      0x20\n      mul\n      0x20\n      add\n      add\n      mload\n        /* \"contracts/mirrorseaMain.sol\":13066:13074  _symbols */\n      dup12\n        /* \"contracts/mirrorseaMain.sol\":13075:13076  i */\n      dup9\n        /* \"contracts/mirrorseaMain.sol\":13066:13077  _symbols[i] */\n      dup2\n      mload\n      dup2\n      lt\n      tag_249\n      jumpi\n      mstore(0x00, shl(0xe0, 0x4e487b71))\n      mstore(0x04, 0x32)\n      revert(0x00, 0x24)\n    tag_249:\n      0x20\n      mul\n      0x20\n      add\n      add\n      mload\n        /* \"contracts/mirrorseaMain.sol\":13103:13111  _price18 */\n      dup12\n        /* \"contracts/mirrorseaMain.sol\":13112:13113  i */\n      dup10\n        /* \"contracts/mirrorseaMain.sol\":13103:13114  _price18[i] */\n      dup2\n      mload\n      dup2\n      lt\n      tag_250\n      jumpi\n      mstore(0x00, shl(0xe0, 0x4e487b71))\n      mstore(0x04, 0x32)\n      revert(0x00, 0x24)\n    tag_250:\n      0x20\n      mul\n      0x20\n      add\n      add\n      mload\n        /* \"contracts/mirrorseaMain.sol\":13140:13150  _signature */\n      dup12\n        /* \"contracts/mirrorseaMain.sol\":13151:13152  i */\n      dup11\n        /* \"contracts/mirrorseaMain.sol\":13140:13153  _signature[i] */\n      dup2\n      mload\n      dup2\n      lt\n      tag_251\n      jumpi\n      mstore(0x00, shl(0xe0, 0x4e487b71))\n      mstore(0x04, 0x32)\n      revert(0x00, 0x24)\n    tag_251:\n      0x20\n      mul\n      0x20\n      add\n      add\n      mload\n        /* \"contracts/mirrorseaMain.sol\":12859:12873  _closePosition */\n      tag_252\n        /* \"contracts/mirrorseaMain.sol\":12859:13175  _closePosition(... */\n      jump\t// in\n    tag_246:\n        /* \"contracts/mirrorseaMain.sol\":12832:13175  return... */\n      swap3\n      pop\n      pop\n      pop\n      jump(tag_236)\n        /* \"contracts/mirrorseaMain.sol\":12762:13190  if (!_isSolvent(_id[i], _price18[i], order.margin)) {... */\n    tag_245:\n      pop\n        /* \"contracts/mirrorseaMain.sol\":12685:12688  i++ */\n      dup1\n      tag_253\n      dup2\n      tag_218\n      jump\t// in\n    tag_253:\n      swap2\n      pop\n      pop\n        /* \"contracts/mirrorseaMain.sol\":12649:13200  for (uint256 i = 0; i < _id.length; i++) {... */\n      jump(tag_237)\n    tag_238:\n      pop\n        /* \"contracts/mirrorseaMain.sol\":13217:13221  true */\n      0x01\n        /* \"contracts/mirrorseaMain.sol\":13210:13221  return true */\n      swap1\n      pop\n        /* \"contracts/mirrorseaMain.sol\":3295:3296  _ */\n    tag_236:\n        /* \"contracts/mirrorseaMain.sol\":12377:13228  function liquidation(... */\n      swap7\n      swap6\n      pop\n      pop\n      pop\n      pop\n      pop\n      pop\n      jump\t// out\n        /* \"contracts/mirrorseaMain.sol\":3603:3715  function orderInfo(uint256 _id) external view returns (OrderInfo memory) {... */\n    tag_93:\n        /* \"contracts/mirrorseaMain.sol\":3658:3674  OrderInfo memory */\n      tag_254\n      tag_255\n      jump\t// in\n    tag_254:\n        /* \"contracts/mirrorseaMain.sol\":3693:3708  _orderInfo[_id] */\n      0x00\n      dup3\n      dup2\n      mstore\n        /* \"contracts/mirrorseaMain.sol\":3693:3703  _orderInfo */\n      0x6a\n        /* \"contracts/mirrorseaMain.sol\":3693:3708  _orderInfo[_id] */\n      0x20\n      swap1\n      dup2\n      mstore\n      0x40\n      swap2\n      dup3\n      swap1\n      keccak256\n        /* \"contracts/mirrorseaMain.sol\":3686:3708  return _orderInfo[_id] */\n      dup3\n      mload\n      0x0160\n      dup2\n      add\n      dup5\n      mstore\n      dup2\n      sload\n      sub(shl(0xa0, 0x01), 0x01)\n      and\n      dup2\n      mstore\n      0x01\n      dup3\n      add\n      sload\n      swap3\n      dup2\n      add\n      swap3\n      swap1\n      swap3\n      mstore\n      0x02\n      dup2\n      add\n      dup1\n      sload\n      swap3\n      swap4\n        /* \"contracts/mirrorseaMain.sol\":3693:3708  _orderInfo[_id] */\n      swap2\n      swap3\n        /* \"contracts/mirrorseaMain.sol\":3686:3708  return _orderInfo[_id] */\n      swap2\n      dup5\n      add\n      swap2\n      tag_257\n      swap1\n      tag_258\n      jump\t// in\n    tag_257:\n      dup1\n      0x1f\n      add\n      0x20\n      dup1\n      swap2\n      div\n      mul\n      0x20\n      add\n      mload(0x40)\n      swap1\n      dup2\n      add\n      0x40\n      mstore\n      dup1\n      swap3\n      swap2\n      swap1\n      dup2\n      dup2\n      mstore\n      0x20\n      add\n      dup3\n      dup1\n      sload\n      tag_259\n      swap1\n      tag_258\n      jump\t// in\n    tag_259:\n      dup1\n      iszero\n      tag_260\n      jumpi\n      dup1\n      0x1f\n      lt\n      tag_261\n      jumpi\n      0x0100\n      dup1\n      dup4\n      sload\n      div\n      mul\n      dup4\n      mstore\n      swap2\n      0x20\n      add\n      swap2\n      jump(tag_260)\n    tag_261:\n      dup3\n      add\n      swap2\n      swap1\n      0x00\n      mstore\n      keccak256(0x00, 0x20)\n      swap1\n    tag_262:\n      dup2\n      sload\n      dup2\n      mstore\n      swap1\n      0x01\n      add\n      swap1\n      0x20\n      add\n      dup1\n      dup4\n      gt\n      tag_262\n      jumpi\n      dup3\n      swap1\n      sub\n      0x1f\n      and\n      dup3\n      add\n      swap2\n    tag_260:\n      pop\n      pop\n      pop\n      pop\n      pop\n      dup2\n      mstore\n      0x20\n      add\n      0x03\n      dup3\n      add\n      sload\n      dup2\n      mstore\n      0x20\n      add\n      0x04\n      dup3\n      add\n      sload\n      dup2\n      mstore\n      0x20\n      add\n      0x05\n      dup3\n      add\n      sload\n      dup2\n      mstore\n      0x20\n      add\n      0x06\n      dup3\n      add\n      sload\n      dup2\n      mstore\n      0x20\n      add\n      0x07\n      dup3\n      add\n      sload\n      dup2\n      mstore\n      0x20\n      add\n      0x08\n      dup3\n      add\n      sload\n      dup2\n      mstore\n      0x20\n      add\n      0x09\n      dup3\n      add\n      sload\n      dup2\n      mstore\n      0x20\n      add\n      0x0a\n      dup3\n      add\n      sload\n      dup2\n      mstore\n      pop\n      pop\n      swap1\n      pop\n        /* \"contracts/mirrorseaMain.sol\":3603:3715  function orderInfo(uint256 _id) external view returns (OrderInfo memory) {... */\n    tag_256:\n      swap2\n      swap1\n      pop\n      jump\t// out\n        /* \"contracts/mirrorseaMain.sol\":3471:3597  function setSigner(address _address) external onlyOwner returns (bool) {... */\n    tag_98:\n        /* \"contracts/mirrorseaMain.sol\":3536:3540  bool */\n      0x00\n        /* \"@openzeppelin/contracts-upgradeable/access/OwnableUpgradeable.sol\":1525:1537  _msgSender() */\n      tag_264\n        /* \"@openzeppelin/contracts-upgradeable/access/OwnableUpgradeable.sol\":1525:1535  _msgSender */\n      tag_226\n        /* \"@openzeppelin/contracts-upgradeable/access/OwnableUpgradeable.sol\":1525:1537  _msgSender() */\n      jump\t// in\n    tag_264:\n      sub(shl(0xa0, 0x01), 0x01)\n        /* \"@openzeppelin/contracts-upgradeable/access/OwnableUpgradeable.sol\":1514:1537  owner() == _msgSender() */\n      and\n        /* \"@openzeppelin/contracts-upgradeable/access/OwnableUpgradeable.sol\":1514:1521  owner() */\n      tag_265\n        /* \"@openzeppelin/contracts-upgradeable/access/OwnableUpgradeable.sol\":1514:1519  owner */\n      tag_124\n        /* \"@openzeppelin/contracts-upgradeable/access/OwnableUpgradeable.sol\":1514:1521  owner() */\n      jump\t// in\n    tag_265:\n      sub(shl(0xa0, 0x01), 0x01)\n        /* \"@openzeppelin/contracts-upgradeable/access/OwnableUpgradeable.sol\":1514:1537  owner() == _msgSender() */\n      and\n      eq\n        /* \"@openzeppelin/contracts-upgradeable/access/OwnableUpgradeable.sol\":1506:1574  require(owner() == _msgSender(), \"Ownable: caller is not the owner\") */\n      tag_266\n      jumpi\n      mload(0x40)\n      shl(0xe5, 0x461bcd)\n      dup2\n      mstore\n      0x04\n      add\n      tag_203\n      swap1\n      tag_230\n      jump\t// in\n    tag_266:\n      pop\n        /* \"contracts/mirrorseaMain.sol\":3552:3558  signer */\n      0x66\n        /* \"contracts/mirrorseaMain.sol\":3552:3569  signer = _address */\n      dup1\n      sload\n      sub(shl(0xa0, 0x01), 0x01)\n      dup4\n      and\n      not(sub(shl(0xa0, 0x01), 0x01))\n      swap1\n      swap2\n      and\n      or\n      swap1\n      sstore\n      0x01\n        /* \"contracts/mirrorseaMain.sol\":3471:3597  function setSigner(address _address) external onlyOwner returns (bool) {... */\n      swap2\n      swap1\n      pop\n      jump\t// out\n        /* \"contracts/mirrorseaMain.sol\":11393:11985  function closePosition(... */\n    tag_103:\n        /* \"contracts/mirrorseaMain.sol\":11607:11611  bool */\n      0x00\n        /* \"contracts/mirrorseaMain.sol\":11649:11664  _orderInfo[_id] */\n      dup6\n      dup2\n      mstore\n        /* \"contracts/mirrorseaMain.sol\":11649:11659  _orderInfo */\n      0x6a\n        /* \"contracts/mirrorseaMain.sol\":11649:11664  _orderInfo[_id] */\n      0x20\n      mstore\n      0x40\n      dup2\n      keccak256\n        /* \"contracts/mirrorseaMain.sol\":11682:11692  order.user */\n      dup1\n      sload\n      sub(shl(0xa0, 0x01), 0x01)\n      and\n        /* \"contracts/mirrorseaMain.sol\":11696:11706  msg.sender */\n      caller\n        /* \"contracts/mirrorseaMain.sol\":11682:11706  order.user == msg.sender */\n      eq\n        /* \"contracts/mirrorseaMain.sol\":11674:11719  require(order.user == msg.sender, \"user err\") */\n      tag_270\n      jumpi\n      mload(0x40)\n      shl(0xe5, 0x461bcd)\n      dup2\n      mstore\n      0x04\n      add\n      tag_203\n      swap1\n      tag_272\n      jump\t// in\n    tag_270:\n        /* \"contracts/mirrorseaMain.sol\":11749:11978  _closePosition(... */\n      tag_273\n        /* \"contracts/mirrorseaMain.sol\":11781:11793  _marketState */\n      dup9\n        /* \"contracts/mirrorseaMain.sol\":11811:11816  order */\n      dup3\n        /* \"contracts/mirrorseaMain.sol\":11834:11835  2 */\n      0x02\n        /* \"contracts/mirrorseaMain.sol\":11853:11856  _id */\n      dup11\n        /* \"contracts/mirrorseaMain.sol\":11874:11884  _timestamp */\n      dup11\n        /* \"contracts/mirrorseaMain.sol\":11902:11910  _symbols */\n      dup11\n        /* \"contracts/mirrorseaMain.sol\":11928:11936  _price18 */\n      dup11\n        /* \"contracts/mirrorseaMain.sol\":11954:11964  _signature */\n      dup11\n        /* \"contracts/mirrorseaMain.sol\":11749:11763  _closePosition */\n      tag_252\n        /* \"contracts/mirrorseaMain.sol\":11749:11978  _closePosition(... */\n      jump\t// in\n    tag_273:\n        /* \"contracts/mirrorseaMain.sol\":11730:11978  return... */\n      swap9\n        /* \"contracts/mirrorseaMain.sol\":11393:11985  function closePosition(... */\n      swap8\n      pop\n      pop\n      pop\n      pop\n      pop\n      pop\n      pop\n      pop\n      jump\t// out\n        /* \"@openzeppelin/contracts-upgradeable/access/OwnableUpgradeable.sol\":1934:2035  function renounceOwnership() public virtual onlyOwner {... */\n    tag_106:\n        /* \"@openzeppelin/contracts-upgradeable/access/OwnableUpgradeable.sol\":1525:1537  _msgSender() */\n      tag_275\n        /* \"@openzeppelin/contracts-upgradeable/access/OwnableUpgradeable.sol\":1525:1535  _msgSender */\n      tag_226\n        /* \"@openzeppelin/contracts-upgradeable/access/OwnableUpgradeable.sol\":1525:1537  _msgSender() */\n      jump\t// in\n    tag_275:\n      sub(shl(0xa0, 0x01), 0x01)\n        /* \"@openzeppelin/contracts-upgradeable/access/OwnableUpgradeable.sol\":1514:1537  owner() == _msgSender() */\n      and\n        /* \"@openzeppelin/contracts-upgradeable/access/OwnableUpgradeable.sol\":1514:1521  owner() */\n      tag_276\n        /* \"@openzeppelin/contracts-upgradeable/access/OwnableUpgradeable.sol\":1514:1519  owner */\n      tag_124\n        /* \"@openzeppelin/contracts-upgradeable/access/OwnableUpgradeable.sol\":1514:1521  owner() */\n      jump\t// in\n    tag_276:\n      sub(shl(0xa0, 0x01), 0x01)\n        /* \"@openzeppelin/contracts-upgradeable/access/OwnableUpgradeable.sol\":1514:1537  owner() == _msgSender() */\n      and\n      eq\n        /* \"@openzeppelin/contracts-upgradeable/access/OwnableUpgradeable.sol\":1506:1574  require(owner() == _msgSender(), \"Ownable: caller is not the owner\") */\n      tag_277\n      jumpi\n      mload(0x40)\n      shl(0xe5, 0x461bcd)\n      dup2\n      mstore\n      0x04\n      add\n      tag_203\n      swap1\n      tag_230\n      jump\t// in\n    tag_277:\n        /* \"@openzeppelin/contracts-upgradeable/access/OwnableUpgradeable.sol\":1998:2028  _transferOwnership(address(0)) */\n      tag_280\n        /* \"@openzeppelin/contracts-upgradeable/access/OwnableUpgradeable.sol\":2025:2026  0 */\n      0x00\n        /* \"@openzeppelin/contracts-upgradeable/access/OwnableUpgradeable.sol\":1998:2016  _transferOwnership */\n      tag_281\n        /* \"@openzeppelin/contracts-upgradeable/access/OwnableUpgradeable.sol\":1998:2028  _transferOwnership(address(0)) */\n      jump\t// in\n    tag_280:\n        /* \"@openzeppelin/contracts-upgradeable/access/OwnableUpgradeable.sol\":1934:2035  function renounceOwnership() public virtual onlyOwner {... */\n      jump\t// out\n        /* \"contracts/mirrorseaMain.sol\":1508:1594  mapping(address => mapping(uint256 => uint256))... */\n    tag_110:\n      0x6f\n      0x20\n      swap1\n      dup2\n      mstore\n      0x00\n      swap3\n      dup4\n      mstore\n      0x40\n      dup1\n      dup5\n      keccak256\n      swap1\n      swap2\n      mstore\n      swap1\n      dup3\n      mstore\n      swap1\n      keccak256\n      sload\n      dup2\n      jump\t// out\n        /* \"contracts/mirrorseaMain.sol\":3326:3452  function setFeePercent(uint256 _val) external onlyOwner returns (bool) {... */\n    tag_114:\n        /* \"contracts/mirrorseaMain.sol\":3391:3395  bool */\n      0x00\n        /* \"@openzeppelin/contracts-upgradeable/access/OwnableUpgradeable.sol\":1525:1537  _msgSender() */\n      tag_283\n        /* \"@openzeppelin/contracts-upgradeable/access/OwnableUpgradeable.sol\":1525:1535  _msgSender */\n      tag_226\n        /* \"@openzeppelin/contracts-upgradeable/access/OwnableUpgradeable.sol\":1525:1537  _msgSender() */\n      jump\t// in\n    tag_283:\n      sub(shl(0xa0, 0x01), 0x01)\n        /* \"@openzeppelin/contracts-upgradeable/access/OwnableUpgradeable.sol\":1514:1537  owner() == _msgSender() */\n      and\n        /* \"@openzeppelin/contracts-upgradeable/access/OwnableUpgradeable.sol\":1514:1521  owner() */\n      tag_284\n        /* \"@openzeppelin/contracts-upgradeable/access/OwnableUpgradeable.sol\":1514:1519  owner */\n      tag_124\n        /* \"@openzeppelin/contracts-upgradeable/access/OwnableUpgradeable.sol\":1514:1521  owner() */\n      jump\t// in\n    tag_284:\n      sub(shl(0xa0, 0x01), 0x01)\n        /* \"@openzeppelin/contracts-upgradeable/access/OwnableUpgradeable.sol\":1514:1537  owner() == _msgSender() */\n      and\n      eq\n        /* \"@openzeppelin/contracts-upgradeable/access/OwnableUpgradeable.sol\":1506:1574  require(owner() == _msgSender(), \"Ownable: caller is not the owner\") */\n      tag_285\n      jumpi\n      mload(0x40)\n      shl(0xe5, 0x461bcd)\n      dup2\n      mstore\n      0x04\n      add\n      tag_203\n      swap1\n      tag_230\n      jump\t// in\n    tag_285:\n      pop\n        /* \"contracts/mirrorseaMain.sol\":3407:3417  feePercent */\n      0x72\n        /* \"contracts/mirrorseaMain.sol\":3407:3424  feePercent = _val */\n      sstore\n        /* \"contracts/mirrorseaMain.sol\":3441:3445  true */\n      0x01\n      swap1\n        /* \"contracts/mirrorseaMain.sol\":3326:3452  function setFeePercent(uint256 _val) external onlyOwner returns (bool) {... */\n      jump\t// out\n        /* \"contracts/mirrorseaMain.sol\":1233:1254  IOracle public oracle */\n    tag_117:\n      and(sub(shl(0xa0, 0x01), 0x01), sload(0x69))\n      dup2\n      jump\t// out\n        /* \"contracts/mirrorseaMain.sol\":1756:1781  uint256 public feePercent */\n    tag_121:\n      sload(0x72)\n      dup2\n      jump\t// out\n        /* \"@openzeppelin/contracts-upgradeable/access/OwnableUpgradeable.sol\":1302:1387  function owner() public view virtual returns (address) {... */\n    tag_124:\n        /* \"@openzeppelin/contracts-upgradeable/access/OwnableUpgradeable.sol\":1374:1380  _owner */\n      and(sub(shl(0xa0, 0x01), 0x01), sload(0x33))\n        /* \"@openzeppelin/contracts-upgradeable/access/OwnableUpgradeable.sol\":1302:1387  function owner() public view virtual returns (address) {... */\n      swap1\n      jump\t// out\n        /* \"contracts/mirrorseaMain.sol\":13234:13787  function forcedLiquidation(... */\n    tag_128:\n        /* \"contracts/mirrorseaMain.sol\":3233:3243  msg.sender */\n      caller\n        /* \"contracts/mirrorseaMain.sol\":13465:13469  bool */\n      0x00\n        /* \"contracts/mirrorseaMain.sol\":3224:3244  executor[msg.sender] */\n      swap1\n      dup2\n      mstore\n        /* \"contracts/mirrorseaMain.sol\":3224:3232  executor */\n      0x65\n        /* \"contracts/mirrorseaMain.sol\":3224:3244  executor[msg.sender] */\n      0x20\n      mstore\n      0x40\n      dup2\n      keccak256\n      sload\n      0xff\n      and\n        /* \"contracts/mirrorseaMain.sol\":3216:3285  require(executor[msg.sender], \"executor: caller is not the executor\") */\n      tag_290\n      jumpi\n      mload(0x40)\n      shl(0xe5, 0x461bcd)\n      dup2\n      mstore\n      0x04\n      add\n      tag_203\n      swap1\n      tag_235\n      jump\t// in\n    tag_290:\n        /* \"contracts/mirrorseaMain.sol\":13481:13504  OrderInfo storage order */\n      0x00\n        /* \"contracts/mirrorseaMain.sol\":13507:13522  _orderInfo[_id] */\n      dup7\n      dup2\n      mstore\n        /* \"contracts/mirrorseaMain.sol\":13507:13517  _orderInfo */\n      0x6a\n        /* \"contracts/mirrorseaMain.sol\":13507:13522  _orderInfo[_id] */\n      0x20\n      mstore\n      0x40\n      swap1\n      keccak256\n        /* \"contracts/mirrorseaMain.sol\":13551:13780  _closePosition(... */\n      tag_273\n        /* \"contracts/mirrorseaMain.sol\":13583:13595  _marketState */\n      dup9\n        /* \"contracts/mirrorseaMain.sol\":13507:13522  _orderInfo[_id] */\n      dup3\n        /* \"contracts/mirrorseaMain.sol\":13636:13637  4 */\n      0x04\n        /* \"contracts/mirrorseaMain.sol\":13518:13521  _id */\n      dup11\n        /* \"contracts/mirrorseaMain.sol\":13676:13686  _timestamp */\n      dup11\n        /* \"contracts/mirrorseaMain.sol\":13704:13712  _symbols */\n      dup11\n        /* \"contracts/mirrorseaMain.sol\":13730:13738  _price18 */\n      dup11\n        /* \"contracts/mirrorseaMain.sol\":13756:13766  _signature */\n      dup11\n        /* \"contracts/mirrorseaMain.sol\":13551:13565  _closePosition */\n      tag_252\n        /* \"contracts/mirrorseaMain.sol\":13551:13780  _closePosition(... */\n      jump\t// in\n        /* \"contracts/mirrorseaMain.sol\":15120:16858  function adjustPosition(... */\n    tag_133:\n        /* \"contracts/mirrorseaMain.sol\":15366:15370  bool */\n      0x00\n        /* \"contracts/mirrorseaMain.sol\":15408:15423  _orderInfo[_id] */\n      dup7\n      dup2\n      mstore\n        /* \"contracts/mirrorseaMain.sol\":15408:15418  _orderInfo */\n      0x6a\n        /* \"contracts/mirrorseaMain.sol\":15408:15423  _orderInfo[_id] */\n      0x20\n      mstore\n      0x40\n      dup2\n      keccak256\n        /* \"contracts/mirrorseaMain.sol\":15441:15451  order.user */\n      dup1\n      sload\n      sub(shl(0xa0, 0x01), 0x01)\n      and\n        /* \"contracts/mirrorseaMain.sol\":15433:15490  require(order.user != address(0), \"order does not exist\") */\n      tag_295\n      jumpi\n      mload(0x40)\n      shl(0xe5, 0x461bcd)\n      dup2\n      mstore\n      0x04\n      add\n      tag_203\n      swap1\n      tag_297\n      jump\t// in\n    tag_295:\n        /* \"contracts/mirrorseaMain.sol\":15522:15523  2 */\n      0x02\n        /* \"contracts/mirrorseaMain.sol\":15508:15513  order */\n      dup2\n        /* \"contracts/mirrorseaMain.sol\":15508:15519  order.state */\n      0x03\n      add\n      sload\n        /* \"contracts/mirrorseaMain.sol\":15508:15523  order.state < 2 */\n      lt\n        /* \"contracts/mirrorseaMain.sol\":15500:15537  require(order.state < 2, \"state err\") */\n      tag_298\n      jumpi\n      mload(0x40)\n      shl(0xe5, 0x461bcd)\n      dup2\n      mstore\n      0x04\n      add\n      tag_203\n      swap1\n      tag_300\n      jump\t// in\n    tag_298:\n        /* \"contracts/mirrorseaMain.sol\":15568:15574  oracle */\n      sload(0x69)\n        /* \"contracts/mirrorseaMain.sol\":15568:15733  oracle.getkey(... */\n      mload(0x40)\n      shl(0xe1, 0x11cdc9d9)\n      dup2\n      mstore\n      sub(shl(0xa0, 0x01), 0x01)\n        /* \"contracts/mirrorseaMain.sol\":15568:15574  oracle */\n      swap1\n      swap2\n      and\n      swap1\n        /* \"contracts/mirrorseaMain.sol\":15568:15581  oracle.getkey */\n      0x239b93b2\n      swap1\n        /* \"contracts/mirrorseaMain.sol\":15568:15733  oracle.getkey(... */\n      tag_301\n      swap1\n        /* \"contracts/mirrorseaMain.sol\":15599:15611  _marketState */\n      dup13\n      swap1\n        /* \"contracts/mirrorseaMain.sol\":15629:15637  _price18 */\n      dup10\n      swap1\n        /* \"contracts/mirrorseaMain.sol\":15655:15665  _timestamp */\n      dup13\n      swap1\n        /* \"contracts/mirrorseaMain.sol\":15683:15691  _symbols */\n      dup13\n      swap1\n        /* \"contracts/mirrorseaMain.sol\":15709:15719  _signature */\n      dup12\n      swap1\n        /* \"contracts/mirrorseaMain.sol\":15568:15733  oracle.getkey(... */\n      0x04\n      add\n      tag_302\n      jump\t// in\n    tag_301:\n      0x20\n      mload(0x40)\n      dup1\n      dup4\n      sub\n      dup2\n      dup7\n      dup1\n      extcodesize\n      iszero\n      dup1\n      iszero\n      tag_303\n      jumpi\n      0x00\n      dup1\n      revert\n    tag_303:\n      pop\n      gas\n      staticcall\n      iszero\n      dup1\n      iszero\n      tag_305\n      jumpi\n      returndatasize\n      0x00\n      dup1\n      returndatacopy\n      revert(0x00, returndatasize)\n    tag_305:\n      pop\n      pop\n      pop\n      pop\n      mload(0x40)\n      returndatasize\n      not(0x1f)\n      0x1f\n      dup3\n      add\n      and\n      dup3\n      add\n      dup1\n      0x40\n      mstore\n      pop\n      dup2\n      add\n      swap1\n      tag_306\n      swap2\n      swap1\n      tag_307\n      jump\t// in\n    tag_306:\n        /* \"contracts/mirrorseaMain.sol\":15547:15769  require(... */\n      tag_308\n      jumpi\n      mload(0x40)\n      shl(0xe5, 0x461bcd)\n      dup2\n      mstore\n      0x04\n      add\n      tag_203\n      swap1\n      tag_310\n      jump\t// in\n    tag_308:\n        /* \"contracts/mirrorseaMain.sol\":15787:15827  _isSolvent(_id, _price18, _adjustMargin) */\n      tag_311\n        /* \"contracts/mirrorseaMain.sol\":15798:15801  _id */\n      dup9\n        /* \"contracts/mirrorseaMain.sol\":15803:15811  _price18 */\n      dup7\n        /* \"contracts/mirrorseaMain.sol\":15813:15826  _adjustMargin */\n      dup6\n        /* \"contracts/mirrorseaMain.sol\":15787:15797  _isSolvent */\n      tag_244\n        /* \"contracts/mirrorseaMain.sol\":15787:15827  _isSolvent(_id, _price18, _adjustMargin) */\n      jump\t// in\n    tag_311:\n        /* \"contracts/mirrorseaMain.sol\":15779:15848  require(_isSolvent(_id, _price18, _adjustMargin), \"User is bankrupt\") */\n      tag_312\n      jumpi\n      mload(0x40)\n      shl(0xe5, 0x461bcd)\n      dup2\n      mstore\n      0x04\n      add\n      tag_203\n      swap1\n      tag_314\n      jump\t// in\n    tag_312:\n        /* \"contracts/mirrorseaMain.sol\":15859:15870  uint256 fee */\n      0x00\n        /* \"contracts/mirrorseaMain.sol\":15873:16002  order... */\n      tag_315\n        /* \"contracts/mirrorseaMain.sol\":15997:16001  1e18 */\n      0x0de0b6b3a7640000\n        /* \"contracts/mirrorseaMain.sol\":15873:15979  order... */\n      tag_317\n        /* \"contracts/mirrorseaMain.sol\":15969:15978  PRECISION */\n      sload(0x73)\n        /* \"contracts/mirrorseaMain.sol\":15873:15951  order... */\n      tag_317\n        /* \"contracts/mirrorseaMain.sol\":15940:15950  feePercent */\n      sload(0x72)\n        /* \"contracts/mirrorseaMain.sol\":15873:15922  order... */\n      tag_318\n        /* \"contracts/mirrorseaMain.sol\":15913:15921  _price18 */\n      dup13\n        /* \"contracts/mirrorseaMain.sol\":15873:15878  order */\n      dup10\n        /* \"contracts/mirrorseaMain.sol\":15873:15895  order... */\n      0x09\n      add\n      sload\n        /* \"contracts/mirrorseaMain.sol\":15873:15912  order... */\n      tag_196\n      swap1\n        /* \"contracts/mirrorseaMain.sol\":15873:15922  order... */\n      swap2\n      swap1\n      0xffffffff\n      and\n      jump\t// in\n    tag_318:\n        /* \"contracts/mirrorseaMain.sol\":15873:15939  order... */\n      swap1\n      tag_196\n        /* \"contracts/mirrorseaMain.sol\":15873:15951  order... */\n      jump\t// in\n    tag_317:\n        /* \"contracts/mirrorseaMain.sol\":15873:15968  order... */\n      swap1\n      tag_319\n        /* \"contracts/mirrorseaMain.sol\":15873:15979  order... */\n      jump\t// in\n        /* \"contracts/mirrorseaMain.sol\":15873:16002  order... */\n    tag_315:\n        /* \"contracts/mirrorseaMain.sol\":15859:16002  uint256 fee = order... */\n      swap1\n      pop\n        /* \"contracts/mirrorseaMain.sol\":16012:16024  uint256 earn */\n      0x00\n        /* \"contracts/mirrorseaMain.sol\":16027:16132  (_price18.mul(order.amt).div(1e18)).sub(... */\n      tag_320\n        /* \"contracts/mirrorseaMain.sol\":16080:16122  order.openPrice18.mul(order.amt).div(1e18) */\n      tag_321\n        /* \"contracts/mirrorseaMain.sol\":16117:16121  1e18 */\n      0x0de0b6b3a7640000\n        /* \"contracts/mirrorseaMain.sol\":16080:16112  order.openPrice18.mul(order.amt) */\n      tag_317\n        /* \"contracts/mirrorseaMain.sol\":16102:16107  order */\n      dup7\n        /* \"contracts/mirrorseaMain.sol\":16102:16111  order.amt */\n      0x09\n      add\n      sload\n        /* \"contracts/mirrorseaMain.sol\":16080:16085  order */\n      dup8\n        /* \"contracts/mirrorseaMain.sol\":16080:16097  order.openPrice18 */\n      0x05\n      add\n      sload\n        /* \"contracts/mirrorseaMain.sol\":16080:16101  order.openPrice18.mul */\n      tag_196\n      swap1\n        /* \"contracts/mirrorseaMain.sol\":16080:16112  order.openPrice18.mul(order.amt) */\n      swap2\n      swap1\n      0xffffffff\n      and\n      jump\t// in\n        /* \"contracts/mirrorseaMain.sol\":16080:16122  order.openPrice18.mul(order.amt).div(1e18) */\n    tag_321:\n        /* \"contracts/mirrorseaMain.sol\":16028:16061  _price18.mul(order.amt).div(1e18) */\n      tag_195\n        /* \"contracts/mirrorseaMain.sol\":16056:16060  1e18 */\n      0x0de0b6b3a7640000\n        /* \"contracts/mirrorseaMain.sol\":16028:16051  _price18.mul(order.amt) */\n      tag_317\n        /* \"contracts/mirrorseaMain.sol\":16041:16046  order */\n      dup8\n        /* \"contracts/mirrorseaMain.sol\":16041:16050  order.amt */\n      0x09\n      add\n      sload\n        /* \"contracts/mirrorseaMain.sol\":16028:16036  _price18 */\n      dup13\n        /* \"contracts/mirrorseaMain.sol\":16028:16040  _price18.mul */\n      tag_196\n      swap1\n        /* \"contracts/mirrorseaMain.sol\":16028:16051  _price18.mul(order.amt) */\n      swap2\n      swap1\n      0xffffffff\n      and\n      jump\t// in\n        /* \"contracts/mirrorseaMain.sol\":16027:16132  (_price18.mul(order.amt).div(1e18)).sub(... */\n    tag_320:\n        /* \"contracts/mirrorseaMain.sol\":16012:16132  uint256 earn = (_price18.mul(order.amt).div(1e18)).sub(... */\n      swap1\n      pop\n        /* \"contracts/mirrorseaMain.sol\":16142:16159  uint256 nowMargin */\n      0x00\n        /* \"contracts/mirrorseaMain.sol\":16162:16184  order.margin.add(earn) */\n      tag_325\n        /* \"contracts/mirrorseaMain.sol\":16179:16183  earn */\n      dup3\n        /* \"contracts/mirrorseaMain.sol\":16162:16167  order */\n      dup6\n        /* \"contracts/mirrorseaMain.sol\":16162:16174  order.margin */\n      0x0a\n      add\n      sload\n        /* \"contracts/mirrorseaMain.sol\":16162:16178  order.margin.add */\n      tag_326\n      swap1\n        /* \"contracts/mirrorseaMain.sol\":16162:16184  order.margin.add(earn) */\n      swap2\n      swap1\n      0xffffffff\n      and\n      jump\t// in\n    tag_325:\n        /* \"contracts/mirrorseaMain.sol\":16142:16184  uint256 nowMargin = order.margin.add(earn) */\n      swap1\n      pop\n        /* \"contracts/mirrorseaMain.sol\":16194:16212  uint256 diffMargin */\n      0x00\n        /* \"contracts/mirrorseaMain.sol\":16142:16184  uint256 nowMargin = order.margin.add(earn) */\n      dup2\n        /* \"contracts/mirrorseaMain.sol\":16226:16248  _adjustMargin.sub(fee) */\n      tag_327\n        /* \"contracts/mirrorseaMain.sol\":16226:16239  _adjustMargin */\n      dup9\n        /* \"contracts/mirrorseaMain.sol\":16244:16247  fee */\n      dup7\n        /* \"contracts/mirrorseaMain.sol\":16226:16243  _adjustMargin.sub */\n      tag_197\n        /* \"contracts/mirrorseaMain.sol\":16226:16248  _adjustMargin.sub(fee) */\n      jump\t// in\n    tag_327:\n        /* \"contracts/mirrorseaMain.sol\":16226:16260  _adjustMargin.sub(fee) > nowMargin */\n      gt\n        /* \"contracts/mirrorseaMain.sol\":16222:16601  if (_adjustMargin.sub(fee) > nowMargin) {... */\n      iszero\n      tag_328\n      jumpi\n        /* \"contracts/mirrorseaMain.sol\":16289:16326  _adjustMargin.sub(fee).sub(nowMargin) */\n      tag_329\n        /* \"contracts/mirrorseaMain.sol\":16316:16325  nowMargin */\n      dup3\n        /* \"contracts/mirrorseaMain.sol\":16289:16311  _adjustMargin.sub(fee) */\n      tag_195\n        /* \"contracts/mirrorseaMain.sol\":16289:16302  _adjustMargin */\n      dup10\n        /* \"contracts/mirrorseaMain.sol\":16307:16310  fee */\n      dup8\n        /* \"contracts/mirrorseaMain.sol\":16289:16306  _adjustMargin.sub */\n      tag_197\n        /* \"contracts/mirrorseaMain.sol\":16289:16311  _adjustMargin.sub(fee) */\n      jump\t// in\n        /* \"contracts/mirrorseaMain.sol\":16289:16326  _adjustMargin.sub(fee).sub(nowMargin) */\n    tag_329:\n        /* \"contracts/mirrorseaMain.sol\":16340:16343  usc */\n      sload(0x67)\n        /* \"contracts/mirrorseaMain.sol\":16276:16326  diffMargin = _adjustMargin.sub(fee).sub(nowMargin) */\n      swap1\n      swap2\n      pop\n        /* \"contracts/mirrorseaMain.sol\":16340:16399  usc.safeTransferFrom(msg.sender, address(this), diffMargin) */\n      tag_331\n      swap1\n      sub(shl(0xa0, 0x01), 0x01)\n        /* \"contracts/mirrorseaMain.sol\":16340:16343  usc */\n      and\n        /* \"contracts/mirrorseaMain.sol\":16361:16371  msg.sender */\n      caller\n        /* \"contracts/mirrorseaMain.sol\":16381:16385  this */\n      address\n        /* \"contracts/mirrorseaMain.sol\":16276:16326  diffMargin = _adjustMargin.sub(fee).sub(nowMargin) */\n      dup5\n        /* \"contracts/mirrorseaMain.sol\":16340:16360  usc.safeTransferFrom */\n      tag_332\n        /* \"contracts/mirrorseaMain.sol\":16340:16399  usc.safeTransferFrom(msg.sender, address(this), diffMargin) */\n      jump\t// in\n    tag_331:\n        /* \"contracts/mirrorseaMain.sol\":16426:16429  usc */\n      sload(0x67)\n        /* \"contracts/mirrorseaMain.sol\":16413:16448  IUSC(address(usc)).burn(diffMargin) */\n      mload(0x40)\n      shl(0xe3, 0x0852cd8d)\n      dup2\n      mstore\n      sub(shl(0xa0, 0x01), 0x01)\n        /* \"contracts/mirrorseaMain.sol\":16426:16429  usc */\n      swap1\n      swap2\n      and\n      swap1\n        /* \"contracts/mirrorseaMain.sol\":16413:16436  IUSC(address(usc)).burn */\n      0x42966c68\n      swap1\n        /* \"contracts/mirrorseaMain.sol\":16413:16448  IUSC(address(usc)).burn(diffMargin) */\n      tag_333\n      swap1\n        /* \"contracts/mirrorseaMain.sol\":16437:16447  diffMargin */\n      dup5\n      swap1\n        /* \"contracts/mirrorseaMain.sol\":16413:16448  IUSC(address(usc)).burn(diffMargin) */\n      0x04\n      add\n      tag_54\n      jump\t// in\n    tag_333:\n      0x00\n      mload(0x40)\n      dup1\n      dup4\n      sub\n      dup2\n      0x00\n      dup8\n      dup1\n      extcodesize\n      iszero\n      dup1\n      iszero\n      tag_334\n      jumpi\n      0x00\n      dup1\n      revert\n    tag_334:\n      pop\n      gas\n      call\n      iszero\n      dup1\n      iszero\n      tag_336\n      jumpi\n      returndatasize\n      0x00\n      dup1\n      returndatacopy\n      revert(0x00, returndatasize)\n    tag_336:\n      pop\n      pop\n      pop\n      pop\n        /* \"contracts/mirrorseaMain.sol\":16222:16601  if (_adjustMargin.sub(fee) > nowMargin) {... */\n      jump(tag_337)\n    tag_328:\n        /* \"contracts/mirrorseaMain.sol\":16492:16529  nowMargin.sub(_adjustMargin.sub(fee)) */\n      tag_338\n        /* \"contracts/mirrorseaMain.sol\":16506:16528  _adjustMargin.sub(fee) */\n      tag_339\n        /* \"contracts/mirrorseaMain.sol\":16506:16519  _adjustMargin */\n      dup9\n        /* \"contracts/mirrorseaMain.sol\":16524:16527  fee */\n      dup7\n        /* \"contracts/mirrorseaMain.sol\":16506:16523  _adjustMargin.sub */\n      tag_197\n        /* \"contracts/mirrorseaMain.sol\":16506:16528  _adjustMargin.sub(fee) */\n      jump\t// in\n    tag_339:\n        /* \"contracts/mirrorseaMain.sol\":16492:16501  nowMargin */\n      dup4\n      swap1\n        /* \"contracts/mirrorseaMain.sol\":16492:16505  nowMargin.sub */\n      tag_197\n        /* \"contracts/mirrorseaMain.sol\":16492:16529  nowMargin.sub(_adjustMargin.sub(fee)) */\n      jump\t// in\n    tag_338:\n        /* \"contracts/mirrorseaMain.sol\":16556:16559  usc */\n      sload(0x67)\n        /* \"contracts/mirrorseaMain.sol\":16567:16577  order.user */\n      dup7\n      sload\n        /* \"contracts/mirrorseaMain.sol\":16543:16590  IUSC(address(usc)).mint(order.user, diffMargin) */\n      mload(0x40)\n      shl(0xe0, 0x40c10f19)\n      dup2\n      mstore\n        /* \"contracts/mirrorseaMain.sol\":16479:16529  diffMargin = nowMargin.sub(_adjustMargin.sub(fee)) */\n      swap3\n      swap4\n      pop\n      sub(shl(0xa0, 0x01), 0x01)\n        /* \"contracts/mirrorseaMain.sol\":16556:16559  usc */\n      swap2\n      dup3\n      and\n      swap3\n        /* \"contracts/mirrorseaMain.sol\":16543:16566  IUSC(address(usc)).mint */\n      0x40c10f19\n      swap3\n        /* \"contracts/mirrorseaMain.sol\":16543:16590  IUSC(address(usc)).mint(order.user, diffMargin) */\n      tag_340\n      swap3\n        /* \"contracts/mirrorseaMain.sol\":16567:16577  order.user */\n      and\n      swap1\n        /* \"contracts/mirrorseaMain.sol\":16479:16529  diffMargin = nowMargin.sub(_adjustMargin.sub(fee)) */\n      dup6\n      swap1\n        /* \"contracts/mirrorseaMain.sol\":16543:16590  IUSC(address(usc)).mint(order.user, diffMargin) */\n      0x04\n      add\n      tag_341\n      jump\t// in\n    tag_340:\n      0x20\n      mload(0x40)\n      dup1\n      dup4\n      sub\n      dup2\n      0x00\n      dup8\n      dup1\n      extcodesize\n      iszero\n      dup1\n      iszero\n      tag_342\n      jumpi\n      0x00\n      dup1\n      revert\n    tag_342:\n      pop\n      gas\n      call\n      iszero\n      dup1\n      iszero\n      tag_344\n      jumpi\n      returndatasize\n      0x00\n      dup1\n      returndatacopy\n      revert(0x00, returndatasize)\n    tag_344:\n      pop\n      pop\n      pop\n      pop\n      mload(0x40)\n      returndatasize\n      not(0x1f)\n      0x1f\n      dup3\n      add\n      and\n      dup3\n      add\n      dup1\n      0x40\n      mstore\n      pop\n      dup2\n      add\n      swap1\n      tag_345\n      swap2\n      swap1\n      tag_307\n      jump\t// in\n    tag_345:\n      pop\n        /* \"contracts/mirrorseaMain.sol\":16222:16601  if (_adjustMargin.sub(fee) > nowMargin) {... */\n    tag_337:\n        /* \"contracts/mirrorseaMain.sol\":16623:16626  usc */\n      sload(0x67)\n        /* \"contracts/mirrorseaMain.sol\":16610:16653  IUSC(address(usc)).mint(address(this), fee) */\n      mload(0x40)\n      shl(0xe0, 0x40c10f19)\n      dup2\n      mstore\n      sub(shl(0xa0, 0x01), 0x01)\n        /* \"contracts/mirrorseaMain.sol\":16623:16626  usc */\n      swap1\n      swap2\n      and\n      swap1\n        /* \"contracts/mirrorseaMain.sol\":16610:16633  IUSC(address(usc)).mint */\n      0x40c10f19\n      swap1\n        /* \"contracts/mirrorseaMain.sol\":16610:16653  IUSC(address(usc)).mint(address(this), fee) */\n      tag_346\n      swap1\n        /* \"contracts/mirrorseaMain.sol\":16642:16646  this */\n      address\n      swap1\n        /* \"contracts/mirrorseaMain.sol\":16649:16652  fee */\n      dup9\n      swap1\n        /* \"contracts/mirrorseaMain.sol\":16610:16653  IUSC(address(usc)).mint(address(this), fee) */\n      0x04\n      add\n      tag_341\n      jump\t// in\n    tag_346:\n      0x20\n      mload(0x40)\n      dup1\n      dup4\n      sub\n      dup2\n      0x00\n      dup8\n      dup1\n      extcodesize\n      iszero\n      dup1\n      iszero\n      tag_347\n      jumpi\n      0x00\n      dup1\n      revert\n    tag_347:\n      pop\n      gas\n      call\n      iszero\n      dup1\n      iszero\n      tag_349\n      jumpi\n      returndatasize\n      0x00\n      dup1\n      returndatacopy\n      revert(0x00, returndatasize)\n    tag_349:\n      pop\n      pop\n      pop\n      pop\n      mload(0x40)\n      returndatasize\n      not(0x1f)\n      0x1f\n      dup3\n      add\n      and\n      dup3\n      add\n      dup1\n      0x40\n      mstore\n      pop\n      dup2\n      add\n      swap1\n      tag_350\n      swap2\n      swap1\n      tag_307\n      jump\t// in\n    tag_350:\n      pop\n        /* \"contracts/mirrorseaMain.sol\":16688:16699  helperLogic */\n      sload(0x68)\n        /* \"contracts/mirrorseaMain.sol\":16663:16666  usc */\n      sload(0x67)\n        /* \"contracts/mirrorseaMain.sol\":16663:16706  usc.safeTransfer(address(helperLogic), fee) */\n      tag_351\n      swap2\n      sub(shl(0xa0, 0x01), 0x01)\n        /* \"contracts/mirrorseaMain.sol\":16663:16666  usc */\n      swap2\n      dup3\n      and\n      swap2\n        /* \"contracts/mirrorseaMain.sol\":16688:16699  helperLogic */\n      and\n        /* \"contracts/mirrorseaMain.sol\":16702:16705  fee */\n      dup7\n        /* \"contracts/mirrorseaMain.sol\":16663:16679  usc.safeTransfer */\n      tag_352\n        /* \"contracts/mirrorseaMain.sol\":16663:16706  usc.safeTransfer(address(helperLogic), fee) */\n      jump\t// in\n    tag_351:\n        /* \"contracts/mirrorseaMain.sol\":16716:16727  helperLogic */\n      0x68\n      0x00\n      swap1\n      sload\n      swap1\n      0x0100\n      exp\n      swap1\n      div\n      sub(shl(0xa0, 0x01), 0x01)\n      and\n      sub(shl(0xa0, 0x01), 0x01)\n        /* \"contracts/mirrorseaMain.sol\":16716:16742  helperLogic.jointExecution */\n      and\n      0xd10c06a2\n        /* \"contracts/mirrorseaMain.sol\":16716:16744  helperLogic.jointExecution() */\n      mload(0x40)\n      dup2\n      0xffffffff\n      and\n      0xe0\n      shl\n      dup2\n      mstore\n      0x04\n      add\n      0x20\n      mload(0x40)\n      dup1\n      dup4\n      sub\n      dup2\n      0x00\n      dup8\n      dup1\n      extcodesize\n      iszero\n      dup1\n      iszero\n      tag_353\n      jumpi\n      0x00\n      dup1\n      revert\n    tag_353:\n      pop\n      gas\n      call\n      iszero\n      dup1\n      iszero\n      tag_355\n      jumpi\n      returndatasize\n      0x00\n      dup1\n      returndatacopy\n      revert(0x00, returndatasize)\n    tag_355:\n      pop\n      pop\n      pop\n      pop\n      mload(0x40)\n      returndatasize\n      not(0x1f)\n      0x1f\n      dup3\n      add\n      and\n      dup3\n      add\n      dup1\n      0x40\n      mstore\n      pop\n      dup2\n      add\n      swap1\n      tag_356\n      swap2\n      swap1\n      tag_307\n      jump\t// in\n    tag_356:\n      pop\n        /* \"contracts/mirrorseaMain.sol\":16770:16792  _adjustMargin.sub(fee) */\n      tag_357\n        /* \"contracts/mirrorseaMain.sol\":16770:16783  _adjustMargin */\n      dup8\n        /* \"contracts/mirrorseaMain.sol\":16788:16791  fee */\n      dup6\n        /* \"contracts/mirrorseaMain.sol\":16770:16787  _adjustMargin.sub */\n      tag_197\n        /* \"contracts/mirrorseaMain.sol\":16770:16792  _adjustMargin.sub(fee) */\n      jump\t// in\n    tag_357:\n        /* \"contracts/mirrorseaMain.sol\":16755:16767  order.margin */\n      0x0a\n      dup7\n      add\n        /* \"contracts/mirrorseaMain.sol\":16755:16792  order.margin = _adjustMargin.sub(fee) */\n      sstore\n      pop\n      pop\n      pop\n      pop\n        /* \"contracts/mirrorseaMain.sol\":16802:16819  order.openPrice18 */\n      0x05\n      add\n        /* \"contracts/mirrorseaMain.sol\":16802:16830  order.openPrice18 = _price18 */\n      dup5\n      swap1\n      sstore\n      pop\n        /* \"contracts/mirrorseaMain.sol\":16847:16851  true */\n      0x01\n        /* \"contracts/mirrorseaMain.sol\":15120:16858  function adjustPosition(... */\n      swap8\n      swap7\n      pop\n      pop\n      pop\n      pop\n      pop\n      pop\n      pop\n      jump\t// out\n        /* \"contracts/mirrorseaMain.sol\":1787:1811  uint256 public PRECISION */\n    tag_136:\n      sload(0x73)\n      dup2\n      jump\t// out\n        /* \"contracts/mirrorseaMain.sol\":2830:2993  function myCloseOrderIdListLength(address _user)... */\n    tag_140:\n      sub(shl(0xa0, 0x01), 0x01)\n        /* \"contracts/mirrorseaMain.sol\":2954:2979  myCloseOrderIdList[_user] */\n      and\n        /* \"contracts/mirrorseaMain.sol\":2924:2931  uint256 */\n      0x00\n        /* \"contracts/mirrorseaMain.sol\":2954:2979  myCloseOrderIdList[_user] */\n      swap1\n      dup2\n      mstore\n        /* \"contracts/mirrorseaMain.sol\":2954:2972  myCloseOrderIdList */\n      0x70\n        /* \"contracts/mirrorseaMain.sol\":2954:2979  myCloseOrderIdList[_user] */\n      0x20\n      mstore\n      0x40\n      swap1\n      keccak256\n        /* \"contracts/mirrorseaMain.sol\":2954:2986  myCloseOrderIdList[_user].length */\n      sload\n      swap1\n        /* \"contracts/mirrorseaMain.sol\":2830:2993  function myCloseOrderIdListLength(address _user)... */\n      jump\t// out\n        /* \"contracts/mirrorseaMain.sol\":1448:1502  mapping(address => uint256[]) public myOpenOrderIdList */\n    tag_144:\n      mstore(0x20, 0x6e)\n      dup2\n      0x00\n      mstore\n      keccak256(0x00, 0x40)\n      dup2\n      dup2\n      sload\n      dup2\n      lt\n      tag_359\n      jumpi\n      0x00\n      dup1\n      revert\n    tag_359:\n      swap1\n      0x00\n      mstore\n      keccak256(0x00, 0x20)\n      add\n      0x00\n      swap2\n      pop\n      swap2\n      pop\n      pop\n      sload\n      dup2\n      jump\t// out\n        /* \"contracts/mirrorseaMain.sol\":5781:7670  function openPosition(... */\n    tag_149:\n        /* \"contracts/mirrorseaMain.sol\":6124:6134  OrderIndex */\n      sload(0x6b)\n        /* \"contracts/mirrorseaMain.sol\":6071:6075  bool */\n      0x00\n        /* \"contracts/mirrorseaMain.sol\":6113:6135  _orderInfo[OrderIndex] */\n      swap1\n      dup2\n      mstore\n        /* \"contracts/mirrorseaMain.sol\":6113:6123  _orderInfo */\n      0x6a\n        /* \"contracts/mirrorseaMain.sol\":6113:6135  _orderInfo[OrderIndex] */\n      0x20\n      mstore\n      0x40\n      dup2\n      keccak256\n        /* \"contracts/mirrorseaMain.sol\":6153:6165  _margin != 0 */\n      dup10\n        /* \"contracts/mirrorseaMain.sol\":6145:6184  require(_margin != 0, \"margin no good\") */\n      tag_362\n      jumpi\n      mload(0x40)\n      shl(0xe5, 0x461bcd)\n      dup2\n      mstore\n      0x04\n      add\n      tag_203\n      swap1\n      tag_364\n      jump\t// in\n    tag_362:\n        /* \"contracts/mirrorseaMain.sol\":6202:6213  order.state */\n      0x03\n      dup2\n      add\n      sload\n        /* \"contracts/mirrorseaMain.sol\":6202:6218  order.state == 0 */\n      iszero\n        /* \"contracts/mirrorseaMain.sol\":6194:6232  require(order.state == 0, \"state err\") */\n      tag_365\n      jumpi\n      mload(0x40)\n      shl(0xe5, 0x461bcd)\n      dup2\n      mstore\n      0x04\n      add\n      tag_203\n      swap1\n      tag_300\n      jump\t// in\n    tag_365:\n        /* \"contracts/mirrorseaMain.sol\":6263:6269  oracle */\n      sload(0x69)\n        /* \"contracts/mirrorseaMain.sol\":6263:6428  oracle.getkey(... */\n      mload(0x40)\n      shl(0xe1, 0x11cdc9d9)\n      dup2\n      mstore\n      sub(shl(0xa0, 0x01), 0x01)\n        /* \"contracts/mirrorseaMain.sol\":6263:6269  oracle */\n      swap1\n      swap2\n      and\n      swap1\n        /* \"contracts/mirrorseaMain.sol\":6263:6276  oracle.getkey */\n      0x239b93b2\n      swap1\n        /* \"contracts/mirrorseaMain.sol\":6263:6428  oracle.getkey(... */\n      tag_367\n      swap1\n        /* \"contracts/mirrorseaMain.sol\":6294:6306  _marketState */\n      dup15\n      swap1\n        /* \"contracts/mirrorseaMain.sol\":6324:6332  _price18 */\n      dup10\n      swap1\n        /* \"contracts/mirrorseaMain.sol\":6350:6360  _timestamp */\n      dup15\n      swap1\n        /* \"contracts/mirrorseaMain.sol\":6378:6386  _symbols */\n      dup13\n      swap1\n        /* \"contracts/mirrorseaMain.sol\":6404:6414  _signature */\n      dup11\n      swap1\n        /* \"contracts/mirrorseaMain.sol\":6263:6428  oracle.getkey(... */\n      0x04\n      add\n      tag_302\n      jump\t// in\n    tag_367:\n      0x20\n      mload(0x40)\n      dup1\n      dup4\n      sub\n      dup2\n      dup7\n      dup1\n      extcodesize\n      iszero\n      dup1\n      iszero\n      tag_368\n      jumpi\n      0x00\n      dup1\n      revert\n    tag_368:\n      pop\n      gas\n      staticcall\n      iszero\n      dup1\n      iszero\n      tag_370\n      jumpi\n      returndatasize\n      0x00\n      dup1\n      returndatacopy\n      revert(0x00, returndatasize)\n    tag_370:\n      pop\n      pop\n      pop\n      pop\n      mload(0x40)\n      returndatasize\n      not(0x1f)\n      0x1f\n      dup3\n      add\n      and\n      dup3\n      add\n      dup1\n      0x40\n      mstore\n      pop\n      dup2\n      add\n      swap1\n      tag_371\n      swap2\n      swap1\n      tag_307\n      jump\t// in\n    tag_371:\n        /* \"contracts/mirrorseaMain.sol\":6242:6464  require(... */\n      tag_372\n      jumpi\n      mload(0x40)\n      shl(0xe5, 0x461bcd)\n      dup2\n      mstore\n      0x04\n      add\n      tag_203\n      swap1\n      tag_310\n      jump\t// in\n    tag_372:\n        /* \"contracts/mirrorseaMain.sol\":6492:6498  minVal */\n      sload(0x74)\n        /* \"contracts/mirrorseaMain.sol\":6482:6489  _margin */\n      dup11\n        /* \"contracts/mirrorseaMain.sol\":6482:6498  _margin > minVal */\n      gt\n        /* \"contracts/mirrorseaMain.sol\":6474:6538  require(_margin > minVal, \"The transaction amount is too small\") */\n      tag_374\n      jumpi\n      mload(0x40)\n      shl(0xe5, 0x461bcd)\n      dup2\n      mstore\n      0x04\n      add\n      tag_203\n      swap1\n      tag_376\n      jump\t// in\n    tag_374:\n        /* \"contracts/mirrorseaMain.sol\":6549:6552  usc */\n      sload(0x67)\n        /* \"contracts/mirrorseaMain.sol\":6549:6605  usc.safeTransferFrom(msg.sender, address(this), _margin) */\n      tag_377\n      swap1\n      sub(shl(0xa0, 0x01), 0x01)\n        /* \"contracts/mirrorseaMain.sol\":6549:6552  usc */\n      and\n        /* \"contracts/mirrorseaMain.sol\":6570:6580  msg.sender */\n      caller\n        /* \"contracts/mirrorseaMain.sol\":6590:6594  this */\n      address\n        /* \"contracts/mirrorseaMain.sol\":6597:6604  _margin */\n      dup14\n        /* \"contracts/mirrorseaMain.sol\":6549:6569  usc.safeTransferFrom */\n      tag_332\n        /* \"contracts/mirrorseaMain.sol\":6549:6605  usc.safeTransferFrom(msg.sender, address(this), _margin) */\n      jump\t// in\n    tag_377:\n        /* \"contracts/mirrorseaMain.sol\":6638:6641  usc */\n      sload(0x67)\n        /* \"contracts/mirrorseaMain.sol\":6638:6666  usc.balanceOf(address(this)) */\n      mload(0x40)\n      shl(0xe0, 0x70a08231)\n      dup2\n      mstore\n        /* \"contracts/mirrorseaMain.sol\":6615:6635  uint256 uscBalanceOf */\n      0x00\n      swap2\n      sub(shl(0xa0, 0x01), 0x01)\n        /* \"contracts/mirrorseaMain.sol\":6638:6641  usc */\n      and\n      swap1\n        /* \"contracts/mirrorseaMain.sol\":6638:6651  usc.balanceOf */\n      0x70a08231\n      swap1\n        /* \"contracts/mirrorseaMain.sol\":6638:6666  usc.balanceOf(address(this)) */\n      tag_378\n      swap1\n        /* \"contracts/mirrorseaMain.sol\":6660:6664  this */\n      address\n      swap1\n        /* \"contracts/mirrorseaMain.sol\":6638:6666  usc.balanceOf(address(this)) */\n      0x04\n      add\n      tag_72\n      jump\t// in\n    tag_378:\n      0x20\n      mload(0x40)\n      dup1\n      dup4\n      sub\n      dup2\n      dup7\n      dup1\n      extcodesize\n      iszero\n      dup1\n      iszero\n      tag_379\n      jumpi\n      0x00\n      dup1\n      revert\n    tag_379:\n      pop\n      gas\n      staticcall\n      iszero\n      dup1\n      iszero\n      tag_381\n      jumpi\n      returndatasize\n      0x00\n      dup1\n      returndatacopy\n      revert(0x00, returndatasize)\n    tag_381:\n      pop\n      pop\n      pop\n      pop\n      mload(0x40)\n      returndatasize\n      not(0x1f)\n      0x1f\n      dup3\n      add\n      and\n      dup3\n      add\n      dup1\n      0x40\n      mstore\n      pop\n      dup2\n      add\n      swap1\n      tag_382\n      swap2\n      swap1\n      tag_383\n      jump\t// in\n    tag_382:\n        /* \"contracts/mirrorseaMain.sol\":6615:6666  uint256 uscBalanceOf = usc.balanceOf(address(this)) */\n      swap1\n      pop\n        /* \"contracts/mirrorseaMain.sol\":6676:6687  uint256 fee */\n      0x00\n        /* \"contracts/mirrorseaMain.sol\":6690:6771  _price18.mul(_amt).mul(feePercent).div(PRECISION).div(... */\n      tag_384\n        /* \"contracts/mirrorseaMain.sol\":6757:6761  1e18 */\n      0x0de0b6b3a7640000\n        /* \"contracts/mirrorseaMain.sol\":6690:6739  _price18.mul(_amt).mul(feePercent).div(PRECISION) */\n      tag_317\n        /* \"contracts/mirrorseaMain.sol\":6729:6738  PRECISION */\n      sload(0x73)\n        /* \"contracts/mirrorseaMain.sol\":6690:6724  _price18.mul(_amt).mul(feePercent) */\n      tag_317\n        /* \"contracts/mirrorseaMain.sol\":6713:6723  feePercent */\n      sload(0x72)\n        /* \"contracts/mirrorseaMain.sol\":6690:6708  _price18.mul(_amt) */\n      tag_318\n        /* \"contracts/mirrorseaMain.sol\":6703:6707  _amt */\n      dup13\n        /* \"contracts/mirrorseaMain.sol\":6690:6698  _price18 */\n      dup15\n        /* \"contracts/mirrorseaMain.sol\":6690:6702  _price18.mul */\n      tag_196\n      swap1\n        /* \"contracts/mirrorseaMain.sol\":6690:6708  _price18.mul(_amt) */\n      swap2\n      swap1\n      0xffffffff\n      and\n      jump\t// in\n        /* \"contracts/mirrorseaMain.sol\":6690:6771  _price18.mul(_amt).mul(feePercent).div(PRECISION).div(... */\n    tag_384:\n        /* \"contracts/mirrorseaMain.sol\":6806:6817  helperLogic */\n      sload(0x68)\n        /* \"contracts/mirrorseaMain.sol\":6781:6784  usc */\n      sload(0x67)\n        /* \"contracts/mirrorseaMain.sol\":6676:6771  uint256 fee = _price18.mul(_amt).mul(feePercent).div(PRECISION).div(... */\n      swap2\n      swap3\n      pop\n        /* \"contracts/mirrorseaMain.sol\":6781:6824  usc.safeTransfer(address(helperLogic), fee) */\n      tag_388\n      swap2\n      sub(shl(0xa0, 0x01), 0x01)\n        /* \"contracts/mirrorseaMain.sol\":6781:6784  usc */\n      swap1\n      dup2\n      and\n      swap2\n        /* \"contracts/mirrorseaMain.sol\":6806:6817  helperLogic */\n      and\n        /* \"contracts/mirrorseaMain.sol\":6676:6771  uint256 fee = _price18.mul(_amt).mul(feePercent).div(PRECISION).div(... */\n      dup4\n        /* \"contracts/mirrorseaMain.sol\":6781:6797  usc.safeTransfer */\n      tag_352\n        /* \"contracts/mirrorseaMain.sol\":6781:6824  usc.safeTransfer(address(helperLogic), fee) */\n      jump\t// in\n    tag_388:\n        /* \"contracts/mirrorseaMain.sol\":6834:6845  helperLogic */\n      0x68\n      0x00\n      swap1\n      sload\n      swap1\n      0x0100\n      exp\n      swap1\n      div\n      sub(shl(0xa0, 0x01), 0x01)\n      and\n      sub(shl(0xa0, 0x01), 0x01)\n        /* \"contracts/mirrorseaMain.sol\":6834:6860  helperLogic.jointExecution */\n      and\n      0xd10c06a2\n        /* \"contracts/mirrorseaMain.sol\":6834:6862  helperLogic.jointExecution() */\n      mload(0x40)\n      dup2\n      0xffffffff\n      and\n      0xe0\n      shl\n      dup2\n      mstore\n      0x04\n      add\n      0x20\n      mload(0x40)\n      dup1\n      dup4\n      sub\n      dup2\n      0x00\n      dup8\n      dup1\n      extcodesize\n      iszero\n      dup1\n      iszero\n      tag_389\n      jumpi\n      0x00\n      dup1\n      revert\n    tag_389:\n      pop\n      gas\n      call\n      iszero\n      dup1\n      iszero\n      tag_391\n      jumpi\n      returndatasize\n      0x00\n      dup1\n      returndatacopy\n      revert(0x00, returndatasize)\n    tag_391:\n      pop\n      pop\n      pop\n      pop\n      mload(0x40)\n      returndatasize\n      not(0x1f)\n      0x1f\n      dup3\n      add\n      and\n      dup3\n      add\n      dup1\n      0x40\n      mstore\n      pop\n      dup2\n      add\n      swap1\n      tag_392\n      swap2\n      swap1\n      tag_307\n      jump\t// in\n    tag_392:\n      pop\n        /* \"contracts/mirrorseaMain.sol\":6885:6888  usc */\n      and(sub(shl(0xa0, 0x01), 0x01), sload(0x67))\n        /* \"contracts/mirrorseaMain.sol\":6872:6895  IUSC(address(usc)).burn */\n      0x42966c68\n        /* \"contracts/mirrorseaMain.sol\":6896:6917  uscBalanceOf.sub(fee) */\n      tag_393\n        /* \"contracts/mirrorseaMain.sol\":6896:6908  uscBalanceOf */\n      dup5\n        /* \"contracts/mirrorseaMain.sol\":6913:6916  fee */\n      dup5\n        /* \"contracts/mirrorseaMain.sol\":6896:6912  uscBalanceOf.sub */\n      tag_197\n        /* \"contracts/mirrorseaMain.sol\":6896:6917  uscBalanceOf.sub(fee) */\n      jump\t// in\n    tag_393:\n        /* \"contracts/mirrorseaMain.sol\":6872:6918  IUSC(address(usc)).burn(uscBalanceOf.sub(fee)) */\n      mload(0x40)\n      dup3\n      0xffffffff\n      and\n      0xe0\n      shl\n      dup2\n      mstore\n      0x04\n      add\n      tag_394\n      swap2\n      swap1\n      tag_54\n      jump\t// in\n    tag_394:\n      0x00\n      mload(0x40)\n      dup1\n      dup4\n      sub\n      dup2\n      0x00\n      dup8\n      dup1\n      extcodesize\n      iszero\n      dup1\n      iszero\n      tag_395\n      jumpi\n      0x00\n      dup1\n      revert\n    tag_395:\n      pop\n      gas\n      call\n      iszero\n      dup1\n      iszero\n      tag_397\n      jumpi\n      returndatasize\n      0x00\n      dup1\n      returndatacopy\n      revert(0x00, returndatasize)\n    tag_397:\n      pop\n      pop\n        /* \"contracts/mirrorseaMain.sol\":6950:6960  OrderIndex */\n      sload(0x6b)\n        /* \"contracts/mirrorseaMain.sol\":6929:6944  openOrderIdList */\n      0x6c\n        /* \"contracts/mirrorseaMain.sol\":6929:6961  openOrderIdList.push(OrderIndex) */\n      dup1\n      sload\n      0x01\n      dup2\n      dup2\n      add\n      dup4\n      sstore\n      0x00\n      dup4\n      swap1\n      mstore\n      0x2b4a51ab505fc96a0952efda2ba61bcd3078d4c02c39a186ec16f21883fbe016\n      swap1\n      swap2\n      add\n      swap3\n      swap1\n      swap3\n      sstore\n        /* \"contracts/mirrorseaMain.sol\":7007:7029  openOrderIdList.length */\n      sload\n        /* \"contracts/mirrorseaMain.sol\":7007:7036  openOrderIdList.length.sub(1) */\n      tag_399\n      swap4\n      pop\n        /* \"contracts/mirrorseaMain.sol\":7007:7029  openOrderIdList.length */\n      swap2\n      pop\n        /* \"contracts/mirrorseaMain.sol\":7007:7033  openOrderIdList.length.sub */\n      tag_197\n        /* \"contracts/mirrorseaMain.sol\":7007:7036  openOrderIdList.length.sub(1) */\n      jump\t// in\n    tag_399:\n        /* \"contracts/mirrorseaMain.sol\":6993:7003  OrderIndex */\n      0x6b\n      dup1\n      sload\n        /* \"contracts/mirrorseaMain.sol\":6971:7004  openOrderIdList_index[OrderIndex] */\n      0x00\n      swap1\n      dup2\n      mstore\n        /* \"contracts/mirrorseaMain.sol\":6971:6992  openOrderIdList_index */\n      0x6d\n        /* \"contracts/mirrorseaMain.sol\":6971:7004  openOrderIdList_index[OrderIndex] */\n      0x20\n      swap1\n      dup2\n      mstore\n      0x40\n      dup1\n      dup4\n      keccak256\n        /* \"contracts/mirrorseaMain.sol\":6971:7036  openOrderIdList_index[OrderIndex] = openOrderIdList.length.sub(1) */\n      swap5\n      swap1\n      swap5\n      sstore\n        /* \"contracts/mirrorseaMain.sol\":7065:7075  msg.sender */\n      caller\n        /* \"contracts/mirrorseaMain.sol\":7047:7076  myOpenOrderIdList[msg.sender] */\n      dup1\n      dup4\n      mstore\n        /* \"contracts/mirrorseaMain.sol\":7047:7064  myOpenOrderIdList */\n      0x6e\n        /* \"contracts/mirrorseaMain.sol\":7047:7076  myOpenOrderIdList[msg.sender] */\n      dup1\n      dup4\n      mstore\n      dup6\n      dup5\n      keccak256\n        /* \"contracts/mirrorseaMain.sol\":7082:7092  OrderIndex */\n      dup6\n      sload\n        /* \"contracts/mirrorseaMain.sol\":7047:7093  myOpenOrderIdList[msg.sender].push(OrderIndex) */\n      dup2\n      sload\n      0x01\n      dup2\n      dup2\n      add\n      dup5\n      sstore\n      dup4\n      dup9\n      mstore\n      dup7\n      dup9\n      keccak256\n      swap1\n      swap2\n      add\n      swap2\n      swap1\n      swap2\n      sstore\n        /* \"contracts/mirrorseaMain.sol\":7208:7218  OrderIndex */\n      swap6\n      sload\n        /* \"contracts/mirrorseaMain.sol\":7103:7138  myOpenOrderIdList_index[msg.sender] */\n      swap3\n      dup6\n      mstore\n        /* \"contracts/mirrorseaMain.sol\":7103:7126  myOpenOrderIdList_index */\n      0x6f\n        /* \"contracts/mirrorseaMain.sol\":7103:7138  myOpenOrderIdList_index[msg.sender] */\n      dup5\n      mstore\n      swap6\n      dup5\n      keccak256\n        /* \"contracts/mirrorseaMain.sol\":7152:7181  myOpenOrderIdList[msg.sender] */\n      swap3\n      mstore\n        /* \"contracts/mirrorseaMain.sol\":7152:7188  myOpenOrderIdList[msg.sender].length */\n      swap4\n      sload\n        /* \"contracts/mirrorseaMain.sol\":7103:7138  myOpenOrderIdList_index[msg.sender] */\n      swap1\n      swap3\n        /* \"contracts/mirrorseaMain.sol\":7152:7195  myOpenOrderIdList[msg.sender].length.sub(1) */\n      tag_401\n      swap2\n        /* \"contracts/mirrorseaMain.sol\":7152:7188  myOpenOrderIdList[msg.sender].length */\n      swap1\n        /* \"contracts/mirrorseaMain.sol\":7152:7192  myOpenOrderIdList[msg.sender].length.sub */\n      tag_197\n        /* \"contracts/mirrorseaMain.sol\":7152:7195  myOpenOrderIdList[msg.sender].length.sub(1) */\n      jump\t// in\n    tag_401:\n        /* \"contracts/mirrorseaMain.sol\":7103:7205  myOpenOrderIdList_index[msg.sender][... */\n      dup2\n      mstore\n      0x20\n      add\n      swap1\n      dup2\n      mstore\n      0x20\n      add\n      0x00\n      keccak256\n        /* \"contracts/mirrorseaMain.sol\":7103:7218  myOpenOrderIdList_index[msg.sender][... */\n      dup2\n      swap1\n      sstore\n      pop\n        /* \"contracts/mirrorseaMain.sol\":7229:7239  OrderIndex */\n      0x6b\n      0x00\n        /* \"contracts/mirrorseaMain.sol\":7229:7241  OrderIndex++ */\n      dup2\n      sload\n      dup1\n      swap3\n      swap2\n      swap1\n      tag_402\n      swap1\n      tag_218\n      jump\t// in\n    tag_402:\n      swap1\n      swap2\n      sstore\n      pop\n      pop\n        /* \"contracts/mirrorseaMain.sol\":7252:7275  order.user = msg.sender */\n      dup3\n      sload\n      not(sub(shl(0xa0, 0x01), 0x01))\n      and\n        /* \"contracts/mirrorseaMain.sol\":7265:7275  msg.sender */\n      caller\n        /* \"contracts/mirrorseaMain.sol\":7252:7275  order.user = msg.sender */\n      or\n      dup4\n      sstore\n      0x01\n        /* \"contracts/mirrorseaMain.sol\":7285:7296  order._type */\n      dup4\n      add\n        /* \"contracts/mirrorseaMain.sol\":7285:7304  order._type = _type */\n      dup10\n      swap1\n      sstore\n        /* \"contracts/mirrorseaMain.sol\":7314:7338  order.symbols = _symbols */\n      dup8\n      mload\n      tag_403\n      swap1\n        /* \"contracts/mirrorseaMain.sol\":7314:7327  order.symbols */\n      0x02\n      dup6\n      add\n      swap1\n        /* \"contracts/mirrorseaMain.sol\":7314:7338  order.symbols = _symbols */\n      0x20\n      dup12\n      add\n      swap1\n      tag_404\n      jump\t// in\n    tag_403:\n      pop\n        /* \"contracts/mirrorseaMain.sol\":7362:7363  1 */\n      0x01\n        /* \"contracts/mirrorseaMain.sol\":7348:7359  order.state */\n      0x03\n      dup5\n      add\n        /* \"contracts/mirrorseaMain.sol\":7348:7363  order.state = 1 */\n      sstore\n        /* \"contracts/mirrorseaMain.sol\":7449:7464  order.direction */\n      0x04\n      dup4\n      add\n        /* \"contracts/mirrorseaMain.sol\":7449:7477  order.direction = _direction */\n      dup11\n      swap1\n      sstore\n        /* \"contracts/mirrorseaMain.sol\":7504:7521  order.openPrice18 */\n      0x05\n      dup4\n      add\n        /* \"contracts/mirrorseaMain.sol\":7504:7532  order.openPrice18 = _price18 */\n      dup8\n      swap1\n      sstore\n        /* \"contracts/mirrorseaMain.sol\":7542:7556  order.openTime */\n      0x06\n      dup4\n      add\n        /* \"contracts/mirrorseaMain.sol\":7542:7569  order.openTime = _timestamp */\n      dup12\n      swap1\n      sstore\n        /* \"contracts/mirrorseaMain.sol\":7579:7588  order.amt */\n      0x09\n      dup4\n      add\n        /* \"contracts/mirrorseaMain.sol\":7579:7595  order.amt = _amt */\n      dup7\n      swap1\n      sstore\n        /* \"contracts/mirrorseaMain.sol\":7620:7641  uscBalanceOf.sub(fee) */\n      tag_405\n        /* \"contracts/mirrorseaMain.sol\":7620:7632  uscBalanceOf */\n      dup3\n        /* \"contracts/mirrorseaMain.sol\":7637:7640  fee */\n      dup3\n        /* \"contracts/mirrorseaMain.sol\":7620:7636  uscBalanceOf.sub */\n      tag_197\n        /* \"contracts/mirrorseaMain.sol\":7620:7641  uscBalanceOf.sub(fee) */\n      jump\t// in\n    tag_405:\n        /* \"contracts/mirrorseaMain.sol\":7605:7617  order.margin */\n      0x0a\n      swap1\n      swap4\n      add\n        /* \"contracts/mirrorseaMain.sol\":7605:7641  order.margin = uscBalanceOf.sub(fee) */\n      swap3\n      swap1\n      swap3\n      sstore\n      pop\n        /* \"contracts/mirrorseaMain.sol\":7659:7663  true */\n      0x01\n      swap12\n        /* \"contracts/mirrorseaMain.sol\":5781:7670  function openPosition(... */\n      swap11\n      pop\n      pop\n      pop\n      pop\n      pop\n      pop\n      pop\n      pop\n      pop\n      pop\n      pop\n      jump\t// out\n        /* \"contracts/mirrorseaMain.sol\":2663:2824  function myOpenOrderIdListLength(address _user)... */\n    tag_153:\n      sub(shl(0xa0, 0x01), 0x01)\n        /* \"contracts/mirrorseaMain.sol\":2786:2810  myOpenOrderIdList[_user] */\n      and\n        /* \"contracts/mirrorseaMain.sol\":2756:2763  uint256 */\n      0x00\n        /* \"contracts/mirrorseaMain.sol\":2786:2810  myOpenOrderIdList[_user] */\n      swap1\n      dup2\n      mstore\n        /* \"contracts/mirrorseaMain.sol\":2786:2803  myOpenOrderIdList */\n      0x6e\n        /* \"contracts/mirrorseaMain.sol\":2786:2810  myOpenOrderIdList[_user] */\n      0x20\n      mstore\n      0x40\n      swap1\n      keccak256\n        /* \"contracts/mirrorseaMain.sol\":2786:2817  myOpenOrderIdList[_user].length */\n      sload\n      swap1\n        /* \"contracts/mirrorseaMain.sol\":2663:2824  function myOpenOrderIdListLength(address _user)... */\n      jump\t// out\n        /* \"contracts/mirrorseaMain.sol\":1601:1656  mapping(address => uint256[]) public myCloseOrderIdList */\n    tag_157:\n      mstore(0x20, 0x70)\n      dup2\n      0x00\n      mstore\n      keccak256(0x00, 0x40)\n      dup2\n      dup2\n      sload\n      dup2\n      lt\n      tag_359\n      jumpi\n      0x00\n      dup1\n      revert\n        /* \"contracts/mirrorseaMain.sol\":1662:1749  mapping(address => mapping(uint256 => uint256))... */\n    tag_161:\n      0x71\n      0x20\n      swap1\n      dup2\n      mstore\n      0x00\n      swap3\n      dup4\n      mstore\n      0x40\n      dup1\n      dup5\n      keccak256\n      swap1\n      swap2\n      mstore\n      swap1\n      dup3\n      mstore\n      swap1\n      keccak256\n      sload\n      dup2\n      jump\t// out\n        /* \"contracts/mirrorseaMain.sol\":1818:1839  uint256 public minVal */\n    tag_164:\n      sload(0x74)\n      dup2\n      jump\t// out\n        /* \"@openzeppelin/contracts-upgradeable/access/OwnableUpgradeable.sol\":2184:2382  function transferOwnership(address newOwner) public virtual onlyOwner {... */\n    tag_168:\n        /* \"@openzeppelin/contracts-upgradeable/access/OwnableUpgradeable.sol\":1525:1537  _msgSender() */\n      tag_410\n        /* \"@openzeppelin/contracts-upgradeable/access/OwnableUpgradeable.sol\":1525:1535  _msgSender */\n      tag_226\n        /* \"@openzeppelin/contracts-upgradeable/access/OwnableUpgradeable.sol\":1525:1537  _msgSender() */\n      jump\t// in\n    tag_410:\n      sub(shl(0xa0, 0x01), 0x01)\n        /* \"@openzeppelin/contracts-upgradeable/access/OwnableUpgradeable.sol\":1514:1537  owner() == _msgSender() */\n      and\n        /* \"@openzeppelin/contracts-upgradeable/access/OwnableUpgradeable.sol\":1514:1521  owner() */\n      tag_411\n        /* \"@openzeppelin/contracts-upgradeable/access/OwnableUpgradeable.sol\":1514:1519  owner */\n      tag_124\n        /* \"@openzeppelin/contracts-upgradeable/access/OwnableUpgradeable.sol\":1514:1521  owner() */\n      jump\t// in\n    tag_411:\n      sub(shl(0xa0, 0x01), 0x01)\n        /* \"@openzeppelin/contracts-upgradeable/access/OwnableUpgradeable.sol\":1514:1537  owner() == _msgSender() */\n      and\n      eq\n        /* \"@openzeppelin/contracts-upgradeable/access/OwnableUpgradeable.sol\":1506:1574  require(owner() == _msgSender(), \"Ownable: caller is not the owner\") */\n      tag_412\n      jumpi\n      mload(0x40)\n      shl(0xe5, 0x461bcd)\n      dup2\n      mstore\n      0x04\n      add\n      tag_203\n      swap1\n      tag_230\n      jump\t// in\n    tag_412:\n      sub(shl(0xa0, 0x01), 0x01)\n        /* \"@openzeppelin/contracts-upgradeable/access/OwnableUpgradeable.sol\":2272:2294  newOwner != address(0) */\n      dup2\n      and\n        /* \"@openzeppelin/contracts-upgradeable/access/OwnableUpgradeable.sol\":2264:2337  require(newOwner != address(0), \"Ownable: new owner is the zero address\") */\n      tag_415\n      jumpi\n      mload(0x40)\n      shl(0xe5, 0x461bcd)\n      dup2\n      mstore\n      0x04\n      add\n      tag_203\n      swap1\n      tag_417\n      jump\t// in\n    tag_415:\n        /* \"@openzeppelin/contracts-upgradeable/access/OwnableUpgradeable.sol\":2347:2375  _transferOwnership(newOwner) */\n      tag_418\n        /* \"@openzeppelin/contracts-upgradeable/access/OwnableUpgradeable.sol\":2366:2374  newOwner */\n      dup2\n        /* \"@openzeppelin/contracts-upgradeable/access/OwnableUpgradeable.sol\":2347:2365  _transferOwnership */\n      tag_281\n        /* \"@openzeppelin/contracts-upgradeable/access/OwnableUpgradeable.sol\":2347:2375  _transferOwnership(newOwner) */\n      jump\t// in\n    tag_418:\n        /* \"@openzeppelin/contracts-upgradeable/access/OwnableUpgradeable.sol\":2184:2382  function transferOwnership(address newOwner) public virtual onlyOwner {... */\n      pop\n      jump\t// out\n        /* \"contracts/mirrorseaMain.sol\":1315:1340  uint256 public OrderIndex */\n    tag_170:\n      sload(0x6b)\n      dup2\n      jump\t// out\n        /* \"contracts/mirrorseaMain.sol\":2277:2657  function initialize(... */\n    tag_175:\n        /* \"@openzeppelin/contracts-upgradeable/proxy/utils/Initializable.sol\":539:552  _initializing */\n      sload(0x00)\n      0x0100\n      swap1\n      div\n      0xff\n      and\n      dup1\n        /* \"@openzeppelin/contracts-upgradeable/proxy/utils/Initializable.sol\":539:569  _initializing || !_initialized */\n      tag_420\n      jumpi\n      pop\n        /* \"@openzeppelin/contracts-upgradeable/proxy/utils/Initializable.sol\":557:569  _initialized */\n      and(0xff, sload(0x00))\n        /* \"@openzeppelin/contracts-upgradeable/proxy/utils/Initializable.sol\":556:569  !_initialized */\n      iszero\n        /* \"@openzeppelin/contracts-upgradeable/proxy/utils/Initializable.sol\":539:569  _initializing || !_initialized */\n    tag_420:\n        /* \"@openzeppelin/contracts-upgradeable/proxy/utils/Initializable.sol\":531:620  require(_initializing || !_initialized, \"Initializable: contract is already initialized\") */\n      tag_421\n      jumpi\n      mload(0x40)\n      shl(0xe5, 0x461bcd)\n      dup2\n      mstore\n      0x04\n      add\n      tag_203\n      swap1\n      tag_423\n      jump\t// in\n    tag_421:\n        /* \"@openzeppelin/contracts-upgradeable/proxy/utils/Initializable.sol\":631:650  bool isTopLevelCall */\n      0x00\n        /* \"@openzeppelin/contracts-upgradeable/proxy/utils/Initializable.sol\":654:667  _initializing */\n      sload\n      0x0100\n      swap1\n      div\n      0xff\n      and\n        /* \"@openzeppelin/contracts-upgradeable/proxy/utils/Initializable.sol\":653:667  !_initializing */\n      iszero\n        /* \"@openzeppelin/contracts-upgradeable/proxy/utils/Initializable.sol\":677:775  if (isTopLevelCall) {... */\n      dup1\n      iszero\n      tag_424\n      jumpi\n        /* \"@openzeppelin/contracts-upgradeable/proxy/utils/Initializable.sol\":711:724  _initializing */\n      0x00\n        /* \"@openzeppelin/contracts-upgradeable/proxy/utils/Initializable.sol\":711:731  _initializing = true */\n      dup1\n      sload\n      not(0xff)\n      not(0xff00)\n      swap1\n      swap2\n      and\n      0x0100\n      or\n        /* \"@openzeppelin/contracts-upgradeable/proxy/utils/Initializable.sol\":745:764  _initialized = true */\n      and\n        /* \"@openzeppelin/contracts-upgradeable/proxy/utils/Initializable.sol\":727:731  true */\n      0x01\n        /* \"@openzeppelin/contracts-upgradeable/proxy/utils/Initializable.sol\":745:764  _initialized = true */\n      or\n      swap1\n      sstore\n        /* \"@openzeppelin/contracts-upgradeable/proxy/utils/Initializable.sol\":677:775  if (isTopLevelCall) {... */\n    tag_424:\n        /* \"contracts/mirrorseaMain.sol\":2451:2467  __Ownable_init() */\n      tag_426\n        /* \"contracts/mirrorseaMain.sol\":2451:2465  __Ownable_init */\n      tag_427\n        /* \"contracts/mirrorseaMain.sol\":2451:2467  __Ownable_init() */\n      jump\t// in\n    tag_426:\n        /* \"contracts/mirrorseaMain.sol\":2477:2483  signer */\n      0x66\n        /* \"contracts/mirrorseaMain.sol\":2477:2493  signer = _signer */\n      dup1\n      sload\n      sub(shl(0xa0, 0x01), 0x01)\n      dup1\n      dup9\n      and\n      not(sub(shl(0xa0, 0x01), 0x01))\n      swap3\n      dup4\n      and\n      or\n      swap1\n      swap3\n      sstore\n        /* \"contracts/mirrorseaMain.sol\":2503:2514  helperLogic */\n      0x68\n        /* \"contracts/mirrorseaMain.sol\":2503:2529  helperLogic = _helperLogic */\n      dup1\n      sload\n      dup8\n      dup5\n      and\n      swap1\n      dup4\n      and\n      or\n      swap1\n      sstore\n        /* \"contracts/mirrorseaMain.sol\":2539:2542  usc */\n      0x67\n        /* \"contracts/mirrorseaMain.sol\":2539:2549  usc = _usc */\n      dup1\n      sload\n      dup7\n      dup5\n      and\n      swap1\n      dup4\n      and\n      or\n      swap1\n      sstore\n        /* \"contracts/mirrorseaMain.sol\":2571:2576  10000 */\n      0x2710\n        /* \"contracts/mirrorseaMain.sol\":2559:2568  PRECISION */\n      0x73\n        /* \"contracts/mirrorseaMain.sol\":2559:2576  PRECISION = 10000 */\n      sstore\n        /* \"contracts/mirrorseaMain.sol\":2586:2592  oracle */\n      0x69\n        /* \"contracts/mirrorseaMain.sol\":2586:2602  oracle = _oracle */\n      dup1\n      sload\n      swap3\n      dup6\n      and\n      swap3\n      swap1\n      swap2\n      and\n      swap2\n      swap1\n      swap2\n      or\n      swap1\n      sstore\n        /* \"contracts/mirrorseaMain.sol\":2621:2625  1e18 */\n      0x0de0b6b3a7640000\n        /* \"contracts/mirrorseaMain.sol\":2612:2618  minVal */\n      0x74\n        /* \"contracts/mirrorseaMain.sol\":2612:2625  minVal = 1e18 */\n      sstore\n        /* \"contracts/mirrorseaMain.sol\":2648:2650  50 */\n      0x32\n        /* \"contracts/mirrorseaMain.sol\":2635:2645  feePercent */\n      0x72\n        /* \"contracts/mirrorseaMain.sol\":2635:2650  feePercent = 50 */\n      sstore\n        /* \"@openzeppelin/contracts-upgradeable/proxy/utils/Initializable.sol\":797:863  if (isTopLevelCall) {... */\n      dup1\n      iszero\n      tag_428\n      jumpi\n        /* \"@openzeppelin/contracts-upgradeable/proxy/utils/Initializable.sol\":847:852  false */\n      0x00\n        /* \"@openzeppelin/contracts-upgradeable/proxy/utils/Initializable.sol\":831:852  _initializing = false */\n      dup1\n      sload\n      not(0xff00)\n      and\n      swap1\n      sstore\n        /* \"@openzeppelin/contracts-upgradeable/proxy/utils/Initializable.sol\":797:863  if (isTopLevelCall) {... */\n    tag_428:\n        /* \"contracts/mirrorseaMain.sol\":2277:2657  function initialize(... */\n      pop\n      pop\n      pop\n      pop\n      pop\n      jump\t// out\n        /* \"contracts/mirrorseaMain.sol\":3721:4496  function setOrderInfo(... */\n    tag_179:\n        /* \"contracts/mirrorseaMain.sol\":4080:4084  bool */\n      0x00\n        /* \"@openzeppelin/contracts-upgradeable/access/OwnableUpgradeable.sol\":1525:1537  _msgSender() */\n      tag_430\n        /* \"@openzeppelin/contracts-upgradeable/access/OwnableUpgradeable.sol\":1525:1535  _msgSender */\n      tag_226\n        /* \"@openzeppelin/contracts-upgradeable/access/OwnableUpgradeable.sol\":1525:1537  _msgSender() */\n      jump\t// in\n    tag_430:\n      sub(shl(0xa0, 0x01), 0x01)\n        /* \"@openzeppelin/contracts-upgradeable/access/OwnableUpgradeable.sol\":1514:1537  owner() == _msgSender() */\n      and\n        /* \"@openzeppelin/contracts-upgradeable/access/OwnableUpgradeable.sol\":1514:1521  owner() */\n      tag_431\n        /* \"@openzeppelin/contracts-upgradeable/access/OwnableUpgradeable.sol\":1514:1519  owner */\n      tag_124\n        /* \"@openzeppelin/contracts-upgradeable/access/OwnableUpgradeable.sol\":1514:1521  owner() */\n      jump\t// in\n    tag_431:\n      sub(shl(0xa0, 0x01), 0x01)\n        /* \"@openzeppelin/contracts-upgradeable/access/OwnableUpgradeable.sol\":1514:1537  owner() == _msgSender() */\n      and\n      eq\n        /* \"@openzeppelin/contracts-upgradeable/access/OwnableUpgradeable.sol\":1506:1574  require(owner() == _msgSender(), \"Ownable: caller is not the owner\") */\n      tag_432\n      jumpi\n      mload(0x40)\n      shl(0xe5, 0x461bcd)\n      dup2\n      mstore\n      0x04\n      add\n      tag_203\n      swap1\n      tag_230\n      jump\t// in\n    tag_432:\n        /* \"contracts/mirrorseaMain.sol\":4113:4468  OrderInfo({... */\n      mload(0x40)\n      dup1\n      0x0160\n      add\n      0x40\n      mstore\n      dup1\n        /* \"contracts/mirrorseaMain.sol\":4143:4147  user */\n      dup14\n      sub(shl(0xa0, 0x01), 0x01)\n        /* \"contracts/mirrorseaMain.sol\":4113:4468  OrderInfo({... */\n      and\n      dup2\n      mstore\n      0x20\n      add\n        /* \"contracts/mirrorseaMain.sol\":4168:4173  _type */\n      dup13\n        /* \"contracts/mirrorseaMain.sol\":4113:4468  OrderInfo({... */\n      dup2\n      mstore\n      0x20\n      add\n        /* \"contracts/mirrorseaMain.sol\":4196:4203  symbols */\n      dup12\n        /* \"contracts/mirrorseaMain.sol\":4113:4468  OrderInfo({... */\n      dup2\n      mstore\n      0x20\n      add\n        /* \"contracts/mirrorseaMain.sol\":4224:4229  state */\n      dup11\n        /* \"contracts/mirrorseaMain.sol\":4113:4468  OrderInfo({... */\n      dup2\n      mstore\n      0x20\n      add\n        /* \"contracts/mirrorseaMain.sol\":4254:4263  direction */\n      dup10\n        /* \"contracts/mirrorseaMain.sol\":4113:4468  OrderInfo({... */\n      dup2\n      mstore\n      0x20\n      add\n        /* \"contracts/mirrorseaMain.sol\":4290:4301  openPrice18 */\n      dup9\n        /* \"contracts/mirrorseaMain.sol\":4113:4468  OrderInfo({... */\n      dup2\n      mstore\n      0x20\n      add\n        /* \"contracts/mirrorseaMain.sol\":4325:4333  openTime */\n      dup8\n        /* \"contracts/mirrorseaMain.sol\":4113:4468  OrderInfo({... */\n      dup2\n      mstore\n      0x20\n      add\n        /* \"contracts/mirrorseaMain.sol\":4361:4373  closePrice18 */\n      dup7\n        /* \"contracts/mirrorseaMain.sol\":4113:4468  OrderInfo({... */\n      dup2\n      mstore\n      0x20\n      add\n        /* \"contracts/mirrorseaMain.sol\":4398:4407  closeTime */\n      dup6\n        /* \"contracts/mirrorseaMain.sol\":4113:4468  OrderInfo({... */\n      dup2\n      mstore\n      0x20\n      add\n        /* \"contracts/mirrorseaMain.sol\":4426:4429  amt */\n      dup5\n        /* \"contracts/mirrorseaMain.sol\":4113:4468  OrderInfo({... */\n      dup2\n      mstore\n      0x20\n      add\n        /* \"contracts/mirrorseaMain.sol\":4451:4457  margin */\n      dup4\n        /* \"contracts/mirrorseaMain.sol\":4113:4468  OrderInfo({... */\n      dup2\n      mstore\n      pop\n        /* \"contracts/mirrorseaMain.sol\":4096:4106  _orderInfo */\n      0x6a\n        /* \"contracts/mirrorseaMain.sol\":4096:4110  _orderInfo[id] */\n      0x00\n        /* \"contracts/mirrorseaMain.sol\":4107:4109  id */\n      dup16\n        /* \"contracts/mirrorseaMain.sol\":4096:4110  _orderInfo[id] */\n      dup2\n      mstore\n      0x20\n      add\n      swap1\n      dup2\n      mstore\n      0x20\n      add\n      0x00\n      keccak256\n        /* \"contracts/mirrorseaMain.sol\":4096:4468  _orderInfo[id] = OrderInfo({... */\n      0x00\n      dup3\n      add\n      mload\n      dup2\n      0x00\n      add\n      exp(0x0100, 0x00)\n      dup2\n      sload\n      dup2\n      sub(shl(0xa0, 0x01), 0x01)\n      mul\n      not\n      and\n      swap1\n      dup4\n      sub(shl(0xa0, 0x01), 0x01)\n      and\n      mul\n      or\n      swap1\n      sstore\n      pop\n      0x20\n      dup3\n      add\n      mload\n      dup2\n      0x01\n      add\n      sstore\n      0x40\n      dup3\n      add\n      mload\n      dup2\n      0x02\n      add\n      swap1\n      dup1\n      mload\n      swap1\n      0x20\n      add\n      swap1\n      tag_435\n      swap3\n      swap2\n      swap1\n      tag_404\n      jump\t// in\n    tag_435:\n      pop\n      0x60\n      dup3\n      add\n      mload\n      0x03\n      dup3\n      add\n      sstore\n      0x80\n      dup3\n      add\n      mload\n      0x04\n      dup3\n      add\n      sstore\n      0xa0\n      dup3\n      add\n      mload\n      0x05\n      dup3\n      add\n      sstore\n      0xc0\n      dup3\n      add\n      mload\n      0x06\n      dup3\n      add\n      sstore\n      0xe0\n      dup3\n      add\n      mload\n      0x07\n      dup3\n      add\n      sstore\n      0x0100\n      dup3\n      add\n      mload\n      0x08\n      dup3\n      add\n      sstore\n      0x0120\n      dup3\n      add\n      mload\n      0x09\n      dup3\n      add\n      sstore\n      0x0140\n      swap1\n      swap2\n      add\n      mload\n      0x0a\n      swap1\n      swap2\n      add\n      sstore\n      pop\n        /* \"contracts/mirrorseaMain.sol\":4485:4489  true */\n      0x01\n        /* \"contracts/mirrorseaMain.sol\":3721:4496  function setOrderInfo(... */\n      swap13\n      swap12\n      pop\n      pop\n      pop\n      pop\n      pop\n      pop\n      pop\n      pop\n      pop\n      pop\n      pop\n      pop\n      jump\t// out\n        /* \"@openzeppelin/contracts-upgradeable/utils/math/SafeMathUpgradeable.sol\":3462:3558  function mul(uint256 a, uint256 b) internal pure returns (uint256) {... */\n    tag_196:\n        /* \"@openzeppelin/contracts-upgradeable/utils/math/SafeMathUpgradeable.sol\":3520:3527  uint256 */\n      0x00\n        /* \"@openzeppelin/contracts-upgradeable/utils/math/SafeMathUpgradeable.sol\":3546:3551  a * b */\n      tag_437\n        /* \"@openzeppelin/contracts-upgradeable/utils/math/SafeMathUpgradeable.sol\":3550:3551  b */\n      dup3\n        /* \"@openzeppelin/contracts-upgradeable/utils/math/SafeMathUpgradeable.sol\":3546:3547  a */\n      dup5\n        /* \"@openzeppelin/contracts-upgradeable/utils/math/SafeMathUpgradeable.sol\":3546:3551  a * b */\n      tag_438\n      jump\t// in\n    tag_437:\n        /* \"@openzeppelin/contracts-upgradeable/utils/math/SafeMathUpgradeable.sol\":3539:3551  return a * b */\n      swap4\n        /* \"@openzeppelin/contracts-upgradeable/utils/math/SafeMathUpgradeable.sol\":3462:3558  function mul(uint256 a, uint256 b) internal pure returns (uint256) {... */\n      swap3\n      pop\n      pop\n      pop\n      jump\t// out\n        /* \"@openzeppelin/contracts-upgradeable/utils/math/SafeMathUpgradeable.sol\":3119:3215  function sub(uint256 a, uint256 b) internal pure returns (uint256) {... */\n    tag_197:\n        /* \"@openzeppelin/contracts-upgradeable/utils/math/SafeMathUpgradeable.sol\":3177:3184  uint256 */\n      0x00\n        /* \"@openzeppelin/contracts-upgradeable/utils/math/SafeMathUpgradeable.sol\":3203:3208  a - b */\n      tag_437\n        /* \"@openzeppelin/contracts-upgradeable/utils/math/SafeMathUpgradeable.sol\":3207:3208  b */\n      dup3\n        /* \"@openzeppelin/contracts-upgradeable/utils/math/SafeMathUpgradeable.sol\":3203:3204  a */\n      dup5\n        /* \"@openzeppelin/contracts-upgradeable/utils/math/SafeMathUpgradeable.sol\":3203:3208  a - b */\n      tag_441\n      jump\t// in\n        /* \"@openzeppelin/contracts-upgradeable/utils/ContextUpgradeable.sol\":876:972  function _msgSender() internal view virtual returns (address) {... */\n    tag_226:\n        /* \"@openzeppelin/contracts-upgradeable/utils/ContextUpgradeable.sol\":955:965  msg.sender */\n      caller\n        /* \"@openzeppelin/contracts-upgradeable/utils/ContextUpgradeable.sol\":876:972  function _msgSender() internal view virtual returns (address) {... */\n      swap1\n      jump\t// out\n        /* \"contracts/mirrorseaMain.sol\":13793:15114  function _isSolvent(... */\n    tag_244:\n        /* \"contracts/mirrorseaMain.sol\":13914:13918  bool */\n      0x00\n        /* \"contracts/mirrorseaMain.sol\":13956:13971  _orderInfo[_id] */\n      dup4\n      dup2\n      mstore\n        /* \"contracts/mirrorseaMain.sol\":13956:13966  _orderInfo */\n      0x6a\n        /* \"contracts/mirrorseaMain.sol\":13956:13971  _orderInfo[_id] */\n      0x20\n      mstore\n      0x40\n      dup2\n      keccak256\n        /* \"contracts/mirrorseaMain.sol\":14063:14078  order.direction */\n      0x04\n      dup2\n      add\n      sload\n        /* \"contracts/mirrorseaMain.sol\":13914:13918  bool */\n      dup3\n      swap1\n      dup2\n      swap1\n      dup2\n      swap1\n        /* \"contracts/mirrorseaMain.sol\":14082:14083  1 */\n      0x01\n        /* \"contracts/mirrorseaMain.sol\":14063:14083  order.direction == 1 */\n      eq\n        /* \"contracts/mirrorseaMain.sol\":14059:15087  if (order.direction == 1) {... */\n      iszero\n      tag_444\n      jumpi\n        /* \"contracts/mirrorseaMain.sol\":14114:14119  order */\n      dup4\n        /* \"contracts/mirrorseaMain.sol\":14114:14131  order.openPrice18 */\n      0x05\n      add\n      sload\n        /* \"contracts/mirrorseaMain.sol\":14103:14111  _price18 */\n      dup8\n        /* \"contracts/mirrorseaMain.sol\":14103:14131  _price18 < order.openPrice18 */\n      lt\n        /* \"contracts/mirrorseaMain.sol\":14099:14573  if (_price18 < order.openPrice18) {... */\n      iszero\n      tag_455\n      jumpi\n        /* \"contracts/mirrorseaMain.sol\":14165:14182  order.openPrice18 */\n      0x05\n      dup5\n      add\n      sload\n        /* \"contracts/mirrorseaMain.sol\":14165:14196  order.openPrice18.sub(_price18) */\n      tag_446\n      swap1\n        /* \"contracts/mirrorseaMain.sol\":14187:14195  _price18 */\n      dup9\n        /* \"contracts/mirrorseaMain.sol\":14165:14186  order.openPrice18.sub */\n      tag_197\n        /* \"contracts/mirrorseaMain.sol\":14165:14196  order.openPrice18.sub(_price18) */\n      jump\t// in\n    tag_446:\n        /* \"contracts/mirrorseaMain.sol\":14151:14196  diffPrice18 = order.openPrice18.sub(_price18) */\n      swap3\n      pop\n        /* \"contracts/mirrorseaMain.sol\":14227:14263  diffPrice18.mul(order.amt).div(1e18) */\n      tag_447\n        /* \"contracts/mirrorseaMain.sol\":14258:14262  1e18 */\n      0x0de0b6b3a7640000\n        /* \"contracts/mirrorseaMain.sol\":14227:14253  diffPrice18.mul(order.amt) */\n      tag_317\n        /* \"contracts/mirrorseaMain.sol\":14243:14248  order */\n      dup7\n        /* \"contracts/mirrorseaMain.sol\":14243:14252  order.amt */\n      0x09\n      add\n      sload\n        /* \"contracts/mirrorseaMain.sol\":14227:14238  diffPrice18 */\n      dup7\n        /* \"contracts/mirrorseaMain.sol\":14227:14242  diffPrice18.mul */\n      tag_196\n      swap1\n        /* \"contracts/mirrorseaMain.sol\":14227:14253  diffPrice18.mul(order.amt) */\n      swap2\n      swap1\n      0xffffffff\n      and\n      jump\t// in\n        /* \"contracts/mirrorseaMain.sol\":14227:14263  diffPrice18.mul(order.amt).div(1e18) */\n    tag_447:\n        /* \"contracts/mirrorseaMain.sol\":14214:14263  diffMargin = diffPrice18.mul(order.amt).div(1e18) */\n      swap2\n      pop\n        /* \"contracts/mirrorseaMain.sol\":14287:14456  order... */\n      tag_449\n        /* \"contracts/mirrorseaMain.sol\":14451:14455  1e18 */\n      0x0de0b6b3a7640000\n        /* \"contracts/mirrorseaMain.sol\":14287:14425  order... */\n      tag_317\n        /* \"contracts/mirrorseaMain.sol\":14415:14424  PRECISION */\n      sload(0x73)\n        /* \"contracts/mirrorseaMain.sol\":14287:14389  order... */\n      tag_317\n        /* \"contracts/mirrorseaMain.sol\":14378:14388  feePercent */\n      sload(0x72)\n        /* \"contracts/mirrorseaMain.sol\":14287:14352  order... */\n      tag_318\n        /* \"contracts/mirrorseaMain.sol\":14343:14351  _price18 */\n      dup14\n        /* \"contracts/mirrorseaMain.sol\":14287:14292  order */\n      dup12\n        /* \"contracts/mirrorseaMain.sol\":14287:14317  order... */\n      0x09\n      add\n      sload\n        /* \"contracts/mirrorseaMain.sol\":14287:14342  order... */\n      tag_196\n      swap1\n        /* \"contracts/mirrorseaMain.sol\":14287:14352  order... */\n      swap2\n      swap1\n      0xffffffff\n      and\n      jump\t// in\n        /* \"contracts/mirrorseaMain.sol\":14287:14456  order... */\n    tag_449:\n        /* \"contracts/mirrorseaMain.sol\":14281:14456  fee = order... */\n      swap1\n      pop\n        /* \"contracts/mirrorseaMain.sol\":14488:14504  diffMargin + fee */\n      tag_453\n        /* \"contracts/mirrorseaMain.sol\":14281:14456  fee = order... */\n      dup2\n        /* \"contracts/mirrorseaMain.sol\":14488:14498  diffMargin */\n      dup4\n        /* \"contracts/mirrorseaMain.sol\":14488:14504  diffMargin + fee */\n      tag_454\n      jump\t// in\n    tag_453:\n        /* \"contracts/mirrorseaMain.sol\":14478:14485  _margin */\n      dup7\n        /* \"contracts/mirrorseaMain.sol\":14478:14504  _margin < diffMargin + fee */\n      lt\n        /* \"contracts/mirrorseaMain.sol\":14474:14559  if (_margin < diffMargin + fee) {... */\n      iszero\n      tag_455\n      jumpi\n        /* \"contracts/mirrorseaMain.sol\":14535:14540  false */\n      0x00\n        /* \"contracts/mirrorseaMain.sol\":14528:14540  return false */\n      swap5\n      pop\n      pop\n      pop\n      pop\n      pop\n      jump(tag_437)\n        /* \"contracts/mirrorseaMain.sol\":14474:14559  if (_margin < diffMargin + fee) {... */\n    tag_455:\n        /* \"contracts/mirrorseaMain.sol\":14059:15087  if (order.direction == 1) {... */\n      jump(tag_466)\n    tag_444:\n        /* \"contracts/mirrorseaMain.sol\":14618:14623  order */\n      dup4\n        /* \"contracts/mirrorseaMain.sol\":14618:14635  order.openPrice18 */\n      0x05\n      add\n      sload\n        /* \"contracts/mirrorseaMain.sol\":14607:14615  _price18 */\n      dup8\n        /* \"contracts/mirrorseaMain.sol\":14607:14635  _price18 > order.openPrice18 */\n      gt\n        /* \"contracts/mirrorseaMain.sol\":14603:15077  if (_price18 > order.openPrice18) {... */\n      iszero\n      tag_466\n      jumpi\n        /* \"contracts/mirrorseaMain.sol\":14682:14699  order.openPrice18 */\n      0x05\n      dup5\n      add\n      sload\n        /* \"contracts/mirrorseaMain.sol\":14669:14700  _price18.sub(order.openPrice18) */\n      tag_458\n      swap1\n        /* \"contracts/mirrorseaMain.sol\":14669:14677  _price18 */\n      dup9\n      swap1\n        /* \"contracts/mirrorseaMain.sol\":14669:14681  _price18.sub */\n      tag_197\n        /* \"contracts/mirrorseaMain.sol\":14669:14700  _price18.sub(order.openPrice18) */\n      jump\t// in\n    tag_458:\n        /* \"contracts/mirrorseaMain.sol\":14655:14700  diffPrice18 = _price18.sub(order.openPrice18) */\n      swap3\n      pop\n        /* \"contracts/mirrorseaMain.sol\":14731:14767  diffPrice18.mul(order.amt).div(1e18) */\n      tag_459\n        /* \"contracts/mirrorseaMain.sol\":14762:14766  1e18 */\n      0x0de0b6b3a7640000\n        /* \"contracts/mirrorseaMain.sol\":14731:14757  diffPrice18.mul(order.amt) */\n      tag_317\n        /* \"contracts/mirrorseaMain.sol\":14747:14752  order */\n      dup7\n        /* \"contracts/mirrorseaMain.sol\":14747:14756  order.amt */\n      0x09\n      add\n      sload\n        /* \"contracts/mirrorseaMain.sol\":14731:14742  diffPrice18 */\n      dup7\n        /* \"contracts/mirrorseaMain.sol\":14731:14746  diffPrice18.mul */\n      tag_196\n      swap1\n        /* \"contracts/mirrorseaMain.sol\":14731:14757  diffPrice18.mul(order.amt) */\n      swap2\n      swap1\n      0xffffffff\n      and\n      jump\t// in\n        /* \"contracts/mirrorseaMain.sol\":14731:14767  diffPrice18.mul(order.amt).div(1e18) */\n    tag_459:\n        /* \"contracts/mirrorseaMain.sol\":14718:14767  diffMargin = diffPrice18.mul(order.amt).div(1e18) */\n      swap2\n      pop\n        /* \"contracts/mirrorseaMain.sol\":14791:14960  order... */\n      tag_461\n        /* \"contracts/mirrorseaMain.sol\":14955:14959  1e18 */\n      0x0de0b6b3a7640000\n        /* \"contracts/mirrorseaMain.sol\":14791:14929  order... */\n      tag_317\n        /* \"contracts/mirrorseaMain.sol\":14919:14928  PRECISION */\n      sload(0x73)\n        /* \"contracts/mirrorseaMain.sol\":14791:14893  order... */\n      tag_317\n        /* \"contracts/mirrorseaMain.sol\":14882:14892  feePercent */\n      sload(0x72)\n        /* \"contracts/mirrorseaMain.sol\":14791:14856  order... */\n      tag_318\n        /* \"contracts/mirrorseaMain.sol\":14847:14855  _price18 */\n      dup14\n        /* \"contracts/mirrorseaMain.sol\":14791:14796  order */\n      dup12\n        /* \"contracts/mirrorseaMain.sol\":14791:14821  order... */\n      0x09\n      add\n      sload\n        /* \"contracts/mirrorseaMain.sol\":14791:14846  order... */\n      tag_196\n      swap1\n        /* \"contracts/mirrorseaMain.sol\":14791:14856  order... */\n      swap2\n      swap1\n      0xffffffff\n      and\n      jump\t// in\n        /* \"contracts/mirrorseaMain.sol\":14791:14960  order... */\n    tag_461:\n        /* \"contracts/mirrorseaMain.sol\":14785:14960  fee = order... */\n      swap1\n      pop\n        /* \"contracts/mirrorseaMain.sol\":14992:15008  diffMargin + fee */\n      tag_465\n        /* \"contracts/mirrorseaMain.sol\":14785:14960  fee = order... */\n      dup2\n        /* \"contracts/mirrorseaMain.sol\":14992:15002  diffMargin */\n      dup4\n        /* \"contracts/mirrorseaMain.sol\":14992:15008  diffMargin + fee */\n      tag_454\n      jump\t// in\n    tag_465:\n        /* \"contracts/mirrorseaMain.sol\":14982:14989  _margin */\n      dup7\n        /* \"contracts/mirrorseaMain.sol\":14982:15008  _margin < diffMargin + fee */\n      lt\n        /* \"contracts/mirrorseaMain.sol\":14978:15063  if (_margin < diffMargin + fee) {... */\n      iszero\n      tag_466\n      jumpi\n        /* \"contracts/mirrorseaMain.sol\":15039:15044  false */\n      0x00\n        /* \"contracts/mirrorseaMain.sol\":15032:15044  return false */\n      swap5\n      pop\n      pop\n      pop\n      pop\n      pop\n      jump(tag_437)\n        /* \"contracts/mirrorseaMain.sol\":14978:15063  if (_margin < diffMargin + fee) {... */\n    tag_466:\n      pop\n        /* \"contracts/mirrorseaMain.sol\":15103:15107  true */\n      0x01\n      swap8\n        /* \"contracts/mirrorseaMain.sol\":13793:15114  function _isSolvent(... */\n      swap7\n      pop\n      pop\n      pop\n      pop\n      pop\n      pop\n      pop\n      jump\t// out\n        /* \"contracts/mirrorseaMain.sol\":7676:11387  function _closePosition(... */\n    tag_252:\n        /* \"contracts/mirrorseaMain.sol\":7972:7982  order.user */\n      dup7\n      sload\n        /* \"contracts/mirrorseaMain.sol\":7948:7952  bool */\n      0x00\n      swap1\n      sub(shl(0xa0, 0x01), 0x01)\n        /* \"contracts/mirrorseaMain.sol\":7972:7982  order.user */\n      and\n        /* \"contracts/mirrorseaMain.sol\":7964:8021  require(order.user != address(0), \"order does not exist\") */\n      tag_468\n      jumpi\n      mload(0x40)\n      shl(0xe5, 0x461bcd)\n      dup2\n      mstore\n      0x04\n      add\n      tag_203\n      swap1\n      tag_297\n      jump\t// in\n    tag_468:\n        /* \"contracts/mirrorseaMain.sol\":8053:8054  2 */\n      0x02\n        /* \"contracts/mirrorseaMain.sol\":8039:8044  order */\n      dup9\n        /* \"contracts/mirrorseaMain.sol\":8039:8050  order.state */\n      0x03\n      add\n      sload\n        /* \"contracts/mirrorseaMain.sol\":8039:8054  order.state < 2 */\n      lt\n        /* \"contracts/mirrorseaMain.sol\":8031:8068  require(order.state < 2, \"state err\") */\n      tag_470\n      jumpi\n      mload(0x40)\n      shl(0xe5, 0x461bcd)\n      dup2\n      mstore\n      0x04\n      add\n      tag_203\n      swap1\n      tag_300\n      jump\t// in\n    tag_470:\n        /* \"contracts/mirrorseaMain.sol\":8099:8105  oracle */\n      sload(0x69)\n        /* \"contracts/mirrorseaMain.sol\":8099:8264  oracle.getkey(... */\n      mload(0x40)\n      shl(0xe1, 0x11cdc9d9)\n      dup2\n      mstore\n      sub(shl(0xa0, 0x01), 0x01)\n        /* \"contracts/mirrorseaMain.sol\":8099:8105  oracle */\n      swap1\n      swap2\n      and\n      swap1\n        /* \"contracts/mirrorseaMain.sol\":8099:8112  oracle.getkey */\n      0x239b93b2\n      swap1\n        /* \"contracts/mirrorseaMain.sol\":8099:8264  oracle.getkey(... */\n      tag_472\n      swap1\n        /* \"contracts/mirrorseaMain.sol\":8130:8142  _marketState */\n      dup13\n      swap1\n        /* \"contracts/mirrorseaMain.sol\":8160:8168  _price18 */\n      dup8\n      swap1\n        /* \"contracts/mirrorseaMain.sol\":8186:8196  _timestamp */\n      dup11\n      swap1\n        /* \"contracts/mirrorseaMain.sol\":8214:8222  _symbols */\n      dup11\n      swap1\n        /* \"contracts/mirrorseaMain.sol\":8240:8250  _signature */\n      dup10\n      swap1\n        /* \"contracts/mirrorseaMain.sol\":8099:8264  oracle.getkey(... */\n      0x04\n      add\n      tag_302\n      jump\t// in\n    tag_472:\n      0x20\n      mload(0x40)\n      dup1\n      dup4\n      sub\n      dup2\n      dup7\n      dup1\n      extcodesize\n      iszero\n      dup1\n      iszero\n      tag_473\n      jumpi\n      0x00\n      dup1\n      revert\n    tag_473:\n      pop\n      gas\n      staticcall\n      iszero\n      dup1\n      iszero\n      tag_475\n      jumpi\n      returndatasize\n      0x00\n      dup1\n      returndatacopy\n      revert(0x00, returndatasize)\n    tag_475:\n      pop\n      pop\n      pop\n      pop\n      mload(0x40)\n      returndatasize\n      not(0x1f)\n      0x1f\n      dup3\n      add\n      and\n      dup3\n      add\n      dup1\n      0x40\n      mstore\n      pop\n      dup2\n      add\n      swap1\n      tag_476\n      swap2\n      swap1\n      tag_307\n      jump\t// in\n    tag_476:\n        /* \"contracts/mirrorseaMain.sol\":8078:8300  require(... */\n      tag_477\n      jumpi\n      mload(0x40)\n      shl(0xe5, 0x461bcd)\n      dup2\n      mstore\n      0x04\n      add\n      tag_203\n      swap1\n      tag_310\n      jump\t// in\n    tag_477:\n        /* \"contracts/mirrorseaMain.sol\":8311:8329  order.closePrice18 */\n      0x07\n      dup9\n      add\n        /* \"contracts/mirrorseaMain.sol\":8311:8340  order.closePrice18 = _price18 */\n      dup4\n      swap1\n      sstore\n        /* \"contracts/mirrorseaMain.sol\":8452:8461  order.amt */\n      0x09\n      dup9\n      add\n      sload\n        /* \"contracts/mirrorseaMain.sol\":8635:8644  PRECISION */\n      sload(0x73)\n        /* \"contracts/mirrorseaMain.sol\":8606:8616  feePercent */\n      sload(0x72)\n        /* \"contracts/mirrorseaMain.sol\":8350:8369  uint256 diffPrice18 */\n      0x00\n      swap3\n      dup4\n      swap3\n      dup4\n      swap3\n        /* \"contracts/mirrorseaMain.sol\":8332:8340  _price18 */\n      dup9\n      swap2\n        /* \"contracts/mirrorseaMain.sol\":8350:8369  uint256 diffPrice18 */\n      dup5\n      swap2\n        /* \"contracts/mirrorseaMain.sol\":8542:8668  order_closePrice18... */\n      tag_479\n      swap2\n        /* \"contracts/mirrorseaMain.sol\":8663:8667  1e18 */\n      0x0de0b6b3a7640000\n      swap2\n        /* \"contracts/mirrorseaMain.sol\":8542:8645  order_closePrice18... */\n      tag_317\n      swap2\n        /* \"contracts/mirrorseaMain.sol\":8635:8644  PRECISION */\n      swap1\n        /* \"contracts/mirrorseaMain.sol\":8542:8645  order_closePrice18... */\n      dup3\n      swap1\n        /* \"contracts/mirrorseaMain.sol\":8542:8588  order_closePrice18... */\n      tag_318\n        /* \"contracts/mirrorseaMain.sol\":8332:8340  _price18 */\n      dup9\n        /* \"contracts/mirrorseaMain.sol\":8452:8461  order.amt */\n      dup11\n        /* \"contracts/mirrorseaMain.sol\":8542:8577  order_closePrice18... */\n      tag_196\n        /* \"contracts/mirrorseaMain.sol\":8542:8588  order_closePrice18... */\n      jump\t// in\n        /* \"contracts/mirrorseaMain.sol\":8542:8668  order_closePrice18... */\n    tag_479:\n        /* \"contracts/mirrorseaMain.sol\":8528:8668  uint256 fee = order_closePrice18... */\n      swap1\n      pop\n        /* \"contracts/mirrorseaMain.sol\":8682:8687  order */\n      dup14\n        /* \"contracts/mirrorseaMain.sol\":8682:8697  order.direction */\n      0x04\n      add\n      sload\n        /* \"contracts/mirrorseaMain.sol\":8701:8702  1 */\n      0x01\n        /* \"contracts/mirrorseaMain.sol\":8682:8702  order.direction == 1 */\n      eq\n        /* \"contracts/mirrorseaMain.sol\":8678:10524  if (order.direction == 1) {... */\n      iszero\n      tag_483\n      jumpi\n        /* \"contracts/mirrorseaMain.sol\":8743:8748  order */\n      dup14\n        /* \"contracts/mirrorseaMain.sol\":8743:8760  order.openPrice18 */\n      0x05\n      add\n      sload\n        /* \"contracts/mirrorseaMain.sol\":8722:8727  order */\n      dup15\n        /* \"contracts/mirrorseaMain.sol\":8722:8740  order.closePrice18 */\n      0x07\n      add\n      sload\n        /* \"contracts/mirrorseaMain.sol\":8722:8760  order.closePrice18 > order.openPrice18 */\n      gt\n        /* \"contracts/mirrorseaMain.sol\":8718:9597  if (order.closePrice18 > order.openPrice18) {... */\n      iszero\n      tag_484\n      jumpi\n        /* \"contracts/mirrorseaMain.sol\":8817:8834  order.openPrice18 */\n      0x05\n      dup15\n      add\n      sload\n        /* \"contracts/mirrorseaMain.sol\":8794:8812  order.closePrice18 */\n      0x07\n      dup16\n      add\n      sload\n        /* \"contracts/mirrorseaMain.sol\":8794:8835  order.closePrice18.sub(order.openPrice18) */\n      tag_485\n      swap2\n        /* \"contracts/mirrorseaMain.sol\":8794:8816  order.closePrice18.sub */\n      tag_197\n        /* \"contracts/mirrorseaMain.sol\":8794:8835  order.closePrice18.sub(order.openPrice18) */\n      jump\t// in\n    tag_485:\n        /* \"contracts/mirrorseaMain.sol\":8780:8835  diffPrice18 = order.closePrice18.sub(order.openPrice18) */\n      swap6\n      pop\n        /* \"contracts/mirrorseaMain.sol\":8866:8902  diffPrice18.mul(order_amt).div(1e18) */\n      tag_486\n        /* \"contracts/mirrorseaMain.sol\":8897:8901  1e18 */\n      0x0de0b6b3a7640000\n        /* \"contracts/mirrorseaMain.sol\":8866:8892  diffPrice18.mul(order_amt) */\n      tag_317\n        /* \"contracts/mirrorseaMain.sol\":8780:8835  diffPrice18 = order.closePrice18.sub(order.openPrice18) */\n      dup9\n        /* \"contracts/mirrorseaMain.sol\":8882:8891  order_amt */\n      dup7\n        /* \"contracts/mirrorseaMain.sol\":8866:8881  diffPrice18.mul */\n      tag_196\n        /* \"contracts/mirrorseaMain.sol\":8866:8892  diffPrice18.mul(order_amt) */\n      jump\t// in\n        /* \"contracts/mirrorseaMain.sol\":8866:8902  diffPrice18.mul(order_amt).div(1e18) */\n    tag_486:\n        /* \"contracts/mirrorseaMain.sol\":8930:8942  order.margin */\n      0x0a\n      dup16\n      add\n      sload\n        /* \"contracts/mirrorseaMain.sol\":8853:8902  diffMargin = diffPrice18.mul(order_amt).div(1e18) */\n      swap1\n      swap6\n      pop\n        /* \"contracts/mirrorseaMain.sol\":8930:8958  order.margin.add(diffMargin) */\n      tag_488\n      swap1\n        /* \"contracts/mirrorseaMain.sol\":8853:8902  diffMargin = diffPrice18.mul(order_amt).div(1e18) */\n      dup7\n        /* \"contracts/mirrorseaMain.sol\":8930:8946  order.margin.add */\n      tag_326\n        /* \"contracts/mirrorseaMain.sol\":8930:8958  order.margin.add(diffMargin) */\n      jump\t// in\n    tag_488:\n        /* \"contracts/mirrorseaMain.sol\":8990:8993  usc */\n      sload(0x67)\n        /* \"contracts/mirrorseaMain.sol\":9009:9020  helperLogic */\n      sload(0x68)\n        /* \"contracts/mirrorseaMain.sol\":8977:9027  IUSC(address(usc)).mint(address(helperLogic), fee) */\n      mload(0x40)\n      shl(0xe0, 0x40c10f19)\n      dup2\n      mstore\n        /* \"contracts/mirrorseaMain.sol\":8920:8958  mintAmt = order.margin.add(diffMargin) */\n      swap3\n      swap7\n      pop\n      sub(shl(0xa0, 0x01), 0x01)\n        /* \"contracts/mirrorseaMain.sol\":8990:8993  usc */\n      swap2\n      dup3\n      and\n      swap3\n        /* \"contracts/mirrorseaMain.sol\":8977:9000  IUSC(address(usc)).mint */\n      0x40c10f19\n      swap3\n        /* \"contracts/mirrorseaMain.sol\":8977:9027  IUSC(address(usc)).mint(address(helperLogic), fee) */\n      tag_489\n      swap3\n        /* \"contracts/mirrorseaMain.sol\":9009:9020  helperLogic */\n      and\n      swap1\n        /* \"contracts/mirrorseaMain.sol\":9023:9026  fee */\n      dup6\n      swap1\n        /* \"contracts/mirrorseaMain.sol\":8977:9027  IUSC(address(usc)).mint(address(helperLogic), fee) */\n      0x04\n      add\n      tag_341\n      jump\t// in\n    tag_489:\n      0x20\n      mload(0x40)\n      dup1\n      dup4\n      sub\n      dup2\n      0x00\n      dup8\n      dup1\n      extcodesize\n      iszero\n      dup1\n      iszero\n      tag_490\n      jumpi\n      0x00\n      dup1\n      revert\n    tag_490:\n      pop\n      gas\n      call\n      iszero\n      dup1\n      iszero\n      tag_492\n      jumpi\n      returndatasize\n      0x00\n      dup1\n      returndatacopy\n      revert(0x00, returndatasize)\n    tag_492:\n      pop\n      pop\n      pop\n      pop\n      mload(0x40)\n      returndatasize\n      not(0x1f)\n      0x1f\n      dup3\n      add\n      and\n      dup3\n      add\n      dup1\n      0x40\n      mstore\n      pop\n      dup2\n      add\n      swap1\n      tag_493\n      swap2\n      swap1\n      tag_307\n      jump\t// in\n    tag_493:\n      pop\n        /* \"contracts/mirrorseaMain.sol\":9058:9061  usc */\n      sload(0x67)\n        /* \"contracts/mirrorseaMain.sol\":9069:9079  order.user */\n      dup15\n      sload\n      sub(shl(0xa0, 0x01), 0x01)\n        /* \"contracts/mirrorseaMain.sol\":9058:9061  usc */\n      swap2\n      dup3\n      and\n      swap2\n        /* \"contracts/mirrorseaMain.sol\":9045:9068  IUSC(address(usc)).mint */\n      0x40c10f19\n      swap2\n        /* \"contracts/mirrorseaMain.sol\":9069:9079  order.user */\n      and\n        /* \"contracts/mirrorseaMain.sol\":9081:9097  mintAmt.sub(fee) */\n      tag_494\n        /* \"contracts/mirrorseaMain.sol\":9081:9088  mintAmt */\n      dup8\n        /* \"contracts/mirrorseaMain.sol\":9093:9096  fee */\n      dup6\n        /* \"contracts/mirrorseaMain.sol\":9081:9092  mintAmt.sub */\n      tag_197\n        /* \"contracts/mirrorseaMain.sol\":9081:9097  mintAmt.sub(fee) */\n      jump\t// in\n    tag_494:\n        /* \"contracts/mirrorseaMain.sol\":9045:9098  IUSC(address(usc)).mint(order.user, mintAmt.sub(fee)) */\n      mload(0x40)\n      dup4\n      0xffffffff\n      and\n      0xe0\n      shl\n      dup2\n      mstore\n      0x04\n      add\n      tag_495\n      swap3\n      swap2\n      swap1\n      tag_341\n      jump\t// in\n    tag_495:\n      0x20\n      mload(0x40)\n      dup1\n      dup4\n      sub\n      dup2\n      0x00\n      dup8\n      dup1\n      extcodesize\n      iszero\n      dup1\n      iszero\n      tag_496\n      jumpi\n      0x00\n      dup1\n      revert\n    tag_496:\n      pop\n      gas\n      call\n      iszero\n      dup1\n      iszero\n      tag_498\n      jumpi\n      returndatasize\n      0x00\n      dup1\n      returndatacopy\n      revert(0x00, returndatasize)\n    tag_498:\n      pop\n      pop\n      pop\n      pop\n      mload(0x40)\n      returndatasize\n      not(0x1f)\n      0x1f\n      dup3\n      add\n      and\n      dup3\n      add\n      dup1\n      0x40\n      mstore\n      pop\n      dup2\n      add\n      swap1\n      tag_499\n      swap2\n      swap1\n      tag_307\n      jump\t// in\n    tag_499:\n      pop\n        /* \"contracts/mirrorseaMain.sol\":8718:9597  if (order.closePrice18 > order.openPrice18) {... */\n      jump(tag_504)\n    tag_484:\n        /* \"contracts/mirrorseaMain.sol\":9173:9191  order.closePrice18 */\n      0x07\n      dup15\n      add\n      sload\n        /* \"contracts/mirrorseaMain.sol\":9151:9168  order.openPrice18 */\n      0x05\n      dup16\n      add\n      sload\n        /* \"contracts/mirrorseaMain.sol\":9151:9192  order.openPrice18.sub(order.closePrice18) */\n      tag_501\n      swap2\n        /* \"contracts/mirrorseaMain.sol\":9151:9172  order.openPrice18.sub */\n      tag_197\n        /* \"contracts/mirrorseaMain.sol\":9151:9192  order.openPrice18.sub(order.closePrice18) */\n      jump\t// in\n    tag_501:\n        /* \"contracts/mirrorseaMain.sol\":9137:9192  diffPrice18 = order.openPrice18.sub(order.closePrice18) */\n      swap6\n      pop\n        /* \"contracts/mirrorseaMain.sol\":9223:9249  diffPrice18.mul(order_amt) */\n      tag_502\n        /* \"contracts/mirrorseaMain.sol\":9137:9192  diffPrice18 = order.openPrice18.sub(order.closePrice18) */\n      dup7\n        /* \"contracts/mirrorseaMain.sol\":9239:9248  order_amt */\n      dup5\n        /* \"contracts/mirrorseaMain.sol\":9223:9238  diffPrice18.mul */\n      tag_196\n        /* \"contracts/mirrorseaMain.sol\":9223:9249  diffPrice18.mul(order_amt) */\n      jump\t// in\n    tag_502:\n        /* \"contracts/mirrorseaMain.sol\":9210:9249  diffMargin = diffPrice18.mul(order_amt) */\n      swap5\n      pop\n        /* \"contracts/mirrorseaMain.sol\":9285:9290  order */\n      dup14\n        /* \"contracts/mirrorseaMain.sol\":9285:9297  order.margin */\n      0x0a\n      add\n      sload\n        /* \"contracts/mirrorseaMain.sol\":9272:9282  diffMargin */\n      dup6\n        /* \"contracts/mirrorseaMain.sol\":9272:9297  diffMargin > order.margin */\n      gt\n        /* \"contracts/mirrorseaMain.sol\":9268:9583  if (diffMargin > order.margin) {... */\n      iszero\n      tag_503\n      jumpi\n        /* \"contracts/mirrorseaMain.sol\":9331:9332  0 */\n      0x00\n        /* \"contracts/mirrorseaMain.sol\":9321:9332  mintAmt = 0 */\n      swap4\n      pop\n        /* \"contracts/mirrorseaMain.sol\":9268:9583  if (diffMargin > order.margin) {... */\n      jump(tag_504)\n    tag_503:\n        /* \"contracts/mirrorseaMain.sol\":9389:9401  order.margin */\n      0x0a\n      dup15\n      add\n      sload\n        /* \"contracts/mirrorseaMain.sol\":9389:9417  order.margin.sub(diffMargin) */\n      tag_505\n      swap1\n        /* \"contracts/mirrorseaMain.sol\":9406:9416  diffMargin */\n      dup7\n        /* \"contracts/mirrorseaMain.sol\":9389:9405  order.margin.sub */\n      tag_197\n        /* \"contracts/mirrorseaMain.sol\":9389:9417  order.margin.sub(diffMargin) */\n      jump\t// in\n    tag_505:\n        /* \"contracts/mirrorseaMain.sol\":9452:9455  usc */\n      sload(0x67)\n        /* \"contracts/mirrorseaMain.sol\":9471:9482  helperLogic */\n      sload(0x68)\n        /* \"contracts/mirrorseaMain.sol\":9439:9489  IUSC(address(usc)).mint(address(helperLogic), fee) */\n      mload(0x40)\n      shl(0xe0, 0x40c10f19)\n      dup2\n      mstore\n        /* \"contracts/mirrorseaMain.sol\":9379:9417  mintAmt = order.margin.sub(diffMargin) */\n      swap3\n      swap7\n      pop\n      sub(shl(0xa0, 0x01), 0x01)\n        /* \"contracts/mirrorseaMain.sol\":9452:9455  usc */\n      swap2\n      dup3\n      and\n      swap3\n        /* \"contracts/mirrorseaMain.sol\":9439:9462  IUSC(address(usc)).mint */\n      0x40c10f19\n      swap3\n        /* \"contracts/mirrorseaMain.sol\":9439:9489  IUSC(address(usc)).mint(address(helperLogic), fee) */\n      tag_506\n      swap3\n        /* \"contracts/mirrorseaMain.sol\":9471:9482  helperLogic */\n      and\n      swap1\n        /* \"contracts/mirrorseaMain.sol\":9485:9488  fee */\n      dup6\n      swap1\n        /* \"contracts/mirrorseaMain.sol\":9439:9489  IUSC(address(usc)).mint(address(helperLogic), fee) */\n      0x04\n      add\n      tag_341\n      jump\t// in\n    tag_506:\n      0x20\n      mload(0x40)\n      dup1\n      dup4\n      sub\n      dup2\n      0x00\n      dup8\n      dup1\n      extcodesize\n      iszero\n      dup1\n      iszero\n      tag_507\n      jumpi\n      0x00\n      dup1\n      revert\n    tag_507:\n      pop\n      gas\n      call\n      iszero\n      dup1\n      iszero\n      tag_509\n      jumpi\n      returndatasize\n      0x00\n      dup1\n      returndatacopy\n      revert(0x00, returndatasize)\n    tag_509:\n      pop\n      pop\n      pop\n      pop\n      mload(0x40)\n      returndatasize\n      not(0x1f)\n      0x1f\n      dup3\n      add\n      and\n      dup3\n      add\n      dup1\n      0x40\n      mstore\n      pop\n      dup2\n      add\n      swap1\n      tag_510\n      swap2\n      swap1\n      tag_307\n      jump\t// in\n    tag_510:\n      pop\n        /* \"contracts/mirrorseaMain.sol\":9524:9527  usc */\n      sload(0x67)\n        /* \"contracts/mirrorseaMain.sol\":9535:9545  order.user */\n      dup15\n      sload\n      sub(shl(0xa0, 0x01), 0x01)\n        /* \"contracts/mirrorseaMain.sol\":9524:9527  usc */\n      swap2\n      dup3\n      and\n      swap2\n        /* \"contracts/mirrorseaMain.sol\":9511:9534  IUSC(address(usc)).mint */\n      0x40c10f19\n      swap2\n        /* \"contracts/mirrorseaMain.sol\":9535:9545  order.user */\n      and\n        /* \"contracts/mirrorseaMain.sol\":9547:9563  mintAmt.sub(fee) */\n      tag_511\n        /* \"contracts/mirrorseaMain.sol\":9547:9554  mintAmt */\n      dup8\n        /* \"contracts/mirrorseaMain.sol\":9559:9562  fee */\n      dup6\n        /* \"contracts/mirrorseaMain.sol\":9547:9558  mintAmt.sub */\n      tag_197\n        /* \"contracts/mirrorseaMain.sol\":9547:9563  mintAmt.sub(fee) */\n      jump\t// in\n    tag_511:\n        /* \"contracts/mirrorseaMain.sol\":9511:9564  IUSC(address(usc)).mint(order.user, mintAmt.sub(fee)) */\n      mload(0x40)\n      dup4\n      0xffffffff\n      and\n      0xe0\n      shl\n      dup2\n      mstore\n      0x04\n      add\n      tag_512\n      swap3\n      swap2\n      swap1\n      tag_341\n      jump\t// in\n    tag_512:\n      0x20\n      mload(0x40)\n      dup1\n      dup4\n      sub\n      dup2\n      0x00\n      dup8\n      dup1\n      extcodesize\n      iszero\n      dup1\n      iszero\n      tag_513\n      jumpi\n      0x00\n      dup1\n      revert\n    tag_513:\n      pop\n      gas\n      call\n      iszero\n      dup1\n      iszero\n      tag_515\n      jumpi\n      returndatasize\n      0x00\n      dup1\n      returndatacopy\n      revert(0x00, returndatasize)\n    tag_515:\n      pop\n      pop\n      pop\n      pop\n      mload(0x40)\n      returndatasize\n      not(0x1f)\n      0x1f\n      dup3\n      add\n      and\n      dup3\n      add\n      dup1\n      0x40\n      mstore\n      pop\n      dup2\n      add\n      swap1\n      tag_516\n      swap2\n      swap1\n      tag_307\n      jump\t// in\n    tag_516:\n      pop\n        /* \"contracts/mirrorseaMain.sol\":9268:9583  if (diffMargin > order.margin) {... */\n    tag_504:\n        /* \"contracts/mirrorseaMain.sol\":8678:10524  if (order.direction == 1) {... */\n      jump(tag_539)\n    tag_483:\n        /* \"contracts/mirrorseaMain.sol\":9652:9657  order */\n      dup14\n        /* \"contracts/mirrorseaMain.sol\":9652:9669  order.openPrice18 */\n      0x05\n      add\n      sload\n        /* \"contracts/mirrorseaMain.sol\":9631:9636  order */\n      dup15\n        /* \"contracts/mirrorseaMain.sol\":9631:9649  order.closePrice18 */\n      0x07\n      add\n      sload\n        /* \"contracts/mirrorseaMain.sol\":9631:9669  order.closePrice18 < order.openPrice18 */\n      lt\n        /* \"contracts/mirrorseaMain.sol\":9627:10514  if (order.closePrice18 < order.openPrice18) {... */\n      iszero\n      tag_518\n      jumpi\n        /* \"contracts/mirrorseaMain.sol\":9725:9743  order.closePrice18 */\n      0x07\n      dup15\n      add\n      sload\n        /* \"contracts/mirrorseaMain.sol\":9703:9720  order.openPrice18 */\n      0x05\n      dup16\n      add\n      sload\n        /* \"contracts/mirrorseaMain.sol\":9703:9744  order.openPrice18.sub(order.closePrice18) */\n      tag_519\n      swap2\n        /* \"contracts/mirrorseaMain.sol\":9703:9724  order.openPrice18.sub */\n      tag_197\n        /* \"contracts/mirrorseaMain.sol\":9703:9744  order.openPrice18.sub(order.closePrice18) */\n      jump\t// in\n    tag_519:\n        /* \"contracts/mirrorseaMain.sol\":9689:9744  diffPrice18 = order.openPrice18.sub(order.closePrice18) */\n      swap6\n      pop\n        /* \"contracts/mirrorseaMain.sol\":9775:9811  diffPrice18.mul(order_amt).div(1e18) */\n      tag_520\n        /* \"contracts/mirrorseaMain.sol\":9806:9810  1e18 */\n      0x0de0b6b3a7640000\n        /* \"contracts/mirrorseaMain.sol\":9775:9801  diffPrice18.mul(order_amt) */\n      tag_317\n        /* \"contracts/mirrorseaMain.sol\":9689:9744  diffPrice18 = order.openPrice18.sub(order.closePrice18) */\n      dup9\n        /* \"contracts/mirrorseaMain.sol\":9791:9800  order_amt */\n      dup7\n        /* \"contracts/mirrorseaMain.sol\":9775:9790  diffPrice18.mul */\n      tag_196\n        /* \"contracts/mirrorseaMain.sol\":9775:9801  diffPrice18.mul(order_amt) */\n      jump\t// in\n        /* \"contracts/mirrorseaMain.sol\":9775:9811  diffPrice18.mul(order_amt).div(1e18) */\n    tag_520:\n        /* \"contracts/mirrorseaMain.sol\":9839:9851  order.margin */\n      0x0a\n      dup16\n      add\n      sload\n        /* \"contracts/mirrorseaMain.sol\":9762:9811  diffMargin = diffPrice18.mul(order_amt).div(1e18) */\n      swap1\n      swap6\n      pop\n        /* \"contracts/mirrorseaMain.sol\":9839:9867  order.margin.add(diffMargin) */\n      tag_505\n      swap1\n        /* \"contracts/mirrorseaMain.sol\":9762:9811  diffMargin = diffPrice18.mul(order_amt).div(1e18) */\n      dup7\n        /* \"contracts/mirrorseaMain.sol\":9839:9855  order.margin.add */\n      tag_326\n        /* \"contracts/mirrorseaMain.sol\":9839:9867  order.margin.add(diffMargin) */\n      jump\t// in\n        /* \"contracts/mirrorseaMain.sol\":9627:10514  if (order.closePrice18 < order.openPrice18) {... */\n    tag_518:\n        /* \"contracts/mirrorseaMain.sol\":10082:10099  order.openPrice18 */\n      0x05\n      dup15\n      add\n      sload\n        /* \"contracts/mirrorseaMain.sol\":10059:10077  order.closePrice18 */\n      0x07\n      dup16\n      add\n      sload\n        /* \"contracts/mirrorseaMain.sol\":10059:10100  order.closePrice18.sub(order.openPrice18) */\n      tag_535\n      swap2\n        /* \"contracts/mirrorseaMain.sol\":10059:10081  order.closePrice18.sub */\n      tag_197\n        /* \"contracts/mirrorseaMain.sol\":10059:10100  order.closePrice18.sub(order.openPrice18) */\n      jump\t// in\n    tag_535:\n        /* \"contracts/mirrorseaMain.sol\":10045:10100  diffPrice18 = order.closePrice18.sub(order.openPrice18) */\n      swap6\n      pop\n        /* \"contracts/mirrorseaMain.sol\":10131:10167  diffPrice18.mul(order_amt).div(1e18) */\n      tag_536\n        /* \"contracts/mirrorseaMain.sol\":10162:10166  1e18 */\n      0x0de0b6b3a7640000\n        /* \"contracts/mirrorseaMain.sol\":10131:10157  diffPrice18.mul(order_amt) */\n      tag_317\n        /* \"contracts/mirrorseaMain.sol\":10045:10100  diffPrice18 = order.closePrice18.sub(order.openPrice18) */\n      dup9\n        /* \"contracts/mirrorseaMain.sol\":10147:10156  order_amt */\n      dup7\n        /* \"contracts/mirrorseaMain.sol\":10131:10146  diffPrice18.mul */\n      tag_196\n        /* \"contracts/mirrorseaMain.sol\":10131:10157  diffPrice18.mul(order_amt) */\n      jump\t// in\n        /* \"contracts/mirrorseaMain.sol\":10131:10167  diffPrice18.mul(order_amt).div(1e18) */\n    tag_536:\n        /* \"contracts/mirrorseaMain.sol\":10118:10167  diffMargin = diffPrice18.mul(order_amt).div(1e18) */\n      swap5\n      pop\n        /* \"contracts/mirrorseaMain.sol\":10202:10207  order */\n      dup14\n        /* \"contracts/mirrorseaMain.sol\":10202:10214  order.margin */\n      0x0a\n      add\n      sload\n        /* \"contracts/mirrorseaMain.sol\":10189:10199  diffMargin */\n      dup6\n        /* \"contracts/mirrorseaMain.sol\":10189:10214  diffMargin > order.margin */\n      gt\n        /* \"contracts/mirrorseaMain.sol\":10185:10500  if (diffMargin > order.margin) {... */\n      iszero\n      tag_538\n      jumpi\n        /* \"contracts/mirrorseaMain.sol\":10248:10249  0 */\n      0x00\n        /* \"contracts/mirrorseaMain.sol\":10238:10249  mintAmt = 0 */\n      swap4\n      pop\n        /* \"contracts/mirrorseaMain.sol\":10185:10500  if (diffMargin > order.margin) {... */\n      jump(tag_539)\n    tag_538:\n        /* \"contracts/mirrorseaMain.sol\":10306:10318  order.margin */\n      0x0a\n      dup15\n      add\n      sload\n        /* \"contracts/mirrorseaMain.sol\":10306:10334  order.margin.sub(diffMargin) */\n      tag_540\n      swap1\n        /* \"contracts/mirrorseaMain.sol\":10323:10333  diffMargin */\n      dup7\n        /* \"contracts/mirrorseaMain.sol\":10306:10322  order.margin.sub */\n      tag_197\n        /* \"contracts/mirrorseaMain.sol\":10306:10334  order.margin.sub(diffMargin) */\n      jump\t// in\n    tag_540:\n        /* \"contracts/mirrorseaMain.sol\":10369:10372  usc */\n      sload(0x67)\n        /* \"contracts/mirrorseaMain.sol\":10388:10399  helperLogic */\n      sload(0x68)\n        /* \"contracts/mirrorseaMain.sol\":10356:10406  IUSC(address(usc)).mint(address(helperLogic), fee) */\n      mload(0x40)\n      shl(0xe0, 0x40c10f19)\n      dup2\n      mstore\n        /* \"contracts/mirrorseaMain.sol\":10296:10334  mintAmt = order.margin.sub(diffMargin) */\n      swap3\n      swap7\n      pop\n      sub(shl(0xa0, 0x01), 0x01)\n        /* \"contracts/mirrorseaMain.sol\":10369:10372  usc */\n      swap2\n      dup3\n      and\n      swap3\n        /* \"contracts/mirrorseaMain.sol\":10356:10379  IUSC(address(usc)).mint */\n      0x40c10f19\n      swap3\n        /* \"contracts/mirrorseaMain.sol\":10356:10406  IUSC(address(usc)).mint(address(helperLogic), fee) */\n      tag_541\n      swap3\n        /* \"contracts/mirrorseaMain.sol\":10388:10399  helperLogic */\n      and\n      swap1\n        /* \"contracts/mirrorseaMain.sol\":10402:10405  fee */\n      dup6\n      swap1\n        /* \"contracts/mirrorseaMain.sol\":10356:10406  IUSC(address(usc)).mint(address(helperLogic), fee) */\n      0x04\n      add\n      tag_341\n      jump\t// in\n    tag_541:\n      0x20\n      mload(0x40)\n      dup1\n      dup4\n      sub\n      dup2\n      0x00\n      dup8\n      dup1\n      extcodesize\n      iszero\n      dup1\n      iszero\n      tag_542\n      jumpi\n      0x00\n      dup1\n      revert\n    tag_542:\n      pop\n      gas\n      call\n      iszero\n      dup1\n      iszero\n      tag_544\n      jumpi\n      returndatasize\n      0x00\n      dup1\n      returndatacopy\n      revert(0x00, returndatasize)\n    tag_544:\n      pop\n      pop\n      pop\n      pop\n      mload(0x40)\n      returndatasize\n      not(0x1f)\n      0x1f\n      dup3\n      add\n      and\n      dup3\n      add\n      dup1\n      0x40\n      mstore\n      pop\n      dup2\n      add\n      swap1\n      tag_545\n      swap2\n      swap1\n      tag_307\n      jump\t// in\n    tag_545:\n      pop\n        /* \"contracts/mirrorseaMain.sol\":10441:10444  usc */\n      sload(0x67)\n        /* \"contracts/mirrorseaMain.sol\":10452:10462  order.user */\n      dup15\n      sload\n      sub(shl(0xa0, 0x01), 0x01)\n        /* \"contracts/mirrorseaMain.sol\":10441:10444  usc */\n      swap2\n      dup3\n      and\n      swap2\n        /* \"contracts/mirrorseaMain.sol\":10428:10451  IUSC(address(usc)).mint */\n      0x40c10f19\n      swap2\n        /* \"contracts/mirrorseaMain.sol\":10452:10462  order.user */\n      and\n        /* \"contracts/mirrorseaMain.sol\":10464:10480  mintAmt.sub(fee) */\n      tag_546\n        /* \"contracts/mirrorseaMain.sol\":10464:10471  mintAmt */\n      dup8\n        /* \"contracts/mirrorseaMain.sol\":10476:10479  fee */\n      dup6\n        /* \"contracts/mirrorseaMain.sol\":10464:10475  mintAmt.sub */\n      tag_197\n        /* \"contracts/mirrorseaMain.sol\":10464:10480  mintAmt.sub(fee) */\n      jump\t// in\n    tag_546:\n        /* \"contracts/mirrorseaMain.sol\":10428:10481  IUSC(address(usc)).mint(order.user, mintAmt.sub(fee)) */\n      mload(0x40)\n      dup4\n      0xffffffff\n      and\n      0xe0\n      shl\n      dup2\n      mstore\n      0x04\n      add\n      tag_547\n      swap3\n      swap2\n      swap1\n      tag_341\n      jump\t// in\n    tag_547:\n      0x20\n      mload(0x40)\n      dup1\n      dup4\n      sub\n      dup2\n      0x00\n      dup8\n      dup1\n      extcodesize\n      iszero\n      dup1\n      iszero\n      tag_548\n      jumpi\n      0x00\n      dup1\n      revert\n    tag_548:\n      pop\n      gas\n      call\n      iszero\n      dup1\n      iszero\n      tag_550\n      jumpi\n      returndatasize\n      0x00\n      dup1\n      returndatacopy\n      revert(0x00, returndatasize)\n    tag_550:\n      pop\n      pop\n      pop\n      pop\n      mload(0x40)\n      returndatasize\n      not(0x1f)\n      0x1f\n      dup3\n      add\n      and\n      dup3\n      add\n      dup1\n      0x40\n      mstore\n      pop\n      dup2\n      add\n      swap1\n      tag_551\n      swap2\n      swap1\n      tag_307\n      jump\t// in\n    tag_551:\n      pop\n        /* \"contracts/mirrorseaMain.sol\":10185:10500  if (diffMargin > order.margin) {... */\n    tag_539:\n        /* \"contracts/mirrorseaMain.sol\":10534:10545  helperLogic */\n      0x68\n      0x00\n      swap1\n      sload\n      swap1\n      0x0100\n      exp\n      swap1\n      div\n      sub(shl(0xa0, 0x01), 0x01)\n      and\n      sub(shl(0xa0, 0x01), 0x01)\n        /* \"contracts/mirrorseaMain.sol\":10534:10560  helperLogic.jointExecution */\n      and\n      0xd10c06a2\n        /* \"contracts/mirrorseaMain.sol\":10534:10562  helperLogic.jointExecution() */\n      mload(0x40)\n      dup2\n      0xffffffff\n      and\n      0xe0\n      shl\n      dup2\n      mstore\n      0x04\n      add\n      0x20\n      mload(0x40)\n      dup1\n      dup4\n      sub\n      dup2\n      0x00\n      dup8\n      dup1\n      extcodesize\n      iszero\n      dup1\n      iszero\n      tag_552\n      jumpi\n      0x00\n      dup1\n      revert\n    tag_552:\n      pop\n      gas\n      call\n      iszero\n      dup1\n      iszero\n      tag_554\n      jumpi\n      returndatasize\n      0x00\n      dup1\n      returndatacopy\n      revert(0x00, returndatasize)\n    tag_554:\n      pop\n      pop\n      pop\n      pop\n      mload(0x40)\n      returndatasize\n      not(0x1f)\n      0x1f\n      dup3\n      add\n      and\n      dup3\n      add\n      dup1\n      0x40\n      mstore\n      pop\n      dup2\n      add\n      swap1\n      tag_555\n      swap2\n      swap1\n      tag_307\n      jump\t// in\n    tag_555:\n      pop\n        /* \"contracts/mirrorseaMain.sol\":10573:10584  order.state */\n      0x03\n      dup15\n      add\n        /* \"contracts/mirrorseaMain.sol\":10573:10593  order.state = _state */\n      dup14\n      swap1\n      sstore\n        /* \"contracts/mirrorseaMain.sol\":10603:10621  order.closePrice18 */\n      0x07\n      dup15\n      add\n        /* \"contracts/mirrorseaMain.sol\":10603:10632  order.closePrice18 = _price18 */\n      dup10\n      swap1\n      sstore\n        /* \"contracts/mirrorseaMain.sol\":10642:10657  order.closeTime */\n      0x08\n      dup15\n      add\n        /* \"contracts/mirrorseaMain.sol\":10642:10670  order.closeTime = _timestamp */\n      dup12\n      swap1\n      sstore\n        /* \"contracts/mirrorseaMain.sol\":10681:10737  cutListItem(_id, openOrderIdList_index, openOrderIdList) */\n      tag_556\n        /* \"contracts/mirrorseaMain.sol\":10693:10696  _id */\n      dup13\n        /* \"contracts/mirrorseaMain.sol\":10698:10719  openOrderIdList_index */\n      0x6d\n        /* \"contracts/mirrorseaMain.sol\":10721:10736  openOrderIdList */\n      0x6c\n        /* \"contracts/mirrorseaMain.sol\":10681:10692  cutListItem */\n      tag_557\n        /* \"contracts/mirrorseaMain.sol\":10681:10737  cutListItem(_id, openOrderIdList_index, openOrderIdList) */\n      jump\t// in\n    tag_556:\n        /* \"contracts/mirrorseaMain.sol\":10813:10823  msg.sender */\n      caller\n        /* \"contracts/mirrorseaMain.sol\":10789:10824  myOpenOrderIdList_index[msg.sender] */\n      0x00\n      swap1\n      dup2\n      mstore\n        /* \"contracts/mirrorseaMain.sol\":10789:10812  myOpenOrderIdList_index */\n      0x6f\n        /* \"contracts/mirrorseaMain.sol\":10789:10824  myOpenOrderIdList_index[msg.sender] */\n      0x20\n      swap1\n      dup2\n      mstore\n      0x40\n      dup1\n      dup4\n      keccak256\n        /* \"contracts/mirrorseaMain.sol\":10838:10855  myOpenOrderIdList */\n      0x6e\n        /* \"contracts/mirrorseaMain.sol\":10838:10867  myOpenOrderIdList[msg.sender] */\n      swap1\n      swap3\n      mstore\n      swap1\n      swap2\n      keccak256\n        /* \"contracts/mirrorseaMain.sol\":10747:10877  cutListItem(... */\n      tag_558\n      swap2\n        /* \"contracts/mirrorseaMain.sol\":10772:10775  _id */\n      dup15\n      swap2\n        /* \"contracts/mirrorseaMain.sol\":10747:10758  cutListItem */\n      tag_557\n        /* \"contracts/mirrorseaMain.sol\":10747:10877  cutListItem(... */\n      jump\t// in\n    tag_558:\n        /* \"contracts/mirrorseaMain.sol\":10907:10917  msg.sender */\n      caller\n        /* \"contracts/mirrorseaMain.sol\":10888:10918  myCloseOrderIdList[msg.sender] */\n      0x00\n      dup2\n      dup2\n      mstore\n        /* \"contracts/mirrorseaMain.sol\":10888:10906  myCloseOrderIdList */\n      0x70\n        /* \"contracts/mirrorseaMain.sol\":10888:10918  myCloseOrderIdList[msg.sender] */\n      0x20\n      swap1\n      dup2\n      mstore\n      0x40\n      dup3\n      keccak256\n        /* \"contracts/mirrorseaMain.sol\":10888:10928  myCloseOrderIdList[msg.sender].push(_id) */\n      dup1\n      sload\n      0x01\n      dup2\n      dup2\n      add\n      dup4\n      sstore\n      swap2\n      dup5\n      mstore\n      swap2\n      swap1\n      swap3\n      keccak256\n      add\n      dup15\n      swap1\n      sstore\n        /* \"contracts/mirrorseaMain.sol\":10983:11048  myCloseOrderIdListLength(... */\n      tag_560\n      swap2\n        /* \"contracts/mirrorseaMain.sol\":10983:11041  myCloseOrderIdListLength(... */\n      tag_195\n      swap1\n        /* \"contracts/mirrorseaMain.sol\":10983:11007  myCloseOrderIdListLength */\n      tag_140\n        /* \"contracts/mirrorseaMain.sol\":10983:11041  myCloseOrderIdListLength(... */\n      jump\t// in\n        /* \"contracts/mirrorseaMain.sol\":10983:11048  myCloseOrderIdListLength(... */\n    tag_560:\n        /* \"contracts/mirrorseaMain.sol\":10964:10974  msg.sender */\n      caller\n        /* \"contracts/mirrorseaMain.sol\":10939:10975  myCloseOrderIdList_index[msg.sender] */\n      0x00\n      swap1\n      dup2\n      mstore\n        /* \"contracts/mirrorseaMain.sol\":10939:10963  myCloseOrderIdList_index */\n      0x71\n        /* \"contracts/mirrorseaMain.sol\":10939:10975  myCloseOrderIdList_index[msg.sender] */\n      0x20\n      swap1\n      dup2\n      mstore\n      0x40\n      dup1\n      dup4\n      keccak256\n        /* \"contracts/mirrorseaMain.sol\":10939:10980  myCloseOrderIdList_index[msg.sender][_id] */\n      swap16\n      dup4\n      mstore\n      swap15\n      swap1\n      mstore\n      swap13\n      swap1\n      swap13\n      keccak256\n        /* \"contracts/mirrorseaMain.sol\":10939:11048  myCloseOrderIdList_index[msg.sender][_id] = myCloseOrderIdListLength(... */\n      swap12\n      swap1\n      swap12\n      sstore\n      pop\n        /* \"contracts/mirrorseaMain.sol\":11376:11380  true */\n      0x01\n      swap14\n        /* \"contracts/mirrorseaMain.sol\":7676:11387  function _closePosition(... */\n      swap13\n      pop\n      pop\n      pop\n      pop\n      pop\n      pop\n      pop\n      pop\n      pop\n      pop\n      pop\n      pop\n      pop\n      jump\t// out\n        /* \"@openzeppelin/contracts-upgradeable/access/OwnableUpgradeable.sol\":2536:2723  function _transferOwnership(address newOwner) internal virtual {... */\n    tag_281:\n        /* \"@openzeppelin/contracts-upgradeable/access/OwnableUpgradeable.sol\":2628:2634  _owner */\n      0x33\n      dup1\n      sload\n      sub(shl(0xa0, 0x01), 0x01)\n        /* \"@openzeppelin/contracts-upgradeable/access/OwnableUpgradeable.sol\":2644:2661  _owner = newOwner */\n      dup4\n      dup2\n      and\n      not(sub(shl(0xa0, 0x01), 0x01))\n      dup4\n      and\n      dup2\n      or\n      swap1\n      swap4\n      sstore\n        /* \"@openzeppelin/contracts-upgradeable/access/OwnableUpgradeable.sol\":2676:2716  OwnershipTransferred(oldOwner, newOwner) */\n      mload(0x40)\n        /* \"@openzeppelin/contracts-upgradeable/access/OwnableUpgradeable.sol\":2628:2634  _owner */\n      swap2\n      and\n      swap2\n        /* \"@openzeppelin/contracts-upgradeable/access/OwnableUpgradeable.sol\":2644:2661  _owner = newOwner */\n      swap1\n        /* \"@openzeppelin/contracts-upgradeable/access/OwnableUpgradeable.sol\":2628:2634  _owner */\n      dup3\n      swap1\n        /* \"@openzeppelin/contracts-upgradeable/access/OwnableUpgradeable.sol\":2676:2716  OwnershipTransferred(oldOwner, newOwner) */\n      0x8be0079c531659141344cd1fd0a4f28419497f9722a3daafe3b4186f6b6457e0\n      swap1\n        /* \"@openzeppelin/contracts-upgradeable/access/OwnableUpgradeable.sol\":2609:2625  address oldOwner */\n      0x00\n      swap1\n        /* \"@openzeppelin/contracts-upgradeable/access/OwnableUpgradeable.sol\":2676:2716  OwnershipTransferred(oldOwner, newOwner) */\n      log3\n        /* \"@openzeppelin/contracts-upgradeable/access/OwnableUpgradeable.sol\":2536:2723  function _transferOwnership(address newOwner) internal virtual {... */\n      pop\n      pop\n      jump\t// out\n        /* \"@openzeppelin/contracts-upgradeable/utils/math/SafeMathUpgradeable.sol\":3847:3943  function div(uint256 a, uint256 b) internal pure returns (uint256) {... */\n    tag_319:\n        /* \"@openzeppelin/contracts-upgradeable/utils/math/SafeMathUpgradeable.sol\":3905:3912  uint256 */\n      0x00\n        /* \"@openzeppelin/contracts-upgradeable/utils/math/SafeMathUpgradeable.sol\":3931:3936  a / b */\n      tag_437\n        /* \"@openzeppelin/contracts-upgradeable/utils/math/SafeMathUpgradeable.sol\":3935:3936  b */\n      dup3\n        /* \"@openzeppelin/contracts-upgradeable/utils/math/SafeMathUpgradeable.sol\":3931:3932  a */\n      dup5\n        /* \"@openzeppelin/contracts-upgradeable/utils/math/SafeMathUpgradeable.sol\":3931:3936  a / b */\n      tag_565\n      jump\t// in\n        /* \"@openzeppelin/contracts-upgradeable/utils/math/SafeMathUpgradeable.sol\":2752:2848  function add(uint256 a, uint256 b) internal pure returns (uint256) {... */\n    tag_326:\n        /* \"@openzeppelin/contracts-upgradeable/utils/math/SafeMathUpgradeable.sol\":2810:2817  uint256 */\n      0x00\n        /* \"@openzeppelin/contracts-upgradeable/utils/math/SafeMathUpgradeable.sol\":2836:2841  a + b */\n      tag_437\n        /* \"@openzeppelin/contracts-upgradeable/utils/math/SafeMathUpgradeable.sol\":2840:2841  b */\n      dup3\n        /* \"@openzeppelin/contracts-upgradeable/utils/math/SafeMathUpgradeable.sol\":2836:2837  a */\n      dup5\n        /* \"@openzeppelin/contracts-upgradeable/utils/math/SafeMathUpgradeable.sol\":2836:2841  a + b */\n      tag_454\n      jump\t// in\n        /* \"@openzeppelin/contracts-upgradeable/token/ERC20/utils/SafeERC20Upgradeable.sol\":967:1219  function safeTransferFrom(... */\n    tag_332:\n        /* \"@openzeppelin/contracts-upgradeable/token/ERC20/utils/SafeERC20Upgradeable.sol\":1116:1212  _callOptionalReturn(token, abi.encodeWithSelector(token.transferFrom.selector, from, to, value)) */\n      tag_569\n        /* \"@openzeppelin/contracts-upgradeable/token/ERC20/utils/SafeERC20Upgradeable.sol\":1136:1141  token */\n      dup5\n        /* \"@openzeppelin/contracts-upgradeable/token/ERC20/utils/SafeERC20Upgradeable.sol\":1166:1193  token.transferFrom.selector */\n      shl(0xe0, 0x23b872dd)\n        /* \"@openzeppelin/contracts-upgradeable/token/ERC20/utils/SafeERC20Upgradeable.sol\":1195:1199  from */\n      dup6\n        /* \"@openzeppelin/contracts-upgradeable/token/ERC20/utils/SafeERC20Upgradeable.sol\":1201:1203  to */\n      dup6\n        /* \"@openzeppelin/contracts-upgradeable/token/ERC20/utils/SafeERC20Upgradeable.sol\":1205:1210  value */\n      dup6\n        /* \"@openzeppelin/contracts-upgradeable/token/ERC20/utils/SafeERC20Upgradeable.sol\":1143:1211  abi.encodeWithSelector(token.transferFrom.selector, from, to, value) */\n      add(0x24, mload(0x40))\n      tag_570\n      swap4\n      swap3\n      swap2\n      swap1\n      tag_571\n      jump\t// in\n    tag_570:\n      0x40\n      dup1\n      mload\n      not(0x1f)\n      dup2\n      dup5\n      sub\n      add\n      dup2\n      mstore\n      swap2\n      swap1\n      mstore\n      0x20\n      dup2\n      add\n      dup1\n      mload\n      sub(shl(0xe0, 0x01), 0x01)\n      and\n      not(sub(shl(0xe0, 0x01), 0x01))\n      swap1\n      swap4\n      and\n      swap3\n      swap1\n      swap3\n      or\n      swap1\n      swap2\n      mstore\n        /* \"@openzeppelin/contracts-upgradeable/token/ERC20/utils/SafeERC20Upgradeable.sol\":1116:1135  _callOptionalReturn */\n      tag_572\n        /* \"@openzeppelin/contracts-upgradeable/token/ERC20/utils/SafeERC20Upgradeable.sol\":1116:1212  _callOptionalReturn(token, abi.encodeWithSelector(token.transferFrom.selector, from, to, value)) */\n      jump\t// in\n    tag_569:\n        /* \"@openzeppelin/contracts-upgradeable/token/ERC20/utils/SafeERC20Upgradeable.sol\":967:1219  function safeTransferFrom(... */\n      pop\n      pop\n      pop\n      pop\n      jump\t// out\n        /* \"@openzeppelin/contracts-upgradeable/token/ERC20/utils/SafeERC20Upgradeable.sol\":745:961  function safeTransfer(... */\n    tag_352:\n        /* \"@openzeppelin/contracts-upgradeable/token/ERC20/utils/SafeERC20Upgradeable.sol\":868:954  _callOptionalReturn(token, abi.encodeWithSelector(token.transfer.selector, to, value)) */\n      tag_574\n        /* \"@openzeppelin/contracts-upgradeable/token/ERC20/utils/SafeERC20Upgradeable.sol\":888:893  token */\n      dup4\n        /* \"@openzeppelin/contracts-upgradeable/token/ERC20/utils/SafeERC20Upgradeable.sol\":918:941  token.transfer.selector */\n      shl(0xe0, 0xa9059cbb)\n        /* \"@openzeppelin/contracts-upgradeable/token/ERC20/utils/SafeERC20Upgradeable.sol\":943:945  to */\n      dup5\n        /* \"@openzeppelin/contracts-upgradeable/token/ERC20/utils/SafeERC20Upgradeable.sol\":947:952  value */\n      dup5\n        /* \"@openzeppelin/contracts-upgradeable/token/ERC20/utils/SafeERC20Upgradeable.sol\":895:953  abi.encodeWithSelector(token.transfer.selector, to, value) */\n      add(0x24, mload(0x40))\n      tag_570\n      swap3\n      swap2\n      swap1\n      tag_341\n      jump\t// in\n        /* \"@openzeppelin/contracts-upgradeable/token/ERC20/utils/SafeERC20Upgradeable.sol\":868:954  _callOptionalReturn(token, abi.encodeWithSelector(token.transfer.selector, to, value)) */\n    tag_574:\n        /* \"@openzeppelin/contracts-upgradeable/token/ERC20/utils/SafeERC20Upgradeable.sol\":745:961  function safeTransfer(... */\n      pop\n      pop\n      pop\n      jump\t// out\n        /* \"@openzeppelin/contracts-upgradeable/access/OwnableUpgradeable.sol\":988:1114  function __Ownable_init() internal initializer {... */\n    tag_427:\n        /* \"@openzeppelin/contracts-upgradeable/proxy/utils/Initializable.sol\":539:552  _initializing */\n      sload(0x00)\n      0x0100\n      swap1\n      div\n      0xff\n      and\n      dup1\n        /* \"@openzeppelin/contracts-upgradeable/proxy/utils/Initializable.sol\":539:569  _initializing || !_initialized */\n      tag_577\n      jumpi\n      pop\n        /* \"@openzeppelin/contracts-upgradeable/proxy/utils/Initializable.sol\":557:569  _initialized */\n      and(0xff, sload(0x00))\n        /* \"@openzeppelin/contracts-upgradeable/proxy/utils/Initializable.sol\":556:569  !_initialized */\n      iszero\n        /* \"@openzeppelin/contracts-upgradeable/proxy/utils/Initializable.sol\":539:569  _initializing || !_initialized */\n    tag_577:\n        /* \"@openzeppelin/contracts-upgradeable/proxy/utils/Initializable.sol\":531:620  require(_initializing || !_initialized, \"Initializable: contract is already initialized\") */\n      tag_578\n      jumpi\n      mload(0x40)\n      shl(0xe5, 0x461bcd)\n      dup2\n      mstore\n      0x04\n      add\n      tag_203\n      swap1\n      tag_423\n      jump\t// in\n    tag_578:\n        /* \"@openzeppelin/contracts-upgradeable/proxy/utils/Initializable.sol\":631:650  bool isTopLevelCall */\n      0x00\n        /* \"@openzeppelin/contracts-upgradeable/proxy/utils/Initializable.sol\":654:667  _initializing */\n      sload\n      0x0100\n      swap1\n      div\n      0xff\n      and\n        /* \"@openzeppelin/contracts-upgradeable/proxy/utils/Initializable.sol\":653:667  !_initializing */\n      iszero\n        /* \"@openzeppelin/contracts-upgradeable/proxy/utils/Initializable.sol\":677:775  if (isTopLevelCall) {... */\n      dup1\n      iszero\n      tag_580\n      jumpi\n        /* \"@openzeppelin/contracts-upgradeable/proxy/utils/Initializable.sol\":711:724  _initializing */\n      0x00\n        /* \"@openzeppelin/contracts-upgradeable/proxy/utils/Initializable.sol\":711:731  _initializing = true */\n      dup1\n      sload\n      not(0xff)\n      not(0xff00)\n      swap1\n      swap2\n      and\n      0x0100\n      or\n        /* \"@openzeppelin/contracts-upgradeable/proxy/utils/Initializable.sol\":745:764  _initialized = true */\n      and\n        /* \"@openzeppelin/contracts-upgradeable/proxy/utils/Initializable.sol\":727:731  true */\n      0x01\n        /* \"@openzeppelin/contracts-upgradeable/proxy/utils/Initializable.sol\":745:764  _initialized = true */\n      or\n      swap1\n      sstore\n        /* \"@openzeppelin/contracts-upgradeable/proxy/utils/Initializable.sol\":677:775  if (isTopLevelCall) {... */\n    tag_580:\n        /* \"@openzeppelin/contracts-upgradeable/access/OwnableUpgradeable.sol\":1045:1071  __Context_init_unchained() */\n      tag_582\n        /* \"@openzeppelin/contracts-upgradeable/access/OwnableUpgradeable.sol\":1045:1069  __Context_init_unchained */\n      tag_583\n        /* \"@openzeppelin/contracts-upgradeable/access/OwnableUpgradeable.sol\":1045:1071  __Context_init_unchained() */\n      jump\t// in\n    tag_582:\n        /* \"@openzeppelin/contracts-upgradeable/access/OwnableUpgradeable.sol\":1081:1107  __Ownable_init_unchained() */\n      tag_584\n        /* \"@openzeppelin/contracts-upgradeable/access/OwnableUpgradeable.sol\":1081:1105  __Ownable_init_unchained */\n      tag_585\n        /* \"@openzeppelin/contracts-upgradeable/access/OwnableUpgradeable.sol\":1081:1107  __Ownable_init_unchained() */\n      jump\t// in\n    tag_584:\n        /* \"@openzeppelin/contracts-upgradeable/proxy/utils/Initializable.sol\":801:815  isTopLevelCall */\n      dup1\n        /* \"@openzeppelin/contracts-upgradeable/proxy/utils/Initializable.sol\":797:863  if (isTopLevelCall) {... */\n      iszero\n      tag_418\n      jumpi\n        /* \"@openzeppelin/contracts-upgradeable/proxy/utils/Initializable.sol\":847:852  false */\n      0x00\n        /* \"@openzeppelin/contracts-upgradeable/proxy/utils/Initializable.sol\":831:852  _initializing = false */\n      dup1\n      sload\n      not(0xff00)\n      and\n      swap1\n      sstore\n        /* \"@openzeppelin/contracts-upgradeable/access/OwnableUpgradeable.sol\":988:1114  function __Ownable_init() internal initializer {... */\n      pop\n      jump\t// out\n        /* \"contracts/mirrorseaMain.sol\":11991:12371  function cutListItem(... */\n    tag_557:\n        /* \"contracts/mirrorseaMain.sol\":12148:12164  uint256 delIndex */\n      0x00\n        /* \"contracts/mirrorseaMain.sol\":12167:12183  _List_index[_id] */\n      dup4\n      dup2\n      mstore\n      0x20\n      dup4\n      swap1\n      mstore\n      0x40\n      dup2\n      keccak256\n      sload\n        /* \"contracts/mirrorseaMain.sol\":12216:12228  _List.length */\n      dup3\n      sload\n        /* \"contracts/mirrorseaMain.sol\":12167:12183  _List_index[_id] */\n      swap1\n      swap2\n        /* \"contracts/mirrorseaMain.sol\":12148:12164  uint256 delIndex */\n      swap1\n        /* \"contracts/mirrorseaMain.sol\":12210:12215  _List */\n      dup4\n      swap1\n        /* \"contracts/mirrorseaMain.sol\":12216:12235  _List.length.sub(1) */\n      tag_588\n      swap1\n        /* \"contracts/mirrorseaMain.sol\":12233:12234  1 */\n      0x01\n        /* \"contracts/mirrorseaMain.sol\":12216:12232  _List.length.sub */\n      tag_197\n        /* \"contracts/mirrorseaMain.sol\":12216:12235  _List.length.sub(1) */\n      jump\t// in\n    tag_588:\n        /* \"contracts/mirrorseaMain.sol\":12210:12236  _List[_List.length.sub(1)] */\n      dup2\n      sload\n      dup2\n      lt\n      tag_589\n      jumpi\n      mstore(0x00, shl(0xe0, 0x4e487b71))\n      mstore(0x04, 0x32)\n      revert(0x00, 0x24)\n    tag_589:\n      swap1\n      0x00\n      mstore\n      keccak256(0x00, 0x20)\n      add\n      sload\n        /* \"contracts/mirrorseaMain.sol\":12193:12236  uint256 lastID = _List[_List.length.sub(1)] */\n      swap1\n      pop\n        /* \"contracts/mirrorseaMain.sol\":12268:12276  delIndex */\n      dup2\n        /* \"contracts/mirrorseaMain.sol\":12246:12257  _List_index */\n      dup5\n        /* \"contracts/mirrorseaMain.sol\":12246:12265  _List_index[lastID] */\n      0x00\n        /* \"contracts/mirrorseaMain.sol\":12258:12264  lastID */\n      dup4\n        /* \"contracts/mirrorseaMain.sol\":12246:12265  _List_index[lastID] */\n      dup2\n      mstore\n      0x20\n      add\n      swap1\n      dup2\n      mstore\n      0x20\n      add\n      0x00\n      keccak256\n        /* \"contracts/mirrorseaMain.sol\":12246:12276  _List_index[lastID] = delIndex */\n      dup2\n      swap1\n      sstore\n      pop\n        /* \"contracts/mirrorseaMain.sol\":12304:12310  lastID */\n      dup1\n        /* \"contracts/mirrorseaMain.sol\":12286:12291  _List */\n      dup4\n        /* \"contracts/mirrorseaMain.sol\":12292:12300  delIndex */\n      dup4\n        /* \"contracts/mirrorseaMain.sol\":12286:12301  _List[delIndex] */\n      dup2\n      sload\n      dup2\n      lt\n      tag_591\n      jumpi\n      mstore(0x00, shl(0xe0, 0x4e487b71))\n      mstore(0x04, 0x32)\n      revert(0x00, 0x24)\n    tag_591:\n      0x00\n      swap2\n      dup3\n      mstore\n      0x20\n      dup1\n      dup4\n      keccak256\n      swap1\n      swap2\n      add\n        /* \"contracts/mirrorseaMain.sol\":12286:12310  _List[delIndex] = lastID */\n      swap3\n      swap1\n      swap3\n      sstore\n        /* \"contracts/mirrorseaMain.sol\":12327:12343  _List_index[_id] */\n      dup7\n      dup2\n      mstore\n      swap1\n      dup6\n      swap1\n      mstore\n      0x40\n      dup2\n      keccak256\n        /* \"contracts/mirrorseaMain.sol\":12320:12343  delete _List_index[_id] */\n      sstore\n        /* \"contracts/mirrorseaMain.sol\":12353:12364  _List.pop() */\n      dup3\n      sload\n        /* \"contracts/mirrorseaMain.sol\":12353:12358  _List */\n      dup4\n      swap1\n        /* \"contracts/mirrorseaMain.sol\":12353:12364  _List.pop() */\n      dup1\n      tag_593\n      jumpi\n      mstore(0x00, shl(0xe0, 0x4e487b71))\n      mstore(0x04, 0x31)\n      revert(0x00, 0x24)\n    tag_593:\n      0x01\n      swap1\n      sub\n      dup2\n      dup2\n      swap1\n      0x00\n      mstore\n      keccak256(0x00, 0x20)\n      add\n      0x00\n      swap1\n      sstore\n      swap1\n      sstore\n        /* \"contracts/mirrorseaMain.sol\":11991:12371  function cutListItem(... */\n      pop\n      pop\n      pop\n      pop\n      pop\n      jump\t// out\n        /* \"@openzeppelin/contracts-upgradeable/token/ERC20/utils/SafeERC20Upgradeable.sol\":3306:4023  function _callOptionalReturn(IERC20Upgradeable token, bytes memory data) private {... */\n    tag_572:\n        /* \"@openzeppelin/contracts-upgradeable/token/ERC20/utils/SafeERC20Upgradeable.sol\":3736:3759  bytes memory returndata */\n      0x00\n        /* \"@openzeppelin/contracts-upgradeable/token/ERC20/utils/SafeERC20Upgradeable.sol\":3762:3831  address(token).functionCall(data, \"SafeERC20: low-level call failed\") */\n      tag_596\n        /* \"@openzeppelin/contracts-upgradeable/token/ERC20/utils/SafeERC20Upgradeable.sol\":3790:3794  data */\n      dup3\n        /* \"@openzeppelin/contracts-upgradeable/token/ERC20/utils/SafeERC20Upgradeable.sol\":3762:3831  address(token).functionCall(data, \"SafeERC20: low-level call failed\") */\n      mload(0x40)\n      dup1\n      0x40\n      add\n      0x40\n      mstore\n      dup1\n      0x20\n      dup2\n      mstore\n      0x20\n      add\n      0x5361666545524332303a206c6f772d6c6576656c2063616c6c206661696c6564\n      dup2\n      mstore\n      pop\n        /* \"@openzeppelin/contracts-upgradeable/token/ERC20/utils/SafeERC20Upgradeable.sol\":3770:3775  token */\n      dup6\n      sub(shl(0xa0, 0x01), 0x01)\n        /* \"@openzeppelin/contracts-upgradeable/token/ERC20/utils/SafeERC20Upgradeable.sol\":3762:3789  address(token).functionCall */\n      and\n      tag_597\n      swap1\n        /* \"@openzeppelin/contracts-upgradeable/token/ERC20/utils/SafeERC20Upgradeable.sol\":3762:3831  address(token).functionCall(data, \"SafeERC20: low-level call failed\") */\n      swap3\n      swap2\n      swap1\n      0xffffffff\n      and\n      jump\t// in\n    tag_596:\n        /* \"@openzeppelin/contracts-upgradeable/token/ERC20/utils/SafeERC20Upgradeable.sol\":3845:3862  returndata.length */\n      dup1\n      mload\n        /* \"@openzeppelin/contracts-upgradeable/token/ERC20/utils/SafeERC20Upgradeable.sol\":3736:3831  bytes memory returndata = address(token).functionCall(data, \"SafeERC20: low-level call failed\") */\n      swap1\n      swap2\n      pop\n        /* \"@openzeppelin/contracts-upgradeable/token/ERC20/utils/SafeERC20Upgradeable.sol\":3845:3866  returndata.length > 0 */\n      iszero\n        /* \"@openzeppelin/contracts-upgradeable/token/ERC20/utils/SafeERC20Upgradeable.sol\":3841:4017  if (returndata.length > 0) {... */\n      tag_574\n      jumpi\n        /* \"@openzeppelin/contracts-upgradeable/token/ERC20/utils/SafeERC20Upgradeable.sol\":3940:3950  returndata */\n      dup1\n        /* \"@openzeppelin/contracts-upgradeable/token/ERC20/utils/SafeERC20Upgradeable.sol\":3929:3959  abi.decode(returndata, (bool)) */\n      dup1\n      0x20\n      add\n      swap1\n      mload\n      dup2\n      add\n      swap1\n      tag_599\n      swap2\n      swap1\n      tag_307\n      jump\t// in\n    tag_599:\n        /* \"@openzeppelin/contracts-upgradeable/token/ERC20/utils/SafeERC20Upgradeable.sol\":3921:4006  require(abi.decode(returndata, (bool)), \"SafeERC20: ERC20 operation did not succeed\") */\n      tag_574\n      jumpi\n      mload(0x40)\n      shl(0xe5, 0x461bcd)\n      dup2\n      mstore\n      0x04\n      add\n      tag_203\n      swap1\n      tag_602\n      jump\t// in\n        /* \"@openzeppelin/contracts-upgradeable/utils/ContextUpgradeable.sol\":807:871  function __Context_init_unchained() internal initializer {... */\n    tag_583:\n        /* \"@openzeppelin/contracts-upgradeable/proxy/utils/Initializable.sol\":539:552  _initializing */\n      sload(0x00)\n      0x0100\n      swap1\n      div\n      0xff\n      and\n      dup1\n        /* \"@openzeppelin/contracts-upgradeable/proxy/utils/Initializable.sol\":539:569  _initializing || !_initialized */\n      tag_604\n      jumpi\n      pop\n        /* \"@openzeppelin/contracts-upgradeable/proxy/utils/Initializable.sol\":557:569  _initialized */\n      and(0xff, sload(0x00))\n        /* \"@openzeppelin/contracts-upgradeable/proxy/utils/Initializable.sol\":556:569  !_initialized */\n      iszero\n        /* \"@openzeppelin/contracts-upgradeable/proxy/utils/Initializable.sol\":539:569  _initializing || !_initialized */\n    tag_604:\n        /* \"@openzeppelin/contracts-upgradeable/proxy/utils/Initializable.sol\":531:620  require(_initializing || !_initialized, \"Initializable: contract is already initialized\") */\n      tag_605\n      jumpi\n      mload(0x40)\n      shl(0xe5, 0x461bcd)\n      dup2\n      mstore\n      0x04\n      add\n      tag_203\n      swap1\n      tag_423\n      jump\t// in\n    tag_605:\n        /* \"@openzeppelin/contracts-upgradeable/proxy/utils/Initializable.sol\":631:650  bool isTopLevelCall */\n      0x00\n        /* \"@openzeppelin/contracts-upgradeable/proxy/utils/Initializable.sol\":654:667  _initializing */\n      sload\n      0x0100\n      swap1\n      div\n      0xff\n      and\n        /* \"@openzeppelin/contracts-upgradeable/proxy/utils/Initializable.sol\":653:667  !_initializing */\n      iszero\n        /* \"@openzeppelin/contracts-upgradeable/proxy/utils/Initializable.sol\":677:775  if (isTopLevelCall) {... */\n      dup1\n      iszero\n      tag_584\n      jumpi\n        /* \"@openzeppelin/contracts-upgradeable/proxy/utils/Initializable.sol\":711:724  _initializing */\n      0x00\n        /* \"@openzeppelin/contracts-upgradeable/proxy/utils/Initializable.sol\":711:731  _initializing = true */\n      dup1\n      sload\n      not(0xff)\n      not(0xff00)\n      swap1\n      swap2\n      and\n      0x0100\n      or\n        /* \"@openzeppelin/contracts-upgradeable/proxy/utils/Initializable.sol\":745:764  _initialized = true */\n      and\n        /* \"@openzeppelin/contracts-upgradeable/proxy/utils/Initializable.sol\":727:731  true */\n      0x01\n        /* \"@openzeppelin/contracts-upgradeable/proxy/utils/Initializable.sol\":745:764  _initialized = true */\n      or\n      swap1\n      sstore\n        /* \"@openzeppelin/contracts-upgradeable/proxy/utils/Initializable.sol\":801:815  isTopLevelCall */\n      dup1\n        /* \"@openzeppelin/contracts-upgradeable/proxy/utils/Initializable.sol\":797:863  if (isTopLevelCall) {... */\n      iszero\n      tag_418\n      jumpi\n        /* \"@openzeppelin/contracts-upgradeable/proxy/utils/Initializable.sol\":847:852  false */\n      0x00\n        /* \"@openzeppelin/contracts-upgradeable/proxy/utils/Initializable.sol\":831:852  _initializing = false */\n      dup1\n      sload\n      not(0xff00)\n      and\n      swap1\n      sstore\n        /* \"@openzeppelin/contracts-upgradeable/utils/ContextUpgradeable.sol\":807:871  function __Context_init_unchained() internal initializer {... */\n      pop\n      jump\t// out\n        /* \"@openzeppelin/contracts-upgradeable/access/OwnableUpgradeable.sol\":1120:1226  function __Ownable_init_unchained() internal initializer {... */\n    tag_585:\n        /* \"@openzeppelin/contracts-upgradeable/proxy/utils/Initializable.sol\":539:552  _initializing */\n      sload(0x00)\n      0x0100\n      swap1\n      div\n      0xff\n      and\n      dup1\n        /* \"@openzeppelin/contracts-upgradeable/proxy/utils/Initializable.sol\":539:569  _initializing || !_initialized */\n      tag_611\n      jumpi\n      pop\n        /* \"@openzeppelin/contracts-upgradeable/proxy/utils/Initializable.sol\":557:569  _initialized */\n      and(0xff, sload(0x00))\n        /* \"@openzeppelin/contracts-upgradeable/proxy/utils/Initializable.sol\":556:569  !_initialized */\n      iszero\n        /* \"@openzeppelin/contracts-upgradeable/proxy/utils/Initializable.sol\":539:569  _initializing || !_initialized */\n    tag_611:\n        /* \"@openzeppelin/contracts-upgradeable/proxy/utils/Initializable.sol\":531:620  require(_initializing || !_initialized, \"Initializable: contract is already initialized\") */\n      tag_612\n      jumpi\n      mload(0x40)\n      shl(0xe5, 0x461bcd)\n      dup2\n      mstore\n      0x04\n      add\n      tag_203\n      swap1\n      tag_423\n      jump\t// in\n    tag_612:\n        /* \"@openzeppelin/contracts-upgradeable/proxy/utils/Initializable.sol\":631:650  bool isTopLevelCall */\n      0x00\n        /* \"@openzeppelin/contracts-upgradeable/proxy/utils/Initializable.sol\":654:667  _initializing */\n      sload\n      0x0100\n      swap1\n      div\n      0xff\n      and\n        /* \"@openzeppelin/contracts-upgradeable/proxy/utils/Initializable.sol\":653:667  !_initializing */\n      iszero\n        /* \"@openzeppelin/contracts-upgradeable/proxy/utils/Initializable.sol\":677:775  if (isTopLevelCall) {... */\n      dup1\n      iszero\n      tag_614\n      jumpi\n        /* \"@openzeppelin/contracts-upgradeable/proxy/utils/Initializable.sol\":711:724  _initializing */\n      0x00\n        /* \"@openzeppelin/contracts-upgradeable/proxy/utils/Initializable.sol\":711:731  _initializing = true */\n      dup1\n      sload\n      not(0xff)\n      not(0xff00)\n      swap1\n      swap2\n      and\n      0x0100\n      or\n        /* \"@openzeppelin/contracts-upgradeable/proxy/utils/Initializable.sol\":745:764  _initialized = true */\n      and\n        /* \"@openzeppelin/contracts-upgradeable/proxy/utils/Initializable.sol\":727:731  true */\n      0x01\n        /* \"@openzeppelin/contracts-upgradeable/proxy/utils/Initializable.sol\":745:764  _initialized = true */\n      or\n      swap1\n      sstore\n        /* \"@openzeppelin/contracts-upgradeable/proxy/utils/Initializable.sol\":677:775  if (isTopLevelCall) {... */\n    tag_614:\n        /* \"@openzeppelin/contracts-upgradeable/access/OwnableUpgradeable.sol\":1187:1219  _transferOwnership(_msgSender()) */\n      tag_584\n        /* \"@openzeppelin/contracts-upgradeable/access/OwnableUpgradeable.sol\":1206:1218  _msgSender() */\n      tag_617\n        /* \"@openzeppelin/contracts-upgradeable/access/OwnableUpgradeable.sol\":1206:1216  _msgSender */\n      tag_226\n        /* \"@openzeppelin/contracts-upgradeable/access/OwnableUpgradeable.sol\":1206:1218  _msgSender() */\n      jump\t// in\n    tag_617:\n        /* \"@openzeppelin/contracts-upgradeable/access/OwnableUpgradeable.sol\":1187:1205  _transferOwnership */\n      tag_281\n        /* \"@openzeppelin/contracts-upgradeable/access/OwnableUpgradeable.sol\":1187:1219  _transferOwnership(_msgSender()) */\n      jump\t// in\n        /* \"@openzeppelin/contracts-upgradeable/utils/AddressUpgradeable.sol\":3525:3748  function functionCall(... */\n    tag_597:\n        /* \"@openzeppelin/contracts-upgradeable/utils/AddressUpgradeable.sol\":3658:3670  bytes memory */\n      0x60\n        /* \"@openzeppelin/contracts-upgradeable/utils/AddressUpgradeable.sol\":3689:3741  functionCallWithValue(target, data, 0, errorMessage) */\n      tag_620\n        /* \"@openzeppelin/contracts-upgradeable/utils/AddressUpgradeable.sol\":3711:3717  target */\n      dup5\n        /* \"@openzeppelin/contracts-upgradeable/utils/AddressUpgradeable.sol\":3719:3723  data */\n      dup5\n        /* \"@openzeppelin/contracts-upgradeable/utils/AddressUpgradeable.sol\":3725:3726  0 */\n      0x00\n        /* \"@openzeppelin/contracts-upgradeable/utils/AddressUpgradeable.sol\":3728:3740  errorMessage */\n      dup6\n        /* \"@openzeppelin/contracts-upgradeable/utils/AddressUpgradeable.sol\":3689:3710  functionCallWithValue */\n      tag_621\n        /* \"@openzeppelin/contracts-upgradeable/utils/AddressUpgradeable.sol\":3689:3741  functionCallWithValue(target, data, 0, errorMessage) */\n      jump\t// in\n    tag_620:\n        /* \"@openzeppelin/contracts-upgradeable/utils/AddressUpgradeable.sol\":3682:3741  return functionCallWithValue(target, data, 0, errorMessage) */\n      swap5\n        /* \"@openzeppelin/contracts-upgradeable/utils/AddressUpgradeable.sol\":3525:3748  function functionCall(... */\n      swap4\n      pop\n      pop\n      pop\n      pop\n      jump\t// out\n        /* \"@openzeppelin/contracts-upgradeable/utils/AddressUpgradeable.sol\":4612:5111  function functionCallWithValue(... */\n    tag_621:\n        /* \"@openzeppelin/contracts-upgradeable/utils/AddressUpgradeable.sol\":4777:4789  bytes memory */\n      0x60\n        /* \"@openzeppelin/contracts-upgradeable/utils/AddressUpgradeable.sol\":4834:4839  value */\n      dup3\n        /* \"@openzeppelin/contracts-upgradeable/utils/AddressUpgradeable.sol\":4809:4830  address(this).balance */\n      selfbalance\n        /* \"@openzeppelin/contracts-upgradeable/utils/AddressUpgradeable.sol\":4809:4839  address(this).balance >= value */\n      lt\n      iszero\n        /* \"@openzeppelin/contracts-upgradeable/utils/AddressUpgradeable.sol\":4801:4882  require(address(this).balance >= value, \"Address: insufficient balance for call\") */\n      tag_623\n      jumpi\n      mload(0x40)\n      shl(0xe5, 0x461bcd)\n      dup2\n      mstore\n      0x04\n      add\n      tag_203\n      swap1\n      tag_625\n      jump\t// in\n    tag_623:\n        /* \"@openzeppelin/contracts-upgradeable/utils/AddressUpgradeable.sol\":4900:4918  isContract(target) */\n      tag_626\n        /* \"@openzeppelin/contracts-upgradeable/utils/AddressUpgradeable.sol\":4911:4917  target */\n      dup6\n        /* \"@openzeppelin/contracts-upgradeable/utils/AddressUpgradeable.sol\":4900:4910  isContract */\n      tag_627\n        /* \"@openzeppelin/contracts-upgradeable/utils/AddressUpgradeable.sol\":4900:4918  isContract(target) */\n      jump\t// in\n    tag_626:\n        /* \"@openzeppelin/contracts-upgradeable/utils/AddressUpgradeable.sol\":4892:4952  require(isContract(target), \"Address: call to non-contract\") */\n      tag_628\n      jumpi\n      mload(0x40)\n      shl(0xe5, 0x461bcd)\n      dup2\n      mstore\n      0x04\n      add\n      tag_203\n      swap1\n      tag_630\n      jump\t// in\n    tag_628:\n        /* \"@openzeppelin/contracts-upgradeable/utils/AddressUpgradeable.sol\":4964:4976  bool success */\n      0x00\n        /* \"@openzeppelin/contracts-upgradeable/utils/AddressUpgradeable.sol\":4978:5001  bytes memory returndata */\n      dup1\n        /* \"@openzeppelin/contracts-upgradeable/utils/AddressUpgradeable.sol\":5005:5011  target */\n      dup7\n      sub(shl(0xa0, 0x01), 0x01)\n        /* \"@openzeppelin/contracts-upgradeable/utils/AddressUpgradeable.sol\":5005:5016  target.call */\n      and\n        /* \"@openzeppelin/contracts-upgradeable/utils/AddressUpgradeable.sol\":5024:5029  value */\n      dup6\n        /* \"@openzeppelin/contracts-upgradeable/utils/AddressUpgradeable.sol\":5031:5035  data */\n      dup8\n        /* \"@openzeppelin/contracts-upgradeable/utils/AddressUpgradeable.sol\":5005:5036  target.call{value: value}(data) */\n      mload(0x40)\n      tag_631\n      swap2\n      swap1\n      tag_632\n      jump\t// in\n    tag_631:\n      0x00\n      mload(0x40)\n      dup1\n      dup4\n      sub\n      dup2\n      dup6\n      dup8\n      gas\n      call\n      swap3\n      pop\n      pop\n      pop\n      returndatasize\n      dup1\n      0x00\n      dup2\n      eq\n      tag_635\n      jumpi\n      mload(0x40)\n      swap2\n      pop\n      and(add(returndatasize, 0x3f), not(0x1f))\n      dup3\n      add\n      0x40\n      mstore\n      returndatasize\n      dup3\n      mstore\n      returndatasize\n      0x00\n      0x20\n      dup5\n      add\n      returndatacopy\n      jump(tag_634)\n    tag_635:\n      0x60\n      swap2\n      pop\n    tag_634:\n      pop\n        /* \"@openzeppelin/contracts-upgradeable/utils/AddressUpgradeable.sol\":4963:5036  (bool success, bytes memory returndata) = target.call{value: value}(data) */\n      swap2\n      pop\n      swap2\n      pop\n        /* \"@openzeppelin/contracts-upgradeable/utils/AddressUpgradeable.sol\":5053:5104  verifyCallResult(success, returndata, errorMessage) */\n      tag_636\n        /* \"@openzeppelin/contracts-upgradeable/utils/AddressUpgradeable.sol\":5070:5077  success */\n      dup3\n        /* \"@openzeppelin/contracts-upgradeable/utils/AddressUpgradeable.sol\":5079:5089  returndata */\n      dup3\n        /* \"@openzeppelin/contracts-upgradeable/utils/AddressUpgradeable.sol\":5091:5103  errorMessage */\n      dup7\n        /* \"@openzeppelin/contracts-upgradeable/utils/AddressUpgradeable.sol\":5053:5069  verifyCallResult */\n      tag_637\n        /* \"@openzeppelin/contracts-upgradeable/utils/AddressUpgradeable.sol\":5053:5104  verifyCallResult(success, returndata, errorMessage) */\n      jump\t// in\n    tag_636:\n        /* \"@openzeppelin/contracts-upgradeable/utils/AddressUpgradeable.sol\":5046:5104  return verifyCallResult(success, returndata, errorMessage) */\n      swap8\n        /* \"@openzeppelin/contracts-upgradeable/utils/AddressUpgradeable.sol\":4612:5111  function functionCallWithValue(... */\n      swap7\n      pop\n      pop\n      pop\n      pop\n      pop\n      pop\n      pop\n      jump\t// out\n        /* \"@openzeppelin/contracts-upgradeable/utils/AddressUpgradeable.sol\":782:1159  function isContract(address account) internal view returns (bool) {... */\n    tag_627:\n        /* \"@openzeppelin/contracts-upgradeable/utils/AddressUpgradeable.sol\":1098:1118  extcodesize(account) */\n      extcodesize\n        /* \"@openzeppelin/contracts-upgradeable/utils/AddressUpgradeable.sol\":1144:1152  size > 0 */\n      iszero\n      iszero\n      swap1\n        /* \"@openzeppelin/contracts-upgradeable/utils/AddressUpgradeable.sol\":782:1159  function isContract(address account) internal view returns (bool) {... */\n      jump\t// out\n        /* \"@openzeppelin/contracts-upgradeable/utils/AddressUpgradeable.sol\":6275:6967  function verifyCallResult(... */\n    tag_637:\n        /* \"@openzeppelin/contracts-upgradeable/utils/AddressUpgradeable.sol\":6421:6433  bytes memory */\n      0x60\n        /* \"@openzeppelin/contracts-upgradeable/utils/AddressUpgradeable.sol\":6449:6456  success */\n      dup4\n        /* \"@openzeppelin/contracts-upgradeable/utils/AddressUpgradeable.sol\":6445:6961  if (success) {... */\n      iszero\n      tag_640\n      jumpi\n      pop\n        /* \"@openzeppelin/contracts-upgradeable/utils/AddressUpgradeable.sol\":6479:6489  returndata */\n      dup2\n        /* \"@openzeppelin/contracts-upgradeable/utils/AddressUpgradeable.sol\":6472:6489  return returndata */\n      jump(tag_437)\n        /* \"@openzeppelin/contracts-upgradeable/utils/AddressUpgradeable.sol\":6445:6961  if (success) {... */\n    tag_640:\n        /* \"@openzeppelin/contracts-upgradeable/utils/AddressUpgradeable.sol\":6590:6607  returndata.length */\n      dup3\n      mload\n        /* \"@openzeppelin/contracts-upgradeable/utils/AddressUpgradeable.sol\":6590:6611  returndata.length > 0 */\n      iszero\n        /* \"@openzeppelin/contracts-upgradeable/utils/AddressUpgradeable.sol\":6586:6951  if (returndata.length > 0) {... */\n      tag_642\n      jumpi\n        /* \"@openzeppelin/contracts-upgradeable/utils/AddressUpgradeable.sol\":6784:6794  returndata */\n      dup3\n        /* \"@openzeppelin/contracts-upgradeable/utils/AddressUpgradeable.sol\":6778:6795  mload(returndata) */\n      mload\n        /* \"@openzeppelin/contracts-upgradeable/utils/AddressUpgradeable.sol\":6844:6859  returndata_size */\n      dup1\n        /* \"@openzeppelin/contracts-upgradeable/utils/AddressUpgradeable.sol\":6831:6841  returndata */\n      dup5\n        /* \"@openzeppelin/contracts-upgradeable/utils/AddressUpgradeable.sol\":6827:6829  32 */\n      0x20\n        /* \"@openzeppelin/contracts-upgradeable/utils/AddressUpgradeable.sol\":6823:6842  add(32, returndata) */\n      add\n        /* \"@openzeppelin/contracts-upgradeable/utils/AddressUpgradeable.sol\":6816:6860  revert(add(32, returndata), returndata_size) */\n      revert\n        /* \"@openzeppelin/contracts-upgradeable/utils/AddressUpgradeable.sol\":6733:6878  {... */\n    tag_642:\n        /* \"@openzeppelin/contracts-upgradeable/utils/AddressUpgradeable.sol\":6923:6935  errorMessage */\n      dup2\n        /* \"@openzeppelin/contracts-upgradeable/utils/AddressUpgradeable.sol\":6916:6936  revert(errorMessage) */\n      mload(0x40)\n      shl(0xe5, 0x461bcd)\n      dup2\n      mstore\n      0x04\n      add\n      tag_203\n      swap2\n      swap1\n      tag_645\n      jump\t// in\n    tag_255:\n      mload(0x40)\n      dup1\n      0x0160\n      add\n      0x40\n      mstore\n      dup1\n      and(sub(shl(0xa0, 0x01), 0x01), 0x00)\n      dup2\n      mstore\n      0x20\n      add\n      0x00\n      dup2\n      mstore\n      0x20\n      add\n      0x60\n      dup2\n      mstore\n      0x20\n      add\n      0x00\n      dup2\n      mstore\n      0x20\n      add\n      0x00\n      dup2\n      mstore\n      0x20\n      add\n      0x00\n      dup2\n      mstore\n      0x20\n      add\n      0x00\n      dup2\n      mstore\n      0x20\n      add\n      0x00\n      dup2\n      mstore\n      0x20\n      add\n      0x00\n      dup2\n      mstore\n      0x20\n      add\n      0x00\n      dup2\n      mstore\n      0x20\n      add\n      0x00\n      dup2\n      mstore\n      pop\n      swap1\n      jump\t// out\n    tag_404:\n      dup3\n      dup1\n      sload\n      tag_646\n      swap1\n      tag_258\n      jump\t// in\n    tag_646:\n      swap1\n      0x00\n      mstore\n      keccak256(0x00, 0x20)\n      swap1\n      0x1f\n      add\n      0x20\n      swap1\n      div\n      dup2\n      add\n      swap3\n      dup3\n      tag_648\n      jumpi\n      0x00\n      dup6\n      sstore\n      jump(tag_651)\n    tag_648:\n      dup3\n      0x1f\n      lt\n      tag_649\n      jumpi\n      dup1\n      mload\n      not(0xff)\n      and\n      dup4\n      dup1\n      add\n      or\n      dup6\n      sstore\n      jump(tag_651)\n    tag_649:\n      dup3\n      dup1\n      add\n      0x01\n      add\n      dup6\n      sstore\n      dup3\n      iszero\n      tag_651\n      jumpi\n      swap2\n      dup3\n      add\n    tag_650:\n      dup3\n      dup2\n      gt\n      iszero\n      tag_651\n      jumpi\n      dup3\n      mload\n      dup3\n      sstore\n      swap2\n      0x20\n      add\n      swap2\n      swap1\n      0x01\n      add\n      swap1\n      jump(tag_650)\n    tag_651:\n      pop\n      tag_652\n      swap3\n      swap2\n      pop\n      tag_653\n      jump\t// in\n    tag_652:\n      pop\n      swap1\n      jump\t// out\n    tag_653:\n    tag_654:\n      dup1\n      dup3\n      gt\n      iszero\n      tag_652\n      jumpi\n      0x00\n      dup2\n      sstore\n      0x01\n      add\n      jump(tag_654)\n        /* \"#utility.yul\":14:152   */\n    tag_657:\n        /* \"#utility.yul\":84:104   */\n      dup1\n      calldataload\n        /* \"#utility.yul\":113:146   */\n      tag_256\n        /* \"#utility.yul\":84:104   */\n      dup2\n        /* \"#utility.yul\":113:146   */\n      tag_660\n      jump\t// in\n        /* \"#utility.yul\":157:826   */\n    tag_661:\n      0x00\n        /* \"#utility.yul\":268:271   */\n      dup3\n        /* \"#utility.yul\":261:265   */\n      0x1f\n        /* \"#utility.yul\":253:259   */\n      dup4\n        /* \"#utility.yul\":249:266   */\n      add\n        /* \"#utility.yul\":245:272   */\n      slt\n        /* \"#utility.yul\":235:237   */\n      tag_663\n      jumpi\n        /* \"#utility.yul\":290:295   */\n      dup1\n        /* \"#utility.yul\":283:288   */\n      dup2\n        /* \"#utility.yul\":276:296   */\n      revert\n        /* \"#utility.yul\":235:237   */\n    tag_663:\n        /* \"#utility.yul\":330:336   */\n      dup2\n        /* \"#utility.yul\":317:337   */\n      calldataload\n        /* \"#utility.yul\":356:360   */\n      0x20\n        /* \"#utility.yul\":380:443   */\n      tag_664\n        /* \"#utility.yul\":395:442   */\n      tag_665\n        /* \"#utility.yul\":439:441   */\n      dup4\n        /* \"#utility.yul\":395:442   */\n      tag_666\n      jump\t// in\n    tag_665:\n        /* \"#utility.yul\":380:443   */\n      tag_667\n      jump\t// in\n    tag_664:\n        /* \"#utility.yul\":477:492   */\n      dup3\n      dup2\n      mstore\n        /* \"#utility.yul\":508:520   */\n      dup2\n      dup2\n      add\n      swap1\n        /* \"#utility.yul\":540:555   */\n      dup6\n      dup4\n      add\n        /* \"#utility.yul\":573:578   */\n      dup6\n        /* \"#utility.yul\":587:797   */\n    tag_668:\n        /* \"#utility.yul\":601:603   */\n      dup6\n        /* \"#utility.yul\":598:599   */\n      dup2\n        /* \"#utility.yul\":595:604   */\n      lt\n        /* \"#utility.yul\":587:797   */\n      iszero\n      tag_670\n      jumpi\n        /* \"#utility.yul\":658:722   */\n      tag_671\n        /* \"#utility.yul\":718:721   */\n      dup10\n        /* \"#utility.yul\":713:715   */\n      dup7\n        /* \"#utility.yul\":706:709   */\n      dup5\n        /* \"#utility.yul\":693:710   */\n      calldataload\n        /* \"#utility.yul\":685:691   */\n      dup12\n        /* \"#utility.yul\":681:711   */\n      add\n        /* \"#utility.yul\":677:716   */\n      add\n        /* \"#utility.yul\":658:722   */\n      tag_672\n      jump\t// in\n    tag_671:\n        /* \"#utility.yul\":646:723   */\n      dup5\n      mstore\n        /* \"#utility.yul\":743:755   */\n      swap3\n      dup5\n      add\n      swap3\n        /* \"#utility.yul\":775:787   */\n      swap1\n      dup5\n      add\n      swap1\n        /* \"#utility.yul\":619:620   */\n      0x01\n        /* \"#utility.yul\":612:621   */\n      add\n        /* \"#utility.yul\":587:797   */\n      jump(tag_668)\n    tag_670:\n      pop\n        /* \"#utility.yul\":815:820   */\n      swap1\n      swap8\n        /* \"#utility.yul\":225:826   */\n      swap7\n      pop\n      pop\n      pop\n      pop\n      pop\n      pop\n      pop\n      jump\t// out\n        /* \"#utility.yul\":831:1501   */\n    tag_673:\n      0x00\n        /* \"#utility.yul\":943:946   */\n      dup3\n        /* \"#utility.yul\":936:940   */\n      0x1f\n        /* \"#utility.yul\":928:934   */\n      dup4\n        /* \"#utility.yul\":924:941   */\n      add\n        /* \"#utility.yul\":920:947   */\n      slt\n        /* \"#utility.yul\":910:912   */\n      tag_675\n      jumpi\n        /* \"#utility.yul\":965:970   */\n      dup1\n        /* \"#utility.yul\":958:963   */\n      dup2\n        /* \"#utility.yul\":951:971   */\n      revert\n        /* \"#utility.yul\":910:912   */\n    tag_675:\n        /* \"#utility.yul\":1005:1011   */\n      dup2\n        /* \"#utility.yul\":992:1012   */\n      calldataload\n        /* \"#utility.yul\":1031:1035   */\n      0x20\n        /* \"#utility.yul\":1055:1118   */\n      tag_676\n        /* \"#utility.yul\":1070:1117   */\n      tag_665\n        /* \"#utility.yul\":1114:1116   */\n      dup4\n        /* \"#utility.yul\":1070:1117   */\n      tag_666\n      jump\t// in\n        /* \"#utility.yul\":1055:1118   */\n    tag_676:\n        /* \"#utility.yul\":1152:1167   */\n      dup3\n      dup2\n      mstore\n        /* \"#utility.yul\":1183:1195   */\n      dup2\n      dup2\n      add\n      swap1\n        /* \"#utility.yul\":1215:1230   */\n      dup6\n      dup4\n      add\n        /* \"#utility.yul\":1248:1253   */\n      dup6\n        /* \"#utility.yul\":1262:1472   */\n    tag_678:\n        /* \"#utility.yul\":1276:1278   */\n      dup6\n        /* \"#utility.yul\":1273:1274   */\n      dup2\n        /* \"#utility.yul\":1270:1279   */\n      lt\n        /* \"#utility.yul\":1262:1472   */\n      iszero\n      tag_670\n      jumpi\n        /* \"#utility.yul\":1333:1397   */\n      tag_681\n        /* \"#utility.yul\":1393:1396   */\n      dup10\n        /* \"#utility.yul\":1388:1390   */\n      dup7\n        /* \"#utility.yul\":1381:1384   */\n      dup5\n        /* \"#utility.yul\":1368:1385   */\n      calldataload\n        /* \"#utility.yul\":1360:1366   */\n      dup12\n        /* \"#utility.yul\":1356:1386   */\n      add\n        /* \"#utility.yul\":1352:1391   */\n      add\n        /* \"#utility.yul\":1333:1397   */\n      tag_672\n      jump\t// in\n    tag_681:\n        /* \"#utility.yul\":1321:1398   */\n      dup5\n      mstore\n        /* \"#utility.yul\":1418:1430   */\n      swap3\n      dup5\n      add\n      swap3\n        /* \"#utility.yul\":1450:1462   */\n      swap1\n      dup5\n      add\n      swap1\n        /* \"#utility.yul\":1294:1295   */\n      0x01\n        /* \"#utility.yul\":1287:1296   */\n      add\n        /* \"#utility.yul\":1262:1472   */\n      jump(tag_678)\n        /* \"#utility.yul\":1506:2209   */\n    tag_682:\n      0x00\n        /* \"#utility.yul\":1619:1622   */\n      dup3\n        /* \"#utility.yul\":1612:1616   */\n      0x1f\n        /* \"#utility.yul\":1604:1610   */\n      dup4\n        /* \"#utility.yul\":1600:1617   */\n      add\n        /* \"#utility.yul\":1596:1623   */\n      slt\n        /* \"#utility.yul\":1586:1588   */\n      tag_684\n      jumpi\n        /* \"#utility.yul\":1641:1646   */\n      dup1\n        /* \"#utility.yul\":1634:1639   */\n      dup2\n        /* \"#utility.yul\":1627:1647   */\n      revert\n        /* \"#utility.yul\":1586:1588   */\n    tag_684:\n        /* \"#utility.yul\":1681:1687   */\n      dup2\n        /* \"#utility.yul\":1668:1688   */\n      calldataload\n        /* \"#utility.yul\":1707:1711   */\n      0x20\n        /* \"#utility.yul\":1731:1794   */\n      tag_685\n        /* \"#utility.yul\":1746:1793   */\n      tag_665\n        /* \"#utility.yul\":1790:1792   */\n      dup4\n        /* \"#utility.yul\":1746:1793   */\n      tag_666\n      jump\t// in\n        /* \"#utility.yul\":1731:1794   */\n    tag_685:\n        /* \"#utility.yul\":1828:1843   */\n      dup3\n      dup2\n      mstore\n        /* \"#utility.yul\":1859:1871   */\n      dup2\n      dup2\n      add\n      swap1\n        /* \"#utility.yul\":1891:1906   */\n      dup6\n      dup4\n      add\n        /* \"#utility.yul\":1937:1948   */\n      dup4\n      dup6\n      mul\n        /* \"#utility.yul\":1925:1949   */\n      dup8\n      add\n        /* \"#utility.yul\":1921:1954   */\n      dup5\n      add\n        /* \"#utility.yul\":1918:1960   */\n      dup9\n      lt\n        /* \"#utility.yul\":1915:1917   */\n      iszero\n      tag_687\n      jumpi\n        /* \"#utility.yul\":1977:1982   */\n      dup6\n        /* \"#utility.yul\":1970:1975   */\n      dup7\n        /* \"#utility.yul\":1963:1983   */\n      revert\n        /* \"#utility.yul\":1915:1917   */\n    tag_687:\n        /* \"#utility.yul\":2003:2008   */\n      dup6\n        /* \"#utility.yul\":2017:2180   */\n    tag_688:\n        /* \"#utility.yul\":2031:2033   */\n      dup6\n        /* \"#utility.yul\":2028:2029   */\n      dup2\n        /* \"#utility.yul\":2025:2034   */\n      lt\n        /* \"#utility.yul\":2017:2180   */\n      iszero\n      tag_670\n      jumpi\n        /* \"#utility.yul\":2088:2105   */\n      dup2\n      calldataload\n        /* \"#utility.yul\":2076:2106   */\n      dup5\n      mstore\n        /* \"#utility.yul\":2126:2138   */\n      swap3\n      dup5\n      add\n      swap3\n        /* \"#utility.yul\":2158:2170   */\n      swap1\n      dup5\n      add\n      swap1\n        /* \"#utility.yul\":2049:2050   */\n      0x01\n        /* \"#utility.yul\":2042:2051   */\n      add\n        /* \"#utility.yul\":2017:2180   */\n      jump(tag_688)\n        /* \"#utility.yul\":2214:2346   */\n    tag_691:\n        /* \"#utility.yul\":2281:2301   */\n      dup1\n      calldataload\n        /* \"#utility.yul\":2310:2340   */\n      tag_256\n        /* \"#utility.yul\":2281:2301   */\n      dup2\n        /* \"#utility.yul\":2310:2340   */\n      tag_694\n      jump\t// in\n        /* \"#utility.yul\":2351:2902   */\n    tag_672:\n      0x00\n        /* \"#utility.yul\":2448:2451   */\n      dup3\n        /* \"#utility.yul\":2441:2445   */\n      0x1f\n        /* \"#utility.yul\":2433:2439   */\n      dup4\n        /* \"#utility.yul\":2429:2446   */\n      add\n        /* \"#utility.yul\":2425:2452   */\n      slt\n        /* \"#utility.yul\":2415:2417   */\n      tag_696\n      jumpi\n        /* \"#utility.yul\":2470:2475   */\n      dup1\n        /* \"#utility.yul\":2463:2468   */\n      dup2\n        /* \"#utility.yul\":2456:2476   */\n      revert\n        /* \"#utility.yul\":2415:2417   */\n    tag_696:\n        /* \"#utility.yul\":2510:2516   */\n      dup2\n        /* \"#utility.yul\":2497:2517   */\n      calldataload\n        /* \"#utility.yul\":2536:2554   */\n      0xffffffffffffffff\n        /* \"#utility.yul\":2532:2534   */\n      dup2\n        /* \"#utility.yul\":2529:2555   */\n      gt\n        /* \"#utility.yul\":2526:2528   */\n      iszero\n      tag_698\n      jumpi\n        /* \"#utility.yul\":2558:2576   */\n      tag_698\n      tag_699\n      jump\t// in\n    tag_698:\n        /* \"#utility.yul\":2602:2656   */\n      tag_700\n        /* \"#utility.yul\":2644:2646   */\n      0x1f\n        /* \"#utility.yul\":2625:2638   */\n      dup3\n      add\n      not(0x1f)\n        /* \"#utility.yul\":2621:2648   */\n      and\n        /* \"#utility.yul\":2650:2654   */\n      0x20\n        /* \"#utility.yul\":2617:2655   */\n      add\n        /* \"#utility.yul\":2602:2656   */\n      tag_667\n      jump\t// in\n    tag_700:\n        /* \"#utility.yul\":2681:2683   */\n      dup2\n        /* \"#utility.yul\":2672:2679   */\n      dup2\n        /* \"#utility.yul\":2665:2684   */\n      mstore\n        /* \"#utility.yul\":2727:2730   */\n      dup5\n        /* \"#utility.yul\":2720:2724   */\n      0x20\n        /* \"#utility.yul\":2715:2717   */\n      dup4\n        /* \"#utility.yul\":2707:2713   */\n      dup7\n        /* \"#utility.yul\":2703:2718   */\n      add\n        /* \"#utility.yul\":2699:2725   */\n      add\n        /* \"#utility.yul\":2696:2731   */\n      gt\n        /* \"#utility.yul\":2693:2695   */\n      iszero\n      tag_701\n      jumpi\n        /* \"#utility.yul\":2748:2753   */\n      dup3\n        /* \"#utility.yul\":2741:2746   */\n      dup4\n        /* \"#utility.yul\":2734:2754   */\n      revert\n        /* \"#utility.yul\":2693:2695   */\n    tag_701:\n        /* \"#utility.yul\":2817:2819   */\n      dup2\n        /* \"#utility.yul\":2810:2814   */\n      0x20\n        /* \"#utility.yul\":2802:2808   */\n      dup6\n        /* \"#utility.yul\":2798:2815   */\n      add\n        /* \"#utility.yul\":2791:2795   */\n      0x20\n        /* \"#utility.yul\":2782:2789   */\n      dup4\n        /* \"#utility.yul\":2778:2796   */\n      add\n        /* \"#utility.yul\":2765:2820   */\n      calldatacopy\n        /* \"#utility.yul\":2840:2856   */\n      swap1\n      dup2\n      add\n        /* \"#utility.yul\":2858:2862   */\n      0x20\n        /* \"#utility.yul\":2836:2863   */\n      add\n        /* \"#utility.yul\":2829:2871   */\n      swap2\n      swap1\n      swap2\n      mstore\n        /* \"#utility.yul\":2844:2851   */\n      swap3\n        /* \"#utility.yul\":2405:2902   */\n      swap2\n      pop\n      pop\n      jump\t// out\n        /* \"#utility.yul\":2907:3166   */\n    tag_83:\n      0x00\n        /* \"#utility.yul\":3019:3021   */\n      0x20\n        /* \"#utility.yul\":3007:3016   */\n      dup3\n        /* \"#utility.yul\":2998:3005   */\n      dup5\n        /* \"#utility.yul\":2994:3017   */\n      sub\n        /* \"#utility.yul\":2990:3022   */\n      slt\n        /* \"#utility.yul\":2987:2989   */\n      iszero\n      tag_703\n      jumpi\n        /* \"#utility.yul\":3040:3046   */\n      dup1\n        /* \"#utility.yul\":3032:3038   */\n      dup2\n        /* \"#utility.yul\":3025:3047   */\n      revert\n        /* \"#utility.yul\":2987:2989   */\n    tag_703:\n        /* \"#utility.yul\":3084:3093   */\n      dup2\n        /* \"#utility.yul\":3071:3094   */\n      calldataload\n        /* \"#utility.yul\":3103:3136   */\n      tag_437\n        /* \"#utility.yul\":3130:3135   */\n      dup2\n        /* \"#utility.yul\":3103:3136   */\n      tag_660\n      jump\t// in\n        /* \"#utility.yul\":3171:3567   */\n    tag_61:\n      0x00\n      dup1\n        /* \"#utility.yul\":3297:3299   */\n      0x40\n        /* \"#utility.yul\":3285:3294   */\n      dup4\n        /* \"#utility.yul\":3276:3283   */\n      dup6\n        /* \"#utility.yul\":3272:3295   */\n      sub\n        /* \"#utility.yul\":3268:3300   */\n      slt\n        /* \"#utility.yul\":3265:3267   */\n      iszero\n      tag_706\n      jumpi\n        /* \"#utility.yul\":3318:3324   */\n      dup1\n        /* \"#utility.yul\":3310:3316   */\n      dup2\n        /* \"#utility.yul\":3303:3325   */\n      revert\n        /* \"#utility.yul\":3265:3267   */\n    tag_706:\n        /* \"#utility.yul\":3362:3371   */\n      dup3\n        /* \"#utility.yul\":3349:3372   */\n      calldataload\n        /* \"#utility.yul\":3381:3414   */\n      tag_707\n        /* \"#utility.yul\":3408:3413   */\n      dup2\n        /* \"#utility.yul\":3381:3414   */\n      tag_660\n      jump\t// in\n    tag_707:\n        /* \"#utility.yul\":3433:3438   */\n      swap2\n      pop\n        /* \"#utility.yul\":3490:3492   */\n      0x20\n        /* \"#utility.yul\":3475:3493   */\n      dup4\n      add\n        /* \"#utility.yul\":3462:3494   */\n      calldataload\n        /* \"#utility.yul\":3503:3535   */\n      tag_708\n        /* \"#utility.yul\":3462:3494   */\n      dup2\n        /* \"#utility.yul\":3503:3535   */\n      tag_694\n      jump\t// in\n    tag_708:\n        /* \"#utility.yul\":3554:3561   */\n      dup1\n        /* \"#utility.yul\":3544:3561   */\n      swap2\n      pop\n      pop\n        /* \"#utility.yul\":3255:3567   */\n      swap3\n      pop\n      swap3\n      swap1\n      pop\n      jump\t// out\n        /* \"#utility.yul\":3572:4323   */\n    tag_174:\n      0x00\n      dup1\n      0x00\n      dup1\n        /* \"#utility.yul\":3797:3800   */\n      0x80\n        /* \"#utility.yul\":3785:3794   */\n      dup6\n        /* \"#utility.yul\":3776:3783   */\n      dup8\n        /* \"#utility.yul\":3772:3795   */\n      sub\n        /* \"#utility.yul\":3768:3801   */\n      slt\n        /* \"#utility.yul\":3765:3767   */\n      iszero\n      tag_710\n      jumpi\n        /* \"#utility.yul\":3819:3825   */\n      dup2\n        /* \"#utility.yul\":3811:3817   */\n      dup3\n        /* \"#utility.yul\":3804:3826   */\n      revert\n        /* \"#utility.yul\":3765:3767   */\n    tag_710:\n        /* \"#utility.yul\":3863:3872   */\n      dup5\n        /* \"#utility.yul\":3850:3873   */\n      calldataload\n        /* \"#utility.yul\":3882:3915   */\n      tag_711\n        /* \"#utility.yul\":3909:3914   */\n      dup2\n        /* \"#utility.yul\":3882:3915   */\n      tag_660\n      jump\t// in\n    tag_711:\n        /* \"#utility.yul\":3934:3939   */\n      swap4\n      pop\n        /* \"#utility.yul\":3991:3993   */\n      0x20\n        /* \"#utility.yul\":3976:3994   */\n      dup6\n      add\n        /* \"#utility.yul\":3963:3995   */\n      calldataload\n        /* \"#utility.yul\":4004:4039   */\n      tag_712\n        /* \"#utility.yul\":3963:3995   */\n      dup2\n        /* \"#utility.yul\":4004:4039   */\n      tag_660\n      jump\t// in\n    tag_712:\n        /* \"#utility.yul\":4058:4065   */\n      swap3\n      pop\n        /* \"#utility.yul\":4117:4119   */\n      0x40\n        /* \"#utility.yul\":4102:4120   */\n      dup6\n      add\n        /* \"#utility.yul\":4089:4121   */\n      calldataload\n        /* \"#utility.yul\":4130:4165   */\n      tag_713\n        /* \"#utility.yul\":4089:4121   */\n      dup2\n        /* \"#utility.yul\":4130:4165   */\n      tag_660\n      jump\t// in\n    tag_713:\n        /* \"#utility.yul\":4184:4191   */\n      swap2\n      pop\n        /* \"#utility.yul\":4243:4245   */\n      0x60\n        /* \"#utility.yul\":4228:4246   */\n      dup6\n      add\n        /* \"#utility.yul\":4215:4247   */\n      calldataload\n        /* \"#utility.yul\":4256:4291   */\n      tag_714\n        /* \"#utility.yul\":4215:4247   */\n      dup2\n        /* \"#utility.yul\":4256:4291   */\n      tag_660\n      jump\t// in\n    tag_714:\n        /* \"#utility.yul\":3755:4323   */\n      swap4\n      swap7\n      swap3\n      swap6\n      pop\n      swap1\n      swap4\n      pop\n      pop\n      jump\t// out\n        /* \"#utility.yul\":4328:4655   */\n    tag_109:\n      0x00\n      dup1\n        /* \"#utility.yul\":4457:4459   */\n      0x40\n        /* \"#utility.yul\":4445:4454   */\n      dup4\n        /* \"#utility.yul\":4436:4443   */\n      dup6\n        /* \"#utility.yul\":4432:4455   */\n      sub\n        /* \"#utility.yul\":4428:4460   */\n      slt\n        /* \"#utility.yul\":4425:4427   */\n      iszero\n      tag_716\n      jumpi\n        /* \"#utility.yul\":4478:4484   */\n      dup2\n        /* \"#utility.yul\":4470:4476   */\n      dup3\n        /* \"#utility.yul\":4463:4485   */\n      revert\n        /* \"#utility.yul\":4425:4427   */\n    tag_716:\n        /* \"#utility.yul\":4522:4531   */\n      dup3\n        /* \"#utility.yul\":4509:4532   */\n      calldataload\n        /* \"#utility.yul\":4541:4574   */\n      tag_717\n        /* \"#utility.yul\":4568:4573   */\n      dup2\n        /* \"#utility.yul\":4541:4574   */\n      tag_660\n      jump\t// in\n    tag_717:\n        /* \"#utility.yul\":4593:4598   */\n      swap5\n        /* \"#utility.yul\":4645:4647   */\n      0x20\n        /* \"#utility.yul\":4630:4648   */\n      swap4\n      swap1\n      swap4\n      add\n        /* \"#utility.yul\":4617:4649   */\n      calldataload\n      swap4\n      pop\n      pop\n      pop\n        /* \"#utility.yul\":4415:4655   */\n      jump\t// out\n        /* \"#utility.yul\":4660:5055   */\n    tag_57:\n      0x00\n      dup1\n      0x00\n        /* \"#utility.yul\":4806:4808   */\n      0x60\n        /* \"#utility.yul\":4794:4803   */\n      dup5\n        /* \"#utility.yul\":4785:4792   */\n      dup7\n        /* \"#utility.yul\":4781:4804   */\n      sub\n        /* \"#utility.yul\":4777:4809   */\n      slt\n        /* \"#utility.yul\":4774:4776   */\n      iszero\n      tag_719\n      jumpi\n        /* \"#utility.yul\":4827:4833   */\n      dup3\n        /* \"#utility.yul\":4819:4825   */\n      dup4\n        /* \"#utility.yul\":4812:4834   */\n      revert\n        /* \"#utility.yul\":4774:4776   */\n    tag_719:\n        /* \"#utility.yul\":4871:4880   */\n      dup4\n        /* \"#utility.yul\":4858:4881   */\n      calldataload\n        /* \"#utility.yul\":4890:4923   */\n      tag_720\n        /* \"#utility.yul\":4917:4922   */\n      dup2\n        /* \"#utility.yul\":4890:4923   */\n      tag_660\n      jump\t// in\n    tag_720:\n        /* \"#utility.yul\":4942:4947   */\n      swap6\n        /* \"#utility.yul\":4994:4996   */\n      0x20\n        /* \"#utility.yul\":4979:4997   */\n      dup6\n      add\n        /* \"#utility.yul\":4966:4998   */\n      calldataload\n      swap6\n      pop\n        /* \"#utility.yul\":5045:5047   */\n      0x40\n        /* \"#utility.yul\":5030:5048   */\n      swap1\n      swap5\n      add\n        /* \"#utility.yul\":5017:5049   */\n      calldataload\n      swap4\n        /* \"#utility.yul\":4764:5055   */\n      swap3\n      pop\n      pop\n      pop\n      jump\t// out\n        /* \"#utility.yul\":5060:5524   */\n    tag_45:\n      0x00\n      dup1\n      0x00\n      dup1\n        /* \"#utility.yul\":5223:5226   */\n      0x80\n        /* \"#utility.yul\":5211:5220   */\n      dup6\n        /* \"#utility.yul\":5202:5209   */\n      dup8\n        /* \"#utility.yul\":5198:5221   */\n      sub\n        /* \"#utility.yul\":5194:5227   */\n      slt\n        /* \"#utility.yul\":5191:5193   */\n      iszero\n      tag_722\n      jumpi\n        /* \"#utility.yul\":5245:5251   */\n      dup2\n        /* \"#utility.yul\":5237:5243   */\n      dup3\n        /* \"#utility.yul\":5230:5252   */\n      revert\n        /* \"#utility.yul\":5191:5193   */\n    tag_722:\n        /* \"#utility.yul\":5289:5298   */\n      dup5\n        /* \"#utility.yul\":5276:5299   */\n      calldataload\n        /* \"#utility.yul\":5308:5341   */\n      tag_723\n        /* \"#utility.yul\":5335:5340   */\n      dup2\n        /* \"#utility.yul\":5308:5341   */\n      tag_660\n      jump\t// in\n    tag_723:\n        /* \"#utility.yul\":5360:5365   */\n      swap7\n        /* \"#utility.yul\":5412:5414   */\n      0x20\n        /* \"#utility.yul\":5397:5415   */\n      dup7\n      add\n        /* \"#utility.yul\":5384:5416   */\n      calldataload\n      swap7\n      pop\n        /* \"#utility.yul\":5463:5465   */\n      0x40\n        /* \"#utility.yul\":5448:5466   */\n      dup7\n      add\n        /* \"#utility.yul\":5435:5467   */\n      calldataload\n      swap6\n        /* \"#utility.yul\":5514:5516   */\n      0x60\n        /* \"#utility.yul\":5499:5517   */\n      add\n        /* \"#utility.yul\":5486:5518   */\n      calldataload\n      swap5\n      pop\n        /* \"#utility.yul\":5181:5524   */\n      swap3\n      pop\n      pop\n      pop\n      jump\t// out\n        /* \"#utility.yul\":5529:5786   */\n    tag_307:\n      0x00\n        /* \"#utility.yul\":5649:5651   */\n      0x20\n        /* \"#utility.yul\":5637:5646   */\n      dup3\n        /* \"#utility.yul\":5628:5635   */\n      dup5\n        /* \"#utility.yul\":5624:5647   */\n      sub\n        /* \"#utility.yul\":5620:5652   */\n      slt\n        /* \"#utility.yul\":5617:5619   */\n      iszero\n      tag_725\n      jumpi\n        /* \"#utility.yul\":5670:5676   */\n      dup1\n        /* \"#utility.yul\":5662:5668   */\n      dup2\n        /* \"#utility.yul\":5655:5677   */\n      revert\n        /* \"#utility.yul\":5617:5619   */\n    tag_725:\n        /* \"#utility.yul\":5707:5716   */\n      dup2\n        /* \"#utility.yul\":5701:5717   */\n      mload\n        /* \"#utility.yul\":5726:5756   */\n      tag_437\n        /* \"#utility.yul\":5750:5755   */\n      dup2\n        /* \"#utility.yul\":5726:5756   */\n      tag_694\n      jump\t// in\n        /* \"#utility.yul\":5791:7243   */\n    tag_88:\n      0x00\n      dup1\n      0x00\n      dup1\n      0x00\n      dup1\n        /* \"#utility.yul\":6129:6132   */\n      0xc0\n        /* \"#utility.yul\":6117:6126   */\n      dup8\n        /* \"#utility.yul\":6108:6115   */\n      dup10\n        /* \"#utility.yul\":6104:6127   */\n      sub\n        /* \"#utility.yul\":6100:6133   */\n      slt\n        /* \"#utility.yul\":6097:6099   */\n      iszero\n      tag_728\n      jumpi\n        /* \"#utility.yul\":6151:6157   */\n      dup4\n        /* \"#utility.yul\":6143:6149   */\n      dup5\n        /* \"#utility.yul\":6136:6158   */\n      revert\n        /* \"#utility.yul\":6097:6099   */\n    tag_728:\n        /* \"#utility.yul\":6179:6207   */\n      tag_729\n        /* \"#utility.yul\":6197:6206   */\n      dup8\n        /* \"#utility.yul\":6179:6207   */\n      tag_691\n      jump\t// in\n    tag_729:\n        /* \"#utility.yul\":6169:6207   */\n      swap6\n      pop\n        /* \"#utility.yul\":6258:6260   */\n      0x20\n        /* \"#utility.yul\":6247:6256   */\n      dup8\n        /* \"#utility.yul\":6243:6261   */\n      add\n        /* \"#utility.yul\":6230:6262   */\n      calldataload\n        /* \"#utility.yul\":6281:6299   */\n      0xffffffffffffffff\n        /* \"#utility.yul\":6322:6324   */\n      dup1\n        /* \"#utility.yul\":6314:6320   */\n      dup3\n        /* \"#utility.yul\":6311:6325   */\n      gt\n        /* \"#utility.yul\":6308:6310   */\n      iszero\n      tag_730\n      jumpi\n        /* \"#utility.yul\":6343:6349   */\n      dup6\n        /* \"#utility.yul\":6335:6341   */\n      dup7\n        /* \"#utility.yul\":6328:6350   */\n      revert\n        /* \"#utility.yul\":6308:6310   */\n    tag_730:\n        /* \"#utility.yul\":6371:6438   */\n      tag_731\n        /* \"#utility.yul\":6430:6437   */\n      dup11\n        /* \"#utility.yul\":6421:6427   */\n      dup4\n        /* \"#utility.yul\":6410:6419   */\n      dup12\n        /* \"#utility.yul\":6406:6428   */\n      add\n        /* \"#utility.yul\":6371:6438   */\n      tag_682\n      jump\t// in\n    tag_731:\n        /* \"#utility.yul\":6361:6438   */\n      swap7\n      pop\n        /* \"#utility.yul\":6491:6493   */\n      0x40\n        /* \"#utility.yul\":6480:6489   */\n      dup10\n        /* \"#utility.yul\":6476:6494   */\n      add\n        /* \"#utility.yul\":6463:6495   */\n      calldataload\n        /* \"#utility.yul\":6447:6495   */\n      swap2\n      pop\n        /* \"#utility.yul\":6520:6522   */\n      dup1\n        /* \"#utility.yul\":6510:6518   */\n      dup3\n        /* \"#utility.yul\":6507:6523   */\n      gt\n        /* \"#utility.yul\":6504:6506   */\n      iszero\n      tag_732\n      jumpi\n        /* \"#utility.yul\":6541:6547   */\n      dup6\n        /* \"#utility.yul\":6533:6539   */\n      dup7\n        /* \"#utility.yul\":6526:6548   */\n      revert\n        /* \"#utility.yul\":6504:6506   */\n    tag_732:\n        /* \"#utility.yul\":6569:6638   */\n      tag_733\n        /* \"#utility.yul\":6630:6637   */\n      dup11\n        /* \"#utility.yul\":6619:6627   */\n      dup4\n        /* \"#utility.yul\":6608:6617   */\n      dup12\n        /* \"#utility.yul\":6604:6628   */\n      add\n        /* \"#utility.yul\":6569:6638   */\n      tag_682\n      jump\t// in\n    tag_733:\n        /* \"#utility.yul\":6559:6638   */\n      swap6\n      pop\n        /* \"#utility.yul\":6691:6693   */\n      0x60\n        /* \"#utility.yul\":6680:6689   */\n      dup10\n        /* \"#utility.yul\":6676:6694   */\n      add\n        /* \"#utility.yul\":6663:6695   */\n      calldataload\n        /* \"#utility.yul\":6647:6695   */\n      swap2\n      pop\n        /* \"#utility.yul\":6720:6722   */\n      dup1\n        /* \"#utility.yul\":6710:6718   */\n      dup3\n        /* \"#utility.yul\":6707:6723   */\n      gt\n        /* \"#utility.yul\":6704:6706   */\n      iszero\n      tag_734\n      jumpi\n        /* \"#utility.yul\":6741:6747   */\n      dup4\n        /* \"#utility.yul\":6733:6739   */\n      dup5\n        /* \"#utility.yul\":6726:6748   */\n      revert\n        /* \"#utility.yul\":6704:6706   */\n    tag_734:\n        /* \"#utility.yul\":6769:6837   */\n      tag_735\n        /* \"#utility.yul\":6829:6836   */\n      dup11\n        /* \"#utility.yul\":6818:6826   */\n      dup4\n        /* \"#utility.yul\":6807:6816   */\n      dup12\n        /* \"#utility.yul\":6803:6827   */\n      add\n        /* \"#utility.yul\":6769:6837   */\n      tag_673\n      jump\t// in\n    tag_735:\n        /* \"#utility.yul\":6759:6837   */\n      swap5\n      pop\n        /* \"#utility.yul\":6890:6893   */\n      0x80\n        /* \"#utility.yul\":6879:6888   */\n      dup10\n        /* \"#utility.yul\":6875:6894   */\n      add\n        /* \"#utility.yul\":6862:6895   */\n      calldataload\n        /* \"#utility.yul\":6846:6895   */\n      swap2\n      pop\n        /* \"#utility.yul\":6920:6922   */\n      dup1\n        /* \"#utility.yul\":6910:6918   */\n      dup3\n        /* \"#utility.yul\":6907:6923   */\n      gt\n        /* \"#utility.yul\":6904:6906   */\n      iszero\n      tag_736\n      jumpi\n        /* \"#utility.yul\":6941:6947   */\n      dup4\n        /* \"#utility.yul\":6933:6939   */\n      dup5\n        /* \"#utility.yul\":6926:6948   */\n      revert\n        /* \"#utility.yul\":6904:6906   */\n    tag_736:\n        /* \"#utility.yul\":6969:7038   */\n      tag_737\n        /* \"#utility.yul\":7030:7037   */\n      dup11\n        /* \"#utility.yul\":7019:7027   */\n      dup4\n        /* \"#utility.yul\":7008:7017   */\n      dup12\n        /* \"#utility.yul\":7004:7028   */\n      add\n        /* \"#utility.yul\":6969:7038   */\n      tag_682\n      jump\t// in\n    tag_737:\n        /* \"#utility.yul\":6959:7038   */\n      swap4\n      pop\n        /* \"#utility.yul\":7091:7094   */\n      0xa0\n        /* \"#utility.yul\":7080:7089   */\n      dup10\n        /* \"#utility.yul\":7076:7095   */\n      add\n        /* \"#utility.yul\":7063:7096   */\n      calldataload\n        /* \"#utility.yul\":7047:7096   */\n      swap2\n      pop\n        /* \"#utility.yul\":7121:7123   */\n      dup1\n        /* \"#utility.yul\":7111:7119   */\n      dup3\n        /* \"#utility.yul\":7108:7124   */\n      gt\n        /* \"#utility.yul\":7105:7107   */\n      iszero\n      tag_738\n      jumpi\n        /* \"#utility.yul\":7142:7148   */\n      dup3\n        /* \"#utility.yul\":7134:7140   */\n      dup4\n        /* \"#utility.yul\":7127:7149   */\n      revert\n        /* \"#utility.yul\":7105:7107   */\n    tag_738:\n      pop\n        /* \"#utility.yul\":7170:7237   */\n      tag_739\n        /* \"#utility.yul\":7229:7236   */\n      dup10\n        /* \"#utility.yul\":7218:7226   */\n      dup3\n        /* \"#utility.yul\":7207:7216   */\n      dup11\n        /* \"#utility.yul\":7203:7227   */\n      add\n        /* \"#utility.yul\":7170:7237   */\n      tag_661\n      jump\t// in\n    tag_739:\n        /* \"#utility.yul\":7160:7237   */\n      swap2\n      pop\n      pop\n        /* \"#utility.yul\":6087:7243   */\n      swap3\n      swap6\n      pop\n      swap3\n      swap6\n      pop\n      swap3\n      swap6\n      jump\t// out\n        /* \"#utility.yul\":7248:8160   */\n    tag_102:\n      0x00\n      dup1\n      0x00\n      dup1\n      0x00\n      dup1\n        /* \"#utility.yul\":7461:7464   */\n      0xc0\n        /* \"#utility.yul\":7449:7458   */\n      dup8\n        /* \"#utility.yul\":7440:7447   */\n      dup10\n        /* \"#utility.yul\":7436:7459   */\n      sub\n        /* \"#utility.yul\":7432:7465   */\n      slt\n        /* \"#utility.yul\":7429:7431   */\n      iszero\n      tag_741\n      jumpi\n        /* \"#utility.yul\":7483:7489   */\n      dup4\n        /* \"#utility.yul\":7475:7481   */\n      dup5\n        /* \"#utility.yul\":7468:7490   */\n      revert\n        /* \"#utility.yul\":7429:7431   */\n    tag_741:\n        /* \"#utility.yul\":7527:7536   */\n      dup7\n        /* \"#utility.yul\":7514:7537   */\n      calldataload\n        /* \"#utility.yul\":7546:7576   */\n      tag_742\n        /* \"#utility.yul\":7570:7575   */\n      dup2\n        /* \"#utility.yul\":7546:7576   */\n      tag_694\n      jump\t// in\n    tag_742:\n        /* \"#utility.yul\":7595:7600   */\n      swap6\n      pop\n        /* \"#utility.yul\":7647:7649   */\n      0x20\n        /* \"#utility.yul\":7632:7650   */\n      dup8\n      add\n        /* \"#utility.yul\":7619:7651   */\n      calldataload\n      swap5\n      pop\n        /* \"#utility.yul\":7698:7700   */\n      0x40\n        /* \"#utility.yul\":7683:7701   */\n      dup8\n      add\n        /* \"#utility.yul\":7670:7702   */\n      calldataload\n      swap4\n      pop\n        /* \"#utility.yul\":7753:7755   */\n      0x60\n        /* \"#utility.yul\":7738:7756   */\n      dup8\n      add\n        /* \"#utility.yul\":7725:7757   */\n      calldataload\n        /* \"#utility.yul\":7776:7794   */\n      0xffffffffffffffff\n        /* \"#utility.yul\":7806:7820   */\n      dup1\n      dup3\n      gt\n        /* \"#utility.yul\":7803:7805   */\n      iszero\n      tag_743\n      jumpi\n        /* \"#utility.yul\":7838:7844   */\n      dup4\n        /* \"#utility.yul\":7830:7836   */\n      dup5\n        /* \"#utility.yul\":7823:7845   */\n      revert\n        /* \"#utility.yul\":7803:7805   */\n    tag_743:\n        /* \"#utility.yul\":7866:7917   */\n      tag_744\n        /* \"#utility.yul\":7909:7916   */\n      dup11\n        /* \"#utility.yul\":7900:7906   */\n      dup4\n        /* \"#utility.yul\":7889:7898   */\n      dup12\n        /* \"#utility.yul\":7885:7907   */\n      add\n        /* \"#utility.yul\":7866:7917   */\n      tag_672\n      jump\t// in\n    tag_744:\n        /* \"#utility.yul\":7856:7917   */\n      swap5\n      pop\n        /* \"#utility.yul\":7964:7967   */\n      0x80\n        /* \"#utility.yul\":7953:7962   */\n      dup10\n        /* \"#utility.yul\":7949:7968   */\n      add\n        /* \"#utility.yul\":7936:7969   */\n      calldataload\n        /* \"#utility.yul\":7926:7969   */\n      swap4\n      pop\n        /* \"#utility.yul\":8022:8025   */\n      0xa0\n        /* \"#utility.yul\":8011:8020   */\n      dup10\n        /* \"#utility.yul\":8007:8026   */\n      add\n        /* \"#utility.yul\":7994:8027   */\n      calldataload\n        /* \"#utility.yul\":7978:8027   */\n      swap2\n      pop\n        /* \"#utility.yul\":8052:8054   */\n      dup1\n        /* \"#utility.yul\":8042:8050   */\n      dup3\n        /* \"#utility.yul\":8039:8055   */\n      gt\n        /* \"#utility.yul\":8036:8038   */\n      iszero\n      tag_745\n      jumpi\n        /* \"#utility.yul\":8073:8079   */\n      dup3\n        /* \"#utility.yul\":8065:8071   */\n      dup4\n        /* \"#utility.yul\":8058:8080   */\n      revert\n        /* \"#utility.yul\":8036:8038   */\n    tag_745:\n      pop\n        /* \"#utility.yul\":8101:8154   */\n      tag_739\n        /* \"#utility.yul\":8146:8153   */\n      dup10\n        /* \"#utility.yul\":8135:8143   */\n      dup3\n        /* \"#utility.yul\":8124:8133   */\n      dup11\n        /* \"#utility.yul\":8120:8144   */\n      add\n        /* \"#utility.yul\":8101:8154   */\n      tag_672\n      jump\t// in\n        /* \"#utility.yul\":8165:9146   */\n    tag_132:\n      0x00\n      dup1\n      0x00\n      dup1\n      0x00\n      dup1\n      0x00\n        /* \"#utility.yul\":8395:8398   */\n      0xe0\n        /* \"#utility.yul\":8383:8392   */\n      dup9\n        /* \"#utility.yul\":8374:8381   */\n      dup11\n        /* \"#utility.yul\":8370:8393   */\n      sub\n        /* \"#utility.yul\":8366:8399   */\n      slt\n        /* \"#utility.yul\":8363:8365   */\n      iszero\n      tag_748\n      jumpi\n        /* \"#utility.yul\":8417:8423   */\n      dup5\n        /* \"#utility.yul\":8409:8415   */\n      dup6\n        /* \"#utility.yul\":8402:8424   */\n      revert\n        /* \"#utility.yul\":8363:8365   */\n    tag_748:\n        /* \"#utility.yul\":8461:8470   */\n      dup8\n        /* \"#utility.yul\":8448:8471   */\n      calldataload\n        /* \"#utility.yul\":8480:8510   */\n      tag_749\n        /* \"#utility.yul\":8504:8509   */\n      dup2\n        /* \"#utility.yul\":8480:8510   */\n      tag_694\n      jump\t// in\n    tag_749:\n        /* \"#utility.yul\":8529:8534   */\n      swap7\n      pop\n        /* \"#utility.yul\":8581:8583   */\n      0x20\n        /* \"#utility.yul\":8566:8584   */\n      dup9\n      add\n        /* \"#utility.yul\":8553:8585   */\n      calldataload\n      swap6\n      pop\n        /* \"#utility.yul\":8632:8634   */\n      0x40\n        /* \"#utility.yul\":8617:8635   */\n      dup9\n      add\n        /* \"#utility.yul\":8604:8636   */\n      calldataload\n      swap5\n      pop\n        /* \"#utility.yul\":8687:8689   */\n      0x60\n        /* \"#utility.yul\":8672:8690   */\n      dup9\n      add\n        /* \"#utility.yul\":8659:8691   */\n      calldataload\n        /* \"#utility.yul\":8710:8728   */\n      0xffffffffffffffff\n        /* \"#utility.yul\":8740:8754   */\n      dup1\n      dup3\n      gt\n        /* \"#utility.yul\":8737:8739   */\n      iszero\n      tag_750\n      jumpi\n        /* \"#utility.yul\":8772:8778   */\n      dup3\n        /* \"#utility.yul\":8764:8770   */\n      dup4\n        /* \"#utility.yul\":8757:8779   */\n      revert\n        /* \"#utility.yul\":8737:8739   */\n    tag_750:\n        /* \"#utility.yul\":8800:8851   */\n      tag_751\n        /* \"#utility.yul\":8843:8850   */\n      dup12\n        /* \"#utility.yul\":8834:8840   */\n      dup4\n        /* \"#utility.yul\":8823:8832   */\n      dup13\n        /* \"#utility.yul\":8819:8841   */\n      add\n        /* \"#utility.yul\":8800:8851   */\n      tag_672\n      jump\t// in\n    tag_751:\n        /* \"#utility.yul\":8790:8851   */\n      swap6\n      pop\n        /* \"#utility.yul\":8898:8901   */\n      0x80\n        /* \"#utility.yul\":8887:8896   */\n      dup11\n        /* \"#utility.yul\":8883:8902   */\n      add\n        /* \"#utility.yul\":8870:8903   */\n      calldataload\n        /* \"#utility.yul\":8860:8903   */\n      swap5\n      pop\n        /* \"#utility.yul\":8956:8959   */\n      0xa0\n        /* \"#utility.yul\":8945:8954   */\n      dup11\n        /* \"#utility.yul\":8941:8960   */\n      add\n        /* \"#utility.yul\":8928:8961   */\n      calldataload\n        /* \"#utility.yul\":8912:8961   */\n      swap2\n      pop\n        /* \"#utility.yul\":8986:8988   */\n      dup1\n        /* \"#utility.yul\":8976:8984   */\n      dup3\n        /* \"#utility.yul\":8973:8989   */\n      gt\n        /* \"#utility.yul\":8970:8972   */\n      iszero\n      tag_752\n      jumpi\n        /* \"#utility.yul\":9007:9013   */\n      dup3\n        /* \"#utility.yul\":8999:9005   */\n      dup4\n        /* \"#utility.yul\":8992:9014   */\n      revert\n        /* \"#utility.yul\":8970:8972   */\n    tag_752:\n      pop\n        /* \"#utility.yul\":9035:9088   */\n      tag_753\n        /* \"#utility.yul\":9080:9087   */\n      dup11\n        /* \"#utility.yul\":9069:9077   */\n      dup3\n        /* \"#utility.yul\":9058:9067   */\n      dup12\n        /* \"#utility.yul\":9054:9078   */\n      add\n        /* \"#utility.yul\":9035:9088   */\n      tag_672\n      jump\t// in\n    tag_753:\n        /* \"#utility.yul\":9025:9088   */\n      swap3\n      pop\n      pop\n        /* \"#utility.yul\":9135:9138   */\n      0xc0\n        /* \"#utility.yul\":9124:9133   */\n      dup9\n        /* \"#utility.yul\":9120:9139   */\n      add\n        /* \"#utility.yul\":9107:9140   */\n      calldataload\n        /* \"#utility.yul\":9097:9140   */\n      swap1\n      pop\n        /* \"#utility.yul\":8353:9146   */\n      swap3\n      swap6\n      swap9\n      swap2\n      swap5\n      swap8\n      pop\n      swap3\n      swap6\n      pop\n      jump\t// out\n        /* \"#utility.yul\":9151:10270   */\n    tag_148:\n      0x00\n      dup1\n      0x00\n      dup1\n      0x00\n      dup1\n      0x00\n      dup1\n      0x00\n        /* \"#utility.yul\":9415:9418   */\n      0x0120\n        /* \"#utility.yul\":9403:9412   */\n      dup11\n        /* \"#utility.yul\":9394:9401   */\n      dup13\n        /* \"#utility.yul\":9390:9413   */\n      sub\n        /* \"#utility.yul\":9386:9419   */\n      slt\n        /* \"#utility.yul\":9383:9385   */\n      iszero\n      tag_755\n      jumpi\n        /* \"#utility.yul\":9437:9443   */\n      dup3\n        /* \"#utility.yul\":9429:9435   */\n      dup4\n        /* \"#utility.yul\":9422:9444   */\n      revert\n        /* \"#utility.yul\":9383:9385   */\n    tag_755:\n        /* \"#utility.yul\":9481:9490   */\n      dup10\n        /* \"#utility.yul\":9468:9491   */\n      calldataload\n        /* \"#utility.yul\":9500:9530   */\n      tag_756\n        /* \"#utility.yul\":9524:9529   */\n      dup2\n        /* \"#utility.yul\":9500:9530   */\n      tag_694\n      jump\t// in\n    tag_756:\n        /* \"#utility.yul\":9549:9554   */\n      swap9\n      pop\n        /* \"#utility.yul\":9601:9603   */\n      0x20\n        /* \"#utility.yul\":9586:9604   */\n      dup11\n      add\n        /* \"#utility.yul\":9573:9605   */\n      calldataload\n      swap8\n      pop\n        /* \"#utility.yul\":9652:9654   */\n      0x40\n        /* \"#utility.yul\":9637:9655   */\n      dup11\n      add\n        /* \"#utility.yul\":9624:9656   */\n      calldataload\n      swap7\n      pop\n        /* \"#utility.yul\":9703:9705   */\n      0x60\n        /* \"#utility.yul\":9688:9706   */\n      dup11\n      add\n        /* \"#utility.yul\":9675:9707   */\n      calldataload\n      swap6\n      pop\n        /* \"#utility.yul\":9754:9757   */\n      0x80\n        /* \"#utility.yul\":9739:9758   */\n      dup11\n      add\n        /* \"#utility.yul\":9726:9759   */\n      calldataload\n      swap5\n      pop\n        /* \"#utility.yul\":9810:9813   */\n      0xa0\n        /* \"#utility.yul\":9795:9814   */\n      dup11\n      add\n        /* \"#utility.yul\":9782:9815   */\n      calldataload\n        /* \"#utility.yul\":9834:9852   */\n      0xffffffffffffffff\n        /* \"#utility.yul\":9864:9878   */\n      dup1\n      dup3\n      gt\n        /* \"#utility.yul\":9861:9863   */\n      iszero\n      tag_757\n      jumpi\n        /* \"#utility.yul\":9896:9902   */\n      dup5\n        /* \"#utility.yul\":9888:9894   */\n      dup6\n        /* \"#utility.yul\":9881:9903   */\n      revert\n        /* \"#utility.yul\":9861:9863   */\n    tag_757:\n        /* \"#utility.yul\":9924:9975   */\n      tag_758\n        /* \"#utility.yul\":9967:9974   */\n      dup14\n        /* \"#utility.yul\":9958:9964   */\n      dup4\n        /* \"#utility.yul\":9947:9956   */\n      dup15\n        /* \"#utility.yul\":9943:9965   */\n      add\n        /* \"#utility.yul\":9924:9975   */\n      tag_672\n      jump\t// in\n    tag_758:\n        /* \"#utility.yul\":9914:9975   */\n      swap6\n      pop\n        /* \"#utility.yul\":10022:10025   */\n      0xc0\n        /* \"#utility.yul\":10011:10020   */\n      dup13\n        /* \"#utility.yul\":10007:10026   */\n      add\n        /* \"#utility.yul\":9994:10027   */\n      calldataload\n        /* \"#utility.yul\":9984:10027   */\n      swap5\n      pop\n        /* \"#utility.yul\":10074:10077   */\n      0xe0\n        /* \"#utility.yul\":10063:10072   */\n      dup13\n        /* \"#utility.yul\":10059:10078   */\n      add\n        /* \"#utility.yul\":10046:10079   */\n      calldataload\n        /* \"#utility.yul\":10036:10079   */\n      swap4\n      pop\n        /* \"#utility.yul\":10132:10135   */\n      0x0100\n        /* \"#utility.yul\":10121:10130   */\n      dup13\n        /* \"#utility.yul\":10117:10136   */\n      add\n        /* \"#utility.yul\":10104:10137   */\n      calldataload\n        /* \"#utility.yul\":10088:10137   */\n      swap2\n      pop\n        /* \"#utility.yul\":10162:10164   */\n      dup1\n        /* \"#utility.yul\":10152:10160   */\n      dup3\n        /* \"#utility.yul\":10149:10165   */\n      gt\n        /* \"#utility.yul\":10146:10148   */\n      iszero\n      tag_759\n      jumpi\n        /* \"#utility.yul\":10183:10189   */\n      dup3\n        /* \"#utility.yul\":10175:10181   */\n      dup4\n        /* \"#utility.yul\":10168:10190   */\n      revert\n        /* \"#utility.yul\":10146:10148   */\n    tag_759:\n      pop\n        /* \"#utility.yul\":10211:10264   */\n      tag_760\n        /* \"#utility.yul\":10256:10263   */\n      dup13\n        /* \"#utility.yul\":10245:10253   */\n      dup3\n        /* \"#utility.yul\":10234:10243   */\n      dup14\n        /* \"#utility.yul\":10230:10254   */\n      add\n        /* \"#utility.yul\":10211:10264   */\n      tag_672\n      jump\t// in\n    tag_760:\n        /* \"#utility.yul\":10201:10264   */\n      swap2\n      pop\n      pop\n        /* \"#utility.yul\":9373:10270   */\n      swap3\n      swap6\n      swap9\n      pop\n      swap3\n      swap6\n      swap9\n      pop\n      swap3\n      swap6\n      swap9\n      jump\t// out\n        /* \"#utility.yul\":10275:10465   */\n    tag_51:\n      0x00\n        /* \"#utility.yul\":10387:10389   */\n      0x20\n        /* \"#utility.yul\":10375:10384   */\n      dup3\n        /* \"#utility.yul\":10366:10373   */\n      dup5\n        /* \"#utility.yul\":10362:10385   */\n      sub\n        /* \"#utility.yul\":10358:10390   */\n      slt\n        /* \"#utility.yul\":10355:10357   */\n      iszero\n      tag_762\n      jumpi\n        /* \"#utility.yul\":10408:10414   */\n      dup1\n        /* \"#utility.yul\":10400:10406   */\n      dup2\n        /* \"#utility.yul\":10393:10415   */\n      revert\n        /* \"#utility.yul\":10355:10357   */\n    tag_762:\n      pop\n        /* \"#utility.yul\":10436:10459   */\n      calldataload\n      swap2\n        /* \"#utility.yul\":10345:10465   */\n      swap1\n      pop\n      jump\t// out\n        /* \"#utility.yul\":10470:10664   */\n    tag_383:\n      0x00\n        /* \"#utility.yul\":10593:10595   */\n      0x20\n        /* \"#utility.yul\":10581:10590   */\n      dup3\n        /* \"#utility.yul\":10572:10579   */\n      dup5\n        /* \"#utility.yul\":10568:10591   */\n      sub\n        /* \"#utility.yul\":10564:10596   */\n      slt\n        /* \"#utility.yul\":10561:10563   */\n      iszero\n      tag_764\n      jumpi\n        /* \"#utility.yul\":10614:10620   */\n      dup1\n        /* \"#utility.yul\":10606:10612   */\n      dup2\n        /* \"#utility.yul\":10599:10621   */\n      revert\n        /* \"#utility.yul\":10561:10563   */\n    tag_764:\n      pop\n        /* \"#utility.yul\":10642:10658   */\n      mload\n      swap2\n        /* \"#utility.yul\":10551:10664   */\n      swap1\n      pop\n      jump\t// out\n        /* \"#utility.yul\":10669:11778   */\n    tag_178:\n      0x00\n      dup1\n      0x00\n      dup1\n      0x00\n      dup1\n      0x00\n      dup1\n      0x00\n      dup1\n      0x00\n      dup1\n        /* \"#utility.yul\":10980:10983   */\n      0x0180\n        /* \"#utility.yul\":10968:10977   */\n      dup14\n        /* \"#utility.yul\":10959:10966   */\n      dup16\n        /* \"#utility.yul\":10955:10978   */\n      sub\n        /* \"#utility.yul\":10951:10984   */\n      slt\n        /* \"#utility.yul\":10948:10950   */\n      iszero\n      tag_766\n      jumpi\n        /* \"#utility.yul\":11002:11008   */\n      dup6\n        /* \"#utility.yul\":10994:11000   */\n      dup7\n        /* \"#utility.yul\":10987:11009   */\n      revert\n        /* \"#utility.yul\":10948:10950   */\n    tag_766:\n        /* \"#utility.yul\":11043:11052   */\n      dup13\n        /* \"#utility.yul\":11030:11053   */\n      calldataload\n        /* \"#utility.yul\":11020:11053   */\n      swap12\n      pop\n        /* \"#utility.yul\":11072:11112   */\n      tag_767\n        /* \"#utility.yul\":11108:11110   */\n      0x20\n        /* \"#utility.yul\":11097:11106   */\n      dup15\n        /* \"#utility.yul\":11093:11111   */\n      add\n        /* \"#utility.yul\":11072:11112   */\n      tag_657\n      jump\t// in\n    tag_767:\n        /* \"#utility.yul\":11062:11112   */\n      swap11\n      pop\n        /* \"#utility.yul\":11159:11161   */\n      0x40\n        /* \"#utility.yul\":11148:11157   */\n      dup14\n        /* \"#utility.yul\":11144:11162   */\n      add\n        /* \"#utility.yul\":11131:11163   */\n      calldataload\n        /* \"#utility.yul\":11121:11163   */\n      swap10\n      pop\n        /* \"#utility.yul\":11212:11230   */\n      0xffffffffffffffff\n        /* \"#utility.yul\":11206:11208   */\n      0x60\n        /* \"#utility.yul\":11195:11204   */\n      dup15\n        /* \"#utility.yul\":11191:11209   */\n      add\n        /* \"#utility.yul\":11178:11210   */\n      calldataload\n        /* \"#utility.yul\":11175:11231   */\n      gt\n        /* \"#utility.yul\":11172:11174   */\n      iszero\n      tag_768\n      jumpi\n        /* \"#utility.yul\":11249:11255   */\n      dup6\n        /* \"#utility.yul\":11241:11247   */\n      dup7\n        /* \"#utility.yul\":11234:11256   */\n      revert\n        /* \"#utility.yul\":11172:11174   */\n    tag_768:\n        /* \"#utility.yul\":11277:11354   */\n      tag_769\n        /* \"#utility.yul\":11346:11353   */\n      dup15\n        /* \"#utility.yul\":11339:11341   */\n      0x60\n        /* \"#utility.yul\":11328:11337   */\n      dup16\n        /* \"#utility.yul\":11324:11342   */\n      add\n        /* \"#utility.yul\":11311:11343   */\n      calldataload\n        /* \"#utility.yul\":11300:11309   */\n      dup16\n        /* \"#utility.yul\":11296:11344   */\n      add\n        /* \"#utility.yul\":11277:11354   */\n      tag_672\n      jump\t// in\n    tag_769:\n        /* \"#utility.yul\":10938:11778   */\n      swap12\n      swap15\n      swap11\n      swap14\n      pop\n      swap9\n      swap12\n        /* \"#utility.yul\":11401:11404   */\n      0x80\n        /* \"#utility.yul\":11386:11405   */\n      dup2\n      add\n        /* \"#utility.yul\":11373:11406   */\n      calldataload\n      swap11\n        /* \"#utility.yul\":11453:11456   */\n      0xa0\n        /* \"#utility.yul\":11438:11457   */\n      dup3\n      add\n        /* \"#utility.yul\":11425:11458   */\n      calldataload\n      swap11\n      pop\n        /* \"#utility.yul\":11505:11508   */\n      0xc0\n        /* \"#utility.yul\":11490:11509   */\n      dup3\n      add\n        /* \"#utility.yul\":11477:11510   */\n      calldataload\n      swap10\n      pop\n        /* \"#utility.yul\":11557:11560   */\n      0xe0\n        /* \"#utility.yul\":11542:11561   */\n      dup3\n      add\n        /* \"#utility.yul\":11529:11562   */\n      calldataload\n      swap9\n      pop\n        /* \"#utility.yul\":11609:11612   */\n      0x0100\n        /* \"#utility.yul\":11594:11613   */\n      dup3\n      add\n        /* \"#utility.yul\":11581:11614   */\n      calldataload\n      swap8\n      pop\n        /* \"#utility.yul\":11661:11664   */\n      0x0120\n        /* \"#utility.yul\":11646:11665   */\n      dup3\n      add\n        /* \"#utility.yul\":11633:11666   */\n      calldataload\n      swap7\n      pop\n        /* \"#utility.yul\":11714:11717   */\n      0x0140\n        /* \"#utility.yul\":11699:11718   */\n      dup3\n      add\n        /* \"#utility.yul\":11686:11719   */\n      calldataload\n      swap6\n      pop\n        /* \"#utility.yul\":11767:11770   */\n      0x0160\n        /* \"#utility.yul\":11752:11771   */\n      swap1\n      swap2\n      add\n        /* \"#utility.yul\":11739:11772   */\n      calldataload\n      swap4\n      pop\n        /* \"#utility.yul\":10938:11778   */\n      swap2\n      pop\n      pop\n      jump\t// out\n        /* \"#utility.yul\":11783:11889   */\n    tag_770:\n      sub(shl(0xa0, 0x01), 0x01)\n        /* \"#utility.yul\":11851:11882   */\n      and\n        /* \"#utility.yul\":11839:11883   */\n      swap1\n      mstore\n        /* \"#utility.yul\":11829:11889   */\n      jump\t// out\n        /* \"#utility.yul\":11894:12153   */\n    tag_772:\n      0x00\n        /* \"#utility.yul\":11975:11980   */\n      dup2\n        /* \"#utility.yul\":11969:11981   */\n      mload\n        /* \"#utility.yul\":12002:12008   */\n      dup1\n        /* \"#utility.yul\":11997:12000   */\n      dup5\n        /* \"#utility.yul\":11990:12009   */\n      mstore\n        /* \"#utility.yul\":12018:12081   */\n      tag_774\n        /* \"#utility.yul\":12074:12080   */\n      dup2\n        /* \"#utility.yul\":12067:12071   */\n      0x20\n        /* \"#utility.yul\":12062:12065   */\n      dup7\n        /* \"#utility.yul\":12058:12072   */\n      add\n        /* \"#utility.yul\":12051:12055   */\n      0x20\n        /* \"#utility.yul\":12044:12049   */\n      dup7\n        /* \"#utility.yul\":12040:12056   */\n      add\n        /* \"#utility.yul\":12018:12081   */\n      tag_775\n      jump\t// in\n    tag_774:\n        /* \"#utility.yul\":12135:12137   */\n      0x1f\n        /* \"#utility.yul\":12114:12129   */\n      add\n      not(0x1f)\n        /* \"#utility.yul\":12110:12139   */\n      and\n        /* \"#utility.yul\":12101:12140   */\n      swap3\n      swap1\n      swap3\n      add\n        /* \"#utility.yul\":12142:12146   */\n      0x20\n        /* \"#utility.yul\":12097:12147   */\n      add\n      swap3\n        /* \"#utility.yul\":11945:12153   */\n      swap2\n      pop\n      pop\n      jump\t// out\n        /* \"#utility.yul\":12158:12432   */\n    tag_632:\n      0x00\n        /* \"#utility.yul\":12325:12331   */\n      dup3\n        /* \"#utility.yul\":12319:12332   */\n      mload\n        /* \"#utility.yul\":12341:12394   */\n      tag_777\n        /* \"#utility.yul\":12387:12393   */\n      dup2\n        /* \"#utility.yul\":12382:12385   */\n      dup5\n        /* \"#utility.yul\":12375:12379   */\n      0x20\n        /* \"#utility.yul\":12367:12373   */\n      dup8\n        /* \"#utility.yul\":12363:12380   */\n      add\n        /* \"#utility.yul\":12341:12394   */\n      tag_775\n      jump\t// in\n    tag_777:\n        /* \"#utility.yul\":12410:12426   */\n      swap2\n      swap1\n      swap2\n      add\n      swap3\n        /* \"#utility.yul\":12295:12432   */\n      swap2\n      pop\n      pop\n      jump\t// out\n        /* \"#utility.yul\":12437:12640   */\n    tag_72:\n      sub(shl(0xa0, 0x01), 0x01)\n        /* \"#utility.yul\":12601:12633   */\n      swap2\n      swap1\n      swap2\n      and\n        /* \"#utility.yul\":12583:12634   */\n      dup2\n      mstore\n        /* \"#utility.yul\":12571:12573   */\n      0x20\n        /* \"#utility.yul\":12556:12574   */\n      add\n      swap1\n        /* \"#utility.yul\":12538:12640   */\n      jump\t// out\n        /* \"#utility.yul\":12645:13020   */\n    tag_571:\n      sub(shl(0xa0, 0x01), 0x01)\n        /* \"#utility.yul\":12903:12918   */\n      swap4\n      dup5\n      and\n        /* \"#utility.yul\":12885:12919   */\n      dup2\n      mstore\n        /* \"#utility.yul\":12955:12970   */\n      swap2\n      swap1\n      swap3\n      and\n        /* \"#utility.yul\":12950:12952   */\n      0x20\n        /* \"#utility.yul\":12935:12953   */\n      dup3\n      add\n        /* \"#utility.yul\":12928:12971   */\n      mstore\n        /* \"#utility.yul\":13002:13004   */\n      0x40\n        /* \"#utility.yul\":12987:13005   */\n      dup2\n      add\n        /* \"#utility.yul\":12980:13014   */\n      swap2\n      swap1\n      swap2\n      mstore\n        /* \"#utility.yul\":12835:12837   */\n      0x60\n        /* \"#utility.yul\":12820:12838   */\n      add\n      swap1\n        /* \"#utility.yul\":12802:13020   */\n      jump\t// out\n        /* \"#utility.yul\":13025:13299   */\n    tag_341:\n      sub(shl(0xa0, 0x01), 0x01)\n        /* \"#utility.yul\":13217:13249   */\n      swap3\n      swap1\n      swap3\n      and\n        /* \"#utility.yul\":13199:13250   */\n      dup3\n      mstore\n        /* \"#utility.yul\":13281:13283   */\n      0x20\n        /* \"#utility.yul\":13266:13284   */\n      dup3\n      add\n        /* \"#utility.yul\":13259:13293   */\n      mstore\n        /* \"#utility.yul\":13187:13189   */\n      0x40\n        /* \"#utility.yul\":13172:13190   */\n      add\n      swap1\n        /* \"#utility.yul\":13154:13299   */\n      jump\t// out\n        /* \"#utility.yul\":13304:13939   */\n    tag_48:\n        /* \"#utility.yul\":13475:13477   */\n      0x20\n        /* \"#utility.yul\":13527:13548   */\n      dup1\n      dup3\n      mstore\n        /* \"#utility.yul\":13597:13610   */\n      dup3\n      mload\n        /* \"#utility.yul\":13500:13518   */\n      dup3\n      dup3\n      add\n        /* \"#utility.yul\":13619:13641   */\n      dup2\n      swap1\n      mstore\n        /* \"#utility.yul\":13304:13939   */\n      0x00\n      swap2\n        /* \"#utility.yul\":13475:13477   */\n      swap1\n        /* \"#utility.yul\":13698:13713   */\n      dup5\n      dup3\n      add\n      swap1\n        /* \"#utility.yul\":13672:13674   */\n      0x40\n        /* \"#utility.yul\":13657:13675   */\n      dup6\n      add\n      swap1\n        /* \"#utility.yul\":13304:13939   */\n      dup5\n        /* \"#utility.yul\":13744:13913   */\n    tag_782:\n        /* \"#utility.yul\":13758:13764   */\n      dup2\n        /* \"#utility.yul\":13755:13756   */\n      dup2\n        /* \"#utility.yul\":13752:13765   */\n      lt\n        /* \"#utility.yul\":13744:13913   */\n      iszero\n      tag_784\n      jumpi\n        /* \"#utility.yul\":13819:13832   */\n      dup4\n      mload\n        /* \"#utility.yul\":13807:13833   */\n      dup4\n      mstore\n        /* \"#utility.yul\":13888:13903   */\n      swap3\n      dup5\n      add\n      swap3\n        /* \"#utility.yul\":13853:13865   */\n      swap2\n      dup5\n      add\n      swap2\n        /* \"#utility.yul\":13780:13781   */\n      0x01\n        /* \"#utility.yul\":13773:13782   */\n      add\n        /* \"#utility.yul\":13744:13913   */\n      jump(tag_782)\n    tag_784:\n      pop\n        /* \"#utility.yul\":13930:13933   */\n      swap1\n      swap7\n        /* \"#utility.yul\":13455:13939   */\n      swap6\n      pop\n      pop\n      pop\n      pop\n      pop\n      pop\n      jump\t// out\n        /* \"#utility.yul\":13944:14131   */\n    tag_64:\n        /* \"#utility.yul\":14109:14123   */\n      swap1\n      iszero\n        /* \"#utility.yul\":14102:14124   */\n      iszero\n        /* \"#utility.yul\":14084:14125   */\n      dup2\n      mstore\n        /* \"#utility.yul\":14072:14074   */\n      0x20\n        /* \"#utility.yul\":14057:14075   */\n      add\n      swap1\n        /* \"#utility.yul\":14039:14131   */\n      jump\t// out\n        /* \"#utility.yul\":14136:14745   */\n    tag_302:\n      0x00\n        /* \"#utility.yul\":14423:14429   */\n      dup7\n        /* \"#utility.yul\":14416:14430   */\n      iszero\n        /* \"#utility.yul\":14409:14431   */\n      iszero\n        /* \"#utility.yul\":14398:14407   */\n      dup3\n        /* \"#utility.yul\":14391:14432   */\n      mstore\n        /* \"#utility.yul\":14468:14474   */\n      dup6\n        /* \"#utility.yul\":14463:14465   */\n      0x20\n        /* \"#utility.yul\":14452:14461   */\n      dup4\n        /* \"#utility.yul\":14448:14466   */\n      add\n        /* \"#utility.yul\":14441:14475   */\n      mstore\n        /* \"#utility.yul\":14511:14517   */\n      dup5\n        /* \"#utility.yul\":14506:14508   */\n      0x40\n        /* \"#utility.yul\":14495:14504   */\n      dup4\n        /* \"#utility.yul\":14491:14509   */\n      add\n        /* \"#utility.yul\":14484:14518   */\n      mstore\n        /* \"#utility.yul\":14554:14557   */\n      0xa0\n        /* \"#utility.yul\":14549:14551   */\n      0x60\n        /* \"#utility.yul\":14538:14547   */\n      dup4\n        /* \"#utility.yul\":14534:14552   */\n      add\n        /* \"#utility.yul\":14527:14558   */\n      mstore\n        /* \"#utility.yul\":14581:14628   */\n      tag_787\n        /* \"#utility.yul\":14623:14626   */\n      0xa0\n        /* \"#utility.yul\":14612:14621   */\n      dup4\n        /* \"#utility.yul\":14608:14627   */\n      add\n        /* \"#utility.yul\":14600:14606   */\n      dup6\n        /* \"#utility.yul\":14581:14628   */\n      tag_772\n      jump\t// in\n    tag_787:\n        /* \"#utility.yul\":14677:14686   */\n      dup3\n        /* \"#utility.yul\":14669:14675   */\n      dup2\n        /* \"#utility.yul\":14665:14687   */\n      sub\n        /* \"#utility.yul\":14659:14662   */\n      0x80\n        /* \"#utility.yul\":14648:14657   */\n      dup5\n        /* \"#utility.yul\":14644:14663   */\n      add\n        /* \"#utility.yul\":14637:14688   */\n      mstore\n        /* \"#utility.yul\":14705:14739   */\n      tag_273\n        /* \"#utility.yul\":14732:14738   */\n      dup2\n        /* \"#utility.yul\":14724:14730   */\n      dup6\n        /* \"#utility.yul\":14705:14739   */\n      tag_772\n      jump\t// in\n        /* \"#utility.yul\":15436:15657   */\n    tag_645:\n      0x00\n        /* \"#utility.yul\":15585:15587   */\n      0x20\n        /* \"#utility.yul\":15574:15583   */\n      dup3\n        /* \"#utility.yul\":15567:15588   */\n      mstore\n        /* \"#utility.yul\":15605:15651   */\n      tag_437\n        /* \"#utility.yul\":15647:15649   */\n      0x20\n        /* \"#utility.yul\":15636:15645   */\n      dup4\n        /* \"#utility.yul\":15632:15650   */\n      add\n        /* \"#utility.yul\":15624:15630   */\n      dup5\n        /* \"#utility.yul\":15605:15651   */\n      tag_772\n      jump\t// in\n        /* \"#utility.yul\":15662:16006   */\n    tag_297:\n        /* \"#utility.yul\":15864:15866   */\n      0x20\n        /* \"#utility.yul\":15846:15867   */\n      dup1\n      dup3\n      mstore\n        /* \"#utility.yul\":15903:15905   */\n      0x14\n        /* \"#utility.yul\":15883:15901   */\n      swap1\n      dup3\n      add\n        /* \"#utility.yul\":15876:15906   */\n      mstore\n      shl(0x62, 0x1bdc99195c88191bd95cc81b9bdd08195e1a5cdd)\n        /* \"#utility.yul\":15937:15939   */\n      0x40\n        /* \"#utility.yul\":15922:15940   */\n      dup3\n      add\n        /* \"#utility.yul\":15915:15965   */\n      mstore\n        /* \"#utility.yul\":15997:15999   */\n      0x60\n        /* \"#utility.yul\":15982:16000   */\n      add\n      swap1\n        /* \"#utility.yul\":15836:16006   */\n      jump\t// out\n        /* \"#utility.yul\":16011:16349   */\n    tag_364:\n        /* \"#utility.yul\":16213:16215   */\n      0x20\n        /* \"#utility.yul\":16195:16216   */\n      dup1\n      dup3\n      mstore\n        /* \"#utility.yul\":16252:16254   */\n      0x0e\n        /* \"#utility.yul\":16232:16250   */\n      swap1\n      dup3\n      add\n        /* \"#utility.yul\":16225:16255   */\n      mstore\n      shl(0x92, 0x1b585c99da5b881b9bc819dbdbd9)\n        /* \"#utility.yul\":16286:16288   */\n      0x40\n        /* \"#utility.yul\":16271:16289   */\n      dup3\n      add\n        /* \"#utility.yul\":16264:16308   */\n      mstore\n        /* \"#utility.yul\":16340:16342   */\n      0x60\n        /* \"#utility.yul\":16325:16343   */\n      add\n      swap1\n        /* \"#utility.yul\":16185:16349   */\n      jump\t// out\n        /* \"#utility.yul\":16354:16756   */\n    tag_417:\n        /* \"#utility.yul\":16556:16558   */\n      0x20\n        /* \"#utility.yul\":16538:16559   */\n      dup1\n      dup3\n      mstore\n        /* \"#utility.yul\":16595:16597   */\n      0x26\n        /* \"#utility.yul\":16575:16593   */\n      swap1\n      dup3\n      add\n        /* \"#utility.yul\":16568:16598   */\n      mstore\n        /* \"#utility.yul\":16634:16668   */\n      0x4f776e61626c653a206e6577206f776e657220697320746865207a65726f2061\n        /* \"#utility.yul\":16629:16631   */\n      0x40\n        /* \"#utility.yul\":16614:16632   */\n      dup3\n      add\n        /* \"#utility.yul\":16607:16669   */\n      mstore\n      shl(0xd0, 0x646472657373)\n        /* \"#utility.yul\":16700:16702   */\n      0x60\n        /* \"#utility.yul\":16685:16703   */\n      dup3\n      add\n        /* \"#utility.yul\":16678:16714   */\n      mstore\n        /* \"#utility.yul\":16746:16749   */\n      0x80\n        /* \"#utility.yul\":16731:16750   */\n      add\n      swap1\n        /* \"#utility.yul\":16528:16756   */\n      jump\t// out\n        /* \"#utility.yul\":16761:17095   */\n    tag_310:\n        /* \"#utility.yul\":16963:16965   */\n      0x20\n        /* \"#utility.yul\":16945:16966   */\n      dup1\n      dup3\n      mstore\n        /* \"#utility.yul\":17002:17004   */\n      0x0a\n        /* \"#utility.yul\":16982:17000   */\n      swap1\n      dup3\n      add\n        /* \"#utility.yul\":16975:17005   */\n      mstore\n      shl(0xb1, 0x37b930b1b6329032b939)\n        /* \"#utility.yul\":17036:17038   */\n      0x40\n        /* \"#utility.yul\":17021:17039   */\n      dup3\n      add\n        /* \"#utility.yul\":17014:17054   */\n      mstore\n        /* \"#utility.yul\":17086:17088   */\n      0x60\n        /* \"#utility.yul\":17071:17089   */\n      add\n      swap1\n        /* \"#utility.yul\":16935:17095   */\n      jump\t// out\n        /* \"#utility.yul\":17100:17500   */\n    tag_235:\n        /* \"#utility.yul\":17302:17304   */\n      0x20\n        /* \"#utility.yul\":17284:17305   */\n      dup1\n      dup3\n      mstore\n        /* \"#utility.yul\":17341:17343   */\n      0x24\n        /* \"#utility.yul\":17321:17339   */\n      swap1\n      dup3\n      add\n        /* \"#utility.yul\":17314:17344   */\n      mstore\n        /* \"#utility.yul\":17380:17414   */\n      0x6578656375746f723a2063616c6c6572206973206e6f74207468652065786563\n        /* \"#utility.yul\":17375:17377   */\n      0x40\n        /* \"#utility.yul\":17360:17378   */\n      dup3\n      add\n        /* \"#utility.yul\":17353:17415   */\n      mstore\n      shl(0xe1, 0x3aba37b9)\n        /* \"#utility.yul\":17446:17448   */\n      0x60\n        /* \"#utility.yul\":17431:17449   */\n      dup3\n      add\n        /* \"#utility.yul\":17424:17458   */\n      mstore\n        /* \"#utility.yul\":17490:17493   */\n      0x80\n        /* \"#utility.yul\":17475:17494   */\n      add\n      swap1\n        /* \"#utility.yul\":17274:17500   */\n      jump\t// out\n        /* \"#utility.yul\":17505:17907   */\n    tag_625:\n        /* \"#utility.yul\":17707:17709   */\n      0x20\n        /* \"#utility.yul\":17689:17710   */\n      dup1\n      dup3\n      mstore\n        /* \"#utility.yul\":17746:17748   */\n      0x26\n        /* \"#utility.yul\":17726:17744   */\n      swap1\n      dup3\n      add\n        /* \"#utility.yul\":17719:17749   */\n      mstore\n        /* \"#utility.yul\":17785:17819   */\n      0x416464726573733a20696e73756666696369656e742062616c616e636520666f\n        /* \"#utility.yul\":17780:17782   */\n      0x40\n        /* \"#utility.yul\":17765:17783   */\n      dup3\n      add\n        /* \"#utility.yul\":17758:17820   */\n      mstore\n      shl(0xd2, 0x1c8818d85b1b)\n        /* \"#utility.yul\":17851:17853   */\n      0x60\n        /* \"#utility.yul\":17836:17854   */\n      dup3\n      add\n        /* \"#utility.yul\":17829:17865   */\n      mstore\n        /* \"#utility.yul\":17897:17900   */\n      0x80\n        /* \"#utility.yul\":17882:17901   */\n      add\n      swap1\n        /* \"#utility.yul\":17679:17907   */\n      jump\t// out\n        /* \"#utility.yul\":17912:18322   */\n    tag_423:\n        /* \"#utility.yul\":18114:18116   */\n      0x20\n        /* \"#utility.yul\":18096:18117   */\n      dup1\n      dup3\n      mstore\n        /* \"#utility.yul\":18153:18155   */\n      0x2e\n        /* \"#utility.yul\":18133:18151   */\n      swap1\n      dup3\n      add\n        /* \"#utility.yul\":18126:18156   */\n      mstore\n        /* \"#utility.yul\":18192:18226   */\n      0x496e697469616c697a61626c653a20636f6e747261637420697320616c726561\n        /* \"#utility.yul\":18187:18189   */\n      0x40\n        /* \"#utility.yul\":18172:18190   */\n      dup3\n      add\n        /* \"#utility.yul\":18165:18227   */\n      mstore\n      shl(0x92, 0x191e481a5b9a5d1a585b1a5e9959)\n        /* \"#utility.yul\":18258:18260   */\n      0x60\n        /* \"#utility.yul\":18243:18261   */\n      dup3\n      add\n        /* \"#utility.yul\":18236:18280   */\n      mstore\n        /* \"#utility.yul\":18312:18315   */\n      0x80\n        /* \"#utility.yul\":18297:18316   */\n      add\n      swap1\n        /* \"#utility.yul\":18086:18322   */\n      jump\t// out\n        /* \"#utility.yul\":18327:18726   */\n    tag_376:\n        /* \"#utility.yul\":18529:18531   */\n      0x20\n        /* \"#utility.yul\":18511:18532   */\n      dup1\n      dup3\n      mstore\n        /* \"#utility.yul\":18568:18570   */\n      0x23\n        /* \"#utility.yul\":18548:18566   */\n      swap1\n      dup3\n      add\n        /* \"#utility.yul\":18541:18571   */\n      mstore\n        /* \"#utility.yul\":18607:18641   */\n      0x546865207472616e73616374696f6e20616d6f756e7420697320746f6f20736d\n        /* \"#utility.yul\":18602:18604   */\n      0x40\n        /* \"#utility.yul\":18587:18605   */\n      dup3\n      add\n        /* \"#utility.yul\":18580:18642   */\n      mstore\n      shl(0xea, 0x185b1b)\n        /* \"#utility.yul\":18673:18675   */\n      0x60\n        /* \"#utility.yul\":18658:18676   */\n      dup3\n      add\n        /* \"#utility.yul\":18651:18684   */\n      mstore\n        /* \"#utility.yul\":18716:18719   */\n      0x80\n        /* \"#utility.yul\":18701:18720   */\n      add\n      swap1\n        /* \"#utility.yul\":18501:18726   */\n      jump\t// out\n        /* \"#utility.yul\":18731:19071   */\n    tag_314:\n        /* \"#utility.yul\":18933:18935   */\n      0x20\n        /* \"#utility.yul\":18915:18936   */\n      dup1\n      dup3\n      mstore\n        /* \"#utility.yul\":18972:18974   */\n      0x10\n        /* \"#utility.yul\":18952:18970   */\n      swap1\n      dup3\n      add\n        /* \"#utility.yul\":18945:18975   */\n      mstore\n      shl(0x82, 0x155cd95c881a5cc818985b9adc9d5c1d)\n        /* \"#utility.yul\":19006:19008   */\n      0x40\n        /* \"#utility.yul\":18991:19009   */\n      dup3\n      add\n        /* \"#utility.yul\":18984:19030   */\n      mstore\n        /* \"#utility.yul\":19062:19064   */\n      0x60\n        /* \"#utility.yul\":19047:19065   */\n      add\n      swap1\n        /* \"#utility.yul\":18905:19071   */\n      jump\t// out\n        /* \"#utility.yul\":19076:19432   */\n    tag_230:\n        /* \"#utility.yul\":19278:19280   */\n      0x20\n        /* \"#utility.yul\":19260:19281   */\n      dup1\n      dup3\n      mstore\n        /* \"#utility.yul\":19297:19315   */\n      dup2\n      dup2\n      add\n        /* \"#utility.yul\":19290:19320   */\n      mstore\n        /* \"#utility.yul\":19356:19390   */\n      0x4f776e61626c653a2063616c6c6572206973206e6f7420746865206f776e6572\n        /* \"#utility.yul\":19351:19353   */\n      0x40\n        /* \"#utility.yul\":19336:19354   */\n      dup3\n      add\n        /* \"#utility.yul\":19329:19391   */\n      mstore\n        /* \"#utility.yul\":19423:19425   */\n      0x60\n        /* \"#utility.yul\":19408:19426   */\n      add\n      swap1\n        /* \"#utility.yul\":19250:19432   */\n      jump\t// out\n        /* \"#utility.yul\":19437:19790   */\n    tag_630:\n        /* \"#utility.yul\":19639:19641   */\n      0x20\n        /* \"#utility.yul\":19621:19642   */\n      dup1\n      dup3\n      mstore\n        /* \"#utility.yul\":19678:19680   */\n      0x1d\n        /* \"#utility.yul\":19658:19676   */\n      swap1\n      dup3\n      add\n        /* \"#utility.yul\":19651:19681   */\n      mstore\n        /* \"#utility.yul\":19717:19748   */\n      0x416464726573733a2063616c6c20746f206e6f6e2d636f6e7472616374000000\n        /* \"#utility.yul\":19712:19714   */\n      0x40\n        /* \"#utility.yul\":19697:19715   */\n      dup3\n      add\n        /* \"#utility.yul\":19690:19749   */\n      mstore\n        /* \"#utility.yul\":19781:19783   */\n      0x60\n        /* \"#utility.yul\":19766:19784   */\n      add\n      swap1\n        /* \"#utility.yul\":19611:19790   */\n      jump\t// out\n        /* \"#utility.yul\":19795:20129   */\n    tag_204:\n        /* \"#utility.yul\":19997:19999   */\n      0x20\n        /* \"#utility.yul\":19979:20000   */\n      dup1\n      dup3\n      mstore\n        /* \"#utility.yul\":20036:20038   */\n      0x0a\n        /* \"#utility.yul\":20016:20034   */\n      swap1\n      dup3\n      add\n        /* \"#utility.yul\":20009:20039   */\n      mstore\n      shl(0xb1, 0x3632b733ba341032b939)\n        /* \"#utility.yul\":20070:20072   */\n      0x40\n        /* \"#utility.yul\":20055:20073   */\n      dup3\n      add\n        /* \"#utility.yul\":20048:20088   */\n      mstore\n        /* \"#utility.yul\":20120:20122   */\n      0x60\n        /* \"#utility.yul\":20105:20123   */\n      add\n      swap1\n        /* \"#utility.yul\":19969:20129   */\n      jump\t// out\n        /* \"#utility.yul\":20134:20465   */\n    tag_272:\n        /* \"#utility.yul\":20336:20338   */\n      0x20\n        /* \"#utility.yul\":20318:20339   */\n      dup1\n      dup3\n      mstore\n        /* \"#utility.yul\":20375:20376   */\n      0x08\n        /* \"#utility.yul\":20355:20373   */\n      swap1\n      dup3\n      add\n        /* \"#utility.yul\":20348:20377   */\n      mstore\n      shl(0xc1, 0x3ab9b2b91032b939)\n        /* \"#utility.yul\":20408:20410   */\n      0x40\n        /* \"#utility.yul\":20393:20411   */\n      dup3\n      add\n        /* \"#utility.yul\":20386:20424   */\n      mstore\n        /* \"#utility.yul\":20456:20458   */\n      0x60\n        /* \"#utility.yul\":20441:20459   */\n      add\n      swap1\n        /* \"#utility.yul\":20308:20465   */\n      jump\t// out\n        /* \"#utility.yul\":20470:20802   */\n    tag_300:\n        /* \"#utility.yul\":20672:20674   */\n      0x20\n        /* \"#utility.yul\":20654:20675   */\n      dup1\n      dup3\n      mstore\n        /* \"#utility.yul\":20711:20712   */\n      0x09\n        /* \"#utility.yul\":20691:20709   */\n      swap1\n      dup3\n      add\n        /* \"#utility.yul\":20684:20713   */\n      mstore\n      shl(0xb9, 0x39ba30ba329032b939)\n        /* \"#utility.yul\":20744:20746   */\n      0x40\n        /* \"#utility.yul\":20729:20747   */\n      dup3\n      add\n        /* \"#utility.yul\":20722:20761   */\n      mstore\n        /* \"#utility.yul\":20793:20795   */\n      0x60\n        /* \"#utility.yul\":20778:20796   */\n      add\n      swap1\n        /* \"#utility.yul\":20644:20802   */\n      jump\t// out\n        /* \"#utility.yul\":20807:21213   */\n    tag_602:\n        /* \"#utility.yul\":21009:21011   */\n      0x20\n        /* \"#utility.yul\":20991:21012   */\n      dup1\n      dup3\n      mstore\n        /* \"#utility.yul\":21048:21050   */\n      0x2a\n        /* \"#utility.yul\":21028:21046   */\n      swap1\n      dup3\n      add\n        /* \"#utility.yul\":21021:21051   */\n      mstore\n        /* \"#utility.yul\":21087:21121   */\n      0x5361666545524332303a204552433230206f7065726174696f6e20646964206e\n        /* \"#utility.yul\":21082:21084   */\n      0x40\n        /* \"#utility.yul\":21067:21085   */\n      dup3\n      add\n        /* \"#utility.yul\":21060:21122   */\n      mstore\n      shl(0xb2, 0x1bdd081cdd58d8d95959)\n        /* \"#utility.yul\":21153:21155   */\n      0x60\n        /* \"#utility.yul\":21138:21156   */\n      dup3\n      add\n        /* \"#utility.yul\":21131:21171   */\n      mstore\n        /* \"#utility.yul\":21203:21206   */\n      0x80\n        /* \"#utility.yul\":21188:21207   */\n      add\n      swap1\n        /* \"#utility.yul\":20981:21213   */\n      jump\t// out\n        /* \"#utility.yul\":21218:21553   */\n    tag_207:\n        /* \"#utility.yul\":21420:21422   */\n      0x20\n        /* \"#utility.yul\":21402:21423   */\n      dup1\n      dup3\n      mstore\n        /* \"#utility.yul\":21459:21461   */\n      0x0b\n        /* \"#utility.yul\":21439:21457   */\n      swap1\n      dup3\n      add\n        /* \"#utility.yul\":21432:21462   */\n      mstore\n      shl(0xaa, 0x185c9c881b9bc819dbdbd9)\n        /* \"#utility.yul\":21493:21495   */\n      0x40\n        /* \"#utility.yul\":21478:21496   */\n      dup3\n      add\n        /* \"#utility.yul\":21471:21512   */\n      mstore\n        /* \"#utility.yul\":21544:21546   */\n      0x60\n        /* \"#utility.yul\":21529:21547   */\n      add\n      swap1\n        /* \"#utility.yul\":21392:21553   */\n      jump\t// out\n        /* \"#utility.yul\":21558:22696   */\n    tag_95:\n      0x00\n        /* \"#utility.yul\":21741:21743   */\n      0x20\n        /* \"#utility.yul\":21730:21739   */\n      dup3\n        /* \"#utility.yul\":21723:21744   */\n      mstore\n        /* \"#utility.yul\":21753:21808   */\n      tag_811\n        /* \"#utility.yul\":21804:21806   */\n      0x20\n        /* \"#utility.yul\":21793:21802   */\n      dup4\n        /* \"#utility.yul\":21789:21807   */\n      add\n        /* \"#utility.yul\":21780:21786   */\n      dup5\n        /* \"#utility.yul\":21774:21787   */\n      mload\n        /* \"#utility.yul\":21753:21808   */\n      tag_770\n      jump\t// in\n    tag_811:\n        /* \"#utility.yul\":21862:21864   */\n      0x20\n        /* \"#utility.yul\":21854:21860   */\n      dup4\n        /* \"#utility.yul\":21850:21865   */\n      add\n        /* \"#utility.yul\":21844:21866   */\n      mload\n        /* \"#utility.yul\":21839:21841   */\n      0x40\n        /* \"#utility.yul\":21828:21837   */\n      dup4\n        /* \"#utility.yul\":21824:21842   */\n      add\n        /* \"#utility.yul\":21817:21867   */\n      mstore\n        /* \"#utility.yul\":21914:21916   */\n      0x40\n        /* \"#utility.yul\":21906:21912   */\n      dup4\n        /* \"#utility.yul\":21902:21917   */\n      add\n        /* \"#utility.yul\":21896:21918   */\n      mload\n        /* \"#utility.yul\":21937:21943   */\n      0x0160\n        /* \"#utility.yul\":21979:21981   */\n      dup1\n        /* \"#utility.yul\":21974:21976   */\n      0x60\n        /* \"#utility.yul\":21963:21972   */\n      dup6\n        /* \"#utility.yul\":21959:21977   */\n      add\n        /* \"#utility.yul\":21952:21982   */\n      mstore\n        /* \"#utility.yul\":22005:22058   */\n      tag_812\n        /* \"#utility.yul\":22053:22056   */\n      0x0180\n        /* \"#utility.yul\":22042:22051   */\n      dup6\n        /* \"#utility.yul\":22038:22057   */\n      add\n        /* \"#utility.yul\":22024:22036   */\n      dup4\n        /* \"#utility.yul\":22005:22058   */\n      tag_772\n      jump\t// in\n    tag_812:\n        /* \"#utility.yul\":21991:22058   */\n      swap2\n      pop\n        /* \"#utility.yul\":22113:22115   */\n      0x60\n        /* \"#utility.yul\":22105:22111   */\n      dup6\n        /* \"#utility.yul\":22101:22116   */\n      add\n        /* \"#utility.yul\":22095:22117   */\n      mload\n        /* \"#utility.yul\":22089:22092   */\n      0x80\n        /* \"#utility.yul\":22078:22087   */\n      dup6\n        /* \"#utility.yul\":22074:22093   */\n      add\n        /* \"#utility.yul\":22067:22118   */\n      mstore\n        /* \"#utility.yul\":22173:22176   */\n      0x80\n        /* \"#utility.yul\":22165:22171   */\n      dup6\n        /* \"#utility.yul\":22161:22177   */\n      add\n        /* \"#utility.yul\":22155:22178   */\n      mload\n        /* \"#utility.yul\":22149:22152   */\n      0xa0\n        /* \"#utility.yul\":22138:22147   */\n      dup6\n        /* \"#utility.yul\":22134:22153   */\n      add\n        /* \"#utility.yul\":22127:22179   */\n      mstore\n        /* \"#utility.yul\":22234:22237   */\n      0xa0\n        /* \"#utility.yul\":22226:22232   */\n      dup6\n        /* \"#utility.yul\":22222:22238   */\n      add\n        /* \"#utility.yul\":22216:22239   */\n      mload\n        /* \"#utility.yul\":22210:22213   */\n      0xc0\n        /* \"#utility.yul\":22199:22208   */\n      dup6\n        /* \"#utility.yul\":22195:22214   */\n      add\n        /* \"#utility.yul\":22188:22240   */\n      mstore\n        /* \"#utility.yul\":22295:22298   */\n      0xc0\n        /* \"#utility.yul\":22287:22293   */\n      dup6\n        /* \"#utility.yul\":22283:22299   */\n      add\n        /* \"#utility.yul\":22277:22300   */\n      mload\n        /* \"#utility.yul\":22271:22274   */\n      0xe0\n        /* \"#utility.yul\":22260:22269   */\n      dup6\n        /* \"#utility.yul\":22256:22275   */\n      add\n        /* \"#utility.yul\":22249:22301   */\n      mstore\n        /* \"#utility.yul\":22338:22341   */\n      0xe0\n        /* \"#utility.yul\":22330:22336   */\n      dup6\n        /* \"#utility.yul\":22326:22342   */\n      add\n        /* \"#utility.yul\":22320:22343   */\n      mload\n        /* \"#utility.yul\":22362:22365   */\n      0x0100\n        /* \"#utility.yul\":22401:22403   */\n      dup2\n        /* \"#utility.yul\":22396:22398   */\n      dup2\n        /* \"#utility.yul\":22385:22394   */\n      dup8\n        /* \"#utility.yul\":22381:22399   */\n      add\n        /* \"#utility.yul\":22374:22404   */\n      mstore\n        /* \"#utility.yul\":22441:22443   */\n      dup1\n        /* \"#utility.yul\":22433:22439   */\n      dup8\n        /* \"#utility.yul\":22429:22444   */\n      add\n        /* \"#utility.yul\":22423:22445   */\n      mload\n        /* \"#utility.yul\":22413:22445   */\n      swap2\n      pop\n      pop\n        /* \"#utility.yul\":22464:22467   */\n      0x0120\n        /* \"#utility.yul\":22503:22505   */\n      dup2\n        /* \"#utility.yul\":22498:22500   */\n      dup2\n        /* \"#utility.yul\":22487:22496   */\n      dup8\n        /* \"#utility.yul\":22483:22501   */\n      add\n        /* \"#utility.yul\":22476:22506   */\n      mstore\n        /* \"#utility.yul\":22543:22545   */\n      dup1\n        /* \"#utility.yul\":22535:22541   */\n      dup8\n        /* \"#utility.yul\":22531:22546   */\n      add\n        /* \"#utility.yul\":22525:22547   */\n      mload\n        /* \"#utility.yul\":22515:22547   */\n      swap2\n      pop\n      pop\n        /* \"#utility.yul\":22566:22569   */\n      0x0140\n        /* \"#utility.yul\":22605:22607   */\n      dup2\n        /* \"#utility.yul\":22600:22602   */\n      dup2\n        /* \"#utility.yul\":22589:22598   */\n      dup8\n        /* \"#utility.yul\":22585:22603   */\n      add\n        /* \"#utility.yul\":22578:22608   */\n      mstore\n        /* \"#utility.yul\":22662:22664   */\n      dup1\n        /* \"#utility.yul\":22654:22660   */\n      dup8\n        /* \"#utility.yul\":22650:22665   */\n      add\n        /* \"#utility.yul\":22644:22666   */\n      mload\n        /* \"#utility.yul\":22639:22641   */\n      dup4\n        /* \"#utility.yul\":22628:22637   */\n      dup8\n        /* \"#utility.yul\":22624:22642   */\n      add\n        /* \"#utility.yul\":22617:22667   */\n      mstore\n      pop\n      pop\n      pop\n        /* \"#utility.yul\":22684:22690   */\n      dup1\n        /* \"#utility.yul\":22676:22690   */\n      swap2\n      pop\n      pop\n        /* \"#utility.yul\":21713:22696   */\n      swap3\n      swap2\n      pop\n      pop\n      jump\t// out\n        /* \"#utility.yul\":22701:22878   */\n    tag_54:\n        /* \"#utility.yul\":22847:22872   */\n      swap1\n      dup2\n      mstore\n        /* \"#utility.yul\":22835:22837   */\n      0x20\n        /* \"#utility.yul\":22820:22838   */\n      add\n      swap1\n        /* \"#utility.yul\":22802:22878   */\n      jump\t// out\n        /* \"#utility.yul\":22883:23134   */\n    tag_667:\n        /* \"#utility.yul\":22953:22955   */\n      0x40\n        /* \"#utility.yul\":22947:22956   */\n      mload\n        /* \"#utility.yul\":22983:23000   */\n      dup2\n      dup2\n      add\n        /* \"#utility.yul\":23030:23048   */\n      0xffffffffffffffff\n        /* \"#utility.yul\":23015:23049   */\n      dup2\n      gt\n        /* \"#utility.yul\":23051:23073   */\n      dup3\n      dup3\n      lt\n        /* \"#utility.yul\":23012:23074   */\n      or\n        /* \"#utility.yul\":23009:23011   */\n      iszero\n      tag_816\n      jumpi\n        /* \"#utility.yul\":23077:23095   */\n      tag_816\n      tag_699\n      jump\t// in\n    tag_816:\n        /* \"#utility.yul\":23113:23115   */\n      0x40\n        /* \"#utility.yul\":23106:23128   */\n      mstore\n        /* \"#utility.yul\":22927:23134   */\n      swap2\n      swap1\n      pop\n      jump\t// out\n        /* \"#utility.yul\":23139:23329   */\n    tag_666:\n      0x00\n        /* \"#utility.yul\":23236:23254   */\n      0xffffffffffffffff\n        /* \"#utility.yul\":23228:23234   */\n      dup3\n        /* \"#utility.yul\":23225:23255   */\n      gt\n        /* \"#utility.yul\":23222:23224   */\n      iszero\n      tag_819\n      jumpi\n        /* \"#utility.yul\":23258:23276   */\n      tag_819\n      tag_699\n      jump\t// in\n    tag_819:\n      pop\n        /* \"#utility.yul\":23318:23322   */\n      0x20\n        /* \"#utility.yul\":23299:23316   */\n      swap1\n      dup2\n      mul\n        /* \"#utility.yul\":23295:23323   */\n      add\n      swap1\n        /* \"#utility.yul\":23212:23329   */\n      jump\t// out\n        /* \"#utility.yul\":23334:23462   */\n    tag_454:\n      0x00\n        /* \"#utility.yul\":23405:23406   */\n      dup3\n        /* \"#utility.yul\":23401:23407   */\n      not\n        /* \"#utility.yul\":23398:23399   */\n      dup3\n        /* \"#utility.yul\":23395:23408   */\n      gt\n        /* \"#utility.yul\":23392:23394   */\n      iszero\n      tag_822\n      jumpi\n        /* \"#utility.yul\":23411:23429   */\n      tag_822\n      tag_823\n      jump\t// in\n    tag_822:\n      pop\n        /* \"#utility.yul\":23447:23456   */\n      add\n      swap1\n        /* \"#utility.yul\":23382:23462   */\n      jump\t// out\n        /* \"#utility.yul\":23467:23684   */\n    tag_565:\n      0x00\n        /* \"#utility.yul\":23533:23534   */\n      dup3\n        /* \"#utility.yul\":23523:23525   */\n      tag_825\n      jumpi\n      shl(0xe0, 0x4e487b71)\n        /* \"#utility.yul\":23558:23589   */\n      dup2\n      mstore\n        /* \"#utility.yul\":23612:23616   */\n      0x12\n        /* \"#utility.yul\":23609:23610   */\n      0x04\n        /* \"#utility.yul\":23602:23617   */\n      mstore\n        /* \"#utility.yul\":23640:23644   */\n      0x24\n        /* \"#utility.yul\":23565:23566   */\n      dup2\n        /* \"#utility.yul\":23630:23645   */\n      revert\n        /* \"#utility.yul\":23523:23525   */\n    tag_825:\n      pop\n        /* \"#utility.yul\":23669:23678   */\n      div\n      swap1\n        /* \"#utility.yul\":23513:23684   */\n      jump\t// out\n        /* \"#utility.yul\":23689:23857   */\n    tag_438:\n      0x00\n        /* \"#utility.yul\":23795:23796   */\n      dup2\n        /* \"#utility.yul\":23791:23792   */\n      0x00\n        /* \"#utility.yul\":23787:23793   */\n      not\n        /* \"#utility.yul\":23783:23797   */\n      div\n        /* \"#utility.yul\":23780:23781   */\n      dup4\n        /* \"#utility.yul\":23777:23798   */\n      gt\n        /* \"#utility.yul\":23772:23773   */\n      dup3\n        /* \"#utility.yul\":23765:23774   */\n      iszero\n        /* \"#utility.yul\":23758:23775   */\n      iszero\n        /* \"#utility.yul\":23754:23799   */\n      and\n        /* \"#utility.yul\":23751:23753   */\n      iszero\n      tag_828\n      jumpi\n        /* \"#utility.yul\":23802:23820   */\n      tag_828\n      tag_823\n      jump\t// in\n    tag_828:\n      pop\n        /* \"#utility.yul\":23842:23851   */\n      mul\n      swap1\n        /* \"#utility.yul\":23741:23857   */\n      jump\t// out\n        /* \"#utility.yul\":23862:23987   */\n    tag_441:\n      0x00\n        /* \"#utility.yul\":23930:23931   */\n      dup3\n        /* \"#utility.yul\":23927:23928   */\n      dup3\n        /* \"#utility.yul\":23924:23932   */\n      lt\n        /* \"#utility.yul\":23921:23923   */\n      iszero\n      tag_831\n      jumpi\n        /* \"#utility.yul\":23935:23953   */\n      tag_831\n      tag_823\n      jump\t// in\n    tag_831:\n      pop\n        /* \"#utility.yul\":23972:23981   */\n      sub\n      swap1\n        /* \"#utility.yul\":23911:23987   */\n      jump\t// out\n        /* \"#utility.yul\":23992:24250   */\n    tag_775:\n        /* \"#utility.yul\":24064:24065   */\n      0x00\n        /* \"#utility.yul\":24074:24187   */\n    tag_833:\n        /* \"#utility.yul\":24088:24094   */\n      dup4\n        /* \"#utility.yul\":24085:24086   */\n      dup2\n        /* \"#utility.yul\":24082:24095   */\n      lt\n        /* \"#utility.yul\":24074:24187   */\n      iszero\n      tag_835\n      jumpi\n        /* \"#utility.yul\":24164:24175   */\n      dup2\n      dup2\n      add\n        /* \"#utility.yul\":24158:24176   */\n      mload\n        /* \"#utility.yul\":24145:24156   */\n      dup4\n      dup3\n      add\n        /* \"#utility.yul\":24138:24177   */\n      mstore\n        /* \"#utility.yul\":24110:24112   */\n      0x20\n        /* \"#utility.yul\":24103:24113   */\n      add\n        /* \"#utility.yul\":24074:24187   */\n      jump(tag_833)\n    tag_835:\n        /* \"#utility.yul\":24205:24211   */\n      dup4\n        /* \"#utility.yul\":24202:24203   */\n      dup2\n        /* \"#utility.yul\":24199:24212   */\n      gt\n        /* \"#utility.yul\":24196:24198   */\n      iszero\n      tag_569\n      jumpi\n      pop\n      pop\n        /* \"#utility.yul\":24240:24241   */\n      0x00\n        /* \"#utility.yul\":24222:24238   */\n      swap2\n      add\n        /* \"#utility.yul\":24215:24242   */\n      mstore\n        /* \"#utility.yul\":24045:24250   */\n      jump\t// out\n        /* \"#utility.yul\":24255:24391   */\n    tag_220:\n      0x00\n        /* \"#utility.yul\":24322:24327   */\n      dup2\n        /* \"#utility.yul\":24312:24314   */\n      tag_839\n      jumpi\n        /* \"#utility.yul\":24331:24349   */\n      tag_839\n      tag_823\n      jump\t// in\n    tag_839:\n      pop\n      not(0x00)\n        /* \"#utility.yul\":24367:24385   */\n      add\n      swap1\n        /* \"#utility.yul\":24302:24391   */\n      jump\t// out\n        /* \"#utility.yul\":24396:24776   */\n    tag_258:\n        /* \"#utility.yul\":24481:24482   */\n      0x02\n        /* \"#utility.yul\":24471:24483   */\n      dup2\n      div\n        /* \"#utility.yul\":24528:24529   */\n      0x01\n        /* \"#utility.yul\":24518:24530   */\n      dup3\n      and\n      dup1\n        /* \"#utility.yul\":24539:24541   */\n      tag_841\n      jumpi\n        /* \"#utility.yul\":24593:24597   */\n      0x7f\n        /* \"#utility.yul\":24585:24591   */\n      dup3\n        /* \"#utility.yul\":24581:24598   */\n      and\n        /* \"#utility.yul\":24571:24598   */\n      swap2\n      pop\n        /* \"#utility.yul\":24539:24541   */\n    tag_841:\n        /* \"#utility.yul\":24646:24648   */\n      0x20\n        /* \"#utility.yul\":24638:24644   */\n      dup3\n        /* \"#utility.yul\":24635:24649   */\n      lt\n        /* \"#utility.yul\":24615:24633   */\n      dup2\n        /* \"#utility.yul\":24612:24650   */\n      eq\n        /* \"#utility.yul\":24609:24611   */\n      iszero\n      tag_842\n      jumpi\n        /* \"#utility.yul\":24692:24702   */\n      0x4e487b71\n        /* \"#utility.yul\":24687:24690   */\n      0xe0\n        /* \"#utility.yul\":24683:24703   */\n      shl\n        /* \"#utility.yul\":24680:24681   */\n      0x00\n        /* \"#utility.yul\":24673:24704   */\n      mstore\n        /* \"#utility.yul\":24727:24731   */\n      0x22\n        /* \"#utility.yul\":24724:24725   */\n      0x04\n        /* \"#utility.yul\":24717:24732   */\n      mstore\n        /* \"#utility.yul\":24755:24759   */\n      0x24\n        /* \"#utility.yul\":24752:24753   */\n      0x00\n        /* \"#utility.yul\":24745:24760   */\n      revert\n        /* \"#utility.yul\":24609:24611   */\n    tag_842:\n      pop\n        /* \"#utility.yul\":24451:24776   */\n      swap2\n      swap1\n      pop\n      jump\t// out\n        /* \"#utility.yul\":24781:24916   */\n    tag_218:\n      0x00\n      not(0x00)\n        /* \"#utility.yul\":24841:24858   */\n      dup3\n      eq\n        /* \"#utility.yul\":24838:24840   */\n      iszero\n      tag_845\n      jumpi\n        /* \"#utility.yul\":24861:24879   */\n      tag_845\n      tag_823\n      jump\t// in\n    tag_845:\n      pop\n        /* \"#utility.yul\":24908:24909   */\n      0x01\n        /* \"#utility.yul\":24897:24910   */\n      add\n      swap1\n        /* \"#utility.yul\":24828:24916   */\n      jump\t// out\n        /* \"#utility.yul\":24921:25048   */\n    tag_823:\n        /* \"#utility.yul\":24982:24992   */\n      0x4e487b71\n        /* \"#utility.yul\":24977:24980   */\n      0xe0\n        /* \"#utility.yul\":24973:24993   */\n      shl\n        /* \"#utility.yul\":24970:24971   */\n      0x00\n        /* \"#utility.yul\":24963:24994   */\n      mstore\n        /* \"#utility.yul\":25013:25017   */\n      0x11\n        /* \"#utility.yul\":25010:25011   */\n      0x04\n        /* \"#utility.yul\":25003:25018   */\n      mstore\n        /* \"#utility.yul\":25037:25041   */\n      0x24\n        /* \"#utility.yul\":25034:25035   */\n      0x00\n        /* \"#utility.yul\":25027:25042   */\n      revert\n        /* \"#utility.yul\":25053:25180   */\n    tag_699:\n        /* \"#utility.yul\":25114:25124   */\n      0x4e487b71\n        /* \"#utility.yul\":25109:25112   */\n      0xe0\n        /* \"#utility.yul\":25105:25125   */\n      shl\n        /* \"#utility.yul\":25102:25103   */\n      0x00\n        /* \"#utility.yul\":25095:25126   */\n      mstore\n        /* \"#utility.yul\":25145:25149   */\n      0x41\n        /* \"#utility.yul\":25142:25143   */\n      0x04\n        /* \"#utility.yul\":25135:25150   */\n      mstore\n        /* \"#utility.yul\":25169:25173   */\n      0x24\n        /* \"#utility.yul\":25166:25167   */\n      0x00\n        /* \"#utility.yul\":25159:25174   */\n      revert\n        /* \"#utility.yul\":25185:25318   */\n    tag_660:\n      sub(shl(0xa0, 0x01), 0x01)\n        /* \"#utility.yul\":25262:25293   */\n      dup2\n      and\n        /* \"#utility.yul\":25252:25294   */\n      dup2\n      eq\n        /* \"#utility.yul\":25242:25244   */\n      tag_418\n      jumpi\n        /* \"#utility.yul\":25308:25309   */\n      0x00\n        /* \"#utility.yul\":25305:25306   */\n      dup1\n        /* \"#utility.yul\":25298:25310   */\n      revert\n        /* \"#utility.yul\":25323:25443   */\n    tag_694:\n        /* \"#utility.yul\":25411:25416   */\n      dup1\n        /* \"#utility.yul\":25404:25417   */\n      iszero\n        /* \"#utility.yul\":25397:25418   */\n      iszero\n        /* \"#utility.yul\":25390:25395   */\n      dup2\n        /* \"#utility.yul\":25387:25419   */\n      eq\n        /* \"#utility.yul\":25377:25379   */\n      tag_418\n      jumpi\n        /* \"#utility.yul\":25433:25434   */\n      0x00\n        /* \"#utility.yul\":25430:25431   */\n      dup1\n        /* \"#utility.yul\":25423:25435   */\n      revert\n\n    auxdata: 0xa2646970667358221220f1744b096be2ecbaf9f79cdd0a778b1e0dcba4bd74ba21657e2e2c861bc3a5c064736f6c63430008000033\n}\n",
				"bytecode": {
					"linkReferences": {},
					"object": "608060405234801561001057600080fd5b506134dc806100206000396000f3fe608060405234801561001057600080fd5b50600436106101fb5760003560e01c80637dc0d1d01161011a578063db4a5aa9116100ad578063f14053ad1161007c578063f14053ad14610408578063f2fde38b14610410578063f7ab69fd14610423578063f8c8765e1461042b578063fc234d061461043e576101fb565b8063db4a5aa9146103bc578063e4e95520146103cf578063ec4c4f34146103e2578063f0c765e4146103f5576101fb565b8063a8ecb028116100e9578063a8ecb0281461037b578063aaf5eb681461038e578063aecf77b114610396578063c2ec527d146103a9576101fb565b80637dc0d1d0146103505780637fd6f15c146103585780638da5cb5b14610360578063a0ad12e214610368576101fb565b806348c7e528116101925780636e812437116101615780636e8124371461030f578063715018a6146103225780637be3a1a11461032a5780637ce3489b1461033d576101fb565b806348c7e528146102b65780634b989ce3146102c95780636ab34a4a146102dc5780636c19e783146102fc576101fb565b80631e64610c116101ce5780631e64610c1461027e578063238ac933146102935780633011d3d51461029b57806343b1f3cb146102a3576101fb565b8063080270a8146102005780630f58d242146102295780631402573d146102495780631e1bff3f1461025e575b600080fd5b61021361020e3660046129f5565b610451565b6040516102209190612e71565b60405180910390f35b61023c610237366004612cf0565b610715565b60405161022091906132f9565b61025c6102573660046129c1565b610736565b005b61027161026c366004612903565b61075c565b6040516102209190612eb5565b6102866107cc565b6040516102209190612e20565b6102866107db565b6102866107ea565b61023c6102b1366004612cf0565b6107f9565b6102716102c43660046128e7565b61080b565b6102716102d7366004612a4b565b610820565b6102ef6102ea366004612cf0565b6109fa565b6040516102209190613255565b61027161030a3660046128e7565b610b27565b61027161031d366004612b26565b610b8d565b61025c610be1565b61023c610338366004612996565b610c2c565b61027161034b366004612cf0565b610c49565b610286610c93565b61023c610ca2565b610286610ca8565b610271610376366004612b26565b610cb7565b610271610389366004612ba8565b610d05565b61023c611168565b61023c6103a43660046128e7565b61116e565b61023c6103b7366004612996565b611189565b6102716103ca366004612c42565b6111ba565b61023c6103dd3660046128e7565b6115e7565b61023c6103f0366004612996565b611602565b61023c610403366004612996565b61161e565b61023c61163b565b61025c61041e3660046128e7565b611641565b61023c6116b2565b61025c61043936600461293b565b6116b8565b61027161044c366004612d20565b61179a565b606060008082866104b457606c8054806020026020016040519081016040528092919081815260200182805480156104a857602002820191906000526020600020905b815481526020019060010190808311610494575b50505050509050610594565b8660011415610525576001600160a01b0388166000908152606e6020908152604091829020805483518184028101840190945280845290918301828280156104a857602002820191906000526020600020908154815260200190600101908083116104945750505050509050610594565b8660021415610594576001600160a01b0388166000908152607060209081526040918290208054835181840281018401909452808452909183018282801561058c57602002820191906000526020600020905b815481526020019060010190808311610578575b505050505090505b60006105b56105ad886105a7818a6118ff565b90611912565b835190611912565b90508681106105c6578692506105ca565b8092505b81516105da886105a7818a6118ff565b106106005760405162461bcd60e51b81526004016105f79061317d565b60405180910390fd5b8261061d5760405162461bcd60e51b81526004016105f790613230565b60008367ffffffffffffffff81111561064657634e487b7160e01b600052604160045260246000fd5b60405190808252806020026020018201604052801561066f578160200160208202803683370190505b509050600061067f836001611912565b90505b84861015610707578381815181106106aa57634e487b7160e01b600052603260045260246000fd5b60200260200101518287815181106106d257634e487b7160e01b600052603260045260246000fd5b6020908102919091010152806106e757610707565b856106f18161343c565b96505080806106ff906133ea565b915050610682565b509998505050505050505050565b606c818154811061072557600080fd5b600091825260209091200154905081565b6001600160a01b039092166000908152606f602090815260408083209383529290522055565b600061076661191e565b6001600160a01b0316610777610ca8565b6001600160a01b03161461079d5760405162461bcd60e51b81526004016105f790613111565b506001600160a01b0382166000908152606560205260409020805482151560ff19909116179055600192915050565b6068546001600160a01b031681565b6066546001600160a01b031681565b6067546001600160a01b031681565b606d6020526000908152604090205481565b60656020526000908152604090205460ff1681565b3360009081526065602052604081205460ff1661084f5760405162461bcd60e51b81526004016105f790612fcc565b60005b86518110156109ea576000606a600089848151811061088157634e487b7160e01b600052603260045260246000fd5b6020026020010151815260200190815260200160002090506108f68883815181106108bc57634e487b7160e01b600052603260045260246000fd5b60200260200101518684815181106108e457634e487b7160e01b600052603260045260246000fd5b602002602001015183600a0154611922565b6109d7576109ce898260038b868151811061092157634e487b7160e01b600052603260045260246000fd5b60200260200101518b878151811061094957634e487b7160e01b600052603260045260246000fd5b60200260200101518b888151811061097157634e487b7160e01b600052603260045260246000fd5b60200260200101518b898151811061099957634e487b7160e01b600052603260045260246000fd5b60200260200101518b8a815181106109c157634e487b7160e01b600052603260045260246000fd5b6020026020010151611a79565b925050506109f0565b50806109e28161343c565b915050610852565b50600190505b9695505050505050565b610a02612654565b6000828152606a602090815260409182902082516101608101845281546001600160a01b031681526001820154928101929092526002810180549293919291840191610a4d90613401565b80601f0160208091040260200160405190810160405280929190818152602001828054610a7990613401565b8015610ac65780601f10610a9b57610100808354040283529160200191610ac6565b820191906000526020600020905b815481529060010190602001808311610aa957829003601f168201915b5050505050815260200160038201548152602001600482015481526020016005820154815260200160068201548152602001600782015481526020016008820154815260200160098201548152602001600a8201548152505090505b919050565b6000610b3161191e565b6001600160a01b0316610b42610ca8565b6001600160a01b031614610b685760405162461bcd60e51b81526004016105f790613111565b50606680546001600160a01b0383166001600160a01b03199091161790556001919050565b6000858152606a6020526040812080546001600160a01b03163314610bc45760405162461bcd60e51b81526004016105f7906131a1565b610bd5888260028a8a8a8a8a611a79565b98975050505050505050565b610be961191e565b6001600160a01b0316610bfa610ca8565b6001600160a01b031614610c205760405162461bcd60e51b81526004016105f790613111565b610c2a600061217f565b565b606f60209081526000928352604080842090915290825290205481565b6000610c5361191e565b6001600160a01b0316610c64610ca8565b6001600160a01b031614610c8a5760405162461bcd60e51b81526004016105f790613111565b50607255600190565b6069546001600160a01b031681565b60725481565b6033546001600160a01b031690565b3360009081526065602052604081205460ff16610ce65760405162461bcd60e51b81526004016105f790612fcc565b6000868152606a60205260409020610bd5888260048a8a8a8a8a611a79565b6000868152606a6020526040812080546001600160a01b0316610d3a5760405162461bcd60e51b81526004016105f790612f0c565b6002816003015410610d5e5760405162461bcd60e51b81526004016105f7906131c3565b6069546040516311cdc9d960e11b81526001600160a01b039091169063239b93b290610d96908c9089908c908c908b90600401612ec0565b60206040518083038186803b158015610dae57600080fd5b505afa158015610dc2573d6000803e3d6000fd5b505050506040513d601f19601f82011682018060405250810190610de69190612a2f565b610e025760405162461bcd60e51b81526004016105f790612fa8565b610e0d888685611922565b610e295760405162461bcd60e51b81526004016105f7906130e7565b6000610e66670de0b6b3a7640000610e60607354610e60607254610e5a8c89600901546118ff90919063ffffffff16565b906118ff565b906121d1565b90506000610eb7610e94670de0b6b3a7640000610e60866009015487600501546118ff90919063ffffffff16565b6105a7670de0b6b3a7640000610e6087600901548c6118ff90919063ffffffff16565b90506000610ed28285600a01546121dd90919063ffffffff16565b9050600081610ee18886611912565b1115610f7757610ef5826105a78987611912565b606754909150610f10906001600160a01b03163330846121e9565b606754604051630852cd8d60e31b81526001600160a01b03909116906342966c6890610f409084906004016132f9565b600060405180830381600087803b158015610f5a57600080fd5b505af1158015610f6e573d6000803e3d6000fd5b50505050611016565b610f8b610f848886611912565b8390611912565b60675486546040516340c10f1960e01b81529293506001600160a01b03918216926340c10f1992610fc29216908590600401612e58565b602060405180830381600087803b158015610fdc57600080fd5b505af1158015610ff0573d6000803e3d6000fd5b505050506040513d601f19601f820116820180604052508101906110149190612a2f565b505b6067546040516340c10f1960e01b81526001600160a01b03909116906340c10f19906110489030908890600401612e58565b602060405180830381600087803b15801561106257600080fd5b505af1158015611076573d6000803e3d6000fd5b505050506040513d601f19601f8201168201806040525081019061109a9190612a2f565b506068546067546110b8916001600160a01b03918216911686612247565b606860009054906101000a90046001600160a01b03166001600160a01b031663d10c06a26040518163ffffffff1660e01b8152600401602060405180830381600087803b15801561110857600080fd5b505af115801561111c573d6000803e3d6000fd5b505050506040513d601f19601f820116820180604052508101906111409190612a2f565b5061114b8785611912565b600a86015550505050600501849055506001979650505050505050565b60735481565b6001600160a01b031660009081526070602052604090205490565b606e60205281600052604060002081815481106111a557600080fd5b90600052602060002001600091509150505481565b606b546000908152606a60205260408120896111e85760405162461bcd60e51b81526004016105f790612f3a565b60038101541561120a5760405162461bcd60e51b81526004016105f7906131c3565b6069546040516311cdc9d960e11b81526001600160a01b039091169063239b93b290611242908e9089908e908c908a90600401612ec0565b60206040518083038186803b15801561125a57600080fd5b505afa15801561126e573d6000803e3d6000fd5b505050506040513d601f19601f820116820180604052508101906112929190612a2f565b6112ae5760405162461bcd60e51b81526004016105f790612fa8565b6074548a116112cf5760405162461bcd60e51b81526004016105f7906130a4565b6067546112e7906001600160a01b031633308d6121e9565b6067546040516370a0823160e01b81526000916001600160a01b0316906370a0823190611318903090600401612e20565b60206040518083038186803b15801561133057600080fd5b505afa158015611344573d6000803e3d6000fd5b505050506040513d601f19601f820116820180604052508101906113689190612d08565b90506000611397670de0b6b3a7640000610e60607354610e60607254610e5a8c8e6118ff90919063ffffffff16565b6068546067549192506113b7916001600160a01b03908116911683612247565b606860009054906101000a90046001600160a01b03166001600160a01b031663d10c06a26040518163ffffffff1660e01b8152600401602060405180830381600087803b15801561140757600080fd5b505af115801561141b573d6000803e3d6000fd5b505050506040513d601f19601f8201168201806040525081019061143f9190612a2f565b506067546001600160a01b03166342966c6861145b8484611912565b6040518263ffffffff1660e01b815260040161147791906132f9565b600060405180830381600087803b15801561149157600080fd5b505af11580156114a5573d6000803e3d6000fd5b5050606b54606c80546001818101835560008390527f2b4a51ab505fc96a0952efda2ba61bcd3078d4c02c39a186ec16f21883fbe01690910192909255546114ef93509150611912565b606b80546000908152606d602090815260408083209490945533808352606e8083528584208554815460018181018455838852868820909101919091559554928552606f84529584209252935490926115489190611912565b815260200190815260200160002081905550606b600081548092919061156d9061343c565b909155505082546001600160a01b0319163317835560018301899055875161159e90600285019060208b01906126b7565b5060016003840155600483018a905560058301879055600683018b9055600983018690556115cc8282611912565b600a909301929092555060019b9a5050505050505050505050565b6001600160a01b03166000908152606e602052604090205490565b607060205281600052604060002081815481106111a557600080fd5b607160209081526000928352604080842090915290825290205481565b60745481565b61164961191e565b6001600160a01b031661165a610ca8565b6001600160a01b0316146116805760405162461bcd60e51b81526004016105f790613111565b6001600160a01b0381166116a65760405162461bcd60e51b81526004016105f790612f62565b6116af8161217f565b50565b606b5481565b600054610100900460ff16806116d1575060005460ff16155b6116ed5760405162461bcd60e51b81526004016105f790613056565b600054610100900460ff16158015611718576000805460ff1961ff0019909116610100171660011790555b61172061226b565b606680546001600160a01b038088166001600160a01b03199283161790925560688054878416908316179055606780548684169083161790556127106073556069805492851692909116919091179055670de0b6b3a764000060745560326072558015611793576000805461ff00191690555b5050505050565b60006117a461191e565b6001600160a01b03166117b5610ca8565b6001600160a01b0316146117db5760405162461bcd60e51b81526004016105f790613111565b6040518061016001604052808d6001600160a01b031681526020018c81526020018b81526020018a815260200189815260200188815260200187815260200186815260200185815260200184815260200183815250606a60008f815260200190815260200160002060008201518160000160006101000a8154816001600160a01b0302191690836001600160a01b031602179055506020820151816001015560408201518160020190805190602001906118969291906126b7565b50606082015160038201556080820151600482015560a0820151600582015560c0820151600682015560e082015160078201556101008201516008820155610120820151600982015561014090910151600a909101555060019c9b505050505050505050505050565b600061190b8284613388565b9392505050565b600061190b82846133a7565b3390565b6000838152606a602052604081206004810154829081908190600114156119d95783600501548710156119d457600584015461195e9088611912565b9250611983670de0b6b3a7640000610e608660090154866118ff90919063ffffffff16565b91506119b4670de0b6b3a7640000610e60607354610e60607254610e5a8d8b600901546118ff90919063ffffffff16565b90506119c08183613350565b8610156119d457600094505050505061190b565b611a6b565b8360050154871115611a6b5760058401546119f5908890611912565b9250611a1a670de0b6b3a7640000610e608660090154866118ff90919063ffffffff16565b9150611a4b670de0b6b3a7640000610e60607354610e60607254610e5a8d8b600901546118ff90919063ffffffff16565b9050611a578183613350565b861015611a6b57600094505050505061190b565b506001979650505050505050565b86546000906001600160a01b0316611aa35760405162461bcd60e51b81526004016105f790612f0c565b6002886003015410611ac75760405162461bcd60e51b81526004016105f7906131c3565b6069546040516311cdc9d960e11b81526001600160a01b039091169063239b93b290611aff908c9087908a908a908990600401612ec0565b60206040518083038186803b158015611b1757600080fd5b505afa158015611b2b573d6000803e3d6000fd5b505050506040513d601f19601f82011682018060405250810190611b4f9190612a2f565b611b6b5760405162461bcd60e51b81526004016105f790612fa8565b6007880183905560098801546073546072546000928392839288918491611ba791670de0b6b3a764000091610e6091908290610e5a888a6118ff565b90508d6004015460011415611e8d578d600501548e600701541115611d255760058e015460078f0154611bd991611912565b9550611bf1670de0b6b3a7640000610e6088866118ff565b600a8f0154909550611c0390866121dd565b6067546068546040516340c10f1960e01b81529296506001600160a01b03918216926340c10f1992611c3b9216908590600401612e58565b602060405180830381600087803b158015611c5557600080fd5b505af1158015611c69573d6000803e3d6000fd5b505050506040513d601f19601f82011682018060405250810190611c8d9190612a2f565b506067548e546001600160a01b03918216916340c10f199116611cb08785611912565b6040518363ffffffff1660e01b8152600401611ccd929190612e58565b602060405180830381600087803b158015611ce757600080fd5b505af1158015611cfb573d6000803e3d6000fd5b505050506040513d601f19601f82011682018060405250810190611d1f9190612a2f565b50611e88565b60078e015460058f0154611d3891611912565b9550611d4486846118ff565b94508d600a0154851115611d5b5760009350611e88565b600a8e0154611d6a9086611912565b6067546068546040516340c10f1960e01b81529296506001600160a01b03918216926340c10f1992611da29216908590600401612e58565b602060405180830381600087803b158015611dbc57600080fd5b505af1158015611dd0573d6000803e3d6000fd5b505050506040513d601f19601f82011682018060405250810190611df49190612a2f565b506067548e546001600160a01b03918216916340c10f199116611e178785611912565b6040518363ffffffff1660e01b8152600401611e34929190612e58565b602060405180830381600087803b158015611e4e57600080fd5b505af1158015611e62573d6000803e3d6000fd5b505050506040513d601f19601f82011682018060405250810190611e869190612a2f565b505b612049565b8d600501548e600701541015611eda5760078e015460058f0154611eb091611912565b9550611ec8670de0b6b3a7640000610e6088866118ff565b600a8f0154909550611d6a90866121dd565b60058e015460078f0154611eed91611912565b9550611f05670de0b6b3a7640000610e6088866118ff565b94508d600a0154851115611f1c5760009350612049565b600a8e0154611f2b9086611912565b6067546068546040516340c10f1960e01b81529296506001600160a01b03918216926340c10f1992611f639216908590600401612e58565b602060405180830381600087803b158015611f7d57600080fd5b505af1158015611f91573d6000803e3d6000fd5b505050506040513d601f19601f82011682018060405250810190611fb59190612a2f565b506067548e546001600160a01b03918216916340c10f199116611fd88785611912565b6040518363ffffffff1660e01b8152600401611ff5929190612e58565b602060405180830381600087803b15801561200f57600080fd5b505af1158015612023573d6000803e3d6000fd5b505050506040513d601f19601f820116820180604052508101906120479190612a2f565b505b606860009054906101000a90046001600160a01b03166001600160a01b031663d10c06a26040518163ffffffff1660e01b8152600401602060405180830381600087803b15801561209957600080fd5b505af11580156120ad573d6000803e3d6000fd5b505050506040513d601f19601f820116820180604052508101906120d19190612a2f565b5060038e018d905560078e0189905560088e018b90556120f48c606d606c6122ef565b336000908152606f60209081526040808320606e909252909120612119918e916122ef565b336000818152607060209081526040822080546001818101835591845291909220018e905561214b916105a79061116e565b3360009081526071602090815260408083209f83529e90529c909c209b909b555060019d9c50505050505050505050505050565b603380546001600160a01b038381166001600160a01b0319831681179093556040519116919082907f8be0079c531659141344cd1fd0a4f28419497f9722a3daafe3b4186f6b6457e090600090a35050565b600061190b8284613368565b600061190b8284613350565b612241846323b872dd60e01b85858560405160240161220a93929190612e34565b60408051601f198184030181529190526020810180516001600160e01b03166001600160e01b0319909316929092179091526123cc565b50505050565b6122668363a9059cbb60e01b848460405160240161220a929190612e58565b505050565b600054610100900460ff1680612284575060005460ff16155b6122a05760405162461bcd60e51b81526004016105f790613056565b600054610100900460ff161580156122cb576000805460ff1961ff0019909116610100171660011790555b6122d361245b565b6122db6124ce565b80156116af576000805461ff001916905550565b60008381526020839052604081205482549091908390612310906001611912565b8154811061232e57634e487b7160e01b600052603260045260246000fd5b9060005260206000200154905081846000838152602001908152602001600020819055508083838154811061237357634e487b7160e01b600052603260045260246000fd5b600091825260208083209091019290925586815290859052604081205582548390806123af57634e487b7160e01b600052603160045260246000fd5b600190038181906000526020600020016000905590555050505050565b6000612421826040518060400160405280602081526020017f5361666545524332303a206c6f772d6c6576656c2063616c6c206661696c6564815250856001600160a01b031661253e9092919063ffffffff16565b805190915015612266578080602001905181019061243f9190612a2f565b6122665760405162461bcd60e51b81526004016105f7906131e6565b600054610100900460ff1680612474575060005460ff16155b6124905760405162461bcd60e51b81526004016105f790613056565b600054610100900460ff161580156122db576000805460ff1961ff00199091166101001716600117905580156116af576000805461ff001916905550565b600054610100900460ff16806124e7575060005460ff16155b6125035760405162461bcd60e51b81526004016105f790613056565b600054610100900460ff1615801561252e576000805460ff1961ff0019909116610100171660011790555b6122db61253961191e565b61217f565b606061254d8484600085612555565b949350505050565b6060824710156125775760405162461bcd60e51b81526004016105f790613010565b61258085612615565b61259c5760405162461bcd60e51b81526004016105f790613146565b600080866001600160a01b031685876040516125b89190612e04565b60006040518083038185875af1925050503d80600081146125f5576040519150601f19603f3d011682016040523d82523d6000602084013e6125fa565b606091505b509150915061260a82828661261b565b979650505050505050565b3b151590565b6060831561262a57508161190b565b82511561263a5782518084602001fd5b8160405162461bcd60e51b81526004016105f79190612ef9565b60405180610160016040528060006001600160a01b03168152602001600081526020016060815260200160008152602001600081526020016000815260200160008152602001600081526020016000815260200160008152602001600081525090565b8280546126c390613401565b90600052602060002090601f0160209004810192826126e5576000855561272b565b82601f106126fe57805160ff191683800117855561272b565b8280016001018555821561272b579182015b8281111561272b578251825591602001919060010190612710565b5061273792915061273b565b5090565b5b80821115612737576000815560010161273c565b8035610b2281613483565b600082601f83011261276b578081fd5b8135602061278061277b8361332c565b613302565b82815281810190858301855b858110156127b5576127a3898684358b010161287c565b8452928401929084019060010161278c565b5090979650505050505050565b600082601f8301126127d2578081fd5b813560206127e261277b8361332c565b82815281810190858301855b858110156127b557612805898684358b010161287c565b845292840192908401906001016127ee565b600082601f830112612827578081fd5b8135602061283761277b8361332c565b8281528181019085830183850287018401881015612853578586fd5b855b858110156127b557813584529284019290840190600101612855565b8035610b2281613498565b600082601f83011261288c578081fd5b813567ffffffffffffffff8111156128a6576128a661346d565b6128b9601f8201601f1916602001613302565b8181528460208386010111156128cd578283fd5b816020850160208301379081016020019190915292915050565b6000602082840312156128f8578081fd5b813561190b81613483565b60008060408385031215612915578081fd5b823561292081613483565b9150602083013561293081613498565b809150509250929050565b60008060008060808587031215612950578182fd5b843561295b81613483565b9350602085013561296b81613483565b9250604085013561297b81613483565b9150606085013561298b81613483565b939692955090935050565b600080604083850312156129a8578182fd5b82356129b381613483565b946020939093013593505050565b6000806000606084860312156129d5578283fd5b83356129e081613483565b95602085013595506040909401359392505050565b60008060008060808587031215612a0a578182fd5b8435612a1581613483565b966020860135965060408601359560600135945092505050565b600060208284031215612a40578081fd5b815161190b81613498565b60008060008060008060c08789031215612a63578384fd5b612a6c87612871565b9550602087013567ffffffffffffffff80821115612a88578586fd5b612a948a838b01612817565b96506040890135915080821115612aa9578586fd5b612ab58a838b01612817565b95506060890135915080821115612aca578384fd5b612ad68a838b016127c2565b94506080890135915080821115612aeb578384fd5b612af78a838b01612817565b935060a0890135915080821115612b0c578283fd5b50612b1989828a0161275b565b9150509295509295509295565b60008060008060008060c08789031215612b3e578384fd5b8635612b4981613498565b95506020870135945060408701359350606087013567ffffffffffffffff80821115612b73578384fd5b612b7f8a838b0161287c565b94506080890135935060a0890135915080821115612b9b578283fd5b50612b1989828a0161287c565b600080600080600080600060e0888a031215612bc2578485fd5b8735612bcd81613498565b96506020880135955060408801359450606088013567ffffffffffffffff80821115612bf7578283fd5b612c038b838c0161287c565b955060808a0135945060a08a0135915080821115612c1f578283fd5b50612c2c8a828b0161287c565b92505060c0880135905092959891949750929550565b60008060008060008060008060006101208a8c031215612c60578283fd5b8935612c6b81613498565b985060208a0135975060408a0135965060608a0135955060808a0135945060a08a013567ffffffffffffffff80821115612ca3578485fd5b612caf8d838e0161287c565b955060c08c0135945060e08c013593506101008c0135915080821115612cd3578283fd5b50612ce08c828d0161287c565b9150509295985092959850929598565b600060208284031215612d01578081fd5b5035919050565b600060208284031215612d19578081fd5b5051919050565b6000806000806000806000806000806000806101808d8f031215612d42578586fd5b8c359b50612d5260208e01612750565b9a5060408d0135995067ffffffffffffffff60608e01351115612d73578586fd5b612d838e60608f01358f0161287c565b9b9e9a9d50989b60808101359a60a08201359a5060c0820135995060e08201359850610100820135975061012082013596506101408201359550610160909101359350915050565b6001600160a01b03169052565b60008151808452612df08160208601602086016133be565b601f01601f19169290920160200192915050565b60008251612e168184602087016133be565b9190910192915050565b6001600160a01b0391909116815260200190565b6001600160a01b039384168152919092166020820152604081019190915260600190565b6001600160a01b03929092168252602082015260400190565b6020808252825182820181905260009190848201906040850190845b81811015612ea957835183529284019291840191600101612e8d565b50909695505050505050565b901515815260200190565b6000861515825285602083015284604083015260a06060830152612ee760a0830185612dd8565b8281036080840152610bd58185612dd8565b60006020825261190b6020830184612dd8565b6020808252601490820152731bdc99195c88191bd95cc81b9bdd08195e1a5cdd60621b604082015260600190565b6020808252600e908201526d1b585c99da5b881b9bc819dbdbd960921b604082015260600190565b60208082526026908201527f4f776e61626c653a206e6577206f776e657220697320746865207a65726f206160408201526564647265737360d01b606082015260800190565b6020808252600a908201526937b930b1b6329032b93960b11b604082015260600190565b60208082526024908201527f6578656375746f723a2063616c6c6572206973206e6f742074686520657865636040820152633aba37b960e11b606082015260800190565b60208082526026908201527f416464726573733a20696e73756666696369656e742062616c616e636520666f6040820152651c8818d85b1b60d21b606082015260800190565b6020808252602e908201527f496e697469616c697a61626c653a20636f6e747261637420697320616c72656160408201526d191e481a5b9a5d1a585b1a5e995960921b606082015260800190565b60208082526023908201527f546865207472616e73616374696f6e20616d6f756e7420697320746f6f20736d604082015262185b1b60ea1b606082015260800190565b60208082526010908201526f155cd95c881a5cc818985b9adc9d5c1d60821b604082015260600190565b6020808252818101527f4f776e61626c653a2063616c6c6572206973206e6f7420746865206f776e6572604082015260600190565b6020808252601d908201527f416464726573733a2063616c6c20746f206e6f6e2d636f6e7472616374000000604082015260600190565b6020808252600a90820152693632b733ba341032b93960b11b604082015260600190565b6020808252600890820152673ab9b2b91032b93960c11b604082015260600190565b60208082526009908201526839ba30ba329032b93960b91b604082015260600190565b6020808252602a908201527f5361666545524332303a204552433230206f7065726174696f6e20646964206e6040820152691bdd081cdd58d8d9595960b21b606082015260800190565b6020808252600b908201526a185c9c881b9bc819dbdbd960aa1b604082015260600190565b600060208252613269602083018451612dcb565b60208301516040830152604083015161016080606085015261328f610180850183612dd8565b915060608501516080850152608085015160a085015260a085015160c085015260c085015160e085015260e0850151610100818187015280870151915050610120818187015280870151915050610140818187015280870151838701525050508091505092915050565b90815260200190565b60405181810167ffffffffffffffff811182821017156133245761332461346d565b604052919050565b600067ffffffffffffffff8211156133465761334661346d565b5060209081020190565b6000821982111561336357613363613457565b500190565b60008261338357634e487b7160e01b81526012600452602481fd5b500490565b60008160001904831182151516156133a2576133a2613457565b500290565b6000828210156133b9576133b9613457565b500390565b60005b838110156133d95781810151838201526020016133c1565b838111156122415750506000910152565b6000816133f9576133f9613457565b506000190190565b60028104600182168061341557607f821691505b6020821081141561343657634e487b7160e01b600052602260045260246000fd5b50919050565b600060001982141561345057613450613457565b5060010190565b634e487b7160e01b600052601160045260246000fd5b634e487b7160e01b600052604160045260246000fd5b6001600160a01b03811681146116af57600080fd5b80151581146116af57600080fdfea2646970667358221220f1744b096be2ecbaf9f79cdd0a778b1e0dcba4bd74ba21657e2e2c861bc3a5c064736f6c63430008000033",
					"opcodes": "PUSH1 0x80 PUSH1 0x40 MSTORE CALLVALUE DUP1 ISZERO PUSH2 0x10 JUMPI PUSH1 0x0 DUP1 REVERT JUMPDEST POP PUSH2 0x34DC DUP1 PUSH2 0x20 PUSH1 0x0 CODECOPY PUSH1 0x0 RETURN INVALID PUSH1 0x80 PUSH1 0x40 MSTORE CALLVALUE DUP1 ISZERO PUSH2 0x10 JUMPI PUSH1 0x0 DUP1 REVERT JUMPDEST POP PUSH1 0x4 CALLDATASIZE LT PUSH2 0x1FB JUMPI PUSH1 0x0 CALLDATALOAD PUSH1 0xE0 SHR DUP1 PUSH4 0x7DC0D1D0 GT PUSH2 0x11A JUMPI DUP1 PUSH4 0xDB4A5AA9 GT PUSH2 0xAD JUMPI DUP1 PUSH4 0xF14053AD GT PUSH2 0x7C JUMPI DUP1 PUSH4 0xF14053AD EQ PUSH2 0x408 JUMPI DUP1 PUSH4 0xF2FDE38B EQ PUSH2 0x410 JUMPI DUP1 PUSH4 0xF7AB69FD EQ PUSH2 0x423 JUMPI DUP1 PUSH4 0xF8C8765E EQ PUSH2 0x42B JUMPI DUP1 PUSH4 0xFC234D06 EQ PUSH2 0x43E JUMPI PUSH2 0x1FB JUMP JUMPDEST DUP1 PUSH4 0xDB4A5AA9 EQ PUSH2 0x3BC JUMPI DUP1 PUSH4 0xE4E95520 EQ PUSH2 0x3CF JUMPI DUP1 PUSH4 0xEC4C4F34 EQ PUSH2 0x3E2 JUMPI DUP1 PUSH4 0xF0C765E4 EQ PUSH2 0x3F5 JUMPI PUSH2 0x1FB JUMP JUMPDEST DUP1 PUSH4 0xA8ECB028 GT PUSH2 0xE9 JUMPI DUP1 PUSH4 0xA8ECB028 EQ PUSH2 0x37B JUMPI DUP1 PUSH4 0xAAF5EB68 EQ PUSH2 0x38E JUMPI DUP1 PUSH4 0xAECF77B1 EQ PUSH2 0x396 JUMPI DUP1 PUSH4 0xC2EC527D EQ PUSH2 0x3A9 JUMPI PUSH2 0x1FB JUMP JUMPDEST DUP1 PUSH4 0x7DC0D1D0 EQ PUSH2 0x350 JUMPI DUP1 PUSH4 0x7FD6F15C EQ PUSH2 0x358 JUMPI DUP1 PUSH4 0x8DA5CB5B EQ PUSH2 0x360 JUMPI DUP1 PUSH4 0xA0AD12E2 EQ PUSH2 0x368 JUMPI PUSH2 0x1FB JUMP JUMPDEST DUP1 PUSH4 0x48C7E528 GT PUSH2 0x192 JUMPI DUP1 PUSH4 0x6E812437 GT PUSH2 0x161 JUMPI DUP1 PUSH4 0x6E812437 EQ PUSH2 0x30F JUMPI DUP1 PUSH4 0x715018A6 EQ PUSH2 0x322 JUMPI DUP1 PUSH4 0x7BE3A1A1 EQ PUSH2 0x32A JUMPI DUP1 PUSH4 0x7CE3489B EQ PUSH2 0x33D JUMPI PUSH2 0x1FB JUMP JUMPDEST DUP1 PUSH4 0x48C7E528 EQ PUSH2 0x2B6 JUMPI DUP1 PUSH4 0x4B989CE3 EQ PUSH2 0x2C9 JUMPI DUP1 PUSH4 0x6AB34A4A EQ PUSH2 0x2DC JUMPI DUP1 PUSH4 0x6C19E783 EQ PUSH2 0x2FC JUMPI PUSH2 0x1FB JUMP JUMPDEST DUP1 PUSH4 0x1E64610C GT PUSH2 0x1CE JUMPI DUP1 PUSH4 0x1E64610C EQ PUSH2 0x27E JUMPI DUP1 PUSH4 0x238AC933 EQ PUSH2 0x293 JUMPI DUP1 PUSH4 0x3011D3D5 EQ PUSH2 0x29B JUMPI DUP1 PUSH4 0x43B1F3CB EQ PUSH2 0x2A3 JUMPI PUSH2 0x1FB JUMP JUMPDEST DUP1 PUSH4 0x80270A8 EQ PUSH2 0x200 JUMPI DUP1 PUSH4 0xF58D242 EQ PUSH2 0x229 JUMPI DUP1 PUSH4 0x1402573D EQ PUSH2 0x249 JUMPI DUP1 PUSH4 0x1E1BFF3F EQ PUSH2 0x25E JUMPI JUMPDEST PUSH1 0x0 DUP1 REVERT JUMPDEST PUSH2 0x213 PUSH2 0x20E CALLDATASIZE PUSH1 0x4 PUSH2 0x29F5 JUMP JUMPDEST PUSH2 0x451 JUMP JUMPDEST PUSH1 0x40 MLOAD PUSH2 0x220 SWAP2 SWAP1 PUSH2 0x2E71 JUMP JUMPDEST PUSH1 0x40 MLOAD DUP1 SWAP2 SUB SWAP1 RETURN JUMPDEST PUSH2 0x23C PUSH2 0x237 CALLDATASIZE PUSH1 0x4 PUSH2 0x2CF0 JUMP JUMPDEST PUSH2 0x715 JUMP JUMPDEST PUSH1 0x40 MLOAD PUSH2 0x220 SWAP2 SWAP1 PUSH2 0x32F9 JUMP JUMPDEST PUSH2 0x25C PUSH2 0x257 CALLDATASIZE PUSH1 0x4 PUSH2 0x29C1 JUMP JUMPDEST PUSH2 0x736 JUMP JUMPDEST STOP JUMPDEST PUSH2 0x271 PUSH2 0x26C CALLDATASIZE PUSH1 0x4 PUSH2 0x2903 JUMP JUMPDEST PUSH2 0x75C JUMP JUMPDEST PUSH1 0x40 MLOAD PUSH2 0x220 SWAP2 SWAP1 PUSH2 0x2EB5 JUMP JUMPDEST PUSH2 0x286 PUSH2 0x7CC JUMP JUMPDEST PUSH1 0x40 MLOAD PUSH2 0x220 SWAP2 SWAP1 PUSH2 0x2E20 JUMP JUMPDEST PUSH2 0x286 PUSH2 0x7DB JUMP JUMPDEST PUSH2 0x286 PUSH2 0x7EA JUMP JUMPDEST PUSH2 0x23C PUSH2 0x2B1 CALLDATASIZE PUSH1 0x4 PUSH2 0x2CF0 JUMP JUMPDEST PUSH2 0x7F9 JUMP JUMPDEST PUSH2 0x271 PUSH2 0x2C4 CALLDATASIZE PUSH1 0x4 PUSH2 0x28E7 JUMP JUMPDEST PUSH2 0x80B JUMP JUMPDEST PUSH2 0x271 PUSH2 0x2D7 CALLDATASIZE PUSH1 0x4 PUSH2 0x2A4B JUMP JUMPDEST PUSH2 0x820 JUMP JUMPDEST PUSH2 0x2EF PUSH2 0x2EA CALLDATASIZE PUSH1 0x4 PUSH2 0x2CF0 JUMP JUMPDEST PUSH2 0x9FA JUMP JUMPDEST PUSH1 0x40 MLOAD PUSH2 0x220 SWAP2 SWAP1 PUSH2 0x3255 JUMP JUMPDEST PUSH2 0x271 PUSH2 0x30A CALLDATASIZE PUSH1 0x4 PUSH2 0x28E7 JUMP JUMPDEST PUSH2 0xB27 JUMP JUMPDEST PUSH2 0x271 PUSH2 0x31D CALLDATASIZE PUSH1 0x4 PUSH2 0x2B26 JUMP JUMPDEST PUSH2 0xB8D JUMP JUMPDEST PUSH2 0x25C PUSH2 0xBE1 JUMP JUMPDEST PUSH2 0x23C PUSH2 0x338 CALLDATASIZE PUSH1 0x4 PUSH2 0x2996 JUMP JUMPDEST PUSH2 0xC2C JUMP JUMPDEST PUSH2 0x271 PUSH2 0x34B CALLDATASIZE PUSH1 0x4 PUSH2 0x2CF0 JUMP JUMPDEST PUSH2 0xC49 JUMP JUMPDEST PUSH2 0x286 PUSH2 0xC93 JUMP JUMPDEST PUSH2 0x23C PUSH2 0xCA2 JUMP JUMPDEST PUSH2 0x286 PUSH2 0xCA8 JUMP JUMPDEST PUSH2 0x271 PUSH2 0x376 CALLDATASIZE PUSH1 0x4 PUSH2 0x2B26 JUMP JUMPDEST PUSH2 0xCB7 JUMP JUMPDEST PUSH2 0x271 PUSH2 0x389 CALLDATASIZE PUSH1 0x4 PUSH2 0x2BA8 JUMP JUMPDEST PUSH2 0xD05 JUMP JUMPDEST PUSH2 0x23C PUSH2 0x1168 JUMP JUMPDEST PUSH2 0x23C PUSH2 0x3A4 CALLDATASIZE PUSH1 0x4 PUSH2 0x28E7 JUMP JUMPDEST PUSH2 0x116E JUMP JUMPDEST PUSH2 0x23C PUSH2 0x3B7 CALLDATASIZE PUSH1 0x4 PUSH2 0x2996 JUMP JUMPDEST PUSH2 0x1189 JUMP JUMPDEST PUSH2 0x271 PUSH2 0x3CA CALLDATASIZE PUSH1 0x4 PUSH2 0x2C42 JUMP JUMPDEST PUSH2 0x11BA JUMP JUMPDEST PUSH2 0x23C PUSH2 0x3DD CALLDATASIZE PUSH1 0x4 PUSH2 0x28E7 JUMP JUMPDEST PUSH2 0x15E7 JUMP JUMPDEST PUSH2 0x23C PUSH2 0x3F0 CALLDATASIZE PUSH1 0x4 PUSH2 0x2996 JUMP JUMPDEST PUSH2 0x1602 JUMP JUMPDEST PUSH2 0x23C PUSH2 0x403 CALLDATASIZE PUSH1 0x4 PUSH2 0x2996 JUMP JUMPDEST PUSH2 0x161E JUMP JUMPDEST PUSH2 0x23C PUSH2 0x163B JUMP JUMPDEST PUSH2 0x25C PUSH2 0x41E CALLDATASIZE PUSH1 0x4 PUSH2 0x28E7 JUMP JUMPDEST PUSH2 0x1641 JUMP JUMPDEST PUSH2 0x23C PUSH2 0x16B2 JUMP JUMPDEST PUSH2 0x25C PUSH2 0x439 CALLDATASIZE PUSH1 0x4 PUSH2 0x293B JUMP JUMPDEST PUSH2 0x16B8 JUMP JUMPDEST PUSH2 0x271 PUSH2 0x44C CALLDATASIZE PUSH1 0x4 PUSH2 0x2D20 JUMP JUMPDEST PUSH2 0x179A JUMP JUMPDEST PUSH1 0x60 PUSH1 0x0 DUP1 DUP3 DUP7 PUSH2 0x4B4 JUMPI PUSH1 0x6C DUP1 SLOAD DUP1 PUSH1 0x20 MUL PUSH1 0x20 ADD PUSH1 0x40 MLOAD SWAP1 DUP2 ADD PUSH1 0x40 MSTORE DUP1 SWAP3 SWAP2 SWAP1 DUP2 DUP2 MSTORE PUSH1 0x20 ADD DUP3 DUP1 SLOAD DUP1 ISZERO PUSH2 0x4A8 JUMPI PUSH1 0x20 MUL DUP3 ADD SWAP2 SWAP1 PUSH1 0x0 MSTORE PUSH1 0x20 PUSH1 0x0 KECCAK256 SWAP1 JUMPDEST DUP2 SLOAD DUP2 MSTORE PUSH1 0x20 ADD SWAP1 PUSH1 0x1 ADD SWAP1 DUP1 DUP4 GT PUSH2 0x494 JUMPI JUMPDEST POP POP POP POP POP SWAP1 POP PUSH2 0x594 JUMP JUMPDEST DUP7 PUSH1 0x1 EQ ISZERO PUSH2 0x525 JUMPI PUSH1 0x1 PUSH1 0x1 PUSH1 0xA0 SHL SUB DUP9 AND PUSH1 0x0 SWAP1 DUP2 MSTORE PUSH1 0x6E PUSH1 0x20 SWAP1 DUP2 MSTORE PUSH1 0x40 SWAP2 DUP3 SWAP1 KECCAK256 DUP1 SLOAD DUP4 MLOAD DUP2 DUP5 MUL DUP2 ADD DUP5 ADD SWAP1 SWAP5 MSTORE DUP1 DUP5 MSTORE SWAP1 SWAP2 DUP4 ADD DUP3 DUP3 DUP1 ISZERO PUSH2 0x4A8 JUMPI PUSH1 0x20 MUL DUP3 ADD SWAP2 SWAP1 PUSH1 0x0 MSTORE PUSH1 0x20 PUSH1 0x0 KECCAK256 SWAP1 DUP2 SLOAD DUP2 MSTORE PUSH1 0x20 ADD SWAP1 PUSH1 0x1 ADD SWAP1 DUP1 DUP4 GT PUSH2 0x494 JUMPI POP POP POP POP POP SWAP1 POP PUSH2 0x594 JUMP JUMPDEST DUP7 PUSH1 0x2 EQ ISZERO PUSH2 0x594 JUMPI PUSH1 0x1 PUSH1 0x1 PUSH1 0xA0 SHL SUB DUP9 AND PUSH1 0x0 SWAP1 DUP2 MSTORE PUSH1 0x70 PUSH1 0x20 SWAP1 DUP2 MSTORE PUSH1 0x40 SWAP2 DUP3 SWAP1 KECCAK256 DUP1 SLOAD DUP4 MLOAD DUP2 DUP5 MUL DUP2 ADD DUP5 ADD SWAP1 SWAP5 MSTORE DUP1 DUP5 MSTORE SWAP1 SWAP2 DUP4 ADD DUP3 DUP3 DUP1 ISZERO PUSH2 0x58C JUMPI PUSH1 0x20 MUL DUP3 ADD SWAP2 SWAP1 PUSH1 0x0 MSTORE PUSH1 0x20 PUSH1 0x0 KECCAK256 SWAP1 JUMPDEST DUP2 SLOAD DUP2 MSTORE PUSH1 0x20 ADD SWAP1 PUSH1 0x1 ADD SWAP1 DUP1 DUP4 GT PUSH2 0x578 JUMPI JUMPDEST POP POP POP POP POP SWAP1 POP JUMPDEST PUSH1 0x0 PUSH2 0x5B5 PUSH2 0x5AD DUP9 PUSH2 0x5A7 DUP2 DUP11 PUSH2 0x18FF JUMP JUMPDEST SWAP1 PUSH2 0x1912 JUMP JUMPDEST DUP4 MLOAD SWAP1 PUSH2 0x1912 JUMP JUMPDEST SWAP1 POP DUP7 DUP2 LT PUSH2 0x5C6 JUMPI DUP7 SWAP3 POP PUSH2 0x5CA JUMP JUMPDEST DUP1 SWAP3 POP JUMPDEST DUP2 MLOAD PUSH2 0x5DA DUP9 PUSH2 0x5A7 DUP2 DUP11 PUSH2 0x18FF JUMP JUMPDEST LT PUSH2 0x600 JUMPI PUSH1 0x40 MLOAD PUSH3 0x461BCD PUSH1 0xE5 SHL DUP2 MSTORE PUSH1 0x4 ADD PUSH2 0x5F7 SWAP1 PUSH2 0x317D JUMP JUMPDEST PUSH1 0x40 MLOAD DUP1 SWAP2 SUB SWAP1 REVERT JUMPDEST DUP3 PUSH2 0x61D JUMPI PUSH1 0x40 MLOAD PUSH3 0x461BCD PUSH1 0xE5 SHL DUP2 MSTORE PUSH1 0x4 ADD PUSH2 0x5F7 SWAP1 PUSH2 0x3230 JUMP JUMPDEST PUSH1 0x0 DUP4 PUSH8 0xFFFFFFFFFFFFFFFF DUP2 GT ISZERO PUSH2 0x646 JUMPI PUSH4 0x4E487B71 PUSH1 0xE0 SHL PUSH1 0x0 MSTORE PUSH1 0x41 PUSH1 0x4 MSTORE PUSH1 0x24 PUSH1 0x0 REVERT JUMPDEST PUSH1 0x40 MLOAD SWAP1 DUP1 DUP3 MSTORE DUP1 PUSH1 0x20 MUL PUSH1 0x20 ADD DUP3 ADD PUSH1 0x40 MSTORE DUP1 ISZERO PUSH2 0x66F JUMPI DUP2 PUSH1 0x20 ADD PUSH1 0x20 DUP3 MUL DUP1 CALLDATASIZE DUP4 CALLDATACOPY ADD SWAP1 POP JUMPDEST POP SWAP1 POP PUSH1 0x0 PUSH2 0x67F DUP4 PUSH1 0x1 PUSH2 0x1912 JUMP JUMPDEST SWAP1 POP JUMPDEST DUP5 DUP7 LT ISZERO PUSH2 0x707 JUMPI DUP4 DUP2 DUP2 MLOAD DUP2 LT PUSH2 0x6AA JUMPI PUSH4 0x4E487B71 PUSH1 0xE0 SHL PUSH1 0x0 MSTORE PUSH1 0x32 PUSH1 0x4 MSTORE PUSH1 0x24 PUSH1 0x0 REVERT JUMPDEST PUSH1 0x20 MUL PUSH1 0x20 ADD ADD MLOAD DUP3 DUP8 DUP2 MLOAD DUP2 LT PUSH2 0x6D2 JUMPI PUSH4 0x4E487B71 PUSH1 0xE0 SHL PUSH1 0x0 MSTORE PUSH1 0x32 PUSH1 0x4 MSTORE PUSH1 0x24 PUSH1 0x0 REVERT JUMPDEST PUSH1 0x20 SWAP1 DUP2 MUL SWAP2 SWAP1 SWAP2 ADD ADD MSTORE DUP1 PUSH2 0x6E7 JUMPI PUSH2 0x707 JUMP JUMPDEST DUP6 PUSH2 0x6F1 DUP2 PUSH2 0x343C JUMP JUMPDEST SWAP7 POP POP DUP1 DUP1 PUSH2 0x6FF SWAP1 PUSH2 0x33EA JUMP JUMPDEST SWAP2 POP POP PUSH2 0x682 JUMP JUMPDEST POP SWAP10 SWAP9 POP POP POP POP POP POP POP POP POP JUMP JUMPDEST PUSH1 0x6C DUP2 DUP2 SLOAD DUP2 LT PUSH2 0x725 JUMPI PUSH1 0x0 DUP1 REVERT JUMPDEST PUSH1 0x0 SWAP2 DUP3 MSTORE PUSH1 0x20 SWAP1 SWAP2 KECCAK256 ADD SLOAD SWAP1 POP DUP2 JUMP JUMPDEST PUSH1 0x1 PUSH1 0x1 PUSH1 0xA0 SHL SUB SWAP1 SWAP3 AND PUSH1 0x0 SWAP1 DUP2 MSTORE PUSH1 0x6F PUSH1 0x20 SWAP1 DUP2 MSTORE PUSH1 0x40 DUP1 DUP4 KECCAK256 SWAP4 DUP4 MSTORE SWAP3 SWAP1 MSTORE KECCAK256 SSTORE JUMP JUMPDEST PUSH1 0x0 PUSH2 0x766 PUSH2 0x191E JUMP JUMPDEST PUSH1 0x1 PUSH1 0x1 PUSH1 0xA0 SHL SUB AND PUSH2 0x777 PUSH2 0xCA8 JUMP JUMPDEST PUSH1 0x1 PUSH1 0x1 PUSH1 0xA0 SHL SUB AND EQ PUSH2 0x79D JUMPI PUSH1 0x40 MLOAD PUSH3 0x461BCD PUSH1 0xE5 SHL DUP2 MSTORE PUSH1 0x4 ADD PUSH2 0x5F7 SWAP1 PUSH2 0x3111 JUMP JUMPDEST POP PUSH1 0x1 PUSH1 0x1 PUSH1 0xA0 SHL SUB DUP3 AND PUSH1 0x0 SWAP1 DUP2 MSTORE PUSH1 0x65 PUSH1 0x20 MSTORE PUSH1 0x40 SWAP1 KECCAK256 DUP1 SLOAD DUP3 ISZERO ISZERO PUSH1 0xFF NOT SWAP1 SWAP2 AND OR SWAP1 SSTORE PUSH1 0x1 SWAP3 SWAP2 POP POP JUMP JUMPDEST PUSH1 0x68 SLOAD PUSH1 0x1 PUSH1 0x1 PUSH1 0xA0 SHL SUB AND DUP2 JUMP JUMPDEST PUSH1 0x66 SLOAD PUSH1 0x1 PUSH1 0x1 PUSH1 0xA0 SHL SUB AND DUP2 JUMP JUMPDEST PUSH1 0x67 SLOAD PUSH1 0x1 PUSH1 0x1 PUSH1 0xA0 SHL SUB AND DUP2 JUMP JUMPDEST PUSH1 0x6D PUSH1 0x20 MSTORE PUSH1 0x0 SWAP1 DUP2 MSTORE PUSH1 0x40 SWAP1 KECCAK256 SLOAD DUP2 JUMP JUMPDEST PUSH1 0x65 PUSH1 0x20 MSTORE PUSH1 0x0 SWAP1 DUP2 MSTORE PUSH1 0x40 SWAP1 KECCAK256 SLOAD PUSH1 0xFF AND DUP2 JUMP JUMPDEST CALLER PUSH1 0x0 SWAP1 DUP2 MSTORE PUSH1 0x65 PUSH1 0x20 MSTORE PUSH1 0x40 DUP2 KECCAK256 SLOAD PUSH1 0xFF AND PUSH2 0x84F JUMPI PUSH1 0x40 MLOAD PUSH3 0x461BCD PUSH1 0xE5 SHL DUP2 MSTORE PUSH1 0x4 ADD PUSH2 0x5F7 SWAP1 PUSH2 0x2FCC JUMP JUMPDEST PUSH1 0x0 JUMPDEST DUP7 MLOAD DUP2 LT ISZERO PUSH2 0x9EA JUMPI PUSH1 0x0 PUSH1 0x6A PUSH1 0x0 DUP10 DUP5 DUP2 MLOAD DUP2 LT PUSH2 0x881 JUMPI PUSH4 0x4E487B71 PUSH1 0xE0 SHL PUSH1 0x0 MSTORE PUSH1 0x32 PUSH1 0x4 MSTORE PUSH1 0x24 PUSH1 0x0 REVERT JUMPDEST PUSH1 0x20 MUL PUSH1 0x20 ADD ADD MLOAD DUP2 MSTORE PUSH1 0x20 ADD SWAP1 DUP2 MSTORE PUSH1 0x20 ADD PUSH1 0x0 KECCAK256 SWAP1 POP PUSH2 0x8F6 DUP9 DUP4 DUP2 MLOAD DUP2 LT PUSH2 0x8BC JUMPI PUSH4 0x4E487B71 PUSH1 0xE0 SHL PUSH1 0x0 MSTORE PUSH1 0x32 PUSH1 0x4 MSTORE PUSH1 0x24 PUSH1 0x0 REVERT JUMPDEST PUSH1 0x20 MUL PUSH1 0x20 ADD ADD MLOAD DUP7 DUP5 DUP2 MLOAD DUP2 LT PUSH2 0x8E4 JUMPI PUSH4 0x4E487B71 PUSH1 0xE0 SHL PUSH1 0x0 MSTORE PUSH1 0x32 PUSH1 0x4 MSTORE PUSH1 0x24 PUSH1 0x0 REVERT JUMPDEST PUSH1 0x20 MUL PUSH1 0x20 ADD ADD MLOAD DUP4 PUSH1 0xA ADD SLOAD PUSH2 0x1922 JUMP JUMPDEST PUSH2 0x9D7 JUMPI PUSH2 0x9CE DUP10 DUP3 PUSH1 0x3 DUP12 DUP7 DUP2 MLOAD DUP2 LT PUSH2 0x921 JUMPI PUSH4 0x4E487B71 PUSH1 0xE0 SHL PUSH1 0x0 MSTORE PUSH1 0x32 PUSH1 0x4 MSTORE PUSH1 0x24 PUSH1 0x0 REVERT JUMPDEST PUSH1 0x20 MUL PUSH1 0x20 ADD ADD MLOAD DUP12 DUP8 DUP2 MLOAD DUP2 LT PUSH2 0x949 JUMPI PUSH4 0x4E487B71 PUSH1 0xE0 SHL PUSH1 0x0 MSTORE PUSH1 0x32 PUSH1 0x4 MSTORE PUSH1 0x24 PUSH1 0x0 REVERT JUMPDEST PUSH1 0x20 MUL PUSH1 0x20 ADD ADD MLOAD DUP12 DUP9 DUP2 MLOAD DUP2 LT PUSH2 0x971 JUMPI PUSH4 0x4E487B71 PUSH1 0xE0 SHL PUSH1 0x0 MSTORE PUSH1 0x32 PUSH1 0x4 MSTORE PUSH1 0x24 PUSH1 0x0 REVERT JUMPDEST PUSH1 0x20 MUL PUSH1 0x20 ADD ADD MLOAD DUP12 DUP10 DUP2 MLOAD DUP2 LT PUSH2 0x999 JUMPI PUSH4 0x4E487B71 PUSH1 0xE0 SHL PUSH1 0x0 MSTORE PUSH1 0x32 PUSH1 0x4 MSTORE PUSH1 0x24 PUSH1 0x0 REVERT JUMPDEST PUSH1 0x20 MUL PUSH1 0x20 ADD ADD MLOAD DUP12 DUP11 DUP2 MLOAD DUP2 LT PUSH2 0x9C1 JUMPI PUSH4 0x4E487B71 PUSH1 0xE0 SHL PUSH1 0x0 MSTORE PUSH1 0x32 PUSH1 0x4 MSTORE PUSH1 0x24 PUSH1 0x0 REVERT JUMPDEST PUSH1 0x20 MUL PUSH1 0x20 ADD ADD MLOAD PUSH2 0x1A79 JUMP JUMPDEST SWAP3 POP POP POP PUSH2 0x9F0 JUMP JUMPDEST POP DUP1 PUSH2 0x9E2 DUP2 PUSH2 0x343C JUMP JUMPDEST SWAP2 POP POP PUSH2 0x852 JUMP JUMPDEST POP PUSH1 0x1 SWAP1 POP JUMPDEST SWAP7 SWAP6 POP POP POP POP POP POP JUMP JUMPDEST PUSH2 0xA02 PUSH2 0x2654 JUMP JUMPDEST PUSH1 0x0 DUP3 DUP2 MSTORE PUSH1 0x6A PUSH1 0x20 SWAP1 DUP2 MSTORE PUSH1 0x40 SWAP2 DUP3 SWAP1 KECCAK256 DUP3 MLOAD PUSH2 0x160 DUP2 ADD DUP5 MSTORE DUP2 SLOAD PUSH1 0x1 PUSH1 0x1 PUSH1 0xA0 SHL SUB AND DUP2 MSTORE PUSH1 0x1 DUP3 ADD SLOAD SWAP3 DUP2 ADD SWAP3 SWAP1 SWAP3 MSTORE PUSH1 0x2 DUP2 ADD DUP1 SLOAD SWAP3 SWAP4 SWAP2 SWAP3 SWAP2 DUP5 ADD SWAP2 PUSH2 0xA4D SWAP1 PUSH2 0x3401 JUMP JUMPDEST DUP1 PUSH1 0x1F ADD PUSH1 0x20 DUP1 SWAP2 DIV MUL PUSH1 0x20 ADD PUSH1 0x40 MLOAD SWAP1 DUP2 ADD PUSH1 0x40 MSTORE DUP1 SWAP3 SWAP2 SWAP1 DUP2 DUP2 MSTORE PUSH1 0x20 ADD DUP3 DUP1 SLOAD PUSH2 0xA79 SWAP1 PUSH2 0x3401 JUMP JUMPDEST DUP1 ISZERO PUSH2 0xAC6 JUMPI DUP1 PUSH1 0x1F LT PUSH2 0xA9B JUMPI PUSH2 0x100 DUP1 DUP4 SLOAD DIV MUL DUP4 MSTORE SWAP2 PUSH1 0x20 ADD SWAP2 PUSH2 0xAC6 JUMP JUMPDEST DUP3 ADD SWAP2 SWAP1 PUSH1 0x0 MSTORE PUSH1 0x20 PUSH1 0x0 KECCAK256 SWAP1 JUMPDEST DUP2 SLOAD DUP2 MSTORE SWAP1 PUSH1 0x1 ADD SWAP1 PUSH1 0x20 ADD DUP1 DUP4 GT PUSH2 0xAA9 JUMPI DUP3 SWAP1 SUB PUSH1 0x1F AND DUP3 ADD SWAP2 JUMPDEST POP POP POP POP POP DUP2 MSTORE PUSH1 0x20 ADD PUSH1 0x3 DUP3 ADD SLOAD DUP2 MSTORE PUSH1 0x20 ADD PUSH1 0x4 DUP3 ADD SLOAD DUP2 MSTORE PUSH1 0x20 ADD PUSH1 0x5 DUP3 ADD SLOAD DUP2 MSTORE PUSH1 0x20 ADD PUSH1 0x6 DUP3 ADD SLOAD DUP2 MSTORE PUSH1 0x20 ADD PUSH1 0x7 DUP3 ADD SLOAD DUP2 MSTORE PUSH1 0x20 ADD PUSH1 0x8 DUP3 ADD SLOAD DUP2 MSTORE PUSH1 0x20 ADD PUSH1 0x9 DUP3 ADD SLOAD DUP2 MSTORE PUSH1 0x20 ADD PUSH1 0xA DUP3 ADD SLOAD DUP2 MSTORE POP POP SWAP1 POP JUMPDEST SWAP2 SWAP1 POP JUMP JUMPDEST PUSH1 0x0 PUSH2 0xB31 PUSH2 0x191E JUMP JUMPDEST PUSH1 0x1 PUSH1 0x1 PUSH1 0xA0 SHL SUB AND PUSH2 0xB42 PUSH2 0xCA8 JUMP JUMPDEST PUSH1 0x1 PUSH1 0x1 PUSH1 0xA0 SHL SUB AND EQ PUSH2 0xB68 JUMPI PUSH1 0x40 MLOAD PUSH3 0x461BCD PUSH1 0xE5 SHL DUP2 MSTORE PUSH1 0x4 ADD PUSH2 0x5F7 SWAP1 PUSH2 0x3111 JUMP JUMPDEST POP PUSH1 0x66 DUP1 SLOAD PUSH1 0x1 PUSH1 0x1 PUSH1 0xA0 SHL SUB DUP4 AND PUSH1 0x1 PUSH1 0x1 PUSH1 0xA0 SHL SUB NOT SWAP1 SWAP2 AND OR SWAP1 SSTORE PUSH1 0x1 SWAP2 SWAP1 POP JUMP JUMPDEST PUSH1 0x0 DUP6 DUP2 MSTORE PUSH1 0x6A PUSH1 0x20 MSTORE PUSH1 0x40 DUP2 KECCAK256 DUP1 SLOAD PUSH1 0x1 PUSH1 0x1 PUSH1 0xA0 SHL SUB AND CALLER EQ PUSH2 0xBC4 JUMPI PUSH1 0x40 MLOAD PUSH3 0x461BCD PUSH1 0xE5 SHL DUP2 MSTORE PUSH1 0x4 ADD PUSH2 0x5F7 SWAP1 PUSH2 0x31A1 JUMP JUMPDEST PUSH2 0xBD5 DUP9 DUP3 PUSH1 0x2 DUP11 DUP11 DUP11 DUP11 DUP11 PUSH2 0x1A79 JUMP JUMPDEST SWAP9 SWAP8 POP POP POP POP POP POP POP POP JUMP JUMPDEST PUSH2 0xBE9 PUSH2 0x191E JUMP JUMPDEST PUSH1 0x1 PUSH1 0x1 PUSH1 0xA0 SHL SUB AND PUSH2 0xBFA PUSH2 0xCA8 JUMP JUMPDEST PUSH1 0x1 PUSH1 0x1 PUSH1 0xA0 SHL SUB AND EQ PUSH2 0xC20 JUMPI PUSH1 0x40 MLOAD PUSH3 0x461BCD PUSH1 0xE5 SHL DUP2 MSTORE PUSH1 0x4 ADD PUSH2 0x5F7 SWAP1 PUSH2 0x3111 JUMP JUMPDEST PUSH2 0xC2A PUSH1 0x0 PUSH2 0x217F JUMP JUMPDEST JUMP JUMPDEST PUSH1 0x6F PUSH1 0x20 SWAP1 DUP2 MSTORE PUSH1 0x0 SWAP3 DUP4 MSTORE PUSH1 0x40 DUP1 DUP5 KECCAK256 SWAP1 SWAP2 MSTORE SWAP1 DUP3 MSTORE SWAP1 KECCAK256 SLOAD DUP2 JUMP JUMPDEST PUSH1 0x0 PUSH2 0xC53 PUSH2 0x191E JUMP JUMPDEST PUSH1 0x1 PUSH1 0x1 PUSH1 0xA0 SHL SUB AND PUSH2 0xC64 PUSH2 0xCA8 JUMP JUMPDEST PUSH1 0x1 PUSH1 0x1 PUSH1 0xA0 SHL SUB AND EQ PUSH2 0xC8A JUMPI PUSH1 0x40 MLOAD PUSH3 0x461BCD PUSH1 0xE5 SHL DUP2 MSTORE PUSH1 0x4 ADD PUSH2 0x5F7 SWAP1 PUSH2 0x3111 JUMP JUMPDEST POP PUSH1 0x72 SSTORE PUSH1 0x1 SWAP1 JUMP JUMPDEST PUSH1 0x69 SLOAD PUSH1 0x1 PUSH1 0x1 PUSH1 0xA0 SHL SUB AND DUP2 JUMP JUMPDEST PUSH1 0x72 SLOAD DUP2 JUMP JUMPDEST PUSH1 0x33 SLOAD PUSH1 0x1 PUSH1 0x1 PUSH1 0xA0 SHL SUB AND SWAP1 JUMP JUMPDEST CALLER PUSH1 0x0 SWAP1 DUP2 MSTORE PUSH1 0x65 PUSH1 0x20 MSTORE PUSH1 0x40 DUP2 KECCAK256 SLOAD PUSH1 0xFF AND PUSH2 0xCE6 JUMPI PUSH1 0x40 MLOAD PUSH3 0x461BCD PUSH1 0xE5 SHL DUP2 MSTORE PUSH1 0x4 ADD PUSH2 0x5F7 SWAP1 PUSH2 0x2FCC JUMP JUMPDEST PUSH1 0x0 DUP7 DUP2 MSTORE PUSH1 0x6A PUSH1 0x20 MSTORE PUSH1 0x40 SWAP1 KECCAK256 PUSH2 0xBD5 DUP9 DUP3 PUSH1 0x4 DUP11 DUP11 DUP11 DUP11 DUP11 PUSH2 0x1A79 JUMP JUMPDEST PUSH1 0x0 DUP7 DUP2 MSTORE PUSH1 0x6A PUSH1 0x20 MSTORE PUSH1 0x40 DUP2 KECCAK256 DUP1 SLOAD PUSH1 0x1 PUSH1 0x1 PUSH1 0xA0 SHL SUB AND PUSH2 0xD3A JUMPI PUSH1 0x40 MLOAD PUSH3 0x461BCD PUSH1 0xE5 SHL DUP2 MSTORE PUSH1 0x4 ADD PUSH2 0x5F7 SWAP1 PUSH2 0x2F0C JUMP JUMPDEST PUSH1 0x2 DUP2 PUSH1 0x3 ADD SLOAD LT PUSH2 0xD5E JUMPI PUSH1 0x40 MLOAD PUSH3 0x461BCD PUSH1 0xE5 SHL DUP2 MSTORE PUSH1 0x4 ADD PUSH2 0x5F7 SWAP1 PUSH2 0x31C3 JUMP JUMPDEST PUSH1 0x69 SLOAD PUSH1 0x40 MLOAD PUSH4 0x11CDC9D9 PUSH1 0xE1 SHL DUP2 MSTORE PUSH1 0x1 PUSH1 0x1 PUSH1 0xA0 SHL SUB SWAP1 SWAP2 AND SWAP1 PUSH4 0x239B93B2 SWAP1 PUSH2 0xD96 SWAP1 DUP13 SWAP1 DUP10 SWAP1 DUP13 SWAP1 DUP13 SWAP1 DUP12 SWAP1 PUSH1 0x4 ADD PUSH2 0x2EC0 JUMP JUMPDEST PUSH1 0x20 PUSH1 0x40 MLOAD DUP1 DUP4 SUB DUP2 DUP7 DUP1 EXTCODESIZE ISZERO DUP1 ISZERO PUSH2 0xDAE JUMPI PUSH1 0x0 DUP1 REVERT JUMPDEST POP GAS STATICCALL ISZERO DUP1 ISZERO PUSH2 0xDC2 JUMPI RETURNDATASIZE PUSH1 0x0 DUP1 RETURNDATACOPY RETURNDATASIZE PUSH1 0x0 REVERT JUMPDEST POP POP POP POP PUSH1 0x40 MLOAD RETURNDATASIZE PUSH1 0x1F NOT PUSH1 0x1F DUP3 ADD AND DUP3 ADD DUP1 PUSH1 0x40 MSTORE POP DUP2 ADD SWAP1 PUSH2 0xDE6 SWAP2 SWAP1 PUSH2 0x2A2F JUMP JUMPDEST PUSH2 0xE02 JUMPI PUSH1 0x40 MLOAD PUSH3 0x461BCD PUSH1 0xE5 SHL DUP2 MSTORE PUSH1 0x4 ADD PUSH2 0x5F7 SWAP1 PUSH2 0x2FA8 JUMP JUMPDEST PUSH2 0xE0D DUP9 DUP7 DUP6 PUSH2 0x1922 JUMP JUMPDEST PUSH2 0xE29 JUMPI PUSH1 0x40 MLOAD PUSH3 0x461BCD PUSH1 0xE5 SHL DUP2 MSTORE PUSH1 0x4 ADD PUSH2 0x5F7 SWAP1 PUSH2 0x30E7 JUMP JUMPDEST PUSH1 0x0 PUSH2 0xE66 PUSH8 0xDE0B6B3A7640000 PUSH2 0xE60 PUSH1 0x73 SLOAD PUSH2 0xE60 PUSH1 0x72 SLOAD PUSH2 0xE5A DUP13 DUP10 PUSH1 0x9 ADD SLOAD PUSH2 0x18FF SWAP1 SWAP2 SWAP1 PUSH4 0xFFFFFFFF AND JUMP JUMPDEST SWAP1 PUSH2 0x18FF JUMP JUMPDEST SWAP1 PUSH2 0x21D1 JUMP JUMPDEST SWAP1 POP PUSH1 0x0 PUSH2 0xEB7 PUSH2 0xE94 PUSH8 0xDE0B6B3A7640000 PUSH2 0xE60 DUP7 PUSH1 0x9 ADD SLOAD DUP8 PUSH1 0x5 ADD SLOAD PUSH2 0x18FF SWAP1 SWAP2 SWAP1 PUSH4 0xFFFFFFFF AND JUMP JUMPDEST PUSH2 0x5A7 PUSH8 0xDE0B6B3A7640000 PUSH2 0xE60 DUP8 PUSH1 0x9 ADD SLOAD DUP13 PUSH2 0x18FF SWAP1 SWAP2 SWAP1 PUSH4 0xFFFFFFFF AND JUMP JUMPDEST SWAP1 POP PUSH1 0x0 PUSH2 0xED2 DUP3 DUP6 PUSH1 0xA ADD SLOAD PUSH2 0x21DD SWAP1 SWAP2 SWAP1 PUSH4 0xFFFFFFFF AND JUMP JUMPDEST SWAP1 POP PUSH1 0x0 DUP2 PUSH2 0xEE1 DUP9 DUP7 PUSH2 0x1912 JUMP JUMPDEST GT ISZERO PUSH2 0xF77 JUMPI PUSH2 0xEF5 DUP3 PUSH2 0x5A7 DUP10 DUP8 PUSH2 0x1912 JUMP JUMPDEST PUSH1 0x67 SLOAD SWAP1 SWAP2 POP PUSH2 0xF10 SWAP1 PUSH1 0x1 PUSH1 0x1 PUSH1 0xA0 SHL SUB AND CALLER ADDRESS DUP5 PUSH2 0x21E9 JUMP JUMPDEST PUSH1 0x67 SLOAD PUSH1 0x40 MLOAD PUSH4 0x852CD8D PUSH1 0xE3 SHL DUP2 MSTORE PUSH1 0x1 PUSH1 0x1 PUSH1 0xA0 SHL SUB SWAP1 SWAP2 AND SWAP1 PUSH4 0x42966C68 SWAP1 PUSH2 0xF40 SWAP1 DUP5 SWAP1 PUSH1 0x4 ADD PUSH2 0x32F9 JUMP JUMPDEST PUSH1 0x0 PUSH1 0x40 MLOAD DUP1 DUP4 SUB DUP2 PUSH1 0x0 DUP8 DUP1 EXTCODESIZE ISZERO DUP1 ISZERO PUSH2 0xF5A JUMPI PUSH1 0x0 DUP1 REVERT JUMPDEST POP GAS CALL ISZERO DUP1 ISZERO PUSH2 0xF6E JUMPI RETURNDATASIZE PUSH1 0x0 DUP1 RETURNDATACOPY RETURNDATASIZE PUSH1 0x0 REVERT JUMPDEST POP POP POP POP PUSH2 0x1016 JUMP JUMPDEST PUSH2 0xF8B PUSH2 0xF84 DUP9 DUP7 PUSH2 0x1912 JUMP JUMPDEST DUP4 SWAP1 PUSH2 0x1912 JUMP JUMPDEST PUSH1 0x67 SLOAD DUP7 SLOAD PUSH1 0x40 MLOAD PUSH4 0x40C10F19 PUSH1 0xE0 SHL DUP2 MSTORE SWAP3 SWAP4 POP PUSH1 0x1 PUSH1 0x1 PUSH1 0xA0 SHL SUB SWAP2 DUP3 AND SWAP3 PUSH4 0x40C10F19 SWAP3 PUSH2 0xFC2 SWAP3 AND SWAP1 DUP6 SWAP1 PUSH1 0x4 ADD PUSH2 0x2E58 JUMP JUMPDEST PUSH1 0x20 PUSH1 0x40 MLOAD DUP1 DUP4 SUB DUP2 PUSH1 0x0 DUP8 DUP1 EXTCODESIZE ISZERO DUP1 ISZERO PUSH2 0xFDC JUMPI PUSH1 0x0 DUP1 REVERT JUMPDEST POP GAS CALL ISZERO DUP1 ISZERO PUSH2 0xFF0 JUMPI RETURNDATASIZE PUSH1 0x0 DUP1 RETURNDATACOPY RETURNDATASIZE PUSH1 0x0 REVERT JUMPDEST POP POP POP POP PUSH1 0x40 MLOAD RETURNDATASIZE PUSH1 0x1F NOT PUSH1 0x1F DUP3 ADD AND DUP3 ADD DUP1 PUSH1 0x40 MSTORE POP DUP2 ADD SWAP1 PUSH2 0x1014 SWAP2 SWAP1 PUSH2 0x2A2F JUMP JUMPDEST POP JUMPDEST PUSH1 0x67 SLOAD PUSH1 0x40 MLOAD PUSH4 0x40C10F19 PUSH1 0xE0 SHL DUP2 MSTORE PUSH1 0x1 PUSH1 0x1 PUSH1 0xA0 SHL SUB SWAP1 SWAP2 AND SWAP1 PUSH4 0x40C10F19 SWAP1 PUSH2 0x1048 SWAP1 ADDRESS SWAP1 DUP9 SWAP1 PUSH1 0x4 ADD PUSH2 0x2E58 JUMP JUMPDEST PUSH1 0x20 PUSH1 0x40 MLOAD DUP1 DUP4 SUB DUP2 PUSH1 0x0 DUP8 DUP1 EXTCODESIZE ISZERO DUP1 ISZERO PUSH2 0x1062 JUMPI PUSH1 0x0 DUP1 REVERT JUMPDEST POP GAS CALL ISZERO DUP1 ISZERO PUSH2 0x1076 JUMPI RETURNDATASIZE PUSH1 0x0 DUP1 RETURNDATACOPY RETURNDATASIZE PUSH1 0x0 REVERT JUMPDEST POP POP POP POP PUSH1 0x40 MLOAD RETURNDATASIZE PUSH1 0x1F NOT PUSH1 0x1F DUP3 ADD AND DUP3 ADD DUP1 PUSH1 0x40 MSTORE POP DUP2 ADD SWAP1 PUSH2 0x109A SWAP2 SWAP1 PUSH2 0x2A2F JUMP JUMPDEST POP PUSH1 0x68 SLOAD PUSH1 0x67 SLOAD PUSH2 0x10B8 SWAP2 PUSH1 0x1 PUSH1 0x1 PUSH1 0xA0 SHL SUB SWAP2 DUP3 AND SWAP2 AND DUP7 PUSH2 0x2247 JUMP JUMPDEST PUSH1 0x68 PUSH1 0x0 SWAP1 SLOAD SWAP1 PUSH2 0x100 EXP SWAP1 DIV PUSH1 0x1 PUSH1 0x1 PUSH1 0xA0 SHL SUB AND PUSH1 0x1 PUSH1 0x1 PUSH1 0xA0 SHL SUB AND PUSH4 0xD10C06A2 PUSH1 0x40 MLOAD DUP2 PUSH4 0xFFFFFFFF AND PUSH1 0xE0 SHL DUP2 MSTORE PUSH1 0x4 ADD PUSH1 0x20 PUSH1 0x40 MLOAD DUP1 DUP4 SUB DUP2 PUSH1 0x0 DUP8 DUP1 EXTCODESIZE ISZERO DUP1 ISZERO PUSH2 0x1108 JUMPI PUSH1 0x0 DUP1 REVERT JUMPDEST POP GAS CALL ISZERO DUP1 ISZERO PUSH2 0x111C JUMPI RETURNDATASIZE PUSH1 0x0 DUP1 RETURNDATACOPY RETURNDATASIZE PUSH1 0x0 REVERT JUMPDEST POP POP POP POP PUSH1 0x40 MLOAD RETURNDATASIZE PUSH1 0x1F NOT PUSH1 0x1F DUP3 ADD AND DUP3 ADD DUP1 PUSH1 0x40 MSTORE POP DUP2 ADD SWAP1 PUSH2 0x1140 SWAP2 SWAP1 PUSH2 0x2A2F JUMP JUMPDEST POP PUSH2 0x114B DUP8 DUP6 PUSH2 0x1912 JUMP JUMPDEST PUSH1 0xA DUP7 ADD SSTORE POP POP POP POP PUSH1 0x5 ADD DUP5 SWAP1 SSTORE POP PUSH1 0x1 SWAP8 SWAP7 POP POP POP POP POP POP POP JUMP JUMPDEST PUSH1 0x73 SLOAD DUP2 JUMP JUMPDEST PUSH1 0x1 PUSH1 0x1 PUSH1 0xA0 SHL SUB AND PUSH1 0x0 SWAP1 DUP2 MSTORE PUSH1 0x70 PUSH1 0x20 MSTORE PUSH1 0x40 SWAP1 KECCAK256 SLOAD SWAP1 JUMP JUMPDEST PUSH1 0x6E PUSH1 0x20 MSTORE DUP2 PUSH1 0x0 MSTORE PUSH1 0x40 PUSH1 0x0 KECCAK256 DUP2 DUP2 SLOAD DUP2 LT PUSH2 0x11A5 JUMPI PUSH1 0x0 DUP1 REVERT JUMPDEST SWAP1 PUSH1 0x0 MSTORE PUSH1 0x20 PUSH1 0x0 KECCAK256 ADD PUSH1 0x0 SWAP2 POP SWAP2 POP POP SLOAD DUP2 JUMP JUMPDEST PUSH1 0x6B SLOAD PUSH1 0x0 SWAP1 DUP2 MSTORE PUSH1 0x6A PUSH1 0x20 MSTORE PUSH1 0x40 DUP2 KECCAK256 DUP10 PUSH2 0x11E8 JUMPI PUSH1 0x40 MLOAD PUSH3 0x461BCD PUSH1 0xE5 SHL DUP2 MSTORE PUSH1 0x4 ADD PUSH2 0x5F7 SWAP1 PUSH2 0x2F3A JUMP JUMPDEST PUSH1 0x3 DUP2 ADD SLOAD ISZERO PUSH2 0x120A JUMPI PUSH1 0x40 MLOAD PUSH3 0x461BCD PUSH1 0xE5 SHL DUP2 MSTORE PUSH1 0x4 ADD PUSH2 0x5F7 SWAP1 PUSH2 0x31C3 JUMP JUMPDEST PUSH1 0x69 SLOAD PUSH1 0x40 MLOAD PUSH4 0x11CDC9D9 PUSH1 0xE1 SHL DUP2 MSTORE PUSH1 0x1 PUSH1 0x1 PUSH1 0xA0 SHL SUB SWAP1 SWAP2 AND SWAP1 PUSH4 0x239B93B2 SWAP1 PUSH2 0x1242 SWAP1 DUP15 SWAP1 DUP10 SWAP1 DUP15 SWAP1 DUP13 SWAP1 DUP11 SWAP1 PUSH1 0x4 ADD PUSH2 0x2EC0 JUMP JUMPDEST PUSH1 0x20 PUSH1 0x40 MLOAD DUP1 DUP4 SUB DUP2 DUP7 DUP1 EXTCODESIZE ISZERO DUP1 ISZERO PUSH2 0x125A JUMPI PUSH1 0x0 DUP1 REVERT JUMPDEST POP GAS STATICCALL ISZERO DUP1 ISZERO PUSH2 0x126E JUMPI RETURNDATASIZE PUSH1 0x0 DUP1 RETURNDATACOPY RETURNDATASIZE PUSH1 0x0 REVERT JUMPDEST POP POP POP POP PUSH1 0x40 MLOAD RETURNDATASIZE PUSH1 0x1F NOT PUSH1 0x1F DUP3 ADD AND DUP3 ADD DUP1 PUSH1 0x40 MSTORE POP DUP2 ADD SWAP1 PUSH2 0x1292 SWAP2 SWAP1 PUSH2 0x2A2F JUMP JUMPDEST PUSH2 0x12AE JUMPI PUSH1 0x40 MLOAD PUSH3 0x461BCD PUSH1 0xE5 SHL DUP2 MSTORE PUSH1 0x4 ADD PUSH2 0x5F7 SWAP1 PUSH2 0x2FA8 JUMP JUMPDEST PUSH1 0x74 SLOAD DUP11 GT PUSH2 0x12CF JUMPI PUSH1 0x40 MLOAD PUSH3 0x461BCD PUSH1 0xE5 SHL DUP2 MSTORE PUSH1 0x4 ADD PUSH2 0x5F7 SWAP1 PUSH2 0x30A4 JUMP JUMPDEST PUSH1 0x67 SLOAD PUSH2 0x12E7 SWAP1 PUSH1 0x1 PUSH1 0x1 PUSH1 0xA0 SHL SUB AND CALLER ADDRESS DUP14 PUSH2 0x21E9 JUMP JUMPDEST PUSH1 0x67 SLOAD PUSH1 0x40 MLOAD PUSH4 0x70A08231 PUSH1 0xE0 SHL DUP2 MSTORE PUSH1 0x0 SWAP2 PUSH1 0x1 PUSH1 0x1 PUSH1 0xA0 SHL SUB AND SWAP1 PUSH4 0x70A08231 SWAP1 PUSH2 0x1318 SWAP1 ADDRESS SWAP1 PUSH1 0x4 ADD PUSH2 0x2E20 JUMP JUMPDEST PUSH1 0x20 PUSH1 0x40 MLOAD DUP1 DUP4 SUB DUP2 DUP7 DUP1 EXTCODESIZE ISZERO DUP1 ISZERO PUSH2 0x1330 JUMPI PUSH1 0x0 DUP1 REVERT JUMPDEST POP GAS STATICCALL ISZERO DUP1 ISZERO PUSH2 0x1344 JUMPI RETURNDATASIZE PUSH1 0x0 DUP1 RETURNDATACOPY RETURNDATASIZE PUSH1 0x0 REVERT JUMPDEST POP POP POP POP PUSH1 0x40 MLOAD RETURNDATASIZE PUSH1 0x1F NOT PUSH1 0x1F DUP3 ADD AND DUP3 ADD DUP1 PUSH1 0x40 MSTORE POP DUP2 ADD SWAP1 PUSH2 0x1368 SWAP2 SWAP1 PUSH2 0x2D08 JUMP JUMPDEST SWAP1 POP PUSH1 0x0 PUSH2 0x1397 PUSH8 0xDE0B6B3A7640000 PUSH2 0xE60 PUSH1 0x73 SLOAD PUSH2 0xE60 PUSH1 0x72 SLOAD PUSH2 0xE5A DUP13 DUP15 PUSH2 0x18FF SWAP1 SWAP2 SWAP1 PUSH4 0xFFFFFFFF AND JUMP JUMPDEST PUSH1 0x68 SLOAD PUSH1 0x67 SLOAD SWAP2 SWAP3 POP PUSH2 0x13B7 SWAP2 PUSH1 0x1 PUSH1 0x1 PUSH1 0xA0 SHL SUB SWAP1 DUP2 AND SWAP2 AND DUP4 PUSH2 0x2247 JUMP JUMPDEST PUSH1 0x68 PUSH1 0x0 SWAP1 SLOAD SWAP1 PUSH2 0x100 EXP SWAP1 DIV PUSH1 0x1 PUSH1 0x1 PUSH1 0xA0 SHL SUB AND PUSH1 0x1 PUSH1 0x1 PUSH1 0xA0 SHL SUB AND PUSH4 0xD10C06A2 PUSH1 0x40 MLOAD DUP2 PUSH4 0xFFFFFFFF AND PUSH1 0xE0 SHL DUP2 MSTORE PUSH1 0x4 ADD PUSH1 0x20 PUSH1 0x40 MLOAD DUP1 DUP4 SUB DUP2 PUSH1 0x0 DUP8 DUP1 EXTCODESIZE ISZERO DUP1 ISZERO PUSH2 0x1407 JUMPI PUSH1 0x0 DUP1 REVERT JUMPDEST POP GAS CALL ISZERO DUP1 ISZERO PUSH2 0x141B JUMPI RETURNDATASIZE PUSH1 0x0 DUP1 RETURNDATACOPY RETURNDATASIZE PUSH1 0x0 REVERT JUMPDEST POP POP POP POP PUSH1 0x40 MLOAD RETURNDATASIZE PUSH1 0x1F NOT PUSH1 0x1F DUP3 ADD AND DUP3 ADD DUP1 PUSH1 0x40 MSTORE POP DUP2 ADD SWAP1 PUSH2 0x143F SWAP2 SWAP1 PUSH2 0x2A2F JUMP JUMPDEST POP PUSH1 0x67 SLOAD PUSH1 0x1 PUSH1 0x1 PUSH1 0xA0 SHL SUB AND PUSH4 0x42966C68 PUSH2 0x145B DUP5 DUP5 PUSH2 0x1912 JUMP JUMPDEST PUSH1 0x40 MLOAD DUP3 PUSH4 0xFFFFFFFF AND PUSH1 0xE0 SHL DUP2 MSTORE PUSH1 0x4 ADD PUSH2 0x1477 SWAP2 SWAP1 PUSH2 0x32F9 JUMP JUMPDEST PUSH1 0x0 PUSH1 0x40 MLOAD DUP1 DUP4 SUB DUP2 PUSH1 0x0 DUP8 DUP1 EXTCODESIZE ISZERO DUP1 ISZERO PUSH2 0x1491 JUMPI PUSH1 0x0 DUP1 REVERT JUMPDEST POP GAS CALL ISZERO DUP1 ISZERO PUSH2 0x14A5 JUMPI RETURNDATASIZE PUSH1 0x0 DUP1 RETURNDATACOPY RETURNDATASIZE PUSH1 0x0 REVERT JUMPDEST POP POP PUSH1 0x6B SLOAD PUSH1 0x6C DUP1 SLOAD PUSH1 0x1 DUP2 DUP2 ADD DUP4 SSTORE PUSH1 0x0 DUP4 SWAP1 MSTORE PUSH32 0x2B4A51AB505FC96A0952EFDA2BA61BCD3078D4C02C39A186EC16F21883FBE016 SWAP1 SWAP2 ADD SWAP3 SWAP1 SWAP3 SSTORE SLOAD PUSH2 0x14EF SWAP4 POP SWAP2 POP PUSH2 0x1912 JUMP JUMPDEST PUSH1 0x6B DUP1 SLOAD PUSH1 0x0 SWAP1 DUP2 MSTORE PUSH1 0x6D PUSH1 0x20 SWAP1 DUP2 MSTORE PUSH1 0x40 DUP1 DUP4 KECCAK256 SWAP5 SWAP1 SWAP5 SSTORE CALLER DUP1 DUP4 MSTORE PUSH1 0x6E DUP1 DUP4 MSTORE DUP6 DUP5 KECCAK256 DUP6 SLOAD DUP2 SLOAD PUSH1 0x1 DUP2 DUP2 ADD DUP5 SSTORE DUP4 DUP9 MSTORE DUP7 DUP9 KECCAK256 SWAP1 SWAP2 ADD SWAP2 SWAP1 SWAP2 SSTORE SWAP6 SLOAD SWAP3 DUP6 MSTORE PUSH1 0x6F DUP5 MSTORE SWAP6 DUP5 KECCAK256 SWAP3 MSTORE SWAP4 SLOAD SWAP1 SWAP3 PUSH2 0x1548 SWAP2 SWAP1 PUSH2 0x1912 JUMP JUMPDEST DUP2 MSTORE PUSH1 0x20 ADD SWAP1 DUP2 MSTORE PUSH1 0x20 ADD PUSH1 0x0 KECCAK256 DUP2 SWAP1 SSTORE POP PUSH1 0x6B PUSH1 0x0 DUP2 SLOAD DUP1 SWAP3 SWAP2 SWAP1 PUSH2 0x156D SWAP1 PUSH2 0x343C JUMP JUMPDEST SWAP1 SWAP2 SSTORE POP POP DUP3 SLOAD PUSH1 0x1 PUSH1 0x1 PUSH1 0xA0 SHL SUB NOT AND CALLER OR DUP4 SSTORE PUSH1 0x1 DUP4 ADD DUP10 SWAP1 SSTORE DUP8 MLOAD PUSH2 0x159E SWAP1 PUSH1 0x2 DUP6 ADD SWAP1 PUSH1 0x20 DUP12 ADD SWAP1 PUSH2 0x26B7 JUMP JUMPDEST POP PUSH1 0x1 PUSH1 0x3 DUP5 ADD SSTORE PUSH1 0x4 DUP4 ADD DUP11 SWAP1 SSTORE PUSH1 0x5 DUP4 ADD DUP8 SWAP1 SSTORE PUSH1 0x6 DUP4 ADD DUP12 SWAP1 SSTORE PUSH1 0x9 DUP4 ADD DUP7 SWAP1 SSTORE PUSH2 0x15CC DUP3 DUP3 PUSH2 0x1912 JUMP JUMPDEST PUSH1 0xA SWAP1 SWAP4 ADD SWAP3 SWAP1 SWAP3 SSTORE POP PUSH1 0x1 SWAP12 SWAP11 POP POP POP POP POP POP POP POP POP POP POP JUMP JUMPDEST PUSH1 0x1 PUSH1 0x1 PUSH1 0xA0 SHL SUB AND PUSH1 0x0 SWAP1 DUP2 MSTORE PUSH1 0x6E PUSH1 0x20 MSTORE PUSH1 0x40 SWAP1 KECCAK256 SLOAD SWAP1 JUMP JUMPDEST PUSH1 0x70 PUSH1 0x20 MSTORE DUP2 PUSH1 0x0 MSTORE PUSH1 0x40 PUSH1 0x0 KECCAK256 DUP2 DUP2 SLOAD DUP2 LT PUSH2 0x11A5 JUMPI PUSH1 0x0 DUP1 REVERT JUMPDEST PUSH1 0x71 PUSH1 0x20 SWAP1 DUP2 MSTORE PUSH1 0x0 SWAP3 DUP4 MSTORE PUSH1 0x40 DUP1 DUP5 KECCAK256 SWAP1 SWAP2 MSTORE SWAP1 DUP3 MSTORE SWAP1 KECCAK256 SLOAD DUP2 JUMP JUMPDEST PUSH1 0x74 SLOAD DUP2 JUMP JUMPDEST PUSH2 0x1649 PUSH2 0x191E JUMP JUMPDEST PUSH1 0x1 PUSH1 0x1 PUSH1 0xA0 SHL SUB AND PUSH2 0x165A PUSH2 0xCA8 JUMP JUMPDEST PUSH1 0x1 PUSH1 0x1 PUSH1 0xA0 SHL SUB AND EQ PUSH2 0x1680 JUMPI PUSH1 0x40 MLOAD PUSH3 0x461BCD PUSH1 0xE5 SHL DUP2 MSTORE PUSH1 0x4 ADD PUSH2 0x5F7 SWAP1 PUSH2 0x3111 JUMP JUMPDEST PUSH1 0x1 PUSH1 0x1 PUSH1 0xA0 SHL SUB DUP2 AND PUSH2 0x16A6 JUMPI PUSH1 0x40 MLOAD PUSH3 0x461BCD PUSH1 0xE5 SHL DUP2 MSTORE PUSH1 0x4 ADD PUSH2 0x5F7 SWAP1 PUSH2 0x2F62 JUMP JUMPDEST PUSH2 0x16AF DUP2 PUSH2 0x217F JUMP JUMPDEST POP JUMP JUMPDEST PUSH1 0x6B SLOAD DUP2 JUMP JUMPDEST PUSH1 0x0 SLOAD PUSH2 0x100 SWAP1 DIV PUSH1 0xFF AND DUP1 PUSH2 0x16D1 JUMPI POP PUSH1 0x0 SLOAD PUSH1 0xFF AND ISZERO JUMPDEST PUSH2 0x16ED JUMPI PUSH1 0x40 MLOAD PUSH3 0x461BCD PUSH1 0xE5 SHL DUP2 MSTORE PUSH1 0x4 ADD PUSH2 0x5F7 SWAP1 PUSH2 0x3056 JUMP JUMPDEST PUSH1 0x0 SLOAD PUSH2 0x100 SWAP1 DIV PUSH1 0xFF AND ISZERO DUP1 ISZERO PUSH2 0x1718 JUMPI PUSH1 0x0 DUP1 SLOAD PUSH1 0xFF NOT PUSH2 0xFF00 NOT SWAP1 SWAP2 AND PUSH2 0x100 OR AND PUSH1 0x1 OR SWAP1 SSTORE JUMPDEST PUSH2 0x1720 PUSH2 0x226B JUMP JUMPDEST PUSH1 0x66 DUP1 SLOAD PUSH1 0x1 PUSH1 0x1 PUSH1 0xA0 SHL SUB DUP1 DUP9 AND PUSH1 0x1 PUSH1 0x1 PUSH1 0xA0 SHL SUB NOT SWAP3 DUP4 AND OR SWAP1 SWAP3 SSTORE PUSH1 0x68 DUP1 SLOAD DUP8 DUP5 AND SWAP1 DUP4 AND OR SWAP1 SSTORE PUSH1 0x67 DUP1 SLOAD DUP7 DUP5 AND SWAP1 DUP4 AND OR SWAP1 SSTORE PUSH2 0x2710 PUSH1 0x73 SSTORE PUSH1 0x69 DUP1 SLOAD SWAP3 DUP6 AND SWAP3 SWAP1 SWAP2 AND SWAP2 SWAP1 SWAP2 OR SWAP1 SSTORE PUSH8 0xDE0B6B3A7640000 PUSH1 0x74 SSTORE PUSH1 0x32 PUSH1 0x72 SSTORE DUP1 ISZERO PUSH2 0x1793 JUMPI PUSH1 0x0 DUP1 SLOAD PUSH2 0xFF00 NOT AND SWAP1 SSTORE JUMPDEST POP POP POP POP POP JUMP JUMPDEST PUSH1 0x0 PUSH2 0x17A4 PUSH2 0x191E JUMP JUMPDEST PUSH1 0x1 PUSH1 0x1 PUSH1 0xA0 SHL SUB AND PUSH2 0x17B5 PUSH2 0xCA8 JUMP JUMPDEST PUSH1 0x1 PUSH1 0x1 PUSH1 0xA0 SHL SUB AND EQ PUSH2 0x17DB JUMPI PUSH1 0x40 MLOAD PUSH3 0x461BCD PUSH1 0xE5 SHL DUP2 MSTORE PUSH1 0x4 ADD PUSH2 0x5F7 SWAP1 PUSH2 0x3111 JUMP JUMPDEST PUSH1 0x40 MLOAD DUP1 PUSH2 0x160 ADD PUSH1 0x40 MSTORE DUP1 DUP14 PUSH1 0x1 PUSH1 0x1 PUSH1 0xA0 SHL SUB AND DUP2 MSTORE PUSH1 0x20 ADD DUP13 DUP2 MSTORE PUSH1 0x20 ADD DUP12 DUP2 MSTORE PUSH1 0x20 ADD DUP11 DUP2 MSTORE PUSH1 0x20 ADD DUP10 DUP2 MSTORE PUSH1 0x20 ADD DUP9 DUP2 MSTORE PUSH1 0x20 ADD DUP8 DUP2 MSTORE PUSH1 0x20 ADD DUP7 DUP2 MSTORE PUSH1 0x20 ADD DUP6 DUP2 MSTORE PUSH1 0x20 ADD DUP5 DUP2 MSTORE PUSH1 0x20 ADD DUP4 DUP2 MSTORE POP PUSH1 0x6A PUSH1 0x0 DUP16 DUP2 MSTORE PUSH1 0x20 ADD SWAP1 DUP2 MSTORE PUSH1 0x20 ADD PUSH1 0x0 KECCAK256 PUSH1 0x0 DUP3 ADD MLOAD DUP2 PUSH1 0x0 ADD PUSH1 0x0 PUSH2 0x100 EXP DUP2 SLOAD DUP2 PUSH1 0x1 PUSH1 0x1 PUSH1 0xA0 SHL SUB MUL NOT AND SWAP1 DUP4 PUSH1 0x1 PUSH1 0x1 PUSH1 0xA0 SHL SUB AND MUL OR SWAP1 SSTORE POP PUSH1 0x20 DUP3 ADD MLOAD DUP2 PUSH1 0x1 ADD SSTORE PUSH1 0x40 DUP3 ADD MLOAD DUP2 PUSH1 0x2 ADD SWAP1 DUP1 MLOAD SWAP1 PUSH1 0x20 ADD SWAP1 PUSH2 0x1896 SWAP3 SWAP2 SWAP1 PUSH2 0x26B7 JUMP JUMPDEST POP PUSH1 0x60 DUP3 ADD MLOAD PUSH1 0x3 DUP3 ADD SSTORE PUSH1 0x80 DUP3 ADD MLOAD PUSH1 0x4 DUP3 ADD SSTORE PUSH1 0xA0 DUP3 ADD MLOAD PUSH1 0x5 DUP3 ADD SSTORE PUSH1 0xC0 DUP3 ADD MLOAD PUSH1 0x6 DUP3 ADD SSTORE PUSH1 0xE0 DUP3 ADD MLOAD PUSH1 0x7 DUP3 ADD SSTORE PUSH2 0x100 DUP3 ADD MLOAD PUSH1 0x8 DUP3 ADD SSTORE PUSH2 0x120 DUP3 ADD MLOAD PUSH1 0x9 DUP3 ADD SSTORE PUSH2 0x140 SWAP1 SWAP2 ADD MLOAD PUSH1 0xA SWAP1 SWAP2 ADD SSTORE POP PUSH1 0x1 SWAP13 SWAP12 POP POP POP POP POP POP POP POP POP POP POP POP JUMP JUMPDEST PUSH1 0x0 PUSH2 0x190B DUP3 DUP5 PUSH2 0x3388 JUMP JUMPDEST SWAP4 SWAP3 POP POP POP JUMP JUMPDEST PUSH1 0x0 PUSH2 0x190B DUP3 DUP5 PUSH2 0x33A7 JUMP JUMPDEST CALLER SWAP1 JUMP JUMPDEST PUSH1 0x0 DUP4 DUP2 MSTORE PUSH1 0x6A PUSH1 0x20 MSTORE PUSH1 0x40 DUP2 KECCAK256 PUSH1 0x4 DUP2 ADD SLOAD DUP3 SWAP1 DUP2 SWAP1 DUP2 SWAP1 PUSH1 0x1 EQ ISZERO PUSH2 0x19D9 JUMPI DUP4 PUSH1 0x5 ADD SLOAD DUP8 LT ISZERO PUSH2 0x19D4 JUMPI PUSH1 0x5 DUP5 ADD SLOAD PUSH2 0x195E SWAP1 DUP9 PUSH2 0x1912 JUMP JUMPDEST SWAP3 POP PUSH2 0x1983 PUSH8 0xDE0B6B3A7640000 PUSH2 0xE60 DUP7 PUSH1 0x9 ADD SLOAD DUP7 PUSH2 0x18FF SWAP1 SWAP2 SWAP1 PUSH4 0xFFFFFFFF AND JUMP JUMPDEST SWAP2 POP PUSH2 0x19B4 PUSH8 0xDE0B6B3A7640000 PUSH2 0xE60 PUSH1 0x73 SLOAD PUSH2 0xE60 PUSH1 0x72 SLOAD PUSH2 0xE5A DUP14 DUP12 PUSH1 0x9 ADD SLOAD PUSH2 0x18FF SWAP1 SWAP2 SWAP1 PUSH4 0xFFFFFFFF AND JUMP JUMPDEST SWAP1 POP PUSH2 0x19C0 DUP2 DUP4 PUSH2 0x3350 JUMP JUMPDEST DUP7 LT ISZERO PUSH2 0x19D4 JUMPI PUSH1 0x0 SWAP5 POP POP POP POP POP PUSH2 0x190B JUMP JUMPDEST PUSH2 0x1A6B JUMP JUMPDEST DUP4 PUSH1 0x5 ADD SLOAD DUP8 GT ISZERO PUSH2 0x1A6B JUMPI PUSH1 0x5 DUP5 ADD SLOAD PUSH2 0x19F5 SWAP1 DUP9 SWAP1 PUSH2 0x1912 JUMP JUMPDEST SWAP3 POP PUSH2 0x1A1A PUSH8 0xDE0B6B3A7640000 PUSH2 0xE60 DUP7 PUSH1 0x9 ADD SLOAD DUP7 PUSH2 0x18FF SWAP1 SWAP2 SWAP1 PUSH4 0xFFFFFFFF AND JUMP JUMPDEST SWAP2 POP PUSH2 0x1A4B PUSH8 0xDE0B6B3A7640000 PUSH2 0xE60 PUSH1 0x73 SLOAD PUSH2 0xE60 PUSH1 0x72 SLOAD PUSH2 0xE5A DUP14 DUP12 PUSH1 0x9 ADD SLOAD PUSH2 0x18FF SWAP1 SWAP2 SWAP1 PUSH4 0xFFFFFFFF AND JUMP JUMPDEST SWAP1 POP PUSH2 0x1A57 DUP2 DUP4 PUSH2 0x3350 JUMP JUMPDEST DUP7 LT ISZERO PUSH2 0x1A6B JUMPI PUSH1 0x0 SWAP5 POP POP POP POP POP PUSH2 0x190B JUMP JUMPDEST POP PUSH1 0x1 SWAP8 SWAP7 POP POP POP POP POP POP POP JUMP JUMPDEST DUP7 SLOAD PUSH1 0x0 SWAP1 PUSH1 0x1 PUSH1 0x1 PUSH1 0xA0 SHL SUB AND PUSH2 0x1AA3 JUMPI PUSH1 0x40 MLOAD PUSH3 0x461BCD PUSH1 0xE5 SHL DUP2 MSTORE PUSH1 0x4 ADD PUSH2 0x5F7 SWAP1 PUSH2 0x2F0C JUMP JUMPDEST PUSH1 0x2 DUP9 PUSH1 0x3 ADD SLOAD LT PUSH2 0x1AC7 JUMPI PUSH1 0x40 MLOAD PUSH3 0x461BCD PUSH1 0xE5 SHL DUP2 MSTORE PUSH1 0x4 ADD PUSH2 0x5F7 SWAP1 PUSH2 0x31C3 JUMP JUMPDEST PUSH1 0x69 SLOAD PUSH1 0x40 MLOAD PUSH4 0x11CDC9D9 PUSH1 0xE1 SHL DUP2 MSTORE PUSH1 0x1 PUSH1 0x1 PUSH1 0xA0 SHL SUB SWAP1 SWAP2 AND SWAP1 PUSH4 0x239B93B2 SWAP1 PUSH2 0x1AFF SWAP1 DUP13 SWAP1 DUP8 SWAP1 DUP11 SWAP1 DUP11 SWAP1 DUP10 SWAP1 PUSH1 0x4 ADD PUSH2 0x2EC0 JUMP JUMPDEST PUSH1 0x20 PUSH1 0x40 MLOAD DUP1 DUP4 SUB DUP2 DUP7 DUP1 EXTCODESIZE ISZERO DUP1 ISZERO PUSH2 0x1B17 JUMPI PUSH1 0x0 DUP1 REVERT JUMPDEST POP GAS STATICCALL ISZERO DUP1 ISZERO PUSH2 0x1B2B JUMPI RETURNDATASIZE PUSH1 0x0 DUP1 RETURNDATACOPY RETURNDATASIZE PUSH1 0x0 REVERT JUMPDEST POP POP POP POP PUSH1 0x40 MLOAD RETURNDATASIZE PUSH1 0x1F NOT PUSH1 0x1F DUP3 ADD AND DUP3 ADD DUP1 PUSH1 0x40 MSTORE POP DUP2 ADD SWAP1 PUSH2 0x1B4F SWAP2 SWAP1 PUSH2 0x2A2F JUMP JUMPDEST PUSH2 0x1B6B JUMPI PUSH1 0x40 MLOAD PUSH3 0x461BCD PUSH1 0xE5 SHL DUP2 MSTORE PUSH1 0x4 ADD PUSH2 0x5F7 SWAP1 PUSH2 0x2FA8 JUMP JUMPDEST PUSH1 0x7 DUP9 ADD DUP4 SWAP1 SSTORE PUSH1 0x9 DUP9 ADD SLOAD PUSH1 0x73 SLOAD PUSH1 0x72 SLOAD PUSH1 0x0 SWAP3 DUP4 SWAP3 DUP4 SWAP3 DUP9 SWAP2 DUP5 SWAP2 PUSH2 0x1BA7 SWAP2 PUSH8 0xDE0B6B3A7640000 SWAP2 PUSH2 0xE60 SWAP2 SWAP1 DUP3 SWAP1 PUSH2 0xE5A DUP9 DUP11 PUSH2 0x18FF JUMP JUMPDEST SWAP1 POP DUP14 PUSH1 0x4 ADD SLOAD PUSH1 0x1 EQ ISZERO PUSH2 0x1E8D JUMPI DUP14 PUSH1 0x5 ADD SLOAD DUP15 PUSH1 0x7 ADD SLOAD GT ISZERO PUSH2 0x1D25 JUMPI PUSH1 0x5 DUP15 ADD SLOAD PUSH1 0x7 DUP16 ADD SLOAD PUSH2 0x1BD9 SWAP2 PUSH2 0x1912 JUMP JUMPDEST SWAP6 POP PUSH2 0x1BF1 PUSH8 0xDE0B6B3A7640000 PUSH2 0xE60 DUP9 DUP7 PUSH2 0x18FF JUMP JUMPDEST PUSH1 0xA DUP16 ADD SLOAD SWAP1 SWAP6 POP PUSH2 0x1C03 SWAP1 DUP7 PUSH2 0x21DD JUMP JUMPDEST PUSH1 0x67 SLOAD PUSH1 0x68 SLOAD PUSH1 0x40 MLOAD PUSH4 0x40C10F19 PUSH1 0xE0 SHL DUP2 MSTORE SWAP3 SWAP7 POP PUSH1 0x1 PUSH1 0x1 PUSH1 0xA0 SHL SUB SWAP2 DUP3 AND SWAP3 PUSH4 0x40C10F19 SWAP3 PUSH2 0x1C3B SWAP3 AND SWAP1 DUP6 SWAP1 PUSH1 0x4 ADD PUSH2 0x2E58 JUMP JUMPDEST PUSH1 0x20 PUSH1 0x40 MLOAD DUP1 DUP4 SUB DUP2 PUSH1 0x0 DUP8 DUP1 EXTCODESIZE ISZERO DUP1 ISZERO PUSH2 0x1C55 JUMPI PUSH1 0x0 DUP1 REVERT JUMPDEST POP GAS CALL ISZERO DUP1 ISZERO PUSH2 0x1C69 JUMPI RETURNDATASIZE PUSH1 0x0 DUP1 RETURNDATACOPY RETURNDATASIZE PUSH1 0x0 REVERT JUMPDEST POP POP POP POP PUSH1 0x40 MLOAD RETURNDATASIZE PUSH1 0x1F NOT PUSH1 0x1F DUP3 ADD AND DUP3 ADD DUP1 PUSH1 0x40 MSTORE POP DUP2 ADD SWAP1 PUSH2 0x1C8D SWAP2 SWAP1 PUSH2 0x2A2F JUMP JUMPDEST POP PUSH1 0x67 SLOAD DUP15 SLOAD PUSH1 0x1 PUSH1 0x1 PUSH1 0xA0 SHL SUB SWAP2 DUP3 AND SWAP2 PUSH4 0x40C10F19 SWAP2 AND PUSH2 0x1CB0 DUP8 DUP6 PUSH2 0x1912 JUMP JUMPDEST PUSH1 0x40 MLOAD DUP4 PUSH4 0xFFFFFFFF AND PUSH1 0xE0 SHL DUP2 MSTORE PUSH1 0x4 ADD PUSH2 0x1CCD SWAP3 SWAP2 SWAP1 PUSH2 0x2E58 JUMP JUMPDEST PUSH1 0x20 PUSH1 0x40 MLOAD DUP1 DUP4 SUB DUP2 PUSH1 0x0 DUP8 DUP1 EXTCODESIZE ISZERO DUP1 ISZERO PUSH2 0x1CE7 JUMPI PUSH1 0x0 DUP1 REVERT JUMPDEST POP GAS CALL ISZERO DUP1 ISZERO PUSH2 0x1CFB JUMPI RETURNDATASIZE PUSH1 0x0 DUP1 RETURNDATACOPY RETURNDATASIZE PUSH1 0x0 REVERT JUMPDEST POP POP POP POP PUSH1 0x40 MLOAD RETURNDATASIZE PUSH1 0x1F NOT PUSH1 0x1F DUP3 ADD AND DUP3 ADD DUP1 PUSH1 0x40 MSTORE POP DUP2 ADD SWAP1 PUSH2 0x1D1F SWAP2 SWAP1 PUSH2 0x2A2F JUMP JUMPDEST POP PUSH2 0x1E88 JUMP JUMPDEST PUSH1 0x7 DUP15 ADD SLOAD PUSH1 0x5 DUP16 ADD SLOAD PUSH2 0x1D38 SWAP2 PUSH2 0x1912 JUMP JUMPDEST SWAP6 POP PUSH2 0x1D44 DUP7 DUP5 PUSH2 0x18FF JUMP JUMPDEST SWAP5 POP DUP14 PUSH1 0xA ADD SLOAD DUP6 GT ISZERO PUSH2 0x1D5B JUMPI PUSH1 0x0 SWAP4 POP PUSH2 0x1E88 JUMP JUMPDEST PUSH1 0xA DUP15 ADD SLOAD PUSH2 0x1D6A SWAP1 DUP7 PUSH2 0x1912 JUMP JUMPDEST PUSH1 0x67 SLOAD PUSH1 0x68 SLOAD PUSH1 0x40 MLOAD PUSH4 0x40C10F19 PUSH1 0xE0 SHL DUP2 MSTORE SWAP3 SWAP7 POP PUSH1 0x1 PUSH1 0x1 PUSH1 0xA0 SHL SUB SWAP2 DUP3 AND SWAP3 PUSH4 0x40C10F19 SWAP3 PUSH2 0x1DA2 SWAP3 AND SWAP1 DUP6 SWAP1 PUSH1 0x4 ADD PUSH2 0x2E58 JUMP JUMPDEST PUSH1 0x20 PUSH1 0x40 MLOAD DUP1 DUP4 SUB DUP2 PUSH1 0x0 DUP8 DUP1 EXTCODESIZE ISZERO DUP1 ISZERO PUSH2 0x1DBC JUMPI PUSH1 0x0 DUP1 REVERT JUMPDEST POP GAS CALL ISZERO DUP1 ISZERO PUSH2 0x1DD0 JUMPI RETURNDATASIZE PUSH1 0x0 DUP1 RETURNDATACOPY RETURNDATASIZE PUSH1 0x0 REVERT JUMPDEST POP POP POP POP PUSH1 0x40 MLOAD RETURNDATASIZE PUSH1 0x1F NOT PUSH1 0x1F DUP3 ADD AND DUP3 ADD DUP1 PUSH1 0x40 MSTORE POP DUP2 ADD SWAP1 PUSH2 0x1DF4 SWAP2 SWAP1 PUSH2 0x2A2F JUMP JUMPDEST POP PUSH1 0x67 SLOAD DUP15 SLOAD PUSH1 0x1 PUSH1 0x1 PUSH1 0xA0 SHL SUB SWAP2 DUP3 AND SWAP2 PUSH4 0x40C10F19 SWAP2 AND PUSH2 0x1E17 DUP8 DUP6 PUSH2 0x1912 JUMP JUMPDEST PUSH1 0x40 MLOAD DUP4 PUSH4 0xFFFFFFFF AND PUSH1 0xE0 SHL DUP2 MSTORE PUSH1 0x4 ADD PUSH2 0x1E34 SWAP3 SWAP2 SWAP1 PUSH2 0x2E58 JUMP JUMPDEST PUSH1 0x20 PUSH1 0x40 MLOAD DUP1 DUP4 SUB DUP2 PUSH1 0x0 DUP8 DUP1 EXTCODESIZE ISZERO DUP1 ISZERO PUSH2 0x1E4E JUMPI PUSH1 0x0 DUP1 REVERT JUMPDEST POP GAS CALL ISZERO DUP1 ISZERO PUSH2 0x1E62 JUMPI RETURNDATASIZE PUSH1 0x0 DUP1 RETURNDATACOPY RETURNDATASIZE PUSH1 0x0 REVERT JUMPDEST POP POP POP POP PUSH1 0x40 MLOAD RETURNDATASIZE PUSH1 0x1F NOT PUSH1 0x1F DUP3 ADD AND DUP3 ADD DUP1 PUSH1 0x40 MSTORE POP DUP2 ADD SWAP1 PUSH2 0x1E86 SWAP2 SWAP1 PUSH2 0x2A2F JUMP JUMPDEST POP JUMPDEST PUSH2 0x2049 JUMP JUMPDEST DUP14 PUSH1 0x5 ADD SLOAD DUP15 PUSH1 0x7 ADD SLOAD LT ISZERO PUSH2 0x1EDA JUMPI PUSH1 0x7 DUP15 ADD SLOAD PUSH1 0x5 DUP16 ADD SLOAD PUSH2 0x1EB0 SWAP2 PUSH2 0x1912 JUMP JUMPDEST SWAP6 POP PUSH2 0x1EC8 PUSH8 0xDE0B6B3A7640000 PUSH2 0xE60 DUP9 DUP7 PUSH2 0x18FF JUMP JUMPDEST PUSH1 0xA DUP16 ADD SLOAD SWAP1 SWAP6 POP PUSH2 0x1D6A SWAP1 DUP7 PUSH2 0x21DD JUMP JUMPDEST PUSH1 0x5 DUP15 ADD SLOAD PUSH1 0x7 DUP16 ADD SLOAD PUSH2 0x1EED SWAP2 PUSH2 0x1912 JUMP JUMPDEST SWAP6 POP PUSH2 0x1F05 PUSH8 0xDE0B6B3A7640000 PUSH2 0xE60 DUP9 DUP7 PUSH2 0x18FF JUMP JUMPDEST SWAP5 POP DUP14 PUSH1 0xA ADD SLOAD DUP6 GT ISZERO PUSH2 0x1F1C JUMPI PUSH1 0x0 SWAP4 POP PUSH2 0x2049 JUMP JUMPDEST PUSH1 0xA DUP15 ADD SLOAD PUSH2 0x1F2B SWAP1 DUP7 PUSH2 0x1912 JUMP JUMPDEST PUSH1 0x67 SLOAD PUSH1 0x68 SLOAD PUSH1 0x40 MLOAD PUSH4 0x40C10F19 PUSH1 0xE0 SHL DUP2 MSTORE SWAP3 SWAP7 POP PUSH1 0x1 PUSH1 0x1 PUSH1 0xA0 SHL SUB SWAP2 DUP3 AND SWAP3 PUSH4 0x40C10F19 SWAP3 PUSH2 0x1F63 SWAP3 AND SWAP1 DUP6 SWAP1 PUSH1 0x4 ADD PUSH2 0x2E58 JUMP JUMPDEST PUSH1 0x20 PUSH1 0x40 MLOAD DUP1 DUP4 SUB DUP2 PUSH1 0x0 DUP8 DUP1 EXTCODESIZE ISZERO DUP1 ISZERO PUSH2 0x1F7D JUMPI PUSH1 0x0 DUP1 REVERT JUMPDEST POP GAS CALL ISZERO DUP1 ISZERO PUSH2 0x1F91 JUMPI RETURNDATASIZE PUSH1 0x0 DUP1 RETURNDATACOPY RETURNDATASIZE PUSH1 0x0 REVERT JUMPDEST POP POP POP POP PUSH1 0x40 MLOAD RETURNDATASIZE PUSH1 0x1F NOT PUSH1 0x1F DUP3 ADD AND DUP3 ADD DUP1 PUSH1 0x40 MSTORE POP DUP2 ADD SWAP1 PUSH2 0x1FB5 SWAP2 SWAP1 PUSH2 0x2A2F JUMP JUMPDEST POP PUSH1 0x67 SLOAD DUP15 SLOAD PUSH1 0x1 PUSH1 0x1 PUSH1 0xA0 SHL SUB SWAP2 DUP3 AND SWAP2 PUSH4 0x40C10F19 SWAP2 AND PUSH2 0x1FD8 DUP8 DUP6 PUSH2 0x1912 JUMP JUMPDEST PUSH1 0x40 MLOAD DUP4 PUSH4 0xFFFFFFFF AND PUSH1 0xE0 SHL DUP2 MSTORE PUSH1 0x4 ADD PUSH2 0x1FF5 SWAP3 SWAP2 SWAP1 PUSH2 0x2E58 JUMP JUMPDEST PUSH1 0x20 PUSH1 0x40 MLOAD DUP1 DUP4 SUB DUP2 PUSH1 0x0 DUP8 DUP1 EXTCODESIZE ISZERO DUP1 ISZERO PUSH2 0x200F JUMPI PUSH1 0x0 DUP1 REVERT JUMPDEST POP GAS CALL ISZERO DUP1 ISZERO PUSH2 0x2023 JUMPI RETURNDATASIZE PUSH1 0x0 DUP1 RETURNDATACOPY RETURNDATASIZE PUSH1 0x0 REVERT JUMPDEST POP POP POP POP PUSH1 0x40 MLOAD RETURNDATASIZE PUSH1 0x1F NOT PUSH1 0x1F DUP3 ADD AND DUP3 ADD DUP1 PUSH1 0x40 MSTORE POP DUP2 ADD SWAP1 PUSH2 0x2047 SWAP2 SWAP1 PUSH2 0x2A2F JUMP JUMPDEST POP JUMPDEST PUSH1 0x68 PUSH1 0x0 SWAP1 SLOAD SWAP1 PUSH2 0x100 EXP SWAP1 DIV PUSH1 0x1 PUSH1 0x1 PUSH1 0xA0 SHL SUB AND PUSH1 0x1 PUSH1 0x1 PUSH1 0xA0 SHL SUB AND PUSH4 0xD10C06A2 PUSH1 0x40 MLOAD DUP2 PUSH4 0xFFFFFFFF AND PUSH1 0xE0 SHL DUP2 MSTORE PUSH1 0x4 ADD PUSH1 0x20 PUSH1 0x40 MLOAD DUP1 DUP4 SUB DUP2 PUSH1 0x0 DUP8 DUP1 EXTCODESIZE ISZERO DUP1 ISZERO PUSH2 0x2099 JUMPI PUSH1 0x0 DUP1 REVERT JUMPDEST POP GAS CALL ISZERO DUP1 ISZERO PUSH2 0x20AD JUMPI RETURNDATASIZE PUSH1 0x0 DUP1 RETURNDATACOPY RETURNDATASIZE PUSH1 0x0 REVERT JUMPDEST POP POP POP POP PUSH1 0x40 MLOAD RETURNDATASIZE PUSH1 0x1F NOT PUSH1 0x1F DUP3 ADD AND DUP3 ADD DUP1 PUSH1 0x40 MSTORE POP DUP2 ADD SWAP1 PUSH2 0x20D1 SWAP2 SWAP1 PUSH2 0x2A2F JUMP JUMPDEST POP PUSH1 0x3 DUP15 ADD DUP14 SWAP1 SSTORE PUSH1 0x7 DUP15 ADD DUP10 SWAP1 SSTORE PUSH1 0x8 DUP15 ADD DUP12 SWAP1 SSTORE PUSH2 0x20F4 DUP13 PUSH1 0x6D PUSH1 0x6C PUSH2 0x22EF JUMP JUMPDEST CALLER PUSH1 0x0 SWAP1 DUP2 MSTORE PUSH1 0x6F PUSH1 0x20 SWAP1 DUP2 MSTORE PUSH1 0x40 DUP1 DUP4 KECCAK256 PUSH1 0x6E SWAP1 SWAP3 MSTORE SWAP1 SWAP2 KECCAK256 PUSH2 0x2119 SWAP2 DUP15 SWAP2 PUSH2 0x22EF JUMP JUMPDEST CALLER PUSH1 0x0 DUP2 DUP2 MSTORE PUSH1 0x70 PUSH1 0x20 SWAP1 DUP2 MSTORE PUSH1 0x40 DUP3 KECCAK256 DUP1 SLOAD PUSH1 0x1 DUP2 DUP2 ADD DUP4 SSTORE SWAP2 DUP5 MSTORE SWAP2 SWAP1 SWAP3 KECCAK256 ADD DUP15 SWAP1 SSTORE PUSH2 0x214B SWAP2 PUSH2 0x5A7 SWAP1 PUSH2 0x116E JUMP JUMPDEST CALLER PUSH1 0x0 SWAP1 DUP2 MSTORE PUSH1 0x71 PUSH1 0x20 SWAP1 DUP2 MSTORE PUSH1 0x40 DUP1 DUP4 KECCAK256 SWAP16 DUP4 MSTORE SWAP15 SWAP1 MSTORE SWAP13 SWAP1 SWAP13 KECCAK256 SWAP12 SWAP1 SWAP12 SSTORE POP PUSH1 0x1 SWAP14 SWAP13 POP POP POP POP POP POP POP POP POP POP POP POP POP JUMP JUMPDEST PUSH1 0x33 DUP1 SLOAD PUSH1 0x1 PUSH1 0x1 PUSH1 0xA0 SHL SUB DUP4 DUP2 AND PUSH1 0x1 PUSH1 0x1 PUSH1 0xA0 SHL SUB NOT DUP4 AND DUP2 OR SWAP1 SWAP4 SSTORE PUSH1 0x40 MLOAD SWAP2 AND SWAP2 SWAP1 DUP3 SWAP1 PUSH32 0x8BE0079C531659141344CD1FD0A4F28419497F9722A3DAAFE3B4186F6B6457E0 SWAP1 PUSH1 0x0 SWAP1 LOG3 POP POP JUMP JUMPDEST PUSH1 0x0 PUSH2 0x190B DUP3 DUP5 PUSH2 0x3368 JUMP JUMPDEST PUSH1 0x0 PUSH2 0x190B DUP3 DUP5 PUSH2 0x3350 JUMP JUMPDEST PUSH2 0x2241 DUP5 PUSH4 0x23B872DD PUSH1 0xE0 SHL DUP6 DUP6 DUP6 PUSH1 0x40 MLOAD PUSH1 0x24 ADD PUSH2 0x220A SWAP4 SWAP3 SWAP2 SWAP1 PUSH2 0x2E34 JUMP JUMPDEST PUSH1 0x40 DUP1 MLOAD PUSH1 0x1F NOT DUP2 DUP5 SUB ADD DUP2 MSTORE SWAP2 SWAP1 MSTORE PUSH1 0x20 DUP2 ADD DUP1 MLOAD PUSH1 0x1 PUSH1 0x1 PUSH1 0xE0 SHL SUB AND PUSH1 0x1 PUSH1 0x1 PUSH1 0xE0 SHL SUB NOT SWAP1 SWAP4 AND SWAP3 SWAP1 SWAP3 OR SWAP1 SWAP2 MSTORE PUSH2 0x23CC JUMP JUMPDEST POP POP POP POP JUMP JUMPDEST PUSH2 0x2266 DUP4 PUSH4 0xA9059CBB PUSH1 0xE0 SHL DUP5 DUP5 PUSH1 0x40 MLOAD PUSH1 0x24 ADD PUSH2 0x220A SWAP3 SWAP2 SWAP1 PUSH2 0x2E58 JUMP JUMPDEST POP POP POP JUMP JUMPDEST PUSH1 0x0 SLOAD PUSH2 0x100 SWAP1 DIV PUSH1 0xFF AND DUP1 PUSH2 0x2284 JUMPI POP PUSH1 0x0 SLOAD PUSH1 0xFF AND ISZERO JUMPDEST PUSH2 0x22A0 JUMPI PUSH1 0x40 MLOAD PUSH3 0x461BCD PUSH1 0xE5 SHL DUP2 MSTORE PUSH1 0x4 ADD PUSH2 0x5F7 SWAP1 PUSH2 0x3056 JUMP JUMPDEST PUSH1 0x0 SLOAD PUSH2 0x100 SWAP1 DIV PUSH1 0xFF AND ISZERO DUP1 ISZERO PUSH2 0x22CB JUMPI PUSH1 0x0 DUP1 SLOAD PUSH1 0xFF NOT PUSH2 0xFF00 NOT SWAP1 SWAP2 AND PUSH2 0x100 OR AND PUSH1 0x1 OR SWAP1 SSTORE JUMPDEST PUSH2 0x22D3 PUSH2 0x245B JUMP JUMPDEST PUSH2 0x22DB PUSH2 0x24CE JUMP JUMPDEST DUP1 ISZERO PUSH2 0x16AF JUMPI PUSH1 0x0 DUP1 SLOAD PUSH2 0xFF00 NOT AND SWAP1 SSTORE POP JUMP JUMPDEST PUSH1 0x0 DUP4 DUP2 MSTORE PUSH1 0x20 DUP4 SWAP1 MSTORE PUSH1 0x40 DUP2 KECCAK256 SLOAD DUP3 SLOAD SWAP1 SWAP2 SWAP1 DUP4 SWAP1 PUSH2 0x2310 SWAP1 PUSH1 0x1 PUSH2 0x1912 JUMP JUMPDEST DUP2 SLOAD DUP2 LT PUSH2 0x232E JUMPI PUSH4 0x4E487B71 PUSH1 0xE0 SHL PUSH1 0x0 MSTORE PUSH1 0x32 PUSH1 0x4 MSTORE PUSH1 0x24 PUSH1 0x0 REVERT JUMPDEST SWAP1 PUSH1 0x0 MSTORE PUSH1 0x20 PUSH1 0x0 KECCAK256 ADD SLOAD SWAP1 POP DUP2 DUP5 PUSH1 0x0 DUP4 DUP2 MSTORE PUSH1 0x20 ADD SWAP1 DUP2 MSTORE PUSH1 0x20 ADD PUSH1 0x0 KECCAK256 DUP2 SWAP1 SSTORE POP DUP1 DUP4 DUP4 DUP2 SLOAD DUP2 LT PUSH2 0x2373 JUMPI PUSH4 0x4E487B71 PUSH1 0xE0 SHL PUSH1 0x0 MSTORE PUSH1 0x32 PUSH1 0x4 MSTORE PUSH1 0x24 PUSH1 0x0 REVERT JUMPDEST PUSH1 0x0 SWAP2 DUP3 MSTORE PUSH1 0x20 DUP1 DUP4 KECCAK256 SWAP1 SWAP2 ADD SWAP3 SWAP1 SWAP3 SSTORE DUP7 DUP2 MSTORE SWAP1 DUP6 SWAP1 MSTORE PUSH1 0x40 DUP2 KECCAK256 SSTORE DUP3 SLOAD DUP4 SWAP1 DUP1 PUSH2 0x23AF JUMPI PUSH4 0x4E487B71 PUSH1 0xE0 SHL PUSH1 0x0 MSTORE PUSH1 0x31 PUSH1 0x4 MSTORE PUSH1 0x24 PUSH1 0x0 REVERT JUMPDEST PUSH1 0x1 SWAP1 SUB DUP2 DUP2 SWAP1 PUSH1 0x0 MSTORE PUSH1 0x20 PUSH1 0x0 KECCAK256 ADD PUSH1 0x0 SWAP1 SSTORE SWAP1 SSTORE POP POP POP POP POP JUMP JUMPDEST PUSH1 0x0 PUSH2 0x2421 DUP3 PUSH1 0x40 MLOAD DUP1 PUSH1 0x40 ADD PUSH1 0x40 MSTORE DUP1 PUSH1 0x20 DUP2 MSTORE PUSH1 0x20 ADD PUSH32 0x5361666545524332303A206C6F772D6C6576656C2063616C6C206661696C6564 DUP2 MSTORE POP DUP6 PUSH1 0x1 PUSH1 0x1 PUSH1 0xA0 SHL SUB AND PUSH2 0x253E SWAP1 SWAP3 SWAP2 SWAP1 PUSH4 0xFFFFFFFF AND JUMP JUMPDEST DUP1 MLOAD SWAP1 SWAP2 POP ISZERO PUSH2 0x2266 JUMPI DUP1 DUP1 PUSH1 0x20 ADD SWAP1 MLOAD DUP2 ADD SWAP1 PUSH2 0x243F SWAP2 SWAP1 PUSH2 0x2A2F JUMP JUMPDEST PUSH2 0x2266 JUMPI PUSH1 0x40 MLOAD PUSH3 0x461BCD PUSH1 0xE5 SHL DUP2 MSTORE PUSH1 0x4 ADD PUSH2 0x5F7 SWAP1 PUSH2 0x31E6 JUMP JUMPDEST PUSH1 0x0 SLOAD PUSH2 0x100 SWAP1 DIV PUSH1 0xFF AND DUP1 PUSH2 0x2474 JUMPI POP PUSH1 0x0 SLOAD PUSH1 0xFF AND ISZERO JUMPDEST PUSH2 0x2490 JUMPI PUSH1 0x40 MLOAD PUSH3 0x461BCD PUSH1 0xE5 SHL DUP2 MSTORE PUSH1 0x4 ADD PUSH2 0x5F7 SWAP1 PUSH2 0x3056 JUMP JUMPDEST PUSH1 0x0 SLOAD PUSH2 0x100 SWAP1 DIV PUSH1 0xFF AND ISZERO DUP1 ISZERO PUSH2 0x22DB JUMPI PUSH1 0x0 DUP1 SLOAD PUSH1 0xFF NOT PUSH2 0xFF00 NOT SWAP1 SWAP2 AND PUSH2 0x100 OR AND PUSH1 0x1 OR SWAP1 SSTORE DUP1 ISZERO PUSH2 0x16AF JUMPI PUSH1 0x0 DUP1 SLOAD PUSH2 0xFF00 NOT AND SWAP1 SSTORE POP JUMP JUMPDEST PUSH1 0x0 SLOAD PUSH2 0x100 SWAP1 DIV PUSH1 0xFF AND DUP1 PUSH2 0x24E7 JUMPI POP PUSH1 0x0 SLOAD PUSH1 0xFF AND ISZERO JUMPDEST PUSH2 0x2503 JUMPI PUSH1 0x40 MLOAD PUSH3 0x461BCD PUSH1 0xE5 SHL DUP2 MSTORE PUSH1 0x4 ADD PUSH2 0x5F7 SWAP1 PUSH2 0x3056 JUMP JUMPDEST PUSH1 0x0 SLOAD PUSH2 0x100 SWAP1 DIV PUSH1 0xFF AND ISZERO DUP1 ISZERO PUSH2 0x252E JUMPI PUSH1 0x0 DUP1 SLOAD PUSH1 0xFF NOT PUSH2 0xFF00 NOT SWAP1 SWAP2 AND PUSH2 0x100 OR AND PUSH1 0x1 OR SWAP1 SSTORE JUMPDEST PUSH2 0x22DB PUSH2 0x2539 PUSH2 0x191E JUMP JUMPDEST PUSH2 0x217F JUMP JUMPDEST PUSH1 0x60 PUSH2 0x254D DUP5 DUP5 PUSH1 0x0 DUP6 PUSH2 0x2555 JUMP JUMPDEST SWAP5 SWAP4 POP POP POP POP JUMP JUMPDEST PUSH1 0x60 DUP3 SELFBALANCE LT ISZERO PUSH2 0x2577 JUMPI PUSH1 0x40 MLOAD PUSH3 0x461BCD PUSH1 0xE5 SHL DUP2 MSTORE PUSH1 0x4 ADD PUSH2 0x5F7 SWAP1 PUSH2 0x3010 JUMP JUMPDEST PUSH2 0x2580 DUP6 PUSH2 0x2615 JUMP JUMPDEST PUSH2 0x259C JUMPI PUSH1 0x40 MLOAD PUSH3 0x461BCD PUSH1 0xE5 SHL DUP2 MSTORE PUSH1 0x4 ADD PUSH2 0x5F7 SWAP1 PUSH2 0x3146 JUMP JUMPDEST PUSH1 0x0 DUP1 DUP7 PUSH1 0x1 PUSH1 0x1 PUSH1 0xA0 SHL SUB AND DUP6 DUP8 PUSH1 0x40 MLOAD PUSH2 0x25B8 SWAP2 SWAP1 PUSH2 0x2E04 JUMP JUMPDEST PUSH1 0x0 PUSH1 0x40 MLOAD DUP1 DUP4 SUB DUP2 DUP6 DUP8 GAS CALL SWAP3 POP POP POP RETURNDATASIZE DUP1 PUSH1 0x0 DUP2 EQ PUSH2 0x25F5 JUMPI PUSH1 0x40 MLOAD SWAP2 POP PUSH1 0x1F NOT PUSH1 0x3F RETURNDATASIZE ADD AND DUP3 ADD PUSH1 0x40 MSTORE RETURNDATASIZE DUP3 MSTORE RETURNDATASIZE PUSH1 0x0 PUSH1 0x20 DUP5 ADD RETURNDATACOPY PUSH2 0x25FA JUMP JUMPDEST PUSH1 0x60 SWAP2 POP JUMPDEST POP SWAP2 POP SWAP2 POP PUSH2 0x260A DUP3 DUP3 DUP7 PUSH2 0x261B JUMP JUMPDEST SWAP8 SWAP7 POP POP POP POP POP POP POP JUMP JUMPDEST EXTCODESIZE ISZERO ISZERO SWAP1 JUMP JUMPDEST PUSH1 0x60 DUP4 ISZERO PUSH2 0x262A JUMPI POP DUP2 PUSH2 0x190B JUMP JUMPDEST DUP3 MLOAD ISZERO PUSH2 0x263A JUMPI DUP3 MLOAD DUP1 DUP5 PUSH1 0x20 ADD REVERT JUMPDEST DUP2 PUSH1 0x40 MLOAD PUSH3 0x461BCD PUSH1 0xE5 SHL DUP2 MSTORE PUSH1 0x4 ADD PUSH2 0x5F7 SWAP2 SWAP1 PUSH2 0x2EF9 JUMP JUMPDEST PUSH1 0x40 MLOAD DUP1 PUSH2 0x160 ADD PUSH1 0x40 MSTORE DUP1 PUSH1 0x0 PUSH1 0x1 PUSH1 0x1 PUSH1 0xA0 SHL SUB AND DUP2 MSTORE PUSH1 0x20 ADD PUSH1 0x0 DUP2 MSTORE PUSH1 0x20 ADD PUSH1 0x60 DUP2 MSTORE PUSH1 0x20 ADD PUSH1 0x0 DUP2 MSTORE PUSH1 0x20 ADD PUSH1 0x0 DUP2 MSTORE PUSH1 0x20 ADD PUSH1 0x0 DUP2 MSTORE PUSH1 0x20 ADD PUSH1 0x0 DUP2 MSTORE PUSH1 0x20 ADD PUSH1 0x0 DUP2 MSTORE PUSH1 0x20 ADD PUSH1 0x0 DUP2 MSTORE PUSH1 0x20 ADD PUSH1 0x0 DUP2 MSTORE PUSH1 0x20 ADD PUSH1 0x0 DUP2 MSTORE POP SWAP1 JUMP JUMPDEST DUP3 DUP1 SLOAD PUSH2 0x26C3 SWAP1 PUSH2 0x3401 JUMP JUMPDEST SWAP1 PUSH1 0x0 MSTORE PUSH1 0x20 PUSH1 0x0 KECCAK256 SWAP1 PUSH1 0x1F ADD PUSH1 0x20 SWAP1 DIV DUP2 ADD SWAP3 DUP3 PUSH2 0x26E5 JUMPI PUSH1 0x0 DUP6 SSTORE PUSH2 0x272B JUMP JUMPDEST DUP3 PUSH1 0x1F LT PUSH2 0x26FE JUMPI DUP1 MLOAD PUSH1 0xFF NOT AND DUP4 DUP1 ADD OR DUP6 SSTORE PUSH2 0x272B JUMP JUMPDEST DUP3 DUP1 ADD PUSH1 0x1 ADD DUP6 SSTORE DUP3 ISZERO PUSH2 0x272B JUMPI SWAP2 DUP3 ADD JUMPDEST DUP3 DUP2 GT ISZERO PUSH2 0x272B JUMPI DUP3 MLOAD DUP3 SSTORE SWAP2 PUSH1 0x20 ADD SWAP2 SWAP1 PUSH1 0x1 ADD SWAP1 PUSH2 0x2710 JUMP JUMPDEST POP PUSH2 0x2737 SWAP3 SWAP2 POP PUSH2 0x273B JUMP JUMPDEST POP SWAP1 JUMP JUMPDEST JUMPDEST DUP1 DUP3 GT ISZERO PUSH2 0x2737 JUMPI PUSH1 0x0 DUP2 SSTORE PUSH1 0x1 ADD PUSH2 0x273C JUMP JUMPDEST DUP1 CALLDATALOAD PUSH2 0xB22 DUP2 PUSH2 0x3483 JUMP JUMPDEST PUSH1 0x0 DUP3 PUSH1 0x1F DUP4 ADD SLT PUSH2 0x276B JUMPI DUP1 DUP2 REVERT JUMPDEST DUP2 CALLDATALOAD PUSH1 0x20 PUSH2 0x2780 PUSH2 0x277B DUP4 PUSH2 0x332C JUMP JUMPDEST PUSH2 0x3302 JUMP JUMPDEST DUP3 DUP2 MSTORE DUP2 DUP2 ADD SWAP1 DUP6 DUP4 ADD DUP6 JUMPDEST DUP6 DUP2 LT ISZERO PUSH2 0x27B5 JUMPI PUSH2 0x27A3 DUP10 DUP7 DUP5 CALLDATALOAD DUP12 ADD ADD PUSH2 0x287C JUMP JUMPDEST DUP5 MSTORE SWAP3 DUP5 ADD SWAP3 SWAP1 DUP5 ADD SWAP1 PUSH1 0x1 ADD PUSH2 0x278C JUMP JUMPDEST POP SWAP1 SWAP8 SWAP7 POP POP POP POP POP POP POP JUMP JUMPDEST PUSH1 0x0 DUP3 PUSH1 0x1F DUP4 ADD SLT PUSH2 0x27D2 JUMPI DUP1 DUP2 REVERT JUMPDEST DUP2 CALLDATALOAD PUSH1 0x20 PUSH2 0x27E2 PUSH2 0x277B DUP4 PUSH2 0x332C JUMP JUMPDEST DUP3 DUP2 MSTORE DUP2 DUP2 ADD SWAP1 DUP6 DUP4 ADD DUP6 JUMPDEST DUP6 DUP2 LT ISZERO PUSH2 0x27B5 JUMPI PUSH2 0x2805 DUP10 DUP7 DUP5 CALLDATALOAD DUP12 ADD ADD PUSH2 0x287C JUMP JUMPDEST DUP5 MSTORE SWAP3 DUP5 ADD SWAP3 SWAP1 DUP5 ADD SWAP1 PUSH1 0x1 ADD PUSH2 0x27EE JUMP JUMPDEST PUSH1 0x0 DUP3 PUSH1 0x1F DUP4 ADD SLT PUSH2 0x2827 JUMPI DUP1 DUP2 REVERT JUMPDEST DUP2 CALLDATALOAD PUSH1 0x20 PUSH2 0x2837 PUSH2 0x277B DUP4 PUSH2 0x332C JUMP JUMPDEST DUP3 DUP2 MSTORE DUP2 DUP2 ADD SWAP1 DUP6 DUP4 ADD DUP4 DUP6 MUL DUP8 ADD DUP5 ADD DUP9 LT ISZERO PUSH2 0x2853 JUMPI DUP6 DUP7 REVERT JUMPDEST DUP6 JUMPDEST DUP6 DUP2 LT ISZERO PUSH2 0x27B5 JUMPI DUP2 CALLDATALOAD DUP5 MSTORE SWAP3 DUP5 ADD SWAP3 SWAP1 DUP5 ADD SWAP1 PUSH1 0x1 ADD PUSH2 0x2855 JUMP JUMPDEST DUP1 CALLDATALOAD PUSH2 0xB22 DUP2 PUSH2 0x3498 JUMP JUMPDEST PUSH1 0x0 DUP3 PUSH1 0x1F DUP4 ADD SLT PUSH2 0x288C JUMPI DUP1 DUP2 REVERT JUMPDEST DUP2 CALLDATALOAD PUSH8 0xFFFFFFFFFFFFFFFF DUP2 GT ISZERO PUSH2 0x28A6 JUMPI PUSH2 0x28A6 PUSH2 0x346D JUMP JUMPDEST PUSH2 0x28B9 PUSH1 0x1F DUP3 ADD PUSH1 0x1F NOT AND PUSH1 0x20 ADD PUSH2 0x3302 JUMP JUMPDEST DUP2 DUP2 MSTORE DUP5 PUSH1 0x20 DUP4 DUP7 ADD ADD GT ISZERO PUSH2 0x28CD JUMPI DUP3 DUP4 REVERT JUMPDEST DUP2 PUSH1 0x20 DUP6 ADD PUSH1 0x20 DUP4 ADD CALLDATACOPY SWAP1 DUP2 ADD PUSH1 0x20 ADD SWAP2 SWAP1 SWAP2 MSTORE SWAP3 SWAP2 POP POP JUMP JUMPDEST PUSH1 0x0 PUSH1 0x20 DUP3 DUP5 SUB SLT ISZERO PUSH2 0x28F8 JUMPI DUP1 DUP2 REVERT JUMPDEST DUP2 CALLDATALOAD PUSH2 0x190B DUP2 PUSH2 0x3483 JUMP JUMPDEST PUSH1 0x0 DUP1 PUSH1 0x40 DUP4 DUP6 SUB SLT ISZERO PUSH2 0x2915 JUMPI DUP1 DUP2 REVERT JUMPDEST DUP3 CALLDATALOAD PUSH2 0x2920 DUP2 PUSH2 0x3483 JUMP JUMPDEST SWAP2 POP PUSH1 0x20 DUP4 ADD CALLDATALOAD PUSH2 0x2930 DUP2 PUSH2 0x3498 JUMP JUMPDEST DUP1 SWAP2 POP POP SWAP3 POP SWAP3 SWAP1 POP JUMP JUMPDEST PUSH1 0x0 DUP1 PUSH1 0x0 DUP1 PUSH1 0x80 DUP6 DUP8 SUB SLT ISZERO PUSH2 0x2950 JUMPI DUP2 DUP3 REVERT JUMPDEST DUP5 CALLDATALOAD PUSH2 0x295B DUP2 PUSH2 0x3483 JUMP JUMPDEST SWAP4 POP PUSH1 0x20 DUP6 ADD CALLDATALOAD PUSH2 0x296B DUP2 PUSH2 0x3483 JUMP JUMPDEST SWAP3 POP PUSH1 0x40 DUP6 ADD CALLDATALOAD PUSH2 0x297B DUP2 PUSH2 0x3483 JUMP JUMPDEST SWAP2 POP PUSH1 0x60 DUP6 ADD CALLDATALOAD PUSH2 0x298B DUP2 PUSH2 0x3483 JUMP JUMPDEST SWAP4 SWAP7 SWAP3 SWAP6 POP SWAP1 SWAP4 POP POP JUMP JUMPDEST PUSH1 0x0 DUP1 PUSH1 0x40 DUP4 DUP6 SUB SLT ISZERO PUSH2 0x29A8 JUMPI DUP2 DUP3 REVERT JUMPDEST DUP3 CALLDATALOAD PUSH2 0x29B3 DUP2 PUSH2 0x3483 JUMP JUMPDEST SWAP5 PUSH1 0x20 SWAP4 SWAP1 SWAP4 ADD CALLDATALOAD SWAP4 POP POP POP JUMP JUMPDEST PUSH1 0x0 DUP1 PUSH1 0x0 PUSH1 0x60 DUP5 DUP7 SUB SLT ISZERO PUSH2 0x29D5 JUMPI DUP3 DUP4 REVERT JUMPDEST DUP4 CALLDATALOAD PUSH2 0x29E0 DUP2 PUSH2 0x3483 JUMP JUMPDEST SWAP6 PUSH1 0x20 DUP6 ADD CALLDATALOAD SWAP6 POP PUSH1 0x40 SWAP1 SWAP5 ADD CALLDATALOAD SWAP4 SWAP3 POP POP POP JUMP JUMPDEST PUSH1 0x0 DUP1 PUSH1 0x0 DUP1 PUSH1 0x80 DUP6 DUP8 SUB SLT ISZERO PUSH2 0x2A0A JUMPI DUP2 DUP3 REVERT JUMPDEST DUP5 CALLDATALOAD PUSH2 0x2A15 DUP2 PUSH2 0x3483 JUMP JUMPDEST SWAP7 PUSH1 0x20 DUP7 ADD CALLDATALOAD SWAP7 POP PUSH1 0x40 DUP7 ADD CALLDATALOAD SWAP6 PUSH1 0x60 ADD CALLDATALOAD SWAP5 POP SWAP3 POP POP POP JUMP JUMPDEST PUSH1 0x0 PUSH1 0x20 DUP3 DUP5 SUB SLT ISZERO PUSH2 0x2A40 JUMPI DUP1 DUP2 REVERT JUMPDEST DUP2 MLOAD PUSH2 0x190B DUP2 PUSH2 0x3498 JUMP JUMPDEST PUSH1 0x0 DUP1 PUSH1 0x0 DUP1 PUSH1 0x0 DUP1 PUSH1 0xC0 DUP8 DUP10 SUB SLT ISZERO PUSH2 0x2A63 JUMPI DUP4 DUP5 REVERT JUMPDEST PUSH2 0x2A6C DUP8 PUSH2 0x2871 JUMP JUMPDEST SWAP6 POP PUSH1 0x20 DUP8 ADD CALLDATALOAD PUSH8 0xFFFFFFFFFFFFFFFF DUP1 DUP3 GT ISZERO PUSH2 0x2A88 JUMPI DUP6 DUP7 REVERT JUMPDEST PUSH2 0x2A94 DUP11 DUP4 DUP12 ADD PUSH2 0x2817 JUMP JUMPDEST SWAP7 POP PUSH1 0x40 DUP10 ADD CALLDATALOAD SWAP2 POP DUP1 DUP3 GT ISZERO PUSH2 0x2AA9 JUMPI DUP6 DUP7 REVERT JUMPDEST PUSH2 0x2AB5 DUP11 DUP4 DUP12 ADD PUSH2 0x2817 JUMP JUMPDEST SWAP6 POP PUSH1 0x60 DUP10 ADD CALLDATALOAD SWAP2 POP DUP1 DUP3 GT ISZERO PUSH2 0x2ACA JUMPI DUP4 DUP5 REVERT JUMPDEST PUSH2 0x2AD6 DUP11 DUP4 DUP12 ADD PUSH2 0x27C2 JUMP JUMPDEST SWAP5 POP PUSH1 0x80 DUP10 ADD CALLDATALOAD SWAP2 POP DUP1 DUP3 GT ISZERO PUSH2 0x2AEB JUMPI DUP4 DUP5 REVERT JUMPDEST PUSH2 0x2AF7 DUP11 DUP4 DUP12 ADD PUSH2 0x2817 JUMP JUMPDEST SWAP4 POP PUSH1 0xA0 DUP10 ADD CALLDATALOAD SWAP2 POP DUP1 DUP3 GT ISZERO PUSH2 0x2B0C JUMPI DUP3 DUP4 REVERT JUMPDEST POP PUSH2 0x2B19 DUP10 DUP3 DUP11 ADD PUSH2 0x275B JUMP JUMPDEST SWAP2 POP POP SWAP3 SWAP6 POP SWAP3 SWAP6 POP SWAP3 SWAP6 JUMP JUMPDEST PUSH1 0x0 DUP1 PUSH1 0x0 DUP1 PUSH1 0x0 DUP1 PUSH1 0xC0 DUP8 DUP10 SUB SLT ISZERO PUSH2 0x2B3E JUMPI DUP4 DUP5 REVERT JUMPDEST DUP7 CALLDATALOAD PUSH2 0x2B49 DUP2 PUSH2 0x3498 JUMP JUMPDEST SWAP6 POP PUSH1 0x20 DUP8 ADD CALLDATALOAD SWAP5 POP PUSH1 0x40 DUP8 ADD CALLDATALOAD SWAP4 POP PUSH1 0x60 DUP8 ADD CALLDATALOAD PUSH8 0xFFFFFFFFFFFFFFFF DUP1 DUP3 GT ISZERO PUSH2 0x2B73 JUMPI DUP4 DUP5 REVERT JUMPDEST PUSH2 0x2B7F DUP11 DUP4 DUP12 ADD PUSH2 0x287C JUMP JUMPDEST SWAP5 POP PUSH1 0x80 DUP10 ADD CALLDATALOAD SWAP4 POP PUSH1 0xA0 DUP10 ADD CALLDATALOAD SWAP2 POP DUP1 DUP3 GT ISZERO PUSH2 0x2B9B JUMPI DUP3 DUP4 REVERT JUMPDEST POP PUSH2 0x2B19 DUP10 DUP3 DUP11 ADD PUSH2 0x287C JUMP JUMPDEST PUSH1 0x0 DUP1 PUSH1 0x0 DUP1 PUSH1 0x0 DUP1 PUSH1 0x0 PUSH1 0xE0 DUP9 DUP11 SUB SLT ISZERO PUSH2 0x2BC2 JUMPI DUP5 DUP6 REVERT JUMPDEST DUP8 CALLDATALOAD PUSH2 0x2BCD DUP2 PUSH2 0x3498 JUMP JUMPDEST SWAP7 POP PUSH1 0x20 DUP9 ADD CALLDATALOAD SWAP6 POP PUSH1 0x40 DUP9 ADD CALLDATALOAD SWAP5 POP PUSH1 0x60 DUP9 ADD CALLDATALOAD PUSH8 0xFFFFFFFFFFFFFFFF DUP1 DUP3 GT ISZERO PUSH2 0x2BF7 JUMPI DUP3 DUP4 REVERT JUMPDEST PUSH2 0x2C03 DUP12 DUP4 DUP13 ADD PUSH2 0x287C JUMP JUMPDEST SWAP6 POP PUSH1 0x80 DUP11 ADD CALLDATALOAD SWAP5 POP PUSH1 0xA0 DUP11 ADD CALLDATALOAD SWAP2 POP DUP1 DUP3 GT ISZERO PUSH2 0x2C1F JUMPI DUP3 DUP4 REVERT JUMPDEST POP PUSH2 0x2C2C DUP11 DUP3 DUP12 ADD PUSH2 0x287C JUMP JUMPDEST SWAP3 POP POP PUSH1 0xC0 DUP9 ADD CALLDATALOAD SWAP1 POP SWAP3 SWAP6 SWAP9 SWAP2 SWAP5 SWAP8 POP SWAP3 SWAP6 POP JUMP JUMPDEST PUSH1 0x0 DUP1 PUSH1 0x0 DUP1 PUSH1 0x0 DUP1 PUSH1 0x0 DUP1 PUSH1 0x0 PUSH2 0x120 DUP11 DUP13 SUB SLT ISZERO PUSH2 0x2C60 JUMPI DUP3 DUP4 REVERT JUMPDEST DUP10 CALLDATALOAD PUSH2 0x2C6B DUP2 PUSH2 0x3498 JUMP JUMPDEST SWAP9 POP PUSH1 0x20 DUP11 ADD CALLDATALOAD SWAP8 POP PUSH1 0x40 DUP11 ADD CALLDATALOAD SWAP7 POP PUSH1 0x60 DUP11 ADD CALLDATALOAD SWAP6 POP PUSH1 0x80 DUP11 ADD CALLDATALOAD SWAP5 POP PUSH1 0xA0 DUP11 ADD CALLDATALOAD PUSH8 0xFFFFFFFFFFFFFFFF DUP1 DUP3 GT ISZERO PUSH2 0x2CA3 JUMPI DUP5 DUP6 REVERT JUMPDEST PUSH2 0x2CAF DUP14 DUP4 DUP15 ADD PUSH2 0x287C JUMP JUMPDEST SWAP6 POP PUSH1 0xC0 DUP13 ADD CALLDATALOAD SWAP5 POP PUSH1 0xE0 DUP13 ADD CALLDATALOAD SWAP4 POP PUSH2 0x100 DUP13 ADD CALLDATALOAD SWAP2 POP DUP1 DUP3 GT ISZERO PUSH2 0x2CD3 JUMPI DUP3 DUP4 REVERT JUMPDEST POP PUSH2 0x2CE0 DUP13 DUP3 DUP14 ADD PUSH2 0x287C JUMP JUMPDEST SWAP2 POP POP SWAP3 SWAP6 SWAP9 POP SWAP3 SWAP6 SWAP9 POP SWAP3 SWAP6 SWAP9 JUMP JUMPDEST PUSH1 0x0 PUSH1 0x20 DUP3 DUP5 SUB SLT ISZERO PUSH2 0x2D01 JUMPI DUP1 DUP2 REVERT JUMPDEST POP CALLDATALOAD SWAP2 SWAP1 POP JUMP JUMPDEST PUSH1 0x0 PUSH1 0x20 DUP3 DUP5 SUB SLT ISZERO PUSH2 0x2D19 JUMPI DUP1 DUP2 REVERT JUMPDEST POP MLOAD SWAP2 SWAP1 POP JUMP JUMPDEST PUSH1 0x0 DUP1 PUSH1 0x0 DUP1 PUSH1 0x0 DUP1 PUSH1 0x0 DUP1 PUSH1 0x0 DUP1 PUSH1 0x0 DUP1 PUSH2 0x180 DUP14 DUP16 SUB SLT ISZERO PUSH2 0x2D42 JUMPI DUP6 DUP7 REVERT JUMPDEST DUP13 CALLDATALOAD SWAP12 POP PUSH2 0x2D52 PUSH1 0x20 DUP15 ADD PUSH2 0x2750 JUMP JUMPDEST SWAP11 POP PUSH1 0x40 DUP14 ADD CALLDATALOAD SWAP10 POP PUSH8 0xFFFFFFFFFFFFFFFF PUSH1 0x60 DUP15 ADD CALLDATALOAD GT ISZERO PUSH2 0x2D73 JUMPI DUP6 DUP7 REVERT JUMPDEST PUSH2 0x2D83 DUP15 PUSH1 0x60 DUP16 ADD CALLDATALOAD DUP16 ADD PUSH2 0x287C JUMP JUMPDEST SWAP12 SWAP15 SWAP11 SWAP14 POP SWAP9 SWAP12 PUSH1 0x80 DUP2 ADD CALLDATALOAD SWAP11 PUSH1 0xA0 DUP3 ADD CALLDATALOAD SWAP11 POP PUSH1 0xC0 DUP3 ADD CALLDATALOAD SWAP10 POP PUSH1 0xE0 DUP3 ADD CALLDATALOAD SWAP9 POP PUSH2 0x100 DUP3 ADD CALLDATALOAD SWAP8 POP PUSH2 0x120 DUP3 ADD CALLDATALOAD SWAP7 POP PUSH2 0x140 DUP3 ADD CALLDATALOAD SWAP6 POP PUSH2 0x160 SWAP1 SWAP2 ADD CALLDATALOAD SWAP4 POP SWAP2 POP POP JUMP JUMPDEST PUSH1 0x1 PUSH1 0x1 PUSH1 0xA0 SHL SUB AND SWAP1 MSTORE JUMP JUMPDEST PUSH1 0x0 DUP2 MLOAD DUP1 DUP5 MSTORE PUSH2 0x2DF0 DUP2 PUSH1 0x20 DUP7 ADD PUSH1 0x20 DUP7 ADD PUSH2 0x33BE JUMP JUMPDEST PUSH1 0x1F ADD PUSH1 0x1F NOT AND SWAP3 SWAP1 SWAP3 ADD PUSH1 0x20 ADD SWAP3 SWAP2 POP POP JUMP JUMPDEST PUSH1 0x0 DUP3 MLOAD PUSH2 0x2E16 DUP2 DUP5 PUSH1 0x20 DUP8 ADD PUSH2 0x33BE JUMP JUMPDEST SWAP2 SWAP1 SWAP2 ADD SWAP3 SWAP2 POP POP JUMP JUMPDEST PUSH1 0x1 PUSH1 0x1 PUSH1 0xA0 SHL SUB SWAP2 SWAP1 SWAP2 AND DUP2 MSTORE PUSH1 0x20 ADD SWAP1 JUMP JUMPDEST PUSH1 0x1 PUSH1 0x1 PUSH1 0xA0 SHL SUB SWAP4 DUP5 AND DUP2 MSTORE SWAP2 SWAP1 SWAP3 AND PUSH1 0x20 DUP3 ADD MSTORE PUSH1 0x40 DUP2 ADD SWAP2 SWAP1 SWAP2 MSTORE PUSH1 0x60 ADD SWAP1 JUMP JUMPDEST PUSH1 0x1 PUSH1 0x1 PUSH1 0xA0 SHL SUB SWAP3 SWAP1 SWAP3 AND DUP3 MSTORE PUSH1 0x20 DUP3 ADD MSTORE PUSH1 0x40 ADD SWAP1 JUMP JUMPDEST PUSH1 0x20 DUP1 DUP3 MSTORE DUP3 MLOAD DUP3 DUP3 ADD DUP2 SWAP1 MSTORE PUSH1 0x0 SWAP2 SWAP1 DUP5 DUP3 ADD SWAP1 PUSH1 0x40 DUP6 ADD SWAP1 DUP5 JUMPDEST DUP2 DUP2 LT ISZERO PUSH2 0x2EA9 JUMPI DUP4 MLOAD DUP4 MSTORE SWAP3 DUP5 ADD SWAP3 SWAP2 DUP5 ADD SWAP2 PUSH1 0x1 ADD PUSH2 0x2E8D JUMP JUMPDEST POP SWAP1 SWAP7 SWAP6 POP POP POP POP POP POP JUMP JUMPDEST SWAP1 ISZERO ISZERO DUP2 MSTORE PUSH1 0x20 ADD SWAP1 JUMP JUMPDEST PUSH1 0x0 DUP7 ISZERO ISZERO DUP3 MSTORE DUP6 PUSH1 0x20 DUP4 ADD MSTORE DUP5 PUSH1 0x40 DUP4 ADD MSTORE PUSH1 0xA0 PUSH1 0x60 DUP4 ADD MSTORE PUSH2 0x2EE7 PUSH1 0xA0 DUP4 ADD DUP6 PUSH2 0x2DD8 JUMP JUMPDEST DUP3 DUP2 SUB PUSH1 0x80 DUP5 ADD MSTORE PUSH2 0xBD5 DUP2 DUP6 PUSH2 0x2DD8 JUMP JUMPDEST PUSH1 0x0 PUSH1 0x20 DUP3 MSTORE PUSH2 0x190B PUSH1 0x20 DUP4 ADD DUP5 PUSH2 0x2DD8 JUMP JUMPDEST PUSH1 0x20 DUP1 DUP3 MSTORE PUSH1 0x14 SWAP1 DUP3 ADD MSTORE PUSH20 0x1BDC99195C88191BD95CC81B9BDD08195E1A5CDD PUSH1 0x62 SHL PUSH1 0x40 DUP3 ADD MSTORE PUSH1 0x60 ADD SWAP1 JUMP JUMPDEST PUSH1 0x20 DUP1 DUP3 MSTORE PUSH1 0xE SWAP1 DUP3 ADD MSTORE PUSH14 0x1B585C99DA5B881B9BC819DBDBD9 PUSH1 0x92 SHL PUSH1 0x40 DUP3 ADD MSTORE PUSH1 0x60 ADD SWAP1 JUMP JUMPDEST PUSH1 0x20 DUP1 DUP3 MSTORE PUSH1 0x26 SWAP1 DUP3 ADD MSTORE PUSH32 0x4F776E61626C653A206E6577206F776E657220697320746865207A65726F2061 PUSH1 0x40 DUP3 ADD MSTORE PUSH6 0x646472657373 PUSH1 0xD0 SHL PUSH1 0x60 DUP3 ADD MSTORE PUSH1 0x80 ADD SWAP1 JUMP JUMPDEST PUSH1 0x20 DUP1 DUP3 MSTORE PUSH1 0xA SWAP1 DUP3 ADD MSTORE PUSH10 0x37B930B1B6329032B939 PUSH1 0xB1 SHL PUSH1 0x40 DUP3 ADD MSTORE PUSH1 0x60 ADD SWAP1 JUMP JUMPDEST PUSH1 0x20 DUP1 DUP3 MSTORE PUSH1 0x24 SWAP1 DUP3 ADD MSTORE PUSH32 0x6578656375746F723A2063616C6C6572206973206E6F74207468652065786563 PUSH1 0x40 DUP3 ADD MSTORE PUSH4 0x3ABA37B9 PUSH1 0xE1 SHL PUSH1 0x60 DUP3 ADD MSTORE PUSH1 0x80 ADD SWAP1 JUMP JUMPDEST PUSH1 0x20 DUP1 DUP3 MSTORE PUSH1 0x26 SWAP1 DUP3 ADD MSTORE PUSH32 0x416464726573733A20696E73756666696369656E742062616C616E636520666F PUSH1 0x40 DUP3 ADD MSTORE PUSH6 0x1C8818D85B1B PUSH1 0xD2 SHL PUSH1 0x60 DUP3 ADD MSTORE PUSH1 0x80 ADD SWAP1 JUMP JUMPDEST PUSH1 0x20 DUP1 DUP3 MSTORE PUSH1 0x2E SWAP1 DUP3 ADD MSTORE PUSH32 0x496E697469616C697A61626C653A20636F6E747261637420697320616C726561 PUSH1 0x40 DUP3 ADD MSTORE PUSH14 0x191E481A5B9A5D1A585B1A5E9959 PUSH1 0x92 SHL PUSH1 0x60 DUP3 ADD MSTORE PUSH1 0x80 ADD SWAP1 JUMP JUMPDEST PUSH1 0x20 DUP1 DUP3 MSTORE PUSH1 0x23 SWAP1 DUP3 ADD MSTORE PUSH32 0x546865207472616E73616374696F6E20616D6F756E7420697320746F6F20736D PUSH1 0x40 DUP3 ADD MSTORE PUSH3 0x185B1B PUSH1 0xEA SHL PUSH1 0x60 DUP3 ADD MSTORE PUSH1 0x80 ADD SWAP1 JUMP JUMPDEST PUSH1 0x20 DUP1 DUP3 MSTORE PUSH1 0x10 SWAP1 DUP3 ADD MSTORE PUSH16 0x155CD95C881A5CC818985B9ADC9D5C1D PUSH1 0x82 SHL PUSH1 0x40 DUP3 ADD MSTORE PUSH1 0x60 ADD SWAP1 JUMP JUMPDEST PUSH1 0x20 DUP1 DUP3 MSTORE DUP2 DUP2 ADD MSTORE PUSH32 0x4F776E61626C653A2063616C6C6572206973206E6F7420746865206F776E6572 PUSH1 0x40 DUP3 ADD MSTORE PUSH1 0x60 ADD SWAP1 JUMP JUMPDEST PUSH1 0x20 DUP1 DUP3 MSTORE PUSH1 0x1D SWAP1 DUP3 ADD MSTORE PUSH32 0x416464726573733A2063616C6C20746F206E6F6E2D636F6E7472616374000000 PUSH1 0x40 DUP3 ADD MSTORE PUSH1 0x60 ADD SWAP1 JUMP JUMPDEST PUSH1 0x20 DUP1 DUP3 MSTORE PUSH1 0xA SWAP1 DUP3 ADD MSTORE PUSH10 0x3632B733BA341032B939 PUSH1 0xB1 SHL PUSH1 0x40 DUP3 ADD MSTORE PUSH1 0x60 ADD SWAP1 JUMP JUMPDEST PUSH1 0x20 DUP1 DUP3 MSTORE PUSH1 0x8 SWAP1 DUP3 ADD MSTORE PUSH8 0x3AB9B2B91032B939 PUSH1 0xC1 SHL PUSH1 0x40 DUP3 ADD MSTORE PUSH1 0x60 ADD SWAP1 JUMP JUMPDEST PUSH1 0x20 DUP1 DUP3 MSTORE PUSH1 0x9 SWAP1 DUP3 ADD MSTORE PUSH9 0x39BA30BA329032B939 PUSH1 0xB9 SHL PUSH1 0x40 DUP3 ADD MSTORE PUSH1 0x60 ADD SWAP1 JUMP JUMPDEST PUSH1 0x20 DUP1 DUP3 MSTORE PUSH1 0x2A SWAP1 DUP3 ADD MSTORE PUSH32 0x5361666545524332303A204552433230206F7065726174696F6E20646964206E PUSH1 0x40 DUP3 ADD MSTORE PUSH10 0x1BDD081CDD58D8D95959 PUSH1 0xB2 SHL PUSH1 0x60 DUP3 ADD MSTORE PUSH1 0x80 ADD SWAP1 JUMP JUMPDEST PUSH1 0x20 DUP1 DUP3 MSTORE PUSH1 0xB SWAP1 DUP3 ADD MSTORE PUSH11 0x185C9C881B9BC819DBDBD9 PUSH1 0xAA SHL PUSH1 0x40 DUP3 ADD MSTORE PUSH1 0x60 ADD SWAP1 JUMP JUMPDEST PUSH1 0x0 PUSH1 0x20 DUP3 MSTORE PUSH2 0x3269 PUSH1 0x20 DUP4 ADD DUP5 MLOAD PUSH2 0x2DCB JUMP JUMPDEST PUSH1 0x20 DUP4 ADD MLOAD PUSH1 0x40 DUP4 ADD MSTORE PUSH1 0x40 DUP4 ADD MLOAD PUSH2 0x160 DUP1 PUSH1 0x60 DUP6 ADD MSTORE PUSH2 0x328F PUSH2 0x180 DUP6 ADD DUP4 PUSH2 0x2DD8 JUMP JUMPDEST SWAP2 POP PUSH1 0x60 DUP6 ADD MLOAD PUSH1 0x80 DUP6 ADD MSTORE PUSH1 0x80 DUP6 ADD MLOAD PUSH1 0xA0 DUP6 ADD MSTORE PUSH1 0xA0 DUP6 ADD MLOAD PUSH1 0xC0 DUP6 ADD MSTORE PUSH1 0xC0 DUP6 ADD MLOAD PUSH1 0xE0 DUP6 ADD MSTORE PUSH1 0xE0 DUP6 ADD MLOAD PUSH2 0x100 DUP2 DUP2 DUP8 ADD MSTORE DUP1 DUP8 ADD MLOAD SWAP2 POP POP PUSH2 0x120 DUP2 DUP2 DUP8 ADD MSTORE DUP1 DUP8 ADD MLOAD SWAP2 POP POP PUSH2 0x140 DUP2 DUP2 DUP8 ADD MSTORE DUP1 DUP8 ADD MLOAD DUP4 DUP8 ADD MSTORE POP POP POP DUP1 SWAP2 POP POP SWAP3 SWAP2 POP POP JUMP JUMPDEST SWAP1 DUP2 MSTORE PUSH1 0x20 ADD SWAP1 JUMP JUMPDEST PUSH1 0x40 MLOAD DUP2 DUP2 ADD PUSH8 0xFFFFFFFFFFFFFFFF DUP2 GT DUP3 DUP3 LT OR ISZERO PUSH2 0x3324 JUMPI PUSH2 0x3324 PUSH2 0x346D JUMP JUMPDEST PUSH1 0x40 MSTORE SWAP2 SWAP1 POP JUMP JUMPDEST PUSH1 0x0 PUSH8 0xFFFFFFFFFFFFFFFF DUP3 GT ISZERO PUSH2 0x3346 JUMPI PUSH2 0x3346 PUSH2 0x346D JUMP JUMPDEST POP PUSH1 0x20 SWAP1 DUP2 MUL ADD SWAP1 JUMP JUMPDEST PUSH1 0x0 DUP3 NOT DUP3 GT ISZERO PUSH2 0x3363 JUMPI PUSH2 0x3363 PUSH2 0x3457 JUMP JUMPDEST POP ADD SWAP1 JUMP JUMPDEST PUSH1 0x0 DUP3 PUSH2 0x3383 JUMPI PUSH4 0x4E487B71 PUSH1 0xE0 SHL DUP2 MSTORE PUSH1 0x12 PUSH1 0x4 MSTORE PUSH1 0x24 DUP2 REVERT JUMPDEST POP DIV SWAP1 JUMP JUMPDEST PUSH1 0x0 DUP2 PUSH1 0x0 NOT DIV DUP4 GT DUP3 ISZERO ISZERO AND ISZERO PUSH2 0x33A2 JUMPI PUSH2 0x33A2 PUSH2 0x3457 JUMP JUMPDEST POP MUL SWAP1 JUMP JUMPDEST PUSH1 0x0 DUP3 DUP3 LT ISZERO PUSH2 0x33B9 JUMPI PUSH2 0x33B9 PUSH2 0x3457 JUMP JUMPDEST POP SUB SWAP1 JUMP JUMPDEST PUSH1 0x0 JUMPDEST DUP4 DUP2 LT ISZERO PUSH2 0x33D9 JUMPI DUP2 DUP2 ADD MLOAD DUP4 DUP3 ADD MSTORE PUSH1 0x20 ADD PUSH2 0x33C1 JUMP JUMPDEST DUP4 DUP2 GT ISZERO PUSH2 0x2241 JUMPI POP POP PUSH1 0x0 SWAP2 ADD MSTORE JUMP JUMPDEST PUSH1 0x0 DUP2 PUSH2 0x33F9 JUMPI PUSH2 0x33F9 PUSH2 0x3457 JUMP JUMPDEST POP PUSH1 0x0 NOT ADD SWAP1 JUMP JUMPDEST PUSH1 0x2 DUP2 DIV PUSH1 0x1 DUP3 AND DUP1 PUSH2 0x3415 JUMPI PUSH1 0x7F DUP3 AND SWAP2 POP JUMPDEST PUSH1 0x20 DUP3 LT DUP2 EQ ISZERO PUSH2 0x3436 JUMPI PUSH4 0x4E487B71 PUSH1 0xE0 SHL PUSH1 0x0 MSTORE PUSH1 0x22 PUSH1 0x4 MSTORE PUSH1 0x24 PUSH1 0x0 REVERT JUMPDEST POP SWAP2 SWAP1 POP JUMP JUMPDEST PUSH1 0x0 PUSH1 0x0 NOT DUP3 EQ ISZERO PUSH2 0x3450 JUMPI PUSH2 0x3450 PUSH2 0x3457 JUMP JUMPDEST POP PUSH1 0x1 ADD SWAP1 JUMP JUMPDEST PUSH4 0x4E487B71 PUSH1 0xE0 SHL PUSH1 0x0 MSTORE PUSH1 0x11 PUSH1 0x4 MSTORE PUSH1 0x24 PUSH1 0x0 REVERT JUMPDEST PUSH4 0x4E487B71 PUSH1 0xE0 SHL PUSH1 0x0 MSTORE PUSH1 0x41 PUSH1 0x4 MSTORE PUSH1 0x24 PUSH1 0x0 REVERT JUMPDEST PUSH1 0x1 PUSH1 0x1 PUSH1 0xA0 SHL SUB DUP2 AND DUP2 EQ PUSH2 0x16AF JUMPI PUSH1 0x0 DUP1 REVERT JUMPDEST DUP1 ISZERO ISZERO DUP2 EQ PUSH2 0x16AF JUMPI PUSH1 0x0 DUP1 REVERT INVALID LOG2 PUSH5 0x6970667358 0x22 SLT KECCAK256 CALL PUSH21 0x4B096BE2ECBAF9F79CDD0A778B1E0DCBA4BD74BA21 PUSH6 0x7E2E2C861BC3 0xA5 0xC0 PUSH5 0x736F6C6343 STOP ADDMOD STOP STOP CALLER "
				},
				"gasEstimates": {
					"creation": {
						"codeDepositCost": "2706400",
						"executionCost": "2938",
						"totalCost": "2709338"
					},
					"external": {
						"OrderIndex()": "1116",
						"PRECISION()": "1095",
						"adjustPosition(bool,uint256,uint256,string,uint256,bytes,uint256)": "infinite",
						"closePosition(bool,uint256,uint256,string,uint256,bytes)": "infinite",
						"executor(address)": "1304",
						"feePercent()": "1096",
						"forcedLiquidation(bool,uint256,uint256,string,uint256,bytes)": "infinite",
						"helperLogic()": "1116",
						"initialize(address,address,address,address)": "infinite",
						"liquidation(bool,uint256[],uint256[],string[],uint256[],bytes[])": "infinite",
						"minVal()": "1072",
						"myCloseOrderIdList(address,uint256)": "2248",
						"myCloseOrderIdListLength(address)": "1353",
						"myCloseOrderIdList_index(address,uint256)": "1450",
						"myOpenOrderIdList(address,uint256)": "2270",
						"myOpenOrderIdListLength(address)": "1331",
						"myOpenOrderIdList_index(address,uint256)": "1428",
						"openOrderIdList(uint256)": "2065",
						"openOrderIdList_index(uint256)": "1283",
						"openPosition(bool,uint256,uint256,uint256,uint256,string,uint256,uint256,bytes)": "infinite",
						"oracle()": "1116",
						"orderInfo(uint256)": "infinite",
						"owner()": "1160",
						"pagination(address,uint256,uint256,uint256)": "infinite",
						"renounceOwnership()": "23574",
						"setExecutor(address,bool)": "infinite",
						"setFeePercent(uint256)": "21360",
						"setOrderInfo(uint256,address,uint256,string,uint256,uint256,uint256,uint256,uint256,uint256,uint256,uint256)": "infinite",
						"setSigner(address)": "22298",
						"setmyOpenOrderIdList_index(address,uint256,uint256)": "20590",
						"signer()": "1138",
						"transferOwnership(address)": "infinite",
						"usc()": "1160"
					},
					"internal": {
						"_closePosition(bool,struct mirrorseaMain.OrderInfo storage pointer,uint256,uint256,uint256,string memory,uint256,bytes memory)": "infinite",
						"_isSolvent(uint256,uint256,uint256)": "infinite",
						"cutListItem(uint256,mapping(uint256 => uint256),uint256[] storage pointer)": "75481"
					}
				},
				"methodIdentifiers": {
					"OrderIndex()": "f7ab69fd",
					"PRECISION()": "aaf5eb68",
					"adjustPosition(bool,uint256,uint256,string,uint256,bytes,uint256)": "a8ecb028",
					"closePosition(bool,uint256,uint256,string,uint256,bytes)": "6e812437",
					"executor(address)": "48c7e528",
					"feePercent()": "7fd6f15c",
					"forcedLiquidation(bool,uint256,uint256,string,uint256,bytes)": "a0ad12e2",
					"helperLogic()": "1e64610c",
					"initialize(address,address,address,address)": "f8c8765e",
					"liquidation(bool,uint256[],uint256[],string[],uint256[],bytes[])": "4b989ce3",
					"minVal()": "f14053ad",
					"myCloseOrderIdList(address,uint256)": "ec4c4f34",
					"myCloseOrderIdListLength(address)": "aecf77b1",
					"myCloseOrderIdList_index(address,uint256)": "f0c765e4",
					"myOpenOrderIdList(address,uint256)": "c2ec527d",
					"myOpenOrderIdListLength(address)": "e4e95520",
					"myOpenOrderIdList_index(address,uint256)": "7be3a1a1",
					"openOrderIdList(uint256)": "0f58d242",
					"openOrderIdList_index(uint256)": "43b1f3cb",
					"openPosition(bool,uint256,uint256,uint256,uint256,string,uint256,uint256,bytes)": "db4a5aa9",
					"oracle()": "7dc0d1d0",
					"orderInfo(uint256)": "6ab34a4a",
					"owner()": "8da5cb5b",
					"pagination(address,uint256,uint256,uint256)": "080270a8",
					"renounceOwnership()": "715018a6",
					"setExecutor(address,bool)": "1e1bff3f",
					"setFeePercent(uint256)": "7ce3489b",
					"setOrderInfo(uint256,address,uint256,string,uint256,uint256,uint256,uint256,uint256,uint256,uint256,uint256)": "fc234d06",
					"setSigner(address)": "6c19e783",
					"setmyOpenOrderIdList_index(address,uint256,uint256)": "1402573d",
					"signer()": "238ac933",
					"transferOwnership(address)": "f2fde38b",
					"usc()": "3011d3d5"
				}
			},
			"storageLayout": {
				"storage": [
					{
						"astId": 130,
						"contract": "contracts/mirrorseaMain.sol:mirrorseaMain",
						"label": "_initialized",
						"offset": 0,
						"slot": "0",
						"type": "t_bool"
					},
					{
						"astId": 133,
						"contract": "contracts/mirrorseaMain.sol:mirrorseaMain",
						"label": "_initializing",
						"offset": 1,
						"slot": "0",
						"type": "t_bool"
					},
					{
						"astId": 760,
						"contract": "contracts/mirrorseaMain.sol:mirrorseaMain",
						"label": "__gap",
						"offset": 0,
						"slot": "1",
						"type": "t_array(t_uint256)50_storage"
					},
					{
						"astId": 10,
						"contract": "contracts/mirrorseaMain.sol:mirrorseaMain",
						"label": "_owner",
						"offset": 0,
						"slot": "51",
						"type": "t_address"
					},
					{
						"astId": 124,
						"contract": "contracts/mirrorseaMain.sol:mirrorseaMain",
						"label": "__gap",
						"offset": 0,
						"slot": "52",
						"type": "t_array(t_uint256)49_storage"
					},
					{
						"astId": 1132,
						"contract": "contracts/mirrorseaMain.sol:mirrorseaMain",
						"label": "executor",
						"offset": 0,
						"slot": "101",
						"type": "t_mapping(t_address,t_bool)"
					},
					{
						"astId": 1134,
						"contract": "contracts/mirrorseaMain.sol:mirrorseaMain",
						"label": "signer",
						"offset": 0,
						"slot": "102",
						"type": "t_address"
					},
					{
						"astId": 1137,
						"contract": "contracts/mirrorseaMain.sol:mirrorseaMain",
						"label": "usc",
						"offset": 0,
						"slot": "103",
						"type": "t_contract(IERC20Upgradeable)248"
					},
					{
						"astId": 1140,
						"contract": "contracts/mirrorseaMain.sol:mirrorseaMain",
						"label": "helperLogic",
						"offset": 0,
						"slot": "104",
						"type": "t_contract(IhelperLogic)1086"
					},
					{
						"astId": 1143,
						"contract": "contracts/mirrorseaMain.sol:mirrorseaMain",
						"label": "oracle",
						"offset": 0,
						"slot": "105",
						"type": "t_contract(IOracle)1102"
					},
					{
						"astId": 1148,
						"contract": "contracts/mirrorseaMain.sol:mirrorseaMain",
						"label": "_orderInfo",
						"offset": 0,
						"slot": "106",
						"type": "t_mapping(t_uint256,t_struct(OrderInfo)1208_storage)"
					},
					{
						"astId": 1150,
						"contract": "contracts/mirrorseaMain.sol:mirrorseaMain",
						"label": "OrderIndex",
						"offset": 0,
						"slot": "107",
						"type": "t_uint256"
					},
					{
						"astId": 1153,
						"contract": "contracts/mirrorseaMain.sol:mirrorseaMain",
						"label": "openOrderIdList",
						"offset": 0,
						"slot": "108",
						"type": "t_array(t_uint256)dyn_storage"
					},
					{
						"astId": 1157,
						"contract": "contracts/mirrorseaMain.sol:mirrorseaMain",
						"label": "openOrderIdList_index",
						"offset": 0,
						"slot": "109",
						"type": "t_mapping(t_uint256,t_uint256)"
					},
					{
						"astId": 1162,
						"contract": "contracts/mirrorseaMain.sol:mirrorseaMain",
						"label": "myOpenOrderIdList",
						"offset": 0,
						"slot": "110",
						"type": "t_mapping(t_address,t_array(t_uint256)dyn_storage)"
					},
					{
						"astId": 1168,
						"contract": "contracts/mirrorseaMain.sol:mirrorseaMain",
						"label": "myOpenOrderIdList_index",
						"offset": 0,
						"slot": "111",
						"type": "t_mapping(t_address,t_mapping(t_uint256,t_uint256))"
					},
					{
						"astId": 1173,
						"contract": "contracts/mirrorseaMain.sol:mirrorseaMain",
						"label": "myCloseOrderIdList",
						"offset": 0,
						"slot": "112",
						"type": "t_mapping(t_address,t_array(t_uint256)dyn_storage)"
					},
					{
						"astId": 1179,
						"contract": "contracts/mirrorseaMain.sol:mirrorseaMain",
						"label": "myCloseOrderIdList_index",
						"offset": 0,
						"slot": "113",
						"type": "t_mapping(t_address,t_mapping(t_uint256,t_uint256))"
					},
					{
						"astId": 1181,
						"contract": "contracts/mirrorseaMain.sol:mirrorseaMain",
						"label": "feePercent",
						"offset": 0,
						"slot": "114",
						"type": "t_uint256"
					},
					{
						"astId": 1183,
						"contract": "contracts/mirrorseaMain.sol:mirrorseaMain",
						"label": "PRECISION",
						"offset": 0,
						"slot": "115",
						"type": "t_uint256"
					},
					{
						"astId": 1185,
						"contract": "contracts/mirrorseaMain.sol:mirrorseaMain",
						"label": "minVal",
						"offset": 0,
						"slot": "116",
						"type": "t_uint256"
					}
				],
				"types": {
					"t_address": {
						"encoding": "inplace",
						"label": "address",
						"numberOfBytes": "20"
					},
					"t_array(t_uint256)49_storage": {
						"base": "t_uint256",
						"encoding": "inplace",
						"label": "uint256[49]",
						"numberOfBytes": "1568"
					},
					"t_array(t_uint256)50_storage": {
						"base": "t_uint256",
						"encoding": "inplace",
						"label": "uint256[50]",
						"numberOfBytes": "1600"
					},
					"t_array(t_uint256)dyn_storage": {
						"base": "t_uint256",
						"encoding": "dynamic_array",
						"label": "uint256[]",
						"numberOfBytes": "32"
					},
					"t_bool": {
						"encoding": "inplace",
						"label": "bool",
						"numberOfBytes": "1"
					},
					"t_contract(IERC20Upgradeable)248": {
						"encoding": "inplace",
						"label": "contract IERC20Upgradeable",
						"numberOfBytes": "20"
					},
					"t_contract(IOracle)1102": {
						"encoding": "inplace",
						"label": "contract IOracle",
						"numberOfBytes": "20"
					},
					"t_contract(IhelperLogic)1086": {
						"encoding": "inplace",
						"label": "contract IhelperLogic",
						"numberOfBytes": "20"
					},
					"t_mapping(t_address,t_array(t_uint256)dyn_storage)": {
						"encoding": "mapping",
						"key": "t_address",
						"label": "mapping(address => uint256[])",
						"numberOfBytes": "32",
						"value": "t_array(t_uint256)dyn_storage"
					},
					"t_mapping(t_address,t_bool)": {
						"encoding": "mapping",
						"key": "t_address",
						"label": "mapping(address => bool)",
						"numberOfBytes": "32",
						"value": "t_bool"
					},
					"t_mapping(t_address,t_mapping(t_uint256,t_uint256))": {
						"encoding": "mapping",
						"key": "t_address",
						"label": "mapping(address => mapping(uint256 => uint256))",
						"numberOfBytes": "32",
						"value": "t_mapping(t_uint256,t_uint256)"
					},
					"t_mapping(t_uint256,t_struct(OrderInfo)1208_storage)": {
						"encoding": "mapping",
						"key": "t_uint256",
						"label": "mapping(uint256 => struct mirrorseaMain.OrderInfo)",
						"numberOfBytes": "32",
						"value": "t_struct(OrderInfo)1208_storage"
					},
					"t_mapping(t_uint256,t_uint256)": {
						"encoding": "mapping",
						"key": "t_uint256",
						"label": "mapping(uint256 => uint256)",
						"numberOfBytes": "32",
						"value": "t_uint256"
					},
					"t_string_storage": {
						"encoding": "bytes",
						"label": "string",
						"numberOfBytes": "32"
					},
					"t_struct(OrderInfo)1208_storage": {
						"encoding": "inplace",
						"label": "struct mirrorseaMain.OrderInfo",
						"members": [
							{
								"astId": 1187,
								"contract": "contracts/mirrorseaMain.sol:mirrorseaMain",
								"label": "user",
								"offset": 0,
								"slot": "0",
								"type": "t_address"
							},
							{
								"astId": 1189,
								"contract": "contracts/mirrorseaMain.sol:mirrorseaMain",
								"label": "_type",
								"offset": 0,
								"slot": "1",
								"type": "t_uint256"
							},
							{
								"astId": 1191,
								"contract": "contracts/mirrorseaMain.sol:mirrorseaMain",
								"label": "symbols",
								"offset": 0,
								"slot": "2",
								"type": "t_string_storage"
							},
							{
								"astId": 1193,
								"contract": "contracts/mirrorseaMain.sol:mirrorseaMain",
								"label": "state",
								"offset": 0,
								"slot": "3",
								"type": "t_uint256"
							},
							{
								"astId": 1195,
								"contract": "contracts/mirrorseaMain.sol:mirrorseaMain",
								"label": "direction",
								"offset": 0,
								"slot": "4",
								"type": "t_uint256"
							},
							{
								"astId": 1197,
								"contract": "contracts/mirrorseaMain.sol:mirrorseaMain",
								"label": "openPrice18",
								"offset": 0,
								"slot": "5",
								"type": "t_uint256"
							},
							{
								"astId": 1199,
								"contract": "contracts/mirrorseaMain.sol:mirrorseaMain",
								"label": "openTime",
								"offset": 0,
								"slot": "6",
								"type": "t_uint256"
							},
							{
								"astId": 1201,
								"contract": "contracts/mirrorseaMain.sol:mirrorseaMain",
								"label": "closePrice18",
								"offset": 0,
								"slot": "7",
								"type": "t_uint256"
							},
							{
								"astId": 1203,
								"contract": "contracts/mirrorseaMain.sol:mirrorseaMain",
								"label": "closeTime",
								"offset": 0,
								"slot": "8",
								"type": "t_uint256"
							},
							{
								"astId": 1205,
								"contract": "contracts/mirrorseaMain.sol:mirrorseaMain",
								"label": "amt",
								"offset": 0,
								"slot": "9",
								"type": "t_uint256"
							},
							{
								"astId": 1207,
								"contract": "contracts/mirrorseaMain.sol:mirrorseaMain",
								"label": "margin",
								"offset": 0,
								"slot": "10",
								"type": "t_uint256"
							}
						],
						"numberOfBytes": "352"
					},
					"t_uint256": {
						"encoding": "inplace",
						"label": "uint256",
						"numberOfBytes": "32"
					}
				}
			},
			"userdoc": {
				"kind": "user",
				"methods": {},
				"version": 1
			}
		}
	}
}