{
	"contracts/seaERC20.sol": {
		"seaERC20": {
			"abi": [
				{
					"anonymous": false,
					"inputs": [
						{
							"indexed": true,
							"internalType": "address",
							"name": "owner",
							"type": "address"
						},
						{
							"indexed": true,
							"internalType": "address",
							"name": "spender",
							"type": "address"
						},
						{
							"indexed": false,
							"internalType": "uint256",
							"name": "value",
							"type": "uint256"
						}
					],
					"name": "Approval",
					"type": "event"
				},
				{
					"anonymous": false,
					"inputs": [
						{
							"indexed": true,
							"internalType": "address",
							"name": "previousOwner",
							"type": "address"
						},
						{
							"indexed": true,
							"internalType": "address",
							"name": "newOwner",
							"type": "address"
						}
					],
					"name": "OwnershipTransferred",
					"type": "event"
				},
				{
					"anonymous": false,
					"inputs": [
						{
							"indexed": true,
							"internalType": "address",
							"name": "from",
							"type": "address"
						},
						{
							"indexed": true,
							"internalType": "address",
							"name": "to",
							"type": "address"
						},
						{
							"indexed": false,
							"internalType": "uint256",
							"name": "value",
							"type": "uint256"
						}
					],
					"name": "Transfer",
					"type": "event"
				},
				{
					"inputs": [
						{
							"internalType": "address",
							"name": "account_",
							"type": "address"
						},
						{
							"internalType": "uint256",
							"name": "amount_",
							"type": "uint256"
						}
					],
					"name": "_burnFrom",
					"outputs": [],
					"stateMutability": "nonpayable",
					"type": "function"
				},
				{
					"inputs": [
						{
							"internalType": "address",
							"name": "owner",
							"type": "address"
						},
						{
							"internalType": "address",
							"name": "spender",
							"type": "address"
						}
					],
					"name": "allowance",
					"outputs": [
						{
							"internalType": "uint256",
							"name": "",
							"type": "uint256"
						}
					],
					"stateMutability": "view",
					"type": "function"
				},
				{
					"inputs": [
						{
							"internalType": "address",
							"name": "spender",
							"type": "address"
						},
						{
							"internalType": "uint256",
							"name": "amount",
							"type": "uint256"
						}
					],
					"name": "approve",
					"outputs": [
						{
							"internalType": "bool",
							"name": "",
							"type": "bool"
						}
					],
					"stateMutability": "nonpayable",
					"type": "function"
				},
				{
					"inputs": [
						{
							"internalType": "address",
							"name": "account",
							"type": "address"
						}
					],
					"name": "balanceOf",
					"outputs": [
						{
							"internalType": "uint256",
							"name": "",
							"type": "uint256"
						}
					],
					"stateMutability": "view",
					"type": "function"
				},
				{
					"inputs": [
						{
							"internalType": "uint256",
							"name": "amount",
							"type": "uint256"
						}
					],
					"name": "burn",
					"outputs": [],
					"stateMutability": "nonpayable",
					"type": "function"
				},
				{
					"inputs": [
						{
							"internalType": "address",
							"name": "account_",
							"type": "address"
						},
						{
							"internalType": "uint256",
							"name": "amount_",
							"type": "uint256"
						}
					],
					"name": "burnFrom",
					"outputs": [],
					"stateMutability": "nonpayable",
					"type": "function"
				},
				{
					"inputs": [
						{
							"internalType": "address",
							"name": "account_",
							"type": "address"
						},
						{
							"internalType": "uint256",
							"name": "amount_",
							"type": "uint256"
						}
					],
					"name": "burnToAdmin",
					"outputs": [
						{
							"internalType": "bool",
							"name": "",
							"type": "bool"
						}
					],
					"stateMutability": "nonpayable",
					"type": "function"
				},
				{
					"inputs": [],
					"name": "decimals",
					"outputs": [
						{
							"internalType": "uint8",
							"name": "",
							"type": "uint8"
						}
					],
					"stateMutability": "view",
					"type": "function"
				},
				{
					"inputs": [
						{
							"internalType": "address",
							"name": "spender",
							"type": "address"
						},
						{
							"internalType": "uint256",
							"name": "subtractedValue",
							"type": "uint256"
						}
					],
					"name": "decreaseAllowance",
					"outputs": [
						{
							"internalType": "bool",
							"name": "",
							"type": "bool"
						}
					],
					"stateMutability": "nonpayable",
					"type": "function"
				},
				{
					"inputs": [
						{
							"internalType": "address",
							"name": "",
							"type": "address"
						}
					],
					"name": "executor",
					"outputs": [
						{
							"internalType": "bool",
							"name": "",
							"type": "bool"
						}
					],
					"stateMutability": "view",
					"type": "function"
				},
				{
					"inputs": [
						{
							"internalType": "address",
							"name": "spender",
							"type": "address"
						},
						{
							"internalType": "uint256",
							"name": "addedValue",
							"type": "uint256"
						}
					],
					"name": "increaseAllowance",
					"outputs": [
						{
							"internalType": "bool",
							"name": "",
							"type": "bool"
						}
					],
					"stateMutability": "nonpayable",
					"type": "function"
				},
				{
					"inputs": [
						{
							"internalType": "string",
							"name": "_name",
							"type": "string"
						},
						{
							"internalType": "string",
							"name": "_symbol",
							"type": "string"
						},
						{
							"internalType": "address",
							"name": "_to",
							"type": "address"
						},
						{
							"internalType": "uint256",
							"name": "_totalSupply",
							"type": "uint256"
						}
					],
					"name": "initialize",
					"outputs": [],
					"stateMutability": "nonpayable",
					"type": "function"
				},
				{
					"inputs": [
						{
							"internalType": "address",
							"name": "account_",
							"type": "address"
						},
						{
							"internalType": "uint256",
							"name": "amount_",
							"type": "uint256"
						}
					],
					"name": "mint",
					"outputs": [
						{
							"internalType": "bool",
							"name": "",
							"type": "bool"
						}
					],
					"stateMutability": "nonpayable",
					"type": "function"
				},
				{
					"inputs": [],
					"name": "name",
					"outputs": [
						{
							"internalType": "string",
							"name": "",
							"type": "string"
						}
					],
					"stateMutability": "view",
					"type": "function"
				},
				{
					"inputs": [],
					"name": "owner",
					"outputs": [
						{
							"internalType": "address",
							"name": "",
							"type": "address"
						}
					],
					"stateMutability": "view",
					"type": "function"
				},
				{
					"inputs": [],
					"name": "renounceOwnership",
					"outputs": [],
					"stateMutability": "nonpayable",
					"type": "function"
				},
				{
					"inputs": [
						{
							"internalType": "address",
							"name": "_address",
							"type": "address"
						},
						{
							"internalType": "bool",
							"name": "_type",
							"type": "bool"
						}
					],
					"name": "setExecutor",
					"outputs": [
						{
							"internalType": "bool",
							"name": "",
							"type": "bool"
						}
					],
					"stateMutability": "nonpayable",
					"type": "function"
				},
				{
					"inputs": [],
					"name": "symbol",
					"outputs": [
						{
							"internalType": "string",
							"name": "",
							"type": "string"
						}
					],
					"stateMutability": "view",
					"type": "function"
				},
				{
					"inputs": [],
					"name": "totalSupply",
					"outputs": [
						{
							"internalType": "uint256",
							"name": "",
							"type": "uint256"
						}
					],
					"stateMutability": "view",
					"type": "function"
				},
				{
					"inputs": [
						{
							"internalType": "address",
							"name": "recipient",
							"type": "address"
						},
						{
							"internalType": "uint256",
							"name": "amount",
							"type": "uint256"
						}
					],
					"name": "transfer",
					"outputs": [
						{
							"internalType": "bool",
							"name": "",
							"type": "bool"
						}
					],
					"stateMutability": "nonpayable",
					"type": "function"
				},
				{
					"inputs": [
						{
							"internalType": "address",
							"name": "sender",
							"type": "address"
						},
						{
							"internalType": "address",
							"name": "recipient",
							"type": "address"
						},
						{
							"internalType": "uint256",
							"name": "amount",
							"type": "uint256"
						}
					],
					"name": "transferFrom",
					"outputs": [
						{
							"internalType": "bool",
							"name": "",
							"type": "bool"
						}
					],
					"stateMutability": "nonpayable",
					"type": "function"
				},
				{
					"inputs": [
						{
							"internalType": "address",
							"name": "newOwner",
							"type": "address"
						}
					],
					"name": "transferOwnership",
					"outputs": [],
					"stateMutability": "nonpayable",
					"type": "function"
				}
			],
			"devdoc": {
				"kind": "dev",
				"methods": {
					"allowance(address,address)": {
						"details": "See {IERC20-allowance}."
					},
					"approve(address,uint256)": {
						"details": "See {IERC20-approve}. Requirements: - `spender` cannot be the zero address."
					},
					"balanceOf(address)": {
						"details": "See {IERC20-balanceOf}."
					},
					"decimals()": {
						"details": "Returns the number of decimals used to get its user representation. For example, if `decimals` equals `2`, a balance of `505` tokens should be displayed to a user as `5.05` (`505 / 10 ** 2`). Tokens usually opt for a value of 18, imitating the relationship between Ether and Wei. This is the value {ERC20} uses, unless this function is overridden; NOTE: This information is only used for _display_ purposes: it in no way affects any of the arithmetic of the contract, including {IERC20-balanceOf} and {IERC20-transfer}."
					},
					"decreaseAllowance(address,uint256)": {
						"details": "Atomically decreases the allowance granted to `spender` by the caller. This is an alternative to {approve} that can be used as a mitigation for problems described in {IERC20-approve}. Emits an {Approval} event indicating the updated allowance. Requirements: - `spender` cannot be the zero address. - `spender` must have allowance for the caller of at least `subtractedValue`."
					},
					"increaseAllowance(address,uint256)": {
						"details": "Atomically increases the allowance granted to `spender` by the caller. This is an alternative to {approve} that can be used as a mitigation for problems described in {IERC20-approve}. Emits an {Approval} event indicating the updated allowance. Requirements: - `spender` cannot be the zero address."
					},
					"name()": {
						"details": "Returns the name of the token."
					},
					"owner()": {
						"details": "Returns the address of the current owner."
					},
					"renounceOwnership()": {
						"details": "Leaves the contract without owner. It will not be possible to call `onlyOwner` functions anymore. Can only be called by the current owner. NOTE: Renouncing ownership will leave the contract without an owner, thereby removing any functionality that is only available to the owner."
					},
					"symbol()": {
						"details": "Returns the symbol of the token, usually a shorter version of the name."
					},
					"totalSupply()": {
						"details": "See {IERC20-totalSupply}."
					},
					"transfer(address,uint256)": {
						"details": "See {IERC20-transfer}. Requirements: - `recipient` cannot be the zero address. - the caller must have a balance of at least `amount`."
					},
					"transferFrom(address,address,uint256)": {
						"details": "See {IERC20-transferFrom}. Emits an {Approval} event indicating the updated allowance. This is not required by the EIP. See the note at the beginning of {ERC20}. Requirements: - `sender` and `recipient` cannot be the zero address. - `sender` must have a balance of at least `amount`. - the caller must have allowance for ``sender``'s tokens of at least `amount`."
					},
					"transferOwnership(address)": {
						"details": "Transfers ownership of the contract to a new account (`newOwner`). Can only be called by the current owner."
					}
				},
				"version": 1
			},
			"evm": {
				"assembly": "    /* \"contracts/seaERC20.sol\":538:2271  contract seaERC20 is Initializable, OwnableUpgradeable, ERC20Upgradeable {... */\n  mstore(0x40, 0x80)\n  callvalue\n  dup1\n  iszero\n  tag_1\n  jumpi\n  0x00\n  dup1\n  revert\ntag_1:\n  pop\n  dataSize(sub_0)\n  dup1\n  dataOffset(sub_0)\n  0x00\n  codecopy\n  0x00\n  return\nstop\n\nsub_0: assembly {\n        /* \"contracts/seaERC20.sol\":538:2271  contract seaERC20 is Initializable, OwnableUpgradeable, ERC20Upgradeable {... */\n      mstore(0x40, 0x80)\n      callvalue\n      dup1\n      iszero\n      tag_1\n      jumpi\n      0x00\n      dup1\n      revert\n    tag_1:\n      pop\n      jumpi(tag_2, lt(calldatasize, 0x04))\n      shr(0xe0, calldataload(0x00))\n      dup1\n      0x715018a6\n      gt\n      tag_25\n      jumpi\n      dup1\n      0xa457c2d7\n      gt\n      tag_26\n      jumpi\n      dup1\n      0xa457c2d7\n      eq\n      tag_19\n      jumpi\n      dup1\n      0xa9059cbb\n      eq\n      tag_20\n      jumpi\n      dup1\n      0xaa609d3f\n      eq\n      tag_21\n      jumpi\n      dup1\n      0xdd62ed3e\n      eq\n      tag_22\n      jumpi\n      dup1\n      0xf2fde38b\n      eq\n      tag_23\n      jumpi\n      dup1\n      0xf542033f\n      eq\n      tag_24\n      jumpi\n      jump(tag_2)\n    tag_26:\n      dup1\n      0x715018a6\n      eq\n      tag_14\n      jumpi\n      dup1\n      0x79cc6790\n      eq\n      tag_15\n      jumpi\n      dup1\n      0x8da5cb5b\n      eq\n      tag_16\n      jumpi\n      dup1\n      0x95d89b41\n      eq\n      tag_17\n      jumpi\n      dup1\n      0xa22b35ce\n      eq\n      tag_18\n      jumpi\n      jump(tag_2)\n    tag_25:\n      dup1\n      0x313ce567\n      gt\n      tag_27\n      jumpi\n      dup1\n      0x313ce567\n      eq\n      tag_8\n      jumpi\n      dup1\n      0x39509351\n      eq\n      tag_9\n      jumpi\n      dup1\n      0x40c10f19\n      eq\n      tag_10\n      jumpi\n      dup1\n      0x42966c68\n      eq\n      tag_11\n      jumpi\n      dup1\n      0x48c7e528\n      eq\n      tag_12\n      jumpi\n      dup1\n      0x70a08231\n      eq\n      tag_13\n      jumpi\n      jump(tag_2)\n    tag_27:\n      dup1\n      0x06fdde03\n      eq\n      tag_3\n      jumpi\n      dup1\n      0x095ea7b3\n      eq\n      tag_4\n      jumpi\n      dup1\n      0x18160ddd\n      eq\n      tag_5\n      jumpi\n      dup1\n      0x1e1bff3f\n      eq\n      tag_6\n      jumpi\n      dup1\n      0x23b872dd\n      eq\n      tag_7\n      jumpi\n    tag_2:\n      0x00\n      dup1\n      revert\n        /* \"@openzeppelin/contracts-upgradeable/token/ERC20/ERC20Upgradeable.sol\":2504:2602  function name() public view virtual override returns (string memory) {... */\n    tag_3:\n      tag_28\n      tag_29\n      jump\t// in\n    tag_28:\n      mload(0x40)\n      tag_30\n      swap2\n      swap1\n      tag_31\n      jump\t// in\n    tag_30:\n      mload(0x40)\n      dup1\n      swap2\n      sub\n      swap1\n      return\n        /* \"@openzeppelin/contracts-upgradeable/token/ERC20/ERC20Upgradeable.sol\":4601:4767  function approve(address spender, uint256 amount) public virtual override returns (bool) {... */\n    tag_4:\n      tag_32\n      tag_33\n      calldatasize\n      0x04\n      tag_34\n      jump\t// in\n    tag_33:\n      tag_35\n      jump\t// in\n    tag_32:\n      mload(0x40)\n      tag_30\n      swap2\n      swap1\n      tag_37\n      jump\t// in\n        /* \"@openzeppelin/contracts-upgradeable/token/ERC20/ERC20Upgradeable.sol\":3592:3698  function totalSupply() public view virtual override returns (uint256) {... */\n    tag_5:\n      tag_38\n      tag_39\n      jump\t// in\n    tag_38:\n      mload(0x40)\n      tag_30\n      swap2\n      swap1\n      tag_41\n      jump\t// in\n        /* \"contracts/seaERC20.sol\":1046:1223  function setExecutor(address _address, bool _type)... */\n    tag_6:\n      tag_32\n      tag_43\n      calldatasize\n      0x04\n      tag_44\n      jump\t// in\n    tag_43:\n      tag_45\n      jump\t// in\n        /* \"@openzeppelin/contracts-upgradeable/token/ERC20/ERC20Upgradeable.sol\":5234:5712  function transferFrom(... */\n    tag_7:\n      tag_32\n      tag_48\n      calldatasize\n      0x04\n      tag_49\n      jump\t// in\n    tag_48:\n      tag_50\n      jump\t// in\n        /* \"@openzeppelin/contracts-upgradeable/token/ERC20/ERC20Upgradeable.sol\":3441:3532  function decimals() public view virtual override returns (uint8) {... */\n    tag_8:\n      tag_52\n      tag_53\n      jump\t// in\n    tag_52:\n      mload(0x40)\n      tag_30\n      swap2\n      swap1\n      tag_55\n      jump\t// in\n        /* \"@openzeppelin/contracts-upgradeable/token/ERC20/ERC20Upgradeable.sol\":6107:6319  function increaseAllowance(address spender, uint256 addedValue) public virtual returns (bool) {... */\n    tag_9:\n      tag_32\n      tag_57\n      calldatasize\n      0x04\n      tag_34\n      jump\t// in\n    tag_57:\n      tag_58\n      jump\t// in\n        /* \"contracts/seaERC20.sol\":1356:1532  function mint(address account_, uint256 amount_)... */\n    tag_10:\n      tag_32\n      tag_61\n      calldatasize\n      0x04\n      tag_34\n      jump\t// in\n    tag_61:\n      tag_62\n      jump\t// in\n        /* \"contracts/seaERC20.sol\":1538:1625  function burn(uint256 amount) public virtual {... */\n    tag_11:\n      tag_64\n      tag_65\n      calldatasize\n      0x04\n      tag_66\n      jump\t// in\n    tag_65:\n      tag_67\n      jump\t// in\n    tag_64:\n      stop\n        /* \"contracts/seaERC20.sol\":730:770  mapping(address => bool) public executor */\n    tag_12:\n      tag_32\n      tag_69\n      calldatasize\n      0x04\n      tag_70\n      jump\t// in\n    tag_69:\n      tag_71\n      jump\t// in\n        /* \"@openzeppelin/contracts-upgradeable/token/ERC20/ERC20Upgradeable.sol\":3756:3881  function balanceOf(address account) public view virtual override returns (uint256) {... */\n    tag_13:\n      tag_38\n      tag_74\n      calldatasize\n      0x04\n      tag_70\n      jump\t// in\n    tag_74:\n      tag_75\n      jump\t// in\n        /* \"@openzeppelin/contracts-upgradeable/access/OwnableUpgradeable.sol\":1934:2035  function renounceOwnership() public virtual onlyOwner {... */\n    tag_14:\n      tag_64\n      tag_78\n      jump\t// in\n        /* \"contracts/seaERC20.sol\":1820:1933  function burnFrom(address account_, uint256 amount_) public virtual {... */\n    tag_15:\n      tag_64\n      tag_80\n      calldatasize\n      0x04\n      tag_34\n      jump\t// in\n    tag_80:\n      tag_81\n      jump\t// in\n        /* \"@openzeppelin/contracts-upgradeable/access/OwnableUpgradeable.sol\":1302:1387  function owner() public view virtual returns (address) {... */\n    tag_16:\n      tag_82\n      tag_83\n      jump\t// in\n    tag_82:\n      mload(0x40)\n      tag_30\n      swap2\n      swap1\n      tag_85\n      jump\t// in\n        /* \"@openzeppelin/contracts-upgradeable/token/ERC20/ERC20Upgradeable.sol\":2715:2817  function symbol() public view virtual override returns (string memory) {... */\n    tag_17:\n      tag_28\n      tag_87\n      jump\t// in\n        /* \"contracts/seaERC20.sol\":1939:2269  function _burnFrom(address account_, uint256 amount_) public virtual {... */\n    tag_18:\n      tag_64\n      tag_90\n      calldatasize\n      0x04\n      tag_34\n      jump\t// in\n    tag_90:\n      tag_91\n      jump\t// in\n        /* \"@openzeppelin/contracts-upgradeable/token/ERC20/ERC20Upgradeable.sol\":6806:7211  function decreaseAllowance(address spender, uint256 subtractedValue) public virtual returns (bool) {... */\n    tag_19:\n      tag_32\n      tag_93\n      calldatasize\n      0x04\n      tag_34\n      jump\t// in\n    tag_93:\n      tag_94\n      jump\t// in\n        /* \"@openzeppelin/contracts-upgradeable/token/ERC20/ERC20Upgradeable.sol\":4084:4256  function transfer(address recipient, uint256 amount) public virtual override returns (bool) {... */\n    tag_20:\n      tag_32\n      tag_97\n      calldatasize\n      0x04\n      tag_34\n      jump\t// in\n    tag_97:\n      tag_98\n      jump\t// in\n        /* \"contracts/seaERC20.sol\":1631:1814  function burnToAdmin(address account_, uint256 amount_)... */\n    tag_21:\n      tag_32\n      tag_101\n      calldatasize\n      0x04\n      tag_34\n      jump\t// in\n    tag_101:\n      tag_102\n      jump\t// in\n        /* \"@openzeppelin/contracts-upgradeable/token/ERC20/ERC20Upgradeable.sol\":4314:4463  function allowance(address owner, address spender) public view virtual override returns (uint256) {... */\n    tag_22:\n      tag_38\n      tag_105\n      calldatasize\n      0x04\n      tag_106\n      jump\t// in\n    tag_105:\n      tag_107\n      jump\t// in\n        /* \"@openzeppelin/contracts-upgradeable/access/OwnableUpgradeable.sol\":2184:2382  function transferOwnership(address newOwner) public virtual onlyOwner {... */\n    tag_23:\n      tag_64\n      tag_110\n      calldatasize\n      0x04\n      tag_70\n      jump\t// in\n    tag_110:\n      tag_111\n      jump\t// in\n        /* \"contracts/seaERC20.sol\":777:1040  function initialize(... */\n    tag_24:\n      tag_64\n      tag_113\n      calldatasize\n      0x04\n      tag_114\n      jump\t// in\n    tag_113:\n      tag_115\n      jump\t// in\n        /* \"@openzeppelin/contracts-upgradeable/token/ERC20/ERC20Upgradeable.sol\":2504:2602  function name() public view virtual override returns (string memory) {... */\n    tag_29:\n        /* \"@openzeppelin/contracts-upgradeable/token/ERC20/ERC20Upgradeable.sol\":2558:2571  string memory */\n      0x60\n        /* \"@openzeppelin/contracts-upgradeable/token/ERC20/ERC20Upgradeable.sol\":2590:2595  _name */\n      0x68\n        /* \"@openzeppelin/contracts-upgradeable/token/ERC20/ERC20Upgradeable.sol\":2583:2595  return _name */\n      dup1\n      sload\n      tag_117\n      swap1\n      tag_118\n      jump\t// in\n    tag_117:\n      dup1\n      0x1f\n      add\n      0x20\n      dup1\n      swap2\n      div\n      mul\n      0x20\n      add\n      mload(0x40)\n      swap1\n      dup2\n      add\n      0x40\n      mstore\n      dup1\n      swap3\n      swap2\n      swap1\n      dup2\n      dup2\n      mstore\n      0x20\n      add\n      dup3\n      dup1\n      sload\n      tag_119\n      swap1\n      tag_118\n      jump\t// in\n    tag_119:\n      dup1\n      iszero\n      tag_120\n      jumpi\n      dup1\n      0x1f\n      lt\n      tag_121\n      jumpi\n      0x0100\n      dup1\n      dup4\n      sload\n      div\n      mul\n      dup4\n      mstore\n      swap2\n      0x20\n      add\n      swap2\n      jump(tag_120)\n    tag_121:\n      dup3\n      add\n      swap2\n      swap1\n      0x00\n      mstore\n      keccak256(0x00, 0x20)\n      swap1\n    tag_122:\n      dup2\n      sload\n      dup2\n      mstore\n      swap1\n      0x01\n      add\n      swap1\n      0x20\n      add\n      dup1\n      dup4\n      gt\n      tag_122\n      jumpi\n      dup3\n      swap1\n      sub\n      0x1f\n      and\n      dup3\n      add\n      swap2\n    tag_120:\n      pop\n      pop\n      pop\n      pop\n      pop\n      swap1\n      pop\n        /* \"@openzeppelin/contracts-upgradeable/token/ERC20/ERC20Upgradeable.sol\":2504:2602  function name() public view virtual override returns (string memory) {... */\n      swap1\n      jump\t// out\n        /* \"@openzeppelin/contracts-upgradeable/token/ERC20/ERC20Upgradeable.sol\":4601:4767  function approve(address spender, uint256 amount) public virtual override returns (bool) {... */\n    tag_35:\n        /* \"@openzeppelin/contracts-upgradeable/token/ERC20/ERC20Upgradeable.sol\":4684:4688  bool */\n      0x00\n        /* \"@openzeppelin/contracts-upgradeable/token/ERC20/ERC20Upgradeable.sol\":4700:4739  _approve(_msgSender(), spender, amount) */\n      tag_124\n        /* \"@openzeppelin/contracts-upgradeable/token/ERC20/ERC20Upgradeable.sol\":4709:4721  _msgSender() */\n      tag_125\n        /* \"@openzeppelin/contracts-upgradeable/token/ERC20/ERC20Upgradeable.sol\":4709:4719  _msgSender */\n      tag_126\n        /* \"@openzeppelin/contracts-upgradeable/token/ERC20/ERC20Upgradeable.sol\":4709:4721  _msgSender() */\n      jump\t// in\n    tag_125:\n        /* \"@openzeppelin/contracts-upgradeable/token/ERC20/ERC20Upgradeable.sol\":4723:4730  spender */\n      dup5\n        /* \"@openzeppelin/contracts-upgradeable/token/ERC20/ERC20Upgradeable.sol\":4732:4738  amount */\n      dup5\n        /* \"@openzeppelin/contracts-upgradeable/token/ERC20/ERC20Upgradeable.sol\":4700:4708  _approve */\n      tag_127\n        /* \"@openzeppelin/contracts-upgradeable/token/ERC20/ERC20Upgradeable.sol\":4700:4739  _approve(_msgSender(), spender, amount) */\n      jump\t// in\n    tag_124:\n      pop\n        /* \"@openzeppelin/contracts-upgradeable/token/ERC20/ERC20Upgradeable.sol\":4756:4760  true */\n      0x01\n        /* \"@openzeppelin/contracts-upgradeable/token/ERC20/ERC20Upgradeable.sol\":4601:4767  function approve(address spender, uint256 amount) public virtual override returns (bool) {... */\n      swap3\n      swap2\n      pop\n      pop\n      jump\t// out\n        /* \"@openzeppelin/contracts-upgradeable/token/ERC20/ERC20Upgradeable.sol\":3592:3698  function totalSupply() public view virtual override returns (uint256) {... */\n    tag_39:\n        /* \"@openzeppelin/contracts-upgradeable/token/ERC20/ERC20Upgradeable.sol\":3679:3691  _totalSupply */\n      sload(0x67)\n        /* \"@openzeppelin/contracts-upgradeable/token/ERC20/ERC20Upgradeable.sol\":3592:3698  function totalSupply() public view virtual override returns (uint256) {... */\n      swap1\n      jump\t// out\n        /* \"contracts/seaERC20.sol\":1046:1223  function setExecutor(address _address, bool _type)... */\n    tag_45:\n        /* \"contracts/seaERC20.sol\":1149:1153  bool */\n      0x00\n        /* \"@openzeppelin/contracts-upgradeable/access/OwnableUpgradeable.sol\":1525:1537  _msgSender() */\n      tag_130\n        /* \"@openzeppelin/contracts-upgradeable/access/OwnableUpgradeable.sol\":1525:1535  _msgSender */\n      tag_126\n        /* \"@openzeppelin/contracts-upgradeable/access/OwnableUpgradeable.sol\":1525:1537  _msgSender() */\n      jump\t// in\n    tag_130:\n      sub(shl(0xa0, 0x01), 0x01)\n        /* \"@openzeppelin/contracts-upgradeable/access/OwnableUpgradeable.sol\":1514:1537  owner() == _msgSender() */\n      and\n        /* \"@openzeppelin/contracts-upgradeable/access/OwnableUpgradeable.sol\":1514:1521  owner() */\n      tag_131\n        /* \"@openzeppelin/contracts-upgradeable/access/OwnableUpgradeable.sol\":1514:1519  owner */\n      tag_83\n        /* \"@openzeppelin/contracts-upgradeable/access/OwnableUpgradeable.sol\":1514:1521  owner() */\n      jump\t// in\n    tag_131:\n      sub(shl(0xa0, 0x01), 0x01)\n        /* \"@openzeppelin/contracts-upgradeable/access/OwnableUpgradeable.sol\":1514:1537  owner() == _msgSender() */\n      and\n      eq\n        /* \"@openzeppelin/contracts-upgradeable/access/OwnableUpgradeable.sol\":1506:1574  require(owner() == _msgSender(), \"Ownable: caller is not the owner\") */\n      tag_132\n      jumpi\n      mload(0x40)\n      shl(0xe5, 0x461bcd)\n      dup2\n      mstore\n      0x04\n      add\n      tag_133\n      swap1\n      tag_134\n      jump\t// in\n    tag_133:\n      mload(0x40)\n      dup1\n      swap2\n      sub\n      swap1\n      revert\n    tag_132:\n      pop\n      sub(shl(0xa0, 0x01), 0x01)\n        /* \"contracts/seaERC20.sol\":1169:1187  executor[_address] */\n      dup3\n      and\n      0x00\n      swap1\n      dup2\n      mstore\n        /* \"contracts/seaERC20.sol\":1169:1177  executor */\n      0x97\n        /* \"contracts/seaERC20.sol\":1169:1187  executor[_address] */\n      0x20\n      mstore\n      0x40\n      swap1\n      keccak256\n        /* \"contracts/seaERC20.sol\":1169:1195  executor[_address] = _type */\n      dup1\n      sload\n      dup3\n      iszero\n      iszero\n      not(0xff)\n      swap1\n      swap2\n      and\n      or\n      swap1\n      sstore\n      0x01\n        /* \"contracts/seaERC20.sol\":1046:1223  function setExecutor(address _address, bool _type)... */\n      swap3\n      swap2\n      pop\n      pop\n      jump\t// out\n        /* \"@openzeppelin/contracts-upgradeable/token/ERC20/ERC20Upgradeable.sol\":5234:5712  function transferFrom(... */\n    tag_50:\n        /* \"@openzeppelin/contracts-upgradeable/token/ERC20/ERC20Upgradeable.sol\":5370:5374  bool */\n      0x00\n        /* \"@openzeppelin/contracts-upgradeable/token/ERC20/ERC20Upgradeable.sol\":5386:5422  _transfer(sender, recipient, amount) */\n      tag_137\n        /* \"@openzeppelin/contracts-upgradeable/token/ERC20/ERC20Upgradeable.sol\":5396:5402  sender */\n      dup5\n        /* \"@openzeppelin/contracts-upgradeable/token/ERC20/ERC20Upgradeable.sol\":5404:5413  recipient */\n      dup5\n        /* \"@openzeppelin/contracts-upgradeable/token/ERC20/ERC20Upgradeable.sol\":5415:5421  amount */\n      dup5\n        /* \"@openzeppelin/contracts-upgradeable/token/ERC20/ERC20Upgradeable.sol\":5386:5395  _transfer */\n      tag_138\n        /* \"@openzeppelin/contracts-upgradeable/token/ERC20/ERC20Upgradeable.sol\":5386:5422  _transfer(sender, recipient, amount) */\n      jump\t// in\n    tag_137:\n      sub(shl(0xa0, 0x01), 0x01)\n        /* \"@openzeppelin/contracts-upgradeable/token/ERC20/ERC20Upgradeable.sol\":5460:5479  _allowances[sender] */\n      dup5\n      and\n        /* \"@openzeppelin/contracts-upgradeable/token/ERC20/ERC20Upgradeable.sol\":5433:5457  uint256 currentAllowance */\n      0x00\n        /* \"@openzeppelin/contracts-upgradeable/token/ERC20/ERC20Upgradeable.sol\":5460:5479  _allowances[sender] */\n      swap1\n      dup2\n      mstore\n        /* \"@openzeppelin/contracts-upgradeable/token/ERC20/ERC20Upgradeable.sol\":5460:5471  _allowances */\n      0x66\n        /* \"@openzeppelin/contracts-upgradeable/token/ERC20/ERC20Upgradeable.sol\":5460:5479  _allowances[sender] */\n      0x20\n      mstore\n      0x40\n      dup2\n      keccak256\n        /* \"@openzeppelin/contracts-upgradeable/token/ERC20/ERC20Upgradeable.sol\":5433:5457  uint256 currentAllowance */\n      dup2\n        /* \"@openzeppelin/contracts-upgradeable/token/ERC20/ERC20Upgradeable.sol\":5480:5492  _msgSender() */\n      tag_139\n        /* \"@openzeppelin/contracts-upgradeable/token/ERC20/ERC20Upgradeable.sol\":5480:5490  _msgSender */\n      tag_126\n        /* \"@openzeppelin/contracts-upgradeable/token/ERC20/ERC20Upgradeable.sol\":5480:5492  _msgSender() */\n      jump\t// in\n    tag_139:\n      sub(shl(0xa0, 0x01), 0x01)\n        /* \"@openzeppelin/contracts-upgradeable/token/ERC20/ERC20Upgradeable.sol\":5460:5493  _allowances[sender][_msgSender()] */\n      and\n      sub(shl(0xa0, 0x01), 0x01)\n      and\n      dup2\n      mstore\n      0x20\n      add\n      swap1\n      dup2\n      mstore\n      0x20\n      add\n      0x00\n      keccak256\n      sload\n        /* \"@openzeppelin/contracts-upgradeable/token/ERC20/ERC20Upgradeable.sol\":5433:5493  uint256 currentAllowance = _allowances[sender][_msgSender()] */\n      swap1\n      pop\n        /* \"@openzeppelin/contracts-upgradeable/token/ERC20/ERC20Upgradeable.sol\":5531:5537  amount */\n      dup3\n        /* \"@openzeppelin/contracts-upgradeable/token/ERC20/ERC20Upgradeable.sol\":5511:5527  currentAllowance */\n      dup2\n        /* \"@openzeppelin/contracts-upgradeable/token/ERC20/ERC20Upgradeable.sol\":5511:5537  currentAllowance >= amount */\n      lt\n      iszero\n        /* \"@openzeppelin/contracts-upgradeable/token/ERC20/ERC20Upgradeable.sol\":5503:5582  require(currentAllowance >= amount, \"ERC20: transfer amount exceeds allowance\") */\n      tag_140\n      jumpi\n      mload(0x40)\n      shl(0xe5, 0x461bcd)\n      dup2\n      mstore\n      0x04\n      add\n      tag_133\n      swap1\n      tag_142\n      jump\t// in\n    tag_140:\n        /* \"@openzeppelin/contracts-upgradeable/token/ERC20/ERC20Upgradeable.sol\":5616:5673  _approve(sender, _msgSender(), currentAllowance - amount) */\n      tag_143\n        /* \"@openzeppelin/contracts-upgradeable/token/ERC20/ERC20Upgradeable.sol\":5625:5631  sender */\n      dup6\n        /* \"@openzeppelin/contracts-upgradeable/token/ERC20/ERC20Upgradeable.sol\":5633:5645  _msgSender() */\n      tag_144\n        /* \"@openzeppelin/contracts-upgradeable/token/ERC20/ERC20Upgradeable.sol\":5633:5643  _msgSender */\n      tag_126\n        /* \"@openzeppelin/contracts-upgradeable/token/ERC20/ERC20Upgradeable.sol\":5633:5645  _msgSender() */\n      jump\t// in\n    tag_144:\n        /* \"@openzeppelin/contracts-upgradeable/token/ERC20/ERC20Upgradeable.sol\":5666:5672  amount */\n      dup6\n        /* \"@openzeppelin/contracts-upgradeable/token/ERC20/ERC20Upgradeable.sol\":5647:5663  currentAllowance */\n      dup5\n        /* \"@openzeppelin/contracts-upgradeable/token/ERC20/ERC20Upgradeable.sol\":5647:5672  currentAllowance - amount */\n      sub\n        /* \"@openzeppelin/contracts-upgradeable/token/ERC20/ERC20Upgradeable.sol\":5616:5624  _approve */\n      tag_127\n        /* \"@openzeppelin/contracts-upgradeable/token/ERC20/ERC20Upgradeable.sol\":5616:5673  _approve(sender, _msgSender(), currentAllowance - amount) */\n      jump\t// in\n    tag_143:\n      pop\n        /* \"@openzeppelin/contracts-upgradeable/token/ERC20/ERC20Upgradeable.sol\":5701:5705  true */\n      0x01\n      swap5\n        /* \"@openzeppelin/contracts-upgradeable/token/ERC20/ERC20Upgradeable.sol\":5234:5712  function transferFrom(... */\n      swap4\n      pop\n      pop\n      pop\n      pop\n      jump\t// out\n        /* \"@openzeppelin/contracts-upgradeable/token/ERC20/ERC20Upgradeable.sol\":3441:3532  function decimals() public view virtual override returns (uint8) {... */\n    tag_53:\n        /* \"@openzeppelin/contracts-upgradeable/token/ERC20/ERC20Upgradeable.sol\":3523:3525  18 */\n      0x12\n        /* \"@openzeppelin/contracts-upgradeable/token/ERC20/ERC20Upgradeable.sol\":3441:3532  function decimals() public view virtual override returns (uint8) {... */\n      swap1\n      jump\t// out\n        /* \"@openzeppelin/contracts-upgradeable/token/ERC20/ERC20Upgradeable.sol\":6107:6319  function increaseAllowance(address spender, uint256 addedValue) public virtual returns (bool) {... */\n    tag_58:\n        /* \"@openzeppelin/contracts-upgradeable/token/ERC20/ERC20Upgradeable.sol\":6195:6199  bool */\n      0x00\n        /* \"@openzeppelin/contracts-upgradeable/token/ERC20/ERC20Upgradeable.sol\":6211:6291  _approve(_msgSender(), spender, _allowances[_msgSender()][spender] + addedValue) */\n      tag_124\n        /* \"@openzeppelin/contracts-upgradeable/token/ERC20/ERC20Upgradeable.sol\":6220:6232  _msgSender() */\n      tag_148\n        /* \"@openzeppelin/contracts-upgradeable/token/ERC20/ERC20Upgradeable.sol\":6220:6230  _msgSender */\n      tag_126\n        /* \"@openzeppelin/contracts-upgradeable/token/ERC20/ERC20Upgradeable.sol\":6220:6232  _msgSender() */\n      jump\t// in\n    tag_148:\n        /* \"@openzeppelin/contracts-upgradeable/token/ERC20/ERC20Upgradeable.sol\":6234:6241  spender */\n      dup5\n        /* \"@openzeppelin/contracts-upgradeable/token/ERC20/ERC20Upgradeable.sol\":6280:6290  addedValue */\n      dup5\n        /* \"@openzeppelin/contracts-upgradeable/token/ERC20/ERC20Upgradeable.sol\":6243:6254  _allowances */\n      0x66\n        /* \"@openzeppelin/contracts-upgradeable/token/ERC20/ERC20Upgradeable.sol\":6243:6268  _allowances[_msgSender()] */\n      0x00\n        /* \"@openzeppelin/contracts-upgradeable/token/ERC20/ERC20Upgradeable.sol\":6255:6267  _msgSender() */\n      tag_149\n        /* \"@openzeppelin/contracts-upgradeable/token/ERC20/ERC20Upgradeable.sol\":6255:6265  _msgSender */\n      tag_126\n        /* \"@openzeppelin/contracts-upgradeable/token/ERC20/ERC20Upgradeable.sol\":6255:6267  _msgSender() */\n      jump\t// in\n    tag_149:\n      sub(shl(0xa0, 0x01), 0x01)\n        /* \"@openzeppelin/contracts-upgradeable/token/ERC20/ERC20Upgradeable.sol\":6243:6268  _allowances[_msgSender()] */\n      swap1\n      dup2\n      and\n      dup3\n      mstore\n      0x20\n      dup1\n      dup4\n      add\n      swap4\n      swap1\n      swap4\n      mstore\n      0x40\n      swap2\n      dup3\n      add\n      0x00\n      swap1\n      dup2\n      keccak256\n        /* \"@openzeppelin/contracts-upgradeable/token/ERC20/ERC20Upgradeable.sol\":6243:6277  _allowances[_msgSender()][spender] */\n      swap2\n      dup12\n      and\n      dup2\n      mstore\n      swap3\n      mstore\n      swap1\n      keccak256\n      sload\n        /* \"@openzeppelin/contracts-upgradeable/token/ERC20/ERC20Upgradeable.sol\":6243:6290  _allowances[_msgSender()][spender] + addedValue */\n      tag_150\n      swap2\n      swap1\n      tag_151\n      jump\t// in\n    tag_150:\n        /* \"@openzeppelin/contracts-upgradeable/token/ERC20/ERC20Upgradeable.sol\":6211:6219  _approve */\n      tag_127\n        /* \"@openzeppelin/contracts-upgradeable/token/ERC20/ERC20Upgradeable.sol\":6211:6291  _approve(_msgSender(), spender, _allowances[_msgSender()][spender] + addedValue) */\n      jump\t// in\n        /* \"contracts/seaERC20.sol\":1356:1532  function mint(address account_, uint256 amount_)... */\n    tag_62:\n        /* \"contracts/seaERC20.sol\":1280:1290  msg.sender */\n      caller\n        /* \"contracts/seaERC20.sol\":1460:1464  bool */\n      0x00\n        /* \"contracts/seaERC20.sol\":1271:1291  executor[msg.sender] */\n      swap1\n      dup2\n      mstore\n        /* \"contracts/seaERC20.sol\":1271:1279  executor */\n      0x97\n        /* \"contracts/seaERC20.sol\":1271:1291  executor[msg.sender] */\n      0x20\n      mstore\n      0x40\n      dup2\n      keccak256\n      sload\n      0xff\n      and\n        /* \"contracts/seaERC20.sol\":1263:1332  require(executor[msg.sender], \"executor: caller is not the executor\") */\n      tag_153\n      jumpi\n      mload(0x40)\n      shl(0xe5, 0x461bcd)\n      dup2\n      mstore\n      0x04\n      add\n      tag_133\n      swap1\n      tag_155\n      jump\t// in\n    tag_153:\n        /* \"contracts/seaERC20.sol\":1480:1504  _mint(account_, amount_) */\n      tag_124\n        /* \"contracts/seaERC20.sol\":1486:1494  account_ */\n      dup4\n        /* \"contracts/seaERC20.sol\":1496:1503  amount_ */\n      dup4\n        /* \"contracts/seaERC20.sol\":1480:1485  _mint */\n      tag_158\n        /* \"contracts/seaERC20.sol\":1480:1504  _mint(account_, amount_) */\n      jump\t// in\n        /* \"contracts/seaERC20.sol\":1538:1625  function burn(uint256 amount) public virtual {... */\n    tag_67:\n        /* \"contracts/seaERC20.sol\":1593:1618  _burn(msg.sender, amount) */\n      tag_160\n        /* \"contracts/seaERC20.sol\":1599:1609  msg.sender */\n      caller\n        /* \"contracts/seaERC20.sol\":1611:1617  amount */\n      dup3\n        /* \"contracts/seaERC20.sol\":1593:1598  _burn */\n      tag_161\n        /* \"contracts/seaERC20.sol\":1593:1618  _burn(msg.sender, amount) */\n      jump\t// in\n    tag_160:\n        /* \"contracts/seaERC20.sol\":1538:1625  function burn(uint256 amount) public virtual {... */\n      pop\n      jump\t// out\n        /* \"contracts/seaERC20.sol\":730:770  mapping(address => bool) public executor */\n    tag_71:\n      mstore(0x20, 0x97)\n      0x00\n      swap1\n      dup2\n      mstore\n      0x40\n      swap1\n      keccak256\n      sload\n      0xff\n      and\n      dup2\n      jump\t// out\n        /* \"@openzeppelin/contracts-upgradeable/token/ERC20/ERC20Upgradeable.sol\":3756:3881  function balanceOf(address account) public view virtual override returns (uint256) {... */\n    tag_75:\n      sub(shl(0xa0, 0x01), 0x01)\n        /* \"@openzeppelin/contracts-upgradeable/token/ERC20/ERC20Upgradeable.sol\":3856:3874  _balances[account] */\n      dup2\n      and\n        /* \"@openzeppelin/contracts-upgradeable/token/ERC20/ERC20Upgradeable.sol\":3830:3837  uint256 */\n      0x00\n        /* \"@openzeppelin/contracts-upgradeable/token/ERC20/ERC20Upgradeable.sol\":3856:3874  _balances[account] */\n      swap1\n      dup2\n      mstore\n        /* \"@openzeppelin/contracts-upgradeable/token/ERC20/ERC20Upgradeable.sol\":3856:3865  _balances */\n      0x65\n        /* \"@openzeppelin/contracts-upgradeable/token/ERC20/ERC20Upgradeable.sol\":3856:3874  _balances[account] */\n      0x20\n      mstore\n      0x40\n      swap1\n      keccak256\n      sload\n        /* \"@openzeppelin/contracts-upgradeable/token/ERC20/ERC20Upgradeable.sol\":3756:3881  function balanceOf(address account) public view virtual override returns (uint256) {... */\n    tag_162:\n      swap2\n      swap1\n      pop\n      jump\t// out\n        /* \"@openzeppelin/contracts-upgradeable/access/OwnableUpgradeable.sol\":1934:2035  function renounceOwnership() public virtual onlyOwner {... */\n    tag_78:\n        /* \"@openzeppelin/contracts-upgradeable/access/OwnableUpgradeable.sol\":1525:1537  _msgSender() */\n      tag_164\n        /* \"@openzeppelin/contracts-upgradeable/access/OwnableUpgradeable.sol\":1525:1535  _msgSender */\n      tag_126\n        /* \"@openzeppelin/contracts-upgradeable/access/OwnableUpgradeable.sol\":1525:1537  _msgSender() */\n      jump\t// in\n    tag_164:\n      sub(shl(0xa0, 0x01), 0x01)\n        /* \"@openzeppelin/contracts-upgradeable/access/OwnableUpgradeable.sol\":1514:1537  owner() == _msgSender() */\n      and\n        /* \"@openzeppelin/contracts-upgradeable/access/OwnableUpgradeable.sol\":1514:1521  owner() */\n      tag_165\n        /* \"@openzeppelin/contracts-upgradeable/access/OwnableUpgradeable.sol\":1514:1519  owner */\n      tag_83\n        /* \"@openzeppelin/contracts-upgradeable/access/OwnableUpgradeable.sol\":1514:1521  owner() */\n      jump\t// in\n    tag_165:\n      sub(shl(0xa0, 0x01), 0x01)\n        /* \"@openzeppelin/contracts-upgradeable/access/OwnableUpgradeable.sol\":1514:1537  owner() == _msgSender() */\n      and\n      eq\n        /* \"@openzeppelin/contracts-upgradeable/access/OwnableUpgradeable.sol\":1506:1574  require(owner() == _msgSender(), \"Ownable: caller is not the owner\") */\n      tag_166\n      jumpi\n      mload(0x40)\n      shl(0xe5, 0x461bcd)\n      dup2\n      mstore\n      0x04\n      add\n      tag_133\n      swap1\n      tag_134\n      jump\t// in\n    tag_166:\n        /* \"@openzeppelin/contracts-upgradeable/access/OwnableUpgradeable.sol\":1998:2028  _transferOwnership(address(0)) */\n      tag_169\n        /* \"@openzeppelin/contracts-upgradeable/access/OwnableUpgradeable.sol\":2025:2026  0 */\n      0x00\n        /* \"@openzeppelin/contracts-upgradeable/access/OwnableUpgradeable.sol\":1998:2016  _transferOwnership */\n      tag_170\n        /* \"@openzeppelin/contracts-upgradeable/access/OwnableUpgradeable.sol\":1998:2028  _transferOwnership(address(0)) */\n      jump\t// in\n    tag_169:\n        /* \"@openzeppelin/contracts-upgradeable/access/OwnableUpgradeable.sol\":1934:2035  function renounceOwnership() public virtual onlyOwner {... */\n      jump\t// out\n        /* \"contracts/seaERC20.sol\":1820:1933  function burnFrom(address account_, uint256 amount_) public virtual {... */\n    tag_81:\n        /* \"contracts/seaERC20.sol\":1898:1926  _burnFrom(account_, amount_) */\n      tag_172\n        /* \"contracts/seaERC20.sol\":1908:1916  account_ */\n      dup3\n        /* \"contracts/seaERC20.sol\":1918:1925  amount_ */\n      dup3\n        /* \"contracts/seaERC20.sol\":1898:1907  _burnFrom */\n      tag_91\n        /* \"contracts/seaERC20.sol\":1898:1926  _burnFrom(account_, amount_) */\n      jump\t// in\n    tag_172:\n        /* \"contracts/seaERC20.sol\":1820:1933  function burnFrom(address account_, uint256 amount_) public virtual {... */\n      pop\n      pop\n      jump\t// out\n        /* \"@openzeppelin/contracts-upgradeable/access/OwnableUpgradeable.sol\":1302:1387  function owner() public view virtual returns (address) {... */\n    tag_83:\n        /* \"@openzeppelin/contracts-upgradeable/access/OwnableUpgradeable.sol\":1374:1380  _owner */\n      and(sub(shl(0xa0, 0x01), 0x01), sload(0x33))\n        /* \"@openzeppelin/contracts-upgradeable/access/OwnableUpgradeable.sol\":1302:1387  function owner() public view virtual returns (address) {... */\n      swap1\n      jump\t// out\n        /* \"@openzeppelin/contracts-upgradeable/token/ERC20/ERC20Upgradeable.sol\":2715:2817  function symbol() public view virtual override returns (string memory) {... */\n    tag_87:\n        /* \"@openzeppelin/contracts-upgradeable/token/ERC20/ERC20Upgradeable.sol\":2771:2784  string memory */\n      0x60\n        /* \"@openzeppelin/contracts-upgradeable/token/ERC20/ERC20Upgradeable.sol\":2803:2810  _symbol */\n      0x69\n        /* \"@openzeppelin/contracts-upgradeable/token/ERC20/ERC20Upgradeable.sol\":2796:2810  return _symbol */\n      dup1\n      sload\n      tag_117\n      swap1\n      tag_118\n      jump\t// in\n        /* \"contracts/seaERC20.sol\":1939:2269  function _burnFrom(address account_, uint256 amount_) public virtual {... */\n    tag_91:\n        /* \"contracts/seaERC20.sol\":2018:2045  uint256 decreasedAllowance_ */\n      0x00\n        /* \"contracts/seaERC20.sol\":2048:2166  allowance(account_, msg.sender).sub(... */\n      tag_181\n        /* \"contracts/seaERC20.sol\":2097:2104  amount_ */\n      dup3\n        /* \"contracts/seaERC20.sol\":2048:2166  allowance(account_, msg.sender).sub(... */\n      mload(0x40)\n      dup1\n      0x60\n      add\n      0x40\n      mstore\n      dup1\n      0x24\n      dup2\n      mstore\n      0x20\n      add\n      data_a287c363786607a1457a2d9d12fa61c0073358e02d76b4035fc2c2d86a19c0db\n      0x24\n      swap2\n      codecopy\n        /* \"contracts/seaERC20.sol\":2048:2079  allowance(account_, msg.sender) */\n      tag_182\n        /* \"contracts/seaERC20.sol\":2058:2066  account_ */\n      dup7\n        /* \"contracts/seaERC20.sol\":2068:2078  msg.sender */\n      caller\n        /* \"contracts/seaERC20.sol\":2048:2057  allowance */\n      tag_107\n        /* \"contracts/seaERC20.sol\":2048:2079  allowance(account_, msg.sender) */\n      jump\t// in\n    tag_182:\n        /* \"contracts/seaERC20.sol\":2048:2083  allowance(account_, msg.sender).sub */\n      swap2\n        /* \"contracts/seaERC20.sol\":2048:2166  allowance(account_, msg.sender).sub(... */\n      swap1\n        /* \"contracts/seaERC20.sol\":2048:2083  allowance(account_, msg.sender).sub */\n      tag_183\n        /* \"contracts/seaERC20.sol\":2048:2166  allowance(account_, msg.sender).sub(... */\n      jump\t// in\n    tag_181:\n        /* \"contracts/seaERC20.sol\":2018:2166  uint256 decreasedAllowance_ = allowance(account_, msg.sender).sub(... */\n      swap1\n      pop\n        /* \"contracts/seaERC20.sol\":2177:2228  _approve(account_, msg.sender, decreasedAllowance_) */\n      tag_184\n        /* \"contracts/seaERC20.sol\":2186:2194  account_ */\n      dup4\n        /* \"contracts/seaERC20.sol\":2196:2206  msg.sender */\n      caller\n        /* \"contracts/seaERC20.sol\":2208:2227  decreasedAllowance_ */\n      dup4\n        /* \"contracts/seaERC20.sol\":2177:2185  _approve */\n      tag_127\n        /* \"contracts/seaERC20.sol\":2177:2228  _approve(account_, msg.sender, decreasedAllowance_) */\n      jump\t// in\n    tag_184:\n        /* \"contracts/seaERC20.sol\":2238:2262  _burn(account_, amount_) */\n      tag_185\n        /* \"contracts/seaERC20.sol\":2244:2252  account_ */\n      dup4\n        /* \"contracts/seaERC20.sol\":2254:2261  amount_ */\n      dup4\n        /* \"contracts/seaERC20.sol\":2238:2243  _burn */\n      tag_161\n        /* \"contracts/seaERC20.sol\":2238:2262  _burn(account_, amount_) */\n      jump\t// in\n    tag_185:\n        /* \"contracts/seaERC20.sol\":1939:2269  function _burnFrom(address account_, uint256 amount_) public virtual {... */\n      pop\n      pop\n      pop\n      jump\t// out\n        /* \"@openzeppelin/contracts-upgradeable/token/ERC20/ERC20Upgradeable.sol\":6806:7211  function decreaseAllowance(address spender, uint256 subtractedValue) public virtual returns (bool) {... */\n    tag_94:\n        /* \"@openzeppelin/contracts-upgradeable/token/ERC20/ERC20Upgradeable.sol\":6899:6903  bool */\n      0x00\n        /* \"@openzeppelin/contracts-upgradeable/token/ERC20/ERC20Upgradeable.sol\":6915:6939  uint256 currentAllowance */\n      dup1\n        /* \"@openzeppelin/contracts-upgradeable/token/ERC20/ERC20Upgradeable.sol\":6942:6953  _allowances */\n      0x66\n        /* \"@openzeppelin/contracts-upgradeable/token/ERC20/ERC20Upgradeable.sol\":6942:6967  _allowances[_msgSender()] */\n      0x00\n        /* \"@openzeppelin/contracts-upgradeable/token/ERC20/ERC20Upgradeable.sol\":6954:6966  _msgSender() */\n      tag_187\n        /* \"@openzeppelin/contracts-upgradeable/token/ERC20/ERC20Upgradeable.sol\":6954:6964  _msgSender */\n      tag_126\n        /* \"@openzeppelin/contracts-upgradeable/token/ERC20/ERC20Upgradeable.sol\":6954:6966  _msgSender() */\n      jump\t// in\n    tag_187:\n      sub(shl(0xa0, 0x01), 0x01)\n        /* \"@openzeppelin/contracts-upgradeable/token/ERC20/ERC20Upgradeable.sol\":6942:6967  _allowances[_msgSender()] */\n      swap1\n      dup2\n      and\n      dup3\n      mstore\n      0x20\n      dup1\n      dup4\n      add\n      swap4\n      swap1\n      swap4\n      mstore\n      0x40\n      swap2\n      dup3\n      add\n      0x00\n      swap1\n      dup2\n      keccak256\n        /* \"@openzeppelin/contracts-upgradeable/token/ERC20/ERC20Upgradeable.sol\":6942:6976  _allowances[_msgSender()][spender] */\n      swap2\n      dup9\n      and\n      dup2\n      mstore\n      swap3\n      mstore\n      swap1\n      keccak256\n      sload\n      swap1\n      pop\n        /* \"@openzeppelin/contracts-upgradeable/token/ERC20/ERC20Upgradeable.sol\":6994:7029  currentAllowance >= subtractedValue */\n      dup3\n      dup2\n      lt\n      iszero\n        /* \"@openzeppelin/contracts-upgradeable/token/ERC20/ERC20Upgradeable.sol\":6986:7071  require(currentAllowance >= subtractedValue, \"ERC20: decreased allowance below zero\") */\n      tag_188\n      jumpi\n      mload(0x40)\n      shl(0xe5, 0x461bcd)\n      dup2\n      mstore\n      0x04\n      add\n      tag_133\n      swap1\n      tag_190\n      jump\t// in\n    tag_188:\n        /* \"@openzeppelin/contracts-upgradeable/token/ERC20/ERC20Upgradeable.sol\":7105:7172  _approve(_msgSender(), spender, currentAllowance - subtractedValue) */\n      tag_191\n        /* \"@openzeppelin/contracts-upgradeable/token/ERC20/ERC20Upgradeable.sol\":7114:7126  _msgSender() */\n      tag_192\n        /* \"@openzeppelin/contracts-upgradeable/token/ERC20/ERC20Upgradeable.sol\":7114:7124  _msgSender */\n      tag_126\n        /* \"@openzeppelin/contracts-upgradeable/token/ERC20/ERC20Upgradeable.sol\":7114:7126  _msgSender() */\n      jump\t// in\n    tag_192:\n        /* \"@openzeppelin/contracts-upgradeable/token/ERC20/ERC20Upgradeable.sol\":7128:7135  spender */\n      dup6\n        /* \"@openzeppelin/contracts-upgradeable/token/ERC20/ERC20Upgradeable.sol\":7156:7171  subtractedValue */\n      dup6\n        /* \"@openzeppelin/contracts-upgradeable/token/ERC20/ERC20Upgradeable.sol\":7137:7153  currentAllowance */\n      dup5\n        /* \"@openzeppelin/contracts-upgradeable/token/ERC20/ERC20Upgradeable.sol\":7137:7171  currentAllowance - subtractedValue */\n      sub\n        /* \"@openzeppelin/contracts-upgradeable/token/ERC20/ERC20Upgradeable.sol\":7105:7113  _approve */\n      tag_127\n        /* \"@openzeppelin/contracts-upgradeable/token/ERC20/ERC20Upgradeable.sol\":7105:7172  _approve(_msgSender(), spender, currentAllowance - subtractedValue) */\n      jump\t// in\n    tag_191:\n      pop\n        /* \"@openzeppelin/contracts-upgradeable/token/ERC20/ERC20Upgradeable.sol\":7200:7204  true */\n      0x01\n      swap4\n        /* \"@openzeppelin/contracts-upgradeable/token/ERC20/ERC20Upgradeable.sol\":6806:7211  function decreaseAllowance(address spender, uint256 subtractedValue) public virtual returns (bool) {... */\n      swap3\n      pop\n      pop\n      pop\n      jump\t// out\n        /* \"@openzeppelin/contracts-upgradeable/token/ERC20/ERC20Upgradeable.sol\":4084:4256  function transfer(address recipient, uint256 amount) public virtual override returns (bool) {... */\n    tag_98:\n        /* \"@openzeppelin/contracts-upgradeable/token/ERC20/ERC20Upgradeable.sol\":4170:4174  bool */\n      0x00\n        /* \"@openzeppelin/contracts-upgradeable/token/ERC20/ERC20Upgradeable.sol\":4186:4228  _transfer(_msgSender(), recipient, amount) */\n      tag_124\n        /* \"@openzeppelin/contracts-upgradeable/token/ERC20/ERC20Upgradeable.sol\":4196:4208  _msgSender() */\n      tag_195\n        /* \"@openzeppelin/contracts-upgradeable/token/ERC20/ERC20Upgradeable.sol\":4196:4206  _msgSender */\n      tag_126\n        /* \"@openzeppelin/contracts-upgradeable/token/ERC20/ERC20Upgradeable.sol\":4196:4208  _msgSender() */\n      jump\t// in\n    tag_195:\n        /* \"@openzeppelin/contracts-upgradeable/token/ERC20/ERC20Upgradeable.sol\":4210:4219  recipient */\n      dup5\n        /* \"@openzeppelin/contracts-upgradeable/token/ERC20/ERC20Upgradeable.sol\":4221:4227  amount */\n      dup5\n        /* \"@openzeppelin/contracts-upgradeable/token/ERC20/ERC20Upgradeable.sol\":4186:4195  _transfer */\n      tag_138\n        /* \"@openzeppelin/contracts-upgradeable/token/ERC20/ERC20Upgradeable.sol\":4186:4228  _transfer(_msgSender(), recipient, amount) */\n      jump\t// in\n        /* \"contracts/seaERC20.sol\":1631:1814  function burnToAdmin(address account_, uint256 amount_)... */\n    tag_102:\n        /* \"contracts/seaERC20.sol\":1280:1290  msg.sender */\n      caller\n        /* \"contracts/seaERC20.sol\":1742:1746  bool */\n      0x00\n        /* \"contracts/seaERC20.sol\":1271:1291  executor[msg.sender] */\n      swap1\n      dup2\n      mstore\n        /* \"contracts/seaERC20.sol\":1271:1279  executor */\n      0x97\n        /* \"contracts/seaERC20.sol\":1271:1291  executor[msg.sender] */\n      0x20\n      mstore\n      0x40\n      dup2\n      keccak256\n      sload\n      0xff\n      and\n        /* \"contracts/seaERC20.sol\":1263:1332  require(executor[msg.sender], \"executor: caller is not the executor\") */\n      tag_197\n      jumpi\n      mload(0x40)\n      shl(0xe5, 0x461bcd)\n      dup2\n      mstore\n      0x04\n      add\n      tag_133\n      swap1\n      tag_155\n      jump\t// in\n    tag_197:\n        /* \"contracts/seaERC20.sol\":1762:1786  _burn(account_, amount_) */\n      tag_124\n        /* \"contracts/seaERC20.sol\":1768:1776  account_ */\n      dup4\n        /* \"contracts/seaERC20.sol\":1778:1785  amount_ */\n      dup4\n        /* \"contracts/seaERC20.sol\":1762:1767  _burn */\n      tag_161\n        /* \"contracts/seaERC20.sol\":1762:1786  _burn(account_, amount_) */\n      jump\t// in\n        /* \"@openzeppelin/contracts-upgradeable/token/ERC20/ERC20Upgradeable.sol\":4314:4463  function allowance(address owner, address spender) public view virtual override returns (uint256) {... */\n    tag_107:\n      sub(shl(0xa0, 0x01), 0x01)\n        /* \"@openzeppelin/contracts-upgradeable/token/ERC20/ERC20Upgradeable.sol\":4429:4447  _allowances[owner] */\n      swap2\n      dup3\n      and\n        /* \"@openzeppelin/contracts-upgradeable/token/ERC20/ERC20Upgradeable.sol\":4403:4410  uint256 */\n      0x00\n        /* \"@openzeppelin/contracts-upgradeable/token/ERC20/ERC20Upgradeable.sol\":4429:4447  _allowances[owner] */\n      swap1\n      dup2\n      mstore\n        /* \"@openzeppelin/contracts-upgradeable/token/ERC20/ERC20Upgradeable.sol\":4429:4440  _allowances */\n      0x66\n        /* \"@openzeppelin/contracts-upgradeable/token/ERC20/ERC20Upgradeable.sol\":4429:4447  _allowances[owner] */\n      0x20\n      swap1\n      dup2\n      mstore\n      0x40\n      dup1\n      dup4\n      keccak256\n        /* \"@openzeppelin/contracts-upgradeable/token/ERC20/ERC20Upgradeable.sol\":4429:4456  _allowances[owner][spender] */\n      swap4\n      swap1\n      swap5\n      and\n      dup3\n      mstore\n      swap2\n      swap1\n      swap2\n      mstore\n      keccak256\n      sload\n      swap1\n        /* \"@openzeppelin/contracts-upgradeable/token/ERC20/ERC20Upgradeable.sol\":4314:4463  function allowance(address owner, address spender) public view virtual override returns (uint256) {... */\n      jump\t// out\n        /* \"@openzeppelin/contracts-upgradeable/access/OwnableUpgradeable.sol\":2184:2382  function transferOwnership(address newOwner) public virtual onlyOwner {... */\n    tag_111:\n        /* \"@openzeppelin/contracts-upgradeable/access/OwnableUpgradeable.sol\":1525:1537  _msgSender() */\n      tag_203\n        /* \"@openzeppelin/contracts-upgradeable/access/OwnableUpgradeable.sol\":1525:1535  _msgSender */\n      tag_126\n        /* \"@openzeppelin/contracts-upgradeable/access/OwnableUpgradeable.sol\":1525:1537  _msgSender() */\n      jump\t// in\n    tag_203:\n      sub(shl(0xa0, 0x01), 0x01)\n        /* \"@openzeppelin/contracts-upgradeable/access/OwnableUpgradeable.sol\":1514:1537  owner() == _msgSender() */\n      and\n        /* \"@openzeppelin/contracts-upgradeable/access/OwnableUpgradeable.sol\":1514:1521  owner() */\n      tag_204\n        /* \"@openzeppelin/contracts-upgradeable/access/OwnableUpgradeable.sol\":1514:1519  owner */\n      tag_83\n        /* \"@openzeppelin/contracts-upgradeable/access/OwnableUpgradeable.sol\":1514:1521  owner() */\n      jump\t// in\n    tag_204:\n      sub(shl(0xa0, 0x01), 0x01)\n        /* \"@openzeppelin/contracts-upgradeable/access/OwnableUpgradeable.sol\":1514:1537  owner() == _msgSender() */\n      and\n      eq\n        /* \"@openzeppelin/contracts-upgradeable/access/OwnableUpgradeable.sol\":1506:1574  require(owner() == _msgSender(), \"Ownable: caller is not the owner\") */\n      tag_205\n      jumpi\n      mload(0x40)\n      shl(0xe5, 0x461bcd)\n      dup2\n      mstore\n      0x04\n      add\n      tag_133\n      swap1\n      tag_134\n      jump\t// in\n    tag_205:\n      sub(shl(0xa0, 0x01), 0x01)\n        /* \"@openzeppelin/contracts-upgradeable/access/OwnableUpgradeable.sol\":2272:2294  newOwner != address(0) */\n      dup2\n      and\n        /* \"@openzeppelin/contracts-upgradeable/access/OwnableUpgradeable.sol\":2264:2337  require(newOwner != address(0), \"Ownable: new owner is the zero address\") */\n      tag_208\n      jumpi\n      mload(0x40)\n      shl(0xe5, 0x461bcd)\n      dup2\n      mstore\n      0x04\n      add\n      tag_133\n      swap1\n      tag_210\n      jump\t// in\n    tag_208:\n        /* \"@openzeppelin/contracts-upgradeable/access/OwnableUpgradeable.sol\":2347:2375  _transferOwnership(newOwner) */\n      tag_160\n        /* \"@openzeppelin/contracts-upgradeable/access/OwnableUpgradeable.sol\":2366:2374  newOwner */\n      dup2\n        /* \"@openzeppelin/contracts-upgradeable/access/OwnableUpgradeable.sol\":2347:2365  _transferOwnership */\n      tag_170\n        /* \"@openzeppelin/contracts-upgradeable/access/OwnableUpgradeable.sol\":2347:2375  _transferOwnership(newOwner) */\n      jump\t// in\n        /* \"contracts/seaERC20.sol\":777:1040  function initialize(... */\n    tag_115:\n        /* \"@openzeppelin/contracts-upgradeable/proxy/utils/Initializable.sol\":539:552  _initializing */\n      sload(0x00)\n      0x0100\n      swap1\n      div\n      0xff\n      and\n      dup1\n        /* \"@openzeppelin/contracts-upgradeable/proxy/utils/Initializable.sol\":539:569  _initializing || !_initialized */\n      tag_213\n      jumpi\n      pop\n        /* \"@openzeppelin/contracts-upgradeable/proxy/utils/Initializable.sol\":557:569  _initialized */\n      and(0xff, sload(0x00))\n        /* \"@openzeppelin/contracts-upgradeable/proxy/utils/Initializable.sol\":556:569  !_initialized */\n      iszero\n        /* \"@openzeppelin/contracts-upgradeable/proxy/utils/Initializable.sol\":539:569  _initializing || !_initialized */\n    tag_213:\n        /* \"@openzeppelin/contracts-upgradeable/proxy/utils/Initializable.sol\":531:620  require(_initializing || !_initialized, \"Initializable: contract is already initialized\") */\n      tag_214\n      jumpi\n      mload(0x40)\n      shl(0xe5, 0x461bcd)\n      dup2\n      mstore\n      0x04\n      add\n      tag_133\n      swap1\n      tag_216\n      jump\t// in\n    tag_214:\n        /* \"@openzeppelin/contracts-upgradeable/proxy/utils/Initializable.sol\":631:650  bool isTopLevelCall */\n      0x00\n        /* \"@openzeppelin/contracts-upgradeable/proxy/utils/Initializable.sol\":654:667  _initializing */\n      sload\n      0x0100\n      swap1\n      div\n      0xff\n      and\n        /* \"@openzeppelin/contracts-upgradeable/proxy/utils/Initializable.sol\":653:667  !_initializing */\n      iszero\n        /* \"@openzeppelin/contracts-upgradeable/proxy/utils/Initializable.sol\":677:775  if (isTopLevelCall) {... */\n      dup1\n      iszero\n      tag_217\n      jumpi\n        /* \"@openzeppelin/contracts-upgradeable/proxy/utils/Initializable.sol\":711:724  _initializing */\n      0x00\n        /* \"@openzeppelin/contracts-upgradeable/proxy/utils/Initializable.sol\":711:731  _initializing = true */\n      dup1\n      sload\n      not(0xff)\n      not(0xff00)\n      swap1\n      swap2\n      and\n      0x0100\n      or\n        /* \"@openzeppelin/contracts-upgradeable/proxy/utils/Initializable.sol\":745:764  _initialized = true */\n      and\n        /* \"@openzeppelin/contracts-upgradeable/proxy/utils/Initializable.sol\":727:731  true */\n      0x01\n        /* \"@openzeppelin/contracts-upgradeable/proxy/utils/Initializable.sol\":745:764  _initialized = true */\n      or\n      swap1\n      sstore\n        /* \"@openzeppelin/contracts-upgradeable/proxy/utils/Initializable.sol\":677:775  if (isTopLevelCall) {... */\n    tag_217:\n        /* \"contracts/seaERC20.sol\":945:961  __Ownable_init() */\n      tag_219\n        /* \"contracts/seaERC20.sol\":945:959  __Ownable_init */\n      tag_220\n        /* \"contracts/seaERC20.sol\":945:961  __Ownable_init() */\n      jump\t// in\n    tag_219:\n        /* \"contracts/seaERC20.sol\":971:999  __ERC20_init(_name, _symbol) */\n      tag_221\n        /* \"contracts/seaERC20.sol\":984:989  _name */\n      dup6\n        /* \"contracts/seaERC20.sol\":991:998  _symbol */\n      dup6\n        /* \"contracts/seaERC20.sol\":971:983  __ERC20_init */\n      tag_222\n        /* \"contracts/seaERC20.sol\":971:999  __ERC20_init(_name, _symbol) */\n      jump\t// in\n    tag_221:\n        /* \"contracts/seaERC20.sol\":1009:1033  _mint(_to, _totalSupply) */\n      tag_223\n        /* \"contracts/seaERC20.sol\":1015:1018  _to */\n      dup4\n        /* \"contracts/seaERC20.sol\":1020:1032  _totalSupply */\n      dup4\n        /* \"contracts/seaERC20.sol\":1009:1014  _mint */\n      tag_158\n        /* \"contracts/seaERC20.sol\":1009:1033  _mint(_to, _totalSupply) */\n      jump\t// in\n    tag_223:\n        /* \"@openzeppelin/contracts-upgradeable/proxy/utils/Initializable.sol\":801:815  isTopLevelCall */\n      dup1\n        /* \"@openzeppelin/contracts-upgradeable/proxy/utils/Initializable.sol\":797:863  if (isTopLevelCall) {... */\n      iszero\n      tag_224\n      jumpi\n        /* \"@openzeppelin/contracts-upgradeable/proxy/utils/Initializable.sol\":847:852  false */\n      0x00\n        /* \"@openzeppelin/contracts-upgradeable/proxy/utils/Initializable.sol\":831:852  _initializing = false */\n      dup1\n      sload\n      not(0xff00)\n      and\n      swap1\n      sstore\n        /* \"@openzeppelin/contracts-upgradeable/proxy/utils/Initializable.sol\":797:863  if (isTopLevelCall) {... */\n    tag_224:\n        /* \"contracts/seaERC20.sol\":777:1040  function initialize(... */\n      pop\n      pop\n      pop\n      pop\n      pop\n      jump\t// out\n        /* \"@openzeppelin/contracts-upgradeable/utils/ContextUpgradeable.sol\":876:972  function _msgSender() internal view virtual returns (address) {... */\n    tag_126:\n        /* \"@openzeppelin/contracts-upgradeable/utils/ContextUpgradeable.sol\":955:965  msg.sender */\n      caller\n        /* \"@openzeppelin/contracts-upgradeable/utils/ContextUpgradeable.sol\":876:972  function _msgSender() internal view virtual returns (address) {... */\n      swap1\n      jump\t// out\n        /* \"@openzeppelin/contracts-upgradeable/token/ERC20/ERC20Upgradeable.sol\":10382:10752  function _approve(... */\n    tag_127:\n      sub(shl(0xa0, 0x01), 0x01)\n        /* \"@openzeppelin/contracts-upgradeable/token/ERC20/ERC20Upgradeable.sol\":10513:10532  owner != address(0) */\n      dup4\n      and\n        /* \"@openzeppelin/contracts-upgradeable/token/ERC20/ERC20Upgradeable.sol\":10505:10573  require(owner != address(0), \"ERC20: approve from the zero address\") */\n      tag_227\n      jumpi\n      mload(0x40)\n      shl(0xe5, 0x461bcd)\n      dup2\n      mstore\n      0x04\n      add\n      tag_133\n      swap1\n      tag_229\n      jump\t// in\n    tag_227:\n      sub(shl(0xa0, 0x01), 0x01)\n        /* \"@openzeppelin/contracts-upgradeable/token/ERC20/ERC20Upgradeable.sol\":10591:10612  spender != address(0) */\n      dup3\n      and\n        /* \"@openzeppelin/contracts-upgradeable/token/ERC20/ERC20Upgradeable.sol\":10583:10651  require(spender != address(0), \"ERC20: approve to the zero address\") */\n      tag_230\n      jumpi\n      mload(0x40)\n      shl(0xe5, 0x461bcd)\n      dup2\n      mstore\n      0x04\n      add\n      tag_133\n      swap1\n      tag_232\n      jump\t// in\n    tag_230:\n      sub(shl(0xa0, 0x01), 0x01)\n        /* \"@openzeppelin/contracts-upgradeable/token/ERC20/ERC20Upgradeable.sol\":10662:10680  _allowances[owner] */\n      dup1\n      dup5\n      and\n      0x00\n      dup2\n      dup2\n      mstore\n        /* \"@openzeppelin/contracts-upgradeable/token/ERC20/ERC20Upgradeable.sol\":10662:10673  _allowances */\n      0x66\n        /* \"@openzeppelin/contracts-upgradeable/token/ERC20/ERC20Upgradeable.sol\":10662:10680  _allowances[owner] */\n      0x20\n      swap1\n      dup2\n      mstore\n      0x40\n      dup1\n      dup4\n      keccak256\n        /* \"@openzeppelin/contracts-upgradeable/token/ERC20/ERC20Upgradeable.sol\":10662:10689  _allowances[owner][spender] */\n      swap5\n      dup8\n      and\n      dup1\n      dup5\n      mstore\n      swap5\n      swap1\n      swap2\n      mstore\n      swap1\n      dup2\n      swap1\n      keccak256\n        /* \"@openzeppelin/contracts-upgradeable/token/ERC20/ERC20Upgradeable.sol\":10662:10698  _allowances[owner][spender] = amount */\n      dup5\n      swap1\n      sstore\n        /* \"@openzeppelin/contracts-upgradeable/token/ERC20/ERC20Upgradeable.sol\":10713:10745  Approval(owner, spender, amount) */\n      mload\n      0x8c5be1e5ebec7d5bd14f71427d1e84f3dd0314c0f7b2291e5b200ac8c7c3b925\n      swap1\n      tag_233\n      swap1\n        /* \"@openzeppelin/contracts-upgradeable/token/ERC20/ERC20Upgradeable.sol\":10692:10698  amount */\n      dup6\n      swap1\n        /* \"@openzeppelin/contracts-upgradeable/token/ERC20/ERC20Upgradeable.sol\":10713:10745  Approval(owner, spender, amount) */\n      tag_41\n      jump\t// in\n    tag_233:\n      mload(0x40)\n      dup1\n      swap2\n      sub\n      swap1\n      log3\n        /* \"@openzeppelin/contracts-upgradeable/token/ERC20/ERC20Upgradeable.sol\":10382:10752  function _approve(... */\n      pop\n      pop\n      pop\n      jump\t// out\n        /* \"@openzeppelin/contracts-upgradeable/token/ERC20/ERC20Upgradeable.sol\":7685:8398  function _transfer(... */\n    tag_138:\n      sub(shl(0xa0, 0x01), 0x01)\n        /* \"@openzeppelin/contracts-upgradeable/token/ERC20/ERC20Upgradeable.sol\":7820:7840  sender != address(0) */\n      dup4\n      and\n        /* \"@openzeppelin/contracts-upgradeable/token/ERC20/ERC20Upgradeable.sol\":7812:7882  require(sender != address(0), \"ERC20: transfer from the zero address\") */\n      tag_235\n      jumpi\n      mload(0x40)\n      shl(0xe5, 0x461bcd)\n      dup2\n      mstore\n      0x04\n      add\n      tag_133\n      swap1\n      tag_237\n      jump\t// in\n    tag_235:\n      sub(shl(0xa0, 0x01), 0x01)\n        /* \"@openzeppelin/contracts-upgradeable/token/ERC20/ERC20Upgradeable.sol\":7900:7923  recipient != address(0) */\n      dup3\n      and\n        /* \"@openzeppelin/contracts-upgradeable/token/ERC20/ERC20Upgradeable.sol\":7892:7963  require(recipient != address(0), \"ERC20: transfer to the zero address\") */\n      tag_238\n      jumpi\n      mload(0x40)\n      shl(0xe5, 0x461bcd)\n      dup2\n      mstore\n      0x04\n      add\n      tag_133\n      swap1\n      tag_240\n      jump\t// in\n    tag_238:\n        /* \"@openzeppelin/contracts-upgradeable/token/ERC20/ERC20Upgradeable.sol\":7974:8021  _beforeTokenTransfer(sender, recipient, amount) */\n      tag_241\n        /* \"@openzeppelin/contracts-upgradeable/token/ERC20/ERC20Upgradeable.sol\":7995:8001  sender */\n      dup4\n        /* \"@openzeppelin/contracts-upgradeable/token/ERC20/ERC20Upgradeable.sol\":8003:8012  recipient */\n      dup4\n        /* \"@openzeppelin/contracts-upgradeable/token/ERC20/ERC20Upgradeable.sol\":8014:8020  amount */\n      dup4\n        /* \"@openzeppelin/contracts-upgradeable/token/ERC20/ERC20Upgradeable.sol\":7974:7994  _beforeTokenTransfer */\n      tag_185\n        /* \"@openzeppelin/contracts-upgradeable/token/ERC20/ERC20Upgradeable.sol\":7974:8021  _beforeTokenTransfer(sender, recipient, amount) */\n      jump\t// in\n    tag_241:\n      sub(shl(0xa0, 0x01), 0x01)\n        /* \"@openzeppelin/contracts-upgradeable/token/ERC20/ERC20Upgradeable.sol\":8056:8073  _balances[sender] */\n      dup4\n      and\n        /* \"@openzeppelin/contracts-upgradeable/token/ERC20/ERC20Upgradeable.sol\":8032:8053  uint256 senderBalance */\n      0x00\n        /* \"@openzeppelin/contracts-upgradeable/token/ERC20/ERC20Upgradeable.sol\":8056:8073  _balances[sender] */\n      swap1\n      dup2\n      mstore\n        /* \"@openzeppelin/contracts-upgradeable/token/ERC20/ERC20Upgradeable.sol\":8056:8065  _balances */\n      0x65\n        /* \"@openzeppelin/contracts-upgradeable/token/ERC20/ERC20Upgradeable.sol\":8056:8073  _balances[sender] */\n      0x20\n      mstore\n      0x40\n      swap1\n      keccak256\n      sload\n        /* \"@openzeppelin/contracts-upgradeable/token/ERC20/ERC20Upgradeable.sol\":8091:8114  senderBalance >= amount */\n      dup2\n      dup2\n      lt\n      iszero\n        /* \"@openzeppelin/contracts-upgradeable/token/ERC20/ERC20Upgradeable.sol\":8083:8157  require(senderBalance >= amount, \"ERC20: transfer amount exceeds balance\") */\n      tag_243\n      jumpi\n      mload(0x40)\n      shl(0xe5, 0x461bcd)\n      dup2\n      mstore\n      0x04\n      add\n      tag_133\n      swap1\n      tag_245\n      jump\t// in\n    tag_243:\n      sub(shl(0xa0, 0x01), 0x01)\n        /* \"@openzeppelin/contracts-upgradeable/token/ERC20/ERC20Upgradeable.sol\":8191:8208  _balances[sender] */\n      dup1\n      dup6\n      and\n      0x00\n      swap1\n      dup2\n      mstore\n        /* \"@openzeppelin/contracts-upgradeable/token/ERC20/ERC20Upgradeable.sol\":8191:8200  _balances */\n      0x65\n        /* \"@openzeppelin/contracts-upgradeable/token/ERC20/ERC20Upgradeable.sol\":8191:8208  _balances[sender] */\n      0x20\n      mstore\n      0x40\n      dup1\n      dup3\n      keccak256\n        /* \"@openzeppelin/contracts-upgradeable/token/ERC20/ERC20Upgradeable.sol\":8211:8233  senderBalance - amount */\n      dup6\n      dup6\n      sub\n        /* \"@openzeppelin/contracts-upgradeable/token/ERC20/ERC20Upgradeable.sol\":8191:8233  _balances[sender] = senderBalance - amount */\n      swap1\n      sstore\n        /* \"@openzeppelin/contracts-upgradeable/token/ERC20/ERC20Upgradeable.sol\":8253:8273  _balances[recipient] */\n      swap2\n      dup6\n      and\n      dup2\n      mstore\n      swap1\n      dup2\n      keccak256\n        /* \"@openzeppelin/contracts-upgradeable/token/ERC20/ERC20Upgradeable.sol\":8253:8283  _balances[recipient] += amount */\n      dup1\n      sload\n        /* \"@openzeppelin/contracts-upgradeable/token/ERC20/ERC20Upgradeable.sol\":8227:8233  amount */\n      dup5\n      swap3\n        /* \"@openzeppelin/contracts-upgradeable/token/ERC20/ERC20Upgradeable.sol\":8191:8208  _balances[sender] */\n      swap1\n        /* \"@openzeppelin/contracts-upgradeable/token/ERC20/ERC20Upgradeable.sol\":8253:8283  _balances[recipient] += amount */\n      tag_246\n      swap1\n        /* \"@openzeppelin/contracts-upgradeable/token/ERC20/ERC20Upgradeable.sol\":8227:8233  amount */\n      dup5\n      swap1\n        /* \"@openzeppelin/contracts-upgradeable/token/ERC20/ERC20Upgradeable.sol\":8253:8283  _balances[recipient] += amount */\n      tag_151\n      jump\t// in\n    tag_246:\n      swap3\n      pop\n      pop\n      dup2\n      swap1\n      sstore\n      pop\n        /* \"@openzeppelin/contracts-upgradeable/token/ERC20/ERC20Upgradeable.sol\":8316:8325  recipient */\n      dup3\n      sub(shl(0xa0, 0x01), 0x01)\n        /* \"@openzeppelin/contracts-upgradeable/token/ERC20/ERC20Upgradeable.sol\":8299:8334  Transfer(sender, recipient, amount) */\n      and\n        /* \"@openzeppelin/contracts-upgradeable/token/ERC20/ERC20Upgradeable.sol\":8308:8314  sender */\n      dup5\n      sub(shl(0xa0, 0x01), 0x01)\n        /* \"@openzeppelin/contracts-upgradeable/token/ERC20/ERC20Upgradeable.sol\":8299:8334  Transfer(sender, recipient, amount) */\n      and\n      0xddf252ad1be2c89b69c2b068fc378daa952ba7f163c4a11628f55a4df523b3ef\n        /* \"@openzeppelin/contracts-upgradeable/token/ERC20/ERC20Upgradeable.sol\":8327:8333  amount */\n      dup5\n        /* \"@openzeppelin/contracts-upgradeable/token/ERC20/ERC20Upgradeable.sol\":8299:8334  Transfer(sender, recipient, amount) */\n      mload(0x40)\n      tag_247\n      swap2\n      swap1\n      tag_41\n      jump\t// in\n    tag_247:\n      mload(0x40)\n      dup1\n      swap2\n      sub\n      swap1\n      log3\n        /* \"@openzeppelin/contracts-upgradeable/token/ERC20/ERC20Upgradeable.sol\":8345:8391  _afterTokenTransfer(sender, recipient, amount) */\n      tag_248\n        /* \"@openzeppelin/contracts-upgradeable/token/ERC20/ERC20Upgradeable.sol\":8365:8371  sender */\n      dup5\n        /* \"@openzeppelin/contracts-upgradeable/token/ERC20/ERC20Upgradeable.sol\":8373:8382  recipient */\n      dup5\n        /* \"@openzeppelin/contracts-upgradeable/token/ERC20/ERC20Upgradeable.sol\":8384:8390  amount */\n      dup5\n        /* \"@openzeppelin/contracts-upgradeable/token/ERC20/ERC20Upgradeable.sol\":8345:8364  _afterTokenTransfer */\n      tag_185\n        /* \"@openzeppelin/contracts-upgradeable/token/ERC20/ERC20Upgradeable.sol\":8345:8391  _afterTokenTransfer(sender, recipient, amount) */\n      jump\t// in\n    tag_248:\n        /* \"@openzeppelin/contracts-upgradeable/token/ERC20/ERC20Upgradeable.sol\":7685:8398  function _transfer(... */\n      pop\n      pop\n      pop\n      pop\n      jump\t// out\n        /* \"@openzeppelin/contracts-upgradeable/token/ERC20/ERC20Upgradeable.sol\":8674:9063  function _mint(address account, uint256 amount) internal virtual {... */\n    tag_158:\n      sub(shl(0xa0, 0x01), 0x01)\n        /* \"@openzeppelin/contracts-upgradeable/token/ERC20/ERC20Upgradeable.sol\":8757:8778  account != address(0) */\n      dup3\n      and\n        /* \"@openzeppelin/contracts-upgradeable/token/ERC20/ERC20Upgradeable.sol\":8749:8814  require(account != address(0), \"ERC20: mint to the zero address\") */\n      tag_251\n      jumpi\n      mload(0x40)\n      shl(0xe5, 0x461bcd)\n      dup2\n      mstore\n      0x04\n      add\n      tag_133\n      swap1\n      tag_253\n      jump\t// in\n    tag_251:\n        /* \"@openzeppelin/contracts-upgradeable/token/ERC20/ERC20Upgradeable.sol\":8825:8874  _beforeTokenTransfer(address(0), account, amount) */\n      tag_254\n        /* \"@openzeppelin/contracts-upgradeable/token/ERC20/ERC20Upgradeable.sol\":8854:8855  0 */\n      0x00\n        /* \"@openzeppelin/contracts-upgradeable/token/ERC20/ERC20Upgradeable.sol\":8858:8865  account */\n      dup4\n        /* \"@openzeppelin/contracts-upgradeable/token/ERC20/ERC20Upgradeable.sol\":8867:8873  amount */\n      dup4\n        /* \"@openzeppelin/contracts-upgradeable/token/ERC20/ERC20Upgradeable.sol\":8825:8845  _beforeTokenTransfer */\n      tag_185\n        /* \"@openzeppelin/contracts-upgradeable/token/ERC20/ERC20Upgradeable.sol\":8825:8874  _beforeTokenTransfer(address(0), account, amount) */\n      jump\t// in\n    tag_254:\n        /* \"@openzeppelin/contracts-upgradeable/token/ERC20/ERC20Upgradeable.sol\":8901:8907  amount */\n      dup1\n        /* \"@openzeppelin/contracts-upgradeable/token/ERC20/ERC20Upgradeable.sol\":8885:8897  _totalSupply */\n      0x67\n      0x00\n        /* \"@openzeppelin/contracts-upgradeable/token/ERC20/ERC20Upgradeable.sol\":8885:8907  _totalSupply += amount */\n      dup3\n      dup3\n      sload\n      tag_255\n      swap2\n      swap1\n      tag_151\n      jump\t// in\n    tag_255:\n      swap1\n      swap2\n      sstore\n      pop\n      pop\n      sub(shl(0xa0, 0x01), 0x01)\n        /* \"@openzeppelin/contracts-upgradeable/token/ERC20/ERC20Upgradeable.sol\":8917:8935  _balances[account] */\n      dup3\n      and\n      0x00\n      swap1\n      dup2\n      mstore\n        /* \"@openzeppelin/contracts-upgradeable/token/ERC20/ERC20Upgradeable.sol\":8917:8926  _balances */\n      0x65\n        /* \"@openzeppelin/contracts-upgradeable/token/ERC20/ERC20Upgradeable.sol\":8917:8935  _balances[account] */\n      0x20\n      mstore\n      0x40\n      dup2\n      keccak256\n        /* \"@openzeppelin/contracts-upgradeable/token/ERC20/ERC20Upgradeable.sol\":8917:8945  _balances[account] += amount */\n      dup1\n      sload\n        /* \"@openzeppelin/contracts-upgradeable/token/ERC20/ERC20Upgradeable.sol\":8939:8945  amount */\n      dup4\n      swap3\n        /* \"@openzeppelin/contracts-upgradeable/token/ERC20/ERC20Upgradeable.sol\":8917:8935  _balances[account] */\n      swap1\n        /* \"@openzeppelin/contracts-upgradeable/token/ERC20/ERC20Upgradeable.sol\":8917:8945  _balances[account] += amount */\n      tag_256\n      swap1\n        /* \"@openzeppelin/contracts-upgradeable/token/ERC20/ERC20Upgradeable.sol\":8939:8945  amount */\n      dup5\n      swap1\n        /* \"@openzeppelin/contracts-upgradeable/token/ERC20/ERC20Upgradeable.sol\":8917:8945  _balances[account] += amount */\n      tag_151\n      jump\t// in\n    tag_256:\n      swap1\n      swap2\n      sstore\n      pop\n      pop\n        /* \"@openzeppelin/contracts-upgradeable/token/ERC20/ERC20Upgradeable.sol\":8960:8997  Transfer(address(0), account, amount) */\n      mload(0x40)\n      sub(shl(0xa0, 0x01), 0x01)\n      dup4\n      and\n      swap1\n        /* \"@openzeppelin/contracts-upgradeable/token/ERC20/ERC20Upgradeable.sol\":8977:8978  0 */\n      0x00\n      swap1\n        /* \"@openzeppelin/contracts-upgradeable/token/ERC20/ERC20Upgradeable.sol\":8960:8997  Transfer(address(0), account, amount) */\n      0xddf252ad1be2c89b69c2b068fc378daa952ba7f163c4a11628f55a4df523b3ef\n      swap1\n      tag_257\n      swap1\n        /* \"@openzeppelin/contracts-upgradeable/token/ERC20/ERC20Upgradeable.sol\":8990:8996  amount */\n      dup6\n      swap1\n        /* \"@openzeppelin/contracts-upgradeable/token/ERC20/ERC20Upgradeable.sol\":8960:8997  Transfer(address(0), account, amount) */\n      tag_41\n      jump\t// in\n    tag_257:\n      mload(0x40)\n      dup1\n      swap2\n      sub\n      swap1\n      log3\n        /* \"@openzeppelin/contracts-upgradeable/token/ERC20/ERC20Upgradeable.sol\":9008:9056  _afterTokenTransfer(address(0), account, amount) */\n      tag_172\n        /* \"@openzeppelin/contracts-upgradeable/token/ERC20/ERC20Upgradeable.sol\":9036:9037  0 */\n      0x00\n        /* \"@openzeppelin/contracts-upgradeable/token/ERC20/ERC20Upgradeable.sol\":9040:9047  account */\n      dup4\n        /* \"@openzeppelin/contracts-upgradeable/token/ERC20/ERC20Upgradeable.sol\":9049:9055  amount */\n      dup4\n        /* \"@openzeppelin/contracts-upgradeable/token/ERC20/ERC20Upgradeable.sol\":9008:9027  _afterTokenTransfer */\n      tag_185\n        /* \"@openzeppelin/contracts-upgradeable/token/ERC20/ERC20Upgradeable.sol\":9008:9056  _afterTokenTransfer(address(0), account, amount) */\n      jump\t// in\n        /* \"@openzeppelin/contracts-upgradeable/token/ERC20/ERC20Upgradeable.sol\":9383:9959  function _burn(address account, uint256 amount) internal virtual {... */\n    tag_161:\n      sub(shl(0xa0, 0x01), 0x01)\n        /* \"@openzeppelin/contracts-upgradeable/token/ERC20/ERC20Upgradeable.sol\":9466:9487  account != address(0) */\n      dup3\n      and\n        /* \"@openzeppelin/contracts-upgradeable/token/ERC20/ERC20Upgradeable.sol\":9458:9525  require(account != address(0), \"ERC20: burn from the zero address\") */\n      tag_260\n      jumpi\n      mload(0x40)\n      shl(0xe5, 0x461bcd)\n      dup2\n      mstore\n      0x04\n      add\n      tag_133\n      swap1\n      tag_262\n      jump\t// in\n    tag_260:\n        /* \"@openzeppelin/contracts-upgradeable/token/ERC20/ERC20Upgradeable.sol\":9536:9585  _beforeTokenTransfer(account, address(0), amount) */\n      tag_263\n        /* \"@openzeppelin/contracts-upgradeable/token/ERC20/ERC20Upgradeable.sol\":9557:9564  account */\n      dup3\n        /* \"@openzeppelin/contracts-upgradeable/token/ERC20/ERC20Upgradeable.sol\":9574:9575  0 */\n      0x00\n        /* \"@openzeppelin/contracts-upgradeable/token/ERC20/ERC20Upgradeable.sol\":9578:9584  amount */\n      dup4\n        /* \"@openzeppelin/contracts-upgradeable/token/ERC20/ERC20Upgradeable.sol\":9536:9556  _beforeTokenTransfer */\n      tag_185\n        /* \"@openzeppelin/contracts-upgradeable/token/ERC20/ERC20Upgradeable.sol\":9536:9585  _beforeTokenTransfer(account, address(0), amount) */\n      jump\t// in\n    tag_263:\n      sub(shl(0xa0, 0x01), 0x01)\n        /* \"@openzeppelin/contracts-upgradeable/token/ERC20/ERC20Upgradeable.sol\":9621:9639  _balances[account] */\n      dup3\n      and\n        /* \"@openzeppelin/contracts-upgradeable/token/ERC20/ERC20Upgradeable.sol\":9596:9618  uint256 accountBalance */\n      0x00\n        /* \"@openzeppelin/contracts-upgradeable/token/ERC20/ERC20Upgradeable.sol\":9621:9639  _balances[account] */\n      swap1\n      dup2\n      mstore\n        /* \"@openzeppelin/contracts-upgradeable/token/ERC20/ERC20Upgradeable.sol\":9621:9630  _balances */\n      0x65\n        /* \"@openzeppelin/contracts-upgradeable/token/ERC20/ERC20Upgradeable.sol\":9621:9639  _balances[account] */\n      0x20\n      mstore\n      0x40\n      swap1\n      keccak256\n      sload\n        /* \"@openzeppelin/contracts-upgradeable/token/ERC20/ERC20Upgradeable.sol\":9657:9681  accountBalance >= amount */\n      dup2\n      dup2\n      lt\n      iszero\n        /* \"@openzeppelin/contracts-upgradeable/token/ERC20/ERC20Upgradeable.sol\":9649:9720  require(accountBalance >= amount, \"ERC20: burn amount exceeds balance\") */\n      tag_264\n      jumpi\n      mload(0x40)\n      shl(0xe5, 0x461bcd)\n      dup2\n      mstore\n      0x04\n      add\n      tag_133\n      swap1\n      tag_266\n      jump\t// in\n    tag_264:\n      sub(shl(0xa0, 0x01), 0x01)\n        /* \"@openzeppelin/contracts-upgradeable/token/ERC20/ERC20Upgradeable.sol\":9754:9772  _balances[account] */\n      dup4\n      and\n      0x00\n      swap1\n      dup2\n      mstore\n        /* \"@openzeppelin/contracts-upgradeable/token/ERC20/ERC20Upgradeable.sol\":9754:9763  _balances */\n      0x65\n        /* \"@openzeppelin/contracts-upgradeable/token/ERC20/ERC20Upgradeable.sol\":9754:9772  _balances[account] */\n      0x20\n      mstore\n      0x40\n      dup2\n      keccak256\n        /* \"@openzeppelin/contracts-upgradeable/token/ERC20/ERC20Upgradeable.sol\":9775:9798  accountBalance - amount */\n      dup4\n      dup4\n      sub\n        /* \"@openzeppelin/contracts-upgradeable/token/ERC20/ERC20Upgradeable.sol\":9754:9798  _balances[account] = accountBalance - amount */\n      swap1\n      sstore\n        /* \"@openzeppelin/contracts-upgradeable/token/ERC20/ERC20Upgradeable.sol\":9818:9830  _totalSupply */\n      0x67\n        /* \"@openzeppelin/contracts-upgradeable/token/ERC20/ERC20Upgradeable.sol\":9818:9840  _totalSupply -= amount */\n      dup1\n      sload\n        /* \"@openzeppelin/contracts-upgradeable/token/ERC20/ERC20Upgradeable.sol\":9792:9798  amount */\n      dup5\n      swap3\n        /* \"@openzeppelin/contracts-upgradeable/token/ERC20/ERC20Upgradeable.sol\":9754:9772  _balances[account] */\n      swap1\n        /* \"@openzeppelin/contracts-upgradeable/token/ERC20/ERC20Upgradeable.sol\":9818:9840  _totalSupply -= amount */\n      tag_267\n      swap1\n        /* \"@openzeppelin/contracts-upgradeable/token/ERC20/ERC20Upgradeable.sol\":9792:9798  amount */\n      dup5\n      swap1\n        /* \"@openzeppelin/contracts-upgradeable/token/ERC20/ERC20Upgradeable.sol\":9818:9840  _totalSupply -= amount */\n      tag_268\n      jump\t// in\n    tag_267:\n      swap1\n      swap2\n      sstore\n      pop\n      pop\n        /* \"@openzeppelin/contracts-upgradeable/token/ERC20/ERC20Upgradeable.sol\":9856:9893  Transfer(account, address(0), amount) */\n      mload(0x40)\n        /* \"@openzeppelin/contracts-upgradeable/token/ERC20/ERC20Upgradeable.sol\":9882:9883  0 */\n      0x00\n      swap1\n      sub(shl(0xa0, 0x01), 0x01)\n        /* \"@openzeppelin/contracts-upgradeable/token/ERC20/ERC20Upgradeable.sol\":9856:9893  Transfer(account, address(0), amount) */\n      dup6\n      and\n      swap1\n      0xddf252ad1be2c89b69c2b068fc378daa952ba7f163c4a11628f55a4df523b3ef\n      swap1\n      tag_269\n      swap1\n        /* \"@openzeppelin/contracts-upgradeable/token/ERC20/ERC20Upgradeable.sol\":9886:9892  amount */\n      dup7\n      swap1\n        /* \"@openzeppelin/contracts-upgradeable/token/ERC20/ERC20Upgradeable.sol\":9856:9893  Transfer(account, address(0), amount) */\n      tag_41\n      jump\t// in\n    tag_269:\n      mload(0x40)\n      dup1\n      swap2\n      sub\n      swap1\n      log3\n        /* \"@openzeppelin/contracts-upgradeable/token/ERC20/ERC20Upgradeable.sol\":9904:9952  _afterTokenTransfer(account, address(0), amount) */\n      tag_185\n        /* \"@openzeppelin/contracts-upgradeable/token/ERC20/ERC20Upgradeable.sol\":9924:9931  account */\n      dup4\n        /* \"@openzeppelin/contracts-upgradeable/token/ERC20/ERC20Upgradeable.sol\":9941:9942  0 */\n      0x00\n        /* \"@openzeppelin/contracts-upgradeable/token/ERC20/ERC20Upgradeable.sol\":9945:9951  amount */\n      dup5\n        /* \"@openzeppelin/contracts-upgradeable/token/ERC20/ERC20Upgradeable.sol\":9904:9923  _afterTokenTransfer */\n      tag_185\n        /* \"@openzeppelin/contracts-upgradeable/token/ERC20/ERC20Upgradeable.sol\":9904:9952  _afterTokenTransfer(account, address(0), amount) */\n      jump\t// in\n        /* \"@openzeppelin/contracts-upgradeable/access/OwnableUpgradeable.sol\":2536:2723  function _transferOwnership(address newOwner) internal virtual {... */\n    tag_170:\n        /* \"@openzeppelin/contracts-upgradeable/access/OwnableUpgradeable.sol\":2628:2634  _owner */\n      0x33\n      dup1\n      sload\n      sub(shl(0xa0, 0x01), 0x01)\n        /* \"@openzeppelin/contracts-upgradeable/access/OwnableUpgradeable.sol\":2644:2661  _owner = newOwner */\n      dup4\n      dup2\n      and\n      not(sub(shl(0xa0, 0x01), 0x01))\n      dup4\n      and\n      dup2\n      or\n      swap1\n      swap4\n      sstore\n        /* \"@openzeppelin/contracts-upgradeable/access/OwnableUpgradeable.sol\":2676:2716  OwnershipTransferred(oldOwner, newOwner) */\n      mload(0x40)\n        /* \"@openzeppelin/contracts-upgradeable/access/OwnableUpgradeable.sol\":2628:2634  _owner */\n      swap2\n      and\n      swap2\n        /* \"@openzeppelin/contracts-upgradeable/access/OwnableUpgradeable.sol\":2644:2661  _owner = newOwner */\n      swap1\n        /* \"@openzeppelin/contracts-upgradeable/access/OwnableUpgradeable.sol\":2628:2634  _owner */\n      dup3\n      swap1\n        /* \"@openzeppelin/contracts-upgradeable/access/OwnableUpgradeable.sol\":2676:2716  OwnershipTransferred(oldOwner, newOwner) */\n      0x8be0079c531659141344cd1fd0a4f28419497f9722a3daafe3b4186f6b6457e0\n      swap1\n        /* \"@openzeppelin/contracts-upgradeable/access/OwnableUpgradeable.sol\":2609:2625  address oldOwner */\n      0x00\n      swap1\n        /* \"@openzeppelin/contracts-upgradeable/access/OwnableUpgradeable.sol\":2676:2716  OwnershipTransferred(oldOwner, newOwner) */\n      log3\n        /* \"@openzeppelin/contracts-upgradeable/access/OwnableUpgradeable.sol\":2536:2723  function _transferOwnership(address newOwner) internal virtual {... */\n      pop\n      pop\n      jump\t// out\n        /* \"@openzeppelin/contracts-upgradeable/utils/math/SafeMathUpgradeable.sol\":4956:5187  function sub(... */\n    tag_183:\n        /* \"@openzeppelin/contracts-upgradeable/utils/math/SafeMathUpgradeable.sol\":5072:5079  uint256 */\n      0x00\n        /* \"@openzeppelin/contracts-upgradeable/utils/math/SafeMathUpgradeable.sol\":5131:5143  errorMessage */\n      dup2\n        /* \"@openzeppelin/contracts-upgradeable/utils/math/SafeMathUpgradeable.sol\":5123:5129  b <= a */\n      dup5\n      dup5\n      gt\n      iszero\n        /* \"@openzeppelin/contracts-upgradeable/utils/math/SafeMathUpgradeable.sol\":5115:5144  require(b <= a, errorMessage) */\n      tag_273\n      jumpi\n      mload(0x40)\n      shl(0xe5, 0x461bcd)\n      dup2\n      mstore\n      0x04\n      add\n      tag_133\n      swap2\n      swap1\n      tag_31\n      jump\t// in\n    tag_273:\n      pop\n      pop\n      pop\n        /* \"@openzeppelin/contracts-upgradeable/utils/math/SafeMathUpgradeable.sol\":5165:5170  a - b */\n      swap1\n      sub\n      swap1\n        /* \"@openzeppelin/contracts-upgradeable/utils/math/SafeMathUpgradeable.sol\":4956:5187  function sub(... */\n      jump\t// out\n        /* \"@openzeppelin/contracts-upgradeable/access/OwnableUpgradeable.sol\":988:1114  function __Ownable_init() internal initializer {... */\n    tag_220:\n        /* \"@openzeppelin/contracts-upgradeable/proxy/utils/Initializable.sol\":539:552  _initializing */\n      sload(0x00)\n      0x0100\n      swap1\n      div\n      0xff\n      and\n      dup1\n        /* \"@openzeppelin/contracts-upgradeable/proxy/utils/Initializable.sol\":539:569  _initializing || !_initialized */\n      tag_276\n      jumpi\n      pop\n        /* \"@openzeppelin/contracts-upgradeable/proxy/utils/Initializable.sol\":557:569  _initialized */\n      and(0xff, sload(0x00))\n        /* \"@openzeppelin/contracts-upgradeable/proxy/utils/Initializable.sol\":556:569  !_initialized */\n      iszero\n        /* \"@openzeppelin/contracts-upgradeable/proxy/utils/Initializable.sol\":539:569  _initializing || !_initialized */\n    tag_276:\n        /* \"@openzeppelin/contracts-upgradeable/proxy/utils/Initializable.sol\":531:620  require(_initializing || !_initialized, \"Initializable: contract is already initialized\") */\n      tag_277\n      jumpi\n      mload(0x40)\n      shl(0xe5, 0x461bcd)\n      dup2\n      mstore\n      0x04\n      add\n      tag_133\n      swap1\n      tag_216\n      jump\t// in\n    tag_277:\n        /* \"@openzeppelin/contracts-upgradeable/proxy/utils/Initializable.sol\":631:650  bool isTopLevelCall */\n      0x00\n        /* \"@openzeppelin/contracts-upgradeable/proxy/utils/Initializable.sol\":654:667  _initializing */\n      sload\n      0x0100\n      swap1\n      div\n      0xff\n      and\n        /* \"@openzeppelin/contracts-upgradeable/proxy/utils/Initializable.sol\":653:667  !_initializing */\n      iszero\n        /* \"@openzeppelin/contracts-upgradeable/proxy/utils/Initializable.sol\":677:775  if (isTopLevelCall) {... */\n      dup1\n      iszero\n      tag_279\n      jumpi\n        /* \"@openzeppelin/contracts-upgradeable/proxy/utils/Initializable.sol\":711:724  _initializing */\n      0x00\n        /* \"@openzeppelin/contracts-upgradeable/proxy/utils/Initializable.sol\":711:731  _initializing = true */\n      dup1\n      sload\n      not(0xff)\n      not(0xff00)\n      swap1\n      swap2\n      and\n      0x0100\n      or\n        /* \"@openzeppelin/contracts-upgradeable/proxy/utils/Initializable.sol\":745:764  _initialized = true */\n      and\n        /* \"@openzeppelin/contracts-upgradeable/proxy/utils/Initializable.sol\":727:731  true */\n      0x01\n        /* \"@openzeppelin/contracts-upgradeable/proxy/utils/Initializable.sol\":745:764  _initialized = true */\n      or\n      swap1\n      sstore\n        /* \"@openzeppelin/contracts-upgradeable/proxy/utils/Initializable.sol\":677:775  if (isTopLevelCall) {... */\n    tag_279:\n        /* \"@openzeppelin/contracts-upgradeable/access/OwnableUpgradeable.sol\":1045:1071  __Context_init_unchained() */\n      tag_281\n        /* \"@openzeppelin/contracts-upgradeable/access/OwnableUpgradeable.sol\":1045:1069  __Context_init_unchained */\n      tag_282\n        /* \"@openzeppelin/contracts-upgradeable/access/OwnableUpgradeable.sol\":1045:1071  __Context_init_unchained() */\n      jump\t// in\n    tag_281:\n        /* \"@openzeppelin/contracts-upgradeable/access/OwnableUpgradeable.sol\":1081:1107  __Ownable_init_unchained() */\n      tag_283\n        /* \"@openzeppelin/contracts-upgradeable/access/OwnableUpgradeable.sol\":1081:1105  __Ownable_init_unchained */\n      tag_284\n        /* \"@openzeppelin/contracts-upgradeable/access/OwnableUpgradeable.sol\":1081:1107  __Ownable_init_unchained() */\n      jump\t// in\n    tag_283:\n        /* \"@openzeppelin/contracts-upgradeable/proxy/utils/Initializable.sol\":801:815  isTopLevelCall */\n      dup1\n        /* \"@openzeppelin/contracts-upgradeable/proxy/utils/Initializable.sol\":797:863  if (isTopLevelCall) {... */\n      iszero\n      tag_160\n      jumpi\n        /* \"@openzeppelin/contracts-upgradeable/proxy/utils/Initializable.sol\":847:852  false */\n      0x00\n        /* \"@openzeppelin/contracts-upgradeable/proxy/utils/Initializable.sol\":831:852  _initializing = false */\n      dup1\n      sload\n      not(0xff00)\n      and\n      swap1\n      sstore\n        /* \"@openzeppelin/contracts-upgradeable/access/OwnableUpgradeable.sol\":988:1114  function __Ownable_init() internal initializer {... */\n      pop\n      jump\t// out\n        /* \"@openzeppelin/contracts-upgradeable/token/ERC20/ERC20Upgradeable.sol\":2101:2279  function __ERC20_init(string memory name_, string memory symbol_) internal initializer {... */\n    tag_222:\n        /* \"@openzeppelin/contracts-upgradeable/proxy/utils/Initializable.sol\":539:552  _initializing */\n      sload(0x00)\n      0x0100\n      swap1\n      div\n      0xff\n      and\n      dup1\n        /* \"@openzeppelin/contracts-upgradeable/proxy/utils/Initializable.sol\":539:569  _initializing || !_initialized */\n      tag_287\n      jumpi\n      pop\n        /* \"@openzeppelin/contracts-upgradeable/proxy/utils/Initializable.sol\":557:569  _initialized */\n      and(0xff, sload(0x00))\n        /* \"@openzeppelin/contracts-upgradeable/proxy/utils/Initializable.sol\":556:569  !_initialized */\n      iszero\n        /* \"@openzeppelin/contracts-upgradeable/proxy/utils/Initializable.sol\":539:569  _initializing || !_initialized */\n    tag_287:\n        /* \"@openzeppelin/contracts-upgradeable/proxy/utils/Initializable.sol\":531:620  require(_initializing || !_initialized, \"Initializable: contract is already initialized\") */\n      tag_288\n      jumpi\n      mload(0x40)\n      shl(0xe5, 0x461bcd)\n      dup2\n      mstore\n      0x04\n      add\n      tag_133\n      swap1\n      tag_216\n      jump\t// in\n    tag_288:\n        /* \"@openzeppelin/contracts-upgradeable/proxy/utils/Initializable.sol\":631:650  bool isTopLevelCall */\n      0x00\n        /* \"@openzeppelin/contracts-upgradeable/proxy/utils/Initializable.sol\":654:667  _initializing */\n      sload\n      0x0100\n      swap1\n      div\n      0xff\n      and\n        /* \"@openzeppelin/contracts-upgradeable/proxy/utils/Initializable.sol\":653:667  !_initializing */\n      iszero\n        /* \"@openzeppelin/contracts-upgradeable/proxy/utils/Initializable.sol\":677:775  if (isTopLevelCall) {... */\n      dup1\n      iszero\n      tag_290\n      jumpi\n        /* \"@openzeppelin/contracts-upgradeable/proxy/utils/Initializable.sol\":711:724  _initializing */\n      0x00\n        /* \"@openzeppelin/contracts-upgradeable/proxy/utils/Initializable.sol\":711:731  _initializing = true */\n      dup1\n      sload\n      not(0xff)\n      not(0xff00)\n      swap1\n      swap2\n      and\n      0x0100\n      or\n        /* \"@openzeppelin/contracts-upgradeable/proxy/utils/Initializable.sol\":745:764  _initialized = true */\n      and\n        /* \"@openzeppelin/contracts-upgradeable/proxy/utils/Initializable.sol\":727:731  true */\n      0x01\n        /* \"@openzeppelin/contracts-upgradeable/proxy/utils/Initializable.sol\":745:764  _initialized = true */\n      or\n      swap1\n      sstore\n        /* \"@openzeppelin/contracts-upgradeable/proxy/utils/Initializable.sol\":677:775  if (isTopLevelCall) {... */\n    tag_290:\n        /* \"@openzeppelin/contracts-upgradeable/token/ERC20/ERC20Upgradeable.sol\":2198:2224  __Context_init_unchained() */\n      tag_292\n        /* \"@openzeppelin/contracts-upgradeable/token/ERC20/ERC20Upgradeable.sol\":2198:2222  __Context_init_unchained */\n      tag_282\n        /* \"@openzeppelin/contracts-upgradeable/token/ERC20/ERC20Upgradeable.sol\":2198:2224  __Context_init_unchained() */\n      jump\t// in\n    tag_292:\n        /* \"@openzeppelin/contracts-upgradeable/token/ERC20/ERC20Upgradeable.sol\":2234:2272  __ERC20_init_unchained(name_, symbol_) */\n      tag_293\n        /* \"@openzeppelin/contracts-upgradeable/token/ERC20/ERC20Upgradeable.sol\":2257:2262  name_ */\n      dup4\n        /* \"@openzeppelin/contracts-upgradeable/token/ERC20/ERC20Upgradeable.sol\":2264:2271  symbol_ */\n      dup4\n        /* \"@openzeppelin/contracts-upgradeable/token/ERC20/ERC20Upgradeable.sol\":2234:2256  __ERC20_init_unchained */\n      tag_294\n        /* \"@openzeppelin/contracts-upgradeable/token/ERC20/ERC20Upgradeable.sol\":2234:2272  __ERC20_init_unchained(name_, symbol_) */\n      jump\t// in\n    tag_293:\n        /* \"@openzeppelin/contracts-upgradeable/proxy/utils/Initializable.sol\":801:815  isTopLevelCall */\n      dup1\n        /* \"@openzeppelin/contracts-upgradeable/proxy/utils/Initializable.sol\":797:863  if (isTopLevelCall) {... */\n      iszero\n      tag_185\n      jumpi\n        /* \"@openzeppelin/contracts-upgradeable/proxy/utils/Initializable.sol\":847:852  false */\n      0x00\n        /* \"@openzeppelin/contracts-upgradeable/proxy/utils/Initializable.sol\":831:852  _initializing = false */\n      dup1\n      sload\n      not(0xff00)\n      and\n      swap1\n      sstore\n        /* \"@openzeppelin/contracts-upgradeable/token/ERC20/ERC20Upgradeable.sol\":2101:2279  function __ERC20_init(string memory name_, string memory symbol_) internal initializer {... */\n      pop\n      pop\n      pop\n      jump\t// out\n        /* \"@openzeppelin/contracts-upgradeable/utils/ContextUpgradeable.sol\":807:871  function __Context_init_unchained() internal initializer {... */\n    tag_282:\n        /* \"@openzeppelin/contracts-upgradeable/proxy/utils/Initializable.sol\":539:552  _initializing */\n      sload(0x00)\n      0x0100\n      swap1\n      div\n      0xff\n      and\n      dup1\n        /* \"@openzeppelin/contracts-upgradeable/proxy/utils/Initializable.sol\":539:569  _initializing || !_initialized */\n      tag_299\n      jumpi\n      pop\n        /* \"@openzeppelin/contracts-upgradeable/proxy/utils/Initializable.sol\":557:569  _initialized */\n      and(0xff, sload(0x00))\n        /* \"@openzeppelin/contracts-upgradeable/proxy/utils/Initializable.sol\":556:569  !_initialized */\n      iszero\n        /* \"@openzeppelin/contracts-upgradeable/proxy/utils/Initializable.sol\":539:569  _initializing || !_initialized */\n    tag_299:\n        /* \"@openzeppelin/contracts-upgradeable/proxy/utils/Initializable.sol\":531:620  require(_initializing || !_initialized, \"Initializable: contract is already initialized\") */\n      tag_300\n      jumpi\n      mload(0x40)\n      shl(0xe5, 0x461bcd)\n      dup2\n      mstore\n      0x04\n      add\n      tag_133\n      swap1\n      tag_216\n      jump\t// in\n    tag_300:\n        /* \"@openzeppelin/contracts-upgradeable/proxy/utils/Initializable.sol\":631:650  bool isTopLevelCall */\n      0x00\n        /* \"@openzeppelin/contracts-upgradeable/proxy/utils/Initializable.sol\":654:667  _initializing */\n      sload\n      0x0100\n      swap1\n      div\n      0xff\n      and\n        /* \"@openzeppelin/contracts-upgradeable/proxy/utils/Initializable.sol\":653:667  !_initializing */\n      iszero\n        /* \"@openzeppelin/contracts-upgradeable/proxy/utils/Initializable.sol\":677:775  if (isTopLevelCall) {... */\n      dup1\n      iszero\n      tag_283\n      jumpi\n        /* \"@openzeppelin/contracts-upgradeable/proxy/utils/Initializable.sol\":711:724  _initializing */\n      0x00\n        /* \"@openzeppelin/contracts-upgradeable/proxy/utils/Initializable.sol\":711:731  _initializing = true */\n      dup1\n      sload\n      not(0xff)\n      not(0xff00)\n      swap1\n      swap2\n      and\n      0x0100\n      or\n        /* \"@openzeppelin/contracts-upgradeable/proxy/utils/Initializable.sol\":745:764  _initialized = true */\n      and\n        /* \"@openzeppelin/contracts-upgradeable/proxy/utils/Initializable.sol\":727:731  true */\n      0x01\n        /* \"@openzeppelin/contracts-upgradeable/proxy/utils/Initializable.sol\":745:764  _initialized = true */\n      or\n      swap1\n      sstore\n        /* \"@openzeppelin/contracts-upgradeable/proxy/utils/Initializable.sol\":801:815  isTopLevelCall */\n      dup1\n        /* \"@openzeppelin/contracts-upgradeable/proxy/utils/Initializable.sol\":797:863  if (isTopLevelCall) {... */\n      iszero\n      tag_160\n      jumpi\n        /* \"@openzeppelin/contracts-upgradeable/proxy/utils/Initializable.sol\":847:852  false */\n      0x00\n        /* \"@openzeppelin/contracts-upgradeable/proxy/utils/Initializable.sol\":831:852  _initializing = false */\n      dup1\n      sload\n      not(0xff00)\n      and\n      swap1\n      sstore\n        /* \"@openzeppelin/contracts-upgradeable/utils/ContextUpgradeable.sol\":807:871  function __Context_init_unchained() internal initializer {... */\n      pop\n      jump\t// out\n        /* \"@openzeppelin/contracts-upgradeable/access/OwnableUpgradeable.sol\":1120:1226  function __Ownable_init_unchained() internal initializer {... */\n    tag_284:\n        /* \"@openzeppelin/contracts-upgradeable/proxy/utils/Initializable.sol\":539:552  _initializing */\n      sload(0x00)\n      0x0100\n      swap1\n      div\n      0xff\n      and\n      dup1\n        /* \"@openzeppelin/contracts-upgradeable/proxy/utils/Initializable.sol\":539:569  _initializing || !_initialized */\n      tag_306\n      jumpi\n      pop\n        /* \"@openzeppelin/contracts-upgradeable/proxy/utils/Initializable.sol\":557:569  _initialized */\n      and(0xff, sload(0x00))\n        /* \"@openzeppelin/contracts-upgradeable/proxy/utils/Initializable.sol\":556:569  !_initialized */\n      iszero\n        /* \"@openzeppelin/contracts-upgradeable/proxy/utils/Initializable.sol\":539:569  _initializing || !_initialized */\n    tag_306:\n        /* \"@openzeppelin/contracts-upgradeable/proxy/utils/Initializable.sol\":531:620  require(_initializing || !_initialized, \"Initializable: contract is already initialized\") */\n      tag_307\n      jumpi\n      mload(0x40)\n      shl(0xe5, 0x461bcd)\n      dup2\n      mstore\n      0x04\n      add\n      tag_133\n      swap1\n      tag_216\n      jump\t// in\n    tag_307:\n        /* \"@openzeppelin/contracts-upgradeable/proxy/utils/Initializable.sol\":631:650  bool isTopLevelCall */\n      0x00\n        /* \"@openzeppelin/contracts-upgradeable/proxy/utils/Initializable.sol\":654:667  _initializing */\n      sload\n      0x0100\n      swap1\n      div\n      0xff\n      and\n        /* \"@openzeppelin/contracts-upgradeable/proxy/utils/Initializable.sol\":653:667  !_initializing */\n      iszero\n        /* \"@openzeppelin/contracts-upgradeable/proxy/utils/Initializable.sol\":677:775  if (isTopLevelCall) {... */\n      dup1\n      iszero\n      tag_309\n      jumpi\n        /* \"@openzeppelin/contracts-upgradeable/proxy/utils/Initializable.sol\":711:724  _initializing */\n      0x00\n        /* \"@openzeppelin/contracts-upgradeable/proxy/utils/Initializable.sol\":711:731  _initializing = true */\n      dup1\n      sload\n      not(0xff)\n      not(0xff00)\n      swap1\n      swap2\n      and\n      0x0100\n      or\n        /* \"@openzeppelin/contracts-upgradeable/proxy/utils/Initializable.sol\":745:764  _initialized = true */\n      and\n        /* \"@openzeppelin/contracts-upgradeable/proxy/utils/Initializable.sol\":727:731  true */\n      0x01\n        /* \"@openzeppelin/contracts-upgradeable/proxy/utils/Initializable.sol\":745:764  _initialized = true */\n      or\n      swap1\n      sstore\n        /* \"@openzeppelin/contracts-upgradeable/proxy/utils/Initializable.sol\":677:775  if (isTopLevelCall) {... */\n    tag_309:\n        /* \"@openzeppelin/contracts-upgradeable/access/OwnableUpgradeable.sol\":1187:1219  _transferOwnership(_msgSender()) */\n      tag_283\n        /* \"@openzeppelin/contracts-upgradeable/access/OwnableUpgradeable.sol\":1206:1218  _msgSender() */\n      tag_312\n        /* \"@openzeppelin/contracts-upgradeable/access/OwnableUpgradeable.sol\":1206:1216  _msgSender */\n      tag_126\n        /* \"@openzeppelin/contracts-upgradeable/access/OwnableUpgradeable.sol\":1206:1218  _msgSender() */\n      jump\t// in\n    tag_312:\n        /* \"@openzeppelin/contracts-upgradeable/access/OwnableUpgradeable.sol\":1187:1205  _transferOwnership */\n      tag_170\n        /* \"@openzeppelin/contracts-upgradeable/access/OwnableUpgradeable.sol\":1187:1219  _transferOwnership(_msgSender()) */\n      jump\t// in\n        /* \"@openzeppelin/contracts-upgradeable/token/ERC20/ERC20Upgradeable.sol\":2285:2439  function __ERC20_init_unchained(string memory name_, string memory symbol_) internal initializer {... */\n    tag_294:\n        /* \"@openzeppelin/contracts-upgradeable/proxy/utils/Initializable.sol\":539:552  _initializing */\n      sload(0x00)\n      0x0100\n      swap1\n      div\n      0xff\n      and\n      dup1\n        /* \"@openzeppelin/contracts-upgradeable/proxy/utils/Initializable.sol\":539:569  _initializing || !_initialized */\n      tag_315\n      jumpi\n      pop\n        /* \"@openzeppelin/contracts-upgradeable/proxy/utils/Initializable.sol\":557:569  _initialized */\n      and(0xff, sload(0x00))\n        /* \"@openzeppelin/contracts-upgradeable/proxy/utils/Initializable.sol\":556:569  !_initialized */\n      iszero\n        /* \"@openzeppelin/contracts-upgradeable/proxy/utils/Initializable.sol\":539:569  _initializing || !_initialized */\n    tag_315:\n        /* \"@openzeppelin/contracts-upgradeable/proxy/utils/Initializable.sol\":531:620  require(_initializing || !_initialized, \"Initializable: contract is already initialized\") */\n      tag_316\n      jumpi\n      mload(0x40)\n      shl(0xe5, 0x461bcd)\n      dup2\n      mstore\n      0x04\n      add\n      tag_133\n      swap1\n      tag_216\n      jump\t// in\n    tag_316:\n        /* \"@openzeppelin/contracts-upgradeable/proxy/utils/Initializable.sol\":631:650  bool isTopLevelCall */\n      0x00\n        /* \"@openzeppelin/contracts-upgradeable/proxy/utils/Initializable.sol\":654:667  _initializing */\n      sload\n      0x0100\n      swap1\n      div\n      0xff\n      and\n        /* \"@openzeppelin/contracts-upgradeable/proxy/utils/Initializable.sol\":653:667  !_initializing */\n      iszero\n        /* \"@openzeppelin/contracts-upgradeable/proxy/utils/Initializable.sol\":677:775  if (isTopLevelCall) {... */\n      dup1\n      iszero\n      tag_318\n      jumpi\n        /* \"@openzeppelin/contracts-upgradeable/proxy/utils/Initializable.sol\":711:724  _initializing */\n      0x00\n        /* \"@openzeppelin/contracts-upgradeable/proxy/utils/Initializable.sol\":711:731  _initializing = true */\n      dup1\n      sload\n      not(0xff)\n      not(0xff00)\n      swap1\n      swap2\n      and\n      0x0100\n      or\n        /* \"@openzeppelin/contracts-upgradeable/proxy/utils/Initializable.sol\":745:764  _initialized = true */\n      and\n        /* \"@openzeppelin/contracts-upgradeable/proxy/utils/Initializable.sol\":727:731  true */\n      0x01\n        /* \"@openzeppelin/contracts-upgradeable/proxy/utils/Initializable.sol\":745:764  _initialized = true */\n      or\n      swap1\n      sstore\n        /* \"@openzeppelin/contracts-upgradeable/proxy/utils/Initializable.sol\":677:775  if (isTopLevelCall) {... */\n    tag_318:\n        /* \"@openzeppelin/contracts-upgradeable/token/ERC20/ERC20Upgradeable.sol\":2392:2405  _name = name_ */\n      dup3\n      mload\n      tag_320\n      swap1\n        /* \"@openzeppelin/contracts-upgradeable/token/ERC20/ERC20Upgradeable.sol\":2392:2397  _name */\n      0x68\n      swap1\n        /* \"@openzeppelin/contracts-upgradeable/token/ERC20/ERC20Upgradeable.sol\":2392:2405  _name = name_ */\n      0x20\n      dup7\n      add\n      swap1\n      tag_321\n      jump\t// in\n    tag_320:\n      pop\n        /* \"@openzeppelin/contracts-upgradeable/token/ERC20/ERC20Upgradeable.sol\":2415:2432  _symbol = symbol_ */\n      dup2\n      mload\n      tag_322\n      swap1\n        /* \"@openzeppelin/contracts-upgradeable/token/ERC20/ERC20Upgradeable.sol\":2415:2422  _symbol */\n      0x69\n      swap1\n        /* \"@openzeppelin/contracts-upgradeable/token/ERC20/ERC20Upgradeable.sol\":2415:2432  _symbol = symbol_ */\n      0x20\n      dup6\n      add\n      swap1\n      tag_321\n      jump\t// in\n    tag_322:\n      pop\n        /* \"@openzeppelin/contracts-upgradeable/proxy/utils/Initializable.sol\":801:815  isTopLevelCall */\n      dup1\n        /* \"@openzeppelin/contracts-upgradeable/proxy/utils/Initializable.sol\":797:863  if (isTopLevelCall) {... */\n      iszero\n      tag_185\n      jumpi\n        /* \"@openzeppelin/contracts-upgradeable/proxy/utils/Initializable.sol\":847:852  false */\n      0x00\n        /* \"@openzeppelin/contracts-upgradeable/proxy/utils/Initializable.sol\":831:852  _initializing = false */\n      dup1\n      sload\n      not(0xff00)\n      and\n      swap1\n      sstore\n        /* \"@openzeppelin/contracts-upgradeable/token/ERC20/ERC20Upgradeable.sol\":2285:2439  function __ERC20_init_unchained(string memory name_, string memory symbol_) internal initializer {... */\n      pop\n      pop\n      pop\n      jump\t// out\n    tag_321:\n      dup3\n      dup1\n      sload\n      tag_324\n      swap1\n      tag_118\n      jump\t// in\n    tag_324:\n      swap1\n      0x00\n      mstore\n      keccak256(0x00, 0x20)\n      swap1\n      0x1f\n      add\n      0x20\n      swap1\n      div\n      dup2\n      add\n      swap3\n      dup3\n      tag_326\n      jumpi\n      0x00\n      dup6\n      sstore\n      jump(tag_329)\n    tag_326:\n      dup3\n      0x1f\n      lt\n      tag_327\n      jumpi\n      dup1\n      mload\n      not(0xff)\n      and\n      dup4\n      dup1\n      add\n      or\n      dup6\n      sstore\n      jump(tag_329)\n    tag_327:\n      dup3\n      dup1\n      add\n      0x01\n      add\n      dup6\n      sstore\n      dup3\n      iszero\n      tag_329\n      jumpi\n      swap2\n      dup3\n      add\n    tag_328:\n      dup3\n      dup2\n      gt\n      iszero\n      tag_329\n      jumpi\n      dup3\n      mload\n      dup3\n      sstore\n      swap2\n      0x20\n      add\n      swap2\n      swap1\n      0x01\n      add\n      swap1\n      jump(tag_328)\n    tag_329:\n      pop\n      tag_330\n      swap3\n      swap2\n      pop\n      tag_331\n      jump\t// in\n    tag_330:\n      pop\n      swap1\n      jump\t// out\n    tag_331:\n    tag_332:\n      dup1\n      dup3\n      gt\n      iszero\n      tag_330\n      jumpi\n      0x00\n      dup2\n      sstore\n      0x01\n      add\n      jump(tag_332)\n        /* \"#utility.yul\":14:189   */\n    tag_335:\n        /* \"#utility.yul\":84:104   */\n      dup1\n      calldataload\n      sub(shl(0xa0, 0x01), 0x01)\n        /* \"#utility.yul\":133:164   */\n      dup2\n      and\n        /* \"#utility.yul\":123:165   */\n      dup2\n      eq\n        /* \"#utility.yul\":113:115   */\n      tag_162\n      jumpi\n        /* \"#utility.yul\":179:180   */\n      0x00\n        /* \"#utility.yul\":176:177   */\n      dup1\n        /* \"#utility.yul\":169:181   */\n      revert\n        /* \"#utility.yul\":194:907   */\n    tag_338:\n      0x00\n        /* \"#utility.yul\":292:295   */\n      dup3\n        /* \"#utility.yul\":285:289   */\n      0x1f\n        /* \"#utility.yul\":277:283   */\n      dup4\n        /* \"#utility.yul\":273:290   */\n      add\n        /* \"#utility.yul\":269:296   */\n      slt\n        /* \"#utility.yul\":259:261   */\n      tag_340\n      jumpi\n        /* \"#utility.yul\":314:319   */\n      dup1\n        /* \"#utility.yul\":307:312   */\n      dup2\n        /* \"#utility.yul\":300:320   */\n      revert\n        /* \"#utility.yul\":259:261   */\n    tag_340:\n        /* \"#utility.yul\":354:360   */\n      dup2\n        /* \"#utility.yul\":341:361   */\n      calldataload\n        /* \"#utility.yul\":380:398   */\n      0xffffffffffffffff\n        /* \"#utility.yul\":417:419   */\n      dup1\n        /* \"#utility.yul\":413:415   */\n      dup3\n        /* \"#utility.yul\":410:420   */\n      gt\n        /* \"#utility.yul\":407:409   */\n      iszero\n      tag_342\n      jumpi\n        /* \"#utility.yul\":423:441   */\n      tag_342\n      tag_343\n      jump\t// in\n    tag_342:\n        /* \"#utility.yul\":472:474   */\n      0x40\n        /* \"#utility.yul\":466:475   */\n      mload\n        /* \"#utility.yul\":541:543   */\n      0x1f\n        /* \"#utility.yul\":522:535   */\n      dup4\n      add\n      not(0x1f)\n        /* \"#utility.yul\":518:545   */\n      and\n        /* \"#utility.yul\":506:546   */\n      dup2\n      add\n        /* \"#utility.yul\":548:552   */\n      0x20\n        /* \"#utility.yul\":502:553   */\n      add\n        /* \"#utility.yul\":568:586   */\n      dup3\n      dup2\n      gt\n        /* \"#utility.yul\":588:610   */\n      dup3\n      dup3\n      lt\n        /* \"#utility.yul\":565:611   */\n      or\n        /* \"#utility.yul\":562:564   */\n      iszero\n      tag_345\n      jumpi\n        /* \"#utility.yul\":614:632   */\n      tag_345\n      tag_343\n      jump\t// in\n    tag_345:\n        /* \"#utility.yul\":650:652   */\n      0x40\n        /* \"#utility.yul\":643:665   */\n      mstore\n        /* \"#utility.yul\":674:692   */\n      dup3\n      dup2\n      mstore\n        /* \"#utility.yul\":711:726   */\n      dup5\n      dup4\n      add\n        /* \"#utility.yul\":728:732   */\n      0x20\n        /* \"#utility.yul\":707:733   */\n      add\n        /* \"#utility.yul\":704:739   */\n      dup7\n      lt\n        /* \"#utility.yul\":701:703   */\n      iszero\n      tag_346\n      jumpi\n        /* \"#utility.yul\":756:761   */\n      dup4\n        /* \"#utility.yul\":749:754   */\n      dup5\n        /* \"#utility.yul\":742:762   */\n      revert\n        /* \"#utility.yul\":701:703   */\n    tag_346:\n        /* \"#utility.yul\":824:826   */\n      dup3\n        /* \"#utility.yul\":817:821   */\n      0x20\n        /* \"#utility.yul\":809:815   */\n      dup7\n        /* \"#utility.yul\":805:822   */\n      add\n        /* \"#utility.yul\":798:802   */\n      0x20\n        /* \"#utility.yul\":790:796   */\n      dup4\n        /* \"#utility.yul\":786:803   */\n      add\n        /* \"#utility.yul\":773:827   */\n      calldatacopy\n        /* \"#utility.yul\":847:862   */\n      swap2\n      dup3\n      add\n        /* \"#utility.yul\":864:868   */\n      0x20\n        /* \"#utility.yul\":843:869   */\n      add\n        /* \"#utility.yul\":836:877   */\n      swap3\n      swap1\n      swap3\n      mstore\n        /* \"#utility.yul\":851:857   */\n      swap4\n        /* \"#utility.yul\":249:907   */\n      swap3\n      pop\n      pop\n      pop\n      jump\t// out\n        /* \"#utility.yul\":912:1110   */\n    tag_70:\n      0x00\n        /* \"#utility.yul\":1024:1026   */\n      0x20\n        /* \"#utility.yul\":1012:1021   */\n      dup3\n        /* \"#utility.yul\":1003:1010   */\n      dup5\n        /* \"#utility.yul\":999:1022   */\n      sub\n        /* \"#utility.yul\":995:1027   */\n      slt\n        /* \"#utility.yul\":992:994   */\n      iszero\n      tag_348\n      jumpi\n        /* \"#utility.yul\":1045:1051   */\n      dup1\n        /* \"#utility.yul\":1037:1043   */\n      dup2\n        /* \"#utility.yul\":1030:1052   */\n      revert\n        /* \"#utility.yul\":992:994   */\n    tag_348:\n        /* \"#utility.yul\":1073:1104   */\n      tag_349\n        /* \"#utility.yul\":1094:1103   */\n      dup3\n        /* \"#utility.yul\":1073:1104   */\n      tag_335\n      jump\t// in\n    tag_349:\n        /* \"#utility.yul\":1063:1104   */\n      swap4\n        /* \"#utility.yul\":982:1110   */\n      swap3\n      pop\n      pop\n      pop\n      jump\t// out\n        /* \"#utility.yul\":1115:1389   */\n    tag_106:\n      0x00\n      dup1\n        /* \"#utility.yul\":1244:1246   */\n      0x40\n        /* \"#utility.yul\":1232:1241   */\n      dup4\n        /* \"#utility.yul\":1223:1230   */\n      dup6\n        /* \"#utility.yul\":1219:1242   */\n      sub\n        /* \"#utility.yul\":1215:1247   */\n      slt\n        /* \"#utility.yul\":1212:1214   */\n      iszero\n      tag_351\n      jumpi\n        /* \"#utility.yul\":1265:1271   */\n      dup1\n        /* \"#utility.yul\":1257:1263   */\n      dup2\n        /* \"#utility.yul\":1250:1272   */\n      revert\n        /* \"#utility.yul\":1212:1214   */\n    tag_351:\n        /* \"#utility.yul\":1293:1324   */\n      tag_352\n        /* \"#utility.yul\":1314:1323   */\n      dup4\n        /* \"#utility.yul\":1293:1324   */\n      tag_335\n      jump\t// in\n    tag_352:\n        /* \"#utility.yul\":1283:1324   */\n      swap2\n      pop\n        /* \"#utility.yul\":1343:1383   */\n      tag_353\n        /* \"#utility.yul\":1379:1381   */\n      0x20\n        /* \"#utility.yul\":1368:1377   */\n      dup5\n        /* \"#utility.yul\":1364:1382   */\n      add\n        /* \"#utility.yul\":1343:1383   */\n      tag_335\n      jump\t// in\n    tag_353:\n        /* \"#utility.yul\":1333:1383   */\n      swap1\n      pop\n        /* \"#utility.yul\":1202:1389   */\n      swap3\n      pop\n      swap3\n      swap1\n      pop\n      jump\t// out\n        /* \"#utility.yul\":1394:1736   */\n    tag_49:\n      0x00\n      dup1\n      0x00\n        /* \"#utility.yul\":1540:1542   */\n      0x60\n        /* \"#utility.yul\":1528:1537   */\n      dup5\n        /* \"#utility.yul\":1519:1526   */\n      dup7\n        /* \"#utility.yul\":1515:1538   */\n      sub\n        /* \"#utility.yul\":1511:1543   */\n      slt\n        /* \"#utility.yul\":1508:1510   */\n      iszero\n      tag_355\n      jumpi\n        /* \"#utility.yul\":1561:1567   */\n      dup1\n        /* \"#utility.yul\":1553:1559   */\n      dup2\n        /* \"#utility.yul\":1546:1568   */\n      revert\n        /* \"#utility.yul\":1508:1510   */\n    tag_355:\n        /* \"#utility.yul\":1589:1620   */\n      tag_356\n        /* \"#utility.yul\":1610:1619   */\n      dup5\n        /* \"#utility.yul\":1589:1620   */\n      tag_335\n      jump\t// in\n    tag_356:\n        /* \"#utility.yul\":1579:1620   */\n      swap3\n      pop\n        /* \"#utility.yul\":1639:1679   */\n      tag_357\n        /* \"#utility.yul\":1675:1677   */\n      0x20\n        /* \"#utility.yul\":1664:1673   */\n      dup6\n        /* \"#utility.yul\":1660:1678   */\n      add\n        /* \"#utility.yul\":1639:1679   */\n      tag_335\n      jump\t// in\n    tag_357:\n        /* \"#utility.yul\":1629:1679   */\n      swap2\n      pop\n        /* \"#utility.yul\":1726:1728   */\n      0x40\n        /* \"#utility.yul\":1715:1724   */\n      dup5\n        /* \"#utility.yul\":1711:1729   */\n      add\n        /* \"#utility.yul\":1698:1730   */\n      calldataload\n        /* \"#utility.yul\":1688:1730   */\n      swap1\n      pop\n        /* \"#utility.yul\":1498:1736   */\n      swap3\n      pop\n      swap3\n      pop\n      swap3\n      jump\t// out\n        /* \"#utility.yul\":1741:2110   */\n    tag_44:\n      0x00\n      dup1\n        /* \"#utility.yul\":1867:1869   */\n      0x40\n        /* \"#utility.yul\":1855:1864   */\n      dup4\n        /* \"#utility.yul\":1846:1853   */\n      dup6\n        /* \"#utility.yul\":1842:1865   */\n      sub\n        /* \"#utility.yul\":1838:1870   */\n      slt\n        /* \"#utility.yul\":1835:1837   */\n      iszero\n      tag_359\n      jumpi\n        /* \"#utility.yul\":1888:1894   */\n      dup2\n        /* \"#utility.yul\":1880:1886   */\n      dup3\n        /* \"#utility.yul\":1873:1895   */\n      revert\n        /* \"#utility.yul\":1835:1837   */\n    tag_359:\n        /* \"#utility.yul\":1916:1947   */\n      tag_360\n        /* \"#utility.yul\":1937:1946   */\n      dup4\n        /* \"#utility.yul\":1916:1947   */\n      tag_335\n      jump\t// in\n    tag_360:\n        /* \"#utility.yul\":1906:1947   */\n      swap2\n      pop\n        /* \"#utility.yul\":1997:1999   */\n      0x20\n        /* \"#utility.yul\":1986:1995   */\n      dup4\n        /* \"#utility.yul\":1982:2000   */\n      add\n        /* \"#utility.yul\":1969:2001   */\n      calldataload\n        /* \"#utility.yul\":2044:2049   */\n      dup1\n        /* \"#utility.yul\":2037:2050   */\n      iszero\n        /* \"#utility.yul\":2030:2051   */\n      iszero\n        /* \"#utility.yul\":2023:2028   */\n      dup2\n        /* \"#utility.yul\":2020:2052   */\n      eq\n        /* \"#utility.yul\":2010:2012   */\n      tag_361\n      jumpi\n        /* \"#utility.yul\":2071:2077   */\n      dup2\n        /* \"#utility.yul\":2063:2069   */\n      dup3\n        /* \"#utility.yul\":2056:2078   */\n      revert\n        /* \"#utility.yul\":2010:2012   */\n    tag_361:\n        /* \"#utility.yul\":2099:2104   */\n      dup1\n        /* \"#utility.yul\":2089:2104   */\n      swap2\n      pop\n      pop\n        /* \"#utility.yul\":1825:2110   */\n      swap3\n      pop\n      swap3\n      swap1\n      pop\n      jump\t// out\n        /* \"#utility.yul\":2115:2381   */\n    tag_34:\n      0x00\n      dup1\n        /* \"#utility.yul\":2244:2246   */\n      0x40\n        /* \"#utility.yul\":2232:2241   */\n      dup4\n        /* \"#utility.yul\":2223:2230   */\n      dup6\n        /* \"#utility.yul\":2219:2242   */\n      sub\n        /* \"#utility.yul\":2215:2247   */\n      slt\n        /* \"#utility.yul\":2212:2214   */\n      iszero\n      tag_363\n      jumpi\n        /* \"#utility.yul\":2265:2271   */\n      dup2\n        /* \"#utility.yul\":2257:2263   */\n      dup3\n        /* \"#utility.yul\":2250:2272   */\n      revert\n        /* \"#utility.yul\":2212:2214   */\n    tag_363:\n        /* \"#utility.yul\":2293:2324   */\n      tag_364\n        /* \"#utility.yul\":2314:2323   */\n      dup4\n        /* \"#utility.yul\":2293:2324   */\n      tag_335\n      jump\t// in\n    tag_364:\n        /* \"#utility.yul\":2283:2324   */\n      swap5\n        /* \"#utility.yul\":2371:2373   */\n      0x20\n        /* \"#utility.yul\":2356:2374   */\n      swap4\n      swap1\n      swap4\n      add\n        /* \"#utility.yul\":2343:2375   */\n      calldataload\n      swap4\n      pop\n      pop\n      pop\n        /* \"#utility.yul\":2202:2381   */\n      jump\t// out\n        /* \"#utility.yul\":2386:3108   */\n    tag_114:\n      0x00\n      dup1\n      0x00\n      dup1\n        /* \"#utility.yul\":2569:2572   */\n      0x80\n        /* \"#utility.yul\":2557:2566   */\n      dup6\n        /* \"#utility.yul\":2548:2555   */\n      dup8\n        /* \"#utility.yul\":2544:2567   */\n      sub\n        /* \"#utility.yul\":2540:2573   */\n      slt\n        /* \"#utility.yul\":2537:2539   */\n      iszero\n      tag_366\n      jumpi\n        /* \"#utility.yul\":2591:2597   */\n      dup1\n        /* \"#utility.yul\":2583:2589   */\n      dup2\n        /* \"#utility.yul\":2576:2598   */\n      revert\n        /* \"#utility.yul\":2537:2539   */\n    tag_366:\n        /* \"#utility.yul\":2636:2645   */\n      dup5\n        /* \"#utility.yul\":2623:2646   */\n      calldataload\n        /* \"#utility.yul\":2665:2683   */\n      0xffffffffffffffff\n        /* \"#utility.yul\":2706:2708   */\n      dup1\n        /* \"#utility.yul\":2698:2704   */\n      dup3\n        /* \"#utility.yul\":2695:2709   */\n      gt\n        /* \"#utility.yul\":2692:2694   */\n      iszero\n      tag_367\n      jumpi\n        /* \"#utility.yul\":2727:2733   */\n      dup3\n        /* \"#utility.yul\":2719:2725   */\n      dup4\n        /* \"#utility.yul\":2712:2734   */\n      revert\n        /* \"#utility.yul\":2692:2694   */\n    tag_367:\n        /* \"#utility.yul\":2755:2807   */\n      tag_368\n        /* \"#utility.yul\":2799:2806   */\n      dup9\n        /* \"#utility.yul\":2790:2796   */\n      dup4\n        /* \"#utility.yul\":2779:2788   */\n      dup10\n        /* \"#utility.yul\":2775:2797   */\n      add\n        /* \"#utility.yul\":2755:2807   */\n      tag_338\n      jump\t// in\n    tag_368:\n        /* \"#utility.yul\":2745:2807   */\n      swap6\n      pop\n        /* \"#utility.yul\":2860:2862   */\n      0x20\n        /* \"#utility.yul\":2849:2858   */\n      dup8\n        /* \"#utility.yul\":2845:2863   */\n      add\n        /* \"#utility.yul\":2832:2864   */\n      calldataload\n        /* \"#utility.yul\":2816:2864   */\n      swap2\n      pop\n        /* \"#utility.yul\":2889:2891   */\n      dup1\n        /* \"#utility.yul\":2879:2887   */\n      dup3\n        /* \"#utility.yul\":2876:2892   */\n      gt\n        /* \"#utility.yul\":2873:2875   */\n      iszero\n      tag_369\n      jumpi\n        /* \"#utility.yul\":2910:2916   */\n      dup3\n        /* \"#utility.yul\":2902:2908   */\n      dup4\n        /* \"#utility.yul\":2895:2917   */\n      revert\n        /* \"#utility.yul\":2873:2875   */\n    tag_369:\n      pop\n        /* \"#utility.yul\":2938:2992   */\n      tag_370\n        /* \"#utility.yul\":2984:2991   */\n      dup8\n        /* \"#utility.yul\":2973:2981   */\n      dup3\n        /* \"#utility.yul\":2962:2971   */\n      dup9\n        /* \"#utility.yul\":2958:2982   */\n      add\n        /* \"#utility.yul\":2938:2992   */\n      tag_338\n      jump\t// in\n    tag_370:\n        /* \"#utility.yul\":2928:2992   */\n      swap4\n      pop\n      pop\n        /* \"#utility.yul\":3011:3051   */\n      tag_371\n        /* \"#utility.yul\":3047:3049   */\n      0x40\n        /* \"#utility.yul\":3036:3045   */\n      dup7\n        /* \"#utility.yul\":3032:3050   */\n      add\n        /* \"#utility.yul\":3011:3051   */\n      tag_335\n      jump\t// in\n    tag_371:\n        /* \"#utility.yul\":2527:3108   */\n      swap4\n      swap7\n      swap3\n      swap6\n      pop\n        /* \"#utility.yul\":3001:3051   */\n      swap3\n      swap4\n        /* \"#utility.yul\":3098:3100   */\n      0x60\n        /* \"#utility.yul\":3083:3101   */\n      add\n        /* \"#utility.yul\":3070:3102   */\n      calldataload\n      swap3\n      pop\n      pop\n        /* \"#utility.yul\":2527:3108   */\n      jump\t// out\n        /* \"#utility.yul\":3113:3303   */\n    tag_66:\n      0x00\n        /* \"#utility.yul\":3225:3227   */\n      0x20\n        /* \"#utility.yul\":3213:3222   */\n      dup3\n        /* \"#utility.yul\":3204:3211   */\n      dup5\n        /* \"#utility.yul\":3200:3223   */\n      sub\n        /* \"#utility.yul\":3196:3228   */\n      slt\n        /* \"#utility.yul\":3193:3195   */\n      iszero\n      tag_373\n      jumpi\n        /* \"#utility.yul\":3246:3252   */\n      dup1\n        /* \"#utility.yul\":3238:3244   */\n      dup2\n        /* \"#utility.yul\":3231:3253   */\n      revert\n        /* \"#utility.yul\":3193:3195   */\n    tag_373:\n      pop\n        /* \"#utility.yul\":3274:3297   */\n      calldataload\n      swap2\n        /* \"#utility.yul\":3183:3303   */\n      swap1\n      pop\n      jump\t// out\n        /* \"#utility.yul\":3308:3511   */\n    tag_85:\n      sub(shl(0xa0, 0x01), 0x01)\n        /* \"#utility.yul\":3472:3504   */\n      swap2\n      swap1\n      swap2\n      and\n        /* \"#utility.yul\":3454:3505   */\n      dup2\n      mstore\n        /* \"#utility.yul\":3442:3444   */\n      0x20\n        /* \"#utility.yul\":3427:3445   */\n      add\n      swap1\n        /* \"#utility.yul\":3409:3511   */\n      jump\t// out\n        /* \"#utility.yul\":3516:3703   */\n    tag_37:\n        /* \"#utility.yul\":3681:3695   */\n      swap1\n      iszero\n        /* \"#utility.yul\":3674:3696   */\n      iszero\n        /* \"#utility.yul\":3656:3697   */\n      dup2\n      mstore\n        /* \"#utility.yul\":3644:3646   */\n      0x20\n        /* \"#utility.yul\":3629:3647   */\n      add\n      swap1\n        /* \"#utility.yul\":3611:3703   */\n      jump\t// out\n        /* \"#utility.yul\":3708:4311   */\n    tag_31:\n      0x00\n        /* \"#utility.yul\":3849:3851   */\n      0x20\n        /* \"#utility.yul\":3878:3880   */\n      dup1\n        /* \"#utility.yul\":3867:3876   */\n      dup4\n        /* \"#utility.yul\":3860:3881   */\n      mstore\n        /* \"#utility.yul\":3910:3916   */\n      dup4\n        /* \"#utility.yul\":3904:3917   */\n      mload\n        /* \"#utility.yul\":3953:3959   */\n      dup1\n        /* \"#utility.yul\":3948:3950   */\n      dup3\n        /* \"#utility.yul\":3937:3946   */\n      dup6\n        /* \"#utility.yul\":3933:3951   */\n      add\n        /* \"#utility.yul\":3926:3960   */\n      mstore\n        /* \"#utility.yul\":3978:3982   */\n      dup3\n        /* \"#utility.yul\":3991:4131   */\n    tag_377:\n        /* \"#utility.yul\":4005:4011   */\n      dup2\n        /* \"#utility.yul\":4002:4003   */\n      dup2\n        /* \"#utility.yul\":3999:4012   */\n      lt\n        /* \"#utility.yul\":3991:4131   */\n      iszero\n      tag_379\n      jumpi\n        /* \"#utility.yul\":4100:4114   */\n      dup6\n      dup2\n      add\n        /* \"#utility.yul\":4096:4119   */\n      dup4\n      add\n        /* \"#utility.yul\":4090:4120   */\n      mload\n        /* \"#utility.yul\":4066:4083   */\n      dup6\n      dup3\n      add\n        /* \"#utility.yul\":4085:4087   */\n      0x40\n        /* \"#utility.yul\":4062:4088   */\n      add\n        /* \"#utility.yul\":4055:4121   */\n      mstore\n        /* \"#utility.yul\":4020:4030   */\n      dup3\n      add\n        /* \"#utility.yul\":3991:4131   */\n      jump(tag_377)\n    tag_379:\n        /* \"#utility.yul\":4149:4155   */\n      dup2\n        /* \"#utility.yul\":4146:4147   */\n      dup2\n        /* \"#utility.yul\":4143:4156   */\n      gt\n        /* \"#utility.yul\":4140:4142   */\n      iszero\n      tag_380\n      jumpi\n        /* \"#utility.yul\":4219:4223   */\n      dup4\n        /* \"#utility.yul\":4214:4216   */\n      0x40\n        /* \"#utility.yul\":4205:4211   */\n      dup4\n        /* \"#utility.yul\":4194:4203   */\n      dup8\n        /* \"#utility.yul\":4190:4212   */\n      add\n        /* \"#utility.yul\":4186:4217   */\n      add\n        /* \"#utility.yul\":4179:4224   */\n      mstore\n        /* \"#utility.yul\":4140:4142   */\n    tag_380:\n      pop\n        /* \"#utility.yul\":4295:4297   */\n      0x1f\n        /* \"#utility.yul\":4274:4289   */\n      add\n      not(0x1f)\n        /* \"#utility.yul\":4270:4299   */\n      and\n        /* \"#utility.yul\":4255:4300   */\n      swap3\n      swap1\n      swap3\n      add\n        /* \"#utility.yul\":4302:4304   */\n      0x40\n        /* \"#utility.yul\":4251:4305   */\n      add\n      swap4\n        /* \"#utility.yul\":3829:4311   */\n      swap3\n      pop\n      pop\n      pop\n      jump\t// out\n        /* \"#utility.yul\":4316:4715   */\n    tag_240:\n        /* \"#utility.yul\":4518:4520   */\n      0x20\n        /* \"#utility.yul\":4500:4521   */\n      dup1\n      dup3\n      mstore\n        /* \"#utility.yul\":4557:4559   */\n      0x23\n        /* \"#utility.yul\":4537:4555   */\n      swap1\n      dup3\n      add\n        /* \"#utility.yul\":4530:4560   */\n      mstore\n        /* \"#utility.yul\":4596:4630   */\n      0x45524332303a207472616e7366657220746f20746865207a65726f2061646472\n        /* \"#utility.yul\":4591:4593   */\n      0x40\n        /* \"#utility.yul\":4576:4594   */\n      dup3\n      add\n        /* \"#utility.yul\":4569:4631   */\n      mstore\n      shl(0xe8, 0x657373)\n        /* \"#utility.yul\":4662:4664   */\n      0x60\n        /* \"#utility.yul\":4647:4665   */\n      dup3\n      add\n        /* \"#utility.yul\":4640:4673   */\n      mstore\n        /* \"#utility.yul\":4705:4708   */\n      0x80\n        /* \"#utility.yul\":4690:4709   */\n      add\n      swap1\n        /* \"#utility.yul\":4490:4715   */\n      jump\t// out\n        /* \"#utility.yul\":4720:5118   */\n    tag_266:\n        /* \"#utility.yul\":4922:4924   */\n      0x20\n        /* \"#utility.yul\":4904:4925   */\n      dup1\n      dup3\n      mstore\n        /* \"#utility.yul\":4961:4963   */\n      0x22\n        /* \"#utility.yul\":4941:4959   */\n      swap1\n      dup3\n      add\n        /* \"#utility.yul\":4934:4964   */\n      mstore\n        /* \"#utility.yul\":5000:5034   */\n      0x45524332303a206275726e20616d6f756e7420657863656564732062616c616e\n        /* \"#utility.yul\":4995:4997   */\n      0x40\n        /* \"#utility.yul\":4980:4998   */\n      dup3\n      add\n        /* \"#utility.yul\":4973:5035   */\n      mstore\n      shl(0xf0, 0x6365)\n        /* \"#utility.yul\":5066:5068   */\n      0x60\n        /* \"#utility.yul\":5051:5069   */\n      dup3\n      add\n        /* \"#utility.yul\":5044:5076   */\n      mstore\n        /* \"#utility.yul\":5108:5111   */\n      0x80\n        /* \"#utility.yul\":5093:5112   */\n      add\n      swap1\n        /* \"#utility.yul\":4894:5118   */\n      jump\t// out\n        /* \"#utility.yul\":5123:5525   */\n    tag_210:\n        /* \"#utility.yul\":5325:5327   */\n      0x20\n        /* \"#utility.yul\":5307:5328   */\n      dup1\n      dup3\n      mstore\n        /* \"#utility.yul\":5364:5366   */\n      0x26\n        /* \"#utility.yul\":5344:5362   */\n      swap1\n      dup3\n      add\n        /* \"#utility.yul\":5337:5367   */\n      mstore\n        /* \"#utility.yul\":5403:5437   */\n      0x4f776e61626c653a206e6577206f776e657220697320746865207a65726f2061\n        /* \"#utility.yul\":5398:5400   */\n      0x40\n        /* \"#utility.yul\":5383:5401   */\n      dup3\n      add\n        /* \"#utility.yul\":5376:5438   */\n      mstore\n      shl(0xd0, 0x646472657373)\n        /* \"#utility.yul\":5469:5471   */\n      0x60\n        /* \"#utility.yul\":5454:5472   */\n      dup3\n      add\n        /* \"#utility.yul\":5447:5483   */\n      mstore\n        /* \"#utility.yul\":5515:5518   */\n      0x80\n        /* \"#utility.yul\":5500:5519   */\n      add\n      swap1\n        /* \"#utility.yul\":5297:5525   */\n      jump\t// out\n        /* \"#utility.yul\":5530:5928   */\n    tag_232:\n        /* \"#utility.yul\":5732:5734   */\n      0x20\n        /* \"#utility.yul\":5714:5735   */\n      dup1\n      dup3\n      mstore\n        /* \"#utility.yul\":5771:5773   */\n      0x22\n        /* \"#utility.yul\":5751:5769   */\n      swap1\n      dup3\n      add\n        /* \"#utility.yul\":5744:5774   */\n      mstore\n        /* \"#utility.yul\":5810:5844   */\n      0x45524332303a20617070726f766520746f20746865207a65726f206164647265\n        /* \"#utility.yul\":5805:5807   */\n      0x40\n        /* \"#utility.yul\":5790:5808   */\n      dup3\n      add\n        /* \"#utility.yul\":5783:5845   */\n      mstore\n      shl(0xf0, 0x7373)\n        /* \"#utility.yul\":5876:5878   */\n      0x60\n        /* \"#utility.yul\":5861:5879   */\n      dup3\n      add\n        /* \"#utility.yul\":5854:5886   */\n      mstore\n        /* \"#utility.yul\":5918:5921   */\n      0x80\n        /* \"#utility.yul\":5903:5922   */\n      add\n      swap1\n        /* \"#utility.yul\":5704:5928   */\n      jump\t// out\n        /* \"#utility.yul\":5933:6335   */\n    tag_245:\n        /* \"#utility.yul\":6135:6137   */\n      0x20\n        /* \"#utility.yul\":6117:6138   */\n      dup1\n      dup3\n      mstore\n        /* \"#utility.yul\":6174:6176   */\n      0x26\n        /* \"#utility.yul\":6154:6172   */\n      swap1\n      dup3\n      add\n        /* \"#utility.yul\":6147:6177   */\n      mstore\n        /* \"#utility.yul\":6213:6247   */\n      0x45524332303a207472616e7366657220616d6f756e7420657863656564732062\n        /* \"#utility.yul\":6208:6210   */\n      0x40\n        /* \"#utility.yul\":6193:6211   */\n      dup3\n      add\n        /* \"#utility.yul\":6186:6248   */\n      mstore\n      shl(0xd0, 0x616c616e6365)\n        /* \"#utility.yul\":6279:6281   */\n      0x60\n        /* \"#utility.yul\":6264:6282   */\n      dup3\n      add\n        /* \"#utility.yul\":6257:6293   */\n      mstore\n        /* \"#utility.yul\":6325:6328   */\n      0x80\n        /* \"#utility.yul\":6310:6329   */\n      add\n      swap1\n        /* \"#utility.yul\":6107:6335   */\n      jump\t// out\n        /* \"#utility.yul\":6340:6740   */\n    tag_155:\n        /* \"#utility.yul\":6542:6544   */\n      0x20\n        /* \"#utility.yul\":6524:6545   */\n      dup1\n      dup3\n      mstore\n        /* \"#utility.yul\":6581:6583   */\n      0x24\n        /* \"#utility.yul\":6561:6579   */\n      swap1\n      dup3\n      add\n        /* \"#utility.yul\":6554:6584   */\n      mstore\n        /* \"#utility.yul\":6620:6654   */\n      0x6578656375746f723a2063616c6c6572206973206e6f74207468652065786563\n        /* \"#utility.yul\":6615:6617   */\n      0x40\n        /* \"#utility.yul\":6600:6618   */\n      dup3\n      add\n        /* \"#utility.yul\":6593:6655   */\n      mstore\n      shl(0xe1, 0x3aba37b9)\n        /* \"#utility.yul\":6686:6688   */\n      0x60\n        /* \"#utility.yul\":6671:6689   */\n      dup3\n      add\n        /* \"#utility.yul\":6664:6698   */\n      mstore\n        /* \"#utility.yul\":6730:6733   */\n      0x80\n        /* \"#utility.yul\":6715:6734   */\n      add\n      swap1\n        /* \"#utility.yul\":6514:6740   */\n      jump\t// out\n        /* \"#utility.yul\":6745:7155   */\n    tag_216:\n        /* \"#utility.yul\":6947:6949   */\n      0x20\n        /* \"#utility.yul\":6929:6950   */\n      dup1\n      dup3\n      mstore\n        /* \"#utility.yul\":6986:6988   */\n      0x2e\n        /* \"#utility.yul\":6966:6984   */\n      swap1\n      dup3\n      add\n        /* \"#utility.yul\":6959:6989   */\n      mstore\n        /* \"#utility.yul\":7025:7059   */\n      0x496e697469616c697a61626c653a20636f6e747261637420697320616c726561\n        /* \"#utility.yul\":7020:7022   */\n      0x40\n        /* \"#utility.yul\":7005:7023   */\n      dup3\n      add\n        /* \"#utility.yul\":6998:7060   */\n      mstore\n      shl(0x92, 0x191e481a5b9a5d1a585b1a5e9959)\n        /* \"#utility.yul\":7091:7093   */\n      0x60\n        /* \"#utility.yul\":7076:7094   */\n      dup3\n      add\n        /* \"#utility.yul\":7069:7113   */\n      mstore\n        /* \"#utility.yul\":7145:7148   */\n      0x80\n        /* \"#utility.yul\":7130:7149   */\n      add\n      swap1\n        /* \"#utility.yul\":6919:7155   */\n      jump\t// out\n        /* \"#utility.yul\":7160:7564   */\n    tag_142:\n        /* \"#utility.yul\":7362:7364   */\n      0x20\n        /* \"#utility.yul\":7344:7365   */\n      dup1\n      dup3\n      mstore\n        /* \"#utility.yul\":7401:7403   */\n      0x28\n        /* \"#utility.yul\":7381:7399   */\n      swap1\n      dup3\n      add\n        /* \"#utility.yul\":7374:7404   */\n      mstore\n        /* \"#utility.yul\":7440:7474   */\n      0x45524332303a207472616e7366657220616d6f756e7420657863656564732061\n        /* \"#utility.yul\":7435:7437   */\n      0x40\n        /* \"#utility.yul\":7420:7438   */\n      dup3\n      add\n        /* \"#utility.yul\":7413:7475   */\n      mstore\n      shl(0xc0, 0x6c6c6f77616e6365)\n        /* \"#utility.yul\":7506:7508   */\n      0x60\n        /* \"#utility.yul\":7491:7509   */\n      dup3\n      add\n        /* \"#utility.yul\":7484:7522   */\n      mstore\n        /* \"#utility.yul\":7554:7557   */\n      0x80\n        /* \"#utility.yul\":7539:7558   */\n      add\n      swap1\n        /* \"#utility.yul\":7334:7564   */\n      jump\t// out\n        /* \"#utility.yul\":7569:7925   */\n    tag_134:\n        /* \"#utility.yul\":7771:7773   */\n      0x20\n        /* \"#utility.yul\":7753:7774   */\n      dup1\n      dup3\n      mstore\n        /* \"#utility.yul\":7790:7808   */\n      dup2\n      dup2\n      add\n        /* \"#utility.yul\":7783:7813   */\n      mstore\n        /* \"#utility.yul\":7849:7883   */\n      0x4f776e61626c653a2063616c6c6572206973206e6f7420746865206f776e6572\n        /* \"#utility.yul\":7844:7846   */\n      0x40\n        /* \"#utility.yul\":7829:7847   */\n      dup3\n      add\n        /* \"#utility.yul\":7822:7884   */\n      mstore\n        /* \"#utility.yul\":7916:7918   */\n      0x60\n        /* \"#utility.yul\":7901:7919   */\n      add\n      swap1\n        /* \"#utility.yul\":7743:7925   */\n      jump\t// out\n        /* \"#utility.yul\":7930:8327   */\n    tag_262:\n        /* \"#utility.yul\":8132:8134   */\n      0x20\n        /* \"#utility.yul\":8114:8135   */\n      dup1\n      dup3\n      mstore\n        /* \"#utility.yul\":8171:8173   */\n      0x21\n        /* \"#utility.yul\":8151:8169   */\n      swap1\n      dup3\n      add\n        /* \"#utility.yul\":8144:8174   */\n      mstore\n        /* \"#utility.yul\":8210:8244   */\n      0x45524332303a206275726e2066726f6d20746865207a65726f20616464726573\n        /* \"#utility.yul\":8205:8207   */\n      0x40\n        /* \"#utility.yul\":8190:8208   */\n      dup3\n      add\n        /* \"#utility.yul\":8183:8245   */\n      mstore\n      shl(0xf8, 0x73)\n        /* \"#utility.yul\":8276:8278   */\n      0x60\n        /* \"#utility.yul\":8261:8279   */\n      dup3\n      add\n        /* \"#utility.yul\":8254:8285   */\n      mstore\n        /* \"#utility.yul\":8317:8320   */\n      0x80\n        /* \"#utility.yul\":8302:8321   */\n      add\n      swap1\n        /* \"#utility.yul\":8104:8327   */\n      jump\t// out\n        /* \"#utility.yul\":8332:8733   */\n    tag_237:\n        /* \"#utility.yul\":8534:8536   */\n      0x20\n        /* \"#utility.yul\":8516:8537   */\n      dup1\n      dup3\n      mstore\n        /* \"#utility.yul\":8573:8575   */\n      0x25\n        /* \"#utility.yul\":8553:8571   */\n      swap1\n      dup3\n      add\n        /* \"#utility.yul\":8546:8576   */\n      mstore\n        /* \"#utility.yul\":8612:8646   */\n      0x45524332303a207472616e736665722066726f6d20746865207a65726f206164\n        /* \"#utility.yul\":8607:8609   */\n      0x40\n        /* \"#utility.yul\":8592:8610   */\n      dup3\n      add\n        /* \"#utility.yul\":8585:8647   */\n      mstore\n      shl(0xd8, 0x6472657373)\n        /* \"#utility.yul\":8678:8680   */\n      0x60\n        /* \"#utility.yul\":8663:8681   */\n      dup3\n      add\n        /* \"#utility.yul\":8656:8691   */\n      mstore\n        /* \"#utility.yul\":8723:8726   */\n      0x80\n        /* \"#utility.yul\":8708:8727   */\n      add\n      swap1\n        /* \"#utility.yul\":8506:8733   */\n      jump\t// out\n        /* \"#utility.yul\":8738:9138   */\n    tag_229:\n        /* \"#utility.yul\":8940:8942   */\n      0x20\n        /* \"#utility.yul\":8922:8943   */\n      dup1\n      dup3\n      mstore\n        /* \"#utility.yul\":8979:8981   */\n      0x24\n        /* \"#utility.yul\":8959:8977   */\n      swap1\n      dup3\n      add\n        /* \"#utility.yul\":8952:8982   */\n      mstore\n        /* \"#utility.yul\":9018:9052   */\n      0x45524332303a20617070726f76652066726f6d20746865207a65726f20616464\n        /* \"#utility.yul\":9013:9015   */\n      0x40\n        /* \"#utility.yul\":8998:9016   */\n      dup3\n      add\n        /* \"#utility.yul\":8991:9053   */\n      mstore\n      shl(0xe0, 0x72657373)\n        /* \"#utility.yul\":9084:9086   */\n      0x60\n        /* \"#utility.yul\":9069:9087   */\n      dup3\n      add\n        /* \"#utility.yul\":9062:9096   */\n      mstore\n        /* \"#utility.yul\":9128:9131   */\n      0x80\n        /* \"#utility.yul\":9113:9132   */\n      add\n      swap1\n        /* \"#utility.yul\":8912:9138   */\n      jump\t// out\n        /* \"#utility.yul\":9143:9544   */\n    tag_190:\n        /* \"#utility.yul\":9345:9347   */\n      0x20\n        /* \"#utility.yul\":9327:9348   */\n      dup1\n      dup3\n      mstore\n        /* \"#utility.yul\":9384:9386   */\n      0x25\n        /* \"#utility.yul\":9364:9382   */\n      swap1\n      dup3\n      add\n        /* \"#utility.yul\":9357:9387   */\n      mstore\n        /* \"#utility.yul\":9423:9457   */\n      0x45524332303a2064656372656173656420616c6c6f77616e63652062656c6f77\n        /* \"#utility.yul\":9418:9420   */\n      0x40\n        /* \"#utility.yul\":9403:9421   */\n      dup3\n      add\n        /* \"#utility.yul\":9396:9458   */\n      mstore\n      shl(0xd8, 0x207a65726f)\n        /* \"#utility.yul\":9489:9491   */\n      0x60\n        /* \"#utility.yul\":9474:9492   */\n      dup3\n      add\n        /* \"#utility.yul\":9467:9502   */\n      mstore\n        /* \"#utility.yul\":9534:9537   */\n      0x80\n        /* \"#utility.yul\":9519:9538   */\n      add\n      swap1\n        /* \"#utility.yul\":9317:9544   */\n      jump\t// out\n        /* \"#utility.yul\":9549:9904   */\n    tag_253:\n        /* \"#utility.yul\":9751:9753   */\n      0x20\n        /* \"#utility.yul\":9733:9754   */\n      dup1\n      dup3\n      mstore\n        /* \"#utility.yul\":9790:9792   */\n      0x1f\n        /* \"#utility.yul\":9770:9788   */\n      swap1\n      dup3\n      add\n        /* \"#utility.yul\":9763:9793   */\n      mstore\n        /* \"#utility.yul\":9829:9862   */\n      0x45524332303a206d696e7420746f20746865207a65726f206164647265737300\n        /* \"#utility.yul\":9824:9826   */\n      0x40\n        /* \"#utility.yul\":9809:9827   */\n      dup3\n      add\n        /* \"#utility.yul\":9802:9863   */\n      mstore\n        /* \"#utility.yul\":9895:9897   */\n      0x60\n        /* \"#utility.yul\":9880:9898   */\n      add\n      swap1\n        /* \"#utility.yul\":9723:9904   */\n      jump\t// out\n        /* \"#utility.yul\":9909:10086   */\n    tag_41:\n        /* \"#utility.yul\":10055:10080   */\n      swap1\n      dup2\n      mstore\n        /* \"#utility.yul\":10043:10045   */\n      0x20\n        /* \"#utility.yul\":10028:10046   */\n      add\n      swap1\n        /* \"#utility.yul\":10010:10086   */\n      jump\t// out\n        /* \"#utility.yul\":10091:10275   */\n    tag_55:\n        /* \"#utility.yul\":10263:10267   */\n      0xff\n        /* \"#utility.yul\":10251:10268   */\n      swap2\n      swap1\n      swap2\n      and\n        /* \"#utility.yul\":10233:10269   */\n      dup2\n      mstore\n        /* \"#utility.yul\":10221:10223   */\n      0x20\n        /* \"#utility.yul\":10206:10224   */\n      add\n      swap1\n        /* \"#utility.yul\":10188:10275   */\n      jump\t// out\n        /* \"#utility.yul\":10280:10408   */\n    tag_151:\n      0x00\n        /* \"#utility.yul\":10351:10352   */\n      dup3\n        /* \"#utility.yul\":10347:10353   */\n      not\n        /* \"#utility.yul\":10344:10345   */\n      dup3\n        /* \"#utility.yul\":10341:10354   */\n      gt\n        /* \"#utility.yul\":10338:10340   */\n      iszero\n      tag_399\n      jumpi\n        /* \"#utility.yul\":10357:10375   */\n      tag_399\n      tag_400\n      jump\t// in\n    tag_399:\n      pop\n        /* \"#utility.yul\":10393:10402   */\n      add\n      swap1\n        /* \"#utility.yul\":10328:10408   */\n      jump\t// out\n        /* \"#utility.yul\":10413:10538   */\n    tag_268:\n      0x00\n        /* \"#utility.yul\":10481:10482   */\n      dup3\n        /* \"#utility.yul\":10478:10479   */\n      dup3\n        /* \"#utility.yul\":10475:10483   */\n      lt\n        /* \"#utility.yul\":10472:10474   */\n      iszero\n      tag_403\n      jumpi\n        /* \"#utility.yul\":10486:10504   */\n      tag_403\n      tag_400\n      jump\t// in\n    tag_403:\n      pop\n        /* \"#utility.yul\":10523:10532   */\n      sub\n      swap1\n        /* \"#utility.yul\":10462:10538   */\n      jump\t// out\n        /* \"#utility.yul\":10543:10923   */\n    tag_118:\n        /* \"#utility.yul\":10628:10629   */\n      0x02\n        /* \"#utility.yul\":10618:10630   */\n      dup2\n      div\n        /* \"#utility.yul\":10675:10676   */\n      0x01\n        /* \"#utility.yul\":10665:10677   */\n      dup3\n      and\n      dup1\n        /* \"#utility.yul\":10686:10688   */\n      tag_405\n      jumpi\n        /* \"#utility.yul\":10740:10744   */\n      0x7f\n        /* \"#utility.yul\":10732:10738   */\n      dup3\n        /* \"#utility.yul\":10728:10745   */\n      and\n        /* \"#utility.yul\":10718:10745   */\n      swap2\n      pop\n        /* \"#utility.yul\":10686:10688   */\n    tag_405:\n        /* \"#utility.yul\":10793:10795   */\n      0x20\n        /* \"#utility.yul\":10785:10791   */\n      dup3\n        /* \"#utility.yul\":10782:10796   */\n      lt\n        /* \"#utility.yul\":10762:10780   */\n      dup2\n        /* \"#utility.yul\":10759:10797   */\n      eq\n        /* \"#utility.yul\":10756:10758   */\n      iszero\n      tag_406\n      jumpi\n        /* \"#utility.yul\":10839:10849   */\n      0x4e487b71\n        /* \"#utility.yul\":10834:10837   */\n      0xe0\n        /* \"#utility.yul\":10830:10850   */\n      shl\n        /* \"#utility.yul\":10827:10828   */\n      0x00\n        /* \"#utility.yul\":10820:10851   */\n      mstore\n        /* \"#utility.yul\":10874:10878   */\n      0x22\n        /* \"#utility.yul\":10871:10872   */\n      0x04\n        /* \"#utility.yul\":10864:10879   */\n      mstore\n        /* \"#utility.yul\":10902:10906   */\n      0x24\n        /* \"#utility.yul\":10899:10900   */\n      0x00\n        /* \"#utility.yul\":10892:10907   */\n      revert\n        /* \"#utility.yul\":10756:10758   */\n    tag_406:\n      pop\n        /* \"#utility.yul\":10598:10923   */\n      swap2\n      swap1\n      pop\n      jump\t// out\n        /* \"#utility.yul\":10928:11055   */\n    tag_400:\n        /* \"#utility.yul\":10989:10999   */\n      0x4e487b71\n        /* \"#utility.yul\":10984:10987   */\n      0xe0\n        /* \"#utility.yul\":10980:11000   */\n      shl\n        /* \"#utility.yul\":10977:10978   */\n      0x00\n        /* \"#utility.yul\":10970:11001   */\n      mstore\n        /* \"#utility.yul\":11020:11024   */\n      0x11\n        /* \"#utility.yul\":11017:11018   */\n      0x04\n        /* \"#utility.yul\":11010:11025   */\n      mstore\n        /* \"#utility.yul\":11044:11048   */\n      0x24\n        /* \"#utility.yul\":11041:11042   */\n      0x00\n        /* \"#utility.yul\":11034:11049   */\n      revert\n        /* \"#utility.yul\":11060:11187   */\n    tag_343:\n        /* \"#utility.yul\":11121:11131   */\n      0x4e487b71\n        /* \"#utility.yul\":11116:11119   */\n      0xe0\n        /* \"#utility.yul\":11112:11132   */\n      shl\n        /* \"#utility.yul\":11109:11110   */\n      0x00\n        /* \"#utility.yul\":11102:11133   */\n      mstore\n        /* \"#utility.yul\":11152:11156   */\n      0x41\n        /* \"#utility.yul\":11149:11150   */\n      0x04\n        /* \"#utility.yul\":11142:11157   */\n      mstore\n        /* \"#utility.yul\":11176:11180   */\n      0x24\n        /* \"#utility.yul\":11173:11174   */\n      0x00\n        /* \"#utility.yul\":11166:11181   */\n      revert\n    stop\n    data_a287c363786607a1457a2d9d12fa61c0073358e02d76b4035fc2c2d86a19c0db 45524332303a206275726e20616d6f756e74206578636565647320616c6c6f77616e6365\n\n    auxdata: 0xa264697066735822122002cb7b152e90036199af1d5e8183ec9c55c4b9efe2616a7cf9c1be1b6037fb4c64736f6c63430008000033\n}\n",
				"bytecode": {
					"linkReferences": {},
					"object": "608060405234801561001057600080fd5b506116b5806100206000396000f3fe608060405234801561001057600080fd5b50600436106101425760003560e01c8063715018a6116100b8578063a457c2d71161007c578063a457c2d714610281578063a9059cbb14610294578063aa609d3f146102a7578063dd62ed3e146102ba578063f2fde38b146102cd578063f542033f146102e057610142565b8063715018a61461023657806379cc67901461023e5780638da5cb5b1461025157806395d89b4114610266578063a22b35ce1461026e57610142565b8063313ce5671161010a578063313ce567146101c057806339509351146101d557806340c10f19146101e857806342966c68146101fb57806348c7e5281461021057806370a082311461022357610142565b806306fdde0314610147578063095ea7b31461016557806318160ddd146101855780631e1bff3f1461019a57806323b872dd146101ad575b600080fd5b61014f6102f3565b60405161015c91906111b3565b60405180910390f35b6101786101733660046110da565b610385565b60405161015c91906111a8565b61018d6103a2565b60405161015c91906115ae565b6101786101a83660046110a0565b6103a8565b6101786101bb366004611065565b610421565b6101c86104b1565b60405161015c91906115b7565b6101786101e33660046110da565b6104b6565b6101786101f63660046110da565b61050a565b61020e61020936600461117c565b610543565b005b61017861021e366004611012565b610550565b61018d610231366004611012565b610565565b61020e610584565b61020e61024c3660046110da565b6105cf565b6102596105dd565b60405161015c9190611194565b61014f6105ec565b61020e61027c3660046110da565b6105fb565b61017861028f3660046110da565b610647565b6101786102a23660046110da565b6106c0565b6101786102b53660046110da565b6106d4565b61018d6102c8366004611033565b61070d565b61020e6102db366004611012565b610738565b61020e6102ee366004611103565b6107a6565b606060688054610302906115f4565b80601f016020809104026020016040519081016040528092919081815260200182805461032e906115f4565b801561037b5780601f106103505761010080835404028352916020019161037b565b820191906000526020600020905b81548152906001019060200180831161035e57829003601f168201915b5050505050905090565b600061039961039261083b565b848461083f565b50600192915050565b60675490565b60006103b261083b565b6001600160a01b03166103c36105dd565b6001600160a01b0316146103f25760405162461bcd60e51b81526004016103e990611433565b60405180910390fd5b506001600160a01b0382166000908152609760205260409020805482151560ff19909116179055600192915050565b600061042e8484846108f3565b6001600160a01b03841660009081526066602052604081208161044f61083b565b6001600160a01b03166001600160a01b03168152602001908152602001600020549050828110156104925760405162461bcd60e51b81526004016103e9906113eb565b6104a68561049e61083b565b85840361083f565b506001949350505050565b601290565b60006103996104c361083b565b8484606660006104d161083b565b6001600160a01b03908116825260208083019390935260409182016000908120918b168152925290205461050591906115c5565b61083f565b3360009081526097602052604081205460ff166105395760405162461bcd60e51b81526004016103e990611359565b6103998383610a1d565b61054d3382610ae5565b50565b60976020526000908152604090205460ff1681565b6001600160a01b0381166000908152606560205260409020545b919050565b61058c61083b565b6001600160a01b031661059d6105dd565b6001600160a01b0316146105c35760405162461bcd60e51b81526004016103e990611433565b6105cd6000610bd6565b565b6105d982826105fb565b5050565b6033546001600160a01b031690565b606060698054610302906115f4565b600061062b8260405180606001604052806024815260200161165c60249139610624863361070d565b9190610c28565b905061063883338361083f565b6106428383610ae5565b505050565b6000806066600061065661083b565b6001600160a01b03908116825260208083019390935260409182016000908120918816815292529020549050828110156106a25760405162461bcd60e51b81526004016103e990611532565b6106b66106ad61083b565b8585840361083f565b5060019392505050565b60006103996106cd61083b565b84846108f3565b3360009081526097602052604081205460ff166107035760405162461bcd60e51b81526004016103e990611359565b6103998383610ae5565b6001600160a01b03918216600090815260666020908152604080832093909416825291909152205490565b61074061083b565b6001600160a01b03166107516105dd565b6001600160a01b0316146107775760405162461bcd60e51b81526004016103e990611433565b6001600160a01b03811661079d5760405162461bcd60e51b81526004016103e99061128b565b61054d81610bd6565b600054610100900460ff16806107bf575060005460ff16155b6107db5760405162461bcd60e51b81526004016103e99061139d565b600054610100900460ff16158015610806576000805460ff1961ff0019909116610100171660011790555b61080e610c54565b6108188585610cd8565b6108228383610a1d565b8015610834576000805461ff00191690555b5050505050565b3390565b6001600160a01b0383166108655760405162461bcd60e51b81526004016103e9906114ee565b6001600160a01b03821661088b5760405162461bcd60e51b81526004016103e9906112d1565b6001600160a01b0380841660008181526066602090815260408083209487168084529490915290819020849055517f8c5be1e5ebec7d5bd14f71427d1e84f3dd0314c0f7b2291e5b200ac8c7c3b925906108e69085906115ae565b60405180910390a3505050565b6001600160a01b0383166109195760405162461bcd60e51b81526004016103e9906114a9565b6001600160a01b03821661093f5760405162461bcd60e51b81526004016103e990611206565b61094a838383610642565b6001600160a01b038316600090815260656020526040902054818110156109835760405162461bcd60e51b81526004016103e990611313565b6001600160a01b038085166000908152606560205260408082208585039055918516815290812080548492906109ba9084906115c5565b92505081905550826001600160a01b0316846001600160a01b03167fddf252ad1be2c89b69c2b068fc378daa952ba7f163c4a11628f55a4df523b3ef84604051610a0491906115ae565b60405180910390a3610a17848484610642565b50505050565b6001600160a01b038216610a435760405162461bcd60e51b81526004016103e990611577565b610a4f60008383610642565b8060676000828254610a6191906115c5565b90915550506001600160a01b03821660009081526065602052604081208054839290610a8e9084906115c5565b90915550506040516001600160a01b038316906000907fddf252ad1be2c89b69c2b068fc378daa952ba7f163c4a11628f55a4df523b3ef90610ad19085906115ae565b60405180910390a36105d960008383610642565b6001600160a01b038216610b0b5760405162461bcd60e51b81526004016103e990611468565b610b1782600083610642565b6001600160a01b03821660009081526065602052604090205481811015610b505760405162461bcd60e51b81526004016103e990611249565b6001600160a01b0383166000908152606560205260408120838303905560678054849290610b7f9084906115dd565b90915550506040516000906001600160a01b038516907fddf252ad1be2c89b69c2b068fc378daa952ba7f163c4a11628f55a4df523b3ef90610bc29086906115ae565b60405180910390a361064283600084610642565b603380546001600160a01b038381166001600160a01b0319831681179093556040519116919082907f8be0079c531659141344cd1fd0a4f28419497f9722a3daafe3b4186f6b6457e090600090a35050565b60008184841115610c4c5760405162461bcd60e51b81526004016103e991906111b3565b505050900390565b600054610100900460ff1680610c6d575060005460ff16155b610c895760405162461bcd60e51b81526004016103e99061139d565b600054610100900460ff16158015610cb4576000805460ff1961ff0019909116610100171660011790555b610cbc610d60565b610cc4610dd3565b801561054d576000805461ff001916905550565b600054610100900460ff1680610cf1575060005460ff16155b610d0d5760405162461bcd60e51b81526004016103e99061139d565b600054610100900460ff16158015610d38576000805460ff1961ff0019909116610100171660011790555b610d40610d60565b610d4a8383610e43565b8015610642576000805461ff0019169055505050565b600054610100900460ff1680610d79575060005460ff16155b610d955760405162461bcd60e51b81526004016103e99061139d565b600054610100900460ff16158015610cc4576000805460ff1961ff001990911661010017166001179055801561054d576000805461ff001916905550565b600054610100900460ff1680610dec575060005460ff16155b610e085760405162461bcd60e51b81526004016103e99061139d565b600054610100900460ff16158015610e33576000805460ff1961ff0019909116610100171660011790555b610cc4610e3e61083b565b610bd6565b600054610100900460ff1680610e5c575060005460ff16155b610e785760405162461bcd60e51b81526004016103e99061139d565b600054610100900460ff16158015610ea3576000805460ff1961ff0019909116610100171660011790555b8251610eb6906068906020860190610ee1565b508151610eca906069906020850190610ee1565b508015610642576000805461ff0019169055505050565b828054610eed906115f4565b90600052602060002090601f016020900481019282610f0f5760008555610f55565b82601f10610f2857805160ff1916838001178555610f55565b82800160010185558215610f55579182015b82811115610f55578251825591602001919060010190610f3a565b50610f61929150610f65565b5090565b5b80821115610f615760008155600101610f66565b80356001600160a01b038116811461057f57600080fd5b600082601f830112610fa1578081fd5b813567ffffffffffffffff80821115610fbc57610fbc611645565b604051601f8301601f191681016020018281118282101715610fe057610fe0611645565b604052828152848301602001861015610ff7578384fd5b82602086016020830137918201602001929092529392505050565b600060208284031215611023578081fd5b61102c82610f7a565b9392505050565b60008060408385031215611045578081fd5b61104e83610f7a565b915061105c60208401610f7a565b90509250929050565b600080600060608486031215611079578081fd5b61108284610f7a565b925061109060208501610f7a565b9150604084013590509250925092565b600080604083850312156110b2578182fd5b6110bb83610f7a565b9150602083013580151581146110cf578182fd5b809150509250929050565b600080604083850312156110ec578182fd5b6110f583610f7a565b946020939093013593505050565b60008060008060808587031215611118578081fd5b843567ffffffffffffffff8082111561112f578283fd5b61113b88838901610f91565b95506020870135915080821115611150578283fd5b5061115d87828801610f91565b93505061116c60408601610f7a565b9396929550929360600135925050565b60006020828403121561118d578081fd5b5035919050565b6001600160a01b0391909116815260200190565b901515815260200190565b6000602080835283518082850152825b818110156111df578581018301518582016040015282016111c3565b818111156111f05783604083870101525b50601f01601f1916929092016040019392505050565b60208082526023908201527f45524332303a207472616e7366657220746f20746865207a65726f206164647260408201526265737360e81b606082015260800190565b60208082526022908201527f45524332303a206275726e20616d6f756e7420657863656564732062616c616e604082015261636560f01b606082015260800190565b60208082526026908201527f4f776e61626c653a206e6577206f776e657220697320746865207a65726f206160408201526564647265737360d01b606082015260800190565b60208082526022908201527f45524332303a20617070726f766520746f20746865207a65726f206164647265604082015261737360f01b606082015260800190565b60208082526026908201527f45524332303a207472616e7366657220616d6f756e7420657863656564732062604082015265616c616e636560d01b606082015260800190565b60208082526024908201527f6578656375746f723a2063616c6c6572206973206e6f742074686520657865636040820152633aba37b960e11b606082015260800190565b6020808252602e908201527f496e697469616c697a61626c653a20636f6e747261637420697320616c72656160408201526d191e481a5b9a5d1a585b1a5e995960921b606082015260800190565b60208082526028908201527f45524332303a207472616e7366657220616d6f756e74206578636565647320616040820152676c6c6f77616e636560c01b606082015260800190565b6020808252818101527f4f776e61626c653a2063616c6c6572206973206e6f7420746865206f776e6572604082015260600190565b60208082526021908201527f45524332303a206275726e2066726f6d20746865207a65726f206164647265736040820152607360f81b606082015260800190565b60208082526025908201527f45524332303a207472616e736665722066726f6d20746865207a65726f206164604082015264647265737360d81b606082015260800190565b60208082526024908201527f45524332303a20617070726f76652066726f6d20746865207a65726f206164646040820152637265737360e01b606082015260800190565b60208082526025908201527f45524332303a2064656372656173656420616c6c6f77616e63652062656c6f77604082015264207a65726f60d81b606082015260800190565b6020808252601f908201527f45524332303a206d696e7420746f20746865207a65726f206164647265737300604082015260600190565b90815260200190565b60ff91909116815260200190565b600082198211156115d8576115d861162f565b500190565b6000828210156115ef576115ef61162f565b500390565b60028104600182168061160857607f821691505b6020821081141561162957634e487b7160e01b600052602260045260246000fd5b50919050565b634e487b7160e01b600052601160045260246000fd5b634e487b7160e01b600052604160045260246000fdfe45524332303a206275726e20616d6f756e74206578636565647320616c6c6f77616e6365a264697066735822122002cb7b152e90036199af1d5e8183ec9c55c4b9efe2616a7cf9c1be1b6037fb4c64736f6c63430008000033",
					"opcodes": "PUSH1 0x80 PUSH1 0x40 MSTORE CALLVALUE DUP1 ISZERO PUSH2 0x10 JUMPI PUSH1 0x0 DUP1 REVERT JUMPDEST POP PUSH2 0x16B5 DUP1 PUSH2 0x20 PUSH1 0x0 CODECOPY PUSH1 0x0 RETURN INVALID PUSH1 0x80 PUSH1 0x40 MSTORE CALLVALUE DUP1 ISZERO PUSH2 0x10 JUMPI PUSH1 0x0 DUP1 REVERT JUMPDEST POP PUSH1 0x4 CALLDATASIZE LT PUSH2 0x142 JUMPI PUSH1 0x0 CALLDATALOAD PUSH1 0xE0 SHR DUP1 PUSH4 0x715018A6 GT PUSH2 0xB8 JUMPI DUP1 PUSH4 0xA457C2D7 GT PUSH2 0x7C JUMPI DUP1 PUSH4 0xA457C2D7 EQ PUSH2 0x281 JUMPI DUP1 PUSH4 0xA9059CBB EQ PUSH2 0x294 JUMPI DUP1 PUSH4 0xAA609D3F EQ PUSH2 0x2A7 JUMPI DUP1 PUSH4 0xDD62ED3E EQ PUSH2 0x2BA JUMPI DUP1 PUSH4 0xF2FDE38B EQ PUSH2 0x2CD JUMPI DUP1 PUSH4 0xF542033F EQ PUSH2 0x2E0 JUMPI PUSH2 0x142 JUMP JUMPDEST DUP1 PUSH4 0x715018A6 EQ PUSH2 0x236 JUMPI DUP1 PUSH4 0x79CC6790 EQ PUSH2 0x23E JUMPI DUP1 PUSH4 0x8DA5CB5B EQ PUSH2 0x251 JUMPI DUP1 PUSH4 0x95D89B41 EQ PUSH2 0x266 JUMPI DUP1 PUSH4 0xA22B35CE EQ PUSH2 0x26E JUMPI PUSH2 0x142 JUMP JUMPDEST DUP1 PUSH4 0x313CE567 GT PUSH2 0x10A JUMPI DUP1 PUSH4 0x313CE567 EQ PUSH2 0x1C0 JUMPI DUP1 PUSH4 0x39509351 EQ PUSH2 0x1D5 JUMPI DUP1 PUSH4 0x40C10F19 EQ PUSH2 0x1E8 JUMPI DUP1 PUSH4 0x42966C68 EQ PUSH2 0x1FB JUMPI DUP1 PUSH4 0x48C7E528 EQ PUSH2 0x210 JUMPI DUP1 PUSH4 0x70A08231 EQ PUSH2 0x223 JUMPI PUSH2 0x142 JUMP JUMPDEST DUP1 PUSH4 0x6FDDE03 EQ PUSH2 0x147 JUMPI DUP1 PUSH4 0x95EA7B3 EQ PUSH2 0x165 JUMPI DUP1 PUSH4 0x18160DDD EQ PUSH2 0x185 JUMPI DUP1 PUSH4 0x1E1BFF3F EQ PUSH2 0x19A JUMPI DUP1 PUSH4 0x23B872DD EQ PUSH2 0x1AD JUMPI JUMPDEST PUSH1 0x0 DUP1 REVERT JUMPDEST PUSH2 0x14F PUSH2 0x2F3 JUMP JUMPDEST PUSH1 0x40 MLOAD PUSH2 0x15C SWAP2 SWAP1 PUSH2 0x11B3 JUMP JUMPDEST PUSH1 0x40 MLOAD DUP1 SWAP2 SUB SWAP1 RETURN JUMPDEST PUSH2 0x178 PUSH2 0x173 CALLDATASIZE PUSH1 0x4 PUSH2 0x10DA JUMP JUMPDEST PUSH2 0x385 JUMP JUMPDEST PUSH1 0x40 MLOAD PUSH2 0x15C SWAP2 SWAP1 PUSH2 0x11A8 JUMP JUMPDEST PUSH2 0x18D PUSH2 0x3A2 JUMP JUMPDEST PUSH1 0x40 MLOAD PUSH2 0x15C SWAP2 SWAP1 PUSH2 0x15AE JUMP JUMPDEST PUSH2 0x178 PUSH2 0x1A8 CALLDATASIZE PUSH1 0x4 PUSH2 0x10A0 JUMP JUMPDEST PUSH2 0x3A8 JUMP JUMPDEST PUSH2 0x178 PUSH2 0x1BB CALLDATASIZE PUSH1 0x4 PUSH2 0x1065 JUMP JUMPDEST PUSH2 0x421 JUMP JUMPDEST PUSH2 0x1C8 PUSH2 0x4B1 JUMP JUMPDEST PUSH1 0x40 MLOAD PUSH2 0x15C SWAP2 SWAP1 PUSH2 0x15B7 JUMP JUMPDEST PUSH2 0x178 PUSH2 0x1E3 CALLDATASIZE PUSH1 0x4 PUSH2 0x10DA JUMP JUMPDEST PUSH2 0x4B6 JUMP JUMPDEST PUSH2 0x178 PUSH2 0x1F6 CALLDATASIZE PUSH1 0x4 PUSH2 0x10DA JUMP JUMPDEST PUSH2 0x50A JUMP JUMPDEST PUSH2 0x20E PUSH2 0x209 CALLDATASIZE PUSH1 0x4 PUSH2 0x117C JUMP JUMPDEST PUSH2 0x543 JUMP JUMPDEST STOP JUMPDEST PUSH2 0x178 PUSH2 0x21E CALLDATASIZE PUSH1 0x4 PUSH2 0x1012 JUMP JUMPDEST PUSH2 0x550 JUMP JUMPDEST PUSH2 0x18D PUSH2 0x231 CALLDATASIZE PUSH1 0x4 PUSH2 0x1012 JUMP JUMPDEST PUSH2 0x565 JUMP JUMPDEST PUSH2 0x20E PUSH2 0x584 JUMP JUMPDEST PUSH2 0x20E PUSH2 0x24C CALLDATASIZE PUSH1 0x4 PUSH2 0x10DA JUMP JUMPDEST PUSH2 0x5CF JUMP JUMPDEST PUSH2 0x259 PUSH2 0x5DD JUMP JUMPDEST PUSH1 0x40 MLOAD PUSH2 0x15C SWAP2 SWAP1 PUSH2 0x1194 JUMP JUMPDEST PUSH2 0x14F PUSH2 0x5EC JUMP JUMPDEST PUSH2 0x20E PUSH2 0x27C CALLDATASIZE PUSH1 0x4 PUSH2 0x10DA JUMP JUMPDEST PUSH2 0x5FB JUMP JUMPDEST PUSH2 0x178 PUSH2 0x28F CALLDATASIZE PUSH1 0x4 PUSH2 0x10DA JUMP JUMPDEST PUSH2 0x647 JUMP JUMPDEST PUSH2 0x178 PUSH2 0x2A2 CALLDATASIZE PUSH1 0x4 PUSH2 0x10DA JUMP JUMPDEST PUSH2 0x6C0 JUMP JUMPDEST PUSH2 0x178 PUSH2 0x2B5 CALLDATASIZE PUSH1 0x4 PUSH2 0x10DA JUMP JUMPDEST PUSH2 0x6D4 JUMP JUMPDEST PUSH2 0x18D PUSH2 0x2C8 CALLDATASIZE PUSH1 0x4 PUSH2 0x1033 JUMP JUMPDEST PUSH2 0x70D JUMP JUMPDEST PUSH2 0x20E PUSH2 0x2DB CALLDATASIZE PUSH1 0x4 PUSH2 0x1012 JUMP JUMPDEST PUSH2 0x738 JUMP JUMPDEST PUSH2 0x20E PUSH2 0x2EE CALLDATASIZE PUSH1 0x4 PUSH2 0x1103 JUMP JUMPDEST PUSH2 0x7A6 JUMP JUMPDEST PUSH1 0x60 PUSH1 0x68 DUP1 SLOAD PUSH2 0x302 SWAP1 PUSH2 0x15F4 JUMP JUMPDEST DUP1 PUSH1 0x1F ADD PUSH1 0x20 DUP1 SWAP2 DIV MUL PUSH1 0x20 ADD PUSH1 0x40 MLOAD SWAP1 DUP2 ADD PUSH1 0x40 MSTORE DUP1 SWAP3 SWAP2 SWAP1 DUP2 DUP2 MSTORE PUSH1 0x20 ADD DUP3 DUP1 SLOAD PUSH2 0x32E SWAP1 PUSH2 0x15F4 JUMP JUMPDEST DUP1 ISZERO PUSH2 0x37B JUMPI DUP1 PUSH1 0x1F LT PUSH2 0x350 JUMPI PUSH2 0x100 DUP1 DUP4 SLOAD DIV MUL DUP4 MSTORE SWAP2 PUSH1 0x20 ADD SWAP2 PUSH2 0x37B JUMP JUMPDEST DUP3 ADD SWAP2 SWAP1 PUSH1 0x0 MSTORE PUSH1 0x20 PUSH1 0x0 KECCAK256 SWAP1 JUMPDEST DUP2 SLOAD DUP2 MSTORE SWAP1 PUSH1 0x1 ADD SWAP1 PUSH1 0x20 ADD DUP1 DUP4 GT PUSH2 0x35E JUMPI DUP3 SWAP1 SUB PUSH1 0x1F AND DUP3 ADD SWAP2 JUMPDEST POP POP POP POP POP SWAP1 POP SWAP1 JUMP JUMPDEST PUSH1 0x0 PUSH2 0x399 PUSH2 0x392 PUSH2 0x83B JUMP JUMPDEST DUP5 DUP5 PUSH2 0x83F JUMP JUMPDEST POP PUSH1 0x1 SWAP3 SWAP2 POP POP JUMP JUMPDEST PUSH1 0x67 SLOAD SWAP1 JUMP JUMPDEST PUSH1 0x0 PUSH2 0x3B2 PUSH2 0x83B JUMP JUMPDEST PUSH1 0x1 PUSH1 0x1 PUSH1 0xA0 SHL SUB AND PUSH2 0x3C3 PUSH2 0x5DD JUMP JUMPDEST PUSH1 0x1 PUSH1 0x1 PUSH1 0xA0 SHL SUB AND EQ PUSH2 0x3F2 JUMPI PUSH1 0x40 MLOAD PUSH3 0x461BCD PUSH1 0xE5 SHL DUP2 MSTORE PUSH1 0x4 ADD PUSH2 0x3E9 SWAP1 PUSH2 0x1433 JUMP JUMPDEST PUSH1 0x40 MLOAD DUP1 SWAP2 SUB SWAP1 REVERT JUMPDEST POP PUSH1 0x1 PUSH1 0x1 PUSH1 0xA0 SHL SUB DUP3 AND PUSH1 0x0 SWAP1 DUP2 MSTORE PUSH1 0x97 PUSH1 0x20 MSTORE PUSH1 0x40 SWAP1 KECCAK256 DUP1 SLOAD DUP3 ISZERO ISZERO PUSH1 0xFF NOT SWAP1 SWAP2 AND OR SWAP1 SSTORE PUSH1 0x1 SWAP3 SWAP2 POP POP JUMP JUMPDEST PUSH1 0x0 PUSH2 0x42E DUP5 DUP5 DUP5 PUSH2 0x8F3 JUMP JUMPDEST PUSH1 0x1 PUSH1 0x1 PUSH1 0xA0 SHL SUB DUP5 AND PUSH1 0x0 SWAP1 DUP2 MSTORE PUSH1 0x66 PUSH1 0x20 MSTORE PUSH1 0x40 DUP2 KECCAK256 DUP2 PUSH2 0x44F PUSH2 0x83B JUMP JUMPDEST PUSH1 0x1 PUSH1 0x1 PUSH1 0xA0 SHL SUB AND PUSH1 0x1 PUSH1 0x1 PUSH1 0xA0 SHL SUB AND DUP2 MSTORE PUSH1 0x20 ADD SWAP1 DUP2 MSTORE PUSH1 0x20 ADD PUSH1 0x0 KECCAK256 SLOAD SWAP1 POP DUP3 DUP2 LT ISZERO PUSH2 0x492 JUMPI PUSH1 0x40 MLOAD PUSH3 0x461BCD PUSH1 0xE5 SHL DUP2 MSTORE PUSH1 0x4 ADD PUSH2 0x3E9 SWAP1 PUSH2 0x13EB JUMP JUMPDEST PUSH2 0x4A6 DUP6 PUSH2 0x49E PUSH2 0x83B JUMP JUMPDEST DUP6 DUP5 SUB PUSH2 0x83F JUMP JUMPDEST POP PUSH1 0x1 SWAP5 SWAP4 POP POP POP POP JUMP JUMPDEST PUSH1 0x12 SWAP1 JUMP JUMPDEST PUSH1 0x0 PUSH2 0x399 PUSH2 0x4C3 PUSH2 0x83B JUMP JUMPDEST DUP5 DUP5 PUSH1 0x66 PUSH1 0x0 PUSH2 0x4D1 PUSH2 0x83B JUMP JUMPDEST PUSH1 0x1 PUSH1 0x1 PUSH1 0xA0 SHL SUB SWAP1 DUP2 AND DUP3 MSTORE PUSH1 0x20 DUP1 DUP4 ADD SWAP4 SWAP1 SWAP4 MSTORE PUSH1 0x40 SWAP2 DUP3 ADD PUSH1 0x0 SWAP1 DUP2 KECCAK256 SWAP2 DUP12 AND DUP2 MSTORE SWAP3 MSTORE SWAP1 KECCAK256 SLOAD PUSH2 0x505 SWAP2 SWAP1 PUSH2 0x15C5 JUMP JUMPDEST PUSH2 0x83F JUMP JUMPDEST CALLER PUSH1 0x0 SWAP1 DUP2 MSTORE PUSH1 0x97 PUSH1 0x20 MSTORE PUSH1 0x40 DUP2 KECCAK256 SLOAD PUSH1 0xFF AND PUSH2 0x539 JUMPI PUSH1 0x40 MLOAD PUSH3 0x461BCD PUSH1 0xE5 SHL DUP2 MSTORE PUSH1 0x4 ADD PUSH2 0x3E9 SWAP1 PUSH2 0x1359 JUMP JUMPDEST PUSH2 0x399 DUP4 DUP4 PUSH2 0xA1D JUMP JUMPDEST PUSH2 0x54D CALLER DUP3 PUSH2 0xAE5 JUMP JUMPDEST POP JUMP JUMPDEST PUSH1 0x97 PUSH1 0x20 MSTORE PUSH1 0x0 SWAP1 DUP2 MSTORE PUSH1 0x40 SWAP1 KECCAK256 SLOAD PUSH1 0xFF AND DUP2 JUMP JUMPDEST PUSH1 0x1 PUSH1 0x1 PUSH1 0xA0 SHL SUB DUP2 AND PUSH1 0x0 SWAP1 DUP2 MSTORE PUSH1 0x65 PUSH1 0x20 MSTORE PUSH1 0x40 SWAP1 KECCAK256 SLOAD JUMPDEST SWAP2 SWAP1 POP JUMP JUMPDEST PUSH2 0x58C PUSH2 0x83B JUMP JUMPDEST PUSH1 0x1 PUSH1 0x1 PUSH1 0xA0 SHL SUB AND PUSH2 0x59D PUSH2 0x5DD JUMP JUMPDEST PUSH1 0x1 PUSH1 0x1 PUSH1 0xA0 SHL SUB AND EQ PUSH2 0x5C3 JUMPI PUSH1 0x40 MLOAD PUSH3 0x461BCD PUSH1 0xE5 SHL DUP2 MSTORE PUSH1 0x4 ADD PUSH2 0x3E9 SWAP1 PUSH2 0x1433 JUMP JUMPDEST PUSH2 0x5CD PUSH1 0x0 PUSH2 0xBD6 JUMP JUMPDEST JUMP JUMPDEST PUSH2 0x5D9 DUP3 DUP3 PUSH2 0x5FB JUMP JUMPDEST POP POP JUMP JUMPDEST PUSH1 0x33 SLOAD PUSH1 0x1 PUSH1 0x1 PUSH1 0xA0 SHL SUB AND SWAP1 JUMP JUMPDEST PUSH1 0x60 PUSH1 0x69 DUP1 SLOAD PUSH2 0x302 SWAP1 PUSH2 0x15F4 JUMP JUMPDEST PUSH1 0x0 PUSH2 0x62B DUP3 PUSH1 0x40 MLOAD DUP1 PUSH1 0x60 ADD PUSH1 0x40 MSTORE DUP1 PUSH1 0x24 DUP2 MSTORE PUSH1 0x20 ADD PUSH2 0x165C PUSH1 0x24 SWAP2 CODECOPY PUSH2 0x624 DUP7 CALLER PUSH2 0x70D JUMP JUMPDEST SWAP2 SWAP1 PUSH2 0xC28 JUMP JUMPDEST SWAP1 POP PUSH2 0x638 DUP4 CALLER DUP4 PUSH2 0x83F JUMP JUMPDEST PUSH2 0x642 DUP4 DUP4 PUSH2 0xAE5 JUMP JUMPDEST POP POP POP JUMP JUMPDEST PUSH1 0x0 DUP1 PUSH1 0x66 PUSH1 0x0 PUSH2 0x656 PUSH2 0x83B JUMP JUMPDEST PUSH1 0x1 PUSH1 0x1 PUSH1 0xA0 SHL SUB SWAP1 DUP2 AND DUP3 MSTORE PUSH1 0x20 DUP1 DUP4 ADD SWAP4 SWAP1 SWAP4 MSTORE PUSH1 0x40 SWAP2 DUP3 ADD PUSH1 0x0 SWAP1 DUP2 KECCAK256 SWAP2 DUP9 AND DUP2 MSTORE SWAP3 MSTORE SWAP1 KECCAK256 SLOAD SWAP1 POP DUP3 DUP2 LT ISZERO PUSH2 0x6A2 JUMPI PUSH1 0x40 MLOAD PUSH3 0x461BCD PUSH1 0xE5 SHL DUP2 MSTORE PUSH1 0x4 ADD PUSH2 0x3E9 SWAP1 PUSH2 0x1532 JUMP JUMPDEST PUSH2 0x6B6 PUSH2 0x6AD PUSH2 0x83B JUMP JUMPDEST DUP6 DUP6 DUP5 SUB PUSH2 0x83F JUMP JUMPDEST POP PUSH1 0x1 SWAP4 SWAP3 POP POP POP JUMP JUMPDEST PUSH1 0x0 PUSH2 0x399 PUSH2 0x6CD PUSH2 0x83B JUMP JUMPDEST DUP5 DUP5 PUSH2 0x8F3 JUMP JUMPDEST CALLER PUSH1 0x0 SWAP1 DUP2 MSTORE PUSH1 0x97 PUSH1 0x20 MSTORE PUSH1 0x40 DUP2 KECCAK256 SLOAD PUSH1 0xFF AND PUSH2 0x703 JUMPI PUSH1 0x40 MLOAD PUSH3 0x461BCD PUSH1 0xE5 SHL DUP2 MSTORE PUSH1 0x4 ADD PUSH2 0x3E9 SWAP1 PUSH2 0x1359 JUMP JUMPDEST PUSH2 0x399 DUP4 DUP4 PUSH2 0xAE5 JUMP JUMPDEST PUSH1 0x1 PUSH1 0x1 PUSH1 0xA0 SHL SUB SWAP2 DUP3 AND PUSH1 0x0 SWAP1 DUP2 MSTORE PUSH1 0x66 PUSH1 0x20 SWAP1 DUP2 MSTORE PUSH1 0x40 DUP1 DUP4 KECCAK256 SWAP4 SWAP1 SWAP5 AND DUP3 MSTORE SWAP2 SWAP1 SWAP2 MSTORE KECCAK256 SLOAD SWAP1 JUMP JUMPDEST PUSH2 0x740 PUSH2 0x83B JUMP JUMPDEST PUSH1 0x1 PUSH1 0x1 PUSH1 0xA0 SHL SUB AND PUSH2 0x751 PUSH2 0x5DD JUMP JUMPDEST PUSH1 0x1 PUSH1 0x1 PUSH1 0xA0 SHL SUB AND EQ PUSH2 0x777 JUMPI PUSH1 0x40 MLOAD PUSH3 0x461BCD PUSH1 0xE5 SHL DUP2 MSTORE PUSH1 0x4 ADD PUSH2 0x3E9 SWAP1 PUSH2 0x1433 JUMP JUMPDEST PUSH1 0x1 PUSH1 0x1 PUSH1 0xA0 SHL SUB DUP2 AND PUSH2 0x79D JUMPI PUSH1 0x40 MLOAD PUSH3 0x461BCD PUSH1 0xE5 SHL DUP2 MSTORE PUSH1 0x4 ADD PUSH2 0x3E9 SWAP1 PUSH2 0x128B JUMP JUMPDEST PUSH2 0x54D DUP2 PUSH2 0xBD6 JUMP JUMPDEST PUSH1 0x0 SLOAD PUSH2 0x100 SWAP1 DIV PUSH1 0xFF AND DUP1 PUSH2 0x7BF JUMPI POP PUSH1 0x0 SLOAD PUSH1 0xFF AND ISZERO JUMPDEST PUSH2 0x7DB JUMPI PUSH1 0x40 MLOAD PUSH3 0x461BCD PUSH1 0xE5 SHL DUP2 MSTORE PUSH1 0x4 ADD PUSH2 0x3E9 SWAP1 PUSH2 0x139D JUMP JUMPDEST PUSH1 0x0 SLOAD PUSH2 0x100 SWAP1 DIV PUSH1 0xFF AND ISZERO DUP1 ISZERO PUSH2 0x806 JUMPI PUSH1 0x0 DUP1 SLOAD PUSH1 0xFF NOT PUSH2 0xFF00 NOT SWAP1 SWAP2 AND PUSH2 0x100 OR AND PUSH1 0x1 OR SWAP1 SSTORE JUMPDEST PUSH2 0x80E PUSH2 0xC54 JUMP JUMPDEST PUSH2 0x818 DUP6 DUP6 PUSH2 0xCD8 JUMP JUMPDEST PUSH2 0x822 DUP4 DUP4 PUSH2 0xA1D JUMP JUMPDEST DUP1 ISZERO PUSH2 0x834 JUMPI PUSH1 0x0 DUP1 SLOAD PUSH2 0xFF00 NOT AND SWAP1 SSTORE JUMPDEST POP POP POP POP POP JUMP JUMPDEST CALLER SWAP1 JUMP JUMPDEST PUSH1 0x1 PUSH1 0x1 PUSH1 0xA0 SHL SUB DUP4 AND PUSH2 0x865 JUMPI PUSH1 0x40 MLOAD PUSH3 0x461BCD PUSH1 0xE5 SHL DUP2 MSTORE PUSH1 0x4 ADD PUSH2 0x3E9 SWAP1 PUSH2 0x14EE JUMP JUMPDEST PUSH1 0x1 PUSH1 0x1 PUSH1 0xA0 SHL SUB DUP3 AND PUSH2 0x88B JUMPI PUSH1 0x40 MLOAD PUSH3 0x461BCD PUSH1 0xE5 SHL DUP2 MSTORE PUSH1 0x4 ADD PUSH2 0x3E9 SWAP1 PUSH2 0x12D1 JUMP JUMPDEST PUSH1 0x1 PUSH1 0x1 PUSH1 0xA0 SHL SUB DUP1 DUP5 AND PUSH1 0x0 DUP2 DUP2 MSTORE PUSH1 0x66 PUSH1 0x20 SWAP1 DUP2 MSTORE PUSH1 0x40 DUP1 DUP4 KECCAK256 SWAP5 DUP8 AND DUP1 DUP5 MSTORE SWAP5 SWAP1 SWAP2 MSTORE SWAP1 DUP2 SWAP1 KECCAK256 DUP5 SWAP1 SSTORE MLOAD PUSH32 0x8C5BE1E5EBEC7D5BD14F71427D1E84F3DD0314C0F7B2291E5B200AC8C7C3B925 SWAP1 PUSH2 0x8E6 SWAP1 DUP6 SWAP1 PUSH2 0x15AE JUMP JUMPDEST PUSH1 0x40 MLOAD DUP1 SWAP2 SUB SWAP1 LOG3 POP POP POP JUMP JUMPDEST PUSH1 0x1 PUSH1 0x1 PUSH1 0xA0 SHL SUB DUP4 AND PUSH2 0x919 JUMPI PUSH1 0x40 MLOAD PUSH3 0x461BCD PUSH1 0xE5 SHL DUP2 MSTORE PUSH1 0x4 ADD PUSH2 0x3E9 SWAP1 PUSH2 0x14A9 JUMP JUMPDEST PUSH1 0x1 PUSH1 0x1 PUSH1 0xA0 SHL SUB DUP3 AND PUSH2 0x93F JUMPI PUSH1 0x40 MLOAD PUSH3 0x461BCD PUSH1 0xE5 SHL DUP2 MSTORE PUSH1 0x4 ADD PUSH2 0x3E9 SWAP1 PUSH2 0x1206 JUMP JUMPDEST PUSH2 0x94A DUP4 DUP4 DUP4 PUSH2 0x642 JUMP JUMPDEST PUSH1 0x1 PUSH1 0x1 PUSH1 0xA0 SHL SUB DUP4 AND PUSH1 0x0 SWAP1 DUP2 MSTORE PUSH1 0x65 PUSH1 0x20 MSTORE PUSH1 0x40 SWAP1 KECCAK256 SLOAD DUP2 DUP2 LT ISZERO PUSH2 0x983 JUMPI PUSH1 0x40 MLOAD PUSH3 0x461BCD PUSH1 0xE5 SHL DUP2 MSTORE PUSH1 0x4 ADD PUSH2 0x3E9 SWAP1 PUSH2 0x1313 JUMP JUMPDEST PUSH1 0x1 PUSH1 0x1 PUSH1 0xA0 SHL SUB DUP1 DUP6 AND PUSH1 0x0 SWAP1 DUP2 MSTORE PUSH1 0x65 PUSH1 0x20 MSTORE PUSH1 0x40 DUP1 DUP3 KECCAK256 DUP6 DUP6 SUB SWAP1 SSTORE SWAP2 DUP6 AND DUP2 MSTORE SWAP1 DUP2 KECCAK256 DUP1 SLOAD DUP5 SWAP3 SWAP1 PUSH2 0x9BA SWAP1 DUP5 SWAP1 PUSH2 0x15C5 JUMP JUMPDEST SWAP3 POP POP DUP2 SWAP1 SSTORE POP DUP3 PUSH1 0x1 PUSH1 0x1 PUSH1 0xA0 SHL SUB AND DUP5 PUSH1 0x1 PUSH1 0x1 PUSH1 0xA0 SHL SUB AND PUSH32 0xDDF252AD1BE2C89B69C2B068FC378DAA952BA7F163C4A11628F55A4DF523B3EF DUP5 PUSH1 0x40 MLOAD PUSH2 0xA04 SWAP2 SWAP1 PUSH2 0x15AE JUMP JUMPDEST PUSH1 0x40 MLOAD DUP1 SWAP2 SUB SWAP1 LOG3 PUSH2 0xA17 DUP5 DUP5 DUP5 PUSH2 0x642 JUMP JUMPDEST POP POP POP POP JUMP JUMPDEST PUSH1 0x1 PUSH1 0x1 PUSH1 0xA0 SHL SUB DUP3 AND PUSH2 0xA43 JUMPI PUSH1 0x40 MLOAD PUSH3 0x461BCD PUSH1 0xE5 SHL DUP2 MSTORE PUSH1 0x4 ADD PUSH2 0x3E9 SWAP1 PUSH2 0x1577 JUMP JUMPDEST PUSH2 0xA4F PUSH1 0x0 DUP4 DUP4 PUSH2 0x642 JUMP JUMPDEST DUP1 PUSH1 0x67 PUSH1 0x0 DUP3 DUP3 SLOAD PUSH2 0xA61 SWAP2 SWAP1 PUSH2 0x15C5 JUMP JUMPDEST SWAP1 SWAP2 SSTORE POP POP PUSH1 0x1 PUSH1 0x1 PUSH1 0xA0 SHL SUB DUP3 AND PUSH1 0x0 SWAP1 DUP2 MSTORE PUSH1 0x65 PUSH1 0x20 MSTORE PUSH1 0x40 DUP2 KECCAK256 DUP1 SLOAD DUP4 SWAP3 SWAP1 PUSH2 0xA8E SWAP1 DUP5 SWAP1 PUSH2 0x15C5 JUMP JUMPDEST SWAP1 SWAP2 SSTORE POP POP PUSH1 0x40 MLOAD PUSH1 0x1 PUSH1 0x1 PUSH1 0xA0 SHL SUB DUP4 AND SWAP1 PUSH1 0x0 SWAP1 PUSH32 0xDDF252AD1BE2C89B69C2B068FC378DAA952BA7F163C4A11628F55A4DF523B3EF SWAP1 PUSH2 0xAD1 SWAP1 DUP6 SWAP1 PUSH2 0x15AE JUMP JUMPDEST PUSH1 0x40 MLOAD DUP1 SWAP2 SUB SWAP1 LOG3 PUSH2 0x5D9 PUSH1 0x0 DUP4 DUP4 PUSH2 0x642 JUMP JUMPDEST PUSH1 0x1 PUSH1 0x1 PUSH1 0xA0 SHL SUB DUP3 AND PUSH2 0xB0B JUMPI PUSH1 0x40 MLOAD PUSH3 0x461BCD PUSH1 0xE5 SHL DUP2 MSTORE PUSH1 0x4 ADD PUSH2 0x3E9 SWAP1 PUSH2 0x1468 JUMP JUMPDEST PUSH2 0xB17 DUP3 PUSH1 0x0 DUP4 PUSH2 0x642 JUMP JUMPDEST PUSH1 0x1 PUSH1 0x1 PUSH1 0xA0 SHL SUB DUP3 AND PUSH1 0x0 SWAP1 DUP2 MSTORE PUSH1 0x65 PUSH1 0x20 MSTORE PUSH1 0x40 SWAP1 KECCAK256 SLOAD DUP2 DUP2 LT ISZERO PUSH2 0xB50 JUMPI PUSH1 0x40 MLOAD PUSH3 0x461BCD PUSH1 0xE5 SHL DUP2 MSTORE PUSH1 0x4 ADD PUSH2 0x3E9 SWAP1 PUSH2 0x1249 JUMP JUMPDEST PUSH1 0x1 PUSH1 0x1 PUSH1 0xA0 SHL SUB DUP4 AND PUSH1 0x0 SWAP1 DUP2 MSTORE PUSH1 0x65 PUSH1 0x20 MSTORE PUSH1 0x40 DUP2 KECCAK256 DUP4 DUP4 SUB SWAP1 SSTORE PUSH1 0x67 DUP1 SLOAD DUP5 SWAP3 SWAP1 PUSH2 0xB7F SWAP1 DUP5 SWAP1 PUSH2 0x15DD JUMP JUMPDEST SWAP1 SWAP2 SSTORE POP POP PUSH1 0x40 MLOAD PUSH1 0x0 SWAP1 PUSH1 0x1 PUSH1 0x1 PUSH1 0xA0 SHL SUB DUP6 AND SWAP1 PUSH32 0xDDF252AD1BE2C89B69C2B068FC378DAA952BA7F163C4A11628F55A4DF523B3EF SWAP1 PUSH2 0xBC2 SWAP1 DUP7 SWAP1 PUSH2 0x15AE JUMP JUMPDEST PUSH1 0x40 MLOAD DUP1 SWAP2 SUB SWAP1 LOG3 PUSH2 0x642 DUP4 PUSH1 0x0 DUP5 PUSH2 0x642 JUMP JUMPDEST PUSH1 0x33 DUP1 SLOAD PUSH1 0x1 PUSH1 0x1 PUSH1 0xA0 SHL SUB DUP4 DUP2 AND PUSH1 0x1 PUSH1 0x1 PUSH1 0xA0 SHL SUB NOT DUP4 AND DUP2 OR SWAP1 SWAP4 SSTORE PUSH1 0x40 MLOAD SWAP2 AND SWAP2 SWAP1 DUP3 SWAP1 PUSH32 0x8BE0079C531659141344CD1FD0A4F28419497F9722A3DAAFE3B4186F6B6457E0 SWAP1 PUSH1 0x0 SWAP1 LOG3 POP POP JUMP JUMPDEST PUSH1 0x0 DUP2 DUP5 DUP5 GT ISZERO PUSH2 0xC4C JUMPI PUSH1 0x40 MLOAD PUSH3 0x461BCD PUSH1 0xE5 SHL DUP2 MSTORE PUSH1 0x4 ADD PUSH2 0x3E9 SWAP2 SWAP1 PUSH2 0x11B3 JUMP JUMPDEST POP POP POP SWAP1 SUB SWAP1 JUMP JUMPDEST PUSH1 0x0 SLOAD PUSH2 0x100 SWAP1 DIV PUSH1 0xFF AND DUP1 PUSH2 0xC6D JUMPI POP PUSH1 0x0 SLOAD PUSH1 0xFF AND ISZERO JUMPDEST PUSH2 0xC89 JUMPI PUSH1 0x40 MLOAD PUSH3 0x461BCD PUSH1 0xE5 SHL DUP2 MSTORE PUSH1 0x4 ADD PUSH2 0x3E9 SWAP1 PUSH2 0x139D JUMP JUMPDEST PUSH1 0x0 SLOAD PUSH2 0x100 SWAP1 DIV PUSH1 0xFF AND ISZERO DUP1 ISZERO PUSH2 0xCB4 JUMPI PUSH1 0x0 DUP1 SLOAD PUSH1 0xFF NOT PUSH2 0xFF00 NOT SWAP1 SWAP2 AND PUSH2 0x100 OR AND PUSH1 0x1 OR SWAP1 SSTORE JUMPDEST PUSH2 0xCBC PUSH2 0xD60 JUMP JUMPDEST PUSH2 0xCC4 PUSH2 0xDD3 JUMP JUMPDEST DUP1 ISZERO PUSH2 0x54D JUMPI PUSH1 0x0 DUP1 SLOAD PUSH2 0xFF00 NOT AND SWAP1 SSTORE POP JUMP JUMPDEST PUSH1 0x0 SLOAD PUSH2 0x100 SWAP1 DIV PUSH1 0xFF AND DUP1 PUSH2 0xCF1 JUMPI POP PUSH1 0x0 SLOAD PUSH1 0xFF AND ISZERO JUMPDEST PUSH2 0xD0D JUMPI PUSH1 0x40 MLOAD PUSH3 0x461BCD PUSH1 0xE5 SHL DUP2 MSTORE PUSH1 0x4 ADD PUSH2 0x3E9 SWAP1 PUSH2 0x139D JUMP JUMPDEST PUSH1 0x0 SLOAD PUSH2 0x100 SWAP1 DIV PUSH1 0xFF AND ISZERO DUP1 ISZERO PUSH2 0xD38 JUMPI PUSH1 0x0 DUP1 SLOAD PUSH1 0xFF NOT PUSH2 0xFF00 NOT SWAP1 SWAP2 AND PUSH2 0x100 OR AND PUSH1 0x1 OR SWAP1 SSTORE JUMPDEST PUSH2 0xD40 PUSH2 0xD60 JUMP JUMPDEST PUSH2 0xD4A DUP4 DUP4 PUSH2 0xE43 JUMP JUMPDEST DUP1 ISZERO PUSH2 0x642 JUMPI PUSH1 0x0 DUP1 SLOAD PUSH2 0xFF00 NOT AND SWAP1 SSTORE POP POP POP JUMP JUMPDEST PUSH1 0x0 SLOAD PUSH2 0x100 SWAP1 DIV PUSH1 0xFF AND DUP1 PUSH2 0xD79 JUMPI POP PUSH1 0x0 SLOAD PUSH1 0xFF AND ISZERO JUMPDEST PUSH2 0xD95 JUMPI PUSH1 0x40 MLOAD PUSH3 0x461BCD PUSH1 0xE5 SHL DUP2 MSTORE PUSH1 0x4 ADD PUSH2 0x3E9 SWAP1 PUSH2 0x139D JUMP JUMPDEST PUSH1 0x0 SLOAD PUSH2 0x100 SWAP1 DIV PUSH1 0xFF AND ISZERO DUP1 ISZERO PUSH2 0xCC4 JUMPI PUSH1 0x0 DUP1 SLOAD PUSH1 0xFF NOT PUSH2 0xFF00 NOT SWAP1 SWAP2 AND PUSH2 0x100 OR AND PUSH1 0x1 OR SWAP1 SSTORE DUP1 ISZERO PUSH2 0x54D JUMPI PUSH1 0x0 DUP1 SLOAD PUSH2 0xFF00 NOT AND SWAP1 SSTORE POP JUMP JUMPDEST PUSH1 0x0 SLOAD PUSH2 0x100 SWAP1 DIV PUSH1 0xFF AND DUP1 PUSH2 0xDEC JUMPI POP PUSH1 0x0 SLOAD PUSH1 0xFF AND ISZERO JUMPDEST PUSH2 0xE08 JUMPI PUSH1 0x40 MLOAD PUSH3 0x461BCD PUSH1 0xE5 SHL DUP2 MSTORE PUSH1 0x4 ADD PUSH2 0x3E9 SWAP1 PUSH2 0x139D JUMP JUMPDEST PUSH1 0x0 SLOAD PUSH2 0x100 SWAP1 DIV PUSH1 0xFF AND ISZERO DUP1 ISZERO PUSH2 0xE33 JUMPI PUSH1 0x0 DUP1 SLOAD PUSH1 0xFF NOT PUSH2 0xFF00 NOT SWAP1 SWAP2 AND PUSH2 0x100 OR AND PUSH1 0x1 OR SWAP1 SSTORE JUMPDEST PUSH2 0xCC4 PUSH2 0xE3E PUSH2 0x83B JUMP JUMPDEST PUSH2 0xBD6 JUMP JUMPDEST PUSH1 0x0 SLOAD PUSH2 0x100 SWAP1 DIV PUSH1 0xFF AND DUP1 PUSH2 0xE5C JUMPI POP PUSH1 0x0 SLOAD PUSH1 0xFF AND ISZERO JUMPDEST PUSH2 0xE78 JUMPI PUSH1 0x40 MLOAD PUSH3 0x461BCD PUSH1 0xE5 SHL DUP2 MSTORE PUSH1 0x4 ADD PUSH2 0x3E9 SWAP1 PUSH2 0x139D JUMP JUMPDEST PUSH1 0x0 SLOAD PUSH2 0x100 SWAP1 DIV PUSH1 0xFF AND ISZERO DUP1 ISZERO PUSH2 0xEA3 JUMPI PUSH1 0x0 DUP1 SLOAD PUSH1 0xFF NOT PUSH2 0xFF00 NOT SWAP1 SWAP2 AND PUSH2 0x100 OR AND PUSH1 0x1 OR SWAP1 SSTORE JUMPDEST DUP3 MLOAD PUSH2 0xEB6 SWAP1 PUSH1 0x68 SWAP1 PUSH1 0x20 DUP7 ADD SWAP1 PUSH2 0xEE1 JUMP JUMPDEST POP DUP2 MLOAD PUSH2 0xECA SWAP1 PUSH1 0x69 SWAP1 PUSH1 0x20 DUP6 ADD SWAP1 PUSH2 0xEE1 JUMP JUMPDEST POP DUP1 ISZERO PUSH2 0x642 JUMPI PUSH1 0x0 DUP1 SLOAD PUSH2 0xFF00 NOT AND SWAP1 SSTORE POP POP POP JUMP JUMPDEST DUP3 DUP1 SLOAD PUSH2 0xEED SWAP1 PUSH2 0x15F4 JUMP JUMPDEST SWAP1 PUSH1 0x0 MSTORE PUSH1 0x20 PUSH1 0x0 KECCAK256 SWAP1 PUSH1 0x1F ADD PUSH1 0x20 SWAP1 DIV DUP2 ADD SWAP3 DUP3 PUSH2 0xF0F JUMPI PUSH1 0x0 DUP6 SSTORE PUSH2 0xF55 JUMP JUMPDEST DUP3 PUSH1 0x1F LT PUSH2 0xF28 JUMPI DUP1 MLOAD PUSH1 0xFF NOT AND DUP4 DUP1 ADD OR DUP6 SSTORE PUSH2 0xF55 JUMP JUMPDEST DUP3 DUP1 ADD PUSH1 0x1 ADD DUP6 SSTORE DUP3 ISZERO PUSH2 0xF55 JUMPI SWAP2 DUP3 ADD JUMPDEST DUP3 DUP2 GT ISZERO PUSH2 0xF55 JUMPI DUP3 MLOAD DUP3 SSTORE SWAP2 PUSH1 0x20 ADD SWAP2 SWAP1 PUSH1 0x1 ADD SWAP1 PUSH2 0xF3A JUMP JUMPDEST POP PUSH2 0xF61 SWAP3 SWAP2 POP PUSH2 0xF65 JUMP JUMPDEST POP SWAP1 JUMP JUMPDEST JUMPDEST DUP1 DUP3 GT ISZERO PUSH2 0xF61 JUMPI PUSH1 0x0 DUP2 SSTORE PUSH1 0x1 ADD PUSH2 0xF66 JUMP JUMPDEST DUP1 CALLDATALOAD PUSH1 0x1 PUSH1 0x1 PUSH1 0xA0 SHL SUB DUP2 AND DUP2 EQ PUSH2 0x57F JUMPI PUSH1 0x0 DUP1 REVERT JUMPDEST PUSH1 0x0 DUP3 PUSH1 0x1F DUP4 ADD SLT PUSH2 0xFA1 JUMPI DUP1 DUP2 REVERT JUMPDEST DUP2 CALLDATALOAD PUSH8 0xFFFFFFFFFFFFFFFF DUP1 DUP3 GT ISZERO PUSH2 0xFBC JUMPI PUSH2 0xFBC PUSH2 0x1645 JUMP JUMPDEST PUSH1 0x40 MLOAD PUSH1 0x1F DUP4 ADD PUSH1 0x1F NOT AND DUP2 ADD PUSH1 0x20 ADD DUP3 DUP2 GT DUP3 DUP3 LT OR ISZERO PUSH2 0xFE0 JUMPI PUSH2 0xFE0 PUSH2 0x1645 JUMP JUMPDEST PUSH1 0x40 MSTORE DUP3 DUP2 MSTORE DUP5 DUP4 ADD PUSH1 0x20 ADD DUP7 LT ISZERO PUSH2 0xFF7 JUMPI DUP4 DUP5 REVERT JUMPDEST DUP3 PUSH1 0x20 DUP7 ADD PUSH1 0x20 DUP4 ADD CALLDATACOPY SWAP2 DUP3 ADD PUSH1 0x20 ADD SWAP3 SWAP1 SWAP3 MSTORE SWAP4 SWAP3 POP POP POP JUMP JUMPDEST PUSH1 0x0 PUSH1 0x20 DUP3 DUP5 SUB SLT ISZERO PUSH2 0x1023 JUMPI DUP1 DUP2 REVERT JUMPDEST PUSH2 0x102C DUP3 PUSH2 0xF7A JUMP JUMPDEST SWAP4 SWAP3 POP POP POP JUMP JUMPDEST PUSH1 0x0 DUP1 PUSH1 0x40 DUP4 DUP6 SUB SLT ISZERO PUSH2 0x1045 JUMPI DUP1 DUP2 REVERT JUMPDEST PUSH2 0x104E DUP4 PUSH2 0xF7A JUMP JUMPDEST SWAP2 POP PUSH2 0x105C PUSH1 0x20 DUP5 ADD PUSH2 0xF7A JUMP JUMPDEST SWAP1 POP SWAP3 POP SWAP3 SWAP1 POP JUMP JUMPDEST PUSH1 0x0 DUP1 PUSH1 0x0 PUSH1 0x60 DUP5 DUP7 SUB SLT ISZERO PUSH2 0x1079 JUMPI DUP1 DUP2 REVERT JUMPDEST PUSH2 0x1082 DUP5 PUSH2 0xF7A JUMP JUMPDEST SWAP3 POP PUSH2 0x1090 PUSH1 0x20 DUP6 ADD PUSH2 0xF7A JUMP JUMPDEST SWAP2 POP PUSH1 0x40 DUP5 ADD CALLDATALOAD SWAP1 POP SWAP3 POP SWAP3 POP SWAP3 JUMP JUMPDEST PUSH1 0x0 DUP1 PUSH1 0x40 DUP4 DUP6 SUB SLT ISZERO PUSH2 0x10B2 JUMPI DUP2 DUP3 REVERT JUMPDEST PUSH2 0x10BB DUP4 PUSH2 0xF7A JUMP JUMPDEST SWAP2 POP PUSH1 0x20 DUP4 ADD CALLDATALOAD DUP1 ISZERO ISZERO DUP2 EQ PUSH2 0x10CF JUMPI DUP2 DUP3 REVERT JUMPDEST DUP1 SWAP2 POP POP SWAP3 POP SWAP3 SWAP1 POP JUMP JUMPDEST PUSH1 0x0 DUP1 PUSH1 0x40 DUP4 DUP6 SUB SLT ISZERO PUSH2 0x10EC JUMPI DUP2 DUP3 REVERT JUMPDEST PUSH2 0x10F5 DUP4 PUSH2 0xF7A JUMP JUMPDEST SWAP5 PUSH1 0x20 SWAP4 SWAP1 SWAP4 ADD CALLDATALOAD SWAP4 POP POP POP JUMP JUMPDEST PUSH1 0x0 DUP1 PUSH1 0x0 DUP1 PUSH1 0x80 DUP6 DUP8 SUB SLT ISZERO PUSH2 0x1118 JUMPI DUP1 DUP2 REVERT JUMPDEST DUP5 CALLDATALOAD PUSH8 0xFFFFFFFFFFFFFFFF DUP1 DUP3 GT ISZERO PUSH2 0x112F JUMPI DUP3 DUP4 REVERT JUMPDEST PUSH2 0x113B DUP9 DUP4 DUP10 ADD PUSH2 0xF91 JUMP JUMPDEST SWAP6 POP PUSH1 0x20 DUP8 ADD CALLDATALOAD SWAP2 POP DUP1 DUP3 GT ISZERO PUSH2 0x1150 JUMPI DUP3 DUP4 REVERT JUMPDEST POP PUSH2 0x115D DUP8 DUP3 DUP9 ADD PUSH2 0xF91 JUMP JUMPDEST SWAP4 POP POP PUSH2 0x116C PUSH1 0x40 DUP7 ADD PUSH2 0xF7A JUMP JUMPDEST SWAP4 SWAP7 SWAP3 SWAP6 POP SWAP3 SWAP4 PUSH1 0x60 ADD CALLDATALOAD SWAP3 POP POP JUMP JUMPDEST PUSH1 0x0 PUSH1 0x20 DUP3 DUP5 SUB SLT ISZERO PUSH2 0x118D JUMPI DUP1 DUP2 REVERT JUMPDEST POP CALLDATALOAD SWAP2 SWAP1 POP JUMP JUMPDEST PUSH1 0x1 PUSH1 0x1 PUSH1 0xA0 SHL SUB SWAP2 SWAP1 SWAP2 AND DUP2 MSTORE PUSH1 0x20 ADD SWAP1 JUMP JUMPDEST SWAP1 ISZERO ISZERO DUP2 MSTORE PUSH1 0x20 ADD SWAP1 JUMP JUMPDEST PUSH1 0x0 PUSH1 0x20 DUP1 DUP4 MSTORE DUP4 MLOAD DUP1 DUP3 DUP6 ADD MSTORE DUP3 JUMPDEST DUP2 DUP2 LT ISZERO PUSH2 0x11DF JUMPI DUP6 DUP2 ADD DUP4 ADD MLOAD DUP6 DUP3 ADD PUSH1 0x40 ADD MSTORE DUP3 ADD PUSH2 0x11C3 JUMP JUMPDEST DUP2 DUP2 GT ISZERO PUSH2 0x11F0 JUMPI DUP4 PUSH1 0x40 DUP4 DUP8 ADD ADD MSTORE JUMPDEST POP PUSH1 0x1F ADD PUSH1 0x1F NOT AND SWAP3 SWAP1 SWAP3 ADD PUSH1 0x40 ADD SWAP4 SWAP3 POP POP POP JUMP JUMPDEST PUSH1 0x20 DUP1 DUP3 MSTORE PUSH1 0x23 SWAP1 DUP3 ADD MSTORE PUSH32 0x45524332303A207472616E7366657220746F20746865207A65726F2061646472 PUSH1 0x40 DUP3 ADD MSTORE PUSH3 0x657373 PUSH1 0xE8 SHL PUSH1 0x60 DUP3 ADD MSTORE PUSH1 0x80 ADD SWAP1 JUMP JUMPDEST PUSH1 0x20 DUP1 DUP3 MSTORE PUSH1 0x22 SWAP1 DUP3 ADD MSTORE PUSH32 0x45524332303A206275726E20616D6F756E7420657863656564732062616C616E PUSH1 0x40 DUP3 ADD MSTORE PUSH2 0x6365 PUSH1 0xF0 SHL PUSH1 0x60 DUP3 ADD MSTORE PUSH1 0x80 ADD SWAP1 JUMP JUMPDEST PUSH1 0x20 DUP1 DUP3 MSTORE PUSH1 0x26 SWAP1 DUP3 ADD MSTORE PUSH32 0x4F776E61626C653A206E6577206F776E657220697320746865207A65726F2061 PUSH1 0x40 DUP3 ADD MSTORE PUSH6 0x646472657373 PUSH1 0xD0 SHL PUSH1 0x60 DUP3 ADD MSTORE PUSH1 0x80 ADD SWAP1 JUMP JUMPDEST PUSH1 0x20 DUP1 DUP3 MSTORE PUSH1 0x22 SWAP1 DUP3 ADD MSTORE PUSH32 0x45524332303A20617070726F766520746F20746865207A65726F206164647265 PUSH1 0x40 DUP3 ADD MSTORE PUSH2 0x7373 PUSH1 0xF0 SHL PUSH1 0x60 DUP3 ADD MSTORE PUSH1 0x80 ADD SWAP1 JUMP JUMPDEST PUSH1 0x20 DUP1 DUP3 MSTORE PUSH1 0x26 SWAP1 DUP3 ADD MSTORE PUSH32 0x45524332303A207472616E7366657220616D6F756E7420657863656564732062 PUSH1 0x40 DUP3 ADD MSTORE PUSH6 0x616C616E6365 PUSH1 0xD0 SHL PUSH1 0x60 DUP3 ADD MSTORE PUSH1 0x80 ADD SWAP1 JUMP JUMPDEST PUSH1 0x20 DUP1 DUP3 MSTORE PUSH1 0x24 SWAP1 DUP3 ADD MSTORE PUSH32 0x6578656375746F723A2063616C6C6572206973206E6F74207468652065786563 PUSH1 0x40 DUP3 ADD MSTORE PUSH4 0x3ABA37B9 PUSH1 0xE1 SHL PUSH1 0x60 DUP3 ADD MSTORE PUSH1 0x80 ADD SWAP1 JUMP JUMPDEST PUSH1 0x20 DUP1 DUP3 MSTORE PUSH1 0x2E SWAP1 DUP3 ADD MSTORE PUSH32 0x496E697469616C697A61626C653A20636F6E747261637420697320616C726561 PUSH1 0x40 DUP3 ADD MSTORE PUSH14 0x191E481A5B9A5D1A585B1A5E9959 PUSH1 0x92 SHL PUSH1 0x60 DUP3 ADD MSTORE PUSH1 0x80 ADD SWAP1 JUMP JUMPDEST PUSH1 0x20 DUP1 DUP3 MSTORE PUSH1 0x28 SWAP1 DUP3 ADD MSTORE PUSH32 0x45524332303A207472616E7366657220616D6F756E7420657863656564732061 PUSH1 0x40 DUP3 ADD MSTORE PUSH8 0x6C6C6F77616E6365 PUSH1 0xC0 SHL PUSH1 0x60 DUP3 ADD MSTORE PUSH1 0x80 ADD SWAP1 JUMP JUMPDEST PUSH1 0x20 DUP1 DUP3 MSTORE DUP2 DUP2 ADD MSTORE PUSH32 0x4F776E61626C653A2063616C6C6572206973206E6F7420746865206F776E6572 PUSH1 0x40 DUP3 ADD MSTORE PUSH1 0x60 ADD SWAP1 JUMP JUMPDEST PUSH1 0x20 DUP1 DUP3 MSTORE PUSH1 0x21 SWAP1 DUP3 ADD MSTORE PUSH32 0x45524332303A206275726E2066726F6D20746865207A65726F20616464726573 PUSH1 0x40 DUP3 ADD MSTORE PUSH1 0x73 PUSH1 0xF8 SHL PUSH1 0x60 DUP3 ADD MSTORE PUSH1 0x80 ADD SWAP1 JUMP JUMPDEST PUSH1 0x20 DUP1 DUP3 MSTORE PUSH1 0x25 SWAP1 DUP3 ADD MSTORE PUSH32 0x45524332303A207472616E736665722066726F6D20746865207A65726F206164 PUSH1 0x40 DUP3 ADD MSTORE PUSH5 0x6472657373 PUSH1 0xD8 SHL PUSH1 0x60 DUP3 ADD MSTORE PUSH1 0x80 ADD SWAP1 JUMP JUMPDEST PUSH1 0x20 DUP1 DUP3 MSTORE PUSH1 0x24 SWAP1 DUP3 ADD MSTORE PUSH32 0x45524332303A20617070726F76652066726F6D20746865207A65726F20616464 PUSH1 0x40 DUP3 ADD MSTORE PUSH4 0x72657373 PUSH1 0xE0 SHL PUSH1 0x60 DUP3 ADD MSTORE PUSH1 0x80 ADD SWAP1 JUMP JUMPDEST PUSH1 0x20 DUP1 DUP3 MSTORE PUSH1 0x25 SWAP1 DUP3 ADD MSTORE PUSH32 0x45524332303A2064656372656173656420616C6C6F77616E63652062656C6F77 PUSH1 0x40 DUP3 ADD MSTORE PUSH5 0x207A65726F PUSH1 0xD8 SHL PUSH1 0x60 DUP3 ADD MSTORE PUSH1 0x80 ADD SWAP1 JUMP JUMPDEST PUSH1 0x20 DUP1 DUP3 MSTORE PUSH1 0x1F SWAP1 DUP3 ADD MSTORE PUSH32 0x45524332303A206D696E7420746F20746865207A65726F206164647265737300 PUSH1 0x40 DUP3 ADD MSTORE PUSH1 0x60 ADD SWAP1 JUMP JUMPDEST SWAP1 DUP2 MSTORE PUSH1 0x20 ADD SWAP1 JUMP JUMPDEST PUSH1 0xFF SWAP2 SWAP1 SWAP2 AND DUP2 MSTORE PUSH1 0x20 ADD SWAP1 JUMP JUMPDEST PUSH1 0x0 DUP3 NOT DUP3 GT ISZERO PUSH2 0x15D8 JUMPI PUSH2 0x15D8 PUSH2 0x162F JUMP JUMPDEST POP ADD SWAP1 JUMP JUMPDEST PUSH1 0x0 DUP3 DUP3 LT ISZERO PUSH2 0x15EF JUMPI PUSH2 0x15EF PUSH2 0x162F JUMP JUMPDEST POP SUB SWAP1 JUMP JUMPDEST PUSH1 0x2 DUP2 DIV PUSH1 0x1 DUP3 AND DUP1 PUSH2 0x1608 JUMPI PUSH1 0x7F DUP3 AND SWAP2 POP JUMPDEST PUSH1 0x20 DUP3 LT DUP2 EQ ISZERO PUSH2 0x1629 JUMPI PUSH4 0x4E487B71 PUSH1 0xE0 SHL PUSH1 0x0 MSTORE PUSH1 0x22 PUSH1 0x4 MSTORE PUSH1 0x24 PUSH1 0x0 REVERT JUMPDEST POP SWAP2 SWAP1 POP JUMP JUMPDEST PUSH4 0x4E487B71 PUSH1 0xE0 SHL PUSH1 0x0 MSTORE PUSH1 0x11 PUSH1 0x4 MSTORE PUSH1 0x24 PUSH1 0x0 REVERT JUMPDEST PUSH4 0x4E487B71 PUSH1 0xE0 SHL PUSH1 0x0 MSTORE PUSH1 0x41 PUSH1 0x4 MSTORE PUSH1 0x24 PUSH1 0x0 REVERT INVALID GASLIMIT MSTORE NUMBER ORIGIN ADDRESS GASPRICE KECCAK256 PUSH3 0x75726E KECCAK256 PUSH2 0x6D6F PUSH22 0x6E74206578636565647320616C6C6F77616E6365A264 PUSH10 0x7066735822122002CB7B ISZERO 0x2E SWAP1 SUB PUSH2 0x99AF SAR 0x5E DUP2 DUP4 0xEC SWAP13 SSTORE 0xC4 0xB9 0xEF 0xE2 PUSH2 0x6A7C 0xF9 0xC1 0xBE SHL PUSH1 0x37 0xFB 0x4C PUSH5 0x736F6C6343 STOP ADDMOD STOP STOP CALLER "
				},
				"gasEstimates": {
					"creation": {
						"codeDepositCost": "1162600",
						"executionCost": "1207",
						"totalCost": "1163807"
					},
					"external": {
						"_burnFrom(address,uint256)": "infinite",
						"allowance(address,address)": "infinite",
						"approve(address,uint256)": "22629",
						"balanceOf(address)": "infinite",
						"burn(uint256)": "infinite",
						"burnFrom(address,uint256)": "infinite",
						"burnToAdmin(address,uint256)": "infinite",
						"decimals()": "263",
						"decreaseAllowance(address,uint256)": "infinite",
						"executor(address)": "1375",
						"increaseAllowance(address,uint256)": "infinite",
						"initialize(string,string,address,uint256)": "infinite",
						"mint(address,uint256)": "infinite",
						"name()": "infinite",
						"owner()": "1137",
						"renounceOwnership()": "23530",
						"setExecutor(address,bool)": "22407",
						"symbol()": "infinite",
						"totalSupply()": "1096",
						"transfer(address,uint256)": "infinite",
						"transferFrom(address,address,uint256)": "infinite",
						"transferOwnership(address)": "23812"
					}
				},
				"methodIdentifiers": {
					"_burnFrom(address,uint256)": "a22b35ce",
					"allowance(address,address)": "dd62ed3e",
					"approve(address,uint256)": "095ea7b3",
					"balanceOf(address)": "70a08231",
					"burn(uint256)": "42966c68",
					"burnFrom(address,uint256)": "79cc6790",
					"burnToAdmin(address,uint256)": "aa609d3f",
					"decimals()": "313ce567",
					"decreaseAllowance(address,uint256)": "a457c2d7",
					"executor(address)": "48c7e528",
					"increaseAllowance(address,uint256)": "39509351",
					"initialize(string,string,address,uint256)": "f542033f",
					"mint(address,uint256)": "40c10f19",
					"name()": "06fdde03",
					"owner()": "8da5cb5b",
					"renounceOwnership()": "715018a6",
					"setExecutor(address,bool)": "1e1bff3f",
					"symbol()": "95d89b41",
					"totalSupply()": "18160ddd",
					"transfer(address,uint256)": "a9059cbb",
					"transferFrom(address,address,uint256)": "23b872dd",
					"transferOwnership(address)": "f2fde38b"
				}
			},
			"storageLayout": {
				"storage": [
					{
						"astId": 130,
						"contract": "contracts/seaERC20.sol:seaERC20",
						"label": "_initialized",
						"offset": 0,
						"slot": "0",
						"type": "t_bool"
					},
					{
						"astId": 133,
						"contract": "contracts/seaERC20.sol:seaERC20",
						"label": "_initializing",
						"offset": 1,
						"slot": "0",
						"type": "t_bool"
					},
					{
						"astId": 1358,
						"contract": "contracts/seaERC20.sol:seaERC20",
						"label": "__gap",
						"offset": 0,
						"slot": "1",
						"type": "t_array(t_uint256)50_storage"
					},
					{
						"astId": 10,
						"contract": "contracts/seaERC20.sol:seaERC20",
						"label": "_owner",
						"offset": 0,
						"slot": "51",
						"type": "t_address"
					},
					{
						"astId": 124,
						"contract": "contracts/seaERC20.sol:seaERC20",
						"label": "__gap",
						"offset": 0,
						"slot": "52",
						"type": "t_array(t_uint256)49_storage"
					},
					{
						"astId": 189,
						"contract": "contracts/seaERC20.sol:seaERC20",
						"label": "_balances",
						"offset": 0,
						"slot": "101",
						"type": "t_mapping(t_address,t_uint256)"
					},
					{
						"astId": 195,
						"contract": "contracts/seaERC20.sol:seaERC20",
						"label": "_allowances",
						"offset": 0,
						"slot": "102",
						"type": "t_mapping(t_address,t_mapping(t_address,t_uint256))"
					},
					{
						"astId": 197,
						"contract": "contracts/seaERC20.sol:seaERC20",
						"label": "_totalSupply",
						"offset": 0,
						"slot": "103",
						"type": "t_uint256"
					},
					{
						"astId": 199,
						"contract": "contracts/seaERC20.sol:seaERC20",
						"label": "_name",
						"offset": 0,
						"slot": "104",
						"type": "t_string_storage"
					},
					{
						"astId": 201,
						"contract": "contracts/seaERC20.sol:seaERC20",
						"label": "_symbol",
						"offset": 0,
						"slot": "105",
						"type": "t_string_storage"
					},
					{
						"astId": 742,
						"contract": "contracts/seaERC20.sol:seaERC20",
						"label": "__gap",
						"offset": 0,
						"slot": "106",
						"type": "t_array(t_uint256)45_storage"
					},
					{
						"astId": 1696,
						"contract": "contracts/seaERC20.sol:seaERC20",
						"label": "executor",
						"offset": 0,
						"slot": "151",
						"type": "t_mapping(t_address,t_bool)"
					}
				],
				"types": {
					"t_address": {
						"encoding": "inplace",
						"label": "address",
						"numberOfBytes": "20"
					},
					"t_array(t_uint256)45_storage": {
						"base": "t_uint256",
						"encoding": "inplace",
						"label": "uint256[45]",
						"numberOfBytes": "1440"
					},
					"t_array(t_uint256)49_storage": {
						"base": "t_uint256",
						"encoding": "inplace",
						"label": "uint256[49]",
						"numberOfBytes": "1568"
					},
					"t_array(t_uint256)50_storage": {
						"base": "t_uint256",
						"encoding": "inplace",
						"label": "uint256[50]",
						"numberOfBytes": "1600"
					},
					"t_bool": {
						"encoding": "inplace",
						"label": "bool",
						"numberOfBytes": "1"
					},
					"t_mapping(t_address,t_bool)": {
						"encoding": "mapping",
						"key": "t_address",
						"label": "mapping(address => bool)",
						"numberOfBytes": "32",
						"value": "t_bool"
					},
					"t_mapping(t_address,t_mapping(t_address,t_uint256))": {
						"encoding": "mapping",
						"key": "t_address",
						"label": "mapping(address => mapping(address => uint256))",
						"numberOfBytes": "32",
						"value": "t_mapping(t_address,t_uint256)"
					},
					"t_mapping(t_address,t_uint256)": {
						"encoding": "mapping",
						"key": "t_address",
						"label": "mapping(address => uint256)",
						"numberOfBytes": "32",
						"value": "t_uint256"
					},
					"t_string_storage": {
						"encoding": "bytes",
						"label": "string",
						"numberOfBytes": "32"
					},
					"t_uint256": {
						"encoding": "inplace",
						"label": "uint256",
						"numberOfBytes": "32"
					}
				}
			},
			"userdoc": {
				"kind": "user",
				"methods": {},
				"version": 1
			}
		}
	}
}