{
	"contracts/stabilizer.sol": {
		"stabilizer": {
			"abi": [
				{
					"anonymous": false,
					"inputs": [
						{
							"indexed": true,
							"internalType": "address",
							"name": "previousOwner",
							"type": "address"
						},
						{
							"indexed": true,
							"internalType": "address",
							"name": "newOwner",
							"type": "address"
						}
					],
					"name": "OwnershipTransferred",
					"type": "event"
				},
				{
					"inputs": [
						{
							"internalType": "address",
							"name": "",
							"type": "address"
						}
					],
					"name": "executor",
					"outputs": [
						{
							"internalType": "bool",
							"name": "",
							"type": "bool"
						}
					],
					"stateMutability": "view",
					"type": "function"
				},
				{
					"inputs": [],
					"name": "goStabilizer",
					"outputs": [
						{
							"internalType": "bool",
							"name": "",
							"type": "bool"
						}
					],
					"stateMutability": "nonpayable",
					"type": "function"
				},
				{
					"inputs": [
						{
							"internalType": "address",
							"name": "_usdc_usc_lpAddress",
							"type": "address"
						},
						{
							"internalType": "address",
							"name": "_usdc",
							"type": "address"
						},
						{
							"internalType": "address",
							"name": "_usc",
							"type": "address"
						}
					],
					"name": "initialize",
					"outputs": [],
					"stateMutability": "nonpayable",
					"type": "function"
				},
				{
					"inputs": [],
					"name": "owner",
					"outputs": [
						{
							"internalType": "address",
							"name": "",
							"type": "address"
						}
					],
					"stateMutability": "view",
					"type": "function"
				},
				{
					"inputs": [],
					"name": "renounceOwnership",
					"outputs": [],
					"stateMutability": "nonpayable",
					"type": "function"
				},
				{
					"inputs": [
						{
							"internalType": "address",
							"name": "_address",
							"type": "address"
						},
						{
							"internalType": "bool",
							"name": "_type",
							"type": "bool"
						}
					],
					"name": "setExecutor",
					"outputs": [
						{
							"internalType": "bool",
							"name": "",
							"type": "bool"
						}
					],
					"stateMutability": "nonpayable",
					"type": "function"
				},
				{
					"inputs": [
						{
							"internalType": "address",
							"name": "newOwner",
							"type": "address"
						}
					],
					"name": "transferOwnership",
					"outputs": [],
					"stateMutability": "nonpayable",
					"type": "function"
				},
				{
					"inputs": [],
					"name": "usc",
					"outputs": [
						{
							"internalType": "address",
							"name": "",
							"type": "address"
						}
					],
					"stateMutability": "view",
					"type": "function"
				},
				{
					"inputs": [],
					"name": "usdc",
					"outputs": [
						{
							"internalType": "address",
							"name": "",
							"type": "address"
						}
					],
					"stateMutability": "view",
					"type": "function"
				},
				{
					"inputs": [],
					"name": "usdc_usc_lpAddress",
					"outputs": [
						{
							"internalType": "address",
							"name": "",
							"type": "address"
						}
					],
					"stateMutability": "view",
					"type": "function"
				},
				{
					"inputs": [
						{
							"internalType": "address",
							"name": "_address",
							"type": "address"
						},
						{
							"internalType": "uint256",
							"name": "_amt",
							"type": "uint256"
						}
					],
					"name": "withdrawalERC20",
					"outputs": [
						{
							"internalType": "bool",
							"name": "",
							"type": "bool"
						}
					],
					"stateMutability": "nonpayable",
					"type": "function"
				}
			],
			"devdoc": {
				"kind": "dev",
				"methods": {
					"owner()": {
						"details": "Returns the address of the current owner."
					},
					"renounceOwnership()": {
						"details": "Leaves the contract without owner. It will not be possible to call `onlyOwner` functions anymore. Can only be called by the current owner. NOTE: Renouncing ownership will leave the contract without an owner, thereby removing any functionality that is only available to the owner."
					},
					"transferOwnership(address)": {
						"details": "Transfers ownership of the contract to a new account (`newOwner`). Can only be called by the current owner."
					}
				},
				"version": 1
			},
			"evm": {
				"assembly": "    /* \"contracts/stabilizer.sol\":677:4721  contract stabilizer is Initializable, OwnableUpgradeable {... */\n  mstore(0x40, 0x80)\n  callvalue\n  dup1\n  iszero\n  tag_1\n  jumpi\n  0x00\n  dup1\n  revert\ntag_1:\n  pop\n  dataSize(sub_0)\n  dup1\n  dataOffset(sub_0)\n  0x00\n  codecopy\n  0x00\n  return\nstop\n\nsub_0: assembly {\n        /* \"contracts/stabilizer.sol\":677:4721  contract stabilizer is Initializable, OwnableUpgradeable {... */\n      mstore(0x40, 0x80)\n      callvalue\n      dup1\n      iszero\n      tag_1\n      jumpi\n      0x00\n      dup1\n      revert\n    tag_1:\n      pop\n      jumpi(tag_2, lt(calldatasize, 0x04))\n      shr(0xe0, calldataload(0x00))\n      dup1\n      0x796c7be7\n      gt\n      tag_14\n      jumpi\n      dup1\n      0x796c7be7\n      eq\n      tag_8\n      jumpi\n      dup1\n      0x7e6f7a09\n      eq\n      tag_9\n      jumpi\n      dup1\n      0x8da5cb5b\n      eq\n      tag_10\n      jumpi\n      dup1\n      0x930ed033\n      eq\n      tag_11\n      jumpi\n      dup1\n      0xc0c53b8b\n      eq\n      tag_12\n      jumpi\n      dup1\n      0xf2fde38b\n      eq\n      tag_13\n      jumpi\n      jump(tag_2)\n    tag_14:\n      dup1\n      0x1e1bff3f\n      eq\n      tag_3\n      jumpi\n      dup1\n      0x3011d3d5\n      eq\n      tag_4\n      jumpi\n      dup1\n      0x3e413bee\n      eq\n      tag_5\n      jumpi\n      dup1\n      0x48c7e528\n      eq\n      tag_6\n      jumpi\n      dup1\n      0x715018a6\n      eq\n      tag_7\n      jumpi\n    tag_2:\n      0x00\n      dup1\n      revert\n        /* \"contracts/stabilizer.sol\":1720:1897  function setExecutor(address _address, bool _type)... */\n    tag_3:\n      tag_15\n      tag_16\n      calldatasize\n      0x04\n      tag_17\n      jump\t// in\n    tag_16:\n      tag_18\n      jump\t// in\n    tag_15:\n      mload(0x40)\n      tag_19\n      swap2\n      swap1\n      tag_20\n      jump\t// in\n    tag_19:\n      mload(0x40)\n      dup1\n      swap2\n      sub\n      swap1\n      return\n        /* \"contracts/stabilizer.sol\":963:981  address public usc */\n    tag_4:\n      tag_21\n      tag_22\n      jump\t// in\n    tag_21:\n      mload(0x40)\n      tag_19\n      swap2\n      swap1\n      tag_24\n      jump\t// in\n        /* \"contracts/stabilizer.sol\":938:957  address public usdc */\n    tag_5:\n      tag_21\n      tag_26\n      jump\t// in\n        /* \"contracts/stabilizer.sol\":853:893  mapping(address => bool) public executor */\n    tag_6:\n      tag_15\n      tag_29\n      calldatasize\n      0x04\n      tag_30\n      jump\t// in\n    tag_29:\n      tag_31\n      jump\t// in\n        /* \"@openzeppelin/contracts-upgradeable/access/OwnableUpgradeable.sol\":1934:2035  function renounceOwnership() public virtual onlyOwner {... */\n    tag_7:\n      tag_33\n      tag_34\n      jump\t// in\n    tag_33:\n      stop\n        /* \"contracts/stabilizer.sol\":2030:4498  function goStabilizer() external onlyExecutor returns (bool) {... */\n    tag_8:\n      tag_15\n      tag_36\n      jump\t// in\n        /* \"contracts/stabilizer.sol\":899:932  address public usdc_usc_lpAddress */\n    tag_9:\n      tag_21\n      tag_39\n      jump\t// in\n        /* \"@openzeppelin/contracts-upgradeable/access/OwnableUpgradeable.sol\":1302:1387  function owner() public view virtual returns (address) {... */\n    tag_10:\n      tag_21\n      tag_42\n      jump\t// in\n        /* \"contracts/stabilizer.sol\":4504:4719  function withdrawalERC20(address _address, uint256 _amt)... */\n    tag_11:\n      tag_15\n      tag_45\n      calldatasize\n      0x04\n      tag_46\n      jump\t// in\n    tag_45:\n      tag_47\n      jump\t// in\n        /* \"contracts/stabilizer.sol\":1385:1714  function initialize(... */\n    tag_12:\n      tag_33\n      tag_50\n      calldatasize\n      0x04\n      tag_51\n      jump\t// in\n    tag_50:\n      tag_52\n      jump\t// in\n        /* \"@openzeppelin/contracts-upgradeable/access/OwnableUpgradeable.sol\":2184:2382  function transferOwnership(address newOwner) public virtual onlyOwner {... */\n    tag_13:\n      tag_33\n      tag_54\n      calldatasize\n      0x04\n      tag_30\n      jump\t// in\n    tag_54:\n      tag_55\n      jump\t// in\n        /* \"contracts/stabilizer.sol\":1720:1897  function setExecutor(address _address, bool _type)... */\n    tag_18:\n        /* \"contracts/stabilizer.sol\":1823:1827  bool */\n      0x00\n        /* \"@openzeppelin/contracts-upgradeable/access/OwnableUpgradeable.sol\":1525:1537  _msgSender() */\n      tag_57\n        /* \"@openzeppelin/contracts-upgradeable/access/OwnableUpgradeable.sol\":1525:1535  _msgSender */\n      tag_58\n        /* \"@openzeppelin/contracts-upgradeable/access/OwnableUpgradeable.sol\":1525:1537  _msgSender() */\n      jump\t// in\n    tag_57:\n      sub(shl(0xa0, 0x01), 0x01)\n        /* \"@openzeppelin/contracts-upgradeable/access/OwnableUpgradeable.sol\":1514:1537  owner() == _msgSender() */\n      and\n        /* \"@openzeppelin/contracts-upgradeable/access/OwnableUpgradeable.sol\":1514:1521  owner() */\n      tag_59\n        /* \"@openzeppelin/contracts-upgradeable/access/OwnableUpgradeable.sol\":1514:1519  owner */\n      tag_42\n        /* \"@openzeppelin/contracts-upgradeable/access/OwnableUpgradeable.sol\":1514:1521  owner() */\n      jump\t// in\n    tag_59:\n      sub(shl(0xa0, 0x01), 0x01)\n        /* \"@openzeppelin/contracts-upgradeable/access/OwnableUpgradeable.sol\":1514:1537  owner() == _msgSender() */\n      and\n      eq\n        /* \"@openzeppelin/contracts-upgradeable/access/OwnableUpgradeable.sol\":1506:1574  require(owner() == _msgSender(), \"Ownable: caller is not the owner\") */\n      tag_60\n      jumpi\n      mload(0x40)\n      shl(0xe5, 0x461bcd)\n      dup2\n      mstore\n      0x04\n      add\n      tag_61\n      swap1\n      tag_62\n      jump\t// in\n    tag_61:\n      mload(0x40)\n      dup1\n      swap2\n      sub\n      swap1\n      revert\n    tag_60:\n      pop\n      sub(shl(0xa0, 0x01), 0x01)\n        /* \"contracts/stabilizer.sol\":1843:1861  executor[_address] */\n      dup3\n      and\n      0x00\n      swap1\n      dup2\n      mstore\n        /* \"contracts/stabilizer.sol\":1843:1851  executor */\n      0x65\n        /* \"contracts/stabilizer.sol\":1843:1861  executor[_address] */\n      0x20\n      mstore\n      0x40\n      swap1\n      keccak256\n        /* \"contracts/stabilizer.sol\":1843:1869  executor[_address] = _type */\n      dup1\n      sload\n      dup3\n      iszero\n      iszero\n      not(0xff)\n      swap1\n      swap2\n      and\n      or\n      swap1\n      sstore\n      0x01\n        /* \"contracts/stabilizer.sol\":1720:1897  function setExecutor(address _address, bool _type)... */\n      swap3\n      swap2\n      pop\n      pop\n      jump\t// out\n        /* \"contracts/stabilizer.sol\":963:981  address public usc */\n    tag_22:\n      and(sub(shl(0xa0, 0x01), 0x01), sload(0x68))\n      dup2\n      jump\t// out\n        /* \"contracts/stabilizer.sol\":938:957  address public usdc */\n    tag_26:\n      and(sub(shl(0xa0, 0x01), 0x01), sload(0x67))\n      dup2\n      jump\t// out\n        /* \"contracts/stabilizer.sol\":853:893  mapping(address => bool) public executor */\n    tag_31:\n      mstore(0x20, 0x65)\n      0x00\n      swap1\n      dup2\n      mstore\n      0x40\n      swap1\n      keccak256\n      sload\n      0xff\n      and\n      dup2\n      jump\t// out\n        /* \"@openzeppelin/contracts-upgradeable/access/OwnableUpgradeable.sol\":1934:2035  function renounceOwnership() public virtual onlyOwner {... */\n    tag_34:\n        /* \"@openzeppelin/contracts-upgradeable/access/OwnableUpgradeable.sol\":1525:1537  _msgSender() */\n      tag_65\n        /* \"@openzeppelin/contracts-upgradeable/access/OwnableUpgradeable.sol\":1525:1535  _msgSender */\n      tag_58\n        /* \"@openzeppelin/contracts-upgradeable/access/OwnableUpgradeable.sol\":1525:1537  _msgSender() */\n      jump\t// in\n    tag_65:\n      sub(shl(0xa0, 0x01), 0x01)\n        /* \"@openzeppelin/contracts-upgradeable/access/OwnableUpgradeable.sol\":1514:1537  owner() == _msgSender() */\n      and\n        /* \"@openzeppelin/contracts-upgradeable/access/OwnableUpgradeable.sol\":1514:1521  owner() */\n      tag_66\n        /* \"@openzeppelin/contracts-upgradeable/access/OwnableUpgradeable.sol\":1514:1519  owner */\n      tag_42\n        /* \"@openzeppelin/contracts-upgradeable/access/OwnableUpgradeable.sol\":1514:1521  owner() */\n      jump\t// in\n    tag_66:\n      sub(shl(0xa0, 0x01), 0x01)\n        /* \"@openzeppelin/contracts-upgradeable/access/OwnableUpgradeable.sol\":1514:1537  owner() == _msgSender() */\n      and\n      eq\n        /* \"@openzeppelin/contracts-upgradeable/access/OwnableUpgradeable.sol\":1506:1574  require(owner() == _msgSender(), \"Ownable: caller is not the owner\") */\n      tag_67\n      jumpi\n      mload(0x40)\n      shl(0xe5, 0x461bcd)\n      dup2\n      mstore\n      0x04\n      add\n      tag_61\n      swap1\n      tag_62\n      jump\t// in\n    tag_67:\n        /* \"@openzeppelin/contracts-upgradeable/access/OwnableUpgradeable.sol\":1998:2028  _transferOwnership(address(0)) */\n      tag_70\n        /* \"@openzeppelin/contracts-upgradeable/access/OwnableUpgradeable.sol\":2025:2026  0 */\n      0x00\n        /* \"@openzeppelin/contracts-upgradeable/access/OwnableUpgradeable.sol\":1998:2016  _transferOwnership */\n      tag_71\n        /* \"@openzeppelin/contracts-upgradeable/access/OwnableUpgradeable.sol\":1998:2028  _transferOwnership(address(0)) */\n      jump\t// in\n    tag_70:\n        /* \"@openzeppelin/contracts-upgradeable/access/OwnableUpgradeable.sol\":1934:2035  function renounceOwnership() public virtual onlyOwner {... */\n      jump\t// out\n        /* \"contracts/stabilizer.sol\":2030:4498  function goStabilizer() external onlyExecutor returns (bool) {... */\n    tag_36:\n        /* \"contracts/stabilizer.sol\":1954:1964  msg.sender */\n      caller\n        /* \"contracts/stabilizer.sol\":2085:2089  bool */\n      0x00\n        /* \"contracts/stabilizer.sol\":1945:1965  executor[msg.sender] */\n      swap1\n      dup2\n      mstore\n        /* \"contracts/stabilizer.sol\":1945:1953  executor */\n      0x65\n        /* \"contracts/stabilizer.sol\":1945:1965  executor[msg.sender] */\n      0x20\n      mstore\n      0x40\n      dup2\n      keccak256\n      sload\n      0xff\n      and\n        /* \"contracts/stabilizer.sol\":1937:2006  require(executor[msg.sender], \"executor: caller is not the executor\") */\n      tag_73\n      jumpi\n      mload(0x40)\n      shl(0xe5, 0x461bcd)\n      dup2\n      mstore\n      0x04\n      add\n      tag_61\n      swap1\n      tag_75\n      jump\t// in\n    tag_73:\n        /* \"contracts/stabilizer.sol\":2102:2118  uint256 reserve0 */\n      0x00\n        /* \"contracts/stabilizer.sol\":2120:2136  uint256 reserve1 */\n      dup1\n        /* \"contracts/stabilizer.sol\":2170:2188  usdc_usc_lpAddress */\n      0x66\n      0x00\n      swap1\n      sload\n      swap1\n      0x0100\n      exp\n      swap1\n      div\n      sub(shl(0xa0, 0x01), 0x01)\n      and\n      sub(shl(0xa0, 0x01), 0x01)\n        /* \"contracts/stabilizer.sol\":2142:2210  IUniswapV2Pair(... */\n      and\n      0x0902f1ac\n        /* \"contracts/stabilizer.sol\":2142:2212  IUniswapV2Pair(... */\n      mload(0x40)\n      dup2\n      0xffffffff\n      and\n      0xe0\n      shl\n      dup2\n      mstore\n      0x04\n      add\n      0x60\n      mload(0x40)\n      dup1\n      dup4\n      sub\n      dup2\n      dup7\n      dup1\n      extcodesize\n      iszero\n      dup1\n      iszero\n      tag_77\n      jumpi\n      0x00\n      dup1\n      revert\n    tag_77:\n      pop\n      gas\n      staticcall\n      iszero\n      dup1\n      iszero\n      tag_79\n      jumpi\n      returndatasize\n      0x00\n      dup1\n      returndatacopy\n      revert(0x00, returndatasize)\n    tag_79:\n      pop\n      pop\n      pop\n      pop\n      mload(0x40)\n      returndatasize\n      not(0x1f)\n      0x1f\n      dup3\n      add\n      and\n      dup3\n      add\n      dup1\n      0x40\n      mstore\n      pop\n      dup2\n      add\n      swap1\n      tag_80\n      swap2\n      swap1\n      tag_81\n      jump\t// in\n    tag_80:\n        /* \"contracts/stabilizer.sol\":2101:2212  (uint256 reserve0, uint256 reserve1, ) = IUniswapV2Pair(... */\n      pop\n      sub(shl(0x70, 0x01), 0x01)\n      and\n      swap2\n      pop\n      sub(shl(0x70, 0x01), 0x01)\n      and\n      swap2\n      pop\n        /* \"contracts/stabilizer.sol\":2222:2236  address token0 */\n      0x00\n        /* \"contracts/stabilizer.sol\":2254:2272  usdc_usc_lpAddress */\n      0x66\n      0x00\n      swap1\n      sload\n      swap1\n      0x0100\n      exp\n      swap1\n      div\n      sub(shl(0xa0, 0x01), 0x01)\n      and\n      sub(shl(0xa0, 0x01), 0x01)\n        /* \"contracts/stabilizer.sol\":2239:2280  IUniswapV2Pair(usdc_usc_lpAddress).token0 */\n      and\n      0x0dfe1681\n        /* \"contracts/stabilizer.sol\":2239:2282  IUniswapV2Pair(usdc_usc_lpAddress).token0() */\n      mload(0x40)\n      dup2\n      0xffffffff\n      and\n      0xe0\n      shl\n      dup2\n      mstore\n      0x04\n      add\n      0x20\n      mload(0x40)\n      dup1\n      dup4\n      sub\n      dup2\n      dup7\n      dup1\n      extcodesize\n      iszero\n      dup1\n      iszero\n      tag_82\n      jumpi\n      0x00\n      dup1\n      revert\n    tag_82:\n      pop\n      gas\n      staticcall\n      iszero\n      dup1\n      iszero\n      tag_84\n      jumpi\n      returndatasize\n      0x00\n      dup1\n      returndatacopy\n      revert(0x00, returndatasize)\n    tag_84:\n      pop\n      pop\n      pop\n      pop\n      mload(0x40)\n      returndatasize\n      not(0x1f)\n      0x1f\n      dup3\n      add\n      and\n      dup3\n      add\n      dup1\n      0x40\n      mstore\n      pop\n      dup2\n      add\n      swap1\n      tag_85\n      swap2\n      swap1\n      tag_86\n      jump\t// in\n    tag_85:\n        /* \"contracts/stabilizer.sol\":2426:2429  usc */\n      sload(0x68)\n        /* \"contracts/stabilizer.sol\":2222:2282  address token0 = IUniswapV2Pair(usdc_usc_lpAddress).token0() */\n      swap1\n      swap2\n      pop\n        /* \"contracts/stabilizer.sol\":2367:2384  uint256 reserveIn */\n      0x00\n      swap1\n      dup2\n      swap1\n      sub(shl(0xa0, 0x01), 0x01)\n        /* \"contracts/stabilizer.sol\":2408:2430  token0 == address(usc) */\n      dup1\n      dup6\n      and\n        /* \"contracts/stabilizer.sol\":2426:2429  usc */\n      swap2\n      and\n        /* \"contracts/stabilizer.sol\":2408:2430  token0 == address(usc) */\n      eq\n        /* \"contracts/stabilizer.sol\":2408:2500  token0 == address(usc)... */\n      tag_87\n      jumpi\n        /* \"contracts/stabilizer.sol\":2481:2489  reserve0 */\n      dup5\n        /* \"contracts/stabilizer.sol\":2491:2499  reserve1 */\n      dup5\n        /* \"contracts/stabilizer.sol\":2408:2500  token0 == address(usc)... */\n      jump(tag_88)\n    tag_87:\n        /* \"contracts/stabilizer.sol\":2446:2454  reserve1 */\n      dup4\n        /* \"contracts/stabilizer.sol\":2456:2464  reserve0 */\n      dup6\n        /* \"contracts/stabilizer.sol\":2408:2500  token0 == address(usc)... */\n    tag_88:\n        /* \"contracts/stabilizer.sol\":2549:2553  usdc */\n      sload(0x67)\n        /* \"contracts/stabilizer.sol\":2578:2596  usdc_usc_lpAddress */\n      sload(0x66)\n        /* \"contracts/stabilizer.sol\":2531:2606  IERC20Upgradeable(usdc).balanceOf(... */\n      mload(0x40)\n      shl(0xe0, 0x70a08231)\n      dup2\n      mstore\n        /* \"contracts/stabilizer.sol\":2366:2500  (uint256 reserveIn, uint256 reserveOut) = token0 == address(usc)... */\n      swap4\n      swap6\n      pop\n      swap2\n      swap4\n      pop\n        /* \"contracts/stabilizer.sol\":2511:2528  uint256 usdcForLP */\n      0x00\n      swap3\n      sub(shl(0xa0, 0x01), 0x01)\n        /* \"contracts/stabilizer.sol\":2549:2553  usdc */\n      swap2\n      dup3\n      and\n      swap3\n        /* \"contracts/stabilizer.sol\":2531:2564  IERC20Upgradeable(usdc).balanceOf */\n      0x70a08231\n      swap3\n        /* \"contracts/stabilizer.sol\":2531:2606  IERC20Upgradeable(usdc).balanceOf(... */\n      tag_89\n      swap3\n        /* \"contracts/stabilizer.sol\":2578:2596  usdc_usc_lpAddress */\n      swap2\n      and\n      swap1\n        /* \"contracts/stabilizer.sol\":2531:2606  IERC20Upgradeable(usdc).balanceOf(... */\n      0x04\n      add\n      tag_24\n      jump\t// in\n    tag_89:\n      0x20\n      mload(0x40)\n      dup1\n      dup4\n      sub\n      dup2\n      dup7\n      dup1\n      extcodesize\n      iszero\n      dup1\n      iszero\n      tag_90\n      jumpi\n      0x00\n      dup1\n      revert\n    tag_90:\n      pop\n      gas\n      staticcall\n      iszero\n      dup1\n      iszero\n      tag_92\n      jumpi\n      returndatasize\n      0x00\n      dup1\n      returndatacopy\n      revert(0x00, returndatasize)\n    tag_92:\n      pop\n      pop\n      pop\n      pop\n      mload(0x40)\n      returndatasize\n      not(0x1f)\n      0x1f\n      dup3\n      add\n      and\n      dup3\n      add\n      dup1\n      0x40\n      mstore\n      pop\n      dup2\n      add\n      swap1\n      tag_93\n      swap2\n      swap1\n      tag_94\n      jump\t// in\n    tag_93:\n        /* \"contracts/stabilizer.sol\":2653:2656  usc */\n      sload(0x68)\n        /* \"contracts/stabilizer.sol\":2668:2686  usdc_usc_lpAddress */\n      sload(0x66)\n        /* \"contracts/stabilizer.sol\":2635:2687  IERC20Upgradeable(usc).balanceOf(usdc_usc_lpAddress) */\n      mload(0x40)\n      shl(0xe0, 0x70a08231)\n      dup2\n      mstore\n        /* \"contracts/stabilizer.sol\":2511:2606  uint256 usdcForLP = IERC20Upgradeable(usdc).balanceOf(... */\n      swap3\n      swap4\n      pop\n        /* \"contracts/stabilizer.sol\":2616:2632  uint256 uscForLP */\n      0x00\n      swap3\n      sub(shl(0xa0, 0x01), 0x01)\n        /* \"contracts/stabilizer.sol\":2653:2656  usc */\n      swap3\n      dup4\n      and\n      swap3\n        /* \"contracts/stabilizer.sol\":2635:2667  IERC20Upgradeable(usc).balanceOf */\n      0x70a08231\n      swap3\n        /* \"contracts/stabilizer.sol\":2635:2687  IERC20Upgradeable(usc).balanceOf(usdc_usc_lpAddress) */\n      tag_95\n      swap3\n        /* \"contracts/stabilizer.sol\":2668:2686  usdc_usc_lpAddress */\n      swap2\n      and\n      swap1\n        /* \"contracts/stabilizer.sol\":2635:2687  IERC20Upgradeable(usc).balanceOf(usdc_usc_lpAddress) */\n      0x04\n      add\n      tag_24\n      jump\t// in\n    tag_95:\n      0x20\n      mload(0x40)\n      dup1\n      dup4\n      sub\n      dup2\n      dup7\n      dup1\n      extcodesize\n      iszero\n      dup1\n      iszero\n      tag_96\n      jumpi\n      0x00\n      dup1\n      revert\n    tag_96:\n      pop\n      gas\n      staticcall\n      iszero\n      dup1\n      iszero\n      tag_98\n      jumpi\n      returndatasize\n      0x00\n      dup1\n      returndatacopy\n      revert(0x00, returndatasize)\n    tag_98:\n      pop\n      pop\n      pop\n      pop\n      mload(0x40)\n      returndatasize\n      not(0x1f)\n      0x1f\n      dup3\n      add\n      and\n      dup3\n      add\n      dup1\n      0x40\n      mstore\n      pop\n      dup2\n      add\n      swap1\n      tag_99\n      swap2\n      swap1\n      tag_94\n      jump\t// in\n    tag_99:\n        /* \"contracts/stabilizer.sol\":2616:2687  uint256 uscForLP = IERC20Upgradeable(usc).balanceOf(usdc_usc_lpAddress) */\n      swap1\n      pop\n        /* \"contracts/stabilizer.sol\":2709:2722  uint256 price */\n      0x00\n        /* \"contracts/stabilizer.sol\":2725:2758  usdcForLP.mul(1e18).div(uscForLP) */\n      tag_100\n        /* \"contracts/stabilizer.sol\":2616:2687  uint256 uscForLP = IERC20Upgradeable(usc).balanceOf(usdc_usc_lpAddress) */\n      dup3\n        /* \"contracts/stabilizer.sol\":2725:2744  usdcForLP.mul(1e18) */\n      tag_101\n        /* \"contracts/stabilizer.sol\":2725:2734  usdcForLP */\n      dup6\n        /* \"contracts/stabilizer.sol\":2739:2743  1e18 */\n      0x0de0b6b3a7640000\n        /* \"contracts/stabilizer.sol\":2725:2738  usdcForLP.mul */\n      tag_102\n        /* \"contracts/stabilizer.sol\":2725:2744  usdcForLP.mul(1e18) */\n      jump\t// in\n    tag_101:\n        /* \"contracts/stabilizer.sol\":2725:2748  usdcForLP.mul(1e18).div */\n      swap1\n      tag_103\n        /* \"contracts/stabilizer.sol\":2725:2758  usdcForLP.mul(1e18).div(uscForLP) */\n      jump\t// in\n    tag_100:\n        /* \"contracts/stabilizer.sol\":2709:2758  uint256 price = usdcForLP.mul(1e18).div(uscForLP) */\n      swap1\n      pop\n        /* \"contracts/stabilizer.sol\":2780:2784  1e18 */\n      0x0de0b6b3a7640000\n        /* \"contracts/stabilizer.sol\":2772:2777  price */\n      dup2\n        /* \"contracts/stabilizer.sol\":2772:2784  price > 1e18 */\n      gt\n        /* \"contracts/stabilizer.sol\":2768:3542  if (price > 1e18) {... */\n      iszero\n      tag_104\n      jumpi\n        /* \"contracts/stabilizer.sol\":2800:2819  uint256 neetSellAmt */\n      0x00\n        /* \"contracts/stabilizer.sol\":2822:2845  usdcForLP.sub(uscForLP) */\n      tag_105\n        /* \"contracts/stabilizer.sol\":2822:2831  usdcForLP */\n      dup5\n        /* \"contracts/stabilizer.sol\":2836:2844  uscForLP */\n      dup5\n        /* \"contracts/stabilizer.sol\":2822:2835  usdcForLP.sub */\n      tag_106\n        /* \"contracts/stabilizer.sol\":2822:2845  usdcForLP.sub(uscForLP) */\n      jump\t// in\n    tag_105:\n        /* \"contracts/stabilizer.sol\":2872:2875  usc */\n      sload(0x68)\n        /* \"contracts/stabilizer.sol\":2859:2910  IUSC(address(usc)).mint(address(this), neetSellAmt) */\n      mload(0x40)\n      shl(0xe0, 0x40c10f19)\n      dup2\n      mstore\n        /* \"contracts/stabilizer.sol\":2800:2845  uint256 neetSellAmt = usdcForLP.sub(uscForLP) */\n      swap2\n      swap3\n      pop\n      sub(shl(0xa0, 0x01), 0x01)\n        /* \"contracts/stabilizer.sol\":2872:2875  usc */\n      and\n      swap1\n        /* \"contracts/stabilizer.sol\":2859:2882  IUSC(address(usc)).mint */\n      0x40c10f19\n      swap1\n        /* \"contracts/stabilizer.sol\":2859:2910  IUSC(address(usc)).mint(address(this), neetSellAmt) */\n      tag_107\n      swap1\n        /* \"contracts/stabilizer.sol\":2891:2895  this */\n      address\n      swap1\n        /* \"contracts/stabilizer.sol\":2800:2845  uint256 neetSellAmt = usdcForLP.sub(uscForLP) */\n      dup6\n      swap1\n        /* \"contracts/stabilizer.sol\":2859:2910  IUSC(address(usc)).mint(address(this), neetSellAmt) */\n      0x04\n      add\n      tag_108\n      jump\t// in\n    tag_107:\n      0x20\n      mload(0x40)\n      dup1\n      dup4\n      sub\n      dup2\n      0x00\n      dup8\n      dup1\n      extcodesize\n      iszero\n      dup1\n      iszero\n      tag_109\n      jumpi\n      0x00\n      dup1\n      revert\n    tag_109:\n      pop\n      gas\n      call\n      iszero\n      dup1\n      iszero\n      tag_111\n      jumpi\n      returndatasize\n      0x00\n      dup1\n      returndatacopy\n      revert(0x00, returndatasize)\n    tag_111:\n      pop\n      pop\n      pop\n      pop\n      mload(0x40)\n      returndatasize\n      not(0x1f)\n      0x1f\n      dup3\n      add\n      and\n      dup3\n      add\n      dup1\n      0x40\n      mstore\n      pop\n      dup2\n      add\n      swap1\n      tag_112\n      swap2\n      swap1\n      tag_113\n      jump\t// in\n    tag_112:\n      pop\n        /* \"contracts/stabilizer.sol\":2978:2996  usdc_usc_lpAddress */\n      sload(0x66)\n        /* \"contracts/stabilizer.sol\":2943:2946  usc */\n      sload(0x68)\n        /* \"contracts/stabilizer.sol\":2925:3039  IERC20Upgradeable(usc).safeTransfer(... */\n      tag_114\n      swap2\n      sub(shl(0xa0, 0x01), 0x01)\n        /* \"contracts/stabilizer.sol\":2943:2946  usc */\n      swap2\n      dup3\n      and\n      swap2\n        /* \"contracts/stabilizer.sol\":2978:2996  usdc_usc_lpAddress */\n      and\n        /* \"contracts/stabilizer.sol\":3014:3025  neetSellAmt */\n      dup4\n        /* \"contracts/stabilizer.sol\":2925:2960  IERC20Upgradeable(usc).safeTransfer */\n      tag_115\n        /* \"contracts/stabilizer.sol\":2925:3039  IERC20Upgradeable(usc).safeTransfer(... */\n      jump\t// in\n    tag_114:\n        /* \"contracts/stabilizer.sol\":3053:3070  uint256 amountOut */\n      0x00\n        /* \"contracts/stabilizer.sol\":3073:3183  getAmountOut(... */\n      tag_116\n        /* \"contracts/stabilizer.sol\":3103:3114  neetSellAmt */\n      dup3\n        /* \"contracts/stabilizer.sol\":3132:3142  reserveOut */\n      dup8\n        /* \"contracts/stabilizer.sol\":3160:3169  reserveIn */\n      dup10\n        /* \"contracts/stabilizer.sol\":3073:3085  getAmountOut */\n      tag_117\n        /* \"contracts/stabilizer.sol\":3073:3183  getAmountOut(... */\n      jump\t// in\n    tag_116:\n        /* \"contracts/stabilizer.sol\":3259:3262  usc */\n      sload(0x68)\n        /* \"contracts/stabilizer.sol\":3053:3183  uint256 amountOut = getAmountOut(... */\n      swap1\n      swap2\n      pop\n        /* \"contracts/stabilizer.sol\":3199:3217  uint256 amount0Out */\n      0x00\n      swap1\n      dup2\n      swap1\n      sub(shl(0xa0, 0x01), 0x01)\n        /* \"contracts/stabilizer.sol\":3241:3263  token0 == address(usc) */\n      dup12\n      dup2\n      and\n        /* \"contracts/stabilizer.sol\":3259:3262  usc */\n      swap2\n      and\n        /* \"contracts/stabilizer.sol\":3241:3263  token0 == address(usc) */\n      eq\n        /* \"contracts/stabilizer.sol\":3241:3347  token0 == address(usc)... */\n      tag_118\n      jumpi\n        /* \"contracts/stabilizer.sol\":3325:3334  amountOut */\n      dup3\n        /* \"contracts/stabilizer.sol\":3344:3345  0 */\n      0x00\n        /* \"contracts/stabilizer.sol\":3241:3347  token0 == address(usc)... */\n      jump(tag_119)\n    tag_118:\n        /* \"contracts/stabilizer.sol\":3291:3292  0 */\n      0x00\n        /* \"contracts/stabilizer.sol\":3295:3304  amountOut */\n      dup4\n        /* \"contracts/stabilizer.sol\":3241:3347  token0 == address(usc)... */\n    tag_119:\n        /* \"contracts/stabilizer.sol\":3376:3394  usdc_usc_lpAddress */\n      sload(0x66)\n        /* \"contracts/stabilizer.sol\":3505:3517  new bytes(0) */\n      0x40\n      dup1\n      mload\n        /* \"contracts/stabilizer.sol\":3376:3394  usdc_usc_lpAddress */\n      0x00\n        /* \"contracts/stabilizer.sol\":3505:3517  new bytes(0) */\n      dup2\n      mstore\n      0x20\n      dup2\n      add\n      swap2\n      dup3\n      swap1\n      mstore\n      shl(0xe0, 0x022c0d9f)\n        /* \"contracts/stabilizer.sol\":3361:3531  IUniswapV2Pair(usdc_usc_lpAddress).swap(... */\n      swap1\n      swap2\n      mstore\n        /* \"contracts/stabilizer.sol\":3198:3347  (uint256 amount0Out, uint256 amount1Out) = token0 == address(usc)... */\n      swap3\n      swap5\n      pop\n      swap1\n      swap3\n      pop\n      sub(shl(0xa0, 0x01), 0x01)\n        /* \"contracts/stabilizer.sol\":3376:3394  usdc_usc_lpAddress */\n      and\n      swap1\n        /* \"contracts/stabilizer.sol\":3361:3400  IUniswapV2Pair(usdc_usc_lpAddress).swap */\n      0x022c0d9f\n      swap1\n        /* \"contracts/stabilizer.sol\":3361:3531  IUniswapV2Pair(usdc_usc_lpAddress).swap(... */\n      tag_122\n      swap1\n        /* \"contracts/stabilizer.sol\":3198:3347  (uint256 amount0Out, uint256 amount1Out) = token0 == address(usc)... */\n      dup6\n      swap1\n      dup6\n      swap1\n        /* \"contracts/stabilizer.sol\":3482:3486  this */\n      address\n      swap1\n        /* \"contracts/stabilizer.sol\":3361:3531  IUniswapV2Pair(usdc_usc_lpAddress).swap(... */\n      0x24\n      dup2\n      add\n      tag_123\n      jump\t// in\n    tag_122:\n      0x00\n      mload(0x40)\n      dup1\n      dup4\n      sub\n      dup2\n      0x00\n      dup8\n      dup1\n      extcodesize\n      iszero\n      dup1\n      iszero\n      tag_124\n      jumpi\n      0x00\n      dup1\n      revert\n    tag_124:\n      pop\n      gas\n      call\n      iszero\n      dup1\n      iszero\n      tag_126\n      jumpi\n      returndatasize\n      0x00\n      dup1\n      returndatacopy\n      revert(0x00, returndatasize)\n    tag_126:\n      pop\n      pop\n      pop\n      pop\n        /* \"contracts/stabilizer.sol\":2768:3542  if (price > 1e18) {... */\n      pop\n      pop\n      pop\n      pop\n    tag_104:\n        /* \"contracts/stabilizer.sol\":3564:3568  1e18 */\n      0x0de0b6b3a7640000\n        /* \"contracts/stabilizer.sol\":3556:3561  price */\n      dup2\n        /* \"contracts/stabilizer.sol\":3556:3568  price < 1e18 */\n      lt\n        /* \"contracts/stabilizer.sol\":3552:4471  if (price < 1e18) {... */\n      iszero\n      tag_127\n      jumpi\n        /* \"contracts/stabilizer.sol\":3584:3602  uint256 neetBuyAmt */\n      0x00\n        /* \"contracts/stabilizer.sol\":3605:3628  uscForLP.sub(usdcForLP) */\n      tag_128\n        /* \"contracts/stabilizer.sol\":3605:3613  uscForLP */\n      dup4\n        /* \"contracts/stabilizer.sol\":3618:3627  usdcForLP */\n      dup6\n        /* \"contracts/stabilizer.sol\":3605:3617  uscForLP.sub */\n      tag_106\n        /* \"contracts/stabilizer.sol\":3605:3628  uscForLP.sub(usdcForLP) */\n      jump\t// in\n    tag_128:\n        /* \"contracts/stabilizer.sol\":3689:3693  usdc */\n      sload(0x67)\n        /* \"contracts/stabilizer.sol\":3671:3749  IERC20Upgradeable(usdc).balanceOf(... */\n      mload(0x40)\n      shl(0xe0, 0x70a08231)\n      dup2\n      mstore\n        /* \"contracts/stabilizer.sol\":3584:3628  uint256 neetBuyAmt = uscForLP.sub(usdcForLP) */\n      swap2\n      swap3\n      pop\n        /* \"contracts/stabilizer.sol\":3642:3668  uint256 thisAddressBalance */\n      0x00\n      swap2\n      sub(shl(0xa0, 0x01), 0x01)\n        /* \"contracts/stabilizer.sol\":3689:3693  usdc */\n      swap1\n      swap2\n      and\n      swap1\n        /* \"contracts/stabilizer.sol\":3671:3704  IERC20Upgradeable(usdc).balanceOf */\n      0x70a08231\n      swap1\n        /* \"contracts/stabilizer.sol\":3671:3749  IERC20Upgradeable(usdc).balanceOf(... */\n      tag_129\n      swap1\n        /* \"contracts/stabilizer.sol\":3730:3734  this */\n      address\n      swap1\n        /* \"contracts/stabilizer.sol\":3671:3749  IERC20Upgradeable(usdc).balanceOf(... */\n      0x04\n      add\n      tag_24\n      jump\t// in\n    tag_129:\n      0x20\n      mload(0x40)\n      dup1\n      dup4\n      sub\n      dup2\n      dup7\n      dup1\n      extcodesize\n      iszero\n      dup1\n      iszero\n      tag_130\n      jumpi\n      0x00\n      dup1\n      revert\n    tag_130:\n      pop\n      gas\n      staticcall\n      iszero\n      dup1\n      iszero\n      tag_132\n      jumpi\n      returndatasize\n      0x00\n      dup1\n      returndatacopy\n      revert(0x00, returndatasize)\n    tag_132:\n      pop\n      pop\n      pop\n      pop\n      mload(0x40)\n      returndatasize\n      not(0x1f)\n      0x1f\n      dup3\n      add\n      and\n      dup3\n      add\n      dup1\n      0x40\n      mstore\n      pop\n      dup2\n      add\n      swap1\n      tag_133\n      swap2\n      swap1\n      tag_94\n      jump\t// in\n    tag_133:\n        /* \"contracts/stabilizer.sol\":3642:3749  uint256 thisAddressBalance = IERC20Upgradeable(usdc).balanceOf(... */\n      swap1\n      pop\n        /* \"contracts/stabilizer.sol\":3763:3779  uint256 amountIn */\n      0x00\n        /* \"contracts/stabilizer.sol\":3810:3828  thisAddressBalance */\n      dup2\n        /* \"contracts/stabilizer.sol\":3797:3807  neetBuyAmt */\n      dup4\n        /* \"contracts/stabilizer.sol\":3797:3828  neetBuyAmt > thisAddressBalance */\n      gt\n        /* \"contracts/stabilizer.sol\":3793:3952  if (neetBuyAmt > thisAddressBalance) {... */\n      iszero\n      tag_134\n      jumpi\n      pop\n        /* \"contracts/stabilizer.sol\":3859:3877  thisAddressBalance */\n      dup1\n        /* \"contracts/stabilizer.sol\":3793:3952  if (neetBuyAmt > thisAddressBalance) {... */\n      jump(tag_135)\n    tag_134:\n      pop\n        /* \"contracts/stabilizer.sol\":3927:3937  neetBuyAmt */\n      dup2\n        /* \"contracts/stabilizer.sol\":3793:3952  if (neetBuyAmt > thisAddressBalance) {... */\n    tag_135:\n        /* \"contracts/stabilizer.sol\":4003:4021  usdc_usc_lpAddress */\n      sload(0x66)\n        /* \"contracts/stabilizer.sol\":3984:3988  usdc */\n      sload(0x67)\n        /* \"contracts/stabilizer.sol\":3966:4032  IERC20Upgradeable(usdc).safeTransfer(usdc_usc_lpAddress, amountIn) */\n      tag_136\n      swap2\n      sub(shl(0xa0, 0x01), 0x01)\n        /* \"contracts/stabilizer.sol\":3984:3988  usdc */\n      swap2\n      dup3\n      and\n      swap2\n        /* \"contracts/stabilizer.sol\":4003:4021  usdc_usc_lpAddress */\n      and\n        /* \"contracts/stabilizer.sol\":4023:4031  amountIn */\n      dup4\n        /* \"contracts/stabilizer.sol\":3966:4002  IERC20Upgradeable(usdc).safeTransfer */\n      tag_115\n        /* \"contracts/stabilizer.sol\":3966:4032  IERC20Upgradeable(usdc).safeTransfer(usdc_usc_lpAddress, amountIn) */\n      jump\t// in\n    tag_136:\n        /* \"contracts/stabilizer.sol\":4046:4063  uint256 amountOut */\n      0x00\n        /* \"contracts/stabilizer.sol\":4066:4111  getAmountOut(amountIn, reserveIn, reserveOut) */\n      tag_137\n        /* \"contracts/stabilizer.sol\":4079:4087  amountIn */\n      dup3\n        /* \"contracts/stabilizer.sol\":4089:4098  reserveIn */\n      dup11\n        /* \"contracts/stabilizer.sol\":4100:4110  reserveOut */\n      dup11\n        /* \"contracts/stabilizer.sol\":4066:4078  getAmountOut */\n      tag_117\n        /* \"contracts/stabilizer.sol\":4066:4111  getAmountOut(amountIn, reserveIn, reserveOut) */\n      jump\t// in\n    tag_137:\n        /* \"contracts/stabilizer.sol\":4187:4191  usdc */\n      sload(0x67)\n        /* \"contracts/stabilizer.sol\":4046:4111  uint256 amountOut = getAmountOut(amountIn, reserveIn, reserveOut) */\n      swap1\n      swap2\n      pop\n        /* \"contracts/stabilizer.sol\":4127:4145  uint256 amount0Out */\n      0x00\n      swap1\n      dup2\n      swap1\n      sub(shl(0xa0, 0x01), 0x01)\n        /* \"contracts/stabilizer.sol\":4169:4192  token0 == address(usdc) */\n      dup14\n      dup2\n      and\n        /* \"contracts/stabilizer.sol\":4187:4191  usdc */\n      swap2\n      and\n        /* \"contracts/stabilizer.sol\":4169:4192  token0 == address(usdc) */\n      eq\n        /* \"contracts/stabilizer.sol\":4169:4276  token0 == address(usdc)... */\n      tag_138\n      jumpi\n        /* \"contracts/stabilizer.sol\":4254:4263  amountOut */\n      dup3\n        /* \"contracts/stabilizer.sol\":4273:4274  0 */\n      0x00\n        /* \"contracts/stabilizer.sol\":4169:4276  token0 == address(usdc)... */\n      jump(tag_139)\n    tag_138:\n        /* \"contracts/stabilizer.sol\":4220:4221  0 */\n      0x00\n        /* \"contracts/stabilizer.sol\":4224:4233  amountOut */\n      dup4\n        /* \"contracts/stabilizer.sol\":4169:4276  token0 == address(usdc)... */\n    tag_139:\n        /* \"contracts/stabilizer.sol\":4305:4323  usdc_usc_lpAddress */\n      sload(0x66)\n        /* \"contracts/stabilizer.sol\":4434:4446  new bytes(0) */\n      0x40\n      dup1\n      mload\n        /* \"contracts/stabilizer.sol\":4305:4323  usdc_usc_lpAddress */\n      0x00\n        /* \"contracts/stabilizer.sol\":4434:4446  new bytes(0) */\n      dup2\n      mstore\n      0x20\n      dup2\n      add\n      swap2\n      dup3\n      swap1\n      mstore\n      shl(0xe0, 0x022c0d9f)\n        /* \"contracts/stabilizer.sol\":4290:4460  IUniswapV2Pair(usdc_usc_lpAddress).swap(... */\n      swap1\n      swap2\n      mstore\n        /* \"contracts/stabilizer.sol\":4126:4276  (uint256 amount0Out, uint256 amount1Out) = token0 == address(usdc)... */\n      swap3\n      swap5\n      pop\n      swap1\n      swap3\n      pop\n      sub(shl(0xa0, 0x01), 0x01)\n        /* \"contracts/stabilizer.sol\":4305:4323  usdc_usc_lpAddress */\n      and\n      swap1\n        /* \"contracts/stabilizer.sol\":4290:4329  IUniswapV2Pair(usdc_usc_lpAddress).swap */\n      0x022c0d9f\n      swap1\n        /* \"contracts/stabilizer.sol\":4290:4460  IUniswapV2Pair(usdc_usc_lpAddress).swap(... */\n      tag_142\n      swap1\n        /* \"contracts/stabilizer.sol\":4126:4276  (uint256 amount0Out, uint256 amount1Out) = token0 == address(usdc)... */\n      dup6\n      swap1\n      dup6\n      swap1\n        /* \"contracts/stabilizer.sol\":4411:4415  this */\n      address\n      swap1\n        /* \"contracts/stabilizer.sol\":4290:4460  IUniswapV2Pair(usdc_usc_lpAddress).swap(... */\n      0x24\n      dup2\n      add\n      tag_123\n      jump\t// in\n    tag_142:\n      0x00\n      mload(0x40)\n      dup1\n      dup4\n      sub\n      dup2\n      0x00\n      dup8\n      dup1\n      extcodesize\n      iszero\n      dup1\n      iszero\n      tag_143\n      jumpi\n      0x00\n      dup1\n      revert\n    tag_143:\n      pop\n      gas\n      call\n      iszero\n      dup1\n      iszero\n      tag_145\n      jumpi\n      returndatasize\n      0x00\n      dup1\n      returndatacopy\n      revert(0x00, returndatasize)\n    tag_145:\n      pop\n      pop\n      pop\n      pop\n        /* \"contracts/stabilizer.sol\":3552:4471  if (price < 1e18) {... */\n      pop\n      pop\n      pop\n      pop\n      pop\n      pop\n    tag_127:\n        /* \"contracts/stabilizer.sol\":4487:4491  true */\n      0x01\n        /* \"contracts/stabilizer.sol\":4480:4491  return true */\n      swap9\n      pop\n      pop\n      pop\n      pop\n      pop\n      pop\n      pop\n      pop\n      pop\n        /* \"contracts/stabilizer.sol\":2030:4498  function goStabilizer() external onlyExecutor returns (bool) {... */\n      swap1\n      jump\t// out\n        /* \"contracts/stabilizer.sol\":899:932  address public usdc_usc_lpAddress */\n    tag_39:\n      and(sub(shl(0xa0, 0x01), 0x01), sload(0x66))\n      dup2\n      jump\t// out\n        /* \"@openzeppelin/contracts-upgradeable/access/OwnableUpgradeable.sol\":1302:1387  function owner() public view virtual returns (address) {... */\n    tag_42:\n        /* \"@openzeppelin/contracts-upgradeable/access/OwnableUpgradeable.sol\":1374:1380  _owner */\n      and(sub(shl(0xa0, 0x01), 0x01), sload(0x33))\n        /* \"@openzeppelin/contracts-upgradeable/access/OwnableUpgradeable.sol\":1302:1387  function owner() public view virtual returns (address) {... */\n      swap1\n      jump\t// out\n        /* \"contracts/stabilizer.sol\":4504:4719  function withdrawalERC20(address _address, uint256 _amt)... */\n    tag_47:\n        /* \"contracts/stabilizer.sol\":4613:4617  bool */\n      0x00\n        /* \"@openzeppelin/contracts-upgradeable/access/OwnableUpgradeable.sol\":1525:1537  _msgSender() */\n      tag_148\n        /* \"@openzeppelin/contracts-upgradeable/access/OwnableUpgradeable.sol\":1525:1535  _msgSender */\n      tag_58\n        /* \"@openzeppelin/contracts-upgradeable/access/OwnableUpgradeable.sol\":1525:1537  _msgSender() */\n      jump\t// in\n    tag_148:\n      sub(shl(0xa0, 0x01), 0x01)\n        /* \"@openzeppelin/contracts-upgradeable/access/OwnableUpgradeable.sol\":1514:1537  owner() == _msgSender() */\n      and\n        /* \"@openzeppelin/contracts-upgradeable/access/OwnableUpgradeable.sol\":1514:1521  owner() */\n      tag_149\n        /* \"@openzeppelin/contracts-upgradeable/access/OwnableUpgradeable.sol\":1514:1519  owner */\n      tag_42\n        /* \"@openzeppelin/contracts-upgradeable/access/OwnableUpgradeable.sol\":1514:1521  owner() */\n      jump\t// in\n    tag_149:\n      sub(shl(0xa0, 0x01), 0x01)\n        /* \"@openzeppelin/contracts-upgradeable/access/OwnableUpgradeable.sol\":1514:1537  owner() == _msgSender() */\n      and\n      eq\n        /* \"@openzeppelin/contracts-upgradeable/access/OwnableUpgradeable.sol\":1506:1574  require(owner() == _msgSender(), \"Ownable: caller is not the owner\") */\n      tag_150\n      jumpi\n      mload(0x40)\n      shl(0xe5, 0x461bcd)\n      dup2\n      mstore\n      0x04\n      add\n      tag_61\n      swap1\n      tag_62\n      jump\t// in\n    tag_150:\n        /* \"contracts/stabilizer.sol\":4633:4691  IERC20Upgradeable(_address).safeTransfer(msg.sender, _amt) */\n      tag_153\n      sub(shl(0xa0, 0x01), 0x01)\n        /* \"contracts/stabilizer.sol\":4633:4673  IERC20Upgradeable(_address).safeTransfer */\n      dup5\n      and\n        /* \"contracts/stabilizer.sol\":4674:4684  msg.sender */\n      caller\n        /* \"contracts/stabilizer.sol\":4686:4690  _amt */\n      dup5\n        /* \"contracts/stabilizer.sol\":4633:4673  IERC20Upgradeable(_address).safeTransfer */\n      tag_115\n        /* \"contracts/stabilizer.sol\":4633:4691  IERC20Upgradeable(_address).safeTransfer(msg.sender, _amt) */\n      jump\t// in\n    tag_153:\n      pop\n        /* \"contracts/stabilizer.sol\":4708:4712  true */\n      0x01\n        /* \"contracts/stabilizer.sol\":4504:4719  function withdrawalERC20(address _address, uint256 _amt)... */\n      swap3\n      swap2\n      pop\n      pop\n      jump\t// out\n        /* \"contracts/stabilizer.sol\":1385:1714  function initialize(... */\n    tag_52:\n        /* \"@openzeppelin/contracts-upgradeable/proxy/utils/Initializable.sol\":539:552  _initializing */\n      sload(0x00)\n      0x0100\n      swap1\n      div\n      0xff\n      and\n      dup1\n        /* \"@openzeppelin/contracts-upgradeable/proxy/utils/Initializable.sol\":539:569  _initializing || !_initialized */\n      tag_155\n      jumpi\n      pop\n        /* \"@openzeppelin/contracts-upgradeable/proxy/utils/Initializable.sol\":557:569  _initialized */\n      and(0xff, sload(0x00))\n        /* \"@openzeppelin/contracts-upgradeable/proxy/utils/Initializable.sol\":556:569  !_initialized */\n      iszero\n        /* \"@openzeppelin/contracts-upgradeable/proxy/utils/Initializable.sol\":539:569  _initializing || !_initialized */\n    tag_155:\n        /* \"@openzeppelin/contracts-upgradeable/proxy/utils/Initializable.sol\":531:620  require(_initializing || !_initialized, \"Initializable: contract is already initialized\") */\n      tag_156\n      jumpi\n      mload(0x40)\n      shl(0xe5, 0x461bcd)\n      dup2\n      mstore\n      0x04\n      add\n      tag_61\n      swap1\n      tag_158\n      jump\t// in\n    tag_156:\n        /* \"@openzeppelin/contracts-upgradeable/proxy/utils/Initializable.sol\":631:650  bool isTopLevelCall */\n      0x00\n        /* \"@openzeppelin/contracts-upgradeable/proxy/utils/Initializable.sol\":654:667  _initializing */\n      sload\n      0x0100\n      swap1\n      div\n      0xff\n      and\n        /* \"@openzeppelin/contracts-upgradeable/proxy/utils/Initializable.sol\":653:667  !_initializing */\n      iszero\n        /* \"@openzeppelin/contracts-upgradeable/proxy/utils/Initializable.sol\":677:775  if (isTopLevelCall) {... */\n      dup1\n      iszero\n      tag_159\n      jumpi\n        /* \"@openzeppelin/contracts-upgradeable/proxy/utils/Initializable.sol\":711:724  _initializing */\n      0x00\n        /* \"@openzeppelin/contracts-upgradeable/proxy/utils/Initializable.sol\":711:731  _initializing = true */\n      dup1\n      sload\n      not(0xff)\n      not(0xff00)\n      swap1\n      swap2\n      and\n      0x0100\n      or\n        /* \"@openzeppelin/contracts-upgradeable/proxy/utils/Initializable.sol\":745:764  _initialized = true */\n      and\n        /* \"@openzeppelin/contracts-upgradeable/proxy/utils/Initializable.sol\":727:731  true */\n      0x01\n        /* \"@openzeppelin/contracts-upgradeable/proxy/utils/Initializable.sol\":745:764  _initialized = true */\n      or\n      swap1\n      sstore\n        /* \"@openzeppelin/contracts-upgradeable/proxy/utils/Initializable.sol\":677:775  if (isTopLevelCall) {... */\n    tag_159:\n        /* \"contracts/stabilizer.sol\":1557:1573  __Ownable_init() */\n      tag_161\n        /* \"contracts/stabilizer.sol\":1557:1571  __Ownable_init */\n      tag_162\n        /* \"contracts/stabilizer.sol\":1557:1573  __Ownable_init() */\n      jump\t// in\n    tag_161:\n        /* \"contracts/stabilizer.sol\":1625:1643  usdc_usc_lpAddress */\n      0x66\n        /* \"contracts/stabilizer.sol\":1625:1665  usdc_usc_lpAddress = _usdc_usc_lpAddress */\n      dup1\n      sload\n      sub(shl(0xa0, 0x01), 0x01)\n      dup1\n      dup8\n      and\n      not(sub(shl(0xa0, 0x01), 0x01))\n      swap3\n      dup4\n      and\n      or\n      swap1\n      swap3\n      sstore\n        /* \"contracts/stabilizer.sol\":1675:1679  usdc */\n      0x67\n        /* \"contracts/stabilizer.sol\":1675:1687  usdc = _usdc */\n      dup1\n      sload\n      dup7\n      dup5\n      and\n      swap1\n      dup4\n      and\n      or\n      swap1\n      sstore\n        /* \"contracts/stabilizer.sol\":1697:1700  usc */\n      0x68\n        /* \"contracts/stabilizer.sol\":1697:1707  usc = _usc */\n      dup1\n      sload\n      swap3\n      dup6\n      and\n      swap3\n      swap1\n      swap2\n      and\n      swap2\n      swap1\n      swap2\n      or\n      swap1\n      sstore\n        /* \"@openzeppelin/contracts-upgradeable/proxy/utils/Initializable.sol\":797:863  if (isTopLevelCall) {... */\n      dup1\n      iszero\n      tag_163\n      jumpi\n        /* \"@openzeppelin/contracts-upgradeable/proxy/utils/Initializable.sol\":847:852  false */\n      0x00\n        /* \"@openzeppelin/contracts-upgradeable/proxy/utils/Initializable.sol\":831:852  _initializing = false */\n      dup1\n      sload\n      not(0xff00)\n      and\n      swap1\n      sstore\n        /* \"@openzeppelin/contracts-upgradeable/proxy/utils/Initializable.sol\":797:863  if (isTopLevelCall) {... */\n    tag_163:\n        /* \"contracts/stabilizer.sol\":1385:1714  function initialize(... */\n      pop\n      pop\n      pop\n      pop\n      jump\t// out\n        /* \"@openzeppelin/contracts-upgradeable/access/OwnableUpgradeable.sol\":2184:2382  function transferOwnership(address newOwner) public virtual onlyOwner {... */\n    tag_55:\n        /* \"@openzeppelin/contracts-upgradeable/access/OwnableUpgradeable.sol\":1525:1537  _msgSender() */\n      tag_165\n        /* \"@openzeppelin/contracts-upgradeable/access/OwnableUpgradeable.sol\":1525:1535  _msgSender */\n      tag_58\n        /* \"@openzeppelin/contracts-upgradeable/access/OwnableUpgradeable.sol\":1525:1537  _msgSender() */\n      jump\t// in\n    tag_165:\n      sub(shl(0xa0, 0x01), 0x01)\n        /* \"@openzeppelin/contracts-upgradeable/access/OwnableUpgradeable.sol\":1514:1537  owner() == _msgSender() */\n      and\n        /* \"@openzeppelin/contracts-upgradeable/access/OwnableUpgradeable.sol\":1514:1521  owner() */\n      tag_166\n        /* \"@openzeppelin/contracts-upgradeable/access/OwnableUpgradeable.sol\":1514:1519  owner */\n      tag_42\n        /* \"@openzeppelin/contracts-upgradeable/access/OwnableUpgradeable.sol\":1514:1521  owner() */\n      jump\t// in\n    tag_166:\n      sub(shl(0xa0, 0x01), 0x01)\n        /* \"@openzeppelin/contracts-upgradeable/access/OwnableUpgradeable.sol\":1514:1537  owner() == _msgSender() */\n      and\n      eq\n        /* \"@openzeppelin/contracts-upgradeable/access/OwnableUpgradeable.sol\":1506:1574  require(owner() == _msgSender(), \"Ownable: caller is not the owner\") */\n      tag_167\n      jumpi\n      mload(0x40)\n      shl(0xe5, 0x461bcd)\n      dup2\n      mstore\n      0x04\n      add\n      tag_61\n      swap1\n      tag_62\n      jump\t// in\n    tag_167:\n      sub(shl(0xa0, 0x01), 0x01)\n        /* \"@openzeppelin/contracts-upgradeable/access/OwnableUpgradeable.sol\":2272:2294  newOwner != address(0) */\n      dup2\n      and\n        /* \"@openzeppelin/contracts-upgradeable/access/OwnableUpgradeable.sol\":2264:2337  require(newOwner != address(0), \"Ownable: new owner is the zero address\") */\n      tag_170\n      jumpi\n      mload(0x40)\n      shl(0xe5, 0x461bcd)\n      dup2\n      mstore\n      0x04\n      add\n      tag_61\n      swap1\n      tag_172\n      jump\t// in\n    tag_170:\n        /* \"@openzeppelin/contracts-upgradeable/access/OwnableUpgradeable.sol\":2347:2375  _transferOwnership(newOwner) */\n      tag_173\n        /* \"@openzeppelin/contracts-upgradeable/access/OwnableUpgradeable.sol\":2366:2374  newOwner */\n      dup2\n        /* \"@openzeppelin/contracts-upgradeable/access/OwnableUpgradeable.sol\":2347:2365  _transferOwnership */\n      tag_71\n        /* \"@openzeppelin/contracts-upgradeable/access/OwnableUpgradeable.sol\":2347:2375  _transferOwnership(newOwner) */\n      jump\t// in\n    tag_173:\n        /* \"@openzeppelin/contracts-upgradeable/access/OwnableUpgradeable.sol\":2184:2382  function transferOwnership(address newOwner) public virtual onlyOwner {... */\n      pop\n      jump\t// out\n        /* \"@openzeppelin/contracts-upgradeable/utils/ContextUpgradeable.sol\":876:972  function _msgSender() internal view virtual returns (address) {... */\n    tag_58:\n        /* \"@openzeppelin/contracts-upgradeable/utils/ContextUpgradeable.sol\":955:965  msg.sender */\n      caller\n        /* \"@openzeppelin/contracts-upgradeable/utils/ContextUpgradeable.sol\":876:972  function _msgSender() internal view virtual returns (address) {... */\n      swap1\n      jump\t// out\n        /* \"@openzeppelin/contracts-upgradeable/access/OwnableUpgradeable.sol\":2536:2723  function _transferOwnership(address newOwner) internal virtual {... */\n    tag_71:\n        /* \"@openzeppelin/contracts-upgradeable/access/OwnableUpgradeable.sol\":2628:2634  _owner */\n      0x33\n      dup1\n      sload\n      sub(shl(0xa0, 0x01), 0x01)\n        /* \"@openzeppelin/contracts-upgradeable/access/OwnableUpgradeable.sol\":2644:2661  _owner = newOwner */\n      dup4\n      dup2\n      and\n      not(sub(shl(0xa0, 0x01), 0x01))\n      dup4\n      and\n      dup2\n      or\n      swap1\n      swap4\n      sstore\n        /* \"@openzeppelin/contracts-upgradeable/access/OwnableUpgradeable.sol\":2676:2716  OwnershipTransferred(oldOwner, newOwner) */\n      mload(0x40)\n        /* \"@openzeppelin/contracts-upgradeable/access/OwnableUpgradeable.sol\":2628:2634  _owner */\n      swap2\n      and\n      swap2\n        /* \"@openzeppelin/contracts-upgradeable/access/OwnableUpgradeable.sol\":2644:2661  _owner = newOwner */\n      swap1\n        /* \"@openzeppelin/contracts-upgradeable/access/OwnableUpgradeable.sol\":2628:2634  _owner */\n      dup3\n      swap1\n        /* \"@openzeppelin/contracts-upgradeable/access/OwnableUpgradeable.sol\":2676:2716  OwnershipTransferred(oldOwner, newOwner) */\n      0x8be0079c531659141344cd1fd0a4f28419497f9722a3daafe3b4186f6b6457e0\n      swap1\n        /* \"@openzeppelin/contracts-upgradeable/access/OwnableUpgradeable.sol\":2609:2625  address oldOwner */\n      0x00\n      swap1\n        /* \"@openzeppelin/contracts-upgradeable/access/OwnableUpgradeable.sol\":2676:2716  OwnershipTransferred(oldOwner, newOwner) */\n      log3\n        /* \"@openzeppelin/contracts-upgradeable/access/OwnableUpgradeable.sol\":2536:2723  function _transferOwnership(address newOwner) internal virtual {... */\n      pop\n      pop\n      jump\t// out\n        /* \"@openzeppelin/contracts-upgradeable/utils/math/SafeMathUpgradeable.sol\":3462:3558  function mul(uint256 a, uint256 b) internal pure returns (uint256) {... */\n    tag_102:\n        /* \"@openzeppelin/contracts-upgradeable/utils/math/SafeMathUpgradeable.sol\":3520:3527  uint256 */\n      0x00\n        /* \"@openzeppelin/contracts-upgradeable/utils/math/SafeMathUpgradeable.sol\":3546:3551  a * b */\n      tag_177\n        /* \"@openzeppelin/contracts-upgradeable/utils/math/SafeMathUpgradeable.sol\":3550:3551  b */\n      dup3\n        /* \"@openzeppelin/contracts-upgradeable/utils/math/SafeMathUpgradeable.sol\":3546:3547  a */\n      dup5\n        /* \"@openzeppelin/contracts-upgradeable/utils/math/SafeMathUpgradeable.sol\":3546:3551  a * b */\n      tag_178\n      jump\t// in\n    tag_177:\n        /* \"@openzeppelin/contracts-upgradeable/utils/math/SafeMathUpgradeable.sol\":3539:3551  return a * b */\n      swap4\n        /* \"@openzeppelin/contracts-upgradeable/utils/math/SafeMathUpgradeable.sol\":3462:3558  function mul(uint256 a, uint256 b) internal pure returns (uint256) {... */\n      swap3\n      pop\n      pop\n      pop\n      jump\t// out\n        /* \"@openzeppelin/contracts-upgradeable/utils/math/SafeMathUpgradeable.sol\":3847:3943  function div(uint256 a, uint256 b) internal pure returns (uint256) {... */\n    tag_103:\n        /* \"@openzeppelin/contracts-upgradeable/utils/math/SafeMathUpgradeable.sol\":3905:3912  uint256 */\n      0x00\n        /* \"@openzeppelin/contracts-upgradeable/utils/math/SafeMathUpgradeable.sol\":3931:3936  a / b */\n      tag_177\n        /* \"@openzeppelin/contracts-upgradeable/utils/math/SafeMathUpgradeable.sol\":3935:3936  b */\n      dup3\n        /* \"@openzeppelin/contracts-upgradeable/utils/math/SafeMathUpgradeable.sol\":3931:3932  a */\n      dup5\n        /* \"@openzeppelin/contracts-upgradeable/utils/math/SafeMathUpgradeable.sol\":3931:3936  a / b */\n      tag_181\n      jump\t// in\n        /* \"@openzeppelin/contracts-upgradeable/utils/math/SafeMathUpgradeable.sol\":3119:3215  function sub(uint256 a, uint256 b) internal pure returns (uint256) {... */\n    tag_106:\n        /* \"@openzeppelin/contracts-upgradeable/utils/math/SafeMathUpgradeable.sol\":3177:3184  uint256 */\n      0x00\n        /* \"@openzeppelin/contracts-upgradeable/utils/math/SafeMathUpgradeable.sol\":3203:3208  a - b */\n      tag_177\n        /* \"@openzeppelin/contracts-upgradeable/utils/math/SafeMathUpgradeable.sol\":3207:3208  b */\n      dup3\n        /* \"@openzeppelin/contracts-upgradeable/utils/math/SafeMathUpgradeable.sol\":3203:3204  a */\n      dup5\n        /* \"@openzeppelin/contracts-upgradeable/utils/math/SafeMathUpgradeable.sol\":3203:3208  a - b */\n      tag_184\n      jump\t// in\n        /* \"@openzeppelin/contracts-upgradeable/token/ERC20/utils/SafeERC20Upgradeable.sol\":745:961  function safeTransfer(... */\n    tag_115:\n        /* \"@openzeppelin/contracts-upgradeable/token/ERC20/utils/SafeERC20Upgradeable.sol\":868:954  _callOptionalReturn(token, abi.encodeWithSelector(token.transfer.selector, to, value)) */\n      tag_186\n        /* \"@openzeppelin/contracts-upgradeable/token/ERC20/utils/SafeERC20Upgradeable.sol\":888:893  token */\n      dup4\n        /* \"@openzeppelin/contracts-upgradeable/token/ERC20/utils/SafeERC20Upgradeable.sol\":918:941  token.transfer.selector */\n      shl(0xe0, 0xa9059cbb)\n        /* \"@openzeppelin/contracts-upgradeable/token/ERC20/utils/SafeERC20Upgradeable.sol\":943:945  to */\n      dup5\n        /* \"@openzeppelin/contracts-upgradeable/token/ERC20/utils/SafeERC20Upgradeable.sol\":947:952  value */\n      dup5\n        /* \"@openzeppelin/contracts-upgradeable/token/ERC20/utils/SafeERC20Upgradeable.sol\":895:953  abi.encodeWithSelector(token.transfer.selector, to, value) */\n      add(0x24, mload(0x40))\n      tag_187\n      swap3\n      swap2\n      swap1\n      tag_108\n      jump\t// in\n    tag_187:\n      0x40\n      dup1\n      mload\n      not(0x1f)\n      dup2\n      dup5\n      sub\n      add\n      dup2\n      mstore\n      swap2\n      swap1\n      mstore\n      0x20\n      dup2\n      add\n      dup1\n      mload\n      sub(shl(0xe0, 0x01), 0x01)\n      and\n      not(sub(shl(0xe0, 0x01), 0x01))\n      swap1\n      swap4\n      and\n      swap3\n      swap1\n      swap3\n      or\n      swap1\n      swap2\n      mstore\n        /* \"@openzeppelin/contracts-upgradeable/token/ERC20/utils/SafeERC20Upgradeable.sol\":868:887  _callOptionalReturn */\n      tag_188\n        /* \"@openzeppelin/contracts-upgradeable/token/ERC20/utils/SafeERC20Upgradeable.sol\":868:954  _callOptionalReturn(token, abi.encodeWithSelector(token.transfer.selector, to, value)) */\n      jump\t// in\n    tag_186:\n        /* \"@openzeppelin/contracts-upgradeable/token/ERC20/utils/SafeERC20Upgradeable.sol\":745:961  function safeTransfer(... */\n      pop\n      pop\n      pop\n      jump\t// out\n        /* \"contracts/stabilizer.sol\":988:1379  function getAmountOut(... */\n    tag_117:\n        /* \"contracts/stabilizer.sol\":1120:1137  uint256 amountOut */\n      0x00\n      dup1\n        /* \"contracts/stabilizer.sol\":1175:1193  amountIn.mul(9970) */\n      tag_190\n        /* \"contracts/stabilizer.sol\":1175:1183  amountIn */\n      dup6\n        /* \"contracts/stabilizer.sol\":1188:1192  9970 */\n      0x26f2\n        /* \"contracts/stabilizer.sol\":1175:1187  amountIn.mul */\n      tag_102\n        /* \"contracts/stabilizer.sol\":1175:1193  amountIn.mul(9970) */\n      jump\t// in\n    tag_190:\n        /* \"contracts/stabilizer.sol\":1149:1193  uint256 amountInWithFee = amountIn.mul(9970) */\n      swap1\n      pop\n        /* \"contracts/stabilizer.sol\":1203:1220  uint256 numerator */\n      0x00\n        /* \"contracts/stabilizer.sol\":1223:1254  amountInWithFee.mul(reserveOut) */\n      tag_191\n        /* \"contracts/stabilizer.sol\":1149:1193  uint256 amountInWithFee = amountIn.mul(9970) */\n      dup3\n        /* \"contracts/stabilizer.sol\":1243:1253  reserveOut */\n      dup6\n        /* \"contracts/stabilizer.sol\":1223:1242  amountInWithFee.mul */\n      tag_102\n        /* \"contracts/stabilizer.sol\":1223:1254  amountInWithFee.mul(reserveOut) */\n      jump\t// in\n    tag_191:\n        /* \"contracts/stabilizer.sol\":1203:1254  uint256 numerator = amountInWithFee.mul(reserveOut) */\n      swap1\n      pop\n        /* \"contracts/stabilizer.sol\":1264:1283  uint256 denominator */\n      0x00\n        /* \"contracts/stabilizer.sol\":1286:1327  reserveIn.mul(10000).add(amountInWithFee) */\n      tag_192\n        /* \"contracts/stabilizer.sol\":1311:1326  amountInWithFee */\n      dup4\n        /* \"contracts/stabilizer.sol\":1286:1306  reserveIn.mul(10000) */\n      tag_193\n        /* \"contracts/stabilizer.sol\":1286:1295  reserveIn */\n      dup9\n        /* \"contracts/stabilizer.sol\":1300:1305  10000 */\n      0x2710\n        /* \"contracts/stabilizer.sol\":1286:1299  reserveIn.mul */\n      tag_102\n        /* \"contracts/stabilizer.sol\":1286:1306  reserveIn.mul(10000) */\n      jump\t// in\n    tag_193:\n        /* \"contracts/stabilizer.sol\":1286:1310  reserveIn.mul(10000).add */\n      swap1\n      tag_194\n        /* \"contracts/stabilizer.sol\":1286:1327  reserveIn.mul(10000).add(amountInWithFee) */\n      jump\t// in\n    tag_192:\n        /* \"contracts/stabilizer.sol\":1264:1327  uint256 denominator = reserveIn.mul(10000).add(amountInWithFee) */\n      swap1\n      pop\n        /* \"contracts/stabilizer.sol\":1349:1372  numerator / denominator */\n      tag_195\n        /* \"contracts/stabilizer.sol\":1264:1327  uint256 denominator = reserveIn.mul(10000).add(amountInWithFee) */\n      dup2\n        /* \"contracts/stabilizer.sol\":1349:1358  numerator */\n      dup4\n        /* \"contracts/stabilizer.sol\":1349:1372  numerator / denominator */\n      tag_181\n      jump\t// in\n    tag_195:\n        /* \"contracts/stabilizer.sol\":1337:1372  amountOut = numerator / denominator */\n      swap8\n        /* \"contracts/stabilizer.sol\":988:1379  function getAmountOut(... */\n      swap7\n      pop\n      pop\n      pop\n      pop\n      pop\n      pop\n      pop\n      jump\t// out\n        /* \"@openzeppelin/contracts-upgradeable/access/OwnableUpgradeable.sol\":988:1114  function __Ownable_init() internal initializer {... */\n    tag_162:\n        /* \"@openzeppelin/contracts-upgradeable/proxy/utils/Initializable.sol\":539:552  _initializing */\n      sload(0x00)\n      0x0100\n      swap1\n      div\n      0xff\n      and\n      dup1\n        /* \"@openzeppelin/contracts-upgradeable/proxy/utils/Initializable.sol\":539:569  _initializing || !_initialized */\n      tag_197\n      jumpi\n      pop\n        /* \"@openzeppelin/contracts-upgradeable/proxy/utils/Initializable.sol\":557:569  _initialized */\n      and(0xff, sload(0x00))\n        /* \"@openzeppelin/contracts-upgradeable/proxy/utils/Initializable.sol\":556:569  !_initialized */\n      iszero\n        /* \"@openzeppelin/contracts-upgradeable/proxy/utils/Initializable.sol\":539:569  _initializing || !_initialized */\n    tag_197:\n        /* \"@openzeppelin/contracts-upgradeable/proxy/utils/Initializable.sol\":531:620  require(_initializing || !_initialized, \"Initializable: contract is already initialized\") */\n      tag_198\n      jumpi\n      mload(0x40)\n      shl(0xe5, 0x461bcd)\n      dup2\n      mstore\n      0x04\n      add\n      tag_61\n      swap1\n      tag_158\n      jump\t// in\n    tag_198:\n        /* \"@openzeppelin/contracts-upgradeable/proxy/utils/Initializable.sol\":631:650  bool isTopLevelCall */\n      0x00\n        /* \"@openzeppelin/contracts-upgradeable/proxy/utils/Initializable.sol\":654:667  _initializing */\n      sload\n      0x0100\n      swap1\n      div\n      0xff\n      and\n        /* \"@openzeppelin/contracts-upgradeable/proxy/utils/Initializable.sol\":653:667  !_initializing */\n      iszero\n        /* \"@openzeppelin/contracts-upgradeable/proxy/utils/Initializable.sol\":677:775  if (isTopLevelCall) {... */\n      dup1\n      iszero\n      tag_200\n      jumpi\n        /* \"@openzeppelin/contracts-upgradeable/proxy/utils/Initializable.sol\":711:724  _initializing */\n      0x00\n        /* \"@openzeppelin/contracts-upgradeable/proxy/utils/Initializable.sol\":711:731  _initializing = true */\n      dup1\n      sload\n      not(0xff)\n      not(0xff00)\n      swap1\n      swap2\n      and\n      0x0100\n      or\n        /* \"@openzeppelin/contracts-upgradeable/proxy/utils/Initializable.sol\":745:764  _initialized = true */\n      and\n        /* \"@openzeppelin/contracts-upgradeable/proxy/utils/Initializable.sol\":727:731  true */\n      0x01\n        /* \"@openzeppelin/contracts-upgradeable/proxy/utils/Initializable.sol\":745:764  _initialized = true */\n      or\n      swap1\n      sstore\n        /* \"@openzeppelin/contracts-upgradeable/proxy/utils/Initializable.sol\":677:775  if (isTopLevelCall) {... */\n    tag_200:\n        /* \"@openzeppelin/contracts-upgradeable/access/OwnableUpgradeable.sol\":1045:1071  __Context_init_unchained() */\n      tag_202\n        /* \"@openzeppelin/contracts-upgradeable/access/OwnableUpgradeable.sol\":1045:1069  __Context_init_unchained */\n      tag_203\n        /* \"@openzeppelin/contracts-upgradeable/access/OwnableUpgradeable.sol\":1045:1071  __Context_init_unchained() */\n      jump\t// in\n    tag_202:\n        /* \"@openzeppelin/contracts-upgradeable/access/OwnableUpgradeable.sol\":1081:1107  __Ownable_init_unchained() */\n      tag_204\n        /* \"@openzeppelin/contracts-upgradeable/access/OwnableUpgradeable.sol\":1081:1105  __Ownable_init_unchained */\n      tag_205\n        /* \"@openzeppelin/contracts-upgradeable/access/OwnableUpgradeable.sol\":1081:1107  __Ownable_init_unchained() */\n      jump\t// in\n    tag_204:\n        /* \"@openzeppelin/contracts-upgradeable/proxy/utils/Initializable.sol\":801:815  isTopLevelCall */\n      dup1\n        /* \"@openzeppelin/contracts-upgradeable/proxy/utils/Initializable.sol\":797:863  if (isTopLevelCall) {... */\n      iszero\n      tag_173\n      jumpi\n        /* \"@openzeppelin/contracts-upgradeable/proxy/utils/Initializable.sol\":847:852  false */\n      0x00\n        /* \"@openzeppelin/contracts-upgradeable/proxy/utils/Initializable.sol\":831:852  _initializing = false */\n      dup1\n      sload\n      not(0xff00)\n      and\n      swap1\n      sstore\n        /* \"@openzeppelin/contracts-upgradeable/access/OwnableUpgradeable.sol\":988:1114  function __Ownable_init() internal initializer {... */\n      pop\n      jump\t// out\n        /* \"@openzeppelin/contracts-upgradeable/token/ERC20/utils/SafeERC20Upgradeable.sol\":3306:4023  function _callOptionalReturn(IERC20Upgradeable token, bytes memory data) private {... */\n    tag_188:\n        /* \"@openzeppelin/contracts-upgradeable/token/ERC20/utils/SafeERC20Upgradeable.sol\":3736:3759  bytes memory returndata */\n      0x00\n        /* \"@openzeppelin/contracts-upgradeable/token/ERC20/utils/SafeERC20Upgradeable.sol\":3762:3831  address(token).functionCall(data, \"SafeERC20: low-level call failed\") */\n      tag_208\n        /* \"@openzeppelin/contracts-upgradeable/token/ERC20/utils/SafeERC20Upgradeable.sol\":3790:3794  data */\n      dup3\n        /* \"@openzeppelin/contracts-upgradeable/token/ERC20/utils/SafeERC20Upgradeable.sol\":3762:3831  address(token).functionCall(data, \"SafeERC20: low-level call failed\") */\n      mload(0x40)\n      dup1\n      0x40\n      add\n      0x40\n      mstore\n      dup1\n      0x20\n      dup2\n      mstore\n      0x20\n      add\n      0x5361666545524332303a206c6f772d6c6576656c2063616c6c206661696c6564\n      dup2\n      mstore\n      pop\n        /* \"@openzeppelin/contracts-upgradeable/token/ERC20/utils/SafeERC20Upgradeable.sol\":3770:3775  token */\n      dup6\n      sub(shl(0xa0, 0x01), 0x01)\n        /* \"@openzeppelin/contracts-upgradeable/token/ERC20/utils/SafeERC20Upgradeable.sol\":3762:3789  address(token).functionCall */\n      and\n      tag_209\n      swap1\n        /* \"@openzeppelin/contracts-upgradeable/token/ERC20/utils/SafeERC20Upgradeable.sol\":3762:3831  address(token).functionCall(data, \"SafeERC20: low-level call failed\") */\n      swap3\n      swap2\n      swap1\n      0xffffffff\n      and\n      jump\t// in\n    tag_208:\n        /* \"@openzeppelin/contracts-upgradeable/token/ERC20/utils/SafeERC20Upgradeable.sol\":3845:3862  returndata.length */\n      dup1\n      mload\n        /* \"@openzeppelin/contracts-upgradeable/token/ERC20/utils/SafeERC20Upgradeable.sol\":3736:3831  bytes memory returndata = address(token).functionCall(data, \"SafeERC20: low-level call failed\") */\n      swap1\n      swap2\n      pop\n        /* \"@openzeppelin/contracts-upgradeable/token/ERC20/utils/SafeERC20Upgradeable.sol\":3845:3866  returndata.length > 0 */\n      iszero\n        /* \"@openzeppelin/contracts-upgradeable/token/ERC20/utils/SafeERC20Upgradeable.sol\":3841:4017  if (returndata.length > 0) {... */\n      tag_186\n      jumpi\n        /* \"@openzeppelin/contracts-upgradeable/token/ERC20/utils/SafeERC20Upgradeable.sol\":3940:3950  returndata */\n      dup1\n        /* \"@openzeppelin/contracts-upgradeable/token/ERC20/utils/SafeERC20Upgradeable.sol\":3929:3959  abi.decode(returndata, (bool)) */\n      dup1\n      0x20\n      add\n      swap1\n      mload\n      dup2\n      add\n      swap1\n      tag_211\n      swap2\n      swap1\n      tag_113\n      jump\t// in\n    tag_211:\n        /* \"@openzeppelin/contracts-upgradeable/token/ERC20/utils/SafeERC20Upgradeable.sol\":3921:4006  require(abi.decode(returndata, (bool)), \"SafeERC20: ERC20 operation did not succeed\") */\n      tag_186\n      jumpi\n      mload(0x40)\n      shl(0xe5, 0x461bcd)\n      dup2\n      mstore\n      0x04\n      add\n      tag_61\n      swap1\n      tag_214\n      jump\t// in\n        /* \"@openzeppelin/contracts-upgradeable/utils/math/SafeMathUpgradeable.sol\":2752:2848  function add(uint256 a, uint256 b) internal pure returns (uint256) {... */\n    tag_194:\n        /* \"@openzeppelin/contracts-upgradeable/utils/math/SafeMathUpgradeable.sol\":2810:2817  uint256 */\n      0x00\n        /* \"@openzeppelin/contracts-upgradeable/utils/math/SafeMathUpgradeable.sol\":2836:2841  a + b */\n      tag_177\n        /* \"@openzeppelin/contracts-upgradeable/utils/math/SafeMathUpgradeable.sol\":2840:2841  b */\n      dup3\n        /* \"@openzeppelin/contracts-upgradeable/utils/math/SafeMathUpgradeable.sol\":2836:2837  a */\n      dup5\n        /* \"@openzeppelin/contracts-upgradeable/utils/math/SafeMathUpgradeable.sol\":2836:2841  a + b */\n      tag_217\n      jump\t// in\n        /* \"@openzeppelin/contracts-upgradeable/utils/ContextUpgradeable.sol\":807:871  function __Context_init_unchained() internal initializer {... */\n    tag_203:\n        /* \"@openzeppelin/contracts-upgradeable/proxy/utils/Initializable.sol\":539:552  _initializing */\n      sload(0x00)\n      0x0100\n      swap1\n      div\n      0xff\n      and\n      dup1\n        /* \"@openzeppelin/contracts-upgradeable/proxy/utils/Initializable.sol\":539:569  _initializing || !_initialized */\n      tag_219\n      jumpi\n      pop\n        /* \"@openzeppelin/contracts-upgradeable/proxy/utils/Initializable.sol\":557:569  _initialized */\n      and(0xff, sload(0x00))\n        /* \"@openzeppelin/contracts-upgradeable/proxy/utils/Initializable.sol\":556:569  !_initialized */\n      iszero\n        /* \"@openzeppelin/contracts-upgradeable/proxy/utils/Initializable.sol\":539:569  _initializing || !_initialized */\n    tag_219:\n        /* \"@openzeppelin/contracts-upgradeable/proxy/utils/Initializable.sol\":531:620  require(_initializing || !_initialized, \"Initializable: contract is already initialized\") */\n      tag_220\n      jumpi\n      mload(0x40)\n      shl(0xe5, 0x461bcd)\n      dup2\n      mstore\n      0x04\n      add\n      tag_61\n      swap1\n      tag_158\n      jump\t// in\n    tag_220:\n        /* \"@openzeppelin/contracts-upgradeable/proxy/utils/Initializable.sol\":631:650  bool isTopLevelCall */\n      0x00\n        /* \"@openzeppelin/contracts-upgradeable/proxy/utils/Initializable.sol\":654:667  _initializing */\n      sload\n      0x0100\n      swap1\n      div\n      0xff\n      and\n        /* \"@openzeppelin/contracts-upgradeable/proxy/utils/Initializable.sol\":653:667  !_initializing */\n      iszero\n        /* \"@openzeppelin/contracts-upgradeable/proxy/utils/Initializable.sol\":677:775  if (isTopLevelCall) {... */\n      dup1\n      iszero\n      tag_204\n      jumpi\n        /* \"@openzeppelin/contracts-upgradeable/proxy/utils/Initializable.sol\":711:724  _initializing */\n      0x00\n        /* \"@openzeppelin/contracts-upgradeable/proxy/utils/Initializable.sol\":711:731  _initializing = true */\n      dup1\n      sload\n      not(0xff)\n      not(0xff00)\n      swap1\n      swap2\n      and\n      0x0100\n      or\n        /* \"@openzeppelin/contracts-upgradeable/proxy/utils/Initializable.sol\":745:764  _initialized = true */\n      and\n        /* \"@openzeppelin/contracts-upgradeable/proxy/utils/Initializable.sol\":727:731  true */\n      0x01\n        /* \"@openzeppelin/contracts-upgradeable/proxy/utils/Initializable.sol\":745:764  _initialized = true */\n      or\n      swap1\n      sstore\n        /* \"@openzeppelin/contracts-upgradeable/proxy/utils/Initializable.sol\":801:815  isTopLevelCall */\n      dup1\n        /* \"@openzeppelin/contracts-upgradeable/proxy/utils/Initializable.sol\":797:863  if (isTopLevelCall) {... */\n      iszero\n      tag_173\n      jumpi\n        /* \"@openzeppelin/contracts-upgradeable/proxy/utils/Initializable.sol\":847:852  false */\n      0x00\n        /* \"@openzeppelin/contracts-upgradeable/proxy/utils/Initializable.sol\":831:852  _initializing = false */\n      dup1\n      sload\n      not(0xff00)\n      and\n      swap1\n      sstore\n        /* \"@openzeppelin/contracts-upgradeable/utils/ContextUpgradeable.sol\":807:871  function __Context_init_unchained() internal initializer {... */\n      pop\n      jump\t// out\n        /* \"@openzeppelin/contracts-upgradeable/access/OwnableUpgradeable.sol\":1120:1226  function __Ownable_init_unchained() internal initializer {... */\n    tag_205:\n        /* \"@openzeppelin/contracts-upgradeable/proxy/utils/Initializable.sol\":539:552  _initializing */\n      sload(0x00)\n      0x0100\n      swap1\n      div\n      0xff\n      and\n      dup1\n        /* \"@openzeppelin/contracts-upgradeable/proxy/utils/Initializable.sol\":539:569  _initializing || !_initialized */\n      tag_226\n      jumpi\n      pop\n        /* \"@openzeppelin/contracts-upgradeable/proxy/utils/Initializable.sol\":557:569  _initialized */\n      and(0xff, sload(0x00))\n        /* \"@openzeppelin/contracts-upgradeable/proxy/utils/Initializable.sol\":556:569  !_initialized */\n      iszero\n        /* \"@openzeppelin/contracts-upgradeable/proxy/utils/Initializable.sol\":539:569  _initializing || !_initialized */\n    tag_226:\n        /* \"@openzeppelin/contracts-upgradeable/proxy/utils/Initializable.sol\":531:620  require(_initializing || !_initialized, \"Initializable: contract is already initialized\") */\n      tag_227\n      jumpi\n      mload(0x40)\n      shl(0xe5, 0x461bcd)\n      dup2\n      mstore\n      0x04\n      add\n      tag_61\n      swap1\n      tag_158\n      jump\t// in\n    tag_227:\n        /* \"@openzeppelin/contracts-upgradeable/proxy/utils/Initializable.sol\":631:650  bool isTopLevelCall */\n      0x00\n        /* \"@openzeppelin/contracts-upgradeable/proxy/utils/Initializable.sol\":654:667  _initializing */\n      sload\n      0x0100\n      swap1\n      div\n      0xff\n      and\n        /* \"@openzeppelin/contracts-upgradeable/proxy/utils/Initializable.sol\":653:667  !_initializing */\n      iszero\n        /* \"@openzeppelin/contracts-upgradeable/proxy/utils/Initializable.sol\":677:775  if (isTopLevelCall) {... */\n      dup1\n      iszero\n      tag_229\n      jumpi\n        /* \"@openzeppelin/contracts-upgradeable/proxy/utils/Initializable.sol\":711:724  _initializing */\n      0x00\n        /* \"@openzeppelin/contracts-upgradeable/proxy/utils/Initializable.sol\":711:731  _initializing = true */\n      dup1\n      sload\n      not(0xff)\n      not(0xff00)\n      swap1\n      swap2\n      and\n      0x0100\n      or\n        /* \"@openzeppelin/contracts-upgradeable/proxy/utils/Initializable.sol\":745:764  _initialized = true */\n      and\n        /* \"@openzeppelin/contracts-upgradeable/proxy/utils/Initializable.sol\":727:731  true */\n      0x01\n        /* \"@openzeppelin/contracts-upgradeable/proxy/utils/Initializable.sol\":745:764  _initialized = true */\n      or\n      swap1\n      sstore\n        /* \"@openzeppelin/contracts-upgradeable/proxy/utils/Initializable.sol\":677:775  if (isTopLevelCall) {... */\n    tag_229:\n        /* \"@openzeppelin/contracts-upgradeable/access/OwnableUpgradeable.sol\":1187:1219  _transferOwnership(_msgSender()) */\n      tag_204\n        /* \"@openzeppelin/contracts-upgradeable/access/OwnableUpgradeable.sol\":1206:1218  _msgSender() */\n      tag_232\n        /* \"@openzeppelin/contracts-upgradeable/access/OwnableUpgradeable.sol\":1206:1216  _msgSender */\n      tag_58\n        /* \"@openzeppelin/contracts-upgradeable/access/OwnableUpgradeable.sol\":1206:1218  _msgSender() */\n      jump\t// in\n    tag_232:\n        /* \"@openzeppelin/contracts-upgradeable/access/OwnableUpgradeable.sol\":1187:1205  _transferOwnership */\n      tag_71\n        /* \"@openzeppelin/contracts-upgradeable/access/OwnableUpgradeable.sol\":1187:1219  _transferOwnership(_msgSender()) */\n      jump\t// in\n        /* \"@openzeppelin/contracts-upgradeable/utils/AddressUpgradeable.sol\":3525:3748  function functionCall(... */\n    tag_209:\n        /* \"@openzeppelin/contracts-upgradeable/utils/AddressUpgradeable.sol\":3658:3670  bytes memory */\n      0x60\n        /* \"@openzeppelin/contracts-upgradeable/utils/AddressUpgradeable.sol\":3689:3741  functionCallWithValue(target, data, 0, errorMessage) */\n      tag_235\n        /* \"@openzeppelin/contracts-upgradeable/utils/AddressUpgradeable.sol\":3711:3717  target */\n      dup5\n        /* \"@openzeppelin/contracts-upgradeable/utils/AddressUpgradeable.sol\":3719:3723  data */\n      dup5\n        /* \"@openzeppelin/contracts-upgradeable/utils/AddressUpgradeable.sol\":3725:3726  0 */\n      0x00\n        /* \"@openzeppelin/contracts-upgradeable/utils/AddressUpgradeable.sol\":3728:3740  errorMessage */\n      dup6\n        /* \"@openzeppelin/contracts-upgradeable/utils/AddressUpgradeable.sol\":3689:3710  functionCallWithValue */\n      tag_236\n        /* \"@openzeppelin/contracts-upgradeable/utils/AddressUpgradeable.sol\":3689:3741  functionCallWithValue(target, data, 0, errorMessage) */\n      jump\t// in\n    tag_235:\n        /* \"@openzeppelin/contracts-upgradeable/utils/AddressUpgradeable.sol\":3682:3741  return functionCallWithValue(target, data, 0, errorMessage) */\n      swap5\n        /* \"@openzeppelin/contracts-upgradeable/utils/AddressUpgradeable.sol\":3525:3748  function functionCall(... */\n      swap4\n      pop\n      pop\n      pop\n      pop\n      jump\t// out\n        /* \"@openzeppelin/contracts-upgradeable/utils/AddressUpgradeable.sol\":4612:5111  function functionCallWithValue(... */\n    tag_236:\n        /* \"@openzeppelin/contracts-upgradeable/utils/AddressUpgradeable.sol\":4777:4789  bytes memory */\n      0x60\n        /* \"@openzeppelin/contracts-upgradeable/utils/AddressUpgradeable.sol\":4834:4839  value */\n      dup3\n        /* \"@openzeppelin/contracts-upgradeable/utils/AddressUpgradeable.sol\":4809:4830  address(this).balance */\n      selfbalance\n        /* \"@openzeppelin/contracts-upgradeable/utils/AddressUpgradeable.sol\":4809:4839  address(this).balance >= value */\n      lt\n      iszero\n        /* \"@openzeppelin/contracts-upgradeable/utils/AddressUpgradeable.sol\":4801:4882  require(address(this).balance >= value, \"Address: insufficient balance for call\") */\n      tag_238\n      jumpi\n      mload(0x40)\n      shl(0xe5, 0x461bcd)\n      dup2\n      mstore\n      0x04\n      add\n      tag_61\n      swap1\n      tag_240\n      jump\t// in\n    tag_238:\n        /* \"@openzeppelin/contracts-upgradeable/utils/AddressUpgradeable.sol\":4900:4918  isContract(target) */\n      tag_241\n        /* \"@openzeppelin/contracts-upgradeable/utils/AddressUpgradeable.sol\":4911:4917  target */\n      dup6\n        /* \"@openzeppelin/contracts-upgradeable/utils/AddressUpgradeable.sol\":4900:4910  isContract */\n      tag_242\n        /* \"@openzeppelin/contracts-upgradeable/utils/AddressUpgradeable.sol\":4900:4918  isContract(target) */\n      jump\t// in\n    tag_241:\n        /* \"@openzeppelin/contracts-upgradeable/utils/AddressUpgradeable.sol\":4892:4952  require(isContract(target), \"Address: call to non-contract\") */\n      tag_243\n      jumpi\n      mload(0x40)\n      shl(0xe5, 0x461bcd)\n      dup2\n      mstore\n      0x04\n      add\n      tag_61\n      swap1\n      tag_245\n      jump\t// in\n    tag_243:\n        /* \"@openzeppelin/contracts-upgradeable/utils/AddressUpgradeable.sol\":4964:4976  bool success */\n      0x00\n        /* \"@openzeppelin/contracts-upgradeable/utils/AddressUpgradeable.sol\":4978:5001  bytes memory returndata */\n      dup1\n        /* \"@openzeppelin/contracts-upgradeable/utils/AddressUpgradeable.sol\":5005:5011  target */\n      dup7\n      sub(shl(0xa0, 0x01), 0x01)\n        /* \"@openzeppelin/contracts-upgradeable/utils/AddressUpgradeable.sol\":5005:5016  target.call */\n      and\n        /* \"@openzeppelin/contracts-upgradeable/utils/AddressUpgradeable.sol\":5024:5029  value */\n      dup6\n        /* \"@openzeppelin/contracts-upgradeable/utils/AddressUpgradeable.sol\":5031:5035  data */\n      dup8\n        /* \"@openzeppelin/contracts-upgradeable/utils/AddressUpgradeable.sol\":5005:5036  target.call{value: value}(data) */\n      mload(0x40)\n      tag_246\n      swap2\n      swap1\n      tag_247\n      jump\t// in\n    tag_246:\n      0x00\n      mload(0x40)\n      dup1\n      dup4\n      sub\n      dup2\n      dup6\n      dup8\n      gas\n      call\n      swap3\n      pop\n      pop\n      pop\n      returndatasize\n      dup1\n      0x00\n      dup2\n      eq\n      tag_250\n      jumpi\n      mload(0x40)\n      swap2\n      pop\n      and(add(returndatasize, 0x3f), not(0x1f))\n      dup3\n      add\n      0x40\n      mstore\n      returndatasize\n      dup3\n      mstore\n      returndatasize\n      0x00\n      0x20\n      dup5\n      add\n      returndatacopy\n      jump(tag_249)\n    tag_250:\n      0x60\n      swap2\n      pop\n    tag_249:\n      pop\n        /* \"@openzeppelin/contracts-upgradeable/utils/AddressUpgradeable.sol\":4963:5036  (bool success, bytes memory returndata) = target.call{value: value}(data) */\n      swap2\n      pop\n      swap2\n      pop\n        /* \"@openzeppelin/contracts-upgradeable/utils/AddressUpgradeable.sol\":5053:5104  verifyCallResult(success, returndata, errorMessage) */\n      tag_195\n        /* \"@openzeppelin/contracts-upgradeable/utils/AddressUpgradeable.sol\":5070:5077  success */\n      dup3\n        /* \"@openzeppelin/contracts-upgradeable/utils/AddressUpgradeable.sol\":5079:5089  returndata */\n      dup3\n        /* \"@openzeppelin/contracts-upgradeable/utils/AddressUpgradeable.sol\":5091:5103  errorMessage */\n      dup7\n        /* \"@openzeppelin/contracts-upgradeable/utils/AddressUpgradeable.sol\":5053:5069  verifyCallResult */\n      tag_252\n        /* \"@openzeppelin/contracts-upgradeable/utils/AddressUpgradeable.sol\":5053:5104  verifyCallResult(success, returndata, errorMessage) */\n      jump\t// in\n        /* \"@openzeppelin/contracts-upgradeable/utils/AddressUpgradeable.sol\":782:1159  function isContract(address account) internal view returns (bool) {... */\n    tag_242:\n        /* \"@openzeppelin/contracts-upgradeable/utils/AddressUpgradeable.sol\":1098:1118  extcodesize(account) */\n      dup1\n      extcodesize\n        /* \"@openzeppelin/contracts-upgradeable/utils/AddressUpgradeable.sol\":1144:1152  size > 0 */\n      iszero\n      iszero\n        /* \"@openzeppelin/contracts-upgradeable/utils/AddressUpgradeable.sol\":782:1159  function isContract(address account) internal view returns (bool) {... */\n    tag_253:\n      swap2\n      swap1\n      pop\n      jump\t// out\n        /* \"@openzeppelin/contracts-upgradeable/utils/AddressUpgradeable.sol\":6275:6967  function verifyCallResult(... */\n    tag_252:\n        /* \"@openzeppelin/contracts-upgradeable/utils/AddressUpgradeable.sol\":6421:6433  bytes memory */\n      0x60\n        /* \"@openzeppelin/contracts-upgradeable/utils/AddressUpgradeable.sol\":6449:6456  success */\n      dup4\n        /* \"@openzeppelin/contracts-upgradeable/utils/AddressUpgradeable.sol\":6445:6961  if (success) {... */\n      iszero\n      tag_255\n      jumpi\n      pop\n        /* \"@openzeppelin/contracts-upgradeable/utils/AddressUpgradeable.sol\":6479:6489  returndata */\n      dup2\n        /* \"@openzeppelin/contracts-upgradeable/utils/AddressUpgradeable.sol\":6472:6489  return returndata */\n      jump(tag_177)\n        /* \"@openzeppelin/contracts-upgradeable/utils/AddressUpgradeable.sol\":6445:6961  if (success) {... */\n    tag_255:\n        /* \"@openzeppelin/contracts-upgradeable/utils/AddressUpgradeable.sol\":6590:6607  returndata.length */\n      dup3\n      mload\n        /* \"@openzeppelin/contracts-upgradeable/utils/AddressUpgradeable.sol\":6590:6611  returndata.length > 0 */\n      iszero\n        /* \"@openzeppelin/contracts-upgradeable/utils/AddressUpgradeable.sol\":6586:6951  if (returndata.length > 0) {... */\n      tag_257\n      jumpi\n        /* \"@openzeppelin/contracts-upgradeable/utils/AddressUpgradeable.sol\":6784:6794  returndata */\n      dup3\n        /* \"@openzeppelin/contracts-upgradeable/utils/AddressUpgradeable.sol\":6778:6795  mload(returndata) */\n      mload\n        /* \"@openzeppelin/contracts-upgradeable/utils/AddressUpgradeable.sol\":6844:6859  returndata_size */\n      dup1\n        /* \"@openzeppelin/contracts-upgradeable/utils/AddressUpgradeable.sol\":6831:6841  returndata */\n      dup5\n        /* \"@openzeppelin/contracts-upgradeable/utils/AddressUpgradeable.sol\":6827:6829  32 */\n      0x20\n        /* \"@openzeppelin/contracts-upgradeable/utils/AddressUpgradeable.sol\":6823:6842  add(32, returndata) */\n      add\n        /* \"@openzeppelin/contracts-upgradeable/utils/AddressUpgradeable.sol\":6816:6860  revert(add(32, returndata), returndata_size) */\n      revert\n        /* \"@openzeppelin/contracts-upgradeable/utils/AddressUpgradeable.sol\":6733:6878  {... */\n    tag_257:\n        /* \"@openzeppelin/contracts-upgradeable/utils/AddressUpgradeable.sol\":6923:6935  errorMessage */\n      dup2\n        /* \"@openzeppelin/contracts-upgradeable/utils/AddressUpgradeable.sol\":6916:6936  revert(errorMessage) */\n      mload(0x40)\n      shl(0xe5, 0x461bcd)\n      dup2\n      mstore\n      0x04\n      add\n      tag_61\n      swap2\n      swap1\n      tag_260\n      jump\t// in\n        /* \"#utility.yul\":14:204   */\n    tag_262:\n        /* \"#utility.yul\":95:108   */\n      dup1\n      mload\n      sub(shl(0x70, 0x01), 0x01)\n        /* \"#utility.yul\":137:179   */\n      dup2\n      and\n        /* \"#utility.yul\":127:180   */\n      dup2\n      eq\n        /* \"#utility.yul\":117:119   */\n      tag_253\n      jumpi\n        /* \"#utility.yul\":194:195   */\n      0x00\n        /* \"#utility.yul\":191:192   */\n      dup1\n        /* \"#utility.yul\":184:196   */\n      revert\n        /* \"#utility.yul\":209:468   */\n    tag_30:\n      0x00\n        /* \"#utility.yul\":321:323   */\n      0x20\n        /* \"#utility.yul\":309:318   */\n      dup3\n        /* \"#utility.yul\":300:307   */\n      dup5\n        /* \"#utility.yul\":296:319   */\n      sub\n        /* \"#utility.yul\":292:324   */\n      slt\n        /* \"#utility.yul\":289:291   */\n      iszero\n      tag_266\n      jumpi\n        /* \"#utility.yul\":342:348   */\n      dup1\n        /* \"#utility.yul\":334:340   */\n      dup2\n        /* \"#utility.yul\":327:349   */\n      revert\n        /* \"#utility.yul\":289:291   */\n    tag_266:\n        /* \"#utility.yul\":386:395   */\n      dup2\n        /* \"#utility.yul\":373:396   */\n      calldataload\n        /* \"#utility.yul\":405:438   */\n      tag_177\n        /* \"#utility.yul\":432:437   */\n      dup2\n        /* \"#utility.yul\":405:438   */\n      tag_268\n      jump\t// in\n        /* \"#utility.yul\":473:736   */\n    tag_86:\n      0x00\n        /* \"#utility.yul\":596:598   */\n      0x20\n        /* \"#utility.yul\":584:593   */\n      dup3\n        /* \"#utility.yul\":575:582   */\n      dup5\n        /* \"#utility.yul\":571:594   */\n      sub\n        /* \"#utility.yul\":567:599   */\n      slt\n        /* \"#utility.yul\":564:566   */\n      iszero\n      tag_270\n      jumpi\n        /* \"#utility.yul\":617:623   */\n      dup1\n        /* \"#utility.yul\":609:615   */\n      dup2\n        /* \"#utility.yul\":602:624   */\n      revert\n        /* \"#utility.yul\":564:566   */\n    tag_270:\n        /* \"#utility.yul\":654:663   */\n      dup2\n        /* \"#utility.yul\":648:664   */\n      mload\n        /* \"#utility.yul\":673:706   */\n      tag_177\n        /* \"#utility.yul\":700:705   */\n      dup2\n        /* \"#utility.yul\":673:706   */\n      tag_268\n      jump\t// in\n        /* \"#utility.yul\":741:1286   */\n    tag_51:\n      0x00\n      dup1\n      0x00\n        /* \"#utility.yul\":887:889   */\n      0x60\n        /* \"#utility.yul\":875:884   */\n      dup5\n        /* \"#utility.yul\":866:873   */\n      dup7\n        /* \"#utility.yul\":862:885   */\n      sub\n        /* \"#utility.yul\":858:890   */\n      slt\n        /* \"#utility.yul\":855:857   */\n      iszero\n      tag_273\n      jumpi\n        /* \"#utility.yul\":908:914   */\n      dup2\n        /* \"#utility.yul\":900:906   */\n      dup3\n        /* \"#utility.yul\":893:915   */\n      revert\n        /* \"#utility.yul\":855:857   */\n    tag_273:\n        /* \"#utility.yul\":952:961   */\n      dup4\n        /* \"#utility.yul\":939:962   */\n      calldataload\n        /* \"#utility.yul\":971:1004   */\n      tag_274\n        /* \"#utility.yul\":998:1003   */\n      dup2\n        /* \"#utility.yul\":971:1004   */\n      tag_268\n      jump\t// in\n    tag_274:\n        /* \"#utility.yul\":1023:1028   */\n      swap3\n      pop\n        /* \"#utility.yul\":1080:1082   */\n      0x20\n        /* \"#utility.yul\":1065:1083   */\n      dup5\n      add\n        /* \"#utility.yul\":1052:1084   */\n      calldataload\n        /* \"#utility.yul\":1093:1128   */\n      tag_275\n        /* \"#utility.yul\":1052:1084   */\n      dup2\n        /* \"#utility.yul\":1093:1128   */\n      tag_268\n      jump\t// in\n    tag_275:\n        /* \"#utility.yul\":1147:1154   */\n      swap2\n      pop\n        /* \"#utility.yul\":1206:1208   */\n      0x40\n        /* \"#utility.yul\":1191:1209   */\n      dup5\n      add\n        /* \"#utility.yul\":1178:1210   */\n      calldataload\n        /* \"#utility.yul\":1219:1254   */\n      tag_276\n        /* \"#utility.yul\":1178:1210   */\n      dup2\n        /* \"#utility.yul\":1219:1254   */\n      tag_268\n      jump\t// in\n    tag_276:\n        /* \"#utility.yul\":1273:1280   */\n      dup1\n        /* \"#utility.yul\":1263:1280   */\n      swap2\n      pop\n      pop\n        /* \"#utility.yul\":845:1286   */\n      swap3\n      pop\n      swap3\n      pop\n      swap3\n      jump\t// out\n        /* \"#utility.yul\":1291:1687   */\n    tag_17:\n      0x00\n      dup1\n        /* \"#utility.yul\":1417:1419   */\n      0x40\n        /* \"#utility.yul\":1405:1414   */\n      dup4\n        /* \"#utility.yul\":1396:1403   */\n      dup6\n        /* \"#utility.yul\":1392:1415   */\n      sub\n        /* \"#utility.yul\":1388:1420   */\n      slt\n        /* \"#utility.yul\":1385:1387   */\n      iszero\n      tag_278\n      jumpi\n        /* \"#utility.yul\":1438:1444   */\n      dup2\n        /* \"#utility.yul\":1430:1436   */\n      dup3\n        /* \"#utility.yul\":1423:1445   */\n      revert\n        /* \"#utility.yul\":1385:1387   */\n    tag_278:\n        /* \"#utility.yul\":1482:1491   */\n      dup3\n        /* \"#utility.yul\":1469:1492   */\n      calldataload\n        /* \"#utility.yul\":1501:1534   */\n      tag_279\n        /* \"#utility.yul\":1528:1533   */\n      dup2\n        /* \"#utility.yul\":1501:1534   */\n      tag_268\n      jump\t// in\n    tag_279:\n        /* \"#utility.yul\":1553:1558   */\n      swap2\n      pop\n        /* \"#utility.yul\":1610:1612   */\n      0x20\n        /* \"#utility.yul\":1595:1613   */\n      dup4\n      add\n        /* \"#utility.yul\":1582:1614   */\n      calldataload\n        /* \"#utility.yul\":1623:1655   */\n      tag_280\n        /* \"#utility.yul\":1582:1614   */\n      dup2\n        /* \"#utility.yul\":1623:1655   */\n      tag_281\n      jump\t// in\n    tag_280:\n        /* \"#utility.yul\":1674:1681   */\n      dup1\n        /* \"#utility.yul\":1664:1681   */\n      swap2\n      pop\n      pop\n        /* \"#utility.yul\":1375:1687   */\n      swap3\n      pop\n      swap3\n      swap1\n      pop\n      jump\t// out\n        /* \"#utility.yul\":1692:2019   */\n    tag_46:\n      0x00\n      dup1\n        /* \"#utility.yul\":1821:1823   */\n      0x40\n        /* \"#utility.yul\":1809:1818   */\n      dup4\n        /* \"#utility.yul\":1800:1807   */\n      dup6\n        /* \"#utility.yul\":1796:1819   */\n      sub\n        /* \"#utility.yul\":1792:1824   */\n      slt\n        /* \"#utility.yul\":1789:1791   */\n      iszero\n      tag_283\n      jumpi\n        /* \"#utility.yul\":1842:1848   */\n      dup2\n        /* \"#utility.yul\":1834:1840   */\n      dup3\n        /* \"#utility.yul\":1827:1849   */\n      revert\n        /* \"#utility.yul\":1789:1791   */\n    tag_283:\n        /* \"#utility.yul\":1886:1895   */\n      dup3\n        /* \"#utility.yul\":1873:1896   */\n      calldataload\n        /* \"#utility.yul\":1905:1938   */\n      tag_284\n        /* \"#utility.yul\":1932:1937   */\n      dup2\n        /* \"#utility.yul\":1905:1938   */\n      tag_268\n      jump\t// in\n    tag_284:\n        /* \"#utility.yul\":1957:1962   */\n      swap5\n        /* \"#utility.yul\":2009:2011   */\n      0x20\n        /* \"#utility.yul\":1994:2012   */\n      swap4\n      swap1\n      swap4\n      add\n        /* \"#utility.yul\":1981:2013   */\n      calldataload\n      swap4\n      pop\n      pop\n      pop\n        /* \"#utility.yul\":1779:2019   */\n      jump\t// out\n        /* \"#utility.yul\":2024:2281   */\n    tag_113:\n      0x00\n        /* \"#utility.yul\":2144:2146   */\n      0x20\n        /* \"#utility.yul\":2132:2141   */\n      dup3\n        /* \"#utility.yul\":2123:2130   */\n      dup5\n        /* \"#utility.yul\":2119:2142   */\n      sub\n        /* \"#utility.yul\":2115:2147   */\n      slt\n        /* \"#utility.yul\":2112:2114   */\n      iszero\n      tag_286\n      jumpi\n        /* \"#utility.yul\":2165:2171   */\n      dup1\n        /* \"#utility.yul\":2157:2163   */\n      dup2\n        /* \"#utility.yul\":2150:2172   */\n      revert\n        /* \"#utility.yul\":2112:2114   */\n    tag_286:\n        /* \"#utility.yul\":2202:2211   */\n      dup2\n        /* \"#utility.yul\":2196:2212   */\n      mload\n        /* \"#utility.yul\":2221:2251   */\n      tag_177\n        /* \"#utility.yul\":2245:2250   */\n      dup2\n        /* \"#utility.yul\":2221:2251   */\n      tag_281\n      jump\t// in\n        /* \"#utility.yul\":2286:2760   */\n    tag_81:\n      0x00\n      dup1\n      0x00\n        /* \"#utility.yul\":2442:2444   */\n      0x60\n        /* \"#utility.yul\":2430:2439   */\n      dup5\n        /* \"#utility.yul\":2421:2428   */\n      dup7\n        /* \"#utility.yul\":2417:2440   */\n      sub\n        /* \"#utility.yul\":2413:2445   */\n      slt\n        /* \"#utility.yul\":2410:2412   */\n      iszero\n      tag_289\n      jumpi\n        /* \"#utility.yul\":2463:2469   */\n      dup3\n        /* \"#utility.yul\":2455:2461   */\n      dup4\n        /* \"#utility.yul\":2448:2470   */\n      revert\n        /* \"#utility.yul\":2410:2412   */\n    tag_289:\n        /* \"#utility.yul\":2491:2533   */\n      tag_290\n        /* \"#utility.yul\":2523:2532   */\n      dup5\n        /* \"#utility.yul\":2491:2533   */\n      tag_262\n      jump\t// in\n    tag_290:\n        /* \"#utility.yul\":2481:2533   */\n      swap3\n      pop\n        /* \"#utility.yul\":2552:2603   */\n      tag_291\n        /* \"#utility.yul\":2599:2601   */\n      0x20\n        /* \"#utility.yul\":2588:2597   */\n      dup6\n        /* \"#utility.yul\":2584:2602   */\n      add\n        /* \"#utility.yul\":2552:2603   */\n      tag_262\n      jump\t// in\n    tag_291:\n        /* \"#utility.yul\":2542:2603   */\n      swap2\n      pop\n        /* \"#utility.yul\":2646:2648   */\n      0x40\n        /* \"#utility.yul\":2635:2644   */\n      dup5\n        /* \"#utility.yul\":2631:2649   */\n      add\n        /* \"#utility.yul\":2625:2650   */\n      mload\n        /* \"#utility.yul\":2690:2700   */\n      0xffffffff\n        /* \"#utility.yul\":2683:2688   */\n      dup2\n        /* \"#utility.yul\":2679:2701   */\n      and\n        /* \"#utility.yul\":2672:2677   */\n      dup2\n        /* \"#utility.yul\":2669:2702   */\n      eq\n        /* \"#utility.yul\":2659:2661   */\n      tag_276\n      jumpi\n        /* \"#utility.yul\":2721:2727   */\n      dup2\n        /* \"#utility.yul\":2713:2719   */\n      dup3\n        /* \"#utility.yul\":2706:2728   */\n      revert\n        /* \"#utility.yul\":2765:2959   */\n    tag_94:\n      0x00\n        /* \"#utility.yul\":2888:2890   */\n      0x20\n        /* \"#utility.yul\":2876:2885   */\n      dup3\n        /* \"#utility.yul\":2867:2874   */\n      dup5\n        /* \"#utility.yul\":2863:2886   */\n      sub\n        /* \"#utility.yul\":2859:2891   */\n      slt\n        /* \"#utility.yul\":2856:2858   */\n      iszero\n      tag_294\n      jumpi\n        /* \"#utility.yul\":2909:2915   */\n      dup1\n        /* \"#utility.yul\":2901:2907   */\n      dup2\n        /* \"#utility.yul\":2894:2916   */\n      revert\n        /* \"#utility.yul\":2856:2858   */\n    tag_294:\n      pop\n        /* \"#utility.yul\":2937:2953   */\n      mload\n      swap2\n        /* \"#utility.yul\":2846:2959   */\n      swap1\n      pop\n      jump\t// out\n        /* \"#utility.yul\":2964:3223   */\n    tag_295:\n      0x00\n        /* \"#utility.yul\":3045:3050   */\n      dup2\n        /* \"#utility.yul\":3039:3051   */\n      mload\n        /* \"#utility.yul\":3072:3078   */\n      dup1\n        /* \"#utility.yul\":3067:3070   */\n      dup5\n        /* \"#utility.yul\":3060:3079   */\n      mstore\n        /* \"#utility.yul\":3088:3151   */\n      tag_297\n        /* \"#utility.yul\":3144:3150   */\n      dup2\n        /* \"#utility.yul\":3137:3141   */\n      0x20\n        /* \"#utility.yul\":3132:3135   */\n      dup7\n        /* \"#utility.yul\":3128:3142   */\n      add\n        /* \"#utility.yul\":3121:3125   */\n      0x20\n        /* \"#utility.yul\":3114:3119   */\n      dup7\n        /* \"#utility.yul\":3110:3126   */\n      add\n        /* \"#utility.yul\":3088:3151   */\n      tag_298\n      jump\t// in\n    tag_297:\n        /* \"#utility.yul\":3205:3207   */\n      0x1f\n        /* \"#utility.yul\":3184:3199   */\n      add\n      not(0x1f)\n        /* \"#utility.yul\":3180:3209   */\n      and\n        /* \"#utility.yul\":3171:3210   */\n      swap3\n      swap1\n      swap3\n      add\n        /* \"#utility.yul\":3212:3216   */\n      0x20\n        /* \"#utility.yul\":3167:3217   */\n      add\n      swap3\n        /* \"#utility.yul\":3015:3223   */\n      swap2\n      pop\n      pop\n      jump\t// out\n        /* \"#utility.yul\":3228:3502   */\n    tag_247:\n      0x00\n        /* \"#utility.yul\":3395:3401   */\n      dup3\n        /* \"#utility.yul\":3389:3402   */\n      mload\n        /* \"#utility.yul\":3411:3464   */\n      tag_300\n        /* \"#utility.yul\":3457:3463   */\n      dup2\n        /* \"#utility.yul\":3452:3455   */\n      dup5\n        /* \"#utility.yul\":3445:3449   */\n      0x20\n        /* \"#utility.yul\":3437:3443   */\n      dup8\n        /* \"#utility.yul\":3433:3450   */\n      add\n        /* \"#utility.yul\":3411:3464   */\n      tag_298\n      jump\t// in\n    tag_300:\n        /* \"#utility.yul\":3480:3496   */\n      swap2\n      swap1\n      swap2\n      add\n      swap3\n        /* \"#utility.yul\":3365:3502   */\n      swap2\n      pop\n      pop\n      jump\t// out\n        /* \"#utility.yul\":3507:3710   */\n    tag_24:\n      sub(shl(0xa0, 0x01), 0x01)\n        /* \"#utility.yul\":3671:3703   */\n      swap2\n      swap1\n      swap2\n      and\n        /* \"#utility.yul\":3653:3704   */\n      dup2\n      mstore\n        /* \"#utility.yul\":3641:3643   */\n      0x20\n        /* \"#utility.yul\":3626:3644   */\n      add\n      swap1\n        /* \"#utility.yul\":3608:3710   */\n      jump\t// out\n        /* \"#utility.yul\":3715:3989   */\n    tag_108:\n      sub(shl(0xa0, 0x01), 0x01)\n        /* \"#utility.yul\":3907:3939   */\n      swap3\n      swap1\n      swap3\n      and\n        /* \"#utility.yul\":3889:3940   */\n      dup3\n      mstore\n        /* \"#utility.yul\":3971:3973   */\n      0x20\n        /* \"#utility.yul\":3956:3974   */\n      dup3\n      add\n        /* \"#utility.yul\":3949:3983   */\n      mstore\n        /* \"#utility.yul\":3877:3879   */\n      0x40\n        /* \"#utility.yul\":3862:3880   */\n      add\n      swap1\n        /* \"#utility.yul\":3844:3989   */\n      jump\t// out\n        /* \"#utility.yul\":3994:4181   */\n    tag_20:\n        /* \"#utility.yul\":4159:4173   */\n      swap1\n      iszero\n        /* \"#utility.yul\":4152:4174   */\n      iszero\n        /* \"#utility.yul\":4134:4175   */\n      dup2\n      mstore\n        /* \"#utility.yul\":4122:4124   */\n      0x20\n        /* \"#utility.yul\":4107:4125   */\n      add\n      swap1\n        /* \"#utility.yul\":4089:4181   */\n      jump\t// out\n        /* \"#utility.yul\":4186:4407   */\n    tag_260:\n      0x00\n        /* \"#utility.yul\":4335:4337   */\n      0x20\n        /* \"#utility.yul\":4324:4333   */\n      dup3\n        /* \"#utility.yul\":4317:4338   */\n      mstore\n        /* \"#utility.yul\":4355:4401   */\n      tag_177\n        /* \"#utility.yul\":4397:4399   */\n      0x20\n        /* \"#utility.yul\":4386:4395   */\n      dup4\n        /* \"#utility.yul\":4382:4400   */\n      add\n        /* \"#utility.yul\":4374:4380   */\n      dup5\n        /* \"#utility.yul\":4355:4401   */\n      tag_295\n      jump\t// in\n        /* \"#utility.yul\":4412:4814   */\n    tag_172:\n        /* \"#utility.yul\":4614:4616   */\n      0x20\n        /* \"#utility.yul\":4596:4617   */\n      dup1\n      dup3\n      mstore\n        /* \"#utility.yul\":4653:4655   */\n      0x26\n        /* \"#utility.yul\":4633:4651   */\n      swap1\n      dup3\n      add\n        /* \"#utility.yul\":4626:4656   */\n      mstore\n        /* \"#utility.yul\":4692:4726   */\n      0x4f776e61626c653a206e6577206f776e657220697320746865207a65726f2061\n        /* \"#utility.yul\":4687:4689   */\n      0x40\n        /* \"#utility.yul\":4672:4690   */\n      dup3\n      add\n        /* \"#utility.yul\":4665:4727   */\n      mstore\n      shl(0xd0, 0x646472657373)\n        /* \"#utility.yul\":4758:4760   */\n      0x60\n        /* \"#utility.yul\":4743:4761   */\n      dup3\n      add\n        /* \"#utility.yul\":4736:4772   */\n      mstore\n        /* \"#utility.yul\":4804:4807   */\n      0x80\n        /* \"#utility.yul\":4789:4808   */\n      add\n      swap1\n        /* \"#utility.yul\":4586:4814   */\n      jump\t// out\n        /* \"#utility.yul\":4819:5219   */\n    tag_75:\n        /* \"#utility.yul\":5021:5023   */\n      0x20\n        /* \"#utility.yul\":5003:5024   */\n      dup1\n      dup3\n      mstore\n        /* \"#utility.yul\":5060:5062   */\n      0x24\n        /* \"#utility.yul\":5040:5058   */\n      swap1\n      dup3\n      add\n        /* \"#utility.yul\":5033:5063   */\n      mstore\n        /* \"#utility.yul\":5099:5133   */\n      0x6578656375746f723a2063616c6c6572206973206e6f74207468652065786563\n        /* \"#utility.yul\":5094:5096   */\n      0x40\n        /* \"#utility.yul\":5079:5097   */\n      dup3\n      add\n        /* \"#utility.yul\":5072:5134   */\n      mstore\n      shl(0xe1, 0x3aba37b9)\n        /* \"#utility.yul\":5165:5167   */\n      0x60\n        /* \"#utility.yul\":5150:5168   */\n      dup3\n      add\n        /* \"#utility.yul\":5143:5177   */\n      mstore\n        /* \"#utility.yul\":5209:5212   */\n      0x80\n        /* \"#utility.yul\":5194:5213   */\n      add\n      swap1\n        /* \"#utility.yul\":4993:5219   */\n      jump\t// out\n        /* \"#utility.yul\":5224:5626   */\n    tag_240:\n        /* \"#utility.yul\":5426:5428   */\n      0x20\n        /* \"#utility.yul\":5408:5429   */\n      dup1\n      dup3\n      mstore\n        /* \"#utility.yul\":5465:5467   */\n      0x26\n        /* \"#utility.yul\":5445:5463   */\n      swap1\n      dup3\n      add\n        /* \"#utility.yul\":5438:5468   */\n      mstore\n        /* \"#utility.yul\":5504:5538   */\n      0x416464726573733a20696e73756666696369656e742062616c616e636520666f\n        /* \"#utility.yul\":5499:5501   */\n      0x40\n        /* \"#utility.yul\":5484:5502   */\n      dup3\n      add\n        /* \"#utility.yul\":5477:5539   */\n      mstore\n      shl(0xd2, 0x1c8818d85b1b)\n        /* \"#utility.yul\":5570:5572   */\n      0x60\n        /* \"#utility.yul\":5555:5573   */\n      dup3\n      add\n        /* \"#utility.yul\":5548:5584   */\n      mstore\n        /* \"#utility.yul\":5616:5619   */\n      0x80\n        /* \"#utility.yul\":5601:5620   */\n      add\n      swap1\n        /* \"#utility.yul\":5398:5626   */\n      jump\t// out\n        /* \"#utility.yul\":5631:6041   */\n    tag_158:\n        /* \"#utility.yul\":5833:5835   */\n      0x20\n        /* \"#utility.yul\":5815:5836   */\n      dup1\n      dup3\n      mstore\n        /* \"#utility.yul\":5872:5874   */\n      0x2e\n        /* \"#utility.yul\":5852:5870   */\n      swap1\n      dup3\n      add\n        /* \"#utility.yul\":5845:5875   */\n      mstore\n        /* \"#utility.yul\":5911:5945   */\n      0x496e697469616c697a61626c653a20636f6e747261637420697320616c726561\n        /* \"#utility.yul\":5906:5908   */\n      0x40\n        /* \"#utility.yul\":5891:5909   */\n      dup3\n      add\n        /* \"#utility.yul\":5884:5946   */\n      mstore\n      shl(0x92, 0x191e481a5b9a5d1a585b1a5e9959)\n        /* \"#utility.yul\":5977:5979   */\n      0x60\n        /* \"#utility.yul\":5962:5980   */\n      dup3\n      add\n        /* \"#utility.yul\":5955:5999   */\n      mstore\n        /* \"#utility.yul\":6031:6034   */\n      0x80\n        /* \"#utility.yul\":6016:6035   */\n      add\n      swap1\n        /* \"#utility.yul\":5805:6041   */\n      jump\t// out\n        /* \"#utility.yul\":6046:6402   */\n    tag_62:\n        /* \"#utility.yul\":6248:6250   */\n      0x20\n        /* \"#utility.yul\":6230:6251   */\n      dup1\n      dup3\n      mstore\n        /* \"#utility.yul\":6267:6285   */\n      dup2\n      dup2\n      add\n        /* \"#utility.yul\":6260:6290   */\n      mstore\n        /* \"#utility.yul\":6326:6360   */\n      0x4f776e61626c653a2063616c6c6572206973206e6f7420746865206f776e6572\n        /* \"#utility.yul\":6321:6323   */\n      0x40\n        /* \"#utility.yul\":6306:6324   */\n      dup3\n      add\n        /* \"#utility.yul\":6299:6361   */\n      mstore\n        /* \"#utility.yul\":6393:6395   */\n      0x60\n        /* \"#utility.yul\":6378:6396   */\n      add\n      swap1\n        /* \"#utility.yul\":6220:6402   */\n      jump\t// out\n        /* \"#utility.yul\":6407:6760   */\n    tag_245:\n        /* \"#utility.yul\":6609:6611   */\n      0x20\n        /* \"#utility.yul\":6591:6612   */\n      dup1\n      dup3\n      mstore\n        /* \"#utility.yul\":6648:6650   */\n      0x1d\n        /* \"#utility.yul\":6628:6646   */\n      swap1\n      dup3\n      add\n        /* \"#utility.yul\":6621:6651   */\n      mstore\n        /* \"#utility.yul\":6687:6718   */\n      0x416464726573733a2063616c6c20746f206e6f6e2d636f6e7472616374000000\n        /* \"#utility.yul\":6682:6684   */\n      0x40\n        /* \"#utility.yul\":6667:6685   */\n      dup3\n      add\n        /* \"#utility.yul\":6660:6719   */\n      mstore\n        /* \"#utility.yul\":6751:6753   */\n      0x60\n        /* \"#utility.yul\":6736:6754   */\n      add\n      swap1\n        /* \"#utility.yul\":6581:6760   */\n      jump\t// out\n        /* \"#utility.yul\":6765:7171   */\n    tag_214:\n        /* \"#utility.yul\":6967:6969   */\n      0x20\n        /* \"#utility.yul\":6949:6970   */\n      dup1\n      dup3\n      mstore\n        /* \"#utility.yul\":7006:7008   */\n      0x2a\n        /* \"#utility.yul\":6986:7004   */\n      swap1\n      dup3\n      add\n        /* \"#utility.yul\":6979:7009   */\n      mstore\n        /* \"#utility.yul\":7045:7079   */\n      0x5361666545524332303a204552433230206f7065726174696f6e20646964206e\n        /* \"#utility.yul\":7040:7042   */\n      0x40\n        /* \"#utility.yul\":7025:7043   */\n      dup3\n      add\n        /* \"#utility.yul\":7018:7080   */\n      mstore\n      shl(0xb2, 0x1bdd081cdd58d8d95959)\n        /* \"#utility.yul\":7111:7113   */\n      0x60\n        /* \"#utility.yul\":7096:7114   */\n      dup3\n      add\n        /* \"#utility.yul\":7089:7129   */\n      mstore\n        /* \"#utility.yul\":7161:7164   */\n      0x80\n        /* \"#utility.yul\":7146:7165   */\n      add\n      swap1\n        /* \"#utility.yul\":6939:7171   */\n      jump\t// out\n        /* \"#utility.yul\":7176:7636   */\n    tag_123:\n      0x00\n        /* \"#utility.yul\":7407:7413   */\n      dup6\n        /* \"#utility.yul\":7396:7405   */\n      dup3\n        /* \"#utility.yul\":7389:7414   */\n      mstore\n        /* \"#utility.yul\":7450:7456   */\n      dup5\n        /* \"#utility.yul\":7445:7447   */\n      0x20\n        /* \"#utility.yul\":7434:7443   */\n      dup4\n        /* \"#utility.yul\":7430:7448   */\n      add\n        /* \"#utility.yul\":7423:7457   */\n      mstore\n        /* \"#utility.yul\":7522:7523   */\n      0x01\n        /* \"#utility.yul\":7518:7519   */\n      dup1\n        /* \"#utility.yul\":7513:7516   */\n      0xa0\n        /* \"#utility.yul\":7509:7520   */\n      shl\n        /* \"#utility.yul\":7505:7524   */\n      sub\n        /* \"#utility.yul\":7497:7503   */\n      dup5\n        /* \"#utility.yul\":7493:7525   */\n      and\n        /* \"#utility.yul\":7488:7490   */\n      0x40\n        /* \"#utility.yul\":7477:7486   */\n      dup4\n        /* \"#utility.yul\":7473:7491   */\n      add\n        /* \"#utility.yul\":7466:7526   */\n      mstore\n        /* \"#utility.yul\":7562:7565   */\n      0x80\n        /* \"#utility.yul\":7557:7559   */\n      0x60\n        /* \"#utility.yul\":7546:7555   */\n      dup4\n        /* \"#utility.yul\":7542:7560   */\n      add\n        /* \"#utility.yul\":7535:7566   */\n      mstore\n        /* \"#utility.yul\":7583:7630   */\n      tag_314\n        /* \"#utility.yul\":7625:7628   */\n      0x80\n        /* \"#utility.yul\":7614:7623   */\n      dup4\n        /* \"#utility.yul\":7610:7629   */\n      add\n        /* \"#utility.yul\":7602:7608   */\n      dup5\n        /* \"#utility.yul\":7583:7630   */\n      tag_295\n      jump\t// in\n    tag_314:\n        /* \"#utility.yul\":7575:7630   */\n      swap7\n        /* \"#utility.yul\":7379:7636   */\n      swap6\n      pop\n      pop\n      pop\n      pop\n      pop\n      pop\n      jump\t// out\n        /* \"#utility.yul\":7641:7769   */\n    tag_217:\n      0x00\n        /* \"#utility.yul\":7712:7713   */\n      dup3\n        /* \"#utility.yul\":7708:7714   */\n      not\n        /* \"#utility.yul\":7705:7706   */\n      dup3\n        /* \"#utility.yul\":7702:7715   */\n      gt\n        /* \"#utility.yul\":7699:7701   */\n      iszero\n      tag_317\n      jumpi\n        /* \"#utility.yul\":7718:7736   */\n      tag_317\n      tag_318\n      jump\t// in\n    tag_317:\n      pop\n        /* \"#utility.yul\":7754:7763   */\n      add\n      swap1\n        /* \"#utility.yul\":7689:7769   */\n      jump\t// out\n        /* \"#utility.yul\":7774:7991   */\n    tag_181:\n      0x00\n        /* \"#utility.yul\":7840:7841   */\n      dup3\n        /* \"#utility.yul\":7830:7832   */\n      tag_320\n      jumpi\n      shl(0xe0, 0x4e487b71)\n        /* \"#utility.yul\":7865:7896   */\n      dup2\n      mstore\n        /* \"#utility.yul\":7919:7923   */\n      0x12\n        /* \"#utility.yul\":7916:7917   */\n      0x04\n        /* \"#utility.yul\":7909:7924   */\n      mstore\n        /* \"#utility.yul\":7947:7951   */\n      0x24\n        /* \"#utility.yul\":7872:7873   */\n      dup2\n        /* \"#utility.yul\":7937:7952   */\n      revert\n        /* \"#utility.yul\":7830:7832   */\n    tag_320:\n      pop\n        /* \"#utility.yul\":7976:7985   */\n      div\n      swap1\n        /* \"#utility.yul\":7820:7991   */\n      jump\t// out\n        /* \"#utility.yul\":7996:8164   */\n    tag_178:\n      0x00\n        /* \"#utility.yul\":8102:8103   */\n      dup2\n        /* \"#utility.yul\":8098:8099   */\n      0x00\n        /* \"#utility.yul\":8094:8100   */\n      not\n        /* \"#utility.yul\":8090:8104   */\n      div\n        /* \"#utility.yul\":8087:8088   */\n      dup4\n        /* \"#utility.yul\":8084:8105   */\n      gt\n        /* \"#utility.yul\":8079:8080   */\n      dup3\n        /* \"#utility.yul\":8072:8081   */\n      iszero\n        /* \"#utility.yul\":8065:8082   */\n      iszero\n        /* \"#utility.yul\":8061:8106   */\n      and\n        /* \"#utility.yul\":8058:8060   */\n      iszero\n      tag_323\n      jumpi\n        /* \"#utility.yul\":8109:8127   */\n      tag_323\n      tag_318\n      jump\t// in\n    tag_323:\n      pop\n        /* \"#utility.yul\":8149:8158   */\n      mul\n      swap1\n        /* \"#utility.yul\":8048:8164   */\n      jump\t// out\n        /* \"#utility.yul\":8169:8294   */\n    tag_184:\n      0x00\n        /* \"#utility.yul\":8237:8238   */\n      dup3\n        /* \"#utility.yul\":8234:8235   */\n      dup3\n        /* \"#utility.yul\":8231:8239   */\n      lt\n        /* \"#utility.yul\":8228:8230   */\n      iszero\n      tag_326\n      jumpi\n        /* \"#utility.yul\":8242:8260   */\n      tag_326\n      tag_318\n      jump\t// in\n    tag_326:\n      pop\n        /* \"#utility.yul\":8279:8288   */\n      sub\n      swap1\n        /* \"#utility.yul\":8218:8294   */\n      jump\t// out\n        /* \"#utility.yul\":8299:8557   */\n    tag_298:\n        /* \"#utility.yul\":8371:8372   */\n      0x00\n        /* \"#utility.yul\":8381:8494   */\n    tag_328:\n        /* \"#utility.yul\":8395:8401   */\n      dup4\n        /* \"#utility.yul\":8392:8393   */\n      dup2\n        /* \"#utility.yul\":8389:8402   */\n      lt\n        /* \"#utility.yul\":8381:8494   */\n      iszero\n      tag_330\n      jumpi\n        /* \"#utility.yul\":8471:8482   */\n      dup2\n      dup2\n      add\n        /* \"#utility.yul\":8465:8483   */\n      mload\n        /* \"#utility.yul\":8452:8463   */\n      dup4\n      dup3\n      add\n        /* \"#utility.yul\":8445:8484   */\n      mstore\n        /* \"#utility.yul\":8417:8419   */\n      0x20\n        /* \"#utility.yul\":8410:8420   */\n      add\n        /* \"#utility.yul\":8381:8494   */\n      jump(tag_328)\n    tag_330:\n        /* \"#utility.yul\":8512:8518   */\n      dup4\n        /* \"#utility.yul\":8509:8510   */\n      dup2\n        /* \"#utility.yul\":8506:8519   */\n      gt\n        /* \"#utility.yul\":8503:8505   */\n      iszero\n      tag_163\n      jumpi\n      pop\n      pop\n        /* \"#utility.yul\":8547:8548   */\n      0x00\n        /* \"#utility.yul\":8529:8545   */\n      swap2\n      add\n        /* \"#utility.yul\":8522:8549   */\n      mstore\n        /* \"#utility.yul\":8352:8557   */\n      jump\t// out\n        /* \"#utility.yul\":8562:8689   */\n    tag_318:\n        /* \"#utility.yul\":8623:8633   */\n      0x4e487b71\n        /* \"#utility.yul\":8618:8621   */\n      0xe0\n        /* \"#utility.yul\":8614:8634   */\n      shl\n        /* \"#utility.yul\":8611:8612   */\n      0x00\n        /* \"#utility.yul\":8604:8635   */\n      mstore\n        /* \"#utility.yul\":8654:8658   */\n      0x11\n        /* \"#utility.yul\":8651:8652   */\n      0x04\n        /* \"#utility.yul\":8644:8659   */\n      mstore\n        /* \"#utility.yul\":8678:8682   */\n      0x24\n        /* \"#utility.yul\":8675:8676   */\n      0x00\n        /* \"#utility.yul\":8668:8683   */\n      revert\n        /* \"#utility.yul\":8694:8827   */\n    tag_268:\n      sub(shl(0xa0, 0x01), 0x01)\n        /* \"#utility.yul\":8771:8802   */\n      dup2\n      and\n        /* \"#utility.yul\":8761:8803   */\n      dup2\n      eq\n        /* \"#utility.yul\":8751:8753   */\n      tag_173\n      jumpi\n        /* \"#utility.yul\":8817:8818   */\n      0x00\n        /* \"#utility.yul\":8814:8815   */\n      dup1\n        /* \"#utility.yul\":8807:8819   */\n      revert\n        /* \"#utility.yul\":8832:8952   */\n    tag_281:\n        /* \"#utility.yul\":8920:8925   */\n      dup1\n        /* \"#utility.yul\":8913:8926   */\n      iszero\n        /* \"#utility.yul\":8906:8927   */\n      iszero\n        /* \"#utility.yul\":8899:8904   */\n      dup2\n        /* \"#utility.yul\":8896:8928   */\n      eq\n        /* \"#utility.yul\":8886:8888   */\n      tag_173\n      jumpi\n        /* \"#utility.yul\":8942:8943   */\n      0x00\n        /* \"#utility.yul\":8939:8940   */\n      dup1\n        /* \"#utility.yul\":8932:8944   */\n      revert\n\n    auxdata: 0xa2646970667358221220b79e8818bb73e744c120a4dc4e89d4466bb371399833e061c780ceeed9e0130e64736f6c63430008000033\n}\n",
				"bytecode": {
					"linkReferences": {},
					"object": "608060405234801561001057600080fd5b5061131c806100206000396000f3fe608060405234801561001057600080fd5b50600436106100a95760003560e01c8063796c7be711610071578063796c7be7146101115780637e6f7a09146101195780638da5cb5b14610121578063930ed03314610129578063c0c53b8b1461013c578063f2fde38b1461014f576100a9565b80631e1bff3f146100ae5780633011d3d5146100d75780633e413bee146100ec57806348c7e528146100f4578063715018a614610107575b600080fd5b6100c16100bc366004610e9b565b610162565b6040516100ce9190610fea565b60405180910390f35b6100df6101db565b6040516100ce9190610fbd565b6100df6101ea565b6100c1610102366004610e19565b6101f9565b61010f61020e565b005b6100c1610259565b6100df61081d565b6100df61082c565b6100c1610137366004610ed3565b61083b565b61010f61014a366004610e51565b610899565b61010f61015d366004610e19565b610956565b600061016c6109c7565b6001600160a01b031661017d61082c565b6001600160a01b0316146101ac5760405162461bcd60e51b81526004016101a390611126565b60405180910390fd5b506001600160a01b0382166000908152606560205260409020805482151560ff19909116179055600192915050565b6068546001600160a01b031681565b6067546001600160a01b031681565b60656020526000908152604090205460ff1681565b6102166109c7565b6001600160a01b031661022761082c565b6001600160a01b03161461024d5760405162461bcd60e51b81526004016101a390611126565b61025760006109cb565b565b3360009081526065602052604081205460ff166102885760405162461bcd60e51b81526004016101a39061104e565b600080606660009054906101000a90046001600160a01b03166001600160a01b0316630902f1ac6040518163ffffffff1660e01b815260040160606040518083038186803b1580156102d957600080fd5b505afa1580156102ed573d6000803e3d6000fd5b505050506040513d601f19601f820116820180604052508101906103119190610f1a565b506001600160701b031691506001600160701b031691506000606660009054906101000a90046001600160a01b03166001600160a01b0316630dfe16816040518163ffffffff1660e01b815260040160206040518083038186803b15801561037857600080fd5b505afa15801561038c573d6000803e3d6000fd5b505050506040513d601f19601f820116820180604052508101906103b09190610e35565b60685490915060009081906001600160a01b038085169116146103d45784846103d7565b83855b6067546066546040516370a0823160e01b81529395509193506000926001600160a01b03918216926370a082319261041492911690600401610fbd565b60206040518083038186803b15801561042c57600080fd5b505afa158015610440573d6000803e3d6000fd5b505050506040513d601f19601f820116820180604052508101906104649190610f5d565b6068546066546040516370a0823160e01b81529293506000926001600160a01b03928316926370a082319261049e92911690600401610fbd565b60206040518083038186803b1580156104b657600080fd5b505afa1580156104ca573d6000803e3d6000fd5b505050506040513d601f19601f820116820180604052508101906104ee9190610f5d565b9050600061050e8261050885670de0b6b3a7640000610a1d565b90610a30565b9050670de0b6b3a764000081111561068357600061052c8484610a3c565b6068546040516340c10f1960e01b81529192506001600160a01b0316906340c10f199061055f9030908590600401610fd1565b602060405180830381600087803b15801561057957600080fd5b505af115801561058d573d6000803e3d6000fd5b505050506040513d601f19601f820116820180604052508101906105b19190610efe565b506066546068546105cf916001600160a01b03918216911683610a48565b60006105dc828789610aa3565b60685490915060009081906001600160a01b038b811691161461060157826000610605565b6000835b6066546040805160008152602081019182905263022c0d9f60e01b9091529294509092506001600160a01b03169063022c0d9f9061064c90859085903090602481016111dc565b600060405180830381600087803b15801561066657600080fd5b505af115801561067a573d6000803e3d6000fd5b50505050505050505b670de0b6b3a764000081101561080e57600061069f8385610a3c565b6067546040516370a0823160e01b81529192506000916001600160a01b03909116906370a08231906106d5903090600401610fbd565b60206040518083038186803b1580156106ed57600080fd5b505afa158015610701573d6000803e3d6000fd5b505050506040513d601f19601f820116820180604052508101906107259190610f5d565b905060008183111561073857508061073b565b50815b606654606754610758916001600160a01b03918216911683610a48565b6000610765828a8a610aa3565b60675490915060009081906001600160a01b038d811691161461078a5782600061078e565b6000835b6066546040805160008152602081019182905263022c0d9f60e01b9091529294509092506001600160a01b03169063022c0d9f906107d590859085903090602481016111dc565b600060405180830381600087803b1580156107ef57600080fd5b505af1158015610803573d6000803e3d6000fd5b505050505050505050505b60019850505050505050505090565b6066546001600160a01b031681565b6033546001600160a01b031690565b60006108456109c7565b6001600160a01b031661085661082c565b6001600160a01b03161461087c5760405162461bcd60e51b81526004016101a390611126565b6108906001600160a01b0384163384610a48565b50600192915050565b600054610100900460ff16806108b2575060005460ff16155b6108ce5760405162461bcd60e51b81526004016101a3906110d8565b600054610100900460ff161580156108f9576000805460ff1961ff0019909116610100171660011790555b610901610af1565b606680546001600160a01b038087166001600160a01b0319928316179092556067805486841690831617905560688054928516929091169190911790558015610950576000805461ff00191690555b50505050565b61095e6109c7565b6001600160a01b031661096f61082c565b6001600160a01b0316146109955760405162461bcd60e51b81526004016101a390611126565b6001600160a01b0381166109bb5760405162461bcd60e51b81526004016101a390611008565b6109c4816109cb565b50565b3390565b603380546001600160a01b038381166001600160a01b0319831681179093556040519116919082907f8be0079c531659141344cd1fd0a4f28419497f9722a3daafe3b4186f6b6457e090600090a35050565b6000610a29828461124b565b9392505050565b6000610a29828461122b565b6000610a29828461126a565b610a9e8363a9059cbb60e01b8484604051602401610a67929190610fd1565b60408051601f198184030181529190526020810180516001600160e01b03166001600160e01b031990931692909217909152610b75565b505050565b600080610ab2856126f2610a1d565b90506000610ac08285610a1d565b90506000610ada83610ad488612710610a1d565b90610c04565b9050610ae6818361122b565b979650505050505050565b600054610100900460ff1680610b0a575060005460ff16155b610b265760405162461bcd60e51b81526004016101a3906110d8565b600054610100900460ff16158015610b51576000805460ff1961ff0019909116610100171660011790555b610b59610c10565b610b61610c83565b80156109c4576000805461ff001916905550565b6000610bca826040518060400160405280602081526020017f5361666545524332303a206c6f772d6c6576656c2063616c6c206661696c6564815250856001600160a01b0316610cf39092919063ffffffff16565b805190915015610a9e5780806020019051810190610be89190610efe565b610a9e5760405162461bcd60e51b81526004016101a390611192565b6000610a298284611213565b600054610100900460ff1680610c29575060005460ff16155b610c455760405162461bcd60e51b81526004016101a3906110d8565b600054610100900460ff16158015610b61576000805460ff1961ff00199091166101001716600117905580156109c4576000805461ff001916905550565b600054610100900460ff1680610c9c575060005460ff16155b610cb85760405162461bcd60e51b81526004016101a3906110d8565b600054610100900460ff16158015610ce3576000805460ff1961ff0019909116610100171660011790555b610b61610cee6109c7565b6109cb565b6060610d028484600085610d0a565b949350505050565b606082471015610d2c5760405162461bcd60e51b81526004016101a390611092565b610d3585610dbf565b610d515760405162461bcd60e51b81526004016101a39061115b565b600080866001600160a01b03168587604051610d6d9190610fa1565b60006040518083038185875af1925050503d8060008114610daa576040519150601f19603f3d011682016040523d82523d6000602084013e610daf565b606091505b5091509150610ae6828286610dc9565b803b15155b919050565b60608315610dd8575081610a29565b825115610de85782518084602001fd5b8160405162461bcd60e51b81526004016101a39190610ff5565b80516001600160701b0381168114610dc457600080fd5b600060208284031215610e2a578081fd5b8135610a29816112c3565b600060208284031215610e46578081fd5b8151610a29816112c3565b600080600060608486031215610e65578182fd5b8335610e70816112c3565b92506020840135610e80816112c3565b91506040840135610e90816112c3565b809150509250925092565b60008060408385031215610ead578182fd5b8235610eb8816112c3565b91506020830135610ec8816112d8565b809150509250929050565b60008060408385031215610ee5578182fd5b8235610ef0816112c3565b946020939093013593505050565b600060208284031215610f0f578081fd5b8151610a29816112d8565b600080600060608486031215610f2e578283fd5b610f3784610e02565b9250610f4560208501610e02565b9150604084015163ffffffff81168114610e90578182fd5b600060208284031215610f6e578081fd5b5051919050565b60008151808452610f8d816020860160208601611281565b601f01601f19169290920160200192915050565b60008251610fb3818460208701611281565b9190910192915050565b6001600160a01b0391909116815260200190565b6001600160a01b03929092168252602082015260400190565b901515815260200190565b600060208252610a296020830184610f75565b60208082526026908201527f4f776e61626c653a206e6577206f776e657220697320746865207a65726f206160408201526564647265737360d01b606082015260800190565b60208082526024908201527f6578656375746f723a2063616c6c6572206973206e6f742074686520657865636040820152633aba37b960e11b606082015260800190565b60208082526026908201527f416464726573733a20696e73756666696369656e742062616c616e636520666f6040820152651c8818d85b1b60d21b606082015260800190565b6020808252602e908201527f496e697469616c697a61626c653a20636f6e747261637420697320616c72656160408201526d191e481a5b9a5d1a585b1a5e995960921b606082015260800190565b6020808252818101527f4f776e61626c653a2063616c6c6572206973206e6f7420746865206f776e6572604082015260600190565b6020808252601d908201527f416464726573733a2063616c6c20746f206e6f6e2d636f6e7472616374000000604082015260600190565b6020808252602a908201527f5361666545524332303a204552433230206f7065726174696f6e20646964206e6040820152691bdd081cdd58d8d9595960b21b606082015260800190565b600085825284602083015260018060a01b0384166040830152608060608301526112096080830184610f75565b9695505050505050565b60008219821115611226576112266112ad565b500190565b60008261124657634e487b7160e01b81526012600452602481fd5b500490565b6000816000190483118215151615611265576112656112ad565b500290565b60008282101561127c5761127c6112ad565b500390565b60005b8381101561129c578181015183820152602001611284565b838111156109505750506000910152565b634e487b7160e01b600052601160045260246000fd5b6001600160a01b03811681146109c457600080fd5b80151581146109c457600080fdfea2646970667358221220b79e8818bb73e744c120a4dc4e89d4466bb371399833e061c780ceeed9e0130e64736f6c63430008000033",
					"opcodes": "PUSH1 0x80 PUSH1 0x40 MSTORE CALLVALUE DUP1 ISZERO PUSH2 0x10 JUMPI PUSH1 0x0 DUP1 REVERT JUMPDEST POP PUSH2 0x131C DUP1 PUSH2 0x20 PUSH1 0x0 CODECOPY PUSH1 0x0 RETURN INVALID PUSH1 0x80 PUSH1 0x40 MSTORE CALLVALUE DUP1 ISZERO PUSH2 0x10 JUMPI PUSH1 0x0 DUP1 REVERT JUMPDEST POP PUSH1 0x4 CALLDATASIZE LT PUSH2 0xA9 JUMPI PUSH1 0x0 CALLDATALOAD PUSH1 0xE0 SHR DUP1 PUSH4 0x796C7BE7 GT PUSH2 0x71 JUMPI DUP1 PUSH4 0x796C7BE7 EQ PUSH2 0x111 JUMPI DUP1 PUSH4 0x7E6F7A09 EQ PUSH2 0x119 JUMPI DUP1 PUSH4 0x8DA5CB5B EQ PUSH2 0x121 JUMPI DUP1 PUSH4 0x930ED033 EQ PUSH2 0x129 JUMPI DUP1 PUSH4 0xC0C53B8B EQ PUSH2 0x13C JUMPI DUP1 PUSH4 0xF2FDE38B EQ PUSH2 0x14F JUMPI PUSH2 0xA9 JUMP JUMPDEST DUP1 PUSH4 0x1E1BFF3F EQ PUSH2 0xAE JUMPI DUP1 PUSH4 0x3011D3D5 EQ PUSH2 0xD7 JUMPI DUP1 PUSH4 0x3E413BEE EQ PUSH2 0xEC JUMPI DUP1 PUSH4 0x48C7E528 EQ PUSH2 0xF4 JUMPI DUP1 PUSH4 0x715018A6 EQ PUSH2 0x107 JUMPI JUMPDEST PUSH1 0x0 DUP1 REVERT JUMPDEST PUSH2 0xC1 PUSH2 0xBC CALLDATASIZE PUSH1 0x4 PUSH2 0xE9B JUMP JUMPDEST PUSH2 0x162 JUMP JUMPDEST PUSH1 0x40 MLOAD PUSH2 0xCE SWAP2 SWAP1 PUSH2 0xFEA JUMP JUMPDEST PUSH1 0x40 MLOAD DUP1 SWAP2 SUB SWAP1 RETURN JUMPDEST PUSH2 0xDF PUSH2 0x1DB JUMP JUMPDEST PUSH1 0x40 MLOAD PUSH2 0xCE SWAP2 SWAP1 PUSH2 0xFBD JUMP JUMPDEST PUSH2 0xDF PUSH2 0x1EA JUMP JUMPDEST PUSH2 0xC1 PUSH2 0x102 CALLDATASIZE PUSH1 0x4 PUSH2 0xE19 JUMP JUMPDEST PUSH2 0x1F9 JUMP JUMPDEST PUSH2 0x10F PUSH2 0x20E JUMP JUMPDEST STOP JUMPDEST PUSH2 0xC1 PUSH2 0x259 JUMP JUMPDEST PUSH2 0xDF PUSH2 0x81D JUMP JUMPDEST PUSH2 0xDF PUSH2 0x82C JUMP JUMPDEST PUSH2 0xC1 PUSH2 0x137 CALLDATASIZE PUSH1 0x4 PUSH2 0xED3 JUMP JUMPDEST PUSH2 0x83B JUMP JUMPDEST PUSH2 0x10F PUSH2 0x14A CALLDATASIZE PUSH1 0x4 PUSH2 0xE51 JUMP JUMPDEST PUSH2 0x899 JUMP JUMPDEST PUSH2 0x10F PUSH2 0x15D CALLDATASIZE PUSH1 0x4 PUSH2 0xE19 JUMP JUMPDEST PUSH2 0x956 JUMP JUMPDEST PUSH1 0x0 PUSH2 0x16C PUSH2 0x9C7 JUMP JUMPDEST PUSH1 0x1 PUSH1 0x1 PUSH1 0xA0 SHL SUB AND PUSH2 0x17D PUSH2 0x82C JUMP JUMPDEST PUSH1 0x1 PUSH1 0x1 PUSH1 0xA0 SHL SUB AND EQ PUSH2 0x1AC JUMPI PUSH1 0x40 MLOAD PUSH3 0x461BCD PUSH1 0xE5 SHL DUP2 MSTORE PUSH1 0x4 ADD PUSH2 0x1A3 SWAP1 PUSH2 0x1126 JUMP JUMPDEST PUSH1 0x40 MLOAD DUP1 SWAP2 SUB SWAP1 REVERT JUMPDEST POP PUSH1 0x1 PUSH1 0x1 PUSH1 0xA0 SHL SUB DUP3 AND PUSH1 0x0 SWAP1 DUP2 MSTORE PUSH1 0x65 PUSH1 0x20 MSTORE PUSH1 0x40 SWAP1 KECCAK256 DUP1 SLOAD DUP3 ISZERO ISZERO PUSH1 0xFF NOT SWAP1 SWAP2 AND OR SWAP1 SSTORE PUSH1 0x1 SWAP3 SWAP2 POP POP JUMP JUMPDEST PUSH1 0x68 SLOAD PUSH1 0x1 PUSH1 0x1 PUSH1 0xA0 SHL SUB AND DUP2 JUMP JUMPDEST PUSH1 0x67 SLOAD PUSH1 0x1 PUSH1 0x1 PUSH1 0xA0 SHL SUB AND DUP2 JUMP JUMPDEST PUSH1 0x65 PUSH1 0x20 MSTORE PUSH1 0x0 SWAP1 DUP2 MSTORE PUSH1 0x40 SWAP1 KECCAK256 SLOAD PUSH1 0xFF AND DUP2 JUMP JUMPDEST PUSH2 0x216 PUSH2 0x9C7 JUMP JUMPDEST PUSH1 0x1 PUSH1 0x1 PUSH1 0xA0 SHL SUB AND PUSH2 0x227 PUSH2 0x82C JUMP JUMPDEST PUSH1 0x1 PUSH1 0x1 PUSH1 0xA0 SHL SUB AND EQ PUSH2 0x24D JUMPI PUSH1 0x40 MLOAD PUSH3 0x461BCD PUSH1 0xE5 SHL DUP2 MSTORE PUSH1 0x4 ADD PUSH2 0x1A3 SWAP1 PUSH2 0x1126 JUMP JUMPDEST PUSH2 0x257 PUSH1 0x0 PUSH2 0x9CB JUMP JUMPDEST JUMP JUMPDEST CALLER PUSH1 0x0 SWAP1 DUP2 MSTORE PUSH1 0x65 PUSH1 0x20 MSTORE PUSH1 0x40 DUP2 KECCAK256 SLOAD PUSH1 0xFF AND PUSH2 0x288 JUMPI PUSH1 0x40 MLOAD PUSH3 0x461BCD PUSH1 0xE5 SHL DUP2 MSTORE PUSH1 0x4 ADD PUSH2 0x1A3 SWAP1 PUSH2 0x104E JUMP JUMPDEST PUSH1 0x0 DUP1 PUSH1 0x66 PUSH1 0x0 SWAP1 SLOAD SWAP1 PUSH2 0x100 EXP SWAP1 DIV PUSH1 0x1 PUSH1 0x1 PUSH1 0xA0 SHL SUB AND PUSH1 0x1 PUSH1 0x1 PUSH1 0xA0 SHL SUB AND PUSH4 0x902F1AC PUSH1 0x40 MLOAD DUP2 PUSH4 0xFFFFFFFF AND PUSH1 0xE0 SHL DUP2 MSTORE PUSH1 0x4 ADD PUSH1 0x60 PUSH1 0x40 MLOAD DUP1 DUP4 SUB DUP2 DUP7 DUP1 EXTCODESIZE ISZERO DUP1 ISZERO PUSH2 0x2D9 JUMPI PUSH1 0x0 DUP1 REVERT JUMPDEST POP GAS STATICCALL ISZERO DUP1 ISZERO PUSH2 0x2ED JUMPI RETURNDATASIZE PUSH1 0x0 DUP1 RETURNDATACOPY RETURNDATASIZE PUSH1 0x0 REVERT JUMPDEST POP POP POP POP PUSH1 0x40 MLOAD RETURNDATASIZE PUSH1 0x1F NOT PUSH1 0x1F DUP3 ADD AND DUP3 ADD DUP1 PUSH1 0x40 MSTORE POP DUP2 ADD SWAP1 PUSH2 0x311 SWAP2 SWAP1 PUSH2 0xF1A JUMP JUMPDEST POP PUSH1 0x1 PUSH1 0x1 PUSH1 0x70 SHL SUB AND SWAP2 POP PUSH1 0x1 PUSH1 0x1 PUSH1 0x70 SHL SUB AND SWAP2 POP PUSH1 0x0 PUSH1 0x66 PUSH1 0x0 SWAP1 SLOAD SWAP1 PUSH2 0x100 EXP SWAP1 DIV PUSH1 0x1 PUSH1 0x1 PUSH1 0xA0 SHL SUB AND PUSH1 0x1 PUSH1 0x1 PUSH1 0xA0 SHL SUB AND PUSH4 0xDFE1681 PUSH1 0x40 MLOAD DUP2 PUSH4 0xFFFFFFFF AND PUSH1 0xE0 SHL DUP2 MSTORE PUSH1 0x4 ADD PUSH1 0x20 PUSH1 0x40 MLOAD DUP1 DUP4 SUB DUP2 DUP7 DUP1 EXTCODESIZE ISZERO DUP1 ISZERO PUSH2 0x378 JUMPI PUSH1 0x0 DUP1 REVERT JUMPDEST POP GAS STATICCALL ISZERO DUP1 ISZERO PUSH2 0x38C JUMPI RETURNDATASIZE PUSH1 0x0 DUP1 RETURNDATACOPY RETURNDATASIZE PUSH1 0x0 REVERT JUMPDEST POP POP POP POP PUSH1 0x40 MLOAD RETURNDATASIZE PUSH1 0x1F NOT PUSH1 0x1F DUP3 ADD AND DUP3 ADD DUP1 PUSH1 0x40 MSTORE POP DUP2 ADD SWAP1 PUSH2 0x3B0 SWAP2 SWAP1 PUSH2 0xE35 JUMP JUMPDEST PUSH1 0x68 SLOAD SWAP1 SWAP2 POP PUSH1 0x0 SWAP1 DUP2 SWAP1 PUSH1 0x1 PUSH1 0x1 PUSH1 0xA0 SHL SUB DUP1 DUP6 AND SWAP2 AND EQ PUSH2 0x3D4 JUMPI DUP5 DUP5 PUSH2 0x3D7 JUMP JUMPDEST DUP4 DUP6 JUMPDEST PUSH1 0x67 SLOAD PUSH1 0x66 SLOAD PUSH1 0x40 MLOAD PUSH4 0x70A08231 PUSH1 0xE0 SHL DUP2 MSTORE SWAP4 SWAP6 POP SWAP2 SWAP4 POP PUSH1 0x0 SWAP3 PUSH1 0x1 PUSH1 0x1 PUSH1 0xA0 SHL SUB SWAP2 DUP3 AND SWAP3 PUSH4 0x70A08231 SWAP3 PUSH2 0x414 SWAP3 SWAP2 AND SWAP1 PUSH1 0x4 ADD PUSH2 0xFBD JUMP JUMPDEST PUSH1 0x20 PUSH1 0x40 MLOAD DUP1 DUP4 SUB DUP2 DUP7 DUP1 EXTCODESIZE ISZERO DUP1 ISZERO PUSH2 0x42C JUMPI PUSH1 0x0 DUP1 REVERT JUMPDEST POP GAS STATICCALL ISZERO DUP1 ISZERO PUSH2 0x440 JUMPI RETURNDATASIZE PUSH1 0x0 DUP1 RETURNDATACOPY RETURNDATASIZE PUSH1 0x0 REVERT JUMPDEST POP POP POP POP PUSH1 0x40 MLOAD RETURNDATASIZE PUSH1 0x1F NOT PUSH1 0x1F DUP3 ADD AND DUP3 ADD DUP1 PUSH1 0x40 MSTORE POP DUP2 ADD SWAP1 PUSH2 0x464 SWAP2 SWAP1 PUSH2 0xF5D JUMP JUMPDEST PUSH1 0x68 SLOAD PUSH1 0x66 SLOAD PUSH1 0x40 MLOAD PUSH4 0x70A08231 PUSH1 0xE0 SHL DUP2 MSTORE SWAP3 SWAP4 POP PUSH1 0x0 SWAP3 PUSH1 0x1 PUSH1 0x1 PUSH1 0xA0 SHL SUB SWAP3 DUP4 AND SWAP3 PUSH4 0x70A08231 SWAP3 PUSH2 0x49E SWAP3 SWAP2 AND SWAP1 PUSH1 0x4 ADD PUSH2 0xFBD JUMP JUMPDEST PUSH1 0x20 PUSH1 0x40 MLOAD DUP1 DUP4 SUB DUP2 DUP7 DUP1 EXTCODESIZE ISZERO DUP1 ISZERO PUSH2 0x4B6 JUMPI PUSH1 0x0 DUP1 REVERT JUMPDEST POP GAS STATICCALL ISZERO DUP1 ISZERO PUSH2 0x4CA JUMPI RETURNDATASIZE PUSH1 0x0 DUP1 RETURNDATACOPY RETURNDATASIZE PUSH1 0x0 REVERT JUMPDEST POP POP POP POP PUSH1 0x40 MLOAD RETURNDATASIZE PUSH1 0x1F NOT PUSH1 0x1F DUP3 ADD AND DUP3 ADD DUP1 PUSH1 0x40 MSTORE POP DUP2 ADD SWAP1 PUSH2 0x4EE SWAP2 SWAP1 PUSH2 0xF5D JUMP JUMPDEST SWAP1 POP PUSH1 0x0 PUSH2 0x50E DUP3 PUSH2 0x508 DUP6 PUSH8 0xDE0B6B3A7640000 PUSH2 0xA1D JUMP JUMPDEST SWAP1 PUSH2 0xA30 JUMP JUMPDEST SWAP1 POP PUSH8 0xDE0B6B3A7640000 DUP2 GT ISZERO PUSH2 0x683 JUMPI PUSH1 0x0 PUSH2 0x52C DUP5 DUP5 PUSH2 0xA3C JUMP JUMPDEST PUSH1 0x68 SLOAD PUSH1 0x40 MLOAD PUSH4 0x40C10F19 PUSH1 0xE0 SHL DUP2 MSTORE SWAP2 SWAP3 POP PUSH1 0x1 PUSH1 0x1 PUSH1 0xA0 SHL SUB AND SWAP1 PUSH4 0x40C10F19 SWAP1 PUSH2 0x55F SWAP1 ADDRESS SWAP1 DUP6 SWAP1 PUSH1 0x4 ADD PUSH2 0xFD1 JUMP JUMPDEST PUSH1 0x20 PUSH1 0x40 MLOAD DUP1 DUP4 SUB DUP2 PUSH1 0x0 DUP8 DUP1 EXTCODESIZE ISZERO DUP1 ISZERO PUSH2 0x579 JUMPI PUSH1 0x0 DUP1 REVERT JUMPDEST POP GAS CALL ISZERO DUP1 ISZERO PUSH2 0x58D JUMPI RETURNDATASIZE PUSH1 0x0 DUP1 RETURNDATACOPY RETURNDATASIZE PUSH1 0x0 REVERT JUMPDEST POP POP POP POP PUSH1 0x40 MLOAD RETURNDATASIZE PUSH1 0x1F NOT PUSH1 0x1F DUP3 ADD AND DUP3 ADD DUP1 PUSH1 0x40 MSTORE POP DUP2 ADD SWAP1 PUSH2 0x5B1 SWAP2 SWAP1 PUSH2 0xEFE JUMP JUMPDEST POP PUSH1 0x66 SLOAD PUSH1 0x68 SLOAD PUSH2 0x5CF SWAP2 PUSH1 0x1 PUSH1 0x1 PUSH1 0xA0 SHL SUB SWAP2 DUP3 AND SWAP2 AND DUP4 PUSH2 0xA48 JUMP JUMPDEST PUSH1 0x0 PUSH2 0x5DC DUP3 DUP8 DUP10 PUSH2 0xAA3 JUMP JUMPDEST PUSH1 0x68 SLOAD SWAP1 SWAP2 POP PUSH1 0x0 SWAP1 DUP2 SWAP1 PUSH1 0x1 PUSH1 0x1 PUSH1 0xA0 SHL SUB DUP12 DUP2 AND SWAP2 AND EQ PUSH2 0x601 JUMPI DUP3 PUSH1 0x0 PUSH2 0x605 JUMP JUMPDEST PUSH1 0x0 DUP4 JUMPDEST PUSH1 0x66 SLOAD PUSH1 0x40 DUP1 MLOAD PUSH1 0x0 DUP2 MSTORE PUSH1 0x20 DUP2 ADD SWAP2 DUP3 SWAP1 MSTORE PUSH4 0x22C0D9F PUSH1 0xE0 SHL SWAP1 SWAP2 MSTORE SWAP3 SWAP5 POP SWAP1 SWAP3 POP PUSH1 0x1 PUSH1 0x1 PUSH1 0xA0 SHL SUB AND SWAP1 PUSH4 0x22C0D9F SWAP1 PUSH2 0x64C SWAP1 DUP6 SWAP1 DUP6 SWAP1 ADDRESS SWAP1 PUSH1 0x24 DUP2 ADD PUSH2 0x11DC JUMP JUMPDEST PUSH1 0x0 PUSH1 0x40 MLOAD DUP1 DUP4 SUB DUP2 PUSH1 0x0 DUP8 DUP1 EXTCODESIZE ISZERO DUP1 ISZERO PUSH2 0x666 JUMPI PUSH1 0x0 DUP1 REVERT JUMPDEST POP GAS CALL ISZERO DUP1 ISZERO PUSH2 0x67A JUMPI RETURNDATASIZE PUSH1 0x0 DUP1 RETURNDATACOPY RETURNDATASIZE PUSH1 0x0 REVERT JUMPDEST POP POP POP POP POP POP POP POP JUMPDEST PUSH8 0xDE0B6B3A7640000 DUP2 LT ISZERO PUSH2 0x80E JUMPI PUSH1 0x0 PUSH2 0x69F DUP4 DUP6 PUSH2 0xA3C JUMP JUMPDEST PUSH1 0x67 SLOAD PUSH1 0x40 MLOAD PUSH4 0x70A08231 PUSH1 0xE0 SHL DUP2 MSTORE SWAP2 SWAP3 POP PUSH1 0x0 SWAP2 PUSH1 0x1 PUSH1 0x1 PUSH1 0xA0 SHL SUB SWAP1 SWAP2 AND SWAP1 PUSH4 0x70A08231 SWAP1 PUSH2 0x6D5 SWAP1 ADDRESS SWAP1 PUSH1 0x4 ADD PUSH2 0xFBD JUMP JUMPDEST PUSH1 0x20 PUSH1 0x40 MLOAD DUP1 DUP4 SUB DUP2 DUP7 DUP1 EXTCODESIZE ISZERO DUP1 ISZERO PUSH2 0x6ED JUMPI PUSH1 0x0 DUP1 REVERT JUMPDEST POP GAS STATICCALL ISZERO DUP1 ISZERO PUSH2 0x701 JUMPI RETURNDATASIZE PUSH1 0x0 DUP1 RETURNDATACOPY RETURNDATASIZE PUSH1 0x0 REVERT JUMPDEST POP POP POP POP PUSH1 0x40 MLOAD RETURNDATASIZE PUSH1 0x1F NOT PUSH1 0x1F DUP3 ADD AND DUP3 ADD DUP1 PUSH1 0x40 MSTORE POP DUP2 ADD SWAP1 PUSH2 0x725 SWAP2 SWAP1 PUSH2 0xF5D JUMP JUMPDEST SWAP1 POP PUSH1 0x0 DUP2 DUP4 GT ISZERO PUSH2 0x738 JUMPI POP DUP1 PUSH2 0x73B JUMP JUMPDEST POP DUP2 JUMPDEST PUSH1 0x66 SLOAD PUSH1 0x67 SLOAD PUSH2 0x758 SWAP2 PUSH1 0x1 PUSH1 0x1 PUSH1 0xA0 SHL SUB SWAP2 DUP3 AND SWAP2 AND DUP4 PUSH2 0xA48 JUMP JUMPDEST PUSH1 0x0 PUSH2 0x765 DUP3 DUP11 DUP11 PUSH2 0xAA3 JUMP JUMPDEST PUSH1 0x67 SLOAD SWAP1 SWAP2 POP PUSH1 0x0 SWAP1 DUP2 SWAP1 PUSH1 0x1 PUSH1 0x1 PUSH1 0xA0 SHL SUB DUP14 DUP2 AND SWAP2 AND EQ PUSH2 0x78A JUMPI DUP3 PUSH1 0x0 PUSH2 0x78E JUMP JUMPDEST PUSH1 0x0 DUP4 JUMPDEST PUSH1 0x66 SLOAD PUSH1 0x40 DUP1 MLOAD PUSH1 0x0 DUP2 MSTORE PUSH1 0x20 DUP2 ADD SWAP2 DUP3 SWAP1 MSTORE PUSH4 0x22C0D9F PUSH1 0xE0 SHL SWAP1 SWAP2 MSTORE SWAP3 SWAP5 POP SWAP1 SWAP3 POP PUSH1 0x1 PUSH1 0x1 PUSH1 0xA0 SHL SUB AND SWAP1 PUSH4 0x22C0D9F SWAP1 PUSH2 0x7D5 SWAP1 DUP6 SWAP1 DUP6 SWAP1 ADDRESS SWAP1 PUSH1 0x24 DUP2 ADD PUSH2 0x11DC JUMP JUMPDEST PUSH1 0x0 PUSH1 0x40 MLOAD DUP1 DUP4 SUB DUP2 PUSH1 0x0 DUP8 DUP1 EXTCODESIZE ISZERO DUP1 ISZERO PUSH2 0x7EF JUMPI PUSH1 0x0 DUP1 REVERT JUMPDEST POP GAS CALL ISZERO DUP1 ISZERO PUSH2 0x803 JUMPI RETURNDATASIZE PUSH1 0x0 DUP1 RETURNDATACOPY RETURNDATASIZE PUSH1 0x0 REVERT JUMPDEST POP POP POP POP POP POP POP POP POP POP JUMPDEST PUSH1 0x1 SWAP9 POP POP POP POP POP POP POP POP POP SWAP1 JUMP JUMPDEST PUSH1 0x66 SLOAD PUSH1 0x1 PUSH1 0x1 PUSH1 0xA0 SHL SUB AND DUP2 JUMP JUMPDEST PUSH1 0x33 SLOAD PUSH1 0x1 PUSH1 0x1 PUSH1 0xA0 SHL SUB AND SWAP1 JUMP JUMPDEST PUSH1 0x0 PUSH2 0x845 PUSH2 0x9C7 JUMP JUMPDEST PUSH1 0x1 PUSH1 0x1 PUSH1 0xA0 SHL SUB AND PUSH2 0x856 PUSH2 0x82C JUMP JUMPDEST PUSH1 0x1 PUSH1 0x1 PUSH1 0xA0 SHL SUB AND EQ PUSH2 0x87C JUMPI PUSH1 0x40 MLOAD PUSH3 0x461BCD PUSH1 0xE5 SHL DUP2 MSTORE PUSH1 0x4 ADD PUSH2 0x1A3 SWAP1 PUSH2 0x1126 JUMP JUMPDEST PUSH2 0x890 PUSH1 0x1 PUSH1 0x1 PUSH1 0xA0 SHL SUB DUP5 AND CALLER DUP5 PUSH2 0xA48 JUMP JUMPDEST POP PUSH1 0x1 SWAP3 SWAP2 POP POP JUMP JUMPDEST PUSH1 0x0 SLOAD PUSH2 0x100 SWAP1 DIV PUSH1 0xFF AND DUP1 PUSH2 0x8B2 JUMPI POP PUSH1 0x0 SLOAD PUSH1 0xFF AND ISZERO JUMPDEST PUSH2 0x8CE JUMPI PUSH1 0x40 MLOAD PUSH3 0x461BCD PUSH1 0xE5 SHL DUP2 MSTORE PUSH1 0x4 ADD PUSH2 0x1A3 SWAP1 PUSH2 0x10D8 JUMP JUMPDEST PUSH1 0x0 SLOAD PUSH2 0x100 SWAP1 DIV PUSH1 0xFF AND ISZERO DUP1 ISZERO PUSH2 0x8F9 JUMPI PUSH1 0x0 DUP1 SLOAD PUSH1 0xFF NOT PUSH2 0xFF00 NOT SWAP1 SWAP2 AND PUSH2 0x100 OR AND PUSH1 0x1 OR SWAP1 SSTORE JUMPDEST PUSH2 0x901 PUSH2 0xAF1 JUMP JUMPDEST PUSH1 0x66 DUP1 SLOAD PUSH1 0x1 PUSH1 0x1 PUSH1 0xA0 SHL SUB DUP1 DUP8 AND PUSH1 0x1 PUSH1 0x1 PUSH1 0xA0 SHL SUB NOT SWAP3 DUP4 AND OR SWAP1 SWAP3 SSTORE PUSH1 0x67 DUP1 SLOAD DUP7 DUP5 AND SWAP1 DUP4 AND OR SWAP1 SSTORE PUSH1 0x68 DUP1 SLOAD SWAP3 DUP6 AND SWAP3 SWAP1 SWAP2 AND SWAP2 SWAP1 SWAP2 OR SWAP1 SSTORE DUP1 ISZERO PUSH2 0x950 JUMPI PUSH1 0x0 DUP1 SLOAD PUSH2 0xFF00 NOT AND SWAP1 SSTORE JUMPDEST POP POP POP POP JUMP JUMPDEST PUSH2 0x95E PUSH2 0x9C7 JUMP JUMPDEST PUSH1 0x1 PUSH1 0x1 PUSH1 0xA0 SHL SUB AND PUSH2 0x96F PUSH2 0x82C JUMP JUMPDEST PUSH1 0x1 PUSH1 0x1 PUSH1 0xA0 SHL SUB AND EQ PUSH2 0x995 JUMPI PUSH1 0x40 MLOAD PUSH3 0x461BCD PUSH1 0xE5 SHL DUP2 MSTORE PUSH1 0x4 ADD PUSH2 0x1A3 SWAP1 PUSH2 0x1126 JUMP JUMPDEST PUSH1 0x1 PUSH1 0x1 PUSH1 0xA0 SHL SUB DUP2 AND PUSH2 0x9BB JUMPI PUSH1 0x40 MLOAD PUSH3 0x461BCD PUSH1 0xE5 SHL DUP2 MSTORE PUSH1 0x4 ADD PUSH2 0x1A3 SWAP1 PUSH2 0x1008 JUMP JUMPDEST PUSH2 0x9C4 DUP2 PUSH2 0x9CB JUMP JUMPDEST POP JUMP JUMPDEST CALLER SWAP1 JUMP JUMPDEST PUSH1 0x33 DUP1 SLOAD PUSH1 0x1 PUSH1 0x1 PUSH1 0xA0 SHL SUB DUP4 DUP2 AND PUSH1 0x1 PUSH1 0x1 PUSH1 0xA0 SHL SUB NOT DUP4 AND DUP2 OR SWAP1 SWAP4 SSTORE PUSH1 0x40 MLOAD SWAP2 AND SWAP2 SWAP1 DUP3 SWAP1 PUSH32 0x8BE0079C531659141344CD1FD0A4F28419497F9722A3DAAFE3B4186F6B6457E0 SWAP1 PUSH1 0x0 SWAP1 LOG3 POP POP JUMP JUMPDEST PUSH1 0x0 PUSH2 0xA29 DUP3 DUP5 PUSH2 0x124B JUMP JUMPDEST SWAP4 SWAP3 POP POP POP JUMP JUMPDEST PUSH1 0x0 PUSH2 0xA29 DUP3 DUP5 PUSH2 0x122B JUMP JUMPDEST PUSH1 0x0 PUSH2 0xA29 DUP3 DUP5 PUSH2 0x126A JUMP JUMPDEST PUSH2 0xA9E DUP4 PUSH4 0xA9059CBB PUSH1 0xE0 SHL DUP5 DUP5 PUSH1 0x40 MLOAD PUSH1 0x24 ADD PUSH2 0xA67 SWAP3 SWAP2 SWAP1 PUSH2 0xFD1 JUMP JUMPDEST PUSH1 0x40 DUP1 MLOAD PUSH1 0x1F NOT DUP2 DUP5 SUB ADD DUP2 MSTORE SWAP2 SWAP1 MSTORE PUSH1 0x20 DUP2 ADD DUP1 MLOAD PUSH1 0x1 PUSH1 0x1 PUSH1 0xE0 SHL SUB AND PUSH1 0x1 PUSH1 0x1 PUSH1 0xE0 SHL SUB NOT SWAP1 SWAP4 AND SWAP3 SWAP1 SWAP3 OR SWAP1 SWAP2 MSTORE PUSH2 0xB75 JUMP JUMPDEST POP POP POP JUMP JUMPDEST PUSH1 0x0 DUP1 PUSH2 0xAB2 DUP6 PUSH2 0x26F2 PUSH2 0xA1D JUMP JUMPDEST SWAP1 POP PUSH1 0x0 PUSH2 0xAC0 DUP3 DUP6 PUSH2 0xA1D JUMP JUMPDEST SWAP1 POP PUSH1 0x0 PUSH2 0xADA DUP4 PUSH2 0xAD4 DUP9 PUSH2 0x2710 PUSH2 0xA1D JUMP JUMPDEST SWAP1 PUSH2 0xC04 JUMP JUMPDEST SWAP1 POP PUSH2 0xAE6 DUP2 DUP4 PUSH2 0x122B JUMP JUMPDEST SWAP8 SWAP7 POP POP POP POP POP POP POP JUMP JUMPDEST PUSH1 0x0 SLOAD PUSH2 0x100 SWAP1 DIV PUSH1 0xFF AND DUP1 PUSH2 0xB0A JUMPI POP PUSH1 0x0 SLOAD PUSH1 0xFF AND ISZERO JUMPDEST PUSH2 0xB26 JUMPI PUSH1 0x40 MLOAD PUSH3 0x461BCD PUSH1 0xE5 SHL DUP2 MSTORE PUSH1 0x4 ADD PUSH2 0x1A3 SWAP1 PUSH2 0x10D8 JUMP JUMPDEST PUSH1 0x0 SLOAD PUSH2 0x100 SWAP1 DIV PUSH1 0xFF AND ISZERO DUP1 ISZERO PUSH2 0xB51 JUMPI PUSH1 0x0 DUP1 SLOAD PUSH1 0xFF NOT PUSH2 0xFF00 NOT SWAP1 SWAP2 AND PUSH2 0x100 OR AND PUSH1 0x1 OR SWAP1 SSTORE JUMPDEST PUSH2 0xB59 PUSH2 0xC10 JUMP JUMPDEST PUSH2 0xB61 PUSH2 0xC83 JUMP JUMPDEST DUP1 ISZERO PUSH2 0x9C4 JUMPI PUSH1 0x0 DUP1 SLOAD PUSH2 0xFF00 NOT AND SWAP1 SSTORE POP JUMP JUMPDEST PUSH1 0x0 PUSH2 0xBCA DUP3 PUSH1 0x40 MLOAD DUP1 PUSH1 0x40 ADD PUSH1 0x40 MSTORE DUP1 PUSH1 0x20 DUP2 MSTORE PUSH1 0x20 ADD PUSH32 0x5361666545524332303A206C6F772D6C6576656C2063616C6C206661696C6564 DUP2 MSTORE POP DUP6 PUSH1 0x1 PUSH1 0x1 PUSH1 0xA0 SHL SUB AND PUSH2 0xCF3 SWAP1 SWAP3 SWAP2 SWAP1 PUSH4 0xFFFFFFFF AND JUMP JUMPDEST DUP1 MLOAD SWAP1 SWAP2 POP ISZERO PUSH2 0xA9E JUMPI DUP1 DUP1 PUSH1 0x20 ADD SWAP1 MLOAD DUP2 ADD SWAP1 PUSH2 0xBE8 SWAP2 SWAP1 PUSH2 0xEFE JUMP JUMPDEST PUSH2 0xA9E JUMPI PUSH1 0x40 MLOAD PUSH3 0x461BCD PUSH1 0xE5 SHL DUP2 MSTORE PUSH1 0x4 ADD PUSH2 0x1A3 SWAP1 PUSH2 0x1192 JUMP JUMPDEST PUSH1 0x0 PUSH2 0xA29 DUP3 DUP5 PUSH2 0x1213 JUMP JUMPDEST PUSH1 0x0 SLOAD PUSH2 0x100 SWAP1 DIV PUSH1 0xFF AND DUP1 PUSH2 0xC29 JUMPI POP PUSH1 0x0 SLOAD PUSH1 0xFF AND ISZERO JUMPDEST PUSH2 0xC45 JUMPI PUSH1 0x40 MLOAD PUSH3 0x461BCD PUSH1 0xE5 SHL DUP2 MSTORE PUSH1 0x4 ADD PUSH2 0x1A3 SWAP1 PUSH2 0x10D8 JUMP JUMPDEST PUSH1 0x0 SLOAD PUSH2 0x100 SWAP1 DIV PUSH1 0xFF AND ISZERO DUP1 ISZERO PUSH2 0xB61 JUMPI PUSH1 0x0 DUP1 SLOAD PUSH1 0xFF NOT PUSH2 0xFF00 NOT SWAP1 SWAP2 AND PUSH2 0x100 OR AND PUSH1 0x1 OR SWAP1 SSTORE DUP1 ISZERO PUSH2 0x9C4 JUMPI PUSH1 0x0 DUP1 SLOAD PUSH2 0xFF00 NOT AND SWAP1 SSTORE POP JUMP JUMPDEST PUSH1 0x0 SLOAD PUSH2 0x100 SWAP1 DIV PUSH1 0xFF AND DUP1 PUSH2 0xC9C JUMPI POP PUSH1 0x0 SLOAD PUSH1 0xFF AND ISZERO JUMPDEST PUSH2 0xCB8 JUMPI PUSH1 0x40 MLOAD PUSH3 0x461BCD PUSH1 0xE5 SHL DUP2 MSTORE PUSH1 0x4 ADD PUSH2 0x1A3 SWAP1 PUSH2 0x10D8 JUMP JUMPDEST PUSH1 0x0 SLOAD PUSH2 0x100 SWAP1 DIV PUSH1 0xFF AND ISZERO DUP1 ISZERO PUSH2 0xCE3 JUMPI PUSH1 0x0 DUP1 SLOAD PUSH1 0xFF NOT PUSH2 0xFF00 NOT SWAP1 SWAP2 AND PUSH2 0x100 OR AND PUSH1 0x1 OR SWAP1 SSTORE JUMPDEST PUSH2 0xB61 PUSH2 0xCEE PUSH2 0x9C7 JUMP JUMPDEST PUSH2 0x9CB JUMP JUMPDEST PUSH1 0x60 PUSH2 0xD02 DUP5 DUP5 PUSH1 0x0 DUP6 PUSH2 0xD0A JUMP JUMPDEST SWAP5 SWAP4 POP POP POP POP JUMP JUMPDEST PUSH1 0x60 DUP3 SELFBALANCE LT ISZERO PUSH2 0xD2C JUMPI PUSH1 0x40 MLOAD PUSH3 0x461BCD PUSH1 0xE5 SHL DUP2 MSTORE PUSH1 0x4 ADD PUSH2 0x1A3 SWAP1 PUSH2 0x1092 JUMP JUMPDEST PUSH2 0xD35 DUP6 PUSH2 0xDBF JUMP JUMPDEST PUSH2 0xD51 JUMPI PUSH1 0x40 MLOAD PUSH3 0x461BCD PUSH1 0xE5 SHL DUP2 MSTORE PUSH1 0x4 ADD PUSH2 0x1A3 SWAP1 PUSH2 0x115B JUMP JUMPDEST PUSH1 0x0 DUP1 DUP7 PUSH1 0x1 PUSH1 0x1 PUSH1 0xA0 SHL SUB AND DUP6 DUP8 PUSH1 0x40 MLOAD PUSH2 0xD6D SWAP2 SWAP1 PUSH2 0xFA1 JUMP JUMPDEST PUSH1 0x0 PUSH1 0x40 MLOAD DUP1 DUP4 SUB DUP2 DUP6 DUP8 GAS CALL SWAP3 POP POP POP RETURNDATASIZE DUP1 PUSH1 0x0 DUP2 EQ PUSH2 0xDAA JUMPI PUSH1 0x40 MLOAD SWAP2 POP PUSH1 0x1F NOT PUSH1 0x3F RETURNDATASIZE ADD AND DUP3 ADD PUSH1 0x40 MSTORE RETURNDATASIZE DUP3 MSTORE RETURNDATASIZE PUSH1 0x0 PUSH1 0x20 DUP5 ADD RETURNDATACOPY PUSH2 0xDAF JUMP JUMPDEST PUSH1 0x60 SWAP2 POP JUMPDEST POP SWAP2 POP SWAP2 POP PUSH2 0xAE6 DUP3 DUP3 DUP7 PUSH2 0xDC9 JUMP JUMPDEST DUP1 EXTCODESIZE ISZERO ISZERO JUMPDEST SWAP2 SWAP1 POP JUMP JUMPDEST PUSH1 0x60 DUP4 ISZERO PUSH2 0xDD8 JUMPI POP DUP2 PUSH2 0xA29 JUMP JUMPDEST DUP3 MLOAD ISZERO PUSH2 0xDE8 JUMPI DUP3 MLOAD DUP1 DUP5 PUSH1 0x20 ADD REVERT JUMPDEST DUP2 PUSH1 0x40 MLOAD PUSH3 0x461BCD PUSH1 0xE5 SHL DUP2 MSTORE PUSH1 0x4 ADD PUSH2 0x1A3 SWAP2 SWAP1 PUSH2 0xFF5 JUMP JUMPDEST DUP1 MLOAD PUSH1 0x1 PUSH1 0x1 PUSH1 0x70 SHL SUB DUP2 AND DUP2 EQ PUSH2 0xDC4 JUMPI PUSH1 0x0 DUP1 REVERT JUMPDEST PUSH1 0x0 PUSH1 0x20 DUP3 DUP5 SUB SLT ISZERO PUSH2 0xE2A JUMPI DUP1 DUP2 REVERT JUMPDEST DUP2 CALLDATALOAD PUSH2 0xA29 DUP2 PUSH2 0x12C3 JUMP JUMPDEST PUSH1 0x0 PUSH1 0x20 DUP3 DUP5 SUB SLT ISZERO PUSH2 0xE46 JUMPI DUP1 DUP2 REVERT JUMPDEST DUP2 MLOAD PUSH2 0xA29 DUP2 PUSH2 0x12C3 JUMP JUMPDEST PUSH1 0x0 DUP1 PUSH1 0x0 PUSH1 0x60 DUP5 DUP7 SUB SLT ISZERO PUSH2 0xE65 JUMPI DUP2 DUP3 REVERT JUMPDEST DUP4 CALLDATALOAD PUSH2 0xE70 DUP2 PUSH2 0x12C3 JUMP JUMPDEST SWAP3 POP PUSH1 0x20 DUP5 ADD CALLDATALOAD PUSH2 0xE80 DUP2 PUSH2 0x12C3 JUMP JUMPDEST SWAP2 POP PUSH1 0x40 DUP5 ADD CALLDATALOAD PUSH2 0xE90 DUP2 PUSH2 0x12C3 JUMP JUMPDEST DUP1 SWAP2 POP POP SWAP3 POP SWAP3 POP SWAP3 JUMP JUMPDEST PUSH1 0x0 DUP1 PUSH1 0x40 DUP4 DUP6 SUB SLT ISZERO PUSH2 0xEAD JUMPI DUP2 DUP3 REVERT JUMPDEST DUP3 CALLDATALOAD PUSH2 0xEB8 DUP2 PUSH2 0x12C3 JUMP JUMPDEST SWAP2 POP PUSH1 0x20 DUP4 ADD CALLDATALOAD PUSH2 0xEC8 DUP2 PUSH2 0x12D8 JUMP JUMPDEST DUP1 SWAP2 POP POP SWAP3 POP SWAP3 SWAP1 POP JUMP JUMPDEST PUSH1 0x0 DUP1 PUSH1 0x40 DUP4 DUP6 SUB SLT ISZERO PUSH2 0xEE5 JUMPI DUP2 DUP3 REVERT JUMPDEST DUP3 CALLDATALOAD PUSH2 0xEF0 DUP2 PUSH2 0x12C3 JUMP JUMPDEST SWAP5 PUSH1 0x20 SWAP4 SWAP1 SWAP4 ADD CALLDATALOAD SWAP4 POP POP POP JUMP JUMPDEST PUSH1 0x0 PUSH1 0x20 DUP3 DUP5 SUB SLT ISZERO PUSH2 0xF0F JUMPI DUP1 DUP2 REVERT JUMPDEST DUP2 MLOAD PUSH2 0xA29 DUP2 PUSH2 0x12D8 JUMP JUMPDEST PUSH1 0x0 DUP1 PUSH1 0x0 PUSH1 0x60 DUP5 DUP7 SUB SLT ISZERO PUSH2 0xF2E JUMPI DUP3 DUP4 REVERT JUMPDEST PUSH2 0xF37 DUP5 PUSH2 0xE02 JUMP JUMPDEST SWAP3 POP PUSH2 0xF45 PUSH1 0x20 DUP6 ADD PUSH2 0xE02 JUMP JUMPDEST SWAP2 POP PUSH1 0x40 DUP5 ADD MLOAD PUSH4 0xFFFFFFFF DUP2 AND DUP2 EQ PUSH2 0xE90 JUMPI DUP2 DUP3 REVERT JUMPDEST PUSH1 0x0 PUSH1 0x20 DUP3 DUP5 SUB SLT ISZERO PUSH2 0xF6E JUMPI DUP1 DUP2 REVERT JUMPDEST POP MLOAD SWAP2 SWAP1 POP JUMP JUMPDEST PUSH1 0x0 DUP2 MLOAD DUP1 DUP5 MSTORE PUSH2 0xF8D DUP2 PUSH1 0x20 DUP7 ADD PUSH1 0x20 DUP7 ADD PUSH2 0x1281 JUMP JUMPDEST PUSH1 0x1F ADD PUSH1 0x1F NOT AND SWAP3 SWAP1 SWAP3 ADD PUSH1 0x20 ADD SWAP3 SWAP2 POP POP JUMP JUMPDEST PUSH1 0x0 DUP3 MLOAD PUSH2 0xFB3 DUP2 DUP5 PUSH1 0x20 DUP8 ADD PUSH2 0x1281 JUMP JUMPDEST SWAP2 SWAP1 SWAP2 ADD SWAP3 SWAP2 POP POP JUMP JUMPDEST PUSH1 0x1 PUSH1 0x1 PUSH1 0xA0 SHL SUB SWAP2 SWAP1 SWAP2 AND DUP2 MSTORE PUSH1 0x20 ADD SWAP1 JUMP JUMPDEST PUSH1 0x1 PUSH1 0x1 PUSH1 0xA0 SHL SUB SWAP3 SWAP1 SWAP3 AND DUP3 MSTORE PUSH1 0x20 DUP3 ADD MSTORE PUSH1 0x40 ADD SWAP1 JUMP JUMPDEST SWAP1 ISZERO ISZERO DUP2 MSTORE PUSH1 0x20 ADD SWAP1 JUMP JUMPDEST PUSH1 0x0 PUSH1 0x20 DUP3 MSTORE PUSH2 0xA29 PUSH1 0x20 DUP4 ADD DUP5 PUSH2 0xF75 JUMP JUMPDEST PUSH1 0x20 DUP1 DUP3 MSTORE PUSH1 0x26 SWAP1 DUP3 ADD MSTORE PUSH32 0x4F776E61626C653A206E6577206F776E657220697320746865207A65726F2061 PUSH1 0x40 DUP3 ADD MSTORE PUSH6 0x646472657373 PUSH1 0xD0 SHL PUSH1 0x60 DUP3 ADD MSTORE PUSH1 0x80 ADD SWAP1 JUMP JUMPDEST PUSH1 0x20 DUP1 DUP3 MSTORE PUSH1 0x24 SWAP1 DUP3 ADD MSTORE PUSH32 0x6578656375746F723A2063616C6C6572206973206E6F74207468652065786563 PUSH1 0x40 DUP3 ADD MSTORE PUSH4 0x3ABA37B9 PUSH1 0xE1 SHL PUSH1 0x60 DUP3 ADD MSTORE PUSH1 0x80 ADD SWAP1 JUMP JUMPDEST PUSH1 0x20 DUP1 DUP3 MSTORE PUSH1 0x26 SWAP1 DUP3 ADD MSTORE PUSH32 0x416464726573733A20696E73756666696369656E742062616C616E636520666F PUSH1 0x40 DUP3 ADD MSTORE PUSH6 0x1C8818D85B1B PUSH1 0xD2 SHL PUSH1 0x60 DUP3 ADD MSTORE PUSH1 0x80 ADD SWAP1 JUMP JUMPDEST PUSH1 0x20 DUP1 DUP3 MSTORE PUSH1 0x2E SWAP1 DUP3 ADD MSTORE PUSH32 0x496E697469616C697A61626C653A20636F6E747261637420697320616C726561 PUSH1 0x40 DUP3 ADD MSTORE PUSH14 0x191E481A5B9A5D1A585B1A5E9959 PUSH1 0x92 SHL PUSH1 0x60 DUP3 ADD MSTORE PUSH1 0x80 ADD SWAP1 JUMP JUMPDEST PUSH1 0x20 DUP1 DUP3 MSTORE DUP2 DUP2 ADD MSTORE PUSH32 0x4F776E61626C653A2063616C6C6572206973206E6F7420746865206F776E6572 PUSH1 0x40 DUP3 ADD MSTORE PUSH1 0x60 ADD SWAP1 JUMP JUMPDEST PUSH1 0x20 DUP1 DUP3 MSTORE PUSH1 0x1D SWAP1 DUP3 ADD MSTORE PUSH32 0x416464726573733A2063616C6C20746F206E6F6E2D636F6E7472616374000000 PUSH1 0x40 DUP3 ADD MSTORE PUSH1 0x60 ADD SWAP1 JUMP JUMPDEST PUSH1 0x20 DUP1 DUP3 MSTORE PUSH1 0x2A SWAP1 DUP3 ADD MSTORE PUSH32 0x5361666545524332303A204552433230206F7065726174696F6E20646964206E PUSH1 0x40 DUP3 ADD MSTORE PUSH10 0x1BDD081CDD58D8D95959 PUSH1 0xB2 SHL PUSH1 0x60 DUP3 ADD MSTORE PUSH1 0x80 ADD SWAP1 JUMP JUMPDEST PUSH1 0x0 DUP6 DUP3 MSTORE DUP5 PUSH1 0x20 DUP4 ADD MSTORE PUSH1 0x1 DUP1 PUSH1 0xA0 SHL SUB DUP5 AND PUSH1 0x40 DUP4 ADD MSTORE PUSH1 0x80 PUSH1 0x60 DUP4 ADD MSTORE PUSH2 0x1209 PUSH1 0x80 DUP4 ADD DUP5 PUSH2 0xF75 JUMP JUMPDEST SWAP7 SWAP6 POP POP POP POP POP POP JUMP JUMPDEST PUSH1 0x0 DUP3 NOT DUP3 GT ISZERO PUSH2 0x1226 JUMPI PUSH2 0x1226 PUSH2 0x12AD JUMP JUMPDEST POP ADD SWAP1 JUMP JUMPDEST PUSH1 0x0 DUP3 PUSH2 0x1246 JUMPI PUSH4 0x4E487B71 PUSH1 0xE0 SHL DUP2 MSTORE PUSH1 0x12 PUSH1 0x4 MSTORE PUSH1 0x24 DUP2 REVERT JUMPDEST POP DIV SWAP1 JUMP JUMPDEST PUSH1 0x0 DUP2 PUSH1 0x0 NOT DIV DUP4 GT DUP3 ISZERO ISZERO AND ISZERO PUSH2 0x1265 JUMPI PUSH2 0x1265 PUSH2 0x12AD JUMP JUMPDEST POP MUL SWAP1 JUMP JUMPDEST PUSH1 0x0 DUP3 DUP3 LT ISZERO PUSH2 0x127C JUMPI PUSH2 0x127C PUSH2 0x12AD JUMP JUMPDEST POP SUB SWAP1 JUMP JUMPDEST PUSH1 0x0 JUMPDEST DUP4 DUP2 LT ISZERO PUSH2 0x129C JUMPI DUP2 DUP2 ADD MLOAD DUP4 DUP3 ADD MSTORE PUSH1 0x20 ADD PUSH2 0x1284 JUMP JUMPDEST DUP4 DUP2 GT ISZERO PUSH2 0x950 JUMPI POP POP PUSH1 0x0 SWAP2 ADD MSTORE JUMP JUMPDEST PUSH4 0x4E487B71 PUSH1 0xE0 SHL PUSH1 0x0 MSTORE PUSH1 0x11 PUSH1 0x4 MSTORE PUSH1 0x24 PUSH1 0x0 REVERT JUMPDEST PUSH1 0x1 PUSH1 0x1 PUSH1 0xA0 SHL SUB DUP2 AND DUP2 EQ PUSH2 0x9C4 JUMPI PUSH1 0x0 DUP1 REVERT JUMPDEST DUP1 ISZERO ISZERO DUP2 EQ PUSH2 0x9C4 JUMPI PUSH1 0x0 DUP1 REVERT INVALID LOG2 PUSH5 0x6970667358 0x22 SLT KECCAK256 0xB7 SWAP15 DUP9 XOR 0xBB PUSH20 0xE744C120A4DC4E89D4466BB371399833E061C780 0xCE 0xEE 0xD9 0xE0 SGT 0xE PUSH5 0x736F6C6343 STOP ADDMOD STOP STOP CALLER "
				},
				"gasEstimates": {
					"creation": {
						"codeDepositCost": "978400",
						"executionCost": "1014",
						"totalCost": "979414"
					},
					"external": {
						"executor(address)": "1325",
						"goStabilizer()": "infinite",
						"initialize(address,address,address)": "infinite",
						"owner()": "1114",
						"renounceOwnership()": "23596",
						"setExecutor(address,bool)": "infinite",
						"transferOwnership(address)": "infinite",
						"usc()": "1093",
						"usdc()": "1115",
						"usdc_usc_lpAddress()": "1092",
						"withdrawalERC20(address,uint256)": "infinite"
					},
					"internal": {
						"getAmountOut(uint256,uint256,uint256)": "infinite"
					}
				},
				"methodIdentifiers": {
					"executor(address)": "48c7e528",
					"goStabilizer()": "796c7be7",
					"initialize(address,address,address)": "c0c53b8b",
					"owner()": "8da5cb5b",
					"renounceOwnership()": "715018a6",
					"setExecutor(address,bool)": "1e1bff3f",
					"transferOwnership(address)": "f2fde38b",
					"usc()": "3011d3d5",
					"usdc()": "3e413bee",
					"usdc_usc_lpAddress()": "7e6f7a09",
					"withdrawalERC20(address,uint256)": "930ed033"
				}
			},
			"storageLayout": {
				"storage": [
					{
						"astId": 130,
						"contract": "contracts/stabilizer.sol:stabilizer",
						"label": "_initialized",
						"offset": 0,
						"slot": "0",
						"type": "t_bool"
					},
					{
						"astId": 133,
						"contract": "contracts/stabilizer.sol:stabilizer",
						"label": "_initializing",
						"offset": 1,
						"slot": "0",
						"type": "t_bool"
					},
					{
						"astId": 760,
						"contract": "contracts/stabilizer.sol:stabilizer",
						"label": "__gap",
						"offset": 0,
						"slot": "1",
						"type": "t_array(t_uint256)50_storage"
					},
					{
						"astId": 10,
						"contract": "contracts/stabilizer.sol:stabilizer",
						"label": "_owner",
						"offset": 0,
						"slot": "51",
						"type": "t_address"
					},
					{
						"astId": 124,
						"contract": "contracts/stabilizer.sol:stabilizer",
						"label": "__gap",
						"offset": 0,
						"slot": "52",
						"type": "t_array(t_uint256)49_storage"
					},
					{
						"astId": 1353,
						"contract": "contracts/stabilizer.sol:stabilizer",
						"label": "executor",
						"offset": 0,
						"slot": "101",
						"type": "t_mapping(t_address,t_bool)"
					},
					{
						"astId": 1355,
						"contract": "contracts/stabilizer.sol:stabilizer",
						"label": "usdc_usc_lpAddress",
						"offset": 0,
						"slot": "102",
						"type": "t_address"
					},
					{
						"astId": 1357,
						"contract": "contracts/stabilizer.sol:stabilizer",
						"label": "usdc",
						"offset": 0,
						"slot": "103",
						"type": "t_address"
					},
					{
						"astId": 1359,
						"contract": "contracts/stabilizer.sol:stabilizer",
						"label": "usc",
						"offset": 0,
						"slot": "104",
						"type": "t_address"
					}
				],
				"types": {
					"t_address": {
						"encoding": "inplace",
						"label": "address",
						"numberOfBytes": "20"
					},
					"t_array(t_uint256)49_storage": {
						"base": "t_uint256",
						"encoding": "inplace",
						"label": "uint256[49]",
						"numberOfBytes": "1568"
					},
					"t_array(t_uint256)50_storage": {
						"base": "t_uint256",
						"encoding": "inplace",
						"label": "uint256[50]",
						"numberOfBytes": "1600"
					},
					"t_bool": {
						"encoding": "inplace",
						"label": "bool",
						"numberOfBytes": "1"
					},
					"t_mapping(t_address,t_bool)": {
						"encoding": "mapping",
						"key": "t_address",
						"label": "mapping(address => bool)",
						"numberOfBytes": "32",
						"value": "t_bool"
					},
					"t_uint256": {
						"encoding": "inplace",
						"label": "uint256",
						"numberOfBytes": "32"
					}
				}
			},
			"userdoc": {
				"kind": "user",
				"methods": {},
				"version": 1
			}
		}
	}
}