{
	"contracts/stabilizer.sol": {
		"stabilizer": {
			"abi": [
				{
					"anonymous": false,
					"inputs": [
						{
							"indexed": true,
							"internalType": "address",
							"name": "previousOwner",
							"type": "address"
						},
						{
							"indexed": true,
							"internalType": "address",
							"name": "newOwner",
							"type": "address"
						}
					],
					"name": "OwnershipTransferred",
					"type": "event"
				},
				{
					"inputs": [
						{
							"internalType": "address",
							"name": "",
							"type": "address"
						}
					],
					"name": "executor",
					"outputs": [
						{
							"internalType": "bool",
							"name": "",
							"type": "bool"
						}
					],
					"stateMutability": "view",
					"type": "function"
				},
				{
					"inputs": [],
					"name": "goStabilizer",
					"outputs": [
						{
							"internalType": "bool",
							"name": "",
							"type": "bool"
						}
					],
					"stateMutability": "nonpayable",
					"type": "function"
				},
				{
					"inputs": [
						{
							"internalType": "address",
							"name": "_usdc_usc_lpAddress",
							"type": "address"
						},
						{
							"internalType": "address",
							"name": "_usdc",
							"type": "address"
						},
						{
							"internalType": "address",
							"name": "_usc",
							"type": "address"
						}
					],
					"name": "initialize",
					"outputs": [],
					"stateMutability": "nonpayable",
					"type": "function"
				},
				{
					"inputs": [],
					"name": "openBuy",
					"outputs": [
						{
							"internalType": "bool",
							"name": "",
							"type": "bool"
						}
					],
					"stateMutability": "view",
					"type": "function"
				},
				{
					"inputs": [],
					"name": "openSell",
					"outputs": [
						{
							"internalType": "bool",
							"name": "",
							"type": "bool"
						}
					],
					"stateMutability": "view",
					"type": "function"
				},
				{
					"inputs": [],
					"name": "owner",
					"outputs": [
						{
							"internalType": "address",
							"name": "",
							"type": "address"
						}
					],
					"stateMutability": "view",
					"type": "function"
				},
				{
					"inputs": [],
					"name": "renounceOwnership",
					"outputs": [],
					"stateMutability": "nonpayable",
					"type": "function"
				},
				{
					"inputs": [
						{
							"internalType": "address",
							"name": "_address",
							"type": "address"
						},
						{
							"internalType": "bool",
							"name": "_type",
							"type": "bool"
						}
					],
					"name": "setExecutor",
					"outputs": [
						{
							"internalType": "bool",
							"name": "",
							"type": "bool"
						}
					],
					"stateMutability": "nonpayable",
					"type": "function"
				},
				{
					"inputs": [
						{
							"internalType": "bool",
							"name": "_type",
							"type": "bool"
						}
					],
					"name": "setOpenBuy",
					"outputs": [
						{
							"internalType": "bool",
							"name": "",
							"type": "bool"
						}
					],
					"stateMutability": "nonpayable",
					"type": "function"
				},
				{
					"inputs": [
						{
							"internalType": "bool",
							"name": "_type",
							"type": "bool"
						}
					],
					"name": "setOpenSell",
					"outputs": [
						{
							"internalType": "bool",
							"name": "",
							"type": "bool"
						}
					],
					"stateMutability": "nonpayable",
					"type": "function"
				},
				{
					"inputs": [
						{
							"internalType": "address",
							"name": "newOwner",
							"type": "address"
						}
					],
					"name": "transferOwnership",
					"outputs": [],
					"stateMutability": "nonpayable",
					"type": "function"
				},
				{
					"inputs": [],
					"name": "usc",
					"outputs": [
						{
							"internalType": "address",
							"name": "",
							"type": "address"
						}
					],
					"stateMutability": "view",
					"type": "function"
				},
				{
					"inputs": [],
					"name": "usdc",
					"outputs": [
						{
							"internalType": "address",
							"name": "",
							"type": "address"
						}
					],
					"stateMutability": "view",
					"type": "function"
				},
				{
					"inputs": [],
					"name": "usdc_usc_lpAddress",
					"outputs": [
						{
							"internalType": "address",
							"name": "",
							"type": "address"
						}
					],
					"stateMutability": "view",
					"type": "function"
				},
				{
					"inputs": [
						{
							"internalType": "address",
							"name": "_address",
							"type": "address"
						},
						{
							"internalType": "uint256",
							"name": "_amt",
							"type": "uint256"
						}
					],
					"name": "withdrawalERC20",
					"outputs": [
						{
							"internalType": "bool",
							"name": "",
							"type": "bool"
						}
					],
					"stateMutability": "nonpayable",
					"type": "function"
				}
			],
			"devdoc": {
				"kind": "dev",
				"methods": {
					"owner()": {
						"details": "Returns the address of the current owner."
					},
					"renounceOwnership()": {
						"details": "Leaves the contract without owner. It will not be possible to call `onlyOwner` functions anymore. Can only be called by the current owner. NOTE: Renouncing ownership will leave the contract without an owner, thereby removing any functionality that is only available to the owner."
					},
					"transferOwnership(address)": {
						"details": "Transfers ownership of the contract to a new account (`newOwner`). Can only be called by the current owner."
					}
				},
				"version": 1
			},
			"evm": {
				"assembly": "    /* \"contracts/stabilizer.sol\":677:5349  contract stabilizer is Initializable, OwnableUpgradeable {... */\n  mstore(0x40, 0x80)\n  callvalue\n  dup1\n  iszero\n  tag_1\n  jumpi\n  0x00\n  dup1\n  revert\ntag_1:\n  pop\n  dataSize(sub_0)\n  dup1\n  dataOffset(sub_0)\n  0x00\n  codecopy\n  0x00\n  return\nstop\n\nsub_0: assembly {\n        /* \"contracts/stabilizer.sol\":677:5349  contract stabilizer is Initializable, OwnableUpgradeable {... */\n      mstore(0x40, 0x80)\n      callvalue\n      dup1\n      iszero\n      tag_1\n      jumpi\n      0x00\n      dup1\n      revert\n    tag_1:\n      pop\n      jumpi(tag_2, lt(calldatasize, 0x04))\n      shr(0xe0, calldataload(0x00))\n      dup1\n      0x796c7be7\n      gt\n      tag_18\n      jumpi\n      dup1\n      0xc0c53b8b\n      gt\n      tag_19\n      jumpi\n      dup1\n      0xc0c53b8b\n      eq\n      tag_14\n      jumpi\n      dup1\n      0xd4a67930\n      eq\n      tag_15\n      jumpi\n      dup1\n      0xf1eae64a\n      eq\n      tag_16\n      jumpi\n      dup1\n      0xf2fde38b\n      eq\n      tag_17\n      jumpi\n      jump(tag_2)\n    tag_19:\n      dup1\n      0x796c7be7\n      eq\n      tag_10\n      jumpi\n      dup1\n      0x7e6f7a09\n      eq\n      tag_11\n      jumpi\n      dup1\n      0x8da5cb5b\n      eq\n      tag_12\n      jumpi\n      dup1\n      0x930ed033\n      eq\n      tag_13\n      jumpi\n      jump(tag_2)\n    tag_18:\n      dup1\n      0x3c03b9a4\n      gt\n      tag_20\n      jumpi\n      dup1\n      0x3c03b9a4\n      eq\n      tag_6\n      jumpi\n      dup1\n      0x3e413bee\n      eq\n      tag_7\n      jumpi\n      dup1\n      0x48c7e528\n      eq\n      tag_8\n      jumpi\n      dup1\n      0x715018a6\n      eq\n      tag_9\n      jumpi\n      jump(tag_2)\n    tag_20:\n      dup1\n      0x1e1bff3f\n      eq\n      tag_3\n      jumpi\n      dup1\n      0x29e9a524\n      eq\n      tag_4\n      jumpi\n      dup1\n      0x3011d3d5\n      eq\n      tag_5\n      jumpi\n    tag_2:\n      0x00\n      dup1\n      revert\n        /* \"contracts/stabilizer.sol\":1821:1998  function setExecutor(address _address, bool _type)... */\n    tag_3:\n      tag_21\n      tag_22\n      calldatasize\n      0x04\n      tag_23\n      jump\t// in\n    tag_22:\n      tag_24\n      jump\t// in\n    tag_21:\n      mload(0x40)\n      tag_25\n      swap2\n      swap1\n      tag_26\n      jump\t// in\n    tag_25:\n      mload(0x40)\n      dup1\n      swap2\n      sub\n      swap1\n      return\n        /* \"contracts/stabilizer.sol\":5101:5220  function setOpenBuy(bool _type) external onlyOwner returns (bool) {... */\n    tag_4:\n      tag_21\n      tag_28\n      calldatasize\n      0x04\n      tag_29\n      jump\t// in\n    tag_28:\n      tag_30\n      jump\t// in\n        /* \"contracts/stabilizer.sol\":963:981  address public usc */\n    tag_5:\n      tag_32\n      tag_33\n      jump\t// in\n    tag_32:\n      mload(0x40)\n      tag_25\n      swap2\n      swap1\n      tag_35\n      jump\t// in\n        /* \"contracts/stabilizer.sol\":5226:5347  function setOpenSell(bool _type) external onlyOwner returns (bool) {... */\n    tag_6:\n      tag_21\n      tag_37\n      calldatasize\n      0x04\n      tag_29\n      jump\t// in\n    tag_37:\n      tag_38\n      jump\t// in\n        /* \"contracts/stabilizer.sol\":938:957  address public usdc */\n    tag_7:\n      tag_32\n      tag_41\n      jump\t// in\n        /* \"contracts/stabilizer.sol\":853:893  mapping(address => bool) public executor */\n    tag_8:\n      tag_21\n      tag_44\n      calldatasize\n      0x04\n      tag_45\n      jump\t// in\n    tag_44:\n      tag_46\n      jump\t// in\n        /* \"@openzeppelin/contracts-upgradeable/access/OwnableUpgradeable.sol\":1934:2035  function renounceOwnership() public virtual onlyOwner {... */\n    tag_9:\n      tag_48\n      tag_49\n      jump\t// in\n    tag_48:\n      stop\n        /* \"contracts/stabilizer.sol\":2131:4874  function goStabilizer() external onlyExecutor returns (bool) {... */\n    tag_10:\n      tag_21\n      tag_51\n      jump\t// in\n        /* \"contracts/stabilizer.sol\":899:932  address public usdc_usc_lpAddress */\n    tag_11:\n      tag_32\n      tag_54\n      jump\t// in\n        /* \"@openzeppelin/contracts-upgradeable/access/OwnableUpgradeable.sol\":1302:1387  function owner() public view virtual returns (address) {... */\n    tag_12:\n      tag_32\n      tag_57\n      jump\t// in\n        /* \"contracts/stabilizer.sol\":4880:5095  function withdrawalERC20(address _address, uint256 _amt)... */\n    tag_13:\n      tag_21\n      tag_60\n      calldatasize\n      0x04\n      tag_61\n      jump\t// in\n    tag_60:\n      tag_62\n      jump\t// in\n        /* \"contracts/stabilizer.sol\":1437:1815  function initialize(... */\n    tag_14:\n      tag_48\n      tag_65\n      calldatasize\n      0x04\n      tag_66\n      jump\t// in\n    tag_65:\n      tag_67\n      jump\t// in\n        /* \"contracts/stabilizer.sol\":988:1007  bool public openBuy */\n    tag_15:\n      tag_21\n      tag_69\n      jump\t// in\n        /* \"contracts/stabilizer.sol\":1013:1033  bool public openSell */\n    tag_16:\n      tag_21\n      tag_72\n      jump\t// in\n        /* \"@openzeppelin/contracts-upgradeable/access/OwnableUpgradeable.sol\":2184:2382  function transferOwnership(address newOwner) public virtual onlyOwner {... */\n    tag_17:\n      tag_48\n      tag_75\n      calldatasize\n      0x04\n      tag_45\n      jump\t// in\n    tag_75:\n      tag_76\n      jump\t// in\n        /* \"contracts/stabilizer.sol\":1821:1998  function setExecutor(address _address, bool _type)... */\n    tag_24:\n        /* \"contracts/stabilizer.sol\":1924:1928  bool */\n      0x00\n        /* \"@openzeppelin/contracts-upgradeable/access/OwnableUpgradeable.sol\":1525:1537  _msgSender() */\n      tag_78\n        /* \"@openzeppelin/contracts-upgradeable/access/OwnableUpgradeable.sol\":1525:1535  _msgSender */\n      tag_79\n        /* \"@openzeppelin/contracts-upgradeable/access/OwnableUpgradeable.sol\":1525:1537  _msgSender() */\n      jump\t// in\n    tag_78:\n      sub(shl(0xa0, 0x01), 0x01)\n        /* \"@openzeppelin/contracts-upgradeable/access/OwnableUpgradeable.sol\":1514:1537  owner() == _msgSender() */\n      and\n        /* \"@openzeppelin/contracts-upgradeable/access/OwnableUpgradeable.sol\":1514:1521  owner() */\n      tag_80\n        /* \"@openzeppelin/contracts-upgradeable/access/OwnableUpgradeable.sol\":1514:1519  owner */\n      tag_57\n        /* \"@openzeppelin/contracts-upgradeable/access/OwnableUpgradeable.sol\":1514:1521  owner() */\n      jump\t// in\n    tag_80:\n      sub(shl(0xa0, 0x01), 0x01)\n        /* \"@openzeppelin/contracts-upgradeable/access/OwnableUpgradeable.sol\":1514:1537  owner() == _msgSender() */\n      and\n      eq\n        /* \"@openzeppelin/contracts-upgradeable/access/OwnableUpgradeable.sol\":1506:1574  require(owner() == _msgSender(), \"Ownable: caller is not the owner\") */\n      tag_81\n      jumpi\n      mload(0x40)\n      shl(0xe5, 0x461bcd)\n      dup2\n      mstore\n      0x04\n      add\n      tag_82\n      swap1\n      tag_83\n      jump\t// in\n    tag_82:\n      mload(0x40)\n      dup1\n      swap2\n      sub\n      swap1\n      revert\n    tag_81:\n      pop\n      sub(shl(0xa0, 0x01), 0x01)\n        /* \"contracts/stabilizer.sol\":1944:1962  executor[_address] */\n      dup3\n      and\n      0x00\n      swap1\n      dup2\n      mstore\n        /* \"contracts/stabilizer.sol\":1944:1952  executor */\n      0x65\n        /* \"contracts/stabilizer.sol\":1944:1962  executor[_address] */\n      0x20\n      mstore\n      0x40\n      swap1\n      keccak256\n        /* \"contracts/stabilizer.sol\":1944:1970  executor[_address] = _type */\n      dup1\n      sload\n      dup3\n      iszero\n      iszero\n      not(0xff)\n      swap1\n      swap2\n      and\n      or\n      swap1\n      sstore\n      0x01\n        /* \"contracts/stabilizer.sol\":1821:1998  function setExecutor(address _address, bool _type)... */\n      swap3\n      swap2\n      pop\n      pop\n      jump\t// out\n        /* \"contracts/stabilizer.sol\":5101:5220  function setOpenBuy(bool _type) external onlyOwner returns (bool) {... */\n    tag_30:\n        /* \"contracts/stabilizer.sol\":5161:5165  bool */\n      0x00\n        /* \"@openzeppelin/contracts-upgradeable/access/OwnableUpgradeable.sol\":1525:1537  _msgSender() */\n      tag_86\n        /* \"@openzeppelin/contracts-upgradeable/access/OwnableUpgradeable.sol\":1525:1535  _msgSender */\n      tag_79\n        /* \"@openzeppelin/contracts-upgradeable/access/OwnableUpgradeable.sol\":1525:1537  _msgSender() */\n      jump\t// in\n    tag_86:\n      sub(shl(0xa0, 0x01), 0x01)\n        /* \"@openzeppelin/contracts-upgradeable/access/OwnableUpgradeable.sol\":1514:1537  owner() == _msgSender() */\n      and\n        /* \"@openzeppelin/contracts-upgradeable/access/OwnableUpgradeable.sol\":1514:1521  owner() */\n      tag_87\n        /* \"@openzeppelin/contracts-upgradeable/access/OwnableUpgradeable.sol\":1514:1519  owner */\n      tag_57\n        /* \"@openzeppelin/contracts-upgradeable/access/OwnableUpgradeable.sol\":1514:1521  owner() */\n      jump\t// in\n    tag_87:\n      sub(shl(0xa0, 0x01), 0x01)\n        /* \"@openzeppelin/contracts-upgradeable/access/OwnableUpgradeable.sol\":1514:1537  owner() == _msgSender() */\n      and\n      eq\n        /* \"@openzeppelin/contracts-upgradeable/access/OwnableUpgradeable.sol\":1506:1574  require(owner() == _msgSender(), \"Ownable: caller is not the owner\") */\n      tag_88\n      jumpi\n      mload(0x40)\n      shl(0xe5, 0x461bcd)\n      dup2\n      mstore\n      0x04\n      add\n      tag_82\n      swap1\n      tag_83\n      jump\t// in\n    tag_88:\n      pop\n        /* \"contracts/stabilizer.sol\":5177:5184  openBuy */\n      0x68\n        /* \"contracts/stabilizer.sol\":5177:5192  openBuy = _type */\n      dup1\n      sload\n      not(shl(0xa0, 0xff))\n      and\n      shl(0xa0, 0x01)\n      dup4\n      iszero\n      iszero\n      mul\n      or\n      swap1\n      sstore\n      0x01\n        /* \"@openzeppelin/contracts-upgradeable/access/OwnableUpgradeable.sol\":1584:1585  _ */\n    tag_90:\n        /* \"contracts/stabilizer.sol\":5101:5220  function setOpenBuy(bool _type) external onlyOwner returns (bool) {... */\n      swap2\n      swap1\n      pop\n      jump\t// out\n        /* \"contracts/stabilizer.sol\":963:981  address public usc */\n    tag_33:\n      and(sub(shl(0xa0, 0x01), 0x01), sload(0x68))\n      dup2\n      jump\t// out\n        /* \"contracts/stabilizer.sol\":5226:5347  function setOpenSell(bool _type) external onlyOwner returns (bool) {... */\n    tag_38:\n        /* \"contracts/stabilizer.sol\":5287:5291  bool */\n      0x00\n        /* \"@openzeppelin/contracts-upgradeable/access/OwnableUpgradeable.sol\":1525:1537  _msgSender() */\n      tag_92\n        /* \"@openzeppelin/contracts-upgradeable/access/OwnableUpgradeable.sol\":1525:1535  _msgSender */\n      tag_79\n        /* \"@openzeppelin/contracts-upgradeable/access/OwnableUpgradeable.sol\":1525:1537  _msgSender() */\n      jump\t// in\n    tag_92:\n      sub(shl(0xa0, 0x01), 0x01)\n        /* \"@openzeppelin/contracts-upgradeable/access/OwnableUpgradeable.sol\":1514:1537  owner() == _msgSender() */\n      and\n        /* \"@openzeppelin/contracts-upgradeable/access/OwnableUpgradeable.sol\":1514:1521  owner() */\n      tag_93\n        /* \"@openzeppelin/contracts-upgradeable/access/OwnableUpgradeable.sol\":1514:1519  owner */\n      tag_57\n        /* \"@openzeppelin/contracts-upgradeable/access/OwnableUpgradeable.sol\":1514:1521  owner() */\n      jump\t// in\n    tag_93:\n      sub(shl(0xa0, 0x01), 0x01)\n        /* \"@openzeppelin/contracts-upgradeable/access/OwnableUpgradeable.sol\":1514:1537  owner() == _msgSender() */\n      and\n      eq\n        /* \"@openzeppelin/contracts-upgradeable/access/OwnableUpgradeable.sol\":1506:1574  require(owner() == _msgSender(), \"Ownable: caller is not the owner\") */\n      tag_94\n      jumpi\n      mload(0x40)\n      shl(0xe5, 0x461bcd)\n      dup2\n      mstore\n      0x04\n      add\n      tag_82\n      swap1\n      tag_83\n      jump\t// in\n    tag_94:\n      pop\n        /* \"contracts/stabilizer.sol\":5303:5311  openSell */\n      0x68\n        /* \"contracts/stabilizer.sol\":5303:5319  openSell = _type */\n      dup1\n      sload\n      dup3\n      iszero\n      iszero\n      shl(0xa8, 0x01)\n      mul\n      not(shl(0xa8, 0xff))\n      swap1\n      swap2\n      and\n      or\n      swap1\n      sstore\n      0x01\n        /* \"contracts/stabilizer.sol\":5226:5347  function setOpenSell(bool _type) external onlyOwner returns (bool) {... */\n      swap2\n      swap1\n      pop\n      jump\t// out\n        /* \"contracts/stabilizer.sol\":938:957  address public usdc */\n    tag_41:\n      and(sub(shl(0xa0, 0x01), 0x01), sload(0x67))\n      dup2\n      jump\t// out\n        /* \"contracts/stabilizer.sol\":853:893  mapping(address => bool) public executor */\n    tag_46:\n      mstore(0x20, 0x65)\n      0x00\n      swap1\n      dup2\n      mstore\n      0x40\n      swap1\n      keccak256\n      sload\n      0xff\n      and\n      dup2\n      jump\t// out\n        /* \"@openzeppelin/contracts-upgradeable/access/OwnableUpgradeable.sol\":1934:2035  function renounceOwnership() public virtual onlyOwner {... */\n    tag_49:\n        /* \"@openzeppelin/contracts-upgradeable/access/OwnableUpgradeable.sol\":1525:1537  _msgSender() */\n      tag_98\n        /* \"@openzeppelin/contracts-upgradeable/access/OwnableUpgradeable.sol\":1525:1535  _msgSender */\n      tag_79\n        /* \"@openzeppelin/contracts-upgradeable/access/OwnableUpgradeable.sol\":1525:1537  _msgSender() */\n      jump\t// in\n    tag_98:\n      sub(shl(0xa0, 0x01), 0x01)\n        /* \"@openzeppelin/contracts-upgradeable/access/OwnableUpgradeable.sol\":1514:1537  owner() == _msgSender() */\n      and\n        /* \"@openzeppelin/contracts-upgradeable/access/OwnableUpgradeable.sol\":1514:1521  owner() */\n      tag_99\n        /* \"@openzeppelin/contracts-upgradeable/access/OwnableUpgradeable.sol\":1514:1519  owner */\n      tag_57\n        /* \"@openzeppelin/contracts-upgradeable/access/OwnableUpgradeable.sol\":1514:1521  owner() */\n      jump\t// in\n    tag_99:\n      sub(shl(0xa0, 0x01), 0x01)\n        /* \"@openzeppelin/contracts-upgradeable/access/OwnableUpgradeable.sol\":1514:1537  owner() == _msgSender() */\n      and\n      eq\n        /* \"@openzeppelin/contracts-upgradeable/access/OwnableUpgradeable.sol\":1506:1574  require(owner() == _msgSender(), \"Ownable: caller is not the owner\") */\n      tag_100\n      jumpi\n      mload(0x40)\n      shl(0xe5, 0x461bcd)\n      dup2\n      mstore\n      0x04\n      add\n      tag_82\n      swap1\n      tag_83\n      jump\t// in\n    tag_100:\n        /* \"@openzeppelin/contracts-upgradeable/access/OwnableUpgradeable.sol\":1998:2028  _transferOwnership(address(0)) */\n      tag_103\n        /* \"@openzeppelin/contracts-upgradeable/access/OwnableUpgradeable.sol\":2025:2026  0 */\n      0x00\n        /* \"@openzeppelin/contracts-upgradeable/access/OwnableUpgradeable.sol\":1998:2016  _transferOwnership */\n      tag_104\n        /* \"@openzeppelin/contracts-upgradeable/access/OwnableUpgradeable.sol\":1998:2028  _transferOwnership(address(0)) */\n      jump\t// in\n    tag_103:\n        /* \"@openzeppelin/contracts-upgradeable/access/OwnableUpgradeable.sol\":1934:2035  function renounceOwnership() public virtual onlyOwner {... */\n      jump\t// out\n        /* \"contracts/stabilizer.sol\":2131:4874  function goStabilizer() external onlyExecutor returns (bool) {... */\n    tag_51:\n        /* \"contracts/stabilizer.sol\":2055:2065  msg.sender */\n      caller\n        /* \"contracts/stabilizer.sol\":2186:2190  bool */\n      0x00\n        /* \"contracts/stabilizer.sol\":2046:2066  executor[msg.sender] */\n      swap1\n      dup2\n      mstore\n        /* \"contracts/stabilizer.sol\":2046:2054  executor */\n      0x65\n        /* \"contracts/stabilizer.sol\":2046:2066  executor[msg.sender] */\n      0x20\n      mstore\n      0x40\n      dup2\n      keccak256\n      sload\n      0xff\n      and\n        /* \"contracts/stabilizer.sol\":2038:2107  require(executor[msg.sender], \"executor: caller is not the executor\") */\n      tag_106\n      jumpi\n      mload(0x40)\n      shl(0xe5, 0x461bcd)\n      dup2\n      mstore\n      0x04\n      add\n      tag_82\n      swap1\n      tag_108\n      jump\t// in\n    tag_106:\n        /* \"contracts/stabilizer.sol\":2203:2219  uint256 reserve0 */\n      0x00\n        /* \"contracts/stabilizer.sol\":2221:2237  uint256 reserve1 */\n      dup1\n        /* \"contracts/stabilizer.sol\":2271:2289  usdc_usc_lpAddress */\n      0x66\n      0x00\n      swap1\n      sload\n      swap1\n      0x0100\n      exp\n      swap1\n      div\n      sub(shl(0xa0, 0x01), 0x01)\n      and\n      sub(shl(0xa0, 0x01), 0x01)\n        /* \"contracts/stabilizer.sol\":2243:2311  IUniswapV2Pair(... */\n      and\n      0x0902f1ac\n        /* \"contracts/stabilizer.sol\":2243:2313  IUniswapV2Pair(... */\n      mload(0x40)\n      dup2\n      0xffffffff\n      and\n      0xe0\n      shl\n      dup2\n      mstore\n      0x04\n      add\n      0x60\n      mload(0x40)\n      dup1\n      dup4\n      sub\n      dup2\n      dup7\n      dup1\n      extcodesize\n      iszero\n      dup1\n      iszero\n      tag_110\n      jumpi\n      0x00\n      dup1\n      revert\n    tag_110:\n      pop\n      gas\n      staticcall\n      iszero\n      dup1\n      iszero\n      tag_112\n      jumpi\n      returndatasize\n      0x00\n      dup1\n      returndatacopy\n      revert(0x00, returndatasize)\n    tag_112:\n      pop\n      pop\n      pop\n      pop\n      mload(0x40)\n      returndatasize\n      not(0x1f)\n      0x1f\n      dup3\n      add\n      and\n      dup3\n      add\n      dup1\n      0x40\n      mstore\n      pop\n      dup2\n      add\n      swap1\n      tag_113\n      swap2\n      swap1\n      tag_114\n      jump\t// in\n    tag_113:\n        /* \"contracts/stabilizer.sol\":2202:2313  (uint256 reserve0, uint256 reserve1, ) = IUniswapV2Pair(... */\n      pop\n      sub(shl(0x70, 0x01), 0x01)\n      and\n      swap2\n      pop\n      sub(shl(0x70, 0x01), 0x01)\n      and\n      swap2\n      pop\n        /* \"contracts/stabilizer.sol\":2323:2337  address token0 */\n      0x00\n        /* \"contracts/stabilizer.sol\":2355:2373  usdc_usc_lpAddress */\n      0x66\n      0x00\n      swap1\n      sload\n      swap1\n      0x0100\n      exp\n      swap1\n      div\n      sub(shl(0xa0, 0x01), 0x01)\n      and\n      sub(shl(0xa0, 0x01), 0x01)\n        /* \"contracts/stabilizer.sol\":2340:2381  IUniswapV2Pair(usdc_usc_lpAddress).token0 */\n      and\n      0x0dfe1681\n        /* \"contracts/stabilizer.sol\":2340:2383  IUniswapV2Pair(usdc_usc_lpAddress).token0() */\n      mload(0x40)\n      dup2\n      0xffffffff\n      and\n      0xe0\n      shl\n      dup2\n      mstore\n      0x04\n      add\n      0x20\n      mload(0x40)\n      dup1\n      dup4\n      sub\n      dup2\n      dup7\n      dup1\n      extcodesize\n      iszero\n      dup1\n      iszero\n      tag_115\n      jumpi\n      0x00\n      dup1\n      revert\n    tag_115:\n      pop\n      gas\n      staticcall\n      iszero\n      dup1\n      iszero\n      tag_117\n      jumpi\n      returndatasize\n      0x00\n      dup1\n      returndatacopy\n      revert(0x00, returndatasize)\n    tag_117:\n      pop\n      pop\n      pop\n      pop\n      mload(0x40)\n      returndatasize\n      not(0x1f)\n      0x1f\n      dup3\n      add\n      and\n      dup3\n      add\n      dup1\n      0x40\n      mstore\n      pop\n      dup2\n      add\n      swap1\n      tag_118\n      swap2\n      swap1\n      tag_119\n      jump\t// in\n    tag_118:\n        /* \"contracts/stabilizer.sol\":2527:2530  usc */\n      sload(0x68)\n        /* \"contracts/stabilizer.sol\":2323:2383  address token0 = IUniswapV2Pair(usdc_usc_lpAddress).token0() */\n      swap1\n      swap2\n      pop\n        /* \"contracts/stabilizer.sol\":2468:2485  uint256 reserveIn */\n      0x00\n      swap1\n      dup2\n      swap1\n      sub(shl(0xa0, 0x01), 0x01)\n        /* \"contracts/stabilizer.sol\":2509:2531  token0 == address(usc) */\n      dup1\n      dup6\n      and\n        /* \"contracts/stabilizer.sol\":2527:2530  usc */\n      swap2\n      and\n        /* \"contracts/stabilizer.sol\":2509:2531  token0 == address(usc) */\n      eq\n        /* \"contracts/stabilizer.sol\":2509:2601  token0 == address(usc)... */\n      tag_120\n      jumpi\n        /* \"contracts/stabilizer.sol\":2582:2590  reserve0 */\n      dup5\n        /* \"contracts/stabilizer.sol\":2592:2600  reserve1 */\n      dup5\n        /* \"contracts/stabilizer.sol\":2509:2601  token0 == address(usc)... */\n      jump(tag_121)\n    tag_120:\n        /* \"contracts/stabilizer.sol\":2547:2555  reserve1 */\n      dup4\n        /* \"contracts/stabilizer.sol\":2557:2565  reserve0 */\n      dup6\n        /* \"contracts/stabilizer.sol\":2509:2601  token0 == address(usc)... */\n    tag_121:\n        /* \"contracts/stabilizer.sol\":2650:2654  usdc */\n      sload(0x67)\n        /* \"contracts/stabilizer.sol\":2679:2697  usdc_usc_lpAddress */\n      sload(0x66)\n        /* \"contracts/stabilizer.sol\":2632:2707  IERC20Upgradeable(usdc).balanceOf(... */\n      mload(0x40)\n      shl(0xe0, 0x70a08231)\n      dup2\n      mstore\n        /* \"contracts/stabilizer.sol\":2467:2601  (uint256 reserveIn, uint256 reserveOut) = token0 == address(usc)... */\n      swap4\n      swap6\n      pop\n      swap2\n      swap4\n      pop\n        /* \"contracts/stabilizer.sol\":2612:2629  uint256 usdcForLP */\n      0x00\n      swap3\n      sub(shl(0xa0, 0x01), 0x01)\n        /* \"contracts/stabilizer.sol\":2650:2654  usdc */\n      swap2\n      dup3\n      and\n      swap3\n        /* \"contracts/stabilizer.sol\":2632:2665  IERC20Upgradeable(usdc).balanceOf */\n      0x70a08231\n      swap3\n        /* \"contracts/stabilizer.sol\":2632:2707  IERC20Upgradeable(usdc).balanceOf(... */\n      tag_122\n      swap3\n        /* \"contracts/stabilizer.sol\":2679:2697  usdc_usc_lpAddress */\n      swap2\n      and\n      swap1\n        /* \"contracts/stabilizer.sol\":2632:2707  IERC20Upgradeable(usdc).balanceOf(... */\n      0x04\n      add\n      tag_35\n      jump\t// in\n    tag_122:\n      0x20\n      mload(0x40)\n      dup1\n      dup4\n      sub\n      dup2\n      dup7\n      dup1\n      extcodesize\n      iszero\n      dup1\n      iszero\n      tag_123\n      jumpi\n      0x00\n      dup1\n      revert\n    tag_123:\n      pop\n      gas\n      staticcall\n      iszero\n      dup1\n      iszero\n      tag_125\n      jumpi\n      returndatasize\n      0x00\n      dup1\n      returndatacopy\n      revert(0x00, returndatasize)\n    tag_125:\n      pop\n      pop\n      pop\n      pop\n      mload(0x40)\n      returndatasize\n      not(0x1f)\n      0x1f\n      dup3\n      add\n      and\n      dup3\n      add\n      dup1\n      0x40\n      mstore\n      pop\n      dup2\n      add\n      swap1\n      tag_126\n      swap2\n      swap1\n      tag_127\n      jump\t// in\n    tag_126:\n        /* \"contracts/stabilizer.sol\":2754:2757  usc */\n      sload(0x68)\n        /* \"contracts/stabilizer.sol\":2769:2787  usdc_usc_lpAddress */\n      sload(0x66)\n        /* \"contracts/stabilizer.sol\":2736:2788  IERC20Upgradeable(usc).balanceOf(usdc_usc_lpAddress) */\n      mload(0x40)\n      shl(0xe0, 0x70a08231)\n      dup2\n      mstore\n        /* \"contracts/stabilizer.sol\":2612:2707  uint256 usdcForLP = IERC20Upgradeable(usdc).balanceOf(... */\n      swap3\n      swap4\n      pop\n        /* \"contracts/stabilizer.sol\":2717:2733  uint256 uscForLP */\n      0x00\n      swap3\n      sub(shl(0xa0, 0x01), 0x01)\n        /* \"contracts/stabilizer.sol\":2754:2757  usc */\n      swap3\n      dup4\n      and\n      swap3\n        /* \"contracts/stabilizer.sol\":2736:2768  IERC20Upgradeable(usc).balanceOf */\n      0x70a08231\n      swap3\n        /* \"contracts/stabilizer.sol\":2736:2788  IERC20Upgradeable(usc).balanceOf(usdc_usc_lpAddress) */\n      tag_128\n      swap3\n        /* \"contracts/stabilizer.sol\":2769:2787  usdc_usc_lpAddress */\n      swap2\n      and\n      swap1\n        /* \"contracts/stabilizer.sol\":2736:2788  IERC20Upgradeable(usc).balanceOf(usdc_usc_lpAddress) */\n      0x04\n      add\n      tag_35\n      jump\t// in\n    tag_128:\n      0x20\n      mload(0x40)\n      dup1\n      dup4\n      sub\n      dup2\n      dup7\n      dup1\n      extcodesize\n      iszero\n      dup1\n      iszero\n      tag_129\n      jumpi\n      0x00\n      dup1\n      revert\n    tag_129:\n      pop\n      gas\n      staticcall\n      iszero\n      dup1\n      iszero\n      tag_131\n      jumpi\n      returndatasize\n      0x00\n      dup1\n      returndatacopy\n      revert(0x00, returndatasize)\n    tag_131:\n      pop\n      pop\n      pop\n      pop\n      mload(0x40)\n      returndatasize\n      not(0x1f)\n      0x1f\n      dup3\n      add\n      and\n      dup3\n      add\n      dup1\n      0x40\n      mstore\n      pop\n      dup2\n      add\n      swap1\n      tag_132\n      swap2\n      swap1\n      tag_127\n      jump\t// in\n    tag_132:\n        /* \"contracts/stabilizer.sol\":2717:2788  uint256 uscForLP = IERC20Upgradeable(usc).balanceOf(usdc_usc_lpAddress) */\n      swap1\n      pop\n        /* \"contracts/stabilizer.sol\":2798:2811  uint256 price */\n      0x00\n        /* \"contracts/stabilizer.sol\":2814:2847  usdcForLP.mul(1e18).div(uscForLP) */\n      tag_133\n        /* \"contracts/stabilizer.sol\":2717:2788  uint256 uscForLP = IERC20Upgradeable(usc).balanceOf(usdc_usc_lpAddress) */\n      dup3\n        /* \"contracts/stabilizer.sol\":2814:2833  usdcForLP.mul(1e18) */\n      tag_134\n        /* \"contracts/stabilizer.sol\":2814:2823  usdcForLP */\n      dup6\n        /* \"contracts/stabilizer.sol\":2828:2832  1e18 */\n      0x0de0b6b3a7640000\n        /* \"contracts/stabilizer.sol\":2814:2827  usdcForLP.mul */\n      tag_135\n        /* \"contracts/stabilizer.sol\":2814:2833  usdcForLP.mul(1e18) */\n      jump\t// in\n    tag_134:\n        /* \"contracts/stabilizer.sol\":2814:2837  usdcForLP.mul(1e18).div */\n      swap1\n      tag_136\n        /* \"contracts/stabilizer.sol\":2814:2847  usdcForLP.mul(1e18).div(uscForLP) */\n      jump\t// in\n    tag_133:\n        /* \"contracts/stabilizer.sol\":2798:2847  uint256 price = usdcForLP.mul(1e18).div(uscForLP) */\n      swap1\n      pop\n        /* \"contracts/stabilizer.sol\":2869:2873  1e18 */\n      0x0de0b6b3a7640000\n        /* \"contracts/stabilizer.sol\":2861:2866  price */\n      dup2\n        /* \"contracts/stabilizer.sol\":2861:2873  price > 1e18 */\n      gt\n        /* \"contracts/stabilizer.sol\":2861:2885  price > 1e18 && openSell */\n      dup1\n      iszero\n      tag_137\n      jumpi\n      pop\n        /* \"contracts/stabilizer.sol\":2877:2885  openSell */\n      sload(0x68)\n      shl(0xa8, 0x01)\n      swap1\n      div\n      0xff\n      and\n        /* \"contracts/stabilizer.sol\":2861:2885  price > 1e18 && openSell */\n    tag_137:\n        /* \"contracts/stabilizer.sol\":2857:3652  if (price > 1e18 && openSell) {... */\n      iszero\n      tag_138\n      jumpi\n        /* \"contracts/stabilizer.sol\":2901:2920  uint256 neetSellAmt */\n      0x00\n        /* \"contracts/stabilizer.sol\":2923:2955  (usdcForLP.sub(uscForLP)).div(2) */\n      tag_139\n        /* \"contracts/stabilizer.sol\":2953:2954  2 */\n      0x02\n        /* \"contracts/stabilizer.sol\":2924:2947  usdcForLP.sub(uscForLP) */\n      tag_134\n        /* \"contracts/stabilizer.sol\":2924:2933  usdcForLP */\n      dup7\n        /* \"contracts/stabilizer.sol\":2938:2946  uscForLP */\n      dup7\n        /* \"contracts/stabilizer.sol\":2924:2937  usdcForLP.sub */\n      tag_141\n        /* \"contracts/stabilizer.sol\":2924:2947  usdcForLP.sub(uscForLP) */\n      jump\t// in\n        /* \"contracts/stabilizer.sol\":2923:2955  (usdcForLP.sub(uscForLP)).div(2) */\n    tag_139:\n        /* \"contracts/stabilizer.sol\":2982:2985  usc */\n      sload(0x68)\n        /* \"contracts/stabilizer.sol\":2969:3020  IUSC(address(usc)).mint(address(this), neetSellAmt) */\n      mload(0x40)\n      shl(0xe0, 0x40c10f19)\n      dup2\n      mstore\n        /* \"contracts/stabilizer.sol\":2901:2955  uint256 neetSellAmt = (usdcForLP.sub(uscForLP)).div(2) */\n      swap2\n      swap3\n      pop\n      sub(shl(0xa0, 0x01), 0x01)\n        /* \"contracts/stabilizer.sol\":2982:2985  usc */\n      and\n      swap1\n        /* \"contracts/stabilizer.sol\":2969:2992  IUSC(address(usc)).mint */\n      0x40c10f19\n      swap1\n        /* \"contracts/stabilizer.sol\":2969:3020  IUSC(address(usc)).mint(address(this), neetSellAmt) */\n      tag_142\n      swap1\n        /* \"contracts/stabilizer.sol\":3001:3005  this */\n      address\n      swap1\n        /* \"contracts/stabilizer.sol\":2901:2955  uint256 neetSellAmt = (usdcForLP.sub(uscForLP)).div(2) */\n      dup6\n      swap1\n        /* \"contracts/stabilizer.sol\":2969:3020  IUSC(address(usc)).mint(address(this), neetSellAmt) */\n      0x04\n      add\n      tag_143\n      jump\t// in\n    tag_142:\n      0x20\n      mload(0x40)\n      dup1\n      dup4\n      sub\n      dup2\n      0x00\n      dup8\n      dup1\n      extcodesize\n      iszero\n      dup1\n      iszero\n      tag_144\n      jumpi\n      0x00\n      dup1\n      revert\n    tag_144:\n      pop\n      gas\n      call\n      iszero\n      dup1\n      iszero\n      tag_146\n      jumpi\n      returndatasize\n      0x00\n      dup1\n      returndatacopy\n      revert(0x00, returndatasize)\n    tag_146:\n      pop\n      pop\n      pop\n      pop\n      mload(0x40)\n      returndatasize\n      not(0x1f)\n      0x1f\n      dup3\n      add\n      and\n      dup3\n      add\n      dup1\n      0x40\n      mstore\n      pop\n      dup2\n      add\n      swap1\n      tag_147\n      swap2\n      swap1\n      tag_148\n      jump\t// in\n    tag_147:\n      pop\n        /* \"contracts/stabilizer.sol\":3088:3106  usdc_usc_lpAddress */\n      sload(0x66)\n        /* \"contracts/stabilizer.sol\":3053:3056  usc */\n      sload(0x68)\n        /* \"contracts/stabilizer.sol\":3035:3149  IERC20Upgradeable(usc).safeTransfer(... */\n      tag_149\n      swap2\n      sub(shl(0xa0, 0x01), 0x01)\n        /* \"contracts/stabilizer.sol\":3053:3056  usc */\n      swap2\n      dup3\n      and\n      swap2\n        /* \"contracts/stabilizer.sol\":3088:3106  usdc_usc_lpAddress */\n      and\n        /* \"contracts/stabilizer.sol\":3124:3135  neetSellAmt */\n      dup4\n        /* \"contracts/stabilizer.sol\":3035:3070  IERC20Upgradeable(usc).safeTransfer */\n      tag_150\n        /* \"contracts/stabilizer.sol\":3035:3149  IERC20Upgradeable(usc).safeTransfer(... */\n      jump\t// in\n    tag_149:\n        /* \"contracts/stabilizer.sol\":3163:3180  uint256 amountOut */\n      0x00\n        /* \"contracts/stabilizer.sol\":3183:3293  getAmountOut(... */\n      tag_151\n        /* \"contracts/stabilizer.sol\":3213:3224  neetSellAmt */\n      dup3\n        /* \"contracts/stabilizer.sol\":3242:3252  reserveOut */\n      dup8\n        /* \"contracts/stabilizer.sol\":3270:3279  reserveIn */\n      dup10\n        /* \"contracts/stabilizer.sol\":3183:3195  getAmountOut */\n      tag_152\n        /* \"contracts/stabilizer.sol\":3183:3293  getAmountOut(... */\n      jump\t// in\n    tag_151:\n        /* \"contracts/stabilizer.sol\":3369:3372  usc */\n      sload(0x68)\n        /* \"contracts/stabilizer.sol\":3163:3293  uint256 amountOut = getAmountOut(... */\n      swap1\n      swap2\n      pop\n        /* \"contracts/stabilizer.sol\":3309:3327  uint256 amount0Out */\n      0x00\n      swap1\n      dup2\n      swap1\n      sub(shl(0xa0, 0x01), 0x01)\n        /* \"contracts/stabilizer.sol\":3351:3373  token0 == address(usc) */\n      dup12\n      dup2\n      and\n        /* \"contracts/stabilizer.sol\":3369:3372  usc */\n      swap2\n      and\n        /* \"contracts/stabilizer.sol\":3351:3373  token0 == address(usc) */\n      eq\n        /* \"contracts/stabilizer.sol\":3351:3457  token0 == address(usc)... */\n      tag_153\n      jumpi\n        /* \"contracts/stabilizer.sol\":3435:3444  amountOut */\n      dup3\n        /* \"contracts/stabilizer.sol\":3454:3455  0 */\n      0x00\n        /* \"contracts/stabilizer.sol\":3351:3457  token0 == address(usc)... */\n      jump(tag_154)\n    tag_153:\n        /* \"contracts/stabilizer.sol\":3401:3402  0 */\n      0x00\n        /* \"contracts/stabilizer.sol\":3405:3414  amountOut */\n      dup4\n        /* \"contracts/stabilizer.sol\":3351:3457  token0 == address(usc)... */\n    tag_154:\n        /* \"contracts/stabilizer.sol\":3486:3504  usdc_usc_lpAddress */\n      sload(0x66)\n        /* \"contracts/stabilizer.sol\":3615:3627  new bytes(0) */\n      0x40\n      dup1\n      mload\n        /* \"contracts/stabilizer.sol\":3486:3504  usdc_usc_lpAddress */\n      0x00\n        /* \"contracts/stabilizer.sol\":3615:3627  new bytes(0) */\n      dup2\n      mstore\n      0x20\n      dup2\n      add\n      swap2\n      dup3\n      swap1\n      mstore\n      shl(0xe0, 0x022c0d9f)\n        /* \"contracts/stabilizer.sol\":3471:3641  IUniswapV2Pair(usdc_usc_lpAddress).swap(... */\n      swap1\n      swap2\n      mstore\n        /* \"contracts/stabilizer.sol\":3308:3457  (uint256 amount0Out, uint256 amount1Out) = token0 == address(usc)... */\n      swap3\n      swap5\n      pop\n      swap1\n      swap3\n      pop\n      sub(shl(0xa0, 0x01), 0x01)\n        /* \"contracts/stabilizer.sol\":3486:3504  usdc_usc_lpAddress */\n      and\n      swap1\n        /* \"contracts/stabilizer.sol\":3471:3510  IUniswapV2Pair(usdc_usc_lpAddress).swap */\n      0x022c0d9f\n      swap1\n        /* \"contracts/stabilizer.sol\":3471:3641  IUniswapV2Pair(usdc_usc_lpAddress).swap(... */\n      tag_157\n      swap1\n        /* \"contracts/stabilizer.sol\":3308:3457  (uint256 amount0Out, uint256 amount1Out) = token0 == address(usc)... */\n      dup6\n      swap1\n      dup6\n      swap1\n        /* \"contracts/stabilizer.sol\":3592:3596  this */\n      address\n      swap1\n        /* \"contracts/stabilizer.sol\":3471:3641  IUniswapV2Pair(usdc_usc_lpAddress).swap(... */\n      0x24\n      dup2\n      add\n      tag_158\n      jump\t// in\n    tag_157:\n      0x00\n      mload(0x40)\n      dup1\n      dup4\n      sub\n      dup2\n      0x00\n      dup8\n      dup1\n      extcodesize\n      iszero\n      dup1\n      iszero\n      tag_159\n      jumpi\n      0x00\n      dup1\n      revert\n    tag_159:\n      pop\n      gas\n      call\n      iszero\n      dup1\n      iszero\n      tag_161\n      jumpi\n      returndatasize\n      0x00\n      dup1\n      returndatacopy\n      revert(0x00, returndatasize)\n    tag_161:\n      pop\n      pop\n      pop\n      pop\n        /* \"contracts/stabilizer.sol\":2857:3652  if (price > 1e18 && openSell) {... */\n      pop\n      pop\n      pop\n      pop\n    tag_138:\n        /* \"contracts/stabilizer.sol\":3674:3678  1e18 */\n      0x0de0b6b3a7640000\n        /* \"contracts/stabilizer.sol\":3666:3671  price */\n      dup2\n        /* \"contracts/stabilizer.sol\":3666:3678  price < 1e18 */\n      lt\n        /* \"contracts/stabilizer.sol\":3666:3689  price < 1e18 && openBuy */\n      dup1\n      iszero\n      tag_162\n      jumpi\n      pop\n        /* \"contracts/stabilizer.sol\":3682:3689  openBuy */\n      sload(0x68)\n      shl(0xa0, 0x01)\n      swap1\n      div\n      0xff\n      and\n        /* \"contracts/stabilizer.sol\":3666:3689  price < 1e18 && openBuy */\n    tag_162:\n        /* \"contracts/stabilizer.sol\":3662:4847  if (price < 1e18 && openBuy) {... */\n      iszero\n      tag_163\n      jumpi\n        /* \"contracts/stabilizer.sol\":3705:3723  uint256 neetBuyAmt */\n      0x00\n        /* \"contracts/stabilizer.sol\":3726:3758  (uscForLP.sub(usdcForLP)).div(2) */\n      tag_164\n        /* \"contracts/stabilizer.sol\":3756:3757  2 */\n      0x02\n        /* \"contracts/stabilizer.sol\":3727:3750  uscForLP.sub(usdcForLP) */\n      tag_134\n        /* \"contracts/stabilizer.sol\":3727:3735  uscForLP */\n      dup6\n        /* \"contracts/stabilizer.sol\":3740:3749  usdcForLP */\n      dup8\n        /* \"contracts/stabilizer.sol\":3727:3739  uscForLP.sub */\n      tag_141\n        /* \"contracts/stabilizer.sol\":3727:3750  uscForLP.sub(usdcForLP) */\n      jump\t// in\n        /* \"contracts/stabilizer.sol\":3726:3758  (uscForLP.sub(usdcForLP)).div(2) */\n    tag_164:\n        /* \"contracts/stabilizer.sol\":3819:3823  usdc */\n      sload(0x67)\n        /* \"contracts/stabilizer.sol\":3801:3879  IERC20Upgradeable(usdc).balanceOf(... */\n      mload(0x40)\n      shl(0xe0, 0x70a08231)\n      dup2\n      mstore\n        /* \"contracts/stabilizer.sol\":3705:3758  uint256 neetBuyAmt = (uscForLP.sub(usdcForLP)).div(2) */\n      swap2\n      swap3\n      pop\n        /* \"contracts/stabilizer.sol\":3772:3798  uint256 thisAddressBalance */\n      0x00\n      swap2\n      sub(shl(0xa0, 0x01), 0x01)\n        /* \"contracts/stabilizer.sol\":3819:3823  usdc */\n      swap1\n      swap2\n      and\n      swap1\n        /* \"contracts/stabilizer.sol\":3801:3834  IERC20Upgradeable(usdc).balanceOf */\n      0x70a08231\n      swap1\n        /* \"contracts/stabilizer.sol\":3801:3879  IERC20Upgradeable(usdc).balanceOf(... */\n      tag_166\n      swap1\n        /* \"contracts/stabilizer.sol\":3860:3864  this */\n      address\n      swap1\n        /* \"contracts/stabilizer.sol\":3801:3879  IERC20Upgradeable(usdc).balanceOf(... */\n      0x04\n      add\n      tag_35\n      jump\t// in\n    tag_166:\n      0x20\n      mload(0x40)\n      dup1\n      dup4\n      sub\n      dup2\n      dup7\n      dup1\n      extcodesize\n      iszero\n      dup1\n      iszero\n      tag_167\n      jumpi\n      0x00\n      dup1\n      revert\n    tag_167:\n      pop\n      gas\n      staticcall\n      iszero\n      dup1\n      iszero\n      tag_169\n      jumpi\n      returndatasize\n      0x00\n      dup1\n      returndatacopy\n      revert(0x00, returndatasize)\n    tag_169:\n      pop\n      pop\n      pop\n      pop\n      mload(0x40)\n      returndatasize\n      not(0x1f)\n      0x1f\n      dup3\n      add\n      and\n      dup3\n      add\n      dup1\n      0x40\n      mstore\n      pop\n      dup2\n      add\n      swap1\n      tag_170\n      swap2\n      swap1\n      tag_127\n      jump\t// in\n    tag_170:\n        /* \"contracts/stabilizer.sol\":3772:3879  uint256 thisAddressBalance = IERC20Upgradeable(usdc).balanceOf(... */\n      swap1\n      pop\n        /* \"contracts/stabilizer.sol\":3893:3909  uint256 amountIn */\n      0x00\n        /* \"contracts/stabilizer.sol\":3940:3958  thisAddressBalance */\n      dup2\n        /* \"contracts/stabilizer.sol\":3927:3937  neetBuyAmt */\n      dup4\n        /* \"contracts/stabilizer.sol\":3927:3958  neetBuyAmt > thisAddressBalance */\n      gt\n        /* \"contracts/stabilizer.sol\":3923:4082  if (neetBuyAmt > thisAddressBalance) {... */\n      iszero\n      tag_171\n      jumpi\n      pop\n        /* \"contracts/stabilizer.sol\":3989:4007  thisAddressBalance */\n      dup1\n        /* \"contracts/stabilizer.sol\":3923:4082  if (neetBuyAmt > thisAddressBalance) {... */\n      jump(tag_172)\n    tag_171:\n      pop\n        /* \"contracts/stabilizer.sol\":4057:4067  neetBuyAmt */\n      dup2\n        /* \"contracts/stabilizer.sol\":3923:4082  if (neetBuyAmt > thisAddressBalance) {... */\n    tag_172:\n        /* \"contracts/stabilizer.sol\":4099:4112  amountIn != 0 */\n      dup1\n      iszero\n        /* \"contracts/stabilizer.sol\":4095:4837  if (amountIn != 0) {... */\n      tag_173\n      jumpi\n        /* \"contracts/stabilizer.sol\":4190:4208  usdc_usc_lpAddress */\n      sload(0x66)\n        /* \"contracts/stabilizer.sol\":4150:4154  usdc */\n      sload(0x67)\n        /* \"contracts/stabilizer.sol\":4132:4256  IERC20Upgradeable(usdc).safeTransfer(... */\n      tag_174\n      swap2\n      sub(shl(0xa0, 0x01), 0x01)\n        /* \"contracts/stabilizer.sol\":4150:4154  usdc */\n      swap2\n      dup3\n      and\n      swap2\n        /* \"contracts/stabilizer.sol\":4190:4208  usdc_usc_lpAddress */\n      and\n        /* \"contracts/stabilizer.sol\":4230:4238  amountIn */\n      dup4\n        /* \"contracts/stabilizer.sol\":4132:4168  IERC20Upgradeable(usdc).safeTransfer */\n      tag_150\n        /* \"contracts/stabilizer.sol\":4132:4256  IERC20Upgradeable(usdc).safeTransfer(... */\n      jump\t// in\n    tag_174:\n        /* \"contracts/stabilizer.sol\":4274:4291  uint256 amountOut */\n      0x00\n        /* \"contracts/stabilizer.sol\":4294:4417  getAmountOut(... */\n      tag_175\n        /* \"contracts/stabilizer.sol\":4328:4336  amountIn */\n      dup3\n        /* \"contracts/stabilizer.sol\":4358:4367  reserveIn */\n      dup11\n        /* \"contracts/stabilizer.sol\":4389:4399  reserveOut */\n      dup11\n        /* \"contracts/stabilizer.sol\":4294:4306  getAmountOut */\n      tag_152\n        /* \"contracts/stabilizer.sol\":4294:4417  getAmountOut(... */\n      jump\t// in\n    tag_175:\n        /* \"contracts/stabilizer.sol\":4517:4521  usdc */\n      sload(0x67)\n        /* \"contracts/stabilizer.sol\":4274:4417  uint256 amountOut = getAmountOut(... */\n      swap1\n      swap2\n      pop\n        /* \"contracts/stabilizer.sol\":4437:4455  uint256 amount0Out */\n      0x00\n      swap1\n      dup2\n      swap1\n      sub(shl(0xa0, 0x01), 0x01)\n        /* \"contracts/stabilizer.sol\":4479:4522  token0 ==... */\n      dup14\n      dup2\n      and\n        /* \"contracts/stabilizer.sol\":4517:4521  usdc */\n      swap2\n      and\n        /* \"contracts/stabilizer.sol\":4479:4522  token0 ==... */\n      eq\n        /* \"contracts/stabilizer.sol\":4479:4614  token0 ==... */\n      tag_176\n      jumpi\n        /* \"contracts/stabilizer.sol\":4592:4601  amountOut */\n      dup3\n        /* \"contracts/stabilizer.sol\":4611:4612  0 */\n      0x00\n        /* \"contracts/stabilizer.sol\":4479:4614  token0 ==... */\n      jump(tag_177)\n    tag_176:\n        /* \"contracts/stabilizer.sol\":4554:4555  0 */\n      0x00\n        /* \"contracts/stabilizer.sol\":4558:4567  amountOut */\n      dup4\n        /* \"contracts/stabilizer.sol\":4479:4614  token0 ==... */\n    tag_177:\n        /* \"contracts/stabilizer.sol\":4647:4665  usdc_usc_lpAddress */\n      sload(0x66)\n        /* \"contracts/stabilizer.sol\":4792:4804  new bytes(0) */\n      0x40\n      dup1\n      mload\n        /* \"contracts/stabilizer.sol\":4647:4665  usdc_usc_lpAddress */\n      0x00\n        /* \"contracts/stabilizer.sol\":4792:4804  new bytes(0) */\n      dup2\n      mstore\n      0x20\n      dup2\n      add\n      swap2\n      dup3\n      swap1\n      mstore\n      shl(0xe0, 0x022c0d9f)\n        /* \"contracts/stabilizer.sol\":4632:4822  IUniswapV2Pair(usdc_usc_lpAddress).swap(... */\n      swap1\n      swap2\n      mstore\n        /* \"contracts/stabilizer.sol\":4436:4614  (uint256 amount0Out, uint256 amount1Out) = token0 ==... */\n      swap3\n      swap5\n      pop\n      swap1\n      swap3\n      pop\n      sub(shl(0xa0, 0x01), 0x01)\n        /* \"contracts/stabilizer.sol\":4647:4665  usdc_usc_lpAddress */\n      and\n      swap1\n        /* \"contracts/stabilizer.sol\":4632:4671  IUniswapV2Pair(usdc_usc_lpAddress).swap */\n      0x022c0d9f\n      swap1\n        /* \"contracts/stabilizer.sol\":4632:4822  IUniswapV2Pair(usdc_usc_lpAddress).swap(... */\n      tag_180\n      swap1\n        /* \"contracts/stabilizer.sol\":4436:4614  (uint256 amount0Out, uint256 amount1Out) = token0 ==... */\n      dup6\n      swap1\n      dup6\n      swap1\n        /* \"contracts/stabilizer.sol\":4765:4769  this */\n      address\n      swap1\n        /* \"contracts/stabilizer.sol\":4632:4822  IUniswapV2Pair(usdc_usc_lpAddress).swap(... */\n      0x24\n      dup2\n      add\n      tag_158\n      jump\t// in\n    tag_180:\n      0x00\n      mload(0x40)\n      dup1\n      dup4\n      sub\n      dup2\n      0x00\n      dup8\n      dup1\n      extcodesize\n      iszero\n      dup1\n      iszero\n      tag_181\n      jumpi\n      0x00\n      dup1\n      revert\n    tag_181:\n      pop\n      gas\n      call\n      iszero\n      dup1\n      iszero\n      tag_183\n      jumpi\n      returndatasize\n      0x00\n      dup1\n      returndatacopy\n      revert(0x00, returndatasize)\n    tag_183:\n      pop\n      pop\n      pop\n      pop\n        /* \"contracts/stabilizer.sol\":4095:4837  if (amountIn != 0) {... */\n      pop\n      pop\n      pop\n    tag_173:\n        /* \"contracts/stabilizer.sol\":3662:4847  if (price < 1e18 && openBuy) {... */\n      pop\n      pop\n      pop\n    tag_163:\n        /* \"contracts/stabilizer.sol\":4863:4867  true */\n      0x01\n        /* \"contracts/stabilizer.sol\":4856:4867  return true */\n      swap9\n      pop\n      pop\n      pop\n      pop\n      pop\n      pop\n      pop\n      pop\n      pop\n        /* \"contracts/stabilizer.sol\":2131:4874  function goStabilizer() external onlyExecutor returns (bool) {... */\n      swap1\n      jump\t// out\n        /* \"contracts/stabilizer.sol\":899:932  address public usdc_usc_lpAddress */\n    tag_54:\n      and(sub(shl(0xa0, 0x01), 0x01), sload(0x66))\n      dup2\n      jump\t// out\n        /* \"@openzeppelin/contracts-upgradeable/access/OwnableUpgradeable.sol\":1302:1387  function owner() public view virtual returns (address) {... */\n    tag_57:\n        /* \"@openzeppelin/contracts-upgradeable/access/OwnableUpgradeable.sol\":1374:1380  _owner */\n      and(sub(shl(0xa0, 0x01), 0x01), sload(0x33))\n        /* \"@openzeppelin/contracts-upgradeable/access/OwnableUpgradeable.sol\":1302:1387  function owner() public view virtual returns (address) {... */\n      swap1\n      jump\t// out\n        /* \"contracts/stabilizer.sol\":4880:5095  function withdrawalERC20(address _address, uint256 _amt)... */\n    tag_62:\n        /* \"contracts/stabilizer.sol\":4989:4993  bool */\n      0x00\n        /* \"@openzeppelin/contracts-upgradeable/access/OwnableUpgradeable.sol\":1525:1537  _msgSender() */\n      tag_186\n        /* \"@openzeppelin/contracts-upgradeable/access/OwnableUpgradeable.sol\":1525:1535  _msgSender */\n      tag_79\n        /* \"@openzeppelin/contracts-upgradeable/access/OwnableUpgradeable.sol\":1525:1537  _msgSender() */\n      jump\t// in\n    tag_186:\n      sub(shl(0xa0, 0x01), 0x01)\n        /* \"@openzeppelin/contracts-upgradeable/access/OwnableUpgradeable.sol\":1514:1537  owner() == _msgSender() */\n      and\n        /* \"@openzeppelin/contracts-upgradeable/access/OwnableUpgradeable.sol\":1514:1521  owner() */\n      tag_187\n        /* \"@openzeppelin/contracts-upgradeable/access/OwnableUpgradeable.sol\":1514:1519  owner */\n      tag_57\n        /* \"@openzeppelin/contracts-upgradeable/access/OwnableUpgradeable.sol\":1514:1521  owner() */\n      jump\t// in\n    tag_187:\n      sub(shl(0xa0, 0x01), 0x01)\n        /* \"@openzeppelin/contracts-upgradeable/access/OwnableUpgradeable.sol\":1514:1537  owner() == _msgSender() */\n      and\n      eq\n        /* \"@openzeppelin/contracts-upgradeable/access/OwnableUpgradeable.sol\":1506:1574  require(owner() == _msgSender(), \"Ownable: caller is not the owner\") */\n      tag_188\n      jumpi\n      mload(0x40)\n      shl(0xe5, 0x461bcd)\n      dup2\n      mstore\n      0x04\n      add\n      tag_82\n      swap1\n      tag_83\n      jump\t// in\n    tag_188:\n        /* \"contracts/stabilizer.sol\":5009:5067  IERC20Upgradeable(_address).safeTransfer(msg.sender, _amt) */\n      tag_191\n      sub(shl(0xa0, 0x01), 0x01)\n        /* \"contracts/stabilizer.sol\":5009:5049  IERC20Upgradeable(_address).safeTransfer */\n      dup5\n      and\n        /* \"contracts/stabilizer.sol\":5050:5060  msg.sender */\n      caller\n        /* \"contracts/stabilizer.sol\":5062:5066  _amt */\n      dup5\n        /* \"contracts/stabilizer.sol\":5009:5049  IERC20Upgradeable(_address).safeTransfer */\n      tag_150\n        /* \"contracts/stabilizer.sol\":5009:5067  IERC20Upgradeable(_address).safeTransfer(msg.sender, _amt) */\n      jump\t// in\n    tag_191:\n      pop\n        /* \"contracts/stabilizer.sol\":5084:5088  true */\n      0x01\n        /* \"contracts/stabilizer.sol\":4880:5095  function withdrawalERC20(address _address, uint256 _amt)... */\n      swap3\n      swap2\n      pop\n      pop\n      jump\t// out\n        /* \"contracts/stabilizer.sol\":1437:1815  function initialize(... */\n    tag_67:\n        /* \"@openzeppelin/contracts-upgradeable/proxy/utils/Initializable.sol\":539:552  _initializing */\n      sload(0x00)\n      0x0100\n      swap1\n      div\n      0xff\n      and\n      dup1\n        /* \"@openzeppelin/contracts-upgradeable/proxy/utils/Initializable.sol\":539:569  _initializing || !_initialized */\n      tag_193\n      jumpi\n      pop\n        /* \"@openzeppelin/contracts-upgradeable/proxy/utils/Initializable.sol\":557:569  _initialized */\n      and(0xff, sload(0x00))\n        /* \"@openzeppelin/contracts-upgradeable/proxy/utils/Initializable.sol\":556:569  !_initialized */\n      iszero\n        /* \"@openzeppelin/contracts-upgradeable/proxy/utils/Initializable.sol\":539:569  _initializing || !_initialized */\n    tag_193:\n        /* \"@openzeppelin/contracts-upgradeable/proxy/utils/Initializable.sol\":531:620  require(_initializing || !_initialized, \"Initializable: contract is already initialized\") */\n      tag_194\n      jumpi\n      mload(0x40)\n      shl(0xe5, 0x461bcd)\n      dup2\n      mstore\n      0x04\n      add\n      tag_82\n      swap1\n      tag_196\n      jump\t// in\n    tag_194:\n        /* \"@openzeppelin/contracts-upgradeable/proxy/utils/Initializable.sol\":631:650  bool isTopLevelCall */\n      0x00\n        /* \"@openzeppelin/contracts-upgradeable/proxy/utils/Initializable.sol\":654:667  _initializing */\n      sload\n      0x0100\n      swap1\n      div\n      0xff\n      and\n        /* \"@openzeppelin/contracts-upgradeable/proxy/utils/Initializable.sol\":653:667  !_initializing */\n      iszero\n        /* \"@openzeppelin/contracts-upgradeable/proxy/utils/Initializable.sol\":677:775  if (isTopLevelCall) {... */\n      dup1\n      iszero\n      tag_197\n      jumpi\n        /* \"@openzeppelin/contracts-upgradeable/proxy/utils/Initializable.sol\":711:724  _initializing */\n      0x00\n        /* \"@openzeppelin/contracts-upgradeable/proxy/utils/Initializable.sol\":711:731  _initializing = true */\n      dup1\n      sload\n      not(0xff)\n      not(0xff00)\n      swap1\n      swap2\n      and\n      0x0100\n      or\n        /* \"@openzeppelin/contracts-upgradeable/proxy/utils/Initializable.sol\":745:764  _initialized = true */\n      and\n        /* \"@openzeppelin/contracts-upgradeable/proxy/utils/Initializable.sol\":727:731  true */\n      0x01\n        /* \"@openzeppelin/contracts-upgradeable/proxy/utils/Initializable.sol\":745:764  _initialized = true */\n      or\n      swap1\n      sstore\n        /* \"@openzeppelin/contracts-upgradeable/proxy/utils/Initializable.sol\":677:775  if (isTopLevelCall) {... */\n    tag_197:\n        /* \"contracts/stabilizer.sol\":1609:1625  __Ownable_init() */\n      tag_199\n        /* \"contracts/stabilizer.sol\":1609:1623  __Ownable_init */\n      tag_200\n        /* \"contracts/stabilizer.sol\":1609:1625  __Ownable_init() */\n      jump\t// in\n    tag_199:\n        /* \"contracts/stabilizer.sol\":1677:1695  usdc_usc_lpAddress */\n      0x66\n        /* \"contracts/stabilizer.sol\":1677:1717  usdc_usc_lpAddress = _usdc_usc_lpAddress */\n      dup1\n      sload\n      sub(shl(0xa0, 0x01), 0x01)\n      dup1\n      dup8\n      and\n      not(sub(shl(0xa0, 0x01), 0x01))\n      swap3\n      dup4\n      and\n      or\n      swap1\n      swap3\n      sstore\n        /* \"contracts/stabilizer.sol\":1727:1731  usdc */\n      0x67\n        /* \"contracts/stabilizer.sol\":1727:1739  usdc = _usdc */\n      dup1\n      sload\n      dup7\n      dup5\n      and\n      swap1\n      dup4\n      and\n      or\n      swap1\n      sstore\n        /* \"contracts/stabilizer.sol\":1749:1752  usc */\n      0x68\n        /* \"contracts/stabilizer.sol\":1749:1759  usc = _usc */\n      dup1\n      sload\n      not(shl(0xa8, 0xff))\n      not(shl(0xa0, 0xff))\n      swap5\n      dup8\n      and\n      swap2\n      swap1\n      swap4\n      and\n      or\n        /* \"contracts/stabilizer.sol\":1769:1783  openBuy = true */\n      swap3\n      swap1\n      swap3\n      and\n      shl(0xa0, 0x01)\n      or\n        /* \"contracts/stabilizer.sol\":1793:1808  openSell = true */\n      and\n      shl(0xa8, 0x01)\n      or\n      swap1\n      sstore\n        /* \"@openzeppelin/contracts-upgradeable/proxy/utils/Initializable.sol\":797:863  if (isTopLevelCall) {... */\n      dup1\n      iszero\n      tag_201\n      jumpi\n        /* \"@openzeppelin/contracts-upgradeable/proxy/utils/Initializable.sol\":847:852  false */\n      0x00\n        /* \"@openzeppelin/contracts-upgradeable/proxy/utils/Initializable.sol\":831:852  _initializing = false */\n      dup1\n      sload\n      not(0xff00)\n      and\n      swap1\n      sstore\n        /* \"@openzeppelin/contracts-upgradeable/proxy/utils/Initializable.sol\":797:863  if (isTopLevelCall) {... */\n    tag_201:\n        /* \"contracts/stabilizer.sol\":1437:1815  function initialize(... */\n      pop\n      pop\n      pop\n      pop\n      jump\t// out\n        /* \"contracts/stabilizer.sol\":988:1007  bool public openBuy */\n    tag_69:\n      sload(0x68)\n      shl(0xa0, 0x01)\n      swap1\n      div\n      0xff\n      and\n      dup2\n      jump\t// out\n        /* \"contracts/stabilizer.sol\":1013:1033  bool public openSell */\n    tag_72:\n      sload(0x68)\n      shl(0xa8, 0x01)\n      swap1\n      div\n      0xff\n      and\n      dup2\n      jump\t// out\n        /* \"@openzeppelin/contracts-upgradeable/access/OwnableUpgradeable.sol\":2184:2382  function transferOwnership(address newOwner) public virtual onlyOwner {... */\n    tag_76:\n        /* \"@openzeppelin/contracts-upgradeable/access/OwnableUpgradeable.sol\":1525:1537  _msgSender() */\n      tag_203\n        /* \"@openzeppelin/contracts-upgradeable/access/OwnableUpgradeable.sol\":1525:1535  _msgSender */\n      tag_79\n        /* \"@openzeppelin/contracts-upgradeable/access/OwnableUpgradeable.sol\":1525:1537  _msgSender() */\n      jump\t// in\n    tag_203:\n      sub(shl(0xa0, 0x01), 0x01)\n        /* \"@openzeppelin/contracts-upgradeable/access/OwnableUpgradeable.sol\":1514:1537  owner() == _msgSender() */\n      and\n        /* \"@openzeppelin/contracts-upgradeable/access/OwnableUpgradeable.sol\":1514:1521  owner() */\n      tag_204\n        /* \"@openzeppelin/contracts-upgradeable/access/OwnableUpgradeable.sol\":1514:1519  owner */\n      tag_57\n        /* \"@openzeppelin/contracts-upgradeable/access/OwnableUpgradeable.sol\":1514:1521  owner() */\n      jump\t// in\n    tag_204:\n      sub(shl(0xa0, 0x01), 0x01)\n        /* \"@openzeppelin/contracts-upgradeable/access/OwnableUpgradeable.sol\":1514:1537  owner() == _msgSender() */\n      and\n      eq\n        /* \"@openzeppelin/contracts-upgradeable/access/OwnableUpgradeable.sol\":1506:1574  require(owner() == _msgSender(), \"Ownable: caller is not the owner\") */\n      tag_205\n      jumpi\n      mload(0x40)\n      shl(0xe5, 0x461bcd)\n      dup2\n      mstore\n      0x04\n      add\n      tag_82\n      swap1\n      tag_83\n      jump\t// in\n    tag_205:\n      sub(shl(0xa0, 0x01), 0x01)\n        /* \"@openzeppelin/contracts-upgradeable/access/OwnableUpgradeable.sol\":2272:2294  newOwner != address(0) */\n      dup2\n      and\n        /* \"@openzeppelin/contracts-upgradeable/access/OwnableUpgradeable.sol\":2264:2337  require(newOwner != address(0), \"Ownable: new owner is the zero address\") */\n      tag_208\n      jumpi\n      mload(0x40)\n      shl(0xe5, 0x461bcd)\n      dup2\n      mstore\n      0x04\n      add\n      tag_82\n      swap1\n      tag_210\n      jump\t// in\n    tag_208:\n        /* \"@openzeppelin/contracts-upgradeable/access/OwnableUpgradeable.sol\":2347:2375  _transferOwnership(newOwner) */\n      tag_211\n        /* \"@openzeppelin/contracts-upgradeable/access/OwnableUpgradeable.sol\":2366:2374  newOwner */\n      dup2\n        /* \"@openzeppelin/contracts-upgradeable/access/OwnableUpgradeable.sol\":2347:2365  _transferOwnership */\n      tag_104\n        /* \"@openzeppelin/contracts-upgradeable/access/OwnableUpgradeable.sol\":2347:2375  _transferOwnership(newOwner) */\n      jump\t// in\n    tag_211:\n        /* \"@openzeppelin/contracts-upgradeable/access/OwnableUpgradeable.sol\":2184:2382  function transferOwnership(address newOwner) public virtual onlyOwner {... */\n      pop\n      jump\t// out\n        /* \"@openzeppelin/contracts-upgradeable/utils/ContextUpgradeable.sol\":876:972  function _msgSender() internal view virtual returns (address) {... */\n    tag_79:\n        /* \"@openzeppelin/contracts-upgradeable/utils/ContextUpgradeable.sol\":955:965  msg.sender */\n      caller\n        /* \"@openzeppelin/contracts-upgradeable/utils/ContextUpgradeable.sol\":876:972  function _msgSender() internal view virtual returns (address) {... */\n      swap1\n      jump\t// out\n        /* \"@openzeppelin/contracts-upgradeable/access/OwnableUpgradeable.sol\":2536:2723  function _transferOwnership(address newOwner) internal virtual {... */\n    tag_104:\n        /* \"@openzeppelin/contracts-upgradeable/access/OwnableUpgradeable.sol\":2628:2634  _owner */\n      0x33\n      dup1\n      sload\n      sub(shl(0xa0, 0x01), 0x01)\n        /* \"@openzeppelin/contracts-upgradeable/access/OwnableUpgradeable.sol\":2644:2661  _owner = newOwner */\n      dup4\n      dup2\n      and\n      not(sub(shl(0xa0, 0x01), 0x01))\n      dup4\n      and\n      dup2\n      or\n      swap1\n      swap4\n      sstore\n        /* \"@openzeppelin/contracts-upgradeable/access/OwnableUpgradeable.sol\":2676:2716  OwnershipTransferred(oldOwner, newOwner) */\n      mload(0x40)\n        /* \"@openzeppelin/contracts-upgradeable/access/OwnableUpgradeable.sol\":2628:2634  _owner */\n      swap2\n      and\n      swap2\n        /* \"@openzeppelin/contracts-upgradeable/access/OwnableUpgradeable.sol\":2644:2661  _owner = newOwner */\n      swap1\n        /* \"@openzeppelin/contracts-upgradeable/access/OwnableUpgradeable.sol\":2628:2634  _owner */\n      dup3\n      swap1\n        /* \"@openzeppelin/contracts-upgradeable/access/OwnableUpgradeable.sol\":2676:2716  OwnershipTransferred(oldOwner, newOwner) */\n      0x8be0079c531659141344cd1fd0a4f28419497f9722a3daafe3b4186f6b6457e0\n      swap1\n        /* \"@openzeppelin/contracts-upgradeable/access/OwnableUpgradeable.sol\":2609:2625  address oldOwner */\n      0x00\n      swap1\n        /* \"@openzeppelin/contracts-upgradeable/access/OwnableUpgradeable.sol\":2676:2716  OwnershipTransferred(oldOwner, newOwner) */\n      log3\n        /* \"@openzeppelin/contracts-upgradeable/access/OwnableUpgradeable.sol\":2536:2723  function _transferOwnership(address newOwner) internal virtual {... */\n      pop\n      pop\n      jump\t// out\n        /* \"@openzeppelin/contracts-upgradeable/utils/math/SafeMathUpgradeable.sol\":3462:3558  function mul(uint256 a, uint256 b) internal pure returns (uint256) {... */\n    tag_135:\n        /* \"@openzeppelin/contracts-upgradeable/utils/math/SafeMathUpgradeable.sol\":3520:3527  uint256 */\n      0x00\n        /* \"@openzeppelin/contracts-upgradeable/utils/math/SafeMathUpgradeable.sol\":3546:3551  a * b */\n      tag_215\n        /* \"@openzeppelin/contracts-upgradeable/utils/math/SafeMathUpgradeable.sol\":3550:3551  b */\n      dup3\n        /* \"@openzeppelin/contracts-upgradeable/utils/math/SafeMathUpgradeable.sol\":3546:3547  a */\n      dup5\n        /* \"@openzeppelin/contracts-upgradeable/utils/math/SafeMathUpgradeable.sol\":3546:3551  a * b */\n      tag_216\n      jump\t// in\n    tag_215:\n        /* \"@openzeppelin/contracts-upgradeable/utils/math/SafeMathUpgradeable.sol\":3539:3551  return a * b */\n      swap4\n        /* \"@openzeppelin/contracts-upgradeable/utils/math/SafeMathUpgradeable.sol\":3462:3558  function mul(uint256 a, uint256 b) internal pure returns (uint256) {... */\n      swap3\n      pop\n      pop\n      pop\n      jump\t// out\n        /* \"@openzeppelin/contracts-upgradeable/utils/math/SafeMathUpgradeable.sol\":3847:3943  function div(uint256 a, uint256 b) internal pure returns (uint256) {... */\n    tag_136:\n        /* \"@openzeppelin/contracts-upgradeable/utils/math/SafeMathUpgradeable.sol\":3905:3912  uint256 */\n      0x00\n        /* \"@openzeppelin/contracts-upgradeable/utils/math/SafeMathUpgradeable.sol\":3931:3936  a / b */\n      tag_215\n        /* \"@openzeppelin/contracts-upgradeable/utils/math/SafeMathUpgradeable.sol\":3935:3936  b */\n      dup3\n        /* \"@openzeppelin/contracts-upgradeable/utils/math/SafeMathUpgradeable.sol\":3931:3932  a */\n      dup5\n        /* \"@openzeppelin/contracts-upgradeable/utils/math/SafeMathUpgradeable.sol\":3931:3936  a / b */\n      tag_219\n      jump\t// in\n        /* \"@openzeppelin/contracts-upgradeable/utils/math/SafeMathUpgradeable.sol\":3119:3215  function sub(uint256 a, uint256 b) internal pure returns (uint256) {... */\n    tag_141:\n        /* \"@openzeppelin/contracts-upgradeable/utils/math/SafeMathUpgradeable.sol\":3177:3184  uint256 */\n      0x00\n        /* \"@openzeppelin/contracts-upgradeable/utils/math/SafeMathUpgradeable.sol\":3203:3208  a - b */\n      tag_215\n        /* \"@openzeppelin/contracts-upgradeable/utils/math/SafeMathUpgradeable.sol\":3207:3208  b */\n      dup3\n        /* \"@openzeppelin/contracts-upgradeable/utils/math/SafeMathUpgradeable.sol\":3203:3204  a */\n      dup5\n        /* \"@openzeppelin/contracts-upgradeable/utils/math/SafeMathUpgradeable.sol\":3203:3208  a - b */\n      tag_222\n      jump\t// in\n        /* \"@openzeppelin/contracts-upgradeable/token/ERC20/utils/SafeERC20Upgradeable.sol\":745:961  function safeTransfer(... */\n    tag_150:\n        /* \"@openzeppelin/contracts-upgradeable/token/ERC20/utils/SafeERC20Upgradeable.sol\":868:954  _callOptionalReturn(token, abi.encodeWithSelector(token.transfer.selector, to, value)) */\n      tag_224\n        /* \"@openzeppelin/contracts-upgradeable/token/ERC20/utils/SafeERC20Upgradeable.sol\":888:893  token */\n      dup4\n        /* \"@openzeppelin/contracts-upgradeable/token/ERC20/utils/SafeERC20Upgradeable.sol\":918:941  token.transfer.selector */\n      shl(0xe0, 0xa9059cbb)\n        /* \"@openzeppelin/contracts-upgradeable/token/ERC20/utils/SafeERC20Upgradeable.sol\":943:945  to */\n      dup5\n        /* \"@openzeppelin/contracts-upgradeable/token/ERC20/utils/SafeERC20Upgradeable.sol\":947:952  value */\n      dup5\n        /* \"@openzeppelin/contracts-upgradeable/token/ERC20/utils/SafeERC20Upgradeable.sol\":895:953  abi.encodeWithSelector(token.transfer.selector, to, value) */\n      add(0x24, mload(0x40))\n      tag_225\n      swap3\n      swap2\n      swap1\n      tag_143\n      jump\t// in\n    tag_225:\n      0x40\n      dup1\n      mload\n      not(0x1f)\n      dup2\n      dup5\n      sub\n      add\n      dup2\n      mstore\n      swap2\n      swap1\n      mstore\n      0x20\n      dup2\n      add\n      dup1\n      mload\n      sub(shl(0xe0, 0x01), 0x01)\n      and\n      not(sub(shl(0xe0, 0x01), 0x01))\n      swap1\n      swap4\n      and\n      swap3\n      swap1\n      swap3\n      or\n      swap1\n      swap2\n      mstore\n        /* \"@openzeppelin/contracts-upgradeable/token/ERC20/utils/SafeERC20Upgradeable.sol\":868:887  _callOptionalReturn */\n      tag_226\n        /* \"@openzeppelin/contracts-upgradeable/token/ERC20/utils/SafeERC20Upgradeable.sol\":868:954  _callOptionalReturn(token, abi.encodeWithSelector(token.transfer.selector, to, value)) */\n      jump\t// in\n    tag_224:\n        /* \"@openzeppelin/contracts-upgradeable/token/ERC20/utils/SafeERC20Upgradeable.sol\":745:961  function safeTransfer(... */\n      pop\n      pop\n      pop\n      jump\t// out\n        /* \"contracts/stabilizer.sol\":1040:1431  function getAmountOut(... */\n    tag_152:\n        /* \"contracts/stabilizer.sol\":1172:1189  uint256 amountOut */\n      0x00\n      dup1\n        /* \"contracts/stabilizer.sol\":1227:1245  amountIn.mul(9970) */\n      tag_228\n        /* \"contracts/stabilizer.sol\":1227:1235  amountIn */\n      dup6\n        /* \"contracts/stabilizer.sol\":1240:1244  9970 */\n      0x26f2\n        /* \"contracts/stabilizer.sol\":1227:1239  amountIn.mul */\n      tag_135\n        /* \"contracts/stabilizer.sol\":1227:1245  amountIn.mul(9970) */\n      jump\t// in\n    tag_228:\n        /* \"contracts/stabilizer.sol\":1201:1245  uint256 amountInWithFee = amountIn.mul(9970) */\n      swap1\n      pop\n        /* \"contracts/stabilizer.sol\":1255:1272  uint256 numerator */\n      0x00\n        /* \"contracts/stabilizer.sol\":1275:1306  amountInWithFee.mul(reserveOut) */\n      tag_229\n        /* \"contracts/stabilizer.sol\":1201:1245  uint256 amountInWithFee = amountIn.mul(9970) */\n      dup3\n        /* \"contracts/stabilizer.sol\":1295:1305  reserveOut */\n      dup6\n        /* \"contracts/stabilizer.sol\":1275:1294  amountInWithFee.mul */\n      tag_135\n        /* \"contracts/stabilizer.sol\":1275:1306  amountInWithFee.mul(reserveOut) */\n      jump\t// in\n    tag_229:\n        /* \"contracts/stabilizer.sol\":1255:1306  uint256 numerator = amountInWithFee.mul(reserveOut) */\n      swap1\n      pop\n        /* \"contracts/stabilizer.sol\":1316:1335  uint256 denominator */\n      0x00\n        /* \"contracts/stabilizer.sol\":1338:1379  reserveIn.mul(10000).add(amountInWithFee) */\n      tag_230\n        /* \"contracts/stabilizer.sol\":1363:1378  amountInWithFee */\n      dup4\n        /* \"contracts/stabilizer.sol\":1338:1358  reserveIn.mul(10000) */\n      tag_231\n        /* \"contracts/stabilizer.sol\":1338:1347  reserveIn */\n      dup9\n        /* \"contracts/stabilizer.sol\":1352:1357  10000 */\n      0x2710\n        /* \"contracts/stabilizer.sol\":1338:1351  reserveIn.mul */\n      tag_135\n        /* \"contracts/stabilizer.sol\":1338:1358  reserveIn.mul(10000) */\n      jump\t// in\n    tag_231:\n        /* \"contracts/stabilizer.sol\":1338:1362  reserveIn.mul(10000).add */\n      swap1\n      tag_232\n        /* \"contracts/stabilizer.sol\":1338:1379  reserveIn.mul(10000).add(amountInWithFee) */\n      jump\t// in\n    tag_230:\n        /* \"contracts/stabilizer.sol\":1316:1379  uint256 denominator = reserveIn.mul(10000).add(amountInWithFee) */\n      swap1\n      pop\n        /* \"contracts/stabilizer.sol\":1401:1424  numerator / denominator */\n      tag_233\n        /* \"contracts/stabilizer.sol\":1316:1379  uint256 denominator = reserveIn.mul(10000).add(amountInWithFee) */\n      dup2\n        /* \"contracts/stabilizer.sol\":1401:1410  numerator */\n      dup4\n        /* \"contracts/stabilizer.sol\":1401:1424  numerator / denominator */\n      tag_219\n      jump\t// in\n    tag_233:\n        /* \"contracts/stabilizer.sol\":1389:1424  amountOut = numerator / denominator */\n      swap8\n        /* \"contracts/stabilizer.sol\":1040:1431  function getAmountOut(... */\n      swap7\n      pop\n      pop\n      pop\n      pop\n      pop\n      pop\n      pop\n      jump\t// out\n        /* \"@openzeppelin/contracts-upgradeable/access/OwnableUpgradeable.sol\":988:1114  function __Ownable_init() internal initializer {... */\n    tag_200:\n        /* \"@openzeppelin/contracts-upgradeable/proxy/utils/Initializable.sol\":539:552  _initializing */\n      sload(0x00)\n      0x0100\n      swap1\n      div\n      0xff\n      and\n      dup1\n        /* \"@openzeppelin/contracts-upgradeable/proxy/utils/Initializable.sol\":539:569  _initializing || !_initialized */\n      tag_235\n      jumpi\n      pop\n        /* \"@openzeppelin/contracts-upgradeable/proxy/utils/Initializable.sol\":557:569  _initialized */\n      and(0xff, sload(0x00))\n        /* \"@openzeppelin/contracts-upgradeable/proxy/utils/Initializable.sol\":556:569  !_initialized */\n      iszero\n        /* \"@openzeppelin/contracts-upgradeable/proxy/utils/Initializable.sol\":539:569  _initializing || !_initialized */\n    tag_235:\n        /* \"@openzeppelin/contracts-upgradeable/proxy/utils/Initializable.sol\":531:620  require(_initializing || !_initialized, \"Initializable: contract is already initialized\") */\n      tag_236\n      jumpi\n      mload(0x40)\n      shl(0xe5, 0x461bcd)\n      dup2\n      mstore\n      0x04\n      add\n      tag_82\n      swap1\n      tag_196\n      jump\t// in\n    tag_236:\n        /* \"@openzeppelin/contracts-upgradeable/proxy/utils/Initializable.sol\":631:650  bool isTopLevelCall */\n      0x00\n        /* \"@openzeppelin/contracts-upgradeable/proxy/utils/Initializable.sol\":654:667  _initializing */\n      sload\n      0x0100\n      swap1\n      div\n      0xff\n      and\n        /* \"@openzeppelin/contracts-upgradeable/proxy/utils/Initializable.sol\":653:667  !_initializing */\n      iszero\n        /* \"@openzeppelin/contracts-upgradeable/proxy/utils/Initializable.sol\":677:775  if (isTopLevelCall) {... */\n      dup1\n      iszero\n      tag_238\n      jumpi\n        /* \"@openzeppelin/contracts-upgradeable/proxy/utils/Initializable.sol\":711:724  _initializing */\n      0x00\n        /* \"@openzeppelin/contracts-upgradeable/proxy/utils/Initializable.sol\":711:731  _initializing = true */\n      dup1\n      sload\n      not(0xff)\n      not(0xff00)\n      swap1\n      swap2\n      and\n      0x0100\n      or\n        /* \"@openzeppelin/contracts-upgradeable/proxy/utils/Initializable.sol\":745:764  _initialized = true */\n      and\n        /* \"@openzeppelin/contracts-upgradeable/proxy/utils/Initializable.sol\":727:731  true */\n      0x01\n        /* \"@openzeppelin/contracts-upgradeable/proxy/utils/Initializable.sol\":745:764  _initialized = true */\n      or\n      swap1\n      sstore\n        /* \"@openzeppelin/contracts-upgradeable/proxy/utils/Initializable.sol\":677:775  if (isTopLevelCall) {... */\n    tag_238:\n        /* \"@openzeppelin/contracts-upgradeable/access/OwnableUpgradeable.sol\":1045:1071  __Context_init_unchained() */\n      tag_240\n        /* \"@openzeppelin/contracts-upgradeable/access/OwnableUpgradeable.sol\":1045:1069  __Context_init_unchained */\n      tag_241\n        /* \"@openzeppelin/contracts-upgradeable/access/OwnableUpgradeable.sol\":1045:1071  __Context_init_unchained() */\n      jump\t// in\n    tag_240:\n        /* \"@openzeppelin/contracts-upgradeable/access/OwnableUpgradeable.sol\":1081:1107  __Ownable_init_unchained() */\n      tag_242\n        /* \"@openzeppelin/contracts-upgradeable/access/OwnableUpgradeable.sol\":1081:1105  __Ownable_init_unchained */\n      tag_243\n        /* \"@openzeppelin/contracts-upgradeable/access/OwnableUpgradeable.sol\":1081:1107  __Ownable_init_unchained() */\n      jump\t// in\n    tag_242:\n        /* \"@openzeppelin/contracts-upgradeable/proxy/utils/Initializable.sol\":801:815  isTopLevelCall */\n      dup1\n        /* \"@openzeppelin/contracts-upgradeable/proxy/utils/Initializable.sol\":797:863  if (isTopLevelCall) {... */\n      iszero\n      tag_211\n      jumpi\n        /* \"@openzeppelin/contracts-upgradeable/proxy/utils/Initializable.sol\":847:852  false */\n      0x00\n        /* \"@openzeppelin/contracts-upgradeable/proxy/utils/Initializable.sol\":831:852  _initializing = false */\n      dup1\n      sload\n      not(0xff00)\n      and\n      swap1\n      sstore\n        /* \"@openzeppelin/contracts-upgradeable/access/OwnableUpgradeable.sol\":988:1114  function __Ownable_init() internal initializer {... */\n      pop\n      jump\t// out\n        /* \"@openzeppelin/contracts-upgradeable/token/ERC20/utils/SafeERC20Upgradeable.sol\":3306:4023  function _callOptionalReturn(IERC20Upgradeable token, bytes memory data) private {... */\n    tag_226:\n        /* \"@openzeppelin/contracts-upgradeable/token/ERC20/utils/SafeERC20Upgradeable.sol\":3736:3759  bytes memory returndata */\n      0x00\n        /* \"@openzeppelin/contracts-upgradeable/token/ERC20/utils/SafeERC20Upgradeable.sol\":3762:3831  address(token).functionCall(data, \"SafeERC20: low-level call failed\") */\n      tag_246\n        /* \"@openzeppelin/contracts-upgradeable/token/ERC20/utils/SafeERC20Upgradeable.sol\":3790:3794  data */\n      dup3\n        /* \"@openzeppelin/contracts-upgradeable/token/ERC20/utils/SafeERC20Upgradeable.sol\":3762:3831  address(token).functionCall(data, \"SafeERC20: low-level call failed\") */\n      mload(0x40)\n      dup1\n      0x40\n      add\n      0x40\n      mstore\n      dup1\n      0x20\n      dup2\n      mstore\n      0x20\n      add\n      0x5361666545524332303a206c6f772d6c6576656c2063616c6c206661696c6564\n      dup2\n      mstore\n      pop\n        /* \"@openzeppelin/contracts-upgradeable/token/ERC20/utils/SafeERC20Upgradeable.sol\":3770:3775  token */\n      dup6\n      sub(shl(0xa0, 0x01), 0x01)\n        /* \"@openzeppelin/contracts-upgradeable/token/ERC20/utils/SafeERC20Upgradeable.sol\":3762:3789  address(token).functionCall */\n      and\n      tag_247\n      swap1\n        /* \"@openzeppelin/contracts-upgradeable/token/ERC20/utils/SafeERC20Upgradeable.sol\":3762:3831  address(token).functionCall(data, \"SafeERC20: low-level call failed\") */\n      swap3\n      swap2\n      swap1\n      0xffffffff\n      and\n      jump\t// in\n    tag_246:\n        /* \"@openzeppelin/contracts-upgradeable/token/ERC20/utils/SafeERC20Upgradeable.sol\":3845:3862  returndata.length */\n      dup1\n      mload\n        /* \"@openzeppelin/contracts-upgradeable/token/ERC20/utils/SafeERC20Upgradeable.sol\":3736:3831  bytes memory returndata = address(token).functionCall(data, \"SafeERC20: low-level call failed\") */\n      swap1\n      swap2\n      pop\n        /* \"@openzeppelin/contracts-upgradeable/token/ERC20/utils/SafeERC20Upgradeable.sol\":3845:3866  returndata.length > 0 */\n      iszero\n        /* \"@openzeppelin/contracts-upgradeable/token/ERC20/utils/SafeERC20Upgradeable.sol\":3841:4017  if (returndata.length > 0) {... */\n      tag_224\n      jumpi\n        /* \"@openzeppelin/contracts-upgradeable/token/ERC20/utils/SafeERC20Upgradeable.sol\":3940:3950  returndata */\n      dup1\n        /* \"@openzeppelin/contracts-upgradeable/token/ERC20/utils/SafeERC20Upgradeable.sol\":3929:3959  abi.decode(returndata, (bool)) */\n      dup1\n      0x20\n      add\n      swap1\n      mload\n      dup2\n      add\n      swap1\n      tag_249\n      swap2\n      swap1\n      tag_148\n      jump\t// in\n    tag_249:\n        /* \"@openzeppelin/contracts-upgradeable/token/ERC20/utils/SafeERC20Upgradeable.sol\":3921:4006  require(abi.decode(returndata, (bool)), \"SafeERC20: ERC20 operation did not succeed\") */\n      tag_224\n      jumpi\n      mload(0x40)\n      shl(0xe5, 0x461bcd)\n      dup2\n      mstore\n      0x04\n      add\n      tag_82\n      swap1\n      tag_252\n      jump\t// in\n        /* \"@openzeppelin/contracts-upgradeable/utils/math/SafeMathUpgradeable.sol\":2752:2848  function add(uint256 a, uint256 b) internal pure returns (uint256) {... */\n    tag_232:\n        /* \"@openzeppelin/contracts-upgradeable/utils/math/SafeMathUpgradeable.sol\":2810:2817  uint256 */\n      0x00\n        /* \"@openzeppelin/contracts-upgradeable/utils/math/SafeMathUpgradeable.sol\":2836:2841  a + b */\n      tag_215\n        /* \"@openzeppelin/contracts-upgradeable/utils/math/SafeMathUpgradeable.sol\":2840:2841  b */\n      dup3\n        /* \"@openzeppelin/contracts-upgradeable/utils/math/SafeMathUpgradeable.sol\":2836:2837  a */\n      dup5\n        /* \"@openzeppelin/contracts-upgradeable/utils/math/SafeMathUpgradeable.sol\":2836:2841  a + b */\n      tag_255\n      jump\t// in\n        /* \"@openzeppelin/contracts-upgradeable/utils/ContextUpgradeable.sol\":807:871  function __Context_init_unchained() internal initializer {... */\n    tag_241:\n        /* \"@openzeppelin/contracts-upgradeable/proxy/utils/Initializable.sol\":539:552  _initializing */\n      sload(0x00)\n      0x0100\n      swap1\n      div\n      0xff\n      and\n      dup1\n        /* \"@openzeppelin/contracts-upgradeable/proxy/utils/Initializable.sol\":539:569  _initializing || !_initialized */\n      tag_257\n      jumpi\n      pop\n        /* \"@openzeppelin/contracts-upgradeable/proxy/utils/Initializable.sol\":557:569  _initialized */\n      and(0xff, sload(0x00))\n        /* \"@openzeppelin/contracts-upgradeable/proxy/utils/Initializable.sol\":556:569  !_initialized */\n      iszero\n        /* \"@openzeppelin/contracts-upgradeable/proxy/utils/Initializable.sol\":539:569  _initializing || !_initialized */\n    tag_257:\n        /* \"@openzeppelin/contracts-upgradeable/proxy/utils/Initializable.sol\":531:620  require(_initializing || !_initialized, \"Initializable: contract is already initialized\") */\n      tag_258\n      jumpi\n      mload(0x40)\n      shl(0xe5, 0x461bcd)\n      dup2\n      mstore\n      0x04\n      add\n      tag_82\n      swap1\n      tag_196\n      jump\t// in\n    tag_258:\n        /* \"@openzeppelin/contracts-upgradeable/proxy/utils/Initializable.sol\":631:650  bool isTopLevelCall */\n      0x00\n        /* \"@openzeppelin/contracts-upgradeable/proxy/utils/Initializable.sol\":654:667  _initializing */\n      sload\n      0x0100\n      swap1\n      div\n      0xff\n      and\n        /* \"@openzeppelin/contracts-upgradeable/proxy/utils/Initializable.sol\":653:667  !_initializing */\n      iszero\n        /* \"@openzeppelin/contracts-upgradeable/proxy/utils/Initializable.sol\":677:775  if (isTopLevelCall) {... */\n      dup1\n      iszero\n      tag_242\n      jumpi\n        /* \"@openzeppelin/contracts-upgradeable/proxy/utils/Initializable.sol\":711:724  _initializing */\n      0x00\n        /* \"@openzeppelin/contracts-upgradeable/proxy/utils/Initializable.sol\":711:731  _initializing = true */\n      dup1\n      sload\n      not(0xff)\n      not(0xff00)\n      swap1\n      swap2\n      and\n      0x0100\n      or\n        /* \"@openzeppelin/contracts-upgradeable/proxy/utils/Initializable.sol\":745:764  _initialized = true */\n      and\n        /* \"@openzeppelin/contracts-upgradeable/proxy/utils/Initializable.sol\":727:731  true */\n      0x01\n        /* \"@openzeppelin/contracts-upgradeable/proxy/utils/Initializable.sol\":745:764  _initialized = true */\n      or\n      swap1\n      sstore\n        /* \"@openzeppelin/contracts-upgradeable/proxy/utils/Initializable.sol\":801:815  isTopLevelCall */\n      dup1\n        /* \"@openzeppelin/contracts-upgradeable/proxy/utils/Initializable.sol\":797:863  if (isTopLevelCall) {... */\n      iszero\n      tag_211\n      jumpi\n        /* \"@openzeppelin/contracts-upgradeable/proxy/utils/Initializable.sol\":847:852  false */\n      0x00\n        /* \"@openzeppelin/contracts-upgradeable/proxy/utils/Initializable.sol\":831:852  _initializing = false */\n      dup1\n      sload\n      not(0xff00)\n      and\n      swap1\n      sstore\n        /* \"@openzeppelin/contracts-upgradeable/utils/ContextUpgradeable.sol\":807:871  function __Context_init_unchained() internal initializer {... */\n      pop\n      jump\t// out\n        /* \"@openzeppelin/contracts-upgradeable/access/OwnableUpgradeable.sol\":1120:1226  function __Ownable_init_unchained() internal initializer {... */\n    tag_243:\n        /* \"@openzeppelin/contracts-upgradeable/proxy/utils/Initializable.sol\":539:552  _initializing */\n      sload(0x00)\n      0x0100\n      swap1\n      div\n      0xff\n      and\n      dup1\n        /* \"@openzeppelin/contracts-upgradeable/proxy/utils/Initializable.sol\":539:569  _initializing || !_initialized */\n      tag_264\n      jumpi\n      pop\n        /* \"@openzeppelin/contracts-upgradeable/proxy/utils/Initializable.sol\":557:569  _initialized */\n      and(0xff, sload(0x00))\n        /* \"@openzeppelin/contracts-upgradeable/proxy/utils/Initializable.sol\":556:569  !_initialized */\n      iszero\n        /* \"@openzeppelin/contracts-upgradeable/proxy/utils/Initializable.sol\":539:569  _initializing || !_initialized */\n    tag_264:\n        /* \"@openzeppelin/contracts-upgradeable/proxy/utils/Initializable.sol\":531:620  require(_initializing || !_initialized, \"Initializable: contract is already initialized\") */\n      tag_265\n      jumpi\n      mload(0x40)\n      shl(0xe5, 0x461bcd)\n      dup2\n      mstore\n      0x04\n      add\n      tag_82\n      swap1\n      tag_196\n      jump\t// in\n    tag_265:\n        /* \"@openzeppelin/contracts-upgradeable/proxy/utils/Initializable.sol\":631:650  bool isTopLevelCall */\n      0x00\n        /* \"@openzeppelin/contracts-upgradeable/proxy/utils/Initializable.sol\":654:667  _initializing */\n      sload\n      0x0100\n      swap1\n      div\n      0xff\n      and\n        /* \"@openzeppelin/contracts-upgradeable/proxy/utils/Initializable.sol\":653:667  !_initializing */\n      iszero\n        /* \"@openzeppelin/contracts-upgradeable/proxy/utils/Initializable.sol\":677:775  if (isTopLevelCall) {... */\n      dup1\n      iszero\n      tag_267\n      jumpi\n        /* \"@openzeppelin/contracts-upgradeable/proxy/utils/Initializable.sol\":711:724  _initializing */\n      0x00\n        /* \"@openzeppelin/contracts-upgradeable/proxy/utils/Initializable.sol\":711:731  _initializing = true */\n      dup1\n      sload\n      not(0xff)\n      not(0xff00)\n      swap1\n      swap2\n      and\n      0x0100\n      or\n        /* \"@openzeppelin/contracts-upgradeable/proxy/utils/Initializable.sol\":745:764  _initialized = true */\n      and\n        /* \"@openzeppelin/contracts-upgradeable/proxy/utils/Initializable.sol\":727:731  true */\n      0x01\n        /* \"@openzeppelin/contracts-upgradeable/proxy/utils/Initializable.sol\":745:764  _initialized = true */\n      or\n      swap1\n      sstore\n        /* \"@openzeppelin/contracts-upgradeable/proxy/utils/Initializable.sol\":677:775  if (isTopLevelCall) {... */\n    tag_267:\n        /* \"@openzeppelin/contracts-upgradeable/access/OwnableUpgradeable.sol\":1187:1219  _transferOwnership(_msgSender()) */\n      tag_242\n        /* \"@openzeppelin/contracts-upgradeable/access/OwnableUpgradeable.sol\":1206:1218  _msgSender() */\n      tag_270\n        /* \"@openzeppelin/contracts-upgradeable/access/OwnableUpgradeable.sol\":1206:1216  _msgSender */\n      tag_79\n        /* \"@openzeppelin/contracts-upgradeable/access/OwnableUpgradeable.sol\":1206:1218  _msgSender() */\n      jump\t// in\n    tag_270:\n        /* \"@openzeppelin/contracts-upgradeable/access/OwnableUpgradeable.sol\":1187:1205  _transferOwnership */\n      tag_104\n        /* \"@openzeppelin/contracts-upgradeable/access/OwnableUpgradeable.sol\":1187:1219  _transferOwnership(_msgSender()) */\n      jump\t// in\n        /* \"@openzeppelin/contracts-upgradeable/utils/AddressUpgradeable.sol\":3525:3748  function functionCall(... */\n    tag_247:\n        /* \"@openzeppelin/contracts-upgradeable/utils/AddressUpgradeable.sol\":3658:3670  bytes memory */\n      0x60\n        /* \"@openzeppelin/contracts-upgradeable/utils/AddressUpgradeable.sol\":3689:3741  functionCallWithValue(target, data, 0, errorMessage) */\n      tag_273\n        /* \"@openzeppelin/contracts-upgradeable/utils/AddressUpgradeable.sol\":3711:3717  target */\n      dup5\n        /* \"@openzeppelin/contracts-upgradeable/utils/AddressUpgradeable.sol\":3719:3723  data */\n      dup5\n        /* \"@openzeppelin/contracts-upgradeable/utils/AddressUpgradeable.sol\":3725:3726  0 */\n      0x00\n        /* \"@openzeppelin/contracts-upgradeable/utils/AddressUpgradeable.sol\":3728:3740  errorMessage */\n      dup6\n        /* \"@openzeppelin/contracts-upgradeable/utils/AddressUpgradeable.sol\":3689:3710  functionCallWithValue */\n      tag_274\n        /* \"@openzeppelin/contracts-upgradeable/utils/AddressUpgradeable.sol\":3689:3741  functionCallWithValue(target, data, 0, errorMessage) */\n      jump\t// in\n    tag_273:\n        /* \"@openzeppelin/contracts-upgradeable/utils/AddressUpgradeable.sol\":3682:3741  return functionCallWithValue(target, data, 0, errorMessage) */\n      swap5\n        /* \"@openzeppelin/contracts-upgradeable/utils/AddressUpgradeable.sol\":3525:3748  function functionCall(... */\n      swap4\n      pop\n      pop\n      pop\n      pop\n      jump\t// out\n        /* \"@openzeppelin/contracts-upgradeable/utils/AddressUpgradeable.sol\":4612:5111  function functionCallWithValue(... */\n    tag_274:\n        /* \"@openzeppelin/contracts-upgradeable/utils/AddressUpgradeable.sol\":4777:4789  bytes memory */\n      0x60\n        /* \"@openzeppelin/contracts-upgradeable/utils/AddressUpgradeable.sol\":4834:4839  value */\n      dup3\n        /* \"@openzeppelin/contracts-upgradeable/utils/AddressUpgradeable.sol\":4809:4830  address(this).balance */\n      selfbalance\n        /* \"@openzeppelin/contracts-upgradeable/utils/AddressUpgradeable.sol\":4809:4839  address(this).balance >= value */\n      lt\n      iszero\n        /* \"@openzeppelin/contracts-upgradeable/utils/AddressUpgradeable.sol\":4801:4882  require(address(this).balance >= value, \"Address: insufficient balance for call\") */\n      tag_276\n      jumpi\n      mload(0x40)\n      shl(0xe5, 0x461bcd)\n      dup2\n      mstore\n      0x04\n      add\n      tag_82\n      swap1\n      tag_278\n      jump\t// in\n    tag_276:\n        /* \"@openzeppelin/contracts-upgradeable/utils/AddressUpgradeable.sol\":4900:4918  isContract(target) */\n      tag_279\n        /* \"@openzeppelin/contracts-upgradeable/utils/AddressUpgradeable.sol\":4911:4917  target */\n      dup6\n        /* \"@openzeppelin/contracts-upgradeable/utils/AddressUpgradeable.sol\":4900:4910  isContract */\n      tag_280\n        /* \"@openzeppelin/contracts-upgradeable/utils/AddressUpgradeable.sol\":4900:4918  isContract(target) */\n      jump\t// in\n    tag_279:\n        /* \"@openzeppelin/contracts-upgradeable/utils/AddressUpgradeable.sol\":4892:4952  require(isContract(target), \"Address: call to non-contract\") */\n      tag_281\n      jumpi\n      mload(0x40)\n      shl(0xe5, 0x461bcd)\n      dup2\n      mstore\n      0x04\n      add\n      tag_82\n      swap1\n      tag_283\n      jump\t// in\n    tag_281:\n        /* \"@openzeppelin/contracts-upgradeable/utils/AddressUpgradeable.sol\":4964:4976  bool success */\n      0x00\n        /* \"@openzeppelin/contracts-upgradeable/utils/AddressUpgradeable.sol\":4978:5001  bytes memory returndata */\n      dup1\n        /* \"@openzeppelin/contracts-upgradeable/utils/AddressUpgradeable.sol\":5005:5011  target */\n      dup7\n      sub(shl(0xa0, 0x01), 0x01)\n        /* \"@openzeppelin/contracts-upgradeable/utils/AddressUpgradeable.sol\":5005:5016  target.call */\n      and\n        /* \"@openzeppelin/contracts-upgradeable/utils/AddressUpgradeable.sol\":5024:5029  value */\n      dup6\n        /* \"@openzeppelin/contracts-upgradeable/utils/AddressUpgradeable.sol\":5031:5035  data */\n      dup8\n        /* \"@openzeppelin/contracts-upgradeable/utils/AddressUpgradeable.sol\":5005:5036  target.call{value: value}(data) */\n      mload(0x40)\n      tag_284\n      swap2\n      swap1\n      tag_285\n      jump\t// in\n    tag_284:\n      0x00\n      mload(0x40)\n      dup1\n      dup4\n      sub\n      dup2\n      dup6\n      dup8\n      gas\n      call\n      swap3\n      pop\n      pop\n      pop\n      returndatasize\n      dup1\n      0x00\n      dup2\n      eq\n      tag_288\n      jumpi\n      mload(0x40)\n      swap2\n      pop\n      and(add(returndatasize, 0x3f), not(0x1f))\n      dup3\n      add\n      0x40\n      mstore\n      returndatasize\n      dup3\n      mstore\n      returndatasize\n      0x00\n      0x20\n      dup5\n      add\n      returndatacopy\n      jump(tag_287)\n    tag_288:\n      0x60\n      swap2\n      pop\n    tag_287:\n      pop\n        /* \"@openzeppelin/contracts-upgradeable/utils/AddressUpgradeable.sol\":4963:5036  (bool success, bytes memory returndata) = target.call{value: value}(data) */\n      swap2\n      pop\n      swap2\n      pop\n        /* \"@openzeppelin/contracts-upgradeable/utils/AddressUpgradeable.sol\":5053:5104  verifyCallResult(success, returndata, errorMessage) */\n      tag_233\n        /* \"@openzeppelin/contracts-upgradeable/utils/AddressUpgradeable.sol\":5070:5077  success */\n      dup3\n        /* \"@openzeppelin/contracts-upgradeable/utils/AddressUpgradeable.sol\":5079:5089  returndata */\n      dup3\n        /* \"@openzeppelin/contracts-upgradeable/utils/AddressUpgradeable.sol\":5091:5103  errorMessage */\n      dup7\n        /* \"@openzeppelin/contracts-upgradeable/utils/AddressUpgradeable.sol\":5053:5069  verifyCallResult */\n      tag_290\n        /* \"@openzeppelin/contracts-upgradeable/utils/AddressUpgradeable.sol\":5053:5104  verifyCallResult(success, returndata, errorMessage) */\n      jump\t// in\n        /* \"@openzeppelin/contracts-upgradeable/utils/AddressUpgradeable.sol\":782:1159  function isContract(address account) internal view returns (bool) {... */\n    tag_280:\n        /* \"@openzeppelin/contracts-upgradeable/utils/AddressUpgradeable.sol\":1098:1118  extcodesize(account) */\n      extcodesize\n        /* \"@openzeppelin/contracts-upgradeable/utils/AddressUpgradeable.sol\":1144:1152  size > 0 */\n      iszero\n      iszero\n      swap1\n        /* \"@openzeppelin/contracts-upgradeable/utils/AddressUpgradeable.sol\":782:1159  function isContract(address account) internal view returns (bool) {... */\n      jump\t// out\n        /* \"@openzeppelin/contracts-upgradeable/utils/AddressUpgradeable.sol\":6275:6967  function verifyCallResult(... */\n    tag_290:\n        /* \"@openzeppelin/contracts-upgradeable/utils/AddressUpgradeable.sol\":6421:6433  bytes memory */\n      0x60\n        /* \"@openzeppelin/contracts-upgradeable/utils/AddressUpgradeable.sol\":6449:6456  success */\n      dup4\n        /* \"@openzeppelin/contracts-upgradeable/utils/AddressUpgradeable.sol\":6445:6961  if (success) {... */\n      iszero\n      tag_293\n      jumpi\n      pop\n        /* \"@openzeppelin/contracts-upgradeable/utils/AddressUpgradeable.sol\":6479:6489  returndata */\n      dup2\n        /* \"@openzeppelin/contracts-upgradeable/utils/AddressUpgradeable.sol\":6472:6489  return returndata */\n      jump(tag_215)\n        /* \"@openzeppelin/contracts-upgradeable/utils/AddressUpgradeable.sol\":6445:6961  if (success) {... */\n    tag_293:\n        /* \"@openzeppelin/contracts-upgradeable/utils/AddressUpgradeable.sol\":6590:6607  returndata.length */\n      dup3\n      mload\n        /* \"@openzeppelin/contracts-upgradeable/utils/AddressUpgradeable.sol\":6590:6611  returndata.length > 0 */\n      iszero\n        /* \"@openzeppelin/contracts-upgradeable/utils/AddressUpgradeable.sol\":6586:6951  if (returndata.length > 0) {... */\n      tag_295\n      jumpi\n        /* \"@openzeppelin/contracts-upgradeable/utils/AddressUpgradeable.sol\":6784:6794  returndata */\n      dup3\n        /* \"@openzeppelin/contracts-upgradeable/utils/AddressUpgradeable.sol\":6778:6795  mload(returndata) */\n      mload\n        /* \"@openzeppelin/contracts-upgradeable/utils/AddressUpgradeable.sol\":6844:6859  returndata_size */\n      dup1\n        /* \"@openzeppelin/contracts-upgradeable/utils/AddressUpgradeable.sol\":6831:6841  returndata */\n      dup5\n        /* \"@openzeppelin/contracts-upgradeable/utils/AddressUpgradeable.sol\":6827:6829  32 */\n      0x20\n        /* \"@openzeppelin/contracts-upgradeable/utils/AddressUpgradeable.sol\":6823:6842  add(32, returndata) */\n      add\n        /* \"@openzeppelin/contracts-upgradeable/utils/AddressUpgradeable.sol\":6816:6860  revert(add(32, returndata), returndata_size) */\n      revert\n        /* \"@openzeppelin/contracts-upgradeable/utils/AddressUpgradeable.sol\":6733:6878  {... */\n    tag_295:\n        /* \"@openzeppelin/contracts-upgradeable/utils/AddressUpgradeable.sol\":6923:6935  errorMessage */\n      dup2\n        /* \"@openzeppelin/contracts-upgradeable/utils/AddressUpgradeable.sol\":6916:6936  revert(errorMessage) */\n      mload(0x40)\n      shl(0xe5, 0x461bcd)\n      dup2\n      mstore\n      0x04\n      add\n      tag_82\n      swap2\n      swap1\n      tag_298\n      jump\t// in\n        /* \"#utility.yul\":14:204   */\n    tag_300:\n        /* \"#utility.yul\":95:108   */\n      dup1\n      mload\n      sub(shl(0x70, 0x01), 0x01)\n        /* \"#utility.yul\":137:179   */\n      dup2\n      and\n        /* \"#utility.yul\":127:180   */\n      dup2\n      eq\n        /* \"#utility.yul\":117:119   */\n      tag_90\n      jumpi\n        /* \"#utility.yul\":194:195   */\n      0x00\n        /* \"#utility.yul\":191:192   */\n      dup1\n        /* \"#utility.yul\":184:196   */\n      revert\n        /* \"#utility.yul\":209:468   */\n    tag_45:\n      0x00\n        /* \"#utility.yul\":321:323   */\n      0x20\n        /* \"#utility.yul\":309:318   */\n      dup3\n        /* \"#utility.yul\":300:307   */\n      dup5\n        /* \"#utility.yul\":296:319   */\n      sub\n        /* \"#utility.yul\":292:324   */\n      slt\n        /* \"#utility.yul\":289:291   */\n      iszero\n      tag_304\n      jumpi\n        /* \"#utility.yul\":342:348   */\n      dup1\n        /* \"#utility.yul\":334:340   */\n      dup2\n        /* \"#utility.yul\":327:349   */\n      revert\n        /* \"#utility.yul\":289:291   */\n    tag_304:\n        /* \"#utility.yul\":386:395   */\n      dup2\n        /* \"#utility.yul\":373:396   */\n      calldataload\n        /* \"#utility.yul\":405:438   */\n      tag_215\n        /* \"#utility.yul\":432:437   */\n      dup2\n        /* \"#utility.yul\":405:438   */\n      tag_306\n      jump\t// in\n        /* \"#utility.yul\":473:736   */\n    tag_119:\n      0x00\n        /* \"#utility.yul\":596:598   */\n      0x20\n        /* \"#utility.yul\":584:593   */\n      dup3\n        /* \"#utility.yul\":575:582   */\n      dup5\n        /* \"#utility.yul\":571:594   */\n      sub\n        /* \"#utility.yul\":567:599   */\n      slt\n        /* \"#utility.yul\":564:566   */\n      iszero\n      tag_308\n      jumpi\n        /* \"#utility.yul\":617:623   */\n      dup1\n        /* \"#utility.yul\":609:615   */\n      dup2\n        /* \"#utility.yul\":602:624   */\n      revert\n        /* \"#utility.yul\":564:566   */\n    tag_308:\n        /* \"#utility.yul\":654:663   */\n      dup2\n        /* \"#utility.yul\":648:664   */\n      mload\n        /* \"#utility.yul\":673:706   */\n      tag_215\n        /* \"#utility.yul\":700:705   */\n      dup2\n        /* \"#utility.yul\":673:706   */\n      tag_306\n      jump\t// in\n        /* \"#utility.yul\":741:1286   */\n    tag_66:\n      0x00\n      dup1\n      0x00\n        /* \"#utility.yul\":887:889   */\n      0x60\n        /* \"#utility.yul\":875:884   */\n      dup5\n        /* \"#utility.yul\":866:873   */\n      dup7\n        /* \"#utility.yul\":862:885   */\n      sub\n        /* \"#utility.yul\":858:890   */\n      slt\n        /* \"#utility.yul\":855:857   */\n      iszero\n      tag_311\n      jumpi\n        /* \"#utility.yul\":908:914   */\n      dup2\n        /* \"#utility.yul\":900:906   */\n      dup3\n        /* \"#utility.yul\":893:915   */\n      revert\n        /* \"#utility.yul\":855:857   */\n    tag_311:\n        /* \"#utility.yul\":952:961   */\n      dup4\n        /* \"#utility.yul\":939:962   */\n      calldataload\n        /* \"#utility.yul\":971:1004   */\n      tag_312\n        /* \"#utility.yul\":998:1003   */\n      dup2\n        /* \"#utility.yul\":971:1004   */\n      tag_306\n      jump\t// in\n    tag_312:\n        /* \"#utility.yul\":1023:1028   */\n      swap3\n      pop\n        /* \"#utility.yul\":1080:1082   */\n      0x20\n        /* \"#utility.yul\":1065:1083   */\n      dup5\n      add\n        /* \"#utility.yul\":1052:1084   */\n      calldataload\n        /* \"#utility.yul\":1093:1128   */\n      tag_313\n        /* \"#utility.yul\":1052:1084   */\n      dup2\n        /* \"#utility.yul\":1093:1128   */\n      tag_306\n      jump\t// in\n    tag_313:\n        /* \"#utility.yul\":1147:1154   */\n      swap2\n      pop\n        /* \"#utility.yul\":1206:1208   */\n      0x40\n        /* \"#utility.yul\":1191:1209   */\n      dup5\n      add\n        /* \"#utility.yul\":1178:1210   */\n      calldataload\n        /* \"#utility.yul\":1219:1254   */\n      tag_314\n        /* \"#utility.yul\":1178:1210   */\n      dup2\n        /* \"#utility.yul\":1219:1254   */\n      tag_306\n      jump\t// in\n    tag_314:\n        /* \"#utility.yul\":1273:1280   */\n      dup1\n        /* \"#utility.yul\":1263:1280   */\n      swap2\n      pop\n      pop\n        /* \"#utility.yul\":845:1286   */\n      swap3\n      pop\n      swap3\n      pop\n      swap3\n      jump\t// out\n        /* \"#utility.yul\":1291:1687   */\n    tag_23:\n      0x00\n      dup1\n        /* \"#utility.yul\":1417:1419   */\n      0x40\n        /* \"#utility.yul\":1405:1414   */\n      dup4\n        /* \"#utility.yul\":1396:1403   */\n      dup6\n        /* \"#utility.yul\":1392:1415   */\n      sub\n        /* \"#utility.yul\":1388:1420   */\n      slt\n        /* \"#utility.yul\":1385:1387   */\n      iszero\n      tag_316\n      jumpi\n        /* \"#utility.yul\":1438:1444   */\n      dup2\n        /* \"#utility.yul\":1430:1436   */\n      dup3\n        /* \"#utility.yul\":1423:1445   */\n      revert\n        /* \"#utility.yul\":1385:1387   */\n    tag_316:\n        /* \"#utility.yul\":1482:1491   */\n      dup3\n        /* \"#utility.yul\":1469:1492   */\n      calldataload\n        /* \"#utility.yul\":1501:1534   */\n      tag_317\n        /* \"#utility.yul\":1528:1533   */\n      dup2\n        /* \"#utility.yul\":1501:1534   */\n      tag_306\n      jump\t// in\n    tag_317:\n        /* \"#utility.yul\":1553:1558   */\n      swap2\n      pop\n        /* \"#utility.yul\":1610:1612   */\n      0x20\n        /* \"#utility.yul\":1595:1613   */\n      dup4\n      add\n        /* \"#utility.yul\":1582:1614   */\n      calldataload\n        /* \"#utility.yul\":1623:1655   */\n      tag_318\n        /* \"#utility.yul\":1582:1614   */\n      dup2\n        /* \"#utility.yul\":1623:1655   */\n      tag_319\n      jump\t// in\n    tag_318:\n        /* \"#utility.yul\":1674:1681   */\n      dup1\n        /* \"#utility.yul\":1664:1681   */\n      swap2\n      pop\n      pop\n        /* \"#utility.yul\":1375:1687   */\n      swap3\n      pop\n      swap3\n      swap1\n      pop\n      jump\t// out\n        /* \"#utility.yul\":1692:2019   */\n    tag_61:\n      0x00\n      dup1\n        /* \"#utility.yul\":1821:1823   */\n      0x40\n        /* \"#utility.yul\":1809:1818   */\n      dup4\n        /* \"#utility.yul\":1800:1807   */\n      dup6\n        /* \"#utility.yul\":1796:1819   */\n      sub\n        /* \"#utility.yul\":1792:1824   */\n      slt\n        /* \"#utility.yul\":1789:1791   */\n      iszero\n      tag_321\n      jumpi\n        /* \"#utility.yul\":1842:1848   */\n      dup2\n        /* \"#utility.yul\":1834:1840   */\n      dup3\n        /* \"#utility.yul\":1827:1849   */\n      revert\n        /* \"#utility.yul\":1789:1791   */\n    tag_321:\n        /* \"#utility.yul\":1886:1895   */\n      dup3\n        /* \"#utility.yul\":1873:1896   */\n      calldataload\n        /* \"#utility.yul\":1905:1938   */\n      tag_322\n        /* \"#utility.yul\":1932:1937   */\n      dup2\n        /* \"#utility.yul\":1905:1938   */\n      tag_306\n      jump\t// in\n    tag_322:\n        /* \"#utility.yul\":1957:1962   */\n      swap5\n        /* \"#utility.yul\":2009:2011   */\n      0x20\n        /* \"#utility.yul\":1994:2012   */\n      swap4\n      swap1\n      swap4\n      add\n        /* \"#utility.yul\":1981:2013   */\n      calldataload\n      swap4\n      pop\n      pop\n      pop\n        /* \"#utility.yul\":1779:2019   */\n      jump\t// out\n        /* \"#utility.yul\":2024:2277   */\n    tag_29:\n      0x00\n        /* \"#utility.yul\":2133:2135   */\n      0x20\n        /* \"#utility.yul\":2121:2130   */\n      dup3\n        /* \"#utility.yul\":2112:2119   */\n      dup5\n        /* \"#utility.yul\":2108:2131   */\n      sub\n        /* \"#utility.yul\":2104:2136   */\n      slt\n        /* \"#utility.yul\":2101:2103   */\n      iszero\n      tag_324\n      jumpi\n        /* \"#utility.yul\":2154:2160   */\n      dup1\n        /* \"#utility.yul\":2146:2152   */\n      dup2\n        /* \"#utility.yul\":2139:2161   */\n      revert\n        /* \"#utility.yul\":2101:2103   */\n    tag_324:\n        /* \"#utility.yul\":2198:2207   */\n      dup2\n        /* \"#utility.yul\":2185:2208   */\n      calldataload\n        /* \"#utility.yul\":2217:2247   */\n      tag_215\n        /* \"#utility.yul\":2241:2246   */\n      dup2\n        /* \"#utility.yul\":2217:2247   */\n      tag_319\n      jump\t// in\n        /* \"#utility.yul\":2282:2539   */\n    tag_148:\n      0x00\n        /* \"#utility.yul\":2402:2404   */\n      0x20\n        /* \"#utility.yul\":2390:2399   */\n      dup3\n        /* \"#utility.yul\":2381:2388   */\n      dup5\n        /* \"#utility.yul\":2377:2400   */\n      sub\n        /* \"#utility.yul\":2373:2405   */\n      slt\n        /* \"#utility.yul\":2370:2372   */\n      iszero\n      tag_327\n      jumpi\n        /* \"#utility.yul\":2423:2429   */\n      dup1\n        /* \"#utility.yul\":2415:2421   */\n      dup2\n        /* \"#utility.yul\":2408:2430   */\n      revert\n        /* \"#utility.yul\":2370:2372   */\n    tag_327:\n        /* \"#utility.yul\":2460:2469   */\n      dup2\n        /* \"#utility.yul\":2454:2470   */\n      mload\n        /* \"#utility.yul\":2479:2509   */\n      tag_215\n        /* \"#utility.yul\":2503:2508   */\n      dup2\n        /* \"#utility.yul\":2479:2509   */\n      tag_319\n      jump\t// in\n        /* \"#utility.yul\":2544:3018   */\n    tag_114:\n      0x00\n      dup1\n      0x00\n        /* \"#utility.yul\":2700:2702   */\n      0x60\n        /* \"#utility.yul\":2688:2697   */\n      dup5\n        /* \"#utility.yul\":2679:2686   */\n      dup7\n        /* \"#utility.yul\":2675:2698   */\n      sub\n        /* \"#utility.yul\":2671:2703   */\n      slt\n        /* \"#utility.yul\":2668:2670   */\n      iszero\n      tag_330\n      jumpi\n        /* \"#utility.yul\":2721:2727   */\n      dup3\n        /* \"#utility.yul\":2713:2719   */\n      dup4\n        /* \"#utility.yul\":2706:2728   */\n      revert\n        /* \"#utility.yul\":2668:2670   */\n    tag_330:\n        /* \"#utility.yul\":2749:2791   */\n      tag_331\n        /* \"#utility.yul\":2781:2790   */\n      dup5\n        /* \"#utility.yul\":2749:2791   */\n      tag_300\n      jump\t// in\n    tag_331:\n        /* \"#utility.yul\":2739:2791   */\n      swap3\n      pop\n        /* \"#utility.yul\":2810:2861   */\n      tag_332\n        /* \"#utility.yul\":2857:2859   */\n      0x20\n        /* \"#utility.yul\":2846:2855   */\n      dup6\n        /* \"#utility.yul\":2842:2860   */\n      add\n        /* \"#utility.yul\":2810:2861   */\n      tag_300\n      jump\t// in\n    tag_332:\n        /* \"#utility.yul\":2800:2861   */\n      swap2\n      pop\n        /* \"#utility.yul\":2904:2906   */\n      0x40\n        /* \"#utility.yul\":2893:2902   */\n      dup5\n        /* \"#utility.yul\":2889:2907   */\n      add\n        /* \"#utility.yul\":2883:2908   */\n      mload\n        /* \"#utility.yul\":2948:2958   */\n      0xffffffff\n        /* \"#utility.yul\":2941:2946   */\n      dup2\n        /* \"#utility.yul\":2937:2959   */\n      and\n        /* \"#utility.yul\":2930:2935   */\n      dup2\n        /* \"#utility.yul\":2927:2960   */\n      eq\n        /* \"#utility.yul\":2917:2919   */\n      tag_314\n      jumpi\n        /* \"#utility.yul\":2979:2985   */\n      dup2\n        /* \"#utility.yul\":2971:2977   */\n      dup3\n        /* \"#utility.yul\":2964:2986   */\n      revert\n        /* \"#utility.yul\":3023:3217   */\n    tag_127:\n      0x00\n        /* \"#utility.yul\":3146:3148   */\n      0x20\n        /* \"#utility.yul\":3134:3143   */\n      dup3\n        /* \"#utility.yul\":3125:3132   */\n      dup5\n        /* \"#utility.yul\":3121:3144   */\n      sub\n        /* \"#utility.yul\":3117:3149   */\n      slt\n        /* \"#utility.yul\":3114:3116   */\n      iszero\n      tag_335\n      jumpi\n        /* \"#utility.yul\":3167:3173   */\n      dup1\n        /* \"#utility.yul\":3159:3165   */\n      dup2\n        /* \"#utility.yul\":3152:3174   */\n      revert\n        /* \"#utility.yul\":3114:3116   */\n    tag_335:\n      pop\n        /* \"#utility.yul\":3195:3211   */\n      mload\n      swap2\n        /* \"#utility.yul\":3104:3217   */\n      swap1\n      pop\n      jump\t// out\n        /* \"#utility.yul\":3222:3481   */\n    tag_336:\n      0x00\n        /* \"#utility.yul\":3303:3308   */\n      dup2\n        /* \"#utility.yul\":3297:3309   */\n      mload\n        /* \"#utility.yul\":3330:3336   */\n      dup1\n        /* \"#utility.yul\":3325:3328   */\n      dup5\n        /* \"#utility.yul\":3318:3337   */\n      mstore\n        /* \"#utility.yul\":3346:3409   */\n      tag_338\n        /* \"#utility.yul\":3402:3408   */\n      dup2\n        /* \"#utility.yul\":3395:3399   */\n      0x20\n        /* \"#utility.yul\":3390:3393   */\n      dup7\n        /* \"#utility.yul\":3386:3400   */\n      add\n        /* \"#utility.yul\":3379:3383   */\n      0x20\n        /* \"#utility.yul\":3372:3377   */\n      dup7\n        /* \"#utility.yul\":3368:3384   */\n      add\n        /* \"#utility.yul\":3346:3409   */\n      tag_339\n      jump\t// in\n    tag_338:\n        /* \"#utility.yul\":3463:3465   */\n      0x1f\n        /* \"#utility.yul\":3442:3457   */\n      add\n      not(0x1f)\n        /* \"#utility.yul\":3438:3467   */\n      and\n        /* \"#utility.yul\":3429:3468   */\n      swap3\n      swap1\n      swap3\n      add\n        /* \"#utility.yul\":3470:3474   */\n      0x20\n        /* \"#utility.yul\":3425:3475   */\n      add\n      swap3\n        /* \"#utility.yul\":3273:3481   */\n      swap2\n      pop\n      pop\n      jump\t// out\n        /* \"#utility.yul\":3486:3760   */\n    tag_285:\n      0x00\n        /* \"#utility.yul\":3653:3659   */\n      dup3\n        /* \"#utility.yul\":3647:3660   */\n      mload\n        /* \"#utility.yul\":3669:3722   */\n      tag_341\n        /* \"#utility.yul\":3715:3721   */\n      dup2\n        /* \"#utility.yul\":3710:3713   */\n      dup5\n        /* \"#utility.yul\":3703:3707   */\n      0x20\n        /* \"#utility.yul\":3695:3701   */\n      dup8\n        /* \"#utility.yul\":3691:3708   */\n      add\n        /* \"#utility.yul\":3669:3722   */\n      tag_339\n      jump\t// in\n    tag_341:\n        /* \"#utility.yul\":3738:3754   */\n      swap2\n      swap1\n      swap2\n      add\n      swap3\n        /* \"#utility.yul\":3623:3760   */\n      swap2\n      pop\n      pop\n      jump\t// out\n        /* \"#utility.yul\":3765:3968   */\n    tag_35:\n      sub(shl(0xa0, 0x01), 0x01)\n        /* \"#utility.yul\":3929:3961   */\n      swap2\n      swap1\n      swap2\n      and\n        /* \"#utility.yul\":3911:3962   */\n      dup2\n      mstore\n        /* \"#utility.yul\":3899:3901   */\n      0x20\n        /* \"#utility.yul\":3884:3902   */\n      add\n      swap1\n        /* \"#utility.yul\":3866:3968   */\n      jump\t// out\n        /* \"#utility.yul\":3973:4247   */\n    tag_143:\n      sub(shl(0xa0, 0x01), 0x01)\n        /* \"#utility.yul\":4165:4197   */\n      swap3\n      swap1\n      swap3\n      and\n        /* \"#utility.yul\":4147:4198   */\n      dup3\n      mstore\n        /* \"#utility.yul\":4229:4231   */\n      0x20\n        /* \"#utility.yul\":4214:4232   */\n      dup3\n      add\n        /* \"#utility.yul\":4207:4241   */\n      mstore\n        /* \"#utility.yul\":4135:4137   */\n      0x40\n        /* \"#utility.yul\":4120:4138   */\n      add\n      swap1\n        /* \"#utility.yul\":4102:4247   */\n      jump\t// out\n        /* \"#utility.yul\":4252:4439   */\n    tag_26:\n        /* \"#utility.yul\":4417:4431   */\n      swap1\n      iszero\n        /* \"#utility.yul\":4410:4432   */\n      iszero\n        /* \"#utility.yul\":4392:4433   */\n      dup2\n      mstore\n        /* \"#utility.yul\":4380:4382   */\n      0x20\n        /* \"#utility.yul\":4365:4383   */\n      add\n      swap1\n        /* \"#utility.yul\":4347:4439   */\n      jump\t// out\n        /* \"#utility.yul\":4444:4665   */\n    tag_298:\n      0x00\n        /* \"#utility.yul\":4593:4595   */\n      0x20\n        /* \"#utility.yul\":4582:4591   */\n      dup3\n        /* \"#utility.yul\":4575:4596   */\n      mstore\n        /* \"#utility.yul\":4613:4659   */\n      tag_215\n        /* \"#utility.yul\":4655:4657   */\n      0x20\n        /* \"#utility.yul\":4644:4653   */\n      dup4\n        /* \"#utility.yul\":4640:4658   */\n      add\n        /* \"#utility.yul\":4632:4638   */\n      dup5\n        /* \"#utility.yul\":4613:4659   */\n      tag_336\n      jump\t// in\n        /* \"#utility.yul\":4670:5072   */\n    tag_210:\n        /* \"#utility.yul\":4872:4874   */\n      0x20\n        /* \"#utility.yul\":4854:4875   */\n      dup1\n      dup3\n      mstore\n        /* \"#utility.yul\":4911:4913   */\n      0x26\n        /* \"#utility.yul\":4891:4909   */\n      swap1\n      dup3\n      add\n        /* \"#utility.yul\":4884:4914   */\n      mstore\n        /* \"#utility.yul\":4950:4984   */\n      0x4f776e61626c653a206e6577206f776e657220697320746865207a65726f2061\n        /* \"#utility.yul\":4945:4947   */\n      0x40\n        /* \"#utility.yul\":4930:4948   */\n      dup3\n      add\n        /* \"#utility.yul\":4923:4985   */\n      mstore\n      shl(0xd0, 0x646472657373)\n        /* \"#utility.yul\":5016:5018   */\n      0x60\n        /* \"#utility.yul\":5001:5019   */\n      dup3\n      add\n        /* \"#utility.yul\":4994:5030   */\n      mstore\n        /* \"#utility.yul\":5062:5065   */\n      0x80\n        /* \"#utility.yul\":5047:5066   */\n      add\n      swap1\n        /* \"#utility.yul\":4844:5072   */\n      jump\t// out\n        /* \"#utility.yul\":5077:5477   */\n    tag_108:\n        /* \"#utility.yul\":5279:5281   */\n      0x20\n        /* \"#utility.yul\":5261:5282   */\n      dup1\n      dup3\n      mstore\n        /* \"#utility.yul\":5318:5320   */\n      0x24\n        /* \"#utility.yul\":5298:5316   */\n      swap1\n      dup3\n      add\n        /* \"#utility.yul\":5291:5321   */\n      mstore\n        /* \"#utility.yul\":5357:5391   */\n      0x6578656375746f723a2063616c6c6572206973206e6f74207468652065786563\n        /* \"#utility.yul\":5352:5354   */\n      0x40\n        /* \"#utility.yul\":5337:5355   */\n      dup3\n      add\n        /* \"#utility.yul\":5330:5392   */\n      mstore\n      shl(0xe1, 0x3aba37b9)\n        /* \"#utility.yul\":5423:5425   */\n      0x60\n        /* \"#utility.yul\":5408:5426   */\n      dup3\n      add\n        /* \"#utility.yul\":5401:5435   */\n      mstore\n        /* \"#utility.yul\":5467:5470   */\n      0x80\n        /* \"#utility.yul\":5452:5471   */\n      add\n      swap1\n        /* \"#utility.yul\":5251:5477   */\n      jump\t// out\n        /* \"#utility.yul\":5482:5884   */\n    tag_278:\n        /* \"#utility.yul\":5684:5686   */\n      0x20\n        /* \"#utility.yul\":5666:5687   */\n      dup1\n      dup3\n      mstore\n        /* \"#utility.yul\":5723:5725   */\n      0x26\n        /* \"#utility.yul\":5703:5721   */\n      swap1\n      dup3\n      add\n        /* \"#utility.yul\":5696:5726   */\n      mstore\n        /* \"#utility.yul\":5762:5796   */\n      0x416464726573733a20696e73756666696369656e742062616c616e636520666f\n        /* \"#utility.yul\":5757:5759   */\n      0x40\n        /* \"#utility.yul\":5742:5760   */\n      dup3\n      add\n        /* \"#utility.yul\":5735:5797   */\n      mstore\n      shl(0xd2, 0x1c8818d85b1b)\n        /* \"#utility.yul\":5828:5830   */\n      0x60\n        /* \"#utility.yul\":5813:5831   */\n      dup3\n      add\n        /* \"#utility.yul\":5806:5842   */\n      mstore\n        /* \"#utility.yul\":5874:5877   */\n      0x80\n        /* \"#utility.yul\":5859:5878   */\n      add\n      swap1\n        /* \"#utility.yul\":5656:5884   */\n      jump\t// out\n        /* \"#utility.yul\":5889:6299   */\n    tag_196:\n        /* \"#utility.yul\":6091:6093   */\n      0x20\n        /* \"#utility.yul\":6073:6094   */\n      dup1\n      dup3\n      mstore\n        /* \"#utility.yul\":6130:6132   */\n      0x2e\n        /* \"#utility.yul\":6110:6128   */\n      swap1\n      dup3\n      add\n        /* \"#utility.yul\":6103:6133   */\n      mstore\n        /* \"#utility.yul\":6169:6203   */\n      0x496e697469616c697a61626c653a20636f6e747261637420697320616c726561\n        /* \"#utility.yul\":6164:6166   */\n      0x40\n        /* \"#utility.yul\":6149:6167   */\n      dup3\n      add\n        /* \"#utility.yul\":6142:6204   */\n      mstore\n      shl(0x92, 0x191e481a5b9a5d1a585b1a5e9959)\n        /* \"#utility.yul\":6235:6237   */\n      0x60\n        /* \"#utility.yul\":6220:6238   */\n      dup3\n      add\n        /* \"#utility.yul\":6213:6257   */\n      mstore\n        /* \"#utility.yul\":6289:6292   */\n      0x80\n        /* \"#utility.yul\":6274:6293   */\n      add\n      swap1\n        /* \"#utility.yul\":6063:6299   */\n      jump\t// out\n        /* \"#utility.yul\":6304:6660   */\n    tag_83:\n        /* \"#utility.yul\":6506:6508   */\n      0x20\n        /* \"#utility.yul\":6488:6509   */\n      dup1\n      dup3\n      mstore\n        /* \"#utility.yul\":6525:6543   */\n      dup2\n      dup2\n      add\n        /* \"#utility.yul\":6518:6548   */\n      mstore\n        /* \"#utility.yul\":6584:6618   */\n      0x4f776e61626c653a2063616c6c6572206973206e6f7420746865206f776e6572\n        /* \"#utility.yul\":6579:6581   */\n      0x40\n        /* \"#utility.yul\":6564:6582   */\n      dup3\n      add\n        /* \"#utility.yul\":6557:6619   */\n      mstore\n        /* \"#utility.yul\":6651:6653   */\n      0x60\n        /* \"#utility.yul\":6636:6654   */\n      add\n      swap1\n        /* \"#utility.yul\":6478:6660   */\n      jump\t// out\n        /* \"#utility.yul\":6665:7018   */\n    tag_283:\n        /* \"#utility.yul\":6867:6869   */\n      0x20\n        /* \"#utility.yul\":6849:6870   */\n      dup1\n      dup3\n      mstore\n        /* \"#utility.yul\":6906:6908   */\n      0x1d\n        /* \"#utility.yul\":6886:6904   */\n      swap1\n      dup3\n      add\n        /* \"#utility.yul\":6879:6909   */\n      mstore\n        /* \"#utility.yul\":6945:6976   */\n      0x416464726573733a2063616c6c20746f206e6f6e2d636f6e7472616374000000\n        /* \"#utility.yul\":6940:6942   */\n      0x40\n        /* \"#utility.yul\":6925:6943   */\n      dup3\n      add\n        /* \"#utility.yul\":6918:6977   */\n      mstore\n        /* \"#utility.yul\":7009:7011   */\n      0x60\n        /* \"#utility.yul\":6994:7012   */\n      add\n      swap1\n        /* \"#utility.yul\":6839:7018   */\n      jump\t// out\n        /* \"#utility.yul\":7023:7429   */\n    tag_252:\n        /* \"#utility.yul\":7225:7227   */\n      0x20\n        /* \"#utility.yul\":7207:7228   */\n      dup1\n      dup3\n      mstore\n        /* \"#utility.yul\":7264:7266   */\n      0x2a\n        /* \"#utility.yul\":7244:7262   */\n      swap1\n      dup3\n      add\n        /* \"#utility.yul\":7237:7267   */\n      mstore\n        /* \"#utility.yul\":7303:7337   */\n      0x5361666545524332303a204552433230206f7065726174696f6e20646964206e\n        /* \"#utility.yul\":7298:7300   */\n      0x40\n        /* \"#utility.yul\":7283:7301   */\n      dup3\n      add\n        /* \"#utility.yul\":7276:7338   */\n      mstore\n      shl(0xb2, 0x1bdd081cdd58d8d95959)\n        /* \"#utility.yul\":7369:7371   */\n      0x60\n        /* \"#utility.yul\":7354:7372   */\n      dup3\n      add\n        /* \"#utility.yul\":7347:7387   */\n      mstore\n        /* \"#utility.yul\":7419:7422   */\n      0x80\n        /* \"#utility.yul\":7404:7423   */\n      add\n      swap1\n        /* \"#utility.yul\":7197:7429   */\n      jump\t// out\n        /* \"#utility.yul\":7434:7894   */\n    tag_158:\n      0x00\n        /* \"#utility.yul\":7665:7671   */\n      dup6\n        /* \"#utility.yul\":7654:7663   */\n      dup3\n        /* \"#utility.yul\":7647:7672   */\n      mstore\n        /* \"#utility.yul\":7708:7714   */\n      dup5\n        /* \"#utility.yul\":7703:7705   */\n      0x20\n        /* \"#utility.yul\":7692:7701   */\n      dup4\n        /* \"#utility.yul\":7688:7706   */\n      add\n        /* \"#utility.yul\":7681:7715   */\n      mstore\n        /* \"#utility.yul\":7780:7781   */\n      0x01\n        /* \"#utility.yul\":7776:7777   */\n      dup1\n        /* \"#utility.yul\":7771:7774   */\n      0xa0\n        /* \"#utility.yul\":7767:7778   */\n      shl\n        /* \"#utility.yul\":7763:7782   */\n      sub\n        /* \"#utility.yul\":7755:7761   */\n      dup5\n        /* \"#utility.yul\":7751:7783   */\n      and\n        /* \"#utility.yul\":7746:7748   */\n      0x40\n        /* \"#utility.yul\":7735:7744   */\n      dup4\n        /* \"#utility.yul\":7731:7749   */\n      add\n        /* \"#utility.yul\":7724:7784   */\n      mstore\n        /* \"#utility.yul\":7820:7823   */\n      0x80\n        /* \"#utility.yul\":7815:7817   */\n      0x60\n        /* \"#utility.yul\":7804:7813   */\n      dup4\n        /* \"#utility.yul\":7800:7818   */\n      add\n        /* \"#utility.yul\":7793:7824   */\n      mstore\n        /* \"#utility.yul\":7841:7888   */\n      tag_355\n        /* \"#utility.yul\":7883:7886   */\n      0x80\n        /* \"#utility.yul\":7872:7881   */\n      dup4\n        /* \"#utility.yul\":7868:7887   */\n      add\n        /* \"#utility.yul\":7860:7866   */\n      dup5\n        /* \"#utility.yul\":7841:7888   */\n      tag_336\n      jump\t// in\n    tag_355:\n        /* \"#utility.yul\":7833:7888   */\n      swap7\n        /* \"#utility.yul\":7637:7894   */\n      swap6\n      pop\n      pop\n      pop\n      pop\n      pop\n      pop\n      jump\t// out\n        /* \"#utility.yul\":7899:8027   */\n    tag_255:\n      0x00\n        /* \"#utility.yul\":7970:7971   */\n      dup3\n        /* \"#utility.yul\":7966:7972   */\n      not\n        /* \"#utility.yul\":7963:7964   */\n      dup3\n        /* \"#utility.yul\":7960:7973   */\n      gt\n        /* \"#utility.yul\":7957:7959   */\n      iszero\n      tag_358\n      jumpi\n        /* \"#utility.yul\":7976:7994   */\n      tag_358\n      tag_359\n      jump\t// in\n    tag_358:\n      pop\n        /* \"#utility.yul\":8012:8021   */\n      add\n      swap1\n        /* \"#utility.yul\":7947:8027   */\n      jump\t// out\n        /* \"#utility.yul\":8032:8249   */\n    tag_219:\n      0x00\n        /* \"#utility.yul\":8098:8099   */\n      dup3\n        /* \"#utility.yul\":8088:8090   */\n      tag_361\n      jumpi\n      shl(0xe0, 0x4e487b71)\n        /* \"#utility.yul\":8123:8154   */\n      dup2\n      mstore\n        /* \"#utility.yul\":8177:8181   */\n      0x12\n        /* \"#utility.yul\":8174:8175   */\n      0x04\n        /* \"#utility.yul\":8167:8182   */\n      mstore\n        /* \"#utility.yul\":8205:8209   */\n      0x24\n        /* \"#utility.yul\":8130:8131   */\n      dup2\n        /* \"#utility.yul\":8195:8210   */\n      revert\n        /* \"#utility.yul\":8088:8090   */\n    tag_361:\n      pop\n        /* \"#utility.yul\":8234:8243   */\n      div\n      swap1\n        /* \"#utility.yul\":8078:8249   */\n      jump\t// out\n        /* \"#utility.yul\":8254:8422   */\n    tag_216:\n      0x00\n        /* \"#utility.yul\":8360:8361   */\n      dup2\n        /* \"#utility.yul\":8356:8357   */\n      0x00\n        /* \"#utility.yul\":8352:8358   */\n      not\n        /* \"#utility.yul\":8348:8362   */\n      div\n        /* \"#utility.yul\":8345:8346   */\n      dup4\n        /* \"#utility.yul\":8342:8363   */\n      gt\n        /* \"#utility.yul\":8337:8338   */\n      dup3\n        /* \"#utility.yul\":8330:8339   */\n      iszero\n        /* \"#utility.yul\":8323:8340   */\n      iszero\n        /* \"#utility.yul\":8319:8364   */\n      and\n        /* \"#utility.yul\":8316:8318   */\n      iszero\n      tag_364\n      jumpi\n        /* \"#utility.yul\":8367:8385   */\n      tag_364\n      tag_359\n      jump\t// in\n    tag_364:\n      pop\n        /* \"#utility.yul\":8407:8416   */\n      mul\n      swap1\n        /* \"#utility.yul\":8306:8422   */\n      jump\t// out\n        /* \"#utility.yul\":8427:8552   */\n    tag_222:\n      0x00\n        /* \"#utility.yul\":8495:8496   */\n      dup3\n        /* \"#utility.yul\":8492:8493   */\n      dup3\n        /* \"#utility.yul\":8489:8497   */\n      lt\n        /* \"#utility.yul\":8486:8488   */\n      iszero\n      tag_367\n      jumpi\n        /* \"#utility.yul\":8500:8518   */\n      tag_367\n      tag_359\n      jump\t// in\n    tag_367:\n      pop\n        /* \"#utility.yul\":8537:8546   */\n      sub\n      swap1\n        /* \"#utility.yul\":8476:8552   */\n      jump\t// out\n        /* \"#utility.yul\":8557:8815   */\n    tag_339:\n        /* \"#utility.yul\":8629:8630   */\n      0x00\n        /* \"#utility.yul\":8639:8752   */\n    tag_369:\n        /* \"#utility.yul\":8653:8659   */\n      dup4\n        /* \"#utility.yul\":8650:8651   */\n      dup2\n        /* \"#utility.yul\":8647:8660   */\n      lt\n        /* \"#utility.yul\":8639:8752   */\n      iszero\n      tag_371\n      jumpi\n        /* \"#utility.yul\":8729:8740   */\n      dup2\n      dup2\n      add\n        /* \"#utility.yul\":8723:8741   */\n      mload\n        /* \"#utility.yul\":8710:8721   */\n      dup4\n      dup3\n      add\n        /* \"#utility.yul\":8703:8742   */\n      mstore\n        /* \"#utility.yul\":8675:8677   */\n      0x20\n        /* \"#utility.yul\":8668:8678   */\n      add\n        /* \"#utility.yul\":8639:8752   */\n      jump(tag_369)\n    tag_371:\n        /* \"#utility.yul\":8770:8776   */\n      dup4\n        /* \"#utility.yul\":8767:8768   */\n      dup2\n        /* \"#utility.yul\":8764:8777   */\n      gt\n        /* \"#utility.yul\":8761:8763   */\n      iszero\n      tag_201\n      jumpi\n      pop\n      pop\n        /* \"#utility.yul\":8805:8806   */\n      0x00\n        /* \"#utility.yul\":8787:8803   */\n      swap2\n      add\n        /* \"#utility.yul\":8780:8807   */\n      mstore\n        /* \"#utility.yul\":8610:8815   */\n      jump\t// out\n        /* \"#utility.yul\":8820:8947   */\n    tag_359:\n        /* \"#utility.yul\":8881:8891   */\n      0x4e487b71\n        /* \"#utility.yul\":8876:8879   */\n      0xe0\n        /* \"#utility.yul\":8872:8892   */\n      shl\n        /* \"#utility.yul\":8869:8870   */\n      0x00\n        /* \"#utility.yul\":8862:8893   */\n      mstore\n        /* \"#utility.yul\":8912:8916   */\n      0x11\n        /* \"#utility.yul\":8909:8910   */\n      0x04\n        /* \"#utility.yul\":8902:8917   */\n      mstore\n        /* \"#utility.yul\":8936:8940   */\n      0x24\n        /* \"#utility.yul\":8933:8934   */\n      0x00\n        /* \"#utility.yul\":8926:8941   */\n      revert\n        /* \"#utility.yul\":8952:9085   */\n    tag_306:\n      sub(shl(0xa0, 0x01), 0x01)\n        /* \"#utility.yul\":9029:9060   */\n      dup2\n      and\n        /* \"#utility.yul\":9019:9061   */\n      dup2\n      eq\n        /* \"#utility.yul\":9009:9011   */\n      tag_211\n      jumpi\n        /* \"#utility.yul\":9075:9076   */\n      0x00\n        /* \"#utility.yul\":9072:9073   */\n      dup1\n        /* \"#utility.yul\":9065:9077   */\n      revert\n        /* \"#utility.yul\":9090:9210   */\n    tag_319:\n        /* \"#utility.yul\":9178:9183   */\n      dup1\n        /* \"#utility.yul\":9171:9184   */\n      iszero\n        /* \"#utility.yul\":9164:9185   */\n      iszero\n        /* \"#utility.yul\":9157:9162   */\n      dup2\n        /* \"#utility.yul\":9154:9186   */\n      eq\n        /* \"#utility.yul\":9144:9146   */\n      tag_211\n      jumpi\n        /* \"#utility.yul\":9200:9201   */\n      0x00\n        /* \"#utility.yul\":9197:9198   */\n      dup1\n        /* \"#utility.yul\":9190:9202   */\n      revert\n\n    auxdata: 0xa2646970667358221220d152e2b969a20236d022cd70a748923817e5c217e2629d01422cb564072649a364736f6c63430008000033\n}\n",
				"bytecode": {
					"linkReferences": {},
					"object": "608060405234801561001057600080fd5b506114ee806100206000396000f3fe608060405234801561001057600080fd5b50600436106100f55760003560e01c8063796c7be711610097578063c0c53b8b11610066578063c0c53b8b146101ae578063d4a67930146101c1578063f1eae64a146101c9578063f2fde38b146101d1576100f5565b8063796c7be7146101835780637e6f7a091461018b5780638da5cb5b14610193578063930ed0331461019b576100f5565b80633c03b9a4116100d35780633c03b9a41461014b5780633e413bee1461015e57806348c7e52814610166578063715018a614610179576100f5565b80631e1bff3f146100fa57806329e9a524146101235780633011d3d514610136575b600080fd5b61010d610108366004611051565b6101e4565b60405161011a91906111bc565b60405180910390f35b61010d6101313660046110b4565b61025d565b61013e6102be565b60405161011a919061118f565b61010d6101593660046110b4565b6102cd565b61013e61032f565b61010d610174366004610fcf565b61033e565b610181610353565b005b61010d61039e565b61013e61099d565b61013e6109ac565b61010d6101a9366004611089565b6109bb565b6101816101bc366004611007565b610a19565b61010d610af0565b61010d610b00565b6101816101df366004610fcf565b610b10565b60006101ee610b81565b6001600160a01b03166101ff6109ac565b6001600160a01b03161461022e5760405162461bcd60e51b8152600401610225906112f8565b60405180910390fd5b506001600160a01b0382166000908152606560205260409020805482151560ff19909116179055600192915050565b6000610267610b81565b6001600160a01b03166102786109ac565b6001600160a01b03161461029e5760405162461bcd60e51b8152600401610225906112f8565b506068805460ff60a01b1916600160a01b8315150217905560015b919050565b6068546001600160a01b031681565b60006102d7610b81565b6001600160a01b03166102e86109ac565b6001600160a01b03161461030e5760405162461bcd60e51b8152600401610225906112f8565b5060688054821515600160a81b0260ff60a81b199091161790556001919050565b6067546001600160a01b031681565b60656020526000908152604090205460ff1681565b61035b610b81565b6001600160a01b031661036c6109ac565b6001600160a01b0316146103925760405162461bcd60e51b8152600401610225906112f8565b61039c6000610b85565b565b3360009081526065602052604081205460ff166103cd5760405162461bcd60e51b815260040161022590611220565b600080606660009054906101000a90046001600160a01b03166001600160a01b0316630902f1ac6040518163ffffffff1660e01b815260040160606040518083038186803b15801561041e57600080fd5b505afa158015610432573d6000803e3d6000fd5b505050506040513d601f19601f8201168201806040525081019061045691906110ec565b506001600160701b031691506001600160701b031691506000606660009054906101000a90046001600160a01b03166001600160a01b0316630dfe16816040518163ffffffff1660e01b815260040160206040518083038186803b1580156104bd57600080fd5b505afa1580156104d1573d6000803e3d6000fd5b505050506040513d601f19601f820116820180604052508101906104f59190610feb565b60685490915060009081906001600160a01b0380851691161461051957848461051c565b83855b6067546066546040516370a0823160e01b81529395509193506000926001600160a01b03918216926370a08231926105599291169060040161118f565b60206040518083038186803b15801561057157600080fd5b505afa158015610585573d6000803e3d6000fd5b505050506040513d601f19601f820116820180604052508101906105a9919061112f565b6068546066546040516370a0823160e01b81529293506000926001600160a01b03928316926370a08231926105e39291169060040161118f565b60206040518083038186803b1580156105fb57600080fd5b505afa15801561060f573d6000803e3d6000fd5b505050506040513d601f19601f82011682018060405250810190610633919061112f565b905060006106538261064d85670de0b6b3a7640000610bd7565b90610bea565b9050670de0b6b3a7640000811180156106755750606854600160a81b900460ff165b156107e257600061068b600261064d8686610bf6565b6068546040516340c10f1960e01b81529192506001600160a01b0316906340c10f19906106be90309085906004016111a3565b602060405180830381600087803b1580156106d857600080fd5b505af11580156106ec573d6000803e3d6000fd5b505050506040513d601f19601f8201168201806040525081019061071091906110d0565b5060665460685461072e916001600160a01b03918216911683610c02565b600061073b828789610c5d565b60685490915060009081906001600160a01b038b811691161461076057826000610764565b6000835b6066546040805160008152602081019182905263022c0d9f60e01b9091529294509092506001600160a01b03169063022c0d9f906107ab90859085903090602481016113ae565b600060405180830381600087803b1580156107c557600080fd5b505af11580156107d9573d6000803e3d6000fd5b50505050505050505b670de0b6b3a7640000811080156108025750606854600160a01b900460ff165b1561098e576000610818600261064d8587610bf6565b6067546040516370a0823160e01b81529192506000916001600160a01b03909116906370a082319061084e90309060040161118f565b60206040518083038186803b15801561086657600080fd5b505afa15801561087a573d6000803e3d6000fd5b505050506040513d601f19601f8201168201806040525081019061089e919061112f565b90506000818311156108b15750806108b4565b50815b801561098a576066546067546108d7916001600160a01b03918216911683610c02565b60006108e4828a8a610c5d565b60675490915060009081906001600160a01b038d81169116146109095782600061090d565b6000835b6066546040805160008152602081019182905263022c0d9f60e01b9091529294509092506001600160a01b03169063022c0d9f9061095490859085903090602481016113ae565b600060405180830381600087803b15801561096e57600080fd5b505af1158015610982573d6000803e3d6000fd5b505050505050505b5050505b60019850505050505050505090565b6066546001600160a01b031681565b6033546001600160a01b031690565b60006109c5610b81565b6001600160a01b03166109d66109ac565b6001600160a01b0316146109fc5760405162461bcd60e51b8152600401610225906112f8565b610a106001600160a01b0384163384610c02565b50600192915050565b600054610100900460ff1680610a32575060005460ff16155b610a4e5760405162461bcd60e51b8152600401610225906112aa565b600054610100900460ff16158015610a79576000805460ff1961ff0019909116610100171660011790555b610a81610cab565b606680546001600160a01b038087166001600160a01b031992831617909255606780548684169083161790556068805460ff60a81b1960ff60a01b19948716919093161792909216600160a01b1716600160a81b1790558015610aea576000805461ff00191690555b50505050565b606854600160a01b900460ff1681565b606854600160a81b900460ff1681565b610b18610b81565b6001600160a01b0316610b296109ac565b6001600160a01b031614610b4f5760405162461bcd60e51b8152600401610225906112f8565b6001600160a01b038116610b755760405162461bcd60e51b8152600401610225906111da565b610b7e81610b85565b50565b3390565b603380546001600160a01b038381166001600160a01b0319831681179093556040519116919082907f8be0079c531659141344cd1fd0a4f28419497f9722a3daafe3b4186f6b6457e090600090a35050565b6000610be3828461141d565b9392505050565b6000610be382846113fd565b6000610be3828461143c565b610c588363a9059cbb60e01b8484604051602401610c219291906111a3565b60408051601f198184030181529190526020810180516001600160e01b03166001600160e01b031990931692909217909152610d2f565b505050565b600080610c6c856126f2610bd7565b90506000610c7a8285610bd7565b90506000610c9483610c8e88612710610bd7565b90610dbe565b9050610ca081836113fd565b979650505050505050565b600054610100900460ff1680610cc4575060005460ff16155b610ce05760405162461bcd60e51b8152600401610225906112aa565b600054610100900460ff16158015610d0b576000805460ff1961ff0019909116610100171660011790555b610d13610dca565b610d1b610e3d565b8015610b7e576000805461ff001916905550565b6000610d84826040518060400160405280602081526020017f5361666545524332303a206c6f772d6c6576656c2063616c6c206661696c6564815250856001600160a01b0316610ead9092919063ffffffff16565b805190915015610c585780806020019051810190610da291906110d0565b610c585760405162461bcd60e51b815260040161022590611364565b6000610be382846113e5565b600054610100900460ff1680610de3575060005460ff16155b610dff5760405162461bcd60e51b8152600401610225906112aa565b600054610100900460ff16158015610d1b576000805460ff1961ff0019909116610100171660011790558015610b7e576000805461ff001916905550565b600054610100900460ff1680610e56575060005460ff16155b610e725760405162461bcd60e51b8152600401610225906112aa565b600054610100900460ff16158015610e9d576000805460ff1961ff0019909116610100171660011790555b610d1b610ea8610b81565b610b85565b6060610ebc8484600085610ec4565b949350505050565b606082471015610ee65760405162461bcd60e51b815260040161022590611264565b610eef85610f79565b610f0b5760405162461bcd60e51b81526004016102259061132d565b600080866001600160a01b03168587604051610f279190611173565b60006040518083038185875af1925050503d8060008114610f64576040519150601f19603f3d011682016040523d82523d6000602084013e610f69565b606091505b5091509150610ca0828286610f7f565b3b151590565b60608315610f8e575081610be3565b825115610f9e5782518084602001fd5b8160405162461bcd60e51b815260040161022591906111c7565b80516001600160701b03811681146102b957600080fd5b600060208284031215610fe0578081fd5b8135610be381611495565b600060208284031215610ffc578081fd5b8151610be381611495565b60008060006060848603121561101b578182fd5b833561102681611495565b9250602084013561103681611495565b9150604084013561104681611495565b809150509250925092565b60008060408385031215611063578182fd5b823561106e81611495565b9150602083013561107e816114aa565b809150509250929050565b6000806040838503121561109b578182fd5b82356110a681611495565b946020939093013593505050565b6000602082840312156110c5578081fd5b8135610be3816114aa565b6000602082840312156110e1578081fd5b8151610be3816114aa565b600080600060608486031215611100578283fd5b61110984610fb8565b925061111760208501610fb8565b9150604084015163ffffffff81168114611046578182fd5b600060208284031215611140578081fd5b5051919050565b6000815180845261115f816020860160208601611453565b601f01601f19169290920160200192915050565b60008251611185818460208701611453565b9190910192915050565b6001600160a01b0391909116815260200190565b6001600160a01b03929092168252602082015260400190565b901515815260200190565b600060208252610be36020830184611147565b60208082526026908201527f4f776e61626c653a206e6577206f776e657220697320746865207a65726f206160408201526564647265737360d01b606082015260800190565b60208082526024908201527f6578656375746f723a2063616c6c6572206973206e6f742074686520657865636040820152633aba37b960e11b606082015260800190565b60208082526026908201527f416464726573733a20696e73756666696369656e742062616c616e636520666f6040820152651c8818d85b1b60d21b606082015260800190565b6020808252602e908201527f496e697469616c697a61626c653a20636f6e747261637420697320616c72656160408201526d191e481a5b9a5d1a585b1a5e995960921b606082015260800190565b6020808252818101527f4f776e61626c653a2063616c6c6572206973206e6f7420746865206f776e6572604082015260600190565b6020808252601d908201527f416464726573733a2063616c6c20746f206e6f6e2d636f6e7472616374000000604082015260600190565b6020808252602a908201527f5361666545524332303a204552433230206f7065726174696f6e20646964206e6040820152691bdd081cdd58d8d9595960b21b606082015260800190565b600085825284602083015260018060a01b0384166040830152608060608301526113db6080830184611147565b9695505050505050565b600082198211156113f8576113f861147f565b500190565b60008261141857634e487b7160e01b81526012600452602481fd5b500490565b60008160001904831182151516156114375761143761147f565b500290565b60008282101561144e5761144e61147f565b500390565b60005b8381101561146e578181015183820152602001611456565b83811115610aea5750506000910152565b634e487b7160e01b600052601160045260246000fd5b6001600160a01b0381168114610b7e57600080fd5b8015158114610b7e57600080fdfea2646970667358221220d152e2b969a20236d022cd70a748923817e5c217e2629d01422cb564072649a364736f6c63430008000033",
					"opcodes": "PUSH1 0x80 PUSH1 0x40 MSTORE CALLVALUE DUP1 ISZERO PUSH2 0x10 JUMPI PUSH1 0x0 DUP1 REVERT JUMPDEST POP PUSH2 0x14EE DUP1 PUSH2 0x20 PUSH1 0x0 CODECOPY PUSH1 0x0 RETURN INVALID PUSH1 0x80 PUSH1 0x40 MSTORE CALLVALUE DUP1 ISZERO PUSH2 0x10 JUMPI PUSH1 0x0 DUP1 REVERT JUMPDEST POP PUSH1 0x4 CALLDATASIZE LT PUSH2 0xF5 JUMPI PUSH1 0x0 CALLDATALOAD PUSH1 0xE0 SHR DUP1 PUSH4 0x796C7BE7 GT PUSH2 0x97 JUMPI DUP1 PUSH4 0xC0C53B8B GT PUSH2 0x66 JUMPI DUP1 PUSH4 0xC0C53B8B EQ PUSH2 0x1AE JUMPI DUP1 PUSH4 0xD4A67930 EQ PUSH2 0x1C1 JUMPI DUP1 PUSH4 0xF1EAE64A EQ PUSH2 0x1C9 JUMPI DUP1 PUSH4 0xF2FDE38B EQ PUSH2 0x1D1 JUMPI PUSH2 0xF5 JUMP JUMPDEST DUP1 PUSH4 0x796C7BE7 EQ PUSH2 0x183 JUMPI DUP1 PUSH4 0x7E6F7A09 EQ PUSH2 0x18B JUMPI DUP1 PUSH4 0x8DA5CB5B EQ PUSH2 0x193 JUMPI DUP1 PUSH4 0x930ED033 EQ PUSH2 0x19B JUMPI PUSH2 0xF5 JUMP JUMPDEST DUP1 PUSH4 0x3C03B9A4 GT PUSH2 0xD3 JUMPI DUP1 PUSH4 0x3C03B9A4 EQ PUSH2 0x14B JUMPI DUP1 PUSH4 0x3E413BEE EQ PUSH2 0x15E JUMPI DUP1 PUSH4 0x48C7E528 EQ PUSH2 0x166 JUMPI DUP1 PUSH4 0x715018A6 EQ PUSH2 0x179 JUMPI PUSH2 0xF5 JUMP JUMPDEST DUP1 PUSH4 0x1E1BFF3F EQ PUSH2 0xFA JUMPI DUP1 PUSH4 0x29E9A524 EQ PUSH2 0x123 JUMPI DUP1 PUSH4 0x3011D3D5 EQ PUSH2 0x136 JUMPI JUMPDEST PUSH1 0x0 DUP1 REVERT JUMPDEST PUSH2 0x10D PUSH2 0x108 CALLDATASIZE PUSH1 0x4 PUSH2 0x1051 JUMP JUMPDEST PUSH2 0x1E4 JUMP JUMPDEST PUSH1 0x40 MLOAD PUSH2 0x11A SWAP2 SWAP1 PUSH2 0x11BC JUMP JUMPDEST PUSH1 0x40 MLOAD DUP1 SWAP2 SUB SWAP1 RETURN JUMPDEST PUSH2 0x10D PUSH2 0x131 CALLDATASIZE PUSH1 0x4 PUSH2 0x10B4 JUMP JUMPDEST PUSH2 0x25D JUMP JUMPDEST PUSH2 0x13E PUSH2 0x2BE JUMP JUMPDEST PUSH1 0x40 MLOAD PUSH2 0x11A SWAP2 SWAP1 PUSH2 0x118F JUMP JUMPDEST PUSH2 0x10D PUSH2 0x159 CALLDATASIZE PUSH1 0x4 PUSH2 0x10B4 JUMP JUMPDEST PUSH2 0x2CD JUMP JUMPDEST PUSH2 0x13E PUSH2 0x32F JUMP JUMPDEST PUSH2 0x10D PUSH2 0x174 CALLDATASIZE PUSH1 0x4 PUSH2 0xFCF JUMP JUMPDEST PUSH2 0x33E JUMP JUMPDEST PUSH2 0x181 PUSH2 0x353 JUMP JUMPDEST STOP JUMPDEST PUSH2 0x10D PUSH2 0x39E JUMP JUMPDEST PUSH2 0x13E PUSH2 0x99D JUMP JUMPDEST PUSH2 0x13E PUSH2 0x9AC JUMP JUMPDEST PUSH2 0x10D PUSH2 0x1A9 CALLDATASIZE PUSH1 0x4 PUSH2 0x1089 JUMP JUMPDEST PUSH2 0x9BB JUMP JUMPDEST PUSH2 0x181 PUSH2 0x1BC CALLDATASIZE PUSH1 0x4 PUSH2 0x1007 JUMP JUMPDEST PUSH2 0xA19 JUMP JUMPDEST PUSH2 0x10D PUSH2 0xAF0 JUMP JUMPDEST PUSH2 0x10D PUSH2 0xB00 JUMP JUMPDEST PUSH2 0x181 PUSH2 0x1DF CALLDATASIZE PUSH1 0x4 PUSH2 0xFCF JUMP JUMPDEST PUSH2 0xB10 JUMP JUMPDEST PUSH1 0x0 PUSH2 0x1EE PUSH2 0xB81 JUMP JUMPDEST PUSH1 0x1 PUSH1 0x1 PUSH1 0xA0 SHL SUB AND PUSH2 0x1FF PUSH2 0x9AC JUMP JUMPDEST PUSH1 0x1 PUSH1 0x1 PUSH1 0xA0 SHL SUB AND EQ PUSH2 0x22E JUMPI PUSH1 0x40 MLOAD PUSH3 0x461BCD PUSH1 0xE5 SHL DUP2 MSTORE PUSH1 0x4 ADD PUSH2 0x225 SWAP1 PUSH2 0x12F8 JUMP JUMPDEST PUSH1 0x40 MLOAD DUP1 SWAP2 SUB SWAP1 REVERT JUMPDEST POP PUSH1 0x1 PUSH1 0x1 PUSH1 0xA0 SHL SUB DUP3 AND PUSH1 0x0 SWAP1 DUP2 MSTORE PUSH1 0x65 PUSH1 0x20 MSTORE PUSH1 0x40 SWAP1 KECCAK256 DUP1 SLOAD DUP3 ISZERO ISZERO PUSH1 0xFF NOT SWAP1 SWAP2 AND OR SWAP1 SSTORE PUSH1 0x1 SWAP3 SWAP2 POP POP JUMP JUMPDEST PUSH1 0x0 PUSH2 0x267 PUSH2 0xB81 JUMP JUMPDEST PUSH1 0x1 PUSH1 0x1 PUSH1 0xA0 SHL SUB AND PUSH2 0x278 PUSH2 0x9AC JUMP JUMPDEST PUSH1 0x1 PUSH1 0x1 PUSH1 0xA0 SHL SUB AND EQ PUSH2 0x29E JUMPI PUSH1 0x40 MLOAD PUSH3 0x461BCD PUSH1 0xE5 SHL DUP2 MSTORE PUSH1 0x4 ADD PUSH2 0x225 SWAP1 PUSH2 0x12F8 JUMP JUMPDEST POP PUSH1 0x68 DUP1 SLOAD PUSH1 0xFF PUSH1 0xA0 SHL NOT AND PUSH1 0x1 PUSH1 0xA0 SHL DUP4 ISZERO ISZERO MUL OR SWAP1 SSTORE PUSH1 0x1 JUMPDEST SWAP2 SWAP1 POP JUMP JUMPDEST PUSH1 0x68 SLOAD PUSH1 0x1 PUSH1 0x1 PUSH1 0xA0 SHL SUB AND DUP2 JUMP JUMPDEST PUSH1 0x0 PUSH2 0x2D7 PUSH2 0xB81 JUMP JUMPDEST PUSH1 0x1 PUSH1 0x1 PUSH1 0xA0 SHL SUB AND PUSH2 0x2E8 PUSH2 0x9AC JUMP JUMPDEST PUSH1 0x1 PUSH1 0x1 PUSH1 0xA0 SHL SUB AND EQ PUSH2 0x30E JUMPI PUSH1 0x40 MLOAD PUSH3 0x461BCD PUSH1 0xE5 SHL DUP2 MSTORE PUSH1 0x4 ADD PUSH2 0x225 SWAP1 PUSH2 0x12F8 JUMP JUMPDEST POP PUSH1 0x68 DUP1 SLOAD DUP3 ISZERO ISZERO PUSH1 0x1 PUSH1 0xA8 SHL MUL PUSH1 0xFF PUSH1 0xA8 SHL NOT SWAP1 SWAP2 AND OR SWAP1 SSTORE PUSH1 0x1 SWAP2 SWAP1 POP JUMP JUMPDEST PUSH1 0x67 SLOAD PUSH1 0x1 PUSH1 0x1 PUSH1 0xA0 SHL SUB AND DUP2 JUMP JUMPDEST PUSH1 0x65 PUSH1 0x20 MSTORE PUSH1 0x0 SWAP1 DUP2 MSTORE PUSH1 0x40 SWAP1 KECCAK256 SLOAD PUSH1 0xFF AND DUP2 JUMP JUMPDEST PUSH2 0x35B PUSH2 0xB81 JUMP JUMPDEST PUSH1 0x1 PUSH1 0x1 PUSH1 0xA0 SHL SUB AND PUSH2 0x36C PUSH2 0x9AC JUMP JUMPDEST PUSH1 0x1 PUSH1 0x1 PUSH1 0xA0 SHL SUB AND EQ PUSH2 0x392 JUMPI PUSH1 0x40 MLOAD PUSH3 0x461BCD PUSH1 0xE5 SHL DUP2 MSTORE PUSH1 0x4 ADD PUSH2 0x225 SWAP1 PUSH2 0x12F8 JUMP JUMPDEST PUSH2 0x39C PUSH1 0x0 PUSH2 0xB85 JUMP JUMPDEST JUMP JUMPDEST CALLER PUSH1 0x0 SWAP1 DUP2 MSTORE PUSH1 0x65 PUSH1 0x20 MSTORE PUSH1 0x40 DUP2 KECCAK256 SLOAD PUSH1 0xFF AND PUSH2 0x3CD JUMPI PUSH1 0x40 MLOAD PUSH3 0x461BCD PUSH1 0xE5 SHL DUP2 MSTORE PUSH1 0x4 ADD PUSH2 0x225 SWAP1 PUSH2 0x1220 JUMP JUMPDEST PUSH1 0x0 DUP1 PUSH1 0x66 PUSH1 0x0 SWAP1 SLOAD SWAP1 PUSH2 0x100 EXP SWAP1 DIV PUSH1 0x1 PUSH1 0x1 PUSH1 0xA0 SHL SUB AND PUSH1 0x1 PUSH1 0x1 PUSH1 0xA0 SHL SUB AND PUSH4 0x902F1AC PUSH1 0x40 MLOAD DUP2 PUSH4 0xFFFFFFFF AND PUSH1 0xE0 SHL DUP2 MSTORE PUSH1 0x4 ADD PUSH1 0x60 PUSH1 0x40 MLOAD DUP1 DUP4 SUB DUP2 DUP7 DUP1 EXTCODESIZE ISZERO DUP1 ISZERO PUSH2 0x41E JUMPI PUSH1 0x0 DUP1 REVERT JUMPDEST POP GAS STATICCALL ISZERO DUP1 ISZERO PUSH2 0x432 JUMPI RETURNDATASIZE PUSH1 0x0 DUP1 RETURNDATACOPY RETURNDATASIZE PUSH1 0x0 REVERT JUMPDEST POP POP POP POP PUSH1 0x40 MLOAD RETURNDATASIZE PUSH1 0x1F NOT PUSH1 0x1F DUP3 ADD AND DUP3 ADD DUP1 PUSH1 0x40 MSTORE POP DUP2 ADD SWAP1 PUSH2 0x456 SWAP2 SWAP1 PUSH2 0x10EC JUMP JUMPDEST POP PUSH1 0x1 PUSH1 0x1 PUSH1 0x70 SHL SUB AND SWAP2 POP PUSH1 0x1 PUSH1 0x1 PUSH1 0x70 SHL SUB AND SWAP2 POP PUSH1 0x0 PUSH1 0x66 PUSH1 0x0 SWAP1 SLOAD SWAP1 PUSH2 0x100 EXP SWAP1 DIV PUSH1 0x1 PUSH1 0x1 PUSH1 0xA0 SHL SUB AND PUSH1 0x1 PUSH1 0x1 PUSH1 0xA0 SHL SUB AND PUSH4 0xDFE1681 PUSH1 0x40 MLOAD DUP2 PUSH4 0xFFFFFFFF AND PUSH1 0xE0 SHL DUP2 MSTORE PUSH1 0x4 ADD PUSH1 0x20 PUSH1 0x40 MLOAD DUP1 DUP4 SUB DUP2 DUP7 DUP1 EXTCODESIZE ISZERO DUP1 ISZERO PUSH2 0x4BD JUMPI PUSH1 0x0 DUP1 REVERT JUMPDEST POP GAS STATICCALL ISZERO DUP1 ISZERO PUSH2 0x4D1 JUMPI RETURNDATASIZE PUSH1 0x0 DUP1 RETURNDATACOPY RETURNDATASIZE PUSH1 0x0 REVERT JUMPDEST POP POP POP POP PUSH1 0x40 MLOAD RETURNDATASIZE PUSH1 0x1F NOT PUSH1 0x1F DUP3 ADD AND DUP3 ADD DUP1 PUSH1 0x40 MSTORE POP DUP2 ADD SWAP1 PUSH2 0x4F5 SWAP2 SWAP1 PUSH2 0xFEB JUMP JUMPDEST PUSH1 0x68 SLOAD SWAP1 SWAP2 POP PUSH1 0x0 SWAP1 DUP2 SWAP1 PUSH1 0x1 PUSH1 0x1 PUSH1 0xA0 SHL SUB DUP1 DUP6 AND SWAP2 AND EQ PUSH2 0x519 JUMPI DUP5 DUP5 PUSH2 0x51C JUMP JUMPDEST DUP4 DUP6 JUMPDEST PUSH1 0x67 SLOAD PUSH1 0x66 SLOAD PUSH1 0x40 MLOAD PUSH4 0x70A08231 PUSH1 0xE0 SHL DUP2 MSTORE SWAP4 SWAP6 POP SWAP2 SWAP4 POP PUSH1 0x0 SWAP3 PUSH1 0x1 PUSH1 0x1 PUSH1 0xA0 SHL SUB SWAP2 DUP3 AND SWAP3 PUSH4 0x70A08231 SWAP3 PUSH2 0x559 SWAP3 SWAP2 AND SWAP1 PUSH1 0x4 ADD PUSH2 0x118F JUMP JUMPDEST PUSH1 0x20 PUSH1 0x40 MLOAD DUP1 DUP4 SUB DUP2 DUP7 DUP1 EXTCODESIZE ISZERO DUP1 ISZERO PUSH2 0x571 JUMPI PUSH1 0x0 DUP1 REVERT JUMPDEST POP GAS STATICCALL ISZERO DUP1 ISZERO PUSH2 0x585 JUMPI RETURNDATASIZE PUSH1 0x0 DUP1 RETURNDATACOPY RETURNDATASIZE PUSH1 0x0 REVERT JUMPDEST POP POP POP POP PUSH1 0x40 MLOAD RETURNDATASIZE PUSH1 0x1F NOT PUSH1 0x1F DUP3 ADD AND DUP3 ADD DUP1 PUSH1 0x40 MSTORE POP DUP2 ADD SWAP1 PUSH2 0x5A9 SWAP2 SWAP1 PUSH2 0x112F JUMP JUMPDEST PUSH1 0x68 SLOAD PUSH1 0x66 SLOAD PUSH1 0x40 MLOAD PUSH4 0x70A08231 PUSH1 0xE0 SHL DUP2 MSTORE SWAP3 SWAP4 POP PUSH1 0x0 SWAP3 PUSH1 0x1 PUSH1 0x1 PUSH1 0xA0 SHL SUB SWAP3 DUP4 AND SWAP3 PUSH4 0x70A08231 SWAP3 PUSH2 0x5E3 SWAP3 SWAP2 AND SWAP1 PUSH1 0x4 ADD PUSH2 0x118F JUMP JUMPDEST PUSH1 0x20 PUSH1 0x40 MLOAD DUP1 DUP4 SUB DUP2 DUP7 DUP1 EXTCODESIZE ISZERO DUP1 ISZERO PUSH2 0x5FB JUMPI PUSH1 0x0 DUP1 REVERT JUMPDEST POP GAS STATICCALL ISZERO DUP1 ISZERO PUSH2 0x60F JUMPI RETURNDATASIZE PUSH1 0x0 DUP1 RETURNDATACOPY RETURNDATASIZE PUSH1 0x0 REVERT JUMPDEST POP POP POP POP PUSH1 0x40 MLOAD RETURNDATASIZE PUSH1 0x1F NOT PUSH1 0x1F DUP3 ADD AND DUP3 ADD DUP1 PUSH1 0x40 MSTORE POP DUP2 ADD SWAP1 PUSH2 0x633 SWAP2 SWAP1 PUSH2 0x112F JUMP JUMPDEST SWAP1 POP PUSH1 0x0 PUSH2 0x653 DUP3 PUSH2 0x64D DUP6 PUSH8 0xDE0B6B3A7640000 PUSH2 0xBD7 JUMP JUMPDEST SWAP1 PUSH2 0xBEA JUMP JUMPDEST SWAP1 POP PUSH8 0xDE0B6B3A7640000 DUP2 GT DUP1 ISZERO PUSH2 0x675 JUMPI POP PUSH1 0x68 SLOAD PUSH1 0x1 PUSH1 0xA8 SHL SWAP1 DIV PUSH1 0xFF AND JUMPDEST ISZERO PUSH2 0x7E2 JUMPI PUSH1 0x0 PUSH2 0x68B PUSH1 0x2 PUSH2 0x64D DUP7 DUP7 PUSH2 0xBF6 JUMP JUMPDEST PUSH1 0x68 SLOAD PUSH1 0x40 MLOAD PUSH4 0x40C10F19 PUSH1 0xE0 SHL DUP2 MSTORE SWAP2 SWAP3 POP PUSH1 0x1 PUSH1 0x1 PUSH1 0xA0 SHL SUB AND SWAP1 PUSH4 0x40C10F19 SWAP1 PUSH2 0x6BE SWAP1 ADDRESS SWAP1 DUP6 SWAP1 PUSH1 0x4 ADD PUSH2 0x11A3 JUMP JUMPDEST PUSH1 0x20 PUSH1 0x40 MLOAD DUP1 DUP4 SUB DUP2 PUSH1 0x0 DUP8 DUP1 EXTCODESIZE ISZERO DUP1 ISZERO PUSH2 0x6D8 JUMPI PUSH1 0x0 DUP1 REVERT JUMPDEST POP GAS CALL ISZERO DUP1 ISZERO PUSH2 0x6EC JUMPI RETURNDATASIZE PUSH1 0x0 DUP1 RETURNDATACOPY RETURNDATASIZE PUSH1 0x0 REVERT JUMPDEST POP POP POP POP PUSH1 0x40 MLOAD RETURNDATASIZE PUSH1 0x1F NOT PUSH1 0x1F DUP3 ADD AND DUP3 ADD DUP1 PUSH1 0x40 MSTORE POP DUP2 ADD SWAP1 PUSH2 0x710 SWAP2 SWAP1 PUSH2 0x10D0 JUMP JUMPDEST POP PUSH1 0x66 SLOAD PUSH1 0x68 SLOAD PUSH2 0x72E SWAP2 PUSH1 0x1 PUSH1 0x1 PUSH1 0xA0 SHL SUB SWAP2 DUP3 AND SWAP2 AND DUP4 PUSH2 0xC02 JUMP JUMPDEST PUSH1 0x0 PUSH2 0x73B DUP3 DUP8 DUP10 PUSH2 0xC5D JUMP JUMPDEST PUSH1 0x68 SLOAD SWAP1 SWAP2 POP PUSH1 0x0 SWAP1 DUP2 SWAP1 PUSH1 0x1 PUSH1 0x1 PUSH1 0xA0 SHL SUB DUP12 DUP2 AND SWAP2 AND EQ PUSH2 0x760 JUMPI DUP3 PUSH1 0x0 PUSH2 0x764 JUMP JUMPDEST PUSH1 0x0 DUP4 JUMPDEST PUSH1 0x66 SLOAD PUSH1 0x40 DUP1 MLOAD PUSH1 0x0 DUP2 MSTORE PUSH1 0x20 DUP2 ADD SWAP2 DUP3 SWAP1 MSTORE PUSH4 0x22C0D9F PUSH1 0xE0 SHL SWAP1 SWAP2 MSTORE SWAP3 SWAP5 POP SWAP1 SWAP3 POP PUSH1 0x1 PUSH1 0x1 PUSH1 0xA0 SHL SUB AND SWAP1 PUSH4 0x22C0D9F SWAP1 PUSH2 0x7AB SWAP1 DUP6 SWAP1 DUP6 SWAP1 ADDRESS SWAP1 PUSH1 0x24 DUP2 ADD PUSH2 0x13AE JUMP JUMPDEST PUSH1 0x0 PUSH1 0x40 MLOAD DUP1 DUP4 SUB DUP2 PUSH1 0x0 DUP8 DUP1 EXTCODESIZE ISZERO DUP1 ISZERO PUSH2 0x7C5 JUMPI PUSH1 0x0 DUP1 REVERT JUMPDEST POP GAS CALL ISZERO DUP1 ISZERO PUSH2 0x7D9 JUMPI RETURNDATASIZE PUSH1 0x0 DUP1 RETURNDATACOPY RETURNDATASIZE PUSH1 0x0 REVERT JUMPDEST POP POP POP POP POP POP POP POP JUMPDEST PUSH8 0xDE0B6B3A7640000 DUP2 LT DUP1 ISZERO PUSH2 0x802 JUMPI POP PUSH1 0x68 SLOAD PUSH1 0x1 PUSH1 0xA0 SHL SWAP1 DIV PUSH1 0xFF AND JUMPDEST ISZERO PUSH2 0x98E JUMPI PUSH1 0x0 PUSH2 0x818 PUSH1 0x2 PUSH2 0x64D DUP6 DUP8 PUSH2 0xBF6 JUMP JUMPDEST PUSH1 0x67 SLOAD PUSH1 0x40 MLOAD PUSH4 0x70A08231 PUSH1 0xE0 SHL DUP2 MSTORE SWAP2 SWAP3 POP PUSH1 0x0 SWAP2 PUSH1 0x1 PUSH1 0x1 PUSH1 0xA0 SHL SUB SWAP1 SWAP2 AND SWAP1 PUSH4 0x70A08231 SWAP1 PUSH2 0x84E SWAP1 ADDRESS SWAP1 PUSH1 0x4 ADD PUSH2 0x118F JUMP JUMPDEST PUSH1 0x20 PUSH1 0x40 MLOAD DUP1 DUP4 SUB DUP2 DUP7 DUP1 EXTCODESIZE ISZERO DUP1 ISZERO PUSH2 0x866 JUMPI PUSH1 0x0 DUP1 REVERT JUMPDEST POP GAS STATICCALL ISZERO DUP1 ISZERO PUSH2 0x87A JUMPI RETURNDATASIZE PUSH1 0x0 DUP1 RETURNDATACOPY RETURNDATASIZE PUSH1 0x0 REVERT JUMPDEST POP POP POP POP PUSH1 0x40 MLOAD RETURNDATASIZE PUSH1 0x1F NOT PUSH1 0x1F DUP3 ADD AND DUP3 ADD DUP1 PUSH1 0x40 MSTORE POP DUP2 ADD SWAP1 PUSH2 0x89E SWAP2 SWAP1 PUSH2 0x112F JUMP JUMPDEST SWAP1 POP PUSH1 0x0 DUP2 DUP4 GT ISZERO PUSH2 0x8B1 JUMPI POP DUP1 PUSH2 0x8B4 JUMP JUMPDEST POP DUP2 JUMPDEST DUP1 ISZERO PUSH2 0x98A JUMPI PUSH1 0x66 SLOAD PUSH1 0x67 SLOAD PUSH2 0x8D7 SWAP2 PUSH1 0x1 PUSH1 0x1 PUSH1 0xA0 SHL SUB SWAP2 DUP3 AND SWAP2 AND DUP4 PUSH2 0xC02 JUMP JUMPDEST PUSH1 0x0 PUSH2 0x8E4 DUP3 DUP11 DUP11 PUSH2 0xC5D JUMP JUMPDEST PUSH1 0x67 SLOAD SWAP1 SWAP2 POP PUSH1 0x0 SWAP1 DUP2 SWAP1 PUSH1 0x1 PUSH1 0x1 PUSH1 0xA0 SHL SUB DUP14 DUP2 AND SWAP2 AND EQ PUSH2 0x909 JUMPI DUP3 PUSH1 0x0 PUSH2 0x90D JUMP JUMPDEST PUSH1 0x0 DUP4 JUMPDEST PUSH1 0x66 SLOAD PUSH1 0x40 DUP1 MLOAD PUSH1 0x0 DUP2 MSTORE PUSH1 0x20 DUP2 ADD SWAP2 DUP3 SWAP1 MSTORE PUSH4 0x22C0D9F PUSH1 0xE0 SHL SWAP1 SWAP2 MSTORE SWAP3 SWAP5 POP SWAP1 SWAP3 POP PUSH1 0x1 PUSH1 0x1 PUSH1 0xA0 SHL SUB AND SWAP1 PUSH4 0x22C0D9F SWAP1 PUSH2 0x954 SWAP1 DUP6 SWAP1 DUP6 SWAP1 ADDRESS SWAP1 PUSH1 0x24 DUP2 ADD PUSH2 0x13AE JUMP JUMPDEST PUSH1 0x0 PUSH1 0x40 MLOAD DUP1 DUP4 SUB DUP2 PUSH1 0x0 DUP8 DUP1 EXTCODESIZE ISZERO DUP1 ISZERO PUSH2 0x96E JUMPI PUSH1 0x0 DUP1 REVERT JUMPDEST POP GAS CALL ISZERO DUP1 ISZERO PUSH2 0x982 JUMPI RETURNDATASIZE PUSH1 0x0 DUP1 RETURNDATACOPY RETURNDATASIZE PUSH1 0x0 REVERT JUMPDEST POP POP POP POP POP POP POP JUMPDEST POP POP POP JUMPDEST PUSH1 0x1 SWAP9 POP POP POP POP POP POP POP POP POP SWAP1 JUMP JUMPDEST PUSH1 0x66 SLOAD PUSH1 0x1 PUSH1 0x1 PUSH1 0xA0 SHL SUB AND DUP2 JUMP JUMPDEST PUSH1 0x33 SLOAD PUSH1 0x1 PUSH1 0x1 PUSH1 0xA0 SHL SUB AND SWAP1 JUMP JUMPDEST PUSH1 0x0 PUSH2 0x9C5 PUSH2 0xB81 JUMP JUMPDEST PUSH1 0x1 PUSH1 0x1 PUSH1 0xA0 SHL SUB AND PUSH2 0x9D6 PUSH2 0x9AC JUMP JUMPDEST PUSH1 0x1 PUSH1 0x1 PUSH1 0xA0 SHL SUB AND EQ PUSH2 0x9FC JUMPI PUSH1 0x40 MLOAD PUSH3 0x461BCD PUSH1 0xE5 SHL DUP2 MSTORE PUSH1 0x4 ADD PUSH2 0x225 SWAP1 PUSH2 0x12F8 JUMP JUMPDEST PUSH2 0xA10 PUSH1 0x1 PUSH1 0x1 PUSH1 0xA0 SHL SUB DUP5 AND CALLER DUP5 PUSH2 0xC02 JUMP JUMPDEST POP PUSH1 0x1 SWAP3 SWAP2 POP POP JUMP JUMPDEST PUSH1 0x0 SLOAD PUSH2 0x100 SWAP1 DIV PUSH1 0xFF AND DUP1 PUSH2 0xA32 JUMPI POP PUSH1 0x0 SLOAD PUSH1 0xFF AND ISZERO JUMPDEST PUSH2 0xA4E JUMPI PUSH1 0x40 MLOAD PUSH3 0x461BCD PUSH1 0xE5 SHL DUP2 MSTORE PUSH1 0x4 ADD PUSH2 0x225 SWAP1 PUSH2 0x12AA JUMP JUMPDEST PUSH1 0x0 SLOAD PUSH2 0x100 SWAP1 DIV PUSH1 0xFF AND ISZERO DUP1 ISZERO PUSH2 0xA79 JUMPI PUSH1 0x0 DUP1 SLOAD PUSH1 0xFF NOT PUSH2 0xFF00 NOT SWAP1 SWAP2 AND PUSH2 0x100 OR AND PUSH1 0x1 OR SWAP1 SSTORE JUMPDEST PUSH2 0xA81 PUSH2 0xCAB JUMP JUMPDEST PUSH1 0x66 DUP1 SLOAD PUSH1 0x1 PUSH1 0x1 PUSH1 0xA0 SHL SUB DUP1 DUP8 AND PUSH1 0x1 PUSH1 0x1 PUSH1 0xA0 SHL SUB NOT SWAP3 DUP4 AND OR SWAP1 SWAP3 SSTORE PUSH1 0x67 DUP1 SLOAD DUP7 DUP5 AND SWAP1 DUP4 AND OR SWAP1 SSTORE PUSH1 0x68 DUP1 SLOAD PUSH1 0xFF PUSH1 0xA8 SHL NOT PUSH1 0xFF PUSH1 0xA0 SHL NOT SWAP5 DUP8 AND SWAP2 SWAP1 SWAP4 AND OR SWAP3 SWAP1 SWAP3 AND PUSH1 0x1 PUSH1 0xA0 SHL OR AND PUSH1 0x1 PUSH1 0xA8 SHL OR SWAP1 SSTORE DUP1 ISZERO PUSH2 0xAEA JUMPI PUSH1 0x0 DUP1 SLOAD PUSH2 0xFF00 NOT AND SWAP1 SSTORE JUMPDEST POP POP POP POP JUMP JUMPDEST PUSH1 0x68 SLOAD PUSH1 0x1 PUSH1 0xA0 SHL SWAP1 DIV PUSH1 0xFF AND DUP2 JUMP JUMPDEST PUSH1 0x68 SLOAD PUSH1 0x1 PUSH1 0xA8 SHL SWAP1 DIV PUSH1 0xFF AND DUP2 JUMP JUMPDEST PUSH2 0xB18 PUSH2 0xB81 JUMP JUMPDEST PUSH1 0x1 PUSH1 0x1 PUSH1 0xA0 SHL SUB AND PUSH2 0xB29 PUSH2 0x9AC JUMP JUMPDEST PUSH1 0x1 PUSH1 0x1 PUSH1 0xA0 SHL SUB AND EQ PUSH2 0xB4F JUMPI PUSH1 0x40 MLOAD PUSH3 0x461BCD PUSH1 0xE5 SHL DUP2 MSTORE PUSH1 0x4 ADD PUSH2 0x225 SWAP1 PUSH2 0x12F8 JUMP JUMPDEST PUSH1 0x1 PUSH1 0x1 PUSH1 0xA0 SHL SUB DUP2 AND PUSH2 0xB75 JUMPI PUSH1 0x40 MLOAD PUSH3 0x461BCD PUSH1 0xE5 SHL DUP2 MSTORE PUSH1 0x4 ADD PUSH2 0x225 SWAP1 PUSH2 0x11DA JUMP JUMPDEST PUSH2 0xB7E DUP2 PUSH2 0xB85 JUMP JUMPDEST POP JUMP JUMPDEST CALLER SWAP1 JUMP JUMPDEST PUSH1 0x33 DUP1 SLOAD PUSH1 0x1 PUSH1 0x1 PUSH1 0xA0 SHL SUB DUP4 DUP2 AND PUSH1 0x1 PUSH1 0x1 PUSH1 0xA0 SHL SUB NOT DUP4 AND DUP2 OR SWAP1 SWAP4 SSTORE PUSH1 0x40 MLOAD SWAP2 AND SWAP2 SWAP1 DUP3 SWAP1 PUSH32 0x8BE0079C531659141344CD1FD0A4F28419497F9722A3DAAFE3B4186F6B6457E0 SWAP1 PUSH1 0x0 SWAP1 LOG3 POP POP JUMP JUMPDEST PUSH1 0x0 PUSH2 0xBE3 DUP3 DUP5 PUSH2 0x141D JUMP JUMPDEST SWAP4 SWAP3 POP POP POP JUMP JUMPDEST PUSH1 0x0 PUSH2 0xBE3 DUP3 DUP5 PUSH2 0x13FD JUMP JUMPDEST PUSH1 0x0 PUSH2 0xBE3 DUP3 DUP5 PUSH2 0x143C JUMP JUMPDEST PUSH2 0xC58 DUP4 PUSH4 0xA9059CBB PUSH1 0xE0 SHL DUP5 DUP5 PUSH1 0x40 MLOAD PUSH1 0x24 ADD PUSH2 0xC21 SWAP3 SWAP2 SWAP1 PUSH2 0x11A3 JUMP JUMPDEST PUSH1 0x40 DUP1 MLOAD PUSH1 0x1F NOT DUP2 DUP5 SUB ADD DUP2 MSTORE SWAP2 SWAP1 MSTORE PUSH1 0x20 DUP2 ADD DUP1 MLOAD PUSH1 0x1 PUSH1 0x1 PUSH1 0xE0 SHL SUB AND PUSH1 0x1 PUSH1 0x1 PUSH1 0xE0 SHL SUB NOT SWAP1 SWAP4 AND SWAP3 SWAP1 SWAP3 OR SWAP1 SWAP2 MSTORE PUSH2 0xD2F JUMP JUMPDEST POP POP POP JUMP JUMPDEST PUSH1 0x0 DUP1 PUSH2 0xC6C DUP6 PUSH2 0x26F2 PUSH2 0xBD7 JUMP JUMPDEST SWAP1 POP PUSH1 0x0 PUSH2 0xC7A DUP3 DUP6 PUSH2 0xBD7 JUMP JUMPDEST SWAP1 POP PUSH1 0x0 PUSH2 0xC94 DUP4 PUSH2 0xC8E DUP9 PUSH2 0x2710 PUSH2 0xBD7 JUMP JUMPDEST SWAP1 PUSH2 0xDBE JUMP JUMPDEST SWAP1 POP PUSH2 0xCA0 DUP2 DUP4 PUSH2 0x13FD JUMP JUMPDEST SWAP8 SWAP7 POP POP POP POP POP POP POP JUMP JUMPDEST PUSH1 0x0 SLOAD PUSH2 0x100 SWAP1 DIV PUSH1 0xFF AND DUP1 PUSH2 0xCC4 JUMPI POP PUSH1 0x0 SLOAD PUSH1 0xFF AND ISZERO JUMPDEST PUSH2 0xCE0 JUMPI PUSH1 0x40 MLOAD PUSH3 0x461BCD PUSH1 0xE5 SHL DUP2 MSTORE PUSH1 0x4 ADD PUSH2 0x225 SWAP1 PUSH2 0x12AA JUMP JUMPDEST PUSH1 0x0 SLOAD PUSH2 0x100 SWAP1 DIV PUSH1 0xFF AND ISZERO DUP1 ISZERO PUSH2 0xD0B JUMPI PUSH1 0x0 DUP1 SLOAD PUSH1 0xFF NOT PUSH2 0xFF00 NOT SWAP1 SWAP2 AND PUSH2 0x100 OR AND PUSH1 0x1 OR SWAP1 SSTORE JUMPDEST PUSH2 0xD13 PUSH2 0xDCA JUMP JUMPDEST PUSH2 0xD1B PUSH2 0xE3D JUMP JUMPDEST DUP1 ISZERO PUSH2 0xB7E JUMPI PUSH1 0x0 DUP1 SLOAD PUSH2 0xFF00 NOT AND SWAP1 SSTORE POP JUMP JUMPDEST PUSH1 0x0 PUSH2 0xD84 DUP3 PUSH1 0x40 MLOAD DUP1 PUSH1 0x40 ADD PUSH1 0x40 MSTORE DUP1 PUSH1 0x20 DUP2 MSTORE PUSH1 0x20 ADD PUSH32 0x5361666545524332303A206C6F772D6C6576656C2063616C6C206661696C6564 DUP2 MSTORE POP DUP6 PUSH1 0x1 PUSH1 0x1 PUSH1 0xA0 SHL SUB AND PUSH2 0xEAD SWAP1 SWAP3 SWAP2 SWAP1 PUSH4 0xFFFFFFFF AND JUMP JUMPDEST DUP1 MLOAD SWAP1 SWAP2 POP ISZERO PUSH2 0xC58 JUMPI DUP1 DUP1 PUSH1 0x20 ADD SWAP1 MLOAD DUP2 ADD SWAP1 PUSH2 0xDA2 SWAP2 SWAP1 PUSH2 0x10D0 JUMP JUMPDEST PUSH2 0xC58 JUMPI PUSH1 0x40 MLOAD PUSH3 0x461BCD PUSH1 0xE5 SHL DUP2 MSTORE PUSH1 0x4 ADD PUSH2 0x225 SWAP1 PUSH2 0x1364 JUMP JUMPDEST PUSH1 0x0 PUSH2 0xBE3 DUP3 DUP5 PUSH2 0x13E5 JUMP JUMPDEST PUSH1 0x0 SLOAD PUSH2 0x100 SWAP1 DIV PUSH1 0xFF AND DUP1 PUSH2 0xDE3 JUMPI POP PUSH1 0x0 SLOAD PUSH1 0xFF AND ISZERO JUMPDEST PUSH2 0xDFF JUMPI PUSH1 0x40 MLOAD PUSH3 0x461BCD PUSH1 0xE5 SHL DUP2 MSTORE PUSH1 0x4 ADD PUSH2 0x225 SWAP1 PUSH2 0x12AA JUMP JUMPDEST PUSH1 0x0 SLOAD PUSH2 0x100 SWAP1 DIV PUSH1 0xFF AND ISZERO DUP1 ISZERO PUSH2 0xD1B JUMPI PUSH1 0x0 DUP1 SLOAD PUSH1 0xFF NOT PUSH2 0xFF00 NOT SWAP1 SWAP2 AND PUSH2 0x100 OR AND PUSH1 0x1 OR SWAP1 SSTORE DUP1 ISZERO PUSH2 0xB7E JUMPI PUSH1 0x0 DUP1 SLOAD PUSH2 0xFF00 NOT AND SWAP1 SSTORE POP JUMP JUMPDEST PUSH1 0x0 SLOAD PUSH2 0x100 SWAP1 DIV PUSH1 0xFF AND DUP1 PUSH2 0xE56 JUMPI POP PUSH1 0x0 SLOAD PUSH1 0xFF AND ISZERO JUMPDEST PUSH2 0xE72 JUMPI PUSH1 0x40 MLOAD PUSH3 0x461BCD PUSH1 0xE5 SHL DUP2 MSTORE PUSH1 0x4 ADD PUSH2 0x225 SWAP1 PUSH2 0x12AA JUMP JUMPDEST PUSH1 0x0 SLOAD PUSH2 0x100 SWAP1 DIV PUSH1 0xFF AND ISZERO DUP1 ISZERO PUSH2 0xE9D JUMPI PUSH1 0x0 DUP1 SLOAD PUSH1 0xFF NOT PUSH2 0xFF00 NOT SWAP1 SWAP2 AND PUSH2 0x100 OR AND PUSH1 0x1 OR SWAP1 SSTORE JUMPDEST PUSH2 0xD1B PUSH2 0xEA8 PUSH2 0xB81 JUMP JUMPDEST PUSH2 0xB85 JUMP JUMPDEST PUSH1 0x60 PUSH2 0xEBC DUP5 DUP5 PUSH1 0x0 DUP6 PUSH2 0xEC4 JUMP JUMPDEST SWAP5 SWAP4 POP POP POP POP JUMP JUMPDEST PUSH1 0x60 DUP3 SELFBALANCE LT ISZERO PUSH2 0xEE6 JUMPI PUSH1 0x40 MLOAD PUSH3 0x461BCD PUSH1 0xE5 SHL DUP2 MSTORE PUSH1 0x4 ADD PUSH2 0x225 SWAP1 PUSH2 0x1264 JUMP JUMPDEST PUSH2 0xEEF DUP6 PUSH2 0xF79 JUMP JUMPDEST PUSH2 0xF0B JUMPI PUSH1 0x40 MLOAD PUSH3 0x461BCD PUSH1 0xE5 SHL DUP2 MSTORE PUSH1 0x4 ADD PUSH2 0x225 SWAP1 PUSH2 0x132D JUMP JUMPDEST PUSH1 0x0 DUP1 DUP7 PUSH1 0x1 PUSH1 0x1 PUSH1 0xA0 SHL SUB AND DUP6 DUP8 PUSH1 0x40 MLOAD PUSH2 0xF27 SWAP2 SWAP1 PUSH2 0x1173 JUMP JUMPDEST PUSH1 0x0 PUSH1 0x40 MLOAD DUP1 DUP4 SUB DUP2 DUP6 DUP8 GAS CALL SWAP3 POP POP POP RETURNDATASIZE DUP1 PUSH1 0x0 DUP2 EQ PUSH2 0xF64 JUMPI PUSH1 0x40 MLOAD SWAP2 POP PUSH1 0x1F NOT PUSH1 0x3F RETURNDATASIZE ADD AND DUP3 ADD PUSH1 0x40 MSTORE RETURNDATASIZE DUP3 MSTORE RETURNDATASIZE PUSH1 0x0 PUSH1 0x20 DUP5 ADD RETURNDATACOPY PUSH2 0xF69 JUMP JUMPDEST PUSH1 0x60 SWAP2 POP JUMPDEST POP SWAP2 POP SWAP2 POP PUSH2 0xCA0 DUP3 DUP3 DUP7 PUSH2 0xF7F JUMP JUMPDEST EXTCODESIZE ISZERO ISZERO SWAP1 JUMP JUMPDEST PUSH1 0x60 DUP4 ISZERO PUSH2 0xF8E JUMPI POP DUP2 PUSH2 0xBE3 JUMP JUMPDEST DUP3 MLOAD ISZERO PUSH2 0xF9E JUMPI DUP3 MLOAD DUP1 DUP5 PUSH1 0x20 ADD REVERT JUMPDEST DUP2 PUSH1 0x40 MLOAD PUSH3 0x461BCD PUSH1 0xE5 SHL DUP2 MSTORE PUSH1 0x4 ADD PUSH2 0x225 SWAP2 SWAP1 PUSH2 0x11C7 JUMP JUMPDEST DUP1 MLOAD PUSH1 0x1 PUSH1 0x1 PUSH1 0x70 SHL SUB DUP2 AND DUP2 EQ PUSH2 0x2B9 JUMPI PUSH1 0x0 DUP1 REVERT JUMPDEST PUSH1 0x0 PUSH1 0x20 DUP3 DUP5 SUB SLT ISZERO PUSH2 0xFE0 JUMPI DUP1 DUP2 REVERT JUMPDEST DUP2 CALLDATALOAD PUSH2 0xBE3 DUP2 PUSH2 0x1495 JUMP JUMPDEST PUSH1 0x0 PUSH1 0x20 DUP3 DUP5 SUB SLT ISZERO PUSH2 0xFFC JUMPI DUP1 DUP2 REVERT JUMPDEST DUP2 MLOAD PUSH2 0xBE3 DUP2 PUSH2 0x1495 JUMP JUMPDEST PUSH1 0x0 DUP1 PUSH1 0x0 PUSH1 0x60 DUP5 DUP7 SUB SLT ISZERO PUSH2 0x101B JUMPI DUP2 DUP3 REVERT JUMPDEST DUP4 CALLDATALOAD PUSH2 0x1026 DUP2 PUSH2 0x1495 JUMP JUMPDEST SWAP3 POP PUSH1 0x20 DUP5 ADD CALLDATALOAD PUSH2 0x1036 DUP2 PUSH2 0x1495 JUMP JUMPDEST SWAP2 POP PUSH1 0x40 DUP5 ADD CALLDATALOAD PUSH2 0x1046 DUP2 PUSH2 0x1495 JUMP JUMPDEST DUP1 SWAP2 POP POP SWAP3 POP SWAP3 POP SWAP3 JUMP JUMPDEST PUSH1 0x0 DUP1 PUSH1 0x40 DUP4 DUP6 SUB SLT ISZERO PUSH2 0x1063 JUMPI DUP2 DUP3 REVERT JUMPDEST DUP3 CALLDATALOAD PUSH2 0x106E DUP2 PUSH2 0x1495 JUMP JUMPDEST SWAP2 POP PUSH1 0x20 DUP4 ADD CALLDATALOAD PUSH2 0x107E DUP2 PUSH2 0x14AA JUMP JUMPDEST DUP1 SWAP2 POP POP SWAP3 POP SWAP3 SWAP1 POP JUMP JUMPDEST PUSH1 0x0 DUP1 PUSH1 0x40 DUP4 DUP6 SUB SLT ISZERO PUSH2 0x109B JUMPI DUP2 DUP3 REVERT JUMPDEST DUP3 CALLDATALOAD PUSH2 0x10A6 DUP2 PUSH2 0x1495 JUMP JUMPDEST SWAP5 PUSH1 0x20 SWAP4 SWAP1 SWAP4 ADD CALLDATALOAD SWAP4 POP POP POP JUMP JUMPDEST PUSH1 0x0 PUSH1 0x20 DUP3 DUP5 SUB SLT ISZERO PUSH2 0x10C5 JUMPI DUP1 DUP2 REVERT JUMPDEST DUP2 CALLDATALOAD PUSH2 0xBE3 DUP2 PUSH2 0x14AA JUMP JUMPDEST PUSH1 0x0 PUSH1 0x20 DUP3 DUP5 SUB SLT ISZERO PUSH2 0x10E1 JUMPI DUP1 DUP2 REVERT JUMPDEST DUP2 MLOAD PUSH2 0xBE3 DUP2 PUSH2 0x14AA JUMP JUMPDEST PUSH1 0x0 DUP1 PUSH1 0x0 PUSH1 0x60 DUP5 DUP7 SUB SLT ISZERO PUSH2 0x1100 JUMPI DUP3 DUP4 REVERT JUMPDEST PUSH2 0x1109 DUP5 PUSH2 0xFB8 JUMP JUMPDEST SWAP3 POP PUSH2 0x1117 PUSH1 0x20 DUP6 ADD PUSH2 0xFB8 JUMP JUMPDEST SWAP2 POP PUSH1 0x40 DUP5 ADD MLOAD PUSH4 0xFFFFFFFF DUP2 AND DUP2 EQ PUSH2 0x1046 JUMPI DUP2 DUP3 REVERT JUMPDEST PUSH1 0x0 PUSH1 0x20 DUP3 DUP5 SUB SLT ISZERO PUSH2 0x1140 JUMPI DUP1 DUP2 REVERT JUMPDEST POP MLOAD SWAP2 SWAP1 POP JUMP JUMPDEST PUSH1 0x0 DUP2 MLOAD DUP1 DUP5 MSTORE PUSH2 0x115F DUP2 PUSH1 0x20 DUP7 ADD PUSH1 0x20 DUP7 ADD PUSH2 0x1453 JUMP JUMPDEST PUSH1 0x1F ADD PUSH1 0x1F NOT AND SWAP3 SWAP1 SWAP3 ADD PUSH1 0x20 ADD SWAP3 SWAP2 POP POP JUMP JUMPDEST PUSH1 0x0 DUP3 MLOAD PUSH2 0x1185 DUP2 DUP5 PUSH1 0x20 DUP8 ADD PUSH2 0x1453 JUMP JUMPDEST SWAP2 SWAP1 SWAP2 ADD SWAP3 SWAP2 POP POP JUMP JUMPDEST PUSH1 0x1 PUSH1 0x1 PUSH1 0xA0 SHL SUB SWAP2 SWAP1 SWAP2 AND DUP2 MSTORE PUSH1 0x20 ADD SWAP1 JUMP JUMPDEST PUSH1 0x1 PUSH1 0x1 PUSH1 0xA0 SHL SUB SWAP3 SWAP1 SWAP3 AND DUP3 MSTORE PUSH1 0x20 DUP3 ADD MSTORE PUSH1 0x40 ADD SWAP1 JUMP JUMPDEST SWAP1 ISZERO ISZERO DUP2 MSTORE PUSH1 0x20 ADD SWAP1 JUMP JUMPDEST PUSH1 0x0 PUSH1 0x20 DUP3 MSTORE PUSH2 0xBE3 PUSH1 0x20 DUP4 ADD DUP5 PUSH2 0x1147 JUMP JUMPDEST PUSH1 0x20 DUP1 DUP3 MSTORE PUSH1 0x26 SWAP1 DUP3 ADD MSTORE PUSH32 0x4F776E61626C653A206E6577206F776E657220697320746865207A65726F2061 PUSH1 0x40 DUP3 ADD MSTORE PUSH6 0x646472657373 PUSH1 0xD0 SHL PUSH1 0x60 DUP3 ADD MSTORE PUSH1 0x80 ADD SWAP1 JUMP JUMPDEST PUSH1 0x20 DUP1 DUP3 MSTORE PUSH1 0x24 SWAP1 DUP3 ADD MSTORE PUSH32 0x6578656375746F723A2063616C6C6572206973206E6F74207468652065786563 PUSH1 0x40 DUP3 ADD MSTORE PUSH4 0x3ABA37B9 PUSH1 0xE1 SHL PUSH1 0x60 DUP3 ADD MSTORE PUSH1 0x80 ADD SWAP1 JUMP JUMPDEST PUSH1 0x20 DUP1 DUP3 MSTORE PUSH1 0x26 SWAP1 DUP3 ADD MSTORE PUSH32 0x416464726573733A20696E73756666696369656E742062616C616E636520666F PUSH1 0x40 DUP3 ADD MSTORE PUSH6 0x1C8818D85B1B PUSH1 0xD2 SHL PUSH1 0x60 DUP3 ADD MSTORE PUSH1 0x80 ADD SWAP1 JUMP JUMPDEST PUSH1 0x20 DUP1 DUP3 MSTORE PUSH1 0x2E SWAP1 DUP3 ADD MSTORE PUSH32 0x496E697469616C697A61626C653A20636F6E747261637420697320616C726561 PUSH1 0x40 DUP3 ADD MSTORE PUSH14 0x191E481A5B9A5D1A585B1A5E9959 PUSH1 0x92 SHL PUSH1 0x60 DUP3 ADD MSTORE PUSH1 0x80 ADD SWAP1 JUMP JUMPDEST PUSH1 0x20 DUP1 DUP3 MSTORE DUP2 DUP2 ADD MSTORE PUSH32 0x4F776E61626C653A2063616C6C6572206973206E6F7420746865206F776E6572 PUSH1 0x40 DUP3 ADD MSTORE PUSH1 0x60 ADD SWAP1 JUMP JUMPDEST PUSH1 0x20 DUP1 DUP3 MSTORE PUSH1 0x1D SWAP1 DUP3 ADD MSTORE PUSH32 0x416464726573733A2063616C6C20746F206E6F6E2D636F6E7472616374000000 PUSH1 0x40 DUP3 ADD MSTORE PUSH1 0x60 ADD SWAP1 JUMP JUMPDEST PUSH1 0x20 DUP1 DUP3 MSTORE PUSH1 0x2A SWAP1 DUP3 ADD MSTORE PUSH32 0x5361666545524332303A204552433230206F7065726174696F6E20646964206E PUSH1 0x40 DUP3 ADD MSTORE PUSH10 0x1BDD081CDD58D8D95959 PUSH1 0xB2 SHL PUSH1 0x60 DUP3 ADD MSTORE PUSH1 0x80 ADD SWAP1 JUMP JUMPDEST PUSH1 0x0 DUP6 DUP3 MSTORE DUP5 PUSH1 0x20 DUP4 ADD MSTORE PUSH1 0x1 DUP1 PUSH1 0xA0 SHL SUB DUP5 AND PUSH1 0x40 DUP4 ADD MSTORE PUSH1 0x80 PUSH1 0x60 DUP4 ADD MSTORE PUSH2 0x13DB PUSH1 0x80 DUP4 ADD DUP5 PUSH2 0x1147 JUMP JUMPDEST SWAP7 SWAP6 POP POP POP POP POP POP JUMP JUMPDEST PUSH1 0x0 DUP3 NOT DUP3 GT ISZERO PUSH2 0x13F8 JUMPI PUSH2 0x13F8 PUSH2 0x147F JUMP JUMPDEST POP ADD SWAP1 JUMP JUMPDEST PUSH1 0x0 DUP3 PUSH2 0x1418 JUMPI PUSH4 0x4E487B71 PUSH1 0xE0 SHL DUP2 MSTORE PUSH1 0x12 PUSH1 0x4 MSTORE PUSH1 0x24 DUP2 REVERT JUMPDEST POP DIV SWAP1 JUMP JUMPDEST PUSH1 0x0 DUP2 PUSH1 0x0 NOT DIV DUP4 GT DUP3 ISZERO ISZERO AND ISZERO PUSH2 0x1437 JUMPI PUSH2 0x1437 PUSH2 0x147F JUMP JUMPDEST POP MUL SWAP1 JUMP JUMPDEST PUSH1 0x0 DUP3 DUP3 LT ISZERO PUSH2 0x144E JUMPI PUSH2 0x144E PUSH2 0x147F JUMP JUMPDEST POP SUB SWAP1 JUMP JUMPDEST PUSH1 0x0 JUMPDEST DUP4 DUP2 LT ISZERO PUSH2 0x146E JUMPI DUP2 DUP2 ADD MLOAD DUP4 DUP3 ADD MSTORE PUSH1 0x20 ADD PUSH2 0x1456 JUMP JUMPDEST DUP4 DUP2 GT ISZERO PUSH2 0xAEA JUMPI POP POP PUSH1 0x0 SWAP2 ADD MSTORE JUMP JUMPDEST PUSH4 0x4E487B71 PUSH1 0xE0 SHL PUSH1 0x0 MSTORE PUSH1 0x11 PUSH1 0x4 MSTORE PUSH1 0x24 PUSH1 0x0 REVERT JUMPDEST PUSH1 0x1 PUSH1 0x1 PUSH1 0xA0 SHL SUB DUP2 AND DUP2 EQ PUSH2 0xB7E JUMPI PUSH1 0x0 DUP1 REVERT JUMPDEST DUP1 ISZERO ISZERO DUP2 EQ PUSH2 0xB7E JUMPI PUSH1 0x0 DUP1 REVERT INVALID LOG2 PUSH5 0x6970667358 0x22 SLT KECCAK256 0xD1 MSTORE 0xE2 0xB9 PUSH10 0xA20236D022CD70A74892 CODESIZE OR 0xE5 0xC2 OR 0xE2 PUSH3 0x9D0142 0x2C 0xB5 PUSH5 0x72649A364 PUSH20 0x6F6C634300080000330000000000000000000000 "
				},
				"gasEstimates": {
					"creation": {
						"codeDepositCost": "1071600",
						"executionCost": "1114",
						"totalCost": "1072714"
					},
					"external": {
						"executor(address)": "1325",
						"goStabilizer()": "infinite",
						"initialize(address,address,address)": "infinite",
						"openBuy()": "1101",
						"openSell()": "1123",
						"owner()": "1137",
						"renounceOwnership()": "23596",
						"setExecutor(address,bool)": "infinite",
						"setOpenBuy(bool)": "22211",
						"setOpenSell(bool)": "22193",
						"transferOwnership(address)": "infinite",
						"usc()": "1138",
						"usdc()": "1115",
						"usdc_usc_lpAddress()": "1115",
						"withdrawalERC20(address,uint256)": "infinite"
					},
					"internal": {
						"getAmountOut(uint256,uint256,uint256)": "infinite"
					}
				},
				"methodIdentifiers": {
					"executor(address)": "48c7e528",
					"goStabilizer()": "796c7be7",
					"initialize(address,address,address)": "c0c53b8b",
					"openBuy()": "d4a67930",
					"openSell()": "f1eae64a",
					"owner()": "8da5cb5b",
					"renounceOwnership()": "715018a6",
					"setExecutor(address,bool)": "1e1bff3f",
					"setOpenBuy(bool)": "29e9a524",
					"setOpenSell(bool)": "3c03b9a4",
					"transferOwnership(address)": "f2fde38b",
					"usc()": "3011d3d5",
					"usdc()": "3e413bee",
					"usdc_usc_lpAddress()": "7e6f7a09",
					"withdrawalERC20(address,uint256)": "930ed033"
				}
			},
			"storageLayout": {
				"storage": [
					{
						"astId": 130,
						"contract": "contracts/stabilizer.sol:stabilizer",
						"label": "_initialized",
						"offset": 0,
						"slot": "0",
						"type": "t_bool"
					},
					{
						"astId": 133,
						"contract": "contracts/stabilizer.sol:stabilizer",
						"label": "_initializing",
						"offset": 1,
						"slot": "0",
						"type": "t_bool"
					},
					{
						"astId": 760,
						"contract": "contracts/stabilizer.sol:stabilizer",
						"label": "__gap",
						"offset": 0,
						"slot": "1",
						"type": "t_array(t_uint256)50_storage"
					},
					{
						"astId": 10,
						"contract": "contracts/stabilizer.sol:stabilizer",
						"label": "_owner",
						"offset": 0,
						"slot": "51",
						"type": "t_address"
					},
					{
						"astId": 124,
						"contract": "contracts/stabilizer.sol:stabilizer",
						"label": "__gap",
						"offset": 0,
						"slot": "52",
						"type": "t_array(t_uint256)49_storage"
					},
					{
						"astId": 1353,
						"contract": "contracts/stabilizer.sol:stabilizer",
						"label": "executor",
						"offset": 0,
						"slot": "101",
						"type": "t_mapping(t_address,t_bool)"
					},
					{
						"astId": 1355,
						"contract": "contracts/stabilizer.sol:stabilizer",
						"label": "usdc_usc_lpAddress",
						"offset": 0,
						"slot": "102",
						"type": "t_address"
					},
					{
						"astId": 1357,
						"contract": "contracts/stabilizer.sol:stabilizer",
						"label": "usdc",
						"offset": 0,
						"slot": "103",
						"type": "t_address"
					},
					{
						"astId": 1359,
						"contract": "contracts/stabilizer.sol:stabilizer",
						"label": "usc",
						"offset": 0,
						"slot": "104",
						"type": "t_address"
					},
					{
						"astId": 1361,
						"contract": "contracts/stabilizer.sol:stabilizer",
						"label": "openBuy",
						"offset": 20,
						"slot": "104",
						"type": "t_bool"
					},
					{
						"astId": 1363,
						"contract": "contracts/stabilizer.sol:stabilizer",
						"label": "openSell",
						"offset": 21,
						"slot": "104",
						"type": "t_bool"
					}
				],
				"types": {
					"t_address": {
						"encoding": "inplace",
						"label": "address",
						"numberOfBytes": "20"
					},
					"t_array(t_uint256)49_storage": {
						"base": "t_uint256",
						"encoding": "inplace",
						"label": "uint256[49]",
						"numberOfBytes": "1568"
					},
					"t_array(t_uint256)50_storage": {
						"base": "t_uint256",
						"encoding": "inplace",
						"label": "uint256[50]",
						"numberOfBytes": "1600"
					},
					"t_bool": {
						"encoding": "inplace",
						"label": "bool",
						"numberOfBytes": "1"
					},
					"t_mapping(t_address,t_bool)": {
						"encoding": "mapping",
						"key": "t_address",
						"label": "mapping(address => bool)",
						"numberOfBytes": "32",
						"value": "t_bool"
					},
					"t_uint256": {
						"encoding": "inplace",
						"label": "uint256",
						"numberOfBytes": "32"
					}
				}
			},
			"userdoc": {
				"kind": "user",
				"methods": {},
				"version": 1
			}
		}
	}
}