{
	"contracts/oracle.sol": {
		"Oracle": {
			"abi": [
				{
					"anonymous": false,
					"inputs": [
						{
							"indexed": true,
							"internalType": "address",
							"name": "previousOwner",
							"type": "address"
						},
						{
							"indexed": true,
							"internalType": "address",
							"name": "newOwner",
							"type": "address"
						}
					],
					"name": "OwnershipTransferred",
					"type": "event"
				},
				{
					"inputs": [
						{
							"internalType": "address",
							"name": "",
							"type": "address"
						}
					],
					"name": "executor",
					"outputs": [
						{
							"internalType": "bool",
							"name": "",
							"type": "bool"
						}
					],
					"stateMutability": "view",
					"type": "function"
				},
				{
					"inputs": [
						{
							"internalType": "uint256",
							"name": "_price18",
							"type": "uint256"
						},
						{
							"internalType": "uint256",
							"name": "_timestamp",
							"type": "uint256"
						},
						{
							"internalType": "string",
							"name": "_symbols",
							"type": "string"
						},
						{
							"internalType": "bytes",
							"name": "_signature",
							"type": "bytes"
						}
					],
					"name": "getkey",
					"outputs": [
						{
							"internalType": "bool",
							"name": "",
							"type": "bool"
						}
					],
					"stateMutability": "view",
					"type": "function"
				},
				{
					"inputs": [
						{
							"internalType": "address",
							"name": "_signer",
							"type": "address"
						}
					],
					"name": "initialize",
					"outputs": [],
					"stateMutability": "nonpayable",
					"type": "function"
				},
				{
					"inputs": [],
					"name": "owner",
					"outputs": [
						{
							"internalType": "address",
							"name": "",
							"type": "address"
						}
					],
					"stateMutability": "view",
					"type": "function"
				},
				{
					"inputs": [],
					"name": "renounceOwnership",
					"outputs": [],
					"stateMutability": "nonpayable",
					"type": "function"
				},
				{
					"inputs": [
						{
							"internalType": "address",
							"name": "_address",
							"type": "address"
						},
						{
							"internalType": "bool",
							"name": "_type",
							"type": "bool"
						}
					],
					"name": "setExecutor",
					"outputs": [
						{
							"internalType": "bool",
							"name": "",
							"type": "bool"
						}
					],
					"stateMutability": "nonpayable",
					"type": "function"
				},
				{
					"inputs": [
						{
							"internalType": "address",
							"name": "_address",
							"type": "address"
						}
					],
					"name": "setSigner",
					"outputs": [
						{
							"internalType": "bool",
							"name": "",
							"type": "bool"
						}
					],
					"stateMutability": "nonpayable",
					"type": "function"
				},
				{
					"inputs": [
						{
							"internalType": "uint256",
							"name": "_val",
							"type": "uint256"
						}
					],
					"name": "setTimeLimit",
					"outputs": [
						{
							"internalType": "bool",
							"name": "",
							"type": "bool"
						}
					],
					"stateMutability": "nonpayable",
					"type": "function"
				},
				{
					"inputs": [],
					"name": "signer",
					"outputs": [
						{
							"internalType": "address",
							"name": "",
							"type": "address"
						}
					],
					"stateMutability": "view",
					"type": "function"
				},
				{
					"inputs": [],
					"name": "timeLimit",
					"outputs": [
						{
							"internalType": "uint256",
							"name": "",
							"type": "uint256"
						}
					],
					"stateMutability": "view",
					"type": "function"
				},
				{
					"inputs": [
						{
							"internalType": "address",
							"name": "newOwner",
							"type": "address"
						}
					],
					"name": "transferOwnership",
					"outputs": [],
					"stateMutability": "nonpayable",
					"type": "function"
				}
			],
			"devdoc": {
				"kind": "dev",
				"methods": {
					"owner()": {
						"details": "Returns the address of the current owner."
					},
					"renounceOwnership()": {
						"details": "Leaves the contract without owner. It will not be possible to call `onlyOwner` functions anymore. Can only be called by the current owner. NOTE: Renouncing ownership will leave the contract without an owner, thereby removing any functionality that is only available to the owner."
					},
					"transferOwnership(address)": {
						"details": "Transfers ownership of the contract to a new account (`newOwner`). Can only be called by the current owner."
					}
				},
				"version": 1
			},
			"evm": {
				"assembly": "    /* \"contracts/oracle.sol\":436:2324  contract Oracle is Initializable, OwnableUpgradeable {... */\n  mstore(0x40, 0x80)\n  callvalue\n  dup1\n  iszero\n  tag_1\n  jumpi\n  0x00\n  dup1\n  revert\ntag_1:\n  pop\n  dataSize(sub_0)\n  dup1\n  dataOffset(sub_0)\n  0x00\n  codecopy\n  0x00\n  return\nstop\n\nsub_0: assembly {\n        /* \"contracts/oracle.sol\":436:2324  contract Oracle is Initializable, OwnableUpgradeable {... */\n      mstore(0x40, 0x80)\n      callvalue\n      dup1\n      iszero\n      tag_1\n      jumpi\n      0x00\n      dup1\n      revert\n    tag_1:\n      pop\n      jumpi(tag_2, lt(calldatasize, 0x04))\n      shr(0xe0, calldataload(0x00))\n      dup1\n      0x81952f3b\n      gt\n      tag_14\n      jumpi\n      dup1\n      0x81952f3b\n      eq\n      tag_8\n      jumpi\n      dup1\n      0x8da5cb5b\n      eq\n      tag_9\n      jumpi\n      dup1\n      0xc08d1fe5\n      eq\n      tag_10\n      jumpi\n      dup1\n      0xc4d66de8\n      eq\n      tag_11\n      jumpi\n      dup1\n      0xe2889c82\n      eq\n      tag_12\n      jumpi\n      dup1\n      0xf2fde38b\n      eq\n      tag_13\n      jumpi\n      jump(tag_2)\n    tag_14:\n      dup1\n      0x1e1bff3f\n      eq\n      tag_3\n      jumpi\n      dup1\n      0x238ac933\n      eq\n      tag_4\n      jumpi\n      dup1\n      0x48c7e528\n      eq\n      tag_5\n      jumpi\n      dup1\n      0x6c19e783\n      eq\n      tag_6\n      jumpi\n      dup1\n      0x715018a6\n      eq\n      tag_7\n      jumpi\n    tag_2:\n      0x00\n      dup1\n      revert\n        /* \"contracts/oracle.sol\":1024:1190  function setExecutor(address _address, bool _type)... */\n    tag_3:\n      tag_15\n      0x04\n      dup1\n      calldatasize\n      sub\n      dup2\n      add\n      swap1\n      tag_16\n      swap2\n      swap1\n      tag_17\n      jump\t// in\n    tag_16:\n      tag_18\n      jump\t// in\n    tag_15:\n      mload(0x40)\n      tag_19\n      swap2\n      swap1\n      tag_20\n      jump\t// in\n    tag_19:\n      mload(0x40)\n      dup1\n      swap2\n      sub\n      swap1\n      return\n        /* \"contracts/oracle.sol\":557:578  address public signer */\n    tag_4:\n      tag_21\n      tag_22\n      jump\t// in\n    tag_21:\n      mload(0x40)\n      tag_23\n      swap2\n      swap1\n      tag_24\n      jump\t// in\n    tag_23:\n      mload(0x40)\n      dup1\n      swap2\n      sub\n      swap1\n      return\n        /* \"contracts/oracle.sol\":629:669  mapping(address => bool) public executor */\n    tag_5:\n      tag_25\n      0x04\n      dup1\n      calldatasize\n      sub\n      dup2\n      add\n      swap1\n      tag_26\n      swap2\n      swap1\n      tag_27\n      jump\t// in\n    tag_26:\n      tag_28\n      jump\t// in\n    tag_25:\n      mload(0x40)\n      tag_29\n      swap2\n      swap1\n      tag_20\n      jump\t// in\n    tag_29:\n      mload(0x40)\n      dup1\n      swap2\n      sub\n      swap1\n      return\n        /* \"contracts/oracle.sol\":1619:1745  function setSigner(address _address) external onlyOwner returns (bool) {... */\n    tag_6:\n      tag_30\n      0x04\n      dup1\n      calldatasize\n      sub\n      dup2\n      add\n      swap1\n      tag_31\n      swap2\n      swap1\n      tag_27\n      jump\t// in\n    tag_31:\n      tag_32\n      jump\t// in\n    tag_30:\n      mload(0x40)\n      tag_33\n      swap2\n      swap1\n      tag_20\n      jump\t// in\n    tag_33:\n      mload(0x40)\n      dup1\n      swap2\n      sub\n      swap1\n      return\n        /* \"@openzeppelin/contracts-upgradeable/access/OwnableUpgradeable.sol\":1934:2035  function renounceOwnership() public virtual onlyOwner {... */\n    tag_7:\n      tag_34\n      tag_35\n      jump\t// in\n    tag_34:\n      stop\n        /* \"contracts/oracle.sol\":1751:2322  function getkey(... */\n    tag_8:\n      tag_36\n      0x04\n      dup1\n      calldatasize\n      sub\n      dup2\n      add\n      swap1\n      tag_37\n      swap2\n      swap1\n      tag_38\n      jump\t// in\n    tag_37:\n      tag_39\n      jump\t// in\n    tag_36:\n      mload(0x40)\n      tag_40\n      swap2\n      swap1\n      tag_20\n      jump\t// in\n    tag_40:\n      mload(0x40)\n      dup1\n      swap2\n      sub\n      swap1\n      return\n        /* \"@openzeppelin/contracts-upgradeable/access/OwnableUpgradeable.sol\":1302:1387  function owner() public view virtual returns (address) {... */\n    tag_9:\n      tag_41\n      tag_42\n      jump\t// in\n    tag_41:\n      mload(0x40)\n      tag_43\n      swap2\n      swap1\n      tag_24\n      jump\t// in\n    tag_43:\n      mload(0x40)\n      dup1\n      swap2\n      sub\n      swap1\n      return\n        /* \"contracts/oracle.sol\":584:608  uint256 public timeLimit */\n    tag_10:\n      tag_44\n      tag_45\n      jump\t// in\n    tag_44:\n      mload(0x40)\n      tag_46\n      swap2\n      swap1\n      tag_47\n      jump\t// in\n    tag_46:\n      mload(0x40)\n      dup1\n      swap2\n      sub\n      swap1\n      return\n        /* \"contracts/oracle.sol\":840:1018  function initialize(address _signer) external initializer {... */\n    tag_11:\n      tag_48\n      0x04\n      dup1\n      calldatasize\n      sub\n      dup2\n      add\n      swap1\n      tag_49\n      swap2\n      swap1\n      tag_27\n      jump\t// in\n    tag_49:\n      tag_50\n      jump\t// in\n    tag_48:\n      stop\n        /* \"contracts/oracle.sol\":1489:1613  function setTimeLimit(uint256 _val) external onlyOwner returns (bool) {... */\n    tag_12:\n      tag_51\n      0x04\n      dup1\n      calldatasize\n      sub\n      dup2\n      add\n      swap1\n      tag_52\n      swap2\n      swap1\n      tag_53\n      jump\t// in\n    tag_52:\n      tag_54\n      jump\t// in\n    tag_51:\n      mload(0x40)\n      tag_55\n      swap2\n      swap1\n      tag_20\n      jump\t// in\n    tag_55:\n      mload(0x40)\n      dup1\n      swap2\n      sub\n      swap1\n      return\n        /* \"@openzeppelin/contracts-upgradeable/access/OwnableUpgradeable.sol\":2184:2382  function transferOwnership(address newOwner) public virtual onlyOwner {... */\n    tag_13:\n      tag_56\n      0x04\n      dup1\n      calldatasize\n      sub\n      dup2\n      add\n      swap1\n      tag_57\n      swap2\n      swap1\n      tag_27\n      jump\t// in\n    tag_57:\n      tag_58\n      jump\t// in\n    tag_56:\n      stop\n        /* \"contracts/oracle.sol\":1024:1190  function setExecutor(address _address, bool _type)... */\n    tag_18:\n        /* \"contracts/oracle.sol\":1127:1131  bool */\n      0x00\n        /* \"@openzeppelin/contracts-upgradeable/access/OwnableUpgradeable.sol\":1525:1537  _msgSender() */\n      tag_60\n        /* \"@openzeppelin/contracts-upgradeable/access/OwnableUpgradeable.sol\":1525:1535  _msgSender */\n      tag_61\n        /* \"@openzeppelin/contracts-upgradeable/access/OwnableUpgradeable.sol\":1525:1537  _msgSender() */\n      jump\t// in\n    tag_60:\n        /* \"@openzeppelin/contracts-upgradeable/access/OwnableUpgradeable.sol\":1514:1537  owner() == _msgSender() */\n      0xffffffffffffffffffffffffffffffffffffffff\n      and\n        /* \"@openzeppelin/contracts-upgradeable/access/OwnableUpgradeable.sol\":1514:1521  owner() */\n      tag_62\n        /* \"@openzeppelin/contracts-upgradeable/access/OwnableUpgradeable.sol\":1514:1519  owner */\n      tag_42\n        /* \"@openzeppelin/contracts-upgradeable/access/OwnableUpgradeable.sol\":1514:1521  owner() */\n      jump\t// in\n    tag_62:\n        /* \"@openzeppelin/contracts-upgradeable/access/OwnableUpgradeable.sol\":1514:1537  owner() == _msgSender() */\n      0xffffffffffffffffffffffffffffffffffffffff\n      and\n      eq\n        /* \"@openzeppelin/contracts-upgradeable/access/OwnableUpgradeable.sol\":1506:1574  require(owner() == _msgSender(), \"Ownable: caller is not the owner\") */\n      tag_63\n      jumpi\n      mload(0x40)\n      0x08c379a000000000000000000000000000000000000000000000000000000000\n      dup2\n      mstore\n      0x04\n      add\n      tag_64\n      swap1\n      tag_65\n      jump\t// in\n    tag_64:\n      mload(0x40)\n      dup1\n      swap2\n      sub\n      swap1\n      revert\n    tag_63:\n        /* \"contracts/oracle.sol\":1154:1183  _setExecutor(_address, _type) */\n      tag_67\n        /* \"contracts/oracle.sol\":1167:1175  _address */\n      dup4\n        /* \"contracts/oracle.sol\":1177:1182  _type */\n      dup4\n        /* \"contracts/oracle.sol\":1154:1166  _setExecutor */\n      tag_68\n        /* \"contracts/oracle.sol\":1154:1183  _setExecutor(_address, _type) */\n      jump\t// in\n    tag_67:\n        /* \"contracts/oracle.sol\":1147:1183  return _setExecutor(_address, _type) */\n      swap1\n      pop\n        /* \"contracts/oracle.sol\":1024:1190  function setExecutor(address _address, bool _type)... */\n      swap3\n      swap2\n      pop\n      pop\n      jump\t// out\n        /* \"contracts/oracle.sol\":557:578  address public signer */\n    tag_22:\n      0x65\n      0x00\n      swap1\n      sload\n      swap1\n      0x0100\n      exp\n      swap1\n      div\n      0xffffffffffffffffffffffffffffffffffffffff\n      and\n      dup2\n      jump\t// out\n        /* \"contracts/oracle.sol\":629:669  mapping(address => bool) public executor */\n    tag_28:\n      mstore(0x20, 0x67)\n      dup1\n      0x00\n      mstore\n      keccak256(0x00, 0x40)\n      0x00\n      swap2\n      pop\n      sload\n      swap1\n      0x0100\n      exp\n      swap1\n      div\n      0xff\n      and\n      dup2\n      jump\t// out\n        /* \"contracts/oracle.sol\":1619:1745  function setSigner(address _address) external onlyOwner returns (bool) {... */\n    tag_32:\n        /* \"contracts/oracle.sol\":1684:1688  bool */\n      0x00\n        /* \"@openzeppelin/contracts-upgradeable/access/OwnableUpgradeable.sol\":1525:1537  _msgSender() */\n      tag_70\n        /* \"@openzeppelin/contracts-upgradeable/access/OwnableUpgradeable.sol\":1525:1535  _msgSender */\n      tag_61\n        /* \"@openzeppelin/contracts-upgradeable/access/OwnableUpgradeable.sol\":1525:1537  _msgSender() */\n      jump\t// in\n    tag_70:\n        /* \"@openzeppelin/contracts-upgradeable/access/OwnableUpgradeable.sol\":1514:1537  owner() == _msgSender() */\n      0xffffffffffffffffffffffffffffffffffffffff\n      and\n        /* \"@openzeppelin/contracts-upgradeable/access/OwnableUpgradeable.sol\":1514:1521  owner() */\n      tag_71\n        /* \"@openzeppelin/contracts-upgradeable/access/OwnableUpgradeable.sol\":1514:1519  owner */\n      tag_42\n        /* \"@openzeppelin/contracts-upgradeable/access/OwnableUpgradeable.sol\":1514:1521  owner() */\n      jump\t// in\n    tag_71:\n        /* \"@openzeppelin/contracts-upgradeable/access/OwnableUpgradeable.sol\":1514:1537  owner() == _msgSender() */\n      0xffffffffffffffffffffffffffffffffffffffff\n      and\n      eq\n        /* \"@openzeppelin/contracts-upgradeable/access/OwnableUpgradeable.sol\":1506:1574  require(owner() == _msgSender(), \"Ownable: caller is not the owner\") */\n      tag_72\n      jumpi\n      mload(0x40)\n      0x08c379a000000000000000000000000000000000000000000000000000000000\n      dup2\n      mstore\n      0x04\n      add\n      tag_73\n      swap1\n      tag_65\n      jump\t// in\n    tag_73:\n      mload(0x40)\n      dup1\n      swap2\n      sub\n      swap1\n      revert\n    tag_72:\n        /* \"contracts/oracle.sol\":1709:1717  _address */\n      dup2\n        /* \"contracts/oracle.sol\":1700:1706  signer */\n      0x65\n      0x00\n        /* \"contracts/oracle.sol\":1700:1717  signer = _address */\n      0x0100\n      exp\n      dup2\n      sload\n      dup2\n      0xffffffffffffffffffffffffffffffffffffffff\n      mul\n      not\n      and\n      swap1\n      dup4\n      0xffffffffffffffffffffffffffffffffffffffff\n      and\n      mul\n      or\n      swap1\n      sstore\n      pop\n        /* \"contracts/oracle.sol\":1734:1738  true */\n      0x01\n        /* \"contracts/oracle.sol\":1727:1738  return true */\n      swap1\n      pop\n        /* \"contracts/oracle.sol\":1619:1745  function setSigner(address _address) external onlyOwner returns (bool) {... */\n      swap2\n      swap1\n      pop\n      jump\t// out\n        /* \"@openzeppelin/contracts-upgradeable/access/OwnableUpgradeable.sol\":1934:2035  function renounceOwnership() public virtual onlyOwner {... */\n    tag_35:\n        /* \"@openzeppelin/contracts-upgradeable/access/OwnableUpgradeable.sol\":1525:1537  _msgSender() */\n      tag_76\n        /* \"@openzeppelin/contracts-upgradeable/access/OwnableUpgradeable.sol\":1525:1535  _msgSender */\n      tag_61\n        /* \"@openzeppelin/contracts-upgradeable/access/OwnableUpgradeable.sol\":1525:1537  _msgSender() */\n      jump\t// in\n    tag_76:\n        /* \"@openzeppelin/contracts-upgradeable/access/OwnableUpgradeable.sol\":1514:1537  owner() == _msgSender() */\n      0xffffffffffffffffffffffffffffffffffffffff\n      and\n        /* \"@openzeppelin/contracts-upgradeable/access/OwnableUpgradeable.sol\":1514:1521  owner() */\n      tag_77\n        /* \"@openzeppelin/contracts-upgradeable/access/OwnableUpgradeable.sol\":1514:1519  owner */\n      tag_42\n        /* \"@openzeppelin/contracts-upgradeable/access/OwnableUpgradeable.sol\":1514:1521  owner() */\n      jump\t// in\n    tag_77:\n        /* \"@openzeppelin/contracts-upgradeable/access/OwnableUpgradeable.sol\":1514:1537  owner() == _msgSender() */\n      0xffffffffffffffffffffffffffffffffffffffff\n      and\n      eq\n        /* \"@openzeppelin/contracts-upgradeable/access/OwnableUpgradeable.sol\":1506:1574  require(owner() == _msgSender(), \"Ownable: caller is not the owner\") */\n      tag_78\n      jumpi\n      mload(0x40)\n      0x08c379a000000000000000000000000000000000000000000000000000000000\n      dup2\n      mstore\n      0x04\n      add\n      tag_79\n      swap1\n      tag_65\n      jump\t// in\n    tag_79:\n      mload(0x40)\n      dup1\n      swap2\n      sub\n      swap1\n      revert\n    tag_78:\n        /* \"@openzeppelin/contracts-upgradeable/access/OwnableUpgradeable.sol\":1998:2028  _transferOwnership(address(0)) */\n      tag_81\n        /* \"@openzeppelin/contracts-upgradeable/access/OwnableUpgradeable.sol\":2025:2026  0 */\n      0x00\n        /* \"@openzeppelin/contracts-upgradeable/access/OwnableUpgradeable.sol\":1998:2016  _transferOwnership */\n      tag_82\n        /* \"@openzeppelin/contracts-upgradeable/access/OwnableUpgradeable.sol\":1998:2028  _transferOwnership(address(0)) */\n      jump\t// in\n    tag_81:\n        /* \"@openzeppelin/contracts-upgradeable/access/OwnableUpgradeable.sol\":1934:2035  function renounceOwnership() public virtual onlyOwner {... */\n      jump\t// out\n        /* \"contracts/oracle.sol\":1751:2322  function getkey(... */\n    tag_39:\n        /* \"contracts/oracle.sol\":1913:1917  bool */\n      0x00\n        /* \"contracts/oracle.sol\":1937:1945  executor */\n      0x67\n        /* \"contracts/oracle.sol\":1937:1957  executor[msg.sender] */\n      0x00\n        /* \"contracts/oracle.sol\":1946:1956  msg.sender */\n      caller\n        /* \"contracts/oracle.sol\":1937:1957  executor[msg.sender] */\n      0xffffffffffffffffffffffffffffffffffffffff\n      and\n      0xffffffffffffffffffffffffffffffffffffffff\n      and\n      dup2\n      mstore\n      0x20\n      add\n      swap1\n      dup2\n      mstore\n      0x20\n      add\n      0x00\n      keccak256\n      0x00\n      swap1\n      sload\n      swap1\n      0x0100\n      exp\n      swap1\n      div\n      0xff\n      and\n        /* \"contracts/oracle.sol\":1929:1974  require(executor[msg.sender], \"executor err\") */\n      tag_84\n      jumpi\n      mload(0x40)\n      0x08c379a000000000000000000000000000000000000000000000000000000000\n      dup2\n      mstore\n      0x04\n      add\n      tag_85\n      swap1\n      tag_86\n      jump\t// in\n    tag_85:\n      mload(0x40)\n      dup1\n      swap2\n      sub\n      swap1\n      revert\n    tag_84:\n        /* \"contracts/oracle.sol\":2022:2032  _timestamp */\n      dup4\n        /* \"contracts/oracle.sol\":2010:2019  timeLimit */\n      sload(0x66)\n        /* \"contracts/oracle.sol\":1992:2007  block.timestamp */\n      timestamp\n        /* \"contracts/oracle.sol\":1992:2019  block.timestamp - timeLimit */\n      tag_87\n      swap2\n      swap1\n      tag_88\n      jump\t// in\n    tag_87:\n        /* \"contracts/oracle.sol\":1992:2032  block.timestamp - timeLimit < _timestamp */\n      lt\n        /* \"contracts/oracle.sol\":1984:2050  require(block.timestamp - timeLimit < _timestamp, \"timestamp err\") */\n      tag_89\n      jumpi\n      mload(0x40)\n      0x08c379a000000000000000000000000000000000000000000000000000000000\n      dup2\n      mstore\n      0x04\n      add\n      tag_90\n      swap1\n      tag_91\n      jump\t// in\n    tag_90:\n      mload(0x40)\n      dup1\n      swap2\n      sub\n      swap1\n      revert\n    tag_89:\n        /* \"contracts/oracle.sol\":2060:2072  bytes32 hash */\n      0x00\n        /* \"contracts/oracle.sol\":2115:2123  _price18 */\n      dup6\n        /* \"contracts/oracle.sol\":2125:2135  _timestamp */\n      dup6\n        /* \"contracts/oracle.sol\":2137:2145  _symbols */\n      dup6\n        /* \"contracts/oracle.sol\":2098:2146  abi.encodePacked(_price18, _timestamp, _symbols) */\n      add(0x20, mload(0x40))\n      tag_92\n      swap4\n      swap3\n      swap2\n      swap1\n      tag_93\n      jump\t// in\n    tag_92:\n      mload(0x40)\n      0x20\n      dup2\n      dup4\n      sub\n      sub\n      dup2\n      mstore\n      swap1\n      0x40\n      mstore\n        /* \"contracts/oracle.sol\":2075:2156  keccak256(... */\n      dup1\n      mload\n      swap1\n      0x20\n      add\n      keccak256\n        /* \"contracts/oracle.sol\":2060:2156  bytes32 hash = keccak256(... */\n      swap1\n      pop\n        /* \"contracts/oracle.sol\":2166:2181  address _signer */\n      0x00\n        /* \"contracts/oracle.sol\":2184:2279  ECDSA.recover(... */\n      tag_94\n        /* \"contracts/oracle.sol\":2211:2245  ECDSA.toEthSignedMessageHash(hash) */\n      tag_95\n        /* \"contracts/oracle.sol\":2240:2244  hash */\n      dup4\n        /* \"contracts/oracle.sol\":2211:2239  ECDSA.toEthSignedMessageHash */\n      tag_96\n        /* \"contracts/oracle.sol\":2211:2245  ECDSA.toEthSignedMessageHash(hash) */\n      jump\t// in\n    tag_95:\n        /* \"contracts/oracle.sol\":2259:2269  _signature */\n      dup6\n        /* \"contracts/oracle.sol\":2184:2197  ECDSA.recover */\n      tag_97\n        /* \"contracts/oracle.sol\":2184:2279  ECDSA.recover(... */\n      jump\t// in\n    tag_94:\n        /* \"contracts/oracle.sol\":2166:2279  address _signer = ECDSA.recover(... */\n      swap1\n      pop\n        /* \"contracts/oracle.sol\":2307:2314  _signer */\n      dup1\n        /* \"contracts/oracle.sol\":2297:2314  signer == _signer */\n      0xffffffffffffffffffffffffffffffffffffffff\n      and\n        /* \"contracts/oracle.sol\":2297:2303  signer */\n      0x65\n      0x00\n      swap1\n      sload\n      swap1\n      0x0100\n      exp\n      swap1\n      div\n      0xffffffffffffffffffffffffffffffffffffffff\n      and\n        /* \"contracts/oracle.sol\":2297:2314  signer == _signer */\n      0xffffffffffffffffffffffffffffffffffffffff\n      and\n      eq\n        /* \"contracts/oracle.sol\":2289:2315  return (signer == _signer) */\n      swap3\n      pop\n      pop\n      pop\n        /* \"contracts/oracle.sol\":1751:2322  function getkey(... */\n      swap5\n      swap4\n      pop\n      pop\n      pop\n      pop\n      jump\t// out\n        /* \"@openzeppelin/contracts-upgradeable/access/OwnableUpgradeable.sol\":1302:1387  function owner() public view virtual returns (address) {... */\n    tag_42:\n        /* \"@openzeppelin/contracts-upgradeable/access/OwnableUpgradeable.sol\":1348:1355  address */\n      0x00\n        /* \"@openzeppelin/contracts-upgradeable/access/OwnableUpgradeable.sol\":1374:1380  _owner */\n      0x33\n      0x00\n      swap1\n      sload\n      swap1\n      0x0100\n      exp\n      swap1\n      div\n      0xffffffffffffffffffffffffffffffffffffffff\n      and\n        /* \"@openzeppelin/contracts-upgradeable/access/OwnableUpgradeable.sol\":1367:1380  return _owner */\n      swap1\n      pop\n        /* \"@openzeppelin/contracts-upgradeable/access/OwnableUpgradeable.sol\":1302:1387  function owner() public view virtual returns (address) {... */\n      swap1\n      jump\t// out\n        /* \"contracts/oracle.sol\":584:608  uint256 public timeLimit */\n    tag_45:\n      sload(0x66)\n      dup2\n      jump\t// out\n        /* \"contracts/oracle.sol\":840:1018  function initialize(address _signer) external initializer {... */\n    tag_50:\n        /* \"@openzeppelin/contracts-upgradeable/proxy/utils/Initializable.sol\":539:552  _initializing */\n      0x00\n      0x01\n      swap1\n      sload\n      swap1\n      0x0100\n      exp\n      swap1\n      div\n      0xff\n      and\n        /* \"@openzeppelin/contracts-upgradeable/proxy/utils/Initializable.sol\":539:569  _initializing || !_initialized */\n      dup1\n      tag_100\n      jumpi\n      pop\n        /* \"@openzeppelin/contracts-upgradeable/proxy/utils/Initializable.sol\":557:569  _initialized */\n      0x00\n      dup1\n      sload\n      swap1\n      0x0100\n      exp\n      swap1\n      div\n      0xff\n      and\n        /* \"@openzeppelin/contracts-upgradeable/proxy/utils/Initializable.sol\":556:569  !_initialized */\n      iszero\n        /* \"@openzeppelin/contracts-upgradeable/proxy/utils/Initializable.sol\":539:569  _initializing || !_initialized */\n    tag_100:\n        /* \"@openzeppelin/contracts-upgradeable/proxy/utils/Initializable.sol\":531:620  require(_initializing || !_initialized, \"Initializable: contract is already initialized\") */\n      tag_101\n      jumpi\n      mload(0x40)\n      0x08c379a000000000000000000000000000000000000000000000000000000000\n      dup2\n      mstore\n      0x04\n      add\n      tag_102\n      swap1\n      tag_103\n      jump\t// in\n    tag_102:\n      mload(0x40)\n      dup1\n      swap2\n      sub\n      swap1\n      revert\n    tag_101:\n        /* \"@openzeppelin/contracts-upgradeable/proxy/utils/Initializable.sol\":631:650  bool isTopLevelCall */\n      0x00\n        /* \"@openzeppelin/contracts-upgradeable/proxy/utils/Initializable.sol\":654:667  _initializing */\n      dup1\n      0x01\n      swap1\n      sload\n      swap1\n      0x0100\n      exp\n      swap1\n      div\n      0xff\n      and\n        /* \"@openzeppelin/contracts-upgradeable/proxy/utils/Initializable.sol\":653:667  !_initializing */\n      iszero\n        /* \"@openzeppelin/contracts-upgradeable/proxy/utils/Initializable.sol\":631:667  bool isTopLevelCall = !_initializing */\n      swap1\n      pop\n        /* \"@openzeppelin/contracts-upgradeable/proxy/utils/Initializable.sol\":681:695  isTopLevelCall */\n      dup1\n        /* \"@openzeppelin/contracts-upgradeable/proxy/utils/Initializable.sol\":677:775  if (isTopLevelCall) {... */\n      iszero\n      tag_104\n      jumpi\n        /* \"@openzeppelin/contracts-upgradeable/proxy/utils/Initializable.sol\":727:731  true */\n      0x01\n        /* \"@openzeppelin/contracts-upgradeable/proxy/utils/Initializable.sol\":711:724  _initializing */\n      0x00\n      0x01\n        /* \"@openzeppelin/contracts-upgradeable/proxy/utils/Initializable.sol\":711:731  _initializing = true */\n      0x0100\n      exp\n      dup2\n      sload\n      dup2\n      0xff\n      mul\n      not\n      and\n      swap1\n      dup4\n      iszero\n      iszero\n      mul\n      or\n      swap1\n      sstore\n      pop\n        /* \"@openzeppelin/contracts-upgradeable/proxy/utils/Initializable.sol\":760:764  true */\n      0x01\n        /* \"@openzeppelin/contracts-upgradeable/proxy/utils/Initializable.sol\":745:757  _initialized */\n      0x00\n      dup1\n        /* \"@openzeppelin/contracts-upgradeable/proxy/utils/Initializable.sol\":745:764  _initialized = true */\n      0x0100\n      exp\n      dup2\n      sload\n      dup2\n      0xff\n      mul\n      not\n      and\n      swap1\n      dup4\n      iszero\n      iszero\n      mul\n      or\n      swap1\n      sstore\n      pop\n        /* \"@openzeppelin/contracts-upgradeable/proxy/utils/Initializable.sol\":677:775  if (isTopLevelCall) {... */\n    tag_104:\n        /* \"contracts/oracle.sol\":908:924  __Ownable_init() */\n      tag_106\n        /* \"contracts/oracle.sol\":908:922  __Ownable_init */\n      tag_107\n        /* \"contracts/oracle.sol\":908:924  __Ownable_init() */\n      jump\t// in\n    tag_106:\n        /* \"contracts/oracle.sol\":934:961  _setExecutor(_signer, true) */\n      tag_108\n        /* \"contracts/oracle.sol\":947:954  _signer */\n      dup3\n        /* \"contracts/oracle.sol\":956:960  true */\n      0x01\n        /* \"contracts/oracle.sol\":934:946  _setExecutor */\n      tag_68\n        /* \"contracts/oracle.sol\":934:961  _setExecutor(_signer, true) */\n      jump\t// in\n    tag_108:\n      pop\n        /* \"contracts/oracle.sol\":980:987  _signer */\n      dup2\n        /* \"contracts/oracle.sol\":971:977  signer */\n      0x65\n      0x00\n        /* \"contracts/oracle.sol\":971:987  signer = _signer */\n      0x0100\n      exp\n      dup2\n      sload\n      dup2\n      0xffffffffffffffffffffffffffffffffffffffff\n      mul\n      not\n      and\n      swap1\n      dup4\n      0xffffffffffffffffffffffffffffffffffffffff\n      and\n      mul\n      or\n      swap1\n      sstore\n      pop\n        /* \"contracts/oracle.sol\":1009:1011  60 */\n      0x3c\n        /* \"contracts/oracle.sol\":997:1006  timeLimit */\n      0x66\n        /* \"contracts/oracle.sol\":997:1011  timeLimit = 60 */\n      dup2\n      swap1\n      sstore\n      pop\n        /* \"@openzeppelin/contracts-upgradeable/proxy/utils/Initializable.sol\":801:815  isTopLevelCall */\n      dup1\n        /* \"@openzeppelin/contracts-upgradeable/proxy/utils/Initializable.sol\":797:863  if (isTopLevelCall) {... */\n      iszero\n      tag_109\n      jumpi\n        /* \"@openzeppelin/contracts-upgradeable/proxy/utils/Initializable.sol\":847:852  false */\n      0x00\n        /* \"@openzeppelin/contracts-upgradeable/proxy/utils/Initializable.sol\":831:844  _initializing */\n      dup1\n      0x01\n        /* \"@openzeppelin/contracts-upgradeable/proxy/utils/Initializable.sol\":831:852  _initializing = false */\n      0x0100\n      exp\n      dup2\n      sload\n      dup2\n      0xff\n      mul\n      not\n      and\n      swap1\n      dup4\n      iszero\n      iszero\n      mul\n      or\n      swap1\n      sstore\n      pop\n        /* \"@openzeppelin/contracts-upgradeable/proxy/utils/Initializable.sol\":797:863  if (isTopLevelCall) {... */\n    tag_109:\n        /* \"contracts/oracle.sol\":840:1018  function initialize(address _signer) external initializer {... */\n      pop\n      pop\n      jump\t// out\n        /* \"contracts/oracle.sol\":1489:1613  function setTimeLimit(uint256 _val) external onlyOwner returns (bool) {... */\n    tag_54:\n        /* \"contracts/oracle.sol\":1553:1557  bool */\n      0x00\n        /* \"@openzeppelin/contracts-upgradeable/access/OwnableUpgradeable.sol\":1525:1537  _msgSender() */\n      tag_111\n        /* \"@openzeppelin/contracts-upgradeable/access/OwnableUpgradeable.sol\":1525:1535  _msgSender */\n      tag_61\n        /* \"@openzeppelin/contracts-upgradeable/access/OwnableUpgradeable.sol\":1525:1537  _msgSender() */\n      jump\t// in\n    tag_111:\n        /* \"@openzeppelin/contracts-upgradeable/access/OwnableUpgradeable.sol\":1514:1537  owner() == _msgSender() */\n      0xffffffffffffffffffffffffffffffffffffffff\n      and\n        /* \"@openzeppelin/contracts-upgradeable/access/OwnableUpgradeable.sol\":1514:1521  owner() */\n      tag_112\n        /* \"@openzeppelin/contracts-upgradeable/access/OwnableUpgradeable.sol\":1514:1519  owner */\n      tag_42\n        /* \"@openzeppelin/contracts-upgradeable/access/OwnableUpgradeable.sol\":1514:1521  owner() */\n      jump\t// in\n    tag_112:\n        /* \"@openzeppelin/contracts-upgradeable/access/OwnableUpgradeable.sol\":1514:1537  owner() == _msgSender() */\n      0xffffffffffffffffffffffffffffffffffffffff\n      and\n      eq\n        /* \"@openzeppelin/contracts-upgradeable/access/OwnableUpgradeable.sol\":1506:1574  require(owner() == _msgSender(), \"Ownable: caller is not the owner\") */\n      tag_113\n      jumpi\n      mload(0x40)\n      0x08c379a000000000000000000000000000000000000000000000000000000000\n      dup2\n      mstore\n      0x04\n      add\n      tag_114\n      swap1\n      tag_65\n      jump\t// in\n    tag_114:\n      mload(0x40)\n      dup1\n      swap2\n      sub\n      swap1\n      revert\n    tag_113:\n        /* \"contracts/oracle.sol\":1581:1585  _val */\n      dup2\n        /* \"contracts/oracle.sol\":1569:1578  timeLimit */\n      0x66\n        /* \"contracts/oracle.sol\":1569:1585  timeLimit = _val */\n      dup2\n      swap1\n      sstore\n      pop\n        /* \"contracts/oracle.sol\":1602:1606  true */\n      0x01\n        /* \"contracts/oracle.sol\":1595:1606  return true */\n      swap1\n      pop\n        /* \"contracts/oracle.sol\":1489:1613  function setTimeLimit(uint256 _val) external onlyOwner returns (bool) {... */\n      swap2\n      swap1\n      pop\n      jump\t// out\n        /* \"@openzeppelin/contracts-upgradeable/access/OwnableUpgradeable.sol\":2184:2382  function transferOwnership(address newOwner) public virtual onlyOwner {... */\n    tag_58:\n        /* \"@openzeppelin/contracts-upgradeable/access/OwnableUpgradeable.sol\":1525:1537  _msgSender() */\n      tag_117\n        /* \"@openzeppelin/contracts-upgradeable/access/OwnableUpgradeable.sol\":1525:1535  _msgSender */\n      tag_61\n        /* \"@openzeppelin/contracts-upgradeable/access/OwnableUpgradeable.sol\":1525:1537  _msgSender() */\n      jump\t// in\n    tag_117:\n        /* \"@openzeppelin/contracts-upgradeable/access/OwnableUpgradeable.sol\":1514:1537  owner() == _msgSender() */\n      0xffffffffffffffffffffffffffffffffffffffff\n      and\n        /* \"@openzeppelin/contracts-upgradeable/access/OwnableUpgradeable.sol\":1514:1521  owner() */\n      tag_118\n        /* \"@openzeppelin/contracts-upgradeable/access/OwnableUpgradeable.sol\":1514:1519  owner */\n      tag_42\n        /* \"@openzeppelin/contracts-upgradeable/access/OwnableUpgradeable.sol\":1514:1521  owner() */\n      jump\t// in\n    tag_118:\n        /* \"@openzeppelin/contracts-upgradeable/access/OwnableUpgradeable.sol\":1514:1537  owner() == _msgSender() */\n      0xffffffffffffffffffffffffffffffffffffffff\n      and\n      eq\n        /* \"@openzeppelin/contracts-upgradeable/access/OwnableUpgradeable.sol\":1506:1574  require(owner() == _msgSender(), \"Ownable: caller is not the owner\") */\n      tag_119\n      jumpi\n      mload(0x40)\n      0x08c379a000000000000000000000000000000000000000000000000000000000\n      dup2\n      mstore\n      0x04\n      add\n      tag_120\n      swap1\n      tag_65\n      jump\t// in\n    tag_120:\n      mload(0x40)\n      dup1\n      swap2\n      sub\n      swap1\n      revert\n    tag_119:\n        /* \"@openzeppelin/contracts-upgradeable/access/OwnableUpgradeable.sol\":2292:2293  0 */\n      0x00\n        /* \"@openzeppelin/contracts-upgradeable/access/OwnableUpgradeable.sol\":2272:2294  newOwner != address(0) */\n      0xffffffffffffffffffffffffffffffffffffffff\n      and\n        /* \"@openzeppelin/contracts-upgradeable/access/OwnableUpgradeable.sol\":2272:2280  newOwner */\n      dup2\n        /* \"@openzeppelin/contracts-upgradeable/access/OwnableUpgradeable.sol\":2272:2294  newOwner != address(0) */\n      0xffffffffffffffffffffffffffffffffffffffff\n      and\n      eq\n      iszero\n        /* \"@openzeppelin/contracts-upgradeable/access/OwnableUpgradeable.sol\":2264:2337  require(newOwner != address(0), \"Ownable: new owner is the zero address\") */\n      tag_122\n      jumpi\n      mload(0x40)\n      0x08c379a000000000000000000000000000000000000000000000000000000000\n      dup2\n      mstore\n      0x04\n      add\n      tag_123\n      swap1\n      tag_124\n      jump\t// in\n    tag_123:\n      mload(0x40)\n      dup1\n      swap2\n      sub\n      swap1\n      revert\n    tag_122:\n        /* \"@openzeppelin/contracts-upgradeable/access/OwnableUpgradeable.sol\":2347:2375  _transferOwnership(newOwner) */\n      tag_125\n        /* \"@openzeppelin/contracts-upgradeable/access/OwnableUpgradeable.sol\":2366:2374  newOwner */\n      dup2\n        /* \"@openzeppelin/contracts-upgradeable/access/OwnableUpgradeable.sol\":2347:2365  _transferOwnership */\n      tag_82\n        /* \"@openzeppelin/contracts-upgradeable/access/OwnableUpgradeable.sol\":2347:2375  _transferOwnership(newOwner) */\n      jump\t// in\n    tag_125:\n        /* \"@openzeppelin/contracts-upgradeable/access/OwnableUpgradeable.sol\":2184:2382  function transferOwnership(address newOwner) public virtual onlyOwner {... */\n      pop\n      jump\t// out\n        /* \"@openzeppelin/contracts-upgradeable/utils/ContextUpgradeable.sol\":876:972  function _msgSender() internal view virtual returns (address) {... */\n    tag_61:\n        /* \"@openzeppelin/contracts-upgradeable/utils/ContextUpgradeable.sol\":929:936  address */\n      0x00\n        /* \"@openzeppelin/contracts-upgradeable/utils/ContextUpgradeable.sol\":955:965  msg.sender */\n      caller\n        /* \"@openzeppelin/contracts-upgradeable/utils/ContextUpgradeable.sol\":948:965  return msg.sender */\n      swap1\n      pop\n        /* \"@openzeppelin/contracts-upgradeable/utils/ContextUpgradeable.sol\":876:972  function _msgSender() internal view virtual returns (address) {... */\n      swap1\n      jump\t// out\n        /* \"contracts/oracle.sol\":1196:1356  function _setExecutor(address _address, bool _type)... */\n    tag_68:\n        /* \"contracts/oracle.sol\":1282:1286  bool */\n      0x00\n        /* \"contracts/oracle.sol\":1323:1328  _type */\n      dup2\n        /* \"contracts/oracle.sol\":1302:1310  executor */\n      0x67\n        /* \"contracts/oracle.sol\":1302:1320  executor[_address] */\n      0x00\n        /* \"contracts/oracle.sol\":1311:1319  _address */\n      dup6\n        /* \"contracts/oracle.sol\":1302:1320  executor[_address] */\n      0xffffffffffffffffffffffffffffffffffffffff\n      and\n      0xffffffffffffffffffffffffffffffffffffffff\n      and\n      dup2\n      mstore\n      0x20\n      add\n      swap1\n      dup2\n      mstore\n      0x20\n      add\n      0x00\n      keccak256\n      0x00\n        /* \"contracts/oracle.sol\":1302:1328  executor[_address] = _type */\n      0x0100\n      exp\n      dup2\n      sload\n      dup2\n      0xff\n      mul\n      not\n      and\n      swap1\n      dup4\n      iszero\n      iszero\n      mul\n      or\n      swap1\n      sstore\n      pop\n        /* \"contracts/oracle.sol\":1345:1349  true */\n      0x01\n        /* \"contracts/oracle.sol\":1338:1349  return true */\n      swap1\n      pop\n        /* \"contracts/oracle.sol\":1196:1356  function _setExecutor(address _address, bool _type)... */\n      swap3\n      swap2\n      pop\n      pop\n      jump\t// out\n        /* \"@openzeppelin/contracts-upgradeable/access/OwnableUpgradeable.sol\":2536:2723  function _transferOwnership(address newOwner) internal virtual {... */\n    tag_82:\n        /* \"@openzeppelin/contracts-upgradeable/access/OwnableUpgradeable.sol\":2609:2625  address oldOwner */\n      0x00\n        /* \"@openzeppelin/contracts-upgradeable/access/OwnableUpgradeable.sol\":2628:2634  _owner */\n      0x33\n      0x00\n      swap1\n      sload\n      swap1\n      0x0100\n      exp\n      swap1\n      div\n      0xffffffffffffffffffffffffffffffffffffffff\n      and\n        /* \"@openzeppelin/contracts-upgradeable/access/OwnableUpgradeable.sol\":2609:2634  address oldOwner = _owner */\n      swap1\n      pop\n        /* \"@openzeppelin/contracts-upgradeable/access/OwnableUpgradeable.sol\":2653:2661  newOwner */\n      dup2\n        /* \"@openzeppelin/contracts-upgradeable/access/OwnableUpgradeable.sol\":2644:2650  _owner */\n      0x33\n      0x00\n        /* \"@openzeppelin/contracts-upgradeable/access/OwnableUpgradeable.sol\":2644:2661  _owner = newOwner */\n      0x0100\n      exp\n      dup2\n      sload\n      dup2\n      0xffffffffffffffffffffffffffffffffffffffff\n      mul\n      not\n      and\n      swap1\n      dup4\n      0xffffffffffffffffffffffffffffffffffffffff\n      and\n      mul\n      or\n      swap1\n      sstore\n      pop\n        /* \"@openzeppelin/contracts-upgradeable/access/OwnableUpgradeable.sol\":2707:2715  newOwner */\n      dup2\n        /* \"@openzeppelin/contracts-upgradeable/access/OwnableUpgradeable.sol\":2676:2716  OwnershipTransferred(oldOwner, newOwner) */\n      0xffffffffffffffffffffffffffffffffffffffff\n      and\n        /* \"@openzeppelin/contracts-upgradeable/access/OwnableUpgradeable.sol\":2697:2705  oldOwner */\n      dup2\n        /* \"@openzeppelin/contracts-upgradeable/access/OwnableUpgradeable.sol\":2676:2716  OwnershipTransferred(oldOwner, newOwner) */\n      0xffffffffffffffffffffffffffffffffffffffff\n      and\n      0x8be0079c531659141344cd1fd0a4f28419497f9722a3daafe3b4186f6b6457e0\n      mload(0x40)\n      mload(0x40)\n      dup1\n      swap2\n      sub\n      swap1\n      log3\n        /* \"@openzeppelin/contracts-upgradeable/access/OwnableUpgradeable.sol\":2536:2723  function _transferOwnership(address newOwner) internal virtual {... */\n      pop\n      pop\n      jump\t// out\n        /* \"@openzeppelin/contracts/utils/cryptography/ECDSA.sol\":8040:8305  function toEthSignedMessageHash(bytes32 hash) internal pure returns (bytes32) {... */\n    tag_96:\n        /* \"@openzeppelin/contracts/utils/cryptography/ECDSA.sol\":8109:8116  bytes32 */\n      0x00\n        /* \"@openzeppelin/contracts/utils/cryptography/ECDSA.sol\":8292:8296  hash */\n      dup2\n        /* \"@openzeppelin/contracts/utils/cryptography/ECDSA.sol\":8239:8297  abi.encodePacked(\"\\x19Ethereum Signed Message:\\n32\", hash) */\n      add(0x20, mload(0x40))\n      tag_130\n      swap2\n      swap1\n      tag_131\n      jump\t// in\n    tag_130:\n      mload(0x40)\n      0x20\n      dup2\n      dup4\n      sub\n      sub\n      dup2\n      mstore\n      swap1\n      0x40\n      mstore\n        /* \"@openzeppelin/contracts/utils/cryptography/ECDSA.sol\":8229:8298  keccak256(abi.encodePacked(\"\\x19Ethereum Signed Message:\\n32\", hash)) */\n      dup1\n      mload\n      swap1\n      0x20\n      add\n      keccak256\n        /* \"@openzeppelin/contracts/utils/cryptography/ECDSA.sol\":8222:8298  return keccak256(abi.encodePacked(\"\\x19Ethereum Signed Message:\\n32\", hash)) */\n      swap1\n      pop\n        /* \"@openzeppelin/contracts/utils/cryptography/ECDSA.sol\":8040:8305  function toEthSignedMessageHash(bytes32 hash) internal pure returns (bytes32) {... */\n      swap2\n      swap1\n      pop\n      jump\t// out\n        /* \"@openzeppelin/contracts/utils/cryptography/ECDSA.sol\":4293:4520  function recover(bytes32 hash, bytes memory signature) internal pure returns (address) {... */\n    tag_97:\n        /* \"@openzeppelin/contracts/utils/cryptography/ECDSA.sol\":4371:4378  address */\n      0x00\n        /* \"@openzeppelin/contracts/utils/cryptography/ECDSA.sol\":4391:4408  address recovered */\n      dup1\n        /* \"@openzeppelin/contracts/utils/cryptography/ECDSA.sol\":4410:4428  RecoverError error */\n      0x00\n        /* \"@openzeppelin/contracts/utils/cryptography/ECDSA.sol\":4432:4459  tryRecover(hash, signature) */\n      tag_133\n        /* \"@openzeppelin/contracts/utils/cryptography/ECDSA.sol\":4443:4447  hash */\n      dup6\n        /* \"@openzeppelin/contracts/utils/cryptography/ECDSA.sol\":4449:4458  signature */\n      dup6\n        /* \"@openzeppelin/contracts/utils/cryptography/ECDSA.sol\":4432:4442  tryRecover */\n      tag_134\n        /* \"@openzeppelin/contracts/utils/cryptography/ECDSA.sol\":4432:4459  tryRecover(hash, signature) */\n      jump\t// in\n    tag_133:\n        /* \"@openzeppelin/contracts/utils/cryptography/ECDSA.sol\":4390:4459  (address recovered, RecoverError error) = tryRecover(hash, signature) */\n      swap2\n      pop\n      swap2\n      pop\n        /* \"@openzeppelin/contracts/utils/cryptography/ECDSA.sol\":4469:4487  _throwError(error) */\n      tag_135\n        /* \"@openzeppelin/contracts/utils/cryptography/ECDSA.sol\":4481:4486  error */\n      dup2\n        /* \"@openzeppelin/contracts/utils/cryptography/ECDSA.sol\":4469:4480  _throwError */\n      tag_136\n        /* \"@openzeppelin/contracts/utils/cryptography/ECDSA.sol\":4469:4487  _throwError(error) */\n      jump\t// in\n    tag_135:\n        /* \"@openzeppelin/contracts/utils/cryptography/ECDSA.sol\":4504:4513  recovered */\n      dup2\n        /* \"@openzeppelin/contracts/utils/cryptography/ECDSA.sol\":4497:4513  return recovered */\n      swap3\n      pop\n      pop\n      pop\n        /* \"@openzeppelin/contracts/utils/cryptography/ECDSA.sol\":4293:4520  function recover(bytes32 hash, bytes memory signature) internal pure returns (address) {... */\n      swap3\n      swap2\n      pop\n      pop\n      jump\t// out\n        /* \"@openzeppelin/contracts-upgradeable/access/OwnableUpgradeable.sol\":988:1114  function __Ownable_init() internal initializer {... */\n    tag_107:\n        /* \"@openzeppelin/contracts-upgradeable/proxy/utils/Initializable.sol\":539:552  _initializing */\n      0x00\n      0x01\n      swap1\n      sload\n      swap1\n      0x0100\n      exp\n      swap1\n      div\n      0xff\n      and\n        /* \"@openzeppelin/contracts-upgradeable/proxy/utils/Initializable.sol\":539:569  _initializing || !_initialized */\n      dup1\n      tag_138\n      jumpi\n      pop\n        /* \"@openzeppelin/contracts-upgradeable/proxy/utils/Initializable.sol\":557:569  _initialized */\n      0x00\n      dup1\n      sload\n      swap1\n      0x0100\n      exp\n      swap1\n      div\n      0xff\n      and\n        /* \"@openzeppelin/contracts-upgradeable/proxy/utils/Initializable.sol\":556:569  !_initialized */\n      iszero\n        /* \"@openzeppelin/contracts-upgradeable/proxy/utils/Initializable.sol\":539:569  _initializing || !_initialized */\n    tag_138:\n        /* \"@openzeppelin/contracts-upgradeable/proxy/utils/Initializable.sol\":531:620  require(_initializing || !_initialized, \"Initializable: contract is already initialized\") */\n      tag_139\n      jumpi\n      mload(0x40)\n      0x08c379a000000000000000000000000000000000000000000000000000000000\n      dup2\n      mstore\n      0x04\n      add\n      tag_140\n      swap1\n      tag_103\n      jump\t// in\n    tag_140:\n      mload(0x40)\n      dup1\n      swap2\n      sub\n      swap1\n      revert\n    tag_139:\n        /* \"@openzeppelin/contracts-upgradeable/proxy/utils/Initializable.sol\":631:650  bool isTopLevelCall */\n      0x00\n        /* \"@openzeppelin/contracts-upgradeable/proxy/utils/Initializable.sol\":654:667  _initializing */\n      dup1\n      0x01\n      swap1\n      sload\n      swap1\n      0x0100\n      exp\n      swap1\n      div\n      0xff\n      and\n        /* \"@openzeppelin/contracts-upgradeable/proxy/utils/Initializable.sol\":653:667  !_initializing */\n      iszero\n        /* \"@openzeppelin/contracts-upgradeable/proxy/utils/Initializable.sol\":631:667  bool isTopLevelCall = !_initializing */\n      swap1\n      pop\n        /* \"@openzeppelin/contracts-upgradeable/proxy/utils/Initializable.sol\":681:695  isTopLevelCall */\n      dup1\n        /* \"@openzeppelin/contracts-upgradeable/proxy/utils/Initializable.sol\":677:775  if (isTopLevelCall) {... */\n      iszero\n      tag_141\n      jumpi\n        /* \"@openzeppelin/contracts-upgradeable/proxy/utils/Initializable.sol\":727:731  true */\n      0x01\n        /* \"@openzeppelin/contracts-upgradeable/proxy/utils/Initializable.sol\":711:724  _initializing */\n      0x00\n      0x01\n        /* \"@openzeppelin/contracts-upgradeable/proxy/utils/Initializable.sol\":711:731  _initializing = true */\n      0x0100\n      exp\n      dup2\n      sload\n      dup2\n      0xff\n      mul\n      not\n      and\n      swap1\n      dup4\n      iszero\n      iszero\n      mul\n      or\n      swap1\n      sstore\n      pop\n        /* \"@openzeppelin/contracts-upgradeable/proxy/utils/Initializable.sol\":760:764  true */\n      0x01\n        /* \"@openzeppelin/contracts-upgradeable/proxy/utils/Initializable.sol\":745:757  _initialized */\n      0x00\n      dup1\n        /* \"@openzeppelin/contracts-upgradeable/proxy/utils/Initializable.sol\":745:764  _initialized = true */\n      0x0100\n      exp\n      dup2\n      sload\n      dup2\n      0xff\n      mul\n      not\n      and\n      swap1\n      dup4\n      iszero\n      iszero\n      mul\n      or\n      swap1\n      sstore\n      pop\n        /* \"@openzeppelin/contracts-upgradeable/proxy/utils/Initializable.sol\":677:775  if (isTopLevelCall) {... */\n    tag_141:\n        /* \"@openzeppelin/contracts-upgradeable/access/OwnableUpgradeable.sol\":1045:1071  __Context_init_unchained() */\n      tag_143\n        /* \"@openzeppelin/contracts-upgradeable/access/OwnableUpgradeable.sol\":1045:1069  __Context_init_unchained */\n      tag_144\n        /* \"@openzeppelin/contracts-upgradeable/access/OwnableUpgradeable.sol\":1045:1071  __Context_init_unchained() */\n      jump\t// in\n    tag_143:\n        /* \"@openzeppelin/contracts-upgradeable/access/OwnableUpgradeable.sol\":1081:1107  __Ownable_init_unchained() */\n      tag_145\n        /* \"@openzeppelin/contracts-upgradeable/access/OwnableUpgradeable.sol\":1081:1105  __Ownable_init_unchained */\n      tag_146\n        /* \"@openzeppelin/contracts-upgradeable/access/OwnableUpgradeable.sol\":1081:1107  __Ownable_init_unchained() */\n      jump\t// in\n    tag_145:\n        /* \"@openzeppelin/contracts-upgradeable/proxy/utils/Initializable.sol\":801:815  isTopLevelCall */\n      dup1\n        /* \"@openzeppelin/contracts-upgradeable/proxy/utils/Initializable.sol\":797:863  if (isTopLevelCall) {... */\n      iszero\n      tag_147\n      jumpi\n        /* \"@openzeppelin/contracts-upgradeable/proxy/utils/Initializable.sol\":847:852  false */\n      0x00\n        /* \"@openzeppelin/contracts-upgradeable/proxy/utils/Initializable.sol\":831:844  _initializing */\n      dup1\n      0x01\n        /* \"@openzeppelin/contracts-upgradeable/proxy/utils/Initializable.sol\":831:852  _initializing = false */\n      0x0100\n      exp\n      dup2\n      sload\n      dup2\n      0xff\n      mul\n      not\n      and\n      swap1\n      dup4\n      iszero\n      iszero\n      mul\n      or\n      swap1\n      sstore\n      pop\n        /* \"@openzeppelin/contracts-upgradeable/proxy/utils/Initializable.sol\":797:863  if (isTopLevelCall) {... */\n    tag_147:\n        /* \"@openzeppelin/contracts-upgradeable/access/OwnableUpgradeable.sol\":988:1114  function __Ownable_init() internal initializer {... */\n      pop\n      jump\t// out\n        /* \"@openzeppelin/contracts/utils/cryptography/ECDSA.sol\":2228:3507  function tryRecover(bytes32 hash, bytes memory signature) internal pure returns (address, RecoverError) {... */\n    tag_134:\n        /* \"@openzeppelin/contracts/utils/cryptography/ECDSA.sol\":2309:2316  address */\n      0x00\n        /* \"@openzeppelin/contracts/utils/cryptography/ECDSA.sol\":2318:2330  RecoverError */\n      dup1\n        /* \"@openzeppelin/contracts/utils/cryptography/ECDSA.sol\":2559:2561  65 */\n      0x41\n        /* \"@openzeppelin/contracts/utils/cryptography/ECDSA.sol\":2539:2548  signature */\n      dup4\n        /* \"@openzeppelin/contracts/utils/cryptography/ECDSA.sol\":2539:2555  signature.length */\n      mload\n        /* \"@openzeppelin/contracts/utils/cryptography/ECDSA.sol\":2539:2561  signature.length == 65 */\n      eq\n        /* \"@openzeppelin/contracts/utils/cryptography/ECDSA.sol\":2535:3501  if (signature.length == 65) {... */\n      iszero\n      tag_149\n      jumpi\n        /* \"@openzeppelin/contracts/utils/cryptography/ECDSA.sol\":2577:2586  bytes32 r */\n      0x00\n        /* \"@openzeppelin/contracts/utils/cryptography/ECDSA.sol\":2600:2609  bytes32 s */\n      dup1\n        /* \"@openzeppelin/contracts/utils/cryptography/ECDSA.sol\":2623:2630  uint8 v */\n      0x00\n        /* \"@openzeppelin/contracts/utils/cryptography/ECDSA.sol\":2828:2832  0x20 */\n      0x20\n        /* \"@openzeppelin/contracts/utils/cryptography/ECDSA.sol\":2817:2826  signature */\n      dup7\n        /* \"@openzeppelin/contracts/utils/cryptography/ECDSA.sol\":2813:2833  add(signature, 0x20) */\n      add\n        /* \"@openzeppelin/contracts/utils/cryptography/ECDSA.sol\":2807:2834  mload(add(signature, 0x20)) */\n      mload\n        /* \"@openzeppelin/contracts/utils/cryptography/ECDSA.sol\":2802:2834  r := mload(add(signature, 0x20)) */\n      swap3\n      pop\n        /* \"@openzeppelin/contracts/utils/cryptography/ECDSA.sol\":2877:2881  0x40 */\n      0x40\n        /* \"@openzeppelin/contracts/utils/cryptography/ECDSA.sol\":2866:2875  signature */\n      dup7\n        /* \"@openzeppelin/contracts/utils/cryptography/ECDSA.sol\":2862:2882  add(signature, 0x40) */\n      add\n        /* \"@openzeppelin/contracts/utils/cryptography/ECDSA.sol\":2856:2883  mload(add(signature, 0x40)) */\n      mload\n        /* \"@openzeppelin/contracts/utils/cryptography/ECDSA.sol\":2851:2883  s := mload(add(signature, 0x40)) */\n      swap2\n      pop\n        /* \"@openzeppelin/contracts/utils/cryptography/ECDSA.sol\":2934:2938  0x60 */\n      0x60\n        /* \"@openzeppelin/contracts/utils/cryptography/ECDSA.sol\":2923:2932  signature */\n      dup7\n        /* \"@openzeppelin/contracts/utils/cryptography/ECDSA.sol\":2919:2939  add(signature, 0x60) */\n      add\n        /* \"@openzeppelin/contracts/utils/cryptography/ECDSA.sol\":2913:2940  mload(add(signature, 0x60)) */\n      mload\n        /* \"@openzeppelin/contracts/utils/cryptography/ECDSA.sol\":2910:2911  0 */\n      0x00\n        /* \"@openzeppelin/contracts/utils/cryptography/ECDSA.sol\":2905:2941  byte(0, mload(add(signature, 0x60))) */\n      byte\n        /* \"@openzeppelin/contracts/utils/cryptography/ECDSA.sol\":2900:2941  v := byte(0, mload(add(signature, 0x60))) */\n      swap1\n      pop\n        /* \"@openzeppelin/contracts/utils/cryptography/ECDSA.sol\":2975:3000  tryRecover(hash, v, r, s) */\n      tag_150\n        /* \"@openzeppelin/contracts/utils/cryptography/ECDSA.sol\":2986:2990  hash */\n      dup8\n        /* \"@openzeppelin/contracts/utils/cryptography/ECDSA.sol\":2992:2993  v */\n      dup3\n        /* \"@openzeppelin/contracts/utils/cryptography/ECDSA.sol\":2995:2996  r */\n      dup6\n        /* \"@openzeppelin/contracts/utils/cryptography/ECDSA.sol\":2998:2999  s */\n      dup6\n        /* \"@openzeppelin/contracts/utils/cryptography/ECDSA.sol\":2975:2985  tryRecover */\n      tag_151\n        /* \"@openzeppelin/contracts/utils/cryptography/ECDSA.sol\":2975:3000  tryRecover(hash, v, r, s) */\n      jump\t// in\n    tag_150:\n        /* \"@openzeppelin/contracts/utils/cryptography/ECDSA.sol\":2968:3000  return tryRecover(hash, v, r, s) */\n      swap5\n      pop\n      swap5\n      pop\n      pop\n      pop\n      pop\n      jump(tag_148)\n        /* \"@openzeppelin/contracts/utils/cryptography/ECDSA.sol\":2535:3501  if (signature.length == 65) {... */\n    tag_149:\n        /* \"@openzeppelin/contracts/utils/cryptography/ECDSA.sol\":3041:3043  64 */\n      0x40\n        /* \"@openzeppelin/contracts/utils/cryptography/ECDSA.sol\":3021:3030  signature */\n      dup4\n        /* \"@openzeppelin/contracts/utils/cryptography/ECDSA.sol\":3021:3037  signature.length */\n      mload\n        /* \"@openzeppelin/contracts/utils/cryptography/ECDSA.sol\":3021:3043  signature.length == 64 */\n      eq\n        /* \"@openzeppelin/contracts/utils/cryptography/ECDSA.sol\":3017:3501  if (signature.length == 64) {... */\n      iszero\n      tag_153\n      jumpi\n        /* \"@openzeppelin/contracts/utils/cryptography/ECDSA.sol\":3059:3068  bytes32 r */\n      0x00\n        /* \"@openzeppelin/contracts/utils/cryptography/ECDSA.sol\":3082:3092  bytes32 vs */\n      dup1\n        /* \"@openzeppelin/contracts/utils/cryptography/ECDSA.sol\":3290:3294  0x20 */\n      0x20\n        /* \"@openzeppelin/contracts/utils/cryptography/ECDSA.sol\":3279:3288  signature */\n      dup6\n        /* \"@openzeppelin/contracts/utils/cryptography/ECDSA.sol\":3275:3295  add(signature, 0x20) */\n      add\n        /* \"@openzeppelin/contracts/utils/cryptography/ECDSA.sol\":3269:3296  mload(add(signature, 0x20)) */\n      mload\n        /* \"@openzeppelin/contracts/utils/cryptography/ECDSA.sol\":3264:3296  r := mload(add(signature, 0x20)) */\n      swap2\n      pop\n        /* \"@openzeppelin/contracts/utils/cryptography/ECDSA.sol\":3340:3344  0x40 */\n      0x40\n        /* \"@openzeppelin/contracts/utils/cryptography/ECDSA.sol\":3329:3338  signature */\n      dup6\n        /* \"@openzeppelin/contracts/utils/cryptography/ECDSA.sol\":3325:3345  add(signature, 0x40) */\n      add\n        /* \"@openzeppelin/contracts/utils/cryptography/ECDSA.sol\":3319:3346  mload(add(signature, 0x40)) */\n      mload\n        /* \"@openzeppelin/contracts/utils/cryptography/ECDSA.sol\":3313:3346  vs := mload(add(signature, 0x40)) */\n      swap1\n      pop\n        /* \"@openzeppelin/contracts/utils/cryptography/ECDSA.sol\":3380:3403  tryRecover(hash, r, vs) */\n      tag_154\n        /* \"@openzeppelin/contracts/utils/cryptography/ECDSA.sol\":3391:3395  hash */\n      dup7\n        /* \"@openzeppelin/contracts/utils/cryptography/ECDSA.sol\":3397:3398  r */\n      dup4\n        /* \"@openzeppelin/contracts/utils/cryptography/ECDSA.sol\":3400:3402  vs */\n      dup4\n        /* \"@openzeppelin/contracts/utils/cryptography/ECDSA.sol\":3380:3390  tryRecover */\n      tag_155\n        /* \"@openzeppelin/contracts/utils/cryptography/ECDSA.sol\":3380:3403  tryRecover(hash, r, vs) */\n      jump\t// in\n    tag_154:\n        /* \"@openzeppelin/contracts/utils/cryptography/ECDSA.sol\":3373:3403  return tryRecover(hash, r, vs) */\n      swap4\n      pop\n      swap4\n      pop\n      pop\n      pop\n      jump(tag_148)\n        /* \"@openzeppelin/contracts/utils/cryptography/ECDSA.sol\":3017:3501  if (signature.length == 64) {... */\n    tag_153:\n        /* \"@openzeppelin/contracts/utils/cryptography/ECDSA.sol\":3450:3451  0 */\n      0x00\n        /* \"@openzeppelin/contracts/utils/cryptography/ECDSA.sol\":3454:3489  RecoverError.InvalidSignatureLength */\n      0x02\n        /* \"@openzeppelin/contracts/utils/cryptography/ECDSA.sol\":3434:3490  return (address(0), RecoverError.InvalidSignatureLength) */\n      swap2\n      pop\n      swap2\n      pop\n        /* \"@openzeppelin/contracts/utils/cryptography/ECDSA.sol\":2228:3507  function tryRecover(bytes32 hash, bytes memory signature) internal pure returns (address, RecoverError) {... */\n    tag_148:\n      swap3\n      pop\n      swap3\n      swap1\n      pop\n      jump\t// out\n        /* \"@openzeppelin/contracts/utils/cryptography/ECDSA.sol\":533:1164  function _throwError(RecoverError error) private pure {... */\n    tag_136:\n        /* \"@openzeppelin/contracts/utils/cryptography/ECDSA.sol\":610:630  RecoverError.NoError */\n      0x00\n        /* \"@openzeppelin/contracts/utils/cryptography/ECDSA.sol\":601:630  error == RecoverError.NoError */\n      0x04\n      dup2\n      gt\n      iszero\n      tag_158\n      jumpi\n      mstore(0x00, 0x4e487b7100000000000000000000000000000000000000000000000000000000)\n      mstore(0x04, 0x21)\n      revert(0x00, 0x24)\n    tag_158:\n        /* \"@openzeppelin/contracts/utils/cryptography/ECDSA.sol\":601:606  error */\n      dup2\n        /* \"@openzeppelin/contracts/utils/cryptography/ECDSA.sol\":601:630  error == RecoverError.NoError */\n      0x04\n      dup2\n      gt\n      iszero\n      tag_159\n      jumpi\n      mstore(0x00, 0x4e487b7100000000000000000000000000000000000000000000000000000000)\n      mstore(0x04, 0x21)\n      revert(0x00, 0x24)\n    tag_159:\n      eq\n        /* \"@openzeppelin/contracts/utils/cryptography/ECDSA.sol\":597:1158  if (error == RecoverError.NoError) {... */\n      iszero\n      tag_160\n      jumpi\n        /* \"@openzeppelin/contracts/utils/cryptography/ECDSA.sol\":646:653  return; */\n      jump(tag_157)\n        /* \"@openzeppelin/contracts/utils/cryptography/ECDSA.sol\":597:1158  if (error == RecoverError.NoError) {... */\n    tag_160:\n        /* \"@openzeppelin/contracts/utils/cryptography/ECDSA.sol\":706:735  RecoverError.InvalidSignature */\n      0x01\n        /* \"@openzeppelin/contracts/utils/cryptography/ECDSA.sol\":697:735  error == RecoverError.InvalidSignature */\n      0x04\n      dup2\n      gt\n      iszero\n      tag_162\n      jumpi\n      mstore(0x00, 0x4e487b7100000000000000000000000000000000000000000000000000000000)\n      mstore(0x04, 0x21)\n      revert(0x00, 0x24)\n    tag_162:\n        /* \"@openzeppelin/contracts/utils/cryptography/ECDSA.sol\":697:702  error */\n      dup2\n        /* \"@openzeppelin/contracts/utils/cryptography/ECDSA.sol\":697:735  error == RecoverError.InvalidSignature */\n      0x04\n      dup2\n      gt\n      iszero\n      tag_163\n      jumpi\n      mstore(0x00, 0x4e487b7100000000000000000000000000000000000000000000000000000000)\n      mstore(0x04, 0x21)\n      revert(0x00, 0x24)\n    tag_163:\n      eq\n        /* \"@openzeppelin/contracts/utils/cryptography/ECDSA.sol\":693:1158  if (error == RecoverError.InvalidSignature) {... */\n      iszero\n      tag_164\n      jumpi\n        /* \"@openzeppelin/contracts/utils/cryptography/ECDSA.sol\":751:785  revert(\"ECDSA: invalid signature\") */\n      mload(0x40)\n      0x08c379a000000000000000000000000000000000000000000000000000000000\n      dup2\n      mstore\n      0x04\n      add\n      tag_165\n      swap1\n      tag_166\n      jump\t// in\n    tag_165:\n      mload(0x40)\n      dup1\n      swap2\n      sub\n      swap1\n      revert\n        /* \"@openzeppelin/contracts/utils/cryptography/ECDSA.sol\":693:1158  if (error == RecoverError.InvalidSignature) {... */\n    tag_164:\n        /* \"@openzeppelin/contracts/utils/cryptography/ECDSA.sol\":815:850  RecoverError.InvalidSignatureLength */\n      0x02\n        /* \"@openzeppelin/contracts/utils/cryptography/ECDSA.sol\":806:850  error == RecoverError.InvalidSignatureLength */\n      0x04\n      dup2\n      gt\n      iszero\n      tag_168\n      jumpi\n      mstore(0x00, 0x4e487b7100000000000000000000000000000000000000000000000000000000)\n      mstore(0x04, 0x21)\n      revert(0x00, 0x24)\n    tag_168:\n        /* \"@openzeppelin/contracts/utils/cryptography/ECDSA.sol\":806:811  error */\n      dup2\n        /* \"@openzeppelin/contracts/utils/cryptography/ECDSA.sol\":806:850  error == RecoverError.InvalidSignatureLength */\n      0x04\n      dup2\n      gt\n      iszero\n      tag_169\n      jumpi\n      mstore(0x00, 0x4e487b7100000000000000000000000000000000000000000000000000000000)\n      mstore(0x04, 0x21)\n      revert(0x00, 0x24)\n    tag_169:\n      eq\n        /* \"@openzeppelin/contracts/utils/cryptography/ECDSA.sol\":802:1158  if (error == RecoverError.InvalidSignatureLength) {... */\n      iszero\n      tag_170\n      jumpi\n        /* \"@openzeppelin/contracts/utils/cryptography/ECDSA.sol\":866:907  revert(\"ECDSA: invalid signature length\") */\n      mload(0x40)\n      0x08c379a000000000000000000000000000000000000000000000000000000000\n      dup2\n      mstore\n      0x04\n      add\n      tag_171\n      swap1\n      tag_172\n      jump\t// in\n    tag_171:\n      mload(0x40)\n      dup1\n      swap2\n      sub\n      swap1\n      revert\n        /* \"@openzeppelin/contracts/utils/cryptography/ECDSA.sol\":802:1158  if (error == RecoverError.InvalidSignatureLength) {... */\n    tag_170:\n        /* \"@openzeppelin/contracts/utils/cryptography/ECDSA.sol\":937:967  RecoverError.InvalidSignatureS */\n      0x03\n        /* \"@openzeppelin/contracts/utils/cryptography/ECDSA.sol\":928:967  error == RecoverError.InvalidSignatureS */\n      0x04\n      dup2\n      gt\n      iszero\n      tag_174\n      jumpi\n      mstore(0x00, 0x4e487b7100000000000000000000000000000000000000000000000000000000)\n      mstore(0x04, 0x21)\n      revert(0x00, 0x24)\n    tag_174:\n        /* \"@openzeppelin/contracts/utils/cryptography/ECDSA.sol\":928:933  error */\n      dup2\n        /* \"@openzeppelin/contracts/utils/cryptography/ECDSA.sol\":928:967  error == RecoverError.InvalidSignatureS */\n      0x04\n      dup2\n      gt\n      iszero\n      tag_175\n      jumpi\n      mstore(0x00, 0x4e487b7100000000000000000000000000000000000000000000000000000000)\n      mstore(0x04, 0x21)\n      revert(0x00, 0x24)\n    tag_175:\n      eq\n        /* \"@openzeppelin/contracts/utils/cryptography/ECDSA.sol\":924:1158  if (error == RecoverError.InvalidSignatureS) {... */\n      iszero\n      tag_176\n      jumpi\n        /* \"@openzeppelin/contracts/utils/cryptography/ECDSA.sol\":983:1027  revert(\"ECDSA: invalid signature 's' value\") */\n      mload(0x40)\n      0x08c379a000000000000000000000000000000000000000000000000000000000\n      dup2\n      mstore\n      0x04\n      add\n      tag_177\n      swap1\n      tag_178\n      jump\t// in\n    tag_177:\n      mload(0x40)\n      dup1\n      swap2\n      sub\n      swap1\n      revert\n        /* \"@openzeppelin/contracts/utils/cryptography/ECDSA.sol\":924:1158  if (error == RecoverError.InvalidSignatureS) {... */\n    tag_176:\n        /* \"@openzeppelin/contracts/utils/cryptography/ECDSA.sol\":1057:1087  RecoverError.InvalidSignatureV */\n      0x04\n        /* \"@openzeppelin/contracts/utils/cryptography/ECDSA.sol\":1048:1087  error == RecoverError.InvalidSignatureV */\n      dup1\n      dup2\n      gt\n      iszero\n      tag_180\n      jumpi\n      mstore(0x00, 0x4e487b7100000000000000000000000000000000000000000000000000000000)\n      mstore(0x04, 0x21)\n      revert(0x00, 0x24)\n    tag_180:\n        /* \"@openzeppelin/contracts/utils/cryptography/ECDSA.sol\":1048:1053  error */\n      dup2\n        /* \"@openzeppelin/contracts/utils/cryptography/ECDSA.sol\":1048:1087  error == RecoverError.InvalidSignatureV */\n      0x04\n      dup2\n      gt\n      iszero\n      tag_181\n      jumpi\n      mstore(0x00, 0x4e487b7100000000000000000000000000000000000000000000000000000000)\n      mstore(0x04, 0x21)\n      revert(0x00, 0x24)\n    tag_181:\n      eq\n        /* \"@openzeppelin/contracts/utils/cryptography/ECDSA.sol\":1044:1158  if (error == RecoverError.InvalidSignatureV) {... */\n      iszero\n      tag_182\n      jumpi\n        /* \"@openzeppelin/contracts/utils/cryptography/ECDSA.sol\":1103:1147  revert(\"ECDSA: invalid signature 'v' value\") */\n      mload(0x40)\n      0x08c379a000000000000000000000000000000000000000000000000000000000\n      dup2\n      mstore\n      0x04\n      add\n      tag_183\n      swap1\n      tag_184\n      jump\t// in\n    tag_183:\n      mload(0x40)\n      dup1\n      swap2\n      sub\n      swap1\n      revert\n        /* \"@openzeppelin/contracts/utils/cryptography/ECDSA.sol\":1044:1158  if (error == RecoverError.InvalidSignatureV) {... */\n    tag_182:\n        /* \"@openzeppelin/contracts/utils/cryptography/ECDSA.sol\":533:1164  function _throwError(RecoverError error) private pure {... */\n    tag_157:\n      pop\n      jump\t// out\n        /* \"@openzeppelin/contracts-upgradeable/utils/ContextUpgradeable.sol\":807:871  function __Context_init_unchained() internal initializer {... */\n    tag_144:\n        /* \"@openzeppelin/contracts-upgradeable/proxy/utils/Initializable.sol\":539:552  _initializing */\n      0x00\n      0x01\n      swap1\n      sload\n      swap1\n      0x0100\n      exp\n      swap1\n      div\n      0xff\n      and\n        /* \"@openzeppelin/contracts-upgradeable/proxy/utils/Initializable.sol\":539:569  _initializing || !_initialized */\n      dup1\n      tag_186\n      jumpi\n      pop\n        /* \"@openzeppelin/contracts-upgradeable/proxy/utils/Initializable.sol\":557:569  _initialized */\n      0x00\n      dup1\n      sload\n      swap1\n      0x0100\n      exp\n      swap1\n      div\n      0xff\n      and\n        /* \"@openzeppelin/contracts-upgradeable/proxy/utils/Initializable.sol\":556:569  !_initialized */\n      iszero\n        /* \"@openzeppelin/contracts-upgradeable/proxy/utils/Initializable.sol\":539:569  _initializing || !_initialized */\n    tag_186:\n        /* \"@openzeppelin/contracts-upgradeable/proxy/utils/Initializable.sol\":531:620  require(_initializing || !_initialized, \"Initializable: contract is already initialized\") */\n      tag_187\n      jumpi\n      mload(0x40)\n      0x08c379a000000000000000000000000000000000000000000000000000000000\n      dup2\n      mstore\n      0x04\n      add\n      tag_188\n      swap1\n      tag_103\n      jump\t// in\n    tag_188:\n      mload(0x40)\n      dup1\n      swap2\n      sub\n      swap1\n      revert\n    tag_187:\n        /* \"@openzeppelin/contracts-upgradeable/proxy/utils/Initializable.sol\":631:650  bool isTopLevelCall */\n      0x00\n        /* \"@openzeppelin/contracts-upgradeable/proxy/utils/Initializable.sol\":654:667  _initializing */\n      dup1\n      0x01\n      swap1\n      sload\n      swap1\n      0x0100\n      exp\n      swap1\n      div\n      0xff\n      and\n        /* \"@openzeppelin/contracts-upgradeable/proxy/utils/Initializable.sol\":653:667  !_initializing */\n      iszero\n        /* \"@openzeppelin/contracts-upgradeable/proxy/utils/Initializable.sol\":631:667  bool isTopLevelCall = !_initializing */\n      swap1\n      pop\n        /* \"@openzeppelin/contracts-upgradeable/proxy/utils/Initializable.sol\":681:695  isTopLevelCall */\n      dup1\n        /* \"@openzeppelin/contracts-upgradeable/proxy/utils/Initializable.sol\":677:775  if (isTopLevelCall) {... */\n      iszero\n      tag_189\n      jumpi\n        /* \"@openzeppelin/contracts-upgradeable/proxy/utils/Initializable.sol\":727:731  true */\n      0x01\n        /* \"@openzeppelin/contracts-upgradeable/proxy/utils/Initializable.sol\":711:724  _initializing */\n      0x00\n      0x01\n        /* \"@openzeppelin/contracts-upgradeable/proxy/utils/Initializable.sol\":711:731  _initializing = true */\n      0x0100\n      exp\n      dup2\n      sload\n      dup2\n      0xff\n      mul\n      not\n      and\n      swap1\n      dup4\n      iszero\n      iszero\n      mul\n      or\n      swap1\n      sstore\n      pop\n        /* \"@openzeppelin/contracts-upgradeable/proxy/utils/Initializable.sol\":760:764  true */\n      0x01\n        /* \"@openzeppelin/contracts-upgradeable/proxy/utils/Initializable.sol\":745:757  _initialized */\n      0x00\n      dup1\n        /* \"@openzeppelin/contracts-upgradeable/proxy/utils/Initializable.sol\":745:764  _initialized = true */\n      0x0100\n      exp\n      dup2\n      sload\n      dup2\n      0xff\n      mul\n      not\n      and\n      swap1\n      dup4\n      iszero\n      iszero\n      mul\n      or\n      swap1\n      sstore\n      pop\n        /* \"@openzeppelin/contracts-upgradeable/proxy/utils/Initializable.sol\":677:775  if (isTopLevelCall) {... */\n    tag_189:\n        /* \"@openzeppelin/contracts-upgradeable/proxy/utils/Initializable.sol\":801:815  isTopLevelCall */\n      dup1\n        /* \"@openzeppelin/contracts-upgradeable/proxy/utils/Initializable.sol\":797:863  if (isTopLevelCall) {... */\n      iszero\n      tag_191\n      jumpi\n        /* \"@openzeppelin/contracts-upgradeable/proxy/utils/Initializable.sol\":847:852  false */\n      0x00\n        /* \"@openzeppelin/contracts-upgradeable/proxy/utils/Initializable.sol\":831:844  _initializing */\n      dup1\n      0x01\n        /* \"@openzeppelin/contracts-upgradeable/proxy/utils/Initializable.sol\":831:852  _initializing = false */\n      0x0100\n      exp\n      dup2\n      sload\n      dup2\n      0xff\n      mul\n      not\n      and\n      swap1\n      dup4\n      iszero\n      iszero\n      mul\n      or\n      swap1\n      sstore\n      pop\n        /* \"@openzeppelin/contracts-upgradeable/proxy/utils/Initializable.sol\":797:863  if (isTopLevelCall) {... */\n    tag_191:\n        /* \"@openzeppelin/contracts-upgradeable/utils/ContextUpgradeable.sol\":807:871  function __Context_init_unchained() internal initializer {... */\n      pop\n      jump\t// out\n        /* \"@openzeppelin/contracts-upgradeable/access/OwnableUpgradeable.sol\":1120:1226  function __Ownable_init_unchained() internal initializer {... */\n    tag_146:\n        /* \"@openzeppelin/contracts-upgradeable/proxy/utils/Initializable.sol\":539:552  _initializing */\n      0x00\n      0x01\n      swap1\n      sload\n      swap1\n      0x0100\n      exp\n      swap1\n      div\n      0xff\n      and\n        /* \"@openzeppelin/contracts-upgradeable/proxy/utils/Initializable.sol\":539:569  _initializing || !_initialized */\n      dup1\n      tag_193\n      jumpi\n      pop\n        /* \"@openzeppelin/contracts-upgradeable/proxy/utils/Initializable.sol\":557:569  _initialized */\n      0x00\n      dup1\n      sload\n      swap1\n      0x0100\n      exp\n      swap1\n      div\n      0xff\n      and\n        /* \"@openzeppelin/contracts-upgradeable/proxy/utils/Initializable.sol\":556:569  !_initialized */\n      iszero\n        /* \"@openzeppelin/contracts-upgradeable/proxy/utils/Initializable.sol\":539:569  _initializing || !_initialized */\n    tag_193:\n        /* \"@openzeppelin/contracts-upgradeable/proxy/utils/Initializable.sol\":531:620  require(_initializing || !_initialized, \"Initializable: contract is already initialized\") */\n      tag_194\n      jumpi\n      mload(0x40)\n      0x08c379a000000000000000000000000000000000000000000000000000000000\n      dup2\n      mstore\n      0x04\n      add\n      tag_195\n      swap1\n      tag_103\n      jump\t// in\n    tag_195:\n      mload(0x40)\n      dup1\n      swap2\n      sub\n      swap1\n      revert\n    tag_194:\n        /* \"@openzeppelin/contracts-upgradeable/proxy/utils/Initializable.sol\":631:650  bool isTopLevelCall */\n      0x00\n        /* \"@openzeppelin/contracts-upgradeable/proxy/utils/Initializable.sol\":654:667  _initializing */\n      dup1\n      0x01\n      swap1\n      sload\n      swap1\n      0x0100\n      exp\n      swap1\n      div\n      0xff\n      and\n        /* \"@openzeppelin/contracts-upgradeable/proxy/utils/Initializable.sol\":653:667  !_initializing */\n      iszero\n        /* \"@openzeppelin/contracts-upgradeable/proxy/utils/Initializable.sol\":631:667  bool isTopLevelCall = !_initializing */\n      swap1\n      pop\n        /* \"@openzeppelin/contracts-upgradeable/proxy/utils/Initializable.sol\":681:695  isTopLevelCall */\n      dup1\n        /* \"@openzeppelin/contracts-upgradeable/proxy/utils/Initializable.sol\":677:775  if (isTopLevelCall) {... */\n      iszero\n      tag_196\n      jumpi\n        /* \"@openzeppelin/contracts-upgradeable/proxy/utils/Initializable.sol\":727:731  true */\n      0x01\n        /* \"@openzeppelin/contracts-upgradeable/proxy/utils/Initializable.sol\":711:724  _initializing */\n      0x00\n      0x01\n        /* \"@openzeppelin/contracts-upgradeable/proxy/utils/Initializable.sol\":711:731  _initializing = true */\n      0x0100\n      exp\n      dup2\n      sload\n      dup2\n      0xff\n      mul\n      not\n      and\n      swap1\n      dup4\n      iszero\n      iszero\n      mul\n      or\n      swap1\n      sstore\n      pop\n        /* \"@openzeppelin/contracts-upgradeable/proxy/utils/Initializable.sol\":760:764  true */\n      0x01\n        /* \"@openzeppelin/contracts-upgradeable/proxy/utils/Initializable.sol\":745:757  _initialized */\n      0x00\n      dup1\n        /* \"@openzeppelin/contracts-upgradeable/proxy/utils/Initializable.sol\":745:764  _initialized = true */\n      0x0100\n      exp\n      dup2\n      sload\n      dup2\n      0xff\n      mul\n      not\n      and\n      swap1\n      dup4\n      iszero\n      iszero\n      mul\n      or\n      swap1\n      sstore\n      pop\n        /* \"@openzeppelin/contracts-upgradeable/proxy/utils/Initializable.sol\":677:775  if (isTopLevelCall) {... */\n    tag_196:\n        /* \"@openzeppelin/contracts-upgradeable/access/OwnableUpgradeable.sol\":1187:1219  _transferOwnership(_msgSender()) */\n      tag_198\n        /* \"@openzeppelin/contracts-upgradeable/access/OwnableUpgradeable.sol\":1206:1218  _msgSender() */\n      tag_199\n        /* \"@openzeppelin/contracts-upgradeable/access/OwnableUpgradeable.sol\":1206:1216  _msgSender */\n      tag_61\n        /* \"@openzeppelin/contracts-upgradeable/access/OwnableUpgradeable.sol\":1206:1218  _msgSender() */\n      jump\t// in\n    tag_199:\n        /* \"@openzeppelin/contracts-upgradeable/access/OwnableUpgradeable.sol\":1187:1205  _transferOwnership */\n      tag_82\n        /* \"@openzeppelin/contracts-upgradeable/access/OwnableUpgradeable.sol\":1187:1219  _transferOwnership(_msgSender()) */\n      jump\t// in\n    tag_198:\n        /* \"@openzeppelin/contracts-upgradeable/proxy/utils/Initializable.sol\":801:815  isTopLevelCall */\n      dup1\n        /* \"@openzeppelin/contracts-upgradeable/proxy/utils/Initializable.sol\":797:863  if (isTopLevelCall) {... */\n      iszero\n      tag_200\n      jumpi\n        /* \"@openzeppelin/contracts-upgradeable/proxy/utils/Initializable.sol\":847:852  false */\n      0x00\n        /* \"@openzeppelin/contracts-upgradeable/proxy/utils/Initializable.sol\":831:844  _initializing */\n      dup1\n      0x01\n        /* \"@openzeppelin/contracts-upgradeable/proxy/utils/Initializable.sol\":831:852  _initializing = false */\n      0x0100\n      exp\n      dup2\n      sload\n      dup2\n      0xff\n      mul\n      not\n      and\n      swap1\n      dup4\n      iszero\n      iszero\n      mul\n      or\n      swap1\n      sstore\n      pop\n        /* \"@openzeppelin/contracts-upgradeable/proxy/utils/Initializable.sol\":797:863  if (isTopLevelCall) {... */\n    tag_200:\n        /* \"@openzeppelin/contracts-upgradeable/access/OwnableUpgradeable.sol\":1120:1226  function __Ownable_init_unchained() internal initializer {... */\n      pop\n      jump\t// out\n        /* \"@openzeppelin/contracts/utils/cryptography/ECDSA.sol\":5744:7347  function tryRecover(... */\n    tag_151:\n        /* \"@openzeppelin/contracts/utils/cryptography/ECDSA.sol\":5870:5877  address */\n      0x00\n        /* \"@openzeppelin/contracts/utils/cryptography/ECDSA.sol\":5879:5891  RecoverError */\n      dup1\n        /* \"@openzeppelin/contracts/utils/cryptography/ECDSA.sol\":6794:6860  0x7FFFFFFFFFFFFFFFFFFFFFFFFFFFFFFF5D576E7357A4501DDFE92F46681B20A0 */\n      0x7fffffffffffffffffffffffffffffff5d576e7357a4501ddfe92f46681b20a0\n        /* \"@openzeppelin/contracts/utils/cryptography/ECDSA.sol\":6789:6790  s */\n      dup4\n        /* \"@openzeppelin/contracts/utils/cryptography/ECDSA.sol\":6781:6791  uint256(s) */\n      0x00\n      shr\n        /* \"@openzeppelin/contracts/utils/cryptography/ECDSA.sol\":6781:6860  uint256(s) > 0x7FFFFFFFFFFFFFFFFFFFFFFFFFFFFFFF5D576E7357A4501DDFE92F46681B20A0 */\n      gt\n        /* \"@openzeppelin/contracts/utils/cryptography/ECDSA.sol\":6777:6938  if (uint256(s) > 0x7FFFFFFFFFFFFFFFFFFFFFFFFFFFFFFF5D576E7357A4501DDFE92F46681B20A0) {... */\n      iszero\n      tag_202\n      jumpi\n        /* \"@openzeppelin/contracts/utils/cryptography/ECDSA.sol\":6892:6893  0 */\n      0x00\n        /* \"@openzeppelin/contracts/utils/cryptography/ECDSA.sol\":6896:6926  RecoverError.InvalidSignatureS */\n      0x03\n        /* \"@openzeppelin/contracts/utils/cryptography/ECDSA.sol\":6876:6927  return (address(0), RecoverError.InvalidSignatureS) */\n      swap2\n      pop\n      swap2\n      pop\n      jump(tag_201)\n        /* \"@openzeppelin/contracts/utils/cryptography/ECDSA.sol\":6777:6938  if (uint256(s) > 0x7FFFFFFFFFFFFFFFFFFFFFFFFFFFFFFF5D576E7357A4501DDFE92F46681B20A0) {... */\n    tag_202:\n        /* \"@openzeppelin/contracts/utils/cryptography/ECDSA.sol\":6956:6958  27 */\n      0x1b\n        /* \"@openzeppelin/contracts/utils/cryptography/ECDSA.sol\":6951:6952  v */\n      dup6\n        /* \"@openzeppelin/contracts/utils/cryptography/ECDSA.sol\":6951:6958  v != 27 */\n      0xff\n      and\n      eq\n      iszero\n        /* \"@openzeppelin/contracts/utils/cryptography/ECDSA.sol\":6951:6969  v != 27 && v != 28 */\n      dup1\n      iszero\n      tag_203\n      jumpi\n      pop\n        /* \"@openzeppelin/contracts/utils/cryptography/ECDSA.sol\":6967:6969  28 */\n      0x1c\n        /* \"@openzeppelin/contracts/utils/cryptography/ECDSA.sol\":6962:6963  v */\n      dup6\n        /* \"@openzeppelin/contracts/utils/cryptography/ECDSA.sol\":6962:6969  v != 28 */\n      0xff\n      and\n      eq\n      iszero\n        /* \"@openzeppelin/contracts/utils/cryptography/ECDSA.sol\":6951:6969  v != 27 && v != 28 */\n    tag_203:\n        /* \"@openzeppelin/contracts/utils/cryptography/ECDSA.sol\":6947:7047  if (v != 27 && v != 28) {... */\n      iszero\n      tag_204\n      jumpi\n        /* \"@openzeppelin/contracts/utils/cryptography/ECDSA.sol\":7001:7002  0 */\n      0x00\n        /* \"@openzeppelin/contracts/utils/cryptography/ECDSA.sol\":7005:7035  RecoverError.InvalidSignatureV */\n      0x04\n        /* \"@openzeppelin/contracts/utils/cryptography/ECDSA.sol\":6985:7036  return (address(0), RecoverError.InvalidSignatureV) */\n      swap2\n      pop\n      swap2\n      pop\n      jump(tag_201)\n        /* \"@openzeppelin/contracts/utils/cryptography/ECDSA.sol\":6947:7047  if (v != 27 && v != 28) {... */\n    tag_204:\n        /* \"@openzeppelin/contracts/utils/cryptography/ECDSA.sol\":7141:7155  address signer */\n      0x00\n        /* \"@openzeppelin/contracts/utils/cryptography/ECDSA.sol\":7158:7182  ecrecover(hash, v, r, s) */\n      0x01\n        /* \"@openzeppelin/contracts/utils/cryptography/ECDSA.sol\":7168:7172  hash */\n      dup8\n        /* \"@openzeppelin/contracts/utils/cryptography/ECDSA.sol\":7174:7175  v */\n      dup8\n        /* \"@openzeppelin/contracts/utils/cryptography/ECDSA.sol\":7177:7178  r */\n      dup8\n        /* \"@openzeppelin/contracts/utils/cryptography/ECDSA.sol\":7180:7181  s */\n      dup8\n        /* \"@openzeppelin/contracts/utils/cryptography/ECDSA.sol\":7158:7182  ecrecover(hash, v, r, s) */\n      mload(0x40)\n      0x00\n      dup2\n      mstore\n      0x20\n      add\n      0x40\n      mstore\n      mload(0x40)\n      tag_205\n      swap5\n      swap4\n      swap3\n      swap2\n      swap1\n      tag_206\n      jump\t// in\n    tag_205:\n      0x20\n      mload(0x40)\n      0x20\n      dup2\n      sub\n      swap1\n      dup1\n      dup5\n      sub\n      swap1\n      dup6\n      gas\n      staticcall\n      iszero\n      dup1\n      iszero\n      tag_208\n      jumpi\n      returndatasize\n      0x00\n      dup1\n      returndatacopy\n      revert(0x00, returndatasize)\n    tag_208:\n      pop\n      pop\n      pop\n      mload(sub(mload(0x40), 0x20))\n        /* \"@openzeppelin/contracts/utils/cryptography/ECDSA.sol\":7141:7182  address signer = ecrecover(hash, v, r, s) */\n      swap1\n      pop\n        /* \"@openzeppelin/contracts/utils/cryptography/ECDSA.sol\":7214:7215  0 */\n      0x00\n        /* \"@openzeppelin/contracts/utils/cryptography/ECDSA.sol\":7196:7216  signer == address(0) */\n      0xffffffffffffffffffffffffffffffffffffffff\n      and\n        /* \"@openzeppelin/contracts/utils/cryptography/ECDSA.sol\":7196:7202  signer */\n      dup2\n        /* \"@openzeppelin/contracts/utils/cryptography/ECDSA.sol\":7196:7216  signer == address(0) */\n      0xffffffffffffffffffffffffffffffffffffffff\n      and\n      eq\n        /* \"@openzeppelin/contracts/utils/cryptography/ECDSA.sol\":7192:7293  if (signer == address(0)) {... */\n      iszero\n      tag_209\n      jumpi\n        /* \"@openzeppelin/contracts/utils/cryptography/ECDSA.sol\":7248:7249  0 */\n      0x00\n        /* \"@openzeppelin/contracts/utils/cryptography/ECDSA.sol\":7252:7281  RecoverError.InvalidSignature */\n      0x01\n        /* \"@openzeppelin/contracts/utils/cryptography/ECDSA.sol\":7232:7282  return (address(0), RecoverError.InvalidSignature) */\n      swap3\n      pop\n      swap3\n      pop\n      pop\n      jump(tag_201)\n        /* \"@openzeppelin/contracts/utils/cryptography/ECDSA.sol\":7192:7293  if (signer == address(0)) {... */\n    tag_209:\n        /* \"@openzeppelin/contracts/utils/cryptography/ECDSA.sol\":7311:7317  signer */\n      dup1\n        /* \"@openzeppelin/contracts/utils/cryptography/ECDSA.sol\":7319:7339  RecoverError.NoError */\n      0x00\n        /* \"@openzeppelin/contracts/utils/cryptography/ECDSA.sol\":7303:7340  return (signer, RecoverError.NoError) */\n      swap3\n      pop\n      swap3\n      pop\n      pop\n        /* \"@openzeppelin/contracts/utils/cryptography/ECDSA.sol\":5744:7347  function tryRecover(... */\n    tag_201:\n      swap5\n      pop\n      swap5\n      swap3\n      pop\n      pop\n      pop\n      jump\t// out\n        /* \"@openzeppelin/contracts/utils/cryptography/ECDSA.sol\":4774:5153  function tryRecover(... */\n    tag_155:\n        /* \"@openzeppelin/contracts/utils/cryptography/ECDSA.sol\":4884:4891  address */\n      0x00\n        /* \"@openzeppelin/contracts/utils/cryptography/ECDSA.sol\":4893:4905  RecoverError */\n      dup1\n        /* \"@openzeppelin/contracts/utils/cryptography/ECDSA.sol\":4917:4926  bytes32 s */\n      0x00\n        /* \"@openzeppelin/contracts/utils/cryptography/ECDSA.sol\":4936:4943  uint8 v */\n      dup1\n        /* \"@openzeppelin/contracts/utils/cryptography/ECDSA.sol\":4989:5055  0x7fffffffffffffffffffffffffffffffffffffffffffffffffffffffffffffff */\n      0x7fffffffffffffffffffffffffffffffffffffffffffffffffffffffffffffff\n        /* \"@openzeppelin/contracts/utils/cryptography/ECDSA.sol\":4985:4987  vs */\n      dup6\n        /* \"@openzeppelin/contracts/utils/cryptography/ECDSA.sol\":4981:5056  and(vs, 0x7fffffffffffffffffffffffffffffffffffffffffffffffffffffffffffffff) */\n      and\n        /* \"@openzeppelin/contracts/utils/cryptography/ECDSA.sol\":4976:5056  s := and(vs, 0x7fffffffffffffffffffffffffffffffffffffffffffffffffffffffffffffff) */\n      swap2\n      pop\n        /* \"@openzeppelin/contracts/utils/cryptography/ECDSA.sol\":5092:5094  27 */\n      0x1b\n        /* \"@openzeppelin/contracts/utils/cryptography/ECDSA.sol\":5087:5089  vs */\n      dup6\n        /* \"@openzeppelin/contracts/utils/cryptography/ECDSA.sol\":5082:5085  255 */\n      0xff\n        /* \"@openzeppelin/contracts/utils/cryptography/ECDSA.sol\":5078:5090  shr(255, vs) */\n      shr\n        /* \"@openzeppelin/contracts/utils/cryptography/ECDSA.sol\":5074:5095  add(shr(255, vs), 27) */\n      add\n        /* \"@openzeppelin/contracts/utils/cryptography/ECDSA.sol\":5069:5095  v := add(shr(255, vs), 27) */\n      swap1\n      pop\n        /* \"@openzeppelin/contracts/utils/cryptography/ECDSA.sol\":5121:5146  tryRecover(hash, v, r, s) */\n      tag_211\n        /* \"@openzeppelin/contracts/utils/cryptography/ECDSA.sol\":5132:5136  hash */\n      dup8\n        /* \"@openzeppelin/contracts/utils/cryptography/ECDSA.sol\":5138:5139  v */\n      dup3\n        /* \"@openzeppelin/contracts/utils/cryptography/ECDSA.sol\":5141:5142  r */\n      dup9\n        /* \"@openzeppelin/contracts/utils/cryptography/ECDSA.sol\":5144:5145  s */\n      dup6\n        /* \"@openzeppelin/contracts/utils/cryptography/ECDSA.sol\":5121:5131  tryRecover */\n      tag_151\n        /* \"@openzeppelin/contracts/utils/cryptography/ECDSA.sol\":5121:5146  tryRecover(hash, v, r, s) */\n      jump\t// in\n    tag_211:\n        /* \"@openzeppelin/contracts/utils/cryptography/ECDSA.sol\":5114:5146  return tryRecover(hash, v, r, s) */\n      swap4\n      pop\n      swap4\n      pop\n      pop\n      pop\n        /* \"@openzeppelin/contracts/utils/cryptography/ECDSA.sol\":4774:5153  function tryRecover(... */\n      swap4\n      pop\n      swap4\n      swap2\n      pop\n      pop\n      jump\t// out\n        /* \"#utility.yul\":7:349   */\n    tag_213:\n      0x00\n        /* \"#utility.yul\":109:173   */\n      tag_215\n        /* \"#utility.yul\":124:172   */\n      tag_216\n        /* \"#utility.yul\":165:171   */\n      dup5\n        /* \"#utility.yul\":124:172   */\n      tag_217\n      jump\t// in\n    tag_216:\n        /* \"#utility.yul\":109:173   */\n      tag_218\n      jump\t// in\n    tag_215:\n        /* \"#utility.yul\":100:173   */\n      swap1\n      pop\n        /* \"#utility.yul\":196:202   */\n      dup3\n        /* \"#utility.yul\":189:194   */\n      dup2\n        /* \"#utility.yul\":182:203   */\n      mstore\n        /* \"#utility.yul\":234:238   */\n      0x20\n        /* \"#utility.yul\":227:232   */\n      dup2\n        /* \"#utility.yul\":223:239   */\n      add\n        /* \"#utility.yul\":272:275   */\n      dup5\n        /* \"#utility.yul\":263:269   */\n      dup5\n        /* \"#utility.yul\":258:261   */\n      dup5\n        /* \"#utility.yul\":254:270   */\n      add\n        /* \"#utility.yul\":251:276   */\n      gt\n        /* \"#utility.yul\":248:250   */\n      iszero\n      tag_219\n      jumpi\n        /* \"#utility.yul\":289:290   */\n      0x00\n        /* \"#utility.yul\":286:287   */\n      dup1\n        /* \"#utility.yul\":279:291   */\n      revert\n        /* \"#utility.yul\":248:250   */\n    tag_219:\n        /* \"#utility.yul\":302:343   */\n      tag_220\n        /* \"#utility.yul\":336:342   */\n      dup5\n        /* \"#utility.yul\":331:334   */\n      dup3\n        /* \"#utility.yul\":326:329   */\n      dup6\n        /* \"#utility.yul\":302:343   */\n      tag_221\n      jump\t// in\n    tag_220:\n        /* \"#utility.yul\":90:349   */\n      pop\n      swap4\n      swap3\n      pop\n      pop\n      pop\n      jump\t// out\n        /* \"#utility.yul\":355:699   */\n    tag_222:\n      0x00\n        /* \"#utility.yul\":458:523   */\n      tag_224\n        /* \"#utility.yul\":473:522   */\n      tag_225\n        /* \"#utility.yul\":515:521   */\n      dup5\n        /* \"#utility.yul\":473:522   */\n      tag_226\n      jump\t// in\n    tag_225:\n        /* \"#utility.yul\":458:523   */\n      tag_218\n      jump\t// in\n    tag_224:\n        /* \"#utility.yul\":449:523   */\n      swap1\n      pop\n        /* \"#utility.yul\":546:552   */\n      dup3\n        /* \"#utility.yul\":539:544   */\n      dup2\n        /* \"#utility.yul\":532:553   */\n      mstore\n        /* \"#utility.yul\":584:588   */\n      0x20\n        /* \"#utility.yul\":577:582   */\n      dup2\n        /* \"#utility.yul\":573:589   */\n      add\n        /* \"#utility.yul\":622:625   */\n      dup5\n        /* \"#utility.yul\":613:619   */\n      dup5\n        /* \"#utility.yul\":608:611   */\n      dup5\n        /* \"#utility.yul\":604:620   */\n      add\n        /* \"#utility.yul\":601:626   */\n      gt\n        /* \"#utility.yul\":598:600   */\n      iszero\n      tag_227\n      jumpi\n        /* \"#utility.yul\":639:640   */\n      0x00\n        /* \"#utility.yul\":636:637   */\n      dup1\n        /* \"#utility.yul\":629:641   */\n      revert\n        /* \"#utility.yul\":598:600   */\n    tag_227:\n        /* \"#utility.yul\":652:693   */\n      tag_228\n        /* \"#utility.yul\":686:692   */\n      dup5\n        /* \"#utility.yul\":681:684   */\n      dup3\n        /* \"#utility.yul\":676:679   */\n      dup6\n        /* \"#utility.yul\":652:693   */\n      tag_221\n      jump\t// in\n    tag_228:\n        /* \"#utility.yul\":439:699   */\n      pop\n      swap4\n      swap3\n      pop\n      pop\n      pop\n      jump\t// out\n        /* \"#utility.yul\":705:844   */\n    tag_229:\n      0x00\n        /* \"#utility.yul\":789:795   */\n      dup2\n        /* \"#utility.yul\":776:796   */\n      calldataload\n        /* \"#utility.yul\":767:796   */\n      swap1\n      pop\n        /* \"#utility.yul\":805:838   */\n      tag_231\n        /* \"#utility.yul\":832:837   */\n      dup2\n        /* \"#utility.yul\":805:838   */\n      tag_232\n      jump\t// in\n    tag_231:\n        /* \"#utility.yul\":757:844   */\n      swap3\n      swap2\n      pop\n      pop\n      jump\t// out\n        /* \"#utility.yul\":850:983   */\n    tag_233:\n      0x00\n        /* \"#utility.yul\":931:937   */\n      dup2\n        /* \"#utility.yul\":918:938   */\n      calldataload\n        /* \"#utility.yul\":909:938   */\n      swap1\n      pop\n        /* \"#utility.yul\":947:977   */\n      tag_235\n        /* \"#utility.yul\":971:976   */\n      dup2\n        /* \"#utility.yul\":947:977   */\n      tag_236\n      jump\t// in\n    tag_235:\n        /* \"#utility.yul\":899:983   */\n      swap3\n      swap2\n      pop\n      pop\n      jump\t// out\n        /* \"#utility.yul\":1002:1273   */\n    tag_237:\n      0x00\n        /* \"#utility.yul\":1106:1109   */\n      dup3\n        /* \"#utility.yul\":1099:1103   */\n      0x1f\n        /* \"#utility.yul\":1091:1097   */\n      dup4\n        /* \"#utility.yul\":1087:1104   */\n      add\n        /* \"#utility.yul\":1083:1110   */\n      slt\n        /* \"#utility.yul\":1073:1075   */\n      tag_239\n      jumpi\n        /* \"#utility.yul\":1124:1125   */\n      0x00\n        /* \"#utility.yul\":1121:1122   */\n      dup1\n        /* \"#utility.yul\":1114:1126   */\n      revert\n        /* \"#utility.yul\":1073:1075   */\n    tag_239:\n        /* \"#utility.yul\":1164:1170   */\n      dup2\n        /* \"#utility.yul\":1151:1171   */\n      calldataload\n        /* \"#utility.yul\":1189:1267   */\n      tag_240\n        /* \"#utility.yul\":1263:1266   */\n      dup5\n        /* \"#utility.yul\":1255:1261   */\n      dup3\n        /* \"#utility.yul\":1248:1252   */\n      0x20\n        /* \"#utility.yul\":1240:1246   */\n      dup7\n        /* \"#utility.yul\":1236:1253   */\n      add\n        /* \"#utility.yul\":1189:1267   */\n      tag_213\n      jump\t// in\n    tag_240:\n        /* \"#utility.yul\":1180:1267   */\n      swap2\n      pop\n        /* \"#utility.yul\":1063:1273   */\n      pop\n      swap3\n      swap2\n      pop\n      pop\n      jump\t// out\n        /* \"#utility.yul\":1293:1566   */\n    tag_241:\n      0x00\n        /* \"#utility.yul\":1398:1401   */\n      dup3\n        /* \"#utility.yul\":1391:1395   */\n      0x1f\n        /* \"#utility.yul\":1383:1389   */\n      dup4\n        /* \"#utility.yul\":1379:1396   */\n      add\n        /* \"#utility.yul\":1375:1402   */\n      slt\n        /* \"#utility.yul\":1365:1367   */\n      tag_243\n      jumpi\n        /* \"#utility.yul\":1416:1417   */\n      0x00\n        /* \"#utility.yul\":1413:1414   */\n      dup1\n        /* \"#utility.yul\":1406:1418   */\n      revert\n        /* \"#utility.yul\":1365:1367   */\n    tag_243:\n        /* \"#utility.yul\":1456:1462   */\n      dup2\n        /* \"#utility.yul\":1443:1463   */\n      calldataload\n        /* \"#utility.yul\":1481:1560   */\n      tag_244\n        /* \"#utility.yul\":1556:1559   */\n      dup5\n        /* \"#utility.yul\":1548:1554   */\n      dup3\n        /* \"#utility.yul\":1541:1545   */\n      0x20\n        /* \"#utility.yul\":1533:1539   */\n      dup7\n        /* \"#utility.yul\":1529:1546   */\n      add\n        /* \"#utility.yul\":1481:1560   */\n      tag_222\n      jump\t// in\n    tag_244:\n        /* \"#utility.yul\":1472:1560   */\n      swap2\n      pop\n        /* \"#utility.yul\":1355:1566   */\n      pop\n      swap3\n      swap2\n      pop\n      pop\n      jump\t// out\n        /* \"#utility.yul\":1572:1711   */\n    tag_245:\n      0x00\n        /* \"#utility.yul\":1656:1662   */\n      dup2\n        /* \"#utility.yul\":1643:1663   */\n      calldataload\n        /* \"#utility.yul\":1634:1663   */\n      swap1\n      pop\n        /* \"#utility.yul\":1672:1705   */\n      tag_247\n        /* \"#utility.yul\":1699:1704   */\n      dup2\n        /* \"#utility.yul\":1672:1705   */\n      tag_248\n      jump\t// in\n    tag_247:\n        /* \"#utility.yul\":1624:1711   */\n      swap3\n      swap2\n      pop\n      pop\n      jump\t// out\n        /* \"#utility.yul\":1717:1979   */\n    tag_27:\n      0x00\n        /* \"#utility.yul\":1825:1827   */\n      0x20\n        /* \"#utility.yul\":1813:1822   */\n      dup3\n        /* \"#utility.yul\":1804:1811   */\n      dup5\n        /* \"#utility.yul\":1800:1823   */\n      sub\n        /* \"#utility.yul\":1796:1828   */\n      slt\n        /* \"#utility.yul\":1793:1795   */\n      iszero\n      tag_250\n      jumpi\n        /* \"#utility.yul\":1841:1842   */\n      0x00\n        /* \"#utility.yul\":1838:1839   */\n      dup1\n        /* \"#utility.yul\":1831:1843   */\n      revert\n        /* \"#utility.yul\":1793:1795   */\n    tag_250:\n        /* \"#utility.yul\":1884:1885   */\n      0x00\n        /* \"#utility.yul\":1909:1962   */\n      tag_251\n        /* \"#utility.yul\":1954:1961   */\n      dup5\n        /* \"#utility.yul\":1945:1951   */\n      dup3\n        /* \"#utility.yul\":1934:1943   */\n      dup6\n        /* \"#utility.yul\":1930:1952   */\n      add\n        /* \"#utility.yul\":1909:1962   */\n      tag_229\n      jump\t// in\n    tag_251:\n        /* \"#utility.yul\":1899:1962   */\n      swap2\n      pop\n        /* \"#utility.yul\":1855:1972   */\n      pop\n        /* \"#utility.yul\":1783:1979   */\n      swap3\n      swap2\n      pop\n      pop\n      jump\t// out\n        /* \"#utility.yul\":1985:2386   */\n    tag_17:\n      0x00\n      dup1\n        /* \"#utility.yul\":2107:2109   */\n      0x40\n        /* \"#utility.yul\":2095:2104   */\n      dup4\n        /* \"#utility.yul\":2086:2093   */\n      dup6\n        /* \"#utility.yul\":2082:2105   */\n      sub\n        /* \"#utility.yul\":2078:2110   */\n      slt\n        /* \"#utility.yul\":2075:2077   */\n      iszero\n      tag_253\n      jumpi\n        /* \"#utility.yul\":2123:2124   */\n      0x00\n        /* \"#utility.yul\":2120:2121   */\n      dup1\n        /* \"#utility.yul\":2113:2125   */\n      revert\n        /* \"#utility.yul\":2075:2077   */\n    tag_253:\n        /* \"#utility.yul\":2166:2167   */\n      0x00\n        /* \"#utility.yul\":2191:2244   */\n      tag_254\n        /* \"#utility.yul\":2236:2243   */\n      dup6\n        /* \"#utility.yul\":2227:2233   */\n      dup3\n        /* \"#utility.yul\":2216:2225   */\n      dup7\n        /* \"#utility.yul\":2212:2234   */\n      add\n        /* \"#utility.yul\":2191:2244   */\n      tag_229\n      jump\t// in\n    tag_254:\n        /* \"#utility.yul\":2181:2244   */\n      swap3\n      pop\n        /* \"#utility.yul\":2137:2254   */\n      pop\n        /* \"#utility.yul\":2293:2295   */\n      0x20\n        /* \"#utility.yul\":2319:2369   */\n      tag_255\n        /* \"#utility.yul\":2361:2368   */\n      dup6\n        /* \"#utility.yul\":2352:2358   */\n      dup3\n        /* \"#utility.yul\":2341:2350   */\n      dup7\n        /* \"#utility.yul\":2337:2359   */\n      add\n        /* \"#utility.yul\":2319:2369   */\n      tag_233\n      jump\t// in\n    tag_255:\n        /* \"#utility.yul\":2309:2369   */\n      swap2\n      pop\n        /* \"#utility.yul\":2264:2379   */\n      pop\n        /* \"#utility.yul\":2065:2386   */\n      swap3\n      pop\n      swap3\n      swap1\n      pop\n      jump\t// out\n        /* \"#utility.yul\":2392:2654   */\n    tag_53:\n      0x00\n        /* \"#utility.yul\":2500:2502   */\n      0x20\n        /* \"#utility.yul\":2488:2497   */\n      dup3\n        /* \"#utility.yul\":2479:2486   */\n      dup5\n        /* \"#utility.yul\":2475:2498   */\n      sub\n        /* \"#utility.yul\":2471:2503   */\n      slt\n        /* \"#utility.yul\":2468:2470   */\n      iszero\n      tag_257\n      jumpi\n        /* \"#utility.yul\":2516:2517   */\n      0x00\n        /* \"#utility.yul\":2513:2514   */\n      dup1\n        /* \"#utility.yul\":2506:2518   */\n      revert\n        /* \"#utility.yul\":2468:2470   */\n    tag_257:\n        /* \"#utility.yul\":2559:2560   */\n      0x00\n        /* \"#utility.yul\":2584:2637   */\n      tag_258\n        /* \"#utility.yul\":2629:2636   */\n      dup5\n        /* \"#utility.yul\":2620:2626   */\n      dup3\n        /* \"#utility.yul\":2609:2618   */\n      dup6\n        /* \"#utility.yul\":2605:2627   */\n      add\n        /* \"#utility.yul\":2584:2637   */\n      tag_245\n      jump\t// in\n    tag_258:\n        /* \"#utility.yul\":2574:2637   */\n      swap2\n      pop\n        /* \"#utility.yul\":2530:2647   */\n      pop\n        /* \"#utility.yul\":2458:2654   */\n      swap3\n      swap2\n      pop\n      pop\n      jump\t// out\n        /* \"#utility.yul\":2660:3582   */\n    tag_38:\n      0x00\n      dup1\n      0x00\n      dup1\n        /* \"#utility.yul\":2838:2841   */\n      0x80\n        /* \"#utility.yul\":2826:2835   */\n      dup6\n        /* \"#utility.yul\":2817:2824   */\n      dup8\n        /* \"#utility.yul\":2813:2836   */\n      sub\n        /* \"#utility.yul\":2809:2842   */\n      slt\n        /* \"#utility.yul\":2806:2808   */\n      iszero\n      tag_260\n      jumpi\n        /* \"#utility.yul\":2855:2856   */\n      0x00\n        /* \"#utility.yul\":2852:2853   */\n      dup1\n        /* \"#utility.yul\":2845:2857   */\n      revert\n        /* \"#utility.yul\":2806:2808   */\n    tag_260:\n        /* \"#utility.yul\":2898:2899   */\n      0x00\n        /* \"#utility.yul\":2923:2976   */\n      tag_261\n        /* \"#utility.yul\":2968:2975   */\n      dup8\n        /* \"#utility.yul\":2959:2965   */\n      dup3\n        /* \"#utility.yul\":2948:2957   */\n      dup9\n        /* \"#utility.yul\":2944:2966   */\n      add\n        /* \"#utility.yul\":2923:2976   */\n      tag_245\n      jump\t// in\n    tag_261:\n        /* \"#utility.yul\":2913:2976   */\n      swap5\n      pop\n        /* \"#utility.yul\":2869:2986   */\n      pop\n        /* \"#utility.yul\":3025:3027   */\n      0x20\n        /* \"#utility.yul\":3051:3104   */\n      tag_262\n        /* \"#utility.yul\":3096:3103   */\n      dup8\n        /* \"#utility.yul\":3087:3093   */\n      dup3\n        /* \"#utility.yul\":3076:3085   */\n      dup9\n        /* \"#utility.yul\":3072:3094   */\n      add\n        /* \"#utility.yul\":3051:3104   */\n      tag_245\n      jump\t// in\n    tag_262:\n        /* \"#utility.yul\":3041:3104   */\n      swap4\n      pop\n        /* \"#utility.yul\":2996:3114   */\n      pop\n        /* \"#utility.yul\":3181:3183   */\n      0x40\n        /* \"#utility.yul\":3170:3179   */\n      dup6\n        /* \"#utility.yul\":3166:3184   */\n      add\n        /* \"#utility.yul\":3153:3185   */\n      calldataload\n        /* \"#utility.yul\":3212:3230   */\n      0xffffffffffffffff\n        /* \"#utility.yul\":3204:3210   */\n      dup2\n        /* \"#utility.yul\":3201:3231   */\n      gt\n        /* \"#utility.yul\":3198:3200   */\n      iszero\n      tag_263\n      jumpi\n        /* \"#utility.yul\":3244:3245   */\n      0x00\n        /* \"#utility.yul\":3241:3242   */\n      dup1\n        /* \"#utility.yul\":3234:3246   */\n      revert\n        /* \"#utility.yul\":3198:3200   */\n    tag_263:\n        /* \"#utility.yul\":3272:3335   */\n      tag_264\n        /* \"#utility.yul\":3327:3334   */\n      dup8\n        /* \"#utility.yul\":3318:3324   */\n      dup3\n        /* \"#utility.yul\":3307:3316   */\n      dup9\n        /* \"#utility.yul\":3303:3325   */\n      add\n        /* \"#utility.yul\":3272:3335   */\n      tag_241\n      jump\t// in\n    tag_264:\n        /* \"#utility.yul\":3262:3335   */\n      swap3\n      pop\n        /* \"#utility.yul\":3124:3345   */\n      pop\n        /* \"#utility.yul\":3412:3414   */\n      0x60\n        /* \"#utility.yul\":3401:3410   */\n      dup6\n        /* \"#utility.yul\":3397:3415   */\n      add\n        /* \"#utility.yul\":3384:3416   */\n      calldataload\n        /* \"#utility.yul\":3443:3461   */\n      0xffffffffffffffff\n        /* \"#utility.yul\":3435:3441   */\n      dup2\n        /* \"#utility.yul\":3432:3462   */\n      gt\n        /* \"#utility.yul\":3429:3431   */\n      iszero\n      tag_265\n      jumpi\n        /* \"#utility.yul\":3475:3476   */\n      0x00\n        /* \"#utility.yul\":3472:3473   */\n      dup1\n        /* \"#utility.yul\":3465:3477   */\n      revert\n        /* \"#utility.yul\":3429:3431   */\n    tag_265:\n        /* \"#utility.yul\":3503:3565   */\n      tag_266\n        /* \"#utility.yul\":3557:3564   */\n      dup8\n        /* \"#utility.yul\":3548:3554   */\n      dup3\n        /* \"#utility.yul\":3537:3546   */\n      dup9\n        /* \"#utility.yul\":3533:3555   */\n      add\n        /* \"#utility.yul\":3503:3565   */\n      tag_237\n      jump\t// in\n    tag_266:\n        /* \"#utility.yul\":3493:3565   */\n      swap2\n      pop\n        /* \"#utility.yul\":3355:3575   */\n      pop\n        /* \"#utility.yul\":2796:3582   */\n      swap3\n      swap6\n      swap2\n      swap5\n      pop\n      swap3\n      pop\n      jump\t// out\n        /* \"#utility.yul\":3588:3706   */\n    tag_267:\n        /* \"#utility.yul\":3675:3699   */\n      tag_269\n        /* \"#utility.yul\":3693:3698   */\n      dup2\n        /* \"#utility.yul\":3675:3699   */\n      tag_270\n      jump\t// in\n    tag_269:\n        /* \"#utility.yul\":3670:3673   */\n      dup3\n        /* \"#utility.yul\":3663:3700   */\n      mstore\n        /* \"#utility.yul\":3653:3706   */\n      pop\n      pop\n      jump\t// out\n        /* \"#utility.yul\":3712:3821   */\n    tag_271:\n        /* \"#utility.yul\":3793:3814   */\n      tag_273\n        /* \"#utility.yul\":3808:3813   */\n      dup2\n        /* \"#utility.yul\":3793:3814   */\n      tag_274\n      jump\t// in\n    tag_273:\n        /* \"#utility.yul\":3788:3791   */\n      dup3\n        /* \"#utility.yul\":3781:3815   */\n      mstore\n        /* \"#utility.yul\":3771:3821   */\n      pop\n      pop\n      jump\t// out\n        /* \"#utility.yul\":3827:3945   */\n    tag_275:\n        /* \"#utility.yul\":3914:3938   */\n      tag_277\n        /* \"#utility.yul\":3932:3937   */\n      dup2\n        /* \"#utility.yul\":3914:3938   */\n      tag_278\n      jump\t// in\n    tag_277:\n        /* \"#utility.yul\":3909:3912   */\n      dup3\n        /* \"#utility.yul\":3902:3939   */\n      mstore\n        /* \"#utility.yul\":3892:3945   */\n      pop\n      pop\n      jump\t// out\n        /* \"#utility.yul\":3951:4108   */\n    tag_279:\n        /* \"#utility.yul\":4056:4101   */\n      tag_281\n        /* \"#utility.yul\":4076:4100   */\n      tag_282\n        /* \"#utility.yul\":4094:4099   */\n      dup3\n        /* \"#utility.yul\":4076:4100   */\n      tag_278\n      jump\t// in\n    tag_282:\n        /* \"#utility.yul\":4056:4101   */\n      tag_283\n      jump\t// in\n    tag_281:\n        /* \"#utility.yul\":4051:4054   */\n      dup3\n        /* \"#utility.yul\":4044:4102   */\n      mstore\n        /* \"#utility.yul\":4034:4108   */\n      pop\n      pop\n      jump\t// out\n        /* \"#utility.yul\":4114:4491   */\n    tag_284:\n      0x00\n        /* \"#utility.yul\":4248:4287   */\n      tag_286\n        /* \"#utility.yul\":4281:4286   */\n      dup3\n        /* \"#utility.yul\":4248:4287   */\n      tag_287\n      jump\t// in\n    tag_286:\n        /* \"#utility.yul\":4303:4392   */\n      tag_288\n        /* \"#utility.yul\":4385:4391   */\n      dup2\n        /* \"#utility.yul\":4380:4383   */\n      dup6\n        /* \"#utility.yul\":4303:4392   */\n      tag_289\n      jump\t// in\n    tag_288:\n        /* \"#utility.yul\":4296:4392   */\n      swap4\n      pop\n        /* \"#utility.yul\":4401:4453   */\n      tag_290\n        /* \"#utility.yul\":4446:4452   */\n      dup2\n        /* \"#utility.yul\":4441:4444   */\n      dup6\n        /* \"#utility.yul\":4434:4438   */\n      0x20\n        /* \"#utility.yul\":4427:4432   */\n      dup7\n        /* \"#utility.yul\":4423:4439   */\n      add\n        /* \"#utility.yul\":4401:4453   */\n      tag_291\n      jump\t// in\n    tag_290:\n        /* \"#utility.yul\":4478:4484   */\n      dup1\n        /* \"#utility.yul\":4473:4476   */\n      dup5\n        /* \"#utility.yul\":4469:4485   */\n      add\n        /* \"#utility.yul\":4462:4485   */\n      swap2\n      pop\n        /* \"#utility.yul\":4224:4491   */\n      pop\n      swap3\n      swap2\n      pop\n      pop\n      jump\t// out\n        /* \"#utility.yul\":4497:4819   */\n    tag_292:\n      0x00\n        /* \"#utility.yul\":4660:4727   */\n      tag_294\n        /* \"#utility.yul\":4724:4726   */\n      0x18\n        /* \"#utility.yul\":4719:4722   */\n      dup4\n        /* \"#utility.yul\":4660:4727   */\n      tag_295\n      jump\t// in\n    tag_294:\n        /* \"#utility.yul\":4653:4727   */\n      swap2\n      pop\n        /* \"#utility.yul\":4757:4783   */\n      0x45434453413a20696e76616c6964207369676e61747572650000000000000000\n        /* \"#utility.yul\":4753:4754   */\n      0x00\n        /* \"#utility.yul\":4748:4751   */\n      dup4\n        /* \"#utility.yul\":4744:4755   */\n      add\n        /* \"#utility.yul\":4737:4784   */\n      mstore\n        /* \"#utility.yul\":4810:4812   */\n      0x20\n        /* \"#utility.yul\":4805:4808   */\n      dup3\n        /* \"#utility.yul\":4801:4813   */\n      add\n        /* \"#utility.yul\":4794:4813   */\n      swap1\n      pop\n        /* \"#utility.yul\":4643:4819   */\n      swap2\n      swap1\n      pop\n      jump\t// out\n        /* \"#utility.yul\":4825:5136   */\n    tag_296:\n      0x00\n        /* \"#utility.yul\":4988:5055   */\n      tag_298\n        /* \"#utility.yul\":5052:5054   */\n      0x0d\n        /* \"#utility.yul\":5047:5050   */\n      dup4\n        /* \"#utility.yul\":4988:5055   */\n      tag_295\n      jump\t// in\n    tag_298:\n        /* \"#utility.yul\":4981:5055   */\n      swap2\n      pop\n        /* \"#utility.yul\":5085:5100   */\n      0x74696d657374616d702065727200000000000000000000000000000000000000\n        /* \"#utility.yul\":5081:5082   */\n      0x00\n        /* \"#utility.yul\":5076:5079   */\n      dup4\n        /* \"#utility.yul\":5072:5083   */\n      add\n        /* \"#utility.yul\":5065:5101   */\n      mstore\n        /* \"#utility.yul\":5127:5129   */\n      0x20\n        /* \"#utility.yul\":5122:5125   */\n      dup3\n        /* \"#utility.yul\":5118:5130   */\n      add\n        /* \"#utility.yul\":5111:5130   */\n      swap1\n      pop\n        /* \"#utility.yul\":4971:5136   */\n      swap2\n      swap1\n      pop\n      jump\t// out\n        /* \"#utility.yul\":5142:5471   */\n    tag_299:\n      0x00\n        /* \"#utility.yul\":5305:5372   */\n      tag_301\n        /* \"#utility.yul\":5369:5371   */\n      0x1f\n        /* \"#utility.yul\":5364:5367   */\n      dup4\n        /* \"#utility.yul\":5305:5372   */\n      tag_295\n      jump\t// in\n    tag_301:\n        /* \"#utility.yul\":5298:5372   */\n      swap2\n      pop\n        /* \"#utility.yul\":5402:5435   */\n      0x45434453413a20696e76616c6964207369676e6174757265206c656e67746800\n        /* \"#utility.yul\":5398:5399   */\n      0x00\n        /* \"#utility.yul\":5393:5396   */\n      dup4\n        /* \"#utility.yul\":5389:5400   */\n      add\n        /* \"#utility.yul\":5382:5436   */\n      mstore\n        /* \"#utility.yul\":5462:5464   */\n      0x20\n        /* \"#utility.yul\":5457:5460   */\n      dup3\n        /* \"#utility.yul\":5453:5465   */\n      add\n        /* \"#utility.yul\":5446:5465   */\n      swap1\n      pop\n        /* \"#utility.yul\":5288:5471   */\n      swap2\n      swap1\n      pop\n      jump\t// out\n        /* \"#utility.yul\":5477:5875   */\n    tag_302:\n      0x00\n        /* \"#utility.yul\":5658:5743   */\n      tag_304\n        /* \"#utility.yul\":5740:5742   */\n      0x1c\n        /* \"#utility.yul\":5735:5738   */\n      dup4\n        /* \"#utility.yul\":5658:5743   */\n      tag_289\n      jump\t// in\n    tag_304:\n        /* \"#utility.yul\":5651:5743   */\n      swap2\n      pop\n        /* \"#utility.yul\":5773:5839   */\n      0x19457468657265756d205369676e6564204d6573736167653a0a333200000000\n        /* \"#utility.yul\":5769:5770   */\n      0x00\n        /* \"#utility.yul\":5764:5767   */\n      dup4\n        /* \"#utility.yul\":5760:5771   */\n      add\n        /* \"#utility.yul\":5753:5840   */\n      mstore\n        /* \"#utility.yul\":5866:5868   */\n      0x1c\n        /* \"#utility.yul\":5861:5864   */\n      dup3\n        /* \"#utility.yul\":5857:5869   */\n      add\n        /* \"#utility.yul\":5850:5869   */\n      swap1\n      pop\n        /* \"#utility.yul\":5641:5875   */\n      swap2\n      swap1\n      pop\n      jump\t// out\n        /* \"#utility.yul\":5881:6251   */\n    tag_305:\n      0x00\n        /* \"#utility.yul\":6044:6111   */\n      tag_307\n        /* \"#utility.yul\":6108:6110   */\n      0x26\n        /* \"#utility.yul\":6103:6106   */\n      dup4\n        /* \"#utility.yul\":6044:6111   */\n      tag_295\n      jump\t// in\n    tag_307:\n        /* \"#utility.yul\":6037:6111   */\n      swap2\n      pop\n        /* \"#utility.yul\":6141:6175   */\n      0x4f776e61626c653a206e6577206f776e657220697320746865207a65726f2061\n        /* \"#utility.yul\":6137:6138   */\n      0x00\n        /* \"#utility.yul\":6132:6135   */\n      dup4\n        /* \"#utility.yul\":6128:6139   */\n      add\n        /* \"#utility.yul\":6121:6176   */\n      mstore\n        /* \"#utility.yul\":6207:6215   */\n      0x6464726573730000000000000000000000000000000000000000000000000000\n        /* \"#utility.yul\":6202:6204   */\n      0x20\n        /* \"#utility.yul\":6197:6200   */\n      dup4\n        /* \"#utility.yul\":6193:6205   */\n      add\n        /* \"#utility.yul\":6186:6216   */\n      mstore\n        /* \"#utility.yul\":6242:6244   */\n      0x40\n        /* \"#utility.yul\":6237:6240   */\n      dup3\n        /* \"#utility.yul\":6233:6245   */\n      add\n        /* \"#utility.yul\":6226:6245   */\n      swap1\n      pop\n        /* \"#utility.yul\":6027:6251   */\n      swap2\n      swap1\n      pop\n      jump\t// out\n        /* \"#utility.yul\":6257:6623   */\n    tag_308:\n      0x00\n        /* \"#utility.yul\":6420:6487   */\n      tag_310\n        /* \"#utility.yul\":6484:6486   */\n      0x22\n        /* \"#utility.yul\":6479:6482   */\n      dup4\n        /* \"#utility.yul\":6420:6487   */\n      tag_295\n      jump\t// in\n    tag_310:\n        /* \"#utility.yul\":6413:6487   */\n      swap2\n      pop\n        /* \"#utility.yul\":6517:6551   */\n      0x45434453413a20696e76616c6964207369676e6174757265202773272076616c\n        /* \"#utility.yul\":6513:6514   */\n      0x00\n        /* \"#utility.yul\":6508:6511   */\n      dup4\n        /* \"#utility.yul\":6504:6515   */\n      add\n        /* \"#utility.yul\":6497:6552   */\n      mstore\n        /* \"#utility.yul\":6583:6587   */\n      0x7565000000000000000000000000000000000000000000000000000000000000\n        /* \"#utility.yul\":6578:6580   */\n      0x20\n        /* \"#utility.yul\":6573:6576   */\n      dup4\n        /* \"#utility.yul\":6569:6581   */\n      add\n        /* \"#utility.yul\":6562:6588   */\n      mstore\n        /* \"#utility.yul\":6614:6616   */\n      0x40\n        /* \"#utility.yul\":6609:6612   */\n      dup3\n        /* \"#utility.yul\":6605:6617   */\n      add\n        /* \"#utility.yul\":6598:6617   */\n      swap1\n      pop\n        /* \"#utility.yul\":6403:6623   */\n      swap2\n      swap1\n      pop\n      jump\t// out\n        /* \"#utility.yul\":6629:7007   */\n    tag_311:\n      0x00\n        /* \"#utility.yul\":6792:6859   */\n      tag_313\n        /* \"#utility.yul\":6856:6858   */\n      0x2e\n        /* \"#utility.yul\":6851:6854   */\n      dup4\n        /* \"#utility.yul\":6792:6859   */\n      tag_295\n      jump\t// in\n    tag_313:\n        /* \"#utility.yul\":6785:6859   */\n      swap2\n      pop\n        /* \"#utility.yul\":6889:6923   */\n      0x496e697469616c697a61626c653a20636f6e747261637420697320616c726561\n        /* \"#utility.yul\":6885:6886   */\n      0x00\n        /* \"#utility.yul\":6880:6883   */\n      dup4\n        /* \"#utility.yul\":6876:6887   */\n      add\n        /* \"#utility.yul\":6869:6924   */\n      mstore\n        /* \"#utility.yul\":6955:6971   */\n      0x647920696e697469616c697a6564000000000000000000000000000000000000\n        /* \"#utility.yul\":6950:6952   */\n      0x20\n        /* \"#utility.yul\":6945:6948   */\n      dup4\n        /* \"#utility.yul\":6941:6953   */\n      add\n        /* \"#utility.yul\":6934:6972   */\n      mstore\n        /* \"#utility.yul\":6998:7000   */\n      0x40\n        /* \"#utility.yul\":6993:6996   */\n      dup3\n        /* \"#utility.yul\":6989:7001   */\n      add\n        /* \"#utility.yul\":6982:7001   */\n      swap1\n      pop\n        /* \"#utility.yul\":6775:7007   */\n      swap2\n      swap1\n      pop\n      jump\t// out\n        /* \"#utility.yul\":7013:7323   */\n    tag_314:\n      0x00\n        /* \"#utility.yul\":7176:7243   */\n      tag_316\n        /* \"#utility.yul\":7240:7242   */\n      0x0c\n        /* \"#utility.yul\":7235:7238   */\n      dup4\n        /* \"#utility.yul\":7176:7243   */\n      tag_295\n      jump\t// in\n    tag_316:\n        /* \"#utility.yul\":7169:7243   */\n      swap2\n      pop\n        /* \"#utility.yul\":7273:7287   */\n      0x6578656375746f72206572720000000000000000000000000000000000000000\n        /* \"#utility.yul\":7269:7270   */\n      0x00\n        /* \"#utility.yul\":7264:7267   */\n      dup4\n        /* \"#utility.yul\":7260:7271   */\n      add\n        /* \"#utility.yul\":7253:7288   */\n      mstore\n        /* \"#utility.yul\":7314:7316   */\n      0x20\n        /* \"#utility.yul\":7309:7312   */\n      dup3\n        /* \"#utility.yul\":7305:7317   */\n      add\n        /* \"#utility.yul\":7298:7317   */\n      swap1\n      pop\n        /* \"#utility.yul\":7159:7323   */\n      swap2\n      swap1\n      pop\n      jump\t// out\n        /* \"#utility.yul\":7329:7695   */\n    tag_317:\n      0x00\n        /* \"#utility.yul\":7492:7559   */\n      tag_319\n        /* \"#utility.yul\":7556:7558   */\n      0x22\n        /* \"#utility.yul\":7551:7554   */\n      dup4\n        /* \"#utility.yul\":7492:7559   */\n      tag_295\n      jump\t// in\n    tag_319:\n        /* \"#utility.yul\":7485:7559   */\n      swap2\n      pop\n        /* \"#utility.yul\":7589:7623   */\n      0x45434453413a20696e76616c6964207369676e6174757265202776272076616c\n        /* \"#utility.yul\":7585:7586   */\n      0x00\n        /* \"#utility.yul\":7580:7583   */\n      dup4\n        /* \"#utility.yul\":7576:7587   */\n      add\n        /* \"#utility.yul\":7569:7624   */\n      mstore\n        /* \"#utility.yul\":7655:7659   */\n      0x7565000000000000000000000000000000000000000000000000000000000000\n        /* \"#utility.yul\":7650:7652   */\n      0x20\n        /* \"#utility.yul\":7645:7648   */\n      dup4\n        /* \"#utility.yul\":7641:7653   */\n      add\n        /* \"#utility.yul\":7634:7660   */\n      mstore\n        /* \"#utility.yul\":7686:7688   */\n      0x40\n        /* \"#utility.yul\":7681:7684   */\n      dup3\n        /* \"#utility.yul\":7677:7689   */\n      add\n        /* \"#utility.yul\":7670:7689   */\n      swap1\n      pop\n        /* \"#utility.yul\":7475:7695   */\n      swap2\n      swap1\n      pop\n      jump\t// out\n        /* \"#utility.yul\":7701:8031   */\n    tag_320:\n      0x00\n        /* \"#utility.yul\":7864:7931   */\n      tag_322\n        /* \"#utility.yul\":7928:7930   */\n      0x20\n        /* \"#utility.yul\":7923:7926   */\n      dup4\n        /* \"#utility.yul\":7864:7931   */\n      tag_295\n      jump\t// in\n    tag_322:\n        /* \"#utility.yul\":7857:7931   */\n      swap2\n      pop\n        /* \"#utility.yul\":7961:7995   */\n      0x4f776e61626c653a2063616c6c6572206973206e6f7420746865206f776e6572\n        /* \"#utility.yul\":7957:7958   */\n      0x00\n        /* \"#utility.yul\":7952:7955   */\n      dup4\n        /* \"#utility.yul\":7948:7959   */\n      add\n        /* \"#utility.yul\":7941:7996   */\n      mstore\n        /* \"#utility.yul\":8022:8024   */\n      0x20\n        /* \"#utility.yul\":8017:8020   */\n      dup3\n        /* \"#utility.yul\":8013:8025   */\n      add\n        /* \"#utility.yul\":8006:8025   */\n      swap1\n      pop\n        /* \"#utility.yul\":7847:8031   */\n      swap2\n      swap1\n      pop\n      jump\t// out\n        /* \"#utility.yul\":8037:8155   */\n    tag_323:\n        /* \"#utility.yul\":8124:8148   */\n      tag_325\n        /* \"#utility.yul\":8142:8147   */\n      dup2\n        /* \"#utility.yul\":8124:8148   */\n      tag_326\n      jump\t// in\n    tag_325:\n        /* \"#utility.yul\":8119:8122   */\n      dup3\n        /* \"#utility.yul\":8112:8149   */\n      mstore\n        /* \"#utility.yul\":8102:8155   */\n      pop\n      pop\n      jump\t// out\n        /* \"#utility.yul\":8161:8318   */\n    tag_327:\n        /* \"#utility.yul\":8266:8311   */\n      tag_329\n        /* \"#utility.yul\":8286:8310   */\n      tag_330\n        /* \"#utility.yul\":8304:8309   */\n      dup3\n        /* \"#utility.yul\":8286:8310   */\n      tag_326\n      jump\t// in\n    tag_330:\n        /* \"#utility.yul\":8266:8311   */\n      tag_331\n      jump\t// in\n    tag_329:\n        /* \"#utility.yul\":8261:8264   */\n      dup3\n        /* \"#utility.yul\":8254:8312   */\n      mstore\n        /* \"#utility.yul\":8244:8318   */\n      pop\n      pop\n      jump\t// out\n        /* \"#utility.yul\":8324:8436   */\n    tag_332:\n        /* \"#utility.yul\":8407:8429   */\n      tag_334\n        /* \"#utility.yul\":8423:8428   */\n      dup2\n        /* \"#utility.yul\":8407:8429   */\n      tag_335\n      jump\t// in\n    tag_334:\n        /* \"#utility.yul\":8402:8405   */\n      dup3\n        /* \"#utility.yul\":8395:8430   */\n      mstore\n        /* \"#utility.yul\":8385:8436   */\n      pop\n      pop\n      jump\t// out\n        /* \"#utility.yul\":8442:8964   */\n    tag_131:\n      0x00\n        /* \"#utility.yul\":8677:8825   */\n      tag_337\n        /* \"#utility.yul\":8821:8824   */\n      dup3\n        /* \"#utility.yul\":8677:8825   */\n      tag_302\n      jump\t// in\n    tag_337:\n        /* \"#utility.yul\":8670:8825   */\n      swap2\n      pop\n        /* \"#utility.yul\":8835:8910   */\n      tag_338\n        /* \"#utility.yul\":8906:8909   */\n      dup3\n        /* \"#utility.yul\":8897:8903   */\n      dup5\n        /* \"#utility.yul\":8835:8910   */\n      tag_279\n      jump\t// in\n    tag_338:\n        /* \"#utility.yul\":8935:8937   */\n      0x20\n        /* \"#utility.yul\":8930:8933   */\n      dup3\n        /* \"#utility.yul\":8926:8938   */\n      add\n        /* \"#utility.yul\":8919:8938   */\n      swap2\n      pop\n        /* \"#utility.yul\":8955:8958   */\n      dup2\n        /* \"#utility.yul\":8948:8958   */\n      swap1\n      pop\n        /* \"#utility.yul\":8659:8964   */\n      swap3\n      swap2\n      pop\n      pop\n      jump\t// out\n        /* \"#utility.yul\":8970:9527   */\n    tag_93:\n      0x00\n        /* \"#utility.yul\":9173:9248   */\n      tag_340\n        /* \"#utility.yul\":9244:9247   */\n      dup3\n        /* \"#utility.yul\":9235:9241   */\n      dup7\n        /* \"#utility.yul\":9173:9248   */\n      tag_327\n      jump\t// in\n    tag_340:\n        /* \"#utility.yul\":9273:9275   */\n      0x20\n        /* \"#utility.yul\":9268:9271   */\n      dup3\n        /* \"#utility.yul\":9264:9276   */\n      add\n        /* \"#utility.yul\":9257:9276   */\n      swap2\n      pop\n        /* \"#utility.yul\":9286:9361   */\n      tag_341\n        /* \"#utility.yul\":9357:9360   */\n      dup3\n        /* \"#utility.yul\":9348:9354   */\n      dup6\n        /* \"#utility.yul\":9286:9361   */\n      tag_327\n      jump\t// in\n    tag_341:\n        /* \"#utility.yul\":9386:9388   */\n      0x20\n        /* \"#utility.yul\":9381:9384   */\n      dup3\n        /* \"#utility.yul\":9377:9389   */\n      add\n        /* \"#utility.yul\":9370:9389   */\n      swap2\n      pop\n        /* \"#utility.yul\":9406:9501   */\n      tag_342\n        /* \"#utility.yul\":9497:9500   */\n      dup3\n        /* \"#utility.yul\":9488:9494   */\n      dup5\n        /* \"#utility.yul\":9406:9501   */\n      tag_284\n      jump\t// in\n    tag_342:\n        /* \"#utility.yul\":9399:9501   */\n      swap2\n      pop\n        /* \"#utility.yul\":9518:9521   */\n      dup2\n        /* \"#utility.yul\":9511:9521   */\n      swap1\n      pop\n        /* \"#utility.yul\":9162:9527   */\n      swap5\n      swap4\n      pop\n      pop\n      pop\n      pop\n      jump\t// out\n        /* \"#utility.yul\":9533:9755   */\n    tag_24:\n      0x00\n        /* \"#utility.yul\":9664:9666   */\n      0x20\n        /* \"#utility.yul\":9653:9662   */\n      dup3\n        /* \"#utility.yul\":9649:9667   */\n      add\n        /* \"#utility.yul\":9641:9667   */\n      swap1\n      pop\n        /* \"#utility.yul\":9677:9748   */\n      tag_344\n        /* \"#utility.yul\":9745:9746   */\n      0x00\n        /* \"#utility.yul\":9734:9743   */\n      dup4\n        /* \"#utility.yul\":9730:9747   */\n      add\n        /* \"#utility.yul\":9721:9727   */\n      dup5\n        /* \"#utility.yul\":9677:9748   */\n      tag_267\n      jump\t// in\n    tag_344:\n        /* \"#utility.yul\":9631:9755   */\n      swap3\n      swap2\n      pop\n      pop\n      jump\t// out\n        /* \"#utility.yul\":9761:9971   */\n    tag_20:\n      0x00\n        /* \"#utility.yul\":9886:9888   */\n      0x20\n        /* \"#utility.yul\":9875:9884   */\n      dup3\n        /* \"#utility.yul\":9871:9889   */\n      add\n        /* \"#utility.yul\":9863:9889   */\n      swap1\n      pop\n        /* \"#utility.yul\":9899:9964   */\n      tag_346\n        /* \"#utility.yul\":9961:9962   */\n      0x00\n        /* \"#utility.yul\":9950:9959   */\n      dup4\n        /* \"#utility.yul\":9946:9963   */\n      add\n        /* \"#utility.yul\":9937:9943   */\n      dup5\n        /* \"#utility.yul\":9899:9964   */\n      tag_271\n      jump\t// in\n    tag_346:\n        /* \"#utility.yul\":9853:9971   */\n      swap3\n      swap2\n      pop\n      pop\n      jump\t// out\n        /* \"#utility.yul\":9977:10522   */\n    tag_206:\n      0x00\n        /* \"#utility.yul\":10188:10191   */\n      0x80\n        /* \"#utility.yul\":10177:10186   */\n      dup3\n        /* \"#utility.yul\":10173:10192   */\n      add\n        /* \"#utility.yul\":10165:10192   */\n      swap1\n      pop\n        /* \"#utility.yul\":10202:10273   */\n      tag_348\n        /* \"#utility.yul\":10270:10271   */\n      0x00\n        /* \"#utility.yul\":10259:10268   */\n      dup4\n        /* \"#utility.yul\":10255:10272   */\n      add\n        /* \"#utility.yul\":10246:10252   */\n      dup8\n        /* \"#utility.yul\":10202:10273   */\n      tag_275\n      jump\t// in\n    tag_348:\n        /* \"#utility.yul\":10283:10351   */\n      tag_349\n        /* \"#utility.yul\":10347:10349   */\n      0x20\n        /* \"#utility.yul\":10336:10345   */\n      dup4\n        /* \"#utility.yul\":10332:10350   */\n      add\n        /* \"#utility.yul\":10323:10329   */\n      dup7\n        /* \"#utility.yul\":10283:10351   */\n      tag_332\n      jump\t// in\n    tag_349:\n        /* \"#utility.yul\":10361:10433   */\n      tag_350\n        /* \"#utility.yul\":10429:10431   */\n      0x40\n        /* \"#utility.yul\":10418:10427   */\n      dup4\n        /* \"#utility.yul\":10414:10432   */\n      add\n        /* \"#utility.yul\":10405:10411   */\n      dup6\n        /* \"#utility.yul\":10361:10433   */\n      tag_275\n      jump\t// in\n    tag_350:\n        /* \"#utility.yul\":10443:10515   */\n      tag_351\n        /* \"#utility.yul\":10511:10513   */\n      0x60\n        /* \"#utility.yul\":10500:10509   */\n      dup4\n        /* \"#utility.yul\":10496:10514   */\n      add\n        /* \"#utility.yul\":10487:10493   */\n      dup5\n        /* \"#utility.yul\":10443:10515   */\n      tag_275\n      jump\t// in\n    tag_351:\n        /* \"#utility.yul\":10155:10522   */\n      swap6\n      swap5\n      pop\n      pop\n      pop\n      pop\n      pop\n      jump\t// out\n        /* \"#utility.yul\":10528:10947   */\n    tag_166:\n      0x00\n        /* \"#utility.yul\":10732:10734   */\n      0x20\n        /* \"#utility.yul\":10721:10730   */\n      dup3\n        /* \"#utility.yul\":10717:10735   */\n      add\n        /* \"#utility.yul\":10709:10735   */\n      swap1\n      pop\n        /* \"#utility.yul\":10781:10790   */\n      dup2\n        /* \"#utility.yul\":10775:10779   */\n      dup2\n        /* \"#utility.yul\":10771:10791   */\n      sub\n        /* \"#utility.yul\":10767:10768   */\n      0x00\n        /* \"#utility.yul\":10756:10765   */\n      dup4\n        /* \"#utility.yul\":10752:10769   */\n      add\n        /* \"#utility.yul\":10745:10792   */\n      mstore\n        /* \"#utility.yul\":10809:10940   */\n      tag_353\n        /* \"#utility.yul\":10935:10939   */\n      dup2\n        /* \"#utility.yul\":10809:10940   */\n      tag_292\n      jump\t// in\n    tag_353:\n        /* \"#utility.yul\":10801:10940   */\n      swap1\n      pop\n        /* \"#utility.yul\":10699:10947   */\n      swap2\n      swap1\n      pop\n      jump\t// out\n        /* \"#utility.yul\":10953:11372   */\n    tag_91:\n      0x00\n        /* \"#utility.yul\":11157:11159   */\n      0x20\n        /* \"#utility.yul\":11146:11155   */\n      dup3\n        /* \"#utility.yul\":11142:11160   */\n      add\n        /* \"#utility.yul\":11134:11160   */\n      swap1\n      pop\n        /* \"#utility.yul\":11206:11215   */\n      dup2\n        /* \"#utility.yul\":11200:11204   */\n      dup2\n        /* \"#utility.yul\":11196:11216   */\n      sub\n        /* \"#utility.yul\":11192:11193   */\n      0x00\n        /* \"#utility.yul\":11181:11190   */\n      dup4\n        /* \"#utility.yul\":11177:11194   */\n      add\n        /* \"#utility.yul\":11170:11217   */\n      mstore\n        /* \"#utility.yul\":11234:11365   */\n      tag_355\n        /* \"#utility.yul\":11360:11364   */\n      dup2\n        /* \"#utility.yul\":11234:11365   */\n      tag_296\n      jump\t// in\n    tag_355:\n        /* \"#utility.yul\":11226:11365   */\n      swap1\n      pop\n        /* \"#utility.yul\":11124:11372   */\n      swap2\n      swap1\n      pop\n      jump\t// out\n        /* \"#utility.yul\":11378:11797   */\n    tag_172:\n      0x00\n        /* \"#utility.yul\":11582:11584   */\n      0x20\n        /* \"#utility.yul\":11571:11580   */\n      dup3\n        /* \"#utility.yul\":11567:11585   */\n      add\n        /* \"#utility.yul\":11559:11585   */\n      swap1\n      pop\n        /* \"#utility.yul\":11631:11640   */\n      dup2\n        /* \"#utility.yul\":11625:11629   */\n      dup2\n        /* \"#utility.yul\":11621:11641   */\n      sub\n        /* \"#utility.yul\":11617:11618   */\n      0x00\n        /* \"#utility.yul\":11606:11615   */\n      dup4\n        /* \"#utility.yul\":11602:11619   */\n      add\n        /* \"#utility.yul\":11595:11642   */\n      mstore\n        /* \"#utility.yul\":11659:11790   */\n      tag_357\n        /* \"#utility.yul\":11785:11789   */\n      dup2\n        /* \"#utility.yul\":11659:11790   */\n      tag_299\n      jump\t// in\n    tag_357:\n        /* \"#utility.yul\":11651:11790   */\n      swap1\n      pop\n        /* \"#utility.yul\":11549:11797   */\n      swap2\n      swap1\n      pop\n      jump\t// out\n        /* \"#utility.yul\":11803:12222   */\n    tag_124:\n      0x00\n        /* \"#utility.yul\":12007:12009   */\n      0x20\n        /* \"#utility.yul\":11996:12005   */\n      dup3\n        /* \"#utility.yul\":11992:12010   */\n      add\n        /* \"#utility.yul\":11984:12010   */\n      swap1\n      pop\n        /* \"#utility.yul\":12056:12065   */\n      dup2\n        /* \"#utility.yul\":12050:12054   */\n      dup2\n        /* \"#utility.yul\":12046:12066   */\n      sub\n        /* \"#utility.yul\":12042:12043   */\n      0x00\n        /* \"#utility.yul\":12031:12040   */\n      dup4\n        /* \"#utility.yul\":12027:12044   */\n      add\n        /* \"#utility.yul\":12020:12067   */\n      mstore\n        /* \"#utility.yul\":12084:12215   */\n      tag_359\n        /* \"#utility.yul\":12210:12214   */\n      dup2\n        /* \"#utility.yul\":12084:12215   */\n      tag_305\n      jump\t// in\n    tag_359:\n        /* \"#utility.yul\":12076:12215   */\n      swap1\n      pop\n        /* \"#utility.yul\":11974:12222   */\n      swap2\n      swap1\n      pop\n      jump\t// out\n        /* \"#utility.yul\":12228:12647   */\n    tag_178:\n      0x00\n        /* \"#utility.yul\":12432:12434   */\n      0x20\n        /* \"#utility.yul\":12421:12430   */\n      dup3\n        /* \"#utility.yul\":12417:12435   */\n      add\n        /* \"#utility.yul\":12409:12435   */\n      swap1\n      pop\n        /* \"#utility.yul\":12481:12490   */\n      dup2\n        /* \"#utility.yul\":12475:12479   */\n      dup2\n        /* \"#utility.yul\":12471:12491   */\n      sub\n        /* \"#utility.yul\":12467:12468   */\n      0x00\n        /* \"#utility.yul\":12456:12465   */\n      dup4\n        /* \"#utility.yul\":12452:12469   */\n      add\n        /* \"#utility.yul\":12445:12492   */\n      mstore\n        /* \"#utility.yul\":12509:12640   */\n      tag_361\n        /* \"#utility.yul\":12635:12639   */\n      dup2\n        /* \"#utility.yul\":12509:12640   */\n      tag_308\n      jump\t// in\n    tag_361:\n        /* \"#utility.yul\":12501:12640   */\n      swap1\n      pop\n        /* \"#utility.yul\":12399:12647   */\n      swap2\n      swap1\n      pop\n      jump\t// out\n        /* \"#utility.yul\":12653:13072   */\n    tag_103:\n      0x00\n        /* \"#utility.yul\":12857:12859   */\n      0x20\n        /* \"#utility.yul\":12846:12855   */\n      dup3\n        /* \"#utility.yul\":12842:12860   */\n      add\n        /* \"#utility.yul\":12834:12860   */\n      swap1\n      pop\n        /* \"#utility.yul\":12906:12915   */\n      dup2\n        /* \"#utility.yul\":12900:12904   */\n      dup2\n        /* \"#utility.yul\":12896:12916   */\n      sub\n        /* \"#utility.yul\":12892:12893   */\n      0x00\n        /* \"#utility.yul\":12881:12890   */\n      dup4\n        /* \"#utility.yul\":12877:12894   */\n      add\n        /* \"#utility.yul\":12870:12917   */\n      mstore\n        /* \"#utility.yul\":12934:13065   */\n      tag_363\n        /* \"#utility.yul\":13060:13064   */\n      dup2\n        /* \"#utility.yul\":12934:13065   */\n      tag_311\n      jump\t// in\n    tag_363:\n        /* \"#utility.yul\":12926:13065   */\n      swap1\n      pop\n        /* \"#utility.yul\":12824:13072   */\n      swap2\n      swap1\n      pop\n      jump\t// out\n        /* \"#utility.yul\":13078:13497   */\n    tag_86:\n      0x00\n        /* \"#utility.yul\":13282:13284   */\n      0x20\n        /* \"#utility.yul\":13271:13280   */\n      dup3\n        /* \"#utility.yul\":13267:13285   */\n      add\n        /* \"#utility.yul\":13259:13285   */\n      swap1\n      pop\n        /* \"#utility.yul\":13331:13340   */\n      dup2\n        /* \"#utility.yul\":13325:13329   */\n      dup2\n        /* \"#utility.yul\":13321:13341   */\n      sub\n        /* \"#utility.yul\":13317:13318   */\n      0x00\n        /* \"#utility.yul\":13306:13315   */\n      dup4\n        /* \"#utility.yul\":13302:13319   */\n      add\n        /* \"#utility.yul\":13295:13342   */\n      mstore\n        /* \"#utility.yul\":13359:13490   */\n      tag_365\n        /* \"#utility.yul\":13485:13489   */\n      dup2\n        /* \"#utility.yul\":13359:13490   */\n      tag_314\n      jump\t// in\n    tag_365:\n        /* \"#utility.yul\":13351:13490   */\n      swap1\n      pop\n        /* \"#utility.yul\":13249:13497   */\n      swap2\n      swap1\n      pop\n      jump\t// out\n        /* \"#utility.yul\":13503:13922   */\n    tag_184:\n      0x00\n        /* \"#utility.yul\":13707:13709   */\n      0x20\n        /* \"#utility.yul\":13696:13705   */\n      dup3\n        /* \"#utility.yul\":13692:13710   */\n      add\n        /* \"#utility.yul\":13684:13710   */\n      swap1\n      pop\n        /* \"#utility.yul\":13756:13765   */\n      dup2\n        /* \"#utility.yul\":13750:13754   */\n      dup2\n        /* \"#utility.yul\":13746:13766   */\n      sub\n        /* \"#utility.yul\":13742:13743   */\n      0x00\n        /* \"#utility.yul\":13731:13740   */\n      dup4\n        /* \"#utility.yul\":13727:13744   */\n      add\n        /* \"#utility.yul\":13720:13767   */\n      mstore\n        /* \"#utility.yul\":13784:13915   */\n      tag_367\n        /* \"#utility.yul\":13910:13914   */\n      dup2\n        /* \"#utility.yul\":13784:13915   */\n      tag_317\n      jump\t// in\n    tag_367:\n        /* \"#utility.yul\":13776:13915   */\n      swap1\n      pop\n        /* \"#utility.yul\":13674:13922   */\n      swap2\n      swap1\n      pop\n      jump\t// out\n        /* \"#utility.yul\":13928:14347   */\n    tag_65:\n      0x00\n        /* \"#utility.yul\":14132:14134   */\n      0x20\n        /* \"#utility.yul\":14121:14130   */\n      dup3\n        /* \"#utility.yul\":14117:14135   */\n      add\n        /* \"#utility.yul\":14109:14135   */\n      swap1\n      pop\n        /* \"#utility.yul\":14181:14190   */\n      dup2\n        /* \"#utility.yul\":14175:14179   */\n      dup2\n        /* \"#utility.yul\":14171:14191   */\n      sub\n        /* \"#utility.yul\":14167:14168   */\n      0x00\n        /* \"#utility.yul\":14156:14165   */\n      dup4\n        /* \"#utility.yul\":14152:14169   */\n      add\n        /* \"#utility.yul\":14145:14192   */\n      mstore\n        /* \"#utility.yul\":14209:14340   */\n      tag_369\n        /* \"#utility.yul\":14335:14339   */\n      dup2\n        /* \"#utility.yul\":14209:14340   */\n      tag_320\n      jump\t// in\n    tag_369:\n        /* \"#utility.yul\":14201:14340   */\n      swap1\n      pop\n        /* \"#utility.yul\":14099:14347   */\n      swap2\n      swap1\n      pop\n      jump\t// out\n        /* \"#utility.yul\":14353:14575   */\n    tag_47:\n      0x00\n        /* \"#utility.yul\":14484:14486   */\n      0x20\n        /* \"#utility.yul\":14473:14482   */\n      dup3\n        /* \"#utility.yul\":14469:14487   */\n      add\n        /* \"#utility.yul\":14461:14487   */\n      swap1\n      pop\n        /* \"#utility.yul\":14497:14568   */\n      tag_371\n        /* \"#utility.yul\":14565:14566   */\n      0x00\n        /* \"#utility.yul\":14554:14563   */\n      dup4\n        /* \"#utility.yul\":14550:14567   */\n      add\n        /* \"#utility.yul\":14541:14547   */\n      dup5\n        /* \"#utility.yul\":14497:14568   */\n      tag_323\n      jump\t// in\n    tag_371:\n        /* \"#utility.yul\":14451:14575   */\n      swap3\n      swap2\n      pop\n      pop\n      jump\t// out\n        /* \"#utility.yul\":14581:14864   */\n    tag_218:\n      0x00\n        /* \"#utility.yul\":14647:14649   */\n      0x40\n        /* \"#utility.yul\":14641:14650   */\n      mload\n        /* \"#utility.yul\":14631:14650   */\n      swap1\n      pop\n        /* \"#utility.yul\":14689:14693   */\n      dup2\n        /* \"#utility.yul\":14681:14687   */\n      dup2\n        /* \"#utility.yul\":14677:14694   */\n      add\n        /* \"#utility.yul\":14796:14802   */\n      dup2\n        /* \"#utility.yul\":14784:14794   */\n      dup2\n        /* \"#utility.yul\":14781:14803   */\n      lt\n        /* \"#utility.yul\":14760:14778   */\n      0xffffffffffffffff\n        /* \"#utility.yul\":14748:14758   */\n      dup3\n        /* \"#utility.yul\":14745:14779   */\n      gt\n        /* \"#utility.yul\":14742:14804   */\n      or\n        /* \"#utility.yul\":14739:14741   */\n      iszero\n      tag_373\n      jumpi\n        /* \"#utility.yul\":14807:14825   */\n      tag_374\n      tag_375\n      jump\t// in\n    tag_374:\n        /* \"#utility.yul\":14739:14741   */\n    tag_373:\n        /* \"#utility.yul\":14847:14857   */\n      dup1\n        /* \"#utility.yul\":14843:14845   */\n      0x40\n        /* \"#utility.yul\":14836:14858   */\n      mstore\n        /* \"#utility.yul\":14621:14864   */\n      pop\n      swap2\n      swap1\n      pop\n      jump\t// out\n        /* \"#utility.yul\":14870:15201   */\n    tag_217:\n      0x00\n        /* \"#utility.yul\":15021:15039   */\n      0xffffffffffffffff\n        /* \"#utility.yul\":15013:15019   */\n      dup3\n        /* \"#utility.yul\":15010:15040   */\n      gt\n        /* \"#utility.yul\":15007:15009   */\n      iszero\n      tag_377\n      jumpi\n        /* \"#utility.yul\":15043:15061   */\n      tag_378\n      tag_375\n      jump\t// in\n    tag_378:\n        /* \"#utility.yul\":15007:15009   */\n    tag_377:\n        /* \"#utility.yul\":15128:15132   */\n      0x1f\n        /* \"#utility.yul\":15124:15133   */\n      not\n        /* \"#utility.yul\":15117:15121   */\n      0x1f\n        /* \"#utility.yul\":15109:15115   */\n      dup4\n        /* \"#utility.yul\":15105:15122   */\n      add\n        /* \"#utility.yul\":15101:15134   */\n      and\n        /* \"#utility.yul\":15093:15134   */\n      swap1\n      pop\n        /* \"#utility.yul\":15189:15193   */\n      0x20\n        /* \"#utility.yul\":15183:15187   */\n      dup2\n        /* \"#utility.yul\":15179:15194   */\n      add\n        /* \"#utility.yul\":15171:15194   */\n      swap1\n      pop\n        /* \"#utility.yul\":14936:15201   */\n      swap2\n      swap1\n      pop\n      jump\t// out\n        /* \"#utility.yul\":15207:15539   */\n    tag_226:\n      0x00\n        /* \"#utility.yul\":15359:15377   */\n      0xffffffffffffffff\n        /* \"#utility.yul\":15351:15357   */\n      dup3\n        /* \"#utility.yul\":15348:15378   */\n      gt\n        /* \"#utility.yul\":15345:15347   */\n      iszero\n      tag_380\n      jumpi\n        /* \"#utility.yul\":15381:15399   */\n      tag_381\n      tag_375\n      jump\t// in\n    tag_381:\n        /* \"#utility.yul\":15345:15347   */\n    tag_380:\n        /* \"#utility.yul\":15466:15470   */\n      0x1f\n        /* \"#utility.yul\":15462:15471   */\n      not\n        /* \"#utility.yul\":15455:15459   */\n      0x1f\n        /* \"#utility.yul\":15447:15453   */\n      dup4\n        /* \"#utility.yul\":15443:15460   */\n      add\n        /* \"#utility.yul\":15439:15472   */\n      and\n        /* \"#utility.yul\":15431:15472   */\n      swap1\n      pop\n        /* \"#utility.yul\":15527:15531   */\n      0x20\n        /* \"#utility.yul\":15521:15525   */\n      dup2\n        /* \"#utility.yul\":15517:15532   */\n      add\n        /* \"#utility.yul\":15509:15532   */\n      swap1\n      pop\n        /* \"#utility.yul\":15274:15539   */\n      swap2\n      swap1\n      pop\n      jump\t// out\n        /* \"#utility.yul\":15545:15644   */\n    tag_287:\n      0x00\n        /* \"#utility.yul\":15631:15636   */\n      dup2\n        /* \"#utility.yul\":15625:15637   */\n      mload\n        /* \"#utility.yul\":15615:15637   */\n      swap1\n      pop\n        /* \"#utility.yul\":15604:15644   */\n      swap2\n      swap1\n      pop\n      jump\t// out\n        /* \"#utility.yul\":15650:15819   */\n    tag_295:\n      0x00\n        /* \"#utility.yul\":15768:15774   */\n      dup3\n        /* \"#utility.yul\":15763:15766   */\n      dup3\n        /* \"#utility.yul\":15756:15775   */\n      mstore\n        /* \"#utility.yul\":15808:15812   */\n      0x20\n        /* \"#utility.yul\":15803:15806   */\n      dup3\n        /* \"#utility.yul\":15799:15813   */\n      add\n        /* \"#utility.yul\":15784:15813   */\n      swap1\n      pop\n        /* \"#utility.yul\":15746:15819   */\n      swap3\n      swap2\n      pop\n      pop\n      jump\t// out\n        /* \"#utility.yul\":15825:15973   */\n    tag_289:\n      0x00\n        /* \"#utility.yul\":15964:15967   */\n      dup2\n        /* \"#utility.yul\":15949:15967   */\n      swap1\n      pop\n        /* \"#utility.yul\":15939:15973   */\n      swap3\n      swap2\n      pop\n      pop\n      jump\t// out\n        /* \"#utility.yul\":15979:16170   */\n    tag_88:\n      0x00\n        /* \"#utility.yul\":16039:16059   */\n      tag_386\n        /* \"#utility.yul\":16057:16058   */\n      dup3\n        /* \"#utility.yul\":16039:16059   */\n      tag_326\n      jump\t// in\n    tag_386:\n        /* \"#utility.yul\":16034:16059   */\n      swap2\n      pop\n        /* \"#utility.yul\":16073:16093   */\n      tag_387\n        /* \"#utility.yul\":16091:16092   */\n      dup4\n        /* \"#utility.yul\":16073:16093   */\n      tag_326\n      jump\t// in\n    tag_387:\n        /* \"#utility.yul\":16068:16093   */\n      swap3\n      pop\n        /* \"#utility.yul\":16112:16113   */\n      dup3\n        /* \"#utility.yul\":16109:16110   */\n      dup3\n        /* \"#utility.yul\":16106:16114   */\n      lt\n        /* \"#utility.yul\":16103:16105   */\n      iszero\n      tag_388\n      jumpi\n        /* \"#utility.yul\":16117:16135   */\n      tag_389\n      tag_390\n      jump\t// in\n    tag_389:\n        /* \"#utility.yul\":16103:16105   */\n    tag_388:\n        /* \"#utility.yul\":16162:16163   */\n      dup3\n        /* \"#utility.yul\":16159:16160   */\n      dup3\n        /* \"#utility.yul\":16155:16164   */\n      sub\n        /* \"#utility.yul\":16147:16164   */\n      swap1\n      pop\n        /* \"#utility.yul\":16024:16170   */\n      swap3\n      swap2\n      pop\n      pop\n      jump\t// out\n        /* \"#utility.yul\":16176:16272   */\n    tag_270:\n      0x00\n        /* \"#utility.yul\":16242:16266   */\n      tag_392\n        /* \"#utility.yul\":16260:16265   */\n      dup3\n        /* \"#utility.yul\":16242:16266   */\n      tag_393\n      jump\t// in\n    tag_392:\n        /* \"#utility.yul\":16231:16266   */\n      swap1\n      pop\n        /* \"#utility.yul\":16221:16272   */\n      swap2\n      swap1\n      pop\n      jump\t// out\n        /* \"#utility.yul\":16278:16368   */\n    tag_274:\n      0x00\n        /* \"#utility.yul\":16355:16360   */\n      dup2\n        /* \"#utility.yul\":16348:16361   */\n      iszero\n        /* \"#utility.yul\":16341:16362   */\n      iszero\n        /* \"#utility.yul\":16330:16362   */\n      swap1\n      pop\n        /* \"#utility.yul\":16320:16368   */\n      swap2\n      swap1\n      pop\n      jump\t// out\n        /* \"#utility.yul\":16374:16451   */\n    tag_278:\n      0x00\n        /* \"#utility.yul\":16440:16445   */\n      dup2\n        /* \"#utility.yul\":16429:16445   */\n      swap1\n      pop\n        /* \"#utility.yul\":16419:16451   */\n      swap2\n      swap1\n      pop\n      jump\t// out\n        /* \"#utility.yul\":16457:16583   */\n    tag_393:\n      0x00\n        /* \"#utility.yul\":16534:16576   */\n      0xffffffffffffffffffffffffffffffffffffffff\n        /* \"#utility.yul\":16527:16532   */\n      dup3\n        /* \"#utility.yul\":16523:16577   */\n      and\n        /* \"#utility.yul\":16512:16577   */\n      swap1\n      pop\n        /* \"#utility.yul\":16502:16583   */\n      swap2\n      swap1\n      pop\n      jump\t// out\n        /* \"#utility.yul\":16589:16666   */\n    tag_326:\n      0x00\n        /* \"#utility.yul\":16655:16660   */\n      dup2\n        /* \"#utility.yul\":16644:16660   */\n      swap1\n      pop\n        /* \"#utility.yul\":16634:16666   */\n      swap2\n      swap1\n      pop\n      jump\t// out\n        /* \"#utility.yul\":16672:16758   */\n    tag_335:\n      0x00\n        /* \"#utility.yul\":16747:16751   */\n      0xff\n        /* \"#utility.yul\":16740:16745   */\n      dup3\n        /* \"#utility.yul\":16736:16752   */\n      and\n        /* \"#utility.yul\":16725:16752   */\n      swap1\n      pop\n        /* \"#utility.yul\":16715:16758   */\n      swap2\n      swap1\n      pop\n      jump\t// out\n        /* \"#utility.yul\":16764:16918   */\n    tag_221:\n        /* \"#utility.yul\":16848:16854   */\n      dup3\n        /* \"#utility.yul\":16843:16846   */\n      dup2\n        /* \"#utility.yul\":16838:16841   */\n      dup4\n        /* \"#utility.yul\":16825:16855   */\n      calldatacopy\n        /* \"#utility.yul\":16910:16911   */\n      0x00\n        /* \"#utility.yul\":16901:16907   */\n      dup4\n        /* \"#utility.yul\":16896:16899   */\n      dup4\n        /* \"#utility.yul\":16892:16908   */\n      add\n        /* \"#utility.yul\":16885:16912   */\n      mstore\n        /* \"#utility.yul\":16815:16918   */\n      pop\n      pop\n      pop\n      jump\t// out\n        /* \"#utility.yul\":16924:17231   */\n    tag_291:\n        /* \"#utility.yul\":16992:16993   */\n      0x00\n        /* \"#utility.yul\":17002:17115   */\n    tag_401:\n        /* \"#utility.yul\":17016:17022   */\n      dup4\n        /* \"#utility.yul\":17013:17014   */\n      dup2\n        /* \"#utility.yul\":17010:17023   */\n      lt\n        /* \"#utility.yul\":17002:17115   */\n      iszero\n      tag_403\n      jumpi\n        /* \"#utility.yul\":17101:17102   */\n      dup1\n        /* \"#utility.yul\":17096:17099   */\n      dup3\n        /* \"#utility.yul\":17092:17103   */\n      add\n        /* \"#utility.yul\":17086:17104   */\n      mload\n        /* \"#utility.yul\":17082:17083   */\n      dup2\n        /* \"#utility.yul\":17077:17080   */\n      dup5\n        /* \"#utility.yul\":17073:17084   */\n      add\n        /* \"#utility.yul\":17066:17105   */\n      mstore\n        /* \"#utility.yul\":17038:17040   */\n      0x20\n        /* \"#utility.yul\":17035:17036   */\n      dup2\n        /* \"#utility.yul\":17031:17041   */\n      add\n        /* \"#utility.yul\":17026:17041   */\n      swap1\n      pop\n        /* \"#utility.yul\":17002:17115   */\n      jump(tag_401)\n    tag_403:\n        /* \"#utility.yul\":17133:17139   */\n      dup4\n        /* \"#utility.yul\":17130:17131   */\n      dup2\n        /* \"#utility.yul\":17127:17140   */\n      gt\n        /* \"#utility.yul\":17124:17126   */\n      iszero\n      tag_404\n      jumpi\n        /* \"#utility.yul\":17213:17214   */\n      0x00\n        /* \"#utility.yul\":17204:17210   */\n      dup5\n        /* \"#utility.yul\":17199:17202   */\n      dup5\n        /* \"#utility.yul\":17195:17211   */\n      add\n        /* \"#utility.yul\":17188:17215   */\n      mstore\n        /* \"#utility.yul\":17124:17126   */\n    tag_404:\n        /* \"#utility.yul\":16973:17231   */\n      pop\n      pop\n      pop\n      pop\n      jump\t// out\n        /* \"#utility.yul\":17237:17316   */\n    tag_283:\n      0x00\n        /* \"#utility.yul\":17305:17310   */\n      dup2\n        /* \"#utility.yul\":17294:17310   */\n      swap1\n      pop\n        /* \"#utility.yul\":17284:17316   */\n      swap2\n      swap1\n      pop\n      jump\t// out\n        /* \"#utility.yul\":17322:17401   */\n    tag_331:\n      0x00\n        /* \"#utility.yul\":17390:17395   */\n      dup2\n        /* \"#utility.yul\":17379:17395   */\n      swap1\n      pop\n        /* \"#utility.yul\":17369:17401   */\n      swap2\n      swap1\n      pop\n      jump\t// out\n        /* \"#utility.yul\":17407:17587   */\n    tag_390:\n        /* \"#utility.yul\":17455:17532   */\n      0x4e487b7100000000000000000000000000000000000000000000000000000000\n        /* \"#utility.yul\":17452:17453   */\n      0x00\n        /* \"#utility.yul\":17445:17533   */\n      mstore\n        /* \"#utility.yul\":17552:17556   */\n      0x11\n        /* \"#utility.yul\":17549:17550   */\n      0x04\n        /* \"#utility.yul\":17542:17557   */\n      mstore\n        /* \"#utility.yul\":17576:17580   */\n      0x24\n        /* \"#utility.yul\":17573:17574   */\n      0x00\n        /* \"#utility.yul\":17566:17581   */\n      revert\n        /* \"#utility.yul\":17593:17773   */\n    tag_375:\n        /* \"#utility.yul\":17641:17718   */\n      0x4e487b7100000000000000000000000000000000000000000000000000000000\n        /* \"#utility.yul\":17638:17639   */\n      0x00\n        /* \"#utility.yul\":17631:17719   */\n      mstore\n        /* \"#utility.yul\":17738:17742   */\n      0x41\n        /* \"#utility.yul\":17735:17736   */\n      0x04\n        /* \"#utility.yul\":17728:17743   */\n      mstore\n        /* \"#utility.yul\":17762:17766   */\n      0x24\n        /* \"#utility.yul\":17759:17760   */\n      0x00\n        /* \"#utility.yul\":17752:17767   */\n      revert\n        /* \"#utility.yul\":17779:17901   */\n    tag_232:\n        /* \"#utility.yul\":17852:17876   */\n      tag_410\n        /* \"#utility.yul\":17870:17875   */\n      dup2\n        /* \"#utility.yul\":17852:17876   */\n      tag_270\n      jump\t// in\n    tag_410:\n        /* \"#utility.yul\":17845:17850   */\n      dup2\n        /* \"#utility.yul\":17842:17877   */\n      eq\n        /* \"#utility.yul\":17832:17834   */\n      tag_411\n      jumpi\n        /* \"#utility.yul\":17891:17892   */\n      0x00\n        /* \"#utility.yul\":17888:17889   */\n      dup1\n        /* \"#utility.yul\":17881:17893   */\n      revert\n        /* \"#utility.yul\":17832:17834   */\n    tag_411:\n        /* \"#utility.yul\":17822:17901   */\n      pop\n      jump\t// out\n        /* \"#utility.yul\":17907:18023   */\n    tag_236:\n        /* \"#utility.yul\":17977:17998   */\n      tag_413\n        /* \"#utility.yul\":17992:17997   */\n      dup2\n        /* \"#utility.yul\":17977:17998   */\n      tag_274\n      jump\t// in\n    tag_413:\n        /* \"#utility.yul\":17970:17975   */\n      dup2\n        /* \"#utility.yul\":17967:17999   */\n      eq\n        /* \"#utility.yul\":17957:17959   */\n      tag_414\n      jumpi\n        /* \"#utility.yul\":18013:18014   */\n      0x00\n        /* \"#utility.yul\":18010:18011   */\n      dup1\n        /* \"#utility.yul\":18003:18015   */\n      revert\n        /* \"#utility.yul\":17957:17959   */\n    tag_414:\n        /* \"#utility.yul\":17947:18023   */\n      pop\n      jump\t// out\n        /* \"#utility.yul\":18029:18151   */\n    tag_248:\n        /* \"#utility.yul\":18102:18126   */\n      tag_416\n        /* \"#utility.yul\":18120:18125   */\n      dup2\n        /* \"#utility.yul\":18102:18126   */\n      tag_326\n      jump\t// in\n    tag_416:\n        /* \"#utility.yul\":18095:18100   */\n      dup2\n        /* \"#utility.yul\":18092:18127   */\n      eq\n        /* \"#utility.yul\":18082:18084   */\n      tag_417\n      jumpi\n        /* \"#utility.yul\":18141:18142   */\n      0x00\n        /* \"#utility.yul\":18138:18139   */\n      dup1\n        /* \"#utility.yul\":18131:18143   */\n      revert\n        /* \"#utility.yul\":18082:18084   */\n    tag_417:\n        /* \"#utility.yul\":18072:18151   */\n      pop\n      jump\t// out\n\n    auxdata: 0xa2646970667358221220a5a09c614a9ecaed467b281c173f129b224284175db9bb7fb9365fecb97b866d64736f6c63430008000033\n}\n",
				"bytecode": {
					"linkReferences": {},
					"object": "608060405234801561001057600080fd5b50611caf806100206000396000f3fe608060405234801561001057600080fd5b50600436106100a95760003560e01c806381952f3b1161007157806381952f3b146101665780638da5cb5b14610196578063c08d1fe5146101b4578063c4d66de8146101d2578063e2889c82146101ee578063f2fde38b1461021e576100a9565b80631e1bff3f146100ae578063238ac933146100de57806348c7e528146100fc5780636c19e7831461012c578063715018a61461015c575b600080fd5b6100c860048036038101906100c39190611366565b61023a565b6040516100d5919061189a565b60405180910390f35b6100e66102ca565b6040516100f3919061187f565b60405180910390f35b6101166004803603810190610111919061133d565b6102f0565b604051610123919061189a565b60405180910390f35b6101466004803603810190610141919061133d565b610310565b604051610153919061189a565b60405180910390f35b6101646103d8565b005b610180600480360381019061017b91906113cb565b610460565b60405161018d919061189a565b60405180910390f35b61019e6105df565b6040516101ab919061187f565b60405180910390f35b6101bc610609565b6040516101c99190611a1a565b60405180910390f35b6101ec60048036038101906101e7919061133d565b61060f565b005b610208600480360381019061020391906113a2565b610746565b604051610215919061189a565b60405180910390f35b6102386004803603810190610233919061133d565b6107d4565b005b60006102446108cc565b73ffffffffffffffffffffffffffffffffffffffff166102626105df565b73ffffffffffffffffffffffffffffffffffffffff16146102b8576040517f08c379a00000000000000000000000000000000000000000000000000000000081526004016102af906119fa565b60405180910390fd5b6102c283836108d4565b905092915050565b606560009054906101000a900473ffffffffffffffffffffffffffffffffffffffff1681565b60676020528060005260406000206000915054906101000a900460ff1681565b600061031a6108cc565b73ffffffffffffffffffffffffffffffffffffffff166103386105df565b73ffffffffffffffffffffffffffffffffffffffff161461038e576040517f08c379a0000000000000000000000000000000000000000000000000000000008152600401610385906119fa565b60405180910390fd5b81606560006101000a81548173ffffffffffffffffffffffffffffffffffffffff021916908373ffffffffffffffffffffffffffffffffffffffff16021790555060019050919050565b6103e06108cc565b73ffffffffffffffffffffffffffffffffffffffff166103fe6105df565b73ffffffffffffffffffffffffffffffffffffffff1614610454576040517f08c379a000000000000000000000000000000000000000000000000000000000815260040161044b906119fa565b60405180910390fd5b61045e6000610937565b565b6000606760003373ffffffffffffffffffffffffffffffffffffffff1673ffffffffffffffffffffffffffffffffffffffff16815260200190815260200160002060009054906101000a900460ff166104ee576040517f08c379a00000000000000000000000000000000000000000000000000000000081526004016104e5906119ba565b60405180910390fd5b83606654426104fd9190611aed565b1061053d576040517f08c379a00000000000000000000000000000000000000000000000000000000081526004016105349061191a565b60405180910390fd5b600085858560405160200161055493929190611846565b604051602081830303815290604052805190602001209050600061058061057a836109fd565b85610a2d565b90508073ffffffffffffffffffffffffffffffffffffffff16606560009054906101000a900473ffffffffffffffffffffffffffffffffffffffff1673ffffffffffffffffffffffffffffffffffffffff161492505050949350505050565b6000603360009054906101000a900473ffffffffffffffffffffffffffffffffffffffff16905090565b60665481565b600060019054906101000a900460ff1680610635575060008054906101000a900460ff16155b610674576040517f08c379a000000000000000000000000000000000000000000000000000000000815260040161066b9061199a565b60405180910390fd5b60008060019054906101000a900460ff1615905080156106c4576001600060016101000a81548160ff02191690831515021790555060016000806101000a81548160ff0219169083151502179055505b6106cc610a54565b6106d78260016108d4565b5081606560006101000a81548173ffffffffffffffffffffffffffffffffffffffff021916908373ffffffffffffffffffffffffffffffffffffffff160217905550603c60668190555080156107425760008060016101000a81548160ff0219169083151502179055505b5050565b60006107506108cc565b73ffffffffffffffffffffffffffffffffffffffff1661076e6105df565b73ffffffffffffffffffffffffffffffffffffffff16146107c4576040517f08c379a00000000000000000000000000000000000000000000000000000000081526004016107bb906119fa565b60405180910390fd5b8160668190555060019050919050565b6107dc6108cc565b73ffffffffffffffffffffffffffffffffffffffff166107fa6105df565b73ffffffffffffffffffffffffffffffffffffffff1614610850576040517f08c379a0000000000000000000000000000000000000000000000000000000008152600401610847906119fa565b60405180910390fd5b600073ffffffffffffffffffffffffffffffffffffffff168173ffffffffffffffffffffffffffffffffffffffff1614156108c0576040517f08c379a00000000000000000000000000000000000000000000000000000000081526004016108b79061195a565b60405180910390fd5b6108c981610937565b50565b600033905090565b600081606760008573ffffffffffffffffffffffffffffffffffffffff1673ffffffffffffffffffffffffffffffffffffffff16815260200190815260200160002060006101000a81548160ff0219169083151502179055506001905092915050565b6000603360009054906101000a900473ffffffffffffffffffffffffffffffffffffffff16905081603360006101000a81548173ffffffffffffffffffffffffffffffffffffffff021916908373ffffffffffffffffffffffffffffffffffffffff1602179055508173ffffffffffffffffffffffffffffffffffffffff168173ffffffffffffffffffffffffffffffffffffffff167f8be0079c531659141344cd1fd0a4f28419497f9722a3daafe3b4186f6b6457e060405160405180910390a35050565b600081604051602001610a109190611820565b604051602081830303815290604052805190602001209050919050565b6000806000610a3c8585610b3d565b91509150610a4981610bc0565b819250505092915050565b600060019054906101000a900460ff1680610a7a575060008054906101000a900460ff16155b610ab9576040517f08c379a0000000000000000000000000000000000000000000000000000000008152600401610ab09061199a565b60405180910390fd5b60008060019054906101000a900460ff161590508015610b09576001600060016101000a81548160ff02191690831515021790555060016000806101000a81548160ff0219169083151502179055505b610b11610f11565b610b19610fea565b8015610b3a5760008060016101000a81548160ff0219169083151502179055505b50565b600080604183511415610b7f5760008060006020860151925060408601519150606086015160001a9050610b73878285856110d3565b94509450505050610bb9565b604083511415610bb0576000806020850151915060408501519050610ba58683836111e0565b935093505050610bb9565b60006002915091505b9250929050565b60006004811115610bfa577f4e487b7100000000000000000000000000000000000000000000000000000000600052602160045260246000fd5b816004811115610c33577f4e487b7100000000000000000000000000000000000000000000000000000000600052602160045260246000fd5b1415610c3e57610f0e565b60016004811115610c78577f4e487b7100000000000000000000000000000000000000000000000000000000600052602160045260246000fd5b816004811115610cb1577f4e487b7100000000000000000000000000000000000000000000000000000000600052602160045260246000fd5b1415610cf2576040517f08c379a0000000000000000000000000000000000000000000000000000000008152600401610ce9906118fa565b60405180910390fd5b60026004811115610d2c577f4e487b7100000000000000000000000000000000000000000000000000000000600052602160045260246000fd5b816004811115610d65577f4e487b7100000000000000000000000000000000000000000000000000000000600052602160045260246000fd5b1415610da6576040517f08c379a0000000000000000000000000000000000000000000000000000000008152600401610d9d9061193a565b60405180910390fd5b60036004811115610de0577f4e487b7100000000000000000000000000000000000000000000000000000000600052602160045260246000fd5b816004811115610e19577f4e487b7100000000000000000000000000000000000000000000000000000000600052602160045260246000fd5b1415610e5a576040517f08c379a0000000000000000000000000000000000000000000000000000000008152600401610e519061197a565b60405180910390fd5b600480811115610e93577f4e487b7100000000000000000000000000000000000000000000000000000000600052602160045260246000fd5b816004811115610ecc577f4e487b7100000000000000000000000000000000000000000000000000000000600052602160045260246000fd5b1415610f0d576040517f08c379a0000000000000000000000000000000000000000000000000000000008152600401610f04906119da565b60405180910390fd5b5b50565b600060019054906101000a900460ff1680610f37575060008054906101000a900460ff16155b610f76576040517f08c379a0000000000000000000000000000000000000000000000000000000008152600401610f6d9061199a565b60405180910390fd5b60008060019054906101000a900460ff161590508015610fc6576001600060016101000a81548160ff02191690831515021790555060016000806101000a81548160ff0219169083151502179055505b8015610fe75760008060016101000a81548160ff0219169083151502179055505b50565b600060019054906101000a900460ff1680611010575060008054906101000a900460ff16155b61104f576040517f08c379a00000000000000000000000000000000000000000000000000000000081526004016110469061199a565b60405180910390fd5b60008060019054906101000a900460ff16159050801561109f576001600060016101000a81548160ff02191690831515021790555060016000806101000a81548160ff0219169083151502179055505b6110af6110aa6108cc565b610937565b80156110d05760008060016101000a81548160ff0219169083151502179055505b50565b6000807f7fffffffffffffffffffffffffffffff5d576e7357a4501ddfe92f46681b20a08360001c111561110e5760006003915091506111d7565b601b8560ff16141580156111265750601c8560ff1614155b156111385760006004915091506111d7565b60006001878787876040516000815260200160405260405161115d94939291906118b5565b6020604051602081039080840390855afa15801561117f573d6000803e3d6000fd5b505050602060405103519050600073ffffffffffffffffffffffffffffffffffffffff168173ffffffffffffffffffffffffffffffffffffffff1614156111ce576000600192509250506111d7565b80600092509250505b94509492505050565b6000806000807f7fffffffffffffffffffffffffffffffffffffffffffffffffffffffffffffff85169150601b8560ff1c019050611220878288856110d3565b935093505050935093915050565b600061124161123c84611a66565b611a35565b90508281526020810184848401111561125957600080fd5b611264848285611b80565b509392505050565b600061127f61127a84611a96565b611a35565b90508281526020810184848401111561129757600080fd5b6112a2848285611b80565b509392505050565b6000813590506112b981611c34565b92915050565b6000813590506112ce81611c4b565b92915050565b600082601f8301126112e557600080fd5b81356112f584826020860161122e565b91505092915050565b600082601f83011261130f57600080fd5b813561131f84826020860161126c565b91505092915050565b60008135905061133781611c62565b92915050565b60006020828403121561134f57600080fd5b600061135d848285016112aa565b91505092915050565b6000806040838503121561137957600080fd5b6000611387858286016112aa565b9250506020611398858286016112bf565b9150509250929050565b6000602082840312156113b457600080fd5b60006113c284828501611328565b91505092915050565b600080600080608085870312156113e157600080fd5b60006113ef87828801611328565b945050602061140087828801611328565b935050604085013567ffffffffffffffff81111561141d57600080fd5b611429878288016112fe565b925050606085013567ffffffffffffffff81111561144657600080fd5b611452878288016112d4565b91505092959194509250565b61146781611b21565b82525050565b61147681611b33565b82525050565b61148581611b3f565b82525050565b61149c61149782611b3f565b611bc2565b82525050565b60006114ad82611ac6565b6114b78185611ae2565b93506114c7818560208601611b8f565b80840191505092915050565b60006114e0601883611ad1565b91507f45434453413a20696e76616c6964207369676e617475726500000000000000006000830152602082019050919050565b6000611520600d83611ad1565b91507f74696d657374616d7020657272000000000000000000000000000000000000006000830152602082019050919050565b6000611560601f83611ad1565b91507f45434453413a20696e76616c6964207369676e6174757265206c656e677468006000830152602082019050919050565b60006115a0601c83611ae2565b91507f19457468657265756d205369676e6564204d6573736167653a0a3332000000006000830152601c82019050919050565b60006115e0602683611ad1565b91507f4f776e61626c653a206e6577206f776e657220697320746865207a65726f206160008301527f64647265737300000000000000000000000000000000000000000000000000006020830152604082019050919050565b6000611646602283611ad1565b91507f45434453413a20696e76616c6964207369676e6174757265202773272076616c60008301527f75650000000000000000000000000000000000000000000000000000000000006020830152604082019050919050565b60006116ac602e83611ad1565b91507f496e697469616c697a61626c653a20636f6e747261637420697320616c72656160008301527f647920696e697469616c697a65640000000000000000000000000000000000006020830152604082019050919050565b6000611712600c83611ad1565b91507f6578656375746f722065727200000000000000000000000000000000000000006000830152602082019050919050565b6000611752602283611ad1565b91507f45434453413a20696e76616c6964207369676e6174757265202776272076616c60008301527f75650000000000000000000000000000000000000000000000000000000000006020830152604082019050919050565b60006117b8602083611ad1565b91507f4f776e61626c653a2063616c6c6572206973206e6f7420746865206f776e65726000830152602082019050919050565b6117f481611b69565b82525050565b61180b61180682611b69565b611bcc565b82525050565b61181a81611b73565b82525050565b600061182b82611593565b9150611837828461148b565b60208201915081905092915050565b600061185282866117fa565b60208201915061186282856117fa565b60208201915061187282846114a2565b9150819050949350505050565b6000602082019050611894600083018461145e565b92915050565b60006020820190506118af600083018461146d565b92915050565b60006080820190506118ca600083018761147c565b6118d76020830186611811565b6118e4604083018561147c565b6118f1606083018461147c565b95945050505050565b60006020820190508181036000830152611913816114d3565b9050919050565b6000602082019050818103600083015261193381611513565b9050919050565b6000602082019050818103600083015261195381611553565b9050919050565b60006020820190508181036000830152611973816115d3565b9050919050565b6000602082019050818103600083015261199381611639565b9050919050565b600060208201905081810360008301526119b38161169f565b9050919050565b600060208201905081810360008301526119d381611705565b9050919050565b600060208201905081810360008301526119f381611745565b9050919050565b60006020820190508181036000830152611a13816117ab565b9050919050565b6000602082019050611a2f60008301846117eb565b92915050565b6000604051905081810181811067ffffffffffffffff82111715611a5c57611a5b611c05565b5b8060405250919050565b600067ffffffffffffffff821115611a8157611a80611c05565b5b601f19601f8301169050602081019050919050565b600067ffffffffffffffff821115611ab157611ab0611c05565b5b601f19601f8301169050602081019050919050565b600081519050919050565b600082825260208201905092915050565b600081905092915050565b6000611af882611b69565b9150611b0383611b69565b925082821015611b1657611b15611bd6565b5b828203905092915050565b6000611b2c82611b49565b9050919050565b60008115159050919050565b6000819050919050565b600073ffffffffffffffffffffffffffffffffffffffff82169050919050565b6000819050919050565b600060ff82169050919050565b82818337600083830152505050565b60005b83811015611bad578082015181840152602081019050611b92565b83811115611bbc576000848401525b50505050565b6000819050919050565b6000819050919050565b7f4e487b7100000000000000000000000000000000000000000000000000000000600052601160045260246000fd5b7f4e487b7100000000000000000000000000000000000000000000000000000000600052604160045260246000fd5b611c3d81611b21565b8114611c4857600080fd5b50565b611c5481611b33565b8114611c5f57600080fd5b50565b611c6b81611b69565b8114611c7657600080fd5b5056fea2646970667358221220a5a09c614a9ecaed467b281c173f129b224284175db9bb7fb9365fecb97b866d64736f6c63430008000033",
					"opcodes": "PUSH1 0x80 PUSH1 0x40 MSTORE CALLVALUE DUP1 ISZERO PUSH2 0x10 JUMPI PUSH1 0x0 DUP1 REVERT JUMPDEST POP PUSH2 0x1CAF DUP1 PUSH2 0x20 PUSH1 0x0 CODECOPY PUSH1 0x0 RETURN INVALID PUSH1 0x80 PUSH1 0x40 MSTORE CALLVALUE DUP1 ISZERO PUSH2 0x10 JUMPI PUSH1 0x0 DUP1 REVERT JUMPDEST POP PUSH1 0x4 CALLDATASIZE LT PUSH2 0xA9 JUMPI PUSH1 0x0 CALLDATALOAD PUSH1 0xE0 SHR DUP1 PUSH4 0x81952F3B GT PUSH2 0x71 JUMPI DUP1 PUSH4 0x81952F3B EQ PUSH2 0x166 JUMPI DUP1 PUSH4 0x8DA5CB5B EQ PUSH2 0x196 JUMPI DUP1 PUSH4 0xC08D1FE5 EQ PUSH2 0x1B4 JUMPI DUP1 PUSH4 0xC4D66DE8 EQ PUSH2 0x1D2 JUMPI DUP1 PUSH4 0xE2889C82 EQ PUSH2 0x1EE JUMPI DUP1 PUSH4 0xF2FDE38B EQ PUSH2 0x21E JUMPI PUSH2 0xA9 JUMP JUMPDEST DUP1 PUSH4 0x1E1BFF3F EQ PUSH2 0xAE JUMPI DUP1 PUSH4 0x238AC933 EQ PUSH2 0xDE JUMPI DUP1 PUSH4 0x48C7E528 EQ PUSH2 0xFC JUMPI DUP1 PUSH4 0x6C19E783 EQ PUSH2 0x12C JUMPI DUP1 PUSH4 0x715018A6 EQ PUSH2 0x15C JUMPI JUMPDEST PUSH1 0x0 DUP1 REVERT JUMPDEST PUSH2 0xC8 PUSH1 0x4 DUP1 CALLDATASIZE SUB DUP2 ADD SWAP1 PUSH2 0xC3 SWAP2 SWAP1 PUSH2 0x1366 JUMP JUMPDEST PUSH2 0x23A JUMP JUMPDEST PUSH1 0x40 MLOAD PUSH2 0xD5 SWAP2 SWAP1 PUSH2 0x189A JUMP JUMPDEST PUSH1 0x40 MLOAD DUP1 SWAP2 SUB SWAP1 RETURN JUMPDEST PUSH2 0xE6 PUSH2 0x2CA JUMP JUMPDEST PUSH1 0x40 MLOAD PUSH2 0xF3 SWAP2 SWAP1 PUSH2 0x187F JUMP JUMPDEST PUSH1 0x40 MLOAD DUP1 SWAP2 SUB SWAP1 RETURN JUMPDEST PUSH2 0x116 PUSH1 0x4 DUP1 CALLDATASIZE SUB DUP2 ADD SWAP1 PUSH2 0x111 SWAP2 SWAP1 PUSH2 0x133D JUMP JUMPDEST PUSH2 0x2F0 JUMP JUMPDEST PUSH1 0x40 MLOAD PUSH2 0x123 SWAP2 SWAP1 PUSH2 0x189A JUMP JUMPDEST PUSH1 0x40 MLOAD DUP1 SWAP2 SUB SWAP1 RETURN JUMPDEST PUSH2 0x146 PUSH1 0x4 DUP1 CALLDATASIZE SUB DUP2 ADD SWAP1 PUSH2 0x141 SWAP2 SWAP1 PUSH2 0x133D JUMP JUMPDEST PUSH2 0x310 JUMP JUMPDEST PUSH1 0x40 MLOAD PUSH2 0x153 SWAP2 SWAP1 PUSH2 0x189A JUMP JUMPDEST PUSH1 0x40 MLOAD DUP1 SWAP2 SUB SWAP1 RETURN JUMPDEST PUSH2 0x164 PUSH2 0x3D8 JUMP JUMPDEST STOP JUMPDEST PUSH2 0x180 PUSH1 0x4 DUP1 CALLDATASIZE SUB DUP2 ADD SWAP1 PUSH2 0x17B SWAP2 SWAP1 PUSH2 0x13CB JUMP JUMPDEST PUSH2 0x460 JUMP JUMPDEST PUSH1 0x40 MLOAD PUSH2 0x18D SWAP2 SWAP1 PUSH2 0x189A JUMP JUMPDEST PUSH1 0x40 MLOAD DUP1 SWAP2 SUB SWAP1 RETURN JUMPDEST PUSH2 0x19E PUSH2 0x5DF JUMP JUMPDEST PUSH1 0x40 MLOAD PUSH2 0x1AB SWAP2 SWAP1 PUSH2 0x187F JUMP JUMPDEST PUSH1 0x40 MLOAD DUP1 SWAP2 SUB SWAP1 RETURN JUMPDEST PUSH2 0x1BC PUSH2 0x609 JUMP JUMPDEST PUSH1 0x40 MLOAD PUSH2 0x1C9 SWAP2 SWAP1 PUSH2 0x1A1A JUMP JUMPDEST PUSH1 0x40 MLOAD DUP1 SWAP2 SUB SWAP1 RETURN JUMPDEST PUSH2 0x1EC PUSH1 0x4 DUP1 CALLDATASIZE SUB DUP2 ADD SWAP1 PUSH2 0x1E7 SWAP2 SWAP1 PUSH2 0x133D JUMP JUMPDEST PUSH2 0x60F JUMP JUMPDEST STOP JUMPDEST PUSH2 0x208 PUSH1 0x4 DUP1 CALLDATASIZE SUB DUP2 ADD SWAP1 PUSH2 0x203 SWAP2 SWAP1 PUSH2 0x13A2 JUMP JUMPDEST PUSH2 0x746 JUMP JUMPDEST PUSH1 0x40 MLOAD PUSH2 0x215 SWAP2 SWAP1 PUSH2 0x189A JUMP JUMPDEST PUSH1 0x40 MLOAD DUP1 SWAP2 SUB SWAP1 RETURN JUMPDEST PUSH2 0x238 PUSH1 0x4 DUP1 CALLDATASIZE SUB DUP2 ADD SWAP1 PUSH2 0x233 SWAP2 SWAP1 PUSH2 0x133D JUMP JUMPDEST PUSH2 0x7D4 JUMP JUMPDEST STOP JUMPDEST PUSH1 0x0 PUSH2 0x244 PUSH2 0x8CC JUMP JUMPDEST PUSH20 0xFFFFFFFFFFFFFFFFFFFFFFFFFFFFFFFFFFFFFFFF AND PUSH2 0x262 PUSH2 0x5DF JUMP JUMPDEST PUSH20 0xFFFFFFFFFFFFFFFFFFFFFFFFFFFFFFFFFFFFFFFF AND EQ PUSH2 0x2B8 JUMPI PUSH1 0x40 MLOAD PUSH32 0x8C379A000000000000000000000000000000000000000000000000000000000 DUP2 MSTORE PUSH1 0x4 ADD PUSH2 0x2AF SWAP1 PUSH2 0x19FA JUMP JUMPDEST PUSH1 0x40 MLOAD DUP1 SWAP2 SUB SWAP1 REVERT JUMPDEST PUSH2 0x2C2 DUP4 DUP4 PUSH2 0x8D4 JUMP JUMPDEST SWAP1 POP SWAP3 SWAP2 POP POP JUMP JUMPDEST PUSH1 0x65 PUSH1 0x0 SWAP1 SLOAD SWAP1 PUSH2 0x100 EXP SWAP1 DIV PUSH20 0xFFFFFFFFFFFFFFFFFFFFFFFFFFFFFFFFFFFFFFFF AND DUP2 JUMP JUMPDEST PUSH1 0x67 PUSH1 0x20 MSTORE DUP1 PUSH1 0x0 MSTORE PUSH1 0x40 PUSH1 0x0 KECCAK256 PUSH1 0x0 SWAP2 POP SLOAD SWAP1 PUSH2 0x100 EXP SWAP1 DIV PUSH1 0xFF AND DUP2 JUMP JUMPDEST PUSH1 0x0 PUSH2 0x31A PUSH2 0x8CC JUMP JUMPDEST PUSH20 0xFFFFFFFFFFFFFFFFFFFFFFFFFFFFFFFFFFFFFFFF AND PUSH2 0x338 PUSH2 0x5DF JUMP JUMPDEST PUSH20 0xFFFFFFFFFFFFFFFFFFFFFFFFFFFFFFFFFFFFFFFF AND EQ PUSH2 0x38E JUMPI PUSH1 0x40 MLOAD PUSH32 0x8C379A000000000000000000000000000000000000000000000000000000000 DUP2 MSTORE PUSH1 0x4 ADD PUSH2 0x385 SWAP1 PUSH2 0x19FA JUMP JUMPDEST PUSH1 0x40 MLOAD DUP1 SWAP2 SUB SWAP1 REVERT JUMPDEST DUP2 PUSH1 0x65 PUSH1 0x0 PUSH2 0x100 EXP DUP2 SLOAD DUP2 PUSH20 0xFFFFFFFFFFFFFFFFFFFFFFFFFFFFFFFFFFFFFFFF MUL NOT AND SWAP1 DUP4 PUSH20 0xFFFFFFFFFFFFFFFFFFFFFFFFFFFFFFFFFFFFFFFF AND MUL OR SWAP1 SSTORE POP PUSH1 0x1 SWAP1 POP SWAP2 SWAP1 POP JUMP JUMPDEST PUSH2 0x3E0 PUSH2 0x8CC JUMP JUMPDEST PUSH20 0xFFFFFFFFFFFFFFFFFFFFFFFFFFFFFFFFFFFFFFFF AND PUSH2 0x3FE PUSH2 0x5DF JUMP JUMPDEST PUSH20 0xFFFFFFFFFFFFFFFFFFFFFFFFFFFFFFFFFFFFFFFF AND EQ PUSH2 0x454 JUMPI PUSH1 0x40 MLOAD PUSH32 0x8C379A000000000000000000000000000000000000000000000000000000000 DUP2 MSTORE PUSH1 0x4 ADD PUSH2 0x44B SWAP1 PUSH2 0x19FA JUMP JUMPDEST PUSH1 0x40 MLOAD DUP1 SWAP2 SUB SWAP1 REVERT JUMPDEST PUSH2 0x45E PUSH1 0x0 PUSH2 0x937 JUMP JUMPDEST JUMP JUMPDEST PUSH1 0x0 PUSH1 0x67 PUSH1 0x0 CALLER PUSH20 0xFFFFFFFFFFFFFFFFFFFFFFFFFFFFFFFFFFFFFFFF AND PUSH20 0xFFFFFFFFFFFFFFFFFFFFFFFFFFFFFFFFFFFFFFFF AND DUP2 MSTORE PUSH1 0x20 ADD SWAP1 DUP2 MSTORE PUSH1 0x20 ADD PUSH1 0x0 KECCAK256 PUSH1 0x0 SWAP1 SLOAD SWAP1 PUSH2 0x100 EXP SWAP1 DIV PUSH1 0xFF AND PUSH2 0x4EE JUMPI PUSH1 0x40 MLOAD PUSH32 0x8C379A000000000000000000000000000000000000000000000000000000000 DUP2 MSTORE PUSH1 0x4 ADD PUSH2 0x4E5 SWAP1 PUSH2 0x19BA JUMP JUMPDEST PUSH1 0x40 MLOAD DUP1 SWAP2 SUB SWAP1 REVERT JUMPDEST DUP4 PUSH1 0x66 SLOAD TIMESTAMP PUSH2 0x4FD SWAP2 SWAP1 PUSH2 0x1AED JUMP JUMPDEST LT PUSH2 0x53D JUMPI PUSH1 0x40 MLOAD PUSH32 0x8C379A000000000000000000000000000000000000000000000000000000000 DUP2 MSTORE PUSH1 0x4 ADD PUSH2 0x534 SWAP1 PUSH2 0x191A JUMP JUMPDEST PUSH1 0x40 MLOAD DUP1 SWAP2 SUB SWAP1 REVERT JUMPDEST PUSH1 0x0 DUP6 DUP6 DUP6 PUSH1 0x40 MLOAD PUSH1 0x20 ADD PUSH2 0x554 SWAP4 SWAP3 SWAP2 SWAP1 PUSH2 0x1846 JUMP JUMPDEST PUSH1 0x40 MLOAD PUSH1 0x20 DUP2 DUP4 SUB SUB DUP2 MSTORE SWAP1 PUSH1 0x40 MSTORE DUP1 MLOAD SWAP1 PUSH1 0x20 ADD KECCAK256 SWAP1 POP PUSH1 0x0 PUSH2 0x580 PUSH2 0x57A DUP4 PUSH2 0x9FD JUMP JUMPDEST DUP6 PUSH2 0xA2D JUMP JUMPDEST SWAP1 POP DUP1 PUSH20 0xFFFFFFFFFFFFFFFFFFFFFFFFFFFFFFFFFFFFFFFF AND PUSH1 0x65 PUSH1 0x0 SWAP1 SLOAD SWAP1 PUSH2 0x100 EXP SWAP1 DIV PUSH20 0xFFFFFFFFFFFFFFFFFFFFFFFFFFFFFFFFFFFFFFFF AND PUSH20 0xFFFFFFFFFFFFFFFFFFFFFFFFFFFFFFFFFFFFFFFF AND EQ SWAP3 POP POP POP SWAP5 SWAP4 POP POP POP POP JUMP JUMPDEST PUSH1 0x0 PUSH1 0x33 PUSH1 0x0 SWAP1 SLOAD SWAP1 PUSH2 0x100 EXP SWAP1 DIV PUSH20 0xFFFFFFFFFFFFFFFFFFFFFFFFFFFFFFFFFFFFFFFF AND SWAP1 POP SWAP1 JUMP JUMPDEST PUSH1 0x66 SLOAD DUP2 JUMP JUMPDEST PUSH1 0x0 PUSH1 0x1 SWAP1 SLOAD SWAP1 PUSH2 0x100 EXP SWAP1 DIV PUSH1 0xFF AND DUP1 PUSH2 0x635 JUMPI POP PUSH1 0x0 DUP1 SLOAD SWAP1 PUSH2 0x100 EXP SWAP1 DIV PUSH1 0xFF AND ISZERO JUMPDEST PUSH2 0x674 JUMPI PUSH1 0x40 MLOAD PUSH32 0x8C379A000000000000000000000000000000000000000000000000000000000 DUP2 MSTORE PUSH1 0x4 ADD PUSH2 0x66B SWAP1 PUSH2 0x199A JUMP JUMPDEST PUSH1 0x40 MLOAD DUP1 SWAP2 SUB SWAP1 REVERT JUMPDEST PUSH1 0x0 DUP1 PUSH1 0x1 SWAP1 SLOAD SWAP1 PUSH2 0x100 EXP SWAP1 DIV PUSH1 0xFF AND ISZERO SWAP1 POP DUP1 ISZERO PUSH2 0x6C4 JUMPI PUSH1 0x1 PUSH1 0x0 PUSH1 0x1 PUSH2 0x100 EXP DUP2 SLOAD DUP2 PUSH1 0xFF MUL NOT AND SWAP1 DUP4 ISZERO ISZERO MUL OR SWAP1 SSTORE POP PUSH1 0x1 PUSH1 0x0 DUP1 PUSH2 0x100 EXP DUP2 SLOAD DUP2 PUSH1 0xFF MUL NOT AND SWAP1 DUP4 ISZERO ISZERO MUL OR SWAP1 SSTORE POP JUMPDEST PUSH2 0x6CC PUSH2 0xA54 JUMP JUMPDEST PUSH2 0x6D7 DUP3 PUSH1 0x1 PUSH2 0x8D4 JUMP JUMPDEST POP DUP2 PUSH1 0x65 PUSH1 0x0 PUSH2 0x100 EXP DUP2 SLOAD DUP2 PUSH20 0xFFFFFFFFFFFFFFFFFFFFFFFFFFFFFFFFFFFFFFFF MUL NOT AND SWAP1 DUP4 PUSH20 0xFFFFFFFFFFFFFFFFFFFFFFFFFFFFFFFFFFFFFFFF AND MUL OR SWAP1 SSTORE POP PUSH1 0x3C PUSH1 0x66 DUP2 SWAP1 SSTORE POP DUP1 ISZERO PUSH2 0x742 JUMPI PUSH1 0x0 DUP1 PUSH1 0x1 PUSH2 0x100 EXP DUP2 SLOAD DUP2 PUSH1 0xFF MUL NOT AND SWAP1 DUP4 ISZERO ISZERO MUL OR SWAP1 SSTORE POP JUMPDEST POP POP JUMP JUMPDEST PUSH1 0x0 PUSH2 0x750 PUSH2 0x8CC JUMP JUMPDEST PUSH20 0xFFFFFFFFFFFFFFFFFFFFFFFFFFFFFFFFFFFFFFFF AND PUSH2 0x76E PUSH2 0x5DF JUMP JUMPDEST PUSH20 0xFFFFFFFFFFFFFFFFFFFFFFFFFFFFFFFFFFFFFFFF AND EQ PUSH2 0x7C4 JUMPI PUSH1 0x40 MLOAD PUSH32 0x8C379A000000000000000000000000000000000000000000000000000000000 DUP2 MSTORE PUSH1 0x4 ADD PUSH2 0x7BB SWAP1 PUSH2 0x19FA JUMP JUMPDEST PUSH1 0x40 MLOAD DUP1 SWAP2 SUB SWAP1 REVERT JUMPDEST DUP2 PUSH1 0x66 DUP2 SWAP1 SSTORE POP PUSH1 0x1 SWAP1 POP SWAP2 SWAP1 POP JUMP JUMPDEST PUSH2 0x7DC PUSH2 0x8CC JUMP JUMPDEST PUSH20 0xFFFFFFFFFFFFFFFFFFFFFFFFFFFFFFFFFFFFFFFF AND PUSH2 0x7FA PUSH2 0x5DF JUMP JUMPDEST PUSH20 0xFFFFFFFFFFFFFFFFFFFFFFFFFFFFFFFFFFFFFFFF AND EQ PUSH2 0x850 JUMPI PUSH1 0x40 MLOAD PUSH32 0x8C379A000000000000000000000000000000000000000000000000000000000 DUP2 MSTORE PUSH1 0x4 ADD PUSH2 0x847 SWAP1 PUSH2 0x19FA JUMP JUMPDEST PUSH1 0x40 MLOAD DUP1 SWAP2 SUB SWAP1 REVERT JUMPDEST PUSH1 0x0 PUSH20 0xFFFFFFFFFFFFFFFFFFFFFFFFFFFFFFFFFFFFFFFF AND DUP2 PUSH20 0xFFFFFFFFFFFFFFFFFFFFFFFFFFFFFFFFFFFFFFFF AND EQ ISZERO PUSH2 0x8C0 JUMPI PUSH1 0x40 MLOAD PUSH32 0x8C379A000000000000000000000000000000000000000000000000000000000 DUP2 MSTORE PUSH1 0x4 ADD PUSH2 0x8B7 SWAP1 PUSH2 0x195A JUMP JUMPDEST PUSH1 0x40 MLOAD DUP1 SWAP2 SUB SWAP1 REVERT JUMPDEST PUSH2 0x8C9 DUP2 PUSH2 0x937 JUMP JUMPDEST POP JUMP JUMPDEST PUSH1 0x0 CALLER SWAP1 POP SWAP1 JUMP JUMPDEST PUSH1 0x0 DUP2 PUSH1 0x67 PUSH1 0x0 DUP6 PUSH20 0xFFFFFFFFFFFFFFFFFFFFFFFFFFFFFFFFFFFFFFFF AND PUSH20 0xFFFFFFFFFFFFFFFFFFFFFFFFFFFFFFFFFFFFFFFF AND DUP2 MSTORE PUSH1 0x20 ADD SWAP1 DUP2 MSTORE PUSH1 0x20 ADD PUSH1 0x0 KECCAK256 PUSH1 0x0 PUSH2 0x100 EXP DUP2 SLOAD DUP2 PUSH1 0xFF MUL NOT AND SWAP1 DUP4 ISZERO ISZERO MUL OR SWAP1 SSTORE POP PUSH1 0x1 SWAP1 POP SWAP3 SWAP2 POP POP JUMP JUMPDEST PUSH1 0x0 PUSH1 0x33 PUSH1 0x0 SWAP1 SLOAD SWAP1 PUSH2 0x100 EXP SWAP1 DIV PUSH20 0xFFFFFFFFFFFFFFFFFFFFFFFFFFFFFFFFFFFFFFFF AND SWAP1 POP DUP2 PUSH1 0x33 PUSH1 0x0 PUSH2 0x100 EXP DUP2 SLOAD DUP2 PUSH20 0xFFFFFFFFFFFFFFFFFFFFFFFFFFFFFFFFFFFFFFFF MUL NOT AND SWAP1 DUP4 PUSH20 0xFFFFFFFFFFFFFFFFFFFFFFFFFFFFFFFFFFFFFFFF AND MUL OR SWAP1 SSTORE POP DUP2 PUSH20 0xFFFFFFFFFFFFFFFFFFFFFFFFFFFFFFFFFFFFFFFF AND DUP2 PUSH20 0xFFFFFFFFFFFFFFFFFFFFFFFFFFFFFFFFFFFFFFFF AND PUSH32 0x8BE0079C531659141344CD1FD0A4F28419497F9722A3DAAFE3B4186F6B6457E0 PUSH1 0x40 MLOAD PUSH1 0x40 MLOAD DUP1 SWAP2 SUB SWAP1 LOG3 POP POP JUMP JUMPDEST PUSH1 0x0 DUP2 PUSH1 0x40 MLOAD PUSH1 0x20 ADD PUSH2 0xA10 SWAP2 SWAP1 PUSH2 0x1820 JUMP JUMPDEST PUSH1 0x40 MLOAD PUSH1 0x20 DUP2 DUP4 SUB SUB DUP2 MSTORE SWAP1 PUSH1 0x40 MSTORE DUP1 MLOAD SWAP1 PUSH1 0x20 ADD KECCAK256 SWAP1 POP SWAP2 SWAP1 POP JUMP JUMPDEST PUSH1 0x0 DUP1 PUSH1 0x0 PUSH2 0xA3C DUP6 DUP6 PUSH2 0xB3D JUMP JUMPDEST SWAP2 POP SWAP2 POP PUSH2 0xA49 DUP2 PUSH2 0xBC0 JUMP JUMPDEST DUP2 SWAP3 POP POP POP SWAP3 SWAP2 POP POP JUMP JUMPDEST PUSH1 0x0 PUSH1 0x1 SWAP1 SLOAD SWAP1 PUSH2 0x100 EXP SWAP1 DIV PUSH1 0xFF AND DUP1 PUSH2 0xA7A JUMPI POP PUSH1 0x0 DUP1 SLOAD SWAP1 PUSH2 0x100 EXP SWAP1 DIV PUSH1 0xFF AND ISZERO JUMPDEST PUSH2 0xAB9 JUMPI PUSH1 0x40 MLOAD PUSH32 0x8C379A000000000000000000000000000000000000000000000000000000000 DUP2 MSTORE PUSH1 0x4 ADD PUSH2 0xAB0 SWAP1 PUSH2 0x199A JUMP JUMPDEST PUSH1 0x40 MLOAD DUP1 SWAP2 SUB SWAP1 REVERT JUMPDEST PUSH1 0x0 DUP1 PUSH1 0x1 SWAP1 SLOAD SWAP1 PUSH2 0x100 EXP SWAP1 DIV PUSH1 0xFF AND ISZERO SWAP1 POP DUP1 ISZERO PUSH2 0xB09 JUMPI PUSH1 0x1 PUSH1 0x0 PUSH1 0x1 PUSH2 0x100 EXP DUP2 SLOAD DUP2 PUSH1 0xFF MUL NOT AND SWAP1 DUP4 ISZERO ISZERO MUL OR SWAP1 SSTORE POP PUSH1 0x1 PUSH1 0x0 DUP1 PUSH2 0x100 EXP DUP2 SLOAD DUP2 PUSH1 0xFF MUL NOT AND SWAP1 DUP4 ISZERO ISZERO MUL OR SWAP1 SSTORE POP JUMPDEST PUSH2 0xB11 PUSH2 0xF11 JUMP JUMPDEST PUSH2 0xB19 PUSH2 0xFEA JUMP JUMPDEST DUP1 ISZERO PUSH2 0xB3A JUMPI PUSH1 0x0 DUP1 PUSH1 0x1 PUSH2 0x100 EXP DUP2 SLOAD DUP2 PUSH1 0xFF MUL NOT AND SWAP1 DUP4 ISZERO ISZERO MUL OR SWAP1 SSTORE POP JUMPDEST POP JUMP JUMPDEST PUSH1 0x0 DUP1 PUSH1 0x41 DUP4 MLOAD EQ ISZERO PUSH2 0xB7F JUMPI PUSH1 0x0 DUP1 PUSH1 0x0 PUSH1 0x20 DUP7 ADD MLOAD SWAP3 POP PUSH1 0x40 DUP7 ADD MLOAD SWAP2 POP PUSH1 0x60 DUP7 ADD MLOAD PUSH1 0x0 BYTE SWAP1 POP PUSH2 0xB73 DUP8 DUP3 DUP6 DUP6 PUSH2 0x10D3 JUMP JUMPDEST SWAP5 POP SWAP5 POP POP POP POP PUSH2 0xBB9 JUMP JUMPDEST PUSH1 0x40 DUP4 MLOAD EQ ISZERO PUSH2 0xBB0 JUMPI PUSH1 0x0 DUP1 PUSH1 0x20 DUP6 ADD MLOAD SWAP2 POP PUSH1 0x40 DUP6 ADD MLOAD SWAP1 POP PUSH2 0xBA5 DUP7 DUP4 DUP4 PUSH2 0x11E0 JUMP JUMPDEST SWAP4 POP SWAP4 POP POP POP PUSH2 0xBB9 JUMP JUMPDEST PUSH1 0x0 PUSH1 0x2 SWAP2 POP SWAP2 POP JUMPDEST SWAP3 POP SWAP3 SWAP1 POP JUMP JUMPDEST PUSH1 0x0 PUSH1 0x4 DUP2 GT ISZERO PUSH2 0xBFA JUMPI PUSH32 0x4E487B7100000000000000000000000000000000000000000000000000000000 PUSH1 0x0 MSTORE PUSH1 0x21 PUSH1 0x4 MSTORE PUSH1 0x24 PUSH1 0x0 REVERT JUMPDEST DUP2 PUSH1 0x4 DUP2 GT ISZERO PUSH2 0xC33 JUMPI PUSH32 0x4E487B7100000000000000000000000000000000000000000000000000000000 PUSH1 0x0 MSTORE PUSH1 0x21 PUSH1 0x4 MSTORE PUSH1 0x24 PUSH1 0x0 REVERT JUMPDEST EQ ISZERO PUSH2 0xC3E JUMPI PUSH2 0xF0E JUMP JUMPDEST PUSH1 0x1 PUSH1 0x4 DUP2 GT ISZERO PUSH2 0xC78 JUMPI PUSH32 0x4E487B7100000000000000000000000000000000000000000000000000000000 PUSH1 0x0 MSTORE PUSH1 0x21 PUSH1 0x4 MSTORE PUSH1 0x24 PUSH1 0x0 REVERT JUMPDEST DUP2 PUSH1 0x4 DUP2 GT ISZERO PUSH2 0xCB1 JUMPI PUSH32 0x4E487B7100000000000000000000000000000000000000000000000000000000 PUSH1 0x0 MSTORE PUSH1 0x21 PUSH1 0x4 MSTORE PUSH1 0x24 PUSH1 0x0 REVERT JUMPDEST EQ ISZERO PUSH2 0xCF2 JUMPI PUSH1 0x40 MLOAD PUSH32 0x8C379A000000000000000000000000000000000000000000000000000000000 DUP2 MSTORE PUSH1 0x4 ADD PUSH2 0xCE9 SWAP1 PUSH2 0x18FA JUMP JUMPDEST PUSH1 0x40 MLOAD DUP1 SWAP2 SUB SWAP1 REVERT JUMPDEST PUSH1 0x2 PUSH1 0x4 DUP2 GT ISZERO PUSH2 0xD2C JUMPI PUSH32 0x4E487B7100000000000000000000000000000000000000000000000000000000 PUSH1 0x0 MSTORE PUSH1 0x21 PUSH1 0x4 MSTORE PUSH1 0x24 PUSH1 0x0 REVERT JUMPDEST DUP2 PUSH1 0x4 DUP2 GT ISZERO PUSH2 0xD65 JUMPI PUSH32 0x4E487B7100000000000000000000000000000000000000000000000000000000 PUSH1 0x0 MSTORE PUSH1 0x21 PUSH1 0x4 MSTORE PUSH1 0x24 PUSH1 0x0 REVERT JUMPDEST EQ ISZERO PUSH2 0xDA6 JUMPI PUSH1 0x40 MLOAD PUSH32 0x8C379A000000000000000000000000000000000000000000000000000000000 DUP2 MSTORE PUSH1 0x4 ADD PUSH2 0xD9D SWAP1 PUSH2 0x193A JUMP JUMPDEST PUSH1 0x40 MLOAD DUP1 SWAP2 SUB SWAP1 REVERT JUMPDEST PUSH1 0x3 PUSH1 0x4 DUP2 GT ISZERO PUSH2 0xDE0 JUMPI PUSH32 0x4E487B7100000000000000000000000000000000000000000000000000000000 PUSH1 0x0 MSTORE PUSH1 0x21 PUSH1 0x4 MSTORE PUSH1 0x24 PUSH1 0x0 REVERT JUMPDEST DUP2 PUSH1 0x4 DUP2 GT ISZERO PUSH2 0xE19 JUMPI PUSH32 0x4E487B7100000000000000000000000000000000000000000000000000000000 PUSH1 0x0 MSTORE PUSH1 0x21 PUSH1 0x4 MSTORE PUSH1 0x24 PUSH1 0x0 REVERT JUMPDEST EQ ISZERO PUSH2 0xE5A JUMPI PUSH1 0x40 MLOAD PUSH32 0x8C379A000000000000000000000000000000000000000000000000000000000 DUP2 MSTORE PUSH1 0x4 ADD PUSH2 0xE51 SWAP1 PUSH2 0x197A JUMP JUMPDEST PUSH1 0x40 MLOAD DUP1 SWAP2 SUB SWAP1 REVERT JUMPDEST PUSH1 0x4 DUP1 DUP2 GT ISZERO PUSH2 0xE93 JUMPI PUSH32 0x4E487B7100000000000000000000000000000000000000000000000000000000 PUSH1 0x0 MSTORE PUSH1 0x21 PUSH1 0x4 MSTORE PUSH1 0x24 PUSH1 0x0 REVERT JUMPDEST DUP2 PUSH1 0x4 DUP2 GT ISZERO PUSH2 0xECC JUMPI PUSH32 0x4E487B7100000000000000000000000000000000000000000000000000000000 PUSH1 0x0 MSTORE PUSH1 0x21 PUSH1 0x4 MSTORE PUSH1 0x24 PUSH1 0x0 REVERT JUMPDEST EQ ISZERO PUSH2 0xF0D JUMPI PUSH1 0x40 MLOAD PUSH32 0x8C379A000000000000000000000000000000000000000000000000000000000 DUP2 MSTORE PUSH1 0x4 ADD PUSH2 0xF04 SWAP1 PUSH2 0x19DA JUMP JUMPDEST PUSH1 0x40 MLOAD DUP1 SWAP2 SUB SWAP1 REVERT JUMPDEST JUMPDEST POP JUMP JUMPDEST PUSH1 0x0 PUSH1 0x1 SWAP1 SLOAD SWAP1 PUSH2 0x100 EXP SWAP1 DIV PUSH1 0xFF AND DUP1 PUSH2 0xF37 JUMPI POP PUSH1 0x0 DUP1 SLOAD SWAP1 PUSH2 0x100 EXP SWAP1 DIV PUSH1 0xFF AND ISZERO JUMPDEST PUSH2 0xF76 JUMPI PUSH1 0x40 MLOAD PUSH32 0x8C379A000000000000000000000000000000000000000000000000000000000 DUP2 MSTORE PUSH1 0x4 ADD PUSH2 0xF6D SWAP1 PUSH2 0x199A JUMP JUMPDEST PUSH1 0x40 MLOAD DUP1 SWAP2 SUB SWAP1 REVERT JUMPDEST PUSH1 0x0 DUP1 PUSH1 0x1 SWAP1 SLOAD SWAP1 PUSH2 0x100 EXP SWAP1 DIV PUSH1 0xFF AND ISZERO SWAP1 POP DUP1 ISZERO PUSH2 0xFC6 JUMPI PUSH1 0x1 PUSH1 0x0 PUSH1 0x1 PUSH2 0x100 EXP DUP2 SLOAD DUP2 PUSH1 0xFF MUL NOT AND SWAP1 DUP4 ISZERO ISZERO MUL OR SWAP1 SSTORE POP PUSH1 0x1 PUSH1 0x0 DUP1 PUSH2 0x100 EXP DUP2 SLOAD DUP2 PUSH1 0xFF MUL NOT AND SWAP1 DUP4 ISZERO ISZERO MUL OR SWAP1 SSTORE POP JUMPDEST DUP1 ISZERO PUSH2 0xFE7 JUMPI PUSH1 0x0 DUP1 PUSH1 0x1 PUSH2 0x100 EXP DUP2 SLOAD DUP2 PUSH1 0xFF MUL NOT AND SWAP1 DUP4 ISZERO ISZERO MUL OR SWAP1 SSTORE POP JUMPDEST POP JUMP JUMPDEST PUSH1 0x0 PUSH1 0x1 SWAP1 SLOAD SWAP1 PUSH2 0x100 EXP SWAP1 DIV PUSH1 0xFF AND DUP1 PUSH2 0x1010 JUMPI POP PUSH1 0x0 DUP1 SLOAD SWAP1 PUSH2 0x100 EXP SWAP1 DIV PUSH1 0xFF AND ISZERO JUMPDEST PUSH2 0x104F JUMPI PUSH1 0x40 MLOAD PUSH32 0x8C379A000000000000000000000000000000000000000000000000000000000 DUP2 MSTORE PUSH1 0x4 ADD PUSH2 0x1046 SWAP1 PUSH2 0x199A JUMP JUMPDEST PUSH1 0x40 MLOAD DUP1 SWAP2 SUB SWAP1 REVERT JUMPDEST PUSH1 0x0 DUP1 PUSH1 0x1 SWAP1 SLOAD SWAP1 PUSH2 0x100 EXP SWAP1 DIV PUSH1 0xFF AND ISZERO SWAP1 POP DUP1 ISZERO PUSH2 0x109F JUMPI PUSH1 0x1 PUSH1 0x0 PUSH1 0x1 PUSH2 0x100 EXP DUP2 SLOAD DUP2 PUSH1 0xFF MUL NOT AND SWAP1 DUP4 ISZERO ISZERO MUL OR SWAP1 SSTORE POP PUSH1 0x1 PUSH1 0x0 DUP1 PUSH2 0x100 EXP DUP2 SLOAD DUP2 PUSH1 0xFF MUL NOT AND SWAP1 DUP4 ISZERO ISZERO MUL OR SWAP1 SSTORE POP JUMPDEST PUSH2 0x10AF PUSH2 0x10AA PUSH2 0x8CC JUMP JUMPDEST PUSH2 0x937 JUMP JUMPDEST DUP1 ISZERO PUSH2 0x10D0 JUMPI PUSH1 0x0 DUP1 PUSH1 0x1 PUSH2 0x100 EXP DUP2 SLOAD DUP2 PUSH1 0xFF MUL NOT AND SWAP1 DUP4 ISZERO ISZERO MUL OR SWAP1 SSTORE POP JUMPDEST POP JUMP JUMPDEST PUSH1 0x0 DUP1 PUSH32 0x7FFFFFFFFFFFFFFFFFFFFFFFFFFFFFFF5D576E7357A4501DDFE92F46681B20A0 DUP4 PUSH1 0x0 SHR GT ISZERO PUSH2 0x110E JUMPI PUSH1 0x0 PUSH1 0x3 SWAP2 POP SWAP2 POP PUSH2 0x11D7 JUMP JUMPDEST PUSH1 0x1B DUP6 PUSH1 0xFF AND EQ ISZERO DUP1 ISZERO PUSH2 0x1126 JUMPI POP PUSH1 0x1C DUP6 PUSH1 0xFF AND EQ ISZERO JUMPDEST ISZERO PUSH2 0x1138 JUMPI PUSH1 0x0 PUSH1 0x4 SWAP2 POP SWAP2 POP PUSH2 0x11D7 JUMP JUMPDEST PUSH1 0x0 PUSH1 0x1 DUP8 DUP8 DUP8 DUP8 PUSH1 0x40 MLOAD PUSH1 0x0 DUP2 MSTORE PUSH1 0x20 ADD PUSH1 0x40 MSTORE PUSH1 0x40 MLOAD PUSH2 0x115D SWAP5 SWAP4 SWAP3 SWAP2 SWAP1 PUSH2 0x18B5 JUMP JUMPDEST PUSH1 0x20 PUSH1 0x40 MLOAD PUSH1 0x20 DUP2 SUB SWAP1 DUP1 DUP5 SUB SWAP1 DUP6 GAS STATICCALL ISZERO DUP1 ISZERO PUSH2 0x117F JUMPI RETURNDATASIZE PUSH1 0x0 DUP1 RETURNDATACOPY RETURNDATASIZE PUSH1 0x0 REVERT JUMPDEST POP POP POP PUSH1 0x20 PUSH1 0x40 MLOAD SUB MLOAD SWAP1 POP PUSH1 0x0 PUSH20 0xFFFFFFFFFFFFFFFFFFFFFFFFFFFFFFFFFFFFFFFF AND DUP2 PUSH20 0xFFFFFFFFFFFFFFFFFFFFFFFFFFFFFFFFFFFFFFFF AND EQ ISZERO PUSH2 0x11CE JUMPI PUSH1 0x0 PUSH1 0x1 SWAP3 POP SWAP3 POP POP PUSH2 0x11D7 JUMP JUMPDEST DUP1 PUSH1 0x0 SWAP3 POP SWAP3 POP POP JUMPDEST SWAP5 POP SWAP5 SWAP3 POP POP POP JUMP JUMPDEST PUSH1 0x0 DUP1 PUSH1 0x0 DUP1 PUSH32 0x7FFFFFFFFFFFFFFFFFFFFFFFFFFFFFFFFFFFFFFFFFFFFFFFFFFFFFFFFFFFFFFF DUP6 AND SWAP2 POP PUSH1 0x1B DUP6 PUSH1 0xFF SHR ADD SWAP1 POP PUSH2 0x1220 DUP8 DUP3 DUP9 DUP6 PUSH2 0x10D3 JUMP JUMPDEST SWAP4 POP SWAP4 POP POP POP SWAP4 POP SWAP4 SWAP2 POP POP JUMP JUMPDEST PUSH1 0x0 PUSH2 0x1241 PUSH2 0x123C DUP5 PUSH2 0x1A66 JUMP JUMPDEST PUSH2 0x1A35 JUMP JUMPDEST SWAP1 POP DUP3 DUP2 MSTORE PUSH1 0x20 DUP2 ADD DUP5 DUP5 DUP5 ADD GT ISZERO PUSH2 0x1259 JUMPI PUSH1 0x0 DUP1 REVERT JUMPDEST PUSH2 0x1264 DUP5 DUP3 DUP6 PUSH2 0x1B80 JUMP JUMPDEST POP SWAP4 SWAP3 POP POP POP JUMP JUMPDEST PUSH1 0x0 PUSH2 0x127F PUSH2 0x127A DUP5 PUSH2 0x1A96 JUMP JUMPDEST PUSH2 0x1A35 JUMP JUMPDEST SWAP1 POP DUP3 DUP2 MSTORE PUSH1 0x20 DUP2 ADD DUP5 DUP5 DUP5 ADD GT ISZERO PUSH2 0x1297 JUMPI PUSH1 0x0 DUP1 REVERT JUMPDEST PUSH2 0x12A2 DUP5 DUP3 DUP6 PUSH2 0x1B80 JUMP JUMPDEST POP SWAP4 SWAP3 POP POP POP JUMP JUMPDEST PUSH1 0x0 DUP2 CALLDATALOAD SWAP1 POP PUSH2 0x12B9 DUP2 PUSH2 0x1C34 JUMP JUMPDEST SWAP3 SWAP2 POP POP JUMP JUMPDEST PUSH1 0x0 DUP2 CALLDATALOAD SWAP1 POP PUSH2 0x12CE DUP2 PUSH2 0x1C4B JUMP JUMPDEST SWAP3 SWAP2 POP POP JUMP JUMPDEST PUSH1 0x0 DUP3 PUSH1 0x1F DUP4 ADD SLT PUSH2 0x12E5 JUMPI PUSH1 0x0 DUP1 REVERT JUMPDEST DUP2 CALLDATALOAD PUSH2 0x12F5 DUP5 DUP3 PUSH1 0x20 DUP7 ADD PUSH2 0x122E JUMP JUMPDEST SWAP2 POP POP SWAP3 SWAP2 POP POP JUMP JUMPDEST PUSH1 0x0 DUP3 PUSH1 0x1F DUP4 ADD SLT PUSH2 0x130F JUMPI PUSH1 0x0 DUP1 REVERT JUMPDEST DUP2 CALLDATALOAD PUSH2 0x131F DUP5 DUP3 PUSH1 0x20 DUP7 ADD PUSH2 0x126C JUMP JUMPDEST SWAP2 POP POP SWAP3 SWAP2 POP POP JUMP JUMPDEST PUSH1 0x0 DUP2 CALLDATALOAD SWAP1 POP PUSH2 0x1337 DUP2 PUSH2 0x1C62 JUMP JUMPDEST SWAP3 SWAP2 POP POP JUMP JUMPDEST PUSH1 0x0 PUSH1 0x20 DUP3 DUP5 SUB SLT ISZERO PUSH2 0x134F JUMPI PUSH1 0x0 DUP1 REVERT JUMPDEST PUSH1 0x0 PUSH2 0x135D DUP5 DUP3 DUP6 ADD PUSH2 0x12AA JUMP JUMPDEST SWAP2 POP POP SWAP3 SWAP2 POP POP JUMP JUMPDEST PUSH1 0x0 DUP1 PUSH1 0x40 DUP4 DUP6 SUB SLT ISZERO PUSH2 0x1379 JUMPI PUSH1 0x0 DUP1 REVERT JUMPDEST PUSH1 0x0 PUSH2 0x1387 DUP6 DUP3 DUP7 ADD PUSH2 0x12AA JUMP JUMPDEST SWAP3 POP POP PUSH1 0x20 PUSH2 0x1398 DUP6 DUP3 DUP7 ADD PUSH2 0x12BF JUMP JUMPDEST SWAP2 POP POP SWAP3 POP SWAP3 SWAP1 POP JUMP JUMPDEST PUSH1 0x0 PUSH1 0x20 DUP3 DUP5 SUB SLT ISZERO PUSH2 0x13B4 JUMPI PUSH1 0x0 DUP1 REVERT JUMPDEST PUSH1 0x0 PUSH2 0x13C2 DUP5 DUP3 DUP6 ADD PUSH2 0x1328 JUMP JUMPDEST SWAP2 POP POP SWAP3 SWAP2 POP POP JUMP JUMPDEST PUSH1 0x0 DUP1 PUSH1 0x0 DUP1 PUSH1 0x80 DUP6 DUP8 SUB SLT ISZERO PUSH2 0x13E1 JUMPI PUSH1 0x0 DUP1 REVERT JUMPDEST PUSH1 0x0 PUSH2 0x13EF DUP8 DUP3 DUP9 ADD PUSH2 0x1328 JUMP JUMPDEST SWAP5 POP POP PUSH1 0x20 PUSH2 0x1400 DUP8 DUP3 DUP9 ADD PUSH2 0x1328 JUMP JUMPDEST SWAP4 POP POP PUSH1 0x40 DUP6 ADD CALLDATALOAD PUSH8 0xFFFFFFFFFFFFFFFF DUP2 GT ISZERO PUSH2 0x141D JUMPI PUSH1 0x0 DUP1 REVERT JUMPDEST PUSH2 0x1429 DUP8 DUP3 DUP9 ADD PUSH2 0x12FE JUMP JUMPDEST SWAP3 POP POP PUSH1 0x60 DUP6 ADD CALLDATALOAD PUSH8 0xFFFFFFFFFFFFFFFF DUP2 GT ISZERO PUSH2 0x1446 JUMPI PUSH1 0x0 DUP1 REVERT JUMPDEST PUSH2 0x1452 DUP8 DUP3 DUP9 ADD PUSH2 0x12D4 JUMP JUMPDEST SWAP2 POP POP SWAP3 SWAP6 SWAP2 SWAP5 POP SWAP3 POP JUMP JUMPDEST PUSH2 0x1467 DUP2 PUSH2 0x1B21 JUMP JUMPDEST DUP3 MSTORE POP POP JUMP JUMPDEST PUSH2 0x1476 DUP2 PUSH2 0x1B33 JUMP JUMPDEST DUP3 MSTORE POP POP JUMP JUMPDEST PUSH2 0x1485 DUP2 PUSH2 0x1B3F JUMP JUMPDEST DUP3 MSTORE POP POP JUMP JUMPDEST PUSH2 0x149C PUSH2 0x1497 DUP3 PUSH2 0x1B3F JUMP JUMPDEST PUSH2 0x1BC2 JUMP JUMPDEST DUP3 MSTORE POP POP JUMP JUMPDEST PUSH1 0x0 PUSH2 0x14AD DUP3 PUSH2 0x1AC6 JUMP JUMPDEST PUSH2 0x14B7 DUP2 DUP6 PUSH2 0x1AE2 JUMP JUMPDEST SWAP4 POP PUSH2 0x14C7 DUP2 DUP6 PUSH1 0x20 DUP7 ADD PUSH2 0x1B8F JUMP JUMPDEST DUP1 DUP5 ADD SWAP2 POP POP SWAP3 SWAP2 POP POP JUMP JUMPDEST PUSH1 0x0 PUSH2 0x14E0 PUSH1 0x18 DUP4 PUSH2 0x1AD1 JUMP JUMPDEST SWAP2 POP PUSH32 0x45434453413A20696E76616C6964207369676E61747572650000000000000000 PUSH1 0x0 DUP4 ADD MSTORE PUSH1 0x20 DUP3 ADD SWAP1 POP SWAP2 SWAP1 POP JUMP JUMPDEST PUSH1 0x0 PUSH2 0x1520 PUSH1 0xD DUP4 PUSH2 0x1AD1 JUMP JUMPDEST SWAP2 POP PUSH32 0x74696D657374616D702065727200000000000000000000000000000000000000 PUSH1 0x0 DUP4 ADD MSTORE PUSH1 0x20 DUP3 ADD SWAP1 POP SWAP2 SWAP1 POP JUMP JUMPDEST PUSH1 0x0 PUSH2 0x1560 PUSH1 0x1F DUP4 PUSH2 0x1AD1 JUMP JUMPDEST SWAP2 POP PUSH32 0x45434453413A20696E76616C6964207369676E6174757265206C656E67746800 PUSH1 0x0 DUP4 ADD MSTORE PUSH1 0x20 DUP3 ADD SWAP1 POP SWAP2 SWAP1 POP JUMP JUMPDEST PUSH1 0x0 PUSH2 0x15A0 PUSH1 0x1C DUP4 PUSH2 0x1AE2 JUMP JUMPDEST SWAP2 POP PUSH32 0x19457468657265756D205369676E6564204D6573736167653A0A333200000000 PUSH1 0x0 DUP4 ADD MSTORE PUSH1 0x1C DUP3 ADD SWAP1 POP SWAP2 SWAP1 POP JUMP JUMPDEST PUSH1 0x0 PUSH2 0x15E0 PUSH1 0x26 DUP4 PUSH2 0x1AD1 JUMP JUMPDEST SWAP2 POP PUSH32 0x4F776E61626C653A206E6577206F776E657220697320746865207A65726F2061 PUSH1 0x0 DUP4 ADD MSTORE PUSH32 0x6464726573730000000000000000000000000000000000000000000000000000 PUSH1 0x20 DUP4 ADD MSTORE PUSH1 0x40 DUP3 ADD SWAP1 POP SWAP2 SWAP1 POP JUMP JUMPDEST PUSH1 0x0 PUSH2 0x1646 PUSH1 0x22 DUP4 PUSH2 0x1AD1 JUMP JUMPDEST SWAP2 POP PUSH32 0x45434453413A20696E76616C6964207369676E6174757265202773272076616C PUSH1 0x0 DUP4 ADD MSTORE PUSH32 0x7565000000000000000000000000000000000000000000000000000000000000 PUSH1 0x20 DUP4 ADD MSTORE PUSH1 0x40 DUP3 ADD SWAP1 POP SWAP2 SWAP1 POP JUMP JUMPDEST PUSH1 0x0 PUSH2 0x16AC PUSH1 0x2E DUP4 PUSH2 0x1AD1 JUMP JUMPDEST SWAP2 POP PUSH32 0x496E697469616C697A61626C653A20636F6E747261637420697320616C726561 PUSH1 0x0 DUP4 ADD MSTORE PUSH32 0x647920696E697469616C697A6564000000000000000000000000000000000000 PUSH1 0x20 DUP4 ADD MSTORE PUSH1 0x40 DUP3 ADD SWAP1 POP SWAP2 SWAP1 POP JUMP JUMPDEST PUSH1 0x0 PUSH2 0x1712 PUSH1 0xC DUP4 PUSH2 0x1AD1 JUMP JUMPDEST SWAP2 POP PUSH32 0x6578656375746F72206572720000000000000000000000000000000000000000 PUSH1 0x0 DUP4 ADD MSTORE PUSH1 0x20 DUP3 ADD SWAP1 POP SWAP2 SWAP1 POP JUMP JUMPDEST PUSH1 0x0 PUSH2 0x1752 PUSH1 0x22 DUP4 PUSH2 0x1AD1 JUMP JUMPDEST SWAP2 POP PUSH32 0x45434453413A20696E76616C6964207369676E6174757265202776272076616C PUSH1 0x0 DUP4 ADD MSTORE PUSH32 0x7565000000000000000000000000000000000000000000000000000000000000 PUSH1 0x20 DUP4 ADD MSTORE PUSH1 0x40 DUP3 ADD SWAP1 POP SWAP2 SWAP1 POP JUMP JUMPDEST PUSH1 0x0 PUSH2 0x17B8 PUSH1 0x20 DUP4 PUSH2 0x1AD1 JUMP JUMPDEST SWAP2 POP PUSH32 0x4F776E61626C653A2063616C6C6572206973206E6F7420746865206F776E6572 PUSH1 0x0 DUP4 ADD MSTORE PUSH1 0x20 DUP3 ADD SWAP1 POP SWAP2 SWAP1 POP JUMP JUMPDEST PUSH2 0x17F4 DUP2 PUSH2 0x1B69 JUMP JUMPDEST DUP3 MSTORE POP POP JUMP JUMPDEST PUSH2 0x180B PUSH2 0x1806 DUP3 PUSH2 0x1B69 JUMP JUMPDEST PUSH2 0x1BCC JUMP JUMPDEST DUP3 MSTORE POP POP JUMP JUMPDEST PUSH2 0x181A DUP2 PUSH2 0x1B73 JUMP JUMPDEST DUP3 MSTORE POP POP JUMP JUMPDEST PUSH1 0x0 PUSH2 0x182B DUP3 PUSH2 0x1593 JUMP JUMPDEST SWAP2 POP PUSH2 0x1837 DUP3 DUP5 PUSH2 0x148B JUMP JUMPDEST PUSH1 0x20 DUP3 ADD SWAP2 POP DUP2 SWAP1 POP SWAP3 SWAP2 POP POP JUMP JUMPDEST PUSH1 0x0 PUSH2 0x1852 DUP3 DUP7 PUSH2 0x17FA JUMP JUMPDEST PUSH1 0x20 DUP3 ADD SWAP2 POP PUSH2 0x1862 DUP3 DUP6 PUSH2 0x17FA JUMP JUMPDEST PUSH1 0x20 DUP3 ADD SWAP2 POP PUSH2 0x1872 DUP3 DUP5 PUSH2 0x14A2 JUMP JUMPDEST SWAP2 POP DUP2 SWAP1 POP SWAP5 SWAP4 POP POP POP POP JUMP JUMPDEST PUSH1 0x0 PUSH1 0x20 DUP3 ADD SWAP1 POP PUSH2 0x1894 PUSH1 0x0 DUP4 ADD DUP5 PUSH2 0x145E JUMP JUMPDEST SWAP3 SWAP2 POP POP JUMP JUMPDEST PUSH1 0x0 PUSH1 0x20 DUP3 ADD SWAP1 POP PUSH2 0x18AF PUSH1 0x0 DUP4 ADD DUP5 PUSH2 0x146D JUMP JUMPDEST SWAP3 SWAP2 POP POP JUMP JUMPDEST PUSH1 0x0 PUSH1 0x80 DUP3 ADD SWAP1 POP PUSH2 0x18CA PUSH1 0x0 DUP4 ADD DUP8 PUSH2 0x147C JUMP JUMPDEST PUSH2 0x18D7 PUSH1 0x20 DUP4 ADD DUP7 PUSH2 0x1811 JUMP JUMPDEST PUSH2 0x18E4 PUSH1 0x40 DUP4 ADD DUP6 PUSH2 0x147C JUMP JUMPDEST PUSH2 0x18F1 PUSH1 0x60 DUP4 ADD DUP5 PUSH2 0x147C JUMP JUMPDEST SWAP6 SWAP5 POP POP POP POP POP JUMP JUMPDEST PUSH1 0x0 PUSH1 0x20 DUP3 ADD SWAP1 POP DUP2 DUP2 SUB PUSH1 0x0 DUP4 ADD MSTORE PUSH2 0x1913 DUP2 PUSH2 0x14D3 JUMP JUMPDEST SWAP1 POP SWAP2 SWAP1 POP JUMP JUMPDEST PUSH1 0x0 PUSH1 0x20 DUP3 ADD SWAP1 POP DUP2 DUP2 SUB PUSH1 0x0 DUP4 ADD MSTORE PUSH2 0x1933 DUP2 PUSH2 0x1513 JUMP JUMPDEST SWAP1 POP SWAP2 SWAP1 POP JUMP JUMPDEST PUSH1 0x0 PUSH1 0x20 DUP3 ADD SWAP1 POP DUP2 DUP2 SUB PUSH1 0x0 DUP4 ADD MSTORE PUSH2 0x1953 DUP2 PUSH2 0x1553 JUMP JUMPDEST SWAP1 POP SWAP2 SWAP1 POP JUMP JUMPDEST PUSH1 0x0 PUSH1 0x20 DUP3 ADD SWAP1 POP DUP2 DUP2 SUB PUSH1 0x0 DUP4 ADD MSTORE PUSH2 0x1973 DUP2 PUSH2 0x15D3 JUMP JUMPDEST SWAP1 POP SWAP2 SWAP1 POP JUMP JUMPDEST PUSH1 0x0 PUSH1 0x20 DUP3 ADD SWAP1 POP DUP2 DUP2 SUB PUSH1 0x0 DUP4 ADD MSTORE PUSH2 0x1993 DUP2 PUSH2 0x1639 JUMP JUMPDEST SWAP1 POP SWAP2 SWAP1 POP JUMP JUMPDEST PUSH1 0x0 PUSH1 0x20 DUP3 ADD SWAP1 POP DUP2 DUP2 SUB PUSH1 0x0 DUP4 ADD MSTORE PUSH2 0x19B3 DUP2 PUSH2 0x169F JUMP JUMPDEST SWAP1 POP SWAP2 SWAP1 POP JUMP JUMPDEST PUSH1 0x0 PUSH1 0x20 DUP3 ADD SWAP1 POP DUP2 DUP2 SUB PUSH1 0x0 DUP4 ADD MSTORE PUSH2 0x19D3 DUP2 PUSH2 0x1705 JUMP JUMPDEST SWAP1 POP SWAP2 SWAP1 POP JUMP JUMPDEST PUSH1 0x0 PUSH1 0x20 DUP3 ADD SWAP1 POP DUP2 DUP2 SUB PUSH1 0x0 DUP4 ADD MSTORE PUSH2 0x19F3 DUP2 PUSH2 0x1745 JUMP JUMPDEST SWAP1 POP SWAP2 SWAP1 POP JUMP JUMPDEST PUSH1 0x0 PUSH1 0x20 DUP3 ADD SWAP1 POP DUP2 DUP2 SUB PUSH1 0x0 DUP4 ADD MSTORE PUSH2 0x1A13 DUP2 PUSH2 0x17AB JUMP JUMPDEST SWAP1 POP SWAP2 SWAP1 POP JUMP JUMPDEST PUSH1 0x0 PUSH1 0x20 DUP3 ADD SWAP1 POP PUSH2 0x1A2F PUSH1 0x0 DUP4 ADD DUP5 PUSH2 0x17EB JUMP JUMPDEST SWAP3 SWAP2 POP POP JUMP JUMPDEST PUSH1 0x0 PUSH1 0x40 MLOAD SWAP1 POP DUP2 DUP2 ADD DUP2 DUP2 LT PUSH8 0xFFFFFFFFFFFFFFFF DUP3 GT OR ISZERO PUSH2 0x1A5C JUMPI PUSH2 0x1A5B PUSH2 0x1C05 JUMP JUMPDEST JUMPDEST DUP1 PUSH1 0x40 MSTORE POP SWAP2 SWAP1 POP JUMP JUMPDEST PUSH1 0x0 PUSH8 0xFFFFFFFFFFFFFFFF DUP3 GT ISZERO PUSH2 0x1A81 JUMPI PUSH2 0x1A80 PUSH2 0x1C05 JUMP JUMPDEST JUMPDEST PUSH1 0x1F NOT PUSH1 0x1F DUP4 ADD AND SWAP1 POP PUSH1 0x20 DUP2 ADD SWAP1 POP SWAP2 SWAP1 POP JUMP JUMPDEST PUSH1 0x0 PUSH8 0xFFFFFFFFFFFFFFFF DUP3 GT ISZERO PUSH2 0x1AB1 JUMPI PUSH2 0x1AB0 PUSH2 0x1C05 JUMP JUMPDEST JUMPDEST PUSH1 0x1F NOT PUSH1 0x1F DUP4 ADD AND SWAP1 POP PUSH1 0x20 DUP2 ADD SWAP1 POP SWAP2 SWAP1 POP JUMP JUMPDEST PUSH1 0x0 DUP2 MLOAD SWAP1 POP SWAP2 SWAP1 POP JUMP JUMPDEST PUSH1 0x0 DUP3 DUP3 MSTORE PUSH1 0x20 DUP3 ADD SWAP1 POP SWAP3 SWAP2 POP POP JUMP JUMPDEST PUSH1 0x0 DUP2 SWAP1 POP SWAP3 SWAP2 POP POP JUMP JUMPDEST PUSH1 0x0 PUSH2 0x1AF8 DUP3 PUSH2 0x1B69 JUMP JUMPDEST SWAP2 POP PUSH2 0x1B03 DUP4 PUSH2 0x1B69 JUMP JUMPDEST SWAP3 POP DUP3 DUP3 LT ISZERO PUSH2 0x1B16 JUMPI PUSH2 0x1B15 PUSH2 0x1BD6 JUMP JUMPDEST JUMPDEST DUP3 DUP3 SUB SWAP1 POP SWAP3 SWAP2 POP POP JUMP JUMPDEST PUSH1 0x0 PUSH2 0x1B2C DUP3 PUSH2 0x1B49 JUMP JUMPDEST SWAP1 POP SWAP2 SWAP1 POP JUMP JUMPDEST PUSH1 0x0 DUP2 ISZERO ISZERO SWAP1 POP SWAP2 SWAP1 POP JUMP JUMPDEST PUSH1 0x0 DUP2 SWAP1 POP SWAP2 SWAP1 POP JUMP JUMPDEST PUSH1 0x0 PUSH20 0xFFFFFFFFFFFFFFFFFFFFFFFFFFFFFFFFFFFFFFFF DUP3 AND SWAP1 POP SWAP2 SWAP1 POP JUMP JUMPDEST PUSH1 0x0 DUP2 SWAP1 POP SWAP2 SWAP1 POP JUMP JUMPDEST PUSH1 0x0 PUSH1 0xFF DUP3 AND SWAP1 POP SWAP2 SWAP1 POP JUMP JUMPDEST DUP3 DUP2 DUP4 CALLDATACOPY PUSH1 0x0 DUP4 DUP4 ADD MSTORE POP POP POP JUMP JUMPDEST PUSH1 0x0 JUMPDEST DUP4 DUP2 LT ISZERO PUSH2 0x1BAD JUMPI DUP1 DUP3 ADD MLOAD DUP2 DUP5 ADD MSTORE PUSH1 0x20 DUP2 ADD SWAP1 POP PUSH2 0x1B92 JUMP JUMPDEST DUP4 DUP2 GT ISZERO PUSH2 0x1BBC JUMPI PUSH1 0x0 DUP5 DUP5 ADD MSTORE JUMPDEST POP POP POP POP JUMP JUMPDEST PUSH1 0x0 DUP2 SWAP1 POP SWAP2 SWAP1 POP JUMP JUMPDEST PUSH1 0x0 DUP2 SWAP1 POP SWAP2 SWAP1 POP JUMP JUMPDEST PUSH32 0x4E487B7100000000000000000000000000000000000000000000000000000000 PUSH1 0x0 MSTORE PUSH1 0x11 PUSH1 0x4 MSTORE PUSH1 0x24 PUSH1 0x0 REVERT JUMPDEST PUSH32 0x4E487B7100000000000000000000000000000000000000000000000000000000 PUSH1 0x0 MSTORE PUSH1 0x41 PUSH1 0x4 MSTORE PUSH1 0x24 PUSH1 0x0 REVERT JUMPDEST PUSH2 0x1C3D DUP2 PUSH2 0x1B21 JUMP JUMPDEST DUP2 EQ PUSH2 0x1C48 JUMPI PUSH1 0x0 DUP1 REVERT JUMPDEST POP JUMP JUMPDEST PUSH2 0x1C54 DUP2 PUSH2 0x1B33 JUMP JUMPDEST DUP2 EQ PUSH2 0x1C5F JUMPI PUSH1 0x0 DUP1 REVERT JUMPDEST POP JUMP JUMPDEST PUSH2 0x1C6B DUP2 PUSH2 0x1B69 JUMP JUMPDEST DUP2 EQ PUSH2 0x1C76 JUMPI PUSH1 0x0 DUP1 REVERT JUMPDEST POP JUMP INVALID LOG2 PUSH5 0x6970667358 0x22 SLT KECCAK256 0xA5 LOG0 SWAP13 PUSH2 0x4A9E 0xCA 0xED CHAINID PUSH28 0x281C173F129B224284175DB9BB7FB9365FECB97B866D64736F6C6343 STOP ADDMOD STOP STOP CALLER "
				},
				"gasEstimates": {
					"creation": {
						"codeDepositCost": "1468600",
						"executionCost": "1534",
						"totalCost": "1470134"
					},
					"external": {
						"executor(address)": "1590",
						"getkey(uint256,uint256,string,bytes)": "infinite",
						"initialize(address)": "347424",
						"owner()": "1244",
						"renounceOwnership()": "24463",
						"setExecutor(address,bool)": "infinite",
						"setSigner(address)": "22531",
						"setTimeLimit(uint256)": "21650",
						"signer()": "1237",
						"timeLimit()": "1173",
						"transferOwnership(address)": "24833"
					},
					"internal": {
						"_setExecutor(address,bool)": "20993"
					}
				},
				"methodIdentifiers": {
					"executor(address)": "48c7e528",
					"getkey(uint256,uint256,string,bytes)": "81952f3b",
					"initialize(address)": "c4d66de8",
					"owner()": "8da5cb5b",
					"renounceOwnership()": "715018a6",
					"setExecutor(address,bool)": "1e1bff3f",
					"setSigner(address)": "6c19e783",
					"setTimeLimit(uint256)": "e2889c82",
					"signer()": "238ac933",
					"timeLimit()": "c08d1fe5",
					"transferOwnership(address)": "f2fde38b"
				}
			},
			"storageLayout": {
				"storage": [
					{
						"astId": 130,
						"contract": "contracts/oracle.sol:Oracle",
						"label": "_initialized",
						"offset": 0,
						"slot": "0",
						"type": "t_bool"
					},
					{
						"astId": 133,
						"contract": "contracts/oracle.sol:Oracle",
						"label": "_initializing",
						"offset": 1,
						"slot": "0",
						"type": "t_bool"
					},
					{
						"astId": 213,
						"contract": "contracts/oracle.sol:Oracle",
						"label": "__gap",
						"offset": 0,
						"slot": "1",
						"type": "t_array(t_uint256)50_storage"
					},
					{
						"astId": 10,
						"contract": "contracts/oracle.sol:Oracle",
						"label": "_owner",
						"offset": 0,
						"slot": "51",
						"type": "t_address"
					},
					{
						"astId": 124,
						"contract": "contracts/oracle.sol:Oracle",
						"label": "__gap",
						"offset": 0,
						"slot": "52",
						"type": "t_array(t_uint256)49_storage"
					},
					{
						"astId": 1528,
						"contract": "contracts/oracle.sol:Oracle",
						"label": "signer",
						"offset": 0,
						"slot": "101",
						"type": "t_address"
					},
					{
						"astId": 1530,
						"contract": "contracts/oracle.sol:Oracle",
						"label": "timeLimit",
						"offset": 0,
						"slot": "102",
						"type": "t_uint256"
					},
					{
						"astId": 1534,
						"contract": "contracts/oracle.sol:Oracle",
						"label": "executor",
						"offset": 0,
						"slot": "103",
						"type": "t_mapping(t_address,t_bool)"
					}
				],
				"types": {
					"t_address": {
						"encoding": "inplace",
						"label": "address",
						"numberOfBytes": "20"
					},
					"t_array(t_uint256)49_storage": {
						"base": "t_uint256",
						"encoding": "inplace",
						"label": "uint256[49]",
						"numberOfBytes": "1568"
					},
					"t_array(t_uint256)50_storage": {
						"base": "t_uint256",
						"encoding": "inplace",
						"label": "uint256[50]",
						"numberOfBytes": "1600"
					},
					"t_bool": {
						"encoding": "inplace",
						"label": "bool",
						"numberOfBytes": "1"
					},
					"t_mapping(t_address,t_bool)": {
						"encoding": "mapping",
						"key": "t_address",
						"label": "mapping(address => bool)",
						"numberOfBytes": "32",
						"value": "t_bool"
					},
					"t_uint256": {
						"encoding": "inplace",
						"label": "uint256",
						"numberOfBytes": "32"
					}
				}
			},
			"userdoc": {
				"kind": "user",
				"methods": {},
				"version": 1
			}
		}
	}
}