{
	"contracts/mirrorseaMain.sol": {
		"mirrorseaMain": {
			"abi": [
				{
					"anonymous": false,
					"inputs": [
						{
							"indexed": true,
							"internalType": "address",
							"name": "previousOwner",
							"type": "address"
						},
						{
							"indexed": true,
							"internalType": "address",
							"name": "newOwner",
							"type": "address"
						}
					],
					"name": "OwnershipTransferred",
					"type": "event"
				},
				{
					"inputs": [],
					"name": "OrderIndex",
					"outputs": [
						{
							"internalType": "uint256",
							"name": "",
							"type": "uint256"
						}
					],
					"stateMutability": "view",
					"type": "function"
				},
				{
					"inputs": [],
					"name": "PRECISION",
					"outputs": [
						{
							"internalType": "uint256",
							"name": "",
							"type": "uint256"
						}
					],
					"stateMutability": "view",
					"type": "function"
				},
				{
					"inputs": [
						{
							"internalType": "uint256",
							"name": "_id",
							"type": "uint256"
						},
						{
							"internalType": "uint256",
							"name": "_price18",
							"type": "uint256"
						},
						{
							"internalType": "uint256",
							"name": "_margin",
							"type": "uint256"
						}
					],
					"name": "_isSolvent",
					"outputs": [
						{
							"internalType": "bool",
							"name": "",
							"type": "bool"
						}
					],
					"stateMutability": "view",
					"type": "function"
				},
				{
					"inputs": [
						{
							"internalType": "uint256",
							"name": "_id",
							"type": "uint256"
						},
						{
							"internalType": "uint256",
							"name": "_price18",
							"type": "uint256"
						},
						{
							"internalType": "uint256",
							"name": "_margin",
							"type": "uint256"
						}
					],
					"name": "_isSolvent_",
					"outputs": [
						{
							"internalType": "bool",
							"name": "",
							"type": "bool"
						},
						{
							"internalType": "uint256",
							"name": "",
							"type": "uint256"
						},
						{
							"internalType": "uint256",
							"name": "",
							"type": "uint256"
						},
						{
							"internalType": "uint256",
							"name": "",
							"type": "uint256"
						}
					],
					"stateMutability": "view",
					"type": "function"
				},
				{
					"inputs": [
						{
							"internalType": "bool",
							"name": "_marketState",
							"type": "bool"
						},
						{
							"internalType": "uint256",
							"name": "_id",
							"type": "uint256"
						},
						{
							"internalType": "uint256",
							"name": "_timestamp",
							"type": "uint256"
						},
						{
							"internalType": "string",
							"name": "_symbols",
							"type": "string"
						},
						{
							"internalType": "uint256",
							"name": "_price18",
							"type": "uint256"
						},
						{
							"internalType": "bytes",
							"name": "_signature",
							"type": "bytes"
						},
						{
							"internalType": "uint256",
							"name": "_adjustMargin",
							"type": "uint256"
						}
					],
					"name": "adjustPosition",
					"outputs": [
						{
							"internalType": "bool",
							"name": "",
							"type": "bool"
						}
					],
					"stateMutability": "nonpayable",
					"type": "function"
				},
				{
					"inputs": [
						{
							"internalType": "bool",
							"name": "_marketState",
							"type": "bool"
						},
						{
							"internalType": "uint256",
							"name": "_id",
							"type": "uint256"
						},
						{
							"internalType": "uint256",
							"name": "_timestamp",
							"type": "uint256"
						},
						{
							"internalType": "string",
							"name": "_symbols",
							"type": "string"
						},
						{
							"internalType": "uint256",
							"name": "_price18",
							"type": "uint256"
						},
						{
							"internalType": "bytes",
							"name": "_signature",
							"type": "bytes"
						}
					],
					"name": "closePosition",
					"outputs": [
						{
							"internalType": "bool",
							"name": "",
							"type": "bool"
						}
					],
					"stateMutability": "nonpayable",
					"type": "function"
				},
				{
					"inputs": [
						{
							"internalType": "address",
							"name": "",
							"type": "address"
						}
					],
					"name": "executor",
					"outputs": [
						{
							"internalType": "bool",
							"name": "",
							"type": "bool"
						}
					],
					"stateMutability": "view",
					"type": "function"
				},
				{
					"inputs": [],
					"name": "feePercent",
					"outputs": [
						{
							"internalType": "uint256",
							"name": "",
							"type": "uint256"
						}
					],
					"stateMutability": "view",
					"type": "function"
				},
				{
					"inputs": [
						{
							"internalType": "bool",
							"name": "_marketState",
							"type": "bool"
						},
						{
							"internalType": "uint256",
							"name": "_id",
							"type": "uint256"
						},
						{
							"internalType": "uint256",
							"name": "_timestamp",
							"type": "uint256"
						},
						{
							"internalType": "string",
							"name": "_symbols",
							"type": "string"
						},
						{
							"internalType": "uint256",
							"name": "_price18",
							"type": "uint256"
						},
						{
							"internalType": "bytes",
							"name": "_signature",
							"type": "bytes"
						}
					],
					"name": "forcedLiquidation",
					"outputs": [
						{
							"internalType": "bool",
							"name": "",
							"type": "bool"
						}
					],
					"stateMutability": "nonpayable",
					"type": "function"
				},
				{
					"inputs": [],
					"name": "helperLogic",
					"outputs": [
						{
							"internalType": "contract IhelperLogic",
							"name": "",
							"type": "address"
						}
					],
					"stateMutability": "view",
					"type": "function"
				},
				{
					"inputs": [
						{
							"internalType": "address",
							"name": "_signer",
							"type": "address"
						},
						{
							"internalType": "contract IhelperLogic",
							"name": "_helperLogic",
							"type": "address"
						},
						{
							"internalType": "contract IERC20Upgradeable",
							"name": "_usc",
							"type": "address"
						},
						{
							"internalType": "contract IOracle",
							"name": "_oracle",
							"type": "address"
						}
					],
					"name": "initialize",
					"outputs": [],
					"stateMutability": "nonpayable",
					"type": "function"
				},
				{
					"inputs": [
						{
							"internalType": "bool",
							"name": "_marketState",
							"type": "bool"
						},
						{
							"internalType": "uint256[]",
							"name": "_id",
							"type": "uint256[]"
						},
						{
							"internalType": "uint256[]",
							"name": "_timestamp",
							"type": "uint256[]"
						},
						{
							"internalType": "string[]",
							"name": "_symbols",
							"type": "string[]"
						},
						{
							"internalType": "uint256[]",
							"name": "_price18",
							"type": "uint256[]"
						},
						{
							"internalType": "bytes[]",
							"name": "_signature",
							"type": "bytes[]"
						}
					],
					"name": "liquidation",
					"outputs": [
						{
							"internalType": "bool",
							"name": "",
							"type": "bool"
						}
					],
					"stateMutability": "nonpayable",
					"type": "function"
				},
				{
					"inputs": [],
					"name": "minVal",
					"outputs": [
						{
							"internalType": "uint256",
							"name": "",
							"type": "uint256"
						}
					],
					"stateMutability": "view",
					"type": "function"
				},
				{
					"inputs": [
						{
							"internalType": "address",
							"name": "",
							"type": "address"
						},
						{
							"internalType": "uint256",
							"name": "",
							"type": "uint256"
						}
					],
					"name": "myCloseOrderIdList",
					"outputs": [
						{
							"internalType": "uint256",
							"name": "",
							"type": "uint256"
						}
					],
					"stateMutability": "view",
					"type": "function"
				},
				{
					"inputs": [
						{
							"internalType": "address",
							"name": "_user",
							"type": "address"
						}
					],
					"name": "myCloseOrderIdListLength",
					"outputs": [
						{
							"internalType": "uint256",
							"name": "",
							"type": "uint256"
						}
					],
					"stateMutability": "view",
					"type": "function"
				},
				{
					"inputs": [
						{
							"internalType": "address",
							"name": "",
							"type": "address"
						},
						{
							"internalType": "uint256",
							"name": "",
							"type": "uint256"
						}
					],
					"name": "myCloseOrderIdList_index",
					"outputs": [
						{
							"internalType": "uint256",
							"name": "",
							"type": "uint256"
						}
					],
					"stateMutability": "view",
					"type": "function"
				},
				{
					"inputs": [
						{
							"internalType": "address",
							"name": "",
							"type": "address"
						},
						{
							"internalType": "uint256",
							"name": "",
							"type": "uint256"
						}
					],
					"name": "myOpenOrderIdList",
					"outputs": [
						{
							"internalType": "uint256",
							"name": "",
							"type": "uint256"
						}
					],
					"stateMutability": "view",
					"type": "function"
				},
				{
					"inputs": [
						{
							"internalType": "address",
							"name": "_user",
							"type": "address"
						}
					],
					"name": "myOpenOrderIdListLength",
					"outputs": [
						{
							"internalType": "uint256",
							"name": "",
							"type": "uint256"
						}
					],
					"stateMutability": "view",
					"type": "function"
				},
				{
					"inputs": [
						{
							"internalType": "address",
							"name": "",
							"type": "address"
						},
						{
							"internalType": "uint256",
							"name": "",
							"type": "uint256"
						}
					],
					"name": "myOpenOrderIdList_index",
					"outputs": [
						{
							"internalType": "uint256",
							"name": "",
							"type": "uint256"
						}
					],
					"stateMutability": "view",
					"type": "function"
				},
				{
					"inputs": [
						{
							"internalType": "uint256",
							"name": "",
							"type": "uint256"
						}
					],
					"name": "openOrderIdList",
					"outputs": [
						{
							"internalType": "uint256",
							"name": "",
							"type": "uint256"
						}
					],
					"stateMutability": "view",
					"type": "function"
				},
				{
					"inputs": [],
					"name": "openOrderIdListLength",
					"outputs": [
						{
							"internalType": "uint256",
							"name": "",
							"type": "uint256"
						}
					],
					"stateMutability": "view",
					"type": "function"
				},
				{
					"inputs": [
						{
							"internalType": "uint256",
							"name": "",
							"type": "uint256"
						}
					],
					"name": "openOrderIdList_index",
					"outputs": [
						{
							"internalType": "uint256",
							"name": "",
							"type": "uint256"
						}
					],
					"stateMutability": "view",
					"type": "function"
				},
				{
					"inputs": [
						{
							"internalType": "bool",
							"name": "_marketState",
							"type": "bool"
						},
						{
							"internalType": "uint256",
							"name": "_margin",
							"type": "uint256"
						},
						{
							"internalType": "uint256",
							"name": "_timestamp",
							"type": "uint256"
						},
						{
							"internalType": "uint256",
							"name": "_direction",
							"type": "uint256"
						},
						{
							"internalType": "uint256",
							"name": "_type",
							"type": "uint256"
						},
						{
							"internalType": "string",
							"name": "_symbols",
							"type": "string"
						},
						{
							"internalType": "uint256",
							"name": "_price18",
							"type": "uint256"
						},
						{
							"internalType": "uint256",
							"name": "_amt",
							"type": "uint256"
						},
						{
							"internalType": "bytes",
							"name": "_signature",
							"type": "bytes"
						}
					],
					"name": "openPosition",
					"outputs": [
						{
							"internalType": "bool",
							"name": "",
							"type": "bool"
						}
					],
					"stateMutability": "nonpayable",
					"type": "function"
				},
				{
					"inputs": [],
					"name": "oracle",
					"outputs": [
						{
							"internalType": "contract IOracle",
							"name": "",
							"type": "address"
						}
					],
					"stateMutability": "view",
					"type": "function"
				},
				{
					"inputs": [
						{
							"internalType": "uint256",
							"name": "_id",
							"type": "uint256"
						}
					],
					"name": "orderInfo",
					"outputs": [
						{
							"components": [
								{
									"internalType": "address",
									"name": "user",
									"type": "address"
								},
								{
									"internalType": "uint256",
									"name": "_type",
									"type": "uint256"
								},
								{
									"internalType": "string",
									"name": "symbols",
									"type": "string"
								},
								{
									"internalType": "uint256",
									"name": "state",
									"type": "uint256"
								},
								{
									"internalType": "uint256",
									"name": "direction",
									"type": "uint256"
								},
								{
									"internalType": "uint256",
									"name": "openPrice18",
									"type": "uint256"
								},
								{
									"internalType": "uint256",
									"name": "openTime",
									"type": "uint256"
								},
								{
									"internalType": "uint256",
									"name": "closePrice18",
									"type": "uint256"
								},
								{
									"internalType": "uint256",
									"name": "closeTime",
									"type": "uint256"
								},
								{
									"internalType": "uint256",
									"name": "amt",
									"type": "uint256"
								},
								{
									"internalType": "uint256",
									"name": "margin",
									"type": "uint256"
								}
							],
							"internalType": "struct mirrorseaMain.OrderInfo",
							"name": "",
							"type": "tuple"
						}
					],
					"stateMutability": "view",
					"type": "function"
				},
				{
					"inputs": [],
					"name": "owner",
					"outputs": [
						{
							"internalType": "address",
							"name": "",
							"type": "address"
						}
					],
					"stateMutability": "view",
					"type": "function"
				},
				{
					"inputs": [
						{
							"internalType": "address",
							"name": "_user",
							"type": "address"
						},
						{
							"internalType": "uint256",
							"name": "_type",
							"type": "uint256"
						},
						{
							"internalType": "uint256",
							"name": "_row",
							"type": "uint256"
						},
						{
							"internalType": "uint256",
							"name": "_page",
							"type": "uint256"
						}
					],
					"name": "pagination",
					"outputs": [
						{
							"internalType": "uint256[]",
							"name": "",
							"type": "uint256[]"
						}
					],
					"stateMutability": "view",
					"type": "function"
				},
				{
					"inputs": [],
					"name": "renounceOwnership",
					"outputs": [],
					"stateMutability": "nonpayable",
					"type": "function"
				},
				{
					"inputs": [
						{
							"internalType": "address",
							"name": "_address",
							"type": "address"
						},
						{
							"internalType": "bool",
							"name": "_type",
							"type": "bool"
						}
					],
					"name": "setExecutor",
					"outputs": [
						{
							"internalType": "bool",
							"name": "",
							"type": "bool"
						}
					],
					"stateMutability": "nonpayable",
					"type": "function"
				},
				{
					"inputs": [
						{
							"internalType": "uint256",
							"name": "_val",
							"type": "uint256"
						}
					],
					"name": "setFeePercent",
					"outputs": [
						{
							"internalType": "bool",
							"name": "",
							"type": "bool"
						}
					],
					"stateMutability": "nonpayable",
					"type": "function"
				},
				{
					"inputs": [
						{
							"internalType": "uint256",
							"name": "id",
							"type": "uint256"
						},
						{
							"internalType": "address",
							"name": "user",
							"type": "address"
						},
						{
							"internalType": "uint256",
							"name": "_type",
							"type": "uint256"
						},
						{
							"internalType": "string",
							"name": "symbols",
							"type": "string"
						},
						{
							"internalType": "uint256",
							"name": "state",
							"type": "uint256"
						},
						{
							"internalType": "uint256",
							"name": "direction",
							"type": "uint256"
						},
						{
							"internalType": "uint256",
							"name": "openPrice18",
							"type": "uint256"
						},
						{
							"internalType": "uint256",
							"name": "openTime",
							"type": "uint256"
						},
						{
							"internalType": "uint256",
							"name": "closePrice18",
							"type": "uint256"
						},
						{
							"internalType": "uint256",
							"name": "closeTime",
							"type": "uint256"
						},
						{
							"internalType": "uint256",
							"name": "amt",
							"type": "uint256"
						},
						{
							"internalType": "uint256",
							"name": "margin",
							"type": "uint256"
						}
					],
					"name": "setOrderInfo",
					"outputs": [
						{
							"internalType": "bool",
							"name": "",
							"type": "bool"
						}
					],
					"stateMutability": "nonpayable",
					"type": "function"
				},
				{
					"inputs": [
						{
							"internalType": "address",
							"name": "_address",
							"type": "address"
						}
					],
					"name": "setSigner",
					"outputs": [
						{
							"internalType": "bool",
							"name": "",
							"type": "bool"
						}
					],
					"stateMutability": "nonpayable",
					"type": "function"
				},
				{
					"inputs": [],
					"name": "signer",
					"outputs": [
						{
							"internalType": "address",
							"name": "",
							"type": "address"
						}
					],
					"stateMutability": "view",
					"type": "function"
				},
				{
					"inputs": [
						{
							"internalType": "address",
							"name": "newOwner",
							"type": "address"
						}
					],
					"name": "transferOwnership",
					"outputs": [],
					"stateMutability": "nonpayable",
					"type": "function"
				},
				{
					"inputs": [],
					"name": "usc",
					"outputs": [
						{
							"internalType": "contract IERC20Upgradeable",
							"name": "",
							"type": "address"
						}
					],
					"stateMutability": "view",
					"type": "function"
				}
			],
			"devdoc": {
				"kind": "dev",
				"methods": {
					"owner()": {
						"details": "Returns the address of the current owner."
					},
					"renounceOwnership()": {
						"details": "Leaves the contract without owner. It will not be possible to call `onlyOwner` functions anymore. Can only be called by the current owner. NOTE: Renouncing ownership will leave the contract without an owner, thereby removing any functionality that is only available to the owner."
					},
					"transferOwnership(address)": {
						"details": "Transfers ownership of the contract to a new account (`newOwner`). Can only be called by the current owner."
					}
				},
				"version": 1
			},
			"evm": {
				"assembly": "    /* \"contracts/mirrorseaMain.sol\":910:18624  contract mirrorseaMain is Initializable, OwnableUpgradeable {... */\n  mstore(0x40, 0x80)\n  callvalue\n  dup1\n  iszero\n  tag_1\n  jumpi\n  0x00\n  dup1\n  revert\ntag_1:\n  pop\n  dataSize(sub_0)\n  dup1\n  dataOffset(sub_0)\n  0x00\n  codecopy\n  0x00\n  return\nstop\n\nsub_0: assembly {\n        /* \"contracts/mirrorseaMain.sol\":910:18624  contract mirrorseaMain is Initializable, OwnableUpgradeable {... */\n      mstore(0x40, 0x80)\n      callvalue\n      dup1\n      iszero\n      tag_1\n      jumpi\n      0x00\n      dup1\n      revert\n    tag_1:\n      pop\n      jumpi(tag_2, lt(calldatasize, 0x04))\n      shr(0xe0, calldataload(0x00))\n      dup1\n      0x7ce3489b\n      gt\n      tag_38\n      jumpi\n      dup1\n      0xdb4a5aa9\n      gt\n      tag_39\n      jumpi\n      dup1\n      0xf14053ad\n      gt\n      tag_40\n      jumpi\n      dup1\n      0xf14053ad\n      eq\n      tag_33\n      jumpi\n      dup1\n      0xf2fde38b\n      eq\n      tag_34\n      jumpi\n      dup1\n      0xf7ab69fd\n      eq\n      tag_35\n      jumpi\n      dup1\n      0xf8c8765e\n      eq\n      tag_36\n      jumpi\n      dup1\n      0xfc234d06\n      eq\n      tag_37\n      jumpi\n      jump(tag_2)\n    tag_40:\n      dup1\n      0xdb4a5aa9\n      eq\n      tag_29\n      jumpi\n      dup1\n      0xe4e95520\n      eq\n      tag_30\n      jumpi\n      dup1\n      0xec4c4f34\n      eq\n      tag_31\n      jumpi\n      dup1\n      0xf0c765e4\n      eq\n      tag_32\n      jumpi\n      jump(tag_2)\n    tag_39:\n      dup1\n      0xa0ad12e2\n      gt\n      tag_41\n      jumpi\n      dup1\n      0xa0ad12e2\n      eq\n      tag_24\n      jumpi\n      dup1\n      0xa8ecb028\n      eq\n      tag_25\n      jumpi\n      dup1\n      0xaaf5eb68\n      eq\n      tag_26\n      jumpi\n      dup1\n      0xaecf77b1\n      eq\n      tag_27\n      jumpi\n      dup1\n      0xc2ec527d\n      eq\n      tag_28\n      jumpi\n      jump(tag_2)\n    tag_41:\n      dup1\n      0x7ce3489b\n      eq\n      tag_20\n      jumpi\n      dup1\n      0x7dc0d1d0\n      eq\n      tag_21\n      jumpi\n      dup1\n      0x7fd6f15c\n      eq\n      tag_22\n      jumpi\n      dup1\n      0x8da5cb5b\n      eq\n      tag_23\n      jumpi\n      jump(tag_2)\n    tag_38:\n      dup1\n      0x43b1f3cb\n      gt\n      tag_42\n      jumpi\n      dup1\n      0x6c19e783\n      gt\n      tag_43\n      jumpi\n      dup1\n      0x6c19e783\n      eq\n      tag_15\n      jumpi\n      dup1\n      0x6e812437\n      eq\n      tag_16\n      jumpi\n      dup1\n      0x70ac1e60\n      eq\n      tag_17\n      jumpi\n      dup1\n      0x715018a6\n      eq\n      tag_18\n      jumpi\n      dup1\n      0x7be3a1a1\n      eq\n      tag_19\n      jumpi\n      jump(tag_2)\n    tag_43:\n      dup1\n      0x43b1f3cb\n      eq\n      tag_11\n      jumpi\n      dup1\n      0x48c7e528\n      eq\n      tag_12\n      jumpi\n      dup1\n      0x4b989ce3\n      eq\n      tag_13\n      jumpi\n      dup1\n      0x6ab34a4a\n      eq\n      tag_14\n      jumpi\n      jump(tag_2)\n    tag_42:\n      dup1\n      0x238ac933\n      gt\n      tag_44\n      jumpi\n      dup1\n      0x238ac933\n      eq\n      tag_7\n      jumpi\n      dup1\n      0x2705c55b\n      eq\n      tag_8\n      jumpi\n      dup1\n      0x3011d3d5\n      eq\n      tag_9\n      jumpi\n      dup1\n      0x323b9b2b\n      eq\n      tag_10\n      jumpi\n      jump(tag_2)\n    tag_44:\n      dup1\n      0x080270a8\n      eq\n      tag_3\n      jumpi\n      dup1\n      0x0f58d242\n      eq\n      tag_4\n      jumpi\n      dup1\n      0x1e1bff3f\n      eq\n      tag_5\n      jumpi\n      dup1\n      0x1e64610c\n      eq\n      tag_6\n      jumpi\n    tag_2:\n      0x00\n      dup1\n      revert\n        /* \"contracts/mirrorseaMain.sol\":4639:5912  function pagination(... */\n    tag_3:\n      tag_45\n      tag_46\n      calldatasize\n      0x04\n      tag_47\n      jump\t// in\n    tag_46:\n      tag_48\n      jump\t// in\n    tag_45:\n      mload(0x40)\n      tag_49\n      swap2\n      swap1\n      tag_50\n      jump\t// in\n    tag_49:\n      mload(0x40)\n      dup1\n      swap2\n      sub\n      swap1\n      return\n        /* \"contracts/mirrorseaMain.sol\":1347:1379  uint256[] public openOrderIdList */\n    tag_4:\n      tag_51\n      tag_52\n      calldatasize\n      0x04\n      tag_53\n      jump\t// in\n    tag_52:\n      tag_54\n      jump\t// in\n    tag_51:\n      mload(0x40)\n      tag_49\n      swap2\n      swap1\n      tag_56\n      jump\t// in\n        /* \"contracts/mirrorseaMain.sol\":3136:3313  function setExecutor(address _address, bool _type)... */\n    tag_5:\n      tag_57\n      tag_58\n      calldatasize\n      0x04\n      tag_59\n      jump\t// in\n    tag_58:\n      tag_60\n      jump\t// in\n    tag_57:\n      mload(0x40)\n      tag_49\n      swap2\n      swap1\n      tag_62\n      jump\t// in\n        /* \"contracts/mirrorseaMain.sol\":1196:1227  IhelperLogic public helperLogic */\n    tag_6:\n      tag_63\n      tag_64\n      jump\t// in\n    tag_63:\n      mload(0x40)\n      tag_49\n      swap2\n      swap1\n      tag_70\n      jump\t// in\n        /* \"contracts/mirrorseaMain.sol\":1135:1156  address public signer */\n    tag_7:\n      tag_63\n      tag_68\n      jump\t// in\n        /* \"contracts/mirrorseaMain.sol\":13968:15330  function _isSolvent(... */\n    tag_8:\n      tag_57\n      tag_72\n      calldatasize\n      0x04\n      tag_73\n      jump\t// in\n    tag_72:\n      tag_74\n      jump\t// in\n        /* \"contracts/mirrorseaMain.sol\":1162:1190  IERC20Upgradeable public usc */\n    tag_9:\n      tag_63\n      tag_77\n      jump\t// in\n        /* \"contracts/mirrorseaMain.sol\":2685:2794  function openOrderIdListLength() public view returns (uint256) {... */\n    tag_10:\n      tag_51\n      tag_81\n      jump\t// in\n        /* \"contracts/mirrorseaMain.sol\":1385:1441  mapping(uint256 => uint256) public openOrderIdList_index */\n    tag_11:\n      tag_51\n      tag_84\n      calldatasize\n      0x04\n      tag_53\n      jump\t// in\n    tag_84:\n      tag_85\n      jump\t// in\n        /* \"contracts/mirrorseaMain.sol\":1089:1129  mapping(address => bool) public executor */\n    tag_12:\n      tag_57\n      tag_88\n      calldatasize\n      0x04\n      tag_89\n      jump\t// in\n    tag_88:\n      tag_90\n      jump\t// in\n        /* \"contracts/mirrorseaMain.sol\":12514:13403  function liquidation(... */\n    tag_13:\n      tag_57\n      tag_93\n      calldatasize\n      0x04\n      tag_94\n      jump\t// in\n    tag_93:\n      tag_95\n      jump\t// in\n        /* \"contracts/mirrorseaMain.sol\":3740:3852  function orderInfo(uint256 _id) external view returns (OrderInfo memory) {... */\n    tag_14:\n      tag_97\n      tag_98\n      calldatasize\n      0x04\n      tag_53\n      jump\t// in\n    tag_98:\n      tag_99\n      jump\t// in\n    tag_97:\n      mload(0x40)\n      tag_49\n      swap2\n      swap1\n      tag_101\n      jump\t// in\n        /* \"contracts/mirrorseaMain.sol\":3608:3734  function setSigner(address _address) external onlyOwner returns (bool) {... */\n    tag_15:\n      tag_57\n      tag_103\n      calldatasize\n      0x04\n      tag_89\n      jump\t// in\n    tag_103:\n      tag_104\n      jump\t// in\n        /* \"contracts/mirrorseaMain.sol\":11530:12122  function closePosition(... */\n    tag_16:\n      tag_57\n      tag_107\n      calldatasize\n      0x04\n      tag_108\n      jump\t// in\n    tag_107:\n      tag_109\n      jump\t// in\n        /* \"contracts/mirrorseaMain.sol\":15336:16878  function _isSolvent_(... */\n    tag_17:\n      tag_111\n      tag_112\n      calldatasize\n      0x04\n      tag_73\n      jump\t// in\n    tag_112:\n      tag_113\n      jump\t// in\n    tag_111:\n      mload(0x40)\n      tag_49\n      swap5\n      swap4\n      swap3\n      swap2\n      swap1\n      tag_115\n      jump\t// in\n        /* \"@openzeppelin/contracts-upgradeable/access/OwnableUpgradeable.sol\":1934:2035  function renounceOwnership() public virtual onlyOwner {... */\n    tag_18:\n      tag_116\n      tag_117\n      jump\t// in\n    tag_116:\n      stop\n        /* \"contracts/mirrorseaMain.sol\":1508:1594  mapping(address => mapping(uint256 => uint256))... */\n    tag_19:\n      tag_51\n      tag_119\n      calldatasize\n      0x04\n      tag_120\n      jump\t// in\n    tag_119:\n      tag_121\n      jump\t// in\n        /* \"contracts/mirrorseaMain.sol\":3463:3589  function setFeePercent(uint256 _val) external onlyOwner returns (bool) {... */\n    tag_20:\n      tag_57\n      tag_124\n      calldatasize\n      0x04\n      tag_53\n      jump\t// in\n    tag_124:\n      tag_125\n      jump\t// in\n        /* \"contracts/mirrorseaMain.sol\":1233:1254  IOracle public oracle */\n    tag_21:\n      tag_63\n      tag_128\n      jump\t// in\n        /* \"contracts/mirrorseaMain.sol\":1756:1781  uint256 public feePercent */\n    tag_22:\n      tag_51\n      tag_132\n      jump\t// in\n        /* \"@openzeppelin/contracts-upgradeable/access/OwnableUpgradeable.sol\":1302:1387  function owner() public view virtual returns (address) {... */\n    tag_23:\n      tag_63\n      tag_135\n      jump\t// in\n        /* \"contracts/mirrorseaMain.sol\":13409:13962  function forcedLiquidation(... */\n    tag_24:\n      tag_57\n      tag_138\n      calldatasize\n      0x04\n      tag_108\n      jump\t// in\n    tag_138:\n      tag_139\n      jump\t// in\n        /* \"contracts/mirrorseaMain.sol\":16884:18622  function adjustPosition(... */\n    tag_25:\n      tag_57\n      tag_142\n      calldatasize\n      0x04\n      tag_143\n      jump\t// in\n    tag_142:\n      tag_144\n      jump\t// in\n        /* \"contracts/mirrorseaMain.sol\":1787:1811  uint256 public PRECISION */\n    tag_26:\n      tag_51\n      tag_147\n      jump\t// in\n        /* \"contracts/mirrorseaMain.sol\":2967:3130  function myCloseOrderIdListLength(address _user)... */\n    tag_27:\n      tag_51\n      tag_150\n      calldatasize\n      0x04\n      tag_89\n      jump\t// in\n    tag_150:\n      tag_151\n      jump\t// in\n        /* \"contracts/mirrorseaMain.sol\":1448:1502  mapping(address => uint256[]) public myOpenOrderIdList */\n    tag_28:\n      tag_51\n      tag_154\n      calldatasize\n      0x04\n      tag_120\n      jump\t// in\n    tag_154:\n      tag_155\n      jump\t// in\n        /* \"contracts/mirrorseaMain.sol\":5918:7807  function openPosition(... */\n    tag_29:\n      tag_57\n      tag_158\n      calldatasize\n      0x04\n      tag_159\n      jump\t// in\n    tag_158:\n      tag_160\n      jump\t// in\n        /* \"contracts/mirrorseaMain.sol\":2800:2961  function myOpenOrderIdListLength(address _user)... */\n    tag_30:\n      tag_51\n      tag_163\n      calldatasize\n      0x04\n      tag_89\n      jump\t// in\n    tag_163:\n      tag_164\n      jump\t// in\n        /* \"contracts/mirrorseaMain.sol\":1601:1656  mapping(address => uint256[]) public myCloseOrderIdList */\n    tag_31:\n      tag_51\n      tag_167\n      calldatasize\n      0x04\n      tag_120\n      jump\t// in\n    tag_167:\n      tag_168\n      jump\t// in\n        /* \"contracts/mirrorseaMain.sol\":1662:1749  mapping(address => mapping(uint256 => uint256))... */\n    tag_32:\n      tag_51\n      tag_171\n      calldatasize\n      0x04\n      tag_120\n      jump\t// in\n    tag_171:\n      tag_172\n      jump\t// in\n        /* \"contracts/mirrorseaMain.sol\":1818:1839  uint256 public minVal */\n    tag_33:\n      tag_51\n      tag_175\n      jump\t// in\n        /* \"@openzeppelin/contracts-upgradeable/access/OwnableUpgradeable.sol\":2184:2382  function transferOwnership(address newOwner) public virtual onlyOwner {... */\n    tag_34:\n      tag_116\n      tag_178\n      calldatasize\n      0x04\n      tag_89\n      jump\t// in\n    tag_178:\n      tag_179\n      jump\t// in\n        /* \"contracts/mirrorseaMain.sol\":1315:1340  uint256 public OrderIndex */\n    tag_35:\n      tag_51\n      tag_181\n      jump\t// in\n        /* \"contracts/mirrorseaMain.sol\":2277:2657  function initialize(... */\n    tag_36:\n      tag_116\n      tag_184\n      calldatasize\n      0x04\n      tag_185\n      jump\t// in\n    tag_184:\n      tag_186\n      jump\t// in\n        /* \"contracts/mirrorseaMain.sol\":3858:4633  function setOrderInfo(... */\n    tag_37:\n      tag_57\n      tag_188\n      calldatasize\n      0x04\n      tag_189\n      jump\t// in\n    tag_188:\n      tag_190\n      jump\t// in\n        /* \"contracts/mirrorseaMain.sol\":4639:5912  function pagination(... */\n    tag_48:\n        /* \"contracts/mirrorseaMain.sol\":4779:4795  uint256[] memory */\n      0x60\n        /* \"contracts/mirrorseaMain.sol\":4807:4820  uint256 index */\n      0x00\n      dup1\n        /* \"contracts/mirrorseaMain.sol\":4779:4795  uint256[] memory */\n      dup3\n        /* \"contracts/mirrorseaMain.sol\":4887:4897  _type == 0 */\n      dup7\n        /* \"contracts/mirrorseaMain.sol\":4883:5106  if (_type == 0) {... */\n      tag_193\n      jumpi\n        /* \"contracts/mirrorseaMain.sol\":4921:4936  openOrderIdList */\n      0x6c\n        /* \"contracts/mirrorseaMain.sol\":4913:4936  _list = openOrderIdList */\n      dup1\n      sload\n      dup1\n      0x20\n      mul\n      0x20\n      add\n      mload(0x40)\n      swap1\n      dup2\n      add\n      0x40\n      mstore\n      dup1\n      swap3\n      swap2\n      swap1\n      dup2\n      dup2\n      mstore\n      0x20\n      add\n      dup3\n      dup1\n      sload\n      dup1\n      iszero\n      tag_194\n      jumpi\n      0x20\n      mul\n      dup3\n      add\n      swap2\n      swap1\n      0x00\n      mstore\n      keccak256(0x00, 0x20)\n      swap1\n    tag_195:\n      dup2\n      sload\n      dup2\n      mstore\n      0x20\n      add\n      swap1\n      0x01\n      add\n      swap1\n      dup1\n      dup4\n      gt\n      tag_195\n      jumpi\n    tag_194:\n      pop\n      pop\n      pop\n      pop\n      pop\n      swap1\n      pop\n        /* \"contracts/mirrorseaMain.sol\":4883:5106  if (_type == 0) {... */\n      jump(tag_201)\n    tag_193:\n        /* \"contracts/mirrorseaMain.sol\":4957:4962  _type */\n      dup7\n        /* \"contracts/mirrorseaMain.sol\":4966:4967  1 */\n      0x01\n        /* \"contracts/mirrorseaMain.sol\":4957:4967  _type == 1 */\n      eq\n        /* \"contracts/mirrorseaMain.sol\":4953:5106  if (_type == 1) {... */\n      iszero\n      tag_197\n      jumpi\n      sub(shl(0xa0, 0x01), 0x01)\n        /* \"contracts/mirrorseaMain.sol\":4991:5015  myOpenOrderIdList[_user] */\n      dup9\n      and\n      0x00\n      swap1\n      dup2\n      mstore\n        /* \"contracts/mirrorseaMain.sol\":4991:5008  myOpenOrderIdList */\n      0x6e\n        /* \"contracts/mirrorseaMain.sol\":4991:5015  myOpenOrderIdList[_user] */\n      0x20\n      swap1\n      dup2\n      mstore\n      0x40\n      swap2\n      dup3\n      swap1\n      keccak256\n        /* \"contracts/mirrorseaMain.sol\":4983:5015  _list = myOpenOrderIdList[_user] */\n      dup1\n      sload\n      dup4\n      mload\n      dup2\n      dup5\n      mul\n      dup2\n      add\n      dup5\n      add\n      swap1\n      swap5\n      mstore\n      dup1\n      dup5\n      mstore\n        /* \"contracts/mirrorseaMain.sol\":4991:5015  myOpenOrderIdList[_user] */\n      swap1\n      swap2\n        /* \"contracts/mirrorseaMain.sol\":4983:5015  _list = myOpenOrderIdList[_user] */\n      dup4\n      add\n        /* \"contracts/mirrorseaMain.sol\":4991:5015  myOpenOrderIdList[_user] */\n      dup3\n        /* \"contracts/mirrorseaMain.sol\":4983:5015  _list = myOpenOrderIdList[_user] */\n      dup3\n      dup1\n      iszero\n      tag_194\n      jumpi\n      0x20\n      mul\n      dup3\n      add\n      swap2\n      swap1\n      0x00\n      mstore\n      keccak256(0x00, 0x20)\n      swap1\n      dup2\n      sload\n      dup2\n      mstore\n      0x20\n      add\n      swap1\n      0x01\n      add\n      swap1\n      dup1\n      dup4\n      gt\n      tag_195\n      jumpi\n      pop\n      pop\n      pop\n      pop\n      pop\n      swap1\n      pop\n        /* \"contracts/mirrorseaMain.sol\":4953:5106  if (_type == 1) {... */\n      jump(tag_201)\n    tag_197:\n        /* \"contracts/mirrorseaMain.sol\":5036:5041  _type */\n      dup7\n        /* \"contracts/mirrorseaMain.sol\":5045:5046  2 */\n      0x02\n        /* \"contracts/mirrorseaMain.sol\":5036:5046  _type == 2 */\n      eq\n        /* \"contracts/mirrorseaMain.sol\":5032:5106  if (_type == 2) {... */\n      iszero\n      tag_201\n      jumpi\n      sub(shl(0xa0, 0x01), 0x01)\n        /* \"contracts/mirrorseaMain.sol\":5070:5095  myCloseOrderIdList[_user] */\n      dup9\n      and\n      0x00\n      swap1\n      dup2\n      mstore\n        /* \"contracts/mirrorseaMain.sol\":5070:5088  myCloseOrderIdList */\n      0x70\n        /* \"contracts/mirrorseaMain.sol\":5070:5095  myCloseOrderIdList[_user] */\n      0x20\n      swap1\n      dup2\n      mstore\n      0x40\n      swap2\n      dup3\n      swap1\n      keccak256\n        /* \"contracts/mirrorseaMain.sol\":5062:5095  _list = myCloseOrderIdList[_user] */\n      dup1\n      sload\n      dup4\n      mload\n      dup2\n      dup5\n      mul\n      dup2\n      add\n      dup5\n      add\n      swap1\n      swap5\n      mstore\n      dup1\n      dup5\n      mstore\n        /* \"contracts/mirrorseaMain.sol\":5070:5095  myCloseOrderIdList[_user] */\n      swap1\n      swap2\n        /* \"contracts/mirrorseaMain.sol\":5062:5095  _list = myCloseOrderIdList[_user] */\n      dup4\n      add\n        /* \"contracts/mirrorseaMain.sol\":5070:5095  myCloseOrderIdList[_user] */\n      dup3\n        /* \"contracts/mirrorseaMain.sol\":5062:5095  _list = myCloseOrderIdList[_user] */\n      dup3\n      dup1\n      iszero\n      tag_202\n      jumpi\n      0x20\n      mul\n      dup3\n      add\n      swap2\n      swap1\n      0x00\n      mstore\n      keccak256(0x00, 0x20)\n      swap1\n    tag_203:\n      dup2\n      sload\n      dup2\n      mstore\n      0x20\n      add\n      swap1\n      0x01\n      add\n      swap1\n      dup1\n      dup4\n      gt\n      tag_203\n      jumpi\n    tag_202:\n      pop\n      pop\n      pop\n      pop\n      pop\n      swap1\n      pop\n        /* \"contracts/mirrorseaMain.sol\":5032:5106  if (_type == 2) {... */\n    tag_201:\n        /* \"contracts/mirrorseaMain.sol\":5115:5129  uint256 remAmt */\n      0x00\n        /* \"contracts/mirrorseaMain.sol\":5132:5175  _list.length.sub(_row.mul(_page).sub(_row)) */\n      tag_204\n        /* \"contracts/mirrorseaMain.sol\":5149:5174  _row.mul(_page).sub(_row) */\n      tag_205\n        /* \"contracts/mirrorseaMain.sol\":5169:5173  _row */\n      dup9\n        /* \"contracts/mirrorseaMain.sol\":5149:5164  _row.mul(_page) */\n      tag_206\n        /* \"contracts/mirrorseaMain.sol\":5169:5173  _row */\n      dup2\n        /* \"contracts/mirrorseaMain.sol\":5158:5163  _page */\n      dup11\n        /* \"contracts/mirrorseaMain.sol\":5149:5157  _row.mul */\n      tag_207\n        /* \"contracts/mirrorseaMain.sol\":5149:5164  _row.mul(_page) */\n      jump\t// in\n    tag_206:\n        /* \"contracts/mirrorseaMain.sol\":5149:5168  _row.mul(_page).sub */\n      swap1\n      tag_208\n        /* \"contracts/mirrorseaMain.sol\":5149:5174  _row.mul(_page).sub(_row) */\n      jump\t// in\n    tag_205:\n        /* \"contracts/mirrorseaMain.sol\":5132:5144  _list.length */\n      dup4\n      mload\n      swap1\n        /* \"contracts/mirrorseaMain.sol\":5132:5148  _list.length.sub */\n      tag_208\n        /* \"contracts/mirrorseaMain.sol\":5132:5175  _list.length.sub(_row.mul(_page).sub(_row)) */\n      jump\t// in\n    tag_204:\n        /* \"contracts/mirrorseaMain.sol\":5115:5175  uint256 remAmt = _list.length.sub(_row.mul(_page).sub(_row)) */\n      swap1\n      pop\n        /* \"contracts/mirrorseaMain.sol\":5199:5203  _row */\n      dup7\n        /* \"contracts/mirrorseaMain.sol\":5189:5195  remAmt */\n      dup2\n        /* \"contracts/mirrorseaMain.sol\":5189:5203  remAmt >= _row */\n      lt\n        /* \"contracts/mirrorseaMain.sol\":5185:5283  if (remAmt >= _row) {... */\n      tag_209\n      jumpi\n        /* \"contracts/mirrorseaMain.sol\":5225:5229  _row */\n      dup7\n        /* \"contracts/mirrorseaMain.sol\":5219:5229  arr = _row */\n      swap3\n      pop\n        /* \"contracts/mirrorseaMain.sol\":5185:5283  if (remAmt >= _row) {... */\n      jump(tag_210)\n    tag_209:\n        /* \"contracts/mirrorseaMain.sol\":5266:5272  remAmt */\n      dup1\n        /* \"contracts/mirrorseaMain.sol\":5260:5272  arr = remAmt */\n      swap3\n      pop\n        /* \"contracts/mirrorseaMain.sol\":5185:5283  if (remAmt >= _row) {... */\n    tag_210:\n        /* \"contracts/mirrorseaMain.sol\":5329:5341  _list.length */\n      dup2\n      mload\n        /* \"contracts/mirrorseaMain.sol\":5301:5326  _row.mul(_page).sub(_row) */\n      tag_211\n        /* \"contracts/mirrorseaMain.sol\":5321:5325  _row */\n      dup9\n        /* \"contracts/mirrorseaMain.sol\":5301:5316  _row.mul(_page) */\n      tag_206\n        /* \"contracts/mirrorseaMain.sol\":5321:5325  _row */\n      dup2\n        /* \"contracts/mirrorseaMain.sol\":5310:5315  _page */\n      dup11\n        /* \"contracts/mirrorseaMain.sol\":5301:5309  _row.mul */\n      tag_207\n        /* \"contracts/mirrorseaMain.sol\":5301:5316  _row.mul(_page) */\n      jump\t// in\n        /* \"contracts/mirrorseaMain.sol\":5301:5326  _row.mul(_page).sub(_row) */\n    tag_211:\n        /* \"contracts/mirrorseaMain.sol\":5301:5341  _row.mul(_page).sub(_row) < _list.length */\n      lt\n        /* \"contracts/mirrorseaMain.sol\":5293:5356  require(_row.mul(_page).sub(_row) < _list.length, \"length err\") */\n      tag_213\n      jumpi\n      mload(0x40)\n      shl(0xe5, 0x461bcd)\n      dup2\n      mstore\n      0x04\n      add\n      tag_214\n      swap1\n      tag_215\n      jump\t// in\n    tag_214:\n      mload(0x40)\n      dup1\n      swap2\n      sub\n      swap1\n      revert\n    tag_213:\n        /* \"contracts/mirrorseaMain.sol\":5374:5382  arr != 0 */\n      dup3\n        /* \"contracts/mirrorseaMain.sol\":5366:5398  require(arr != 0, \"arr no good\") */\n      tag_216\n      jumpi\n      mload(0x40)\n      shl(0xe5, 0x461bcd)\n      dup2\n      mstore\n      0x04\n      add\n      tag_214\n      swap1\n      tag_218\n      jump\t// in\n    tag_216:\n        /* \"contracts/mirrorseaMain.sol\":5409:5433  uint256[] memory newList */\n      0x00\n        /* \"contracts/mirrorseaMain.sol\":5450:5453  arr */\n      dup4\n        /* \"contracts/mirrorseaMain.sol\":5436:5454  new uint256[](arr) */\n      0xffffffffffffffff\n      dup2\n      gt\n      iszero\n      tag_219\n      jumpi\n      mstore(0x00, shl(0xe0, 0x4e487b71))\n      mstore(0x04, 0x41)\n      revert(0x00, 0x24)\n    tag_219:\n      mload(0x40)\n      swap1\n      dup1\n      dup3\n      mstore\n      dup1\n      0x20\n      mul\n      0x20\n      add\n      dup3\n      add\n      0x40\n      mstore\n      dup1\n      iszero\n      tag_220\n      jumpi\n      dup2\n      0x20\n      add\n      0x20\n      dup3\n      mul\n      dup1\n      calldatasize\n      dup4\n      calldatacopy\n      add\n      swap1\n      pop\n    tag_220:\n      pop\n        /* \"contracts/mirrorseaMain.sol\":5409:5454  uint256[] memory newList = new uint256[](arr) */\n      swap1\n      pop\n        /* \"contracts/mirrorseaMain.sol\":5470:5479  uint256 i */\n      0x00\n        /* \"contracts/mirrorseaMain.sol\":5482:5495  remAmt.sub(1) */\n      tag_224\n        /* \"contracts/mirrorseaMain.sol\":5482:5488  remAmt */\n      dup4\n        /* \"contracts/mirrorseaMain.sol\":5493:5494  1 */\n      0x01\n        /* \"contracts/mirrorseaMain.sol\":5482:5492  remAmt.sub */\n      tag_208\n        /* \"contracts/mirrorseaMain.sol\":5482:5495  remAmt.sub(1) */\n      jump\t// in\n    tag_224:\n        /* \"contracts/mirrorseaMain.sol\":5470:5495  uint256 i = remAmt.sub(1) */\n      swap1\n      pop\n        /* \"contracts/mirrorseaMain.sol\":5465:5649  for (uint256 i = remAmt.sub(1); index < arr; i--) {... */\n    tag_221:\n        /* \"contracts/mirrorseaMain.sol\":5505:5508  arr */\n      dup5\n        /* \"contracts/mirrorseaMain.sol\":5497:5502  index */\n      dup7\n        /* \"contracts/mirrorseaMain.sol\":5497:5508  index < arr */\n      lt\n        /* \"contracts/mirrorseaMain.sol\":5465:5649  for (uint256 i = remAmt.sub(1); index < arr; i--) {... */\n      iszero\n      tag_222\n      jumpi\n        /* \"contracts/mirrorseaMain.sol\":5546:5551  _list */\n      dup4\n        /* \"contracts/mirrorseaMain.sol\":5552:5553  i */\n      dup2\n        /* \"contracts/mirrorseaMain.sol\":5546:5554  _list[i] */\n      dup2\n      mload\n      dup2\n      lt\n      tag_225\n      jumpi\n      mstore(0x00, shl(0xe0, 0x4e487b71))\n      mstore(0x04, 0x32)\n      revert(0x00, 0x24)\n    tag_225:\n      0x20\n      mul\n      0x20\n      add\n      add\n      mload\n        /* \"contracts/mirrorseaMain.sol\":5529:5536  newList */\n      dup3\n        /* \"contracts/mirrorseaMain.sol\":5537:5542  index */\n      dup8\n        /* \"contracts/mirrorseaMain.sol\":5529:5543  newList[index] */\n      dup2\n      mload\n      dup2\n      lt\n      tag_226\n      jumpi\n      mstore(0x00, shl(0xe0, 0x4e487b71))\n      mstore(0x04, 0x32)\n      revert(0x00, 0x24)\n    tag_226:\n      0x20\n      swap1\n      dup2\n      mul\n      swap2\n      swap1\n      swap2\n      add\n      add\n        /* \"contracts/mirrorseaMain.sol\":5529:5554  newList[index] = _list[i] */\n      mstore\n        /* \"contracts/mirrorseaMain.sol\":5572:5578  i == 0 */\n      dup1\n        /* \"contracts/mirrorseaMain.sol\":5568:5618  if (i == 0) {... */\n      tag_227\n      jumpi\n        /* \"contracts/mirrorseaMain.sol\":5598:5603  break */\n      jump(tag_222)\n        /* \"contracts/mirrorseaMain.sol\":5568:5618  if (i == 0) {... */\n    tag_227:\n        /* \"contracts/mirrorseaMain.sol\":5631:5638  index++ */\n      dup6\n      tag_228\n      dup2\n      tag_229\n      jump\t// in\n    tag_228:\n      swap7\n      pop\n      pop\n        /* \"contracts/mirrorseaMain.sol\":5510:5513  i-- */\n      dup1\n      dup1\n      tag_230\n      swap1\n      tag_231\n      jump\t// in\n    tag_230:\n      swap2\n      pop\n      pop\n        /* \"contracts/mirrorseaMain.sol\":5465:5649  for (uint256 i = remAmt.sub(1); index < arr; i--) {... */\n      jump(tag_221)\n    tag_222:\n      pop\n        /* \"contracts/mirrorseaMain.sol\":5898:5905  newList */\n      swap10\n        /* \"contracts/mirrorseaMain.sol\":4639:5912  function pagination(... */\n      swap9\n      pop\n      pop\n      pop\n      pop\n      pop\n      pop\n      pop\n      pop\n      pop\n      jump\t// out\n        /* \"contracts/mirrorseaMain.sol\":1347:1379  uint256[] public openOrderIdList */\n    tag_54:\n      0x6c\n      dup2\n      dup2\n      sload\n      dup2\n      lt\n      tag_232\n      jumpi\n      0x00\n      dup1\n      revert\n    tag_232:\n      0x00\n      swap2\n      dup3\n      mstore\n      0x20\n      swap1\n      swap2\n      keccak256\n      add\n      sload\n      swap1\n      pop\n      dup2\n      jump\t// out\n        /* \"contracts/mirrorseaMain.sol\":3136:3313  function setExecutor(address _address, bool _type)... */\n    tag_60:\n        /* \"contracts/mirrorseaMain.sol\":3239:3243  bool */\n      0x00\n        /* \"@openzeppelin/contracts-upgradeable/access/OwnableUpgradeable.sol\":1525:1537  _msgSender() */\n      tag_235\n        /* \"@openzeppelin/contracts-upgradeable/access/OwnableUpgradeable.sol\":1525:1535  _msgSender */\n      tag_236\n        /* \"@openzeppelin/contracts-upgradeable/access/OwnableUpgradeable.sol\":1525:1537  _msgSender() */\n      jump\t// in\n    tag_235:\n      sub(shl(0xa0, 0x01), 0x01)\n        /* \"@openzeppelin/contracts-upgradeable/access/OwnableUpgradeable.sol\":1514:1537  owner() == _msgSender() */\n      and\n        /* \"@openzeppelin/contracts-upgradeable/access/OwnableUpgradeable.sol\":1514:1521  owner() */\n      tag_237\n        /* \"@openzeppelin/contracts-upgradeable/access/OwnableUpgradeable.sol\":1514:1519  owner */\n      tag_135\n        /* \"@openzeppelin/contracts-upgradeable/access/OwnableUpgradeable.sol\":1514:1521  owner() */\n      jump\t// in\n    tag_237:\n      sub(shl(0xa0, 0x01), 0x01)\n        /* \"@openzeppelin/contracts-upgradeable/access/OwnableUpgradeable.sol\":1514:1537  owner() == _msgSender() */\n      and\n      eq\n        /* \"@openzeppelin/contracts-upgradeable/access/OwnableUpgradeable.sol\":1506:1574  require(owner() == _msgSender(), \"Ownable: caller is not the owner\") */\n      tag_238\n      jumpi\n      mload(0x40)\n      shl(0xe5, 0x461bcd)\n      dup2\n      mstore\n      0x04\n      add\n      tag_214\n      swap1\n      tag_240\n      jump\t// in\n    tag_238:\n      pop\n      sub(shl(0xa0, 0x01), 0x01)\n        /* \"contracts/mirrorseaMain.sol\":3259:3277  executor[_address] */\n      dup3\n      and\n      0x00\n      swap1\n      dup2\n      mstore\n        /* \"contracts/mirrorseaMain.sol\":3259:3267  executor */\n      0x65\n        /* \"contracts/mirrorseaMain.sol\":3259:3277  executor[_address] */\n      0x20\n      mstore\n      0x40\n      swap1\n      keccak256\n        /* \"contracts/mirrorseaMain.sol\":3259:3285  executor[_address] = _type */\n      dup1\n      sload\n      dup3\n      iszero\n      iszero\n      not(0xff)\n      swap1\n      swap2\n      and\n      or\n      swap1\n      sstore\n      0x01\n        /* \"contracts/mirrorseaMain.sol\":3136:3313  function setExecutor(address _address, bool _type)... */\n      swap3\n      swap2\n      pop\n      pop\n      jump\t// out\n        /* \"contracts/mirrorseaMain.sol\":1196:1227  IhelperLogic public helperLogic */\n    tag_64:\n      and(sub(shl(0xa0, 0x01), 0x01), sload(0x68))\n      dup2\n      jump\t// out\n        /* \"contracts/mirrorseaMain.sol\":1135:1156  address public signer */\n    tag_68:\n      and(sub(shl(0xa0, 0x01), 0x01), sload(0x66))\n      dup2\n      jump\t// out\n        /* \"contracts/mirrorseaMain.sol\":13968:15330  function _isSolvent(... */\n    tag_74:\n        /* \"contracts/mirrorseaMain.sol\":14087:14091  bool */\n      0x00\n        /* \"contracts/mirrorseaMain.sol\":14129:14144  _orderInfo[_id] */\n      dup4\n      dup2\n      mstore\n        /* \"contracts/mirrorseaMain.sol\":14129:14139  _orderInfo */\n      0x6a\n        /* \"contracts/mirrorseaMain.sol\":14129:14144  _orderInfo[_id] */\n      0x20\n      mstore\n      0x40\n      dup2\n      keccak256\n        /* \"contracts/mirrorseaMain.sol\":14246:14255  order.amt */\n      0x09\n      dup2\n      add\n      sload\n        /* \"contracts/mirrorseaMain.sol\":14306:14321  order.direction */\n      0x04\n      dup3\n      add\n      sload\n        /* \"contracts/mirrorseaMain.sol\":14087:14091  bool */\n      dup4\n      swap2\n      dup3\n      swap2\n      dup3\n      swap2\n        /* \"contracts/mirrorseaMain.sol\":14246:14255  order.amt */\n      swap1\n        /* \"contracts/mirrorseaMain.sol\":14284:14292  _price18 */\n      dup9\n      swap1\n        /* \"contracts/mirrorseaMain.sol\":14325:14326  1 */\n      0x01\n        /* \"contracts/mirrorseaMain.sol\":14306:14326  order.direction == 1 */\n      eq\n        /* \"contracts/mirrorseaMain.sol\":14302:15303  if (order.direction == 1) {... */\n      iszero\n      tag_243\n      jumpi\n        /* \"contracts/mirrorseaMain.sol\":14356:14361  order */\n      dup6\n        /* \"contracts/mirrorseaMain.sol\":14356:14373  order.openPrice18 */\n      0x05\n      add\n      sload\n        /* \"contracts/mirrorseaMain.sol\":14346:14353  price18 */\n      dup2\n        /* \"contracts/mirrorseaMain.sol\":14346:14373  price18 < order.openPrice18 */\n      lt\n        /* \"contracts/mirrorseaMain.sol\":14342:14871  if (price18 < order.openPrice18) {... */\n      iszero\n      tag_255\n      jumpi\n        /* \"contracts/mirrorseaMain.sol\":14407:14424  order.openPrice18 */\n      0x05\n      dup7\n      add\n      sload\n        /* \"contracts/mirrorseaMain.sol\":14407:14437  order.openPrice18.sub(price18) */\n      tag_245\n      swap1\n        /* \"contracts/mirrorseaMain.sol\":14429:14436  price18 */\n      dup3\n        /* \"contracts/mirrorseaMain.sol\":14407:14428  order.openPrice18.sub */\n      tag_208\n        /* \"contracts/mirrorseaMain.sol\":14407:14437  order.openPrice18.sub(price18) */\n      jump\t// in\n    tag_245:\n        /* \"contracts/mirrorseaMain.sol\":14393:14437  diffPrice18 = order.openPrice18.sub(price18) */\n      swap5\n      pop\n        /* \"contracts/mirrorseaMain.sol\":14518:14548  diffPrice18.mul(amt).div(1e18) */\n      tag_246\n        /* \"contracts/mirrorseaMain.sol\":14543:14547  1e18 */\n      0x0de0b6b3a7640000\n        /* \"contracts/mirrorseaMain.sol\":14518:14538  diffPrice18.mul(amt) */\n      tag_247\n        /* \"contracts/mirrorseaMain.sol\":14393:14437  diffPrice18 = order.openPrice18.sub(price18) */\n      dup8\n        /* \"contracts/mirrorseaMain.sol\":14534:14537  amt */\n      dup6\n        /* \"contracts/mirrorseaMain.sol\":14518:14533  diffPrice18.mul */\n      tag_207\n        /* \"contracts/mirrorseaMain.sol\":14518:14538  diffPrice18.mul(amt) */\n      jump\t// in\n    tag_247:\n        /* \"contracts/mirrorseaMain.sol\":14518:14542  diffPrice18.mul(amt).div */\n      swap1\n      tag_248\n        /* \"contracts/mirrorseaMain.sol\":14518:14548  diffPrice18.mul(amt).div(1e18) */\n      jump\t// in\n    tag_246:\n        /* \"contracts/mirrorseaMain.sol\":14505:14548  diffMargin = diffPrice18.mul(amt).div(1e18) */\n      swap4\n      pop\n        /* \"contracts/mirrorseaMain.sol\":14572:14667  amt.mul(price18).mul(feePercent).div(PRECISION).div(... */\n      tag_249\n        /* \"contracts/mirrorseaMain.sol\":14645:14649  1e18 */\n      0x0de0b6b3a7640000\n        /* \"contracts/mirrorseaMain.sol\":14572:14619  amt.mul(price18).mul(feePercent).div(PRECISION) */\n      tag_247\n        /* \"contracts/mirrorseaMain.sol\":14609:14618  PRECISION */\n      sload(0x73)\n        /* \"contracts/mirrorseaMain.sol\":14572:14604  amt.mul(price18).mul(feePercent) */\n      tag_247\n        /* \"contracts/mirrorseaMain.sol\":14593:14603  feePercent */\n      sload(0x72)\n        /* \"contracts/mirrorseaMain.sol\":14572:14588  amt.mul(price18) */\n      tag_252\n        /* \"contracts/mirrorseaMain.sol\":14580:14587  price18 */\n      dup8\n        /* \"contracts/mirrorseaMain.sol\":14572:14575  amt */\n      dup10\n        /* \"contracts/mirrorseaMain.sol\":14572:14579  amt.mul */\n      tag_207\n      swap1\n        /* \"contracts/mirrorseaMain.sol\":14572:14588  amt.mul(price18) */\n      swap2\n      swap1\n      0xffffffff\n      and\n      jump\t// in\n    tag_252:\n        /* \"contracts/mirrorseaMain.sol\":14572:14592  amt.mul(price18).mul */\n      swap1\n      tag_207\n        /* \"contracts/mirrorseaMain.sol\":14572:14604  amt.mul(price18).mul(feePercent) */\n      jump\t// in\n        /* \"contracts/mirrorseaMain.sol\":14572:14667  amt.mul(price18).mul(feePercent).div(PRECISION).div(... */\n    tag_249:\n        /* \"contracts/mirrorseaMain.sol\":14566:14667  fee = amt.mul(price18).mul(feePercent).div(PRECISION).div(... */\n      swap3\n      pop\n        /* \"contracts/mirrorseaMain.sol\":14699:14715  diffMargin + fee */\n      tag_253\n        /* \"contracts/mirrorseaMain.sol\":14566:14667  fee = amt.mul(price18).mul(feePercent).div(PRECISION).div(... */\n      dup4\n        /* \"contracts/mirrorseaMain.sol\":14699:14709  diffMargin */\n      dup6\n        /* \"contracts/mirrorseaMain.sol\":14699:14715  diffMargin + fee */\n      tag_254\n      jump\t// in\n    tag_253:\n        /* \"contracts/mirrorseaMain.sol\":14689:14696  _margin */\n      dup9\n        /* \"contracts/mirrorseaMain.sol\":14689:14715  _margin < diffMargin + fee */\n      lt\n        /* \"contracts/mirrorseaMain.sol\":14685:14857  if (_margin < diffMargin + fee) {... */\n      iszero\n      tag_255\n      jumpi\n        /* \"contracts/mirrorseaMain.sol\":14833:14838  false */\n      0x00\n        /* \"contracts/mirrorseaMain.sol\":14826:14838  return false */\n      swap7\n      pop\n      pop\n      pop\n      pop\n      pop\n      pop\n      pop\n      jump(tag_242)\n        /* \"contracts/mirrorseaMain.sol\":14685:14857  if (_margin < diffMargin + fee) {... */\n    tag_255:\n        /* \"contracts/mirrorseaMain.sol\":14302:15303  if (order.direction == 1) {... */\n      jump(tag_266)\n    tag_243:\n        /* \"contracts/mirrorseaMain.sol\":14915:14920  order */\n      dup6\n        /* \"contracts/mirrorseaMain.sol\":14915:14932  order.openPrice18 */\n      0x05\n      add\n      sload\n        /* \"contracts/mirrorseaMain.sol\":14905:14912  price18 */\n      dup2\n        /* \"contracts/mirrorseaMain.sol\":14905:14932  price18 > order.openPrice18 */\n      gt\n        /* \"contracts/mirrorseaMain.sol\":14901:15293  if (price18 > order.openPrice18) {... */\n      iszero\n      tag_266\n      jumpi\n        /* \"contracts/mirrorseaMain.sol\":14978:14995  order.openPrice18 */\n      0x05\n      dup7\n      add\n      sload\n        /* \"contracts/mirrorseaMain.sol\":14966:14996  price18.sub(order.openPrice18) */\n      tag_258\n      swap1\n        /* \"contracts/mirrorseaMain.sol\":14966:14973  price18 */\n      dup3\n      swap1\n        /* \"contracts/mirrorseaMain.sol\":14966:14977  price18.sub */\n      tag_208\n        /* \"contracts/mirrorseaMain.sol\":14966:14996  price18.sub(order.openPrice18) */\n      jump\t// in\n    tag_258:\n        /* \"contracts/mirrorseaMain.sol\":14952:14996  diffPrice18 = price18.sub(order.openPrice18) */\n      swap5\n      pop\n        /* \"contracts/mirrorseaMain.sol\":15027:15057  diffPrice18.mul(amt).div(1e18) */\n      tag_259\n        /* \"contracts/mirrorseaMain.sol\":15052:15056  1e18 */\n      0x0de0b6b3a7640000\n        /* \"contracts/mirrorseaMain.sol\":15027:15047  diffPrice18.mul(amt) */\n      tag_247\n        /* \"contracts/mirrorseaMain.sol\":14952:14996  diffPrice18 = price18.sub(order.openPrice18) */\n      dup8\n        /* \"contracts/mirrorseaMain.sol\":15043:15046  amt */\n      dup6\n        /* \"contracts/mirrorseaMain.sol\":15027:15042  diffPrice18.mul */\n      tag_207\n        /* \"contracts/mirrorseaMain.sol\":15027:15047  diffPrice18.mul(amt) */\n      jump\t// in\n        /* \"contracts/mirrorseaMain.sol\":15027:15057  diffPrice18.mul(amt).div(1e18) */\n    tag_259:\n        /* \"contracts/mirrorseaMain.sol\":15014:15057  diffMargin = diffPrice18.mul(amt).div(1e18) */\n      swap4\n      pop\n        /* \"contracts/mirrorseaMain.sol\":15081:15176  amt.mul(price18).mul(feePercent).div(PRECISION).div(... */\n      tag_261\n        /* \"contracts/mirrorseaMain.sol\":15154:15158  1e18 */\n      0x0de0b6b3a7640000\n        /* \"contracts/mirrorseaMain.sol\":15081:15128  amt.mul(price18).mul(feePercent).div(PRECISION) */\n      tag_247\n        /* \"contracts/mirrorseaMain.sol\":15118:15127  PRECISION */\n      sload(0x73)\n        /* \"contracts/mirrorseaMain.sol\":15081:15113  amt.mul(price18).mul(feePercent) */\n      tag_247\n        /* \"contracts/mirrorseaMain.sol\":15102:15112  feePercent */\n      sload(0x72)\n        /* \"contracts/mirrorseaMain.sol\":15081:15097  amt.mul(price18) */\n      tag_252\n        /* \"contracts/mirrorseaMain.sol\":15089:15096  price18 */\n      dup8\n        /* \"contracts/mirrorseaMain.sol\":15081:15084  amt */\n      dup10\n        /* \"contracts/mirrorseaMain.sol\":15081:15088  amt.mul */\n      tag_207\n      swap1\n        /* \"contracts/mirrorseaMain.sol\":15081:15097  amt.mul(price18) */\n      swap2\n      swap1\n      0xffffffff\n      and\n      jump\t// in\n        /* \"contracts/mirrorseaMain.sol\":15081:15176  amt.mul(price18).mul(feePercent).div(PRECISION).div(... */\n    tag_261:\n        /* \"contracts/mirrorseaMain.sol\":15075:15176  fee = amt.mul(price18).mul(feePercent).div(PRECISION).div(... */\n      swap3\n      pop\n        /* \"contracts/mirrorseaMain.sol\":15208:15224  diffMargin + fee */\n      tag_265\n        /* \"contracts/mirrorseaMain.sol\":15075:15176  fee = amt.mul(price18).mul(feePercent).div(PRECISION).div(... */\n      dup4\n        /* \"contracts/mirrorseaMain.sol\":15208:15218  diffMargin */\n      dup6\n        /* \"contracts/mirrorseaMain.sol\":15208:15224  diffMargin + fee */\n      tag_254\n      jump\t// in\n    tag_265:\n        /* \"contracts/mirrorseaMain.sol\":15198:15205  _margin */\n      dup9\n        /* \"contracts/mirrorseaMain.sol\":15198:15224  _margin < diffMargin + fee */\n      lt\n        /* \"contracts/mirrorseaMain.sol\":15194:15279  if (_margin < diffMargin + fee) {... */\n      iszero\n      tag_266\n      jumpi\n        /* \"contracts/mirrorseaMain.sol\":15255:15260  false */\n      0x00\n        /* \"contracts/mirrorseaMain.sol\":15248:15260  return false */\n      swap7\n      pop\n      pop\n      pop\n      pop\n      pop\n      pop\n      pop\n      jump(tag_242)\n        /* \"contracts/mirrorseaMain.sol\":15194:15279  if (_margin < diffMargin + fee) {... */\n    tag_266:\n        /* \"contracts/mirrorseaMain.sol\":15319:15323  true */\n      0x01\n        /* \"contracts/mirrorseaMain.sol\":15312:15323  return true */\n      swap7\n      pop\n      pop\n      pop\n      pop\n      pop\n      pop\n      pop\n        /* \"contracts/mirrorseaMain.sol\":13968:15330  function _isSolvent(... */\n    tag_242:\n      swap4\n      swap3\n      pop\n      pop\n      pop\n      jump\t// out\n        /* \"contracts/mirrorseaMain.sol\":1162:1190  IERC20Upgradeable public usc */\n    tag_77:\n      and(sub(shl(0xa0, 0x01), 0x01), sload(0x67))\n      dup2\n      jump\t// out\n        /* \"contracts/mirrorseaMain.sol\":2685:2794  function openOrderIdListLength() public view returns (uint256) {... */\n    tag_81:\n        /* \"contracts/mirrorseaMain.sol\":2765:2780  openOrderIdList */\n      0x6c\n        /* \"contracts/mirrorseaMain.sol\":2765:2787  openOrderIdList.length */\n      sload\n        /* \"contracts/mirrorseaMain.sol\":2685:2794  function openOrderIdListLength() public view returns (uint256) {... */\n      swap1\n      jump\t// out\n        /* \"contracts/mirrorseaMain.sol\":1385:1441  mapping(uint256 => uint256) public openOrderIdList_index */\n    tag_85:\n      mstore(0x20, 0x6d)\n      0x00\n      swap1\n      dup2\n      mstore\n      0x40\n      swap1\n      keccak256\n      sload\n      dup2\n      jump\t// out\n        /* \"contracts/mirrorseaMain.sol\":1089:1129  mapping(address => bool) public executor */\n    tag_90:\n      mstore(0x20, 0x65)\n      0x00\n      swap1\n      dup2\n      mstore\n      0x40\n      swap1\n      keccak256\n      sload\n      0xff\n      and\n      dup2\n      jump\t// out\n        /* \"contracts/mirrorseaMain.sol\":12514:13403  function liquidation(... */\n    tag_95:\n        /* \"contracts/mirrorseaMain.sol\":3370:3380  msg.sender */\n      caller\n        /* \"contracts/mirrorseaMain.sol\":12770:12774  bool */\n      0x00\n        /* \"contracts/mirrorseaMain.sol\":3361:3381  executor[msg.sender] */\n      swap1\n      dup2\n      mstore\n        /* \"contracts/mirrorseaMain.sol\":3361:3369  executor */\n      0x65\n        /* \"contracts/mirrorseaMain.sol\":3361:3381  executor[msg.sender] */\n      0x20\n      mstore\n      0x40\n      dup2\n      keccak256\n      sload\n      0xff\n      and\n        /* \"contracts/mirrorseaMain.sol\":3353:3422  require(executor[msg.sender], \"executor: caller is not the executor\") */\n      tag_269\n      jumpi\n      mload(0x40)\n      shl(0xe5, 0x461bcd)\n      dup2\n      mstore\n      0x04\n      add\n      tag_214\n      swap1\n      tag_271\n      jump\t// in\n    tag_269:\n        /* \"contracts/mirrorseaMain.sol\":12786:12800  uint256 number */\n      0x00\n        /* \"contracts/mirrorseaMain.sol\":12819:12828  uint256 i */\n      dup1\n        /* \"contracts/mirrorseaMain.sol\":12814:13328  for (uint256 i = 0; i < _id.length; i++) {... */\n    tag_273:\n        /* \"contracts/mirrorseaMain.sol\":12838:12841  _id */\n      dup8\n        /* \"contracts/mirrorseaMain.sol\":12838:12848  _id.length */\n      mload\n        /* \"contracts/mirrorseaMain.sol\":12834:12835  i */\n      dup2\n        /* \"contracts/mirrorseaMain.sol\":12834:12848  i < _id.length */\n      lt\n        /* \"contracts/mirrorseaMain.sol\":12814:13328  for (uint256 i = 0; i < _id.length; i++) {... */\n      iszero\n      tag_274\n      jumpi\n        /* \"contracts/mirrorseaMain.sol\":12869:12892  OrderInfo storage order */\n      0x00\n        /* \"contracts/mirrorseaMain.sol\":12895:12905  _orderInfo */\n      0x6a\n        /* \"contracts/mirrorseaMain.sol\":12895:12913  _orderInfo[_id[i]] */\n      0x00\n        /* \"contracts/mirrorseaMain.sol\":12906:12909  _id */\n      dup11\n        /* \"contracts/mirrorseaMain.sol\":12910:12911  i */\n      dup5\n        /* \"contracts/mirrorseaMain.sol\":12906:12912  _id[i] */\n      dup2\n      mload\n      dup2\n      lt\n      tag_276\n      jumpi\n      mstore(0x00, shl(0xe0, 0x4e487b71))\n      mstore(0x04, 0x32)\n      revert(0x00, 0x24)\n    tag_276:\n      0x20\n      mul\n      0x20\n      add\n      add\n      mload\n        /* \"contracts/mirrorseaMain.sol\":12895:12913  _orderInfo[_id[i]] */\n      dup2\n      mstore\n      0x20\n      add\n      swap1\n      dup2\n      mstore\n      0x20\n      add\n      0x00\n      keccak256\n        /* \"contracts/mirrorseaMain.sol\":12869:12913  OrderInfo storage order = _orderInfo[_id[i]] */\n      swap1\n      pop\n        /* \"contracts/mirrorseaMain.sol\":12932:12977  _isSolvent(_id[i], _price18[i], order.margin) */\n      tag_277\n        /* \"contracts/mirrorseaMain.sol\":12943:12946  _id */\n      dup10\n        /* \"contracts/mirrorseaMain.sol\":12947:12948  i */\n      dup4\n        /* \"contracts/mirrorseaMain.sol\":12943:12949  _id[i] */\n      dup2\n      mload\n      dup2\n      lt\n      tag_278\n      jumpi\n      mstore(0x00, shl(0xe0, 0x4e487b71))\n      mstore(0x04, 0x32)\n      revert(0x00, 0x24)\n    tag_278:\n      0x20\n      mul\n      0x20\n      add\n      add\n      mload\n        /* \"contracts/mirrorseaMain.sol\":12951:12959  _price18 */\n      dup8\n        /* \"contracts/mirrorseaMain.sol\":12960:12961  i */\n      dup5\n        /* \"contracts/mirrorseaMain.sol\":12951:12962  _price18[i] */\n      dup2\n      mload\n      dup2\n      lt\n      tag_279\n      jumpi\n      mstore(0x00, shl(0xe0, 0x4e487b71))\n      mstore(0x04, 0x32)\n      revert(0x00, 0x24)\n    tag_279:\n      0x20\n      mul\n      0x20\n      add\n      add\n      mload\n        /* \"contracts/mirrorseaMain.sol\":12964:12969  order */\n      dup4\n        /* \"contracts/mirrorseaMain.sol\":12964:12976  order.margin */\n      0x0a\n      add\n      sload\n        /* \"contracts/mirrorseaMain.sol\":12932:12942  _isSolvent */\n      tag_74\n        /* \"contracts/mirrorseaMain.sol\":12932:12977  _isSolvent(_id[i], _price18[i], order.margin) */\n      jump\t// in\n    tag_277:\n        /* \"contracts/mirrorseaMain.sol\":12927:13318  if (!_isSolvent(_id[i], _price18[i], order.margin)) {... */\n      tag_280\n      jumpi\n        /* \"contracts/mirrorseaMain.sol\":12997:13005  number++ */\n      dup3\n      tag_281\n      dup2\n      tag_229\n      jump\t// in\n    tag_281:\n      swap4\n      pop\n      pop\n        /* \"contracts/mirrorseaMain.sol\":13023:13303  _closePosition(... */\n      tag_282\n        /* \"contracts/mirrorseaMain.sol\":13059:13071  _marketState */\n      dup11\n        /* \"contracts/mirrorseaMain.sol\":13093:13098  order */\n      dup3\n        /* \"contracts/mirrorseaMain.sol\":13120:13121  3 */\n      0x03\n        /* \"contracts/mirrorseaMain.sol\":13143:13146  _id */\n      dup13\n        /* \"contracts/mirrorseaMain.sol\":13147:13148  i */\n      dup7\n        /* \"contracts/mirrorseaMain.sol\":13143:13149  _id[i] */\n      dup2\n      mload\n      dup2\n      lt\n      tag_283\n      jumpi\n      mstore(0x00, shl(0xe0, 0x4e487b71))\n      mstore(0x04, 0x32)\n      revert(0x00, 0x24)\n    tag_283:\n      0x20\n      mul\n      0x20\n      add\n      add\n      mload\n        /* \"contracts/mirrorseaMain.sol\":13171:13181  _timestamp */\n      dup13\n        /* \"contracts/mirrorseaMain.sol\":13182:13183  i */\n      dup8\n        /* \"contracts/mirrorseaMain.sol\":13171:13184  _timestamp[i] */\n      dup2\n      mload\n      dup2\n      lt\n      tag_284\n      jumpi\n      mstore(0x00, shl(0xe0, 0x4e487b71))\n      mstore(0x04, 0x32)\n      revert(0x00, 0x24)\n    tag_284:\n      0x20\n      mul\n      0x20\n      add\n      add\n      mload\n        /* \"contracts/mirrorseaMain.sol\":13206:13214  _symbols */\n      dup13\n        /* \"contracts/mirrorseaMain.sol\":13215:13216  i */\n      dup9\n        /* \"contracts/mirrorseaMain.sol\":13206:13217  _symbols[i] */\n      dup2\n      mload\n      dup2\n      lt\n      tag_285\n      jumpi\n      mstore(0x00, shl(0xe0, 0x4e487b71))\n      mstore(0x04, 0x32)\n      revert(0x00, 0x24)\n    tag_285:\n      0x20\n      mul\n      0x20\n      add\n      add\n      mload\n        /* \"contracts/mirrorseaMain.sol\":13239:13247  _price18 */\n      dup13\n        /* \"contracts/mirrorseaMain.sol\":13248:13249  i */\n      dup10\n        /* \"contracts/mirrorseaMain.sol\":13239:13250  _price18[i] */\n      dup2\n      mload\n      dup2\n      lt\n      tag_286\n      jumpi\n      mstore(0x00, shl(0xe0, 0x4e487b71))\n      mstore(0x04, 0x32)\n      revert(0x00, 0x24)\n    tag_286:\n      0x20\n      mul\n      0x20\n      add\n      add\n      mload\n        /* \"contracts/mirrorseaMain.sol\":13272:13282  _signature */\n      dup13\n        /* \"contracts/mirrorseaMain.sol\":13283:13284  i */\n      dup11\n        /* \"contracts/mirrorseaMain.sol\":13272:13285  _signature[i] */\n      dup2\n      mload\n      dup2\n      lt\n      tag_287\n      jumpi\n      mstore(0x00, shl(0xe0, 0x4e487b71))\n      mstore(0x04, 0x32)\n      revert(0x00, 0x24)\n    tag_287:\n      0x20\n      mul\n      0x20\n      add\n      add\n      mload\n        /* \"contracts/mirrorseaMain.sol\":13023:13037  _closePosition */\n      tag_288\n        /* \"contracts/mirrorseaMain.sol\":13023:13303  _closePosition(... */\n      jump\t// in\n    tag_282:\n      pop\n        /* \"contracts/mirrorseaMain.sol\":12927:13318  if (!_isSolvent(_id[i], _price18[i], order.margin)) {... */\n    tag_280:\n      pop\n        /* \"contracts/mirrorseaMain.sol\":12850:12853  i++ */\n      dup1\n      tag_289\n      dup2\n      tag_229\n      jump\t// in\n    tag_289:\n      swap2\n      pop\n      pop\n        /* \"contracts/mirrorseaMain.sol\":12814:13328  for (uint256 i = 0; i < _id.length; i++) {... */\n      jump(tag_273)\n    tag_274:\n      pop\n        /* \"contracts/mirrorseaMain.sol\":13345:13356  number != 0 */\n      dup1\n        /* \"contracts/mirrorseaMain.sol\":13337:13375  require(number != 0, \"No liquidation\") */\n      tag_290\n      jumpi\n      mload(0x40)\n      shl(0xe5, 0x461bcd)\n      dup2\n      mstore\n      0x04\n      add\n      tag_214\n      swap1\n      tag_292\n      jump\t// in\n    tag_290:\n      pop\n        /* \"contracts/mirrorseaMain.sol\":13392:13396  true */\n      0x01\n      swap8\n        /* \"contracts/mirrorseaMain.sol\":12514:13403  function liquidation(... */\n      swap7\n      pop\n      pop\n      pop\n      pop\n      pop\n      pop\n      pop\n      jump\t// out\n        /* \"contracts/mirrorseaMain.sol\":3740:3852  function orderInfo(uint256 _id) external view returns (OrderInfo memory) {... */\n    tag_99:\n        /* \"contracts/mirrorseaMain.sol\":3795:3811  OrderInfo memory */\n      tag_293\n      tag_294\n      jump\t// in\n    tag_293:\n        /* \"contracts/mirrorseaMain.sol\":3830:3845  _orderInfo[_id] */\n      0x00\n      dup3\n      dup2\n      mstore\n        /* \"contracts/mirrorseaMain.sol\":3830:3840  _orderInfo */\n      0x6a\n        /* \"contracts/mirrorseaMain.sol\":3830:3845  _orderInfo[_id] */\n      0x20\n      swap1\n      dup2\n      mstore\n      0x40\n      swap2\n      dup3\n      swap1\n      keccak256\n        /* \"contracts/mirrorseaMain.sol\":3823:3845  return _orderInfo[_id] */\n      dup3\n      mload\n      0x0160\n      dup2\n      add\n      dup5\n      mstore\n      dup2\n      sload\n      sub(shl(0xa0, 0x01), 0x01)\n      and\n      dup2\n      mstore\n      0x01\n      dup3\n      add\n      sload\n      swap3\n      dup2\n      add\n      swap3\n      swap1\n      swap3\n      mstore\n      0x02\n      dup2\n      add\n      dup1\n      sload\n      swap3\n      swap4\n        /* \"contracts/mirrorseaMain.sol\":3830:3845  _orderInfo[_id] */\n      swap2\n      swap3\n        /* \"contracts/mirrorseaMain.sol\":3823:3845  return _orderInfo[_id] */\n      swap2\n      dup5\n      add\n      swap2\n      tag_296\n      swap1\n      tag_297\n      jump\t// in\n    tag_296:\n      dup1\n      0x1f\n      add\n      0x20\n      dup1\n      swap2\n      div\n      mul\n      0x20\n      add\n      mload(0x40)\n      swap1\n      dup2\n      add\n      0x40\n      mstore\n      dup1\n      swap3\n      swap2\n      swap1\n      dup2\n      dup2\n      mstore\n      0x20\n      add\n      dup3\n      dup1\n      sload\n      tag_298\n      swap1\n      tag_297\n      jump\t// in\n    tag_298:\n      dup1\n      iszero\n      tag_299\n      jumpi\n      dup1\n      0x1f\n      lt\n      tag_300\n      jumpi\n      0x0100\n      dup1\n      dup4\n      sload\n      div\n      mul\n      dup4\n      mstore\n      swap2\n      0x20\n      add\n      swap2\n      jump(tag_299)\n    tag_300:\n      dup3\n      add\n      swap2\n      swap1\n      0x00\n      mstore\n      keccak256(0x00, 0x20)\n      swap1\n    tag_301:\n      dup2\n      sload\n      dup2\n      mstore\n      swap1\n      0x01\n      add\n      swap1\n      0x20\n      add\n      dup1\n      dup4\n      gt\n      tag_301\n      jumpi\n      dup3\n      swap1\n      sub\n      0x1f\n      and\n      dup3\n      add\n      swap2\n    tag_299:\n      pop\n      pop\n      pop\n      pop\n      pop\n      dup2\n      mstore\n      0x20\n      add\n      0x03\n      dup3\n      add\n      sload\n      dup2\n      mstore\n      0x20\n      add\n      0x04\n      dup3\n      add\n      sload\n      dup2\n      mstore\n      0x20\n      add\n      0x05\n      dup3\n      add\n      sload\n      dup2\n      mstore\n      0x20\n      add\n      0x06\n      dup3\n      add\n      sload\n      dup2\n      mstore\n      0x20\n      add\n      0x07\n      dup3\n      add\n      sload\n      dup2\n      mstore\n      0x20\n      add\n      0x08\n      dup3\n      add\n      sload\n      dup2\n      mstore\n      0x20\n      add\n      0x09\n      dup3\n      add\n      sload\n      dup2\n      mstore\n      0x20\n      add\n      0x0a\n      dup3\n      add\n      sload\n      dup2\n      mstore\n      pop\n      pop\n      swap1\n      pop\n        /* \"contracts/mirrorseaMain.sol\":3740:3852  function orderInfo(uint256 _id) external view returns (OrderInfo memory) {... */\n    tag_295:\n      swap2\n      swap1\n      pop\n      jump\t// out\n        /* \"contracts/mirrorseaMain.sol\":3608:3734  function setSigner(address _address) external onlyOwner returns (bool) {... */\n    tag_104:\n        /* \"contracts/mirrorseaMain.sol\":3673:3677  bool */\n      0x00\n        /* \"@openzeppelin/contracts-upgradeable/access/OwnableUpgradeable.sol\":1525:1537  _msgSender() */\n      tag_303\n        /* \"@openzeppelin/contracts-upgradeable/access/OwnableUpgradeable.sol\":1525:1535  _msgSender */\n      tag_236\n        /* \"@openzeppelin/contracts-upgradeable/access/OwnableUpgradeable.sol\":1525:1537  _msgSender() */\n      jump\t// in\n    tag_303:\n      sub(shl(0xa0, 0x01), 0x01)\n        /* \"@openzeppelin/contracts-upgradeable/access/OwnableUpgradeable.sol\":1514:1537  owner() == _msgSender() */\n      and\n        /* \"@openzeppelin/contracts-upgradeable/access/OwnableUpgradeable.sol\":1514:1521  owner() */\n      tag_304\n        /* \"@openzeppelin/contracts-upgradeable/access/OwnableUpgradeable.sol\":1514:1519  owner */\n      tag_135\n        /* \"@openzeppelin/contracts-upgradeable/access/OwnableUpgradeable.sol\":1514:1521  owner() */\n      jump\t// in\n    tag_304:\n      sub(shl(0xa0, 0x01), 0x01)\n        /* \"@openzeppelin/contracts-upgradeable/access/OwnableUpgradeable.sol\":1514:1537  owner() == _msgSender() */\n      and\n      eq\n        /* \"@openzeppelin/contracts-upgradeable/access/OwnableUpgradeable.sol\":1506:1574  require(owner() == _msgSender(), \"Ownable: caller is not the owner\") */\n      tag_305\n      jumpi\n      mload(0x40)\n      shl(0xe5, 0x461bcd)\n      dup2\n      mstore\n      0x04\n      add\n      tag_214\n      swap1\n      tag_240\n      jump\t// in\n    tag_305:\n      pop\n        /* \"contracts/mirrorseaMain.sol\":3689:3695  signer */\n      0x66\n        /* \"contracts/mirrorseaMain.sol\":3689:3706  signer = _address */\n      dup1\n      sload\n      sub(shl(0xa0, 0x01), 0x01)\n      dup4\n      and\n      not(sub(shl(0xa0, 0x01), 0x01))\n      swap1\n      swap2\n      and\n      or\n      swap1\n      sstore\n      0x01\n        /* \"contracts/mirrorseaMain.sol\":3608:3734  function setSigner(address _address) external onlyOwner returns (bool) {... */\n      swap2\n      swap1\n      pop\n      jump\t// out\n        /* \"contracts/mirrorseaMain.sol\":11530:12122  function closePosition(... */\n    tag_109:\n        /* \"contracts/mirrorseaMain.sol\":11744:11748  bool */\n      0x00\n        /* \"contracts/mirrorseaMain.sol\":11786:11801  _orderInfo[_id] */\n      dup6\n      dup2\n      mstore\n        /* \"contracts/mirrorseaMain.sol\":11786:11796  _orderInfo */\n      0x6a\n        /* \"contracts/mirrorseaMain.sol\":11786:11801  _orderInfo[_id] */\n      0x20\n      mstore\n      0x40\n      dup2\n      keccak256\n        /* \"contracts/mirrorseaMain.sol\":11819:11829  order.user */\n      dup1\n      sload\n      sub(shl(0xa0, 0x01), 0x01)\n      and\n        /* \"contracts/mirrorseaMain.sol\":11833:11843  msg.sender */\n      caller\n        /* \"contracts/mirrorseaMain.sol\":11819:11843  order.user == msg.sender */\n      eq\n        /* \"contracts/mirrorseaMain.sol\":11811:11856  require(order.user == msg.sender, \"user err\") */\n      tag_309\n      jumpi\n      mload(0x40)\n      shl(0xe5, 0x461bcd)\n      dup2\n      mstore\n      0x04\n      add\n      tag_214\n      swap1\n      tag_311\n      jump\t// in\n    tag_309:\n        /* \"contracts/mirrorseaMain.sol\":11886:12115  _closePosition(... */\n      tag_312\n        /* \"contracts/mirrorseaMain.sol\":11918:11930  _marketState */\n      dup9\n        /* \"contracts/mirrorseaMain.sol\":11948:11953  order */\n      dup3\n        /* \"contracts/mirrorseaMain.sol\":11971:11972  2 */\n      0x02\n        /* \"contracts/mirrorseaMain.sol\":11990:11993  _id */\n      dup11\n        /* \"contracts/mirrorseaMain.sol\":12011:12021  _timestamp */\n      dup11\n        /* \"contracts/mirrorseaMain.sol\":12039:12047  _symbols */\n      dup11\n        /* \"contracts/mirrorseaMain.sol\":12065:12073  _price18 */\n      dup11\n        /* \"contracts/mirrorseaMain.sol\":12091:12101  _signature */\n      dup11\n        /* \"contracts/mirrorseaMain.sol\":11886:11900  _closePosition */\n      tag_288\n        /* \"contracts/mirrorseaMain.sol\":11886:12115  _closePosition(... */\n      jump\t// in\n    tag_312:\n        /* \"contracts/mirrorseaMain.sol\":11867:12115  return... */\n      swap9\n        /* \"contracts/mirrorseaMain.sol\":11530:12122  function closePosition(... */\n      swap8\n      pop\n      pop\n      pop\n      pop\n      pop\n      pop\n      pop\n      pop\n      jump\t// out\n        /* \"contracts/mirrorseaMain.sol\":15336:16878  function _isSolvent_(... */\n    tag_113:\n        /* \"contracts/mirrorseaMain.sol\":15493:15497  bool */\n      0x00\n        /* \"contracts/mirrorseaMain.sol\":15611:15626  _orderInfo[_id] */\n      dup4\n      dup2\n      mstore\n        /* \"contracts/mirrorseaMain.sol\":15611:15621  _orderInfo */\n      0x6a\n        /* \"contracts/mirrorseaMain.sol\":15611:15626  _orderInfo[_id] */\n      0x20\n      mstore\n      0x40\n      dup2\n      keccak256\n        /* \"contracts/mirrorseaMain.sol\":15728:15737  order.amt */\n      0x09\n      dup2\n      add\n      sload\n        /* \"contracts/mirrorseaMain.sol\":15787:15802  order.direction */\n      0x04\n      dup3\n      add\n      sload\n        /* \"contracts/mirrorseaMain.sol\":15493:15497  bool */\n      dup4\n      swap3\n      dup4\n      swap3\n      dup4\n      swap3\n      dup4\n      swap2\n      dup3\n      swap2\n      dup3\n      swap2\n        /* \"contracts/mirrorseaMain.sol\":15728:15737  order.amt */\n      swap1\n        /* \"contracts/mirrorseaMain.sol\":15765:15773  _price18 */\n      dup12\n      swap1\n        /* \"contracts/mirrorseaMain.sol\":15806:15807  1 */\n      0x01\n        /* \"contracts/mirrorseaMain.sol\":15787:15807  order.direction == 1 */\n      eq\n        /* \"contracts/mirrorseaMain.sol\":15783:16840  if (order.direction == 1) {... */\n      iszero\n      tag_314\n      jumpi\n        /* \"contracts/mirrorseaMain.sol\":15837:15842  order */\n      dup6\n        /* \"contracts/mirrorseaMain.sol\":15837:15854  order.openPrice18 */\n      0x05\n      add\n      sload\n        /* \"contracts/mirrorseaMain.sol\":15827:15834  price18 */\n      dup2\n        /* \"contracts/mirrorseaMain.sol\":15827:15854  price18 < order.openPrice18 */\n      lt\n        /* \"contracts/mirrorseaMain.sol\":15823:16380  if (price18 < order.openPrice18) {... */\n      iszero\n      tag_324\n      jumpi\n        /* \"contracts/mirrorseaMain.sol\":15888:15905  order.openPrice18 */\n      0x05\n      dup7\n      add\n      sload\n        /* \"contracts/mirrorseaMain.sol\":15888:15918  order.openPrice18.sub(price18) */\n      tag_316\n      swap1\n        /* \"contracts/mirrorseaMain.sol\":15910:15917  price18 */\n      dup3\n        /* \"contracts/mirrorseaMain.sol\":15888:15909  order.openPrice18.sub */\n      tag_208\n        /* \"contracts/mirrorseaMain.sol\":15888:15918  order.openPrice18.sub(price18) */\n      jump\t// in\n    tag_316:\n        /* \"contracts/mirrorseaMain.sol\":15874:15918  diffPrice18 = order.openPrice18.sub(price18) */\n      swap5\n      pop\n        /* \"contracts/mirrorseaMain.sol\":15999:16029  diffPrice18.mul(amt).div(1e18) */\n      tag_317\n        /* \"contracts/mirrorseaMain.sol\":16024:16028  1e18 */\n      0x0de0b6b3a7640000\n        /* \"contracts/mirrorseaMain.sol\":15999:16019  diffPrice18.mul(amt) */\n      tag_247\n        /* \"contracts/mirrorseaMain.sol\":15874:15918  diffPrice18 = order.openPrice18.sub(price18) */\n      dup8\n        /* \"contracts/mirrorseaMain.sol\":16015:16018  amt */\n      dup6\n        /* \"contracts/mirrorseaMain.sol\":15999:16014  diffPrice18.mul */\n      tag_207\n        /* \"contracts/mirrorseaMain.sol\":15999:16019  diffPrice18.mul(amt) */\n      jump\t// in\n        /* \"contracts/mirrorseaMain.sol\":15999:16029  diffPrice18.mul(amt).div(1e18) */\n    tag_317:\n        /* \"contracts/mirrorseaMain.sol\":15986:16029  diffMargin = diffPrice18.mul(amt).div(1e18) */\n      swap4\n      pop\n        /* \"contracts/mirrorseaMain.sol\":16053:16148  amt.mul(price18).mul(feePercent).div(PRECISION).div(... */\n      tag_319\n        /* \"contracts/mirrorseaMain.sol\":16126:16130  1e18 */\n      0x0de0b6b3a7640000\n        /* \"contracts/mirrorseaMain.sol\":16053:16100  amt.mul(price18).mul(feePercent).div(PRECISION) */\n      tag_247\n        /* \"contracts/mirrorseaMain.sol\":16090:16099  PRECISION */\n      sload(0x73)\n        /* \"contracts/mirrorseaMain.sol\":16053:16085  amt.mul(price18).mul(feePercent) */\n      tag_247\n        /* \"contracts/mirrorseaMain.sol\":16074:16084  feePercent */\n      sload(0x72)\n        /* \"contracts/mirrorseaMain.sol\":16053:16069  amt.mul(price18) */\n      tag_252\n        /* \"contracts/mirrorseaMain.sol\":16061:16068  price18 */\n      dup8\n        /* \"contracts/mirrorseaMain.sol\":16053:16056  amt */\n      dup10\n        /* \"contracts/mirrorseaMain.sol\":16053:16060  amt.mul */\n      tag_207\n      swap1\n        /* \"contracts/mirrorseaMain.sol\":16053:16069  amt.mul(price18) */\n      swap2\n      swap1\n      0xffffffff\n      and\n      jump\t// in\n        /* \"contracts/mirrorseaMain.sol\":16053:16148  amt.mul(price18).mul(feePercent).div(PRECISION).div(... */\n    tag_319:\n        /* \"contracts/mirrorseaMain.sol\":16047:16148  fee = amt.mul(price18).mul(feePercent).div(PRECISION).div(... */\n      swap3\n      pop\n        /* \"contracts/mirrorseaMain.sol\":16180:16196  diffMargin + fee */\n      tag_323\n        /* \"contracts/mirrorseaMain.sol\":16047:16148  fee = amt.mul(price18).mul(feePercent).div(PRECISION).div(... */\n      dup4\n        /* \"contracts/mirrorseaMain.sol\":16180:16190  diffMargin */\n      dup6\n        /* \"contracts/mirrorseaMain.sol\":16180:16196  diffMargin + fee */\n      tag_254\n      jump\t// in\n    tag_323:\n        /* \"contracts/mirrorseaMain.sol\":16170:16177  _margin */\n      dup12\n        /* \"contracts/mirrorseaMain.sol\":16170:16196  _margin < diffMargin + fee */\n      lt\n        /* \"contracts/mirrorseaMain.sol\":16166:16366  if (_margin < diffMargin + fee) {... */\n      iszero\n      tag_324\n      jumpi\n      pop\n        /* \"contracts/mirrorseaMain.sol\":16315:16320  false */\n      0x00\n      swap9\n      pop\n        /* \"contracts/mirrorseaMain.sol\":16322:16329  _margin */\n      dup10\n      swap8\n      pop\n        /* \"contracts/mirrorseaMain.sol\":16331:16341  diffMargin */\n      swap2\n      swap6\n      pop\n        /* \"contracts/mirrorseaMain.sol\":16343:16346  fee */\n      swap4\n      pop\n        /* \"contracts/mirrorseaMain.sol\":16307:16347  return (false, _margin, diffMargin, fee) */\n      tag_313\n      swap3\n      pop\n      pop\n      pop\n      jump\n        /* \"contracts/mirrorseaMain.sol\":16166:16366  if (_margin < diffMargin + fee) {... */\n    tag_324:\n        /* \"contracts/mirrorseaMain.sol\":15783:16840  if (order.direction == 1) {... */\n      jump(tag_335)\n    tag_314:\n        /* \"contracts/mirrorseaMain.sol\":16424:16429  order */\n      dup6\n        /* \"contracts/mirrorseaMain.sol\":16424:16441  order.openPrice18 */\n      0x05\n      add\n      sload\n        /* \"contracts/mirrorseaMain.sol\":16414:16421  price18 */\n      dup2\n        /* \"contracts/mirrorseaMain.sol\":16414:16441  price18 > order.openPrice18 */\n      gt\n        /* \"contracts/mirrorseaMain.sol\":16410:16830  if (price18 > order.openPrice18) {... */\n      iszero\n      tag_335\n      jumpi\n        /* \"contracts/mirrorseaMain.sol\":16487:16504  order.openPrice18 */\n      0x05\n      dup7\n      add\n      sload\n        /* \"contracts/mirrorseaMain.sol\":16475:16505  price18.sub(order.openPrice18) */\n      tag_327\n      swap1\n        /* \"contracts/mirrorseaMain.sol\":16475:16482  price18 */\n      dup3\n      swap1\n        /* \"contracts/mirrorseaMain.sol\":16475:16486  price18.sub */\n      tag_208\n        /* \"contracts/mirrorseaMain.sol\":16475:16505  price18.sub(order.openPrice18) */\n      jump\t// in\n    tag_327:\n        /* \"contracts/mirrorseaMain.sol\":16461:16505  diffPrice18 = price18.sub(order.openPrice18) */\n      swap5\n      pop\n        /* \"contracts/mirrorseaMain.sol\":16536:16566  diffPrice18.mul(amt).div(1e18) */\n      tag_328\n        /* \"contracts/mirrorseaMain.sol\":16561:16565  1e18 */\n      0x0de0b6b3a7640000\n        /* \"contracts/mirrorseaMain.sol\":16536:16556  diffPrice18.mul(amt) */\n      tag_247\n        /* \"contracts/mirrorseaMain.sol\":16461:16505  diffPrice18 = price18.sub(order.openPrice18) */\n      dup8\n        /* \"contracts/mirrorseaMain.sol\":16552:16555  amt */\n      dup6\n        /* \"contracts/mirrorseaMain.sol\":16536:16551  diffPrice18.mul */\n      tag_207\n        /* \"contracts/mirrorseaMain.sol\":16536:16556  diffPrice18.mul(amt) */\n      jump\t// in\n        /* \"contracts/mirrorseaMain.sol\":16536:16566  diffPrice18.mul(amt).div(1e18) */\n    tag_328:\n        /* \"contracts/mirrorseaMain.sol\":16523:16566  diffMargin = diffPrice18.mul(amt).div(1e18) */\n      swap4\n      pop\n        /* \"contracts/mirrorseaMain.sol\":16590:16685  amt.mul(price18).mul(feePercent).div(PRECISION).div(... */\n      tag_330\n        /* \"contracts/mirrorseaMain.sol\":16663:16667  1e18 */\n      0x0de0b6b3a7640000\n        /* \"contracts/mirrorseaMain.sol\":16590:16637  amt.mul(price18).mul(feePercent).div(PRECISION) */\n      tag_247\n        /* \"contracts/mirrorseaMain.sol\":16627:16636  PRECISION */\n      sload(0x73)\n        /* \"contracts/mirrorseaMain.sol\":16590:16622  amt.mul(price18).mul(feePercent) */\n      tag_247\n        /* \"contracts/mirrorseaMain.sol\":16611:16621  feePercent */\n      sload(0x72)\n        /* \"contracts/mirrorseaMain.sol\":16590:16606  amt.mul(price18) */\n      tag_252\n        /* \"contracts/mirrorseaMain.sol\":16598:16605  price18 */\n      dup8\n        /* \"contracts/mirrorseaMain.sol\":16590:16593  amt */\n      dup10\n        /* \"contracts/mirrorseaMain.sol\":16590:16597  amt.mul */\n      tag_207\n      swap1\n        /* \"contracts/mirrorseaMain.sol\":16590:16606  amt.mul(price18) */\n      swap2\n      swap1\n      0xffffffff\n      and\n      jump\t// in\n        /* \"contracts/mirrorseaMain.sol\":16590:16685  amt.mul(price18).mul(feePercent).div(PRECISION).div(... */\n    tag_330:\n        /* \"contracts/mirrorseaMain.sol\":16584:16685  fee = amt.mul(price18).mul(feePercent).div(PRECISION).div(... */\n      swap3\n      pop\n        /* \"contracts/mirrorseaMain.sol\":16717:16733  diffMargin + fee */\n      tag_334\n        /* \"contracts/mirrorseaMain.sol\":16584:16685  fee = amt.mul(price18).mul(feePercent).div(PRECISION).div(... */\n      dup4\n        /* \"contracts/mirrorseaMain.sol\":16717:16727  diffMargin */\n      dup6\n        /* \"contracts/mirrorseaMain.sol\":16717:16733  diffMargin + fee */\n      tag_254\n      jump\t// in\n    tag_334:\n        /* \"contracts/mirrorseaMain.sol\":16707:16714  _margin */\n      dup12\n        /* \"contracts/mirrorseaMain.sol\":16707:16733  _margin < diffMargin + fee */\n      lt\n        /* \"contracts/mirrorseaMain.sol\":16703:16816  if (_margin < diffMargin + fee) {... */\n      iszero\n      tag_335\n      jumpi\n      pop\n        /* \"contracts/mirrorseaMain.sol\":16765:16770  false */\n      0x00\n      swap9\n      pop\n        /* \"contracts/mirrorseaMain.sol\":16772:16779  _margin */\n      dup10\n      swap8\n      pop\n        /* \"contracts/mirrorseaMain.sol\":16781:16791  diffMargin */\n      swap2\n      swap6\n      pop\n        /* \"contracts/mirrorseaMain.sol\":16793:16796  fee */\n      swap4\n      pop\n        /* \"contracts/mirrorseaMain.sol\":16757:16797  return (false, _margin, diffMargin, fee) */\n      tag_313\n      swap3\n      pop\n      pop\n      pop\n      jump\n        /* \"contracts/mirrorseaMain.sol\":16703:16816  if (_margin < diffMargin + fee) {... */\n    tag_335:\n        /* \"contracts/mirrorseaMain.sol\":16857:16861  true */\n      0x01\n        /* \"contracts/mirrorseaMain.sol\":16863:16864  0 */\n      0x00\n        /* \"contracts/mirrorseaMain.sol\":16866:16867  0 */\n      dup1\n        /* \"contracts/mirrorseaMain.sol\":16869:16870  0 */\n      0x00\n        /* \"contracts/mirrorseaMain.sol\":16849:16871  return (true, 0, 0, 0) */\n      swap10\n      pop\n      swap10\n      pop\n      swap10\n      pop\n      swap10\n      pop\n      pop\n      pop\n      pop\n      pop\n      pop\n      pop\n        /* \"contracts/mirrorseaMain.sol\":15336:16878  function _isSolvent_(... */\n    tag_313:\n      swap4\n      pop\n      swap4\n      pop\n      swap4\n      pop\n      swap4\n      jump\t// out\n        /* \"@openzeppelin/contracts-upgradeable/access/OwnableUpgradeable.sol\":1934:2035  function renounceOwnership() public virtual onlyOwner {... */\n    tag_117:\n        /* \"@openzeppelin/contracts-upgradeable/access/OwnableUpgradeable.sol\":1525:1537  _msgSender() */\n      tag_337\n        /* \"@openzeppelin/contracts-upgradeable/access/OwnableUpgradeable.sol\":1525:1535  _msgSender */\n      tag_236\n        /* \"@openzeppelin/contracts-upgradeable/access/OwnableUpgradeable.sol\":1525:1537  _msgSender() */\n      jump\t// in\n    tag_337:\n      sub(shl(0xa0, 0x01), 0x01)\n        /* \"@openzeppelin/contracts-upgradeable/access/OwnableUpgradeable.sol\":1514:1537  owner() == _msgSender() */\n      and\n        /* \"@openzeppelin/contracts-upgradeable/access/OwnableUpgradeable.sol\":1514:1521  owner() */\n      tag_338\n        /* \"@openzeppelin/contracts-upgradeable/access/OwnableUpgradeable.sol\":1514:1519  owner */\n      tag_135\n        /* \"@openzeppelin/contracts-upgradeable/access/OwnableUpgradeable.sol\":1514:1521  owner() */\n      jump\t// in\n    tag_338:\n      sub(shl(0xa0, 0x01), 0x01)\n        /* \"@openzeppelin/contracts-upgradeable/access/OwnableUpgradeable.sol\":1514:1537  owner() == _msgSender() */\n      and\n      eq\n        /* \"@openzeppelin/contracts-upgradeable/access/OwnableUpgradeable.sol\":1506:1574  require(owner() == _msgSender(), \"Ownable: caller is not the owner\") */\n      tag_339\n      jumpi\n      mload(0x40)\n      shl(0xe5, 0x461bcd)\n      dup2\n      mstore\n      0x04\n      add\n      tag_214\n      swap1\n      tag_240\n      jump\t// in\n    tag_339:\n        /* \"@openzeppelin/contracts-upgradeable/access/OwnableUpgradeable.sol\":1998:2028  _transferOwnership(address(0)) */\n      tag_342\n        /* \"@openzeppelin/contracts-upgradeable/access/OwnableUpgradeable.sol\":2025:2026  0 */\n      0x00\n        /* \"@openzeppelin/contracts-upgradeable/access/OwnableUpgradeable.sol\":1998:2016  _transferOwnership */\n      tag_343\n        /* \"@openzeppelin/contracts-upgradeable/access/OwnableUpgradeable.sol\":1998:2028  _transferOwnership(address(0)) */\n      jump\t// in\n    tag_342:\n        /* \"@openzeppelin/contracts-upgradeable/access/OwnableUpgradeable.sol\":1934:2035  function renounceOwnership() public virtual onlyOwner {... */\n      jump\t// out\n        /* \"contracts/mirrorseaMain.sol\":1508:1594  mapping(address => mapping(uint256 => uint256))... */\n    tag_121:\n      0x6f\n      0x20\n      swap1\n      dup2\n      mstore\n      0x00\n      swap3\n      dup4\n      mstore\n      0x40\n      dup1\n      dup5\n      keccak256\n      swap1\n      swap2\n      mstore\n      swap1\n      dup3\n      mstore\n      swap1\n      keccak256\n      sload\n      dup2\n      jump\t// out\n        /* \"contracts/mirrorseaMain.sol\":3463:3589  function setFeePercent(uint256 _val) external onlyOwner returns (bool) {... */\n    tag_125:\n        /* \"contracts/mirrorseaMain.sol\":3528:3532  bool */\n      0x00\n        /* \"@openzeppelin/contracts-upgradeable/access/OwnableUpgradeable.sol\":1525:1537  _msgSender() */\n      tag_345\n        /* \"@openzeppelin/contracts-upgradeable/access/OwnableUpgradeable.sol\":1525:1535  _msgSender */\n      tag_236\n        /* \"@openzeppelin/contracts-upgradeable/access/OwnableUpgradeable.sol\":1525:1537  _msgSender() */\n      jump\t// in\n    tag_345:\n      sub(shl(0xa0, 0x01), 0x01)\n        /* \"@openzeppelin/contracts-upgradeable/access/OwnableUpgradeable.sol\":1514:1537  owner() == _msgSender() */\n      and\n        /* \"@openzeppelin/contracts-upgradeable/access/OwnableUpgradeable.sol\":1514:1521  owner() */\n      tag_346\n        /* \"@openzeppelin/contracts-upgradeable/access/OwnableUpgradeable.sol\":1514:1519  owner */\n      tag_135\n        /* \"@openzeppelin/contracts-upgradeable/access/OwnableUpgradeable.sol\":1514:1521  owner() */\n      jump\t// in\n    tag_346:\n      sub(shl(0xa0, 0x01), 0x01)\n        /* \"@openzeppelin/contracts-upgradeable/access/OwnableUpgradeable.sol\":1514:1537  owner() == _msgSender() */\n      and\n      eq\n        /* \"@openzeppelin/contracts-upgradeable/access/OwnableUpgradeable.sol\":1506:1574  require(owner() == _msgSender(), \"Ownable: caller is not the owner\") */\n      tag_347\n      jumpi\n      mload(0x40)\n      shl(0xe5, 0x461bcd)\n      dup2\n      mstore\n      0x04\n      add\n      tag_214\n      swap1\n      tag_240\n      jump\t// in\n    tag_347:\n      pop\n        /* \"contracts/mirrorseaMain.sol\":3544:3554  feePercent */\n      0x72\n        /* \"contracts/mirrorseaMain.sol\":3544:3561  feePercent = _val */\n      sstore\n        /* \"contracts/mirrorseaMain.sol\":3578:3582  true */\n      0x01\n      swap1\n        /* \"contracts/mirrorseaMain.sol\":3463:3589  function setFeePercent(uint256 _val) external onlyOwner returns (bool) {... */\n      jump\t// out\n        /* \"contracts/mirrorseaMain.sol\":1233:1254  IOracle public oracle */\n    tag_128:\n      and(sub(shl(0xa0, 0x01), 0x01), sload(0x69))\n      dup2\n      jump\t// out\n        /* \"contracts/mirrorseaMain.sol\":1756:1781  uint256 public feePercent */\n    tag_132:\n      sload(0x72)\n      dup2\n      jump\t// out\n        /* \"@openzeppelin/contracts-upgradeable/access/OwnableUpgradeable.sol\":1302:1387  function owner() public view virtual returns (address) {... */\n    tag_135:\n        /* \"@openzeppelin/contracts-upgradeable/access/OwnableUpgradeable.sol\":1374:1380  _owner */\n      and(sub(shl(0xa0, 0x01), 0x01), sload(0x33))\n        /* \"@openzeppelin/contracts-upgradeable/access/OwnableUpgradeable.sol\":1302:1387  function owner() public view virtual returns (address) {... */\n      swap1\n      jump\t// out\n        /* \"contracts/mirrorseaMain.sol\":13409:13962  function forcedLiquidation(... */\n    tag_139:\n        /* \"contracts/mirrorseaMain.sol\":3370:3380  msg.sender */\n      caller\n        /* \"contracts/mirrorseaMain.sol\":13640:13644  bool */\n      0x00\n        /* \"contracts/mirrorseaMain.sol\":3361:3381  executor[msg.sender] */\n      swap1\n      dup2\n      mstore\n        /* \"contracts/mirrorseaMain.sol\":3361:3369  executor */\n      0x65\n        /* \"contracts/mirrorseaMain.sol\":3361:3381  executor[msg.sender] */\n      0x20\n      mstore\n      0x40\n      dup2\n      keccak256\n      sload\n      0xff\n      and\n        /* \"contracts/mirrorseaMain.sol\":3353:3422  require(executor[msg.sender], \"executor: caller is not the executor\") */\n      tag_352\n      jumpi\n      mload(0x40)\n      shl(0xe5, 0x461bcd)\n      dup2\n      mstore\n      0x04\n      add\n      tag_214\n      swap1\n      tag_271\n      jump\t// in\n    tag_352:\n        /* \"contracts/mirrorseaMain.sol\":13656:13679  OrderInfo storage order */\n      0x00\n        /* \"contracts/mirrorseaMain.sol\":13682:13697  _orderInfo[_id] */\n      dup7\n      dup2\n      mstore\n        /* \"contracts/mirrorseaMain.sol\":13682:13692  _orderInfo */\n      0x6a\n        /* \"contracts/mirrorseaMain.sol\":13682:13697  _orderInfo[_id] */\n      0x20\n      mstore\n      0x40\n      swap1\n      keccak256\n        /* \"contracts/mirrorseaMain.sol\":13726:13955  _closePosition(... */\n      tag_312\n        /* \"contracts/mirrorseaMain.sol\":13758:13770  _marketState */\n      dup9\n        /* \"contracts/mirrorseaMain.sol\":13682:13697  _orderInfo[_id] */\n      dup3\n        /* \"contracts/mirrorseaMain.sol\":13811:13812  4 */\n      0x04\n        /* \"contracts/mirrorseaMain.sol\":13693:13696  _id */\n      dup11\n        /* \"contracts/mirrorseaMain.sol\":13851:13861  _timestamp */\n      dup11\n        /* \"contracts/mirrorseaMain.sol\":13879:13887  _symbols */\n      dup11\n        /* \"contracts/mirrorseaMain.sol\":13905:13913  _price18 */\n      dup11\n        /* \"contracts/mirrorseaMain.sol\":13931:13941  _signature */\n      dup11\n        /* \"contracts/mirrorseaMain.sol\":13726:13740  _closePosition */\n      tag_288\n        /* \"contracts/mirrorseaMain.sol\":13726:13955  _closePosition(... */\n      jump\t// in\n        /* \"contracts/mirrorseaMain.sol\":16884:18622  function adjustPosition(... */\n    tag_144:\n        /* \"contracts/mirrorseaMain.sol\":17130:17134  bool */\n      0x00\n        /* \"contracts/mirrorseaMain.sol\":17172:17187  _orderInfo[_id] */\n      dup7\n      dup2\n      mstore\n        /* \"contracts/mirrorseaMain.sol\":17172:17182  _orderInfo */\n      0x6a\n        /* \"contracts/mirrorseaMain.sol\":17172:17187  _orderInfo[_id] */\n      0x20\n      mstore\n      0x40\n      dup2\n      keccak256\n        /* \"contracts/mirrorseaMain.sol\":17205:17215  order.user */\n      dup1\n      sload\n      sub(shl(0xa0, 0x01), 0x01)\n      and\n        /* \"contracts/mirrorseaMain.sol\":17197:17254  require(order.user != address(0), \"order does not exist\") */\n      tag_357\n      jumpi\n      mload(0x40)\n      shl(0xe5, 0x461bcd)\n      dup2\n      mstore\n      0x04\n      add\n      tag_214\n      swap1\n      tag_359\n      jump\t// in\n    tag_357:\n        /* \"contracts/mirrorseaMain.sol\":17286:17287  2 */\n      0x02\n        /* \"contracts/mirrorseaMain.sol\":17272:17277  order */\n      dup2\n        /* \"contracts/mirrorseaMain.sol\":17272:17283  order.state */\n      0x03\n      add\n      sload\n        /* \"contracts/mirrorseaMain.sol\":17272:17287  order.state < 2 */\n      lt\n        /* \"contracts/mirrorseaMain.sol\":17264:17301  require(order.state < 2, \"state err\") */\n      tag_360\n      jumpi\n      mload(0x40)\n      shl(0xe5, 0x461bcd)\n      dup2\n      mstore\n      0x04\n      add\n      tag_214\n      swap1\n      tag_362\n      jump\t// in\n    tag_360:\n        /* \"contracts/mirrorseaMain.sol\":17332:17338  oracle */\n      sload(0x69)\n        /* \"contracts/mirrorseaMain.sol\":17332:17497  oracle.getkey(... */\n      mload(0x40)\n      shl(0xe1, 0x11cdc9d9)\n      dup2\n      mstore\n      sub(shl(0xa0, 0x01), 0x01)\n        /* \"contracts/mirrorseaMain.sol\":17332:17338  oracle */\n      swap1\n      swap2\n      and\n      swap1\n        /* \"contracts/mirrorseaMain.sol\":17332:17345  oracle.getkey */\n      0x239b93b2\n      swap1\n        /* \"contracts/mirrorseaMain.sol\":17332:17497  oracle.getkey(... */\n      tag_363\n      swap1\n        /* \"contracts/mirrorseaMain.sol\":17363:17375  _marketState */\n      dup13\n      swap1\n        /* \"contracts/mirrorseaMain.sol\":17393:17401  _price18 */\n      dup10\n      swap1\n        /* \"contracts/mirrorseaMain.sol\":17419:17429  _timestamp */\n      dup13\n      swap1\n        /* \"contracts/mirrorseaMain.sol\":17447:17455  _symbols */\n      dup13\n      swap1\n        /* \"contracts/mirrorseaMain.sol\":17473:17483  _signature */\n      dup12\n      swap1\n        /* \"contracts/mirrorseaMain.sol\":17332:17497  oracle.getkey(... */\n      0x04\n      add\n      tag_364\n      jump\t// in\n    tag_363:\n      0x20\n      mload(0x40)\n      dup1\n      dup4\n      sub\n      dup2\n      dup7\n      dup1\n      extcodesize\n      iszero\n      dup1\n      iszero\n      tag_365\n      jumpi\n      0x00\n      dup1\n      revert\n    tag_365:\n      pop\n      gas\n      staticcall\n      iszero\n      dup1\n      iszero\n      tag_367\n      jumpi\n      returndatasize\n      0x00\n      dup1\n      returndatacopy\n      revert(0x00, returndatasize)\n    tag_367:\n      pop\n      pop\n      pop\n      pop\n      mload(0x40)\n      returndatasize\n      not(0x1f)\n      0x1f\n      dup3\n      add\n      and\n      dup3\n      add\n      dup1\n      0x40\n      mstore\n      pop\n      dup2\n      add\n      swap1\n      tag_368\n      swap2\n      swap1\n      tag_369\n      jump\t// in\n    tag_368:\n        /* \"contracts/mirrorseaMain.sol\":17311:17533  require(... */\n      tag_370\n      jumpi\n      mload(0x40)\n      shl(0xe5, 0x461bcd)\n      dup2\n      mstore\n      0x04\n      add\n      tag_214\n      swap1\n      tag_372\n      jump\t// in\n    tag_370:\n        /* \"contracts/mirrorseaMain.sol\":17551:17591  _isSolvent(_id, _price18, _adjustMargin) */\n      tag_373\n        /* \"contracts/mirrorseaMain.sol\":17562:17565  _id */\n      dup9\n        /* \"contracts/mirrorseaMain.sol\":17567:17575  _price18 */\n      dup7\n        /* \"contracts/mirrorseaMain.sol\":17577:17590  _adjustMargin */\n      dup6\n        /* \"contracts/mirrorseaMain.sol\":17551:17561  _isSolvent */\n      tag_74\n        /* \"contracts/mirrorseaMain.sol\":17551:17591  _isSolvent(_id, _price18, _adjustMargin) */\n      jump\t// in\n    tag_373:\n        /* \"contracts/mirrorseaMain.sol\":17543:17612  require(_isSolvent(_id, _price18, _adjustMargin), \"User is bankrupt\") */\n      tag_374\n      jumpi\n      mload(0x40)\n      shl(0xe5, 0x461bcd)\n      dup2\n      mstore\n      0x04\n      add\n      tag_214\n      swap1\n      tag_376\n      jump\t// in\n    tag_374:\n        /* \"contracts/mirrorseaMain.sol\":17623:17634  uint256 fee */\n      0x00\n        /* \"contracts/mirrorseaMain.sol\":17637:17766  order... */\n      tag_377\n        /* \"contracts/mirrorseaMain.sol\":17761:17765  1e18 */\n      0x0de0b6b3a7640000\n        /* \"contracts/mirrorseaMain.sol\":17637:17743  order... */\n      tag_247\n        /* \"contracts/mirrorseaMain.sol\":17733:17742  PRECISION */\n      sload(0x73)\n        /* \"contracts/mirrorseaMain.sol\":17637:17715  order... */\n      tag_247\n        /* \"contracts/mirrorseaMain.sol\":17704:17714  feePercent */\n      sload(0x72)\n        /* \"contracts/mirrorseaMain.sol\":17637:17686  order... */\n      tag_252\n        /* \"contracts/mirrorseaMain.sol\":17677:17685  _price18 */\n      dup13\n        /* \"contracts/mirrorseaMain.sol\":17637:17642  order */\n      dup10\n        /* \"contracts/mirrorseaMain.sol\":17637:17659  order... */\n      0x09\n      add\n      sload\n        /* \"contracts/mirrorseaMain.sol\":17637:17676  order... */\n      tag_207\n      swap1\n        /* \"contracts/mirrorseaMain.sol\":17637:17686  order... */\n      swap2\n      swap1\n      0xffffffff\n      and\n      jump\t// in\n        /* \"contracts/mirrorseaMain.sol\":17637:17766  order... */\n    tag_377:\n        /* \"contracts/mirrorseaMain.sol\":17623:17766  uint256 fee = order... */\n      swap1\n      pop\n        /* \"contracts/mirrorseaMain.sol\":17776:17788  uint256 earn */\n      0x00\n        /* \"contracts/mirrorseaMain.sol\":17791:17896  (_price18.mul(order.amt).div(1e18)).sub(... */\n      tag_381\n        /* \"contracts/mirrorseaMain.sol\":17844:17886  order.openPrice18.mul(order.amt).div(1e18) */\n      tag_382\n        /* \"contracts/mirrorseaMain.sol\":17881:17885  1e18 */\n      0x0de0b6b3a7640000\n        /* \"contracts/mirrorseaMain.sol\":17844:17876  order.openPrice18.mul(order.amt) */\n      tag_247\n        /* \"contracts/mirrorseaMain.sol\":17866:17871  order */\n      dup7\n        /* \"contracts/mirrorseaMain.sol\":17866:17875  order.amt */\n      0x09\n      add\n      sload\n        /* \"contracts/mirrorseaMain.sol\":17844:17849  order */\n      dup8\n        /* \"contracts/mirrorseaMain.sol\":17844:17861  order.openPrice18 */\n      0x05\n      add\n      sload\n        /* \"contracts/mirrorseaMain.sol\":17844:17865  order.openPrice18.mul */\n      tag_207\n      swap1\n        /* \"contracts/mirrorseaMain.sol\":17844:17876  order.openPrice18.mul(order.amt) */\n      swap2\n      swap1\n      0xffffffff\n      and\n      jump\t// in\n        /* \"contracts/mirrorseaMain.sol\":17844:17886  order.openPrice18.mul(order.amt).div(1e18) */\n    tag_382:\n        /* \"contracts/mirrorseaMain.sol\":17792:17825  _price18.mul(order.amt).div(1e18) */\n      tag_206\n        /* \"contracts/mirrorseaMain.sol\":17820:17824  1e18 */\n      0x0de0b6b3a7640000\n        /* \"contracts/mirrorseaMain.sol\":17792:17815  _price18.mul(order.amt) */\n      tag_247\n        /* \"contracts/mirrorseaMain.sol\":17805:17810  order */\n      dup8\n        /* \"contracts/mirrorseaMain.sol\":17805:17814  order.amt */\n      0x09\n      add\n      sload\n        /* \"contracts/mirrorseaMain.sol\":17792:17800  _price18 */\n      dup13\n        /* \"contracts/mirrorseaMain.sol\":17792:17804  _price18.mul */\n      tag_207\n      swap1\n        /* \"contracts/mirrorseaMain.sol\":17792:17815  _price18.mul(order.amt) */\n      swap2\n      swap1\n      0xffffffff\n      and\n      jump\t// in\n        /* \"contracts/mirrorseaMain.sol\":17791:17896  (_price18.mul(order.amt).div(1e18)).sub(... */\n    tag_381:\n        /* \"contracts/mirrorseaMain.sol\":17776:17896  uint256 earn = (_price18.mul(order.amt).div(1e18)).sub(... */\n      swap1\n      pop\n        /* \"contracts/mirrorseaMain.sol\":17906:17923  uint256 nowMargin */\n      0x00\n        /* \"contracts/mirrorseaMain.sol\":17926:17948  order.margin.add(earn) */\n      tag_386\n        /* \"contracts/mirrorseaMain.sol\":17943:17947  earn */\n      dup3\n        /* \"contracts/mirrorseaMain.sol\":17926:17931  order */\n      dup6\n        /* \"contracts/mirrorseaMain.sol\":17926:17938  order.margin */\n      0x0a\n      add\n      sload\n        /* \"contracts/mirrorseaMain.sol\":17926:17942  order.margin.add */\n      tag_387\n      swap1\n        /* \"contracts/mirrorseaMain.sol\":17926:17948  order.margin.add(earn) */\n      swap2\n      swap1\n      0xffffffff\n      and\n      jump\t// in\n    tag_386:\n        /* \"contracts/mirrorseaMain.sol\":17906:17948  uint256 nowMargin = order.margin.add(earn) */\n      swap1\n      pop\n        /* \"contracts/mirrorseaMain.sol\":17958:17976  uint256 diffMargin */\n      0x00\n        /* \"contracts/mirrorseaMain.sol\":17906:17948  uint256 nowMargin = order.margin.add(earn) */\n      dup2\n        /* \"contracts/mirrorseaMain.sol\":17990:18012  _adjustMargin.sub(fee) */\n      tag_388\n        /* \"contracts/mirrorseaMain.sol\":17990:18003  _adjustMargin */\n      dup9\n        /* \"contracts/mirrorseaMain.sol\":18008:18011  fee */\n      dup7\n        /* \"contracts/mirrorseaMain.sol\":17990:18007  _adjustMargin.sub */\n      tag_208\n        /* \"contracts/mirrorseaMain.sol\":17990:18012  _adjustMargin.sub(fee) */\n      jump\t// in\n    tag_388:\n        /* \"contracts/mirrorseaMain.sol\":17990:18024  _adjustMargin.sub(fee) > nowMargin */\n      gt\n        /* \"contracts/mirrorseaMain.sol\":17986:18365  if (_adjustMargin.sub(fee) > nowMargin) {... */\n      iszero\n      tag_389\n      jumpi\n        /* \"contracts/mirrorseaMain.sol\":18053:18090  _adjustMargin.sub(fee).sub(nowMargin) */\n      tag_390\n        /* \"contracts/mirrorseaMain.sol\":18080:18089  nowMargin */\n      dup3\n        /* \"contracts/mirrorseaMain.sol\":18053:18075  _adjustMargin.sub(fee) */\n      tag_206\n        /* \"contracts/mirrorseaMain.sol\":18053:18066  _adjustMargin */\n      dup10\n        /* \"contracts/mirrorseaMain.sol\":18071:18074  fee */\n      dup8\n        /* \"contracts/mirrorseaMain.sol\":18053:18070  _adjustMargin.sub */\n      tag_208\n        /* \"contracts/mirrorseaMain.sol\":18053:18075  _adjustMargin.sub(fee) */\n      jump\t// in\n        /* \"contracts/mirrorseaMain.sol\":18053:18090  _adjustMargin.sub(fee).sub(nowMargin) */\n    tag_390:\n        /* \"contracts/mirrorseaMain.sol\":18104:18107  usc */\n      sload(0x67)\n        /* \"contracts/mirrorseaMain.sol\":18040:18090  diffMargin = _adjustMargin.sub(fee).sub(nowMargin) */\n      swap1\n      swap2\n      pop\n        /* \"contracts/mirrorseaMain.sol\":18104:18163  usc.safeTransferFrom(msg.sender, address(this), diffMargin) */\n      tag_392\n      swap1\n      sub(shl(0xa0, 0x01), 0x01)\n        /* \"contracts/mirrorseaMain.sol\":18104:18107  usc */\n      and\n        /* \"contracts/mirrorseaMain.sol\":18125:18135  msg.sender */\n      caller\n        /* \"contracts/mirrorseaMain.sol\":18145:18149  this */\n      address\n        /* \"contracts/mirrorseaMain.sol\":18040:18090  diffMargin = _adjustMargin.sub(fee).sub(nowMargin) */\n      dup5\n        /* \"contracts/mirrorseaMain.sol\":18104:18124  usc.safeTransferFrom */\n      tag_393\n        /* \"contracts/mirrorseaMain.sol\":18104:18163  usc.safeTransferFrom(msg.sender, address(this), diffMargin) */\n      jump\t// in\n    tag_392:\n        /* \"contracts/mirrorseaMain.sol\":18190:18193  usc */\n      sload(0x67)\n        /* \"contracts/mirrorseaMain.sol\":18177:18212  IUSC(address(usc)).burn(diffMargin) */\n      mload(0x40)\n      shl(0xe3, 0x0852cd8d)\n      dup2\n      mstore\n      sub(shl(0xa0, 0x01), 0x01)\n        /* \"contracts/mirrorseaMain.sol\":18190:18193  usc */\n      swap1\n      swap2\n      and\n      swap1\n        /* \"contracts/mirrorseaMain.sol\":18177:18200  IUSC(address(usc)).burn */\n      0x42966c68\n      swap1\n        /* \"contracts/mirrorseaMain.sol\":18177:18212  IUSC(address(usc)).burn(diffMargin) */\n      tag_394\n      swap1\n        /* \"contracts/mirrorseaMain.sol\":18201:18211  diffMargin */\n      dup5\n      swap1\n        /* \"contracts/mirrorseaMain.sol\":18177:18212  IUSC(address(usc)).burn(diffMargin) */\n      0x04\n      add\n      tag_56\n      jump\t// in\n    tag_394:\n      0x00\n      mload(0x40)\n      dup1\n      dup4\n      sub\n      dup2\n      0x00\n      dup8\n      dup1\n      extcodesize\n      iszero\n      dup1\n      iszero\n      tag_395\n      jumpi\n      0x00\n      dup1\n      revert\n    tag_395:\n      pop\n      gas\n      call\n      iszero\n      dup1\n      iszero\n      tag_397\n      jumpi\n      returndatasize\n      0x00\n      dup1\n      returndatacopy\n      revert(0x00, returndatasize)\n    tag_397:\n      pop\n      pop\n      pop\n      pop\n        /* \"contracts/mirrorseaMain.sol\":17986:18365  if (_adjustMargin.sub(fee) > nowMargin) {... */\n      jump(tag_398)\n    tag_389:\n        /* \"contracts/mirrorseaMain.sol\":18256:18293  nowMargin.sub(_adjustMargin.sub(fee)) */\n      tag_399\n        /* \"contracts/mirrorseaMain.sol\":18270:18292  _adjustMargin.sub(fee) */\n      tag_400\n        /* \"contracts/mirrorseaMain.sol\":18270:18283  _adjustMargin */\n      dup9\n        /* \"contracts/mirrorseaMain.sol\":18288:18291  fee */\n      dup7\n        /* \"contracts/mirrorseaMain.sol\":18270:18287  _adjustMargin.sub */\n      tag_208\n        /* \"contracts/mirrorseaMain.sol\":18270:18292  _adjustMargin.sub(fee) */\n      jump\t// in\n    tag_400:\n        /* \"contracts/mirrorseaMain.sol\":18256:18265  nowMargin */\n      dup4\n      swap1\n        /* \"contracts/mirrorseaMain.sol\":18256:18269  nowMargin.sub */\n      tag_208\n        /* \"contracts/mirrorseaMain.sol\":18256:18293  nowMargin.sub(_adjustMargin.sub(fee)) */\n      jump\t// in\n    tag_399:\n        /* \"contracts/mirrorseaMain.sol\":18320:18323  usc */\n      sload(0x67)\n        /* \"contracts/mirrorseaMain.sol\":18331:18341  order.user */\n      dup7\n      sload\n        /* \"contracts/mirrorseaMain.sol\":18307:18354  IUSC(address(usc)).mint(order.user, diffMargin) */\n      mload(0x40)\n      shl(0xe0, 0x40c10f19)\n      dup2\n      mstore\n        /* \"contracts/mirrorseaMain.sol\":18243:18293  diffMargin = nowMargin.sub(_adjustMargin.sub(fee)) */\n      swap3\n      swap4\n      pop\n      sub(shl(0xa0, 0x01), 0x01)\n        /* \"contracts/mirrorseaMain.sol\":18320:18323  usc */\n      swap2\n      dup3\n      and\n      swap3\n        /* \"contracts/mirrorseaMain.sol\":18307:18330  IUSC(address(usc)).mint */\n      0x40c10f19\n      swap3\n        /* \"contracts/mirrorseaMain.sol\":18307:18354  IUSC(address(usc)).mint(order.user, diffMargin) */\n      tag_401\n      swap3\n        /* \"contracts/mirrorseaMain.sol\":18331:18341  order.user */\n      and\n      swap1\n        /* \"contracts/mirrorseaMain.sol\":18243:18293  diffMargin = nowMargin.sub(_adjustMargin.sub(fee)) */\n      dup6\n      swap1\n        /* \"contracts/mirrorseaMain.sol\":18307:18354  IUSC(address(usc)).mint(order.user, diffMargin) */\n      0x04\n      add\n      tag_402\n      jump\t// in\n    tag_401:\n      0x20\n      mload(0x40)\n      dup1\n      dup4\n      sub\n      dup2\n      0x00\n      dup8\n      dup1\n      extcodesize\n      iszero\n      dup1\n      iszero\n      tag_403\n      jumpi\n      0x00\n      dup1\n      revert\n    tag_403:\n      pop\n      gas\n      call\n      iszero\n      dup1\n      iszero\n      tag_405\n      jumpi\n      returndatasize\n      0x00\n      dup1\n      returndatacopy\n      revert(0x00, returndatasize)\n    tag_405:\n      pop\n      pop\n      pop\n      pop\n      mload(0x40)\n      returndatasize\n      not(0x1f)\n      0x1f\n      dup3\n      add\n      and\n      dup3\n      add\n      dup1\n      0x40\n      mstore\n      pop\n      dup2\n      add\n      swap1\n      tag_406\n      swap2\n      swap1\n      tag_369\n      jump\t// in\n    tag_406:\n      pop\n        /* \"contracts/mirrorseaMain.sol\":17986:18365  if (_adjustMargin.sub(fee) > nowMargin) {... */\n    tag_398:\n        /* \"contracts/mirrorseaMain.sol\":18387:18390  usc */\n      sload(0x67)\n        /* \"contracts/mirrorseaMain.sol\":18374:18417  IUSC(address(usc)).mint(address(this), fee) */\n      mload(0x40)\n      shl(0xe0, 0x40c10f19)\n      dup2\n      mstore\n      sub(shl(0xa0, 0x01), 0x01)\n        /* \"contracts/mirrorseaMain.sol\":18387:18390  usc */\n      swap1\n      swap2\n      and\n      swap1\n        /* \"contracts/mirrorseaMain.sol\":18374:18397  IUSC(address(usc)).mint */\n      0x40c10f19\n      swap1\n        /* \"contracts/mirrorseaMain.sol\":18374:18417  IUSC(address(usc)).mint(address(this), fee) */\n      tag_407\n      swap1\n        /* \"contracts/mirrorseaMain.sol\":18406:18410  this */\n      address\n      swap1\n        /* \"contracts/mirrorseaMain.sol\":18413:18416  fee */\n      dup9\n      swap1\n        /* \"contracts/mirrorseaMain.sol\":18374:18417  IUSC(address(usc)).mint(address(this), fee) */\n      0x04\n      add\n      tag_402\n      jump\t// in\n    tag_407:\n      0x20\n      mload(0x40)\n      dup1\n      dup4\n      sub\n      dup2\n      0x00\n      dup8\n      dup1\n      extcodesize\n      iszero\n      dup1\n      iszero\n      tag_408\n      jumpi\n      0x00\n      dup1\n      revert\n    tag_408:\n      pop\n      gas\n      call\n      iszero\n      dup1\n      iszero\n      tag_410\n      jumpi\n      returndatasize\n      0x00\n      dup1\n      returndatacopy\n      revert(0x00, returndatasize)\n    tag_410:\n      pop\n      pop\n      pop\n      pop\n      mload(0x40)\n      returndatasize\n      not(0x1f)\n      0x1f\n      dup3\n      add\n      and\n      dup3\n      add\n      dup1\n      0x40\n      mstore\n      pop\n      dup2\n      add\n      swap1\n      tag_411\n      swap2\n      swap1\n      tag_369\n      jump\t// in\n    tag_411:\n      pop\n        /* \"contracts/mirrorseaMain.sol\":18452:18463  helperLogic */\n      sload(0x68)\n        /* \"contracts/mirrorseaMain.sol\":18427:18430  usc */\n      sload(0x67)\n        /* \"contracts/mirrorseaMain.sol\":18427:18470  usc.safeTransfer(address(helperLogic), fee) */\n      tag_412\n      swap2\n      sub(shl(0xa0, 0x01), 0x01)\n        /* \"contracts/mirrorseaMain.sol\":18427:18430  usc */\n      swap2\n      dup3\n      and\n      swap2\n        /* \"contracts/mirrorseaMain.sol\":18452:18463  helperLogic */\n      and\n        /* \"contracts/mirrorseaMain.sol\":18466:18469  fee */\n      dup7\n        /* \"contracts/mirrorseaMain.sol\":18427:18443  usc.safeTransfer */\n      tag_413\n        /* \"contracts/mirrorseaMain.sol\":18427:18470  usc.safeTransfer(address(helperLogic), fee) */\n      jump\t// in\n    tag_412:\n        /* \"contracts/mirrorseaMain.sol\":18480:18491  helperLogic */\n      0x68\n      0x00\n      swap1\n      sload\n      swap1\n      0x0100\n      exp\n      swap1\n      div\n      sub(shl(0xa0, 0x01), 0x01)\n      and\n      sub(shl(0xa0, 0x01), 0x01)\n        /* \"contracts/mirrorseaMain.sol\":18480:18506  helperLogic.jointExecution */\n      and\n      0xd10c06a2\n        /* \"contracts/mirrorseaMain.sol\":18480:18508  helperLogic.jointExecution() */\n      mload(0x40)\n      dup2\n      0xffffffff\n      and\n      0xe0\n      shl\n      dup2\n      mstore\n      0x04\n      add\n      0x20\n      mload(0x40)\n      dup1\n      dup4\n      sub\n      dup2\n      0x00\n      dup8\n      dup1\n      extcodesize\n      iszero\n      dup1\n      iszero\n      tag_414\n      jumpi\n      0x00\n      dup1\n      revert\n    tag_414:\n      pop\n      gas\n      call\n      iszero\n      dup1\n      iszero\n      tag_416\n      jumpi\n      returndatasize\n      0x00\n      dup1\n      returndatacopy\n      revert(0x00, returndatasize)\n    tag_416:\n      pop\n      pop\n      pop\n      pop\n      mload(0x40)\n      returndatasize\n      not(0x1f)\n      0x1f\n      dup3\n      add\n      and\n      dup3\n      add\n      dup1\n      0x40\n      mstore\n      pop\n      dup2\n      add\n      swap1\n      tag_417\n      swap2\n      swap1\n      tag_369\n      jump\t// in\n    tag_417:\n      pop\n        /* \"contracts/mirrorseaMain.sol\":18534:18556  _adjustMargin.sub(fee) */\n      tag_418\n        /* \"contracts/mirrorseaMain.sol\":18534:18547  _adjustMargin */\n      dup8\n        /* \"contracts/mirrorseaMain.sol\":18552:18555  fee */\n      dup6\n        /* \"contracts/mirrorseaMain.sol\":18534:18551  _adjustMargin.sub */\n      tag_208\n        /* \"contracts/mirrorseaMain.sol\":18534:18556  _adjustMargin.sub(fee) */\n      jump\t// in\n    tag_418:\n        /* \"contracts/mirrorseaMain.sol\":18519:18531  order.margin */\n      0x0a\n      dup7\n      add\n        /* \"contracts/mirrorseaMain.sol\":18519:18556  order.margin = _adjustMargin.sub(fee) */\n      sstore\n      pop\n      pop\n      pop\n      pop\n        /* \"contracts/mirrorseaMain.sol\":18566:18583  order.openPrice18 */\n      0x05\n      add\n        /* \"contracts/mirrorseaMain.sol\":18566:18594  order.openPrice18 = _price18 */\n      dup5\n      swap1\n      sstore\n      pop\n        /* \"contracts/mirrorseaMain.sol\":18611:18615  true */\n      0x01\n        /* \"contracts/mirrorseaMain.sol\":16884:18622  function adjustPosition(... */\n      swap8\n      swap7\n      pop\n      pop\n      pop\n      pop\n      pop\n      pop\n      pop\n      jump\t// out\n        /* \"contracts/mirrorseaMain.sol\":1787:1811  uint256 public PRECISION */\n    tag_147:\n      sload(0x73)\n      dup2\n      jump\t// out\n        /* \"contracts/mirrorseaMain.sol\":2967:3130  function myCloseOrderIdListLength(address _user)... */\n    tag_151:\n      sub(shl(0xa0, 0x01), 0x01)\n        /* \"contracts/mirrorseaMain.sol\":3091:3116  myCloseOrderIdList[_user] */\n      and\n        /* \"contracts/mirrorseaMain.sol\":3061:3068  uint256 */\n      0x00\n        /* \"contracts/mirrorseaMain.sol\":3091:3116  myCloseOrderIdList[_user] */\n      swap1\n      dup2\n      mstore\n        /* \"contracts/mirrorseaMain.sol\":3091:3109  myCloseOrderIdList */\n      0x70\n        /* \"contracts/mirrorseaMain.sol\":3091:3116  myCloseOrderIdList[_user] */\n      0x20\n      mstore\n      0x40\n      swap1\n      keccak256\n        /* \"contracts/mirrorseaMain.sol\":3091:3123  myCloseOrderIdList[_user].length */\n      sload\n      swap1\n        /* \"contracts/mirrorseaMain.sol\":2967:3130  function myCloseOrderIdListLength(address _user)... */\n      jump\t// out\n        /* \"contracts/mirrorseaMain.sol\":1448:1502  mapping(address => uint256[]) public myOpenOrderIdList */\n    tag_155:\n      mstore(0x20, 0x6e)\n      dup2\n      0x00\n      mstore\n      keccak256(0x00, 0x40)\n      dup2\n      dup2\n      sload\n      dup2\n      lt\n      tag_420\n      jumpi\n      0x00\n      dup1\n      revert\n    tag_420:\n      swap1\n      0x00\n      mstore\n      keccak256(0x00, 0x20)\n      add\n      0x00\n      swap2\n      pop\n      swap2\n      pop\n      pop\n      sload\n      dup2\n      jump\t// out\n        /* \"contracts/mirrorseaMain.sol\":5918:7807  function openPosition(... */\n    tag_160:\n        /* \"contracts/mirrorseaMain.sol\":6261:6271  OrderIndex */\n      sload(0x6b)\n        /* \"contracts/mirrorseaMain.sol\":6208:6212  bool */\n      0x00\n        /* \"contracts/mirrorseaMain.sol\":6250:6272  _orderInfo[OrderIndex] */\n      swap1\n      dup2\n      mstore\n        /* \"contracts/mirrorseaMain.sol\":6250:6260  _orderInfo */\n      0x6a\n        /* \"contracts/mirrorseaMain.sol\":6250:6272  _orderInfo[OrderIndex] */\n      0x20\n      mstore\n      0x40\n      dup2\n      keccak256\n        /* \"contracts/mirrorseaMain.sol\":6290:6302  _margin != 0 */\n      dup10\n        /* \"contracts/mirrorseaMain.sol\":6282:6321  require(_margin != 0, \"margin no good\") */\n      tag_423\n      jumpi\n      mload(0x40)\n      shl(0xe5, 0x461bcd)\n      dup2\n      mstore\n      0x04\n      add\n      tag_214\n      swap1\n      tag_425\n      jump\t// in\n    tag_423:\n        /* \"contracts/mirrorseaMain.sol\":6339:6350  order.state */\n      0x03\n      dup2\n      add\n      sload\n        /* \"contracts/mirrorseaMain.sol\":6339:6355  order.state == 0 */\n      iszero\n        /* \"contracts/mirrorseaMain.sol\":6331:6369  require(order.state == 0, \"state err\") */\n      tag_426\n      jumpi\n      mload(0x40)\n      shl(0xe5, 0x461bcd)\n      dup2\n      mstore\n      0x04\n      add\n      tag_214\n      swap1\n      tag_362\n      jump\t// in\n    tag_426:\n        /* \"contracts/mirrorseaMain.sol\":6400:6406  oracle */\n      sload(0x69)\n        /* \"contracts/mirrorseaMain.sol\":6400:6565  oracle.getkey(... */\n      mload(0x40)\n      shl(0xe1, 0x11cdc9d9)\n      dup2\n      mstore\n      sub(shl(0xa0, 0x01), 0x01)\n        /* \"contracts/mirrorseaMain.sol\":6400:6406  oracle */\n      swap1\n      swap2\n      and\n      swap1\n        /* \"contracts/mirrorseaMain.sol\":6400:6413  oracle.getkey */\n      0x239b93b2\n      swap1\n        /* \"contracts/mirrorseaMain.sol\":6400:6565  oracle.getkey(... */\n      tag_428\n      swap1\n        /* \"contracts/mirrorseaMain.sol\":6431:6443  _marketState */\n      dup15\n      swap1\n        /* \"contracts/mirrorseaMain.sol\":6461:6469  _price18 */\n      dup10\n      swap1\n        /* \"contracts/mirrorseaMain.sol\":6487:6497  _timestamp */\n      dup15\n      swap1\n        /* \"contracts/mirrorseaMain.sol\":6515:6523  _symbols */\n      dup13\n      swap1\n        /* \"contracts/mirrorseaMain.sol\":6541:6551  _signature */\n      dup11\n      swap1\n        /* \"contracts/mirrorseaMain.sol\":6400:6565  oracle.getkey(... */\n      0x04\n      add\n      tag_364\n      jump\t// in\n    tag_428:\n      0x20\n      mload(0x40)\n      dup1\n      dup4\n      sub\n      dup2\n      dup7\n      dup1\n      extcodesize\n      iszero\n      dup1\n      iszero\n      tag_429\n      jumpi\n      0x00\n      dup1\n      revert\n    tag_429:\n      pop\n      gas\n      staticcall\n      iszero\n      dup1\n      iszero\n      tag_431\n      jumpi\n      returndatasize\n      0x00\n      dup1\n      returndatacopy\n      revert(0x00, returndatasize)\n    tag_431:\n      pop\n      pop\n      pop\n      pop\n      mload(0x40)\n      returndatasize\n      not(0x1f)\n      0x1f\n      dup3\n      add\n      and\n      dup3\n      add\n      dup1\n      0x40\n      mstore\n      pop\n      dup2\n      add\n      swap1\n      tag_432\n      swap2\n      swap1\n      tag_369\n      jump\t// in\n    tag_432:\n        /* \"contracts/mirrorseaMain.sol\":6379:6601  require(... */\n      tag_433\n      jumpi\n      mload(0x40)\n      shl(0xe5, 0x461bcd)\n      dup2\n      mstore\n      0x04\n      add\n      tag_214\n      swap1\n      tag_372\n      jump\t// in\n    tag_433:\n        /* \"contracts/mirrorseaMain.sol\":6629:6635  minVal */\n      sload(0x74)\n        /* \"contracts/mirrorseaMain.sol\":6619:6626  _margin */\n      dup11\n        /* \"contracts/mirrorseaMain.sol\":6619:6635  _margin > minVal */\n      gt\n        /* \"contracts/mirrorseaMain.sol\":6611:6675  require(_margin > minVal, \"The transaction amount is too small\") */\n      tag_435\n      jumpi\n      mload(0x40)\n      shl(0xe5, 0x461bcd)\n      dup2\n      mstore\n      0x04\n      add\n      tag_214\n      swap1\n      tag_437\n      jump\t// in\n    tag_435:\n        /* \"contracts/mirrorseaMain.sol\":6686:6689  usc */\n      sload(0x67)\n        /* \"contracts/mirrorseaMain.sol\":6686:6742  usc.safeTransferFrom(msg.sender, address(this), _margin) */\n      tag_438\n      swap1\n      sub(shl(0xa0, 0x01), 0x01)\n        /* \"contracts/mirrorseaMain.sol\":6686:6689  usc */\n      and\n        /* \"contracts/mirrorseaMain.sol\":6707:6717  msg.sender */\n      caller\n        /* \"contracts/mirrorseaMain.sol\":6727:6731  this */\n      address\n        /* \"contracts/mirrorseaMain.sol\":6734:6741  _margin */\n      dup14\n        /* \"contracts/mirrorseaMain.sol\":6686:6706  usc.safeTransferFrom */\n      tag_393\n        /* \"contracts/mirrorseaMain.sol\":6686:6742  usc.safeTransferFrom(msg.sender, address(this), _margin) */\n      jump\t// in\n    tag_438:\n        /* \"contracts/mirrorseaMain.sol\":6775:6778  usc */\n      sload(0x67)\n        /* \"contracts/mirrorseaMain.sol\":6775:6803  usc.balanceOf(address(this)) */\n      mload(0x40)\n      shl(0xe0, 0x70a08231)\n      dup2\n      mstore\n        /* \"contracts/mirrorseaMain.sol\":6752:6772  uint256 uscBalanceOf */\n      0x00\n      swap2\n      sub(shl(0xa0, 0x01), 0x01)\n        /* \"contracts/mirrorseaMain.sol\":6775:6778  usc */\n      and\n      swap1\n        /* \"contracts/mirrorseaMain.sol\":6775:6788  usc.balanceOf */\n      0x70a08231\n      swap1\n        /* \"contracts/mirrorseaMain.sol\":6775:6803  usc.balanceOf(address(this)) */\n      tag_439\n      swap1\n        /* \"contracts/mirrorseaMain.sol\":6797:6801  this */\n      address\n      swap1\n        /* \"contracts/mirrorseaMain.sol\":6775:6803  usc.balanceOf(address(this)) */\n      0x04\n      add\n      tag_70\n      jump\t// in\n    tag_439:\n      0x20\n      mload(0x40)\n      dup1\n      dup4\n      sub\n      dup2\n      dup7\n      dup1\n      extcodesize\n      iszero\n      dup1\n      iszero\n      tag_440\n      jumpi\n      0x00\n      dup1\n      revert\n    tag_440:\n      pop\n      gas\n      staticcall\n      iszero\n      dup1\n      iszero\n      tag_442\n      jumpi\n      returndatasize\n      0x00\n      dup1\n      returndatacopy\n      revert(0x00, returndatasize)\n    tag_442:\n      pop\n      pop\n      pop\n      pop\n      mload(0x40)\n      returndatasize\n      not(0x1f)\n      0x1f\n      dup3\n      add\n      and\n      dup3\n      add\n      dup1\n      0x40\n      mstore\n      pop\n      dup2\n      add\n      swap1\n      tag_443\n      swap2\n      swap1\n      tag_444\n      jump\t// in\n    tag_443:\n        /* \"contracts/mirrorseaMain.sol\":6752:6803  uint256 uscBalanceOf = usc.balanceOf(address(this)) */\n      swap1\n      pop\n        /* \"contracts/mirrorseaMain.sol\":6813:6824  uint256 fee */\n      0x00\n        /* \"contracts/mirrorseaMain.sol\":6827:6908  _price18.mul(_amt).mul(feePercent).div(PRECISION).div(... */\n      tag_445\n        /* \"contracts/mirrorseaMain.sol\":6894:6898  1e18 */\n      0x0de0b6b3a7640000\n        /* \"contracts/mirrorseaMain.sol\":6827:6876  _price18.mul(_amt).mul(feePercent).div(PRECISION) */\n      tag_247\n        /* \"contracts/mirrorseaMain.sol\":6866:6875  PRECISION */\n      sload(0x73)\n        /* \"contracts/mirrorseaMain.sol\":6827:6861  _price18.mul(_amt).mul(feePercent) */\n      tag_247\n        /* \"contracts/mirrorseaMain.sol\":6850:6860  feePercent */\n      sload(0x72)\n        /* \"contracts/mirrorseaMain.sol\":6827:6845  _price18.mul(_amt) */\n      tag_252\n        /* \"contracts/mirrorseaMain.sol\":6840:6844  _amt */\n      dup13\n        /* \"contracts/mirrorseaMain.sol\":6827:6835  _price18 */\n      dup15\n        /* \"contracts/mirrorseaMain.sol\":6827:6839  _price18.mul */\n      tag_207\n      swap1\n        /* \"contracts/mirrorseaMain.sol\":6827:6845  _price18.mul(_amt) */\n      swap2\n      swap1\n      0xffffffff\n      and\n      jump\t// in\n        /* \"contracts/mirrorseaMain.sol\":6827:6908  _price18.mul(_amt).mul(feePercent).div(PRECISION).div(... */\n    tag_445:\n        /* \"contracts/mirrorseaMain.sol\":6943:6954  helperLogic */\n      sload(0x68)\n        /* \"contracts/mirrorseaMain.sol\":6918:6921  usc */\n      sload(0x67)\n        /* \"contracts/mirrorseaMain.sol\":6813:6908  uint256 fee = _price18.mul(_amt).mul(feePercent).div(PRECISION).div(... */\n      swap2\n      swap3\n      pop\n        /* \"contracts/mirrorseaMain.sol\":6918:6961  usc.safeTransfer(address(helperLogic), fee) */\n      tag_449\n      swap2\n      sub(shl(0xa0, 0x01), 0x01)\n        /* \"contracts/mirrorseaMain.sol\":6918:6921  usc */\n      swap1\n      dup2\n      and\n      swap2\n        /* \"contracts/mirrorseaMain.sol\":6943:6954  helperLogic */\n      and\n        /* \"contracts/mirrorseaMain.sol\":6813:6908  uint256 fee = _price18.mul(_amt).mul(feePercent).div(PRECISION).div(... */\n      dup4\n        /* \"contracts/mirrorseaMain.sol\":6918:6934  usc.safeTransfer */\n      tag_413\n        /* \"contracts/mirrorseaMain.sol\":6918:6961  usc.safeTransfer(address(helperLogic), fee) */\n      jump\t// in\n    tag_449:\n        /* \"contracts/mirrorseaMain.sol\":6971:6982  helperLogic */\n      0x68\n      0x00\n      swap1\n      sload\n      swap1\n      0x0100\n      exp\n      swap1\n      div\n      sub(shl(0xa0, 0x01), 0x01)\n      and\n      sub(shl(0xa0, 0x01), 0x01)\n        /* \"contracts/mirrorseaMain.sol\":6971:6997  helperLogic.jointExecution */\n      and\n      0xd10c06a2\n        /* \"contracts/mirrorseaMain.sol\":6971:6999  helperLogic.jointExecution() */\n      mload(0x40)\n      dup2\n      0xffffffff\n      and\n      0xe0\n      shl\n      dup2\n      mstore\n      0x04\n      add\n      0x20\n      mload(0x40)\n      dup1\n      dup4\n      sub\n      dup2\n      0x00\n      dup8\n      dup1\n      extcodesize\n      iszero\n      dup1\n      iszero\n      tag_450\n      jumpi\n      0x00\n      dup1\n      revert\n    tag_450:\n      pop\n      gas\n      call\n      iszero\n      dup1\n      iszero\n      tag_452\n      jumpi\n      returndatasize\n      0x00\n      dup1\n      returndatacopy\n      revert(0x00, returndatasize)\n    tag_452:\n      pop\n      pop\n      pop\n      pop\n      mload(0x40)\n      returndatasize\n      not(0x1f)\n      0x1f\n      dup3\n      add\n      and\n      dup3\n      add\n      dup1\n      0x40\n      mstore\n      pop\n      dup2\n      add\n      swap1\n      tag_453\n      swap2\n      swap1\n      tag_369\n      jump\t// in\n    tag_453:\n      pop\n        /* \"contracts/mirrorseaMain.sol\":7022:7025  usc */\n      and(sub(shl(0xa0, 0x01), 0x01), sload(0x67))\n        /* \"contracts/mirrorseaMain.sol\":7009:7032  IUSC(address(usc)).burn */\n      0x42966c68\n        /* \"contracts/mirrorseaMain.sol\":7033:7054  uscBalanceOf.sub(fee) */\n      tag_454\n        /* \"contracts/mirrorseaMain.sol\":7033:7045  uscBalanceOf */\n      dup5\n        /* \"contracts/mirrorseaMain.sol\":7050:7053  fee */\n      dup5\n        /* \"contracts/mirrorseaMain.sol\":7033:7049  uscBalanceOf.sub */\n      tag_208\n        /* \"contracts/mirrorseaMain.sol\":7033:7054  uscBalanceOf.sub(fee) */\n      jump\t// in\n    tag_454:\n        /* \"contracts/mirrorseaMain.sol\":7009:7055  IUSC(address(usc)).burn(uscBalanceOf.sub(fee)) */\n      mload(0x40)\n      dup3\n      0xffffffff\n      and\n      0xe0\n      shl\n      dup2\n      mstore\n      0x04\n      add\n      tag_455\n      swap2\n      swap1\n      tag_56\n      jump\t// in\n    tag_455:\n      0x00\n      mload(0x40)\n      dup1\n      dup4\n      sub\n      dup2\n      0x00\n      dup8\n      dup1\n      extcodesize\n      iszero\n      dup1\n      iszero\n      tag_456\n      jumpi\n      0x00\n      dup1\n      revert\n    tag_456:\n      pop\n      gas\n      call\n      iszero\n      dup1\n      iszero\n      tag_458\n      jumpi\n      returndatasize\n      0x00\n      dup1\n      returndatacopy\n      revert(0x00, returndatasize)\n    tag_458:\n      pop\n      pop\n        /* \"contracts/mirrorseaMain.sol\":7087:7097  OrderIndex */\n      sload(0x6b)\n        /* \"contracts/mirrorseaMain.sol\":7066:7081  openOrderIdList */\n      0x6c\n        /* \"contracts/mirrorseaMain.sol\":7066:7098  openOrderIdList.push(OrderIndex) */\n      dup1\n      sload\n      0x01\n      dup2\n      dup2\n      add\n      dup4\n      sstore\n      0x00\n      dup4\n      swap1\n      mstore\n      0x2b4a51ab505fc96a0952efda2ba61bcd3078d4c02c39a186ec16f21883fbe016\n      swap1\n      swap2\n      add\n      swap3\n      swap1\n      swap3\n      sstore\n        /* \"contracts/mirrorseaMain.sol\":7144:7166  openOrderIdList.length */\n      sload\n        /* \"contracts/mirrorseaMain.sol\":7144:7173  openOrderIdList.length.sub(1) */\n      tag_460\n      swap4\n      pop\n        /* \"contracts/mirrorseaMain.sol\":7144:7166  openOrderIdList.length */\n      swap2\n      pop\n        /* \"contracts/mirrorseaMain.sol\":7144:7170  openOrderIdList.length.sub */\n      tag_208\n        /* \"contracts/mirrorseaMain.sol\":7144:7173  openOrderIdList.length.sub(1) */\n      jump\t// in\n    tag_460:\n        /* \"contracts/mirrorseaMain.sol\":7130:7140  OrderIndex */\n      0x6b\n      dup1\n      sload\n        /* \"contracts/mirrorseaMain.sol\":7108:7141  openOrderIdList_index[OrderIndex] */\n      0x00\n      swap1\n      dup2\n      mstore\n        /* \"contracts/mirrorseaMain.sol\":7108:7129  openOrderIdList_index */\n      0x6d\n        /* \"contracts/mirrorseaMain.sol\":7108:7141  openOrderIdList_index[OrderIndex] */\n      0x20\n      swap1\n      dup2\n      mstore\n      0x40\n      dup1\n      dup4\n      keccak256\n        /* \"contracts/mirrorseaMain.sol\":7108:7173  openOrderIdList_index[OrderIndex] = openOrderIdList.length.sub(1) */\n      swap5\n      swap1\n      swap5\n      sstore\n        /* \"contracts/mirrorseaMain.sol\":7202:7212  msg.sender */\n      caller\n        /* \"contracts/mirrorseaMain.sol\":7184:7213  myOpenOrderIdList[msg.sender] */\n      dup1\n      dup4\n      mstore\n        /* \"contracts/mirrorseaMain.sol\":7184:7201  myOpenOrderIdList */\n      0x6e\n        /* \"contracts/mirrorseaMain.sol\":7184:7213  myOpenOrderIdList[msg.sender] */\n      dup1\n      dup4\n      mstore\n      dup6\n      dup5\n      keccak256\n        /* \"contracts/mirrorseaMain.sol\":7219:7229  OrderIndex */\n      dup6\n      sload\n        /* \"contracts/mirrorseaMain.sol\":7184:7230  myOpenOrderIdList[msg.sender].push(OrderIndex) */\n      dup2\n      sload\n      0x01\n      dup2\n      dup2\n      add\n      dup5\n      sstore\n      dup4\n      dup9\n      mstore\n      dup7\n      dup9\n      keccak256\n      swap1\n      swap2\n      add\n      swap2\n      swap1\n      swap2\n      sstore\n        /* \"contracts/mirrorseaMain.sol\":7345:7355  OrderIndex */\n      swap6\n      sload\n        /* \"contracts/mirrorseaMain.sol\":7240:7275  myOpenOrderIdList_index[msg.sender] */\n      swap3\n      dup6\n      mstore\n        /* \"contracts/mirrorseaMain.sol\":7240:7263  myOpenOrderIdList_index */\n      0x6f\n        /* \"contracts/mirrorseaMain.sol\":7240:7275  myOpenOrderIdList_index[msg.sender] */\n      dup5\n      mstore\n      swap6\n      dup5\n      keccak256\n        /* \"contracts/mirrorseaMain.sol\":7289:7318  myOpenOrderIdList[msg.sender] */\n      swap3\n      mstore\n        /* \"contracts/mirrorseaMain.sol\":7289:7325  myOpenOrderIdList[msg.sender].length */\n      swap4\n      sload\n        /* \"contracts/mirrorseaMain.sol\":7240:7275  myOpenOrderIdList_index[msg.sender] */\n      swap1\n      swap3\n        /* \"contracts/mirrorseaMain.sol\":7289:7332  myOpenOrderIdList[msg.sender].length.sub(1) */\n      tag_462\n      swap2\n        /* \"contracts/mirrorseaMain.sol\":7289:7325  myOpenOrderIdList[msg.sender].length */\n      swap1\n        /* \"contracts/mirrorseaMain.sol\":7289:7329  myOpenOrderIdList[msg.sender].length.sub */\n      tag_208\n        /* \"contracts/mirrorseaMain.sol\":7289:7332  myOpenOrderIdList[msg.sender].length.sub(1) */\n      jump\t// in\n    tag_462:\n        /* \"contracts/mirrorseaMain.sol\":7240:7342  myOpenOrderIdList_index[msg.sender][... */\n      dup2\n      mstore\n      0x20\n      add\n      swap1\n      dup2\n      mstore\n      0x20\n      add\n      0x00\n      keccak256\n        /* \"contracts/mirrorseaMain.sol\":7240:7355  myOpenOrderIdList_index[msg.sender][... */\n      dup2\n      swap1\n      sstore\n      pop\n        /* \"contracts/mirrorseaMain.sol\":7366:7376  OrderIndex */\n      0x6b\n      0x00\n        /* \"contracts/mirrorseaMain.sol\":7366:7378  OrderIndex++ */\n      dup2\n      sload\n      dup1\n      swap3\n      swap2\n      swap1\n      tag_463\n      swap1\n      tag_229\n      jump\t// in\n    tag_463:\n      swap1\n      swap2\n      sstore\n      pop\n      pop\n        /* \"contracts/mirrorseaMain.sol\":7389:7412  order.user = msg.sender */\n      dup3\n      sload\n      not(sub(shl(0xa0, 0x01), 0x01))\n      and\n        /* \"contracts/mirrorseaMain.sol\":7402:7412  msg.sender */\n      caller\n        /* \"contracts/mirrorseaMain.sol\":7389:7412  order.user = msg.sender */\n      or\n      dup4\n      sstore\n      0x01\n        /* \"contracts/mirrorseaMain.sol\":7422:7433  order._type */\n      dup4\n      add\n        /* \"contracts/mirrorseaMain.sol\":7422:7441  order._type = _type */\n      dup10\n      swap1\n      sstore\n        /* \"contracts/mirrorseaMain.sol\":7451:7475  order.symbols = _symbols */\n      dup8\n      mload\n      tag_464\n      swap1\n        /* \"contracts/mirrorseaMain.sol\":7451:7464  order.symbols */\n      0x02\n      dup6\n      add\n      swap1\n        /* \"contracts/mirrorseaMain.sol\":7451:7475  order.symbols = _symbols */\n      0x20\n      dup12\n      add\n      swap1\n      tag_465\n      jump\t// in\n    tag_464:\n      pop\n        /* \"contracts/mirrorseaMain.sol\":7499:7500  1 */\n      0x01\n        /* \"contracts/mirrorseaMain.sol\":7485:7496  order.state */\n      0x03\n      dup5\n      add\n        /* \"contracts/mirrorseaMain.sol\":7485:7500  order.state = 1 */\n      sstore\n        /* \"contracts/mirrorseaMain.sol\":7586:7601  order.direction */\n      0x04\n      dup4\n      add\n        /* \"contracts/mirrorseaMain.sol\":7586:7614  order.direction = _direction */\n      dup11\n      swap1\n      sstore\n        /* \"contracts/mirrorseaMain.sol\":7641:7658  order.openPrice18 */\n      0x05\n      dup4\n      add\n        /* \"contracts/mirrorseaMain.sol\":7641:7669  order.openPrice18 = _price18 */\n      dup8\n      swap1\n      sstore\n        /* \"contracts/mirrorseaMain.sol\":7679:7693  order.openTime */\n      0x06\n      dup4\n      add\n        /* \"contracts/mirrorseaMain.sol\":7679:7706  order.openTime = _timestamp */\n      dup12\n      swap1\n      sstore\n        /* \"contracts/mirrorseaMain.sol\":7716:7725  order.amt */\n      0x09\n      dup4\n      add\n        /* \"contracts/mirrorseaMain.sol\":7716:7732  order.amt = _amt */\n      dup7\n      swap1\n      sstore\n        /* \"contracts/mirrorseaMain.sol\":7757:7778  uscBalanceOf.sub(fee) */\n      tag_466\n        /* \"contracts/mirrorseaMain.sol\":7757:7769  uscBalanceOf */\n      dup3\n        /* \"contracts/mirrorseaMain.sol\":7774:7777  fee */\n      dup3\n        /* \"contracts/mirrorseaMain.sol\":7757:7773  uscBalanceOf.sub */\n      tag_208\n        /* \"contracts/mirrorseaMain.sol\":7757:7778  uscBalanceOf.sub(fee) */\n      jump\t// in\n    tag_466:\n        /* \"contracts/mirrorseaMain.sol\":7742:7754  order.margin */\n      0x0a\n      swap1\n      swap4\n      add\n        /* \"contracts/mirrorseaMain.sol\":7742:7778  order.margin = uscBalanceOf.sub(fee) */\n      swap3\n      swap1\n      swap3\n      sstore\n      pop\n        /* \"contracts/mirrorseaMain.sol\":7796:7800  true */\n      0x01\n      swap12\n        /* \"contracts/mirrorseaMain.sol\":5918:7807  function openPosition(... */\n      swap11\n      pop\n      pop\n      pop\n      pop\n      pop\n      pop\n      pop\n      pop\n      pop\n      pop\n      pop\n      jump\t// out\n        /* \"contracts/mirrorseaMain.sol\":2800:2961  function myOpenOrderIdListLength(address _user)... */\n    tag_164:\n      sub(shl(0xa0, 0x01), 0x01)\n        /* \"contracts/mirrorseaMain.sol\":2923:2947  myOpenOrderIdList[_user] */\n      and\n        /* \"contracts/mirrorseaMain.sol\":2893:2900  uint256 */\n      0x00\n        /* \"contracts/mirrorseaMain.sol\":2923:2947  myOpenOrderIdList[_user] */\n      swap1\n      dup2\n      mstore\n        /* \"contracts/mirrorseaMain.sol\":2923:2940  myOpenOrderIdList */\n      0x6e\n        /* \"contracts/mirrorseaMain.sol\":2923:2947  myOpenOrderIdList[_user] */\n      0x20\n      mstore\n      0x40\n      swap1\n      keccak256\n        /* \"contracts/mirrorseaMain.sol\":2923:2954  myOpenOrderIdList[_user].length */\n      sload\n      swap1\n        /* \"contracts/mirrorseaMain.sol\":2800:2961  function myOpenOrderIdListLength(address _user)... */\n      jump\t// out\n        /* \"contracts/mirrorseaMain.sol\":1601:1656  mapping(address => uint256[]) public myCloseOrderIdList */\n    tag_168:\n      mstore(0x20, 0x70)\n      dup2\n      0x00\n      mstore\n      keccak256(0x00, 0x40)\n      dup2\n      dup2\n      sload\n      dup2\n      lt\n      tag_420\n      jumpi\n      0x00\n      dup1\n      revert\n        /* \"contracts/mirrorseaMain.sol\":1662:1749  mapping(address => mapping(uint256 => uint256))... */\n    tag_172:\n      0x71\n      0x20\n      swap1\n      dup2\n      mstore\n      0x00\n      swap3\n      dup4\n      mstore\n      0x40\n      dup1\n      dup5\n      keccak256\n      swap1\n      swap2\n      mstore\n      swap1\n      dup3\n      mstore\n      swap1\n      keccak256\n      sload\n      dup2\n      jump\t// out\n        /* \"contracts/mirrorseaMain.sol\":1818:1839  uint256 public minVal */\n    tag_175:\n      sload(0x74)\n      dup2\n      jump\t// out\n        /* \"@openzeppelin/contracts-upgradeable/access/OwnableUpgradeable.sol\":2184:2382  function transferOwnership(address newOwner) public virtual onlyOwner {... */\n    tag_179:\n        /* \"@openzeppelin/contracts-upgradeable/access/OwnableUpgradeable.sol\":1525:1537  _msgSender() */\n      tag_471\n        /* \"@openzeppelin/contracts-upgradeable/access/OwnableUpgradeable.sol\":1525:1535  _msgSender */\n      tag_236\n        /* \"@openzeppelin/contracts-upgradeable/access/OwnableUpgradeable.sol\":1525:1537  _msgSender() */\n      jump\t// in\n    tag_471:\n      sub(shl(0xa0, 0x01), 0x01)\n        /* \"@openzeppelin/contracts-upgradeable/access/OwnableUpgradeable.sol\":1514:1537  owner() == _msgSender() */\n      and\n        /* \"@openzeppelin/contracts-upgradeable/access/OwnableUpgradeable.sol\":1514:1521  owner() */\n      tag_472\n        /* \"@openzeppelin/contracts-upgradeable/access/OwnableUpgradeable.sol\":1514:1519  owner */\n      tag_135\n        /* \"@openzeppelin/contracts-upgradeable/access/OwnableUpgradeable.sol\":1514:1521  owner() */\n      jump\t// in\n    tag_472:\n      sub(shl(0xa0, 0x01), 0x01)\n        /* \"@openzeppelin/contracts-upgradeable/access/OwnableUpgradeable.sol\":1514:1537  owner() == _msgSender() */\n      and\n      eq\n        /* \"@openzeppelin/contracts-upgradeable/access/OwnableUpgradeable.sol\":1506:1574  require(owner() == _msgSender(), \"Ownable: caller is not the owner\") */\n      tag_473\n      jumpi\n      mload(0x40)\n      shl(0xe5, 0x461bcd)\n      dup2\n      mstore\n      0x04\n      add\n      tag_214\n      swap1\n      tag_240\n      jump\t// in\n    tag_473:\n      sub(shl(0xa0, 0x01), 0x01)\n        /* \"@openzeppelin/contracts-upgradeable/access/OwnableUpgradeable.sol\":2272:2294  newOwner != address(0) */\n      dup2\n      and\n        /* \"@openzeppelin/contracts-upgradeable/access/OwnableUpgradeable.sol\":2264:2337  require(newOwner != address(0), \"Ownable: new owner is the zero address\") */\n      tag_476\n      jumpi\n      mload(0x40)\n      shl(0xe5, 0x461bcd)\n      dup2\n      mstore\n      0x04\n      add\n      tag_214\n      swap1\n      tag_478\n      jump\t// in\n    tag_476:\n        /* \"@openzeppelin/contracts-upgradeable/access/OwnableUpgradeable.sol\":2347:2375  _transferOwnership(newOwner) */\n      tag_479\n        /* \"@openzeppelin/contracts-upgradeable/access/OwnableUpgradeable.sol\":2366:2374  newOwner */\n      dup2\n        /* \"@openzeppelin/contracts-upgradeable/access/OwnableUpgradeable.sol\":2347:2365  _transferOwnership */\n      tag_343\n        /* \"@openzeppelin/contracts-upgradeable/access/OwnableUpgradeable.sol\":2347:2375  _transferOwnership(newOwner) */\n      jump\t// in\n    tag_479:\n        /* \"@openzeppelin/contracts-upgradeable/access/OwnableUpgradeable.sol\":2184:2382  function transferOwnership(address newOwner) public virtual onlyOwner {... */\n      pop\n      jump\t// out\n        /* \"contracts/mirrorseaMain.sol\":1315:1340  uint256 public OrderIndex */\n    tag_181:\n      sload(0x6b)\n      dup2\n      jump\t// out\n        /* \"contracts/mirrorseaMain.sol\":2277:2657  function initialize(... */\n    tag_186:\n        /* \"@openzeppelin/contracts-upgradeable/proxy/utils/Initializable.sol\":539:552  _initializing */\n      sload(0x00)\n      0x0100\n      swap1\n      div\n      0xff\n      and\n      dup1\n        /* \"@openzeppelin/contracts-upgradeable/proxy/utils/Initializable.sol\":539:569  _initializing || !_initialized */\n      tag_481\n      jumpi\n      pop\n        /* \"@openzeppelin/contracts-upgradeable/proxy/utils/Initializable.sol\":557:569  _initialized */\n      and(0xff, sload(0x00))\n        /* \"@openzeppelin/contracts-upgradeable/proxy/utils/Initializable.sol\":556:569  !_initialized */\n      iszero\n        /* \"@openzeppelin/contracts-upgradeable/proxy/utils/Initializable.sol\":539:569  _initializing || !_initialized */\n    tag_481:\n        /* \"@openzeppelin/contracts-upgradeable/proxy/utils/Initializable.sol\":531:620  require(_initializing || !_initialized, \"Initializable: contract is already initialized\") */\n      tag_482\n      jumpi\n      mload(0x40)\n      shl(0xe5, 0x461bcd)\n      dup2\n      mstore\n      0x04\n      add\n      tag_214\n      swap1\n      tag_484\n      jump\t// in\n    tag_482:\n        /* \"@openzeppelin/contracts-upgradeable/proxy/utils/Initializable.sol\":631:650  bool isTopLevelCall */\n      0x00\n        /* \"@openzeppelin/contracts-upgradeable/proxy/utils/Initializable.sol\":654:667  _initializing */\n      sload\n      0x0100\n      swap1\n      div\n      0xff\n      and\n        /* \"@openzeppelin/contracts-upgradeable/proxy/utils/Initializable.sol\":653:667  !_initializing */\n      iszero\n        /* \"@openzeppelin/contracts-upgradeable/proxy/utils/Initializable.sol\":677:775  if (isTopLevelCall) {... */\n      dup1\n      iszero\n      tag_485\n      jumpi\n        /* \"@openzeppelin/contracts-upgradeable/proxy/utils/Initializable.sol\":711:724  _initializing */\n      0x00\n        /* \"@openzeppelin/contracts-upgradeable/proxy/utils/Initializable.sol\":711:731  _initializing = true */\n      dup1\n      sload\n      not(0xff)\n      not(0xff00)\n      swap1\n      swap2\n      and\n      0x0100\n      or\n        /* \"@openzeppelin/contracts-upgradeable/proxy/utils/Initializable.sol\":745:764  _initialized = true */\n      and\n        /* \"@openzeppelin/contracts-upgradeable/proxy/utils/Initializable.sol\":727:731  true */\n      0x01\n        /* \"@openzeppelin/contracts-upgradeable/proxy/utils/Initializable.sol\":745:764  _initialized = true */\n      or\n      swap1\n      sstore\n        /* \"@openzeppelin/contracts-upgradeable/proxy/utils/Initializable.sol\":677:775  if (isTopLevelCall) {... */\n    tag_485:\n        /* \"contracts/mirrorseaMain.sol\":2451:2467  __Ownable_init() */\n      tag_487\n        /* \"contracts/mirrorseaMain.sol\":2451:2465  __Ownable_init */\n      tag_488\n        /* \"contracts/mirrorseaMain.sol\":2451:2467  __Ownable_init() */\n      jump\t// in\n    tag_487:\n        /* \"contracts/mirrorseaMain.sol\":2477:2483  signer */\n      0x66\n        /* \"contracts/mirrorseaMain.sol\":2477:2493  signer = _signer */\n      dup1\n      sload\n      sub(shl(0xa0, 0x01), 0x01)\n      dup1\n      dup9\n      and\n      not(sub(shl(0xa0, 0x01), 0x01))\n      swap3\n      dup4\n      and\n      or\n      swap1\n      swap3\n      sstore\n        /* \"contracts/mirrorseaMain.sol\":2503:2514  helperLogic */\n      0x68\n        /* \"contracts/mirrorseaMain.sol\":2503:2529  helperLogic = _helperLogic */\n      dup1\n      sload\n      dup8\n      dup5\n      and\n      swap1\n      dup4\n      and\n      or\n      swap1\n      sstore\n        /* \"contracts/mirrorseaMain.sol\":2539:2542  usc */\n      0x67\n        /* \"contracts/mirrorseaMain.sol\":2539:2549  usc = _usc */\n      dup1\n      sload\n      dup7\n      dup5\n      and\n      swap1\n      dup4\n      and\n      or\n      swap1\n      sstore\n        /* \"contracts/mirrorseaMain.sol\":2571:2576  10000 */\n      0x2710\n        /* \"contracts/mirrorseaMain.sol\":2559:2568  PRECISION */\n      0x73\n        /* \"contracts/mirrorseaMain.sol\":2559:2576  PRECISION = 10000 */\n      sstore\n        /* \"contracts/mirrorseaMain.sol\":2586:2592  oracle */\n      0x69\n        /* \"contracts/mirrorseaMain.sol\":2586:2602  oracle = _oracle */\n      dup1\n      sload\n      swap3\n      dup6\n      and\n      swap3\n      swap1\n      swap2\n      and\n      swap2\n      swap1\n      swap2\n      or\n      swap1\n      sstore\n        /* \"contracts/mirrorseaMain.sol\":2621:2625  1e18 */\n      0x0de0b6b3a7640000\n        /* \"contracts/mirrorseaMain.sol\":2612:2618  minVal */\n      0x74\n        /* \"contracts/mirrorseaMain.sol\":2612:2625  minVal = 1e18 */\n      sstore\n        /* \"contracts/mirrorseaMain.sol\":2648:2650  50 */\n      0x32\n        /* \"contracts/mirrorseaMain.sol\":2635:2645  feePercent */\n      0x72\n        /* \"contracts/mirrorseaMain.sol\":2635:2650  feePercent = 50 */\n      sstore\n        /* \"@openzeppelin/contracts-upgradeable/proxy/utils/Initializable.sol\":797:863  if (isTopLevelCall) {... */\n      dup1\n      iszero\n      tag_489\n      jumpi\n        /* \"@openzeppelin/contracts-upgradeable/proxy/utils/Initializable.sol\":847:852  false */\n      0x00\n        /* \"@openzeppelin/contracts-upgradeable/proxy/utils/Initializable.sol\":831:852  _initializing = false */\n      dup1\n      sload\n      not(0xff00)\n      and\n      swap1\n      sstore\n        /* \"@openzeppelin/contracts-upgradeable/proxy/utils/Initializable.sol\":797:863  if (isTopLevelCall) {... */\n    tag_489:\n        /* \"contracts/mirrorseaMain.sol\":2277:2657  function initialize(... */\n      pop\n      pop\n      pop\n      pop\n      pop\n      jump\t// out\n        /* \"contracts/mirrorseaMain.sol\":3858:4633  function setOrderInfo(... */\n    tag_190:\n        /* \"contracts/mirrorseaMain.sol\":4217:4221  bool */\n      0x00\n        /* \"@openzeppelin/contracts-upgradeable/access/OwnableUpgradeable.sol\":1525:1537  _msgSender() */\n      tag_491\n        /* \"@openzeppelin/contracts-upgradeable/access/OwnableUpgradeable.sol\":1525:1535  _msgSender */\n      tag_236\n        /* \"@openzeppelin/contracts-upgradeable/access/OwnableUpgradeable.sol\":1525:1537  _msgSender() */\n      jump\t// in\n    tag_491:\n      sub(shl(0xa0, 0x01), 0x01)\n        /* \"@openzeppelin/contracts-upgradeable/access/OwnableUpgradeable.sol\":1514:1537  owner() == _msgSender() */\n      and\n        /* \"@openzeppelin/contracts-upgradeable/access/OwnableUpgradeable.sol\":1514:1521  owner() */\n      tag_492\n        /* \"@openzeppelin/contracts-upgradeable/access/OwnableUpgradeable.sol\":1514:1519  owner */\n      tag_135\n        /* \"@openzeppelin/contracts-upgradeable/access/OwnableUpgradeable.sol\":1514:1521  owner() */\n      jump\t// in\n    tag_492:\n      sub(shl(0xa0, 0x01), 0x01)\n        /* \"@openzeppelin/contracts-upgradeable/access/OwnableUpgradeable.sol\":1514:1537  owner() == _msgSender() */\n      and\n      eq\n        /* \"@openzeppelin/contracts-upgradeable/access/OwnableUpgradeable.sol\":1506:1574  require(owner() == _msgSender(), \"Ownable: caller is not the owner\") */\n      tag_493\n      jumpi\n      mload(0x40)\n      shl(0xe5, 0x461bcd)\n      dup2\n      mstore\n      0x04\n      add\n      tag_214\n      swap1\n      tag_240\n      jump\t// in\n    tag_493:\n        /* \"contracts/mirrorseaMain.sol\":4250:4605  OrderInfo({... */\n      mload(0x40)\n      dup1\n      0x0160\n      add\n      0x40\n      mstore\n      dup1\n        /* \"contracts/mirrorseaMain.sol\":4280:4284  user */\n      dup14\n      sub(shl(0xa0, 0x01), 0x01)\n        /* \"contracts/mirrorseaMain.sol\":4250:4605  OrderInfo({... */\n      and\n      dup2\n      mstore\n      0x20\n      add\n        /* \"contracts/mirrorseaMain.sol\":4305:4310  _type */\n      dup13\n        /* \"contracts/mirrorseaMain.sol\":4250:4605  OrderInfo({... */\n      dup2\n      mstore\n      0x20\n      add\n        /* \"contracts/mirrorseaMain.sol\":4333:4340  symbols */\n      dup12\n        /* \"contracts/mirrorseaMain.sol\":4250:4605  OrderInfo({... */\n      dup2\n      mstore\n      0x20\n      add\n        /* \"contracts/mirrorseaMain.sol\":4361:4366  state */\n      dup11\n        /* \"contracts/mirrorseaMain.sol\":4250:4605  OrderInfo({... */\n      dup2\n      mstore\n      0x20\n      add\n        /* \"contracts/mirrorseaMain.sol\":4391:4400  direction */\n      dup10\n        /* \"contracts/mirrorseaMain.sol\":4250:4605  OrderInfo({... */\n      dup2\n      mstore\n      0x20\n      add\n        /* \"contracts/mirrorseaMain.sol\":4427:4438  openPrice18 */\n      dup9\n        /* \"contracts/mirrorseaMain.sol\":4250:4605  OrderInfo({... */\n      dup2\n      mstore\n      0x20\n      add\n        /* \"contracts/mirrorseaMain.sol\":4462:4470  openTime */\n      dup8\n        /* \"contracts/mirrorseaMain.sol\":4250:4605  OrderInfo({... */\n      dup2\n      mstore\n      0x20\n      add\n        /* \"contracts/mirrorseaMain.sol\":4498:4510  closePrice18 */\n      dup7\n        /* \"contracts/mirrorseaMain.sol\":4250:4605  OrderInfo({... */\n      dup2\n      mstore\n      0x20\n      add\n        /* \"contracts/mirrorseaMain.sol\":4535:4544  closeTime */\n      dup6\n        /* \"contracts/mirrorseaMain.sol\":4250:4605  OrderInfo({... */\n      dup2\n      mstore\n      0x20\n      add\n        /* \"contracts/mirrorseaMain.sol\":4563:4566  amt */\n      dup5\n        /* \"contracts/mirrorseaMain.sol\":4250:4605  OrderInfo({... */\n      dup2\n      mstore\n      0x20\n      add\n        /* \"contracts/mirrorseaMain.sol\":4588:4594  margin */\n      dup4\n        /* \"contracts/mirrorseaMain.sol\":4250:4605  OrderInfo({... */\n      dup2\n      mstore\n      pop\n        /* \"contracts/mirrorseaMain.sol\":4233:4243  _orderInfo */\n      0x6a\n        /* \"contracts/mirrorseaMain.sol\":4233:4247  _orderInfo[id] */\n      0x00\n        /* \"contracts/mirrorseaMain.sol\":4244:4246  id */\n      dup16\n        /* \"contracts/mirrorseaMain.sol\":4233:4247  _orderInfo[id] */\n      dup2\n      mstore\n      0x20\n      add\n      swap1\n      dup2\n      mstore\n      0x20\n      add\n      0x00\n      keccak256\n        /* \"contracts/mirrorseaMain.sol\":4233:4605  _orderInfo[id] = OrderInfo({... */\n      0x00\n      dup3\n      add\n      mload\n      dup2\n      0x00\n      add\n      exp(0x0100, 0x00)\n      dup2\n      sload\n      dup2\n      sub(shl(0xa0, 0x01), 0x01)\n      mul\n      not\n      and\n      swap1\n      dup4\n      sub(shl(0xa0, 0x01), 0x01)\n      and\n      mul\n      or\n      swap1\n      sstore\n      pop\n      0x20\n      dup3\n      add\n      mload\n      dup2\n      0x01\n      add\n      sstore\n      0x40\n      dup3\n      add\n      mload\n      dup2\n      0x02\n      add\n      swap1\n      dup1\n      mload\n      swap1\n      0x20\n      add\n      swap1\n      tag_496\n      swap3\n      swap2\n      swap1\n      tag_465\n      jump\t// in\n    tag_496:\n      pop\n      0x60\n      dup3\n      add\n      mload\n      0x03\n      dup3\n      add\n      sstore\n      0x80\n      dup3\n      add\n      mload\n      0x04\n      dup3\n      add\n      sstore\n      0xa0\n      dup3\n      add\n      mload\n      0x05\n      dup3\n      add\n      sstore\n      0xc0\n      dup3\n      add\n      mload\n      0x06\n      dup3\n      add\n      sstore\n      0xe0\n      dup3\n      add\n      mload\n      0x07\n      dup3\n      add\n      sstore\n      0x0100\n      dup3\n      add\n      mload\n      0x08\n      dup3\n      add\n      sstore\n      0x0120\n      dup3\n      add\n      mload\n      0x09\n      dup3\n      add\n      sstore\n      0x0140\n      swap1\n      swap2\n      add\n      mload\n      0x0a\n      swap1\n      swap2\n      add\n      sstore\n      pop\n        /* \"contracts/mirrorseaMain.sol\":4622:4626  true */\n      0x01\n        /* \"contracts/mirrorseaMain.sol\":3858:4633  function setOrderInfo(... */\n      swap13\n      swap12\n      pop\n      pop\n      pop\n      pop\n      pop\n      pop\n      pop\n      pop\n      pop\n      pop\n      pop\n      pop\n      jump\t// out\n        /* \"@openzeppelin/contracts-upgradeable/utils/math/SafeMathUpgradeable.sol\":3462:3558  function mul(uint256 a, uint256 b) internal pure returns (uint256) {... */\n    tag_207:\n        /* \"@openzeppelin/contracts-upgradeable/utils/math/SafeMathUpgradeable.sol\":3520:3527  uint256 */\n      0x00\n        /* \"@openzeppelin/contracts-upgradeable/utils/math/SafeMathUpgradeable.sol\":3546:3551  a * b */\n      tag_242\n        /* \"@openzeppelin/contracts-upgradeable/utils/math/SafeMathUpgradeable.sol\":3550:3551  b */\n      dup3\n        /* \"@openzeppelin/contracts-upgradeable/utils/math/SafeMathUpgradeable.sol\":3546:3547  a */\n      dup5\n        /* \"@openzeppelin/contracts-upgradeable/utils/math/SafeMathUpgradeable.sol\":3546:3551  a * b */\n      tag_499\n      jump\t// in\n        /* \"@openzeppelin/contracts-upgradeable/utils/math/SafeMathUpgradeable.sol\":3119:3215  function sub(uint256 a, uint256 b) internal pure returns (uint256) {... */\n    tag_208:\n        /* \"@openzeppelin/contracts-upgradeable/utils/math/SafeMathUpgradeable.sol\":3177:3184  uint256 */\n      0x00\n        /* \"@openzeppelin/contracts-upgradeable/utils/math/SafeMathUpgradeable.sol\":3203:3208  a - b */\n      tag_242\n        /* \"@openzeppelin/contracts-upgradeable/utils/math/SafeMathUpgradeable.sol\":3207:3208  b */\n      dup3\n        /* \"@openzeppelin/contracts-upgradeable/utils/math/SafeMathUpgradeable.sol\":3203:3204  a */\n      dup5\n        /* \"@openzeppelin/contracts-upgradeable/utils/math/SafeMathUpgradeable.sol\":3203:3208  a - b */\n      tag_502\n      jump\t// in\n        /* \"@openzeppelin/contracts-upgradeable/utils/ContextUpgradeable.sol\":876:972  function _msgSender() internal view virtual returns (address) {... */\n    tag_236:\n        /* \"@openzeppelin/contracts-upgradeable/utils/ContextUpgradeable.sol\":955:965  msg.sender */\n      caller\n        /* \"@openzeppelin/contracts-upgradeable/utils/ContextUpgradeable.sol\":876:972  function _msgSender() internal view virtual returns (address) {... */\n      swap1\n      jump\t// out\n        /* \"@openzeppelin/contracts-upgradeable/utils/math/SafeMathUpgradeable.sol\":3847:3943  function div(uint256 a, uint256 b) internal pure returns (uint256) {... */\n    tag_248:\n        /* \"@openzeppelin/contracts-upgradeable/utils/math/SafeMathUpgradeable.sol\":3905:3912  uint256 */\n      0x00\n        /* \"@openzeppelin/contracts-upgradeable/utils/math/SafeMathUpgradeable.sol\":3931:3936  a / b */\n      tag_242\n        /* \"@openzeppelin/contracts-upgradeable/utils/math/SafeMathUpgradeable.sol\":3935:3936  b */\n      dup3\n        /* \"@openzeppelin/contracts-upgradeable/utils/math/SafeMathUpgradeable.sol\":3931:3932  a */\n      dup5\n        /* \"@openzeppelin/contracts-upgradeable/utils/math/SafeMathUpgradeable.sol\":3931:3936  a / b */\n      tag_506\n      jump\t// in\n        /* \"contracts/mirrorseaMain.sol\":7813:11524  function _closePosition(... */\n    tag_288:\n        /* \"contracts/mirrorseaMain.sol\":8109:8119  order.user */\n      dup7\n      sload\n        /* \"contracts/mirrorseaMain.sol\":8085:8089  bool */\n      0x00\n      swap1\n      sub(shl(0xa0, 0x01), 0x01)\n        /* \"contracts/mirrorseaMain.sol\":8109:8119  order.user */\n      and\n        /* \"contracts/mirrorseaMain.sol\":8101:8158  require(order.user != address(0), \"order does not exist\") */\n      tag_508\n      jumpi\n      mload(0x40)\n      shl(0xe5, 0x461bcd)\n      dup2\n      mstore\n      0x04\n      add\n      tag_214\n      swap1\n      tag_359\n      jump\t// in\n    tag_508:\n        /* \"contracts/mirrorseaMain.sol\":8190:8191  2 */\n      0x02\n        /* \"contracts/mirrorseaMain.sol\":8176:8181  order */\n      dup9\n        /* \"contracts/mirrorseaMain.sol\":8176:8187  order.state */\n      0x03\n      add\n      sload\n        /* \"contracts/mirrorseaMain.sol\":8176:8191  order.state < 2 */\n      lt\n        /* \"contracts/mirrorseaMain.sol\":8168:8205  require(order.state < 2, \"state err\") */\n      tag_510\n      jumpi\n      mload(0x40)\n      shl(0xe5, 0x461bcd)\n      dup2\n      mstore\n      0x04\n      add\n      tag_214\n      swap1\n      tag_362\n      jump\t// in\n    tag_510:\n        /* \"contracts/mirrorseaMain.sol\":8236:8242  oracle */\n      sload(0x69)\n        /* \"contracts/mirrorseaMain.sol\":8236:8401  oracle.getkey(... */\n      mload(0x40)\n      shl(0xe1, 0x11cdc9d9)\n      dup2\n      mstore\n      sub(shl(0xa0, 0x01), 0x01)\n        /* \"contracts/mirrorseaMain.sol\":8236:8242  oracle */\n      swap1\n      swap2\n      and\n      swap1\n        /* \"contracts/mirrorseaMain.sol\":8236:8249  oracle.getkey */\n      0x239b93b2\n      swap1\n        /* \"contracts/mirrorseaMain.sol\":8236:8401  oracle.getkey(... */\n      tag_512\n      swap1\n        /* \"contracts/mirrorseaMain.sol\":8267:8279  _marketState */\n      dup13\n      swap1\n        /* \"contracts/mirrorseaMain.sol\":8297:8305  _price18 */\n      dup8\n      swap1\n        /* \"contracts/mirrorseaMain.sol\":8323:8333  _timestamp */\n      dup11\n      swap1\n        /* \"contracts/mirrorseaMain.sol\":8351:8359  _symbols */\n      dup11\n      swap1\n        /* \"contracts/mirrorseaMain.sol\":8377:8387  _signature */\n      dup10\n      swap1\n        /* \"contracts/mirrorseaMain.sol\":8236:8401  oracle.getkey(... */\n      0x04\n      add\n      tag_364\n      jump\t// in\n    tag_512:\n      0x20\n      mload(0x40)\n      dup1\n      dup4\n      sub\n      dup2\n      dup7\n      dup1\n      extcodesize\n      iszero\n      dup1\n      iszero\n      tag_513\n      jumpi\n      0x00\n      dup1\n      revert\n    tag_513:\n      pop\n      gas\n      staticcall\n      iszero\n      dup1\n      iszero\n      tag_515\n      jumpi\n      returndatasize\n      0x00\n      dup1\n      returndatacopy\n      revert(0x00, returndatasize)\n    tag_515:\n      pop\n      pop\n      pop\n      pop\n      mload(0x40)\n      returndatasize\n      not(0x1f)\n      0x1f\n      dup3\n      add\n      and\n      dup3\n      add\n      dup1\n      0x40\n      mstore\n      pop\n      dup2\n      add\n      swap1\n      tag_516\n      swap2\n      swap1\n      tag_369\n      jump\t// in\n    tag_516:\n        /* \"contracts/mirrorseaMain.sol\":8215:8437  require(... */\n      tag_517\n      jumpi\n      mload(0x40)\n      shl(0xe5, 0x461bcd)\n      dup2\n      mstore\n      0x04\n      add\n      tag_214\n      swap1\n      tag_372\n      jump\t// in\n    tag_517:\n        /* \"contracts/mirrorseaMain.sol\":8448:8466  order.closePrice18 */\n      0x07\n      dup9\n      add\n        /* \"contracts/mirrorseaMain.sol\":8448:8477  order.closePrice18 = _price18 */\n      dup4\n      swap1\n      sstore\n        /* \"contracts/mirrorseaMain.sol\":8589:8598  order.amt */\n      0x09\n      dup9\n      add\n      sload\n        /* \"contracts/mirrorseaMain.sol\":8772:8781  PRECISION */\n      sload(0x73)\n        /* \"contracts/mirrorseaMain.sol\":8743:8753  feePercent */\n      sload(0x72)\n        /* \"contracts/mirrorseaMain.sol\":8487:8506  uint256 diffPrice18 */\n      0x00\n      swap3\n      dup4\n      swap3\n      dup4\n      swap3\n        /* \"contracts/mirrorseaMain.sol\":8469:8477  _price18 */\n      dup9\n      swap2\n        /* \"contracts/mirrorseaMain.sol\":8487:8506  uint256 diffPrice18 */\n      dup5\n      swap2\n        /* \"contracts/mirrorseaMain.sol\":8679:8805  order_closePrice18... */\n      tag_519\n      swap2\n        /* \"contracts/mirrorseaMain.sol\":8800:8804  1e18 */\n      0x0de0b6b3a7640000\n      swap2\n        /* \"contracts/mirrorseaMain.sol\":8679:8782  order_closePrice18... */\n      tag_247\n      swap2\n        /* \"contracts/mirrorseaMain.sol\":8772:8781  PRECISION */\n      swap1\n        /* \"contracts/mirrorseaMain.sol\":8679:8782  order_closePrice18... */\n      dup3\n      swap1\n        /* \"contracts/mirrorseaMain.sol\":8679:8725  order_closePrice18... */\n      tag_252\n        /* \"contracts/mirrorseaMain.sol\":8469:8477  _price18 */\n      dup9\n        /* \"contracts/mirrorseaMain.sol\":8589:8598  order.amt */\n      dup11\n        /* \"contracts/mirrorseaMain.sol\":8679:8714  order_closePrice18... */\n      tag_207\n        /* \"contracts/mirrorseaMain.sol\":8679:8725  order_closePrice18... */\n      jump\t// in\n        /* \"contracts/mirrorseaMain.sol\":8679:8805  order_closePrice18... */\n    tag_519:\n        /* \"contracts/mirrorseaMain.sol\":8665:8805  uint256 fee = order_closePrice18... */\n      swap1\n      pop\n        /* \"contracts/mirrorseaMain.sol\":8819:8824  order */\n      dup14\n        /* \"contracts/mirrorseaMain.sol\":8819:8834  order.direction */\n      0x04\n      add\n      sload\n        /* \"contracts/mirrorseaMain.sol\":8838:8839  1 */\n      0x01\n        /* \"contracts/mirrorseaMain.sol\":8819:8839  order.direction == 1 */\n      eq\n        /* \"contracts/mirrorseaMain.sol\":8815:10661  if (order.direction == 1) {... */\n      iszero\n      tag_523\n      jumpi\n        /* \"contracts/mirrorseaMain.sol\":8880:8885  order */\n      dup14\n        /* \"contracts/mirrorseaMain.sol\":8880:8897  order.openPrice18 */\n      0x05\n      add\n      sload\n        /* \"contracts/mirrorseaMain.sol\":8859:8864  order */\n      dup15\n        /* \"contracts/mirrorseaMain.sol\":8859:8877  order.closePrice18 */\n      0x07\n      add\n      sload\n        /* \"contracts/mirrorseaMain.sol\":8859:8897  order.closePrice18 > order.openPrice18 */\n      gt\n        /* \"contracts/mirrorseaMain.sol\":8855:9734  if (order.closePrice18 > order.openPrice18) {... */\n      iszero\n      tag_524\n      jumpi\n        /* \"contracts/mirrorseaMain.sol\":8954:8971  order.openPrice18 */\n      0x05\n      dup15\n      add\n      sload\n        /* \"contracts/mirrorseaMain.sol\":8931:8949  order.closePrice18 */\n      0x07\n      dup16\n      add\n      sload\n        /* \"contracts/mirrorseaMain.sol\":8931:8972  order.closePrice18.sub(order.openPrice18) */\n      tag_525\n      swap2\n        /* \"contracts/mirrorseaMain.sol\":8931:8953  order.closePrice18.sub */\n      tag_208\n        /* \"contracts/mirrorseaMain.sol\":8931:8972  order.closePrice18.sub(order.openPrice18) */\n      jump\t// in\n    tag_525:\n        /* \"contracts/mirrorseaMain.sol\":8917:8972  diffPrice18 = order.closePrice18.sub(order.openPrice18) */\n      swap6\n      pop\n        /* \"contracts/mirrorseaMain.sol\":9003:9039  diffPrice18.mul(order_amt).div(1e18) */\n      tag_526\n        /* \"contracts/mirrorseaMain.sol\":9034:9038  1e18 */\n      0x0de0b6b3a7640000\n        /* \"contracts/mirrorseaMain.sol\":9003:9029  diffPrice18.mul(order_amt) */\n      tag_247\n        /* \"contracts/mirrorseaMain.sol\":8917:8972  diffPrice18 = order.closePrice18.sub(order.openPrice18) */\n      dup9\n        /* \"contracts/mirrorseaMain.sol\":9019:9028  order_amt */\n      dup7\n        /* \"contracts/mirrorseaMain.sol\":9003:9018  diffPrice18.mul */\n      tag_207\n        /* \"contracts/mirrorseaMain.sol\":9003:9029  diffPrice18.mul(order_amt) */\n      jump\t// in\n        /* \"contracts/mirrorseaMain.sol\":9003:9039  diffPrice18.mul(order_amt).div(1e18) */\n    tag_526:\n        /* \"contracts/mirrorseaMain.sol\":9067:9079  order.margin */\n      0x0a\n      dup16\n      add\n      sload\n        /* \"contracts/mirrorseaMain.sol\":8990:9039  diffMargin = diffPrice18.mul(order_amt).div(1e18) */\n      swap1\n      swap6\n      pop\n        /* \"contracts/mirrorseaMain.sol\":9067:9095  order.margin.add(diffMargin) */\n      tag_528\n      swap1\n        /* \"contracts/mirrorseaMain.sol\":8990:9039  diffMargin = diffPrice18.mul(order_amt).div(1e18) */\n      dup7\n        /* \"contracts/mirrorseaMain.sol\":9067:9083  order.margin.add */\n      tag_387\n        /* \"contracts/mirrorseaMain.sol\":9067:9095  order.margin.add(diffMargin) */\n      jump\t// in\n    tag_528:\n        /* \"contracts/mirrorseaMain.sol\":9127:9130  usc */\n      sload(0x67)\n        /* \"contracts/mirrorseaMain.sol\":9146:9157  helperLogic */\n      sload(0x68)\n        /* \"contracts/mirrorseaMain.sol\":9114:9164  IUSC(address(usc)).mint(address(helperLogic), fee) */\n      mload(0x40)\n      shl(0xe0, 0x40c10f19)\n      dup2\n      mstore\n        /* \"contracts/mirrorseaMain.sol\":9057:9095  mintAmt = order.margin.add(diffMargin) */\n      swap3\n      swap7\n      pop\n      sub(shl(0xa0, 0x01), 0x01)\n        /* \"contracts/mirrorseaMain.sol\":9127:9130  usc */\n      swap2\n      dup3\n      and\n      swap3\n        /* \"contracts/mirrorseaMain.sol\":9114:9137  IUSC(address(usc)).mint */\n      0x40c10f19\n      swap3\n        /* \"contracts/mirrorseaMain.sol\":9114:9164  IUSC(address(usc)).mint(address(helperLogic), fee) */\n      tag_529\n      swap3\n        /* \"contracts/mirrorseaMain.sol\":9146:9157  helperLogic */\n      and\n      swap1\n        /* \"contracts/mirrorseaMain.sol\":9160:9163  fee */\n      dup6\n      swap1\n        /* \"contracts/mirrorseaMain.sol\":9114:9164  IUSC(address(usc)).mint(address(helperLogic), fee) */\n      0x04\n      add\n      tag_402\n      jump\t// in\n    tag_529:\n      0x20\n      mload(0x40)\n      dup1\n      dup4\n      sub\n      dup2\n      0x00\n      dup8\n      dup1\n      extcodesize\n      iszero\n      dup1\n      iszero\n      tag_530\n      jumpi\n      0x00\n      dup1\n      revert\n    tag_530:\n      pop\n      gas\n      call\n      iszero\n      dup1\n      iszero\n      tag_532\n      jumpi\n      returndatasize\n      0x00\n      dup1\n      returndatacopy\n      revert(0x00, returndatasize)\n    tag_532:\n      pop\n      pop\n      pop\n      pop\n      mload(0x40)\n      returndatasize\n      not(0x1f)\n      0x1f\n      dup3\n      add\n      and\n      dup3\n      add\n      dup1\n      0x40\n      mstore\n      pop\n      dup2\n      add\n      swap1\n      tag_533\n      swap2\n      swap1\n      tag_369\n      jump\t// in\n    tag_533:\n      pop\n        /* \"contracts/mirrorseaMain.sol\":9195:9198  usc */\n      sload(0x67)\n        /* \"contracts/mirrorseaMain.sol\":9206:9216  order.user */\n      dup15\n      sload\n      sub(shl(0xa0, 0x01), 0x01)\n        /* \"contracts/mirrorseaMain.sol\":9195:9198  usc */\n      swap2\n      dup3\n      and\n      swap2\n        /* \"contracts/mirrorseaMain.sol\":9182:9205  IUSC(address(usc)).mint */\n      0x40c10f19\n      swap2\n        /* \"contracts/mirrorseaMain.sol\":9206:9216  order.user */\n      and\n        /* \"contracts/mirrorseaMain.sol\":9218:9234  mintAmt.sub(fee) */\n      tag_534\n        /* \"contracts/mirrorseaMain.sol\":9218:9225  mintAmt */\n      dup8\n        /* \"contracts/mirrorseaMain.sol\":9230:9233  fee */\n      dup6\n        /* \"contracts/mirrorseaMain.sol\":9218:9229  mintAmt.sub */\n      tag_208\n        /* \"contracts/mirrorseaMain.sol\":9218:9234  mintAmt.sub(fee) */\n      jump\t// in\n    tag_534:\n        /* \"contracts/mirrorseaMain.sol\":9182:9235  IUSC(address(usc)).mint(order.user, mintAmt.sub(fee)) */\n      mload(0x40)\n      dup4\n      0xffffffff\n      and\n      0xe0\n      shl\n      dup2\n      mstore\n      0x04\n      add\n      tag_535\n      swap3\n      swap2\n      swap1\n      tag_402\n      jump\t// in\n    tag_535:\n      0x20\n      mload(0x40)\n      dup1\n      dup4\n      sub\n      dup2\n      0x00\n      dup8\n      dup1\n      extcodesize\n      iszero\n      dup1\n      iszero\n      tag_536\n      jumpi\n      0x00\n      dup1\n      revert\n    tag_536:\n      pop\n      gas\n      call\n      iszero\n      dup1\n      iszero\n      tag_538\n      jumpi\n      returndatasize\n      0x00\n      dup1\n      returndatacopy\n      revert(0x00, returndatasize)\n    tag_538:\n      pop\n      pop\n      pop\n      pop\n      mload(0x40)\n      returndatasize\n      not(0x1f)\n      0x1f\n      dup3\n      add\n      and\n      dup3\n      add\n      dup1\n      0x40\n      mstore\n      pop\n      dup2\n      add\n      swap1\n      tag_539\n      swap2\n      swap1\n      tag_369\n      jump\t// in\n    tag_539:\n      pop\n        /* \"contracts/mirrorseaMain.sol\":8855:9734  if (order.closePrice18 > order.openPrice18) {... */\n      jump(tag_544)\n    tag_524:\n        /* \"contracts/mirrorseaMain.sol\":9310:9328  order.closePrice18 */\n      0x07\n      dup15\n      add\n      sload\n        /* \"contracts/mirrorseaMain.sol\":9288:9305  order.openPrice18 */\n      0x05\n      dup16\n      add\n      sload\n        /* \"contracts/mirrorseaMain.sol\":9288:9329  order.openPrice18.sub(order.closePrice18) */\n      tag_541\n      swap2\n        /* \"contracts/mirrorseaMain.sol\":9288:9309  order.openPrice18.sub */\n      tag_208\n        /* \"contracts/mirrorseaMain.sol\":9288:9329  order.openPrice18.sub(order.closePrice18) */\n      jump\t// in\n    tag_541:\n        /* \"contracts/mirrorseaMain.sol\":9274:9329  diffPrice18 = order.openPrice18.sub(order.closePrice18) */\n      swap6\n      pop\n        /* \"contracts/mirrorseaMain.sol\":9360:9386  diffPrice18.mul(order_amt) */\n      tag_542\n        /* \"contracts/mirrorseaMain.sol\":9274:9329  diffPrice18 = order.openPrice18.sub(order.closePrice18) */\n      dup7\n        /* \"contracts/mirrorseaMain.sol\":9376:9385  order_amt */\n      dup5\n        /* \"contracts/mirrorseaMain.sol\":9360:9375  diffPrice18.mul */\n      tag_207\n        /* \"contracts/mirrorseaMain.sol\":9360:9386  diffPrice18.mul(order_amt) */\n      jump\t// in\n    tag_542:\n        /* \"contracts/mirrorseaMain.sol\":9347:9386  diffMargin = diffPrice18.mul(order_amt) */\n      swap5\n      pop\n        /* \"contracts/mirrorseaMain.sol\":9422:9427  order */\n      dup14\n        /* \"contracts/mirrorseaMain.sol\":9422:9434  order.margin */\n      0x0a\n      add\n      sload\n        /* \"contracts/mirrorseaMain.sol\":9409:9419  diffMargin */\n      dup6\n        /* \"contracts/mirrorseaMain.sol\":9409:9434  diffMargin > order.margin */\n      gt\n        /* \"contracts/mirrorseaMain.sol\":9405:9720  if (diffMargin > order.margin) {... */\n      iszero\n      tag_543\n      jumpi\n        /* \"contracts/mirrorseaMain.sol\":9468:9469  0 */\n      0x00\n        /* \"contracts/mirrorseaMain.sol\":9458:9469  mintAmt = 0 */\n      swap4\n      pop\n        /* \"contracts/mirrorseaMain.sol\":9405:9720  if (diffMargin > order.margin) {... */\n      jump(tag_544)\n    tag_543:\n        /* \"contracts/mirrorseaMain.sol\":9526:9538  order.margin */\n      0x0a\n      dup15\n      add\n      sload\n        /* \"contracts/mirrorseaMain.sol\":9526:9554  order.margin.sub(diffMargin) */\n      tag_545\n      swap1\n        /* \"contracts/mirrorseaMain.sol\":9543:9553  diffMargin */\n      dup7\n        /* \"contracts/mirrorseaMain.sol\":9526:9542  order.margin.sub */\n      tag_208\n        /* \"contracts/mirrorseaMain.sol\":9526:9554  order.margin.sub(diffMargin) */\n      jump\t// in\n    tag_545:\n        /* \"contracts/mirrorseaMain.sol\":9589:9592  usc */\n      sload(0x67)\n        /* \"contracts/mirrorseaMain.sol\":9608:9619  helperLogic */\n      sload(0x68)\n        /* \"contracts/mirrorseaMain.sol\":9576:9626  IUSC(address(usc)).mint(address(helperLogic), fee) */\n      mload(0x40)\n      shl(0xe0, 0x40c10f19)\n      dup2\n      mstore\n        /* \"contracts/mirrorseaMain.sol\":9516:9554  mintAmt = order.margin.sub(diffMargin) */\n      swap3\n      swap7\n      pop\n      sub(shl(0xa0, 0x01), 0x01)\n        /* \"contracts/mirrorseaMain.sol\":9589:9592  usc */\n      swap2\n      dup3\n      and\n      swap3\n        /* \"contracts/mirrorseaMain.sol\":9576:9599  IUSC(address(usc)).mint */\n      0x40c10f19\n      swap3\n        /* \"contracts/mirrorseaMain.sol\":9576:9626  IUSC(address(usc)).mint(address(helperLogic), fee) */\n      tag_546\n      swap3\n        /* \"contracts/mirrorseaMain.sol\":9608:9619  helperLogic */\n      and\n      swap1\n        /* \"contracts/mirrorseaMain.sol\":9622:9625  fee */\n      dup6\n      swap1\n        /* \"contracts/mirrorseaMain.sol\":9576:9626  IUSC(address(usc)).mint(address(helperLogic), fee) */\n      0x04\n      add\n      tag_402\n      jump\t// in\n    tag_546:\n      0x20\n      mload(0x40)\n      dup1\n      dup4\n      sub\n      dup2\n      0x00\n      dup8\n      dup1\n      extcodesize\n      iszero\n      dup1\n      iszero\n      tag_547\n      jumpi\n      0x00\n      dup1\n      revert\n    tag_547:\n      pop\n      gas\n      call\n      iszero\n      dup1\n      iszero\n      tag_549\n      jumpi\n      returndatasize\n      0x00\n      dup1\n      returndatacopy\n      revert(0x00, returndatasize)\n    tag_549:\n      pop\n      pop\n      pop\n      pop\n      mload(0x40)\n      returndatasize\n      not(0x1f)\n      0x1f\n      dup3\n      add\n      and\n      dup3\n      add\n      dup1\n      0x40\n      mstore\n      pop\n      dup2\n      add\n      swap1\n      tag_550\n      swap2\n      swap1\n      tag_369\n      jump\t// in\n    tag_550:\n      pop\n        /* \"contracts/mirrorseaMain.sol\":9661:9664  usc */\n      sload(0x67)\n        /* \"contracts/mirrorseaMain.sol\":9672:9682  order.user */\n      dup15\n      sload\n      sub(shl(0xa0, 0x01), 0x01)\n        /* \"contracts/mirrorseaMain.sol\":9661:9664  usc */\n      swap2\n      dup3\n      and\n      swap2\n        /* \"contracts/mirrorseaMain.sol\":9648:9671  IUSC(address(usc)).mint */\n      0x40c10f19\n      swap2\n        /* \"contracts/mirrorseaMain.sol\":9672:9682  order.user */\n      and\n        /* \"contracts/mirrorseaMain.sol\":9684:9700  mintAmt.sub(fee) */\n      tag_551\n        /* \"contracts/mirrorseaMain.sol\":9684:9691  mintAmt */\n      dup8\n        /* \"contracts/mirrorseaMain.sol\":9696:9699  fee */\n      dup6\n        /* \"contracts/mirrorseaMain.sol\":9684:9695  mintAmt.sub */\n      tag_208\n        /* \"contracts/mirrorseaMain.sol\":9684:9700  mintAmt.sub(fee) */\n      jump\t// in\n    tag_551:\n        /* \"contracts/mirrorseaMain.sol\":9648:9701  IUSC(address(usc)).mint(order.user, mintAmt.sub(fee)) */\n      mload(0x40)\n      dup4\n      0xffffffff\n      and\n      0xe0\n      shl\n      dup2\n      mstore\n      0x04\n      add\n      tag_552\n      swap3\n      swap2\n      swap1\n      tag_402\n      jump\t// in\n    tag_552:\n      0x20\n      mload(0x40)\n      dup1\n      dup4\n      sub\n      dup2\n      0x00\n      dup8\n      dup1\n      extcodesize\n      iszero\n      dup1\n      iszero\n      tag_553\n      jumpi\n      0x00\n      dup1\n      revert\n    tag_553:\n      pop\n      gas\n      call\n      iszero\n      dup1\n      iszero\n      tag_555\n      jumpi\n      returndatasize\n      0x00\n      dup1\n      returndatacopy\n      revert(0x00, returndatasize)\n    tag_555:\n      pop\n      pop\n      pop\n      pop\n      mload(0x40)\n      returndatasize\n      not(0x1f)\n      0x1f\n      dup3\n      add\n      and\n      dup3\n      add\n      dup1\n      0x40\n      mstore\n      pop\n      dup2\n      add\n      swap1\n      tag_556\n      swap2\n      swap1\n      tag_369\n      jump\t// in\n    tag_556:\n      pop\n        /* \"contracts/mirrorseaMain.sol\":9405:9720  if (diffMargin > order.margin) {... */\n    tag_544:\n        /* \"contracts/mirrorseaMain.sol\":8815:10661  if (order.direction == 1) {... */\n      jump(tag_579)\n    tag_523:\n        /* \"contracts/mirrorseaMain.sol\":9789:9794  order */\n      dup14\n        /* \"contracts/mirrorseaMain.sol\":9789:9806  order.openPrice18 */\n      0x05\n      add\n      sload\n        /* \"contracts/mirrorseaMain.sol\":9768:9773  order */\n      dup15\n        /* \"contracts/mirrorseaMain.sol\":9768:9786  order.closePrice18 */\n      0x07\n      add\n      sload\n        /* \"contracts/mirrorseaMain.sol\":9768:9806  order.closePrice18 < order.openPrice18 */\n      lt\n        /* \"contracts/mirrorseaMain.sol\":9764:10651  if (order.closePrice18 < order.openPrice18) {... */\n      iszero\n      tag_558\n      jumpi\n        /* \"contracts/mirrorseaMain.sol\":9862:9880  order.closePrice18 */\n      0x07\n      dup15\n      add\n      sload\n        /* \"contracts/mirrorseaMain.sol\":9840:9857  order.openPrice18 */\n      0x05\n      dup16\n      add\n      sload\n        /* \"contracts/mirrorseaMain.sol\":9840:9881  order.openPrice18.sub(order.closePrice18) */\n      tag_559\n      swap2\n        /* \"contracts/mirrorseaMain.sol\":9840:9861  order.openPrice18.sub */\n      tag_208\n        /* \"contracts/mirrorseaMain.sol\":9840:9881  order.openPrice18.sub(order.closePrice18) */\n      jump\t// in\n    tag_559:\n        /* \"contracts/mirrorseaMain.sol\":9826:9881  diffPrice18 = order.openPrice18.sub(order.closePrice18) */\n      swap6\n      pop\n        /* \"contracts/mirrorseaMain.sol\":9912:9948  diffPrice18.mul(order_amt).div(1e18) */\n      tag_560\n        /* \"contracts/mirrorseaMain.sol\":9943:9947  1e18 */\n      0x0de0b6b3a7640000\n        /* \"contracts/mirrorseaMain.sol\":9912:9938  diffPrice18.mul(order_amt) */\n      tag_247\n        /* \"contracts/mirrorseaMain.sol\":9826:9881  diffPrice18 = order.openPrice18.sub(order.closePrice18) */\n      dup9\n        /* \"contracts/mirrorseaMain.sol\":9928:9937  order_amt */\n      dup7\n        /* \"contracts/mirrorseaMain.sol\":9912:9927  diffPrice18.mul */\n      tag_207\n        /* \"contracts/mirrorseaMain.sol\":9912:9938  diffPrice18.mul(order_amt) */\n      jump\t// in\n        /* \"contracts/mirrorseaMain.sol\":9912:9948  diffPrice18.mul(order_amt).div(1e18) */\n    tag_560:\n        /* \"contracts/mirrorseaMain.sol\":9976:9988  order.margin */\n      0x0a\n      dup16\n      add\n      sload\n        /* \"contracts/mirrorseaMain.sol\":9899:9948  diffMargin = diffPrice18.mul(order_amt).div(1e18) */\n      swap1\n      swap6\n      pop\n        /* \"contracts/mirrorseaMain.sol\":9976:10004  order.margin.add(diffMargin) */\n      tag_545\n      swap1\n        /* \"contracts/mirrorseaMain.sol\":9899:9948  diffMargin = diffPrice18.mul(order_amt).div(1e18) */\n      dup7\n        /* \"contracts/mirrorseaMain.sol\":9976:9992  order.margin.add */\n      tag_387\n        /* \"contracts/mirrorseaMain.sol\":9976:10004  order.margin.add(diffMargin) */\n      jump\t// in\n        /* \"contracts/mirrorseaMain.sol\":9764:10651  if (order.closePrice18 < order.openPrice18) {... */\n    tag_558:\n        /* \"contracts/mirrorseaMain.sol\":10219:10236  order.openPrice18 */\n      0x05\n      dup15\n      add\n      sload\n        /* \"contracts/mirrorseaMain.sol\":10196:10214  order.closePrice18 */\n      0x07\n      dup16\n      add\n      sload\n        /* \"contracts/mirrorseaMain.sol\":10196:10237  order.closePrice18.sub(order.openPrice18) */\n      tag_575\n      swap2\n        /* \"contracts/mirrorseaMain.sol\":10196:10218  order.closePrice18.sub */\n      tag_208\n        /* \"contracts/mirrorseaMain.sol\":10196:10237  order.closePrice18.sub(order.openPrice18) */\n      jump\t// in\n    tag_575:\n        /* \"contracts/mirrorseaMain.sol\":10182:10237  diffPrice18 = order.closePrice18.sub(order.openPrice18) */\n      swap6\n      pop\n        /* \"contracts/mirrorseaMain.sol\":10268:10304  diffPrice18.mul(order_amt).div(1e18) */\n      tag_576\n        /* \"contracts/mirrorseaMain.sol\":10299:10303  1e18 */\n      0x0de0b6b3a7640000\n        /* \"contracts/mirrorseaMain.sol\":10268:10294  diffPrice18.mul(order_amt) */\n      tag_247\n        /* \"contracts/mirrorseaMain.sol\":10182:10237  diffPrice18 = order.closePrice18.sub(order.openPrice18) */\n      dup9\n        /* \"contracts/mirrorseaMain.sol\":10284:10293  order_amt */\n      dup7\n        /* \"contracts/mirrorseaMain.sol\":10268:10283  diffPrice18.mul */\n      tag_207\n        /* \"contracts/mirrorseaMain.sol\":10268:10294  diffPrice18.mul(order_amt) */\n      jump\t// in\n        /* \"contracts/mirrorseaMain.sol\":10268:10304  diffPrice18.mul(order_amt).div(1e18) */\n    tag_576:\n        /* \"contracts/mirrorseaMain.sol\":10255:10304  diffMargin = diffPrice18.mul(order_amt).div(1e18) */\n      swap5\n      pop\n        /* \"contracts/mirrorseaMain.sol\":10339:10344  order */\n      dup14\n        /* \"contracts/mirrorseaMain.sol\":10339:10351  order.margin */\n      0x0a\n      add\n      sload\n        /* \"contracts/mirrorseaMain.sol\":10326:10336  diffMargin */\n      dup6\n        /* \"contracts/mirrorseaMain.sol\":10326:10351  diffMargin > order.margin */\n      gt\n        /* \"contracts/mirrorseaMain.sol\":10322:10637  if (diffMargin > order.margin) {... */\n      iszero\n      tag_578\n      jumpi\n        /* \"contracts/mirrorseaMain.sol\":10385:10386  0 */\n      0x00\n        /* \"contracts/mirrorseaMain.sol\":10375:10386  mintAmt = 0 */\n      swap4\n      pop\n        /* \"contracts/mirrorseaMain.sol\":10322:10637  if (diffMargin > order.margin) {... */\n      jump(tag_579)\n    tag_578:\n        /* \"contracts/mirrorseaMain.sol\":10443:10455  order.margin */\n      0x0a\n      dup15\n      add\n      sload\n        /* \"contracts/mirrorseaMain.sol\":10443:10471  order.margin.sub(diffMargin) */\n      tag_580\n      swap1\n        /* \"contracts/mirrorseaMain.sol\":10460:10470  diffMargin */\n      dup7\n        /* \"contracts/mirrorseaMain.sol\":10443:10459  order.margin.sub */\n      tag_208\n        /* \"contracts/mirrorseaMain.sol\":10443:10471  order.margin.sub(diffMargin) */\n      jump\t// in\n    tag_580:\n        /* \"contracts/mirrorseaMain.sol\":10506:10509  usc */\n      sload(0x67)\n        /* \"contracts/mirrorseaMain.sol\":10525:10536  helperLogic */\n      sload(0x68)\n        /* \"contracts/mirrorseaMain.sol\":10493:10543  IUSC(address(usc)).mint(address(helperLogic), fee) */\n      mload(0x40)\n      shl(0xe0, 0x40c10f19)\n      dup2\n      mstore\n        /* \"contracts/mirrorseaMain.sol\":10433:10471  mintAmt = order.margin.sub(diffMargin) */\n      swap3\n      swap7\n      pop\n      sub(shl(0xa0, 0x01), 0x01)\n        /* \"contracts/mirrorseaMain.sol\":10506:10509  usc */\n      swap2\n      dup3\n      and\n      swap3\n        /* \"contracts/mirrorseaMain.sol\":10493:10516  IUSC(address(usc)).mint */\n      0x40c10f19\n      swap3\n        /* \"contracts/mirrorseaMain.sol\":10493:10543  IUSC(address(usc)).mint(address(helperLogic), fee) */\n      tag_581\n      swap3\n        /* \"contracts/mirrorseaMain.sol\":10525:10536  helperLogic */\n      and\n      swap1\n        /* \"contracts/mirrorseaMain.sol\":10539:10542  fee */\n      dup6\n      swap1\n        /* \"contracts/mirrorseaMain.sol\":10493:10543  IUSC(address(usc)).mint(address(helperLogic), fee) */\n      0x04\n      add\n      tag_402\n      jump\t// in\n    tag_581:\n      0x20\n      mload(0x40)\n      dup1\n      dup4\n      sub\n      dup2\n      0x00\n      dup8\n      dup1\n      extcodesize\n      iszero\n      dup1\n      iszero\n      tag_582\n      jumpi\n      0x00\n      dup1\n      revert\n    tag_582:\n      pop\n      gas\n      call\n      iszero\n      dup1\n      iszero\n      tag_584\n      jumpi\n      returndatasize\n      0x00\n      dup1\n      returndatacopy\n      revert(0x00, returndatasize)\n    tag_584:\n      pop\n      pop\n      pop\n      pop\n      mload(0x40)\n      returndatasize\n      not(0x1f)\n      0x1f\n      dup3\n      add\n      and\n      dup3\n      add\n      dup1\n      0x40\n      mstore\n      pop\n      dup2\n      add\n      swap1\n      tag_585\n      swap2\n      swap1\n      tag_369\n      jump\t// in\n    tag_585:\n      pop\n        /* \"contracts/mirrorseaMain.sol\":10578:10581  usc */\n      sload(0x67)\n        /* \"contracts/mirrorseaMain.sol\":10589:10599  order.user */\n      dup15\n      sload\n      sub(shl(0xa0, 0x01), 0x01)\n        /* \"contracts/mirrorseaMain.sol\":10578:10581  usc */\n      swap2\n      dup3\n      and\n      swap2\n        /* \"contracts/mirrorseaMain.sol\":10565:10588  IUSC(address(usc)).mint */\n      0x40c10f19\n      swap2\n        /* \"contracts/mirrorseaMain.sol\":10589:10599  order.user */\n      and\n        /* \"contracts/mirrorseaMain.sol\":10601:10617  mintAmt.sub(fee) */\n      tag_586\n        /* \"contracts/mirrorseaMain.sol\":10601:10608  mintAmt */\n      dup8\n        /* \"contracts/mirrorseaMain.sol\":10613:10616  fee */\n      dup6\n        /* \"contracts/mirrorseaMain.sol\":10601:10612  mintAmt.sub */\n      tag_208\n        /* \"contracts/mirrorseaMain.sol\":10601:10617  mintAmt.sub(fee) */\n      jump\t// in\n    tag_586:\n        /* \"contracts/mirrorseaMain.sol\":10565:10618  IUSC(address(usc)).mint(order.user, mintAmt.sub(fee)) */\n      mload(0x40)\n      dup4\n      0xffffffff\n      and\n      0xe0\n      shl\n      dup2\n      mstore\n      0x04\n      add\n      tag_587\n      swap3\n      swap2\n      swap1\n      tag_402\n      jump\t// in\n    tag_587:\n      0x20\n      mload(0x40)\n      dup1\n      dup4\n      sub\n      dup2\n      0x00\n      dup8\n      dup1\n      extcodesize\n      iszero\n      dup1\n      iszero\n      tag_588\n      jumpi\n      0x00\n      dup1\n      revert\n    tag_588:\n      pop\n      gas\n      call\n      iszero\n      dup1\n      iszero\n      tag_590\n      jumpi\n      returndatasize\n      0x00\n      dup1\n      returndatacopy\n      revert(0x00, returndatasize)\n    tag_590:\n      pop\n      pop\n      pop\n      pop\n      mload(0x40)\n      returndatasize\n      not(0x1f)\n      0x1f\n      dup3\n      add\n      and\n      dup3\n      add\n      dup1\n      0x40\n      mstore\n      pop\n      dup2\n      add\n      swap1\n      tag_591\n      swap2\n      swap1\n      tag_369\n      jump\t// in\n    tag_591:\n      pop\n        /* \"contracts/mirrorseaMain.sol\":10322:10637  if (diffMargin > order.margin) {... */\n    tag_579:\n        /* \"contracts/mirrorseaMain.sol\":10671:10682  helperLogic */\n      0x68\n      0x00\n      swap1\n      sload\n      swap1\n      0x0100\n      exp\n      swap1\n      div\n      sub(shl(0xa0, 0x01), 0x01)\n      and\n      sub(shl(0xa0, 0x01), 0x01)\n        /* \"contracts/mirrorseaMain.sol\":10671:10697  helperLogic.jointExecution */\n      and\n      0xd10c06a2\n        /* \"contracts/mirrorseaMain.sol\":10671:10699  helperLogic.jointExecution() */\n      mload(0x40)\n      dup2\n      0xffffffff\n      and\n      0xe0\n      shl\n      dup2\n      mstore\n      0x04\n      add\n      0x20\n      mload(0x40)\n      dup1\n      dup4\n      sub\n      dup2\n      0x00\n      dup8\n      dup1\n      extcodesize\n      iszero\n      dup1\n      iszero\n      tag_592\n      jumpi\n      0x00\n      dup1\n      revert\n    tag_592:\n      pop\n      gas\n      call\n      iszero\n      dup1\n      iszero\n      tag_594\n      jumpi\n      returndatasize\n      0x00\n      dup1\n      returndatacopy\n      revert(0x00, returndatasize)\n    tag_594:\n      pop\n      pop\n      pop\n      pop\n      mload(0x40)\n      returndatasize\n      not(0x1f)\n      0x1f\n      dup3\n      add\n      and\n      dup3\n      add\n      dup1\n      0x40\n      mstore\n      pop\n      dup2\n      add\n      swap1\n      tag_595\n      swap2\n      swap1\n      tag_369\n      jump\t// in\n    tag_595:\n      pop\n        /* \"contracts/mirrorseaMain.sol\":10710:10721  order.state */\n      0x03\n      dup15\n      add\n        /* \"contracts/mirrorseaMain.sol\":10710:10730  order.state = _state */\n      dup14\n      swap1\n      sstore\n        /* \"contracts/mirrorseaMain.sol\":10740:10758  order.closePrice18 */\n      0x07\n      dup15\n      add\n        /* \"contracts/mirrorseaMain.sol\":10740:10769  order.closePrice18 = _price18 */\n      dup10\n      swap1\n      sstore\n        /* \"contracts/mirrorseaMain.sol\":10779:10794  order.closeTime */\n      0x08\n      dup15\n      add\n        /* \"contracts/mirrorseaMain.sol\":10779:10807  order.closeTime = _timestamp */\n      dup12\n      swap1\n      sstore\n        /* \"contracts/mirrorseaMain.sol\":10818:10874  cutListItem(_id, openOrderIdList_index, openOrderIdList) */\n      tag_596\n        /* \"contracts/mirrorseaMain.sol\":10830:10833  _id */\n      dup13\n        /* \"contracts/mirrorseaMain.sol\":10835:10856  openOrderIdList_index */\n      0x6d\n        /* \"contracts/mirrorseaMain.sol\":10858:10873  openOrderIdList */\n      0x6c\n        /* \"contracts/mirrorseaMain.sol\":10818:10829  cutListItem */\n      tag_597\n        /* \"contracts/mirrorseaMain.sol\":10818:10874  cutListItem(_id, openOrderIdList_index, openOrderIdList) */\n      jump\t// in\n    tag_596:\n        /* \"contracts/mirrorseaMain.sol\":10950:10960  msg.sender */\n      caller\n        /* \"contracts/mirrorseaMain.sol\":10926:10961  myOpenOrderIdList_index[msg.sender] */\n      0x00\n      swap1\n      dup2\n      mstore\n        /* \"contracts/mirrorseaMain.sol\":10926:10949  myOpenOrderIdList_index */\n      0x6f\n        /* \"contracts/mirrorseaMain.sol\":10926:10961  myOpenOrderIdList_index[msg.sender] */\n      0x20\n      swap1\n      dup2\n      mstore\n      0x40\n      dup1\n      dup4\n      keccak256\n        /* \"contracts/mirrorseaMain.sol\":10975:10992  myOpenOrderIdList */\n      0x6e\n        /* \"contracts/mirrorseaMain.sol\":10975:11004  myOpenOrderIdList[msg.sender] */\n      swap1\n      swap3\n      mstore\n      swap1\n      swap2\n      keccak256\n        /* \"contracts/mirrorseaMain.sol\":10884:11014  cutListItem(... */\n      tag_598\n      swap2\n        /* \"contracts/mirrorseaMain.sol\":10909:10912  _id */\n      dup15\n      swap2\n        /* \"contracts/mirrorseaMain.sol\":10884:10895  cutListItem */\n      tag_597\n        /* \"contracts/mirrorseaMain.sol\":10884:11014  cutListItem(... */\n      jump\t// in\n    tag_598:\n        /* \"contracts/mirrorseaMain.sol\":11044:11054  msg.sender */\n      caller\n        /* \"contracts/mirrorseaMain.sol\":11025:11055  myCloseOrderIdList[msg.sender] */\n      0x00\n      dup2\n      dup2\n      mstore\n        /* \"contracts/mirrorseaMain.sol\":11025:11043  myCloseOrderIdList */\n      0x70\n        /* \"contracts/mirrorseaMain.sol\":11025:11055  myCloseOrderIdList[msg.sender] */\n      0x20\n      swap1\n      dup2\n      mstore\n      0x40\n      dup3\n      keccak256\n        /* \"contracts/mirrorseaMain.sol\":11025:11065  myCloseOrderIdList[msg.sender].push(_id) */\n      dup1\n      sload\n      0x01\n      dup2\n      dup2\n      add\n      dup4\n      sstore\n      swap2\n      dup5\n      mstore\n      swap2\n      swap1\n      swap3\n      keccak256\n      add\n      dup15\n      swap1\n      sstore\n        /* \"contracts/mirrorseaMain.sol\":11120:11185  myCloseOrderIdListLength(... */\n      tag_600\n      swap2\n        /* \"contracts/mirrorseaMain.sol\":11120:11178  myCloseOrderIdListLength(... */\n      tag_206\n      swap1\n        /* \"contracts/mirrorseaMain.sol\":11120:11144  myCloseOrderIdListLength */\n      tag_151\n        /* \"contracts/mirrorseaMain.sol\":11120:11178  myCloseOrderIdListLength(... */\n      jump\t// in\n        /* \"contracts/mirrorseaMain.sol\":11120:11185  myCloseOrderIdListLength(... */\n    tag_600:\n        /* \"contracts/mirrorseaMain.sol\":11101:11111  msg.sender */\n      caller\n        /* \"contracts/mirrorseaMain.sol\":11076:11112  myCloseOrderIdList_index[msg.sender] */\n      0x00\n      swap1\n      dup2\n      mstore\n        /* \"contracts/mirrorseaMain.sol\":11076:11100  myCloseOrderIdList_index */\n      0x71\n        /* \"contracts/mirrorseaMain.sol\":11076:11112  myCloseOrderIdList_index[msg.sender] */\n      0x20\n      swap1\n      dup2\n      mstore\n      0x40\n      dup1\n      dup4\n      keccak256\n        /* \"contracts/mirrorseaMain.sol\":11076:11117  myCloseOrderIdList_index[msg.sender][_id] */\n      swap16\n      dup4\n      mstore\n      swap15\n      swap1\n      mstore\n      swap13\n      swap1\n      swap13\n      keccak256\n        /* \"contracts/mirrorseaMain.sol\":11076:11185  myCloseOrderIdList_index[msg.sender][_id] = myCloseOrderIdListLength(... */\n      swap12\n      swap1\n      swap12\n      sstore\n      pop\n        /* \"contracts/mirrorseaMain.sol\":11513:11517  true */\n      0x01\n      swap14\n        /* \"contracts/mirrorseaMain.sol\":7813:11524  function _closePosition(... */\n      swap13\n      pop\n      pop\n      pop\n      pop\n      pop\n      pop\n      pop\n      pop\n      pop\n      pop\n      pop\n      pop\n      pop\n      jump\t// out\n        /* \"@openzeppelin/contracts-upgradeable/access/OwnableUpgradeable.sol\":2536:2723  function _transferOwnership(address newOwner) internal virtual {... */\n    tag_343:\n        /* \"@openzeppelin/contracts-upgradeable/access/OwnableUpgradeable.sol\":2628:2634  _owner */\n      0x33\n      dup1\n      sload\n      sub(shl(0xa0, 0x01), 0x01)\n        /* \"@openzeppelin/contracts-upgradeable/access/OwnableUpgradeable.sol\":2644:2661  _owner = newOwner */\n      dup4\n      dup2\n      and\n      not(sub(shl(0xa0, 0x01), 0x01))\n      dup4\n      and\n      dup2\n      or\n      swap1\n      swap4\n      sstore\n        /* \"@openzeppelin/contracts-upgradeable/access/OwnableUpgradeable.sol\":2676:2716  OwnershipTransferred(oldOwner, newOwner) */\n      mload(0x40)\n        /* \"@openzeppelin/contracts-upgradeable/access/OwnableUpgradeable.sol\":2628:2634  _owner */\n      swap2\n      and\n      swap2\n        /* \"@openzeppelin/contracts-upgradeable/access/OwnableUpgradeable.sol\":2644:2661  _owner = newOwner */\n      swap1\n        /* \"@openzeppelin/contracts-upgradeable/access/OwnableUpgradeable.sol\":2628:2634  _owner */\n      dup3\n      swap1\n        /* \"@openzeppelin/contracts-upgradeable/access/OwnableUpgradeable.sol\":2676:2716  OwnershipTransferred(oldOwner, newOwner) */\n      0x8be0079c531659141344cd1fd0a4f28419497f9722a3daafe3b4186f6b6457e0\n      swap1\n        /* \"@openzeppelin/contracts-upgradeable/access/OwnableUpgradeable.sol\":2609:2625  address oldOwner */\n      0x00\n      swap1\n        /* \"@openzeppelin/contracts-upgradeable/access/OwnableUpgradeable.sol\":2676:2716  OwnershipTransferred(oldOwner, newOwner) */\n      log3\n        /* \"@openzeppelin/contracts-upgradeable/access/OwnableUpgradeable.sol\":2536:2723  function _transferOwnership(address newOwner) internal virtual {... */\n      pop\n      pop\n      jump\t// out\n        /* \"@openzeppelin/contracts-upgradeable/utils/math/SafeMathUpgradeable.sol\":2752:2848  function add(uint256 a, uint256 b) internal pure returns (uint256) {... */\n    tag_387:\n        /* \"@openzeppelin/contracts-upgradeable/utils/math/SafeMathUpgradeable.sol\":2810:2817  uint256 */\n      0x00\n        /* \"@openzeppelin/contracts-upgradeable/utils/math/SafeMathUpgradeable.sol\":2836:2841  a + b */\n      tag_242\n        /* \"@openzeppelin/contracts-upgradeable/utils/math/SafeMathUpgradeable.sol\":2840:2841  b */\n      dup3\n        /* \"@openzeppelin/contracts-upgradeable/utils/math/SafeMathUpgradeable.sol\":2836:2837  a */\n      dup5\n        /* \"@openzeppelin/contracts-upgradeable/utils/math/SafeMathUpgradeable.sol\":2836:2841  a + b */\n      tag_254\n      jump\t// in\n        /* \"@openzeppelin/contracts-upgradeable/token/ERC20/utils/SafeERC20Upgradeable.sol\":967:1219  function safeTransferFrom(... */\n    tag_393:\n        /* \"@openzeppelin/contracts-upgradeable/token/ERC20/utils/SafeERC20Upgradeable.sol\":1116:1212  _callOptionalReturn(token, abi.encodeWithSelector(token.transferFrom.selector, from, to, value)) */\n      tag_606\n        /* \"@openzeppelin/contracts-upgradeable/token/ERC20/utils/SafeERC20Upgradeable.sol\":1136:1141  token */\n      dup5\n        /* \"@openzeppelin/contracts-upgradeable/token/ERC20/utils/SafeERC20Upgradeable.sol\":1166:1193  token.transferFrom.selector */\n      shl(0xe0, 0x23b872dd)\n        /* \"@openzeppelin/contracts-upgradeable/token/ERC20/utils/SafeERC20Upgradeable.sol\":1195:1199  from */\n      dup6\n        /* \"@openzeppelin/contracts-upgradeable/token/ERC20/utils/SafeERC20Upgradeable.sol\":1201:1203  to */\n      dup6\n        /* \"@openzeppelin/contracts-upgradeable/token/ERC20/utils/SafeERC20Upgradeable.sol\":1205:1210  value */\n      dup6\n        /* \"@openzeppelin/contracts-upgradeable/token/ERC20/utils/SafeERC20Upgradeable.sol\":1143:1211  abi.encodeWithSelector(token.transferFrom.selector, from, to, value) */\n      add(0x24, mload(0x40))\n      tag_607\n      swap4\n      swap3\n      swap2\n      swap1\n      tag_608\n      jump\t// in\n    tag_607:\n      0x40\n      dup1\n      mload\n      not(0x1f)\n      dup2\n      dup5\n      sub\n      add\n      dup2\n      mstore\n      swap2\n      swap1\n      mstore\n      0x20\n      dup2\n      add\n      dup1\n      mload\n      sub(shl(0xe0, 0x01), 0x01)\n      and\n      not(sub(shl(0xe0, 0x01), 0x01))\n      swap1\n      swap4\n      and\n      swap3\n      swap1\n      swap3\n      or\n      swap1\n      swap2\n      mstore\n        /* \"@openzeppelin/contracts-upgradeable/token/ERC20/utils/SafeERC20Upgradeable.sol\":1116:1135  _callOptionalReturn */\n      tag_609\n        /* \"@openzeppelin/contracts-upgradeable/token/ERC20/utils/SafeERC20Upgradeable.sol\":1116:1212  _callOptionalReturn(token, abi.encodeWithSelector(token.transferFrom.selector, from, to, value)) */\n      jump\t// in\n    tag_606:\n        /* \"@openzeppelin/contracts-upgradeable/token/ERC20/utils/SafeERC20Upgradeable.sol\":967:1219  function safeTransferFrom(... */\n      pop\n      pop\n      pop\n      pop\n      jump\t// out\n        /* \"@openzeppelin/contracts-upgradeable/token/ERC20/utils/SafeERC20Upgradeable.sol\":745:961  function safeTransfer(... */\n    tag_413:\n        /* \"@openzeppelin/contracts-upgradeable/token/ERC20/utils/SafeERC20Upgradeable.sol\":868:954  _callOptionalReturn(token, abi.encodeWithSelector(token.transfer.selector, to, value)) */\n      tag_611\n        /* \"@openzeppelin/contracts-upgradeable/token/ERC20/utils/SafeERC20Upgradeable.sol\":888:893  token */\n      dup4\n        /* \"@openzeppelin/contracts-upgradeable/token/ERC20/utils/SafeERC20Upgradeable.sol\":918:941  token.transfer.selector */\n      shl(0xe0, 0xa9059cbb)\n        /* \"@openzeppelin/contracts-upgradeable/token/ERC20/utils/SafeERC20Upgradeable.sol\":943:945  to */\n      dup5\n        /* \"@openzeppelin/contracts-upgradeable/token/ERC20/utils/SafeERC20Upgradeable.sol\":947:952  value */\n      dup5\n        /* \"@openzeppelin/contracts-upgradeable/token/ERC20/utils/SafeERC20Upgradeable.sol\":895:953  abi.encodeWithSelector(token.transfer.selector, to, value) */\n      add(0x24, mload(0x40))\n      tag_607\n      swap3\n      swap2\n      swap1\n      tag_402\n      jump\t// in\n        /* \"@openzeppelin/contracts-upgradeable/token/ERC20/utils/SafeERC20Upgradeable.sol\":868:954  _callOptionalReturn(token, abi.encodeWithSelector(token.transfer.selector, to, value)) */\n    tag_611:\n        /* \"@openzeppelin/contracts-upgradeable/token/ERC20/utils/SafeERC20Upgradeable.sol\":745:961  function safeTransfer(... */\n      pop\n      pop\n      pop\n      jump\t// out\n        /* \"@openzeppelin/contracts-upgradeable/access/OwnableUpgradeable.sol\":988:1114  function __Ownable_init() internal initializer {... */\n    tag_488:\n        /* \"@openzeppelin/contracts-upgradeable/proxy/utils/Initializable.sol\":539:552  _initializing */\n      sload(0x00)\n      0x0100\n      swap1\n      div\n      0xff\n      and\n      dup1\n        /* \"@openzeppelin/contracts-upgradeable/proxy/utils/Initializable.sol\":539:569  _initializing || !_initialized */\n      tag_614\n      jumpi\n      pop\n        /* \"@openzeppelin/contracts-upgradeable/proxy/utils/Initializable.sol\":557:569  _initialized */\n      and(0xff, sload(0x00))\n        /* \"@openzeppelin/contracts-upgradeable/proxy/utils/Initializable.sol\":556:569  !_initialized */\n      iszero\n        /* \"@openzeppelin/contracts-upgradeable/proxy/utils/Initializable.sol\":539:569  _initializing || !_initialized */\n    tag_614:\n        /* \"@openzeppelin/contracts-upgradeable/proxy/utils/Initializable.sol\":531:620  require(_initializing || !_initialized, \"Initializable: contract is already initialized\") */\n      tag_615\n      jumpi\n      mload(0x40)\n      shl(0xe5, 0x461bcd)\n      dup2\n      mstore\n      0x04\n      add\n      tag_214\n      swap1\n      tag_484\n      jump\t// in\n    tag_615:\n        /* \"@openzeppelin/contracts-upgradeable/proxy/utils/Initializable.sol\":631:650  bool isTopLevelCall */\n      0x00\n        /* \"@openzeppelin/contracts-upgradeable/proxy/utils/Initializable.sol\":654:667  _initializing */\n      sload\n      0x0100\n      swap1\n      div\n      0xff\n      and\n        /* \"@openzeppelin/contracts-upgradeable/proxy/utils/Initializable.sol\":653:667  !_initializing */\n      iszero\n        /* \"@openzeppelin/contracts-upgradeable/proxy/utils/Initializable.sol\":677:775  if (isTopLevelCall) {... */\n      dup1\n      iszero\n      tag_617\n      jumpi\n        /* \"@openzeppelin/contracts-upgradeable/proxy/utils/Initializable.sol\":711:724  _initializing */\n      0x00\n        /* \"@openzeppelin/contracts-upgradeable/proxy/utils/Initializable.sol\":711:731  _initializing = true */\n      dup1\n      sload\n      not(0xff)\n      not(0xff00)\n      swap1\n      swap2\n      and\n      0x0100\n      or\n        /* \"@openzeppelin/contracts-upgradeable/proxy/utils/Initializable.sol\":745:764  _initialized = true */\n      and\n        /* \"@openzeppelin/contracts-upgradeable/proxy/utils/Initializable.sol\":727:731  true */\n      0x01\n        /* \"@openzeppelin/contracts-upgradeable/proxy/utils/Initializable.sol\":745:764  _initialized = true */\n      or\n      swap1\n      sstore\n        /* \"@openzeppelin/contracts-upgradeable/proxy/utils/Initializable.sol\":677:775  if (isTopLevelCall) {... */\n    tag_617:\n        /* \"@openzeppelin/contracts-upgradeable/access/OwnableUpgradeable.sol\":1045:1071  __Context_init_unchained() */\n      tag_619\n        /* \"@openzeppelin/contracts-upgradeable/access/OwnableUpgradeable.sol\":1045:1069  __Context_init_unchained */\n      tag_620\n        /* \"@openzeppelin/contracts-upgradeable/access/OwnableUpgradeable.sol\":1045:1071  __Context_init_unchained() */\n      jump\t// in\n    tag_619:\n        /* \"@openzeppelin/contracts-upgradeable/access/OwnableUpgradeable.sol\":1081:1107  __Ownable_init_unchained() */\n      tag_621\n        /* \"@openzeppelin/contracts-upgradeable/access/OwnableUpgradeable.sol\":1081:1105  __Ownable_init_unchained */\n      tag_622\n        /* \"@openzeppelin/contracts-upgradeable/access/OwnableUpgradeable.sol\":1081:1107  __Ownable_init_unchained() */\n      jump\t// in\n    tag_621:\n        /* \"@openzeppelin/contracts-upgradeable/proxy/utils/Initializable.sol\":801:815  isTopLevelCall */\n      dup1\n        /* \"@openzeppelin/contracts-upgradeable/proxy/utils/Initializable.sol\":797:863  if (isTopLevelCall) {... */\n      iszero\n      tag_479\n      jumpi\n        /* \"@openzeppelin/contracts-upgradeable/proxy/utils/Initializable.sol\":847:852  false */\n      0x00\n        /* \"@openzeppelin/contracts-upgradeable/proxy/utils/Initializable.sol\":831:852  _initializing = false */\n      dup1\n      sload\n      not(0xff00)\n      and\n      swap1\n      sstore\n        /* \"@openzeppelin/contracts-upgradeable/access/OwnableUpgradeable.sol\":988:1114  function __Ownable_init() internal initializer {... */\n      pop\n      jump\t// out\n        /* \"contracts/mirrorseaMain.sol\":12128:12508  function cutListItem(... */\n    tag_597:\n        /* \"contracts/mirrorseaMain.sol\":12285:12301  uint256 delIndex */\n      0x00\n        /* \"contracts/mirrorseaMain.sol\":12304:12320  _List_index[_id] */\n      dup4\n      dup2\n      mstore\n      0x20\n      dup4\n      swap1\n      mstore\n      0x40\n      dup2\n      keccak256\n      sload\n        /* \"contracts/mirrorseaMain.sol\":12353:12365  _List.length */\n      dup3\n      sload\n        /* \"contracts/mirrorseaMain.sol\":12304:12320  _List_index[_id] */\n      swap1\n      swap2\n        /* \"contracts/mirrorseaMain.sol\":12285:12301  uint256 delIndex */\n      swap1\n        /* \"contracts/mirrorseaMain.sol\":12347:12352  _List */\n      dup4\n      swap1\n        /* \"contracts/mirrorseaMain.sol\":12353:12372  _List.length.sub(1) */\n      tag_625\n      swap1\n        /* \"contracts/mirrorseaMain.sol\":12370:12371  1 */\n      0x01\n        /* \"contracts/mirrorseaMain.sol\":12353:12369  _List.length.sub */\n      tag_208\n        /* \"contracts/mirrorseaMain.sol\":12353:12372  _List.length.sub(1) */\n      jump\t// in\n    tag_625:\n        /* \"contracts/mirrorseaMain.sol\":12347:12373  _List[_List.length.sub(1)] */\n      dup2\n      sload\n      dup2\n      lt\n      tag_626\n      jumpi\n      mstore(0x00, shl(0xe0, 0x4e487b71))\n      mstore(0x04, 0x32)\n      revert(0x00, 0x24)\n    tag_626:\n      swap1\n      0x00\n      mstore\n      keccak256(0x00, 0x20)\n      add\n      sload\n        /* \"contracts/mirrorseaMain.sol\":12330:12373  uint256 lastID = _List[_List.length.sub(1)] */\n      swap1\n      pop\n        /* \"contracts/mirrorseaMain.sol\":12405:12413  delIndex */\n      dup2\n        /* \"contracts/mirrorseaMain.sol\":12383:12394  _List_index */\n      dup5\n        /* \"contracts/mirrorseaMain.sol\":12383:12402  _List_index[lastID] */\n      0x00\n        /* \"contracts/mirrorseaMain.sol\":12395:12401  lastID */\n      dup4\n        /* \"contracts/mirrorseaMain.sol\":12383:12402  _List_index[lastID] */\n      dup2\n      mstore\n      0x20\n      add\n      swap1\n      dup2\n      mstore\n      0x20\n      add\n      0x00\n      keccak256\n        /* \"contracts/mirrorseaMain.sol\":12383:12413  _List_index[lastID] = delIndex */\n      dup2\n      swap1\n      sstore\n      pop\n        /* \"contracts/mirrorseaMain.sol\":12441:12447  lastID */\n      dup1\n        /* \"contracts/mirrorseaMain.sol\":12423:12428  _List */\n      dup4\n        /* \"contracts/mirrorseaMain.sol\":12429:12437  delIndex */\n      dup4\n        /* \"contracts/mirrorseaMain.sol\":12423:12438  _List[delIndex] */\n      dup2\n      sload\n      dup2\n      lt\n      tag_628\n      jumpi\n      mstore(0x00, shl(0xe0, 0x4e487b71))\n      mstore(0x04, 0x32)\n      revert(0x00, 0x24)\n    tag_628:\n      0x00\n      swap2\n      dup3\n      mstore\n      0x20\n      dup1\n      dup4\n      keccak256\n      swap1\n      swap2\n      add\n        /* \"contracts/mirrorseaMain.sol\":12423:12447  _List[delIndex] = lastID */\n      swap3\n      swap1\n      swap3\n      sstore\n        /* \"contracts/mirrorseaMain.sol\":12464:12480  _List_index[_id] */\n      dup7\n      dup2\n      mstore\n      swap1\n      dup6\n      swap1\n      mstore\n      0x40\n      dup2\n      keccak256\n        /* \"contracts/mirrorseaMain.sol\":12457:12480  delete _List_index[_id] */\n      sstore\n        /* \"contracts/mirrorseaMain.sol\":12490:12501  _List.pop() */\n      dup3\n      sload\n        /* \"contracts/mirrorseaMain.sol\":12490:12495  _List */\n      dup4\n      swap1\n        /* \"contracts/mirrorseaMain.sol\":12490:12501  _List.pop() */\n      dup1\n      tag_630\n      jumpi\n      mstore(0x00, shl(0xe0, 0x4e487b71))\n      mstore(0x04, 0x31)\n      revert(0x00, 0x24)\n    tag_630:\n      0x01\n      swap1\n      sub\n      dup2\n      dup2\n      swap1\n      0x00\n      mstore\n      keccak256(0x00, 0x20)\n      add\n      0x00\n      swap1\n      sstore\n      swap1\n      sstore\n        /* \"contracts/mirrorseaMain.sol\":12128:12508  function cutListItem(... */\n      pop\n      pop\n      pop\n      pop\n      pop\n      jump\t// out\n        /* \"@openzeppelin/contracts-upgradeable/token/ERC20/utils/SafeERC20Upgradeable.sol\":3306:4023  function _callOptionalReturn(IERC20Upgradeable token, bytes memory data) private {... */\n    tag_609:\n        /* \"@openzeppelin/contracts-upgradeable/token/ERC20/utils/SafeERC20Upgradeable.sol\":3736:3759  bytes memory returndata */\n      0x00\n        /* \"@openzeppelin/contracts-upgradeable/token/ERC20/utils/SafeERC20Upgradeable.sol\":3762:3831  address(token).functionCall(data, \"SafeERC20: low-level call failed\") */\n      tag_633\n        /* \"@openzeppelin/contracts-upgradeable/token/ERC20/utils/SafeERC20Upgradeable.sol\":3790:3794  data */\n      dup3\n        /* \"@openzeppelin/contracts-upgradeable/token/ERC20/utils/SafeERC20Upgradeable.sol\":3762:3831  address(token).functionCall(data, \"SafeERC20: low-level call failed\") */\n      mload(0x40)\n      dup1\n      0x40\n      add\n      0x40\n      mstore\n      dup1\n      0x20\n      dup2\n      mstore\n      0x20\n      add\n      0x5361666545524332303a206c6f772d6c6576656c2063616c6c206661696c6564\n      dup2\n      mstore\n      pop\n        /* \"@openzeppelin/contracts-upgradeable/token/ERC20/utils/SafeERC20Upgradeable.sol\":3770:3775  token */\n      dup6\n      sub(shl(0xa0, 0x01), 0x01)\n        /* \"@openzeppelin/contracts-upgradeable/token/ERC20/utils/SafeERC20Upgradeable.sol\":3762:3789  address(token).functionCall */\n      and\n      tag_634\n      swap1\n        /* \"@openzeppelin/contracts-upgradeable/token/ERC20/utils/SafeERC20Upgradeable.sol\":3762:3831  address(token).functionCall(data, \"SafeERC20: low-level call failed\") */\n      swap3\n      swap2\n      swap1\n      0xffffffff\n      and\n      jump\t// in\n    tag_633:\n        /* \"@openzeppelin/contracts-upgradeable/token/ERC20/utils/SafeERC20Upgradeable.sol\":3845:3862  returndata.length */\n      dup1\n      mload\n        /* \"@openzeppelin/contracts-upgradeable/token/ERC20/utils/SafeERC20Upgradeable.sol\":3736:3831  bytes memory returndata = address(token).functionCall(data, \"SafeERC20: low-level call failed\") */\n      swap1\n      swap2\n      pop\n        /* \"@openzeppelin/contracts-upgradeable/token/ERC20/utils/SafeERC20Upgradeable.sol\":3845:3866  returndata.length > 0 */\n      iszero\n        /* \"@openzeppelin/contracts-upgradeable/token/ERC20/utils/SafeERC20Upgradeable.sol\":3841:4017  if (returndata.length > 0) {... */\n      tag_611\n      jumpi\n        /* \"@openzeppelin/contracts-upgradeable/token/ERC20/utils/SafeERC20Upgradeable.sol\":3940:3950  returndata */\n      dup1\n        /* \"@openzeppelin/contracts-upgradeable/token/ERC20/utils/SafeERC20Upgradeable.sol\":3929:3959  abi.decode(returndata, (bool)) */\n      dup1\n      0x20\n      add\n      swap1\n      mload\n      dup2\n      add\n      swap1\n      tag_636\n      swap2\n      swap1\n      tag_369\n      jump\t// in\n    tag_636:\n        /* \"@openzeppelin/contracts-upgradeable/token/ERC20/utils/SafeERC20Upgradeable.sol\":3921:4006  require(abi.decode(returndata, (bool)), \"SafeERC20: ERC20 operation did not succeed\") */\n      tag_611\n      jumpi\n      mload(0x40)\n      shl(0xe5, 0x461bcd)\n      dup2\n      mstore\n      0x04\n      add\n      tag_214\n      swap1\n      tag_639\n      jump\t// in\n        /* \"@openzeppelin/contracts-upgradeable/utils/ContextUpgradeable.sol\":807:871  function __Context_init_unchained() internal initializer {... */\n    tag_620:\n        /* \"@openzeppelin/contracts-upgradeable/proxy/utils/Initializable.sol\":539:552  _initializing */\n      sload(0x00)\n      0x0100\n      swap1\n      div\n      0xff\n      and\n      dup1\n        /* \"@openzeppelin/contracts-upgradeable/proxy/utils/Initializable.sol\":539:569  _initializing || !_initialized */\n      tag_641\n      jumpi\n      pop\n        /* \"@openzeppelin/contracts-upgradeable/proxy/utils/Initializable.sol\":557:569  _initialized */\n      and(0xff, sload(0x00))\n        /* \"@openzeppelin/contracts-upgradeable/proxy/utils/Initializable.sol\":556:569  !_initialized */\n      iszero\n        /* \"@openzeppelin/contracts-upgradeable/proxy/utils/Initializable.sol\":539:569  _initializing || !_initialized */\n    tag_641:\n        /* \"@openzeppelin/contracts-upgradeable/proxy/utils/Initializable.sol\":531:620  require(_initializing || !_initialized, \"Initializable: contract is already initialized\") */\n      tag_642\n      jumpi\n      mload(0x40)\n      shl(0xe5, 0x461bcd)\n      dup2\n      mstore\n      0x04\n      add\n      tag_214\n      swap1\n      tag_484\n      jump\t// in\n    tag_642:\n        /* \"@openzeppelin/contracts-upgradeable/proxy/utils/Initializable.sol\":631:650  bool isTopLevelCall */\n      0x00\n        /* \"@openzeppelin/contracts-upgradeable/proxy/utils/Initializable.sol\":654:667  _initializing */\n      sload\n      0x0100\n      swap1\n      div\n      0xff\n      and\n        /* \"@openzeppelin/contracts-upgradeable/proxy/utils/Initializable.sol\":653:667  !_initializing */\n      iszero\n        /* \"@openzeppelin/contracts-upgradeable/proxy/utils/Initializable.sol\":677:775  if (isTopLevelCall) {... */\n      dup1\n      iszero\n      tag_621\n      jumpi\n        /* \"@openzeppelin/contracts-upgradeable/proxy/utils/Initializable.sol\":711:724  _initializing */\n      0x00\n        /* \"@openzeppelin/contracts-upgradeable/proxy/utils/Initializable.sol\":711:731  _initializing = true */\n      dup1\n      sload\n      not(0xff)\n      not(0xff00)\n      swap1\n      swap2\n      and\n      0x0100\n      or\n        /* \"@openzeppelin/contracts-upgradeable/proxy/utils/Initializable.sol\":745:764  _initialized = true */\n      and\n        /* \"@openzeppelin/contracts-upgradeable/proxy/utils/Initializable.sol\":727:731  true */\n      0x01\n        /* \"@openzeppelin/contracts-upgradeable/proxy/utils/Initializable.sol\":745:764  _initialized = true */\n      or\n      swap1\n      sstore\n        /* \"@openzeppelin/contracts-upgradeable/proxy/utils/Initializable.sol\":801:815  isTopLevelCall */\n      dup1\n        /* \"@openzeppelin/contracts-upgradeable/proxy/utils/Initializable.sol\":797:863  if (isTopLevelCall) {... */\n      iszero\n      tag_479\n      jumpi\n        /* \"@openzeppelin/contracts-upgradeable/proxy/utils/Initializable.sol\":847:852  false */\n      0x00\n        /* \"@openzeppelin/contracts-upgradeable/proxy/utils/Initializable.sol\":831:852  _initializing = false */\n      dup1\n      sload\n      not(0xff00)\n      and\n      swap1\n      sstore\n        /* \"@openzeppelin/contracts-upgradeable/utils/ContextUpgradeable.sol\":807:871  function __Context_init_unchained() internal initializer {... */\n      pop\n      jump\t// out\n        /* \"@openzeppelin/contracts-upgradeable/access/OwnableUpgradeable.sol\":1120:1226  function __Ownable_init_unchained() internal initializer {... */\n    tag_622:\n        /* \"@openzeppelin/contracts-upgradeable/proxy/utils/Initializable.sol\":539:552  _initializing */\n      sload(0x00)\n      0x0100\n      swap1\n      div\n      0xff\n      and\n      dup1\n        /* \"@openzeppelin/contracts-upgradeable/proxy/utils/Initializable.sol\":539:569  _initializing || !_initialized */\n      tag_648\n      jumpi\n      pop\n        /* \"@openzeppelin/contracts-upgradeable/proxy/utils/Initializable.sol\":557:569  _initialized */\n      and(0xff, sload(0x00))\n        /* \"@openzeppelin/contracts-upgradeable/proxy/utils/Initializable.sol\":556:569  !_initialized */\n      iszero\n        /* \"@openzeppelin/contracts-upgradeable/proxy/utils/Initializable.sol\":539:569  _initializing || !_initialized */\n    tag_648:\n        /* \"@openzeppelin/contracts-upgradeable/proxy/utils/Initializable.sol\":531:620  require(_initializing || !_initialized, \"Initializable: contract is already initialized\") */\n      tag_649\n      jumpi\n      mload(0x40)\n      shl(0xe5, 0x461bcd)\n      dup2\n      mstore\n      0x04\n      add\n      tag_214\n      swap1\n      tag_484\n      jump\t// in\n    tag_649:\n        /* \"@openzeppelin/contracts-upgradeable/proxy/utils/Initializable.sol\":631:650  bool isTopLevelCall */\n      0x00\n        /* \"@openzeppelin/contracts-upgradeable/proxy/utils/Initializable.sol\":654:667  _initializing */\n      sload\n      0x0100\n      swap1\n      div\n      0xff\n      and\n        /* \"@openzeppelin/contracts-upgradeable/proxy/utils/Initializable.sol\":653:667  !_initializing */\n      iszero\n        /* \"@openzeppelin/contracts-upgradeable/proxy/utils/Initializable.sol\":677:775  if (isTopLevelCall) {... */\n      dup1\n      iszero\n      tag_651\n      jumpi\n        /* \"@openzeppelin/contracts-upgradeable/proxy/utils/Initializable.sol\":711:724  _initializing */\n      0x00\n        /* \"@openzeppelin/contracts-upgradeable/proxy/utils/Initializable.sol\":711:731  _initializing = true */\n      dup1\n      sload\n      not(0xff)\n      not(0xff00)\n      swap1\n      swap2\n      and\n      0x0100\n      or\n        /* \"@openzeppelin/contracts-upgradeable/proxy/utils/Initializable.sol\":745:764  _initialized = true */\n      and\n        /* \"@openzeppelin/contracts-upgradeable/proxy/utils/Initializable.sol\":727:731  true */\n      0x01\n        /* \"@openzeppelin/contracts-upgradeable/proxy/utils/Initializable.sol\":745:764  _initialized = true */\n      or\n      swap1\n      sstore\n        /* \"@openzeppelin/contracts-upgradeable/proxy/utils/Initializable.sol\":677:775  if (isTopLevelCall) {... */\n    tag_651:\n        /* \"@openzeppelin/contracts-upgradeable/access/OwnableUpgradeable.sol\":1187:1219  _transferOwnership(_msgSender()) */\n      tag_621\n        /* \"@openzeppelin/contracts-upgradeable/access/OwnableUpgradeable.sol\":1206:1218  _msgSender() */\n      tag_654\n        /* \"@openzeppelin/contracts-upgradeable/access/OwnableUpgradeable.sol\":1206:1216  _msgSender */\n      tag_236\n        /* \"@openzeppelin/contracts-upgradeable/access/OwnableUpgradeable.sol\":1206:1218  _msgSender() */\n      jump\t// in\n    tag_654:\n        /* \"@openzeppelin/contracts-upgradeable/access/OwnableUpgradeable.sol\":1187:1205  _transferOwnership */\n      tag_343\n        /* \"@openzeppelin/contracts-upgradeable/access/OwnableUpgradeable.sol\":1187:1219  _transferOwnership(_msgSender()) */\n      jump\t// in\n        /* \"@openzeppelin/contracts-upgradeable/utils/AddressUpgradeable.sol\":3525:3748  function functionCall(... */\n    tag_634:\n        /* \"@openzeppelin/contracts-upgradeable/utils/AddressUpgradeable.sol\":3658:3670  bytes memory */\n      0x60\n        /* \"@openzeppelin/contracts-upgradeable/utils/AddressUpgradeable.sol\":3689:3741  functionCallWithValue(target, data, 0, errorMessage) */\n      tag_657\n        /* \"@openzeppelin/contracts-upgradeable/utils/AddressUpgradeable.sol\":3711:3717  target */\n      dup5\n        /* \"@openzeppelin/contracts-upgradeable/utils/AddressUpgradeable.sol\":3719:3723  data */\n      dup5\n        /* \"@openzeppelin/contracts-upgradeable/utils/AddressUpgradeable.sol\":3725:3726  0 */\n      0x00\n        /* \"@openzeppelin/contracts-upgradeable/utils/AddressUpgradeable.sol\":3728:3740  errorMessage */\n      dup6\n        /* \"@openzeppelin/contracts-upgradeable/utils/AddressUpgradeable.sol\":3689:3710  functionCallWithValue */\n      tag_658\n        /* \"@openzeppelin/contracts-upgradeable/utils/AddressUpgradeable.sol\":3689:3741  functionCallWithValue(target, data, 0, errorMessage) */\n      jump\t// in\n    tag_657:\n        /* \"@openzeppelin/contracts-upgradeable/utils/AddressUpgradeable.sol\":3682:3741  return functionCallWithValue(target, data, 0, errorMessage) */\n      swap5\n        /* \"@openzeppelin/contracts-upgradeable/utils/AddressUpgradeable.sol\":3525:3748  function functionCall(... */\n      swap4\n      pop\n      pop\n      pop\n      pop\n      jump\t// out\n        /* \"@openzeppelin/contracts-upgradeable/utils/AddressUpgradeable.sol\":4612:5111  function functionCallWithValue(... */\n    tag_658:\n        /* \"@openzeppelin/contracts-upgradeable/utils/AddressUpgradeable.sol\":4777:4789  bytes memory */\n      0x60\n        /* \"@openzeppelin/contracts-upgradeable/utils/AddressUpgradeable.sol\":4834:4839  value */\n      dup3\n        /* \"@openzeppelin/contracts-upgradeable/utils/AddressUpgradeable.sol\":4809:4830  address(this).balance */\n      selfbalance\n        /* \"@openzeppelin/contracts-upgradeable/utils/AddressUpgradeable.sol\":4809:4839  address(this).balance >= value */\n      lt\n      iszero\n        /* \"@openzeppelin/contracts-upgradeable/utils/AddressUpgradeable.sol\":4801:4882  require(address(this).balance >= value, \"Address: insufficient balance for call\") */\n      tag_660\n      jumpi\n      mload(0x40)\n      shl(0xe5, 0x461bcd)\n      dup2\n      mstore\n      0x04\n      add\n      tag_214\n      swap1\n      tag_662\n      jump\t// in\n    tag_660:\n        /* \"@openzeppelin/contracts-upgradeable/utils/AddressUpgradeable.sol\":4900:4918  isContract(target) */\n      tag_663\n        /* \"@openzeppelin/contracts-upgradeable/utils/AddressUpgradeable.sol\":4911:4917  target */\n      dup6\n        /* \"@openzeppelin/contracts-upgradeable/utils/AddressUpgradeable.sol\":4900:4910  isContract */\n      tag_664\n        /* \"@openzeppelin/contracts-upgradeable/utils/AddressUpgradeable.sol\":4900:4918  isContract(target) */\n      jump\t// in\n    tag_663:\n        /* \"@openzeppelin/contracts-upgradeable/utils/AddressUpgradeable.sol\":4892:4952  require(isContract(target), \"Address: call to non-contract\") */\n      tag_665\n      jumpi\n      mload(0x40)\n      shl(0xe5, 0x461bcd)\n      dup2\n      mstore\n      0x04\n      add\n      tag_214\n      swap1\n      tag_667\n      jump\t// in\n    tag_665:\n        /* \"@openzeppelin/contracts-upgradeable/utils/AddressUpgradeable.sol\":4964:4976  bool success */\n      0x00\n        /* \"@openzeppelin/contracts-upgradeable/utils/AddressUpgradeable.sol\":4978:5001  bytes memory returndata */\n      dup1\n        /* \"@openzeppelin/contracts-upgradeable/utils/AddressUpgradeable.sol\":5005:5011  target */\n      dup7\n      sub(shl(0xa0, 0x01), 0x01)\n        /* \"@openzeppelin/contracts-upgradeable/utils/AddressUpgradeable.sol\":5005:5016  target.call */\n      and\n        /* \"@openzeppelin/contracts-upgradeable/utils/AddressUpgradeable.sol\":5024:5029  value */\n      dup6\n        /* \"@openzeppelin/contracts-upgradeable/utils/AddressUpgradeable.sol\":5031:5035  data */\n      dup8\n        /* \"@openzeppelin/contracts-upgradeable/utils/AddressUpgradeable.sol\":5005:5036  target.call{value: value}(data) */\n      mload(0x40)\n      tag_668\n      swap2\n      swap1\n      tag_669\n      jump\t// in\n    tag_668:\n      0x00\n      mload(0x40)\n      dup1\n      dup4\n      sub\n      dup2\n      dup6\n      dup8\n      gas\n      call\n      swap3\n      pop\n      pop\n      pop\n      returndatasize\n      dup1\n      0x00\n      dup2\n      eq\n      tag_672\n      jumpi\n      mload(0x40)\n      swap2\n      pop\n      and(add(returndatasize, 0x3f), not(0x1f))\n      dup3\n      add\n      0x40\n      mstore\n      returndatasize\n      dup3\n      mstore\n      returndatasize\n      0x00\n      0x20\n      dup5\n      add\n      returndatacopy\n      jump(tag_671)\n    tag_672:\n      0x60\n      swap2\n      pop\n    tag_671:\n      pop\n        /* \"@openzeppelin/contracts-upgradeable/utils/AddressUpgradeable.sol\":4963:5036  (bool success, bytes memory returndata) = target.call{value: value}(data) */\n      swap2\n      pop\n      swap2\n      pop\n        /* \"@openzeppelin/contracts-upgradeable/utils/AddressUpgradeable.sol\":5053:5104  verifyCallResult(success, returndata, errorMessage) */\n      tag_673\n        /* \"@openzeppelin/contracts-upgradeable/utils/AddressUpgradeable.sol\":5070:5077  success */\n      dup3\n        /* \"@openzeppelin/contracts-upgradeable/utils/AddressUpgradeable.sol\":5079:5089  returndata */\n      dup3\n        /* \"@openzeppelin/contracts-upgradeable/utils/AddressUpgradeable.sol\":5091:5103  errorMessage */\n      dup7\n        /* \"@openzeppelin/contracts-upgradeable/utils/AddressUpgradeable.sol\":5053:5069  verifyCallResult */\n      tag_674\n        /* \"@openzeppelin/contracts-upgradeable/utils/AddressUpgradeable.sol\":5053:5104  verifyCallResult(success, returndata, errorMessage) */\n      jump\t// in\n    tag_673:\n        /* \"@openzeppelin/contracts-upgradeable/utils/AddressUpgradeable.sol\":5046:5104  return verifyCallResult(success, returndata, errorMessage) */\n      swap8\n        /* \"@openzeppelin/contracts-upgradeable/utils/AddressUpgradeable.sol\":4612:5111  function functionCallWithValue(... */\n      swap7\n      pop\n      pop\n      pop\n      pop\n      pop\n      pop\n      pop\n      jump\t// out\n        /* \"@openzeppelin/contracts-upgradeable/utils/AddressUpgradeable.sol\":782:1159  function isContract(address account) internal view returns (bool) {... */\n    tag_664:\n        /* \"@openzeppelin/contracts-upgradeable/utils/AddressUpgradeable.sol\":1098:1118  extcodesize(account) */\n      extcodesize\n        /* \"@openzeppelin/contracts-upgradeable/utils/AddressUpgradeable.sol\":1144:1152  size > 0 */\n      iszero\n      iszero\n      swap1\n        /* \"@openzeppelin/contracts-upgradeable/utils/AddressUpgradeable.sol\":782:1159  function isContract(address account) internal view returns (bool) {... */\n      jump\t// out\n        /* \"@openzeppelin/contracts-upgradeable/utils/AddressUpgradeable.sol\":6275:6967  function verifyCallResult(... */\n    tag_674:\n        /* \"@openzeppelin/contracts-upgradeable/utils/AddressUpgradeable.sol\":6421:6433  bytes memory */\n      0x60\n        /* \"@openzeppelin/contracts-upgradeable/utils/AddressUpgradeable.sol\":6449:6456  success */\n      dup4\n        /* \"@openzeppelin/contracts-upgradeable/utils/AddressUpgradeable.sol\":6445:6961  if (success) {... */\n      iszero\n      tag_677\n      jumpi\n      pop\n        /* \"@openzeppelin/contracts-upgradeable/utils/AddressUpgradeable.sol\":6479:6489  returndata */\n      dup2\n        /* \"@openzeppelin/contracts-upgradeable/utils/AddressUpgradeable.sol\":6472:6489  return returndata */\n      jump(tag_242)\n        /* \"@openzeppelin/contracts-upgradeable/utils/AddressUpgradeable.sol\":6445:6961  if (success) {... */\n    tag_677:\n        /* \"@openzeppelin/contracts-upgradeable/utils/AddressUpgradeable.sol\":6590:6607  returndata.length */\n      dup3\n      mload\n        /* \"@openzeppelin/contracts-upgradeable/utils/AddressUpgradeable.sol\":6590:6611  returndata.length > 0 */\n      iszero\n        /* \"@openzeppelin/contracts-upgradeable/utils/AddressUpgradeable.sol\":6586:6951  if (returndata.length > 0) {... */\n      tag_679\n      jumpi\n        /* \"@openzeppelin/contracts-upgradeable/utils/AddressUpgradeable.sol\":6784:6794  returndata */\n      dup3\n        /* \"@openzeppelin/contracts-upgradeable/utils/AddressUpgradeable.sol\":6778:6795  mload(returndata) */\n      mload\n        /* \"@openzeppelin/contracts-upgradeable/utils/AddressUpgradeable.sol\":6844:6859  returndata_size */\n      dup1\n        /* \"@openzeppelin/contracts-upgradeable/utils/AddressUpgradeable.sol\":6831:6841  returndata */\n      dup5\n        /* \"@openzeppelin/contracts-upgradeable/utils/AddressUpgradeable.sol\":6827:6829  32 */\n      0x20\n        /* \"@openzeppelin/contracts-upgradeable/utils/AddressUpgradeable.sol\":6823:6842  add(32, returndata) */\n      add\n        /* \"@openzeppelin/contracts-upgradeable/utils/AddressUpgradeable.sol\":6816:6860  revert(add(32, returndata), returndata_size) */\n      revert\n        /* \"@openzeppelin/contracts-upgradeable/utils/AddressUpgradeable.sol\":6733:6878  {... */\n    tag_679:\n        /* \"@openzeppelin/contracts-upgradeable/utils/AddressUpgradeable.sol\":6923:6935  errorMessage */\n      dup2\n        /* \"@openzeppelin/contracts-upgradeable/utils/AddressUpgradeable.sol\":6916:6936  revert(errorMessage) */\n      mload(0x40)\n      shl(0xe5, 0x461bcd)\n      dup2\n      mstore\n      0x04\n      add\n      tag_214\n      swap2\n      swap1\n      tag_682\n      jump\t// in\n    tag_294:\n      mload(0x40)\n      dup1\n      0x0160\n      add\n      0x40\n      mstore\n      dup1\n      and(sub(shl(0xa0, 0x01), 0x01), 0x00)\n      dup2\n      mstore\n      0x20\n      add\n      0x00\n      dup2\n      mstore\n      0x20\n      add\n      0x60\n      dup2\n      mstore\n      0x20\n      add\n      0x00\n      dup2\n      mstore\n      0x20\n      add\n      0x00\n      dup2\n      mstore\n      0x20\n      add\n      0x00\n      dup2\n      mstore\n      0x20\n      add\n      0x00\n      dup2\n      mstore\n      0x20\n      add\n      0x00\n      dup2\n      mstore\n      0x20\n      add\n      0x00\n      dup2\n      mstore\n      0x20\n      add\n      0x00\n      dup2\n      mstore\n      0x20\n      add\n      0x00\n      dup2\n      mstore\n      pop\n      swap1\n      jump\t// out\n    tag_465:\n      dup3\n      dup1\n      sload\n      tag_683\n      swap1\n      tag_297\n      jump\t// in\n    tag_683:\n      swap1\n      0x00\n      mstore\n      keccak256(0x00, 0x20)\n      swap1\n      0x1f\n      add\n      0x20\n      swap1\n      div\n      dup2\n      add\n      swap3\n      dup3\n      tag_685\n      jumpi\n      0x00\n      dup6\n      sstore\n      jump(tag_688)\n    tag_685:\n      dup3\n      0x1f\n      lt\n      tag_686\n      jumpi\n      dup1\n      mload\n      not(0xff)\n      and\n      dup4\n      dup1\n      add\n      or\n      dup6\n      sstore\n      jump(tag_688)\n    tag_686:\n      dup3\n      dup1\n      add\n      0x01\n      add\n      dup6\n      sstore\n      dup3\n      iszero\n      tag_688\n      jumpi\n      swap2\n      dup3\n      add\n    tag_687:\n      dup3\n      dup2\n      gt\n      iszero\n      tag_688\n      jumpi\n      dup3\n      mload\n      dup3\n      sstore\n      swap2\n      0x20\n      add\n      swap2\n      swap1\n      0x01\n      add\n      swap1\n      jump(tag_687)\n    tag_688:\n      pop\n      tag_689\n      swap3\n      swap2\n      pop\n      tag_690\n      jump\t// in\n    tag_689:\n      pop\n      swap1\n      jump\t// out\n    tag_690:\n    tag_691:\n      dup1\n      dup3\n      gt\n      iszero\n      tag_689\n      jumpi\n      0x00\n      dup2\n      sstore\n      0x01\n      add\n      jump(tag_691)\n        /* \"#utility.yul\":14:152   */\n    tag_694:\n        /* \"#utility.yul\":84:104   */\n      dup1\n      calldataload\n        /* \"#utility.yul\":113:146   */\n      tag_295\n        /* \"#utility.yul\":84:104   */\n      dup2\n        /* \"#utility.yul\":113:146   */\n      tag_697\n      jump\t// in\n        /* \"#utility.yul\":157:826   */\n    tag_698:\n      0x00\n        /* \"#utility.yul\":268:271   */\n      dup3\n        /* \"#utility.yul\":261:265   */\n      0x1f\n        /* \"#utility.yul\":253:259   */\n      dup4\n        /* \"#utility.yul\":249:266   */\n      add\n        /* \"#utility.yul\":245:272   */\n      slt\n        /* \"#utility.yul\":235:237   */\n      tag_700\n      jumpi\n        /* \"#utility.yul\":290:295   */\n      dup1\n        /* \"#utility.yul\":283:288   */\n      dup2\n        /* \"#utility.yul\":276:296   */\n      revert\n        /* \"#utility.yul\":235:237   */\n    tag_700:\n        /* \"#utility.yul\":330:336   */\n      dup2\n        /* \"#utility.yul\":317:337   */\n      calldataload\n        /* \"#utility.yul\":356:360   */\n      0x20\n        /* \"#utility.yul\":380:443   */\n      tag_701\n        /* \"#utility.yul\":395:442   */\n      tag_702\n        /* \"#utility.yul\":439:441   */\n      dup4\n        /* \"#utility.yul\":395:442   */\n      tag_703\n      jump\t// in\n    tag_702:\n        /* \"#utility.yul\":380:443   */\n      tag_704\n      jump\t// in\n    tag_701:\n        /* \"#utility.yul\":477:492   */\n      dup3\n      dup2\n      mstore\n        /* \"#utility.yul\":508:520   */\n      dup2\n      dup2\n      add\n      swap1\n        /* \"#utility.yul\":540:555   */\n      dup6\n      dup4\n      add\n        /* \"#utility.yul\":573:578   */\n      dup6\n        /* \"#utility.yul\":587:797   */\n    tag_705:\n        /* \"#utility.yul\":601:603   */\n      dup6\n        /* \"#utility.yul\":598:599   */\n      dup2\n        /* \"#utility.yul\":595:604   */\n      lt\n        /* \"#utility.yul\":587:797   */\n      iszero\n      tag_707\n      jumpi\n        /* \"#utility.yul\":658:722   */\n      tag_708\n        /* \"#utility.yul\":718:721   */\n      dup10\n        /* \"#utility.yul\":713:715   */\n      dup7\n        /* \"#utility.yul\":706:709   */\n      dup5\n        /* \"#utility.yul\":693:710   */\n      calldataload\n        /* \"#utility.yul\":685:691   */\n      dup12\n        /* \"#utility.yul\":681:711   */\n      add\n        /* \"#utility.yul\":677:716   */\n      add\n        /* \"#utility.yul\":658:722   */\n      tag_709\n      jump\t// in\n    tag_708:\n        /* \"#utility.yul\":646:723   */\n      dup5\n      mstore\n        /* \"#utility.yul\":743:755   */\n      swap3\n      dup5\n      add\n      swap3\n        /* \"#utility.yul\":775:787   */\n      swap1\n      dup5\n      add\n      swap1\n        /* \"#utility.yul\":619:620   */\n      0x01\n        /* \"#utility.yul\":612:621   */\n      add\n        /* \"#utility.yul\":587:797   */\n      jump(tag_705)\n    tag_707:\n      pop\n        /* \"#utility.yul\":815:820   */\n      swap1\n      swap8\n        /* \"#utility.yul\":225:826   */\n      swap7\n      pop\n      pop\n      pop\n      pop\n      pop\n      pop\n      pop\n      jump\t// out\n        /* \"#utility.yul\":831:1501   */\n    tag_710:\n      0x00\n        /* \"#utility.yul\":943:946   */\n      dup3\n        /* \"#utility.yul\":936:940   */\n      0x1f\n        /* \"#utility.yul\":928:934   */\n      dup4\n        /* \"#utility.yul\":924:941   */\n      add\n        /* \"#utility.yul\":920:947   */\n      slt\n        /* \"#utility.yul\":910:912   */\n      tag_712\n      jumpi\n        /* \"#utility.yul\":965:970   */\n      dup1\n        /* \"#utility.yul\":958:963   */\n      dup2\n        /* \"#utility.yul\":951:971   */\n      revert\n        /* \"#utility.yul\":910:912   */\n    tag_712:\n        /* \"#utility.yul\":1005:1011   */\n      dup2\n        /* \"#utility.yul\":992:1012   */\n      calldataload\n        /* \"#utility.yul\":1031:1035   */\n      0x20\n        /* \"#utility.yul\":1055:1118   */\n      tag_713\n        /* \"#utility.yul\":1070:1117   */\n      tag_702\n        /* \"#utility.yul\":1114:1116   */\n      dup4\n        /* \"#utility.yul\":1070:1117   */\n      tag_703\n      jump\t// in\n        /* \"#utility.yul\":1055:1118   */\n    tag_713:\n        /* \"#utility.yul\":1152:1167   */\n      dup3\n      dup2\n      mstore\n        /* \"#utility.yul\":1183:1195   */\n      dup2\n      dup2\n      add\n      swap1\n        /* \"#utility.yul\":1215:1230   */\n      dup6\n      dup4\n      add\n        /* \"#utility.yul\":1248:1253   */\n      dup6\n        /* \"#utility.yul\":1262:1472   */\n    tag_715:\n        /* \"#utility.yul\":1276:1278   */\n      dup6\n        /* \"#utility.yul\":1273:1274   */\n      dup2\n        /* \"#utility.yul\":1270:1279   */\n      lt\n        /* \"#utility.yul\":1262:1472   */\n      iszero\n      tag_707\n      jumpi\n        /* \"#utility.yul\":1333:1397   */\n      tag_718\n        /* \"#utility.yul\":1393:1396   */\n      dup10\n        /* \"#utility.yul\":1388:1390   */\n      dup7\n        /* \"#utility.yul\":1381:1384   */\n      dup5\n        /* \"#utility.yul\":1368:1385   */\n      calldataload\n        /* \"#utility.yul\":1360:1366   */\n      dup12\n        /* \"#utility.yul\":1356:1386   */\n      add\n        /* \"#utility.yul\":1352:1391   */\n      add\n        /* \"#utility.yul\":1333:1397   */\n      tag_709\n      jump\t// in\n    tag_718:\n        /* \"#utility.yul\":1321:1398   */\n      dup5\n      mstore\n        /* \"#utility.yul\":1418:1430   */\n      swap3\n      dup5\n      add\n      swap3\n        /* \"#utility.yul\":1450:1462   */\n      swap1\n      dup5\n      add\n      swap1\n        /* \"#utility.yul\":1294:1295   */\n      0x01\n        /* \"#utility.yul\":1287:1296   */\n      add\n        /* \"#utility.yul\":1262:1472   */\n      jump(tag_715)\n        /* \"#utility.yul\":1506:2209   */\n    tag_719:\n      0x00\n        /* \"#utility.yul\":1619:1622   */\n      dup3\n        /* \"#utility.yul\":1612:1616   */\n      0x1f\n        /* \"#utility.yul\":1604:1610   */\n      dup4\n        /* \"#utility.yul\":1600:1617   */\n      add\n        /* \"#utility.yul\":1596:1623   */\n      slt\n        /* \"#utility.yul\":1586:1588   */\n      tag_721\n      jumpi\n        /* \"#utility.yul\":1641:1646   */\n      dup1\n        /* \"#utility.yul\":1634:1639   */\n      dup2\n        /* \"#utility.yul\":1627:1647   */\n      revert\n        /* \"#utility.yul\":1586:1588   */\n    tag_721:\n        /* \"#utility.yul\":1681:1687   */\n      dup2\n        /* \"#utility.yul\":1668:1688   */\n      calldataload\n        /* \"#utility.yul\":1707:1711   */\n      0x20\n        /* \"#utility.yul\":1731:1794   */\n      tag_722\n        /* \"#utility.yul\":1746:1793   */\n      tag_702\n        /* \"#utility.yul\":1790:1792   */\n      dup4\n        /* \"#utility.yul\":1746:1793   */\n      tag_703\n      jump\t// in\n        /* \"#utility.yul\":1731:1794   */\n    tag_722:\n        /* \"#utility.yul\":1828:1843   */\n      dup3\n      dup2\n      mstore\n        /* \"#utility.yul\":1859:1871   */\n      dup2\n      dup2\n      add\n      swap1\n        /* \"#utility.yul\":1891:1906   */\n      dup6\n      dup4\n      add\n        /* \"#utility.yul\":1937:1948   */\n      dup4\n      dup6\n      mul\n        /* \"#utility.yul\":1925:1949   */\n      dup8\n      add\n        /* \"#utility.yul\":1921:1954   */\n      dup5\n      add\n        /* \"#utility.yul\":1918:1960   */\n      dup9\n      lt\n        /* \"#utility.yul\":1915:1917   */\n      iszero\n      tag_724\n      jumpi\n        /* \"#utility.yul\":1977:1982   */\n      dup6\n        /* \"#utility.yul\":1970:1975   */\n      dup7\n        /* \"#utility.yul\":1963:1983   */\n      revert\n        /* \"#utility.yul\":1915:1917   */\n    tag_724:\n        /* \"#utility.yul\":2003:2008   */\n      dup6\n        /* \"#utility.yul\":2017:2180   */\n    tag_725:\n        /* \"#utility.yul\":2031:2033   */\n      dup6\n        /* \"#utility.yul\":2028:2029   */\n      dup2\n        /* \"#utility.yul\":2025:2034   */\n      lt\n        /* \"#utility.yul\":2017:2180   */\n      iszero\n      tag_707\n      jumpi\n        /* \"#utility.yul\":2088:2105   */\n      dup2\n      calldataload\n        /* \"#utility.yul\":2076:2106   */\n      dup5\n      mstore\n        /* \"#utility.yul\":2126:2138   */\n      swap3\n      dup5\n      add\n      swap3\n        /* \"#utility.yul\":2158:2170   */\n      swap1\n      dup5\n      add\n      swap1\n        /* \"#utility.yul\":2049:2050   */\n      0x01\n        /* \"#utility.yul\":2042:2051   */\n      add\n        /* \"#utility.yul\":2017:2180   */\n      jump(tag_725)\n        /* \"#utility.yul\":2214:2346   */\n    tag_728:\n        /* \"#utility.yul\":2281:2301   */\n      dup1\n      calldataload\n        /* \"#utility.yul\":2310:2340   */\n      tag_295\n        /* \"#utility.yul\":2281:2301   */\n      dup2\n        /* \"#utility.yul\":2310:2340   */\n      tag_731\n      jump\t// in\n        /* \"#utility.yul\":2351:2902   */\n    tag_709:\n      0x00\n        /* \"#utility.yul\":2448:2451   */\n      dup3\n        /* \"#utility.yul\":2441:2445   */\n      0x1f\n        /* \"#utility.yul\":2433:2439   */\n      dup4\n        /* \"#utility.yul\":2429:2446   */\n      add\n        /* \"#utility.yul\":2425:2452   */\n      slt\n        /* \"#utility.yul\":2415:2417   */\n      tag_733\n      jumpi\n        /* \"#utility.yul\":2470:2475   */\n      dup1\n        /* \"#utility.yul\":2463:2468   */\n      dup2\n        /* \"#utility.yul\":2456:2476   */\n      revert\n        /* \"#utility.yul\":2415:2417   */\n    tag_733:\n        /* \"#utility.yul\":2510:2516   */\n      dup2\n        /* \"#utility.yul\":2497:2517   */\n      calldataload\n        /* \"#utility.yul\":2536:2554   */\n      0xffffffffffffffff\n        /* \"#utility.yul\":2532:2534   */\n      dup2\n        /* \"#utility.yul\":2529:2555   */\n      gt\n        /* \"#utility.yul\":2526:2528   */\n      iszero\n      tag_735\n      jumpi\n        /* \"#utility.yul\":2558:2576   */\n      tag_735\n      tag_736\n      jump\t// in\n    tag_735:\n        /* \"#utility.yul\":2602:2656   */\n      tag_737\n        /* \"#utility.yul\":2644:2646   */\n      0x1f\n        /* \"#utility.yul\":2625:2638   */\n      dup3\n      add\n      not(0x1f)\n        /* \"#utility.yul\":2621:2648   */\n      and\n        /* \"#utility.yul\":2650:2654   */\n      0x20\n        /* \"#utility.yul\":2617:2655   */\n      add\n        /* \"#utility.yul\":2602:2656   */\n      tag_704\n      jump\t// in\n    tag_737:\n        /* \"#utility.yul\":2681:2683   */\n      dup2\n        /* \"#utility.yul\":2672:2679   */\n      dup2\n        /* \"#utility.yul\":2665:2684   */\n      mstore\n        /* \"#utility.yul\":2727:2730   */\n      dup5\n        /* \"#utility.yul\":2720:2724   */\n      0x20\n        /* \"#utility.yul\":2715:2717   */\n      dup4\n        /* \"#utility.yul\":2707:2713   */\n      dup7\n        /* \"#utility.yul\":2703:2718   */\n      add\n        /* \"#utility.yul\":2699:2725   */\n      add\n        /* \"#utility.yul\":2696:2731   */\n      gt\n        /* \"#utility.yul\":2693:2695   */\n      iszero\n      tag_738\n      jumpi\n        /* \"#utility.yul\":2748:2753   */\n      dup3\n        /* \"#utility.yul\":2741:2746   */\n      dup4\n        /* \"#utility.yul\":2734:2754   */\n      revert\n        /* \"#utility.yul\":2693:2695   */\n    tag_738:\n        /* \"#utility.yul\":2817:2819   */\n      dup2\n        /* \"#utility.yul\":2810:2814   */\n      0x20\n        /* \"#utility.yul\":2802:2808   */\n      dup6\n        /* \"#utility.yul\":2798:2815   */\n      add\n        /* \"#utility.yul\":2791:2795   */\n      0x20\n        /* \"#utility.yul\":2782:2789   */\n      dup4\n        /* \"#utility.yul\":2778:2796   */\n      add\n        /* \"#utility.yul\":2765:2820   */\n      calldatacopy\n        /* \"#utility.yul\":2840:2856   */\n      swap1\n      dup2\n      add\n        /* \"#utility.yul\":2858:2862   */\n      0x20\n        /* \"#utility.yul\":2836:2863   */\n      add\n        /* \"#utility.yul\":2829:2871   */\n      swap2\n      swap1\n      swap2\n      mstore\n        /* \"#utility.yul\":2844:2851   */\n      swap3\n        /* \"#utility.yul\":2405:2902   */\n      swap2\n      pop\n      pop\n      jump\t// out\n        /* \"#utility.yul\":2907:3166   */\n    tag_89:\n      0x00\n        /* \"#utility.yul\":3019:3021   */\n      0x20\n        /* \"#utility.yul\":3007:3016   */\n      dup3\n        /* \"#utility.yul\":2998:3005   */\n      dup5\n        /* \"#utility.yul\":2994:3017   */\n      sub\n        /* \"#utility.yul\":2990:3022   */\n      slt\n        /* \"#utility.yul\":2987:2989   */\n      iszero\n      tag_740\n      jumpi\n        /* \"#utility.yul\":3040:3046   */\n      dup1\n        /* \"#utility.yul\":3032:3038   */\n      dup2\n        /* \"#utility.yul\":3025:3047   */\n      revert\n        /* \"#utility.yul\":2987:2989   */\n    tag_740:\n        /* \"#utility.yul\":3084:3093   */\n      dup2\n        /* \"#utility.yul\":3071:3094   */\n      calldataload\n        /* \"#utility.yul\":3103:3136   */\n      tag_242\n        /* \"#utility.yul\":3130:3135   */\n      dup2\n        /* \"#utility.yul\":3103:3136   */\n      tag_697\n      jump\t// in\n        /* \"#utility.yul\":3171:3567   */\n    tag_59:\n      0x00\n      dup1\n        /* \"#utility.yul\":3297:3299   */\n      0x40\n        /* \"#utility.yul\":3285:3294   */\n      dup4\n        /* \"#utility.yul\":3276:3283   */\n      dup6\n        /* \"#utility.yul\":3272:3295   */\n      sub\n        /* \"#utility.yul\":3268:3300   */\n      slt\n        /* \"#utility.yul\":3265:3267   */\n      iszero\n      tag_743\n      jumpi\n        /* \"#utility.yul\":3318:3324   */\n      dup1\n        /* \"#utility.yul\":3310:3316   */\n      dup2\n        /* \"#utility.yul\":3303:3325   */\n      revert\n        /* \"#utility.yul\":3265:3267   */\n    tag_743:\n        /* \"#utility.yul\":3362:3371   */\n      dup3\n        /* \"#utility.yul\":3349:3372   */\n      calldataload\n        /* \"#utility.yul\":3381:3414   */\n      tag_744\n        /* \"#utility.yul\":3408:3413   */\n      dup2\n        /* \"#utility.yul\":3381:3414   */\n      tag_697\n      jump\t// in\n    tag_744:\n        /* \"#utility.yul\":3433:3438   */\n      swap2\n      pop\n        /* \"#utility.yul\":3490:3492   */\n      0x20\n        /* \"#utility.yul\":3475:3493   */\n      dup4\n      add\n        /* \"#utility.yul\":3462:3494   */\n      calldataload\n        /* \"#utility.yul\":3503:3535   */\n      tag_745\n        /* \"#utility.yul\":3462:3494   */\n      dup2\n        /* \"#utility.yul\":3503:3535   */\n      tag_731\n      jump\t// in\n    tag_745:\n        /* \"#utility.yul\":3554:3561   */\n      dup1\n        /* \"#utility.yul\":3544:3561   */\n      swap2\n      pop\n      pop\n        /* \"#utility.yul\":3255:3567   */\n      swap3\n      pop\n      swap3\n      swap1\n      pop\n      jump\t// out\n        /* \"#utility.yul\":3572:4323   */\n    tag_185:\n      0x00\n      dup1\n      0x00\n      dup1\n        /* \"#utility.yul\":3797:3800   */\n      0x80\n        /* \"#utility.yul\":3785:3794   */\n      dup6\n        /* \"#utility.yul\":3776:3783   */\n      dup8\n        /* \"#utility.yul\":3772:3795   */\n      sub\n        /* \"#utility.yul\":3768:3801   */\n      slt\n        /* \"#utility.yul\":3765:3767   */\n      iszero\n      tag_747\n      jumpi\n        /* \"#utility.yul\":3819:3825   */\n      dup2\n        /* \"#utility.yul\":3811:3817   */\n      dup3\n        /* \"#utility.yul\":3804:3826   */\n      revert\n        /* \"#utility.yul\":3765:3767   */\n    tag_747:\n        /* \"#utility.yul\":3863:3872   */\n      dup5\n        /* \"#utility.yul\":3850:3873   */\n      calldataload\n        /* \"#utility.yul\":3882:3915   */\n      tag_748\n        /* \"#utility.yul\":3909:3914   */\n      dup2\n        /* \"#utility.yul\":3882:3915   */\n      tag_697\n      jump\t// in\n    tag_748:\n        /* \"#utility.yul\":3934:3939   */\n      swap4\n      pop\n        /* \"#utility.yul\":3991:3993   */\n      0x20\n        /* \"#utility.yul\":3976:3994   */\n      dup6\n      add\n        /* \"#utility.yul\":3963:3995   */\n      calldataload\n        /* \"#utility.yul\":4004:4039   */\n      tag_749\n        /* \"#utility.yul\":3963:3995   */\n      dup2\n        /* \"#utility.yul\":4004:4039   */\n      tag_697\n      jump\t// in\n    tag_749:\n        /* \"#utility.yul\":4058:4065   */\n      swap3\n      pop\n        /* \"#utility.yul\":4117:4119   */\n      0x40\n        /* \"#utility.yul\":4102:4120   */\n      dup6\n      add\n        /* \"#utility.yul\":4089:4121   */\n      calldataload\n        /* \"#utility.yul\":4130:4165   */\n      tag_750\n        /* \"#utility.yul\":4089:4121   */\n      dup2\n        /* \"#utility.yul\":4130:4165   */\n      tag_697\n      jump\t// in\n    tag_750:\n        /* \"#utility.yul\":4184:4191   */\n      swap2\n      pop\n        /* \"#utility.yul\":4243:4245   */\n      0x60\n        /* \"#utility.yul\":4228:4246   */\n      dup6\n      add\n        /* \"#utility.yul\":4215:4247   */\n      calldataload\n        /* \"#utility.yul\":4256:4291   */\n      tag_751\n        /* \"#utility.yul\":4215:4247   */\n      dup2\n        /* \"#utility.yul\":4256:4291   */\n      tag_697\n      jump\t// in\n    tag_751:\n        /* \"#utility.yul\":3755:4323   */\n      swap4\n      swap7\n      swap3\n      swap6\n      pop\n      swap1\n      swap4\n      pop\n      pop\n      jump\t// out\n        /* \"#utility.yul\":4328:4655   */\n    tag_120:\n      0x00\n      dup1\n        /* \"#utility.yul\":4457:4459   */\n      0x40\n        /* \"#utility.yul\":4445:4454   */\n      dup4\n        /* \"#utility.yul\":4436:4443   */\n      dup6\n        /* \"#utility.yul\":4432:4455   */\n      sub\n        /* \"#utility.yul\":4428:4460   */\n      slt\n        /* \"#utility.yul\":4425:4427   */\n      iszero\n      tag_753\n      jumpi\n        /* \"#utility.yul\":4478:4484   */\n      dup2\n        /* \"#utility.yul\":4470:4476   */\n      dup3\n        /* \"#utility.yul\":4463:4485   */\n      revert\n        /* \"#utility.yul\":4425:4427   */\n    tag_753:\n        /* \"#utility.yul\":4522:4531   */\n      dup3\n        /* \"#utility.yul\":4509:4532   */\n      calldataload\n        /* \"#utility.yul\":4541:4574   */\n      tag_754\n        /* \"#utility.yul\":4568:4573   */\n      dup2\n        /* \"#utility.yul\":4541:4574   */\n      tag_697\n      jump\t// in\n    tag_754:\n        /* \"#utility.yul\":4593:4598   */\n      swap5\n        /* \"#utility.yul\":4645:4647   */\n      0x20\n        /* \"#utility.yul\":4630:4648   */\n      swap4\n      swap1\n      swap4\n      add\n        /* \"#utility.yul\":4617:4649   */\n      calldataload\n      swap4\n      pop\n      pop\n      pop\n        /* \"#utility.yul\":4415:4655   */\n      jump\t// out\n        /* \"#utility.yul\":4660:5124   */\n    tag_47:\n      0x00\n      dup1\n      0x00\n      dup1\n        /* \"#utility.yul\":4823:4826   */\n      0x80\n        /* \"#utility.yul\":4811:4820   */\n      dup6\n        /* \"#utility.yul\":4802:4809   */\n      dup8\n        /* \"#utility.yul\":4798:4821   */\n      sub\n        /* \"#utility.yul\":4794:4827   */\n      slt\n        /* \"#utility.yul\":4791:4793   */\n      iszero\n      tag_756\n      jumpi\n        /* \"#utility.yul\":4845:4851   */\n      dup4\n        /* \"#utility.yul\":4837:4843   */\n      dup5\n        /* \"#utility.yul\":4830:4852   */\n      revert\n        /* \"#utility.yul\":4791:4793   */\n    tag_756:\n        /* \"#utility.yul\":4889:4898   */\n      dup5\n        /* \"#utility.yul\":4876:4899   */\n      calldataload\n        /* \"#utility.yul\":4908:4941   */\n      tag_757\n        /* \"#utility.yul\":4935:4940   */\n      dup2\n        /* \"#utility.yul\":4908:4941   */\n      tag_697\n      jump\t// in\n    tag_757:\n        /* \"#utility.yul\":4960:4965   */\n      swap7\n        /* \"#utility.yul\":5012:5014   */\n      0x20\n        /* \"#utility.yul\":4997:5015   */\n      dup7\n      add\n        /* \"#utility.yul\":4984:5016   */\n      calldataload\n      swap7\n      pop\n        /* \"#utility.yul\":5063:5065   */\n      0x40\n        /* \"#utility.yul\":5048:5066   */\n      dup7\n      add\n        /* \"#utility.yul\":5035:5067   */\n      calldataload\n      swap6\n        /* \"#utility.yul\":5114:5116   */\n      0x60\n        /* \"#utility.yul\":5099:5117   */\n      add\n        /* \"#utility.yul\":5086:5118   */\n      calldataload\n      swap5\n      pop\n        /* \"#utility.yul\":4781:5124   */\n      swap3\n      pop\n      pop\n      pop\n      jump\t// out\n        /* \"#utility.yul\":5129:5386   */\n    tag_369:\n      0x00\n        /* \"#utility.yul\":5249:5251   */\n      0x20\n        /* \"#utility.yul\":5237:5246   */\n      dup3\n        /* \"#utility.yul\":5228:5235   */\n      dup5\n        /* \"#utility.yul\":5224:5247   */\n      sub\n        /* \"#utility.yul\":5220:5252   */\n      slt\n        /* \"#utility.yul\":5217:5219   */\n      iszero\n      tag_759\n      jumpi\n        /* \"#utility.yul\":5270:5276   */\n      dup1\n        /* \"#utility.yul\":5262:5268   */\n      dup2\n        /* \"#utility.yul\":5255:5277   */\n      revert\n        /* \"#utility.yul\":5217:5219   */\n    tag_759:\n        /* \"#utility.yul\":5307:5316   */\n      dup2\n        /* \"#utility.yul\":5301:5317   */\n      mload\n        /* \"#utility.yul\":5326:5356   */\n      tag_242\n        /* \"#utility.yul\":5350:5355   */\n      dup2\n        /* \"#utility.yul\":5326:5356   */\n      tag_731\n      jump\t// in\n        /* \"#utility.yul\":5391:6843   */\n    tag_94:\n      0x00\n      dup1\n      0x00\n      dup1\n      0x00\n      dup1\n        /* \"#utility.yul\":5729:5732   */\n      0xc0\n        /* \"#utility.yul\":5717:5726   */\n      dup8\n        /* \"#utility.yul\":5708:5715   */\n      dup10\n        /* \"#utility.yul\":5704:5727   */\n      sub\n        /* \"#utility.yul\":5700:5733   */\n      slt\n        /* \"#utility.yul\":5697:5699   */\n      iszero\n      tag_762\n      jumpi\n        /* \"#utility.yul\":5751:5757   */\n      dup4\n        /* \"#utility.yul\":5743:5749   */\n      dup5\n        /* \"#utility.yul\":5736:5758   */\n      revert\n        /* \"#utility.yul\":5697:5699   */\n    tag_762:\n        /* \"#utility.yul\":5779:5807   */\n      tag_763\n        /* \"#utility.yul\":5797:5806   */\n      dup8\n        /* \"#utility.yul\":5779:5807   */\n      tag_728\n      jump\t// in\n    tag_763:\n        /* \"#utility.yul\":5769:5807   */\n      swap6\n      pop\n        /* \"#utility.yul\":5858:5860   */\n      0x20\n        /* \"#utility.yul\":5847:5856   */\n      dup8\n        /* \"#utility.yul\":5843:5861   */\n      add\n        /* \"#utility.yul\":5830:5862   */\n      calldataload\n        /* \"#utility.yul\":5881:5899   */\n      0xffffffffffffffff\n        /* \"#utility.yul\":5922:5924   */\n      dup1\n        /* \"#utility.yul\":5914:5920   */\n      dup3\n        /* \"#utility.yul\":5911:5925   */\n      gt\n        /* \"#utility.yul\":5908:5910   */\n      iszero\n      tag_764\n      jumpi\n        /* \"#utility.yul\":5943:5949   */\n      dup6\n        /* \"#utility.yul\":5935:5941   */\n      dup7\n        /* \"#utility.yul\":5928:5950   */\n      revert\n        /* \"#utility.yul\":5908:5910   */\n    tag_764:\n        /* \"#utility.yul\":5971:6038   */\n      tag_765\n        /* \"#utility.yul\":6030:6037   */\n      dup11\n        /* \"#utility.yul\":6021:6027   */\n      dup4\n        /* \"#utility.yul\":6010:6019   */\n      dup12\n        /* \"#utility.yul\":6006:6028   */\n      add\n        /* \"#utility.yul\":5971:6038   */\n      tag_719\n      jump\t// in\n    tag_765:\n        /* \"#utility.yul\":5961:6038   */\n      swap7\n      pop\n        /* \"#utility.yul\":6091:6093   */\n      0x40\n        /* \"#utility.yul\":6080:6089   */\n      dup10\n        /* \"#utility.yul\":6076:6094   */\n      add\n        /* \"#utility.yul\":6063:6095   */\n      calldataload\n        /* \"#utility.yul\":6047:6095   */\n      swap2\n      pop\n        /* \"#utility.yul\":6120:6122   */\n      dup1\n        /* \"#utility.yul\":6110:6118   */\n      dup3\n        /* \"#utility.yul\":6107:6123   */\n      gt\n        /* \"#utility.yul\":6104:6106   */\n      iszero\n      tag_766\n      jumpi\n        /* \"#utility.yul\":6141:6147   */\n      dup6\n        /* \"#utility.yul\":6133:6139   */\n      dup7\n        /* \"#utility.yul\":6126:6148   */\n      revert\n        /* \"#utility.yul\":6104:6106   */\n    tag_766:\n        /* \"#utility.yul\":6169:6238   */\n      tag_767\n        /* \"#utility.yul\":6230:6237   */\n      dup11\n        /* \"#utility.yul\":6219:6227   */\n      dup4\n        /* \"#utility.yul\":6208:6217   */\n      dup12\n        /* \"#utility.yul\":6204:6228   */\n      add\n        /* \"#utility.yul\":6169:6238   */\n      tag_719\n      jump\t// in\n    tag_767:\n        /* \"#utility.yul\":6159:6238   */\n      swap6\n      pop\n        /* \"#utility.yul\":6291:6293   */\n      0x60\n        /* \"#utility.yul\":6280:6289   */\n      dup10\n        /* \"#utility.yul\":6276:6294   */\n      add\n        /* \"#utility.yul\":6263:6295   */\n      calldataload\n        /* \"#utility.yul\":6247:6295   */\n      swap2\n      pop\n        /* \"#utility.yul\":6320:6322   */\n      dup1\n        /* \"#utility.yul\":6310:6318   */\n      dup3\n        /* \"#utility.yul\":6307:6323   */\n      gt\n        /* \"#utility.yul\":6304:6306   */\n      iszero\n      tag_768\n      jumpi\n        /* \"#utility.yul\":6341:6347   */\n      dup4\n        /* \"#utility.yul\":6333:6339   */\n      dup5\n        /* \"#utility.yul\":6326:6348   */\n      revert\n        /* \"#utility.yul\":6304:6306   */\n    tag_768:\n        /* \"#utility.yul\":6369:6437   */\n      tag_769\n        /* \"#utility.yul\":6429:6436   */\n      dup11\n        /* \"#utility.yul\":6418:6426   */\n      dup4\n        /* \"#utility.yul\":6407:6416   */\n      dup12\n        /* \"#utility.yul\":6403:6427   */\n      add\n        /* \"#utility.yul\":6369:6437   */\n      tag_710\n      jump\t// in\n    tag_769:\n        /* \"#utility.yul\":6359:6437   */\n      swap5\n      pop\n        /* \"#utility.yul\":6490:6493   */\n      0x80\n        /* \"#utility.yul\":6479:6488   */\n      dup10\n        /* \"#utility.yul\":6475:6494   */\n      add\n        /* \"#utility.yul\":6462:6495   */\n      calldataload\n        /* \"#utility.yul\":6446:6495   */\n      swap2\n      pop\n        /* \"#utility.yul\":6520:6522   */\n      dup1\n        /* \"#utility.yul\":6510:6518   */\n      dup3\n        /* \"#utility.yul\":6507:6523   */\n      gt\n        /* \"#utility.yul\":6504:6506   */\n      iszero\n      tag_770\n      jumpi\n        /* \"#utility.yul\":6541:6547   */\n      dup4\n        /* \"#utility.yul\":6533:6539   */\n      dup5\n        /* \"#utility.yul\":6526:6548   */\n      revert\n        /* \"#utility.yul\":6504:6506   */\n    tag_770:\n        /* \"#utility.yul\":6569:6638   */\n      tag_771\n        /* \"#utility.yul\":6630:6637   */\n      dup11\n        /* \"#utility.yul\":6619:6627   */\n      dup4\n        /* \"#utility.yul\":6608:6617   */\n      dup12\n        /* \"#utility.yul\":6604:6628   */\n      add\n        /* \"#utility.yul\":6569:6638   */\n      tag_719\n      jump\t// in\n    tag_771:\n        /* \"#utility.yul\":6559:6638   */\n      swap4\n      pop\n        /* \"#utility.yul\":6691:6694   */\n      0xa0\n        /* \"#utility.yul\":6680:6689   */\n      dup10\n        /* \"#utility.yul\":6676:6695   */\n      add\n        /* \"#utility.yul\":6663:6696   */\n      calldataload\n        /* \"#utility.yul\":6647:6696   */\n      swap2\n      pop\n        /* \"#utility.yul\":6721:6723   */\n      dup1\n        /* \"#utility.yul\":6711:6719   */\n      dup3\n        /* \"#utility.yul\":6708:6724   */\n      gt\n        /* \"#utility.yul\":6705:6707   */\n      iszero\n      tag_772\n      jumpi\n        /* \"#utility.yul\":6742:6748   */\n      dup3\n        /* \"#utility.yul\":6734:6740   */\n      dup4\n        /* \"#utility.yul\":6727:6749   */\n      revert\n        /* \"#utility.yul\":6705:6707   */\n    tag_772:\n      pop\n        /* \"#utility.yul\":6770:6837   */\n      tag_773\n        /* \"#utility.yul\":6829:6836   */\n      dup10\n        /* \"#utility.yul\":6818:6826   */\n      dup3\n        /* \"#utility.yul\":6807:6816   */\n      dup11\n        /* \"#utility.yul\":6803:6827   */\n      add\n        /* \"#utility.yul\":6770:6837   */\n      tag_698\n      jump\t// in\n    tag_773:\n        /* \"#utility.yul\":6760:6837   */\n      swap2\n      pop\n      pop\n        /* \"#utility.yul\":5687:6843   */\n      swap3\n      swap6\n      pop\n      swap3\n      swap6\n      pop\n      swap3\n      swap6\n      jump\t// out\n        /* \"#utility.yul\":6848:7760   */\n    tag_108:\n      0x00\n      dup1\n      0x00\n      dup1\n      0x00\n      dup1\n        /* \"#utility.yul\":7061:7064   */\n      0xc0\n        /* \"#utility.yul\":7049:7058   */\n      dup8\n        /* \"#utility.yul\":7040:7047   */\n      dup10\n        /* \"#utility.yul\":7036:7059   */\n      sub\n        /* \"#utility.yul\":7032:7065   */\n      slt\n        /* \"#utility.yul\":7029:7031   */\n      iszero\n      tag_775\n      jumpi\n        /* \"#utility.yul\":7083:7089   */\n      dup4\n        /* \"#utility.yul\":7075:7081   */\n      dup5\n        /* \"#utility.yul\":7068:7090   */\n      revert\n        /* \"#utility.yul\":7029:7031   */\n    tag_775:\n        /* \"#utility.yul\":7127:7136   */\n      dup7\n        /* \"#utility.yul\":7114:7137   */\n      calldataload\n        /* \"#utility.yul\":7146:7176   */\n      tag_776\n        /* \"#utility.yul\":7170:7175   */\n      dup2\n        /* \"#utility.yul\":7146:7176   */\n      tag_731\n      jump\t// in\n    tag_776:\n        /* \"#utility.yul\":7195:7200   */\n      swap6\n      pop\n        /* \"#utility.yul\":7247:7249   */\n      0x20\n        /* \"#utility.yul\":7232:7250   */\n      dup8\n      add\n        /* \"#utility.yul\":7219:7251   */\n      calldataload\n      swap5\n      pop\n        /* \"#utility.yul\":7298:7300   */\n      0x40\n        /* \"#utility.yul\":7283:7301   */\n      dup8\n      add\n        /* \"#utility.yul\":7270:7302   */\n      calldataload\n      swap4\n      pop\n        /* \"#utility.yul\":7353:7355   */\n      0x60\n        /* \"#utility.yul\":7338:7356   */\n      dup8\n      add\n        /* \"#utility.yul\":7325:7357   */\n      calldataload\n        /* \"#utility.yul\":7376:7394   */\n      0xffffffffffffffff\n        /* \"#utility.yul\":7406:7420   */\n      dup1\n      dup3\n      gt\n        /* \"#utility.yul\":7403:7405   */\n      iszero\n      tag_777\n      jumpi\n        /* \"#utility.yul\":7438:7444   */\n      dup4\n        /* \"#utility.yul\":7430:7436   */\n      dup5\n        /* \"#utility.yul\":7423:7445   */\n      revert\n        /* \"#utility.yul\":7403:7405   */\n    tag_777:\n        /* \"#utility.yul\":7466:7517   */\n      tag_778\n        /* \"#utility.yul\":7509:7516   */\n      dup11\n        /* \"#utility.yul\":7500:7506   */\n      dup4\n        /* \"#utility.yul\":7489:7498   */\n      dup12\n        /* \"#utility.yul\":7485:7507   */\n      add\n        /* \"#utility.yul\":7466:7517   */\n      tag_709\n      jump\t// in\n    tag_778:\n        /* \"#utility.yul\":7456:7517   */\n      swap5\n      pop\n        /* \"#utility.yul\":7564:7567   */\n      0x80\n        /* \"#utility.yul\":7553:7562   */\n      dup10\n        /* \"#utility.yul\":7549:7568   */\n      add\n        /* \"#utility.yul\":7536:7569   */\n      calldataload\n        /* \"#utility.yul\":7526:7569   */\n      swap4\n      pop\n        /* \"#utility.yul\":7622:7625   */\n      0xa0\n        /* \"#utility.yul\":7611:7620   */\n      dup10\n        /* \"#utility.yul\":7607:7626   */\n      add\n        /* \"#utility.yul\":7594:7627   */\n      calldataload\n        /* \"#utility.yul\":7578:7627   */\n      swap2\n      pop\n        /* \"#utility.yul\":7652:7654   */\n      dup1\n        /* \"#utility.yul\":7642:7650   */\n      dup3\n        /* \"#utility.yul\":7639:7655   */\n      gt\n        /* \"#utility.yul\":7636:7638   */\n      iszero\n      tag_779\n      jumpi\n        /* \"#utility.yul\":7673:7679   */\n      dup3\n        /* \"#utility.yul\":7665:7671   */\n      dup4\n        /* \"#utility.yul\":7658:7680   */\n      revert\n        /* \"#utility.yul\":7636:7638   */\n    tag_779:\n      pop\n        /* \"#utility.yul\":7701:7754   */\n      tag_773\n        /* \"#utility.yul\":7746:7753   */\n      dup10\n        /* \"#utility.yul\":7735:7743   */\n      dup3\n        /* \"#utility.yul\":7724:7733   */\n      dup11\n        /* \"#utility.yul\":7720:7744   */\n      add\n        /* \"#utility.yul\":7701:7754   */\n      tag_709\n      jump\t// in\n        /* \"#utility.yul\":7765:8746   */\n    tag_143:\n      0x00\n      dup1\n      0x00\n      dup1\n      0x00\n      dup1\n      0x00\n        /* \"#utility.yul\":7995:7998   */\n      0xe0\n        /* \"#utility.yul\":7983:7992   */\n      dup9\n        /* \"#utility.yul\":7974:7981   */\n      dup11\n        /* \"#utility.yul\":7970:7993   */\n      sub\n        /* \"#utility.yul\":7966:7999   */\n      slt\n        /* \"#utility.yul\":7963:7965   */\n      iszero\n      tag_782\n      jumpi\n        /* \"#utility.yul\":8017:8023   */\n      dup5\n        /* \"#utility.yul\":8009:8015   */\n      dup6\n        /* \"#utility.yul\":8002:8024   */\n      revert\n        /* \"#utility.yul\":7963:7965   */\n    tag_782:\n        /* \"#utility.yul\":8061:8070   */\n      dup8\n        /* \"#utility.yul\":8048:8071   */\n      calldataload\n        /* \"#utility.yul\":8080:8110   */\n      tag_783\n        /* \"#utility.yul\":8104:8109   */\n      dup2\n        /* \"#utility.yul\":8080:8110   */\n      tag_731\n      jump\t// in\n    tag_783:\n        /* \"#utility.yul\":8129:8134   */\n      swap7\n      pop\n        /* \"#utility.yul\":8181:8183   */\n      0x20\n        /* \"#utility.yul\":8166:8184   */\n      dup9\n      add\n        /* \"#utility.yul\":8153:8185   */\n      calldataload\n      swap6\n      pop\n        /* \"#utility.yul\":8232:8234   */\n      0x40\n        /* \"#utility.yul\":8217:8235   */\n      dup9\n      add\n        /* \"#utility.yul\":8204:8236   */\n      calldataload\n      swap5\n      pop\n        /* \"#utility.yul\":8287:8289   */\n      0x60\n        /* \"#utility.yul\":8272:8290   */\n      dup9\n      add\n        /* \"#utility.yul\":8259:8291   */\n      calldataload\n        /* \"#utility.yul\":8310:8328   */\n      0xffffffffffffffff\n        /* \"#utility.yul\":8340:8354   */\n      dup1\n      dup3\n      gt\n        /* \"#utility.yul\":8337:8339   */\n      iszero\n      tag_784\n      jumpi\n        /* \"#utility.yul\":8372:8378   */\n      dup3\n        /* \"#utility.yul\":8364:8370   */\n      dup4\n        /* \"#utility.yul\":8357:8379   */\n      revert\n        /* \"#utility.yul\":8337:8339   */\n    tag_784:\n        /* \"#utility.yul\":8400:8451   */\n      tag_785\n        /* \"#utility.yul\":8443:8450   */\n      dup12\n        /* \"#utility.yul\":8434:8440   */\n      dup4\n        /* \"#utility.yul\":8423:8432   */\n      dup13\n        /* \"#utility.yul\":8419:8441   */\n      add\n        /* \"#utility.yul\":8400:8451   */\n      tag_709\n      jump\t// in\n    tag_785:\n        /* \"#utility.yul\":8390:8451   */\n      swap6\n      pop\n        /* \"#utility.yul\":8498:8501   */\n      0x80\n        /* \"#utility.yul\":8487:8496   */\n      dup11\n        /* \"#utility.yul\":8483:8502   */\n      add\n        /* \"#utility.yul\":8470:8503   */\n      calldataload\n        /* \"#utility.yul\":8460:8503   */\n      swap5\n      pop\n        /* \"#utility.yul\":8556:8559   */\n      0xa0\n        /* \"#utility.yul\":8545:8554   */\n      dup11\n        /* \"#utility.yul\":8541:8560   */\n      add\n        /* \"#utility.yul\":8528:8561   */\n      calldataload\n        /* \"#utility.yul\":8512:8561   */\n      swap2\n      pop\n        /* \"#utility.yul\":8586:8588   */\n      dup1\n        /* \"#utility.yul\":8576:8584   */\n      dup3\n        /* \"#utility.yul\":8573:8589   */\n      gt\n        /* \"#utility.yul\":8570:8572   */\n      iszero\n      tag_786\n      jumpi\n        /* \"#utility.yul\":8607:8613   */\n      dup3\n        /* \"#utility.yul\":8599:8605   */\n      dup4\n        /* \"#utility.yul\":8592:8614   */\n      revert\n        /* \"#utility.yul\":8570:8572   */\n    tag_786:\n      pop\n        /* \"#utility.yul\":8635:8688   */\n      tag_787\n        /* \"#utility.yul\":8680:8687   */\n      dup11\n        /* \"#utility.yul\":8669:8677   */\n      dup3\n        /* \"#utility.yul\":8658:8667   */\n      dup12\n        /* \"#utility.yul\":8654:8678   */\n      add\n        /* \"#utility.yul\":8635:8688   */\n      tag_709\n      jump\t// in\n    tag_787:\n        /* \"#utility.yul\":8625:8688   */\n      swap3\n      pop\n      pop\n        /* \"#utility.yul\":8735:8738   */\n      0xc0\n        /* \"#utility.yul\":8724:8733   */\n      dup9\n        /* \"#utility.yul\":8720:8739   */\n      add\n        /* \"#utility.yul\":8707:8740   */\n      calldataload\n        /* \"#utility.yul\":8697:8740   */\n      swap1\n      pop\n        /* \"#utility.yul\":7953:8746   */\n      swap3\n      swap6\n      swap9\n      swap2\n      swap5\n      swap8\n      pop\n      swap3\n      swap6\n      pop\n      jump\t// out\n        /* \"#utility.yul\":8751:9870   */\n    tag_159:\n      0x00\n      dup1\n      0x00\n      dup1\n      0x00\n      dup1\n      0x00\n      dup1\n      0x00\n        /* \"#utility.yul\":9015:9018   */\n      0x0120\n        /* \"#utility.yul\":9003:9012   */\n      dup11\n        /* \"#utility.yul\":8994:9001   */\n      dup13\n        /* \"#utility.yul\":8990:9013   */\n      sub\n        /* \"#utility.yul\":8986:9019   */\n      slt\n        /* \"#utility.yul\":8983:8985   */\n      iszero\n      tag_789\n      jumpi\n        /* \"#utility.yul\":9037:9043   */\n      dup3\n        /* \"#utility.yul\":9029:9035   */\n      dup4\n        /* \"#utility.yul\":9022:9044   */\n      revert\n        /* \"#utility.yul\":8983:8985   */\n    tag_789:\n        /* \"#utility.yul\":9081:9090   */\n      dup10\n        /* \"#utility.yul\":9068:9091   */\n      calldataload\n        /* \"#utility.yul\":9100:9130   */\n      tag_790\n        /* \"#utility.yul\":9124:9129   */\n      dup2\n        /* \"#utility.yul\":9100:9130   */\n      tag_731\n      jump\t// in\n    tag_790:\n        /* \"#utility.yul\":9149:9154   */\n      swap9\n      pop\n        /* \"#utility.yul\":9201:9203   */\n      0x20\n        /* \"#utility.yul\":9186:9204   */\n      dup11\n      add\n        /* \"#utility.yul\":9173:9205   */\n      calldataload\n      swap8\n      pop\n        /* \"#utility.yul\":9252:9254   */\n      0x40\n        /* \"#utility.yul\":9237:9255   */\n      dup11\n      add\n        /* \"#utility.yul\":9224:9256   */\n      calldataload\n      swap7\n      pop\n        /* \"#utility.yul\":9303:9305   */\n      0x60\n        /* \"#utility.yul\":9288:9306   */\n      dup11\n      add\n        /* \"#utility.yul\":9275:9307   */\n      calldataload\n      swap6\n      pop\n        /* \"#utility.yul\":9354:9357   */\n      0x80\n        /* \"#utility.yul\":9339:9358   */\n      dup11\n      add\n        /* \"#utility.yul\":9326:9359   */\n      calldataload\n      swap5\n      pop\n        /* \"#utility.yul\":9410:9413   */\n      0xa0\n        /* \"#utility.yul\":9395:9414   */\n      dup11\n      add\n        /* \"#utility.yul\":9382:9415   */\n      calldataload\n        /* \"#utility.yul\":9434:9452   */\n      0xffffffffffffffff\n        /* \"#utility.yul\":9464:9478   */\n      dup1\n      dup3\n      gt\n        /* \"#utility.yul\":9461:9463   */\n      iszero\n      tag_791\n      jumpi\n        /* \"#utility.yul\":9496:9502   */\n      dup5\n        /* \"#utility.yul\":9488:9494   */\n      dup6\n        /* \"#utility.yul\":9481:9503   */\n      revert\n        /* \"#utility.yul\":9461:9463   */\n    tag_791:\n        /* \"#utility.yul\":9524:9575   */\n      tag_792\n        /* \"#utility.yul\":9567:9574   */\n      dup14\n        /* \"#utility.yul\":9558:9564   */\n      dup4\n        /* \"#utility.yul\":9547:9556   */\n      dup15\n        /* \"#utility.yul\":9543:9565   */\n      add\n        /* \"#utility.yul\":9524:9575   */\n      tag_709\n      jump\t// in\n    tag_792:\n        /* \"#utility.yul\":9514:9575   */\n      swap6\n      pop\n        /* \"#utility.yul\":9622:9625   */\n      0xc0\n        /* \"#utility.yul\":9611:9620   */\n      dup13\n        /* \"#utility.yul\":9607:9626   */\n      add\n        /* \"#utility.yul\":9594:9627   */\n      calldataload\n        /* \"#utility.yul\":9584:9627   */\n      swap5\n      pop\n        /* \"#utility.yul\":9674:9677   */\n      0xe0\n        /* \"#utility.yul\":9663:9672   */\n      dup13\n        /* \"#utility.yul\":9659:9678   */\n      add\n        /* \"#utility.yul\":9646:9679   */\n      calldataload\n        /* \"#utility.yul\":9636:9679   */\n      swap4\n      pop\n        /* \"#utility.yul\":9732:9735   */\n      0x0100\n        /* \"#utility.yul\":9721:9730   */\n      dup13\n        /* \"#utility.yul\":9717:9736   */\n      add\n        /* \"#utility.yul\":9704:9737   */\n      calldataload\n        /* \"#utility.yul\":9688:9737   */\n      swap2\n      pop\n        /* \"#utility.yul\":9762:9764   */\n      dup1\n        /* \"#utility.yul\":9752:9760   */\n      dup3\n        /* \"#utility.yul\":9749:9765   */\n      gt\n        /* \"#utility.yul\":9746:9748   */\n      iszero\n      tag_793\n      jumpi\n        /* \"#utility.yul\":9783:9789   */\n      dup3\n        /* \"#utility.yul\":9775:9781   */\n      dup4\n        /* \"#utility.yul\":9768:9790   */\n      revert\n        /* \"#utility.yul\":9746:9748   */\n    tag_793:\n      pop\n        /* \"#utility.yul\":9811:9864   */\n      tag_794\n        /* \"#utility.yul\":9856:9863   */\n      dup13\n        /* \"#utility.yul\":9845:9853   */\n      dup3\n        /* \"#utility.yul\":9834:9843   */\n      dup14\n        /* \"#utility.yul\":9830:9854   */\n      add\n        /* \"#utility.yul\":9811:9864   */\n      tag_709\n      jump\t// in\n    tag_794:\n        /* \"#utility.yul\":9801:9864   */\n      swap2\n      pop\n      pop\n        /* \"#utility.yul\":8973:9870   */\n      swap3\n      swap6\n      swap9\n      pop\n      swap3\n      swap6\n      swap9\n      pop\n      swap3\n      swap6\n      swap9\n      jump\t// out\n        /* \"#utility.yul\":9875:10065   */\n    tag_53:\n      0x00\n        /* \"#utility.yul\":9987:9989   */\n      0x20\n        /* \"#utility.yul\":9975:9984   */\n      dup3\n        /* \"#utility.yul\":9966:9973   */\n      dup5\n        /* \"#utility.yul\":9962:9985   */\n      sub\n        /* \"#utility.yul\":9958:9990   */\n      slt\n        /* \"#utility.yul\":9955:9957   */\n      iszero\n      tag_796\n      jumpi\n        /* \"#utility.yul\":10008:10014   */\n      dup1\n        /* \"#utility.yul\":10000:10006   */\n      dup2\n        /* \"#utility.yul\":9993:10015   */\n      revert\n        /* \"#utility.yul\":9955:9957   */\n    tag_796:\n      pop\n        /* \"#utility.yul\":10036:10059   */\n      calldataload\n      swap2\n        /* \"#utility.yul\":9945:10065   */\n      swap1\n      pop\n      jump\t// out\n        /* \"#utility.yul\":10070:10264   */\n    tag_444:\n      0x00\n        /* \"#utility.yul\":10193:10195   */\n      0x20\n        /* \"#utility.yul\":10181:10190   */\n      dup3\n        /* \"#utility.yul\":10172:10179   */\n      dup5\n        /* \"#utility.yul\":10168:10191   */\n      sub\n        /* \"#utility.yul\":10164:10196   */\n      slt\n        /* \"#utility.yul\":10161:10163   */\n      iszero\n      tag_798\n      jumpi\n        /* \"#utility.yul\":10214:10220   */\n      dup1\n        /* \"#utility.yul\":10206:10212   */\n      dup2\n        /* \"#utility.yul\":10199:10221   */\n      revert\n        /* \"#utility.yul\":10161:10163   */\n    tag_798:\n      pop\n        /* \"#utility.yul\":10242:10258   */\n      mload\n      swap2\n        /* \"#utility.yul\":10151:10264   */\n      swap1\n      pop\n      jump\t// out\n        /* \"#utility.yul\":10269:11378   */\n    tag_189:\n      0x00\n      dup1\n      0x00\n      dup1\n      0x00\n      dup1\n      0x00\n      dup1\n      0x00\n      dup1\n      0x00\n      dup1\n        /* \"#utility.yul\":10580:10583   */\n      0x0180\n        /* \"#utility.yul\":10568:10577   */\n      dup14\n        /* \"#utility.yul\":10559:10566   */\n      dup16\n        /* \"#utility.yul\":10555:10578   */\n      sub\n        /* \"#utility.yul\":10551:10584   */\n      slt\n        /* \"#utility.yul\":10548:10550   */\n      iszero\n      tag_800\n      jumpi\n        /* \"#utility.yul\":10602:10608   */\n      dup6\n        /* \"#utility.yul\":10594:10600   */\n      dup7\n        /* \"#utility.yul\":10587:10609   */\n      revert\n        /* \"#utility.yul\":10548:10550   */\n    tag_800:\n        /* \"#utility.yul\":10643:10652   */\n      dup13\n        /* \"#utility.yul\":10630:10653   */\n      calldataload\n        /* \"#utility.yul\":10620:10653   */\n      swap12\n      pop\n        /* \"#utility.yul\":10672:10712   */\n      tag_801\n        /* \"#utility.yul\":10708:10710   */\n      0x20\n        /* \"#utility.yul\":10697:10706   */\n      dup15\n        /* \"#utility.yul\":10693:10711   */\n      add\n        /* \"#utility.yul\":10672:10712   */\n      tag_694\n      jump\t// in\n    tag_801:\n        /* \"#utility.yul\":10662:10712   */\n      swap11\n      pop\n        /* \"#utility.yul\":10759:10761   */\n      0x40\n        /* \"#utility.yul\":10748:10757   */\n      dup14\n        /* \"#utility.yul\":10744:10762   */\n      add\n        /* \"#utility.yul\":10731:10763   */\n      calldataload\n        /* \"#utility.yul\":10721:10763   */\n      swap10\n      pop\n        /* \"#utility.yul\":10812:10830   */\n      0xffffffffffffffff\n        /* \"#utility.yul\":10806:10808   */\n      0x60\n        /* \"#utility.yul\":10795:10804   */\n      dup15\n        /* \"#utility.yul\":10791:10809   */\n      add\n        /* \"#utility.yul\":10778:10810   */\n      calldataload\n        /* \"#utility.yul\":10775:10831   */\n      gt\n        /* \"#utility.yul\":10772:10774   */\n      iszero\n      tag_802\n      jumpi\n        /* \"#utility.yul\":10849:10855   */\n      dup6\n        /* \"#utility.yul\":10841:10847   */\n      dup7\n        /* \"#utility.yul\":10834:10856   */\n      revert\n        /* \"#utility.yul\":10772:10774   */\n    tag_802:\n        /* \"#utility.yul\":10877:10954   */\n      tag_803\n        /* \"#utility.yul\":10946:10953   */\n      dup15\n        /* \"#utility.yul\":10939:10941   */\n      0x60\n        /* \"#utility.yul\":10928:10937   */\n      dup16\n        /* \"#utility.yul\":10924:10942   */\n      add\n        /* \"#utility.yul\":10911:10943   */\n      calldataload\n        /* \"#utility.yul\":10900:10909   */\n      dup16\n        /* \"#utility.yul\":10896:10944   */\n      add\n        /* \"#utility.yul\":10877:10954   */\n      tag_709\n      jump\t// in\n    tag_803:\n        /* \"#utility.yul\":10538:11378   */\n      swap12\n      swap15\n      swap11\n      swap14\n      pop\n      swap9\n      swap12\n        /* \"#utility.yul\":11001:11004   */\n      0x80\n        /* \"#utility.yul\":10986:11005   */\n      dup2\n      add\n        /* \"#utility.yul\":10973:11006   */\n      calldataload\n      swap11\n        /* \"#utility.yul\":11053:11056   */\n      0xa0\n        /* \"#utility.yul\":11038:11057   */\n      dup3\n      add\n        /* \"#utility.yul\":11025:11058   */\n      calldataload\n      swap11\n      pop\n        /* \"#utility.yul\":11105:11108   */\n      0xc0\n        /* \"#utility.yul\":11090:11109   */\n      dup3\n      add\n        /* \"#utility.yul\":11077:11110   */\n      calldataload\n      swap10\n      pop\n        /* \"#utility.yul\":11157:11160   */\n      0xe0\n        /* \"#utility.yul\":11142:11161   */\n      dup3\n      add\n        /* \"#utility.yul\":11129:11162   */\n      calldataload\n      swap9\n      pop\n        /* \"#utility.yul\":11209:11212   */\n      0x0100\n        /* \"#utility.yul\":11194:11213   */\n      dup3\n      add\n        /* \"#utility.yul\":11181:11214   */\n      calldataload\n      swap8\n      pop\n        /* \"#utility.yul\":11261:11264   */\n      0x0120\n        /* \"#utility.yul\":11246:11265   */\n      dup3\n      add\n        /* \"#utility.yul\":11233:11266   */\n      calldataload\n      swap7\n      pop\n        /* \"#utility.yul\":11314:11317   */\n      0x0140\n        /* \"#utility.yul\":11299:11318   */\n      dup3\n      add\n        /* \"#utility.yul\":11286:11319   */\n      calldataload\n      swap6\n      pop\n        /* \"#utility.yul\":11367:11370   */\n      0x0160\n        /* \"#utility.yul\":11352:11371   */\n      swap1\n      swap2\n      add\n        /* \"#utility.yul\":11339:11372   */\n      calldataload\n      swap4\n      pop\n        /* \"#utility.yul\":10538:11378   */\n      swap2\n      pop\n      pop\n      jump\t// out\n        /* \"#utility.yul\":11383:11709   */\n    tag_73:\n      0x00\n      dup1\n      0x00\n        /* \"#utility.yul\":11529:11531   */\n      0x60\n        /* \"#utility.yul\":11517:11526   */\n      dup5\n        /* \"#utility.yul\":11508:11515   */\n      dup7\n        /* \"#utility.yul\":11504:11527   */\n      sub\n        /* \"#utility.yul\":11500:11532   */\n      slt\n        /* \"#utility.yul\":11497:11499   */\n      iszero\n      tag_805\n      jumpi\n        /* \"#utility.yul\":11550:11556   */\n      dup1\n        /* \"#utility.yul\":11542:11548   */\n      dup2\n        /* \"#utility.yul\":11535:11557   */\n      revert\n        /* \"#utility.yul\":11497:11499   */\n    tag_805:\n      pop\n      pop\n        /* \"#utility.yul\":11578:11601   */\n      dup2\n      calldataload\n      swap4\n        /* \"#utility.yul\":11648:11650   */\n      0x20\n        /* \"#utility.yul\":11633:11651   */\n      dup4\n      add\n        /* \"#utility.yul\":11620:11652   */\n      calldataload\n      swap4\n      pop\n        /* \"#utility.yul\":11699:11701   */\n      0x40\n        /* \"#utility.yul\":11684:11702   */\n      swap1\n      swap3\n      add\n        /* \"#utility.yul\":11671:11703   */\n      calldataload\n      swap2\n        /* \"#utility.yul\":11487:11709   */\n      swap1\n      pop\n      jump\t// out\n        /* \"#utility.yul\":11714:11820   */\n    tag_806:\n      sub(shl(0xa0, 0x01), 0x01)\n        /* \"#utility.yul\":11782:11813   */\n      and\n        /* \"#utility.yul\":11770:11814   */\n      swap1\n      mstore\n        /* \"#utility.yul\":11760:11820   */\n      jump\t// out\n        /* \"#utility.yul\":11825:12084   */\n    tag_808:\n      0x00\n        /* \"#utility.yul\":11906:11911   */\n      dup2\n        /* \"#utility.yul\":11900:11912   */\n      mload\n        /* \"#utility.yul\":11933:11939   */\n      dup1\n        /* \"#utility.yul\":11928:11931   */\n      dup5\n        /* \"#utility.yul\":11921:11940   */\n      mstore\n        /* \"#utility.yul\":11949:12012   */\n      tag_810\n        /* \"#utility.yul\":12005:12011   */\n      dup2\n        /* \"#utility.yul\":11998:12002   */\n      0x20\n        /* \"#utility.yul\":11993:11996   */\n      dup7\n        /* \"#utility.yul\":11989:12003   */\n      add\n        /* \"#utility.yul\":11982:11986   */\n      0x20\n        /* \"#utility.yul\":11975:11980   */\n      dup7\n        /* \"#utility.yul\":11971:11987   */\n      add\n        /* \"#utility.yul\":11949:12012   */\n      tag_811\n      jump\t// in\n    tag_810:\n        /* \"#utility.yul\":12066:12068   */\n      0x1f\n        /* \"#utility.yul\":12045:12060   */\n      add\n      not(0x1f)\n        /* \"#utility.yul\":12041:12070   */\n      and\n        /* \"#utility.yul\":12032:12071   */\n      swap3\n      swap1\n      swap3\n      add\n        /* \"#utility.yul\":12073:12077   */\n      0x20\n        /* \"#utility.yul\":12028:12078   */\n      add\n      swap3\n        /* \"#utility.yul\":11876:12084   */\n      swap2\n      pop\n      pop\n      jump\t// out\n        /* \"#utility.yul\":12089:12363   */\n    tag_669:\n      0x00\n        /* \"#utility.yul\":12256:12262   */\n      dup3\n        /* \"#utility.yul\":12250:12263   */\n      mload\n        /* \"#utility.yul\":12272:12325   */\n      tag_813\n        /* \"#utility.yul\":12318:12324   */\n      dup2\n        /* \"#utility.yul\":12313:12316   */\n      dup5\n        /* \"#utility.yul\":12306:12310   */\n      0x20\n        /* \"#utility.yul\":12298:12304   */\n      dup8\n        /* \"#utility.yul\":12294:12311   */\n      add\n        /* \"#utility.yul\":12272:12325   */\n      tag_811\n      jump\t// in\n    tag_813:\n        /* \"#utility.yul\":12341:12357   */\n      swap2\n      swap1\n      swap2\n      add\n      swap3\n        /* \"#utility.yul\":12226:12363   */\n      swap2\n      pop\n      pop\n      jump\t// out\n        /* \"#utility.yul\":12368:12571   */\n    tag_70:\n      sub(shl(0xa0, 0x01), 0x01)\n        /* \"#utility.yul\":12532:12564   */\n      swap2\n      swap1\n      swap2\n      and\n        /* \"#utility.yul\":12514:12565   */\n      dup2\n      mstore\n        /* \"#utility.yul\":12502:12504   */\n      0x20\n        /* \"#utility.yul\":12487:12505   */\n      add\n      swap1\n        /* \"#utility.yul\":12469:12571   */\n      jump\t// out\n        /* \"#utility.yul\":12576:12951   */\n    tag_608:\n      sub(shl(0xa0, 0x01), 0x01)\n        /* \"#utility.yul\":12834:12849   */\n      swap4\n      dup5\n      and\n        /* \"#utility.yul\":12816:12850   */\n      dup2\n      mstore\n        /* \"#utility.yul\":12886:12901   */\n      swap2\n      swap1\n      swap3\n      and\n        /* \"#utility.yul\":12881:12883   */\n      0x20\n        /* \"#utility.yul\":12866:12884   */\n      dup3\n      add\n        /* \"#utility.yul\":12859:12902   */\n      mstore\n        /* \"#utility.yul\":12933:12935   */\n      0x40\n        /* \"#utility.yul\":12918:12936   */\n      dup2\n      add\n        /* \"#utility.yul\":12911:12945   */\n      swap2\n      swap1\n      swap2\n      mstore\n        /* \"#utility.yul\":12766:12768   */\n      0x60\n        /* \"#utility.yul\":12751:12769   */\n      add\n      swap1\n        /* \"#utility.yul\":12733:12951   */\n      jump\t// out\n        /* \"#utility.yul\":12956:13230   */\n    tag_402:\n      sub(shl(0xa0, 0x01), 0x01)\n        /* \"#utility.yul\":13148:13180   */\n      swap3\n      swap1\n      swap3\n      and\n        /* \"#utility.yul\":13130:13181   */\n      dup3\n      mstore\n        /* \"#utility.yul\":13212:13214   */\n      0x20\n        /* \"#utility.yul\":13197:13215   */\n      dup3\n      add\n        /* \"#utility.yul\":13190:13224   */\n      mstore\n        /* \"#utility.yul\":13118:13120   */\n      0x40\n        /* \"#utility.yul\":13103:13121   */\n      add\n      swap1\n        /* \"#utility.yul\":13085:13230   */\n      jump\t// out\n        /* \"#utility.yul\":13235:13870   */\n    tag_50:\n        /* \"#utility.yul\":13406:13408   */\n      0x20\n        /* \"#utility.yul\":13458:13479   */\n      dup1\n      dup3\n      mstore\n        /* \"#utility.yul\":13528:13541   */\n      dup3\n      mload\n        /* \"#utility.yul\":13431:13449   */\n      dup3\n      dup3\n      add\n        /* \"#utility.yul\":13550:13572   */\n      dup2\n      swap1\n      mstore\n        /* \"#utility.yul\":13235:13870   */\n      0x00\n      swap2\n        /* \"#utility.yul\":13406:13408   */\n      swap1\n        /* \"#utility.yul\":13629:13644   */\n      dup5\n      dup3\n      add\n      swap1\n        /* \"#utility.yul\":13603:13605   */\n      0x40\n        /* \"#utility.yul\":13588:13606   */\n      dup6\n      add\n      swap1\n        /* \"#utility.yul\":13235:13870   */\n      dup5\n        /* \"#utility.yul\":13675:13844   */\n    tag_818:\n        /* \"#utility.yul\":13689:13695   */\n      dup2\n        /* \"#utility.yul\":13686:13687   */\n      dup2\n        /* \"#utility.yul\":13683:13696   */\n      lt\n        /* \"#utility.yul\":13675:13844   */\n      iszero\n      tag_820\n      jumpi\n        /* \"#utility.yul\":13750:13763   */\n      dup4\n      mload\n        /* \"#utility.yul\":13738:13764   */\n      dup4\n      mstore\n        /* \"#utility.yul\":13819:13834   */\n      swap3\n      dup5\n      add\n      swap3\n        /* \"#utility.yul\":13784:13796   */\n      swap2\n      dup5\n      add\n      swap2\n        /* \"#utility.yul\":13711:13712   */\n      0x01\n        /* \"#utility.yul\":13704:13713   */\n      add\n        /* \"#utility.yul\":13675:13844   */\n      jump(tag_818)\n    tag_820:\n      pop\n        /* \"#utility.yul\":13861:13864   */\n      swap1\n      swap7\n        /* \"#utility.yul\":13386:13870   */\n      swap6\n      pop\n      pop\n      pop\n      pop\n      pop\n      pop\n      jump\t// out\n        /* \"#utility.yul\":13875:14062   */\n    tag_62:\n        /* \"#utility.yul\":14040:14054   */\n      swap1\n      iszero\n        /* \"#utility.yul\":14033:14055   */\n      iszero\n        /* \"#utility.yul\":14015:14056   */\n      dup2\n      mstore\n        /* \"#utility.yul\":14003:14005   */\n      0x20\n        /* \"#utility.yul\":13988:14006   */\n      add\n      swap1\n        /* \"#utility.yul\":13970:14062   */\n      jump\t// out\n        /* \"#utility.yul\":14067:14676   */\n    tag_364:\n      0x00\n        /* \"#utility.yul\":14354:14360   */\n      dup7\n        /* \"#utility.yul\":14347:14361   */\n      iszero\n        /* \"#utility.yul\":14340:14362   */\n      iszero\n        /* \"#utility.yul\":14329:14338   */\n      dup3\n        /* \"#utility.yul\":14322:14363   */\n      mstore\n        /* \"#utility.yul\":14399:14405   */\n      dup6\n        /* \"#utility.yul\":14394:14396   */\n      0x20\n        /* \"#utility.yul\":14383:14392   */\n      dup4\n        /* \"#utility.yul\":14379:14397   */\n      add\n        /* \"#utility.yul\":14372:14406   */\n      mstore\n        /* \"#utility.yul\":14442:14448   */\n      dup5\n        /* \"#utility.yul\":14437:14439   */\n      0x40\n        /* \"#utility.yul\":14426:14435   */\n      dup4\n        /* \"#utility.yul\":14422:14440   */\n      add\n        /* \"#utility.yul\":14415:14449   */\n      mstore\n        /* \"#utility.yul\":14485:14488   */\n      0xa0\n        /* \"#utility.yul\":14480:14482   */\n      0x60\n        /* \"#utility.yul\":14469:14478   */\n      dup4\n        /* \"#utility.yul\":14465:14483   */\n      add\n        /* \"#utility.yul\":14458:14489   */\n      mstore\n        /* \"#utility.yul\":14512:14559   */\n      tag_823\n        /* \"#utility.yul\":14554:14557   */\n      0xa0\n        /* \"#utility.yul\":14543:14552   */\n      dup4\n        /* \"#utility.yul\":14539:14558   */\n      add\n        /* \"#utility.yul\":14531:14537   */\n      dup6\n        /* \"#utility.yul\":14512:14559   */\n      tag_808\n      jump\t// in\n    tag_823:\n        /* \"#utility.yul\":14608:14617   */\n      dup3\n        /* \"#utility.yul\":14600:14606   */\n      dup2\n        /* \"#utility.yul\":14596:14618   */\n      sub\n        /* \"#utility.yul\":14590:14593   */\n      0x80\n        /* \"#utility.yul\":14579:14588   */\n      dup5\n        /* \"#utility.yul\":14575:14594   */\n      add\n        /* \"#utility.yul\":14568:14619   */\n      mstore\n        /* \"#utility.yul\":14636:14670   */\n      tag_312\n        /* \"#utility.yul\":14663:14669   */\n      dup2\n        /* \"#utility.yul\":14655:14661   */\n      dup6\n        /* \"#utility.yul\":14636:14670   */\n      tag_808\n      jump\t// in\n        /* \"#utility.yul\":14681:15082   */\n    tag_115:\n        /* \"#utility.yul\":14931:14945   */\n      swap4\n      iszero\n        /* \"#utility.yul\":14924:14946   */\n      iszero\n        /* \"#utility.yul\":14906:14947   */\n      dup5\n      mstore\n        /* \"#utility.yul\":14978:14980   */\n      0x20\n        /* \"#utility.yul\":14963:14981   */\n      dup5\n      add\n        /* \"#utility.yul\":14956:14990   */\n      swap3\n      swap1\n      swap3\n      mstore\n        /* \"#utility.yul\":15021:15023   */\n      0x40\n        /* \"#utility.yul\":15006:15024   */\n      dup4\n      add\n        /* \"#utility.yul\":14999:15033   */\n      mstore\n        /* \"#utility.yul\":15064:15066   */\n      0x60\n        /* \"#utility.yul\":15049:15067   */\n      dup3\n      add\n        /* \"#utility.yul\":15042:15076   */\n      mstore\n        /* \"#utility.yul\":14893:14896   */\n      0x80\n        /* \"#utility.yul\":14878:14897   */\n      add\n      swap1\n        /* \"#utility.yul\":14860:15082   */\n      jump\t// out\n        /* \"#utility.yul\":15773:15994   */\n    tag_682:\n      0x00\n        /* \"#utility.yul\":15922:15924   */\n      0x20\n        /* \"#utility.yul\":15911:15920   */\n      dup3\n        /* \"#utility.yul\":15904:15925   */\n      mstore\n        /* \"#utility.yul\":15942:15988   */\n      tag_242\n        /* \"#utility.yul\":15984:15986   */\n      0x20\n        /* \"#utility.yul\":15973:15982   */\n      dup4\n        /* \"#utility.yul\":15969:15987   */\n      add\n        /* \"#utility.yul\":15961:15967   */\n      dup5\n        /* \"#utility.yul\":15942:15988   */\n      tag_808\n      jump\t// in\n        /* \"#utility.yul\":15999:16343   */\n    tag_359:\n        /* \"#utility.yul\":16201:16203   */\n      0x20\n        /* \"#utility.yul\":16183:16204   */\n      dup1\n      dup3\n      mstore\n        /* \"#utility.yul\":16240:16242   */\n      0x14\n        /* \"#utility.yul\":16220:16238   */\n      swap1\n      dup3\n      add\n        /* \"#utility.yul\":16213:16243   */\n      mstore\n      shl(0x62, 0x1bdc99195c88191bd95cc81b9bdd08195e1a5cdd)\n        /* \"#utility.yul\":16274:16276   */\n      0x40\n        /* \"#utility.yul\":16259:16277   */\n      dup3\n      add\n        /* \"#utility.yul\":16252:16302   */\n      mstore\n        /* \"#utility.yul\":16334:16336   */\n      0x60\n        /* \"#utility.yul\":16319:16337   */\n      add\n      swap1\n        /* \"#utility.yul\":16173:16343   */\n      jump\t// out\n        /* \"#utility.yul\":16348:16686   */\n    tag_425:\n        /* \"#utility.yul\":16550:16552   */\n      0x20\n        /* \"#utility.yul\":16532:16553   */\n      dup1\n      dup3\n      mstore\n        /* \"#utility.yul\":16589:16591   */\n      0x0e\n        /* \"#utility.yul\":16569:16587   */\n      swap1\n      dup3\n      add\n        /* \"#utility.yul\":16562:16592   */\n      mstore\n      shl(0x92, 0x1b585c99da5b881b9bc819dbdbd9)\n        /* \"#utility.yul\":16623:16625   */\n      0x40\n        /* \"#utility.yul\":16608:16626   */\n      dup3\n      add\n        /* \"#utility.yul\":16601:16645   */\n      mstore\n        /* \"#utility.yul\":16677:16679   */\n      0x60\n        /* \"#utility.yul\":16662:16680   */\n      add\n      swap1\n        /* \"#utility.yul\":16522:16686   */\n      jump\t// out\n        /* \"#utility.yul\":16691:17093   */\n    tag_478:\n        /* \"#utility.yul\":16893:16895   */\n      0x20\n        /* \"#utility.yul\":16875:16896   */\n      dup1\n      dup3\n      mstore\n        /* \"#utility.yul\":16932:16934   */\n      0x26\n        /* \"#utility.yul\":16912:16930   */\n      swap1\n      dup3\n      add\n        /* \"#utility.yul\":16905:16935   */\n      mstore\n        /* \"#utility.yul\":16971:17005   */\n      0x4f776e61626c653a206e6577206f776e657220697320746865207a65726f2061\n        /* \"#utility.yul\":16966:16968   */\n      0x40\n        /* \"#utility.yul\":16951:16969   */\n      dup3\n      add\n        /* \"#utility.yul\":16944:17006   */\n      mstore\n      shl(0xd0, 0x646472657373)\n        /* \"#utility.yul\":17037:17039   */\n      0x60\n        /* \"#utility.yul\":17022:17040   */\n      dup3\n      add\n        /* \"#utility.yul\":17015:17051   */\n      mstore\n        /* \"#utility.yul\":17083:17086   */\n      0x80\n        /* \"#utility.yul\":17068:17087   */\n      add\n      swap1\n        /* \"#utility.yul\":16865:17093   */\n      jump\t// out\n        /* \"#utility.yul\":17098:17432   */\n    tag_372:\n        /* \"#utility.yul\":17300:17302   */\n      0x20\n        /* \"#utility.yul\":17282:17303   */\n      dup1\n      dup3\n      mstore\n        /* \"#utility.yul\":17339:17341   */\n      0x0a\n        /* \"#utility.yul\":17319:17337   */\n      swap1\n      dup3\n      add\n        /* \"#utility.yul\":17312:17342   */\n      mstore\n      shl(0xb1, 0x37b930b1b6329032b939)\n        /* \"#utility.yul\":17373:17375   */\n      0x40\n        /* \"#utility.yul\":17358:17376   */\n      dup3\n      add\n        /* \"#utility.yul\":17351:17391   */\n      mstore\n        /* \"#utility.yul\":17423:17425   */\n      0x60\n        /* \"#utility.yul\":17408:17426   */\n      add\n      swap1\n        /* \"#utility.yul\":17272:17432   */\n      jump\t// out\n        /* \"#utility.yul\":17437:17837   */\n    tag_271:\n        /* \"#utility.yul\":17639:17641   */\n      0x20\n        /* \"#utility.yul\":17621:17642   */\n      dup1\n      dup3\n      mstore\n        /* \"#utility.yul\":17678:17680   */\n      0x24\n        /* \"#utility.yul\":17658:17676   */\n      swap1\n      dup3\n      add\n        /* \"#utility.yul\":17651:17681   */\n      mstore\n        /* \"#utility.yul\":17717:17751   */\n      0x6578656375746f723a2063616c6c6572206973206e6f74207468652065786563\n        /* \"#utility.yul\":17712:17714   */\n      0x40\n        /* \"#utility.yul\":17697:17715   */\n      dup3\n      add\n        /* \"#utility.yul\":17690:17752   */\n      mstore\n      shl(0xe1, 0x3aba37b9)\n        /* \"#utility.yul\":17783:17785   */\n      0x60\n        /* \"#utility.yul\":17768:17786   */\n      dup3\n      add\n        /* \"#utility.yul\":17761:17795   */\n      mstore\n        /* \"#utility.yul\":17827:17830   */\n      0x80\n        /* \"#utility.yul\":17812:17831   */\n      add\n      swap1\n        /* \"#utility.yul\":17611:17837   */\n      jump\t// out\n        /* \"#utility.yul\":17842:18180   */\n    tag_292:\n        /* \"#utility.yul\":18044:18046   */\n      0x20\n        /* \"#utility.yul\":18026:18047   */\n      dup1\n      dup3\n      mstore\n        /* \"#utility.yul\":18083:18085   */\n      0x0e\n        /* \"#utility.yul\":18063:18081   */\n      swap1\n      dup3\n      add\n        /* \"#utility.yul\":18056:18086   */\n      mstore\n      shl(0x91, 0x2737903634b8bab4b230ba34b7b7)\n        /* \"#utility.yul\":18117:18119   */\n      0x40\n        /* \"#utility.yul\":18102:18120   */\n      dup3\n      add\n        /* \"#utility.yul\":18095:18139   */\n      mstore\n        /* \"#utility.yul\":18171:18173   */\n      0x60\n        /* \"#utility.yul\":18156:18174   */\n      add\n      swap1\n        /* \"#utility.yul\":18016:18180   */\n      jump\t// out\n        /* \"#utility.yul\":18185:18587   */\n    tag_662:\n        /* \"#utility.yul\":18387:18389   */\n      0x20\n        /* \"#utility.yul\":18369:18390   */\n      dup1\n      dup3\n      mstore\n        /* \"#utility.yul\":18426:18428   */\n      0x26\n        /* \"#utility.yul\":18406:18424   */\n      swap1\n      dup3\n      add\n        /* \"#utility.yul\":18399:18429   */\n      mstore\n        /* \"#utility.yul\":18465:18499   */\n      0x416464726573733a20696e73756666696369656e742062616c616e636520666f\n        /* \"#utility.yul\":18460:18462   */\n      0x40\n        /* \"#utility.yul\":18445:18463   */\n      dup3\n      add\n        /* \"#utility.yul\":18438:18500   */\n      mstore\n      shl(0xd2, 0x1c8818d85b1b)\n        /* \"#utility.yul\":18531:18533   */\n      0x60\n        /* \"#utility.yul\":18516:18534   */\n      dup3\n      add\n        /* \"#utility.yul\":18509:18545   */\n      mstore\n        /* \"#utility.yul\":18577:18580   */\n      0x80\n        /* \"#utility.yul\":18562:18581   */\n      add\n      swap1\n        /* \"#utility.yul\":18359:18587   */\n      jump\t// out\n        /* \"#utility.yul\":18592:19002   */\n    tag_484:\n        /* \"#utility.yul\":18794:18796   */\n      0x20\n        /* \"#utility.yul\":18776:18797   */\n      dup1\n      dup3\n      mstore\n        /* \"#utility.yul\":18833:18835   */\n      0x2e\n        /* \"#utility.yul\":18813:18831   */\n      swap1\n      dup3\n      add\n        /* \"#utility.yul\":18806:18836   */\n      mstore\n        /* \"#utility.yul\":18872:18906   */\n      0x496e697469616c697a61626c653a20636f6e747261637420697320616c726561\n        /* \"#utility.yul\":18867:18869   */\n      0x40\n        /* \"#utility.yul\":18852:18870   */\n      dup3\n      add\n        /* \"#utility.yul\":18845:18907   */\n      mstore\n      shl(0x92, 0x191e481a5b9a5d1a585b1a5e9959)\n        /* \"#utility.yul\":18938:18940   */\n      0x60\n        /* \"#utility.yul\":18923:18941   */\n      dup3\n      add\n        /* \"#utility.yul\":18916:18960   */\n      mstore\n        /* \"#utility.yul\":18992:18995   */\n      0x80\n        /* \"#utility.yul\":18977:18996   */\n      add\n      swap1\n        /* \"#utility.yul\":18766:19002   */\n      jump\t// out\n        /* \"#utility.yul\":19007:19406   */\n    tag_437:\n        /* \"#utility.yul\":19209:19211   */\n      0x20\n        /* \"#utility.yul\":19191:19212   */\n      dup1\n      dup3\n      mstore\n        /* \"#utility.yul\":19248:19250   */\n      0x23\n        /* \"#utility.yul\":19228:19246   */\n      swap1\n      dup3\n      add\n        /* \"#utility.yul\":19221:19251   */\n      mstore\n        /* \"#utility.yul\":19287:19321   */\n      0x546865207472616e73616374696f6e20616d6f756e7420697320746f6f20736d\n        /* \"#utility.yul\":19282:19284   */\n      0x40\n        /* \"#utility.yul\":19267:19285   */\n      dup3\n      add\n        /* \"#utility.yul\":19260:19322   */\n      mstore\n      shl(0xea, 0x185b1b)\n        /* \"#utility.yul\":19353:19355   */\n      0x60\n        /* \"#utility.yul\":19338:19356   */\n      dup3\n      add\n        /* \"#utility.yul\":19331:19364   */\n      mstore\n        /* \"#utility.yul\":19396:19399   */\n      0x80\n        /* \"#utility.yul\":19381:19400   */\n      add\n      swap1\n        /* \"#utility.yul\":19181:19406   */\n      jump\t// out\n        /* \"#utility.yul\":19411:19751   */\n    tag_376:\n        /* \"#utility.yul\":19613:19615   */\n      0x20\n        /* \"#utility.yul\":19595:19616   */\n      dup1\n      dup3\n      mstore\n        /* \"#utility.yul\":19652:19654   */\n      0x10\n        /* \"#utility.yul\":19632:19650   */\n      swap1\n      dup3\n      add\n        /* \"#utility.yul\":19625:19655   */\n      mstore\n      shl(0x82, 0x155cd95c881a5cc818985b9adc9d5c1d)\n        /* \"#utility.yul\":19686:19688   */\n      0x40\n        /* \"#utility.yul\":19671:19689   */\n      dup3\n      add\n        /* \"#utility.yul\":19664:19710   */\n      mstore\n        /* \"#utility.yul\":19742:19744   */\n      0x60\n        /* \"#utility.yul\":19727:19745   */\n      add\n      swap1\n        /* \"#utility.yul\":19585:19751   */\n      jump\t// out\n        /* \"#utility.yul\":19756:20112   */\n    tag_240:\n        /* \"#utility.yul\":19958:19960   */\n      0x20\n        /* \"#utility.yul\":19940:19961   */\n      dup1\n      dup3\n      mstore\n        /* \"#utility.yul\":19977:19995   */\n      dup2\n      dup2\n      add\n        /* \"#utility.yul\":19970:20000   */\n      mstore\n        /* \"#utility.yul\":20036:20070   */\n      0x4f776e61626c653a2063616c6c6572206973206e6f7420746865206f776e6572\n        /* \"#utility.yul\":20031:20033   */\n      0x40\n        /* \"#utility.yul\":20016:20034   */\n      dup3\n      add\n        /* \"#utility.yul\":20009:20071   */\n      mstore\n        /* \"#utility.yul\":20103:20105   */\n      0x60\n        /* \"#utility.yul\":20088:20106   */\n      add\n      swap1\n        /* \"#utility.yul\":19930:20112   */\n      jump\t// out\n        /* \"#utility.yul\":20117:20470   */\n    tag_667:\n        /* \"#utility.yul\":20319:20321   */\n      0x20\n        /* \"#utility.yul\":20301:20322   */\n      dup1\n      dup3\n      mstore\n        /* \"#utility.yul\":20358:20360   */\n      0x1d\n        /* \"#utility.yul\":20338:20356   */\n      swap1\n      dup3\n      add\n        /* \"#utility.yul\":20331:20361   */\n      mstore\n        /* \"#utility.yul\":20397:20428   */\n      0x416464726573733a2063616c6c20746f206e6f6e2d636f6e7472616374000000\n        /* \"#utility.yul\":20392:20394   */\n      0x40\n        /* \"#utility.yul\":20377:20395   */\n      dup3\n      add\n        /* \"#utility.yul\":20370:20429   */\n      mstore\n        /* \"#utility.yul\":20461:20463   */\n      0x60\n        /* \"#utility.yul\":20446:20464   */\n      add\n      swap1\n        /* \"#utility.yul\":20291:20470   */\n      jump\t// out\n        /* \"#utility.yul\":20475:20809   */\n    tag_215:\n        /* \"#utility.yul\":20677:20679   */\n      0x20\n        /* \"#utility.yul\":20659:20680   */\n      dup1\n      dup3\n      mstore\n        /* \"#utility.yul\":20716:20718   */\n      0x0a\n        /* \"#utility.yul\":20696:20714   */\n      swap1\n      dup3\n      add\n        /* \"#utility.yul\":20689:20719   */\n      mstore\n      shl(0xb1, 0x3632b733ba341032b939)\n        /* \"#utility.yul\":20750:20752   */\n      0x40\n        /* \"#utility.yul\":20735:20753   */\n      dup3\n      add\n        /* \"#utility.yul\":20728:20768   */\n      mstore\n        /* \"#utility.yul\":20800:20802   */\n      0x60\n        /* \"#utility.yul\":20785:20803   */\n      add\n      swap1\n        /* \"#utility.yul\":20649:20809   */\n      jump\t// out\n        /* \"#utility.yul\":20814:21145   */\n    tag_311:\n        /* \"#utility.yul\":21016:21018   */\n      0x20\n        /* \"#utility.yul\":20998:21019   */\n      dup1\n      dup3\n      mstore\n        /* \"#utility.yul\":21055:21056   */\n      0x08\n        /* \"#utility.yul\":21035:21053   */\n      swap1\n      dup3\n      add\n        /* \"#utility.yul\":21028:21057   */\n      mstore\n      shl(0xc1, 0x3ab9b2b91032b939)\n        /* \"#utility.yul\":21088:21090   */\n      0x40\n        /* \"#utility.yul\":21073:21091   */\n      dup3\n      add\n        /* \"#utility.yul\":21066:21104   */\n      mstore\n        /* \"#utility.yul\":21136:21138   */\n      0x60\n        /* \"#utility.yul\":21121:21139   */\n      add\n      swap1\n        /* \"#utility.yul\":20988:21145   */\n      jump\t// out\n        /* \"#utility.yul\":21150:21482   */\n    tag_362:\n        /* \"#utility.yul\":21352:21354   */\n      0x20\n        /* \"#utility.yul\":21334:21355   */\n      dup1\n      dup3\n      mstore\n        /* \"#utility.yul\":21391:21392   */\n      0x09\n        /* \"#utility.yul\":21371:21389   */\n      swap1\n      dup3\n      add\n        /* \"#utility.yul\":21364:21393   */\n      mstore\n      shl(0xb9, 0x39ba30ba329032b939)\n        /* \"#utility.yul\":21424:21426   */\n      0x40\n        /* \"#utility.yul\":21409:21427   */\n      dup3\n      add\n        /* \"#utility.yul\":21402:21441   */\n      mstore\n        /* \"#utility.yul\":21473:21475   */\n      0x60\n        /* \"#utility.yul\":21458:21476   */\n      add\n      swap1\n        /* \"#utility.yul\":21324:21482   */\n      jump\t// out\n        /* \"#utility.yul\":21487:21893   */\n    tag_639:\n        /* \"#utility.yul\":21689:21691   */\n      0x20\n        /* \"#utility.yul\":21671:21692   */\n      dup1\n      dup3\n      mstore\n        /* \"#utility.yul\":21728:21730   */\n      0x2a\n        /* \"#utility.yul\":21708:21726   */\n      swap1\n      dup3\n      add\n        /* \"#utility.yul\":21701:21731   */\n      mstore\n        /* \"#utility.yul\":21767:21801   */\n      0x5361666545524332303a204552433230206f7065726174696f6e20646964206e\n        /* \"#utility.yul\":21762:21764   */\n      0x40\n        /* \"#utility.yul\":21747:21765   */\n      dup3\n      add\n        /* \"#utility.yul\":21740:21802   */\n      mstore\n      shl(0xb2, 0x1bdd081cdd58d8d95959)\n        /* \"#utility.yul\":21833:21835   */\n      0x60\n        /* \"#utility.yul\":21818:21836   */\n      dup3\n      add\n        /* \"#utility.yul\":21811:21851   */\n      mstore\n        /* \"#utility.yul\":21883:21886   */\n      0x80\n        /* \"#utility.yul\":21868:21887   */\n      add\n      swap1\n        /* \"#utility.yul\":21661:21893   */\n      jump\t// out\n        /* \"#utility.yul\":21898:22233   */\n    tag_218:\n        /* \"#utility.yul\":22100:22102   */\n      0x20\n        /* \"#utility.yul\":22082:22103   */\n      dup1\n      dup3\n      mstore\n        /* \"#utility.yul\":22139:22141   */\n      0x0b\n        /* \"#utility.yul\":22119:22137   */\n      swap1\n      dup3\n      add\n        /* \"#utility.yul\":22112:22142   */\n      mstore\n      shl(0xaa, 0x185c9c881b9bc819dbdbd9)\n        /* \"#utility.yul\":22173:22175   */\n      0x40\n        /* \"#utility.yul\":22158:22176   */\n      dup3\n      add\n        /* \"#utility.yul\":22151:22192   */\n      mstore\n        /* \"#utility.yul\":22224:22226   */\n      0x60\n        /* \"#utility.yul\":22209:22227   */\n      add\n      swap1\n        /* \"#utility.yul\":22072:22233   */\n      jump\t// out\n        /* \"#utility.yul\":22238:23376   */\n    tag_101:\n      0x00\n        /* \"#utility.yul\":22421:22423   */\n      0x20\n        /* \"#utility.yul\":22410:22419   */\n      dup3\n        /* \"#utility.yul\":22403:22424   */\n      mstore\n        /* \"#utility.yul\":22433:22488   */\n      tag_849\n        /* \"#utility.yul\":22484:22486   */\n      0x20\n        /* \"#utility.yul\":22473:22482   */\n      dup4\n        /* \"#utility.yul\":22469:22487   */\n      add\n        /* \"#utility.yul\":22460:22466   */\n      dup5\n        /* \"#utility.yul\":22454:22467   */\n      mload\n        /* \"#utility.yul\":22433:22488   */\n      tag_806\n      jump\t// in\n    tag_849:\n        /* \"#utility.yul\":22542:22544   */\n      0x20\n        /* \"#utility.yul\":22534:22540   */\n      dup4\n        /* \"#utility.yul\":22530:22545   */\n      add\n        /* \"#utility.yul\":22524:22546   */\n      mload\n        /* \"#utility.yul\":22519:22521   */\n      0x40\n        /* \"#utility.yul\":22508:22517   */\n      dup4\n        /* \"#utility.yul\":22504:22522   */\n      add\n        /* \"#utility.yul\":22497:22547   */\n      mstore\n        /* \"#utility.yul\":22594:22596   */\n      0x40\n        /* \"#utility.yul\":22586:22592   */\n      dup4\n        /* \"#utility.yul\":22582:22597   */\n      add\n        /* \"#utility.yul\":22576:22598   */\n      mload\n        /* \"#utility.yul\":22617:22623   */\n      0x0160\n        /* \"#utility.yul\":22659:22661   */\n      dup1\n        /* \"#utility.yul\":22654:22656   */\n      0x60\n        /* \"#utility.yul\":22643:22652   */\n      dup6\n        /* \"#utility.yul\":22639:22657   */\n      add\n        /* \"#utility.yul\":22632:22662   */\n      mstore\n        /* \"#utility.yul\":22685:22738   */\n      tag_850\n        /* \"#utility.yul\":22733:22736   */\n      0x0180\n        /* \"#utility.yul\":22722:22731   */\n      dup6\n        /* \"#utility.yul\":22718:22737   */\n      add\n        /* \"#utility.yul\":22704:22716   */\n      dup4\n        /* \"#utility.yul\":22685:22738   */\n      tag_808\n      jump\t// in\n    tag_850:\n        /* \"#utility.yul\":22671:22738   */\n      swap2\n      pop\n        /* \"#utility.yul\":22793:22795   */\n      0x60\n        /* \"#utility.yul\":22785:22791   */\n      dup6\n        /* \"#utility.yul\":22781:22796   */\n      add\n        /* \"#utility.yul\":22775:22797   */\n      mload\n        /* \"#utility.yul\":22769:22772   */\n      0x80\n        /* \"#utility.yul\":22758:22767   */\n      dup6\n        /* \"#utility.yul\":22754:22773   */\n      add\n        /* \"#utility.yul\":22747:22798   */\n      mstore\n        /* \"#utility.yul\":22853:22856   */\n      0x80\n        /* \"#utility.yul\":22845:22851   */\n      dup6\n        /* \"#utility.yul\":22841:22857   */\n      add\n        /* \"#utility.yul\":22835:22858   */\n      mload\n        /* \"#utility.yul\":22829:22832   */\n      0xa0\n        /* \"#utility.yul\":22818:22827   */\n      dup6\n        /* \"#utility.yul\":22814:22833   */\n      add\n        /* \"#utility.yul\":22807:22859   */\n      mstore\n        /* \"#utility.yul\":22914:22917   */\n      0xa0\n        /* \"#utility.yul\":22906:22912   */\n      dup6\n        /* \"#utility.yul\":22902:22918   */\n      add\n        /* \"#utility.yul\":22896:22919   */\n      mload\n        /* \"#utility.yul\":22890:22893   */\n      0xc0\n        /* \"#utility.yul\":22879:22888   */\n      dup6\n        /* \"#utility.yul\":22875:22894   */\n      add\n        /* \"#utility.yul\":22868:22920   */\n      mstore\n        /* \"#utility.yul\":22975:22978   */\n      0xc0\n        /* \"#utility.yul\":22967:22973   */\n      dup6\n        /* \"#utility.yul\":22963:22979   */\n      add\n        /* \"#utility.yul\":22957:22980   */\n      mload\n        /* \"#utility.yul\":22951:22954   */\n      0xe0\n        /* \"#utility.yul\":22940:22949   */\n      dup6\n        /* \"#utility.yul\":22936:22955   */\n      add\n        /* \"#utility.yul\":22929:22981   */\n      mstore\n        /* \"#utility.yul\":23018:23021   */\n      0xe0\n        /* \"#utility.yul\":23010:23016   */\n      dup6\n        /* \"#utility.yul\":23006:23022   */\n      add\n        /* \"#utility.yul\":23000:23023   */\n      mload\n        /* \"#utility.yul\":23042:23045   */\n      0x0100\n        /* \"#utility.yul\":23081:23083   */\n      dup2\n        /* \"#utility.yul\":23076:23078   */\n      dup2\n        /* \"#utility.yul\":23065:23074   */\n      dup8\n        /* \"#utility.yul\":23061:23079   */\n      add\n        /* \"#utility.yul\":23054:23084   */\n      mstore\n        /* \"#utility.yul\":23121:23123   */\n      dup1\n        /* \"#utility.yul\":23113:23119   */\n      dup8\n        /* \"#utility.yul\":23109:23124   */\n      add\n        /* \"#utility.yul\":23103:23125   */\n      mload\n        /* \"#utility.yul\":23093:23125   */\n      swap2\n      pop\n      pop\n        /* \"#utility.yul\":23144:23147   */\n      0x0120\n        /* \"#utility.yul\":23183:23185   */\n      dup2\n        /* \"#utility.yul\":23178:23180   */\n      dup2\n        /* \"#utility.yul\":23167:23176   */\n      dup8\n        /* \"#utility.yul\":23163:23181   */\n      add\n        /* \"#utility.yul\":23156:23186   */\n      mstore\n        /* \"#utility.yul\":23223:23225   */\n      dup1\n        /* \"#utility.yul\":23215:23221   */\n      dup8\n        /* \"#utility.yul\":23211:23226   */\n      add\n        /* \"#utility.yul\":23205:23227   */\n      mload\n        /* \"#utility.yul\":23195:23227   */\n      swap2\n      pop\n      pop\n        /* \"#utility.yul\":23246:23249   */\n      0x0140\n        /* \"#utility.yul\":23285:23287   */\n      dup2\n        /* \"#utility.yul\":23280:23282   */\n      dup2\n        /* \"#utility.yul\":23269:23278   */\n      dup8\n        /* \"#utility.yul\":23265:23283   */\n      add\n        /* \"#utility.yul\":23258:23288   */\n      mstore\n        /* \"#utility.yul\":23342:23344   */\n      dup1\n        /* \"#utility.yul\":23334:23340   */\n      dup8\n        /* \"#utility.yul\":23330:23345   */\n      add\n        /* \"#utility.yul\":23324:23346   */\n      mload\n        /* \"#utility.yul\":23319:23321   */\n      dup4\n        /* \"#utility.yul\":23308:23317   */\n      dup8\n        /* \"#utility.yul\":23304:23322   */\n      add\n        /* \"#utility.yul\":23297:23347   */\n      mstore\n      pop\n      pop\n      pop\n        /* \"#utility.yul\":23364:23370   */\n      dup1\n        /* \"#utility.yul\":23356:23370   */\n      swap2\n      pop\n      pop\n        /* \"#utility.yul\":22393:23376   */\n      swap3\n      swap2\n      pop\n      pop\n      jump\t// out\n        /* \"#utility.yul\":23381:23558   */\n    tag_56:\n        /* \"#utility.yul\":23527:23552   */\n      swap1\n      dup2\n      mstore\n        /* \"#utility.yul\":23515:23517   */\n      0x20\n        /* \"#utility.yul\":23500:23518   */\n      add\n      swap1\n        /* \"#utility.yul\":23482:23558   */\n      jump\t// out\n        /* \"#utility.yul\":23563:23814   */\n    tag_704:\n        /* \"#utility.yul\":23633:23635   */\n      0x40\n        /* \"#utility.yul\":23627:23636   */\n      mload\n        /* \"#utility.yul\":23663:23680   */\n      dup2\n      dup2\n      add\n        /* \"#utility.yul\":23710:23728   */\n      0xffffffffffffffff\n        /* \"#utility.yul\":23695:23729   */\n      dup2\n      gt\n        /* \"#utility.yul\":23731:23753   */\n      dup3\n      dup3\n      lt\n        /* \"#utility.yul\":23692:23754   */\n      or\n        /* \"#utility.yul\":23689:23691   */\n      iszero\n      tag_854\n      jumpi\n        /* \"#utility.yul\":23757:23775   */\n      tag_854\n      tag_736\n      jump\t// in\n    tag_854:\n        /* \"#utility.yul\":23793:23795   */\n      0x40\n        /* \"#utility.yul\":23786:23808   */\n      mstore\n        /* \"#utility.yul\":23607:23814   */\n      swap2\n      swap1\n      pop\n      jump\t// out\n        /* \"#utility.yul\":23819:24009   */\n    tag_703:\n      0x00\n        /* \"#utility.yul\":23916:23934   */\n      0xffffffffffffffff\n        /* \"#utility.yul\":23908:23914   */\n      dup3\n        /* \"#utility.yul\":23905:23935   */\n      gt\n        /* \"#utility.yul\":23902:23904   */\n      iszero\n      tag_857\n      jumpi\n        /* \"#utility.yul\":23938:23956   */\n      tag_857\n      tag_736\n      jump\t// in\n    tag_857:\n      pop\n        /* \"#utility.yul\":23998:24002   */\n      0x20\n        /* \"#utility.yul\":23979:23996   */\n      swap1\n      dup2\n      mul\n        /* \"#utility.yul\":23975:24003   */\n      add\n      swap1\n        /* \"#utility.yul\":23892:24009   */\n      jump\t// out\n        /* \"#utility.yul\":24014:24142   */\n    tag_254:\n      0x00\n        /* \"#utility.yul\":24085:24086   */\n      dup3\n        /* \"#utility.yul\":24081:24087   */\n      not\n        /* \"#utility.yul\":24078:24079   */\n      dup3\n        /* \"#utility.yul\":24075:24088   */\n      gt\n        /* \"#utility.yul\":24072:24074   */\n      iszero\n      tag_860\n      jumpi\n        /* \"#utility.yul\":24091:24109   */\n      tag_860\n      tag_861\n      jump\t// in\n    tag_860:\n      pop\n        /* \"#utility.yul\":24127:24136   */\n      add\n      swap1\n        /* \"#utility.yul\":24062:24142   */\n      jump\t// out\n        /* \"#utility.yul\":24147:24364   */\n    tag_506:\n      0x00\n        /* \"#utility.yul\":24213:24214   */\n      dup3\n        /* \"#utility.yul\":24203:24205   */\n      tag_863\n      jumpi\n      shl(0xe0, 0x4e487b71)\n        /* \"#utility.yul\":24238:24269   */\n      dup2\n      mstore\n        /* \"#utility.yul\":24292:24296   */\n      0x12\n        /* \"#utility.yul\":24289:24290   */\n      0x04\n        /* \"#utility.yul\":24282:24297   */\n      mstore\n        /* \"#utility.yul\":24320:24324   */\n      0x24\n        /* \"#utility.yul\":24245:24246   */\n      dup2\n        /* \"#utility.yul\":24310:24325   */\n      revert\n        /* \"#utility.yul\":24203:24205   */\n    tag_863:\n      pop\n        /* \"#utility.yul\":24349:24358   */\n      div\n      swap1\n        /* \"#utility.yul\":24193:24364   */\n      jump\t// out\n        /* \"#utility.yul\":24369:24537   */\n    tag_499:\n      0x00\n        /* \"#utility.yul\":24475:24476   */\n      dup2\n        /* \"#utility.yul\":24471:24472   */\n      0x00\n        /* \"#utility.yul\":24467:24473   */\n      not\n        /* \"#utility.yul\":24463:24477   */\n      div\n        /* \"#utility.yul\":24460:24461   */\n      dup4\n        /* \"#utility.yul\":24457:24478   */\n      gt\n        /* \"#utility.yul\":24452:24453   */\n      dup3\n        /* \"#utility.yul\":24445:24454   */\n      iszero\n        /* \"#utility.yul\":24438:24455   */\n      iszero\n        /* \"#utility.yul\":24434:24479   */\n      and\n        /* \"#utility.yul\":24431:24433   */\n      iszero\n      tag_866\n      jumpi\n        /* \"#utility.yul\":24482:24500   */\n      tag_866\n      tag_861\n      jump\t// in\n    tag_866:\n      pop\n        /* \"#utility.yul\":24522:24531   */\n      mul\n      swap1\n        /* \"#utility.yul\":24421:24537   */\n      jump\t// out\n        /* \"#utility.yul\":24542:24667   */\n    tag_502:\n      0x00\n        /* \"#utility.yul\":24610:24611   */\n      dup3\n        /* \"#utility.yul\":24607:24608   */\n      dup3\n        /* \"#utility.yul\":24604:24612   */\n      lt\n        /* \"#utility.yul\":24601:24603   */\n      iszero\n      tag_869\n      jumpi\n        /* \"#utility.yul\":24615:24633   */\n      tag_869\n      tag_861\n      jump\t// in\n    tag_869:\n      pop\n        /* \"#utility.yul\":24652:24661   */\n      sub\n      swap1\n        /* \"#utility.yul\":24591:24667   */\n      jump\t// out\n        /* \"#utility.yul\":24672:24930   */\n    tag_811:\n        /* \"#utility.yul\":24744:24745   */\n      0x00\n        /* \"#utility.yul\":24754:24867   */\n    tag_871:\n        /* \"#utility.yul\":24768:24774   */\n      dup4\n        /* \"#utility.yul\":24765:24766   */\n      dup2\n        /* \"#utility.yul\":24762:24775   */\n      lt\n        /* \"#utility.yul\":24754:24867   */\n      iszero\n      tag_873\n      jumpi\n        /* \"#utility.yul\":24844:24855   */\n      dup2\n      dup2\n      add\n        /* \"#utility.yul\":24838:24856   */\n      mload\n        /* \"#utility.yul\":24825:24836   */\n      dup4\n      dup3\n      add\n        /* \"#utility.yul\":24818:24857   */\n      mstore\n        /* \"#utility.yul\":24790:24792   */\n      0x20\n        /* \"#utility.yul\":24783:24793   */\n      add\n        /* \"#utility.yul\":24754:24867   */\n      jump(tag_871)\n    tag_873:\n        /* \"#utility.yul\":24885:24891   */\n      dup4\n        /* \"#utility.yul\":24882:24883   */\n      dup2\n        /* \"#utility.yul\":24879:24892   */\n      gt\n        /* \"#utility.yul\":24876:24878   */\n      iszero\n      tag_606\n      jumpi\n      pop\n      pop\n        /* \"#utility.yul\":24920:24921   */\n      0x00\n        /* \"#utility.yul\":24902:24918   */\n      swap2\n      add\n        /* \"#utility.yul\":24895:24922   */\n      mstore\n        /* \"#utility.yul\":24725:24930   */\n      jump\t// out\n        /* \"#utility.yul\":24935:25071   */\n    tag_231:\n      0x00\n        /* \"#utility.yul\":25002:25007   */\n      dup2\n        /* \"#utility.yul\":24992:24994   */\n      tag_877\n      jumpi\n        /* \"#utility.yul\":25011:25029   */\n      tag_877\n      tag_861\n      jump\t// in\n    tag_877:\n      pop\n      not(0x00)\n        /* \"#utility.yul\":25047:25065   */\n      add\n      swap1\n        /* \"#utility.yul\":24982:25071   */\n      jump\t// out\n        /* \"#utility.yul\":25076:25456   */\n    tag_297:\n        /* \"#utility.yul\":25161:25162   */\n      0x02\n        /* \"#utility.yul\":25151:25163   */\n      dup2\n      div\n        /* \"#utility.yul\":25208:25209   */\n      0x01\n        /* \"#utility.yul\":25198:25210   */\n      dup3\n      and\n      dup1\n        /* \"#utility.yul\":25219:25221   */\n      tag_879\n      jumpi\n        /* \"#utility.yul\":25273:25277   */\n      0x7f\n        /* \"#utility.yul\":25265:25271   */\n      dup3\n        /* \"#utility.yul\":25261:25278   */\n      and\n        /* \"#utility.yul\":25251:25278   */\n      swap2\n      pop\n        /* \"#utility.yul\":25219:25221   */\n    tag_879:\n        /* \"#utility.yul\":25326:25328   */\n      0x20\n        /* \"#utility.yul\":25318:25324   */\n      dup3\n        /* \"#utility.yul\":25315:25329   */\n      lt\n        /* \"#utility.yul\":25295:25313   */\n      dup2\n        /* \"#utility.yul\":25292:25330   */\n      eq\n        /* \"#utility.yul\":25289:25291   */\n      iszero\n      tag_880\n      jumpi\n        /* \"#utility.yul\":25372:25382   */\n      0x4e487b71\n        /* \"#utility.yul\":25367:25370   */\n      0xe0\n        /* \"#utility.yul\":25363:25383   */\n      shl\n        /* \"#utility.yul\":25360:25361   */\n      0x00\n        /* \"#utility.yul\":25353:25384   */\n      mstore\n        /* \"#utility.yul\":25407:25411   */\n      0x22\n        /* \"#utility.yul\":25404:25405   */\n      0x04\n        /* \"#utility.yul\":25397:25412   */\n      mstore\n        /* \"#utility.yul\":25435:25439   */\n      0x24\n        /* \"#utility.yul\":25432:25433   */\n      0x00\n        /* \"#utility.yul\":25425:25440   */\n      revert\n        /* \"#utility.yul\":25289:25291   */\n    tag_880:\n      pop\n        /* \"#utility.yul\":25131:25456   */\n      swap2\n      swap1\n      pop\n      jump\t// out\n        /* \"#utility.yul\":25461:25596   */\n    tag_229:\n      0x00\n      not(0x00)\n        /* \"#utility.yul\":25521:25538   */\n      dup3\n      eq\n        /* \"#utility.yul\":25518:25520   */\n      iszero\n      tag_883\n      jumpi\n        /* \"#utility.yul\":25541:25559   */\n      tag_883\n      tag_861\n      jump\t// in\n    tag_883:\n      pop\n        /* \"#utility.yul\":25588:25589   */\n      0x01\n        /* \"#utility.yul\":25577:25590   */\n      add\n      swap1\n        /* \"#utility.yul\":25508:25596   */\n      jump\t// out\n        /* \"#utility.yul\":25601:25728   */\n    tag_861:\n        /* \"#utility.yul\":25662:25672   */\n      0x4e487b71\n        /* \"#utility.yul\":25657:25660   */\n      0xe0\n        /* \"#utility.yul\":25653:25673   */\n      shl\n        /* \"#utility.yul\":25650:25651   */\n      0x00\n        /* \"#utility.yul\":25643:25674   */\n      mstore\n        /* \"#utility.yul\":25693:25697   */\n      0x11\n        /* \"#utility.yul\":25690:25691   */\n      0x04\n        /* \"#utility.yul\":25683:25698   */\n      mstore\n        /* \"#utility.yul\":25717:25721   */\n      0x24\n        /* \"#utility.yul\":25714:25715   */\n      0x00\n        /* \"#utility.yul\":25707:25722   */\n      revert\n        /* \"#utility.yul\":25733:25860   */\n    tag_736:\n        /* \"#utility.yul\":25794:25804   */\n      0x4e487b71\n        /* \"#utility.yul\":25789:25792   */\n      0xe0\n        /* \"#utility.yul\":25785:25805   */\n      shl\n        /* \"#utility.yul\":25782:25783   */\n      0x00\n        /* \"#utility.yul\":25775:25806   */\n      mstore\n        /* \"#utility.yul\":25825:25829   */\n      0x41\n        /* \"#utility.yul\":25822:25823   */\n      0x04\n        /* \"#utility.yul\":25815:25830   */\n      mstore\n        /* \"#utility.yul\":25849:25853   */\n      0x24\n        /* \"#utility.yul\":25846:25847   */\n      0x00\n        /* \"#utility.yul\":25839:25854   */\n      revert\n        /* \"#utility.yul\":25865:25998   */\n    tag_697:\n      sub(shl(0xa0, 0x01), 0x01)\n        /* \"#utility.yul\":25942:25973   */\n      dup2\n      and\n        /* \"#utility.yul\":25932:25974   */\n      dup2\n      eq\n        /* \"#utility.yul\":25922:25924   */\n      tag_479\n      jumpi\n        /* \"#utility.yul\":25988:25989   */\n      0x00\n        /* \"#utility.yul\":25985:25986   */\n      dup1\n        /* \"#utility.yul\":25978:25990   */\n      revert\n        /* \"#utility.yul\":26003:26123   */\n    tag_731:\n        /* \"#utility.yul\":26091:26096   */\n      dup1\n        /* \"#utility.yul\":26084:26097   */\n      iszero\n        /* \"#utility.yul\":26077:26098   */\n      iszero\n        /* \"#utility.yul\":26070:26075   */\n      dup2\n        /* \"#utility.yul\":26067:26099   */\n      eq\n        /* \"#utility.yul\":26057:26059   */\n      tag_479\n      jumpi\n        /* \"#utility.yul\":26113:26114   */\n      0x00\n        /* \"#utility.yul\":26110:26111   */\n      dup1\n        /* \"#utility.yul\":26103:26115   */\n      revert\n\n    auxdata: 0xa2646970667358221220995dd953fd6f0cea38b4d76c98e50d16bd3eabbb5678ceb75e3e647ad6def8ac64736f6c63430008000033\n}\n",
				"bytecode": {
					"linkReferences": {},
					"object": "608060405234801561001057600080fd5b506136a9806100206000396000f3fe608060405234801561001057600080fd5b50600436106102115760003560e01c80637ce3489b11610125578063db4a5aa9116100ad578063f14053ad1161007c578063f14053ad14610449578063f2fde38b14610451578063f7ab69fd14610464578063f8c8765e1461046c578063fc234d061461047f57610211565b8063db4a5aa9146103fd578063e4e9552014610410578063ec4c4f3414610423578063f0c765e41461043657610211565b8063a0ad12e2116100f4578063a0ad12e2146103a9578063a8ecb028146103bc578063aaf5eb68146103cf578063aecf77b1146103d7578063c2ec527d146103ea57610211565b80637ce3489b1461037e5780637dc0d1d0146103915780637fd6f15c146103995780638da5cb5b146103a157610211565b806343b1f3cb116101a85780636c19e783116101775780636c19e783146103185780636e8124371461032b57806370ac1e601461033e578063715018a6146103615780637be3a1a11461036b57610211565b806343b1f3cb146102bf57806348c7e528146102d25780634b989ce3146102e55780636ab34a4a146102f857610211565b8063238ac933116101e4578063238ac933146102945780632705c55b1461029c5780633011d3d5146102af578063323b9b2b146102b757610211565b8063080270a8146102165780630f58d2421461023f5780631e1bff3f1461025f5780631e64610c1461027f575b600080fd5b610229610224366004612b52565b610492565b6040516102369190612ff9565b60405180910390f35b61025261024d366004612e4d565b610756565b60405161023691906134c6565b61027261026d366004612a94565b610777565b604051610236919061303d565b6102876107e7565b6040516102369190612fa8565b6102876107f6565b6102726102aa366004612f28565b610805565b610287610956565b610252610965565b6102526102cd366004612e4d565b61096b565b6102726102e0366004612a78565b61097d565b6102726102f3366004612ba8565b610992565b61030b610306366004612e4d565b610b8f565b6040516102369190613422565b610272610326366004612a78565b610cbc565b610272610339366004612c83565b610d22565b61035161034c366004612f28565b610d76565b6040516102369493929190613081565b610369610edc565b005b610252610379366004612b27565b610f27565b61027261038c366004612e4d565b610f44565b610287610f8e565b610252610f9d565b610287610fa3565b6102726103b7366004612c83565b610fb2565b6102726103ca366004612d05565b611000565b610252611457565b6102526103e5366004612a78565b61145d565b6102526103f8366004612b27565b611478565b61027261040b366004612d9f565b6114a9565b61025261041e366004612a78565b6118d6565b610252610431366004612b27565b6118f1565b610252610444366004612b27565b61190d565b61025261192a565b61036961045f366004612a78565b611930565b6102526119a1565b61036961047a366004612acc565b6119a7565b61027261048d366004612e7d565b611a89565b606060008082866104f557606c8054806020026020016040519081016040528092919081815260200182805480156104e957602002820191906000526020600020905b8154815260200190600101908083116104d5575b505050505090506105d5565b8660011415610566576001600160a01b0388166000908152606e6020908152604091829020805483518184028101840190945280845290918301828280156104e957602002820191906000526020600020908154815260200190600101908083116104d557505050505090506105d5565b86600214156105d5576001600160a01b038816600090815260706020908152604091829020805483518184028101840190945280845290918301828280156105cd57602002820191906000526020600020905b8154815260200190600101908083116105b9575b505050505090505b60006105f66105ee886105e8818a611bee565b90611bfa565b835190611bfa565b90508681106106075786925061060b565b8092505b815161061b886105e8818a611bee565b106106415760405162461bcd60e51b81526004016106389061334a565b60405180910390fd5b8261065e5760405162461bcd60e51b8152600401610638906133fd565b60008367ffffffffffffffff81111561068757634e487b7160e01b600052604160045260246000fd5b6040519080825280602002602001820160405280156106b0578160200160208202803683370190505b50905060006106c0836001611bfa565b90505b84861015610748578381815181106106eb57634e487b7160e01b600052603260045260246000fd5b602002602001015182878151811061071357634e487b7160e01b600052603260045260246000fd5b60209081029190910101528061072857610748565b8561073281613609565b9650508080610740906135b7565b9150506106c3565b509998505050505050505050565b606c818154811061076657600080fd5b600091825260209091200154905081565b6000610781611c06565b6001600160a01b0316610792610fa3565b6001600160a01b0316146107b85760405162461bcd60e51b8152600401610638906132de565b506001600160a01b0382166000908152606560205260409020805482151560ff19909116179055600192915050565b6068546001600160a01b031681565b6066546001600160a01b031681565b6000838152606a6020526040812060098101546004820154839182918291908890600114156108c15785600501548110156108bc5760058601546108499082611bfa565b9450610867670de0b6b3a76400006108618785611bee565b90611c0a565b935061089a670de0b6b3a76400006108616073546108616072546108948789611bee90919063ffffffff16565b90611bee565b92506108a6838561351d565b8810156108bc576000965050505050505061094f565b610944565b85600501548111156109445760058601546108dd908290611bfa565b94506108f5670de0b6b3a76400006108618785611bee565b9350610922670de0b6b3a76400006108616073546108616072546108948789611bee90919063ffffffff16565b925061092e838561351d565b881015610944576000965050505050505061094f565b600196505050505050505b9392505050565b6067546001600160a01b031681565b606c5490565b606d6020526000908152604090205481565b60656020526000908152604090205460ff1681565b3360009081526065602052604081205460ff166109c15760405162461bcd60e51b815260040161063890613171565b6000805b8751811015610b63576000606a60008a84815181106109f457634e487b7160e01b600052603260045260246000fd5b602002602001015181526020019081526020016000209050610a69898381518110610a2f57634e487b7160e01b600052603260045260246000fd5b6020026020010151878481518110610a5757634e487b7160e01b600052603260045260246000fd5b602002602001015183600a0154610805565b610b505782610a7781613609565b935050610b4e8a8260038c8681518110610aa157634e487b7160e01b600052603260045260246000fd5b60200260200101518c8781518110610ac957634e487b7160e01b600052603260045260246000fd5b60200260200101518c8881518110610af157634e487b7160e01b600052603260045260246000fd5b60200260200101518c8981518110610b1957634e487b7160e01b600052603260045260246000fd5b60200260200101518c8a81518110610b4157634e487b7160e01b600052603260045260246000fd5b6020026020010151611c16565b505b5080610b5b81613609565b9150506109c5565b5080610b815760405162461bcd60e51b8152600401610638906131b5565b506001979650505050505050565b610b976127e5565b6000828152606a602090815260409182902082516101608101845281546001600160a01b031681526001820154928101929092526002810180549293919291840191610be2906135ce565b80601f0160208091040260200160405190810160405280929190818152602001828054610c0e906135ce565b8015610c5b5780601f10610c3057610100808354040283529160200191610c5b565b820191906000526020600020905b815481529060010190602001808311610c3e57829003601f168201915b5050505050815260200160038201548152602001600482015481526020016005820154815260200160068201548152602001600782015481526020016008820154815260200160098201548152602001600a8201548152505090505b919050565b6000610cc6611c06565b6001600160a01b0316610cd7610fa3565b6001600160a01b031614610cfd5760405162461bcd60e51b8152600401610638906132de565b50606680546001600160a01b0383166001600160a01b03199091161790556001919050565b6000858152606a6020526040812080546001600160a01b03163314610d595760405162461bcd60e51b81526004016106389061336e565b610d6a888260028a8a8a8a8a611c16565b98975050505050505050565b6000838152606a6020526040812060098101546004820154839283928392839182918291908b9060011415610e33578560050154811015610e2e576005860154610dc09082611bfa565b9450610dd8670de0b6b3a76400006108618785611bee565b9350610e05670de0b6b3a76400006108616073546108616072546108948789611bee90919063ffffffff16565b9250610e11838561351d565b8b1015610e2e5750600098508997509195509350610ed392505050565b610ebd565b8560050154811115610ebd576005860154610e4f908290611bfa565b9450610e67670de0b6b3a76400006108618785611bee565b9350610e94670de0b6b3a76400006108616073546108616072546108948789611bee90919063ffffffff16565b9250610ea0838561351d565b8b1015610ebd5750600098508997509195509350610ed392505050565b6001600080600099509950995099505050505050505b93509350935093565b610ee4611c06565b6001600160a01b0316610ef5610fa3565b6001600160a01b031614610f1b5760405162461bcd60e51b8152600401610638906132de565b610f25600061231c565b565b606f60209081526000928352604080842090915290825290205481565b6000610f4e611c06565b6001600160a01b0316610f5f610fa3565b6001600160a01b031614610f855760405162461bcd60e51b8152600401610638906132de565b50607255600190565b6069546001600160a01b031681565b60725481565b6033546001600160a01b031690565b3360009081526065602052604081205460ff16610fe15760405162461bcd60e51b815260040161063890613171565b6000868152606a60205260409020610d6a888260048a8a8a8a8a611c16565b6000868152606a6020526040812080546001600160a01b03166110355760405162461bcd60e51b8152600401610638906130b1565b60028160030154106110595760405162461bcd60e51b815260040161063890613390565b6069546040516311cdc9d960e11b81526001600160a01b039091169063239b93b290611091908c9089908c908c908b90600401613048565b60206040518083038186803b1580156110a957600080fd5b505afa1580156110bd573d6000803e3d6000fd5b505050506040513d601f19601f820116820180604052508101906110e19190612b8c565b6110fd5760405162461bcd60e51b81526004016106389061314d565b611108888685610805565b6111245760405162461bcd60e51b8152600401610638906132b4565b6000611155670de0b6b3a76400006108616073546108616072546108948c8960090154611bee90919063ffffffff16565b905060006111a6611183670de0b6b3a764000061086186600901548760050154611bee90919063ffffffff16565b6105e8670de0b6b3a764000061086187600901548c611bee90919063ffffffff16565b905060006111c18285600a015461236e90919063ffffffff16565b90506000816111d08886611bfa565b1115611266576111e4826105e88987611bfa565b6067549091506111ff906001600160a01b031633308461237a565b606754604051630852cd8d60e31b81526001600160a01b03909116906342966c689061122f9084906004016134c6565b600060405180830381600087803b15801561124957600080fd5b505af115801561125d573d6000803e3d6000fd5b50505050611305565b61127a6112738886611bfa565b8390611bfa565b60675486546040516340c10f1960e01b81529293506001600160a01b03918216926340c10f19926112b19216908590600401612fe0565b602060405180830381600087803b1580156112cb57600080fd5b505af11580156112df573d6000803e3d6000fd5b505050506040513d601f19601f820116820180604052508101906113039190612b8c565b505b6067546040516340c10f1960e01b81526001600160a01b03909116906340c10f19906113379030908890600401612fe0565b602060405180830381600087803b15801561135157600080fd5b505af1158015611365573d6000803e3d6000fd5b505050506040513d601f19601f820116820180604052508101906113899190612b8c565b506068546067546113a7916001600160a01b039182169116866123d8565b606860009054906101000a90046001600160a01b03166001600160a01b031663d10c06a26040518163ffffffff1660e01b8152600401602060405180830381600087803b1580156113f757600080fd5b505af115801561140b573d6000803e3d6000fd5b505050506040513d601f19601f8201168201806040525081019061142f9190612b8c565b5061143a8785611bfa565b600a86015550505050600501849055506001979650505050505050565b60735481565b6001600160a01b031660009081526070602052604090205490565b606e602052816000526040600020818154811061149457600080fd5b90600052602060002001600091509150505481565b606b546000908152606a60205260408120896114d75760405162461bcd60e51b8152600401610638906130df565b6003810154156114f95760405162461bcd60e51b815260040161063890613390565b6069546040516311cdc9d960e11b81526001600160a01b039091169063239b93b290611531908e9089908e908c908a90600401613048565b60206040518083038186803b15801561154957600080fd5b505afa15801561155d573d6000803e3d6000fd5b505050506040513d601f19601f820116820180604052508101906115819190612b8c565b61159d5760405162461bcd60e51b81526004016106389061314d565b6074548a116115be5760405162461bcd60e51b815260040161063890613271565b6067546115d6906001600160a01b031633308d61237a565b6067546040516370a0823160e01b81526000916001600160a01b0316906370a0823190611607903090600401612fa8565b60206040518083038186803b15801561161f57600080fd5b505afa158015611633573d6000803e3d6000fd5b505050506040513d601f19601f820116820180604052508101906116579190612e65565b90506000611686670de0b6b3a76400006108616073546108616072546108948c8e611bee90919063ffffffff16565b6068546067549192506116a6916001600160a01b039081169116836123d8565b606860009054906101000a90046001600160a01b03166001600160a01b031663d10c06a26040518163ffffffff1660e01b8152600401602060405180830381600087803b1580156116f657600080fd5b505af115801561170a573d6000803e3d6000fd5b505050506040513d601f19601f8201168201806040525081019061172e9190612b8c565b506067546001600160a01b03166342966c6861174a8484611bfa565b6040518263ffffffff1660e01b815260040161176691906134c6565b600060405180830381600087803b15801561178057600080fd5b505af1158015611794573d6000803e3d6000fd5b5050606b54606c80546001818101835560008390527f2b4a51ab505fc96a0952efda2ba61bcd3078d4c02c39a186ec16f21883fbe01690910192909255546117de93509150611bfa565b606b80546000908152606d602090815260408083209490945533808352606e8083528584208554815460018181018455838852868820909101919091559554928552606f84529584209252935490926118379190611bfa565b815260200190815260200160002081905550606b600081548092919061185c90613609565b909155505082546001600160a01b0319163317835560018301899055875161188d90600285019060208b0190612848565b5060016003840155600483018a905560058301879055600683018b9055600983018690556118bb8282611bfa565b600a909301929092555060019b9a5050505050505050505050565b6001600160a01b03166000908152606e602052604090205490565b6070602052816000526040600020818154811061149457600080fd5b607160209081526000928352604080842090915290825290205481565b60745481565b611938611c06565b6001600160a01b0316611949610fa3565b6001600160a01b03161461196f5760405162461bcd60e51b8152600401610638906132de565b6001600160a01b0381166119955760405162461bcd60e51b815260040161063890613107565b61199e8161231c565b50565b606b5481565b600054610100900460ff16806119c0575060005460ff16155b6119dc5760405162461bcd60e51b815260040161063890613223565b600054610100900460ff16158015611a07576000805460ff1961ff0019909116610100171660011790555b611a0f6123fc565b606680546001600160a01b038088166001600160a01b03199283161790925560688054878416908316179055606780548684169083161790556127106073556069805492851692909116919091179055670de0b6b3a764000060745560326072558015611a82576000805461ff00191690555b5050505050565b6000611a93611c06565b6001600160a01b0316611aa4610fa3565b6001600160a01b031614611aca5760405162461bcd60e51b8152600401610638906132de565b6040518061016001604052808d6001600160a01b031681526020018c81526020018b81526020018a815260200189815260200188815260200187815260200186815260200185815260200184815260200183815250606a60008f815260200190815260200160002060008201518160000160006101000a8154816001600160a01b0302191690836001600160a01b03160217905550602082015181600101556040820151816002019080519060200190611b85929190612848565b50606082015160038201556080820151600482015560a0820151600582015560c0820151600682015560e082015160078201556101008201516008820155610120820151600982015561014090910151600a909101555060019c9b505050505050505050505050565b600061094f8284613555565b600061094f8284613574565b3390565b600061094f8284613535565b86546000906001600160a01b0316611c405760405162461bcd60e51b8152600401610638906130b1565b6002886003015410611c645760405162461bcd60e51b815260040161063890613390565b6069546040516311cdc9d960e11b81526001600160a01b039091169063239b93b290611c9c908c9087908a908a908990600401613048565b60206040518083038186803b158015611cb457600080fd5b505afa158015611cc8573d6000803e3d6000fd5b505050506040513d601f19601f82011682018060405250810190611cec9190612b8c565b611d085760405162461bcd60e51b81526004016106389061314d565b6007880183905560098801546073546072546000928392839288918491611d4491670de0b6b3a76400009161086191908290610894888a611bee565b90508d600401546001141561202a578d600501548e600701541115611ec25760058e015460078f0154611d7691611bfa565b9550611d8e670de0b6b3a76400006108618886611bee565b600a8f0154909550611da0908661236e565b6067546068546040516340c10f1960e01b81529296506001600160a01b03918216926340c10f1992611dd89216908590600401612fe0565b602060405180830381600087803b158015611df257600080fd5b505af1158015611e06573d6000803e3d6000fd5b505050506040513d601f19601f82011682018060405250810190611e2a9190612b8c565b506067548e546001600160a01b03918216916340c10f199116611e4d8785611bfa565b6040518363ffffffff1660e01b8152600401611e6a929190612fe0565b602060405180830381600087803b158015611e8457600080fd5b505af1158015611e98573d6000803e3d6000fd5b505050506040513d601f19601f82011682018060405250810190611ebc9190612b8c565b50612025565b60078e015460058f0154611ed591611bfa565b9550611ee18684611bee565b94508d600a0154851115611ef85760009350612025565b600a8e0154611f079086611bfa565b6067546068546040516340c10f1960e01b81529296506001600160a01b03918216926340c10f1992611f3f9216908590600401612fe0565b602060405180830381600087803b158015611f5957600080fd5b505af1158015611f6d573d6000803e3d6000fd5b505050506040513d601f19601f82011682018060405250810190611f919190612b8c565b506067548e546001600160a01b03918216916340c10f199116611fb48785611bfa565b6040518363ffffffff1660e01b8152600401611fd1929190612fe0565b602060405180830381600087803b158015611feb57600080fd5b505af1158015611fff573d6000803e3d6000fd5b505050506040513d601f19601f820116820180604052508101906120239190612b8c565b505b6121e6565b8d600501548e6007015410156120775760078e015460058f015461204d91611bfa565b9550612065670de0b6b3a76400006108618886611bee565b600a8f0154909550611f07908661236e565b60058e015460078f015461208a91611bfa565b95506120a2670de0b6b3a76400006108618886611bee565b94508d600a01548511156120b957600093506121e6565b600a8e01546120c89086611bfa565b6067546068546040516340c10f1960e01b81529296506001600160a01b03918216926340c10f19926121009216908590600401612fe0565b602060405180830381600087803b15801561211a57600080fd5b505af115801561212e573d6000803e3d6000fd5b505050506040513d601f19601f820116820180604052508101906121529190612b8c565b506067548e546001600160a01b03918216916340c10f1991166121758785611bfa565b6040518363ffffffff1660e01b8152600401612192929190612fe0565b602060405180830381600087803b1580156121ac57600080fd5b505af11580156121c0573d6000803e3d6000fd5b505050506040513d601f19601f820116820180604052508101906121e49190612b8c565b505b606860009054906101000a90046001600160a01b03166001600160a01b031663d10c06a26040518163ffffffff1660e01b8152600401602060405180830381600087803b15801561223657600080fd5b505af115801561224a573d6000803e3d6000fd5b505050506040513d601f19601f8201168201806040525081019061226e9190612b8c565b5060038e018d905560078e0189905560088e018b90556122918c606d606c612480565b336000908152606f60209081526040808320606e9092529091206122b6918e91612480565b336000818152607060209081526040822080546001818101835591845291909220018e90556122e8916105e89061145d565b3360009081526071602090815260408083209f83529e90529c909c209b909b555060019d9c50505050505050505050505050565b603380546001600160a01b038381166001600160a01b0319831681179093556040519116919082907f8be0079c531659141344cd1fd0a4f28419497f9722a3daafe3b4186f6b6457e090600090a35050565b600061094f828461351d565b6123d2846323b872dd60e01b85858560405160240161239b93929190612fbc565b60408051601f198184030181529190526020810180516001600160e01b03166001600160e01b03199093169290921790915261255d565b50505050565b6123f78363a9059cbb60e01b848460405160240161239b929190612fe0565b505050565b600054610100900460ff1680612415575060005460ff16155b6124315760405162461bcd60e51b815260040161063890613223565b600054610100900460ff1615801561245c576000805460ff1961ff0019909116610100171660011790555b6124646125ec565b61246c61265f565b801561199e576000805461ff001916905550565b600083815260208390526040812054825490919083906124a1906001611bfa565b815481106124bf57634e487b7160e01b600052603260045260246000fd5b9060005260206000200154905081846000838152602001908152602001600020819055508083838154811061250457634e487b7160e01b600052603260045260246000fd5b6000918252602080832090910192909255868152908590526040812055825483908061254057634e487b7160e01b600052603160045260246000fd5b600190038181906000526020600020016000905590555050505050565b60006125b2826040518060400160405280602081526020017f5361666545524332303a206c6f772d6c6576656c2063616c6c206661696c6564815250856001600160a01b03166126cf9092919063ffffffff16565b8051909150156123f757808060200190518101906125d09190612b8c565b6123f75760405162461bcd60e51b8152600401610638906133b3565b600054610100900460ff1680612605575060005460ff16155b6126215760405162461bcd60e51b815260040161063890613223565b600054610100900460ff1615801561246c576000805460ff1961ff001990911661010017166001179055801561199e576000805461ff001916905550565b600054610100900460ff1680612678575060005460ff16155b6126945760405162461bcd60e51b815260040161063890613223565b600054610100900460ff161580156126bf576000805460ff1961ff0019909116610100171660011790555b61246c6126ca611c06565b61231c565b60606126de84846000856126e6565b949350505050565b6060824710156127085760405162461bcd60e51b8152600401610638906131dd565b612711856127a6565b61272d5760405162461bcd60e51b815260040161063890613313565b600080866001600160a01b031685876040516127499190612f8c565b60006040518083038185875af1925050503d8060008114612786576040519150601f19603f3d011682016040523d82523d6000602084013e61278b565b606091505b509150915061279b8282866127ac565b979650505050505050565b3b151590565b606083156127bb57508161094f565b8251156127cb5782518084602001fd5b8160405162461bcd60e51b8152600401610638919061309e565b60405180610160016040528060006001600160a01b03168152602001600081526020016060815260200160008152602001600081526020016000815260200160008152602001600081526020016000815260200160008152602001600081525090565b828054612854906135ce565b90600052602060002090601f01602090048101928261287657600085556128bc565b82601f1061288f57805160ff19168380011785556128bc565b828001600101855582156128bc579182015b828111156128bc5782518255916020019190600101906128a1565b506128c89291506128cc565b5090565b5b808211156128c857600081556001016128cd565b8035610cb781613650565b600082601f8301126128fc578081fd5b8135602061291161290c836134f9565b6134cf565b82815281810190858301855b8581101561294657612934898684358b0101612a0d565b8452928401929084019060010161291d565b5090979650505050505050565b600082601f830112612963578081fd5b8135602061297361290c836134f9565b82815281810190858301855b8581101561294657612996898684358b0101612a0d565b8452928401929084019060010161297f565b600082601f8301126129b8578081fd5b813560206129c861290c836134f9565b82815281810190858301838502870184018810156129e4578586fd5b855b85811015612946578135845292840192908401906001016129e6565b8035610cb781613665565b600082601f830112612a1d578081fd5b813567ffffffffffffffff811115612a3757612a3761363a565b612a4a601f8201601f19166020016134cf565b818152846020838601011115612a5e578283fd5b816020850160208301379081016020019190915292915050565b600060208284031215612a89578081fd5b813561094f81613650565b60008060408385031215612aa6578081fd5b8235612ab181613650565b91506020830135612ac181613665565b809150509250929050565b60008060008060808587031215612ae1578182fd5b8435612aec81613650565b93506020850135612afc81613650565b92506040850135612b0c81613650565b91506060850135612b1c81613650565b939692955090935050565b60008060408385031215612b39578182fd5b8235612b4481613650565b946020939093013593505050565b60008060008060808587031215612b67578384fd5b8435612b7281613650565b966020860135965060408601359560600135945092505050565b600060208284031215612b9d578081fd5b815161094f81613665565b60008060008060008060c08789031215612bc0578384fd5b612bc987612a02565b9550602087013567ffffffffffffffff80821115612be5578586fd5b612bf18a838b016129a8565b96506040890135915080821115612c06578586fd5b612c128a838b016129a8565b95506060890135915080821115612c27578384fd5b612c338a838b01612953565b94506080890135915080821115612c48578384fd5b612c548a838b016129a8565b935060a0890135915080821115612c69578283fd5b50612c7689828a016128ec565b9150509295509295509295565b60008060008060008060c08789031215612c9b578384fd5b8635612ca681613665565b95506020870135945060408701359350606087013567ffffffffffffffff80821115612cd0578384fd5b612cdc8a838b01612a0d565b94506080890135935060a0890135915080821115612cf8578283fd5b50612c7689828a01612a0d565b600080600080600080600060e0888a031215612d1f578485fd5b8735612d2a81613665565b96506020880135955060408801359450606088013567ffffffffffffffff80821115612d54578283fd5b612d608b838c01612a0d565b955060808a0135945060a08a0135915080821115612d7c578283fd5b50612d898a828b01612a0d565b92505060c0880135905092959891949750929550565b60008060008060008060008060006101208a8c031215612dbd578283fd5b8935612dc881613665565b985060208a0135975060408a0135965060608a0135955060808a0135945060a08a013567ffffffffffffffff80821115612e00578485fd5b612e0c8d838e01612a0d565b955060c08c0135945060e08c013593506101008c0135915080821115612e30578283fd5b50612e3d8c828d01612a0d565b9150509295985092959850929598565b600060208284031215612e5e578081fd5b5035919050565b600060208284031215612e76578081fd5b5051919050565b6000806000806000806000806000806000806101808d8f031215612e9f578586fd5b8c359b50612eaf60208e016128e1565b9a5060408d0135995067ffffffffffffffff60608e01351115612ed0578586fd5b612ee08e60608f01358f01612a0d565b9b9e9a9d50989b60808101359a60a08201359a5060c0820135995060e08201359850610100820135975061012082013596506101408201359550610160909101359350915050565b600080600060608486031215612f3c578081fd5b505081359360208301359350604090920135919050565b6001600160a01b03169052565b60008151808452612f7881602086016020860161358b565b601f01601f19169290920160200192915050565b60008251612f9e81846020870161358b565b9190910192915050565b6001600160a01b0391909116815260200190565b6001600160a01b039384168152919092166020820152604081019190915260600190565b6001600160a01b03929092168252602082015260400190565b6020808252825182820181905260009190848201906040850190845b8181101561303157835183529284019291840191600101613015565b50909695505050505050565b901515815260200190565b6000861515825285602083015284604083015260a0606083015261306f60a0830185612f60565b8281036080840152610d6a8185612f60565b931515845260208401929092526040830152606082015260800190565b60006020825261094f6020830184612f60565b6020808252601490820152731bdc99195c88191bd95cc81b9bdd08195e1a5cdd60621b604082015260600190565b6020808252600e908201526d1b585c99da5b881b9bc819dbdbd960921b604082015260600190565b60208082526026908201527f4f776e61626c653a206e6577206f776e657220697320746865207a65726f206160408201526564647265737360d01b606082015260800190565b6020808252600a908201526937b930b1b6329032b93960b11b604082015260600190565b60208082526024908201527f6578656375746f723a2063616c6c6572206973206e6f742074686520657865636040820152633aba37b960e11b606082015260800190565b6020808252600e908201526d2737903634b8bab4b230ba34b7b760911b604082015260600190565b60208082526026908201527f416464726573733a20696e73756666696369656e742062616c616e636520666f6040820152651c8818d85b1b60d21b606082015260800190565b6020808252602e908201527f496e697469616c697a61626c653a20636f6e747261637420697320616c72656160408201526d191e481a5b9a5d1a585b1a5e995960921b606082015260800190565b60208082526023908201527f546865207472616e73616374696f6e20616d6f756e7420697320746f6f20736d604082015262185b1b60ea1b606082015260800190565b60208082526010908201526f155cd95c881a5cc818985b9adc9d5c1d60821b604082015260600190565b6020808252818101527f4f776e61626c653a2063616c6c6572206973206e6f7420746865206f776e6572604082015260600190565b6020808252601d908201527f416464726573733a2063616c6c20746f206e6f6e2d636f6e7472616374000000604082015260600190565b6020808252600a90820152693632b733ba341032b93960b11b604082015260600190565b6020808252600890820152673ab9b2b91032b93960c11b604082015260600190565b60208082526009908201526839ba30ba329032b93960b91b604082015260600190565b6020808252602a908201527f5361666545524332303a204552433230206f7065726174696f6e20646964206e6040820152691bdd081cdd58d8d9595960b21b606082015260800190565b6020808252600b908201526a185c9c881b9bc819dbdbd960aa1b604082015260600190565b600060208252613436602083018451612f53565b60208301516040830152604083015161016080606085015261345c610180850183612f60565b915060608501516080850152608085015160a085015260a085015160c085015260c085015160e085015260e0850151610100818187015280870151915050610120818187015280870151915050610140818187015280870151838701525050508091505092915050565b90815260200190565b60405181810167ffffffffffffffff811182821017156134f1576134f161363a565b604052919050565b600067ffffffffffffffff8211156135135761351361363a565b5060209081020190565b6000821982111561353057613530613624565b500190565b60008261355057634e487b7160e01b81526012600452602481fd5b500490565b600081600019048311821515161561356f5761356f613624565b500290565b60008282101561358657613586613624565b500390565b60005b838110156135a657818101518382015260200161358e565b838111156123d25750506000910152565b6000816135c6576135c6613624565b506000190190565b6002810460018216806135e257607f821691505b6020821081141561360357634e487b7160e01b600052602260045260246000fd5b50919050565b600060001982141561361d5761361d613624565b5060010190565b634e487b7160e01b600052601160045260246000fd5b634e487b7160e01b600052604160045260246000fd5b6001600160a01b038116811461199e57600080fd5b801515811461199e57600080fdfea2646970667358221220995dd953fd6f0cea38b4d76c98e50d16bd3eabbb5678ceb75e3e647ad6def8ac64736f6c63430008000033",
					"opcodes": "PUSH1 0x80 PUSH1 0x40 MSTORE CALLVALUE DUP1 ISZERO PUSH2 0x10 JUMPI PUSH1 0x0 DUP1 REVERT JUMPDEST POP PUSH2 0x36A9 DUP1 PUSH2 0x20 PUSH1 0x0 CODECOPY PUSH1 0x0 RETURN INVALID PUSH1 0x80 PUSH1 0x40 MSTORE CALLVALUE DUP1 ISZERO PUSH2 0x10 JUMPI PUSH1 0x0 DUP1 REVERT JUMPDEST POP PUSH1 0x4 CALLDATASIZE LT PUSH2 0x211 JUMPI PUSH1 0x0 CALLDATALOAD PUSH1 0xE0 SHR DUP1 PUSH4 0x7CE3489B GT PUSH2 0x125 JUMPI DUP1 PUSH4 0xDB4A5AA9 GT PUSH2 0xAD JUMPI DUP1 PUSH4 0xF14053AD GT PUSH2 0x7C JUMPI DUP1 PUSH4 0xF14053AD EQ PUSH2 0x449 JUMPI DUP1 PUSH4 0xF2FDE38B EQ PUSH2 0x451 JUMPI DUP1 PUSH4 0xF7AB69FD EQ PUSH2 0x464 JUMPI DUP1 PUSH4 0xF8C8765E EQ PUSH2 0x46C JUMPI DUP1 PUSH4 0xFC234D06 EQ PUSH2 0x47F JUMPI PUSH2 0x211 JUMP JUMPDEST DUP1 PUSH4 0xDB4A5AA9 EQ PUSH2 0x3FD JUMPI DUP1 PUSH4 0xE4E95520 EQ PUSH2 0x410 JUMPI DUP1 PUSH4 0xEC4C4F34 EQ PUSH2 0x423 JUMPI DUP1 PUSH4 0xF0C765E4 EQ PUSH2 0x436 JUMPI PUSH2 0x211 JUMP JUMPDEST DUP1 PUSH4 0xA0AD12E2 GT PUSH2 0xF4 JUMPI DUP1 PUSH4 0xA0AD12E2 EQ PUSH2 0x3A9 JUMPI DUP1 PUSH4 0xA8ECB028 EQ PUSH2 0x3BC JUMPI DUP1 PUSH4 0xAAF5EB68 EQ PUSH2 0x3CF JUMPI DUP1 PUSH4 0xAECF77B1 EQ PUSH2 0x3D7 JUMPI DUP1 PUSH4 0xC2EC527D EQ PUSH2 0x3EA JUMPI PUSH2 0x211 JUMP JUMPDEST DUP1 PUSH4 0x7CE3489B EQ PUSH2 0x37E JUMPI DUP1 PUSH4 0x7DC0D1D0 EQ PUSH2 0x391 JUMPI DUP1 PUSH4 0x7FD6F15C EQ PUSH2 0x399 JUMPI DUP1 PUSH4 0x8DA5CB5B EQ PUSH2 0x3A1 JUMPI PUSH2 0x211 JUMP JUMPDEST DUP1 PUSH4 0x43B1F3CB GT PUSH2 0x1A8 JUMPI DUP1 PUSH4 0x6C19E783 GT PUSH2 0x177 JUMPI DUP1 PUSH4 0x6C19E783 EQ PUSH2 0x318 JUMPI DUP1 PUSH4 0x6E812437 EQ PUSH2 0x32B JUMPI DUP1 PUSH4 0x70AC1E60 EQ PUSH2 0x33E JUMPI DUP1 PUSH4 0x715018A6 EQ PUSH2 0x361 JUMPI DUP1 PUSH4 0x7BE3A1A1 EQ PUSH2 0x36B JUMPI PUSH2 0x211 JUMP JUMPDEST DUP1 PUSH4 0x43B1F3CB EQ PUSH2 0x2BF JUMPI DUP1 PUSH4 0x48C7E528 EQ PUSH2 0x2D2 JUMPI DUP1 PUSH4 0x4B989CE3 EQ PUSH2 0x2E5 JUMPI DUP1 PUSH4 0x6AB34A4A EQ PUSH2 0x2F8 JUMPI PUSH2 0x211 JUMP JUMPDEST DUP1 PUSH4 0x238AC933 GT PUSH2 0x1E4 JUMPI DUP1 PUSH4 0x238AC933 EQ PUSH2 0x294 JUMPI DUP1 PUSH4 0x2705C55B EQ PUSH2 0x29C JUMPI DUP1 PUSH4 0x3011D3D5 EQ PUSH2 0x2AF JUMPI DUP1 PUSH4 0x323B9B2B EQ PUSH2 0x2B7 JUMPI PUSH2 0x211 JUMP JUMPDEST DUP1 PUSH4 0x80270A8 EQ PUSH2 0x216 JUMPI DUP1 PUSH4 0xF58D242 EQ PUSH2 0x23F JUMPI DUP1 PUSH4 0x1E1BFF3F EQ PUSH2 0x25F JUMPI DUP1 PUSH4 0x1E64610C EQ PUSH2 0x27F JUMPI JUMPDEST PUSH1 0x0 DUP1 REVERT JUMPDEST PUSH2 0x229 PUSH2 0x224 CALLDATASIZE PUSH1 0x4 PUSH2 0x2B52 JUMP JUMPDEST PUSH2 0x492 JUMP JUMPDEST PUSH1 0x40 MLOAD PUSH2 0x236 SWAP2 SWAP1 PUSH2 0x2FF9 JUMP JUMPDEST PUSH1 0x40 MLOAD DUP1 SWAP2 SUB SWAP1 RETURN JUMPDEST PUSH2 0x252 PUSH2 0x24D CALLDATASIZE PUSH1 0x4 PUSH2 0x2E4D JUMP JUMPDEST PUSH2 0x756 JUMP JUMPDEST PUSH1 0x40 MLOAD PUSH2 0x236 SWAP2 SWAP1 PUSH2 0x34C6 JUMP JUMPDEST PUSH2 0x272 PUSH2 0x26D CALLDATASIZE PUSH1 0x4 PUSH2 0x2A94 JUMP JUMPDEST PUSH2 0x777 JUMP JUMPDEST PUSH1 0x40 MLOAD PUSH2 0x236 SWAP2 SWAP1 PUSH2 0x303D JUMP JUMPDEST PUSH2 0x287 PUSH2 0x7E7 JUMP JUMPDEST PUSH1 0x40 MLOAD PUSH2 0x236 SWAP2 SWAP1 PUSH2 0x2FA8 JUMP JUMPDEST PUSH2 0x287 PUSH2 0x7F6 JUMP JUMPDEST PUSH2 0x272 PUSH2 0x2AA CALLDATASIZE PUSH1 0x4 PUSH2 0x2F28 JUMP JUMPDEST PUSH2 0x805 JUMP JUMPDEST PUSH2 0x287 PUSH2 0x956 JUMP JUMPDEST PUSH2 0x252 PUSH2 0x965 JUMP JUMPDEST PUSH2 0x252 PUSH2 0x2CD CALLDATASIZE PUSH1 0x4 PUSH2 0x2E4D JUMP JUMPDEST PUSH2 0x96B JUMP JUMPDEST PUSH2 0x272 PUSH2 0x2E0 CALLDATASIZE PUSH1 0x4 PUSH2 0x2A78 JUMP JUMPDEST PUSH2 0x97D JUMP JUMPDEST PUSH2 0x272 PUSH2 0x2F3 CALLDATASIZE PUSH1 0x4 PUSH2 0x2BA8 JUMP JUMPDEST PUSH2 0x992 JUMP JUMPDEST PUSH2 0x30B PUSH2 0x306 CALLDATASIZE PUSH1 0x4 PUSH2 0x2E4D JUMP JUMPDEST PUSH2 0xB8F JUMP JUMPDEST PUSH1 0x40 MLOAD PUSH2 0x236 SWAP2 SWAP1 PUSH2 0x3422 JUMP JUMPDEST PUSH2 0x272 PUSH2 0x326 CALLDATASIZE PUSH1 0x4 PUSH2 0x2A78 JUMP JUMPDEST PUSH2 0xCBC JUMP JUMPDEST PUSH2 0x272 PUSH2 0x339 CALLDATASIZE PUSH1 0x4 PUSH2 0x2C83 JUMP JUMPDEST PUSH2 0xD22 JUMP JUMPDEST PUSH2 0x351 PUSH2 0x34C CALLDATASIZE PUSH1 0x4 PUSH2 0x2F28 JUMP JUMPDEST PUSH2 0xD76 JUMP JUMPDEST PUSH1 0x40 MLOAD PUSH2 0x236 SWAP5 SWAP4 SWAP3 SWAP2 SWAP1 PUSH2 0x3081 JUMP JUMPDEST PUSH2 0x369 PUSH2 0xEDC JUMP JUMPDEST STOP JUMPDEST PUSH2 0x252 PUSH2 0x379 CALLDATASIZE PUSH1 0x4 PUSH2 0x2B27 JUMP JUMPDEST PUSH2 0xF27 JUMP JUMPDEST PUSH2 0x272 PUSH2 0x38C CALLDATASIZE PUSH1 0x4 PUSH2 0x2E4D JUMP JUMPDEST PUSH2 0xF44 JUMP JUMPDEST PUSH2 0x287 PUSH2 0xF8E JUMP JUMPDEST PUSH2 0x252 PUSH2 0xF9D JUMP JUMPDEST PUSH2 0x287 PUSH2 0xFA3 JUMP JUMPDEST PUSH2 0x272 PUSH2 0x3B7 CALLDATASIZE PUSH1 0x4 PUSH2 0x2C83 JUMP JUMPDEST PUSH2 0xFB2 JUMP JUMPDEST PUSH2 0x272 PUSH2 0x3CA CALLDATASIZE PUSH1 0x4 PUSH2 0x2D05 JUMP JUMPDEST PUSH2 0x1000 JUMP JUMPDEST PUSH2 0x252 PUSH2 0x1457 JUMP JUMPDEST PUSH2 0x252 PUSH2 0x3E5 CALLDATASIZE PUSH1 0x4 PUSH2 0x2A78 JUMP JUMPDEST PUSH2 0x145D JUMP JUMPDEST PUSH2 0x252 PUSH2 0x3F8 CALLDATASIZE PUSH1 0x4 PUSH2 0x2B27 JUMP JUMPDEST PUSH2 0x1478 JUMP JUMPDEST PUSH2 0x272 PUSH2 0x40B CALLDATASIZE PUSH1 0x4 PUSH2 0x2D9F JUMP JUMPDEST PUSH2 0x14A9 JUMP JUMPDEST PUSH2 0x252 PUSH2 0x41E CALLDATASIZE PUSH1 0x4 PUSH2 0x2A78 JUMP JUMPDEST PUSH2 0x18D6 JUMP JUMPDEST PUSH2 0x252 PUSH2 0x431 CALLDATASIZE PUSH1 0x4 PUSH2 0x2B27 JUMP JUMPDEST PUSH2 0x18F1 JUMP JUMPDEST PUSH2 0x252 PUSH2 0x444 CALLDATASIZE PUSH1 0x4 PUSH2 0x2B27 JUMP JUMPDEST PUSH2 0x190D JUMP JUMPDEST PUSH2 0x252 PUSH2 0x192A JUMP JUMPDEST PUSH2 0x369 PUSH2 0x45F CALLDATASIZE PUSH1 0x4 PUSH2 0x2A78 JUMP JUMPDEST PUSH2 0x1930 JUMP JUMPDEST PUSH2 0x252 PUSH2 0x19A1 JUMP JUMPDEST PUSH2 0x369 PUSH2 0x47A CALLDATASIZE PUSH1 0x4 PUSH2 0x2ACC JUMP JUMPDEST PUSH2 0x19A7 JUMP JUMPDEST PUSH2 0x272 PUSH2 0x48D CALLDATASIZE PUSH1 0x4 PUSH2 0x2E7D JUMP JUMPDEST PUSH2 0x1A89 JUMP JUMPDEST PUSH1 0x60 PUSH1 0x0 DUP1 DUP3 DUP7 PUSH2 0x4F5 JUMPI PUSH1 0x6C DUP1 SLOAD DUP1 PUSH1 0x20 MUL PUSH1 0x20 ADD PUSH1 0x40 MLOAD SWAP1 DUP2 ADD PUSH1 0x40 MSTORE DUP1 SWAP3 SWAP2 SWAP1 DUP2 DUP2 MSTORE PUSH1 0x20 ADD DUP3 DUP1 SLOAD DUP1 ISZERO PUSH2 0x4E9 JUMPI PUSH1 0x20 MUL DUP3 ADD SWAP2 SWAP1 PUSH1 0x0 MSTORE PUSH1 0x20 PUSH1 0x0 KECCAK256 SWAP1 JUMPDEST DUP2 SLOAD DUP2 MSTORE PUSH1 0x20 ADD SWAP1 PUSH1 0x1 ADD SWAP1 DUP1 DUP4 GT PUSH2 0x4D5 JUMPI JUMPDEST POP POP POP POP POP SWAP1 POP PUSH2 0x5D5 JUMP JUMPDEST DUP7 PUSH1 0x1 EQ ISZERO PUSH2 0x566 JUMPI PUSH1 0x1 PUSH1 0x1 PUSH1 0xA0 SHL SUB DUP9 AND PUSH1 0x0 SWAP1 DUP2 MSTORE PUSH1 0x6E PUSH1 0x20 SWAP1 DUP2 MSTORE PUSH1 0x40 SWAP2 DUP3 SWAP1 KECCAK256 DUP1 SLOAD DUP4 MLOAD DUP2 DUP5 MUL DUP2 ADD DUP5 ADD SWAP1 SWAP5 MSTORE DUP1 DUP5 MSTORE SWAP1 SWAP2 DUP4 ADD DUP3 DUP3 DUP1 ISZERO PUSH2 0x4E9 JUMPI PUSH1 0x20 MUL DUP3 ADD SWAP2 SWAP1 PUSH1 0x0 MSTORE PUSH1 0x20 PUSH1 0x0 KECCAK256 SWAP1 DUP2 SLOAD DUP2 MSTORE PUSH1 0x20 ADD SWAP1 PUSH1 0x1 ADD SWAP1 DUP1 DUP4 GT PUSH2 0x4D5 JUMPI POP POP POP POP POP SWAP1 POP PUSH2 0x5D5 JUMP JUMPDEST DUP7 PUSH1 0x2 EQ ISZERO PUSH2 0x5D5 JUMPI PUSH1 0x1 PUSH1 0x1 PUSH1 0xA0 SHL SUB DUP9 AND PUSH1 0x0 SWAP1 DUP2 MSTORE PUSH1 0x70 PUSH1 0x20 SWAP1 DUP2 MSTORE PUSH1 0x40 SWAP2 DUP3 SWAP1 KECCAK256 DUP1 SLOAD DUP4 MLOAD DUP2 DUP5 MUL DUP2 ADD DUP5 ADD SWAP1 SWAP5 MSTORE DUP1 DUP5 MSTORE SWAP1 SWAP2 DUP4 ADD DUP3 DUP3 DUP1 ISZERO PUSH2 0x5CD JUMPI PUSH1 0x20 MUL DUP3 ADD SWAP2 SWAP1 PUSH1 0x0 MSTORE PUSH1 0x20 PUSH1 0x0 KECCAK256 SWAP1 JUMPDEST DUP2 SLOAD DUP2 MSTORE PUSH1 0x20 ADD SWAP1 PUSH1 0x1 ADD SWAP1 DUP1 DUP4 GT PUSH2 0x5B9 JUMPI JUMPDEST POP POP POP POP POP SWAP1 POP JUMPDEST PUSH1 0x0 PUSH2 0x5F6 PUSH2 0x5EE DUP9 PUSH2 0x5E8 DUP2 DUP11 PUSH2 0x1BEE JUMP JUMPDEST SWAP1 PUSH2 0x1BFA JUMP JUMPDEST DUP4 MLOAD SWAP1 PUSH2 0x1BFA JUMP JUMPDEST SWAP1 POP DUP7 DUP2 LT PUSH2 0x607 JUMPI DUP7 SWAP3 POP PUSH2 0x60B JUMP JUMPDEST DUP1 SWAP3 POP JUMPDEST DUP2 MLOAD PUSH2 0x61B DUP9 PUSH2 0x5E8 DUP2 DUP11 PUSH2 0x1BEE JUMP JUMPDEST LT PUSH2 0x641 JUMPI PUSH1 0x40 MLOAD PUSH3 0x461BCD PUSH1 0xE5 SHL DUP2 MSTORE PUSH1 0x4 ADD PUSH2 0x638 SWAP1 PUSH2 0x334A JUMP JUMPDEST PUSH1 0x40 MLOAD DUP1 SWAP2 SUB SWAP1 REVERT JUMPDEST DUP3 PUSH2 0x65E JUMPI PUSH1 0x40 MLOAD PUSH3 0x461BCD PUSH1 0xE5 SHL DUP2 MSTORE PUSH1 0x4 ADD PUSH2 0x638 SWAP1 PUSH2 0x33FD JUMP JUMPDEST PUSH1 0x0 DUP4 PUSH8 0xFFFFFFFFFFFFFFFF DUP2 GT ISZERO PUSH2 0x687 JUMPI PUSH4 0x4E487B71 PUSH1 0xE0 SHL PUSH1 0x0 MSTORE PUSH1 0x41 PUSH1 0x4 MSTORE PUSH1 0x24 PUSH1 0x0 REVERT JUMPDEST PUSH1 0x40 MLOAD SWAP1 DUP1 DUP3 MSTORE DUP1 PUSH1 0x20 MUL PUSH1 0x20 ADD DUP3 ADD PUSH1 0x40 MSTORE DUP1 ISZERO PUSH2 0x6B0 JUMPI DUP2 PUSH1 0x20 ADD PUSH1 0x20 DUP3 MUL DUP1 CALLDATASIZE DUP4 CALLDATACOPY ADD SWAP1 POP JUMPDEST POP SWAP1 POP PUSH1 0x0 PUSH2 0x6C0 DUP4 PUSH1 0x1 PUSH2 0x1BFA JUMP JUMPDEST SWAP1 POP JUMPDEST DUP5 DUP7 LT ISZERO PUSH2 0x748 JUMPI DUP4 DUP2 DUP2 MLOAD DUP2 LT PUSH2 0x6EB JUMPI PUSH4 0x4E487B71 PUSH1 0xE0 SHL PUSH1 0x0 MSTORE PUSH1 0x32 PUSH1 0x4 MSTORE PUSH1 0x24 PUSH1 0x0 REVERT JUMPDEST PUSH1 0x20 MUL PUSH1 0x20 ADD ADD MLOAD DUP3 DUP8 DUP2 MLOAD DUP2 LT PUSH2 0x713 JUMPI PUSH4 0x4E487B71 PUSH1 0xE0 SHL PUSH1 0x0 MSTORE PUSH1 0x32 PUSH1 0x4 MSTORE PUSH1 0x24 PUSH1 0x0 REVERT JUMPDEST PUSH1 0x20 SWAP1 DUP2 MUL SWAP2 SWAP1 SWAP2 ADD ADD MSTORE DUP1 PUSH2 0x728 JUMPI PUSH2 0x748 JUMP JUMPDEST DUP6 PUSH2 0x732 DUP2 PUSH2 0x3609 JUMP JUMPDEST SWAP7 POP POP DUP1 DUP1 PUSH2 0x740 SWAP1 PUSH2 0x35B7 JUMP JUMPDEST SWAP2 POP POP PUSH2 0x6C3 JUMP JUMPDEST POP SWAP10 SWAP9 POP POP POP POP POP POP POP POP POP JUMP JUMPDEST PUSH1 0x6C DUP2 DUP2 SLOAD DUP2 LT PUSH2 0x766 JUMPI PUSH1 0x0 DUP1 REVERT JUMPDEST PUSH1 0x0 SWAP2 DUP3 MSTORE PUSH1 0x20 SWAP1 SWAP2 KECCAK256 ADD SLOAD SWAP1 POP DUP2 JUMP JUMPDEST PUSH1 0x0 PUSH2 0x781 PUSH2 0x1C06 JUMP JUMPDEST PUSH1 0x1 PUSH1 0x1 PUSH1 0xA0 SHL SUB AND PUSH2 0x792 PUSH2 0xFA3 JUMP JUMPDEST PUSH1 0x1 PUSH1 0x1 PUSH1 0xA0 SHL SUB AND EQ PUSH2 0x7B8 JUMPI PUSH1 0x40 MLOAD PUSH3 0x461BCD PUSH1 0xE5 SHL DUP2 MSTORE PUSH1 0x4 ADD PUSH2 0x638 SWAP1 PUSH2 0x32DE JUMP JUMPDEST POP PUSH1 0x1 PUSH1 0x1 PUSH1 0xA0 SHL SUB DUP3 AND PUSH1 0x0 SWAP1 DUP2 MSTORE PUSH1 0x65 PUSH1 0x20 MSTORE PUSH1 0x40 SWAP1 KECCAK256 DUP1 SLOAD DUP3 ISZERO ISZERO PUSH1 0xFF NOT SWAP1 SWAP2 AND OR SWAP1 SSTORE PUSH1 0x1 SWAP3 SWAP2 POP POP JUMP JUMPDEST PUSH1 0x68 SLOAD PUSH1 0x1 PUSH1 0x1 PUSH1 0xA0 SHL SUB AND DUP2 JUMP JUMPDEST PUSH1 0x66 SLOAD PUSH1 0x1 PUSH1 0x1 PUSH1 0xA0 SHL SUB AND DUP2 JUMP JUMPDEST PUSH1 0x0 DUP4 DUP2 MSTORE PUSH1 0x6A PUSH1 0x20 MSTORE PUSH1 0x40 DUP2 KECCAK256 PUSH1 0x9 DUP2 ADD SLOAD PUSH1 0x4 DUP3 ADD SLOAD DUP4 SWAP2 DUP3 SWAP2 DUP3 SWAP2 SWAP1 DUP9 SWAP1 PUSH1 0x1 EQ ISZERO PUSH2 0x8C1 JUMPI DUP6 PUSH1 0x5 ADD SLOAD DUP2 LT ISZERO PUSH2 0x8BC JUMPI PUSH1 0x5 DUP7 ADD SLOAD PUSH2 0x849 SWAP1 DUP3 PUSH2 0x1BFA JUMP JUMPDEST SWAP5 POP PUSH2 0x867 PUSH8 0xDE0B6B3A7640000 PUSH2 0x861 DUP8 DUP6 PUSH2 0x1BEE JUMP JUMPDEST SWAP1 PUSH2 0x1C0A JUMP JUMPDEST SWAP4 POP PUSH2 0x89A PUSH8 0xDE0B6B3A7640000 PUSH2 0x861 PUSH1 0x73 SLOAD PUSH2 0x861 PUSH1 0x72 SLOAD PUSH2 0x894 DUP8 DUP10 PUSH2 0x1BEE SWAP1 SWAP2 SWAP1 PUSH4 0xFFFFFFFF AND JUMP JUMPDEST SWAP1 PUSH2 0x1BEE JUMP JUMPDEST SWAP3 POP PUSH2 0x8A6 DUP4 DUP6 PUSH2 0x351D JUMP JUMPDEST DUP9 LT ISZERO PUSH2 0x8BC JUMPI PUSH1 0x0 SWAP7 POP POP POP POP POP POP POP PUSH2 0x94F JUMP JUMPDEST PUSH2 0x944 JUMP JUMPDEST DUP6 PUSH1 0x5 ADD SLOAD DUP2 GT ISZERO PUSH2 0x944 JUMPI PUSH1 0x5 DUP7 ADD SLOAD PUSH2 0x8DD SWAP1 DUP3 SWAP1 PUSH2 0x1BFA JUMP JUMPDEST SWAP5 POP PUSH2 0x8F5 PUSH8 0xDE0B6B3A7640000 PUSH2 0x861 DUP8 DUP6 PUSH2 0x1BEE JUMP JUMPDEST SWAP4 POP PUSH2 0x922 PUSH8 0xDE0B6B3A7640000 PUSH2 0x861 PUSH1 0x73 SLOAD PUSH2 0x861 PUSH1 0x72 SLOAD PUSH2 0x894 DUP8 DUP10 PUSH2 0x1BEE SWAP1 SWAP2 SWAP1 PUSH4 0xFFFFFFFF AND JUMP JUMPDEST SWAP3 POP PUSH2 0x92E DUP4 DUP6 PUSH2 0x351D JUMP JUMPDEST DUP9 LT ISZERO PUSH2 0x944 JUMPI PUSH1 0x0 SWAP7 POP POP POP POP POP POP POP PUSH2 0x94F JUMP JUMPDEST PUSH1 0x1 SWAP7 POP POP POP POP POP POP POP JUMPDEST SWAP4 SWAP3 POP POP POP JUMP JUMPDEST PUSH1 0x67 SLOAD PUSH1 0x1 PUSH1 0x1 PUSH1 0xA0 SHL SUB AND DUP2 JUMP JUMPDEST PUSH1 0x6C SLOAD SWAP1 JUMP JUMPDEST PUSH1 0x6D PUSH1 0x20 MSTORE PUSH1 0x0 SWAP1 DUP2 MSTORE PUSH1 0x40 SWAP1 KECCAK256 SLOAD DUP2 JUMP JUMPDEST PUSH1 0x65 PUSH1 0x20 MSTORE PUSH1 0x0 SWAP1 DUP2 MSTORE PUSH1 0x40 SWAP1 KECCAK256 SLOAD PUSH1 0xFF AND DUP2 JUMP JUMPDEST CALLER PUSH1 0x0 SWAP1 DUP2 MSTORE PUSH1 0x65 PUSH1 0x20 MSTORE PUSH1 0x40 DUP2 KECCAK256 SLOAD PUSH1 0xFF AND PUSH2 0x9C1 JUMPI PUSH1 0x40 MLOAD PUSH3 0x461BCD PUSH1 0xE5 SHL DUP2 MSTORE PUSH1 0x4 ADD PUSH2 0x638 SWAP1 PUSH2 0x3171 JUMP JUMPDEST PUSH1 0x0 DUP1 JUMPDEST DUP8 MLOAD DUP2 LT ISZERO PUSH2 0xB63 JUMPI PUSH1 0x0 PUSH1 0x6A PUSH1 0x0 DUP11 DUP5 DUP2 MLOAD DUP2 LT PUSH2 0x9F4 JUMPI PUSH4 0x4E487B71 PUSH1 0xE0 SHL PUSH1 0x0 MSTORE PUSH1 0x32 PUSH1 0x4 MSTORE PUSH1 0x24 PUSH1 0x0 REVERT JUMPDEST PUSH1 0x20 MUL PUSH1 0x20 ADD ADD MLOAD DUP2 MSTORE PUSH1 0x20 ADD SWAP1 DUP2 MSTORE PUSH1 0x20 ADD PUSH1 0x0 KECCAK256 SWAP1 POP PUSH2 0xA69 DUP10 DUP4 DUP2 MLOAD DUP2 LT PUSH2 0xA2F JUMPI PUSH4 0x4E487B71 PUSH1 0xE0 SHL PUSH1 0x0 MSTORE PUSH1 0x32 PUSH1 0x4 MSTORE PUSH1 0x24 PUSH1 0x0 REVERT JUMPDEST PUSH1 0x20 MUL PUSH1 0x20 ADD ADD MLOAD DUP8 DUP5 DUP2 MLOAD DUP2 LT PUSH2 0xA57 JUMPI PUSH4 0x4E487B71 PUSH1 0xE0 SHL PUSH1 0x0 MSTORE PUSH1 0x32 PUSH1 0x4 MSTORE PUSH1 0x24 PUSH1 0x0 REVERT JUMPDEST PUSH1 0x20 MUL PUSH1 0x20 ADD ADD MLOAD DUP4 PUSH1 0xA ADD SLOAD PUSH2 0x805 JUMP JUMPDEST PUSH2 0xB50 JUMPI DUP3 PUSH2 0xA77 DUP2 PUSH2 0x3609 JUMP JUMPDEST SWAP4 POP POP PUSH2 0xB4E DUP11 DUP3 PUSH1 0x3 DUP13 DUP7 DUP2 MLOAD DUP2 LT PUSH2 0xAA1 JUMPI PUSH4 0x4E487B71 PUSH1 0xE0 SHL PUSH1 0x0 MSTORE PUSH1 0x32 PUSH1 0x4 MSTORE PUSH1 0x24 PUSH1 0x0 REVERT JUMPDEST PUSH1 0x20 MUL PUSH1 0x20 ADD ADD MLOAD DUP13 DUP8 DUP2 MLOAD DUP2 LT PUSH2 0xAC9 JUMPI PUSH4 0x4E487B71 PUSH1 0xE0 SHL PUSH1 0x0 MSTORE PUSH1 0x32 PUSH1 0x4 MSTORE PUSH1 0x24 PUSH1 0x0 REVERT JUMPDEST PUSH1 0x20 MUL PUSH1 0x20 ADD ADD MLOAD DUP13 DUP9 DUP2 MLOAD DUP2 LT PUSH2 0xAF1 JUMPI PUSH4 0x4E487B71 PUSH1 0xE0 SHL PUSH1 0x0 MSTORE PUSH1 0x32 PUSH1 0x4 MSTORE PUSH1 0x24 PUSH1 0x0 REVERT JUMPDEST PUSH1 0x20 MUL PUSH1 0x20 ADD ADD MLOAD DUP13 DUP10 DUP2 MLOAD DUP2 LT PUSH2 0xB19 JUMPI PUSH4 0x4E487B71 PUSH1 0xE0 SHL PUSH1 0x0 MSTORE PUSH1 0x32 PUSH1 0x4 MSTORE PUSH1 0x24 PUSH1 0x0 REVERT JUMPDEST PUSH1 0x20 MUL PUSH1 0x20 ADD ADD MLOAD DUP13 DUP11 DUP2 MLOAD DUP2 LT PUSH2 0xB41 JUMPI PUSH4 0x4E487B71 PUSH1 0xE0 SHL PUSH1 0x0 MSTORE PUSH1 0x32 PUSH1 0x4 MSTORE PUSH1 0x24 PUSH1 0x0 REVERT JUMPDEST PUSH1 0x20 MUL PUSH1 0x20 ADD ADD MLOAD PUSH2 0x1C16 JUMP JUMPDEST POP JUMPDEST POP DUP1 PUSH2 0xB5B DUP2 PUSH2 0x3609 JUMP JUMPDEST SWAP2 POP POP PUSH2 0x9C5 JUMP JUMPDEST POP DUP1 PUSH2 0xB81 JUMPI PUSH1 0x40 MLOAD PUSH3 0x461BCD PUSH1 0xE5 SHL DUP2 MSTORE PUSH1 0x4 ADD PUSH2 0x638 SWAP1 PUSH2 0x31B5 JUMP JUMPDEST POP PUSH1 0x1 SWAP8 SWAP7 POP POP POP POP POP POP POP JUMP JUMPDEST PUSH2 0xB97 PUSH2 0x27E5 JUMP JUMPDEST PUSH1 0x0 DUP3 DUP2 MSTORE PUSH1 0x6A PUSH1 0x20 SWAP1 DUP2 MSTORE PUSH1 0x40 SWAP2 DUP3 SWAP1 KECCAK256 DUP3 MLOAD PUSH2 0x160 DUP2 ADD DUP5 MSTORE DUP2 SLOAD PUSH1 0x1 PUSH1 0x1 PUSH1 0xA0 SHL SUB AND DUP2 MSTORE PUSH1 0x1 DUP3 ADD SLOAD SWAP3 DUP2 ADD SWAP3 SWAP1 SWAP3 MSTORE PUSH1 0x2 DUP2 ADD DUP1 SLOAD SWAP3 SWAP4 SWAP2 SWAP3 SWAP2 DUP5 ADD SWAP2 PUSH2 0xBE2 SWAP1 PUSH2 0x35CE JUMP JUMPDEST DUP1 PUSH1 0x1F ADD PUSH1 0x20 DUP1 SWAP2 DIV MUL PUSH1 0x20 ADD PUSH1 0x40 MLOAD SWAP1 DUP2 ADD PUSH1 0x40 MSTORE DUP1 SWAP3 SWAP2 SWAP1 DUP2 DUP2 MSTORE PUSH1 0x20 ADD DUP3 DUP1 SLOAD PUSH2 0xC0E SWAP1 PUSH2 0x35CE JUMP JUMPDEST DUP1 ISZERO PUSH2 0xC5B JUMPI DUP1 PUSH1 0x1F LT PUSH2 0xC30 JUMPI PUSH2 0x100 DUP1 DUP4 SLOAD DIV MUL DUP4 MSTORE SWAP2 PUSH1 0x20 ADD SWAP2 PUSH2 0xC5B JUMP JUMPDEST DUP3 ADD SWAP2 SWAP1 PUSH1 0x0 MSTORE PUSH1 0x20 PUSH1 0x0 KECCAK256 SWAP1 JUMPDEST DUP2 SLOAD DUP2 MSTORE SWAP1 PUSH1 0x1 ADD SWAP1 PUSH1 0x20 ADD DUP1 DUP4 GT PUSH2 0xC3E JUMPI DUP3 SWAP1 SUB PUSH1 0x1F AND DUP3 ADD SWAP2 JUMPDEST POP POP POP POP POP DUP2 MSTORE PUSH1 0x20 ADD PUSH1 0x3 DUP3 ADD SLOAD DUP2 MSTORE PUSH1 0x20 ADD PUSH1 0x4 DUP3 ADD SLOAD DUP2 MSTORE PUSH1 0x20 ADD PUSH1 0x5 DUP3 ADD SLOAD DUP2 MSTORE PUSH1 0x20 ADD PUSH1 0x6 DUP3 ADD SLOAD DUP2 MSTORE PUSH1 0x20 ADD PUSH1 0x7 DUP3 ADD SLOAD DUP2 MSTORE PUSH1 0x20 ADD PUSH1 0x8 DUP3 ADD SLOAD DUP2 MSTORE PUSH1 0x20 ADD PUSH1 0x9 DUP3 ADD SLOAD DUP2 MSTORE PUSH1 0x20 ADD PUSH1 0xA DUP3 ADD SLOAD DUP2 MSTORE POP POP SWAP1 POP JUMPDEST SWAP2 SWAP1 POP JUMP JUMPDEST PUSH1 0x0 PUSH2 0xCC6 PUSH2 0x1C06 JUMP JUMPDEST PUSH1 0x1 PUSH1 0x1 PUSH1 0xA0 SHL SUB AND PUSH2 0xCD7 PUSH2 0xFA3 JUMP JUMPDEST PUSH1 0x1 PUSH1 0x1 PUSH1 0xA0 SHL SUB AND EQ PUSH2 0xCFD JUMPI PUSH1 0x40 MLOAD PUSH3 0x461BCD PUSH1 0xE5 SHL DUP2 MSTORE PUSH1 0x4 ADD PUSH2 0x638 SWAP1 PUSH2 0x32DE JUMP JUMPDEST POP PUSH1 0x66 DUP1 SLOAD PUSH1 0x1 PUSH1 0x1 PUSH1 0xA0 SHL SUB DUP4 AND PUSH1 0x1 PUSH1 0x1 PUSH1 0xA0 SHL SUB NOT SWAP1 SWAP2 AND OR SWAP1 SSTORE PUSH1 0x1 SWAP2 SWAP1 POP JUMP JUMPDEST PUSH1 0x0 DUP6 DUP2 MSTORE PUSH1 0x6A PUSH1 0x20 MSTORE PUSH1 0x40 DUP2 KECCAK256 DUP1 SLOAD PUSH1 0x1 PUSH1 0x1 PUSH1 0xA0 SHL SUB AND CALLER EQ PUSH2 0xD59 JUMPI PUSH1 0x40 MLOAD PUSH3 0x461BCD PUSH1 0xE5 SHL DUP2 MSTORE PUSH1 0x4 ADD PUSH2 0x638 SWAP1 PUSH2 0x336E JUMP JUMPDEST PUSH2 0xD6A DUP9 DUP3 PUSH1 0x2 DUP11 DUP11 DUP11 DUP11 DUP11 PUSH2 0x1C16 JUMP JUMPDEST SWAP9 SWAP8 POP POP POP POP POP POP POP POP JUMP JUMPDEST PUSH1 0x0 DUP4 DUP2 MSTORE PUSH1 0x6A PUSH1 0x20 MSTORE PUSH1 0x40 DUP2 KECCAK256 PUSH1 0x9 DUP2 ADD SLOAD PUSH1 0x4 DUP3 ADD SLOAD DUP4 SWAP3 DUP4 SWAP3 DUP4 SWAP3 DUP4 SWAP2 DUP3 SWAP2 DUP3 SWAP2 SWAP1 DUP12 SWAP1 PUSH1 0x1 EQ ISZERO PUSH2 0xE33 JUMPI DUP6 PUSH1 0x5 ADD SLOAD DUP2 LT ISZERO PUSH2 0xE2E JUMPI PUSH1 0x5 DUP7 ADD SLOAD PUSH2 0xDC0 SWAP1 DUP3 PUSH2 0x1BFA JUMP JUMPDEST SWAP5 POP PUSH2 0xDD8 PUSH8 0xDE0B6B3A7640000 PUSH2 0x861 DUP8 DUP6 PUSH2 0x1BEE JUMP JUMPDEST SWAP4 POP PUSH2 0xE05 PUSH8 0xDE0B6B3A7640000 PUSH2 0x861 PUSH1 0x73 SLOAD PUSH2 0x861 PUSH1 0x72 SLOAD PUSH2 0x894 DUP8 DUP10 PUSH2 0x1BEE SWAP1 SWAP2 SWAP1 PUSH4 0xFFFFFFFF AND JUMP JUMPDEST SWAP3 POP PUSH2 0xE11 DUP4 DUP6 PUSH2 0x351D JUMP JUMPDEST DUP12 LT ISZERO PUSH2 0xE2E JUMPI POP PUSH1 0x0 SWAP9 POP DUP10 SWAP8 POP SWAP2 SWAP6 POP SWAP4 POP PUSH2 0xED3 SWAP3 POP POP POP JUMP JUMPDEST PUSH2 0xEBD JUMP JUMPDEST DUP6 PUSH1 0x5 ADD SLOAD DUP2 GT ISZERO PUSH2 0xEBD JUMPI PUSH1 0x5 DUP7 ADD SLOAD PUSH2 0xE4F SWAP1 DUP3 SWAP1 PUSH2 0x1BFA JUMP JUMPDEST SWAP5 POP PUSH2 0xE67 PUSH8 0xDE0B6B3A7640000 PUSH2 0x861 DUP8 DUP6 PUSH2 0x1BEE JUMP JUMPDEST SWAP4 POP PUSH2 0xE94 PUSH8 0xDE0B6B3A7640000 PUSH2 0x861 PUSH1 0x73 SLOAD PUSH2 0x861 PUSH1 0x72 SLOAD PUSH2 0x894 DUP8 DUP10 PUSH2 0x1BEE SWAP1 SWAP2 SWAP1 PUSH4 0xFFFFFFFF AND JUMP JUMPDEST SWAP3 POP PUSH2 0xEA0 DUP4 DUP6 PUSH2 0x351D JUMP JUMPDEST DUP12 LT ISZERO PUSH2 0xEBD JUMPI POP PUSH1 0x0 SWAP9 POP DUP10 SWAP8 POP SWAP2 SWAP6 POP SWAP4 POP PUSH2 0xED3 SWAP3 POP POP POP JUMP JUMPDEST PUSH1 0x1 PUSH1 0x0 DUP1 PUSH1 0x0 SWAP10 POP SWAP10 POP SWAP10 POP SWAP10 POP POP POP POP POP POP POP JUMPDEST SWAP4 POP SWAP4 POP SWAP4 POP SWAP4 JUMP JUMPDEST PUSH2 0xEE4 PUSH2 0x1C06 JUMP JUMPDEST PUSH1 0x1 PUSH1 0x1 PUSH1 0xA0 SHL SUB AND PUSH2 0xEF5 PUSH2 0xFA3 JUMP JUMPDEST PUSH1 0x1 PUSH1 0x1 PUSH1 0xA0 SHL SUB AND EQ PUSH2 0xF1B JUMPI PUSH1 0x40 MLOAD PUSH3 0x461BCD PUSH1 0xE5 SHL DUP2 MSTORE PUSH1 0x4 ADD PUSH2 0x638 SWAP1 PUSH2 0x32DE JUMP JUMPDEST PUSH2 0xF25 PUSH1 0x0 PUSH2 0x231C JUMP JUMPDEST JUMP JUMPDEST PUSH1 0x6F PUSH1 0x20 SWAP1 DUP2 MSTORE PUSH1 0x0 SWAP3 DUP4 MSTORE PUSH1 0x40 DUP1 DUP5 KECCAK256 SWAP1 SWAP2 MSTORE SWAP1 DUP3 MSTORE SWAP1 KECCAK256 SLOAD DUP2 JUMP JUMPDEST PUSH1 0x0 PUSH2 0xF4E PUSH2 0x1C06 JUMP JUMPDEST PUSH1 0x1 PUSH1 0x1 PUSH1 0xA0 SHL SUB AND PUSH2 0xF5F PUSH2 0xFA3 JUMP JUMPDEST PUSH1 0x1 PUSH1 0x1 PUSH1 0xA0 SHL SUB AND EQ PUSH2 0xF85 JUMPI PUSH1 0x40 MLOAD PUSH3 0x461BCD PUSH1 0xE5 SHL DUP2 MSTORE PUSH1 0x4 ADD PUSH2 0x638 SWAP1 PUSH2 0x32DE JUMP JUMPDEST POP PUSH1 0x72 SSTORE PUSH1 0x1 SWAP1 JUMP JUMPDEST PUSH1 0x69 SLOAD PUSH1 0x1 PUSH1 0x1 PUSH1 0xA0 SHL SUB AND DUP2 JUMP JUMPDEST PUSH1 0x72 SLOAD DUP2 JUMP JUMPDEST PUSH1 0x33 SLOAD PUSH1 0x1 PUSH1 0x1 PUSH1 0xA0 SHL SUB AND SWAP1 JUMP JUMPDEST CALLER PUSH1 0x0 SWAP1 DUP2 MSTORE PUSH1 0x65 PUSH1 0x20 MSTORE PUSH1 0x40 DUP2 KECCAK256 SLOAD PUSH1 0xFF AND PUSH2 0xFE1 JUMPI PUSH1 0x40 MLOAD PUSH3 0x461BCD PUSH1 0xE5 SHL DUP2 MSTORE PUSH1 0x4 ADD PUSH2 0x638 SWAP1 PUSH2 0x3171 JUMP JUMPDEST PUSH1 0x0 DUP7 DUP2 MSTORE PUSH1 0x6A PUSH1 0x20 MSTORE PUSH1 0x40 SWAP1 KECCAK256 PUSH2 0xD6A DUP9 DUP3 PUSH1 0x4 DUP11 DUP11 DUP11 DUP11 DUP11 PUSH2 0x1C16 JUMP JUMPDEST PUSH1 0x0 DUP7 DUP2 MSTORE PUSH1 0x6A PUSH1 0x20 MSTORE PUSH1 0x40 DUP2 KECCAK256 DUP1 SLOAD PUSH1 0x1 PUSH1 0x1 PUSH1 0xA0 SHL SUB AND PUSH2 0x1035 JUMPI PUSH1 0x40 MLOAD PUSH3 0x461BCD PUSH1 0xE5 SHL DUP2 MSTORE PUSH1 0x4 ADD PUSH2 0x638 SWAP1 PUSH2 0x30B1 JUMP JUMPDEST PUSH1 0x2 DUP2 PUSH1 0x3 ADD SLOAD LT PUSH2 0x1059 JUMPI PUSH1 0x40 MLOAD PUSH3 0x461BCD PUSH1 0xE5 SHL DUP2 MSTORE PUSH1 0x4 ADD PUSH2 0x638 SWAP1 PUSH2 0x3390 JUMP JUMPDEST PUSH1 0x69 SLOAD PUSH1 0x40 MLOAD PUSH4 0x11CDC9D9 PUSH1 0xE1 SHL DUP2 MSTORE PUSH1 0x1 PUSH1 0x1 PUSH1 0xA0 SHL SUB SWAP1 SWAP2 AND SWAP1 PUSH4 0x239B93B2 SWAP1 PUSH2 0x1091 SWAP1 DUP13 SWAP1 DUP10 SWAP1 DUP13 SWAP1 DUP13 SWAP1 DUP12 SWAP1 PUSH1 0x4 ADD PUSH2 0x3048 JUMP JUMPDEST PUSH1 0x20 PUSH1 0x40 MLOAD DUP1 DUP4 SUB DUP2 DUP7 DUP1 EXTCODESIZE ISZERO DUP1 ISZERO PUSH2 0x10A9 JUMPI PUSH1 0x0 DUP1 REVERT JUMPDEST POP GAS STATICCALL ISZERO DUP1 ISZERO PUSH2 0x10BD JUMPI RETURNDATASIZE PUSH1 0x0 DUP1 RETURNDATACOPY RETURNDATASIZE PUSH1 0x0 REVERT JUMPDEST POP POP POP POP PUSH1 0x40 MLOAD RETURNDATASIZE PUSH1 0x1F NOT PUSH1 0x1F DUP3 ADD AND DUP3 ADD DUP1 PUSH1 0x40 MSTORE POP DUP2 ADD SWAP1 PUSH2 0x10E1 SWAP2 SWAP1 PUSH2 0x2B8C JUMP JUMPDEST PUSH2 0x10FD JUMPI PUSH1 0x40 MLOAD PUSH3 0x461BCD PUSH1 0xE5 SHL DUP2 MSTORE PUSH1 0x4 ADD PUSH2 0x638 SWAP1 PUSH2 0x314D JUMP JUMPDEST PUSH2 0x1108 DUP9 DUP7 DUP6 PUSH2 0x805 JUMP JUMPDEST PUSH2 0x1124 JUMPI PUSH1 0x40 MLOAD PUSH3 0x461BCD PUSH1 0xE5 SHL DUP2 MSTORE PUSH1 0x4 ADD PUSH2 0x638 SWAP1 PUSH2 0x32B4 JUMP JUMPDEST PUSH1 0x0 PUSH2 0x1155 PUSH8 0xDE0B6B3A7640000 PUSH2 0x861 PUSH1 0x73 SLOAD PUSH2 0x861 PUSH1 0x72 SLOAD PUSH2 0x894 DUP13 DUP10 PUSH1 0x9 ADD SLOAD PUSH2 0x1BEE SWAP1 SWAP2 SWAP1 PUSH4 0xFFFFFFFF AND JUMP JUMPDEST SWAP1 POP PUSH1 0x0 PUSH2 0x11A6 PUSH2 0x1183 PUSH8 0xDE0B6B3A7640000 PUSH2 0x861 DUP7 PUSH1 0x9 ADD SLOAD DUP8 PUSH1 0x5 ADD SLOAD PUSH2 0x1BEE SWAP1 SWAP2 SWAP1 PUSH4 0xFFFFFFFF AND JUMP JUMPDEST PUSH2 0x5E8 PUSH8 0xDE0B6B3A7640000 PUSH2 0x861 DUP8 PUSH1 0x9 ADD SLOAD DUP13 PUSH2 0x1BEE SWAP1 SWAP2 SWAP1 PUSH4 0xFFFFFFFF AND JUMP JUMPDEST SWAP1 POP PUSH1 0x0 PUSH2 0x11C1 DUP3 DUP6 PUSH1 0xA ADD SLOAD PUSH2 0x236E SWAP1 SWAP2 SWAP1 PUSH4 0xFFFFFFFF AND JUMP JUMPDEST SWAP1 POP PUSH1 0x0 DUP2 PUSH2 0x11D0 DUP9 DUP7 PUSH2 0x1BFA JUMP JUMPDEST GT ISZERO PUSH2 0x1266 JUMPI PUSH2 0x11E4 DUP3 PUSH2 0x5E8 DUP10 DUP8 PUSH2 0x1BFA JUMP JUMPDEST PUSH1 0x67 SLOAD SWAP1 SWAP2 POP PUSH2 0x11FF SWAP1 PUSH1 0x1 PUSH1 0x1 PUSH1 0xA0 SHL SUB AND CALLER ADDRESS DUP5 PUSH2 0x237A JUMP JUMPDEST PUSH1 0x67 SLOAD PUSH1 0x40 MLOAD PUSH4 0x852CD8D PUSH1 0xE3 SHL DUP2 MSTORE PUSH1 0x1 PUSH1 0x1 PUSH1 0xA0 SHL SUB SWAP1 SWAP2 AND SWAP1 PUSH4 0x42966C68 SWAP1 PUSH2 0x122F SWAP1 DUP5 SWAP1 PUSH1 0x4 ADD PUSH2 0x34C6 JUMP JUMPDEST PUSH1 0x0 PUSH1 0x40 MLOAD DUP1 DUP4 SUB DUP2 PUSH1 0x0 DUP8 DUP1 EXTCODESIZE ISZERO DUP1 ISZERO PUSH2 0x1249 JUMPI PUSH1 0x0 DUP1 REVERT JUMPDEST POP GAS CALL ISZERO DUP1 ISZERO PUSH2 0x125D JUMPI RETURNDATASIZE PUSH1 0x0 DUP1 RETURNDATACOPY RETURNDATASIZE PUSH1 0x0 REVERT JUMPDEST POP POP POP POP PUSH2 0x1305 JUMP JUMPDEST PUSH2 0x127A PUSH2 0x1273 DUP9 DUP7 PUSH2 0x1BFA JUMP JUMPDEST DUP4 SWAP1 PUSH2 0x1BFA JUMP JUMPDEST PUSH1 0x67 SLOAD DUP7 SLOAD PUSH1 0x40 MLOAD PUSH4 0x40C10F19 PUSH1 0xE0 SHL DUP2 MSTORE SWAP3 SWAP4 POP PUSH1 0x1 PUSH1 0x1 PUSH1 0xA0 SHL SUB SWAP2 DUP3 AND SWAP3 PUSH4 0x40C10F19 SWAP3 PUSH2 0x12B1 SWAP3 AND SWAP1 DUP6 SWAP1 PUSH1 0x4 ADD PUSH2 0x2FE0 JUMP JUMPDEST PUSH1 0x20 PUSH1 0x40 MLOAD DUP1 DUP4 SUB DUP2 PUSH1 0x0 DUP8 DUP1 EXTCODESIZE ISZERO DUP1 ISZERO PUSH2 0x12CB JUMPI PUSH1 0x0 DUP1 REVERT JUMPDEST POP GAS CALL ISZERO DUP1 ISZERO PUSH2 0x12DF JUMPI RETURNDATASIZE PUSH1 0x0 DUP1 RETURNDATACOPY RETURNDATASIZE PUSH1 0x0 REVERT JUMPDEST POP POP POP POP PUSH1 0x40 MLOAD RETURNDATASIZE PUSH1 0x1F NOT PUSH1 0x1F DUP3 ADD AND DUP3 ADD DUP1 PUSH1 0x40 MSTORE POP DUP2 ADD SWAP1 PUSH2 0x1303 SWAP2 SWAP1 PUSH2 0x2B8C JUMP JUMPDEST POP JUMPDEST PUSH1 0x67 SLOAD PUSH1 0x40 MLOAD PUSH4 0x40C10F19 PUSH1 0xE0 SHL DUP2 MSTORE PUSH1 0x1 PUSH1 0x1 PUSH1 0xA0 SHL SUB SWAP1 SWAP2 AND SWAP1 PUSH4 0x40C10F19 SWAP1 PUSH2 0x1337 SWAP1 ADDRESS SWAP1 DUP9 SWAP1 PUSH1 0x4 ADD PUSH2 0x2FE0 JUMP JUMPDEST PUSH1 0x20 PUSH1 0x40 MLOAD DUP1 DUP4 SUB DUP2 PUSH1 0x0 DUP8 DUP1 EXTCODESIZE ISZERO DUP1 ISZERO PUSH2 0x1351 JUMPI PUSH1 0x0 DUP1 REVERT JUMPDEST POP GAS CALL ISZERO DUP1 ISZERO PUSH2 0x1365 JUMPI RETURNDATASIZE PUSH1 0x0 DUP1 RETURNDATACOPY RETURNDATASIZE PUSH1 0x0 REVERT JUMPDEST POP POP POP POP PUSH1 0x40 MLOAD RETURNDATASIZE PUSH1 0x1F NOT PUSH1 0x1F DUP3 ADD AND DUP3 ADD DUP1 PUSH1 0x40 MSTORE POP DUP2 ADD SWAP1 PUSH2 0x1389 SWAP2 SWAP1 PUSH2 0x2B8C JUMP JUMPDEST POP PUSH1 0x68 SLOAD PUSH1 0x67 SLOAD PUSH2 0x13A7 SWAP2 PUSH1 0x1 PUSH1 0x1 PUSH1 0xA0 SHL SUB SWAP2 DUP3 AND SWAP2 AND DUP7 PUSH2 0x23D8 JUMP JUMPDEST PUSH1 0x68 PUSH1 0x0 SWAP1 SLOAD SWAP1 PUSH2 0x100 EXP SWAP1 DIV PUSH1 0x1 PUSH1 0x1 PUSH1 0xA0 SHL SUB AND PUSH1 0x1 PUSH1 0x1 PUSH1 0xA0 SHL SUB AND PUSH4 0xD10C06A2 PUSH1 0x40 MLOAD DUP2 PUSH4 0xFFFFFFFF AND PUSH1 0xE0 SHL DUP2 MSTORE PUSH1 0x4 ADD PUSH1 0x20 PUSH1 0x40 MLOAD DUP1 DUP4 SUB DUP2 PUSH1 0x0 DUP8 DUP1 EXTCODESIZE ISZERO DUP1 ISZERO PUSH2 0x13F7 JUMPI PUSH1 0x0 DUP1 REVERT JUMPDEST POP GAS CALL ISZERO DUP1 ISZERO PUSH2 0x140B JUMPI RETURNDATASIZE PUSH1 0x0 DUP1 RETURNDATACOPY RETURNDATASIZE PUSH1 0x0 REVERT JUMPDEST POP POP POP POP PUSH1 0x40 MLOAD RETURNDATASIZE PUSH1 0x1F NOT PUSH1 0x1F DUP3 ADD AND DUP3 ADD DUP1 PUSH1 0x40 MSTORE POP DUP2 ADD SWAP1 PUSH2 0x142F SWAP2 SWAP1 PUSH2 0x2B8C JUMP JUMPDEST POP PUSH2 0x143A DUP8 DUP6 PUSH2 0x1BFA JUMP JUMPDEST PUSH1 0xA DUP7 ADD SSTORE POP POP POP POP PUSH1 0x5 ADD DUP5 SWAP1 SSTORE POP PUSH1 0x1 SWAP8 SWAP7 POP POP POP POP POP POP POP JUMP JUMPDEST PUSH1 0x73 SLOAD DUP2 JUMP JUMPDEST PUSH1 0x1 PUSH1 0x1 PUSH1 0xA0 SHL SUB AND PUSH1 0x0 SWAP1 DUP2 MSTORE PUSH1 0x70 PUSH1 0x20 MSTORE PUSH1 0x40 SWAP1 KECCAK256 SLOAD SWAP1 JUMP JUMPDEST PUSH1 0x6E PUSH1 0x20 MSTORE DUP2 PUSH1 0x0 MSTORE PUSH1 0x40 PUSH1 0x0 KECCAK256 DUP2 DUP2 SLOAD DUP2 LT PUSH2 0x1494 JUMPI PUSH1 0x0 DUP1 REVERT JUMPDEST SWAP1 PUSH1 0x0 MSTORE PUSH1 0x20 PUSH1 0x0 KECCAK256 ADD PUSH1 0x0 SWAP2 POP SWAP2 POP POP SLOAD DUP2 JUMP JUMPDEST PUSH1 0x6B SLOAD PUSH1 0x0 SWAP1 DUP2 MSTORE PUSH1 0x6A PUSH1 0x20 MSTORE PUSH1 0x40 DUP2 KECCAK256 DUP10 PUSH2 0x14D7 JUMPI PUSH1 0x40 MLOAD PUSH3 0x461BCD PUSH1 0xE5 SHL DUP2 MSTORE PUSH1 0x4 ADD PUSH2 0x638 SWAP1 PUSH2 0x30DF JUMP JUMPDEST PUSH1 0x3 DUP2 ADD SLOAD ISZERO PUSH2 0x14F9 JUMPI PUSH1 0x40 MLOAD PUSH3 0x461BCD PUSH1 0xE5 SHL DUP2 MSTORE PUSH1 0x4 ADD PUSH2 0x638 SWAP1 PUSH2 0x3390 JUMP JUMPDEST PUSH1 0x69 SLOAD PUSH1 0x40 MLOAD PUSH4 0x11CDC9D9 PUSH1 0xE1 SHL DUP2 MSTORE PUSH1 0x1 PUSH1 0x1 PUSH1 0xA0 SHL SUB SWAP1 SWAP2 AND SWAP1 PUSH4 0x239B93B2 SWAP1 PUSH2 0x1531 SWAP1 DUP15 SWAP1 DUP10 SWAP1 DUP15 SWAP1 DUP13 SWAP1 DUP11 SWAP1 PUSH1 0x4 ADD PUSH2 0x3048 JUMP JUMPDEST PUSH1 0x20 PUSH1 0x40 MLOAD DUP1 DUP4 SUB DUP2 DUP7 DUP1 EXTCODESIZE ISZERO DUP1 ISZERO PUSH2 0x1549 JUMPI PUSH1 0x0 DUP1 REVERT JUMPDEST POP GAS STATICCALL ISZERO DUP1 ISZERO PUSH2 0x155D JUMPI RETURNDATASIZE PUSH1 0x0 DUP1 RETURNDATACOPY RETURNDATASIZE PUSH1 0x0 REVERT JUMPDEST POP POP POP POP PUSH1 0x40 MLOAD RETURNDATASIZE PUSH1 0x1F NOT PUSH1 0x1F DUP3 ADD AND DUP3 ADD DUP1 PUSH1 0x40 MSTORE POP DUP2 ADD SWAP1 PUSH2 0x1581 SWAP2 SWAP1 PUSH2 0x2B8C JUMP JUMPDEST PUSH2 0x159D JUMPI PUSH1 0x40 MLOAD PUSH3 0x461BCD PUSH1 0xE5 SHL DUP2 MSTORE PUSH1 0x4 ADD PUSH2 0x638 SWAP1 PUSH2 0x314D JUMP JUMPDEST PUSH1 0x74 SLOAD DUP11 GT PUSH2 0x15BE JUMPI PUSH1 0x40 MLOAD PUSH3 0x461BCD PUSH1 0xE5 SHL DUP2 MSTORE PUSH1 0x4 ADD PUSH2 0x638 SWAP1 PUSH2 0x3271 JUMP JUMPDEST PUSH1 0x67 SLOAD PUSH2 0x15D6 SWAP1 PUSH1 0x1 PUSH1 0x1 PUSH1 0xA0 SHL SUB AND CALLER ADDRESS DUP14 PUSH2 0x237A JUMP JUMPDEST PUSH1 0x67 SLOAD PUSH1 0x40 MLOAD PUSH4 0x70A08231 PUSH1 0xE0 SHL DUP2 MSTORE PUSH1 0x0 SWAP2 PUSH1 0x1 PUSH1 0x1 PUSH1 0xA0 SHL SUB AND SWAP1 PUSH4 0x70A08231 SWAP1 PUSH2 0x1607 SWAP1 ADDRESS SWAP1 PUSH1 0x4 ADD PUSH2 0x2FA8 JUMP JUMPDEST PUSH1 0x20 PUSH1 0x40 MLOAD DUP1 DUP4 SUB DUP2 DUP7 DUP1 EXTCODESIZE ISZERO DUP1 ISZERO PUSH2 0x161F JUMPI PUSH1 0x0 DUP1 REVERT JUMPDEST POP GAS STATICCALL ISZERO DUP1 ISZERO PUSH2 0x1633 JUMPI RETURNDATASIZE PUSH1 0x0 DUP1 RETURNDATACOPY RETURNDATASIZE PUSH1 0x0 REVERT JUMPDEST POP POP POP POP PUSH1 0x40 MLOAD RETURNDATASIZE PUSH1 0x1F NOT PUSH1 0x1F DUP3 ADD AND DUP3 ADD DUP1 PUSH1 0x40 MSTORE POP DUP2 ADD SWAP1 PUSH2 0x1657 SWAP2 SWAP1 PUSH2 0x2E65 JUMP JUMPDEST SWAP1 POP PUSH1 0x0 PUSH2 0x1686 PUSH8 0xDE0B6B3A7640000 PUSH2 0x861 PUSH1 0x73 SLOAD PUSH2 0x861 PUSH1 0x72 SLOAD PUSH2 0x894 DUP13 DUP15 PUSH2 0x1BEE SWAP1 SWAP2 SWAP1 PUSH4 0xFFFFFFFF AND JUMP JUMPDEST PUSH1 0x68 SLOAD PUSH1 0x67 SLOAD SWAP2 SWAP3 POP PUSH2 0x16A6 SWAP2 PUSH1 0x1 PUSH1 0x1 PUSH1 0xA0 SHL SUB SWAP1 DUP2 AND SWAP2 AND DUP4 PUSH2 0x23D8 JUMP JUMPDEST PUSH1 0x68 PUSH1 0x0 SWAP1 SLOAD SWAP1 PUSH2 0x100 EXP SWAP1 DIV PUSH1 0x1 PUSH1 0x1 PUSH1 0xA0 SHL SUB AND PUSH1 0x1 PUSH1 0x1 PUSH1 0xA0 SHL SUB AND PUSH4 0xD10C06A2 PUSH1 0x40 MLOAD DUP2 PUSH4 0xFFFFFFFF AND PUSH1 0xE0 SHL DUP2 MSTORE PUSH1 0x4 ADD PUSH1 0x20 PUSH1 0x40 MLOAD DUP1 DUP4 SUB DUP2 PUSH1 0x0 DUP8 DUP1 EXTCODESIZE ISZERO DUP1 ISZERO PUSH2 0x16F6 JUMPI PUSH1 0x0 DUP1 REVERT JUMPDEST POP GAS CALL ISZERO DUP1 ISZERO PUSH2 0x170A JUMPI RETURNDATASIZE PUSH1 0x0 DUP1 RETURNDATACOPY RETURNDATASIZE PUSH1 0x0 REVERT JUMPDEST POP POP POP POP PUSH1 0x40 MLOAD RETURNDATASIZE PUSH1 0x1F NOT PUSH1 0x1F DUP3 ADD AND DUP3 ADD DUP1 PUSH1 0x40 MSTORE POP DUP2 ADD SWAP1 PUSH2 0x172E SWAP2 SWAP1 PUSH2 0x2B8C JUMP JUMPDEST POP PUSH1 0x67 SLOAD PUSH1 0x1 PUSH1 0x1 PUSH1 0xA0 SHL SUB AND PUSH4 0x42966C68 PUSH2 0x174A DUP5 DUP5 PUSH2 0x1BFA JUMP JUMPDEST PUSH1 0x40 MLOAD DUP3 PUSH4 0xFFFFFFFF AND PUSH1 0xE0 SHL DUP2 MSTORE PUSH1 0x4 ADD PUSH2 0x1766 SWAP2 SWAP1 PUSH2 0x34C6 JUMP JUMPDEST PUSH1 0x0 PUSH1 0x40 MLOAD DUP1 DUP4 SUB DUP2 PUSH1 0x0 DUP8 DUP1 EXTCODESIZE ISZERO DUP1 ISZERO PUSH2 0x1780 JUMPI PUSH1 0x0 DUP1 REVERT JUMPDEST POP GAS CALL ISZERO DUP1 ISZERO PUSH2 0x1794 JUMPI RETURNDATASIZE PUSH1 0x0 DUP1 RETURNDATACOPY RETURNDATASIZE PUSH1 0x0 REVERT JUMPDEST POP POP PUSH1 0x6B SLOAD PUSH1 0x6C DUP1 SLOAD PUSH1 0x1 DUP2 DUP2 ADD DUP4 SSTORE PUSH1 0x0 DUP4 SWAP1 MSTORE PUSH32 0x2B4A51AB505FC96A0952EFDA2BA61BCD3078D4C02C39A186EC16F21883FBE016 SWAP1 SWAP2 ADD SWAP3 SWAP1 SWAP3 SSTORE SLOAD PUSH2 0x17DE SWAP4 POP SWAP2 POP PUSH2 0x1BFA JUMP JUMPDEST PUSH1 0x6B DUP1 SLOAD PUSH1 0x0 SWAP1 DUP2 MSTORE PUSH1 0x6D PUSH1 0x20 SWAP1 DUP2 MSTORE PUSH1 0x40 DUP1 DUP4 KECCAK256 SWAP5 SWAP1 SWAP5 SSTORE CALLER DUP1 DUP4 MSTORE PUSH1 0x6E DUP1 DUP4 MSTORE DUP6 DUP5 KECCAK256 DUP6 SLOAD DUP2 SLOAD PUSH1 0x1 DUP2 DUP2 ADD DUP5 SSTORE DUP4 DUP9 MSTORE DUP7 DUP9 KECCAK256 SWAP1 SWAP2 ADD SWAP2 SWAP1 SWAP2 SSTORE SWAP6 SLOAD SWAP3 DUP6 MSTORE PUSH1 0x6F DUP5 MSTORE SWAP6 DUP5 KECCAK256 SWAP3 MSTORE SWAP4 SLOAD SWAP1 SWAP3 PUSH2 0x1837 SWAP2 SWAP1 PUSH2 0x1BFA JUMP JUMPDEST DUP2 MSTORE PUSH1 0x20 ADD SWAP1 DUP2 MSTORE PUSH1 0x20 ADD PUSH1 0x0 KECCAK256 DUP2 SWAP1 SSTORE POP PUSH1 0x6B PUSH1 0x0 DUP2 SLOAD DUP1 SWAP3 SWAP2 SWAP1 PUSH2 0x185C SWAP1 PUSH2 0x3609 JUMP JUMPDEST SWAP1 SWAP2 SSTORE POP POP DUP3 SLOAD PUSH1 0x1 PUSH1 0x1 PUSH1 0xA0 SHL SUB NOT AND CALLER OR DUP4 SSTORE PUSH1 0x1 DUP4 ADD DUP10 SWAP1 SSTORE DUP8 MLOAD PUSH2 0x188D SWAP1 PUSH1 0x2 DUP6 ADD SWAP1 PUSH1 0x20 DUP12 ADD SWAP1 PUSH2 0x2848 JUMP JUMPDEST POP PUSH1 0x1 PUSH1 0x3 DUP5 ADD SSTORE PUSH1 0x4 DUP4 ADD DUP11 SWAP1 SSTORE PUSH1 0x5 DUP4 ADD DUP8 SWAP1 SSTORE PUSH1 0x6 DUP4 ADD DUP12 SWAP1 SSTORE PUSH1 0x9 DUP4 ADD DUP7 SWAP1 SSTORE PUSH2 0x18BB DUP3 DUP3 PUSH2 0x1BFA JUMP JUMPDEST PUSH1 0xA SWAP1 SWAP4 ADD SWAP3 SWAP1 SWAP3 SSTORE POP PUSH1 0x1 SWAP12 SWAP11 POP POP POP POP POP POP POP POP POP POP POP JUMP JUMPDEST PUSH1 0x1 PUSH1 0x1 PUSH1 0xA0 SHL SUB AND PUSH1 0x0 SWAP1 DUP2 MSTORE PUSH1 0x6E PUSH1 0x20 MSTORE PUSH1 0x40 SWAP1 KECCAK256 SLOAD SWAP1 JUMP JUMPDEST PUSH1 0x70 PUSH1 0x20 MSTORE DUP2 PUSH1 0x0 MSTORE PUSH1 0x40 PUSH1 0x0 KECCAK256 DUP2 DUP2 SLOAD DUP2 LT PUSH2 0x1494 JUMPI PUSH1 0x0 DUP1 REVERT JUMPDEST PUSH1 0x71 PUSH1 0x20 SWAP1 DUP2 MSTORE PUSH1 0x0 SWAP3 DUP4 MSTORE PUSH1 0x40 DUP1 DUP5 KECCAK256 SWAP1 SWAP2 MSTORE SWAP1 DUP3 MSTORE SWAP1 KECCAK256 SLOAD DUP2 JUMP JUMPDEST PUSH1 0x74 SLOAD DUP2 JUMP JUMPDEST PUSH2 0x1938 PUSH2 0x1C06 JUMP JUMPDEST PUSH1 0x1 PUSH1 0x1 PUSH1 0xA0 SHL SUB AND PUSH2 0x1949 PUSH2 0xFA3 JUMP JUMPDEST PUSH1 0x1 PUSH1 0x1 PUSH1 0xA0 SHL SUB AND EQ PUSH2 0x196F JUMPI PUSH1 0x40 MLOAD PUSH3 0x461BCD PUSH1 0xE5 SHL DUP2 MSTORE PUSH1 0x4 ADD PUSH2 0x638 SWAP1 PUSH2 0x32DE JUMP JUMPDEST PUSH1 0x1 PUSH1 0x1 PUSH1 0xA0 SHL SUB DUP2 AND PUSH2 0x1995 JUMPI PUSH1 0x40 MLOAD PUSH3 0x461BCD PUSH1 0xE5 SHL DUP2 MSTORE PUSH1 0x4 ADD PUSH2 0x638 SWAP1 PUSH2 0x3107 JUMP JUMPDEST PUSH2 0x199E DUP2 PUSH2 0x231C JUMP JUMPDEST POP JUMP JUMPDEST PUSH1 0x6B SLOAD DUP2 JUMP JUMPDEST PUSH1 0x0 SLOAD PUSH2 0x100 SWAP1 DIV PUSH1 0xFF AND DUP1 PUSH2 0x19C0 JUMPI POP PUSH1 0x0 SLOAD PUSH1 0xFF AND ISZERO JUMPDEST PUSH2 0x19DC JUMPI PUSH1 0x40 MLOAD PUSH3 0x461BCD PUSH1 0xE5 SHL DUP2 MSTORE PUSH1 0x4 ADD PUSH2 0x638 SWAP1 PUSH2 0x3223 JUMP JUMPDEST PUSH1 0x0 SLOAD PUSH2 0x100 SWAP1 DIV PUSH1 0xFF AND ISZERO DUP1 ISZERO PUSH2 0x1A07 JUMPI PUSH1 0x0 DUP1 SLOAD PUSH1 0xFF NOT PUSH2 0xFF00 NOT SWAP1 SWAP2 AND PUSH2 0x100 OR AND PUSH1 0x1 OR SWAP1 SSTORE JUMPDEST PUSH2 0x1A0F PUSH2 0x23FC JUMP JUMPDEST PUSH1 0x66 DUP1 SLOAD PUSH1 0x1 PUSH1 0x1 PUSH1 0xA0 SHL SUB DUP1 DUP9 AND PUSH1 0x1 PUSH1 0x1 PUSH1 0xA0 SHL SUB NOT SWAP3 DUP4 AND OR SWAP1 SWAP3 SSTORE PUSH1 0x68 DUP1 SLOAD DUP8 DUP5 AND SWAP1 DUP4 AND OR SWAP1 SSTORE PUSH1 0x67 DUP1 SLOAD DUP7 DUP5 AND SWAP1 DUP4 AND OR SWAP1 SSTORE PUSH2 0x2710 PUSH1 0x73 SSTORE PUSH1 0x69 DUP1 SLOAD SWAP3 DUP6 AND SWAP3 SWAP1 SWAP2 AND SWAP2 SWAP1 SWAP2 OR SWAP1 SSTORE PUSH8 0xDE0B6B3A7640000 PUSH1 0x74 SSTORE PUSH1 0x32 PUSH1 0x72 SSTORE DUP1 ISZERO PUSH2 0x1A82 JUMPI PUSH1 0x0 DUP1 SLOAD PUSH2 0xFF00 NOT AND SWAP1 SSTORE JUMPDEST POP POP POP POP POP JUMP JUMPDEST PUSH1 0x0 PUSH2 0x1A93 PUSH2 0x1C06 JUMP JUMPDEST PUSH1 0x1 PUSH1 0x1 PUSH1 0xA0 SHL SUB AND PUSH2 0x1AA4 PUSH2 0xFA3 JUMP JUMPDEST PUSH1 0x1 PUSH1 0x1 PUSH1 0xA0 SHL SUB AND EQ PUSH2 0x1ACA JUMPI PUSH1 0x40 MLOAD PUSH3 0x461BCD PUSH1 0xE5 SHL DUP2 MSTORE PUSH1 0x4 ADD PUSH2 0x638 SWAP1 PUSH2 0x32DE JUMP JUMPDEST PUSH1 0x40 MLOAD DUP1 PUSH2 0x160 ADD PUSH1 0x40 MSTORE DUP1 DUP14 PUSH1 0x1 PUSH1 0x1 PUSH1 0xA0 SHL SUB AND DUP2 MSTORE PUSH1 0x20 ADD DUP13 DUP2 MSTORE PUSH1 0x20 ADD DUP12 DUP2 MSTORE PUSH1 0x20 ADD DUP11 DUP2 MSTORE PUSH1 0x20 ADD DUP10 DUP2 MSTORE PUSH1 0x20 ADD DUP9 DUP2 MSTORE PUSH1 0x20 ADD DUP8 DUP2 MSTORE PUSH1 0x20 ADD DUP7 DUP2 MSTORE PUSH1 0x20 ADD DUP6 DUP2 MSTORE PUSH1 0x20 ADD DUP5 DUP2 MSTORE PUSH1 0x20 ADD DUP4 DUP2 MSTORE POP PUSH1 0x6A PUSH1 0x0 DUP16 DUP2 MSTORE PUSH1 0x20 ADD SWAP1 DUP2 MSTORE PUSH1 0x20 ADD PUSH1 0x0 KECCAK256 PUSH1 0x0 DUP3 ADD MLOAD DUP2 PUSH1 0x0 ADD PUSH1 0x0 PUSH2 0x100 EXP DUP2 SLOAD DUP2 PUSH1 0x1 PUSH1 0x1 PUSH1 0xA0 SHL SUB MUL NOT AND SWAP1 DUP4 PUSH1 0x1 PUSH1 0x1 PUSH1 0xA0 SHL SUB AND MUL OR SWAP1 SSTORE POP PUSH1 0x20 DUP3 ADD MLOAD DUP2 PUSH1 0x1 ADD SSTORE PUSH1 0x40 DUP3 ADD MLOAD DUP2 PUSH1 0x2 ADD SWAP1 DUP1 MLOAD SWAP1 PUSH1 0x20 ADD SWAP1 PUSH2 0x1B85 SWAP3 SWAP2 SWAP1 PUSH2 0x2848 JUMP JUMPDEST POP PUSH1 0x60 DUP3 ADD MLOAD PUSH1 0x3 DUP3 ADD SSTORE PUSH1 0x80 DUP3 ADD MLOAD PUSH1 0x4 DUP3 ADD SSTORE PUSH1 0xA0 DUP3 ADD MLOAD PUSH1 0x5 DUP3 ADD SSTORE PUSH1 0xC0 DUP3 ADD MLOAD PUSH1 0x6 DUP3 ADD SSTORE PUSH1 0xE0 DUP3 ADD MLOAD PUSH1 0x7 DUP3 ADD SSTORE PUSH2 0x100 DUP3 ADD MLOAD PUSH1 0x8 DUP3 ADD SSTORE PUSH2 0x120 DUP3 ADD MLOAD PUSH1 0x9 DUP3 ADD SSTORE PUSH2 0x140 SWAP1 SWAP2 ADD MLOAD PUSH1 0xA SWAP1 SWAP2 ADD SSTORE POP PUSH1 0x1 SWAP13 SWAP12 POP POP POP POP POP POP POP POP POP POP POP POP JUMP JUMPDEST PUSH1 0x0 PUSH2 0x94F DUP3 DUP5 PUSH2 0x3555 JUMP JUMPDEST PUSH1 0x0 PUSH2 0x94F DUP3 DUP5 PUSH2 0x3574 JUMP JUMPDEST CALLER SWAP1 JUMP JUMPDEST PUSH1 0x0 PUSH2 0x94F DUP3 DUP5 PUSH2 0x3535 JUMP JUMPDEST DUP7 SLOAD PUSH1 0x0 SWAP1 PUSH1 0x1 PUSH1 0x1 PUSH1 0xA0 SHL SUB AND PUSH2 0x1C40 JUMPI PUSH1 0x40 MLOAD PUSH3 0x461BCD PUSH1 0xE5 SHL DUP2 MSTORE PUSH1 0x4 ADD PUSH2 0x638 SWAP1 PUSH2 0x30B1 JUMP JUMPDEST PUSH1 0x2 DUP9 PUSH1 0x3 ADD SLOAD LT PUSH2 0x1C64 JUMPI PUSH1 0x40 MLOAD PUSH3 0x461BCD PUSH1 0xE5 SHL DUP2 MSTORE PUSH1 0x4 ADD PUSH2 0x638 SWAP1 PUSH2 0x3390 JUMP JUMPDEST PUSH1 0x69 SLOAD PUSH1 0x40 MLOAD PUSH4 0x11CDC9D9 PUSH1 0xE1 SHL DUP2 MSTORE PUSH1 0x1 PUSH1 0x1 PUSH1 0xA0 SHL SUB SWAP1 SWAP2 AND SWAP1 PUSH4 0x239B93B2 SWAP1 PUSH2 0x1C9C SWAP1 DUP13 SWAP1 DUP8 SWAP1 DUP11 SWAP1 DUP11 SWAP1 DUP10 SWAP1 PUSH1 0x4 ADD PUSH2 0x3048 JUMP JUMPDEST PUSH1 0x20 PUSH1 0x40 MLOAD DUP1 DUP4 SUB DUP2 DUP7 DUP1 EXTCODESIZE ISZERO DUP1 ISZERO PUSH2 0x1CB4 JUMPI PUSH1 0x0 DUP1 REVERT JUMPDEST POP GAS STATICCALL ISZERO DUP1 ISZERO PUSH2 0x1CC8 JUMPI RETURNDATASIZE PUSH1 0x0 DUP1 RETURNDATACOPY RETURNDATASIZE PUSH1 0x0 REVERT JUMPDEST POP POP POP POP PUSH1 0x40 MLOAD RETURNDATASIZE PUSH1 0x1F NOT PUSH1 0x1F DUP3 ADD AND DUP3 ADD DUP1 PUSH1 0x40 MSTORE POP DUP2 ADD SWAP1 PUSH2 0x1CEC SWAP2 SWAP1 PUSH2 0x2B8C JUMP JUMPDEST PUSH2 0x1D08 JUMPI PUSH1 0x40 MLOAD PUSH3 0x461BCD PUSH1 0xE5 SHL DUP2 MSTORE PUSH1 0x4 ADD PUSH2 0x638 SWAP1 PUSH2 0x314D JUMP JUMPDEST PUSH1 0x7 DUP9 ADD DUP4 SWAP1 SSTORE PUSH1 0x9 DUP9 ADD SLOAD PUSH1 0x73 SLOAD PUSH1 0x72 SLOAD PUSH1 0x0 SWAP3 DUP4 SWAP3 DUP4 SWAP3 DUP9 SWAP2 DUP5 SWAP2 PUSH2 0x1D44 SWAP2 PUSH8 0xDE0B6B3A7640000 SWAP2 PUSH2 0x861 SWAP2 SWAP1 DUP3 SWAP1 PUSH2 0x894 DUP9 DUP11 PUSH2 0x1BEE JUMP JUMPDEST SWAP1 POP DUP14 PUSH1 0x4 ADD SLOAD PUSH1 0x1 EQ ISZERO PUSH2 0x202A JUMPI DUP14 PUSH1 0x5 ADD SLOAD DUP15 PUSH1 0x7 ADD SLOAD GT ISZERO PUSH2 0x1EC2 JUMPI PUSH1 0x5 DUP15 ADD SLOAD PUSH1 0x7 DUP16 ADD SLOAD PUSH2 0x1D76 SWAP2 PUSH2 0x1BFA JUMP JUMPDEST SWAP6 POP PUSH2 0x1D8E PUSH8 0xDE0B6B3A7640000 PUSH2 0x861 DUP9 DUP7 PUSH2 0x1BEE JUMP JUMPDEST PUSH1 0xA DUP16 ADD SLOAD SWAP1 SWAP6 POP PUSH2 0x1DA0 SWAP1 DUP7 PUSH2 0x236E JUMP JUMPDEST PUSH1 0x67 SLOAD PUSH1 0x68 SLOAD PUSH1 0x40 MLOAD PUSH4 0x40C10F19 PUSH1 0xE0 SHL DUP2 MSTORE SWAP3 SWAP7 POP PUSH1 0x1 PUSH1 0x1 PUSH1 0xA0 SHL SUB SWAP2 DUP3 AND SWAP3 PUSH4 0x40C10F19 SWAP3 PUSH2 0x1DD8 SWAP3 AND SWAP1 DUP6 SWAP1 PUSH1 0x4 ADD PUSH2 0x2FE0 JUMP JUMPDEST PUSH1 0x20 PUSH1 0x40 MLOAD DUP1 DUP4 SUB DUP2 PUSH1 0x0 DUP8 DUP1 EXTCODESIZE ISZERO DUP1 ISZERO PUSH2 0x1DF2 JUMPI PUSH1 0x0 DUP1 REVERT JUMPDEST POP GAS CALL ISZERO DUP1 ISZERO PUSH2 0x1E06 JUMPI RETURNDATASIZE PUSH1 0x0 DUP1 RETURNDATACOPY RETURNDATASIZE PUSH1 0x0 REVERT JUMPDEST POP POP POP POP PUSH1 0x40 MLOAD RETURNDATASIZE PUSH1 0x1F NOT PUSH1 0x1F DUP3 ADD AND DUP3 ADD DUP1 PUSH1 0x40 MSTORE POP DUP2 ADD SWAP1 PUSH2 0x1E2A SWAP2 SWAP1 PUSH2 0x2B8C JUMP JUMPDEST POP PUSH1 0x67 SLOAD DUP15 SLOAD PUSH1 0x1 PUSH1 0x1 PUSH1 0xA0 SHL SUB SWAP2 DUP3 AND SWAP2 PUSH4 0x40C10F19 SWAP2 AND PUSH2 0x1E4D DUP8 DUP6 PUSH2 0x1BFA JUMP JUMPDEST PUSH1 0x40 MLOAD DUP4 PUSH4 0xFFFFFFFF AND PUSH1 0xE0 SHL DUP2 MSTORE PUSH1 0x4 ADD PUSH2 0x1E6A SWAP3 SWAP2 SWAP1 PUSH2 0x2FE0 JUMP JUMPDEST PUSH1 0x20 PUSH1 0x40 MLOAD DUP1 DUP4 SUB DUP2 PUSH1 0x0 DUP8 DUP1 EXTCODESIZE ISZERO DUP1 ISZERO PUSH2 0x1E84 JUMPI PUSH1 0x0 DUP1 REVERT JUMPDEST POP GAS CALL ISZERO DUP1 ISZERO PUSH2 0x1E98 JUMPI RETURNDATASIZE PUSH1 0x0 DUP1 RETURNDATACOPY RETURNDATASIZE PUSH1 0x0 REVERT JUMPDEST POP POP POP POP PUSH1 0x40 MLOAD RETURNDATASIZE PUSH1 0x1F NOT PUSH1 0x1F DUP3 ADD AND DUP3 ADD DUP1 PUSH1 0x40 MSTORE POP DUP2 ADD SWAP1 PUSH2 0x1EBC SWAP2 SWAP1 PUSH2 0x2B8C JUMP JUMPDEST POP PUSH2 0x2025 JUMP JUMPDEST PUSH1 0x7 DUP15 ADD SLOAD PUSH1 0x5 DUP16 ADD SLOAD PUSH2 0x1ED5 SWAP2 PUSH2 0x1BFA JUMP JUMPDEST SWAP6 POP PUSH2 0x1EE1 DUP7 DUP5 PUSH2 0x1BEE JUMP JUMPDEST SWAP5 POP DUP14 PUSH1 0xA ADD SLOAD DUP6 GT ISZERO PUSH2 0x1EF8 JUMPI PUSH1 0x0 SWAP4 POP PUSH2 0x2025 JUMP JUMPDEST PUSH1 0xA DUP15 ADD SLOAD PUSH2 0x1F07 SWAP1 DUP7 PUSH2 0x1BFA JUMP JUMPDEST PUSH1 0x67 SLOAD PUSH1 0x68 SLOAD PUSH1 0x40 MLOAD PUSH4 0x40C10F19 PUSH1 0xE0 SHL DUP2 MSTORE SWAP3 SWAP7 POP PUSH1 0x1 PUSH1 0x1 PUSH1 0xA0 SHL SUB SWAP2 DUP3 AND SWAP3 PUSH4 0x40C10F19 SWAP3 PUSH2 0x1F3F SWAP3 AND SWAP1 DUP6 SWAP1 PUSH1 0x4 ADD PUSH2 0x2FE0 JUMP JUMPDEST PUSH1 0x20 PUSH1 0x40 MLOAD DUP1 DUP4 SUB DUP2 PUSH1 0x0 DUP8 DUP1 EXTCODESIZE ISZERO DUP1 ISZERO PUSH2 0x1F59 JUMPI PUSH1 0x0 DUP1 REVERT JUMPDEST POP GAS CALL ISZERO DUP1 ISZERO PUSH2 0x1F6D JUMPI RETURNDATASIZE PUSH1 0x0 DUP1 RETURNDATACOPY RETURNDATASIZE PUSH1 0x0 REVERT JUMPDEST POP POP POP POP PUSH1 0x40 MLOAD RETURNDATASIZE PUSH1 0x1F NOT PUSH1 0x1F DUP3 ADD AND DUP3 ADD DUP1 PUSH1 0x40 MSTORE POP DUP2 ADD SWAP1 PUSH2 0x1F91 SWAP2 SWAP1 PUSH2 0x2B8C JUMP JUMPDEST POP PUSH1 0x67 SLOAD DUP15 SLOAD PUSH1 0x1 PUSH1 0x1 PUSH1 0xA0 SHL SUB SWAP2 DUP3 AND SWAP2 PUSH4 0x40C10F19 SWAP2 AND PUSH2 0x1FB4 DUP8 DUP6 PUSH2 0x1BFA JUMP JUMPDEST PUSH1 0x40 MLOAD DUP4 PUSH4 0xFFFFFFFF AND PUSH1 0xE0 SHL DUP2 MSTORE PUSH1 0x4 ADD PUSH2 0x1FD1 SWAP3 SWAP2 SWAP1 PUSH2 0x2FE0 JUMP JUMPDEST PUSH1 0x20 PUSH1 0x40 MLOAD DUP1 DUP4 SUB DUP2 PUSH1 0x0 DUP8 DUP1 EXTCODESIZE ISZERO DUP1 ISZERO PUSH2 0x1FEB JUMPI PUSH1 0x0 DUP1 REVERT JUMPDEST POP GAS CALL ISZERO DUP1 ISZERO PUSH2 0x1FFF JUMPI RETURNDATASIZE PUSH1 0x0 DUP1 RETURNDATACOPY RETURNDATASIZE PUSH1 0x0 REVERT JUMPDEST POP POP POP POP PUSH1 0x40 MLOAD RETURNDATASIZE PUSH1 0x1F NOT PUSH1 0x1F DUP3 ADD AND DUP3 ADD DUP1 PUSH1 0x40 MSTORE POP DUP2 ADD SWAP1 PUSH2 0x2023 SWAP2 SWAP1 PUSH2 0x2B8C JUMP JUMPDEST POP JUMPDEST PUSH2 0x21E6 JUMP JUMPDEST DUP14 PUSH1 0x5 ADD SLOAD DUP15 PUSH1 0x7 ADD SLOAD LT ISZERO PUSH2 0x2077 JUMPI PUSH1 0x7 DUP15 ADD SLOAD PUSH1 0x5 DUP16 ADD SLOAD PUSH2 0x204D SWAP2 PUSH2 0x1BFA JUMP JUMPDEST SWAP6 POP PUSH2 0x2065 PUSH8 0xDE0B6B3A7640000 PUSH2 0x861 DUP9 DUP7 PUSH2 0x1BEE JUMP JUMPDEST PUSH1 0xA DUP16 ADD SLOAD SWAP1 SWAP6 POP PUSH2 0x1F07 SWAP1 DUP7 PUSH2 0x236E JUMP JUMPDEST PUSH1 0x5 DUP15 ADD SLOAD PUSH1 0x7 DUP16 ADD SLOAD PUSH2 0x208A SWAP2 PUSH2 0x1BFA JUMP JUMPDEST SWAP6 POP PUSH2 0x20A2 PUSH8 0xDE0B6B3A7640000 PUSH2 0x861 DUP9 DUP7 PUSH2 0x1BEE JUMP JUMPDEST SWAP5 POP DUP14 PUSH1 0xA ADD SLOAD DUP6 GT ISZERO PUSH2 0x20B9 JUMPI PUSH1 0x0 SWAP4 POP PUSH2 0x21E6 JUMP JUMPDEST PUSH1 0xA DUP15 ADD SLOAD PUSH2 0x20C8 SWAP1 DUP7 PUSH2 0x1BFA JUMP JUMPDEST PUSH1 0x67 SLOAD PUSH1 0x68 SLOAD PUSH1 0x40 MLOAD PUSH4 0x40C10F19 PUSH1 0xE0 SHL DUP2 MSTORE SWAP3 SWAP7 POP PUSH1 0x1 PUSH1 0x1 PUSH1 0xA0 SHL SUB SWAP2 DUP3 AND SWAP3 PUSH4 0x40C10F19 SWAP3 PUSH2 0x2100 SWAP3 AND SWAP1 DUP6 SWAP1 PUSH1 0x4 ADD PUSH2 0x2FE0 JUMP JUMPDEST PUSH1 0x20 PUSH1 0x40 MLOAD DUP1 DUP4 SUB DUP2 PUSH1 0x0 DUP8 DUP1 EXTCODESIZE ISZERO DUP1 ISZERO PUSH2 0x211A JUMPI PUSH1 0x0 DUP1 REVERT JUMPDEST POP GAS CALL ISZERO DUP1 ISZERO PUSH2 0x212E JUMPI RETURNDATASIZE PUSH1 0x0 DUP1 RETURNDATACOPY RETURNDATASIZE PUSH1 0x0 REVERT JUMPDEST POP POP POP POP PUSH1 0x40 MLOAD RETURNDATASIZE PUSH1 0x1F NOT PUSH1 0x1F DUP3 ADD AND DUP3 ADD DUP1 PUSH1 0x40 MSTORE POP DUP2 ADD SWAP1 PUSH2 0x2152 SWAP2 SWAP1 PUSH2 0x2B8C JUMP JUMPDEST POP PUSH1 0x67 SLOAD DUP15 SLOAD PUSH1 0x1 PUSH1 0x1 PUSH1 0xA0 SHL SUB SWAP2 DUP3 AND SWAP2 PUSH4 0x40C10F19 SWAP2 AND PUSH2 0x2175 DUP8 DUP6 PUSH2 0x1BFA JUMP JUMPDEST PUSH1 0x40 MLOAD DUP4 PUSH4 0xFFFFFFFF AND PUSH1 0xE0 SHL DUP2 MSTORE PUSH1 0x4 ADD PUSH2 0x2192 SWAP3 SWAP2 SWAP1 PUSH2 0x2FE0 JUMP JUMPDEST PUSH1 0x20 PUSH1 0x40 MLOAD DUP1 DUP4 SUB DUP2 PUSH1 0x0 DUP8 DUP1 EXTCODESIZE ISZERO DUP1 ISZERO PUSH2 0x21AC JUMPI PUSH1 0x0 DUP1 REVERT JUMPDEST POP GAS CALL ISZERO DUP1 ISZERO PUSH2 0x21C0 JUMPI RETURNDATASIZE PUSH1 0x0 DUP1 RETURNDATACOPY RETURNDATASIZE PUSH1 0x0 REVERT JUMPDEST POP POP POP POP PUSH1 0x40 MLOAD RETURNDATASIZE PUSH1 0x1F NOT PUSH1 0x1F DUP3 ADD AND DUP3 ADD DUP1 PUSH1 0x40 MSTORE POP DUP2 ADD SWAP1 PUSH2 0x21E4 SWAP2 SWAP1 PUSH2 0x2B8C JUMP JUMPDEST POP JUMPDEST PUSH1 0x68 PUSH1 0x0 SWAP1 SLOAD SWAP1 PUSH2 0x100 EXP SWAP1 DIV PUSH1 0x1 PUSH1 0x1 PUSH1 0xA0 SHL SUB AND PUSH1 0x1 PUSH1 0x1 PUSH1 0xA0 SHL SUB AND PUSH4 0xD10C06A2 PUSH1 0x40 MLOAD DUP2 PUSH4 0xFFFFFFFF AND PUSH1 0xE0 SHL DUP2 MSTORE PUSH1 0x4 ADD PUSH1 0x20 PUSH1 0x40 MLOAD DUP1 DUP4 SUB DUP2 PUSH1 0x0 DUP8 DUP1 EXTCODESIZE ISZERO DUP1 ISZERO PUSH2 0x2236 JUMPI PUSH1 0x0 DUP1 REVERT JUMPDEST POP GAS CALL ISZERO DUP1 ISZERO PUSH2 0x224A JUMPI RETURNDATASIZE PUSH1 0x0 DUP1 RETURNDATACOPY RETURNDATASIZE PUSH1 0x0 REVERT JUMPDEST POP POP POP POP PUSH1 0x40 MLOAD RETURNDATASIZE PUSH1 0x1F NOT PUSH1 0x1F DUP3 ADD AND DUP3 ADD DUP1 PUSH1 0x40 MSTORE POP DUP2 ADD SWAP1 PUSH2 0x226E SWAP2 SWAP1 PUSH2 0x2B8C JUMP JUMPDEST POP PUSH1 0x3 DUP15 ADD DUP14 SWAP1 SSTORE PUSH1 0x7 DUP15 ADD DUP10 SWAP1 SSTORE PUSH1 0x8 DUP15 ADD DUP12 SWAP1 SSTORE PUSH2 0x2291 DUP13 PUSH1 0x6D PUSH1 0x6C PUSH2 0x2480 JUMP JUMPDEST CALLER PUSH1 0x0 SWAP1 DUP2 MSTORE PUSH1 0x6F PUSH1 0x20 SWAP1 DUP2 MSTORE PUSH1 0x40 DUP1 DUP4 KECCAK256 PUSH1 0x6E SWAP1 SWAP3 MSTORE SWAP1 SWAP2 KECCAK256 PUSH2 0x22B6 SWAP2 DUP15 SWAP2 PUSH2 0x2480 JUMP JUMPDEST CALLER PUSH1 0x0 DUP2 DUP2 MSTORE PUSH1 0x70 PUSH1 0x20 SWAP1 DUP2 MSTORE PUSH1 0x40 DUP3 KECCAK256 DUP1 SLOAD PUSH1 0x1 DUP2 DUP2 ADD DUP4 SSTORE SWAP2 DUP5 MSTORE SWAP2 SWAP1 SWAP3 KECCAK256 ADD DUP15 SWAP1 SSTORE PUSH2 0x22E8 SWAP2 PUSH2 0x5E8 SWAP1 PUSH2 0x145D JUMP JUMPDEST CALLER PUSH1 0x0 SWAP1 DUP2 MSTORE PUSH1 0x71 PUSH1 0x20 SWAP1 DUP2 MSTORE PUSH1 0x40 DUP1 DUP4 KECCAK256 SWAP16 DUP4 MSTORE SWAP15 SWAP1 MSTORE SWAP13 SWAP1 SWAP13 KECCAK256 SWAP12 SWAP1 SWAP12 SSTORE POP PUSH1 0x1 SWAP14 SWAP13 POP POP POP POP POP POP POP POP POP POP POP POP POP JUMP JUMPDEST PUSH1 0x33 DUP1 SLOAD PUSH1 0x1 PUSH1 0x1 PUSH1 0xA0 SHL SUB DUP4 DUP2 AND PUSH1 0x1 PUSH1 0x1 PUSH1 0xA0 SHL SUB NOT DUP4 AND DUP2 OR SWAP1 SWAP4 SSTORE PUSH1 0x40 MLOAD SWAP2 AND SWAP2 SWAP1 DUP3 SWAP1 PUSH32 0x8BE0079C531659141344CD1FD0A4F28419497F9722A3DAAFE3B4186F6B6457E0 SWAP1 PUSH1 0x0 SWAP1 LOG3 POP POP JUMP JUMPDEST PUSH1 0x0 PUSH2 0x94F DUP3 DUP5 PUSH2 0x351D JUMP JUMPDEST PUSH2 0x23D2 DUP5 PUSH4 0x23B872DD PUSH1 0xE0 SHL DUP6 DUP6 DUP6 PUSH1 0x40 MLOAD PUSH1 0x24 ADD PUSH2 0x239B SWAP4 SWAP3 SWAP2 SWAP1 PUSH2 0x2FBC JUMP JUMPDEST PUSH1 0x40 DUP1 MLOAD PUSH1 0x1F NOT DUP2 DUP5 SUB ADD DUP2 MSTORE SWAP2 SWAP1 MSTORE PUSH1 0x20 DUP2 ADD DUP1 MLOAD PUSH1 0x1 PUSH1 0x1 PUSH1 0xE0 SHL SUB AND PUSH1 0x1 PUSH1 0x1 PUSH1 0xE0 SHL SUB NOT SWAP1 SWAP4 AND SWAP3 SWAP1 SWAP3 OR SWAP1 SWAP2 MSTORE PUSH2 0x255D JUMP JUMPDEST POP POP POP POP JUMP JUMPDEST PUSH2 0x23F7 DUP4 PUSH4 0xA9059CBB PUSH1 0xE0 SHL DUP5 DUP5 PUSH1 0x40 MLOAD PUSH1 0x24 ADD PUSH2 0x239B SWAP3 SWAP2 SWAP1 PUSH2 0x2FE0 JUMP JUMPDEST POP POP POP JUMP JUMPDEST PUSH1 0x0 SLOAD PUSH2 0x100 SWAP1 DIV PUSH1 0xFF AND DUP1 PUSH2 0x2415 JUMPI POP PUSH1 0x0 SLOAD PUSH1 0xFF AND ISZERO JUMPDEST PUSH2 0x2431 JUMPI PUSH1 0x40 MLOAD PUSH3 0x461BCD PUSH1 0xE5 SHL DUP2 MSTORE PUSH1 0x4 ADD PUSH2 0x638 SWAP1 PUSH2 0x3223 JUMP JUMPDEST PUSH1 0x0 SLOAD PUSH2 0x100 SWAP1 DIV PUSH1 0xFF AND ISZERO DUP1 ISZERO PUSH2 0x245C JUMPI PUSH1 0x0 DUP1 SLOAD PUSH1 0xFF NOT PUSH2 0xFF00 NOT SWAP1 SWAP2 AND PUSH2 0x100 OR AND PUSH1 0x1 OR SWAP1 SSTORE JUMPDEST PUSH2 0x2464 PUSH2 0x25EC JUMP JUMPDEST PUSH2 0x246C PUSH2 0x265F JUMP JUMPDEST DUP1 ISZERO PUSH2 0x199E JUMPI PUSH1 0x0 DUP1 SLOAD PUSH2 0xFF00 NOT AND SWAP1 SSTORE POP JUMP JUMPDEST PUSH1 0x0 DUP4 DUP2 MSTORE PUSH1 0x20 DUP4 SWAP1 MSTORE PUSH1 0x40 DUP2 KECCAK256 SLOAD DUP3 SLOAD SWAP1 SWAP2 SWAP1 DUP4 SWAP1 PUSH2 0x24A1 SWAP1 PUSH1 0x1 PUSH2 0x1BFA JUMP JUMPDEST DUP2 SLOAD DUP2 LT PUSH2 0x24BF JUMPI PUSH4 0x4E487B71 PUSH1 0xE0 SHL PUSH1 0x0 MSTORE PUSH1 0x32 PUSH1 0x4 MSTORE PUSH1 0x24 PUSH1 0x0 REVERT JUMPDEST SWAP1 PUSH1 0x0 MSTORE PUSH1 0x20 PUSH1 0x0 KECCAK256 ADD SLOAD SWAP1 POP DUP2 DUP5 PUSH1 0x0 DUP4 DUP2 MSTORE PUSH1 0x20 ADD SWAP1 DUP2 MSTORE PUSH1 0x20 ADD PUSH1 0x0 KECCAK256 DUP2 SWAP1 SSTORE POP DUP1 DUP4 DUP4 DUP2 SLOAD DUP2 LT PUSH2 0x2504 JUMPI PUSH4 0x4E487B71 PUSH1 0xE0 SHL PUSH1 0x0 MSTORE PUSH1 0x32 PUSH1 0x4 MSTORE PUSH1 0x24 PUSH1 0x0 REVERT JUMPDEST PUSH1 0x0 SWAP2 DUP3 MSTORE PUSH1 0x20 DUP1 DUP4 KECCAK256 SWAP1 SWAP2 ADD SWAP3 SWAP1 SWAP3 SSTORE DUP7 DUP2 MSTORE SWAP1 DUP6 SWAP1 MSTORE PUSH1 0x40 DUP2 KECCAK256 SSTORE DUP3 SLOAD DUP4 SWAP1 DUP1 PUSH2 0x2540 JUMPI PUSH4 0x4E487B71 PUSH1 0xE0 SHL PUSH1 0x0 MSTORE PUSH1 0x31 PUSH1 0x4 MSTORE PUSH1 0x24 PUSH1 0x0 REVERT JUMPDEST PUSH1 0x1 SWAP1 SUB DUP2 DUP2 SWAP1 PUSH1 0x0 MSTORE PUSH1 0x20 PUSH1 0x0 KECCAK256 ADD PUSH1 0x0 SWAP1 SSTORE SWAP1 SSTORE POP POP POP POP POP JUMP JUMPDEST PUSH1 0x0 PUSH2 0x25B2 DUP3 PUSH1 0x40 MLOAD DUP1 PUSH1 0x40 ADD PUSH1 0x40 MSTORE DUP1 PUSH1 0x20 DUP2 MSTORE PUSH1 0x20 ADD PUSH32 0x5361666545524332303A206C6F772D6C6576656C2063616C6C206661696C6564 DUP2 MSTORE POP DUP6 PUSH1 0x1 PUSH1 0x1 PUSH1 0xA0 SHL SUB AND PUSH2 0x26CF SWAP1 SWAP3 SWAP2 SWAP1 PUSH4 0xFFFFFFFF AND JUMP JUMPDEST DUP1 MLOAD SWAP1 SWAP2 POP ISZERO PUSH2 0x23F7 JUMPI DUP1 DUP1 PUSH1 0x20 ADD SWAP1 MLOAD DUP2 ADD SWAP1 PUSH2 0x25D0 SWAP2 SWAP1 PUSH2 0x2B8C JUMP JUMPDEST PUSH2 0x23F7 JUMPI PUSH1 0x40 MLOAD PUSH3 0x461BCD PUSH1 0xE5 SHL DUP2 MSTORE PUSH1 0x4 ADD PUSH2 0x638 SWAP1 PUSH2 0x33B3 JUMP JUMPDEST PUSH1 0x0 SLOAD PUSH2 0x100 SWAP1 DIV PUSH1 0xFF AND DUP1 PUSH2 0x2605 JUMPI POP PUSH1 0x0 SLOAD PUSH1 0xFF AND ISZERO JUMPDEST PUSH2 0x2621 JUMPI PUSH1 0x40 MLOAD PUSH3 0x461BCD PUSH1 0xE5 SHL DUP2 MSTORE PUSH1 0x4 ADD PUSH2 0x638 SWAP1 PUSH2 0x3223 JUMP JUMPDEST PUSH1 0x0 SLOAD PUSH2 0x100 SWAP1 DIV PUSH1 0xFF AND ISZERO DUP1 ISZERO PUSH2 0x246C JUMPI PUSH1 0x0 DUP1 SLOAD PUSH1 0xFF NOT PUSH2 0xFF00 NOT SWAP1 SWAP2 AND PUSH2 0x100 OR AND PUSH1 0x1 OR SWAP1 SSTORE DUP1 ISZERO PUSH2 0x199E JUMPI PUSH1 0x0 DUP1 SLOAD PUSH2 0xFF00 NOT AND SWAP1 SSTORE POP JUMP JUMPDEST PUSH1 0x0 SLOAD PUSH2 0x100 SWAP1 DIV PUSH1 0xFF AND DUP1 PUSH2 0x2678 JUMPI POP PUSH1 0x0 SLOAD PUSH1 0xFF AND ISZERO JUMPDEST PUSH2 0x2694 JUMPI PUSH1 0x40 MLOAD PUSH3 0x461BCD PUSH1 0xE5 SHL DUP2 MSTORE PUSH1 0x4 ADD PUSH2 0x638 SWAP1 PUSH2 0x3223 JUMP JUMPDEST PUSH1 0x0 SLOAD PUSH2 0x100 SWAP1 DIV PUSH1 0xFF AND ISZERO DUP1 ISZERO PUSH2 0x26BF JUMPI PUSH1 0x0 DUP1 SLOAD PUSH1 0xFF NOT PUSH2 0xFF00 NOT SWAP1 SWAP2 AND PUSH2 0x100 OR AND PUSH1 0x1 OR SWAP1 SSTORE JUMPDEST PUSH2 0x246C PUSH2 0x26CA PUSH2 0x1C06 JUMP JUMPDEST PUSH2 0x231C JUMP JUMPDEST PUSH1 0x60 PUSH2 0x26DE DUP5 DUP5 PUSH1 0x0 DUP6 PUSH2 0x26E6 JUMP JUMPDEST SWAP5 SWAP4 POP POP POP POP JUMP JUMPDEST PUSH1 0x60 DUP3 SELFBALANCE LT ISZERO PUSH2 0x2708 JUMPI PUSH1 0x40 MLOAD PUSH3 0x461BCD PUSH1 0xE5 SHL DUP2 MSTORE PUSH1 0x4 ADD PUSH2 0x638 SWAP1 PUSH2 0x31DD JUMP JUMPDEST PUSH2 0x2711 DUP6 PUSH2 0x27A6 JUMP JUMPDEST PUSH2 0x272D JUMPI PUSH1 0x40 MLOAD PUSH3 0x461BCD PUSH1 0xE5 SHL DUP2 MSTORE PUSH1 0x4 ADD PUSH2 0x638 SWAP1 PUSH2 0x3313 JUMP JUMPDEST PUSH1 0x0 DUP1 DUP7 PUSH1 0x1 PUSH1 0x1 PUSH1 0xA0 SHL SUB AND DUP6 DUP8 PUSH1 0x40 MLOAD PUSH2 0x2749 SWAP2 SWAP1 PUSH2 0x2F8C JUMP JUMPDEST PUSH1 0x0 PUSH1 0x40 MLOAD DUP1 DUP4 SUB DUP2 DUP6 DUP8 GAS CALL SWAP3 POP POP POP RETURNDATASIZE DUP1 PUSH1 0x0 DUP2 EQ PUSH2 0x2786 JUMPI PUSH1 0x40 MLOAD SWAP2 POP PUSH1 0x1F NOT PUSH1 0x3F RETURNDATASIZE ADD AND DUP3 ADD PUSH1 0x40 MSTORE RETURNDATASIZE DUP3 MSTORE RETURNDATASIZE PUSH1 0x0 PUSH1 0x20 DUP5 ADD RETURNDATACOPY PUSH2 0x278B JUMP JUMPDEST PUSH1 0x60 SWAP2 POP JUMPDEST POP SWAP2 POP SWAP2 POP PUSH2 0x279B DUP3 DUP3 DUP7 PUSH2 0x27AC JUMP JUMPDEST SWAP8 SWAP7 POP POP POP POP POP POP POP JUMP JUMPDEST EXTCODESIZE ISZERO ISZERO SWAP1 JUMP JUMPDEST PUSH1 0x60 DUP4 ISZERO PUSH2 0x27BB JUMPI POP DUP2 PUSH2 0x94F JUMP JUMPDEST DUP3 MLOAD ISZERO PUSH2 0x27CB JUMPI DUP3 MLOAD DUP1 DUP5 PUSH1 0x20 ADD REVERT JUMPDEST DUP2 PUSH1 0x40 MLOAD PUSH3 0x461BCD PUSH1 0xE5 SHL DUP2 MSTORE PUSH1 0x4 ADD PUSH2 0x638 SWAP2 SWAP1 PUSH2 0x309E JUMP JUMPDEST PUSH1 0x40 MLOAD DUP1 PUSH2 0x160 ADD PUSH1 0x40 MSTORE DUP1 PUSH1 0x0 PUSH1 0x1 PUSH1 0x1 PUSH1 0xA0 SHL SUB AND DUP2 MSTORE PUSH1 0x20 ADD PUSH1 0x0 DUP2 MSTORE PUSH1 0x20 ADD PUSH1 0x60 DUP2 MSTORE PUSH1 0x20 ADD PUSH1 0x0 DUP2 MSTORE PUSH1 0x20 ADD PUSH1 0x0 DUP2 MSTORE PUSH1 0x20 ADD PUSH1 0x0 DUP2 MSTORE PUSH1 0x20 ADD PUSH1 0x0 DUP2 MSTORE PUSH1 0x20 ADD PUSH1 0x0 DUP2 MSTORE PUSH1 0x20 ADD PUSH1 0x0 DUP2 MSTORE PUSH1 0x20 ADD PUSH1 0x0 DUP2 MSTORE PUSH1 0x20 ADD PUSH1 0x0 DUP2 MSTORE POP SWAP1 JUMP JUMPDEST DUP3 DUP1 SLOAD PUSH2 0x2854 SWAP1 PUSH2 0x35CE JUMP JUMPDEST SWAP1 PUSH1 0x0 MSTORE PUSH1 0x20 PUSH1 0x0 KECCAK256 SWAP1 PUSH1 0x1F ADD PUSH1 0x20 SWAP1 DIV DUP2 ADD SWAP3 DUP3 PUSH2 0x2876 JUMPI PUSH1 0x0 DUP6 SSTORE PUSH2 0x28BC JUMP JUMPDEST DUP3 PUSH1 0x1F LT PUSH2 0x288F JUMPI DUP1 MLOAD PUSH1 0xFF NOT AND DUP4 DUP1 ADD OR DUP6 SSTORE PUSH2 0x28BC JUMP JUMPDEST DUP3 DUP1 ADD PUSH1 0x1 ADD DUP6 SSTORE DUP3 ISZERO PUSH2 0x28BC JUMPI SWAP2 DUP3 ADD JUMPDEST DUP3 DUP2 GT ISZERO PUSH2 0x28BC JUMPI DUP3 MLOAD DUP3 SSTORE SWAP2 PUSH1 0x20 ADD SWAP2 SWAP1 PUSH1 0x1 ADD SWAP1 PUSH2 0x28A1 JUMP JUMPDEST POP PUSH2 0x28C8 SWAP3 SWAP2 POP PUSH2 0x28CC JUMP JUMPDEST POP SWAP1 JUMP JUMPDEST JUMPDEST DUP1 DUP3 GT ISZERO PUSH2 0x28C8 JUMPI PUSH1 0x0 DUP2 SSTORE PUSH1 0x1 ADD PUSH2 0x28CD JUMP JUMPDEST DUP1 CALLDATALOAD PUSH2 0xCB7 DUP2 PUSH2 0x3650 JUMP JUMPDEST PUSH1 0x0 DUP3 PUSH1 0x1F DUP4 ADD SLT PUSH2 0x28FC JUMPI DUP1 DUP2 REVERT JUMPDEST DUP2 CALLDATALOAD PUSH1 0x20 PUSH2 0x2911 PUSH2 0x290C DUP4 PUSH2 0x34F9 JUMP JUMPDEST PUSH2 0x34CF JUMP JUMPDEST DUP3 DUP2 MSTORE DUP2 DUP2 ADD SWAP1 DUP6 DUP4 ADD DUP6 JUMPDEST DUP6 DUP2 LT ISZERO PUSH2 0x2946 JUMPI PUSH2 0x2934 DUP10 DUP7 DUP5 CALLDATALOAD DUP12 ADD ADD PUSH2 0x2A0D JUMP JUMPDEST DUP5 MSTORE SWAP3 DUP5 ADD SWAP3 SWAP1 DUP5 ADD SWAP1 PUSH1 0x1 ADD PUSH2 0x291D JUMP JUMPDEST POP SWAP1 SWAP8 SWAP7 POP POP POP POP POP POP POP JUMP JUMPDEST PUSH1 0x0 DUP3 PUSH1 0x1F DUP4 ADD SLT PUSH2 0x2963 JUMPI DUP1 DUP2 REVERT JUMPDEST DUP2 CALLDATALOAD PUSH1 0x20 PUSH2 0x2973 PUSH2 0x290C DUP4 PUSH2 0x34F9 JUMP JUMPDEST DUP3 DUP2 MSTORE DUP2 DUP2 ADD SWAP1 DUP6 DUP4 ADD DUP6 JUMPDEST DUP6 DUP2 LT ISZERO PUSH2 0x2946 JUMPI PUSH2 0x2996 DUP10 DUP7 DUP5 CALLDATALOAD DUP12 ADD ADD PUSH2 0x2A0D JUMP JUMPDEST DUP5 MSTORE SWAP3 DUP5 ADD SWAP3 SWAP1 DUP5 ADD SWAP1 PUSH1 0x1 ADD PUSH2 0x297F JUMP JUMPDEST PUSH1 0x0 DUP3 PUSH1 0x1F DUP4 ADD SLT PUSH2 0x29B8 JUMPI DUP1 DUP2 REVERT JUMPDEST DUP2 CALLDATALOAD PUSH1 0x20 PUSH2 0x29C8 PUSH2 0x290C DUP4 PUSH2 0x34F9 JUMP JUMPDEST DUP3 DUP2 MSTORE DUP2 DUP2 ADD SWAP1 DUP6 DUP4 ADD DUP4 DUP6 MUL DUP8 ADD DUP5 ADD DUP9 LT ISZERO PUSH2 0x29E4 JUMPI DUP6 DUP7 REVERT JUMPDEST DUP6 JUMPDEST DUP6 DUP2 LT ISZERO PUSH2 0x2946 JUMPI DUP2 CALLDATALOAD DUP5 MSTORE SWAP3 DUP5 ADD SWAP3 SWAP1 DUP5 ADD SWAP1 PUSH1 0x1 ADD PUSH2 0x29E6 JUMP JUMPDEST DUP1 CALLDATALOAD PUSH2 0xCB7 DUP2 PUSH2 0x3665 JUMP JUMPDEST PUSH1 0x0 DUP3 PUSH1 0x1F DUP4 ADD SLT PUSH2 0x2A1D JUMPI DUP1 DUP2 REVERT JUMPDEST DUP2 CALLDATALOAD PUSH8 0xFFFFFFFFFFFFFFFF DUP2 GT ISZERO PUSH2 0x2A37 JUMPI PUSH2 0x2A37 PUSH2 0x363A JUMP JUMPDEST PUSH2 0x2A4A PUSH1 0x1F DUP3 ADD PUSH1 0x1F NOT AND PUSH1 0x20 ADD PUSH2 0x34CF JUMP JUMPDEST DUP2 DUP2 MSTORE DUP5 PUSH1 0x20 DUP4 DUP7 ADD ADD GT ISZERO PUSH2 0x2A5E JUMPI DUP3 DUP4 REVERT JUMPDEST DUP2 PUSH1 0x20 DUP6 ADD PUSH1 0x20 DUP4 ADD CALLDATACOPY SWAP1 DUP2 ADD PUSH1 0x20 ADD SWAP2 SWAP1 SWAP2 MSTORE SWAP3 SWAP2 POP POP JUMP JUMPDEST PUSH1 0x0 PUSH1 0x20 DUP3 DUP5 SUB SLT ISZERO PUSH2 0x2A89 JUMPI DUP1 DUP2 REVERT JUMPDEST DUP2 CALLDATALOAD PUSH2 0x94F DUP2 PUSH2 0x3650 JUMP JUMPDEST PUSH1 0x0 DUP1 PUSH1 0x40 DUP4 DUP6 SUB SLT ISZERO PUSH2 0x2AA6 JUMPI DUP1 DUP2 REVERT JUMPDEST DUP3 CALLDATALOAD PUSH2 0x2AB1 DUP2 PUSH2 0x3650 JUMP JUMPDEST SWAP2 POP PUSH1 0x20 DUP4 ADD CALLDATALOAD PUSH2 0x2AC1 DUP2 PUSH2 0x3665 JUMP JUMPDEST DUP1 SWAP2 POP POP SWAP3 POP SWAP3 SWAP1 POP JUMP JUMPDEST PUSH1 0x0 DUP1 PUSH1 0x0 DUP1 PUSH1 0x80 DUP6 DUP8 SUB SLT ISZERO PUSH2 0x2AE1 JUMPI DUP2 DUP3 REVERT JUMPDEST DUP5 CALLDATALOAD PUSH2 0x2AEC DUP2 PUSH2 0x3650 JUMP JUMPDEST SWAP4 POP PUSH1 0x20 DUP6 ADD CALLDATALOAD PUSH2 0x2AFC DUP2 PUSH2 0x3650 JUMP JUMPDEST SWAP3 POP PUSH1 0x40 DUP6 ADD CALLDATALOAD PUSH2 0x2B0C DUP2 PUSH2 0x3650 JUMP JUMPDEST SWAP2 POP PUSH1 0x60 DUP6 ADD CALLDATALOAD PUSH2 0x2B1C DUP2 PUSH2 0x3650 JUMP JUMPDEST SWAP4 SWAP7 SWAP3 SWAP6 POP SWAP1 SWAP4 POP POP JUMP JUMPDEST PUSH1 0x0 DUP1 PUSH1 0x40 DUP4 DUP6 SUB SLT ISZERO PUSH2 0x2B39 JUMPI DUP2 DUP3 REVERT JUMPDEST DUP3 CALLDATALOAD PUSH2 0x2B44 DUP2 PUSH2 0x3650 JUMP JUMPDEST SWAP5 PUSH1 0x20 SWAP4 SWAP1 SWAP4 ADD CALLDATALOAD SWAP4 POP POP POP JUMP JUMPDEST PUSH1 0x0 DUP1 PUSH1 0x0 DUP1 PUSH1 0x80 DUP6 DUP8 SUB SLT ISZERO PUSH2 0x2B67 JUMPI DUP4 DUP5 REVERT JUMPDEST DUP5 CALLDATALOAD PUSH2 0x2B72 DUP2 PUSH2 0x3650 JUMP JUMPDEST SWAP7 PUSH1 0x20 DUP7 ADD CALLDATALOAD SWAP7 POP PUSH1 0x40 DUP7 ADD CALLDATALOAD SWAP6 PUSH1 0x60 ADD CALLDATALOAD SWAP5 POP SWAP3 POP POP POP JUMP JUMPDEST PUSH1 0x0 PUSH1 0x20 DUP3 DUP5 SUB SLT ISZERO PUSH2 0x2B9D JUMPI DUP1 DUP2 REVERT JUMPDEST DUP2 MLOAD PUSH2 0x94F DUP2 PUSH2 0x3665 JUMP JUMPDEST PUSH1 0x0 DUP1 PUSH1 0x0 DUP1 PUSH1 0x0 DUP1 PUSH1 0xC0 DUP8 DUP10 SUB SLT ISZERO PUSH2 0x2BC0 JUMPI DUP4 DUP5 REVERT JUMPDEST PUSH2 0x2BC9 DUP8 PUSH2 0x2A02 JUMP JUMPDEST SWAP6 POP PUSH1 0x20 DUP8 ADD CALLDATALOAD PUSH8 0xFFFFFFFFFFFFFFFF DUP1 DUP3 GT ISZERO PUSH2 0x2BE5 JUMPI DUP6 DUP7 REVERT JUMPDEST PUSH2 0x2BF1 DUP11 DUP4 DUP12 ADD PUSH2 0x29A8 JUMP JUMPDEST SWAP7 POP PUSH1 0x40 DUP10 ADD CALLDATALOAD SWAP2 POP DUP1 DUP3 GT ISZERO PUSH2 0x2C06 JUMPI DUP6 DUP7 REVERT JUMPDEST PUSH2 0x2C12 DUP11 DUP4 DUP12 ADD PUSH2 0x29A8 JUMP JUMPDEST SWAP6 POP PUSH1 0x60 DUP10 ADD CALLDATALOAD SWAP2 POP DUP1 DUP3 GT ISZERO PUSH2 0x2C27 JUMPI DUP4 DUP5 REVERT JUMPDEST PUSH2 0x2C33 DUP11 DUP4 DUP12 ADD PUSH2 0x2953 JUMP JUMPDEST SWAP5 POP PUSH1 0x80 DUP10 ADD CALLDATALOAD SWAP2 POP DUP1 DUP3 GT ISZERO PUSH2 0x2C48 JUMPI DUP4 DUP5 REVERT JUMPDEST PUSH2 0x2C54 DUP11 DUP4 DUP12 ADD PUSH2 0x29A8 JUMP JUMPDEST SWAP4 POP PUSH1 0xA0 DUP10 ADD CALLDATALOAD SWAP2 POP DUP1 DUP3 GT ISZERO PUSH2 0x2C69 JUMPI DUP3 DUP4 REVERT JUMPDEST POP PUSH2 0x2C76 DUP10 DUP3 DUP11 ADD PUSH2 0x28EC JUMP JUMPDEST SWAP2 POP POP SWAP3 SWAP6 POP SWAP3 SWAP6 POP SWAP3 SWAP6 JUMP JUMPDEST PUSH1 0x0 DUP1 PUSH1 0x0 DUP1 PUSH1 0x0 DUP1 PUSH1 0xC0 DUP8 DUP10 SUB SLT ISZERO PUSH2 0x2C9B JUMPI DUP4 DUP5 REVERT JUMPDEST DUP7 CALLDATALOAD PUSH2 0x2CA6 DUP2 PUSH2 0x3665 JUMP JUMPDEST SWAP6 POP PUSH1 0x20 DUP8 ADD CALLDATALOAD SWAP5 POP PUSH1 0x40 DUP8 ADD CALLDATALOAD SWAP4 POP PUSH1 0x60 DUP8 ADD CALLDATALOAD PUSH8 0xFFFFFFFFFFFFFFFF DUP1 DUP3 GT ISZERO PUSH2 0x2CD0 JUMPI DUP4 DUP5 REVERT JUMPDEST PUSH2 0x2CDC DUP11 DUP4 DUP12 ADD PUSH2 0x2A0D JUMP JUMPDEST SWAP5 POP PUSH1 0x80 DUP10 ADD CALLDATALOAD SWAP4 POP PUSH1 0xA0 DUP10 ADD CALLDATALOAD SWAP2 POP DUP1 DUP3 GT ISZERO PUSH2 0x2CF8 JUMPI DUP3 DUP4 REVERT JUMPDEST POP PUSH2 0x2C76 DUP10 DUP3 DUP11 ADD PUSH2 0x2A0D JUMP JUMPDEST PUSH1 0x0 DUP1 PUSH1 0x0 DUP1 PUSH1 0x0 DUP1 PUSH1 0x0 PUSH1 0xE0 DUP9 DUP11 SUB SLT ISZERO PUSH2 0x2D1F JUMPI DUP5 DUP6 REVERT JUMPDEST DUP8 CALLDATALOAD PUSH2 0x2D2A DUP2 PUSH2 0x3665 JUMP JUMPDEST SWAP7 POP PUSH1 0x20 DUP9 ADD CALLDATALOAD SWAP6 POP PUSH1 0x40 DUP9 ADD CALLDATALOAD SWAP5 POP PUSH1 0x60 DUP9 ADD CALLDATALOAD PUSH8 0xFFFFFFFFFFFFFFFF DUP1 DUP3 GT ISZERO PUSH2 0x2D54 JUMPI DUP3 DUP4 REVERT JUMPDEST PUSH2 0x2D60 DUP12 DUP4 DUP13 ADD PUSH2 0x2A0D JUMP JUMPDEST SWAP6 POP PUSH1 0x80 DUP11 ADD CALLDATALOAD SWAP5 POP PUSH1 0xA0 DUP11 ADD CALLDATALOAD SWAP2 POP DUP1 DUP3 GT ISZERO PUSH2 0x2D7C JUMPI DUP3 DUP4 REVERT JUMPDEST POP PUSH2 0x2D89 DUP11 DUP3 DUP12 ADD PUSH2 0x2A0D JUMP JUMPDEST SWAP3 POP POP PUSH1 0xC0 DUP9 ADD CALLDATALOAD SWAP1 POP SWAP3 SWAP6 SWAP9 SWAP2 SWAP5 SWAP8 POP SWAP3 SWAP6 POP JUMP JUMPDEST PUSH1 0x0 DUP1 PUSH1 0x0 DUP1 PUSH1 0x0 DUP1 PUSH1 0x0 DUP1 PUSH1 0x0 PUSH2 0x120 DUP11 DUP13 SUB SLT ISZERO PUSH2 0x2DBD JUMPI DUP3 DUP4 REVERT JUMPDEST DUP10 CALLDATALOAD PUSH2 0x2DC8 DUP2 PUSH2 0x3665 JUMP JUMPDEST SWAP9 POP PUSH1 0x20 DUP11 ADD CALLDATALOAD SWAP8 POP PUSH1 0x40 DUP11 ADD CALLDATALOAD SWAP7 POP PUSH1 0x60 DUP11 ADD CALLDATALOAD SWAP6 POP PUSH1 0x80 DUP11 ADD CALLDATALOAD SWAP5 POP PUSH1 0xA0 DUP11 ADD CALLDATALOAD PUSH8 0xFFFFFFFFFFFFFFFF DUP1 DUP3 GT ISZERO PUSH2 0x2E00 JUMPI DUP5 DUP6 REVERT JUMPDEST PUSH2 0x2E0C DUP14 DUP4 DUP15 ADD PUSH2 0x2A0D JUMP JUMPDEST SWAP6 POP PUSH1 0xC0 DUP13 ADD CALLDATALOAD SWAP5 POP PUSH1 0xE0 DUP13 ADD CALLDATALOAD SWAP4 POP PUSH2 0x100 DUP13 ADD CALLDATALOAD SWAP2 POP DUP1 DUP3 GT ISZERO PUSH2 0x2E30 JUMPI DUP3 DUP4 REVERT JUMPDEST POP PUSH2 0x2E3D DUP13 DUP3 DUP14 ADD PUSH2 0x2A0D JUMP JUMPDEST SWAP2 POP POP SWAP3 SWAP6 SWAP9 POP SWAP3 SWAP6 SWAP9 POP SWAP3 SWAP6 SWAP9 JUMP JUMPDEST PUSH1 0x0 PUSH1 0x20 DUP3 DUP5 SUB SLT ISZERO PUSH2 0x2E5E JUMPI DUP1 DUP2 REVERT JUMPDEST POP CALLDATALOAD SWAP2 SWAP1 POP JUMP JUMPDEST PUSH1 0x0 PUSH1 0x20 DUP3 DUP5 SUB SLT ISZERO PUSH2 0x2E76 JUMPI DUP1 DUP2 REVERT JUMPDEST POP MLOAD SWAP2 SWAP1 POP JUMP JUMPDEST PUSH1 0x0 DUP1 PUSH1 0x0 DUP1 PUSH1 0x0 DUP1 PUSH1 0x0 DUP1 PUSH1 0x0 DUP1 PUSH1 0x0 DUP1 PUSH2 0x180 DUP14 DUP16 SUB SLT ISZERO PUSH2 0x2E9F JUMPI DUP6 DUP7 REVERT JUMPDEST DUP13 CALLDATALOAD SWAP12 POP PUSH2 0x2EAF PUSH1 0x20 DUP15 ADD PUSH2 0x28E1 JUMP JUMPDEST SWAP11 POP PUSH1 0x40 DUP14 ADD CALLDATALOAD SWAP10 POP PUSH8 0xFFFFFFFFFFFFFFFF PUSH1 0x60 DUP15 ADD CALLDATALOAD GT ISZERO PUSH2 0x2ED0 JUMPI DUP6 DUP7 REVERT JUMPDEST PUSH2 0x2EE0 DUP15 PUSH1 0x60 DUP16 ADD CALLDATALOAD DUP16 ADD PUSH2 0x2A0D JUMP JUMPDEST SWAP12 SWAP15 SWAP11 SWAP14 POP SWAP9 SWAP12 PUSH1 0x80 DUP2 ADD CALLDATALOAD SWAP11 PUSH1 0xA0 DUP3 ADD CALLDATALOAD SWAP11 POP PUSH1 0xC0 DUP3 ADD CALLDATALOAD SWAP10 POP PUSH1 0xE0 DUP3 ADD CALLDATALOAD SWAP9 POP PUSH2 0x100 DUP3 ADD CALLDATALOAD SWAP8 POP PUSH2 0x120 DUP3 ADD CALLDATALOAD SWAP7 POP PUSH2 0x140 DUP3 ADD CALLDATALOAD SWAP6 POP PUSH2 0x160 SWAP1 SWAP2 ADD CALLDATALOAD SWAP4 POP SWAP2 POP POP JUMP JUMPDEST PUSH1 0x0 DUP1 PUSH1 0x0 PUSH1 0x60 DUP5 DUP7 SUB SLT ISZERO PUSH2 0x2F3C JUMPI DUP1 DUP2 REVERT JUMPDEST POP POP DUP2 CALLDATALOAD SWAP4 PUSH1 0x20 DUP4 ADD CALLDATALOAD SWAP4 POP PUSH1 0x40 SWAP1 SWAP3 ADD CALLDATALOAD SWAP2 SWAP1 POP JUMP JUMPDEST PUSH1 0x1 PUSH1 0x1 PUSH1 0xA0 SHL SUB AND SWAP1 MSTORE JUMP JUMPDEST PUSH1 0x0 DUP2 MLOAD DUP1 DUP5 MSTORE PUSH2 0x2F78 DUP2 PUSH1 0x20 DUP7 ADD PUSH1 0x20 DUP7 ADD PUSH2 0x358B JUMP JUMPDEST PUSH1 0x1F ADD PUSH1 0x1F NOT AND SWAP3 SWAP1 SWAP3 ADD PUSH1 0x20 ADD SWAP3 SWAP2 POP POP JUMP JUMPDEST PUSH1 0x0 DUP3 MLOAD PUSH2 0x2F9E DUP2 DUP5 PUSH1 0x20 DUP8 ADD PUSH2 0x358B JUMP JUMPDEST SWAP2 SWAP1 SWAP2 ADD SWAP3 SWAP2 POP POP JUMP JUMPDEST PUSH1 0x1 PUSH1 0x1 PUSH1 0xA0 SHL SUB SWAP2 SWAP1 SWAP2 AND DUP2 MSTORE PUSH1 0x20 ADD SWAP1 JUMP JUMPDEST PUSH1 0x1 PUSH1 0x1 PUSH1 0xA0 SHL SUB SWAP4 DUP5 AND DUP2 MSTORE SWAP2 SWAP1 SWAP3 AND PUSH1 0x20 DUP3 ADD MSTORE PUSH1 0x40 DUP2 ADD SWAP2 SWAP1 SWAP2 MSTORE PUSH1 0x60 ADD SWAP1 JUMP JUMPDEST PUSH1 0x1 PUSH1 0x1 PUSH1 0xA0 SHL SUB SWAP3 SWAP1 SWAP3 AND DUP3 MSTORE PUSH1 0x20 DUP3 ADD MSTORE PUSH1 0x40 ADD SWAP1 JUMP JUMPDEST PUSH1 0x20 DUP1 DUP3 MSTORE DUP3 MLOAD DUP3 DUP3 ADD DUP2 SWAP1 MSTORE PUSH1 0x0 SWAP2 SWAP1 DUP5 DUP3 ADD SWAP1 PUSH1 0x40 DUP6 ADD SWAP1 DUP5 JUMPDEST DUP2 DUP2 LT ISZERO PUSH2 0x3031 JUMPI DUP4 MLOAD DUP4 MSTORE SWAP3 DUP5 ADD SWAP3 SWAP2 DUP5 ADD SWAP2 PUSH1 0x1 ADD PUSH2 0x3015 JUMP JUMPDEST POP SWAP1 SWAP7 SWAP6 POP POP POP POP POP POP JUMP JUMPDEST SWAP1 ISZERO ISZERO DUP2 MSTORE PUSH1 0x20 ADD SWAP1 JUMP JUMPDEST PUSH1 0x0 DUP7 ISZERO ISZERO DUP3 MSTORE DUP6 PUSH1 0x20 DUP4 ADD MSTORE DUP5 PUSH1 0x40 DUP4 ADD MSTORE PUSH1 0xA0 PUSH1 0x60 DUP4 ADD MSTORE PUSH2 0x306F PUSH1 0xA0 DUP4 ADD DUP6 PUSH2 0x2F60 JUMP JUMPDEST DUP3 DUP2 SUB PUSH1 0x80 DUP5 ADD MSTORE PUSH2 0xD6A DUP2 DUP6 PUSH2 0x2F60 JUMP JUMPDEST SWAP4 ISZERO ISZERO DUP5 MSTORE PUSH1 0x20 DUP5 ADD SWAP3 SWAP1 SWAP3 MSTORE PUSH1 0x40 DUP4 ADD MSTORE PUSH1 0x60 DUP3 ADD MSTORE PUSH1 0x80 ADD SWAP1 JUMP JUMPDEST PUSH1 0x0 PUSH1 0x20 DUP3 MSTORE PUSH2 0x94F PUSH1 0x20 DUP4 ADD DUP5 PUSH2 0x2F60 JUMP JUMPDEST PUSH1 0x20 DUP1 DUP3 MSTORE PUSH1 0x14 SWAP1 DUP3 ADD MSTORE PUSH20 0x1BDC99195C88191BD95CC81B9BDD08195E1A5CDD PUSH1 0x62 SHL PUSH1 0x40 DUP3 ADD MSTORE PUSH1 0x60 ADD SWAP1 JUMP JUMPDEST PUSH1 0x20 DUP1 DUP3 MSTORE PUSH1 0xE SWAP1 DUP3 ADD MSTORE PUSH14 0x1B585C99DA5B881B9BC819DBDBD9 PUSH1 0x92 SHL PUSH1 0x40 DUP3 ADD MSTORE PUSH1 0x60 ADD SWAP1 JUMP JUMPDEST PUSH1 0x20 DUP1 DUP3 MSTORE PUSH1 0x26 SWAP1 DUP3 ADD MSTORE PUSH32 0x4F776E61626C653A206E6577206F776E657220697320746865207A65726F2061 PUSH1 0x40 DUP3 ADD MSTORE PUSH6 0x646472657373 PUSH1 0xD0 SHL PUSH1 0x60 DUP3 ADD MSTORE PUSH1 0x80 ADD SWAP1 JUMP JUMPDEST PUSH1 0x20 DUP1 DUP3 MSTORE PUSH1 0xA SWAP1 DUP3 ADD MSTORE PUSH10 0x37B930B1B6329032B939 PUSH1 0xB1 SHL PUSH1 0x40 DUP3 ADD MSTORE PUSH1 0x60 ADD SWAP1 JUMP JUMPDEST PUSH1 0x20 DUP1 DUP3 MSTORE PUSH1 0x24 SWAP1 DUP3 ADD MSTORE PUSH32 0x6578656375746F723A2063616C6C6572206973206E6F74207468652065786563 PUSH1 0x40 DUP3 ADD MSTORE PUSH4 0x3ABA37B9 PUSH1 0xE1 SHL PUSH1 0x60 DUP3 ADD MSTORE PUSH1 0x80 ADD SWAP1 JUMP JUMPDEST PUSH1 0x20 DUP1 DUP3 MSTORE PUSH1 0xE SWAP1 DUP3 ADD MSTORE PUSH14 0x2737903634B8BAB4B230BA34B7B7 PUSH1 0x91 SHL PUSH1 0x40 DUP3 ADD MSTORE PUSH1 0x60 ADD SWAP1 JUMP JUMPDEST PUSH1 0x20 DUP1 DUP3 MSTORE PUSH1 0x26 SWAP1 DUP3 ADD MSTORE PUSH32 0x416464726573733A20696E73756666696369656E742062616C616E636520666F PUSH1 0x40 DUP3 ADD MSTORE PUSH6 0x1C8818D85B1B PUSH1 0xD2 SHL PUSH1 0x60 DUP3 ADD MSTORE PUSH1 0x80 ADD SWAP1 JUMP JUMPDEST PUSH1 0x20 DUP1 DUP3 MSTORE PUSH1 0x2E SWAP1 DUP3 ADD MSTORE PUSH32 0x496E697469616C697A61626C653A20636F6E747261637420697320616C726561 PUSH1 0x40 DUP3 ADD MSTORE PUSH14 0x191E481A5B9A5D1A585B1A5E9959 PUSH1 0x92 SHL PUSH1 0x60 DUP3 ADD MSTORE PUSH1 0x80 ADD SWAP1 JUMP JUMPDEST PUSH1 0x20 DUP1 DUP3 MSTORE PUSH1 0x23 SWAP1 DUP3 ADD MSTORE PUSH32 0x546865207472616E73616374696F6E20616D6F756E7420697320746F6F20736D PUSH1 0x40 DUP3 ADD MSTORE PUSH3 0x185B1B PUSH1 0xEA SHL PUSH1 0x60 DUP3 ADD MSTORE PUSH1 0x80 ADD SWAP1 JUMP JUMPDEST PUSH1 0x20 DUP1 DUP3 MSTORE PUSH1 0x10 SWAP1 DUP3 ADD MSTORE PUSH16 0x155CD95C881A5CC818985B9ADC9D5C1D PUSH1 0x82 SHL PUSH1 0x40 DUP3 ADD MSTORE PUSH1 0x60 ADD SWAP1 JUMP JUMPDEST PUSH1 0x20 DUP1 DUP3 MSTORE DUP2 DUP2 ADD MSTORE PUSH32 0x4F776E61626C653A2063616C6C6572206973206E6F7420746865206F776E6572 PUSH1 0x40 DUP3 ADD MSTORE PUSH1 0x60 ADD SWAP1 JUMP JUMPDEST PUSH1 0x20 DUP1 DUP3 MSTORE PUSH1 0x1D SWAP1 DUP3 ADD MSTORE PUSH32 0x416464726573733A2063616C6C20746F206E6F6E2D636F6E7472616374000000 PUSH1 0x40 DUP3 ADD MSTORE PUSH1 0x60 ADD SWAP1 JUMP JUMPDEST PUSH1 0x20 DUP1 DUP3 MSTORE PUSH1 0xA SWAP1 DUP3 ADD MSTORE PUSH10 0x3632B733BA341032B939 PUSH1 0xB1 SHL PUSH1 0x40 DUP3 ADD MSTORE PUSH1 0x60 ADD SWAP1 JUMP JUMPDEST PUSH1 0x20 DUP1 DUP3 MSTORE PUSH1 0x8 SWAP1 DUP3 ADD MSTORE PUSH8 0x3AB9B2B91032B939 PUSH1 0xC1 SHL PUSH1 0x40 DUP3 ADD MSTORE PUSH1 0x60 ADD SWAP1 JUMP JUMPDEST PUSH1 0x20 DUP1 DUP3 MSTORE PUSH1 0x9 SWAP1 DUP3 ADD MSTORE PUSH9 0x39BA30BA329032B939 PUSH1 0xB9 SHL PUSH1 0x40 DUP3 ADD MSTORE PUSH1 0x60 ADD SWAP1 JUMP JUMPDEST PUSH1 0x20 DUP1 DUP3 MSTORE PUSH1 0x2A SWAP1 DUP3 ADD MSTORE PUSH32 0x5361666545524332303A204552433230206F7065726174696F6E20646964206E PUSH1 0x40 DUP3 ADD MSTORE PUSH10 0x1BDD081CDD58D8D95959 PUSH1 0xB2 SHL PUSH1 0x60 DUP3 ADD MSTORE PUSH1 0x80 ADD SWAP1 JUMP JUMPDEST PUSH1 0x20 DUP1 DUP3 MSTORE PUSH1 0xB SWAP1 DUP3 ADD MSTORE PUSH11 0x185C9C881B9BC819DBDBD9 PUSH1 0xAA SHL PUSH1 0x40 DUP3 ADD MSTORE PUSH1 0x60 ADD SWAP1 JUMP JUMPDEST PUSH1 0x0 PUSH1 0x20 DUP3 MSTORE PUSH2 0x3436 PUSH1 0x20 DUP4 ADD DUP5 MLOAD PUSH2 0x2F53 JUMP JUMPDEST PUSH1 0x20 DUP4 ADD MLOAD PUSH1 0x40 DUP4 ADD MSTORE PUSH1 0x40 DUP4 ADD MLOAD PUSH2 0x160 DUP1 PUSH1 0x60 DUP6 ADD MSTORE PUSH2 0x345C PUSH2 0x180 DUP6 ADD DUP4 PUSH2 0x2F60 JUMP JUMPDEST SWAP2 POP PUSH1 0x60 DUP6 ADD MLOAD PUSH1 0x80 DUP6 ADD MSTORE PUSH1 0x80 DUP6 ADD MLOAD PUSH1 0xA0 DUP6 ADD MSTORE PUSH1 0xA0 DUP6 ADD MLOAD PUSH1 0xC0 DUP6 ADD MSTORE PUSH1 0xC0 DUP6 ADD MLOAD PUSH1 0xE0 DUP6 ADD MSTORE PUSH1 0xE0 DUP6 ADD MLOAD PUSH2 0x100 DUP2 DUP2 DUP8 ADD MSTORE DUP1 DUP8 ADD MLOAD SWAP2 POP POP PUSH2 0x120 DUP2 DUP2 DUP8 ADD MSTORE DUP1 DUP8 ADD MLOAD SWAP2 POP POP PUSH2 0x140 DUP2 DUP2 DUP8 ADD MSTORE DUP1 DUP8 ADD MLOAD DUP4 DUP8 ADD MSTORE POP POP POP DUP1 SWAP2 POP POP SWAP3 SWAP2 POP POP JUMP JUMPDEST SWAP1 DUP2 MSTORE PUSH1 0x20 ADD SWAP1 JUMP JUMPDEST PUSH1 0x40 MLOAD DUP2 DUP2 ADD PUSH8 0xFFFFFFFFFFFFFFFF DUP2 GT DUP3 DUP3 LT OR ISZERO PUSH2 0x34F1 JUMPI PUSH2 0x34F1 PUSH2 0x363A JUMP JUMPDEST PUSH1 0x40 MSTORE SWAP2 SWAP1 POP JUMP JUMPDEST PUSH1 0x0 PUSH8 0xFFFFFFFFFFFFFFFF DUP3 GT ISZERO PUSH2 0x3513 JUMPI PUSH2 0x3513 PUSH2 0x363A JUMP JUMPDEST POP PUSH1 0x20 SWAP1 DUP2 MUL ADD SWAP1 JUMP JUMPDEST PUSH1 0x0 DUP3 NOT DUP3 GT ISZERO PUSH2 0x3530 JUMPI PUSH2 0x3530 PUSH2 0x3624 JUMP JUMPDEST POP ADD SWAP1 JUMP JUMPDEST PUSH1 0x0 DUP3 PUSH2 0x3550 JUMPI PUSH4 0x4E487B71 PUSH1 0xE0 SHL DUP2 MSTORE PUSH1 0x12 PUSH1 0x4 MSTORE PUSH1 0x24 DUP2 REVERT JUMPDEST POP DIV SWAP1 JUMP JUMPDEST PUSH1 0x0 DUP2 PUSH1 0x0 NOT DIV DUP4 GT DUP3 ISZERO ISZERO AND ISZERO PUSH2 0x356F JUMPI PUSH2 0x356F PUSH2 0x3624 JUMP JUMPDEST POP MUL SWAP1 JUMP JUMPDEST PUSH1 0x0 DUP3 DUP3 LT ISZERO PUSH2 0x3586 JUMPI PUSH2 0x3586 PUSH2 0x3624 JUMP JUMPDEST POP SUB SWAP1 JUMP JUMPDEST PUSH1 0x0 JUMPDEST DUP4 DUP2 LT ISZERO PUSH2 0x35A6 JUMPI DUP2 DUP2 ADD MLOAD DUP4 DUP3 ADD MSTORE PUSH1 0x20 ADD PUSH2 0x358E JUMP JUMPDEST DUP4 DUP2 GT ISZERO PUSH2 0x23D2 JUMPI POP POP PUSH1 0x0 SWAP2 ADD MSTORE JUMP JUMPDEST PUSH1 0x0 DUP2 PUSH2 0x35C6 JUMPI PUSH2 0x35C6 PUSH2 0x3624 JUMP JUMPDEST POP PUSH1 0x0 NOT ADD SWAP1 JUMP JUMPDEST PUSH1 0x2 DUP2 DIV PUSH1 0x1 DUP3 AND DUP1 PUSH2 0x35E2 JUMPI PUSH1 0x7F DUP3 AND SWAP2 POP JUMPDEST PUSH1 0x20 DUP3 LT DUP2 EQ ISZERO PUSH2 0x3603 JUMPI PUSH4 0x4E487B71 PUSH1 0xE0 SHL PUSH1 0x0 MSTORE PUSH1 0x22 PUSH1 0x4 MSTORE PUSH1 0x24 PUSH1 0x0 REVERT JUMPDEST POP SWAP2 SWAP1 POP JUMP JUMPDEST PUSH1 0x0 PUSH1 0x0 NOT DUP3 EQ ISZERO PUSH2 0x361D JUMPI PUSH2 0x361D PUSH2 0x3624 JUMP JUMPDEST POP PUSH1 0x1 ADD SWAP1 JUMP JUMPDEST PUSH4 0x4E487B71 PUSH1 0xE0 SHL PUSH1 0x0 MSTORE PUSH1 0x11 PUSH1 0x4 MSTORE PUSH1 0x24 PUSH1 0x0 REVERT JUMPDEST PUSH4 0x4E487B71 PUSH1 0xE0 SHL PUSH1 0x0 MSTORE PUSH1 0x41 PUSH1 0x4 MSTORE PUSH1 0x24 PUSH1 0x0 REVERT JUMPDEST PUSH1 0x1 PUSH1 0x1 PUSH1 0xA0 SHL SUB DUP2 AND DUP2 EQ PUSH2 0x199E JUMPI PUSH1 0x0 DUP1 REVERT JUMPDEST DUP1 ISZERO ISZERO DUP2 EQ PUSH2 0x199E JUMPI PUSH1 0x0 DUP1 REVERT INVALID LOG2 PUSH5 0x6970667358 0x22 SLT KECCAK256 SWAP10 0x5D 0xD9 MSTORE8 REVERT PUSH16 0xCEA38B4D76C98E50D16BD3EABBB5678 0xCE 0xB7 0x5E RETURNDATACOPY PUSH5 0x7AD6DEF8AC PUSH5 0x736F6C6343 STOP ADDMOD STOP STOP CALLER "
				},
				"gasEstimates": {
					"creation": {
						"codeDepositCost": "2798600",
						"executionCost": "3053",
						"totalCost": "2801653"
					},
					"external": {
						"OrderIndex()": "1116",
						"PRECISION()": "1117",
						"_isSolvent(uint256,uint256,uint256)": "infinite",
						"_isSolvent_(uint256,uint256,uint256)": "infinite",
						"adjustPosition(bool,uint256,uint256,string,uint256,bytes,uint256)": "infinite",
						"closePosition(bool,uint256,uint256,string,uint256,bytes)": "infinite",
						"executor(address)": "1326",
						"feePercent()": "1118",
						"forcedLiquidation(bool,uint256,uint256,string,uint256,bytes)": "infinite",
						"helperLogic()": "1183",
						"initialize(address,address,address,address)": "infinite",
						"liquidation(bool,uint256[],uint256[],string[],uint256[],bytes[])": "infinite",
						"minVal()": "1072",
						"myCloseOrderIdList(address,uint256)": "2248",
						"myCloseOrderIdListLength(address)": "1375",
						"myCloseOrderIdList_index(address,uint256)": "1450",
						"myOpenOrderIdList(address,uint256)": "2292",
						"myOpenOrderIdListLength(address)": "1331",
						"myOpenOrderIdList_index(address,uint256)": "1472",
						"openOrderIdList(uint256)": "2065",
						"openOrderIdListLength()": "1140",
						"openOrderIdList_index(uint256)": "1217",
						"openPosition(bool,uint256,uint256,uint256,uint256,string,uint256,uint256,bytes)": "infinite",
						"oracle()": "1138",
						"orderInfo(uint256)": "infinite",
						"owner()": "1182",
						"pagination(address,uint256,uint256,uint256)": "infinite",
						"renounceOwnership()": "23618",
						"setExecutor(address,bool)": "infinite",
						"setFeePercent(uint256)": "21295",
						"setOrderInfo(uint256,address,uint256,string,uint256,uint256,uint256,uint256,uint256,uint256,uint256,uint256)": "infinite",
						"setSigner(address)": "22231",
						"signer()": "1116",
						"transferOwnership(address)": "infinite",
						"usc()": "1160"
					},
					"internal": {
						"_closePosition(bool,struct mirrorseaMain.OrderInfo storage pointer,uint256,uint256,uint256,string memory,uint256,bytes memory)": "infinite",
						"cutListItem(uint256,mapping(uint256 => uint256),uint256[] storage pointer)": "75481"
					}
				},
				"methodIdentifiers": {
					"OrderIndex()": "f7ab69fd",
					"PRECISION()": "aaf5eb68",
					"_isSolvent(uint256,uint256,uint256)": "2705c55b",
					"_isSolvent_(uint256,uint256,uint256)": "70ac1e60",
					"adjustPosition(bool,uint256,uint256,string,uint256,bytes,uint256)": "a8ecb028",
					"closePosition(bool,uint256,uint256,string,uint256,bytes)": "6e812437",
					"executor(address)": "48c7e528",
					"feePercent()": "7fd6f15c",
					"forcedLiquidation(bool,uint256,uint256,string,uint256,bytes)": "a0ad12e2",
					"helperLogic()": "1e64610c",
					"initialize(address,address,address,address)": "f8c8765e",
					"liquidation(bool,uint256[],uint256[],string[],uint256[],bytes[])": "4b989ce3",
					"minVal()": "f14053ad",
					"myCloseOrderIdList(address,uint256)": "ec4c4f34",
					"myCloseOrderIdListLength(address)": "aecf77b1",
					"myCloseOrderIdList_index(address,uint256)": "f0c765e4",
					"myOpenOrderIdList(address,uint256)": "c2ec527d",
					"myOpenOrderIdListLength(address)": "e4e95520",
					"myOpenOrderIdList_index(address,uint256)": "7be3a1a1",
					"openOrderIdList(uint256)": "0f58d242",
					"openOrderIdListLength()": "323b9b2b",
					"openOrderIdList_index(uint256)": "43b1f3cb",
					"openPosition(bool,uint256,uint256,uint256,uint256,string,uint256,uint256,bytes)": "db4a5aa9",
					"oracle()": "7dc0d1d0",
					"orderInfo(uint256)": "6ab34a4a",
					"owner()": "8da5cb5b",
					"pagination(address,uint256,uint256,uint256)": "080270a8",
					"renounceOwnership()": "715018a6",
					"setExecutor(address,bool)": "1e1bff3f",
					"setFeePercent(uint256)": "7ce3489b",
					"setOrderInfo(uint256,address,uint256,string,uint256,uint256,uint256,uint256,uint256,uint256,uint256,uint256)": "fc234d06",
					"setSigner(address)": "6c19e783",
					"signer()": "238ac933",
					"transferOwnership(address)": "f2fde38b",
					"usc()": "3011d3d5"
				}
			},
			"storageLayout": {
				"storage": [
					{
						"astId": 130,
						"contract": "contracts/mirrorseaMain.sol:mirrorseaMain",
						"label": "_initialized",
						"offset": 0,
						"slot": "0",
						"type": "t_bool"
					},
					{
						"astId": 133,
						"contract": "contracts/mirrorseaMain.sol:mirrorseaMain",
						"label": "_initializing",
						"offset": 1,
						"slot": "0",
						"type": "t_bool"
					},
					{
						"astId": 760,
						"contract": "contracts/mirrorseaMain.sol:mirrorseaMain",
						"label": "__gap",
						"offset": 0,
						"slot": "1",
						"type": "t_array(t_uint256)50_storage"
					},
					{
						"astId": 10,
						"contract": "contracts/mirrorseaMain.sol:mirrorseaMain",
						"label": "_owner",
						"offset": 0,
						"slot": "51",
						"type": "t_address"
					},
					{
						"astId": 124,
						"contract": "contracts/mirrorseaMain.sol:mirrorseaMain",
						"label": "__gap",
						"offset": 0,
						"slot": "52",
						"type": "t_array(t_uint256)49_storage"
					},
					{
						"astId": 1132,
						"contract": "contracts/mirrorseaMain.sol:mirrorseaMain",
						"label": "executor",
						"offset": 0,
						"slot": "101",
						"type": "t_mapping(t_address,t_bool)"
					},
					{
						"astId": 1134,
						"contract": "contracts/mirrorseaMain.sol:mirrorseaMain",
						"label": "signer",
						"offset": 0,
						"slot": "102",
						"type": "t_address"
					},
					{
						"astId": 1137,
						"contract": "contracts/mirrorseaMain.sol:mirrorseaMain",
						"label": "usc",
						"offset": 0,
						"slot": "103",
						"type": "t_contract(IERC20Upgradeable)248"
					},
					{
						"astId": 1140,
						"contract": "contracts/mirrorseaMain.sol:mirrorseaMain",
						"label": "helperLogic",
						"offset": 0,
						"slot": "104",
						"type": "t_contract(IhelperLogic)1086"
					},
					{
						"astId": 1143,
						"contract": "contracts/mirrorseaMain.sol:mirrorseaMain",
						"label": "oracle",
						"offset": 0,
						"slot": "105",
						"type": "t_contract(IOracle)1102"
					},
					{
						"astId": 1148,
						"contract": "contracts/mirrorseaMain.sol:mirrorseaMain",
						"label": "_orderInfo",
						"offset": 0,
						"slot": "106",
						"type": "t_mapping(t_uint256,t_struct(OrderInfo)1208_storage)"
					},
					{
						"astId": 1150,
						"contract": "contracts/mirrorseaMain.sol:mirrorseaMain",
						"label": "OrderIndex",
						"offset": 0,
						"slot": "107",
						"type": "t_uint256"
					},
					{
						"astId": 1153,
						"contract": "contracts/mirrorseaMain.sol:mirrorseaMain",
						"label": "openOrderIdList",
						"offset": 0,
						"slot": "108",
						"type": "t_array(t_uint256)dyn_storage"
					},
					{
						"astId": 1157,
						"contract": "contracts/mirrorseaMain.sol:mirrorseaMain",
						"label": "openOrderIdList_index",
						"offset": 0,
						"slot": "109",
						"type": "t_mapping(t_uint256,t_uint256)"
					},
					{
						"astId": 1162,
						"contract": "contracts/mirrorseaMain.sol:mirrorseaMain",
						"label": "myOpenOrderIdList",
						"offset": 0,
						"slot": "110",
						"type": "t_mapping(t_address,t_array(t_uint256)dyn_storage)"
					},
					{
						"astId": 1168,
						"contract": "contracts/mirrorseaMain.sol:mirrorseaMain",
						"label": "myOpenOrderIdList_index",
						"offset": 0,
						"slot": "111",
						"type": "t_mapping(t_address,t_mapping(t_uint256,t_uint256))"
					},
					{
						"astId": 1173,
						"contract": "contracts/mirrorseaMain.sol:mirrorseaMain",
						"label": "myCloseOrderIdList",
						"offset": 0,
						"slot": "112",
						"type": "t_mapping(t_address,t_array(t_uint256)dyn_storage)"
					},
					{
						"astId": 1179,
						"contract": "contracts/mirrorseaMain.sol:mirrorseaMain",
						"label": "myCloseOrderIdList_index",
						"offset": 0,
						"slot": "113",
						"type": "t_mapping(t_address,t_mapping(t_uint256,t_uint256))"
					},
					{
						"astId": 1181,
						"contract": "contracts/mirrorseaMain.sol:mirrorseaMain",
						"label": "feePercent",
						"offset": 0,
						"slot": "114",
						"type": "t_uint256"
					},
					{
						"astId": 1183,
						"contract": "contracts/mirrorseaMain.sol:mirrorseaMain",
						"label": "PRECISION",
						"offset": 0,
						"slot": "115",
						"type": "t_uint256"
					},
					{
						"astId": 1185,
						"contract": "contracts/mirrorseaMain.sol:mirrorseaMain",
						"label": "minVal",
						"offset": 0,
						"slot": "116",
						"type": "t_uint256"
					}
				],
				"types": {
					"t_address": {
						"encoding": "inplace",
						"label": "address",
						"numberOfBytes": "20"
					},
					"t_array(t_uint256)49_storage": {
						"base": "t_uint256",
						"encoding": "inplace",
						"label": "uint256[49]",
						"numberOfBytes": "1568"
					},
					"t_array(t_uint256)50_storage": {
						"base": "t_uint256",
						"encoding": "inplace",
						"label": "uint256[50]",
						"numberOfBytes": "1600"
					},
					"t_array(t_uint256)dyn_storage": {
						"base": "t_uint256",
						"encoding": "dynamic_array",
						"label": "uint256[]",
						"numberOfBytes": "32"
					},
					"t_bool": {
						"encoding": "inplace",
						"label": "bool",
						"numberOfBytes": "1"
					},
					"t_contract(IERC20Upgradeable)248": {
						"encoding": "inplace",
						"label": "contract IERC20Upgradeable",
						"numberOfBytes": "20"
					},
					"t_contract(IOracle)1102": {
						"encoding": "inplace",
						"label": "contract IOracle",
						"numberOfBytes": "20"
					},
					"t_contract(IhelperLogic)1086": {
						"encoding": "inplace",
						"label": "contract IhelperLogic",
						"numberOfBytes": "20"
					},
					"t_mapping(t_address,t_array(t_uint256)dyn_storage)": {
						"encoding": "mapping",
						"key": "t_address",
						"label": "mapping(address => uint256[])",
						"numberOfBytes": "32",
						"value": "t_array(t_uint256)dyn_storage"
					},
					"t_mapping(t_address,t_bool)": {
						"encoding": "mapping",
						"key": "t_address",
						"label": "mapping(address => bool)",
						"numberOfBytes": "32",
						"value": "t_bool"
					},
					"t_mapping(t_address,t_mapping(t_uint256,t_uint256))": {
						"encoding": "mapping",
						"key": "t_address",
						"label": "mapping(address => mapping(uint256 => uint256))",
						"numberOfBytes": "32",
						"value": "t_mapping(t_uint256,t_uint256)"
					},
					"t_mapping(t_uint256,t_struct(OrderInfo)1208_storage)": {
						"encoding": "mapping",
						"key": "t_uint256",
						"label": "mapping(uint256 => struct mirrorseaMain.OrderInfo)",
						"numberOfBytes": "32",
						"value": "t_struct(OrderInfo)1208_storage"
					},
					"t_mapping(t_uint256,t_uint256)": {
						"encoding": "mapping",
						"key": "t_uint256",
						"label": "mapping(uint256 => uint256)",
						"numberOfBytes": "32",
						"value": "t_uint256"
					},
					"t_string_storage": {
						"encoding": "bytes",
						"label": "string",
						"numberOfBytes": "32"
					},
					"t_struct(OrderInfo)1208_storage": {
						"encoding": "inplace",
						"label": "struct mirrorseaMain.OrderInfo",
						"members": [
							{
								"astId": 1187,
								"contract": "contracts/mirrorseaMain.sol:mirrorseaMain",
								"label": "user",
								"offset": 0,
								"slot": "0",
								"type": "t_address"
							},
							{
								"astId": 1189,
								"contract": "contracts/mirrorseaMain.sol:mirrorseaMain",
								"label": "_type",
								"offset": 0,
								"slot": "1",
								"type": "t_uint256"
							},
							{
								"astId": 1191,
								"contract": "contracts/mirrorseaMain.sol:mirrorseaMain",
								"label": "symbols",
								"offset": 0,
								"slot": "2",
								"type": "t_string_storage"
							},
							{
								"astId": 1193,
								"contract": "contracts/mirrorseaMain.sol:mirrorseaMain",
								"label": "state",
								"offset": 0,
								"slot": "3",
								"type": "t_uint256"
							},
							{
								"astId": 1195,
								"contract": "contracts/mirrorseaMain.sol:mirrorseaMain",
								"label": "direction",
								"offset": 0,
								"slot": "4",
								"type": "t_uint256"
							},
							{
								"astId": 1197,
								"contract": "contracts/mirrorseaMain.sol:mirrorseaMain",
								"label": "openPrice18",
								"offset": 0,
								"slot": "5",
								"type": "t_uint256"
							},
							{
								"astId": 1199,
								"contract": "contracts/mirrorseaMain.sol:mirrorseaMain",
								"label": "openTime",
								"offset": 0,
								"slot": "6",
								"type": "t_uint256"
							},
							{
								"astId": 1201,
								"contract": "contracts/mirrorseaMain.sol:mirrorseaMain",
								"label": "closePrice18",
								"offset": 0,
								"slot": "7",
								"type": "t_uint256"
							},
							{
								"astId": 1203,
								"contract": "contracts/mirrorseaMain.sol:mirrorseaMain",
								"label": "closeTime",
								"offset": 0,
								"slot": "8",
								"type": "t_uint256"
							},
							{
								"astId": 1205,
								"contract": "contracts/mirrorseaMain.sol:mirrorseaMain",
								"label": "amt",
								"offset": 0,
								"slot": "9",
								"type": "t_uint256"
							},
							{
								"astId": 1207,
								"contract": "contracts/mirrorseaMain.sol:mirrorseaMain",
								"label": "margin",
								"offset": 0,
								"slot": "10",
								"type": "t_uint256"
							}
						],
						"numberOfBytes": "352"
					},
					"t_uint256": {
						"encoding": "inplace",
						"label": "uint256",
						"numberOfBytes": "32"
					}
				}
			},
			"userdoc": {
				"kind": "user",
				"methods": {},
				"version": 1
			}
		}
	}
}