{
	"contracts/mirrorseaMain.sol": {
		"mirrorseaMain": {
			"abi": [
				{
					"anonymous": false,
					"inputs": [
						{
							"indexed": true,
							"internalType": "address",
							"name": "previousOwner",
							"type": "address"
						},
						{
							"indexed": true,
							"internalType": "address",
							"name": "newOwner",
							"type": "address"
						}
					],
					"name": "OwnershipTransferred",
					"type": "event"
				},
				{
					"inputs": [],
					"name": "OrderIndex",
					"outputs": [
						{
							"internalType": "uint256",
							"name": "",
							"type": "uint256"
						}
					],
					"stateMutability": "view",
					"type": "function"
				},
				{
					"inputs": [],
					"name": "PRECISION",
					"outputs": [
						{
							"internalType": "uint256",
							"name": "",
							"type": "uint256"
						}
					],
					"stateMutability": "view",
					"type": "function"
				},
				{
					"inputs": [
						{
							"internalType": "bool",
							"name": "_marketState",
							"type": "bool"
						},
						{
							"internalType": "uint256",
							"name": "_id",
							"type": "uint256"
						},
						{
							"internalType": "uint256",
							"name": "_timestamp",
							"type": "uint256"
						},
						{
							"internalType": "string",
							"name": "_symbols",
							"type": "string"
						},
						{
							"internalType": "uint256",
							"name": "_price18",
							"type": "uint256"
						},
						{
							"internalType": "bytes",
							"name": "_signature",
							"type": "bytes"
						},
						{
							"internalType": "uint256",
							"name": "_adjustMargin",
							"type": "uint256"
						}
					],
					"name": "adjustPosition",
					"outputs": [
						{
							"internalType": "bool",
							"name": "",
							"type": "bool"
						}
					],
					"stateMutability": "nonpayable",
					"type": "function"
				},
				{
					"inputs": [
						{
							"internalType": "bool",
							"name": "_marketState",
							"type": "bool"
						},
						{
							"internalType": "uint256",
							"name": "_id",
							"type": "uint256"
						},
						{
							"internalType": "uint256",
							"name": "_timestamp",
							"type": "uint256"
						},
						{
							"internalType": "string",
							"name": "_symbols",
							"type": "string"
						},
						{
							"internalType": "uint256",
							"name": "_price18",
							"type": "uint256"
						},
						{
							"internalType": "bytes",
							"name": "_signature",
							"type": "bytes"
						}
					],
					"name": "closePosition",
					"outputs": [
						{
							"internalType": "bool",
							"name": "",
							"type": "bool"
						}
					],
					"stateMutability": "nonpayable",
					"type": "function"
				},
				{
					"inputs": [
						{
							"internalType": "address",
							"name": "",
							"type": "address"
						}
					],
					"name": "executor",
					"outputs": [
						{
							"internalType": "bool",
							"name": "",
							"type": "bool"
						}
					],
					"stateMutability": "view",
					"type": "function"
				},
				{
					"inputs": [],
					"name": "feePercent",
					"outputs": [
						{
							"internalType": "uint256",
							"name": "",
							"type": "uint256"
						}
					],
					"stateMutability": "view",
					"type": "function"
				},
				{
					"inputs": [
						{
							"internalType": "bool",
							"name": "_marketState",
							"type": "bool"
						},
						{
							"internalType": "uint256",
							"name": "_id",
							"type": "uint256"
						},
						{
							"internalType": "uint256",
							"name": "_timestamp",
							"type": "uint256"
						},
						{
							"internalType": "string",
							"name": "_symbols",
							"type": "string"
						},
						{
							"internalType": "uint256",
							"name": "_price18",
							"type": "uint256"
						},
						{
							"internalType": "bytes",
							"name": "_signature",
							"type": "bytes"
						}
					],
					"name": "forcedLiquidation",
					"outputs": [
						{
							"internalType": "bool",
							"name": "",
							"type": "bool"
						}
					],
					"stateMutability": "nonpayable",
					"type": "function"
				},
				{
					"inputs": [],
					"name": "helperLogic",
					"outputs": [
						{
							"internalType": "contract IhelperLogic",
							"name": "",
							"type": "address"
						}
					],
					"stateMutability": "view",
					"type": "function"
				},
				{
					"inputs": [
						{
							"internalType": "address",
							"name": "_signer",
							"type": "address"
						},
						{
							"internalType": "contract IhelperLogic",
							"name": "_helperLogic",
							"type": "address"
						},
						{
							"internalType": "contract IERC20Upgradeable",
							"name": "_usc",
							"type": "address"
						},
						{
							"internalType": "contract IOracle",
							"name": "_oracle",
							"type": "address"
						}
					],
					"name": "initialize",
					"outputs": [],
					"stateMutability": "nonpayable",
					"type": "function"
				},
				{
					"inputs": [
						{
							"internalType": "bool",
							"name": "_marketState",
							"type": "bool"
						},
						{
							"internalType": "uint256[]",
							"name": "_id",
							"type": "uint256[]"
						},
						{
							"internalType": "uint256[]",
							"name": "_timestamp",
							"type": "uint256[]"
						},
						{
							"internalType": "string[]",
							"name": "_symbols",
							"type": "string[]"
						},
						{
							"internalType": "uint256[]",
							"name": "_price18",
							"type": "uint256[]"
						},
						{
							"internalType": "bytes[]",
							"name": "_signature",
							"type": "bytes[]"
						}
					],
					"name": "liquidation",
					"outputs": [
						{
							"internalType": "bool",
							"name": "",
							"type": "bool"
						}
					],
					"stateMutability": "nonpayable",
					"type": "function"
				},
				{
					"inputs": [],
					"name": "minVal",
					"outputs": [
						{
							"internalType": "uint256",
							"name": "",
							"type": "uint256"
						}
					],
					"stateMutability": "view",
					"type": "function"
				},
				{
					"inputs": [
						{
							"internalType": "address",
							"name": "",
							"type": "address"
						},
						{
							"internalType": "uint256",
							"name": "",
							"type": "uint256"
						}
					],
					"name": "myCloseOrderIdList",
					"outputs": [
						{
							"internalType": "uint256",
							"name": "",
							"type": "uint256"
						}
					],
					"stateMutability": "view",
					"type": "function"
				},
				{
					"inputs": [
						{
							"internalType": "address",
							"name": "_user",
							"type": "address"
						}
					],
					"name": "myCloseOrderIdListLength",
					"outputs": [
						{
							"internalType": "uint256",
							"name": "",
							"type": "uint256"
						}
					],
					"stateMutability": "view",
					"type": "function"
				},
				{
					"inputs": [
						{
							"internalType": "address",
							"name": "",
							"type": "address"
						},
						{
							"internalType": "uint256",
							"name": "",
							"type": "uint256"
						}
					],
					"name": "myCloseOrderIdList_index",
					"outputs": [
						{
							"internalType": "uint256",
							"name": "",
							"type": "uint256"
						}
					],
					"stateMutability": "view",
					"type": "function"
				},
				{
					"inputs": [
						{
							"internalType": "address",
							"name": "",
							"type": "address"
						},
						{
							"internalType": "uint256",
							"name": "",
							"type": "uint256"
						}
					],
					"name": "myOpenOrderIdList",
					"outputs": [
						{
							"internalType": "uint256",
							"name": "",
							"type": "uint256"
						}
					],
					"stateMutability": "view",
					"type": "function"
				},
				{
					"inputs": [
						{
							"internalType": "address",
							"name": "_user",
							"type": "address"
						}
					],
					"name": "myOpenOrderIdListLength",
					"outputs": [
						{
							"internalType": "uint256",
							"name": "",
							"type": "uint256"
						}
					],
					"stateMutability": "view",
					"type": "function"
				},
				{
					"inputs": [
						{
							"internalType": "address",
							"name": "",
							"type": "address"
						},
						{
							"internalType": "uint256",
							"name": "",
							"type": "uint256"
						}
					],
					"name": "myOpenOrderIdList_index",
					"outputs": [
						{
							"internalType": "uint256",
							"name": "",
							"type": "uint256"
						}
					],
					"stateMutability": "view",
					"type": "function"
				},
				{
					"inputs": [
						{
							"internalType": "uint256",
							"name": "",
							"type": "uint256"
						}
					],
					"name": "openOrderIdList",
					"outputs": [
						{
							"internalType": "uint256",
							"name": "",
							"type": "uint256"
						}
					],
					"stateMutability": "view",
					"type": "function"
				},
				{
					"inputs": [
						{
							"internalType": "uint256",
							"name": "",
							"type": "uint256"
						}
					],
					"name": "openOrderIdList_index",
					"outputs": [
						{
							"internalType": "uint256",
							"name": "",
							"type": "uint256"
						}
					],
					"stateMutability": "view",
					"type": "function"
				},
				{
					"inputs": [
						{
							"internalType": "bool",
							"name": "_marketState",
							"type": "bool"
						},
						{
							"internalType": "uint256",
							"name": "_timestamp",
							"type": "uint256"
						},
						{
							"internalType": "uint256",
							"name": "_direction",
							"type": "uint256"
						},
						{
							"internalType": "uint256",
							"name": "_type",
							"type": "uint256"
						},
						{
							"internalType": "string",
							"name": "_symbols",
							"type": "string"
						},
						{
							"internalType": "uint256",
							"name": "_price18",
							"type": "uint256"
						},
						{
							"internalType": "uint256",
							"name": "_amt",
							"type": "uint256"
						},
						{
							"internalType": "bytes",
							"name": "_signature",
							"type": "bytes"
						}
					],
					"name": "openPosition",
					"outputs": [
						{
							"internalType": "bool",
							"name": "",
							"type": "bool"
						}
					],
					"stateMutability": "nonpayable",
					"type": "function"
				},
				{
					"inputs": [],
					"name": "oracle",
					"outputs": [
						{
							"internalType": "contract IOracle",
							"name": "",
							"type": "address"
						}
					],
					"stateMutability": "view",
					"type": "function"
				},
				{
					"inputs": [
						{
							"internalType": "uint256",
							"name": "_id",
							"type": "uint256"
						}
					],
					"name": "orderInfo",
					"outputs": [
						{
							"components": [
								{
									"internalType": "address",
									"name": "user",
									"type": "address"
								},
								{
									"internalType": "uint256",
									"name": "_type",
									"type": "uint256"
								},
								{
									"internalType": "string",
									"name": "symbols",
									"type": "string"
								},
								{
									"internalType": "uint256",
									"name": "state",
									"type": "uint256"
								},
								{
									"internalType": "uint256",
									"name": "direction",
									"type": "uint256"
								},
								{
									"internalType": "uint256",
									"name": "openPrice18",
									"type": "uint256"
								},
								{
									"internalType": "uint256",
									"name": "openTime",
									"type": "uint256"
								},
								{
									"internalType": "uint256",
									"name": "closePrice18",
									"type": "uint256"
								},
								{
									"internalType": "uint256",
									"name": "closeTime",
									"type": "uint256"
								},
								{
									"internalType": "uint256",
									"name": "amt",
									"type": "uint256"
								},
								{
									"internalType": "uint256",
									"name": "margin",
									"type": "uint256"
								}
							],
							"internalType": "struct mirrorseaMain.OrderInfo",
							"name": "",
							"type": "tuple"
						}
					],
					"stateMutability": "view",
					"type": "function"
				},
				{
					"inputs": [],
					"name": "owner",
					"outputs": [
						{
							"internalType": "address",
							"name": "",
							"type": "address"
						}
					],
					"stateMutability": "view",
					"type": "function"
				},
				{
					"inputs": [
						{
							"internalType": "address",
							"name": "_user",
							"type": "address"
						},
						{
							"internalType": "uint256",
							"name": "_type",
							"type": "uint256"
						},
						{
							"internalType": "uint256",
							"name": "_row",
							"type": "uint256"
						},
						{
							"internalType": "uint256",
							"name": "_page",
							"type": "uint256"
						}
					],
					"name": "pagination",
					"outputs": [
						{
							"internalType": "uint256[]",
							"name": "",
							"type": "uint256[]"
						}
					],
					"stateMutability": "view",
					"type": "function"
				},
				{
					"inputs": [],
					"name": "renounceOwnership",
					"outputs": [],
					"stateMutability": "nonpayable",
					"type": "function"
				},
				{
					"inputs": [
						{
							"internalType": "address",
							"name": "_address",
							"type": "address"
						},
						{
							"internalType": "bool",
							"name": "_type",
							"type": "bool"
						}
					],
					"name": "setExecutor",
					"outputs": [
						{
							"internalType": "bool",
							"name": "",
							"type": "bool"
						}
					],
					"stateMutability": "nonpayable",
					"type": "function"
				},
				{
					"inputs": [
						{
							"internalType": "uint256",
							"name": "_val",
							"type": "uint256"
						}
					],
					"name": "setFeePercent",
					"outputs": [
						{
							"internalType": "bool",
							"name": "",
							"type": "bool"
						}
					],
					"stateMutability": "nonpayable",
					"type": "function"
				},
				{
					"inputs": [
						{
							"internalType": "uint256",
							"name": "id",
							"type": "uint256"
						},
						{
							"internalType": "address",
							"name": "user",
							"type": "address"
						},
						{
							"internalType": "uint256",
							"name": "_type",
							"type": "uint256"
						},
						{
							"internalType": "string",
							"name": "symbols",
							"type": "string"
						},
						{
							"internalType": "uint256",
							"name": "state",
							"type": "uint256"
						},
						{
							"internalType": "uint256",
							"name": "direction",
							"type": "uint256"
						},
						{
							"internalType": "uint256",
							"name": "openPrice18",
							"type": "uint256"
						},
						{
							"internalType": "uint256",
							"name": "openTime",
							"type": "uint256"
						},
						{
							"internalType": "uint256",
							"name": "closePrice18",
							"type": "uint256"
						},
						{
							"internalType": "uint256",
							"name": "closeTime",
							"type": "uint256"
						},
						{
							"internalType": "uint256",
							"name": "amt",
							"type": "uint256"
						},
						{
							"internalType": "uint256",
							"name": "margin",
							"type": "uint256"
						}
					],
					"name": "setOrderInfo",
					"outputs": [
						{
							"internalType": "bool",
							"name": "",
							"type": "bool"
						}
					],
					"stateMutability": "nonpayable",
					"type": "function"
				},
				{
					"inputs": [
						{
							"internalType": "address",
							"name": "_address",
							"type": "address"
						}
					],
					"name": "setSigner",
					"outputs": [
						{
							"internalType": "bool",
							"name": "",
							"type": "bool"
						}
					],
					"stateMutability": "nonpayable",
					"type": "function"
				},
				{
					"inputs": [],
					"name": "signer",
					"outputs": [
						{
							"internalType": "address",
							"name": "",
							"type": "address"
						}
					],
					"stateMutability": "view",
					"type": "function"
				},
				{
					"inputs": [
						{
							"internalType": "address",
							"name": "newOwner",
							"type": "address"
						}
					],
					"name": "transferOwnership",
					"outputs": [],
					"stateMutability": "nonpayable",
					"type": "function"
				},
				{
					"inputs": [],
					"name": "usc",
					"outputs": [
						{
							"internalType": "contract IERC20Upgradeable",
							"name": "",
							"type": "address"
						}
					],
					"stateMutability": "view",
					"type": "function"
				}
			],
			"devdoc": {
				"kind": "dev",
				"methods": {
					"owner()": {
						"details": "Returns the address of the current owner."
					},
					"renounceOwnership()": {
						"details": "Leaves the contract without owner. It will not be possible to call `onlyOwner` functions anymore. Can only be called by the current owner. NOTE: Renouncing ownership will leave the contract without an owner, thereby removing any functionality that is only available to the owner."
					},
					"transferOwnership(address)": {
						"details": "Transfers ownership of the contract to a new account (`newOwner`). Can only be called by the current owner."
					}
				},
				"version": 1
			},
			"evm": {
				"assembly": "    /* \"contracts/mirrorseaMain.sol\":910:15709  contract mirrorseaMain is Initializable, OwnableUpgradeable {... */\n  mstore(0x40, 0x80)\n  callvalue\n  dup1\n  iszero\n  tag_1\n  jumpi\n  0x00\n  dup1\n  revert\ntag_1:\n  pop\n  dataSize(sub_0)\n  dup1\n  dataOffset(sub_0)\n  0x00\n  codecopy\n  0x00\n  return\nstop\n\nsub_0: assembly {\n        /* \"contracts/mirrorseaMain.sol\":910:15709  contract mirrorseaMain is Initializable, OwnableUpgradeable {... */\n      mstore(0x40, 0x80)\n      callvalue\n      dup1\n      iszero\n      tag_1\n      jumpi\n      0x00\n      dup1\n      revert\n    tag_1:\n      pop\n      jumpi(tag_2, lt(calldatasize, 0x04))\n      shr(0xe0, calldataload(0x00))\n      dup1\n      0x7dc0d1d0\n      gt\n      tag_35\n      jumpi\n      dup1\n      0xe4e95520\n      gt\n      tag_36\n      jumpi\n      dup1\n      0xf2fde38b\n      gt\n      tag_37\n      jumpi\n      dup1\n      0xf2fde38b\n      eq\n      tag_31\n      jumpi\n      dup1\n      0xf7ab69fd\n      eq\n      tag_32\n      jumpi\n      dup1\n      0xf8c8765e\n      eq\n      tag_33\n      jumpi\n      dup1\n      0xfc234d06\n      eq\n      tag_34\n      jumpi\n      jump(tag_2)\n    tag_37:\n      dup1\n      0xe4e95520\n      eq\n      tag_27\n      jumpi\n      dup1\n      0xec4c4f34\n      eq\n      tag_28\n      jumpi\n      dup1\n      0xf0c765e4\n      eq\n      tag_29\n      jumpi\n      dup1\n      0xf14053ad\n      eq\n      tag_30\n      jumpi\n      jump(tag_2)\n    tag_36:\n      dup1\n      0xa8ecb028\n      gt\n      tag_38\n      jumpi\n      dup1\n      0xa8ecb028\n      eq\n      tag_23\n      jumpi\n      dup1\n      0xaaf5eb68\n      eq\n      tag_24\n      jumpi\n      dup1\n      0xaecf77b1\n      eq\n      tag_25\n      jumpi\n      dup1\n      0xc2ec527d\n      eq\n      tag_26\n      jumpi\n      jump(tag_2)\n    tag_38:\n      dup1\n      0x7dc0d1d0\n      eq\n      tag_19\n      jumpi\n      dup1\n      0x7fd6f15c\n      eq\n      tag_20\n      jumpi\n      dup1\n      0x8da5cb5b\n      eq\n      tag_21\n      jumpi\n      dup1\n      0xa0ad12e2\n      eq\n      tag_22\n      jumpi\n      jump(tag_2)\n    tag_35:\n      dup1\n      0x48c7e528\n      gt\n      tag_39\n      jumpi\n      dup1\n      0x6e812437\n      gt\n      tag_40\n      jumpi\n      dup1\n      0x6e812437\n      eq\n      tag_15\n      jumpi\n      dup1\n      0x715018a6\n      eq\n      tag_16\n      jumpi\n      dup1\n      0x7be3a1a1\n      eq\n      tag_17\n      jumpi\n      dup1\n      0x7ce3489b\n      eq\n      tag_18\n      jumpi\n      jump(tag_2)\n    tag_40:\n      dup1\n      0x48c7e528\n      eq\n      tag_11\n      jumpi\n      dup1\n      0x4b989ce3\n      eq\n      tag_12\n      jumpi\n      dup1\n      0x6ab34a4a\n      eq\n      tag_13\n      jumpi\n      dup1\n      0x6c19e783\n      eq\n      tag_14\n      jumpi\n      jump(tag_2)\n    tag_39:\n      dup1\n      0x238ac933\n      gt\n      tag_41\n      jumpi\n      dup1\n      0x238ac933\n      eq\n      tag_7\n      jumpi\n      dup1\n      0x2e9f5bf6\n      eq\n      tag_8\n      jumpi\n      dup1\n      0x3011d3d5\n      eq\n      tag_9\n      jumpi\n      dup1\n      0x43b1f3cb\n      eq\n      tag_10\n      jumpi\n      jump(tag_2)\n    tag_41:\n      dup1\n      0x080270a8\n      eq\n      tag_3\n      jumpi\n      dup1\n      0x0f58d242\n      eq\n      tag_4\n      jumpi\n      dup1\n      0x1e1bff3f\n      eq\n      tag_5\n      jumpi\n      dup1\n      0x1e64610c\n      eq\n      tag_6\n      jumpi\n    tag_2:\n      0x00\n      dup1\n      revert\n        /* \"contracts/mirrorseaMain.sol\":4502:5516  function pagination(... */\n    tag_3:\n      tag_42\n      tag_43\n      calldatasize\n      0x04\n      tag_44\n      jump\t// in\n    tag_43:\n      tag_45\n      jump\t// in\n    tag_42:\n      mload(0x40)\n      tag_46\n      swap2\n      swap1\n      tag_47\n      jump\t// in\n    tag_46:\n      mload(0x40)\n      dup1\n      swap2\n      sub\n      swap1\n      return\n        /* \"contracts/mirrorseaMain.sol\":1347:1379  uint256[] public openOrderIdList */\n    tag_4:\n      tag_48\n      tag_49\n      calldatasize\n      0x04\n      tag_50\n      jump\t// in\n    tag_49:\n      tag_51\n      jump\t// in\n    tag_48:\n      mload(0x40)\n      tag_46\n      swap2\n      swap1\n      tag_53\n      jump\t// in\n        /* \"contracts/mirrorseaMain.sol\":2999:3176  function setExecutor(address _address, bool _type)... */\n    tag_5:\n      tag_54\n      tag_55\n      calldatasize\n      0x04\n      tag_56\n      jump\t// in\n    tag_55:\n      tag_57\n      jump\t// in\n    tag_54:\n      mload(0x40)\n      tag_46\n      swap2\n      swap1\n      tag_59\n      jump\t// in\n        /* \"contracts/mirrorseaMain.sol\":1196:1227  IhelperLogic public helperLogic */\n    tag_6:\n      tag_60\n      tag_61\n      jump\t// in\n    tag_60:\n      mload(0x40)\n      tag_46\n      swap2\n      swap1\n      tag_67\n      jump\t// in\n        /* \"contracts/mirrorseaMain.sol\":1135:1156  address public signer */\n    tag_7:\n      tag_60\n      tag_65\n      jump\t// in\n        /* \"contracts/mirrorseaMain.sol\":5522:7421  function openPosition(... */\n    tag_8:\n      tag_54\n      tag_69\n      calldatasize\n      0x04\n      tag_70\n      jump\t// in\n    tag_69:\n      tag_71\n      jump\t// in\n        /* \"contracts/mirrorseaMain.sol\":1162:1190  IERC20Upgradeable public usc */\n    tag_9:\n      tag_60\n      tag_74\n      jump\t// in\n        /* \"contracts/mirrorseaMain.sol\":1385:1441  mapping(uint256 => uint256) public openOrderIdList_index */\n    tag_10:\n      tag_48\n      tag_78\n      calldatasize\n      0x04\n      tag_50\n      jump\t// in\n    tag_78:\n      tag_79\n      jump\t// in\n        /* \"contracts/mirrorseaMain.sol\":1089:1129  mapping(address => bool) public executor */\n    tag_11:\n      tag_54\n      tag_82\n      calldatasize\n      0x04\n      tag_83\n      jump\t// in\n    tag_82:\n      tag_84\n      jump\t// in\n        /* \"contracts/mirrorseaMain.sol\":12170:13021  function liquidation(... */\n    tag_12:\n      tag_54\n      tag_87\n      calldatasize\n      0x04\n      tag_88\n      jump\t// in\n    tag_87:\n      tag_89\n      jump\t// in\n        /* \"contracts/mirrorseaMain.sol\":3603:3715  function orderInfo(uint256 _id) external view returns (OrderInfo memory) {... */\n    tag_13:\n      tag_91\n      tag_92\n      calldatasize\n      0x04\n      tag_50\n      jump\t// in\n    tag_92:\n      tag_93\n      jump\t// in\n    tag_91:\n      mload(0x40)\n      tag_46\n      swap2\n      swap1\n      tag_95\n      jump\t// in\n        /* \"contracts/mirrorseaMain.sol\":3471:3597  function setSigner(address _address) external onlyOwner returns (bool) {... */\n    tag_14:\n      tag_54\n      tag_97\n      calldatasize\n      0x04\n      tag_83\n      jump\t// in\n    tag_97:\n      tag_98\n      jump\t// in\n        /* \"contracts/mirrorseaMain.sol\":11186:11778  function closePosition(... */\n    tag_15:\n      tag_54\n      tag_101\n      calldatasize\n      0x04\n      tag_102\n      jump\t// in\n    tag_101:\n      tag_103\n      jump\t// in\n        /* \"@openzeppelin/contracts-upgradeable/access/OwnableUpgradeable.sol\":1934:2035  function renounceOwnership() public virtual onlyOwner {... */\n    tag_16:\n      tag_105\n      tag_106\n      jump\t// in\n    tag_105:\n      stop\n        /* \"contracts/mirrorseaMain.sol\":1508:1594  mapping(address => mapping(uint256 => uint256))... */\n    tag_17:\n      tag_48\n      tag_108\n      calldatasize\n      0x04\n      tag_109\n      jump\t// in\n    tag_108:\n      tag_110\n      jump\t// in\n        /* \"contracts/mirrorseaMain.sol\":3326:3452  function setFeePercent(uint256 _val) external onlyOwner returns (bool) {... */\n    tag_18:\n      tag_54\n      tag_113\n      calldatasize\n      0x04\n      tag_50\n      jump\t// in\n    tag_113:\n      tag_114\n      jump\t// in\n        /* \"contracts/mirrorseaMain.sol\":1233:1254  IOracle public oracle */\n    tag_19:\n      tag_60\n      tag_117\n      jump\t// in\n        /* \"contracts/mirrorseaMain.sol\":1756:1781  uint256 public feePercent */\n    tag_20:\n      tag_48\n      tag_121\n      jump\t// in\n        /* \"@openzeppelin/contracts-upgradeable/access/OwnableUpgradeable.sol\":1302:1387  function owner() public view virtual returns (address) {... */\n    tag_21:\n      tag_60\n      tag_124\n      jump\t// in\n        /* \"contracts/mirrorseaMain.sol\":13027:13580  function forcedLiquidation(... */\n    tag_22:\n      tag_54\n      tag_127\n      calldatasize\n      0x04\n      tag_102\n      jump\t// in\n    tag_127:\n      tag_128\n      jump\t// in\n        /* \"contracts/mirrorseaMain.sol\":14913:15707  function adjustPosition(... */\n    tag_23:\n      tag_54\n      tag_131\n      calldatasize\n      0x04\n      tag_132\n      jump\t// in\n    tag_131:\n      tag_133\n      jump\t// in\n        /* \"contracts/mirrorseaMain.sol\":1787:1811  uint256 public PRECISION */\n    tag_24:\n      tag_48\n      tag_136\n      jump\t// in\n        /* \"contracts/mirrorseaMain.sol\":2830:2993  function myCloseOrderIdListLength(address _user)... */\n    tag_25:\n      tag_48\n      tag_139\n      calldatasize\n      0x04\n      tag_83\n      jump\t// in\n    tag_139:\n      tag_140\n      jump\t// in\n        /* \"contracts/mirrorseaMain.sol\":1448:1502  mapping(address => uint256[]) public myOpenOrderIdList */\n    tag_26:\n      tag_48\n      tag_143\n      calldatasize\n      0x04\n      tag_109\n      jump\t// in\n    tag_143:\n      tag_144\n      jump\t// in\n        /* \"contracts/mirrorseaMain.sol\":2663:2824  function myOpenOrderIdListLength(address _user)... */\n    tag_27:\n      tag_48\n      tag_147\n      calldatasize\n      0x04\n      tag_83\n      jump\t// in\n    tag_147:\n      tag_148\n      jump\t// in\n        /* \"contracts/mirrorseaMain.sol\":1601:1656  mapping(address => uint256[]) public myCloseOrderIdList */\n    tag_28:\n      tag_48\n      tag_151\n      calldatasize\n      0x04\n      tag_109\n      jump\t// in\n    tag_151:\n      tag_152\n      jump\t// in\n        /* \"contracts/mirrorseaMain.sol\":1662:1749  mapping(address => mapping(uint256 => uint256))... */\n    tag_29:\n      tag_48\n      tag_155\n      calldatasize\n      0x04\n      tag_109\n      jump\t// in\n    tag_155:\n      tag_156\n      jump\t// in\n        /* \"contracts/mirrorseaMain.sol\":1818:1839  uint256 public minVal */\n    tag_30:\n      tag_48\n      tag_159\n      jump\t// in\n        /* \"@openzeppelin/contracts-upgradeable/access/OwnableUpgradeable.sol\":2184:2382  function transferOwnership(address newOwner) public virtual onlyOwner {... */\n    tag_31:\n      tag_105\n      tag_162\n      calldatasize\n      0x04\n      tag_83\n      jump\t// in\n    tag_162:\n      tag_163\n      jump\t// in\n        /* \"contracts/mirrorseaMain.sol\":1315:1340  uint256 public OrderIndex */\n    tag_32:\n      tag_48\n      tag_165\n      jump\t// in\n        /* \"contracts/mirrorseaMain.sol\":2277:2657  function initialize(... */\n    tag_33:\n      tag_105\n      tag_168\n      calldatasize\n      0x04\n      tag_169\n      jump\t// in\n    tag_168:\n      tag_170\n      jump\t// in\n        /* \"contracts/mirrorseaMain.sol\":3721:4496  function setOrderInfo(... */\n    tag_34:\n      tag_54\n      tag_172\n      calldatasize\n      0x04\n      tag_173\n      jump\t// in\n    tag_172:\n      tag_174\n      jump\t// in\n        /* \"contracts/mirrorseaMain.sol\":4502:5516  function pagination(... */\n    tag_45:\n        /* \"contracts/mirrorseaMain.sol\":4642:4658  uint256[] memory */\n      0x60\n        /* \"contracts/mirrorseaMain.sol\":4670:4683  uint256 index */\n      0x00\n      dup1\n        /* \"contracts/mirrorseaMain.sol\":4642:4658  uint256[] memory */\n      dup3\n        /* \"contracts/mirrorseaMain.sol\":4750:4760  _type == 0 */\n      dup7\n        /* \"contracts/mirrorseaMain.sol\":4746:4969  if (_type == 0) {... */\n      tag_177\n      jumpi\n        /* \"contracts/mirrorseaMain.sol\":4784:4799  openOrderIdList */\n      0x6c\n        /* \"contracts/mirrorseaMain.sol\":4776:4799  _list = openOrderIdList */\n      dup1\n      sload\n      dup1\n      0x20\n      mul\n      0x20\n      add\n      mload(0x40)\n      swap1\n      dup2\n      add\n      0x40\n      mstore\n      dup1\n      swap3\n      swap2\n      swap1\n      dup2\n      dup2\n      mstore\n      0x20\n      add\n      dup3\n      dup1\n      sload\n      dup1\n      iszero\n      tag_178\n      jumpi\n      0x20\n      mul\n      dup3\n      add\n      swap2\n      swap1\n      0x00\n      mstore\n      keccak256(0x00, 0x20)\n      swap1\n    tag_179:\n      dup2\n      sload\n      dup2\n      mstore\n      0x20\n      add\n      swap1\n      0x01\n      add\n      swap1\n      dup1\n      dup4\n      gt\n      tag_179\n      jumpi\n    tag_178:\n      pop\n      pop\n      pop\n      pop\n      pop\n      swap1\n      pop\n        /* \"contracts/mirrorseaMain.sol\":4746:4969  if (_type == 0) {... */\n      jump(tag_185)\n    tag_177:\n        /* \"contracts/mirrorseaMain.sol\":4820:4825  _type */\n      dup7\n        /* \"contracts/mirrorseaMain.sol\":4829:4830  1 */\n      0x01\n        /* \"contracts/mirrorseaMain.sol\":4820:4830  _type == 1 */\n      eq\n        /* \"contracts/mirrorseaMain.sol\":4816:4969  if (_type == 1) {... */\n      iszero\n      tag_181\n      jumpi\n      sub(shl(0xa0, 0x01), 0x01)\n        /* \"contracts/mirrorseaMain.sol\":4854:4878  myOpenOrderIdList[_user] */\n      dup9\n      and\n      0x00\n      swap1\n      dup2\n      mstore\n        /* \"contracts/mirrorseaMain.sol\":4854:4871  myOpenOrderIdList */\n      0x6e\n        /* \"contracts/mirrorseaMain.sol\":4854:4878  myOpenOrderIdList[_user] */\n      0x20\n      swap1\n      dup2\n      mstore\n      0x40\n      swap2\n      dup3\n      swap1\n      keccak256\n        /* \"contracts/mirrorseaMain.sol\":4846:4878  _list = myOpenOrderIdList[_user] */\n      dup1\n      sload\n      dup4\n      mload\n      dup2\n      dup5\n      mul\n      dup2\n      add\n      dup5\n      add\n      swap1\n      swap5\n      mstore\n      dup1\n      dup5\n      mstore\n        /* \"contracts/mirrorseaMain.sol\":4854:4878  myOpenOrderIdList[_user] */\n      swap1\n      swap2\n        /* \"contracts/mirrorseaMain.sol\":4846:4878  _list = myOpenOrderIdList[_user] */\n      dup4\n      add\n        /* \"contracts/mirrorseaMain.sol\":4854:4878  myOpenOrderIdList[_user] */\n      dup3\n        /* \"contracts/mirrorseaMain.sol\":4846:4878  _list = myOpenOrderIdList[_user] */\n      dup3\n      dup1\n      iszero\n      tag_178\n      jumpi\n      0x20\n      mul\n      dup3\n      add\n      swap2\n      swap1\n      0x00\n      mstore\n      keccak256(0x00, 0x20)\n      swap1\n      dup2\n      sload\n      dup2\n      mstore\n      0x20\n      add\n      swap1\n      0x01\n      add\n      swap1\n      dup1\n      dup4\n      gt\n      tag_179\n      jumpi\n      pop\n      pop\n      pop\n      pop\n      pop\n      swap1\n      pop\n        /* \"contracts/mirrorseaMain.sol\":4816:4969  if (_type == 1) {... */\n      jump(tag_185)\n    tag_181:\n        /* \"contracts/mirrorseaMain.sol\":4899:4904  _type */\n      dup7\n        /* \"contracts/mirrorseaMain.sol\":4908:4909  2 */\n      0x02\n        /* \"contracts/mirrorseaMain.sol\":4899:4909  _type == 2 */\n      eq\n        /* \"contracts/mirrorseaMain.sol\":4895:4969  if (_type == 2) {... */\n      iszero\n      tag_185\n      jumpi\n      sub(shl(0xa0, 0x01), 0x01)\n        /* \"contracts/mirrorseaMain.sol\":4933:4958  myCloseOrderIdList[_user] */\n      dup9\n      and\n      0x00\n      swap1\n      dup2\n      mstore\n        /* \"contracts/mirrorseaMain.sol\":4933:4951  myCloseOrderIdList */\n      0x70\n        /* \"contracts/mirrorseaMain.sol\":4933:4958  myCloseOrderIdList[_user] */\n      0x20\n      swap1\n      dup2\n      mstore\n      0x40\n      swap2\n      dup3\n      swap1\n      keccak256\n        /* \"contracts/mirrorseaMain.sol\":4925:4958  _list = myCloseOrderIdList[_user] */\n      dup1\n      sload\n      dup4\n      mload\n      dup2\n      dup5\n      mul\n      dup2\n      add\n      dup5\n      add\n      swap1\n      swap5\n      mstore\n      dup1\n      dup5\n      mstore\n        /* \"contracts/mirrorseaMain.sol\":4933:4958  myCloseOrderIdList[_user] */\n      swap1\n      swap2\n        /* \"contracts/mirrorseaMain.sol\":4925:4958  _list = myCloseOrderIdList[_user] */\n      dup4\n      add\n        /* \"contracts/mirrorseaMain.sol\":4933:4958  myCloseOrderIdList[_user] */\n      dup3\n        /* \"contracts/mirrorseaMain.sol\":4925:4958  _list = myCloseOrderIdList[_user] */\n      dup3\n      dup1\n      iszero\n      tag_186\n      jumpi\n      0x20\n      mul\n      dup3\n      add\n      swap2\n      swap1\n      0x00\n      mstore\n      keccak256(0x00, 0x20)\n      swap1\n    tag_187:\n      dup2\n      sload\n      dup2\n      mstore\n      0x20\n      add\n      swap1\n      0x01\n      add\n      swap1\n      dup1\n      dup4\n      gt\n      tag_187\n      jumpi\n    tag_186:\n      pop\n      pop\n      pop\n      pop\n      pop\n      swap1\n      pop\n        /* \"contracts/mirrorseaMain.sol\":4895:4969  if (_type == 2) {... */\n    tag_185:\n        /* \"contracts/mirrorseaMain.sol\":4978:4992  uint256 remAmt */\n      0x00\n        /* \"contracts/mirrorseaMain.sol\":4995:5038  _list.length.sub(_row.mul(_page).sub(_row)) */\n      tag_188\n        /* \"contracts/mirrorseaMain.sol\":5012:5037  _row.mul(_page).sub(_row) */\n      tag_189\n        /* \"contracts/mirrorseaMain.sol\":5032:5036  _row */\n      dup9\n        /* \"contracts/mirrorseaMain.sol\":5012:5027  _row.mul(_page) */\n      tag_190\n        /* \"contracts/mirrorseaMain.sol\":5032:5036  _row */\n      dup2\n        /* \"contracts/mirrorseaMain.sol\":5021:5026  _page */\n      dup11\n        /* \"contracts/mirrorseaMain.sol\":5012:5020  _row.mul */\n      tag_191\n        /* \"contracts/mirrorseaMain.sol\":5012:5027  _row.mul(_page) */\n      jump\t// in\n    tag_190:\n        /* \"contracts/mirrorseaMain.sol\":5012:5031  _row.mul(_page).sub */\n      swap1\n      tag_192\n        /* \"contracts/mirrorseaMain.sol\":5012:5037  _row.mul(_page).sub(_row) */\n      jump\t// in\n    tag_189:\n        /* \"contracts/mirrorseaMain.sol\":4995:5007  _list.length */\n      dup4\n      mload\n      swap1\n        /* \"contracts/mirrorseaMain.sol\":4995:5011  _list.length.sub */\n      tag_192\n        /* \"contracts/mirrorseaMain.sol\":4995:5038  _list.length.sub(_row.mul(_page).sub(_row)) */\n      jump\t// in\n    tag_188:\n        /* \"contracts/mirrorseaMain.sol\":4978:5038  uint256 remAmt = _list.length.sub(_row.mul(_page).sub(_row)) */\n      swap1\n      pop\n        /* \"contracts/mirrorseaMain.sol\":5062:5066  _row */\n      dup7\n        /* \"contracts/mirrorseaMain.sol\":5052:5058  remAmt */\n      dup2\n        /* \"contracts/mirrorseaMain.sol\":5052:5066  remAmt >= _row */\n      lt\n        /* \"contracts/mirrorseaMain.sol\":5048:5146  if (remAmt >= _row) {... */\n      tag_193\n      jumpi\n        /* \"contracts/mirrorseaMain.sol\":5088:5092  _row */\n      dup7\n        /* \"contracts/mirrorseaMain.sol\":5082:5092  arr = _row */\n      swap3\n      pop\n        /* \"contracts/mirrorseaMain.sol\":5048:5146  if (remAmt >= _row) {... */\n      jump(tag_194)\n    tag_193:\n        /* \"contracts/mirrorseaMain.sol\":5129:5135  remAmt */\n      dup1\n        /* \"contracts/mirrorseaMain.sol\":5123:5135  arr = remAmt */\n      swap3\n      pop\n        /* \"contracts/mirrorseaMain.sol\":5048:5146  if (remAmt >= _row) {... */\n    tag_194:\n        /* \"contracts/mirrorseaMain.sol\":5155:5179  uint256[] memory newList */\n      0x00\n        /* \"contracts/mirrorseaMain.sol\":5196:5199  arr */\n      dup4\n        /* \"contracts/mirrorseaMain.sol\":5182:5200  new uint256[](arr) */\n      0xffffffffffffffff\n      dup2\n      gt\n      iszero\n      tag_195\n      jumpi\n      mstore(0x00, shl(0xe0, 0x4e487b71))\n      mstore(0x04, 0x41)\n      revert(0x00, 0x24)\n    tag_195:\n      mload(0x40)\n      swap1\n      dup1\n      dup3\n      mstore\n      dup1\n      0x20\n      mul\n      0x20\n      add\n      dup3\n      add\n      0x40\n      mstore\n      dup1\n      iszero\n      tag_196\n      jumpi\n      dup2\n      0x20\n      add\n      0x20\n      dup3\n      mul\n      dup1\n      calldatasize\n      dup4\n      calldatacopy\n      add\n      swap1\n      pop\n    tag_196:\n      pop\n        /* \"contracts/mirrorseaMain.sol\":5246:5258  _list.length */\n      dup4\n      mload\n        /* \"contracts/mirrorseaMain.sol\":5155:5200  uint256[] memory newList = new uint256[](arr) */\n      swap1\n      swap2\n      pop\n        /* \"contracts/mirrorseaMain.sol\":5218:5243  _row.mul(_page).sub(_row) */\n      tag_197\n        /* \"contracts/mirrorseaMain.sol\":5238:5242  _row */\n      dup10\n        /* \"contracts/mirrorseaMain.sol\":5218:5233  _row.mul(_page) */\n      tag_190\n        /* \"contracts/mirrorseaMain.sol\":5238:5242  _row */\n      dup2\n        /* \"contracts/mirrorseaMain.sol\":5227:5232  _page */\n      dup12\n        /* \"contracts/mirrorseaMain.sol\":5218:5226  _row.mul */\n      tag_191\n        /* \"contracts/mirrorseaMain.sol\":5218:5233  _row.mul(_page) */\n      jump\t// in\n        /* \"contracts/mirrorseaMain.sol\":5218:5243  _row.mul(_page).sub(_row) */\n    tag_197:\n        /* \"contracts/mirrorseaMain.sol\":5218:5258  _row.mul(_page).sub(_row) < _list.length */\n      lt\n        /* \"contracts/mirrorseaMain.sol\":5210:5273  require(_row.mul(_page).sub(_row) < _list.length, \"length err\") */\n      tag_199\n      jumpi\n      mload(0x40)\n      shl(0xe5, 0x461bcd)\n      dup2\n      mstore\n      0x04\n      add\n      tag_200\n      swap1\n      tag_201\n      jump\t// in\n    tag_200:\n      mload(0x40)\n      dup1\n      swap2\n      sub\n      swap1\n      revert\n    tag_199:\n        /* \"contracts/mirrorseaMain.sol\":5288:5297  uint256 i */\n      0x00\n        /* \"contracts/mirrorseaMain.sol\":5317:5321  _row */\n      dup9\n        /* \"contracts/mirrorseaMain.sol\":5301:5313  _row * _page */\n      tag_205\n        /* \"contracts/mirrorseaMain.sol\":5308:5313  _page */\n      dup10\n        /* \"contracts/mirrorseaMain.sol\":5317:5321  _row */\n      dup3\n        /* \"contracts/mirrorseaMain.sol\":5301:5313  _row * _page */\n      tag_206\n      jump\t// in\n    tag_205:\n        /* \"contracts/mirrorseaMain.sol\":5300:5321  (_row * _page) - _row */\n      tag_207\n      swap2\n      swap1\n      tag_208\n      jump\t// in\n    tag_207:\n        /* \"contracts/mirrorseaMain.sol\":5288:5321  uint256 i = (_row * _page) - _row */\n      swap1\n      pop\n        /* \"contracts/mirrorseaMain.sol\":5283:5486  for (uint256 i = (_row * _page) - _row; i < _row * _page; i++) {... */\n    tag_202:\n        /* \"contracts/mirrorseaMain.sol\":5327:5339  _row * _page */\n      tag_209\n        /* \"contracts/mirrorseaMain.sol\":5334:5339  _page */\n      dup9\n        /* \"contracts/mirrorseaMain.sol\":5327:5331  _row */\n      dup11\n        /* \"contracts/mirrorseaMain.sol\":5327:5339  _row * _page */\n      tag_206\n      jump\t// in\n    tag_209:\n        /* \"contracts/mirrorseaMain.sol\":5323:5324  i */\n      dup2\n        /* \"contracts/mirrorseaMain.sol\":5323:5339  i < _row * _page */\n      lt\n        /* \"contracts/mirrorseaMain.sol\":5283:5486  for (uint256 i = (_row * _page) - _row; i < _row * _page; i++) {... */\n      iszero\n      tag_203\n      jumpi\n        /* \"contracts/mirrorseaMain.sol\":5377:5382  _list */\n      dup4\n        /* \"contracts/mirrorseaMain.sol\":5383:5384  i */\n      dup2\n        /* \"contracts/mirrorseaMain.sol\":5377:5385  _list[i] */\n      dup2\n      mload\n      dup2\n      lt\n      tag_210\n      jumpi\n      mstore(0x00, shl(0xe0, 0x4e487b71))\n      mstore(0x04, 0x32)\n      revert(0x00, 0x24)\n    tag_210:\n      0x20\n      mul\n      0x20\n      add\n      add\n      mload\n        /* \"contracts/mirrorseaMain.sol\":5360:5367  newList */\n      dup3\n        /* \"contracts/mirrorseaMain.sol\":5368:5373  index */\n      dup8\n        /* \"contracts/mirrorseaMain.sol\":5360:5374  newList[index] */\n      dup2\n      mload\n      dup2\n      lt\n      tag_211\n      jumpi\n      mstore(0x00, shl(0xe0, 0x4e487b71))\n      mstore(0x04, 0x32)\n      revert(0x00, 0x24)\n    tag_211:\n      0x20\n      swap1\n      dup2\n      mul\n      swap2\n      swap1\n      swap2\n      add\n      add\n        /* \"contracts/mirrorseaMain.sol\":5360:5385  newList[index] = _list[i] */\n      mstore\n        /* \"contracts/mirrorseaMain.sol\":5399:5406  index++ */\n      dup6\n      tag_212\n      dup2\n      tag_213\n      jump\t// in\n    tag_212:\n      swap7\n      pop\n      pop\n        /* \"contracts/mirrorseaMain.sol\":5431:5436  index */\n      dup6\n        /* \"contracts/mirrorseaMain.sol\":5424:5427  arr */\n      dup6\n        /* \"contracts/mirrorseaMain.sol\":5424:5436  arr == index */\n      eq\n        /* \"contracts/mirrorseaMain.sol\":5420:5476  if (arr == index) {... */\n      iszero\n      tag_214\n      jumpi\n        /* \"contracts/mirrorseaMain.sol\":5456:5461  break */\n      jump(tag_203)\n        /* \"contracts/mirrorseaMain.sol\":5420:5476  if (arr == index) {... */\n    tag_214:\n        /* \"contracts/mirrorseaMain.sol\":5341:5344  i++ */\n      dup1\n      tag_215\n      dup2\n      tag_213\n      jump\t// in\n    tag_215:\n      swap2\n      pop\n      pop\n        /* \"contracts/mirrorseaMain.sol\":5283:5486  for (uint256 i = (_row * _page) - _row; i < _row * _page; i++) {... */\n      jump(tag_202)\n    tag_203:\n      pop\n        /* \"contracts/mirrorseaMain.sol\":5502:5509  newList */\n      swap10\n        /* \"contracts/mirrorseaMain.sol\":4502:5516  function pagination(... */\n      swap9\n      pop\n      pop\n      pop\n      pop\n      pop\n      pop\n      pop\n      pop\n      pop\n      jump\t// out\n        /* \"contracts/mirrorseaMain.sol\":1347:1379  uint256[] public openOrderIdList */\n    tag_51:\n      0x6c\n      dup2\n      dup2\n      sload\n      dup2\n      lt\n      tag_216\n      jumpi\n      0x00\n      dup1\n      revert\n    tag_216:\n      0x00\n      swap2\n      dup3\n      mstore\n      0x20\n      swap1\n      swap2\n      keccak256\n      add\n      sload\n      swap1\n      pop\n      dup2\n      jump\t// out\n        /* \"contracts/mirrorseaMain.sol\":2999:3176  function setExecutor(address _address, bool _type)... */\n    tag_57:\n        /* \"contracts/mirrorseaMain.sol\":3102:3106  bool */\n      0x00\n        /* \"@openzeppelin/contracts-upgradeable/access/OwnableUpgradeable.sol\":1525:1537  _msgSender() */\n      tag_219\n        /* \"@openzeppelin/contracts-upgradeable/access/OwnableUpgradeable.sol\":1525:1535  _msgSender */\n      tag_220\n        /* \"@openzeppelin/contracts-upgradeable/access/OwnableUpgradeable.sol\":1525:1537  _msgSender() */\n      jump\t// in\n    tag_219:\n      sub(shl(0xa0, 0x01), 0x01)\n        /* \"@openzeppelin/contracts-upgradeable/access/OwnableUpgradeable.sol\":1514:1537  owner() == _msgSender() */\n      and\n        /* \"@openzeppelin/contracts-upgradeable/access/OwnableUpgradeable.sol\":1514:1521  owner() */\n      tag_221\n        /* \"@openzeppelin/contracts-upgradeable/access/OwnableUpgradeable.sol\":1514:1519  owner */\n      tag_124\n        /* \"@openzeppelin/contracts-upgradeable/access/OwnableUpgradeable.sol\":1514:1521  owner() */\n      jump\t// in\n    tag_221:\n      sub(shl(0xa0, 0x01), 0x01)\n        /* \"@openzeppelin/contracts-upgradeable/access/OwnableUpgradeable.sol\":1514:1537  owner() == _msgSender() */\n      and\n      eq\n        /* \"@openzeppelin/contracts-upgradeable/access/OwnableUpgradeable.sol\":1506:1574  require(owner() == _msgSender(), \"Ownable: caller is not the owner\") */\n      tag_222\n      jumpi\n      mload(0x40)\n      shl(0xe5, 0x461bcd)\n      dup2\n      mstore\n      0x04\n      add\n      tag_200\n      swap1\n      tag_224\n      jump\t// in\n    tag_222:\n      pop\n      sub(shl(0xa0, 0x01), 0x01)\n        /* \"contracts/mirrorseaMain.sol\":3122:3140  executor[_address] */\n      dup3\n      and\n      0x00\n      swap1\n      dup2\n      mstore\n        /* \"contracts/mirrorseaMain.sol\":3122:3130  executor */\n      0x65\n        /* \"contracts/mirrorseaMain.sol\":3122:3140  executor[_address] */\n      0x20\n      mstore\n      0x40\n      swap1\n      keccak256\n        /* \"contracts/mirrorseaMain.sol\":3122:3148  executor[_address] = _type */\n      dup1\n      sload\n      dup3\n      iszero\n      iszero\n      not(0xff)\n      swap1\n      swap2\n      and\n      or\n      swap1\n      sstore\n      0x01\n        /* \"contracts/mirrorseaMain.sol\":2999:3176  function setExecutor(address _address, bool _type)... */\n      swap3\n      swap2\n      pop\n      pop\n      jump\t// out\n        /* \"contracts/mirrorseaMain.sol\":1196:1227  IhelperLogic public helperLogic */\n    tag_61:\n      and(sub(shl(0xa0, 0x01), 0x01), sload(0x68))\n      dup2\n      jump\t// out\n        /* \"contracts/mirrorseaMain.sol\":1135:1156  address public signer */\n    tag_65:\n      and(sub(shl(0xa0, 0x01), 0x01), sload(0x66))\n      dup2\n      jump\t// out\n        /* \"contracts/mirrorseaMain.sol\":5522:7421  function openPosition(... */\n    tag_71:\n        /* \"contracts/mirrorseaMain.sol\":5840:5850  OrderIndex */\n      sload(0x6b)\n        /* \"contracts/mirrorseaMain.sol\":5787:5791  bool */\n      0x00\n        /* \"contracts/mirrorseaMain.sol\":5829:5851  _orderInfo[OrderIndex] */\n      swap1\n      dup2\n      mstore\n        /* \"contracts/mirrorseaMain.sol\":5829:5839  _orderInfo */\n      0x6a\n        /* \"contracts/mirrorseaMain.sol\":5829:5851  _orderInfo[OrderIndex] */\n      0x20\n      mstore\n      0x40\n      dup2\n      keccak256\n        /* \"contracts/mirrorseaMain.sol\":5869:5880  order.state */\n      0x03\n      dup2\n      add\n      sload\n        /* \"contracts/mirrorseaMain.sol\":5869:5885  order.state == 0 */\n      iszero\n        /* \"contracts/mirrorseaMain.sol\":5861:5899  require(order.state == 0, \"state err\") */\n      tag_227\n      jumpi\n      mload(0x40)\n      shl(0xe5, 0x461bcd)\n      dup2\n      mstore\n      0x04\n      add\n      tag_200\n      swap1\n      tag_229\n      jump\t// in\n    tag_227:\n        /* \"contracts/mirrorseaMain.sol\":5930:5936  oracle */\n      sload(0x69)\n        /* \"contracts/mirrorseaMain.sol\":5930:6095  oracle.getkey(... */\n      mload(0x40)\n      shl(0xe1, 0x11cdc9d9)\n      dup2\n      mstore\n      sub(shl(0xa0, 0x01), 0x01)\n        /* \"contracts/mirrorseaMain.sol\":5930:5936  oracle */\n      swap1\n      swap2\n      and\n      swap1\n        /* \"contracts/mirrorseaMain.sol\":5930:5943  oracle.getkey */\n      0x239b93b2\n      swap1\n        /* \"contracts/mirrorseaMain.sol\":5930:6095  oracle.getkey(... */\n      tag_230\n      swap1\n        /* \"contracts/mirrorseaMain.sol\":5961:5973  _marketState */\n      dup14\n      swap1\n        /* \"contracts/mirrorseaMain.sol\":5991:5999  _price18 */\n      dup10\n      swap1\n        /* \"contracts/mirrorseaMain.sol\":6017:6027  _timestamp */\n      dup15\n      swap1\n        /* \"contracts/mirrorseaMain.sol\":6045:6053  _symbols */\n      dup13\n      swap1\n        /* \"contracts/mirrorseaMain.sol\":6071:6081  _signature */\n      dup11\n      swap1\n        /* \"contracts/mirrorseaMain.sol\":5930:6095  oracle.getkey(... */\n      0x04\n      add\n      tag_231\n      jump\t// in\n    tag_230:\n      0x20\n      mload(0x40)\n      dup1\n      dup4\n      sub\n      dup2\n      dup7\n      dup1\n      extcodesize\n      iszero\n      dup1\n      iszero\n      tag_232\n      jumpi\n      0x00\n      dup1\n      revert\n    tag_232:\n      pop\n      gas\n      staticcall\n      iszero\n      dup1\n      iszero\n      tag_234\n      jumpi\n      returndatasize\n      0x00\n      dup1\n      returndatacopy\n      revert(0x00, returndatasize)\n    tag_234:\n      pop\n      pop\n      pop\n      pop\n      mload(0x40)\n      returndatasize\n      not(0x1f)\n      0x1f\n      dup3\n      add\n      and\n      dup3\n      add\n      dup1\n      0x40\n      mstore\n      pop\n      dup2\n      add\n      swap1\n      tag_235\n      swap2\n      swap1\n      tag_236\n      jump\t// in\n    tag_235:\n        /* \"contracts/mirrorseaMain.sol\":5909:6131  require(... */\n      tag_237\n      jumpi\n      mload(0x40)\n      shl(0xe5, 0x461bcd)\n      dup2\n      mstore\n      0x04\n      add\n      tag_200\n      swap1\n      tag_239\n      jump\t// in\n    tag_237:\n        /* \"contracts/mirrorseaMain.sol\":6193:6199  minVal */\n      sload(0x74)\n        /* \"contracts/mirrorseaMain.sol\":6162:6190  _price18.mul(_amt).div(1e18) */\n      tag_240\n        /* \"contracts/mirrorseaMain.sol\":6185:6189  1e18 */\n      0x0de0b6b3a7640000\n        /* \"contracts/mirrorseaMain.sol\":6162:6180  _price18.mul(_amt) */\n      tag_241\n        /* \"contracts/mirrorseaMain.sol\":6162:6170  _price18 */\n      dup9\n        /* \"contracts/mirrorseaMain.sol\":6175:6179  _amt */\n      dup9\n        /* \"contracts/mirrorseaMain.sol\":6162:6174  _price18.mul */\n      tag_191\n        /* \"contracts/mirrorseaMain.sol\":6162:6180  _price18.mul(_amt) */\n      jump\t// in\n    tag_241:\n        /* \"contracts/mirrorseaMain.sol\":6162:6184  _price18.mul(_amt).div */\n      swap1\n      tag_242\n        /* \"contracts/mirrorseaMain.sol\":6162:6190  _price18.mul(_amt).div(1e18) */\n      jump\t// in\n    tag_240:\n        /* \"contracts/mirrorseaMain.sol\":6162:6199  _price18.mul(_amt).div(1e18) > minVal */\n      gt\n        /* \"contracts/mirrorseaMain.sol\":6141:6260  require(... */\n      tag_243\n      jumpi\n      mload(0x40)\n      shl(0xe5, 0x461bcd)\n      dup2\n      mstore\n      0x04\n      add\n      tag_200\n      swap1\n      tag_245\n      jump\t// in\n    tag_243:\n        /* \"contracts/mirrorseaMain.sol\":6271:6394  usc.safeTransferFrom(... */\n      tag_246\n        /* \"contracts/mirrorseaMain.sol\":6305:6315  msg.sender */\n      caller\n        /* \"contracts/mirrorseaMain.sol\":6337:6341  this */\n      address\n        /* \"contracts/mirrorseaMain.sol\":6356:6384  _price18.mul(_amt).div(1e18) */\n      tag_247\n        /* \"contracts/mirrorseaMain.sol\":6379:6383  1e18 */\n      0x0de0b6b3a7640000\n        /* \"contracts/mirrorseaMain.sol\":6356:6374  _price18.mul(_amt) */\n      tag_241\n        /* \"contracts/mirrorseaMain.sol\":6356:6364  _price18 */\n      dup11\n        /* \"contracts/mirrorseaMain.sol\":6369:6373  _amt */\n      dup11\n        /* \"contracts/mirrorseaMain.sol\":6356:6368  _price18.mul */\n      tag_191\n        /* \"contracts/mirrorseaMain.sol\":6356:6374  _price18.mul(_amt) */\n      jump\t// in\n        /* \"contracts/mirrorseaMain.sol\":6356:6384  _price18.mul(_amt).div(1e18) */\n    tag_247:\n        /* \"contracts/mirrorseaMain.sol\":6271:6274  usc */\n      and(sub(shl(0xa0, 0x01), 0x01), sload(0x67))\n      swap3\n        /* \"contracts/mirrorseaMain.sol\":6271:6394  usc.safeTransferFrom(... */\n      swap2\n      swap1\n        /* \"contracts/mirrorseaMain.sol\":6271:6291  usc.safeTransferFrom */\n      tag_249\n        /* \"contracts/mirrorseaMain.sol\":6271:6394  usc.safeTransferFrom(... */\n      jump\t// in\n    tag_246:\n        /* \"contracts/mirrorseaMain.sol\":6427:6430  usc */\n      sload(0x67)\n        /* \"contracts/mirrorseaMain.sol\":6427:6455  usc.balanceOf(address(this)) */\n      mload(0x40)\n      shl(0xe0, 0x70a08231)\n      dup2\n      mstore\n        /* \"contracts/mirrorseaMain.sol\":6404:6424  uint256 uscBalanceOf */\n      0x00\n      swap2\n      sub(shl(0xa0, 0x01), 0x01)\n        /* \"contracts/mirrorseaMain.sol\":6427:6430  usc */\n      and\n      swap1\n        /* \"contracts/mirrorseaMain.sol\":6427:6440  usc.balanceOf */\n      0x70a08231\n      swap1\n        /* \"contracts/mirrorseaMain.sol\":6427:6455  usc.balanceOf(address(this)) */\n      tag_250\n      swap1\n        /* \"contracts/mirrorseaMain.sol\":6449:6453  this */\n      address\n      swap1\n        /* \"contracts/mirrorseaMain.sol\":6427:6455  usc.balanceOf(address(this)) */\n      0x04\n      add\n      tag_67\n      jump\t// in\n    tag_250:\n      0x20\n      mload(0x40)\n      dup1\n      dup4\n      sub\n      dup2\n      dup7\n      dup1\n      extcodesize\n      iszero\n      dup1\n      iszero\n      tag_251\n      jumpi\n      0x00\n      dup1\n      revert\n    tag_251:\n      pop\n      gas\n      staticcall\n      iszero\n      dup1\n      iszero\n      tag_253\n      jumpi\n      returndatasize\n      0x00\n      dup1\n      returndatacopy\n      revert(0x00, returndatasize)\n    tag_253:\n      pop\n      pop\n      pop\n      pop\n      mload(0x40)\n      returndatasize\n      not(0x1f)\n      0x1f\n      dup3\n      add\n      and\n      dup3\n      add\n      dup1\n      0x40\n      mstore\n      pop\n      dup2\n      add\n      swap1\n      tag_254\n      swap2\n      swap1\n      tag_255\n      jump\t// in\n    tag_254:\n        /* \"contracts/mirrorseaMain.sol\":6404:6455  uint256 uscBalanceOf = usc.balanceOf(address(this)) */\n      swap1\n      pop\n        /* \"contracts/mirrorseaMain.sol\":6465:6476  uint256 fee */\n      0x00\n        /* \"contracts/mirrorseaMain.sol\":6479:6522  uscBalanceOf.mul(feePercent).div(PRECISION) */\n      tag_256\n        /* \"contracts/mirrorseaMain.sol\":6512:6521  PRECISION */\n      sload(0x73)\n        /* \"contracts/mirrorseaMain.sol\":6479:6507  uscBalanceOf.mul(feePercent) */\n      tag_241\n        /* \"contracts/mirrorseaMain.sol\":6496:6506  feePercent */\n      sload(0x72)\n        /* \"contracts/mirrorseaMain.sol\":6479:6491  uscBalanceOf */\n      dup6\n        /* \"contracts/mirrorseaMain.sol\":6479:6495  uscBalanceOf.mul */\n      tag_191\n      swap1\n        /* \"contracts/mirrorseaMain.sol\":6479:6507  uscBalanceOf.mul(feePercent) */\n      swap2\n      swap1\n      0xffffffff\n      and\n      jump\t// in\n        /* \"contracts/mirrorseaMain.sol\":6479:6522  uscBalanceOf.mul(feePercent).div(PRECISION) */\n    tag_256:\n        /* \"contracts/mirrorseaMain.sol\":6557:6568  helperLogic */\n      sload(0x68)\n        /* \"contracts/mirrorseaMain.sol\":6532:6535  usc */\n      sload(0x67)\n        /* \"contracts/mirrorseaMain.sol\":6465:6522  uint256 fee = uscBalanceOf.mul(feePercent).div(PRECISION) */\n      swap2\n      swap3\n      pop\n        /* \"contracts/mirrorseaMain.sol\":6532:6575  usc.safeTransfer(address(helperLogic), fee) */\n      tag_258\n      swap2\n      sub(shl(0xa0, 0x01), 0x01)\n        /* \"contracts/mirrorseaMain.sol\":6532:6535  usc */\n      swap1\n      dup2\n      and\n      swap2\n        /* \"contracts/mirrorseaMain.sol\":6557:6568  helperLogic */\n      and\n        /* \"contracts/mirrorseaMain.sol\":6465:6522  uint256 fee = uscBalanceOf.mul(feePercent).div(PRECISION) */\n      dup4\n        /* \"contracts/mirrorseaMain.sol\":6532:6548  usc.safeTransfer */\n      tag_259\n        /* \"contracts/mirrorseaMain.sol\":6532:6575  usc.safeTransfer(address(helperLogic), fee) */\n      jump\t// in\n    tag_258:\n        /* \"contracts/mirrorseaMain.sol\":6585:6596  helperLogic */\n      0x68\n      0x00\n      swap1\n      sload\n      swap1\n      0x0100\n      exp\n      swap1\n      div\n      sub(shl(0xa0, 0x01), 0x01)\n      and\n      sub(shl(0xa0, 0x01), 0x01)\n        /* \"contracts/mirrorseaMain.sol\":6585:6611  helperLogic.jointExecution */\n      and\n      0xd10c06a2\n        /* \"contracts/mirrorseaMain.sol\":6585:6613  helperLogic.jointExecution() */\n      mload(0x40)\n      dup2\n      0xffffffff\n      and\n      0xe0\n      shl\n      dup2\n      mstore\n      0x04\n      add\n      0x20\n      mload(0x40)\n      dup1\n      dup4\n      sub\n      dup2\n      0x00\n      dup8\n      dup1\n      extcodesize\n      iszero\n      dup1\n      iszero\n      tag_260\n      jumpi\n      0x00\n      dup1\n      revert\n    tag_260:\n      pop\n      gas\n      call\n      iszero\n      dup1\n      iszero\n      tag_262\n      jumpi\n      returndatasize\n      0x00\n      dup1\n      returndatacopy\n      revert(0x00, returndatasize)\n    tag_262:\n      pop\n      pop\n      pop\n      pop\n      mload(0x40)\n      returndatasize\n      not(0x1f)\n      0x1f\n      dup3\n      add\n      and\n      dup3\n      add\n      dup1\n      0x40\n      mstore\n      pop\n      dup2\n      add\n      swap1\n      tag_263\n      swap2\n      swap1\n      tag_236\n      jump\t// in\n    tag_263:\n      pop\n        /* \"contracts/mirrorseaMain.sol\":6636:6639  usc */\n      and(sub(shl(0xa0, 0x01), 0x01), sload(0x67))\n        /* \"contracts/mirrorseaMain.sol\":6623:6646  IUSC(address(usc)).burn */\n      0x42966c68\n        /* \"contracts/mirrorseaMain.sol\":6647:6668  uscBalanceOf.sub(fee) */\n      tag_264\n        /* \"contracts/mirrorseaMain.sol\":6647:6659  uscBalanceOf */\n      dup5\n        /* \"contracts/mirrorseaMain.sol\":6664:6667  fee */\n      dup5\n        /* \"contracts/mirrorseaMain.sol\":6647:6663  uscBalanceOf.sub */\n      tag_192\n        /* \"contracts/mirrorseaMain.sol\":6647:6668  uscBalanceOf.sub(fee) */\n      jump\t// in\n    tag_264:\n        /* \"contracts/mirrorseaMain.sol\":6623:6669  IUSC(address(usc)).burn(uscBalanceOf.sub(fee)) */\n      mload(0x40)\n      dup3\n      0xffffffff\n      and\n      0xe0\n      shl\n      dup2\n      mstore\n      0x04\n      add\n      tag_265\n      swap2\n      swap1\n      tag_53\n      jump\t// in\n    tag_265:\n      0x00\n      mload(0x40)\n      dup1\n      dup4\n      sub\n      dup2\n      0x00\n      dup8\n      dup1\n      extcodesize\n      iszero\n      dup1\n      iszero\n      tag_266\n      jumpi\n      0x00\n      dup1\n      revert\n    tag_266:\n      pop\n      gas\n      call\n      iszero\n      dup1\n      iszero\n      tag_268\n      jumpi\n      returndatasize\n      0x00\n      dup1\n      returndatacopy\n      revert(0x00, returndatasize)\n    tag_268:\n      pop\n      pop\n        /* \"contracts/mirrorseaMain.sol\":6701:6711  OrderIndex */\n      sload(0x6b)\n        /* \"contracts/mirrorseaMain.sol\":6680:6695  openOrderIdList */\n      0x6c\n        /* \"contracts/mirrorseaMain.sol\":6680:6712  openOrderIdList.push(OrderIndex) */\n      dup1\n      sload\n      0x01\n      dup2\n      dup2\n      add\n      dup4\n      sstore\n      0x00\n      dup4\n      swap1\n      mstore\n      0x2b4a51ab505fc96a0952efda2ba61bcd3078d4c02c39a186ec16f21883fbe016\n      swap1\n      swap2\n      add\n      swap3\n      swap1\n      swap3\n      sstore\n        /* \"contracts/mirrorseaMain.sol\":6758:6780  openOrderIdList.length */\n      sload\n        /* \"contracts/mirrorseaMain.sol\":6758:6787  openOrderIdList.length.sub(1) */\n      tag_270\n      swap4\n      pop\n        /* \"contracts/mirrorseaMain.sol\":6758:6780  openOrderIdList.length */\n      swap2\n      pop\n        /* \"contracts/mirrorseaMain.sol\":6758:6784  openOrderIdList.length.sub */\n      tag_192\n        /* \"contracts/mirrorseaMain.sol\":6758:6787  openOrderIdList.length.sub(1) */\n      jump\t// in\n    tag_270:\n        /* \"contracts/mirrorseaMain.sol\":6744:6754  OrderIndex */\n      0x6b\n      dup1\n      sload\n        /* \"contracts/mirrorseaMain.sol\":6722:6755  openOrderIdList_index[OrderIndex] */\n      0x00\n      swap1\n      dup2\n      mstore\n        /* \"contracts/mirrorseaMain.sol\":6722:6743  openOrderIdList_index */\n      0x6d\n        /* \"contracts/mirrorseaMain.sol\":6722:6755  openOrderIdList_index[OrderIndex] */\n      0x20\n      swap1\n      dup2\n      mstore\n      0x40\n      dup1\n      dup4\n      keccak256\n        /* \"contracts/mirrorseaMain.sol\":6722:6787  openOrderIdList_index[OrderIndex] = openOrderIdList.length.sub(1) */\n      swap5\n      swap1\n      swap5\n      sstore\n        /* \"contracts/mirrorseaMain.sol\":6816:6826  msg.sender */\n      caller\n        /* \"contracts/mirrorseaMain.sol\":6798:6827  myOpenOrderIdList[msg.sender] */\n      dup1\n      dup4\n      mstore\n        /* \"contracts/mirrorseaMain.sol\":6798:6815  myOpenOrderIdList */\n      0x6e\n        /* \"contracts/mirrorseaMain.sol\":6798:6827  myOpenOrderIdList[msg.sender] */\n      dup1\n      dup4\n      mstore\n      dup6\n      dup5\n      keccak256\n        /* \"contracts/mirrorseaMain.sol\":6833:6843  OrderIndex */\n      dup6\n      sload\n        /* \"contracts/mirrorseaMain.sol\":6798:6844  myOpenOrderIdList[msg.sender].push(OrderIndex) */\n      dup2\n      sload\n      0x01\n      dup2\n      dup2\n      add\n      dup5\n      sstore\n      dup4\n      dup9\n      mstore\n      dup7\n      dup9\n      keccak256\n      swap1\n      swap2\n      add\n      swap2\n      swap1\n      swap2\n      sstore\n        /* \"contracts/mirrorseaMain.sol\":6959:6969  OrderIndex */\n      swap6\n      sload\n        /* \"contracts/mirrorseaMain.sol\":6854:6889  myOpenOrderIdList_index[msg.sender] */\n      swap3\n      dup6\n      mstore\n        /* \"contracts/mirrorseaMain.sol\":6854:6877  myOpenOrderIdList_index */\n      0x6f\n        /* \"contracts/mirrorseaMain.sol\":6854:6889  myOpenOrderIdList_index[msg.sender] */\n      dup5\n      mstore\n      swap6\n      dup5\n      keccak256\n        /* \"contracts/mirrorseaMain.sol\":6903:6932  myOpenOrderIdList[msg.sender] */\n      swap3\n      mstore\n        /* \"contracts/mirrorseaMain.sol\":6903:6939  myOpenOrderIdList[msg.sender].length */\n      swap4\n      sload\n        /* \"contracts/mirrorseaMain.sol\":6854:6889  myOpenOrderIdList_index[msg.sender] */\n      swap1\n      swap3\n        /* \"contracts/mirrorseaMain.sol\":6903:6946  myOpenOrderIdList[msg.sender].length.sub(1) */\n      tag_272\n      swap2\n        /* \"contracts/mirrorseaMain.sol\":6903:6939  myOpenOrderIdList[msg.sender].length */\n      swap1\n        /* \"contracts/mirrorseaMain.sol\":6903:6943  myOpenOrderIdList[msg.sender].length.sub */\n      tag_192\n        /* \"contracts/mirrorseaMain.sol\":6903:6946  myOpenOrderIdList[msg.sender].length.sub(1) */\n      jump\t// in\n    tag_272:\n        /* \"contracts/mirrorseaMain.sol\":6854:6956  myOpenOrderIdList_index[msg.sender][... */\n      dup2\n      mstore\n      0x20\n      add\n      swap1\n      dup2\n      mstore\n      0x20\n      add\n      0x00\n      keccak256\n        /* \"contracts/mirrorseaMain.sol\":6854:6969  myOpenOrderIdList_index[msg.sender][... */\n      dup2\n      swap1\n      sstore\n      pop\n        /* \"contracts/mirrorseaMain.sol\":6980:6990  OrderIndex */\n      0x6b\n      0x00\n        /* \"contracts/mirrorseaMain.sol\":6980:6992  OrderIndex++ */\n      dup2\n      sload\n      dup1\n      swap3\n      swap2\n      swap1\n      tag_273\n      swap1\n      tag_213\n      jump\t// in\n    tag_273:\n      swap1\n      swap2\n      sstore\n      pop\n      pop\n        /* \"contracts/mirrorseaMain.sol\":7003:7026  order.user = msg.sender */\n      dup3\n      sload\n      not(sub(shl(0xa0, 0x01), 0x01))\n      and\n        /* \"contracts/mirrorseaMain.sol\":7016:7026  msg.sender */\n      caller\n        /* \"contracts/mirrorseaMain.sol\":7003:7026  order.user = msg.sender */\n      or\n      dup4\n      sstore\n      0x01\n        /* \"contracts/mirrorseaMain.sol\":7036:7047  order._type */\n      dup4\n      add\n        /* \"contracts/mirrorseaMain.sol\":7036:7055  order._type = _type */\n      dup10\n      swap1\n      sstore\n        /* \"contracts/mirrorseaMain.sol\":7065:7089  order.symbols = _symbols */\n      dup8\n      mload\n      tag_274\n      swap1\n        /* \"contracts/mirrorseaMain.sol\":7065:7078  order.symbols */\n      0x02\n      dup6\n      add\n      swap1\n        /* \"contracts/mirrorseaMain.sol\":7065:7089  order.symbols = _symbols */\n      0x20\n      dup12\n      add\n      swap1\n      tag_275\n      jump\t// in\n    tag_274:\n      pop\n        /* \"contracts/mirrorseaMain.sol\":7113:7114  1 */\n      0x01\n        /* \"contracts/mirrorseaMain.sol\":7099:7110  order.state */\n      0x03\n      dup5\n      add\n        /* \"contracts/mirrorseaMain.sol\":7099:7114  order.state = 1 */\n      sstore\n        /* \"contracts/mirrorseaMain.sol\":7200:7215  order.direction */\n      0x04\n      dup4\n      add\n        /* \"contracts/mirrorseaMain.sol\":7200:7228  order.direction = _direction */\n      dup11\n      swap1\n      sstore\n        /* \"contracts/mirrorseaMain.sol\":7255:7272  order.openPrice18 */\n      0x05\n      dup4\n      add\n        /* \"contracts/mirrorseaMain.sol\":7255:7283  order.openPrice18 = _price18 */\n      dup8\n      swap1\n      sstore\n        /* \"contracts/mirrorseaMain.sol\":7293:7307  order.openTime */\n      0x06\n      dup4\n      add\n        /* \"contracts/mirrorseaMain.sol\":7293:7320  order.openTime = _timestamp */\n      dup12\n      swap1\n      sstore\n        /* \"contracts/mirrorseaMain.sol\":7330:7339  order.amt */\n      0x09\n      dup4\n      add\n        /* \"contracts/mirrorseaMain.sol\":7330:7346  order.amt = _amt */\n      dup7\n      swap1\n      sstore\n        /* \"contracts/mirrorseaMain.sol\":7371:7392  uscBalanceOf.sub(fee) */\n      tag_276\n        /* \"contracts/mirrorseaMain.sol\":7371:7383  uscBalanceOf */\n      dup3\n        /* \"contracts/mirrorseaMain.sol\":7388:7391  fee */\n      dup3\n        /* \"contracts/mirrorseaMain.sol\":7371:7387  uscBalanceOf.sub */\n      tag_192\n        /* \"contracts/mirrorseaMain.sol\":7371:7392  uscBalanceOf.sub(fee) */\n      jump\t// in\n    tag_276:\n        /* \"contracts/mirrorseaMain.sol\":7356:7368  order.margin */\n      0x0a\n      swap1\n      swap4\n      add\n        /* \"contracts/mirrorseaMain.sol\":7356:7392  order.margin = uscBalanceOf.sub(fee) */\n      swap3\n      swap1\n      swap3\n      sstore\n      pop\n        /* \"contracts/mirrorseaMain.sol\":7410:7414  true */\n      0x01\n      swap11\n        /* \"contracts/mirrorseaMain.sol\":5522:7421  function openPosition(... */\n      swap10\n      pop\n      pop\n      pop\n      pop\n      pop\n      pop\n      pop\n      pop\n      pop\n      pop\n      jump\t// out\n        /* \"contracts/mirrorseaMain.sol\":1162:1190  IERC20Upgradeable public usc */\n    tag_74:\n      and(sub(shl(0xa0, 0x01), 0x01), sload(0x67))\n      dup2\n      jump\t// out\n        /* \"contracts/mirrorseaMain.sol\":1385:1441  mapping(uint256 => uint256) public openOrderIdList_index */\n    tag_79:\n      mstore(0x20, 0x6d)\n      0x00\n      swap1\n      dup2\n      mstore\n      0x40\n      swap1\n      keccak256\n      sload\n      dup2\n      jump\t// out\n        /* \"contracts/mirrorseaMain.sol\":1089:1129  mapping(address => bool) public executor */\n    tag_84:\n      mstore(0x20, 0x65)\n      0x00\n      swap1\n      dup2\n      mstore\n      0x40\n      swap1\n      keccak256\n      sload\n      0xff\n      and\n      dup2\n      jump\t// out\n        /* \"contracts/mirrorseaMain.sol\":12170:13021  function liquidation(... */\n    tag_89:\n        /* \"contracts/mirrorseaMain.sol\":3233:3243  msg.sender */\n      caller\n        /* \"contracts/mirrorseaMain.sol\":12426:12430  bool */\n      0x00\n        /* \"contracts/mirrorseaMain.sol\":3224:3244  executor[msg.sender] */\n      swap1\n      dup2\n      mstore\n        /* \"contracts/mirrorseaMain.sol\":3224:3232  executor */\n      0x65\n        /* \"contracts/mirrorseaMain.sol\":3224:3244  executor[msg.sender] */\n      0x20\n      mstore\n      0x40\n      dup2\n      keccak256\n      sload\n      0xff\n      and\n        /* \"contracts/mirrorseaMain.sol\":3216:3285  require(executor[msg.sender], \"executor: caller is not the executor\") */\n      tag_278\n      jumpi\n      mload(0x40)\n      shl(0xe5, 0x461bcd)\n      dup2\n      mstore\n      0x04\n      add\n      tag_200\n      swap1\n      tag_280\n      jump\t// in\n    tag_278:\n        /* \"contracts/mirrorseaMain.sol\":12447:12456  uint256 i */\n      0x00\n        /* \"contracts/mirrorseaMain.sol\":12442:12993  for (uint256 i = 0; i < _id.length; i++) {... */\n    tag_282:\n        /* \"contracts/mirrorseaMain.sol\":12466:12469  _id */\n      dup7\n        /* \"contracts/mirrorseaMain.sol\":12466:12476  _id.length */\n      mload\n        /* \"contracts/mirrorseaMain.sol\":12462:12463  i */\n      dup2\n        /* \"contracts/mirrorseaMain.sol\":12462:12476  i < _id.length */\n      lt\n        /* \"contracts/mirrorseaMain.sol\":12442:12993  for (uint256 i = 0; i < _id.length; i++) {... */\n      iszero\n      tag_283\n      jumpi\n        /* \"contracts/mirrorseaMain.sol\":12497:12520  OrderInfo storage order */\n      0x00\n        /* \"contracts/mirrorseaMain.sol\":12523:12533  _orderInfo */\n      0x6a\n        /* \"contracts/mirrorseaMain.sol\":12523:12541  _orderInfo[_id[i]] */\n      0x00\n        /* \"contracts/mirrorseaMain.sol\":12534:12537  _id */\n      dup10\n        /* \"contracts/mirrorseaMain.sol\":12538:12539  i */\n      dup5\n        /* \"contracts/mirrorseaMain.sol\":12534:12540  _id[i] */\n      dup2\n      mload\n      dup2\n      lt\n      tag_285\n      jumpi\n      mstore(0x00, shl(0xe0, 0x4e487b71))\n      mstore(0x04, 0x32)\n      revert(0x00, 0x24)\n    tag_285:\n      0x20\n      mul\n      0x20\n      add\n      add\n      mload\n        /* \"contracts/mirrorseaMain.sol\":12523:12541  _orderInfo[_id[i]] */\n      dup2\n      mstore\n      0x20\n      add\n      swap1\n      dup2\n      mstore\n      0x20\n      add\n      0x00\n      keccak256\n        /* \"contracts/mirrorseaMain.sol\":12497:12541  OrderInfo storage order = _orderInfo[_id[i]] */\n      swap1\n      pop\n        /* \"contracts/mirrorseaMain.sol\":12560:12605  _isSolvent(_id[i], _price18[i], order.margin) */\n      tag_286\n        /* \"contracts/mirrorseaMain.sol\":12571:12574  _id */\n      dup9\n        /* \"contracts/mirrorseaMain.sol\":12575:12576  i */\n      dup4\n        /* \"contracts/mirrorseaMain.sol\":12571:12577  _id[i] */\n      dup2\n      mload\n      dup2\n      lt\n      tag_287\n      jumpi\n      mstore(0x00, shl(0xe0, 0x4e487b71))\n      mstore(0x04, 0x32)\n      revert(0x00, 0x24)\n    tag_287:\n      0x20\n      mul\n      0x20\n      add\n      add\n      mload\n        /* \"contracts/mirrorseaMain.sol\":12579:12587  _price18 */\n      dup7\n        /* \"contracts/mirrorseaMain.sol\":12588:12589  i */\n      dup5\n        /* \"contracts/mirrorseaMain.sol\":12579:12590  _price18[i] */\n      dup2\n      mload\n      dup2\n      lt\n      tag_288\n      jumpi\n      mstore(0x00, shl(0xe0, 0x4e487b71))\n      mstore(0x04, 0x32)\n      revert(0x00, 0x24)\n    tag_288:\n      0x20\n      mul\n      0x20\n      add\n      add\n      mload\n        /* \"contracts/mirrorseaMain.sol\":12592:12597  order */\n      dup4\n        /* \"contracts/mirrorseaMain.sol\":12592:12604  order.margin */\n      0x0a\n      add\n      sload\n        /* \"contracts/mirrorseaMain.sol\":12560:12570  _isSolvent */\n      tag_289\n        /* \"contracts/mirrorseaMain.sol\":12560:12605  _isSolvent(_id[i], _price18[i], order.margin) */\n      jump\t// in\n    tag_286:\n        /* \"contracts/mirrorseaMain.sol\":12555:12983  if (!_isSolvent(_id[i], _price18[i], order.margin)) {... */\n      tag_290\n      jumpi\n        /* \"contracts/mirrorseaMain.sol\":12652:12968  _closePosition(... */\n      tag_291\n        /* \"contracts/mirrorseaMain.sol\":12692:12704  _marketState */\n      dup10\n        /* \"contracts/mirrorseaMain.sol\":12730:12735  order */\n      dup3\n        /* \"contracts/mirrorseaMain.sol\":12761:12762  3 */\n      0x03\n        /* \"contracts/mirrorseaMain.sol\":12788:12791  _id */\n      dup12\n        /* \"contracts/mirrorseaMain.sol\":12792:12793  i */\n      dup7\n        /* \"contracts/mirrorseaMain.sol\":12788:12794  _id[i] */\n      dup2\n      mload\n      dup2\n      lt\n      tag_292\n      jumpi\n      mstore(0x00, shl(0xe0, 0x4e487b71))\n      mstore(0x04, 0x32)\n      revert(0x00, 0x24)\n    tag_292:\n      0x20\n      mul\n      0x20\n      add\n      add\n      mload\n        /* \"contracts/mirrorseaMain.sol\":12820:12830  _timestamp */\n      dup12\n        /* \"contracts/mirrorseaMain.sol\":12831:12832  i */\n      dup8\n        /* \"contracts/mirrorseaMain.sol\":12820:12833  _timestamp[i] */\n      dup2\n      mload\n      dup2\n      lt\n      tag_293\n      jumpi\n      mstore(0x00, shl(0xe0, 0x4e487b71))\n      mstore(0x04, 0x32)\n      revert(0x00, 0x24)\n    tag_293:\n      0x20\n      mul\n      0x20\n      add\n      add\n      mload\n        /* \"contracts/mirrorseaMain.sol\":12859:12867  _symbols */\n      dup12\n        /* \"contracts/mirrorseaMain.sol\":12868:12869  i */\n      dup9\n        /* \"contracts/mirrorseaMain.sol\":12859:12870  _symbols[i] */\n      dup2\n      mload\n      dup2\n      lt\n      tag_294\n      jumpi\n      mstore(0x00, shl(0xe0, 0x4e487b71))\n      mstore(0x04, 0x32)\n      revert(0x00, 0x24)\n    tag_294:\n      0x20\n      mul\n      0x20\n      add\n      add\n      mload\n        /* \"contracts/mirrorseaMain.sol\":12896:12904  _price18 */\n      dup12\n        /* \"contracts/mirrorseaMain.sol\":12905:12906  i */\n      dup10\n        /* \"contracts/mirrorseaMain.sol\":12896:12907  _price18[i] */\n      dup2\n      mload\n      dup2\n      lt\n      tag_295\n      jumpi\n      mstore(0x00, shl(0xe0, 0x4e487b71))\n      mstore(0x04, 0x32)\n      revert(0x00, 0x24)\n    tag_295:\n      0x20\n      mul\n      0x20\n      add\n      add\n      mload\n        /* \"contracts/mirrorseaMain.sol\":12933:12943  _signature */\n      dup12\n        /* \"contracts/mirrorseaMain.sol\":12944:12945  i */\n      dup11\n        /* \"contracts/mirrorseaMain.sol\":12933:12946  _signature[i] */\n      dup2\n      mload\n      dup2\n      lt\n      tag_296\n      jumpi\n      mstore(0x00, shl(0xe0, 0x4e487b71))\n      mstore(0x04, 0x32)\n      revert(0x00, 0x24)\n    tag_296:\n      0x20\n      mul\n      0x20\n      add\n      add\n      mload\n        /* \"contracts/mirrorseaMain.sol\":12652:12666  _closePosition */\n      tag_297\n        /* \"contracts/mirrorseaMain.sol\":12652:12968  _closePosition(... */\n      jump\t// in\n    tag_291:\n        /* \"contracts/mirrorseaMain.sol\":12625:12968  return... */\n      swap3\n      pop\n      pop\n      pop\n      jump(tag_281)\n        /* \"contracts/mirrorseaMain.sol\":12555:12983  if (!_isSolvent(_id[i], _price18[i], order.margin)) {... */\n    tag_290:\n      pop\n        /* \"contracts/mirrorseaMain.sol\":12478:12481  i++ */\n      dup1\n      tag_298\n      dup2\n      tag_213\n      jump\t// in\n    tag_298:\n      swap2\n      pop\n      pop\n        /* \"contracts/mirrorseaMain.sol\":12442:12993  for (uint256 i = 0; i < _id.length; i++) {... */\n      jump(tag_282)\n    tag_283:\n      pop\n        /* \"contracts/mirrorseaMain.sol\":13010:13014  true */\n      0x01\n        /* \"contracts/mirrorseaMain.sol\":13003:13014  return true */\n      swap1\n      pop\n        /* \"contracts/mirrorseaMain.sol\":3295:3296  _ */\n    tag_281:\n        /* \"contracts/mirrorseaMain.sol\":12170:13021  function liquidation(... */\n      swap7\n      swap6\n      pop\n      pop\n      pop\n      pop\n      pop\n      pop\n      jump\t// out\n        /* \"contracts/mirrorseaMain.sol\":3603:3715  function orderInfo(uint256 _id) external view returns (OrderInfo memory) {... */\n    tag_93:\n        /* \"contracts/mirrorseaMain.sol\":3658:3674  OrderInfo memory */\n      tag_299\n      tag_300\n      jump\t// in\n    tag_299:\n        /* \"contracts/mirrorseaMain.sol\":3693:3708  _orderInfo[_id] */\n      0x00\n      dup3\n      dup2\n      mstore\n        /* \"contracts/mirrorseaMain.sol\":3693:3703  _orderInfo */\n      0x6a\n        /* \"contracts/mirrorseaMain.sol\":3693:3708  _orderInfo[_id] */\n      0x20\n      swap1\n      dup2\n      mstore\n      0x40\n      swap2\n      dup3\n      swap1\n      keccak256\n        /* \"contracts/mirrorseaMain.sol\":3686:3708  return _orderInfo[_id] */\n      dup3\n      mload\n      0x0160\n      dup2\n      add\n      dup5\n      mstore\n      dup2\n      sload\n      sub(shl(0xa0, 0x01), 0x01)\n      and\n      dup2\n      mstore\n      0x01\n      dup3\n      add\n      sload\n      swap3\n      dup2\n      add\n      swap3\n      swap1\n      swap3\n      mstore\n      0x02\n      dup2\n      add\n      dup1\n      sload\n      swap3\n      swap4\n        /* \"contracts/mirrorseaMain.sol\":3693:3708  _orderInfo[_id] */\n      swap2\n      swap3\n        /* \"contracts/mirrorseaMain.sol\":3686:3708  return _orderInfo[_id] */\n      swap2\n      dup5\n      add\n      swap2\n      tag_302\n      swap1\n      tag_303\n      jump\t// in\n    tag_302:\n      dup1\n      0x1f\n      add\n      0x20\n      dup1\n      swap2\n      div\n      mul\n      0x20\n      add\n      mload(0x40)\n      swap1\n      dup2\n      add\n      0x40\n      mstore\n      dup1\n      swap3\n      swap2\n      swap1\n      dup2\n      dup2\n      mstore\n      0x20\n      add\n      dup3\n      dup1\n      sload\n      tag_304\n      swap1\n      tag_303\n      jump\t// in\n    tag_304:\n      dup1\n      iszero\n      tag_305\n      jumpi\n      dup1\n      0x1f\n      lt\n      tag_306\n      jumpi\n      0x0100\n      dup1\n      dup4\n      sload\n      div\n      mul\n      dup4\n      mstore\n      swap2\n      0x20\n      add\n      swap2\n      jump(tag_305)\n    tag_306:\n      dup3\n      add\n      swap2\n      swap1\n      0x00\n      mstore\n      keccak256(0x00, 0x20)\n      swap1\n    tag_307:\n      dup2\n      sload\n      dup2\n      mstore\n      swap1\n      0x01\n      add\n      swap1\n      0x20\n      add\n      dup1\n      dup4\n      gt\n      tag_307\n      jumpi\n      dup3\n      swap1\n      sub\n      0x1f\n      and\n      dup3\n      add\n      swap2\n    tag_305:\n      pop\n      pop\n      pop\n      pop\n      pop\n      dup2\n      mstore\n      0x20\n      add\n      0x03\n      dup3\n      add\n      sload\n      dup2\n      mstore\n      0x20\n      add\n      0x04\n      dup3\n      add\n      sload\n      dup2\n      mstore\n      0x20\n      add\n      0x05\n      dup3\n      add\n      sload\n      dup2\n      mstore\n      0x20\n      add\n      0x06\n      dup3\n      add\n      sload\n      dup2\n      mstore\n      0x20\n      add\n      0x07\n      dup3\n      add\n      sload\n      dup2\n      mstore\n      0x20\n      add\n      0x08\n      dup3\n      add\n      sload\n      dup2\n      mstore\n      0x20\n      add\n      0x09\n      dup3\n      add\n      sload\n      dup2\n      mstore\n      0x20\n      add\n      0x0a\n      dup3\n      add\n      sload\n      dup2\n      mstore\n      pop\n      pop\n      swap1\n      pop\n        /* \"contracts/mirrorseaMain.sol\":3603:3715  function orderInfo(uint256 _id) external view returns (OrderInfo memory) {... */\n    tag_301:\n      swap2\n      swap1\n      pop\n      jump\t// out\n        /* \"contracts/mirrorseaMain.sol\":3471:3597  function setSigner(address _address) external onlyOwner returns (bool) {... */\n    tag_98:\n        /* \"contracts/mirrorseaMain.sol\":3536:3540  bool */\n      0x00\n        /* \"@openzeppelin/contracts-upgradeable/access/OwnableUpgradeable.sol\":1525:1537  _msgSender() */\n      tag_309\n        /* \"@openzeppelin/contracts-upgradeable/access/OwnableUpgradeable.sol\":1525:1535  _msgSender */\n      tag_220\n        /* \"@openzeppelin/contracts-upgradeable/access/OwnableUpgradeable.sol\":1525:1537  _msgSender() */\n      jump\t// in\n    tag_309:\n      sub(shl(0xa0, 0x01), 0x01)\n        /* \"@openzeppelin/contracts-upgradeable/access/OwnableUpgradeable.sol\":1514:1537  owner() == _msgSender() */\n      and\n        /* \"@openzeppelin/contracts-upgradeable/access/OwnableUpgradeable.sol\":1514:1521  owner() */\n      tag_310\n        /* \"@openzeppelin/contracts-upgradeable/access/OwnableUpgradeable.sol\":1514:1519  owner */\n      tag_124\n        /* \"@openzeppelin/contracts-upgradeable/access/OwnableUpgradeable.sol\":1514:1521  owner() */\n      jump\t// in\n    tag_310:\n      sub(shl(0xa0, 0x01), 0x01)\n        /* \"@openzeppelin/contracts-upgradeable/access/OwnableUpgradeable.sol\":1514:1537  owner() == _msgSender() */\n      and\n      eq\n        /* \"@openzeppelin/contracts-upgradeable/access/OwnableUpgradeable.sol\":1506:1574  require(owner() == _msgSender(), \"Ownable: caller is not the owner\") */\n      tag_311\n      jumpi\n      mload(0x40)\n      shl(0xe5, 0x461bcd)\n      dup2\n      mstore\n      0x04\n      add\n      tag_200\n      swap1\n      tag_224\n      jump\t// in\n    tag_311:\n      pop\n        /* \"contracts/mirrorseaMain.sol\":3552:3558  signer */\n      0x66\n        /* \"contracts/mirrorseaMain.sol\":3552:3569  signer = _address */\n      dup1\n      sload\n      sub(shl(0xa0, 0x01), 0x01)\n      dup4\n      and\n      not(sub(shl(0xa0, 0x01), 0x01))\n      swap1\n      swap2\n      and\n      or\n      swap1\n      sstore\n      0x01\n        /* \"contracts/mirrorseaMain.sol\":3471:3597  function setSigner(address _address) external onlyOwner returns (bool) {... */\n      swap2\n      swap1\n      pop\n      jump\t// out\n        /* \"contracts/mirrorseaMain.sol\":11186:11778  function closePosition(... */\n    tag_103:\n        /* \"contracts/mirrorseaMain.sol\":11400:11404  bool */\n      0x00\n        /* \"contracts/mirrorseaMain.sol\":11442:11457  _orderInfo[_id] */\n      dup6\n      dup2\n      mstore\n        /* \"contracts/mirrorseaMain.sol\":11442:11452  _orderInfo */\n      0x6a\n        /* \"contracts/mirrorseaMain.sol\":11442:11457  _orderInfo[_id] */\n      0x20\n      mstore\n      0x40\n      dup2\n      keccak256\n        /* \"contracts/mirrorseaMain.sol\":11475:11485  order.user */\n      dup1\n      sload\n      sub(shl(0xa0, 0x01), 0x01)\n      and\n        /* \"contracts/mirrorseaMain.sol\":11489:11499  msg.sender */\n      caller\n        /* \"contracts/mirrorseaMain.sol\":11475:11499  order.user == msg.sender */\n      eq\n        /* \"contracts/mirrorseaMain.sol\":11467:11512  require(order.user == msg.sender, \"user err\") */\n      tag_315\n      jumpi\n      mload(0x40)\n      shl(0xe5, 0x461bcd)\n      dup2\n      mstore\n      0x04\n      add\n      tag_200\n      swap1\n      tag_317\n      jump\t// in\n    tag_315:\n        /* \"contracts/mirrorseaMain.sol\":11542:11771  _closePosition(... */\n      tag_318\n        /* \"contracts/mirrorseaMain.sol\":11574:11586  _marketState */\n      dup9\n        /* \"contracts/mirrorseaMain.sol\":11604:11609  order */\n      dup3\n        /* \"contracts/mirrorseaMain.sol\":11627:11628  2 */\n      0x02\n        /* \"contracts/mirrorseaMain.sol\":11646:11649  _id */\n      dup11\n        /* \"contracts/mirrorseaMain.sol\":11667:11677  _timestamp */\n      dup11\n        /* \"contracts/mirrorseaMain.sol\":11695:11703  _symbols */\n      dup11\n        /* \"contracts/mirrorseaMain.sol\":11721:11729  _price18 */\n      dup11\n        /* \"contracts/mirrorseaMain.sol\":11747:11757  _signature */\n      dup11\n        /* \"contracts/mirrorseaMain.sol\":11542:11556  _closePosition */\n      tag_297\n        /* \"contracts/mirrorseaMain.sol\":11542:11771  _closePosition(... */\n      jump\t// in\n    tag_318:\n        /* \"contracts/mirrorseaMain.sol\":11523:11771  return... */\n      swap9\n        /* \"contracts/mirrorseaMain.sol\":11186:11778  function closePosition(... */\n      swap8\n      pop\n      pop\n      pop\n      pop\n      pop\n      pop\n      pop\n      pop\n      jump\t// out\n        /* \"@openzeppelin/contracts-upgradeable/access/OwnableUpgradeable.sol\":1934:2035  function renounceOwnership() public virtual onlyOwner {... */\n    tag_106:\n        /* \"@openzeppelin/contracts-upgradeable/access/OwnableUpgradeable.sol\":1525:1537  _msgSender() */\n      tag_320\n        /* \"@openzeppelin/contracts-upgradeable/access/OwnableUpgradeable.sol\":1525:1535  _msgSender */\n      tag_220\n        /* \"@openzeppelin/contracts-upgradeable/access/OwnableUpgradeable.sol\":1525:1537  _msgSender() */\n      jump\t// in\n    tag_320:\n      sub(shl(0xa0, 0x01), 0x01)\n        /* \"@openzeppelin/contracts-upgradeable/access/OwnableUpgradeable.sol\":1514:1537  owner() == _msgSender() */\n      and\n        /* \"@openzeppelin/contracts-upgradeable/access/OwnableUpgradeable.sol\":1514:1521  owner() */\n      tag_321\n        /* \"@openzeppelin/contracts-upgradeable/access/OwnableUpgradeable.sol\":1514:1519  owner */\n      tag_124\n        /* \"@openzeppelin/contracts-upgradeable/access/OwnableUpgradeable.sol\":1514:1521  owner() */\n      jump\t// in\n    tag_321:\n      sub(shl(0xa0, 0x01), 0x01)\n        /* \"@openzeppelin/contracts-upgradeable/access/OwnableUpgradeable.sol\":1514:1537  owner() == _msgSender() */\n      and\n      eq\n        /* \"@openzeppelin/contracts-upgradeable/access/OwnableUpgradeable.sol\":1506:1574  require(owner() == _msgSender(), \"Ownable: caller is not the owner\") */\n      tag_322\n      jumpi\n      mload(0x40)\n      shl(0xe5, 0x461bcd)\n      dup2\n      mstore\n      0x04\n      add\n      tag_200\n      swap1\n      tag_224\n      jump\t// in\n    tag_322:\n        /* \"@openzeppelin/contracts-upgradeable/access/OwnableUpgradeable.sol\":1998:2028  _transferOwnership(address(0)) */\n      tag_325\n        /* \"@openzeppelin/contracts-upgradeable/access/OwnableUpgradeable.sol\":2025:2026  0 */\n      0x00\n        /* \"@openzeppelin/contracts-upgradeable/access/OwnableUpgradeable.sol\":1998:2016  _transferOwnership */\n      tag_326\n        /* \"@openzeppelin/contracts-upgradeable/access/OwnableUpgradeable.sol\":1998:2028  _transferOwnership(address(0)) */\n      jump\t// in\n    tag_325:\n        /* \"@openzeppelin/contracts-upgradeable/access/OwnableUpgradeable.sol\":1934:2035  function renounceOwnership() public virtual onlyOwner {... */\n      jump\t// out\n        /* \"contracts/mirrorseaMain.sol\":1508:1594  mapping(address => mapping(uint256 => uint256))... */\n    tag_110:\n      0x6f\n      0x20\n      swap1\n      dup2\n      mstore\n      0x00\n      swap3\n      dup4\n      mstore\n      0x40\n      dup1\n      dup5\n      keccak256\n      swap1\n      swap2\n      mstore\n      swap1\n      dup3\n      mstore\n      swap1\n      keccak256\n      sload\n      dup2\n      jump\t// out\n        /* \"contracts/mirrorseaMain.sol\":3326:3452  function setFeePercent(uint256 _val) external onlyOwner returns (bool) {... */\n    tag_114:\n        /* \"contracts/mirrorseaMain.sol\":3391:3395  bool */\n      0x00\n        /* \"@openzeppelin/contracts-upgradeable/access/OwnableUpgradeable.sol\":1525:1537  _msgSender() */\n      tag_328\n        /* \"@openzeppelin/contracts-upgradeable/access/OwnableUpgradeable.sol\":1525:1535  _msgSender */\n      tag_220\n        /* \"@openzeppelin/contracts-upgradeable/access/OwnableUpgradeable.sol\":1525:1537  _msgSender() */\n      jump\t// in\n    tag_328:\n      sub(shl(0xa0, 0x01), 0x01)\n        /* \"@openzeppelin/contracts-upgradeable/access/OwnableUpgradeable.sol\":1514:1537  owner() == _msgSender() */\n      and\n        /* \"@openzeppelin/contracts-upgradeable/access/OwnableUpgradeable.sol\":1514:1521  owner() */\n      tag_329\n        /* \"@openzeppelin/contracts-upgradeable/access/OwnableUpgradeable.sol\":1514:1519  owner */\n      tag_124\n        /* \"@openzeppelin/contracts-upgradeable/access/OwnableUpgradeable.sol\":1514:1521  owner() */\n      jump\t// in\n    tag_329:\n      sub(shl(0xa0, 0x01), 0x01)\n        /* \"@openzeppelin/contracts-upgradeable/access/OwnableUpgradeable.sol\":1514:1537  owner() == _msgSender() */\n      and\n      eq\n        /* \"@openzeppelin/contracts-upgradeable/access/OwnableUpgradeable.sol\":1506:1574  require(owner() == _msgSender(), \"Ownable: caller is not the owner\") */\n      tag_330\n      jumpi\n      mload(0x40)\n      shl(0xe5, 0x461bcd)\n      dup2\n      mstore\n      0x04\n      add\n      tag_200\n      swap1\n      tag_224\n      jump\t// in\n    tag_330:\n      pop\n        /* \"contracts/mirrorseaMain.sol\":3407:3417  feePercent */\n      0x72\n        /* \"contracts/mirrorseaMain.sol\":3407:3424  feePercent = _val */\n      sstore\n        /* \"contracts/mirrorseaMain.sol\":3441:3445  true */\n      0x01\n      swap1\n        /* \"contracts/mirrorseaMain.sol\":3326:3452  function setFeePercent(uint256 _val) external onlyOwner returns (bool) {... */\n      jump\t// out\n        /* \"contracts/mirrorseaMain.sol\":1233:1254  IOracle public oracle */\n    tag_117:\n      and(sub(shl(0xa0, 0x01), 0x01), sload(0x69))\n      dup2\n      jump\t// out\n        /* \"contracts/mirrorseaMain.sol\":1756:1781  uint256 public feePercent */\n    tag_121:\n      sload(0x72)\n      dup2\n      jump\t// out\n        /* \"@openzeppelin/contracts-upgradeable/access/OwnableUpgradeable.sol\":1302:1387  function owner() public view virtual returns (address) {... */\n    tag_124:\n        /* \"@openzeppelin/contracts-upgradeable/access/OwnableUpgradeable.sol\":1374:1380  _owner */\n      and(sub(shl(0xa0, 0x01), 0x01), sload(0x33))\n        /* \"@openzeppelin/contracts-upgradeable/access/OwnableUpgradeable.sol\":1302:1387  function owner() public view virtual returns (address) {... */\n      swap1\n      jump\t// out\n        /* \"contracts/mirrorseaMain.sol\":13027:13580  function forcedLiquidation(... */\n    tag_128:\n        /* \"contracts/mirrorseaMain.sol\":3233:3243  msg.sender */\n      caller\n        /* \"contracts/mirrorseaMain.sol\":13258:13262  bool */\n      0x00\n        /* \"contracts/mirrorseaMain.sol\":3224:3244  executor[msg.sender] */\n      swap1\n      dup2\n      mstore\n        /* \"contracts/mirrorseaMain.sol\":3224:3232  executor */\n      0x65\n        /* \"contracts/mirrorseaMain.sol\":3224:3244  executor[msg.sender] */\n      0x20\n      mstore\n      0x40\n      dup2\n      keccak256\n      sload\n      0xff\n      and\n        /* \"contracts/mirrorseaMain.sol\":3216:3285  require(executor[msg.sender], \"executor: caller is not the executor\") */\n      tag_335\n      jumpi\n      mload(0x40)\n      shl(0xe5, 0x461bcd)\n      dup2\n      mstore\n      0x04\n      add\n      tag_200\n      swap1\n      tag_280\n      jump\t// in\n    tag_335:\n        /* \"contracts/mirrorseaMain.sol\":13274:13297  OrderInfo storage order */\n      0x00\n        /* \"contracts/mirrorseaMain.sol\":13300:13315  _orderInfo[_id] */\n      dup7\n      dup2\n      mstore\n        /* \"contracts/mirrorseaMain.sol\":13300:13310  _orderInfo */\n      0x6a\n        /* \"contracts/mirrorseaMain.sol\":13300:13315  _orderInfo[_id] */\n      0x20\n      mstore\n      0x40\n      swap1\n      keccak256\n        /* \"contracts/mirrorseaMain.sol\":13344:13573  _closePosition(... */\n      tag_318\n        /* \"contracts/mirrorseaMain.sol\":13376:13388  _marketState */\n      dup9\n        /* \"contracts/mirrorseaMain.sol\":13300:13315  _orderInfo[_id] */\n      dup3\n        /* \"contracts/mirrorseaMain.sol\":13429:13430  4 */\n      0x04\n        /* \"contracts/mirrorseaMain.sol\":13311:13314  _id */\n      dup11\n        /* \"contracts/mirrorseaMain.sol\":13469:13479  _timestamp */\n      dup11\n        /* \"contracts/mirrorseaMain.sol\":13497:13505  _symbols */\n      dup11\n        /* \"contracts/mirrorseaMain.sol\":13523:13531  _price18 */\n      dup11\n        /* \"contracts/mirrorseaMain.sol\":13549:13559  _signature */\n      dup11\n        /* \"contracts/mirrorseaMain.sol\":13344:13358  _closePosition */\n      tag_297\n        /* \"contracts/mirrorseaMain.sol\":13344:13573  _closePosition(... */\n      jump\t// in\n        /* \"contracts/mirrorseaMain.sol\":14913:15707  function adjustPosition(... */\n    tag_133:\n        /* \"contracts/mirrorseaMain.sol\":15159:15163  bool */\n      0x00\n        /* \"contracts/mirrorseaMain.sol\":15201:15216  _orderInfo[_id] */\n      dup7\n      dup2\n      mstore\n        /* \"contracts/mirrorseaMain.sol\":15201:15211  _orderInfo */\n      0x6a\n        /* \"contracts/mirrorseaMain.sol\":15201:15216  _orderInfo[_id] */\n      0x20\n      mstore\n      0x40\n      dup2\n      keccak256\n        /* \"contracts/mirrorseaMain.sol\":15234:15244  order.user */\n      dup1\n      sload\n      sub(shl(0xa0, 0x01), 0x01)\n      and\n        /* \"contracts/mirrorseaMain.sol\":15226:15283  require(order.user != address(0), \"order does not exist\") */\n      tag_340\n      jumpi\n      mload(0x40)\n      shl(0xe5, 0x461bcd)\n      dup2\n      mstore\n      0x04\n      add\n      tag_200\n      swap1\n      tag_342\n      jump\t// in\n    tag_340:\n        /* \"contracts/mirrorseaMain.sol\":15315:15316  2 */\n      0x02\n        /* \"contracts/mirrorseaMain.sol\":15301:15306  order */\n      dup2\n        /* \"contracts/mirrorseaMain.sol\":15301:15312  order.state */\n      0x03\n      add\n      sload\n        /* \"contracts/mirrorseaMain.sol\":15301:15316  order.state < 2 */\n      lt\n        /* \"contracts/mirrorseaMain.sol\":15293:15330  require(order.state < 2, \"state err\") */\n      tag_343\n      jumpi\n      mload(0x40)\n      shl(0xe5, 0x461bcd)\n      dup2\n      mstore\n      0x04\n      add\n      tag_200\n      swap1\n      tag_229\n      jump\t// in\n    tag_343:\n        /* \"contracts/mirrorseaMain.sol\":15361:15367  oracle */\n      sload(0x69)\n        /* \"contracts/mirrorseaMain.sol\":15361:15526  oracle.getkey(... */\n      mload(0x40)\n      shl(0xe1, 0x11cdc9d9)\n      dup2\n      mstore\n      sub(shl(0xa0, 0x01), 0x01)\n        /* \"contracts/mirrorseaMain.sol\":15361:15367  oracle */\n      swap1\n      swap2\n      and\n      swap1\n        /* \"contracts/mirrorseaMain.sol\":15361:15374  oracle.getkey */\n      0x239b93b2\n      swap1\n        /* \"contracts/mirrorseaMain.sol\":15361:15526  oracle.getkey(... */\n      tag_345\n      swap1\n        /* \"contracts/mirrorseaMain.sol\":15392:15404  _marketState */\n      dup13\n      swap1\n        /* \"contracts/mirrorseaMain.sol\":15422:15430  _price18 */\n      dup10\n      swap1\n        /* \"contracts/mirrorseaMain.sol\":15448:15458  _timestamp */\n      dup13\n      swap1\n        /* \"contracts/mirrorseaMain.sol\":15476:15484  _symbols */\n      dup13\n      swap1\n        /* \"contracts/mirrorseaMain.sol\":15502:15512  _signature */\n      dup12\n      swap1\n        /* \"contracts/mirrorseaMain.sol\":15361:15526  oracle.getkey(... */\n      0x04\n      add\n      tag_231\n      jump\t// in\n    tag_345:\n      0x20\n      mload(0x40)\n      dup1\n      dup4\n      sub\n      dup2\n      dup7\n      dup1\n      extcodesize\n      iszero\n      dup1\n      iszero\n      tag_346\n      jumpi\n      0x00\n      dup1\n      revert\n    tag_346:\n      pop\n      gas\n      staticcall\n      iszero\n      dup1\n      iszero\n      tag_348\n      jumpi\n      returndatasize\n      0x00\n      dup1\n      returndatacopy\n      revert(0x00, returndatasize)\n    tag_348:\n      pop\n      pop\n      pop\n      pop\n      mload(0x40)\n      returndatasize\n      not(0x1f)\n      0x1f\n      dup3\n      add\n      and\n      dup3\n      add\n      dup1\n      0x40\n      mstore\n      pop\n      dup2\n      add\n      swap1\n      tag_349\n      swap2\n      swap1\n      tag_236\n      jump\t// in\n    tag_349:\n        /* \"contracts/mirrorseaMain.sol\":15340:15562  require(... */\n      tag_350\n      jumpi\n      mload(0x40)\n      shl(0xe5, 0x461bcd)\n      dup2\n      mstore\n      0x04\n      add\n      tag_200\n      swap1\n      tag_239\n      jump\t// in\n    tag_350:\n        /* \"contracts/mirrorseaMain.sol\":15580:15620  _isSolvent(_id, _price18, _adjustMargin) */\n      tag_352\n        /* \"contracts/mirrorseaMain.sol\":15591:15594  _id */\n      dup9\n        /* \"contracts/mirrorseaMain.sol\":15596:15604  _price18 */\n      dup7\n        /* \"contracts/mirrorseaMain.sol\":15606:15619  _adjustMargin */\n      dup6\n        /* \"contracts/mirrorseaMain.sol\":15580:15590  _isSolvent */\n      tag_289\n        /* \"contracts/mirrorseaMain.sol\":15580:15620  _isSolvent(_id, _price18, _adjustMargin) */\n      jump\t// in\n    tag_352:\n        /* \"contracts/mirrorseaMain.sol\":15572:15641  require(_isSolvent(_id, _price18, _adjustMargin), \"User is bankrupt\") */\n      tag_353\n      jumpi\n      mload(0x40)\n      shl(0xe5, 0x461bcd)\n      dup2\n      mstore\n      0x04\n      add\n      tag_200\n      swap1\n      tag_355\n      jump\t// in\n    tag_353:\n        /* \"contracts/mirrorseaMain.sol\":15651:15663  order.margin */\n      0x0a\n      add\n        /* \"contracts/mirrorseaMain.sol\":15651:15679  order.margin = _adjustMargin */\n      dup3\n      swap1\n      sstore\n      pop\n        /* \"contracts/mirrorseaMain.sol\":15696:15700  true */\n      0x01\n        /* \"contracts/mirrorseaMain.sol\":14913:15707  function adjustPosition(... */\n      swap8\n      swap7\n      pop\n      pop\n      pop\n      pop\n      pop\n      pop\n      pop\n      jump\t// out\n        /* \"contracts/mirrorseaMain.sol\":1787:1811  uint256 public PRECISION */\n    tag_136:\n      sload(0x73)\n      dup2\n      jump\t// out\n        /* \"contracts/mirrorseaMain.sol\":2830:2993  function myCloseOrderIdListLength(address _user)... */\n    tag_140:\n      sub(shl(0xa0, 0x01), 0x01)\n        /* \"contracts/mirrorseaMain.sol\":2954:2979  myCloseOrderIdList[_user] */\n      and\n        /* \"contracts/mirrorseaMain.sol\":2924:2931  uint256 */\n      0x00\n        /* \"contracts/mirrorseaMain.sol\":2954:2979  myCloseOrderIdList[_user] */\n      swap1\n      dup2\n      mstore\n        /* \"contracts/mirrorseaMain.sol\":2954:2972  myCloseOrderIdList */\n      0x70\n        /* \"contracts/mirrorseaMain.sol\":2954:2979  myCloseOrderIdList[_user] */\n      0x20\n      mstore\n      0x40\n      swap1\n      keccak256\n        /* \"contracts/mirrorseaMain.sol\":2954:2986  myCloseOrderIdList[_user].length */\n      sload\n      swap1\n        /* \"contracts/mirrorseaMain.sol\":2830:2993  function myCloseOrderIdListLength(address _user)... */\n      jump\t// out\n        /* \"contracts/mirrorseaMain.sol\":1448:1502  mapping(address => uint256[]) public myOpenOrderIdList */\n    tag_144:\n      mstore(0x20, 0x6e)\n      dup2\n      0x00\n      mstore\n      keccak256(0x00, 0x40)\n      dup2\n      dup2\n      sload\n      dup2\n      lt\n      tag_357\n      jumpi\n      0x00\n      dup1\n      revert\n    tag_357:\n      swap1\n      0x00\n      mstore\n      keccak256(0x00, 0x20)\n      add\n      0x00\n      swap2\n      pop\n      swap2\n      pop\n      pop\n      sload\n      dup2\n      jump\t// out\n        /* \"contracts/mirrorseaMain.sol\":2663:2824  function myOpenOrderIdListLength(address _user)... */\n    tag_148:\n      sub(shl(0xa0, 0x01), 0x01)\n        /* \"contracts/mirrorseaMain.sol\":2786:2810  myOpenOrderIdList[_user] */\n      and\n        /* \"contracts/mirrorseaMain.sol\":2756:2763  uint256 */\n      0x00\n        /* \"contracts/mirrorseaMain.sol\":2786:2810  myOpenOrderIdList[_user] */\n      swap1\n      dup2\n      mstore\n        /* \"contracts/mirrorseaMain.sol\":2786:2803  myOpenOrderIdList */\n      0x6e\n        /* \"contracts/mirrorseaMain.sol\":2786:2810  myOpenOrderIdList[_user] */\n      0x20\n      mstore\n      0x40\n      swap1\n      keccak256\n        /* \"contracts/mirrorseaMain.sol\":2786:2817  myOpenOrderIdList[_user].length */\n      sload\n      swap1\n        /* \"contracts/mirrorseaMain.sol\":2663:2824  function myOpenOrderIdListLength(address _user)... */\n      jump\t// out\n        /* \"contracts/mirrorseaMain.sol\":1601:1656  mapping(address => uint256[]) public myCloseOrderIdList */\n    tag_152:\n      mstore(0x20, 0x70)\n      dup2\n      0x00\n      mstore\n      keccak256(0x00, 0x40)\n      dup2\n      dup2\n      sload\n      dup2\n      lt\n      tag_357\n      jumpi\n      0x00\n      dup1\n      revert\n        /* \"contracts/mirrorseaMain.sol\":1662:1749  mapping(address => mapping(uint256 => uint256))... */\n    tag_156:\n      0x71\n      0x20\n      swap1\n      dup2\n      mstore\n      0x00\n      swap3\n      dup4\n      mstore\n      0x40\n      dup1\n      dup5\n      keccak256\n      swap1\n      swap2\n      mstore\n      swap1\n      dup3\n      mstore\n      swap1\n      keccak256\n      sload\n      dup2\n      jump\t// out\n        /* \"contracts/mirrorseaMain.sol\":1818:1839  uint256 public minVal */\n    tag_159:\n      sload(0x74)\n      dup2\n      jump\t// out\n        /* \"@openzeppelin/contracts-upgradeable/access/OwnableUpgradeable.sol\":2184:2382  function transferOwnership(address newOwner) public virtual onlyOwner {... */\n    tag_163:\n        /* \"@openzeppelin/contracts-upgradeable/access/OwnableUpgradeable.sol\":1525:1537  _msgSender() */\n      tag_363\n        /* \"@openzeppelin/contracts-upgradeable/access/OwnableUpgradeable.sol\":1525:1535  _msgSender */\n      tag_220\n        /* \"@openzeppelin/contracts-upgradeable/access/OwnableUpgradeable.sol\":1525:1537  _msgSender() */\n      jump\t// in\n    tag_363:\n      sub(shl(0xa0, 0x01), 0x01)\n        /* \"@openzeppelin/contracts-upgradeable/access/OwnableUpgradeable.sol\":1514:1537  owner() == _msgSender() */\n      and\n        /* \"@openzeppelin/contracts-upgradeable/access/OwnableUpgradeable.sol\":1514:1521  owner() */\n      tag_364\n        /* \"@openzeppelin/contracts-upgradeable/access/OwnableUpgradeable.sol\":1514:1519  owner */\n      tag_124\n        /* \"@openzeppelin/contracts-upgradeable/access/OwnableUpgradeable.sol\":1514:1521  owner() */\n      jump\t// in\n    tag_364:\n      sub(shl(0xa0, 0x01), 0x01)\n        /* \"@openzeppelin/contracts-upgradeable/access/OwnableUpgradeable.sol\":1514:1537  owner() == _msgSender() */\n      and\n      eq\n        /* \"@openzeppelin/contracts-upgradeable/access/OwnableUpgradeable.sol\":1506:1574  require(owner() == _msgSender(), \"Ownable: caller is not the owner\") */\n      tag_365\n      jumpi\n      mload(0x40)\n      shl(0xe5, 0x461bcd)\n      dup2\n      mstore\n      0x04\n      add\n      tag_200\n      swap1\n      tag_224\n      jump\t// in\n    tag_365:\n      sub(shl(0xa0, 0x01), 0x01)\n        /* \"@openzeppelin/contracts-upgradeable/access/OwnableUpgradeable.sol\":2272:2294  newOwner != address(0) */\n      dup2\n      and\n        /* \"@openzeppelin/contracts-upgradeable/access/OwnableUpgradeable.sol\":2264:2337  require(newOwner != address(0), \"Ownable: new owner is the zero address\") */\n      tag_368\n      jumpi\n      mload(0x40)\n      shl(0xe5, 0x461bcd)\n      dup2\n      mstore\n      0x04\n      add\n      tag_200\n      swap1\n      tag_370\n      jump\t// in\n    tag_368:\n        /* \"@openzeppelin/contracts-upgradeable/access/OwnableUpgradeable.sol\":2347:2375  _transferOwnership(newOwner) */\n      tag_371\n        /* \"@openzeppelin/contracts-upgradeable/access/OwnableUpgradeable.sol\":2366:2374  newOwner */\n      dup2\n        /* \"@openzeppelin/contracts-upgradeable/access/OwnableUpgradeable.sol\":2347:2365  _transferOwnership */\n      tag_326\n        /* \"@openzeppelin/contracts-upgradeable/access/OwnableUpgradeable.sol\":2347:2375  _transferOwnership(newOwner) */\n      jump\t// in\n    tag_371:\n        /* \"@openzeppelin/contracts-upgradeable/access/OwnableUpgradeable.sol\":2184:2382  function transferOwnership(address newOwner) public virtual onlyOwner {... */\n      pop\n      jump\t// out\n        /* \"contracts/mirrorseaMain.sol\":1315:1340  uint256 public OrderIndex */\n    tag_165:\n      sload(0x6b)\n      dup2\n      jump\t// out\n        /* \"contracts/mirrorseaMain.sol\":2277:2657  function initialize(... */\n    tag_170:\n        /* \"@openzeppelin/contracts-upgradeable/proxy/utils/Initializable.sol\":539:552  _initializing */\n      sload(0x00)\n      0x0100\n      swap1\n      div\n      0xff\n      and\n      dup1\n        /* \"@openzeppelin/contracts-upgradeable/proxy/utils/Initializable.sol\":539:569  _initializing || !_initialized */\n      tag_373\n      jumpi\n      pop\n        /* \"@openzeppelin/contracts-upgradeable/proxy/utils/Initializable.sol\":557:569  _initialized */\n      and(0xff, sload(0x00))\n        /* \"@openzeppelin/contracts-upgradeable/proxy/utils/Initializable.sol\":556:569  !_initialized */\n      iszero\n        /* \"@openzeppelin/contracts-upgradeable/proxy/utils/Initializable.sol\":539:569  _initializing || !_initialized */\n    tag_373:\n        /* \"@openzeppelin/contracts-upgradeable/proxy/utils/Initializable.sol\":531:620  require(_initializing || !_initialized, \"Initializable: contract is already initialized\") */\n      tag_374\n      jumpi\n      mload(0x40)\n      shl(0xe5, 0x461bcd)\n      dup2\n      mstore\n      0x04\n      add\n      tag_200\n      swap1\n      tag_376\n      jump\t// in\n    tag_374:\n        /* \"@openzeppelin/contracts-upgradeable/proxy/utils/Initializable.sol\":631:650  bool isTopLevelCall */\n      0x00\n        /* \"@openzeppelin/contracts-upgradeable/proxy/utils/Initializable.sol\":654:667  _initializing */\n      sload\n      0x0100\n      swap1\n      div\n      0xff\n      and\n        /* \"@openzeppelin/contracts-upgradeable/proxy/utils/Initializable.sol\":653:667  !_initializing */\n      iszero\n        /* \"@openzeppelin/contracts-upgradeable/proxy/utils/Initializable.sol\":677:775  if (isTopLevelCall) {... */\n      dup1\n      iszero\n      tag_377\n      jumpi\n        /* \"@openzeppelin/contracts-upgradeable/proxy/utils/Initializable.sol\":711:724  _initializing */\n      0x00\n        /* \"@openzeppelin/contracts-upgradeable/proxy/utils/Initializable.sol\":711:731  _initializing = true */\n      dup1\n      sload\n      not(0xff)\n      not(0xff00)\n      swap1\n      swap2\n      and\n      0x0100\n      or\n        /* \"@openzeppelin/contracts-upgradeable/proxy/utils/Initializable.sol\":745:764  _initialized = true */\n      and\n        /* \"@openzeppelin/contracts-upgradeable/proxy/utils/Initializable.sol\":727:731  true */\n      0x01\n        /* \"@openzeppelin/contracts-upgradeable/proxy/utils/Initializable.sol\":745:764  _initialized = true */\n      or\n      swap1\n      sstore\n        /* \"@openzeppelin/contracts-upgradeable/proxy/utils/Initializable.sol\":677:775  if (isTopLevelCall) {... */\n    tag_377:\n        /* \"contracts/mirrorseaMain.sol\":2451:2467  __Ownable_init() */\n      tag_379\n        /* \"contracts/mirrorseaMain.sol\":2451:2465  __Ownable_init */\n      tag_380\n        /* \"contracts/mirrorseaMain.sol\":2451:2467  __Ownable_init() */\n      jump\t// in\n    tag_379:\n        /* \"contracts/mirrorseaMain.sol\":2477:2483  signer */\n      0x66\n        /* \"contracts/mirrorseaMain.sol\":2477:2493  signer = _signer */\n      dup1\n      sload\n      sub(shl(0xa0, 0x01), 0x01)\n      dup1\n      dup9\n      and\n      not(sub(shl(0xa0, 0x01), 0x01))\n      swap3\n      dup4\n      and\n      or\n      swap1\n      swap3\n      sstore\n        /* \"contracts/mirrorseaMain.sol\":2503:2514  helperLogic */\n      0x68\n        /* \"contracts/mirrorseaMain.sol\":2503:2529  helperLogic = _helperLogic */\n      dup1\n      sload\n      dup8\n      dup5\n      and\n      swap1\n      dup4\n      and\n      or\n      swap1\n      sstore\n        /* \"contracts/mirrorseaMain.sol\":2539:2542  usc */\n      0x67\n        /* \"contracts/mirrorseaMain.sol\":2539:2549  usc = _usc */\n      dup1\n      sload\n      dup7\n      dup5\n      and\n      swap1\n      dup4\n      and\n      or\n      swap1\n      sstore\n        /* \"contracts/mirrorseaMain.sol\":2571:2576  10000 */\n      0x2710\n        /* \"contracts/mirrorseaMain.sol\":2559:2568  PRECISION */\n      0x73\n        /* \"contracts/mirrorseaMain.sol\":2559:2576  PRECISION = 10000 */\n      sstore\n        /* \"contracts/mirrorseaMain.sol\":2586:2592  oracle */\n      0x69\n        /* \"contracts/mirrorseaMain.sol\":2586:2602  oracle = _oracle */\n      dup1\n      sload\n      swap3\n      dup6\n      and\n      swap3\n      swap1\n      swap2\n      and\n      swap2\n      swap1\n      swap2\n      or\n      swap1\n      sstore\n        /* \"contracts/mirrorseaMain.sol\":2621:2625  1e18 */\n      0x0de0b6b3a7640000\n        /* \"contracts/mirrorseaMain.sol\":2612:2618  minVal */\n      0x74\n        /* \"contracts/mirrorseaMain.sol\":2612:2625  minVal = 1e18 */\n      sstore\n        /* \"contracts/mirrorseaMain.sol\":2648:2650  50 */\n      0x32\n        /* \"contracts/mirrorseaMain.sol\":2635:2645  feePercent */\n      0x72\n        /* \"contracts/mirrorseaMain.sol\":2635:2650  feePercent = 50 */\n      sstore\n        /* \"@openzeppelin/contracts-upgradeable/proxy/utils/Initializable.sol\":797:863  if (isTopLevelCall) {... */\n      dup1\n      iszero\n      tag_381\n      jumpi\n        /* \"@openzeppelin/contracts-upgradeable/proxy/utils/Initializable.sol\":847:852  false */\n      0x00\n        /* \"@openzeppelin/contracts-upgradeable/proxy/utils/Initializable.sol\":831:852  _initializing = false */\n      dup1\n      sload\n      not(0xff00)\n      and\n      swap1\n      sstore\n        /* \"@openzeppelin/contracts-upgradeable/proxy/utils/Initializable.sol\":797:863  if (isTopLevelCall) {... */\n    tag_381:\n        /* \"contracts/mirrorseaMain.sol\":2277:2657  function initialize(... */\n      pop\n      pop\n      pop\n      pop\n      pop\n      jump\t// out\n        /* \"contracts/mirrorseaMain.sol\":3721:4496  function setOrderInfo(... */\n    tag_174:\n        /* \"contracts/mirrorseaMain.sol\":4080:4084  bool */\n      0x00\n        /* \"@openzeppelin/contracts-upgradeable/access/OwnableUpgradeable.sol\":1525:1537  _msgSender() */\n      tag_383\n        /* \"@openzeppelin/contracts-upgradeable/access/OwnableUpgradeable.sol\":1525:1535  _msgSender */\n      tag_220\n        /* \"@openzeppelin/contracts-upgradeable/access/OwnableUpgradeable.sol\":1525:1537  _msgSender() */\n      jump\t// in\n    tag_383:\n      sub(shl(0xa0, 0x01), 0x01)\n        /* \"@openzeppelin/contracts-upgradeable/access/OwnableUpgradeable.sol\":1514:1537  owner() == _msgSender() */\n      and\n        /* \"@openzeppelin/contracts-upgradeable/access/OwnableUpgradeable.sol\":1514:1521  owner() */\n      tag_384\n        /* \"@openzeppelin/contracts-upgradeable/access/OwnableUpgradeable.sol\":1514:1519  owner */\n      tag_124\n        /* \"@openzeppelin/contracts-upgradeable/access/OwnableUpgradeable.sol\":1514:1521  owner() */\n      jump\t// in\n    tag_384:\n      sub(shl(0xa0, 0x01), 0x01)\n        /* \"@openzeppelin/contracts-upgradeable/access/OwnableUpgradeable.sol\":1514:1537  owner() == _msgSender() */\n      and\n      eq\n        /* \"@openzeppelin/contracts-upgradeable/access/OwnableUpgradeable.sol\":1506:1574  require(owner() == _msgSender(), \"Ownable: caller is not the owner\") */\n      tag_385\n      jumpi\n      mload(0x40)\n      shl(0xe5, 0x461bcd)\n      dup2\n      mstore\n      0x04\n      add\n      tag_200\n      swap1\n      tag_224\n      jump\t// in\n    tag_385:\n        /* \"contracts/mirrorseaMain.sol\":4113:4468  OrderInfo({... */\n      mload(0x40)\n      dup1\n      0x0160\n      add\n      0x40\n      mstore\n      dup1\n        /* \"contracts/mirrorseaMain.sol\":4143:4147  user */\n      dup14\n      sub(shl(0xa0, 0x01), 0x01)\n        /* \"contracts/mirrorseaMain.sol\":4113:4468  OrderInfo({... */\n      and\n      dup2\n      mstore\n      0x20\n      add\n        /* \"contracts/mirrorseaMain.sol\":4168:4173  _type */\n      dup13\n        /* \"contracts/mirrorseaMain.sol\":4113:4468  OrderInfo({... */\n      dup2\n      mstore\n      0x20\n      add\n        /* \"contracts/mirrorseaMain.sol\":4196:4203  symbols */\n      dup12\n        /* \"contracts/mirrorseaMain.sol\":4113:4468  OrderInfo({... */\n      dup2\n      mstore\n      0x20\n      add\n        /* \"contracts/mirrorseaMain.sol\":4224:4229  state */\n      dup11\n        /* \"contracts/mirrorseaMain.sol\":4113:4468  OrderInfo({... */\n      dup2\n      mstore\n      0x20\n      add\n        /* \"contracts/mirrorseaMain.sol\":4254:4263  direction */\n      dup10\n        /* \"contracts/mirrorseaMain.sol\":4113:4468  OrderInfo({... */\n      dup2\n      mstore\n      0x20\n      add\n        /* \"contracts/mirrorseaMain.sol\":4290:4301  openPrice18 */\n      dup9\n        /* \"contracts/mirrorseaMain.sol\":4113:4468  OrderInfo({... */\n      dup2\n      mstore\n      0x20\n      add\n        /* \"contracts/mirrorseaMain.sol\":4325:4333  openTime */\n      dup8\n        /* \"contracts/mirrorseaMain.sol\":4113:4468  OrderInfo({... */\n      dup2\n      mstore\n      0x20\n      add\n        /* \"contracts/mirrorseaMain.sol\":4361:4373  closePrice18 */\n      dup7\n        /* \"contracts/mirrorseaMain.sol\":4113:4468  OrderInfo({... */\n      dup2\n      mstore\n      0x20\n      add\n        /* \"contracts/mirrorseaMain.sol\":4398:4407  closeTime */\n      dup6\n        /* \"contracts/mirrorseaMain.sol\":4113:4468  OrderInfo({... */\n      dup2\n      mstore\n      0x20\n      add\n        /* \"contracts/mirrorseaMain.sol\":4426:4429  amt */\n      dup5\n        /* \"contracts/mirrorseaMain.sol\":4113:4468  OrderInfo({... */\n      dup2\n      mstore\n      0x20\n      add\n        /* \"contracts/mirrorseaMain.sol\":4451:4457  margin */\n      dup4\n        /* \"contracts/mirrorseaMain.sol\":4113:4468  OrderInfo({... */\n      dup2\n      mstore\n      pop\n        /* \"contracts/mirrorseaMain.sol\":4096:4106  _orderInfo */\n      0x6a\n        /* \"contracts/mirrorseaMain.sol\":4096:4110  _orderInfo[id] */\n      0x00\n        /* \"contracts/mirrorseaMain.sol\":4107:4109  id */\n      dup16\n        /* \"contracts/mirrorseaMain.sol\":4096:4110  _orderInfo[id] */\n      dup2\n      mstore\n      0x20\n      add\n      swap1\n      dup2\n      mstore\n      0x20\n      add\n      0x00\n      keccak256\n        /* \"contracts/mirrorseaMain.sol\":4096:4468  _orderInfo[id] = OrderInfo({... */\n      0x00\n      dup3\n      add\n      mload\n      dup2\n      0x00\n      add\n      exp(0x0100, 0x00)\n      dup2\n      sload\n      dup2\n      sub(shl(0xa0, 0x01), 0x01)\n      mul\n      not\n      and\n      swap1\n      dup4\n      sub(shl(0xa0, 0x01), 0x01)\n      and\n      mul\n      or\n      swap1\n      sstore\n      pop\n      0x20\n      dup3\n      add\n      mload\n      dup2\n      0x01\n      add\n      sstore\n      0x40\n      dup3\n      add\n      mload\n      dup2\n      0x02\n      add\n      swap1\n      dup1\n      mload\n      swap1\n      0x20\n      add\n      swap1\n      tag_388\n      swap3\n      swap2\n      swap1\n      tag_275\n      jump\t// in\n    tag_388:\n      pop\n      0x60\n      dup3\n      add\n      mload\n      0x03\n      dup3\n      add\n      sstore\n      0x80\n      dup3\n      add\n      mload\n      0x04\n      dup3\n      add\n      sstore\n      0xa0\n      dup3\n      add\n      mload\n      0x05\n      dup3\n      add\n      sstore\n      0xc0\n      dup3\n      add\n      mload\n      0x06\n      dup3\n      add\n      sstore\n      0xe0\n      dup3\n      add\n      mload\n      0x07\n      dup3\n      add\n      sstore\n      0x0100\n      dup3\n      add\n      mload\n      0x08\n      dup3\n      add\n      sstore\n      0x0120\n      dup3\n      add\n      mload\n      0x09\n      dup3\n      add\n      sstore\n      0x0140\n      swap1\n      swap2\n      add\n      mload\n      0x0a\n      swap1\n      swap2\n      add\n      sstore\n      pop\n        /* \"contracts/mirrorseaMain.sol\":4485:4489  true */\n      0x01\n        /* \"contracts/mirrorseaMain.sol\":3721:4496  function setOrderInfo(... */\n      swap13\n      swap12\n      pop\n      pop\n      pop\n      pop\n      pop\n      pop\n      pop\n      pop\n      pop\n      pop\n      pop\n      pop\n      jump\t// out\n        /* \"@openzeppelin/contracts-upgradeable/utils/math/SafeMathUpgradeable.sol\":3462:3558  function mul(uint256 a, uint256 b) internal pure returns (uint256) {... */\n    tag_191:\n        /* \"@openzeppelin/contracts-upgradeable/utils/math/SafeMathUpgradeable.sol\":3520:3527  uint256 */\n      0x00\n        /* \"@openzeppelin/contracts-upgradeable/utils/math/SafeMathUpgradeable.sol\":3546:3551  a * b */\n      tag_390\n        /* \"@openzeppelin/contracts-upgradeable/utils/math/SafeMathUpgradeable.sol\":3550:3551  b */\n      dup3\n        /* \"@openzeppelin/contracts-upgradeable/utils/math/SafeMathUpgradeable.sol\":3546:3547  a */\n      dup5\n        /* \"@openzeppelin/contracts-upgradeable/utils/math/SafeMathUpgradeable.sol\":3546:3551  a * b */\n      tag_206\n      jump\t// in\n    tag_390:\n        /* \"@openzeppelin/contracts-upgradeable/utils/math/SafeMathUpgradeable.sol\":3539:3551  return a * b */\n      swap4\n        /* \"@openzeppelin/contracts-upgradeable/utils/math/SafeMathUpgradeable.sol\":3462:3558  function mul(uint256 a, uint256 b) internal pure returns (uint256) {... */\n      swap3\n      pop\n      pop\n      pop\n      jump\t// out\n        /* \"@openzeppelin/contracts-upgradeable/utils/math/SafeMathUpgradeable.sol\":3119:3215  function sub(uint256 a, uint256 b) internal pure returns (uint256) {... */\n    tag_192:\n        /* \"@openzeppelin/contracts-upgradeable/utils/math/SafeMathUpgradeable.sol\":3177:3184  uint256 */\n      0x00\n        /* \"@openzeppelin/contracts-upgradeable/utils/math/SafeMathUpgradeable.sol\":3203:3208  a - b */\n      tag_390\n        /* \"@openzeppelin/contracts-upgradeable/utils/math/SafeMathUpgradeable.sol\":3207:3208  b */\n      dup3\n        /* \"@openzeppelin/contracts-upgradeable/utils/math/SafeMathUpgradeable.sol\":3203:3204  a */\n      dup5\n        /* \"@openzeppelin/contracts-upgradeable/utils/math/SafeMathUpgradeable.sol\":3203:3208  a - b */\n      tag_208\n      jump\t// in\n        /* \"@openzeppelin/contracts-upgradeable/utils/ContextUpgradeable.sol\":876:972  function _msgSender() internal view virtual returns (address) {... */\n    tag_220:\n        /* \"@openzeppelin/contracts-upgradeable/utils/ContextUpgradeable.sol\":955:965  msg.sender */\n      caller\n        /* \"@openzeppelin/contracts-upgradeable/utils/ContextUpgradeable.sol\":876:972  function _msgSender() internal view virtual returns (address) {... */\n      swap1\n      jump\t// out\n        /* \"@openzeppelin/contracts-upgradeable/utils/math/SafeMathUpgradeable.sol\":3847:3943  function div(uint256 a, uint256 b) internal pure returns (uint256) {... */\n    tag_242:\n        /* \"@openzeppelin/contracts-upgradeable/utils/math/SafeMathUpgradeable.sol\":3905:3912  uint256 */\n      0x00\n        /* \"@openzeppelin/contracts-upgradeable/utils/math/SafeMathUpgradeable.sol\":3931:3936  a / b */\n      tag_390\n        /* \"@openzeppelin/contracts-upgradeable/utils/math/SafeMathUpgradeable.sol\":3935:3936  b */\n      dup3\n        /* \"@openzeppelin/contracts-upgradeable/utils/math/SafeMathUpgradeable.sol\":3931:3932  a */\n      dup5\n        /* \"@openzeppelin/contracts-upgradeable/utils/math/SafeMathUpgradeable.sol\":3931:3936  a / b */\n      tag_396\n      jump\t// in\n        /* \"@openzeppelin/contracts-upgradeable/token/ERC20/utils/SafeERC20Upgradeable.sol\":967:1219  function safeTransferFrom(... */\n    tag_249:\n        /* \"@openzeppelin/contracts-upgradeable/token/ERC20/utils/SafeERC20Upgradeable.sol\":1116:1212  _callOptionalReturn(token, abi.encodeWithSelector(token.transferFrom.selector, from, to, value)) */\n      tag_398\n        /* \"@openzeppelin/contracts-upgradeable/token/ERC20/utils/SafeERC20Upgradeable.sol\":1136:1141  token */\n      dup5\n        /* \"@openzeppelin/contracts-upgradeable/token/ERC20/utils/SafeERC20Upgradeable.sol\":1166:1193  token.transferFrom.selector */\n      shl(0xe0, 0x23b872dd)\n        /* \"@openzeppelin/contracts-upgradeable/token/ERC20/utils/SafeERC20Upgradeable.sol\":1195:1199  from */\n      dup6\n        /* \"@openzeppelin/contracts-upgradeable/token/ERC20/utils/SafeERC20Upgradeable.sol\":1201:1203  to */\n      dup6\n        /* \"@openzeppelin/contracts-upgradeable/token/ERC20/utils/SafeERC20Upgradeable.sol\":1205:1210  value */\n      dup6\n        /* \"@openzeppelin/contracts-upgradeable/token/ERC20/utils/SafeERC20Upgradeable.sol\":1143:1211  abi.encodeWithSelector(token.transferFrom.selector, from, to, value) */\n      add(0x24, mload(0x40))\n      tag_399\n      swap4\n      swap3\n      swap2\n      swap1\n      tag_400\n      jump\t// in\n    tag_399:\n      0x40\n      dup1\n      mload\n      not(0x1f)\n      dup2\n      dup5\n      sub\n      add\n      dup2\n      mstore\n      swap2\n      swap1\n      mstore\n      0x20\n      dup2\n      add\n      dup1\n      mload\n      sub(shl(0xe0, 0x01), 0x01)\n      and\n      not(sub(shl(0xe0, 0x01), 0x01))\n      swap1\n      swap4\n      and\n      swap3\n      swap1\n      swap3\n      or\n      swap1\n      swap2\n      mstore\n        /* \"@openzeppelin/contracts-upgradeable/token/ERC20/utils/SafeERC20Upgradeable.sol\":1116:1135  _callOptionalReturn */\n      tag_401\n        /* \"@openzeppelin/contracts-upgradeable/token/ERC20/utils/SafeERC20Upgradeable.sol\":1116:1212  _callOptionalReturn(token, abi.encodeWithSelector(token.transferFrom.selector, from, to, value)) */\n      jump\t// in\n    tag_398:\n        /* \"@openzeppelin/contracts-upgradeable/token/ERC20/utils/SafeERC20Upgradeable.sol\":967:1219  function safeTransferFrom(... */\n      pop\n      pop\n      pop\n      pop\n      jump\t// out\n        /* \"@openzeppelin/contracts-upgradeable/token/ERC20/utils/SafeERC20Upgradeable.sol\":745:961  function safeTransfer(... */\n    tag_259:\n        /* \"@openzeppelin/contracts-upgradeable/token/ERC20/utils/SafeERC20Upgradeable.sol\":868:954  _callOptionalReturn(token, abi.encodeWithSelector(token.transfer.selector, to, value)) */\n      tag_403\n        /* \"@openzeppelin/contracts-upgradeable/token/ERC20/utils/SafeERC20Upgradeable.sol\":888:893  token */\n      dup4\n        /* \"@openzeppelin/contracts-upgradeable/token/ERC20/utils/SafeERC20Upgradeable.sol\":918:941  token.transfer.selector */\n      shl(0xe0, 0xa9059cbb)\n        /* \"@openzeppelin/contracts-upgradeable/token/ERC20/utils/SafeERC20Upgradeable.sol\":943:945  to */\n      dup5\n        /* \"@openzeppelin/contracts-upgradeable/token/ERC20/utils/SafeERC20Upgradeable.sol\":947:952  value */\n      dup5\n        /* \"@openzeppelin/contracts-upgradeable/token/ERC20/utils/SafeERC20Upgradeable.sol\":895:953  abi.encodeWithSelector(token.transfer.selector, to, value) */\n      add(0x24, mload(0x40))\n      tag_399\n      swap3\n      swap2\n      swap1\n      tag_405\n      jump\t// in\n        /* \"@openzeppelin/contracts-upgradeable/token/ERC20/utils/SafeERC20Upgradeable.sol\":868:954  _callOptionalReturn(token, abi.encodeWithSelector(token.transfer.selector, to, value)) */\n    tag_403:\n        /* \"@openzeppelin/contracts-upgradeable/token/ERC20/utils/SafeERC20Upgradeable.sol\":745:961  function safeTransfer(... */\n      pop\n      pop\n      pop\n      jump\t// out\n        /* \"contracts/mirrorseaMain.sol\":13586:14907  function _isSolvent(... */\n    tag_289:\n        /* \"contracts/mirrorseaMain.sol\":13707:13711  bool */\n      0x00\n        /* \"contracts/mirrorseaMain.sol\":13749:13764  _orderInfo[_id] */\n      dup4\n      dup2\n      mstore\n        /* \"contracts/mirrorseaMain.sol\":13749:13759  _orderInfo */\n      0x6a\n        /* \"contracts/mirrorseaMain.sol\":13749:13764  _orderInfo[_id] */\n      0x20\n      mstore\n      0x40\n      dup2\n      keccak256\n        /* \"contracts/mirrorseaMain.sol\":13856:13871  order.direction */\n      0x04\n      dup2\n      add\n      sload\n        /* \"contracts/mirrorseaMain.sol\":13707:13711  bool */\n      dup3\n      swap1\n      dup2\n      swap1\n      dup2\n      swap1\n        /* \"contracts/mirrorseaMain.sol\":13875:13876  1 */\n      0x01\n        /* \"contracts/mirrorseaMain.sol\":13856:13876  order.direction == 1 */\n      eq\n        /* \"contracts/mirrorseaMain.sol\":13852:14880  if (order.direction == 1) {... */\n      iszero\n      tag_407\n      jumpi\n        /* \"contracts/mirrorseaMain.sol\":13907:13912  order */\n      dup4\n        /* \"contracts/mirrorseaMain.sol\":13907:13924  order.openPrice18 */\n      0x05\n      add\n      sload\n        /* \"contracts/mirrorseaMain.sol\":13896:13904  _price18 */\n      dup8\n        /* \"contracts/mirrorseaMain.sol\":13896:13924  _price18 < order.openPrice18 */\n      lt\n        /* \"contracts/mirrorseaMain.sol\":13892:14366  if (_price18 < order.openPrice18) {... */\n      iszero\n      tag_418\n      jumpi\n        /* \"contracts/mirrorseaMain.sol\":13958:13975  order.openPrice18 */\n      0x05\n      dup5\n      add\n      sload\n        /* \"contracts/mirrorseaMain.sol\":13958:13989  order.openPrice18.sub(_price18) */\n      tag_409\n      swap1\n        /* \"contracts/mirrorseaMain.sol\":13980:13988  _price18 */\n      dup9\n        /* \"contracts/mirrorseaMain.sol\":13958:13979  order.openPrice18.sub */\n      tag_192\n        /* \"contracts/mirrorseaMain.sol\":13958:13989  order.openPrice18.sub(_price18) */\n      jump\t// in\n    tag_409:\n        /* \"contracts/mirrorseaMain.sol\":13944:13989  diffPrice18 = order.openPrice18.sub(_price18) */\n      swap3\n      pop\n        /* \"contracts/mirrorseaMain.sol\":14020:14056  diffPrice18.mul(order.amt).div(1e18) */\n      tag_410\n        /* \"contracts/mirrorseaMain.sol\":14051:14055  1e18 */\n      0x0de0b6b3a7640000\n        /* \"contracts/mirrorseaMain.sol\":14020:14046  diffPrice18.mul(order.amt) */\n      tag_241\n        /* \"contracts/mirrorseaMain.sol\":14036:14041  order */\n      dup7\n        /* \"contracts/mirrorseaMain.sol\":14036:14045  order.amt */\n      0x09\n      add\n      sload\n        /* \"contracts/mirrorseaMain.sol\":14020:14031  diffPrice18 */\n      dup7\n        /* \"contracts/mirrorseaMain.sol\":14020:14035  diffPrice18.mul */\n      tag_191\n      swap1\n        /* \"contracts/mirrorseaMain.sol\":14020:14046  diffPrice18.mul(order.amt) */\n      swap2\n      swap1\n      0xffffffff\n      and\n      jump\t// in\n        /* \"contracts/mirrorseaMain.sol\":14020:14056  diffPrice18.mul(order.amt).div(1e18) */\n    tag_410:\n        /* \"contracts/mirrorseaMain.sol\":14007:14056  diffMargin = diffPrice18.mul(order.amt).div(1e18) */\n      swap2\n      pop\n        /* \"contracts/mirrorseaMain.sol\":14080:14249  order... */\n      tag_412\n        /* \"contracts/mirrorseaMain.sol\":14244:14248  1e18 */\n      0x0de0b6b3a7640000\n        /* \"contracts/mirrorseaMain.sol\":14080:14218  order... */\n      tag_241\n        /* \"contracts/mirrorseaMain.sol\":14208:14217  PRECISION */\n      sload(0x73)\n        /* \"contracts/mirrorseaMain.sol\":14080:14182  order... */\n      tag_241\n        /* \"contracts/mirrorseaMain.sol\":14171:14181  feePercent */\n      sload(0x72)\n        /* \"contracts/mirrorseaMain.sol\":14080:14145  order... */\n      tag_415\n        /* \"contracts/mirrorseaMain.sol\":14136:14144  _price18 */\n      dup14\n        /* \"contracts/mirrorseaMain.sol\":14080:14085  order */\n      dup12\n        /* \"contracts/mirrorseaMain.sol\":14080:14110  order... */\n      0x09\n      add\n      sload\n        /* \"contracts/mirrorseaMain.sol\":14080:14135  order... */\n      tag_191\n      swap1\n        /* \"contracts/mirrorseaMain.sol\":14080:14145  order... */\n      swap2\n      swap1\n      0xffffffff\n      and\n      jump\t// in\n    tag_415:\n        /* \"contracts/mirrorseaMain.sol\":14080:14170  order... */\n      swap1\n      tag_191\n        /* \"contracts/mirrorseaMain.sol\":14080:14182  order... */\n      jump\t// in\n        /* \"contracts/mirrorseaMain.sol\":14080:14249  order... */\n    tag_412:\n        /* \"contracts/mirrorseaMain.sol\":14074:14249  fee = order... */\n      swap1\n      pop\n        /* \"contracts/mirrorseaMain.sol\":14281:14297  diffMargin + fee */\n      tag_416\n        /* \"contracts/mirrorseaMain.sol\":14074:14249  fee = order... */\n      dup2\n        /* \"contracts/mirrorseaMain.sol\":14281:14291  diffMargin */\n      dup4\n        /* \"contracts/mirrorseaMain.sol\":14281:14297  diffMargin + fee */\n      tag_417\n      jump\t// in\n    tag_416:\n        /* \"contracts/mirrorseaMain.sol\":14271:14278  _margin */\n      dup7\n        /* \"contracts/mirrorseaMain.sol\":14271:14297  _margin < diffMargin + fee */\n      lt\n        /* \"contracts/mirrorseaMain.sol\":14267:14352  if (_margin < diffMargin + fee) {... */\n      iszero\n      tag_418\n      jumpi\n        /* \"contracts/mirrorseaMain.sol\":14328:14333  false */\n      0x00\n        /* \"contracts/mirrorseaMain.sol\":14321:14333  return false */\n      swap5\n      pop\n      pop\n      pop\n      pop\n      pop\n      jump(tag_390)\n        /* \"contracts/mirrorseaMain.sol\":14267:14352  if (_margin < diffMargin + fee) {... */\n    tag_418:\n        /* \"contracts/mirrorseaMain.sol\":13852:14880  if (order.direction == 1) {... */\n      jump(tag_429)\n    tag_407:\n        /* \"contracts/mirrorseaMain.sol\":14411:14416  order */\n      dup4\n        /* \"contracts/mirrorseaMain.sol\":14411:14428  order.openPrice18 */\n      0x05\n      add\n      sload\n        /* \"contracts/mirrorseaMain.sol\":14400:14408  _price18 */\n      dup8\n        /* \"contracts/mirrorseaMain.sol\":14400:14428  _price18 > order.openPrice18 */\n      gt\n        /* \"contracts/mirrorseaMain.sol\":14396:14870  if (_price18 > order.openPrice18) {... */\n      iszero\n      tag_429\n      jumpi\n        /* \"contracts/mirrorseaMain.sol\":14475:14492  order.openPrice18 */\n      0x05\n      dup5\n      add\n      sload\n        /* \"contracts/mirrorseaMain.sol\":14462:14493  _price18.sub(order.openPrice18) */\n      tag_421\n      swap1\n        /* \"contracts/mirrorseaMain.sol\":14462:14470  _price18 */\n      dup9\n      swap1\n        /* \"contracts/mirrorseaMain.sol\":14462:14474  _price18.sub */\n      tag_192\n        /* \"contracts/mirrorseaMain.sol\":14462:14493  _price18.sub(order.openPrice18) */\n      jump\t// in\n    tag_421:\n        /* \"contracts/mirrorseaMain.sol\":14448:14493  diffPrice18 = _price18.sub(order.openPrice18) */\n      swap3\n      pop\n        /* \"contracts/mirrorseaMain.sol\":14524:14560  diffPrice18.mul(order.amt).div(1e18) */\n      tag_422\n        /* \"contracts/mirrorseaMain.sol\":14555:14559  1e18 */\n      0x0de0b6b3a7640000\n        /* \"contracts/mirrorseaMain.sol\":14524:14550  diffPrice18.mul(order.amt) */\n      tag_241\n        /* \"contracts/mirrorseaMain.sol\":14540:14545  order */\n      dup7\n        /* \"contracts/mirrorseaMain.sol\":14540:14549  order.amt */\n      0x09\n      add\n      sload\n        /* \"contracts/mirrorseaMain.sol\":14524:14535  diffPrice18 */\n      dup7\n        /* \"contracts/mirrorseaMain.sol\":14524:14539  diffPrice18.mul */\n      tag_191\n      swap1\n        /* \"contracts/mirrorseaMain.sol\":14524:14550  diffPrice18.mul(order.amt) */\n      swap2\n      swap1\n      0xffffffff\n      and\n      jump\t// in\n        /* \"contracts/mirrorseaMain.sol\":14524:14560  diffPrice18.mul(order.amt).div(1e18) */\n    tag_422:\n        /* \"contracts/mirrorseaMain.sol\":14511:14560  diffMargin = diffPrice18.mul(order.amt).div(1e18) */\n      swap2\n      pop\n        /* \"contracts/mirrorseaMain.sol\":14584:14753  order... */\n      tag_424\n        /* \"contracts/mirrorseaMain.sol\":14748:14752  1e18 */\n      0x0de0b6b3a7640000\n        /* \"contracts/mirrorseaMain.sol\":14584:14722  order... */\n      tag_241\n        /* \"contracts/mirrorseaMain.sol\":14712:14721  PRECISION */\n      sload(0x73)\n        /* \"contracts/mirrorseaMain.sol\":14584:14686  order... */\n      tag_241\n        /* \"contracts/mirrorseaMain.sol\":14675:14685  feePercent */\n      sload(0x72)\n        /* \"contracts/mirrorseaMain.sol\":14584:14649  order... */\n      tag_415\n        /* \"contracts/mirrorseaMain.sol\":14640:14648  _price18 */\n      dup14\n        /* \"contracts/mirrorseaMain.sol\":14584:14589  order */\n      dup12\n        /* \"contracts/mirrorseaMain.sol\":14584:14614  order... */\n      0x09\n      add\n      sload\n        /* \"contracts/mirrorseaMain.sol\":14584:14639  order... */\n      tag_191\n      swap1\n        /* \"contracts/mirrorseaMain.sol\":14584:14649  order... */\n      swap2\n      swap1\n      0xffffffff\n      and\n      jump\t// in\n        /* \"contracts/mirrorseaMain.sol\":14584:14753  order... */\n    tag_424:\n        /* \"contracts/mirrorseaMain.sol\":14578:14753  fee = order... */\n      swap1\n      pop\n        /* \"contracts/mirrorseaMain.sol\":14785:14801  diffMargin + fee */\n      tag_428\n        /* \"contracts/mirrorseaMain.sol\":14578:14753  fee = order... */\n      dup2\n        /* \"contracts/mirrorseaMain.sol\":14785:14795  diffMargin */\n      dup4\n        /* \"contracts/mirrorseaMain.sol\":14785:14801  diffMargin + fee */\n      tag_417\n      jump\t// in\n    tag_428:\n        /* \"contracts/mirrorseaMain.sol\":14775:14782  _margin */\n      dup7\n        /* \"contracts/mirrorseaMain.sol\":14775:14801  _margin < diffMargin + fee */\n      lt\n        /* \"contracts/mirrorseaMain.sol\":14771:14856  if (_margin < diffMargin + fee) {... */\n      iszero\n      tag_429\n      jumpi\n        /* \"contracts/mirrorseaMain.sol\":14832:14837  false */\n      0x00\n        /* \"contracts/mirrorseaMain.sol\":14825:14837  return false */\n      swap5\n      pop\n      pop\n      pop\n      pop\n      pop\n      jump(tag_390)\n        /* \"contracts/mirrorseaMain.sol\":14771:14856  if (_margin < diffMargin + fee) {... */\n    tag_429:\n      pop\n        /* \"contracts/mirrorseaMain.sol\":14896:14900  true */\n      0x01\n      swap8\n        /* \"contracts/mirrorseaMain.sol\":13586:14907  function _isSolvent(... */\n      swap7\n      pop\n      pop\n      pop\n      pop\n      pop\n      pop\n      pop\n      jump\t// out\n        /* \"contracts/mirrorseaMain.sol\":7427:11180  function _closePosition(... */\n    tag_297:\n        /* \"contracts/mirrorseaMain.sol\":7723:7733  order.user */\n      dup7\n      sload\n        /* \"contracts/mirrorseaMain.sol\":7699:7703  bool */\n      0x00\n      swap1\n      sub(shl(0xa0, 0x01), 0x01)\n        /* \"contracts/mirrorseaMain.sol\":7723:7733  order.user */\n      and\n        /* \"contracts/mirrorseaMain.sol\":7715:7772  require(order.user != address(0), \"order does not exist\") */\n      tag_431\n      jumpi\n      mload(0x40)\n      shl(0xe5, 0x461bcd)\n      dup2\n      mstore\n      0x04\n      add\n      tag_200\n      swap1\n      tag_342\n      jump\t// in\n    tag_431:\n        /* \"contracts/mirrorseaMain.sol\":7804:7805  2 */\n      0x02\n        /* \"contracts/mirrorseaMain.sol\":7790:7795  order */\n      dup9\n        /* \"contracts/mirrorseaMain.sol\":7790:7801  order.state */\n      0x03\n      add\n      sload\n        /* \"contracts/mirrorseaMain.sol\":7790:7805  order.state < 2 */\n      lt\n        /* \"contracts/mirrorseaMain.sol\":7782:7819  require(order.state < 2, \"state err\") */\n      tag_433\n      jumpi\n      mload(0x40)\n      shl(0xe5, 0x461bcd)\n      dup2\n      mstore\n      0x04\n      add\n      tag_200\n      swap1\n      tag_229\n      jump\t// in\n    tag_433:\n        /* \"contracts/mirrorseaMain.sol\":7850:7856  oracle */\n      sload(0x69)\n        /* \"contracts/mirrorseaMain.sol\":7850:8015  oracle.getkey(... */\n      mload(0x40)\n      shl(0xe1, 0x11cdc9d9)\n      dup2\n      mstore\n      sub(shl(0xa0, 0x01), 0x01)\n        /* \"contracts/mirrorseaMain.sol\":7850:7856  oracle */\n      swap1\n      swap2\n      and\n      swap1\n        /* \"contracts/mirrorseaMain.sol\":7850:7863  oracle.getkey */\n      0x239b93b2\n      swap1\n        /* \"contracts/mirrorseaMain.sol\":7850:8015  oracle.getkey(... */\n      tag_435\n      swap1\n        /* \"contracts/mirrorseaMain.sol\":7881:7893  _marketState */\n      dup13\n      swap1\n        /* \"contracts/mirrorseaMain.sol\":7911:7919  _price18 */\n      dup8\n      swap1\n        /* \"contracts/mirrorseaMain.sol\":7937:7947  _timestamp */\n      dup11\n      swap1\n        /* \"contracts/mirrorseaMain.sol\":7965:7973  _symbols */\n      dup11\n      swap1\n        /* \"contracts/mirrorseaMain.sol\":7991:8001  _signature */\n      dup10\n      swap1\n        /* \"contracts/mirrorseaMain.sol\":7850:8015  oracle.getkey(... */\n      0x04\n      add\n      tag_231\n      jump\t// in\n    tag_435:\n      0x20\n      mload(0x40)\n      dup1\n      dup4\n      sub\n      dup2\n      dup7\n      dup1\n      extcodesize\n      iszero\n      dup1\n      iszero\n      tag_436\n      jumpi\n      0x00\n      dup1\n      revert\n    tag_436:\n      pop\n      gas\n      staticcall\n      iszero\n      dup1\n      iszero\n      tag_438\n      jumpi\n      returndatasize\n      0x00\n      dup1\n      returndatacopy\n      revert(0x00, returndatasize)\n    tag_438:\n      pop\n      pop\n      pop\n      pop\n      mload(0x40)\n      returndatasize\n      not(0x1f)\n      0x1f\n      dup3\n      add\n      and\n      dup3\n      add\n      dup1\n      0x40\n      mstore\n      pop\n      dup2\n      add\n      swap1\n      tag_439\n      swap2\n      swap1\n      tag_236\n      jump\t// in\n    tag_439:\n        /* \"contracts/mirrorseaMain.sol\":7829:8051  require(... */\n      tag_440\n      jumpi\n      mload(0x40)\n      shl(0xe5, 0x461bcd)\n      dup2\n      mstore\n      0x04\n      add\n      tag_200\n      swap1\n      tag_239\n      jump\t// in\n    tag_440:\n        /* \"contracts/mirrorseaMain.sol\":8083:8091  _price18 */\n      dup3\n        /* \"contracts/mirrorseaMain.sol\":8062:8067  order */\n      dup9\n        /* \"contracts/mirrorseaMain.sol\":8062:8080  order.closePrice18 */\n      0x07\n      add\n        /* \"contracts/mirrorseaMain.sol\":8062:8091  order.closePrice18 = _price18 */\n      dup2\n      swap1\n      sstore\n      pop\n        /* \"contracts/mirrorseaMain.sol\":8101:8120  uint256 diffPrice18 */\n      0x00\n        /* \"contracts/mirrorseaMain.sol\":8130:8148  uint256 diffMargin */\n      dup1\n        /* \"contracts/mirrorseaMain.sol\":8158:8173  uint256 mintAmt */\n      0x00\n        /* \"contracts/mirrorseaMain.sol\":8188:8193  order */\n      dup11\n        /* \"contracts/mirrorseaMain.sol\":8188:8203  order.direction */\n      0x04\n      add\n      sload\n        /* \"contracts/mirrorseaMain.sol\":8207:8208  1 */\n      0x01\n        /* \"contracts/mirrorseaMain.sol\":8188:8208  order.direction == 1 */\n      eq\n        /* \"contracts/mirrorseaMain.sol\":8184:10317  if (order.direction == 1) {... */\n      iszero\n      tag_442\n      jumpi\n        /* \"contracts/mirrorseaMain.sol\":8249:8254  order */\n      dup11\n        /* \"contracts/mirrorseaMain.sol\":8249:8266  order.openPrice18 */\n      0x05\n      add\n      sload\n        /* \"contracts/mirrorseaMain.sol\":8228:8233  order */\n      dup12\n        /* \"contracts/mirrorseaMain.sol\":8228:8246  order.closePrice18 */\n      0x07\n      add\n      sload\n        /* \"contracts/mirrorseaMain.sol\":8228:8266  order.closePrice18 > order.openPrice18 */\n      gt\n        /* \"contracts/mirrorseaMain.sol\":8224:9246  if (order.closePrice18 > order.openPrice18) {... */\n      iszero\n      tag_443\n      jumpi\n        /* \"contracts/mirrorseaMain.sol\":8323:8340  order.openPrice18 */\n      0x05\n      dup12\n      add\n      sload\n        /* \"contracts/mirrorseaMain.sol\":8300:8318  order.closePrice18 */\n      0x07\n      dup13\n      add\n      sload\n        /* \"contracts/mirrorseaMain.sol\":8300:8341  order.closePrice18.sub(order.openPrice18) */\n      tag_444\n      swap2\n        /* \"contracts/mirrorseaMain.sol\":8300:8322  order.closePrice18.sub */\n      tag_192\n        /* \"contracts/mirrorseaMain.sol\":8300:8341  order.closePrice18.sub(order.openPrice18) */\n      jump\t// in\n    tag_444:\n        /* \"contracts/mirrorseaMain.sol\":8286:8341  diffPrice18 = order.closePrice18.sub(order.openPrice18) */\n      swap3\n      pop\n        /* \"contracts/mirrorseaMain.sol\":8372:8408  diffPrice18.mul(order.amt).div(1e18) */\n      tag_445\n        /* \"contracts/mirrorseaMain.sol\":8403:8407  1e18 */\n      0x0de0b6b3a7640000\n        /* \"contracts/mirrorseaMain.sol\":8372:8398  diffPrice18.mul(order.amt) */\n      tag_241\n        /* \"contracts/mirrorseaMain.sol\":8388:8393  order */\n      dup14\n        /* \"contracts/mirrorseaMain.sol\":8388:8397  order.amt */\n      0x09\n      add\n      sload\n        /* \"contracts/mirrorseaMain.sol\":8372:8383  diffPrice18 */\n      dup7\n        /* \"contracts/mirrorseaMain.sol\":8372:8387  diffPrice18.mul */\n      tag_191\n      swap1\n        /* \"contracts/mirrorseaMain.sol\":8372:8398  diffPrice18.mul(order.amt) */\n      swap2\n      swap1\n      0xffffffff\n      and\n      jump\t// in\n        /* \"contracts/mirrorseaMain.sol\":8372:8408  diffPrice18.mul(order.amt).div(1e18) */\n    tag_445:\n        /* \"contracts/mirrorseaMain.sol\":8436:8448  order.margin */\n      0x0a\n      dup13\n      add\n      sload\n        /* \"contracts/mirrorseaMain.sol\":8359:8408  diffMargin = diffPrice18.mul(order.amt).div(1e18) */\n      swap1\n      swap3\n      pop\n        /* \"contracts/mirrorseaMain.sol\":8436:8464  order.margin.add(diffMargin) */\n      tag_447\n      swap1\n        /* \"contracts/mirrorseaMain.sol\":8359:8408  diffMargin = diffPrice18.mul(order.amt).div(1e18) */\n      dup4\n        /* \"contracts/mirrorseaMain.sol\":8436:8452  order.margin.add */\n      tag_448\n        /* \"contracts/mirrorseaMain.sol\":8436:8464  order.margin.add(diffMargin) */\n      jump\t// in\n    tag_447:\n        /* \"contracts/mirrorseaMain.sol\":8426:8464  mintAmt = order.margin.add(diffMargin) */\n      swap1\n      pop\n        /* \"contracts/mirrorseaMain.sol\":8482:8493  uint256 fee */\n      0x00\n        /* \"contracts/mirrorseaMain.sol\":8496:8534  mintAmt.mul(feePercent).div(PRECISION) */\n      tag_449\n        /* \"contracts/mirrorseaMain.sol\":8524:8533  PRECISION */\n      sload(0x73)\n        /* \"contracts/mirrorseaMain.sol\":8496:8519  mintAmt.mul(feePercent) */\n      tag_241\n        /* \"contracts/mirrorseaMain.sol\":8508:8518  feePercent */\n      sload(0x72)\n        /* \"contracts/mirrorseaMain.sol\":8496:8503  mintAmt */\n      dup6\n        /* \"contracts/mirrorseaMain.sol\":8496:8507  mintAmt.mul */\n      tag_191\n      swap1\n        /* \"contracts/mirrorseaMain.sol\":8496:8519  mintAmt.mul(feePercent) */\n      swap2\n      swap1\n      0xffffffff\n      and\n      jump\t// in\n        /* \"contracts/mirrorseaMain.sol\":8496:8534  mintAmt.mul(feePercent).div(PRECISION) */\n    tag_449:\n        /* \"contracts/mirrorseaMain.sol\":8565:8568  usc */\n      sload(0x67)\n        /* \"contracts/mirrorseaMain.sol\":8584:8595  helperLogic */\n      sload(0x68)\n        /* \"contracts/mirrorseaMain.sol\":8552:8602  IUSC(address(usc)).mint(address(helperLogic), fee) */\n      mload(0x40)\n      shl(0xe0, 0x40c10f19)\n      dup2\n      mstore\n        /* \"contracts/mirrorseaMain.sol\":8482:8534  uint256 fee = mintAmt.mul(feePercent).div(PRECISION) */\n      swap3\n      swap4\n      pop\n      sub(shl(0xa0, 0x01), 0x01)\n        /* \"contracts/mirrorseaMain.sol\":8565:8568  usc */\n      swap2\n      dup3\n      and\n      swap3\n        /* \"contracts/mirrorseaMain.sol\":8552:8575  IUSC(address(usc)).mint */\n      0x40c10f19\n      swap3\n        /* \"contracts/mirrorseaMain.sol\":8552:8602  IUSC(address(usc)).mint(address(helperLogic), fee) */\n      tag_451\n      swap3\n        /* \"contracts/mirrorseaMain.sol\":8584:8595  helperLogic */\n      and\n      swap1\n        /* \"contracts/mirrorseaMain.sol\":8482:8534  uint256 fee = mintAmt.mul(feePercent).div(PRECISION) */\n      dup6\n      swap1\n        /* \"contracts/mirrorseaMain.sol\":8552:8602  IUSC(address(usc)).mint(address(helperLogic), fee) */\n      0x04\n      add\n      tag_405\n      jump\t// in\n    tag_451:\n      0x20\n      mload(0x40)\n      dup1\n      dup4\n      sub\n      dup2\n      0x00\n      dup8\n      dup1\n      extcodesize\n      iszero\n      dup1\n      iszero\n      tag_452\n      jumpi\n      0x00\n      dup1\n      revert\n    tag_452:\n      pop\n      gas\n      call\n      iszero\n      dup1\n      iszero\n      tag_454\n      jumpi\n      returndatasize\n      0x00\n      dup1\n      returndatacopy\n      revert(0x00, returndatasize)\n    tag_454:\n      pop\n      pop\n      pop\n      pop\n      mload(0x40)\n      returndatasize\n      not(0x1f)\n      0x1f\n      dup3\n      add\n      and\n      dup3\n      add\n      dup1\n      0x40\n      mstore\n      pop\n      dup2\n      add\n      swap1\n      tag_455\n      swap2\n      swap1\n      tag_236\n      jump\t// in\n    tag_455:\n      pop\n        /* \"contracts/mirrorseaMain.sol\":8633:8636  usc */\n      sload(0x67)\n        /* \"contracts/mirrorseaMain.sol\":8644:8654  order.user */\n      dup13\n      sload\n      sub(shl(0xa0, 0x01), 0x01)\n        /* \"contracts/mirrorseaMain.sol\":8633:8636  usc */\n      swap2\n      dup3\n      and\n      swap2\n        /* \"contracts/mirrorseaMain.sol\":8620:8643  IUSC(address(usc)).mint */\n      0x40c10f19\n      swap2\n        /* \"contracts/mirrorseaMain.sol\":8644:8654  order.user */\n      and\n        /* \"contracts/mirrorseaMain.sol\":8656:8672  mintAmt.sub(fee) */\n      tag_456\n        /* \"contracts/mirrorseaMain.sol\":8656:8663  mintAmt */\n      dup6\n        /* \"contracts/mirrorseaMain.sol\":8668:8671  fee */\n      dup6\n        /* \"contracts/mirrorseaMain.sol\":8656:8667  mintAmt.sub */\n      tag_192\n        /* \"contracts/mirrorseaMain.sol\":8656:8672  mintAmt.sub(fee) */\n      jump\t// in\n    tag_456:\n        /* \"contracts/mirrorseaMain.sol\":8620:8673  IUSC(address(usc)).mint(order.user, mintAmt.sub(fee)) */\n      mload(0x40)\n      dup4\n      0xffffffff\n      and\n      0xe0\n      shl\n      dup2\n      mstore\n      0x04\n      add\n      tag_457\n      swap3\n      swap2\n      swap1\n      tag_405\n      jump\t// in\n    tag_457:\n      0x20\n      mload(0x40)\n      dup1\n      dup4\n      sub\n      dup2\n      0x00\n      dup8\n      dup1\n      extcodesize\n      iszero\n      dup1\n      iszero\n      tag_458\n      jumpi\n      0x00\n      dup1\n      revert\n    tag_458:\n      pop\n      gas\n      call\n      iszero\n      dup1\n      iszero\n      tag_460\n      jumpi\n      returndatasize\n      0x00\n      dup1\n      returndatacopy\n      revert(0x00, returndatasize)\n    tag_460:\n      pop\n      pop\n      pop\n      pop\n      mload(0x40)\n      returndatasize\n      not(0x1f)\n      0x1f\n      dup3\n      add\n      and\n      dup3\n      add\n      dup1\n      0x40\n      mstore\n      pop\n      dup2\n      add\n      swap1\n      tag_461\n      swap2\n      swap1\n      tag_236\n      jump\t// in\n    tag_461:\n      pop\n        /* \"contracts/mirrorseaMain.sol\":8224:9246  if (order.closePrice18 > order.openPrice18) {... */\n      pop\n      jump(tag_466)\n    tag_443:\n        /* \"contracts/mirrorseaMain.sol\":8748:8766  order.closePrice18 */\n      0x07\n      dup12\n      add\n      sload\n        /* \"contracts/mirrorseaMain.sol\":8726:8743  order.openPrice18 */\n      0x05\n      dup13\n      add\n      sload\n        /* \"contracts/mirrorseaMain.sol\":8726:8767  order.openPrice18.sub(order.closePrice18) */\n      tag_463\n      swap2\n        /* \"contracts/mirrorseaMain.sol\":8726:8747  order.openPrice18.sub */\n      tag_192\n        /* \"contracts/mirrorseaMain.sol\":8726:8767  order.openPrice18.sub(order.closePrice18) */\n      jump\t// in\n    tag_463:\n        /* \"contracts/mirrorseaMain.sol\":8712:8767  diffPrice18 = order.openPrice18.sub(order.closePrice18) */\n      swap3\n      pop\n        /* \"contracts/mirrorseaMain.sol\":8798:8824  diffPrice18.mul(order.amt) */\n      tag_464\n        /* \"contracts/mirrorseaMain.sol\":8814:8819  order */\n      dup12\n        /* \"contracts/mirrorseaMain.sol\":8814:8823  order.amt */\n      0x09\n      add\n      sload\n        /* \"contracts/mirrorseaMain.sol\":8798:8809  diffPrice18 */\n      dup5\n        /* \"contracts/mirrorseaMain.sol\":8798:8813  diffPrice18.mul */\n      tag_191\n      swap1\n        /* \"contracts/mirrorseaMain.sol\":8798:8824  diffPrice18.mul(order.amt) */\n      swap2\n      swap1\n      0xffffffff\n      and\n      jump\t// in\n    tag_464:\n        /* \"contracts/mirrorseaMain.sol\":8785:8824  diffMargin = diffPrice18.mul(order.amt) */\n      swap2\n      pop\n        /* \"contracts/mirrorseaMain.sol\":8860:8865  order */\n      dup11\n        /* \"contracts/mirrorseaMain.sol\":8860:8872  order.margin */\n      0x0a\n      add\n      sload\n        /* \"contracts/mirrorseaMain.sol\":8847:8857  diffMargin */\n      dup3\n        /* \"contracts/mirrorseaMain.sol\":8847:8872  diffMargin > order.margin */\n      gt\n        /* \"contracts/mirrorseaMain.sol\":8843:9232  if (diffMargin > order.margin) {... */\n      iszero\n      tag_465\n      jumpi\n      pop\n        /* \"contracts/mirrorseaMain.sol\":8906:8907  0 */\n      0x00\n        /* \"contracts/mirrorseaMain.sol\":8843:9232  if (diffMargin > order.margin) {... */\n      jump(tag_466)\n    tag_465:\n        /* \"contracts/mirrorseaMain.sol\":8964:8976  order.margin */\n      0x0a\n      dup12\n      add\n      sload\n        /* \"contracts/mirrorseaMain.sol\":8964:8992  order.margin.sub(diffMargin) */\n      tag_467\n      swap1\n        /* \"contracts/mirrorseaMain.sol\":8981:8991  diffMargin */\n      dup4\n        /* \"contracts/mirrorseaMain.sol\":8964:8980  order.margin.sub */\n      tag_192\n        /* \"contracts/mirrorseaMain.sol\":8964:8992  order.margin.sub(diffMargin) */\n      jump\t// in\n    tag_467:\n        /* \"contracts/mirrorseaMain.sol\":8954:8992  mintAmt = order.margin.sub(diffMargin) */\n      swap1\n      pop\n        /* \"contracts/mirrorseaMain.sol\":9014:9025  uint256 fee */\n      0x00\n        /* \"contracts/mirrorseaMain.sol\":9028:9066  mintAmt.mul(feePercent).div(PRECISION) */\n      tag_468\n        /* \"contracts/mirrorseaMain.sol\":9056:9065  PRECISION */\n      sload(0x73)\n        /* \"contracts/mirrorseaMain.sol\":9028:9051  mintAmt.mul(feePercent) */\n      tag_241\n        /* \"contracts/mirrorseaMain.sol\":9040:9050  feePercent */\n      sload(0x72)\n        /* \"contracts/mirrorseaMain.sol\":9028:9035  mintAmt */\n      dup6\n        /* \"contracts/mirrorseaMain.sol\":9028:9039  mintAmt.mul */\n      tag_191\n      swap1\n        /* \"contracts/mirrorseaMain.sol\":9028:9051  mintAmt.mul(feePercent) */\n      swap2\n      swap1\n      0xffffffff\n      and\n      jump\t// in\n        /* \"contracts/mirrorseaMain.sol\":9028:9066  mintAmt.mul(feePercent).div(PRECISION) */\n    tag_468:\n        /* \"contracts/mirrorseaMain.sol\":9101:9104  usc */\n      sload(0x67)\n        /* \"contracts/mirrorseaMain.sol\":9120:9131  helperLogic */\n      sload(0x68)\n        /* \"contracts/mirrorseaMain.sol\":9088:9138  IUSC(address(usc)).mint(address(helperLogic), fee) */\n      mload(0x40)\n      shl(0xe0, 0x40c10f19)\n      dup2\n      mstore\n        /* \"contracts/mirrorseaMain.sol\":9014:9066  uint256 fee = mintAmt.mul(feePercent).div(PRECISION) */\n      swap3\n      swap4\n      pop\n      sub(shl(0xa0, 0x01), 0x01)\n        /* \"contracts/mirrorseaMain.sol\":9101:9104  usc */\n      swap2\n      dup3\n      and\n      swap3\n        /* \"contracts/mirrorseaMain.sol\":9088:9111  IUSC(address(usc)).mint */\n      0x40c10f19\n      swap3\n        /* \"contracts/mirrorseaMain.sol\":9088:9138  IUSC(address(usc)).mint(address(helperLogic), fee) */\n      tag_470\n      swap3\n        /* \"contracts/mirrorseaMain.sol\":9120:9131  helperLogic */\n      and\n      swap1\n        /* \"contracts/mirrorseaMain.sol\":9014:9066  uint256 fee = mintAmt.mul(feePercent).div(PRECISION) */\n      dup6\n      swap1\n        /* \"contracts/mirrorseaMain.sol\":9088:9138  IUSC(address(usc)).mint(address(helperLogic), fee) */\n      0x04\n      add\n      tag_405\n      jump\t// in\n    tag_470:\n      0x20\n      mload(0x40)\n      dup1\n      dup4\n      sub\n      dup2\n      0x00\n      dup8\n      dup1\n      extcodesize\n      iszero\n      dup1\n      iszero\n      tag_471\n      jumpi\n      0x00\n      dup1\n      revert\n    tag_471:\n      pop\n      gas\n      call\n      iszero\n      dup1\n      iszero\n      tag_473\n      jumpi\n      returndatasize\n      0x00\n      dup1\n      returndatacopy\n      revert(0x00, returndatasize)\n    tag_473:\n      pop\n      pop\n      pop\n      pop\n      mload(0x40)\n      returndatasize\n      not(0x1f)\n      0x1f\n      dup3\n      add\n      and\n      dup3\n      add\n      dup1\n      0x40\n      mstore\n      pop\n      dup2\n      add\n      swap1\n      tag_474\n      swap2\n      swap1\n      tag_236\n      jump\t// in\n    tag_474:\n      pop\n        /* \"contracts/mirrorseaMain.sol\":9173:9176  usc */\n      sload(0x67)\n        /* \"contracts/mirrorseaMain.sol\":9184:9194  order.user */\n      dup13\n      sload\n      sub(shl(0xa0, 0x01), 0x01)\n        /* \"contracts/mirrorseaMain.sol\":9173:9176  usc */\n      swap2\n      dup3\n      and\n      swap2\n        /* \"contracts/mirrorseaMain.sol\":9160:9183  IUSC(address(usc)).mint */\n      0x40c10f19\n      swap2\n        /* \"contracts/mirrorseaMain.sol\":9184:9194  order.user */\n      and\n        /* \"contracts/mirrorseaMain.sol\":9196:9212  mintAmt.sub(fee) */\n      tag_475\n        /* \"contracts/mirrorseaMain.sol\":9196:9203  mintAmt */\n      dup6\n        /* \"contracts/mirrorseaMain.sol\":9208:9211  fee */\n      dup6\n        /* \"contracts/mirrorseaMain.sol\":9196:9207  mintAmt.sub */\n      tag_192\n        /* \"contracts/mirrorseaMain.sol\":9196:9212  mintAmt.sub(fee) */\n      jump\t// in\n    tag_475:\n        /* \"contracts/mirrorseaMain.sol\":9160:9213  IUSC(address(usc)).mint(order.user, mintAmt.sub(fee)) */\n      mload(0x40)\n      dup4\n      0xffffffff\n      and\n      0xe0\n      shl\n      dup2\n      mstore\n      0x04\n      add\n      tag_476\n      swap3\n      swap2\n      swap1\n      tag_405\n      jump\t// in\n    tag_476:\n      0x20\n      mload(0x40)\n      dup1\n      dup4\n      sub\n      dup2\n      0x00\n      dup8\n      dup1\n      extcodesize\n      iszero\n      dup1\n      iszero\n      tag_477\n      jumpi\n      0x00\n      dup1\n      revert\n    tag_477:\n      pop\n      gas\n      call\n      iszero\n      dup1\n      iszero\n      tag_479\n      jumpi\n      returndatasize\n      0x00\n      dup1\n      returndatacopy\n      revert(0x00, returndatasize)\n    tag_479:\n      pop\n      pop\n      pop\n      pop\n      mload(0x40)\n      returndatasize\n      not(0x1f)\n      0x1f\n      dup3\n      add\n      and\n      dup3\n      add\n      dup1\n      0x40\n      mstore\n      pop\n      dup2\n      add\n      swap1\n      tag_480\n      swap2\n      swap1\n      tag_236\n      jump\t// in\n    tag_480:\n      pop\n        /* \"contracts/mirrorseaMain.sol\":8843:9232  if (diffMargin > order.margin) {... */\n      pop\n    tag_466:\n        /* \"contracts/mirrorseaMain.sol\":8184:10317  if (order.direction == 1) {... */\n      jump(tag_505)\n    tag_442:\n        /* \"contracts/mirrorseaMain.sol\":9301:9306  order */\n      dup11\n        /* \"contracts/mirrorseaMain.sol\":9301:9318  order.openPrice18 */\n      0x05\n      add\n      sload\n        /* \"contracts/mirrorseaMain.sol\":9280:9285  order */\n      dup12\n        /* \"contracts/mirrorseaMain.sol\":9280:9298  order.closePrice18 */\n      0x07\n      add\n      sload\n        /* \"contracts/mirrorseaMain.sol\":9280:9318  order.closePrice18 < order.openPrice18 */\n      lt\n        /* \"contracts/mirrorseaMain.sol\":9276:10307  if (order.closePrice18 < order.openPrice18) {... */\n      iszero\n      tag_482\n      jumpi\n        /* \"contracts/mirrorseaMain.sol\":9374:9392  order.closePrice18 */\n      0x07\n      dup12\n      add\n      sload\n        /* \"contracts/mirrorseaMain.sol\":9352:9369  order.openPrice18 */\n      0x05\n      dup13\n      add\n      sload\n        /* \"contracts/mirrorseaMain.sol\":9352:9393  order.openPrice18.sub(order.closePrice18) */\n      tag_483\n      swap2\n        /* \"contracts/mirrorseaMain.sol\":9352:9373  order.openPrice18.sub */\n      tag_192\n        /* \"contracts/mirrorseaMain.sol\":9352:9393  order.openPrice18.sub(order.closePrice18) */\n      jump\t// in\n    tag_483:\n        /* \"contracts/mirrorseaMain.sol\":9338:9393  diffPrice18 = order.openPrice18.sub(order.closePrice18) */\n      swap3\n      pop\n        /* \"contracts/mirrorseaMain.sol\":9424:9460  diffPrice18.mul(order.amt).div(1e18) */\n      tag_484\n        /* \"contracts/mirrorseaMain.sol\":9455:9459  1e18 */\n      0x0de0b6b3a7640000\n        /* \"contracts/mirrorseaMain.sol\":9424:9450  diffPrice18.mul(order.amt) */\n      tag_241\n        /* \"contracts/mirrorseaMain.sol\":9440:9445  order */\n      dup14\n        /* \"contracts/mirrorseaMain.sol\":9440:9449  order.amt */\n      0x09\n      add\n      sload\n        /* \"contracts/mirrorseaMain.sol\":9424:9435  diffPrice18 */\n      dup7\n        /* \"contracts/mirrorseaMain.sol\":9424:9439  diffPrice18.mul */\n      tag_191\n      swap1\n        /* \"contracts/mirrorseaMain.sol\":9424:9450  diffPrice18.mul(order.amt) */\n      swap2\n      swap1\n      0xffffffff\n      and\n      jump\t// in\n        /* \"contracts/mirrorseaMain.sol\":9424:9460  diffPrice18.mul(order.amt).div(1e18) */\n    tag_484:\n        /* \"contracts/mirrorseaMain.sol\":9488:9500  order.margin */\n      0x0a\n      dup13\n      add\n      sload\n        /* \"contracts/mirrorseaMain.sol\":9411:9460  diffMargin = diffPrice18.mul(order.amt).div(1e18) */\n      swap1\n      swap3\n      pop\n        /* \"contracts/mirrorseaMain.sol\":9488:9516  order.margin.add(diffMargin) */\n      tag_467\n      swap1\n        /* \"contracts/mirrorseaMain.sol\":9411:9460  diffMargin = diffPrice18.mul(order.amt).div(1e18) */\n      dup4\n        /* \"contracts/mirrorseaMain.sol\":9488:9504  order.margin.add */\n      tag_448\n        /* \"contracts/mirrorseaMain.sol\":9488:9516  order.margin.add(diffMargin) */\n      jump\t// in\n        /* \"contracts/mirrorseaMain.sol\":9276:10307  if (order.closePrice18 < order.openPrice18) {... */\n    tag_482:\n        /* \"contracts/mirrorseaMain.sol\":9801:9818  order.openPrice18 */\n      0x05\n      dup12\n      add\n      sload\n        /* \"contracts/mirrorseaMain.sol\":9778:9796  order.closePrice18 */\n      0x07\n      dup13\n      add\n      sload\n        /* \"contracts/mirrorseaMain.sol\":9778:9819  order.closePrice18.sub(order.openPrice18) */\n      tag_501\n      swap2\n        /* \"contracts/mirrorseaMain.sol\":9778:9800  order.closePrice18.sub */\n      tag_192\n        /* \"contracts/mirrorseaMain.sol\":9778:9819  order.closePrice18.sub(order.openPrice18) */\n      jump\t// in\n    tag_501:\n        /* \"contracts/mirrorseaMain.sol\":9764:9819  diffPrice18 = order.closePrice18.sub(order.openPrice18) */\n      swap3\n      pop\n        /* \"contracts/mirrorseaMain.sol\":9850:9886  diffPrice18.mul(order.amt).div(1e18) */\n      tag_502\n        /* \"contracts/mirrorseaMain.sol\":9881:9885  1e18 */\n      0x0de0b6b3a7640000\n        /* \"contracts/mirrorseaMain.sol\":9850:9876  diffPrice18.mul(order.amt) */\n      tag_241\n        /* \"contracts/mirrorseaMain.sol\":9866:9871  order */\n      dup14\n        /* \"contracts/mirrorseaMain.sol\":9866:9875  order.amt */\n      0x09\n      add\n      sload\n        /* \"contracts/mirrorseaMain.sol\":9850:9861  diffPrice18 */\n      dup7\n        /* \"contracts/mirrorseaMain.sol\":9850:9865  diffPrice18.mul */\n      tag_191\n      swap1\n        /* \"contracts/mirrorseaMain.sol\":9850:9876  diffPrice18.mul(order.amt) */\n      swap2\n      swap1\n      0xffffffff\n      and\n      jump\t// in\n        /* \"contracts/mirrorseaMain.sol\":9850:9886  diffPrice18.mul(order.amt).div(1e18) */\n    tag_502:\n        /* \"contracts/mirrorseaMain.sol\":9837:9886  diffMargin = diffPrice18.mul(order.amt).div(1e18) */\n      swap2\n      pop\n        /* \"contracts/mirrorseaMain.sol\":9921:9926  order */\n      dup11\n        /* \"contracts/mirrorseaMain.sol\":9921:9933  order.margin */\n      0x0a\n      add\n      sload\n        /* \"contracts/mirrorseaMain.sol\":9908:9918  diffMargin */\n      dup3\n        /* \"contracts/mirrorseaMain.sol\":9908:9933  diffMargin > order.margin */\n      gt\n        /* \"contracts/mirrorseaMain.sol\":9904:10293  if (diffMargin > order.margin) {... */\n      iszero\n      tag_504\n      jumpi\n      pop\n        /* \"contracts/mirrorseaMain.sol\":9967:9968  0 */\n      0x00\n        /* \"contracts/mirrorseaMain.sol\":9904:10293  if (diffMargin > order.margin) {... */\n      jump(tag_505)\n    tag_504:\n        /* \"contracts/mirrorseaMain.sol\":10025:10037  order.margin */\n      0x0a\n      dup12\n      add\n      sload\n        /* \"contracts/mirrorseaMain.sol\":10025:10053  order.margin.sub(diffMargin) */\n      tag_506\n      swap1\n        /* \"contracts/mirrorseaMain.sol\":10042:10052  diffMargin */\n      dup4\n        /* \"contracts/mirrorseaMain.sol\":10025:10041  order.margin.sub */\n      tag_192\n        /* \"contracts/mirrorseaMain.sol\":10025:10053  order.margin.sub(diffMargin) */\n      jump\t// in\n    tag_506:\n        /* \"contracts/mirrorseaMain.sol\":10015:10053  mintAmt = order.margin.sub(diffMargin) */\n      swap1\n      pop\n        /* \"contracts/mirrorseaMain.sol\":10075:10086  uint256 fee */\n      0x00\n        /* \"contracts/mirrorseaMain.sol\":10089:10127  mintAmt.mul(feePercent).div(PRECISION) */\n      tag_507\n        /* \"contracts/mirrorseaMain.sol\":10117:10126  PRECISION */\n      sload(0x73)\n        /* \"contracts/mirrorseaMain.sol\":10089:10112  mintAmt.mul(feePercent) */\n      tag_241\n        /* \"contracts/mirrorseaMain.sol\":10101:10111  feePercent */\n      sload(0x72)\n        /* \"contracts/mirrorseaMain.sol\":10089:10096  mintAmt */\n      dup6\n        /* \"contracts/mirrorseaMain.sol\":10089:10100  mintAmt.mul */\n      tag_191\n      swap1\n        /* \"contracts/mirrorseaMain.sol\":10089:10112  mintAmt.mul(feePercent) */\n      swap2\n      swap1\n      0xffffffff\n      and\n      jump\t// in\n        /* \"contracts/mirrorseaMain.sol\":10089:10127  mintAmt.mul(feePercent).div(PRECISION) */\n    tag_507:\n        /* \"contracts/mirrorseaMain.sol\":10162:10165  usc */\n      sload(0x67)\n        /* \"contracts/mirrorseaMain.sol\":10181:10192  helperLogic */\n      sload(0x68)\n        /* \"contracts/mirrorseaMain.sol\":10149:10199  IUSC(address(usc)).mint(address(helperLogic), fee) */\n      mload(0x40)\n      shl(0xe0, 0x40c10f19)\n      dup2\n      mstore\n        /* \"contracts/mirrorseaMain.sol\":10075:10127  uint256 fee = mintAmt.mul(feePercent).div(PRECISION) */\n      swap3\n      swap4\n      pop\n      sub(shl(0xa0, 0x01), 0x01)\n        /* \"contracts/mirrorseaMain.sol\":10162:10165  usc */\n      swap2\n      dup3\n      and\n      swap3\n        /* \"contracts/mirrorseaMain.sol\":10149:10172  IUSC(address(usc)).mint */\n      0x40c10f19\n      swap3\n        /* \"contracts/mirrorseaMain.sol\":10149:10199  IUSC(address(usc)).mint(address(helperLogic), fee) */\n      tag_509\n      swap3\n        /* \"contracts/mirrorseaMain.sol\":10181:10192  helperLogic */\n      and\n      swap1\n        /* \"contracts/mirrorseaMain.sol\":10075:10127  uint256 fee = mintAmt.mul(feePercent).div(PRECISION) */\n      dup6\n      swap1\n        /* \"contracts/mirrorseaMain.sol\":10149:10199  IUSC(address(usc)).mint(address(helperLogic), fee) */\n      0x04\n      add\n      tag_405\n      jump\t// in\n    tag_509:\n      0x20\n      mload(0x40)\n      dup1\n      dup4\n      sub\n      dup2\n      0x00\n      dup8\n      dup1\n      extcodesize\n      iszero\n      dup1\n      iszero\n      tag_510\n      jumpi\n      0x00\n      dup1\n      revert\n    tag_510:\n      pop\n      gas\n      call\n      iszero\n      dup1\n      iszero\n      tag_512\n      jumpi\n      returndatasize\n      0x00\n      dup1\n      returndatacopy\n      revert(0x00, returndatasize)\n    tag_512:\n      pop\n      pop\n      pop\n      pop\n      mload(0x40)\n      returndatasize\n      not(0x1f)\n      0x1f\n      dup3\n      add\n      and\n      dup3\n      add\n      dup1\n      0x40\n      mstore\n      pop\n      dup2\n      add\n      swap1\n      tag_513\n      swap2\n      swap1\n      tag_236\n      jump\t// in\n    tag_513:\n      pop\n        /* \"contracts/mirrorseaMain.sol\":10234:10237  usc */\n      sload(0x67)\n        /* \"contracts/mirrorseaMain.sol\":10245:10255  order.user */\n      dup13\n      sload\n      sub(shl(0xa0, 0x01), 0x01)\n        /* \"contracts/mirrorseaMain.sol\":10234:10237  usc */\n      swap2\n      dup3\n      and\n      swap2\n        /* \"contracts/mirrorseaMain.sol\":10221:10244  IUSC(address(usc)).mint */\n      0x40c10f19\n      swap2\n        /* \"contracts/mirrorseaMain.sol\":10245:10255  order.user */\n      and\n        /* \"contracts/mirrorseaMain.sol\":10257:10273  mintAmt.sub(fee) */\n      tag_514\n        /* \"contracts/mirrorseaMain.sol\":10257:10264  mintAmt */\n      dup6\n        /* \"contracts/mirrorseaMain.sol\":10269:10272  fee */\n      dup6\n        /* \"contracts/mirrorseaMain.sol\":10257:10268  mintAmt.sub */\n      tag_192\n        /* \"contracts/mirrorseaMain.sol\":10257:10273  mintAmt.sub(fee) */\n      jump\t// in\n    tag_514:\n        /* \"contracts/mirrorseaMain.sol\":10221:10274  IUSC(address(usc)).mint(order.user, mintAmt.sub(fee)) */\n      mload(0x40)\n      dup4\n      0xffffffff\n      and\n      0xe0\n      shl\n      dup2\n      mstore\n      0x04\n      add\n      tag_515\n      swap3\n      swap2\n      swap1\n      tag_405\n      jump\t// in\n    tag_515:\n      0x20\n      mload(0x40)\n      dup1\n      dup4\n      sub\n      dup2\n      0x00\n      dup8\n      dup1\n      extcodesize\n      iszero\n      dup1\n      iszero\n      tag_516\n      jumpi\n      0x00\n      dup1\n      revert\n    tag_516:\n      pop\n      gas\n      call\n      iszero\n      dup1\n      iszero\n      tag_518\n      jumpi\n      returndatasize\n      0x00\n      dup1\n      returndatacopy\n      revert(0x00, returndatasize)\n    tag_518:\n      pop\n      pop\n      pop\n      pop\n      mload(0x40)\n      returndatasize\n      not(0x1f)\n      0x1f\n      dup3\n      add\n      and\n      dup3\n      add\n      dup1\n      0x40\n      mstore\n      pop\n      dup2\n      add\n      swap1\n      tag_519\n      swap2\n      swap1\n      tag_236\n      jump\t// in\n    tag_519:\n      pop\n        /* \"contracts/mirrorseaMain.sol\":9904:10293  if (diffMargin > order.margin) {... */\n      pop\n    tag_505:\n        /* \"contracts/mirrorseaMain.sol\":10327:10338  helperLogic */\n      0x68\n      0x00\n      swap1\n      sload\n      swap1\n      0x0100\n      exp\n      swap1\n      div\n      sub(shl(0xa0, 0x01), 0x01)\n      and\n      sub(shl(0xa0, 0x01), 0x01)\n        /* \"contracts/mirrorseaMain.sol\":10327:10353  helperLogic.jointExecution */\n      and\n      0xd10c06a2\n        /* \"contracts/mirrorseaMain.sol\":10327:10355  helperLogic.jointExecution() */\n      mload(0x40)\n      dup2\n      0xffffffff\n      and\n      0xe0\n      shl\n      dup2\n      mstore\n      0x04\n      add\n      0x20\n      mload(0x40)\n      dup1\n      dup4\n      sub\n      dup2\n      0x00\n      dup8\n      dup1\n      extcodesize\n      iszero\n      dup1\n      iszero\n      tag_520\n      jumpi\n      0x00\n      dup1\n      revert\n    tag_520:\n      pop\n      gas\n      call\n      iszero\n      dup1\n      iszero\n      tag_522\n      jumpi\n      returndatasize\n      0x00\n      dup1\n      returndatacopy\n      revert(0x00, returndatasize)\n    tag_522:\n      pop\n      pop\n      pop\n      pop\n      mload(0x40)\n      returndatasize\n      not(0x1f)\n      0x1f\n      dup3\n      add\n      and\n      dup3\n      add\n      dup1\n      0x40\n      mstore\n      pop\n      dup2\n      add\n      swap1\n      tag_523\n      swap2\n      swap1\n      tag_236\n      jump\t// in\n    tag_523:\n      pop\n        /* \"contracts/mirrorseaMain.sol\":10366:10377  order.state */\n      0x03\n      dup12\n      add\n        /* \"contracts/mirrorseaMain.sol\":10366:10386  order.state = _state */\n      dup11\n      swap1\n      sstore\n        /* \"contracts/mirrorseaMain.sol\":10396:10414  order.closePrice18 */\n      0x07\n      dup12\n      add\n        /* \"contracts/mirrorseaMain.sol\":10396:10425  order.closePrice18 = _price18 */\n      dup7\n      swap1\n      sstore\n        /* \"contracts/mirrorseaMain.sol\":10435:10450  order.closeTime */\n      0x08\n      dup12\n      add\n        /* \"contracts/mirrorseaMain.sol\":10435:10463  order.closeTime = _timestamp */\n      dup9\n      swap1\n      sstore\n        /* \"contracts/mirrorseaMain.sol\":10474:10530  cutListItem(_id, openOrderIdList_index, openOrderIdList) */\n      tag_524\n        /* \"contracts/mirrorseaMain.sol\":10486:10489  _id */\n      dup10\n        /* \"contracts/mirrorseaMain.sol\":10491:10512  openOrderIdList_index */\n      0x6d\n        /* \"contracts/mirrorseaMain.sol\":10514:10529  openOrderIdList */\n      0x6c\n        /* \"contracts/mirrorseaMain.sol\":10474:10485  cutListItem */\n      tag_525\n        /* \"contracts/mirrorseaMain.sol\":10474:10530  cutListItem(_id, openOrderIdList_index, openOrderIdList) */\n      jump\t// in\n    tag_524:\n        /* \"contracts/mirrorseaMain.sol\":10606:10616  msg.sender */\n      caller\n        /* \"contracts/mirrorseaMain.sol\":10582:10617  myOpenOrderIdList_index[msg.sender] */\n      0x00\n      swap1\n      dup2\n      mstore\n        /* \"contracts/mirrorseaMain.sol\":10582:10605  myOpenOrderIdList_index */\n      0x6f\n        /* \"contracts/mirrorseaMain.sol\":10582:10617  myOpenOrderIdList_index[msg.sender] */\n      0x20\n      swap1\n      dup2\n      mstore\n      0x40\n      dup1\n      dup4\n      keccak256\n        /* \"contracts/mirrorseaMain.sol\":10631:10648  myOpenOrderIdList */\n      0x6e\n        /* \"contracts/mirrorseaMain.sol\":10631:10660  myOpenOrderIdList[msg.sender] */\n      swap1\n      swap3\n      mstore\n      swap1\n      swap2\n      keccak256\n        /* \"contracts/mirrorseaMain.sol\":10540:10670  cutListItem(... */\n      tag_526\n      swap2\n        /* \"contracts/mirrorseaMain.sol\":10565:10568  _id */\n      dup12\n      swap2\n        /* \"contracts/mirrorseaMain.sol\":10540:10551  cutListItem */\n      tag_525\n        /* \"contracts/mirrorseaMain.sol\":10540:10670  cutListItem(... */\n      jump\t// in\n    tag_526:\n        /* \"contracts/mirrorseaMain.sol\":10700:10710  msg.sender */\n      caller\n        /* \"contracts/mirrorseaMain.sol\":10681:10711  myCloseOrderIdList[msg.sender] */\n      0x00\n      dup2\n      dup2\n      mstore\n        /* \"contracts/mirrorseaMain.sol\":10681:10699  myCloseOrderIdList */\n      0x70\n        /* \"contracts/mirrorseaMain.sol\":10681:10711  myCloseOrderIdList[msg.sender] */\n      0x20\n      swap1\n      dup2\n      mstore\n      0x40\n      dup3\n      keccak256\n        /* \"contracts/mirrorseaMain.sol\":10681:10721  myCloseOrderIdList[msg.sender].push(_id) */\n      dup1\n      sload\n      0x01\n      dup2\n      dup2\n      add\n      dup4\n      sstore\n      swap2\n      dup5\n      mstore\n      swap2\n      swap1\n      swap3\n      keccak256\n      add\n      dup12\n      swap1\n      sstore\n        /* \"contracts/mirrorseaMain.sol\":10776:10841  myCloseOrderIdListLength(... */\n      tag_528\n      swap2\n        /* \"contracts/mirrorseaMain.sol\":10776:10834  myCloseOrderIdListLength(... */\n      tag_190\n      swap1\n        /* \"contracts/mirrorseaMain.sol\":10776:10800  myCloseOrderIdListLength */\n      tag_140\n        /* \"contracts/mirrorseaMain.sol\":10776:10834  myCloseOrderIdListLength(... */\n      jump\t// in\n        /* \"contracts/mirrorseaMain.sol\":10776:10841  myCloseOrderIdListLength(... */\n    tag_528:\n        /* \"contracts/mirrorseaMain.sol\":10757:10767  msg.sender */\n      caller\n        /* \"contracts/mirrorseaMain.sol\":10732:10768  myCloseOrderIdList_index[msg.sender] */\n      0x00\n      swap1\n      dup2\n      mstore\n        /* \"contracts/mirrorseaMain.sol\":10732:10756  myCloseOrderIdList_index */\n      0x71\n        /* \"contracts/mirrorseaMain.sol\":10732:10768  myCloseOrderIdList_index[msg.sender] */\n      0x20\n      swap1\n      dup2\n      mstore\n      0x40\n      dup1\n      dup4\n      keccak256\n        /* \"contracts/mirrorseaMain.sol\":10732:10773  myCloseOrderIdList_index[msg.sender][_id] */\n      dup14\n      dup5\n      mstore\n      swap1\n      swap2\n      mstore\n      swap1\n      keccak256\n        /* \"contracts/mirrorseaMain.sol\":10732:10841  myCloseOrderIdList_index[msg.sender][_id] = myCloseOrderIdListLength(... */\n      sstore\n      pop\n        /* \"contracts/mirrorseaMain.sol\":11169:11173  true */\n      0x01\n      swap3\n      pop\n      pop\n      pop\n        /* \"contracts/mirrorseaMain.sol\":7427:11180  function _closePosition(... */\n      swap9\n      swap8\n      pop\n      pop\n      pop\n      pop\n      pop\n      pop\n      pop\n      pop\n      jump\t// out\n        /* \"@openzeppelin/contracts-upgradeable/access/OwnableUpgradeable.sol\":2536:2723  function _transferOwnership(address newOwner) internal virtual {... */\n    tag_326:\n        /* \"@openzeppelin/contracts-upgradeable/access/OwnableUpgradeable.sol\":2628:2634  _owner */\n      0x33\n      dup1\n      sload\n      sub(shl(0xa0, 0x01), 0x01)\n        /* \"@openzeppelin/contracts-upgradeable/access/OwnableUpgradeable.sol\":2644:2661  _owner = newOwner */\n      dup4\n      dup2\n      and\n      not(sub(shl(0xa0, 0x01), 0x01))\n      dup4\n      and\n      dup2\n      or\n      swap1\n      swap4\n      sstore\n        /* \"@openzeppelin/contracts-upgradeable/access/OwnableUpgradeable.sol\":2676:2716  OwnershipTransferred(oldOwner, newOwner) */\n      mload(0x40)\n        /* \"@openzeppelin/contracts-upgradeable/access/OwnableUpgradeable.sol\":2628:2634  _owner */\n      swap2\n      and\n      swap2\n        /* \"@openzeppelin/contracts-upgradeable/access/OwnableUpgradeable.sol\":2644:2661  _owner = newOwner */\n      swap1\n        /* \"@openzeppelin/contracts-upgradeable/access/OwnableUpgradeable.sol\":2628:2634  _owner */\n      dup3\n      swap1\n        /* \"@openzeppelin/contracts-upgradeable/access/OwnableUpgradeable.sol\":2676:2716  OwnershipTransferred(oldOwner, newOwner) */\n      0x8be0079c531659141344cd1fd0a4f28419497f9722a3daafe3b4186f6b6457e0\n      swap1\n        /* \"@openzeppelin/contracts-upgradeable/access/OwnableUpgradeable.sol\":2609:2625  address oldOwner */\n      0x00\n      swap1\n        /* \"@openzeppelin/contracts-upgradeable/access/OwnableUpgradeable.sol\":2676:2716  OwnershipTransferred(oldOwner, newOwner) */\n      log3\n        /* \"@openzeppelin/contracts-upgradeable/access/OwnableUpgradeable.sol\":2536:2723  function _transferOwnership(address newOwner) internal virtual {... */\n      pop\n      pop\n      jump\t// out\n        /* \"@openzeppelin/contracts-upgradeable/access/OwnableUpgradeable.sol\":988:1114  function __Ownable_init() internal initializer {... */\n    tag_380:\n        /* \"@openzeppelin/contracts-upgradeable/proxy/utils/Initializable.sol\":539:552  _initializing */\n      sload(0x00)\n      0x0100\n      swap1\n      div\n      0xff\n      and\n      dup1\n        /* \"@openzeppelin/contracts-upgradeable/proxy/utils/Initializable.sol\":539:569  _initializing || !_initialized */\n      tag_532\n      jumpi\n      pop\n        /* \"@openzeppelin/contracts-upgradeable/proxy/utils/Initializable.sol\":557:569  _initialized */\n      and(0xff, sload(0x00))\n        /* \"@openzeppelin/contracts-upgradeable/proxy/utils/Initializable.sol\":556:569  !_initialized */\n      iszero\n        /* \"@openzeppelin/contracts-upgradeable/proxy/utils/Initializable.sol\":539:569  _initializing || !_initialized */\n    tag_532:\n        /* \"@openzeppelin/contracts-upgradeable/proxy/utils/Initializable.sol\":531:620  require(_initializing || !_initialized, \"Initializable: contract is already initialized\") */\n      tag_533\n      jumpi\n      mload(0x40)\n      shl(0xe5, 0x461bcd)\n      dup2\n      mstore\n      0x04\n      add\n      tag_200\n      swap1\n      tag_376\n      jump\t// in\n    tag_533:\n        /* \"@openzeppelin/contracts-upgradeable/proxy/utils/Initializable.sol\":631:650  bool isTopLevelCall */\n      0x00\n        /* \"@openzeppelin/contracts-upgradeable/proxy/utils/Initializable.sol\":654:667  _initializing */\n      sload\n      0x0100\n      swap1\n      div\n      0xff\n      and\n        /* \"@openzeppelin/contracts-upgradeable/proxy/utils/Initializable.sol\":653:667  !_initializing */\n      iszero\n        /* \"@openzeppelin/contracts-upgradeable/proxy/utils/Initializable.sol\":677:775  if (isTopLevelCall) {... */\n      dup1\n      iszero\n      tag_535\n      jumpi\n        /* \"@openzeppelin/contracts-upgradeable/proxy/utils/Initializable.sol\":711:724  _initializing */\n      0x00\n        /* \"@openzeppelin/contracts-upgradeable/proxy/utils/Initializable.sol\":711:731  _initializing = true */\n      dup1\n      sload\n      not(0xff)\n      not(0xff00)\n      swap1\n      swap2\n      and\n      0x0100\n      or\n        /* \"@openzeppelin/contracts-upgradeable/proxy/utils/Initializable.sol\":745:764  _initialized = true */\n      and\n        /* \"@openzeppelin/contracts-upgradeable/proxy/utils/Initializable.sol\":727:731  true */\n      0x01\n        /* \"@openzeppelin/contracts-upgradeable/proxy/utils/Initializable.sol\":745:764  _initialized = true */\n      or\n      swap1\n      sstore\n        /* \"@openzeppelin/contracts-upgradeable/proxy/utils/Initializable.sol\":677:775  if (isTopLevelCall) {... */\n    tag_535:\n        /* \"@openzeppelin/contracts-upgradeable/access/OwnableUpgradeable.sol\":1045:1071  __Context_init_unchained() */\n      tag_537\n        /* \"@openzeppelin/contracts-upgradeable/access/OwnableUpgradeable.sol\":1045:1069  __Context_init_unchained */\n      tag_538\n        /* \"@openzeppelin/contracts-upgradeable/access/OwnableUpgradeable.sol\":1045:1071  __Context_init_unchained() */\n      jump\t// in\n    tag_537:\n        /* \"@openzeppelin/contracts-upgradeable/access/OwnableUpgradeable.sol\":1081:1107  __Ownable_init_unchained() */\n      tag_539\n        /* \"@openzeppelin/contracts-upgradeable/access/OwnableUpgradeable.sol\":1081:1105  __Ownable_init_unchained */\n      tag_540\n        /* \"@openzeppelin/contracts-upgradeable/access/OwnableUpgradeable.sol\":1081:1107  __Ownable_init_unchained() */\n      jump\t// in\n    tag_539:\n        /* \"@openzeppelin/contracts-upgradeable/proxy/utils/Initializable.sol\":801:815  isTopLevelCall */\n      dup1\n        /* \"@openzeppelin/contracts-upgradeable/proxy/utils/Initializable.sol\":797:863  if (isTopLevelCall) {... */\n      iszero\n      tag_371\n      jumpi\n        /* \"@openzeppelin/contracts-upgradeable/proxy/utils/Initializable.sol\":847:852  false */\n      0x00\n        /* \"@openzeppelin/contracts-upgradeable/proxy/utils/Initializable.sol\":831:852  _initializing = false */\n      dup1\n      sload\n      not(0xff00)\n      and\n      swap1\n      sstore\n        /* \"@openzeppelin/contracts-upgradeable/access/OwnableUpgradeable.sol\":988:1114  function __Ownable_init() internal initializer {... */\n      pop\n      jump\t// out\n        /* \"@openzeppelin/contracts-upgradeable/token/ERC20/utils/SafeERC20Upgradeable.sol\":3306:4023  function _callOptionalReturn(IERC20Upgradeable token, bytes memory data) private {... */\n    tag_401:\n        /* \"@openzeppelin/contracts-upgradeable/token/ERC20/utils/SafeERC20Upgradeable.sol\":3736:3759  bytes memory returndata */\n      0x00\n        /* \"@openzeppelin/contracts-upgradeable/token/ERC20/utils/SafeERC20Upgradeable.sol\":3762:3831  address(token).functionCall(data, \"SafeERC20: low-level call failed\") */\n      tag_543\n        /* \"@openzeppelin/contracts-upgradeable/token/ERC20/utils/SafeERC20Upgradeable.sol\":3790:3794  data */\n      dup3\n        /* \"@openzeppelin/contracts-upgradeable/token/ERC20/utils/SafeERC20Upgradeable.sol\":3762:3831  address(token).functionCall(data, \"SafeERC20: low-level call failed\") */\n      mload(0x40)\n      dup1\n      0x40\n      add\n      0x40\n      mstore\n      dup1\n      0x20\n      dup2\n      mstore\n      0x20\n      add\n      0x5361666545524332303a206c6f772d6c6576656c2063616c6c206661696c6564\n      dup2\n      mstore\n      pop\n        /* \"@openzeppelin/contracts-upgradeable/token/ERC20/utils/SafeERC20Upgradeable.sol\":3770:3775  token */\n      dup6\n      sub(shl(0xa0, 0x01), 0x01)\n        /* \"@openzeppelin/contracts-upgradeable/token/ERC20/utils/SafeERC20Upgradeable.sol\":3762:3789  address(token).functionCall */\n      and\n      tag_544\n      swap1\n        /* \"@openzeppelin/contracts-upgradeable/token/ERC20/utils/SafeERC20Upgradeable.sol\":3762:3831  address(token).functionCall(data, \"SafeERC20: low-level call failed\") */\n      swap3\n      swap2\n      swap1\n      0xffffffff\n      and\n      jump\t// in\n    tag_543:\n        /* \"@openzeppelin/contracts-upgradeable/token/ERC20/utils/SafeERC20Upgradeable.sol\":3845:3862  returndata.length */\n      dup1\n      mload\n        /* \"@openzeppelin/contracts-upgradeable/token/ERC20/utils/SafeERC20Upgradeable.sol\":3736:3831  bytes memory returndata = address(token).functionCall(data, \"SafeERC20: low-level call failed\") */\n      swap1\n      swap2\n      pop\n        /* \"@openzeppelin/contracts-upgradeable/token/ERC20/utils/SafeERC20Upgradeable.sol\":3845:3866  returndata.length > 0 */\n      iszero\n        /* \"@openzeppelin/contracts-upgradeable/token/ERC20/utils/SafeERC20Upgradeable.sol\":3841:4017  if (returndata.length > 0) {... */\n      tag_403\n      jumpi\n        /* \"@openzeppelin/contracts-upgradeable/token/ERC20/utils/SafeERC20Upgradeable.sol\":3940:3950  returndata */\n      dup1\n        /* \"@openzeppelin/contracts-upgradeable/token/ERC20/utils/SafeERC20Upgradeable.sol\":3929:3959  abi.decode(returndata, (bool)) */\n      dup1\n      0x20\n      add\n      swap1\n      mload\n      dup2\n      add\n      swap1\n      tag_546\n      swap2\n      swap1\n      tag_236\n      jump\t// in\n    tag_546:\n        /* \"@openzeppelin/contracts-upgradeable/token/ERC20/utils/SafeERC20Upgradeable.sol\":3921:4006  require(abi.decode(returndata, (bool)), \"SafeERC20: ERC20 operation did not succeed\") */\n      tag_403\n      jumpi\n      mload(0x40)\n      shl(0xe5, 0x461bcd)\n      dup2\n      mstore\n      0x04\n      add\n      tag_200\n      swap1\n      tag_549\n      jump\t// in\n        /* \"@openzeppelin/contracts-upgradeable/utils/math/SafeMathUpgradeable.sol\":2752:2848  function add(uint256 a, uint256 b) internal pure returns (uint256) {... */\n    tag_448:\n        /* \"@openzeppelin/contracts-upgradeable/utils/math/SafeMathUpgradeable.sol\":2810:2817  uint256 */\n      0x00\n        /* \"@openzeppelin/contracts-upgradeable/utils/math/SafeMathUpgradeable.sol\":2836:2841  a + b */\n      tag_390\n        /* \"@openzeppelin/contracts-upgradeable/utils/math/SafeMathUpgradeable.sol\":2840:2841  b */\n      dup3\n        /* \"@openzeppelin/contracts-upgradeable/utils/math/SafeMathUpgradeable.sol\":2836:2837  a */\n      dup5\n        /* \"@openzeppelin/contracts-upgradeable/utils/math/SafeMathUpgradeable.sol\":2836:2841  a + b */\n      tag_417\n      jump\t// in\n        /* \"contracts/mirrorseaMain.sol\":11784:12164  function cutListItem(... */\n    tag_525:\n        /* \"contracts/mirrorseaMain.sol\":11941:11957  uint256 delIndex */\n      0x00\n        /* \"contracts/mirrorseaMain.sol\":11960:11976  _List_index[_id] */\n      dup4\n      dup2\n      mstore\n      0x20\n      dup4\n      swap1\n      mstore\n      0x40\n      dup2\n      keccak256\n      sload\n        /* \"contracts/mirrorseaMain.sol\":12009:12021  _List.length */\n      dup3\n      sload\n        /* \"contracts/mirrorseaMain.sol\":11960:11976  _List_index[_id] */\n      swap1\n      swap2\n        /* \"contracts/mirrorseaMain.sol\":11941:11957  uint256 delIndex */\n      swap1\n        /* \"contracts/mirrorseaMain.sol\":12003:12008  _List */\n      dup4\n      swap1\n        /* \"contracts/mirrorseaMain.sol\":12009:12028  _List.length.sub(1) */\n      tag_553\n      swap1\n        /* \"contracts/mirrorseaMain.sol\":12026:12027  1 */\n      0x01\n        /* \"contracts/mirrorseaMain.sol\":12009:12025  _List.length.sub */\n      tag_192\n        /* \"contracts/mirrorseaMain.sol\":12009:12028  _List.length.sub(1) */\n      jump\t// in\n    tag_553:\n        /* \"contracts/mirrorseaMain.sol\":12003:12029  _List[_List.length.sub(1)] */\n      dup2\n      sload\n      dup2\n      lt\n      tag_554\n      jumpi\n      mstore(0x00, shl(0xe0, 0x4e487b71))\n      mstore(0x04, 0x32)\n      revert(0x00, 0x24)\n    tag_554:\n      swap1\n      0x00\n      mstore\n      keccak256(0x00, 0x20)\n      add\n      sload\n        /* \"contracts/mirrorseaMain.sol\":11986:12029  uint256 lastID = _List[_List.length.sub(1)] */\n      swap1\n      pop\n        /* \"contracts/mirrorseaMain.sol\":12061:12069  delIndex */\n      dup2\n        /* \"contracts/mirrorseaMain.sol\":12039:12050  _List_index */\n      dup5\n        /* \"contracts/mirrorseaMain.sol\":12039:12058  _List_index[lastID] */\n      0x00\n        /* \"contracts/mirrorseaMain.sol\":12051:12057  lastID */\n      dup4\n        /* \"contracts/mirrorseaMain.sol\":12039:12058  _List_index[lastID] */\n      dup2\n      mstore\n      0x20\n      add\n      swap1\n      dup2\n      mstore\n      0x20\n      add\n      0x00\n      keccak256\n        /* \"contracts/mirrorseaMain.sol\":12039:12069  _List_index[lastID] = delIndex */\n      dup2\n      swap1\n      sstore\n      pop\n        /* \"contracts/mirrorseaMain.sol\":12097:12103  lastID */\n      dup1\n        /* \"contracts/mirrorseaMain.sol\":12079:12084  _List */\n      dup4\n        /* \"contracts/mirrorseaMain.sol\":12085:12093  delIndex */\n      dup4\n        /* \"contracts/mirrorseaMain.sol\":12079:12094  _List[delIndex] */\n      dup2\n      sload\n      dup2\n      lt\n      tag_556\n      jumpi\n      mstore(0x00, shl(0xe0, 0x4e487b71))\n      mstore(0x04, 0x32)\n      revert(0x00, 0x24)\n    tag_556:\n      0x00\n      swap2\n      dup3\n      mstore\n      0x20\n      dup1\n      dup4\n      keccak256\n      swap1\n      swap2\n      add\n        /* \"contracts/mirrorseaMain.sol\":12079:12103  _List[delIndex] = lastID */\n      swap3\n      swap1\n      swap3\n      sstore\n        /* \"contracts/mirrorseaMain.sol\":12120:12136  _List_index[_id] */\n      dup7\n      dup2\n      mstore\n      swap1\n      dup6\n      swap1\n      mstore\n      0x40\n      dup2\n      keccak256\n        /* \"contracts/mirrorseaMain.sol\":12113:12136  delete _List_index[_id] */\n      sstore\n        /* \"contracts/mirrorseaMain.sol\":12146:12157  _List.pop() */\n      dup3\n      sload\n        /* \"contracts/mirrorseaMain.sol\":12146:12151  _List */\n      dup4\n      swap1\n        /* \"contracts/mirrorseaMain.sol\":12146:12157  _List.pop() */\n      dup1\n      tag_558\n      jumpi\n      mstore(0x00, shl(0xe0, 0x4e487b71))\n      mstore(0x04, 0x31)\n      revert(0x00, 0x24)\n    tag_558:\n      0x01\n      swap1\n      sub\n      dup2\n      dup2\n      swap1\n      0x00\n      mstore\n      keccak256(0x00, 0x20)\n      add\n      0x00\n      swap1\n      sstore\n      swap1\n      sstore\n        /* \"contracts/mirrorseaMain.sol\":11784:12164  function cutListItem(... */\n      pop\n      pop\n      pop\n      pop\n      pop\n      jump\t// out\n        /* \"@openzeppelin/contracts-upgradeable/utils/ContextUpgradeable.sol\":807:871  function __Context_init_unchained() internal initializer {... */\n    tag_538:\n        /* \"@openzeppelin/contracts-upgradeable/proxy/utils/Initializable.sol\":539:552  _initializing */\n      sload(0x00)\n      0x0100\n      swap1\n      div\n      0xff\n      and\n      dup1\n        /* \"@openzeppelin/contracts-upgradeable/proxy/utils/Initializable.sol\":539:569  _initializing || !_initialized */\n      tag_561\n      jumpi\n      pop\n        /* \"@openzeppelin/contracts-upgradeable/proxy/utils/Initializable.sol\":557:569  _initialized */\n      and(0xff, sload(0x00))\n        /* \"@openzeppelin/contracts-upgradeable/proxy/utils/Initializable.sol\":556:569  !_initialized */\n      iszero\n        /* \"@openzeppelin/contracts-upgradeable/proxy/utils/Initializable.sol\":539:569  _initializing || !_initialized */\n    tag_561:\n        /* \"@openzeppelin/contracts-upgradeable/proxy/utils/Initializable.sol\":531:620  require(_initializing || !_initialized, \"Initializable: contract is already initialized\") */\n      tag_562\n      jumpi\n      mload(0x40)\n      shl(0xe5, 0x461bcd)\n      dup2\n      mstore\n      0x04\n      add\n      tag_200\n      swap1\n      tag_376\n      jump\t// in\n    tag_562:\n        /* \"@openzeppelin/contracts-upgradeable/proxy/utils/Initializable.sol\":631:650  bool isTopLevelCall */\n      0x00\n        /* \"@openzeppelin/contracts-upgradeable/proxy/utils/Initializable.sol\":654:667  _initializing */\n      sload\n      0x0100\n      swap1\n      div\n      0xff\n      and\n        /* \"@openzeppelin/contracts-upgradeable/proxy/utils/Initializable.sol\":653:667  !_initializing */\n      iszero\n        /* \"@openzeppelin/contracts-upgradeable/proxy/utils/Initializable.sol\":677:775  if (isTopLevelCall) {... */\n      dup1\n      iszero\n      tag_539\n      jumpi\n        /* \"@openzeppelin/contracts-upgradeable/proxy/utils/Initializable.sol\":711:724  _initializing */\n      0x00\n        /* \"@openzeppelin/contracts-upgradeable/proxy/utils/Initializable.sol\":711:731  _initializing = true */\n      dup1\n      sload\n      not(0xff)\n      not(0xff00)\n      swap1\n      swap2\n      and\n      0x0100\n      or\n        /* \"@openzeppelin/contracts-upgradeable/proxy/utils/Initializable.sol\":745:764  _initialized = true */\n      and\n        /* \"@openzeppelin/contracts-upgradeable/proxy/utils/Initializable.sol\":727:731  true */\n      0x01\n        /* \"@openzeppelin/contracts-upgradeable/proxy/utils/Initializable.sol\":745:764  _initialized = true */\n      or\n      swap1\n      sstore\n        /* \"@openzeppelin/contracts-upgradeable/proxy/utils/Initializable.sol\":801:815  isTopLevelCall */\n      dup1\n        /* \"@openzeppelin/contracts-upgradeable/proxy/utils/Initializable.sol\":797:863  if (isTopLevelCall) {... */\n      iszero\n      tag_371\n      jumpi\n        /* \"@openzeppelin/contracts-upgradeable/proxy/utils/Initializable.sol\":847:852  false */\n      0x00\n        /* \"@openzeppelin/contracts-upgradeable/proxy/utils/Initializable.sol\":831:852  _initializing = false */\n      dup1\n      sload\n      not(0xff00)\n      and\n      swap1\n      sstore\n        /* \"@openzeppelin/contracts-upgradeable/utils/ContextUpgradeable.sol\":807:871  function __Context_init_unchained() internal initializer {... */\n      pop\n      jump\t// out\n        /* \"@openzeppelin/contracts-upgradeable/access/OwnableUpgradeable.sol\":1120:1226  function __Ownable_init_unchained() internal initializer {... */\n    tag_540:\n        /* \"@openzeppelin/contracts-upgradeable/proxy/utils/Initializable.sol\":539:552  _initializing */\n      sload(0x00)\n      0x0100\n      swap1\n      div\n      0xff\n      and\n      dup1\n        /* \"@openzeppelin/contracts-upgradeable/proxy/utils/Initializable.sol\":539:569  _initializing || !_initialized */\n      tag_568\n      jumpi\n      pop\n        /* \"@openzeppelin/contracts-upgradeable/proxy/utils/Initializable.sol\":557:569  _initialized */\n      and(0xff, sload(0x00))\n        /* \"@openzeppelin/contracts-upgradeable/proxy/utils/Initializable.sol\":556:569  !_initialized */\n      iszero\n        /* \"@openzeppelin/contracts-upgradeable/proxy/utils/Initializable.sol\":539:569  _initializing || !_initialized */\n    tag_568:\n        /* \"@openzeppelin/contracts-upgradeable/proxy/utils/Initializable.sol\":531:620  require(_initializing || !_initialized, \"Initializable: contract is already initialized\") */\n      tag_569\n      jumpi\n      mload(0x40)\n      shl(0xe5, 0x461bcd)\n      dup2\n      mstore\n      0x04\n      add\n      tag_200\n      swap1\n      tag_376\n      jump\t// in\n    tag_569:\n        /* \"@openzeppelin/contracts-upgradeable/proxy/utils/Initializable.sol\":631:650  bool isTopLevelCall */\n      0x00\n        /* \"@openzeppelin/contracts-upgradeable/proxy/utils/Initializable.sol\":654:667  _initializing */\n      sload\n      0x0100\n      swap1\n      div\n      0xff\n      and\n        /* \"@openzeppelin/contracts-upgradeable/proxy/utils/Initializable.sol\":653:667  !_initializing */\n      iszero\n        /* \"@openzeppelin/contracts-upgradeable/proxy/utils/Initializable.sol\":677:775  if (isTopLevelCall) {... */\n      dup1\n      iszero\n      tag_571\n      jumpi\n        /* \"@openzeppelin/contracts-upgradeable/proxy/utils/Initializable.sol\":711:724  _initializing */\n      0x00\n        /* \"@openzeppelin/contracts-upgradeable/proxy/utils/Initializable.sol\":711:731  _initializing = true */\n      dup1\n      sload\n      not(0xff)\n      not(0xff00)\n      swap1\n      swap2\n      and\n      0x0100\n      or\n        /* \"@openzeppelin/contracts-upgradeable/proxy/utils/Initializable.sol\":745:764  _initialized = true */\n      and\n        /* \"@openzeppelin/contracts-upgradeable/proxy/utils/Initializable.sol\":727:731  true */\n      0x01\n        /* \"@openzeppelin/contracts-upgradeable/proxy/utils/Initializable.sol\":745:764  _initialized = true */\n      or\n      swap1\n      sstore\n        /* \"@openzeppelin/contracts-upgradeable/proxy/utils/Initializable.sol\":677:775  if (isTopLevelCall) {... */\n    tag_571:\n        /* \"@openzeppelin/contracts-upgradeable/access/OwnableUpgradeable.sol\":1187:1219  _transferOwnership(_msgSender()) */\n      tag_539\n        /* \"@openzeppelin/contracts-upgradeable/access/OwnableUpgradeable.sol\":1206:1218  _msgSender() */\n      tag_574\n        /* \"@openzeppelin/contracts-upgradeable/access/OwnableUpgradeable.sol\":1206:1216  _msgSender */\n      tag_220\n        /* \"@openzeppelin/contracts-upgradeable/access/OwnableUpgradeable.sol\":1206:1218  _msgSender() */\n      jump\t// in\n    tag_574:\n        /* \"@openzeppelin/contracts-upgradeable/access/OwnableUpgradeable.sol\":1187:1205  _transferOwnership */\n      tag_326\n        /* \"@openzeppelin/contracts-upgradeable/access/OwnableUpgradeable.sol\":1187:1219  _transferOwnership(_msgSender()) */\n      jump\t// in\n        /* \"@openzeppelin/contracts-upgradeable/utils/AddressUpgradeable.sol\":3525:3748  function functionCall(... */\n    tag_544:\n        /* \"@openzeppelin/contracts-upgradeable/utils/AddressUpgradeable.sol\":3658:3670  bytes memory */\n      0x60\n        /* \"@openzeppelin/contracts-upgradeable/utils/AddressUpgradeable.sol\":3689:3741  functionCallWithValue(target, data, 0, errorMessage) */\n      tag_577\n        /* \"@openzeppelin/contracts-upgradeable/utils/AddressUpgradeable.sol\":3711:3717  target */\n      dup5\n        /* \"@openzeppelin/contracts-upgradeable/utils/AddressUpgradeable.sol\":3719:3723  data */\n      dup5\n        /* \"@openzeppelin/contracts-upgradeable/utils/AddressUpgradeable.sol\":3725:3726  0 */\n      0x00\n        /* \"@openzeppelin/contracts-upgradeable/utils/AddressUpgradeable.sol\":3728:3740  errorMessage */\n      dup6\n        /* \"@openzeppelin/contracts-upgradeable/utils/AddressUpgradeable.sol\":3689:3710  functionCallWithValue */\n      tag_578\n        /* \"@openzeppelin/contracts-upgradeable/utils/AddressUpgradeable.sol\":3689:3741  functionCallWithValue(target, data, 0, errorMessage) */\n      jump\t// in\n    tag_577:\n        /* \"@openzeppelin/contracts-upgradeable/utils/AddressUpgradeable.sol\":3682:3741  return functionCallWithValue(target, data, 0, errorMessage) */\n      swap5\n        /* \"@openzeppelin/contracts-upgradeable/utils/AddressUpgradeable.sol\":3525:3748  function functionCall(... */\n      swap4\n      pop\n      pop\n      pop\n      pop\n      jump\t// out\n        /* \"@openzeppelin/contracts-upgradeable/utils/AddressUpgradeable.sol\":4612:5111  function functionCallWithValue(... */\n    tag_578:\n        /* \"@openzeppelin/contracts-upgradeable/utils/AddressUpgradeable.sol\":4777:4789  bytes memory */\n      0x60\n        /* \"@openzeppelin/contracts-upgradeable/utils/AddressUpgradeable.sol\":4834:4839  value */\n      dup3\n        /* \"@openzeppelin/contracts-upgradeable/utils/AddressUpgradeable.sol\":4809:4830  address(this).balance */\n      selfbalance\n        /* \"@openzeppelin/contracts-upgradeable/utils/AddressUpgradeable.sol\":4809:4839  address(this).balance >= value */\n      lt\n      iszero\n        /* \"@openzeppelin/contracts-upgradeable/utils/AddressUpgradeable.sol\":4801:4882  require(address(this).balance >= value, \"Address: insufficient balance for call\") */\n      tag_580\n      jumpi\n      mload(0x40)\n      shl(0xe5, 0x461bcd)\n      dup2\n      mstore\n      0x04\n      add\n      tag_200\n      swap1\n      tag_582\n      jump\t// in\n    tag_580:\n        /* \"@openzeppelin/contracts-upgradeable/utils/AddressUpgradeable.sol\":4900:4918  isContract(target) */\n      tag_583\n        /* \"@openzeppelin/contracts-upgradeable/utils/AddressUpgradeable.sol\":4911:4917  target */\n      dup6\n        /* \"@openzeppelin/contracts-upgradeable/utils/AddressUpgradeable.sol\":4900:4910  isContract */\n      tag_584\n        /* \"@openzeppelin/contracts-upgradeable/utils/AddressUpgradeable.sol\":4900:4918  isContract(target) */\n      jump\t// in\n    tag_583:\n        /* \"@openzeppelin/contracts-upgradeable/utils/AddressUpgradeable.sol\":4892:4952  require(isContract(target), \"Address: call to non-contract\") */\n      tag_585\n      jumpi\n      mload(0x40)\n      shl(0xe5, 0x461bcd)\n      dup2\n      mstore\n      0x04\n      add\n      tag_200\n      swap1\n      tag_587\n      jump\t// in\n    tag_585:\n        /* \"@openzeppelin/contracts-upgradeable/utils/AddressUpgradeable.sol\":4964:4976  bool success */\n      0x00\n        /* \"@openzeppelin/contracts-upgradeable/utils/AddressUpgradeable.sol\":4978:5001  bytes memory returndata */\n      dup1\n        /* \"@openzeppelin/contracts-upgradeable/utils/AddressUpgradeable.sol\":5005:5011  target */\n      dup7\n      sub(shl(0xa0, 0x01), 0x01)\n        /* \"@openzeppelin/contracts-upgradeable/utils/AddressUpgradeable.sol\":5005:5016  target.call */\n      and\n        /* \"@openzeppelin/contracts-upgradeable/utils/AddressUpgradeable.sol\":5024:5029  value */\n      dup6\n        /* \"@openzeppelin/contracts-upgradeable/utils/AddressUpgradeable.sol\":5031:5035  data */\n      dup8\n        /* \"@openzeppelin/contracts-upgradeable/utils/AddressUpgradeable.sol\":5005:5036  target.call{value: value}(data) */\n      mload(0x40)\n      tag_588\n      swap2\n      swap1\n      tag_589\n      jump\t// in\n    tag_588:\n      0x00\n      mload(0x40)\n      dup1\n      dup4\n      sub\n      dup2\n      dup6\n      dup8\n      gas\n      call\n      swap3\n      pop\n      pop\n      pop\n      returndatasize\n      dup1\n      0x00\n      dup2\n      eq\n      tag_592\n      jumpi\n      mload(0x40)\n      swap2\n      pop\n      and(add(returndatasize, 0x3f), not(0x1f))\n      dup3\n      add\n      0x40\n      mstore\n      returndatasize\n      dup3\n      mstore\n      returndatasize\n      0x00\n      0x20\n      dup5\n      add\n      returndatacopy\n      jump(tag_591)\n    tag_592:\n      0x60\n      swap2\n      pop\n    tag_591:\n      pop\n        /* \"@openzeppelin/contracts-upgradeable/utils/AddressUpgradeable.sol\":4963:5036  (bool success, bytes memory returndata) = target.call{value: value}(data) */\n      swap2\n      pop\n      swap2\n      pop\n        /* \"@openzeppelin/contracts-upgradeable/utils/AddressUpgradeable.sol\":5053:5104  verifyCallResult(success, returndata, errorMessage) */\n      tag_593\n        /* \"@openzeppelin/contracts-upgradeable/utils/AddressUpgradeable.sol\":5070:5077  success */\n      dup3\n        /* \"@openzeppelin/contracts-upgradeable/utils/AddressUpgradeable.sol\":5079:5089  returndata */\n      dup3\n        /* \"@openzeppelin/contracts-upgradeable/utils/AddressUpgradeable.sol\":5091:5103  errorMessage */\n      dup7\n        /* \"@openzeppelin/contracts-upgradeable/utils/AddressUpgradeable.sol\":5053:5069  verifyCallResult */\n      tag_594\n        /* \"@openzeppelin/contracts-upgradeable/utils/AddressUpgradeable.sol\":5053:5104  verifyCallResult(success, returndata, errorMessage) */\n      jump\t// in\n    tag_593:\n        /* \"@openzeppelin/contracts-upgradeable/utils/AddressUpgradeable.sol\":5046:5104  return verifyCallResult(success, returndata, errorMessage) */\n      swap8\n        /* \"@openzeppelin/contracts-upgradeable/utils/AddressUpgradeable.sol\":4612:5111  function functionCallWithValue(... */\n      swap7\n      pop\n      pop\n      pop\n      pop\n      pop\n      pop\n      pop\n      jump\t// out\n        /* \"@openzeppelin/contracts-upgradeable/utils/AddressUpgradeable.sol\":782:1159  function isContract(address account) internal view returns (bool) {... */\n    tag_584:\n        /* \"@openzeppelin/contracts-upgradeable/utils/AddressUpgradeable.sol\":1098:1118  extcodesize(account) */\n      extcodesize\n        /* \"@openzeppelin/contracts-upgradeable/utils/AddressUpgradeable.sol\":1144:1152  size > 0 */\n      iszero\n      iszero\n      swap1\n        /* \"@openzeppelin/contracts-upgradeable/utils/AddressUpgradeable.sol\":782:1159  function isContract(address account) internal view returns (bool) {... */\n      jump\t// out\n        /* \"@openzeppelin/contracts-upgradeable/utils/AddressUpgradeable.sol\":6275:6967  function verifyCallResult(... */\n    tag_594:\n        /* \"@openzeppelin/contracts-upgradeable/utils/AddressUpgradeable.sol\":6421:6433  bytes memory */\n      0x60\n        /* \"@openzeppelin/contracts-upgradeable/utils/AddressUpgradeable.sol\":6449:6456  success */\n      dup4\n        /* \"@openzeppelin/contracts-upgradeable/utils/AddressUpgradeable.sol\":6445:6961  if (success) {... */\n      iszero\n      tag_597\n      jumpi\n      pop\n        /* \"@openzeppelin/contracts-upgradeable/utils/AddressUpgradeable.sol\":6479:6489  returndata */\n      dup2\n        /* \"@openzeppelin/contracts-upgradeable/utils/AddressUpgradeable.sol\":6472:6489  return returndata */\n      jump(tag_390)\n        /* \"@openzeppelin/contracts-upgradeable/utils/AddressUpgradeable.sol\":6445:6961  if (success) {... */\n    tag_597:\n        /* \"@openzeppelin/contracts-upgradeable/utils/AddressUpgradeable.sol\":6590:6607  returndata.length */\n      dup3\n      mload\n        /* \"@openzeppelin/contracts-upgradeable/utils/AddressUpgradeable.sol\":6590:6611  returndata.length > 0 */\n      iszero\n        /* \"@openzeppelin/contracts-upgradeable/utils/AddressUpgradeable.sol\":6586:6951  if (returndata.length > 0) {... */\n      tag_599\n      jumpi\n        /* \"@openzeppelin/contracts-upgradeable/utils/AddressUpgradeable.sol\":6784:6794  returndata */\n      dup3\n        /* \"@openzeppelin/contracts-upgradeable/utils/AddressUpgradeable.sol\":6778:6795  mload(returndata) */\n      mload\n        /* \"@openzeppelin/contracts-upgradeable/utils/AddressUpgradeable.sol\":6844:6859  returndata_size */\n      dup1\n        /* \"@openzeppelin/contracts-upgradeable/utils/AddressUpgradeable.sol\":6831:6841  returndata */\n      dup5\n        /* \"@openzeppelin/contracts-upgradeable/utils/AddressUpgradeable.sol\":6827:6829  32 */\n      0x20\n        /* \"@openzeppelin/contracts-upgradeable/utils/AddressUpgradeable.sol\":6823:6842  add(32, returndata) */\n      add\n        /* \"@openzeppelin/contracts-upgradeable/utils/AddressUpgradeable.sol\":6816:6860  revert(add(32, returndata), returndata_size) */\n      revert\n        /* \"@openzeppelin/contracts-upgradeable/utils/AddressUpgradeable.sol\":6733:6878  {... */\n    tag_599:\n        /* \"@openzeppelin/contracts-upgradeable/utils/AddressUpgradeable.sol\":6923:6935  errorMessage */\n      dup2\n        /* \"@openzeppelin/contracts-upgradeable/utils/AddressUpgradeable.sol\":6916:6936  revert(errorMessage) */\n      mload(0x40)\n      shl(0xe5, 0x461bcd)\n      dup2\n      mstore\n      0x04\n      add\n      tag_200\n      swap2\n      swap1\n      tag_602\n      jump\t// in\n    tag_275:\n      dup3\n      dup1\n      sload\n      tag_603\n      swap1\n      tag_303\n      jump\t// in\n    tag_603:\n      swap1\n      0x00\n      mstore\n      keccak256(0x00, 0x20)\n      swap1\n      0x1f\n      add\n      0x20\n      swap1\n      div\n      dup2\n      add\n      swap3\n      dup3\n      tag_605\n      jumpi\n      0x00\n      dup6\n      sstore\n      jump(tag_608)\n    tag_605:\n      dup3\n      0x1f\n      lt\n      tag_606\n      jumpi\n      dup1\n      mload\n      not(0xff)\n      and\n      dup4\n      dup1\n      add\n      or\n      dup6\n      sstore\n      jump(tag_608)\n    tag_606:\n      dup3\n      dup1\n      add\n      0x01\n      add\n      dup6\n      sstore\n      dup3\n      iszero\n      tag_608\n      jumpi\n      swap2\n      dup3\n      add\n    tag_607:\n      dup3\n      dup2\n      gt\n      iszero\n      tag_608\n      jumpi\n      dup3\n      mload\n      dup3\n      sstore\n      swap2\n      0x20\n      add\n      swap2\n      swap1\n      0x01\n      add\n      swap1\n      jump(tag_607)\n    tag_608:\n      pop\n      tag_609\n      swap3\n      swap2\n      pop\n      tag_610\n      jump\t// in\n    tag_609:\n      pop\n      swap1\n      jump\t// out\n    tag_300:\n      mload(0x40)\n      dup1\n      0x0160\n      add\n      0x40\n      mstore\n      dup1\n      and(sub(shl(0xa0, 0x01), 0x01), 0x00)\n      dup2\n      mstore\n      0x20\n      add\n      0x00\n      dup2\n      mstore\n      0x20\n      add\n      0x60\n      dup2\n      mstore\n      0x20\n      add\n      0x00\n      dup2\n      mstore\n      0x20\n      add\n      0x00\n      dup2\n      mstore\n      0x20\n      add\n      0x00\n      dup2\n      mstore\n      0x20\n      add\n      0x00\n      dup2\n      mstore\n      0x20\n      add\n      0x00\n      dup2\n      mstore\n      0x20\n      add\n      0x00\n      dup2\n      mstore\n      0x20\n      add\n      0x00\n      dup2\n      mstore\n      0x20\n      add\n      0x00\n      dup2\n      mstore\n      pop\n      swap1\n      jump\t// out\n    tag_610:\n    tag_611:\n      dup1\n      dup3\n      gt\n      iszero\n      tag_609\n      jumpi\n      0x00\n      dup2\n      sstore\n      0x01\n      add\n      jump(tag_611)\n        /* \"#utility.yul\":14:152   */\n    tag_614:\n        /* \"#utility.yul\":84:104   */\n      dup1\n      calldataload\n        /* \"#utility.yul\":113:146   */\n      tag_301\n        /* \"#utility.yul\":84:104   */\n      dup2\n        /* \"#utility.yul\":113:146   */\n      tag_617\n      jump\t// in\n        /* \"#utility.yul\":157:826   */\n    tag_618:\n      0x00\n        /* \"#utility.yul\":268:271   */\n      dup3\n        /* \"#utility.yul\":261:265   */\n      0x1f\n        /* \"#utility.yul\":253:259   */\n      dup4\n        /* \"#utility.yul\":249:266   */\n      add\n        /* \"#utility.yul\":245:272   */\n      slt\n        /* \"#utility.yul\":235:237   */\n      tag_620\n      jumpi\n        /* \"#utility.yul\":290:295   */\n      dup1\n        /* \"#utility.yul\":283:288   */\n      dup2\n        /* \"#utility.yul\":276:296   */\n      revert\n        /* \"#utility.yul\":235:237   */\n    tag_620:\n        /* \"#utility.yul\":330:336   */\n      dup2\n        /* \"#utility.yul\":317:337   */\n      calldataload\n        /* \"#utility.yul\":356:360   */\n      0x20\n        /* \"#utility.yul\":380:443   */\n      tag_621\n        /* \"#utility.yul\":395:442   */\n      tag_622\n        /* \"#utility.yul\":439:441   */\n      dup4\n        /* \"#utility.yul\":395:442   */\n      tag_623\n      jump\t// in\n    tag_622:\n        /* \"#utility.yul\":380:443   */\n      tag_624\n      jump\t// in\n    tag_621:\n        /* \"#utility.yul\":477:492   */\n      dup3\n      dup2\n      mstore\n        /* \"#utility.yul\":508:520   */\n      dup2\n      dup2\n      add\n      swap1\n        /* \"#utility.yul\":540:555   */\n      dup6\n      dup4\n      add\n        /* \"#utility.yul\":573:578   */\n      dup6\n        /* \"#utility.yul\":587:797   */\n    tag_625:\n        /* \"#utility.yul\":601:603   */\n      dup6\n        /* \"#utility.yul\":598:599   */\n      dup2\n        /* \"#utility.yul\":595:604   */\n      lt\n        /* \"#utility.yul\":587:797   */\n      iszero\n      tag_627\n      jumpi\n        /* \"#utility.yul\":658:722   */\n      tag_628\n        /* \"#utility.yul\":718:721   */\n      dup10\n        /* \"#utility.yul\":713:715   */\n      dup7\n        /* \"#utility.yul\":706:709   */\n      dup5\n        /* \"#utility.yul\":693:710   */\n      calldataload\n        /* \"#utility.yul\":685:691   */\n      dup12\n        /* \"#utility.yul\":681:711   */\n      add\n        /* \"#utility.yul\":677:716   */\n      add\n        /* \"#utility.yul\":658:722   */\n      tag_629\n      jump\t// in\n    tag_628:\n        /* \"#utility.yul\":646:723   */\n      dup5\n      mstore\n        /* \"#utility.yul\":743:755   */\n      swap3\n      dup5\n      add\n      swap3\n        /* \"#utility.yul\":775:787   */\n      swap1\n      dup5\n      add\n      swap1\n        /* \"#utility.yul\":619:620   */\n      0x01\n        /* \"#utility.yul\":612:621   */\n      add\n        /* \"#utility.yul\":587:797   */\n      jump(tag_625)\n    tag_627:\n      pop\n        /* \"#utility.yul\":815:820   */\n      swap1\n      swap8\n        /* \"#utility.yul\":225:826   */\n      swap7\n      pop\n      pop\n      pop\n      pop\n      pop\n      pop\n      pop\n      jump\t// out\n        /* \"#utility.yul\":831:1534   */\n    tag_630:\n      0x00\n        /* \"#utility.yul\":944:947   */\n      dup3\n        /* \"#utility.yul\":937:941   */\n      0x1f\n        /* \"#utility.yul\":929:935   */\n      dup4\n        /* \"#utility.yul\":925:942   */\n      add\n        /* \"#utility.yul\":921:948   */\n      slt\n        /* \"#utility.yul\":911:913   */\n      tag_632\n      jumpi\n        /* \"#utility.yul\":966:971   */\n      dup1\n        /* \"#utility.yul\":959:964   */\n      dup2\n        /* \"#utility.yul\":952:972   */\n      revert\n        /* \"#utility.yul\":911:913   */\n    tag_632:\n        /* \"#utility.yul\":1006:1012   */\n      dup2\n        /* \"#utility.yul\":993:1013   */\n      calldataload\n        /* \"#utility.yul\":1032:1036   */\n      0x20\n        /* \"#utility.yul\":1056:1119   */\n      tag_633\n        /* \"#utility.yul\":1071:1118   */\n      tag_622\n        /* \"#utility.yul\":1115:1117   */\n      dup4\n        /* \"#utility.yul\":1071:1118   */\n      tag_623\n      jump\t// in\n        /* \"#utility.yul\":1056:1119   */\n    tag_633:\n        /* \"#utility.yul\":1153:1168   */\n      dup3\n      dup2\n      mstore\n        /* \"#utility.yul\":1184:1196   */\n      dup2\n      dup2\n      add\n      swap1\n        /* \"#utility.yul\":1216:1231   */\n      dup6\n      dup4\n      add\n        /* \"#utility.yul\":1262:1273   */\n      dup4\n      dup6\n      mul\n        /* \"#utility.yul\":1250:1274   */\n      dup8\n      add\n        /* \"#utility.yul\":1246:1279   */\n      dup5\n      add\n        /* \"#utility.yul\":1243:1285   */\n      dup9\n      lt\n        /* \"#utility.yul\":1240:1242   */\n      iszero\n      tag_635\n      jumpi\n        /* \"#utility.yul\":1302:1307   */\n      dup6\n        /* \"#utility.yul\":1295:1300   */\n      dup7\n        /* \"#utility.yul\":1288:1308   */\n      revert\n        /* \"#utility.yul\":1240:1242   */\n    tag_635:\n        /* \"#utility.yul\":1328:1333   */\n      dup6\n        /* \"#utility.yul\":1342:1505   */\n    tag_636:\n        /* \"#utility.yul\":1356:1358   */\n      dup6\n        /* \"#utility.yul\":1353:1354   */\n      dup2\n        /* \"#utility.yul\":1350:1359   */\n      lt\n        /* \"#utility.yul\":1342:1505   */\n      iszero\n      tag_627\n      jumpi\n        /* \"#utility.yul\":1413:1430   */\n      dup2\n      calldataload\n        /* \"#utility.yul\":1401:1431   */\n      dup5\n      mstore\n        /* \"#utility.yul\":1451:1463   */\n      swap3\n      dup5\n      add\n      swap3\n        /* \"#utility.yul\":1483:1495   */\n      swap1\n      dup5\n      add\n      swap1\n        /* \"#utility.yul\":1374:1375   */\n      0x01\n        /* \"#utility.yul\":1367:1376   */\n      add\n        /* \"#utility.yul\":1342:1505   */\n      jump(tag_636)\n        /* \"#utility.yul\":1539:1671   */\n    tag_639:\n        /* \"#utility.yul\":1606:1626   */\n      dup1\n      calldataload\n        /* \"#utility.yul\":1635:1665   */\n      tag_301\n        /* \"#utility.yul\":1606:1626   */\n      dup2\n        /* \"#utility.yul\":1635:1665   */\n      tag_642\n      jump\t// in\n        /* \"#utility.yul\":1676:2227   */\n    tag_629:\n      0x00\n        /* \"#utility.yul\":1773:1776   */\n      dup3\n        /* \"#utility.yul\":1766:1770   */\n      0x1f\n        /* \"#utility.yul\":1758:1764   */\n      dup4\n        /* \"#utility.yul\":1754:1771   */\n      add\n        /* \"#utility.yul\":1750:1777   */\n      slt\n        /* \"#utility.yul\":1740:1742   */\n      tag_644\n      jumpi\n        /* \"#utility.yul\":1795:1800   */\n      dup1\n        /* \"#utility.yul\":1788:1793   */\n      dup2\n        /* \"#utility.yul\":1781:1801   */\n      revert\n        /* \"#utility.yul\":1740:1742   */\n    tag_644:\n        /* \"#utility.yul\":1835:1841   */\n      dup2\n        /* \"#utility.yul\":1822:1842   */\n      calldataload\n        /* \"#utility.yul\":1861:1879   */\n      0xffffffffffffffff\n        /* \"#utility.yul\":1857:1859   */\n      dup2\n        /* \"#utility.yul\":1854:1880   */\n      gt\n        /* \"#utility.yul\":1851:1853   */\n      iszero\n      tag_646\n      jumpi\n        /* \"#utility.yul\":1883:1901   */\n      tag_646\n      tag_647\n      jump\t// in\n    tag_646:\n        /* \"#utility.yul\":1927:1981   */\n      tag_648\n        /* \"#utility.yul\":1969:1971   */\n      0x1f\n        /* \"#utility.yul\":1950:1963   */\n      dup3\n      add\n      not(0x1f)\n        /* \"#utility.yul\":1946:1973   */\n      and\n        /* \"#utility.yul\":1975:1979   */\n      0x20\n        /* \"#utility.yul\":1942:1980   */\n      add\n        /* \"#utility.yul\":1927:1981   */\n      tag_624\n      jump\t// in\n    tag_648:\n        /* \"#utility.yul\":2006:2008   */\n      dup2\n        /* \"#utility.yul\":1997:2004   */\n      dup2\n        /* \"#utility.yul\":1990:2009   */\n      mstore\n        /* \"#utility.yul\":2052:2055   */\n      dup5\n        /* \"#utility.yul\":2045:2049   */\n      0x20\n        /* \"#utility.yul\":2040:2042   */\n      dup4\n        /* \"#utility.yul\":2032:2038   */\n      dup7\n        /* \"#utility.yul\":2028:2043   */\n      add\n        /* \"#utility.yul\":2024:2050   */\n      add\n        /* \"#utility.yul\":2021:2056   */\n      gt\n        /* \"#utility.yul\":2018:2020   */\n      iszero\n      tag_649\n      jumpi\n        /* \"#utility.yul\":2073:2078   */\n      dup3\n        /* \"#utility.yul\":2066:2071   */\n      dup4\n        /* \"#utility.yul\":2059:2079   */\n      revert\n        /* \"#utility.yul\":2018:2020   */\n    tag_649:\n        /* \"#utility.yul\":2142:2144   */\n      dup2\n        /* \"#utility.yul\":2135:2139   */\n      0x20\n        /* \"#utility.yul\":2127:2133   */\n      dup6\n        /* \"#utility.yul\":2123:2140   */\n      add\n        /* \"#utility.yul\":2116:2120   */\n      0x20\n        /* \"#utility.yul\":2107:2114   */\n      dup4\n        /* \"#utility.yul\":2103:2121   */\n      add\n        /* \"#utility.yul\":2090:2145   */\n      calldatacopy\n        /* \"#utility.yul\":2165:2181   */\n      swap1\n      dup2\n      add\n        /* \"#utility.yul\":2183:2187   */\n      0x20\n        /* \"#utility.yul\":2161:2188   */\n      add\n        /* \"#utility.yul\":2154:2196   */\n      swap2\n      swap1\n      swap2\n      mstore\n        /* \"#utility.yul\":2169:2176   */\n      swap3\n        /* \"#utility.yul\":1730:2227   */\n      swap2\n      pop\n      pop\n      jump\t// out\n        /* \"#utility.yul\":2232:2491   */\n    tag_83:\n      0x00\n        /* \"#utility.yul\":2344:2346   */\n      0x20\n        /* \"#utility.yul\":2332:2341   */\n      dup3\n        /* \"#utility.yul\":2323:2330   */\n      dup5\n        /* \"#utility.yul\":2319:2342   */\n      sub\n        /* \"#utility.yul\":2315:2347   */\n      slt\n        /* \"#utility.yul\":2312:2314   */\n      iszero\n      tag_651\n      jumpi\n        /* \"#utility.yul\":2365:2371   */\n      dup1\n        /* \"#utility.yul\":2357:2363   */\n      dup2\n        /* \"#utility.yul\":2350:2372   */\n      revert\n        /* \"#utility.yul\":2312:2314   */\n    tag_651:\n        /* \"#utility.yul\":2409:2418   */\n      dup2\n        /* \"#utility.yul\":2396:2419   */\n      calldataload\n        /* \"#utility.yul\":2428:2461   */\n      tag_390\n        /* \"#utility.yul\":2455:2460   */\n      dup2\n        /* \"#utility.yul\":2428:2461   */\n      tag_617\n      jump\t// in\n        /* \"#utility.yul\":2496:2892   */\n    tag_56:\n      0x00\n      dup1\n        /* \"#utility.yul\":2622:2624   */\n      0x40\n        /* \"#utility.yul\":2610:2619   */\n      dup4\n        /* \"#utility.yul\":2601:2608   */\n      dup6\n        /* \"#utility.yul\":2597:2620   */\n      sub\n        /* \"#utility.yul\":2593:2625   */\n      slt\n        /* \"#utility.yul\":2590:2592   */\n      iszero\n      tag_654\n      jumpi\n        /* \"#utility.yul\":2643:2649   */\n      dup1\n        /* \"#utility.yul\":2635:2641   */\n      dup2\n        /* \"#utility.yul\":2628:2650   */\n      revert\n        /* \"#utility.yul\":2590:2592   */\n    tag_654:\n        /* \"#utility.yul\":2687:2696   */\n      dup3\n        /* \"#utility.yul\":2674:2697   */\n      calldataload\n        /* \"#utility.yul\":2706:2739   */\n      tag_655\n        /* \"#utility.yul\":2733:2738   */\n      dup2\n        /* \"#utility.yul\":2706:2739   */\n      tag_617\n      jump\t// in\n    tag_655:\n        /* \"#utility.yul\":2758:2763   */\n      swap2\n      pop\n        /* \"#utility.yul\":2815:2817   */\n      0x20\n        /* \"#utility.yul\":2800:2818   */\n      dup4\n      add\n        /* \"#utility.yul\":2787:2819   */\n      calldataload\n        /* \"#utility.yul\":2828:2860   */\n      tag_656\n        /* \"#utility.yul\":2787:2819   */\n      dup2\n        /* \"#utility.yul\":2828:2860   */\n      tag_642\n      jump\t// in\n    tag_656:\n        /* \"#utility.yul\":2879:2886   */\n      dup1\n        /* \"#utility.yul\":2869:2886   */\n      swap2\n      pop\n      pop\n        /* \"#utility.yul\":2580:2892   */\n      swap3\n      pop\n      swap3\n      swap1\n      pop\n      jump\t// out\n        /* \"#utility.yul\":2897:3648   */\n    tag_169:\n      0x00\n      dup1\n      0x00\n      dup1\n        /* \"#utility.yul\":3122:3125   */\n      0x80\n        /* \"#utility.yul\":3110:3119   */\n      dup6\n        /* \"#utility.yul\":3101:3108   */\n      dup8\n        /* \"#utility.yul\":3097:3120   */\n      sub\n        /* \"#utility.yul\":3093:3126   */\n      slt\n        /* \"#utility.yul\":3090:3092   */\n      iszero\n      tag_658\n      jumpi\n        /* \"#utility.yul\":3144:3150   */\n      dup2\n        /* \"#utility.yul\":3136:3142   */\n      dup3\n        /* \"#utility.yul\":3129:3151   */\n      revert\n        /* \"#utility.yul\":3090:3092   */\n    tag_658:\n        /* \"#utility.yul\":3188:3197   */\n      dup5\n        /* \"#utility.yul\":3175:3198   */\n      calldataload\n        /* \"#utility.yul\":3207:3240   */\n      tag_659\n        /* \"#utility.yul\":3234:3239   */\n      dup2\n        /* \"#utility.yul\":3207:3240   */\n      tag_617\n      jump\t// in\n    tag_659:\n        /* \"#utility.yul\":3259:3264   */\n      swap4\n      pop\n        /* \"#utility.yul\":3316:3318   */\n      0x20\n        /* \"#utility.yul\":3301:3319   */\n      dup6\n      add\n        /* \"#utility.yul\":3288:3320   */\n      calldataload\n        /* \"#utility.yul\":3329:3364   */\n      tag_660\n        /* \"#utility.yul\":3288:3320   */\n      dup2\n        /* \"#utility.yul\":3329:3364   */\n      tag_617\n      jump\t// in\n    tag_660:\n        /* \"#utility.yul\":3383:3390   */\n      swap3\n      pop\n        /* \"#utility.yul\":3442:3444   */\n      0x40\n        /* \"#utility.yul\":3427:3445   */\n      dup6\n      add\n        /* \"#utility.yul\":3414:3446   */\n      calldataload\n        /* \"#utility.yul\":3455:3490   */\n      tag_661\n        /* \"#utility.yul\":3414:3446   */\n      dup2\n        /* \"#utility.yul\":3455:3490   */\n      tag_617\n      jump\t// in\n    tag_661:\n        /* \"#utility.yul\":3509:3516   */\n      swap2\n      pop\n        /* \"#utility.yul\":3568:3570   */\n      0x60\n        /* \"#utility.yul\":3553:3571   */\n      dup6\n      add\n        /* \"#utility.yul\":3540:3572   */\n      calldataload\n        /* \"#utility.yul\":3581:3616   */\n      tag_662\n        /* \"#utility.yul\":3540:3572   */\n      dup2\n        /* \"#utility.yul\":3581:3616   */\n      tag_617\n      jump\t// in\n    tag_662:\n        /* \"#utility.yul\":3080:3648   */\n      swap4\n      swap7\n      swap3\n      swap6\n      pop\n      swap1\n      swap4\n      pop\n      pop\n      jump\t// out\n        /* \"#utility.yul\":3653:3980   */\n    tag_109:\n      0x00\n      dup1\n        /* \"#utility.yul\":3782:3784   */\n      0x40\n        /* \"#utility.yul\":3770:3779   */\n      dup4\n        /* \"#utility.yul\":3761:3768   */\n      dup6\n        /* \"#utility.yul\":3757:3780   */\n      sub\n        /* \"#utility.yul\":3753:3785   */\n      slt\n        /* \"#utility.yul\":3750:3752   */\n      iszero\n      tag_664\n      jumpi\n        /* \"#utility.yul\":3803:3809   */\n      dup2\n        /* \"#utility.yul\":3795:3801   */\n      dup3\n        /* \"#utility.yul\":3788:3810   */\n      revert\n        /* \"#utility.yul\":3750:3752   */\n    tag_664:\n        /* \"#utility.yul\":3847:3856   */\n      dup3\n        /* \"#utility.yul\":3834:3857   */\n      calldataload\n        /* \"#utility.yul\":3866:3899   */\n      tag_665\n        /* \"#utility.yul\":3893:3898   */\n      dup2\n        /* \"#utility.yul\":3866:3899   */\n      tag_617\n      jump\t// in\n    tag_665:\n        /* \"#utility.yul\":3918:3923   */\n      swap5\n        /* \"#utility.yul\":3970:3972   */\n      0x20\n        /* \"#utility.yul\":3955:3973   */\n      swap4\n      swap1\n      swap4\n      add\n        /* \"#utility.yul\":3942:3974   */\n      calldataload\n      swap4\n      pop\n      pop\n      pop\n        /* \"#utility.yul\":3740:3980   */\n      jump\t// out\n        /* \"#utility.yul\":3985:4449   */\n    tag_44:\n      0x00\n      dup1\n      0x00\n      dup1\n        /* \"#utility.yul\":4148:4151   */\n      0x80\n        /* \"#utility.yul\":4136:4145   */\n      dup6\n        /* \"#utility.yul\":4127:4134   */\n      dup8\n        /* \"#utility.yul\":4123:4146   */\n      sub\n        /* \"#utility.yul\":4119:4152   */\n      slt\n        /* \"#utility.yul\":4116:4118   */\n      iszero\n      tag_667\n      jumpi\n        /* \"#utility.yul\":4170:4176   */\n      dup4\n        /* \"#utility.yul\":4162:4168   */\n      dup5\n        /* \"#utility.yul\":4155:4177   */\n      revert\n        /* \"#utility.yul\":4116:4118   */\n    tag_667:\n        /* \"#utility.yul\":4214:4223   */\n      dup5\n        /* \"#utility.yul\":4201:4224   */\n      calldataload\n        /* \"#utility.yul\":4233:4266   */\n      tag_668\n        /* \"#utility.yul\":4260:4265   */\n      dup2\n        /* \"#utility.yul\":4233:4266   */\n      tag_617\n      jump\t// in\n    tag_668:\n        /* \"#utility.yul\":4285:4290   */\n      swap7\n        /* \"#utility.yul\":4337:4339   */\n      0x20\n        /* \"#utility.yul\":4322:4340   */\n      dup7\n      add\n        /* \"#utility.yul\":4309:4341   */\n      calldataload\n      swap7\n      pop\n        /* \"#utility.yul\":4388:4390   */\n      0x40\n        /* \"#utility.yul\":4373:4391   */\n      dup7\n      add\n        /* \"#utility.yul\":4360:4392   */\n      calldataload\n      swap6\n        /* \"#utility.yul\":4439:4441   */\n      0x60\n        /* \"#utility.yul\":4424:4442   */\n      add\n        /* \"#utility.yul\":4411:4443   */\n      calldataload\n      swap5\n      pop\n        /* \"#utility.yul\":4106:4449   */\n      swap3\n      pop\n      pop\n      pop\n      jump\t// out\n        /* \"#utility.yul\":4454:4711   */\n    tag_236:\n      0x00\n        /* \"#utility.yul\":4574:4576   */\n      0x20\n        /* \"#utility.yul\":4562:4571   */\n      dup3\n        /* \"#utility.yul\":4553:4560   */\n      dup5\n        /* \"#utility.yul\":4549:4572   */\n      sub\n        /* \"#utility.yul\":4545:4577   */\n      slt\n        /* \"#utility.yul\":4542:4544   */\n      iszero\n      tag_670\n      jumpi\n        /* \"#utility.yul\":4595:4601   */\n      dup1\n        /* \"#utility.yul\":4587:4593   */\n      dup2\n        /* \"#utility.yul\":4580:4602   */\n      revert\n        /* \"#utility.yul\":4542:4544   */\n    tag_670:\n        /* \"#utility.yul\":4632:4641   */\n      dup2\n        /* \"#utility.yul\":4626:4642   */\n      mload\n        /* \"#utility.yul\":4651:4681   */\n      tag_390\n        /* \"#utility.yul\":4675:4680   */\n      dup2\n        /* \"#utility.yul\":4651:4681   */\n      tag_642\n      jump\t// in\n        /* \"#utility.yul\":4716:6167   */\n    tag_88:\n      0x00\n      dup1\n      0x00\n      dup1\n      0x00\n      dup1\n        /* \"#utility.yul\":5054:5057   */\n      0xc0\n        /* \"#utility.yul\":5042:5051   */\n      dup8\n        /* \"#utility.yul\":5033:5040   */\n      dup10\n        /* \"#utility.yul\":5029:5052   */\n      sub\n        /* \"#utility.yul\":5025:5058   */\n      slt\n        /* \"#utility.yul\":5022:5024   */\n      iszero\n      tag_673\n      jumpi\n        /* \"#utility.yul\":5076:5082   */\n      dup4\n        /* \"#utility.yul\":5068:5074   */\n      dup5\n        /* \"#utility.yul\":5061:5083   */\n      revert\n        /* \"#utility.yul\":5022:5024   */\n    tag_673:\n        /* \"#utility.yul\":5104:5132   */\n      tag_674\n        /* \"#utility.yul\":5122:5131   */\n      dup8\n        /* \"#utility.yul\":5104:5132   */\n      tag_639\n      jump\t// in\n    tag_674:\n        /* \"#utility.yul\":5094:5132   */\n      swap6\n      pop\n        /* \"#utility.yul\":5183:5185   */\n      0x20\n        /* \"#utility.yul\":5172:5181   */\n      dup8\n        /* \"#utility.yul\":5168:5186   */\n      add\n        /* \"#utility.yul\":5155:5187   */\n      calldataload\n        /* \"#utility.yul\":5206:5224   */\n      0xffffffffffffffff\n        /* \"#utility.yul\":5247:5249   */\n      dup1\n        /* \"#utility.yul\":5239:5245   */\n      dup3\n        /* \"#utility.yul\":5236:5250   */\n      gt\n        /* \"#utility.yul\":5233:5235   */\n      iszero\n      tag_675\n      jumpi\n        /* \"#utility.yul\":5268:5274   */\n      dup6\n        /* \"#utility.yul\":5260:5266   */\n      dup7\n        /* \"#utility.yul\":5253:5275   */\n      revert\n        /* \"#utility.yul\":5233:5235   */\n    tag_675:\n        /* \"#utility.yul\":5296:5363   */\n      tag_676\n        /* \"#utility.yul\":5355:5362   */\n      dup11\n        /* \"#utility.yul\":5346:5352   */\n      dup4\n        /* \"#utility.yul\":5335:5344   */\n      dup12\n        /* \"#utility.yul\":5331:5353   */\n      add\n        /* \"#utility.yul\":5296:5363   */\n      tag_630\n      jump\t// in\n    tag_676:\n        /* \"#utility.yul\":5286:5363   */\n      swap7\n      pop\n        /* \"#utility.yul\":5416:5418   */\n      0x40\n        /* \"#utility.yul\":5405:5414   */\n      dup10\n        /* \"#utility.yul\":5401:5419   */\n      add\n        /* \"#utility.yul\":5388:5420   */\n      calldataload\n        /* \"#utility.yul\":5372:5420   */\n      swap2\n      pop\n        /* \"#utility.yul\":5445:5447   */\n      dup1\n        /* \"#utility.yul\":5435:5443   */\n      dup3\n        /* \"#utility.yul\":5432:5448   */\n      gt\n        /* \"#utility.yul\":5429:5431   */\n      iszero\n      tag_677\n      jumpi\n        /* \"#utility.yul\":5466:5472   */\n      dup6\n        /* \"#utility.yul\":5458:5464   */\n      dup7\n        /* \"#utility.yul\":5451:5473   */\n      revert\n        /* \"#utility.yul\":5429:5431   */\n    tag_677:\n        /* \"#utility.yul\":5494:5563   */\n      tag_678\n        /* \"#utility.yul\":5555:5562   */\n      dup11\n        /* \"#utility.yul\":5544:5552   */\n      dup4\n        /* \"#utility.yul\":5533:5542   */\n      dup12\n        /* \"#utility.yul\":5529:5553   */\n      add\n        /* \"#utility.yul\":5494:5563   */\n      tag_630\n      jump\t// in\n    tag_678:\n        /* \"#utility.yul\":5484:5563   */\n      swap6\n      pop\n        /* \"#utility.yul\":5616:5618   */\n      0x60\n        /* \"#utility.yul\":5605:5614   */\n      dup10\n        /* \"#utility.yul\":5601:5619   */\n      add\n        /* \"#utility.yul\":5588:5620   */\n      calldataload\n        /* \"#utility.yul\":5572:5620   */\n      swap2\n      pop\n        /* \"#utility.yul\":5645:5647   */\n      dup1\n        /* \"#utility.yul\":5635:5643   */\n      dup3\n        /* \"#utility.yul\":5632:5648   */\n      gt\n        /* \"#utility.yul\":5629:5631   */\n      iszero\n      tag_679\n      jumpi\n        /* \"#utility.yul\":5666:5672   */\n      dup4\n        /* \"#utility.yul\":5658:5664   */\n      dup5\n        /* \"#utility.yul\":5651:5673   */\n      revert\n        /* \"#utility.yul\":5629:5631   */\n    tag_679:\n        /* \"#utility.yul\":5694:5761   */\n      tag_680\n        /* \"#utility.yul\":5753:5760   */\n      dup11\n        /* \"#utility.yul\":5742:5750   */\n      dup4\n        /* \"#utility.yul\":5731:5740   */\n      dup12\n        /* \"#utility.yul\":5727:5751   */\n      add\n        /* \"#utility.yul\":5694:5761   */\n      tag_618\n      jump\t// in\n    tag_680:\n        /* \"#utility.yul\":5684:5761   */\n      swap5\n      pop\n        /* \"#utility.yul\":5814:5817   */\n      0x80\n        /* \"#utility.yul\":5803:5812   */\n      dup10\n        /* \"#utility.yul\":5799:5818   */\n      add\n        /* \"#utility.yul\":5786:5819   */\n      calldataload\n        /* \"#utility.yul\":5770:5819   */\n      swap2\n      pop\n        /* \"#utility.yul\":5844:5846   */\n      dup1\n        /* \"#utility.yul\":5834:5842   */\n      dup3\n        /* \"#utility.yul\":5831:5847   */\n      gt\n        /* \"#utility.yul\":5828:5830   */\n      iszero\n      tag_681\n      jumpi\n        /* \"#utility.yul\":5865:5871   */\n      dup4\n        /* \"#utility.yul\":5857:5863   */\n      dup5\n        /* \"#utility.yul\":5850:5872   */\n      revert\n        /* \"#utility.yul\":5828:5830   */\n    tag_681:\n        /* \"#utility.yul\":5893:5962   */\n      tag_682\n        /* \"#utility.yul\":5954:5961   */\n      dup11\n        /* \"#utility.yul\":5943:5951   */\n      dup4\n        /* \"#utility.yul\":5932:5941   */\n      dup12\n        /* \"#utility.yul\":5928:5952   */\n      add\n        /* \"#utility.yul\":5893:5962   */\n      tag_630\n      jump\t// in\n    tag_682:\n        /* \"#utility.yul\":5883:5962   */\n      swap4\n      pop\n        /* \"#utility.yul\":6015:6018   */\n      0xa0\n        /* \"#utility.yul\":6004:6013   */\n      dup10\n        /* \"#utility.yul\":6000:6019   */\n      add\n        /* \"#utility.yul\":5987:6020   */\n      calldataload\n        /* \"#utility.yul\":5971:6020   */\n      swap2\n      pop\n        /* \"#utility.yul\":6045:6047   */\n      dup1\n        /* \"#utility.yul\":6035:6043   */\n      dup3\n        /* \"#utility.yul\":6032:6048   */\n      gt\n        /* \"#utility.yul\":6029:6031   */\n      iszero\n      tag_683\n      jumpi\n        /* \"#utility.yul\":6066:6072   */\n      dup3\n        /* \"#utility.yul\":6058:6064   */\n      dup4\n        /* \"#utility.yul\":6051:6073   */\n      revert\n        /* \"#utility.yul\":6029:6031   */\n    tag_683:\n      pop\n        /* \"#utility.yul\":6094:6161   */\n      tag_684\n        /* \"#utility.yul\":6153:6160   */\n      dup10\n        /* \"#utility.yul\":6142:6150   */\n      dup3\n        /* \"#utility.yul\":6131:6140   */\n      dup11\n        /* \"#utility.yul\":6127:6151   */\n      add\n        /* \"#utility.yul\":6094:6161   */\n      tag_618\n      jump\t// in\n    tag_684:\n        /* \"#utility.yul\":6084:6161   */\n      swap2\n      pop\n      pop\n        /* \"#utility.yul\":5012:6167   */\n      swap3\n      swap6\n      pop\n      swap3\n      swap6\n      pop\n      swap3\n      swap6\n      jump\t// out\n        /* \"#utility.yul\":6172:7084   */\n    tag_102:\n      0x00\n      dup1\n      0x00\n      dup1\n      0x00\n      dup1\n        /* \"#utility.yul\":6385:6388   */\n      0xc0\n        /* \"#utility.yul\":6373:6382   */\n      dup8\n        /* \"#utility.yul\":6364:6371   */\n      dup10\n        /* \"#utility.yul\":6360:6383   */\n      sub\n        /* \"#utility.yul\":6356:6389   */\n      slt\n        /* \"#utility.yul\":6353:6355   */\n      iszero\n      tag_686\n      jumpi\n        /* \"#utility.yul\":6407:6413   */\n      dup4\n        /* \"#utility.yul\":6399:6405   */\n      dup5\n        /* \"#utility.yul\":6392:6414   */\n      revert\n        /* \"#utility.yul\":6353:6355   */\n    tag_686:\n        /* \"#utility.yul\":6451:6460   */\n      dup7\n        /* \"#utility.yul\":6438:6461   */\n      calldataload\n        /* \"#utility.yul\":6470:6500   */\n      tag_687\n        /* \"#utility.yul\":6494:6499   */\n      dup2\n        /* \"#utility.yul\":6470:6500   */\n      tag_642\n      jump\t// in\n    tag_687:\n        /* \"#utility.yul\":6519:6524   */\n      swap6\n      pop\n        /* \"#utility.yul\":6571:6573   */\n      0x20\n        /* \"#utility.yul\":6556:6574   */\n      dup8\n      add\n        /* \"#utility.yul\":6543:6575   */\n      calldataload\n      swap5\n      pop\n        /* \"#utility.yul\":6622:6624   */\n      0x40\n        /* \"#utility.yul\":6607:6625   */\n      dup8\n      add\n        /* \"#utility.yul\":6594:6626   */\n      calldataload\n      swap4\n      pop\n        /* \"#utility.yul\":6677:6679   */\n      0x60\n        /* \"#utility.yul\":6662:6680   */\n      dup8\n      add\n        /* \"#utility.yul\":6649:6681   */\n      calldataload\n        /* \"#utility.yul\":6700:6718   */\n      0xffffffffffffffff\n        /* \"#utility.yul\":6730:6744   */\n      dup1\n      dup3\n      gt\n        /* \"#utility.yul\":6727:6729   */\n      iszero\n      tag_688\n      jumpi\n        /* \"#utility.yul\":6762:6768   */\n      dup4\n        /* \"#utility.yul\":6754:6760   */\n      dup5\n        /* \"#utility.yul\":6747:6769   */\n      revert\n        /* \"#utility.yul\":6727:6729   */\n    tag_688:\n        /* \"#utility.yul\":6790:6841   */\n      tag_689\n        /* \"#utility.yul\":6833:6840   */\n      dup11\n        /* \"#utility.yul\":6824:6830   */\n      dup4\n        /* \"#utility.yul\":6813:6822   */\n      dup12\n        /* \"#utility.yul\":6809:6831   */\n      add\n        /* \"#utility.yul\":6790:6841   */\n      tag_629\n      jump\t// in\n    tag_689:\n        /* \"#utility.yul\":6780:6841   */\n      swap5\n      pop\n        /* \"#utility.yul\":6888:6891   */\n      0x80\n        /* \"#utility.yul\":6877:6886   */\n      dup10\n        /* \"#utility.yul\":6873:6892   */\n      add\n        /* \"#utility.yul\":6860:6893   */\n      calldataload\n        /* \"#utility.yul\":6850:6893   */\n      swap4\n      pop\n        /* \"#utility.yul\":6946:6949   */\n      0xa0\n        /* \"#utility.yul\":6935:6944   */\n      dup10\n        /* \"#utility.yul\":6931:6950   */\n      add\n        /* \"#utility.yul\":6918:6951   */\n      calldataload\n        /* \"#utility.yul\":6902:6951   */\n      swap2\n      pop\n        /* \"#utility.yul\":6976:6978   */\n      dup1\n        /* \"#utility.yul\":6966:6974   */\n      dup3\n        /* \"#utility.yul\":6963:6979   */\n      gt\n        /* \"#utility.yul\":6960:6962   */\n      iszero\n      tag_690\n      jumpi\n        /* \"#utility.yul\":6997:7003   */\n      dup3\n        /* \"#utility.yul\":6989:6995   */\n      dup4\n        /* \"#utility.yul\":6982:7004   */\n      revert\n        /* \"#utility.yul\":6960:6962   */\n    tag_690:\n      pop\n        /* \"#utility.yul\":7025:7078   */\n      tag_684\n        /* \"#utility.yul\":7070:7077   */\n      dup10\n        /* \"#utility.yul\":7059:7067   */\n      dup3\n        /* \"#utility.yul\":7048:7057   */\n      dup11\n        /* \"#utility.yul\":7044:7068   */\n      add\n        /* \"#utility.yul\":7025:7078   */\n      tag_629\n      jump\t// in\n        /* \"#utility.yul\":7089:8070   */\n    tag_132:\n      0x00\n      dup1\n      0x00\n      dup1\n      0x00\n      dup1\n      0x00\n        /* \"#utility.yul\":7319:7322   */\n      0xe0\n        /* \"#utility.yul\":7307:7316   */\n      dup9\n        /* \"#utility.yul\":7298:7305   */\n      dup11\n        /* \"#utility.yul\":7294:7317   */\n      sub\n        /* \"#utility.yul\":7290:7323   */\n      slt\n        /* \"#utility.yul\":7287:7289   */\n      iszero\n      tag_693\n      jumpi\n        /* \"#utility.yul\":7341:7347   */\n      dup5\n        /* \"#utility.yul\":7333:7339   */\n      dup6\n        /* \"#utility.yul\":7326:7348   */\n      revert\n        /* \"#utility.yul\":7287:7289   */\n    tag_693:\n        /* \"#utility.yul\":7385:7394   */\n      dup8\n        /* \"#utility.yul\":7372:7395   */\n      calldataload\n        /* \"#utility.yul\":7404:7434   */\n      tag_694\n        /* \"#utility.yul\":7428:7433   */\n      dup2\n        /* \"#utility.yul\":7404:7434   */\n      tag_642\n      jump\t// in\n    tag_694:\n        /* \"#utility.yul\":7453:7458   */\n      swap7\n      pop\n        /* \"#utility.yul\":7505:7507   */\n      0x20\n        /* \"#utility.yul\":7490:7508   */\n      dup9\n      add\n        /* \"#utility.yul\":7477:7509   */\n      calldataload\n      swap6\n      pop\n        /* \"#utility.yul\":7556:7558   */\n      0x40\n        /* \"#utility.yul\":7541:7559   */\n      dup9\n      add\n        /* \"#utility.yul\":7528:7560   */\n      calldataload\n      swap5\n      pop\n        /* \"#utility.yul\":7611:7613   */\n      0x60\n        /* \"#utility.yul\":7596:7614   */\n      dup9\n      add\n        /* \"#utility.yul\":7583:7615   */\n      calldataload\n        /* \"#utility.yul\":7634:7652   */\n      0xffffffffffffffff\n        /* \"#utility.yul\":7664:7678   */\n      dup1\n      dup3\n      gt\n        /* \"#utility.yul\":7661:7663   */\n      iszero\n      tag_695\n      jumpi\n        /* \"#utility.yul\":7696:7702   */\n      dup3\n        /* \"#utility.yul\":7688:7694   */\n      dup4\n        /* \"#utility.yul\":7681:7703   */\n      revert\n        /* \"#utility.yul\":7661:7663   */\n    tag_695:\n        /* \"#utility.yul\":7724:7775   */\n      tag_696\n        /* \"#utility.yul\":7767:7774   */\n      dup12\n        /* \"#utility.yul\":7758:7764   */\n      dup4\n        /* \"#utility.yul\":7747:7756   */\n      dup13\n        /* \"#utility.yul\":7743:7765   */\n      add\n        /* \"#utility.yul\":7724:7775   */\n      tag_629\n      jump\t// in\n    tag_696:\n        /* \"#utility.yul\":7714:7775   */\n      swap6\n      pop\n        /* \"#utility.yul\":7822:7825   */\n      0x80\n        /* \"#utility.yul\":7811:7820   */\n      dup11\n        /* \"#utility.yul\":7807:7826   */\n      add\n        /* \"#utility.yul\":7794:7827   */\n      calldataload\n        /* \"#utility.yul\":7784:7827   */\n      swap5\n      pop\n        /* \"#utility.yul\":7880:7883   */\n      0xa0\n        /* \"#utility.yul\":7869:7878   */\n      dup11\n        /* \"#utility.yul\":7865:7884   */\n      add\n        /* \"#utility.yul\":7852:7885   */\n      calldataload\n        /* \"#utility.yul\":7836:7885   */\n      swap2\n      pop\n        /* \"#utility.yul\":7910:7912   */\n      dup1\n        /* \"#utility.yul\":7900:7908   */\n      dup3\n        /* \"#utility.yul\":7897:7913   */\n      gt\n        /* \"#utility.yul\":7894:7896   */\n      iszero\n      tag_697\n      jumpi\n        /* \"#utility.yul\":7931:7937   */\n      dup3\n        /* \"#utility.yul\":7923:7929   */\n      dup4\n        /* \"#utility.yul\":7916:7938   */\n      revert\n        /* \"#utility.yul\":7894:7896   */\n    tag_697:\n      pop\n        /* \"#utility.yul\":7959:8012   */\n      tag_698\n        /* \"#utility.yul\":8004:8011   */\n      dup11\n        /* \"#utility.yul\":7993:8001   */\n      dup3\n        /* \"#utility.yul\":7982:7991   */\n      dup12\n        /* \"#utility.yul\":7978:8002   */\n      add\n        /* \"#utility.yul\":7959:8012   */\n      tag_629\n      jump\t// in\n    tag_698:\n        /* \"#utility.yul\":7949:8012   */\n      swap3\n      pop\n      pop\n        /* \"#utility.yul\":8059:8062   */\n      0xc0\n        /* \"#utility.yul\":8048:8057   */\n      dup9\n        /* \"#utility.yul\":8044:8063   */\n      add\n        /* \"#utility.yul\":8031:8064   */\n      calldataload\n        /* \"#utility.yul\":8021:8064   */\n      swap1\n      pop\n        /* \"#utility.yul\":7277:8070   */\n      swap3\n      swap6\n      swap9\n      swap2\n      swap5\n      swap8\n      pop\n      swap3\n      swap6\n      pop\n      jump\t// out\n        /* \"#utility.yul\":8075:9125   */\n    tag_70:\n      0x00\n      dup1\n      0x00\n      dup1\n      0x00\n      dup1\n      0x00\n      dup1\n        /* \"#utility.yul\":8322:8325   */\n      0x0100\n        /* \"#utility.yul\":8310:8319   */\n      dup10\n        /* \"#utility.yul\":8301:8308   */\n      dup12\n        /* \"#utility.yul\":8297:8320   */\n      sub\n        /* \"#utility.yul\":8293:8326   */\n      slt\n        /* \"#utility.yul\":8290:8292   */\n      iszero\n      tag_700\n      jumpi\n        /* \"#utility.yul\":8344:8350   */\n      dup2\n        /* \"#utility.yul\":8336:8342   */\n      dup3\n        /* \"#utility.yul\":8329:8351   */\n      revert\n        /* \"#utility.yul\":8290:8292   */\n    tag_700:\n        /* \"#utility.yul\":8388:8397   */\n      dup9\n        /* \"#utility.yul\":8375:8398   */\n      calldataload\n        /* \"#utility.yul\":8407:8437   */\n      tag_701\n        /* \"#utility.yul\":8431:8436   */\n      dup2\n        /* \"#utility.yul\":8407:8437   */\n      tag_642\n      jump\t// in\n    tag_701:\n        /* \"#utility.yul\":8456:8461   */\n      swap8\n      pop\n        /* \"#utility.yul\":8508:8510   */\n      0x20\n        /* \"#utility.yul\":8493:8511   */\n      dup10\n      add\n        /* \"#utility.yul\":8480:8512   */\n      calldataload\n      swap7\n      pop\n        /* \"#utility.yul\":8559:8561   */\n      0x40\n        /* \"#utility.yul\":8544:8562   */\n      dup10\n      add\n        /* \"#utility.yul\":8531:8563   */\n      calldataload\n      swap6\n      pop\n        /* \"#utility.yul\":8610:8612   */\n      0x60\n        /* \"#utility.yul\":8595:8613   */\n      dup10\n      add\n        /* \"#utility.yul\":8582:8614   */\n      calldataload\n      swap5\n      pop\n        /* \"#utility.yul\":8665:8668   */\n      0x80\n        /* \"#utility.yul\":8650:8669   */\n      dup10\n      add\n        /* \"#utility.yul\":8637:8670   */\n      calldataload\n        /* \"#utility.yul\":8689:8707   */\n      0xffffffffffffffff\n        /* \"#utility.yul\":8719:8733   */\n      dup1\n      dup3\n      gt\n        /* \"#utility.yul\":8716:8718   */\n      iszero\n      tag_702\n      jumpi\n        /* \"#utility.yul\":8751:8757   */\n      dup4\n        /* \"#utility.yul\":8743:8749   */\n      dup5\n        /* \"#utility.yul\":8736:8758   */\n      revert\n        /* \"#utility.yul\":8716:8718   */\n    tag_702:\n        /* \"#utility.yul\":8779:8830   */\n      tag_703\n        /* \"#utility.yul\":8822:8829   */\n      dup13\n        /* \"#utility.yul\":8813:8819   */\n      dup4\n        /* \"#utility.yul\":8802:8811   */\n      dup14\n        /* \"#utility.yul\":8798:8820   */\n      add\n        /* \"#utility.yul\":8779:8830   */\n      tag_629\n      jump\t// in\n    tag_703:\n        /* \"#utility.yul\":8769:8830   */\n      swap6\n      pop\n        /* \"#utility.yul\":8877:8880   */\n      0xa0\n        /* \"#utility.yul\":8866:8875   */\n      dup12\n        /* \"#utility.yul\":8862:8881   */\n      add\n        /* \"#utility.yul\":8849:8882   */\n      calldataload\n        /* \"#utility.yul\":8839:8882   */\n      swap5\n      pop\n        /* \"#utility.yul\":8929:8932   */\n      0xc0\n        /* \"#utility.yul\":8918:8927   */\n      dup12\n        /* \"#utility.yul\":8914:8933   */\n      add\n        /* \"#utility.yul\":8901:8934   */\n      calldataload\n        /* \"#utility.yul\":8891:8934   */\n      swap4\n      pop\n        /* \"#utility.yul\":8987:8990   */\n      0xe0\n        /* \"#utility.yul\":8976:8985   */\n      dup12\n        /* \"#utility.yul\":8972:8991   */\n      add\n        /* \"#utility.yul\":8959:8992   */\n      calldataload\n        /* \"#utility.yul\":8943:8992   */\n      swap2\n      pop\n        /* \"#utility.yul\":9017:9019   */\n      dup1\n        /* \"#utility.yul\":9007:9015   */\n      dup3\n        /* \"#utility.yul\":9004:9020   */\n      gt\n        /* \"#utility.yul\":9001:9003   */\n      iszero\n      tag_704\n      jumpi\n        /* \"#utility.yul\":9038:9044   */\n      dup3\n        /* \"#utility.yul\":9030:9036   */\n      dup4\n        /* \"#utility.yul\":9023:9045   */\n      revert\n        /* \"#utility.yul\":9001:9003   */\n    tag_704:\n      pop\n        /* \"#utility.yul\":9066:9119   */\n      tag_705\n        /* \"#utility.yul\":9111:9118   */\n      dup12\n        /* \"#utility.yul\":9100:9108   */\n      dup3\n        /* \"#utility.yul\":9089:9098   */\n      dup13\n        /* \"#utility.yul\":9085:9109   */\n      add\n        /* \"#utility.yul\":9066:9119   */\n      tag_629\n      jump\t// in\n    tag_705:\n        /* \"#utility.yul\":9056:9119   */\n      swap2\n      pop\n      pop\n        /* \"#utility.yul\":8280:9125   */\n      swap3\n      swap6\n      swap9\n      pop\n      swap3\n      swap6\n      swap9\n      swap1\n      swap4\n      swap7\n      pop\n      jump\t// out\n        /* \"#utility.yul\":9130:9320   */\n    tag_50:\n      0x00\n        /* \"#utility.yul\":9242:9244   */\n      0x20\n        /* \"#utility.yul\":9230:9239   */\n      dup3\n        /* \"#utility.yul\":9221:9228   */\n      dup5\n        /* \"#utility.yul\":9217:9240   */\n      sub\n        /* \"#utility.yul\":9213:9245   */\n      slt\n        /* \"#utility.yul\":9210:9212   */\n      iszero\n      tag_707\n      jumpi\n        /* \"#utility.yul\":9263:9269   */\n      dup1\n        /* \"#utility.yul\":9255:9261   */\n      dup2\n        /* \"#utility.yul\":9248:9270   */\n      revert\n        /* \"#utility.yul\":9210:9212   */\n    tag_707:\n      pop\n        /* \"#utility.yul\":9291:9314   */\n      calldataload\n      swap2\n        /* \"#utility.yul\":9200:9320   */\n      swap1\n      pop\n      jump\t// out\n        /* \"#utility.yul\":9325:9519   */\n    tag_255:\n      0x00\n        /* \"#utility.yul\":9448:9450   */\n      0x20\n        /* \"#utility.yul\":9436:9445   */\n      dup3\n        /* \"#utility.yul\":9427:9434   */\n      dup5\n        /* \"#utility.yul\":9423:9446   */\n      sub\n        /* \"#utility.yul\":9419:9451   */\n      slt\n        /* \"#utility.yul\":9416:9418   */\n      iszero\n      tag_709\n      jumpi\n        /* \"#utility.yul\":9469:9475   */\n      dup1\n        /* \"#utility.yul\":9461:9467   */\n      dup2\n        /* \"#utility.yul\":9454:9476   */\n      revert\n        /* \"#utility.yul\":9416:9418   */\n    tag_709:\n      pop\n        /* \"#utility.yul\":9497:9513   */\n      mload\n      swap2\n        /* \"#utility.yul\":9406:9519   */\n      swap1\n      pop\n      jump\t// out\n        /* \"#utility.yul\":9524:10633   */\n    tag_173:\n      0x00\n      dup1\n      0x00\n      dup1\n      0x00\n      dup1\n      0x00\n      dup1\n      0x00\n      dup1\n      0x00\n      dup1\n        /* \"#utility.yul\":9835:9838   */\n      0x0180\n        /* \"#utility.yul\":9823:9832   */\n      dup14\n        /* \"#utility.yul\":9814:9821   */\n      dup16\n        /* \"#utility.yul\":9810:9833   */\n      sub\n        /* \"#utility.yul\":9806:9839   */\n      slt\n        /* \"#utility.yul\":9803:9805   */\n      iszero\n      tag_711\n      jumpi\n        /* \"#utility.yul\":9857:9863   */\n      dup6\n        /* \"#utility.yul\":9849:9855   */\n      dup7\n        /* \"#utility.yul\":9842:9864   */\n      revert\n        /* \"#utility.yul\":9803:9805   */\n    tag_711:\n        /* \"#utility.yul\":9898:9907   */\n      dup13\n        /* \"#utility.yul\":9885:9908   */\n      calldataload\n        /* \"#utility.yul\":9875:9908   */\n      swap12\n      pop\n        /* \"#utility.yul\":9927:9967   */\n      tag_712\n        /* \"#utility.yul\":9963:9965   */\n      0x20\n        /* \"#utility.yul\":9952:9961   */\n      dup15\n        /* \"#utility.yul\":9948:9966   */\n      add\n        /* \"#utility.yul\":9927:9967   */\n      tag_614\n      jump\t// in\n    tag_712:\n        /* \"#utility.yul\":9917:9967   */\n      swap11\n      pop\n        /* \"#utility.yul\":10014:10016   */\n      0x40\n        /* \"#utility.yul\":10003:10012   */\n      dup14\n        /* \"#utility.yul\":9999:10017   */\n      add\n        /* \"#utility.yul\":9986:10018   */\n      calldataload\n        /* \"#utility.yul\":9976:10018   */\n      swap10\n      pop\n        /* \"#utility.yul\":10067:10085   */\n      0xffffffffffffffff\n        /* \"#utility.yul\":10061:10063   */\n      0x60\n        /* \"#utility.yul\":10050:10059   */\n      dup15\n        /* \"#utility.yul\":10046:10064   */\n      add\n        /* \"#utility.yul\":10033:10065   */\n      calldataload\n        /* \"#utility.yul\":10030:10086   */\n      gt\n        /* \"#utility.yul\":10027:10029   */\n      iszero\n      tag_713\n      jumpi\n        /* \"#utility.yul\":10104:10110   */\n      dup6\n        /* \"#utility.yul\":10096:10102   */\n      dup7\n        /* \"#utility.yul\":10089:10111   */\n      revert\n        /* \"#utility.yul\":10027:10029   */\n    tag_713:\n        /* \"#utility.yul\":10132:10209   */\n      tag_714\n        /* \"#utility.yul\":10201:10208   */\n      dup15\n        /* \"#utility.yul\":10194:10196   */\n      0x60\n        /* \"#utility.yul\":10183:10192   */\n      dup16\n        /* \"#utility.yul\":10179:10197   */\n      add\n        /* \"#utility.yul\":10166:10198   */\n      calldataload\n        /* \"#utility.yul\":10155:10164   */\n      dup16\n        /* \"#utility.yul\":10151:10199   */\n      add\n        /* \"#utility.yul\":10132:10209   */\n      tag_629\n      jump\t// in\n    tag_714:\n        /* \"#utility.yul\":9793:10633   */\n      swap12\n      swap15\n      swap11\n      swap14\n      pop\n      swap9\n      swap12\n        /* \"#utility.yul\":10256:10259   */\n      0x80\n        /* \"#utility.yul\":10241:10260   */\n      dup2\n      add\n        /* \"#utility.yul\":10228:10261   */\n      calldataload\n      swap11\n        /* \"#utility.yul\":10308:10311   */\n      0xa0\n        /* \"#utility.yul\":10293:10312   */\n      dup3\n      add\n        /* \"#utility.yul\":10280:10313   */\n      calldataload\n      swap11\n      pop\n        /* \"#utility.yul\":10360:10363   */\n      0xc0\n        /* \"#utility.yul\":10345:10364   */\n      dup3\n      add\n        /* \"#utility.yul\":10332:10365   */\n      calldataload\n      swap10\n      pop\n        /* \"#utility.yul\":10412:10415   */\n      0xe0\n        /* \"#utility.yul\":10397:10416   */\n      dup3\n      add\n        /* \"#utility.yul\":10384:10417   */\n      calldataload\n      swap9\n      pop\n        /* \"#utility.yul\":10464:10467   */\n      0x0100\n        /* \"#utility.yul\":10449:10468   */\n      dup3\n      add\n        /* \"#utility.yul\":10436:10469   */\n      calldataload\n      swap8\n      pop\n        /* \"#utility.yul\":10516:10519   */\n      0x0120\n        /* \"#utility.yul\":10501:10520   */\n      dup3\n      add\n        /* \"#utility.yul\":10488:10521   */\n      calldataload\n      swap7\n      pop\n        /* \"#utility.yul\":10569:10572   */\n      0x0140\n        /* \"#utility.yul\":10554:10573   */\n      dup3\n      add\n        /* \"#utility.yul\":10541:10574   */\n      calldataload\n      swap6\n      pop\n        /* \"#utility.yul\":10622:10625   */\n      0x0160\n        /* \"#utility.yul\":10607:10626   */\n      swap1\n      swap2\n      add\n        /* \"#utility.yul\":10594:10627   */\n      calldataload\n      swap4\n      pop\n        /* \"#utility.yul\":9793:10633   */\n      swap2\n      pop\n      pop\n      jump\t// out\n        /* \"#utility.yul\":10638:10744   */\n    tag_715:\n      sub(shl(0xa0, 0x01), 0x01)\n        /* \"#utility.yul\":10706:10737   */\n      and\n        /* \"#utility.yul\":10694:10738   */\n      swap1\n      mstore\n        /* \"#utility.yul\":10684:10744   */\n      jump\t// out\n        /* \"#utility.yul\":10749:11008   */\n    tag_717:\n      0x00\n        /* \"#utility.yul\":10830:10835   */\n      dup2\n        /* \"#utility.yul\":10824:10836   */\n      mload\n        /* \"#utility.yul\":10857:10863   */\n      dup1\n        /* \"#utility.yul\":10852:10855   */\n      dup5\n        /* \"#utility.yul\":10845:10864   */\n      mstore\n        /* \"#utility.yul\":10873:10936   */\n      tag_719\n        /* \"#utility.yul\":10929:10935   */\n      dup2\n        /* \"#utility.yul\":10922:10926   */\n      0x20\n        /* \"#utility.yul\":10917:10920   */\n      dup7\n        /* \"#utility.yul\":10913:10927   */\n      add\n        /* \"#utility.yul\":10906:10910   */\n      0x20\n        /* \"#utility.yul\":10899:10904   */\n      dup7\n        /* \"#utility.yul\":10895:10911   */\n      add\n        /* \"#utility.yul\":10873:10936   */\n      tag_720\n      jump\t// in\n    tag_719:\n        /* \"#utility.yul\":10990:10992   */\n      0x1f\n        /* \"#utility.yul\":10969:10984   */\n      add\n      not(0x1f)\n        /* \"#utility.yul\":10965:10994   */\n      and\n        /* \"#utility.yul\":10956:10995   */\n      swap3\n      swap1\n      swap3\n      add\n        /* \"#utility.yul\":10997:11001   */\n      0x20\n        /* \"#utility.yul\":10952:11002   */\n      add\n      swap3\n        /* \"#utility.yul\":10800:11008   */\n      swap2\n      pop\n      pop\n      jump\t// out\n        /* \"#utility.yul\":11013:11287   */\n    tag_589:\n      0x00\n        /* \"#utility.yul\":11180:11186   */\n      dup3\n        /* \"#utility.yul\":11174:11187   */\n      mload\n        /* \"#utility.yul\":11196:11249   */\n      tag_722\n        /* \"#utility.yul\":11242:11248   */\n      dup2\n        /* \"#utility.yul\":11237:11240   */\n      dup5\n        /* \"#utility.yul\":11230:11234   */\n      0x20\n        /* \"#utility.yul\":11222:11228   */\n      dup8\n        /* \"#utility.yul\":11218:11235   */\n      add\n        /* \"#utility.yul\":11196:11249   */\n      tag_720\n      jump\t// in\n    tag_722:\n        /* \"#utility.yul\":11265:11281   */\n      swap2\n      swap1\n      swap2\n      add\n      swap3\n        /* \"#utility.yul\":11150:11287   */\n      swap2\n      pop\n      pop\n      jump\t// out\n        /* \"#utility.yul\":11292:11495   */\n    tag_67:\n      sub(shl(0xa0, 0x01), 0x01)\n        /* \"#utility.yul\":11456:11488   */\n      swap2\n      swap1\n      swap2\n      and\n        /* \"#utility.yul\":11438:11489   */\n      dup2\n      mstore\n        /* \"#utility.yul\":11426:11428   */\n      0x20\n        /* \"#utility.yul\":11411:11429   */\n      add\n      swap1\n        /* \"#utility.yul\":11393:11495   */\n      jump\t// out\n        /* \"#utility.yul\":11500:11875   */\n    tag_400:\n      sub(shl(0xa0, 0x01), 0x01)\n        /* \"#utility.yul\":11758:11773   */\n      swap4\n      dup5\n      and\n        /* \"#utility.yul\":11740:11774   */\n      dup2\n      mstore\n        /* \"#utility.yul\":11810:11825   */\n      swap2\n      swap1\n      swap3\n      and\n        /* \"#utility.yul\":11805:11807   */\n      0x20\n        /* \"#utility.yul\":11790:11808   */\n      dup3\n      add\n        /* \"#utility.yul\":11783:11826   */\n      mstore\n        /* \"#utility.yul\":11857:11859   */\n      0x40\n        /* \"#utility.yul\":11842:11860   */\n      dup2\n      add\n        /* \"#utility.yul\":11835:11869   */\n      swap2\n      swap1\n      swap2\n      mstore\n        /* \"#utility.yul\":11690:11692   */\n      0x60\n        /* \"#utility.yul\":11675:11693   */\n      add\n      swap1\n        /* \"#utility.yul\":11657:11875   */\n      jump\t// out\n        /* \"#utility.yul\":11880:12154   */\n    tag_405:\n      sub(shl(0xa0, 0x01), 0x01)\n        /* \"#utility.yul\":12072:12104   */\n      swap3\n      swap1\n      swap3\n      and\n        /* \"#utility.yul\":12054:12105   */\n      dup3\n      mstore\n        /* \"#utility.yul\":12136:12138   */\n      0x20\n        /* \"#utility.yul\":12121:12139   */\n      dup3\n      add\n        /* \"#utility.yul\":12114:12148   */\n      mstore\n        /* \"#utility.yul\":12042:12044   */\n      0x40\n        /* \"#utility.yul\":12027:12045   */\n      add\n      swap1\n        /* \"#utility.yul\":12009:12154   */\n      jump\t// out\n        /* \"#utility.yul\":12159:12794   */\n    tag_47:\n        /* \"#utility.yul\":12330:12332   */\n      0x20\n        /* \"#utility.yul\":12382:12403   */\n      dup1\n      dup3\n      mstore\n        /* \"#utility.yul\":12452:12465   */\n      dup3\n      mload\n        /* \"#utility.yul\":12355:12373   */\n      dup3\n      dup3\n      add\n        /* \"#utility.yul\":12474:12496   */\n      dup2\n      swap1\n      mstore\n        /* \"#utility.yul\":12159:12794   */\n      0x00\n      swap2\n        /* \"#utility.yul\":12330:12332   */\n      swap1\n        /* \"#utility.yul\":12553:12568   */\n      dup5\n      dup3\n      add\n      swap1\n        /* \"#utility.yul\":12527:12529   */\n      0x40\n        /* \"#utility.yul\":12512:12530   */\n      dup6\n      add\n      swap1\n        /* \"#utility.yul\":12159:12794   */\n      dup5\n        /* \"#utility.yul\":12599:12768   */\n    tag_727:\n        /* \"#utility.yul\":12613:12619   */\n      dup2\n        /* \"#utility.yul\":12610:12611   */\n      dup2\n        /* \"#utility.yul\":12607:12620   */\n      lt\n        /* \"#utility.yul\":12599:12768   */\n      iszero\n      tag_729\n      jumpi\n        /* \"#utility.yul\":12674:12687   */\n      dup4\n      mload\n        /* \"#utility.yul\":12662:12688   */\n      dup4\n      mstore\n        /* \"#utility.yul\":12743:12758   */\n      swap3\n      dup5\n      add\n      swap3\n        /* \"#utility.yul\":12708:12720   */\n      swap2\n      dup5\n      add\n      swap2\n        /* \"#utility.yul\":12635:12636   */\n      0x01\n        /* \"#utility.yul\":12628:12637   */\n      add\n        /* \"#utility.yul\":12599:12768   */\n      jump(tag_727)\n    tag_729:\n      pop\n        /* \"#utility.yul\":12785:12788   */\n      swap1\n      swap7\n        /* \"#utility.yul\":12310:12794   */\n      swap6\n      pop\n      pop\n      pop\n      pop\n      pop\n      pop\n      jump\t// out\n        /* \"#utility.yul\":12799:12986   */\n    tag_59:\n        /* \"#utility.yul\":12964:12978   */\n      swap1\n      iszero\n        /* \"#utility.yul\":12957:12979   */\n      iszero\n        /* \"#utility.yul\":12939:12980   */\n      dup2\n      mstore\n        /* \"#utility.yul\":12927:12929   */\n      0x20\n        /* \"#utility.yul\":12912:12930   */\n      add\n      swap1\n        /* \"#utility.yul\":12894:12986   */\n      jump\t// out\n        /* \"#utility.yul\":12991:13600   */\n    tag_231:\n      0x00\n        /* \"#utility.yul\":13278:13284   */\n      dup7\n        /* \"#utility.yul\":13271:13285   */\n      iszero\n        /* \"#utility.yul\":13264:13286   */\n      iszero\n        /* \"#utility.yul\":13253:13262   */\n      dup3\n        /* \"#utility.yul\":13246:13287   */\n      mstore\n        /* \"#utility.yul\":13323:13329   */\n      dup6\n        /* \"#utility.yul\":13318:13320   */\n      0x20\n        /* \"#utility.yul\":13307:13316   */\n      dup4\n        /* \"#utility.yul\":13303:13321   */\n      add\n        /* \"#utility.yul\":13296:13330   */\n      mstore\n        /* \"#utility.yul\":13366:13372   */\n      dup5\n        /* \"#utility.yul\":13361:13363   */\n      0x40\n        /* \"#utility.yul\":13350:13359   */\n      dup4\n        /* \"#utility.yul\":13346:13364   */\n      add\n        /* \"#utility.yul\":13339:13373   */\n      mstore\n        /* \"#utility.yul\":13409:13412   */\n      0xa0\n        /* \"#utility.yul\":13404:13406   */\n      0x60\n        /* \"#utility.yul\":13393:13402   */\n      dup4\n        /* \"#utility.yul\":13389:13407   */\n      add\n        /* \"#utility.yul\":13382:13413   */\n      mstore\n        /* \"#utility.yul\":13436:13483   */\n      tag_732\n        /* \"#utility.yul\":13478:13481   */\n      0xa0\n        /* \"#utility.yul\":13467:13476   */\n      dup4\n        /* \"#utility.yul\":13463:13482   */\n      add\n        /* \"#utility.yul\":13455:13461   */\n      dup6\n        /* \"#utility.yul\":13436:13483   */\n      tag_717\n      jump\t// in\n    tag_732:\n        /* \"#utility.yul\":13532:13541   */\n      dup3\n        /* \"#utility.yul\":13524:13530   */\n      dup2\n        /* \"#utility.yul\":13520:13542   */\n      sub\n        /* \"#utility.yul\":13514:13517   */\n      0x80\n        /* \"#utility.yul\":13503:13512   */\n      dup5\n        /* \"#utility.yul\":13499:13518   */\n      add\n        /* \"#utility.yul\":13492:13543   */\n      mstore\n        /* \"#utility.yul\":13560:13594   */\n      tag_318\n        /* \"#utility.yul\":13587:13593   */\n      dup2\n        /* \"#utility.yul\":13579:13585   */\n      dup6\n        /* \"#utility.yul\":13560:13594   */\n      tag_717\n      jump\t// in\n        /* \"#utility.yul\":14291:14512   */\n    tag_602:\n      0x00\n        /* \"#utility.yul\":14440:14442   */\n      0x20\n        /* \"#utility.yul\":14429:14438   */\n      dup3\n        /* \"#utility.yul\":14422:14443   */\n      mstore\n        /* \"#utility.yul\":14460:14506   */\n      tag_390\n        /* \"#utility.yul\":14502:14504   */\n      0x20\n        /* \"#utility.yul\":14491:14500   */\n      dup4\n        /* \"#utility.yul\":14487:14505   */\n      add\n        /* \"#utility.yul\":14479:14485   */\n      dup5\n        /* \"#utility.yul\":14460:14506   */\n      tag_717\n      jump\t// in\n        /* \"#utility.yul\":14517:14861   */\n    tag_342:\n        /* \"#utility.yul\":14719:14721   */\n      0x20\n        /* \"#utility.yul\":14701:14722   */\n      dup1\n      dup3\n      mstore\n        /* \"#utility.yul\":14758:14760   */\n      0x14\n        /* \"#utility.yul\":14738:14756   */\n      swap1\n      dup3\n      add\n        /* \"#utility.yul\":14731:14761   */\n      mstore\n      shl(0x62, 0x1bdc99195c88191bd95cc81b9bdd08195e1a5cdd)\n        /* \"#utility.yul\":14792:14794   */\n      0x40\n        /* \"#utility.yul\":14777:14795   */\n      dup3\n      add\n        /* \"#utility.yul\":14770:14820   */\n      mstore\n        /* \"#utility.yul\":14852:14854   */\n      0x60\n        /* \"#utility.yul\":14837:14855   */\n      add\n      swap1\n        /* \"#utility.yul\":14691:14861   */\n      jump\t// out\n        /* \"#utility.yul\":14866:15268   */\n    tag_370:\n        /* \"#utility.yul\":15068:15070   */\n      0x20\n        /* \"#utility.yul\":15050:15071   */\n      dup1\n      dup3\n      mstore\n        /* \"#utility.yul\":15107:15109   */\n      0x26\n        /* \"#utility.yul\":15087:15105   */\n      swap1\n      dup3\n      add\n        /* \"#utility.yul\":15080:15110   */\n      mstore\n        /* \"#utility.yul\":15146:15180   */\n      0x4f776e61626c653a206e6577206f776e657220697320746865207a65726f2061\n        /* \"#utility.yul\":15141:15143   */\n      0x40\n        /* \"#utility.yul\":15126:15144   */\n      dup3\n      add\n        /* \"#utility.yul\":15119:15181   */\n      mstore\n      shl(0xd0, 0x646472657373)\n        /* \"#utility.yul\":15212:15214   */\n      0x60\n        /* \"#utility.yul\":15197:15215   */\n      dup3\n      add\n        /* \"#utility.yul\":15190:15226   */\n      mstore\n        /* \"#utility.yul\":15258:15261   */\n      0x80\n        /* \"#utility.yul\":15243:15262   */\n      add\n      swap1\n        /* \"#utility.yul\":15040:15268   */\n      jump\t// out\n        /* \"#utility.yul\":15273:15607   */\n    tag_239:\n        /* \"#utility.yul\":15475:15477   */\n      0x20\n        /* \"#utility.yul\":15457:15478   */\n      dup1\n      dup3\n      mstore\n        /* \"#utility.yul\":15514:15516   */\n      0x0a\n        /* \"#utility.yul\":15494:15512   */\n      swap1\n      dup3\n      add\n        /* \"#utility.yul\":15487:15517   */\n      mstore\n      shl(0xb1, 0x37b930b1b6329032b939)\n        /* \"#utility.yul\":15548:15550   */\n      0x40\n        /* \"#utility.yul\":15533:15551   */\n      dup3\n      add\n        /* \"#utility.yul\":15526:15566   */\n      mstore\n        /* \"#utility.yul\":15598:15600   */\n      0x60\n        /* \"#utility.yul\":15583:15601   */\n      add\n      swap1\n        /* \"#utility.yul\":15447:15607   */\n      jump\t// out\n        /* \"#utility.yul\":15612:16012   */\n    tag_280:\n        /* \"#utility.yul\":15814:15816   */\n      0x20\n        /* \"#utility.yul\":15796:15817   */\n      dup1\n      dup3\n      mstore\n        /* \"#utility.yul\":15853:15855   */\n      0x24\n        /* \"#utility.yul\":15833:15851   */\n      swap1\n      dup3\n      add\n        /* \"#utility.yul\":15826:15856   */\n      mstore\n        /* \"#utility.yul\":15892:15926   */\n      0x6578656375746f723a2063616c6c6572206973206e6f74207468652065786563\n        /* \"#utility.yul\":15887:15889   */\n      0x40\n        /* \"#utility.yul\":15872:15890   */\n      dup3\n      add\n        /* \"#utility.yul\":15865:15927   */\n      mstore\n      shl(0xe1, 0x3aba37b9)\n        /* \"#utility.yul\":15958:15960   */\n      0x60\n        /* \"#utility.yul\":15943:15961   */\n      dup3\n      add\n        /* \"#utility.yul\":15936:15970   */\n      mstore\n        /* \"#utility.yul\":16002:16005   */\n      0x80\n        /* \"#utility.yul\":15987:16006   */\n      add\n      swap1\n        /* \"#utility.yul\":15786:16012   */\n      jump\t// out\n        /* \"#utility.yul\":16017:16419   */\n    tag_582:\n        /* \"#utility.yul\":16219:16221   */\n      0x20\n        /* \"#utility.yul\":16201:16222   */\n      dup1\n      dup3\n      mstore\n        /* \"#utility.yul\":16258:16260   */\n      0x26\n        /* \"#utility.yul\":16238:16256   */\n      swap1\n      dup3\n      add\n        /* \"#utility.yul\":16231:16261   */\n      mstore\n        /* \"#utility.yul\":16297:16331   */\n      0x416464726573733a20696e73756666696369656e742062616c616e636520666f\n        /* \"#utility.yul\":16292:16294   */\n      0x40\n        /* \"#utility.yul\":16277:16295   */\n      dup3\n      add\n        /* \"#utility.yul\":16270:16332   */\n      mstore\n      shl(0xd2, 0x1c8818d85b1b)\n        /* \"#utility.yul\":16363:16365   */\n      0x60\n        /* \"#utility.yul\":16348:16366   */\n      dup3\n      add\n        /* \"#utility.yul\":16341:16377   */\n      mstore\n        /* \"#utility.yul\":16409:16412   */\n      0x80\n        /* \"#utility.yul\":16394:16413   */\n      add\n      swap1\n        /* \"#utility.yul\":16191:16419   */\n      jump\t// out\n        /* \"#utility.yul\":16424:16834   */\n    tag_376:\n        /* \"#utility.yul\":16626:16628   */\n      0x20\n        /* \"#utility.yul\":16608:16629   */\n      dup1\n      dup3\n      mstore\n        /* \"#utility.yul\":16665:16667   */\n      0x2e\n        /* \"#utility.yul\":16645:16663   */\n      swap1\n      dup3\n      add\n        /* \"#utility.yul\":16638:16668   */\n      mstore\n        /* \"#utility.yul\":16704:16738   */\n      0x496e697469616c697a61626c653a20636f6e747261637420697320616c726561\n        /* \"#utility.yul\":16699:16701   */\n      0x40\n        /* \"#utility.yul\":16684:16702   */\n      dup3\n      add\n        /* \"#utility.yul\":16677:16739   */\n      mstore\n      shl(0x92, 0x191e481a5b9a5d1a585b1a5e9959)\n        /* \"#utility.yul\":16770:16772   */\n      0x60\n        /* \"#utility.yul\":16755:16773   */\n      dup3\n      add\n        /* \"#utility.yul\":16748:16792   */\n      mstore\n        /* \"#utility.yul\":16824:16827   */\n      0x80\n        /* \"#utility.yul\":16809:16828   */\n      add\n      swap1\n        /* \"#utility.yul\":16598:16834   */\n      jump\t// out\n        /* \"#utility.yul\":16839:17238   */\n    tag_245:\n        /* \"#utility.yul\":17041:17043   */\n      0x20\n        /* \"#utility.yul\":17023:17044   */\n      dup1\n      dup3\n      mstore\n        /* \"#utility.yul\":17080:17082   */\n      0x23\n        /* \"#utility.yul\":17060:17078   */\n      swap1\n      dup3\n      add\n        /* \"#utility.yul\":17053:17083   */\n      mstore\n        /* \"#utility.yul\":17119:17153   */\n      0x546865207472616e73616374696f6e20616d6f756e7420697320746f6f20736d\n        /* \"#utility.yul\":17114:17116   */\n      0x40\n        /* \"#utility.yul\":17099:17117   */\n      dup3\n      add\n        /* \"#utility.yul\":17092:17154   */\n      mstore\n      shl(0xea, 0x185b1b)\n        /* \"#utility.yul\":17185:17187   */\n      0x60\n        /* \"#utility.yul\":17170:17188   */\n      dup3\n      add\n        /* \"#utility.yul\":17163:17196   */\n      mstore\n        /* \"#utility.yul\":17228:17231   */\n      0x80\n        /* \"#utility.yul\":17213:17232   */\n      add\n      swap1\n        /* \"#utility.yul\":17013:17238   */\n      jump\t// out\n        /* \"#utility.yul\":17243:17583   */\n    tag_355:\n        /* \"#utility.yul\":17445:17447   */\n      0x20\n        /* \"#utility.yul\":17427:17448   */\n      dup1\n      dup3\n      mstore\n        /* \"#utility.yul\":17484:17486   */\n      0x10\n        /* \"#utility.yul\":17464:17482   */\n      swap1\n      dup3\n      add\n        /* \"#utility.yul\":17457:17487   */\n      mstore\n      shl(0x82, 0x155cd95c881a5cc818985b9adc9d5c1d)\n        /* \"#utility.yul\":17518:17520   */\n      0x40\n        /* \"#utility.yul\":17503:17521   */\n      dup3\n      add\n        /* \"#utility.yul\":17496:17542   */\n      mstore\n        /* \"#utility.yul\":17574:17576   */\n      0x60\n        /* \"#utility.yul\":17559:17577   */\n      add\n      swap1\n        /* \"#utility.yul\":17417:17583   */\n      jump\t// out\n        /* \"#utility.yul\":17588:17944   */\n    tag_224:\n        /* \"#utility.yul\":17790:17792   */\n      0x20\n        /* \"#utility.yul\":17772:17793   */\n      dup1\n      dup3\n      mstore\n        /* \"#utility.yul\":17809:17827   */\n      dup2\n      dup2\n      add\n        /* \"#utility.yul\":17802:17832   */\n      mstore\n        /* \"#utility.yul\":17868:17902   */\n      0x4f776e61626c653a2063616c6c6572206973206e6f7420746865206f776e6572\n        /* \"#utility.yul\":17863:17865   */\n      0x40\n        /* \"#utility.yul\":17848:17866   */\n      dup3\n      add\n        /* \"#utility.yul\":17841:17903   */\n      mstore\n        /* \"#utility.yul\":17935:17937   */\n      0x60\n        /* \"#utility.yul\":17920:17938   */\n      add\n      swap1\n        /* \"#utility.yul\":17762:17944   */\n      jump\t// out\n        /* \"#utility.yul\":17949:18302   */\n    tag_587:\n        /* \"#utility.yul\":18151:18153   */\n      0x20\n        /* \"#utility.yul\":18133:18154   */\n      dup1\n      dup3\n      mstore\n        /* \"#utility.yul\":18190:18192   */\n      0x1d\n        /* \"#utility.yul\":18170:18188   */\n      swap1\n      dup3\n      add\n        /* \"#utility.yul\":18163:18193   */\n      mstore\n        /* \"#utility.yul\":18229:18260   */\n      0x416464726573733a2063616c6c20746f206e6f6e2d636f6e7472616374000000\n        /* \"#utility.yul\":18224:18226   */\n      0x40\n        /* \"#utility.yul\":18209:18227   */\n      dup3\n      add\n        /* \"#utility.yul\":18202:18261   */\n      mstore\n        /* \"#utility.yul\":18293:18295   */\n      0x60\n        /* \"#utility.yul\":18278:18296   */\n      add\n      swap1\n        /* \"#utility.yul\":18123:18302   */\n      jump\t// out\n        /* \"#utility.yul\":18307:18641   */\n    tag_201:\n        /* \"#utility.yul\":18509:18511   */\n      0x20\n        /* \"#utility.yul\":18491:18512   */\n      dup1\n      dup3\n      mstore\n        /* \"#utility.yul\":18548:18550   */\n      0x0a\n        /* \"#utility.yul\":18528:18546   */\n      swap1\n      dup3\n      add\n        /* \"#utility.yul\":18521:18551   */\n      mstore\n      shl(0xb1, 0x3632b733ba341032b939)\n        /* \"#utility.yul\":18582:18584   */\n      0x40\n        /* \"#utility.yul\":18567:18585   */\n      dup3\n      add\n        /* \"#utility.yul\":18560:18600   */\n      mstore\n        /* \"#utility.yul\":18632:18634   */\n      0x60\n        /* \"#utility.yul\":18617:18635   */\n      add\n      swap1\n        /* \"#utility.yul\":18481:18641   */\n      jump\t// out\n        /* \"#utility.yul\":18646:18977   */\n    tag_317:\n        /* \"#utility.yul\":18848:18850   */\n      0x20\n        /* \"#utility.yul\":18830:18851   */\n      dup1\n      dup3\n      mstore\n        /* \"#utility.yul\":18887:18888   */\n      0x08\n        /* \"#utility.yul\":18867:18885   */\n      swap1\n      dup3\n      add\n        /* \"#utility.yul\":18860:18889   */\n      mstore\n      shl(0xc1, 0x3ab9b2b91032b939)\n        /* \"#utility.yul\":18920:18922   */\n      0x40\n        /* \"#utility.yul\":18905:18923   */\n      dup3\n      add\n        /* \"#utility.yul\":18898:18936   */\n      mstore\n        /* \"#utility.yul\":18968:18970   */\n      0x60\n        /* \"#utility.yul\":18953:18971   */\n      add\n      swap1\n        /* \"#utility.yul\":18820:18977   */\n      jump\t// out\n        /* \"#utility.yul\":18982:19314   */\n    tag_229:\n        /* \"#utility.yul\":19184:19186   */\n      0x20\n        /* \"#utility.yul\":19166:19187   */\n      dup1\n      dup3\n      mstore\n        /* \"#utility.yul\":19223:19224   */\n      0x09\n        /* \"#utility.yul\":19203:19221   */\n      swap1\n      dup3\n      add\n        /* \"#utility.yul\":19196:19225   */\n      mstore\n      shl(0xb9, 0x39ba30ba329032b939)\n        /* \"#utility.yul\":19256:19258   */\n      0x40\n        /* \"#utility.yul\":19241:19259   */\n      dup3\n      add\n        /* \"#utility.yul\":19234:19273   */\n      mstore\n        /* \"#utility.yul\":19305:19307   */\n      0x60\n        /* \"#utility.yul\":19290:19308   */\n      add\n      swap1\n        /* \"#utility.yul\":19156:19314   */\n      jump\t// out\n        /* \"#utility.yul\":19319:19725   */\n    tag_549:\n        /* \"#utility.yul\":19521:19523   */\n      0x20\n        /* \"#utility.yul\":19503:19524   */\n      dup1\n      dup3\n      mstore\n        /* \"#utility.yul\":19560:19562   */\n      0x2a\n        /* \"#utility.yul\":19540:19558   */\n      swap1\n      dup3\n      add\n        /* \"#utility.yul\":19533:19563   */\n      mstore\n        /* \"#utility.yul\":19599:19633   */\n      0x5361666545524332303a204552433230206f7065726174696f6e20646964206e\n        /* \"#utility.yul\":19594:19596   */\n      0x40\n        /* \"#utility.yul\":19579:19597   */\n      dup3\n      add\n        /* \"#utility.yul\":19572:19634   */\n      mstore\n      shl(0xb2, 0x1bdd081cdd58d8d95959)\n        /* \"#utility.yul\":19665:19667   */\n      0x60\n        /* \"#utility.yul\":19650:19668   */\n      dup3\n      add\n        /* \"#utility.yul\":19643:19683   */\n      mstore\n        /* \"#utility.yul\":19715:19718   */\n      0x80\n        /* \"#utility.yul\":19700:19719   */\n      add\n      swap1\n        /* \"#utility.yul\":19493:19725   */\n      jump\t// out\n        /* \"#utility.yul\":19730:20868   */\n    tag_95:\n      0x00\n        /* \"#utility.yul\":19913:19915   */\n      0x20\n        /* \"#utility.yul\":19902:19911   */\n      dup3\n        /* \"#utility.yul\":19895:19916   */\n      mstore\n        /* \"#utility.yul\":19925:19980   */\n      tag_754\n        /* \"#utility.yul\":19976:19978   */\n      0x20\n        /* \"#utility.yul\":19965:19974   */\n      dup4\n        /* \"#utility.yul\":19961:19979   */\n      add\n        /* \"#utility.yul\":19952:19958   */\n      dup5\n        /* \"#utility.yul\":19946:19959   */\n      mload\n        /* \"#utility.yul\":19925:19980   */\n      tag_715\n      jump\t// in\n    tag_754:\n        /* \"#utility.yul\":20034:20036   */\n      0x20\n        /* \"#utility.yul\":20026:20032   */\n      dup4\n        /* \"#utility.yul\":20022:20037   */\n      add\n        /* \"#utility.yul\":20016:20038   */\n      mload\n        /* \"#utility.yul\":20011:20013   */\n      0x40\n        /* \"#utility.yul\":20000:20009   */\n      dup4\n        /* \"#utility.yul\":19996:20014   */\n      add\n        /* \"#utility.yul\":19989:20039   */\n      mstore\n        /* \"#utility.yul\":20086:20088   */\n      0x40\n        /* \"#utility.yul\":20078:20084   */\n      dup4\n        /* \"#utility.yul\":20074:20089   */\n      add\n        /* \"#utility.yul\":20068:20090   */\n      mload\n        /* \"#utility.yul\":20109:20115   */\n      0x0160\n        /* \"#utility.yul\":20151:20153   */\n      dup1\n        /* \"#utility.yul\":20146:20148   */\n      0x60\n        /* \"#utility.yul\":20135:20144   */\n      dup6\n        /* \"#utility.yul\":20131:20149   */\n      add\n        /* \"#utility.yul\":20124:20154   */\n      mstore\n        /* \"#utility.yul\":20177:20230   */\n      tag_755\n        /* \"#utility.yul\":20225:20228   */\n      0x0180\n        /* \"#utility.yul\":20214:20223   */\n      dup6\n        /* \"#utility.yul\":20210:20229   */\n      add\n        /* \"#utility.yul\":20196:20208   */\n      dup4\n        /* \"#utility.yul\":20177:20230   */\n      tag_717\n      jump\t// in\n    tag_755:\n        /* \"#utility.yul\":20163:20230   */\n      swap2\n      pop\n        /* \"#utility.yul\":20285:20287   */\n      0x60\n        /* \"#utility.yul\":20277:20283   */\n      dup6\n        /* \"#utility.yul\":20273:20288   */\n      add\n        /* \"#utility.yul\":20267:20289   */\n      mload\n        /* \"#utility.yul\":20261:20264   */\n      0x80\n        /* \"#utility.yul\":20250:20259   */\n      dup6\n        /* \"#utility.yul\":20246:20265   */\n      add\n        /* \"#utility.yul\":20239:20290   */\n      mstore\n        /* \"#utility.yul\":20345:20348   */\n      0x80\n        /* \"#utility.yul\":20337:20343   */\n      dup6\n        /* \"#utility.yul\":20333:20349   */\n      add\n        /* \"#utility.yul\":20327:20350   */\n      mload\n        /* \"#utility.yul\":20321:20324   */\n      0xa0\n        /* \"#utility.yul\":20310:20319   */\n      dup6\n        /* \"#utility.yul\":20306:20325   */\n      add\n        /* \"#utility.yul\":20299:20351   */\n      mstore\n        /* \"#utility.yul\":20406:20409   */\n      0xa0\n        /* \"#utility.yul\":20398:20404   */\n      dup6\n        /* \"#utility.yul\":20394:20410   */\n      add\n        /* \"#utility.yul\":20388:20411   */\n      mload\n        /* \"#utility.yul\":20382:20385   */\n      0xc0\n        /* \"#utility.yul\":20371:20380   */\n      dup6\n        /* \"#utility.yul\":20367:20386   */\n      add\n        /* \"#utility.yul\":20360:20412   */\n      mstore\n        /* \"#utility.yul\":20467:20470   */\n      0xc0\n        /* \"#utility.yul\":20459:20465   */\n      dup6\n        /* \"#utility.yul\":20455:20471   */\n      add\n        /* \"#utility.yul\":20449:20472   */\n      mload\n        /* \"#utility.yul\":20443:20446   */\n      0xe0\n        /* \"#utility.yul\":20432:20441   */\n      dup6\n        /* \"#utility.yul\":20428:20447   */\n      add\n        /* \"#utility.yul\":20421:20473   */\n      mstore\n        /* \"#utility.yul\":20510:20513   */\n      0xe0\n        /* \"#utility.yul\":20502:20508   */\n      dup6\n        /* \"#utility.yul\":20498:20514   */\n      add\n        /* \"#utility.yul\":20492:20515   */\n      mload\n        /* \"#utility.yul\":20534:20537   */\n      0x0100\n        /* \"#utility.yul\":20573:20575   */\n      dup2\n        /* \"#utility.yul\":20568:20570   */\n      dup2\n        /* \"#utility.yul\":20557:20566   */\n      dup8\n        /* \"#utility.yul\":20553:20571   */\n      add\n        /* \"#utility.yul\":20546:20576   */\n      mstore\n        /* \"#utility.yul\":20613:20615   */\n      dup1\n        /* \"#utility.yul\":20605:20611   */\n      dup8\n        /* \"#utility.yul\":20601:20616   */\n      add\n        /* \"#utility.yul\":20595:20617   */\n      mload\n        /* \"#utility.yul\":20585:20617   */\n      swap2\n      pop\n      pop\n        /* \"#utility.yul\":20636:20639   */\n      0x0120\n        /* \"#utility.yul\":20675:20677   */\n      dup2\n        /* \"#utility.yul\":20670:20672   */\n      dup2\n        /* \"#utility.yul\":20659:20668   */\n      dup8\n        /* \"#utility.yul\":20655:20673   */\n      add\n        /* \"#utility.yul\":20648:20678   */\n      mstore\n        /* \"#utility.yul\":20715:20717   */\n      dup1\n        /* \"#utility.yul\":20707:20713   */\n      dup8\n        /* \"#utility.yul\":20703:20718   */\n      add\n        /* \"#utility.yul\":20697:20719   */\n      mload\n        /* \"#utility.yul\":20687:20719   */\n      swap2\n      pop\n      pop\n        /* \"#utility.yul\":20738:20741   */\n      0x0140\n        /* \"#utility.yul\":20777:20779   */\n      dup2\n        /* \"#utility.yul\":20772:20774   */\n      dup2\n        /* \"#utility.yul\":20761:20770   */\n      dup8\n        /* \"#utility.yul\":20757:20775   */\n      add\n        /* \"#utility.yul\":20750:20780   */\n      mstore\n        /* \"#utility.yul\":20834:20836   */\n      dup1\n        /* \"#utility.yul\":20826:20832   */\n      dup8\n        /* \"#utility.yul\":20822:20837   */\n      add\n        /* \"#utility.yul\":20816:20838   */\n      mload\n        /* \"#utility.yul\":20811:20813   */\n      dup4\n        /* \"#utility.yul\":20800:20809   */\n      dup8\n        /* \"#utility.yul\":20796:20814   */\n      add\n        /* \"#utility.yul\":20789:20839   */\n      mstore\n      pop\n      pop\n      pop\n        /* \"#utility.yul\":20856:20862   */\n      dup1\n        /* \"#utility.yul\":20848:20862   */\n      swap2\n      pop\n      pop\n        /* \"#utility.yul\":19885:20868   */\n      swap3\n      swap2\n      pop\n      pop\n      jump\t// out\n        /* \"#utility.yul\":20873:21050   */\n    tag_53:\n        /* \"#utility.yul\":21019:21044   */\n      swap1\n      dup2\n      mstore\n        /* \"#utility.yul\":21007:21009   */\n      0x20\n        /* \"#utility.yul\":20992:21010   */\n      add\n      swap1\n        /* \"#utility.yul\":20974:21050   */\n      jump\t// out\n        /* \"#utility.yul\":21055:21306   */\n    tag_624:\n        /* \"#utility.yul\":21125:21127   */\n      0x40\n        /* \"#utility.yul\":21119:21128   */\n      mload\n        /* \"#utility.yul\":21155:21172   */\n      dup2\n      dup2\n      add\n        /* \"#utility.yul\":21202:21220   */\n      0xffffffffffffffff\n        /* \"#utility.yul\":21187:21221   */\n      dup2\n      gt\n        /* \"#utility.yul\":21223:21245   */\n      dup3\n      dup3\n      lt\n        /* \"#utility.yul\":21184:21246   */\n      or\n        /* \"#utility.yul\":21181:21183   */\n      iszero\n      tag_759\n      jumpi\n        /* \"#utility.yul\":21249:21267   */\n      tag_759\n      tag_647\n      jump\t// in\n    tag_759:\n        /* \"#utility.yul\":21285:21287   */\n      0x40\n        /* \"#utility.yul\":21278:21300   */\n      mstore\n        /* \"#utility.yul\":21099:21306   */\n      swap2\n      swap1\n      pop\n      jump\t// out\n        /* \"#utility.yul\":21311:21501   */\n    tag_623:\n      0x00\n        /* \"#utility.yul\":21408:21426   */\n      0xffffffffffffffff\n        /* \"#utility.yul\":21400:21406   */\n      dup3\n        /* \"#utility.yul\":21397:21427   */\n      gt\n        /* \"#utility.yul\":21394:21396   */\n      iszero\n      tag_762\n      jumpi\n        /* \"#utility.yul\":21430:21448   */\n      tag_762\n      tag_647\n      jump\t// in\n    tag_762:\n      pop\n        /* \"#utility.yul\":21490:21494   */\n      0x20\n        /* \"#utility.yul\":21471:21488   */\n      swap1\n      dup2\n      mul\n        /* \"#utility.yul\":21467:21495   */\n      add\n      swap1\n        /* \"#utility.yul\":21384:21501   */\n      jump\t// out\n        /* \"#utility.yul\":21506:21634   */\n    tag_417:\n      0x00\n        /* \"#utility.yul\":21577:21578   */\n      dup3\n        /* \"#utility.yul\":21573:21579   */\n      not\n        /* \"#utility.yul\":21570:21571   */\n      dup3\n        /* \"#utility.yul\":21567:21580   */\n      gt\n        /* \"#utility.yul\":21564:21566   */\n      iszero\n      tag_765\n      jumpi\n        /* \"#utility.yul\":21583:21601   */\n      tag_765\n      tag_766\n      jump\t// in\n    tag_765:\n      pop\n        /* \"#utility.yul\":21619:21628   */\n      add\n      swap1\n        /* \"#utility.yul\":21554:21634   */\n      jump\t// out\n        /* \"#utility.yul\":21639:21856   */\n    tag_396:\n      0x00\n        /* \"#utility.yul\":21705:21706   */\n      dup3\n        /* \"#utility.yul\":21695:21697   */\n      tag_768\n      jumpi\n      shl(0xe0, 0x4e487b71)\n        /* \"#utility.yul\":21730:21761   */\n      dup2\n      mstore\n        /* \"#utility.yul\":21784:21788   */\n      0x12\n        /* \"#utility.yul\":21781:21782   */\n      0x04\n        /* \"#utility.yul\":21774:21789   */\n      mstore\n        /* \"#utility.yul\":21812:21816   */\n      0x24\n        /* \"#utility.yul\":21737:21738   */\n      dup2\n        /* \"#utility.yul\":21802:21817   */\n      revert\n        /* \"#utility.yul\":21695:21697   */\n    tag_768:\n      pop\n        /* \"#utility.yul\":21841:21850   */\n      div\n      swap1\n        /* \"#utility.yul\":21685:21856   */\n      jump\t// out\n        /* \"#utility.yul\":21861:22029   */\n    tag_206:\n      0x00\n        /* \"#utility.yul\":21967:21968   */\n      dup2\n        /* \"#utility.yul\":21963:21964   */\n      0x00\n        /* \"#utility.yul\":21959:21965   */\n      not\n        /* \"#utility.yul\":21955:21969   */\n      div\n        /* \"#utility.yul\":21952:21953   */\n      dup4\n        /* \"#utility.yul\":21949:21970   */\n      gt\n        /* \"#utility.yul\":21944:21945   */\n      dup3\n        /* \"#utility.yul\":21937:21946   */\n      iszero\n        /* \"#utility.yul\":21930:21947   */\n      iszero\n        /* \"#utility.yul\":21926:21971   */\n      and\n        /* \"#utility.yul\":21923:21925   */\n      iszero\n      tag_771\n      jumpi\n        /* \"#utility.yul\":21974:21992   */\n      tag_771\n      tag_766\n      jump\t// in\n    tag_771:\n      pop\n        /* \"#utility.yul\":22014:22023   */\n      mul\n      swap1\n        /* \"#utility.yul\":21913:22029   */\n      jump\t// out\n        /* \"#utility.yul\":22034:22159   */\n    tag_208:\n      0x00\n        /* \"#utility.yul\":22102:22103   */\n      dup3\n        /* \"#utility.yul\":22099:22100   */\n      dup3\n        /* \"#utility.yul\":22096:22104   */\n      lt\n        /* \"#utility.yul\":22093:22095   */\n      iszero\n      tag_774\n      jumpi\n        /* \"#utility.yul\":22107:22125   */\n      tag_774\n      tag_766\n      jump\t// in\n    tag_774:\n      pop\n        /* \"#utility.yul\":22144:22153   */\n      sub\n      swap1\n        /* \"#utility.yul\":22083:22159   */\n      jump\t// out\n        /* \"#utility.yul\":22164:22422   */\n    tag_720:\n        /* \"#utility.yul\":22236:22237   */\n      0x00\n        /* \"#utility.yul\":22246:22359   */\n    tag_776:\n        /* \"#utility.yul\":22260:22266   */\n      dup4\n        /* \"#utility.yul\":22257:22258   */\n      dup2\n        /* \"#utility.yul\":22254:22267   */\n      lt\n        /* \"#utility.yul\":22246:22359   */\n      iszero\n      tag_778\n      jumpi\n        /* \"#utility.yul\":22336:22347   */\n      dup2\n      dup2\n      add\n        /* \"#utility.yul\":22330:22348   */\n      mload\n        /* \"#utility.yul\":22317:22328   */\n      dup4\n      dup3\n      add\n        /* \"#utility.yul\":22310:22349   */\n      mstore\n        /* \"#utility.yul\":22282:22284   */\n      0x20\n        /* \"#utility.yul\":22275:22285   */\n      add\n        /* \"#utility.yul\":22246:22359   */\n      jump(tag_776)\n    tag_778:\n        /* \"#utility.yul\":22377:22383   */\n      dup4\n        /* \"#utility.yul\":22374:22375   */\n      dup2\n        /* \"#utility.yul\":22371:22384   */\n      gt\n        /* \"#utility.yul\":22368:22370   */\n      iszero\n      tag_398\n      jumpi\n      pop\n      pop\n        /* \"#utility.yul\":22412:22413   */\n      0x00\n        /* \"#utility.yul\":22394:22410   */\n      swap2\n      add\n        /* \"#utility.yul\":22387:22414   */\n      mstore\n        /* \"#utility.yul\":22217:22422   */\n      jump\t// out\n        /* \"#utility.yul\":22427:22807   */\n    tag_303:\n        /* \"#utility.yul\":22512:22513   */\n      0x02\n        /* \"#utility.yul\":22502:22514   */\n      dup2\n      div\n        /* \"#utility.yul\":22559:22560   */\n      0x01\n        /* \"#utility.yul\":22549:22561   */\n      dup3\n      and\n      dup1\n        /* \"#utility.yul\":22570:22572   */\n      tag_781\n      jumpi\n        /* \"#utility.yul\":22624:22628   */\n      0x7f\n        /* \"#utility.yul\":22616:22622   */\n      dup3\n        /* \"#utility.yul\":22612:22629   */\n      and\n        /* \"#utility.yul\":22602:22629   */\n      swap2\n      pop\n        /* \"#utility.yul\":22570:22572   */\n    tag_781:\n        /* \"#utility.yul\":22677:22679   */\n      0x20\n        /* \"#utility.yul\":22669:22675   */\n      dup3\n        /* \"#utility.yul\":22666:22680   */\n      lt\n        /* \"#utility.yul\":22646:22664   */\n      dup2\n        /* \"#utility.yul\":22643:22681   */\n      eq\n        /* \"#utility.yul\":22640:22642   */\n      iszero\n      tag_782\n      jumpi\n        /* \"#utility.yul\":22723:22733   */\n      0x4e487b71\n        /* \"#utility.yul\":22718:22721   */\n      0xe0\n        /* \"#utility.yul\":22714:22734   */\n      shl\n        /* \"#utility.yul\":22711:22712   */\n      0x00\n        /* \"#utility.yul\":22704:22735   */\n      mstore\n        /* \"#utility.yul\":22758:22762   */\n      0x22\n        /* \"#utility.yul\":22755:22756   */\n      0x04\n        /* \"#utility.yul\":22748:22763   */\n      mstore\n        /* \"#utility.yul\":22786:22790   */\n      0x24\n        /* \"#utility.yul\":22783:22784   */\n      0x00\n        /* \"#utility.yul\":22776:22791   */\n      revert\n        /* \"#utility.yul\":22640:22642   */\n    tag_782:\n      pop\n        /* \"#utility.yul\":22482:22807   */\n      swap2\n      swap1\n      pop\n      jump\t// out\n        /* \"#utility.yul\":22812:22947   */\n    tag_213:\n      0x00\n      not(0x00)\n        /* \"#utility.yul\":22872:22889   */\n      dup3\n      eq\n        /* \"#utility.yul\":22869:22871   */\n      iszero\n      tag_785\n      jumpi\n        /* \"#utility.yul\":22892:22910   */\n      tag_785\n      tag_766\n      jump\t// in\n    tag_785:\n      pop\n        /* \"#utility.yul\":22939:22940   */\n      0x01\n        /* \"#utility.yul\":22928:22941   */\n      add\n      swap1\n        /* \"#utility.yul\":22859:22947   */\n      jump\t// out\n        /* \"#utility.yul\":22952:23079   */\n    tag_766:\n        /* \"#utility.yul\":23013:23023   */\n      0x4e487b71\n        /* \"#utility.yul\":23008:23011   */\n      0xe0\n        /* \"#utility.yul\":23004:23024   */\n      shl\n        /* \"#utility.yul\":23001:23002   */\n      0x00\n        /* \"#utility.yul\":22994:23025   */\n      mstore\n        /* \"#utility.yul\":23044:23048   */\n      0x11\n        /* \"#utility.yul\":23041:23042   */\n      0x04\n        /* \"#utility.yul\":23034:23049   */\n      mstore\n        /* \"#utility.yul\":23068:23072   */\n      0x24\n        /* \"#utility.yul\":23065:23066   */\n      0x00\n        /* \"#utility.yul\":23058:23073   */\n      revert\n        /* \"#utility.yul\":23084:23211   */\n    tag_647:\n        /* \"#utility.yul\":23145:23155   */\n      0x4e487b71\n        /* \"#utility.yul\":23140:23143   */\n      0xe0\n        /* \"#utility.yul\":23136:23156   */\n      shl\n        /* \"#utility.yul\":23133:23134   */\n      0x00\n        /* \"#utility.yul\":23126:23157   */\n      mstore\n        /* \"#utility.yul\":23176:23180   */\n      0x41\n        /* \"#utility.yul\":23173:23174   */\n      0x04\n        /* \"#utility.yul\":23166:23181   */\n      mstore\n        /* \"#utility.yul\":23200:23204   */\n      0x24\n        /* \"#utility.yul\":23197:23198   */\n      0x00\n        /* \"#utility.yul\":23190:23205   */\n      revert\n        /* \"#utility.yul\":23216:23349   */\n    tag_617:\n      sub(shl(0xa0, 0x01), 0x01)\n        /* \"#utility.yul\":23293:23324   */\n      dup2\n      and\n        /* \"#utility.yul\":23283:23325   */\n      dup2\n      eq\n        /* \"#utility.yul\":23273:23275   */\n      tag_371\n      jumpi\n        /* \"#utility.yul\":23339:23340   */\n      0x00\n        /* \"#utility.yul\":23336:23337   */\n      dup1\n        /* \"#utility.yul\":23329:23341   */\n      revert\n        /* \"#utility.yul\":23354:23474   */\n    tag_642:\n        /* \"#utility.yul\":23442:23447   */\n      dup1\n        /* \"#utility.yul\":23435:23448   */\n      iszero\n        /* \"#utility.yul\":23428:23449   */\n      iszero\n        /* \"#utility.yul\":23421:23426   */\n      dup2\n        /* \"#utility.yul\":23418:23450   */\n      eq\n        /* \"#utility.yul\":23408:23410   */\n      tag_371\n      jumpi\n        /* \"#utility.yul\":23464:23465   */\n      0x00\n        /* \"#utility.yul\":23461:23462   */\n      dup1\n        /* \"#utility.yul\":23454:23466   */\n      revert\n\n    auxdata: 0xa264697066735822122018b3e602b5830102572d0bfb0da2e07c30b7d51c77e8aae2597eda5fa89f478564736f6c63430008000033\n}\n",
				"bytecode": {
					"linkReferences": {},
					"object": "608060405234801561001057600080fd5b506130d5806100206000396000f3fe608060405234801561001057600080fd5b50600436106101f05760003560e01c80637dc0d1d01161010f578063e4e95520116100a2578063f2fde38b11610071578063f2fde38b146103f2578063f7ab69fd14610405578063f8c8765e1461040d578063fc234d0614610420576101f0565b8063e4e95520146103b1578063ec4c4f34146103c4578063f0c765e4146103d7578063f14053ad146103ea576101f0565b8063a8ecb028116100de578063a8ecb02814610370578063aaf5eb6814610383578063aecf77b11461038b578063c2ec527d1461039e576101f0565b80637dc0d1d0146103455780637fd6f15c1461034d5780638da5cb5b14610355578063a0ad12e21461035d576101f0565b806348c7e528116101875780636e812437116101565780636e81243714610302578063715018a6146103155780637be3a1a11461031f5780637ce3489b14610332576101f0565b806348c7e528146102a95780634b989ce3146102bc5780636ab34a4a146102cf5780636c19e783146102ef576101f0565b8063238ac933116101c3578063238ac933146102735780632e9f5bf61461027b5780633011d3d51461028e57806343b1f3cb14610296576101f0565b8063080270a8146101f55780630f58d2421461021e5780631e1bff3f1461023e5780631e64610c1461025e575b600080fd5b61020861020336600461265c565b610433565b6040516102159190612ace565b60405180910390f35b61023161022c36600461294d565b6106f0565b6040516102159190612f09565b61025161024c36600461259e565b610711565b6040516102159190612b12565b610266610781565b6040516102159190612a7d565b610266610790565b6102516102893660046128a9565b61079f565b610266610bd0565b6102316102a436600461294d565b610bdf565b6102516102b7366004612582565b610bf1565b6102516102ca3660046126b2565b610c06565b6102e26102dd36600461294d565b610de0565b6040516102159190612e65565b6102516102fd366004612582565b610f0d565b61025161031036600461278d565b610f73565b61031d610fc7565b005b61023161032d366004612631565b611012565b61025161034036600461294d565b61102f565b610266611079565b610231611088565b61026661108e565b61025161036b36600461278d565b61109d565b61025161037e36600461280f565b6110eb565b610231611223565b610231610399366004612582565b611229565b6102316103ac366004612631565b611244565b6102316103bf366004612582565b611275565b6102316103d2366004612631565b611290565b6102316103e5366004612631565b6112ac565b6102316112c9565b61031d610400366004612582565b6112cf565b610231611340565b61031d61041b3660046125d6565b611346565b61025161042e36600461297d565b611428565b6060600080828661049657606c80548060200260200160405190810160405280929190818152602001828054801561048a57602002820191906000526020600020905b815481526020019060010190808311610476575b50505050509050610576565b8660011415610507576001600160a01b0388166000908152606e60209081526040918290208054835181840281018401909452808452909183018282801561048a57602002820191906000526020600020908154815260200190600101908083116104765750505050509050610576565b8660021415610576576001600160a01b0388166000908152607060209081526040918290208054835181840281018401909452808452909183018282801561056e57602002820191906000526020600020905b81548152602001906001019080831161055a575b505050505090505b600061059761058f88610589818a61158d565b906115a0565b8351906115a0565b90508681106105a8578692506105ac565b8092505b60008367ffffffffffffffff8111156105d557634e487b7160e01b600052604160045260246000fd5b6040519080825280602002602001820160405280156105fe578160200160208202803683370190505b50835190915061061289610589818b61158d565b106106385760405162461bcd60e51b815260040161062f90612db2565b60405180910390fd5b6000886106458982612f98565b61064f9190612fb7565b90505b61065c888a612f98565b8110156106e25783818151811061068357634e487b7160e01b600052603260045260246000fd5b60200260200101518287815181106106ab57634e487b7160e01b600052603260045260246000fd5b6020908102919091010152856106c081613035565b965050858514156106d0576106e2565b806106da81613035565b915050610652565b509998505050505050505050565b606c818154811061070057600080fd5b600091825260209091200154905081565b600061071b6115ac565b6001600160a01b031661072c61108e565b6001600160a01b0316146107525760405162461bcd60e51b815260040161062f90612d46565b506001600160a01b0382166000908152606560205260409020805482151560ff19909116179055600192915050565b6068546001600160a01b031681565b6066546001600160a01b031681565b606b546000908152606a602052604081206003810154156107d25760405162461bcd60e51b815260040161062f90612df8565b6069546040516311cdc9d960e11b81526001600160a01b039091169063239b93b29061080a908d9089908e908c908a90600401612b1d565b60206040518083038186803b15801561082257600080fd5b505afa158015610836573d6000803e3d6000fd5b505050506040513d601f19601f8201168201806040525081019061085a9190612696565b6108765760405162461bcd60e51b815260040161062f90612bdd565b607454610895670de0b6b3a764000061088f888861158d565b906115b0565b116108b25760405162461bcd60e51b815260040161062f90612cd9565b6108e133306108cd670de0b6b3a764000061088f8a8a61158d565b6067546001600160a01b03169291906115bc565b6067546040516370a0823160e01b81526000916001600160a01b0316906370a0823190610912903090600401612a7d565b60206040518083038186803b15801561092a57600080fd5b505afa15801561093e573d6000803e3d6000fd5b505050506040513d601f19601f820116820180604052508101906109629190612965565b9050600061098160735461088f6072548561158d90919063ffffffff16565b6068546067549192506109a1916001600160a01b0390811691168361161a565b606860009054906101000a90046001600160a01b03166001600160a01b031663d10c06a26040518163ffffffff1660e01b8152600401602060405180830381600087803b1580156109f157600080fd5b505af1158015610a05573d6000803e3d6000fd5b505050506040513d601f19601f82011682018060405250810190610a299190612696565b506067546001600160a01b03166342966c68610a4584846115a0565b6040518263ffffffff1660e01b8152600401610a619190612f09565b600060405180830381600087803b158015610a7b57600080fd5b505af1158015610a8f573d6000803e3d6000fd5b5050606b54606c80546001818101835560008390527f2b4a51ab505fc96a0952efda2ba61bcd3078d4c02c39a186ec16f21883fbe0169091019290925554610ad9935091506115a0565b606b80546000908152606d602090815260408083209490945533808352606e8083528584208554815460018181018455838852868820909101919091559554928552606f8452958420925293549092610b3291906115a0565b815260200190815260200160002081905550606b6000815480929190610b5790613035565b909155505082546001600160a01b03191633178355600183018990558751610b8890600285019060208b0190612344565b5060016003840155600483018a905560058301879055600683018b905560098301869055610bb682826115a0565b600a909301929092555060019a9950505050505050505050565b6067546001600160a01b031681565b606d6020526000908152604090205481565b60656020526000908152604090205460ff1681565b3360009081526065602052604081205460ff16610c355760405162461bcd60e51b815260040161062f90612c01565b60005b8651811015610dd0576000606a6000898481518110610c6757634e487b7160e01b600052603260045260246000fd5b602002602001015181526020019081526020016000209050610cdc888381518110610ca257634e487b7160e01b600052603260045260246000fd5b6020026020010151868481518110610cca57634e487b7160e01b600052603260045260246000fd5b602002602001015183600a015461163e565b610dbd57610db4898260038b8681518110610d0757634e487b7160e01b600052603260045260246000fd5b60200260200101518b8781518110610d2f57634e487b7160e01b600052603260045260246000fd5b60200260200101518b8881518110610d5757634e487b7160e01b600052603260045260246000fd5b60200260200101518b8981518110610d7f57634e487b7160e01b600052603260045260246000fd5b60200260200101518b8a81518110610da757634e487b7160e01b600052603260045260246000fd5b602002602001015161179b565b92505050610dd6565b5080610dc881613035565b915050610c38565b50600190505b9695505050505050565b610de86123c8565b6000828152606a602090815260409182902082516101608101845281546001600160a01b031681526001820154928101929092526002810180549293919291840191610e3390612ffa565b80601f0160208091040260200160405190810160405280929190818152602001828054610e5f90612ffa565b8015610eac5780601f10610e8157610100808354040283529160200191610eac565b820191906000526020600020905b815481529060010190602001808311610e8f57829003601f168201915b5050505050815260200160038201548152602001600482015481526020016005820154815260200160068201548152602001600782015481526020016008820154815260200160098201548152602001600a8201548152505090505b919050565b6000610f176115ac565b6001600160a01b0316610f2861108e565b6001600160a01b031614610f4e5760405162461bcd60e51b815260040161062f90612d46565b50606680546001600160a01b0383166001600160a01b03199091161790556001919050565b6000858152606a6020526040812080546001600160a01b03163314610faa5760405162461bcd60e51b815260040161062f90612dd6565b610fbb888260028a8a8a8a8a61179b565b98975050505050505050565b610fcf6115ac565b6001600160a01b0316610fe061108e565b6001600160a01b0316146110065760405162461bcd60e51b815260040161062f90612d46565b6110106000611efd565b565b606f60209081526000928352604080842090915290825290205481565b60006110396115ac565b6001600160a01b031661104a61108e565b6001600160a01b0316146110705760405162461bcd60e51b815260040161062f90612d46565b50607255600190565b6069546001600160a01b031681565b60725481565b6033546001600160a01b031690565b3360009081526065602052604081205460ff166110cc5760405162461bcd60e51b815260040161062f90612c01565b6000868152606a60205260409020610fbb888260048a8a8a8a8a61179b565b6000868152606a6020526040812080546001600160a01b03166111205760405162461bcd60e51b815260040161062f90612b69565b60028160030154106111445760405162461bcd60e51b815260040161062f90612df8565b6069546040516311cdc9d960e11b81526001600160a01b039091169063239b93b29061117c908c9089908c908c908b90600401612b1d565b60206040518083038186803b15801561119457600080fd5b505afa1580156111a8573d6000803e3d6000fd5b505050506040513d601f19601f820116820180604052508101906111cc9190612696565b6111e85760405162461bcd60e51b815260040161062f90612bdd565b6111f388868561163e565b61120f5760405162461bcd60e51b815260040161062f90612d1c565b600a01829055506001979650505050505050565b60735481565b6001600160a01b031660009081526070602052604090205490565b606e602052816000526040600020818154811061126057600080fd5b90600052602060002001600091509150505481565b6001600160a01b03166000908152606e602052604090205490565b6070602052816000526040600020818154811061126057600080fd5b607160209081526000928352604080842090915290825290205481565b60745481565b6112d76115ac565b6001600160a01b03166112e861108e565b6001600160a01b03161461130e5760405162461bcd60e51b815260040161062f90612d46565b6001600160a01b0381166113345760405162461bcd60e51b815260040161062f90612b97565b61133d81611efd565b50565b606b5481565b600054610100900460ff168061135f575060005460ff16155b61137b5760405162461bcd60e51b815260040161062f90612c8b565b600054610100900460ff161580156113a6576000805460ff1961ff0019909116610100171660011790555b6113ae611f4f565b606680546001600160a01b038088166001600160a01b03199283161790925560688054878416908316179055606780548684169083161790556127106073556069805492851692909116919091179055670de0b6b3a764000060745560326072558015611421576000805461ff00191690555b5050505050565b60006114326115ac565b6001600160a01b031661144361108e565b6001600160a01b0316146114695760405162461bcd60e51b815260040161062f90612d46565b6040518061016001604052808d6001600160a01b031681526020018c81526020018b81526020018a815260200189815260200188815260200187815260200186815260200185815260200184815260200183815250606a60008f815260200190815260200160002060008201518160000160006101000a8154816001600160a01b0302191690836001600160a01b03160217905550602082015181600101556040820151816002019080519060200190611524929190612344565b50606082015160038201556080820151600482015560a0820151600582015560c0820151600682015560e082015160078201556101008201516008820155610120820151600982015561014090910151600a909101555060019c9b505050505050505050505050565b60006115998284612f98565b9392505050565b60006115998284612fb7565b3390565b60006115998284612f78565b611614846323b872dd60e01b8585856040516024016115dd93929190612a91565b60408051601f198184030181529190526020810180516001600160e01b03166001600160e01b031990931692909217909152611fd3565b50505050565b6116398363a9059cbb60e01b84846040516024016115dd929190612ab5565b505050565b6000838152606a602052604081206004810154829081908190600114156116fb5783600501548710156116f657600584015461167a90886115a0565b925061169f670de0b6b3a764000061088f86600901548661158d90919063ffffffff16565b91506116d6670de0b6b3a764000061088f60735461088f6072546116d08d8b6009015461158d90919063ffffffff16565b9061158d565b90506116e28183612f60565b8610156116f6576000945050505050611599565b61178d565b836005015487111561178d5760058401546117179088906115a0565b925061173c670de0b6b3a764000061088f86600901548661158d90919063ffffffff16565b915061176d670de0b6b3a764000061088f60735461088f6072546116d08d8b6009015461158d90919063ffffffff16565b90506117798183612f60565b86101561178d576000945050505050611599565b506001979650505050505050565b86546000906001600160a01b03166117c55760405162461bcd60e51b815260040161062f90612b69565b60028860030154106117e95760405162461bcd60e51b815260040161062f90612df8565b6069546040516311cdc9d960e11b81526001600160a01b039091169063239b93b290611821908c9087908a908a908990600401612b1d565b60206040518083038186803b15801561183957600080fd5b505afa15801561184d573d6000803e3d6000fd5b505050506040513d601f19601f820116820180604052508101906118719190612696565b61188d5760405162461bcd60e51b815260040161062f90612bdd565b82886007018190555060008060008a6004015460011415611bd8578a600501548b600701541115611a445760058b015460078c01546118cb916115a0565b92506118f0670de0b6b3a764000061088f8d600901548661158d90919063ffffffff16565b600a8c01549092506119029083612062565b9050600061192160735461088f6072548561158d90919063ffffffff16565b6067546068546040516340c10f1960e01b81529293506001600160a01b03918216926340c10f19926119599216908590600401612ab5565b602060405180830381600087803b15801561197357600080fd5b505af1158015611987573d6000803e3d6000fd5b505050506040513d601f19601f820116820180604052508101906119ab9190612696565b506067548c546001600160a01b03918216916340c10f1991166119ce85856115a0565b6040518363ffffffff1660e01b81526004016119eb929190612ab5565b602060405180830381600087803b158015611a0557600080fd5b505af1158015611a19573d6000803e3d6000fd5b505050506040513d601f19601f82011682018060405250810190611a3d9190612696565b5050611bd3565b60078b015460058c0154611a57916115a0565b9250611a708b600901548461158d90919063ffffffff16565b91508a600a0154821115611a8657506000611bd3565b600a8b0154611a9590836115a0565b90506000611ab460735461088f6072548561158d90919063ffffffff16565b6067546068546040516340c10f1960e01b81529293506001600160a01b03918216926340c10f1992611aec9216908590600401612ab5565b602060405180830381600087803b158015611b0657600080fd5b505af1158015611b1a573d6000803e3d6000fd5b505050506040513d601f19601f82011682018060405250810190611b3e9190612696565b506067548c546001600160a01b03918216916340c10f199116611b6185856115a0565b6040518363ffffffff1660e01b8152600401611b7e929190612ab5565b602060405180830381600087803b158015611b9857600080fd5b505af1158015611bac573d6000803e3d6000fd5b505050506040513d601f19601f82011682018060405250810190611bd09190612696565b50505b611dcd565b8a600501548b600701541015611c325760078b015460058c0154611bfb916115a0565b9250611c20670de0b6b3a764000061088f8d600901548661158d90919063ffffffff16565b600a8c0154909250611a959083612062565b60058b015460078c0154611c45916115a0565b9250611c6a670de0b6b3a764000061088f8d600901548661158d90919063ffffffff16565b91508a600a0154821115611c8057506000611dcd565b600a8b0154611c8f90836115a0565b90506000611cae60735461088f6072548561158d90919063ffffffff16565b6067546068546040516340c10f1960e01b81529293506001600160a01b03918216926340c10f1992611ce69216908590600401612ab5565b602060405180830381600087803b158015611d0057600080fd5b505af1158015611d14573d6000803e3d6000fd5b505050506040513d601f19601f82011682018060405250810190611d389190612696565b506067548c546001600160a01b03918216916340c10f199116611d5b85856115a0565b6040518363ffffffff1660e01b8152600401611d78929190612ab5565b602060405180830381600087803b158015611d9257600080fd5b505af1158015611da6573d6000803e3d6000fd5b505050506040513d601f19601f82011682018060405250810190611dca9190612696565b50505b606860009054906101000a90046001600160a01b03166001600160a01b031663d10c06a26040518163ffffffff1660e01b8152600401602060405180830381600087803b158015611e1d57600080fd5b505af1158015611e31573d6000803e3d6000fd5b505050506040513d601f19601f82011682018060405250810190611e559190612696565b5060038b018a905560078b0186905560088b01889055611e7889606d606c61206e565b336000908152606f60209081526040808320606e909252909120611e9d918b9161206e565b336000818152607060209081526040822080546001818101835591845291909220018b9055611ecf9161058990611229565b3360009081526071602090815260408083208d84529091529020555060019250505098975050505050505050565b603380546001600160a01b038381166001600160a01b0319831681179093556040519116919082907f8be0079c531659141344cd1fd0a4f28419497f9722a3daafe3b4186f6b6457e090600090a35050565b600054610100900460ff1680611f68575060005460ff16155b611f845760405162461bcd60e51b815260040161062f90612c8b565b600054610100900460ff16158015611faf576000805460ff1961ff0019909116610100171660011790555b611fb761214b565b611fbf6121be565b801561133d576000805461ff001916905550565b6000612028826040518060400160405280602081526020017f5361666545524332303a206c6f772d6c6576656c2063616c6c206661696c6564815250856001600160a01b031661222e9092919063ffffffff16565b80519091501561163957808060200190518101906120469190612696565b6116395760405162461bcd60e51b815260040161062f90612e1b565b60006115998284612f60565b6000838152602083905260408120548254909190839061208f9060016115a0565b815481106120ad57634e487b7160e01b600052603260045260246000fd5b906000526020600020015490508184600083815260200190815260200160002081905550808383815481106120f257634e487b7160e01b600052603260045260246000fd5b6000918252602080832090910192909255868152908590526040812055825483908061212e57634e487b7160e01b600052603160045260246000fd5b600190038181906000526020600020016000905590555050505050565b600054610100900460ff1680612164575060005460ff16155b6121805760405162461bcd60e51b815260040161062f90612c8b565b600054610100900460ff16158015611fbf576000805460ff1961ff001990911661010017166001179055801561133d576000805461ff001916905550565b600054610100900460ff16806121d7575060005460ff16155b6121f35760405162461bcd60e51b815260040161062f90612c8b565b600054610100900460ff1615801561221e576000805460ff1961ff0019909116610100171660011790555b611fbf6122296115ac565b611efd565b606061223d8484600085612245565b949350505050565b6060824710156122675760405162461bcd60e51b815260040161062f90612c45565b61227085612305565b61228c5760405162461bcd60e51b815260040161062f90612d7b565b600080866001600160a01b031685876040516122a89190612a61565b60006040518083038185875af1925050503d80600081146122e5576040519150601f19603f3d011682016040523d82523d6000602084013e6122ea565b606091505b50915091506122fa82828661230b565b979650505050505050565b3b151590565b6060831561231a575081611599565b82511561232a5782518084602001fd5b8160405162461bcd60e51b815260040161062f9190612b56565b82805461235090612ffa565b90600052602060002090601f01602090048101928261237257600085556123b8565b82601f1061238b57805160ff19168380011785556123b8565b828001600101855582156123b8579182015b828111156123b857825182559160200191906001019061239d565b506123c492915061242b565b5090565b60405180610160016040528060006001600160a01b03168152602001600081526020016060815260200160008152602001600081526020016000815260200160008152602001600081526020016000815260200160008152602001600081525090565b5b808211156123c4576000815560010161242c565b8035610f088161307c565b600082601f83011261245b578081fd5b8135602061247061246b83612f3c565b612f12565b82815281810190858301855b858110156124a557612493898684358b0101612517565b8452928401929084019060010161247c565b5090979650505050505050565b600082601f8301126124c2578081fd5b813560206124d261246b83612f3c565b82815281810190858301838502870184018810156124ee578586fd5b855b858110156124a5578135845292840192908401906001016124f0565b8035610f0881613091565b600082601f830112612527578081fd5b813567ffffffffffffffff81111561254157612541613066565b612554601f8201601f1916602001612f12565b818152846020838601011115612568578283fd5b816020850160208301379081016020019190915292915050565b600060208284031215612593578081fd5b81356115998161307c565b600080604083850312156125b0578081fd5b82356125bb8161307c565b915060208301356125cb81613091565b809150509250929050565b600080600080608085870312156125eb578182fd5b84356125f68161307c565b935060208501356126068161307c565b925060408501356126168161307c565b915060608501356126268161307c565b939692955090935050565b60008060408385031215612643578182fd5b823561264e8161307c565b946020939093013593505050565b60008060008060808587031215612671578384fd5b843561267c8161307c565b966020860135965060408601359560600135945092505050565b6000602082840312156126a7578081fd5b815161159981613091565b60008060008060008060c087890312156126ca578384fd5b6126d38761250c565b9550602087013567ffffffffffffffff808211156126ef578586fd5b6126fb8a838b016124b2565b96506040890135915080821115612710578586fd5b61271c8a838b016124b2565b95506060890135915080821115612731578384fd5b61273d8a838b0161244b565b94506080890135915080821115612752578384fd5b61275e8a838b016124b2565b935060a0890135915080821115612773578283fd5b5061278089828a0161244b565b9150509295509295509295565b60008060008060008060c087890312156127a5578384fd5b86356127b081613091565b95506020870135945060408701359350606087013567ffffffffffffffff808211156127da578384fd5b6127e68a838b01612517565b94506080890135935060a0890135915080821115612802578283fd5b5061278089828a01612517565b600080600080600080600060e0888a031215612829578485fd5b873561283481613091565b96506020880135955060408801359450606088013567ffffffffffffffff8082111561285e578283fd5b61286a8b838c01612517565b955060808a0135945060a08a0135915080821115612886578283fd5b506128938a828b01612517565b92505060c0880135905092959891949750929550565b600080600080600080600080610100898b0312156128c5578182fd5b88356128d081613091565b9750602089013596506040890135955060608901359450608089013567ffffffffffffffff80821115612901578384fd5b61290d8c838d01612517565b955060a08b0135945060c08b0135935060e08b0135915080821115612930578283fd5b5061293d8b828c01612517565b9150509295985092959890939650565b60006020828403121561295e578081fd5b5035919050565b600060208284031215612976578081fd5b5051919050565b6000806000806000806000806000806000806101808d8f03121561299f578586fd5b8c359b506129af60208e01612440565b9a5060408d0135995067ffffffffffffffff60608e013511156129d0578586fd5b6129e08e60608f01358f01612517565b9b9e9a9d50989b60808101359a60a08201359a5060c0820135995060e08201359850610100820135975061012082013596506101408201359550610160909101359350915050565b6001600160a01b03169052565b60008151808452612a4d816020860160208601612fce565b601f01601f19169290920160200192915050565b60008251612a73818460208701612fce565b9190910192915050565b6001600160a01b0391909116815260200190565b6001600160a01b039384168152919092166020820152604081019190915260600190565b6001600160a01b03929092168252602082015260400190565b6020808252825182820181905260009190848201906040850190845b81811015612b0657835183529284019291840191600101612aea565b50909695505050505050565b901515815260200190565b6000861515825285602083015284604083015260a06060830152612b4460a0830185612a35565b8281036080840152610fbb8185612a35565b6000602082526115996020830184612a35565b6020808252601490820152731bdc99195c88191bd95cc81b9bdd08195e1a5cdd60621b604082015260600190565b60208082526026908201527f4f776e61626c653a206e6577206f776e657220697320746865207a65726f206160408201526564647265737360d01b606082015260800190565b6020808252600a908201526937b930b1b6329032b93960b11b604082015260600190565b60208082526024908201527f6578656375746f723a2063616c6c6572206973206e6f742074686520657865636040820152633aba37b960e11b606082015260800190565b60208082526026908201527f416464726573733a20696e73756666696369656e742062616c616e636520666f6040820152651c8818d85b1b60d21b606082015260800190565b6020808252602e908201527f496e697469616c697a61626c653a20636f6e747261637420697320616c72656160408201526d191e481a5b9a5d1a585b1a5e995960921b606082015260800190565b60208082526023908201527f546865207472616e73616374696f6e20616d6f756e7420697320746f6f20736d604082015262185b1b60ea1b606082015260800190565b60208082526010908201526f155cd95c881a5cc818985b9adc9d5c1d60821b604082015260600190565b6020808252818101527f4f776e61626c653a2063616c6c6572206973206e6f7420746865206f776e6572604082015260600190565b6020808252601d908201527f416464726573733a2063616c6c20746f206e6f6e2d636f6e7472616374000000604082015260600190565b6020808252600a90820152693632b733ba341032b93960b11b604082015260600190565b6020808252600890820152673ab9b2b91032b93960c11b604082015260600190565b60208082526009908201526839ba30ba329032b93960b91b604082015260600190565b6020808252602a908201527f5361666545524332303a204552433230206f7065726174696f6e20646964206e6040820152691bdd081cdd58d8d9595960b21b606082015260800190565b600060208252612e79602083018451612a28565b602083015160408301526040830151610160806060850152612e9f610180850183612a35565b915060608501516080850152608085015160a085015260a085015160c085015260c085015160e085015260e0850151610100818187015280870151915050610120818187015280870151915050610140818187015280870151838701525050508091505092915050565b90815260200190565b60405181810167ffffffffffffffff81118282101715612f3457612f34613066565b604052919050565b600067ffffffffffffffff821115612f5657612f56613066565b5060209081020190565b60008219821115612f7357612f73613050565b500190565b600082612f9357634e487b7160e01b81526012600452602481fd5b500490565b6000816000190483118215151615612fb257612fb2613050565b500290565b600082821015612fc957612fc9613050565b500390565b60005b83811015612fe9578181015183820152602001612fd1565b838111156116145750506000910152565b60028104600182168061300e57607f821691505b6020821081141561302f57634e487b7160e01b600052602260045260246000fd5b50919050565b600060001982141561304957613049613050565b5060010190565b634e487b7160e01b600052601160045260246000fd5b634e487b7160e01b600052604160045260246000fd5b6001600160a01b038116811461133d57600080fd5b801515811461133d57600080fdfea264697066735822122018b3e602b5830102572d0bfb0da2e07c30b7d51c77e8aae2597eda5fa89f478564736f6c63430008000033",
					"opcodes": "PUSH1 0x80 PUSH1 0x40 MSTORE CALLVALUE DUP1 ISZERO PUSH2 0x10 JUMPI PUSH1 0x0 DUP1 REVERT JUMPDEST POP PUSH2 0x30D5 DUP1 PUSH2 0x20 PUSH1 0x0 CODECOPY PUSH1 0x0 RETURN INVALID PUSH1 0x80 PUSH1 0x40 MSTORE CALLVALUE DUP1 ISZERO PUSH2 0x10 JUMPI PUSH1 0x0 DUP1 REVERT JUMPDEST POP PUSH1 0x4 CALLDATASIZE LT PUSH2 0x1F0 JUMPI PUSH1 0x0 CALLDATALOAD PUSH1 0xE0 SHR DUP1 PUSH4 0x7DC0D1D0 GT PUSH2 0x10F JUMPI DUP1 PUSH4 0xE4E95520 GT PUSH2 0xA2 JUMPI DUP1 PUSH4 0xF2FDE38B GT PUSH2 0x71 JUMPI DUP1 PUSH4 0xF2FDE38B EQ PUSH2 0x3F2 JUMPI DUP1 PUSH4 0xF7AB69FD EQ PUSH2 0x405 JUMPI DUP1 PUSH4 0xF8C8765E EQ PUSH2 0x40D JUMPI DUP1 PUSH4 0xFC234D06 EQ PUSH2 0x420 JUMPI PUSH2 0x1F0 JUMP JUMPDEST DUP1 PUSH4 0xE4E95520 EQ PUSH2 0x3B1 JUMPI DUP1 PUSH4 0xEC4C4F34 EQ PUSH2 0x3C4 JUMPI DUP1 PUSH4 0xF0C765E4 EQ PUSH2 0x3D7 JUMPI DUP1 PUSH4 0xF14053AD EQ PUSH2 0x3EA JUMPI PUSH2 0x1F0 JUMP JUMPDEST DUP1 PUSH4 0xA8ECB028 GT PUSH2 0xDE JUMPI DUP1 PUSH4 0xA8ECB028 EQ PUSH2 0x370 JUMPI DUP1 PUSH4 0xAAF5EB68 EQ PUSH2 0x383 JUMPI DUP1 PUSH4 0xAECF77B1 EQ PUSH2 0x38B JUMPI DUP1 PUSH4 0xC2EC527D EQ PUSH2 0x39E JUMPI PUSH2 0x1F0 JUMP JUMPDEST DUP1 PUSH4 0x7DC0D1D0 EQ PUSH2 0x345 JUMPI DUP1 PUSH4 0x7FD6F15C EQ PUSH2 0x34D JUMPI DUP1 PUSH4 0x8DA5CB5B EQ PUSH2 0x355 JUMPI DUP1 PUSH4 0xA0AD12E2 EQ PUSH2 0x35D JUMPI PUSH2 0x1F0 JUMP JUMPDEST DUP1 PUSH4 0x48C7E528 GT PUSH2 0x187 JUMPI DUP1 PUSH4 0x6E812437 GT PUSH2 0x156 JUMPI DUP1 PUSH4 0x6E812437 EQ PUSH2 0x302 JUMPI DUP1 PUSH4 0x715018A6 EQ PUSH2 0x315 JUMPI DUP1 PUSH4 0x7BE3A1A1 EQ PUSH2 0x31F JUMPI DUP1 PUSH4 0x7CE3489B EQ PUSH2 0x332 JUMPI PUSH2 0x1F0 JUMP JUMPDEST DUP1 PUSH4 0x48C7E528 EQ PUSH2 0x2A9 JUMPI DUP1 PUSH4 0x4B989CE3 EQ PUSH2 0x2BC JUMPI DUP1 PUSH4 0x6AB34A4A EQ PUSH2 0x2CF JUMPI DUP1 PUSH4 0x6C19E783 EQ PUSH2 0x2EF JUMPI PUSH2 0x1F0 JUMP JUMPDEST DUP1 PUSH4 0x238AC933 GT PUSH2 0x1C3 JUMPI DUP1 PUSH4 0x238AC933 EQ PUSH2 0x273 JUMPI DUP1 PUSH4 0x2E9F5BF6 EQ PUSH2 0x27B JUMPI DUP1 PUSH4 0x3011D3D5 EQ PUSH2 0x28E JUMPI DUP1 PUSH4 0x43B1F3CB EQ PUSH2 0x296 JUMPI PUSH2 0x1F0 JUMP JUMPDEST DUP1 PUSH4 0x80270A8 EQ PUSH2 0x1F5 JUMPI DUP1 PUSH4 0xF58D242 EQ PUSH2 0x21E JUMPI DUP1 PUSH4 0x1E1BFF3F EQ PUSH2 0x23E JUMPI DUP1 PUSH4 0x1E64610C EQ PUSH2 0x25E JUMPI JUMPDEST PUSH1 0x0 DUP1 REVERT JUMPDEST PUSH2 0x208 PUSH2 0x203 CALLDATASIZE PUSH1 0x4 PUSH2 0x265C JUMP JUMPDEST PUSH2 0x433 JUMP JUMPDEST PUSH1 0x40 MLOAD PUSH2 0x215 SWAP2 SWAP1 PUSH2 0x2ACE JUMP JUMPDEST PUSH1 0x40 MLOAD DUP1 SWAP2 SUB SWAP1 RETURN JUMPDEST PUSH2 0x231 PUSH2 0x22C CALLDATASIZE PUSH1 0x4 PUSH2 0x294D JUMP JUMPDEST PUSH2 0x6F0 JUMP JUMPDEST PUSH1 0x40 MLOAD PUSH2 0x215 SWAP2 SWAP1 PUSH2 0x2F09 JUMP JUMPDEST PUSH2 0x251 PUSH2 0x24C CALLDATASIZE PUSH1 0x4 PUSH2 0x259E JUMP JUMPDEST PUSH2 0x711 JUMP JUMPDEST PUSH1 0x40 MLOAD PUSH2 0x215 SWAP2 SWAP1 PUSH2 0x2B12 JUMP JUMPDEST PUSH2 0x266 PUSH2 0x781 JUMP JUMPDEST PUSH1 0x40 MLOAD PUSH2 0x215 SWAP2 SWAP1 PUSH2 0x2A7D JUMP JUMPDEST PUSH2 0x266 PUSH2 0x790 JUMP JUMPDEST PUSH2 0x251 PUSH2 0x289 CALLDATASIZE PUSH1 0x4 PUSH2 0x28A9 JUMP JUMPDEST PUSH2 0x79F JUMP JUMPDEST PUSH2 0x266 PUSH2 0xBD0 JUMP JUMPDEST PUSH2 0x231 PUSH2 0x2A4 CALLDATASIZE PUSH1 0x4 PUSH2 0x294D JUMP JUMPDEST PUSH2 0xBDF JUMP JUMPDEST PUSH2 0x251 PUSH2 0x2B7 CALLDATASIZE PUSH1 0x4 PUSH2 0x2582 JUMP JUMPDEST PUSH2 0xBF1 JUMP JUMPDEST PUSH2 0x251 PUSH2 0x2CA CALLDATASIZE PUSH1 0x4 PUSH2 0x26B2 JUMP JUMPDEST PUSH2 0xC06 JUMP JUMPDEST PUSH2 0x2E2 PUSH2 0x2DD CALLDATASIZE PUSH1 0x4 PUSH2 0x294D JUMP JUMPDEST PUSH2 0xDE0 JUMP JUMPDEST PUSH1 0x40 MLOAD PUSH2 0x215 SWAP2 SWAP1 PUSH2 0x2E65 JUMP JUMPDEST PUSH2 0x251 PUSH2 0x2FD CALLDATASIZE PUSH1 0x4 PUSH2 0x2582 JUMP JUMPDEST PUSH2 0xF0D JUMP JUMPDEST PUSH2 0x251 PUSH2 0x310 CALLDATASIZE PUSH1 0x4 PUSH2 0x278D JUMP JUMPDEST PUSH2 0xF73 JUMP JUMPDEST PUSH2 0x31D PUSH2 0xFC7 JUMP JUMPDEST STOP JUMPDEST PUSH2 0x231 PUSH2 0x32D CALLDATASIZE PUSH1 0x4 PUSH2 0x2631 JUMP JUMPDEST PUSH2 0x1012 JUMP JUMPDEST PUSH2 0x251 PUSH2 0x340 CALLDATASIZE PUSH1 0x4 PUSH2 0x294D JUMP JUMPDEST PUSH2 0x102F JUMP JUMPDEST PUSH2 0x266 PUSH2 0x1079 JUMP JUMPDEST PUSH2 0x231 PUSH2 0x1088 JUMP JUMPDEST PUSH2 0x266 PUSH2 0x108E JUMP JUMPDEST PUSH2 0x251 PUSH2 0x36B CALLDATASIZE PUSH1 0x4 PUSH2 0x278D JUMP JUMPDEST PUSH2 0x109D JUMP JUMPDEST PUSH2 0x251 PUSH2 0x37E CALLDATASIZE PUSH1 0x4 PUSH2 0x280F JUMP JUMPDEST PUSH2 0x10EB JUMP JUMPDEST PUSH2 0x231 PUSH2 0x1223 JUMP JUMPDEST PUSH2 0x231 PUSH2 0x399 CALLDATASIZE PUSH1 0x4 PUSH2 0x2582 JUMP JUMPDEST PUSH2 0x1229 JUMP JUMPDEST PUSH2 0x231 PUSH2 0x3AC CALLDATASIZE PUSH1 0x4 PUSH2 0x2631 JUMP JUMPDEST PUSH2 0x1244 JUMP JUMPDEST PUSH2 0x231 PUSH2 0x3BF CALLDATASIZE PUSH1 0x4 PUSH2 0x2582 JUMP JUMPDEST PUSH2 0x1275 JUMP JUMPDEST PUSH2 0x231 PUSH2 0x3D2 CALLDATASIZE PUSH1 0x4 PUSH2 0x2631 JUMP JUMPDEST PUSH2 0x1290 JUMP JUMPDEST PUSH2 0x231 PUSH2 0x3E5 CALLDATASIZE PUSH1 0x4 PUSH2 0x2631 JUMP JUMPDEST PUSH2 0x12AC JUMP JUMPDEST PUSH2 0x231 PUSH2 0x12C9 JUMP JUMPDEST PUSH2 0x31D PUSH2 0x400 CALLDATASIZE PUSH1 0x4 PUSH2 0x2582 JUMP JUMPDEST PUSH2 0x12CF JUMP JUMPDEST PUSH2 0x231 PUSH2 0x1340 JUMP JUMPDEST PUSH2 0x31D PUSH2 0x41B CALLDATASIZE PUSH1 0x4 PUSH2 0x25D6 JUMP JUMPDEST PUSH2 0x1346 JUMP JUMPDEST PUSH2 0x251 PUSH2 0x42E CALLDATASIZE PUSH1 0x4 PUSH2 0x297D JUMP JUMPDEST PUSH2 0x1428 JUMP JUMPDEST PUSH1 0x60 PUSH1 0x0 DUP1 DUP3 DUP7 PUSH2 0x496 JUMPI PUSH1 0x6C DUP1 SLOAD DUP1 PUSH1 0x20 MUL PUSH1 0x20 ADD PUSH1 0x40 MLOAD SWAP1 DUP2 ADD PUSH1 0x40 MSTORE DUP1 SWAP3 SWAP2 SWAP1 DUP2 DUP2 MSTORE PUSH1 0x20 ADD DUP3 DUP1 SLOAD DUP1 ISZERO PUSH2 0x48A JUMPI PUSH1 0x20 MUL DUP3 ADD SWAP2 SWAP1 PUSH1 0x0 MSTORE PUSH1 0x20 PUSH1 0x0 KECCAK256 SWAP1 JUMPDEST DUP2 SLOAD DUP2 MSTORE PUSH1 0x20 ADD SWAP1 PUSH1 0x1 ADD SWAP1 DUP1 DUP4 GT PUSH2 0x476 JUMPI JUMPDEST POP POP POP POP POP SWAP1 POP PUSH2 0x576 JUMP JUMPDEST DUP7 PUSH1 0x1 EQ ISZERO PUSH2 0x507 JUMPI PUSH1 0x1 PUSH1 0x1 PUSH1 0xA0 SHL SUB DUP9 AND PUSH1 0x0 SWAP1 DUP2 MSTORE PUSH1 0x6E PUSH1 0x20 SWAP1 DUP2 MSTORE PUSH1 0x40 SWAP2 DUP3 SWAP1 KECCAK256 DUP1 SLOAD DUP4 MLOAD DUP2 DUP5 MUL DUP2 ADD DUP5 ADD SWAP1 SWAP5 MSTORE DUP1 DUP5 MSTORE SWAP1 SWAP2 DUP4 ADD DUP3 DUP3 DUP1 ISZERO PUSH2 0x48A JUMPI PUSH1 0x20 MUL DUP3 ADD SWAP2 SWAP1 PUSH1 0x0 MSTORE PUSH1 0x20 PUSH1 0x0 KECCAK256 SWAP1 DUP2 SLOAD DUP2 MSTORE PUSH1 0x20 ADD SWAP1 PUSH1 0x1 ADD SWAP1 DUP1 DUP4 GT PUSH2 0x476 JUMPI POP POP POP POP POP SWAP1 POP PUSH2 0x576 JUMP JUMPDEST DUP7 PUSH1 0x2 EQ ISZERO PUSH2 0x576 JUMPI PUSH1 0x1 PUSH1 0x1 PUSH1 0xA0 SHL SUB DUP9 AND PUSH1 0x0 SWAP1 DUP2 MSTORE PUSH1 0x70 PUSH1 0x20 SWAP1 DUP2 MSTORE PUSH1 0x40 SWAP2 DUP3 SWAP1 KECCAK256 DUP1 SLOAD DUP4 MLOAD DUP2 DUP5 MUL DUP2 ADD DUP5 ADD SWAP1 SWAP5 MSTORE DUP1 DUP5 MSTORE SWAP1 SWAP2 DUP4 ADD DUP3 DUP3 DUP1 ISZERO PUSH2 0x56E JUMPI PUSH1 0x20 MUL DUP3 ADD SWAP2 SWAP1 PUSH1 0x0 MSTORE PUSH1 0x20 PUSH1 0x0 KECCAK256 SWAP1 JUMPDEST DUP2 SLOAD DUP2 MSTORE PUSH1 0x20 ADD SWAP1 PUSH1 0x1 ADD SWAP1 DUP1 DUP4 GT PUSH2 0x55A JUMPI JUMPDEST POP POP POP POP POP SWAP1 POP JUMPDEST PUSH1 0x0 PUSH2 0x597 PUSH2 0x58F DUP9 PUSH2 0x589 DUP2 DUP11 PUSH2 0x158D JUMP JUMPDEST SWAP1 PUSH2 0x15A0 JUMP JUMPDEST DUP4 MLOAD SWAP1 PUSH2 0x15A0 JUMP JUMPDEST SWAP1 POP DUP7 DUP2 LT PUSH2 0x5A8 JUMPI DUP7 SWAP3 POP PUSH2 0x5AC JUMP JUMPDEST DUP1 SWAP3 POP JUMPDEST PUSH1 0x0 DUP4 PUSH8 0xFFFFFFFFFFFFFFFF DUP2 GT ISZERO PUSH2 0x5D5 JUMPI PUSH4 0x4E487B71 PUSH1 0xE0 SHL PUSH1 0x0 MSTORE PUSH1 0x41 PUSH1 0x4 MSTORE PUSH1 0x24 PUSH1 0x0 REVERT JUMPDEST PUSH1 0x40 MLOAD SWAP1 DUP1 DUP3 MSTORE DUP1 PUSH1 0x20 MUL PUSH1 0x20 ADD DUP3 ADD PUSH1 0x40 MSTORE DUP1 ISZERO PUSH2 0x5FE JUMPI DUP2 PUSH1 0x20 ADD PUSH1 0x20 DUP3 MUL DUP1 CALLDATASIZE DUP4 CALLDATACOPY ADD SWAP1 POP JUMPDEST POP DUP4 MLOAD SWAP1 SWAP2 POP PUSH2 0x612 DUP10 PUSH2 0x589 DUP2 DUP12 PUSH2 0x158D JUMP JUMPDEST LT PUSH2 0x638 JUMPI PUSH1 0x40 MLOAD PUSH3 0x461BCD PUSH1 0xE5 SHL DUP2 MSTORE PUSH1 0x4 ADD PUSH2 0x62F SWAP1 PUSH2 0x2DB2 JUMP JUMPDEST PUSH1 0x40 MLOAD DUP1 SWAP2 SUB SWAP1 REVERT JUMPDEST PUSH1 0x0 DUP9 PUSH2 0x645 DUP10 DUP3 PUSH2 0x2F98 JUMP JUMPDEST PUSH2 0x64F SWAP2 SWAP1 PUSH2 0x2FB7 JUMP JUMPDEST SWAP1 POP JUMPDEST PUSH2 0x65C DUP9 DUP11 PUSH2 0x2F98 JUMP JUMPDEST DUP2 LT ISZERO PUSH2 0x6E2 JUMPI DUP4 DUP2 DUP2 MLOAD DUP2 LT PUSH2 0x683 JUMPI PUSH4 0x4E487B71 PUSH1 0xE0 SHL PUSH1 0x0 MSTORE PUSH1 0x32 PUSH1 0x4 MSTORE PUSH1 0x24 PUSH1 0x0 REVERT JUMPDEST PUSH1 0x20 MUL PUSH1 0x20 ADD ADD MLOAD DUP3 DUP8 DUP2 MLOAD DUP2 LT PUSH2 0x6AB JUMPI PUSH4 0x4E487B71 PUSH1 0xE0 SHL PUSH1 0x0 MSTORE PUSH1 0x32 PUSH1 0x4 MSTORE PUSH1 0x24 PUSH1 0x0 REVERT JUMPDEST PUSH1 0x20 SWAP1 DUP2 MUL SWAP2 SWAP1 SWAP2 ADD ADD MSTORE DUP6 PUSH2 0x6C0 DUP2 PUSH2 0x3035 JUMP JUMPDEST SWAP7 POP POP DUP6 DUP6 EQ ISZERO PUSH2 0x6D0 JUMPI PUSH2 0x6E2 JUMP JUMPDEST DUP1 PUSH2 0x6DA DUP2 PUSH2 0x3035 JUMP JUMPDEST SWAP2 POP POP PUSH2 0x652 JUMP JUMPDEST POP SWAP10 SWAP9 POP POP POP POP POP POP POP POP POP JUMP JUMPDEST PUSH1 0x6C DUP2 DUP2 SLOAD DUP2 LT PUSH2 0x700 JUMPI PUSH1 0x0 DUP1 REVERT JUMPDEST PUSH1 0x0 SWAP2 DUP3 MSTORE PUSH1 0x20 SWAP1 SWAP2 KECCAK256 ADD SLOAD SWAP1 POP DUP2 JUMP JUMPDEST PUSH1 0x0 PUSH2 0x71B PUSH2 0x15AC JUMP JUMPDEST PUSH1 0x1 PUSH1 0x1 PUSH1 0xA0 SHL SUB AND PUSH2 0x72C PUSH2 0x108E JUMP JUMPDEST PUSH1 0x1 PUSH1 0x1 PUSH1 0xA0 SHL SUB AND EQ PUSH2 0x752 JUMPI PUSH1 0x40 MLOAD PUSH3 0x461BCD PUSH1 0xE5 SHL DUP2 MSTORE PUSH1 0x4 ADD PUSH2 0x62F SWAP1 PUSH2 0x2D46 JUMP JUMPDEST POP PUSH1 0x1 PUSH1 0x1 PUSH1 0xA0 SHL SUB DUP3 AND PUSH1 0x0 SWAP1 DUP2 MSTORE PUSH1 0x65 PUSH1 0x20 MSTORE PUSH1 0x40 SWAP1 KECCAK256 DUP1 SLOAD DUP3 ISZERO ISZERO PUSH1 0xFF NOT SWAP1 SWAP2 AND OR SWAP1 SSTORE PUSH1 0x1 SWAP3 SWAP2 POP POP JUMP JUMPDEST PUSH1 0x68 SLOAD PUSH1 0x1 PUSH1 0x1 PUSH1 0xA0 SHL SUB AND DUP2 JUMP JUMPDEST PUSH1 0x66 SLOAD PUSH1 0x1 PUSH1 0x1 PUSH1 0xA0 SHL SUB AND DUP2 JUMP JUMPDEST PUSH1 0x6B SLOAD PUSH1 0x0 SWAP1 DUP2 MSTORE PUSH1 0x6A PUSH1 0x20 MSTORE PUSH1 0x40 DUP2 KECCAK256 PUSH1 0x3 DUP2 ADD SLOAD ISZERO PUSH2 0x7D2 JUMPI PUSH1 0x40 MLOAD PUSH3 0x461BCD PUSH1 0xE5 SHL DUP2 MSTORE PUSH1 0x4 ADD PUSH2 0x62F SWAP1 PUSH2 0x2DF8 JUMP JUMPDEST PUSH1 0x69 SLOAD PUSH1 0x40 MLOAD PUSH4 0x11CDC9D9 PUSH1 0xE1 SHL DUP2 MSTORE PUSH1 0x1 PUSH1 0x1 PUSH1 0xA0 SHL SUB SWAP1 SWAP2 AND SWAP1 PUSH4 0x239B93B2 SWAP1 PUSH2 0x80A SWAP1 DUP14 SWAP1 DUP10 SWAP1 DUP15 SWAP1 DUP13 SWAP1 DUP11 SWAP1 PUSH1 0x4 ADD PUSH2 0x2B1D JUMP JUMPDEST PUSH1 0x20 PUSH1 0x40 MLOAD DUP1 DUP4 SUB DUP2 DUP7 DUP1 EXTCODESIZE ISZERO DUP1 ISZERO PUSH2 0x822 JUMPI PUSH1 0x0 DUP1 REVERT JUMPDEST POP GAS STATICCALL ISZERO DUP1 ISZERO PUSH2 0x836 JUMPI RETURNDATASIZE PUSH1 0x0 DUP1 RETURNDATACOPY RETURNDATASIZE PUSH1 0x0 REVERT JUMPDEST POP POP POP POP PUSH1 0x40 MLOAD RETURNDATASIZE PUSH1 0x1F NOT PUSH1 0x1F DUP3 ADD AND DUP3 ADD DUP1 PUSH1 0x40 MSTORE POP DUP2 ADD SWAP1 PUSH2 0x85A SWAP2 SWAP1 PUSH2 0x2696 JUMP JUMPDEST PUSH2 0x876 JUMPI PUSH1 0x40 MLOAD PUSH3 0x461BCD PUSH1 0xE5 SHL DUP2 MSTORE PUSH1 0x4 ADD PUSH2 0x62F SWAP1 PUSH2 0x2BDD JUMP JUMPDEST PUSH1 0x74 SLOAD PUSH2 0x895 PUSH8 0xDE0B6B3A7640000 PUSH2 0x88F DUP9 DUP9 PUSH2 0x158D JUMP JUMPDEST SWAP1 PUSH2 0x15B0 JUMP JUMPDEST GT PUSH2 0x8B2 JUMPI PUSH1 0x40 MLOAD PUSH3 0x461BCD PUSH1 0xE5 SHL DUP2 MSTORE PUSH1 0x4 ADD PUSH2 0x62F SWAP1 PUSH2 0x2CD9 JUMP JUMPDEST PUSH2 0x8E1 CALLER ADDRESS PUSH2 0x8CD PUSH8 0xDE0B6B3A7640000 PUSH2 0x88F DUP11 DUP11 PUSH2 0x158D JUMP JUMPDEST PUSH1 0x67 SLOAD PUSH1 0x1 PUSH1 0x1 PUSH1 0xA0 SHL SUB AND SWAP3 SWAP2 SWAP1 PUSH2 0x15BC JUMP JUMPDEST PUSH1 0x67 SLOAD PUSH1 0x40 MLOAD PUSH4 0x70A08231 PUSH1 0xE0 SHL DUP2 MSTORE PUSH1 0x0 SWAP2 PUSH1 0x1 PUSH1 0x1 PUSH1 0xA0 SHL SUB AND SWAP1 PUSH4 0x70A08231 SWAP1 PUSH2 0x912 SWAP1 ADDRESS SWAP1 PUSH1 0x4 ADD PUSH2 0x2A7D JUMP JUMPDEST PUSH1 0x20 PUSH1 0x40 MLOAD DUP1 DUP4 SUB DUP2 DUP7 DUP1 EXTCODESIZE ISZERO DUP1 ISZERO PUSH2 0x92A JUMPI PUSH1 0x0 DUP1 REVERT JUMPDEST POP GAS STATICCALL ISZERO DUP1 ISZERO PUSH2 0x93E JUMPI RETURNDATASIZE PUSH1 0x0 DUP1 RETURNDATACOPY RETURNDATASIZE PUSH1 0x0 REVERT JUMPDEST POP POP POP POP PUSH1 0x40 MLOAD RETURNDATASIZE PUSH1 0x1F NOT PUSH1 0x1F DUP3 ADD AND DUP3 ADD DUP1 PUSH1 0x40 MSTORE POP DUP2 ADD SWAP1 PUSH2 0x962 SWAP2 SWAP1 PUSH2 0x2965 JUMP JUMPDEST SWAP1 POP PUSH1 0x0 PUSH2 0x981 PUSH1 0x73 SLOAD PUSH2 0x88F PUSH1 0x72 SLOAD DUP6 PUSH2 0x158D SWAP1 SWAP2 SWAP1 PUSH4 0xFFFFFFFF AND JUMP JUMPDEST PUSH1 0x68 SLOAD PUSH1 0x67 SLOAD SWAP2 SWAP3 POP PUSH2 0x9A1 SWAP2 PUSH1 0x1 PUSH1 0x1 PUSH1 0xA0 SHL SUB SWAP1 DUP2 AND SWAP2 AND DUP4 PUSH2 0x161A JUMP JUMPDEST PUSH1 0x68 PUSH1 0x0 SWAP1 SLOAD SWAP1 PUSH2 0x100 EXP SWAP1 DIV PUSH1 0x1 PUSH1 0x1 PUSH1 0xA0 SHL SUB AND PUSH1 0x1 PUSH1 0x1 PUSH1 0xA0 SHL SUB AND PUSH4 0xD10C06A2 PUSH1 0x40 MLOAD DUP2 PUSH4 0xFFFFFFFF AND PUSH1 0xE0 SHL DUP2 MSTORE PUSH1 0x4 ADD PUSH1 0x20 PUSH1 0x40 MLOAD DUP1 DUP4 SUB DUP2 PUSH1 0x0 DUP8 DUP1 EXTCODESIZE ISZERO DUP1 ISZERO PUSH2 0x9F1 JUMPI PUSH1 0x0 DUP1 REVERT JUMPDEST POP GAS CALL ISZERO DUP1 ISZERO PUSH2 0xA05 JUMPI RETURNDATASIZE PUSH1 0x0 DUP1 RETURNDATACOPY RETURNDATASIZE PUSH1 0x0 REVERT JUMPDEST POP POP POP POP PUSH1 0x40 MLOAD RETURNDATASIZE PUSH1 0x1F NOT PUSH1 0x1F DUP3 ADD AND DUP3 ADD DUP1 PUSH1 0x40 MSTORE POP DUP2 ADD SWAP1 PUSH2 0xA29 SWAP2 SWAP1 PUSH2 0x2696 JUMP JUMPDEST POP PUSH1 0x67 SLOAD PUSH1 0x1 PUSH1 0x1 PUSH1 0xA0 SHL SUB AND PUSH4 0x42966C68 PUSH2 0xA45 DUP5 DUP5 PUSH2 0x15A0 JUMP JUMPDEST PUSH1 0x40 MLOAD DUP3 PUSH4 0xFFFFFFFF AND PUSH1 0xE0 SHL DUP2 MSTORE PUSH1 0x4 ADD PUSH2 0xA61 SWAP2 SWAP1 PUSH2 0x2F09 JUMP JUMPDEST PUSH1 0x0 PUSH1 0x40 MLOAD DUP1 DUP4 SUB DUP2 PUSH1 0x0 DUP8 DUP1 EXTCODESIZE ISZERO DUP1 ISZERO PUSH2 0xA7B JUMPI PUSH1 0x0 DUP1 REVERT JUMPDEST POP GAS CALL ISZERO DUP1 ISZERO PUSH2 0xA8F JUMPI RETURNDATASIZE PUSH1 0x0 DUP1 RETURNDATACOPY RETURNDATASIZE PUSH1 0x0 REVERT JUMPDEST POP POP PUSH1 0x6B SLOAD PUSH1 0x6C DUP1 SLOAD PUSH1 0x1 DUP2 DUP2 ADD DUP4 SSTORE PUSH1 0x0 DUP4 SWAP1 MSTORE PUSH32 0x2B4A51AB505FC96A0952EFDA2BA61BCD3078D4C02C39A186EC16F21883FBE016 SWAP1 SWAP2 ADD SWAP3 SWAP1 SWAP3 SSTORE SLOAD PUSH2 0xAD9 SWAP4 POP SWAP2 POP PUSH2 0x15A0 JUMP JUMPDEST PUSH1 0x6B DUP1 SLOAD PUSH1 0x0 SWAP1 DUP2 MSTORE PUSH1 0x6D PUSH1 0x20 SWAP1 DUP2 MSTORE PUSH1 0x40 DUP1 DUP4 KECCAK256 SWAP5 SWAP1 SWAP5 SSTORE CALLER DUP1 DUP4 MSTORE PUSH1 0x6E DUP1 DUP4 MSTORE DUP6 DUP5 KECCAK256 DUP6 SLOAD DUP2 SLOAD PUSH1 0x1 DUP2 DUP2 ADD DUP5 SSTORE DUP4 DUP9 MSTORE DUP7 DUP9 KECCAK256 SWAP1 SWAP2 ADD SWAP2 SWAP1 SWAP2 SSTORE SWAP6 SLOAD SWAP3 DUP6 MSTORE PUSH1 0x6F DUP5 MSTORE SWAP6 DUP5 KECCAK256 SWAP3 MSTORE SWAP4 SLOAD SWAP1 SWAP3 PUSH2 0xB32 SWAP2 SWAP1 PUSH2 0x15A0 JUMP JUMPDEST DUP2 MSTORE PUSH1 0x20 ADD SWAP1 DUP2 MSTORE PUSH1 0x20 ADD PUSH1 0x0 KECCAK256 DUP2 SWAP1 SSTORE POP PUSH1 0x6B PUSH1 0x0 DUP2 SLOAD DUP1 SWAP3 SWAP2 SWAP1 PUSH2 0xB57 SWAP1 PUSH2 0x3035 JUMP JUMPDEST SWAP1 SWAP2 SSTORE POP POP DUP3 SLOAD PUSH1 0x1 PUSH1 0x1 PUSH1 0xA0 SHL SUB NOT AND CALLER OR DUP4 SSTORE PUSH1 0x1 DUP4 ADD DUP10 SWAP1 SSTORE DUP8 MLOAD PUSH2 0xB88 SWAP1 PUSH1 0x2 DUP6 ADD SWAP1 PUSH1 0x20 DUP12 ADD SWAP1 PUSH2 0x2344 JUMP JUMPDEST POP PUSH1 0x1 PUSH1 0x3 DUP5 ADD SSTORE PUSH1 0x4 DUP4 ADD DUP11 SWAP1 SSTORE PUSH1 0x5 DUP4 ADD DUP8 SWAP1 SSTORE PUSH1 0x6 DUP4 ADD DUP12 SWAP1 SSTORE PUSH1 0x9 DUP4 ADD DUP7 SWAP1 SSTORE PUSH2 0xBB6 DUP3 DUP3 PUSH2 0x15A0 JUMP JUMPDEST PUSH1 0xA SWAP1 SWAP4 ADD SWAP3 SWAP1 SWAP3 SSTORE POP PUSH1 0x1 SWAP11 SWAP10 POP POP POP POP POP POP POP POP POP POP JUMP JUMPDEST PUSH1 0x67 SLOAD PUSH1 0x1 PUSH1 0x1 PUSH1 0xA0 SHL SUB AND DUP2 JUMP JUMPDEST PUSH1 0x6D PUSH1 0x20 MSTORE PUSH1 0x0 SWAP1 DUP2 MSTORE PUSH1 0x40 SWAP1 KECCAK256 SLOAD DUP2 JUMP JUMPDEST PUSH1 0x65 PUSH1 0x20 MSTORE PUSH1 0x0 SWAP1 DUP2 MSTORE PUSH1 0x40 SWAP1 KECCAK256 SLOAD PUSH1 0xFF AND DUP2 JUMP JUMPDEST CALLER PUSH1 0x0 SWAP1 DUP2 MSTORE PUSH1 0x65 PUSH1 0x20 MSTORE PUSH1 0x40 DUP2 KECCAK256 SLOAD PUSH1 0xFF AND PUSH2 0xC35 JUMPI PUSH1 0x40 MLOAD PUSH3 0x461BCD PUSH1 0xE5 SHL DUP2 MSTORE PUSH1 0x4 ADD PUSH2 0x62F SWAP1 PUSH2 0x2C01 JUMP JUMPDEST PUSH1 0x0 JUMPDEST DUP7 MLOAD DUP2 LT ISZERO PUSH2 0xDD0 JUMPI PUSH1 0x0 PUSH1 0x6A PUSH1 0x0 DUP10 DUP5 DUP2 MLOAD DUP2 LT PUSH2 0xC67 JUMPI PUSH4 0x4E487B71 PUSH1 0xE0 SHL PUSH1 0x0 MSTORE PUSH1 0x32 PUSH1 0x4 MSTORE PUSH1 0x24 PUSH1 0x0 REVERT JUMPDEST PUSH1 0x20 MUL PUSH1 0x20 ADD ADD MLOAD DUP2 MSTORE PUSH1 0x20 ADD SWAP1 DUP2 MSTORE PUSH1 0x20 ADD PUSH1 0x0 KECCAK256 SWAP1 POP PUSH2 0xCDC DUP9 DUP4 DUP2 MLOAD DUP2 LT PUSH2 0xCA2 JUMPI PUSH4 0x4E487B71 PUSH1 0xE0 SHL PUSH1 0x0 MSTORE PUSH1 0x32 PUSH1 0x4 MSTORE PUSH1 0x24 PUSH1 0x0 REVERT JUMPDEST PUSH1 0x20 MUL PUSH1 0x20 ADD ADD MLOAD DUP7 DUP5 DUP2 MLOAD DUP2 LT PUSH2 0xCCA JUMPI PUSH4 0x4E487B71 PUSH1 0xE0 SHL PUSH1 0x0 MSTORE PUSH1 0x32 PUSH1 0x4 MSTORE PUSH1 0x24 PUSH1 0x0 REVERT JUMPDEST PUSH1 0x20 MUL PUSH1 0x20 ADD ADD MLOAD DUP4 PUSH1 0xA ADD SLOAD PUSH2 0x163E JUMP JUMPDEST PUSH2 0xDBD JUMPI PUSH2 0xDB4 DUP10 DUP3 PUSH1 0x3 DUP12 DUP7 DUP2 MLOAD DUP2 LT PUSH2 0xD07 JUMPI PUSH4 0x4E487B71 PUSH1 0xE0 SHL PUSH1 0x0 MSTORE PUSH1 0x32 PUSH1 0x4 MSTORE PUSH1 0x24 PUSH1 0x0 REVERT JUMPDEST PUSH1 0x20 MUL PUSH1 0x20 ADD ADD MLOAD DUP12 DUP8 DUP2 MLOAD DUP2 LT PUSH2 0xD2F JUMPI PUSH4 0x4E487B71 PUSH1 0xE0 SHL PUSH1 0x0 MSTORE PUSH1 0x32 PUSH1 0x4 MSTORE PUSH1 0x24 PUSH1 0x0 REVERT JUMPDEST PUSH1 0x20 MUL PUSH1 0x20 ADD ADD MLOAD DUP12 DUP9 DUP2 MLOAD DUP2 LT PUSH2 0xD57 JUMPI PUSH4 0x4E487B71 PUSH1 0xE0 SHL PUSH1 0x0 MSTORE PUSH1 0x32 PUSH1 0x4 MSTORE PUSH1 0x24 PUSH1 0x0 REVERT JUMPDEST PUSH1 0x20 MUL PUSH1 0x20 ADD ADD MLOAD DUP12 DUP10 DUP2 MLOAD DUP2 LT PUSH2 0xD7F JUMPI PUSH4 0x4E487B71 PUSH1 0xE0 SHL PUSH1 0x0 MSTORE PUSH1 0x32 PUSH1 0x4 MSTORE PUSH1 0x24 PUSH1 0x0 REVERT JUMPDEST PUSH1 0x20 MUL PUSH1 0x20 ADD ADD MLOAD DUP12 DUP11 DUP2 MLOAD DUP2 LT PUSH2 0xDA7 JUMPI PUSH4 0x4E487B71 PUSH1 0xE0 SHL PUSH1 0x0 MSTORE PUSH1 0x32 PUSH1 0x4 MSTORE PUSH1 0x24 PUSH1 0x0 REVERT JUMPDEST PUSH1 0x20 MUL PUSH1 0x20 ADD ADD MLOAD PUSH2 0x179B JUMP JUMPDEST SWAP3 POP POP POP PUSH2 0xDD6 JUMP JUMPDEST POP DUP1 PUSH2 0xDC8 DUP2 PUSH2 0x3035 JUMP JUMPDEST SWAP2 POP POP PUSH2 0xC38 JUMP JUMPDEST POP PUSH1 0x1 SWAP1 POP JUMPDEST SWAP7 SWAP6 POP POP POP POP POP POP JUMP JUMPDEST PUSH2 0xDE8 PUSH2 0x23C8 JUMP JUMPDEST PUSH1 0x0 DUP3 DUP2 MSTORE PUSH1 0x6A PUSH1 0x20 SWAP1 DUP2 MSTORE PUSH1 0x40 SWAP2 DUP3 SWAP1 KECCAK256 DUP3 MLOAD PUSH2 0x160 DUP2 ADD DUP5 MSTORE DUP2 SLOAD PUSH1 0x1 PUSH1 0x1 PUSH1 0xA0 SHL SUB AND DUP2 MSTORE PUSH1 0x1 DUP3 ADD SLOAD SWAP3 DUP2 ADD SWAP3 SWAP1 SWAP3 MSTORE PUSH1 0x2 DUP2 ADD DUP1 SLOAD SWAP3 SWAP4 SWAP2 SWAP3 SWAP2 DUP5 ADD SWAP2 PUSH2 0xE33 SWAP1 PUSH2 0x2FFA JUMP JUMPDEST DUP1 PUSH1 0x1F ADD PUSH1 0x20 DUP1 SWAP2 DIV MUL PUSH1 0x20 ADD PUSH1 0x40 MLOAD SWAP1 DUP2 ADD PUSH1 0x40 MSTORE DUP1 SWAP3 SWAP2 SWAP1 DUP2 DUP2 MSTORE PUSH1 0x20 ADD DUP3 DUP1 SLOAD PUSH2 0xE5F SWAP1 PUSH2 0x2FFA JUMP JUMPDEST DUP1 ISZERO PUSH2 0xEAC JUMPI DUP1 PUSH1 0x1F LT PUSH2 0xE81 JUMPI PUSH2 0x100 DUP1 DUP4 SLOAD DIV MUL DUP4 MSTORE SWAP2 PUSH1 0x20 ADD SWAP2 PUSH2 0xEAC JUMP JUMPDEST DUP3 ADD SWAP2 SWAP1 PUSH1 0x0 MSTORE PUSH1 0x20 PUSH1 0x0 KECCAK256 SWAP1 JUMPDEST DUP2 SLOAD DUP2 MSTORE SWAP1 PUSH1 0x1 ADD SWAP1 PUSH1 0x20 ADD DUP1 DUP4 GT PUSH2 0xE8F JUMPI DUP3 SWAP1 SUB PUSH1 0x1F AND DUP3 ADD SWAP2 JUMPDEST POP POP POP POP POP DUP2 MSTORE PUSH1 0x20 ADD PUSH1 0x3 DUP3 ADD SLOAD DUP2 MSTORE PUSH1 0x20 ADD PUSH1 0x4 DUP3 ADD SLOAD DUP2 MSTORE PUSH1 0x20 ADD PUSH1 0x5 DUP3 ADD SLOAD DUP2 MSTORE PUSH1 0x20 ADD PUSH1 0x6 DUP3 ADD SLOAD DUP2 MSTORE PUSH1 0x20 ADD PUSH1 0x7 DUP3 ADD SLOAD DUP2 MSTORE PUSH1 0x20 ADD PUSH1 0x8 DUP3 ADD SLOAD DUP2 MSTORE PUSH1 0x20 ADD PUSH1 0x9 DUP3 ADD SLOAD DUP2 MSTORE PUSH1 0x20 ADD PUSH1 0xA DUP3 ADD SLOAD DUP2 MSTORE POP POP SWAP1 POP JUMPDEST SWAP2 SWAP1 POP JUMP JUMPDEST PUSH1 0x0 PUSH2 0xF17 PUSH2 0x15AC JUMP JUMPDEST PUSH1 0x1 PUSH1 0x1 PUSH1 0xA0 SHL SUB AND PUSH2 0xF28 PUSH2 0x108E JUMP JUMPDEST PUSH1 0x1 PUSH1 0x1 PUSH1 0xA0 SHL SUB AND EQ PUSH2 0xF4E JUMPI PUSH1 0x40 MLOAD PUSH3 0x461BCD PUSH1 0xE5 SHL DUP2 MSTORE PUSH1 0x4 ADD PUSH2 0x62F SWAP1 PUSH2 0x2D46 JUMP JUMPDEST POP PUSH1 0x66 DUP1 SLOAD PUSH1 0x1 PUSH1 0x1 PUSH1 0xA0 SHL SUB DUP4 AND PUSH1 0x1 PUSH1 0x1 PUSH1 0xA0 SHL SUB NOT SWAP1 SWAP2 AND OR SWAP1 SSTORE PUSH1 0x1 SWAP2 SWAP1 POP JUMP JUMPDEST PUSH1 0x0 DUP6 DUP2 MSTORE PUSH1 0x6A PUSH1 0x20 MSTORE PUSH1 0x40 DUP2 KECCAK256 DUP1 SLOAD PUSH1 0x1 PUSH1 0x1 PUSH1 0xA0 SHL SUB AND CALLER EQ PUSH2 0xFAA JUMPI PUSH1 0x40 MLOAD PUSH3 0x461BCD PUSH1 0xE5 SHL DUP2 MSTORE PUSH1 0x4 ADD PUSH2 0x62F SWAP1 PUSH2 0x2DD6 JUMP JUMPDEST PUSH2 0xFBB DUP9 DUP3 PUSH1 0x2 DUP11 DUP11 DUP11 DUP11 DUP11 PUSH2 0x179B JUMP JUMPDEST SWAP9 SWAP8 POP POP POP POP POP POP POP POP JUMP JUMPDEST PUSH2 0xFCF PUSH2 0x15AC JUMP JUMPDEST PUSH1 0x1 PUSH1 0x1 PUSH1 0xA0 SHL SUB AND PUSH2 0xFE0 PUSH2 0x108E JUMP JUMPDEST PUSH1 0x1 PUSH1 0x1 PUSH1 0xA0 SHL SUB AND EQ PUSH2 0x1006 JUMPI PUSH1 0x40 MLOAD PUSH3 0x461BCD PUSH1 0xE5 SHL DUP2 MSTORE PUSH1 0x4 ADD PUSH2 0x62F SWAP1 PUSH2 0x2D46 JUMP JUMPDEST PUSH2 0x1010 PUSH1 0x0 PUSH2 0x1EFD JUMP JUMPDEST JUMP JUMPDEST PUSH1 0x6F PUSH1 0x20 SWAP1 DUP2 MSTORE PUSH1 0x0 SWAP3 DUP4 MSTORE PUSH1 0x40 DUP1 DUP5 KECCAK256 SWAP1 SWAP2 MSTORE SWAP1 DUP3 MSTORE SWAP1 KECCAK256 SLOAD DUP2 JUMP JUMPDEST PUSH1 0x0 PUSH2 0x1039 PUSH2 0x15AC JUMP JUMPDEST PUSH1 0x1 PUSH1 0x1 PUSH1 0xA0 SHL SUB AND PUSH2 0x104A PUSH2 0x108E JUMP JUMPDEST PUSH1 0x1 PUSH1 0x1 PUSH1 0xA0 SHL SUB AND EQ PUSH2 0x1070 JUMPI PUSH1 0x40 MLOAD PUSH3 0x461BCD PUSH1 0xE5 SHL DUP2 MSTORE PUSH1 0x4 ADD PUSH2 0x62F SWAP1 PUSH2 0x2D46 JUMP JUMPDEST POP PUSH1 0x72 SSTORE PUSH1 0x1 SWAP1 JUMP JUMPDEST PUSH1 0x69 SLOAD PUSH1 0x1 PUSH1 0x1 PUSH1 0xA0 SHL SUB AND DUP2 JUMP JUMPDEST PUSH1 0x72 SLOAD DUP2 JUMP JUMPDEST PUSH1 0x33 SLOAD PUSH1 0x1 PUSH1 0x1 PUSH1 0xA0 SHL SUB AND SWAP1 JUMP JUMPDEST CALLER PUSH1 0x0 SWAP1 DUP2 MSTORE PUSH1 0x65 PUSH1 0x20 MSTORE PUSH1 0x40 DUP2 KECCAK256 SLOAD PUSH1 0xFF AND PUSH2 0x10CC JUMPI PUSH1 0x40 MLOAD PUSH3 0x461BCD PUSH1 0xE5 SHL DUP2 MSTORE PUSH1 0x4 ADD PUSH2 0x62F SWAP1 PUSH2 0x2C01 JUMP JUMPDEST PUSH1 0x0 DUP7 DUP2 MSTORE PUSH1 0x6A PUSH1 0x20 MSTORE PUSH1 0x40 SWAP1 KECCAK256 PUSH2 0xFBB DUP9 DUP3 PUSH1 0x4 DUP11 DUP11 DUP11 DUP11 DUP11 PUSH2 0x179B JUMP JUMPDEST PUSH1 0x0 DUP7 DUP2 MSTORE PUSH1 0x6A PUSH1 0x20 MSTORE PUSH1 0x40 DUP2 KECCAK256 DUP1 SLOAD PUSH1 0x1 PUSH1 0x1 PUSH1 0xA0 SHL SUB AND PUSH2 0x1120 JUMPI PUSH1 0x40 MLOAD PUSH3 0x461BCD PUSH1 0xE5 SHL DUP2 MSTORE PUSH1 0x4 ADD PUSH2 0x62F SWAP1 PUSH2 0x2B69 JUMP JUMPDEST PUSH1 0x2 DUP2 PUSH1 0x3 ADD SLOAD LT PUSH2 0x1144 JUMPI PUSH1 0x40 MLOAD PUSH3 0x461BCD PUSH1 0xE5 SHL DUP2 MSTORE PUSH1 0x4 ADD PUSH2 0x62F SWAP1 PUSH2 0x2DF8 JUMP JUMPDEST PUSH1 0x69 SLOAD PUSH1 0x40 MLOAD PUSH4 0x11CDC9D9 PUSH1 0xE1 SHL DUP2 MSTORE PUSH1 0x1 PUSH1 0x1 PUSH1 0xA0 SHL SUB SWAP1 SWAP2 AND SWAP1 PUSH4 0x239B93B2 SWAP1 PUSH2 0x117C SWAP1 DUP13 SWAP1 DUP10 SWAP1 DUP13 SWAP1 DUP13 SWAP1 DUP12 SWAP1 PUSH1 0x4 ADD PUSH2 0x2B1D JUMP JUMPDEST PUSH1 0x20 PUSH1 0x40 MLOAD DUP1 DUP4 SUB DUP2 DUP7 DUP1 EXTCODESIZE ISZERO DUP1 ISZERO PUSH2 0x1194 JUMPI PUSH1 0x0 DUP1 REVERT JUMPDEST POP GAS STATICCALL ISZERO DUP1 ISZERO PUSH2 0x11A8 JUMPI RETURNDATASIZE PUSH1 0x0 DUP1 RETURNDATACOPY RETURNDATASIZE PUSH1 0x0 REVERT JUMPDEST POP POP POP POP PUSH1 0x40 MLOAD RETURNDATASIZE PUSH1 0x1F NOT PUSH1 0x1F DUP3 ADD AND DUP3 ADD DUP1 PUSH1 0x40 MSTORE POP DUP2 ADD SWAP1 PUSH2 0x11CC SWAP2 SWAP1 PUSH2 0x2696 JUMP JUMPDEST PUSH2 0x11E8 JUMPI PUSH1 0x40 MLOAD PUSH3 0x461BCD PUSH1 0xE5 SHL DUP2 MSTORE PUSH1 0x4 ADD PUSH2 0x62F SWAP1 PUSH2 0x2BDD JUMP JUMPDEST PUSH2 0x11F3 DUP9 DUP7 DUP6 PUSH2 0x163E JUMP JUMPDEST PUSH2 0x120F JUMPI PUSH1 0x40 MLOAD PUSH3 0x461BCD PUSH1 0xE5 SHL DUP2 MSTORE PUSH1 0x4 ADD PUSH2 0x62F SWAP1 PUSH2 0x2D1C JUMP JUMPDEST PUSH1 0xA ADD DUP3 SWAP1 SSTORE POP PUSH1 0x1 SWAP8 SWAP7 POP POP POP POP POP POP POP JUMP JUMPDEST PUSH1 0x73 SLOAD DUP2 JUMP JUMPDEST PUSH1 0x1 PUSH1 0x1 PUSH1 0xA0 SHL SUB AND PUSH1 0x0 SWAP1 DUP2 MSTORE PUSH1 0x70 PUSH1 0x20 MSTORE PUSH1 0x40 SWAP1 KECCAK256 SLOAD SWAP1 JUMP JUMPDEST PUSH1 0x6E PUSH1 0x20 MSTORE DUP2 PUSH1 0x0 MSTORE PUSH1 0x40 PUSH1 0x0 KECCAK256 DUP2 DUP2 SLOAD DUP2 LT PUSH2 0x1260 JUMPI PUSH1 0x0 DUP1 REVERT JUMPDEST SWAP1 PUSH1 0x0 MSTORE PUSH1 0x20 PUSH1 0x0 KECCAK256 ADD PUSH1 0x0 SWAP2 POP SWAP2 POP POP SLOAD DUP2 JUMP JUMPDEST PUSH1 0x1 PUSH1 0x1 PUSH1 0xA0 SHL SUB AND PUSH1 0x0 SWAP1 DUP2 MSTORE PUSH1 0x6E PUSH1 0x20 MSTORE PUSH1 0x40 SWAP1 KECCAK256 SLOAD SWAP1 JUMP JUMPDEST PUSH1 0x70 PUSH1 0x20 MSTORE DUP2 PUSH1 0x0 MSTORE PUSH1 0x40 PUSH1 0x0 KECCAK256 DUP2 DUP2 SLOAD DUP2 LT PUSH2 0x1260 JUMPI PUSH1 0x0 DUP1 REVERT JUMPDEST PUSH1 0x71 PUSH1 0x20 SWAP1 DUP2 MSTORE PUSH1 0x0 SWAP3 DUP4 MSTORE PUSH1 0x40 DUP1 DUP5 KECCAK256 SWAP1 SWAP2 MSTORE SWAP1 DUP3 MSTORE SWAP1 KECCAK256 SLOAD DUP2 JUMP JUMPDEST PUSH1 0x74 SLOAD DUP2 JUMP JUMPDEST PUSH2 0x12D7 PUSH2 0x15AC JUMP JUMPDEST PUSH1 0x1 PUSH1 0x1 PUSH1 0xA0 SHL SUB AND PUSH2 0x12E8 PUSH2 0x108E JUMP JUMPDEST PUSH1 0x1 PUSH1 0x1 PUSH1 0xA0 SHL SUB AND EQ PUSH2 0x130E JUMPI PUSH1 0x40 MLOAD PUSH3 0x461BCD PUSH1 0xE5 SHL DUP2 MSTORE PUSH1 0x4 ADD PUSH2 0x62F SWAP1 PUSH2 0x2D46 JUMP JUMPDEST PUSH1 0x1 PUSH1 0x1 PUSH1 0xA0 SHL SUB DUP2 AND PUSH2 0x1334 JUMPI PUSH1 0x40 MLOAD PUSH3 0x461BCD PUSH1 0xE5 SHL DUP2 MSTORE PUSH1 0x4 ADD PUSH2 0x62F SWAP1 PUSH2 0x2B97 JUMP JUMPDEST PUSH2 0x133D DUP2 PUSH2 0x1EFD JUMP JUMPDEST POP JUMP JUMPDEST PUSH1 0x6B SLOAD DUP2 JUMP JUMPDEST PUSH1 0x0 SLOAD PUSH2 0x100 SWAP1 DIV PUSH1 0xFF AND DUP1 PUSH2 0x135F JUMPI POP PUSH1 0x0 SLOAD PUSH1 0xFF AND ISZERO JUMPDEST PUSH2 0x137B JUMPI PUSH1 0x40 MLOAD PUSH3 0x461BCD PUSH1 0xE5 SHL DUP2 MSTORE PUSH1 0x4 ADD PUSH2 0x62F SWAP1 PUSH2 0x2C8B JUMP JUMPDEST PUSH1 0x0 SLOAD PUSH2 0x100 SWAP1 DIV PUSH1 0xFF AND ISZERO DUP1 ISZERO PUSH2 0x13A6 JUMPI PUSH1 0x0 DUP1 SLOAD PUSH1 0xFF NOT PUSH2 0xFF00 NOT SWAP1 SWAP2 AND PUSH2 0x100 OR AND PUSH1 0x1 OR SWAP1 SSTORE JUMPDEST PUSH2 0x13AE PUSH2 0x1F4F JUMP JUMPDEST PUSH1 0x66 DUP1 SLOAD PUSH1 0x1 PUSH1 0x1 PUSH1 0xA0 SHL SUB DUP1 DUP9 AND PUSH1 0x1 PUSH1 0x1 PUSH1 0xA0 SHL SUB NOT SWAP3 DUP4 AND OR SWAP1 SWAP3 SSTORE PUSH1 0x68 DUP1 SLOAD DUP8 DUP5 AND SWAP1 DUP4 AND OR SWAP1 SSTORE PUSH1 0x67 DUP1 SLOAD DUP7 DUP5 AND SWAP1 DUP4 AND OR SWAP1 SSTORE PUSH2 0x2710 PUSH1 0x73 SSTORE PUSH1 0x69 DUP1 SLOAD SWAP3 DUP6 AND SWAP3 SWAP1 SWAP2 AND SWAP2 SWAP1 SWAP2 OR SWAP1 SSTORE PUSH8 0xDE0B6B3A7640000 PUSH1 0x74 SSTORE PUSH1 0x32 PUSH1 0x72 SSTORE DUP1 ISZERO PUSH2 0x1421 JUMPI PUSH1 0x0 DUP1 SLOAD PUSH2 0xFF00 NOT AND SWAP1 SSTORE JUMPDEST POP POP POP POP POP JUMP JUMPDEST PUSH1 0x0 PUSH2 0x1432 PUSH2 0x15AC JUMP JUMPDEST PUSH1 0x1 PUSH1 0x1 PUSH1 0xA0 SHL SUB AND PUSH2 0x1443 PUSH2 0x108E JUMP JUMPDEST PUSH1 0x1 PUSH1 0x1 PUSH1 0xA0 SHL SUB AND EQ PUSH2 0x1469 JUMPI PUSH1 0x40 MLOAD PUSH3 0x461BCD PUSH1 0xE5 SHL DUP2 MSTORE PUSH1 0x4 ADD PUSH2 0x62F SWAP1 PUSH2 0x2D46 JUMP JUMPDEST PUSH1 0x40 MLOAD DUP1 PUSH2 0x160 ADD PUSH1 0x40 MSTORE DUP1 DUP14 PUSH1 0x1 PUSH1 0x1 PUSH1 0xA0 SHL SUB AND DUP2 MSTORE PUSH1 0x20 ADD DUP13 DUP2 MSTORE PUSH1 0x20 ADD DUP12 DUP2 MSTORE PUSH1 0x20 ADD DUP11 DUP2 MSTORE PUSH1 0x20 ADD DUP10 DUP2 MSTORE PUSH1 0x20 ADD DUP9 DUP2 MSTORE PUSH1 0x20 ADD DUP8 DUP2 MSTORE PUSH1 0x20 ADD DUP7 DUP2 MSTORE PUSH1 0x20 ADD DUP6 DUP2 MSTORE PUSH1 0x20 ADD DUP5 DUP2 MSTORE PUSH1 0x20 ADD DUP4 DUP2 MSTORE POP PUSH1 0x6A PUSH1 0x0 DUP16 DUP2 MSTORE PUSH1 0x20 ADD SWAP1 DUP2 MSTORE PUSH1 0x20 ADD PUSH1 0x0 KECCAK256 PUSH1 0x0 DUP3 ADD MLOAD DUP2 PUSH1 0x0 ADD PUSH1 0x0 PUSH2 0x100 EXP DUP2 SLOAD DUP2 PUSH1 0x1 PUSH1 0x1 PUSH1 0xA0 SHL SUB MUL NOT AND SWAP1 DUP4 PUSH1 0x1 PUSH1 0x1 PUSH1 0xA0 SHL SUB AND MUL OR SWAP1 SSTORE POP PUSH1 0x20 DUP3 ADD MLOAD DUP2 PUSH1 0x1 ADD SSTORE PUSH1 0x40 DUP3 ADD MLOAD DUP2 PUSH1 0x2 ADD SWAP1 DUP1 MLOAD SWAP1 PUSH1 0x20 ADD SWAP1 PUSH2 0x1524 SWAP3 SWAP2 SWAP1 PUSH2 0x2344 JUMP JUMPDEST POP PUSH1 0x60 DUP3 ADD MLOAD PUSH1 0x3 DUP3 ADD SSTORE PUSH1 0x80 DUP3 ADD MLOAD PUSH1 0x4 DUP3 ADD SSTORE PUSH1 0xA0 DUP3 ADD MLOAD PUSH1 0x5 DUP3 ADD SSTORE PUSH1 0xC0 DUP3 ADD MLOAD PUSH1 0x6 DUP3 ADD SSTORE PUSH1 0xE0 DUP3 ADD MLOAD PUSH1 0x7 DUP3 ADD SSTORE PUSH2 0x100 DUP3 ADD MLOAD PUSH1 0x8 DUP3 ADD SSTORE PUSH2 0x120 DUP3 ADD MLOAD PUSH1 0x9 DUP3 ADD SSTORE PUSH2 0x140 SWAP1 SWAP2 ADD MLOAD PUSH1 0xA SWAP1 SWAP2 ADD SSTORE POP PUSH1 0x1 SWAP13 SWAP12 POP POP POP POP POP POP POP POP POP POP POP POP JUMP JUMPDEST PUSH1 0x0 PUSH2 0x1599 DUP3 DUP5 PUSH2 0x2F98 JUMP JUMPDEST SWAP4 SWAP3 POP POP POP JUMP JUMPDEST PUSH1 0x0 PUSH2 0x1599 DUP3 DUP5 PUSH2 0x2FB7 JUMP JUMPDEST CALLER SWAP1 JUMP JUMPDEST PUSH1 0x0 PUSH2 0x1599 DUP3 DUP5 PUSH2 0x2F78 JUMP JUMPDEST PUSH2 0x1614 DUP5 PUSH4 0x23B872DD PUSH1 0xE0 SHL DUP6 DUP6 DUP6 PUSH1 0x40 MLOAD PUSH1 0x24 ADD PUSH2 0x15DD SWAP4 SWAP3 SWAP2 SWAP1 PUSH2 0x2A91 JUMP JUMPDEST PUSH1 0x40 DUP1 MLOAD PUSH1 0x1F NOT DUP2 DUP5 SUB ADD DUP2 MSTORE SWAP2 SWAP1 MSTORE PUSH1 0x20 DUP2 ADD DUP1 MLOAD PUSH1 0x1 PUSH1 0x1 PUSH1 0xE0 SHL SUB AND PUSH1 0x1 PUSH1 0x1 PUSH1 0xE0 SHL SUB NOT SWAP1 SWAP4 AND SWAP3 SWAP1 SWAP3 OR SWAP1 SWAP2 MSTORE PUSH2 0x1FD3 JUMP JUMPDEST POP POP POP POP JUMP JUMPDEST PUSH2 0x1639 DUP4 PUSH4 0xA9059CBB PUSH1 0xE0 SHL DUP5 DUP5 PUSH1 0x40 MLOAD PUSH1 0x24 ADD PUSH2 0x15DD SWAP3 SWAP2 SWAP1 PUSH2 0x2AB5 JUMP JUMPDEST POP POP POP JUMP JUMPDEST PUSH1 0x0 DUP4 DUP2 MSTORE PUSH1 0x6A PUSH1 0x20 MSTORE PUSH1 0x40 DUP2 KECCAK256 PUSH1 0x4 DUP2 ADD SLOAD DUP3 SWAP1 DUP2 SWAP1 DUP2 SWAP1 PUSH1 0x1 EQ ISZERO PUSH2 0x16FB JUMPI DUP4 PUSH1 0x5 ADD SLOAD DUP8 LT ISZERO PUSH2 0x16F6 JUMPI PUSH1 0x5 DUP5 ADD SLOAD PUSH2 0x167A SWAP1 DUP9 PUSH2 0x15A0 JUMP JUMPDEST SWAP3 POP PUSH2 0x169F PUSH8 0xDE0B6B3A7640000 PUSH2 0x88F DUP7 PUSH1 0x9 ADD SLOAD DUP7 PUSH2 0x158D SWAP1 SWAP2 SWAP1 PUSH4 0xFFFFFFFF AND JUMP JUMPDEST SWAP2 POP PUSH2 0x16D6 PUSH8 0xDE0B6B3A7640000 PUSH2 0x88F PUSH1 0x73 SLOAD PUSH2 0x88F PUSH1 0x72 SLOAD PUSH2 0x16D0 DUP14 DUP12 PUSH1 0x9 ADD SLOAD PUSH2 0x158D SWAP1 SWAP2 SWAP1 PUSH4 0xFFFFFFFF AND JUMP JUMPDEST SWAP1 PUSH2 0x158D JUMP JUMPDEST SWAP1 POP PUSH2 0x16E2 DUP2 DUP4 PUSH2 0x2F60 JUMP JUMPDEST DUP7 LT ISZERO PUSH2 0x16F6 JUMPI PUSH1 0x0 SWAP5 POP POP POP POP POP PUSH2 0x1599 JUMP JUMPDEST PUSH2 0x178D JUMP JUMPDEST DUP4 PUSH1 0x5 ADD SLOAD DUP8 GT ISZERO PUSH2 0x178D JUMPI PUSH1 0x5 DUP5 ADD SLOAD PUSH2 0x1717 SWAP1 DUP9 SWAP1 PUSH2 0x15A0 JUMP JUMPDEST SWAP3 POP PUSH2 0x173C PUSH8 0xDE0B6B3A7640000 PUSH2 0x88F DUP7 PUSH1 0x9 ADD SLOAD DUP7 PUSH2 0x158D SWAP1 SWAP2 SWAP1 PUSH4 0xFFFFFFFF AND JUMP JUMPDEST SWAP2 POP PUSH2 0x176D PUSH8 0xDE0B6B3A7640000 PUSH2 0x88F PUSH1 0x73 SLOAD PUSH2 0x88F PUSH1 0x72 SLOAD PUSH2 0x16D0 DUP14 DUP12 PUSH1 0x9 ADD SLOAD PUSH2 0x158D SWAP1 SWAP2 SWAP1 PUSH4 0xFFFFFFFF AND JUMP JUMPDEST SWAP1 POP PUSH2 0x1779 DUP2 DUP4 PUSH2 0x2F60 JUMP JUMPDEST DUP7 LT ISZERO PUSH2 0x178D JUMPI PUSH1 0x0 SWAP5 POP POP POP POP POP PUSH2 0x1599 JUMP JUMPDEST POP PUSH1 0x1 SWAP8 SWAP7 POP POP POP POP POP POP POP JUMP JUMPDEST DUP7 SLOAD PUSH1 0x0 SWAP1 PUSH1 0x1 PUSH1 0x1 PUSH1 0xA0 SHL SUB AND PUSH2 0x17C5 JUMPI PUSH1 0x40 MLOAD PUSH3 0x461BCD PUSH1 0xE5 SHL DUP2 MSTORE PUSH1 0x4 ADD PUSH2 0x62F SWAP1 PUSH2 0x2B69 JUMP JUMPDEST PUSH1 0x2 DUP9 PUSH1 0x3 ADD SLOAD LT PUSH2 0x17E9 JUMPI PUSH1 0x40 MLOAD PUSH3 0x461BCD PUSH1 0xE5 SHL DUP2 MSTORE PUSH1 0x4 ADD PUSH2 0x62F SWAP1 PUSH2 0x2DF8 JUMP JUMPDEST PUSH1 0x69 SLOAD PUSH1 0x40 MLOAD PUSH4 0x11CDC9D9 PUSH1 0xE1 SHL DUP2 MSTORE PUSH1 0x1 PUSH1 0x1 PUSH1 0xA0 SHL SUB SWAP1 SWAP2 AND SWAP1 PUSH4 0x239B93B2 SWAP1 PUSH2 0x1821 SWAP1 DUP13 SWAP1 DUP8 SWAP1 DUP11 SWAP1 DUP11 SWAP1 DUP10 SWAP1 PUSH1 0x4 ADD PUSH2 0x2B1D JUMP JUMPDEST PUSH1 0x20 PUSH1 0x40 MLOAD DUP1 DUP4 SUB DUP2 DUP7 DUP1 EXTCODESIZE ISZERO DUP1 ISZERO PUSH2 0x1839 JUMPI PUSH1 0x0 DUP1 REVERT JUMPDEST POP GAS STATICCALL ISZERO DUP1 ISZERO PUSH2 0x184D JUMPI RETURNDATASIZE PUSH1 0x0 DUP1 RETURNDATACOPY RETURNDATASIZE PUSH1 0x0 REVERT JUMPDEST POP POP POP POP PUSH1 0x40 MLOAD RETURNDATASIZE PUSH1 0x1F NOT PUSH1 0x1F DUP3 ADD AND DUP3 ADD DUP1 PUSH1 0x40 MSTORE POP DUP2 ADD SWAP1 PUSH2 0x1871 SWAP2 SWAP1 PUSH2 0x2696 JUMP JUMPDEST PUSH2 0x188D JUMPI PUSH1 0x40 MLOAD PUSH3 0x461BCD PUSH1 0xE5 SHL DUP2 MSTORE PUSH1 0x4 ADD PUSH2 0x62F SWAP1 PUSH2 0x2BDD JUMP JUMPDEST DUP3 DUP9 PUSH1 0x7 ADD DUP2 SWAP1 SSTORE POP PUSH1 0x0 DUP1 PUSH1 0x0 DUP11 PUSH1 0x4 ADD SLOAD PUSH1 0x1 EQ ISZERO PUSH2 0x1BD8 JUMPI DUP11 PUSH1 0x5 ADD SLOAD DUP12 PUSH1 0x7 ADD SLOAD GT ISZERO PUSH2 0x1A44 JUMPI PUSH1 0x5 DUP12 ADD SLOAD PUSH1 0x7 DUP13 ADD SLOAD PUSH2 0x18CB SWAP2 PUSH2 0x15A0 JUMP JUMPDEST SWAP3 POP PUSH2 0x18F0 PUSH8 0xDE0B6B3A7640000 PUSH2 0x88F DUP14 PUSH1 0x9 ADD SLOAD DUP7 PUSH2 0x158D SWAP1 SWAP2 SWAP1 PUSH4 0xFFFFFFFF AND JUMP JUMPDEST PUSH1 0xA DUP13 ADD SLOAD SWAP1 SWAP3 POP PUSH2 0x1902 SWAP1 DUP4 PUSH2 0x2062 JUMP JUMPDEST SWAP1 POP PUSH1 0x0 PUSH2 0x1921 PUSH1 0x73 SLOAD PUSH2 0x88F PUSH1 0x72 SLOAD DUP6 PUSH2 0x158D SWAP1 SWAP2 SWAP1 PUSH4 0xFFFFFFFF AND JUMP JUMPDEST PUSH1 0x67 SLOAD PUSH1 0x68 SLOAD PUSH1 0x40 MLOAD PUSH4 0x40C10F19 PUSH1 0xE0 SHL DUP2 MSTORE SWAP3 SWAP4 POP PUSH1 0x1 PUSH1 0x1 PUSH1 0xA0 SHL SUB SWAP2 DUP3 AND SWAP3 PUSH4 0x40C10F19 SWAP3 PUSH2 0x1959 SWAP3 AND SWAP1 DUP6 SWAP1 PUSH1 0x4 ADD PUSH2 0x2AB5 JUMP JUMPDEST PUSH1 0x20 PUSH1 0x40 MLOAD DUP1 DUP4 SUB DUP2 PUSH1 0x0 DUP8 DUP1 EXTCODESIZE ISZERO DUP1 ISZERO PUSH2 0x1973 JUMPI PUSH1 0x0 DUP1 REVERT JUMPDEST POP GAS CALL ISZERO DUP1 ISZERO PUSH2 0x1987 JUMPI RETURNDATASIZE PUSH1 0x0 DUP1 RETURNDATACOPY RETURNDATASIZE PUSH1 0x0 REVERT JUMPDEST POP POP POP POP PUSH1 0x40 MLOAD RETURNDATASIZE PUSH1 0x1F NOT PUSH1 0x1F DUP3 ADD AND DUP3 ADD DUP1 PUSH1 0x40 MSTORE POP DUP2 ADD SWAP1 PUSH2 0x19AB SWAP2 SWAP1 PUSH2 0x2696 JUMP JUMPDEST POP PUSH1 0x67 SLOAD DUP13 SLOAD PUSH1 0x1 PUSH1 0x1 PUSH1 0xA0 SHL SUB SWAP2 DUP3 AND SWAP2 PUSH4 0x40C10F19 SWAP2 AND PUSH2 0x19CE DUP6 DUP6 PUSH2 0x15A0 JUMP JUMPDEST PUSH1 0x40 MLOAD DUP4 PUSH4 0xFFFFFFFF AND PUSH1 0xE0 SHL DUP2 MSTORE PUSH1 0x4 ADD PUSH2 0x19EB SWAP3 SWAP2 SWAP1 PUSH2 0x2AB5 JUMP JUMPDEST PUSH1 0x20 PUSH1 0x40 MLOAD DUP1 DUP4 SUB DUP2 PUSH1 0x0 DUP8 DUP1 EXTCODESIZE ISZERO DUP1 ISZERO PUSH2 0x1A05 JUMPI PUSH1 0x0 DUP1 REVERT JUMPDEST POP GAS CALL ISZERO DUP1 ISZERO PUSH2 0x1A19 JUMPI RETURNDATASIZE PUSH1 0x0 DUP1 RETURNDATACOPY RETURNDATASIZE PUSH1 0x0 REVERT JUMPDEST POP POP POP POP PUSH1 0x40 MLOAD RETURNDATASIZE PUSH1 0x1F NOT PUSH1 0x1F DUP3 ADD AND DUP3 ADD DUP1 PUSH1 0x40 MSTORE POP DUP2 ADD SWAP1 PUSH2 0x1A3D SWAP2 SWAP1 PUSH2 0x2696 JUMP JUMPDEST POP POP PUSH2 0x1BD3 JUMP JUMPDEST PUSH1 0x7 DUP12 ADD SLOAD PUSH1 0x5 DUP13 ADD SLOAD PUSH2 0x1A57 SWAP2 PUSH2 0x15A0 JUMP JUMPDEST SWAP3 POP PUSH2 0x1A70 DUP12 PUSH1 0x9 ADD SLOAD DUP5 PUSH2 0x158D SWAP1 SWAP2 SWAP1 PUSH4 0xFFFFFFFF AND JUMP JUMPDEST SWAP2 POP DUP11 PUSH1 0xA ADD SLOAD DUP3 GT ISZERO PUSH2 0x1A86 JUMPI POP PUSH1 0x0 PUSH2 0x1BD3 JUMP JUMPDEST PUSH1 0xA DUP12 ADD SLOAD PUSH2 0x1A95 SWAP1 DUP4 PUSH2 0x15A0 JUMP JUMPDEST SWAP1 POP PUSH1 0x0 PUSH2 0x1AB4 PUSH1 0x73 SLOAD PUSH2 0x88F PUSH1 0x72 SLOAD DUP6 PUSH2 0x158D SWAP1 SWAP2 SWAP1 PUSH4 0xFFFFFFFF AND JUMP JUMPDEST PUSH1 0x67 SLOAD PUSH1 0x68 SLOAD PUSH1 0x40 MLOAD PUSH4 0x40C10F19 PUSH1 0xE0 SHL DUP2 MSTORE SWAP3 SWAP4 POP PUSH1 0x1 PUSH1 0x1 PUSH1 0xA0 SHL SUB SWAP2 DUP3 AND SWAP3 PUSH4 0x40C10F19 SWAP3 PUSH2 0x1AEC SWAP3 AND SWAP1 DUP6 SWAP1 PUSH1 0x4 ADD PUSH2 0x2AB5 JUMP JUMPDEST PUSH1 0x20 PUSH1 0x40 MLOAD DUP1 DUP4 SUB DUP2 PUSH1 0x0 DUP8 DUP1 EXTCODESIZE ISZERO DUP1 ISZERO PUSH2 0x1B06 JUMPI PUSH1 0x0 DUP1 REVERT JUMPDEST POP GAS CALL ISZERO DUP1 ISZERO PUSH2 0x1B1A JUMPI RETURNDATASIZE PUSH1 0x0 DUP1 RETURNDATACOPY RETURNDATASIZE PUSH1 0x0 REVERT JUMPDEST POP POP POP POP PUSH1 0x40 MLOAD RETURNDATASIZE PUSH1 0x1F NOT PUSH1 0x1F DUP3 ADD AND DUP3 ADD DUP1 PUSH1 0x40 MSTORE POP DUP2 ADD SWAP1 PUSH2 0x1B3E SWAP2 SWAP1 PUSH2 0x2696 JUMP JUMPDEST POP PUSH1 0x67 SLOAD DUP13 SLOAD PUSH1 0x1 PUSH1 0x1 PUSH1 0xA0 SHL SUB SWAP2 DUP3 AND SWAP2 PUSH4 0x40C10F19 SWAP2 AND PUSH2 0x1B61 DUP6 DUP6 PUSH2 0x15A0 JUMP JUMPDEST PUSH1 0x40 MLOAD DUP4 PUSH4 0xFFFFFFFF AND PUSH1 0xE0 SHL DUP2 MSTORE PUSH1 0x4 ADD PUSH2 0x1B7E SWAP3 SWAP2 SWAP1 PUSH2 0x2AB5 JUMP JUMPDEST PUSH1 0x20 PUSH1 0x40 MLOAD DUP1 DUP4 SUB DUP2 PUSH1 0x0 DUP8 DUP1 EXTCODESIZE ISZERO DUP1 ISZERO PUSH2 0x1B98 JUMPI PUSH1 0x0 DUP1 REVERT JUMPDEST POP GAS CALL ISZERO DUP1 ISZERO PUSH2 0x1BAC JUMPI RETURNDATASIZE PUSH1 0x0 DUP1 RETURNDATACOPY RETURNDATASIZE PUSH1 0x0 REVERT JUMPDEST POP POP POP POP PUSH1 0x40 MLOAD RETURNDATASIZE PUSH1 0x1F NOT PUSH1 0x1F DUP3 ADD AND DUP3 ADD DUP1 PUSH1 0x40 MSTORE POP DUP2 ADD SWAP1 PUSH2 0x1BD0 SWAP2 SWAP1 PUSH2 0x2696 JUMP JUMPDEST POP POP JUMPDEST PUSH2 0x1DCD JUMP JUMPDEST DUP11 PUSH1 0x5 ADD SLOAD DUP12 PUSH1 0x7 ADD SLOAD LT ISZERO PUSH2 0x1C32 JUMPI PUSH1 0x7 DUP12 ADD SLOAD PUSH1 0x5 DUP13 ADD SLOAD PUSH2 0x1BFB SWAP2 PUSH2 0x15A0 JUMP JUMPDEST SWAP3 POP PUSH2 0x1C20 PUSH8 0xDE0B6B3A7640000 PUSH2 0x88F DUP14 PUSH1 0x9 ADD SLOAD DUP7 PUSH2 0x158D SWAP1 SWAP2 SWAP1 PUSH4 0xFFFFFFFF AND JUMP JUMPDEST PUSH1 0xA DUP13 ADD SLOAD SWAP1 SWAP3 POP PUSH2 0x1A95 SWAP1 DUP4 PUSH2 0x2062 JUMP JUMPDEST PUSH1 0x5 DUP12 ADD SLOAD PUSH1 0x7 DUP13 ADD SLOAD PUSH2 0x1C45 SWAP2 PUSH2 0x15A0 JUMP JUMPDEST SWAP3 POP PUSH2 0x1C6A PUSH8 0xDE0B6B3A7640000 PUSH2 0x88F DUP14 PUSH1 0x9 ADD SLOAD DUP7 PUSH2 0x158D SWAP1 SWAP2 SWAP1 PUSH4 0xFFFFFFFF AND JUMP JUMPDEST SWAP2 POP DUP11 PUSH1 0xA ADD SLOAD DUP3 GT ISZERO PUSH2 0x1C80 JUMPI POP PUSH1 0x0 PUSH2 0x1DCD JUMP JUMPDEST PUSH1 0xA DUP12 ADD SLOAD PUSH2 0x1C8F SWAP1 DUP4 PUSH2 0x15A0 JUMP JUMPDEST SWAP1 POP PUSH1 0x0 PUSH2 0x1CAE PUSH1 0x73 SLOAD PUSH2 0x88F PUSH1 0x72 SLOAD DUP6 PUSH2 0x158D SWAP1 SWAP2 SWAP1 PUSH4 0xFFFFFFFF AND JUMP JUMPDEST PUSH1 0x67 SLOAD PUSH1 0x68 SLOAD PUSH1 0x40 MLOAD PUSH4 0x40C10F19 PUSH1 0xE0 SHL DUP2 MSTORE SWAP3 SWAP4 POP PUSH1 0x1 PUSH1 0x1 PUSH1 0xA0 SHL SUB SWAP2 DUP3 AND SWAP3 PUSH4 0x40C10F19 SWAP3 PUSH2 0x1CE6 SWAP3 AND SWAP1 DUP6 SWAP1 PUSH1 0x4 ADD PUSH2 0x2AB5 JUMP JUMPDEST PUSH1 0x20 PUSH1 0x40 MLOAD DUP1 DUP4 SUB DUP2 PUSH1 0x0 DUP8 DUP1 EXTCODESIZE ISZERO DUP1 ISZERO PUSH2 0x1D00 JUMPI PUSH1 0x0 DUP1 REVERT JUMPDEST POP GAS CALL ISZERO DUP1 ISZERO PUSH2 0x1D14 JUMPI RETURNDATASIZE PUSH1 0x0 DUP1 RETURNDATACOPY RETURNDATASIZE PUSH1 0x0 REVERT JUMPDEST POP POP POP POP PUSH1 0x40 MLOAD RETURNDATASIZE PUSH1 0x1F NOT PUSH1 0x1F DUP3 ADD AND DUP3 ADD DUP1 PUSH1 0x40 MSTORE POP DUP2 ADD SWAP1 PUSH2 0x1D38 SWAP2 SWAP1 PUSH2 0x2696 JUMP JUMPDEST POP PUSH1 0x67 SLOAD DUP13 SLOAD PUSH1 0x1 PUSH1 0x1 PUSH1 0xA0 SHL SUB SWAP2 DUP3 AND SWAP2 PUSH4 0x40C10F19 SWAP2 AND PUSH2 0x1D5B DUP6 DUP6 PUSH2 0x15A0 JUMP JUMPDEST PUSH1 0x40 MLOAD DUP4 PUSH4 0xFFFFFFFF AND PUSH1 0xE0 SHL DUP2 MSTORE PUSH1 0x4 ADD PUSH2 0x1D78 SWAP3 SWAP2 SWAP1 PUSH2 0x2AB5 JUMP JUMPDEST PUSH1 0x20 PUSH1 0x40 MLOAD DUP1 DUP4 SUB DUP2 PUSH1 0x0 DUP8 DUP1 EXTCODESIZE ISZERO DUP1 ISZERO PUSH2 0x1D92 JUMPI PUSH1 0x0 DUP1 REVERT JUMPDEST POP GAS CALL ISZERO DUP1 ISZERO PUSH2 0x1DA6 JUMPI RETURNDATASIZE PUSH1 0x0 DUP1 RETURNDATACOPY RETURNDATASIZE PUSH1 0x0 REVERT JUMPDEST POP POP POP POP PUSH1 0x40 MLOAD RETURNDATASIZE PUSH1 0x1F NOT PUSH1 0x1F DUP3 ADD AND DUP3 ADD DUP1 PUSH1 0x40 MSTORE POP DUP2 ADD SWAP1 PUSH2 0x1DCA SWAP2 SWAP1 PUSH2 0x2696 JUMP JUMPDEST POP POP JUMPDEST PUSH1 0x68 PUSH1 0x0 SWAP1 SLOAD SWAP1 PUSH2 0x100 EXP SWAP1 DIV PUSH1 0x1 PUSH1 0x1 PUSH1 0xA0 SHL SUB AND PUSH1 0x1 PUSH1 0x1 PUSH1 0xA0 SHL SUB AND PUSH4 0xD10C06A2 PUSH1 0x40 MLOAD DUP2 PUSH4 0xFFFFFFFF AND PUSH1 0xE0 SHL DUP2 MSTORE PUSH1 0x4 ADD PUSH1 0x20 PUSH1 0x40 MLOAD DUP1 DUP4 SUB DUP2 PUSH1 0x0 DUP8 DUP1 EXTCODESIZE ISZERO DUP1 ISZERO PUSH2 0x1E1D JUMPI PUSH1 0x0 DUP1 REVERT JUMPDEST POP GAS CALL ISZERO DUP1 ISZERO PUSH2 0x1E31 JUMPI RETURNDATASIZE PUSH1 0x0 DUP1 RETURNDATACOPY RETURNDATASIZE PUSH1 0x0 REVERT JUMPDEST POP POP POP POP PUSH1 0x40 MLOAD RETURNDATASIZE PUSH1 0x1F NOT PUSH1 0x1F DUP3 ADD AND DUP3 ADD DUP1 PUSH1 0x40 MSTORE POP DUP2 ADD SWAP1 PUSH2 0x1E55 SWAP2 SWAP1 PUSH2 0x2696 JUMP JUMPDEST POP PUSH1 0x3 DUP12 ADD DUP11 SWAP1 SSTORE PUSH1 0x7 DUP12 ADD DUP7 SWAP1 SSTORE PUSH1 0x8 DUP12 ADD DUP9 SWAP1 SSTORE PUSH2 0x1E78 DUP10 PUSH1 0x6D PUSH1 0x6C PUSH2 0x206E JUMP JUMPDEST CALLER PUSH1 0x0 SWAP1 DUP2 MSTORE PUSH1 0x6F PUSH1 0x20 SWAP1 DUP2 MSTORE PUSH1 0x40 DUP1 DUP4 KECCAK256 PUSH1 0x6E SWAP1 SWAP3 MSTORE SWAP1 SWAP2 KECCAK256 PUSH2 0x1E9D SWAP2 DUP12 SWAP2 PUSH2 0x206E JUMP JUMPDEST CALLER PUSH1 0x0 DUP2 DUP2 MSTORE PUSH1 0x70 PUSH1 0x20 SWAP1 DUP2 MSTORE PUSH1 0x40 DUP3 KECCAK256 DUP1 SLOAD PUSH1 0x1 DUP2 DUP2 ADD DUP4 SSTORE SWAP2 DUP5 MSTORE SWAP2 SWAP1 SWAP3 KECCAK256 ADD DUP12 SWAP1 SSTORE PUSH2 0x1ECF SWAP2 PUSH2 0x589 SWAP1 PUSH2 0x1229 JUMP JUMPDEST CALLER PUSH1 0x0 SWAP1 DUP2 MSTORE PUSH1 0x71 PUSH1 0x20 SWAP1 DUP2 MSTORE PUSH1 0x40 DUP1 DUP4 KECCAK256 DUP14 DUP5 MSTORE SWAP1 SWAP2 MSTORE SWAP1 KECCAK256 SSTORE POP PUSH1 0x1 SWAP3 POP POP POP SWAP9 SWAP8 POP POP POP POP POP POP POP POP JUMP JUMPDEST PUSH1 0x33 DUP1 SLOAD PUSH1 0x1 PUSH1 0x1 PUSH1 0xA0 SHL SUB DUP4 DUP2 AND PUSH1 0x1 PUSH1 0x1 PUSH1 0xA0 SHL SUB NOT DUP4 AND DUP2 OR SWAP1 SWAP4 SSTORE PUSH1 0x40 MLOAD SWAP2 AND SWAP2 SWAP1 DUP3 SWAP1 PUSH32 0x8BE0079C531659141344CD1FD0A4F28419497F9722A3DAAFE3B4186F6B6457E0 SWAP1 PUSH1 0x0 SWAP1 LOG3 POP POP JUMP JUMPDEST PUSH1 0x0 SLOAD PUSH2 0x100 SWAP1 DIV PUSH1 0xFF AND DUP1 PUSH2 0x1F68 JUMPI POP PUSH1 0x0 SLOAD PUSH1 0xFF AND ISZERO JUMPDEST PUSH2 0x1F84 JUMPI PUSH1 0x40 MLOAD PUSH3 0x461BCD PUSH1 0xE5 SHL DUP2 MSTORE PUSH1 0x4 ADD PUSH2 0x62F SWAP1 PUSH2 0x2C8B JUMP JUMPDEST PUSH1 0x0 SLOAD PUSH2 0x100 SWAP1 DIV PUSH1 0xFF AND ISZERO DUP1 ISZERO PUSH2 0x1FAF JUMPI PUSH1 0x0 DUP1 SLOAD PUSH1 0xFF NOT PUSH2 0xFF00 NOT SWAP1 SWAP2 AND PUSH2 0x100 OR AND PUSH1 0x1 OR SWAP1 SSTORE JUMPDEST PUSH2 0x1FB7 PUSH2 0x214B JUMP JUMPDEST PUSH2 0x1FBF PUSH2 0x21BE JUMP JUMPDEST DUP1 ISZERO PUSH2 0x133D JUMPI PUSH1 0x0 DUP1 SLOAD PUSH2 0xFF00 NOT AND SWAP1 SSTORE POP JUMP JUMPDEST PUSH1 0x0 PUSH2 0x2028 DUP3 PUSH1 0x40 MLOAD DUP1 PUSH1 0x40 ADD PUSH1 0x40 MSTORE DUP1 PUSH1 0x20 DUP2 MSTORE PUSH1 0x20 ADD PUSH32 0x5361666545524332303A206C6F772D6C6576656C2063616C6C206661696C6564 DUP2 MSTORE POP DUP6 PUSH1 0x1 PUSH1 0x1 PUSH1 0xA0 SHL SUB AND PUSH2 0x222E SWAP1 SWAP3 SWAP2 SWAP1 PUSH4 0xFFFFFFFF AND JUMP JUMPDEST DUP1 MLOAD SWAP1 SWAP2 POP ISZERO PUSH2 0x1639 JUMPI DUP1 DUP1 PUSH1 0x20 ADD SWAP1 MLOAD DUP2 ADD SWAP1 PUSH2 0x2046 SWAP2 SWAP1 PUSH2 0x2696 JUMP JUMPDEST PUSH2 0x1639 JUMPI PUSH1 0x40 MLOAD PUSH3 0x461BCD PUSH1 0xE5 SHL DUP2 MSTORE PUSH1 0x4 ADD PUSH2 0x62F SWAP1 PUSH2 0x2E1B JUMP JUMPDEST PUSH1 0x0 PUSH2 0x1599 DUP3 DUP5 PUSH2 0x2F60 JUMP JUMPDEST PUSH1 0x0 DUP4 DUP2 MSTORE PUSH1 0x20 DUP4 SWAP1 MSTORE PUSH1 0x40 DUP2 KECCAK256 SLOAD DUP3 SLOAD SWAP1 SWAP2 SWAP1 DUP4 SWAP1 PUSH2 0x208F SWAP1 PUSH1 0x1 PUSH2 0x15A0 JUMP JUMPDEST DUP2 SLOAD DUP2 LT PUSH2 0x20AD JUMPI PUSH4 0x4E487B71 PUSH1 0xE0 SHL PUSH1 0x0 MSTORE PUSH1 0x32 PUSH1 0x4 MSTORE PUSH1 0x24 PUSH1 0x0 REVERT JUMPDEST SWAP1 PUSH1 0x0 MSTORE PUSH1 0x20 PUSH1 0x0 KECCAK256 ADD SLOAD SWAP1 POP DUP2 DUP5 PUSH1 0x0 DUP4 DUP2 MSTORE PUSH1 0x20 ADD SWAP1 DUP2 MSTORE PUSH1 0x20 ADD PUSH1 0x0 KECCAK256 DUP2 SWAP1 SSTORE POP DUP1 DUP4 DUP4 DUP2 SLOAD DUP2 LT PUSH2 0x20F2 JUMPI PUSH4 0x4E487B71 PUSH1 0xE0 SHL PUSH1 0x0 MSTORE PUSH1 0x32 PUSH1 0x4 MSTORE PUSH1 0x24 PUSH1 0x0 REVERT JUMPDEST PUSH1 0x0 SWAP2 DUP3 MSTORE PUSH1 0x20 DUP1 DUP4 KECCAK256 SWAP1 SWAP2 ADD SWAP3 SWAP1 SWAP3 SSTORE DUP7 DUP2 MSTORE SWAP1 DUP6 SWAP1 MSTORE PUSH1 0x40 DUP2 KECCAK256 SSTORE DUP3 SLOAD DUP4 SWAP1 DUP1 PUSH2 0x212E JUMPI PUSH4 0x4E487B71 PUSH1 0xE0 SHL PUSH1 0x0 MSTORE PUSH1 0x31 PUSH1 0x4 MSTORE PUSH1 0x24 PUSH1 0x0 REVERT JUMPDEST PUSH1 0x1 SWAP1 SUB DUP2 DUP2 SWAP1 PUSH1 0x0 MSTORE PUSH1 0x20 PUSH1 0x0 KECCAK256 ADD PUSH1 0x0 SWAP1 SSTORE SWAP1 SSTORE POP POP POP POP POP JUMP JUMPDEST PUSH1 0x0 SLOAD PUSH2 0x100 SWAP1 DIV PUSH1 0xFF AND DUP1 PUSH2 0x2164 JUMPI POP PUSH1 0x0 SLOAD PUSH1 0xFF AND ISZERO JUMPDEST PUSH2 0x2180 JUMPI PUSH1 0x40 MLOAD PUSH3 0x461BCD PUSH1 0xE5 SHL DUP2 MSTORE PUSH1 0x4 ADD PUSH2 0x62F SWAP1 PUSH2 0x2C8B JUMP JUMPDEST PUSH1 0x0 SLOAD PUSH2 0x100 SWAP1 DIV PUSH1 0xFF AND ISZERO DUP1 ISZERO PUSH2 0x1FBF JUMPI PUSH1 0x0 DUP1 SLOAD PUSH1 0xFF NOT PUSH2 0xFF00 NOT SWAP1 SWAP2 AND PUSH2 0x100 OR AND PUSH1 0x1 OR SWAP1 SSTORE DUP1 ISZERO PUSH2 0x133D JUMPI PUSH1 0x0 DUP1 SLOAD PUSH2 0xFF00 NOT AND SWAP1 SSTORE POP JUMP JUMPDEST PUSH1 0x0 SLOAD PUSH2 0x100 SWAP1 DIV PUSH1 0xFF AND DUP1 PUSH2 0x21D7 JUMPI POP PUSH1 0x0 SLOAD PUSH1 0xFF AND ISZERO JUMPDEST PUSH2 0x21F3 JUMPI PUSH1 0x40 MLOAD PUSH3 0x461BCD PUSH1 0xE5 SHL DUP2 MSTORE PUSH1 0x4 ADD PUSH2 0x62F SWAP1 PUSH2 0x2C8B JUMP JUMPDEST PUSH1 0x0 SLOAD PUSH2 0x100 SWAP1 DIV PUSH1 0xFF AND ISZERO DUP1 ISZERO PUSH2 0x221E JUMPI PUSH1 0x0 DUP1 SLOAD PUSH1 0xFF NOT PUSH2 0xFF00 NOT SWAP1 SWAP2 AND PUSH2 0x100 OR AND PUSH1 0x1 OR SWAP1 SSTORE JUMPDEST PUSH2 0x1FBF PUSH2 0x2229 PUSH2 0x15AC JUMP JUMPDEST PUSH2 0x1EFD JUMP JUMPDEST PUSH1 0x60 PUSH2 0x223D DUP5 DUP5 PUSH1 0x0 DUP6 PUSH2 0x2245 JUMP JUMPDEST SWAP5 SWAP4 POP POP POP POP JUMP JUMPDEST PUSH1 0x60 DUP3 SELFBALANCE LT ISZERO PUSH2 0x2267 JUMPI PUSH1 0x40 MLOAD PUSH3 0x461BCD PUSH1 0xE5 SHL DUP2 MSTORE PUSH1 0x4 ADD PUSH2 0x62F SWAP1 PUSH2 0x2C45 JUMP JUMPDEST PUSH2 0x2270 DUP6 PUSH2 0x2305 JUMP JUMPDEST PUSH2 0x228C JUMPI PUSH1 0x40 MLOAD PUSH3 0x461BCD PUSH1 0xE5 SHL DUP2 MSTORE PUSH1 0x4 ADD PUSH2 0x62F SWAP1 PUSH2 0x2D7B JUMP JUMPDEST PUSH1 0x0 DUP1 DUP7 PUSH1 0x1 PUSH1 0x1 PUSH1 0xA0 SHL SUB AND DUP6 DUP8 PUSH1 0x40 MLOAD PUSH2 0x22A8 SWAP2 SWAP1 PUSH2 0x2A61 JUMP JUMPDEST PUSH1 0x0 PUSH1 0x40 MLOAD DUP1 DUP4 SUB DUP2 DUP6 DUP8 GAS CALL SWAP3 POP POP POP RETURNDATASIZE DUP1 PUSH1 0x0 DUP2 EQ PUSH2 0x22E5 JUMPI PUSH1 0x40 MLOAD SWAP2 POP PUSH1 0x1F NOT PUSH1 0x3F RETURNDATASIZE ADD AND DUP3 ADD PUSH1 0x40 MSTORE RETURNDATASIZE DUP3 MSTORE RETURNDATASIZE PUSH1 0x0 PUSH1 0x20 DUP5 ADD RETURNDATACOPY PUSH2 0x22EA JUMP JUMPDEST PUSH1 0x60 SWAP2 POP JUMPDEST POP SWAP2 POP SWAP2 POP PUSH2 0x22FA DUP3 DUP3 DUP7 PUSH2 0x230B JUMP JUMPDEST SWAP8 SWAP7 POP POP POP POP POP POP POP JUMP JUMPDEST EXTCODESIZE ISZERO ISZERO SWAP1 JUMP JUMPDEST PUSH1 0x60 DUP4 ISZERO PUSH2 0x231A JUMPI POP DUP2 PUSH2 0x1599 JUMP JUMPDEST DUP3 MLOAD ISZERO PUSH2 0x232A JUMPI DUP3 MLOAD DUP1 DUP5 PUSH1 0x20 ADD REVERT JUMPDEST DUP2 PUSH1 0x40 MLOAD PUSH3 0x461BCD PUSH1 0xE5 SHL DUP2 MSTORE PUSH1 0x4 ADD PUSH2 0x62F SWAP2 SWAP1 PUSH2 0x2B56 JUMP JUMPDEST DUP3 DUP1 SLOAD PUSH2 0x2350 SWAP1 PUSH2 0x2FFA JUMP JUMPDEST SWAP1 PUSH1 0x0 MSTORE PUSH1 0x20 PUSH1 0x0 KECCAK256 SWAP1 PUSH1 0x1F ADD PUSH1 0x20 SWAP1 DIV DUP2 ADD SWAP3 DUP3 PUSH2 0x2372 JUMPI PUSH1 0x0 DUP6 SSTORE PUSH2 0x23B8 JUMP JUMPDEST DUP3 PUSH1 0x1F LT PUSH2 0x238B JUMPI DUP1 MLOAD PUSH1 0xFF NOT AND DUP4 DUP1 ADD OR DUP6 SSTORE PUSH2 0x23B8 JUMP JUMPDEST DUP3 DUP1 ADD PUSH1 0x1 ADD DUP6 SSTORE DUP3 ISZERO PUSH2 0x23B8 JUMPI SWAP2 DUP3 ADD JUMPDEST DUP3 DUP2 GT ISZERO PUSH2 0x23B8 JUMPI DUP3 MLOAD DUP3 SSTORE SWAP2 PUSH1 0x20 ADD SWAP2 SWAP1 PUSH1 0x1 ADD SWAP1 PUSH2 0x239D JUMP JUMPDEST POP PUSH2 0x23C4 SWAP3 SWAP2 POP PUSH2 0x242B JUMP JUMPDEST POP SWAP1 JUMP JUMPDEST PUSH1 0x40 MLOAD DUP1 PUSH2 0x160 ADD PUSH1 0x40 MSTORE DUP1 PUSH1 0x0 PUSH1 0x1 PUSH1 0x1 PUSH1 0xA0 SHL SUB AND DUP2 MSTORE PUSH1 0x20 ADD PUSH1 0x0 DUP2 MSTORE PUSH1 0x20 ADD PUSH1 0x60 DUP2 MSTORE PUSH1 0x20 ADD PUSH1 0x0 DUP2 MSTORE PUSH1 0x20 ADD PUSH1 0x0 DUP2 MSTORE PUSH1 0x20 ADD PUSH1 0x0 DUP2 MSTORE PUSH1 0x20 ADD PUSH1 0x0 DUP2 MSTORE PUSH1 0x20 ADD PUSH1 0x0 DUP2 MSTORE PUSH1 0x20 ADD PUSH1 0x0 DUP2 MSTORE PUSH1 0x20 ADD PUSH1 0x0 DUP2 MSTORE PUSH1 0x20 ADD PUSH1 0x0 DUP2 MSTORE POP SWAP1 JUMP JUMPDEST JUMPDEST DUP1 DUP3 GT ISZERO PUSH2 0x23C4 JUMPI PUSH1 0x0 DUP2 SSTORE PUSH1 0x1 ADD PUSH2 0x242C JUMP JUMPDEST DUP1 CALLDATALOAD PUSH2 0xF08 DUP2 PUSH2 0x307C JUMP JUMPDEST PUSH1 0x0 DUP3 PUSH1 0x1F DUP4 ADD SLT PUSH2 0x245B JUMPI DUP1 DUP2 REVERT JUMPDEST DUP2 CALLDATALOAD PUSH1 0x20 PUSH2 0x2470 PUSH2 0x246B DUP4 PUSH2 0x2F3C JUMP JUMPDEST PUSH2 0x2F12 JUMP JUMPDEST DUP3 DUP2 MSTORE DUP2 DUP2 ADD SWAP1 DUP6 DUP4 ADD DUP6 JUMPDEST DUP6 DUP2 LT ISZERO PUSH2 0x24A5 JUMPI PUSH2 0x2493 DUP10 DUP7 DUP5 CALLDATALOAD DUP12 ADD ADD PUSH2 0x2517 JUMP JUMPDEST DUP5 MSTORE SWAP3 DUP5 ADD SWAP3 SWAP1 DUP5 ADD SWAP1 PUSH1 0x1 ADD PUSH2 0x247C JUMP JUMPDEST POP SWAP1 SWAP8 SWAP7 POP POP POP POP POP POP POP JUMP JUMPDEST PUSH1 0x0 DUP3 PUSH1 0x1F DUP4 ADD SLT PUSH2 0x24C2 JUMPI DUP1 DUP2 REVERT JUMPDEST DUP2 CALLDATALOAD PUSH1 0x20 PUSH2 0x24D2 PUSH2 0x246B DUP4 PUSH2 0x2F3C JUMP JUMPDEST DUP3 DUP2 MSTORE DUP2 DUP2 ADD SWAP1 DUP6 DUP4 ADD DUP4 DUP6 MUL DUP8 ADD DUP5 ADD DUP9 LT ISZERO PUSH2 0x24EE JUMPI DUP6 DUP7 REVERT JUMPDEST DUP6 JUMPDEST DUP6 DUP2 LT ISZERO PUSH2 0x24A5 JUMPI DUP2 CALLDATALOAD DUP5 MSTORE SWAP3 DUP5 ADD SWAP3 SWAP1 DUP5 ADD SWAP1 PUSH1 0x1 ADD PUSH2 0x24F0 JUMP JUMPDEST DUP1 CALLDATALOAD PUSH2 0xF08 DUP2 PUSH2 0x3091 JUMP JUMPDEST PUSH1 0x0 DUP3 PUSH1 0x1F DUP4 ADD SLT PUSH2 0x2527 JUMPI DUP1 DUP2 REVERT JUMPDEST DUP2 CALLDATALOAD PUSH8 0xFFFFFFFFFFFFFFFF DUP2 GT ISZERO PUSH2 0x2541 JUMPI PUSH2 0x2541 PUSH2 0x3066 JUMP JUMPDEST PUSH2 0x2554 PUSH1 0x1F DUP3 ADD PUSH1 0x1F NOT AND PUSH1 0x20 ADD PUSH2 0x2F12 JUMP JUMPDEST DUP2 DUP2 MSTORE DUP5 PUSH1 0x20 DUP4 DUP7 ADD ADD GT ISZERO PUSH2 0x2568 JUMPI DUP3 DUP4 REVERT JUMPDEST DUP2 PUSH1 0x20 DUP6 ADD PUSH1 0x20 DUP4 ADD CALLDATACOPY SWAP1 DUP2 ADD PUSH1 0x20 ADD SWAP2 SWAP1 SWAP2 MSTORE SWAP3 SWAP2 POP POP JUMP JUMPDEST PUSH1 0x0 PUSH1 0x20 DUP3 DUP5 SUB SLT ISZERO PUSH2 0x2593 JUMPI DUP1 DUP2 REVERT JUMPDEST DUP2 CALLDATALOAD PUSH2 0x1599 DUP2 PUSH2 0x307C JUMP JUMPDEST PUSH1 0x0 DUP1 PUSH1 0x40 DUP4 DUP6 SUB SLT ISZERO PUSH2 0x25B0 JUMPI DUP1 DUP2 REVERT JUMPDEST DUP3 CALLDATALOAD PUSH2 0x25BB DUP2 PUSH2 0x307C JUMP JUMPDEST SWAP2 POP PUSH1 0x20 DUP4 ADD CALLDATALOAD PUSH2 0x25CB DUP2 PUSH2 0x3091 JUMP JUMPDEST DUP1 SWAP2 POP POP SWAP3 POP SWAP3 SWAP1 POP JUMP JUMPDEST PUSH1 0x0 DUP1 PUSH1 0x0 DUP1 PUSH1 0x80 DUP6 DUP8 SUB SLT ISZERO PUSH2 0x25EB JUMPI DUP2 DUP3 REVERT JUMPDEST DUP5 CALLDATALOAD PUSH2 0x25F6 DUP2 PUSH2 0x307C JUMP JUMPDEST SWAP4 POP PUSH1 0x20 DUP6 ADD CALLDATALOAD PUSH2 0x2606 DUP2 PUSH2 0x307C JUMP JUMPDEST SWAP3 POP PUSH1 0x40 DUP6 ADD CALLDATALOAD PUSH2 0x2616 DUP2 PUSH2 0x307C JUMP JUMPDEST SWAP2 POP PUSH1 0x60 DUP6 ADD CALLDATALOAD PUSH2 0x2626 DUP2 PUSH2 0x307C JUMP JUMPDEST SWAP4 SWAP7 SWAP3 SWAP6 POP SWAP1 SWAP4 POP POP JUMP JUMPDEST PUSH1 0x0 DUP1 PUSH1 0x40 DUP4 DUP6 SUB SLT ISZERO PUSH2 0x2643 JUMPI DUP2 DUP3 REVERT JUMPDEST DUP3 CALLDATALOAD PUSH2 0x264E DUP2 PUSH2 0x307C JUMP JUMPDEST SWAP5 PUSH1 0x20 SWAP4 SWAP1 SWAP4 ADD CALLDATALOAD SWAP4 POP POP POP JUMP JUMPDEST PUSH1 0x0 DUP1 PUSH1 0x0 DUP1 PUSH1 0x80 DUP6 DUP8 SUB SLT ISZERO PUSH2 0x2671 JUMPI DUP4 DUP5 REVERT JUMPDEST DUP5 CALLDATALOAD PUSH2 0x267C DUP2 PUSH2 0x307C JUMP JUMPDEST SWAP7 PUSH1 0x20 DUP7 ADD CALLDATALOAD SWAP7 POP PUSH1 0x40 DUP7 ADD CALLDATALOAD SWAP6 PUSH1 0x60 ADD CALLDATALOAD SWAP5 POP SWAP3 POP POP POP JUMP JUMPDEST PUSH1 0x0 PUSH1 0x20 DUP3 DUP5 SUB SLT ISZERO PUSH2 0x26A7 JUMPI DUP1 DUP2 REVERT JUMPDEST DUP2 MLOAD PUSH2 0x1599 DUP2 PUSH2 0x3091 JUMP JUMPDEST PUSH1 0x0 DUP1 PUSH1 0x0 DUP1 PUSH1 0x0 DUP1 PUSH1 0xC0 DUP8 DUP10 SUB SLT ISZERO PUSH2 0x26CA JUMPI DUP4 DUP5 REVERT JUMPDEST PUSH2 0x26D3 DUP8 PUSH2 0x250C JUMP JUMPDEST SWAP6 POP PUSH1 0x20 DUP8 ADD CALLDATALOAD PUSH8 0xFFFFFFFFFFFFFFFF DUP1 DUP3 GT ISZERO PUSH2 0x26EF JUMPI DUP6 DUP7 REVERT JUMPDEST PUSH2 0x26FB DUP11 DUP4 DUP12 ADD PUSH2 0x24B2 JUMP JUMPDEST SWAP7 POP PUSH1 0x40 DUP10 ADD CALLDATALOAD SWAP2 POP DUP1 DUP3 GT ISZERO PUSH2 0x2710 JUMPI DUP6 DUP7 REVERT JUMPDEST PUSH2 0x271C DUP11 DUP4 DUP12 ADD PUSH2 0x24B2 JUMP JUMPDEST SWAP6 POP PUSH1 0x60 DUP10 ADD CALLDATALOAD SWAP2 POP DUP1 DUP3 GT ISZERO PUSH2 0x2731 JUMPI DUP4 DUP5 REVERT JUMPDEST PUSH2 0x273D DUP11 DUP4 DUP12 ADD PUSH2 0x244B JUMP JUMPDEST SWAP5 POP PUSH1 0x80 DUP10 ADD CALLDATALOAD SWAP2 POP DUP1 DUP3 GT ISZERO PUSH2 0x2752 JUMPI DUP4 DUP5 REVERT JUMPDEST PUSH2 0x275E DUP11 DUP4 DUP12 ADD PUSH2 0x24B2 JUMP JUMPDEST SWAP4 POP PUSH1 0xA0 DUP10 ADD CALLDATALOAD SWAP2 POP DUP1 DUP3 GT ISZERO PUSH2 0x2773 JUMPI DUP3 DUP4 REVERT JUMPDEST POP PUSH2 0x2780 DUP10 DUP3 DUP11 ADD PUSH2 0x244B JUMP JUMPDEST SWAP2 POP POP SWAP3 SWAP6 POP SWAP3 SWAP6 POP SWAP3 SWAP6 JUMP JUMPDEST PUSH1 0x0 DUP1 PUSH1 0x0 DUP1 PUSH1 0x0 DUP1 PUSH1 0xC0 DUP8 DUP10 SUB SLT ISZERO PUSH2 0x27A5 JUMPI DUP4 DUP5 REVERT JUMPDEST DUP7 CALLDATALOAD PUSH2 0x27B0 DUP2 PUSH2 0x3091 JUMP JUMPDEST SWAP6 POP PUSH1 0x20 DUP8 ADD CALLDATALOAD SWAP5 POP PUSH1 0x40 DUP8 ADD CALLDATALOAD SWAP4 POP PUSH1 0x60 DUP8 ADD CALLDATALOAD PUSH8 0xFFFFFFFFFFFFFFFF DUP1 DUP3 GT ISZERO PUSH2 0x27DA JUMPI DUP4 DUP5 REVERT JUMPDEST PUSH2 0x27E6 DUP11 DUP4 DUP12 ADD PUSH2 0x2517 JUMP JUMPDEST SWAP5 POP PUSH1 0x80 DUP10 ADD CALLDATALOAD SWAP4 POP PUSH1 0xA0 DUP10 ADD CALLDATALOAD SWAP2 POP DUP1 DUP3 GT ISZERO PUSH2 0x2802 JUMPI DUP3 DUP4 REVERT JUMPDEST POP PUSH2 0x2780 DUP10 DUP3 DUP11 ADD PUSH2 0x2517 JUMP JUMPDEST PUSH1 0x0 DUP1 PUSH1 0x0 DUP1 PUSH1 0x0 DUP1 PUSH1 0x0 PUSH1 0xE0 DUP9 DUP11 SUB SLT ISZERO PUSH2 0x2829 JUMPI DUP5 DUP6 REVERT JUMPDEST DUP8 CALLDATALOAD PUSH2 0x2834 DUP2 PUSH2 0x3091 JUMP JUMPDEST SWAP7 POP PUSH1 0x20 DUP9 ADD CALLDATALOAD SWAP6 POP PUSH1 0x40 DUP9 ADD CALLDATALOAD SWAP5 POP PUSH1 0x60 DUP9 ADD CALLDATALOAD PUSH8 0xFFFFFFFFFFFFFFFF DUP1 DUP3 GT ISZERO PUSH2 0x285E JUMPI DUP3 DUP4 REVERT JUMPDEST PUSH2 0x286A DUP12 DUP4 DUP13 ADD PUSH2 0x2517 JUMP JUMPDEST SWAP6 POP PUSH1 0x80 DUP11 ADD CALLDATALOAD SWAP5 POP PUSH1 0xA0 DUP11 ADD CALLDATALOAD SWAP2 POP DUP1 DUP3 GT ISZERO PUSH2 0x2886 JUMPI DUP3 DUP4 REVERT JUMPDEST POP PUSH2 0x2893 DUP11 DUP3 DUP12 ADD PUSH2 0x2517 JUMP JUMPDEST SWAP3 POP POP PUSH1 0xC0 DUP9 ADD CALLDATALOAD SWAP1 POP SWAP3 SWAP6 SWAP9 SWAP2 SWAP5 SWAP8 POP SWAP3 SWAP6 POP JUMP JUMPDEST PUSH1 0x0 DUP1 PUSH1 0x0 DUP1 PUSH1 0x0 DUP1 PUSH1 0x0 DUP1 PUSH2 0x100 DUP10 DUP12 SUB SLT ISZERO PUSH2 0x28C5 JUMPI DUP2 DUP3 REVERT JUMPDEST DUP9 CALLDATALOAD PUSH2 0x28D0 DUP2 PUSH2 0x3091 JUMP JUMPDEST SWAP8 POP PUSH1 0x20 DUP10 ADD CALLDATALOAD SWAP7 POP PUSH1 0x40 DUP10 ADD CALLDATALOAD SWAP6 POP PUSH1 0x60 DUP10 ADD CALLDATALOAD SWAP5 POP PUSH1 0x80 DUP10 ADD CALLDATALOAD PUSH8 0xFFFFFFFFFFFFFFFF DUP1 DUP3 GT ISZERO PUSH2 0x2901 JUMPI DUP4 DUP5 REVERT JUMPDEST PUSH2 0x290D DUP13 DUP4 DUP14 ADD PUSH2 0x2517 JUMP JUMPDEST SWAP6 POP PUSH1 0xA0 DUP12 ADD CALLDATALOAD SWAP5 POP PUSH1 0xC0 DUP12 ADD CALLDATALOAD SWAP4 POP PUSH1 0xE0 DUP12 ADD CALLDATALOAD SWAP2 POP DUP1 DUP3 GT ISZERO PUSH2 0x2930 JUMPI DUP3 DUP4 REVERT JUMPDEST POP PUSH2 0x293D DUP12 DUP3 DUP13 ADD PUSH2 0x2517 JUMP JUMPDEST SWAP2 POP POP SWAP3 SWAP6 SWAP9 POP SWAP3 SWAP6 SWAP9 SWAP1 SWAP4 SWAP7 POP JUMP JUMPDEST PUSH1 0x0 PUSH1 0x20 DUP3 DUP5 SUB SLT ISZERO PUSH2 0x295E JUMPI DUP1 DUP2 REVERT JUMPDEST POP CALLDATALOAD SWAP2 SWAP1 POP JUMP JUMPDEST PUSH1 0x0 PUSH1 0x20 DUP3 DUP5 SUB SLT ISZERO PUSH2 0x2976 JUMPI DUP1 DUP2 REVERT JUMPDEST POP MLOAD SWAP2 SWAP1 POP JUMP JUMPDEST PUSH1 0x0 DUP1 PUSH1 0x0 DUP1 PUSH1 0x0 DUP1 PUSH1 0x0 DUP1 PUSH1 0x0 DUP1 PUSH1 0x0 DUP1 PUSH2 0x180 DUP14 DUP16 SUB SLT ISZERO PUSH2 0x299F JUMPI DUP6 DUP7 REVERT JUMPDEST DUP13 CALLDATALOAD SWAP12 POP PUSH2 0x29AF PUSH1 0x20 DUP15 ADD PUSH2 0x2440 JUMP JUMPDEST SWAP11 POP PUSH1 0x40 DUP14 ADD CALLDATALOAD SWAP10 POP PUSH8 0xFFFFFFFFFFFFFFFF PUSH1 0x60 DUP15 ADD CALLDATALOAD GT ISZERO PUSH2 0x29D0 JUMPI DUP6 DUP7 REVERT JUMPDEST PUSH2 0x29E0 DUP15 PUSH1 0x60 DUP16 ADD CALLDATALOAD DUP16 ADD PUSH2 0x2517 JUMP JUMPDEST SWAP12 SWAP15 SWAP11 SWAP14 POP SWAP9 SWAP12 PUSH1 0x80 DUP2 ADD CALLDATALOAD SWAP11 PUSH1 0xA0 DUP3 ADD CALLDATALOAD SWAP11 POP PUSH1 0xC0 DUP3 ADD CALLDATALOAD SWAP10 POP PUSH1 0xE0 DUP3 ADD CALLDATALOAD SWAP9 POP PUSH2 0x100 DUP3 ADD CALLDATALOAD SWAP8 POP PUSH2 0x120 DUP3 ADD CALLDATALOAD SWAP7 POP PUSH2 0x140 DUP3 ADD CALLDATALOAD SWAP6 POP PUSH2 0x160 SWAP1 SWAP2 ADD CALLDATALOAD SWAP4 POP SWAP2 POP POP JUMP JUMPDEST PUSH1 0x1 PUSH1 0x1 PUSH1 0xA0 SHL SUB AND SWAP1 MSTORE JUMP JUMPDEST PUSH1 0x0 DUP2 MLOAD DUP1 DUP5 MSTORE PUSH2 0x2A4D DUP2 PUSH1 0x20 DUP7 ADD PUSH1 0x20 DUP7 ADD PUSH2 0x2FCE JUMP JUMPDEST PUSH1 0x1F ADD PUSH1 0x1F NOT AND SWAP3 SWAP1 SWAP3 ADD PUSH1 0x20 ADD SWAP3 SWAP2 POP POP JUMP JUMPDEST PUSH1 0x0 DUP3 MLOAD PUSH2 0x2A73 DUP2 DUP5 PUSH1 0x20 DUP8 ADD PUSH2 0x2FCE JUMP JUMPDEST SWAP2 SWAP1 SWAP2 ADD SWAP3 SWAP2 POP POP JUMP JUMPDEST PUSH1 0x1 PUSH1 0x1 PUSH1 0xA0 SHL SUB SWAP2 SWAP1 SWAP2 AND DUP2 MSTORE PUSH1 0x20 ADD SWAP1 JUMP JUMPDEST PUSH1 0x1 PUSH1 0x1 PUSH1 0xA0 SHL SUB SWAP4 DUP5 AND DUP2 MSTORE SWAP2 SWAP1 SWAP3 AND PUSH1 0x20 DUP3 ADD MSTORE PUSH1 0x40 DUP2 ADD SWAP2 SWAP1 SWAP2 MSTORE PUSH1 0x60 ADD SWAP1 JUMP JUMPDEST PUSH1 0x1 PUSH1 0x1 PUSH1 0xA0 SHL SUB SWAP3 SWAP1 SWAP3 AND DUP3 MSTORE PUSH1 0x20 DUP3 ADD MSTORE PUSH1 0x40 ADD SWAP1 JUMP JUMPDEST PUSH1 0x20 DUP1 DUP3 MSTORE DUP3 MLOAD DUP3 DUP3 ADD DUP2 SWAP1 MSTORE PUSH1 0x0 SWAP2 SWAP1 DUP5 DUP3 ADD SWAP1 PUSH1 0x40 DUP6 ADD SWAP1 DUP5 JUMPDEST DUP2 DUP2 LT ISZERO PUSH2 0x2B06 JUMPI DUP4 MLOAD DUP4 MSTORE SWAP3 DUP5 ADD SWAP3 SWAP2 DUP5 ADD SWAP2 PUSH1 0x1 ADD PUSH2 0x2AEA JUMP JUMPDEST POP SWAP1 SWAP7 SWAP6 POP POP POP POP POP POP JUMP JUMPDEST SWAP1 ISZERO ISZERO DUP2 MSTORE PUSH1 0x20 ADD SWAP1 JUMP JUMPDEST PUSH1 0x0 DUP7 ISZERO ISZERO DUP3 MSTORE DUP6 PUSH1 0x20 DUP4 ADD MSTORE DUP5 PUSH1 0x40 DUP4 ADD MSTORE PUSH1 0xA0 PUSH1 0x60 DUP4 ADD MSTORE PUSH2 0x2B44 PUSH1 0xA0 DUP4 ADD DUP6 PUSH2 0x2A35 JUMP JUMPDEST DUP3 DUP2 SUB PUSH1 0x80 DUP5 ADD MSTORE PUSH2 0xFBB DUP2 DUP6 PUSH2 0x2A35 JUMP JUMPDEST PUSH1 0x0 PUSH1 0x20 DUP3 MSTORE PUSH2 0x1599 PUSH1 0x20 DUP4 ADD DUP5 PUSH2 0x2A35 JUMP JUMPDEST PUSH1 0x20 DUP1 DUP3 MSTORE PUSH1 0x14 SWAP1 DUP3 ADD MSTORE PUSH20 0x1BDC99195C88191BD95CC81B9BDD08195E1A5CDD PUSH1 0x62 SHL PUSH1 0x40 DUP3 ADD MSTORE PUSH1 0x60 ADD SWAP1 JUMP JUMPDEST PUSH1 0x20 DUP1 DUP3 MSTORE PUSH1 0x26 SWAP1 DUP3 ADD MSTORE PUSH32 0x4F776E61626C653A206E6577206F776E657220697320746865207A65726F2061 PUSH1 0x40 DUP3 ADD MSTORE PUSH6 0x646472657373 PUSH1 0xD0 SHL PUSH1 0x60 DUP3 ADD MSTORE PUSH1 0x80 ADD SWAP1 JUMP JUMPDEST PUSH1 0x20 DUP1 DUP3 MSTORE PUSH1 0xA SWAP1 DUP3 ADD MSTORE PUSH10 0x37B930B1B6329032B939 PUSH1 0xB1 SHL PUSH1 0x40 DUP3 ADD MSTORE PUSH1 0x60 ADD SWAP1 JUMP JUMPDEST PUSH1 0x20 DUP1 DUP3 MSTORE PUSH1 0x24 SWAP1 DUP3 ADD MSTORE PUSH32 0x6578656375746F723A2063616C6C6572206973206E6F74207468652065786563 PUSH1 0x40 DUP3 ADD MSTORE PUSH4 0x3ABA37B9 PUSH1 0xE1 SHL PUSH1 0x60 DUP3 ADD MSTORE PUSH1 0x80 ADD SWAP1 JUMP JUMPDEST PUSH1 0x20 DUP1 DUP3 MSTORE PUSH1 0x26 SWAP1 DUP3 ADD MSTORE PUSH32 0x416464726573733A20696E73756666696369656E742062616C616E636520666F PUSH1 0x40 DUP3 ADD MSTORE PUSH6 0x1C8818D85B1B PUSH1 0xD2 SHL PUSH1 0x60 DUP3 ADD MSTORE PUSH1 0x80 ADD SWAP1 JUMP JUMPDEST PUSH1 0x20 DUP1 DUP3 MSTORE PUSH1 0x2E SWAP1 DUP3 ADD MSTORE PUSH32 0x496E697469616C697A61626C653A20636F6E747261637420697320616C726561 PUSH1 0x40 DUP3 ADD MSTORE PUSH14 0x191E481A5B9A5D1A585B1A5E9959 PUSH1 0x92 SHL PUSH1 0x60 DUP3 ADD MSTORE PUSH1 0x80 ADD SWAP1 JUMP JUMPDEST PUSH1 0x20 DUP1 DUP3 MSTORE PUSH1 0x23 SWAP1 DUP3 ADD MSTORE PUSH32 0x546865207472616E73616374696F6E20616D6F756E7420697320746F6F20736D PUSH1 0x40 DUP3 ADD MSTORE PUSH3 0x185B1B PUSH1 0xEA SHL PUSH1 0x60 DUP3 ADD MSTORE PUSH1 0x80 ADD SWAP1 JUMP JUMPDEST PUSH1 0x20 DUP1 DUP3 MSTORE PUSH1 0x10 SWAP1 DUP3 ADD MSTORE PUSH16 0x155CD95C881A5CC818985B9ADC9D5C1D PUSH1 0x82 SHL PUSH1 0x40 DUP3 ADD MSTORE PUSH1 0x60 ADD SWAP1 JUMP JUMPDEST PUSH1 0x20 DUP1 DUP3 MSTORE DUP2 DUP2 ADD MSTORE PUSH32 0x4F776E61626C653A2063616C6C6572206973206E6F7420746865206F776E6572 PUSH1 0x40 DUP3 ADD MSTORE PUSH1 0x60 ADD SWAP1 JUMP JUMPDEST PUSH1 0x20 DUP1 DUP3 MSTORE PUSH1 0x1D SWAP1 DUP3 ADD MSTORE PUSH32 0x416464726573733A2063616C6C20746F206E6F6E2D636F6E7472616374000000 PUSH1 0x40 DUP3 ADD MSTORE PUSH1 0x60 ADD SWAP1 JUMP JUMPDEST PUSH1 0x20 DUP1 DUP3 MSTORE PUSH1 0xA SWAP1 DUP3 ADD MSTORE PUSH10 0x3632B733BA341032B939 PUSH1 0xB1 SHL PUSH1 0x40 DUP3 ADD MSTORE PUSH1 0x60 ADD SWAP1 JUMP JUMPDEST PUSH1 0x20 DUP1 DUP3 MSTORE PUSH1 0x8 SWAP1 DUP3 ADD MSTORE PUSH8 0x3AB9B2B91032B939 PUSH1 0xC1 SHL PUSH1 0x40 DUP3 ADD MSTORE PUSH1 0x60 ADD SWAP1 JUMP JUMPDEST PUSH1 0x20 DUP1 DUP3 MSTORE PUSH1 0x9 SWAP1 DUP3 ADD MSTORE PUSH9 0x39BA30BA329032B939 PUSH1 0xB9 SHL PUSH1 0x40 DUP3 ADD MSTORE PUSH1 0x60 ADD SWAP1 JUMP JUMPDEST PUSH1 0x20 DUP1 DUP3 MSTORE PUSH1 0x2A SWAP1 DUP3 ADD MSTORE PUSH32 0x5361666545524332303A204552433230206F7065726174696F6E20646964206E PUSH1 0x40 DUP3 ADD MSTORE PUSH10 0x1BDD081CDD58D8D95959 PUSH1 0xB2 SHL PUSH1 0x60 DUP3 ADD MSTORE PUSH1 0x80 ADD SWAP1 JUMP JUMPDEST PUSH1 0x0 PUSH1 0x20 DUP3 MSTORE PUSH2 0x2E79 PUSH1 0x20 DUP4 ADD DUP5 MLOAD PUSH2 0x2A28 JUMP JUMPDEST PUSH1 0x20 DUP4 ADD MLOAD PUSH1 0x40 DUP4 ADD MSTORE PUSH1 0x40 DUP4 ADD MLOAD PUSH2 0x160 DUP1 PUSH1 0x60 DUP6 ADD MSTORE PUSH2 0x2E9F PUSH2 0x180 DUP6 ADD DUP4 PUSH2 0x2A35 JUMP JUMPDEST SWAP2 POP PUSH1 0x60 DUP6 ADD MLOAD PUSH1 0x80 DUP6 ADD MSTORE PUSH1 0x80 DUP6 ADD MLOAD PUSH1 0xA0 DUP6 ADD MSTORE PUSH1 0xA0 DUP6 ADD MLOAD PUSH1 0xC0 DUP6 ADD MSTORE PUSH1 0xC0 DUP6 ADD MLOAD PUSH1 0xE0 DUP6 ADD MSTORE PUSH1 0xE0 DUP6 ADD MLOAD PUSH2 0x100 DUP2 DUP2 DUP8 ADD MSTORE DUP1 DUP8 ADD MLOAD SWAP2 POP POP PUSH2 0x120 DUP2 DUP2 DUP8 ADD MSTORE DUP1 DUP8 ADD MLOAD SWAP2 POP POP PUSH2 0x140 DUP2 DUP2 DUP8 ADD MSTORE DUP1 DUP8 ADD MLOAD DUP4 DUP8 ADD MSTORE POP POP POP DUP1 SWAP2 POP POP SWAP3 SWAP2 POP POP JUMP JUMPDEST SWAP1 DUP2 MSTORE PUSH1 0x20 ADD SWAP1 JUMP JUMPDEST PUSH1 0x40 MLOAD DUP2 DUP2 ADD PUSH8 0xFFFFFFFFFFFFFFFF DUP2 GT DUP3 DUP3 LT OR ISZERO PUSH2 0x2F34 JUMPI PUSH2 0x2F34 PUSH2 0x3066 JUMP JUMPDEST PUSH1 0x40 MSTORE SWAP2 SWAP1 POP JUMP JUMPDEST PUSH1 0x0 PUSH8 0xFFFFFFFFFFFFFFFF DUP3 GT ISZERO PUSH2 0x2F56 JUMPI PUSH2 0x2F56 PUSH2 0x3066 JUMP JUMPDEST POP PUSH1 0x20 SWAP1 DUP2 MUL ADD SWAP1 JUMP JUMPDEST PUSH1 0x0 DUP3 NOT DUP3 GT ISZERO PUSH2 0x2F73 JUMPI PUSH2 0x2F73 PUSH2 0x3050 JUMP JUMPDEST POP ADD SWAP1 JUMP JUMPDEST PUSH1 0x0 DUP3 PUSH2 0x2F93 JUMPI PUSH4 0x4E487B71 PUSH1 0xE0 SHL DUP2 MSTORE PUSH1 0x12 PUSH1 0x4 MSTORE PUSH1 0x24 DUP2 REVERT JUMPDEST POP DIV SWAP1 JUMP JUMPDEST PUSH1 0x0 DUP2 PUSH1 0x0 NOT DIV DUP4 GT DUP3 ISZERO ISZERO AND ISZERO PUSH2 0x2FB2 JUMPI PUSH2 0x2FB2 PUSH2 0x3050 JUMP JUMPDEST POP MUL SWAP1 JUMP JUMPDEST PUSH1 0x0 DUP3 DUP3 LT ISZERO PUSH2 0x2FC9 JUMPI PUSH2 0x2FC9 PUSH2 0x3050 JUMP JUMPDEST POP SUB SWAP1 JUMP JUMPDEST PUSH1 0x0 JUMPDEST DUP4 DUP2 LT ISZERO PUSH2 0x2FE9 JUMPI DUP2 DUP2 ADD MLOAD DUP4 DUP3 ADD MSTORE PUSH1 0x20 ADD PUSH2 0x2FD1 JUMP JUMPDEST DUP4 DUP2 GT ISZERO PUSH2 0x1614 JUMPI POP POP PUSH1 0x0 SWAP2 ADD MSTORE JUMP JUMPDEST PUSH1 0x2 DUP2 DIV PUSH1 0x1 DUP3 AND DUP1 PUSH2 0x300E JUMPI PUSH1 0x7F DUP3 AND SWAP2 POP JUMPDEST PUSH1 0x20 DUP3 LT DUP2 EQ ISZERO PUSH2 0x302F JUMPI PUSH4 0x4E487B71 PUSH1 0xE0 SHL PUSH1 0x0 MSTORE PUSH1 0x22 PUSH1 0x4 MSTORE PUSH1 0x24 PUSH1 0x0 REVERT JUMPDEST POP SWAP2 SWAP1 POP JUMP JUMPDEST PUSH1 0x0 PUSH1 0x0 NOT DUP3 EQ ISZERO PUSH2 0x3049 JUMPI PUSH2 0x3049 PUSH2 0x3050 JUMP JUMPDEST POP PUSH1 0x1 ADD SWAP1 JUMP JUMPDEST PUSH4 0x4E487B71 PUSH1 0xE0 SHL PUSH1 0x0 MSTORE PUSH1 0x11 PUSH1 0x4 MSTORE PUSH1 0x24 PUSH1 0x0 REVERT JUMPDEST PUSH4 0x4E487B71 PUSH1 0xE0 SHL PUSH1 0x0 MSTORE PUSH1 0x41 PUSH1 0x4 MSTORE PUSH1 0x24 PUSH1 0x0 REVERT JUMPDEST PUSH1 0x1 PUSH1 0x1 PUSH1 0xA0 SHL SUB DUP2 AND DUP2 EQ PUSH2 0x133D JUMPI PUSH1 0x0 DUP1 REVERT JUMPDEST DUP1 ISZERO ISZERO DUP2 EQ PUSH2 0x133D JUMPI PUSH1 0x0 DUP1 REVERT INVALID LOG2 PUSH5 0x6970667358 0x22 SLT KECCAK256 XOR 0xB3 0xE6 MUL 0xB5 DUP4 ADD MUL JUMPI 0x2D SIGNEXTEND 0xFB 0xD LOG2 0xE0 PUSH29 0x30B7D51C77E8AAE2597EDA5FA89F478564736F6C634300080000330000 "
				},
				"gasEstimates": {
					"creation": {
						"codeDepositCost": "2500200",
						"executionCost": "2695",
						"totalCost": "2502895"
					},
					"external": {
						"OrderIndex()": "1094",
						"PRECISION()": "1095",
						"adjustPosition(bool,uint256,uint256,string,uint256,bytes,uint256)": "infinite",
						"closePosition(bool,uint256,uint256,string,uint256,bytes)": "infinite",
						"executor(address)": "1304",
						"feePercent()": "1096",
						"forcedLiquidation(bool,uint256,uint256,string,uint256,bytes)": "infinite",
						"helperLogic()": "1183",
						"initialize(address,address,address,address)": "infinite",
						"liquidation(bool,uint256[],uint256[],string[],uint256[],bytes[])": "infinite",
						"minVal()": "1139",
						"myCloseOrderIdList(address,uint256)": "2226",
						"myCloseOrderIdListLength(address)": "1353",
						"myCloseOrderIdList_index(address,uint256)": "1428",
						"myOpenOrderIdList(address,uint256)": "2270",
						"myOpenOrderIdListLength(address)": "1309",
						"myOpenOrderIdList_index(address,uint256)": "1428",
						"openOrderIdList(uint256)": "2065",
						"openOrderIdList_index(uint256)": "1283",
						"openPosition(bool,uint256,uint256,uint256,string,uint256,uint256,bytes)": "infinite",
						"oracle()": "1116",
						"orderInfo(uint256)": "infinite",
						"owner()": "1160",
						"pagination(address,uint256,uint256,uint256)": "infinite",
						"renounceOwnership()": "23574",
						"setExecutor(address,bool)": "infinite",
						"setFeePercent(uint256)": "21360",
						"setOrderInfo(uint256,address,uint256,string,uint256,uint256,uint256,uint256,uint256,uint256,uint256,uint256)": "infinite",
						"setSigner(address)": "22298",
						"signer()": "1116",
						"transferOwnership(address)": "infinite",
						"usc()": "1160"
					},
					"internal": {
						"_closePosition(bool,struct mirrorseaMain.OrderInfo storage pointer,uint256,uint256,uint256,string memory,uint256,bytes memory)": "infinite",
						"_isSolvent(uint256,uint256,uint256)": "infinite",
						"cutListItem(uint256,mapping(uint256 => uint256),uint256[] storage pointer)": "75481"
					}
				},
				"methodIdentifiers": {
					"OrderIndex()": "f7ab69fd",
					"PRECISION()": "aaf5eb68",
					"adjustPosition(bool,uint256,uint256,string,uint256,bytes,uint256)": "a8ecb028",
					"closePosition(bool,uint256,uint256,string,uint256,bytes)": "6e812437",
					"executor(address)": "48c7e528",
					"feePercent()": "7fd6f15c",
					"forcedLiquidation(bool,uint256,uint256,string,uint256,bytes)": "a0ad12e2",
					"helperLogic()": "1e64610c",
					"initialize(address,address,address,address)": "f8c8765e",
					"liquidation(bool,uint256[],uint256[],string[],uint256[],bytes[])": "4b989ce3",
					"minVal()": "f14053ad",
					"myCloseOrderIdList(address,uint256)": "ec4c4f34",
					"myCloseOrderIdListLength(address)": "aecf77b1",
					"myCloseOrderIdList_index(address,uint256)": "f0c765e4",
					"myOpenOrderIdList(address,uint256)": "c2ec527d",
					"myOpenOrderIdListLength(address)": "e4e95520",
					"myOpenOrderIdList_index(address,uint256)": "7be3a1a1",
					"openOrderIdList(uint256)": "0f58d242",
					"openOrderIdList_index(uint256)": "43b1f3cb",
					"openPosition(bool,uint256,uint256,uint256,string,uint256,uint256,bytes)": "2e9f5bf6",
					"oracle()": "7dc0d1d0",
					"orderInfo(uint256)": "6ab34a4a",
					"owner()": "8da5cb5b",
					"pagination(address,uint256,uint256,uint256)": "080270a8",
					"renounceOwnership()": "715018a6",
					"setExecutor(address,bool)": "1e1bff3f",
					"setFeePercent(uint256)": "7ce3489b",
					"setOrderInfo(uint256,address,uint256,string,uint256,uint256,uint256,uint256,uint256,uint256,uint256,uint256)": "fc234d06",
					"setSigner(address)": "6c19e783",
					"signer()": "238ac933",
					"transferOwnership(address)": "f2fde38b",
					"usc()": "3011d3d5"
				}
			},
			"storageLayout": {
				"storage": [
					{
						"astId": 130,
						"contract": "contracts/mirrorseaMain.sol:mirrorseaMain",
						"label": "_initialized",
						"offset": 0,
						"slot": "0",
						"type": "t_bool"
					},
					{
						"astId": 133,
						"contract": "contracts/mirrorseaMain.sol:mirrorseaMain",
						"label": "_initializing",
						"offset": 1,
						"slot": "0",
						"type": "t_bool"
					},
					{
						"astId": 760,
						"contract": "contracts/mirrorseaMain.sol:mirrorseaMain",
						"label": "__gap",
						"offset": 0,
						"slot": "1",
						"type": "t_array(t_uint256)50_storage"
					},
					{
						"astId": 10,
						"contract": "contracts/mirrorseaMain.sol:mirrorseaMain",
						"label": "_owner",
						"offset": 0,
						"slot": "51",
						"type": "t_address"
					},
					{
						"astId": 124,
						"contract": "contracts/mirrorseaMain.sol:mirrorseaMain",
						"label": "__gap",
						"offset": 0,
						"slot": "52",
						"type": "t_array(t_uint256)49_storage"
					},
					{
						"astId": 1132,
						"contract": "contracts/mirrorseaMain.sol:mirrorseaMain",
						"label": "executor",
						"offset": 0,
						"slot": "101",
						"type": "t_mapping(t_address,t_bool)"
					},
					{
						"astId": 1134,
						"contract": "contracts/mirrorseaMain.sol:mirrorseaMain",
						"label": "signer",
						"offset": 0,
						"slot": "102",
						"type": "t_address"
					},
					{
						"astId": 1137,
						"contract": "contracts/mirrorseaMain.sol:mirrorseaMain",
						"label": "usc",
						"offset": 0,
						"slot": "103",
						"type": "t_contract(IERC20Upgradeable)248"
					},
					{
						"astId": 1140,
						"contract": "contracts/mirrorseaMain.sol:mirrorseaMain",
						"label": "helperLogic",
						"offset": 0,
						"slot": "104",
						"type": "t_contract(IhelperLogic)1086"
					},
					{
						"astId": 1143,
						"contract": "contracts/mirrorseaMain.sol:mirrorseaMain",
						"label": "oracle",
						"offset": 0,
						"slot": "105",
						"type": "t_contract(IOracle)1102"
					},
					{
						"astId": 1148,
						"contract": "contracts/mirrorseaMain.sol:mirrorseaMain",
						"label": "_orderInfo",
						"offset": 0,
						"slot": "106",
						"type": "t_mapping(t_uint256,t_struct(OrderInfo)1208_storage)"
					},
					{
						"astId": 1150,
						"contract": "contracts/mirrorseaMain.sol:mirrorseaMain",
						"label": "OrderIndex",
						"offset": 0,
						"slot": "107",
						"type": "t_uint256"
					},
					{
						"astId": 1153,
						"contract": "contracts/mirrorseaMain.sol:mirrorseaMain",
						"label": "openOrderIdList",
						"offset": 0,
						"slot": "108",
						"type": "t_array(t_uint256)dyn_storage"
					},
					{
						"astId": 1157,
						"contract": "contracts/mirrorseaMain.sol:mirrorseaMain",
						"label": "openOrderIdList_index",
						"offset": 0,
						"slot": "109",
						"type": "t_mapping(t_uint256,t_uint256)"
					},
					{
						"astId": 1162,
						"contract": "contracts/mirrorseaMain.sol:mirrorseaMain",
						"label": "myOpenOrderIdList",
						"offset": 0,
						"slot": "110",
						"type": "t_mapping(t_address,t_array(t_uint256)dyn_storage)"
					},
					{
						"astId": 1168,
						"contract": "contracts/mirrorseaMain.sol:mirrorseaMain",
						"label": "myOpenOrderIdList_index",
						"offset": 0,
						"slot": "111",
						"type": "t_mapping(t_address,t_mapping(t_uint256,t_uint256))"
					},
					{
						"astId": 1173,
						"contract": "contracts/mirrorseaMain.sol:mirrorseaMain",
						"label": "myCloseOrderIdList",
						"offset": 0,
						"slot": "112",
						"type": "t_mapping(t_address,t_array(t_uint256)dyn_storage)"
					},
					{
						"astId": 1179,
						"contract": "contracts/mirrorseaMain.sol:mirrorseaMain",
						"label": "myCloseOrderIdList_index",
						"offset": 0,
						"slot": "113",
						"type": "t_mapping(t_address,t_mapping(t_uint256,t_uint256))"
					},
					{
						"astId": 1181,
						"contract": "contracts/mirrorseaMain.sol:mirrorseaMain",
						"label": "feePercent",
						"offset": 0,
						"slot": "114",
						"type": "t_uint256"
					},
					{
						"astId": 1183,
						"contract": "contracts/mirrorseaMain.sol:mirrorseaMain",
						"label": "PRECISION",
						"offset": 0,
						"slot": "115",
						"type": "t_uint256"
					},
					{
						"astId": 1185,
						"contract": "contracts/mirrorseaMain.sol:mirrorseaMain",
						"label": "minVal",
						"offset": 0,
						"slot": "116",
						"type": "t_uint256"
					}
				],
				"types": {
					"t_address": {
						"encoding": "inplace",
						"label": "address",
						"numberOfBytes": "20"
					},
					"t_array(t_uint256)49_storage": {
						"base": "t_uint256",
						"encoding": "inplace",
						"label": "uint256[49]",
						"numberOfBytes": "1568"
					},
					"t_array(t_uint256)50_storage": {
						"base": "t_uint256",
						"encoding": "inplace",
						"label": "uint256[50]",
						"numberOfBytes": "1600"
					},
					"t_array(t_uint256)dyn_storage": {
						"base": "t_uint256",
						"encoding": "dynamic_array",
						"label": "uint256[]",
						"numberOfBytes": "32"
					},
					"t_bool": {
						"encoding": "inplace",
						"label": "bool",
						"numberOfBytes": "1"
					},
					"t_contract(IERC20Upgradeable)248": {
						"encoding": "inplace",
						"label": "contract IERC20Upgradeable",
						"numberOfBytes": "20"
					},
					"t_contract(IOracle)1102": {
						"encoding": "inplace",
						"label": "contract IOracle",
						"numberOfBytes": "20"
					},
					"t_contract(IhelperLogic)1086": {
						"encoding": "inplace",
						"label": "contract IhelperLogic",
						"numberOfBytes": "20"
					},
					"t_mapping(t_address,t_array(t_uint256)dyn_storage)": {
						"encoding": "mapping",
						"key": "t_address",
						"label": "mapping(address => uint256[])",
						"numberOfBytes": "32",
						"value": "t_array(t_uint256)dyn_storage"
					},
					"t_mapping(t_address,t_bool)": {
						"encoding": "mapping",
						"key": "t_address",
						"label": "mapping(address => bool)",
						"numberOfBytes": "32",
						"value": "t_bool"
					},
					"t_mapping(t_address,t_mapping(t_uint256,t_uint256))": {
						"encoding": "mapping",
						"key": "t_address",
						"label": "mapping(address => mapping(uint256 => uint256))",
						"numberOfBytes": "32",
						"value": "t_mapping(t_uint256,t_uint256)"
					},
					"t_mapping(t_uint256,t_struct(OrderInfo)1208_storage)": {
						"encoding": "mapping",
						"key": "t_uint256",
						"label": "mapping(uint256 => struct mirrorseaMain.OrderInfo)",
						"numberOfBytes": "32",
						"value": "t_struct(OrderInfo)1208_storage"
					},
					"t_mapping(t_uint256,t_uint256)": {
						"encoding": "mapping",
						"key": "t_uint256",
						"label": "mapping(uint256 => uint256)",
						"numberOfBytes": "32",
						"value": "t_uint256"
					},
					"t_string_storage": {
						"encoding": "bytes",
						"label": "string",
						"numberOfBytes": "32"
					},
					"t_struct(OrderInfo)1208_storage": {
						"encoding": "inplace",
						"label": "struct mirrorseaMain.OrderInfo",
						"members": [
							{
								"astId": 1187,
								"contract": "contracts/mirrorseaMain.sol:mirrorseaMain",
								"label": "user",
								"offset": 0,
								"slot": "0",
								"type": "t_address"
							},
							{
								"astId": 1189,
								"contract": "contracts/mirrorseaMain.sol:mirrorseaMain",
								"label": "_type",
								"offset": 0,
								"slot": "1",
								"type": "t_uint256"
							},
							{
								"astId": 1191,
								"contract": "contracts/mirrorseaMain.sol:mirrorseaMain",
								"label": "symbols",
								"offset": 0,
								"slot": "2",
								"type": "t_string_storage"
							},
							{
								"astId": 1193,
								"contract": "contracts/mirrorseaMain.sol:mirrorseaMain",
								"label": "state",
								"offset": 0,
								"slot": "3",
								"type": "t_uint256"
							},
							{
								"astId": 1195,
								"contract": "contracts/mirrorseaMain.sol:mirrorseaMain",
								"label": "direction",
								"offset": 0,
								"slot": "4",
								"type": "t_uint256"
							},
							{
								"astId": 1197,
								"contract": "contracts/mirrorseaMain.sol:mirrorseaMain",
								"label": "openPrice18",
								"offset": 0,
								"slot": "5",
								"type": "t_uint256"
							},
							{
								"astId": 1199,
								"contract": "contracts/mirrorseaMain.sol:mirrorseaMain",
								"label": "openTime",
								"offset": 0,
								"slot": "6",
								"type": "t_uint256"
							},
							{
								"astId": 1201,
								"contract": "contracts/mirrorseaMain.sol:mirrorseaMain",
								"label": "closePrice18",
								"offset": 0,
								"slot": "7",
								"type": "t_uint256"
							},
							{
								"astId": 1203,
								"contract": "contracts/mirrorseaMain.sol:mirrorseaMain",
								"label": "closeTime",
								"offset": 0,
								"slot": "8",
								"type": "t_uint256"
							},
							{
								"astId": 1205,
								"contract": "contracts/mirrorseaMain.sol:mirrorseaMain",
								"label": "amt",
								"offset": 0,
								"slot": "9",
								"type": "t_uint256"
							},
							{
								"astId": 1207,
								"contract": "contracts/mirrorseaMain.sol:mirrorseaMain",
								"label": "margin",
								"offset": 0,
								"slot": "10",
								"type": "t_uint256"
							}
						],
						"numberOfBytes": "352"
					},
					"t_uint256": {
						"encoding": "inplace",
						"label": "uint256",
						"numberOfBytes": "32"
					}
				}
			},
			"userdoc": {
				"kind": "user",
				"methods": {},
				"version": 1
			}
		}
	}
}