{
	"contracts/helperLogic.sol": {
		"helperLogic": {
			"abi": [
				{
					"anonymous": false,
					"inputs": [
						{
							"indexed": true,
							"internalType": "address",
							"name": "previousOwner",
							"type": "address"
						},
						{
							"indexed": true,
							"internalType": "address",
							"name": "newOwner",
							"type": "address"
						}
					],
					"name": "OwnershipTransferred",
					"type": "event"
				},
				{
					"inputs": [],
					"name": "Factory",
					"outputs": [
						{
							"internalType": "contract IUniswapV2Factory",
							"name": "",
							"type": "address"
						}
					],
					"stateMutability": "view",
					"type": "function"
				},
				{
					"inputs": [],
					"name": "PRECISION",
					"outputs": [
						{
							"internalType": "uint256",
							"name": "",
							"type": "uint256"
						}
					],
					"stateMutability": "view",
					"type": "function"
				},
				{
					"inputs": [],
					"name": "Router",
					"outputs": [
						{
							"internalType": "contract IUniswapV2Router02",
							"name": "",
							"type": "address"
						}
					],
					"stateMutability": "view",
					"type": "function"
				},
				{
					"inputs": [],
					"name": "autoAdjustFarm",
					"outputs": [
						{
							"internalType": "bool",
							"name": "",
							"type": "bool"
						}
					],
					"stateMutability": "view",
					"type": "function"
				},
				{
					"inputs": [],
					"name": "basePoint",
					"outputs": [
						{
							"internalType": "uint256",
							"name": "",
							"type": "uint256"
						}
					],
					"stateMutability": "view",
					"type": "function"
				},
				{
					"inputs": [],
					"name": "dev",
					"outputs": [
						{
							"internalType": "address",
							"name": "",
							"type": "address"
						}
					],
					"stateMutability": "view",
					"type": "function"
				},
				{
					"inputs": [
						{
							"internalType": "address",
							"name": "",
							"type": "address"
						}
					],
					"name": "executor",
					"outputs": [
						{
							"internalType": "bool",
							"name": "",
							"type": "bool"
						}
					],
					"stateMutability": "view",
					"type": "function"
				},
				{
					"inputs": [],
					"name": "farm",
					"outputs": [
						{
							"internalType": "contract IFarm",
							"name": "",
							"type": "address"
						}
					],
					"stateMutability": "view",
					"type": "function"
				},
				{
					"inputs": [
						{
							"internalType": "contract IUniswapV2Factory",
							"name": "_Factory",
							"type": "address"
						},
						{
							"internalType": "contract IUniswapV2Router02",
							"name": "_Router",
							"type": "address"
						},
						{
							"internalType": "contract IERC20Upgradeable",
							"name": "_usc",
							"type": "address"
						},
						{
							"internalType": "contract IERC20Upgradeable",
							"name": "_usdc",
							"type": "address"
						},
						{
							"internalType": "contract IERC20Upgradeable",
							"name": "_sea",
							"type": "address"
						},
						{
							"internalType": "contract IERC20Upgradeable",
							"name": "_ssea",
							"type": "address"
						},
						{
							"internalType": "contract IFarm",
							"name": "_farm",
							"type": "address"
						}
					],
					"name": "initialize",
					"outputs": [],
					"stateMutability": "nonpayable",
					"type": "function"
				},
				{
					"inputs": [],
					"name": "jointExecution",
					"outputs": [
						{
							"internalType": "bool",
							"name": "",
							"type": "bool"
						}
					],
					"stateMutability": "nonpayable",
					"type": "function"
				},
				{
					"inputs": [],
					"name": "op",
					"outputs": [
						{
							"internalType": "address",
							"name": "",
							"type": "address"
						}
					],
					"stateMutability": "view",
					"type": "function"
				},
				{
					"inputs": [],
					"name": "openStabilizer",
					"outputs": [
						{
							"internalType": "bool",
							"name": "",
							"type": "bool"
						}
					],
					"stateMutability": "view",
					"type": "function"
				},
				{
					"inputs": [],
					"name": "owner",
					"outputs": [
						{
							"internalType": "address",
							"name": "",
							"type": "address"
						}
					],
					"stateMutability": "view",
					"type": "function"
				},
				{
					"inputs": [],
					"name": "pid",
					"outputs": [
						{
							"internalType": "uint256",
							"name": "",
							"type": "uint256"
						}
					],
					"stateMutability": "view",
					"type": "function"
				},
				{
					"inputs": [],
					"name": "renounceOwnership",
					"outputs": [],
					"stateMutability": "nonpayable",
					"type": "function"
				},
				{
					"inputs": [],
					"name": "sea",
					"outputs": [
						{
							"internalType": "contract IERC20Upgradeable",
							"name": "",
							"type": "address"
						}
					],
					"stateMutability": "view",
					"type": "function"
				},
				{
					"inputs": [
						{
							"internalType": "bool",
							"name": "_bool",
							"type": "bool"
						}
					],
					"name": "setAutoAdjustFarm",
					"outputs": [
						{
							"internalType": "bool",
							"name": "",
							"type": "bool"
						}
					],
					"stateMutability": "nonpayable",
					"type": "function"
				},
				{
					"inputs": [
						{
							"internalType": "address",
							"name": "_address",
							"type": "address"
						}
					],
					"name": "setDev",
					"outputs": [
						{
							"internalType": "bool",
							"name": "",
							"type": "bool"
						}
					],
					"stateMutability": "nonpayable",
					"type": "function"
				},
				{
					"inputs": [
						{
							"internalType": "address",
							"name": "_address",
							"type": "address"
						},
						{
							"internalType": "bool",
							"name": "_type",
							"type": "bool"
						}
					],
					"name": "setExecutor",
					"outputs": [
						{
							"internalType": "bool",
							"name": "",
							"type": "bool"
						}
					],
					"stateMutability": "nonpayable",
					"type": "function"
				},
				{
					"inputs": [
						{
							"internalType": "contract IFarm",
							"name": "_farm",
							"type": "address"
						}
					],
					"name": "setFarm",
					"outputs": [
						{
							"internalType": "bool",
							"name": "",
							"type": "bool"
						}
					],
					"stateMutability": "nonpayable",
					"type": "function"
				},
				{
					"inputs": [
						{
							"internalType": "address",
							"name": "_address",
							"type": "address"
						}
					],
					"name": "setOp",
					"outputs": [
						{
							"internalType": "bool",
							"name": "",
							"type": "bool"
						}
					],
					"stateMutability": "nonpayable",
					"type": "function"
				},
				{
					"inputs": [
						{
							"internalType": "bool",
							"name": "_bool",
							"type": "bool"
						}
					],
					"name": "setOpenStabilizer",
					"outputs": [
						{
							"internalType": "bool",
							"name": "",
							"type": "bool"
						}
					],
					"stateMutability": "nonpayable",
					"type": "function"
				},
				{
					"inputs": [
						{
							"internalType": "uint256",
							"name": "_val",
							"type": "uint256"
						}
					],
					"name": "setPid",
					"outputs": [
						{
							"internalType": "bool",
							"name": "",
							"type": "bool"
						}
					],
					"stateMutability": "nonpayable",
					"type": "function"
				},
				{
					"inputs": [
						{
							"internalType": "address",
							"name": "_address",
							"type": "address"
						}
					],
					"name": "setStabilizer",
					"outputs": [
						{
							"internalType": "bool",
							"name": "",
							"type": "bool"
						}
					],
					"stateMutability": "nonpayable",
					"type": "function"
				},
				{
					"inputs": [
						{
							"internalType": "uint256",
							"name": "_val",
							"type": "uint256"
						}
					],
					"name": "setToDevPercent",
					"outputs": [
						{
							"internalType": "bool",
							"name": "",
							"type": "bool"
						}
					],
					"stateMutability": "nonpayable",
					"type": "function"
				},
				{
					"inputs": [
						{
							"internalType": "uint256",
							"name": "_val",
							"type": "uint256"
						}
					],
					"name": "setToOpPercent",
					"outputs": [
						{
							"internalType": "bool",
							"name": "",
							"type": "bool"
						}
					],
					"stateMutability": "nonpayable",
					"type": "function"
				},
				{
					"inputs": [
						{
							"internalType": "uint256",
							"name": "_val",
							"type": "uint256"
						}
					],
					"name": "setToSseaPercent",
					"outputs": [
						{
							"internalType": "bool",
							"name": "",
							"type": "bool"
						}
					],
					"stateMutability": "nonpayable",
					"type": "function"
				},
				{
					"inputs": [
						{
							"internalType": "contract IERC20Upgradeable",
							"name": "_usdc",
							"type": "address"
						}
					],
					"name": "setUSDCAddress",
					"outputs": [
						{
							"internalType": "bool",
							"name": "",
							"type": "bool"
						}
					],
					"stateMutability": "nonpayable",
					"type": "function"
				},
				{
					"inputs": [],
					"name": "ssea",
					"outputs": [
						{
							"internalType": "contract IERC20Upgradeable",
							"name": "",
							"type": "address"
						}
					],
					"stateMutability": "view",
					"type": "function"
				},
				{
					"inputs": [],
					"name": "stabilizer",
					"outputs": [
						{
							"internalType": "address",
							"name": "",
							"type": "address"
						}
					],
					"stateMutability": "view",
					"type": "function"
				},
				{
					"inputs": [],
					"name": "toDevPercent",
					"outputs": [
						{
							"internalType": "uint256",
							"name": "",
							"type": "uint256"
						}
					],
					"stateMutability": "view",
					"type": "function"
				},
				{
					"inputs": [],
					"name": "toOpPercent",
					"outputs": [
						{
							"internalType": "uint256",
							"name": "",
							"type": "uint256"
						}
					],
					"stateMutability": "view",
					"type": "function"
				},
				{
					"inputs": [],
					"name": "toSseaPercent",
					"outputs": [
						{
							"internalType": "uint256",
							"name": "",
							"type": "uint256"
						}
					],
					"stateMutability": "view",
					"type": "function"
				},
				{
					"inputs": [
						{
							"internalType": "address",
							"name": "newOwner",
							"type": "address"
						}
					],
					"name": "transferOwnership",
					"outputs": [],
					"stateMutability": "nonpayable",
					"type": "function"
				},
				{
					"inputs": [],
					"name": "usc",
					"outputs": [
						{
							"internalType": "contract IERC20Upgradeable",
							"name": "",
							"type": "address"
						}
					],
					"stateMutability": "view",
					"type": "function"
				},
				{
					"inputs": [],
					"name": "usdc",
					"outputs": [
						{
							"internalType": "contract IERC20Upgradeable",
							"name": "",
							"type": "address"
						}
					],
					"stateMutability": "view",
					"type": "function"
				},
				{
					"inputs": [
						{
							"internalType": "address",
							"name": "_address",
							"type": "address"
						},
						{
							"internalType": "uint256",
							"name": "_amt",
							"type": "uint256"
						}
					],
					"name": "withdrawalERC20",
					"outputs": [
						{
							"internalType": "bool",
							"name": "",
							"type": "bool"
						}
					],
					"stateMutability": "nonpayable",
					"type": "function"
				}
			],
			"devdoc": {
				"kind": "dev",
				"methods": {
					"owner()": {
						"details": "Returns the address of the current owner."
					},
					"renounceOwnership()": {
						"details": "Leaves the contract without owner. It will not be possible to call `onlyOwner` functions anymore. Can only be called by the current owner. NOTE: Renouncing ownership will leave the contract without an owner, thereby removing any functionality that is only available to the owner."
					},
					"transferOwnership(address)": {
						"details": "Transfers ownership of the contract to a new account (`newOwner`). Can only be called by the current owner."
					}
				},
				"version": 1
			},
			"evm": {
				"assembly": "    /* \"contracts/helperLogic.sol\":909:7840  contract helperLogic is Initializable, OwnableUpgradeable {... */\n  mstore(0x40, 0x80)\n  callvalue\n  dup1\n  iszero\n  tag_1\n  jumpi\n  0x00\n  dup1\n  revert\ntag_1:\n  pop\n  dataSize(sub_0)\n  dup1\n  dataOffset(sub_0)\n  0x00\n  codecopy\n  0x00\n  return\nstop\n\nsub_0: assembly {\n        /* \"contracts/helperLogic.sol\":909:7840  contract helperLogic is Initializable, OwnableUpgradeable {... */\n      mstore(0x40, 0x80)\n      callvalue\n      dup1\n      iszero\n      tag_1\n      jumpi\n      0x00\n      dup1\n      revert\n    tag_1:\n      pop\n      jumpi(tag_2, lt(calldatasize, 0x04))\n      shr(0xe0, calldataload(0x00))\n      dup1\n      0x8da5cb5b\n      gt\n      tag_40\n      jumpi\n      dup1\n      0xbd0b1f44\n      gt\n      tag_41\n      jumpi\n      dup1\n      0xdb7f521a\n      gt\n      tag_42\n      jumpi\n      dup1\n      0xdb7f521a\n      eq\n      tag_35\n      jumpi\n      dup1\n      0xec1f1f69\n      eq\n      tag_36\n      jumpi\n      dup1\n      0xf1068454\n      eq\n      tag_37\n      jumpi\n      dup1\n      0xf2fde38b\n      eq\n      tag_38\n      jumpi\n      dup1\n      0xf6d7eade\n      eq\n      tag_39\n      jumpi\n      jump(tag_2)\n    tag_42:\n      dup1\n      0xbd0b1f44\n      eq\n      tag_30\n      jumpi\n      dup1\n      0xc83dd231\n      eq\n      tag_31\n      jumpi\n      dup1\n      0xd10c06a2\n      eq\n      tag_32\n      jumpi\n      dup1\n      0xd477f05f\n      eq\n      tag_33\n      jumpi\n      dup1\n      0xd4f26c51\n      eq\n      tag_34\n      jumpi\n      jump(tag_2)\n    tag_41:\n      dup1\n      0xa36a7526\n      gt\n      tag_43\n      jumpi\n      dup1\n      0xa36a7526\n      eq\n      tag_25\n      jumpi\n      dup1\n      0xaaf5bfc3\n      eq\n      tag_26\n      jumpi\n      dup1\n      0xaaf5eb68\n      eq\n      tag_27\n      jumpi\n      dup1\n      0xaf5518c4\n      eq\n      tag_28\n      jumpi\n      dup1\n      0xb8bb97a1\n      eq\n      tag_29\n      jumpi\n      jump(tag_2)\n    tag_43:\n      dup1\n      0x8da5cb5b\n      eq\n      tag_21\n      jumpi\n      dup1\n      0x91cca3db\n      eq\n      tag_22\n      jumpi\n      dup1\n      0x930ed033\n      eq\n      tag_23\n      jumpi\n      dup1\n      0x9da5b0d5\n      eq\n      tag_24\n      jumpi\n      jump(tag_2)\n    tag_40:\n      dup1\n      0x3e413bee\n      gt\n      tag_44\n      jumpi\n      dup1\n      0x4ecaac41\n      gt\n      tag_45\n      jumpi\n      dup1\n      0x4ecaac41\n      eq\n      tag_16\n      jumpi\n      dup1\n      0x55c746d1\n      eq\n      tag_17\n      jumpi\n      dup1\n      0x58de5de8\n      eq\n      tag_18\n      jumpi\n      dup1\n      0x715018a6\n      eq\n      tag_19\n      jumpi\n      dup1\n      0x7e47961c\n      eq\n      tag_20\n      jumpi\n      jump(tag_2)\n    tag_45:\n      dup1\n      0x3e413bee\n      eq\n      tag_12\n      jumpi\n      dup1\n      0x4591db50\n      eq\n      tag_13\n      jumpi\n      dup1\n      0x48c7e528\n      eq\n      tag_14\n      jumpi\n      dup1\n      0x4ae6a027\n      eq\n      tag_15\n      jumpi\n      jump(tag_2)\n    tag_44:\n      dup1\n      0x2c535a52\n      gt\n      tag_46\n      jumpi\n      dup1\n      0x2c535a52\n      eq\n      tag_7\n      jumpi\n      dup1\n      0x3011d3d5\n      eq\n      tag_8\n      jumpi\n      dup1\n      0x35876476\n      eq\n      tag_9\n      jumpi\n      dup1\n      0x36e9332d\n      eq\n      tag_10\n      jumpi\n      dup1\n      0x3c850e1e\n      eq\n      tag_11\n      jumpi\n      jump(tag_2)\n    tag_46:\n      dup1\n      0x16d03993\n      eq\n      tag_3\n      jumpi\n      dup1\n      0x1b0d8aab\n      eq\n      tag_4\n      jumpi\n      dup1\n      0x1e1bff3f\n      eq\n      tag_5\n      jumpi\n      dup1\n      0x27c42a50\n      eq\n      tag_6\n      jumpi\n    tag_2:\n      0x00\n      dup1\n      revert\n        /* \"contracts/helperLogic.sol\":1525:1549  uint256 public basePoint */\n    tag_3:\n      tag_47\n      tag_48\n      jump\t// in\n    tag_47:\n      mload(0x40)\n      tag_49\n      swap2\n      swap1\n      tag_50\n      jump\t// in\n    tag_49:\n      mload(0x40)\n      dup1\n      swap2\n      sub\n      swap1\n      return\n        /* \"contracts/helperLogic.sol\":7439:7551  function setPid(uint256 _val) external onlyOwner returns (bool) {... */\n    tag_4:\n      tag_51\n      tag_52\n      calldatasize\n      0x04\n      tag_53\n      jump\t// in\n    tag_52:\n      tag_54\n      jump\t// in\n    tag_51:\n      mload(0x40)\n      tag_49\n      swap2\n      swap1\n      tag_56\n      jump\t// in\n        /* \"contracts/helperLogic.sol\":2591:2768  function setExecutor(address _address, bool _type)... */\n    tag_5:\n      tag_51\n      tag_58\n      calldatasize\n      0x04\n      tag_59\n      jump\t// in\n    tag_58:\n      tag_60\n      jump\t// in\n        /* \"contracts/helperLogic.sol\":6613:6745  function setToSseaPercent(uint256 _val) external onlyOwner returns (bool) {... */\n    tag_6:\n      tag_51\n      tag_63\n      calldatasize\n      0x04\n      tag_53\n      jump\t// in\n    tag_63:\n      tag_64\n      jump\t// in\n        /* \"contracts/helperLogic.sol\":1429:1455  uint256 public toOpPercent */\n    tag_7:\n      tag_47\n      tag_67\n      jump\t// in\n        /* \"contracts/helperLogic.sol\":1132:1160  IERC20Upgradeable public usc */\n    tag_8:\n      tag_69\n      tag_70\n      jump\t// in\n    tag_69:\n      mload(0x40)\n      tag_49\n      swap2\n      swap1\n      tag_116\n      jump\t// in\n        /* \"contracts/helperLogic.sol\":1701:2585  function initialize(... */\n    tag_9:\n      tag_73\n      tag_74\n      calldatasize\n      0x04\n      tag_75\n      jump\t// in\n    tag_74:\n      tag_76\n      jump\t// in\n    tag_73:\n      stop\n        /* \"contracts/helperLogic.sol\":1580:1597  IFarm public farm */\n    tag_10:\n      tag_69\n      tag_78\n      jump\t// in\n        /* \"contracts/helperLogic.sol\":6885:7015  function setToDevPercent(uint256 _val) external onlyOwner returns (bool) {... */\n    tag_11:\n      tag_51\n      tag_82\n      calldatasize\n      0x04\n      tag_53\n      jump\t// in\n    tag_82:\n      tag_83\n      jump\t// in\n        /* \"contracts/helperLogic.sol\":1166:1195  IERC20Upgradeable public usdc */\n    tag_12:\n      tag_69\n      tag_86\n      jump\t// in\n        /* \"contracts/helperLogic.sol\":7021:7154  function setAutoAdjustFarm(bool _bool) external onlyOwner returns (bool) {... */\n    tag_13:\n      tag_51\n      tag_89\n      calldatasize\n      0x04\n      tag_90\n      jump\t// in\n    tag_89:\n      tag_91\n      jump\t// in\n        /* \"contracts/helperLogic.sol\":1086:1126  mapping(address => bool) public executor */\n    tag_14:\n      tag_51\n      tag_94\n      calldatasize\n      0x04\n      tag_95\n      jump\t// in\n    tag_94:\n      tag_96\n      jump\t// in\n        /* \"contracts/helperLogic.sol\":1461:1488  uint256 public toDevPercent */\n    tag_15:\n      tag_47\n      tag_99\n      jump\t// in\n        /* \"contracts/helperLogic.sol\":1201:1229  IERC20Upgradeable public sea */\n    tag_16:\n      tag_69\n      tag_102\n      jump\t// in\n        /* \"contracts/helperLogic.sol\":7160:7293  function setOpenStabilizer(bool _bool) external onlyOwner returns (bool) {... */\n    tag_17:\n      tag_51\n      tag_105\n      calldatasize\n      0x04\n      tag_90\n      jump\t// in\n    tag_105:\n      tag_106\n      jump\t// in\n        /* \"contracts/helperLogic.sol\":1636:1662  bool public openStabilizer */\n    tag_18:\n      tag_51\n      tag_109\n      jump\t// in\n        /* \"@openzeppelin/contracts-upgradeable/access/OwnableUpgradeable.sol\":1934:2035  function renounceOwnership() public virtual onlyOwner {... */\n    tag_19:\n      tag_73\n      tag_112\n      jump\t// in\n        /* \"contracts/helperLogic.sol\":1669:1694  address public stabilizer */\n    tag_20:\n      tag_69\n      tag_114\n      jump\t// in\n        /* \"@openzeppelin/contracts-upgradeable/access/OwnableUpgradeable.sol\":1302:1387  function owner() public view virtual returns (address) {... */\n    tag_21:\n      tag_69\n      tag_118\n      jump\t// in\n        /* \"contracts/helperLogic.sol\":1293:1311  address public dev */\n    tag_22:\n      tag_69\n      tag_121\n      jump\t// in\n        /* \"contracts/helperLogic.sol\":6142:6357  function withdrawalERC20(address _address, uint256 _amt)... */\n    tag_23:\n      tag_51\n      tag_124\n      calldatasize\n      0x04\n      tag_125\n      jump\t// in\n    tag_124:\n      tag_126\n      jump\t// in\n        /* \"contracts/helperLogic.sol\":1604:1630  bool public autoAdjustFarm */\n    tag_24:\n      tag_51\n      tag_129\n      jump\t// in\n        /* \"contracts/helperLogic.sol\":6363:6481  function setOp(address _address) external onlyOwner returns (bool) {... */\n    tag_25:\n      tag_51\n      tag_132\n      calldatasize\n      0x04\n      tag_95\n      jump\t// in\n    tag_132:\n      tag_133\n      jump\t// in\n        /* \"contracts/helperLogic.sol\":7557:7718  function setUSDCAddress(IERC20Upgradeable _usdc)... */\n    tag_26:\n      tag_51\n      tag_136\n      calldatasize\n      0x04\n      tag_95\n      jump\t// in\n    tag_136:\n      tag_138\n      jump\t// in\n        /* \"contracts/helperLogic.sol\":1494:1518  uint256 public PRECISION */\n    tag_27:\n      tag_47\n      tag_141\n      jump\t// in\n        /* \"contracts/helperLogic.sol\":6751:6879  function setToOpPercent(uint256 _val) external onlyOwner returns (bool) {... */\n    tag_28:\n      tag_51\n      tag_144\n      calldatasize\n      0x04\n      tag_53\n      jump\t// in\n    tag_144:\n      tag_145\n      jump\t// in\n        /* \"contracts/helperLogic.sol\":1235:1264  IERC20Upgradeable public ssea */\n    tag_29:\n      tag_69\n      tag_148\n      jump\t// in\n        /* \"contracts/helperLogic.sol\":1395:1423  uint256 public toSseaPercent */\n    tag_30:\n      tag_47\n      tag_151\n      jump\t// in\n        /* \"contracts/helperLogic.sol\":1356:1388  IUniswapV2Factory public Factory */\n    tag_31:\n      tag_69\n      tag_154\n      jump\t// in\n        /* \"contracts/helperLogic.sol\":4246:5012  function jointExecution() external onlyExecutor returns (bool) {... */\n    tag_32:\n      tag_51\n      tag_158\n      jump\t// in\n        /* \"contracts/helperLogic.sol\":6487:6607  function setDev(address _address) external onlyOwner returns (bool) {... */\n    tag_33:\n      tag_51\n      tag_161\n      calldatasize\n      0x04\n      tag_95\n      jump\t// in\n    tag_161:\n      tag_162\n      jump\t// in\n        /* \"contracts/helperLogic.sol\":7724:7838  function setFarm(IFarm _farm) external onlyOwner returns (bool) {... */\n    tag_34:\n      tag_51\n      tag_165\n      calldatasize\n      0x04\n      tag_95\n      jump\t// in\n    tag_165:\n      tag_167\n      jump\t// in\n        /* \"contracts/helperLogic.sol\":7299:7433  function setStabilizer(address _address) external onlyOwner returns (bool) {... */\n    tag_35:\n      tag_51\n      tag_170\n      calldatasize\n      0x04\n      tag_95\n      jump\t// in\n    tag_170:\n      tag_171\n      jump\t// in\n        /* \"contracts/helperLogic.sol\":1270:1287  address public op */\n    tag_36:\n      tag_69\n      tag_174\n      jump\t// in\n        /* \"contracts/helperLogic.sol\":1555:1573  uint256 public pid */\n    tag_37:\n      tag_47\n      tag_177\n      jump\t// in\n        /* \"@openzeppelin/contracts-upgradeable/access/OwnableUpgradeable.sol\":2184:2382  function transferOwnership(address newOwner) public virtual onlyOwner {... */\n    tag_38:\n      tag_73\n      tag_180\n      calldatasize\n      0x04\n      tag_95\n      jump\t// in\n    tag_180:\n      tag_181\n      jump\t// in\n        /* \"contracts/helperLogic.sol\":1318:1350  IUniswapV2Router02 public Router */\n    tag_39:\n      tag_69\n      tag_183\n      jump\t// in\n        /* \"contracts/helperLogic.sol\":1525:1549  uint256 public basePoint */\n    tag_48:\n      sload(0x72)\n      dup2\n      jump\t// out\n        /* \"contracts/helperLogic.sol\":7439:7551  function setPid(uint256 _val) external onlyOwner returns (bool) {... */\n    tag_54:\n        /* \"contracts/helperLogic.sol\":7497:7501  bool */\n      0x00\n        /* \"@openzeppelin/contracts-upgradeable/access/OwnableUpgradeable.sol\":1525:1537  _msgSender() */\n      tag_187\n        /* \"@openzeppelin/contracts-upgradeable/access/OwnableUpgradeable.sol\":1525:1535  _msgSender */\n      tag_188\n        /* \"@openzeppelin/contracts-upgradeable/access/OwnableUpgradeable.sol\":1525:1537  _msgSender() */\n      jump\t// in\n    tag_187:\n      sub(shl(0xa0, 0x01), 0x01)\n        /* \"@openzeppelin/contracts-upgradeable/access/OwnableUpgradeable.sol\":1514:1537  owner() == _msgSender() */\n      and\n        /* \"@openzeppelin/contracts-upgradeable/access/OwnableUpgradeable.sol\":1514:1521  owner() */\n      tag_189\n        /* \"@openzeppelin/contracts-upgradeable/access/OwnableUpgradeable.sol\":1514:1519  owner */\n      tag_118\n        /* \"@openzeppelin/contracts-upgradeable/access/OwnableUpgradeable.sol\":1514:1521  owner() */\n      jump\t// in\n    tag_189:\n      sub(shl(0xa0, 0x01), 0x01)\n        /* \"@openzeppelin/contracts-upgradeable/access/OwnableUpgradeable.sol\":1514:1537  owner() == _msgSender() */\n      and\n      eq\n        /* \"@openzeppelin/contracts-upgradeable/access/OwnableUpgradeable.sol\":1506:1574  require(owner() == _msgSender(), \"Ownable: caller is not the owner\") */\n      tag_190\n      jumpi\n      mload(0x40)\n      shl(0xe5, 0x461bcd)\n      dup2\n      mstore\n      0x04\n      add\n      tag_191\n      swap1\n      tag_192\n      jump\t// in\n    tag_191:\n      mload(0x40)\n      dup1\n      swap2\n      sub\n      swap1\n      revert\n    tag_190:\n      pop\n        /* \"contracts/helperLogic.sol\":7513:7516  pid */\n      0x73\n        /* \"contracts/helperLogic.sol\":7513:7523  pid = _val */\n      dup2\n      swap1\n      sstore\n        /* \"contracts/helperLogic.sol\":7540:7544  true */\n      0x01\n        /* \"@openzeppelin/contracts-upgradeable/access/OwnableUpgradeable.sol\":1584:1585  _ */\n    tag_193:\n        /* \"contracts/helperLogic.sol\":7439:7551  function setPid(uint256 _val) external onlyOwner returns (bool) {... */\n      swap2\n      swap1\n      pop\n      jump\t// out\n        /* \"contracts/helperLogic.sol\":2591:2768  function setExecutor(address _address, bool _type)... */\n    tag_60:\n        /* \"contracts/helperLogic.sol\":2694:2698  bool */\n      0x00\n        /* \"@openzeppelin/contracts-upgradeable/access/OwnableUpgradeable.sol\":1525:1537  _msgSender() */\n      tag_195\n        /* \"@openzeppelin/contracts-upgradeable/access/OwnableUpgradeable.sol\":1525:1535  _msgSender */\n      tag_188\n        /* \"@openzeppelin/contracts-upgradeable/access/OwnableUpgradeable.sol\":1525:1537  _msgSender() */\n      jump\t// in\n    tag_195:\n      sub(shl(0xa0, 0x01), 0x01)\n        /* \"@openzeppelin/contracts-upgradeable/access/OwnableUpgradeable.sol\":1514:1537  owner() == _msgSender() */\n      and\n        /* \"@openzeppelin/contracts-upgradeable/access/OwnableUpgradeable.sol\":1514:1521  owner() */\n      tag_196\n        /* \"@openzeppelin/contracts-upgradeable/access/OwnableUpgradeable.sol\":1514:1519  owner */\n      tag_118\n        /* \"@openzeppelin/contracts-upgradeable/access/OwnableUpgradeable.sol\":1514:1521  owner() */\n      jump\t// in\n    tag_196:\n      sub(shl(0xa0, 0x01), 0x01)\n        /* \"@openzeppelin/contracts-upgradeable/access/OwnableUpgradeable.sol\":1514:1537  owner() == _msgSender() */\n      and\n      eq\n        /* \"@openzeppelin/contracts-upgradeable/access/OwnableUpgradeable.sol\":1506:1574  require(owner() == _msgSender(), \"Ownable: caller is not the owner\") */\n      tag_197\n      jumpi\n      mload(0x40)\n      shl(0xe5, 0x461bcd)\n      dup2\n      mstore\n      0x04\n      add\n      tag_191\n      swap1\n      tag_192\n      jump\t// in\n    tag_197:\n      pop\n      sub(shl(0xa0, 0x01), 0x01)\n        /* \"contracts/helperLogic.sol\":2714:2732  executor[_address] */\n      dup3\n      and\n      0x00\n      swap1\n      dup2\n      mstore\n        /* \"contracts/helperLogic.sol\":2714:2722  executor */\n      0x65\n        /* \"contracts/helperLogic.sol\":2714:2732  executor[_address] */\n      0x20\n      mstore\n      0x40\n      swap1\n      keccak256\n        /* \"contracts/helperLogic.sol\":2714:2740  executor[_address] = _type */\n      dup1\n      sload\n      dup3\n      iszero\n      iszero\n      not(0xff)\n      swap1\n      swap2\n      and\n      or\n      swap1\n      sstore\n      0x01\n        /* \"contracts/helperLogic.sol\":2591:2768  function setExecutor(address _address, bool _type)... */\n      swap3\n      swap2\n      pop\n      pop\n      jump\t// out\n        /* \"contracts/helperLogic.sol\":6613:6745  function setToSseaPercent(uint256 _val) external onlyOwner returns (bool) {... */\n    tag_64:\n        /* \"contracts/helperLogic.sol\":6681:6685  bool */\n      0x00\n        /* \"@openzeppelin/contracts-upgradeable/access/OwnableUpgradeable.sol\":1525:1537  _msgSender() */\n      tag_201\n        /* \"@openzeppelin/contracts-upgradeable/access/OwnableUpgradeable.sol\":1525:1535  _msgSender */\n      tag_188\n        /* \"@openzeppelin/contracts-upgradeable/access/OwnableUpgradeable.sol\":1525:1537  _msgSender() */\n      jump\t// in\n    tag_201:\n      sub(shl(0xa0, 0x01), 0x01)\n        /* \"@openzeppelin/contracts-upgradeable/access/OwnableUpgradeable.sol\":1514:1537  owner() == _msgSender() */\n      and\n        /* \"@openzeppelin/contracts-upgradeable/access/OwnableUpgradeable.sol\":1514:1521  owner() */\n      tag_202\n        /* \"@openzeppelin/contracts-upgradeable/access/OwnableUpgradeable.sol\":1514:1519  owner */\n      tag_118\n        /* \"@openzeppelin/contracts-upgradeable/access/OwnableUpgradeable.sol\":1514:1521  owner() */\n      jump\t// in\n    tag_202:\n      sub(shl(0xa0, 0x01), 0x01)\n        /* \"@openzeppelin/contracts-upgradeable/access/OwnableUpgradeable.sol\":1514:1537  owner() == _msgSender() */\n      and\n      eq\n        /* \"@openzeppelin/contracts-upgradeable/access/OwnableUpgradeable.sol\":1506:1574  require(owner() == _msgSender(), \"Ownable: caller is not the owner\") */\n      tag_203\n      jumpi\n      mload(0x40)\n      shl(0xe5, 0x461bcd)\n      dup2\n      mstore\n      0x04\n      add\n      tag_191\n      swap1\n      tag_192\n      jump\t// in\n    tag_203:\n      pop\n        /* \"contracts/helperLogic.sol\":6697:6710  toSseaPercent */\n      0x6e\n        /* \"contracts/helperLogic.sol\":6697:6717  toSseaPercent = _val */\n      sstore\n        /* \"contracts/helperLogic.sol\":6734:6738  true */\n      0x01\n      swap1\n        /* \"contracts/helperLogic.sol\":6613:6745  function setToSseaPercent(uint256 _val) external onlyOwner returns (bool) {... */\n      jump\t// out\n        /* \"contracts/helperLogic.sol\":1429:1455  uint256 public toOpPercent */\n    tag_67:\n      sload(0x6f)\n      dup2\n      jump\t// out\n        /* \"contracts/helperLogic.sol\":1132:1160  IERC20Upgradeable public usc */\n    tag_70:\n      and(sub(shl(0xa0, 0x01), 0x01), sload(0x66))\n      dup2\n      jump\t// out\n        /* \"contracts/helperLogic.sol\":1701:2585  function initialize(... */\n    tag_76:\n        /* \"@openzeppelin/contracts-upgradeable/proxy/utils/Initializable.sol\":539:552  _initializing */\n      sload(0x00)\n      0x0100\n      swap1\n      div\n      0xff\n      and\n      dup1\n        /* \"@openzeppelin/contracts-upgradeable/proxy/utils/Initializable.sol\":539:569  _initializing || !_initialized */\n      tag_207\n      jumpi\n      pop\n        /* \"@openzeppelin/contracts-upgradeable/proxy/utils/Initializable.sol\":557:569  _initialized */\n      and(0xff, sload(0x00))\n        /* \"@openzeppelin/contracts-upgradeable/proxy/utils/Initializable.sol\":556:569  !_initialized */\n      iszero\n        /* \"@openzeppelin/contracts-upgradeable/proxy/utils/Initializable.sol\":539:569  _initializing || !_initialized */\n    tag_207:\n        /* \"@openzeppelin/contracts-upgradeable/proxy/utils/Initializable.sol\":531:620  require(_initializing || !_initialized, \"Initializable: contract is already initialized\") */\n      tag_208\n      jumpi\n      mload(0x40)\n      shl(0xe5, 0x461bcd)\n      dup2\n      mstore\n      0x04\n      add\n      tag_191\n      swap1\n      tag_210\n      jump\t// in\n    tag_208:\n        /* \"@openzeppelin/contracts-upgradeable/proxy/utils/Initializable.sol\":631:650  bool isTopLevelCall */\n      0x00\n        /* \"@openzeppelin/contracts-upgradeable/proxy/utils/Initializable.sol\":654:667  _initializing */\n      sload\n      0x0100\n      swap1\n      div\n      0xff\n      and\n        /* \"@openzeppelin/contracts-upgradeable/proxy/utils/Initializable.sol\":653:667  !_initializing */\n      iszero\n        /* \"@openzeppelin/contracts-upgradeable/proxy/utils/Initializable.sol\":677:775  if (isTopLevelCall) {... */\n      dup1\n      iszero\n      tag_211\n      jumpi\n        /* \"@openzeppelin/contracts-upgradeable/proxy/utils/Initializable.sol\":711:724  _initializing */\n      0x00\n        /* \"@openzeppelin/contracts-upgradeable/proxy/utils/Initializable.sol\":711:731  _initializing = true */\n      dup1\n      sload\n      not(0xff)\n      not(0xff00)\n      swap1\n      swap2\n      and\n      0x0100\n      or\n        /* \"@openzeppelin/contracts-upgradeable/proxy/utils/Initializable.sol\":745:764  _initialized = true */\n      and\n        /* \"@openzeppelin/contracts-upgradeable/proxy/utils/Initializable.sol\":727:731  true */\n      0x01\n        /* \"@openzeppelin/contracts-upgradeable/proxy/utils/Initializable.sol\":745:764  _initialized = true */\n      or\n      swap1\n      sstore\n        /* \"@openzeppelin/contracts-upgradeable/proxy/utils/Initializable.sol\":677:775  if (isTopLevelCall) {... */\n    tag_211:\n        /* \"contracts/helperLogic.sol\":2067:2083  __Ownable_init() */\n      tag_213\n        /* \"contracts/helperLogic.sol\":2067:2081  __Ownable_init */\n      tag_214\n        /* \"contracts/helperLogic.sol\":2067:2083  __Ownable_init() */\n      jump\t// in\n    tag_213:\n        /* \"contracts/helperLogic.sol\":2137:2143  Router */\n      0x6c\n        /* \"contracts/helperLogic.sol\":2137:2153  Router = _Router */\n      dup1\n      sload\n      not(sub(shl(0xa0, 0x01), 0x01))\n      swap1\n      dup2\n      and\n      sub(shl(0xa0, 0x01), 0x01)\n      dup11\n      dup2\n      and\n      swap2\n      swap1\n      swap2\n      or\n      swap1\n      swap3\n      sstore\n        /* \"contracts/helperLogic.sol\":2163:2170  Factory */\n      0x6d\n        /* \"contracts/helperLogic.sol\":2163:2181  Factory = _Factory */\n      dup1\n      sload\n      dup3\n      and\n      dup12\n      dup5\n      and\n      or\n      swap1\n      sstore\n        /* \"contracts/helperLogic.sol\":2191:2194  usc */\n      0x66\n        /* \"contracts/helperLogic.sol\":2191:2201  usc = _usc */\n      dup1\n      sload\n      dup3\n      and\n      dup10\n      dup5\n      and\n      or\n      swap1\n      sstore\n        /* \"contracts/helperLogic.sol\":2211:2214  sea */\n      0x68\n        /* \"contracts/helperLogic.sol\":2211:2221  sea = _sea */\n      dup1\n      sload\n      dup3\n      and\n      dup8\n      dup5\n      and\n      or\n      swap1\n      sstore\n        /* \"contracts/helperLogic.sol\":2231:2235  ssea */\n      0x69\n        /* \"contracts/helperLogic.sol\":2231:2243  ssea = _ssea */\n      dup1\n      sload\n      dup3\n      and\n      dup7\n      dup5\n      and\n      or\n      swap1\n      sstore\n        /* \"contracts/helperLogic.sol\":2253:2255  op */\n      0x6a\n        /* \"contracts/helperLogic.sol\":2253:2268  op = msg.sender */\n      dup1\n      sload\n        /* \"contracts/helperLogic.sol\":2258:2268  msg.sender */\n      caller\n        /* \"contracts/helperLogic.sol\":2253:2268  op = msg.sender */\n      swap1\n      dup4\n      and\n      dup2\n      or\n      swap1\n      swap2\n      sstore\n        /* \"contracts/helperLogic.sol\":2278:2281  dev */\n      0x6b\n        /* \"contracts/helperLogic.sol\":2278:2294  dev = msg.sender */\n      dup1\n      sload\n      dup4\n      and\n      swap1\n      swap2\n      or\n      swap1\n      sstore\n        /* \"contracts/helperLogic.sol\":2320:2324  5000 */\n      0x1388\n        /* \"contracts/helperLogic.sol\":2304:2317  toSseaPercent */\n      0x6e\n        /* \"contracts/helperLogic.sol\":2304:2324  toSseaPercent = 5000 */\n      sstore\n        /* \"contracts/helperLogic.sol\":2348:2352  2500 */\n      0x09c4\n        /* \"contracts/helperLogic.sol\":2334:2345  toOpPercent */\n      0x6f\n        /* \"contracts/helperLogic.sol\":2334:2352  toOpPercent = 2500 */\n      dup2\n      swap1\n      sstore\n        /* \"contracts/helperLogic.sol\":2362:2374  toDevPercent */\n      0x70\n        /* \"contracts/helperLogic.sol\":2362:2381  toDevPercent = 2500 */\n      sstore\n        /* \"contracts/helperLogic.sol\":2403:2408  10000 */\n      0x2710\n        /* \"contracts/helperLogic.sol\":2391:2400  PRECISION */\n      0x71\n        /* \"contracts/helperLogic.sol\":2391:2408  PRECISION = 10000 */\n      sstore\n        /* \"contracts/helperLogic.sol\":2430:2434  1000 */\n      0x03e8\n        /* \"contracts/helperLogic.sol\":2418:2427  basePoint */\n      0x72\n        /* \"contracts/helperLogic.sol\":2418:2434  basePoint = 1000 */\n      sstore\n        /* \"contracts/helperLogic.sol\":2444:2458  autoAdjustFarm */\n      0x74\n        /* \"contracts/helperLogic.sol\":2444:2465  autoAdjustFarm = true */\n      dup1\n      sload\n      shl(0xa0, 0x01)\n      not(shl(0xa0, 0xff))\n      swap1\n      swap2\n      and\n      or\n      not(sub(shl(0xa0, 0xff01), 0x01))\n        /* \"contracts/helperLogic.sol\":2507:2519  farm = _farm */\n      and\n      dup6\n      dup5\n      and\n      or\n      swap1\n      sstore\n        /* \"contracts/helperLogic.sol\":2529:2533  usdc */\n      0x67\n        /* \"contracts/helperLogic.sol\":2529:2541  usdc = _usdc */\n      dup1\n      sload\n      swap1\n      swap2\n      and\n      swap2\n      dup8\n      and\n      swap2\n      swap1\n      swap2\n      or\n      swap1\n      sstore\n        /* \"@openzeppelin/contracts-upgradeable/proxy/utils/Initializable.sol\":797:863  if (isTopLevelCall) {... */\n      dup1\n      iszero\n      tag_215\n      jumpi\n        /* \"@openzeppelin/contracts-upgradeable/proxy/utils/Initializable.sol\":847:852  false */\n      0x00\n        /* \"@openzeppelin/contracts-upgradeable/proxy/utils/Initializable.sol\":831:852  _initializing = false */\n      dup1\n      sload\n      not(0xff00)\n      and\n      swap1\n      sstore\n        /* \"@openzeppelin/contracts-upgradeable/proxy/utils/Initializable.sol\":797:863  if (isTopLevelCall) {... */\n    tag_215:\n        /* \"contracts/helperLogic.sol\":1701:2585  function initialize(... */\n      pop\n      pop\n      pop\n      pop\n      pop\n      pop\n      pop\n      pop\n      jump\t// out\n        /* \"contracts/helperLogic.sol\":1580:1597  IFarm public farm */\n    tag_78:\n      and(sub(shl(0xa0, 0x01), 0x01), sload(0x74))\n      dup2\n      jump\t// out\n        /* \"contracts/helperLogic.sol\":6885:7015  function setToDevPercent(uint256 _val) external onlyOwner returns (bool) {... */\n    tag_83:\n        /* \"contracts/helperLogic.sol\":6952:6956  bool */\n      0x00\n        /* \"@openzeppelin/contracts-upgradeable/access/OwnableUpgradeable.sol\":1525:1537  _msgSender() */\n      tag_217\n        /* \"@openzeppelin/contracts-upgradeable/access/OwnableUpgradeable.sol\":1525:1535  _msgSender */\n      tag_188\n        /* \"@openzeppelin/contracts-upgradeable/access/OwnableUpgradeable.sol\":1525:1537  _msgSender() */\n      jump\t// in\n    tag_217:\n      sub(shl(0xa0, 0x01), 0x01)\n        /* \"@openzeppelin/contracts-upgradeable/access/OwnableUpgradeable.sol\":1514:1537  owner() == _msgSender() */\n      and\n        /* \"@openzeppelin/contracts-upgradeable/access/OwnableUpgradeable.sol\":1514:1521  owner() */\n      tag_218\n        /* \"@openzeppelin/contracts-upgradeable/access/OwnableUpgradeable.sol\":1514:1519  owner */\n      tag_118\n        /* \"@openzeppelin/contracts-upgradeable/access/OwnableUpgradeable.sol\":1514:1521  owner() */\n      jump\t// in\n    tag_218:\n      sub(shl(0xa0, 0x01), 0x01)\n        /* \"@openzeppelin/contracts-upgradeable/access/OwnableUpgradeable.sol\":1514:1537  owner() == _msgSender() */\n      and\n      eq\n        /* \"@openzeppelin/contracts-upgradeable/access/OwnableUpgradeable.sol\":1506:1574  require(owner() == _msgSender(), \"Ownable: caller is not the owner\") */\n      tag_219\n      jumpi\n      mload(0x40)\n      shl(0xe5, 0x461bcd)\n      dup2\n      mstore\n      0x04\n      add\n      tag_191\n      swap1\n      tag_192\n      jump\t// in\n    tag_219:\n      pop\n        /* \"contracts/helperLogic.sol\":6968:6980  toDevPercent */\n      0x70\n        /* \"contracts/helperLogic.sol\":6968:6987  toDevPercent = _val */\n      sstore\n        /* \"contracts/helperLogic.sol\":7004:7008  true */\n      0x01\n      swap1\n        /* \"contracts/helperLogic.sol\":6885:7015  function setToDevPercent(uint256 _val) external onlyOwner returns (bool) {... */\n      jump\t// out\n        /* \"contracts/helperLogic.sol\":1166:1195  IERC20Upgradeable public usdc */\n    tag_86:\n      and(sub(shl(0xa0, 0x01), 0x01), sload(0x67))\n      dup2\n      jump\t// out\n        /* \"contracts/helperLogic.sol\":7021:7154  function setAutoAdjustFarm(bool _bool) external onlyOwner returns (bool) {... */\n    tag_91:\n        /* \"contracts/helperLogic.sol\":7088:7092  bool */\n      0x00\n        /* \"@openzeppelin/contracts-upgradeable/access/OwnableUpgradeable.sol\":1525:1537  _msgSender() */\n      tag_223\n        /* \"@openzeppelin/contracts-upgradeable/access/OwnableUpgradeable.sol\":1525:1535  _msgSender */\n      tag_188\n        /* \"@openzeppelin/contracts-upgradeable/access/OwnableUpgradeable.sol\":1525:1537  _msgSender() */\n      jump\t// in\n    tag_223:\n      sub(shl(0xa0, 0x01), 0x01)\n        /* \"@openzeppelin/contracts-upgradeable/access/OwnableUpgradeable.sol\":1514:1537  owner() == _msgSender() */\n      and\n        /* \"@openzeppelin/contracts-upgradeable/access/OwnableUpgradeable.sol\":1514:1521  owner() */\n      tag_224\n        /* \"@openzeppelin/contracts-upgradeable/access/OwnableUpgradeable.sol\":1514:1519  owner */\n      tag_118\n        /* \"@openzeppelin/contracts-upgradeable/access/OwnableUpgradeable.sol\":1514:1521  owner() */\n      jump\t// in\n    tag_224:\n      sub(shl(0xa0, 0x01), 0x01)\n        /* \"@openzeppelin/contracts-upgradeable/access/OwnableUpgradeable.sol\":1514:1537  owner() == _msgSender() */\n      and\n      eq\n        /* \"@openzeppelin/contracts-upgradeable/access/OwnableUpgradeable.sol\":1506:1574  require(owner() == _msgSender(), \"Ownable: caller is not the owner\") */\n      tag_225\n      jumpi\n      mload(0x40)\n      shl(0xe5, 0x461bcd)\n      dup2\n      mstore\n      0x04\n      add\n      tag_191\n      swap1\n      tag_192\n      jump\t// in\n    tag_225:\n      pop\n        /* \"contracts/helperLogic.sol\":7104:7118  autoAdjustFarm */\n      0x74\n        /* \"contracts/helperLogic.sol\":7104:7126  autoAdjustFarm = _bool */\n      dup1\n      sload\n      dup3\n      iszero\n      iszero\n      shl(0xa0, 0x01)\n      mul\n      not(shl(0xa0, 0xff))\n      swap1\n      swap2\n      and\n      or\n      swap1\n      sstore\n      0x01\n        /* \"contracts/helperLogic.sol\":7021:7154  function setAutoAdjustFarm(bool _bool) external onlyOwner returns (bool) {... */\n      swap2\n      swap1\n      pop\n      jump\t// out\n        /* \"contracts/helperLogic.sol\":1086:1126  mapping(address => bool) public executor */\n    tag_96:\n      mstore(0x20, 0x65)\n      0x00\n      swap1\n      dup2\n      mstore\n      0x40\n      swap1\n      keccak256\n      sload\n      0xff\n      and\n      dup2\n      jump\t// out\n        /* \"contracts/helperLogic.sol\":1461:1488  uint256 public toDevPercent */\n    tag_99:\n      sload(0x70)\n      dup2\n      jump\t// out\n        /* \"contracts/helperLogic.sol\":1201:1229  IERC20Upgradeable public sea */\n    tag_102:\n      and(sub(shl(0xa0, 0x01), 0x01), sload(0x68))\n      dup2\n      jump\t// out\n        /* \"contracts/helperLogic.sol\":7160:7293  function setOpenStabilizer(bool _bool) external onlyOwner returns (bool) {... */\n    tag_106:\n        /* \"contracts/helperLogic.sol\":7227:7231  bool */\n      0x00\n        /* \"@openzeppelin/contracts-upgradeable/access/OwnableUpgradeable.sol\":1525:1537  _msgSender() */\n      tag_229\n        /* \"@openzeppelin/contracts-upgradeable/access/OwnableUpgradeable.sol\":1525:1535  _msgSender */\n      tag_188\n        /* \"@openzeppelin/contracts-upgradeable/access/OwnableUpgradeable.sol\":1525:1537  _msgSender() */\n      jump\t// in\n    tag_229:\n      sub(shl(0xa0, 0x01), 0x01)\n        /* \"@openzeppelin/contracts-upgradeable/access/OwnableUpgradeable.sol\":1514:1537  owner() == _msgSender() */\n      and\n        /* \"@openzeppelin/contracts-upgradeable/access/OwnableUpgradeable.sol\":1514:1521  owner() */\n      tag_230\n        /* \"@openzeppelin/contracts-upgradeable/access/OwnableUpgradeable.sol\":1514:1519  owner */\n      tag_118\n        /* \"@openzeppelin/contracts-upgradeable/access/OwnableUpgradeable.sol\":1514:1521  owner() */\n      jump\t// in\n    tag_230:\n      sub(shl(0xa0, 0x01), 0x01)\n        /* \"@openzeppelin/contracts-upgradeable/access/OwnableUpgradeable.sol\":1514:1537  owner() == _msgSender() */\n      and\n      eq\n        /* \"@openzeppelin/contracts-upgradeable/access/OwnableUpgradeable.sol\":1506:1574  require(owner() == _msgSender(), \"Ownable: caller is not the owner\") */\n      tag_231\n      jumpi\n      mload(0x40)\n      shl(0xe5, 0x461bcd)\n      dup2\n      mstore\n      0x04\n      add\n      tag_191\n      swap1\n      tag_192\n      jump\t// in\n    tag_231:\n      pop\n        /* \"contracts/helperLogic.sol\":7243:7257  openStabilizer */\n      0x74\n        /* \"contracts/helperLogic.sol\":7243:7265  openStabilizer = _bool */\n      dup1\n      sload\n      dup3\n      iszero\n      iszero\n      shl(0xa8, 0x01)\n      mul\n      not(shl(0xa8, 0xff))\n      swap1\n      swap2\n      and\n      or\n      swap1\n      sstore\n      0x01\n        /* \"contracts/helperLogic.sol\":7160:7293  function setOpenStabilizer(bool _bool) external onlyOwner returns (bool) {... */\n      swap2\n      swap1\n      pop\n      jump\t// out\n        /* \"contracts/helperLogic.sol\":1636:1662  bool public openStabilizer */\n    tag_109:\n      sload(0x74)\n      shl(0xa8, 0x01)\n      swap1\n      div\n      0xff\n      and\n      dup2\n      jump\t// out\n        /* \"@openzeppelin/contracts-upgradeable/access/OwnableUpgradeable.sol\":1934:2035  function renounceOwnership() public virtual onlyOwner {... */\n    tag_112:\n        /* \"@openzeppelin/contracts-upgradeable/access/OwnableUpgradeable.sol\":1525:1537  _msgSender() */\n      tag_235\n        /* \"@openzeppelin/contracts-upgradeable/access/OwnableUpgradeable.sol\":1525:1535  _msgSender */\n      tag_188\n        /* \"@openzeppelin/contracts-upgradeable/access/OwnableUpgradeable.sol\":1525:1537  _msgSender() */\n      jump\t// in\n    tag_235:\n      sub(shl(0xa0, 0x01), 0x01)\n        /* \"@openzeppelin/contracts-upgradeable/access/OwnableUpgradeable.sol\":1514:1537  owner() == _msgSender() */\n      and\n        /* \"@openzeppelin/contracts-upgradeable/access/OwnableUpgradeable.sol\":1514:1521  owner() */\n      tag_236\n        /* \"@openzeppelin/contracts-upgradeable/access/OwnableUpgradeable.sol\":1514:1519  owner */\n      tag_118\n        /* \"@openzeppelin/contracts-upgradeable/access/OwnableUpgradeable.sol\":1514:1521  owner() */\n      jump\t// in\n    tag_236:\n      sub(shl(0xa0, 0x01), 0x01)\n        /* \"@openzeppelin/contracts-upgradeable/access/OwnableUpgradeable.sol\":1514:1537  owner() == _msgSender() */\n      and\n      eq\n        /* \"@openzeppelin/contracts-upgradeable/access/OwnableUpgradeable.sol\":1506:1574  require(owner() == _msgSender(), \"Ownable: caller is not the owner\") */\n      tag_237\n      jumpi\n      mload(0x40)\n      shl(0xe5, 0x461bcd)\n      dup2\n      mstore\n      0x04\n      add\n      tag_191\n      swap1\n      tag_192\n      jump\t// in\n    tag_237:\n        /* \"@openzeppelin/contracts-upgradeable/access/OwnableUpgradeable.sol\":1998:2028  _transferOwnership(address(0)) */\n      tag_240\n        /* \"@openzeppelin/contracts-upgradeable/access/OwnableUpgradeable.sol\":2025:2026  0 */\n      0x00\n        /* \"@openzeppelin/contracts-upgradeable/access/OwnableUpgradeable.sol\":1998:2016  _transferOwnership */\n      tag_241\n        /* \"@openzeppelin/contracts-upgradeable/access/OwnableUpgradeable.sol\":1998:2028  _transferOwnership(address(0)) */\n      jump\t// in\n    tag_240:\n        /* \"@openzeppelin/contracts-upgradeable/access/OwnableUpgradeable.sol\":1934:2035  function renounceOwnership() public virtual onlyOwner {... */\n      jump\t// out\n        /* \"contracts/helperLogic.sol\":1669:1694  address public stabilizer */\n    tag_114:\n      and(sub(shl(0xa0, 0x01), 0x01), sload(0x75))\n      dup2\n      jump\t// out\n        /* \"@openzeppelin/contracts-upgradeable/access/OwnableUpgradeable.sol\":1302:1387  function owner() public view virtual returns (address) {... */\n    tag_118:\n        /* \"@openzeppelin/contracts-upgradeable/access/OwnableUpgradeable.sol\":1374:1380  _owner */\n      and(sub(shl(0xa0, 0x01), 0x01), sload(0x33))\n        /* \"@openzeppelin/contracts-upgradeable/access/OwnableUpgradeable.sol\":1302:1387  function owner() public view virtual returns (address) {... */\n    tag_242:\n      swap1\n      jump\t// out\n        /* \"contracts/helperLogic.sol\":1293:1311  address public dev */\n    tag_121:\n      and(sub(shl(0xa0, 0x01), 0x01), sload(0x6b))\n      dup2\n      jump\t// out\n        /* \"contracts/helperLogic.sol\":6142:6357  function withdrawalERC20(address _address, uint256 _amt)... */\n    tag_126:\n        /* \"contracts/helperLogic.sol\":6251:6255  bool */\n      0x00\n        /* \"@openzeppelin/contracts-upgradeable/access/OwnableUpgradeable.sol\":1525:1537  _msgSender() */\n      tag_244\n        /* \"@openzeppelin/contracts-upgradeable/access/OwnableUpgradeable.sol\":1525:1535  _msgSender */\n      tag_188\n        /* \"@openzeppelin/contracts-upgradeable/access/OwnableUpgradeable.sol\":1525:1537  _msgSender() */\n      jump\t// in\n    tag_244:\n      sub(shl(0xa0, 0x01), 0x01)\n        /* \"@openzeppelin/contracts-upgradeable/access/OwnableUpgradeable.sol\":1514:1537  owner() == _msgSender() */\n      and\n        /* \"@openzeppelin/contracts-upgradeable/access/OwnableUpgradeable.sol\":1514:1521  owner() */\n      tag_245\n        /* \"@openzeppelin/contracts-upgradeable/access/OwnableUpgradeable.sol\":1514:1519  owner */\n      tag_118\n        /* \"@openzeppelin/contracts-upgradeable/access/OwnableUpgradeable.sol\":1514:1521  owner() */\n      jump\t// in\n    tag_245:\n      sub(shl(0xa0, 0x01), 0x01)\n        /* \"@openzeppelin/contracts-upgradeable/access/OwnableUpgradeable.sol\":1514:1537  owner() == _msgSender() */\n      and\n      eq\n        /* \"@openzeppelin/contracts-upgradeable/access/OwnableUpgradeable.sol\":1506:1574  require(owner() == _msgSender(), \"Ownable: caller is not the owner\") */\n      tag_246\n      jumpi\n      mload(0x40)\n      shl(0xe5, 0x461bcd)\n      dup2\n      mstore\n      0x04\n      add\n      tag_191\n      swap1\n      tag_192\n      jump\t// in\n    tag_246:\n        /* \"contracts/helperLogic.sol\":6271:6329  IERC20Upgradeable(_address).safeTransfer(msg.sender, _amt) */\n      tag_249\n      sub(shl(0xa0, 0x01), 0x01)\n        /* \"contracts/helperLogic.sol\":6271:6311  IERC20Upgradeable(_address).safeTransfer */\n      dup5\n      and\n        /* \"contracts/helperLogic.sol\":6312:6322  msg.sender */\n      caller\n        /* \"contracts/helperLogic.sol\":6324:6328  _amt */\n      dup5\n        /* \"contracts/helperLogic.sol\":6271:6311  IERC20Upgradeable(_address).safeTransfer */\n      tag_250\n        /* \"contracts/helperLogic.sol\":6271:6329  IERC20Upgradeable(_address).safeTransfer(msg.sender, _amt) */\n      jump\t// in\n    tag_249:\n      pop\n        /* \"contracts/helperLogic.sol\":6346:6350  true */\n      0x01\n        /* \"contracts/helperLogic.sol\":6142:6357  function withdrawalERC20(address _address, uint256 _amt)... */\n      swap3\n      swap2\n      pop\n      pop\n      jump\t// out\n        /* \"contracts/helperLogic.sol\":1604:1630  bool public autoAdjustFarm */\n    tag_129:\n      sload(0x74)\n      shl(0xa0, 0x01)\n      swap1\n      div\n      0xff\n      and\n      dup2\n      jump\t// out\n        /* \"contracts/helperLogic.sol\":6363:6481  function setOp(address _address) external onlyOwner returns (bool) {... */\n    tag_133:\n        /* \"contracts/helperLogic.sol\":6424:6428  bool */\n      0x00\n        /* \"@openzeppelin/contracts-upgradeable/access/OwnableUpgradeable.sol\":1525:1537  _msgSender() */\n      tag_252\n        /* \"@openzeppelin/contracts-upgradeable/access/OwnableUpgradeable.sol\":1525:1535  _msgSender */\n      tag_188\n        /* \"@openzeppelin/contracts-upgradeable/access/OwnableUpgradeable.sol\":1525:1537  _msgSender() */\n      jump\t// in\n    tag_252:\n      sub(shl(0xa0, 0x01), 0x01)\n        /* \"@openzeppelin/contracts-upgradeable/access/OwnableUpgradeable.sol\":1514:1537  owner() == _msgSender() */\n      and\n        /* \"@openzeppelin/contracts-upgradeable/access/OwnableUpgradeable.sol\":1514:1521  owner() */\n      tag_253\n        /* \"@openzeppelin/contracts-upgradeable/access/OwnableUpgradeable.sol\":1514:1519  owner */\n      tag_118\n        /* \"@openzeppelin/contracts-upgradeable/access/OwnableUpgradeable.sol\":1514:1521  owner() */\n      jump\t// in\n    tag_253:\n      sub(shl(0xa0, 0x01), 0x01)\n        /* \"@openzeppelin/contracts-upgradeable/access/OwnableUpgradeable.sol\":1514:1537  owner() == _msgSender() */\n      and\n      eq\n        /* \"@openzeppelin/contracts-upgradeable/access/OwnableUpgradeable.sol\":1506:1574  require(owner() == _msgSender(), \"Ownable: caller is not the owner\") */\n      tag_254\n      jumpi\n      mload(0x40)\n      shl(0xe5, 0x461bcd)\n      dup2\n      mstore\n      0x04\n      add\n      tag_191\n      swap1\n      tag_192\n      jump\t// in\n    tag_254:\n      pop\n        /* \"contracts/helperLogic.sol\":6440:6442  op */\n      0x6a\n        /* \"contracts/helperLogic.sol\":6440:6453  op = _address */\n      dup1\n      sload\n      sub(shl(0xa0, 0x01), 0x01)\n      dup4\n      and\n      not(sub(shl(0xa0, 0x01), 0x01))\n      swap1\n      swap2\n      and\n      or\n      swap1\n      sstore\n      0x01\n        /* \"contracts/helperLogic.sol\":6363:6481  function setOp(address _address) external onlyOwner returns (bool) {... */\n      swap2\n      swap1\n      pop\n      jump\t// out\n        /* \"contracts/helperLogic.sol\":7557:7718  function setUSDCAddress(IERC20Upgradeable _usdc)... */\n    tag_138:\n        /* \"contracts/helperLogic.sol\":7658:7662  bool */\n      0x00\n        /* \"@openzeppelin/contracts-upgradeable/access/OwnableUpgradeable.sol\":1525:1537  _msgSender() */\n      tag_258\n        /* \"@openzeppelin/contracts-upgradeable/access/OwnableUpgradeable.sol\":1525:1535  _msgSender */\n      tag_188\n        /* \"@openzeppelin/contracts-upgradeable/access/OwnableUpgradeable.sol\":1525:1537  _msgSender() */\n      jump\t// in\n    tag_258:\n      sub(shl(0xa0, 0x01), 0x01)\n        /* \"@openzeppelin/contracts-upgradeable/access/OwnableUpgradeable.sol\":1514:1537  owner() == _msgSender() */\n      and\n        /* \"@openzeppelin/contracts-upgradeable/access/OwnableUpgradeable.sol\":1514:1521  owner() */\n      tag_259\n        /* \"@openzeppelin/contracts-upgradeable/access/OwnableUpgradeable.sol\":1514:1519  owner */\n      tag_118\n        /* \"@openzeppelin/contracts-upgradeable/access/OwnableUpgradeable.sol\":1514:1521  owner() */\n      jump\t// in\n    tag_259:\n      sub(shl(0xa0, 0x01), 0x01)\n        /* \"@openzeppelin/contracts-upgradeable/access/OwnableUpgradeable.sol\":1514:1537  owner() == _msgSender() */\n      and\n      eq\n        /* \"@openzeppelin/contracts-upgradeable/access/OwnableUpgradeable.sol\":1506:1574  require(owner() == _msgSender(), \"Ownable: caller is not the owner\") */\n      tag_260\n      jumpi\n      mload(0x40)\n      shl(0xe5, 0x461bcd)\n      dup2\n      mstore\n      0x04\n      add\n      tag_191\n      swap1\n      tag_192\n      jump\t// in\n    tag_260:\n      pop\n        /* \"contracts/helperLogic.sol\":7678:7682  usdc */\n      0x67\n        /* \"contracts/helperLogic.sol\":7678:7690  usdc = _usdc */\n      dup1\n      sload\n      sub(shl(0xa0, 0x01), 0x01)\n      dup4\n      and\n      not(sub(shl(0xa0, 0x01), 0x01))\n      swap1\n      swap2\n      and\n      or\n      swap1\n      sstore\n      0x01\n        /* \"contracts/helperLogic.sol\":7557:7718  function setUSDCAddress(IERC20Upgradeable _usdc)... */\n      swap2\n      swap1\n      pop\n      jump\t// out\n        /* \"contracts/helperLogic.sol\":1494:1518  uint256 public PRECISION */\n    tag_141:\n      sload(0x71)\n      dup2\n      jump\t// out\n        /* \"contracts/helperLogic.sol\":6751:6879  function setToOpPercent(uint256 _val) external onlyOwner returns (bool) {... */\n    tag_145:\n        /* \"contracts/helperLogic.sol\":6817:6821  bool */\n      0x00\n        /* \"@openzeppelin/contracts-upgradeable/access/OwnableUpgradeable.sol\":1525:1537  _msgSender() */\n      tag_264\n        /* \"@openzeppelin/contracts-upgradeable/access/OwnableUpgradeable.sol\":1525:1535  _msgSender */\n      tag_188\n        /* \"@openzeppelin/contracts-upgradeable/access/OwnableUpgradeable.sol\":1525:1537  _msgSender() */\n      jump\t// in\n    tag_264:\n      sub(shl(0xa0, 0x01), 0x01)\n        /* \"@openzeppelin/contracts-upgradeable/access/OwnableUpgradeable.sol\":1514:1537  owner() == _msgSender() */\n      and\n        /* \"@openzeppelin/contracts-upgradeable/access/OwnableUpgradeable.sol\":1514:1521  owner() */\n      tag_265\n        /* \"@openzeppelin/contracts-upgradeable/access/OwnableUpgradeable.sol\":1514:1519  owner */\n      tag_118\n        /* \"@openzeppelin/contracts-upgradeable/access/OwnableUpgradeable.sol\":1514:1521  owner() */\n      jump\t// in\n    tag_265:\n      sub(shl(0xa0, 0x01), 0x01)\n        /* \"@openzeppelin/contracts-upgradeable/access/OwnableUpgradeable.sol\":1514:1537  owner() == _msgSender() */\n      and\n      eq\n        /* \"@openzeppelin/contracts-upgradeable/access/OwnableUpgradeable.sol\":1506:1574  require(owner() == _msgSender(), \"Ownable: caller is not the owner\") */\n      tag_266\n      jumpi\n      mload(0x40)\n      shl(0xe5, 0x461bcd)\n      dup2\n      mstore\n      0x04\n      add\n      tag_191\n      swap1\n      tag_192\n      jump\t// in\n    tag_266:\n      pop\n        /* \"contracts/helperLogic.sol\":6833:6844  toOpPercent */\n      0x6f\n        /* \"contracts/helperLogic.sol\":6833:6851  toOpPercent = _val */\n      sstore\n        /* \"contracts/helperLogic.sol\":6868:6872  true */\n      0x01\n      swap1\n        /* \"contracts/helperLogic.sol\":6751:6879  function setToOpPercent(uint256 _val) external onlyOwner returns (bool) {... */\n      jump\t// out\n        /* \"contracts/helperLogic.sol\":1235:1264  IERC20Upgradeable public ssea */\n    tag_148:\n      and(sub(shl(0xa0, 0x01), 0x01), sload(0x69))\n      dup2\n      jump\t// out\n        /* \"contracts/helperLogic.sol\":1395:1423  uint256 public toSseaPercent */\n    tag_151:\n      sload(0x6e)\n      dup2\n      jump\t// out\n        /* \"contracts/helperLogic.sol\":1356:1388  IUniswapV2Factory public Factory */\n    tag_154:\n      and(sub(shl(0xa0, 0x01), 0x01), sload(0x6d))\n      dup2\n      jump\t// out\n        /* \"contracts/helperLogic.sol\":4246:5012  function jointExecution() external onlyExecutor returns (bool) {... */\n    tag_158:\n        /* \"contracts/helperLogic.sol\":2825:2835  msg.sender */\n      caller\n        /* \"contracts/helperLogic.sol\":4303:4307  bool */\n      0x00\n        /* \"contracts/helperLogic.sol\":2816:2836  executor[msg.sender] */\n      swap1\n      dup2\n      mstore\n        /* \"contracts/helperLogic.sol\":2816:2824  executor */\n      0x65\n        /* \"contracts/helperLogic.sol\":2816:2836  executor[msg.sender] */\n      0x20\n      mstore\n      0x40\n      dup2\n      keccak256\n      sload\n      0xff\n      and\n        /* \"contracts/helperLogic.sol\":2808:2877  require(executor[msg.sender], \"executor: caller is not the executor\") */\n      tag_270\n      jumpi\n      mload(0x40)\n      shl(0xe5, 0x461bcd)\n      dup2\n      mstore\n      0x04\n      add\n      tag_191\n      swap1\n      tag_272\n      jump\t// in\n    tag_270:\n        /* \"contracts/helperLogic.sol\":4342:4345  usc */\n      sload(0x66)\n        /* \"contracts/helperLogic.sol\":4342:4370  usc.balanceOf(address(this)) */\n      mload(0x40)\n      shl(0xe0, 0x70a08231)\n      dup2\n      mstore\n        /* \"contracts/helperLogic.sol\":4319:4339  uint256 uscBalanceOf */\n      0x00\n      swap2\n      sub(shl(0xa0, 0x01), 0x01)\n        /* \"contracts/helperLogic.sol\":4342:4345  usc */\n      and\n      swap1\n        /* \"contracts/helperLogic.sol\":4342:4355  usc.balanceOf */\n      0x70a08231\n      swap1\n        /* \"contracts/helperLogic.sol\":4342:4370  usc.balanceOf(address(this)) */\n      tag_274\n      swap1\n        /* \"contracts/helperLogic.sol\":4364:4368  this */\n      address\n      swap1\n        /* \"contracts/helperLogic.sol\":4342:4370  usc.balanceOf(address(this)) */\n      0x04\n      add\n      tag_116\n      jump\t// in\n    tag_274:\n      0x20\n      mload(0x40)\n      dup1\n      dup4\n      sub\n      dup2\n      dup7\n      dup1\n      extcodesize\n      iszero\n      dup1\n      iszero\n      tag_275\n      jumpi\n      0x00\n      dup1\n      revert\n    tag_275:\n      pop\n      gas\n      staticcall\n      iszero\n      dup1\n      iszero\n      tag_277\n      jumpi\n      returndatasize\n      0x00\n      dup1\n      returndatacopy\n      revert(0x00, returndatasize)\n    tag_277:\n      pop\n      pop\n      pop\n      pop\n      mload(0x40)\n      returndatasize\n      not(0x1f)\n      0x1f\n      dup3\n      add\n      and\n      dup3\n      add\n      dup1\n      0x40\n      mstore\n      pop\n      dup2\n      add\n      swap1\n      tag_278\n      swap2\n      swap1\n      tag_279\n      jump\t// in\n    tag_278:\n        /* \"contracts/helperLogic.sol\":4319:4370  uint256 uscBalanceOf = usc.balanceOf(address(this)) */\n      swap1\n      pop\n        /* \"contracts/helperLogic.sol\":4384:4401  uscBalanceOf == 0 */\n      dup1\n        /* \"contracts/helperLogic.sol\":4380:4439  if (uscBalanceOf == 0) {... */\n      tag_280\n      jumpi\n        /* \"contracts/helperLogic.sol\":4424:4428  true */\n      0x01\n        /* \"contracts/helperLogic.sol\":4417:4428  return true */\n      swap2\n      pop\n      pop\n      jump(tag_242)\n        /* \"contracts/helperLogic.sol\":4380:4439  if (uscBalanceOf == 0) {... */\n    tag_280:\n        /* \"contracts/helperLogic.sol\":4448:4462  uint256 toSsea */\n      0x00\n        /* \"contracts/helperLogic.sol\":4465:4511  uscBalanceOf.mul(toSseaPercent).div(PRECISION) */\n      tag_281\n        /* \"contracts/helperLogic.sol\":4501:4510  PRECISION */\n      sload(0x71)\n        /* \"contracts/helperLogic.sol\":4465:4496  uscBalanceOf.mul(toSseaPercent) */\n      tag_282\n        /* \"contracts/helperLogic.sol\":4482:4495  toSseaPercent */\n      sload(0x6e)\n        /* \"contracts/helperLogic.sol\":4465:4477  uscBalanceOf */\n      dup6\n        /* \"contracts/helperLogic.sol\":4465:4481  uscBalanceOf.mul */\n      tag_283\n      swap1\n        /* \"contracts/helperLogic.sol\":4465:4496  uscBalanceOf.mul(toSseaPercent) */\n      swap2\n      swap1\n      0xffffffff\n      and\n      jump\t// in\n    tag_282:\n        /* \"contracts/helperLogic.sol\":4465:4500  uscBalanceOf.mul(toSseaPercent).div */\n      swap1\n      tag_284\n        /* \"contracts/helperLogic.sol\":4465:4511  uscBalanceOf.mul(toSseaPercent).div(PRECISION) */\n      jump\t// in\n    tag_281:\n        /* \"contracts/helperLogic.sol\":4448:4511  uint256 toSsea = uscBalanceOf.mul(toSseaPercent).div(PRECISION) */\n      swap1\n      pop\n        /* \"contracts/helperLogic.sol\":4521:4533  uint256 toOp */\n      0x00\n        /* \"contracts/helperLogic.sol\":4536:4580  uscBalanceOf.mul(toOpPercent).div(PRECISION) */\n      tag_285\n        /* \"contracts/helperLogic.sol\":4570:4579  PRECISION */\n      sload(0x71)\n        /* \"contracts/helperLogic.sol\":4536:4565  uscBalanceOf.mul(toOpPercent) */\n      tag_282\n        /* \"contracts/helperLogic.sol\":4553:4564  toOpPercent */\n      sload(0x6f)\n        /* \"contracts/helperLogic.sol\":4536:4548  uscBalanceOf */\n      dup7\n        /* \"contracts/helperLogic.sol\":4536:4552  uscBalanceOf.mul */\n      tag_283\n      swap1\n        /* \"contracts/helperLogic.sol\":4536:4565  uscBalanceOf.mul(toOpPercent) */\n      swap2\n      swap1\n      0xffffffff\n      and\n      jump\t// in\n        /* \"contracts/helperLogic.sol\":4536:4580  uscBalanceOf.mul(toOpPercent).div(PRECISION) */\n    tag_285:\n        /* \"contracts/helperLogic.sol\":4521:4580  uint256 toOp = uscBalanceOf.mul(toOpPercent).div(PRECISION) */\n      swap1\n      pop\n        /* \"contracts/helperLogic.sol\":4590:4603  uint256 toDev */\n      0x00\n        /* \"contracts/helperLogic.sol\":4606:4640  uscBalanceOf.sub(toSsea).sub(toOp) */\n      tag_287\n        /* \"contracts/helperLogic.sol\":4521:4580  uint256 toOp = uscBalanceOf.mul(toOpPercent).div(PRECISION) */\n      dup3\n        /* \"contracts/helperLogic.sol\":4606:4630  uscBalanceOf.sub(toSsea) */\n      tag_288\n        /* \"contracts/helperLogic.sol\":4606:4618  uscBalanceOf */\n      dup7\n        /* \"contracts/helperLogic.sol\":4623:4629  toSsea */\n      dup7\n        /* \"contracts/helperLogic.sol\":4606:4622  uscBalanceOf.sub */\n      tag_289\n        /* \"contracts/helperLogic.sol\":4606:4630  uscBalanceOf.sub(toSsea) */\n      jump\t// in\n    tag_288:\n        /* \"contracts/helperLogic.sol\":4606:4634  uscBalanceOf.sub(toSsea).sub */\n      swap1\n      tag_289\n        /* \"contracts/helperLogic.sol\":4606:4640  uscBalanceOf.sub(toSsea).sub(toOp) */\n      jump\t// in\n    tag_287:\n        /* \"contracts/helperLogic.sol\":4590:4640  uint256 toDev = uscBalanceOf.sub(toSsea).sub(toOp) */\n      swap1\n      pop\n        /* \"contracts/helperLogic.sol\":4651:4665  uint256 seaAmt */\n      0x00\n        /* \"contracts/helperLogic.sol\":4668:4682  buySea(toSsea) */\n      tag_290\n        /* \"contracts/helperLogic.sol\":4675:4681  toSsea */\n      dup5\n        /* \"contracts/helperLogic.sol\":4668:4674  buySea */\n      tag_291\n        /* \"contracts/helperLogic.sol\":4668:4682  buySea(toSsea) */\n      jump\t// in\n    tag_290:\n        /* \"contracts/helperLogic.sol\":4717:4721  ssea */\n      sload(0x69)\n        /* \"contracts/helperLogic.sol\":4692:4695  sea */\n      sload(0x68)\n        /* \"contracts/helperLogic.sol\":4651:4682  uint256 seaAmt = buySea(toSsea) */\n      swap2\n      swap3\n      pop\n        /* \"contracts/helperLogic.sol\":4692:4731  sea.safeTransfer(address(ssea), seaAmt) */\n      tag_292\n      swap2\n      sub(shl(0xa0, 0x01), 0x01)\n        /* \"contracts/helperLogic.sol\":4692:4695  sea */\n      swap1\n      dup2\n      and\n      swap2\n        /* \"contracts/helperLogic.sol\":4717:4721  ssea */\n      and\n        /* \"contracts/helperLogic.sol\":4651:4682  uint256 seaAmt = buySea(toSsea) */\n      dup4\n        /* \"contracts/helperLogic.sol\":4692:4708  sea.safeTransfer */\n      tag_250\n        /* \"contracts/helperLogic.sol\":4692:4731  sea.safeTransfer(address(ssea), seaAmt) */\n      jump\t// in\n    tag_292:\n        /* \"contracts/helperLogic.sol\":4766:4768  op */\n      sload(0x6a)\n        /* \"contracts/helperLogic.sol\":4741:4744  usc */\n      sload(0x66)\n        /* \"contracts/helperLogic.sol\":4741:4776  usc.safeTransfer(address(op), toOp) */\n      tag_293\n      swap2\n      sub(shl(0xa0, 0x01), 0x01)\n        /* \"contracts/helperLogic.sol\":4741:4744  usc */\n      swap2\n      dup3\n      and\n      swap2\n        /* \"contracts/helperLogic.sol\":4766:4768  op */\n      and\n        /* \"contracts/helperLogic.sol\":4771:4775  toOp */\n      dup6\n        /* \"contracts/helperLogic.sol\":4741:4757  usc.safeTransfer */\n      tag_250\n        /* \"contracts/helperLogic.sol\":4741:4776  usc.safeTransfer(address(op), toOp) */\n      jump\t// in\n    tag_293:\n        /* \"contracts/helperLogic.sol\":4811:4814  dev */\n      sload(0x6b)\n        /* \"contracts/helperLogic.sol\":4786:4789  usc */\n      sload(0x66)\n        /* \"contracts/helperLogic.sol\":4786:4823  usc.safeTransfer(address(dev), toDev) */\n      tag_294\n      swap2\n      sub(shl(0xa0, 0x01), 0x01)\n        /* \"contracts/helperLogic.sol\":4786:4789  usc */\n      swap2\n      dup3\n      and\n      swap2\n        /* \"contracts/helperLogic.sol\":4811:4814  dev */\n      and\n        /* \"contracts/helperLogic.sol\":4817:4822  toDev */\n      dup5\n        /* \"contracts/helperLogic.sol\":4786:4802  usc.safeTransfer */\n      tag_250\n        /* \"contracts/helperLogic.sol\":4786:4823  usc.safeTransfer(address(dev), toDev) */\n      jump\t// in\n    tag_294:\n        /* \"contracts/helperLogic.sol\":4838:4852  autoAdjustFarm */\n      sload(0x74)\n      shl(0xa0, 0x01)\n      swap1\n      div\n      0xff\n      and\n        /* \"contracts/helperLogic.sol\":4834:4891  if (autoAdjustFarm) {... */\n      iszero\n      tag_296\n      jumpi\n        /* \"contracts/helperLogic.sol\":4868:4880  adjustFarm() */\n      tag_296\n        /* \"contracts/helperLogic.sol\":4868:4878  adjustFarm */\n      tag_297\n        /* \"contracts/helperLogic.sol\":4868:4880  adjustFarm() */\n      jump\t// in\n    tag_296:\n        /* \"contracts/helperLogic.sol\":4905:4919  openStabilizer */\n      sload(0x74)\n      shl(0xa8, 0x01)\n      swap1\n      div\n      0xff\n      and\n        /* \"contracts/helperLogic.sol\":4901:4984  if (openStabilizer) {... */\n      iszero\n      tag_298\n      jumpi\n        /* \"contracts/helperLogic.sol\":4947:4957  stabilizer */\n      0x75\n      0x00\n      swap1\n      sload\n      swap1\n      0x0100\n      exp\n      swap1\n      div\n      sub(shl(0xa0, 0x01), 0x01)\n      and\n      sub(shl(0xa0, 0x01), 0x01)\n        /* \"contracts/helperLogic.sol\":4935:4971  IStabilizer(stabilizer).goStabilizer */\n      and\n      0x796c7be7\n        /* \"contracts/helperLogic.sol\":4935:4973  IStabilizer(stabilizer).goStabilizer() */\n      mload(0x40)\n      dup2\n      0xffffffff\n      and\n      0xe0\n      shl\n      dup2\n      mstore\n      0x04\n      add\n      0x20\n      mload(0x40)\n      dup1\n      dup4\n      sub\n      dup2\n      0x00\n      dup8\n      dup1\n      extcodesize\n      iszero\n      dup1\n      iszero\n      tag_299\n      jumpi\n      0x00\n      dup1\n      revert\n    tag_299:\n      pop\n      gas\n      call\n      iszero\n      dup1\n      iszero\n      tag_301\n      jumpi\n      returndatasize\n      0x00\n      dup1\n      returndatacopy\n      revert(0x00, returndatasize)\n    tag_301:\n      pop\n      pop\n      pop\n      pop\n      mload(0x40)\n      returndatasize\n      not(0x1f)\n      0x1f\n      dup3\n      add\n      and\n      dup3\n      add\n      dup1\n      0x40\n      mstore\n      pop\n      dup2\n      add\n      swap1\n      tag_302\n      swap2\n      swap1\n      tag_303\n      jump\t// in\n    tag_302:\n      pop\n        /* \"contracts/helperLogic.sol\":4901:4984  if (openStabilizer) {... */\n    tag_298:\n        /* \"contracts/helperLogic.sol\":5001:5005  true */\n      0x01\n        /* \"contracts/helperLogic.sol\":4994:5005  return true */\n      swap6\n      pop\n      pop\n      pop\n      pop\n      pop\n      pop\n        /* \"contracts/helperLogic.sol\":4246:5012  function jointExecution() external onlyExecutor returns (bool) {... */\n      swap1\n      jump\t// out\n        /* \"contracts/helperLogic.sol\":6487:6607  function setDev(address _address) external onlyOwner returns (bool) {... */\n    tag_162:\n        /* \"contracts/helperLogic.sol\":6549:6553  bool */\n      0x00\n        /* \"@openzeppelin/contracts-upgradeable/access/OwnableUpgradeable.sol\":1525:1537  _msgSender() */\n      tag_305\n        /* \"@openzeppelin/contracts-upgradeable/access/OwnableUpgradeable.sol\":1525:1535  _msgSender */\n      tag_188\n        /* \"@openzeppelin/contracts-upgradeable/access/OwnableUpgradeable.sol\":1525:1537  _msgSender() */\n      jump\t// in\n    tag_305:\n      sub(shl(0xa0, 0x01), 0x01)\n        /* \"@openzeppelin/contracts-upgradeable/access/OwnableUpgradeable.sol\":1514:1537  owner() == _msgSender() */\n      and\n        /* \"@openzeppelin/contracts-upgradeable/access/OwnableUpgradeable.sol\":1514:1521  owner() */\n      tag_306\n        /* \"@openzeppelin/contracts-upgradeable/access/OwnableUpgradeable.sol\":1514:1519  owner */\n      tag_118\n        /* \"@openzeppelin/contracts-upgradeable/access/OwnableUpgradeable.sol\":1514:1521  owner() */\n      jump\t// in\n    tag_306:\n      sub(shl(0xa0, 0x01), 0x01)\n        /* \"@openzeppelin/contracts-upgradeable/access/OwnableUpgradeable.sol\":1514:1537  owner() == _msgSender() */\n      and\n      eq\n        /* \"@openzeppelin/contracts-upgradeable/access/OwnableUpgradeable.sol\":1506:1574  require(owner() == _msgSender(), \"Ownable: caller is not the owner\") */\n      tag_307\n      jumpi\n      mload(0x40)\n      shl(0xe5, 0x461bcd)\n      dup2\n      mstore\n      0x04\n      add\n      tag_191\n      swap1\n      tag_192\n      jump\t// in\n    tag_307:\n      pop\n        /* \"contracts/helperLogic.sol\":6565:6568  dev */\n      0x6b\n        /* \"contracts/helperLogic.sol\":6565:6579  dev = _address */\n      dup1\n      sload\n      sub(shl(0xa0, 0x01), 0x01)\n      dup4\n      and\n      not(sub(shl(0xa0, 0x01), 0x01))\n      swap1\n      swap2\n      and\n      or\n      swap1\n      sstore\n      0x01\n        /* \"contracts/helperLogic.sol\":6487:6607  function setDev(address _address) external onlyOwner returns (bool) {... */\n      swap2\n      swap1\n      pop\n      jump\t// out\n        /* \"contracts/helperLogic.sol\":7724:7838  function setFarm(IFarm _farm) external onlyOwner returns (bool) {... */\n    tag_167:\n        /* \"contracts/helperLogic.sol\":7782:7786  bool */\n      0x00\n        /* \"@openzeppelin/contracts-upgradeable/access/OwnableUpgradeable.sol\":1525:1537  _msgSender() */\n      tag_311\n        /* \"@openzeppelin/contracts-upgradeable/access/OwnableUpgradeable.sol\":1525:1535  _msgSender */\n      tag_188\n        /* \"@openzeppelin/contracts-upgradeable/access/OwnableUpgradeable.sol\":1525:1537  _msgSender() */\n      jump\t// in\n    tag_311:\n      sub(shl(0xa0, 0x01), 0x01)\n        /* \"@openzeppelin/contracts-upgradeable/access/OwnableUpgradeable.sol\":1514:1537  owner() == _msgSender() */\n      and\n        /* \"@openzeppelin/contracts-upgradeable/access/OwnableUpgradeable.sol\":1514:1521  owner() */\n      tag_312\n        /* \"@openzeppelin/contracts-upgradeable/access/OwnableUpgradeable.sol\":1514:1519  owner */\n      tag_118\n        /* \"@openzeppelin/contracts-upgradeable/access/OwnableUpgradeable.sol\":1514:1521  owner() */\n      jump\t// in\n    tag_312:\n      sub(shl(0xa0, 0x01), 0x01)\n        /* \"@openzeppelin/contracts-upgradeable/access/OwnableUpgradeable.sol\":1514:1537  owner() == _msgSender() */\n      and\n      eq\n        /* \"@openzeppelin/contracts-upgradeable/access/OwnableUpgradeable.sol\":1506:1574  require(owner() == _msgSender(), \"Ownable: caller is not the owner\") */\n      tag_313\n      jumpi\n      mload(0x40)\n      shl(0xe5, 0x461bcd)\n      dup2\n      mstore\n      0x04\n      add\n      tag_191\n      swap1\n      tag_192\n      jump\t// in\n    tag_313:\n      pop\n        /* \"contracts/helperLogic.sol\":7798:7802  farm */\n      0x74\n        /* \"contracts/helperLogic.sol\":7798:7810  farm = _farm */\n      dup1\n      sload\n      sub(shl(0xa0, 0x01), 0x01)\n      dup4\n      and\n      not(sub(shl(0xa0, 0x01), 0x01))\n      swap1\n      swap2\n      and\n      or\n      swap1\n      sstore\n      0x01\n        /* \"contracts/helperLogic.sol\":7724:7838  function setFarm(IFarm _farm) external onlyOwner returns (bool) {... */\n      swap2\n      swap1\n      pop\n      jump\t// out\n        /* \"contracts/helperLogic.sol\":7299:7433  function setStabilizer(address _address) external onlyOwner returns (bool) {... */\n    tag_171:\n        /* \"contracts/helperLogic.sol\":7368:7372  bool */\n      0x00\n        /* \"@openzeppelin/contracts-upgradeable/access/OwnableUpgradeable.sol\":1525:1537  _msgSender() */\n      tag_317\n        /* \"@openzeppelin/contracts-upgradeable/access/OwnableUpgradeable.sol\":1525:1535  _msgSender */\n      tag_188\n        /* \"@openzeppelin/contracts-upgradeable/access/OwnableUpgradeable.sol\":1525:1537  _msgSender() */\n      jump\t// in\n    tag_317:\n      sub(shl(0xa0, 0x01), 0x01)\n        /* \"@openzeppelin/contracts-upgradeable/access/OwnableUpgradeable.sol\":1514:1537  owner() == _msgSender() */\n      and\n        /* \"@openzeppelin/contracts-upgradeable/access/OwnableUpgradeable.sol\":1514:1521  owner() */\n      tag_318\n        /* \"@openzeppelin/contracts-upgradeable/access/OwnableUpgradeable.sol\":1514:1519  owner */\n      tag_118\n        /* \"@openzeppelin/contracts-upgradeable/access/OwnableUpgradeable.sol\":1514:1521  owner() */\n      jump\t// in\n    tag_318:\n      sub(shl(0xa0, 0x01), 0x01)\n        /* \"@openzeppelin/contracts-upgradeable/access/OwnableUpgradeable.sol\":1514:1537  owner() == _msgSender() */\n      and\n      eq\n        /* \"@openzeppelin/contracts-upgradeable/access/OwnableUpgradeable.sol\":1506:1574  require(owner() == _msgSender(), \"Ownable: caller is not the owner\") */\n      tag_319\n      jumpi\n      mload(0x40)\n      shl(0xe5, 0x461bcd)\n      dup2\n      mstore\n      0x04\n      add\n      tag_191\n      swap1\n      tag_192\n      jump\t// in\n    tag_319:\n      pop\n        /* \"contracts/helperLogic.sol\":7384:7394  stabilizer */\n      0x75\n        /* \"contracts/helperLogic.sol\":7384:7405  stabilizer = _address */\n      dup1\n      sload\n      sub(shl(0xa0, 0x01), 0x01)\n      dup4\n      and\n      not(sub(shl(0xa0, 0x01), 0x01))\n      swap1\n      swap2\n      and\n      or\n      swap1\n      sstore\n      0x01\n        /* \"contracts/helperLogic.sol\":7299:7433  function setStabilizer(address _address) external onlyOwner returns (bool) {... */\n      swap2\n      swap1\n      pop\n      jump\t// out\n        /* \"contracts/helperLogic.sol\":1270:1287  address public op */\n    tag_174:\n      and(sub(shl(0xa0, 0x01), 0x01), sload(0x6a))\n      dup2\n      jump\t// out\n        /* \"contracts/helperLogic.sol\":1555:1573  uint256 public pid */\n    tag_177:\n      sload(0x73)\n      dup2\n      jump\t// out\n        /* \"@openzeppelin/contracts-upgradeable/access/OwnableUpgradeable.sol\":2184:2382  function transferOwnership(address newOwner) public virtual onlyOwner {... */\n    tag_181:\n        /* \"@openzeppelin/contracts-upgradeable/access/OwnableUpgradeable.sol\":1525:1537  _msgSender() */\n      tag_323\n        /* \"@openzeppelin/contracts-upgradeable/access/OwnableUpgradeable.sol\":1525:1535  _msgSender */\n      tag_188\n        /* \"@openzeppelin/contracts-upgradeable/access/OwnableUpgradeable.sol\":1525:1537  _msgSender() */\n      jump\t// in\n    tag_323:\n      sub(shl(0xa0, 0x01), 0x01)\n        /* \"@openzeppelin/contracts-upgradeable/access/OwnableUpgradeable.sol\":1514:1537  owner() == _msgSender() */\n      and\n        /* \"@openzeppelin/contracts-upgradeable/access/OwnableUpgradeable.sol\":1514:1521  owner() */\n      tag_324\n        /* \"@openzeppelin/contracts-upgradeable/access/OwnableUpgradeable.sol\":1514:1519  owner */\n      tag_118\n        /* \"@openzeppelin/contracts-upgradeable/access/OwnableUpgradeable.sol\":1514:1521  owner() */\n      jump\t// in\n    tag_324:\n      sub(shl(0xa0, 0x01), 0x01)\n        /* \"@openzeppelin/contracts-upgradeable/access/OwnableUpgradeable.sol\":1514:1537  owner() == _msgSender() */\n      and\n      eq\n        /* \"@openzeppelin/contracts-upgradeable/access/OwnableUpgradeable.sol\":1506:1574  require(owner() == _msgSender(), \"Ownable: caller is not the owner\") */\n      tag_325\n      jumpi\n      mload(0x40)\n      shl(0xe5, 0x461bcd)\n      dup2\n      mstore\n      0x04\n      add\n      tag_191\n      swap1\n      tag_192\n      jump\t// in\n    tag_325:\n      sub(shl(0xa0, 0x01), 0x01)\n        /* \"@openzeppelin/contracts-upgradeable/access/OwnableUpgradeable.sol\":2272:2294  newOwner != address(0) */\n      dup2\n      and\n        /* \"@openzeppelin/contracts-upgradeable/access/OwnableUpgradeable.sol\":2264:2337  require(newOwner != address(0), \"Ownable: new owner is the zero address\") */\n      tag_328\n      jumpi\n      mload(0x40)\n      shl(0xe5, 0x461bcd)\n      dup2\n      mstore\n      0x04\n      add\n      tag_191\n      swap1\n      tag_330\n      jump\t// in\n    tag_328:\n        /* \"@openzeppelin/contracts-upgradeable/access/OwnableUpgradeable.sol\":2347:2375  _transferOwnership(newOwner) */\n      tag_331\n        /* \"@openzeppelin/contracts-upgradeable/access/OwnableUpgradeable.sol\":2366:2374  newOwner */\n      dup2\n        /* \"@openzeppelin/contracts-upgradeable/access/OwnableUpgradeable.sol\":2347:2365  _transferOwnership */\n      tag_241\n        /* \"@openzeppelin/contracts-upgradeable/access/OwnableUpgradeable.sol\":2347:2375  _transferOwnership(newOwner) */\n      jump\t// in\n    tag_331:\n        /* \"@openzeppelin/contracts-upgradeable/access/OwnableUpgradeable.sol\":2184:2382  function transferOwnership(address newOwner) public virtual onlyOwner {... */\n      pop\n      jump\t// out\n        /* \"contracts/helperLogic.sol\":1318:1350  IUniswapV2Router02 public Router */\n    tag_183:\n      and(sub(shl(0xa0, 0x01), 0x01), sload(0x6c))\n      dup2\n      jump\t// out\n        /* \"@openzeppelin/contracts-upgradeable/utils/ContextUpgradeable.sol\":876:972  function _msgSender() internal view virtual returns (address) {... */\n    tag_188:\n        /* \"@openzeppelin/contracts-upgradeable/utils/ContextUpgradeable.sol\":955:965  msg.sender */\n      caller\n        /* \"@openzeppelin/contracts-upgradeable/utils/ContextUpgradeable.sol\":876:972  function _msgSender() internal view virtual returns (address) {... */\n      swap1\n      jump\t// out\n        /* \"@openzeppelin/contracts-upgradeable/access/OwnableUpgradeable.sol\":988:1114  function __Ownable_init() internal initializer {... */\n    tag_214:\n        /* \"@openzeppelin/contracts-upgradeable/proxy/utils/Initializable.sol\":539:552  _initializing */\n      sload(0x00)\n      0x0100\n      swap1\n      div\n      0xff\n      and\n      dup1\n        /* \"@openzeppelin/contracts-upgradeable/proxy/utils/Initializable.sol\":539:569  _initializing || !_initialized */\n      tag_334\n      jumpi\n      pop\n        /* \"@openzeppelin/contracts-upgradeable/proxy/utils/Initializable.sol\":557:569  _initialized */\n      and(0xff, sload(0x00))\n        /* \"@openzeppelin/contracts-upgradeable/proxy/utils/Initializable.sol\":556:569  !_initialized */\n      iszero\n        /* \"@openzeppelin/contracts-upgradeable/proxy/utils/Initializable.sol\":539:569  _initializing || !_initialized */\n    tag_334:\n        /* \"@openzeppelin/contracts-upgradeable/proxy/utils/Initializable.sol\":531:620  require(_initializing || !_initialized, \"Initializable: contract is already initialized\") */\n      tag_335\n      jumpi\n      mload(0x40)\n      shl(0xe5, 0x461bcd)\n      dup2\n      mstore\n      0x04\n      add\n      tag_191\n      swap1\n      tag_210\n      jump\t// in\n    tag_335:\n        /* \"@openzeppelin/contracts-upgradeable/proxy/utils/Initializable.sol\":631:650  bool isTopLevelCall */\n      0x00\n        /* \"@openzeppelin/contracts-upgradeable/proxy/utils/Initializable.sol\":654:667  _initializing */\n      sload\n      0x0100\n      swap1\n      div\n      0xff\n      and\n        /* \"@openzeppelin/contracts-upgradeable/proxy/utils/Initializable.sol\":653:667  !_initializing */\n      iszero\n        /* \"@openzeppelin/contracts-upgradeable/proxy/utils/Initializable.sol\":677:775  if (isTopLevelCall) {... */\n      dup1\n      iszero\n      tag_337\n      jumpi\n        /* \"@openzeppelin/contracts-upgradeable/proxy/utils/Initializable.sol\":711:724  _initializing */\n      0x00\n        /* \"@openzeppelin/contracts-upgradeable/proxy/utils/Initializable.sol\":711:731  _initializing = true */\n      dup1\n      sload\n      not(0xff)\n      not(0xff00)\n      swap1\n      swap2\n      and\n      0x0100\n      or\n        /* \"@openzeppelin/contracts-upgradeable/proxy/utils/Initializable.sol\":745:764  _initialized = true */\n      and\n        /* \"@openzeppelin/contracts-upgradeable/proxy/utils/Initializable.sol\":727:731  true */\n      0x01\n        /* \"@openzeppelin/contracts-upgradeable/proxy/utils/Initializable.sol\":745:764  _initialized = true */\n      or\n      swap1\n      sstore\n        /* \"@openzeppelin/contracts-upgradeable/proxy/utils/Initializable.sol\":677:775  if (isTopLevelCall) {... */\n    tag_337:\n        /* \"@openzeppelin/contracts-upgradeable/access/OwnableUpgradeable.sol\":1045:1071  __Context_init_unchained() */\n      tag_339\n        /* \"@openzeppelin/contracts-upgradeable/access/OwnableUpgradeable.sol\":1045:1069  __Context_init_unchained */\n      tag_340\n        /* \"@openzeppelin/contracts-upgradeable/access/OwnableUpgradeable.sol\":1045:1071  __Context_init_unchained() */\n      jump\t// in\n    tag_339:\n        /* \"@openzeppelin/contracts-upgradeable/access/OwnableUpgradeable.sol\":1081:1107  __Ownable_init_unchained() */\n      tag_341\n        /* \"@openzeppelin/contracts-upgradeable/access/OwnableUpgradeable.sol\":1081:1105  __Ownable_init_unchained */\n      tag_342\n        /* \"@openzeppelin/contracts-upgradeable/access/OwnableUpgradeable.sol\":1081:1107  __Ownable_init_unchained() */\n      jump\t// in\n    tag_341:\n        /* \"@openzeppelin/contracts-upgradeable/proxy/utils/Initializable.sol\":801:815  isTopLevelCall */\n      dup1\n        /* \"@openzeppelin/contracts-upgradeable/proxy/utils/Initializable.sol\":797:863  if (isTopLevelCall) {... */\n      iszero\n      tag_331\n      jumpi\n        /* \"@openzeppelin/contracts-upgradeable/proxy/utils/Initializable.sol\":847:852  false */\n      0x00\n        /* \"@openzeppelin/contracts-upgradeable/proxy/utils/Initializable.sol\":831:852  _initializing = false */\n      dup1\n      sload\n      not(0xff00)\n      and\n      swap1\n      sstore\n        /* \"@openzeppelin/contracts-upgradeable/access/OwnableUpgradeable.sol\":988:1114  function __Ownable_init() internal initializer {... */\n      pop\n      jump\t// out\n        /* \"@openzeppelin/contracts-upgradeable/access/OwnableUpgradeable.sol\":2536:2723  function _transferOwnership(address newOwner) internal virtual {... */\n    tag_241:\n        /* \"@openzeppelin/contracts-upgradeable/access/OwnableUpgradeable.sol\":2628:2634  _owner */\n      0x33\n      dup1\n      sload\n      sub(shl(0xa0, 0x01), 0x01)\n        /* \"@openzeppelin/contracts-upgradeable/access/OwnableUpgradeable.sol\":2644:2661  _owner = newOwner */\n      dup4\n      dup2\n      and\n      not(sub(shl(0xa0, 0x01), 0x01))\n      dup4\n      and\n      dup2\n      or\n      swap1\n      swap4\n      sstore\n        /* \"@openzeppelin/contracts-upgradeable/access/OwnableUpgradeable.sol\":2676:2716  OwnershipTransferred(oldOwner, newOwner) */\n      mload(0x40)\n        /* \"@openzeppelin/contracts-upgradeable/access/OwnableUpgradeable.sol\":2628:2634  _owner */\n      swap2\n      and\n      swap2\n        /* \"@openzeppelin/contracts-upgradeable/access/OwnableUpgradeable.sol\":2644:2661  _owner = newOwner */\n      swap1\n        /* \"@openzeppelin/contracts-upgradeable/access/OwnableUpgradeable.sol\":2628:2634  _owner */\n      dup3\n      swap1\n        /* \"@openzeppelin/contracts-upgradeable/access/OwnableUpgradeable.sol\":2676:2716  OwnershipTransferred(oldOwner, newOwner) */\n      0x8be0079c531659141344cd1fd0a4f28419497f9722a3daafe3b4186f6b6457e0\n      swap1\n        /* \"@openzeppelin/contracts-upgradeable/access/OwnableUpgradeable.sol\":2609:2625  address oldOwner */\n      0x00\n      swap1\n        /* \"@openzeppelin/contracts-upgradeable/access/OwnableUpgradeable.sol\":2676:2716  OwnershipTransferred(oldOwner, newOwner) */\n      log3\n        /* \"@openzeppelin/contracts-upgradeable/access/OwnableUpgradeable.sol\":2536:2723  function _transferOwnership(address newOwner) internal virtual {... */\n      pop\n      pop\n      jump\t// out\n        /* \"@openzeppelin/contracts-upgradeable/token/ERC20/utils/SafeERC20Upgradeable.sol\":745:961  function safeTransfer(... */\n    tag_250:\n        /* \"@openzeppelin/contracts-upgradeable/token/ERC20/utils/SafeERC20Upgradeable.sol\":868:954  _callOptionalReturn(token, abi.encodeWithSelector(token.transfer.selector, to, value)) */\n      tag_346\n        /* \"@openzeppelin/contracts-upgradeable/token/ERC20/utils/SafeERC20Upgradeable.sol\":888:893  token */\n      dup4\n        /* \"@openzeppelin/contracts-upgradeable/token/ERC20/utils/SafeERC20Upgradeable.sol\":918:941  token.transfer.selector */\n      shl(0xe0, 0xa9059cbb)\n        /* \"@openzeppelin/contracts-upgradeable/token/ERC20/utils/SafeERC20Upgradeable.sol\":943:945  to */\n      dup5\n        /* \"@openzeppelin/contracts-upgradeable/token/ERC20/utils/SafeERC20Upgradeable.sol\":947:952  value */\n      dup5\n        /* \"@openzeppelin/contracts-upgradeable/token/ERC20/utils/SafeERC20Upgradeable.sol\":895:953  abi.encodeWithSelector(token.transfer.selector, to, value) */\n      add(0x24, mload(0x40))\n      tag_347\n      swap3\n      swap2\n      swap1\n      tag_348\n      jump\t// in\n    tag_347:\n      0x40\n      dup1\n      mload\n      not(0x1f)\n      dup2\n      dup5\n      sub\n      add\n      dup2\n      mstore\n      swap2\n      swap1\n      mstore\n      0x20\n      dup2\n      add\n      dup1\n      mload\n      sub(shl(0xe0, 0x01), 0x01)\n      and\n      not(sub(shl(0xe0, 0x01), 0x01))\n      swap1\n      swap4\n      and\n      swap3\n      swap1\n      swap3\n      or\n      swap1\n      swap2\n      mstore\n        /* \"@openzeppelin/contracts-upgradeable/token/ERC20/utils/SafeERC20Upgradeable.sol\":868:887  _callOptionalReturn */\n      tag_349\n        /* \"@openzeppelin/contracts-upgradeable/token/ERC20/utils/SafeERC20Upgradeable.sol\":868:954  _callOptionalReturn(token, abi.encodeWithSelector(token.transfer.selector, to, value)) */\n      jump\t// in\n    tag_346:\n        /* \"@openzeppelin/contracts-upgradeable/token/ERC20/utils/SafeERC20Upgradeable.sol\":745:961  function safeTransfer(... */\n      pop\n      pop\n      pop\n      jump\t// out\n        /* \"@openzeppelin/contracts-upgradeable/utils/math/SafeMathUpgradeable.sol\":3462:3558  function mul(uint256 a, uint256 b) internal pure returns (uint256) {... */\n    tag_283:\n        /* \"@openzeppelin/contracts-upgradeable/utils/math/SafeMathUpgradeable.sol\":3520:3527  uint256 */\n      0x00\n        /* \"@openzeppelin/contracts-upgradeable/utils/math/SafeMathUpgradeable.sol\":3546:3551  a * b */\n      tag_351\n        /* \"@openzeppelin/contracts-upgradeable/utils/math/SafeMathUpgradeable.sol\":3550:3551  b */\n      dup3\n        /* \"@openzeppelin/contracts-upgradeable/utils/math/SafeMathUpgradeable.sol\":3546:3547  a */\n      dup5\n        /* \"@openzeppelin/contracts-upgradeable/utils/math/SafeMathUpgradeable.sol\":3546:3551  a * b */\n      tag_352\n      jump\t// in\n    tag_351:\n        /* \"@openzeppelin/contracts-upgradeable/utils/math/SafeMathUpgradeable.sol\":3539:3551  return a * b */\n      swap4\n        /* \"@openzeppelin/contracts-upgradeable/utils/math/SafeMathUpgradeable.sol\":3462:3558  function mul(uint256 a, uint256 b) internal pure returns (uint256) {... */\n      swap3\n      pop\n      pop\n      pop\n      jump\t// out\n        /* \"@openzeppelin/contracts-upgradeable/utils/math/SafeMathUpgradeable.sol\":3847:3943  function div(uint256 a, uint256 b) internal pure returns (uint256) {... */\n    tag_284:\n        /* \"@openzeppelin/contracts-upgradeable/utils/math/SafeMathUpgradeable.sol\":3905:3912  uint256 */\n      0x00\n        /* \"@openzeppelin/contracts-upgradeable/utils/math/SafeMathUpgradeable.sol\":3931:3936  a / b */\n      tag_351\n        /* \"@openzeppelin/contracts-upgradeable/utils/math/SafeMathUpgradeable.sol\":3935:3936  b */\n      dup3\n        /* \"@openzeppelin/contracts-upgradeable/utils/math/SafeMathUpgradeable.sol\":3931:3932  a */\n      dup5\n        /* \"@openzeppelin/contracts-upgradeable/utils/math/SafeMathUpgradeable.sol\":3931:3936  a / b */\n      tag_355\n      jump\t// in\n        /* \"@openzeppelin/contracts-upgradeable/utils/math/SafeMathUpgradeable.sol\":3119:3215  function sub(uint256 a, uint256 b) internal pure returns (uint256) {... */\n    tag_289:\n        /* \"@openzeppelin/contracts-upgradeable/utils/math/SafeMathUpgradeable.sol\":3177:3184  uint256 */\n      0x00\n        /* \"@openzeppelin/contracts-upgradeable/utils/math/SafeMathUpgradeable.sol\":3203:3208  a - b */\n      tag_351\n        /* \"@openzeppelin/contracts-upgradeable/utils/math/SafeMathUpgradeable.sol\":3207:3208  b */\n      dup3\n        /* \"@openzeppelin/contracts-upgradeable/utils/math/SafeMathUpgradeable.sol\":3203:3204  a */\n      dup5\n        /* \"@openzeppelin/contracts-upgradeable/utils/math/SafeMathUpgradeable.sol\":3203:3208  a - b */\n      tag_358\n      jump\t// in\n        /* \"contracts/helperLogic.sol\":3298:4240  function buySea(uint256 uscAmt) internal returns (uint256) {... */\n    tag_291:\n        /* \"contracts/helperLogic.sol\":3395:3402  Factory */\n      sload(0x6d)\n        /* \"contracts/helperLogic.sol\":3419:3422  sea */\n      sload(0x68)\n        /* \"contracts/helperLogic.sol\":3433:3436  usc */\n      sload(0x66)\n        /* \"contracts/helperLogic.sol\":3395:3438  Factory.getPair(address(sea), address(usc)) */\n      mload(0x40)\n      shl(0xe0, 0xe6a43905)\n      dup2\n      mstore\n        /* \"contracts/helperLogic.sol\":3348:3355  uint256 */\n      0x00\n      swap4\n      dup5\n      swap4\n      sub(shl(0xa0, 0x01), 0x01)\n        /* \"contracts/helperLogic.sol\":3395:3402  Factory */\n      swap2\n      dup3\n      and\n      swap4\n        /* \"contracts/helperLogic.sol\":3395:3410  Factory.getPair */\n      0xe6a43905\n      swap4\n        /* \"contracts/helperLogic.sol\":3395:3438  Factory.getPair(address(sea), address(usc)) */\n      tag_360\n      swap4\n        /* \"contracts/helperLogic.sol\":3419:3422  sea */\n      swap3\n      dup4\n      and\n      swap3\n        /* \"contracts/helperLogic.sol\":3433:3436  usc */\n      swap1\n      swap2\n      and\n      swap1\n        /* \"contracts/helperLogic.sol\":3395:3438  Factory.getPair(address(sea), address(usc)) */\n      0x04\n      add\n      tag_361\n      jump\t// in\n    tag_360:\n      0x20\n      mload(0x40)\n      dup1\n      dup4\n      sub\n      dup2\n      dup7\n      dup1\n      extcodesize\n      iszero\n      dup1\n      iszero\n      tag_362\n      jumpi\n      0x00\n      dup1\n      revert\n    tag_362:\n      pop\n      gas\n      staticcall\n      iszero\n      dup1\n      iszero\n      tag_364\n      jumpi\n      returndatasize\n      0x00\n      dup1\n      returndatacopy\n      revert(0x00, returndatasize)\n    tag_364:\n      pop\n      pop\n      pop\n      pop\n      mload(0x40)\n      returndatasize\n      not(0x1f)\n      0x1f\n      dup3\n      add\n      and\n      dup3\n      add\n      dup1\n      0x40\n      mstore\n      pop\n      dup2\n      add\n      swap1\n      tag_365\n      swap2\n      swap1\n      tag_366\n      jump\t// in\n    tag_365:\n        /* \"contracts/helperLogic.sol\":3448:3451  usc */\n      sload(0x66)\n        /* \"contracts/helperLogic.sol\":3367:3438  address sea_usc_lpAddress = Factory.getPair(address(sea), address(usc)) */\n      swap1\n      swap2\n      pop\n        /* \"contracts/helperLogic.sol\":3448:3491  usc.safeTransfer(sea_usc_lpAddress, uscAmt) */\n      tag_367\n      swap1\n      sub(shl(0xa0, 0x01), 0x01)\n        /* \"contracts/helperLogic.sol\":3448:3451  usc */\n      and\n        /* \"contracts/helperLogic.sol\":3367:3438  address sea_usc_lpAddress = Factory.getPair(address(sea), address(usc)) */\n      dup3\n        /* \"contracts/helperLogic.sol\":3484:3490  uscAmt */\n      dup6\n        /* \"contracts/helperLogic.sol\":3448:3464  usc.safeTransfer */\n      tag_250\n        /* \"contracts/helperLogic.sol\":3448:3491  usc.safeTransfer(sea_usc_lpAddress, uscAmt) */\n      jump\t// in\n    tag_367:\n        /* \"contracts/helperLogic.sol\":3502:3518  uint256 reserve0 */\n      0x00\n        /* \"contracts/helperLogic.sol\":3520:3536  uint256 reserve1 */\n      dup1\n        /* \"contracts/helperLogic.sol\":3570:3587  sea_usc_lpAddress */\n      dup3\n      sub(shl(0xa0, 0x01), 0x01)\n        /* \"contracts/helperLogic.sol\":3542:3609  IUniswapV2Pair(... */\n      and\n      0x0902f1ac\n        /* \"contracts/helperLogic.sol\":3542:3611  IUniswapV2Pair(... */\n      mload(0x40)\n      dup2\n      0xffffffff\n      and\n      0xe0\n      shl\n      dup2\n      mstore\n      0x04\n      add\n      0x60\n      mload(0x40)\n      dup1\n      dup4\n      sub\n      dup2\n      dup7\n      dup1\n      extcodesize\n      iszero\n      dup1\n      iszero\n      tag_368\n      jumpi\n      0x00\n      dup1\n      revert\n    tag_368:\n      pop\n      gas\n      staticcall\n      iszero\n      dup1\n      iszero\n      tag_370\n      jumpi\n      returndatasize\n      0x00\n      dup1\n      returndatacopy\n      revert(0x00, returndatasize)\n    tag_370:\n      pop\n      pop\n      pop\n      pop\n      mload(0x40)\n      returndatasize\n      not(0x1f)\n      0x1f\n      dup3\n      add\n      and\n      dup3\n      add\n      dup1\n      0x40\n      mstore\n      pop\n      dup2\n      add\n      swap1\n      tag_371\n      swap2\n      swap1\n      tag_372\n      jump\t// in\n    tag_371:\n        /* \"contracts/helperLogic.sol\":3501:3611  (uint256 reserve0, uint256 reserve1, ) = IUniswapV2Pair(... */\n      pop\n      sub(shl(0x70, 0x01), 0x01)\n      and\n      swap2\n      pop\n      sub(shl(0x70, 0x01), 0x01)\n      and\n      swap2\n      pop\n        /* \"contracts/helperLogic.sol\":3621:3635  address token0 */\n      0x00\n        /* \"contracts/helperLogic.sol\":3653:3670  sea_usc_lpAddress */\n      dup4\n      sub(shl(0xa0, 0x01), 0x01)\n        /* \"contracts/helperLogic.sol\":3638:3678  IUniswapV2Pair(sea_usc_lpAddress).token0 */\n      and\n      0x0dfe1681\n        /* \"contracts/helperLogic.sol\":3638:3680  IUniswapV2Pair(sea_usc_lpAddress).token0() */\n      mload(0x40)\n      dup2\n      0xffffffff\n      and\n      0xe0\n      shl\n      dup2\n      mstore\n      0x04\n      add\n      0x20\n      mload(0x40)\n      dup1\n      dup4\n      sub\n      dup2\n      dup7\n      dup1\n      extcodesize\n      iszero\n      dup1\n      iszero\n      tag_373\n      jumpi\n      0x00\n      dup1\n      revert\n    tag_373:\n      pop\n      gas\n      staticcall\n      iszero\n      dup1\n      iszero\n      tag_375\n      jumpi\n      returndatasize\n      0x00\n      dup1\n      returndatacopy\n      revert(0x00, returndatasize)\n    tag_375:\n      pop\n      pop\n      pop\n      pop\n      mload(0x40)\n      returndatasize\n      not(0x1f)\n      0x1f\n      dup3\n      add\n      and\n      dup3\n      add\n      dup1\n      0x40\n      mstore\n      pop\n      dup2\n      add\n      swap1\n      tag_376\n      swap2\n      swap1\n      tag_366\n      jump\t// in\n    tag_376:\n        /* \"contracts/helperLogic.sol\":3750:3753  usc */\n      sload(0x66)\n        /* \"contracts/helperLogic.sol\":3621:3680  address token0 = IUniswapV2Pair(sea_usc_lpAddress).token0() */\n      swap1\n      swap2\n      pop\n        /* \"contracts/helperLogic.sol\":3691:3708  uint256 reserveIn */\n      0x00\n      swap1\n      dup2\n      swap1\n      sub(shl(0xa0, 0x01), 0x01)\n        /* \"contracts/helperLogic.sol\":3732:3754  token0 == address(usc) */\n      dup1\n      dup6\n      and\n        /* \"contracts/helperLogic.sol\":3750:3753  usc */\n      swap2\n      and\n        /* \"contracts/helperLogic.sol\":3732:3754  token0 == address(usc) */\n      eq\n        /* \"contracts/helperLogic.sol\":3732:3824  token0 == address(usc)... */\n      tag_377\n      jumpi\n        /* \"contracts/helperLogic.sol\":3805:3813  reserve1 */\n      dup4\n        /* \"contracts/helperLogic.sol\":3815:3823  reserve0 */\n      dup6\n        /* \"contracts/helperLogic.sol\":3732:3824  token0 == address(usc)... */\n      jump(tag_378)\n    tag_377:\n        /* \"contracts/helperLogic.sol\":3770:3778  reserve0 */\n      dup5\n        /* \"contracts/helperLogic.sol\":3780:3788  reserve1 */\n      dup5\n        /* \"contracts/helperLogic.sol\":3732:3824  token0 == address(usc)... */\n    tag_378:\n        /* \"contracts/helperLogic.sol\":3690:3824  (uint256 reserveIn, uint256 reserveOut) = token0 == address(usc)... */\n      swap2\n      pop\n      swap2\n      pop\n        /* \"contracts/helperLogic.sol\":3834:3851  uint256 amountOut */\n      0x00\n        /* \"contracts/helperLogic.sol\":3854:3897  getAmountOut(uscAmt, reserveIn, reserveOut) */\n      tag_379\n        /* \"contracts/helperLogic.sol\":3867:3873  uscAmt */\n      dup10\n        /* \"contracts/helperLogic.sol\":3875:3884  reserveIn */\n      dup5\n        /* \"contracts/helperLogic.sol\":3886:3896  reserveOut */\n      dup5\n        /* \"contracts/helperLogic.sol\":3854:3866  getAmountOut */\n      tag_380\n        /* \"contracts/helperLogic.sol\":3854:3897  getAmountOut(uscAmt, reserveIn, reserveOut) */\n      jump\t// in\n    tag_379:\n        /* \"contracts/helperLogic.sol\":3968:3971  usc */\n      sload(0x66)\n        /* \"contracts/helperLogic.sol\":3834:3897  uint256 amountOut = getAmountOut(uscAmt, reserveIn, reserveOut) */\n      swap1\n      swap2\n      pop\n        /* \"contracts/helperLogic.sol\":3908:3926  uint256 amount0Out */\n      0x00\n      swap1\n      dup2\n      swap1\n      sub(shl(0xa0, 0x01), 0x01)\n        /* \"contracts/helperLogic.sol\":3950:3972  token0 == address(usc) */\n      dup8\n      dup2\n      and\n        /* \"contracts/helperLogic.sol\":3968:3971  usc */\n      swap2\n      and\n        /* \"contracts/helperLogic.sol\":3950:3972  token0 == address(usc) */\n      eq\n        /* \"contracts/helperLogic.sol\":3950:4048  token0 == address(usc)... */\n      tag_381\n      jumpi\n        /* \"contracts/helperLogic.sol\":4026:4035  amountOut */\n      dup3\n        /* \"contracts/helperLogic.sol\":4045:4046  0 */\n      0x00\n        /* \"contracts/helperLogic.sol\":3950:4048  token0 == address(usc)... */\n      jump(tag_382)\n    tag_381:\n        /* \"contracts/helperLogic.sol\":3996:3997  0 */\n      0x00\n        /* \"contracts/helperLogic.sol\":4000:4009  amountOut */\n      dup4\n        /* \"contracts/helperLogic.sol\":3950:4048  token0 == address(usc)... */\n    tag_382:\n        /* \"contracts/helperLogic.sol\":4185:4197  new bytes(0) */\n      0x40\n      dup1\n      mload\n        /* \"contracts/helperLogic.sol\":4195:4196  0 */\n      0x00\n        /* \"contracts/helperLogic.sol\":4185:4197  new bytes(0) */\n      dup2\n      mstore\n      0x20\n      dup2\n      add\n      swap2\n      dup3\n      swap1\n      mstore\n      shl(0xe0, 0x022c0d9f)\n        /* \"contracts/helperLogic.sol\":4058:4207  IUniswapV2Pair(sea_usc_lpAddress).swap(... */\n      swap1\n      swap2\n      mstore\n        /* \"contracts/helperLogic.sol\":3907:4048  (uint256 amount0Out, uint256 amount1Out) = token0 == address(usc)... */\n      swap2\n      swap4\n      pop\n      swap2\n      pop\n      sub(shl(0xa0, 0x01), 0x01)\n        /* \"contracts/helperLogic.sol\":4058:4096  IUniswapV2Pair(sea_usc_lpAddress).swap */\n      dup11\n      and\n      swap1\n      0x022c0d9f\n      swap1\n        /* \"contracts/helperLogic.sol\":4058:4207  IUniswapV2Pair(sea_usc_lpAddress).swap(... */\n      tag_385\n      swap1\n        /* \"contracts/helperLogic.sol\":3907:4048  (uint256 amount0Out, uint256 amount1Out) = token0 == address(usc)... */\n      dup6\n      swap1\n      dup6\n      swap1\n        /* \"contracts/helperLogic.sol\":4166:4170  this */\n      address\n      swap1\n        /* \"contracts/helperLogic.sol\":4058:4207  IUniswapV2Pair(sea_usc_lpAddress).swap(... */\n      0x24\n      dup2\n      add\n      tag_386\n      jump\t// in\n    tag_385:\n      0x00\n      mload(0x40)\n      dup1\n      dup4\n      sub\n      dup2\n      0x00\n      dup8\n      dup1\n      extcodesize\n      iszero\n      dup1\n      iszero\n      tag_387\n      jumpi\n      0x00\n      dup1\n      revert\n    tag_387:\n      pop\n      gas\n      call\n      iszero\n      dup1\n      iszero\n      tag_389\n      jumpi\n      returndatasize\n      0x00\n      dup1\n      returndatacopy\n      revert(0x00, returndatasize)\n    tag_389:\n      pop\n        /* \"contracts/helperLogic.sol\":4224:4233  amountOut */\n      swap5\n      swap14\n        /* \"contracts/helperLogic.sol\":3298:4240  function buySea(uint256 uscAmt) internal returns (uint256) {... */\n      swap13\n      pop\n      pop\n      pop\n      pop\n      pop\n      pop\n      pop\n      pop\n      pop\n      pop\n      pop\n      pop\n      pop\n      jump\t// out\n        /* \"contracts/helperLogic.sol\":5018:6136  function adjustFarm() internal {... */\n    tag_297:\n        /* \"contracts/helperLogic.sol\":5081:5088  Factory */\n      sload(0x6d)\n        /* \"contracts/helperLogic.sol\":5105:5109  usdc */\n      sload(0x67)\n        /* \"contracts/helperLogic.sol\":5120:5123  usc */\n      sload(0x66)\n        /* \"contracts/helperLogic.sol\":5081:5125  Factory.getPair(address(usdc), address(usc)) */\n      mload(0x40)\n      shl(0xe0, 0xe6a43905)\n      dup2\n      mstore\n        /* \"contracts/helperLogic.sol\":5059:5078  address pairAddress */\n      0x00\n      swap4\n      sub(shl(0xa0, 0x01), 0x01)\n        /* \"contracts/helperLogic.sol\":5081:5088  Factory */\n      swap1\n      dup2\n      and\n      swap4\n        /* \"contracts/helperLogic.sol\":5081:5096  Factory.getPair */\n      0xe6a43905\n      swap4\n        /* \"contracts/helperLogic.sol\":5081:5125  Factory.getPair(address(usdc), address(usc)) */\n      tag_391\n      swap4\n        /* \"contracts/helperLogic.sol\":5105:5109  usdc */\n      swap2\n      dup4\n      and\n      swap3\n        /* \"contracts/helperLogic.sol\":5120:5123  usc */\n      and\n      swap1\n        /* \"contracts/helperLogic.sol\":5081:5125  Factory.getPair(address(usdc), address(usc)) */\n      0x04\n      add\n      tag_361\n      jump\t// in\n    tag_391:\n      0x20\n      mload(0x40)\n      dup1\n      dup4\n      sub\n      dup2\n      dup7\n      dup1\n      extcodesize\n      iszero\n      dup1\n      iszero\n      tag_392\n      jumpi\n      0x00\n      dup1\n      revert\n    tag_392:\n      pop\n      gas\n      staticcall\n      iszero\n      dup1\n      iszero\n      tag_394\n      jumpi\n      returndatasize\n      0x00\n      dup1\n      returndatacopy\n      revert(0x00, returndatasize)\n    tag_394:\n      pop\n      pop\n      pop\n      pop\n      mload(0x40)\n      returndatasize\n      not(0x1f)\n      0x1f\n      dup3\n      add\n      and\n      dup3\n      add\n      dup1\n      0x40\n      mstore\n      pop\n      dup2\n      add\n      swap1\n      tag_395\n      swap2\n      swap1\n      tag_366\n      jump\t// in\n    tag_395:\n        /* \"contracts/helperLogic.sol\":5158:5161  usc */\n      sload(0x66)\n        /* \"contracts/helperLogic.sol\":5158:5184  usc.balanceOf(pairAddress) */\n      mload(0x40)\n      shl(0xe0, 0x70a08231)\n      dup2\n      mstore\n        /* \"contracts/helperLogic.sol\":5059:5125  address pairAddress = Factory.getPair(address(usdc), address(usc)) */\n      swap2\n      swap3\n      pop\n        /* \"contracts/helperLogic.sol\":5135:5155  uint256 uscBalanceOf */\n      0x00\n      swap2\n      sub(shl(0xa0, 0x01), 0x01)\n        /* \"contracts/helperLogic.sol\":5158:5161  usc */\n      swap1\n      swap2\n      and\n      swap1\n        /* \"contracts/helperLogic.sol\":5158:5171  usc.balanceOf */\n      0x70a08231\n      swap1\n        /* \"contracts/helperLogic.sol\":5158:5184  usc.balanceOf(pairAddress) */\n      tag_396\n      swap1\n        /* \"contracts/helperLogic.sol\":5059:5125  address pairAddress = Factory.getPair(address(usdc), address(usc)) */\n      dup6\n      swap1\n        /* \"contracts/helperLogic.sol\":5158:5184  usc.balanceOf(pairAddress) */\n      0x04\n      add\n      tag_116\n      jump\t// in\n    tag_396:\n      0x20\n      mload(0x40)\n      dup1\n      dup4\n      sub\n      dup2\n      dup7\n      dup1\n      extcodesize\n      iszero\n      dup1\n      iszero\n      tag_397\n      jumpi\n      0x00\n      dup1\n      revert\n    tag_397:\n      pop\n      gas\n      staticcall\n      iszero\n      dup1\n      iszero\n      tag_399\n      jumpi\n      returndatasize\n      0x00\n      dup1\n      returndatacopy\n      revert(0x00, returndatasize)\n    tag_399:\n      pop\n      pop\n      pop\n      pop\n      mload(0x40)\n      returndatasize\n      not(0x1f)\n      0x1f\n      dup3\n      add\n      and\n      dup3\n      add\n      dup1\n      0x40\n      mstore\n      pop\n      dup2\n      add\n      swap1\n      tag_400\n      swap2\n      swap1\n      tag_279\n      jump\t// in\n    tag_400:\n        /* \"contracts/helperLogic.sol\":5218:5222  usdc */\n      sload(0x67)\n        /* \"contracts/helperLogic.sol\":5218:5245  usdc.balanceOf(pairAddress) */\n      mload(0x40)\n      shl(0xe0, 0x70a08231)\n      dup2\n      mstore\n        /* \"contracts/helperLogic.sol\":5135:5184  uint256 uscBalanceOf = usc.balanceOf(pairAddress) */\n      swap2\n      swap3\n      pop\n        /* \"contracts/helperLogic.sol\":5194:5215  uint256 usdcBalanceOf */\n      0x00\n      swap2\n      sub(shl(0xa0, 0x01), 0x01)\n        /* \"contracts/helperLogic.sol\":5218:5222  usdc */\n      swap1\n      swap2\n      and\n      swap1\n        /* \"contracts/helperLogic.sol\":5218:5232  usdc.balanceOf */\n      0x70a08231\n      swap1\n        /* \"contracts/helperLogic.sol\":5218:5245  usdc.balanceOf(pairAddress) */\n      tag_401\n      swap1\n        /* \"contracts/helperLogic.sol\":5233:5244  pairAddress */\n      dup7\n      swap1\n        /* \"contracts/helperLogic.sol\":5218:5245  usdc.balanceOf(pairAddress) */\n      0x04\n      add\n      tag_116\n      jump\t// in\n    tag_401:\n      0x20\n      mload(0x40)\n      dup1\n      dup4\n      sub\n      dup2\n      dup7\n      dup1\n      extcodesize\n      iszero\n      dup1\n      iszero\n      tag_402\n      jumpi\n      0x00\n      dup1\n      revert\n    tag_402:\n      pop\n      gas\n      staticcall\n      iszero\n      dup1\n      iszero\n      tag_404\n      jumpi\n      returndatasize\n      0x00\n      dup1\n      returndatacopy\n      revert(0x00, returndatasize)\n    tag_404:\n      pop\n      pop\n      pop\n      pop\n      mload(0x40)\n      returndatasize\n      not(0x1f)\n      0x1f\n      dup3\n      add\n      and\n      dup3\n      add\n      dup1\n      0x40\n      mstore\n      pop\n      dup2\n      add\n      swap1\n      tag_405\n      swap2\n      swap1\n      tag_279\n      jump\t// in\n    tag_405:\n        /* \"contracts/helperLogic.sol\":5194:5245  uint256 usdcBalanceOf = usdc.balanceOf(pairAddress) */\n      swap1\n      pop\n        /* \"contracts/helperLogic.sol\":5255:5275  uint256 usdcDecimals */\n      0x00\n        /* \"contracts/helperLogic.sol\":5301:5305  usdc */\n      0x67\n      0x00\n      swap1\n      sload\n      swap1\n      0x0100\n      exp\n      swap1\n      div\n      sub(shl(0xa0, 0x01), 0x01)\n      and\n      sub(shl(0xa0, 0x01), 0x01)\n        /* \"contracts/helperLogic.sol\":5278:5316  IUniswapV2Pair(address(usdc)).decimals */\n      and\n      0x313ce567\n        /* \"contracts/helperLogic.sol\":5278:5318  IUniswapV2Pair(address(usdc)).decimals() */\n      mload(0x40)\n      dup2\n      0xffffffff\n      and\n      0xe0\n      shl\n      dup2\n      mstore\n      0x04\n      add\n      0x20\n      mload(0x40)\n      dup1\n      dup4\n      sub\n      dup2\n      dup7\n      dup1\n      extcodesize\n      iszero\n      dup1\n      iszero\n      tag_406\n      jumpi\n      0x00\n      dup1\n      revert\n    tag_406:\n      pop\n      gas\n      staticcall\n      iszero\n      dup1\n      iszero\n      tag_408\n      jumpi\n      returndatasize\n      0x00\n      dup1\n      returndatacopy\n      revert(0x00, returndatasize)\n    tag_408:\n      pop\n      pop\n      pop\n      pop\n      mload(0x40)\n      returndatasize\n      not(0x1f)\n      0x1f\n      dup3\n      add\n      and\n      dup3\n      add\n      dup1\n      0x40\n      mstore\n      pop\n      dup2\n      add\n      swap1\n      tag_409\n      swap2\n      swap1\n      tag_410\n      jump\t// in\n    tag_409:\n        /* \"contracts/helperLogic.sol\":5255:5318  uint256 usdcDecimals = IUniswapV2Pair(address(usdc)).decimals() */\n      0xff\n      and\n      swap1\n      pop\n        /* \"contracts/helperLogic.sol\":5328:5347  uint256 addDecimals */\n      0x00\n        /* \"contracts/helperLogic.sol\":5380:5382  18 */\n      0x12\n        /* \"contracts/helperLogic.sol\":5365:5377  usdcDecimals */\n      dup3\n        /* \"contracts/helperLogic.sol\":5365:5382  usdcDecimals < 18 */\n      lt\n        /* \"contracts/helperLogic.sol\":5361:5440  if (usdcDecimals < 18) {... */\n      iszero\n      tag_411\n      jumpi\n        /* \"contracts/helperLogic.sol\":5412:5429  18 - usdcDecimals */\n      tag_412\n        /* \"contracts/helperLogic.sol\":5417:5429  usdcDecimals */\n      dup3\n        /* \"contracts/helperLogic.sol\":5412:5414  18 */\n      0x12\n        /* \"contracts/helperLogic.sol\":5412:5429  18 - usdcDecimals */\n      tag_358\n      jump\t// in\n    tag_412:\n        /* \"contracts/helperLogic.sol\":5398:5429  addDecimals = 18 - usdcDecimals */\n      swap1\n      pop\n        /* \"contracts/helperLogic.sol\":5361:5440  if (usdcDecimals < 18) {... */\n    tag_411:\n        /* \"contracts/helperLogic.sol\":5449:5458  uint256 r */\n      0x00\n        /* \"contracts/helperLogic.sol\":5469:5484  10**addDecimals */\n      tag_413\n        /* \"contracts/helperLogic.sol\":5473:5484  addDecimals */\n      dup3\n        /* \"contracts/helperLogic.sol\":5469:5471  10 */\n      0x0a\n        /* \"contracts/helperLogic.sol\":5469:5484  10**addDecimals */\n      tag_414\n      jump\t// in\n    tag_413:\n        /* \"contracts/helperLogic.sol\":5461:5485  1e18 * (10**addDecimals) */\n      tag_415\n      swap1\n        /* \"contracts/helperLogic.sol\":5461:5465  1e18 */\n      0x0de0b6b3a7640000\n        /* \"contracts/helperLogic.sol\":5461:5485  1e18 * (10**addDecimals) */\n      tag_352\n      jump\t// in\n    tag_415:\n        /* \"contracts/helperLogic.sol\":5449:5485  uint256 r = 1e18 * (10**addDecimals) */\n      swap1\n      pop\n        /* \"contracts/helperLogic.sol\":5495:5511  uint256 uscPrice */\n      0x00\n        /* \"contracts/helperLogic.sol\":5514:5552  usdcBalanceOf.mul(r).div(uscBalanceOf) */\n      tag_416\n        /* \"contracts/helperLogic.sol\":5539:5551  uscBalanceOf */\n      dup7\n        /* \"contracts/helperLogic.sol\":5514:5534  usdcBalanceOf.mul(r) */\n      tag_282\n        /* \"contracts/helperLogic.sol\":5514:5527  usdcBalanceOf */\n      dup8\n        /* \"contracts/helperLogic.sol\":5449:5485  uint256 r = 1e18 * (10**addDecimals) */\n      dup6\n        /* \"contracts/helperLogic.sol\":5514:5531  usdcBalanceOf.mul */\n      tag_283\n        /* \"contracts/helperLogic.sol\":5514:5534  usdcBalanceOf.mul(r) */\n      jump\t// in\n        /* \"contracts/helperLogic.sol\":5514:5552  usdcBalanceOf.mul(r).div(uscBalanceOf) */\n    tag_416:\n        /* \"contracts/helperLogic.sol\":5495:5552  uint256 uscPrice = usdcBalanceOf.mul(r).div(uscBalanceOf) */\n      swap1\n      pop\n        /* \"contracts/helperLogic.sol\":5562:5591  uint256 USDC_USC_LP_farmPoint */\n      0x00\n        /* \"contracts/helperLogic.sol\":5601:5618  uint256 diffPoint */\n      dup1\n        /* \"contracts/helperLogic.sol\":5643:5647  1e18 */\n      0x0de0b6b3a7640000\n        /* \"contracts/helperLogic.sol\":5632:5640  uscPrice */\n      dup4\n        /* \"contracts/helperLogic.sol\":5632:5647  uscPrice > 1e18 */\n      gt\n        /* \"contracts/helperLogic.sol\":5628:6074  if (uscPrice > 1e18) {... */\n      iszero\n      tag_418\n      jumpi\n        /* \"contracts/helperLogic.sol\":5696:5726  (uscPrice.sub(1e18)).div(1e14) */\n      tag_419\n        /* \"contracts/helperLogic.sol\":5721:5725  1e14 */\n      0x5af3107a4000\n        /* \"contracts/helperLogic.sol\":5697:5715  uscPrice.sub(1e18) */\n      tag_282\n        /* \"contracts/helperLogic.sol\":5697:5705  uscPrice */\n      dup6\n        /* \"contracts/helperLogic.sol\":5710:5714  1e18 */\n      0x0de0b6b3a7640000\n        /* \"contracts/helperLogic.sol\":5697:5709  uscPrice.sub */\n      tag_289\n        /* \"contracts/helperLogic.sol\":5697:5715  uscPrice.sub(1e18) */\n      jump\t// in\n        /* \"contracts/helperLogic.sol\":5696:5726  (uscPrice.sub(1e18)).div(1e14) */\n    tag_419:\n        /* \"contracts/helperLogic.sol\":5684:5726  diffPoint = (uscPrice.sub(1e18)).div(1e14) */\n      swap1\n      pop\n        /* \"contracts/helperLogic.sol\":5756:5765  basePoint */\n      sload(0x72)\n        /* \"contracts/helperLogic.sol\":5744:5753  diffPoint */\n      dup2\n        /* \"contracts/helperLogic.sol\":5744:5765  diffPoint > basePoint */\n      gt\n        /* \"contracts/helperLogic.sol\":5740:5912  if (diffPoint > basePoint) {... */\n      iszero\n      tag_421\n      jumpi\n        /* \"contracts/helperLogic.sol\":5809:5810  0 */\n      0x00\n        /* \"contracts/helperLogic.sol\":5785:5810  USDC_USC_LP_farmPoint = 0 */\n      swap2\n      pop\n        /* \"contracts/helperLogic.sol\":5740:5912  if (diffPoint > basePoint) {... */\n      jump(tag_422)\n    tag_421:\n        /* \"contracts/helperLogic.sol\":5873:5882  basePoint */\n      sload(0x72)\n        /* \"contracts/helperLogic.sol\":5873:5897  basePoint.sub(diffPoint) */\n      tag_423\n      swap1\n        /* \"contracts/helperLogic.sol\":5887:5896  diffPoint */\n      dup3\n        /* \"contracts/helperLogic.sol\":5873:5886  basePoint.sub */\n      tag_289\n        /* \"contracts/helperLogic.sol\":5873:5897  basePoint.sub(diffPoint) */\n      jump\t// in\n    tag_423:\n        /* \"contracts/helperLogic.sol\":5849:5897  USDC_USC_LP_farmPoint = basePoint.sub(diffPoint) */\n      swap2\n      pop\n        /* \"contracts/helperLogic.sol\":5740:5912  if (diffPoint > basePoint) {... */\n    tag_422:\n        /* \"contracts/helperLogic.sol\":5628:6074  if (uscPrice > 1e18) {... */\n      jump(tag_424)\n    tag_418:\n        /* \"contracts/helperLogic.sol\":5974:6001  (1e18 - uscPrice).div(1e14) */\n      tag_425\n        /* \"contracts/helperLogic.sol\":5996:6000  1e14 */\n      0x5af3107a4000\n        /* \"contracts/helperLogic.sol\":5975:5990  1e18 - uscPrice */\n      tag_282\n        /* \"contracts/helperLogic.sol\":5982:5990  uscPrice */\n      dup6\n        /* \"contracts/helperLogic.sol\":5975:5979  1e18 */\n      0x0de0b6b3a7640000\n        /* \"contracts/helperLogic.sol\":5975:5990  1e18 - uscPrice */\n      tag_358\n      jump\t// in\n        /* \"contracts/helperLogic.sol\":5974:6001  (1e18 - uscPrice).div(1e14) */\n    tag_425:\n        /* \"contracts/helperLogic.sol\":6039:6048  basePoint */\n      sload(0x72)\n        /* \"contracts/helperLogic.sol\":5962:6001  diffPoint = (1e18 - uscPrice).div(1e14) */\n      swap1\n      swap2\n      pop\n        /* \"contracts/helperLogic.sol\":6039:6063  basePoint.add(diffPoint) */\n      tag_427\n      swap1\n        /* \"contracts/helperLogic.sol\":5962:6001  diffPoint = (1e18 - uscPrice).div(1e14) */\n      dup3\n        /* \"contracts/helperLogic.sol\":6039:6052  basePoint.add */\n      tag_428\n        /* \"contracts/helperLogic.sol\":6039:6063  basePoint.add(diffPoint) */\n      jump\t// in\n    tag_427:\n        /* \"contracts/helperLogic.sol\":6015:6063  USDC_USC_LP_farmPoint = basePoint.add(diffPoint) */\n      swap2\n      pop\n        /* \"contracts/helperLogic.sol\":5628:6074  if (uscPrice > 1e18) {... */\n    tag_424:\n        /* \"contracts/helperLogic.sol\":6083:6087  farm */\n      sload(0x74)\n        /* \"contracts/helperLogic.sol\":6096:6099  pid */\n      sload(0x73)\n        /* \"contracts/helperLogic.sol\":6083:6129  farm.setPool(pid, USDC_USC_LP_farmPoint, true) */\n      mload(0x40)\n      shl(0xe1, 0x236535f5)\n      dup2\n      mstore\n      sub(shl(0xa0, 0x01), 0x01)\n        /* \"contracts/helperLogic.sol\":6083:6087  farm */\n      swap1\n      swap3\n      and\n      swap2\n        /* \"contracts/helperLogic.sol\":6083:6095  farm.setPool */\n      0x46ca6bea\n      swap2\n        /* \"contracts/helperLogic.sol\":6083:6129  farm.setPool(pid, USDC_USC_LP_farmPoint, true) */\n      tag_429\n      swap2\n        /* \"contracts/helperLogic.sol\":6101:6122  USDC_USC_LP_farmPoint */\n      dup7\n      swap1\n        /* \"contracts/helperLogic.sol\":6083:6087  farm */\n      0x01\n      swap1\n        /* \"contracts/helperLogic.sol\":6083:6129  farm.setPool(pid, USDC_USC_LP_farmPoint, true) */\n      0x04\n      add\n      tag_430\n      jump\t// in\n    tag_429:\n      0x00\n      mload(0x40)\n      dup1\n      dup4\n      sub\n      dup2\n      0x00\n      dup8\n      dup1\n      extcodesize\n      iszero\n      dup1\n      iszero\n      tag_431\n      jumpi\n      0x00\n      dup1\n      revert\n    tag_431:\n      pop\n      gas\n      call\n      iszero\n      dup1\n      iszero\n      tag_433\n      jumpi\n      returndatasize\n      0x00\n      dup1\n      returndatacopy\n      revert(0x00, returndatasize)\n    tag_433:\n      pop\n      pop\n      pop\n      pop\n        /* \"contracts/helperLogic.sol\":5018:6136  function adjustFarm() internal {... */\n      pop\n      pop\n      pop\n      pop\n      pop\n      pop\n      pop\n      pop\n      pop\n      jump\t// out\n        /* \"@openzeppelin/contracts-upgradeable/utils/ContextUpgradeable.sol\":807:871  function __Context_init_unchained() internal initializer {... */\n    tag_340:\n        /* \"@openzeppelin/contracts-upgradeable/proxy/utils/Initializable.sol\":539:552  _initializing */\n      sload(0x00)\n      0x0100\n      swap1\n      div\n      0xff\n      and\n      dup1\n        /* \"@openzeppelin/contracts-upgradeable/proxy/utils/Initializable.sol\":539:569  _initializing || !_initialized */\n      tag_435\n      jumpi\n      pop\n        /* \"@openzeppelin/contracts-upgradeable/proxy/utils/Initializable.sol\":557:569  _initialized */\n      and(0xff, sload(0x00))\n        /* \"@openzeppelin/contracts-upgradeable/proxy/utils/Initializable.sol\":556:569  !_initialized */\n      iszero\n        /* \"@openzeppelin/contracts-upgradeable/proxy/utils/Initializable.sol\":539:569  _initializing || !_initialized */\n    tag_435:\n        /* \"@openzeppelin/contracts-upgradeable/proxy/utils/Initializable.sol\":531:620  require(_initializing || !_initialized, \"Initializable: contract is already initialized\") */\n      tag_436\n      jumpi\n      mload(0x40)\n      shl(0xe5, 0x461bcd)\n      dup2\n      mstore\n      0x04\n      add\n      tag_191\n      swap1\n      tag_210\n      jump\t// in\n    tag_436:\n        /* \"@openzeppelin/contracts-upgradeable/proxy/utils/Initializable.sol\":631:650  bool isTopLevelCall */\n      0x00\n        /* \"@openzeppelin/contracts-upgradeable/proxy/utils/Initializable.sol\":654:667  _initializing */\n      sload\n      0x0100\n      swap1\n      div\n      0xff\n      and\n        /* \"@openzeppelin/contracts-upgradeable/proxy/utils/Initializable.sol\":653:667  !_initializing */\n      iszero\n        /* \"@openzeppelin/contracts-upgradeable/proxy/utils/Initializable.sol\":677:775  if (isTopLevelCall) {... */\n      dup1\n      iszero\n      tag_341\n      jumpi\n        /* \"@openzeppelin/contracts-upgradeable/proxy/utils/Initializable.sol\":711:724  _initializing */\n      0x00\n        /* \"@openzeppelin/contracts-upgradeable/proxy/utils/Initializable.sol\":711:731  _initializing = true */\n      dup1\n      sload\n      not(0xff)\n      not(0xff00)\n      swap1\n      swap2\n      and\n      0x0100\n      or\n        /* \"@openzeppelin/contracts-upgradeable/proxy/utils/Initializable.sol\":745:764  _initialized = true */\n      and\n        /* \"@openzeppelin/contracts-upgradeable/proxy/utils/Initializable.sol\":727:731  true */\n      0x01\n        /* \"@openzeppelin/contracts-upgradeable/proxy/utils/Initializable.sol\":745:764  _initialized = true */\n      or\n      swap1\n      sstore\n        /* \"@openzeppelin/contracts-upgradeable/proxy/utils/Initializable.sol\":801:815  isTopLevelCall */\n      dup1\n        /* \"@openzeppelin/contracts-upgradeable/proxy/utils/Initializable.sol\":797:863  if (isTopLevelCall) {... */\n      iszero\n      tag_331\n      jumpi\n        /* \"@openzeppelin/contracts-upgradeable/proxy/utils/Initializable.sol\":847:852  false */\n      0x00\n        /* \"@openzeppelin/contracts-upgradeable/proxy/utils/Initializable.sol\":831:852  _initializing = false */\n      dup1\n      sload\n      not(0xff00)\n      and\n      swap1\n      sstore\n        /* \"@openzeppelin/contracts-upgradeable/utils/ContextUpgradeable.sol\":807:871  function __Context_init_unchained() internal initializer {... */\n      pop\n      jump\t// out\n        /* \"@openzeppelin/contracts-upgradeable/access/OwnableUpgradeable.sol\":1120:1226  function __Ownable_init_unchained() internal initializer {... */\n    tag_342:\n        /* \"@openzeppelin/contracts-upgradeable/proxy/utils/Initializable.sol\":539:552  _initializing */\n      sload(0x00)\n      0x0100\n      swap1\n      div\n      0xff\n      and\n      dup1\n        /* \"@openzeppelin/contracts-upgradeable/proxy/utils/Initializable.sol\":539:569  _initializing || !_initialized */\n      tag_442\n      jumpi\n      pop\n        /* \"@openzeppelin/contracts-upgradeable/proxy/utils/Initializable.sol\":557:569  _initialized */\n      and(0xff, sload(0x00))\n        /* \"@openzeppelin/contracts-upgradeable/proxy/utils/Initializable.sol\":556:569  !_initialized */\n      iszero\n        /* \"@openzeppelin/contracts-upgradeable/proxy/utils/Initializable.sol\":539:569  _initializing || !_initialized */\n    tag_442:\n        /* \"@openzeppelin/contracts-upgradeable/proxy/utils/Initializable.sol\":531:620  require(_initializing || !_initialized, \"Initializable: contract is already initialized\") */\n      tag_443\n      jumpi\n      mload(0x40)\n      shl(0xe5, 0x461bcd)\n      dup2\n      mstore\n      0x04\n      add\n      tag_191\n      swap1\n      tag_210\n      jump\t// in\n    tag_443:\n        /* \"@openzeppelin/contracts-upgradeable/proxy/utils/Initializable.sol\":631:650  bool isTopLevelCall */\n      0x00\n        /* \"@openzeppelin/contracts-upgradeable/proxy/utils/Initializable.sol\":654:667  _initializing */\n      sload\n      0x0100\n      swap1\n      div\n      0xff\n      and\n        /* \"@openzeppelin/contracts-upgradeable/proxy/utils/Initializable.sol\":653:667  !_initializing */\n      iszero\n        /* \"@openzeppelin/contracts-upgradeable/proxy/utils/Initializable.sol\":677:775  if (isTopLevelCall) {... */\n      dup1\n      iszero\n      tag_445\n      jumpi\n        /* \"@openzeppelin/contracts-upgradeable/proxy/utils/Initializable.sol\":711:724  _initializing */\n      0x00\n        /* \"@openzeppelin/contracts-upgradeable/proxy/utils/Initializable.sol\":711:731  _initializing = true */\n      dup1\n      sload\n      not(0xff)\n      not(0xff00)\n      swap1\n      swap2\n      and\n      0x0100\n      or\n        /* \"@openzeppelin/contracts-upgradeable/proxy/utils/Initializable.sol\":745:764  _initialized = true */\n      and\n        /* \"@openzeppelin/contracts-upgradeable/proxy/utils/Initializable.sol\":727:731  true */\n      0x01\n        /* \"@openzeppelin/contracts-upgradeable/proxy/utils/Initializable.sol\":745:764  _initialized = true */\n      or\n      swap1\n      sstore\n        /* \"@openzeppelin/contracts-upgradeable/proxy/utils/Initializable.sol\":677:775  if (isTopLevelCall) {... */\n    tag_445:\n        /* \"@openzeppelin/contracts-upgradeable/access/OwnableUpgradeable.sol\":1187:1219  _transferOwnership(_msgSender()) */\n      tag_341\n        /* \"@openzeppelin/contracts-upgradeable/access/OwnableUpgradeable.sol\":1206:1218  _msgSender() */\n      tag_448\n        /* \"@openzeppelin/contracts-upgradeable/access/OwnableUpgradeable.sol\":1206:1216  _msgSender */\n      tag_188\n        /* \"@openzeppelin/contracts-upgradeable/access/OwnableUpgradeable.sol\":1206:1218  _msgSender() */\n      jump\t// in\n    tag_448:\n        /* \"@openzeppelin/contracts-upgradeable/access/OwnableUpgradeable.sol\":1187:1205  _transferOwnership */\n      tag_241\n        /* \"@openzeppelin/contracts-upgradeable/access/OwnableUpgradeable.sol\":1187:1219  _transferOwnership(_msgSender()) */\n      jump\t// in\n        /* \"@openzeppelin/contracts-upgradeable/token/ERC20/utils/SafeERC20Upgradeable.sol\":3306:4023  function _callOptionalReturn(IERC20Upgradeable token, bytes memory data) private {... */\n    tag_349:\n        /* \"@openzeppelin/contracts-upgradeable/token/ERC20/utils/SafeERC20Upgradeable.sol\":3736:3759  bytes memory returndata */\n      0x00\n        /* \"@openzeppelin/contracts-upgradeable/token/ERC20/utils/SafeERC20Upgradeable.sol\":3762:3831  address(token).functionCall(data, \"SafeERC20: low-level call failed\") */\n      tag_451\n        /* \"@openzeppelin/contracts-upgradeable/token/ERC20/utils/SafeERC20Upgradeable.sol\":3790:3794  data */\n      dup3\n        /* \"@openzeppelin/contracts-upgradeable/token/ERC20/utils/SafeERC20Upgradeable.sol\":3762:3831  address(token).functionCall(data, \"SafeERC20: low-level call failed\") */\n      mload(0x40)\n      dup1\n      0x40\n      add\n      0x40\n      mstore\n      dup1\n      0x20\n      dup2\n      mstore\n      0x20\n      add\n      0x5361666545524332303a206c6f772d6c6576656c2063616c6c206661696c6564\n      dup2\n      mstore\n      pop\n        /* \"@openzeppelin/contracts-upgradeable/token/ERC20/utils/SafeERC20Upgradeable.sol\":3770:3775  token */\n      dup6\n      sub(shl(0xa0, 0x01), 0x01)\n        /* \"@openzeppelin/contracts-upgradeable/token/ERC20/utils/SafeERC20Upgradeable.sol\":3762:3789  address(token).functionCall */\n      and\n      tag_452\n      swap1\n        /* \"@openzeppelin/contracts-upgradeable/token/ERC20/utils/SafeERC20Upgradeable.sol\":3762:3831  address(token).functionCall(data, \"SafeERC20: low-level call failed\") */\n      swap3\n      swap2\n      swap1\n      0xffffffff\n      and\n      jump\t// in\n    tag_451:\n        /* \"@openzeppelin/contracts-upgradeable/token/ERC20/utils/SafeERC20Upgradeable.sol\":3845:3862  returndata.length */\n      dup1\n      mload\n        /* \"@openzeppelin/contracts-upgradeable/token/ERC20/utils/SafeERC20Upgradeable.sol\":3736:3831  bytes memory returndata = address(token).functionCall(data, \"SafeERC20: low-level call failed\") */\n      swap1\n      swap2\n      pop\n        /* \"@openzeppelin/contracts-upgradeable/token/ERC20/utils/SafeERC20Upgradeable.sol\":3845:3866  returndata.length > 0 */\n      iszero\n        /* \"@openzeppelin/contracts-upgradeable/token/ERC20/utils/SafeERC20Upgradeable.sol\":3841:4017  if (returndata.length > 0) {... */\n      tag_346\n      jumpi\n        /* \"@openzeppelin/contracts-upgradeable/token/ERC20/utils/SafeERC20Upgradeable.sol\":3940:3950  returndata */\n      dup1\n        /* \"@openzeppelin/contracts-upgradeable/token/ERC20/utils/SafeERC20Upgradeable.sol\":3929:3959  abi.decode(returndata, (bool)) */\n      dup1\n      0x20\n      add\n      swap1\n      mload\n      dup2\n      add\n      swap1\n      tag_454\n      swap2\n      swap1\n      tag_303\n      jump\t// in\n    tag_454:\n        /* \"@openzeppelin/contracts-upgradeable/token/ERC20/utils/SafeERC20Upgradeable.sol\":3921:4006  require(abi.decode(returndata, (bool)), \"SafeERC20: ERC20 operation did not succeed\") */\n      tag_346\n      jumpi\n      mload(0x40)\n      shl(0xe5, 0x461bcd)\n      dup2\n      mstore\n      0x04\n      add\n      tag_191\n      swap1\n      tag_457\n      jump\t// in\n        /* \"contracts/helperLogic.sol\":2901:3292  function getAmountOut(... */\n    tag_380:\n        /* \"contracts/helperLogic.sol\":3033:3050  uint256 amountOut */\n      0x00\n      dup1\n        /* \"contracts/helperLogic.sol\":3088:3106  amountIn.mul(9970) */\n      tag_459\n        /* \"contracts/helperLogic.sol\":3088:3096  amountIn */\n      dup6\n        /* \"contracts/helperLogic.sol\":3101:3105  9970 */\n      0x26f2\n        /* \"contracts/helperLogic.sol\":3088:3100  amountIn.mul */\n      tag_283\n        /* \"contracts/helperLogic.sol\":3088:3106  amountIn.mul(9970) */\n      jump\t// in\n    tag_459:\n        /* \"contracts/helperLogic.sol\":3062:3106  uint256 amountInWithFee = amountIn.mul(9970) */\n      swap1\n      pop\n        /* \"contracts/helperLogic.sol\":3116:3133  uint256 numerator */\n      0x00\n        /* \"contracts/helperLogic.sol\":3136:3167  amountInWithFee.mul(reserveOut) */\n      tag_460\n        /* \"contracts/helperLogic.sol\":3062:3106  uint256 amountInWithFee = amountIn.mul(9970) */\n      dup3\n        /* \"contracts/helperLogic.sol\":3156:3166  reserveOut */\n      dup6\n        /* \"contracts/helperLogic.sol\":3136:3155  amountInWithFee.mul */\n      tag_283\n        /* \"contracts/helperLogic.sol\":3136:3167  amountInWithFee.mul(reserveOut) */\n      jump\t// in\n    tag_460:\n        /* \"contracts/helperLogic.sol\":3116:3167  uint256 numerator = amountInWithFee.mul(reserveOut) */\n      swap1\n      pop\n        /* \"contracts/helperLogic.sol\":3177:3196  uint256 denominator */\n      0x00\n        /* \"contracts/helperLogic.sol\":3199:3240  reserveIn.mul(10000).add(amountInWithFee) */\n      tag_461\n        /* \"contracts/helperLogic.sol\":3224:3239  amountInWithFee */\n      dup4\n        /* \"contracts/helperLogic.sol\":3199:3219  reserveIn.mul(10000) */\n      tag_462\n        /* \"contracts/helperLogic.sol\":3199:3208  reserveIn */\n      dup9\n        /* \"contracts/helperLogic.sol\":3213:3218  10000 */\n      0x2710\n        /* \"contracts/helperLogic.sol\":3199:3212  reserveIn.mul */\n      tag_283\n        /* \"contracts/helperLogic.sol\":3199:3219  reserveIn.mul(10000) */\n      jump\t// in\n    tag_462:\n        /* \"contracts/helperLogic.sol\":3199:3223  reserveIn.mul(10000).add */\n      swap1\n      tag_428\n        /* \"contracts/helperLogic.sol\":3199:3240  reserveIn.mul(10000).add(amountInWithFee) */\n      jump\t// in\n    tag_461:\n        /* \"contracts/helperLogic.sol\":3177:3240  uint256 denominator = reserveIn.mul(10000).add(amountInWithFee) */\n      swap1\n      pop\n        /* \"contracts/helperLogic.sol\":3262:3285  numerator / denominator */\n      tag_463\n        /* \"contracts/helperLogic.sol\":3177:3240  uint256 denominator = reserveIn.mul(10000).add(amountInWithFee) */\n      dup2\n        /* \"contracts/helperLogic.sol\":3262:3271  numerator */\n      dup4\n        /* \"contracts/helperLogic.sol\":3262:3285  numerator / denominator */\n      tag_355\n      jump\t// in\n    tag_463:\n        /* \"contracts/helperLogic.sol\":3250:3285  amountOut = numerator / denominator */\n      swap8\n        /* \"contracts/helperLogic.sol\":2901:3292  function getAmountOut(... */\n      swap7\n      pop\n      pop\n      pop\n      pop\n      pop\n      pop\n      pop\n      jump\t// out\n        /* \"@openzeppelin/contracts-upgradeable/utils/math/SafeMathUpgradeable.sol\":2752:2848  function add(uint256 a, uint256 b) internal pure returns (uint256) {... */\n    tag_428:\n        /* \"@openzeppelin/contracts-upgradeable/utils/math/SafeMathUpgradeable.sol\":2810:2817  uint256 */\n      0x00\n        /* \"@openzeppelin/contracts-upgradeable/utils/math/SafeMathUpgradeable.sol\":2836:2841  a + b */\n      tag_351\n        /* \"@openzeppelin/contracts-upgradeable/utils/math/SafeMathUpgradeable.sol\":2840:2841  b */\n      dup3\n        /* \"@openzeppelin/contracts-upgradeable/utils/math/SafeMathUpgradeable.sol\":2836:2837  a */\n      dup5\n        /* \"@openzeppelin/contracts-upgradeable/utils/math/SafeMathUpgradeable.sol\":2836:2841  a + b */\n      tag_466\n      jump\t// in\n        /* \"@openzeppelin/contracts-upgradeable/utils/AddressUpgradeable.sol\":3525:3748  function functionCall(... */\n    tag_452:\n        /* \"@openzeppelin/contracts-upgradeable/utils/AddressUpgradeable.sol\":3658:3670  bytes memory */\n      0x60\n        /* \"@openzeppelin/contracts-upgradeable/utils/AddressUpgradeable.sol\":3689:3741  functionCallWithValue(target, data, 0, errorMessage) */\n      tag_468\n        /* \"@openzeppelin/contracts-upgradeable/utils/AddressUpgradeable.sol\":3711:3717  target */\n      dup5\n        /* \"@openzeppelin/contracts-upgradeable/utils/AddressUpgradeable.sol\":3719:3723  data */\n      dup5\n        /* \"@openzeppelin/contracts-upgradeable/utils/AddressUpgradeable.sol\":3725:3726  0 */\n      0x00\n        /* \"@openzeppelin/contracts-upgradeable/utils/AddressUpgradeable.sol\":3728:3740  errorMessage */\n      dup6\n        /* \"@openzeppelin/contracts-upgradeable/utils/AddressUpgradeable.sol\":3689:3710  functionCallWithValue */\n      tag_469\n        /* \"@openzeppelin/contracts-upgradeable/utils/AddressUpgradeable.sol\":3689:3741  functionCallWithValue(target, data, 0, errorMessage) */\n      jump\t// in\n    tag_468:\n        /* \"@openzeppelin/contracts-upgradeable/utils/AddressUpgradeable.sol\":3682:3741  return functionCallWithValue(target, data, 0, errorMessage) */\n      swap5\n        /* \"@openzeppelin/contracts-upgradeable/utils/AddressUpgradeable.sol\":3525:3748  function functionCall(... */\n      swap4\n      pop\n      pop\n      pop\n      pop\n      jump\t// out\n        /* \"@openzeppelin/contracts-upgradeable/utils/AddressUpgradeable.sol\":4612:5111  function functionCallWithValue(... */\n    tag_469:\n        /* \"@openzeppelin/contracts-upgradeable/utils/AddressUpgradeable.sol\":4777:4789  bytes memory */\n      0x60\n        /* \"@openzeppelin/contracts-upgradeable/utils/AddressUpgradeable.sol\":4834:4839  value */\n      dup3\n        /* \"@openzeppelin/contracts-upgradeable/utils/AddressUpgradeable.sol\":4809:4830  address(this).balance */\n      selfbalance\n        /* \"@openzeppelin/contracts-upgradeable/utils/AddressUpgradeable.sol\":4809:4839  address(this).balance >= value */\n      lt\n      iszero\n        /* \"@openzeppelin/contracts-upgradeable/utils/AddressUpgradeable.sol\":4801:4882  require(address(this).balance >= value, \"Address: insufficient balance for call\") */\n      tag_471\n      jumpi\n      mload(0x40)\n      shl(0xe5, 0x461bcd)\n      dup2\n      mstore\n      0x04\n      add\n      tag_191\n      swap1\n      tag_473\n      jump\t// in\n    tag_471:\n        /* \"@openzeppelin/contracts-upgradeable/utils/AddressUpgradeable.sol\":4900:4918  isContract(target) */\n      tag_474\n        /* \"@openzeppelin/contracts-upgradeable/utils/AddressUpgradeable.sol\":4911:4917  target */\n      dup6\n        /* \"@openzeppelin/contracts-upgradeable/utils/AddressUpgradeable.sol\":4900:4910  isContract */\n      tag_475\n        /* \"@openzeppelin/contracts-upgradeable/utils/AddressUpgradeable.sol\":4900:4918  isContract(target) */\n      jump\t// in\n    tag_474:\n        /* \"@openzeppelin/contracts-upgradeable/utils/AddressUpgradeable.sol\":4892:4952  require(isContract(target), \"Address: call to non-contract\") */\n      tag_476\n      jumpi\n      mload(0x40)\n      shl(0xe5, 0x461bcd)\n      dup2\n      mstore\n      0x04\n      add\n      tag_191\n      swap1\n      tag_478\n      jump\t// in\n    tag_476:\n        /* \"@openzeppelin/contracts-upgradeable/utils/AddressUpgradeable.sol\":4964:4976  bool success */\n      0x00\n        /* \"@openzeppelin/contracts-upgradeable/utils/AddressUpgradeable.sol\":4978:5001  bytes memory returndata */\n      dup1\n        /* \"@openzeppelin/contracts-upgradeable/utils/AddressUpgradeable.sol\":5005:5011  target */\n      dup7\n      sub(shl(0xa0, 0x01), 0x01)\n        /* \"@openzeppelin/contracts-upgradeable/utils/AddressUpgradeable.sol\":5005:5016  target.call */\n      and\n        /* \"@openzeppelin/contracts-upgradeable/utils/AddressUpgradeable.sol\":5024:5029  value */\n      dup6\n        /* \"@openzeppelin/contracts-upgradeable/utils/AddressUpgradeable.sol\":5031:5035  data */\n      dup8\n        /* \"@openzeppelin/contracts-upgradeable/utils/AddressUpgradeable.sol\":5005:5036  target.call{value: value}(data) */\n      mload(0x40)\n      tag_479\n      swap2\n      swap1\n      tag_480\n      jump\t// in\n    tag_479:\n      0x00\n      mload(0x40)\n      dup1\n      dup4\n      sub\n      dup2\n      dup6\n      dup8\n      gas\n      call\n      swap3\n      pop\n      pop\n      pop\n      returndatasize\n      dup1\n      0x00\n      dup2\n      eq\n      tag_483\n      jumpi\n      mload(0x40)\n      swap2\n      pop\n      and(add(returndatasize, 0x3f), not(0x1f))\n      dup3\n      add\n      0x40\n      mstore\n      returndatasize\n      dup3\n      mstore\n      returndatasize\n      0x00\n      0x20\n      dup5\n      add\n      returndatacopy\n      jump(tag_482)\n    tag_483:\n      0x60\n      swap2\n      pop\n    tag_482:\n      pop\n        /* \"@openzeppelin/contracts-upgradeable/utils/AddressUpgradeable.sol\":4963:5036  (bool success, bytes memory returndata) = target.call{value: value}(data) */\n      swap2\n      pop\n      swap2\n      pop\n        /* \"@openzeppelin/contracts-upgradeable/utils/AddressUpgradeable.sol\":5053:5104  verifyCallResult(success, returndata, errorMessage) */\n      tag_463\n        /* \"@openzeppelin/contracts-upgradeable/utils/AddressUpgradeable.sol\":5070:5077  success */\n      dup3\n        /* \"@openzeppelin/contracts-upgradeable/utils/AddressUpgradeable.sol\":5079:5089  returndata */\n      dup3\n        /* \"@openzeppelin/contracts-upgradeable/utils/AddressUpgradeable.sol\":5091:5103  errorMessage */\n      dup7\n        /* \"@openzeppelin/contracts-upgradeable/utils/AddressUpgradeable.sol\":5053:5069  verifyCallResult */\n      tag_485\n        /* \"@openzeppelin/contracts-upgradeable/utils/AddressUpgradeable.sol\":5053:5104  verifyCallResult(success, returndata, errorMessage) */\n      jump\t// in\n        /* \"@openzeppelin/contracts-upgradeable/utils/AddressUpgradeable.sol\":782:1159  function isContract(address account) internal view returns (bool) {... */\n    tag_475:\n        /* \"@openzeppelin/contracts-upgradeable/utils/AddressUpgradeable.sol\":1098:1118  extcodesize(account) */\n      extcodesize\n        /* \"@openzeppelin/contracts-upgradeable/utils/AddressUpgradeable.sol\":1144:1152  size > 0 */\n      iszero\n      iszero\n      swap1\n        /* \"@openzeppelin/contracts-upgradeable/utils/AddressUpgradeable.sol\":782:1159  function isContract(address account) internal view returns (bool) {... */\n      jump\t// out\n        /* \"@openzeppelin/contracts-upgradeable/utils/AddressUpgradeable.sol\":6275:6967  function verifyCallResult(... */\n    tag_485:\n        /* \"@openzeppelin/contracts-upgradeable/utils/AddressUpgradeable.sol\":6421:6433  bytes memory */\n      0x60\n        /* \"@openzeppelin/contracts-upgradeable/utils/AddressUpgradeable.sol\":6449:6456  success */\n      dup4\n        /* \"@openzeppelin/contracts-upgradeable/utils/AddressUpgradeable.sol\":6445:6961  if (success) {... */\n      iszero\n      tag_488\n      jumpi\n      pop\n        /* \"@openzeppelin/contracts-upgradeable/utils/AddressUpgradeable.sol\":6479:6489  returndata */\n      dup2\n        /* \"@openzeppelin/contracts-upgradeable/utils/AddressUpgradeable.sol\":6472:6489  return returndata */\n      jump(tag_351)\n        /* \"@openzeppelin/contracts-upgradeable/utils/AddressUpgradeable.sol\":6445:6961  if (success) {... */\n    tag_488:\n        /* \"@openzeppelin/contracts-upgradeable/utils/AddressUpgradeable.sol\":6590:6607  returndata.length */\n      dup3\n      mload\n        /* \"@openzeppelin/contracts-upgradeable/utils/AddressUpgradeable.sol\":6590:6611  returndata.length > 0 */\n      iszero\n        /* \"@openzeppelin/contracts-upgradeable/utils/AddressUpgradeable.sol\":6586:6951  if (returndata.length > 0) {... */\n      tag_490\n      jumpi\n        /* \"@openzeppelin/contracts-upgradeable/utils/AddressUpgradeable.sol\":6784:6794  returndata */\n      dup3\n        /* \"@openzeppelin/contracts-upgradeable/utils/AddressUpgradeable.sol\":6778:6795  mload(returndata) */\n      mload\n        /* \"@openzeppelin/contracts-upgradeable/utils/AddressUpgradeable.sol\":6844:6859  returndata_size */\n      dup1\n        /* \"@openzeppelin/contracts-upgradeable/utils/AddressUpgradeable.sol\":6831:6841  returndata */\n      dup5\n        /* \"@openzeppelin/contracts-upgradeable/utils/AddressUpgradeable.sol\":6827:6829  32 */\n      0x20\n        /* \"@openzeppelin/contracts-upgradeable/utils/AddressUpgradeable.sol\":6823:6842  add(32, returndata) */\n      add\n        /* \"@openzeppelin/contracts-upgradeable/utils/AddressUpgradeable.sol\":6816:6860  revert(add(32, returndata), returndata_size) */\n      revert\n        /* \"@openzeppelin/contracts-upgradeable/utils/AddressUpgradeable.sol\":6733:6878  {... */\n    tag_490:\n        /* \"@openzeppelin/contracts-upgradeable/utils/AddressUpgradeable.sol\":6923:6935  errorMessage */\n      dup2\n        /* \"@openzeppelin/contracts-upgradeable/utils/AddressUpgradeable.sol\":6916:6936  revert(errorMessage) */\n      mload(0x40)\n      shl(0xe5, 0x461bcd)\n      dup2\n      mstore\n      0x04\n      add\n      tag_191\n      swap2\n      swap1\n      tag_493\n      jump\t// in\n        /* \"#utility.yul\":14:204   */\n    tag_495:\n        /* \"#utility.yul\":95:108   */\n      dup1\n      mload\n      sub(shl(0x70, 0x01), 0x01)\n        /* \"#utility.yul\":137:179   */\n      dup2\n      and\n        /* \"#utility.yul\":127:180   */\n      dup2\n      eq\n        /* \"#utility.yul\":117:119   */\n      tag_193\n      jumpi\n        /* \"#utility.yul\":194:195   */\n      0x00\n        /* \"#utility.yul\":191:192   */\n      dup1\n        /* \"#utility.yul\":184:196   */\n      revert\n        /* \"#utility.yul\":209:468   */\n    tag_95:\n      0x00\n        /* \"#utility.yul\":321:323   */\n      0x20\n        /* \"#utility.yul\":309:318   */\n      dup3\n        /* \"#utility.yul\":300:307   */\n      dup5\n        /* \"#utility.yul\":296:319   */\n      sub\n        /* \"#utility.yul\":292:324   */\n      slt\n        /* \"#utility.yul\":289:291   */\n      iszero\n      tag_499\n      jumpi\n        /* \"#utility.yul\":342:348   */\n      dup1\n        /* \"#utility.yul\":334:340   */\n      dup2\n        /* \"#utility.yul\":327:349   */\n      revert\n        /* \"#utility.yul\":289:291   */\n    tag_499:\n        /* \"#utility.yul\":386:395   */\n      dup2\n        /* \"#utility.yul\":373:396   */\n      calldataload\n        /* \"#utility.yul\":405:438   */\n      tag_351\n        /* \"#utility.yul\":432:437   */\n      dup2\n        /* \"#utility.yul\":405:438   */\n      tag_501\n      jump\t// in\n        /* \"#utility.yul\":473:736   */\n    tag_366:\n      0x00\n        /* \"#utility.yul\":596:598   */\n      0x20\n        /* \"#utility.yul\":584:593   */\n      dup3\n        /* \"#utility.yul\":575:582   */\n      dup5\n        /* \"#utility.yul\":571:594   */\n      sub\n        /* \"#utility.yul\":567:599   */\n      slt\n        /* \"#utility.yul\":564:566   */\n      iszero\n      tag_503\n      jumpi\n        /* \"#utility.yul\":617:623   */\n      dup1\n        /* \"#utility.yul\":609:615   */\n      dup2\n        /* \"#utility.yul\":602:624   */\n      revert\n        /* \"#utility.yul\":564:566   */\n    tag_503:\n        /* \"#utility.yul\":654:663   */\n      dup2\n        /* \"#utility.yul\":648:664   */\n      mload\n        /* \"#utility.yul\":673:706   */\n      tag_351\n        /* \"#utility.yul\":700:705   */\n      dup2\n        /* \"#utility.yul\":673:706   */\n      tag_501\n      jump\t// in\n        /* \"#utility.yul\":741:1137   */\n    tag_59:\n      0x00\n      dup1\n        /* \"#utility.yul\":867:869   */\n      0x40\n        /* \"#utility.yul\":855:864   */\n      dup4\n        /* \"#utility.yul\":846:853   */\n      dup6\n        /* \"#utility.yul\":842:865   */\n      sub\n        /* \"#utility.yul\":838:870   */\n      slt\n        /* \"#utility.yul\":835:837   */\n      iszero\n      tag_506\n      jumpi\n        /* \"#utility.yul\":888:894   */\n      dup1\n        /* \"#utility.yul\":880:886   */\n      dup2\n        /* \"#utility.yul\":873:895   */\n      revert\n        /* \"#utility.yul\":835:837   */\n    tag_506:\n        /* \"#utility.yul\":932:941   */\n      dup3\n        /* \"#utility.yul\":919:942   */\n      calldataload\n        /* \"#utility.yul\":951:984   */\n      tag_507\n        /* \"#utility.yul\":978:983   */\n      dup2\n        /* \"#utility.yul\":951:984   */\n      tag_501\n      jump\t// in\n    tag_507:\n        /* \"#utility.yul\":1003:1008   */\n      swap2\n      pop\n        /* \"#utility.yul\":1060:1062   */\n      0x20\n        /* \"#utility.yul\":1045:1063   */\n      dup4\n      add\n        /* \"#utility.yul\":1032:1064   */\n      calldataload\n        /* \"#utility.yul\":1073:1105   */\n      tag_508\n        /* \"#utility.yul\":1032:1064   */\n      dup2\n        /* \"#utility.yul\":1073:1105   */\n      tag_509\n      jump\t// in\n    tag_508:\n        /* \"#utility.yul\":1124:1131   */\n      dup1\n        /* \"#utility.yul\":1114:1131   */\n      swap2\n      pop\n      pop\n        /* \"#utility.yul\":825:1137   */\n      swap3\n      pop\n      swap3\n      swap1\n      pop\n      jump\t// out\n        /* \"#utility.yul\":1142:1469   */\n    tag_125:\n      0x00\n      dup1\n        /* \"#utility.yul\":1271:1273   */\n      0x40\n        /* \"#utility.yul\":1259:1268   */\n      dup4\n        /* \"#utility.yul\":1250:1257   */\n      dup6\n        /* \"#utility.yul\":1246:1269   */\n      sub\n        /* \"#utility.yul\":1242:1274   */\n      slt\n        /* \"#utility.yul\":1239:1241   */\n      iszero\n      tag_511\n      jumpi\n        /* \"#utility.yul\":1292:1298   */\n      dup2\n        /* \"#utility.yul\":1284:1290   */\n      dup3\n        /* \"#utility.yul\":1277:1299   */\n      revert\n        /* \"#utility.yul\":1239:1241   */\n    tag_511:\n        /* \"#utility.yul\":1336:1345   */\n      dup3\n        /* \"#utility.yul\":1323:1346   */\n      calldataload\n        /* \"#utility.yul\":1355:1388   */\n      tag_512\n        /* \"#utility.yul\":1382:1387   */\n      dup2\n        /* \"#utility.yul\":1355:1388   */\n      tag_501\n      jump\t// in\n    tag_512:\n        /* \"#utility.yul\":1407:1412   */\n      swap5\n        /* \"#utility.yul\":1459:1461   */\n      0x20\n        /* \"#utility.yul\":1444:1462   */\n      swap4\n      swap1\n      swap4\n      add\n        /* \"#utility.yul\":1431:1463   */\n      calldataload\n      swap4\n      pop\n      pop\n      pop\n        /* \"#utility.yul\":1229:1469   */\n      jump\t// out\n        /* \"#utility.yul\":1474:1727   */\n    tag_90:\n      0x00\n        /* \"#utility.yul\":1583:1585   */\n      0x20\n        /* \"#utility.yul\":1571:1580   */\n      dup3\n        /* \"#utility.yul\":1562:1569   */\n      dup5\n        /* \"#utility.yul\":1558:1581   */\n      sub\n        /* \"#utility.yul\":1554:1586   */\n      slt\n        /* \"#utility.yul\":1551:1553   */\n      iszero\n      tag_514\n      jumpi\n        /* \"#utility.yul\":1604:1610   */\n      dup1\n        /* \"#utility.yul\":1596:1602   */\n      dup2\n        /* \"#utility.yul\":1589:1611   */\n      revert\n        /* \"#utility.yul\":1551:1553   */\n    tag_514:\n        /* \"#utility.yul\":1648:1657   */\n      dup2\n        /* \"#utility.yul\":1635:1658   */\n      calldataload\n        /* \"#utility.yul\":1667:1697   */\n      tag_351\n        /* \"#utility.yul\":1691:1696   */\n      dup2\n        /* \"#utility.yul\":1667:1697   */\n      tag_509\n      jump\t// in\n        /* \"#utility.yul\":1732:1989   */\n    tag_303:\n      0x00\n        /* \"#utility.yul\":1852:1854   */\n      0x20\n        /* \"#utility.yul\":1840:1849   */\n      dup3\n        /* \"#utility.yul\":1831:1838   */\n      dup5\n        /* \"#utility.yul\":1827:1850   */\n      sub\n        /* \"#utility.yul\":1823:1855   */\n      slt\n        /* \"#utility.yul\":1820:1822   */\n      iszero\n      tag_517\n      jumpi\n        /* \"#utility.yul\":1873:1879   */\n      dup1\n        /* \"#utility.yul\":1865:1871   */\n      dup2\n        /* \"#utility.yul\":1858:1880   */\n      revert\n        /* \"#utility.yul\":1820:1822   */\n    tag_517:\n        /* \"#utility.yul\":1910:1919   */\n      dup2\n        /* \"#utility.yul\":1904:1920   */\n      mload\n        /* \"#utility.yul\":1929:1959   */\n      tag_351\n        /* \"#utility.yul\":1953:1958   */\n      dup2\n        /* \"#utility.yul\":1929:1959   */\n      tag_509\n      jump\t// in\n        /* \"#utility.yul\":2561:3849   */\n    tag_75:\n      0x00\n      dup1\n      0x00\n      dup1\n      0x00\n      dup1\n      0x00\n        /* \"#utility.yul\":2942:2945   */\n      0xe0\n        /* \"#utility.yul\":2930:2939   */\n      dup9\n        /* \"#utility.yul\":2921:2928   */\n      dup11\n        /* \"#utility.yul\":2917:2940   */\n      sub\n        /* \"#utility.yul\":2913:2946   */\n      slt\n        /* \"#utility.yul\":2910:2912   */\n      iszero\n      tag_526\n      jumpi\n        /* \"#utility.yul\":2964:2970   */\n      dup3\n        /* \"#utility.yul\":2956:2962   */\n      dup4\n        /* \"#utility.yul\":2949:2971   */\n      revert\n        /* \"#utility.yul\":2910:2912   */\n    tag_526:\n        /* \"#utility.yul\":3008:3017   */\n      dup8\n        /* \"#utility.yul\":2995:3018   */\n      calldataload\n        /* \"#utility.yul\":3027:3060   */\n      tag_527\n        /* \"#utility.yul\":3054:3059   */\n      dup2\n        /* \"#utility.yul\":3027:3060   */\n      tag_501\n      jump\t// in\n    tag_527:\n        /* \"#utility.yul\":3079:3084   */\n      swap7\n      pop\n        /* \"#utility.yul\":3136:3138   */\n      0x20\n        /* \"#utility.yul\":3121:3139   */\n      dup9\n      add\n        /* \"#utility.yul\":3108:3140   */\n      calldataload\n        /* \"#utility.yul\":3149:3184   */\n      tag_528\n        /* \"#utility.yul\":3108:3140   */\n      dup2\n        /* \"#utility.yul\":3149:3184   */\n      tag_501\n      jump\t// in\n    tag_528:\n        /* \"#utility.yul\":3203:3210   */\n      swap6\n      pop\n        /* \"#utility.yul\":3262:3264   */\n      0x40\n        /* \"#utility.yul\":3247:3265   */\n      dup9\n      add\n        /* \"#utility.yul\":3234:3266   */\n      calldataload\n        /* \"#utility.yul\":3275:3310   */\n      tag_529\n        /* \"#utility.yul\":3234:3266   */\n      dup2\n        /* \"#utility.yul\":3275:3310   */\n      tag_501\n      jump\t// in\n    tag_529:\n        /* \"#utility.yul\":3329:3336   */\n      swap5\n      pop\n        /* \"#utility.yul\":3388:3390   */\n      0x60\n        /* \"#utility.yul\":3373:3391   */\n      dup9\n      add\n        /* \"#utility.yul\":3360:3392   */\n      calldataload\n        /* \"#utility.yul\":3401:3436   */\n      tag_530\n        /* \"#utility.yul\":3360:3392   */\n      dup2\n        /* \"#utility.yul\":3401:3436   */\n      tag_501\n      jump\t// in\n    tag_530:\n        /* \"#utility.yul\":3455:3462   */\n      swap4\n      pop\n        /* \"#utility.yul\":3514:3517   */\n      0x80\n        /* \"#utility.yul\":3499:3518   */\n      dup9\n      add\n        /* \"#utility.yul\":3486:3519   */\n      calldataload\n        /* \"#utility.yul\":3528:3563   */\n      tag_531\n        /* \"#utility.yul\":3486:3519   */\n      dup2\n        /* \"#utility.yul\":3528:3563   */\n      tag_501\n      jump\t// in\n    tag_531:\n        /* \"#utility.yul\":3582:3589   */\n      swap3\n      pop\n        /* \"#utility.yul\":3641:3644   */\n      0xa0\n        /* \"#utility.yul\":3626:3645   */\n      dup9\n      add\n        /* \"#utility.yul\":3613:3646   */\n      calldataload\n        /* \"#utility.yul\":3655:3690   */\n      tag_532\n        /* \"#utility.yul\":3613:3646   */\n      dup2\n        /* \"#utility.yul\":3655:3690   */\n      tag_501\n      jump\t// in\n    tag_532:\n        /* \"#utility.yul\":3709:3716   */\n      swap2\n      pop\n        /* \"#utility.yul\":3768:3771   */\n      0xc0\n        /* \"#utility.yul\":3753:3772   */\n      dup9\n      add\n        /* \"#utility.yul\":3740:3773   */\n      calldataload\n        /* \"#utility.yul\":3782:3817   */\n      tag_533\n        /* \"#utility.yul\":3740:3773   */\n      dup2\n        /* \"#utility.yul\":3782:3817   */\n      tag_501\n      jump\t// in\n    tag_533:\n        /* \"#utility.yul\":3836:3843   */\n      dup1\n        /* \"#utility.yul\":3826:3843   */\n      swap2\n      pop\n      pop\n        /* \"#utility.yul\":2900:3849   */\n      swap3\n      swap6\n      swap9\n      swap2\n      swap5\n      swap8\n      pop\n      swap3\n      swap6\n      pop\n      jump\t// out\n        /* \"#utility.yul\":3854:4328   */\n    tag_372:\n      0x00\n      dup1\n      0x00\n        /* \"#utility.yul\":4010:4012   */\n      0x60\n        /* \"#utility.yul\":3998:4007   */\n      dup5\n        /* \"#utility.yul\":3989:3996   */\n      dup7\n        /* \"#utility.yul\":3985:4008   */\n      sub\n        /* \"#utility.yul\":3981:4013   */\n      slt\n        /* \"#utility.yul\":3978:3980   */\n      iszero\n      tag_535\n      jumpi\n        /* \"#utility.yul\":4031:4037   */\n      dup3\n        /* \"#utility.yul\":4023:4029   */\n      dup4\n        /* \"#utility.yul\":4016:4038   */\n      revert\n        /* \"#utility.yul\":3978:3980   */\n    tag_535:\n        /* \"#utility.yul\":4059:4101   */\n      tag_536\n        /* \"#utility.yul\":4091:4100   */\n      dup5\n        /* \"#utility.yul\":4059:4101   */\n      tag_495\n      jump\t// in\n    tag_536:\n        /* \"#utility.yul\":4049:4101   */\n      swap3\n      pop\n        /* \"#utility.yul\":4120:4171   */\n      tag_537\n        /* \"#utility.yul\":4167:4169   */\n      0x20\n        /* \"#utility.yul\":4156:4165   */\n      dup6\n        /* \"#utility.yul\":4152:4170   */\n      add\n        /* \"#utility.yul\":4120:4171   */\n      tag_495\n      jump\t// in\n    tag_537:\n        /* \"#utility.yul\":4110:4171   */\n      swap2\n      pop\n        /* \"#utility.yul\":4214:4216   */\n      0x40\n        /* \"#utility.yul\":4203:4212   */\n      dup5\n        /* \"#utility.yul\":4199:4217   */\n      add\n        /* \"#utility.yul\":4193:4218   */\n      mload\n        /* \"#utility.yul\":4258:4268   */\n      0xffffffff\n        /* \"#utility.yul\":4251:4256   */\n      dup2\n        /* \"#utility.yul\":4247:4269   */\n      and\n        /* \"#utility.yul\":4240:4245   */\n      dup2\n        /* \"#utility.yul\":4237:4270   */\n      eq\n        /* \"#utility.yul\":4227:4229   */\n      tag_538\n      jumpi\n        /* \"#utility.yul\":4289:4295   */\n      dup2\n        /* \"#utility.yul\":4281:4287   */\n      dup3\n        /* \"#utility.yul\":4274:4296   */\n      revert\n        /* \"#utility.yul\":4227:4229   */\n    tag_538:\n        /* \"#utility.yul\":4317:4322   */\n      dup1\n        /* \"#utility.yul\":4307:4322   */\n      swap2\n      pop\n      pop\n        /* \"#utility.yul\":3968:4328   */\n      swap3\n      pop\n      swap3\n      pop\n      swap3\n      jump\t// out\n        /* \"#utility.yul\":4333:4523   */\n    tag_53:\n      0x00\n        /* \"#utility.yul\":4445:4447   */\n      0x20\n        /* \"#utility.yul\":4433:4442   */\n      dup3\n        /* \"#utility.yul\":4424:4431   */\n      dup5\n        /* \"#utility.yul\":4420:4443   */\n      sub\n        /* \"#utility.yul\":4416:4448   */\n      slt\n        /* \"#utility.yul\":4413:4415   */\n      iszero\n      tag_540\n      jumpi\n        /* \"#utility.yul\":4466:4472   */\n      dup1\n        /* \"#utility.yul\":4458:4464   */\n      dup2\n        /* \"#utility.yul\":4451:4473   */\n      revert\n        /* \"#utility.yul\":4413:4415   */\n    tag_540:\n      pop\n        /* \"#utility.yul\":4494:4517   */\n      calldataload\n      swap2\n        /* \"#utility.yul\":4403:4523   */\n      swap1\n      pop\n      jump\t// out\n        /* \"#utility.yul\":4528:4722   */\n    tag_279:\n      0x00\n        /* \"#utility.yul\":4651:4653   */\n      0x20\n        /* \"#utility.yul\":4639:4648   */\n      dup3\n        /* \"#utility.yul\":4630:4637   */\n      dup5\n        /* \"#utility.yul\":4626:4649   */\n      sub\n        /* \"#utility.yul\":4622:4654   */\n      slt\n        /* \"#utility.yul\":4619:4621   */\n      iszero\n      tag_542\n      jumpi\n        /* \"#utility.yul\":4672:4678   */\n      dup1\n        /* \"#utility.yul\":4664:4670   */\n      dup2\n        /* \"#utility.yul\":4657:4679   */\n      revert\n        /* \"#utility.yul\":4619:4621   */\n    tag_542:\n      pop\n        /* \"#utility.yul\":4700:4716   */\n      mload\n      swap2\n        /* \"#utility.yul\":4609:4722   */\n      swap1\n      pop\n      jump\t// out\n        /* \"#utility.yul\":4727:5020   */\n    tag_410:\n      0x00\n        /* \"#utility.yul\":4848:4850   */\n      0x20\n        /* \"#utility.yul\":4836:4845   */\n      dup3\n        /* \"#utility.yul\":4827:4834   */\n      dup5\n        /* \"#utility.yul\":4823:4846   */\n      sub\n        /* \"#utility.yul\":4819:4851   */\n      slt\n        /* \"#utility.yul\":4816:4818   */\n      iszero\n      tag_544\n      jumpi\n        /* \"#utility.yul\":4869:4875   */\n      dup1\n        /* \"#utility.yul\":4861:4867   */\n      dup2\n        /* \"#utility.yul\":4854:4876   */\n      revert\n        /* \"#utility.yul\":4816:4818   */\n    tag_544:\n        /* \"#utility.yul\":4906:4915   */\n      dup2\n        /* \"#utility.yul\":4900:4916   */\n      mload\n        /* \"#utility.yul\":4956:4960   */\n      0xff\n        /* \"#utility.yul\":4949:4954   */\n      dup2\n        /* \"#utility.yul\":4945:4961   */\n      and\n        /* \"#utility.yul\":4938:4943   */\n      dup2\n        /* \"#utility.yul\":4935:4962   */\n      eq\n        /* \"#utility.yul\":4925:4927   */\n      tag_351\n      jumpi\n        /* \"#utility.yul\":4981:4987   */\n      dup2\n        /* \"#utility.yul\":4973:4979   */\n      dup3\n        /* \"#utility.yul\":4966:4988   */\n      revert\n        /* \"#utility.yul\":5025:5284   */\n    tag_546:\n      0x00\n        /* \"#utility.yul\":5106:5111   */\n      dup2\n        /* \"#utility.yul\":5100:5112   */\n      mload\n        /* \"#utility.yul\":5133:5139   */\n      dup1\n        /* \"#utility.yul\":5128:5131   */\n      dup5\n        /* \"#utility.yul\":5121:5140   */\n      mstore\n        /* \"#utility.yul\":5149:5212   */\n      tag_548\n        /* \"#utility.yul\":5205:5211   */\n      dup2\n        /* \"#utility.yul\":5198:5202   */\n      0x20\n        /* \"#utility.yul\":5193:5196   */\n      dup7\n        /* \"#utility.yul\":5189:5203   */\n      add\n        /* \"#utility.yul\":5182:5186   */\n      0x20\n        /* \"#utility.yul\":5175:5180   */\n      dup7\n        /* \"#utility.yul\":5171:5187   */\n      add\n        /* \"#utility.yul\":5149:5212   */\n      tag_549\n      jump\t// in\n    tag_548:\n        /* \"#utility.yul\":5266:5268   */\n      0x1f\n        /* \"#utility.yul\":5245:5260   */\n      add\n      not(0x1f)\n        /* \"#utility.yul\":5241:5270   */\n      and\n        /* \"#utility.yul\":5232:5271   */\n      swap3\n      swap1\n      swap3\n      add\n        /* \"#utility.yul\":5273:5277   */\n      0x20\n        /* \"#utility.yul\":5228:5278   */\n      add\n      swap3\n        /* \"#utility.yul\":5076:5284   */\n      swap2\n      pop\n      pop\n      jump\t// out\n        /* \"#utility.yul\":5289:5563   */\n    tag_480:\n      0x00\n        /* \"#utility.yul\":5456:5462   */\n      dup3\n        /* \"#utility.yul\":5450:5463   */\n      mload\n        /* \"#utility.yul\":5472:5525   */\n      tag_551\n        /* \"#utility.yul\":5518:5524   */\n      dup2\n        /* \"#utility.yul\":5513:5516   */\n      dup5\n        /* \"#utility.yul\":5506:5510   */\n      0x20\n        /* \"#utility.yul\":5498:5504   */\n      dup8\n        /* \"#utility.yul\":5494:5511   */\n      add\n        /* \"#utility.yul\":5472:5525   */\n      tag_549\n      jump\t// in\n    tag_551:\n        /* \"#utility.yul\":5541:5557   */\n      swap2\n      swap1\n      swap2\n      add\n      swap3\n        /* \"#utility.yul\":5426:5563   */\n      swap2\n      pop\n      pop\n      jump\t// out\n        /* \"#utility.yul\":5568:5771   */\n    tag_116:\n      sub(shl(0xa0, 0x01), 0x01)\n        /* \"#utility.yul\":5732:5764   */\n      swap2\n      swap1\n      swap2\n      and\n        /* \"#utility.yul\":5714:5765   */\n      dup2\n      mstore\n        /* \"#utility.yul\":5702:5704   */\n      0x20\n        /* \"#utility.yul\":5687:5705   */\n      add\n      swap1\n        /* \"#utility.yul\":5669:5771   */\n      jump\t// out\n        /* \"#utility.yul\":5776:6080   */\n    tag_361:\n      sub(shl(0xa0, 0x01), 0x01)\n        /* \"#utility.yul\":6006:6021   */\n      swap3\n      dup4\n      and\n        /* \"#utility.yul\":5988:6022   */\n      dup2\n      mstore\n        /* \"#utility.yul\":6058:6073   */\n      swap2\n      and\n        /* \"#utility.yul\":6053:6055   */\n      0x20\n        /* \"#utility.yul\":6038:6056   */\n      dup3\n      add\n        /* \"#utility.yul\":6031:6074   */\n      mstore\n        /* \"#utility.yul\":5938:5940   */\n      0x40\n        /* \"#utility.yul\":5923:5941   */\n      add\n      swap1\n        /* \"#utility.yul\":5905:6080   */\n      jump\t// out\n        /* \"#utility.yul\":6085:6359   */\n    tag_348:\n      sub(shl(0xa0, 0x01), 0x01)\n        /* \"#utility.yul\":6277:6309   */\n      swap3\n      swap1\n      swap3\n      and\n        /* \"#utility.yul\":6259:6310   */\n      dup3\n      mstore\n        /* \"#utility.yul\":6341:6343   */\n      0x20\n        /* \"#utility.yul\":6326:6344   */\n      dup3\n      add\n        /* \"#utility.yul\":6319:6353   */\n      mstore\n        /* \"#utility.yul\":6247:6249   */\n      0x40\n        /* \"#utility.yul\":6232:6250   */\n      add\n      swap1\n        /* \"#utility.yul\":6214:6359   */\n      jump\t// out\n        /* \"#utility.yul\":6364:6551   */\n    tag_56:\n        /* \"#utility.yul\":6529:6543   */\n      swap1\n      iszero\n        /* \"#utility.yul\":6522:6544   */\n      iszero\n        /* \"#utility.yul\":6504:6545   */\n      dup2\n      mstore\n        /* \"#utility.yul\":6492:6494   */\n      0x20\n        /* \"#utility.yul\":6477:6495   */\n      add\n      swap1\n        /* \"#utility.yul\":6459:6551   */\n      jump\t// out\n        /* \"#utility.yul\":7480:7701   */\n    tag_493:\n      0x00\n        /* \"#utility.yul\":7629:7631   */\n      0x20\n        /* \"#utility.yul\":7618:7627   */\n      dup3\n        /* \"#utility.yul\":7611:7632   */\n      mstore\n        /* \"#utility.yul\":7649:7695   */\n      tag_351\n        /* \"#utility.yul\":7691:7693   */\n      0x20\n        /* \"#utility.yul\":7680:7689   */\n      dup4\n        /* \"#utility.yul\":7676:7694   */\n      add\n        /* \"#utility.yul\":7668:7674   */\n      dup5\n        /* \"#utility.yul\":7649:7695   */\n      tag_546\n      jump\t// in\n        /* \"#utility.yul\":7706:8108   */\n    tag_330:\n        /* \"#utility.yul\":7908:7910   */\n      0x20\n        /* \"#utility.yul\":7890:7911   */\n      dup1\n      dup3\n      mstore\n        /* \"#utility.yul\":7947:7949   */\n      0x26\n        /* \"#utility.yul\":7927:7945   */\n      swap1\n      dup3\n      add\n        /* \"#utility.yul\":7920:7950   */\n      mstore\n        /* \"#utility.yul\":7986:8020   */\n      0x4f776e61626c653a206e6577206f776e657220697320746865207a65726f2061\n        /* \"#utility.yul\":7981:7983   */\n      0x40\n        /* \"#utility.yul\":7966:7984   */\n      dup3\n      add\n        /* \"#utility.yul\":7959:8021   */\n      mstore\n      shl(0xd0, 0x646472657373)\n        /* \"#utility.yul\":8052:8054   */\n      0x60\n        /* \"#utility.yul\":8037:8055   */\n      dup3\n      add\n        /* \"#utility.yul\":8030:8066   */\n      mstore\n        /* \"#utility.yul\":8098:8101   */\n      0x80\n        /* \"#utility.yul\":8083:8102   */\n      add\n      swap1\n        /* \"#utility.yul\":7880:8108   */\n      jump\t// out\n        /* \"#utility.yul\":8113:8513   */\n    tag_272:\n        /* \"#utility.yul\":8315:8317   */\n      0x20\n        /* \"#utility.yul\":8297:8318   */\n      dup1\n      dup3\n      mstore\n        /* \"#utility.yul\":8354:8356   */\n      0x24\n        /* \"#utility.yul\":8334:8352   */\n      swap1\n      dup3\n      add\n        /* \"#utility.yul\":8327:8357   */\n      mstore\n        /* \"#utility.yul\":8393:8427   */\n      0x6578656375746f723a2063616c6c6572206973206e6f74207468652065786563\n        /* \"#utility.yul\":8388:8390   */\n      0x40\n        /* \"#utility.yul\":8373:8391   */\n      dup3\n      add\n        /* \"#utility.yul\":8366:8428   */\n      mstore\n      shl(0xe1, 0x3aba37b9)\n        /* \"#utility.yul\":8459:8461   */\n      0x60\n        /* \"#utility.yul\":8444:8462   */\n      dup3\n      add\n        /* \"#utility.yul\":8437:8471   */\n      mstore\n        /* \"#utility.yul\":8503:8506   */\n      0x80\n        /* \"#utility.yul\":8488:8507   */\n      add\n      swap1\n        /* \"#utility.yul\":8287:8513   */\n      jump\t// out\n        /* \"#utility.yul\":8518:8920   */\n    tag_473:\n        /* \"#utility.yul\":8720:8722   */\n      0x20\n        /* \"#utility.yul\":8702:8723   */\n      dup1\n      dup3\n      mstore\n        /* \"#utility.yul\":8759:8761   */\n      0x26\n        /* \"#utility.yul\":8739:8757   */\n      swap1\n      dup3\n      add\n        /* \"#utility.yul\":8732:8762   */\n      mstore\n        /* \"#utility.yul\":8798:8832   */\n      0x416464726573733a20696e73756666696369656e742062616c616e636520666f\n        /* \"#utility.yul\":8793:8795   */\n      0x40\n        /* \"#utility.yul\":8778:8796   */\n      dup3\n      add\n        /* \"#utility.yul\":8771:8833   */\n      mstore\n      shl(0xd2, 0x1c8818d85b1b)\n        /* \"#utility.yul\":8864:8866   */\n      0x60\n        /* \"#utility.yul\":8849:8867   */\n      dup3\n      add\n        /* \"#utility.yul\":8842:8878   */\n      mstore\n        /* \"#utility.yul\":8910:8913   */\n      0x80\n        /* \"#utility.yul\":8895:8914   */\n      add\n      swap1\n        /* \"#utility.yul\":8692:8920   */\n      jump\t// out\n        /* \"#utility.yul\":8925:9335   */\n    tag_210:\n        /* \"#utility.yul\":9127:9129   */\n      0x20\n        /* \"#utility.yul\":9109:9130   */\n      dup1\n      dup3\n      mstore\n        /* \"#utility.yul\":9166:9168   */\n      0x2e\n        /* \"#utility.yul\":9146:9164   */\n      swap1\n      dup3\n      add\n        /* \"#utility.yul\":9139:9169   */\n      mstore\n        /* \"#utility.yul\":9205:9239   */\n      0x496e697469616c697a61626c653a20636f6e747261637420697320616c726561\n        /* \"#utility.yul\":9200:9202   */\n      0x40\n        /* \"#utility.yul\":9185:9203   */\n      dup3\n      add\n        /* \"#utility.yul\":9178:9240   */\n      mstore\n      shl(0x92, 0x191e481a5b9a5d1a585b1a5e9959)\n        /* \"#utility.yul\":9271:9273   */\n      0x60\n        /* \"#utility.yul\":9256:9274   */\n      dup3\n      add\n        /* \"#utility.yul\":9249:9293   */\n      mstore\n        /* \"#utility.yul\":9325:9328   */\n      0x80\n        /* \"#utility.yul\":9310:9329   */\n      add\n      swap1\n        /* \"#utility.yul\":9099:9335   */\n      jump\t// out\n        /* \"#utility.yul\":9340:9696   */\n    tag_192:\n        /* \"#utility.yul\":9542:9544   */\n      0x20\n        /* \"#utility.yul\":9524:9545   */\n      dup1\n      dup3\n      mstore\n        /* \"#utility.yul\":9561:9579   */\n      dup2\n      dup2\n      add\n        /* \"#utility.yul\":9554:9584   */\n      mstore\n        /* \"#utility.yul\":9620:9654   */\n      0x4f776e61626c653a2063616c6c6572206973206e6f7420746865206f776e6572\n        /* \"#utility.yul\":9615:9617   */\n      0x40\n        /* \"#utility.yul\":9600:9618   */\n      dup3\n      add\n        /* \"#utility.yul\":9593:9655   */\n      mstore\n        /* \"#utility.yul\":9687:9689   */\n      0x60\n        /* \"#utility.yul\":9672:9690   */\n      add\n      swap1\n        /* \"#utility.yul\":9514:9696   */\n      jump\t// out\n        /* \"#utility.yul\":9701:10054   */\n    tag_478:\n        /* \"#utility.yul\":9903:9905   */\n      0x20\n        /* \"#utility.yul\":9885:9906   */\n      dup1\n      dup3\n      mstore\n        /* \"#utility.yul\":9942:9944   */\n      0x1d\n        /* \"#utility.yul\":9922:9940   */\n      swap1\n      dup3\n      add\n        /* \"#utility.yul\":9915:9945   */\n      mstore\n        /* \"#utility.yul\":9981:10012   */\n      0x416464726573733a2063616c6c20746f206e6f6e2d636f6e7472616374000000\n        /* \"#utility.yul\":9976:9978   */\n      0x40\n        /* \"#utility.yul\":9961:9979   */\n      dup3\n      add\n        /* \"#utility.yul\":9954:10013   */\n      mstore\n        /* \"#utility.yul\":10045:10047   */\n      0x60\n        /* \"#utility.yul\":10030:10048   */\n      add\n      swap1\n        /* \"#utility.yul\":9875:10054   */\n      jump\t// out\n        /* \"#utility.yul\":10059:10465   */\n    tag_457:\n        /* \"#utility.yul\":10261:10263   */\n      0x20\n        /* \"#utility.yul\":10243:10264   */\n      dup1\n      dup3\n      mstore\n        /* \"#utility.yul\":10300:10302   */\n      0x2a\n        /* \"#utility.yul\":10280:10298   */\n      swap1\n      dup3\n      add\n        /* \"#utility.yul\":10273:10303   */\n      mstore\n        /* \"#utility.yul\":10339:10373   */\n      0x5361666545524332303a204552433230206f7065726174696f6e20646964206e\n        /* \"#utility.yul\":10334:10336   */\n      0x40\n        /* \"#utility.yul\":10319:10337   */\n      dup3\n      add\n        /* \"#utility.yul\":10312:10374   */\n      mstore\n      shl(0xb2, 0x1bdd081cdd58d8d95959)\n        /* \"#utility.yul\":10405:10407   */\n      0x60\n        /* \"#utility.yul\":10390:10408   */\n      dup3\n      add\n        /* \"#utility.yul\":10383:10423   */\n      mstore\n        /* \"#utility.yul\":10455:10458   */\n      0x80\n        /* \"#utility.yul\":10440:10459   */\n      add\n      swap1\n        /* \"#utility.yul\":10233:10465   */\n      jump\t// out\n        /* \"#utility.yul\":10470:10647   */\n    tag_50:\n        /* \"#utility.yul\":10616:10641   */\n      swap1\n      dup2\n      mstore\n        /* \"#utility.yul\":10604:10606   */\n      0x20\n        /* \"#utility.yul\":10589:10607   */\n      add\n      swap1\n        /* \"#utility.yul\":10571:10647   */\n      jump\t// out\n        /* \"#utility.yul\":10652:11112   */\n    tag_386:\n      0x00\n        /* \"#utility.yul\":10883:10889   */\n      dup6\n        /* \"#utility.yul\":10872:10881   */\n      dup3\n        /* \"#utility.yul\":10865:10890   */\n      mstore\n        /* \"#utility.yul\":10926:10932   */\n      dup5\n        /* \"#utility.yul\":10921:10923   */\n      0x20\n        /* \"#utility.yul\":10910:10919   */\n      dup4\n        /* \"#utility.yul\":10906:10924   */\n      add\n        /* \"#utility.yul\":10899:10933   */\n      mstore\n        /* \"#utility.yul\":10998:10999   */\n      0x01\n        /* \"#utility.yul\":10994:10995   */\n      dup1\n        /* \"#utility.yul\":10989:10992   */\n      0xa0\n        /* \"#utility.yul\":10985:10996   */\n      shl\n        /* \"#utility.yul\":10981:11000   */\n      sub\n        /* \"#utility.yul\":10973:10979   */\n      dup5\n        /* \"#utility.yul\":10969:11001   */\n      and\n        /* \"#utility.yul\":10964:10966   */\n      0x40\n        /* \"#utility.yul\":10953:10962   */\n      dup4\n        /* \"#utility.yul\":10949:10967   */\n      add\n        /* \"#utility.yul\":10942:11002   */\n      mstore\n        /* \"#utility.yul\":11038:11041   */\n      0x80\n        /* \"#utility.yul\":11033:11035   */\n      0x60\n        /* \"#utility.yul\":11022:11031   */\n      dup4\n        /* \"#utility.yul\":11018:11036   */\n      add\n        /* \"#utility.yul\":11011:11042   */\n      mstore\n        /* \"#utility.yul\":11059:11106   */\n      tag_571\n        /* \"#utility.yul\":11101:11104   */\n      0x80\n        /* \"#utility.yul\":11090:11099   */\n      dup4\n        /* \"#utility.yul\":11086:11105   */\n      add\n        /* \"#utility.yul\":11078:11084   */\n      dup5\n        /* \"#utility.yul\":11059:11106   */\n      tag_546\n      jump\t// in\n    tag_571:\n        /* \"#utility.yul\":11051:11106   */\n      swap7\n        /* \"#utility.yul\":10855:11112   */\n      swap6\n      pop\n      pop\n      pop\n      pop\n      pop\n      pop\n      jump\t// out\n        /* \"#utility.yul\":11117:11446   */\n    tag_430:\n        /* \"#utility.yul\":11313:11338   */\n      swap3\n      dup4\n      mstore\n        /* \"#utility.yul\":11369:11371   */\n      0x20\n        /* \"#utility.yul\":11354:11372   */\n      dup4\n      add\n        /* \"#utility.yul\":11347:11381   */\n      swap2\n      swap1\n      swap2\n      mstore\n        /* \"#utility.yul\":11424:11438   */\n      iszero\n        /* \"#utility.yul\":11417:11439   */\n      iszero\n        /* \"#utility.yul\":11412:11414   */\n      0x40\n        /* \"#utility.yul\":11397:11415   */\n      dup3\n      add\n        /* \"#utility.yul\":11390:11440   */\n      mstore\n        /* \"#utility.yul\":11301:11303   */\n      0x60\n        /* \"#utility.yul\":11286:11304   */\n      add\n      swap1\n        /* \"#utility.yul\":11268:11446   */\n      jump\t// out\n        /* \"#utility.yul\":11451:11579   */\n    tag_466:\n      0x00\n        /* \"#utility.yul\":11522:11523   */\n      dup3\n        /* \"#utility.yul\":11518:11524   */\n      not\n        /* \"#utility.yul\":11515:11516   */\n      dup3\n        /* \"#utility.yul\":11512:11525   */\n      gt\n        /* \"#utility.yul\":11509:11511   */\n      iszero\n      tag_575\n      jumpi\n        /* \"#utility.yul\":11528:11546   */\n      tag_575\n      tag_576\n      jump\t// in\n    tag_575:\n      pop\n        /* \"#utility.yul\":11564:11573   */\n      add\n      swap1\n        /* \"#utility.yul\":11499:11579   */\n      jump\t// out\n        /* \"#utility.yul\":11584:11801   */\n    tag_355:\n      0x00\n        /* \"#utility.yul\":11650:11651   */\n      dup3\n        /* \"#utility.yul\":11640:11642   */\n      tag_578\n      jumpi\n      shl(0xe0, 0x4e487b71)\n        /* \"#utility.yul\":11675:11706   */\n      dup2\n      mstore\n        /* \"#utility.yul\":11729:11733   */\n      0x12\n        /* \"#utility.yul\":11726:11727   */\n      0x04\n        /* \"#utility.yul\":11719:11734   */\n      mstore\n        /* \"#utility.yul\":11757:11761   */\n      0x24\n        /* \"#utility.yul\":11682:11683   */\n      dup2\n        /* \"#utility.yul\":11747:11762   */\n      revert\n        /* \"#utility.yul\":11640:11642   */\n    tag_578:\n      pop\n        /* \"#utility.yul\":11786:11795   */\n      div\n      swap1\n        /* \"#utility.yul\":11630:11801   */\n      jump\t// out\n        /* \"#utility.yul\":11806:12259   */\n    tag_579:\n        /* \"#utility.yul\":11902:11908   */\n      dup1\n        /* \"#utility.yul\":11925:11930   */\n      dup3\n        /* \"#utility.yul\":11939:12253   */\n    tag_581:\n        /* \"#utility.yul\":11988:11989   */\n      0x01\n        /* \"#utility.yul\":12025:12027   */\n      dup1\n        /* \"#utility.yul\":12015:12023   */\n      dup7\n        /* \"#utility.yul\":12012:12028   */\n      gt\n        /* \"#utility.yul\":12002:12004   */\n      tag_584\n      jumpi\n        /* \"#utility.yul\":12032:12037   */\n      pop\n      jump(tag_583)\n        /* \"#utility.yul\":12002:12004   */\n    tag_584:\n        /* \"#utility.yul\":12073:12077   */\n      dup2\n        /* \"#utility.yul\":12068:12071   */\n      dup8\n        /* \"#utility.yul\":12064:12078   */\n      div\n        /* \"#utility.yul\":12058:12062   */\n      dup3\n        /* \"#utility.yul\":12055:12079   */\n      gt\n        /* \"#utility.yul\":12052:12054   */\n      iszero\n      tag_586\n      jumpi\n        /* \"#utility.yul\":12082:12100   */\n      tag_586\n      tag_576\n      jump\t// in\n    tag_586:\n        /* \"#utility.yul\":12132:12134   */\n      dup1\n        /* \"#utility.yul\":12122:12130   */\n      dup7\n        /* \"#utility.yul\":12118:12135   */\n      and\n        /* \"#utility.yul\":12115:12117   */\n      iszero\n      tag_587\n      jumpi\n        /* \"#utility.yul\":12147:12163   */\n      swap2\n      dup2\n      mul\n      swap2\n        /* \"#utility.yul\":12115:12117   */\n    tag_587:\n        /* \"#utility.yul\":12226:12243   */\n      swap5\n      swap1\n      swap5\n      shr\n      swap4\n        /* \"#utility.yul\":12186:12201   */\n      dup1\n      mul\n        /* \"#utility.yul\":11939:12253   */\n      jump(tag_581)\n    tag_583:\n        /* \"#utility.yul\":11883:12259   */\n      swap5\n      pop\n      swap5\n      swap3\n      pop\n      pop\n      pop\n      jump\t// out\n        /* \"#utility.yul\":12264:12403   */\n    tag_414:\n      0x00\n        /* \"#utility.yul\":12353:12397   */\n      tag_351\n      not(0x00)\n        /* \"#utility.yul\":12380:12388   */\n      dup5\n        /* \"#utility.yul\":12374:12378   */\n      dup5\n        /* \"#utility.yul\":12408:13330   */\n      0x00\n        /* \"#utility.yul\":12492:12500   */\n      dup3\n        /* \"#utility.yul\":12482:12484   */\n      tag_592\n      jumpi\n      pop\n        /* \"#utility.yul\":12533:12534   */\n      0x01\n        /* \"#utility.yul\":12547:12552   */\n      jump(tag_351)\n        /* \"#utility.yul\":12482:12484   */\n    tag_592:\n        /* \"#utility.yul\":12581:12585   */\n      dup2\n        /* \"#utility.yul\":12571:12573   */\n      tag_593\n      jumpi\n      pop\n        /* \"#utility.yul\":12618:12619   */\n      0x00\n        /* \"#utility.yul\":12632:12637   */\n      jump(tag_351)\n        /* \"#utility.yul\":12571:12573   */\n    tag_593:\n        /* \"#utility.yul\":12663:12667   */\n      dup2\n        /* \"#utility.yul\":12681:12682   */\n      0x01\n        /* \"#utility.yul\":12676:12735   */\n      dup2\n      eq\n      tag_595\n      jumpi\n        /* \"#utility.yul\":12749:12750   */\n      0x02\n        /* \"#utility.yul\":12744:12927   */\n      dup2\n      eq\n      tag_596\n      jumpi\n        /* \"#utility.yul\":12656:12927   */\n      jump(tag_594)\n        /* \"#utility.yul\":12676:12735   */\n    tag_595:\n        /* \"#utility.yul\":12706:12707   */\n      0x01\n        /* \"#utility.yul\":12697:12707   */\n      swap2\n      pop\n        /* \"#utility.yul\":12720:12725   */\n      pop\n      jump(tag_351)\n        /* \"#utility.yul\":12744:12927   */\n    tag_596:\n        /* \"#utility.yul\":12781:12784   */\n      0xff\n        /* \"#utility.yul\":12771:12779   */\n      dup5\n        /* \"#utility.yul\":12768:12785   */\n      gt\n        /* \"#utility.yul\":12765:12767   */\n      iszero\n      tag_598\n      jumpi\n        /* \"#utility.yul\":12788:12806   */\n      tag_598\n      tag_576\n      jump\t// in\n    tag_598:\n        /* \"#utility.yul\":12844:12845   */\n      0x01\n        /* \"#utility.yul\":12834:12842   */\n      dup5\n        /* \"#utility.yul\":12830:12846   */\n      shl\n        /* \"#utility.yul\":12821:12846   */\n      swap2\n      pop\n        /* \"#utility.yul\":12872:12875   */\n      dup5\n        /* \"#utility.yul\":12865:12870   */\n      dup3\n        /* \"#utility.yul\":12862:12876   */\n      gt\n        /* \"#utility.yul\":12859:12861   */\n      iszero\n      tag_600\n      jumpi\n        /* \"#utility.yul\":12879:12897   */\n      tag_600\n      tag_576\n      jump\t// in\n    tag_600:\n        /* \"#utility.yul\":12912:12917   */\n      pop\n      jump(tag_351)\n        /* \"#utility.yul\":12656:12927   */\n    tag_594:\n      pop\n        /* \"#utility.yul\":13011:13013   */\n      0x20\n        /* \"#utility.yul\":13001:13009   */\n      dup4\n        /* \"#utility.yul\":12998:13014   */\n      lt\n        /* \"#utility.yul\":12992:12995   */\n      0x0133\n        /* \"#utility.yul\":12986:12990   */\n      dup4\n        /* \"#utility.yul\":12983:12996   */\n      lt\n        /* \"#utility.yul\":12979:13015   */\n      and\n        /* \"#utility.yul\":12973:12975   */\n      0x4e\n        /* \"#utility.yul\":12963:12971   */\n      dup5\n        /* \"#utility.yul\":12960:12976   */\n      lt\n        /* \"#utility.yul\":12955:12957   */\n      0x0b\n        /* \"#utility.yul\":12949:12953   */\n      dup5\n        /* \"#utility.yul\":12946:12958   */\n      lt\n        /* \"#utility.yul\":12942:12977   */\n      and\n        /* \"#utility.yul\":12939:13016   */\n      or\n        /* \"#utility.yul\":12936:12938   */\n      iszero\n      tag_601\n      jumpi\n      pop\n        /* \"#utility.yul\":13048:13067   */\n      dup2\n      dup2\n      exp\n        /* \"#utility.yul\":13083:13097   */\n      dup4\n      dup2\n      gt\n        /* \"#utility.yul\":13080:13082   */\n      iszero\n      tag_603\n      jumpi\n        /* \"#utility.yul\":13100:13118   */\n      tag_603\n      tag_576\n      jump\t// in\n    tag_603:\n        /* \"#utility.yul\":13133:13138   */\n      jump(tag_351)\n        /* \"#utility.yul\":12936:12938   */\n    tag_601:\n        /* \"#utility.yul\":13180:13222   */\n      tag_604\n        /* \"#utility.yul\":13218:13221   */\n      dup5\n        /* \"#utility.yul\":13208:13216   */\n      dup5\n        /* \"#utility.yul\":13202:13206   */\n      dup5\n        /* \"#utility.yul\":13199:13200   */\n      0x01\n        /* \"#utility.yul\":13180:13222   */\n      tag_579\n      jump\t// in\n    tag_604:\n        /* \"#utility.yul\":13255:13261   */\n      dup1\n        /* \"#utility.yul\":13250:13253   */\n      dup7\n        /* \"#utility.yul\":13246:13262   */\n      div\n        /* \"#utility.yul\":13237:13244   */\n      dup3\n        /* \"#utility.yul\":13234:13263   */\n      gt\n        /* \"#utility.yul\":13231:13233   */\n      iszero\n      tag_606\n      jumpi\n        /* \"#utility.yul\":13266:13284   */\n      tag_606\n      tag_576\n      jump\t// in\n    tag_606:\n        /* \"#utility.yul\":13304:13324   */\n      mul\n      swap5\n        /* \"#utility.yul\":12472:13330   */\n      swap4\n      pop\n      pop\n      pop\n      pop\n      jump\t// out\n        /* \"#utility.yul\":13335:13503   */\n    tag_352:\n      0x00\n        /* \"#utility.yul\":13441:13442   */\n      dup2\n        /* \"#utility.yul\":13437:13438   */\n      0x00\n        /* \"#utility.yul\":13433:13439   */\n      not\n        /* \"#utility.yul\":13429:13443   */\n      div\n        /* \"#utility.yul\":13426:13427   */\n      dup4\n        /* \"#utility.yul\":13423:13444   */\n      gt\n        /* \"#utility.yul\":13418:13419   */\n      dup3\n        /* \"#utility.yul\":13411:13420   */\n      iszero\n        /* \"#utility.yul\":13404:13421   */\n      iszero\n        /* \"#utility.yul\":13400:13445   */\n      and\n        /* \"#utility.yul\":13397:13399   */\n      iszero\n      tag_609\n      jumpi\n        /* \"#utility.yul\":13448:13466   */\n      tag_609\n      tag_576\n      jump\t// in\n    tag_609:\n      pop\n        /* \"#utility.yul\":13488:13497   */\n      mul\n      swap1\n        /* \"#utility.yul\":13387:13503   */\n      jump\t// out\n        /* \"#utility.yul\":13508:13633   */\n    tag_358:\n      0x00\n        /* \"#utility.yul\":13576:13577   */\n      dup3\n        /* \"#utility.yul\":13573:13574   */\n      dup3\n        /* \"#utility.yul\":13570:13578   */\n      lt\n        /* \"#utility.yul\":13567:13569   */\n      iszero\n      tag_612\n      jumpi\n        /* \"#utility.yul\":13581:13599   */\n      tag_612\n      tag_576\n      jump\t// in\n    tag_612:\n      pop\n        /* \"#utility.yul\":13618:13627   */\n      sub\n      swap1\n        /* \"#utility.yul\":13557:13633   */\n      jump\t// out\n        /* \"#utility.yul\":13638:13896   */\n    tag_549:\n        /* \"#utility.yul\":13710:13711   */\n      0x00\n        /* \"#utility.yul\":13720:13833   */\n    tag_614:\n        /* \"#utility.yul\":13734:13740   */\n      dup4\n        /* \"#utility.yul\":13731:13732   */\n      dup2\n        /* \"#utility.yul\":13728:13741   */\n      lt\n        /* \"#utility.yul\":13720:13833   */\n      iszero\n      tag_616\n      jumpi\n        /* \"#utility.yul\":13810:13821   */\n      dup2\n      dup2\n      add\n        /* \"#utility.yul\":13804:13822   */\n      mload\n        /* \"#utility.yul\":13791:13802   */\n      dup4\n      dup3\n      add\n        /* \"#utility.yul\":13784:13823   */\n      mstore\n        /* \"#utility.yul\":13756:13758   */\n      0x20\n        /* \"#utility.yul\":13749:13759   */\n      add\n        /* \"#utility.yul\":13720:13833   */\n      jump(tag_614)\n    tag_616:\n        /* \"#utility.yul\":13851:13857   */\n      dup4\n        /* \"#utility.yul\":13848:13849   */\n      dup2\n        /* \"#utility.yul\":13845:13858   */\n      gt\n        /* \"#utility.yul\":13842:13844   */\n      iszero\n      tag_617\n      jumpi\n        /* \"#utility.yul\":13886:13887   */\n      0x00\n        /* \"#utility.yul\":13877:13883   */\n      dup5\n        /* \"#utility.yul\":13872:13875   */\n      dup5\n        /* \"#utility.yul\":13868:13884   */\n      add\n        /* \"#utility.yul\":13861:13888   */\n      mstore\n        /* \"#utility.yul\":13842:13844   */\n    tag_617:\n      pop\n        /* \"#utility.yul\":13691:13896   */\n      pop\n      pop\n      pop\n      jump\t// out\n        /* \"#utility.yul\":13901:14028   */\n    tag_576:\n        /* \"#utility.yul\":13962:13972   */\n      0x4e487b71\n        /* \"#utility.yul\":13957:13960   */\n      0xe0\n        /* \"#utility.yul\":13953:13973   */\n      shl\n        /* \"#utility.yul\":13950:13951   */\n      0x00\n        /* \"#utility.yul\":13943:13974   */\n      mstore\n        /* \"#utility.yul\":13993:13997   */\n      0x11\n        /* \"#utility.yul\":13990:13991   */\n      0x04\n        /* \"#utility.yul\":13983:13998   */\n      mstore\n        /* \"#utility.yul\":14017:14021   */\n      0x24\n        /* \"#utility.yul\":14014:14015   */\n      0x00\n        /* \"#utility.yul\":14007:14022   */\n      revert\n        /* \"#utility.yul\":14033:14166   */\n    tag_501:\n      sub(shl(0xa0, 0x01), 0x01)\n        /* \"#utility.yul\":14110:14141   */\n      dup2\n      and\n        /* \"#utility.yul\":14100:14142   */\n      dup2\n      eq\n        /* \"#utility.yul\":14090:14092   */\n      tag_331\n      jumpi\n        /* \"#utility.yul\":14156:14157   */\n      0x00\n        /* \"#utility.yul\":14153:14154   */\n      dup1\n        /* \"#utility.yul\":14146:14158   */\n      revert\n        /* \"#utility.yul\":14171:14291   */\n    tag_509:\n        /* \"#utility.yul\":14259:14264   */\n      dup1\n        /* \"#utility.yul\":14252:14265   */\n      iszero\n        /* \"#utility.yul\":14245:14266   */\n      iszero\n        /* \"#utility.yul\":14238:14243   */\n      dup2\n        /* \"#utility.yul\":14235:14267   */\n      eq\n        /* \"#utility.yul\":14225:14227   */\n      tag_331\n      jumpi\n        /* \"#utility.yul\":14281:14282   */\n      0x00\n        /* \"#utility.yul\":14278:14279   */\n      dup1\n        /* \"#utility.yul\":14271:14283   */\n      revert\n\n    auxdata: 0xa264697066735822122058a69dcd652b30ebe94125dc9311d523994ad71464a9485b6c18098341c1bfa364736f6c63430008000033\n}\n",
				"bytecode": {
					"linkReferences": {},
					"object": "608060405234801561001057600080fd5b50611f87806100206000396000f3fe608060405234801561001057600080fd5b50600436106102275760003560e01c80638da5cb5b11610130578063bd0b1f44116100b8578063db7f521a1161007c578063db7f521a146103f8578063ec1f1f691461040b578063f106845414610413578063f2fde38b1461041b578063f6d7eade1461042e57610227565b8063bd0b1f44146103ba578063c83dd231146103c2578063d10c06a2146103ca578063d477f05f146103d2578063d4f26c51146103e557610227565b8063a36a7526116100ff578063a36a752614610371578063aaf5bfc314610384578063aaf5eb6814610397578063af5518c41461039f578063b8bb97a1146103b257610227565b80638da5cb5b1461034657806391cca3db1461034e578063930ed033146103565780639da5b0d51461036957610227565b80633e413bee116101b35780634ecaac41116101825780634ecaac411461031357806355c746d11461031b57806358de5de81461032e578063715018a6146103365780637e47961c1461033e57610227565b80633e413bee146102dd5780634591db50146102e557806348c7e528146102f85780634ae6a0271461030b57610227565b80632c535a52116101fa5780632c535a52146102905780633011d3d51461029857806335876476146102ad57806336e9332d146102c25780633c850e1e146102ca57610227565b806316d039931461022c5780631b0d8aab1461024a5780631e1bff3f1461026a57806327c42a501461027d575b600080fd5b610234610436565b6040516102419190611d0e565b60405180910390f35b61025d610258366004611a3c565b61043c565b6040516102419190611b1c565b61025d6102783660046118be565b610494565b61025d61028b366004611a3c565b610504565b61023461054e565b6102a0610554565b6040516102419190611ad5565b6102c06102bb366004611959565b610563565b005b6102a06106a2565b61025d6102d8366004611a3c565b6106b1565b6102a06106fb565b61025d6102f3366004611921565b61070a565b61025d610306366004611886565b61076c565b610234610781565b6102a0610787565b61025d610329366004611921565b610796565b61025d6107f8565b6102c0610808565b6102a0610853565b6102a0610862565b6102a0610872565b61025d6103643660046118f6565b610881565b61025d6108df565b61025d61037f366004611886565b6108ef565b61025d610392366004611886565b610955565b6102346109bb565b61025d6103ad366004611a3c565b6109c1565b6102a0610a0b565b610234610a1a565b6102a0610a20565b61025d610a2f565b61025d6103e0366004611886565b610c73565b61025d6103f3366004611886565b610cd9565b61025d610406366004611886565b610d3f565b6102a0610da5565b610234610db4565b6102c0610429366004611886565b610dba565b6102a0610e2b565b60725481565b6000610446610e3a565b6001600160a01b0316610457610862565b6001600160a01b0316146104865760405162461bcd60e51b815260040161047d90611c58565b60405180910390fd5b50607381905560015b919050565b600061049e610e3a565b6001600160a01b03166104af610862565b6001600160a01b0316146104d55760405162461bcd60e51b815260040161047d90611c58565b506001600160a01b0382166000908152606560205260409020805482151560ff19909116179055600192915050565b600061050e610e3a565b6001600160a01b031661051f610862565b6001600160a01b0316146105455760405162461bcd60e51b815260040161047d90611c58565b50606e55600190565b606f5481565b6066546001600160a01b031681565b600054610100900460ff168061057c575060005460ff16155b6105985760405162461bcd60e51b815260040161047d90611c0a565b600054610100900460ff161580156105c3576000805460ff1961ff0019909116610100171660011790555b6105cb610e3e565b606c80546001600160a01b03199081166001600160a01b038a811691909117909255606d805482168b8416179055606680548216898416179055606880548216878416179055606980548216868416179055606a8054339083168117909155606b805483169091179055611388606e556109c4606f8190556070556127106071556103e860725560748054600160a01b60ff60a01b1990911617600161ff0160a01b031916858416179055606780549091169187169190911790558015610698576000805461ff00191690555b5050505050505050565b6074546001600160a01b031681565b60006106bb610e3a565b6001600160a01b03166106cc610862565b6001600160a01b0316146106f25760405162461bcd60e51b815260040161047d90611c58565b50607055600190565b6067546001600160a01b031681565b6000610714610e3a565b6001600160a01b0316610725610862565b6001600160a01b03161461074b5760405162461bcd60e51b815260040161047d90611c58565b5060748054821515600160a01b0260ff60a01b199091161790556001919050565b60656020526000908152604090205460ff1681565b60705481565b6068546001600160a01b031681565b60006107a0610e3a565b6001600160a01b03166107b1610862565b6001600160a01b0316146107d75760405162461bcd60e51b815260040161047d90611c58565b5060748054821515600160a81b0260ff60a81b199091161790556001919050565b607454600160a81b900460ff1681565b610810610e3a565b6001600160a01b0316610821610862565b6001600160a01b0316146108475760405162461bcd60e51b815260040161047d90611c58565b6108516000610ec2565b565b6075546001600160a01b031681565b6033546001600160a01b03165b90565b606b546001600160a01b031681565b600061088b610e3a565b6001600160a01b031661089c610862565b6001600160a01b0316146108c25760405162461bcd60e51b815260040161047d90611c58565b6108d66001600160a01b0384163384610f14565b50600192915050565b607454600160a01b900460ff1681565b60006108f9610e3a565b6001600160a01b031661090a610862565b6001600160a01b0316146109305760405162461bcd60e51b815260040161047d90611c58565b50606a80546001600160a01b0383166001600160a01b03199091161790556001919050565b600061095f610e3a565b6001600160a01b0316610970610862565b6001600160a01b0316146109965760405162461bcd60e51b815260040161047d90611c58565b50606780546001600160a01b0383166001600160a01b03199091161790556001919050565b60715481565b60006109cb610e3a565b6001600160a01b03166109dc610862565b6001600160a01b031614610a025760405162461bcd60e51b815260040161047d90611c58565b50606f55600190565b6069546001600160a01b031681565b606e5481565b606d546001600160a01b031681565b3360009081526065602052604081205460ff16610a5e5760405162461bcd60e51b815260040161047d90611b80565b6066546040516370a0823160e01b81526000916001600160a01b0316906370a0823190610a8f903090600401611ad5565b60206040518083038186803b158015610aa757600080fd5b505afa158015610abb573d6000803e3d6000fd5b505050506040513d601f19601f82011682018060405250810190610adf9190611a54565b905080610af057600191505061086f565b6000610b13607154610b0d606e5485610f6f90919063ffffffff16565b90610f82565b90506000610b32607154610b0d606f5486610f6f90919063ffffffff16565b90506000610b4a82610b448686610f8e565b90610f8e565b90506000610b5784610f9a565b606954606854919250610b77916001600160a01b03908116911683610f14565b606a54606654610b94916001600160a01b03918216911685610f14565b606b54606654610bb1916001600160a01b03918216911684610f14565b607454600160a01b900460ff1615610bcb57610bcb611229565b607454600160a81b900460ff1615610c6757607560009054906101000a90046001600160a01b03166001600160a01b031663796c7be76040518163ffffffff1660e01b8152600401602060405180830381600087803b158015610c2d57600080fd5b505af1158015610c41573d6000803e3d6000fd5b505050506040513d601f19601f82011682018060405250810190610c65919061193d565b505b60019550505050505090565b6000610c7d610e3a565b6001600160a01b0316610c8e610862565b6001600160a01b031614610cb45760405162461bcd60e51b815260040161047d90611c58565b50606b80546001600160a01b0383166001600160a01b03199091161790556001919050565b6000610ce3610e3a565b6001600160a01b0316610cf4610862565b6001600160a01b031614610d1a5760405162461bcd60e51b815260040161047d90611c58565b50607480546001600160a01b0383166001600160a01b03199091161790556001919050565b6000610d49610e3a565b6001600160a01b0316610d5a610862565b6001600160a01b031614610d805760405162461bcd60e51b815260040161047d90611c58565b50607580546001600160a01b0383166001600160a01b03199091161790556001919050565b606a546001600160a01b031681565b60735481565b610dc2610e3a565b6001600160a01b0316610dd3610862565b6001600160a01b031614610df95760405162461bcd60e51b815260040161047d90611c58565b6001600160a01b038116610e1f5760405162461bcd60e51b815260040161047d90611b3a565b610e2881610ec2565b50565b606c546001600160a01b031681565b3390565b600054610100900460ff1680610e57575060005460ff16155b610e735760405162461bcd60e51b815260040161047d90611c0a565b600054610100900460ff16158015610e9e576000805460ff1961ff0019909116610100171660011790555b610ea6611598565b610eae61160b565b8015610e28576000805461ff001916905550565b603380546001600160a01b038381166001600160a01b0319831681179093556040519116919082907f8be0079c531659141344cd1fd0a4f28419497f9722a3daafe3b4186f6b6457e090600090a35050565b610f6a8363a9059cbb60e01b8484604051602401610f33929190611b03565b60408051601f198184030181529190526020810180516001600160e01b03166001600160e01b03199093169290921790915261167b565b505050565b6000610f7b8284611eb2565b9392505050565b6000610f7b8284611d7e565b6000610f7b8284611ed1565b606d5460685460665460405163e6a4390560e01b815260009384936001600160a01b039182169363e6a4390593610fdb939283169290911690600401611ae9565b60206040518083038186803b158015610ff357600080fd5b505afa158015611007573d6000803e3d6000fd5b505050506040513d601f19601f8201168201806040525081019061102b91906118a2565b606654909150611045906001600160a01b03168285610f14565b600080826001600160a01b0316630902f1ac6040518163ffffffff1660e01b815260040160606040518083038186803b15801561108157600080fd5b505afa158015611095573d6000803e3d6000fd5b505050506040513d601f19601f820116820180604052508101906110b991906119ee565b506001600160701b031691506001600160701b031691506000836001600160a01b0316630dfe16816040518163ffffffff1660e01b815260040160206040518083038186803b15801561110b57600080fd5b505afa15801561111f573d6000803e3d6000fd5b505050506040513d601f19601f8201168201806040525081019061114391906118a2565b60665490915060009081906001600160a01b0380851691161461116757838561116a565b84845b91509150600061117b89848461170a565b60665490915060009081906001600160a01b038781169116146111a0578260006111a4565b6000835b6040805160008152602081019182905263022c0d9f60e01b90915291935091506001600160a01b038a169063022c0d9f906111e89085908590309060248101611d17565b600060405180830381600087803b15801561120257600080fd5b505af1158015611216573d6000803e3d6000fd5b50949d9c50505050505050505050505050565b606d5460675460665460405163e6a4390560e01b81526000936001600160a01b039081169363e6a439059361126693918316921690600401611ae9565b60206040518083038186803b15801561127e57600080fd5b505afa158015611292573d6000803e3d6000fd5b505050506040513d601f19601f820116820180604052508101906112b691906118a2565b6066546040516370a0823160e01b81529192506000916001600160a01b03909116906370a08231906112ec908590600401611ad5565b60206040518083038186803b15801561130457600080fd5b505afa158015611318573d6000803e3d6000fd5b505050506040513d601f19601f8201168201806040525081019061133c9190611a54565b6067546040516370a0823160e01b81529192506000916001600160a01b03909116906370a0823190611372908690600401611ad5565b60206040518083038186803b15801561138a57600080fd5b505afa15801561139e573d6000803e3d6000fd5b505050506040513d601f19601f820116820180604052508101906113c29190611a54565b90506000606760009054906101000a90046001600160a01b03166001600160a01b031663313ce5676040518163ffffffff1660e01b815260040160206040518083038186803b15801561141457600080fd5b505afa158015611428573d6000803e3d6000fd5b505050506040513d601f19601f8201168201806040525081019061144c9190611a6c565b60ff1690506000601282101561146a57611467826012611ed1565b90505b600061147782600a611de4565b61148990670de0b6b3a7640000611eb2565b9050600061149b86610b0d8785610f6f565b9050600080670de0b6b3a76400008311156114f6576114cc655af3107a4000610b0d85670de0b6b3a7640000610f8e565b90506072548111156114e157600091506114f1565b6072546114ee9082610f8e565b91505b611525565b611512655af3107a4000610b0d85670de0b6b3a7640000611ed1565b6072549091506115229082611758565b91505b60745460735460405163236535f560e11b81526001600160a01b03909216916346ca6bea9161155b918690600190600401611d4e565b600060405180830381600087803b15801561157557600080fd5b505af1158015611589573d6000803e3d6000fd5b50505050505050505050505050565b600054610100900460ff16806115b1575060005460ff16155b6115cd5760405162461bcd60e51b815260040161047d90611c0a565b600054610100900460ff16158015610eae576000805460ff1961ff0019909116610100171660011790558015610e28576000805461ff001916905550565b600054610100900460ff1680611624575060005460ff16155b6116405760405162461bcd60e51b815260040161047d90611c0a565b600054610100900460ff1615801561166b576000805460ff1961ff0019909116610100171660011790555b610eae611676610e3a565b610ec2565b60006116d0826040518060400160405280602081526020017f5361666545524332303a206c6f772d6c6576656c2063616c6c206661696c6564815250856001600160a01b03166117649092919063ffffffff16565b805190915015610f6a57808060200190518101906116ee919061193d565b610f6a5760405162461bcd60e51b815260040161047d90611cc4565b600080611719856126f2610f6f565b905060006117278285610f6f565b905060006117418361173b88612710610f6f565b90611758565b905061174d8183611d7e565b979650505050505050565b6000610f7b8284611d66565b6060611773848460008561177b565b949350505050565b60608247101561179d5760405162461bcd60e51b815260040161047d90611bc4565b6117a685611830565b6117c25760405162461bcd60e51b815260040161047d90611c8d565b600080866001600160a01b031685876040516117de9190611ab9565b60006040518083038185875af1925050503d806000811461181b576040519150601f19603f3d011682016040523d82523d6000602084013e611820565b606091505b509150915061174d828286611836565b3b151590565b60608315611845575081610f7b565b8251156118555782518084602001fd5b8160405162461bcd60e51b815260040161047d9190611b27565b80516001600160701b038116811461048f57600080fd5b600060208284031215611897578081fd5b8135610f7b81611f2e565b6000602082840312156118b3578081fd5b8151610f7b81611f2e565b600080604083850312156118d0578081fd5b82356118db81611f2e565b915060208301356118eb81611f43565b809150509250929050565b60008060408385031215611908578182fd5b823561191381611f2e565b946020939093013593505050565b600060208284031215611932578081fd5b8135610f7b81611f43565b60006020828403121561194e578081fd5b8151610f7b81611f43565b600080600080600080600060e0888a031215611973578283fd5b873561197e81611f2e565b9650602088013561198e81611f2e565b9550604088013561199e81611f2e565b945060608801356119ae81611f2e565b935060808801356119be81611f2e565b925060a08801356119ce81611f2e565b915060c08801356119de81611f2e565b8091505092959891949750929550565b600080600060608486031215611a02578283fd5b611a0b8461186f565b9250611a196020850161186f565b9150604084015163ffffffff81168114611a31578182fd5b809150509250925092565b600060208284031215611a4d578081fd5b5035919050565b600060208284031215611a65578081fd5b5051919050565b600060208284031215611a7d578081fd5b815160ff81168114610f7b578182fd5b60008151808452611aa5816020860160208601611ee8565b601f01601f19169290920160200192915050565b60008251611acb818460208701611ee8565b9190910192915050565b6001600160a01b0391909116815260200190565b6001600160a01b0392831681529116602082015260400190565b6001600160a01b03929092168252602082015260400190565b901515815260200190565b600060208252610f7b6020830184611a8d565b60208082526026908201527f4f776e61626c653a206e6577206f776e657220697320746865207a65726f206160408201526564647265737360d01b606082015260800190565b60208082526024908201527f6578656375746f723a2063616c6c6572206973206e6f742074686520657865636040820152633aba37b960e11b606082015260800190565b60208082526026908201527f416464726573733a20696e73756666696369656e742062616c616e636520666f6040820152651c8818d85b1b60d21b606082015260800190565b6020808252602e908201527f496e697469616c697a61626c653a20636f6e747261637420697320616c72656160408201526d191e481a5b9a5d1a585b1a5e995960921b606082015260800190565b6020808252818101527f4f776e61626c653a2063616c6c6572206973206e6f7420746865206f776e6572604082015260600190565b6020808252601d908201527f416464726573733a2063616c6c20746f206e6f6e2d636f6e7472616374000000604082015260600190565b6020808252602a908201527f5361666545524332303a204552433230206f7065726174696f6e20646964206e6040820152691bdd081cdd58d8d9595960b21b606082015260800190565b90815260200190565b600085825284602083015260018060a01b038416604083015260806060830152611d446080830184611a8d565b9695505050505050565b92835260208301919091521515604082015260600190565b60008219821115611d7957611d79611f18565b500190565b600082611d9957634e487b7160e01b81526012600452602481fd5b500490565b80825b6001808611611db05750611ddb565b818704821115611dc257611dc2611f18565b80861615611dcf57918102915b9490941c938002611da1565b94509492505050565b6000610f7b6000198484600082611dfd57506001610f7b565b81611e0a57506000610f7b565b8160018114611e205760028114611e2a57611e57565b6001915050610f7b565b60ff841115611e3b57611e3b611f18565b6001841b915084821115611e5157611e51611f18565b50610f7b565b5060208310610133831016604e8410600b8410161715611e8a575081810a83811115611e8557611e85611f18565b610f7b565b611e978484846001611d9e565b808604821115611ea957611ea9611f18565b02949350505050565b6000816000190483118215151615611ecc57611ecc611f18565b500290565b600082821015611ee357611ee3611f18565b500390565b60005b83811015611f03578181015183820152602001611eeb565b83811115611f12576000848401525b50505050565b634e487b7160e01b600052601160045260246000fd5b6001600160a01b0381168114610e2857600080fd5b8015158114610e2857600080fdfea264697066735822122058a69dcd652b30ebe94125dc9311d523994ad71464a9485b6c18098341c1bfa364736f6c63430008000033",
					"opcodes": "PUSH1 0x80 PUSH1 0x40 MSTORE CALLVALUE DUP1 ISZERO PUSH2 0x10 JUMPI PUSH1 0x0 DUP1 REVERT JUMPDEST POP PUSH2 0x1F87 DUP1 PUSH2 0x20 PUSH1 0x0 CODECOPY PUSH1 0x0 RETURN INVALID PUSH1 0x80 PUSH1 0x40 MSTORE CALLVALUE DUP1 ISZERO PUSH2 0x10 JUMPI PUSH1 0x0 DUP1 REVERT JUMPDEST POP PUSH1 0x4 CALLDATASIZE LT PUSH2 0x227 JUMPI PUSH1 0x0 CALLDATALOAD PUSH1 0xE0 SHR DUP1 PUSH4 0x8DA5CB5B GT PUSH2 0x130 JUMPI DUP1 PUSH4 0xBD0B1F44 GT PUSH2 0xB8 JUMPI DUP1 PUSH4 0xDB7F521A GT PUSH2 0x7C JUMPI DUP1 PUSH4 0xDB7F521A EQ PUSH2 0x3F8 JUMPI DUP1 PUSH4 0xEC1F1F69 EQ PUSH2 0x40B JUMPI DUP1 PUSH4 0xF1068454 EQ PUSH2 0x413 JUMPI DUP1 PUSH4 0xF2FDE38B EQ PUSH2 0x41B JUMPI DUP1 PUSH4 0xF6D7EADE EQ PUSH2 0x42E JUMPI PUSH2 0x227 JUMP JUMPDEST DUP1 PUSH4 0xBD0B1F44 EQ PUSH2 0x3BA JUMPI DUP1 PUSH4 0xC83DD231 EQ PUSH2 0x3C2 JUMPI DUP1 PUSH4 0xD10C06A2 EQ PUSH2 0x3CA JUMPI DUP1 PUSH4 0xD477F05F EQ PUSH2 0x3D2 JUMPI DUP1 PUSH4 0xD4F26C51 EQ PUSH2 0x3E5 JUMPI PUSH2 0x227 JUMP JUMPDEST DUP1 PUSH4 0xA36A7526 GT PUSH2 0xFF JUMPI DUP1 PUSH4 0xA36A7526 EQ PUSH2 0x371 JUMPI DUP1 PUSH4 0xAAF5BFC3 EQ PUSH2 0x384 JUMPI DUP1 PUSH4 0xAAF5EB68 EQ PUSH2 0x397 JUMPI DUP1 PUSH4 0xAF5518C4 EQ PUSH2 0x39F JUMPI DUP1 PUSH4 0xB8BB97A1 EQ PUSH2 0x3B2 JUMPI PUSH2 0x227 JUMP JUMPDEST DUP1 PUSH4 0x8DA5CB5B EQ PUSH2 0x346 JUMPI DUP1 PUSH4 0x91CCA3DB EQ PUSH2 0x34E JUMPI DUP1 PUSH4 0x930ED033 EQ PUSH2 0x356 JUMPI DUP1 PUSH4 0x9DA5B0D5 EQ PUSH2 0x369 JUMPI PUSH2 0x227 JUMP JUMPDEST DUP1 PUSH4 0x3E413BEE GT PUSH2 0x1B3 JUMPI DUP1 PUSH4 0x4ECAAC41 GT PUSH2 0x182 JUMPI DUP1 PUSH4 0x4ECAAC41 EQ PUSH2 0x313 JUMPI DUP1 PUSH4 0x55C746D1 EQ PUSH2 0x31B JUMPI DUP1 PUSH4 0x58DE5DE8 EQ PUSH2 0x32E JUMPI DUP1 PUSH4 0x715018A6 EQ PUSH2 0x336 JUMPI DUP1 PUSH4 0x7E47961C EQ PUSH2 0x33E JUMPI PUSH2 0x227 JUMP JUMPDEST DUP1 PUSH4 0x3E413BEE EQ PUSH2 0x2DD JUMPI DUP1 PUSH4 0x4591DB50 EQ PUSH2 0x2E5 JUMPI DUP1 PUSH4 0x48C7E528 EQ PUSH2 0x2F8 JUMPI DUP1 PUSH4 0x4AE6A027 EQ PUSH2 0x30B JUMPI PUSH2 0x227 JUMP JUMPDEST DUP1 PUSH4 0x2C535A52 GT PUSH2 0x1FA JUMPI DUP1 PUSH4 0x2C535A52 EQ PUSH2 0x290 JUMPI DUP1 PUSH4 0x3011D3D5 EQ PUSH2 0x298 JUMPI DUP1 PUSH4 0x35876476 EQ PUSH2 0x2AD JUMPI DUP1 PUSH4 0x36E9332D EQ PUSH2 0x2C2 JUMPI DUP1 PUSH4 0x3C850E1E EQ PUSH2 0x2CA JUMPI PUSH2 0x227 JUMP JUMPDEST DUP1 PUSH4 0x16D03993 EQ PUSH2 0x22C JUMPI DUP1 PUSH4 0x1B0D8AAB EQ PUSH2 0x24A JUMPI DUP1 PUSH4 0x1E1BFF3F EQ PUSH2 0x26A JUMPI DUP1 PUSH4 0x27C42A50 EQ PUSH2 0x27D JUMPI JUMPDEST PUSH1 0x0 DUP1 REVERT JUMPDEST PUSH2 0x234 PUSH2 0x436 JUMP JUMPDEST PUSH1 0x40 MLOAD PUSH2 0x241 SWAP2 SWAP1 PUSH2 0x1D0E JUMP JUMPDEST PUSH1 0x40 MLOAD DUP1 SWAP2 SUB SWAP1 RETURN JUMPDEST PUSH2 0x25D PUSH2 0x258 CALLDATASIZE PUSH1 0x4 PUSH2 0x1A3C JUMP JUMPDEST PUSH2 0x43C JUMP JUMPDEST PUSH1 0x40 MLOAD PUSH2 0x241 SWAP2 SWAP1 PUSH2 0x1B1C JUMP JUMPDEST PUSH2 0x25D PUSH2 0x278 CALLDATASIZE PUSH1 0x4 PUSH2 0x18BE JUMP JUMPDEST PUSH2 0x494 JUMP JUMPDEST PUSH2 0x25D PUSH2 0x28B CALLDATASIZE PUSH1 0x4 PUSH2 0x1A3C JUMP JUMPDEST PUSH2 0x504 JUMP JUMPDEST PUSH2 0x234 PUSH2 0x54E JUMP JUMPDEST PUSH2 0x2A0 PUSH2 0x554 JUMP JUMPDEST PUSH1 0x40 MLOAD PUSH2 0x241 SWAP2 SWAP1 PUSH2 0x1AD5 JUMP JUMPDEST PUSH2 0x2C0 PUSH2 0x2BB CALLDATASIZE PUSH1 0x4 PUSH2 0x1959 JUMP JUMPDEST PUSH2 0x563 JUMP JUMPDEST STOP JUMPDEST PUSH2 0x2A0 PUSH2 0x6A2 JUMP JUMPDEST PUSH2 0x25D PUSH2 0x2D8 CALLDATASIZE PUSH1 0x4 PUSH2 0x1A3C JUMP JUMPDEST PUSH2 0x6B1 JUMP JUMPDEST PUSH2 0x2A0 PUSH2 0x6FB JUMP JUMPDEST PUSH2 0x25D PUSH2 0x2F3 CALLDATASIZE PUSH1 0x4 PUSH2 0x1921 JUMP JUMPDEST PUSH2 0x70A JUMP JUMPDEST PUSH2 0x25D PUSH2 0x306 CALLDATASIZE PUSH1 0x4 PUSH2 0x1886 JUMP JUMPDEST PUSH2 0x76C JUMP JUMPDEST PUSH2 0x234 PUSH2 0x781 JUMP JUMPDEST PUSH2 0x2A0 PUSH2 0x787 JUMP JUMPDEST PUSH2 0x25D PUSH2 0x329 CALLDATASIZE PUSH1 0x4 PUSH2 0x1921 JUMP JUMPDEST PUSH2 0x796 JUMP JUMPDEST PUSH2 0x25D PUSH2 0x7F8 JUMP JUMPDEST PUSH2 0x2C0 PUSH2 0x808 JUMP JUMPDEST PUSH2 0x2A0 PUSH2 0x853 JUMP JUMPDEST PUSH2 0x2A0 PUSH2 0x862 JUMP JUMPDEST PUSH2 0x2A0 PUSH2 0x872 JUMP JUMPDEST PUSH2 0x25D PUSH2 0x364 CALLDATASIZE PUSH1 0x4 PUSH2 0x18F6 JUMP JUMPDEST PUSH2 0x881 JUMP JUMPDEST PUSH2 0x25D PUSH2 0x8DF JUMP JUMPDEST PUSH2 0x25D PUSH2 0x37F CALLDATASIZE PUSH1 0x4 PUSH2 0x1886 JUMP JUMPDEST PUSH2 0x8EF JUMP JUMPDEST PUSH2 0x25D PUSH2 0x392 CALLDATASIZE PUSH1 0x4 PUSH2 0x1886 JUMP JUMPDEST PUSH2 0x955 JUMP JUMPDEST PUSH2 0x234 PUSH2 0x9BB JUMP JUMPDEST PUSH2 0x25D PUSH2 0x3AD CALLDATASIZE PUSH1 0x4 PUSH2 0x1A3C JUMP JUMPDEST PUSH2 0x9C1 JUMP JUMPDEST PUSH2 0x2A0 PUSH2 0xA0B JUMP JUMPDEST PUSH2 0x234 PUSH2 0xA1A JUMP JUMPDEST PUSH2 0x2A0 PUSH2 0xA20 JUMP JUMPDEST PUSH2 0x25D PUSH2 0xA2F JUMP JUMPDEST PUSH2 0x25D PUSH2 0x3E0 CALLDATASIZE PUSH1 0x4 PUSH2 0x1886 JUMP JUMPDEST PUSH2 0xC73 JUMP JUMPDEST PUSH2 0x25D PUSH2 0x3F3 CALLDATASIZE PUSH1 0x4 PUSH2 0x1886 JUMP JUMPDEST PUSH2 0xCD9 JUMP JUMPDEST PUSH2 0x25D PUSH2 0x406 CALLDATASIZE PUSH1 0x4 PUSH2 0x1886 JUMP JUMPDEST PUSH2 0xD3F JUMP JUMPDEST PUSH2 0x2A0 PUSH2 0xDA5 JUMP JUMPDEST PUSH2 0x234 PUSH2 0xDB4 JUMP JUMPDEST PUSH2 0x2C0 PUSH2 0x429 CALLDATASIZE PUSH1 0x4 PUSH2 0x1886 JUMP JUMPDEST PUSH2 0xDBA JUMP JUMPDEST PUSH2 0x2A0 PUSH2 0xE2B JUMP JUMPDEST PUSH1 0x72 SLOAD DUP2 JUMP JUMPDEST PUSH1 0x0 PUSH2 0x446 PUSH2 0xE3A JUMP JUMPDEST PUSH1 0x1 PUSH1 0x1 PUSH1 0xA0 SHL SUB AND PUSH2 0x457 PUSH2 0x862 JUMP JUMPDEST PUSH1 0x1 PUSH1 0x1 PUSH1 0xA0 SHL SUB AND EQ PUSH2 0x486 JUMPI PUSH1 0x40 MLOAD PUSH3 0x461BCD PUSH1 0xE5 SHL DUP2 MSTORE PUSH1 0x4 ADD PUSH2 0x47D SWAP1 PUSH2 0x1C58 JUMP JUMPDEST PUSH1 0x40 MLOAD DUP1 SWAP2 SUB SWAP1 REVERT JUMPDEST POP PUSH1 0x73 DUP2 SWAP1 SSTORE PUSH1 0x1 JUMPDEST SWAP2 SWAP1 POP JUMP JUMPDEST PUSH1 0x0 PUSH2 0x49E PUSH2 0xE3A JUMP JUMPDEST PUSH1 0x1 PUSH1 0x1 PUSH1 0xA0 SHL SUB AND PUSH2 0x4AF PUSH2 0x862 JUMP JUMPDEST PUSH1 0x1 PUSH1 0x1 PUSH1 0xA0 SHL SUB AND EQ PUSH2 0x4D5 JUMPI PUSH1 0x40 MLOAD PUSH3 0x461BCD PUSH1 0xE5 SHL DUP2 MSTORE PUSH1 0x4 ADD PUSH2 0x47D SWAP1 PUSH2 0x1C58 JUMP JUMPDEST POP PUSH1 0x1 PUSH1 0x1 PUSH1 0xA0 SHL SUB DUP3 AND PUSH1 0x0 SWAP1 DUP2 MSTORE PUSH1 0x65 PUSH1 0x20 MSTORE PUSH1 0x40 SWAP1 KECCAK256 DUP1 SLOAD DUP3 ISZERO ISZERO PUSH1 0xFF NOT SWAP1 SWAP2 AND OR SWAP1 SSTORE PUSH1 0x1 SWAP3 SWAP2 POP POP JUMP JUMPDEST PUSH1 0x0 PUSH2 0x50E PUSH2 0xE3A JUMP JUMPDEST PUSH1 0x1 PUSH1 0x1 PUSH1 0xA0 SHL SUB AND PUSH2 0x51F PUSH2 0x862 JUMP JUMPDEST PUSH1 0x1 PUSH1 0x1 PUSH1 0xA0 SHL SUB AND EQ PUSH2 0x545 JUMPI PUSH1 0x40 MLOAD PUSH3 0x461BCD PUSH1 0xE5 SHL DUP2 MSTORE PUSH1 0x4 ADD PUSH2 0x47D SWAP1 PUSH2 0x1C58 JUMP JUMPDEST POP PUSH1 0x6E SSTORE PUSH1 0x1 SWAP1 JUMP JUMPDEST PUSH1 0x6F SLOAD DUP2 JUMP JUMPDEST PUSH1 0x66 SLOAD PUSH1 0x1 PUSH1 0x1 PUSH1 0xA0 SHL SUB AND DUP2 JUMP JUMPDEST PUSH1 0x0 SLOAD PUSH2 0x100 SWAP1 DIV PUSH1 0xFF AND DUP1 PUSH2 0x57C JUMPI POP PUSH1 0x0 SLOAD PUSH1 0xFF AND ISZERO JUMPDEST PUSH2 0x598 JUMPI PUSH1 0x40 MLOAD PUSH3 0x461BCD PUSH1 0xE5 SHL DUP2 MSTORE PUSH1 0x4 ADD PUSH2 0x47D SWAP1 PUSH2 0x1C0A JUMP JUMPDEST PUSH1 0x0 SLOAD PUSH2 0x100 SWAP1 DIV PUSH1 0xFF AND ISZERO DUP1 ISZERO PUSH2 0x5C3 JUMPI PUSH1 0x0 DUP1 SLOAD PUSH1 0xFF NOT PUSH2 0xFF00 NOT SWAP1 SWAP2 AND PUSH2 0x100 OR AND PUSH1 0x1 OR SWAP1 SSTORE JUMPDEST PUSH2 0x5CB PUSH2 0xE3E JUMP JUMPDEST PUSH1 0x6C DUP1 SLOAD PUSH1 0x1 PUSH1 0x1 PUSH1 0xA0 SHL SUB NOT SWAP1 DUP2 AND PUSH1 0x1 PUSH1 0x1 PUSH1 0xA0 SHL SUB DUP11 DUP2 AND SWAP2 SWAP1 SWAP2 OR SWAP1 SWAP3 SSTORE PUSH1 0x6D DUP1 SLOAD DUP3 AND DUP12 DUP5 AND OR SWAP1 SSTORE PUSH1 0x66 DUP1 SLOAD DUP3 AND DUP10 DUP5 AND OR SWAP1 SSTORE PUSH1 0x68 DUP1 SLOAD DUP3 AND DUP8 DUP5 AND OR SWAP1 SSTORE PUSH1 0x69 DUP1 SLOAD DUP3 AND DUP7 DUP5 AND OR SWAP1 SSTORE PUSH1 0x6A DUP1 SLOAD CALLER SWAP1 DUP4 AND DUP2 OR SWAP1 SWAP2 SSTORE PUSH1 0x6B DUP1 SLOAD DUP4 AND SWAP1 SWAP2 OR SWAP1 SSTORE PUSH2 0x1388 PUSH1 0x6E SSTORE PUSH2 0x9C4 PUSH1 0x6F DUP2 SWAP1 SSTORE PUSH1 0x70 SSTORE PUSH2 0x2710 PUSH1 0x71 SSTORE PUSH2 0x3E8 PUSH1 0x72 SSTORE PUSH1 0x74 DUP1 SLOAD PUSH1 0x1 PUSH1 0xA0 SHL PUSH1 0xFF PUSH1 0xA0 SHL NOT SWAP1 SWAP2 AND OR PUSH1 0x1 PUSH2 0xFF01 PUSH1 0xA0 SHL SUB NOT AND DUP6 DUP5 AND OR SWAP1 SSTORE PUSH1 0x67 DUP1 SLOAD SWAP1 SWAP2 AND SWAP2 DUP8 AND SWAP2 SWAP1 SWAP2 OR SWAP1 SSTORE DUP1 ISZERO PUSH2 0x698 JUMPI PUSH1 0x0 DUP1 SLOAD PUSH2 0xFF00 NOT AND SWAP1 SSTORE JUMPDEST POP POP POP POP POP POP POP POP JUMP JUMPDEST PUSH1 0x74 SLOAD PUSH1 0x1 PUSH1 0x1 PUSH1 0xA0 SHL SUB AND DUP2 JUMP JUMPDEST PUSH1 0x0 PUSH2 0x6BB PUSH2 0xE3A JUMP JUMPDEST PUSH1 0x1 PUSH1 0x1 PUSH1 0xA0 SHL SUB AND PUSH2 0x6CC PUSH2 0x862 JUMP JUMPDEST PUSH1 0x1 PUSH1 0x1 PUSH1 0xA0 SHL SUB AND EQ PUSH2 0x6F2 JUMPI PUSH1 0x40 MLOAD PUSH3 0x461BCD PUSH1 0xE5 SHL DUP2 MSTORE PUSH1 0x4 ADD PUSH2 0x47D SWAP1 PUSH2 0x1C58 JUMP JUMPDEST POP PUSH1 0x70 SSTORE PUSH1 0x1 SWAP1 JUMP JUMPDEST PUSH1 0x67 SLOAD PUSH1 0x1 PUSH1 0x1 PUSH1 0xA0 SHL SUB AND DUP2 JUMP JUMPDEST PUSH1 0x0 PUSH2 0x714 PUSH2 0xE3A JUMP JUMPDEST PUSH1 0x1 PUSH1 0x1 PUSH1 0xA0 SHL SUB AND PUSH2 0x725 PUSH2 0x862 JUMP JUMPDEST PUSH1 0x1 PUSH1 0x1 PUSH1 0xA0 SHL SUB AND EQ PUSH2 0x74B JUMPI PUSH1 0x40 MLOAD PUSH3 0x461BCD PUSH1 0xE5 SHL DUP2 MSTORE PUSH1 0x4 ADD PUSH2 0x47D SWAP1 PUSH2 0x1C58 JUMP JUMPDEST POP PUSH1 0x74 DUP1 SLOAD DUP3 ISZERO ISZERO PUSH1 0x1 PUSH1 0xA0 SHL MUL PUSH1 0xFF PUSH1 0xA0 SHL NOT SWAP1 SWAP2 AND OR SWAP1 SSTORE PUSH1 0x1 SWAP2 SWAP1 POP JUMP JUMPDEST PUSH1 0x65 PUSH1 0x20 MSTORE PUSH1 0x0 SWAP1 DUP2 MSTORE PUSH1 0x40 SWAP1 KECCAK256 SLOAD PUSH1 0xFF AND DUP2 JUMP JUMPDEST PUSH1 0x70 SLOAD DUP2 JUMP JUMPDEST PUSH1 0x68 SLOAD PUSH1 0x1 PUSH1 0x1 PUSH1 0xA0 SHL SUB AND DUP2 JUMP JUMPDEST PUSH1 0x0 PUSH2 0x7A0 PUSH2 0xE3A JUMP JUMPDEST PUSH1 0x1 PUSH1 0x1 PUSH1 0xA0 SHL SUB AND PUSH2 0x7B1 PUSH2 0x862 JUMP JUMPDEST PUSH1 0x1 PUSH1 0x1 PUSH1 0xA0 SHL SUB AND EQ PUSH2 0x7D7 JUMPI PUSH1 0x40 MLOAD PUSH3 0x461BCD PUSH1 0xE5 SHL DUP2 MSTORE PUSH1 0x4 ADD PUSH2 0x47D SWAP1 PUSH2 0x1C58 JUMP JUMPDEST POP PUSH1 0x74 DUP1 SLOAD DUP3 ISZERO ISZERO PUSH1 0x1 PUSH1 0xA8 SHL MUL PUSH1 0xFF PUSH1 0xA8 SHL NOT SWAP1 SWAP2 AND OR SWAP1 SSTORE PUSH1 0x1 SWAP2 SWAP1 POP JUMP JUMPDEST PUSH1 0x74 SLOAD PUSH1 0x1 PUSH1 0xA8 SHL SWAP1 DIV PUSH1 0xFF AND DUP2 JUMP JUMPDEST PUSH2 0x810 PUSH2 0xE3A JUMP JUMPDEST PUSH1 0x1 PUSH1 0x1 PUSH1 0xA0 SHL SUB AND PUSH2 0x821 PUSH2 0x862 JUMP JUMPDEST PUSH1 0x1 PUSH1 0x1 PUSH1 0xA0 SHL SUB AND EQ PUSH2 0x847 JUMPI PUSH1 0x40 MLOAD PUSH3 0x461BCD PUSH1 0xE5 SHL DUP2 MSTORE PUSH1 0x4 ADD PUSH2 0x47D SWAP1 PUSH2 0x1C58 JUMP JUMPDEST PUSH2 0x851 PUSH1 0x0 PUSH2 0xEC2 JUMP JUMPDEST JUMP JUMPDEST PUSH1 0x75 SLOAD PUSH1 0x1 PUSH1 0x1 PUSH1 0xA0 SHL SUB AND DUP2 JUMP JUMPDEST PUSH1 0x33 SLOAD PUSH1 0x1 PUSH1 0x1 PUSH1 0xA0 SHL SUB AND JUMPDEST SWAP1 JUMP JUMPDEST PUSH1 0x6B SLOAD PUSH1 0x1 PUSH1 0x1 PUSH1 0xA0 SHL SUB AND DUP2 JUMP JUMPDEST PUSH1 0x0 PUSH2 0x88B PUSH2 0xE3A JUMP JUMPDEST PUSH1 0x1 PUSH1 0x1 PUSH1 0xA0 SHL SUB AND PUSH2 0x89C PUSH2 0x862 JUMP JUMPDEST PUSH1 0x1 PUSH1 0x1 PUSH1 0xA0 SHL SUB AND EQ PUSH2 0x8C2 JUMPI PUSH1 0x40 MLOAD PUSH3 0x461BCD PUSH1 0xE5 SHL DUP2 MSTORE PUSH1 0x4 ADD PUSH2 0x47D SWAP1 PUSH2 0x1C58 JUMP JUMPDEST PUSH2 0x8D6 PUSH1 0x1 PUSH1 0x1 PUSH1 0xA0 SHL SUB DUP5 AND CALLER DUP5 PUSH2 0xF14 JUMP JUMPDEST POP PUSH1 0x1 SWAP3 SWAP2 POP POP JUMP JUMPDEST PUSH1 0x74 SLOAD PUSH1 0x1 PUSH1 0xA0 SHL SWAP1 DIV PUSH1 0xFF AND DUP2 JUMP JUMPDEST PUSH1 0x0 PUSH2 0x8F9 PUSH2 0xE3A JUMP JUMPDEST PUSH1 0x1 PUSH1 0x1 PUSH1 0xA0 SHL SUB AND PUSH2 0x90A PUSH2 0x862 JUMP JUMPDEST PUSH1 0x1 PUSH1 0x1 PUSH1 0xA0 SHL SUB AND EQ PUSH2 0x930 JUMPI PUSH1 0x40 MLOAD PUSH3 0x461BCD PUSH1 0xE5 SHL DUP2 MSTORE PUSH1 0x4 ADD PUSH2 0x47D SWAP1 PUSH2 0x1C58 JUMP JUMPDEST POP PUSH1 0x6A DUP1 SLOAD PUSH1 0x1 PUSH1 0x1 PUSH1 0xA0 SHL SUB DUP4 AND PUSH1 0x1 PUSH1 0x1 PUSH1 0xA0 SHL SUB NOT SWAP1 SWAP2 AND OR SWAP1 SSTORE PUSH1 0x1 SWAP2 SWAP1 POP JUMP JUMPDEST PUSH1 0x0 PUSH2 0x95F PUSH2 0xE3A JUMP JUMPDEST PUSH1 0x1 PUSH1 0x1 PUSH1 0xA0 SHL SUB AND PUSH2 0x970 PUSH2 0x862 JUMP JUMPDEST PUSH1 0x1 PUSH1 0x1 PUSH1 0xA0 SHL SUB AND EQ PUSH2 0x996 JUMPI PUSH1 0x40 MLOAD PUSH3 0x461BCD PUSH1 0xE5 SHL DUP2 MSTORE PUSH1 0x4 ADD PUSH2 0x47D SWAP1 PUSH2 0x1C58 JUMP JUMPDEST POP PUSH1 0x67 DUP1 SLOAD PUSH1 0x1 PUSH1 0x1 PUSH1 0xA0 SHL SUB DUP4 AND PUSH1 0x1 PUSH1 0x1 PUSH1 0xA0 SHL SUB NOT SWAP1 SWAP2 AND OR SWAP1 SSTORE PUSH1 0x1 SWAP2 SWAP1 POP JUMP JUMPDEST PUSH1 0x71 SLOAD DUP2 JUMP JUMPDEST PUSH1 0x0 PUSH2 0x9CB PUSH2 0xE3A JUMP JUMPDEST PUSH1 0x1 PUSH1 0x1 PUSH1 0xA0 SHL SUB AND PUSH2 0x9DC PUSH2 0x862 JUMP JUMPDEST PUSH1 0x1 PUSH1 0x1 PUSH1 0xA0 SHL SUB AND EQ PUSH2 0xA02 JUMPI PUSH1 0x40 MLOAD PUSH3 0x461BCD PUSH1 0xE5 SHL DUP2 MSTORE PUSH1 0x4 ADD PUSH2 0x47D SWAP1 PUSH2 0x1C58 JUMP JUMPDEST POP PUSH1 0x6F SSTORE PUSH1 0x1 SWAP1 JUMP JUMPDEST PUSH1 0x69 SLOAD PUSH1 0x1 PUSH1 0x1 PUSH1 0xA0 SHL SUB AND DUP2 JUMP JUMPDEST PUSH1 0x6E SLOAD DUP2 JUMP JUMPDEST PUSH1 0x6D SLOAD PUSH1 0x1 PUSH1 0x1 PUSH1 0xA0 SHL SUB AND DUP2 JUMP JUMPDEST CALLER PUSH1 0x0 SWAP1 DUP2 MSTORE PUSH1 0x65 PUSH1 0x20 MSTORE PUSH1 0x40 DUP2 KECCAK256 SLOAD PUSH1 0xFF AND PUSH2 0xA5E JUMPI PUSH1 0x40 MLOAD PUSH3 0x461BCD PUSH1 0xE5 SHL DUP2 MSTORE PUSH1 0x4 ADD PUSH2 0x47D SWAP1 PUSH2 0x1B80 JUMP JUMPDEST PUSH1 0x66 SLOAD PUSH1 0x40 MLOAD PUSH4 0x70A08231 PUSH1 0xE0 SHL DUP2 MSTORE PUSH1 0x0 SWAP2 PUSH1 0x1 PUSH1 0x1 PUSH1 0xA0 SHL SUB AND SWAP1 PUSH4 0x70A08231 SWAP1 PUSH2 0xA8F SWAP1 ADDRESS SWAP1 PUSH1 0x4 ADD PUSH2 0x1AD5 JUMP JUMPDEST PUSH1 0x20 PUSH1 0x40 MLOAD DUP1 DUP4 SUB DUP2 DUP7 DUP1 EXTCODESIZE ISZERO DUP1 ISZERO PUSH2 0xAA7 JUMPI PUSH1 0x0 DUP1 REVERT JUMPDEST POP GAS STATICCALL ISZERO DUP1 ISZERO PUSH2 0xABB JUMPI RETURNDATASIZE PUSH1 0x0 DUP1 RETURNDATACOPY RETURNDATASIZE PUSH1 0x0 REVERT JUMPDEST POP POP POP POP PUSH1 0x40 MLOAD RETURNDATASIZE PUSH1 0x1F NOT PUSH1 0x1F DUP3 ADD AND DUP3 ADD DUP1 PUSH1 0x40 MSTORE POP DUP2 ADD SWAP1 PUSH2 0xADF SWAP2 SWAP1 PUSH2 0x1A54 JUMP JUMPDEST SWAP1 POP DUP1 PUSH2 0xAF0 JUMPI PUSH1 0x1 SWAP2 POP POP PUSH2 0x86F JUMP JUMPDEST PUSH1 0x0 PUSH2 0xB13 PUSH1 0x71 SLOAD PUSH2 0xB0D PUSH1 0x6E SLOAD DUP6 PUSH2 0xF6F SWAP1 SWAP2 SWAP1 PUSH4 0xFFFFFFFF AND JUMP JUMPDEST SWAP1 PUSH2 0xF82 JUMP JUMPDEST SWAP1 POP PUSH1 0x0 PUSH2 0xB32 PUSH1 0x71 SLOAD PUSH2 0xB0D PUSH1 0x6F SLOAD DUP7 PUSH2 0xF6F SWAP1 SWAP2 SWAP1 PUSH4 0xFFFFFFFF AND JUMP JUMPDEST SWAP1 POP PUSH1 0x0 PUSH2 0xB4A DUP3 PUSH2 0xB44 DUP7 DUP7 PUSH2 0xF8E JUMP JUMPDEST SWAP1 PUSH2 0xF8E JUMP JUMPDEST SWAP1 POP PUSH1 0x0 PUSH2 0xB57 DUP5 PUSH2 0xF9A JUMP JUMPDEST PUSH1 0x69 SLOAD PUSH1 0x68 SLOAD SWAP2 SWAP3 POP PUSH2 0xB77 SWAP2 PUSH1 0x1 PUSH1 0x1 PUSH1 0xA0 SHL SUB SWAP1 DUP2 AND SWAP2 AND DUP4 PUSH2 0xF14 JUMP JUMPDEST PUSH1 0x6A SLOAD PUSH1 0x66 SLOAD PUSH2 0xB94 SWAP2 PUSH1 0x1 PUSH1 0x1 PUSH1 0xA0 SHL SUB SWAP2 DUP3 AND SWAP2 AND DUP6 PUSH2 0xF14 JUMP JUMPDEST PUSH1 0x6B SLOAD PUSH1 0x66 SLOAD PUSH2 0xBB1 SWAP2 PUSH1 0x1 PUSH1 0x1 PUSH1 0xA0 SHL SUB SWAP2 DUP3 AND SWAP2 AND DUP5 PUSH2 0xF14 JUMP JUMPDEST PUSH1 0x74 SLOAD PUSH1 0x1 PUSH1 0xA0 SHL SWAP1 DIV PUSH1 0xFF AND ISZERO PUSH2 0xBCB JUMPI PUSH2 0xBCB PUSH2 0x1229 JUMP JUMPDEST PUSH1 0x74 SLOAD PUSH1 0x1 PUSH1 0xA8 SHL SWAP1 DIV PUSH1 0xFF AND ISZERO PUSH2 0xC67 JUMPI PUSH1 0x75 PUSH1 0x0 SWAP1 SLOAD SWAP1 PUSH2 0x100 EXP SWAP1 DIV PUSH1 0x1 PUSH1 0x1 PUSH1 0xA0 SHL SUB AND PUSH1 0x1 PUSH1 0x1 PUSH1 0xA0 SHL SUB AND PUSH4 0x796C7BE7 PUSH1 0x40 MLOAD DUP2 PUSH4 0xFFFFFFFF AND PUSH1 0xE0 SHL DUP2 MSTORE PUSH1 0x4 ADD PUSH1 0x20 PUSH1 0x40 MLOAD DUP1 DUP4 SUB DUP2 PUSH1 0x0 DUP8 DUP1 EXTCODESIZE ISZERO DUP1 ISZERO PUSH2 0xC2D JUMPI PUSH1 0x0 DUP1 REVERT JUMPDEST POP GAS CALL ISZERO DUP1 ISZERO PUSH2 0xC41 JUMPI RETURNDATASIZE PUSH1 0x0 DUP1 RETURNDATACOPY RETURNDATASIZE PUSH1 0x0 REVERT JUMPDEST POP POP POP POP PUSH1 0x40 MLOAD RETURNDATASIZE PUSH1 0x1F NOT PUSH1 0x1F DUP3 ADD AND DUP3 ADD DUP1 PUSH1 0x40 MSTORE POP DUP2 ADD SWAP1 PUSH2 0xC65 SWAP2 SWAP1 PUSH2 0x193D JUMP JUMPDEST POP JUMPDEST PUSH1 0x1 SWAP6 POP POP POP POP POP POP SWAP1 JUMP JUMPDEST PUSH1 0x0 PUSH2 0xC7D PUSH2 0xE3A JUMP JUMPDEST PUSH1 0x1 PUSH1 0x1 PUSH1 0xA0 SHL SUB AND PUSH2 0xC8E PUSH2 0x862 JUMP JUMPDEST PUSH1 0x1 PUSH1 0x1 PUSH1 0xA0 SHL SUB AND EQ PUSH2 0xCB4 JUMPI PUSH1 0x40 MLOAD PUSH3 0x461BCD PUSH1 0xE5 SHL DUP2 MSTORE PUSH1 0x4 ADD PUSH2 0x47D SWAP1 PUSH2 0x1C58 JUMP JUMPDEST POP PUSH1 0x6B DUP1 SLOAD PUSH1 0x1 PUSH1 0x1 PUSH1 0xA0 SHL SUB DUP4 AND PUSH1 0x1 PUSH1 0x1 PUSH1 0xA0 SHL SUB NOT SWAP1 SWAP2 AND OR SWAP1 SSTORE PUSH1 0x1 SWAP2 SWAP1 POP JUMP JUMPDEST PUSH1 0x0 PUSH2 0xCE3 PUSH2 0xE3A JUMP JUMPDEST PUSH1 0x1 PUSH1 0x1 PUSH1 0xA0 SHL SUB AND PUSH2 0xCF4 PUSH2 0x862 JUMP JUMPDEST PUSH1 0x1 PUSH1 0x1 PUSH1 0xA0 SHL SUB AND EQ PUSH2 0xD1A JUMPI PUSH1 0x40 MLOAD PUSH3 0x461BCD PUSH1 0xE5 SHL DUP2 MSTORE PUSH1 0x4 ADD PUSH2 0x47D SWAP1 PUSH2 0x1C58 JUMP JUMPDEST POP PUSH1 0x74 DUP1 SLOAD PUSH1 0x1 PUSH1 0x1 PUSH1 0xA0 SHL SUB DUP4 AND PUSH1 0x1 PUSH1 0x1 PUSH1 0xA0 SHL SUB NOT SWAP1 SWAP2 AND OR SWAP1 SSTORE PUSH1 0x1 SWAP2 SWAP1 POP JUMP JUMPDEST PUSH1 0x0 PUSH2 0xD49 PUSH2 0xE3A JUMP JUMPDEST PUSH1 0x1 PUSH1 0x1 PUSH1 0xA0 SHL SUB AND PUSH2 0xD5A PUSH2 0x862 JUMP JUMPDEST PUSH1 0x1 PUSH1 0x1 PUSH1 0xA0 SHL SUB AND EQ PUSH2 0xD80 JUMPI PUSH1 0x40 MLOAD PUSH3 0x461BCD PUSH1 0xE5 SHL DUP2 MSTORE PUSH1 0x4 ADD PUSH2 0x47D SWAP1 PUSH2 0x1C58 JUMP JUMPDEST POP PUSH1 0x75 DUP1 SLOAD PUSH1 0x1 PUSH1 0x1 PUSH1 0xA0 SHL SUB DUP4 AND PUSH1 0x1 PUSH1 0x1 PUSH1 0xA0 SHL SUB NOT SWAP1 SWAP2 AND OR SWAP1 SSTORE PUSH1 0x1 SWAP2 SWAP1 POP JUMP JUMPDEST PUSH1 0x6A SLOAD PUSH1 0x1 PUSH1 0x1 PUSH1 0xA0 SHL SUB AND DUP2 JUMP JUMPDEST PUSH1 0x73 SLOAD DUP2 JUMP JUMPDEST PUSH2 0xDC2 PUSH2 0xE3A JUMP JUMPDEST PUSH1 0x1 PUSH1 0x1 PUSH1 0xA0 SHL SUB AND PUSH2 0xDD3 PUSH2 0x862 JUMP JUMPDEST PUSH1 0x1 PUSH1 0x1 PUSH1 0xA0 SHL SUB AND EQ PUSH2 0xDF9 JUMPI PUSH1 0x40 MLOAD PUSH3 0x461BCD PUSH1 0xE5 SHL DUP2 MSTORE PUSH1 0x4 ADD PUSH2 0x47D SWAP1 PUSH2 0x1C58 JUMP JUMPDEST PUSH1 0x1 PUSH1 0x1 PUSH1 0xA0 SHL SUB DUP2 AND PUSH2 0xE1F JUMPI PUSH1 0x40 MLOAD PUSH3 0x461BCD PUSH1 0xE5 SHL DUP2 MSTORE PUSH1 0x4 ADD PUSH2 0x47D SWAP1 PUSH2 0x1B3A JUMP JUMPDEST PUSH2 0xE28 DUP2 PUSH2 0xEC2 JUMP JUMPDEST POP JUMP JUMPDEST PUSH1 0x6C SLOAD PUSH1 0x1 PUSH1 0x1 PUSH1 0xA0 SHL SUB AND DUP2 JUMP JUMPDEST CALLER SWAP1 JUMP JUMPDEST PUSH1 0x0 SLOAD PUSH2 0x100 SWAP1 DIV PUSH1 0xFF AND DUP1 PUSH2 0xE57 JUMPI POP PUSH1 0x0 SLOAD PUSH1 0xFF AND ISZERO JUMPDEST PUSH2 0xE73 JUMPI PUSH1 0x40 MLOAD PUSH3 0x461BCD PUSH1 0xE5 SHL DUP2 MSTORE PUSH1 0x4 ADD PUSH2 0x47D SWAP1 PUSH2 0x1C0A JUMP JUMPDEST PUSH1 0x0 SLOAD PUSH2 0x100 SWAP1 DIV PUSH1 0xFF AND ISZERO DUP1 ISZERO PUSH2 0xE9E JUMPI PUSH1 0x0 DUP1 SLOAD PUSH1 0xFF NOT PUSH2 0xFF00 NOT SWAP1 SWAP2 AND PUSH2 0x100 OR AND PUSH1 0x1 OR SWAP1 SSTORE JUMPDEST PUSH2 0xEA6 PUSH2 0x1598 JUMP JUMPDEST PUSH2 0xEAE PUSH2 0x160B JUMP JUMPDEST DUP1 ISZERO PUSH2 0xE28 JUMPI PUSH1 0x0 DUP1 SLOAD PUSH2 0xFF00 NOT AND SWAP1 SSTORE POP JUMP JUMPDEST PUSH1 0x33 DUP1 SLOAD PUSH1 0x1 PUSH1 0x1 PUSH1 0xA0 SHL SUB DUP4 DUP2 AND PUSH1 0x1 PUSH1 0x1 PUSH1 0xA0 SHL SUB NOT DUP4 AND DUP2 OR SWAP1 SWAP4 SSTORE PUSH1 0x40 MLOAD SWAP2 AND SWAP2 SWAP1 DUP3 SWAP1 PUSH32 0x8BE0079C531659141344CD1FD0A4F28419497F9722A3DAAFE3B4186F6B6457E0 SWAP1 PUSH1 0x0 SWAP1 LOG3 POP POP JUMP JUMPDEST PUSH2 0xF6A DUP4 PUSH4 0xA9059CBB PUSH1 0xE0 SHL DUP5 DUP5 PUSH1 0x40 MLOAD PUSH1 0x24 ADD PUSH2 0xF33 SWAP3 SWAP2 SWAP1 PUSH2 0x1B03 JUMP JUMPDEST PUSH1 0x40 DUP1 MLOAD PUSH1 0x1F NOT DUP2 DUP5 SUB ADD DUP2 MSTORE SWAP2 SWAP1 MSTORE PUSH1 0x20 DUP2 ADD DUP1 MLOAD PUSH1 0x1 PUSH1 0x1 PUSH1 0xE0 SHL SUB AND PUSH1 0x1 PUSH1 0x1 PUSH1 0xE0 SHL SUB NOT SWAP1 SWAP4 AND SWAP3 SWAP1 SWAP3 OR SWAP1 SWAP2 MSTORE PUSH2 0x167B JUMP JUMPDEST POP POP POP JUMP JUMPDEST PUSH1 0x0 PUSH2 0xF7B DUP3 DUP5 PUSH2 0x1EB2 JUMP JUMPDEST SWAP4 SWAP3 POP POP POP JUMP JUMPDEST PUSH1 0x0 PUSH2 0xF7B DUP3 DUP5 PUSH2 0x1D7E JUMP JUMPDEST PUSH1 0x0 PUSH2 0xF7B DUP3 DUP5 PUSH2 0x1ED1 JUMP JUMPDEST PUSH1 0x6D SLOAD PUSH1 0x68 SLOAD PUSH1 0x66 SLOAD PUSH1 0x40 MLOAD PUSH4 0xE6A43905 PUSH1 0xE0 SHL DUP2 MSTORE PUSH1 0x0 SWAP4 DUP5 SWAP4 PUSH1 0x1 PUSH1 0x1 PUSH1 0xA0 SHL SUB SWAP2 DUP3 AND SWAP4 PUSH4 0xE6A43905 SWAP4 PUSH2 0xFDB SWAP4 SWAP3 DUP4 AND SWAP3 SWAP1 SWAP2 AND SWAP1 PUSH1 0x4 ADD PUSH2 0x1AE9 JUMP JUMPDEST PUSH1 0x20 PUSH1 0x40 MLOAD DUP1 DUP4 SUB DUP2 DUP7 DUP1 EXTCODESIZE ISZERO DUP1 ISZERO PUSH2 0xFF3 JUMPI PUSH1 0x0 DUP1 REVERT JUMPDEST POP GAS STATICCALL ISZERO DUP1 ISZERO PUSH2 0x1007 JUMPI RETURNDATASIZE PUSH1 0x0 DUP1 RETURNDATACOPY RETURNDATASIZE PUSH1 0x0 REVERT JUMPDEST POP POP POP POP PUSH1 0x40 MLOAD RETURNDATASIZE PUSH1 0x1F NOT PUSH1 0x1F DUP3 ADD AND DUP3 ADD DUP1 PUSH1 0x40 MSTORE POP DUP2 ADD SWAP1 PUSH2 0x102B SWAP2 SWAP1 PUSH2 0x18A2 JUMP JUMPDEST PUSH1 0x66 SLOAD SWAP1 SWAP2 POP PUSH2 0x1045 SWAP1 PUSH1 0x1 PUSH1 0x1 PUSH1 0xA0 SHL SUB AND DUP3 DUP6 PUSH2 0xF14 JUMP JUMPDEST PUSH1 0x0 DUP1 DUP3 PUSH1 0x1 PUSH1 0x1 PUSH1 0xA0 SHL SUB AND PUSH4 0x902F1AC PUSH1 0x40 MLOAD DUP2 PUSH4 0xFFFFFFFF AND PUSH1 0xE0 SHL DUP2 MSTORE PUSH1 0x4 ADD PUSH1 0x60 PUSH1 0x40 MLOAD DUP1 DUP4 SUB DUP2 DUP7 DUP1 EXTCODESIZE ISZERO DUP1 ISZERO PUSH2 0x1081 JUMPI PUSH1 0x0 DUP1 REVERT JUMPDEST POP GAS STATICCALL ISZERO DUP1 ISZERO PUSH2 0x1095 JUMPI RETURNDATASIZE PUSH1 0x0 DUP1 RETURNDATACOPY RETURNDATASIZE PUSH1 0x0 REVERT JUMPDEST POP POP POP POP PUSH1 0x40 MLOAD RETURNDATASIZE PUSH1 0x1F NOT PUSH1 0x1F DUP3 ADD AND DUP3 ADD DUP1 PUSH1 0x40 MSTORE POP DUP2 ADD SWAP1 PUSH2 0x10B9 SWAP2 SWAP1 PUSH2 0x19EE JUMP JUMPDEST POP PUSH1 0x1 PUSH1 0x1 PUSH1 0x70 SHL SUB AND SWAP2 POP PUSH1 0x1 PUSH1 0x1 PUSH1 0x70 SHL SUB AND SWAP2 POP PUSH1 0x0 DUP4 PUSH1 0x1 PUSH1 0x1 PUSH1 0xA0 SHL SUB AND PUSH4 0xDFE1681 PUSH1 0x40 MLOAD DUP2 PUSH4 0xFFFFFFFF AND PUSH1 0xE0 SHL DUP2 MSTORE PUSH1 0x4 ADD PUSH1 0x20 PUSH1 0x40 MLOAD DUP1 DUP4 SUB DUP2 DUP7 DUP1 EXTCODESIZE ISZERO DUP1 ISZERO PUSH2 0x110B JUMPI PUSH1 0x0 DUP1 REVERT JUMPDEST POP GAS STATICCALL ISZERO DUP1 ISZERO PUSH2 0x111F JUMPI RETURNDATASIZE PUSH1 0x0 DUP1 RETURNDATACOPY RETURNDATASIZE PUSH1 0x0 REVERT JUMPDEST POP POP POP POP PUSH1 0x40 MLOAD RETURNDATASIZE PUSH1 0x1F NOT PUSH1 0x1F DUP3 ADD AND DUP3 ADD DUP1 PUSH1 0x40 MSTORE POP DUP2 ADD SWAP1 PUSH2 0x1143 SWAP2 SWAP1 PUSH2 0x18A2 JUMP JUMPDEST PUSH1 0x66 SLOAD SWAP1 SWAP2 POP PUSH1 0x0 SWAP1 DUP2 SWAP1 PUSH1 0x1 PUSH1 0x1 PUSH1 0xA0 SHL SUB DUP1 DUP6 AND SWAP2 AND EQ PUSH2 0x1167 JUMPI DUP4 DUP6 PUSH2 0x116A JUMP JUMPDEST DUP5 DUP5 JUMPDEST SWAP2 POP SWAP2 POP PUSH1 0x0 PUSH2 0x117B DUP10 DUP5 DUP5 PUSH2 0x170A JUMP JUMPDEST PUSH1 0x66 SLOAD SWAP1 SWAP2 POP PUSH1 0x0 SWAP1 DUP2 SWAP1 PUSH1 0x1 PUSH1 0x1 PUSH1 0xA0 SHL SUB DUP8 DUP2 AND SWAP2 AND EQ PUSH2 0x11A0 JUMPI DUP3 PUSH1 0x0 PUSH2 0x11A4 JUMP JUMPDEST PUSH1 0x0 DUP4 JUMPDEST PUSH1 0x40 DUP1 MLOAD PUSH1 0x0 DUP2 MSTORE PUSH1 0x20 DUP2 ADD SWAP2 DUP3 SWAP1 MSTORE PUSH4 0x22C0D9F PUSH1 0xE0 SHL SWAP1 SWAP2 MSTORE SWAP2 SWAP4 POP SWAP2 POP PUSH1 0x1 PUSH1 0x1 PUSH1 0xA0 SHL SUB DUP11 AND SWAP1 PUSH4 0x22C0D9F SWAP1 PUSH2 0x11E8 SWAP1 DUP6 SWAP1 DUP6 SWAP1 ADDRESS SWAP1 PUSH1 0x24 DUP2 ADD PUSH2 0x1D17 JUMP JUMPDEST PUSH1 0x0 PUSH1 0x40 MLOAD DUP1 DUP4 SUB DUP2 PUSH1 0x0 DUP8 DUP1 EXTCODESIZE ISZERO DUP1 ISZERO PUSH2 0x1202 JUMPI PUSH1 0x0 DUP1 REVERT JUMPDEST POP GAS CALL ISZERO DUP1 ISZERO PUSH2 0x1216 JUMPI RETURNDATASIZE PUSH1 0x0 DUP1 RETURNDATACOPY RETURNDATASIZE PUSH1 0x0 REVERT JUMPDEST POP SWAP5 SWAP14 SWAP13 POP POP POP POP POP POP POP POP POP POP POP POP POP JUMP JUMPDEST PUSH1 0x6D SLOAD PUSH1 0x67 SLOAD PUSH1 0x66 SLOAD PUSH1 0x40 MLOAD PUSH4 0xE6A43905 PUSH1 0xE0 SHL DUP2 MSTORE PUSH1 0x0 SWAP4 PUSH1 0x1 PUSH1 0x1 PUSH1 0xA0 SHL SUB SWAP1 DUP2 AND SWAP4 PUSH4 0xE6A43905 SWAP4 PUSH2 0x1266 SWAP4 SWAP2 DUP4 AND SWAP3 AND SWAP1 PUSH1 0x4 ADD PUSH2 0x1AE9 JUMP JUMPDEST PUSH1 0x20 PUSH1 0x40 MLOAD DUP1 DUP4 SUB DUP2 DUP7 DUP1 EXTCODESIZE ISZERO DUP1 ISZERO PUSH2 0x127E JUMPI PUSH1 0x0 DUP1 REVERT JUMPDEST POP GAS STATICCALL ISZERO DUP1 ISZERO PUSH2 0x1292 JUMPI RETURNDATASIZE PUSH1 0x0 DUP1 RETURNDATACOPY RETURNDATASIZE PUSH1 0x0 REVERT JUMPDEST POP POP POP POP PUSH1 0x40 MLOAD RETURNDATASIZE PUSH1 0x1F NOT PUSH1 0x1F DUP3 ADD AND DUP3 ADD DUP1 PUSH1 0x40 MSTORE POP DUP2 ADD SWAP1 PUSH2 0x12B6 SWAP2 SWAP1 PUSH2 0x18A2 JUMP JUMPDEST PUSH1 0x66 SLOAD PUSH1 0x40 MLOAD PUSH4 0x70A08231 PUSH1 0xE0 SHL DUP2 MSTORE SWAP2 SWAP3 POP PUSH1 0x0 SWAP2 PUSH1 0x1 PUSH1 0x1 PUSH1 0xA0 SHL SUB SWAP1 SWAP2 AND SWAP1 PUSH4 0x70A08231 SWAP1 PUSH2 0x12EC SWAP1 DUP6 SWAP1 PUSH1 0x4 ADD PUSH2 0x1AD5 JUMP JUMPDEST PUSH1 0x20 PUSH1 0x40 MLOAD DUP1 DUP4 SUB DUP2 DUP7 DUP1 EXTCODESIZE ISZERO DUP1 ISZERO PUSH2 0x1304 JUMPI PUSH1 0x0 DUP1 REVERT JUMPDEST POP GAS STATICCALL ISZERO DUP1 ISZERO PUSH2 0x1318 JUMPI RETURNDATASIZE PUSH1 0x0 DUP1 RETURNDATACOPY RETURNDATASIZE PUSH1 0x0 REVERT JUMPDEST POP POP POP POP PUSH1 0x40 MLOAD RETURNDATASIZE PUSH1 0x1F NOT PUSH1 0x1F DUP3 ADD AND DUP3 ADD DUP1 PUSH1 0x40 MSTORE POP DUP2 ADD SWAP1 PUSH2 0x133C SWAP2 SWAP1 PUSH2 0x1A54 JUMP JUMPDEST PUSH1 0x67 SLOAD PUSH1 0x40 MLOAD PUSH4 0x70A08231 PUSH1 0xE0 SHL DUP2 MSTORE SWAP2 SWAP3 POP PUSH1 0x0 SWAP2 PUSH1 0x1 PUSH1 0x1 PUSH1 0xA0 SHL SUB SWAP1 SWAP2 AND SWAP1 PUSH4 0x70A08231 SWAP1 PUSH2 0x1372 SWAP1 DUP7 SWAP1 PUSH1 0x4 ADD PUSH2 0x1AD5 JUMP JUMPDEST PUSH1 0x20 PUSH1 0x40 MLOAD DUP1 DUP4 SUB DUP2 DUP7 DUP1 EXTCODESIZE ISZERO DUP1 ISZERO PUSH2 0x138A JUMPI PUSH1 0x0 DUP1 REVERT JUMPDEST POP GAS STATICCALL ISZERO DUP1 ISZERO PUSH2 0x139E JUMPI RETURNDATASIZE PUSH1 0x0 DUP1 RETURNDATACOPY RETURNDATASIZE PUSH1 0x0 REVERT JUMPDEST POP POP POP POP PUSH1 0x40 MLOAD RETURNDATASIZE PUSH1 0x1F NOT PUSH1 0x1F DUP3 ADD AND DUP3 ADD DUP1 PUSH1 0x40 MSTORE POP DUP2 ADD SWAP1 PUSH2 0x13C2 SWAP2 SWAP1 PUSH2 0x1A54 JUMP JUMPDEST SWAP1 POP PUSH1 0x0 PUSH1 0x67 PUSH1 0x0 SWAP1 SLOAD SWAP1 PUSH2 0x100 EXP SWAP1 DIV PUSH1 0x1 PUSH1 0x1 PUSH1 0xA0 SHL SUB AND PUSH1 0x1 PUSH1 0x1 PUSH1 0xA0 SHL SUB AND PUSH4 0x313CE567 PUSH1 0x40 MLOAD DUP2 PUSH4 0xFFFFFFFF AND PUSH1 0xE0 SHL DUP2 MSTORE PUSH1 0x4 ADD PUSH1 0x20 PUSH1 0x40 MLOAD DUP1 DUP4 SUB DUP2 DUP7 DUP1 EXTCODESIZE ISZERO DUP1 ISZERO PUSH2 0x1414 JUMPI PUSH1 0x0 DUP1 REVERT JUMPDEST POP GAS STATICCALL ISZERO DUP1 ISZERO PUSH2 0x1428 JUMPI RETURNDATASIZE PUSH1 0x0 DUP1 RETURNDATACOPY RETURNDATASIZE PUSH1 0x0 REVERT JUMPDEST POP POP POP POP PUSH1 0x40 MLOAD RETURNDATASIZE PUSH1 0x1F NOT PUSH1 0x1F DUP3 ADD AND DUP3 ADD DUP1 PUSH1 0x40 MSTORE POP DUP2 ADD SWAP1 PUSH2 0x144C SWAP2 SWAP1 PUSH2 0x1A6C JUMP JUMPDEST PUSH1 0xFF AND SWAP1 POP PUSH1 0x0 PUSH1 0x12 DUP3 LT ISZERO PUSH2 0x146A JUMPI PUSH2 0x1467 DUP3 PUSH1 0x12 PUSH2 0x1ED1 JUMP JUMPDEST SWAP1 POP JUMPDEST PUSH1 0x0 PUSH2 0x1477 DUP3 PUSH1 0xA PUSH2 0x1DE4 JUMP JUMPDEST PUSH2 0x1489 SWAP1 PUSH8 0xDE0B6B3A7640000 PUSH2 0x1EB2 JUMP JUMPDEST SWAP1 POP PUSH1 0x0 PUSH2 0x149B DUP7 PUSH2 0xB0D DUP8 DUP6 PUSH2 0xF6F JUMP JUMPDEST SWAP1 POP PUSH1 0x0 DUP1 PUSH8 0xDE0B6B3A7640000 DUP4 GT ISZERO PUSH2 0x14F6 JUMPI PUSH2 0x14CC PUSH6 0x5AF3107A4000 PUSH2 0xB0D DUP6 PUSH8 0xDE0B6B3A7640000 PUSH2 0xF8E JUMP JUMPDEST SWAP1 POP PUSH1 0x72 SLOAD DUP2 GT ISZERO PUSH2 0x14E1 JUMPI PUSH1 0x0 SWAP2 POP PUSH2 0x14F1 JUMP JUMPDEST PUSH1 0x72 SLOAD PUSH2 0x14EE SWAP1 DUP3 PUSH2 0xF8E JUMP JUMPDEST SWAP2 POP JUMPDEST PUSH2 0x1525 JUMP JUMPDEST PUSH2 0x1512 PUSH6 0x5AF3107A4000 PUSH2 0xB0D DUP6 PUSH8 0xDE0B6B3A7640000 PUSH2 0x1ED1 JUMP JUMPDEST PUSH1 0x72 SLOAD SWAP1 SWAP2 POP PUSH2 0x1522 SWAP1 DUP3 PUSH2 0x1758 JUMP JUMPDEST SWAP2 POP JUMPDEST PUSH1 0x74 SLOAD PUSH1 0x73 SLOAD PUSH1 0x40 MLOAD PUSH4 0x236535F5 PUSH1 0xE1 SHL DUP2 MSTORE PUSH1 0x1 PUSH1 0x1 PUSH1 0xA0 SHL SUB SWAP1 SWAP3 AND SWAP2 PUSH4 0x46CA6BEA SWAP2 PUSH2 0x155B SWAP2 DUP7 SWAP1 PUSH1 0x1 SWAP1 PUSH1 0x4 ADD PUSH2 0x1D4E JUMP JUMPDEST PUSH1 0x0 PUSH1 0x40 MLOAD DUP1 DUP4 SUB DUP2 PUSH1 0x0 DUP8 DUP1 EXTCODESIZE ISZERO DUP1 ISZERO PUSH2 0x1575 JUMPI PUSH1 0x0 DUP1 REVERT JUMPDEST POP GAS CALL ISZERO DUP1 ISZERO PUSH2 0x1589 JUMPI RETURNDATASIZE PUSH1 0x0 DUP1 RETURNDATACOPY RETURNDATASIZE PUSH1 0x0 REVERT JUMPDEST POP POP POP POP POP POP POP POP POP POP POP POP POP JUMP JUMPDEST PUSH1 0x0 SLOAD PUSH2 0x100 SWAP1 DIV PUSH1 0xFF AND DUP1 PUSH2 0x15B1 JUMPI POP PUSH1 0x0 SLOAD PUSH1 0xFF AND ISZERO JUMPDEST PUSH2 0x15CD JUMPI PUSH1 0x40 MLOAD PUSH3 0x461BCD PUSH1 0xE5 SHL DUP2 MSTORE PUSH1 0x4 ADD PUSH2 0x47D SWAP1 PUSH2 0x1C0A JUMP JUMPDEST PUSH1 0x0 SLOAD PUSH2 0x100 SWAP1 DIV PUSH1 0xFF AND ISZERO DUP1 ISZERO PUSH2 0xEAE JUMPI PUSH1 0x0 DUP1 SLOAD PUSH1 0xFF NOT PUSH2 0xFF00 NOT SWAP1 SWAP2 AND PUSH2 0x100 OR AND PUSH1 0x1 OR SWAP1 SSTORE DUP1 ISZERO PUSH2 0xE28 JUMPI PUSH1 0x0 DUP1 SLOAD PUSH2 0xFF00 NOT AND SWAP1 SSTORE POP JUMP JUMPDEST PUSH1 0x0 SLOAD PUSH2 0x100 SWAP1 DIV PUSH1 0xFF AND DUP1 PUSH2 0x1624 JUMPI POP PUSH1 0x0 SLOAD PUSH1 0xFF AND ISZERO JUMPDEST PUSH2 0x1640 JUMPI PUSH1 0x40 MLOAD PUSH3 0x461BCD PUSH1 0xE5 SHL DUP2 MSTORE PUSH1 0x4 ADD PUSH2 0x47D SWAP1 PUSH2 0x1C0A JUMP JUMPDEST PUSH1 0x0 SLOAD PUSH2 0x100 SWAP1 DIV PUSH1 0xFF AND ISZERO DUP1 ISZERO PUSH2 0x166B JUMPI PUSH1 0x0 DUP1 SLOAD PUSH1 0xFF NOT PUSH2 0xFF00 NOT SWAP1 SWAP2 AND PUSH2 0x100 OR AND PUSH1 0x1 OR SWAP1 SSTORE JUMPDEST PUSH2 0xEAE PUSH2 0x1676 PUSH2 0xE3A JUMP JUMPDEST PUSH2 0xEC2 JUMP JUMPDEST PUSH1 0x0 PUSH2 0x16D0 DUP3 PUSH1 0x40 MLOAD DUP1 PUSH1 0x40 ADD PUSH1 0x40 MSTORE DUP1 PUSH1 0x20 DUP2 MSTORE PUSH1 0x20 ADD PUSH32 0x5361666545524332303A206C6F772D6C6576656C2063616C6C206661696C6564 DUP2 MSTORE POP DUP6 PUSH1 0x1 PUSH1 0x1 PUSH1 0xA0 SHL SUB AND PUSH2 0x1764 SWAP1 SWAP3 SWAP2 SWAP1 PUSH4 0xFFFFFFFF AND JUMP JUMPDEST DUP1 MLOAD SWAP1 SWAP2 POP ISZERO PUSH2 0xF6A JUMPI DUP1 DUP1 PUSH1 0x20 ADD SWAP1 MLOAD DUP2 ADD SWAP1 PUSH2 0x16EE SWAP2 SWAP1 PUSH2 0x193D JUMP JUMPDEST PUSH2 0xF6A JUMPI PUSH1 0x40 MLOAD PUSH3 0x461BCD PUSH1 0xE5 SHL DUP2 MSTORE PUSH1 0x4 ADD PUSH2 0x47D SWAP1 PUSH2 0x1CC4 JUMP JUMPDEST PUSH1 0x0 DUP1 PUSH2 0x1719 DUP6 PUSH2 0x26F2 PUSH2 0xF6F JUMP JUMPDEST SWAP1 POP PUSH1 0x0 PUSH2 0x1727 DUP3 DUP6 PUSH2 0xF6F JUMP JUMPDEST SWAP1 POP PUSH1 0x0 PUSH2 0x1741 DUP4 PUSH2 0x173B DUP9 PUSH2 0x2710 PUSH2 0xF6F JUMP JUMPDEST SWAP1 PUSH2 0x1758 JUMP JUMPDEST SWAP1 POP PUSH2 0x174D DUP2 DUP4 PUSH2 0x1D7E JUMP JUMPDEST SWAP8 SWAP7 POP POP POP POP POP POP POP JUMP JUMPDEST PUSH1 0x0 PUSH2 0xF7B DUP3 DUP5 PUSH2 0x1D66 JUMP JUMPDEST PUSH1 0x60 PUSH2 0x1773 DUP5 DUP5 PUSH1 0x0 DUP6 PUSH2 0x177B JUMP JUMPDEST SWAP5 SWAP4 POP POP POP POP JUMP JUMPDEST PUSH1 0x60 DUP3 SELFBALANCE LT ISZERO PUSH2 0x179D JUMPI PUSH1 0x40 MLOAD PUSH3 0x461BCD PUSH1 0xE5 SHL DUP2 MSTORE PUSH1 0x4 ADD PUSH2 0x47D SWAP1 PUSH2 0x1BC4 JUMP JUMPDEST PUSH2 0x17A6 DUP6 PUSH2 0x1830 JUMP JUMPDEST PUSH2 0x17C2 JUMPI PUSH1 0x40 MLOAD PUSH3 0x461BCD PUSH1 0xE5 SHL DUP2 MSTORE PUSH1 0x4 ADD PUSH2 0x47D SWAP1 PUSH2 0x1C8D JUMP JUMPDEST PUSH1 0x0 DUP1 DUP7 PUSH1 0x1 PUSH1 0x1 PUSH1 0xA0 SHL SUB AND DUP6 DUP8 PUSH1 0x40 MLOAD PUSH2 0x17DE SWAP2 SWAP1 PUSH2 0x1AB9 JUMP JUMPDEST PUSH1 0x0 PUSH1 0x40 MLOAD DUP1 DUP4 SUB DUP2 DUP6 DUP8 GAS CALL SWAP3 POP POP POP RETURNDATASIZE DUP1 PUSH1 0x0 DUP2 EQ PUSH2 0x181B JUMPI PUSH1 0x40 MLOAD SWAP2 POP PUSH1 0x1F NOT PUSH1 0x3F RETURNDATASIZE ADD AND DUP3 ADD PUSH1 0x40 MSTORE RETURNDATASIZE DUP3 MSTORE RETURNDATASIZE PUSH1 0x0 PUSH1 0x20 DUP5 ADD RETURNDATACOPY PUSH2 0x1820 JUMP JUMPDEST PUSH1 0x60 SWAP2 POP JUMPDEST POP SWAP2 POP SWAP2 POP PUSH2 0x174D DUP3 DUP3 DUP7 PUSH2 0x1836 JUMP JUMPDEST EXTCODESIZE ISZERO ISZERO SWAP1 JUMP JUMPDEST PUSH1 0x60 DUP4 ISZERO PUSH2 0x1845 JUMPI POP DUP2 PUSH2 0xF7B JUMP JUMPDEST DUP3 MLOAD ISZERO PUSH2 0x1855 JUMPI DUP3 MLOAD DUP1 DUP5 PUSH1 0x20 ADD REVERT JUMPDEST DUP2 PUSH1 0x40 MLOAD PUSH3 0x461BCD PUSH1 0xE5 SHL DUP2 MSTORE PUSH1 0x4 ADD PUSH2 0x47D SWAP2 SWAP1 PUSH2 0x1B27 JUMP JUMPDEST DUP1 MLOAD PUSH1 0x1 PUSH1 0x1 PUSH1 0x70 SHL SUB DUP2 AND DUP2 EQ PUSH2 0x48F JUMPI PUSH1 0x0 DUP1 REVERT JUMPDEST PUSH1 0x0 PUSH1 0x20 DUP3 DUP5 SUB SLT ISZERO PUSH2 0x1897 JUMPI DUP1 DUP2 REVERT JUMPDEST DUP2 CALLDATALOAD PUSH2 0xF7B DUP2 PUSH2 0x1F2E JUMP JUMPDEST PUSH1 0x0 PUSH1 0x20 DUP3 DUP5 SUB SLT ISZERO PUSH2 0x18B3 JUMPI DUP1 DUP2 REVERT JUMPDEST DUP2 MLOAD PUSH2 0xF7B DUP2 PUSH2 0x1F2E JUMP JUMPDEST PUSH1 0x0 DUP1 PUSH1 0x40 DUP4 DUP6 SUB SLT ISZERO PUSH2 0x18D0 JUMPI DUP1 DUP2 REVERT JUMPDEST DUP3 CALLDATALOAD PUSH2 0x18DB DUP2 PUSH2 0x1F2E JUMP JUMPDEST SWAP2 POP PUSH1 0x20 DUP4 ADD CALLDATALOAD PUSH2 0x18EB DUP2 PUSH2 0x1F43 JUMP JUMPDEST DUP1 SWAP2 POP POP SWAP3 POP SWAP3 SWAP1 POP JUMP JUMPDEST PUSH1 0x0 DUP1 PUSH1 0x40 DUP4 DUP6 SUB SLT ISZERO PUSH2 0x1908 JUMPI DUP2 DUP3 REVERT JUMPDEST DUP3 CALLDATALOAD PUSH2 0x1913 DUP2 PUSH2 0x1F2E JUMP JUMPDEST SWAP5 PUSH1 0x20 SWAP4 SWAP1 SWAP4 ADD CALLDATALOAD SWAP4 POP POP POP JUMP JUMPDEST PUSH1 0x0 PUSH1 0x20 DUP3 DUP5 SUB SLT ISZERO PUSH2 0x1932 JUMPI DUP1 DUP2 REVERT JUMPDEST DUP2 CALLDATALOAD PUSH2 0xF7B DUP2 PUSH2 0x1F43 JUMP JUMPDEST PUSH1 0x0 PUSH1 0x20 DUP3 DUP5 SUB SLT ISZERO PUSH2 0x194E JUMPI DUP1 DUP2 REVERT JUMPDEST DUP2 MLOAD PUSH2 0xF7B DUP2 PUSH2 0x1F43 JUMP JUMPDEST PUSH1 0x0 DUP1 PUSH1 0x0 DUP1 PUSH1 0x0 DUP1 PUSH1 0x0 PUSH1 0xE0 DUP9 DUP11 SUB SLT ISZERO PUSH2 0x1973 JUMPI DUP3 DUP4 REVERT JUMPDEST DUP8 CALLDATALOAD PUSH2 0x197E DUP2 PUSH2 0x1F2E JUMP JUMPDEST SWAP7 POP PUSH1 0x20 DUP9 ADD CALLDATALOAD PUSH2 0x198E DUP2 PUSH2 0x1F2E JUMP JUMPDEST SWAP6 POP PUSH1 0x40 DUP9 ADD CALLDATALOAD PUSH2 0x199E DUP2 PUSH2 0x1F2E JUMP JUMPDEST SWAP5 POP PUSH1 0x60 DUP9 ADD CALLDATALOAD PUSH2 0x19AE DUP2 PUSH2 0x1F2E JUMP JUMPDEST SWAP4 POP PUSH1 0x80 DUP9 ADD CALLDATALOAD PUSH2 0x19BE DUP2 PUSH2 0x1F2E JUMP JUMPDEST SWAP3 POP PUSH1 0xA0 DUP9 ADD CALLDATALOAD PUSH2 0x19CE DUP2 PUSH2 0x1F2E JUMP JUMPDEST SWAP2 POP PUSH1 0xC0 DUP9 ADD CALLDATALOAD PUSH2 0x19DE DUP2 PUSH2 0x1F2E JUMP JUMPDEST DUP1 SWAP2 POP POP SWAP3 SWAP6 SWAP9 SWAP2 SWAP5 SWAP8 POP SWAP3 SWAP6 POP JUMP JUMPDEST PUSH1 0x0 DUP1 PUSH1 0x0 PUSH1 0x60 DUP5 DUP7 SUB SLT ISZERO PUSH2 0x1A02 JUMPI DUP3 DUP4 REVERT JUMPDEST PUSH2 0x1A0B DUP5 PUSH2 0x186F JUMP JUMPDEST SWAP3 POP PUSH2 0x1A19 PUSH1 0x20 DUP6 ADD PUSH2 0x186F JUMP JUMPDEST SWAP2 POP PUSH1 0x40 DUP5 ADD MLOAD PUSH4 0xFFFFFFFF DUP2 AND DUP2 EQ PUSH2 0x1A31 JUMPI DUP2 DUP3 REVERT JUMPDEST DUP1 SWAP2 POP POP SWAP3 POP SWAP3 POP SWAP3 JUMP JUMPDEST PUSH1 0x0 PUSH1 0x20 DUP3 DUP5 SUB SLT ISZERO PUSH2 0x1A4D JUMPI DUP1 DUP2 REVERT JUMPDEST POP CALLDATALOAD SWAP2 SWAP1 POP JUMP JUMPDEST PUSH1 0x0 PUSH1 0x20 DUP3 DUP5 SUB SLT ISZERO PUSH2 0x1A65 JUMPI DUP1 DUP2 REVERT JUMPDEST POP MLOAD SWAP2 SWAP1 POP JUMP JUMPDEST PUSH1 0x0 PUSH1 0x20 DUP3 DUP5 SUB SLT ISZERO PUSH2 0x1A7D JUMPI DUP1 DUP2 REVERT JUMPDEST DUP2 MLOAD PUSH1 0xFF DUP2 AND DUP2 EQ PUSH2 0xF7B JUMPI DUP2 DUP3 REVERT JUMPDEST PUSH1 0x0 DUP2 MLOAD DUP1 DUP5 MSTORE PUSH2 0x1AA5 DUP2 PUSH1 0x20 DUP7 ADD PUSH1 0x20 DUP7 ADD PUSH2 0x1EE8 JUMP JUMPDEST PUSH1 0x1F ADD PUSH1 0x1F NOT AND SWAP3 SWAP1 SWAP3 ADD PUSH1 0x20 ADD SWAP3 SWAP2 POP POP JUMP JUMPDEST PUSH1 0x0 DUP3 MLOAD PUSH2 0x1ACB DUP2 DUP5 PUSH1 0x20 DUP8 ADD PUSH2 0x1EE8 JUMP JUMPDEST SWAP2 SWAP1 SWAP2 ADD SWAP3 SWAP2 POP POP JUMP JUMPDEST PUSH1 0x1 PUSH1 0x1 PUSH1 0xA0 SHL SUB SWAP2 SWAP1 SWAP2 AND DUP2 MSTORE PUSH1 0x20 ADD SWAP1 JUMP JUMPDEST PUSH1 0x1 PUSH1 0x1 PUSH1 0xA0 SHL SUB SWAP3 DUP4 AND DUP2 MSTORE SWAP2 AND PUSH1 0x20 DUP3 ADD MSTORE PUSH1 0x40 ADD SWAP1 JUMP JUMPDEST PUSH1 0x1 PUSH1 0x1 PUSH1 0xA0 SHL SUB SWAP3 SWAP1 SWAP3 AND DUP3 MSTORE PUSH1 0x20 DUP3 ADD MSTORE PUSH1 0x40 ADD SWAP1 JUMP JUMPDEST SWAP1 ISZERO ISZERO DUP2 MSTORE PUSH1 0x20 ADD SWAP1 JUMP JUMPDEST PUSH1 0x0 PUSH1 0x20 DUP3 MSTORE PUSH2 0xF7B PUSH1 0x20 DUP4 ADD DUP5 PUSH2 0x1A8D JUMP JUMPDEST PUSH1 0x20 DUP1 DUP3 MSTORE PUSH1 0x26 SWAP1 DUP3 ADD MSTORE PUSH32 0x4F776E61626C653A206E6577206F776E657220697320746865207A65726F2061 PUSH1 0x40 DUP3 ADD MSTORE PUSH6 0x646472657373 PUSH1 0xD0 SHL PUSH1 0x60 DUP3 ADD MSTORE PUSH1 0x80 ADD SWAP1 JUMP JUMPDEST PUSH1 0x20 DUP1 DUP3 MSTORE PUSH1 0x24 SWAP1 DUP3 ADD MSTORE PUSH32 0x6578656375746F723A2063616C6C6572206973206E6F74207468652065786563 PUSH1 0x40 DUP3 ADD MSTORE PUSH4 0x3ABA37B9 PUSH1 0xE1 SHL PUSH1 0x60 DUP3 ADD MSTORE PUSH1 0x80 ADD SWAP1 JUMP JUMPDEST PUSH1 0x20 DUP1 DUP3 MSTORE PUSH1 0x26 SWAP1 DUP3 ADD MSTORE PUSH32 0x416464726573733A20696E73756666696369656E742062616C616E636520666F PUSH1 0x40 DUP3 ADD MSTORE PUSH6 0x1C8818D85B1B PUSH1 0xD2 SHL PUSH1 0x60 DUP3 ADD MSTORE PUSH1 0x80 ADD SWAP1 JUMP JUMPDEST PUSH1 0x20 DUP1 DUP3 MSTORE PUSH1 0x2E SWAP1 DUP3 ADD MSTORE PUSH32 0x496E697469616C697A61626C653A20636F6E747261637420697320616C726561 PUSH1 0x40 DUP3 ADD MSTORE PUSH14 0x191E481A5B9A5D1A585B1A5E9959 PUSH1 0x92 SHL PUSH1 0x60 DUP3 ADD MSTORE PUSH1 0x80 ADD SWAP1 JUMP JUMPDEST PUSH1 0x20 DUP1 DUP3 MSTORE DUP2 DUP2 ADD MSTORE PUSH32 0x4F776E61626C653A2063616C6C6572206973206E6F7420746865206F776E6572 PUSH1 0x40 DUP3 ADD MSTORE PUSH1 0x60 ADD SWAP1 JUMP JUMPDEST PUSH1 0x20 DUP1 DUP3 MSTORE PUSH1 0x1D SWAP1 DUP3 ADD MSTORE PUSH32 0x416464726573733A2063616C6C20746F206E6F6E2D636F6E7472616374000000 PUSH1 0x40 DUP3 ADD MSTORE PUSH1 0x60 ADD SWAP1 JUMP JUMPDEST PUSH1 0x20 DUP1 DUP3 MSTORE PUSH1 0x2A SWAP1 DUP3 ADD MSTORE PUSH32 0x5361666545524332303A204552433230206F7065726174696F6E20646964206E PUSH1 0x40 DUP3 ADD MSTORE PUSH10 0x1BDD081CDD58D8D95959 PUSH1 0xB2 SHL PUSH1 0x60 DUP3 ADD MSTORE PUSH1 0x80 ADD SWAP1 JUMP JUMPDEST SWAP1 DUP2 MSTORE PUSH1 0x20 ADD SWAP1 JUMP JUMPDEST PUSH1 0x0 DUP6 DUP3 MSTORE DUP5 PUSH1 0x20 DUP4 ADD MSTORE PUSH1 0x1 DUP1 PUSH1 0xA0 SHL SUB DUP5 AND PUSH1 0x40 DUP4 ADD MSTORE PUSH1 0x80 PUSH1 0x60 DUP4 ADD MSTORE PUSH2 0x1D44 PUSH1 0x80 DUP4 ADD DUP5 PUSH2 0x1A8D JUMP JUMPDEST SWAP7 SWAP6 POP POP POP POP POP POP JUMP JUMPDEST SWAP3 DUP4 MSTORE PUSH1 0x20 DUP4 ADD SWAP2 SWAP1 SWAP2 MSTORE ISZERO ISZERO PUSH1 0x40 DUP3 ADD MSTORE PUSH1 0x60 ADD SWAP1 JUMP JUMPDEST PUSH1 0x0 DUP3 NOT DUP3 GT ISZERO PUSH2 0x1D79 JUMPI PUSH2 0x1D79 PUSH2 0x1F18 JUMP JUMPDEST POP ADD SWAP1 JUMP JUMPDEST PUSH1 0x0 DUP3 PUSH2 0x1D99 JUMPI PUSH4 0x4E487B71 PUSH1 0xE0 SHL DUP2 MSTORE PUSH1 0x12 PUSH1 0x4 MSTORE PUSH1 0x24 DUP2 REVERT JUMPDEST POP DIV SWAP1 JUMP JUMPDEST DUP1 DUP3 JUMPDEST PUSH1 0x1 DUP1 DUP7 GT PUSH2 0x1DB0 JUMPI POP PUSH2 0x1DDB JUMP JUMPDEST DUP2 DUP8 DIV DUP3 GT ISZERO PUSH2 0x1DC2 JUMPI PUSH2 0x1DC2 PUSH2 0x1F18 JUMP JUMPDEST DUP1 DUP7 AND ISZERO PUSH2 0x1DCF JUMPI SWAP2 DUP2 MUL SWAP2 JUMPDEST SWAP5 SWAP1 SWAP5 SHR SWAP4 DUP1 MUL PUSH2 0x1DA1 JUMP JUMPDEST SWAP5 POP SWAP5 SWAP3 POP POP POP JUMP JUMPDEST PUSH1 0x0 PUSH2 0xF7B PUSH1 0x0 NOT DUP5 DUP5 PUSH1 0x0 DUP3 PUSH2 0x1DFD JUMPI POP PUSH1 0x1 PUSH2 0xF7B JUMP JUMPDEST DUP2 PUSH2 0x1E0A JUMPI POP PUSH1 0x0 PUSH2 0xF7B JUMP JUMPDEST DUP2 PUSH1 0x1 DUP2 EQ PUSH2 0x1E20 JUMPI PUSH1 0x2 DUP2 EQ PUSH2 0x1E2A JUMPI PUSH2 0x1E57 JUMP JUMPDEST PUSH1 0x1 SWAP2 POP POP PUSH2 0xF7B JUMP JUMPDEST PUSH1 0xFF DUP5 GT ISZERO PUSH2 0x1E3B JUMPI PUSH2 0x1E3B PUSH2 0x1F18 JUMP JUMPDEST PUSH1 0x1 DUP5 SHL SWAP2 POP DUP5 DUP3 GT ISZERO PUSH2 0x1E51 JUMPI PUSH2 0x1E51 PUSH2 0x1F18 JUMP JUMPDEST POP PUSH2 0xF7B JUMP JUMPDEST POP PUSH1 0x20 DUP4 LT PUSH2 0x133 DUP4 LT AND PUSH1 0x4E DUP5 LT PUSH1 0xB DUP5 LT AND OR ISZERO PUSH2 0x1E8A JUMPI POP DUP2 DUP2 EXP DUP4 DUP2 GT ISZERO PUSH2 0x1E85 JUMPI PUSH2 0x1E85 PUSH2 0x1F18 JUMP JUMPDEST PUSH2 0xF7B JUMP JUMPDEST PUSH2 0x1E97 DUP5 DUP5 DUP5 PUSH1 0x1 PUSH2 0x1D9E JUMP JUMPDEST DUP1 DUP7 DIV DUP3 GT ISZERO PUSH2 0x1EA9 JUMPI PUSH2 0x1EA9 PUSH2 0x1F18 JUMP JUMPDEST MUL SWAP5 SWAP4 POP POP POP POP JUMP JUMPDEST PUSH1 0x0 DUP2 PUSH1 0x0 NOT DIV DUP4 GT DUP3 ISZERO ISZERO AND ISZERO PUSH2 0x1ECC JUMPI PUSH2 0x1ECC PUSH2 0x1F18 JUMP JUMPDEST POP MUL SWAP1 JUMP JUMPDEST PUSH1 0x0 DUP3 DUP3 LT ISZERO PUSH2 0x1EE3 JUMPI PUSH2 0x1EE3 PUSH2 0x1F18 JUMP JUMPDEST POP SUB SWAP1 JUMP JUMPDEST PUSH1 0x0 JUMPDEST DUP4 DUP2 LT ISZERO PUSH2 0x1F03 JUMPI DUP2 DUP2 ADD MLOAD DUP4 DUP3 ADD MSTORE PUSH1 0x20 ADD PUSH2 0x1EEB JUMP JUMPDEST DUP4 DUP2 GT ISZERO PUSH2 0x1F12 JUMPI PUSH1 0x0 DUP5 DUP5 ADD MSTORE JUMPDEST POP POP POP POP JUMP JUMPDEST PUSH4 0x4E487B71 PUSH1 0xE0 SHL PUSH1 0x0 MSTORE PUSH1 0x11 PUSH1 0x4 MSTORE PUSH1 0x24 PUSH1 0x0 REVERT JUMPDEST PUSH1 0x1 PUSH1 0x1 PUSH1 0xA0 SHL SUB DUP2 AND DUP2 EQ PUSH2 0xE28 JUMPI PUSH1 0x0 DUP1 REVERT JUMPDEST DUP1 ISZERO ISZERO DUP2 EQ PUSH2 0xE28 JUMPI PUSH1 0x0 DUP1 REVERT INVALID LOG2 PUSH5 0x6970667358 0x22 SLT KECCAK256 PC 0xA6 SWAP14 0xCD PUSH6 0x2B30EBE94125 0xDC SWAP4 GT 0xD5 0x23 SWAP10 0x4A 0xD7 EQ PUSH5 0xA9485B6C18 MULMOD DUP4 COINBASE 0xC1 0xBF LOG3 PUSH5 0x736F6C6343 STOP ADDMOD STOP STOP CALLER "
				},
				"gasEstimates": {
					"creation": {
						"codeDepositCost": "1614200",
						"executionCost": "1694",
						"totalCost": "1615894"
					},
					"external": {
						"Factory()": "1137",
						"PRECISION()": "1117",
						"Router()": "1202",
						"autoAdjustFarm()": "1169",
						"basePoint()": "1075",
						"dev()": "1138",
						"executor(address)": "1348",
						"farm()": "1182",
						"initialize(address,address,address,address,address,address,address)": "infinite",
						"jointExecution()": "infinite",
						"op()": "1136",
						"openStabilizer()": "1146",
						"owner()": "1117",
						"pid()": "1116",
						"renounceOwnership()": "23619",
						"sea()": "1115",
						"setAutoAdjustFarm(bool)": "22239",
						"setDev(address)": "22298",
						"setExecutor(address,bool)": "infinite",
						"setFarm(address)": "22320",
						"setOp(address)": "22232",
						"setOpenStabilizer(bool)": "22238",
						"setPid(uint256)": "21331",
						"setStabilizer(address)": "22231",
						"setToDevPercent(uint256)": "21384",
						"setToOpPercent(uint256)": "21361",
						"setToSseaPercent(uint256)": "21363",
						"setUSDCAddress(address)": "22254",
						"ssea()": "1203",
						"stabilizer()": "1203",
						"toDevPercent()": "1140",
						"toOpPercent()": "1074",
						"toSseaPercent()": "1073",
						"transferOwnership(address)": "infinite",
						"usc()": "1138",
						"usdc()": "1116",
						"withdrawalERC20(address,uint256)": "infinite"
					},
					"internal": {
						"adjustFarm()": "infinite",
						"buySea(uint256)": "infinite",
						"getAmountOut(uint256,uint256,uint256)": "infinite"
					}
				},
				"methodIdentifiers": {
					"Factory()": "c83dd231",
					"PRECISION()": "aaf5eb68",
					"Router()": "f6d7eade",
					"autoAdjustFarm()": "9da5b0d5",
					"basePoint()": "16d03993",
					"dev()": "91cca3db",
					"executor(address)": "48c7e528",
					"farm()": "36e9332d",
					"initialize(address,address,address,address,address,address,address)": "35876476",
					"jointExecution()": "d10c06a2",
					"op()": "ec1f1f69",
					"openStabilizer()": "58de5de8",
					"owner()": "8da5cb5b",
					"pid()": "f1068454",
					"renounceOwnership()": "715018a6",
					"sea()": "4ecaac41",
					"setAutoAdjustFarm(bool)": "4591db50",
					"setDev(address)": "d477f05f",
					"setExecutor(address,bool)": "1e1bff3f",
					"setFarm(address)": "d4f26c51",
					"setOp(address)": "a36a7526",
					"setOpenStabilizer(bool)": "55c746d1",
					"setPid(uint256)": "1b0d8aab",
					"setStabilizer(address)": "db7f521a",
					"setToDevPercent(uint256)": "3c850e1e",
					"setToOpPercent(uint256)": "af5518c4",
					"setToSseaPercent(uint256)": "27c42a50",
					"setUSDCAddress(address)": "aaf5bfc3",
					"ssea()": "b8bb97a1",
					"stabilizer()": "7e47961c",
					"toDevPercent()": "4ae6a027",
					"toOpPercent()": "2c535a52",
					"toSseaPercent()": "bd0b1f44",
					"transferOwnership(address)": "f2fde38b",
					"usc()": "3011d3d5",
					"usdc()": "3e413bee",
					"withdrawalERC20(address,uint256)": "930ed033"
				}
			},
			"storageLayout": {
				"storage": [
					{
						"astId": 130,
						"contract": "contracts/helperLogic.sol:helperLogic",
						"label": "_initialized",
						"offset": 0,
						"slot": "0",
						"type": "t_bool"
					},
					{
						"astId": 133,
						"contract": "contracts/helperLogic.sol:helperLogic",
						"label": "_initializing",
						"offset": 1,
						"slot": "0",
						"type": "t_bool"
					},
					{
						"astId": 760,
						"contract": "contracts/helperLogic.sol:helperLogic",
						"label": "__gap",
						"offset": 0,
						"slot": "1",
						"type": "t_array(t_uint256)50_storage"
					},
					{
						"astId": 10,
						"contract": "contracts/helperLogic.sol:helperLogic",
						"label": "_owner",
						"offset": 0,
						"slot": "51",
						"type": "t_address"
					},
					{
						"astId": 124,
						"contract": "contracts/helperLogic.sol:helperLogic",
						"label": "__gap",
						"offset": 0,
						"slot": "52",
						"type": "t_array(t_uint256)49_storage"
					},
					{
						"astId": 1825,
						"contract": "contracts/helperLogic.sol:helperLogic",
						"label": "executor",
						"offset": 0,
						"slot": "101",
						"type": "t_mapping(t_address,t_bool)"
					},
					{
						"astId": 1828,
						"contract": "contracts/helperLogic.sol:helperLogic",
						"label": "usc",
						"offset": 0,
						"slot": "102",
						"type": "t_contract(IERC20Upgradeable)248"
					},
					{
						"astId": 1831,
						"contract": "contracts/helperLogic.sol:helperLogic",
						"label": "usdc",
						"offset": 0,
						"slot": "103",
						"type": "t_contract(IERC20Upgradeable)248"
					},
					{
						"astId": 1834,
						"contract": "contracts/helperLogic.sol:helperLogic",
						"label": "sea",
						"offset": 0,
						"slot": "104",
						"type": "t_contract(IERC20Upgradeable)248"
					},
					{
						"astId": 1837,
						"contract": "contracts/helperLogic.sol:helperLogic",
						"label": "ssea",
						"offset": 0,
						"slot": "105",
						"type": "t_contract(IERC20Upgradeable)248"
					},
					{
						"astId": 1839,
						"contract": "contracts/helperLogic.sol:helperLogic",
						"label": "op",
						"offset": 0,
						"slot": "106",
						"type": "t_address"
					},
					{
						"astId": 1841,
						"contract": "contracts/helperLogic.sol:helperLogic",
						"label": "dev",
						"offset": 0,
						"slot": "107",
						"type": "t_address"
					},
					{
						"astId": 1844,
						"contract": "contracts/helperLogic.sol:helperLogic",
						"label": "Router",
						"offset": 0,
						"slot": "108",
						"type": "t_contract(IUniswapV2Router02)1784"
					},
					{
						"astId": 1847,
						"contract": "contracts/helperLogic.sol:helperLogic",
						"label": "Factory",
						"offset": 0,
						"slot": "109",
						"type": "t_contract(IUniswapV2Factory)1146"
					},
					{
						"astId": 1849,
						"contract": "contracts/helperLogic.sol:helperLogic",
						"label": "toSseaPercent",
						"offset": 0,
						"slot": "110",
						"type": "t_uint256"
					},
					{
						"astId": 1851,
						"contract": "contracts/helperLogic.sol:helperLogic",
						"label": "toOpPercent",
						"offset": 0,
						"slot": "111",
						"type": "t_uint256"
					},
					{
						"astId": 1853,
						"contract": "contracts/helperLogic.sol:helperLogic",
						"label": "toDevPercent",
						"offset": 0,
						"slot": "112",
						"type": "t_uint256"
					},
					{
						"astId": 1855,
						"contract": "contracts/helperLogic.sol:helperLogic",
						"label": "PRECISION",
						"offset": 0,
						"slot": "113",
						"type": "t_uint256"
					},
					{
						"astId": 1857,
						"contract": "contracts/helperLogic.sol:helperLogic",
						"label": "basePoint",
						"offset": 0,
						"slot": "114",
						"type": "t_uint256"
					},
					{
						"astId": 1859,
						"contract": "contracts/helperLogic.sol:helperLogic",
						"label": "pid",
						"offset": 0,
						"slot": "115",
						"type": "t_uint256"
					},
					{
						"astId": 1862,
						"contract": "contracts/helperLogic.sol:helperLogic",
						"label": "farm",
						"offset": 0,
						"slot": "116",
						"type": "t_contract(IFarm)1804"
					},
					{
						"astId": 1864,
						"contract": "contracts/helperLogic.sol:helperLogic",
						"label": "autoAdjustFarm",
						"offset": 20,
						"slot": "116",
						"type": "t_bool"
					},
					{
						"astId": 1866,
						"contract": "contracts/helperLogic.sol:helperLogic",
						"label": "openStabilizer",
						"offset": 21,
						"slot": "116",
						"type": "t_bool"
					},
					{
						"astId": 1868,
						"contract": "contracts/helperLogic.sol:helperLogic",
						"label": "stabilizer",
						"offset": 0,
						"slot": "117",
						"type": "t_address"
					}
				],
				"types": {
					"t_address": {
						"encoding": "inplace",
						"label": "address",
						"numberOfBytes": "20"
					},
					"t_array(t_uint256)49_storage": {
						"base": "t_uint256",
						"encoding": "inplace",
						"label": "uint256[49]",
						"numberOfBytes": "1568"
					},
					"t_array(t_uint256)50_storage": {
						"base": "t_uint256",
						"encoding": "inplace",
						"label": "uint256[50]",
						"numberOfBytes": "1600"
					},
					"t_bool": {
						"encoding": "inplace",
						"label": "bool",
						"numberOfBytes": "1"
					},
					"t_contract(IERC20Upgradeable)248": {
						"encoding": "inplace",
						"label": "contract IERC20Upgradeable",
						"numberOfBytes": "20"
					},
					"t_contract(IFarm)1804": {
						"encoding": "inplace",
						"label": "contract IFarm",
						"numberOfBytes": "20"
					},
					"t_contract(IUniswapV2Factory)1146": {
						"encoding": "inplace",
						"label": "contract IUniswapV2Factory",
						"numberOfBytes": "20"
					},
					"t_contract(IUniswapV2Router02)1784": {
						"encoding": "inplace",
						"label": "contract IUniswapV2Router02",
						"numberOfBytes": "20"
					},
					"t_mapping(t_address,t_bool)": {
						"encoding": "mapping",
						"key": "t_address",
						"label": "mapping(address => bool)",
						"numberOfBytes": "32",
						"value": "t_bool"
					},
					"t_uint256": {
						"encoding": "inplace",
						"label": "uint256",
						"numberOfBytes": "32"
					}
				}
			},
			"userdoc": {
				"kind": "user",
				"methods": {},
				"version": 1
			}
		}
	}
}