{
	"contracts/mirrorseaMain.sol": {
		"mirrorseaMain": {
			"abi": [
				{
					"anonymous": false,
					"inputs": [
						{
							"indexed": true,
							"internalType": "address",
							"name": "previousOwner",
							"type": "address"
						},
						{
							"indexed": true,
							"internalType": "address",
							"name": "newOwner",
							"type": "address"
						}
					],
					"name": "OwnershipTransferred",
					"type": "event"
				},
				{
					"inputs": [],
					"name": "OrderIndex",
					"outputs": [
						{
							"internalType": "uint256",
							"name": "",
							"type": "uint256"
						}
					],
					"stateMutability": "view",
					"type": "function"
				},
				{
					"inputs": [],
					"name": "PRECISION",
					"outputs": [
						{
							"internalType": "uint256",
							"name": "",
							"type": "uint256"
						}
					],
					"stateMutability": "view",
					"type": "function"
				},
				{
					"inputs": [
						{
							"internalType": "bool",
							"name": "_marketState",
							"type": "bool"
						},
						{
							"internalType": "uint256",
							"name": "_id",
							"type": "uint256"
						},
						{
							"internalType": "uint256",
							"name": "_timestamp",
							"type": "uint256"
						},
						{
							"internalType": "string",
							"name": "_symbols",
							"type": "string"
						},
						{
							"internalType": "uint256",
							"name": "_price18",
							"type": "uint256"
						},
						{
							"internalType": "bytes",
							"name": "_signature",
							"type": "bytes"
						},
						{
							"internalType": "uint256",
							"name": "_adjustMargin",
							"type": "uint256"
						}
					],
					"name": "adjustPosition",
					"outputs": [
						{
							"internalType": "bool",
							"name": "",
							"type": "bool"
						}
					],
					"stateMutability": "nonpayable",
					"type": "function"
				},
				{
					"inputs": [
						{
							"internalType": "bool",
							"name": "_marketState",
							"type": "bool"
						},
						{
							"internalType": "uint256",
							"name": "_id",
							"type": "uint256"
						},
						{
							"internalType": "uint256",
							"name": "_timestamp",
							"type": "uint256"
						},
						{
							"internalType": "string",
							"name": "_symbols",
							"type": "string"
						},
						{
							"internalType": "uint256",
							"name": "_price18",
							"type": "uint256"
						},
						{
							"internalType": "bytes",
							"name": "_signature",
							"type": "bytes"
						}
					],
					"name": "closePosition",
					"outputs": [
						{
							"internalType": "bool",
							"name": "",
							"type": "bool"
						}
					],
					"stateMutability": "nonpayable",
					"type": "function"
				},
				{
					"inputs": [
						{
							"internalType": "address",
							"name": "",
							"type": "address"
						}
					],
					"name": "executor",
					"outputs": [
						{
							"internalType": "bool",
							"name": "",
							"type": "bool"
						}
					],
					"stateMutability": "view",
					"type": "function"
				},
				{
					"inputs": [],
					"name": "feePercent",
					"outputs": [
						{
							"internalType": "uint256",
							"name": "",
							"type": "uint256"
						}
					],
					"stateMutability": "view",
					"type": "function"
				},
				{
					"inputs": [
						{
							"internalType": "bool",
							"name": "_marketState",
							"type": "bool"
						},
						{
							"internalType": "uint256",
							"name": "_id",
							"type": "uint256"
						},
						{
							"internalType": "uint256",
							"name": "_timestamp",
							"type": "uint256"
						},
						{
							"internalType": "string",
							"name": "_symbols",
							"type": "string"
						},
						{
							"internalType": "uint256",
							"name": "_price18",
							"type": "uint256"
						},
						{
							"internalType": "bytes",
							"name": "_signature",
							"type": "bytes"
						}
					],
					"name": "forcedLiquidation",
					"outputs": [
						{
							"internalType": "bool",
							"name": "",
							"type": "bool"
						}
					],
					"stateMutability": "nonpayable",
					"type": "function"
				},
				{
					"inputs": [],
					"name": "helperLogic",
					"outputs": [
						{
							"internalType": "contract IhelperLogic",
							"name": "",
							"type": "address"
						}
					],
					"stateMutability": "view",
					"type": "function"
				},
				{
					"inputs": [
						{
							"internalType": "address",
							"name": "_signer",
							"type": "address"
						},
						{
							"internalType": "contract IhelperLogic",
							"name": "_helperLogic",
							"type": "address"
						},
						{
							"internalType": "contract IERC20Upgradeable",
							"name": "_usc",
							"type": "address"
						},
						{
							"internalType": "contract IOracle",
							"name": "_oracle",
							"type": "address"
						}
					],
					"name": "initialize",
					"outputs": [],
					"stateMutability": "nonpayable",
					"type": "function"
				},
				{
					"inputs": [
						{
							"internalType": "bool",
							"name": "_marketState",
							"type": "bool"
						},
						{
							"internalType": "uint256[]",
							"name": "_id",
							"type": "uint256[]"
						},
						{
							"internalType": "uint256[]",
							"name": "_timestamp",
							"type": "uint256[]"
						},
						{
							"internalType": "string[]",
							"name": "_symbols",
							"type": "string[]"
						},
						{
							"internalType": "uint256[]",
							"name": "_price18",
							"type": "uint256[]"
						},
						{
							"internalType": "bytes[]",
							"name": "_signature",
							"type": "bytes[]"
						}
					],
					"name": "liquidation",
					"outputs": [
						{
							"internalType": "bool",
							"name": "",
							"type": "bool"
						}
					],
					"stateMutability": "nonpayable",
					"type": "function"
				},
				{
					"inputs": [],
					"name": "minVal",
					"outputs": [
						{
							"internalType": "uint256",
							"name": "",
							"type": "uint256"
						}
					],
					"stateMutability": "view",
					"type": "function"
				},
				{
					"inputs": [
						{
							"internalType": "address",
							"name": "",
							"type": "address"
						},
						{
							"internalType": "uint256",
							"name": "",
							"type": "uint256"
						}
					],
					"name": "myCloseOrderIdList",
					"outputs": [
						{
							"internalType": "uint256",
							"name": "",
							"type": "uint256"
						}
					],
					"stateMutability": "view",
					"type": "function"
				},
				{
					"inputs": [
						{
							"internalType": "address",
							"name": "_user",
							"type": "address"
						}
					],
					"name": "myCloseOrderIdListLength",
					"outputs": [
						{
							"internalType": "uint256",
							"name": "",
							"type": "uint256"
						}
					],
					"stateMutability": "view",
					"type": "function"
				},
				{
					"inputs": [
						{
							"internalType": "address",
							"name": "",
							"type": "address"
						},
						{
							"internalType": "uint256",
							"name": "",
							"type": "uint256"
						}
					],
					"name": "myCloseOrderIdList_index",
					"outputs": [
						{
							"internalType": "uint256",
							"name": "",
							"type": "uint256"
						}
					],
					"stateMutability": "view",
					"type": "function"
				},
				{
					"inputs": [
						{
							"internalType": "address",
							"name": "",
							"type": "address"
						},
						{
							"internalType": "uint256",
							"name": "",
							"type": "uint256"
						}
					],
					"name": "myOpenOrderIdList",
					"outputs": [
						{
							"internalType": "uint256",
							"name": "",
							"type": "uint256"
						}
					],
					"stateMutability": "view",
					"type": "function"
				},
				{
					"inputs": [
						{
							"internalType": "address",
							"name": "_user",
							"type": "address"
						}
					],
					"name": "myOpenOrderIdListLength",
					"outputs": [
						{
							"internalType": "uint256",
							"name": "",
							"type": "uint256"
						}
					],
					"stateMutability": "view",
					"type": "function"
				},
				{
					"inputs": [
						{
							"internalType": "address",
							"name": "",
							"type": "address"
						},
						{
							"internalType": "uint256",
							"name": "",
							"type": "uint256"
						}
					],
					"name": "myOpenOrderIdList_index",
					"outputs": [
						{
							"internalType": "uint256",
							"name": "",
							"type": "uint256"
						}
					],
					"stateMutability": "view",
					"type": "function"
				},
				{
					"inputs": [
						{
							"internalType": "uint256",
							"name": "",
							"type": "uint256"
						}
					],
					"name": "openOrderIdList",
					"outputs": [
						{
							"internalType": "uint256",
							"name": "",
							"type": "uint256"
						}
					],
					"stateMutability": "view",
					"type": "function"
				},
				{
					"inputs": [
						{
							"internalType": "uint256",
							"name": "",
							"type": "uint256"
						}
					],
					"name": "openOrderIdList_index",
					"outputs": [
						{
							"internalType": "uint256",
							"name": "",
							"type": "uint256"
						}
					],
					"stateMutability": "view",
					"type": "function"
				},
				{
					"inputs": [
						{
							"internalType": "bool",
							"name": "_marketState",
							"type": "bool"
						},
						{
							"internalType": "uint256",
							"name": "_margin",
							"type": "uint256"
						},
						{
							"internalType": "uint256",
							"name": "_timestamp",
							"type": "uint256"
						},
						{
							"internalType": "uint256",
							"name": "_direction",
							"type": "uint256"
						},
						{
							"internalType": "uint256",
							"name": "_type",
							"type": "uint256"
						},
						{
							"internalType": "string",
							"name": "_symbols",
							"type": "string"
						},
						{
							"internalType": "uint256",
							"name": "_price18",
							"type": "uint256"
						},
						{
							"internalType": "uint256",
							"name": "_amt",
							"type": "uint256"
						},
						{
							"internalType": "bytes",
							"name": "_signature",
							"type": "bytes"
						}
					],
					"name": "openPosition",
					"outputs": [
						{
							"internalType": "bool",
							"name": "",
							"type": "bool"
						}
					],
					"stateMutability": "nonpayable",
					"type": "function"
				},
				{
					"inputs": [],
					"name": "oracle",
					"outputs": [
						{
							"internalType": "contract IOracle",
							"name": "",
							"type": "address"
						}
					],
					"stateMutability": "view",
					"type": "function"
				},
				{
					"inputs": [
						{
							"internalType": "uint256",
							"name": "_id",
							"type": "uint256"
						}
					],
					"name": "orderInfo",
					"outputs": [
						{
							"components": [
								{
									"internalType": "address",
									"name": "user",
									"type": "address"
								},
								{
									"internalType": "uint256",
									"name": "_type",
									"type": "uint256"
								},
								{
									"internalType": "string",
									"name": "symbols",
									"type": "string"
								},
								{
									"internalType": "uint256",
									"name": "state",
									"type": "uint256"
								},
								{
									"internalType": "uint256",
									"name": "direction",
									"type": "uint256"
								},
								{
									"internalType": "uint256",
									"name": "openPrice18",
									"type": "uint256"
								},
								{
									"internalType": "uint256",
									"name": "openTime",
									"type": "uint256"
								},
								{
									"internalType": "uint256",
									"name": "closePrice18",
									"type": "uint256"
								},
								{
									"internalType": "uint256",
									"name": "closeTime",
									"type": "uint256"
								},
								{
									"internalType": "uint256",
									"name": "amt",
									"type": "uint256"
								},
								{
									"internalType": "uint256",
									"name": "margin",
									"type": "uint256"
								}
							],
							"internalType": "struct mirrorseaMain.OrderInfo",
							"name": "",
							"type": "tuple"
						}
					],
					"stateMutability": "view",
					"type": "function"
				},
				{
					"inputs": [],
					"name": "owner",
					"outputs": [
						{
							"internalType": "address",
							"name": "",
							"type": "address"
						}
					],
					"stateMutability": "view",
					"type": "function"
				},
				{
					"inputs": [
						{
							"internalType": "address",
							"name": "_user",
							"type": "address"
						},
						{
							"internalType": "uint256",
							"name": "_type",
							"type": "uint256"
						},
						{
							"internalType": "uint256",
							"name": "_row",
							"type": "uint256"
						},
						{
							"internalType": "uint256",
							"name": "_page",
							"type": "uint256"
						}
					],
					"name": "pagination",
					"outputs": [
						{
							"internalType": "uint256[]",
							"name": "",
							"type": "uint256[]"
						}
					],
					"stateMutability": "view",
					"type": "function"
				},
				{
					"inputs": [],
					"name": "renounceOwnership",
					"outputs": [],
					"stateMutability": "nonpayable",
					"type": "function"
				},
				{
					"inputs": [
						{
							"internalType": "address",
							"name": "_address",
							"type": "address"
						},
						{
							"internalType": "bool",
							"name": "_type",
							"type": "bool"
						}
					],
					"name": "setExecutor",
					"outputs": [
						{
							"internalType": "bool",
							"name": "",
							"type": "bool"
						}
					],
					"stateMutability": "nonpayable",
					"type": "function"
				},
				{
					"inputs": [
						{
							"internalType": "uint256",
							"name": "_val",
							"type": "uint256"
						}
					],
					"name": "setFeePercent",
					"outputs": [
						{
							"internalType": "bool",
							"name": "",
							"type": "bool"
						}
					],
					"stateMutability": "nonpayable",
					"type": "function"
				},
				{
					"inputs": [
						{
							"internalType": "uint256",
							"name": "id",
							"type": "uint256"
						},
						{
							"internalType": "address",
							"name": "user",
							"type": "address"
						},
						{
							"internalType": "uint256",
							"name": "_type",
							"type": "uint256"
						},
						{
							"internalType": "string",
							"name": "symbols",
							"type": "string"
						},
						{
							"internalType": "uint256",
							"name": "state",
							"type": "uint256"
						},
						{
							"internalType": "uint256",
							"name": "direction",
							"type": "uint256"
						},
						{
							"internalType": "uint256",
							"name": "openPrice18",
							"type": "uint256"
						},
						{
							"internalType": "uint256",
							"name": "openTime",
							"type": "uint256"
						},
						{
							"internalType": "uint256",
							"name": "closePrice18",
							"type": "uint256"
						},
						{
							"internalType": "uint256",
							"name": "closeTime",
							"type": "uint256"
						},
						{
							"internalType": "uint256",
							"name": "amt",
							"type": "uint256"
						},
						{
							"internalType": "uint256",
							"name": "margin",
							"type": "uint256"
						}
					],
					"name": "setOrderInfo",
					"outputs": [
						{
							"internalType": "bool",
							"name": "",
							"type": "bool"
						}
					],
					"stateMutability": "nonpayable",
					"type": "function"
				},
				{
					"inputs": [
						{
							"internalType": "address",
							"name": "_address",
							"type": "address"
						}
					],
					"name": "setSigner",
					"outputs": [
						{
							"internalType": "bool",
							"name": "",
							"type": "bool"
						}
					],
					"stateMutability": "nonpayable",
					"type": "function"
				},
				{
					"inputs": [],
					"name": "signer",
					"outputs": [
						{
							"internalType": "address",
							"name": "",
							"type": "address"
						}
					],
					"stateMutability": "view",
					"type": "function"
				},
				{
					"inputs": [
						{
							"internalType": "address",
							"name": "newOwner",
							"type": "address"
						}
					],
					"name": "transferOwnership",
					"outputs": [],
					"stateMutability": "nonpayable",
					"type": "function"
				},
				{
					"inputs": [],
					"name": "usc",
					"outputs": [
						{
							"internalType": "contract IERC20Upgradeable",
							"name": "",
							"type": "address"
						}
					],
					"stateMutability": "view",
					"type": "function"
				}
			],
			"devdoc": {
				"kind": "dev",
				"methods": {
					"owner()": {
						"details": "Returns the address of the current owner."
					},
					"renounceOwnership()": {
						"details": "Leaves the contract without owner. It will not be possible to call `onlyOwner` functions anymore. Can only be called by the current owner. NOTE: Renouncing ownership will leave the contract without an owner, thereby removing any functionality that is only available to the owner."
					},
					"transferOwnership(address)": {
						"details": "Transfers ownership of the contract to a new account (`newOwner`). Can only be called by the current owner."
					}
				},
				"version": 1
			},
			"evm": {
				"assembly": "    /* \"contracts/mirrorseaMain.sol\":910:16864  contract mirrorseaMain is Initializable, OwnableUpgradeable {... */\n  mstore(0x40, 0x80)\n  callvalue\n  dup1\n  iszero\n  tag_1\n  jumpi\n  0x00\n  dup1\n  revert\ntag_1:\n  pop\n  dataSize(sub_0)\n  dup1\n  dataOffset(sub_0)\n  0x00\n  codecopy\n  0x00\n  return\nstop\n\nsub_0: assembly {\n        /* \"contracts/mirrorseaMain.sol\":910:16864  contract mirrorseaMain is Initializable, OwnableUpgradeable {... */\n      mstore(0x40, 0x80)\n      callvalue\n      dup1\n      iszero\n      tag_1\n      jumpi\n      0x00\n      dup1\n      revert\n    tag_1:\n      pop\n      jumpi(tag_2, lt(calldatasize, 0x04))\n      shr(0xe0, calldataload(0x00))\n      dup1\n      0x7fd6f15c\n      gt\n      tag_35\n      jumpi\n      dup1\n      0xe4e95520\n      gt\n      tag_36\n      jumpi\n      dup1\n      0xf2fde38b\n      gt\n      tag_37\n      jumpi\n      dup1\n      0xf2fde38b\n      eq\n      tag_31\n      jumpi\n      dup1\n      0xf7ab69fd\n      eq\n      tag_32\n      jumpi\n      dup1\n      0xf8c8765e\n      eq\n      tag_33\n      jumpi\n      dup1\n      0xfc234d06\n      eq\n      tag_34\n      jumpi\n      jump(tag_2)\n    tag_37:\n      dup1\n      0xe4e95520\n      eq\n      tag_27\n      jumpi\n      dup1\n      0xec4c4f34\n      eq\n      tag_28\n      jumpi\n      dup1\n      0xf0c765e4\n      eq\n      tag_29\n      jumpi\n      dup1\n      0xf14053ad\n      eq\n      tag_30\n      jumpi\n      jump(tag_2)\n    tag_36:\n      dup1\n      0xaaf5eb68\n      gt\n      tag_38\n      jumpi\n      dup1\n      0xaaf5eb68\n      eq\n      tag_23\n      jumpi\n      dup1\n      0xaecf77b1\n      eq\n      tag_24\n      jumpi\n      dup1\n      0xc2ec527d\n      eq\n      tag_25\n      jumpi\n      dup1\n      0xdb4a5aa9\n      eq\n      tag_26\n      jumpi\n      jump(tag_2)\n    tag_38:\n      dup1\n      0x7fd6f15c\n      eq\n      tag_19\n      jumpi\n      dup1\n      0x8da5cb5b\n      eq\n      tag_20\n      jumpi\n      dup1\n      0xa0ad12e2\n      eq\n      tag_21\n      jumpi\n      dup1\n      0xa8ecb028\n      eq\n      tag_22\n      jumpi\n      jump(tag_2)\n    tag_35:\n      dup1\n      0x4b989ce3\n      gt\n      tag_39\n      jumpi\n      dup1\n      0x715018a6\n      gt\n      tag_40\n      jumpi\n      dup1\n      0x715018a6\n      eq\n      tag_15\n      jumpi\n      dup1\n      0x7be3a1a1\n      eq\n      tag_16\n      jumpi\n      dup1\n      0x7ce3489b\n      eq\n      tag_17\n      jumpi\n      dup1\n      0x7dc0d1d0\n      eq\n      tag_18\n      jumpi\n      jump(tag_2)\n    tag_40:\n      dup1\n      0x4b989ce3\n      eq\n      tag_11\n      jumpi\n      dup1\n      0x6ab34a4a\n      eq\n      tag_12\n      jumpi\n      dup1\n      0x6c19e783\n      eq\n      tag_13\n      jumpi\n      dup1\n      0x6e812437\n      eq\n      tag_14\n      jumpi\n      jump(tag_2)\n    tag_39:\n      dup1\n      0x238ac933\n      gt\n      tag_41\n      jumpi\n      dup1\n      0x238ac933\n      eq\n      tag_7\n      jumpi\n      dup1\n      0x3011d3d5\n      eq\n      tag_8\n      jumpi\n      dup1\n      0x43b1f3cb\n      eq\n      tag_9\n      jumpi\n      dup1\n      0x48c7e528\n      eq\n      tag_10\n      jumpi\n      jump(tag_2)\n    tag_41:\n      dup1\n      0x080270a8\n      eq\n      tag_3\n      jumpi\n      dup1\n      0x0f58d242\n      eq\n      tag_4\n      jumpi\n      dup1\n      0x1e1bff3f\n      eq\n      tag_5\n      jumpi\n      dup1\n      0x1e64610c\n      eq\n      tag_6\n      jumpi\n    tag_2:\n      0x00\n      dup1\n      revert\n        /* \"contracts/mirrorseaMain.sol\":4502:5775  function pagination(... */\n    tag_3:\n      tag_42\n      tag_43\n      calldatasize\n      0x04\n      tag_44\n      jump\t// in\n    tag_43:\n      tag_45\n      jump\t// in\n    tag_42:\n      mload(0x40)\n      tag_46\n      swap2\n      swap1\n      tag_47\n      jump\t// in\n    tag_46:\n      mload(0x40)\n      dup1\n      swap2\n      sub\n      swap1\n      return\n        /* \"contracts/mirrorseaMain.sol\":1347:1379  uint256[] public openOrderIdList */\n    tag_4:\n      tag_48\n      tag_49\n      calldatasize\n      0x04\n      tag_50\n      jump\t// in\n    tag_49:\n      tag_51\n      jump\t// in\n    tag_48:\n      mload(0x40)\n      tag_46\n      swap2\n      swap1\n      tag_53\n      jump\t// in\n        /* \"contracts/mirrorseaMain.sol\":2999:3176  function setExecutor(address _address, bool _type)... */\n    tag_5:\n      tag_54\n      tag_55\n      calldatasize\n      0x04\n      tag_56\n      jump\t// in\n    tag_55:\n      tag_57\n      jump\t// in\n    tag_54:\n      mload(0x40)\n      tag_46\n      swap2\n      swap1\n      tag_59\n      jump\t// in\n        /* \"contracts/mirrorseaMain.sol\":1196:1227  IhelperLogic public helperLogic */\n    tag_6:\n      tag_60\n      tag_61\n      jump\t// in\n    tag_60:\n      mload(0x40)\n      tag_46\n      swap2\n      swap1\n      tag_67\n      jump\t// in\n        /* \"contracts/mirrorseaMain.sol\":1135:1156  address public signer */\n    tag_7:\n      tag_60\n      tag_65\n      jump\t// in\n        /* \"contracts/mirrorseaMain.sol\":1162:1190  IERC20Upgradeable public usc */\n    tag_8:\n      tag_60\n      tag_69\n      jump\t// in\n        /* \"contracts/mirrorseaMain.sol\":1385:1441  mapping(uint256 => uint256) public openOrderIdList_index */\n    tag_9:\n      tag_48\n      tag_73\n      calldatasize\n      0x04\n      tag_50\n      jump\t// in\n    tag_73:\n      tag_74\n      jump\t// in\n        /* \"contracts/mirrorseaMain.sol\":1089:1129  mapping(address => bool) public executor */\n    tag_10:\n      tag_54\n      tag_77\n      calldatasize\n      0x04\n      tag_78\n      jump\t// in\n    tag_77:\n      tag_79\n      jump\t// in\n        /* \"contracts/mirrorseaMain.sol\":12381:13232  function liquidation(... */\n    tag_11:\n      tag_54\n      tag_82\n      calldatasize\n      0x04\n      tag_83\n      jump\t// in\n    tag_82:\n      tag_84\n      jump\t// in\n        /* \"contracts/mirrorseaMain.sol\":3603:3715  function orderInfo(uint256 _id) external view returns (OrderInfo memory) {... */\n    tag_12:\n      tag_86\n      tag_87\n      calldatasize\n      0x04\n      tag_50\n      jump\t// in\n    tag_87:\n      tag_88\n      jump\t// in\n    tag_86:\n      mload(0x40)\n      tag_46\n      swap2\n      swap1\n      tag_90\n      jump\t// in\n        /* \"contracts/mirrorseaMain.sol\":3471:3597  function setSigner(address _address) external onlyOwner returns (bool) {... */\n    tag_13:\n      tag_54\n      tag_92\n      calldatasize\n      0x04\n      tag_78\n      jump\t// in\n    tag_92:\n      tag_93\n      jump\t// in\n        /* \"contracts/mirrorseaMain.sol\":11397:11989  function closePosition(... */\n    tag_14:\n      tag_54\n      tag_96\n      calldatasize\n      0x04\n      tag_97\n      jump\t// in\n    tag_96:\n      tag_98\n      jump\t// in\n        /* \"@openzeppelin/contracts-upgradeable/access/OwnableUpgradeable.sol\":1934:2035  function renounceOwnership() public virtual onlyOwner {... */\n    tag_15:\n      tag_100\n      tag_101\n      jump\t// in\n    tag_100:\n      stop\n        /* \"contracts/mirrorseaMain.sol\":1508:1594  mapping(address => mapping(uint256 => uint256))... */\n    tag_16:\n      tag_48\n      tag_103\n      calldatasize\n      0x04\n      tag_104\n      jump\t// in\n    tag_103:\n      tag_105\n      jump\t// in\n        /* \"contracts/mirrorseaMain.sol\":3326:3452  function setFeePercent(uint256 _val) external onlyOwner returns (bool) {... */\n    tag_17:\n      tag_54\n      tag_108\n      calldatasize\n      0x04\n      tag_50\n      jump\t// in\n    tag_108:\n      tag_109\n      jump\t// in\n        /* \"contracts/mirrorseaMain.sol\":1233:1254  IOracle public oracle */\n    tag_18:\n      tag_60\n      tag_112\n      jump\t// in\n        /* \"contracts/mirrorseaMain.sol\":1756:1781  uint256 public feePercent */\n    tag_19:\n      tag_48\n      tag_116\n      jump\t// in\n        /* \"@openzeppelin/contracts-upgradeable/access/OwnableUpgradeable.sol\":1302:1387  function owner() public view virtual returns (address) {... */\n    tag_20:\n      tag_60\n      tag_119\n      jump\t// in\n        /* \"contracts/mirrorseaMain.sol\":13238:13791  function forcedLiquidation(... */\n    tag_21:\n      tag_54\n      tag_122\n      calldatasize\n      0x04\n      tag_97\n      jump\t// in\n    tag_122:\n      tag_123\n      jump\t// in\n        /* \"contracts/mirrorseaMain.sol\":15124:16862  function adjustPosition(... */\n    tag_22:\n      tag_54\n      tag_126\n      calldatasize\n      0x04\n      tag_127\n      jump\t// in\n    tag_126:\n      tag_128\n      jump\t// in\n        /* \"contracts/mirrorseaMain.sol\":1787:1811  uint256 public PRECISION */\n    tag_23:\n      tag_48\n      tag_131\n      jump\t// in\n        /* \"contracts/mirrorseaMain.sol\":2830:2993  function myCloseOrderIdListLength(address _user)... */\n    tag_24:\n      tag_48\n      tag_134\n      calldatasize\n      0x04\n      tag_78\n      jump\t// in\n    tag_134:\n      tag_135\n      jump\t// in\n        /* \"contracts/mirrorseaMain.sol\":1448:1502  mapping(address => uint256[]) public myOpenOrderIdList */\n    tag_25:\n      tag_48\n      tag_138\n      calldatasize\n      0x04\n      tag_104\n      jump\t// in\n    tag_138:\n      tag_139\n      jump\t// in\n        /* \"contracts/mirrorseaMain.sol\":5781:7632  function openPosition(... */\n    tag_26:\n      tag_54\n      tag_142\n      calldatasize\n      0x04\n      tag_143\n      jump\t// in\n    tag_142:\n      tag_144\n      jump\t// in\n        /* \"contracts/mirrorseaMain.sol\":2663:2824  function myOpenOrderIdListLength(address _user)... */\n    tag_27:\n      tag_48\n      tag_147\n      calldatasize\n      0x04\n      tag_78\n      jump\t// in\n    tag_147:\n      tag_148\n      jump\t// in\n        /* \"contracts/mirrorseaMain.sol\":1601:1656  mapping(address => uint256[]) public myCloseOrderIdList */\n    tag_28:\n      tag_48\n      tag_151\n      calldatasize\n      0x04\n      tag_104\n      jump\t// in\n    tag_151:\n      tag_152\n      jump\t// in\n        /* \"contracts/mirrorseaMain.sol\":1662:1749  mapping(address => mapping(uint256 => uint256))... */\n    tag_29:\n      tag_48\n      tag_155\n      calldatasize\n      0x04\n      tag_104\n      jump\t// in\n    tag_155:\n      tag_156\n      jump\t// in\n        /* \"contracts/mirrorseaMain.sol\":1818:1839  uint256 public minVal */\n    tag_30:\n      tag_48\n      tag_159\n      jump\t// in\n        /* \"@openzeppelin/contracts-upgradeable/access/OwnableUpgradeable.sol\":2184:2382  function transferOwnership(address newOwner) public virtual onlyOwner {... */\n    tag_31:\n      tag_100\n      tag_162\n      calldatasize\n      0x04\n      tag_78\n      jump\t// in\n    tag_162:\n      tag_163\n      jump\t// in\n        /* \"contracts/mirrorseaMain.sol\":1315:1340  uint256 public OrderIndex */\n    tag_32:\n      tag_48\n      tag_165\n      jump\t// in\n        /* \"contracts/mirrorseaMain.sol\":2277:2657  function initialize(... */\n    tag_33:\n      tag_100\n      tag_168\n      calldatasize\n      0x04\n      tag_169\n      jump\t// in\n    tag_168:\n      tag_170\n      jump\t// in\n        /* \"contracts/mirrorseaMain.sol\":3721:4496  function setOrderInfo(... */\n    tag_34:\n      tag_54\n      tag_172\n      calldatasize\n      0x04\n      tag_173\n      jump\t// in\n    tag_172:\n      tag_174\n      jump\t// in\n        /* \"contracts/mirrorseaMain.sol\":4502:5775  function pagination(... */\n    tag_45:\n        /* \"contracts/mirrorseaMain.sol\":4642:4658  uint256[] memory */\n      0x60\n        /* \"contracts/mirrorseaMain.sol\":4670:4683  uint256 index */\n      0x00\n      dup1\n        /* \"contracts/mirrorseaMain.sol\":4642:4658  uint256[] memory */\n      dup3\n        /* \"contracts/mirrorseaMain.sol\":4750:4760  _type == 0 */\n      dup7\n        /* \"contracts/mirrorseaMain.sol\":4746:4969  if (_type == 0) {... */\n      tag_177\n      jumpi\n        /* \"contracts/mirrorseaMain.sol\":4784:4799  openOrderIdList */\n      0x6c\n        /* \"contracts/mirrorseaMain.sol\":4776:4799  _list = openOrderIdList */\n      dup1\n      sload\n      dup1\n      0x20\n      mul\n      0x20\n      add\n      mload(0x40)\n      swap1\n      dup2\n      add\n      0x40\n      mstore\n      dup1\n      swap3\n      swap2\n      swap1\n      dup2\n      dup2\n      mstore\n      0x20\n      add\n      dup3\n      dup1\n      sload\n      dup1\n      iszero\n      tag_178\n      jumpi\n      0x20\n      mul\n      dup3\n      add\n      swap2\n      swap1\n      0x00\n      mstore\n      keccak256(0x00, 0x20)\n      swap1\n    tag_179:\n      dup2\n      sload\n      dup2\n      mstore\n      0x20\n      add\n      swap1\n      0x01\n      add\n      swap1\n      dup1\n      dup4\n      gt\n      tag_179\n      jumpi\n    tag_178:\n      pop\n      pop\n      pop\n      pop\n      pop\n      swap1\n      pop\n        /* \"contracts/mirrorseaMain.sol\":4746:4969  if (_type == 0) {... */\n      jump(tag_185)\n    tag_177:\n        /* \"contracts/mirrorseaMain.sol\":4820:4825  _type */\n      dup7\n        /* \"contracts/mirrorseaMain.sol\":4829:4830  1 */\n      0x01\n        /* \"contracts/mirrorseaMain.sol\":4820:4830  _type == 1 */\n      eq\n        /* \"contracts/mirrorseaMain.sol\":4816:4969  if (_type == 1) {... */\n      iszero\n      tag_181\n      jumpi\n      sub(shl(0xa0, 0x01), 0x01)\n        /* \"contracts/mirrorseaMain.sol\":4854:4878  myOpenOrderIdList[_user] */\n      dup9\n      and\n      0x00\n      swap1\n      dup2\n      mstore\n        /* \"contracts/mirrorseaMain.sol\":4854:4871  myOpenOrderIdList */\n      0x6e\n        /* \"contracts/mirrorseaMain.sol\":4854:4878  myOpenOrderIdList[_user] */\n      0x20\n      swap1\n      dup2\n      mstore\n      0x40\n      swap2\n      dup3\n      swap1\n      keccak256\n        /* \"contracts/mirrorseaMain.sol\":4846:4878  _list = myOpenOrderIdList[_user] */\n      dup1\n      sload\n      dup4\n      mload\n      dup2\n      dup5\n      mul\n      dup2\n      add\n      dup5\n      add\n      swap1\n      swap5\n      mstore\n      dup1\n      dup5\n      mstore\n        /* \"contracts/mirrorseaMain.sol\":4854:4878  myOpenOrderIdList[_user] */\n      swap1\n      swap2\n        /* \"contracts/mirrorseaMain.sol\":4846:4878  _list = myOpenOrderIdList[_user] */\n      dup4\n      add\n        /* \"contracts/mirrorseaMain.sol\":4854:4878  myOpenOrderIdList[_user] */\n      dup3\n        /* \"contracts/mirrorseaMain.sol\":4846:4878  _list = myOpenOrderIdList[_user] */\n      dup3\n      dup1\n      iszero\n      tag_178\n      jumpi\n      0x20\n      mul\n      dup3\n      add\n      swap2\n      swap1\n      0x00\n      mstore\n      keccak256(0x00, 0x20)\n      swap1\n      dup2\n      sload\n      dup2\n      mstore\n      0x20\n      add\n      swap1\n      0x01\n      add\n      swap1\n      dup1\n      dup4\n      gt\n      tag_179\n      jumpi\n      pop\n      pop\n      pop\n      pop\n      pop\n      swap1\n      pop\n        /* \"contracts/mirrorseaMain.sol\":4816:4969  if (_type == 1) {... */\n      jump(tag_185)\n    tag_181:\n        /* \"contracts/mirrorseaMain.sol\":4899:4904  _type */\n      dup7\n        /* \"contracts/mirrorseaMain.sol\":4908:4909  2 */\n      0x02\n        /* \"contracts/mirrorseaMain.sol\":4899:4909  _type == 2 */\n      eq\n        /* \"contracts/mirrorseaMain.sol\":4895:4969  if (_type == 2) {... */\n      iszero\n      tag_185\n      jumpi\n      sub(shl(0xa0, 0x01), 0x01)\n        /* \"contracts/mirrorseaMain.sol\":4933:4958  myCloseOrderIdList[_user] */\n      dup9\n      and\n      0x00\n      swap1\n      dup2\n      mstore\n        /* \"contracts/mirrorseaMain.sol\":4933:4951  myCloseOrderIdList */\n      0x70\n        /* \"contracts/mirrorseaMain.sol\":4933:4958  myCloseOrderIdList[_user] */\n      0x20\n      swap1\n      dup2\n      mstore\n      0x40\n      swap2\n      dup3\n      swap1\n      keccak256\n        /* \"contracts/mirrorseaMain.sol\":4925:4958  _list = myCloseOrderIdList[_user] */\n      dup1\n      sload\n      dup4\n      mload\n      dup2\n      dup5\n      mul\n      dup2\n      add\n      dup5\n      add\n      swap1\n      swap5\n      mstore\n      dup1\n      dup5\n      mstore\n        /* \"contracts/mirrorseaMain.sol\":4933:4958  myCloseOrderIdList[_user] */\n      swap1\n      swap2\n        /* \"contracts/mirrorseaMain.sol\":4925:4958  _list = myCloseOrderIdList[_user] */\n      dup4\n      add\n        /* \"contracts/mirrorseaMain.sol\":4933:4958  myCloseOrderIdList[_user] */\n      dup3\n        /* \"contracts/mirrorseaMain.sol\":4925:4958  _list = myCloseOrderIdList[_user] */\n      dup3\n      dup1\n      iszero\n      tag_186\n      jumpi\n      0x20\n      mul\n      dup3\n      add\n      swap2\n      swap1\n      0x00\n      mstore\n      keccak256(0x00, 0x20)\n      swap1\n    tag_187:\n      dup2\n      sload\n      dup2\n      mstore\n      0x20\n      add\n      swap1\n      0x01\n      add\n      swap1\n      dup1\n      dup4\n      gt\n      tag_187\n      jumpi\n    tag_186:\n      pop\n      pop\n      pop\n      pop\n      pop\n      swap1\n      pop\n        /* \"contracts/mirrorseaMain.sol\":4895:4969  if (_type == 2) {... */\n    tag_185:\n        /* \"contracts/mirrorseaMain.sol\":4978:4992  uint256 remAmt */\n      0x00\n        /* \"contracts/mirrorseaMain.sol\":4995:5038  _list.length.sub(_row.mul(_page).sub(_row)) */\n      tag_188\n        /* \"contracts/mirrorseaMain.sol\":5012:5037  _row.mul(_page).sub(_row) */\n      tag_189\n        /* \"contracts/mirrorseaMain.sol\":5032:5036  _row */\n      dup9\n        /* \"contracts/mirrorseaMain.sol\":5012:5027  _row.mul(_page) */\n      tag_190\n        /* \"contracts/mirrorseaMain.sol\":5032:5036  _row */\n      dup2\n        /* \"contracts/mirrorseaMain.sol\":5021:5026  _page */\n      dup11\n        /* \"contracts/mirrorseaMain.sol\":5012:5020  _row.mul */\n      tag_191\n        /* \"contracts/mirrorseaMain.sol\":5012:5027  _row.mul(_page) */\n      jump\t// in\n    tag_190:\n        /* \"contracts/mirrorseaMain.sol\":5012:5031  _row.mul(_page).sub */\n      swap1\n      tag_192\n        /* \"contracts/mirrorseaMain.sol\":5012:5037  _row.mul(_page).sub(_row) */\n      jump\t// in\n    tag_189:\n        /* \"contracts/mirrorseaMain.sol\":4995:5007  _list.length */\n      dup4\n      mload\n      swap1\n        /* \"contracts/mirrorseaMain.sol\":4995:5011  _list.length.sub */\n      tag_192\n        /* \"contracts/mirrorseaMain.sol\":4995:5038  _list.length.sub(_row.mul(_page).sub(_row)) */\n      jump\t// in\n    tag_188:\n        /* \"contracts/mirrorseaMain.sol\":4978:5038  uint256 remAmt = _list.length.sub(_row.mul(_page).sub(_row)) */\n      swap1\n      pop\n        /* \"contracts/mirrorseaMain.sol\":5062:5066  _row */\n      dup7\n        /* \"contracts/mirrorseaMain.sol\":5052:5058  remAmt */\n      dup2\n        /* \"contracts/mirrorseaMain.sol\":5052:5066  remAmt >= _row */\n      lt\n        /* \"contracts/mirrorseaMain.sol\":5048:5146  if (remAmt >= _row) {... */\n      tag_193\n      jumpi\n        /* \"contracts/mirrorseaMain.sol\":5088:5092  _row */\n      dup7\n        /* \"contracts/mirrorseaMain.sol\":5082:5092  arr = _row */\n      swap3\n      pop\n        /* \"contracts/mirrorseaMain.sol\":5048:5146  if (remAmt >= _row) {... */\n      jump(tag_194)\n    tag_193:\n        /* \"contracts/mirrorseaMain.sol\":5129:5135  remAmt */\n      dup1\n        /* \"contracts/mirrorseaMain.sol\":5123:5135  arr = remAmt */\n      swap3\n      pop\n        /* \"contracts/mirrorseaMain.sol\":5048:5146  if (remAmt >= _row) {... */\n    tag_194:\n        /* \"contracts/mirrorseaMain.sol\":5192:5204  _list.length */\n      dup2\n      mload\n        /* \"contracts/mirrorseaMain.sol\":5164:5189  _row.mul(_page).sub(_row) */\n      tag_195\n        /* \"contracts/mirrorseaMain.sol\":5184:5188  _row */\n      dup9\n        /* \"contracts/mirrorseaMain.sol\":5164:5179  _row.mul(_page) */\n      tag_190\n        /* \"contracts/mirrorseaMain.sol\":5184:5188  _row */\n      dup2\n        /* \"contracts/mirrorseaMain.sol\":5173:5178  _page */\n      dup11\n        /* \"contracts/mirrorseaMain.sol\":5164:5172  _row.mul */\n      tag_191\n        /* \"contracts/mirrorseaMain.sol\":5164:5179  _row.mul(_page) */\n      jump\t// in\n        /* \"contracts/mirrorseaMain.sol\":5164:5189  _row.mul(_page).sub(_row) */\n    tag_195:\n        /* \"contracts/mirrorseaMain.sol\":5164:5204  _row.mul(_page).sub(_row) < _list.length */\n      lt\n        /* \"contracts/mirrorseaMain.sol\":5156:5219  require(_row.mul(_page).sub(_row) < _list.length, \"length err\") */\n      tag_197\n      jumpi\n      mload(0x40)\n      shl(0xe5, 0x461bcd)\n      dup2\n      mstore\n      0x04\n      add\n      tag_198\n      swap1\n      tag_199\n      jump\t// in\n    tag_198:\n      mload(0x40)\n      dup1\n      swap2\n      sub\n      swap1\n      revert\n    tag_197:\n        /* \"contracts/mirrorseaMain.sol\":5237:5245  arr != 0 */\n      dup3\n        /* \"contracts/mirrorseaMain.sol\":5229:5261  require(arr != 0, \"arr no good\") */\n      tag_200\n      jumpi\n      mload(0x40)\n      shl(0xe5, 0x461bcd)\n      dup2\n      mstore\n      0x04\n      add\n      tag_198\n      swap1\n      tag_202\n      jump\t// in\n    tag_200:\n        /* \"contracts/mirrorseaMain.sol\":5272:5296  uint256[] memory newList */\n      0x00\n        /* \"contracts/mirrorseaMain.sol\":5313:5316  arr */\n      dup4\n        /* \"contracts/mirrorseaMain.sol\":5299:5317  new uint256[](arr) */\n      0xffffffffffffffff\n      dup2\n      gt\n      iszero\n      tag_203\n      jumpi\n      mstore(0x00, shl(0xe0, 0x4e487b71))\n      mstore(0x04, 0x41)\n      revert(0x00, 0x24)\n    tag_203:\n      mload(0x40)\n      swap1\n      dup1\n      dup3\n      mstore\n      dup1\n      0x20\n      mul\n      0x20\n      add\n      dup3\n      add\n      0x40\n      mstore\n      dup1\n      iszero\n      tag_204\n      jumpi\n      dup2\n      0x20\n      add\n      0x20\n      dup3\n      mul\n      dup1\n      calldatasize\n      dup4\n      calldatacopy\n      add\n      swap1\n      pop\n    tag_204:\n      pop\n        /* \"contracts/mirrorseaMain.sol\":5272:5317  uint256[] memory newList = new uint256[](arr) */\n      swap1\n      pop\n        /* \"contracts/mirrorseaMain.sol\":5333:5342  uint256 i */\n      0x00\n        /* \"contracts/mirrorseaMain.sol\":5345:5358  remAmt.sub(1) */\n      tag_208\n        /* \"contracts/mirrorseaMain.sol\":5345:5351  remAmt */\n      dup4\n        /* \"contracts/mirrorseaMain.sol\":5356:5357  1 */\n      0x01\n        /* \"contracts/mirrorseaMain.sol\":5345:5355  remAmt.sub */\n      tag_192\n        /* \"contracts/mirrorseaMain.sol\":5345:5358  remAmt.sub(1) */\n      jump\t// in\n    tag_208:\n        /* \"contracts/mirrorseaMain.sol\":5333:5358  uint256 i = remAmt.sub(1) */\n      swap1\n      pop\n        /* \"contracts/mirrorseaMain.sol\":5328:5512  for (uint256 i = remAmt.sub(1); index < arr; i--) {... */\n    tag_205:\n        /* \"contracts/mirrorseaMain.sol\":5368:5371  arr */\n      dup5\n        /* \"contracts/mirrorseaMain.sol\":5360:5365  index */\n      dup7\n        /* \"contracts/mirrorseaMain.sol\":5360:5371  index < arr */\n      lt\n        /* \"contracts/mirrorseaMain.sol\":5328:5512  for (uint256 i = remAmt.sub(1); index < arr; i--) {... */\n      iszero\n      tag_206\n      jumpi\n        /* \"contracts/mirrorseaMain.sol\":5409:5414  _list */\n      dup4\n        /* \"contracts/mirrorseaMain.sol\":5415:5416  i */\n      dup2\n        /* \"contracts/mirrorseaMain.sol\":5409:5417  _list[i] */\n      dup2\n      mload\n      dup2\n      lt\n      tag_209\n      jumpi\n      mstore(0x00, shl(0xe0, 0x4e487b71))\n      mstore(0x04, 0x32)\n      revert(0x00, 0x24)\n    tag_209:\n      0x20\n      mul\n      0x20\n      add\n      add\n      mload\n        /* \"contracts/mirrorseaMain.sol\":5392:5399  newList */\n      dup3\n        /* \"contracts/mirrorseaMain.sol\":5400:5405  index */\n      dup8\n        /* \"contracts/mirrorseaMain.sol\":5392:5406  newList[index] */\n      dup2\n      mload\n      dup2\n      lt\n      tag_210\n      jumpi\n      mstore(0x00, shl(0xe0, 0x4e487b71))\n      mstore(0x04, 0x32)\n      revert(0x00, 0x24)\n    tag_210:\n      0x20\n      swap1\n      dup2\n      mul\n      swap2\n      swap1\n      swap2\n      add\n      add\n        /* \"contracts/mirrorseaMain.sol\":5392:5417  newList[index] = _list[i] */\n      mstore\n        /* \"contracts/mirrorseaMain.sol\":5435:5441  i == 0 */\n      dup1\n        /* \"contracts/mirrorseaMain.sol\":5431:5481  if (i == 0) {... */\n      tag_211\n      jumpi\n        /* \"contracts/mirrorseaMain.sol\":5461:5466  break */\n      jump(tag_206)\n        /* \"contracts/mirrorseaMain.sol\":5431:5481  if (i == 0) {... */\n    tag_211:\n        /* \"contracts/mirrorseaMain.sol\":5494:5501  index++ */\n      dup6\n      tag_212\n      dup2\n      tag_213\n      jump\t// in\n    tag_212:\n      swap7\n      pop\n      pop\n        /* \"contracts/mirrorseaMain.sol\":5373:5376  i-- */\n      dup1\n      dup1\n      tag_214\n      swap1\n      tag_215\n      jump\t// in\n    tag_214:\n      swap2\n      pop\n      pop\n        /* \"contracts/mirrorseaMain.sol\":5328:5512  for (uint256 i = remAmt.sub(1); index < arr; i--) {... */\n      jump(tag_205)\n    tag_206:\n      pop\n        /* \"contracts/mirrorseaMain.sol\":5761:5768  newList */\n      swap10\n        /* \"contracts/mirrorseaMain.sol\":4502:5775  function pagination(... */\n      swap9\n      pop\n      pop\n      pop\n      pop\n      pop\n      pop\n      pop\n      pop\n      pop\n      jump\t// out\n        /* \"contracts/mirrorseaMain.sol\":1347:1379  uint256[] public openOrderIdList */\n    tag_51:\n      0x6c\n      dup2\n      dup2\n      sload\n      dup2\n      lt\n      tag_216\n      jumpi\n      0x00\n      dup1\n      revert\n    tag_216:\n      0x00\n      swap2\n      dup3\n      mstore\n      0x20\n      swap1\n      swap2\n      keccak256\n      add\n      sload\n      swap1\n      pop\n      dup2\n      jump\t// out\n        /* \"contracts/mirrorseaMain.sol\":2999:3176  function setExecutor(address _address, bool _type)... */\n    tag_57:\n        /* \"contracts/mirrorseaMain.sol\":3102:3106  bool */\n      0x00\n        /* \"@openzeppelin/contracts-upgradeable/access/OwnableUpgradeable.sol\":1525:1537  _msgSender() */\n      tag_219\n        /* \"@openzeppelin/contracts-upgradeable/access/OwnableUpgradeable.sol\":1525:1535  _msgSender */\n      tag_220\n        /* \"@openzeppelin/contracts-upgradeable/access/OwnableUpgradeable.sol\":1525:1537  _msgSender() */\n      jump\t// in\n    tag_219:\n      sub(shl(0xa0, 0x01), 0x01)\n        /* \"@openzeppelin/contracts-upgradeable/access/OwnableUpgradeable.sol\":1514:1537  owner() == _msgSender() */\n      and\n        /* \"@openzeppelin/contracts-upgradeable/access/OwnableUpgradeable.sol\":1514:1521  owner() */\n      tag_221\n        /* \"@openzeppelin/contracts-upgradeable/access/OwnableUpgradeable.sol\":1514:1519  owner */\n      tag_119\n        /* \"@openzeppelin/contracts-upgradeable/access/OwnableUpgradeable.sol\":1514:1521  owner() */\n      jump\t// in\n    tag_221:\n      sub(shl(0xa0, 0x01), 0x01)\n        /* \"@openzeppelin/contracts-upgradeable/access/OwnableUpgradeable.sol\":1514:1537  owner() == _msgSender() */\n      and\n      eq\n        /* \"@openzeppelin/contracts-upgradeable/access/OwnableUpgradeable.sol\":1506:1574  require(owner() == _msgSender(), \"Ownable: caller is not the owner\") */\n      tag_222\n      jumpi\n      mload(0x40)\n      shl(0xe5, 0x461bcd)\n      dup2\n      mstore\n      0x04\n      add\n      tag_198\n      swap1\n      tag_224\n      jump\t// in\n    tag_222:\n      pop\n      sub(shl(0xa0, 0x01), 0x01)\n        /* \"contracts/mirrorseaMain.sol\":3122:3140  executor[_address] */\n      dup3\n      and\n      0x00\n      swap1\n      dup2\n      mstore\n        /* \"contracts/mirrorseaMain.sol\":3122:3130  executor */\n      0x65\n        /* \"contracts/mirrorseaMain.sol\":3122:3140  executor[_address] */\n      0x20\n      mstore\n      0x40\n      swap1\n      keccak256\n        /* \"contracts/mirrorseaMain.sol\":3122:3148  executor[_address] = _type */\n      dup1\n      sload\n      dup3\n      iszero\n      iszero\n      not(0xff)\n      swap1\n      swap2\n      and\n      or\n      swap1\n      sstore\n      0x01\n        /* \"contracts/mirrorseaMain.sol\":2999:3176  function setExecutor(address _address, bool _type)... */\n      swap3\n      swap2\n      pop\n      pop\n      jump\t// out\n        /* \"contracts/mirrorseaMain.sol\":1196:1227  IhelperLogic public helperLogic */\n    tag_61:\n      and(sub(shl(0xa0, 0x01), 0x01), sload(0x68))\n      dup2\n      jump\t// out\n        /* \"contracts/mirrorseaMain.sol\":1135:1156  address public signer */\n    tag_65:\n      and(sub(shl(0xa0, 0x01), 0x01), sload(0x66))\n      dup2\n      jump\t// out\n        /* \"contracts/mirrorseaMain.sol\":1162:1190  IERC20Upgradeable public usc */\n    tag_69:\n      and(sub(shl(0xa0, 0x01), 0x01), sload(0x67))\n      dup2\n      jump\t// out\n        /* \"contracts/mirrorseaMain.sol\":1385:1441  mapping(uint256 => uint256) public openOrderIdList_index */\n    tag_74:\n      mstore(0x20, 0x6d)\n      0x00\n      swap1\n      dup2\n      mstore\n      0x40\n      swap1\n      keccak256\n      sload\n      dup2\n      jump\t// out\n        /* \"contracts/mirrorseaMain.sol\":1089:1129  mapping(address => bool) public executor */\n    tag_79:\n      mstore(0x20, 0x65)\n      0x00\n      swap1\n      dup2\n      mstore\n      0x40\n      swap1\n      keccak256\n      sload\n      0xff\n      and\n      dup2\n      jump\t// out\n        /* \"contracts/mirrorseaMain.sol\":12381:13232  function liquidation(... */\n    tag_84:\n        /* \"contracts/mirrorseaMain.sol\":3233:3243  msg.sender */\n      caller\n        /* \"contracts/mirrorseaMain.sol\":12637:12641  bool */\n      0x00\n        /* \"contracts/mirrorseaMain.sol\":3224:3244  executor[msg.sender] */\n      swap1\n      dup2\n      mstore\n        /* \"contracts/mirrorseaMain.sol\":3224:3232  executor */\n      0x65\n        /* \"contracts/mirrorseaMain.sol\":3224:3244  executor[msg.sender] */\n      0x20\n      mstore\n      0x40\n      dup2\n      keccak256\n      sload\n      0xff\n      and\n        /* \"contracts/mirrorseaMain.sol\":3216:3285  require(executor[msg.sender], \"executor: caller is not the executor\") */\n      tag_227\n      jumpi\n      mload(0x40)\n      shl(0xe5, 0x461bcd)\n      dup2\n      mstore\n      0x04\n      add\n      tag_198\n      swap1\n      tag_229\n      jump\t// in\n    tag_227:\n        /* \"contracts/mirrorseaMain.sol\":12658:12667  uint256 i */\n      0x00\n        /* \"contracts/mirrorseaMain.sol\":12653:13204  for (uint256 i = 0; i < _id.length; i++) {... */\n    tag_231:\n        /* \"contracts/mirrorseaMain.sol\":12677:12680  _id */\n      dup7\n        /* \"contracts/mirrorseaMain.sol\":12677:12687  _id.length */\n      mload\n        /* \"contracts/mirrorseaMain.sol\":12673:12674  i */\n      dup2\n        /* \"contracts/mirrorseaMain.sol\":12673:12687  i < _id.length */\n      lt\n        /* \"contracts/mirrorseaMain.sol\":12653:13204  for (uint256 i = 0; i < _id.length; i++) {... */\n      iszero\n      tag_232\n      jumpi\n        /* \"contracts/mirrorseaMain.sol\":12708:12731  OrderInfo storage order */\n      0x00\n        /* \"contracts/mirrorseaMain.sol\":12734:12744  _orderInfo */\n      0x6a\n        /* \"contracts/mirrorseaMain.sol\":12734:12752  _orderInfo[_id[i]] */\n      0x00\n        /* \"contracts/mirrorseaMain.sol\":12745:12748  _id */\n      dup10\n        /* \"contracts/mirrorseaMain.sol\":12749:12750  i */\n      dup5\n        /* \"contracts/mirrorseaMain.sol\":12745:12751  _id[i] */\n      dup2\n      mload\n      dup2\n      lt\n      tag_234\n      jumpi\n      mstore(0x00, shl(0xe0, 0x4e487b71))\n      mstore(0x04, 0x32)\n      revert(0x00, 0x24)\n    tag_234:\n      0x20\n      mul\n      0x20\n      add\n      add\n      mload\n        /* \"contracts/mirrorseaMain.sol\":12734:12752  _orderInfo[_id[i]] */\n      dup2\n      mstore\n      0x20\n      add\n      swap1\n      dup2\n      mstore\n      0x20\n      add\n      0x00\n      keccak256\n        /* \"contracts/mirrorseaMain.sol\":12708:12752  OrderInfo storage order = _orderInfo[_id[i]] */\n      swap1\n      pop\n        /* \"contracts/mirrorseaMain.sol\":12771:12816  _isSolvent(_id[i], _price18[i], order.margin) */\n      tag_235\n        /* \"contracts/mirrorseaMain.sol\":12782:12785  _id */\n      dup9\n        /* \"contracts/mirrorseaMain.sol\":12786:12787  i */\n      dup4\n        /* \"contracts/mirrorseaMain.sol\":12782:12788  _id[i] */\n      dup2\n      mload\n      dup2\n      lt\n      tag_236\n      jumpi\n      mstore(0x00, shl(0xe0, 0x4e487b71))\n      mstore(0x04, 0x32)\n      revert(0x00, 0x24)\n    tag_236:\n      0x20\n      mul\n      0x20\n      add\n      add\n      mload\n        /* \"contracts/mirrorseaMain.sol\":12790:12798  _price18 */\n      dup7\n        /* \"contracts/mirrorseaMain.sol\":12799:12800  i */\n      dup5\n        /* \"contracts/mirrorseaMain.sol\":12790:12801  _price18[i] */\n      dup2\n      mload\n      dup2\n      lt\n      tag_237\n      jumpi\n      mstore(0x00, shl(0xe0, 0x4e487b71))\n      mstore(0x04, 0x32)\n      revert(0x00, 0x24)\n    tag_237:\n      0x20\n      mul\n      0x20\n      add\n      add\n      mload\n        /* \"contracts/mirrorseaMain.sol\":12803:12808  order */\n      dup4\n        /* \"contracts/mirrorseaMain.sol\":12803:12815  order.margin */\n      0x0a\n      add\n      sload\n        /* \"contracts/mirrorseaMain.sol\":12771:12781  _isSolvent */\n      tag_238\n        /* \"contracts/mirrorseaMain.sol\":12771:12816  _isSolvent(_id[i], _price18[i], order.margin) */\n      jump\t// in\n    tag_235:\n        /* \"contracts/mirrorseaMain.sol\":12766:13194  if (!_isSolvent(_id[i], _price18[i], order.margin)) {... */\n      tag_239\n      jumpi\n        /* \"contracts/mirrorseaMain.sol\":12863:13179  _closePosition(... */\n      tag_240\n        /* \"contracts/mirrorseaMain.sol\":12903:12915  _marketState */\n      dup10\n        /* \"contracts/mirrorseaMain.sol\":12941:12946  order */\n      dup3\n        /* \"contracts/mirrorseaMain.sol\":12972:12973  3 */\n      0x03\n        /* \"contracts/mirrorseaMain.sol\":12999:13002  _id */\n      dup12\n        /* \"contracts/mirrorseaMain.sol\":13003:13004  i */\n      dup7\n        /* \"contracts/mirrorseaMain.sol\":12999:13005  _id[i] */\n      dup2\n      mload\n      dup2\n      lt\n      tag_241\n      jumpi\n      mstore(0x00, shl(0xe0, 0x4e487b71))\n      mstore(0x04, 0x32)\n      revert(0x00, 0x24)\n    tag_241:\n      0x20\n      mul\n      0x20\n      add\n      add\n      mload\n        /* \"contracts/mirrorseaMain.sol\":13031:13041  _timestamp */\n      dup12\n        /* \"contracts/mirrorseaMain.sol\":13042:13043  i */\n      dup8\n        /* \"contracts/mirrorseaMain.sol\":13031:13044  _timestamp[i] */\n      dup2\n      mload\n      dup2\n      lt\n      tag_242\n      jumpi\n      mstore(0x00, shl(0xe0, 0x4e487b71))\n      mstore(0x04, 0x32)\n      revert(0x00, 0x24)\n    tag_242:\n      0x20\n      mul\n      0x20\n      add\n      add\n      mload\n        /* \"contracts/mirrorseaMain.sol\":13070:13078  _symbols */\n      dup12\n        /* \"contracts/mirrorseaMain.sol\":13079:13080  i */\n      dup9\n        /* \"contracts/mirrorseaMain.sol\":13070:13081  _symbols[i] */\n      dup2\n      mload\n      dup2\n      lt\n      tag_243\n      jumpi\n      mstore(0x00, shl(0xe0, 0x4e487b71))\n      mstore(0x04, 0x32)\n      revert(0x00, 0x24)\n    tag_243:\n      0x20\n      mul\n      0x20\n      add\n      add\n      mload\n        /* \"contracts/mirrorseaMain.sol\":13107:13115  _price18 */\n      dup12\n        /* \"contracts/mirrorseaMain.sol\":13116:13117  i */\n      dup10\n        /* \"contracts/mirrorseaMain.sol\":13107:13118  _price18[i] */\n      dup2\n      mload\n      dup2\n      lt\n      tag_244\n      jumpi\n      mstore(0x00, shl(0xe0, 0x4e487b71))\n      mstore(0x04, 0x32)\n      revert(0x00, 0x24)\n    tag_244:\n      0x20\n      mul\n      0x20\n      add\n      add\n      mload\n        /* \"contracts/mirrorseaMain.sol\":13144:13154  _signature */\n      dup12\n        /* \"contracts/mirrorseaMain.sol\":13155:13156  i */\n      dup11\n        /* \"contracts/mirrorseaMain.sol\":13144:13157  _signature[i] */\n      dup2\n      mload\n      dup2\n      lt\n      tag_245\n      jumpi\n      mstore(0x00, shl(0xe0, 0x4e487b71))\n      mstore(0x04, 0x32)\n      revert(0x00, 0x24)\n    tag_245:\n      0x20\n      mul\n      0x20\n      add\n      add\n      mload\n        /* \"contracts/mirrorseaMain.sol\":12863:12877  _closePosition */\n      tag_246\n        /* \"contracts/mirrorseaMain.sol\":12863:13179  _closePosition(... */\n      jump\t// in\n    tag_240:\n        /* \"contracts/mirrorseaMain.sol\":12836:13179  return... */\n      swap3\n      pop\n      pop\n      pop\n      jump(tag_230)\n        /* \"contracts/mirrorseaMain.sol\":12766:13194  if (!_isSolvent(_id[i], _price18[i], order.margin)) {... */\n    tag_239:\n      pop\n        /* \"contracts/mirrorseaMain.sol\":12689:12692  i++ */\n      dup1\n      tag_247\n      dup2\n      tag_213\n      jump\t// in\n    tag_247:\n      swap2\n      pop\n      pop\n        /* \"contracts/mirrorseaMain.sol\":12653:13204  for (uint256 i = 0; i < _id.length; i++) {... */\n      jump(tag_231)\n    tag_232:\n      pop\n        /* \"contracts/mirrorseaMain.sol\":13221:13225  true */\n      0x01\n        /* \"contracts/mirrorseaMain.sol\":13214:13225  return true */\n      swap1\n      pop\n        /* \"contracts/mirrorseaMain.sol\":3295:3296  _ */\n    tag_230:\n        /* \"contracts/mirrorseaMain.sol\":12381:13232  function liquidation(... */\n      swap7\n      swap6\n      pop\n      pop\n      pop\n      pop\n      pop\n      pop\n      jump\t// out\n        /* \"contracts/mirrorseaMain.sol\":3603:3715  function orderInfo(uint256 _id) external view returns (OrderInfo memory) {... */\n    tag_88:\n        /* \"contracts/mirrorseaMain.sol\":3658:3674  OrderInfo memory */\n      tag_248\n      tag_249\n      jump\t// in\n    tag_248:\n        /* \"contracts/mirrorseaMain.sol\":3693:3708  _orderInfo[_id] */\n      0x00\n      dup3\n      dup2\n      mstore\n        /* \"contracts/mirrorseaMain.sol\":3693:3703  _orderInfo */\n      0x6a\n        /* \"contracts/mirrorseaMain.sol\":3693:3708  _orderInfo[_id] */\n      0x20\n      swap1\n      dup2\n      mstore\n      0x40\n      swap2\n      dup3\n      swap1\n      keccak256\n        /* \"contracts/mirrorseaMain.sol\":3686:3708  return _orderInfo[_id] */\n      dup3\n      mload\n      0x0160\n      dup2\n      add\n      dup5\n      mstore\n      dup2\n      sload\n      sub(shl(0xa0, 0x01), 0x01)\n      and\n      dup2\n      mstore\n      0x01\n      dup3\n      add\n      sload\n      swap3\n      dup2\n      add\n      swap3\n      swap1\n      swap3\n      mstore\n      0x02\n      dup2\n      add\n      dup1\n      sload\n      swap3\n      swap4\n        /* \"contracts/mirrorseaMain.sol\":3693:3708  _orderInfo[_id] */\n      swap2\n      swap3\n        /* \"contracts/mirrorseaMain.sol\":3686:3708  return _orderInfo[_id] */\n      swap2\n      dup5\n      add\n      swap2\n      tag_251\n      swap1\n      tag_252\n      jump\t// in\n    tag_251:\n      dup1\n      0x1f\n      add\n      0x20\n      dup1\n      swap2\n      div\n      mul\n      0x20\n      add\n      mload(0x40)\n      swap1\n      dup2\n      add\n      0x40\n      mstore\n      dup1\n      swap3\n      swap2\n      swap1\n      dup2\n      dup2\n      mstore\n      0x20\n      add\n      dup3\n      dup1\n      sload\n      tag_253\n      swap1\n      tag_252\n      jump\t// in\n    tag_253:\n      dup1\n      iszero\n      tag_254\n      jumpi\n      dup1\n      0x1f\n      lt\n      tag_255\n      jumpi\n      0x0100\n      dup1\n      dup4\n      sload\n      div\n      mul\n      dup4\n      mstore\n      swap2\n      0x20\n      add\n      swap2\n      jump(tag_254)\n    tag_255:\n      dup3\n      add\n      swap2\n      swap1\n      0x00\n      mstore\n      keccak256(0x00, 0x20)\n      swap1\n    tag_256:\n      dup2\n      sload\n      dup2\n      mstore\n      swap1\n      0x01\n      add\n      swap1\n      0x20\n      add\n      dup1\n      dup4\n      gt\n      tag_256\n      jumpi\n      dup3\n      swap1\n      sub\n      0x1f\n      and\n      dup3\n      add\n      swap2\n    tag_254:\n      pop\n      pop\n      pop\n      pop\n      pop\n      dup2\n      mstore\n      0x20\n      add\n      0x03\n      dup3\n      add\n      sload\n      dup2\n      mstore\n      0x20\n      add\n      0x04\n      dup3\n      add\n      sload\n      dup2\n      mstore\n      0x20\n      add\n      0x05\n      dup3\n      add\n      sload\n      dup2\n      mstore\n      0x20\n      add\n      0x06\n      dup3\n      add\n      sload\n      dup2\n      mstore\n      0x20\n      add\n      0x07\n      dup3\n      add\n      sload\n      dup2\n      mstore\n      0x20\n      add\n      0x08\n      dup3\n      add\n      sload\n      dup2\n      mstore\n      0x20\n      add\n      0x09\n      dup3\n      add\n      sload\n      dup2\n      mstore\n      0x20\n      add\n      0x0a\n      dup3\n      add\n      sload\n      dup2\n      mstore\n      pop\n      pop\n      swap1\n      pop\n        /* \"contracts/mirrorseaMain.sol\":3603:3715  function orderInfo(uint256 _id) external view returns (OrderInfo memory) {... */\n    tag_250:\n      swap2\n      swap1\n      pop\n      jump\t// out\n        /* \"contracts/mirrorseaMain.sol\":3471:3597  function setSigner(address _address) external onlyOwner returns (bool) {... */\n    tag_93:\n        /* \"contracts/mirrorseaMain.sol\":3536:3540  bool */\n      0x00\n        /* \"@openzeppelin/contracts-upgradeable/access/OwnableUpgradeable.sol\":1525:1537  _msgSender() */\n      tag_258\n        /* \"@openzeppelin/contracts-upgradeable/access/OwnableUpgradeable.sol\":1525:1535  _msgSender */\n      tag_220\n        /* \"@openzeppelin/contracts-upgradeable/access/OwnableUpgradeable.sol\":1525:1537  _msgSender() */\n      jump\t// in\n    tag_258:\n      sub(shl(0xa0, 0x01), 0x01)\n        /* \"@openzeppelin/contracts-upgradeable/access/OwnableUpgradeable.sol\":1514:1537  owner() == _msgSender() */\n      and\n        /* \"@openzeppelin/contracts-upgradeable/access/OwnableUpgradeable.sol\":1514:1521  owner() */\n      tag_259\n        /* \"@openzeppelin/contracts-upgradeable/access/OwnableUpgradeable.sol\":1514:1519  owner */\n      tag_119\n        /* \"@openzeppelin/contracts-upgradeable/access/OwnableUpgradeable.sol\":1514:1521  owner() */\n      jump\t// in\n    tag_259:\n      sub(shl(0xa0, 0x01), 0x01)\n        /* \"@openzeppelin/contracts-upgradeable/access/OwnableUpgradeable.sol\":1514:1537  owner() == _msgSender() */\n      and\n      eq\n        /* \"@openzeppelin/contracts-upgradeable/access/OwnableUpgradeable.sol\":1506:1574  require(owner() == _msgSender(), \"Ownable: caller is not the owner\") */\n      tag_260\n      jumpi\n      mload(0x40)\n      shl(0xe5, 0x461bcd)\n      dup2\n      mstore\n      0x04\n      add\n      tag_198\n      swap1\n      tag_224\n      jump\t// in\n    tag_260:\n      pop\n        /* \"contracts/mirrorseaMain.sol\":3552:3558  signer */\n      0x66\n        /* \"contracts/mirrorseaMain.sol\":3552:3569  signer = _address */\n      dup1\n      sload\n      sub(shl(0xa0, 0x01), 0x01)\n      dup4\n      and\n      not(sub(shl(0xa0, 0x01), 0x01))\n      swap1\n      swap2\n      and\n      or\n      swap1\n      sstore\n      0x01\n        /* \"contracts/mirrorseaMain.sol\":3471:3597  function setSigner(address _address) external onlyOwner returns (bool) {... */\n      swap2\n      swap1\n      pop\n      jump\t// out\n        /* \"contracts/mirrorseaMain.sol\":11397:11989  function closePosition(... */\n    tag_98:\n        /* \"contracts/mirrorseaMain.sol\":11611:11615  bool */\n      0x00\n        /* \"contracts/mirrorseaMain.sol\":11653:11668  _orderInfo[_id] */\n      dup6\n      dup2\n      mstore\n        /* \"contracts/mirrorseaMain.sol\":11653:11663  _orderInfo */\n      0x6a\n        /* \"contracts/mirrorseaMain.sol\":11653:11668  _orderInfo[_id] */\n      0x20\n      mstore\n      0x40\n      dup2\n      keccak256\n        /* \"contracts/mirrorseaMain.sol\":11686:11696  order.user */\n      dup1\n      sload\n      sub(shl(0xa0, 0x01), 0x01)\n      and\n        /* \"contracts/mirrorseaMain.sol\":11700:11710  msg.sender */\n      caller\n        /* \"contracts/mirrorseaMain.sol\":11686:11710  order.user == msg.sender */\n      eq\n        /* \"contracts/mirrorseaMain.sol\":11678:11723  require(order.user == msg.sender, \"user err\") */\n      tag_264\n      jumpi\n      mload(0x40)\n      shl(0xe5, 0x461bcd)\n      dup2\n      mstore\n      0x04\n      add\n      tag_198\n      swap1\n      tag_266\n      jump\t// in\n    tag_264:\n        /* \"contracts/mirrorseaMain.sol\":11753:11982  _closePosition(... */\n      tag_267\n        /* \"contracts/mirrorseaMain.sol\":11785:11797  _marketState */\n      dup9\n        /* \"contracts/mirrorseaMain.sol\":11815:11820  order */\n      dup3\n        /* \"contracts/mirrorseaMain.sol\":11838:11839  2 */\n      0x02\n        /* \"contracts/mirrorseaMain.sol\":11857:11860  _id */\n      dup11\n        /* \"contracts/mirrorseaMain.sol\":11878:11888  _timestamp */\n      dup11\n        /* \"contracts/mirrorseaMain.sol\":11906:11914  _symbols */\n      dup11\n        /* \"contracts/mirrorseaMain.sol\":11932:11940  _price18 */\n      dup11\n        /* \"contracts/mirrorseaMain.sol\":11958:11968  _signature */\n      dup11\n        /* \"contracts/mirrorseaMain.sol\":11753:11767  _closePosition */\n      tag_246\n        /* \"contracts/mirrorseaMain.sol\":11753:11982  _closePosition(... */\n      jump\t// in\n    tag_267:\n        /* \"contracts/mirrorseaMain.sol\":11734:11982  return... */\n      swap9\n        /* \"contracts/mirrorseaMain.sol\":11397:11989  function closePosition(... */\n      swap8\n      pop\n      pop\n      pop\n      pop\n      pop\n      pop\n      pop\n      pop\n      jump\t// out\n        /* \"@openzeppelin/contracts-upgradeable/access/OwnableUpgradeable.sol\":1934:2035  function renounceOwnership() public virtual onlyOwner {... */\n    tag_101:\n        /* \"@openzeppelin/contracts-upgradeable/access/OwnableUpgradeable.sol\":1525:1537  _msgSender() */\n      tag_269\n        /* \"@openzeppelin/contracts-upgradeable/access/OwnableUpgradeable.sol\":1525:1535  _msgSender */\n      tag_220\n        /* \"@openzeppelin/contracts-upgradeable/access/OwnableUpgradeable.sol\":1525:1537  _msgSender() */\n      jump\t// in\n    tag_269:\n      sub(shl(0xa0, 0x01), 0x01)\n        /* \"@openzeppelin/contracts-upgradeable/access/OwnableUpgradeable.sol\":1514:1537  owner() == _msgSender() */\n      and\n        /* \"@openzeppelin/contracts-upgradeable/access/OwnableUpgradeable.sol\":1514:1521  owner() */\n      tag_270\n        /* \"@openzeppelin/contracts-upgradeable/access/OwnableUpgradeable.sol\":1514:1519  owner */\n      tag_119\n        /* \"@openzeppelin/contracts-upgradeable/access/OwnableUpgradeable.sol\":1514:1521  owner() */\n      jump\t// in\n    tag_270:\n      sub(shl(0xa0, 0x01), 0x01)\n        /* \"@openzeppelin/contracts-upgradeable/access/OwnableUpgradeable.sol\":1514:1537  owner() == _msgSender() */\n      and\n      eq\n        /* \"@openzeppelin/contracts-upgradeable/access/OwnableUpgradeable.sol\":1506:1574  require(owner() == _msgSender(), \"Ownable: caller is not the owner\") */\n      tag_271\n      jumpi\n      mload(0x40)\n      shl(0xe5, 0x461bcd)\n      dup2\n      mstore\n      0x04\n      add\n      tag_198\n      swap1\n      tag_224\n      jump\t// in\n    tag_271:\n        /* \"@openzeppelin/contracts-upgradeable/access/OwnableUpgradeable.sol\":1998:2028  _transferOwnership(address(0)) */\n      tag_274\n        /* \"@openzeppelin/contracts-upgradeable/access/OwnableUpgradeable.sol\":2025:2026  0 */\n      0x00\n        /* \"@openzeppelin/contracts-upgradeable/access/OwnableUpgradeable.sol\":1998:2016  _transferOwnership */\n      tag_275\n        /* \"@openzeppelin/contracts-upgradeable/access/OwnableUpgradeable.sol\":1998:2028  _transferOwnership(address(0)) */\n      jump\t// in\n    tag_274:\n        /* \"@openzeppelin/contracts-upgradeable/access/OwnableUpgradeable.sol\":1934:2035  function renounceOwnership() public virtual onlyOwner {... */\n      jump\t// out\n        /* \"contracts/mirrorseaMain.sol\":1508:1594  mapping(address => mapping(uint256 => uint256))... */\n    tag_105:\n      0x6f\n      0x20\n      swap1\n      dup2\n      mstore\n      0x00\n      swap3\n      dup4\n      mstore\n      0x40\n      dup1\n      dup5\n      keccak256\n      swap1\n      swap2\n      mstore\n      swap1\n      dup3\n      mstore\n      swap1\n      keccak256\n      sload\n      dup2\n      jump\t// out\n        /* \"contracts/mirrorseaMain.sol\":3326:3452  function setFeePercent(uint256 _val) external onlyOwner returns (bool) {... */\n    tag_109:\n        /* \"contracts/mirrorseaMain.sol\":3391:3395  bool */\n      0x00\n        /* \"@openzeppelin/contracts-upgradeable/access/OwnableUpgradeable.sol\":1525:1537  _msgSender() */\n      tag_277\n        /* \"@openzeppelin/contracts-upgradeable/access/OwnableUpgradeable.sol\":1525:1535  _msgSender */\n      tag_220\n        /* \"@openzeppelin/contracts-upgradeable/access/OwnableUpgradeable.sol\":1525:1537  _msgSender() */\n      jump\t// in\n    tag_277:\n      sub(shl(0xa0, 0x01), 0x01)\n        /* \"@openzeppelin/contracts-upgradeable/access/OwnableUpgradeable.sol\":1514:1537  owner() == _msgSender() */\n      and\n        /* \"@openzeppelin/contracts-upgradeable/access/OwnableUpgradeable.sol\":1514:1521  owner() */\n      tag_278\n        /* \"@openzeppelin/contracts-upgradeable/access/OwnableUpgradeable.sol\":1514:1519  owner */\n      tag_119\n        /* \"@openzeppelin/contracts-upgradeable/access/OwnableUpgradeable.sol\":1514:1521  owner() */\n      jump\t// in\n    tag_278:\n      sub(shl(0xa0, 0x01), 0x01)\n        /* \"@openzeppelin/contracts-upgradeable/access/OwnableUpgradeable.sol\":1514:1537  owner() == _msgSender() */\n      and\n      eq\n        /* \"@openzeppelin/contracts-upgradeable/access/OwnableUpgradeable.sol\":1506:1574  require(owner() == _msgSender(), \"Ownable: caller is not the owner\") */\n      tag_279\n      jumpi\n      mload(0x40)\n      shl(0xe5, 0x461bcd)\n      dup2\n      mstore\n      0x04\n      add\n      tag_198\n      swap1\n      tag_224\n      jump\t// in\n    tag_279:\n      pop\n        /* \"contracts/mirrorseaMain.sol\":3407:3417  feePercent */\n      0x72\n        /* \"contracts/mirrorseaMain.sol\":3407:3424  feePercent = _val */\n      sstore\n        /* \"contracts/mirrorseaMain.sol\":3441:3445  true */\n      0x01\n      swap1\n        /* \"contracts/mirrorseaMain.sol\":3326:3452  function setFeePercent(uint256 _val) external onlyOwner returns (bool) {... */\n      jump\t// out\n        /* \"contracts/mirrorseaMain.sol\":1233:1254  IOracle public oracle */\n    tag_112:\n      and(sub(shl(0xa0, 0x01), 0x01), sload(0x69))\n      dup2\n      jump\t// out\n        /* \"contracts/mirrorseaMain.sol\":1756:1781  uint256 public feePercent */\n    tag_116:\n      sload(0x72)\n      dup2\n      jump\t// out\n        /* \"@openzeppelin/contracts-upgradeable/access/OwnableUpgradeable.sol\":1302:1387  function owner() public view virtual returns (address) {... */\n    tag_119:\n        /* \"@openzeppelin/contracts-upgradeable/access/OwnableUpgradeable.sol\":1374:1380  _owner */\n      and(sub(shl(0xa0, 0x01), 0x01), sload(0x33))\n        /* \"@openzeppelin/contracts-upgradeable/access/OwnableUpgradeable.sol\":1302:1387  function owner() public view virtual returns (address) {... */\n      swap1\n      jump\t// out\n        /* \"contracts/mirrorseaMain.sol\":13238:13791  function forcedLiquidation(... */\n    tag_123:\n        /* \"contracts/mirrorseaMain.sol\":3233:3243  msg.sender */\n      caller\n        /* \"contracts/mirrorseaMain.sol\":13469:13473  bool */\n      0x00\n        /* \"contracts/mirrorseaMain.sol\":3224:3244  executor[msg.sender] */\n      swap1\n      dup2\n      mstore\n        /* \"contracts/mirrorseaMain.sol\":3224:3232  executor */\n      0x65\n        /* \"contracts/mirrorseaMain.sol\":3224:3244  executor[msg.sender] */\n      0x20\n      mstore\n      0x40\n      dup2\n      keccak256\n      sload\n      0xff\n      and\n        /* \"contracts/mirrorseaMain.sol\":3216:3285  require(executor[msg.sender], \"executor: caller is not the executor\") */\n      tag_284\n      jumpi\n      mload(0x40)\n      shl(0xe5, 0x461bcd)\n      dup2\n      mstore\n      0x04\n      add\n      tag_198\n      swap1\n      tag_229\n      jump\t// in\n    tag_284:\n        /* \"contracts/mirrorseaMain.sol\":13485:13508  OrderInfo storage order */\n      0x00\n        /* \"contracts/mirrorseaMain.sol\":13511:13526  _orderInfo[_id] */\n      dup7\n      dup2\n      mstore\n        /* \"contracts/mirrorseaMain.sol\":13511:13521  _orderInfo */\n      0x6a\n        /* \"contracts/mirrorseaMain.sol\":13511:13526  _orderInfo[_id] */\n      0x20\n      mstore\n      0x40\n      swap1\n      keccak256\n        /* \"contracts/mirrorseaMain.sol\":13555:13784  _closePosition(... */\n      tag_267\n        /* \"contracts/mirrorseaMain.sol\":13587:13599  _marketState */\n      dup9\n        /* \"contracts/mirrorseaMain.sol\":13511:13526  _orderInfo[_id] */\n      dup3\n        /* \"contracts/mirrorseaMain.sol\":13640:13641  4 */\n      0x04\n        /* \"contracts/mirrorseaMain.sol\":13522:13525  _id */\n      dup11\n        /* \"contracts/mirrorseaMain.sol\":13680:13690  _timestamp */\n      dup11\n        /* \"contracts/mirrorseaMain.sol\":13708:13716  _symbols */\n      dup11\n        /* \"contracts/mirrorseaMain.sol\":13734:13742  _price18 */\n      dup11\n        /* \"contracts/mirrorseaMain.sol\":13760:13770  _signature */\n      dup11\n        /* \"contracts/mirrorseaMain.sol\":13555:13569  _closePosition */\n      tag_246\n        /* \"contracts/mirrorseaMain.sol\":13555:13784  _closePosition(... */\n      jump\t// in\n        /* \"contracts/mirrorseaMain.sol\":15124:16862  function adjustPosition(... */\n    tag_128:\n        /* \"contracts/mirrorseaMain.sol\":15370:15374  bool */\n      0x00\n        /* \"contracts/mirrorseaMain.sol\":15412:15427  _orderInfo[_id] */\n      dup7\n      dup2\n      mstore\n        /* \"contracts/mirrorseaMain.sol\":15412:15422  _orderInfo */\n      0x6a\n        /* \"contracts/mirrorseaMain.sol\":15412:15427  _orderInfo[_id] */\n      0x20\n      mstore\n      0x40\n      dup2\n      keccak256\n        /* \"contracts/mirrorseaMain.sol\":15445:15455  order.user */\n      dup1\n      sload\n      sub(shl(0xa0, 0x01), 0x01)\n      and\n        /* \"contracts/mirrorseaMain.sol\":15437:15494  require(order.user != address(0), \"order does not exist\") */\n      tag_289\n      jumpi\n      mload(0x40)\n      shl(0xe5, 0x461bcd)\n      dup2\n      mstore\n      0x04\n      add\n      tag_198\n      swap1\n      tag_291\n      jump\t// in\n    tag_289:\n        /* \"contracts/mirrorseaMain.sol\":15526:15527  2 */\n      0x02\n        /* \"contracts/mirrorseaMain.sol\":15512:15517  order */\n      dup2\n        /* \"contracts/mirrorseaMain.sol\":15512:15523  order.state */\n      0x03\n      add\n      sload\n        /* \"contracts/mirrorseaMain.sol\":15512:15527  order.state < 2 */\n      lt\n        /* \"contracts/mirrorseaMain.sol\":15504:15541  require(order.state < 2, \"state err\") */\n      tag_292\n      jumpi\n      mload(0x40)\n      shl(0xe5, 0x461bcd)\n      dup2\n      mstore\n      0x04\n      add\n      tag_198\n      swap1\n      tag_294\n      jump\t// in\n    tag_292:\n        /* \"contracts/mirrorseaMain.sol\":15572:15578  oracle */\n      sload(0x69)\n        /* \"contracts/mirrorseaMain.sol\":15572:15737  oracle.getkey(... */\n      mload(0x40)\n      shl(0xe1, 0x11cdc9d9)\n      dup2\n      mstore\n      sub(shl(0xa0, 0x01), 0x01)\n        /* \"contracts/mirrorseaMain.sol\":15572:15578  oracle */\n      swap1\n      swap2\n      and\n      swap1\n        /* \"contracts/mirrorseaMain.sol\":15572:15585  oracle.getkey */\n      0x239b93b2\n      swap1\n        /* \"contracts/mirrorseaMain.sol\":15572:15737  oracle.getkey(... */\n      tag_295\n      swap1\n        /* \"contracts/mirrorseaMain.sol\":15603:15615  _marketState */\n      dup13\n      swap1\n        /* \"contracts/mirrorseaMain.sol\":15633:15641  _price18 */\n      dup10\n      swap1\n        /* \"contracts/mirrorseaMain.sol\":15659:15669  _timestamp */\n      dup13\n      swap1\n        /* \"contracts/mirrorseaMain.sol\":15687:15695  _symbols */\n      dup13\n      swap1\n        /* \"contracts/mirrorseaMain.sol\":15713:15723  _signature */\n      dup12\n      swap1\n        /* \"contracts/mirrorseaMain.sol\":15572:15737  oracle.getkey(... */\n      0x04\n      add\n      tag_296\n      jump\t// in\n    tag_295:\n      0x20\n      mload(0x40)\n      dup1\n      dup4\n      sub\n      dup2\n      dup7\n      dup1\n      extcodesize\n      iszero\n      dup1\n      iszero\n      tag_297\n      jumpi\n      0x00\n      dup1\n      revert\n    tag_297:\n      pop\n      gas\n      staticcall\n      iszero\n      dup1\n      iszero\n      tag_299\n      jumpi\n      returndatasize\n      0x00\n      dup1\n      returndatacopy\n      revert(0x00, returndatasize)\n    tag_299:\n      pop\n      pop\n      pop\n      pop\n      mload(0x40)\n      returndatasize\n      not(0x1f)\n      0x1f\n      dup3\n      add\n      and\n      dup3\n      add\n      dup1\n      0x40\n      mstore\n      pop\n      dup2\n      add\n      swap1\n      tag_300\n      swap2\n      swap1\n      tag_301\n      jump\t// in\n    tag_300:\n        /* \"contracts/mirrorseaMain.sol\":15551:15773  require(... */\n      tag_302\n      jumpi\n      mload(0x40)\n      shl(0xe5, 0x461bcd)\n      dup2\n      mstore\n      0x04\n      add\n      tag_198\n      swap1\n      tag_304\n      jump\t// in\n    tag_302:\n        /* \"contracts/mirrorseaMain.sol\":15791:15831  _isSolvent(_id, _price18, _adjustMargin) */\n      tag_305\n        /* \"contracts/mirrorseaMain.sol\":15802:15805  _id */\n      dup9\n        /* \"contracts/mirrorseaMain.sol\":15807:15815  _price18 */\n      dup7\n        /* \"contracts/mirrorseaMain.sol\":15817:15830  _adjustMargin */\n      dup6\n        /* \"contracts/mirrorseaMain.sol\":15791:15801  _isSolvent */\n      tag_238\n        /* \"contracts/mirrorseaMain.sol\":15791:15831  _isSolvent(_id, _price18, _adjustMargin) */\n      jump\t// in\n    tag_305:\n        /* \"contracts/mirrorseaMain.sol\":15783:15852  require(_isSolvent(_id, _price18, _adjustMargin), \"User is bankrupt\") */\n      tag_306\n      jumpi\n      mload(0x40)\n      shl(0xe5, 0x461bcd)\n      dup2\n      mstore\n      0x04\n      add\n      tag_198\n      swap1\n      tag_308\n      jump\t// in\n    tag_306:\n        /* \"contracts/mirrorseaMain.sol\":15863:15874  uint256 fee */\n      0x00\n        /* \"contracts/mirrorseaMain.sol\":15877:16006  order... */\n      tag_309\n        /* \"contracts/mirrorseaMain.sol\":16001:16005  1e18 */\n      0x0de0b6b3a7640000\n        /* \"contracts/mirrorseaMain.sol\":15877:15983  order... */\n      tag_311\n        /* \"contracts/mirrorseaMain.sol\":15973:15982  PRECISION */\n      sload(0x73)\n        /* \"contracts/mirrorseaMain.sol\":15877:15955  order... */\n      tag_311\n        /* \"contracts/mirrorseaMain.sol\":15944:15954  feePercent */\n      sload(0x72)\n        /* \"contracts/mirrorseaMain.sol\":15877:15926  order... */\n      tag_312\n        /* \"contracts/mirrorseaMain.sol\":15917:15925  _price18 */\n      dup13\n        /* \"contracts/mirrorseaMain.sol\":15877:15882  order */\n      dup10\n        /* \"contracts/mirrorseaMain.sol\":15877:15899  order... */\n      0x09\n      add\n      sload\n        /* \"contracts/mirrorseaMain.sol\":15877:15916  order... */\n      tag_191\n      swap1\n        /* \"contracts/mirrorseaMain.sol\":15877:15926  order... */\n      swap2\n      swap1\n      0xffffffff\n      and\n      jump\t// in\n    tag_312:\n        /* \"contracts/mirrorseaMain.sol\":15877:15943  order... */\n      swap1\n      tag_191\n        /* \"contracts/mirrorseaMain.sol\":15877:15955  order... */\n      jump\t// in\n    tag_311:\n        /* \"contracts/mirrorseaMain.sol\":15877:15972  order... */\n      swap1\n      tag_313\n        /* \"contracts/mirrorseaMain.sol\":15877:15983  order... */\n      jump\t// in\n        /* \"contracts/mirrorseaMain.sol\":15877:16006  order... */\n    tag_309:\n        /* \"contracts/mirrorseaMain.sol\":15863:16006  uint256 fee = order... */\n      swap1\n      pop\n        /* \"contracts/mirrorseaMain.sol\":16016:16028  uint256 earn */\n      0x00\n        /* \"contracts/mirrorseaMain.sol\":16031:16136  (_price18.mul(order.amt).div(1e18)).sub(... */\n      tag_314\n        /* \"contracts/mirrorseaMain.sol\":16084:16126  order.openPrice18.mul(order.amt).div(1e18) */\n      tag_315\n        /* \"contracts/mirrorseaMain.sol\":16121:16125  1e18 */\n      0x0de0b6b3a7640000\n        /* \"contracts/mirrorseaMain.sol\":16084:16116  order.openPrice18.mul(order.amt) */\n      tag_311\n        /* \"contracts/mirrorseaMain.sol\":16106:16111  order */\n      dup7\n        /* \"contracts/mirrorseaMain.sol\":16106:16115  order.amt */\n      0x09\n      add\n      sload\n        /* \"contracts/mirrorseaMain.sol\":16084:16089  order */\n      dup8\n        /* \"contracts/mirrorseaMain.sol\":16084:16101  order.openPrice18 */\n      0x05\n      add\n      sload\n        /* \"contracts/mirrorseaMain.sol\":16084:16105  order.openPrice18.mul */\n      tag_191\n      swap1\n        /* \"contracts/mirrorseaMain.sol\":16084:16116  order.openPrice18.mul(order.amt) */\n      swap2\n      swap1\n      0xffffffff\n      and\n      jump\t// in\n        /* \"contracts/mirrorseaMain.sol\":16084:16126  order.openPrice18.mul(order.amt).div(1e18) */\n    tag_315:\n        /* \"contracts/mirrorseaMain.sol\":16032:16065  _price18.mul(order.amt).div(1e18) */\n      tag_190\n        /* \"contracts/mirrorseaMain.sol\":16060:16064  1e18 */\n      0x0de0b6b3a7640000\n        /* \"contracts/mirrorseaMain.sol\":16032:16055  _price18.mul(order.amt) */\n      tag_311\n        /* \"contracts/mirrorseaMain.sol\":16045:16050  order */\n      dup8\n        /* \"contracts/mirrorseaMain.sol\":16045:16054  order.amt */\n      0x09\n      add\n      sload\n        /* \"contracts/mirrorseaMain.sol\":16032:16040  _price18 */\n      dup13\n        /* \"contracts/mirrorseaMain.sol\":16032:16044  _price18.mul */\n      tag_191\n      swap1\n        /* \"contracts/mirrorseaMain.sol\":16032:16055  _price18.mul(order.amt) */\n      swap2\n      swap1\n      0xffffffff\n      and\n      jump\t// in\n        /* \"contracts/mirrorseaMain.sol\":16031:16136  (_price18.mul(order.amt).div(1e18)).sub(... */\n    tag_314:\n        /* \"contracts/mirrorseaMain.sol\":16016:16136  uint256 earn = (_price18.mul(order.amt).div(1e18)).sub(... */\n      swap1\n      pop\n        /* \"contracts/mirrorseaMain.sol\":16146:16163  uint256 nowMargin */\n      0x00\n        /* \"contracts/mirrorseaMain.sol\":16166:16188  order.margin.add(earn) */\n      tag_319\n        /* \"contracts/mirrorseaMain.sol\":16183:16187  earn */\n      dup3\n        /* \"contracts/mirrorseaMain.sol\":16166:16171  order */\n      dup6\n        /* \"contracts/mirrorseaMain.sol\":16166:16178  order.margin */\n      0x0a\n      add\n      sload\n        /* \"contracts/mirrorseaMain.sol\":16166:16182  order.margin.add */\n      tag_320\n      swap1\n        /* \"contracts/mirrorseaMain.sol\":16166:16188  order.margin.add(earn) */\n      swap2\n      swap1\n      0xffffffff\n      and\n      jump\t// in\n    tag_319:\n        /* \"contracts/mirrorseaMain.sol\":16146:16188  uint256 nowMargin = order.margin.add(earn) */\n      swap1\n      pop\n        /* \"contracts/mirrorseaMain.sol\":16198:16216  uint256 diffMargin */\n      0x00\n        /* \"contracts/mirrorseaMain.sol\":16146:16188  uint256 nowMargin = order.margin.add(earn) */\n      dup2\n        /* \"contracts/mirrorseaMain.sol\":16230:16252  _adjustMargin.sub(fee) */\n      tag_321\n        /* \"contracts/mirrorseaMain.sol\":16230:16243  _adjustMargin */\n      dup9\n        /* \"contracts/mirrorseaMain.sol\":16248:16251  fee */\n      dup7\n        /* \"contracts/mirrorseaMain.sol\":16230:16247  _adjustMargin.sub */\n      tag_192\n        /* \"contracts/mirrorseaMain.sol\":16230:16252  _adjustMargin.sub(fee) */\n      jump\t// in\n    tag_321:\n        /* \"contracts/mirrorseaMain.sol\":16230:16264  _adjustMargin.sub(fee) > nowMargin */\n      gt\n        /* \"contracts/mirrorseaMain.sol\":16226:16605  if (_adjustMargin.sub(fee) > nowMargin) {... */\n      iszero\n      tag_322\n      jumpi\n        /* \"contracts/mirrorseaMain.sol\":16293:16330  _adjustMargin.sub(fee).sub(nowMargin) */\n      tag_323\n        /* \"contracts/mirrorseaMain.sol\":16320:16329  nowMargin */\n      dup3\n        /* \"contracts/mirrorseaMain.sol\":16293:16315  _adjustMargin.sub(fee) */\n      tag_190\n        /* \"contracts/mirrorseaMain.sol\":16293:16306  _adjustMargin */\n      dup10\n        /* \"contracts/mirrorseaMain.sol\":16311:16314  fee */\n      dup8\n        /* \"contracts/mirrorseaMain.sol\":16293:16310  _adjustMargin.sub */\n      tag_192\n        /* \"contracts/mirrorseaMain.sol\":16293:16315  _adjustMargin.sub(fee) */\n      jump\t// in\n        /* \"contracts/mirrorseaMain.sol\":16293:16330  _adjustMargin.sub(fee).sub(nowMargin) */\n    tag_323:\n        /* \"contracts/mirrorseaMain.sol\":16344:16347  usc */\n      sload(0x67)\n        /* \"contracts/mirrorseaMain.sol\":16280:16330  diffMargin = _adjustMargin.sub(fee).sub(nowMargin) */\n      swap1\n      swap2\n      pop\n        /* \"contracts/mirrorseaMain.sol\":16344:16403  usc.safeTransferFrom(msg.sender, address(this), diffMargin) */\n      tag_325\n      swap1\n      sub(shl(0xa0, 0x01), 0x01)\n        /* \"contracts/mirrorseaMain.sol\":16344:16347  usc */\n      and\n        /* \"contracts/mirrorseaMain.sol\":16365:16375  msg.sender */\n      caller\n        /* \"contracts/mirrorseaMain.sol\":16385:16389  this */\n      address\n        /* \"contracts/mirrorseaMain.sol\":16280:16330  diffMargin = _adjustMargin.sub(fee).sub(nowMargin) */\n      dup5\n        /* \"contracts/mirrorseaMain.sol\":16344:16364  usc.safeTransferFrom */\n      tag_326\n        /* \"contracts/mirrorseaMain.sol\":16344:16403  usc.safeTransferFrom(msg.sender, address(this), diffMargin) */\n      jump\t// in\n    tag_325:\n        /* \"contracts/mirrorseaMain.sol\":16430:16433  usc */\n      sload(0x67)\n        /* \"contracts/mirrorseaMain.sol\":16417:16452  IUSC(address(usc)).burn(diffMargin) */\n      mload(0x40)\n      shl(0xe3, 0x0852cd8d)\n      dup2\n      mstore\n      sub(shl(0xa0, 0x01), 0x01)\n        /* \"contracts/mirrorseaMain.sol\":16430:16433  usc */\n      swap1\n      swap2\n      and\n      swap1\n        /* \"contracts/mirrorseaMain.sol\":16417:16440  IUSC(address(usc)).burn */\n      0x42966c68\n      swap1\n        /* \"contracts/mirrorseaMain.sol\":16417:16452  IUSC(address(usc)).burn(diffMargin) */\n      tag_327\n      swap1\n        /* \"contracts/mirrorseaMain.sol\":16441:16451  diffMargin */\n      dup5\n      swap1\n        /* \"contracts/mirrorseaMain.sol\":16417:16452  IUSC(address(usc)).burn(diffMargin) */\n      0x04\n      add\n      tag_53\n      jump\t// in\n    tag_327:\n      0x00\n      mload(0x40)\n      dup1\n      dup4\n      sub\n      dup2\n      0x00\n      dup8\n      dup1\n      extcodesize\n      iszero\n      dup1\n      iszero\n      tag_328\n      jumpi\n      0x00\n      dup1\n      revert\n    tag_328:\n      pop\n      gas\n      call\n      iszero\n      dup1\n      iszero\n      tag_330\n      jumpi\n      returndatasize\n      0x00\n      dup1\n      returndatacopy\n      revert(0x00, returndatasize)\n    tag_330:\n      pop\n      pop\n      pop\n      pop\n        /* \"contracts/mirrorseaMain.sol\":16226:16605  if (_adjustMargin.sub(fee) > nowMargin) {... */\n      jump(tag_331)\n    tag_322:\n        /* \"contracts/mirrorseaMain.sol\":16496:16533  nowMargin.sub(_adjustMargin.sub(fee)) */\n      tag_332\n        /* \"contracts/mirrorseaMain.sol\":16510:16532  _adjustMargin.sub(fee) */\n      tag_333\n        /* \"contracts/mirrorseaMain.sol\":16510:16523  _adjustMargin */\n      dup9\n        /* \"contracts/mirrorseaMain.sol\":16528:16531  fee */\n      dup7\n        /* \"contracts/mirrorseaMain.sol\":16510:16527  _adjustMargin.sub */\n      tag_192\n        /* \"contracts/mirrorseaMain.sol\":16510:16532  _adjustMargin.sub(fee) */\n      jump\t// in\n    tag_333:\n        /* \"contracts/mirrorseaMain.sol\":16496:16505  nowMargin */\n      dup4\n      swap1\n        /* \"contracts/mirrorseaMain.sol\":16496:16509  nowMargin.sub */\n      tag_192\n        /* \"contracts/mirrorseaMain.sol\":16496:16533  nowMargin.sub(_adjustMargin.sub(fee)) */\n      jump\t// in\n    tag_332:\n        /* \"contracts/mirrorseaMain.sol\":16560:16563  usc */\n      sload(0x67)\n        /* \"contracts/mirrorseaMain.sol\":16571:16581  order.user */\n      dup7\n      sload\n        /* \"contracts/mirrorseaMain.sol\":16547:16594  IUSC(address(usc)).mint(order.user, diffMargin) */\n      mload(0x40)\n      shl(0xe0, 0x40c10f19)\n      dup2\n      mstore\n        /* \"contracts/mirrorseaMain.sol\":16483:16533  diffMargin = nowMargin.sub(_adjustMargin.sub(fee)) */\n      swap3\n      swap4\n      pop\n      sub(shl(0xa0, 0x01), 0x01)\n        /* \"contracts/mirrorseaMain.sol\":16560:16563  usc */\n      swap2\n      dup3\n      and\n      swap3\n        /* \"contracts/mirrorseaMain.sol\":16547:16570  IUSC(address(usc)).mint */\n      0x40c10f19\n      swap3\n        /* \"contracts/mirrorseaMain.sol\":16547:16594  IUSC(address(usc)).mint(order.user, diffMargin) */\n      tag_334\n      swap3\n        /* \"contracts/mirrorseaMain.sol\":16571:16581  order.user */\n      and\n      swap1\n        /* \"contracts/mirrorseaMain.sol\":16483:16533  diffMargin = nowMargin.sub(_adjustMargin.sub(fee)) */\n      dup6\n      swap1\n        /* \"contracts/mirrorseaMain.sol\":16547:16594  IUSC(address(usc)).mint(order.user, diffMargin) */\n      0x04\n      add\n      tag_335\n      jump\t// in\n    tag_334:\n      0x20\n      mload(0x40)\n      dup1\n      dup4\n      sub\n      dup2\n      0x00\n      dup8\n      dup1\n      extcodesize\n      iszero\n      dup1\n      iszero\n      tag_336\n      jumpi\n      0x00\n      dup1\n      revert\n    tag_336:\n      pop\n      gas\n      call\n      iszero\n      dup1\n      iszero\n      tag_338\n      jumpi\n      returndatasize\n      0x00\n      dup1\n      returndatacopy\n      revert(0x00, returndatasize)\n    tag_338:\n      pop\n      pop\n      pop\n      pop\n      mload(0x40)\n      returndatasize\n      not(0x1f)\n      0x1f\n      dup3\n      add\n      and\n      dup3\n      add\n      dup1\n      0x40\n      mstore\n      pop\n      dup2\n      add\n      swap1\n      tag_339\n      swap2\n      swap1\n      tag_301\n      jump\t// in\n    tag_339:\n      pop\n        /* \"contracts/mirrorseaMain.sol\":16226:16605  if (_adjustMargin.sub(fee) > nowMargin) {... */\n    tag_331:\n        /* \"contracts/mirrorseaMain.sol\":16627:16630  usc */\n      sload(0x67)\n        /* \"contracts/mirrorseaMain.sol\":16614:16657  IUSC(address(usc)).mint(address(this), fee) */\n      mload(0x40)\n      shl(0xe0, 0x40c10f19)\n      dup2\n      mstore\n      sub(shl(0xa0, 0x01), 0x01)\n        /* \"contracts/mirrorseaMain.sol\":16627:16630  usc */\n      swap1\n      swap2\n      and\n      swap1\n        /* \"contracts/mirrorseaMain.sol\":16614:16637  IUSC(address(usc)).mint */\n      0x40c10f19\n      swap1\n        /* \"contracts/mirrorseaMain.sol\":16614:16657  IUSC(address(usc)).mint(address(this), fee) */\n      tag_340\n      swap1\n        /* \"contracts/mirrorseaMain.sol\":16646:16650  this */\n      address\n      swap1\n        /* \"contracts/mirrorseaMain.sol\":16653:16656  fee */\n      dup9\n      swap1\n        /* \"contracts/mirrorseaMain.sol\":16614:16657  IUSC(address(usc)).mint(address(this), fee) */\n      0x04\n      add\n      tag_335\n      jump\t// in\n    tag_340:\n      0x20\n      mload(0x40)\n      dup1\n      dup4\n      sub\n      dup2\n      0x00\n      dup8\n      dup1\n      extcodesize\n      iszero\n      dup1\n      iszero\n      tag_341\n      jumpi\n      0x00\n      dup1\n      revert\n    tag_341:\n      pop\n      gas\n      call\n      iszero\n      dup1\n      iszero\n      tag_343\n      jumpi\n      returndatasize\n      0x00\n      dup1\n      returndatacopy\n      revert(0x00, returndatasize)\n    tag_343:\n      pop\n      pop\n      pop\n      pop\n      mload(0x40)\n      returndatasize\n      not(0x1f)\n      0x1f\n      dup3\n      add\n      and\n      dup3\n      add\n      dup1\n      0x40\n      mstore\n      pop\n      dup2\n      add\n      swap1\n      tag_344\n      swap2\n      swap1\n      tag_301\n      jump\t// in\n    tag_344:\n      pop\n        /* \"contracts/mirrorseaMain.sol\":16692:16703  helperLogic */\n      sload(0x68)\n        /* \"contracts/mirrorseaMain.sol\":16667:16670  usc */\n      sload(0x67)\n        /* \"contracts/mirrorseaMain.sol\":16667:16710  usc.safeTransfer(address(helperLogic), fee) */\n      tag_345\n      swap2\n      sub(shl(0xa0, 0x01), 0x01)\n        /* \"contracts/mirrorseaMain.sol\":16667:16670  usc */\n      swap2\n      dup3\n      and\n      swap2\n        /* \"contracts/mirrorseaMain.sol\":16692:16703  helperLogic */\n      and\n        /* \"contracts/mirrorseaMain.sol\":16706:16709  fee */\n      dup7\n        /* \"contracts/mirrorseaMain.sol\":16667:16683  usc.safeTransfer */\n      tag_346\n        /* \"contracts/mirrorseaMain.sol\":16667:16710  usc.safeTransfer(address(helperLogic), fee) */\n      jump\t// in\n    tag_345:\n        /* \"contracts/mirrorseaMain.sol\":16720:16731  helperLogic */\n      0x68\n      0x00\n      swap1\n      sload\n      swap1\n      0x0100\n      exp\n      swap1\n      div\n      sub(shl(0xa0, 0x01), 0x01)\n      and\n      sub(shl(0xa0, 0x01), 0x01)\n        /* \"contracts/mirrorseaMain.sol\":16720:16746  helperLogic.jointExecution */\n      and\n      0xd10c06a2\n        /* \"contracts/mirrorseaMain.sol\":16720:16748  helperLogic.jointExecution() */\n      mload(0x40)\n      dup2\n      0xffffffff\n      and\n      0xe0\n      shl\n      dup2\n      mstore\n      0x04\n      add\n      0x20\n      mload(0x40)\n      dup1\n      dup4\n      sub\n      dup2\n      0x00\n      dup8\n      dup1\n      extcodesize\n      iszero\n      dup1\n      iszero\n      tag_347\n      jumpi\n      0x00\n      dup1\n      revert\n    tag_347:\n      pop\n      gas\n      call\n      iszero\n      dup1\n      iszero\n      tag_349\n      jumpi\n      returndatasize\n      0x00\n      dup1\n      returndatacopy\n      revert(0x00, returndatasize)\n    tag_349:\n      pop\n      pop\n      pop\n      pop\n      mload(0x40)\n      returndatasize\n      not(0x1f)\n      0x1f\n      dup3\n      add\n      and\n      dup3\n      add\n      dup1\n      0x40\n      mstore\n      pop\n      dup2\n      add\n      swap1\n      tag_350\n      swap2\n      swap1\n      tag_301\n      jump\t// in\n    tag_350:\n      pop\n        /* \"contracts/mirrorseaMain.sol\":16774:16796  _adjustMargin.sub(fee) */\n      tag_351\n        /* \"contracts/mirrorseaMain.sol\":16774:16787  _adjustMargin */\n      dup8\n        /* \"contracts/mirrorseaMain.sol\":16792:16795  fee */\n      dup6\n        /* \"contracts/mirrorseaMain.sol\":16774:16791  _adjustMargin.sub */\n      tag_192\n        /* \"contracts/mirrorseaMain.sol\":16774:16796  _adjustMargin.sub(fee) */\n      jump\t// in\n    tag_351:\n        /* \"contracts/mirrorseaMain.sol\":16759:16771  order.margin */\n      0x0a\n      dup7\n      add\n        /* \"contracts/mirrorseaMain.sol\":16759:16796  order.margin = _adjustMargin.sub(fee) */\n      sstore\n      pop\n      pop\n      pop\n      pop\n        /* \"contracts/mirrorseaMain.sol\":16806:16823  order.openPrice18 */\n      0x05\n      add\n        /* \"contracts/mirrorseaMain.sol\":16806:16834  order.openPrice18 = _price18 */\n      dup5\n      swap1\n      sstore\n      pop\n        /* \"contracts/mirrorseaMain.sol\":16851:16855  true */\n      0x01\n        /* \"contracts/mirrorseaMain.sol\":15124:16862  function adjustPosition(... */\n      swap8\n      swap7\n      pop\n      pop\n      pop\n      pop\n      pop\n      pop\n      pop\n      jump\t// out\n        /* \"contracts/mirrorseaMain.sol\":1787:1811  uint256 public PRECISION */\n    tag_131:\n      sload(0x73)\n      dup2\n      jump\t// out\n        /* \"contracts/mirrorseaMain.sol\":2830:2993  function myCloseOrderIdListLength(address _user)... */\n    tag_135:\n      sub(shl(0xa0, 0x01), 0x01)\n        /* \"contracts/mirrorseaMain.sol\":2954:2979  myCloseOrderIdList[_user] */\n      and\n        /* \"contracts/mirrorseaMain.sol\":2924:2931  uint256 */\n      0x00\n        /* \"contracts/mirrorseaMain.sol\":2954:2979  myCloseOrderIdList[_user] */\n      swap1\n      dup2\n      mstore\n        /* \"contracts/mirrorseaMain.sol\":2954:2972  myCloseOrderIdList */\n      0x70\n        /* \"contracts/mirrorseaMain.sol\":2954:2979  myCloseOrderIdList[_user] */\n      0x20\n      mstore\n      0x40\n      swap1\n      keccak256\n        /* \"contracts/mirrorseaMain.sol\":2954:2986  myCloseOrderIdList[_user].length */\n      sload\n      swap1\n        /* \"contracts/mirrorseaMain.sol\":2830:2993  function myCloseOrderIdListLength(address _user)... */\n      jump\t// out\n        /* \"contracts/mirrorseaMain.sol\":1448:1502  mapping(address => uint256[]) public myOpenOrderIdList */\n    tag_139:\n      mstore(0x20, 0x6e)\n      dup2\n      0x00\n      mstore\n      keccak256(0x00, 0x40)\n      dup2\n      dup2\n      sload\n      dup2\n      lt\n      tag_353\n      jumpi\n      0x00\n      dup1\n      revert\n    tag_353:\n      swap1\n      0x00\n      mstore\n      keccak256(0x00, 0x20)\n      add\n      0x00\n      swap2\n      pop\n      swap2\n      pop\n      pop\n      sload\n      dup2\n      jump\t// out\n        /* \"contracts/mirrorseaMain.sol\":5781:7632  function openPosition(... */\n    tag_144:\n        /* \"contracts/mirrorseaMain.sol\":6124:6134  OrderIndex */\n      sload(0x6b)\n        /* \"contracts/mirrorseaMain.sol\":6071:6075  bool */\n      0x00\n        /* \"contracts/mirrorseaMain.sol\":6113:6135  _orderInfo[OrderIndex] */\n      swap1\n      dup2\n      mstore\n        /* \"contracts/mirrorseaMain.sol\":6113:6123  _orderInfo */\n      0x6a\n        /* \"contracts/mirrorseaMain.sol\":6113:6135  _orderInfo[OrderIndex] */\n      0x20\n      mstore\n      0x40\n      dup2\n      keccak256\n        /* \"contracts/mirrorseaMain.sol\":6153:6165  _margin != 0 */\n      dup10\n        /* \"contracts/mirrorseaMain.sol\":6145:6184  require(_margin != 0, \"margin no good\") */\n      tag_356\n      jumpi\n      mload(0x40)\n      shl(0xe5, 0x461bcd)\n      dup2\n      mstore\n      0x04\n      add\n      tag_198\n      swap1\n      tag_358\n      jump\t// in\n    tag_356:\n        /* \"contracts/mirrorseaMain.sol\":6202:6213  order.state */\n      0x03\n      dup2\n      add\n      sload\n        /* \"contracts/mirrorseaMain.sol\":6202:6218  order.state == 0 */\n      iszero\n        /* \"contracts/mirrorseaMain.sol\":6194:6232  require(order.state == 0, \"state err\") */\n      tag_359\n      jumpi\n      mload(0x40)\n      shl(0xe5, 0x461bcd)\n      dup2\n      mstore\n      0x04\n      add\n      tag_198\n      swap1\n      tag_294\n      jump\t// in\n    tag_359:\n        /* \"contracts/mirrorseaMain.sol\":6263:6269  oracle */\n      sload(0x69)\n        /* \"contracts/mirrorseaMain.sol\":6263:6428  oracle.getkey(... */\n      mload(0x40)\n      shl(0xe1, 0x11cdc9d9)\n      dup2\n      mstore\n      sub(shl(0xa0, 0x01), 0x01)\n        /* \"contracts/mirrorseaMain.sol\":6263:6269  oracle */\n      swap1\n      swap2\n      and\n      swap1\n        /* \"contracts/mirrorseaMain.sol\":6263:6276  oracle.getkey */\n      0x239b93b2\n      swap1\n        /* \"contracts/mirrorseaMain.sol\":6263:6428  oracle.getkey(... */\n      tag_361\n      swap1\n        /* \"contracts/mirrorseaMain.sol\":6294:6306  _marketState */\n      dup15\n      swap1\n        /* \"contracts/mirrorseaMain.sol\":6324:6332  _price18 */\n      dup10\n      swap1\n        /* \"contracts/mirrorseaMain.sol\":6350:6360  _timestamp */\n      dup15\n      swap1\n        /* \"contracts/mirrorseaMain.sol\":6378:6386  _symbols */\n      dup13\n      swap1\n        /* \"contracts/mirrorseaMain.sol\":6404:6414  _signature */\n      dup11\n      swap1\n        /* \"contracts/mirrorseaMain.sol\":6263:6428  oracle.getkey(... */\n      0x04\n      add\n      tag_296\n      jump\t// in\n    tag_361:\n      0x20\n      mload(0x40)\n      dup1\n      dup4\n      sub\n      dup2\n      dup7\n      dup1\n      extcodesize\n      iszero\n      dup1\n      iszero\n      tag_362\n      jumpi\n      0x00\n      dup1\n      revert\n    tag_362:\n      pop\n      gas\n      staticcall\n      iszero\n      dup1\n      iszero\n      tag_364\n      jumpi\n      returndatasize\n      0x00\n      dup1\n      returndatacopy\n      revert(0x00, returndatasize)\n    tag_364:\n      pop\n      pop\n      pop\n      pop\n      mload(0x40)\n      returndatasize\n      not(0x1f)\n      0x1f\n      dup3\n      add\n      and\n      dup3\n      add\n      dup1\n      0x40\n      mstore\n      pop\n      dup2\n      add\n      swap1\n      tag_365\n      swap2\n      swap1\n      tag_301\n      jump\t// in\n    tag_365:\n        /* \"contracts/mirrorseaMain.sol\":6242:6464  require(... */\n      tag_366\n      jumpi\n      mload(0x40)\n      shl(0xe5, 0x461bcd)\n      dup2\n      mstore\n      0x04\n      add\n      tag_198\n      swap1\n      tag_304\n      jump\t// in\n    tag_366:\n        /* \"contracts/mirrorseaMain.sol\":6492:6498  minVal */\n      sload(0x74)\n        /* \"contracts/mirrorseaMain.sol\":6482:6489  _margin */\n      dup11\n        /* \"contracts/mirrorseaMain.sol\":6482:6498  _margin > minVal */\n      gt\n        /* \"contracts/mirrorseaMain.sol\":6474:6538  require(_margin > minVal, \"The transaction amount is too small\") */\n      tag_368\n      jumpi\n      mload(0x40)\n      shl(0xe5, 0x461bcd)\n      dup2\n      mstore\n      0x04\n      add\n      tag_198\n      swap1\n      tag_370\n      jump\t// in\n    tag_368:\n        /* \"contracts/mirrorseaMain.sol\":6549:6552  usc */\n      sload(0x67)\n        /* \"contracts/mirrorseaMain.sol\":6549:6605  usc.safeTransferFrom(msg.sender, address(this), _margin) */\n      tag_371\n      swap1\n      sub(shl(0xa0, 0x01), 0x01)\n        /* \"contracts/mirrorseaMain.sol\":6549:6552  usc */\n      and\n        /* \"contracts/mirrorseaMain.sol\":6570:6580  msg.sender */\n      caller\n        /* \"contracts/mirrorseaMain.sol\":6590:6594  this */\n      address\n        /* \"contracts/mirrorseaMain.sol\":6597:6604  _margin */\n      dup14\n        /* \"contracts/mirrorseaMain.sol\":6549:6569  usc.safeTransferFrom */\n      tag_326\n        /* \"contracts/mirrorseaMain.sol\":6549:6605  usc.safeTransferFrom(msg.sender, address(this), _margin) */\n      jump\t// in\n    tag_371:\n        /* \"contracts/mirrorseaMain.sol\":6638:6641  usc */\n      sload(0x67)\n        /* \"contracts/mirrorseaMain.sol\":6638:6666  usc.balanceOf(address(this)) */\n      mload(0x40)\n      shl(0xe0, 0x70a08231)\n      dup2\n      mstore\n        /* \"contracts/mirrorseaMain.sol\":6615:6635  uint256 uscBalanceOf */\n      0x00\n      swap2\n      sub(shl(0xa0, 0x01), 0x01)\n        /* \"contracts/mirrorseaMain.sol\":6638:6641  usc */\n      and\n      swap1\n        /* \"contracts/mirrorseaMain.sol\":6638:6651  usc.balanceOf */\n      0x70a08231\n      swap1\n        /* \"contracts/mirrorseaMain.sol\":6638:6666  usc.balanceOf(address(this)) */\n      tag_372\n      swap1\n        /* \"contracts/mirrorseaMain.sol\":6660:6664  this */\n      address\n      swap1\n        /* \"contracts/mirrorseaMain.sol\":6638:6666  usc.balanceOf(address(this)) */\n      0x04\n      add\n      tag_67\n      jump\t// in\n    tag_372:\n      0x20\n      mload(0x40)\n      dup1\n      dup4\n      sub\n      dup2\n      dup7\n      dup1\n      extcodesize\n      iszero\n      dup1\n      iszero\n      tag_373\n      jumpi\n      0x00\n      dup1\n      revert\n    tag_373:\n      pop\n      gas\n      staticcall\n      iszero\n      dup1\n      iszero\n      tag_375\n      jumpi\n      returndatasize\n      0x00\n      dup1\n      returndatacopy\n      revert(0x00, returndatasize)\n    tag_375:\n      pop\n      pop\n      pop\n      pop\n      mload(0x40)\n      returndatasize\n      not(0x1f)\n      0x1f\n      dup3\n      add\n      and\n      dup3\n      add\n      dup1\n      0x40\n      mstore\n      pop\n      dup2\n      add\n      swap1\n      tag_376\n      swap2\n      swap1\n      tag_377\n      jump\t// in\n    tag_376:\n        /* \"contracts/mirrorseaMain.sol\":6615:6666  uint256 uscBalanceOf = usc.balanceOf(address(this)) */\n      swap1\n      pop\n        /* \"contracts/mirrorseaMain.sol\":6676:6687  uint256 fee */\n      0x00\n        /* \"contracts/mirrorseaMain.sol\":6690:6733  uscBalanceOf.mul(feePercent).div(PRECISION) */\n      tag_378\n        /* \"contracts/mirrorseaMain.sol\":6723:6732  PRECISION */\n      sload(0x73)\n        /* \"contracts/mirrorseaMain.sol\":6690:6718  uscBalanceOf.mul(feePercent) */\n      tag_311\n        /* \"contracts/mirrorseaMain.sol\":6707:6717  feePercent */\n      sload(0x72)\n        /* \"contracts/mirrorseaMain.sol\":6690:6702  uscBalanceOf */\n      dup6\n        /* \"contracts/mirrorseaMain.sol\":6690:6706  uscBalanceOf.mul */\n      tag_191\n      swap1\n        /* \"contracts/mirrorseaMain.sol\":6690:6718  uscBalanceOf.mul(feePercent) */\n      swap2\n      swap1\n      0xffffffff\n      and\n      jump\t// in\n        /* \"contracts/mirrorseaMain.sol\":6690:6733  uscBalanceOf.mul(feePercent).div(PRECISION) */\n    tag_378:\n        /* \"contracts/mirrorseaMain.sol\":6768:6779  helperLogic */\n      sload(0x68)\n        /* \"contracts/mirrorseaMain.sol\":6743:6746  usc */\n      sload(0x67)\n        /* \"contracts/mirrorseaMain.sol\":6676:6733  uint256 fee = uscBalanceOf.mul(feePercent).div(PRECISION) */\n      swap2\n      swap3\n      pop\n        /* \"contracts/mirrorseaMain.sol\":6743:6786  usc.safeTransfer(address(helperLogic), fee) */\n      tag_380\n      swap2\n      sub(shl(0xa0, 0x01), 0x01)\n        /* \"contracts/mirrorseaMain.sol\":6743:6746  usc */\n      swap1\n      dup2\n      and\n      swap2\n        /* \"contracts/mirrorseaMain.sol\":6768:6779  helperLogic */\n      and\n        /* \"contracts/mirrorseaMain.sol\":6676:6733  uint256 fee = uscBalanceOf.mul(feePercent).div(PRECISION) */\n      dup4\n        /* \"contracts/mirrorseaMain.sol\":6743:6759  usc.safeTransfer */\n      tag_346\n        /* \"contracts/mirrorseaMain.sol\":6743:6786  usc.safeTransfer(address(helperLogic), fee) */\n      jump\t// in\n    tag_380:\n        /* \"contracts/mirrorseaMain.sol\":6796:6807  helperLogic */\n      0x68\n      0x00\n      swap1\n      sload\n      swap1\n      0x0100\n      exp\n      swap1\n      div\n      sub(shl(0xa0, 0x01), 0x01)\n      and\n      sub(shl(0xa0, 0x01), 0x01)\n        /* \"contracts/mirrorseaMain.sol\":6796:6822  helperLogic.jointExecution */\n      and\n      0xd10c06a2\n        /* \"contracts/mirrorseaMain.sol\":6796:6824  helperLogic.jointExecution() */\n      mload(0x40)\n      dup2\n      0xffffffff\n      and\n      0xe0\n      shl\n      dup2\n      mstore\n      0x04\n      add\n      0x20\n      mload(0x40)\n      dup1\n      dup4\n      sub\n      dup2\n      0x00\n      dup8\n      dup1\n      extcodesize\n      iszero\n      dup1\n      iszero\n      tag_381\n      jumpi\n      0x00\n      dup1\n      revert\n    tag_381:\n      pop\n      gas\n      call\n      iszero\n      dup1\n      iszero\n      tag_383\n      jumpi\n      returndatasize\n      0x00\n      dup1\n      returndatacopy\n      revert(0x00, returndatasize)\n    tag_383:\n      pop\n      pop\n      pop\n      pop\n      mload(0x40)\n      returndatasize\n      not(0x1f)\n      0x1f\n      dup3\n      add\n      and\n      dup3\n      add\n      dup1\n      0x40\n      mstore\n      pop\n      dup2\n      add\n      swap1\n      tag_384\n      swap2\n      swap1\n      tag_301\n      jump\t// in\n    tag_384:\n      pop\n        /* \"contracts/mirrorseaMain.sol\":6847:6850  usc */\n      and(sub(shl(0xa0, 0x01), 0x01), sload(0x67))\n        /* \"contracts/mirrorseaMain.sol\":6834:6857  IUSC(address(usc)).burn */\n      0x42966c68\n        /* \"contracts/mirrorseaMain.sol\":6858:6879  uscBalanceOf.sub(fee) */\n      tag_385\n        /* \"contracts/mirrorseaMain.sol\":6858:6870  uscBalanceOf */\n      dup5\n        /* \"contracts/mirrorseaMain.sol\":6875:6878  fee */\n      dup5\n        /* \"contracts/mirrorseaMain.sol\":6858:6874  uscBalanceOf.sub */\n      tag_192\n        /* \"contracts/mirrorseaMain.sol\":6858:6879  uscBalanceOf.sub(fee) */\n      jump\t// in\n    tag_385:\n        /* \"contracts/mirrorseaMain.sol\":6834:6880  IUSC(address(usc)).burn(uscBalanceOf.sub(fee)) */\n      mload(0x40)\n      dup3\n      0xffffffff\n      and\n      0xe0\n      shl\n      dup2\n      mstore\n      0x04\n      add\n      tag_386\n      swap2\n      swap1\n      tag_53\n      jump\t// in\n    tag_386:\n      0x00\n      mload(0x40)\n      dup1\n      dup4\n      sub\n      dup2\n      0x00\n      dup8\n      dup1\n      extcodesize\n      iszero\n      dup1\n      iszero\n      tag_387\n      jumpi\n      0x00\n      dup1\n      revert\n    tag_387:\n      pop\n      gas\n      call\n      iszero\n      dup1\n      iszero\n      tag_389\n      jumpi\n      returndatasize\n      0x00\n      dup1\n      returndatacopy\n      revert(0x00, returndatasize)\n    tag_389:\n      pop\n      pop\n        /* \"contracts/mirrorseaMain.sol\":6912:6922  OrderIndex */\n      sload(0x6b)\n        /* \"contracts/mirrorseaMain.sol\":6891:6906  openOrderIdList */\n      0x6c\n        /* \"contracts/mirrorseaMain.sol\":6891:6923  openOrderIdList.push(OrderIndex) */\n      dup1\n      sload\n      0x01\n      dup2\n      dup2\n      add\n      dup4\n      sstore\n      0x00\n      dup4\n      swap1\n      mstore\n      0x2b4a51ab505fc96a0952efda2ba61bcd3078d4c02c39a186ec16f21883fbe016\n      swap1\n      swap2\n      add\n      swap3\n      swap1\n      swap3\n      sstore\n        /* \"contracts/mirrorseaMain.sol\":6969:6991  openOrderIdList.length */\n      sload\n        /* \"contracts/mirrorseaMain.sol\":6969:6998  openOrderIdList.length.sub(1) */\n      tag_391\n      swap4\n      pop\n        /* \"contracts/mirrorseaMain.sol\":6969:6991  openOrderIdList.length */\n      swap2\n      pop\n        /* \"contracts/mirrorseaMain.sol\":6969:6995  openOrderIdList.length.sub */\n      tag_192\n        /* \"contracts/mirrorseaMain.sol\":6969:6998  openOrderIdList.length.sub(1) */\n      jump\t// in\n    tag_391:\n        /* \"contracts/mirrorseaMain.sol\":6955:6965  OrderIndex */\n      0x6b\n      dup1\n      sload\n        /* \"contracts/mirrorseaMain.sol\":6933:6966  openOrderIdList_index[OrderIndex] */\n      0x00\n      swap1\n      dup2\n      mstore\n        /* \"contracts/mirrorseaMain.sol\":6933:6954  openOrderIdList_index */\n      0x6d\n        /* \"contracts/mirrorseaMain.sol\":6933:6966  openOrderIdList_index[OrderIndex] */\n      0x20\n      swap1\n      dup2\n      mstore\n      0x40\n      dup1\n      dup4\n      keccak256\n        /* \"contracts/mirrorseaMain.sol\":6933:6998  openOrderIdList_index[OrderIndex] = openOrderIdList.length.sub(1) */\n      swap5\n      swap1\n      swap5\n      sstore\n        /* \"contracts/mirrorseaMain.sol\":7027:7037  msg.sender */\n      caller\n        /* \"contracts/mirrorseaMain.sol\":7009:7038  myOpenOrderIdList[msg.sender] */\n      dup1\n      dup4\n      mstore\n        /* \"contracts/mirrorseaMain.sol\":7009:7026  myOpenOrderIdList */\n      0x6e\n        /* \"contracts/mirrorseaMain.sol\":7009:7038  myOpenOrderIdList[msg.sender] */\n      dup1\n      dup4\n      mstore\n      dup6\n      dup5\n      keccak256\n        /* \"contracts/mirrorseaMain.sol\":7044:7054  OrderIndex */\n      dup6\n      sload\n        /* \"contracts/mirrorseaMain.sol\":7009:7055  myOpenOrderIdList[msg.sender].push(OrderIndex) */\n      dup2\n      sload\n      0x01\n      dup2\n      dup2\n      add\n      dup5\n      sstore\n      dup4\n      dup9\n      mstore\n      dup7\n      dup9\n      keccak256\n      swap1\n      swap2\n      add\n      swap2\n      swap1\n      swap2\n      sstore\n        /* \"contracts/mirrorseaMain.sol\":7170:7180  OrderIndex */\n      swap6\n      sload\n        /* \"contracts/mirrorseaMain.sol\":7065:7100  myOpenOrderIdList_index[msg.sender] */\n      swap3\n      dup6\n      mstore\n        /* \"contracts/mirrorseaMain.sol\":7065:7088  myOpenOrderIdList_index */\n      0x6f\n        /* \"contracts/mirrorseaMain.sol\":7065:7100  myOpenOrderIdList_index[msg.sender] */\n      dup5\n      mstore\n      swap6\n      dup5\n      keccak256\n        /* \"contracts/mirrorseaMain.sol\":7114:7143  myOpenOrderIdList[msg.sender] */\n      swap3\n      mstore\n        /* \"contracts/mirrorseaMain.sol\":7114:7150  myOpenOrderIdList[msg.sender].length */\n      swap4\n      sload\n        /* \"contracts/mirrorseaMain.sol\":7065:7100  myOpenOrderIdList_index[msg.sender] */\n      swap1\n      swap3\n        /* \"contracts/mirrorseaMain.sol\":7114:7157  myOpenOrderIdList[msg.sender].length.sub(1) */\n      tag_393\n      swap2\n        /* \"contracts/mirrorseaMain.sol\":7114:7150  myOpenOrderIdList[msg.sender].length */\n      swap1\n        /* \"contracts/mirrorseaMain.sol\":7114:7154  myOpenOrderIdList[msg.sender].length.sub */\n      tag_192\n        /* \"contracts/mirrorseaMain.sol\":7114:7157  myOpenOrderIdList[msg.sender].length.sub(1) */\n      jump\t// in\n    tag_393:\n        /* \"contracts/mirrorseaMain.sol\":7065:7167  myOpenOrderIdList_index[msg.sender][... */\n      dup2\n      mstore\n      0x20\n      add\n      swap1\n      dup2\n      mstore\n      0x20\n      add\n      0x00\n      keccak256\n        /* \"contracts/mirrorseaMain.sol\":7065:7180  myOpenOrderIdList_index[msg.sender][... */\n      dup2\n      swap1\n      sstore\n      pop\n        /* \"contracts/mirrorseaMain.sol\":7191:7201  OrderIndex */\n      0x6b\n      0x00\n        /* \"contracts/mirrorseaMain.sol\":7191:7203  OrderIndex++ */\n      dup2\n      sload\n      dup1\n      swap3\n      swap2\n      swap1\n      tag_394\n      swap1\n      tag_213\n      jump\t// in\n    tag_394:\n      swap1\n      swap2\n      sstore\n      pop\n      pop\n        /* \"contracts/mirrorseaMain.sol\":7214:7237  order.user = msg.sender */\n      dup3\n      sload\n      not(sub(shl(0xa0, 0x01), 0x01))\n      and\n        /* \"contracts/mirrorseaMain.sol\":7227:7237  msg.sender */\n      caller\n        /* \"contracts/mirrorseaMain.sol\":7214:7237  order.user = msg.sender */\n      or\n      dup4\n      sstore\n      0x01\n        /* \"contracts/mirrorseaMain.sol\":7247:7258  order._type */\n      dup4\n      add\n        /* \"contracts/mirrorseaMain.sol\":7247:7266  order._type = _type */\n      dup10\n      swap1\n      sstore\n        /* \"contracts/mirrorseaMain.sol\":7276:7300  order.symbols = _symbols */\n      dup8\n      mload\n      tag_395\n      swap1\n        /* \"contracts/mirrorseaMain.sol\":7276:7289  order.symbols */\n      0x02\n      dup6\n      add\n      swap1\n        /* \"contracts/mirrorseaMain.sol\":7276:7300  order.symbols = _symbols */\n      0x20\n      dup12\n      add\n      swap1\n      tag_396\n      jump\t// in\n    tag_395:\n      pop\n        /* \"contracts/mirrorseaMain.sol\":7324:7325  1 */\n      0x01\n        /* \"contracts/mirrorseaMain.sol\":7310:7321  order.state */\n      0x03\n      dup5\n      add\n        /* \"contracts/mirrorseaMain.sol\":7310:7325  order.state = 1 */\n      sstore\n        /* \"contracts/mirrorseaMain.sol\":7411:7426  order.direction */\n      0x04\n      dup4\n      add\n        /* \"contracts/mirrorseaMain.sol\":7411:7439  order.direction = _direction */\n      dup11\n      swap1\n      sstore\n        /* \"contracts/mirrorseaMain.sol\":7466:7483  order.openPrice18 */\n      0x05\n      dup4\n      add\n        /* \"contracts/mirrorseaMain.sol\":7466:7494  order.openPrice18 = _price18 */\n      dup8\n      swap1\n      sstore\n        /* \"contracts/mirrorseaMain.sol\":7504:7518  order.openTime */\n      0x06\n      dup4\n      add\n        /* \"contracts/mirrorseaMain.sol\":7504:7531  order.openTime = _timestamp */\n      dup12\n      swap1\n      sstore\n        /* \"contracts/mirrorseaMain.sol\":7541:7550  order.amt */\n      0x09\n      dup4\n      add\n        /* \"contracts/mirrorseaMain.sol\":7541:7557  order.amt = _amt */\n      dup7\n      swap1\n      sstore\n        /* \"contracts/mirrorseaMain.sol\":7582:7603  uscBalanceOf.sub(fee) */\n      tag_397\n        /* \"contracts/mirrorseaMain.sol\":7582:7594  uscBalanceOf */\n      dup3\n        /* \"contracts/mirrorseaMain.sol\":7599:7602  fee */\n      dup3\n        /* \"contracts/mirrorseaMain.sol\":7582:7598  uscBalanceOf.sub */\n      tag_192\n        /* \"contracts/mirrorseaMain.sol\":7582:7603  uscBalanceOf.sub(fee) */\n      jump\t// in\n    tag_397:\n        /* \"contracts/mirrorseaMain.sol\":7567:7579  order.margin */\n      0x0a\n      swap1\n      swap4\n      add\n        /* \"contracts/mirrorseaMain.sol\":7567:7603  order.margin = uscBalanceOf.sub(fee) */\n      swap3\n      swap1\n      swap3\n      sstore\n      pop\n        /* \"contracts/mirrorseaMain.sol\":7621:7625  true */\n      0x01\n      swap12\n        /* \"contracts/mirrorseaMain.sol\":5781:7632  function openPosition(... */\n      swap11\n      pop\n      pop\n      pop\n      pop\n      pop\n      pop\n      pop\n      pop\n      pop\n      pop\n      pop\n      jump\t// out\n        /* \"contracts/mirrorseaMain.sol\":2663:2824  function myOpenOrderIdListLength(address _user)... */\n    tag_148:\n      sub(shl(0xa0, 0x01), 0x01)\n        /* \"contracts/mirrorseaMain.sol\":2786:2810  myOpenOrderIdList[_user] */\n      and\n        /* \"contracts/mirrorseaMain.sol\":2756:2763  uint256 */\n      0x00\n        /* \"contracts/mirrorseaMain.sol\":2786:2810  myOpenOrderIdList[_user] */\n      swap1\n      dup2\n      mstore\n        /* \"contracts/mirrorseaMain.sol\":2786:2803  myOpenOrderIdList */\n      0x6e\n        /* \"contracts/mirrorseaMain.sol\":2786:2810  myOpenOrderIdList[_user] */\n      0x20\n      mstore\n      0x40\n      swap1\n      keccak256\n        /* \"contracts/mirrorseaMain.sol\":2786:2817  myOpenOrderIdList[_user].length */\n      sload\n      swap1\n        /* \"contracts/mirrorseaMain.sol\":2663:2824  function myOpenOrderIdListLength(address _user)... */\n      jump\t// out\n        /* \"contracts/mirrorseaMain.sol\":1601:1656  mapping(address => uint256[]) public myCloseOrderIdList */\n    tag_152:\n      mstore(0x20, 0x70)\n      dup2\n      0x00\n      mstore\n      keccak256(0x00, 0x40)\n      dup2\n      dup2\n      sload\n      dup2\n      lt\n      tag_353\n      jumpi\n      0x00\n      dup1\n      revert\n        /* \"contracts/mirrorseaMain.sol\":1662:1749  mapping(address => mapping(uint256 => uint256))... */\n    tag_156:\n      0x71\n      0x20\n      swap1\n      dup2\n      mstore\n      0x00\n      swap3\n      dup4\n      mstore\n      0x40\n      dup1\n      dup5\n      keccak256\n      swap1\n      swap2\n      mstore\n      swap1\n      dup3\n      mstore\n      swap1\n      keccak256\n      sload\n      dup2\n      jump\t// out\n        /* \"contracts/mirrorseaMain.sol\":1818:1839  uint256 public minVal */\n    tag_159:\n      sload(0x74)\n      dup2\n      jump\t// out\n        /* \"@openzeppelin/contracts-upgradeable/access/OwnableUpgradeable.sol\":2184:2382  function transferOwnership(address newOwner) public virtual onlyOwner {... */\n    tag_163:\n        /* \"@openzeppelin/contracts-upgradeable/access/OwnableUpgradeable.sol\":1525:1537  _msgSender() */\n      tag_402\n        /* \"@openzeppelin/contracts-upgradeable/access/OwnableUpgradeable.sol\":1525:1535  _msgSender */\n      tag_220\n        /* \"@openzeppelin/contracts-upgradeable/access/OwnableUpgradeable.sol\":1525:1537  _msgSender() */\n      jump\t// in\n    tag_402:\n      sub(shl(0xa0, 0x01), 0x01)\n        /* \"@openzeppelin/contracts-upgradeable/access/OwnableUpgradeable.sol\":1514:1537  owner() == _msgSender() */\n      and\n        /* \"@openzeppelin/contracts-upgradeable/access/OwnableUpgradeable.sol\":1514:1521  owner() */\n      tag_403\n        /* \"@openzeppelin/contracts-upgradeable/access/OwnableUpgradeable.sol\":1514:1519  owner */\n      tag_119\n        /* \"@openzeppelin/contracts-upgradeable/access/OwnableUpgradeable.sol\":1514:1521  owner() */\n      jump\t// in\n    tag_403:\n      sub(shl(0xa0, 0x01), 0x01)\n        /* \"@openzeppelin/contracts-upgradeable/access/OwnableUpgradeable.sol\":1514:1537  owner() == _msgSender() */\n      and\n      eq\n        /* \"@openzeppelin/contracts-upgradeable/access/OwnableUpgradeable.sol\":1506:1574  require(owner() == _msgSender(), \"Ownable: caller is not the owner\") */\n      tag_404\n      jumpi\n      mload(0x40)\n      shl(0xe5, 0x461bcd)\n      dup2\n      mstore\n      0x04\n      add\n      tag_198\n      swap1\n      tag_224\n      jump\t// in\n    tag_404:\n      sub(shl(0xa0, 0x01), 0x01)\n        /* \"@openzeppelin/contracts-upgradeable/access/OwnableUpgradeable.sol\":2272:2294  newOwner != address(0) */\n      dup2\n      and\n        /* \"@openzeppelin/contracts-upgradeable/access/OwnableUpgradeable.sol\":2264:2337  require(newOwner != address(0), \"Ownable: new owner is the zero address\") */\n      tag_407\n      jumpi\n      mload(0x40)\n      shl(0xe5, 0x461bcd)\n      dup2\n      mstore\n      0x04\n      add\n      tag_198\n      swap1\n      tag_409\n      jump\t// in\n    tag_407:\n        /* \"@openzeppelin/contracts-upgradeable/access/OwnableUpgradeable.sol\":2347:2375  _transferOwnership(newOwner) */\n      tag_410\n        /* \"@openzeppelin/contracts-upgradeable/access/OwnableUpgradeable.sol\":2366:2374  newOwner */\n      dup2\n        /* \"@openzeppelin/contracts-upgradeable/access/OwnableUpgradeable.sol\":2347:2365  _transferOwnership */\n      tag_275\n        /* \"@openzeppelin/contracts-upgradeable/access/OwnableUpgradeable.sol\":2347:2375  _transferOwnership(newOwner) */\n      jump\t// in\n    tag_410:\n        /* \"@openzeppelin/contracts-upgradeable/access/OwnableUpgradeable.sol\":2184:2382  function transferOwnership(address newOwner) public virtual onlyOwner {... */\n      pop\n      jump\t// out\n        /* \"contracts/mirrorseaMain.sol\":1315:1340  uint256 public OrderIndex */\n    tag_165:\n      sload(0x6b)\n      dup2\n      jump\t// out\n        /* \"contracts/mirrorseaMain.sol\":2277:2657  function initialize(... */\n    tag_170:\n        /* \"@openzeppelin/contracts-upgradeable/proxy/utils/Initializable.sol\":539:552  _initializing */\n      sload(0x00)\n      0x0100\n      swap1\n      div\n      0xff\n      and\n      dup1\n        /* \"@openzeppelin/contracts-upgradeable/proxy/utils/Initializable.sol\":539:569  _initializing || !_initialized */\n      tag_412\n      jumpi\n      pop\n        /* \"@openzeppelin/contracts-upgradeable/proxy/utils/Initializable.sol\":557:569  _initialized */\n      and(0xff, sload(0x00))\n        /* \"@openzeppelin/contracts-upgradeable/proxy/utils/Initializable.sol\":556:569  !_initialized */\n      iszero\n        /* \"@openzeppelin/contracts-upgradeable/proxy/utils/Initializable.sol\":539:569  _initializing || !_initialized */\n    tag_412:\n        /* \"@openzeppelin/contracts-upgradeable/proxy/utils/Initializable.sol\":531:620  require(_initializing || !_initialized, \"Initializable: contract is already initialized\") */\n      tag_413\n      jumpi\n      mload(0x40)\n      shl(0xe5, 0x461bcd)\n      dup2\n      mstore\n      0x04\n      add\n      tag_198\n      swap1\n      tag_415\n      jump\t// in\n    tag_413:\n        /* \"@openzeppelin/contracts-upgradeable/proxy/utils/Initializable.sol\":631:650  bool isTopLevelCall */\n      0x00\n        /* \"@openzeppelin/contracts-upgradeable/proxy/utils/Initializable.sol\":654:667  _initializing */\n      sload\n      0x0100\n      swap1\n      div\n      0xff\n      and\n        /* \"@openzeppelin/contracts-upgradeable/proxy/utils/Initializable.sol\":653:667  !_initializing */\n      iszero\n        /* \"@openzeppelin/contracts-upgradeable/proxy/utils/Initializable.sol\":677:775  if (isTopLevelCall) {... */\n      dup1\n      iszero\n      tag_416\n      jumpi\n        /* \"@openzeppelin/contracts-upgradeable/proxy/utils/Initializable.sol\":711:724  _initializing */\n      0x00\n        /* \"@openzeppelin/contracts-upgradeable/proxy/utils/Initializable.sol\":711:731  _initializing = true */\n      dup1\n      sload\n      not(0xff)\n      not(0xff00)\n      swap1\n      swap2\n      and\n      0x0100\n      or\n        /* \"@openzeppelin/contracts-upgradeable/proxy/utils/Initializable.sol\":745:764  _initialized = true */\n      and\n        /* \"@openzeppelin/contracts-upgradeable/proxy/utils/Initializable.sol\":727:731  true */\n      0x01\n        /* \"@openzeppelin/contracts-upgradeable/proxy/utils/Initializable.sol\":745:764  _initialized = true */\n      or\n      swap1\n      sstore\n        /* \"@openzeppelin/contracts-upgradeable/proxy/utils/Initializable.sol\":677:775  if (isTopLevelCall) {... */\n    tag_416:\n        /* \"contracts/mirrorseaMain.sol\":2451:2467  __Ownable_init() */\n      tag_418\n        /* \"contracts/mirrorseaMain.sol\":2451:2465  __Ownable_init */\n      tag_419\n        /* \"contracts/mirrorseaMain.sol\":2451:2467  __Ownable_init() */\n      jump\t// in\n    tag_418:\n        /* \"contracts/mirrorseaMain.sol\":2477:2483  signer */\n      0x66\n        /* \"contracts/mirrorseaMain.sol\":2477:2493  signer = _signer */\n      dup1\n      sload\n      sub(shl(0xa0, 0x01), 0x01)\n      dup1\n      dup9\n      and\n      not(sub(shl(0xa0, 0x01), 0x01))\n      swap3\n      dup4\n      and\n      or\n      swap1\n      swap3\n      sstore\n        /* \"contracts/mirrorseaMain.sol\":2503:2514  helperLogic */\n      0x68\n        /* \"contracts/mirrorseaMain.sol\":2503:2529  helperLogic = _helperLogic */\n      dup1\n      sload\n      dup8\n      dup5\n      and\n      swap1\n      dup4\n      and\n      or\n      swap1\n      sstore\n        /* \"contracts/mirrorseaMain.sol\":2539:2542  usc */\n      0x67\n        /* \"contracts/mirrorseaMain.sol\":2539:2549  usc = _usc */\n      dup1\n      sload\n      dup7\n      dup5\n      and\n      swap1\n      dup4\n      and\n      or\n      swap1\n      sstore\n        /* \"contracts/mirrorseaMain.sol\":2571:2576  10000 */\n      0x2710\n        /* \"contracts/mirrorseaMain.sol\":2559:2568  PRECISION */\n      0x73\n        /* \"contracts/mirrorseaMain.sol\":2559:2576  PRECISION = 10000 */\n      sstore\n        /* \"contracts/mirrorseaMain.sol\":2586:2592  oracle */\n      0x69\n        /* \"contracts/mirrorseaMain.sol\":2586:2602  oracle = _oracle */\n      dup1\n      sload\n      swap3\n      dup6\n      and\n      swap3\n      swap1\n      swap2\n      and\n      swap2\n      swap1\n      swap2\n      or\n      swap1\n      sstore\n        /* \"contracts/mirrorseaMain.sol\":2621:2625  1e18 */\n      0x0de0b6b3a7640000\n        /* \"contracts/mirrorseaMain.sol\":2612:2618  minVal */\n      0x74\n        /* \"contracts/mirrorseaMain.sol\":2612:2625  minVal = 1e18 */\n      sstore\n        /* \"contracts/mirrorseaMain.sol\":2648:2650  50 */\n      0x32\n        /* \"contracts/mirrorseaMain.sol\":2635:2645  feePercent */\n      0x72\n        /* \"contracts/mirrorseaMain.sol\":2635:2650  feePercent = 50 */\n      sstore\n        /* \"@openzeppelin/contracts-upgradeable/proxy/utils/Initializable.sol\":797:863  if (isTopLevelCall) {... */\n      dup1\n      iszero\n      tag_420\n      jumpi\n        /* \"@openzeppelin/contracts-upgradeable/proxy/utils/Initializable.sol\":847:852  false */\n      0x00\n        /* \"@openzeppelin/contracts-upgradeable/proxy/utils/Initializable.sol\":831:852  _initializing = false */\n      dup1\n      sload\n      not(0xff00)\n      and\n      swap1\n      sstore\n        /* \"@openzeppelin/contracts-upgradeable/proxy/utils/Initializable.sol\":797:863  if (isTopLevelCall) {... */\n    tag_420:\n        /* \"contracts/mirrorseaMain.sol\":2277:2657  function initialize(... */\n      pop\n      pop\n      pop\n      pop\n      pop\n      jump\t// out\n        /* \"contracts/mirrorseaMain.sol\":3721:4496  function setOrderInfo(... */\n    tag_174:\n        /* \"contracts/mirrorseaMain.sol\":4080:4084  bool */\n      0x00\n        /* \"@openzeppelin/contracts-upgradeable/access/OwnableUpgradeable.sol\":1525:1537  _msgSender() */\n      tag_422\n        /* \"@openzeppelin/contracts-upgradeable/access/OwnableUpgradeable.sol\":1525:1535  _msgSender */\n      tag_220\n        /* \"@openzeppelin/contracts-upgradeable/access/OwnableUpgradeable.sol\":1525:1537  _msgSender() */\n      jump\t// in\n    tag_422:\n      sub(shl(0xa0, 0x01), 0x01)\n        /* \"@openzeppelin/contracts-upgradeable/access/OwnableUpgradeable.sol\":1514:1537  owner() == _msgSender() */\n      and\n        /* \"@openzeppelin/contracts-upgradeable/access/OwnableUpgradeable.sol\":1514:1521  owner() */\n      tag_423\n        /* \"@openzeppelin/contracts-upgradeable/access/OwnableUpgradeable.sol\":1514:1519  owner */\n      tag_119\n        /* \"@openzeppelin/contracts-upgradeable/access/OwnableUpgradeable.sol\":1514:1521  owner() */\n      jump\t// in\n    tag_423:\n      sub(shl(0xa0, 0x01), 0x01)\n        /* \"@openzeppelin/contracts-upgradeable/access/OwnableUpgradeable.sol\":1514:1537  owner() == _msgSender() */\n      and\n      eq\n        /* \"@openzeppelin/contracts-upgradeable/access/OwnableUpgradeable.sol\":1506:1574  require(owner() == _msgSender(), \"Ownable: caller is not the owner\") */\n      tag_424\n      jumpi\n      mload(0x40)\n      shl(0xe5, 0x461bcd)\n      dup2\n      mstore\n      0x04\n      add\n      tag_198\n      swap1\n      tag_224\n      jump\t// in\n    tag_424:\n        /* \"contracts/mirrorseaMain.sol\":4113:4468  OrderInfo({... */\n      mload(0x40)\n      dup1\n      0x0160\n      add\n      0x40\n      mstore\n      dup1\n        /* \"contracts/mirrorseaMain.sol\":4143:4147  user */\n      dup14\n      sub(shl(0xa0, 0x01), 0x01)\n        /* \"contracts/mirrorseaMain.sol\":4113:4468  OrderInfo({... */\n      and\n      dup2\n      mstore\n      0x20\n      add\n        /* \"contracts/mirrorseaMain.sol\":4168:4173  _type */\n      dup13\n        /* \"contracts/mirrorseaMain.sol\":4113:4468  OrderInfo({... */\n      dup2\n      mstore\n      0x20\n      add\n        /* \"contracts/mirrorseaMain.sol\":4196:4203  symbols */\n      dup12\n        /* \"contracts/mirrorseaMain.sol\":4113:4468  OrderInfo({... */\n      dup2\n      mstore\n      0x20\n      add\n        /* \"contracts/mirrorseaMain.sol\":4224:4229  state */\n      dup11\n        /* \"contracts/mirrorseaMain.sol\":4113:4468  OrderInfo({... */\n      dup2\n      mstore\n      0x20\n      add\n        /* \"contracts/mirrorseaMain.sol\":4254:4263  direction */\n      dup10\n        /* \"contracts/mirrorseaMain.sol\":4113:4468  OrderInfo({... */\n      dup2\n      mstore\n      0x20\n      add\n        /* \"contracts/mirrorseaMain.sol\":4290:4301  openPrice18 */\n      dup9\n        /* \"contracts/mirrorseaMain.sol\":4113:4468  OrderInfo({... */\n      dup2\n      mstore\n      0x20\n      add\n        /* \"contracts/mirrorseaMain.sol\":4325:4333  openTime */\n      dup8\n        /* \"contracts/mirrorseaMain.sol\":4113:4468  OrderInfo({... */\n      dup2\n      mstore\n      0x20\n      add\n        /* \"contracts/mirrorseaMain.sol\":4361:4373  closePrice18 */\n      dup7\n        /* \"contracts/mirrorseaMain.sol\":4113:4468  OrderInfo({... */\n      dup2\n      mstore\n      0x20\n      add\n        /* \"contracts/mirrorseaMain.sol\":4398:4407  closeTime */\n      dup6\n        /* \"contracts/mirrorseaMain.sol\":4113:4468  OrderInfo({... */\n      dup2\n      mstore\n      0x20\n      add\n        /* \"contracts/mirrorseaMain.sol\":4426:4429  amt */\n      dup5\n        /* \"contracts/mirrorseaMain.sol\":4113:4468  OrderInfo({... */\n      dup2\n      mstore\n      0x20\n      add\n        /* \"contracts/mirrorseaMain.sol\":4451:4457  margin */\n      dup4\n        /* \"contracts/mirrorseaMain.sol\":4113:4468  OrderInfo({... */\n      dup2\n      mstore\n      pop\n        /* \"contracts/mirrorseaMain.sol\":4096:4106  _orderInfo */\n      0x6a\n        /* \"contracts/mirrorseaMain.sol\":4096:4110  _orderInfo[id] */\n      0x00\n        /* \"contracts/mirrorseaMain.sol\":4107:4109  id */\n      dup16\n        /* \"contracts/mirrorseaMain.sol\":4096:4110  _orderInfo[id] */\n      dup2\n      mstore\n      0x20\n      add\n      swap1\n      dup2\n      mstore\n      0x20\n      add\n      0x00\n      keccak256\n        /* \"contracts/mirrorseaMain.sol\":4096:4468  _orderInfo[id] = OrderInfo({... */\n      0x00\n      dup3\n      add\n      mload\n      dup2\n      0x00\n      add\n      exp(0x0100, 0x00)\n      dup2\n      sload\n      dup2\n      sub(shl(0xa0, 0x01), 0x01)\n      mul\n      not\n      and\n      swap1\n      dup4\n      sub(shl(0xa0, 0x01), 0x01)\n      and\n      mul\n      or\n      swap1\n      sstore\n      pop\n      0x20\n      dup3\n      add\n      mload\n      dup2\n      0x01\n      add\n      sstore\n      0x40\n      dup3\n      add\n      mload\n      dup2\n      0x02\n      add\n      swap1\n      dup1\n      mload\n      swap1\n      0x20\n      add\n      swap1\n      tag_427\n      swap3\n      swap2\n      swap1\n      tag_396\n      jump\t// in\n    tag_427:\n      pop\n      0x60\n      dup3\n      add\n      mload\n      0x03\n      dup3\n      add\n      sstore\n      0x80\n      dup3\n      add\n      mload\n      0x04\n      dup3\n      add\n      sstore\n      0xa0\n      dup3\n      add\n      mload\n      0x05\n      dup3\n      add\n      sstore\n      0xc0\n      dup3\n      add\n      mload\n      0x06\n      dup3\n      add\n      sstore\n      0xe0\n      dup3\n      add\n      mload\n      0x07\n      dup3\n      add\n      sstore\n      0x0100\n      dup3\n      add\n      mload\n      0x08\n      dup3\n      add\n      sstore\n      0x0120\n      dup3\n      add\n      mload\n      0x09\n      dup3\n      add\n      sstore\n      0x0140\n      swap1\n      swap2\n      add\n      mload\n      0x0a\n      swap1\n      swap2\n      add\n      sstore\n      pop\n        /* \"contracts/mirrorseaMain.sol\":4485:4489  true */\n      0x01\n        /* \"contracts/mirrorseaMain.sol\":3721:4496  function setOrderInfo(... */\n      swap13\n      swap12\n      pop\n      pop\n      pop\n      pop\n      pop\n      pop\n      pop\n      pop\n      pop\n      pop\n      pop\n      pop\n      jump\t// out\n        /* \"@openzeppelin/contracts-upgradeable/utils/math/SafeMathUpgradeable.sol\":3462:3558  function mul(uint256 a, uint256 b) internal pure returns (uint256) {... */\n    tag_191:\n        /* \"@openzeppelin/contracts-upgradeable/utils/math/SafeMathUpgradeable.sol\":3520:3527  uint256 */\n      0x00\n        /* \"@openzeppelin/contracts-upgradeable/utils/math/SafeMathUpgradeable.sol\":3546:3551  a * b */\n      tag_429\n        /* \"@openzeppelin/contracts-upgradeable/utils/math/SafeMathUpgradeable.sol\":3550:3551  b */\n      dup3\n        /* \"@openzeppelin/contracts-upgradeable/utils/math/SafeMathUpgradeable.sol\":3546:3547  a */\n      dup5\n        /* \"@openzeppelin/contracts-upgradeable/utils/math/SafeMathUpgradeable.sol\":3546:3551  a * b */\n      tag_430\n      jump\t// in\n    tag_429:\n        /* \"@openzeppelin/contracts-upgradeable/utils/math/SafeMathUpgradeable.sol\":3539:3551  return a * b */\n      swap4\n        /* \"@openzeppelin/contracts-upgradeable/utils/math/SafeMathUpgradeable.sol\":3462:3558  function mul(uint256 a, uint256 b) internal pure returns (uint256) {... */\n      swap3\n      pop\n      pop\n      pop\n      jump\t// out\n        /* \"@openzeppelin/contracts-upgradeable/utils/math/SafeMathUpgradeable.sol\":3119:3215  function sub(uint256 a, uint256 b) internal pure returns (uint256) {... */\n    tag_192:\n        /* \"@openzeppelin/contracts-upgradeable/utils/math/SafeMathUpgradeable.sol\":3177:3184  uint256 */\n      0x00\n        /* \"@openzeppelin/contracts-upgradeable/utils/math/SafeMathUpgradeable.sol\":3203:3208  a - b */\n      tag_429\n        /* \"@openzeppelin/contracts-upgradeable/utils/math/SafeMathUpgradeable.sol\":3207:3208  b */\n      dup3\n        /* \"@openzeppelin/contracts-upgradeable/utils/math/SafeMathUpgradeable.sol\":3203:3204  a */\n      dup5\n        /* \"@openzeppelin/contracts-upgradeable/utils/math/SafeMathUpgradeable.sol\":3203:3208  a - b */\n      tag_433\n      jump\t// in\n        /* \"@openzeppelin/contracts-upgradeable/utils/ContextUpgradeable.sol\":876:972  function _msgSender() internal view virtual returns (address) {... */\n    tag_220:\n        /* \"@openzeppelin/contracts-upgradeable/utils/ContextUpgradeable.sol\":955:965  msg.sender */\n      caller\n        /* \"@openzeppelin/contracts-upgradeable/utils/ContextUpgradeable.sol\":876:972  function _msgSender() internal view virtual returns (address) {... */\n      swap1\n      jump\t// out\n        /* \"contracts/mirrorseaMain.sol\":13797:15118  function _isSolvent(... */\n    tag_238:\n        /* \"contracts/mirrorseaMain.sol\":13918:13922  bool */\n      0x00\n        /* \"contracts/mirrorseaMain.sol\":13960:13975  _orderInfo[_id] */\n      dup4\n      dup2\n      mstore\n        /* \"contracts/mirrorseaMain.sol\":13960:13970  _orderInfo */\n      0x6a\n        /* \"contracts/mirrorseaMain.sol\":13960:13975  _orderInfo[_id] */\n      0x20\n      mstore\n      0x40\n      dup2\n      keccak256\n        /* \"contracts/mirrorseaMain.sol\":14067:14082  order.direction */\n      0x04\n      dup2\n      add\n      sload\n        /* \"contracts/mirrorseaMain.sol\":13918:13922  bool */\n      dup3\n      swap1\n      dup2\n      swap1\n      dup2\n      swap1\n        /* \"contracts/mirrorseaMain.sol\":14086:14087  1 */\n      0x01\n        /* \"contracts/mirrorseaMain.sol\":14067:14087  order.direction == 1 */\n      eq\n        /* \"contracts/mirrorseaMain.sol\":14063:15091  if (order.direction == 1) {... */\n      iszero\n      tag_436\n      jumpi\n        /* \"contracts/mirrorseaMain.sol\":14118:14123  order */\n      dup4\n        /* \"contracts/mirrorseaMain.sol\":14118:14135  order.openPrice18 */\n      0x05\n      add\n      sload\n        /* \"contracts/mirrorseaMain.sol\":14107:14115  _price18 */\n      dup8\n        /* \"contracts/mirrorseaMain.sol\":14107:14135  _price18 < order.openPrice18 */\n      lt\n        /* \"contracts/mirrorseaMain.sol\":14103:14577  if (_price18 < order.openPrice18) {... */\n      iszero\n      tag_447\n      jumpi\n        /* \"contracts/mirrorseaMain.sol\":14169:14186  order.openPrice18 */\n      0x05\n      dup5\n      add\n      sload\n        /* \"contracts/mirrorseaMain.sol\":14169:14200  order.openPrice18.sub(_price18) */\n      tag_438\n      swap1\n        /* \"contracts/mirrorseaMain.sol\":14191:14199  _price18 */\n      dup9\n        /* \"contracts/mirrorseaMain.sol\":14169:14190  order.openPrice18.sub */\n      tag_192\n        /* \"contracts/mirrorseaMain.sol\":14169:14200  order.openPrice18.sub(_price18) */\n      jump\t// in\n    tag_438:\n        /* \"contracts/mirrorseaMain.sol\":14155:14200  diffPrice18 = order.openPrice18.sub(_price18) */\n      swap3\n      pop\n        /* \"contracts/mirrorseaMain.sol\":14231:14267  diffPrice18.mul(order.amt).div(1e18) */\n      tag_439\n        /* \"contracts/mirrorseaMain.sol\":14262:14266  1e18 */\n      0x0de0b6b3a7640000\n        /* \"contracts/mirrorseaMain.sol\":14231:14257  diffPrice18.mul(order.amt) */\n      tag_311\n        /* \"contracts/mirrorseaMain.sol\":14247:14252  order */\n      dup7\n        /* \"contracts/mirrorseaMain.sol\":14247:14256  order.amt */\n      0x09\n      add\n      sload\n        /* \"contracts/mirrorseaMain.sol\":14231:14242  diffPrice18 */\n      dup7\n        /* \"contracts/mirrorseaMain.sol\":14231:14246  diffPrice18.mul */\n      tag_191\n      swap1\n        /* \"contracts/mirrorseaMain.sol\":14231:14257  diffPrice18.mul(order.amt) */\n      swap2\n      swap1\n      0xffffffff\n      and\n      jump\t// in\n        /* \"contracts/mirrorseaMain.sol\":14231:14267  diffPrice18.mul(order.amt).div(1e18) */\n    tag_439:\n        /* \"contracts/mirrorseaMain.sol\":14218:14267  diffMargin = diffPrice18.mul(order.amt).div(1e18) */\n      swap2\n      pop\n        /* \"contracts/mirrorseaMain.sol\":14291:14460  order... */\n      tag_441\n        /* \"contracts/mirrorseaMain.sol\":14455:14459  1e18 */\n      0x0de0b6b3a7640000\n        /* \"contracts/mirrorseaMain.sol\":14291:14429  order... */\n      tag_311\n        /* \"contracts/mirrorseaMain.sol\":14419:14428  PRECISION */\n      sload(0x73)\n        /* \"contracts/mirrorseaMain.sol\":14291:14393  order... */\n      tag_311\n        /* \"contracts/mirrorseaMain.sol\":14382:14392  feePercent */\n      sload(0x72)\n        /* \"contracts/mirrorseaMain.sol\":14291:14356  order... */\n      tag_312\n        /* \"contracts/mirrorseaMain.sol\":14347:14355  _price18 */\n      dup14\n        /* \"contracts/mirrorseaMain.sol\":14291:14296  order */\n      dup12\n        /* \"contracts/mirrorseaMain.sol\":14291:14321  order... */\n      0x09\n      add\n      sload\n        /* \"contracts/mirrorseaMain.sol\":14291:14346  order... */\n      tag_191\n      swap1\n        /* \"contracts/mirrorseaMain.sol\":14291:14356  order... */\n      swap2\n      swap1\n      0xffffffff\n      and\n      jump\t// in\n        /* \"contracts/mirrorseaMain.sol\":14291:14460  order... */\n    tag_441:\n        /* \"contracts/mirrorseaMain.sol\":14285:14460  fee = order... */\n      swap1\n      pop\n        /* \"contracts/mirrorseaMain.sol\":14492:14508  diffMargin + fee */\n      tag_445\n        /* \"contracts/mirrorseaMain.sol\":14285:14460  fee = order... */\n      dup2\n        /* \"contracts/mirrorseaMain.sol\":14492:14502  diffMargin */\n      dup4\n        /* \"contracts/mirrorseaMain.sol\":14492:14508  diffMargin + fee */\n      tag_446\n      jump\t// in\n    tag_445:\n        /* \"contracts/mirrorseaMain.sol\":14482:14489  _margin */\n      dup7\n        /* \"contracts/mirrorseaMain.sol\":14482:14508  _margin < diffMargin + fee */\n      lt\n        /* \"contracts/mirrorseaMain.sol\":14478:14563  if (_margin < diffMargin + fee) {... */\n      iszero\n      tag_447\n      jumpi\n        /* \"contracts/mirrorseaMain.sol\":14539:14544  false */\n      0x00\n        /* \"contracts/mirrorseaMain.sol\":14532:14544  return false */\n      swap5\n      pop\n      pop\n      pop\n      pop\n      pop\n      jump(tag_429)\n        /* \"contracts/mirrorseaMain.sol\":14478:14563  if (_margin < diffMargin + fee) {... */\n    tag_447:\n        /* \"contracts/mirrorseaMain.sol\":14063:15091  if (order.direction == 1) {... */\n      jump(tag_458)\n    tag_436:\n        /* \"contracts/mirrorseaMain.sol\":14622:14627  order */\n      dup4\n        /* \"contracts/mirrorseaMain.sol\":14622:14639  order.openPrice18 */\n      0x05\n      add\n      sload\n        /* \"contracts/mirrorseaMain.sol\":14611:14619  _price18 */\n      dup8\n        /* \"contracts/mirrorseaMain.sol\":14611:14639  _price18 > order.openPrice18 */\n      gt\n        /* \"contracts/mirrorseaMain.sol\":14607:15081  if (_price18 > order.openPrice18) {... */\n      iszero\n      tag_458\n      jumpi\n        /* \"contracts/mirrorseaMain.sol\":14686:14703  order.openPrice18 */\n      0x05\n      dup5\n      add\n      sload\n        /* \"contracts/mirrorseaMain.sol\":14673:14704  _price18.sub(order.openPrice18) */\n      tag_450\n      swap1\n        /* \"contracts/mirrorseaMain.sol\":14673:14681  _price18 */\n      dup9\n      swap1\n        /* \"contracts/mirrorseaMain.sol\":14673:14685  _price18.sub */\n      tag_192\n        /* \"contracts/mirrorseaMain.sol\":14673:14704  _price18.sub(order.openPrice18) */\n      jump\t// in\n    tag_450:\n        /* \"contracts/mirrorseaMain.sol\":14659:14704  diffPrice18 = _price18.sub(order.openPrice18) */\n      swap3\n      pop\n        /* \"contracts/mirrorseaMain.sol\":14735:14771  diffPrice18.mul(order.amt).div(1e18) */\n      tag_451\n        /* \"contracts/mirrorseaMain.sol\":14766:14770  1e18 */\n      0x0de0b6b3a7640000\n        /* \"contracts/mirrorseaMain.sol\":14735:14761  diffPrice18.mul(order.amt) */\n      tag_311\n        /* \"contracts/mirrorseaMain.sol\":14751:14756  order */\n      dup7\n        /* \"contracts/mirrorseaMain.sol\":14751:14760  order.amt */\n      0x09\n      add\n      sload\n        /* \"contracts/mirrorseaMain.sol\":14735:14746  diffPrice18 */\n      dup7\n        /* \"contracts/mirrorseaMain.sol\":14735:14750  diffPrice18.mul */\n      tag_191\n      swap1\n        /* \"contracts/mirrorseaMain.sol\":14735:14761  diffPrice18.mul(order.amt) */\n      swap2\n      swap1\n      0xffffffff\n      and\n      jump\t// in\n        /* \"contracts/mirrorseaMain.sol\":14735:14771  diffPrice18.mul(order.amt).div(1e18) */\n    tag_451:\n        /* \"contracts/mirrorseaMain.sol\":14722:14771  diffMargin = diffPrice18.mul(order.amt).div(1e18) */\n      swap2\n      pop\n        /* \"contracts/mirrorseaMain.sol\":14795:14964  order... */\n      tag_453\n        /* \"contracts/mirrorseaMain.sol\":14959:14963  1e18 */\n      0x0de0b6b3a7640000\n        /* \"contracts/mirrorseaMain.sol\":14795:14933  order... */\n      tag_311\n        /* \"contracts/mirrorseaMain.sol\":14923:14932  PRECISION */\n      sload(0x73)\n        /* \"contracts/mirrorseaMain.sol\":14795:14897  order... */\n      tag_311\n        /* \"contracts/mirrorseaMain.sol\":14886:14896  feePercent */\n      sload(0x72)\n        /* \"contracts/mirrorseaMain.sol\":14795:14860  order... */\n      tag_312\n        /* \"contracts/mirrorseaMain.sol\":14851:14859  _price18 */\n      dup14\n        /* \"contracts/mirrorseaMain.sol\":14795:14800  order */\n      dup12\n        /* \"contracts/mirrorseaMain.sol\":14795:14825  order... */\n      0x09\n      add\n      sload\n        /* \"contracts/mirrorseaMain.sol\":14795:14850  order... */\n      tag_191\n      swap1\n        /* \"contracts/mirrorseaMain.sol\":14795:14860  order... */\n      swap2\n      swap1\n      0xffffffff\n      and\n      jump\t// in\n        /* \"contracts/mirrorseaMain.sol\":14795:14964  order... */\n    tag_453:\n        /* \"contracts/mirrorseaMain.sol\":14789:14964  fee = order... */\n      swap1\n      pop\n        /* \"contracts/mirrorseaMain.sol\":14996:15012  diffMargin + fee */\n      tag_457\n        /* \"contracts/mirrorseaMain.sol\":14789:14964  fee = order... */\n      dup2\n        /* \"contracts/mirrorseaMain.sol\":14996:15006  diffMargin */\n      dup4\n        /* \"contracts/mirrorseaMain.sol\":14996:15012  diffMargin + fee */\n      tag_446\n      jump\t// in\n    tag_457:\n        /* \"contracts/mirrorseaMain.sol\":14986:14993  _margin */\n      dup7\n        /* \"contracts/mirrorseaMain.sol\":14986:15012  _margin < diffMargin + fee */\n      lt\n        /* \"contracts/mirrorseaMain.sol\":14982:15067  if (_margin < diffMargin + fee) {... */\n      iszero\n      tag_458\n      jumpi\n        /* \"contracts/mirrorseaMain.sol\":15043:15048  false */\n      0x00\n        /* \"contracts/mirrorseaMain.sol\":15036:15048  return false */\n      swap5\n      pop\n      pop\n      pop\n      pop\n      pop\n      jump(tag_429)\n        /* \"contracts/mirrorseaMain.sol\":14982:15067  if (_margin < diffMargin + fee) {... */\n    tag_458:\n      pop\n        /* \"contracts/mirrorseaMain.sol\":15107:15111  true */\n      0x01\n      swap8\n        /* \"contracts/mirrorseaMain.sol\":13797:15118  function _isSolvent(... */\n      swap7\n      pop\n      pop\n      pop\n      pop\n      pop\n      pop\n      pop\n      jump\t// out\n        /* \"contracts/mirrorseaMain.sol\":7638:11391  function _closePosition(... */\n    tag_246:\n        /* \"contracts/mirrorseaMain.sol\":7934:7944  order.user */\n      dup7\n      sload\n        /* \"contracts/mirrorseaMain.sol\":7910:7914  bool */\n      0x00\n      swap1\n      sub(shl(0xa0, 0x01), 0x01)\n        /* \"contracts/mirrorseaMain.sol\":7934:7944  order.user */\n      and\n        /* \"contracts/mirrorseaMain.sol\":7926:7983  require(order.user != address(0), \"order does not exist\") */\n      tag_460\n      jumpi\n      mload(0x40)\n      shl(0xe5, 0x461bcd)\n      dup2\n      mstore\n      0x04\n      add\n      tag_198\n      swap1\n      tag_291\n      jump\t// in\n    tag_460:\n        /* \"contracts/mirrorseaMain.sol\":8015:8016  2 */\n      0x02\n        /* \"contracts/mirrorseaMain.sol\":8001:8006  order */\n      dup9\n        /* \"contracts/mirrorseaMain.sol\":8001:8012  order.state */\n      0x03\n      add\n      sload\n        /* \"contracts/mirrorseaMain.sol\":8001:8016  order.state < 2 */\n      lt\n        /* \"contracts/mirrorseaMain.sol\":7993:8030  require(order.state < 2, \"state err\") */\n      tag_462\n      jumpi\n      mload(0x40)\n      shl(0xe5, 0x461bcd)\n      dup2\n      mstore\n      0x04\n      add\n      tag_198\n      swap1\n      tag_294\n      jump\t// in\n    tag_462:\n        /* \"contracts/mirrorseaMain.sol\":8061:8067  oracle */\n      sload(0x69)\n        /* \"contracts/mirrorseaMain.sol\":8061:8226  oracle.getkey(... */\n      mload(0x40)\n      shl(0xe1, 0x11cdc9d9)\n      dup2\n      mstore\n      sub(shl(0xa0, 0x01), 0x01)\n        /* \"contracts/mirrorseaMain.sol\":8061:8067  oracle */\n      swap1\n      swap2\n      and\n      swap1\n        /* \"contracts/mirrorseaMain.sol\":8061:8074  oracle.getkey */\n      0x239b93b2\n      swap1\n        /* \"contracts/mirrorseaMain.sol\":8061:8226  oracle.getkey(... */\n      tag_464\n      swap1\n        /* \"contracts/mirrorseaMain.sol\":8092:8104  _marketState */\n      dup13\n      swap1\n        /* \"contracts/mirrorseaMain.sol\":8122:8130  _price18 */\n      dup8\n      swap1\n        /* \"contracts/mirrorseaMain.sol\":8148:8158  _timestamp */\n      dup11\n      swap1\n        /* \"contracts/mirrorseaMain.sol\":8176:8184  _symbols */\n      dup11\n      swap1\n        /* \"contracts/mirrorseaMain.sol\":8202:8212  _signature */\n      dup10\n      swap1\n        /* \"contracts/mirrorseaMain.sol\":8061:8226  oracle.getkey(... */\n      0x04\n      add\n      tag_296\n      jump\t// in\n    tag_464:\n      0x20\n      mload(0x40)\n      dup1\n      dup4\n      sub\n      dup2\n      dup7\n      dup1\n      extcodesize\n      iszero\n      dup1\n      iszero\n      tag_465\n      jumpi\n      0x00\n      dup1\n      revert\n    tag_465:\n      pop\n      gas\n      staticcall\n      iszero\n      dup1\n      iszero\n      tag_467\n      jumpi\n      returndatasize\n      0x00\n      dup1\n      returndatacopy\n      revert(0x00, returndatasize)\n    tag_467:\n      pop\n      pop\n      pop\n      pop\n      mload(0x40)\n      returndatasize\n      not(0x1f)\n      0x1f\n      dup3\n      add\n      and\n      dup3\n      add\n      dup1\n      0x40\n      mstore\n      pop\n      dup2\n      add\n      swap1\n      tag_468\n      swap2\n      swap1\n      tag_301\n      jump\t// in\n    tag_468:\n        /* \"contracts/mirrorseaMain.sol\":8040:8262  require(... */\n      tag_469\n      jumpi\n      mload(0x40)\n      shl(0xe5, 0x461bcd)\n      dup2\n      mstore\n      0x04\n      add\n      tag_198\n      swap1\n      tag_304\n      jump\t// in\n    tag_469:\n        /* \"contracts/mirrorseaMain.sol\":8294:8302  _price18 */\n      dup3\n        /* \"contracts/mirrorseaMain.sol\":8273:8278  order */\n      dup9\n        /* \"contracts/mirrorseaMain.sol\":8273:8291  order.closePrice18 */\n      0x07\n      add\n        /* \"contracts/mirrorseaMain.sol\":8273:8302  order.closePrice18 = _price18 */\n      dup2\n      swap1\n      sstore\n      pop\n        /* \"contracts/mirrorseaMain.sol\":8312:8331  uint256 diffPrice18 */\n      0x00\n        /* \"contracts/mirrorseaMain.sol\":8341:8359  uint256 diffMargin */\n      dup1\n        /* \"contracts/mirrorseaMain.sol\":8369:8384  uint256 mintAmt */\n      0x00\n        /* \"contracts/mirrorseaMain.sol\":8399:8404  order */\n      dup11\n        /* \"contracts/mirrorseaMain.sol\":8399:8414  order.direction */\n      0x04\n      add\n      sload\n        /* \"contracts/mirrorseaMain.sol\":8418:8419  1 */\n      0x01\n        /* \"contracts/mirrorseaMain.sol\":8399:8419  order.direction == 1 */\n      eq\n        /* \"contracts/mirrorseaMain.sol\":8395:10528  if (order.direction == 1) {... */\n      iszero\n      tag_471\n      jumpi\n        /* \"contracts/mirrorseaMain.sol\":8460:8465  order */\n      dup11\n        /* \"contracts/mirrorseaMain.sol\":8460:8477  order.openPrice18 */\n      0x05\n      add\n      sload\n        /* \"contracts/mirrorseaMain.sol\":8439:8444  order */\n      dup12\n        /* \"contracts/mirrorseaMain.sol\":8439:8457  order.closePrice18 */\n      0x07\n      add\n      sload\n        /* \"contracts/mirrorseaMain.sol\":8439:8477  order.closePrice18 > order.openPrice18 */\n      gt\n        /* \"contracts/mirrorseaMain.sol\":8435:9457  if (order.closePrice18 > order.openPrice18) {... */\n      iszero\n      tag_472\n      jumpi\n        /* \"contracts/mirrorseaMain.sol\":8534:8551  order.openPrice18 */\n      0x05\n      dup12\n      add\n      sload\n        /* \"contracts/mirrorseaMain.sol\":8511:8529  order.closePrice18 */\n      0x07\n      dup13\n      add\n      sload\n        /* \"contracts/mirrorseaMain.sol\":8511:8552  order.closePrice18.sub(order.openPrice18) */\n      tag_473\n      swap2\n        /* \"contracts/mirrorseaMain.sol\":8511:8533  order.closePrice18.sub */\n      tag_192\n        /* \"contracts/mirrorseaMain.sol\":8511:8552  order.closePrice18.sub(order.openPrice18) */\n      jump\t// in\n    tag_473:\n        /* \"contracts/mirrorseaMain.sol\":8497:8552  diffPrice18 = order.closePrice18.sub(order.openPrice18) */\n      swap3\n      pop\n        /* \"contracts/mirrorseaMain.sol\":8583:8619  diffPrice18.mul(order.amt).div(1e18) */\n      tag_474\n        /* \"contracts/mirrorseaMain.sol\":8614:8618  1e18 */\n      0x0de0b6b3a7640000\n        /* \"contracts/mirrorseaMain.sol\":8583:8609  diffPrice18.mul(order.amt) */\n      tag_311\n        /* \"contracts/mirrorseaMain.sol\":8599:8604  order */\n      dup14\n        /* \"contracts/mirrorseaMain.sol\":8599:8608  order.amt */\n      0x09\n      add\n      sload\n        /* \"contracts/mirrorseaMain.sol\":8583:8594  diffPrice18 */\n      dup7\n        /* \"contracts/mirrorseaMain.sol\":8583:8598  diffPrice18.mul */\n      tag_191\n      swap1\n        /* \"contracts/mirrorseaMain.sol\":8583:8609  diffPrice18.mul(order.amt) */\n      swap2\n      swap1\n      0xffffffff\n      and\n      jump\t// in\n        /* \"contracts/mirrorseaMain.sol\":8583:8619  diffPrice18.mul(order.amt).div(1e18) */\n    tag_474:\n        /* \"contracts/mirrorseaMain.sol\":8647:8659  order.margin */\n      0x0a\n      dup13\n      add\n      sload\n        /* \"contracts/mirrorseaMain.sol\":8570:8619  diffMargin = diffPrice18.mul(order.amt).div(1e18) */\n      swap1\n      swap3\n      pop\n        /* \"contracts/mirrorseaMain.sol\":8647:8675  order.margin.add(diffMargin) */\n      tag_476\n      swap1\n        /* \"contracts/mirrorseaMain.sol\":8570:8619  diffMargin = diffPrice18.mul(order.amt).div(1e18) */\n      dup4\n        /* \"contracts/mirrorseaMain.sol\":8647:8663  order.margin.add */\n      tag_320\n        /* \"contracts/mirrorseaMain.sol\":8647:8675  order.margin.add(diffMargin) */\n      jump\t// in\n    tag_476:\n        /* \"contracts/mirrorseaMain.sol\":8637:8675  mintAmt = order.margin.add(diffMargin) */\n      swap1\n      pop\n        /* \"contracts/mirrorseaMain.sol\":8693:8704  uint256 fee */\n      0x00\n        /* \"contracts/mirrorseaMain.sol\":8707:8745  mintAmt.mul(feePercent).div(PRECISION) */\n      tag_477\n        /* \"contracts/mirrorseaMain.sol\":8735:8744  PRECISION */\n      sload(0x73)\n        /* \"contracts/mirrorseaMain.sol\":8707:8730  mintAmt.mul(feePercent) */\n      tag_311\n        /* \"contracts/mirrorseaMain.sol\":8719:8729  feePercent */\n      sload(0x72)\n        /* \"contracts/mirrorseaMain.sol\":8707:8714  mintAmt */\n      dup6\n        /* \"contracts/mirrorseaMain.sol\":8707:8718  mintAmt.mul */\n      tag_191\n      swap1\n        /* \"contracts/mirrorseaMain.sol\":8707:8730  mintAmt.mul(feePercent) */\n      swap2\n      swap1\n      0xffffffff\n      and\n      jump\t// in\n        /* \"contracts/mirrorseaMain.sol\":8707:8745  mintAmt.mul(feePercent).div(PRECISION) */\n    tag_477:\n        /* \"contracts/mirrorseaMain.sol\":8776:8779  usc */\n      sload(0x67)\n        /* \"contracts/mirrorseaMain.sol\":8795:8806  helperLogic */\n      sload(0x68)\n        /* \"contracts/mirrorseaMain.sol\":8763:8813  IUSC(address(usc)).mint(address(helperLogic), fee) */\n      mload(0x40)\n      shl(0xe0, 0x40c10f19)\n      dup2\n      mstore\n        /* \"contracts/mirrorseaMain.sol\":8693:8745  uint256 fee = mintAmt.mul(feePercent).div(PRECISION) */\n      swap3\n      swap4\n      pop\n      sub(shl(0xa0, 0x01), 0x01)\n        /* \"contracts/mirrorseaMain.sol\":8776:8779  usc */\n      swap2\n      dup3\n      and\n      swap3\n        /* \"contracts/mirrorseaMain.sol\":8763:8786  IUSC(address(usc)).mint */\n      0x40c10f19\n      swap3\n        /* \"contracts/mirrorseaMain.sol\":8763:8813  IUSC(address(usc)).mint(address(helperLogic), fee) */\n      tag_479\n      swap3\n        /* \"contracts/mirrorseaMain.sol\":8795:8806  helperLogic */\n      and\n      swap1\n        /* \"contracts/mirrorseaMain.sol\":8693:8745  uint256 fee = mintAmt.mul(feePercent).div(PRECISION) */\n      dup6\n      swap1\n        /* \"contracts/mirrorseaMain.sol\":8763:8813  IUSC(address(usc)).mint(address(helperLogic), fee) */\n      0x04\n      add\n      tag_335\n      jump\t// in\n    tag_479:\n      0x20\n      mload(0x40)\n      dup1\n      dup4\n      sub\n      dup2\n      0x00\n      dup8\n      dup1\n      extcodesize\n      iszero\n      dup1\n      iszero\n      tag_480\n      jumpi\n      0x00\n      dup1\n      revert\n    tag_480:\n      pop\n      gas\n      call\n      iszero\n      dup1\n      iszero\n      tag_482\n      jumpi\n      returndatasize\n      0x00\n      dup1\n      returndatacopy\n      revert(0x00, returndatasize)\n    tag_482:\n      pop\n      pop\n      pop\n      pop\n      mload(0x40)\n      returndatasize\n      not(0x1f)\n      0x1f\n      dup3\n      add\n      and\n      dup3\n      add\n      dup1\n      0x40\n      mstore\n      pop\n      dup2\n      add\n      swap1\n      tag_483\n      swap2\n      swap1\n      tag_301\n      jump\t// in\n    tag_483:\n      pop\n        /* \"contracts/mirrorseaMain.sol\":8844:8847  usc */\n      sload(0x67)\n        /* \"contracts/mirrorseaMain.sol\":8855:8865  order.user */\n      dup13\n      sload\n      sub(shl(0xa0, 0x01), 0x01)\n        /* \"contracts/mirrorseaMain.sol\":8844:8847  usc */\n      swap2\n      dup3\n      and\n      swap2\n        /* \"contracts/mirrorseaMain.sol\":8831:8854  IUSC(address(usc)).mint */\n      0x40c10f19\n      swap2\n        /* \"contracts/mirrorseaMain.sol\":8855:8865  order.user */\n      and\n        /* \"contracts/mirrorseaMain.sol\":8867:8883  mintAmt.sub(fee) */\n      tag_484\n        /* \"contracts/mirrorseaMain.sol\":8867:8874  mintAmt */\n      dup6\n        /* \"contracts/mirrorseaMain.sol\":8879:8882  fee */\n      dup6\n        /* \"contracts/mirrorseaMain.sol\":8867:8878  mintAmt.sub */\n      tag_192\n        /* \"contracts/mirrorseaMain.sol\":8867:8883  mintAmt.sub(fee) */\n      jump\t// in\n    tag_484:\n        /* \"contracts/mirrorseaMain.sol\":8831:8884  IUSC(address(usc)).mint(order.user, mintAmt.sub(fee)) */\n      mload(0x40)\n      dup4\n      0xffffffff\n      and\n      0xe0\n      shl\n      dup2\n      mstore\n      0x04\n      add\n      tag_485\n      swap3\n      swap2\n      swap1\n      tag_335\n      jump\t// in\n    tag_485:\n      0x20\n      mload(0x40)\n      dup1\n      dup4\n      sub\n      dup2\n      0x00\n      dup8\n      dup1\n      extcodesize\n      iszero\n      dup1\n      iszero\n      tag_486\n      jumpi\n      0x00\n      dup1\n      revert\n    tag_486:\n      pop\n      gas\n      call\n      iszero\n      dup1\n      iszero\n      tag_488\n      jumpi\n      returndatasize\n      0x00\n      dup1\n      returndatacopy\n      revert(0x00, returndatasize)\n    tag_488:\n      pop\n      pop\n      pop\n      pop\n      mload(0x40)\n      returndatasize\n      not(0x1f)\n      0x1f\n      dup3\n      add\n      and\n      dup3\n      add\n      dup1\n      0x40\n      mstore\n      pop\n      dup2\n      add\n      swap1\n      tag_489\n      swap2\n      swap1\n      tag_301\n      jump\t// in\n    tag_489:\n      pop\n        /* \"contracts/mirrorseaMain.sol\":8435:9457  if (order.closePrice18 > order.openPrice18) {... */\n      pop\n      jump(tag_494)\n    tag_472:\n        /* \"contracts/mirrorseaMain.sol\":8959:8977  order.closePrice18 */\n      0x07\n      dup12\n      add\n      sload\n        /* \"contracts/mirrorseaMain.sol\":8937:8954  order.openPrice18 */\n      0x05\n      dup13\n      add\n      sload\n        /* \"contracts/mirrorseaMain.sol\":8937:8978  order.openPrice18.sub(order.closePrice18) */\n      tag_491\n      swap2\n        /* \"contracts/mirrorseaMain.sol\":8937:8958  order.openPrice18.sub */\n      tag_192\n        /* \"contracts/mirrorseaMain.sol\":8937:8978  order.openPrice18.sub(order.closePrice18) */\n      jump\t// in\n    tag_491:\n        /* \"contracts/mirrorseaMain.sol\":8923:8978  diffPrice18 = order.openPrice18.sub(order.closePrice18) */\n      swap3\n      pop\n        /* \"contracts/mirrorseaMain.sol\":9009:9035  diffPrice18.mul(order.amt) */\n      tag_492\n        /* \"contracts/mirrorseaMain.sol\":9025:9030  order */\n      dup12\n        /* \"contracts/mirrorseaMain.sol\":9025:9034  order.amt */\n      0x09\n      add\n      sload\n        /* \"contracts/mirrorseaMain.sol\":9009:9020  diffPrice18 */\n      dup5\n        /* \"contracts/mirrorseaMain.sol\":9009:9024  diffPrice18.mul */\n      tag_191\n      swap1\n        /* \"contracts/mirrorseaMain.sol\":9009:9035  diffPrice18.mul(order.amt) */\n      swap2\n      swap1\n      0xffffffff\n      and\n      jump\t// in\n    tag_492:\n        /* \"contracts/mirrorseaMain.sol\":8996:9035  diffMargin = diffPrice18.mul(order.amt) */\n      swap2\n      pop\n        /* \"contracts/mirrorseaMain.sol\":9071:9076  order */\n      dup11\n        /* \"contracts/mirrorseaMain.sol\":9071:9083  order.margin */\n      0x0a\n      add\n      sload\n        /* \"contracts/mirrorseaMain.sol\":9058:9068  diffMargin */\n      dup3\n        /* \"contracts/mirrorseaMain.sol\":9058:9083  diffMargin > order.margin */\n      gt\n        /* \"contracts/mirrorseaMain.sol\":9054:9443  if (diffMargin > order.margin) {... */\n      iszero\n      tag_493\n      jumpi\n      pop\n        /* \"contracts/mirrorseaMain.sol\":9117:9118  0 */\n      0x00\n        /* \"contracts/mirrorseaMain.sol\":9054:9443  if (diffMargin > order.margin) {... */\n      jump(tag_494)\n    tag_493:\n        /* \"contracts/mirrorseaMain.sol\":9175:9187  order.margin */\n      0x0a\n      dup12\n      add\n      sload\n        /* \"contracts/mirrorseaMain.sol\":9175:9203  order.margin.sub(diffMargin) */\n      tag_495\n      swap1\n        /* \"contracts/mirrorseaMain.sol\":9192:9202  diffMargin */\n      dup4\n        /* \"contracts/mirrorseaMain.sol\":9175:9191  order.margin.sub */\n      tag_192\n        /* \"contracts/mirrorseaMain.sol\":9175:9203  order.margin.sub(diffMargin) */\n      jump\t// in\n    tag_495:\n        /* \"contracts/mirrorseaMain.sol\":9165:9203  mintAmt = order.margin.sub(diffMargin) */\n      swap1\n      pop\n        /* \"contracts/mirrorseaMain.sol\":9225:9236  uint256 fee */\n      0x00\n        /* \"contracts/mirrorseaMain.sol\":9239:9277  mintAmt.mul(feePercent).div(PRECISION) */\n      tag_496\n        /* \"contracts/mirrorseaMain.sol\":9267:9276  PRECISION */\n      sload(0x73)\n        /* \"contracts/mirrorseaMain.sol\":9239:9262  mintAmt.mul(feePercent) */\n      tag_311\n        /* \"contracts/mirrorseaMain.sol\":9251:9261  feePercent */\n      sload(0x72)\n        /* \"contracts/mirrorseaMain.sol\":9239:9246  mintAmt */\n      dup6\n        /* \"contracts/mirrorseaMain.sol\":9239:9250  mintAmt.mul */\n      tag_191\n      swap1\n        /* \"contracts/mirrorseaMain.sol\":9239:9262  mintAmt.mul(feePercent) */\n      swap2\n      swap1\n      0xffffffff\n      and\n      jump\t// in\n        /* \"contracts/mirrorseaMain.sol\":9239:9277  mintAmt.mul(feePercent).div(PRECISION) */\n    tag_496:\n        /* \"contracts/mirrorseaMain.sol\":9312:9315  usc */\n      sload(0x67)\n        /* \"contracts/mirrorseaMain.sol\":9331:9342  helperLogic */\n      sload(0x68)\n        /* \"contracts/mirrorseaMain.sol\":9299:9349  IUSC(address(usc)).mint(address(helperLogic), fee) */\n      mload(0x40)\n      shl(0xe0, 0x40c10f19)\n      dup2\n      mstore\n        /* \"contracts/mirrorseaMain.sol\":9225:9277  uint256 fee = mintAmt.mul(feePercent).div(PRECISION) */\n      swap3\n      swap4\n      pop\n      sub(shl(0xa0, 0x01), 0x01)\n        /* \"contracts/mirrorseaMain.sol\":9312:9315  usc */\n      swap2\n      dup3\n      and\n      swap3\n        /* \"contracts/mirrorseaMain.sol\":9299:9322  IUSC(address(usc)).mint */\n      0x40c10f19\n      swap3\n        /* \"contracts/mirrorseaMain.sol\":9299:9349  IUSC(address(usc)).mint(address(helperLogic), fee) */\n      tag_498\n      swap3\n        /* \"contracts/mirrorseaMain.sol\":9331:9342  helperLogic */\n      and\n      swap1\n        /* \"contracts/mirrorseaMain.sol\":9225:9277  uint256 fee = mintAmt.mul(feePercent).div(PRECISION) */\n      dup6\n      swap1\n        /* \"contracts/mirrorseaMain.sol\":9299:9349  IUSC(address(usc)).mint(address(helperLogic), fee) */\n      0x04\n      add\n      tag_335\n      jump\t// in\n    tag_498:\n      0x20\n      mload(0x40)\n      dup1\n      dup4\n      sub\n      dup2\n      0x00\n      dup8\n      dup1\n      extcodesize\n      iszero\n      dup1\n      iszero\n      tag_499\n      jumpi\n      0x00\n      dup1\n      revert\n    tag_499:\n      pop\n      gas\n      call\n      iszero\n      dup1\n      iszero\n      tag_501\n      jumpi\n      returndatasize\n      0x00\n      dup1\n      returndatacopy\n      revert(0x00, returndatasize)\n    tag_501:\n      pop\n      pop\n      pop\n      pop\n      mload(0x40)\n      returndatasize\n      not(0x1f)\n      0x1f\n      dup3\n      add\n      and\n      dup3\n      add\n      dup1\n      0x40\n      mstore\n      pop\n      dup2\n      add\n      swap1\n      tag_502\n      swap2\n      swap1\n      tag_301\n      jump\t// in\n    tag_502:\n      pop\n        /* \"contracts/mirrorseaMain.sol\":9384:9387  usc */\n      sload(0x67)\n        /* \"contracts/mirrorseaMain.sol\":9395:9405  order.user */\n      dup13\n      sload\n      sub(shl(0xa0, 0x01), 0x01)\n        /* \"contracts/mirrorseaMain.sol\":9384:9387  usc */\n      swap2\n      dup3\n      and\n      swap2\n        /* \"contracts/mirrorseaMain.sol\":9371:9394  IUSC(address(usc)).mint */\n      0x40c10f19\n      swap2\n        /* \"contracts/mirrorseaMain.sol\":9395:9405  order.user */\n      and\n        /* \"contracts/mirrorseaMain.sol\":9407:9423  mintAmt.sub(fee) */\n      tag_503\n        /* \"contracts/mirrorseaMain.sol\":9407:9414  mintAmt */\n      dup6\n        /* \"contracts/mirrorseaMain.sol\":9419:9422  fee */\n      dup6\n        /* \"contracts/mirrorseaMain.sol\":9407:9418  mintAmt.sub */\n      tag_192\n        /* \"contracts/mirrorseaMain.sol\":9407:9423  mintAmt.sub(fee) */\n      jump\t// in\n    tag_503:\n        /* \"contracts/mirrorseaMain.sol\":9371:9424  IUSC(address(usc)).mint(order.user, mintAmt.sub(fee)) */\n      mload(0x40)\n      dup4\n      0xffffffff\n      and\n      0xe0\n      shl\n      dup2\n      mstore\n      0x04\n      add\n      tag_504\n      swap3\n      swap2\n      swap1\n      tag_335\n      jump\t// in\n    tag_504:\n      0x20\n      mload(0x40)\n      dup1\n      dup4\n      sub\n      dup2\n      0x00\n      dup8\n      dup1\n      extcodesize\n      iszero\n      dup1\n      iszero\n      tag_505\n      jumpi\n      0x00\n      dup1\n      revert\n    tag_505:\n      pop\n      gas\n      call\n      iszero\n      dup1\n      iszero\n      tag_507\n      jumpi\n      returndatasize\n      0x00\n      dup1\n      returndatacopy\n      revert(0x00, returndatasize)\n    tag_507:\n      pop\n      pop\n      pop\n      pop\n      mload(0x40)\n      returndatasize\n      not(0x1f)\n      0x1f\n      dup3\n      add\n      and\n      dup3\n      add\n      dup1\n      0x40\n      mstore\n      pop\n      dup2\n      add\n      swap1\n      tag_508\n      swap2\n      swap1\n      tag_301\n      jump\t// in\n    tag_508:\n      pop\n        /* \"contracts/mirrorseaMain.sol\":9054:9443  if (diffMargin > order.margin) {... */\n      pop\n    tag_494:\n        /* \"contracts/mirrorseaMain.sol\":8395:10528  if (order.direction == 1) {... */\n      jump(tag_533)\n    tag_471:\n        /* \"contracts/mirrorseaMain.sol\":9512:9517  order */\n      dup11\n        /* \"contracts/mirrorseaMain.sol\":9512:9529  order.openPrice18 */\n      0x05\n      add\n      sload\n        /* \"contracts/mirrorseaMain.sol\":9491:9496  order */\n      dup12\n        /* \"contracts/mirrorseaMain.sol\":9491:9509  order.closePrice18 */\n      0x07\n      add\n      sload\n        /* \"contracts/mirrorseaMain.sol\":9491:9529  order.closePrice18 < order.openPrice18 */\n      lt\n        /* \"contracts/mirrorseaMain.sol\":9487:10518  if (order.closePrice18 < order.openPrice18) {... */\n      iszero\n      tag_510\n      jumpi\n        /* \"contracts/mirrorseaMain.sol\":9585:9603  order.closePrice18 */\n      0x07\n      dup12\n      add\n      sload\n        /* \"contracts/mirrorseaMain.sol\":9563:9580  order.openPrice18 */\n      0x05\n      dup13\n      add\n      sload\n        /* \"contracts/mirrorseaMain.sol\":9563:9604  order.openPrice18.sub(order.closePrice18) */\n      tag_511\n      swap2\n        /* \"contracts/mirrorseaMain.sol\":9563:9584  order.openPrice18.sub */\n      tag_192\n        /* \"contracts/mirrorseaMain.sol\":9563:9604  order.openPrice18.sub(order.closePrice18) */\n      jump\t// in\n    tag_511:\n        /* \"contracts/mirrorseaMain.sol\":9549:9604  diffPrice18 = order.openPrice18.sub(order.closePrice18) */\n      swap3\n      pop\n        /* \"contracts/mirrorseaMain.sol\":9635:9671  diffPrice18.mul(order.amt).div(1e18) */\n      tag_512\n        /* \"contracts/mirrorseaMain.sol\":9666:9670  1e18 */\n      0x0de0b6b3a7640000\n        /* \"contracts/mirrorseaMain.sol\":9635:9661  diffPrice18.mul(order.amt) */\n      tag_311\n        /* \"contracts/mirrorseaMain.sol\":9651:9656  order */\n      dup14\n        /* \"contracts/mirrorseaMain.sol\":9651:9660  order.amt */\n      0x09\n      add\n      sload\n        /* \"contracts/mirrorseaMain.sol\":9635:9646  diffPrice18 */\n      dup7\n        /* \"contracts/mirrorseaMain.sol\":9635:9650  diffPrice18.mul */\n      tag_191\n      swap1\n        /* \"contracts/mirrorseaMain.sol\":9635:9661  diffPrice18.mul(order.amt) */\n      swap2\n      swap1\n      0xffffffff\n      and\n      jump\t// in\n        /* \"contracts/mirrorseaMain.sol\":9635:9671  diffPrice18.mul(order.amt).div(1e18) */\n    tag_512:\n        /* \"contracts/mirrorseaMain.sol\":9699:9711  order.margin */\n      0x0a\n      dup13\n      add\n      sload\n        /* \"contracts/mirrorseaMain.sol\":9622:9671  diffMargin = diffPrice18.mul(order.amt).div(1e18) */\n      swap1\n      swap3\n      pop\n        /* \"contracts/mirrorseaMain.sol\":9699:9727  order.margin.add(diffMargin) */\n      tag_495\n      swap1\n        /* \"contracts/mirrorseaMain.sol\":9622:9671  diffMargin = diffPrice18.mul(order.amt).div(1e18) */\n      dup4\n        /* \"contracts/mirrorseaMain.sol\":9699:9715  order.margin.add */\n      tag_320\n        /* \"contracts/mirrorseaMain.sol\":9699:9727  order.margin.add(diffMargin) */\n      jump\t// in\n        /* \"contracts/mirrorseaMain.sol\":9487:10518  if (order.closePrice18 < order.openPrice18) {... */\n    tag_510:\n        /* \"contracts/mirrorseaMain.sol\":10012:10029  order.openPrice18 */\n      0x05\n      dup12\n      add\n      sload\n        /* \"contracts/mirrorseaMain.sol\":9989:10007  order.closePrice18 */\n      0x07\n      dup13\n      add\n      sload\n        /* \"contracts/mirrorseaMain.sol\":9989:10030  order.closePrice18.sub(order.openPrice18) */\n      tag_529\n      swap2\n        /* \"contracts/mirrorseaMain.sol\":9989:10011  order.closePrice18.sub */\n      tag_192\n        /* \"contracts/mirrorseaMain.sol\":9989:10030  order.closePrice18.sub(order.openPrice18) */\n      jump\t// in\n    tag_529:\n        /* \"contracts/mirrorseaMain.sol\":9975:10030  diffPrice18 = order.closePrice18.sub(order.openPrice18) */\n      swap3\n      pop\n        /* \"contracts/mirrorseaMain.sol\":10061:10097  diffPrice18.mul(order.amt).div(1e18) */\n      tag_530\n        /* \"contracts/mirrorseaMain.sol\":10092:10096  1e18 */\n      0x0de0b6b3a7640000\n        /* \"contracts/mirrorseaMain.sol\":10061:10087  diffPrice18.mul(order.amt) */\n      tag_311\n        /* \"contracts/mirrorseaMain.sol\":10077:10082  order */\n      dup14\n        /* \"contracts/mirrorseaMain.sol\":10077:10086  order.amt */\n      0x09\n      add\n      sload\n        /* \"contracts/mirrorseaMain.sol\":10061:10072  diffPrice18 */\n      dup7\n        /* \"contracts/mirrorseaMain.sol\":10061:10076  diffPrice18.mul */\n      tag_191\n      swap1\n        /* \"contracts/mirrorseaMain.sol\":10061:10087  diffPrice18.mul(order.amt) */\n      swap2\n      swap1\n      0xffffffff\n      and\n      jump\t// in\n        /* \"contracts/mirrorseaMain.sol\":10061:10097  diffPrice18.mul(order.amt).div(1e18) */\n    tag_530:\n        /* \"contracts/mirrorseaMain.sol\":10048:10097  diffMargin = diffPrice18.mul(order.amt).div(1e18) */\n      swap2\n      pop\n        /* \"contracts/mirrorseaMain.sol\":10132:10137  order */\n      dup11\n        /* \"contracts/mirrorseaMain.sol\":10132:10144  order.margin */\n      0x0a\n      add\n      sload\n        /* \"contracts/mirrorseaMain.sol\":10119:10129  diffMargin */\n      dup3\n        /* \"contracts/mirrorseaMain.sol\":10119:10144  diffMargin > order.margin */\n      gt\n        /* \"contracts/mirrorseaMain.sol\":10115:10504  if (diffMargin > order.margin) {... */\n      iszero\n      tag_532\n      jumpi\n      pop\n        /* \"contracts/mirrorseaMain.sol\":10178:10179  0 */\n      0x00\n        /* \"contracts/mirrorseaMain.sol\":10115:10504  if (diffMargin > order.margin) {... */\n      jump(tag_533)\n    tag_532:\n        /* \"contracts/mirrorseaMain.sol\":10236:10248  order.margin */\n      0x0a\n      dup12\n      add\n      sload\n        /* \"contracts/mirrorseaMain.sol\":10236:10264  order.margin.sub(diffMargin) */\n      tag_534\n      swap1\n        /* \"contracts/mirrorseaMain.sol\":10253:10263  diffMargin */\n      dup4\n        /* \"contracts/mirrorseaMain.sol\":10236:10252  order.margin.sub */\n      tag_192\n        /* \"contracts/mirrorseaMain.sol\":10236:10264  order.margin.sub(diffMargin) */\n      jump\t// in\n    tag_534:\n        /* \"contracts/mirrorseaMain.sol\":10226:10264  mintAmt = order.margin.sub(diffMargin) */\n      swap1\n      pop\n        /* \"contracts/mirrorseaMain.sol\":10286:10297  uint256 fee */\n      0x00\n        /* \"contracts/mirrorseaMain.sol\":10300:10338  mintAmt.mul(feePercent).div(PRECISION) */\n      tag_535\n        /* \"contracts/mirrorseaMain.sol\":10328:10337  PRECISION */\n      sload(0x73)\n        /* \"contracts/mirrorseaMain.sol\":10300:10323  mintAmt.mul(feePercent) */\n      tag_311\n        /* \"contracts/mirrorseaMain.sol\":10312:10322  feePercent */\n      sload(0x72)\n        /* \"contracts/mirrorseaMain.sol\":10300:10307  mintAmt */\n      dup6\n        /* \"contracts/mirrorseaMain.sol\":10300:10311  mintAmt.mul */\n      tag_191\n      swap1\n        /* \"contracts/mirrorseaMain.sol\":10300:10323  mintAmt.mul(feePercent) */\n      swap2\n      swap1\n      0xffffffff\n      and\n      jump\t// in\n        /* \"contracts/mirrorseaMain.sol\":10300:10338  mintAmt.mul(feePercent).div(PRECISION) */\n    tag_535:\n        /* \"contracts/mirrorseaMain.sol\":10373:10376  usc */\n      sload(0x67)\n        /* \"contracts/mirrorseaMain.sol\":10392:10403  helperLogic */\n      sload(0x68)\n        /* \"contracts/mirrorseaMain.sol\":10360:10410  IUSC(address(usc)).mint(address(helperLogic), fee) */\n      mload(0x40)\n      shl(0xe0, 0x40c10f19)\n      dup2\n      mstore\n        /* \"contracts/mirrorseaMain.sol\":10286:10338  uint256 fee = mintAmt.mul(feePercent).div(PRECISION) */\n      swap3\n      swap4\n      pop\n      sub(shl(0xa0, 0x01), 0x01)\n        /* \"contracts/mirrorseaMain.sol\":10373:10376  usc */\n      swap2\n      dup3\n      and\n      swap3\n        /* \"contracts/mirrorseaMain.sol\":10360:10383  IUSC(address(usc)).mint */\n      0x40c10f19\n      swap3\n        /* \"contracts/mirrorseaMain.sol\":10360:10410  IUSC(address(usc)).mint(address(helperLogic), fee) */\n      tag_537\n      swap3\n        /* \"contracts/mirrorseaMain.sol\":10392:10403  helperLogic */\n      and\n      swap1\n        /* \"contracts/mirrorseaMain.sol\":10286:10338  uint256 fee = mintAmt.mul(feePercent).div(PRECISION) */\n      dup6\n      swap1\n        /* \"contracts/mirrorseaMain.sol\":10360:10410  IUSC(address(usc)).mint(address(helperLogic), fee) */\n      0x04\n      add\n      tag_335\n      jump\t// in\n    tag_537:\n      0x20\n      mload(0x40)\n      dup1\n      dup4\n      sub\n      dup2\n      0x00\n      dup8\n      dup1\n      extcodesize\n      iszero\n      dup1\n      iszero\n      tag_538\n      jumpi\n      0x00\n      dup1\n      revert\n    tag_538:\n      pop\n      gas\n      call\n      iszero\n      dup1\n      iszero\n      tag_540\n      jumpi\n      returndatasize\n      0x00\n      dup1\n      returndatacopy\n      revert(0x00, returndatasize)\n    tag_540:\n      pop\n      pop\n      pop\n      pop\n      mload(0x40)\n      returndatasize\n      not(0x1f)\n      0x1f\n      dup3\n      add\n      and\n      dup3\n      add\n      dup1\n      0x40\n      mstore\n      pop\n      dup2\n      add\n      swap1\n      tag_541\n      swap2\n      swap1\n      tag_301\n      jump\t// in\n    tag_541:\n      pop\n        /* \"contracts/mirrorseaMain.sol\":10445:10448  usc */\n      sload(0x67)\n        /* \"contracts/mirrorseaMain.sol\":10456:10466  order.user */\n      dup13\n      sload\n      sub(shl(0xa0, 0x01), 0x01)\n        /* \"contracts/mirrorseaMain.sol\":10445:10448  usc */\n      swap2\n      dup3\n      and\n      swap2\n        /* \"contracts/mirrorseaMain.sol\":10432:10455  IUSC(address(usc)).mint */\n      0x40c10f19\n      swap2\n        /* \"contracts/mirrorseaMain.sol\":10456:10466  order.user */\n      and\n        /* \"contracts/mirrorseaMain.sol\":10468:10484  mintAmt.sub(fee) */\n      tag_542\n        /* \"contracts/mirrorseaMain.sol\":10468:10475  mintAmt */\n      dup6\n        /* \"contracts/mirrorseaMain.sol\":10480:10483  fee */\n      dup6\n        /* \"contracts/mirrorseaMain.sol\":10468:10479  mintAmt.sub */\n      tag_192\n        /* \"contracts/mirrorseaMain.sol\":10468:10484  mintAmt.sub(fee) */\n      jump\t// in\n    tag_542:\n        /* \"contracts/mirrorseaMain.sol\":10432:10485  IUSC(address(usc)).mint(order.user, mintAmt.sub(fee)) */\n      mload(0x40)\n      dup4\n      0xffffffff\n      and\n      0xe0\n      shl\n      dup2\n      mstore\n      0x04\n      add\n      tag_543\n      swap3\n      swap2\n      swap1\n      tag_335\n      jump\t// in\n    tag_543:\n      0x20\n      mload(0x40)\n      dup1\n      dup4\n      sub\n      dup2\n      0x00\n      dup8\n      dup1\n      extcodesize\n      iszero\n      dup1\n      iszero\n      tag_544\n      jumpi\n      0x00\n      dup1\n      revert\n    tag_544:\n      pop\n      gas\n      call\n      iszero\n      dup1\n      iszero\n      tag_546\n      jumpi\n      returndatasize\n      0x00\n      dup1\n      returndatacopy\n      revert(0x00, returndatasize)\n    tag_546:\n      pop\n      pop\n      pop\n      pop\n      mload(0x40)\n      returndatasize\n      not(0x1f)\n      0x1f\n      dup3\n      add\n      and\n      dup3\n      add\n      dup1\n      0x40\n      mstore\n      pop\n      dup2\n      add\n      swap1\n      tag_547\n      swap2\n      swap1\n      tag_301\n      jump\t// in\n    tag_547:\n      pop\n        /* \"contracts/mirrorseaMain.sol\":10115:10504  if (diffMargin > order.margin) {... */\n      pop\n    tag_533:\n        /* \"contracts/mirrorseaMain.sol\":10538:10549  helperLogic */\n      0x68\n      0x00\n      swap1\n      sload\n      swap1\n      0x0100\n      exp\n      swap1\n      div\n      sub(shl(0xa0, 0x01), 0x01)\n      and\n      sub(shl(0xa0, 0x01), 0x01)\n        /* \"contracts/mirrorseaMain.sol\":10538:10564  helperLogic.jointExecution */\n      and\n      0xd10c06a2\n        /* \"contracts/mirrorseaMain.sol\":10538:10566  helperLogic.jointExecution() */\n      mload(0x40)\n      dup2\n      0xffffffff\n      and\n      0xe0\n      shl\n      dup2\n      mstore\n      0x04\n      add\n      0x20\n      mload(0x40)\n      dup1\n      dup4\n      sub\n      dup2\n      0x00\n      dup8\n      dup1\n      extcodesize\n      iszero\n      dup1\n      iszero\n      tag_548\n      jumpi\n      0x00\n      dup1\n      revert\n    tag_548:\n      pop\n      gas\n      call\n      iszero\n      dup1\n      iszero\n      tag_550\n      jumpi\n      returndatasize\n      0x00\n      dup1\n      returndatacopy\n      revert(0x00, returndatasize)\n    tag_550:\n      pop\n      pop\n      pop\n      pop\n      mload(0x40)\n      returndatasize\n      not(0x1f)\n      0x1f\n      dup3\n      add\n      and\n      dup3\n      add\n      dup1\n      0x40\n      mstore\n      pop\n      dup2\n      add\n      swap1\n      tag_551\n      swap2\n      swap1\n      tag_301\n      jump\t// in\n    tag_551:\n      pop\n        /* \"contracts/mirrorseaMain.sol\":10577:10588  order.state */\n      0x03\n      dup12\n      add\n        /* \"contracts/mirrorseaMain.sol\":10577:10597  order.state = _state */\n      dup11\n      swap1\n      sstore\n        /* \"contracts/mirrorseaMain.sol\":10607:10625  order.closePrice18 */\n      0x07\n      dup12\n      add\n        /* \"contracts/mirrorseaMain.sol\":10607:10636  order.closePrice18 = _price18 */\n      dup7\n      swap1\n      sstore\n        /* \"contracts/mirrorseaMain.sol\":10646:10661  order.closeTime */\n      0x08\n      dup12\n      add\n        /* \"contracts/mirrorseaMain.sol\":10646:10674  order.closeTime = _timestamp */\n      dup9\n      swap1\n      sstore\n        /* \"contracts/mirrorseaMain.sol\":10685:10741  cutListItem(_id, openOrderIdList_index, openOrderIdList) */\n      tag_552\n        /* \"contracts/mirrorseaMain.sol\":10697:10700  _id */\n      dup10\n        /* \"contracts/mirrorseaMain.sol\":10702:10723  openOrderIdList_index */\n      0x6d\n        /* \"contracts/mirrorseaMain.sol\":10725:10740  openOrderIdList */\n      0x6c\n        /* \"contracts/mirrorseaMain.sol\":10685:10696  cutListItem */\n      tag_553\n        /* \"contracts/mirrorseaMain.sol\":10685:10741  cutListItem(_id, openOrderIdList_index, openOrderIdList) */\n      jump\t// in\n    tag_552:\n        /* \"contracts/mirrorseaMain.sol\":10817:10827  msg.sender */\n      caller\n        /* \"contracts/mirrorseaMain.sol\":10793:10828  myOpenOrderIdList_index[msg.sender] */\n      0x00\n      swap1\n      dup2\n      mstore\n        /* \"contracts/mirrorseaMain.sol\":10793:10816  myOpenOrderIdList_index */\n      0x6f\n        /* \"contracts/mirrorseaMain.sol\":10793:10828  myOpenOrderIdList_index[msg.sender] */\n      0x20\n      swap1\n      dup2\n      mstore\n      0x40\n      dup1\n      dup4\n      keccak256\n        /* \"contracts/mirrorseaMain.sol\":10842:10859  myOpenOrderIdList */\n      0x6e\n        /* \"contracts/mirrorseaMain.sol\":10842:10871  myOpenOrderIdList[msg.sender] */\n      swap1\n      swap3\n      mstore\n      swap1\n      swap2\n      keccak256\n        /* \"contracts/mirrorseaMain.sol\":10751:10881  cutListItem(... */\n      tag_554\n      swap2\n        /* \"contracts/mirrorseaMain.sol\":10776:10779  _id */\n      dup12\n      swap2\n        /* \"contracts/mirrorseaMain.sol\":10751:10762  cutListItem */\n      tag_553\n        /* \"contracts/mirrorseaMain.sol\":10751:10881  cutListItem(... */\n      jump\t// in\n    tag_554:\n        /* \"contracts/mirrorseaMain.sol\":10911:10921  msg.sender */\n      caller\n        /* \"contracts/mirrorseaMain.sol\":10892:10922  myCloseOrderIdList[msg.sender] */\n      0x00\n      dup2\n      dup2\n      mstore\n        /* \"contracts/mirrorseaMain.sol\":10892:10910  myCloseOrderIdList */\n      0x70\n        /* \"contracts/mirrorseaMain.sol\":10892:10922  myCloseOrderIdList[msg.sender] */\n      0x20\n      swap1\n      dup2\n      mstore\n      0x40\n      dup3\n      keccak256\n        /* \"contracts/mirrorseaMain.sol\":10892:10932  myCloseOrderIdList[msg.sender].push(_id) */\n      dup1\n      sload\n      0x01\n      dup2\n      dup2\n      add\n      dup4\n      sstore\n      swap2\n      dup5\n      mstore\n      swap2\n      swap1\n      swap3\n      keccak256\n      add\n      dup12\n      swap1\n      sstore\n        /* \"contracts/mirrorseaMain.sol\":10987:11052  myCloseOrderIdListLength(... */\n      tag_556\n      swap2\n        /* \"contracts/mirrorseaMain.sol\":10987:11045  myCloseOrderIdListLength(... */\n      tag_190\n      swap1\n        /* \"contracts/mirrorseaMain.sol\":10987:11011  myCloseOrderIdListLength */\n      tag_135\n        /* \"contracts/mirrorseaMain.sol\":10987:11045  myCloseOrderIdListLength(... */\n      jump\t// in\n        /* \"contracts/mirrorseaMain.sol\":10987:11052  myCloseOrderIdListLength(... */\n    tag_556:\n        /* \"contracts/mirrorseaMain.sol\":10968:10978  msg.sender */\n      caller\n        /* \"contracts/mirrorseaMain.sol\":10943:10979  myCloseOrderIdList_index[msg.sender] */\n      0x00\n      swap1\n      dup2\n      mstore\n        /* \"contracts/mirrorseaMain.sol\":10943:10967  myCloseOrderIdList_index */\n      0x71\n        /* \"contracts/mirrorseaMain.sol\":10943:10979  myCloseOrderIdList_index[msg.sender] */\n      0x20\n      swap1\n      dup2\n      mstore\n      0x40\n      dup1\n      dup4\n      keccak256\n        /* \"contracts/mirrorseaMain.sol\":10943:10984  myCloseOrderIdList_index[msg.sender][_id] */\n      dup14\n      dup5\n      mstore\n      swap1\n      swap2\n      mstore\n      swap1\n      keccak256\n        /* \"contracts/mirrorseaMain.sol\":10943:11052  myCloseOrderIdList_index[msg.sender][_id] = myCloseOrderIdListLength(... */\n      sstore\n      pop\n        /* \"contracts/mirrorseaMain.sol\":11380:11384  true */\n      0x01\n      swap3\n      pop\n      pop\n      pop\n        /* \"contracts/mirrorseaMain.sol\":7638:11391  function _closePosition(... */\n      swap9\n      swap8\n      pop\n      pop\n      pop\n      pop\n      pop\n      pop\n      pop\n      pop\n      jump\t// out\n        /* \"@openzeppelin/contracts-upgradeable/access/OwnableUpgradeable.sol\":2536:2723  function _transferOwnership(address newOwner) internal virtual {... */\n    tag_275:\n        /* \"@openzeppelin/contracts-upgradeable/access/OwnableUpgradeable.sol\":2628:2634  _owner */\n      0x33\n      dup1\n      sload\n      sub(shl(0xa0, 0x01), 0x01)\n        /* \"@openzeppelin/contracts-upgradeable/access/OwnableUpgradeable.sol\":2644:2661  _owner = newOwner */\n      dup4\n      dup2\n      and\n      not(sub(shl(0xa0, 0x01), 0x01))\n      dup4\n      and\n      dup2\n      or\n      swap1\n      swap4\n      sstore\n        /* \"@openzeppelin/contracts-upgradeable/access/OwnableUpgradeable.sol\":2676:2716  OwnershipTransferred(oldOwner, newOwner) */\n      mload(0x40)\n        /* \"@openzeppelin/contracts-upgradeable/access/OwnableUpgradeable.sol\":2628:2634  _owner */\n      swap2\n      and\n      swap2\n        /* \"@openzeppelin/contracts-upgradeable/access/OwnableUpgradeable.sol\":2644:2661  _owner = newOwner */\n      swap1\n        /* \"@openzeppelin/contracts-upgradeable/access/OwnableUpgradeable.sol\":2628:2634  _owner */\n      dup3\n      swap1\n        /* \"@openzeppelin/contracts-upgradeable/access/OwnableUpgradeable.sol\":2676:2716  OwnershipTransferred(oldOwner, newOwner) */\n      0x8be0079c531659141344cd1fd0a4f28419497f9722a3daafe3b4186f6b6457e0\n      swap1\n        /* \"@openzeppelin/contracts-upgradeable/access/OwnableUpgradeable.sol\":2609:2625  address oldOwner */\n      0x00\n      swap1\n        /* \"@openzeppelin/contracts-upgradeable/access/OwnableUpgradeable.sol\":2676:2716  OwnershipTransferred(oldOwner, newOwner) */\n      log3\n        /* \"@openzeppelin/contracts-upgradeable/access/OwnableUpgradeable.sol\":2536:2723  function _transferOwnership(address newOwner) internal virtual {... */\n      pop\n      pop\n      jump\t// out\n        /* \"@openzeppelin/contracts-upgradeable/utils/math/SafeMathUpgradeable.sol\":3847:3943  function div(uint256 a, uint256 b) internal pure returns (uint256) {... */\n    tag_313:\n        /* \"@openzeppelin/contracts-upgradeable/utils/math/SafeMathUpgradeable.sol\":3905:3912  uint256 */\n      0x00\n        /* \"@openzeppelin/contracts-upgradeable/utils/math/SafeMathUpgradeable.sol\":3931:3936  a / b */\n      tag_429\n        /* \"@openzeppelin/contracts-upgradeable/utils/math/SafeMathUpgradeable.sol\":3935:3936  b */\n      dup3\n        /* \"@openzeppelin/contracts-upgradeable/utils/math/SafeMathUpgradeable.sol\":3931:3932  a */\n      dup5\n        /* \"@openzeppelin/contracts-upgradeable/utils/math/SafeMathUpgradeable.sol\":3931:3936  a / b */\n      tag_561\n      jump\t// in\n        /* \"@openzeppelin/contracts-upgradeable/utils/math/SafeMathUpgradeable.sol\":2752:2848  function add(uint256 a, uint256 b) internal pure returns (uint256) {... */\n    tag_320:\n        /* \"@openzeppelin/contracts-upgradeable/utils/math/SafeMathUpgradeable.sol\":2810:2817  uint256 */\n      0x00\n        /* \"@openzeppelin/contracts-upgradeable/utils/math/SafeMathUpgradeable.sol\":2836:2841  a + b */\n      tag_429\n        /* \"@openzeppelin/contracts-upgradeable/utils/math/SafeMathUpgradeable.sol\":2840:2841  b */\n      dup3\n        /* \"@openzeppelin/contracts-upgradeable/utils/math/SafeMathUpgradeable.sol\":2836:2837  a */\n      dup5\n        /* \"@openzeppelin/contracts-upgradeable/utils/math/SafeMathUpgradeable.sol\":2836:2841  a + b */\n      tag_446\n      jump\t// in\n        /* \"@openzeppelin/contracts-upgradeable/token/ERC20/utils/SafeERC20Upgradeable.sol\":967:1219  function safeTransferFrom(... */\n    tag_326:\n        /* \"@openzeppelin/contracts-upgradeable/token/ERC20/utils/SafeERC20Upgradeable.sol\":1116:1212  _callOptionalReturn(token, abi.encodeWithSelector(token.transferFrom.selector, from, to, value)) */\n      tag_565\n        /* \"@openzeppelin/contracts-upgradeable/token/ERC20/utils/SafeERC20Upgradeable.sol\":1136:1141  token */\n      dup5\n        /* \"@openzeppelin/contracts-upgradeable/token/ERC20/utils/SafeERC20Upgradeable.sol\":1166:1193  token.transferFrom.selector */\n      shl(0xe0, 0x23b872dd)\n        /* \"@openzeppelin/contracts-upgradeable/token/ERC20/utils/SafeERC20Upgradeable.sol\":1195:1199  from */\n      dup6\n        /* \"@openzeppelin/contracts-upgradeable/token/ERC20/utils/SafeERC20Upgradeable.sol\":1201:1203  to */\n      dup6\n        /* \"@openzeppelin/contracts-upgradeable/token/ERC20/utils/SafeERC20Upgradeable.sol\":1205:1210  value */\n      dup6\n        /* \"@openzeppelin/contracts-upgradeable/token/ERC20/utils/SafeERC20Upgradeable.sol\":1143:1211  abi.encodeWithSelector(token.transferFrom.selector, from, to, value) */\n      add(0x24, mload(0x40))\n      tag_566\n      swap4\n      swap3\n      swap2\n      swap1\n      tag_567\n      jump\t// in\n    tag_566:\n      0x40\n      dup1\n      mload\n      not(0x1f)\n      dup2\n      dup5\n      sub\n      add\n      dup2\n      mstore\n      swap2\n      swap1\n      mstore\n      0x20\n      dup2\n      add\n      dup1\n      mload\n      sub(shl(0xe0, 0x01), 0x01)\n      and\n      not(sub(shl(0xe0, 0x01), 0x01))\n      swap1\n      swap4\n      and\n      swap3\n      swap1\n      swap3\n      or\n      swap1\n      swap2\n      mstore\n        /* \"@openzeppelin/contracts-upgradeable/token/ERC20/utils/SafeERC20Upgradeable.sol\":1116:1135  _callOptionalReturn */\n      tag_568\n        /* \"@openzeppelin/contracts-upgradeable/token/ERC20/utils/SafeERC20Upgradeable.sol\":1116:1212  _callOptionalReturn(token, abi.encodeWithSelector(token.transferFrom.selector, from, to, value)) */\n      jump\t// in\n    tag_565:\n        /* \"@openzeppelin/contracts-upgradeable/token/ERC20/utils/SafeERC20Upgradeable.sol\":967:1219  function safeTransferFrom(... */\n      pop\n      pop\n      pop\n      pop\n      jump\t// out\n        /* \"@openzeppelin/contracts-upgradeable/token/ERC20/utils/SafeERC20Upgradeable.sol\":745:961  function safeTransfer(... */\n    tag_346:\n        /* \"@openzeppelin/contracts-upgradeable/token/ERC20/utils/SafeERC20Upgradeable.sol\":868:954  _callOptionalReturn(token, abi.encodeWithSelector(token.transfer.selector, to, value)) */\n      tag_570\n        /* \"@openzeppelin/contracts-upgradeable/token/ERC20/utils/SafeERC20Upgradeable.sol\":888:893  token */\n      dup4\n        /* \"@openzeppelin/contracts-upgradeable/token/ERC20/utils/SafeERC20Upgradeable.sol\":918:941  token.transfer.selector */\n      shl(0xe0, 0xa9059cbb)\n        /* \"@openzeppelin/contracts-upgradeable/token/ERC20/utils/SafeERC20Upgradeable.sol\":943:945  to */\n      dup5\n        /* \"@openzeppelin/contracts-upgradeable/token/ERC20/utils/SafeERC20Upgradeable.sol\":947:952  value */\n      dup5\n        /* \"@openzeppelin/contracts-upgradeable/token/ERC20/utils/SafeERC20Upgradeable.sol\":895:953  abi.encodeWithSelector(token.transfer.selector, to, value) */\n      add(0x24, mload(0x40))\n      tag_566\n      swap3\n      swap2\n      swap1\n      tag_335\n      jump\t// in\n        /* \"@openzeppelin/contracts-upgradeable/token/ERC20/utils/SafeERC20Upgradeable.sol\":868:954  _callOptionalReturn(token, abi.encodeWithSelector(token.transfer.selector, to, value)) */\n    tag_570:\n        /* \"@openzeppelin/contracts-upgradeable/token/ERC20/utils/SafeERC20Upgradeable.sol\":745:961  function safeTransfer(... */\n      pop\n      pop\n      pop\n      jump\t// out\n        /* \"@openzeppelin/contracts-upgradeable/access/OwnableUpgradeable.sol\":988:1114  function __Ownable_init() internal initializer {... */\n    tag_419:\n        /* \"@openzeppelin/contracts-upgradeable/proxy/utils/Initializable.sol\":539:552  _initializing */\n      sload(0x00)\n      0x0100\n      swap1\n      div\n      0xff\n      and\n      dup1\n        /* \"@openzeppelin/contracts-upgradeable/proxy/utils/Initializable.sol\":539:569  _initializing || !_initialized */\n      tag_573\n      jumpi\n      pop\n        /* \"@openzeppelin/contracts-upgradeable/proxy/utils/Initializable.sol\":557:569  _initialized */\n      and(0xff, sload(0x00))\n        /* \"@openzeppelin/contracts-upgradeable/proxy/utils/Initializable.sol\":556:569  !_initialized */\n      iszero\n        /* \"@openzeppelin/contracts-upgradeable/proxy/utils/Initializable.sol\":539:569  _initializing || !_initialized */\n    tag_573:\n        /* \"@openzeppelin/contracts-upgradeable/proxy/utils/Initializable.sol\":531:620  require(_initializing || !_initialized, \"Initializable: contract is already initialized\") */\n      tag_574\n      jumpi\n      mload(0x40)\n      shl(0xe5, 0x461bcd)\n      dup2\n      mstore\n      0x04\n      add\n      tag_198\n      swap1\n      tag_415\n      jump\t// in\n    tag_574:\n        /* \"@openzeppelin/contracts-upgradeable/proxy/utils/Initializable.sol\":631:650  bool isTopLevelCall */\n      0x00\n        /* \"@openzeppelin/contracts-upgradeable/proxy/utils/Initializable.sol\":654:667  _initializing */\n      sload\n      0x0100\n      swap1\n      div\n      0xff\n      and\n        /* \"@openzeppelin/contracts-upgradeable/proxy/utils/Initializable.sol\":653:667  !_initializing */\n      iszero\n        /* \"@openzeppelin/contracts-upgradeable/proxy/utils/Initializable.sol\":677:775  if (isTopLevelCall) {... */\n      dup1\n      iszero\n      tag_576\n      jumpi\n        /* \"@openzeppelin/contracts-upgradeable/proxy/utils/Initializable.sol\":711:724  _initializing */\n      0x00\n        /* \"@openzeppelin/contracts-upgradeable/proxy/utils/Initializable.sol\":711:731  _initializing = true */\n      dup1\n      sload\n      not(0xff)\n      not(0xff00)\n      swap1\n      swap2\n      and\n      0x0100\n      or\n        /* \"@openzeppelin/contracts-upgradeable/proxy/utils/Initializable.sol\":745:764  _initialized = true */\n      and\n        /* \"@openzeppelin/contracts-upgradeable/proxy/utils/Initializable.sol\":727:731  true */\n      0x01\n        /* \"@openzeppelin/contracts-upgradeable/proxy/utils/Initializable.sol\":745:764  _initialized = true */\n      or\n      swap1\n      sstore\n        /* \"@openzeppelin/contracts-upgradeable/proxy/utils/Initializable.sol\":677:775  if (isTopLevelCall) {... */\n    tag_576:\n        /* \"@openzeppelin/contracts-upgradeable/access/OwnableUpgradeable.sol\":1045:1071  __Context_init_unchained() */\n      tag_578\n        /* \"@openzeppelin/contracts-upgradeable/access/OwnableUpgradeable.sol\":1045:1069  __Context_init_unchained */\n      tag_579\n        /* \"@openzeppelin/contracts-upgradeable/access/OwnableUpgradeable.sol\":1045:1071  __Context_init_unchained() */\n      jump\t// in\n    tag_578:\n        /* \"@openzeppelin/contracts-upgradeable/access/OwnableUpgradeable.sol\":1081:1107  __Ownable_init_unchained() */\n      tag_580\n        /* \"@openzeppelin/contracts-upgradeable/access/OwnableUpgradeable.sol\":1081:1105  __Ownable_init_unchained */\n      tag_581\n        /* \"@openzeppelin/contracts-upgradeable/access/OwnableUpgradeable.sol\":1081:1107  __Ownable_init_unchained() */\n      jump\t// in\n    tag_580:\n        /* \"@openzeppelin/contracts-upgradeable/proxy/utils/Initializable.sol\":801:815  isTopLevelCall */\n      dup1\n        /* \"@openzeppelin/contracts-upgradeable/proxy/utils/Initializable.sol\":797:863  if (isTopLevelCall) {... */\n      iszero\n      tag_410\n      jumpi\n        /* \"@openzeppelin/contracts-upgradeable/proxy/utils/Initializable.sol\":847:852  false */\n      0x00\n        /* \"@openzeppelin/contracts-upgradeable/proxy/utils/Initializable.sol\":831:852  _initializing = false */\n      dup1\n      sload\n      not(0xff00)\n      and\n      swap1\n      sstore\n        /* \"@openzeppelin/contracts-upgradeable/access/OwnableUpgradeable.sol\":988:1114  function __Ownable_init() internal initializer {... */\n      pop\n      jump\t// out\n        /* \"contracts/mirrorseaMain.sol\":11995:12375  function cutListItem(... */\n    tag_553:\n        /* \"contracts/mirrorseaMain.sol\":12152:12168  uint256 delIndex */\n      0x00\n        /* \"contracts/mirrorseaMain.sol\":12171:12187  _List_index[_id] */\n      dup4\n      dup2\n      mstore\n      0x20\n      dup4\n      swap1\n      mstore\n      0x40\n      dup2\n      keccak256\n      sload\n        /* \"contracts/mirrorseaMain.sol\":12220:12232  _List.length */\n      dup3\n      sload\n        /* \"contracts/mirrorseaMain.sol\":12171:12187  _List_index[_id] */\n      swap1\n      swap2\n        /* \"contracts/mirrorseaMain.sol\":12152:12168  uint256 delIndex */\n      swap1\n        /* \"contracts/mirrorseaMain.sol\":12214:12219  _List */\n      dup4\n      swap1\n        /* \"contracts/mirrorseaMain.sol\":12220:12239  _List.length.sub(1) */\n      tag_584\n      swap1\n        /* \"contracts/mirrorseaMain.sol\":12237:12238  1 */\n      0x01\n        /* \"contracts/mirrorseaMain.sol\":12220:12236  _List.length.sub */\n      tag_192\n        /* \"contracts/mirrorseaMain.sol\":12220:12239  _List.length.sub(1) */\n      jump\t// in\n    tag_584:\n        /* \"contracts/mirrorseaMain.sol\":12214:12240  _List[_List.length.sub(1)] */\n      dup2\n      sload\n      dup2\n      lt\n      tag_585\n      jumpi\n      mstore(0x00, shl(0xe0, 0x4e487b71))\n      mstore(0x04, 0x32)\n      revert(0x00, 0x24)\n    tag_585:\n      swap1\n      0x00\n      mstore\n      keccak256(0x00, 0x20)\n      add\n      sload\n        /* \"contracts/mirrorseaMain.sol\":12197:12240  uint256 lastID = _List[_List.length.sub(1)] */\n      swap1\n      pop\n        /* \"contracts/mirrorseaMain.sol\":12272:12280  delIndex */\n      dup2\n        /* \"contracts/mirrorseaMain.sol\":12250:12261  _List_index */\n      dup5\n        /* \"contracts/mirrorseaMain.sol\":12250:12269  _List_index[lastID] */\n      0x00\n        /* \"contracts/mirrorseaMain.sol\":12262:12268  lastID */\n      dup4\n        /* \"contracts/mirrorseaMain.sol\":12250:12269  _List_index[lastID] */\n      dup2\n      mstore\n      0x20\n      add\n      swap1\n      dup2\n      mstore\n      0x20\n      add\n      0x00\n      keccak256\n        /* \"contracts/mirrorseaMain.sol\":12250:12280  _List_index[lastID] = delIndex */\n      dup2\n      swap1\n      sstore\n      pop\n        /* \"contracts/mirrorseaMain.sol\":12308:12314  lastID */\n      dup1\n        /* \"contracts/mirrorseaMain.sol\":12290:12295  _List */\n      dup4\n        /* \"contracts/mirrorseaMain.sol\":12296:12304  delIndex */\n      dup4\n        /* \"contracts/mirrorseaMain.sol\":12290:12305  _List[delIndex] */\n      dup2\n      sload\n      dup2\n      lt\n      tag_587\n      jumpi\n      mstore(0x00, shl(0xe0, 0x4e487b71))\n      mstore(0x04, 0x32)\n      revert(0x00, 0x24)\n    tag_587:\n      0x00\n      swap2\n      dup3\n      mstore\n      0x20\n      dup1\n      dup4\n      keccak256\n      swap1\n      swap2\n      add\n        /* \"contracts/mirrorseaMain.sol\":12290:12314  _List[delIndex] = lastID */\n      swap3\n      swap1\n      swap3\n      sstore\n        /* \"contracts/mirrorseaMain.sol\":12331:12347  _List_index[_id] */\n      dup7\n      dup2\n      mstore\n      swap1\n      dup6\n      swap1\n      mstore\n      0x40\n      dup2\n      keccak256\n        /* \"contracts/mirrorseaMain.sol\":12324:12347  delete _List_index[_id] */\n      sstore\n        /* \"contracts/mirrorseaMain.sol\":12357:12368  _List.pop() */\n      dup3\n      sload\n        /* \"contracts/mirrorseaMain.sol\":12357:12362  _List */\n      dup4\n      swap1\n        /* \"contracts/mirrorseaMain.sol\":12357:12368  _List.pop() */\n      dup1\n      tag_589\n      jumpi\n      mstore(0x00, shl(0xe0, 0x4e487b71))\n      mstore(0x04, 0x31)\n      revert(0x00, 0x24)\n    tag_589:\n      0x01\n      swap1\n      sub\n      dup2\n      dup2\n      swap1\n      0x00\n      mstore\n      keccak256(0x00, 0x20)\n      add\n      0x00\n      swap1\n      sstore\n      swap1\n      sstore\n        /* \"contracts/mirrorseaMain.sol\":11995:12375  function cutListItem(... */\n      pop\n      pop\n      pop\n      pop\n      pop\n      jump\t// out\n        /* \"@openzeppelin/contracts-upgradeable/token/ERC20/utils/SafeERC20Upgradeable.sol\":3306:4023  function _callOptionalReturn(IERC20Upgradeable token, bytes memory data) private {... */\n    tag_568:\n        /* \"@openzeppelin/contracts-upgradeable/token/ERC20/utils/SafeERC20Upgradeable.sol\":3736:3759  bytes memory returndata */\n      0x00\n        /* \"@openzeppelin/contracts-upgradeable/token/ERC20/utils/SafeERC20Upgradeable.sol\":3762:3831  address(token).functionCall(data, \"SafeERC20: low-level call failed\") */\n      tag_592\n        /* \"@openzeppelin/contracts-upgradeable/token/ERC20/utils/SafeERC20Upgradeable.sol\":3790:3794  data */\n      dup3\n        /* \"@openzeppelin/contracts-upgradeable/token/ERC20/utils/SafeERC20Upgradeable.sol\":3762:3831  address(token).functionCall(data, \"SafeERC20: low-level call failed\") */\n      mload(0x40)\n      dup1\n      0x40\n      add\n      0x40\n      mstore\n      dup1\n      0x20\n      dup2\n      mstore\n      0x20\n      add\n      0x5361666545524332303a206c6f772d6c6576656c2063616c6c206661696c6564\n      dup2\n      mstore\n      pop\n        /* \"@openzeppelin/contracts-upgradeable/token/ERC20/utils/SafeERC20Upgradeable.sol\":3770:3775  token */\n      dup6\n      sub(shl(0xa0, 0x01), 0x01)\n        /* \"@openzeppelin/contracts-upgradeable/token/ERC20/utils/SafeERC20Upgradeable.sol\":3762:3789  address(token).functionCall */\n      and\n      tag_593\n      swap1\n        /* \"@openzeppelin/contracts-upgradeable/token/ERC20/utils/SafeERC20Upgradeable.sol\":3762:3831  address(token).functionCall(data, \"SafeERC20: low-level call failed\") */\n      swap3\n      swap2\n      swap1\n      0xffffffff\n      and\n      jump\t// in\n    tag_592:\n        /* \"@openzeppelin/contracts-upgradeable/token/ERC20/utils/SafeERC20Upgradeable.sol\":3845:3862  returndata.length */\n      dup1\n      mload\n        /* \"@openzeppelin/contracts-upgradeable/token/ERC20/utils/SafeERC20Upgradeable.sol\":3736:3831  bytes memory returndata = address(token).functionCall(data, \"SafeERC20: low-level call failed\") */\n      swap1\n      swap2\n      pop\n        /* \"@openzeppelin/contracts-upgradeable/token/ERC20/utils/SafeERC20Upgradeable.sol\":3845:3866  returndata.length > 0 */\n      iszero\n        /* \"@openzeppelin/contracts-upgradeable/token/ERC20/utils/SafeERC20Upgradeable.sol\":3841:4017  if (returndata.length > 0) {... */\n      tag_570\n      jumpi\n        /* \"@openzeppelin/contracts-upgradeable/token/ERC20/utils/SafeERC20Upgradeable.sol\":3940:3950  returndata */\n      dup1\n        /* \"@openzeppelin/contracts-upgradeable/token/ERC20/utils/SafeERC20Upgradeable.sol\":3929:3959  abi.decode(returndata, (bool)) */\n      dup1\n      0x20\n      add\n      swap1\n      mload\n      dup2\n      add\n      swap1\n      tag_595\n      swap2\n      swap1\n      tag_301\n      jump\t// in\n    tag_595:\n        /* \"@openzeppelin/contracts-upgradeable/token/ERC20/utils/SafeERC20Upgradeable.sol\":3921:4006  require(abi.decode(returndata, (bool)), \"SafeERC20: ERC20 operation did not succeed\") */\n      tag_570\n      jumpi\n      mload(0x40)\n      shl(0xe5, 0x461bcd)\n      dup2\n      mstore\n      0x04\n      add\n      tag_198\n      swap1\n      tag_598\n      jump\t// in\n        /* \"@openzeppelin/contracts-upgradeable/utils/ContextUpgradeable.sol\":807:871  function __Context_init_unchained() internal initializer {... */\n    tag_579:\n        /* \"@openzeppelin/contracts-upgradeable/proxy/utils/Initializable.sol\":539:552  _initializing */\n      sload(0x00)\n      0x0100\n      swap1\n      div\n      0xff\n      and\n      dup1\n        /* \"@openzeppelin/contracts-upgradeable/proxy/utils/Initializable.sol\":539:569  _initializing || !_initialized */\n      tag_600\n      jumpi\n      pop\n        /* \"@openzeppelin/contracts-upgradeable/proxy/utils/Initializable.sol\":557:569  _initialized */\n      and(0xff, sload(0x00))\n        /* \"@openzeppelin/contracts-upgradeable/proxy/utils/Initializable.sol\":556:569  !_initialized */\n      iszero\n        /* \"@openzeppelin/contracts-upgradeable/proxy/utils/Initializable.sol\":539:569  _initializing || !_initialized */\n    tag_600:\n        /* \"@openzeppelin/contracts-upgradeable/proxy/utils/Initializable.sol\":531:620  require(_initializing || !_initialized, \"Initializable: contract is already initialized\") */\n      tag_601\n      jumpi\n      mload(0x40)\n      shl(0xe5, 0x461bcd)\n      dup2\n      mstore\n      0x04\n      add\n      tag_198\n      swap1\n      tag_415\n      jump\t// in\n    tag_601:\n        /* \"@openzeppelin/contracts-upgradeable/proxy/utils/Initializable.sol\":631:650  bool isTopLevelCall */\n      0x00\n        /* \"@openzeppelin/contracts-upgradeable/proxy/utils/Initializable.sol\":654:667  _initializing */\n      sload\n      0x0100\n      swap1\n      div\n      0xff\n      and\n        /* \"@openzeppelin/contracts-upgradeable/proxy/utils/Initializable.sol\":653:667  !_initializing */\n      iszero\n        /* \"@openzeppelin/contracts-upgradeable/proxy/utils/Initializable.sol\":677:775  if (isTopLevelCall) {... */\n      dup1\n      iszero\n      tag_580\n      jumpi\n        /* \"@openzeppelin/contracts-upgradeable/proxy/utils/Initializable.sol\":711:724  _initializing */\n      0x00\n        /* \"@openzeppelin/contracts-upgradeable/proxy/utils/Initializable.sol\":711:731  _initializing = true */\n      dup1\n      sload\n      not(0xff)\n      not(0xff00)\n      swap1\n      swap2\n      and\n      0x0100\n      or\n        /* \"@openzeppelin/contracts-upgradeable/proxy/utils/Initializable.sol\":745:764  _initialized = true */\n      and\n        /* \"@openzeppelin/contracts-upgradeable/proxy/utils/Initializable.sol\":727:731  true */\n      0x01\n        /* \"@openzeppelin/contracts-upgradeable/proxy/utils/Initializable.sol\":745:764  _initialized = true */\n      or\n      swap1\n      sstore\n        /* \"@openzeppelin/contracts-upgradeable/proxy/utils/Initializable.sol\":801:815  isTopLevelCall */\n      dup1\n        /* \"@openzeppelin/contracts-upgradeable/proxy/utils/Initializable.sol\":797:863  if (isTopLevelCall) {... */\n      iszero\n      tag_410\n      jumpi\n        /* \"@openzeppelin/contracts-upgradeable/proxy/utils/Initializable.sol\":847:852  false */\n      0x00\n        /* \"@openzeppelin/contracts-upgradeable/proxy/utils/Initializable.sol\":831:852  _initializing = false */\n      dup1\n      sload\n      not(0xff00)\n      and\n      swap1\n      sstore\n        /* \"@openzeppelin/contracts-upgradeable/utils/ContextUpgradeable.sol\":807:871  function __Context_init_unchained() internal initializer {... */\n      pop\n      jump\t// out\n        /* \"@openzeppelin/contracts-upgradeable/access/OwnableUpgradeable.sol\":1120:1226  function __Ownable_init_unchained() internal initializer {... */\n    tag_581:\n        /* \"@openzeppelin/contracts-upgradeable/proxy/utils/Initializable.sol\":539:552  _initializing */\n      sload(0x00)\n      0x0100\n      swap1\n      div\n      0xff\n      and\n      dup1\n        /* \"@openzeppelin/contracts-upgradeable/proxy/utils/Initializable.sol\":539:569  _initializing || !_initialized */\n      tag_607\n      jumpi\n      pop\n        /* \"@openzeppelin/contracts-upgradeable/proxy/utils/Initializable.sol\":557:569  _initialized */\n      and(0xff, sload(0x00))\n        /* \"@openzeppelin/contracts-upgradeable/proxy/utils/Initializable.sol\":556:569  !_initialized */\n      iszero\n        /* \"@openzeppelin/contracts-upgradeable/proxy/utils/Initializable.sol\":539:569  _initializing || !_initialized */\n    tag_607:\n        /* \"@openzeppelin/contracts-upgradeable/proxy/utils/Initializable.sol\":531:620  require(_initializing || !_initialized, \"Initializable: contract is already initialized\") */\n      tag_608\n      jumpi\n      mload(0x40)\n      shl(0xe5, 0x461bcd)\n      dup2\n      mstore\n      0x04\n      add\n      tag_198\n      swap1\n      tag_415\n      jump\t// in\n    tag_608:\n        /* \"@openzeppelin/contracts-upgradeable/proxy/utils/Initializable.sol\":631:650  bool isTopLevelCall */\n      0x00\n        /* \"@openzeppelin/contracts-upgradeable/proxy/utils/Initializable.sol\":654:667  _initializing */\n      sload\n      0x0100\n      swap1\n      div\n      0xff\n      and\n        /* \"@openzeppelin/contracts-upgradeable/proxy/utils/Initializable.sol\":653:667  !_initializing */\n      iszero\n        /* \"@openzeppelin/contracts-upgradeable/proxy/utils/Initializable.sol\":677:775  if (isTopLevelCall) {... */\n      dup1\n      iszero\n      tag_610\n      jumpi\n        /* \"@openzeppelin/contracts-upgradeable/proxy/utils/Initializable.sol\":711:724  _initializing */\n      0x00\n        /* \"@openzeppelin/contracts-upgradeable/proxy/utils/Initializable.sol\":711:731  _initializing = true */\n      dup1\n      sload\n      not(0xff)\n      not(0xff00)\n      swap1\n      swap2\n      and\n      0x0100\n      or\n        /* \"@openzeppelin/contracts-upgradeable/proxy/utils/Initializable.sol\":745:764  _initialized = true */\n      and\n        /* \"@openzeppelin/contracts-upgradeable/proxy/utils/Initializable.sol\":727:731  true */\n      0x01\n        /* \"@openzeppelin/contracts-upgradeable/proxy/utils/Initializable.sol\":745:764  _initialized = true */\n      or\n      swap1\n      sstore\n        /* \"@openzeppelin/contracts-upgradeable/proxy/utils/Initializable.sol\":677:775  if (isTopLevelCall) {... */\n    tag_610:\n        /* \"@openzeppelin/contracts-upgradeable/access/OwnableUpgradeable.sol\":1187:1219  _transferOwnership(_msgSender()) */\n      tag_580\n        /* \"@openzeppelin/contracts-upgradeable/access/OwnableUpgradeable.sol\":1206:1218  _msgSender() */\n      tag_613\n        /* \"@openzeppelin/contracts-upgradeable/access/OwnableUpgradeable.sol\":1206:1216  _msgSender */\n      tag_220\n        /* \"@openzeppelin/contracts-upgradeable/access/OwnableUpgradeable.sol\":1206:1218  _msgSender() */\n      jump\t// in\n    tag_613:\n        /* \"@openzeppelin/contracts-upgradeable/access/OwnableUpgradeable.sol\":1187:1205  _transferOwnership */\n      tag_275\n        /* \"@openzeppelin/contracts-upgradeable/access/OwnableUpgradeable.sol\":1187:1219  _transferOwnership(_msgSender()) */\n      jump\t// in\n        /* \"@openzeppelin/contracts-upgradeable/utils/AddressUpgradeable.sol\":3525:3748  function functionCall(... */\n    tag_593:\n        /* \"@openzeppelin/contracts-upgradeable/utils/AddressUpgradeable.sol\":3658:3670  bytes memory */\n      0x60\n        /* \"@openzeppelin/contracts-upgradeable/utils/AddressUpgradeable.sol\":3689:3741  functionCallWithValue(target, data, 0, errorMessage) */\n      tag_616\n        /* \"@openzeppelin/contracts-upgradeable/utils/AddressUpgradeable.sol\":3711:3717  target */\n      dup5\n        /* \"@openzeppelin/contracts-upgradeable/utils/AddressUpgradeable.sol\":3719:3723  data */\n      dup5\n        /* \"@openzeppelin/contracts-upgradeable/utils/AddressUpgradeable.sol\":3725:3726  0 */\n      0x00\n        /* \"@openzeppelin/contracts-upgradeable/utils/AddressUpgradeable.sol\":3728:3740  errorMessage */\n      dup6\n        /* \"@openzeppelin/contracts-upgradeable/utils/AddressUpgradeable.sol\":3689:3710  functionCallWithValue */\n      tag_617\n        /* \"@openzeppelin/contracts-upgradeable/utils/AddressUpgradeable.sol\":3689:3741  functionCallWithValue(target, data, 0, errorMessage) */\n      jump\t// in\n    tag_616:\n        /* \"@openzeppelin/contracts-upgradeable/utils/AddressUpgradeable.sol\":3682:3741  return functionCallWithValue(target, data, 0, errorMessage) */\n      swap5\n        /* \"@openzeppelin/contracts-upgradeable/utils/AddressUpgradeable.sol\":3525:3748  function functionCall(... */\n      swap4\n      pop\n      pop\n      pop\n      pop\n      jump\t// out\n        /* \"@openzeppelin/contracts-upgradeable/utils/AddressUpgradeable.sol\":4612:5111  function functionCallWithValue(... */\n    tag_617:\n        /* \"@openzeppelin/contracts-upgradeable/utils/AddressUpgradeable.sol\":4777:4789  bytes memory */\n      0x60\n        /* \"@openzeppelin/contracts-upgradeable/utils/AddressUpgradeable.sol\":4834:4839  value */\n      dup3\n        /* \"@openzeppelin/contracts-upgradeable/utils/AddressUpgradeable.sol\":4809:4830  address(this).balance */\n      selfbalance\n        /* \"@openzeppelin/contracts-upgradeable/utils/AddressUpgradeable.sol\":4809:4839  address(this).balance >= value */\n      lt\n      iszero\n        /* \"@openzeppelin/contracts-upgradeable/utils/AddressUpgradeable.sol\":4801:4882  require(address(this).balance >= value, \"Address: insufficient balance for call\") */\n      tag_619\n      jumpi\n      mload(0x40)\n      shl(0xe5, 0x461bcd)\n      dup2\n      mstore\n      0x04\n      add\n      tag_198\n      swap1\n      tag_621\n      jump\t// in\n    tag_619:\n        /* \"@openzeppelin/contracts-upgradeable/utils/AddressUpgradeable.sol\":4900:4918  isContract(target) */\n      tag_622\n        /* \"@openzeppelin/contracts-upgradeable/utils/AddressUpgradeable.sol\":4911:4917  target */\n      dup6\n        /* \"@openzeppelin/contracts-upgradeable/utils/AddressUpgradeable.sol\":4900:4910  isContract */\n      tag_623\n        /* \"@openzeppelin/contracts-upgradeable/utils/AddressUpgradeable.sol\":4900:4918  isContract(target) */\n      jump\t// in\n    tag_622:\n        /* \"@openzeppelin/contracts-upgradeable/utils/AddressUpgradeable.sol\":4892:4952  require(isContract(target), \"Address: call to non-contract\") */\n      tag_624\n      jumpi\n      mload(0x40)\n      shl(0xe5, 0x461bcd)\n      dup2\n      mstore\n      0x04\n      add\n      tag_198\n      swap1\n      tag_626\n      jump\t// in\n    tag_624:\n        /* \"@openzeppelin/contracts-upgradeable/utils/AddressUpgradeable.sol\":4964:4976  bool success */\n      0x00\n        /* \"@openzeppelin/contracts-upgradeable/utils/AddressUpgradeable.sol\":4978:5001  bytes memory returndata */\n      dup1\n        /* \"@openzeppelin/contracts-upgradeable/utils/AddressUpgradeable.sol\":5005:5011  target */\n      dup7\n      sub(shl(0xa0, 0x01), 0x01)\n        /* \"@openzeppelin/contracts-upgradeable/utils/AddressUpgradeable.sol\":5005:5016  target.call */\n      and\n        /* \"@openzeppelin/contracts-upgradeable/utils/AddressUpgradeable.sol\":5024:5029  value */\n      dup6\n        /* \"@openzeppelin/contracts-upgradeable/utils/AddressUpgradeable.sol\":5031:5035  data */\n      dup8\n        /* \"@openzeppelin/contracts-upgradeable/utils/AddressUpgradeable.sol\":5005:5036  target.call{value: value}(data) */\n      mload(0x40)\n      tag_627\n      swap2\n      swap1\n      tag_628\n      jump\t// in\n    tag_627:\n      0x00\n      mload(0x40)\n      dup1\n      dup4\n      sub\n      dup2\n      dup6\n      dup8\n      gas\n      call\n      swap3\n      pop\n      pop\n      pop\n      returndatasize\n      dup1\n      0x00\n      dup2\n      eq\n      tag_631\n      jumpi\n      mload(0x40)\n      swap2\n      pop\n      and(add(returndatasize, 0x3f), not(0x1f))\n      dup3\n      add\n      0x40\n      mstore\n      returndatasize\n      dup3\n      mstore\n      returndatasize\n      0x00\n      0x20\n      dup5\n      add\n      returndatacopy\n      jump(tag_630)\n    tag_631:\n      0x60\n      swap2\n      pop\n    tag_630:\n      pop\n        /* \"@openzeppelin/contracts-upgradeable/utils/AddressUpgradeable.sol\":4963:5036  (bool success, bytes memory returndata) = target.call{value: value}(data) */\n      swap2\n      pop\n      swap2\n      pop\n        /* \"@openzeppelin/contracts-upgradeable/utils/AddressUpgradeable.sol\":5053:5104  verifyCallResult(success, returndata, errorMessage) */\n      tag_632\n        /* \"@openzeppelin/contracts-upgradeable/utils/AddressUpgradeable.sol\":5070:5077  success */\n      dup3\n        /* \"@openzeppelin/contracts-upgradeable/utils/AddressUpgradeable.sol\":5079:5089  returndata */\n      dup3\n        /* \"@openzeppelin/contracts-upgradeable/utils/AddressUpgradeable.sol\":5091:5103  errorMessage */\n      dup7\n        /* \"@openzeppelin/contracts-upgradeable/utils/AddressUpgradeable.sol\":5053:5069  verifyCallResult */\n      tag_633\n        /* \"@openzeppelin/contracts-upgradeable/utils/AddressUpgradeable.sol\":5053:5104  verifyCallResult(success, returndata, errorMessage) */\n      jump\t// in\n    tag_632:\n        /* \"@openzeppelin/contracts-upgradeable/utils/AddressUpgradeable.sol\":5046:5104  return verifyCallResult(success, returndata, errorMessage) */\n      swap8\n        /* \"@openzeppelin/contracts-upgradeable/utils/AddressUpgradeable.sol\":4612:5111  function functionCallWithValue(... */\n      swap7\n      pop\n      pop\n      pop\n      pop\n      pop\n      pop\n      pop\n      jump\t// out\n        /* \"@openzeppelin/contracts-upgradeable/utils/AddressUpgradeable.sol\":782:1159  function isContract(address account) internal view returns (bool) {... */\n    tag_623:\n        /* \"@openzeppelin/contracts-upgradeable/utils/AddressUpgradeable.sol\":1098:1118  extcodesize(account) */\n      extcodesize\n        /* \"@openzeppelin/contracts-upgradeable/utils/AddressUpgradeable.sol\":1144:1152  size > 0 */\n      iszero\n      iszero\n      swap1\n        /* \"@openzeppelin/contracts-upgradeable/utils/AddressUpgradeable.sol\":782:1159  function isContract(address account) internal view returns (bool) {... */\n      jump\t// out\n        /* \"@openzeppelin/contracts-upgradeable/utils/AddressUpgradeable.sol\":6275:6967  function verifyCallResult(... */\n    tag_633:\n        /* \"@openzeppelin/contracts-upgradeable/utils/AddressUpgradeable.sol\":6421:6433  bytes memory */\n      0x60\n        /* \"@openzeppelin/contracts-upgradeable/utils/AddressUpgradeable.sol\":6449:6456  success */\n      dup4\n        /* \"@openzeppelin/contracts-upgradeable/utils/AddressUpgradeable.sol\":6445:6961  if (success) {... */\n      iszero\n      tag_636\n      jumpi\n      pop\n        /* \"@openzeppelin/contracts-upgradeable/utils/AddressUpgradeable.sol\":6479:6489  returndata */\n      dup2\n        /* \"@openzeppelin/contracts-upgradeable/utils/AddressUpgradeable.sol\":6472:6489  return returndata */\n      jump(tag_429)\n        /* \"@openzeppelin/contracts-upgradeable/utils/AddressUpgradeable.sol\":6445:6961  if (success) {... */\n    tag_636:\n        /* \"@openzeppelin/contracts-upgradeable/utils/AddressUpgradeable.sol\":6590:6607  returndata.length */\n      dup3\n      mload\n        /* \"@openzeppelin/contracts-upgradeable/utils/AddressUpgradeable.sol\":6590:6611  returndata.length > 0 */\n      iszero\n        /* \"@openzeppelin/contracts-upgradeable/utils/AddressUpgradeable.sol\":6586:6951  if (returndata.length > 0) {... */\n      tag_638\n      jumpi\n        /* \"@openzeppelin/contracts-upgradeable/utils/AddressUpgradeable.sol\":6784:6794  returndata */\n      dup3\n        /* \"@openzeppelin/contracts-upgradeable/utils/AddressUpgradeable.sol\":6778:6795  mload(returndata) */\n      mload\n        /* \"@openzeppelin/contracts-upgradeable/utils/AddressUpgradeable.sol\":6844:6859  returndata_size */\n      dup1\n        /* \"@openzeppelin/contracts-upgradeable/utils/AddressUpgradeable.sol\":6831:6841  returndata */\n      dup5\n        /* \"@openzeppelin/contracts-upgradeable/utils/AddressUpgradeable.sol\":6827:6829  32 */\n      0x20\n        /* \"@openzeppelin/contracts-upgradeable/utils/AddressUpgradeable.sol\":6823:6842  add(32, returndata) */\n      add\n        /* \"@openzeppelin/contracts-upgradeable/utils/AddressUpgradeable.sol\":6816:6860  revert(add(32, returndata), returndata_size) */\n      revert\n        /* \"@openzeppelin/contracts-upgradeable/utils/AddressUpgradeable.sol\":6733:6878  {... */\n    tag_638:\n        /* \"@openzeppelin/contracts-upgradeable/utils/AddressUpgradeable.sol\":6923:6935  errorMessage */\n      dup2\n        /* \"@openzeppelin/contracts-upgradeable/utils/AddressUpgradeable.sol\":6916:6936  revert(errorMessage) */\n      mload(0x40)\n      shl(0xe5, 0x461bcd)\n      dup2\n      mstore\n      0x04\n      add\n      tag_198\n      swap2\n      swap1\n      tag_641\n      jump\t// in\n    tag_249:\n      mload(0x40)\n      dup1\n      0x0160\n      add\n      0x40\n      mstore\n      dup1\n      and(sub(shl(0xa0, 0x01), 0x01), 0x00)\n      dup2\n      mstore\n      0x20\n      add\n      0x00\n      dup2\n      mstore\n      0x20\n      add\n      0x60\n      dup2\n      mstore\n      0x20\n      add\n      0x00\n      dup2\n      mstore\n      0x20\n      add\n      0x00\n      dup2\n      mstore\n      0x20\n      add\n      0x00\n      dup2\n      mstore\n      0x20\n      add\n      0x00\n      dup2\n      mstore\n      0x20\n      add\n      0x00\n      dup2\n      mstore\n      0x20\n      add\n      0x00\n      dup2\n      mstore\n      0x20\n      add\n      0x00\n      dup2\n      mstore\n      0x20\n      add\n      0x00\n      dup2\n      mstore\n      pop\n      swap1\n      jump\t// out\n    tag_396:\n      dup3\n      dup1\n      sload\n      tag_642\n      swap1\n      tag_252\n      jump\t// in\n    tag_642:\n      swap1\n      0x00\n      mstore\n      keccak256(0x00, 0x20)\n      swap1\n      0x1f\n      add\n      0x20\n      swap1\n      div\n      dup2\n      add\n      swap3\n      dup3\n      tag_644\n      jumpi\n      0x00\n      dup6\n      sstore\n      jump(tag_647)\n    tag_644:\n      dup3\n      0x1f\n      lt\n      tag_645\n      jumpi\n      dup1\n      mload\n      not(0xff)\n      and\n      dup4\n      dup1\n      add\n      or\n      dup6\n      sstore\n      jump(tag_647)\n    tag_645:\n      dup3\n      dup1\n      add\n      0x01\n      add\n      dup6\n      sstore\n      dup3\n      iszero\n      tag_647\n      jumpi\n      swap2\n      dup3\n      add\n    tag_646:\n      dup3\n      dup2\n      gt\n      iszero\n      tag_647\n      jumpi\n      dup3\n      mload\n      dup3\n      sstore\n      swap2\n      0x20\n      add\n      swap2\n      swap1\n      0x01\n      add\n      swap1\n      jump(tag_646)\n    tag_647:\n      pop\n      tag_648\n      swap3\n      swap2\n      pop\n      tag_649\n      jump\t// in\n    tag_648:\n      pop\n      swap1\n      jump\t// out\n    tag_649:\n    tag_650:\n      dup1\n      dup3\n      gt\n      iszero\n      tag_648\n      jumpi\n      0x00\n      dup2\n      sstore\n      0x01\n      add\n      jump(tag_650)\n        /* \"#utility.yul\":14:152   */\n    tag_653:\n        /* \"#utility.yul\":84:104   */\n      dup1\n      calldataload\n        /* \"#utility.yul\":113:146   */\n      tag_250\n        /* \"#utility.yul\":84:104   */\n      dup2\n        /* \"#utility.yul\":113:146   */\n      tag_656\n      jump\t// in\n        /* \"#utility.yul\":157:826   */\n    tag_657:\n      0x00\n        /* \"#utility.yul\":268:271   */\n      dup3\n        /* \"#utility.yul\":261:265   */\n      0x1f\n        /* \"#utility.yul\":253:259   */\n      dup4\n        /* \"#utility.yul\":249:266   */\n      add\n        /* \"#utility.yul\":245:272   */\n      slt\n        /* \"#utility.yul\":235:237   */\n      tag_659\n      jumpi\n        /* \"#utility.yul\":290:295   */\n      dup1\n        /* \"#utility.yul\":283:288   */\n      dup2\n        /* \"#utility.yul\":276:296   */\n      revert\n        /* \"#utility.yul\":235:237   */\n    tag_659:\n        /* \"#utility.yul\":330:336   */\n      dup2\n        /* \"#utility.yul\":317:337   */\n      calldataload\n        /* \"#utility.yul\":356:360   */\n      0x20\n        /* \"#utility.yul\":380:443   */\n      tag_660\n        /* \"#utility.yul\":395:442   */\n      tag_661\n        /* \"#utility.yul\":439:441   */\n      dup4\n        /* \"#utility.yul\":395:442   */\n      tag_662\n      jump\t// in\n    tag_661:\n        /* \"#utility.yul\":380:443   */\n      tag_663\n      jump\t// in\n    tag_660:\n        /* \"#utility.yul\":477:492   */\n      dup3\n      dup2\n      mstore\n        /* \"#utility.yul\":508:520   */\n      dup2\n      dup2\n      add\n      swap1\n        /* \"#utility.yul\":540:555   */\n      dup6\n      dup4\n      add\n        /* \"#utility.yul\":573:578   */\n      dup6\n        /* \"#utility.yul\":587:797   */\n    tag_664:\n        /* \"#utility.yul\":601:603   */\n      dup6\n        /* \"#utility.yul\":598:599   */\n      dup2\n        /* \"#utility.yul\":595:604   */\n      lt\n        /* \"#utility.yul\":587:797   */\n      iszero\n      tag_666\n      jumpi\n        /* \"#utility.yul\":658:722   */\n      tag_667\n        /* \"#utility.yul\":718:721   */\n      dup10\n        /* \"#utility.yul\":713:715   */\n      dup7\n        /* \"#utility.yul\":706:709   */\n      dup5\n        /* \"#utility.yul\":693:710   */\n      calldataload\n        /* \"#utility.yul\":685:691   */\n      dup12\n        /* \"#utility.yul\":681:711   */\n      add\n        /* \"#utility.yul\":677:716   */\n      add\n        /* \"#utility.yul\":658:722   */\n      tag_668\n      jump\t// in\n    tag_667:\n        /* \"#utility.yul\":646:723   */\n      dup5\n      mstore\n        /* \"#utility.yul\":743:755   */\n      swap3\n      dup5\n      add\n      swap3\n        /* \"#utility.yul\":775:787   */\n      swap1\n      dup5\n      add\n      swap1\n        /* \"#utility.yul\":619:620   */\n      0x01\n        /* \"#utility.yul\":612:621   */\n      add\n        /* \"#utility.yul\":587:797   */\n      jump(tag_664)\n    tag_666:\n      pop\n        /* \"#utility.yul\":815:820   */\n      swap1\n      swap8\n        /* \"#utility.yul\":225:826   */\n      swap7\n      pop\n      pop\n      pop\n      pop\n      pop\n      pop\n      pop\n      jump\t// out\n        /* \"#utility.yul\":831:1534   */\n    tag_669:\n      0x00\n        /* \"#utility.yul\":944:947   */\n      dup3\n        /* \"#utility.yul\":937:941   */\n      0x1f\n        /* \"#utility.yul\":929:935   */\n      dup4\n        /* \"#utility.yul\":925:942   */\n      add\n        /* \"#utility.yul\":921:948   */\n      slt\n        /* \"#utility.yul\":911:913   */\n      tag_671\n      jumpi\n        /* \"#utility.yul\":966:971   */\n      dup1\n        /* \"#utility.yul\":959:964   */\n      dup2\n        /* \"#utility.yul\":952:972   */\n      revert\n        /* \"#utility.yul\":911:913   */\n    tag_671:\n        /* \"#utility.yul\":1006:1012   */\n      dup2\n        /* \"#utility.yul\":993:1013   */\n      calldataload\n        /* \"#utility.yul\":1032:1036   */\n      0x20\n        /* \"#utility.yul\":1056:1119   */\n      tag_672\n        /* \"#utility.yul\":1071:1118   */\n      tag_661\n        /* \"#utility.yul\":1115:1117   */\n      dup4\n        /* \"#utility.yul\":1071:1118   */\n      tag_662\n      jump\t// in\n        /* \"#utility.yul\":1056:1119   */\n    tag_672:\n        /* \"#utility.yul\":1153:1168   */\n      dup3\n      dup2\n      mstore\n        /* \"#utility.yul\":1184:1196   */\n      dup2\n      dup2\n      add\n      swap1\n        /* \"#utility.yul\":1216:1231   */\n      dup6\n      dup4\n      add\n        /* \"#utility.yul\":1262:1273   */\n      dup4\n      dup6\n      mul\n        /* \"#utility.yul\":1250:1274   */\n      dup8\n      add\n        /* \"#utility.yul\":1246:1279   */\n      dup5\n      add\n        /* \"#utility.yul\":1243:1285   */\n      dup9\n      lt\n        /* \"#utility.yul\":1240:1242   */\n      iszero\n      tag_674\n      jumpi\n        /* \"#utility.yul\":1302:1307   */\n      dup6\n        /* \"#utility.yul\":1295:1300   */\n      dup7\n        /* \"#utility.yul\":1288:1308   */\n      revert\n        /* \"#utility.yul\":1240:1242   */\n    tag_674:\n        /* \"#utility.yul\":1328:1333   */\n      dup6\n        /* \"#utility.yul\":1342:1505   */\n    tag_675:\n        /* \"#utility.yul\":1356:1358   */\n      dup6\n        /* \"#utility.yul\":1353:1354   */\n      dup2\n        /* \"#utility.yul\":1350:1359   */\n      lt\n        /* \"#utility.yul\":1342:1505   */\n      iszero\n      tag_666\n      jumpi\n        /* \"#utility.yul\":1413:1430   */\n      dup2\n      calldataload\n        /* \"#utility.yul\":1401:1431   */\n      dup5\n      mstore\n        /* \"#utility.yul\":1451:1463   */\n      swap3\n      dup5\n      add\n      swap3\n        /* \"#utility.yul\":1483:1495   */\n      swap1\n      dup5\n      add\n      swap1\n        /* \"#utility.yul\":1374:1375   */\n      0x01\n        /* \"#utility.yul\":1367:1376   */\n      add\n        /* \"#utility.yul\":1342:1505   */\n      jump(tag_675)\n        /* \"#utility.yul\":1539:1671   */\n    tag_678:\n        /* \"#utility.yul\":1606:1626   */\n      dup1\n      calldataload\n        /* \"#utility.yul\":1635:1665   */\n      tag_250\n        /* \"#utility.yul\":1606:1626   */\n      dup2\n        /* \"#utility.yul\":1635:1665   */\n      tag_681\n      jump\t// in\n        /* \"#utility.yul\":1676:2227   */\n    tag_668:\n      0x00\n        /* \"#utility.yul\":1773:1776   */\n      dup3\n        /* \"#utility.yul\":1766:1770   */\n      0x1f\n        /* \"#utility.yul\":1758:1764   */\n      dup4\n        /* \"#utility.yul\":1754:1771   */\n      add\n        /* \"#utility.yul\":1750:1777   */\n      slt\n        /* \"#utility.yul\":1740:1742   */\n      tag_683\n      jumpi\n        /* \"#utility.yul\":1795:1800   */\n      dup1\n        /* \"#utility.yul\":1788:1793   */\n      dup2\n        /* \"#utility.yul\":1781:1801   */\n      revert\n        /* \"#utility.yul\":1740:1742   */\n    tag_683:\n        /* \"#utility.yul\":1835:1841   */\n      dup2\n        /* \"#utility.yul\":1822:1842   */\n      calldataload\n        /* \"#utility.yul\":1861:1879   */\n      0xffffffffffffffff\n        /* \"#utility.yul\":1857:1859   */\n      dup2\n        /* \"#utility.yul\":1854:1880   */\n      gt\n        /* \"#utility.yul\":1851:1853   */\n      iszero\n      tag_685\n      jumpi\n        /* \"#utility.yul\":1883:1901   */\n      tag_685\n      tag_686\n      jump\t// in\n    tag_685:\n        /* \"#utility.yul\":1927:1981   */\n      tag_687\n        /* \"#utility.yul\":1969:1971   */\n      0x1f\n        /* \"#utility.yul\":1950:1963   */\n      dup3\n      add\n      not(0x1f)\n        /* \"#utility.yul\":1946:1973   */\n      and\n        /* \"#utility.yul\":1975:1979   */\n      0x20\n        /* \"#utility.yul\":1942:1980   */\n      add\n        /* \"#utility.yul\":1927:1981   */\n      tag_663\n      jump\t// in\n    tag_687:\n        /* \"#utility.yul\":2006:2008   */\n      dup2\n        /* \"#utility.yul\":1997:2004   */\n      dup2\n        /* \"#utility.yul\":1990:2009   */\n      mstore\n        /* \"#utility.yul\":2052:2055   */\n      dup5\n        /* \"#utility.yul\":2045:2049   */\n      0x20\n        /* \"#utility.yul\":2040:2042   */\n      dup4\n        /* \"#utility.yul\":2032:2038   */\n      dup7\n        /* \"#utility.yul\":2028:2043   */\n      add\n        /* \"#utility.yul\":2024:2050   */\n      add\n        /* \"#utility.yul\":2021:2056   */\n      gt\n        /* \"#utility.yul\":2018:2020   */\n      iszero\n      tag_688\n      jumpi\n        /* \"#utility.yul\":2073:2078   */\n      dup3\n        /* \"#utility.yul\":2066:2071   */\n      dup4\n        /* \"#utility.yul\":2059:2079   */\n      revert\n        /* \"#utility.yul\":2018:2020   */\n    tag_688:\n        /* \"#utility.yul\":2142:2144   */\n      dup2\n        /* \"#utility.yul\":2135:2139   */\n      0x20\n        /* \"#utility.yul\":2127:2133   */\n      dup6\n        /* \"#utility.yul\":2123:2140   */\n      add\n        /* \"#utility.yul\":2116:2120   */\n      0x20\n        /* \"#utility.yul\":2107:2114   */\n      dup4\n        /* \"#utility.yul\":2103:2121   */\n      add\n        /* \"#utility.yul\":2090:2145   */\n      calldatacopy\n        /* \"#utility.yul\":2165:2181   */\n      swap1\n      dup2\n      add\n        /* \"#utility.yul\":2183:2187   */\n      0x20\n        /* \"#utility.yul\":2161:2188   */\n      add\n        /* \"#utility.yul\":2154:2196   */\n      swap2\n      swap1\n      swap2\n      mstore\n        /* \"#utility.yul\":2169:2176   */\n      swap3\n        /* \"#utility.yul\":1730:2227   */\n      swap2\n      pop\n      pop\n      jump\t// out\n        /* \"#utility.yul\":2232:2491   */\n    tag_78:\n      0x00\n        /* \"#utility.yul\":2344:2346   */\n      0x20\n        /* \"#utility.yul\":2332:2341   */\n      dup3\n        /* \"#utility.yul\":2323:2330   */\n      dup5\n        /* \"#utility.yul\":2319:2342   */\n      sub\n        /* \"#utility.yul\":2315:2347   */\n      slt\n        /* \"#utility.yul\":2312:2314   */\n      iszero\n      tag_690\n      jumpi\n        /* \"#utility.yul\":2365:2371   */\n      dup1\n        /* \"#utility.yul\":2357:2363   */\n      dup2\n        /* \"#utility.yul\":2350:2372   */\n      revert\n        /* \"#utility.yul\":2312:2314   */\n    tag_690:\n        /* \"#utility.yul\":2409:2418   */\n      dup2\n        /* \"#utility.yul\":2396:2419   */\n      calldataload\n        /* \"#utility.yul\":2428:2461   */\n      tag_429\n        /* \"#utility.yul\":2455:2460   */\n      dup2\n        /* \"#utility.yul\":2428:2461   */\n      tag_656\n      jump\t// in\n        /* \"#utility.yul\":2496:2892   */\n    tag_56:\n      0x00\n      dup1\n        /* \"#utility.yul\":2622:2624   */\n      0x40\n        /* \"#utility.yul\":2610:2619   */\n      dup4\n        /* \"#utility.yul\":2601:2608   */\n      dup6\n        /* \"#utility.yul\":2597:2620   */\n      sub\n        /* \"#utility.yul\":2593:2625   */\n      slt\n        /* \"#utility.yul\":2590:2592   */\n      iszero\n      tag_693\n      jumpi\n        /* \"#utility.yul\":2643:2649   */\n      dup1\n        /* \"#utility.yul\":2635:2641   */\n      dup2\n        /* \"#utility.yul\":2628:2650   */\n      revert\n        /* \"#utility.yul\":2590:2592   */\n    tag_693:\n        /* \"#utility.yul\":2687:2696   */\n      dup3\n        /* \"#utility.yul\":2674:2697   */\n      calldataload\n        /* \"#utility.yul\":2706:2739   */\n      tag_694\n        /* \"#utility.yul\":2733:2738   */\n      dup2\n        /* \"#utility.yul\":2706:2739   */\n      tag_656\n      jump\t// in\n    tag_694:\n        /* \"#utility.yul\":2758:2763   */\n      swap2\n      pop\n        /* \"#utility.yul\":2815:2817   */\n      0x20\n        /* \"#utility.yul\":2800:2818   */\n      dup4\n      add\n        /* \"#utility.yul\":2787:2819   */\n      calldataload\n        /* \"#utility.yul\":2828:2860   */\n      tag_695\n        /* \"#utility.yul\":2787:2819   */\n      dup2\n        /* \"#utility.yul\":2828:2860   */\n      tag_681\n      jump\t// in\n    tag_695:\n        /* \"#utility.yul\":2879:2886   */\n      dup1\n        /* \"#utility.yul\":2869:2886   */\n      swap2\n      pop\n      pop\n        /* \"#utility.yul\":2580:2892   */\n      swap3\n      pop\n      swap3\n      swap1\n      pop\n      jump\t// out\n        /* \"#utility.yul\":2897:3648   */\n    tag_169:\n      0x00\n      dup1\n      0x00\n      dup1\n        /* \"#utility.yul\":3122:3125   */\n      0x80\n        /* \"#utility.yul\":3110:3119   */\n      dup6\n        /* \"#utility.yul\":3101:3108   */\n      dup8\n        /* \"#utility.yul\":3097:3120   */\n      sub\n        /* \"#utility.yul\":3093:3126   */\n      slt\n        /* \"#utility.yul\":3090:3092   */\n      iszero\n      tag_697\n      jumpi\n        /* \"#utility.yul\":3144:3150   */\n      dup2\n        /* \"#utility.yul\":3136:3142   */\n      dup3\n        /* \"#utility.yul\":3129:3151   */\n      revert\n        /* \"#utility.yul\":3090:3092   */\n    tag_697:\n        /* \"#utility.yul\":3188:3197   */\n      dup5\n        /* \"#utility.yul\":3175:3198   */\n      calldataload\n        /* \"#utility.yul\":3207:3240   */\n      tag_698\n        /* \"#utility.yul\":3234:3239   */\n      dup2\n        /* \"#utility.yul\":3207:3240   */\n      tag_656\n      jump\t// in\n    tag_698:\n        /* \"#utility.yul\":3259:3264   */\n      swap4\n      pop\n        /* \"#utility.yul\":3316:3318   */\n      0x20\n        /* \"#utility.yul\":3301:3319   */\n      dup6\n      add\n        /* \"#utility.yul\":3288:3320   */\n      calldataload\n        /* \"#utility.yul\":3329:3364   */\n      tag_699\n        /* \"#utility.yul\":3288:3320   */\n      dup2\n        /* \"#utility.yul\":3329:3364   */\n      tag_656\n      jump\t// in\n    tag_699:\n        /* \"#utility.yul\":3383:3390   */\n      swap3\n      pop\n        /* \"#utility.yul\":3442:3444   */\n      0x40\n        /* \"#utility.yul\":3427:3445   */\n      dup6\n      add\n        /* \"#utility.yul\":3414:3446   */\n      calldataload\n        /* \"#utility.yul\":3455:3490   */\n      tag_700\n        /* \"#utility.yul\":3414:3446   */\n      dup2\n        /* \"#utility.yul\":3455:3490   */\n      tag_656\n      jump\t// in\n    tag_700:\n        /* \"#utility.yul\":3509:3516   */\n      swap2\n      pop\n        /* \"#utility.yul\":3568:3570   */\n      0x60\n        /* \"#utility.yul\":3553:3571   */\n      dup6\n      add\n        /* \"#utility.yul\":3540:3572   */\n      calldataload\n        /* \"#utility.yul\":3581:3616   */\n      tag_701\n        /* \"#utility.yul\":3540:3572   */\n      dup2\n        /* \"#utility.yul\":3581:3616   */\n      tag_656\n      jump\t// in\n    tag_701:\n        /* \"#utility.yul\":3080:3648   */\n      swap4\n      swap7\n      swap3\n      swap6\n      pop\n      swap1\n      swap4\n      pop\n      pop\n      jump\t// out\n        /* \"#utility.yul\":3653:3980   */\n    tag_104:\n      0x00\n      dup1\n        /* \"#utility.yul\":3782:3784   */\n      0x40\n        /* \"#utility.yul\":3770:3779   */\n      dup4\n        /* \"#utility.yul\":3761:3768   */\n      dup6\n        /* \"#utility.yul\":3757:3780   */\n      sub\n        /* \"#utility.yul\":3753:3785   */\n      slt\n        /* \"#utility.yul\":3750:3752   */\n      iszero\n      tag_703\n      jumpi\n        /* \"#utility.yul\":3803:3809   */\n      dup2\n        /* \"#utility.yul\":3795:3801   */\n      dup3\n        /* \"#utility.yul\":3788:3810   */\n      revert\n        /* \"#utility.yul\":3750:3752   */\n    tag_703:\n        /* \"#utility.yul\":3847:3856   */\n      dup3\n        /* \"#utility.yul\":3834:3857   */\n      calldataload\n        /* \"#utility.yul\":3866:3899   */\n      tag_704\n        /* \"#utility.yul\":3893:3898   */\n      dup2\n        /* \"#utility.yul\":3866:3899   */\n      tag_656\n      jump\t// in\n    tag_704:\n        /* \"#utility.yul\":3918:3923   */\n      swap5\n        /* \"#utility.yul\":3970:3972   */\n      0x20\n        /* \"#utility.yul\":3955:3973   */\n      swap4\n      swap1\n      swap4\n      add\n        /* \"#utility.yul\":3942:3974   */\n      calldataload\n      swap4\n      pop\n      pop\n      pop\n        /* \"#utility.yul\":3740:3980   */\n      jump\t// out\n        /* \"#utility.yul\":3985:4449   */\n    tag_44:\n      0x00\n      dup1\n      0x00\n      dup1\n        /* \"#utility.yul\":4148:4151   */\n      0x80\n        /* \"#utility.yul\":4136:4145   */\n      dup6\n        /* \"#utility.yul\":4127:4134   */\n      dup8\n        /* \"#utility.yul\":4123:4146   */\n      sub\n        /* \"#utility.yul\":4119:4152   */\n      slt\n        /* \"#utility.yul\":4116:4118   */\n      iszero\n      tag_706\n      jumpi\n        /* \"#utility.yul\":4170:4176   */\n      dup4\n        /* \"#utility.yul\":4162:4168   */\n      dup5\n        /* \"#utility.yul\":4155:4177   */\n      revert\n        /* \"#utility.yul\":4116:4118   */\n    tag_706:\n        /* \"#utility.yul\":4214:4223   */\n      dup5\n        /* \"#utility.yul\":4201:4224   */\n      calldataload\n        /* \"#utility.yul\":4233:4266   */\n      tag_707\n        /* \"#utility.yul\":4260:4265   */\n      dup2\n        /* \"#utility.yul\":4233:4266   */\n      tag_656\n      jump\t// in\n    tag_707:\n        /* \"#utility.yul\":4285:4290   */\n      swap7\n        /* \"#utility.yul\":4337:4339   */\n      0x20\n        /* \"#utility.yul\":4322:4340   */\n      dup7\n      add\n        /* \"#utility.yul\":4309:4341   */\n      calldataload\n      swap7\n      pop\n        /* \"#utility.yul\":4388:4390   */\n      0x40\n        /* \"#utility.yul\":4373:4391   */\n      dup7\n      add\n        /* \"#utility.yul\":4360:4392   */\n      calldataload\n      swap6\n        /* \"#utility.yul\":4439:4441   */\n      0x60\n        /* \"#utility.yul\":4424:4442   */\n      add\n        /* \"#utility.yul\":4411:4443   */\n      calldataload\n      swap5\n      pop\n        /* \"#utility.yul\":4106:4449   */\n      swap3\n      pop\n      pop\n      pop\n      jump\t// out\n        /* \"#utility.yul\":4454:4711   */\n    tag_301:\n      0x00\n        /* \"#utility.yul\":4574:4576   */\n      0x20\n        /* \"#utility.yul\":4562:4571   */\n      dup3\n        /* \"#utility.yul\":4553:4560   */\n      dup5\n        /* \"#utility.yul\":4549:4572   */\n      sub\n        /* \"#utility.yul\":4545:4577   */\n      slt\n        /* \"#utility.yul\":4542:4544   */\n      iszero\n      tag_709\n      jumpi\n        /* \"#utility.yul\":4595:4601   */\n      dup1\n        /* \"#utility.yul\":4587:4593   */\n      dup2\n        /* \"#utility.yul\":4580:4602   */\n      revert\n        /* \"#utility.yul\":4542:4544   */\n    tag_709:\n        /* \"#utility.yul\":4632:4641   */\n      dup2\n        /* \"#utility.yul\":4626:4642   */\n      mload\n        /* \"#utility.yul\":4651:4681   */\n      tag_429\n        /* \"#utility.yul\":4675:4680   */\n      dup2\n        /* \"#utility.yul\":4651:4681   */\n      tag_681\n      jump\t// in\n        /* \"#utility.yul\":4716:6167   */\n    tag_83:\n      0x00\n      dup1\n      0x00\n      dup1\n      0x00\n      dup1\n        /* \"#utility.yul\":5054:5057   */\n      0xc0\n        /* \"#utility.yul\":5042:5051   */\n      dup8\n        /* \"#utility.yul\":5033:5040   */\n      dup10\n        /* \"#utility.yul\":5029:5052   */\n      sub\n        /* \"#utility.yul\":5025:5058   */\n      slt\n        /* \"#utility.yul\":5022:5024   */\n      iszero\n      tag_712\n      jumpi\n        /* \"#utility.yul\":5076:5082   */\n      dup4\n        /* \"#utility.yul\":5068:5074   */\n      dup5\n        /* \"#utility.yul\":5061:5083   */\n      revert\n        /* \"#utility.yul\":5022:5024   */\n    tag_712:\n        /* \"#utility.yul\":5104:5132   */\n      tag_713\n        /* \"#utility.yul\":5122:5131   */\n      dup8\n        /* \"#utility.yul\":5104:5132   */\n      tag_678\n      jump\t// in\n    tag_713:\n        /* \"#utility.yul\":5094:5132   */\n      swap6\n      pop\n        /* \"#utility.yul\":5183:5185   */\n      0x20\n        /* \"#utility.yul\":5172:5181   */\n      dup8\n        /* \"#utility.yul\":5168:5186   */\n      add\n        /* \"#utility.yul\":5155:5187   */\n      calldataload\n        /* \"#utility.yul\":5206:5224   */\n      0xffffffffffffffff\n        /* \"#utility.yul\":5247:5249   */\n      dup1\n        /* \"#utility.yul\":5239:5245   */\n      dup3\n        /* \"#utility.yul\":5236:5250   */\n      gt\n        /* \"#utility.yul\":5233:5235   */\n      iszero\n      tag_714\n      jumpi\n        /* \"#utility.yul\":5268:5274   */\n      dup6\n        /* \"#utility.yul\":5260:5266   */\n      dup7\n        /* \"#utility.yul\":5253:5275   */\n      revert\n        /* \"#utility.yul\":5233:5235   */\n    tag_714:\n        /* \"#utility.yul\":5296:5363   */\n      tag_715\n        /* \"#utility.yul\":5355:5362   */\n      dup11\n        /* \"#utility.yul\":5346:5352   */\n      dup4\n        /* \"#utility.yul\":5335:5344   */\n      dup12\n        /* \"#utility.yul\":5331:5353   */\n      add\n        /* \"#utility.yul\":5296:5363   */\n      tag_669\n      jump\t// in\n    tag_715:\n        /* \"#utility.yul\":5286:5363   */\n      swap7\n      pop\n        /* \"#utility.yul\":5416:5418   */\n      0x40\n        /* \"#utility.yul\":5405:5414   */\n      dup10\n        /* \"#utility.yul\":5401:5419   */\n      add\n        /* \"#utility.yul\":5388:5420   */\n      calldataload\n        /* \"#utility.yul\":5372:5420   */\n      swap2\n      pop\n        /* \"#utility.yul\":5445:5447   */\n      dup1\n        /* \"#utility.yul\":5435:5443   */\n      dup3\n        /* \"#utility.yul\":5432:5448   */\n      gt\n        /* \"#utility.yul\":5429:5431   */\n      iszero\n      tag_716\n      jumpi\n        /* \"#utility.yul\":5466:5472   */\n      dup6\n        /* \"#utility.yul\":5458:5464   */\n      dup7\n        /* \"#utility.yul\":5451:5473   */\n      revert\n        /* \"#utility.yul\":5429:5431   */\n    tag_716:\n        /* \"#utility.yul\":5494:5563   */\n      tag_717\n        /* \"#utility.yul\":5555:5562   */\n      dup11\n        /* \"#utility.yul\":5544:5552   */\n      dup4\n        /* \"#utility.yul\":5533:5542   */\n      dup12\n        /* \"#utility.yul\":5529:5553   */\n      add\n        /* \"#utility.yul\":5494:5563   */\n      tag_669\n      jump\t// in\n    tag_717:\n        /* \"#utility.yul\":5484:5563   */\n      swap6\n      pop\n        /* \"#utility.yul\":5616:5618   */\n      0x60\n        /* \"#utility.yul\":5605:5614   */\n      dup10\n        /* \"#utility.yul\":5601:5619   */\n      add\n        /* \"#utility.yul\":5588:5620   */\n      calldataload\n        /* \"#utility.yul\":5572:5620   */\n      swap2\n      pop\n        /* \"#utility.yul\":5645:5647   */\n      dup1\n        /* \"#utility.yul\":5635:5643   */\n      dup3\n        /* \"#utility.yul\":5632:5648   */\n      gt\n        /* \"#utility.yul\":5629:5631   */\n      iszero\n      tag_718\n      jumpi\n        /* \"#utility.yul\":5666:5672   */\n      dup4\n        /* \"#utility.yul\":5658:5664   */\n      dup5\n        /* \"#utility.yul\":5651:5673   */\n      revert\n        /* \"#utility.yul\":5629:5631   */\n    tag_718:\n        /* \"#utility.yul\":5694:5761   */\n      tag_719\n        /* \"#utility.yul\":5753:5760   */\n      dup11\n        /* \"#utility.yul\":5742:5750   */\n      dup4\n        /* \"#utility.yul\":5731:5740   */\n      dup12\n        /* \"#utility.yul\":5727:5751   */\n      add\n        /* \"#utility.yul\":5694:5761   */\n      tag_657\n      jump\t// in\n    tag_719:\n        /* \"#utility.yul\":5684:5761   */\n      swap5\n      pop\n        /* \"#utility.yul\":5814:5817   */\n      0x80\n        /* \"#utility.yul\":5803:5812   */\n      dup10\n        /* \"#utility.yul\":5799:5818   */\n      add\n        /* \"#utility.yul\":5786:5819   */\n      calldataload\n        /* \"#utility.yul\":5770:5819   */\n      swap2\n      pop\n        /* \"#utility.yul\":5844:5846   */\n      dup1\n        /* \"#utility.yul\":5834:5842   */\n      dup3\n        /* \"#utility.yul\":5831:5847   */\n      gt\n        /* \"#utility.yul\":5828:5830   */\n      iszero\n      tag_720\n      jumpi\n        /* \"#utility.yul\":5865:5871   */\n      dup4\n        /* \"#utility.yul\":5857:5863   */\n      dup5\n        /* \"#utility.yul\":5850:5872   */\n      revert\n        /* \"#utility.yul\":5828:5830   */\n    tag_720:\n        /* \"#utility.yul\":5893:5962   */\n      tag_721\n        /* \"#utility.yul\":5954:5961   */\n      dup11\n        /* \"#utility.yul\":5943:5951   */\n      dup4\n        /* \"#utility.yul\":5932:5941   */\n      dup12\n        /* \"#utility.yul\":5928:5952   */\n      add\n        /* \"#utility.yul\":5893:5962   */\n      tag_669\n      jump\t// in\n    tag_721:\n        /* \"#utility.yul\":5883:5962   */\n      swap4\n      pop\n        /* \"#utility.yul\":6015:6018   */\n      0xa0\n        /* \"#utility.yul\":6004:6013   */\n      dup10\n        /* \"#utility.yul\":6000:6019   */\n      add\n        /* \"#utility.yul\":5987:6020   */\n      calldataload\n        /* \"#utility.yul\":5971:6020   */\n      swap2\n      pop\n        /* \"#utility.yul\":6045:6047   */\n      dup1\n        /* \"#utility.yul\":6035:6043   */\n      dup3\n        /* \"#utility.yul\":6032:6048   */\n      gt\n        /* \"#utility.yul\":6029:6031   */\n      iszero\n      tag_722\n      jumpi\n        /* \"#utility.yul\":6066:6072   */\n      dup3\n        /* \"#utility.yul\":6058:6064   */\n      dup4\n        /* \"#utility.yul\":6051:6073   */\n      revert\n        /* \"#utility.yul\":6029:6031   */\n    tag_722:\n      pop\n        /* \"#utility.yul\":6094:6161   */\n      tag_723\n        /* \"#utility.yul\":6153:6160   */\n      dup10\n        /* \"#utility.yul\":6142:6150   */\n      dup3\n        /* \"#utility.yul\":6131:6140   */\n      dup11\n        /* \"#utility.yul\":6127:6151   */\n      add\n        /* \"#utility.yul\":6094:6161   */\n      tag_657\n      jump\t// in\n    tag_723:\n        /* \"#utility.yul\":6084:6161   */\n      swap2\n      pop\n      pop\n        /* \"#utility.yul\":5012:6167   */\n      swap3\n      swap6\n      pop\n      swap3\n      swap6\n      pop\n      swap3\n      swap6\n      jump\t// out\n        /* \"#utility.yul\":6172:7084   */\n    tag_97:\n      0x00\n      dup1\n      0x00\n      dup1\n      0x00\n      dup1\n        /* \"#utility.yul\":6385:6388   */\n      0xc0\n        /* \"#utility.yul\":6373:6382   */\n      dup8\n        /* \"#utility.yul\":6364:6371   */\n      dup10\n        /* \"#utility.yul\":6360:6383   */\n      sub\n        /* \"#utility.yul\":6356:6389   */\n      slt\n        /* \"#utility.yul\":6353:6355   */\n      iszero\n      tag_725\n      jumpi\n        /* \"#utility.yul\":6407:6413   */\n      dup4\n        /* \"#utility.yul\":6399:6405   */\n      dup5\n        /* \"#utility.yul\":6392:6414   */\n      revert\n        /* \"#utility.yul\":6353:6355   */\n    tag_725:\n        /* \"#utility.yul\":6451:6460   */\n      dup7\n        /* \"#utility.yul\":6438:6461   */\n      calldataload\n        /* \"#utility.yul\":6470:6500   */\n      tag_726\n        /* \"#utility.yul\":6494:6499   */\n      dup2\n        /* \"#utility.yul\":6470:6500   */\n      tag_681\n      jump\t// in\n    tag_726:\n        /* \"#utility.yul\":6519:6524   */\n      swap6\n      pop\n        /* \"#utility.yul\":6571:6573   */\n      0x20\n        /* \"#utility.yul\":6556:6574   */\n      dup8\n      add\n        /* \"#utility.yul\":6543:6575   */\n      calldataload\n      swap5\n      pop\n        /* \"#utility.yul\":6622:6624   */\n      0x40\n        /* \"#utility.yul\":6607:6625   */\n      dup8\n      add\n        /* \"#utility.yul\":6594:6626   */\n      calldataload\n      swap4\n      pop\n        /* \"#utility.yul\":6677:6679   */\n      0x60\n        /* \"#utility.yul\":6662:6680   */\n      dup8\n      add\n        /* \"#utility.yul\":6649:6681   */\n      calldataload\n        /* \"#utility.yul\":6700:6718   */\n      0xffffffffffffffff\n        /* \"#utility.yul\":6730:6744   */\n      dup1\n      dup3\n      gt\n        /* \"#utility.yul\":6727:6729   */\n      iszero\n      tag_727\n      jumpi\n        /* \"#utility.yul\":6762:6768   */\n      dup4\n        /* \"#utility.yul\":6754:6760   */\n      dup5\n        /* \"#utility.yul\":6747:6769   */\n      revert\n        /* \"#utility.yul\":6727:6729   */\n    tag_727:\n        /* \"#utility.yul\":6790:6841   */\n      tag_728\n        /* \"#utility.yul\":6833:6840   */\n      dup11\n        /* \"#utility.yul\":6824:6830   */\n      dup4\n        /* \"#utility.yul\":6813:6822   */\n      dup12\n        /* \"#utility.yul\":6809:6831   */\n      add\n        /* \"#utility.yul\":6790:6841   */\n      tag_668\n      jump\t// in\n    tag_728:\n        /* \"#utility.yul\":6780:6841   */\n      swap5\n      pop\n        /* \"#utility.yul\":6888:6891   */\n      0x80\n        /* \"#utility.yul\":6877:6886   */\n      dup10\n        /* \"#utility.yul\":6873:6892   */\n      add\n        /* \"#utility.yul\":6860:6893   */\n      calldataload\n        /* \"#utility.yul\":6850:6893   */\n      swap4\n      pop\n        /* \"#utility.yul\":6946:6949   */\n      0xa0\n        /* \"#utility.yul\":6935:6944   */\n      dup10\n        /* \"#utility.yul\":6931:6950   */\n      add\n        /* \"#utility.yul\":6918:6951   */\n      calldataload\n        /* \"#utility.yul\":6902:6951   */\n      swap2\n      pop\n        /* \"#utility.yul\":6976:6978   */\n      dup1\n        /* \"#utility.yul\":6966:6974   */\n      dup3\n        /* \"#utility.yul\":6963:6979   */\n      gt\n        /* \"#utility.yul\":6960:6962   */\n      iszero\n      tag_729\n      jumpi\n        /* \"#utility.yul\":6997:7003   */\n      dup3\n        /* \"#utility.yul\":6989:6995   */\n      dup4\n        /* \"#utility.yul\":6982:7004   */\n      revert\n        /* \"#utility.yul\":6960:6962   */\n    tag_729:\n      pop\n        /* \"#utility.yul\":7025:7078   */\n      tag_723\n        /* \"#utility.yul\":7070:7077   */\n      dup10\n        /* \"#utility.yul\":7059:7067   */\n      dup3\n        /* \"#utility.yul\":7048:7057   */\n      dup11\n        /* \"#utility.yul\":7044:7068   */\n      add\n        /* \"#utility.yul\":7025:7078   */\n      tag_668\n      jump\t// in\n        /* \"#utility.yul\":7089:8070   */\n    tag_127:\n      0x00\n      dup1\n      0x00\n      dup1\n      0x00\n      dup1\n      0x00\n        /* \"#utility.yul\":7319:7322   */\n      0xe0\n        /* \"#utility.yul\":7307:7316   */\n      dup9\n        /* \"#utility.yul\":7298:7305   */\n      dup11\n        /* \"#utility.yul\":7294:7317   */\n      sub\n        /* \"#utility.yul\":7290:7323   */\n      slt\n        /* \"#utility.yul\":7287:7289   */\n      iszero\n      tag_732\n      jumpi\n        /* \"#utility.yul\":7341:7347   */\n      dup5\n        /* \"#utility.yul\":7333:7339   */\n      dup6\n        /* \"#utility.yul\":7326:7348   */\n      revert\n        /* \"#utility.yul\":7287:7289   */\n    tag_732:\n        /* \"#utility.yul\":7385:7394   */\n      dup8\n        /* \"#utility.yul\":7372:7395   */\n      calldataload\n        /* \"#utility.yul\":7404:7434   */\n      tag_733\n        /* \"#utility.yul\":7428:7433   */\n      dup2\n        /* \"#utility.yul\":7404:7434   */\n      tag_681\n      jump\t// in\n    tag_733:\n        /* \"#utility.yul\":7453:7458   */\n      swap7\n      pop\n        /* \"#utility.yul\":7505:7507   */\n      0x20\n        /* \"#utility.yul\":7490:7508   */\n      dup9\n      add\n        /* \"#utility.yul\":7477:7509   */\n      calldataload\n      swap6\n      pop\n        /* \"#utility.yul\":7556:7558   */\n      0x40\n        /* \"#utility.yul\":7541:7559   */\n      dup9\n      add\n        /* \"#utility.yul\":7528:7560   */\n      calldataload\n      swap5\n      pop\n        /* \"#utility.yul\":7611:7613   */\n      0x60\n        /* \"#utility.yul\":7596:7614   */\n      dup9\n      add\n        /* \"#utility.yul\":7583:7615   */\n      calldataload\n        /* \"#utility.yul\":7634:7652   */\n      0xffffffffffffffff\n        /* \"#utility.yul\":7664:7678   */\n      dup1\n      dup3\n      gt\n        /* \"#utility.yul\":7661:7663   */\n      iszero\n      tag_734\n      jumpi\n        /* \"#utility.yul\":7696:7702   */\n      dup3\n        /* \"#utility.yul\":7688:7694   */\n      dup4\n        /* \"#utility.yul\":7681:7703   */\n      revert\n        /* \"#utility.yul\":7661:7663   */\n    tag_734:\n        /* \"#utility.yul\":7724:7775   */\n      tag_735\n        /* \"#utility.yul\":7767:7774   */\n      dup12\n        /* \"#utility.yul\":7758:7764   */\n      dup4\n        /* \"#utility.yul\":7747:7756   */\n      dup13\n        /* \"#utility.yul\":7743:7765   */\n      add\n        /* \"#utility.yul\":7724:7775   */\n      tag_668\n      jump\t// in\n    tag_735:\n        /* \"#utility.yul\":7714:7775   */\n      swap6\n      pop\n        /* \"#utility.yul\":7822:7825   */\n      0x80\n        /* \"#utility.yul\":7811:7820   */\n      dup11\n        /* \"#utility.yul\":7807:7826   */\n      add\n        /* \"#utility.yul\":7794:7827   */\n      calldataload\n        /* \"#utility.yul\":7784:7827   */\n      swap5\n      pop\n        /* \"#utility.yul\":7880:7883   */\n      0xa0\n        /* \"#utility.yul\":7869:7878   */\n      dup11\n        /* \"#utility.yul\":7865:7884   */\n      add\n        /* \"#utility.yul\":7852:7885   */\n      calldataload\n        /* \"#utility.yul\":7836:7885   */\n      swap2\n      pop\n        /* \"#utility.yul\":7910:7912   */\n      dup1\n        /* \"#utility.yul\":7900:7908   */\n      dup3\n        /* \"#utility.yul\":7897:7913   */\n      gt\n        /* \"#utility.yul\":7894:7896   */\n      iszero\n      tag_736\n      jumpi\n        /* \"#utility.yul\":7931:7937   */\n      dup3\n        /* \"#utility.yul\":7923:7929   */\n      dup4\n        /* \"#utility.yul\":7916:7938   */\n      revert\n        /* \"#utility.yul\":7894:7896   */\n    tag_736:\n      pop\n        /* \"#utility.yul\":7959:8012   */\n      tag_737\n        /* \"#utility.yul\":8004:8011   */\n      dup11\n        /* \"#utility.yul\":7993:8001   */\n      dup3\n        /* \"#utility.yul\":7982:7991   */\n      dup12\n        /* \"#utility.yul\":7978:8002   */\n      add\n        /* \"#utility.yul\":7959:8012   */\n      tag_668\n      jump\t// in\n    tag_737:\n        /* \"#utility.yul\":7949:8012   */\n      swap3\n      pop\n      pop\n        /* \"#utility.yul\":8059:8062   */\n      0xc0\n        /* \"#utility.yul\":8048:8057   */\n      dup9\n        /* \"#utility.yul\":8044:8063   */\n      add\n        /* \"#utility.yul\":8031:8064   */\n      calldataload\n        /* \"#utility.yul\":8021:8064   */\n      swap1\n      pop\n        /* \"#utility.yul\":7277:8070   */\n      swap3\n      swap6\n      swap9\n      swap2\n      swap5\n      swap8\n      pop\n      swap3\n      swap6\n      pop\n      jump\t// out\n        /* \"#utility.yul\":8075:9194   */\n    tag_143:\n      0x00\n      dup1\n      0x00\n      dup1\n      0x00\n      dup1\n      0x00\n      dup1\n      0x00\n        /* \"#utility.yul\":8339:8342   */\n      0x0120\n        /* \"#utility.yul\":8327:8336   */\n      dup11\n        /* \"#utility.yul\":8318:8325   */\n      dup13\n        /* \"#utility.yul\":8314:8337   */\n      sub\n        /* \"#utility.yul\":8310:8343   */\n      slt\n        /* \"#utility.yul\":8307:8309   */\n      iszero\n      tag_739\n      jumpi\n        /* \"#utility.yul\":8361:8367   */\n      dup3\n        /* \"#utility.yul\":8353:8359   */\n      dup4\n        /* \"#utility.yul\":8346:8368   */\n      revert\n        /* \"#utility.yul\":8307:8309   */\n    tag_739:\n        /* \"#utility.yul\":8405:8414   */\n      dup10\n        /* \"#utility.yul\":8392:8415   */\n      calldataload\n        /* \"#utility.yul\":8424:8454   */\n      tag_740\n        /* \"#utility.yul\":8448:8453   */\n      dup2\n        /* \"#utility.yul\":8424:8454   */\n      tag_681\n      jump\t// in\n    tag_740:\n        /* \"#utility.yul\":8473:8478   */\n      swap9\n      pop\n        /* \"#utility.yul\":8525:8527   */\n      0x20\n        /* \"#utility.yul\":8510:8528   */\n      dup11\n      add\n        /* \"#utility.yul\":8497:8529   */\n      calldataload\n      swap8\n      pop\n        /* \"#utility.yul\":8576:8578   */\n      0x40\n        /* \"#utility.yul\":8561:8579   */\n      dup11\n      add\n        /* \"#utility.yul\":8548:8580   */\n      calldataload\n      swap7\n      pop\n        /* \"#utility.yul\":8627:8629   */\n      0x60\n        /* \"#utility.yul\":8612:8630   */\n      dup11\n      add\n        /* \"#utility.yul\":8599:8631   */\n      calldataload\n      swap6\n      pop\n        /* \"#utility.yul\":8678:8681   */\n      0x80\n        /* \"#utility.yul\":8663:8682   */\n      dup11\n      add\n        /* \"#utility.yul\":8650:8683   */\n      calldataload\n      swap5\n      pop\n        /* \"#utility.yul\":8734:8737   */\n      0xa0\n        /* \"#utility.yul\":8719:8738   */\n      dup11\n      add\n        /* \"#utility.yul\":8706:8739   */\n      calldataload\n        /* \"#utility.yul\":8758:8776   */\n      0xffffffffffffffff\n        /* \"#utility.yul\":8788:8802   */\n      dup1\n      dup3\n      gt\n        /* \"#utility.yul\":8785:8787   */\n      iszero\n      tag_741\n      jumpi\n        /* \"#utility.yul\":8820:8826   */\n      dup5\n        /* \"#utility.yul\":8812:8818   */\n      dup6\n        /* \"#utility.yul\":8805:8827   */\n      revert\n        /* \"#utility.yul\":8785:8787   */\n    tag_741:\n        /* \"#utility.yul\":8848:8899   */\n      tag_742\n        /* \"#utility.yul\":8891:8898   */\n      dup14\n        /* \"#utility.yul\":8882:8888   */\n      dup4\n        /* \"#utility.yul\":8871:8880   */\n      dup15\n        /* \"#utility.yul\":8867:8889   */\n      add\n        /* \"#utility.yul\":8848:8899   */\n      tag_668\n      jump\t// in\n    tag_742:\n        /* \"#utility.yul\":8838:8899   */\n      swap6\n      pop\n        /* \"#utility.yul\":8946:8949   */\n      0xc0\n        /* \"#utility.yul\":8935:8944   */\n      dup13\n        /* \"#utility.yul\":8931:8950   */\n      add\n        /* \"#utility.yul\":8918:8951   */\n      calldataload\n        /* \"#utility.yul\":8908:8951   */\n      swap5\n      pop\n        /* \"#utility.yul\":8998:9001   */\n      0xe0\n        /* \"#utility.yul\":8987:8996   */\n      dup13\n        /* \"#utility.yul\":8983:9002   */\n      add\n        /* \"#utility.yul\":8970:9003   */\n      calldataload\n        /* \"#utility.yul\":8960:9003   */\n      swap4\n      pop\n        /* \"#utility.yul\":9056:9059   */\n      0x0100\n        /* \"#utility.yul\":9045:9054   */\n      dup13\n        /* \"#utility.yul\":9041:9060   */\n      add\n        /* \"#utility.yul\":9028:9061   */\n      calldataload\n        /* \"#utility.yul\":9012:9061   */\n      swap2\n      pop\n        /* \"#utility.yul\":9086:9088   */\n      dup1\n        /* \"#utility.yul\":9076:9084   */\n      dup3\n        /* \"#utility.yul\":9073:9089   */\n      gt\n        /* \"#utility.yul\":9070:9072   */\n      iszero\n      tag_743\n      jumpi\n        /* \"#utility.yul\":9107:9113   */\n      dup3\n        /* \"#utility.yul\":9099:9105   */\n      dup4\n        /* \"#utility.yul\":9092:9114   */\n      revert\n        /* \"#utility.yul\":9070:9072   */\n    tag_743:\n      pop\n        /* \"#utility.yul\":9135:9188   */\n      tag_744\n        /* \"#utility.yul\":9180:9187   */\n      dup13\n        /* \"#utility.yul\":9169:9177   */\n      dup3\n        /* \"#utility.yul\":9158:9167   */\n      dup14\n        /* \"#utility.yul\":9154:9178   */\n      add\n        /* \"#utility.yul\":9135:9188   */\n      tag_668\n      jump\t// in\n    tag_744:\n        /* \"#utility.yul\":9125:9188   */\n      swap2\n      pop\n      pop\n        /* \"#utility.yul\":8297:9194   */\n      swap3\n      swap6\n      swap9\n      pop\n      swap3\n      swap6\n      swap9\n      pop\n      swap3\n      swap6\n      swap9\n      jump\t// out\n        /* \"#utility.yul\":9199:9389   */\n    tag_50:\n      0x00\n        /* \"#utility.yul\":9311:9313   */\n      0x20\n        /* \"#utility.yul\":9299:9308   */\n      dup3\n        /* \"#utility.yul\":9290:9297   */\n      dup5\n        /* \"#utility.yul\":9286:9309   */\n      sub\n        /* \"#utility.yul\":9282:9314   */\n      slt\n        /* \"#utility.yul\":9279:9281   */\n      iszero\n      tag_746\n      jumpi\n        /* \"#utility.yul\":9332:9338   */\n      dup1\n        /* \"#utility.yul\":9324:9330   */\n      dup2\n        /* \"#utility.yul\":9317:9339   */\n      revert\n        /* \"#utility.yul\":9279:9281   */\n    tag_746:\n      pop\n        /* \"#utility.yul\":9360:9383   */\n      calldataload\n      swap2\n        /* \"#utility.yul\":9269:9389   */\n      swap1\n      pop\n      jump\t// out\n        /* \"#utility.yul\":9394:9588   */\n    tag_377:\n      0x00\n        /* \"#utility.yul\":9517:9519   */\n      0x20\n        /* \"#utility.yul\":9505:9514   */\n      dup3\n        /* \"#utility.yul\":9496:9503   */\n      dup5\n        /* \"#utility.yul\":9492:9515   */\n      sub\n        /* \"#utility.yul\":9488:9520   */\n      slt\n        /* \"#utility.yul\":9485:9487   */\n      iszero\n      tag_748\n      jumpi\n        /* \"#utility.yul\":9538:9544   */\n      dup1\n        /* \"#utility.yul\":9530:9536   */\n      dup2\n        /* \"#utility.yul\":9523:9545   */\n      revert\n        /* \"#utility.yul\":9485:9487   */\n    tag_748:\n      pop\n        /* \"#utility.yul\":9566:9582   */\n      mload\n      swap2\n        /* \"#utility.yul\":9475:9588   */\n      swap1\n      pop\n      jump\t// out\n        /* \"#utility.yul\":9593:10702   */\n    tag_173:\n      0x00\n      dup1\n      0x00\n      dup1\n      0x00\n      dup1\n      0x00\n      dup1\n      0x00\n      dup1\n      0x00\n      dup1\n        /* \"#utility.yul\":9904:9907   */\n      0x0180\n        /* \"#utility.yul\":9892:9901   */\n      dup14\n        /* \"#utility.yul\":9883:9890   */\n      dup16\n        /* \"#utility.yul\":9879:9902   */\n      sub\n        /* \"#utility.yul\":9875:9908   */\n      slt\n        /* \"#utility.yul\":9872:9874   */\n      iszero\n      tag_750\n      jumpi\n        /* \"#utility.yul\":9926:9932   */\n      dup6\n        /* \"#utility.yul\":9918:9924   */\n      dup7\n        /* \"#utility.yul\":9911:9933   */\n      revert\n        /* \"#utility.yul\":9872:9874   */\n    tag_750:\n        /* \"#utility.yul\":9967:9976   */\n      dup13\n        /* \"#utility.yul\":9954:9977   */\n      calldataload\n        /* \"#utility.yul\":9944:9977   */\n      swap12\n      pop\n        /* \"#utility.yul\":9996:10036   */\n      tag_751\n        /* \"#utility.yul\":10032:10034   */\n      0x20\n        /* \"#utility.yul\":10021:10030   */\n      dup15\n        /* \"#utility.yul\":10017:10035   */\n      add\n        /* \"#utility.yul\":9996:10036   */\n      tag_653\n      jump\t// in\n    tag_751:\n        /* \"#utility.yul\":9986:10036   */\n      swap11\n      pop\n        /* \"#utility.yul\":10083:10085   */\n      0x40\n        /* \"#utility.yul\":10072:10081   */\n      dup14\n        /* \"#utility.yul\":10068:10086   */\n      add\n        /* \"#utility.yul\":10055:10087   */\n      calldataload\n        /* \"#utility.yul\":10045:10087   */\n      swap10\n      pop\n        /* \"#utility.yul\":10136:10154   */\n      0xffffffffffffffff\n        /* \"#utility.yul\":10130:10132   */\n      0x60\n        /* \"#utility.yul\":10119:10128   */\n      dup15\n        /* \"#utility.yul\":10115:10133   */\n      add\n        /* \"#utility.yul\":10102:10134   */\n      calldataload\n        /* \"#utility.yul\":10099:10155   */\n      gt\n        /* \"#utility.yul\":10096:10098   */\n      iszero\n      tag_752\n      jumpi\n        /* \"#utility.yul\":10173:10179   */\n      dup6\n        /* \"#utility.yul\":10165:10171   */\n      dup7\n        /* \"#utility.yul\":10158:10180   */\n      revert\n        /* \"#utility.yul\":10096:10098   */\n    tag_752:\n        /* \"#utility.yul\":10201:10278   */\n      tag_753\n        /* \"#utility.yul\":10270:10277   */\n      dup15\n        /* \"#utility.yul\":10263:10265   */\n      0x60\n        /* \"#utility.yul\":10252:10261   */\n      dup16\n        /* \"#utility.yul\":10248:10266   */\n      add\n        /* \"#utility.yul\":10235:10267   */\n      calldataload\n        /* \"#utility.yul\":10224:10233   */\n      dup16\n        /* \"#utility.yul\":10220:10268   */\n      add\n        /* \"#utility.yul\":10201:10278   */\n      tag_668\n      jump\t// in\n    tag_753:\n        /* \"#utility.yul\":9862:10702   */\n      swap12\n      swap15\n      swap11\n      swap14\n      pop\n      swap9\n      swap12\n        /* \"#utility.yul\":10325:10328   */\n      0x80\n        /* \"#utility.yul\":10310:10329   */\n      dup2\n      add\n        /* \"#utility.yul\":10297:10330   */\n      calldataload\n      swap11\n        /* \"#utility.yul\":10377:10380   */\n      0xa0\n        /* \"#utility.yul\":10362:10381   */\n      dup3\n      add\n        /* \"#utility.yul\":10349:10382   */\n      calldataload\n      swap11\n      pop\n        /* \"#utility.yul\":10429:10432   */\n      0xc0\n        /* \"#utility.yul\":10414:10433   */\n      dup3\n      add\n        /* \"#utility.yul\":10401:10434   */\n      calldataload\n      swap10\n      pop\n        /* \"#utility.yul\":10481:10484   */\n      0xe0\n        /* \"#utility.yul\":10466:10485   */\n      dup3\n      add\n        /* \"#utility.yul\":10453:10486   */\n      calldataload\n      swap9\n      pop\n        /* \"#utility.yul\":10533:10536   */\n      0x0100\n        /* \"#utility.yul\":10518:10537   */\n      dup3\n      add\n        /* \"#utility.yul\":10505:10538   */\n      calldataload\n      swap8\n      pop\n        /* \"#utility.yul\":10585:10588   */\n      0x0120\n        /* \"#utility.yul\":10570:10589   */\n      dup3\n      add\n        /* \"#utility.yul\":10557:10590   */\n      calldataload\n      swap7\n      pop\n        /* \"#utility.yul\":10638:10641   */\n      0x0140\n        /* \"#utility.yul\":10623:10642   */\n      dup3\n      add\n        /* \"#utility.yul\":10610:10643   */\n      calldataload\n      swap6\n      pop\n        /* \"#utility.yul\":10691:10694   */\n      0x0160\n        /* \"#utility.yul\":10676:10695   */\n      swap1\n      swap2\n      add\n        /* \"#utility.yul\":10663:10696   */\n      calldataload\n      swap4\n      pop\n        /* \"#utility.yul\":9862:10702   */\n      swap2\n      pop\n      pop\n      jump\t// out\n        /* \"#utility.yul\":10707:10813   */\n    tag_754:\n      sub(shl(0xa0, 0x01), 0x01)\n        /* \"#utility.yul\":10775:10806   */\n      and\n        /* \"#utility.yul\":10763:10807   */\n      swap1\n      mstore\n        /* \"#utility.yul\":10753:10813   */\n      jump\t// out\n        /* \"#utility.yul\":10818:11077   */\n    tag_756:\n      0x00\n        /* \"#utility.yul\":10899:10904   */\n      dup2\n        /* \"#utility.yul\":10893:10905   */\n      mload\n        /* \"#utility.yul\":10926:10932   */\n      dup1\n        /* \"#utility.yul\":10921:10924   */\n      dup5\n        /* \"#utility.yul\":10914:10933   */\n      mstore\n        /* \"#utility.yul\":10942:11005   */\n      tag_758\n        /* \"#utility.yul\":10998:11004   */\n      dup2\n        /* \"#utility.yul\":10991:10995   */\n      0x20\n        /* \"#utility.yul\":10986:10989   */\n      dup7\n        /* \"#utility.yul\":10982:10996   */\n      add\n        /* \"#utility.yul\":10975:10979   */\n      0x20\n        /* \"#utility.yul\":10968:10973   */\n      dup7\n        /* \"#utility.yul\":10964:10980   */\n      add\n        /* \"#utility.yul\":10942:11005   */\n      tag_759\n      jump\t// in\n    tag_758:\n        /* \"#utility.yul\":11059:11061   */\n      0x1f\n        /* \"#utility.yul\":11038:11053   */\n      add\n      not(0x1f)\n        /* \"#utility.yul\":11034:11063   */\n      and\n        /* \"#utility.yul\":11025:11064   */\n      swap3\n      swap1\n      swap3\n      add\n        /* \"#utility.yul\":11066:11070   */\n      0x20\n        /* \"#utility.yul\":11021:11071   */\n      add\n      swap3\n        /* \"#utility.yul\":10869:11077   */\n      swap2\n      pop\n      pop\n      jump\t// out\n        /* \"#utility.yul\":11082:11356   */\n    tag_628:\n      0x00\n        /* \"#utility.yul\":11249:11255   */\n      dup3\n        /* \"#utility.yul\":11243:11256   */\n      mload\n        /* \"#utility.yul\":11265:11318   */\n      tag_761\n        /* \"#utility.yul\":11311:11317   */\n      dup2\n        /* \"#utility.yul\":11306:11309   */\n      dup5\n        /* \"#utility.yul\":11299:11303   */\n      0x20\n        /* \"#utility.yul\":11291:11297   */\n      dup8\n        /* \"#utility.yul\":11287:11304   */\n      add\n        /* \"#utility.yul\":11265:11318   */\n      tag_759\n      jump\t// in\n    tag_761:\n        /* \"#utility.yul\":11334:11350   */\n      swap2\n      swap1\n      swap2\n      add\n      swap3\n        /* \"#utility.yul\":11219:11356   */\n      swap2\n      pop\n      pop\n      jump\t// out\n        /* \"#utility.yul\":11361:11564   */\n    tag_67:\n      sub(shl(0xa0, 0x01), 0x01)\n        /* \"#utility.yul\":11525:11557   */\n      swap2\n      swap1\n      swap2\n      and\n        /* \"#utility.yul\":11507:11558   */\n      dup2\n      mstore\n        /* \"#utility.yul\":11495:11497   */\n      0x20\n        /* \"#utility.yul\":11480:11498   */\n      add\n      swap1\n        /* \"#utility.yul\":11462:11564   */\n      jump\t// out\n        /* \"#utility.yul\":11569:11944   */\n    tag_567:\n      sub(shl(0xa0, 0x01), 0x01)\n        /* \"#utility.yul\":11827:11842   */\n      swap4\n      dup5\n      and\n        /* \"#utility.yul\":11809:11843   */\n      dup2\n      mstore\n        /* \"#utility.yul\":11879:11894   */\n      swap2\n      swap1\n      swap3\n      and\n        /* \"#utility.yul\":11874:11876   */\n      0x20\n        /* \"#utility.yul\":11859:11877   */\n      dup3\n      add\n        /* \"#utility.yul\":11852:11895   */\n      mstore\n        /* \"#utility.yul\":11926:11928   */\n      0x40\n        /* \"#utility.yul\":11911:11929   */\n      dup2\n      add\n        /* \"#utility.yul\":11904:11938   */\n      swap2\n      swap1\n      swap2\n      mstore\n        /* \"#utility.yul\":11759:11761   */\n      0x60\n        /* \"#utility.yul\":11744:11762   */\n      add\n      swap1\n        /* \"#utility.yul\":11726:11944   */\n      jump\t// out\n        /* \"#utility.yul\":11949:12223   */\n    tag_335:\n      sub(shl(0xa0, 0x01), 0x01)\n        /* \"#utility.yul\":12141:12173   */\n      swap3\n      swap1\n      swap3\n      and\n        /* \"#utility.yul\":12123:12174   */\n      dup3\n      mstore\n        /* \"#utility.yul\":12205:12207   */\n      0x20\n        /* \"#utility.yul\":12190:12208   */\n      dup3\n      add\n        /* \"#utility.yul\":12183:12217   */\n      mstore\n        /* \"#utility.yul\":12111:12113   */\n      0x40\n        /* \"#utility.yul\":12096:12114   */\n      add\n      swap1\n        /* \"#utility.yul\":12078:12223   */\n      jump\t// out\n        /* \"#utility.yul\":12228:12863   */\n    tag_47:\n        /* \"#utility.yul\":12399:12401   */\n      0x20\n        /* \"#utility.yul\":12451:12472   */\n      dup1\n      dup3\n      mstore\n        /* \"#utility.yul\":12521:12534   */\n      dup3\n      mload\n        /* \"#utility.yul\":12424:12442   */\n      dup3\n      dup3\n      add\n        /* \"#utility.yul\":12543:12565   */\n      dup2\n      swap1\n      mstore\n        /* \"#utility.yul\":12228:12863   */\n      0x00\n      swap2\n        /* \"#utility.yul\":12399:12401   */\n      swap1\n        /* \"#utility.yul\":12622:12637   */\n      dup5\n      dup3\n      add\n      swap1\n        /* \"#utility.yul\":12596:12598   */\n      0x40\n        /* \"#utility.yul\":12581:12599   */\n      dup6\n      add\n      swap1\n        /* \"#utility.yul\":12228:12863   */\n      dup5\n        /* \"#utility.yul\":12668:12837   */\n    tag_766:\n        /* \"#utility.yul\":12682:12688   */\n      dup2\n        /* \"#utility.yul\":12679:12680   */\n      dup2\n        /* \"#utility.yul\":12676:12689   */\n      lt\n        /* \"#utility.yul\":12668:12837   */\n      iszero\n      tag_768\n      jumpi\n        /* \"#utility.yul\":12743:12756   */\n      dup4\n      mload\n        /* \"#utility.yul\":12731:12757   */\n      dup4\n      mstore\n        /* \"#utility.yul\":12812:12827   */\n      swap3\n      dup5\n      add\n      swap3\n        /* \"#utility.yul\":12777:12789   */\n      swap2\n      dup5\n      add\n      swap2\n        /* \"#utility.yul\":12704:12705   */\n      0x01\n        /* \"#utility.yul\":12697:12706   */\n      add\n        /* \"#utility.yul\":12668:12837   */\n      jump(tag_766)\n    tag_768:\n      pop\n        /* \"#utility.yul\":12854:12857   */\n      swap1\n      swap7\n        /* \"#utility.yul\":12379:12863   */\n      swap6\n      pop\n      pop\n      pop\n      pop\n      pop\n      pop\n      jump\t// out\n        /* \"#utility.yul\":12868:13055   */\n    tag_59:\n        /* \"#utility.yul\":13033:13047   */\n      swap1\n      iszero\n        /* \"#utility.yul\":13026:13048   */\n      iszero\n        /* \"#utility.yul\":13008:13049   */\n      dup2\n      mstore\n        /* \"#utility.yul\":12996:12998   */\n      0x20\n        /* \"#utility.yul\":12981:12999   */\n      add\n      swap1\n        /* \"#utility.yul\":12963:13055   */\n      jump\t// out\n        /* \"#utility.yul\":13060:13669   */\n    tag_296:\n      0x00\n        /* \"#utility.yul\":13347:13353   */\n      dup7\n        /* \"#utility.yul\":13340:13354   */\n      iszero\n        /* \"#utility.yul\":13333:13355   */\n      iszero\n        /* \"#utility.yul\":13322:13331   */\n      dup3\n        /* \"#utility.yul\":13315:13356   */\n      mstore\n        /* \"#utility.yul\":13392:13398   */\n      dup6\n        /* \"#utility.yul\":13387:13389   */\n      0x20\n        /* \"#utility.yul\":13376:13385   */\n      dup4\n        /* \"#utility.yul\":13372:13390   */\n      add\n        /* \"#utility.yul\":13365:13399   */\n      mstore\n        /* \"#utility.yul\":13435:13441   */\n      dup5\n        /* \"#utility.yul\":13430:13432   */\n      0x40\n        /* \"#utility.yul\":13419:13428   */\n      dup4\n        /* \"#utility.yul\":13415:13433   */\n      add\n        /* \"#utility.yul\":13408:13442   */\n      mstore\n        /* \"#utility.yul\":13478:13481   */\n      0xa0\n        /* \"#utility.yul\":13473:13475   */\n      0x60\n        /* \"#utility.yul\":13462:13471   */\n      dup4\n        /* \"#utility.yul\":13458:13476   */\n      add\n        /* \"#utility.yul\":13451:13482   */\n      mstore\n        /* \"#utility.yul\":13505:13552   */\n      tag_771\n        /* \"#utility.yul\":13547:13550   */\n      0xa0\n        /* \"#utility.yul\":13536:13545   */\n      dup4\n        /* \"#utility.yul\":13532:13551   */\n      add\n        /* \"#utility.yul\":13524:13530   */\n      dup6\n        /* \"#utility.yul\":13505:13552   */\n      tag_756\n      jump\t// in\n    tag_771:\n        /* \"#utility.yul\":13601:13610   */\n      dup3\n        /* \"#utility.yul\":13593:13599   */\n      dup2\n        /* \"#utility.yul\":13589:13611   */\n      sub\n        /* \"#utility.yul\":13583:13586   */\n      0x80\n        /* \"#utility.yul\":13572:13581   */\n      dup5\n        /* \"#utility.yul\":13568:13587   */\n      add\n        /* \"#utility.yul\":13561:13612   */\n      mstore\n        /* \"#utility.yul\":13629:13663   */\n      tag_267\n        /* \"#utility.yul\":13656:13662   */\n      dup2\n        /* \"#utility.yul\":13648:13654   */\n      dup6\n        /* \"#utility.yul\":13629:13663   */\n      tag_756\n      jump\t// in\n        /* \"#utility.yul\":14360:14581   */\n    tag_641:\n      0x00\n        /* \"#utility.yul\":14509:14511   */\n      0x20\n        /* \"#utility.yul\":14498:14507   */\n      dup3\n        /* \"#utility.yul\":14491:14512   */\n      mstore\n        /* \"#utility.yul\":14529:14575   */\n      tag_429\n        /* \"#utility.yul\":14571:14573   */\n      0x20\n        /* \"#utility.yul\":14560:14569   */\n      dup4\n        /* \"#utility.yul\":14556:14574   */\n      add\n        /* \"#utility.yul\":14548:14554   */\n      dup5\n        /* \"#utility.yul\":14529:14575   */\n      tag_756\n      jump\t// in\n        /* \"#utility.yul\":14586:14930   */\n    tag_291:\n        /* \"#utility.yul\":14788:14790   */\n      0x20\n        /* \"#utility.yul\":14770:14791   */\n      dup1\n      dup3\n      mstore\n        /* \"#utility.yul\":14827:14829   */\n      0x14\n        /* \"#utility.yul\":14807:14825   */\n      swap1\n      dup3\n      add\n        /* \"#utility.yul\":14800:14830   */\n      mstore\n      shl(0x62, 0x1bdc99195c88191bd95cc81b9bdd08195e1a5cdd)\n        /* \"#utility.yul\":14861:14863   */\n      0x40\n        /* \"#utility.yul\":14846:14864   */\n      dup3\n      add\n        /* \"#utility.yul\":14839:14889   */\n      mstore\n        /* \"#utility.yul\":14921:14923   */\n      0x60\n        /* \"#utility.yul\":14906:14924   */\n      add\n      swap1\n        /* \"#utility.yul\":14760:14930   */\n      jump\t// out\n        /* \"#utility.yul\":14935:15273   */\n    tag_358:\n        /* \"#utility.yul\":15137:15139   */\n      0x20\n        /* \"#utility.yul\":15119:15140   */\n      dup1\n      dup3\n      mstore\n        /* \"#utility.yul\":15176:15178   */\n      0x0e\n        /* \"#utility.yul\":15156:15174   */\n      swap1\n      dup3\n      add\n        /* \"#utility.yul\":15149:15179   */\n      mstore\n      shl(0x92, 0x1b585c99da5b881b9bc819dbdbd9)\n        /* \"#utility.yul\":15210:15212   */\n      0x40\n        /* \"#utility.yul\":15195:15213   */\n      dup3\n      add\n        /* \"#utility.yul\":15188:15232   */\n      mstore\n        /* \"#utility.yul\":15264:15266   */\n      0x60\n        /* \"#utility.yul\":15249:15267   */\n      add\n      swap1\n        /* \"#utility.yul\":15109:15273   */\n      jump\t// out\n        /* \"#utility.yul\":15278:15680   */\n    tag_409:\n        /* \"#utility.yul\":15480:15482   */\n      0x20\n        /* \"#utility.yul\":15462:15483   */\n      dup1\n      dup3\n      mstore\n        /* \"#utility.yul\":15519:15521   */\n      0x26\n        /* \"#utility.yul\":15499:15517   */\n      swap1\n      dup3\n      add\n        /* \"#utility.yul\":15492:15522   */\n      mstore\n        /* \"#utility.yul\":15558:15592   */\n      0x4f776e61626c653a206e6577206f776e657220697320746865207a65726f2061\n        /* \"#utility.yul\":15553:15555   */\n      0x40\n        /* \"#utility.yul\":15538:15556   */\n      dup3\n      add\n        /* \"#utility.yul\":15531:15593   */\n      mstore\n      shl(0xd0, 0x646472657373)\n        /* \"#utility.yul\":15624:15626   */\n      0x60\n        /* \"#utility.yul\":15609:15627   */\n      dup3\n      add\n        /* \"#utility.yul\":15602:15638   */\n      mstore\n        /* \"#utility.yul\":15670:15673   */\n      0x80\n        /* \"#utility.yul\":15655:15674   */\n      add\n      swap1\n        /* \"#utility.yul\":15452:15680   */\n      jump\t// out\n        /* \"#utility.yul\":15685:16019   */\n    tag_304:\n        /* \"#utility.yul\":15887:15889   */\n      0x20\n        /* \"#utility.yul\":15869:15890   */\n      dup1\n      dup3\n      mstore\n        /* \"#utility.yul\":15926:15928   */\n      0x0a\n        /* \"#utility.yul\":15906:15924   */\n      swap1\n      dup3\n      add\n        /* \"#utility.yul\":15899:15929   */\n      mstore\n      shl(0xb1, 0x37b930b1b6329032b939)\n        /* \"#utility.yul\":15960:15962   */\n      0x40\n        /* \"#utility.yul\":15945:15963   */\n      dup3\n      add\n        /* \"#utility.yul\":15938:15978   */\n      mstore\n        /* \"#utility.yul\":16010:16012   */\n      0x60\n        /* \"#utility.yul\":15995:16013   */\n      add\n      swap1\n        /* \"#utility.yul\":15859:16019   */\n      jump\t// out\n        /* \"#utility.yul\":16024:16424   */\n    tag_229:\n        /* \"#utility.yul\":16226:16228   */\n      0x20\n        /* \"#utility.yul\":16208:16229   */\n      dup1\n      dup3\n      mstore\n        /* \"#utility.yul\":16265:16267   */\n      0x24\n        /* \"#utility.yul\":16245:16263   */\n      swap1\n      dup3\n      add\n        /* \"#utility.yul\":16238:16268   */\n      mstore\n        /* \"#utility.yul\":16304:16338   */\n      0x6578656375746f723a2063616c6c6572206973206e6f74207468652065786563\n        /* \"#utility.yul\":16299:16301   */\n      0x40\n        /* \"#utility.yul\":16284:16302   */\n      dup3\n      add\n        /* \"#utility.yul\":16277:16339   */\n      mstore\n      shl(0xe1, 0x3aba37b9)\n        /* \"#utility.yul\":16370:16372   */\n      0x60\n        /* \"#utility.yul\":16355:16373   */\n      dup3\n      add\n        /* \"#utility.yul\":16348:16382   */\n      mstore\n        /* \"#utility.yul\":16414:16417   */\n      0x80\n        /* \"#utility.yul\":16399:16418   */\n      add\n      swap1\n        /* \"#utility.yul\":16198:16424   */\n      jump\t// out\n        /* \"#utility.yul\":16429:16831   */\n    tag_621:\n        /* \"#utility.yul\":16631:16633   */\n      0x20\n        /* \"#utility.yul\":16613:16634   */\n      dup1\n      dup3\n      mstore\n        /* \"#utility.yul\":16670:16672   */\n      0x26\n        /* \"#utility.yul\":16650:16668   */\n      swap1\n      dup3\n      add\n        /* \"#utility.yul\":16643:16673   */\n      mstore\n        /* \"#utility.yul\":16709:16743   */\n      0x416464726573733a20696e73756666696369656e742062616c616e636520666f\n        /* \"#utility.yul\":16704:16706   */\n      0x40\n        /* \"#utility.yul\":16689:16707   */\n      dup3\n      add\n        /* \"#utility.yul\":16682:16744   */\n      mstore\n      shl(0xd2, 0x1c8818d85b1b)\n        /* \"#utility.yul\":16775:16777   */\n      0x60\n        /* \"#utility.yul\":16760:16778   */\n      dup3\n      add\n        /* \"#utility.yul\":16753:16789   */\n      mstore\n        /* \"#utility.yul\":16821:16824   */\n      0x80\n        /* \"#utility.yul\":16806:16825   */\n      add\n      swap1\n        /* \"#utility.yul\":16603:16831   */\n      jump\t// out\n        /* \"#utility.yul\":16836:17246   */\n    tag_415:\n        /* \"#utility.yul\":17038:17040   */\n      0x20\n        /* \"#utility.yul\":17020:17041   */\n      dup1\n      dup3\n      mstore\n        /* \"#utility.yul\":17077:17079   */\n      0x2e\n        /* \"#utility.yul\":17057:17075   */\n      swap1\n      dup3\n      add\n        /* \"#utility.yul\":17050:17080   */\n      mstore\n        /* \"#utility.yul\":17116:17150   */\n      0x496e697469616c697a61626c653a20636f6e747261637420697320616c726561\n        /* \"#utility.yul\":17111:17113   */\n      0x40\n        /* \"#utility.yul\":17096:17114   */\n      dup3\n      add\n        /* \"#utility.yul\":17089:17151   */\n      mstore\n      shl(0x92, 0x191e481a5b9a5d1a585b1a5e9959)\n        /* \"#utility.yul\":17182:17184   */\n      0x60\n        /* \"#utility.yul\":17167:17185   */\n      dup3\n      add\n        /* \"#utility.yul\":17160:17204   */\n      mstore\n        /* \"#utility.yul\":17236:17239   */\n      0x80\n        /* \"#utility.yul\":17221:17240   */\n      add\n      swap1\n        /* \"#utility.yul\":17010:17246   */\n      jump\t// out\n        /* \"#utility.yul\":17251:17650   */\n    tag_370:\n        /* \"#utility.yul\":17453:17455   */\n      0x20\n        /* \"#utility.yul\":17435:17456   */\n      dup1\n      dup3\n      mstore\n        /* \"#utility.yul\":17492:17494   */\n      0x23\n        /* \"#utility.yul\":17472:17490   */\n      swap1\n      dup3\n      add\n        /* \"#utility.yul\":17465:17495   */\n      mstore\n        /* \"#utility.yul\":17531:17565   */\n      0x546865207472616e73616374696f6e20616d6f756e7420697320746f6f20736d\n        /* \"#utility.yul\":17526:17528   */\n      0x40\n        /* \"#utility.yul\":17511:17529   */\n      dup3\n      add\n        /* \"#utility.yul\":17504:17566   */\n      mstore\n      shl(0xea, 0x185b1b)\n        /* \"#utility.yul\":17597:17599   */\n      0x60\n        /* \"#utility.yul\":17582:17600   */\n      dup3\n      add\n        /* \"#utility.yul\":17575:17608   */\n      mstore\n        /* \"#utility.yul\":17640:17643   */\n      0x80\n        /* \"#utility.yul\":17625:17644   */\n      add\n      swap1\n        /* \"#utility.yul\":17425:17650   */\n      jump\t// out\n        /* \"#utility.yul\":17655:17995   */\n    tag_308:\n        /* \"#utility.yul\":17857:17859   */\n      0x20\n        /* \"#utility.yul\":17839:17860   */\n      dup1\n      dup3\n      mstore\n        /* \"#utility.yul\":17896:17898   */\n      0x10\n        /* \"#utility.yul\":17876:17894   */\n      swap1\n      dup3\n      add\n        /* \"#utility.yul\":17869:17899   */\n      mstore\n      shl(0x82, 0x155cd95c881a5cc818985b9adc9d5c1d)\n        /* \"#utility.yul\":17930:17932   */\n      0x40\n        /* \"#utility.yul\":17915:17933   */\n      dup3\n      add\n        /* \"#utility.yul\":17908:17954   */\n      mstore\n        /* \"#utility.yul\":17986:17988   */\n      0x60\n        /* \"#utility.yul\":17971:17989   */\n      add\n      swap1\n        /* \"#utility.yul\":17829:17995   */\n      jump\t// out\n        /* \"#utility.yul\":18000:18356   */\n    tag_224:\n        /* \"#utility.yul\":18202:18204   */\n      0x20\n        /* \"#utility.yul\":18184:18205   */\n      dup1\n      dup3\n      mstore\n        /* \"#utility.yul\":18221:18239   */\n      dup2\n      dup2\n      add\n        /* \"#utility.yul\":18214:18244   */\n      mstore\n        /* \"#utility.yul\":18280:18314   */\n      0x4f776e61626c653a2063616c6c6572206973206e6f7420746865206f776e6572\n        /* \"#utility.yul\":18275:18277   */\n      0x40\n        /* \"#utility.yul\":18260:18278   */\n      dup3\n      add\n        /* \"#utility.yul\":18253:18315   */\n      mstore\n        /* \"#utility.yul\":18347:18349   */\n      0x60\n        /* \"#utility.yul\":18332:18350   */\n      add\n      swap1\n        /* \"#utility.yul\":18174:18356   */\n      jump\t// out\n        /* \"#utility.yul\":18361:18714   */\n    tag_626:\n        /* \"#utility.yul\":18563:18565   */\n      0x20\n        /* \"#utility.yul\":18545:18566   */\n      dup1\n      dup3\n      mstore\n        /* \"#utility.yul\":18602:18604   */\n      0x1d\n        /* \"#utility.yul\":18582:18600   */\n      swap1\n      dup3\n      add\n        /* \"#utility.yul\":18575:18605   */\n      mstore\n        /* \"#utility.yul\":18641:18672   */\n      0x416464726573733a2063616c6c20746f206e6f6e2d636f6e7472616374000000\n        /* \"#utility.yul\":18636:18638   */\n      0x40\n        /* \"#utility.yul\":18621:18639   */\n      dup3\n      add\n        /* \"#utility.yul\":18614:18673   */\n      mstore\n        /* \"#utility.yul\":18705:18707   */\n      0x60\n        /* \"#utility.yul\":18690:18708   */\n      add\n      swap1\n        /* \"#utility.yul\":18535:18714   */\n      jump\t// out\n        /* \"#utility.yul\":18719:19053   */\n    tag_199:\n        /* \"#utility.yul\":18921:18923   */\n      0x20\n        /* \"#utility.yul\":18903:18924   */\n      dup1\n      dup3\n      mstore\n        /* \"#utility.yul\":18960:18962   */\n      0x0a\n        /* \"#utility.yul\":18940:18958   */\n      swap1\n      dup3\n      add\n        /* \"#utility.yul\":18933:18963   */\n      mstore\n      shl(0xb1, 0x3632b733ba341032b939)\n        /* \"#utility.yul\":18994:18996   */\n      0x40\n        /* \"#utility.yul\":18979:18997   */\n      dup3\n      add\n        /* \"#utility.yul\":18972:19012   */\n      mstore\n        /* \"#utility.yul\":19044:19046   */\n      0x60\n        /* \"#utility.yul\":19029:19047   */\n      add\n      swap1\n        /* \"#utility.yul\":18893:19053   */\n      jump\t// out\n        /* \"#utility.yul\":19058:19389   */\n    tag_266:\n        /* \"#utility.yul\":19260:19262   */\n      0x20\n        /* \"#utility.yul\":19242:19263   */\n      dup1\n      dup3\n      mstore\n        /* \"#utility.yul\":19299:19300   */\n      0x08\n        /* \"#utility.yul\":19279:19297   */\n      swap1\n      dup3\n      add\n        /* \"#utility.yul\":19272:19301   */\n      mstore\n      shl(0xc1, 0x3ab9b2b91032b939)\n        /* \"#utility.yul\":19332:19334   */\n      0x40\n        /* \"#utility.yul\":19317:19335   */\n      dup3\n      add\n        /* \"#utility.yul\":19310:19348   */\n      mstore\n        /* \"#utility.yul\":19380:19382   */\n      0x60\n        /* \"#utility.yul\":19365:19383   */\n      add\n      swap1\n        /* \"#utility.yul\":19232:19389   */\n      jump\t// out\n        /* \"#utility.yul\":19394:19726   */\n    tag_294:\n        /* \"#utility.yul\":19596:19598   */\n      0x20\n        /* \"#utility.yul\":19578:19599   */\n      dup1\n      dup3\n      mstore\n        /* \"#utility.yul\":19635:19636   */\n      0x09\n        /* \"#utility.yul\":19615:19633   */\n      swap1\n      dup3\n      add\n        /* \"#utility.yul\":19608:19637   */\n      mstore\n      shl(0xb9, 0x39ba30ba329032b939)\n        /* \"#utility.yul\":19668:19670   */\n      0x40\n        /* \"#utility.yul\":19653:19671   */\n      dup3\n      add\n        /* \"#utility.yul\":19646:19685   */\n      mstore\n        /* \"#utility.yul\":19717:19719   */\n      0x60\n        /* \"#utility.yul\":19702:19720   */\n      add\n      swap1\n        /* \"#utility.yul\":19568:19726   */\n      jump\t// out\n        /* \"#utility.yul\":19731:20137   */\n    tag_598:\n        /* \"#utility.yul\":19933:19935   */\n      0x20\n        /* \"#utility.yul\":19915:19936   */\n      dup1\n      dup3\n      mstore\n        /* \"#utility.yul\":19972:19974   */\n      0x2a\n        /* \"#utility.yul\":19952:19970   */\n      swap1\n      dup3\n      add\n        /* \"#utility.yul\":19945:19975   */\n      mstore\n        /* \"#utility.yul\":20011:20045   */\n      0x5361666545524332303a204552433230206f7065726174696f6e20646964206e\n        /* \"#utility.yul\":20006:20008   */\n      0x40\n        /* \"#utility.yul\":19991:20009   */\n      dup3\n      add\n        /* \"#utility.yul\":19984:20046   */\n      mstore\n      shl(0xb2, 0x1bdd081cdd58d8d95959)\n        /* \"#utility.yul\":20077:20079   */\n      0x60\n        /* \"#utility.yul\":20062:20080   */\n      dup3\n      add\n        /* \"#utility.yul\":20055:20095   */\n      mstore\n        /* \"#utility.yul\":20127:20130   */\n      0x80\n        /* \"#utility.yul\":20112:20131   */\n      add\n      swap1\n        /* \"#utility.yul\":19905:20137   */\n      jump\t// out\n        /* \"#utility.yul\":20142:20477   */\n    tag_202:\n        /* \"#utility.yul\":20344:20346   */\n      0x20\n        /* \"#utility.yul\":20326:20347   */\n      dup1\n      dup3\n      mstore\n        /* \"#utility.yul\":20383:20385   */\n      0x0b\n        /* \"#utility.yul\":20363:20381   */\n      swap1\n      dup3\n      add\n        /* \"#utility.yul\":20356:20386   */\n      mstore\n      shl(0xaa, 0x185c9c881b9bc819dbdbd9)\n        /* \"#utility.yul\":20417:20419   */\n      0x40\n        /* \"#utility.yul\":20402:20420   */\n      dup3\n      add\n        /* \"#utility.yul\":20395:20436   */\n      mstore\n        /* \"#utility.yul\":20468:20470   */\n      0x60\n        /* \"#utility.yul\":20453:20471   */\n      add\n      swap1\n        /* \"#utility.yul\":20316:20477   */\n      jump\t// out\n        /* \"#utility.yul\":20482:21620   */\n    tag_90:\n      0x00\n        /* \"#utility.yul\":20665:20667   */\n      0x20\n        /* \"#utility.yul\":20654:20663   */\n      dup3\n        /* \"#utility.yul\":20647:20668   */\n      mstore\n        /* \"#utility.yul\":20677:20732   */\n      tag_795\n        /* \"#utility.yul\":20728:20730   */\n      0x20\n        /* \"#utility.yul\":20717:20726   */\n      dup4\n        /* \"#utility.yul\":20713:20731   */\n      add\n        /* \"#utility.yul\":20704:20710   */\n      dup5\n        /* \"#utility.yul\":20698:20711   */\n      mload\n        /* \"#utility.yul\":20677:20732   */\n      tag_754\n      jump\t// in\n    tag_795:\n        /* \"#utility.yul\":20786:20788   */\n      0x20\n        /* \"#utility.yul\":20778:20784   */\n      dup4\n        /* \"#utility.yul\":20774:20789   */\n      add\n        /* \"#utility.yul\":20768:20790   */\n      mload\n        /* \"#utility.yul\":20763:20765   */\n      0x40\n        /* \"#utility.yul\":20752:20761   */\n      dup4\n        /* \"#utility.yul\":20748:20766   */\n      add\n        /* \"#utility.yul\":20741:20791   */\n      mstore\n        /* \"#utility.yul\":20838:20840   */\n      0x40\n        /* \"#utility.yul\":20830:20836   */\n      dup4\n        /* \"#utility.yul\":20826:20841   */\n      add\n        /* \"#utility.yul\":20820:20842   */\n      mload\n        /* \"#utility.yul\":20861:20867   */\n      0x0160\n        /* \"#utility.yul\":20903:20905   */\n      dup1\n        /* \"#utility.yul\":20898:20900   */\n      0x60\n        /* \"#utility.yul\":20887:20896   */\n      dup6\n        /* \"#utility.yul\":20883:20901   */\n      add\n        /* \"#utility.yul\":20876:20906   */\n      mstore\n        /* \"#utility.yul\":20929:20982   */\n      tag_796\n        /* \"#utility.yul\":20977:20980   */\n      0x0180\n        /* \"#utility.yul\":20966:20975   */\n      dup6\n        /* \"#utility.yul\":20962:20981   */\n      add\n        /* \"#utility.yul\":20948:20960   */\n      dup4\n        /* \"#utility.yul\":20929:20982   */\n      tag_756\n      jump\t// in\n    tag_796:\n        /* \"#utility.yul\":20915:20982   */\n      swap2\n      pop\n        /* \"#utility.yul\":21037:21039   */\n      0x60\n        /* \"#utility.yul\":21029:21035   */\n      dup6\n        /* \"#utility.yul\":21025:21040   */\n      add\n        /* \"#utility.yul\":21019:21041   */\n      mload\n        /* \"#utility.yul\":21013:21016   */\n      0x80\n        /* \"#utility.yul\":21002:21011   */\n      dup6\n        /* \"#utility.yul\":20998:21017   */\n      add\n        /* \"#utility.yul\":20991:21042   */\n      mstore\n        /* \"#utility.yul\":21097:21100   */\n      0x80\n        /* \"#utility.yul\":21089:21095   */\n      dup6\n        /* \"#utility.yul\":21085:21101   */\n      add\n        /* \"#utility.yul\":21079:21102   */\n      mload\n        /* \"#utility.yul\":21073:21076   */\n      0xa0\n        /* \"#utility.yul\":21062:21071   */\n      dup6\n        /* \"#utility.yul\":21058:21077   */\n      add\n        /* \"#utility.yul\":21051:21103   */\n      mstore\n        /* \"#utility.yul\":21158:21161   */\n      0xa0\n        /* \"#utility.yul\":21150:21156   */\n      dup6\n        /* \"#utility.yul\":21146:21162   */\n      add\n        /* \"#utility.yul\":21140:21163   */\n      mload\n        /* \"#utility.yul\":21134:21137   */\n      0xc0\n        /* \"#utility.yul\":21123:21132   */\n      dup6\n        /* \"#utility.yul\":21119:21138   */\n      add\n        /* \"#utility.yul\":21112:21164   */\n      mstore\n        /* \"#utility.yul\":21219:21222   */\n      0xc0\n        /* \"#utility.yul\":21211:21217   */\n      dup6\n        /* \"#utility.yul\":21207:21223   */\n      add\n        /* \"#utility.yul\":21201:21224   */\n      mload\n        /* \"#utility.yul\":21195:21198   */\n      0xe0\n        /* \"#utility.yul\":21184:21193   */\n      dup6\n        /* \"#utility.yul\":21180:21199   */\n      add\n        /* \"#utility.yul\":21173:21225   */\n      mstore\n        /* \"#utility.yul\":21262:21265   */\n      0xe0\n        /* \"#utility.yul\":21254:21260   */\n      dup6\n        /* \"#utility.yul\":21250:21266   */\n      add\n        /* \"#utility.yul\":21244:21267   */\n      mload\n        /* \"#utility.yul\":21286:21289   */\n      0x0100\n        /* \"#utility.yul\":21325:21327   */\n      dup2\n        /* \"#utility.yul\":21320:21322   */\n      dup2\n        /* \"#utility.yul\":21309:21318   */\n      dup8\n        /* \"#utility.yul\":21305:21323   */\n      add\n        /* \"#utility.yul\":21298:21328   */\n      mstore\n        /* \"#utility.yul\":21365:21367   */\n      dup1\n        /* \"#utility.yul\":21357:21363   */\n      dup8\n        /* \"#utility.yul\":21353:21368   */\n      add\n        /* \"#utility.yul\":21347:21369   */\n      mload\n        /* \"#utility.yul\":21337:21369   */\n      swap2\n      pop\n      pop\n        /* \"#utility.yul\":21388:21391   */\n      0x0120\n        /* \"#utility.yul\":21427:21429   */\n      dup2\n        /* \"#utility.yul\":21422:21424   */\n      dup2\n        /* \"#utility.yul\":21411:21420   */\n      dup8\n        /* \"#utility.yul\":21407:21425   */\n      add\n        /* \"#utility.yul\":21400:21430   */\n      mstore\n        /* \"#utility.yul\":21467:21469   */\n      dup1\n        /* \"#utility.yul\":21459:21465   */\n      dup8\n        /* \"#utility.yul\":21455:21470   */\n      add\n        /* \"#utility.yul\":21449:21471   */\n      mload\n        /* \"#utility.yul\":21439:21471   */\n      swap2\n      pop\n      pop\n        /* \"#utility.yul\":21490:21493   */\n      0x0140\n        /* \"#utility.yul\":21529:21531   */\n      dup2\n        /* \"#utility.yul\":21524:21526   */\n      dup2\n        /* \"#utility.yul\":21513:21522   */\n      dup8\n        /* \"#utility.yul\":21509:21527   */\n      add\n        /* \"#utility.yul\":21502:21532   */\n      mstore\n        /* \"#utility.yul\":21586:21588   */\n      dup1\n        /* \"#utility.yul\":21578:21584   */\n      dup8\n        /* \"#utility.yul\":21574:21589   */\n      add\n        /* \"#utility.yul\":21568:21590   */\n      mload\n        /* \"#utility.yul\":21563:21565   */\n      dup4\n        /* \"#utility.yul\":21552:21561   */\n      dup8\n        /* \"#utility.yul\":21548:21566   */\n      add\n        /* \"#utility.yul\":21541:21591   */\n      mstore\n      pop\n      pop\n      pop\n        /* \"#utility.yul\":21608:21614   */\n      dup1\n        /* \"#utility.yul\":21600:21614   */\n      swap2\n      pop\n      pop\n        /* \"#utility.yul\":20637:21620   */\n      swap3\n      swap2\n      pop\n      pop\n      jump\t// out\n        /* \"#utility.yul\":21625:21802   */\n    tag_53:\n        /* \"#utility.yul\":21771:21796   */\n      swap1\n      dup2\n      mstore\n        /* \"#utility.yul\":21759:21761   */\n      0x20\n        /* \"#utility.yul\":21744:21762   */\n      add\n      swap1\n        /* \"#utility.yul\":21726:21802   */\n      jump\t// out\n        /* \"#utility.yul\":21807:22058   */\n    tag_663:\n        /* \"#utility.yul\":21877:21879   */\n      0x40\n        /* \"#utility.yul\":21871:21880   */\n      mload\n        /* \"#utility.yul\":21907:21924   */\n      dup2\n      dup2\n      add\n        /* \"#utility.yul\":21954:21972   */\n      0xffffffffffffffff\n        /* \"#utility.yul\":21939:21973   */\n      dup2\n      gt\n        /* \"#utility.yul\":21975:21997   */\n      dup3\n      dup3\n      lt\n        /* \"#utility.yul\":21936:21998   */\n      or\n        /* \"#utility.yul\":21933:21935   */\n      iszero\n      tag_800\n      jumpi\n        /* \"#utility.yul\":22001:22019   */\n      tag_800\n      tag_686\n      jump\t// in\n    tag_800:\n        /* \"#utility.yul\":22037:22039   */\n      0x40\n        /* \"#utility.yul\":22030:22052   */\n      mstore\n        /* \"#utility.yul\":21851:22058   */\n      swap2\n      swap1\n      pop\n      jump\t// out\n        /* \"#utility.yul\":22063:22253   */\n    tag_662:\n      0x00\n        /* \"#utility.yul\":22160:22178   */\n      0xffffffffffffffff\n        /* \"#utility.yul\":22152:22158   */\n      dup3\n        /* \"#utility.yul\":22149:22179   */\n      gt\n        /* \"#utility.yul\":22146:22148   */\n      iszero\n      tag_803\n      jumpi\n        /* \"#utility.yul\":22182:22200   */\n      tag_803\n      tag_686\n      jump\t// in\n    tag_803:\n      pop\n        /* \"#utility.yul\":22242:22246   */\n      0x20\n        /* \"#utility.yul\":22223:22240   */\n      swap1\n      dup2\n      mul\n        /* \"#utility.yul\":22219:22247   */\n      add\n      swap1\n        /* \"#utility.yul\":22136:22253   */\n      jump\t// out\n        /* \"#utility.yul\":22258:22386   */\n    tag_446:\n      0x00\n        /* \"#utility.yul\":22329:22330   */\n      dup3\n        /* \"#utility.yul\":22325:22331   */\n      not\n        /* \"#utility.yul\":22322:22323   */\n      dup3\n        /* \"#utility.yul\":22319:22332   */\n      gt\n        /* \"#utility.yul\":22316:22318   */\n      iszero\n      tag_806\n      jumpi\n        /* \"#utility.yul\":22335:22353   */\n      tag_806\n      tag_807\n      jump\t// in\n    tag_806:\n      pop\n        /* \"#utility.yul\":22371:22380   */\n      add\n      swap1\n        /* \"#utility.yul\":22306:22386   */\n      jump\t// out\n        /* \"#utility.yul\":22391:22608   */\n    tag_561:\n      0x00\n        /* \"#utility.yul\":22457:22458   */\n      dup3\n        /* \"#utility.yul\":22447:22449   */\n      tag_809\n      jumpi\n      shl(0xe0, 0x4e487b71)\n        /* \"#utility.yul\":22482:22513   */\n      dup2\n      mstore\n        /* \"#utility.yul\":22536:22540   */\n      0x12\n        /* \"#utility.yul\":22533:22534   */\n      0x04\n        /* \"#utility.yul\":22526:22541   */\n      mstore\n        /* \"#utility.yul\":22564:22568   */\n      0x24\n        /* \"#utility.yul\":22489:22490   */\n      dup2\n        /* \"#utility.yul\":22554:22569   */\n      revert\n        /* \"#utility.yul\":22447:22449   */\n    tag_809:\n      pop\n        /* \"#utility.yul\":22593:22602   */\n      div\n      swap1\n        /* \"#utility.yul\":22437:22608   */\n      jump\t// out\n        /* \"#utility.yul\":22613:22781   */\n    tag_430:\n      0x00\n        /* \"#utility.yul\":22719:22720   */\n      dup2\n        /* \"#utility.yul\":22715:22716   */\n      0x00\n        /* \"#utility.yul\":22711:22717   */\n      not\n        /* \"#utility.yul\":22707:22721   */\n      div\n        /* \"#utility.yul\":22704:22705   */\n      dup4\n        /* \"#utility.yul\":22701:22722   */\n      gt\n        /* \"#utility.yul\":22696:22697   */\n      dup3\n        /* \"#utility.yul\":22689:22698   */\n      iszero\n        /* \"#utility.yul\":22682:22699   */\n      iszero\n        /* \"#utility.yul\":22678:22723   */\n      and\n        /* \"#utility.yul\":22675:22677   */\n      iszero\n      tag_812\n      jumpi\n        /* \"#utility.yul\":22726:22744   */\n      tag_812\n      tag_807\n      jump\t// in\n    tag_812:\n      pop\n        /* \"#utility.yul\":22766:22775   */\n      mul\n      swap1\n        /* \"#utility.yul\":22665:22781   */\n      jump\t// out\n        /* \"#utility.yul\":22786:22911   */\n    tag_433:\n      0x00\n        /* \"#utility.yul\":22854:22855   */\n      dup3\n        /* \"#utility.yul\":22851:22852   */\n      dup3\n        /* \"#utility.yul\":22848:22856   */\n      lt\n        /* \"#utility.yul\":22845:22847   */\n      iszero\n      tag_815\n      jumpi\n        /* \"#utility.yul\":22859:22877   */\n      tag_815\n      tag_807\n      jump\t// in\n    tag_815:\n      pop\n        /* \"#utility.yul\":22896:22905   */\n      sub\n      swap1\n        /* \"#utility.yul\":22835:22911   */\n      jump\t// out\n        /* \"#utility.yul\":22916:23174   */\n    tag_759:\n        /* \"#utility.yul\":22988:22989   */\n      0x00\n        /* \"#utility.yul\":22998:23111   */\n    tag_817:\n        /* \"#utility.yul\":23012:23018   */\n      dup4\n        /* \"#utility.yul\":23009:23010   */\n      dup2\n        /* \"#utility.yul\":23006:23019   */\n      lt\n        /* \"#utility.yul\":22998:23111   */\n      iszero\n      tag_819\n      jumpi\n        /* \"#utility.yul\":23088:23099   */\n      dup2\n      dup2\n      add\n        /* \"#utility.yul\":23082:23100   */\n      mload\n        /* \"#utility.yul\":23069:23080   */\n      dup4\n      dup3\n      add\n        /* \"#utility.yul\":23062:23101   */\n      mstore\n        /* \"#utility.yul\":23034:23036   */\n      0x20\n        /* \"#utility.yul\":23027:23037   */\n      add\n        /* \"#utility.yul\":22998:23111   */\n      jump(tag_817)\n    tag_819:\n        /* \"#utility.yul\":23129:23135   */\n      dup4\n        /* \"#utility.yul\":23126:23127   */\n      dup2\n        /* \"#utility.yul\":23123:23136   */\n      gt\n        /* \"#utility.yul\":23120:23122   */\n      iszero\n      tag_565\n      jumpi\n      pop\n      pop\n        /* \"#utility.yul\":23164:23165   */\n      0x00\n        /* \"#utility.yul\":23146:23162   */\n      swap2\n      add\n        /* \"#utility.yul\":23139:23166   */\n      mstore\n        /* \"#utility.yul\":22969:23174   */\n      jump\t// out\n        /* \"#utility.yul\":23179:23315   */\n    tag_215:\n      0x00\n        /* \"#utility.yul\":23246:23251   */\n      dup2\n        /* \"#utility.yul\":23236:23238   */\n      tag_823\n      jumpi\n        /* \"#utility.yul\":23255:23273   */\n      tag_823\n      tag_807\n      jump\t// in\n    tag_823:\n      pop\n      not(0x00)\n        /* \"#utility.yul\":23291:23309   */\n      add\n      swap1\n        /* \"#utility.yul\":23226:23315   */\n      jump\t// out\n        /* \"#utility.yul\":23320:23700   */\n    tag_252:\n        /* \"#utility.yul\":23405:23406   */\n      0x02\n        /* \"#utility.yul\":23395:23407   */\n      dup2\n      div\n        /* \"#utility.yul\":23452:23453   */\n      0x01\n        /* \"#utility.yul\":23442:23454   */\n      dup3\n      and\n      dup1\n        /* \"#utility.yul\":23463:23465   */\n      tag_825\n      jumpi\n        /* \"#utility.yul\":23517:23521   */\n      0x7f\n        /* \"#utility.yul\":23509:23515   */\n      dup3\n        /* \"#utility.yul\":23505:23522   */\n      and\n        /* \"#utility.yul\":23495:23522   */\n      swap2\n      pop\n        /* \"#utility.yul\":23463:23465   */\n    tag_825:\n        /* \"#utility.yul\":23570:23572   */\n      0x20\n        /* \"#utility.yul\":23562:23568   */\n      dup3\n        /* \"#utility.yul\":23559:23573   */\n      lt\n        /* \"#utility.yul\":23539:23557   */\n      dup2\n        /* \"#utility.yul\":23536:23574   */\n      eq\n        /* \"#utility.yul\":23533:23535   */\n      iszero\n      tag_826\n      jumpi\n        /* \"#utility.yul\":23616:23626   */\n      0x4e487b71\n        /* \"#utility.yul\":23611:23614   */\n      0xe0\n        /* \"#utility.yul\":23607:23627   */\n      shl\n        /* \"#utility.yul\":23604:23605   */\n      0x00\n        /* \"#utility.yul\":23597:23628   */\n      mstore\n        /* \"#utility.yul\":23651:23655   */\n      0x22\n        /* \"#utility.yul\":23648:23649   */\n      0x04\n        /* \"#utility.yul\":23641:23656   */\n      mstore\n        /* \"#utility.yul\":23679:23683   */\n      0x24\n        /* \"#utility.yul\":23676:23677   */\n      0x00\n        /* \"#utility.yul\":23669:23684   */\n      revert\n        /* \"#utility.yul\":23533:23535   */\n    tag_826:\n      pop\n        /* \"#utility.yul\":23375:23700   */\n      swap2\n      swap1\n      pop\n      jump\t// out\n        /* \"#utility.yul\":23705:23840   */\n    tag_213:\n      0x00\n      not(0x00)\n        /* \"#utility.yul\":23765:23782   */\n      dup3\n      eq\n        /* \"#utility.yul\":23762:23764   */\n      iszero\n      tag_829\n      jumpi\n        /* \"#utility.yul\":23785:23803   */\n      tag_829\n      tag_807\n      jump\t// in\n    tag_829:\n      pop\n        /* \"#utility.yul\":23832:23833   */\n      0x01\n        /* \"#utility.yul\":23821:23834   */\n      add\n      swap1\n        /* \"#utility.yul\":23752:23840   */\n      jump\t// out\n        /* \"#utility.yul\":23845:23972   */\n    tag_807:\n        /* \"#utility.yul\":23906:23916   */\n      0x4e487b71\n        /* \"#utility.yul\":23901:23904   */\n      0xe0\n        /* \"#utility.yul\":23897:23917   */\n      shl\n        /* \"#utility.yul\":23894:23895   */\n      0x00\n        /* \"#utility.yul\":23887:23918   */\n      mstore\n        /* \"#utility.yul\":23937:23941   */\n      0x11\n        /* \"#utility.yul\":23934:23935   */\n      0x04\n        /* \"#utility.yul\":23927:23942   */\n      mstore\n        /* \"#utility.yul\":23961:23965   */\n      0x24\n        /* \"#utility.yul\":23958:23959   */\n      0x00\n        /* \"#utility.yul\":23951:23966   */\n      revert\n        /* \"#utility.yul\":23977:24104   */\n    tag_686:\n        /* \"#utility.yul\":24038:24048   */\n      0x4e487b71\n        /* \"#utility.yul\":24033:24036   */\n      0xe0\n        /* \"#utility.yul\":24029:24049   */\n      shl\n        /* \"#utility.yul\":24026:24027   */\n      0x00\n        /* \"#utility.yul\":24019:24050   */\n      mstore\n        /* \"#utility.yul\":24069:24073   */\n      0x41\n        /* \"#utility.yul\":24066:24067   */\n      0x04\n        /* \"#utility.yul\":24059:24074   */\n      mstore\n        /* \"#utility.yul\":24093:24097   */\n      0x24\n        /* \"#utility.yul\":24090:24091   */\n      0x00\n        /* \"#utility.yul\":24083:24098   */\n      revert\n        /* \"#utility.yul\":24109:24242   */\n    tag_656:\n      sub(shl(0xa0, 0x01), 0x01)\n        /* \"#utility.yul\":24186:24217   */\n      dup2\n      and\n        /* \"#utility.yul\":24176:24218   */\n      dup2\n      eq\n        /* \"#utility.yul\":24166:24168   */\n      tag_410\n      jumpi\n        /* \"#utility.yul\":24232:24233   */\n      0x00\n        /* \"#utility.yul\":24229:24230   */\n      dup1\n        /* \"#utility.yul\":24222:24234   */\n      revert\n        /* \"#utility.yul\":24247:24367   */\n    tag_681:\n        /* \"#utility.yul\":24335:24340   */\n      dup1\n        /* \"#utility.yul\":24328:24341   */\n      iszero\n        /* \"#utility.yul\":24321:24342   */\n      iszero\n        /* \"#utility.yul\":24314:24319   */\n      dup2\n        /* \"#utility.yul\":24311:24343   */\n      eq\n        /* \"#utility.yul\":24301:24303   */\n      tag_410\n      jumpi\n        /* \"#utility.yul\":24357:24358   */\n      0x00\n        /* \"#utility.yul\":24354:24355   */\n      dup1\n        /* \"#utility.yul\":24347:24359   */\n      revert\n\n    auxdata: 0xa26469706673582212200f6c9c18d1e8f8d46cc14320893c13c49209d51abf562f70cb2ad4b627e9aa8e64736f6c63430008000033\n}\n",
				"bytecode": {
					"linkReferences": {},
					"object": "608060405234801561001057600080fd5b5061345b806100206000396000f3fe608060405234801561001057600080fd5b50600436106101f05760003560e01c80637fd6f15c1161010f578063e4e95520116100a2578063f2fde38b11610071578063f2fde38b146103f2578063f7ab69fd14610405578063f8c8765e1461040d578063fc234d0614610420576101f0565b8063e4e95520146103b1578063ec4c4f34146103c4578063f0c765e4146103d7578063f14053ad146103ea576101f0565b8063aaf5eb68116100de578063aaf5eb6814610370578063aecf77b114610378578063c2ec527d1461038b578063db4a5aa91461039e576101f0565b80637fd6f15c1461033a5780638da5cb5b14610342578063a0ad12e21461034a578063a8ecb0281461035d576101f0565b80634b989ce311610187578063715018a611610156578063715018a6146103025780637be3a1a11461030c5780637ce3489b1461031f5780637dc0d1d014610332576101f0565b80634b989ce3146102a95780636ab34a4a146102bc5780636c19e783146102dc5780636e812437146102ef576101f0565b8063238ac933116101c3578063238ac933146102735780633011d3d51461027b57806343b1f3cb1461028357806348c7e52814610296576101f0565b8063080270a8146101f55780630f58d2421461021e5780631e1bff3f1461023e5780631e64610c1461025e575b600080fd5b610208610203366004612974565b610433565b6040516102159190612df0565b60405180910390f35b61023161022c366004612c6f565b6106f7565b6040516102159190613278565b61025161024c3660046128b6565b610718565b6040516102159190612e34565b610266610788565b6040516102159190612d9f565b610266610797565b6102666107a6565b610231610291366004612c6f565b6107b5565b6102516102a436600461289a565b6107c7565b6102516102b73660046129ca565b6107dc565b6102cf6102ca366004612c6f565b6109b6565b60405161021591906131d4565b6102516102ea36600461289a565b610ae3565b6102516102fd366004612aa5565b610b49565b61030a610b9d565b005b61023161031a366004612949565b610be8565b61025161032d366004612c6f565b610c05565b610266610c4f565b610231610c5e565b610266610c64565b610251610358366004612aa5565b610c73565b61025161036b366004612b27565b610cc1565b610231611124565b61023161038636600461289a565b61112a565b610231610399366004612949565b611145565b6102516103ac366004612bc1565b611176565b6102316103bf36600461289a565b611593565b6102316103d2366004612949565b6115ae565b6102316103e5366004612949565b6115ca565b6102316115e7565b61030a61040036600461289a565b6115ed565b61023161165e565b61030a61041b3660046128ee565b611664565b61025161042e366004612c9f565b611746565b6060600080828661049657606c80548060200260200160405190810160405280929190818152602001828054801561048a57602002820191906000526020600020905b815481526020019060010190808311610476575b50505050509050610576565b8660011415610507576001600160a01b0388166000908152606e60209081526040918290208054835181840281018401909452808452909183018282801561048a57602002820191906000526020600020908154815260200190600101908083116104765750505050509050610576565b8660021415610576576001600160a01b0388166000908152607060209081526040918290208054835181840281018401909452808452909183018282801561056e57602002820191906000526020600020905b81548152602001906001019080831161055a575b505050505090505b600061059761058f88610589818a6118ab565b906118be565b8351906118be565b90508681106105a8578692506105ac565b8092505b81516105bc88610589818a6118ab565b106105e25760405162461bcd60e51b81526004016105d9906130fc565b60405180910390fd5b826105ff5760405162461bcd60e51b81526004016105d9906131af565b60008367ffffffffffffffff81111561062857634e487b7160e01b600052604160045260246000fd5b604051908082528060200260200182016040528015610651578160200160208202803683370190505b50905060006106618360016118be565b90505b848610156106e95783818151811061068c57634e487b7160e01b600052603260045260246000fd5b60200260200101518287815181106106b457634e487b7160e01b600052603260045260246000fd5b6020908102919091010152806106c9576106e9565b856106d3816133bb565b96505080806106e190613369565b915050610664565b509998505050505050505050565b606c818154811061070757600080fd5b600091825260209091200154905081565b60006107226118ca565b6001600160a01b0316610733610c64565b6001600160a01b0316146107595760405162461bcd60e51b81526004016105d990613090565b506001600160a01b0382166000908152606560205260409020805482151560ff19909116179055600192915050565b6068546001600160a01b031681565b6066546001600160a01b031681565b6067546001600160a01b031681565b606d6020526000908152604090205481565b60656020526000908152604090205460ff1681565b3360009081526065602052604081205460ff1661080b5760405162461bcd60e51b81526004016105d990612f4b565b60005b86518110156109a6576000606a600089848151811061083d57634e487b7160e01b600052603260045260246000fd5b6020026020010151815260200190815260200160002090506108b288838151811061087857634e487b7160e01b600052603260045260246000fd5b60200260200101518684815181106108a057634e487b7160e01b600052603260045260246000fd5b602002602001015183600a01546118ce565b6109935761098a898260038b86815181106108dd57634e487b7160e01b600052603260045260246000fd5b60200260200101518b878151811061090557634e487b7160e01b600052603260045260246000fd5b60200260200101518b888151811061092d57634e487b7160e01b600052603260045260246000fd5b60200260200101518b898151811061095557634e487b7160e01b600052603260045260246000fd5b60200260200101518b8a8151811061097d57634e487b7160e01b600052603260045260246000fd5b6020026020010151611a25565b925050506109ac565b508061099e816133bb565b91505061080e565b50600190505b9695505050505050565b6109be61265c565b6000828152606a602090815260409182902082516101608101845281546001600160a01b031681526001820154928101929092526002810180549293919291840191610a0990613380565b80601f0160208091040260200160405190810160405280929190818152602001828054610a3590613380565b8015610a825780601f10610a5757610100808354040283529160200191610a82565b820191906000526020600020905b815481529060010190602001808311610a6557829003601f168201915b5050505050815260200160038201548152602001600482015481526020016005820154815260200160068201548152602001600782015481526020016008820154815260200160098201548152602001600a8201548152505090505b919050565b6000610aed6118ca565b6001600160a01b0316610afe610c64565b6001600160a01b031614610b245760405162461bcd60e51b81526004016105d990613090565b50606680546001600160a01b0383166001600160a01b03199091161790556001919050565b6000858152606a6020526040812080546001600160a01b03163314610b805760405162461bcd60e51b81526004016105d990613120565b610b91888260028a8a8a8a8a611a25565b98975050505050505050565b610ba56118ca565b6001600160a01b0316610bb6610c64565b6001600160a01b031614610bdc5760405162461bcd60e51b81526004016105d990613090565b610be66000612187565b565b606f60209081526000928352604080842090915290825290205481565b6000610c0f6118ca565b6001600160a01b0316610c20610c64565b6001600160a01b031614610c465760405162461bcd60e51b81526004016105d990613090565b50607255600190565b6069546001600160a01b031681565b60725481565b6033546001600160a01b031690565b3360009081526065602052604081205460ff16610ca25760405162461bcd60e51b81526004016105d990612f4b565b6000868152606a60205260409020610b91888260048a8a8a8a8a611a25565b6000868152606a6020526040812080546001600160a01b0316610cf65760405162461bcd60e51b81526004016105d990612e8b565b6002816003015410610d1a5760405162461bcd60e51b81526004016105d990613142565b6069546040516311cdc9d960e11b81526001600160a01b039091169063239b93b290610d52908c9089908c908c908b90600401612e3f565b60206040518083038186803b158015610d6a57600080fd5b505afa158015610d7e573d6000803e3d6000fd5b505050506040513d601f19601f82011682018060405250810190610da291906129ae565b610dbe5760405162461bcd60e51b81526004016105d990612f27565b610dc98886856118ce565b610de55760405162461bcd60e51b81526004016105d990613066565b6000610e22670de0b6b3a7640000610e1c607354610e1c607254610e168c89600901546118ab90919063ffffffff16565b906118ab565b906121d9565b90506000610e73610e50670de0b6b3a7640000610e1c866009015487600501546118ab90919063ffffffff16565b610589670de0b6b3a7640000610e1c87600901548c6118ab90919063ffffffff16565b90506000610e8e8285600a01546121e590919063ffffffff16565b9050600081610e9d88866118be565b1115610f3357610eb18261058989876118be565b606754909150610ecc906001600160a01b03163330846121f1565b606754604051630852cd8d60e31b81526001600160a01b03909116906342966c6890610efc908490600401613278565b600060405180830381600087803b158015610f1657600080fd5b505af1158015610f2a573d6000803e3d6000fd5b50505050610fd2565b610f47610f4088866118be565b83906118be565b60675486546040516340c10f1960e01b81529293506001600160a01b03918216926340c10f1992610f7e9216908590600401612dd7565b602060405180830381600087803b158015610f9857600080fd5b505af1158015610fac573d6000803e3d6000fd5b505050506040513d601f19601f82011682018060405250810190610fd091906129ae565b505b6067546040516340c10f1960e01b81526001600160a01b03909116906340c10f19906110049030908890600401612dd7565b602060405180830381600087803b15801561101e57600080fd5b505af1158015611032573d6000803e3d6000fd5b505050506040513d601f19601f8201168201806040525081019061105691906129ae565b50606854606754611074916001600160a01b0391821691168661224f565b606860009054906101000a90046001600160a01b03166001600160a01b031663d10c06a26040518163ffffffff1660e01b8152600401602060405180830381600087803b1580156110c457600080fd5b505af11580156110d8573d6000803e3d6000fd5b505050506040513d601f19601f820116820180604052508101906110fc91906129ae565b5061110787856118be565b600a86015550505050600501849055506001979650505050505050565b60735481565b6001600160a01b031660009081526070602052604090205490565b606e602052816000526040600020818154811061116157600080fd5b90600052602060002001600091509150505481565b606b546000908152606a60205260408120896111a45760405162461bcd60e51b81526004016105d990612eb9565b6003810154156111c65760405162461bcd60e51b81526004016105d990613142565b6069546040516311cdc9d960e11b81526001600160a01b039091169063239b93b2906111fe908e9089908e908c908a90600401612e3f565b60206040518083038186803b15801561121657600080fd5b505afa15801561122a573d6000803e3d6000fd5b505050506040513d601f19601f8201168201806040525081019061124e91906129ae565b61126a5760405162461bcd60e51b81526004016105d990612f27565b6074548a1161128b5760405162461bcd60e51b81526004016105d990613023565b6067546112a3906001600160a01b031633308d6121f1565b6067546040516370a0823160e01b81526000916001600160a01b0316906370a08231906112d4903090600401612d9f565b60206040518083038186803b1580156112ec57600080fd5b505afa158015611300573d6000803e3d6000fd5b505050506040513d601f19601f820116820180604052508101906113249190612c87565b90506000611343607354610e1c607254856118ab90919063ffffffff16565b606854606754919250611363916001600160a01b0390811691168361224f565b606860009054906101000a90046001600160a01b03166001600160a01b031663d10c06a26040518163ffffffff1660e01b8152600401602060405180830381600087803b1580156113b357600080fd5b505af11580156113c7573d6000803e3d6000fd5b505050506040513d601f19601f820116820180604052508101906113eb91906129ae565b506067546001600160a01b03166342966c6861140784846118be565b6040518263ffffffff1660e01b81526004016114239190613278565b600060405180830381600087803b15801561143d57600080fd5b505af1158015611451573d6000803e3d6000fd5b5050606b54606c80546001818101835560008390527f2b4a51ab505fc96a0952efda2ba61bcd3078d4c02c39a186ec16f21883fbe016909101929092555461149b935091506118be565b606b80546000908152606d602090815260408083209490945533808352606e8083528584208554815460018181018455838852868820909101919091559554928552606f84529584209252935490926114f491906118be565b815260200190815260200160002081905550606b6000815480929190611519906133bb565b909155505082546001600160a01b0319163317835560018301899055875161154a90600285019060208b01906126bf565b5060016003840155600483018a905560058301879055600683018b90556009830186905561157882826118be565b600a909301929092555060019b9a5050505050505050505050565b6001600160a01b03166000908152606e602052604090205490565b6070602052816000526040600020818154811061116157600080fd5b607160209081526000928352604080842090915290825290205481565b60745481565b6115f56118ca565b6001600160a01b0316611606610c64565b6001600160a01b03161461162c5760405162461bcd60e51b81526004016105d990613090565b6001600160a01b0381166116525760405162461bcd60e51b81526004016105d990612ee1565b61165b81612187565b50565b606b5481565b600054610100900460ff168061167d575060005460ff16155b6116995760405162461bcd60e51b81526004016105d990612fd5565b600054610100900460ff161580156116c4576000805460ff1961ff0019909116610100171660011790555b6116cc612273565b606680546001600160a01b038088166001600160a01b03199283161790925560688054878416908316179055606780548684169083161790556127106073556069805492851692909116919091179055670de0b6b3a76400006074556032607255801561173f576000805461ff00191690555b5050505050565b60006117506118ca565b6001600160a01b0316611761610c64565b6001600160a01b0316146117875760405162461bcd60e51b81526004016105d990613090565b6040518061016001604052808d6001600160a01b031681526020018c81526020018b81526020018a815260200189815260200188815260200187815260200186815260200185815260200184815260200183815250606a60008f815260200190815260200160002060008201518160000160006101000a8154816001600160a01b0302191690836001600160a01b031602179055506020820151816001015560408201518160020190805190602001906118429291906126bf565b50606082015160038201556080820151600482015560a0820151600582015560c0820151600682015560e082015160078201556101008201516008820155610120820151600982015561014090910151600a909101555060019c9b505050505050505050505050565b60006118b78284613307565b9392505050565b60006118b78284613326565b3390565b6000838152606a6020526040812060048101548290819081906001141561198557836005015487101561198057600584015461190a90886118be565b925061192f670de0b6b3a7640000610e1c8660090154866118ab90919063ffffffff16565b9150611960670de0b6b3a7640000610e1c607354610e1c607254610e168d8b600901546118ab90919063ffffffff16565b905061196c81836132cf565b8610156119805760009450505050506118b7565b611a17565b8360050154871115611a175760058401546119a19088906118be565b92506119c6670de0b6b3a7640000610e1c8660090154866118ab90919063ffffffff16565b91506119f7670de0b6b3a7640000610e1c607354610e1c607254610e168d8b600901546118ab90919063ffffffff16565b9050611a0381836132cf565b861015611a175760009450505050506118b7565b506001979650505050505050565b86546000906001600160a01b0316611a4f5760405162461bcd60e51b81526004016105d990612e8b565b6002886003015410611a735760405162461bcd60e51b81526004016105d990613142565b6069546040516311cdc9d960e11b81526001600160a01b039091169063239b93b290611aab908c9087908a908a908990600401612e3f565b60206040518083038186803b158015611ac357600080fd5b505afa158015611ad7573d6000803e3d6000fd5b505050506040513d601f19601f82011682018060405250810190611afb91906129ae565b611b175760405162461bcd60e51b81526004016105d990612f27565b82886007018190555060008060008a6004015460011415611e62578a600501548b600701541115611cce5760058b015460078c0154611b55916118be565b9250611b7a670de0b6b3a7640000610e1c8d60090154866118ab90919063ffffffff16565b600a8c0154909250611b8c90836121e5565b90506000611bab607354610e1c607254856118ab90919063ffffffff16565b6067546068546040516340c10f1960e01b81529293506001600160a01b03918216926340c10f1992611be39216908590600401612dd7565b602060405180830381600087803b158015611bfd57600080fd5b505af1158015611c11573d6000803e3d6000fd5b505050506040513d601f19601f82011682018060405250810190611c3591906129ae565b506067548c546001600160a01b03918216916340c10f199116611c5885856118be565b6040518363ffffffff1660e01b8152600401611c75929190612dd7565b602060405180830381600087803b158015611c8f57600080fd5b505af1158015611ca3573d6000803e3d6000fd5b505050506040513d601f19601f82011682018060405250810190611cc791906129ae565b5050611e5d565b60078b015460058c0154611ce1916118be565b9250611cfa8b60090154846118ab90919063ffffffff16565b91508a600a0154821115611d1057506000611e5d565b600a8b0154611d1f90836118be565b90506000611d3e607354610e1c607254856118ab90919063ffffffff16565b6067546068546040516340c10f1960e01b81529293506001600160a01b03918216926340c10f1992611d769216908590600401612dd7565b602060405180830381600087803b158015611d9057600080fd5b505af1158015611da4573d6000803e3d6000fd5b505050506040513d601f19601f82011682018060405250810190611dc891906129ae565b506067548c546001600160a01b03918216916340c10f199116611deb85856118be565b6040518363ffffffff1660e01b8152600401611e08929190612dd7565b602060405180830381600087803b158015611e2257600080fd5b505af1158015611e36573d6000803e3d6000fd5b505050506040513d601f19601f82011682018060405250810190611e5a91906129ae565b50505b612057565b8a600501548b600701541015611ebc5760078b015460058c0154611e85916118be565b9250611eaa670de0b6b3a7640000610e1c8d60090154866118ab90919063ffffffff16565b600a8c0154909250611d1f90836121e5565b60058b015460078c0154611ecf916118be565b9250611ef4670de0b6b3a7640000610e1c8d60090154866118ab90919063ffffffff16565b91508a600a0154821115611f0a57506000612057565b600a8b0154611f1990836118be565b90506000611f38607354610e1c607254856118ab90919063ffffffff16565b6067546068546040516340c10f1960e01b81529293506001600160a01b03918216926340c10f1992611f709216908590600401612dd7565b602060405180830381600087803b158015611f8a57600080fd5b505af1158015611f9e573d6000803e3d6000fd5b505050506040513d601f19601f82011682018060405250810190611fc291906129ae565b506067548c546001600160a01b03918216916340c10f199116611fe585856118be565b6040518363ffffffff1660e01b8152600401612002929190612dd7565b602060405180830381600087803b15801561201c57600080fd5b505af1158015612030573d6000803e3d6000fd5b505050506040513d601f19601f8201168201806040525081019061205491906129ae565b50505b606860009054906101000a90046001600160a01b03166001600160a01b031663d10c06a26040518163ffffffff1660e01b8152600401602060405180830381600087803b1580156120a757600080fd5b505af11580156120bb573d6000803e3d6000fd5b505050506040513d601f19601f820116820180604052508101906120df91906129ae565b5060038b018a905560078b0186905560088b0188905561210289606d606c6122f7565b336000908152606f60209081526040808320606e909252909120612127918b916122f7565b336000818152607060209081526040822080546001818101835591845291909220018b9055612159916105899061112a565b3360009081526071602090815260408083208d84529091529020555060019250505098975050505050505050565b603380546001600160a01b038381166001600160a01b0319831681179093556040519116919082907f8be0079c531659141344cd1fd0a4f28419497f9722a3daafe3b4186f6b6457e090600090a35050565b60006118b782846132e7565b60006118b782846132cf565b612249846323b872dd60e01b85858560405160240161221293929190612db3565b60408051601f198184030181529190526020810180516001600160e01b03166001600160e01b0319909316929092179091526123d4565b50505050565b61226e8363a9059cbb60e01b8484604051602401612212929190612dd7565b505050565b600054610100900460ff168061228c575060005460ff16155b6122a85760405162461bcd60e51b81526004016105d990612fd5565b600054610100900460ff161580156122d3576000805460ff1961ff0019909116610100171660011790555b6122db612463565b6122e36124d6565b801561165b576000805461ff001916905550565b600083815260208390526040812054825490919083906123189060016118be565b8154811061233657634e487b7160e01b600052603260045260246000fd5b9060005260206000200154905081846000838152602001908152602001600020819055508083838154811061237b57634e487b7160e01b600052603260045260246000fd5b600091825260208083209091019290925586815290859052604081205582548390806123b757634e487b7160e01b600052603160045260246000fd5b600190038181906000526020600020016000905590555050505050565b6000612429826040518060400160405280602081526020017f5361666545524332303a206c6f772d6c6576656c2063616c6c206661696c6564815250856001600160a01b03166125469092919063ffffffff16565b80519091501561226e578080602001905181019061244791906129ae565b61226e5760405162461bcd60e51b81526004016105d990613165565b600054610100900460ff168061247c575060005460ff16155b6124985760405162461bcd60e51b81526004016105d990612fd5565b600054610100900460ff161580156122e3576000805460ff1961ff001990911661010017166001179055801561165b576000805461ff001916905550565b600054610100900460ff16806124ef575060005460ff16155b61250b5760405162461bcd60e51b81526004016105d990612fd5565b600054610100900460ff16158015612536576000805460ff1961ff0019909116610100171660011790555b6122e36125416118ca565b612187565b6060612555848460008561255d565b949350505050565b60608247101561257f5760405162461bcd60e51b81526004016105d990612f8f565b6125888561261d565b6125a45760405162461bcd60e51b81526004016105d9906130c5565b600080866001600160a01b031685876040516125c09190612d83565b60006040518083038185875af1925050503d80600081146125fd576040519150601f19603f3d011682016040523d82523d6000602084013e612602565b606091505b5091509150612612828286612623565b979650505050505050565b3b151590565b606083156126325750816118b7565b8251156126425782518084602001fd5b8160405162461bcd60e51b81526004016105d99190612e78565b60405180610160016040528060006001600160a01b03168152602001600081526020016060815260200160008152602001600081526020016000815260200160008152602001600081526020016000815260200160008152602001600081525090565b8280546126cb90613380565b90600052602060002090601f0160209004810192826126ed5760008555612733565b82601f1061270657805160ff1916838001178555612733565b82800160010185558215612733579182015b82811115612733578251825591602001919060010190612718565b5061273f929150612743565b5090565b5b8082111561273f5760008155600101612744565b8035610ade81613402565b600082601f830112612773578081fd5b81356020612788612783836132ab565b613281565b82815281810190858301855b858110156127bd576127ab898684358b010161282f565b84529284019290840190600101612794565b5090979650505050505050565b600082601f8301126127da578081fd5b813560206127ea612783836132ab565b8281528181019085830183850287018401881015612806578586fd5b855b858110156127bd57813584529284019290840190600101612808565b8035610ade81613417565b600082601f83011261283f578081fd5b813567ffffffffffffffff811115612859576128596133ec565b61286c601f8201601f1916602001613281565b818152846020838601011115612880578283fd5b816020850160208301379081016020019190915292915050565b6000602082840312156128ab578081fd5b81356118b781613402565b600080604083850312156128c8578081fd5b82356128d381613402565b915060208301356128e381613417565b809150509250929050565b60008060008060808587031215612903578182fd5b843561290e81613402565b9350602085013561291e81613402565b9250604085013561292e81613402565b9150606085013561293e81613402565b939692955090935050565b6000806040838503121561295b578182fd5b823561296681613402565b946020939093013593505050565b60008060008060808587031215612989578384fd5b843561299481613402565b966020860135965060408601359560600135945092505050565b6000602082840312156129bf578081fd5b81516118b781613417565b60008060008060008060c087890312156129e2578384fd5b6129eb87612824565b9550602087013567ffffffffffffffff80821115612a07578586fd5b612a138a838b016127ca565b96506040890135915080821115612a28578586fd5b612a348a838b016127ca565b95506060890135915080821115612a49578384fd5b612a558a838b01612763565b94506080890135915080821115612a6a578384fd5b612a768a838b016127ca565b935060a0890135915080821115612a8b578283fd5b50612a9889828a01612763565b9150509295509295509295565b60008060008060008060c08789031215612abd578384fd5b8635612ac881613417565b95506020870135945060408701359350606087013567ffffffffffffffff80821115612af2578384fd5b612afe8a838b0161282f565b94506080890135935060a0890135915080821115612b1a578283fd5b50612a9889828a0161282f565b600080600080600080600060e0888a031215612b41578485fd5b8735612b4c81613417565b96506020880135955060408801359450606088013567ffffffffffffffff80821115612b76578283fd5b612b828b838c0161282f565b955060808a0135945060a08a0135915080821115612b9e578283fd5b50612bab8a828b0161282f565b92505060c0880135905092959891949750929550565b60008060008060008060008060006101208a8c031215612bdf578283fd5b8935612bea81613417565b985060208a0135975060408a0135965060608a0135955060808a0135945060a08a013567ffffffffffffffff80821115612c22578485fd5b612c2e8d838e0161282f565b955060c08c0135945060e08c013593506101008c0135915080821115612c52578283fd5b50612c5f8c828d0161282f565b9150509295985092959850929598565b600060208284031215612c80578081fd5b5035919050565b600060208284031215612c98578081fd5b5051919050565b6000806000806000806000806000806000806101808d8f031215612cc1578586fd5b8c359b50612cd160208e01612758565b9a5060408d0135995067ffffffffffffffff60608e01351115612cf2578586fd5b612d028e60608f01358f0161282f565b9b9e9a9d50989b60808101359a60a08201359a5060c0820135995060e08201359850610100820135975061012082013596506101408201359550610160909101359350915050565b6001600160a01b03169052565b60008151808452612d6f81602086016020860161333d565b601f01601f19169290920160200192915050565b60008251612d9581846020870161333d565b9190910192915050565b6001600160a01b0391909116815260200190565b6001600160a01b039384168152919092166020820152604081019190915260600190565b6001600160a01b03929092168252602082015260400190565b6020808252825182820181905260009190848201906040850190845b81811015612e2857835183529284019291840191600101612e0c565b50909695505050505050565b901515815260200190565b6000861515825285602083015284604083015260a06060830152612e6660a0830185612d57565b8281036080840152610b918185612d57565b6000602082526118b76020830184612d57565b6020808252601490820152731bdc99195c88191bd95cc81b9bdd08195e1a5cdd60621b604082015260600190565b6020808252600e908201526d1b585c99da5b881b9bc819dbdbd960921b604082015260600190565b60208082526026908201527f4f776e61626c653a206e6577206f776e657220697320746865207a65726f206160408201526564647265737360d01b606082015260800190565b6020808252600a908201526937b930b1b6329032b93960b11b604082015260600190565b60208082526024908201527f6578656375746f723a2063616c6c6572206973206e6f742074686520657865636040820152633aba37b960e11b606082015260800190565b60208082526026908201527f416464726573733a20696e73756666696369656e742062616c616e636520666f6040820152651c8818d85b1b60d21b606082015260800190565b6020808252602e908201527f496e697469616c697a61626c653a20636f6e747261637420697320616c72656160408201526d191e481a5b9a5d1a585b1a5e995960921b606082015260800190565b60208082526023908201527f546865207472616e73616374696f6e20616d6f756e7420697320746f6f20736d604082015262185b1b60ea1b606082015260800190565b60208082526010908201526f155cd95c881a5cc818985b9adc9d5c1d60821b604082015260600190565b6020808252818101527f4f776e61626c653a2063616c6c6572206973206e6f7420746865206f776e6572604082015260600190565b6020808252601d908201527f416464726573733a2063616c6c20746f206e6f6e2d636f6e7472616374000000604082015260600190565b6020808252600a90820152693632b733ba341032b93960b11b604082015260600190565b6020808252600890820152673ab9b2b91032b93960c11b604082015260600190565b60208082526009908201526839ba30ba329032b93960b91b604082015260600190565b6020808252602a908201527f5361666545524332303a204552433230206f7065726174696f6e20646964206e6040820152691bdd081cdd58d8d9595960b21b606082015260800190565b6020808252600b908201526a185c9c881b9bc819dbdbd960aa1b604082015260600190565b6000602082526131e8602083018451612d4a565b60208301516040830152604083015161016080606085015261320e610180850183612d57565b915060608501516080850152608085015160a085015260a085015160c085015260c085015160e085015260e0850151610100818187015280870151915050610120818187015280870151915050610140818187015280870151838701525050508091505092915050565b90815260200190565b60405181810167ffffffffffffffff811182821017156132a3576132a36133ec565b604052919050565b600067ffffffffffffffff8211156132c5576132c56133ec565b5060209081020190565b600082198211156132e2576132e26133d6565b500190565b60008261330257634e487b7160e01b81526012600452602481fd5b500490565b6000816000190483118215151615613321576133216133d6565b500290565b600082821015613338576133386133d6565b500390565b60005b83811015613358578181015183820152602001613340565b838111156122495750506000910152565b600081613378576133786133d6565b506000190190565b60028104600182168061339457607f821691505b602082108114156133b557634e487b7160e01b600052602260045260246000fd5b50919050565b60006000198214156133cf576133cf6133d6565b5060010190565b634e487b7160e01b600052601160045260246000fd5b634e487b7160e01b600052604160045260246000fd5b6001600160a01b038116811461165b57600080fd5b801515811461165b57600080fdfea26469706673582212200f6c9c18d1e8f8d46cc14320893c13c49209d51abf562f70cb2ad4b627e9aa8e64736f6c63430008000033",
					"opcodes": "PUSH1 0x80 PUSH1 0x40 MSTORE CALLVALUE DUP1 ISZERO PUSH2 0x10 JUMPI PUSH1 0x0 DUP1 REVERT JUMPDEST POP PUSH2 0x345B DUP1 PUSH2 0x20 PUSH1 0x0 CODECOPY PUSH1 0x0 RETURN INVALID PUSH1 0x80 PUSH1 0x40 MSTORE CALLVALUE DUP1 ISZERO PUSH2 0x10 JUMPI PUSH1 0x0 DUP1 REVERT JUMPDEST POP PUSH1 0x4 CALLDATASIZE LT PUSH2 0x1F0 JUMPI PUSH1 0x0 CALLDATALOAD PUSH1 0xE0 SHR DUP1 PUSH4 0x7FD6F15C GT PUSH2 0x10F JUMPI DUP1 PUSH4 0xE4E95520 GT PUSH2 0xA2 JUMPI DUP1 PUSH4 0xF2FDE38B GT PUSH2 0x71 JUMPI DUP1 PUSH4 0xF2FDE38B EQ PUSH2 0x3F2 JUMPI DUP1 PUSH4 0xF7AB69FD EQ PUSH2 0x405 JUMPI DUP1 PUSH4 0xF8C8765E EQ PUSH2 0x40D JUMPI DUP1 PUSH4 0xFC234D06 EQ PUSH2 0x420 JUMPI PUSH2 0x1F0 JUMP JUMPDEST DUP1 PUSH4 0xE4E95520 EQ PUSH2 0x3B1 JUMPI DUP1 PUSH4 0xEC4C4F34 EQ PUSH2 0x3C4 JUMPI DUP1 PUSH4 0xF0C765E4 EQ PUSH2 0x3D7 JUMPI DUP1 PUSH4 0xF14053AD EQ PUSH2 0x3EA JUMPI PUSH2 0x1F0 JUMP JUMPDEST DUP1 PUSH4 0xAAF5EB68 GT PUSH2 0xDE JUMPI DUP1 PUSH4 0xAAF5EB68 EQ PUSH2 0x370 JUMPI DUP1 PUSH4 0xAECF77B1 EQ PUSH2 0x378 JUMPI DUP1 PUSH4 0xC2EC527D EQ PUSH2 0x38B JUMPI DUP1 PUSH4 0xDB4A5AA9 EQ PUSH2 0x39E JUMPI PUSH2 0x1F0 JUMP JUMPDEST DUP1 PUSH4 0x7FD6F15C EQ PUSH2 0x33A JUMPI DUP1 PUSH4 0x8DA5CB5B EQ PUSH2 0x342 JUMPI DUP1 PUSH4 0xA0AD12E2 EQ PUSH2 0x34A JUMPI DUP1 PUSH4 0xA8ECB028 EQ PUSH2 0x35D JUMPI PUSH2 0x1F0 JUMP JUMPDEST DUP1 PUSH4 0x4B989CE3 GT PUSH2 0x187 JUMPI DUP1 PUSH4 0x715018A6 GT PUSH2 0x156 JUMPI DUP1 PUSH4 0x715018A6 EQ PUSH2 0x302 JUMPI DUP1 PUSH4 0x7BE3A1A1 EQ PUSH2 0x30C JUMPI DUP1 PUSH4 0x7CE3489B EQ PUSH2 0x31F JUMPI DUP1 PUSH4 0x7DC0D1D0 EQ PUSH2 0x332 JUMPI PUSH2 0x1F0 JUMP JUMPDEST DUP1 PUSH4 0x4B989CE3 EQ PUSH2 0x2A9 JUMPI DUP1 PUSH4 0x6AB34A4A EQ PUSH2 0x2BC JUMPI DUP1 PUSH4 0x6C19E783 EQ PUSH2 0x2DC JUMPI DUP1 PUSH4 0x6E812437 EQ PUSH2 0x2EF JUMPI PUSH2 0x1F0 JUMP JUMPDEST DUP1 PUSH4 0x238AC933 GT PUSH2 0x1C3 JUMPI DUP1 PUSH4 0x238AC933 EQ PUSH2 0x273 JUMPI DUP1 PUSH4 0x3011D3D5 EQ PUSH2 0x27B JUMPI DUP1 PUSH4 0x43B1F3CB EQ PUSH2 0x283 JUMPI DUP1 PUSH4 0x48C7E528 EQ PUSH2 0x296 JUMPI PUSH2 0x1F0 JUMP JUMPDEST DUP1 PUSH4 0x80270A8 EQ PUSH2 0x1F5 JUMPI DUP1 PUSH4 0xF58D242 EQ PUSH2 0x21E JUMPI DUP1 PUSH4 0x1E1BFF3F EQ PUSH2 0x23E JUMPI DUP1 PUSH4 0x1E64610C EQ PUSH2 0x25E JUMPI JUMPDEST PUSH1 0x0 DUP1 REVERT JUMPDEST PUSH2 0x208 PUSH2 0x203 CALLDATASIZE PUSH1 0x4 PUSH2 0x2974 JUMP JUMPDEST PUSH2 0x433 JUMP JUMPDEST PUSH1 0x40 MLOAD PUSH2 0x215 SWAP2 SWAP1 PUSH2 0x2DF0 JUMP JUMPDEST PUSH1 0x40 MLOAD DUP1 SWAP2 SUB SWAP1 RETURN JUMPDEST PUSH2 0x231 PUSH2 0x22C CALLDATASIZE PUSH1 0x4 PUSH2 0x2C6F JUMP JUMPDEST PUSH2 0x6F7 JUMP JUMPDEST PUSH1 0x40 MLOAD PUSH2 0x215 SWAP2 SWAP1 PUSH2 0x3278 JUMP JUMPDEST PUSH2 0x251 PUSH2 0x24C CALLDATASIZE PUSH1 0x4 PUSH2 0x28B6 JUMP JUMPDEST PUSH2 0x718 JUMP JUMPDEST PUSH1 0x40 MLOAD PUSH2 0x215 SWAP2 SWAP1 PUSH2 0x2E34 JUMP JUMPDEST PUSH2 0x266 PUSH2 0x788 JUMP JUMPDEST PUSH1 0x40 MLOAD PUSH2 0x215 SWAP2 SWAP1 PUSH2 0x2D9F JUMP JUMPDEST PUSH2 0x266 PUSH2 0x797 JUMP JUMPDEST PUSH2 0x266 PUSH2 0x7A6 JUMP JUMPDEST PUSH2 0x231 PUSH2 0x291 CALLDATASIZE PUSH1 0x4 PUSH2 0x2C6F JUMP JUMPDEST PUSH2 0x7B5 JUMP JUMPDEST PUSH2 0x251 PUSH2 0x2A4 CALLDATASIZE PUSH1 0x4 PUSH2 0x289A JUMP JUMPDEST PUSH2 0x7C7 JUMP JUMPDEST PUSH2 0x251 PUSH2 0x2B7 CALLDATASIZE PUSH1 0x4 PUSH2 0x29CA JUMP JUMPDEST PUSH2 0x7DC JUMP JUMPDEST PUSH2 0x2CF PUSH2 0x2CA CALLDATASIZE PUSH1 0x4 PUSH2 0x2C6F JUMP JUMPDEST PUSH2 0x9B6 JUMP JUMPDEST PUSH1 0x40 MLOAD PUSH2 0x215 SWAP2 SWAP1 PUSH2 0x31D4 JUMP JUMPDEST PUSH2 0x251 PUSH2 0x2EA CALLDATASIZE PUSH1 0x4 PUSH2 0x289A JUMP JUMPDEST PUSH2 0xAE3 JUMP JUMPDEST PUSH2 0x251 PUSH2 0x2FD CALLDATASIZE PUSH1 0x4 PUSH2 0x2AA5 JUMP JUMPDEST PUSH2 0xB49 JUMP JUMPDEST PUSH2 0x30A PUSH2 0xB9D JUMP JUMPDEST STOP JUMPDEST PUSH2 0x231 PUSH2 0x31A CALLDATASIZE PUSH1 0x4 PUSH2 0x2949 JUMP JUMPDEST PUSH2 0xBE8 JUMP JUMPDEST PUSH2 0x251 PUSH2 0x32D CALLDATASIZE PUSH1 0x4 PUSH2 0x2C6F JUMP JUMPDEST PUSH2 0xC05 JUMP JUMPDEST PUSH2 0x266 PUSH2 0xC4F JUMP JUMPDEST PUSH2 0x231 PUSH2 0xC5E JUMP JUMPDEST PUSH2 0x266 PUSH2 0xC64 JUMP JUMPDEST PUSH2 0x251 PUSH2 0x358 CALLDATASIZE PUSH1 0x4 PUSH2 0x2AA5 JUMP JUMPDEST PUSH2 0xC73 JUMP JUMPDEST PUSH2 0x251 PUSH2 0x36B CALLDATASIZE PUSH1 0x4 PUSH2 0x2B27 JUMP JUMPDEST PUSH2 0xCC1 JUMP JUMPDEST PUSH2 0x231 PUSH2 0x1124 JUMP JUMPDEST PUSH2 0x231 PUSH2 0x386 CALLDATASIZE PUSH1 0x4 PUSH2 0x289A JUMP JUMPDEST PUSH2 0x112A JUMP JUMPDEST PUSH2 0x231 PUSH2 0x399 CALLDATASIZE PUSH1 0x4 PUSH2 0x2949 JUMP JUMPDEST PUSH2 0x1145 JUMP JUMPDEST PUSH2 0x251 PUSH2 0x3AC CALLDATASIZE PUSH1 0x4 PUSH2 0x2BC1 JUMP JUMPDEST PUSH2 0x1176 JUMP JUMPDEST PUSH2 0x231 PUSH2 0x3BF CALLDATASIZE PUSH1 0x4 PUSH2 0x289A JUMP JUMPDEST PUSH2 0x1593 JUMP JUMPDEST PUSH2 0x231 PUSH2 0x3D2 CALLDATASIZE PUSH1 0x4 PUSH2 0x2949 JUMP JUMPDEST PUSH2 0x15AE JUMP JUMPDEST PUSH2 0x231 PUSH2 0x3E5 CALLDATASIZE PUSH1 0x4 PUSH2 0x2949 JUMP JUMPDEST PUSH2 0x15CA JUMP JUMPDEST PUSH2 0x231 PUSH2 0x15E7 JUMP JUMPDEST PUSH2 0x30A PUSH2 0x400 CALLDATASIZE PUSH1 0x4 PUSH2 0x289A JUMP JUMPDEST PUSH2 0x15ED JUMP JUMPDEST PUSH2 0x231 PUSH2 0x165E JUMP JUMPDEST PUSH2 0x30A PUSH2 0x41B CALLDATASIZE PUSH1 0x4 PUSH2 0x28EE JUMP JUMPDEST PUSH2 0x1664 JUMP JUMPDEST PUSH2 0x251 PUSH2 0x42E CALLDATASIZE PUSH1 0x4 PUSH2 0x2C9F JUMP JUMPDEST PUSH2 0x1746 JUMP JUMPDEST PUSH1 0x60 PUSH1 0x0 DUP1 DUP3 DUP7 PUSH2 0x496 JUMPI PUSH1 0x6C DUP1 SLOAD DUP1 PUSH1 0x20 MUL PUSH1 0x20 ADD PUSH1 0x40 MLOAD SWAP1 DUP2 ADD PUSH1 0x40 MSTORE DUP1 SWAP3 SWAP2 SWAP1 DUP2 DUP2 MSTORE PUSH1 0x20 ADD DUP3 DUP1 SLOAD DUP1 ISZERO PUSH2 0x48A JUMPI PUSH1 0x20 MUL DUP3 ADD SWAP2 SWAP1 PUSH1 0x0 MSTORE PUSH1 0x20 PUSH1 0x0 KECCAK256 SWAP1 JUMPDEST DUP2 SLOAD DUP2 MSTORE PUSH1 0x20 ADD SWAP1 PUSH1 0x1 ADD SWAP1 DUP1 DUP4 GT PUSH2 0x476 JUMPI JUMPDEST POP POP POP POP POP SWAP1 POP PUSH2 0x576 JUMP JUMPDEST DUP7 PUSH1 0x1 EQ ISZERO PUSH2 0x507 JUMPI PUSH1 0x1 PUSH1 0x1 PUSH1 0xA0 SHL SUB DUP9 AND PUSH1 0x0 SWAP1 DUP2 MSTORE PUSH1 0x6E PUSH1 0x20 SWAP1 DUP2 MSTORE PUSH1 0x40 SWAP2 DUP3 SWAP1 KECCAK256 DUP1 SLOAD DUP4 MLOAD DUP2 DUP5 MUL DUP2 ADD DUP5 ADD SWAP1 SWAP5 MSTORE DUP1 DUP5 MSTORE SWAP1 SWAP2 DUP4 ADD DUP3 DUP3 DUP1 ISZERO PUSH2 0x48A JUMPI PUSH1 0x20 MUL DUP3 ADD SWAP2 SWAP1 PUSH1 0x0 MSTORE PUSH1 0x20 PUSH1 0x0 KECCAK256 SWAP1 DUP2 SLOAD DUP2 MSTORE PUSH1 0x20 ADD SWAP1 PUSH1 0x1 ADD SWAP1 DUP1 DUP4 GT PUSH2 0x476 JUMPI POP POP POP POP POP SWAP1 POP PUSH2 0x576 JUMP JUMPDEST DUP7 PUSH1 0x2 EQ ISZERO PUSH2 0x576 JUMPI PUSH1 0x1 PUSH1 0x1 PUSH1 0xA0 SHL SUB DUP9 AND PUSH1 0x0 SWAP1 DUP2 MSTORE PUSH1 0x70 PUSH1 0x20 SWAP1 DUP2 MSTORE PUSH1 0x40 SWAP2 DUP3 SWAP1 KECCAK256 DUP1 SLOAD DUP4 MLOAD DUP2 DUP5 MUL DUP2 ADD DUP5 ADD SWAP1 SWAP5 MSTORE DUP1 DUP5 MSTORE SWAP1 SWAP2 DUP4 ADD DUP3 DUP3 DUP1 ISZERO PUSH2 0x56E JUMPI PUSH1 0x20 MUL DUP3 ADD SWAP2 SWAP1 PUSH1 0x0 MSTORE PUSH1 0x20 PUSH1 0x0 KECCAK256 SWAP1 JUMPDEST DUP2 SLOAD DUP2 MSTORE PUSH1 0x20 ADD SWAP1 PUSH1 0x1 ADD SWAP1 DUP1 DUP4 GT PUSH2 0x55A JUMPI JUMPDEST POP POP POP POP POP SWAP1 POP JUMPDEST PUSH1 0x0 PUSH2 0x597 PUSH2 0x58F DUP9 PUSH2 0x589 DUP2 DUP11 PUSH2 0x18AB JUMP JUMPDEST SWAP1 PUSH2 0x18BE JUMP JUMPDEST DUP4 MLOAD SWAP1 PUSH2 0x18BE JUMP JUMPDEST SWAP1 POP DUP7 DUP2 LT PUSH2 0x5A8 JUMPI DUP7 SWAP3 POP PUSH2 0x5AC JUMP JUMPDEST DUP1 SWAP3 POP JUMPDEST DUP2 MLOAD PUSH2 0x5BC DUP9 PUSH2 0x589 DUP2 DUP11 PUSH2 0x18AB JUMP JUMPDEST LT PUSH2 0x5E2 JUMPI PUSH1 0x40 MLOAD PUSH3 0x461BCD PUSH1 0xE5 SHL DUP2 MSTORE PUSH1 0x4 ADD PUSH2 0x5D9 SWAP1 PUSH2 0x30FC JUMP JUMPDEST PUSH1 0x40 MLOAD DUP1 SWAP2 SUB SWAP1 REVERT JUMPDEST DUP3 PUSH2 0x5FF JUMPI PUSH1 0x40 MLOAD PUSH3 0x461BCD PUSH1 0xE5 SHL DUP2 MSTORE PUSH1 0x4 ADD PUSH2 0x5D9 SWAP1 PUSH2 0x31AF JUMP JUMPDEST PUSH1 0x0 DUP4 PUSH8 0xFFFFFFFFFFFFFFFF DUP2 GT ISZERO PUSH2 0x628 JUMPI PUSH4 0x4E487B71 PUSH1 0xE0 SHL PUSH1 0x0 MSTORE PUSH1 0x41 PUSH1 0x4 MSTORE PUSH1 0x24 PUSH1 0x0 REVERT JUMPDEST PUSH1 0x40 MLOAD SWAP1 DUP1 DUP3 MSTORE DUP1 PUSH1 0x20 MUL PUSH1 0x20 ADD DUP3 ADD PUSH1 0x40 MSTORE DUP1 ISZERO PUSH2 0x651 JUMPI DUP2 PUSH1 0x20 ADD PUSH1 0x20 DUP3 MUL DUP1 CALLDATASIZE DUP4 CALLDATACOPY ADD SWAP1 POP JUMPDEST POP SWAP1 POP PUSH1 0x0 PUSH2 0x661 DUP4 PUSH1 0x1 PUSH2 0x18BE JUMP JUMPDEST SWAP1 POP JUMPDEST DUP5 DUP7 LT ISZERO PUSH2 0x6E9 JUMPI DUP4 DUP2 DUP2 MLOAD DUP2 LT PUSH2 0x68C JUMPI PUSH4 0x4E487B71 PUSH1 0xE0 SHL PUSH1 0x0 MSTORE PUSH1 0x32 PUSH1 0x4 MSTORE PUSH1 0x24 PUSH1 0x0 REVERT JUMPDEST PUSH1 0x20 MUL PUSH1 0x20 ADD ADD MLOAD DUP3 DUP8 DUP2 MLOAD DUP2 LT PUSH2 0x6B4 JUMPI PUSH4 0x4E487B71 PUSH1 0xE0 SHL PUSH1 0x0 MSTORE PUSH1 0x32 PUSH1 0x4 MSTORE PUSH1 0x24 PUSH1 0x0 REVERT JUMPDEST PUSH1 0x20 SWAP1 DUP2 MUL SWAP2 SWAP1 SWAP2 ADD ADD MSTORE DUP1 PUSH2 0x6C9 JUMPI PUSH2 0x6E9 JUMP JUMPDEST DUP6 PUSH2 0x6D3 DUP2 PUSH2 0x33BB JUMP JUMPDEST SWAP7 POP POP DUP1 DUP1 PUSH2 0x6E1 SWAP1 PUSH2 0x3369 JUMP JUMPDEST SWAP2 POP POP PUSH2 0x664 JUMP JUMPDEST POP SWAP10 SWAP9 POP POP POP POP POP POP POP POP POP JUMP JUMPDEST PUSH1 0x6C DUP2 DUP2 SLOAD DUP2 LT PUSH2 0x707 JUMPI PUSH1 0x0 DUP1 REVERT JUMPDEST PUSH1 0x0 SWAP2 DUP3 MSTORE PUSH1 0x20 SWAP1 SWAP2 KECCAK256 ADD SLOAD SWAP1 POP DUP2 JUMP JUMPDEST PUSH1 0x0 PUSH2 0x722 PUSH2 0x18CA JUMP JUMPDEST PUSH1 0x1 PUSH1 0x1 PUSH1 0xA0 SHL SUB AND PUSH2 0x733 PUSH2 0xC64 JUMP JUMPDEST PUSH1 0x1 PUSH1 0x1 PUSH1 0xA0 SHL SUB AND EQ PUSH2 0x759 JUMPI PUSH1 0x40 MLOAD PUSH3 0x461BCD PUSH1 0xE5 SHL DUP2 MSTORE PUSH1 0x4 ADD PUSH2 0x5D9 SWAP1 PUSH2 0x3090 JUMP JUMPDEST POP PUSH1 0x1 PUSH1 0x1 PUSH1 0xA0 SHL SUB DUP3 AND PUSH1 0x0 SWAP1 DUP2 MSTORE PUSH1 0x65 PUSH1 0x20 MSTORE PUSH1 0x40 SWAP1 KECCAK256 DUP1 SLOAD DUP3 ISZERO ISZERO PUSH1 0xFF NOT SWAP1 SWAP2 AND OR SWAP1 SSTORE PUSH1 0x1 SWAP3 SWAP2 POP POP JUMP JUMPDEST PUSH1 0x68 SLOAD PUSH1 0x1 PUSH1 0x1 PUSH1 0xA0 SHL SUB AND DUP2 JUMP JUMPDEST PUSH1 0x66 SLOAD PUSH1 0x1 PUSH1 0x1 PUSH1 0xA0 SHL SUB AND DUP2 JUMP JUMPDEST PUSH1 0x67 SLOAD PUSH1 0x1 PUSH1 0x1 PUSH1 0xA0 SHL SUB AND DUP2 JUMP JUMPDEST PUSH1 0x6D PUSH1 0x20 MSTORE PUSH1 0x0 SWAP1 DUP2 MSTORE PUSH1 0x40 SWAP1 KECCAK256 SLOAD DUP2 JUMP JUMPDEST PUSH1 0x65 PUSH1 0x20 MSTORE PUSH1 0x0 SWAP1 DUP2 MSTORE PUSH1 0x40 SWAP1 KECCAK256 SLOAD PUSH1 0xFF AND DUP2 JUMP JUMPDEST CALLER PUSH1 0x0 SWAP1 DUP2 MSTORE PUSH1 0x65 PUSH1 0x20 MSTORE PUSH1 0x40 DUP2 KECCAK256 SLOAD PUSH1 0xFF AND PUSH2 0x80B JUMPI PUSH1 0x40 MLOAD PUSH3 0x461BCD PUSH1 0xE5 SHL DUP2 MSTORE PUSH1 0x4 ADD PUSH2 0x5D9 SWAP1 PUSH2 0x2F4B JUMP JUMPDEST PUSH1 0x0 JUMPDEST DUP7 MLOAD DUP2 LT ISZERO PUSH2 0x9A6 JUMPI PUSH1 0x0 PUSH1 0x6A PUSH1 0x0 DUP10 DUP5 DUP2 MLOAD DUP2 LT PUSH2 0x83D JUMPI PUSH4 0x4E487B71 PUSH1 0xE0 SHL PUSH1 0x0 MSTORE PUSH1 0x32 PUSH1 0x4 MSTORE PUSH1 0x24 PUSH1 0x0 REVERT JUMPDEST PUSH1 0x20 MUL PUSH1 0x20 ADD ADD MLOAD DUP2 MSTORE PUSH1 0x20 ADD SWAP1 DUP2 MSTORE PUSH1 0x20 ADD PUSH1 0x0 KECCAK256 SWAP1 POP PUSH2 0x8B2 DUP9 DUP4 DUP2 MLOAD DUP2 LT PUSH2 0x878 JUMPI PUSH4 0x4E487B71 PUSH1 0xE0 SHL PUSH1 0x0 MSTORE PUSH1 0x32 PUSH1 0x4 MSTORE PUSH1 0x24 PUSH1 0x0 REVERT JUMPDEST PUSH1 0x20 MUL PUSH1 0x20 ADD ADD MLOAD DUP7 DUP5 DUP2 MLOAD DUP2 LT PUSH2 0x8A0 JUMPI PUSH4 0x4E487B71 PUSH1 0xE0 SHL PUSH1 0x0 MSTORE PUSH1 0x32 PUSH1 0x4 MSTORE PUSH1 0x24 PUSH1 0x0 REVERT JUMPDEST PUSH1 0x20 MUL PUSH1 0x20 ADD ADD MLOAD DUP4 PUSH1 0xA ADD SLOAD PUSH2 0x18CE JUMP JUMPDEST PUSH2 0x993 JUMPI PUSH2 0x98A DUP10 DUP3 PUSH1 0x3 DUP12 DUP7 DUP2 MLOAD DUP2 LT PUSH2 0x8DD JUMPI PUSH4 0x4E487B71 PUSH1 0xE0 SHL PUSH1 0x0 MSTORE PUSH1 0x32 PUSH1 0x4 MSTORE PUSH1 0x24 PUSH1 0x0 REVERT JUMPDEST PUSH1 0x20 MUL PUSH1 0x20 ADD ADD MLOAD DUP12 DUP8 DUP2 MLOAD DUP2 LT PUSH2 0x905 JUMPI PUSH4 0x4E487B71 PUSH1 0xE0 SHL PUSH1 0x0 MSTORE PUSH1 0x32 PUSH1 0x4 MSTORE PUSH1 0x24 PUSH1 0x0 REVERT JUMPDEST PUSH1 0x20 MUL PUSH1 0x20 ADD ADD MLOAD DUP12 DUP9 DUP2 MLOAD DUP2 LT PUSH2 0x92D JUMPI PUSH4 0x4E487B71 PUSH1 0xE0 SHL PUSH1 0x0 MSTORE PUSH1 0x32 PUSH1 0x4 MSTORE PUSH1 0x24 PUSH1 0x0 REVERT JUMPDEST PUSH1 0x20 MUL PUSH1 0x20 ADD ADD MLOAD DUP12 DUP10 DUP2 MLOAD DUP2 LT PUSH2 0x955 JUMPI PUSH4 0x4E487B71 PUSH1 0xE0 SHL PUSH1 0x0 MSTORE PUSH1 0x32 PUSH1 0x4 MSTORE PUSH1 0x24 PUSH1 0x0 REVERT JUMPDEST PUSH1 0x20 MUL PUSH1 0x20 ADD ADD MLOAD DUP12 DUP11 DUP2 MLOAD DUP2 LT PUSH2 0x97D JUMPI PUSH4 0x4E487B71 PUSH1 0xE0 SHL PUSH1 0x0 MSTORE PUSH1 0x32 PUSH1 0x4 MSTORE PUSH1 0x24 PUSH1 0x0 REVERT JUMPDEST PUSH1 0x20 MUL PUSH1 0x20 ADD ADD MLOAD PUSH2 0x1A25 JUMP JUMPDEST SWAP3 POP POP POP PUSH2 0x9AC JUMP JUMPDEST POP DUP1 PUSH2 0x99E DUP2 PUSH2 0x33BB JUMP JUMPDEST SWAP2 POP POP PUSH2 0x80E JUMP JUMPDEST POP PUSH1 0x1 SWAP1 POP JUMPDEST SWAP7 SWAP6 POP POP POP POP POP POP JUMP JUMPDEST PUSH2 0x9BE PUSH2 0x265C JUMP JUMPDEST PUSH1 0x0 DUP3 DUP2 MSTORE PUSH1 0x6A PUSH1 0x20 SWAP1 DUP2 MSTORE PUSH1 0x40 SWAP2 DUP3 SWAP1 KECCAK256 DUP3 MLOAD PUSH2 0x160 DUP2 ADD DUP5 MSTORE DUP2 SLOAD PUSH1 0x1 PUSH1 0x1 PUSH1 0xA0 SHL SUB AND DUP2 MSTORE PUSH1 0x1 DUP3 ADD SLOAD SWAP3 DUP2 ADD SWAP3 SWAP1 SWAP3 MSTORE PUSH1 0x2 DUP2 ADD DUP1 SLOAD SWAP3 SWAP4 SWAP2 SWAP3 SWAP2 DUP5 ADD SWAP2 PUSH2 0xA09 SWAP1 PUSH2 0x3380 JUMP JUMPDEST DUP1 PUSH1 0x1F ADD PUSH1 0x20 DUP1 SWAP2 DIV MUL PUSH1 0x20 ADD PUSH1 0x40 MLOAD SWAP1 DUP2 ADD PUSH1 0x40 MSTORE DUP1 SWAP3 SWAP2 SWAP1 DUP2 DUP2 MSTORE PUSH1 0x20 ADD DUP3 DUP1 SLOAD PUSH2 0xA35 SWAP1 PUSH2 0x3380 JUMP JUMPDEST DUP1 ISZERO PUSH2 0xA82 JUMPI DUP1 PUSH1 0x1F LT PUSH2 0xA57 JUMPI PUSH2 0x100 DUP1 DUP4 SLOAD DIV MUL DUP4 MSTORE SWAP2 PUSH1 0x20 ADD SWAP2 PUSH2 0xA82 JUMP JUMPDEST DUP3 ADD SWAP2 SWAP1 PUSH1 0x0 MSTORE PUSH1 0x20 PUSH1 0x0 KECCAK256 SWAP1 JUMPDEST DUP2 SLOAD DUP2 MSTORE SWAP1 PUSH1 0x1 ADD SWAP1 PUSH1 0x20 ADD DUP1 DUP4 GT PUSH2 0xA65 JUMPI DUP3 SWAP1 SUB PUSH1 0x1F AND DUP3 ADD SWAP2 JUMPDEST POP POP POP POP POP DUP2 MSTORE PUSH1 0x20 ADD PUSH1 0x3 DUP3 ADD SLOAD DUP2 MSTORE PUSH1 0x20 ADD PUSH1 0x4 DUP3 ADD SLOAD DUP2 MSTORE PUSH1 0x20 ADD PUSH1 0x5 DUP3 ADD SLOAD DUP2 MSTORE PUSH1 0x20 ADD PUSH1 0x6 DUP3 ADD SLOAD DUP2 MSTORE PUSH1 0x20 ADD PUSH1 0x7 DUP3 ADD SLOAD DUP2 MSTORE PUSH1 0x20 ADD PUSH1 0x8 DUP3 ADD SLOAD DUP2 MSTORE PUSH1 0x20 ADD PUSH1 0x9 DUP3 ADD SLOAD DUP2 MSTORE PUSH1 0x20 ADD PUSH1 0xA DUP3 ADD SLOAD DUP2 MSTORE POP POP SWAP1 POP JUMPDEST SWAP2 SWAP1 POP JUMP JUMPDEST PUSH1 0x0 PUSH2 0xAED PUSH2 0x18CA JUMP JUMPDEST PUSH1 0x1 PUSH1 0x1 PUSH1 0xA0 SHL SUB AND PUSH2 0xAFE PUSH2 0xC64 JUMP JUMPDEST PUSH1 0x1 PUSH1 0x1 PUSH1 0xA0 SHL SUB AND EQ PUSH2 0xB24 JUMPI PUSH1 0x40 MLOAD PUSH3 0x461BCD PUSH1 0xE5 SHL DUP2 MSTORE PUSH1 0x4 ADD PUSH2 0x5D9 SWAP1 PUSH2 0x3090 JUMP JUMPDEST POP PUSH1 0x66 DUP1 SLOAD PUSH1 0x1 PUSH1 0x1 PUSH1 0xA0 SHL SUB DUP4 AND PUSH1 0x1 PUSH1 0x1 PUSH1 0xA0 SHL SUB NOT SWAP1 SWAP2 AND OR SWAP1 SSTORE PUSH1 0x1 SWAP2 SWAP1 POP JUMP JUMPDEST PUSH1 0x0 DUP6 DUP2 MSTORE PUSH1 0x6A PUSH1 0x20 MSTORE PUSH1 0x40 DUP2 KECCAK256 DUP1 SLOAD PUSH1 0x1 PUSH1 0x1 PUSH1 0xA0 SHL SUB AND CALLER EQ PUSH2 0xB80 JUMPI PUSH1 0x40 MLOAD PUSH3 0x461BCD PUSH1 0xE5 SHL DUP2 MSTORE PUSH1 0x4 ADD PUSH2 0x5D9 SWAP1 PUSH2 0x3120 JUMP JUMPDEST PUSH2 0xB91 DUP9 DUP3 PUSH1 0x2 DUP11 DUP11 DUP11 DUP11 DUP11 PUSH2 0x1A25 JUMP JUMPDEST SWAP9 SWAP8 POP POP POP POP POP POP POP POP JUMP JUMPDEST PUSH2 0xBA5 PUSH2 0x18CA JUMP JUMPDEST PUSH1 0x1 PUSH1 0x1 PUSH1 0xA0 SHL SUB AND PUSH2 0xBB6 PUSH2 0xC64 JUMP JUMPDEST PUSH1 0x1 PUSH1 0x1 PUSH1 0xA0 SHL SUB AND EQ PUSH2 0xBDC JUMPI PUSH1 0x40 MLOAD PUSH3 0x461BCD PUSH1 0xE5 SHL DUP2 MSTORE PUSH1 0x4 ADD PUSH2 0x5D9 SWAP1 PUSH2 0x3090 JUMP JUMPDEST PUSH2 0xBE6 PUSH1 0x0 PUSH2 0x2187 JUMP JUMPDEST JUMP JUMPDEST PUSH1 0x6F PUSH1 0x20 SWAP1 DUP2 MSTORE PUSH1 0x0 SWAP3 DUP4 MSTORE PUSH1 0x40 DUP1 DUP5 KECCAK256 SWAP1 SWAP2 MSTORE SWAP1 DUP3 MSTORE SWAP1 KECCAK256 SLOAD DUP2 JUMP JUMPDEST PUSH1 0x0 PUSH2 0xC0F PUSH2 0x18CA JUMP JUMPDEST PUSH1 0x1 PUSH1 0x1 PUSH1 0xA0 SHL SUB AND PUSH2 0xC20 PUSH2 0xC64 JUMP JUMPDEST PUSH1 0x1 PUSH1 0x1 PUSH1 0xA0 SHL SUB AND EQ PUSH2 0xC46 JUMPI PUSH1 0x40 MLOAD PUSH3 0x461BCD PUSH1 0xE5 SHL DUP2 MSTORE PUSH1 0x4 ADD PUSH2 0x5D9 SWAP1 PUSH2 0x3090 JUMP JUMPDEST POP PUSH1 0x72 SSTORE PUSH1 0x1 SWAP1 JUMP JUMPDEST PUSH1 0x69 SLOAD PUSH1 0x1 PUSH1 0x1 PUSH1 0xA0 SHL SUB AND DUP2 JUMP JUMPDEST PUSH1 0x72 SLOAD DUP2 JUMP JUMPDEST PUSH1 0x33 SLOAD PUSH1 0x1 PUSH1 0x1 PUSH1 0xA0 SHL SUB AND SWAP1 JUMP JUMPDEST CALLER PUSH1 0x0 SWAP1 DUP2 MSTORE PUSH1 0x65 PUSH1 0x20 MSTORE PUSH1 0x40 DUP2 KECCAK256 SLOAD PUSH1 0xFF AND PUSH2 0xCA2 JUMPI PUSH1 0x40 MLOAD PUSH3 0x461BCD PUSH1 0xE5 SHL DUP2 MSTORE PUSH1 0x4 ADD PUSH2 0x5D9 SWAP1 PUSH2 0x2F4B JUMP JUMPDEST PUSH1 0x0 DUP7 DUP2 MSTORE PUSH1 0x6A PUSH1 0x20 MSTORE PUSH1 0x40 SWAP1 KECCAK256 PUSH2 0xB91 DUP9 DUP3 PUSH1 0x4 DUP11 DUP11 DUP11 DUP11 DUP11 PUSH2 0x1A25 JUMP JUMPDEST PUSH1 0x0 DUP7 DUP2 MSTORE PUSH1 0x6A PUSH1 0x20 MSTORE PUSH1 0x40 DUP2 KECCAK256 DUP1 SLOAD PUSH1 0x1 PUSH1 0x1 PUSH1 0xA0 SHL SUB AND PUSH2 0xCF6 JUMPI PUSH1 0x40 MLOAD PUSH3 0x461BCD PUSH1 0xE5 SHL DUP2 MSTORE PUSH1 0x4 ADD PUSH2 0x5D9 SWAP1 PUSH2 0x2E8B JUMP JUMPDEST PUSH1 0x2 DUP2 PUSH1 0x3 ADD SLOAD LT PUSH2 0xD1A JUMPI PUSH1 0x40 MLOAD PUSH3 0x461BCD PUSH1 0xE5 SHL DUP2 MSTORE PUSH1 0x4 ADD PUSH2 0x5D9 SWAP1 PUSH2 0x3142 JUMP JUMPDEST PUSH1 0x69 SLOAD PUSH1 0x40 MLOAD PUSH4 0x11CDC9D9 PUSH1 0xE1 SHL DUP2 MSTORE PUSH1 0x1 PUSH1 0x1 PUSH1 0xA0 SHL SUB SWAP1 SWAP2 AND SWAP1 PUSH4 0x239B93B2 SWAP1 PUSH2 0xD52 SWAP1 DUP13 SWAP1 DUP10 SWAP1 DUP13 SWAP1 DUP13 SWAP1 DUP12 SWAP1 PUSH1 0x4 ADD PUSH2 0x2E3F JUMP JUMPDEST PUSH1 0x20 PUSH1 0x40 MLOAD DUP1 DUP4 SUB DUP2 DUP7 DUP1 EXTCODESIZE ISZERO DUP1 ISZERO PUSH2 0xD6A JUMPI PUSH1 0x0 DUP1 REVERT JUMPDEST POP GAS STATICCALL ISZERO DUP1 ISZERO PUSH2 0xD7E JUMPI RETURNDATASIZE PUSH1 0x0 DUP1 RETURNDATACOPY RETURNDATASIZE PUSH1 0x0 REVERT JUMPDEST POP POP POP POP PUSH1 0x40 MLOAD RETURNDATASIZE PUSH1 0x1F NOT PUSH1 0x1F DUP3 ADD AND DUP3 ADD DUP1 PUSH1 0x40 MSTORE POP DUP2 ADD SWAP1 PUSH2 0xDA2 SWAP2 SWAP1 PUSH2 0x29AE JUMP JUMPDEST PUSH2 0xDBE JUMPI PUSH1 0x40 MLOAD PUSH3 0x461BCD PUSH1 0xE5 SHL DUP2 MSTORE PUSH1 0x4 ADD PUSH2 0x5D9 SWAP1 PUSH2 0x2F27 JUMP JUMPDEST PUSH2 0xDC9 DUP9 DUP7 DUP6 PUSH2 0x18CE JUMP JUMPDEST PUSH2 0xDE5 JUMPI PUSH1 0x40 MLOAD PUSH3 0x461BCD PUSH1 0xE5 SHL DUP2 MSTORE PUSH1 0x4 ADD PUSH2 0x5D9 SWAP1 PUSH2 0x3066 JUMP JUMPDEST PUSH1 0x0 PUSH2 0xE22 PUSH8 0xDE0B6B3A7640000 PUSH2 0xE1C PUSH1 0x73 SLOAD PUSH2 0xE1C PUSH1 0x72 SLOAD PUSH2 0xE16 DUP13 DUP10 PUSH1 0x9 ADD SLOAD PUSH2 0x18AB SWAP1 SWAP2 SWAP1 PUSH4 0xFFFFFFFF AND JUMP JUMPDEST SWAP1 PUSH2 0x18AB JUMP JUMPDEST SWAP1 PUSH2 0x21D9 JUMP JUMPDEST SWAP1 POP PUSH1 0x0 PUSH2 0xE73 PUSH2 0xE50 PUSH8 0xDE0B6B3A7640000 PUSH2 0xE1C DUP7 PUSH1 0x9 ADD SLOAD DUP8 PUSH1 0x5 ADD SLOAD PUSH2 0x18AB SWAP1 SWAP2 SWAP1 PUSH4 0xFFFFFFFF AND JUMP JUMPDEST PUSH2 0x589 PUSH8 0xDE0B6B3A7640000 PUSH2 0xE1C DUP8 PUSH1 0x9 ADD SLOAD DUP13 PUSH2 0x18AB SWAP1 SWAP2 SWAP1 PUSH4 0xFFFFFFFF AND JUMP JUMPDEST SWAP1 POP PUSH1 0x0 PUSH2 0xE8E DUP3 DUP6 PUSH1 0xA ADD SLOAD PUSH2 0x21E5 SWAP1 SWAP2 SWAP1 PUSH4 0xFFFFFFFF AND JUMP JUMPDEST SWAP1 POP PUSH1 0x0 DUP2 PUSH2 0xE9D DUP9 DUP7 PUSH2 0x18BE JUMP JUMPDEST GT ISZERO PUSH2 0xF33 JUMPI PUSH2 0xEB1 DUP3 PUSH2 0x589 DUP10 DUP8 PUSH2 0x18BE JUMP JUMPDEST PUSH1 0x67 SLOAD SWAP1 SWAP2 POP PUSH2 0xECC SWAP1 PUSH1 0x1 PUSH1 0x1 PUSH1 0xA0 SHL SUB AND CALLER ADDRESS DUP5 PUSH2 0x21F1 JUMP JUMPDEST PUSH1 0x67 SLOAD PUSH1 0x40 MLOAD PUSH4 0x852CD8D PUSH1 0xE3 SHL DUP2 MSTORE PUSH1 0x1 PUSH1 0x1 PUSH1 0xA0 SHL SUB SWAP1 SWAP2 AND SWAP1 PUSH4 0x42966C68 SWAP1 PUSH2 0xEFC SWAP1 DUP5 SWAP1 PUSH1 0x4 ADD PUSH2 0x3278 JUMP JUMPDEST PUSH1 0x0 PUSH1 0x40 MLOAD DUP1 DUP4 SUB DUP2 PUSH1 0x0 DUP8 DUP1 EXTCODESIZE ISZERO DUP1 ISZERO PUSH2 0xF16 JUMPI PUSH1 0x0 DUP1 REVERT JUMPDEST POP GAS CALL ISZERO DUP1 ISZERO PUSH2 0xF2A JUMPI RETURNDATASIZE PUSH1 0x0 DUP1 RETURNDATACOPY RETURNDATASIZE PUSH1 0x0 REVERT JUMPDEST POP POP POP POP PUSH2 0xFD2 JUMP JUMPDEST PUSH2 0xF47 PUSH2 0xF40 DUP9 DUP7 PUSH2 0x18BE JUMP JUMPDEST DUP4 SWAP1 PUSH2 0x18BE JUMP JUMPDEST PUSH1 0x67 SLOAD DUP7 SLOAD PUSH1 0x40 MLOAD PUSH4 0x40C10F19 PUSH1 0xE0 SHL DUP2 MSTORE SWAP3 SWAP4 POP PUSH1 0x1 PUSH1 0x1 PUSH1 0xA0 SHL SUB SWAP2 DUP3 AND SWAP3 PUSH4 0x40C10F19 SWAP3 PUSH2 0xF7E SWAP3 AND SWAP1 DUP6 SWAP1 PUSH1 0x4 ADD PUSH2 0x2DD7 JUMP JUMPDEST PUSH1 0x20 PUSH1 0x40 MLOAD DUP1 DUP4 SUB DUP2 PUSH1 0x0 DUP8 DUP1 EXTCODESIZE ISZERO DUP1 ISZERO PUSH2 0xF98 JUMPI PUSH1 0x0 DUP1 REVERT JUMPDEST POP GAS CALL ISZERO DUP1 ISZERO PUSH2 0xFAC JUMPI RETURNDATASIZE PUSH1 0x0 DUP1 RETURNDATACOPY RETURNDATASIZE PUSH1 0x0 REVERT JUMPDEST POP POP POP POP PUSH1 0x40 MLOAD RETURNDATASIZE PUSH1 0x1F NOT PUSH1 0x1F DUP3 ADD AND DUP3 ADD DUP1 PUSH1 0x40 MSTORE POP DUP2 ADD SWAP1 PUSH2 0xFD0 SWAP2 SWAP1 PUSH2 0x29AE JUMP JUMPDEST POP JUMPDEST PUSH1 0x67 SLOAD PUSH1 0x40 MLOAD PUSH4 0x40C10F19 PUSH1 0xE0 SHL DUP2 MSTORE PUSH1 0x1 PUSH1 0x1 PUSH1 0xA0 SHL SUB SWAP1 SWAP2 AND SWAP1 PUSH4 0x40C10F19 SWAP1 PUSH2 0x1004 SWAP1 ADDRESS SWAP1 DUP9 SWAP1 PUSH1 0x4 ADD PUSH2 0x2DD7 JUMP JUMPDEST PUSH1 0x20 PUSH1 0x40 MLOAD DUP1 DUP4 SUB DUP2 PUSH1 0x0 DUP8 DUP1 EXTCODESIZE ISZERO DUP1 ISZERO PUSH2 0x101E JUMPI PUSH1 0x0 DUP1 REVERT JUMPDEST POP GAS CALL ISZERO DUP1 ISZERO PUSH2 0x1032 JUMPI RETURNDATASIZE PUSH1 0x0 DUP1 RETURNDATACOPY RETURNDATASIZE PUSH1 0x0 REVERT JUMPDEST POP POP POP POP PUSH1 0x40 MLOAD RETURNDATASIZE PUSH1 0x1F NOT PUSH1 0x1F DUP3 ADD AND DUP3 ADD DUP1 PUSH1 0x40 MSTORE POP DUP2 ADD SWAP1 PUSH2 0x1056 SWAP2 SWAP1 PUSH2 0x29AE JUMP JUMPDEST POP PUSH1 0x68 SLOAD PUSH1 0x67 SLOAD PUSH2 0x1074 SWAP2 PUSH1 0x1 PUSH1 0x1 PUSH1 0xA0 SHL SUB SWAP2 DUP3 AND SWAP2 AND DUP7 PUSH2 0x224F JUMP JUMPDEST PUSH1 0x68 PUSH1 0x0 SWAP1 SLOAD SWAP1 PUSH2 0x100 EXP SWAP1 DIV PUSH1 0x1 PUSH1 0x1 PUSH1 0xA0 SHL SUB AND PUSH1 0x1 PUSH1 0x1 PUSH1 0xA0 SHL SUB AND PUSH4 0xD10C06A2 PUSH1 0x40 MLOAD DUP2 PUSH4 0xFFFFFFFF AND PUSH1 0xE0 SHL DUP2 MSTORE PUSH1 0x4 ADD PUSH1 0x20 PUSH1 0x40 MLOAD DUP1 DUP4 SUB DUP2 PUSH1 0x0 DUP8 DUP1 EXTCODESIZE ISZERO DUP1 ISZERO PUSH2 0x10C4 JUMPI PUSH1 0x0 DUP1 REVERT JUMPDEST POP GAS CALL ISZERO DUP1 ISZERO PUSH2 0x10D8 JUMPI RETURNDATASIZE PUSH1 0x0 DUP1 RETURNDATACOPY RETURNDATASIZE PUSH1 0x0 REVERT JUMPDEST POP POP POP POP PUSH1 0x40 MLOAD RETURNDATASIZE PUSH1 0x1F NOT PUSH1 0x1F DUP3 ADD AND DUP3 ADD DUP1 PUSH1 0x40 MSTORE POP DUP2 ADD SWAP1 PUSH2 0x10FC SWAP2 SWAP1 PUSH2 0x29AE JUMP JUMPDEST POP PUSH2 0x1107 DUP8 DUP6 PUSH2 0x18BE JUMP JUMPDEST PUSH1 0xA DUP7 ADD SSTORE POP POP POP POP PUSH1 0x5 ADD DUP5 SWAP1 SSTORE POP PUSH1 0x1 SWAP8 SWAP7 POP POP POP POP POP POP POP JUMP JUMPDEST PUSH1 0x73 SLOAD DUP2 JUMP JUMPDEST PUSH1 0x1 PUSH1 0x1 PUSH1 0xA0 SHL SUB AND PUSH1 0x0 SWAP1 DUP2 MSTORE PUSH1 0x70 PUSH1 0x20 MSTORE PUSH1 0x40 SWAP1 KECCAK256 SLOAD SWAP1 JUMP JUMPDEST PUSH1 0x6E PUSH1 0x20 MSTORE DUP2 PUSH1 0x0 MSTORE PUSH1 0x40 PUSH1 0x0 KECCAK256 DUP2 DUP2 SLOAD DUP2 LT PUSH2 0x1161 JUMPI PUSH1 0x0 DUP1 REVERT JUMPDEST SWAP1 PUSH1 0x0 MSTORE PUSH1 0x20 PUSH1 0x0 KECCAK256 ADD PUSH1 0x0 SWAP2 POP SWAP2 POP POP SLOAD DUP2 JUMP JUMPDEST PUSH1 0x6B SLOAD PUSH1 0x0 SWAP1 DUP2 MSTORE PUSH1 0x6A PUSH1 0x20 MSTORE PUSH1 0x40 DUP2 KECCAK256 DUP10 PUSH2 0x11A4 JUMPI PUSH1 0x40 MLOAD PUSH3 0x461BCD PUSH1 0xE5 SHL DUP2 MSTORE PUSH1 0x4 ADD PUSH2 0x5D9 SWAP1 PUSH2 0x2EB9 JUMP JUMPDEST PUSH1 0x3 DUP2 ADD SLOAD ISZERO PUSH2 0x11C6 JUMPI PUSH1 0x40 MLOAD PUSH3 0x461BCD PUSH1 0xE5 SHL DUP2 MSTORE PUSH1 0x4 ADD PUSH2 0x5D9 SWAP1 PUSH2 0x3142 JUMP JUMPDEST PUSH1 0x69 SLOAD PUSH1 0x40 MLOAD PUSH4 0x11CDC9D9 PUSH1 0xE1 SHL DUP2 MSTORE PUSH1 0x1 PUSH1 0x1 PUSH1 0xA0 SHL SUB SWAP1 SWAP2 AND SWAP1 PUSH4 0x239B93B2 SWAP1 PUSH2 0x11FE SWAP1 DUP15 SWAP1 DUP10 SWAP1 DUP15 SWAP1 DUP13 SWAP1 DUP11 SWAP1 PUSH1 0x4 ADD PUSH2 0x2E3F JUMP JUMPDEST PUSH1 0x20 PUSH1 0x40 MLOAD DUP1 DUP4 SUB DUP2 DUP7 DUP1 EXTCODESIZE ISZERO DUP1 ISZERO PUSH2 0x1216 JUMPI PUSH1 0x0 DUP1 REVERT JUMPDEST POP GAS STATICCALL ISZERO DUP1 ISZERO PUSH2 0x122A JUMPI RETURNDATASIZE PUSH1 0x0 DUP1 RETURNDATACOPY RETURNDATASIZE PUSH1 0x0 REVERT JUMPDEST POP POP POP POP PUSH1 0x40 MLOAD RETURNDATASIZE PUSH1 0x1F NOT PUSH1 0x1F DUP3 ADD AND DUP3 ADD DUP1 PUSH1 0x40 MSTORE POP DUP2 ADD SWAP1 PUSH2 0x124E SWAP2 SWAP1 PUSH2 0x29AE JUMP JUMPDEST PUSH2 0x126A JUMPI PUSH1 0x40 MLOAD PUSH3 0x461BCD PUSH1 0xE5 SHL DUP2 MSTORE PUSH1 0x4 ADD PUSH2 0x5D9 SWAP1 PUSH2 0x2F27 JUMP JUMPDEST PUSH1 0x74 SLOAD DUP11 GT PUSH2 0x128B JUMPI PUSH1 0x40 MLOAD PUSH3 0x461BCD PUSH1 0xE5 SHL DUP2 MSTORE PUSH1 0x4 ADD PUSH2 0x5D9 SWAP1 PUSH2 0x3023 JUMP JUMPDEST PUSH1 0x67 SLOAD PUSH2 0x12A3 SWAP1 PUSH1 0x1 PUSH1 0x1 PUSH1 0xA0 SHL SUB AND CALLER ADDRESS DUP14 PUSH2 0x21F1 JUMP JUMPDEST PUSH1 0x67 SLOAD PUSH1 0x40 MLOAD PUSH4 0x70A08231 PUSH1 0xE0 SHL DUP2 MSTORE PUSH1 0x0 SWAP2 PUSH1 0x1 PUSH1 0x1 PUSH1 0xA0 SHL SUB AND SWAP1 PUSH4 0x70A08231 SWAP1 PUSH2 0x12D4 SWAP1 ADDRESS SWAP1 PUSH1 0x4 ADD PUSH2 0x2D9F JUMP JUMPDEST PUSH1 0x20 PUSH1 0x40 MLOAD DUP1 DUP4 SUB DUP2 DUP7 DUP1 EXTCODESIZE ISZERO DUP1 ISZERO PUSH2 0x12EC JUMPI PUSH1 0x0 DUP1 REVERT JUMPDEST POP GAS STATICCALL ISZERO DUP1 ISZERO PUSH2 0x1300 JUMPI RETURNDATASIZE PUSH1 0x0 DUP1 RETURNDATACOPY RETURNDATASIZE PUSH1 0x0 REVERT JUMPDEST POP POP POP POP PUSH1 0x40 MLOAD RETURNDATASIZE PUSH1 0x1F NOT PUSH1 0x1F DUP3 ADD AND DUP3 ADD DUP1 PUSH1 0x40 MSTORE POP DUP2 ADD SWAP1 PUSH2 0x1324 SWAP2 SWAP1 PUSH2 0x2C87 JUMP JUMPDEST SWAP1 POP PUSH1 0x0 PUSH2 0x1343 PUSH1 0x73 SLOAD PUSH2 0xE1C PUSH1 0x72 SLOAD DUP6 PUSH2 0x18AB SWAP1 SWAP2 SWAP1 PUSH4 0xFFFFFFFF AND JUMP JUMPDEST PUSH1 0x68 SLOAD PUSH1 0x67 SLOAD SWAP2 SWAP3 POP PUSH2 0x1363 SWAP2 PUSH1 0x1 PUSH1 0x1 PUSH1 0xA0 SHL SUB SWAP1 DUP2 AND SWAP2 AND DUP4 PUSH2 0x224F JUMP JUMPDEST PUSH1 0x68 PUSH1 0x0 SWAP1 SLOAD SWAP1 PUSH2 0x100 EXP SWAP1 DIV PUSH1 0x1 PUSH1 0x1 PUSH1 0xA0 SHL SUB AND PUSH1 0x1 PUSH1 0x1 PUSH1 0xA0 SHL SUB AND PUSH4 0xD10C06A2 PUSH1 0x40 MLOAD DUP2 PUSH4 0xFFFFFFFF AND PUSH1 0xE0 SHL DUP2 MSTORE PUSH1 0x4 ADD PUSH1 0x20 PUSH1 0x40 MLOAD DUP1 DUP4 SUB DUP2 PUSH1 0x0 DUP8 DUP1 EXTCODESIZE ISZERO DUP1 ISZERO PUSH2 0x13B3 JUMPI PUSH1 0x0 DUP1 REVERT JUMPDEST POP GAS CALL ISZERO DUP1 ISZERO PUSH2 0x13C7 JUMPI RETURNDATASIZE PUSH1 0x0 DUP1 RETURNDATACOPY RETURNDATASIZE PUSH1 0x0 REVERT JUMPDEST POP POP POP POP PUSH1 0x40 MLOAD RETURNDATASIZE PUSH1 0x1F NOT PUSH1 0x1F DUP3 ADD AND DUP3 ADD DUP1 PUSH1 0x40 MSTORE POP DUP2 ADD SWAP1 PUSH2 0x13EB SWAP2 SWAP1 PUSH2 0x29AE JUMP JUMPDEST POP PUSH1 0x67 SLOAD PUSH1 0x1 PUSH1 0x1 PUSH1 0xA0 SHL SUB AND PUSH4 0x42966C68 PUSH2 0x1407 DUP5 DUP5 PUSH2 0x18BE JUMP JUMPDEST PUSH1 0x40 MLOAD DUP3 PUSH4 0xFFFFFFFF AND PUSH1 0xE0 SHL DUP2 MSTORE PUSH1 0x4 ADD PUSH2 0x1423 SWAP2 SWAP1 PUSH2 0x3278 JUMP JUMPDEST PUSH1 0x0 PUSH1 0x40 MLOAD DUP1 DUP4 SUB DUP2 PUSH1 0x0 DUP8 DUP1 EXTCODESIZE ISZERO DUP1 ISZERO PUSH2 0x143D JUMPI PUSH1 0x0 DUP1 REVERT JUMPDEST POP GAS CALL ISZERO DUP1 ISZERO PUSH2 0x1451 JUMPI RETURNDATASIZE PUSH1 0x0 DUP1 RETURNDATACOPY RETURNDATASIZE PUSH1 0x0 REVERT JUMPDEST POP POP PUSH1 0x6B SLOAD PUSH1 0x6C DUP1 SLOAD PUSH1 0x1 DUP2 DUP2 ADD DUP4 SSTORE PUSH1 0x0 DUP4 SWAP1 MSTORE PUSH32 0x2B4A51AB505FC96A0952EFDA2BA61BCD3078D4C02C39A186EC16F21883FBE016 SWAP1 SWAP2 ADD SWAP3 SWAP1 SWAP3 SSTORE SLOAD PUSH2 0x149B SWAP4 POP SWAP2 POP PUSH2 0x18BE JUMP JUMPDEST PUSH1 0x6B DUP1 SLOAD PUSH1 0x0 SWAP1 DUP2 MSTORE PUSH1 0x6D PUSH1 0x20 SWAP1 DUP2 MSTORE PUSH1 0x40 DUP1 DUP4 KECCAK256 SWAP5 SWAP1 SWAP5 SSTORE CALLER DUP1 DUP4 MSTORE PUSH1 0x6E DUP1 DUP4 MSTORE DUP6 DUP5 KECCAK256 DUP6 SLOAD DUP2 SLOAD PUSH1 0x1 DUP2 DUP2 ADD DUP5 SSTORE DUP4 DUP9 MSTORE DUP7 DUP9 KECCAK256 SWAP1 SWAP2 ADD SWAP2 SWAP1 SWAP2 SSTORE SWAP6 SLOAD SWAP3 DUP6 MSTORE PUSH1 0x6F DUP5 MSTORE SWAP6 DUP5 KECCAK256 SWAP3 MSTORE SWAP4 SLOAD SWAP1 SWAP3 PUSH2 0x14F4 SWAP2 SWAP1 PUSH2 0x18BE JUMP JUMPDEST DUP2 MSTORE PUSH1 0x20 ADD SWAP1 DUP2 MSTORE PUSH1 0x20 ADD PUSH1 0x0 KECCAK256 DUP2 SWAP1 SSTORE POP PUSH1 0x6B PUSH1 0x0 DUP2 SLOAD DUP1 SWAP3 SWAP2 SWAP1 PUSH2 0x1519 SWAP1 PUSH2 0x33BB JUMP JUMPDEST SWAP1 SWAP2 SSTORE POP POP DUP3 SLOAD PUSH1 0x1 PUSH1 0x1 PUSH1 0xA0 SHL SUB NOT AND CALLER OR DUP4 SSTORE PUSH1 0x1 DUP4 ADD DUP10 SWAP1 SSTORE DUP8 MLOAD PUSH2 0x154A SWAP1 PUSH1 0x2 DUP6 ADD SWAP1 PUSH1 0x20 DUP12 ADD SWAP1 PUSH2 0x26BF JUMP JUMPDEST POP PUSH1 0x1 PUSH1 0x3 DUP5 ADD SSTORE PUSH1 0x4 DUP4 ADD DUP11 SWAP1 SSTORE PUSH1 0x5 DUP4 ADD DUP8 SWAP1 SSTORE PUSH1 0x6 DUP4 ADD DUP12 SWAP1 SSTORE PUSH1 0x9 DUP4 ADD DUP7 SWAP1 SSTORE PUSH2 0x1578 DUP3 DUP3 PUSH2 0x18BE JUMP JUMPDEST PUSH1 0xA SWAP1 SWAP4 ADD SWAP3 SWAP1 SWAP3 SSTORE POP PUSH1 0x1 SWAP12 SWAP11 POP POP POP POP POP POP POP POP POP POP POP JUMP JUMPDEST PUSH1 0x1 PUSH1 0x1 PUSH1 0xA0 SHL SUB AND PUSH1 0x0 SWAP1 DUP2 MSTORE PUSH1 0x6E PUSH1 0x20 MSTORE PUSH1 0x40 SWAP1 KECCAK256 SLOAD SWAP1 JUMP JUMPDEST PUSH1 0x70 PUSH1 0x20 MSTORE DUP2 PUSH1 0x0 MSTORE PUSH1 0x40 PUSH1 0x0 KECCAK256 DUP2 DUP2 SLOAD DUP2 LT PUSH2 0x1161 JUMPI PUSH1 0x0 DUP1 REVERT JUMPDEST PUSH1 0x71 PUSH1 0x20 SWAP1 DUP2 MSTORE PUSH1 0x0 SWAP3 DUP4 MSTORE PUSH1 0x40 DUP1 DUP5 KECCAK256 SWAP1 SWAP2 MSTORE SWAP1 DUP3 MSTORE SWAP1 KECCAK256 SLOAD DUP2 JUMP JUMPDEST PUSH1 0x74 SLOAD DUP2 JUMP JUMPDEST PUSH2 0x15F5 PUSH2 0x18CA JUMP JUMPDEST PUSH1 0x1 PUSH1 0x1 PUSH1 0xA0 SHL SUB AND PUSH2 0x1606 PUSH2 0xC64 JUMP JUMPDEST PUSH1 0x1 PUSH1 0x1 PUSH1 0xA0 SHL SUB AND EQ PUSH2 0x162C JUMPI PUSH1 0x40 MLOAD PUSH3 0x461BCD PUSH1 0xE5 SHL DUP2 MSTORE PUSH1 0x4 ADD PUSH2 0x5D9 SWAP1 PUSH2 0x3090 JUMP JUMPDEST PUSH1 0x1 PUSH1 0x1 PUSH1 0xA0 SHL SUB DUP2 AND PUSH2 0x1652 JUMPI PUSH1 0x40 MLOAD PUSH3 0x461BCD PUSH1 0xE5 SHL DUP2 MSTORE PUSH1 0x4 ADD PUSH2 0x5D9 SWAP1 PUSH2 0x2EE1 JUMP JUMPDEST PUSH2 0x165B DUP2 PUSH2 0x2187 JUMP JUMPDEST POP JUMP JUMPDEST PUSH1 0x6B SLOAD DUP2 JUMP JUMPDEST PUSH1 0x0 SLOAD PUSH2 0x100 SWAP1 DIV PUSH1 0xFF AND DUP1 PUSH2 0x167D JUMPI POP PUSH1 0x0 SLOAD PUSH1 0xFF AND ISZERO JUMPDEST PUSH2 0x1699 JUMPI PUSH1 0x40 MLOAD PUSH3 0x461BCD PUSH1 0xE5 SHL DUP2 MSTORE PUSH1 0x4 ADD PUSH2 0x5D9 SWAP1 PUSH2 0x2FD5 JUMP JUMPDEST PUSH1 0x0 SLOAD PUSH2 0x100 SWAP1 DIV PUSH1 0xFF AND ISZERO DUP1 ISZERO PUSH2 0x16C4 JUMPI PUSH1 0x0 DUP1 SLOAD PUSH1 0xFF NOT PUSH2 0xFF00 NOT SWAP1 SWAP2 AND PUSH2 0x100 OR AND PUSH1 0x1 OR SWAP1 SSTORE JUMPDEST PUSH2 0x16CC PUSH2 0x2273 JUMP JUMPDEST PUSH1 0x66 DUP1 SLOAD PUSH1 0x1 PUSH1 0x1 PUSH1 0xA0 SHL SUB DUP1 DUP9 AND PUSH1 0x1 PUSH1 0x1 PUSH1 0xA0 SHL SUB NOT SWAP3 DUP4 AND OR SWAP1 SWAP3 SSTORE PUSH1 0x68 DUP1 SLOAD DUP8 DUP5 AND SWAP1 DUP4 AND OR SWAP1 SSTORE PUSH1 0x67 DUP1 SLOAD DUP7 DUP5 AND SWAP1 DUP4 AND OR SWAP1 SSTORE PUSH2 0x2710 PUSH1 0x73 SSTORE PUSH1 0x69 DUP1 SLOAD SWAP3 DUP6 AND SWAP3 SWAP1 SWAP2 AND SWAP2 SWAP1 SWAP2 OR SWAP1 SSTORE PUSH8 0xDE0B6B3A7640000 PUSH1 0x74 SSTORE PUSH1 0x32 PUSH1 0x72 SSTORE DUP1 ISZERO PUSH2 0x173F JUMPI PUSH1 0x0 DUP1 SLOAD PUSH2 0xFF00 NOT AND SWAP1 SSTORE JUMPDEST POP POP POP POP POP JUMP JUMPDEST PUSH1 0x0 PUSH2 0x1750 PUSH2 0x18CA JUMP JUMPDEST PUSH1 0x1 PUSH1 0x1 PUSH1 0xA0 SHL SUB AND PUSH2 0x1761 PUSH2 0xC64 JUMP JUMPDEST PUSH1 0x1 PUSH1 0x1 PUSH1 0xA0 SHL SUB AND EQ PUSH2 0x1787 JUMPI PUSH1 0x40 MLOAD PUSH3 0x461BCD PUSH1 0xE5 SHL DUP2 MSTORE PUSH1 0x4 ADD PUSH2 0x5D9 SWAP1 PUSH2 0x3090 JUMP JUMPDEST PUSH1 0x40 MLOAD DUP1 PUSH2 0x160 ADD PUSH1 0x40 MSTORE DUP1 DUP14 PUSH1 0x1 PUSH1 0x1 PUSH1 0xA0 SHL SUB AND DUP2 MSTORE PUSH1 0x20 ADD DUP13 DUP2 MSTORE PUSH1 0x20 ADD DUP12 DUP2 MSTORE PUSH1 0x20 ADD DUP11 DUP2 MSTORE PUSH1 0x20 ADD DUP10 DUP2 MSTORE PUSH1 0x20 ADD DUP9 DUP2 MSTORE PUSH1 0x20 ADD DUP8 DUP2 MSTORE PUSH1 0x20 ADD DUP7 DUP2 MSTORE PUSH1 0x20 ADD DUP6 DUP2 MSTORE PUSH1 0x20 ADD DUP5 DUP2 MSTORE PUSH1 0x20 ADD DUP4 DUP2 MSTORE POP PUSH1 0x6A PUSH1 0x0 DUP16 DUP2 MSTORE PUSH1 0x20 ADD SWAP1 DUP2 MSTORE PUSH1 0x20 ADD PUSH1 0x0 KECCAK256 PUSH1 0x0 DUP3 ADD MLOAD DUP2 PUSH1 0x0 ADD PUSH1 0x0 PUSH2 0x100 EXP DUP2 SLOAD DUP2 PUSH1 0x1 PUSH1 0x1 PUSH1 0xA0 SHL SUB MUL NOT AND SWAP1 DUP4 PUSH1 0x1 PUSH1 0x1 PUSH1 0xA0 SHL SUB AND MUL OR SWAP1 SSTORE POP PUSH1 0x20 DUP3 ADD MLOAD DUP2 PUSH1 0x1 ADD SSTORE PUSH1 0x40 DUP3 ADD MLOAD DUP2 PUSH1 0x2 ADD SWAP1 DUP1 MLOAD SWAP1 PUSH1 0x20 ADD SWAP1 PUSH2 0x1842 SWAP3 SWAP2 SWAP1 PUSH2 0x26BF JUMP JUMPDEST POP PUSH1 0x60 DUP3 ADD MLOAD PUSH1 0x3 DUP3 ADD SSTORE PUSH1 0x80 DUP3 ADD MLOAD PUSH1 0x4 DUP3 ADD SSTORE PUSH1 0xA0 DUP3 ADD MLOAD PUSH1 0x5 DUP3 ADD SSTORE PUSH1 0xC0 DUP3 ADD MLOAD PUSH1 0x6 DUP3 ADD SSTORE PUSH1 0xE0 DUP3 ADD MLOAD PUSH1 0x7 DUP3 ADD SSTORE PUSH2 0x100 DUP3 ADD MLOAD PUSH1 0x8 DUP3 ADD SSTORE PUSH2 0x120 DUP3 ADD MLOAD PUSH1 0x9 DUP3 ADD SSTORE PUSH2 0x140 SWAP1 SWAP2 ADD MLOAD PUSH1 0xA SWAP1 SWAP2 ADD SSTORE POP PUSH1 0x1 SWAP13 SWAP12 POP POP POP POP POP POP POP POP POP POP POP POP JUMP JUMPDEST PUSH1 0x0 PUSH2 0x18B7 DUP3 DUP5 PUSH2 0x3307 JUMP JUMPDEST SWAP4 SWAP3 POP POP POP JUMP JUMPDEST PUSH1 0x0 PUSH2 0x18B7 DUP3 DUP5 PUSH2 0x3326 JUMP JUMPDEST CALLER SWAP1 JUMP JUMPDEST PUSH1 0x0 DUP4 DUP2 MSTORE PUSH1 0x6A PUSH1 0x20 MSTORE PUSH1 0x40 DUP2 KECCAK256 PUSH1 0x4 DUP2 ADD SLOAD DUP3 SWAP1 DUP2 SWAP1 DUP2 SWAP1 PUSH1 0x1 EQ ISZERO PUSH2 0x1985 JUMPI DUP4 PUSH1 0x5 ADD SLOAD DUP8 LT ISZERO PUSH2 0x1980 JUMPI PUSH1 0x5 DUP5 ADD SLOAD PUSH2 0x190A SWAP1 DUP9 PUSH2 0x18BE JUMP JUMPDEST SWAP3 POP PUSH2 0x192F PUSH8 0xDE0B6B3A7640000 PUSH2 0xE1C DUP7 PUSH1 0x9 ADD SLOAD DUP7 PUSH2 0x18AB SWAP1 SWAP2 SWAP1 PUSH4 0xFFFFFFFF AND JUMP JUMPDEST SWAP2 POP PUSH2 0x1960 PUSH8 0xDE0B6B3A7640000 PUSH2 0xE1C PUSH1 0x73 SLOAD PUSH2 0xE1C PUSH1 0x72 SLOAD PUSH2 0xE16 DUP14 DUP12 PUSH1 0x9 ADD SLOAD PUSH2 0x18AB SWAP1 SWAP2 SWAP1 PUSH4 0xFFFFFFFF AND JUMP JUMPDEST SWAP1 POP PUSH2 0x196C DUP2 DUP4 PUSH2 0x32CF JUMP JUMPDEST DUP7 LT ISZERO PUSH2 0x1980 JUMPI PUSH1 0x0 SWAP5 POP POP POP POP POP PUSH2 0x18B7 JUMP JUMPDEST PUSH2 0x1A17 JUMP JUMPDEST DUP4 PUSH1 0x5 ADD SLOAD DUP8 GT ISZERO PUSH2 0x1A17 JUMPI PUSH1 0x5 DUP5 ADD SLOAD PUSH2 0x19A1 SWAP1 DUP9 SWAP1 PUSH2 0x18BE JUMP JUMPDEST SWAP3 POP PUSH2 0x19C6 PUSH8 0xDE0B6B3A7640000 PUSH2 0xE1C DUP7 PUSH1 0x9 ADD SLOAD DUP7 PUSH2 0x18AB SWAP1 SWAP2 SWAP1 PUSH4 0xFFFFFFFF AND JUMP JUMPDEST SWAP2 POP PUSH2 0x19F7 PUSH8 0xDE0B6B3A7640000 PUSH2 0xE1C PUSH1 0x73 SLOAD PUSH2 0xE1C PUSH1 0x72 SLOAD PUSH2 0xE16 DUP14 DUP12 PUSH1 0x9 ADD SLOAD PUSH2 0x18AB SWAP1 SWAP2 SWAP1 PUSH4 0xFFFFFFFF AND JUMP JUMPDEST SWAP1 POP PUSH2 0x1A03 DUP2 DUP4 PUSH2 0x32CF JUMP JUMPDEST DUP7 LT ISZERO PUSH2 0x1A17 JUMPI PUSH1 0x0 SWAP5 POP POP POP POP POP PUSH2 0x18B7 JUMP JUMPDEST POP PUSH1 0x1 SWAP8 SWAP7 POP POP POP POP POP POP POP JUMP JUMPDEST DUP7 SLOAD PUSH1 0x0 SWAP1 PUSH1 0x1 PUSH1 0x1 PUSH1 0xA0 SHL SUB AND PUSH2 0x1A4F JUMPI PUSH1 0x40 MLOAD PUSH3 0x461BCD PUSH1 0xE5 SHL DUP2 MSTORE PUSH1 0x4 ADD PUSH2 0x5D9 SWAP1 PUSH2 0x2E8B JUMP JUMPDEST PUSH1 0x2 DUP9 PUSH1 0x3 ADD SLOAD LT PUSH2 0x1A73 JUMPI PUSH1 0x40 MLOAD PUSH3 0x461BCD PUSH1 0xE5 SHL DUP2 MSTORE PUSH1 0x4 ADD PUSH2 0x5D9 SWAP1 PUSH2 0x3142 JUMP JUMPDEST PUSH1 0x69 SLOAD PUSH1 0x40 MLOAD PUSH4 0x11CDC9D9 PUSH1 0xE1 SHL DUP2 MSTORE PUSH1 0x1 PUSH1 0x1 PUSH1 0xA0 SHL SUB SWAP1 SWAP2 AND SWAP1 PUSH4 0x239B93B2 SWAP1 PUSH2 0x1AAB SWAP1 DUP13 SWAP1 DUP8 SWAP1 DUP11 SWAP1 DUP11 SWAP1 DUP10 SWAP1 PUSH1 0x4 ADD PUSH2 0x2E3F JUMP JUMPDEST PUSH1 0x20 PUSH1 0x40 MLOAD DUP1 DUP4 SUB DUP2 DUP7 DUP1 EXTCODESIZE ISZERO DUP1 ISZERO PUSH2 0x1AC3 JUMPI PUSH1 0x0 DUP1 REVERT JUMPDEST POP GAS STATICCALL ISZERO DUP1 ISZERO PUSH2 0x1AD7 JUMPI RETURNDATASIZE PUSH1 0x0 DUP1 RETURNDATACOPY RETURNDATASIZE PUSH1 0x0 REVERT JUMPDEST POP POP POP POP PUSH1 0x40 MLOAD RETURNDATASIZE PUSH1 0x1F NOT PUSH1 0x1F DUP3 ADD AND DUP3 ADD DUP1 PUSH1 0x40 MSTORE POP DUP2 ADD SWAP1 PUSH2 0x1AFB SWAP2 SWAP1 PUSH2 0x29AE JUMP JUMPDEST PUSH2 0x1B17 JUMPI PUSH1 0x40 MLOAD PUSH3 0x461BCD PUSH1 0xE5 SHL DUP2 MSTORE PUSH1 0x4 ADD PUSH2 0x5D9 SWAP1 PUSH2 0x2F27 JUMP JUMPDEST DUP3 DUP9 PUSH1 0x7 ADD DUP2 SWAP1 SSTORE POP PUSH1 0x0 DUP1 PUSH1 0x0 DUP11 PUSH1 0x4 ADD SLOAD PUSH1 0x1 EQ ISZERO PUSH2 0x1E62 JUMPI DUP11 PUSH1 0x5 ADD SLOAD DUP12 PUSH1 0x7 ADD SLOAD GT ISZERO PUSH2 0x1CCE JUMPI PUSH1 0x5 DUP12 ADD SLOAD PUSH1 0x7 DUP13 ADD SLOAD PUSH2 0x1B55 SWAP2 PUSH2 0x18BE JUMP JUMPDEST SWAP3 POP PUSH2 0x1B7A PUSH8 0xDE0B6B3A7640000 PUSH2 0xE1C DUP14 PUSH1 0x9 ADD SLOAD DUP7 PUSH2 0x18AB SWAP1 SWAP2 SWAP1 PUSH4 0xFFFFFFFF AND JUMP JUMPDEST PUSH1 0xA DUP13 ADD SLOAD SWAP1 SWAP3 POP PUSH2 0x1B8C SWAP1 DUP4 PUSH2 0x21E5 JUMP JUMPDEST SWAP1 POP PUSH1 0x0 PUSH2 0x1BAB PUSH1 0x73 SLOAD PUSH2 0xE1C PUSH1 0x72 SLOAD DUP6 PUSH2 0x18AB SWAP1 SWAP2 SWAP1 PUSH4 0xFFFFFFFF AND JUMP JUMPDEST PUSH1 0x67 SLOAD PUSH1 0x68 SLOAD PUSH1 0x40 MLOAD PUSH4 0x40C10F19 PUSH1 0xE0 SHL DUP2 MSTORE SWAP3 SWAP4 POP PUSH1 0x1 PUSH1 0x1 PUSH1 0xA0 SHL SUB SWAP2 DUP3 AND SWAP3 PUSH4 0x40C10F19 SWAP3 PUSH2 0x1BE3 SWAP3 AND SWAP1 DUP6 SWAP1 PUSH1 0x4 ADD PUSH2 0x2DD7 JUMP JUMPDEST PUSH1 0x20 PUSH1 0x40 MLOAD DUP1 DUP4 SUB DUP2 PUSH1 0x0 DUP8 DUP1 EXTCODESIZE ISZERO DUP1 ISZERO PUSH2 0x1BFD JUMPI PUSH1 0x0 DUP1 REVERT JUMPDEST POP GAS CALL ISZERO DUP1 ISZERO PUSH2 0x1C11 JUMPI RETURNDATASIZE PUSH1 0x0 DUP1 RETURNDATACOPY RETURNDATASIZE PUSH1 0x0 REVERT JUMPDEST POP POP POP POP PUSH1 0x40 MLOAD RETURNDATASIZE PUSH1 0x1F NOT PUSH1 0x1F DUP3 ADD AND DUP3 ADD DUP1 PUSH1 0x40 MSTORE POP DUP2 ADD SWAP1 PUSH2 0x1C35 SWAP2 SWAP1 PUSH2 0x29AE JUMP JUMPDEST POP PUSH1 0x67 SLOAD DUP13 SLOAD PUSH1 0x1 PUSH1 0x1 PUSH1 0xA0 SHL SUB SWAP2 DUP3 AND SWAP2 PUSH4 0x40C10F19 SWAP2 AND PUSH2 0x1C58 DUP6 DUP6 PUSH2 0x18BE JUMP JUMPDEST PUSH1 0x40 MLOAD DUP4 PUSH4 0xFFFFFFFF AND PUSH1 0xE0 SHL DUP2 MSTORE PUSH1 0x4 ADD PUSH2 0x1C75 SWAP3 SWAP2 SWAP1 PUSH2 0x2DD7 JUMP JUMPDEST PUSH1 0x20 PUSH1 0x40 MLOAD DUP1 DUP4 SUB DUP2 PUSH1 0x0 DUP8 DUP1 EXTCODESIZE ISZERO DUP1 ISZERO PUSH2 0x1C8F JUMPI PUSH1 0x0 DUP1 REVERT JUMPDEST POP GAS CALL ISZERO DUP1 ISZERO PUSH2 0x1CA3 JUMPI RETURNDATASIZE PUSH1 0x0 DUP1 RETURNDATACOPY RETURNDATASIZE PUSH1 0x0 REVERT JUMPDEST POP POP POP POP PUSH1 0x40 MLOAD RETURNDATASIZE PUSH1 0x1F NOT PUSH1 0x1F DUP3 ADD AND DUP3 ADD DUP1 PUSH1 0x40 MSTORE POP DUP2 ADD SWAP1 PUSH2 0x1CC7 SWAP2 SWAP1 PUSH2 0x29AE JUMP JUMPDEST POP POP PUSH2 0x1E5D JUMP JUMPDEST PUSH1 0x7 DUP12 ADD SLOAD PUSH1 0x5 DUP13 ADD SLOAD PUSH2 0x1CE1 SWAP2 PUSH2 0x18BE JUMP JUMPDEST SWAP3 POP PUSH2 0x1CFA DUP12 PUSH1 0x9 ADD SLOAD DUP5 PUSH2 0x18AB SWAP1 SWAP2 SWAP1 PUSH4 0xFFFFFFFF AND JUMP JUMPDEST SWAP2 POP DUP11 PUSH1 0xA ADD SLOAD DUP3 GT ISZERO PUSH2 0x1D10 JUMPI POP PUSH1 0x0 PUSH2 0x1E5D JUMP JUMPDEST PUSH1 0xA DUP12 ADD SLOAD PUSH2 0x1D1F SWAP1 DUP4 PUSH2 0x18BE JUMP JUMPDEST SWAP1 POP PUSH1 0x0 PUSH2 0x1D3E PUSH1 0x73 SLOAD PUSH2 0xE1C PUSH1 0x72 SLOAD DUP6 PUSH2 0x18AB SWAP1 SWAP2 SWAP1 PUSH4 0xFFFFFFFF AND JUMP JUMPDEST PUSH1 0x67 SLOAD PUSH1 0x68 SLOAD PUSH1 0x40 MLOAD PUSH4 0x40C10F19 PUSH1 0xE0 SHL DUP2 MSTORE SWAP3 SWAP4 POP PUSH1 0x1 PUSH1 0x1 PUSH1 0xA0 SHL SUB SWAP2 DUP3 AND SWAP3 PUSH4 0x40C10F19 SWAP3 PUSH2 0x1D76 SWAP3 AND SWAP1 DUP6 SWAP1 PUSH1 0x4 ADD PUSH2 0x2DD7 JUMP JUMPDEST PUSH1 0x20 PUSH1 0x40 MLOAD DUP1 DUP4 SUB DUP2 PUSH1 0x0 DUP8 DUP1 EXTCODESIZE ISZERO DUP1 ISZERO PUSH2 0x1D90 JUMPI PUSH1 0x0 DUP1 REVERT JUMPDEST POP GAS CALL ISZERO DUP1 ISZERO PUSH2 0x1DA4 JUMPI RETURNDATASIZE PUSH1 0x0 DUP1 RETURNDATACOPY RETURNDATASIZE PUSH1 0x0 REVERT JUMPDEST POP POP POP POP PUSH1 0x40 MLOAD RETURNDATASIZE PUSH1 0x1F NOT PUSH1 0x1F DUP3 ADD AND DUP3 ADD DUP1 PUSH1 0x40 MSTORE POP DUP2 ADD SWAP1 PUSH2 0x1DC8 SWAP2 SWAP1 PUSH2 0x29AE JUMP JUMPDEST POP PUSH1 0x67 SLOAD DUP13 SLOAD PUSH1 0x1 PUSH1 0x1 PUSH1 0xA0 SHL SUB SWAP2 DUP3 AND SWAP2 PUSH4 0x40C10F19 SWAP2 AND PUSH2 0x1DEB DUP6 DUP6 PUSH2 0x18BE JUMP JUMPDEST PUSH1 0x40 MLOAD DUP4 PUSH4 0xFFFFFFFF AND PUSH1 0xE0 SHL DUP2 MSTORE PUSH1 0x4 ADD PUSH2 0x1E08 SWAP3 SWAP2 SWAP1 PUSH2 0x2DD7 JUMP JUMPDEST PUSH1 0x20 PUSH1 0x40 MLOAD DUP1 DUP4 SUB DUP2 PUSH1 0x0 DUP8 DUP1 EXTCODESIZE ISZERO DUP1 ISZERO PUSH2 0x1E22 JUMPI PUSH1 0x0 DUP1 REVERT JUMPDEST POP GAS CALL ISZERO DUP1 ISZERO PUSH2 0x1E36 JUMPI RETURNDATASIZE PUSH1 0x0 DUP1 RETURNDATACOPY RETURNDATASIZE PUSH1 0x0 REVERT JUMPDEST POP POP POP POP PUSH1 0x40 MLOAD RETURNDATASIZE PUSH1 0x1F NOT PUSH1 0x1F DUP3 ADD AND DUP3 ADD DUP1 PUSH1 0x40 MSTORE POP DUP2 ADD SWAP1 PUSH2 0x1E5A SWAP2 SWAP1 PUSH2 0x29AE JUMP JUMPDEST POP POP JUMPDEST PUSH2 0x2057 JUMP JUMPDEST DUP11 PUSH1 0x5 ADD SLOAD DUP12 PUSH1 0x7 ADD SLOAD LT ISZERO PUSH2 0x1EBC JUMPI PUSH1 0x7 DUP12 ADD SLOAD PUSH1 0x5 DUP13 ADD SLOAD PUSH2 0x1E85 SWAP2 PUSH2 0x18BE JUMP JUMPDEST SWAP3 POP PUSH2 0x1EAA PUSH8 0xDE0B6B3A7640000 PUSH2 0xE1C DUP14 PUSH1 0x9 ADD SLOAD DUP7 PUSH2 0x18AB SWAP1 SWAP2 SWAP1 PUSH4 0xFFFFFFFF AND JUMP JUMPDEST PUSH1 0xA DUP13 ADD SLOAD SWAP1 SWAP3 POP PUSH2 0x1D1F SWAP1 DUP4 PUSH2 0x21E5 JUMP JUMPDEST PUSH1 0x5 DUP12 ADD SLOAD PUSH1 0x7 DUP13 ADD SLOAD PUSH2 0x1ECF SWAP2 PUSH2 0x18BE JUMP JUMPDEST SWAP3 POP PUSH2 0x1EF4 PUSH8 0xDE0B6B3A7640000 PUSH2 0xE1C DUP14 PUSH1 0x9 ADD SLOAD DUP7 PUSH2 0x18AB SWAP1 SWAP2 SWAP1 PUSH4 0xFFFFFFFF AND JUMP JUMPDEST SWAP2 POP DUP11 PUSH1 0xA ADD SLOAD DUP3 GT ISZERO PUSH2 0x1F0A JUMPI POP PUSH1 0x0 PUSH2 0x2057 JUMP JUMPDEST PUSH1 0xA DUP12 ADD SLOAD PUSH2 0x1F19 SWAP1 DUP4 PUSH2 0x18BE JUMP JUMPDEST SWAP1 POP PUSH1 0x0 PUSH2 0x1F38 PUSH1 0x73 SLOAD PUSH2 0xE1C PUSH1 0x72 SLOAD DUP6 PUSH2 0x18AB SWAP1 SWAP2 SWAP1 PUSH4 0xFFFFFFFF AND JUMP JUMPDEST PUSH1 0x67 SLOAD PUSH1 0x68 SLOAD PUSH1 0x40 MLOAD PUSH4 0x40C10F19 PUSH1 0xE0 SHL DUP2 MSTORE SWAP3 SWAP4 POP PUSH1 0x1 PUSH1 0x1 PUSH1 0xA0 SHL SUB SWAP2 DUP3 AND SWAP3 PUSH4 0x40C10F19 SWAP3 PUSH2 0x1F70 SWAP3 AND SWAP1 DUP6 SWAP1 PUSH1 0x4 ADD PUSH2 0x2DD7 JUMP JUMPDEST PUSH1 0x20 PUSH1 0x40 MLOAD DUP1 DUP4 SUB DUP2 PUSH1 0x0 DUP8 DUP1 EXTCODESIZE ISZERO DUP1 ISZERO PUSH2 0x1F8A JUMPI PUSH1 0x0 DUP1 REVERT JUMPDEST POP GAS CALL ISZERO DUP1 ISZERO PUSH2 0x1F9E JUMPI RETURNDATASIZE PUSH1 0x0 DUP1 RETURNDATACOPY RETURNDATASIZE PUSH1 0x0 REVERT JUMPDEST POP POP POP POP PUSH1 0x40 MLOAD RETURNDATASIZE PUSH1 0x1F NOT PUSH1 0x1F DUP3 ADD AND DUP3 ADD DUP1 PUSH1 0x40 MSTORE POP DUP2 ADD SWAP1 PUSH2 0x1FC2 SWAP2 SWAP1 PUSH2 0x29AE JUMP JUMPDEST POP PUSH1 0x67 SLOAD DUP13 SLOAD PUSH1 0x1 PUSH1 0x1 PUSH1 0xA0 SHL SUB SWAP2 DUP3 AND SWAP2 PUSH4 0x40C10F19 SWAP2 AND PUSH2 0x1FE5 DUP6 DUP6 PUSH2 0x18BE JUMP JUMPDEST PUSH1 0x40 MLOAD DUP4 PUSH4 0xFFFFFFFF AND PUSH1 0xE0 SHL DUP2 MSTORE PUSH1 0x4 ADD PUSH2 0x2002 SWAP3 SWAP2 SWAP1 PUSH2 0x2DD7 JUMP JUMPDEST PUSH1 0x20 PUSH1 0x40 MLOAD DUP1 DUP4 SUB DUP2 PUSH1 0x0 DUP8 DUP1 EXTCODESIZE ISZERO DUP1 ISZERO PUSH2 0x201C JUMPI PUSH1 0x0 DUP1 REVERT JUMPDEST POP GAS CALL ISZERO DUP1 ISZERO PUSH2 0x2030 JUMPI RETURNDATASIZE PUSH1 0x0 DUP1 RETURNDATACOPY RETURNDATASIZE PUSH1 0x0 REVERT JUMPDEST POP POP POP POP PUSH1 0x40 MLOAD RETURNDATASIZE PUSH1 0x1F NOT PUSH1 0x1F DUP3 ADD AND DUP3 ADD DUP1 PUSH1 0x40 MSTORE POP DUP2 ADD SWAP1 PUSH2 0x2054 SWAP2 SWAP1 PUSH2 0x29AE JUMP JUMPDEST POP POP JUMPDEST PUSH1 0x68 PUSH1 0x0 SWAP1 SLOAD SWAP1 PUSH2 0x100 EXP SWAP1 DIV PUSH1 0x1 PUSH1 0x1 PUSH1 0xA0 SHL SUB AND PUSH1 0x1 PUSH1 0x1 PUSH1 0xA0 SHL SUB AND PUSH4 0xD10C06A2 PUSH1 0x40 MLOAD DUP2 PUSH4 0xFFFFFFFF AND PUSH1 0xE0 SHL DUP2 MSTORE PUSH1 0x4 ADD PUSH1 0x20 PUSH1 0x40 MLOAD DUP1 DUP4 SUB DUP2 PUSH1 0x0 DUP8 DUP1 EXTCODESIZE ISZERO DUP1 ISZERO PUSH2 0x20A7 JUMPI PUSH1 0x0 DUP1 REVERT JUMPDEST POP GAS CALL ISZERO DUP1 ISZERO PUSH2 0x20BB JUMPI RETURNDATASIZE PUSH1 0x0 DUP1 RETURNDATACOPY RETURNDATASIZE PUSH1 0x0 REVERT JUMPDEST POP POP POP POP PUSH1 0x40 MLOAD RETURNDATASIZE PUSH1 0x1F NOT PUSH1 0x1F DUP3 ADD AND DUP3 ADD DUP1 PUSH1 0x40 MSTORE POP DUP2 ADD SWAP1 PUSH2 0x20DF SWAP2 SWAP1 PUSH2 0x29AE JUMP JUMPDEST POP PUSH1 0x3 DUP12 ADD DUP11 SWAP1 SSTORE PUSH1 0x7 DUP12 ADD DUP7 SWAP1 SSTORE PUSH1 0x8 DUP12 ADD DUP9 SWAP1 SSTORE PUSH2 0x2102 DUP10 PUSH1 0x6D PUSH1 0x6C PUSH2 0x22F7 JUMP JUMPDEST CALLER PUSH1 0x0 SWAP1 DUP2 MSTORE PUSH1 0x6F PUSH1 0x20 SWAP1 DUP2 MSTORE PUSH1 0x40 DUP1 DUP4 KECCAK256 PUSH1 0x6E SWAP1 SWAP3 MSTORE SWAP1 SWAP2 KECCAK256 PUSH2 0x2127 SWAP2 DUP12 SWAP2 PUSH2 0x22F7 JUMP JUMPDEST CALLER PUSH1 0x0 DUP2 DUP2 MSTORE PUSH1 0x70 PUSH1 0x20 SWAP1 DUP2 MSTORE PUSH1 0x40 DUP3 KECCAK256 DUP1 SLOAD PUSH1 0x1 DUP2 DUP2 ADD DUP4 SSTORE SWAP2 DUP5 MSTORE SWAP2 SWAP1 SWAP3 KECCAK256 ADD DUP12 SWAP1 SSTORE PUSH2 0x2159 SWAP2 PUSH2 0x589 SWAP1 PUSH2 0x112A JUMP JUMPDEST CALLER PUSH1 0x0 SWAP1 DUP2 MSTORE PUSH1 0x71 PUSH1 0x20 SWAP1 DUP2 MSTORE PUSH1 0x40 DUP1 DUP4 KECCAK256 DUP14 DUP5 MSTORE SWAP1 SWAP2 MSTORE SWAP1 KECCAK256 SSTORE POP PUSH1 0x1 SWAP3 POP POP POP SWAP9 SWAP8 POP POP POP POP POP POP POP POP JUMP JUMPDEST PUSH1 0x33 DUP1 SLOAD PUSH1 0x1 PUSH1 0x1 PUSH1 0xA0 SHL SUB DUP4 DUP2 AND PUSH1 0x1 PUSH1 0x1 PUSH1 0xA0 SHL SUB NOT DUP4 AND DUP2 OR SWAP1 SWAP4 SSTORE PUSH1 0x40 MLOAD SWAP2 AND SWAP2 SWAP1 DUP3 SWAP1 PUSH32 0x8BE0079C531659141344CD1FD0A4F28419497F9722A3DAAFE3B4186F6B6457E0 SWAP1 PUSH1 0x0 SWAP1 LOG3 POP POP JUMP JUMPDEST PUSH1 0x0 PUSH2 0x18B7 DUP3 DUP5 PUSH2 0x32E7 JUMP JUMPDEST PUSH1 0x0 PUSH2 0x18B7 DUP3 DUP5 PUSH2 0x32CF JUMP JUMPDEST PUSH2 0x2249 DUP5 PUSH4 0x23B872DD PUSH1 0xE0 SHL DUP6 DUP6 DUP6 PUSH1 0x40 MLOAD PUSH1 0x24 ADD PUSH2 0x2212 SWAP4 SWAP3 SWAP2 SWAP1 PUSH2 0x2DB3 JUMP JUMPDEST PUSH1 0x40 DUP1 MLOAD PUSH1 0x1F NOT DUP2 DUP5 SUB ADD DUP2 MSTORE SWAP2 SWAP1 MSTORE PUSH1 0x20 DUP2 ADD DUP1 MLOAD PUSH1 0x1 PUSH1 0x1 PUSH1 0xE0 SHL SUB AND PUSH1 0x1 PUSH1 0x1 PUSH1 0xE0 SHL SUB NOT SWAP1 SWAP4 AND SWAP3 SWAP1 SWAP3 OR SWAP1 SWAP2 MSTORE PUSH2 0x23D4 JUMP JUMPDEST POP POP POP POP JUMP JUMPDEST PUSH2 0x226E DUP4 PUSH4 0xA9059CBB PUSH1 0xE0 SHL DUP5 DUP5 PUSH1 0x40 MLOAD PUSH1 0x24 ADD PUSH2 0x2212 SWAP3 SWAP2 SWAP1 PUSH2 0x2DD7 JUMP JUMPDEST POP POP POP JUMP JUMPDEST PUSH1 0x0 SLOAD PUSH2 0x100 SWAP1 DIV PUSH1 0xFF AND DUP1 PUSH2 0x228C JUMPI POP PUSH1 0x0 SLOAD PUSH1 0xFF AND ISZERO JUMPDEST PUSH2 0x22A8 JUMPI PUSH1 0x40 MLOAD PUSH3 0x461BCD PUSH1 0xE5 SHL DUP2 MSTORE PUSH1 0x4 ADD PUSH2 0x5D9 SWAP1 PUSH2 0x2FD5 JUMP JUMPDEST PUSH1 0x0 SLOAD PUSH2 0x100 SWAP1 DIV PUSH1 0xFF AND ISZERO DUP1 ISZERO PUSH2 0x22D3 JUMPI PUSH1 0x0 DUP1 SLOAD PUSH1 0xFF NOT PUSH2 0xFF00 NOT SWAP1 SWAP2 AND PUSH2 0x100 OR AND PUSH1 0x1 OR SWAP1 SSTORE JUMPDEST PUSH2 0x22DB PUSH2 0x2463 JUMP JUMPDEST PUSH2 0x22E3 PUSH2 0x24D6 JUMP JUMPDEST DUP1 ISZERO PUSH2 0x165B JUMPI PUSH1 0x0 DUP1 SLOAD PUSH2 0xFF00 NOT AND SWAP1 SSTORE POP JUMP JUMPDEST PUSH1 0x0 DUP4 DUP2 MSTORE PUSH1 0x20 DUP4 SWAP1 MSTORE PUSH1 0x40 DUP2 KECCAK256 SLOAD DUP3 SLOAD SWAP1 SWAP2 SWAP1 DUP4 SWAP1 PUSH2 0x2318 SWAP1 PUSH1 0x1 PUSH2 0x18BE JUMP JUMPDEST DUP2 SLOAD DUP2 LT PUSH2 0x2336 JUMPI PUSH4 0x4E487B71 PUSH1 0xE0 SHL PUSH1 0x0 MSTORE PUSH1 0x32 PUSH1 0x4 MSTORE PUSH1 0x24 PUSH1 0x0 REVERT JUMPDEST SWAP1 PUSH1 0x0 MSTORE PUSH1 0x20 PUSH1 0x0 KECCAK256 ADD SLOAD SWAP1 POP DUP2 DUP5 PUSH1 0x0 DUP4 DUP2 MSTORE PUSH1 0x20 ADD SWAP1 DUP2 MSTORE PUSH1 0x20 ADD PUSH1 0x0 KECCAK256 DUP2 SWAP1 SSTORE POP DUP1 DUP4 DUP4 DUP2 SLOAD DUP2 LT PUSH2 0x237B JUMPI PUSH4 0x4E487B71 PUSH1 0xE0 SHL PUSH1 0x0 MSTORE PUSH1 0x32 PUSH1 0x4 MSTORE PUSH1 0x24 PUSH1 0x0 REVERT JUMPDEST PUSH1 0x0 SWAP2 DUP3 MSTORE PUSH1 0x20 DUP1 DUP4 KECCAK256 SWAP1 SWAP2 ADD SWAP3 SWAP1 SWAP3 SSTORE DUP7 DUP2 MSTORE SWAP1 DUP6 SWAP1 MSTORE PUSH1 0x40 DUP2 KECCAK256 SSTORE DUP3 SLOAD DUP4 SWAP1 DUP1 PUSH2 0x23B7 JUMPI PUSH4 0x4E487B71 PUSH1 0xE0 SHL PUSH1 0x0 MSTORE PUSH1 0x31 PUSH1 0x4 MSTORE PUSH1 0x24 PUSH1 0x0 REVERT JUMPDEST PUSH1 0x1 SWAP1 SUB DUP2 DUP2 SWAP1 PUSH1 0x0 MSTORE PUSH1 0x20 PUSH1 0x0 KECCAK256 ADD PUSH1 0x0 SWAP1 SSTORE SWAP1 SSTORE POP POP POP POP POP JUMP JUMPDEST PUSH1 0x0 PUSH2 0x2429 DUP3 PUSH1 0x40 MLOAD DUP1 PUSH1 0x40 ADD PUSH1 0x40 MSTORE DUP1 PUSH1 0x20 DUP2 MSTORE PUSH1 0x20 ADD PUSH32 0x5361666545524332303A206C6F772D6C6576656C2063616C6C206661696C6564 DUP2 MSTORE POP DUP6 PUSH1 0x1 PUSH1 0x1 PUSH1 0xA0 SHL SUB AND PUSH2 0x2546 SWAP1 SWAP3 SWAP2 SWAP1 PUSH4 0xFFFFFFFF AND JUMP JUMPDEST DUP1 MLOAD SWAP1 SWAP2 POP ISZERO PUSH2 0x226E JUMPI DUP1 DUP1 PUSH1 0x20 ADD SWAP1 MLOAD DUP2 ADD SWAP1 PUSH2 0x2447 SWAP2 SWAP1 PUSH2 0x29AE JUMP JUMPDEST PUSH2 0x226E JUMPI PUSH1 0x40 MLOAD PUSH3 0x461BCD PUSH1 0xE5 SHL DUP2 MSTORE PUSH1 0x4 ADD PUSH2 0x5D9 SWAP1 PUSH2 0x3165 JUMP JUMPDEST PUSH1 0x0 SLOAD PUSH2 0x100 SWAP1 DIV PUSH1 0xFF AND DUP1 PUSH2 0x247C JUMPI POP PUSH1 0x0 SLOAD PUSH1 0xFF AND ISZERO JUMPDEST PUSH2 0x2498 JUMPI PUSH1 0x40 MLOAD PUSH3 0x461BCD PUSH1 0xE5 SHL DUP2 MSTORE PUSH1 0x4 ADD PUSH2 0x5D9 SWAP1 PUSH2 0x2FD5 JUMP JUMPDEST PUSH1 0x0 SLOAD PUSH2 0x100 SWAP1 DIV PUSH1 0xFF AND ISZERO DUP1 ISZERO PUSH2 0x22E3 JUMPI PUSH1 0x0 DUP1 SLOAD PUSH1 0xFF NOT PUSH2 0xFF00 NOT SWAP1 SWAP2 AND PUSH2 0x100 OR AND PUSH1 0x1 OR SWAP1 SSTORE DUP1 ISZERO PUSH2 0x165B JUMPI PUSH1 0x0 DUP1 SLOAD PUSH2 0xFF00 NOT AND SWAP1 SSTORE POP JUMP JUMPDEST PUSH1 0x0 SLOAD PUSH2 0x100 SWAP1 DIV PUSH1 0xFF AND DUP1 PUSH2 0x24EF JUMPI POP PUSH1 0x0 SLOAD PUSH1 0xFF AND ISZERO JUMPDEST PUSH2 0x250B JUMPI PUSH1 0x40 MLOAD PUSH3 0x461BCD PUSH1 0xE5 SHL DUP2 MSTORE PUSH1 0x4 ADD PUSH2 0x5D9 SWAP1 PUSH2 0x2FD5 JUMP JUMPDEST PUSH1 0x0 SLOAD PUSH2 0x100 SWAP1 DIV PUSH1 0xFF AND ISZERO DUP1 ISZERO PUSH2 0x2536 JUMPI PUSH1 0x0 DUP1 SLOAD PUSH1 0xFF NOT PUSH2 0xFF00 NOT SWAP1 SWAP2 AND PUSH2 0x100 OR AND PUSH1 0x1 OR SWAP1 SSTORE JUMPDEST PUSH2 0x22E3 PUSH2 0x2541 PUSH2 0x18CA JUMP JUMPDEST PUSH2 0x2187 JUMP JUMPDEST PUSH1 0x60 PUSH2 0x2555 DUP5 DUP5 PUSH1 0x0 DUP6 PUSH2 0x255D JUMP JUMPDEST SWAP5 SWAP4 POP POP POP POP JUMP JUMPDEST PUSH1 0x60 DUP3 SELFBALANCE LT ISZERO PUSH2 0x257F JUMPI PUSH1 0x40 MLOAD PUSH3 0x461BCD PUSH1 0xE5 SHL DUP2 MSTORE PUSH1 0x4 ADD PUSH2 0x5D9 SWAP1 PUSH2 0x2F8F JUMP JUMPDEST PUSH2 0x2588 DUP6 PUSH2 0x261D JUMP JUMPDEST PUSH2 0x25A4 JUMPI PUSH1 0x40 MLOAD PUSH3 0x461BCD PUSH1 0xE5 SHL DUP2 MSTORE PUSH1 0x4 ADD PUSH2 0x5D9 SWAP1 PUSH2 0x30C5 JUMP JUMPDEST PUSH1 0x0 DUP1 DUP7 PUSH1 0x1 PUSH1 0x1 PUSH1 0xA0 SHL SUB AND DUP6 DUP8 PUSH1 0x40 MLOAD PUSH2 0x25C0 SWAP2 SWAP1 PUSH2 0x2D83 JUMP JUMPDEST PUSH1 0x0 PUSH1 0x40 MLOAD DUP1 DUP4 SUB DUP2 DUP6 DUP8 GAS CALL SWAP3 POP POP POP RETURNDATASIZE DUP1 PUSH1 0x0 DUP2 EQ PUSH2 0x25FD JUMPI PUSH1 0x40 MLOAD SWAP2 POP PUSH1 0x1F NOT PUSH1 0x3F RETURNDATASIZE ADD AND DUP3 ADD PUSH1 0x40 MSTORE RETURNDATASIZE DUP3 MSTORE RETURNDATASIZE PUSH1 0x0 PUSH1 0x20 DUP5 ADD RETURNDATACOPY PUSH2 0x2602 JUMP JUMPDEST PUSH1 0x60 SWAP2 POP JUMPDEST POP SWAP2 POP SWAP2 POP PUSH2 0x2612 DUP3 DUP3 DUP7 PUSH2 0x2623 JUMP JUMPDEST SWAP8 SWAP7 POP POP POP POP POP POP POP JUMP JUMPDEST EXTCODESIZE ISZERO ISZERO SWAP1 JUMP JUMPDEST PUSH1 0x60 DUP4 ISZERO PUSH2 0x2632 JUMPI POP DUP2 PUSH2 0x18B7 JUMP JUMPDEST DUP3 MLOAD ISZERO PUSH2 0x2642 JUMPI DUP3 MLOAD DUP1 DUP5 PUSH1 0x20 ADD REVERT JUMPDEST DUP2 PUSH1 0x40 MLOAD PUSH3 0x461BCD PUSH1 0xE5 SHL DUP2 MSTORE PUSH1 0x4 ADD PUSH2 0x5D9 SWAP2 SWAP1 PUSH2 0x2E78 JUMP JUMPDEST PUSH1 0x40 MLOAD DUP1 PUSH2 0x160 ADD PUSH1 0x40 MSTORE DUP1 PUSH1 0x0 PUSH1 0x1 PUSH1 0x1 PUSH1 0xA0 SHL SUB AND DUP2 MSTORE PUSH1 0x20 ADD PUSH1 0x0 DUP2 MSTORE PUSH1 0x20 ADD PUSH1 0x60 DUP2 MSTORE PUSH1 0x20 ADD PUSH1 0x0 DUP2 MSTORE PUSH1 0x20 ADD PUSH1 0x0 DUP2 MSTORE PUSH1 0x20 ADD PUSH1 0x0 DUP2 MSTORE PUSH1 0x20 ADD PUSH1 0x0 DUP2 MSTORE PUSH1 0x20 ADD PUSH1 0x0 DUP2 MSTORE PUSH1 0x20 ADD PUSH1 0x0 DUP2 MSTORE PUSH1 0x20 ADD PUSH1 0x0 DUP2 MSTORE PUSH1 0x20 ADD PUSH1 0x0 DUP2 MSTORE POP SWAP1 JUMP JUMPDEST DUP3 DUP1 SLOAD PUSH2 0x26CB SWAP1 PUSH2 0x3380 JUMP JUMPDEST SWAP1 PUSH1 0x0 MSTORE PUSH1 0x20 PUSH1 0x0 KECCAK256 SWAP1 PUSH1 0x1F ADD PUSH1 0x20 SWAP1 DIV DUP2 ADD SWAP3 DUP3 PUSH2 0x26ED JUMPI PUSH1 0x0 DUP6 SSTORE PUSH2 0x2733 JUMP JUMPDEST DUP3 PUSH1 0x1F LT PUSH2 0x2706 JUMPI DUP1 MLOAD PUSH1 0xFF NOT AND DUP4 DUP1 ADD OR DUP6 SSTORE PUSH2 0x2733 JUMP JUMPDEST DUP3 DUP1 ADD PUSH1 0x1 ADD DUP6 SSTORE DUP3 ISZERO PUSH2 0x2733 JUMPI SWAP2 DUP3 ADD JUMPDEST DUP3 DUP2 GT ISZERO PUSH2 0x2733 JUMPI DUP3 MLOAD DUP3 SSTORE SWAP2 PUSH1 0x20 ADD SWAP2 SWAP1 PUSH1 0x1 ADD SWAP1 PUSH2 0x2718 JUMP JUMPDEST POP PUSH2 0x273F SWAP3 SWAP2 POP PUSH2 0x2743 JUMP JUMPDEST POP SWAP1 JUMP JUMPDEST JUMPDEST DUP1 DUP3 GT ISZERO PUSH2 0x273F JUMPI PUSH1 0x0 DUP2 SSTORE PUSH1 0x1 ADD PUSH2 0x2744 JUMP JUMPDEST DUP1 CALLDATALOAD PUSH2 0xADE DUP2 PUSH2 0x3402 JUMP JUMPDEST PUSH1 0x0 DUP3 PUSH1 0x1F DUP4 ADD SLT PUSH2 0x2773 JUMPI DUP1 DUP2 REVERT JUMPDEST DUP2 CALLDATALOAD PUSH1 0x20 PUSH2 0x2788 PUSH2 0x2783 DUP4 PUSH2 0x32AB JUMP JUMPDEST PUSH2 0x3281 JUMP JUMPDEST DUP3 DUP2 MSTORE DUP2 DUP2 ADD SWAP1 DUP6 DUP4 ADD DUP6 JUMPDEST DUP6 DUP2 LT ISZERO PUSH2 0x27BD JUMPI PUSH2 0x27AB DUP10 DUP7 DUP5 CALLDATALOAD DUP12 ADD ADD PUSH2 0x282F JUMP JUMPDEST DUP5 MSTORE SWAP3 DUP5 ADD SWAP3 SWAP1 DUP5 ADD SWAP1 PUSH1 0x1 ADD PUSH2 0x2794 JUMP JUMPDEST POP SWAP1 SWAP8 SWAP7 POP POP POP POP POP POP POP JUMP JUMPDEST PUSH1 0x0 DUP3 PUSH1 0x1F DUP4 ADD SLT PUSH2 0x27DA JUMPI DUP1 DUP2 REVERT JUMPDEST DUP2 CALLDATALOAD PUSH1 0x20 PUSH2 0x27EA PUSH2 0x2783 DUP4 PUSH2 0x32AB JUMP JUMPDEST DUP3 DUP2 MSTORE DUP2 DUP2 ADD SWAP1 DUP6 DUP4 ADD DUP4 DUP6 MUL DUP8 ADD DUP5 ADD DUP9 LT ISZERO PUSH2 0x2806 JUMPI DUP6 DUP7 REVERT JUMPDEST DUP6 JUMPDEST DUP6 DUP2 LT ISZERO PUSH2 0x27BD JUMPI DUP2 CALLDATALOAD DUP5 MSTORE SWAP3 DUP5 ADD SWAP3 SWAP1 DUP5 ADD SWAP1 PUSH1 0x1 ADD PUSH2 0x2808 JUMP JUMPDEST DUP1 CALLDATALOAD PUSH2 0xADE DUP2 PUSH2 0x3417 JUMP JUMPDEST PUSH1 0x0 DUP3 PUSH1 0x1F DUP4 ADD SLT PUSH2 0x283F JUMPI DUP1 DUP2 REVERT JUMPDEST DUP2 CALLDATALOAD PUSH8 0xFFFFFFFFFFFFFFFF DUP2 GT ISZERO PUSH2 0x2859 JUMPI PUSH2 0x2859 PUSH2 0x33EC JUMP JUMPDEST PUSH2 0x286C PUSH1 0x1F DUP3 ADD PUSH1 0x1F NOT AND PUSH1 0x20 ADD PUSH2 0x3281 JUMP JUMPDEST DUP2 DUP2 MSTORE DUP5 PUSH1 0x20 DUP4 DUP7 ADD ADD GT ISZERO PUSH2 0x2880 JUMPI DUP3 DUP4 REVERT JUMPDEST DUP2 PUSH1 0x20 DUP6 ADD PUSH1 0x20 DUP4 ADD CALLDATACOPY SWAP1 DUP2 ADD PUSH1 0x20 ADD SWAP2 SWAP1 SWAP2 MSTORE SWAP3 SWAP2 POP POP JUMP JUMPDEST PUSH1 0x0 PUSH1 0x20 DUP3 DUP5 SUB SLT ISZERO PUSH2 0x28AB JUMPI DUP1 DUP2 REVERT JUMPDEST DUP2 CALLDATALOAD PUSH2 0x18B7 DUP2 PUSH2 0x3402 JUMP JUMPDEST PUSH1 0x0 DUP1 PUSH1 0x40 DUP4 DUP6 SUB SLT ISZERO PUSH2 0x28C8 JUMPI DUP1 DUP2 REVERT JUMPDEST DUP3 CALLDATALOAD PUSH2 0x28D3 DUP2 PUSH2 0x3402 JUMP JUMPDEST SWAP2 POP PUSH1 0x20 DUP4 ADD CALLDATALOAD PUSH2 0x28E3 DUP2 PUSH2 0x3417 JUMP JUMPDEST DUP1 SWAP2 POP POP SWAP3 POP SWAP3 SWAP1 POP JUMP JUMPDEST PUSH1 0x0 DUP1 PUSH1 0x0 DUP1 PUSH1 0x80 DUP6 DUP8 SUB SLT ISZERO PUSH2 0x2903 JUMPI DUP2 DUP3 REVERT JUMPDEST DUP5 CALLDATALOAD PUSH2 0x290E DUP2 PUSH2 0x3402 JUMP JUMPDEST SWAP4 POP PUSH1 0x20 DUP6 ADD CALLDATALOAD PUSH2 0x291E DUP2 PUSH2 0x3402 JUMP JUMPDEST SWAP3 POP PUSH1 0x40 DUP6 ADD CALLDATALOAD PUSH2 0x292E DUP2 PUSH2 0x3402 JUMP JUMPDEST SWAP2 POP PUSH1 0x60 DUP6 ADD CALLDATALOAD PUSH2 0x293E DUP2 PUSH2 0x3402 JUMP JUMPDEST SWAP4 SWAP7 SWAP3 SWAP6 POP SWAP1 SWAP4 POP POP JUMP JUMPDEST PUSH1 0x0 DUP1 PUSH1 0x40 DUP4 DUP6 SUB SLT ISZERO PUSH2 0x295B JUMPI DUP2 DUP3 REVERT JUMPDEST DUP3 CALLDATALOAD PUSH2 0x2966 DUP2 PUSH2 0x3402 JUMP JUMPDEST SWAP5 PUSH1 0x20 SWAP4 SWAP1 SWAP4 ADD CALLDATALOAD SWAP4 POP POP POP JUMP JUMPDEST PUSH1 0x0 DUP1 PUSH1 0x0 DUP1 PUSH1 0x80 DUP6 DUP8 SUB SLT ISZERO PUSH2 0x2989 JUMPI DUP4 DUP5 REVERT JUMPDEST DUP5 CALLDATALOAD PUSH2 0x2994 DUP2 PUSH2 0x3402 JUMP JUMPDEST SWAP7 PUSH1 0x20 DUP7 ADD CALLDATALOAD SWAP7 POP PUSH1 0x40 DUP7 ADD CALLDATALOAD SWAP6 PUSH1 0x60 ADD CALLDATALOAD SWAP5 POP SWAP3 POP POP POP JUMP JUMPDEST PUSH1 0x0 PUSH1 0x20 DUP3 DUP5 SUB SLT ISZERO PUSH2 0x29BF JUMPI DUP1 DUP2 REVERT JUMPDEST DUP2 MLOAD PUSH2 0x18B7 DUP2 PUSH2 0x3417 JUMP JUMPDEST PUSH1 0x0 DUP1 PUSH1 0x0 DUP1 PUSH1 0x0 DUP1 PUSH1 0xC0 DUP8 DUP10 SUB SLT ISZERO PUSH2 0x29E2 JUMPI DUP4 DUP5 REVERT JUMPDEST PUSH2 0x29EB DUP8 PUSH2 0x2824 JUMP JUMPDEST SWAP6 POP PUSH1 0x20 DUP8 ADD CALLDATALOAD PUSH8 0xFFFFFFFFFFFFFFFF DUP1 DUP3 GT ISZERO PUSH2 0x2A07 JUMPI DUP6 DUP7 REVERT JUMPDEST PUSH2 0x2A13 DUP11 DUP4 DUP12 ADD PUSH2 0x27CA JUMP JUMPDEST SWAP7 POP PUSH1 0x40 DUP10 ADD CALLDATALOAD SWAP2 POP DUP1 DUP3 GT ISZERO PUSH2 0x2A28 JUMPI DUP6 DUP7 REVERT JUMPDEST PUSH2 0x2A34 DUP11 DUP4 DUP12 ADD PUSH2 0x27CA JUMP JUMPDEST SWAP6 POP PUSH1 0x60 DUP10 ADD CALLDATALOAD SWAP2 POP DUP1 DUP3 GT ISZERO PUSH2 0x2A49 JUMPI DUP4 DUP5 REVERT JUMPDEST PUSH2 0x2A55 DUP11 DUP4 DUP12 ADD PUSH2 0x2763 JUMP JUMPDEST SWAP5 POP PUSH1 0x80 DUP10 ADD CALLDATALOAD SWAP2 POP DUP1 DUP3 GT ISZERO PUSH2 0x2A6A JUMPI DUP4 DUP5 REVERT JUMPDEST PUSH2 0x2A76 DUP11 DUP4 DUP12 ADD PUSH2 0x27CA JUMP JUMPDEST SWAP4 POP PUSH1 0xA0 DUP10 ADD CALLDATALOAD SWAP2 POP DUP1 DUP3 GT ISZERO PUSH2 0x2A8B JUMPI DUP3 DUP4 REVERT JUMPDEST POP PUSH2 0x2A98 DUP10 DUP3 DUP11 ADD PUSH2 0x2763 JUMP JUMPDEST SWAP2 POP POP SWAP3 SWAP6 POP SWAP3 SWAP6 POP SWAP3 SWAP6 JUMP JUMPDEST PUSH1 0x0 DUP1 PUSH1 0x0 DUP1 PUSH1 0x0 DUP1 PUSH1 0xC0 DUP8 DUP10 SUB SLT ISZERO PUSH2 0x2ABD JUMPI DUP4 DUP5 REVERT JUMPDEST DUP7 CALLDATALOAD PUSH2 0x2AC8 DUP2 PUSH2 0x3417 JUMP JUMPDEST SWAP6 POP PUSH1 0x20 DUP8 ADD CALLDATALOAD SWAP5 POP PUSH1 0x40 DUP8 ADD CALLDATALOAD SWAP4 POP PUSH1 0x60 DUP8 ADD CALLDATALOAD PUSH8 0xFFFFFFFFFFFFFFFF DUP1 DUP3 GT ISZERO PUSH2 0x2AF2 JUMPI DUP4 DUP5 REVERT JUMPDEST PUSH2 0x2AFE DUP11 DUP4 DUP12 ADD PUSH2 0x282F JUMP JUMPDEST SWAP5 POP PUSH1 0x80 DUP10 ADD CALLDATALOAD SWAP4 POP PUSH1 0xA0 DUP10 ADD CALLDATALOAD SWAP2 POP DUP1 DUP3 GT ISZERO PUSH2 0x2B1A JUMPI DUP3 DUP4 REVERT JUMPDEST POP PUSH2 0x2A98 DUP10 DUP3 DUP11 ADD PUSH2 0x282F JUMP JUMPDEST PUSH1 0x0 DUP1 PUSH1 0x0 DUP1 PUSH1 0x0 DUP1 PUSH1 0x0 PUSH1 0xE0 DUP9 DUP11 SUB SLT ISZERO PUSH2 0x2B41 JUMPI DUP5 DUP6 REVERT JUMPDEST DUP8 CALLDATALOAD PUSH2 0x2B4C DUP2 PUSH2 0x3417 JUMP JUMPDEST SWAP7 POP PUSH1 0x20 DUP9 ADD CALLDATALOAD SWAP6 POP PUSH1 0x40 DUP9 ADD CALLDATALOAD SWAP5 POP PUSH1 0x60 DUP9 ADD CALLDATALOAD PUSH8 0xFFFFFFFFFFFFFFFF DUP1 DUP3 GT ISZERO PUSH2 0x2B76 JUMPI DUP3 DUP4 REVERT JUMPDEST PUSH2 0x2B82 DUP12 DUP4 DUP13 ADD PUSH2 0x282F JUMP JUMPDEST SWAP6 POP PUSH1 0x80 DUP11 ADD CALLDATALOAD SWAP5 POP PUSH1 0xA0 DUP11 ADD CALLDATALOAD SWAP2 POP DUP1 DUP3 GT ISZERO PUSH2 0x2B9E JUMPI DUP3 DUP4 REVERT JUMPDEST POP PUSH2 0x2BAB DUP11 DUP3 DUP12 ADD PUSH2 0x282F JUMP JUMPDEST SWAP3 POP POP PUSH1 0xC0 DUP9 ADD CALLDATALOAD SWAP1 POP SWAP3 SWAP6 SWAP9 SWAP2 SWAP5 SWAP8 POP SWAP3 SWAP6 POP JUMP JUMPDEST PUSH1 0x0 DUP1 PUSH1 0x0 DUP1 PUSH1 0x0 DUP1 PUSH1 0x0 DUP1 PUSH1 0x0 PUSH2 0x120 DUP11 DUP13 SUB SLT ISZERO PUSH2 0x2BDF JUMPI DUP3 DUP4 REVERT JUMPDEST DUP10 CALLDATALOAD PUSH2 0x2BEA DUP2 PUSH2 0x3417 JUMP JUMPDEST SWAP9 POP PUSH1 0x20 DUP11 ADD CALLDATALOAD SWAP8 POP PUSH1 0x40 DUP11 ADD CALLDATALOAD SWAP7 POP PUSH1 0x60 DUP11 ADD CALLDATALOAD SWAP6 POP PUSH1 0x80 DUP11 ADD CALLDATALOAD SWAP5 POP PUSH1 0xA0 DUP11 ADD CALLDATALOAD PUSH8 0xFFFFFFFFFFFFFFFF DUP1 DUP3 GT ISZERO PUSH2 0x2C22 JUMPI DUP5 DUP6 REVERT JUMPDEST PUSH2 0x2C2E DUP14 DUP4 DUP15 ADD PUSH2 0x282F JUMP JUMPDEST SWAP6 POP PUSH1 0xC0 DUP13 ADD CALLDATALOAD SWAP5 POP PUSH1 0xE0 DUP13 ADD CALLDATALOAD SWAP4 POP PUSH2 0x100 DUP13 ADD CALLDATALOAD SWAP2 POP DUP1 DUP3 GT ISZERO PUSH2 0x2C52 JUMPI DUP3 DUP4 REVERT JUMPDEST POP PUSH2 0x2C5F DUP13 DUP3 DUP14 ADD PUSH2 0x282F JUMP JUMPDEST SWAP2 POP POP SWAP3 SWAP6 SWAP9 POP SWAP3 SWAP6 SWAP9 POP SWAP3 SWAP6 SWAP9 JUMP JUMPDEST PUSH1 0x0 PUSH1 0x20 DUP3 DUP5 SUB SLT ISZERO PUSH2 0x2C80 JUMPI DUP1 DUP2 REVERT JUMPDEST POP CALLDATALOAD SWAP2 SWAP1 POP JUMP JUMPDEST PUSH1 0x0 PUSH1 0x20 DUP3 DUP5 SUB SLT ISZERO PUSH2 0x2C98 JUMPI DUP1 DUP2 REVERT JUMPDEST POP MLOAD SWAP2 SWAP1 POP JUMP JUMPDEST PUSH1 0x0 DUP1 PUSH1 0x0 DUP1 PUSH1 0x0 DUP1 PUSH1 0x0 DUP1 PUSH1 0x0 DUP1 PUSH1 0x0 DUP1 PUSH2 0x180 DUP14 DUP16 SUB SLT ISZERO PUSH2 0x2CC1 JUMPI DUP6 DUP7 REVERT JUMPDEST DUP13 CALLDATALOAD SWAP12 POP PUSH2 0x2CD1 PUSH1 0x20 DUP15 ADD PUSH2 0x2758 JUMP JUMPDEST SWAP11 POP PUSH1 0x40 DUP14 ADD CALLDATALOAD SWAP10 POP PUSH8 0xFFFFFFFFFFFFFFFF PUSH1 0x60 DUP15 ADD CALLDATALOAD GT ISZERO PUSH2 0x2CF2 JUMPI DUP6 DUP7 REVERT JUMPDEST PUSH2 0x2D02 DUP15 PUSH1 0x60 DUP16 ADD CALLDATALOAD DUP16 ADD PUSH2 0x282F JUMP JUMPDEST SWAP12 SWAP15 SWAP11 SWAP14 POP SWAP9 SWAP12 PUSH1 0x80 DUP2 ADD CALLDATALOAD SWAP11 PUSH1 0xA0 DUP3 ADD CALLDATALOAD SWAP11 POP PUSH1 0xC0 DUP3 ADD CALLDATALOAD SWAP10 POP PUSH1 0xE0 DUP3 ADD CALLDATALOAD SWAP9 POP PUSH2 0x100 DUP3 ADD CALLDATALOAD SWAP8 POP PUSH2 0x120 DUP3 ADD CALLDATALOAD SWAP7 POP PUSH2 0x140 DUP3 ADD CALLDATALOAD SWAP6 POP PUSH2 0x160 SWAP1 SWAP2 ADD CALLDATALOAD SWAP4 POP SWAP2 POP POP JUMP JUMPDEST PUSH1 0x1 PUSH1 0x1 PUSH1 0xA0 SHL SUB AND SWAP1 MSTORE JUMP JUMPDEST PUSH1 0x0 DUP2 MLOAD DUP1 DUP5 MSTORE PUSH2 0x2D6F DUP2 PUSH1 0x20 DUP7 ADD PUSH1 0x20 DUP7 ADD PUSH2 0x333D JUMP JUMPDEST PUSH1 0x1F ADD PUSH1 0x1F NOT AND SWAP3 SWAP1 SWAP3 ADD PUSH1 0x20 ADD SWAP3 SWAP2 POP POP JUMP JUMPDEST PUSH1 0x0 DUP3 MLOAD PUSH2 0x2D95 DUP2 DUP5 PUSH1 0x20 DUP8 ADD PUSH2 0x333D JUMP JUMPDEST SWAP2 SWAP1 SWAP2 ADD SWAP3 SWAP2 POP POP JUMP JUMPDEST PUSH1 0x1 PUSH1 0x1 PUSH1 0xA0 SHL SUB SWAP2 SWAP1 SWAP2 AND DUP2 MSTORE PUSH1 0x20 ADD SWAP1 JUMP JUMPDEST PUSH1 0x1 PUSH1 0x1 PUSH1 0xA0 SHL SUB SWAP4 DUP5 AND DUP2 MSTORE SWAP2 SWAP1 SWAP3 AND PUSH1 0x20 DUP3 ADD MSTORE PUSH1 0x40 DUP2 ADD SWAP2 SWAP1 SWAP2 MSTORE PUSH1 0x60 ADD SWAP1 JUMP JUMPDEST PUSH1 0x1 PUSH1 0x1 PUSH1 0xA0 SHL SUB SWAP3 SWAP1 SWAP3 AND DUP3 MSTORE PUSH1 0x20 DUP3 ADD MSTORE PUSH1 0x40 ADD SWAP1 JUMP JUMPDEST PUSH1 0x20 DUP1 DUP3 MSTORE DUP3 MLOAD DUP3 DUP3 ADD DUP2 SWAP1 MSTORE PUSH1 0x0 SWAP2 SWAP1 DUP5 DUP3 ADD SWAP1 PUSH1 0x40 DUP6 ADD SWAP1 DUP5 JUMPDEST DUP2 DUP2 LT ISZERO PUSH2 0x2E28 JUMPI DUP4 MLOAD DUP4 MSTORE SWAP3 DUP5 ADD SWAP3 SWAP2 DUP5 ADD SWAP2 PUSH1 0x1 ADD PUSH2 0x2E0C JUMP JUMPDEST POP SWAP1 SWAP7 SWAP6 POP POP POP POP POP POP JUMP JUMPDEST SWAP1 ISZERO ISZERO DUP2 MSTORE PUSH1 0x20 ADD SWAP1 JUMP JUMPDEST PUSH1 0x0 DUP7 ISZERO ISZERO DUP3 MSTORE DUP6 PUSH1 0x20 DUP4 ADD MSTORE DUP5 PUSH1 0x40 DUP4 ADD MSTORE PUSH1 0xA0 PUSH1 0x60 DUP4 ADD MSTORE PUSH2 0x2E66 PUSH1 0xA0 DUP4 ADD DUP6 PUSH2 0x2D57 JUMP JUMPDEST DUP3 DUP2 SUB PUSH1 0x80 DUP5 ADD MSTORE PUSH2 0xB91 DUP2 DUP6 PUSH2 0x2D57 JUMP JUMPDEST PUSH1 0x0 PUSH1 0x20 DUP3 MSTORE PUSH2 0x18B7 PUSH1 0x20 DUP4 ADD DUP5 PUSH2 0x2D57 JUMP JUMPDEST PUSH1 0x20 DUP1 DUP3 MSTORE PUSH1 0x14 SWAP1 DUP3 ADD MSTORE PUSH20 0x1BDC99195C88191BD95CC81B9BDD08195E1A5CDD PUSH1 0x62 SHL PUSH1 0x40 DUP3 ADD MSTORE PUSH1 0x60 ADD SWAP1 JUMP JUMPDEST PUSH1 0x20 DUP1 DUP3 MSTORE PUSH1 0xE SWAP1 DUP3 ADD MSTORE PUSH14 0x1B585C99DA5B881B9BC819DBDBD9 PUSH1 0x92 SHL PUSH1 0x40 DUP3 ADD MSTORE PUSH1 0x60 ADD SWAP1 JUMP JUMPDEST PUSH1 0x20 DUP1 DUP3 MSTORE PUSH1 0x26 SWAP1 DUP3 ADD MSTORE PUSH32 0x4F776E61626C653A206E6577206F776E657220697320746865207A65726F2061 PUSH1 0x40 DUP3 ADD MSTORE PUSH6 0x646472657373 PUSH1 0xD0 SHL PUSH1 0x60 DUP3 ADD MSTORE PUSH1 0x80 ADD SWAP1 JUMP JUMPDEST PUSH1 0x20 DUP1 DUP3 MSTORE PUSH1 0xA SWAP1 DUP3 ADD MSTORE PUSH10 0x37B930B1B6329032B939 PUSH1 0xB1 SHL PUSH1 0x40 DUP3 ADD MSTORE PUSH1 0x60 ADD SWAP1 JUMP JUMPDEST PUSH1 0x20 DUP1 DUP3 MSTORE PUSH1 0x24 SWAP1 DUP3 ADD MSTORE PUSH32 0x6578656375746F723A2063616C6C6572206973206E6F74207468652065786563 PUSH1 0x40 DUP3 ADD MSTORE PUSH4 0x3ABA37B9 PUSH1 0xE1 SHL PUSH1 0x60 DUP3 ADD MSTORE PUSH1 0x80 ADD SWAP1 JUMP JUMPDEST PUSH1 0x20 DUP1 DUP3 MSTORE PUSH1 0x26 SWAP1 DUP3 ADD MSTORE PUSH32 0x416464726573733A20696E73756666696369656E742062616C616E636520666F PUSH1 0x40 DUP3 ADD MSTORE PUSH6 0x1C8818D85B1B PUSH1 0xD2 SHL PUSH1 0x60 DUP3 ADD MSTORE PUSH1 0x80 ADD SWAP1 JUMP JUMPDEST PUSH1 0x20 DUP1 DUP3 MSTORE PUSH1 0x2E SWAP1 DUP3 ADD MSTORE PUSH32 0x496E697469616C697A61626C653A20636F6E747261637420697320616C726561 PUSH1 0x40 DUP3 ADD MSTORE PUSH14 0x191E481A5B9A5D1A585B1A5E9959 PUSH1 0x92 SHL PUSH1 0x60 DUP3 ADD MSTORE PUSH1 0x80 ADD SWAP1 JUMP JUMPDEST PUSH1 0x20 DUP1 DUP3 MSTORE PUSH1 0x23 SWAP1 DUP3 ADD MSTORE PUSH32 0x546865207472616E73616374696F6E20616D6F756E7420697320746F6F20736D PUSH1 0x40 DUP3 ADD MSTORE PUSH3 0x185B1B PUSH1 0xEA SHL PUSH1 0x60 DUP3 ADD MSTORE PUSH1 0x80 ADD SWAP1 JUMP JUMPDEST PUSH1 0x20 DUP1 DUP3 MSTORE PUSH1 0x10 SWAP1 DUP3 ADD MSTORE PUSH16 0x155CD95C881A5CC818985B9ADC9D5C1D PUSH1 0x82 SHL PUSH1 0x40 DUP3 ADD MSTORE PUSH1 0x60 ADD SWAP1 JUMP JUMPDEST PUSH1 0x20 DUP1 DUP3 MSTORE DUP2 DUP2 ADD MSTORE PUSH32 0x4F776E61626C653A2063616C6C6572206973206E6F7420746865206F776E6572 PUSH1 0x40 DUP3 ADD MSTORE PUSH1 0x60 ADD SWAP1 JUMP JUMPDEST PUSH1 0x20 DUP1 DUP3 MSTORE PUSH1 0x1D SWAP1 DUP3 ADD MSTORE PUSH32 0x416464726573733A2063616C6C20746F206E6F6E2D636F6E7472616374000000 PUSH1 0x40 DUP3 ADD MSTORE PUSH1 0x60 ADD SWAP1 JUMP JUMPDEST PUSH1 0x20 DUP1 DUP3 MSTORE PUSH1 0xA SWAP1 DUP3 ADD MSTORE PUSH10 0x3632B733BA341032B939 PUSH1 0xB1 SHL PUSH1 0x40 DUP3 ADD MSTORE PUSH1 0x60 ADD SWAP1 JUMP JUMPDEST PUSH1 0x20 DUP1 DUP3 MSTORE PUSH1 0x8 SWAP1 DUP3 ADD MSTORE PUSH8 0x3AB9B2B91032B939 PUSH1 0xC1 SHL PUSH1 0x40 DUP3 ADD MSTORE PUSH1 0x60 ADD SWAP1 JUMP JUMPDEST PUSH1 0x20 DUP1 DUP3 MSTORE PUSH1 0x9 SWAP1 DUP3 ADD MSTORE PUSH9 0x39BA30BA329032B939 PUSH1 0xB9 SHL PUSH1 0x40 DUP3 ADD MSTORE PUSH1 0x60 ADD SWAP1 JUMP JUMPDEST PUSH1 0x20 DUP1 DUP3 MSTORE PUSH1 0x2A SWAP1 DUP3 ADD MSTORE PUSH32 0x5361666545524332303A204552433230206F7065726174696F6E20646964206E PUSH1 0x40 DUP3 ADD MSTORE PUSH10 0x1BDD081CDD58D8D95959 PUSH1 0xB2 SHL PUSH1 0x60 DUP3 ADD MSTORE PUSH1 0x80 ADD SWAP1 JUMP JUMPDEST PUSH1 0x20 DUP1 DUP3 MSTORE PUSH1 0xB SWAP1 DUP3 ADD MSTORE PUSH11 0x185C9C881B9BC819DBDBD9 PUSH1 0xAA SHL PUSH1 0x40 DUP3 ADD MSTORE PUSH1 0x60 ADD SWAP1 JUMP JUMPDEST PUSH1 0x0 PUSH1 0x20 DUP3 MSTORE PUSH2 0x31E8 PUSH1 0x20 DUP4 ADD DUP5 MLOAD PUSH2 0x2D4A JUMP JUMPDEST PUSH1 0x20 DUP4 ADD MLOAD PUSH1 0x40 DUP4 ADD MSTORE PUSH1 0x40 DUP4 ADD MLOAD PUSH2 0x160 DUP1 PUSH1 0x60 DUP6 ADD MSTORE PUSH2 0x320E PUSH2 0x180 DUP6 ADD DUP4 PUSH2 0x2D57 JUMP JUMPDEST SWAP2 POP PUSH1 0x60 DUP6 ADD MLOAD PUSH1 0x80 DUP6 ADD MSTORE PUSH1 0x80 DUP6 ADD MLOAD PUSH1 0xA0 DUP6 ADD MSTORE PUSH1 0xA0 DUP6 ADD MLOAD PUSH1 0xC0 DUP6 ADD MSTORE PUSH1 0xC0 DUP6 ADD MLOAD PUSH1 0xE0 DUP6 ADD MSTORE PUSH1 0xE0 DUP6 ADD MLOAD PUSH2 0x100 DUP2 DUP2 DUP8 ADD MSTORE DUP1 DUP8 ADD MLOAD SWAP2 POP POP PUSH2 0x120 DUP2 DUP2 DUP8 ADD MSTORE DUP1 DUP8 ADD MLOAD SWAP2 POP POP PUSH2 0x140 DUP2 DUP2 DUP8 ADD MSTORE DUP1 DUP8 ADD MLOAD DUP4 DUP8 ADD MSTORE POP POP POP DUP1 SWAP2 POP POP SWAP3 SWAP2 POP POP JUMP JUMPDEST SWAP1 DUP2 MSTORE PUSH1 0x20 ADD SWAP1 JUMP JUMPDEST PUSH1 0x40 MLOAD DUP2 DUP2 ADD PUSH8 0xFFFFFFFFFFFFFFFF DUP2 GT DUP3 DUP3 LT OR ISZERO PUSH2 0x32A3 JUMPI PUSH2 0x32A3 PUSH2 0x33EC JUMP JUMPDEST PUSH1 0x40 MSTORE SWAP2 SWAP1 POP JUMP JUMPDEST PUSH1 0x0 PUSH8 0xFFFFFFFFFFFFFFFF DUP3 GT ISZERO PUSH2 0x32C5 JUMPI PUSH2 0x32C5 PUSH2 0x33EC JUMP JUMPDEST POP PUSH1 0x20 SWAP1 DUP2 MUL ADD SWAP1 JUMP JUMPDEST PUSH1 0x0 DUP3 NOT DUP3 GT ISZERO PUSH2 0x32E2 JUMPI PUSH2 0x32E2 PUSH2 0x33D6 JUMP JUMPDEST POP ADD SWAP1 JUMP JUMPDEST PUSH1 0x0 DUP3 PUSH2 0x3302 JUMPI PUSH4 0x4E487B71 PUSH1 0xE0 SHL DUP2 MSTORE PUSH1 0x12 PUSH1 0x4 MSTORE PUSH1 0x24 DUP2 REVERT JUMPDEST POP DIV SWAP1 JUMP JUMPDEST PUSH1 0x0 DUP2 PUSH1 0x0 NOT DIV DUP4 GT DUP3 ISZERO ISZERO AND ISZERO PUSH2 0x3321 JUMPI PUSH2 0x3321 PUSH2 0x33D6 JUMP JUMPDEST POP MUL SWAP1 JUMP JUMPDEST PUSH1 0x0 DUP3 DUP3 LT ISZERO PUSH2 0x3338 JUMPI PUSH2 0x3338 PUSH2 0x33D6 JUMP JUMPDEST POP SUB SWAP1 JUMP JUMPDEST PUSH1 0x0 JUMPDEST DUP4 DUP2 LT ISZERO PUSH2 0x3358 JUMPI DUP2 DUP2 ADD MLOAD DUP4 DUP3 ADD MSTORE PUSH1 0x20 ADD PUSH2 0x3340 JUMP JUMPDEST DUP4 DUP2 GT ISZERO PUSH2 0x2249 JUMPI POP POP PUSH1 0x0 SWAP2 ADD MSTORE JUMP JUMPDEST PUSH1 0x0 DUP2 PUSH2 0x3378 JUMPI PUSH2 0x3378 PUSH2 0x33D6 JUMP JUMPDEST POP PUSH1 0x0 NOT ADD SWAP1 JUMP JUMPDEST PUSH1 0x2 DUP2 DIV PUSH1 0x1 DUP3 AND DUP1 PUSH2 0x3394 JUMPI PUSH1 0x7F DUP3 AND SWAP2 POP JUMPDEST PUSH1 0x20 DUP3 LT DUP2 EQ ISZERO PUSH2 0x33B5 JUMPI PUSH4 0x4E487B71 PUSH1 0xE0 SHL PUSH1 0x0 MSTORE PUSH1 0x22 PUSH1 0x4 MSTORE PUSH1 0x24 PUSH1 0x0 REVERT JUMPDEST POP SWAP2 SWAP1 POP JUMP JUMPDEST PUSH1 0x0 PUSH1 0x0 NOT DUP3 EQ ISZERO PUSH2 0x33CF JUMPI PUSH2 0x33CF PUSH2 0x33D6 JUMP JUMPDEST POP PUSH1 0x1 ADD SWAP1 JUMP JUMPDEST PUSH4 0x4E487B71 PUSH1 0xE0 SHL PUSH1 0x0 MSTORE PUSH1 0x11 PUSH1 0x4 MSTORE PUSH1 0x24 PUSH1 0x0 REVERT JUMPDEST PUSH4 0x4E487B71 PUSH1 0xE0 SHL PUSH1 0x0 MSTORE PUSH1 0x41 PUSH1 0x4 MSTORE PUSH1 0x24 PUSH1 0x0 REVERT JUMPDEST PUSH1 0x1 PUSH1 0x1 PUSH1 0xA0 SHL SUB DUP2 AND DUP2 EQ PUSH2 0x165B JUMPI PUSH1 0x0 DUP1 REVERT JUMPDEST DUP1 ISZERO ISZERO DUP2 EQ PUSH2 0x165B JUMPI PUSH1 0x0 DUP1 REVERT INVALID LOG2 PUSH5 0x6970667358 0x22 SLT KECCAK256 0xF PUSH13 0x9C18D1E8F8D46CC14320893C13 0xC4 SWAP3 MULMOD 0xD5 BYTE 0xBF JUMP 0x2F PUSH17 0xCB2AD4B627E9AA8E64736F6C6343000800 STOP CALLER "
				},
				"gasEstimates": {
					"creation": {
						"codeDepositCost": "2680600",
						"executionCost": "2907",
						"totalCost": "2683507"
					},
					"external": {
						"OrderIndex()": "1094",
						"PRECISION()": "1073",
						"adjustPosition(bool,uint256,uint256,string,uint256,bytes,uint256)": "infinite",
						"closePosition(bool,uint256,uint256,string,uint256,bytes)": "infinite",
						"executor(address)": "1370",
						"feePercent()": "1074",
						"forcedLiquidation(bool,uint256,uint256,string,uint256,bytes)": "infinite",
						"helperLogic()": "1183",
						"initialize(address,address,address,address)": "infinite",
						"liquidation(bool,uint256[],uint256[],string[],uint256[],bytes[])": "infinite",
						"minVal()": "1139",
						"myCloseOrderIdList(address,uint256)": "2226",
						"myCloseOrderIdListLength(address)": "1331",
						"myCloseOrderIdList_index(address,uint256)": "1428",
						"myOpenOrderIdList(address,uint256)": "2248",
						"myOpenOrderIdListLength(address)": "1309",
						"myOpenOrderIdList_index(address,uint256)": "1406",
						"openOrderIdList(uint256)": "2065",
						"openOrderIdList_index(uint256)": "1261",
						"openPosition(bool,uint256,uint256,uint256,uint256,string,uint256,uint256,bytes)": "infinite",
						"oracle()": "1181",
						"orderInfo(uint256)": "infinite",
						"owner()": "1138",
						"pagination(address,uint256,uint256,uint256)": "infinite",
						"renounceOwnership()": "23552",
						"setExecutor(address,bool)": "infinite",
						"setFeePercent(uint256)": "21338",
						"setOrderInfo(uint256,address,uint256,string,uint256,uint256,uint256,uint256,uint256,uint256,uint256,uint256)": "infinite",
						"setSigner(address)": "22276",
						"signer()": "1116",
						"transferOwnership(address)": "infinite",
						"usc()": "1138"
					},
					"internal": {
						"_closePosition(bool,struct mirrorseaMain.OrderInfo storage pointer,uint256,uint256,uint256,string memory,uint256,bytes memory)": "infinite",
						"_isSolvent(uint256,uint256,uint256)": "infinite",
						"cutListItem(uint256,mapping(uint256 => uint256),uint256[] storage pointer)": "75481"
					}
				},
				"methodIdentifiers": {
					"OrderIndex()": "f7ab69fd",
					"PRECISION()": "aaf5eb68",
					"adjustPosition(bool,uint256,uint256,string,uint256,bytes,uint256)": "a8ecb028",
					"closePosition(bool,uint256,uint256,string,uint256,bytes)": "6e812437",
					"executor(address)": "48c7e528",
					"feePercent()": "7fd6f15c",
					"forcedLiquidation(bool,uint256,uint256,string,uint256,bytes)": "a0ad12e2",
					"helperLogic()": "1e64610c",
					"initialize(address,address,address,address)": "f8c8765e",
					"liquidation(bool,uint256[],uint256[],string[],uint256[],bytes[])": "4b989ce3",
					"minVal()": "f14053ad",
					"myCloseOrderIdList(address,uint256)": "ec4c4f34",
					"myCloseOrderIdListLength(address)": "aecf77b1",
					"myCloseOrderIdList_index(address,uint256)": "f0c765e4",
					"myOpenOrderIdList(address,uint256)": "c2ec527d",
					"myOpenOrderIdListLength(address)": "e4e95520",
					"myOpenOrderIdList_index(address,uint256)": "7be3a1a1",
					"openOrderIdList(uint256)": "0f58d242",
					"openOrderIdList_index(uint256)": "43b1f3cb",
					"openPosition(bool,uint256,uint256,uint256,uint256,string,uint256,uint256,bytes)": "db4a5aa9",
					"oracle()": "7dc0d1d0",
					"orderInfo(uint256)": "6ab34a4a",
					"owner()": "8da5cb5b",
					"pagination(address,uint256,uint256,uint256)": "080270a8",
					"renounceOwnership()": "715018a6",
					"setExecutor(address,bool)": "1e1bff3f",
					"setFeePercent(uint256)": "7ce3489b",
					"setOrderInfo(uint256,address,uint256,string,uint256,uint256,uint256,uint256,uint256,uint256,uint256,uint256)": "fc234d06",
					"setSigner(address)": "6c19e783",
					"signer()": "238ac933",
					"transferOwnership(address)": "f2fde38b",
					"usc()": "3011d3d5"
				}
			},
			"storageLayout": {
				"storage": [
					{
						"astId": 130,
						"contract": "contracts/mirrorseaMain.sol:mirrorseaMain",
						"label": "_initialized",
						"offset": 0,
						"slot": "0",
						"type": "t_bool"
					},
					{
						"astId": 133,
						"contract": "contracts/mirrorseaMain.sol:mirrorseaMain",
						"label": "_initializing",
						"offset": 1,
						"slot": "0",
						"type": "t_bool"
					},
					{
						"astId": 760,
						"contract": "contracts/mirrorseaMain.sol:mirrorseaMain",
						"label": "__gap",
						"offset": 0,
						"slot": "1",
						"type": "t_array(t_uint256)50_storage"
					},
					{
						"astId": 10,
						"contract": "contracts/mirrorseaMain.sol:mirrorseaMain",
						"label": "_owner",
						"offset": 0,
						"slot": "51",
						"type": "t_address"
					},
					{
						"astId": 124,
						"contract": "contracts/mirrorseaMain.sol:mirrorseaMain",
						"label": "__gap",
						"offset": 0,
						"slot": "52",
						"type": "t_array(t_uint256)49_storage"
					},
					{
						"astId": 1132,
						"contract": "contracts/mirrorseaMain.sol:mirrorseaMain",
						"label": "executor",
						"offset": 0,
						"slot": "101",
						"type": "t_mapping(t_address,t_bool)"
					},
					{
						"astId": 1134,
						"contract": "contracts/mirrorseaMain.sol:mirrorseaMain",
						"label": "signer",
						"offset": 0,
						"slot": "102",
						"type": "t_address"
					},
					{
						"astId": 1137,
						"contract": "contracts/mirrorseaMain.sol:mirrorseaMain",
						"label": "usc",
						"offset": 0,
						"slot": "103",
						"type": "t_contract(IERC20Upgradeable)248"
					},
					{
						"astId": 1140,
						"contract": "contracts/mirrorseaMain.sol:mirrorseaMain",
						"label": "helperLogic",
						"offset": 0,
						"slot": "104",
						"type": "t_contract(IhelperLogic)1086"
					},
					{
						"astId": 1143,
						"contract": "contracts/mirrorseaMain.sol:mirrorseaMain",
						"label": "oracle",
						"offset": 0,
						"slot": "105",
						"type": "t_contract(IOracle)1102"
					},
					{
						"astId": 1148,
						"contract": "contracts/mirrorseaMain.sol:mirrorseaMain",
						"label": "_orderInfo",
						"offset": 0,
						"slot": "106",
						"type": "t_mapping(t_uint256,t_struct(OrderInfo)1208_storage)"
					},
					{
						"astId": 1150,
						"contract": "contracts/mirrorseaMain.sol:mirrorseaMain",
						"label": "OrderIndex",
						"offset": 0,
						"slot": "107",
						"type": "t_uint256"
					},
					{
						"astId": 1153,
						"contract": "contracts/mirrorseaMain.sol:mirrorseaMain",
						"label": "openOrderIdList",
						"offset": 0,
						"slot": "108",
						"type": "t_array(t_uint256)dyn_storage"
					},
					{
						"astId": 1157,
						"contract": "contracts/mirrorseaMain.sol:mirrorseaMain",
						"label": "openOrderIdList_index",
						"offset": 0,
						"slot": "109",
						"type": "t_mapping(t_uint256,t_uint256)"
					},
					{
						"astId": 1162,
						"contract": "contracts/mirrorseaMain.sol:mirrorseaMain",
						"label": "myOpenOrderIdList",
						"offset": 0,
						"slot": "110",
						"type": "t_mapping(t_address,t_array(t_uint256)dyn_storage)"
					},
					{
						"astId": 1168,
						"contract": "contracts/mirrorseaMain.sol:mirrorseaMain",
						"label": "myOpenOrderIdList_index",
						"offset": 0,
						"slot": "111",
						"type": "t_mapping(t_address,t_mapping(t_uint256,t_uint256))"
					},
					{
						"astId": 1173,
						"contract": "contracts/mirrorseaMain.sol:mirrorseaMain",
						"label": "myCloseOrderIdList",
						"offset": 0,
						"slot": "112",
						"type": "t_mapping(t_address,t_array(t_uint256)dyn_storage)"
					},
					{
						"astId": 1179,
						"contract": "contracts/mirrorseaMain.sol:mirrorseaMain",
						"label": "myCloseOrderIdList_index",
						"offset": 0,
						"slot": "113",
						"type": "t_mapping(t_address,t_mapping(t_uint256,t_uint256))"
					},
					{
						"astId": 1181,
						"contract": "contracts/mirrorseaMain.sol:mirrorseaMain",
						"label": "feePercent",
						"offset": 0,
						"slot": "114",
						"type": "t_uint256"
					},
					{
						"astId": 1183,
						"contract": "contracts/mirrorseaMain.sol:mirrorseaMain",
						"label": "PRECISION",
						"offset": 0,
						"slot": "115",
						"type": "t_uint256"
					},
					{
						"astId": 1185,
						"contract": "contracts/mirrorseaMain.sol:mirrorseaMain",
						"label": "minVal",
						"offset": 0,
						"slot": "116",
						"type": "t_uint256"
					}
				],
				"types": {
					"t_address": {
						"encoding": "inplace",
						"label": "address",
						"numberOfBytes": "20"
					},
					"t_array(t_uint256)49_storage": {
						"base": "t_uint256",
						"encoding": "inplace",
						"label": "uint256[49]",
						"numberOfBytes": "1568"
					},
					"t_array(t_uint256)50_storage": {
						"base": "t_uint256",
						"encoding": "inplace",
						"label": "uint256[50]",
						"numberOfBytes": "1600"
					},
					"t_array(t_uint256)dyn_storage": {
						"base": "t_uint256",
						"encoding": "dynamic_array",
						"label": "uint256[]",
						"numberOfBytes": "32"
					},
					"t_bool": {
						"encoding": "inplace",
						"label": "bool",
						"numberOfBytes": "1"
					},
					"t_contract(IERC20Upgradeable)248": {
						"encoding": "inplace",
						"label": "contract IERC20Upgradeable",
						"numberOfBytes": "20"
					},
					"t_contract(IOracle)1102": {
						"encoding": "inplace",
						"label": "contract IOracle",
						"numberOfBytes": "20"
					},
					"t_contract(IhelperLogic)1086": {
						"encoding": "inplace",
						"label": "contract IhelperLogic",
						"numberOfBytes": "20"
					},
					"t_mapping(t_address,t_array(t_uint256)dyn_storage)": {
						"encoding": "mapping",
						"key": "t_address",
						"label": "mapping(address => uint256[])",
						"numberOfBytes": "32",
						"value": "t_array(t_uint256)dyn_storage"
					},
					"t_mapping(t_address,t_bool)": {
						"encoding": "mapping",
						"key": "t_address",
						"label": "mapping(address => bool)",
						"numberOfBytes": "32",
						"value": "t_bool"
					},
					"t_mapping(t_address,t_mapping(t_uint256,t_uint256))": {
						"encoding": "mapping",
						"key": "t_address",
						"label": "mapping(address => mapping(uint256 => uint256))",
						"numberOfBytes": "32",
						"value": "t_mapping(t_uint256,t_uint256)"
					},
					"t_mapping(t_uint256,t_struct(OrderInfo)1208_storage)": {
						"encoding": "mapping",
						"key": "t_uint256",
						"label": "mapping(uint256 => struct mirrorseaMain.OrderInfo)",
						"numberOfBytes": "32",
						"value": "t_struct(OrderInfo)1208_storage"
					},
					"t_mapping(t_uint256,t_uint256)": {
						"encoding": "mapping",
						"key": "t_uint256",
						"label": "mapping(uint256 => uint256)",
						"numberOfBytes": "32",
						"value": "t_uint256"
					},
					"t_string_storage": {
						"encoding": "bytes",
						"label": "string",
						"numberOfBytes": "32"
					},
					"t_struct(OrderInfo)1208_storage": {
						"encoding": "inplace",
						"label": "struct mirrorseaMain.OrderInfo",
						"members": [
							{
								"astId": 1187,
								"contract": "contracts/mirrorseaMain.sol:mirrorseaMain",
								"label": "user",
								"offset": 0,
								"slot": "0",
								"type": "t_address"
							},
							{
								"astId": 1189,
								"contract": "contracts/mirrorseaMain.sol:mirrorseaMain",
								"label": "_type",
								"offset": 0,
								"slot": "1",
								"type": "t_uint256"
							},
							{
								"astId": 1191,
								"contract": "contracts/mirrorseaMain.sol:mirrorseaMain",
								"label": "symbols",
								"offset": 0,
								"slot": "2",
								"type": "t_string_storage"
							},
							{
								"astId": 1193,
								"contract": "contracts/mirrorseaMain.sol:mirrorseaMain",
								"label": "state",
								"offset": 0,
								"slot": "3",
								"type": "t_uint256"
							},
							{
								"astId": 1195,
								"contract": "contracts/mirrorseaMain.sol:mirrorseaMain",
								"label": "direction",
								"offset": 0,
								"slot": "4",
								"type": "t_uint256"
							},
							{
								"astId": 1197,
								"contract": "contracts/mirrorseaMain.sol:mirrorseaMain",
								"label": "openPrice18",
								"offset": 0,
								"slot": "5",
								"type": "t_uint256"
							},
							{
								"astId": 1199,
								"contract": "contracts/mirrorseaMain.sol:mirrorseaMain",
								"label": "openTime",
								"offset": 0,
								"slot": "6",
								"type": "t_uint256"
							},
							{
								"astId": 1201,
								"contract": "contracts/mirrorseaMain.sol:mirrorseaMain",
								"label": "closePrice18",
								"offset": 0,
								"slot": "7",
								"type": "t_uint256"
							},
							{
								"astId": 1203,
								"contract": "contracts/mirrorseaMain.sol:mirrorseaMain",
								"label": "closeTime",
								"offset": 0,
								"slot": "8",
								"type": "t_uint256"
							},
							{
								"astId": 1205,
								"contract": "contracts/mirrorseaMain.sol:mirrorseaMain",
								"label": "amt",
								"offset": 0,
								"slot": "9",
								"type": "t_uint256"
							},
							{
								"astId": 1207,
								"contract": "contracts/mirrorseaMain.sol:mirrorseaMain",
								"label": "margin",
								"offset": 0,
								"slot": "10",
								"type": "t_uint256"
							}
						],
						"numberOfBytes": "352"
					},
					"t_uint256": {
						"encoding": "inplace",
						"label": "uint256",
						"numberOfBytes": "32"
					}
				}
			},
			"userdoc": {
				"kind": "user",
				"methods": {},
				"version": 1
			}
		}
	}
}