{
	"@boringcrypto/boring-solidity/contracts/ERC20.sol": {
		"ERC20WithSupply": {
			"abi": [
				{
					"anonymous": false,
					"inputs": [
						{
							"indexed": true,
							"internalType": "address",
							"name": "_owner",
							"type": "address"
						},
						{
							"indexed": true,
							"internalType": "address",
							"name": "_spender",
							"type": "address"
						},
						{
							"indexed": false,
							"internalType": "uint256",
							"name": "_value",
							"type": "uint256"
						}
					],
					"name": "Approval",
					"type": "event"
				},
				{
					"anonymous": false,
					"inputs": [
						{
							"indexed": true,
							"internalType": "address",
							"name": "_from",
							"type": "address"
						},
						{
							"indexed": true,
							"internalType": "address",
							"name": "_to",
							"type": "address"
						},
						{
							"indexed": false,
							"internalType": "uint256",
							"name": "_value",
							"type": "uint256"
						}
					],
					"name": "Transfer",
					"type": "event"
				},
				{
					"inputs": [],
					"name": "DOMAIN_SEPARATOR",
					"outputs": [
						{
							"internalType": "bytes32",
							"name": "",
							"type": "bytes32"
						}
					],
					"stateMutability": "view",
					"type": "function"
				},
				{
					"inputs": [
						{
							"internalType": "address",
							"name": "",
							"type": "address"
						},
						{
							"internalType": "address",
							"name": "",
							"type": "address"
						}
					],
					"name": "allowance",
					"outputs": [
						{
							"internalType": "uint256",
							"name": "",
							"type": "uint256"
						}
					],
					"stateMutability": "view",
					"type": "function"
				},
				{
					"inputs": [
						{
							"internalType": "address",
							"name": "spender",
							"type": "address"
						},
						{
							"internalType": "uint256",
							"name": "amount",
							"type": "uint256"
						}
					],
					"name": "approve",
					"outputs": [
						{
							"internalType": "bool",
							"name": "",
							"type": "bool"
						}
					],
					"stateMutability": "nonpayable",
					"type": "function"
				},
				{
					"inputs": [
						{
							"internalType": "address",
							"name": "",
							"type": "address"
						}
					],
					"name": "balanceOf",
					"outputs": [
						{
							"internalType": "uint256",
							"name": "",
							"type": "uint256"
						}
					],
					"stateMutability": "view",
					"type": "function"
				},
				{
					"inputs": [
						{
							"internalType": "address",
							"name": "",
							"type": "address"
						}
					],
					"name": "nonces",
					"outputs": [
						{
							"internalType": "uint256",
							"name": "",
							"type": "uint256"
						}
					],
					"stateMutability": "view",
					"type": "function"
				},
				{
					"inputs": [
						{
							"internalType": "address",
							"name": "owner_",
							"type": "address"
						},
						{
							"internalType": "address",
							"name": "spender",
							"type": "address"
						},
						{
							"internalType": "uint256",
							"name": "value",
							"type": "uint256"
						},
						{
							"internalType": "uint256",
							"name": "deadline",
							"type": "uint256"
						},
						{
							"internalType": "uint8",
							"name": "v",
							"type": "uint8"
						},
						{
							"internalType": "bytes32",
							"name": "r",
							"type": "bytes32"
						},
						{
							"internalType": "bytes32",
							"name": "s",
							"type": "bytes32"
						}
					],
					"name": "permit",
					"outputs": [],
					"stateMutability": "nonpayable",
					"type": "function"
				},
				{
					"inputs": [],
					"name": "totalSupply",
					"outputs": [
						{
							"internalType": "uint256",
							"name": "",
							"type": "uint256"
						}
					],
					"stateMutability": "view",
					"type": "function"
				},
				{
					"inputs": [
						{
							"internalType": "address",
							"name": "to",
							"type": "address"
						},
						{
							"internalType": "uint256",
							"name": "amount",
							"type": "uint256"
						}
					],
					"name": "transfer",
					"outputs": [
						{
							"internalType": "bool",
							"name": "",
							"type": "bool"
						}
					],
					"stateMutability": "nonpayable",
					"type": "function"
				},
				{
					"inputs": [
						{
							"internalType": "address",
							"name": "from",
							"type": "address"
						},
						{
							"internalType": "address",
							"name": "to",
							"type": "address"
						},
						{
							"internalType": "uint256",
							"name": "amount",
							"type": "uint256"
						}
					],
					"name": "transferFrom",
					"outputs": [
						{
							"internalType": "bool",
							"name": "",
							"type": "bool"
						}
					],
					"stateMutability": "nonpayable",
					"type": "function"
				}
			],
			"devdoc": {
				"kind": "dev",
				"methods": {
					"approve(address,uint256)": {
						"params": {
							"amount": "The maximum collective amount that `spender` can draw.",
							"spender": "Address of the party that can draw from msg.sender's account."
						},
						"returns": {
							"_0": "(bool) Returns True if approved."
						}
					},
					"permit(address,address,uint256,uint256,uint8,bytes32,bytes32)": {
						"params": {
							"deadline": "This permit must be redeemed before this deadline (UTC timestamp in seconds).",
							"owner_": "Address of the owner.",
							"spender": "The address of the spender that gets approved to draw from `owner_`.",
							"value": "The maximum collective amount that `spender` can draw."
						}
					},
					"transfer(address,uint256)": {
						"params": {
							"amount": "of the tokens to move.",
							"to": "The address to move the tokens."
						},
						"returns": {
							"_0": "(bool) Returns True if succeeded."
						}
					},
					"transferFrom(address,address,uint256)": {
						"params": {
							"amount": "The token amount to move.",
							"from": "Address to draw tokens from.",
							"to": "The address to move the tokens."
						},
						"returns": {
							"_0": "(bool) Returns True if succeeded."
						}
					}
				},
				"version": 1
			},
			"evm": {
				"assembly": "    /* \"@boringcrypto/boring-solidity/contracts/ERC20.sol\":5428:5966  contract ERC20WithSupply is IERC20, ERC20 {... */\n  mstore(0x40, 0xc0)\n  callvalue\n  dup1\n  iszero\n  tag_1\n  jumpi\n  0x00\n  dup1\n  revert\ntag_1:\n  pop\n    /* \"@boringcrypto/boring-solidity/contracts/Domain.sol\":1137:1146  chainid() */\n  chainid\n    /* \"@boringcrypto/boring-solidity/contracts/Domain.sol\":1202:1237  DOMAIN_SEPARATOR_CHAIN_ID = chainId */\n  0xa0\n  dup2\n  swap1\n  mstore\n    /* \"@boringcrypto/boring-solidity/contracts/Domain.sol\":1176:1238  _calculateDomainSeparator(DOMAIN_SEPARATOR_CHAIN_ID = chainId) */\n  tag_4\n    /* \"@boringcrypto/boring-solidity/contracts/Domain.sol\":1137:1146  chainid() */\n  dup2\n    /* \"@boringcrypto/boring-solidity/contracts/Domain.sol\":1176:1201  _calculateDomainSeparator */\n  tag_5\n    /* \"@boringcrypto/boring-solidity/contracts/Domain.sol\":1176:1238  _calculateDomainSeparator(DOMAIN_SEPARATOR_CHAIN_ID = chainId) */\n  jump\t// in\ntag_4:\n    /* \"@boringcrypto/boring-solidity/contracts/Domain.sol\":1156:1238  _DOMAIN_SEPARATOR = _calculateDomainSeparator(DOMAIN_SEPARATOR_CHAIN_ID = chainId) */\n  0x80\n  mstore\n  pop\n    /* \"@boringcrypto/boring-solidity/contracts/ERC20.sol\":5428:5966  contract ERC20WithSupply is IERC20, ERC20 {... */\n  jump(tag_6)\n    /* \"@boringcrypto/boring-solidity/contracts/Domain.sol\":793:1062  function _calculateDomainSeparator(uint256 chainId) private view returns (bytes32) {... */\ntag_5:\n    /* \"@boringcrypto/boring-solidity/contracts/Domain.sol\":916:1045  abi.encode(... */\n  0x40\n  dup1\n  mload\n    /* \"@boringcrypto/boring-solidity/contracts/Domain.sol\":388:456  keccak256(\"EIP712Domain(uint256 chainId,address verifyingContract)\") */\n  0x47e79534a245952e8b16893a336b85a3d9ea9fa8c573f3d803afb92a79469218\n    /* \"@boringcrypto/boring-solidity/contracts/Domain.sol\":916:1045  abi.encode(... */\n  0x20\n  dup1\n  dup4\n  add\n  swap2\n  swap1\n  swap2\n  mstore\n  dup2\n  dup4\n  add\n  swap4\n  swap1\n  swap4\n  mstore\n    /* \"@boringcrypto/boring-solidity/contracts/Domain.sol\":1026:1030  this */\n  address\n    /* \"@boringcrypto/boring-solidity/contracts/Domain.sol\":916:1045  abi.encode(... */\n  0x60\n  dup1\n  dup4\n  add\n  swap2\n  swap1\n  swap2\n  mstore\n  dup3\n  mload\n  dup1\n  dup4\n  sub\n  swap1\n  swap2\n  add\n  dup2\n  mstore\n  0x80\n  swap1\n  swap2\n  add\n  swap1\n  swap2\n  mstore\n    /* \"@boringcrypto/boring-solidity/contracts/Domain.sol\":893:1055  keccak256(... */\n  dup1\n  mload\n  swap2\n  add\n  keccak256\n  swap1\n    /* \"@boringcrypto/boring-solidity/contracts/Domain.sol\":793:1062  function _calculateDomainSeparator(uint256 chainId) private view returns (bytes32) {... */\n  jump\t// out\n    /* \"@boringcrypto/boring-solidity/contracts/ERC20.sol\":5428:5966  contract ERC20WithSupply is IERC20, ERC20 {... */\ntag_6:\n  mload(0x80)\n  mload(0xa0)\n  codecopy(0x00, dataOffset(sub_0), dataSize(sub_0))\n  assignImmutable(\"0x24036ccf201a67256250eabe66d3f9fd72f9c4d022f225a8ee964be060dcb993\")\n  assignImmutable(\"0x7dbef654fd5c6145f82b72cd5dbbfc6d48fd276b8a7a4371a61d55985b9d6d8b\")\n  return(0x00, dataSize(sub_0))\nstop\n\nsub_0: assembly {\n        /* \"@boringcrypto/boring-solidity/contracts/ERC20.sol\":5428:5966  contract ERC20WithSupply is IERC20, ERC20 {... */\n      mstore(0x40, 0x80)\n      callvalue\n      dup1\n      iszero\n      tag_1\n      jumpi\n      0x00\n      dup1\n      revert\n    tag_1:\n      pop\n      jumpi(tag_2, lt(calldatasize, 0x04))\n      shr(0xe0, calldataload(0x00))\n      dup1\n      0x70a08231\n      gt\n      tag_12\n      jumpi\n      dup1\n      0x70a08231\n      eq\n      tag_7\n      jumpi\n      dup1\n      0x7ecebe00\n      eq\n      tag_8\n      jumpi\n      dup1\n      0xa9059cbb\n      eq\n      tag_9\n      jumpi\n      dup1\n      0xd505accf\n      eq\n      tag_10\n      jumpi\n      dup1\n      0xdd62ed3e\n      eq\n      tag_11\n      jumpi\n      jump(tag_2)\n    tag_12:\n      dup1\n      0x095ea7b3\n      eq\n      tag_3\n      jumpi\n      dup1\n      0x18160ddd\n      eq\n      tag_4\n      jumpi\n      dup1\n      0x23b872dd\n      eq\n      tag_5\n      jumpi\n      dup1\n      0x3644e515\n      eq\n      tag_6\n      jumpi\n    tag_2:\n      0x00\n      dup1\n      revert\n        /* \"@boringcrypto/boring-solidity/contracts/ERC20.sol\":3778:3988  function approve(address spender, uint256 amount) public override returns (bool) {... */\n    tag_3:\n      tag_13\n      0x04\n      dup1\n      calldatasize\n      sub\n      0x40\n      dup2\n      lt\n      iszero\n      tag_14\n      jumpi\n      0x00\n      dup1\n      revert\n    tag_14:\n      pop\n      sub(shl(0xa0, 0x01), 0x01)\n      dup2\n      calldataload\n      and\n      swap1\n      0x20\n      add\n      calldataload\n      tag_15\n      jump\t// in\n    tag_13:\n      0x40\n      dup1\n      mload\n      swap2\n      iszero\n      iszero\n      dup3\n      mstore\n      mload\n      swap1\n      dup2\n      swap1\n      sub\n      0x20\n      add\n      swap1\n      return\n        /* \"@boringcrypto/boring-solidity/contracts/ERC20.sol\":5476:5511  uint256 public override totalSupply */\n    tag_4:\n      tag_16\n      tag_17\n      jump\t// in\n    tag_16:\n      0x40\n      dup1\n      mload\n      swap2\n      dup3\n      mstore\n      mload\n      swap1\n      dup2\n      swap1\n      sub\n      0x20\n      add\n      swap1\n      return\n        /* \"@boringcrypto/boring-solidity/contracts/ERC20.sol\":2363:3489  function transferFrom(... */\n    tag_5:\n      tag_13\n      0x04\n      dup1\n      calldatasize\n      sub\n      0x60\n      dup2\n      lt\n      iszero\n      tag_19\n      jumpi\n      0x00\n      dup1\n      revert\n    tag_19:\n      pop\n      sub(shl(0xa0, 0x01), 0x01)\n      dup2\n      calldataload\n      dup2\n      and\n      swap2\n      0x20\n      dup2\n      add\n      calldataload\n      swap1\n      swap2\n      and\n      swap1\n      0x40\n      add\n      calldataload\n      tag_20\n      jump\t// in\n        /* \"@boringcrypto/boring-solidity/contracts/ERC20.sol\":4047:4149  function DOMAIN_SEPARATOR() external view returns (bytes32) {... */\n    tag_6:\n      tag_16\n      tag_22\n      jump\t// in\n        /* \"@boringcrypto/boring-solidity/contracts/ERC20.sol\":697:750  mapping(address => uint256) public override balanceOf */\n    tag_7:\n      tag_16\n      0x04\n      dup1\n      calldatasize\n      sub\n      0x20\n      dup2\n      lt\n      iszero\n      tag_24\n      jumpi\n      0x00\n      dup1\n      revert\n    tag_24:\n      pop\n      calldataload\n      sub(shl(0xa0, 0x01), 0x01)\n      and\n      tag_25\n      jump\t// in\n        /* \"@boringcrypto/boring-solidity/contracts/ERC20.sol\":945:986  mapping(address => uint256) public nonces */\n    tag_8:\n      tag_16\n      0x04\n      dup1\n      calldatasize\n      sub\n      0x20\n      dup2\n      lt\n      iszero\n      tag_27\n      jumpi\n      0x00\n      dup1\n      revert\n    tag_27:\n      pop\n      calldataload\n      sub(shl(0xa0, 0x01), 0x01)\n      and\n      tag_28\n      jump\t// in\n        /* \"@boringcrypto/boring-solidity/contracts/ERC20.sol\":1374:2063  function transfer(address to, uint256 amount) public returns (bool) {... */\n    tag_9:\n      tag_13\n      0x04\n      dup1\n      calldatasize\n      sub\n      0x40\n      dup2\n      lt\n      iszero\n      tag_30\n      jumpi\n      0x00\n      dup1\n      revert\n    tag_30:\n      pop\n      sub(shl(0xa0, 0x01), 0x01)\n      dup2\n      calldataload\n      and\n      swap1\n      0x20\n      add\n      calldataload\n      tag_31\n      jump\t// in\n        /* \"@boringcrypto/boring-solidity/contracts/ERC20.sol\":4768:5424  function permit(... */\n    tag_10:\n      tag_32\n      0x04\n      dup1\n      calldatasize\n      sub\n      0xe0\n      dup2\n      lt\n      iszero\n      tag_33\n      jumpi\n      0x00\n      dup1\n      revert\n    tag_33:\n      pop\n      sub(shl(0xa0, 0x01), 0x01)\n      dup2\n      calldataload\n      dup2\n      and\n      swap2\n      0x20\n      dup2\n      add\n      calldataload\n      swap1\n      swap2\n      and\n      swap1\n      0x40\n      dup2\n      add\n      calldataload\n      swap1\n      0x60\n      dup2\n      add\n      calldataload\n      swap1\n      0xff\n      0x80\n      dup3\n      add\n      calldataload\n      and\n      swap1\n      0xa0\n      dup2\n      add\n      calldataload\n      swap1\n      0xc0\n      add\n      calldataload\n      tag_34\n      jump\t// in\n    tag_32:\n      stop\n        /* \"@boringcrypto/boring-solidity/contracts/ERC20.sol\":809:882  mapping(address => mapping(address => uint256)) public override allowance */\n    tag_11:\n      tag_16\n      0x04\n      dup1\n      calldatasize\n      sub\n      0x40\n      dup2\n      lt\n      iszero\n      tag_36\n      jumpi\n      0x00\n      dup1\n      revert\n    tag_36:\n      pop\n      sub(shl(0xa0, 0x01), 0x01)\n      dup2\n      calldataload\n      dup2\n      and\n      swap2\n      0x20\n      add\n      calldataload\n      and\n      tag_37\n      jump\t// in\n        /* \"@boringcrypto/boring-solidity/contracts/ERC20.sol\":3778:3988  function approve(address spender, uint256 amount) public override returns (bool) {... */\n    tag_15:\n        /* \"@boringcrypto/boring-solidity/contracts/ERC20.sol\":3879:3889  msg.sender */\n      caller\n        /* \"@boringcrypto/boring-solidity/contracts/ERC20.sol\":3853:3857  bool */\n      0x00\n        /* \"@boringcrypto/boring-solidity/contracts/ERC20.sol\":3869:3890  allowance[msg.sender] */\n      dup2\n      dup2\n      mstore\n        /* \"@boringcrypto/boring-solidity/contracts/ERC20.sol\":3869:3878  allowance */\n      0x01\n        /* \"@boringcrypto/boring-solidity/contracts/ERC20.sol\":3869:3890  allowance[msg.sender] */\n      0x20\n      swap1\n      dup2\n      mstore\n      0x40\n      dup1\n      dup4\n      keccak256\n      sub(shl(0xa0, 0x01), 0x01)\n        /* \"@boringcrypto/boring-solidity/contracts/ERC20.sol\":3869:3899  allowance[msg.sender][spender] */\n      dup8\n      and\n      dup1\n      dup6\n      mstore\n      swap1\n      dup4\n      mstore\n      dup2\n      dup5\n      keccak256\n        /* \"@boringcrypto/boring-solidity/contracts/ERC20.sol\":3869:3908  allowance[msg.sender][spender] = amount */\n      dup7\n      swap1\n      sstore\n        /* \"@boringcrypto/boring-solidity/contracts/ERC20.sol\":3923:3960  Approval(msg.sender, spender, amount) */\n      dup2\n      mload\n      dup7\n      dup2\n      mstore\n      swap2\n      mload\n        /* \"@boringcrypto/boring-solidity/contracts/ERC20.sol\":3853:3857  bool */\n      swap4\n      swap5\n        /* \"@boringcrypto/boring-solidity/contracts/ERC20.sol\":3869:3899  allowance[msg.sender][spender] */\n      swap1\n      swap4\n        /* \"@boringcrypto/boring-solidity/contracts/ERC20.sol\":3879:3889  msg.sender */\n      swap1\n      swap3\n        /* \"@boringcrypto/boring-solidity/contracts/ERC20.sol\":3923:3960  Approval(msg.sender, spender, amount) */\n      0x8c5be1e5ebec7d5bd14f71427d1e84f3dd0314c0f7b2291e5b200ac8c7c3b925\n      swap3\n      dup3\n      swap1\n      sub\n      add\n      swap1\n      log3\n      pop\n        /* \"@boringcrypto/boring-solidity/contracts/ERC20.sol\":3977:3981  true */\n      0x01\n        /* \"@boringcrypto/boring-solidity/contracts/ERC20.sol\":3778:3988  function approve(address spender, uint256 amount) public override returns (bool) {... */\n      swap3\n      swap2\n      pop\n      pop\n      jump\t// out\n        /* \"@boringcrypto/boring-solidity/contracts/ERC20.sol\":5476:5511  uint256 public override totalSupply */\n    tag_17:\n      sload(0x03)\n      dup2\n      jump\t// out\n        /* \"@boringcrypto/boring-solidity/contracts/ERC20.sol\":2363:3489  function transferFrom(... */\n    tag_20:\n        /* \"@boringcrypto/boring-solidity/contracts/ERC20.sol\":2473:2477  bool */\n      0x00\n        /* \"@boringcrypto/boring-solidity/contracts/ERC20.sol\":2556:2567  amount != 0 */\n      dup2\n      iszero\n        /* \"@boringcrypto/boring-solidity/contracts/ERC20.sol\":2552:3421  if (amount != 0) {... */\n      tag_40\n      jumpi\n      sub(shl(0xa0, 0x01), 0x01)\n        /* \"@boringcrypto/boring-solidity/contracts/ERC20.sol\":2604:2619  balanceOf[from] */\n      dup5\n      and\n        /* \"@boringcrypto/boring-solidity/contracts/ERC20.sol\":2583:2601  uint256 srcBalance */\n      0x00\n        /* \"@boringcrypto/boring-solidity/contracts/ERC20.sol\":2604:2619  balanceOf[from] */\n      swap1\n      dup2\n      mstore\n      0x20\n      dup2\n      swap1\n      mstore\n      0x40\n      swap1\n      keccak256\n      sload\n        /* \"@boringcrypto/boring-solidity/contracts/ERC20.sol\":2641:2661  srcBalance >= amount */\n      dup3\n      dup2\n      lt\n      iszero\n        /* \"@boringcrypto/boring-solidity/contracts/ERC20.sol\":2633:2688  require(srcBalance >= amount, \"ERC20: balance too low\") */\n      tag_41\n      jumpi\n      0x40\n      dup1\n      mload\n      shl(0xe5, 0x461bcd)\n      dup2\n      mstore\n      0x20\n      0x04\n      dup3\n      add\n      mstore\n      0x16\n      0x24\n      dup3\n      add\n      mstore\n      shl(0x50, 0x45524332303a2062616c616e636520746f6f206c6f77)\n      0x44\n      dup3\n      add\n      mstore\n      swap1\n      mload\n      swap1\n      dup2\n      swap1\n      sub\n      0x64\n      add\n      swap1\n      revert\n    tag_41:\n        /* \"@boringcrypto/boring-solidity/contracts/ERC20.sol\":2715:2717  to */\n      dup4\n      sub(shl(0xa0, 0x01), 0x01)\n        /* \"@boringcrypto/boring-solidity/contracts/ERC20.sol\":2707:2717  from != to */\n      and\n        /* \"@boringcrypto/boring-solidity/contracts/ERC20.sol\":2707:2711  from */\n      dup6\n      sub(shl(0xa0, 0x01), 0x01)\n        /* \"@boringcrypto/boring-solidity/contracts/ERC20.sol\":2707:2717  from != to */\n      and\n      eq\n        /* \"@boringcrypto/boring-solidity/contracts/ERC20.sol\":2703:3411  if (from != to) {... */\n      tag_42\n      jumpi\n      sub(shl(0xa0, 0x01), 0x01)\n        /* \"@boringcrypto/boring-solidity/contracts/ERC20.sol\":2764:2779  allowance[from] */\n      dup6\n      and\n        /* \"@boringcrypto/boring-solidity/contracts/ERC20.sol\":2737:2761  uint256 spenderAllowance */\n      0x00\n        /* \"@boringcrypto/boring-solidity/contracts/ERC20.sol\":2764:2779  allowance[from] */\n      swap1\n      dup2\n      mstore\n        /* \"@boringcrypto/boring-solidity/contracts/ERC20.sol\":2764:2773  allowance */\n      0x01\n        /* \"@boringcrypto/boring-solidity/contracts/ERC20.sol\":2764:2779  allowance[from] */\n      0x20\n      swap1\n      dup2\n      mstore\n      0x40\n      dup1\n      dup4\n      keccak256\n        /* \"@boringcrypto/boring-solidity/contracts/ERC20.sol\":2780:2790  msg.sender */\n      caller\n        /* \"@boringcrypto/boring-solidity/contracts/ERC20.sol\":2764:2791  allowance[from][msg.sender] */\n      dup5\n      mstore\n      swap1\n      swap2\n      mstore\n      swap1\n      keccak256\n      sload\n      not(0x00)\n        /* \"@boringcrypto/boring-solidity/contracts/ERC20.sol\":2913:2950  spenderAllowance != type(uint256).max */\n      dup2\n      eq\n        /* \"@boringcrypto/boring-solidity/contracts/ERC20.sol\":2909:3157  if (spenderAllowance != type(uint256).max) {... */\n      tag_43\n      jumpi\n        /* \"@boringcrypto/boring-solidity/contracts/ERC20.sol\":3002:3008  amount */\n      dup4\n        /* \"@boringcrypto/boring-solidity/contracts/ERC20.sol\":2982:2998  spenderAllowance */\n      dup2\n        /* \"@boringcrypto/boring-solidity/contracts/ERC20.sol\":2982:3008  spenderAllowance >= amount */\n      lt\n      iszero\n        /* \"@boringcrypto/boring-solidity/contracts/ERC20.sol\":2974:3037  require(spenderAllowance >= amount, \"ERC20: allowance too low\") */\n      tag_44\n      jumpi\n      0x40\n      dup1\n      mload\n      shl(0xe5, 0x461bcd)\n      dup2\n      mstore\n      0x20\n      0x04\n      dup3\n      add\n      mstore\n      0x18\n      0x24\n      dup3\n      add\n      mstore\n      0x45524332303a20616c6c6f77616e636520746f6f206c6f770000000000000000\n      0x44\n      dup3\n      add\n      mstore\n      swap1\n      mload\n      swap1\n      dup2\n      swap1\n      sub\n      0x64\n      add\n      swap1\n      revert\n    tag_44:\n      sub(shl(0xa0, 0x01), 0x01)\n        /* \"@boringcrypto/boring-solidity/contracts/ERC20.sol\":3059:3074  allowance[from] */\n      dup7\n      and\n      0x00\n      swap1\n      dup2\n      mstore\n        /* \"@boringcrypto/boring-solidity/contracts/ERC20.sol\":3059:3068  allowance */\n      0x01\n        /* \"@boringcrypto/boring-solidity/contracts/ERC20.sol\":3059:3074  allowance[from] */\n      0x20\n      swap1\n      dup2\n      mstore\n      0x40\n      dup1\n      dup4\n      keccak256\n        /* \"@boringcrypto/boring-solidity/contracts/ERC20.sol\":3075:3085  msg.sender */\n      caller\n        /* \"@boringcrypto/boring-solidity/contracts/ERC20.sol\":3059:3086  allowance[from][msg.sender] */\n      dup5\n      mstore\n      swap1\n      swap2\n      mstore\n      swap1\n      keccak256\n        /* \"@boringcrypto/boring-solidity/contracts/ERC20.sol\":3089:3114  spenderAllowance - amount */\n      dup5\n      dup3\n      sub\n        /* \"@boringcrypto/boring-solidity/contracts/ERC20.sol\":3059:3114  allowance[from][msg.sender] = spenderAllowance - amount */\n      swap1\n      sstore\n        /* \"@boringcrypto/boring-solidity/contracts/ERC20.sol\":2909:3157  if (spenderAllowance != type(uint256).max) {... */\n    tag_43:\n      sub(shl(0xa0, 0x01), 0x01)\n        /* \"@boringcrypto/boring-solidity/contracts/ERC20.sol\":3182:3198  to != address(0) */\n      dup6\n      and\n        /* \"@boringcrypto/boring-solidity/contracts/ERC20.sol\":3174:3225  require(to != address(0), \"ERC20: no zero address\") */\n      tag_45\n      jumpi\n      0x40\n      dup1\n      mload\n      shl(0xe5, 0x461bcd)\n      dup2\n      mstore\n      0x20\n      0x04\n      dup3\n      add\n      mstore\n      0x16\n      0x24\n      dup3\n      add\n      mstore\n      shl(0x50, 0x45524332303a206e6f207a65726f2061646472657373)\n      0x44\n      dup3\n      add\n      mstore\n      swap1\n      mload\n      swap1\n      dup2\n      swap1\n      sub\n      0x64\n      add\n      swap1\n      revert\n    tag_45:\n      pop\n      sub(shl(0xa0, 0x01), 0x01)\n        /* \"@boringcrypto/boring-solidity/contracts/ERC20.sol\":3294:3309  balanceOf[from] */\n      dup1\n      dup7\n      and\n        /* \"@boringcrypto/boring-solidity/contracts/ERC20.sol\":3294:3303  balanceOf */\n      0x00\n        /* \"@boringcrypto/boring-solidity/contracts/ERC20.sol\":3294:3309  balanceOf[from] */\n      swap1\n      dup2\n      mstore\n      0x20\n      dup2\n      swap1\n      mstore\n      0x40\n      dup1\n      dup3\n      keccak256\n        /* \"@boringcrypto/boring-solidity/contracts/ERC20.sol\":3312:3331  srcBalance - amount */\n      dup7\n      dup6\n      sub\n        /* \"@boringcrypto/boring-solidity/contracts/ERC20.sol\":3294:3331  balanceOf[from] = srcBalance - amount */\n      swap1\n      sstore\n        /* \"@boringcrypto/boring-solidity/contracts/ERC20.sol\":3373:3386  balanceOf[to] */\n      swap2\n      dup7\n      and\n      dup2\n      mstore\n      keccak256\n        /* \"@boringcrypto/boring-solidity/contracts/ERC20.sol\":3373:3396  balanceOf[to] += amount */\n      dup1\n      sload\n      dup5\n      add\n      swap1\n      sstore\n        /* \"@boringcrypto/boring-solidity/contracts/ERC20.sol\":2703:3411  if (from != to) {... */\n    tag_42:\n        /* \"@boringcrypto/boring-solidity/contracts/ERC20.sol\":2552:3421  if (amount != 0) {... */\n      pop\n    tag_40:\n        /* \"@boringcrypto/boring-solidity/contracts/ERC20.sol\":3450:3452  to */\n      dup3\n      sub(shl(0xa0, 0x01), 0x01)\n        /* \"@boringcrypto/boring-solidity/contracts/ERC20.sol\":3435:3461  Transfer(from, to, amount) */\n      and\n        /* \"@boringcrypto/boring-solidity/contracts/ERC20.sol\":3444:3448  from */\n      dup5\n      sub(shl(0xa0, 0x01), 0x01)\n        /* \"@boringcrypto/boring-solidity/contracts/ERC20.sol\":3435:3461  Transfer(from, to, amount) */\n      and\n      0xddf252ad1be2c89b69c2b068fc378daa952ba7f163c4a11628f55a4df523b3ef\n        /* \"@boringcrypto/boring-solidity/contracts/ERC20.sol\":3454:3460  amount */\n      dup5\n        /* \"@boringcrypto/boring-solidity/contracts/ERC20.sol\":3435:3461  Transfer(from, to, amount) */\n      mload(0x40)\n      dup1\n      dup3\n      dup2\n      mstore\n      0x20\n      add\n      swap2\n      pop\n      pop\n      mload(0x40)\n      dup1\n      swap2\n      sub\n      swap1\n      log3\n      pop\n        /* \"@boringcrypto/boring-solidity/contracts/ERC20.sol\":3478:3482  true */\n      0x01\n        /* \"@boringcrypto/boring-solidity/contracts/ERC20.sol\":2363:3489  function transferFrom(... */\n      swap4\n      swap3\n      pop\n      pop\n      pop\n      jump\t// out\n        /* \"@boringcrypto/boring-solidity/contracts/ERC20.sol\":4047:4149  function DOMAIN_SEPARATOR() external view returns (bytes32) {... */\n    tag_22:\n        /* \"@boringcrypto/boring-solidity/contracts/ERC20.sol\":4098:4105  bytes32 */\n      0x00\n        /* \"@boringcrypto/boring-solidity/contracts/ERC20.sol\":4124:4142  _domainSeparator() */\n      tag_47\n        /* \"@boringcrypto/boring-solidity/contracts/ERC20.sol\":4124:4140  _domainSeparator */\n      tag_48\n        /* \"@boringcrypto/boring-solidity/contracts/ERC20.sol\":4124:4142  _domainSeparator() */\n      jump\t// in\n    tag_47:\n        /* \"@boringcrypto/boring-solidity/contracts/ERC20.sol\":4117:4142  return _domainSeparator() */\n      swap1\n      pop\n        /* \"@boringcrypto/boring-solidity/contracts/ERC20.sol\":4047:4149  function DOMAIN_SEPARATOR() external view returns (bytes32) {... */\n      swap1\n      jump\t// out\n        /* \"@boringcrypto/boring-solidity/contracts/ERC20.sol\":697:750  mapping(address => uint256) public override balanceOf */\n    tag_25:\n      0x00\n      0x20\n      dup2\n      swap1\n      mstore\n      swap1\n      dup2\n      mstore\n      0x40\n      swap1\n      keccak256\n      sload\n      dup2\n      jump\t// out\n        /* \"@boringcrypto/boring-solidity/contracts/ERC20.sol\":945:986  mapping(address => uint256) public nonces */\n    tag_28:\n      mstore(0x20, 0x02)\n      0x00\n      swap1\n      dup2\n      mstore\n      0x40\n      swap1\n      keccak256\n      sload\n      dup2\n      jump\t// out\n        /* \"@boringcrypto/boring-solidity/contracts/ERC20.sol\":1374:2063  function transfer(address to, uint256 amount) public returns (bool) {... */\n    tag_31:\n        /* \"@boringcrypto/boring-solidity/contracts/ERC20.sol\":1436:1440  bool */\n      0x00\n        /* \"@boringcrypto/boring-solidity/contracts/ERC20.sol\":1525:1536  amount != 0 */\n      dup2\n      iszero\n      iszero\n      dup1\n        /* \"@boringcrypto/boring-solidity/contracts/ERC20.sol\":1525:1556  amount != 0 || msg.sender == to */\n      tag_50\n      jumpi\n      pop\n        /* \"@boringcrypto/boring-solidity/contracts/ERC20.sol\":1540:1550  msg.sender */\n      caller\n      sub(shl(0xa0, 0x01), 0x01)\n        /* \"@boringcrypto/boring-solidity/contracts/ERC20.sol\":1540:1556  msg.sender == to */\n      dup5\n      and\n      eq\n        /* \"@boringcrypto/boring-solidity/contracts/ERC20.sol\":1525:1556  amount != 0 || msg.sender == to */\n    tag_50:\n        /* \"@boringcrypto/boring-solidity/contracts/ERC20.sol\":1521:1989  if (amount != 0 || msg.sender == to) {... */\n      iszero\n      tag_51\n      jumpi\n        /* \"@boringcrypto/boring-solidity/contracts/ERC20.sol\":1603:1613  msg.sender */\n      caller\n        /* \"@boringcrypto/boring-solidity/contracts/ERC20.sol\":1572:1590  uint256 srcBalance */\n      0x00\n        /* \"@boringcrypto/boring-solidity/contracts/ERC20.sol\":1593:1614  balanceOf[msg.sender] */\n      swap1\n      dup2\n      mstore\n      0x20\n      dup2\n      swap1\n      mstore\n      0x40\n      swap1\n      keccak256\n      sload\n        /* \"@boringcrypto/boring-solidity/contracts/ERC20.sol\":1636:1656  srcBalance >= amount */\n      dup3\n      dup2\n      lt\n      iszero\n        /* \"@boringcrypto/boring-solidity/contracts/ERC20.sol\":1628:1683  require(srcBalance >= amount, \"ERC20: balance too low\") */\n      tag_52\n      jumpi\n      0x40\n      dup1\n      mload\n      shl(0xe5, 0x461bcd)\n      dup2\n      mstore\n      0x20\n      0x04\n      dup3\n      add\n      mstore\n      0x16\n      0x24\n      dup3\n      add\n      mstore\n      shl(0x50, 0x45524332303a2062616c616e636520746f6f206c6f77)\n      0x44\n      dup3\n      add\n      mstore\n      swap1\n      mload\n      swap1\n      dup2\n      swap1\n      sub\n      0x64\n      add\n      swap1\n      revert\n    tag_52:\n        /* \"@boringcrypto/boring-solidity/contracts/ERC20.sol\":1701:1711  msg.sender */\n      caller\n      sub(shl(0xa0, 0x01), 0x01)\n        /* \"@boringcrypto/boring-solidity/contracts/ERC20.sol\":1701:1717  msg.sender != to */\n      dup6\n      and\n      eq\n        /* \"@boringcrypto/boring-solidity/contracts/ERC20.sol\":1697:1979  if (msg.sender != to) {... */\n      tag_53\n      jumpi\n      sub(shl(0xa0, 0x01), 0x01)\n        /* \"@boringcrypto/boring-solidity/contracts/ERC20.sol\":1745:1761  to != address(0) */\n      dup5\n      and\n        /* \"@boringcrypto/boring-solidity/contracts/ERC20.sol\":1737:1788  require(to != address(0), \"ERC20: no zero address\") */\n      tag_54\n      jumpi\n      0x40\n      dup1\n      mload\n      shl(0xe5, 0x461bcd)\n      dup2\n      mstore\n      0x20\n      0x04\n      dup3\n      add\n      mstore\n      0x16\n      0x24\n      dup3\n      add\n      mstore\n      shl(0x50, 0x45524332303a206e6f207a65726f2061646472657373)\n      0x44\n      dup3\n      add\n      mstore\n      swap1\n      mload\n      swap1\n      dup2\n      swap1\n      sub\n      0x64\n      add\n      swap1\n      revert\n    tag_54:\n        /* \"@boringcrypto/boring-solidity/contracts/ERC20.sol\":1866:1876  msg.sender */\n      caller\n        /* \"@boringcrypto/boring-solidity/contracts/ERC20.sol\":1856:1865  balanceOf */\n      0x00\n        /* \"@boringcrypto/boring-solidity/contracts/ERC20.sol\":1856:1877  balanceOf[msg.sender] */\n      swap1\n      dup2\n      mstore\n      0x20\n      dup2\n      swap1\n      mstore\n      0x40\n      dup1\n      dup3\n      keccak256\n        /* \"@boringcrypto/boring-solidity/contracts/ERC20.sol\":1880:1899  srcBalance - amount */\n      dup6\n      dup5\n      sub\n        /* \"@boringcrypto/boring-solidity/contracts/ERC20.sol\":1856:1899  balanceOf[msg.sender] = srcBalance - amount */\n      swap1\n      sstore\n      sub(shl(0xa0, 0x01), 0x01)\n        /* \"@boringcrypto/boring-solidity/contracts/ERC20.sol\":1941:1954  balanceOf[to] */\n      dup7\n      and\n      dup3\n      mstore\n      swap1\n      keccak256\n        /* \"@boringcrypto/boring-solidity/contracts/ERC20.sol\":1941:1964  balanceOf[to] += amount */\n      dup1\n      sload\n      dup5\n      add\n      swap1\n      sstore\n        /* \"@boringcrypto/boring-solidity/contracts/ERC20.sol\":1697:1979  if (msg.sender != to) {... */\n    tag_53:\n        /* \"@boringcrypto/boring-solidity/contracts/ERC20.sol\":1521:1989  if (amount != 0 || msg.sender == to) {... */\n      pop\n    tag_51:\n        /* \"@boringcrypto/boring-solidity/contracts/ERC20.sol\":2003:2035  Transfer(msg.sender, to, amount) */\n      0x40\n      dup1\n      mload\n      dup4\n      dup2\n      mstore\n      swap1\n      mload\n      sub(shl(0xa0, 0x01), 0x01)\n      dup6\n      and\n      swap2\n        /* \"@boringcrypto/boring-solidity/contracts/ERC20.sol\":2012:2022  msg.sender */\n      caller\n      swap2\n        /* \"@boringcrypto/boring-solidity/contracts/ERC20.sol\":2003:2035  Transfer(msg.sender, to, amount) */\n      0xddf252ad1be2c89b69c2b068fc378daa952ba7f163c4a11628f55a4df523b3ef\n      swap2\n      dup2\n      swap1\n      sub\n      0x20\n      add\n      swap1\n      log3\n      pop\n        /* \"@boringcrypto/boring-solidity/contracts/ERC20.sol\":2052:2056  true */\n      0x01\n        /* \"@boringcrypto/boring-solidity/contracts/ERC20.sol\":1374:2063  function transfer(address to, uint256 amount) public returns (bool) {... */\n      swap3\n      swap2\n      pop\n      pop\n      jump\t// out\n        /* \"@boringcrypto/boring-solidity/contracts/ERC20.sol\":4768:5424  function permit(... */\n    tag_34:\n      sub(shl(0xa0, 0x01), 0x01)\n        /* \"@boringcrypto/boring-solidity/contracts/ERC20.sol\":4979:4999  owner_ != address(0) */\n      dup8\n      and\n        /* \"@boringcrypto/boring-solidity/contracts/ERC20.sol\":4971:5028  require(owner_ != address(0), \"ERC20: Owner cannot be 0\") */\n      tag_56\n      jumpi\n      0x40\n      dup1\n      mload\n      shl(0xe5, 0x461bcd)\n      dup2\n      mstore\n      0x20\n      0x04\n      dup3\n      add\n      mstore\n      0x18\n      0x24\n      dup3\n      add\n      mstore\n      0x45524332303a204f776e65722063616e6e6f7420626520300000000000000000\n      0x44\n      dup3\n      add\n      mstore\n      swap1\n      mload\n      swap1\n      dup2\n      swap1\n      sub\n      0x64\n      add\n      swap1\n      revert\n    tag_56:\n        /* \"@boringcrypto/boring-solidity/contracts/ERC20.sol\":5064:5072  deadline */\n      dup4\n        /* \"@boringcrypto/boring-solidity/contracts/ERC20.sol\":5046:5061  block.timestamp */\n      timestamp\n        /* \"@boringcrypto/boring-solidity/contracts/ERC20.sol\":5046:5072  block.timestamp < deadline */\n      lt\n        /* \"@boringcrypto/boring-solidity/contracts/ERC20.sol\":5038:5091  require(block.timestamp < deadline, \"ERC20: Expired\") */\n      tag_57\n      jumpi\n      0x40\n      dup1\n      mload\n      shl(0xe5, 0x461bcd)\n      dup2\n      mstore\n      0x20\n      0x04\n      dup3\n      add\n      mstore\n      0x0e\n      0x24\n      dup3\n      add\n      mstore\n      shl(0x92, 0x115490cc8c0e88115e1c1a5c9959)\n      0x44\n      dup3\n      add\n      mstore\n      swap1\n      mload\n      swap1\n      dup2\n      swap1\n      sub\n      0x64\n      add\n      swap1\n      revert\n    tag_57:\n      sub(shl(0xa0, 0x01), 0x01)\n        /* \"@boringcrypto/boring-solidity/contracts/ERC20.sol\":5122:5276  ecrecover(_getDigest(keccak256(abi.encode(PERMIT_SIGNATURE_HASH, owner_, spender, value, nonces[owner_]++, deadline))), v, r, s) ==... */\n      dup1\n      dup9\n      and\n        /* \"@boringcrypto/boring-solidity/contracts/ERC20.sol\":5164:5185  PERMIT_SIGNATURE_HASH */\n      0x00\n        /* \"@boringcrypto/boring-solidity/contracts/ERC20.sol\":5211:5225  nonces[owner_] */\n      dup2\n      dup2\n      mstore\n        /* \"@boringcrypto/boring-solidity/contracts/ERC20.sol\":5211:5217  nonces */\n      0x02\n        /* \"@boringcrypto/boring-solidity/contracts/ERC20.sol\":5211:5225  nonces[owner_] */\n      0x20\n      swap1\n      dup2\n      mstore\n      0x40\n      swap2\n      dup3\n      swap1\n      keccak256\n        /* \"@boringcrypto/boring-solidity/contracts/ERC20.sol\":5211:5227  nonces[owner_]++ */\n      dup1\n      sload\n        /* \"@boringcrypto/boring-solidity/contracts/ERC20.sol\":5122:5250  ecrecover(_getDigest(keccak256(abi.encode(PERMIT_SIGNATURE_HASH, owner_, spender, value, nonces[owner_]++, deadline))), v, r, s) */\n      0x01\n        /* \"@boringcrypto/boring-solidity/contracts/ERC20.sol\":5211:5227  nonces[owner_]++ */\n      dup2\n      dup2\n      add\n      swap1\n      swap3\n      sstore\n        /* \"@boringcrypto/boring-solidity/contracts/ERC20.sol\":5153:5238  abi.encode(PERMIT_SIGNATURE_HASH, owner_, spender, value, nonces[owner_]++, deadline) */\n      dup4\n      mload\n        /* \"@boringcrypto/boring-solidity/contracts/ERC20.sol\":4308:4374  0x6e71edae12b1b97f4d1f60370fef10105fa2faae0126114a169c64845d6126c9 */\n      0x6e71edae12b1b97f4d1f60370fef10105fa2faae0126114a169c64845d6126c9\n        /* \"@boringcrypto/boring-solidity/contracts/ERC20.sol\":5153:5238  abi.encode(PERMIT_SIGNATURE_HASH, owner_, spender, value, nonces[owner_]++, deadline) */\n      dup2\n      dup6\n      add\n      mstore\n      dup1\n      dup6\n      add\n      dup7\n      swap1\n      mstore\n      swap6\n      dup13\n      and\n      0x60\n      dup8\n      add\n      mstore\n      0x80\n      dup7\n      add\n      dup12\n      swap1\n      mstore\n      0xa0\n      dup7\n      add\n      mstore\n      0xc0\n      dup1\n      dup7\n      add\n      dup11\n      swap1\n      mstore\n      dup4\n      mload\n      dup1\n      dup8\n      sub\n      swap1\n      swap2\n      add\n      dup2\n      mstore\n      0xe0\n      swap1\n      swap6\n      add\n      swap1\n      swap3\n      mstore\n        /* \"@boringcrypto/boring-solidity/contracts/ERC20.sol\":5143:5239  keccak256(abi.encode(PERMIT_SIGNATURE_HASH, owner_, spender, value, nonces[owner_]++, deadline)) */\n      dup4\n      mload\n      swap4\n      add\n      swap3\n      swap1\n      swap3\n      keccak256\n        /* \"@boringcrypto/boring-solidity/contracts/ERC20.sol\":5122:5276  ecrecover(_getDigest(keccak256(abi.encode(PERMIT_SIGNATURE_HASH, owner_, spender, value, nonces[owner_]++, deadline))), v, r, s) ==... */\n      swap1\n      swap2\n        /* \"@boringcrypto/boring-solidity/contracts/ERC20.sol\":5122:5250  ecrecover(_getDigest(keccak256(abi.encode(PERMIT_SIGNATURE_HASH, owner_, spender, value, nonces[owner_]++, deadline))), v, r, s) */\n      swap1\n        /* \"@boringcrypto/boring-solidity/contracts/ERC20.sol\":5132:5240  _getDigest(keccak256(abi.encode(PERMIT_SIGNATURE_HASH, owner_, spender, value, nonces[owner_]++, deadline))) */\n      tag_58\n      swap1\n        /* \"@boringcrypto/boring-solidity/contracts/ERC20.sol\":5132:5142  _getDigest */\n      tag_59\n        /* \"@boringcrypto/boring-solidity/contracts/ERC20.sol\":5132:5240  _getDigest(keccak256(abi.encode(PERMIT_SIGNATURE_HASH, owner_, spender, value, nonces[owner_]++, deadline))) */\n      jump\t// in\n    tag_58:\n        /* \"@boringcrypto/boring-solidity/contracts/ERC20.sol\":5242:5243  v */\n      dup6\n        /* \"@boringcrypto/boring-solidity/contracts/ERC20.sol\":5245:5246  r */\n      dup6\n        /* \"@boringcrypto/boring-solidity/contracts/ERC20.sol\":5248:5249  s */\n      dup6\n        /* \"@boringcrypto/boring-solidity/contracts/ERC20.sol\":5122:5250  ecrecover(_getDigest(keccak256(abi.encode(PERMIT_SIGNATURE_HASH, owner_, spender, value, nonces[owner_]++, deadline))), v, r, s) */\n      mload(0x40)\n      0x00\n      dup2\n      mstore\n      0x20\n      add\n      0x40\n      mstore\n      mload(0x40)\n      dup1\n      dup6\n      dup2\n      mstore\n      0x20\n      add\n      dup5\n      0xff\n      and\n      dup2\n      mstore\n      0x20\n      add\n      dup4\n      dup2\n      mstore\n      0x20\n      add\n      dup3\n      dup2\n      mstore\n      0x20\n      add\n      swap5\n      pop\n      pop\n      pop\n      pop\n      pop\n      0x20\n      mload(0x40)\n      0x20\n      dup2\n      sub\n      swap1\n      dup1\n      dup5\n      sub\n      swap1\n      dup6\n      gas\n      staticcall\n      iszero\n      dup1\n      iszero\n      tag_61\n      jumpi\n      returndatasize\n      0x00\n      dup1\n      returndatacopy\n      revert(0x00, returndatasize)\n    tag_61:\n      pop\n      pop\n      pop\n      mload(sub(mload(0x40), 0x20))\n      sub(shl(0xa0, 0x01), 0x01)\n        /* \"@boringcrypto/boring-solidity/contracts/ERC20.sol\":5122:5276  ecrecover(_getDigest(keccak256(abi.encode(PERMIT_SIGNATURE_HASH, owner_, spender, value, nonces[owner_]++, deadline))), v, r, s) ==... */\n      and\n      eq\n        /* \"@boringcrypto/boring-solidity/contracts/ERC20.sol\":5101:5326  require(... */\n      tag_62\n      jumpi\n      0x40\n      dup1\n      mload\n      shl(0xe5, 0x461bcd)\n      dup2\n      mstore\n      0x20\n      0x04\n      dup3\n      add\n      mstore\n      0x18\n      0x24\n      dup3\n      add\n      mstore\n      0x45524332303a20496e76616c6964205369676e61747572650000000000000000\n      0x44\n      dup3\n      add\n      mstore\n      swap1\n      mload\n      swap1\n      dup2\n      swap1\n      sub\n      0x64\n      add\n      swap1\n      revert\n    tag_62:\n      sub(shl(0xa0, 0x01), 0x01)\n        /* \"@boringcrypto/boring-solidity/contracts/ERC20.sol\":5336:5353  allowance[owner_] */\n      dup1\n      dup9\n      and\n      0x00\n      dup2\n      dup2\n      mstore\n        /* \"@boringcrypto/boring-solidity/contracts/ERC20.sol\":5336:5345  allowance */\n      0x01\n        /* \"@boringcrypto/boring-solidity/contracts/ERC20.sol\":5336:5353  allowance[owner_] */\n      0x20\n      swap1\n      dup2\n      mstore\n      0x40\n      dup1\n      dup4\n      keccak256\n        /* \"@boringcrypto/boring-solidity/contracts/ERC20.sol\":5336:5362  allowance[owner_][spender] */\n      swap5\n      dup12\n      and\n      dup1\n      dup5\n      mstore\n      swap5\n      dup3\n      mstore\n      swap2\n      dup3\n      swap1\n      keccak256\n        /* \"@boringcrypto/boring-solidity/contracts/ERC20.sol\":5336:5370  allowance[owner_][spender] = value */\n      dup10\n      swap1\n      sstore\n        /* \"@boringcrypto/boring-solidity/contracts/ERC20.sol\":5385:5417  Approval(owner_, spender, value) */\n      dup2\n      mload\n      dup10\n      dup2\n      mstore\n      swap2\n      mload\n      0x8c5be1e5ebec7d5bd14f71427d1e84f3dd0314c0f7b2291e5b200ac8c7c3b925\n      swap3\n      dup2\n      swap1\n      sub\n      swap1\n      swap2\n      add\n      swap1\n      log3\n        /* \"@boringcrypto/boring-solidity/contracts/ERC20.sol\":4768:5424  function permit(... */\n      pop\n      pop\n      pop\n      pop\n      pop\n      pop\n      pop\n      jump\t// out\n        /* \"@boringcrypto/boring-solidity/contracts/ERC20.sol\":809:882  mapping(address => mapping(address => uint256)) public override allowance */\n    tag_37:\n      0x01\n      0x20\n      swap1\n      dup2\n      mstore\n      0x00\n      swap3\n      dup4\n      mstore\n      0x40\n      dup1\n      dup5\n      keccak256\n      swap1\n      swap2\n      mstore\n      swap1\n      dup3\n      mstore\n      swap1\n      keccak256\n      sload\n      dup2\n      jump\t// out\n        /* \"@boringcrypto/boring-solidity/contracts/Domain.sol\":1546:1780  function _domainSeparator() internal view returns (bytes32) {... */\n    tag_48:\n        /* \"@boringcrypto/boring-solidity/contracts/Domain.sol\":1597:1604  bytes32 */\n      0x00\n        /* \"@boringcrypto/boring-solidity/contracts/Domain.sol\":1654:1663  chainid() */\n      chainid\n        /* \"@boringcrypto/boring-solidity/contracts/Domain.sol\":1691:1716  DOMAIN_SEPARATOR_CHAIN_ID */\n      immutable(\"0x24036ccf201a67256250eabe66d3f9fd72f9c4d022f225a8ee964be060dcb993\")\n        /* \"@boringcrypto/boring-solidity/contracts/Domain.sol\":1680:1716  chainId == DOMAIN_SEPARATOR_CHAIN_ID */\n      dup2\n      eq\n        /* \"@boringcrypto/boring-solidity/contracts/Domain.sol\":1680:1773  chainId == DOMAIN_SEPARATOR_CHAIN_ID ? _DOMAIN_SEPARATOR : _calculateDomainSeparator(chainId) */\n      tag_64\n      jumpi\n        /* \"@boringcrypto/boring-solidity/contracts/Domain.sol\":1739:1773  _calculateDomainSeparator(chainId) */\n      tag_65\n        /* \"@boringcrypto/boring-solidity/contracts/Domain.sol\":1765:1772  chainId */\n      dup2\n        /* \"@boringcrypto/boring-solidity/contracts/Domain.sol\":1739:1764  _calculateDomainSeparator */\n      tag_66\n        /* \"@boringcrypto/boring-solidity/contracts/Domain.sol\":1739:1773  _calculateDomainSeparator(chainId) */\n      jump\t// in\n    tag_65:\n        /* \"@boringcrypto/boring-solidity/contracts/Domain.sol\":1680:1773  chainId == DOMAIN_SEPARATOR_CHAIN_ID ? _DOMAIN_SEPARATOR : _calculateDomainSeparator(chainId) */\n      jump(tag_67)\n    tag_64:\n        /* \"@boringcrypto/boring-solidity/contracts/Domain.sol\":1719:1736  _DOMAIN_SEPARATOR */\n      immutable(\"0x7dbef654fd5c6145f82b72cd5dbbfc6d48fd276b8a7a4371a61d55985b9d6d8b\")\n        /* \"@boringcrypto/boring-solidity/contracts/Domain.sol\":1680:1773  chainId == DOMAIN_SEPARATOR_CHAIN_ID ? _DOMAIN_SEPARATOR : _calculateDomainSeparator(chainId) */\n    tag_67:\n        /* \"@boringcrypto/boring-solidity/contracts/Domain.sol\":1673:1773  return chainId == DOMAIN_SEPARATOR_CHAIN_ID ? _DOMAIN_SEPARATOR : _calculateDomainSeparator(chainId) */\n      swap2\n      pop\n      pop\n        /* \"@boringcrypto/boring-solidity/contracts/Domain.sol\":1546:1780  function _domainSeparator() internal view returns (bytes32) {... */\n      swap1\n      jump\t// out\n        /* \"@boringcrypto/boring-solidity/contracts/Domain.sol\":1786:2108  function _getDigest(bytes32 dataHash) internal view returns (bytes32 digest) {... */\n    tag_59:\n        /* \"@boringcrypto/boring-solidity/contracts/Domain.sol\":1847:1861  bytes32 digest */\n      0x00\n        /* \"@boringcrypto/boring-solidity/contracts/Domain.sol\":1959:1999  EIP191_PREFIX_FOR_EIP712_STRUCTURED_DATA */\n      mload(0x40)\n      dup1\n      0x40\n      add\n      0x40\n      mstore\n      dup1\n      0x02\n      dup2\n      mstore\n      0x20\n      add\n      shl(0xf0, 0x1901)\n      dup2\n      mstore\n      pop\n        /* \"@boringcrypto/boring-solidity/contracts/Domain.sol\":2021:2039  _domainSeparator() */\n      tag_69\n        /* \"@boringcrypto/boring-solidity/contracts/Domain.sol\":2021:2037  _domainSeparator */\n      tag_48\n        /* \"@boringcrypto/boring-solidity/contracts/Domain.sol\":2021:2039  _domainSeparator() */\n      jump\t// in\n    tag_69:\n        /* \"@boringcrypto/boring-solidity/contracts/Domain.sol\":2061:2069  dataHash */\n      dup4\n        /* \"@boringcrypto/boring-solidity/contracts/Domain.sol\":1921:2087  abi.encodePacked(... */\n      add(0x20, mload(0x40))\n      dup1\n      dup5\n      dup1\n      mload\n      swap1\n      0x20\n      add\n      swap1\n      dup1\n      dup4\n      dup4\n    tag_70:\n      0x20\n      dup4\n      lt\n      tag_72\n      jumpi\n      dup1\n      mload\n      dup3\n      mstore\n      not(0x1f)\n      swap1\n      swap3\n      add\n      swap2\n      0x20\n      swap2\n      dup3\n      add\n      swap2\n      add\n      jump(tag_70)\n    tag_72:\n      mload\n      dup2\n      mload\n      0x20\n      swap4\n      dup5\n      sub\n      0x0100\n      exp\n      not(0x00)\n      add\n      dup1\n      not\n      swap1\n      swap3\n      and\n      swap2\n      and\n      or\n      swap1\n      mstore\n      swap3\n      add\n      swap5\n      dup6\n      mstore\n      pop\n      dup4\n      dup2\n      add\n      swap3\n      swap1\n      swap3\n      mstore\n      pop\n      0x40\n      dup1\n      mload\n      dup1\n      dup5\n      sub\n      dup4\n      add\n      dup2\n      mstore\n      swap3\n      dup2\n      add\n      swap1\n      mstore\n        /* \"@boringcrypto/boring-solidity/contracts/Domain.sol\":1894:2101  keccak256(... */\n      dup2\n      mload\n      swap2\n      add\n      keccak256\n      swap4\n      swap3\n      pop\n      pop\n      pop\n        /* \"@boringcrypto/boring-solidity/contracts/Domain.sol\":1786:2108  function _getDigest(bytes32 dataHash) internal view returns (bytes32 digest) {... */\n      jump\t// out\n        /* \"@boringcrypto/boring-solidity/contracts/Domain.sol\":793:1062  function _calculateDomainSeparator(uint256 chainId) private view returns (bytes32) {... */\n    tag_66:\n        /* \"@boringcrypto/boring-solidity/contracts/Domain.sol\":916:1045  abi.encode(... */\n      0x40\n      dup1\n      mload\n        /* \"@boringcrypto/boring-solidity/contracts/Domain.sol\":388:456  keccak256(\"EIP712Domain(uint256 chainId,address verifyingContract)\") */\n      0x47e79534a245952e8b16893a336b85a3d9ea9fa8c573f3d803afb92a79469218\n        /* \"@boringcrypto/boring-solidity/contracts/Domain.sol\":916:1045  abi.encode(... */\n      0x20\n      dup1\n      dup4\n      add\n      swap2\n      swap1\n      swap2\n      mstore\n      dup2\n      dup4\n      add\n      swap4\n      swap1\n      swap4\n      mstore\n        /* \"@boringcrypto/boring-solidity/contracts/Domain.sol\":1026:1030  this */\n      address\n        /* \"@boringcrypto/boring-solidity/contracts/Domain.sol\":916:1045  abi.encode(... */\n      0x60\n      dup1\n      dup4\n      add\n      swap2\n      swap1\n      swap2\n      mstore\n      dup3\n      mload\n      dup1\n      dup4\n      sub\n      swap1\n      swap2\n      add\n      dup2\n      mstore\n      0x80\n      swap1\n      swap2\n      add\n      swap1\n      swap2\n      mstore\n        /* \"@boringcrypto/boring-solidity/contracts/Domain.sol\":893:1055  keccak256(... */\n      dup1\n      mload\n      swap2\n      add\n      keccak256\n      swap1\n        /* \"@boringcrypto/boring-solidity/contracts/Domain.sol\":793:1062  function _calculateDomainSeparator(uint256 chainId) private view returns (bytes32) {... */\n      jump\t// out\n\n    auxdata: 0xa264697066735822122066669cb64fcdb343571868a4302d6a1d0580290c47649c4d12fdd700e0027a1964736f6c634300060c0033\n}\n",
				"bytecode": {
					"linkReferences": {},
					"object": "60c060405234801561001057600080fd5b504660a081905261002081610029565b60805250610082565b604080517f47e79534a245952e8b16893a336b85a3d9ea9fa8c573f3d803afb92a794692186020808301919091528183019390935230606080830191909152825180830390910181526080909101909152805191012090565b60805160a051610a276100a5600039806108a15250806108d65250610a276000f3fe608060405234801561001057600080fd5b50600436106100935760003560e01c806370a082311161006657806370a08231146101305780637ecebe0014610156578063a9059cbb1461017c578063d505accf146101a8578063dd62ed3e146101fb57610093565b8063095ea7b31461009857806318160ddd146100d857806323b872dd146100f25780633644e51514610128575b600080fd5b6100c4600480360360408110156100ae57600080fd5b506001600160a01b038135169060200135610229565b604080519115158252519081900360200190f35b6100e061028f565b60408051918252519081900360200190f35b6100c46004803603606081101561010857600080fd5b506001600160a01b03813581169160208101359091169060400135610295565b6100e06104a0565b6100e06004803603602081101561014657600080fd5b50356001600160a01b03166104af565b6100e06004803603602081101561016c57600080fd5b50356001600160a01b03166104c1565b6100c46004803603604081101561019257600080fd5b506001600160a01b0381351690602001356104d3565b6101f9600480360360e08110156101be57600080fd5b506001600160a01b03813581169160208101359091169060408101359060608101359060ff6080820135169060a08101359060c00135610627565b005b6100e06004803603604081101561021157600080fd5b506001600160a01b038135811691602001351661087f565b3360008181526001602090815260408083206001600160a01b038716808552908352818420869055815186815291519394909390927f8c5be1e5ebec7d5bd14f71427d1e84f3dd0314c0f7b2291e5b200ac8c7c3b925928290030190a350600192915050565b60035481565b6000811561044b576001600160a01b03841660009081526020819052604090205482811015610304576040805162461bcd60e51b815260206004820152601660248201527545524332303a2062616c616e636520746f6f206c6f7760501b604482015290519081900360640190fd5b836001600160a01b0316856001600160a01b031614610449576001600160a01b038516600090815260016020908152604080832033845290915290205460001981146103c8578381101561039f576040805162461bcd60e51b815260206004820152601860248201527f45524332303a20616c6c6f77616e636520746f6f206c6f770000000000000000604482015290519081900360640190fd5b6001600160a01b0386166000908152600160209081526040808320338452909152902084820390555b6001600160a01b03851661041c576040805162461bcd60e51b815260206004820152601660248201527545524332303a206e6f207a65726f206164647265737360501b604482015290519081900360640190fd5b506001600160a01b0380861660009081526020819052604080822086850390559186168152208054840190555b505b826001600160a01b0316846001600160a01b03167fddf252ad1be2c89b69c2b068fc378daa952ba7f163c4a11628f55a4df523b3ef846040518082815260200191505060405180910390a35060019392505050565b60006104aa61089c565b905090565b60006020819052908152604090205481565b60026020526000908152604090205481565b6000811515806104eb5750336001600160a01b038416145b156105de57336000908152602081905260409020548281101561054e576040805162461bcd60e51b815260206004820152601660248201527545524332303a2062616c616e636520746f6f206c6f7760501b604482015290519081900360640190fd5b336001600160a01b038516146105dc576001600160a01b0384166105b2576040805162461bcd60e51b815260206004820152601660248201527545524332303a206e6f207a65726f206164647265737360501b604482015290519081900360640190fd5b3360009081526020819052604080822085840390556001600160a01b038616825290208054840190555b505b6040805183815290516001600160a01b0385169133917fddf252ad1be2c89b69c2b068fc378daa952ba7f163c4a11628f55a4df523b3ef9181900360200190a350600192915050565b6001600160a01b038716610682576040805162461bcd60e51b815260206004820152601860248201527f45524332303a204f776e65722063616e6e6f7420626520300000000000000000604482015290519081900360640190fd5b8342106106c7576040805162461bcd60e51b815260206004820152600e60248201526d115490cc8c0e88115e1c1a5c995960921b604482015290519081900360640190fd5b6001600160a01b038088166000818152600260209081526040918290208054600181810190925583517f6e71edae12b1b97f4d1f60370fef10105fa2faae0126114a169c64845d6126c981850152808501869052958c166060870152608086018b905260a086015260c08086018a90528351808703909101815260e0909501909252835193019290922090919061075d906108fc565b85858560405160008152602001604052604051808581526020018460ff1681526020018381526020018281526020019450505050506020604051602081039080840390855afa1580156107b4573d6000803e3d6000fd5b505050602060405103516001600160a01b031614610819576040805162461bcd60e51b815260206004820152601860248201527f45524332303a20496e76616c6964205369676e61747572650000000000000000604482015290519081900360640190fd5b6001600160a01b038088166000818152600160209081526040808320948b1680845294825291829020899055815189815291517f8c5be1e5ebec7d5bd14f71427d1e84f3dd0314c0f7b2291e5b200ac8c7c3b9259281900390910190a350505050505050565b600160209081526000928352604080842090915290825290205481565b6000467f000000000000000000000000000000000000000000000000000000000000000081146108d4576108cf81610998565b6108f6565b7f00000000000000000000000000000000000000000000000000000000000000005b91505090565b600060405180604001604052806002815260200161190160f01b81525061092161089c565b836040516020018084805190602001908083835b602083106109545780518252601f199092019160209182019101610935565b51815160209384036101000a600019018019909216911617905292019485525083810192909252506040805180840383018152928101905281519101209392505050565b604080517f47e79534a245952e8b16893a336b85a3d9ea9fa8c573f3d803afb92a79469218602080830191909152818301939093523060608083019190915282518083039091018152608090910190915280519101209056fea264697066735822122066669cb64fcdb343571868a4302d6a1d0580290c47649c4d12fdd700e0027a1964736f6c634300060c0033",
					"opcodes": "PUSH1 0xC0 PUSH1 0x40 MSTORE CALLVALUE DUP1 ISZERO PUSH2 0x10 JUMPI PUSH1 0x0 DUP1 REVERT JUMPDEST POP CHAINID PUSH1 0xA0 DUP2 SWAP1 MSTORE PUSH2 0x20 DUP2 PUSH2 0x29 JUMP JUMPDEST PUSH1 0x80 MSTORE POP PUSH2 0x82 JUMP JUMPDEST PUSH1 0x40 DUP1 MLOAD PUSH32 0x47E79534A245952E8B16893A336B85A3D9EA9FA8C573F3D803AFB92A79469218 PUSH1 0x20 DUP1 DUP4 ADD SWAP2 SWAP1 SWAP2 MSTORE DUP2 DUP4 ADD SWAP4 SWAP1 SWAP4 MSTORE ADDRESS PUSH1 0x60 DUP1 DUP4 ADD SWAP2 SWAP1 SWAP2 MSTORE DUP3 MLOAD DUP1 DUP4 SUB SWAP1 SWAP2 ADD DUP2 MSTORE PUSH1 0x80 SWAP1 SWAP2 ADD SWAP1 SWAP2 MSTORE DUP1 MLOAD SWAP2 ADD KECCAK256 SWAP1 JUMP JUMPDEST PUSH1 0x80 MLOAD PUSH1 0xA0 MLOAD PUSH2 0xA27 PUSH2 0xA5 PUSH1 0x0 CODECOPY DUP1 PUSH2 0x8A1 MSTORE POP DUP1 PUSH2 0x8D6 MSTORE POP PUSH2 0xA27 PUSH1 0x0 RETURN INVALID PUSH1 0x80 PUSH1 0x40 MSTORE CALLVALUE DUP1 ISZERO PUSH2 0x10 JUMPI PUSH1 0x0 DUP1 REVERT JUMPDEST POP PUSH1 0x4 CALLDATASIZE LT PUSH2 0x93 JUMPI PUSH1 0x0 CALLDATALOAD PUSH1 0xE0 SHR DUP1 PUSH4 0x70A08231 GT PUSH2 0x66 JUMPI DUP1 PUSH4 0x70A08231 EQ PUSH2 0x130 JUMPI DUP1 PUSH4 0x7ECEBE00 EQ PUSH2 0x156 JUMPI DUP1 PUSH4 0xA9059CBB EQ PUSH2 0x17C JUMPI DUP1 PUSH4 0xD505ACCF EQ PUSH2 0x1A8 JUMPI DUP1 PUSH4 0xDD62ED3E EQ PUSH2 0x1FB JUMPI PUSH2 0x93 JUMP JUMPDEST DUP1 PUSH4 0x95EA7B3 EQ PUSH2 0x98 JUMPI DUP1 PUSH4 0x18160DDD EQ PUSH2 0xD8 JUMPI DUP1 PUSH4 0x23B872DD EQ PUSH2 0xF2 JUMPI DUP1 PUSH4 0x3644E515 EQ PUSH2 0x128 JUMPI JUMPDEST PUSH1 0x0 DUP1 REVERT JUMPDEST PUSH2 0xC4 PUSH1 0x4 DUP1 CALLDATASIZE SUB PUSH1 0x40 DUP2 LT ISZERO PUSH2 0xAE JUMPI PUSH1 0x0 DUP1 REVERT JUMPDEST POP PUSH1 0x1 PUSH1 0x1 PUSH1 0xA0 SHL SUB DUP2 CALLDATALOAD AND SWAP1 PUSH1 0x20 ADD CALLDATALOAD PUSH2 0x229 JUMP JUMPDEST PUSH1 0x40 DUP1 MLOAD SWAP2 ISZERO ISZERO DUP3 MSTORE MLOAD SWAP1 DUP2 SWAP1 SUB PUSH1 0x20 ADD SWAP1 RETURN JUMPDEST PUSH2 0xE0 PUSH2 0x28F JUMP JUMPDEST PUSH1 0x40 DUP1 MLOAD SWAP2 DUP3 MSTORE MLOAD SWAP1 DUP2 SWAP1 SUB PUSH1 0x20 ADD SWAP1 RETURN JUMPDEST PUSH2 0xC4 PUSH1 0x4 DUP1 CALLDATASIZE SUB PUSH1 0x60 DUP2 LT ISZERO PUSH2 0x108 JUMPI PUSH1 0x0 DUP1 REVERT JUMPDEST POP PUSH1 0x1 PUSH1 0x1 PUSH1 0xA0 SHL SUB DUP2 CALLDATALOAD DUP2 AND SWAP2 PUSH1 0x20 DUP2 ADD CALLDATALOAD SWAP1 SWAP2 AND SWAP1 PUSH1 0x40 ADD CALLDATALOAD PUSH2 0x295 JUMP JUMPDEST PUSH2 0xE0 PUSH2 0x4A0 JUMP JUMPDEST PUSH2 0xE0 PUSH1 0x4 DUP1 CALLDATASIZE SUB PUSH1 0x20 DUP2 LT ISZERO PUSH2 0x146 JUMPI PUSH1 0x0 DUP1 REVERT JUMPDEST POP CALLDATALOAD PUSH1 0x1 PUSH1 0x1 PUSH1 0xA0 SHL SUB AND PUSH2 0x4AF JUMP JUMPDEST PUSH2 0xE0 PUSH1 0x4 DUP1 CALLDATASIZE SUB PUSH1 0x20 DUP2 LT ISZERO PUSH2 0x16C JUMPI PUSH1 0x0 DUP1 REVERT JUMPDEST POP CALLDATALOAD PUSH1 0x1 PUSH1 0x1 PUSH1 0xA0 SHL SUB AND PUSH2 0x4C1 JUMP JUMPDEST PUSH2 0xC4 PUSH1 0x4 DUP1 CALLDATASIZE SUB PUSH1 0x40 DUP2 LT ISZERO PUSH2 0x192 JUMPI PUSH1 0x0 DUP1 REVERT JUMPDEST POP PUSH1 0x1 PUSH1 0x1 PUSH1 0xA0 SHL SUB DUP2 CALLDATALOAD AND SWAP1 PUSH1 0x20 ADD CALLDATALOAD PUSH2 0x4D3 JUMP JUMPDEST PUSH2 0x1F9 PUSH1 0x4 DUP1 CALLDATASIZE SUB PUSH1 0xE0 DUP2 LT ISZERO PUSH2 0x1BE JUMPI PUSH1 0x0 DUP1 REVERT JUMPDEST POP PUSH1 0x1 PUSH1 0x1 PUSH1 0xA0 SHL SUB DUP2 CALLDATALOAD DUP2 AND SWAP2 PUSH1 0x20 DUP2 ADD CALLDATALOAD SWAP1 SWAP2 AND SWAP1 PUSH1 0x40 DUP2 ADD CALLDATALOAD SWAP1 PUSH1 0x60 DUP2 ADD CALLDATALOAD SWAP1 PUSH1 0xFF PUSH1 0x80 DUP3 ADD CALLDATALOAD AND SWAP1 PUSH1 0xA0 DUP2 ADD CALLDATALOAD SWAP1 PUSH1 0xC0 ADD CALLDATALOAD PUSH2 0x627 JUMP JUMPDEST STOP JUMPDEST PUSH2 0xE0 PUSH1 0x4 DUP1 CALLDATASIZE SUB PUSH1 0x40 DUP2 LT ISZERO PUSH2 0x211 JUMPI PUSH1 0x0 DUP1 REVERT JUMPDEST POP PUSH1 0x1 PUSH1 0x1 PUSH1 0xA0 SHL SUB DUP2 CALLDATALOAD DUP2 AND SWAP2 PUSH1 0x20 ADD CALLDATALOAD AND PUSH2 0x87F JUMP JUMPDEST CALLER PUSH1 0x0 DUP2 DUP2 MSTORE PUSH1 0x1 PUSH1 0x20 SWAP1 DUP2 MSTORE PUSH1 0x40 DUP1 DUP4 KECCAK256 PUSH1 0x1 PUSH1 0x1 PUSH1 0xA0 SHL SUB DUP8 AND DUP1 DUP6 MSTORE SWAP1 DUP4 MSTORE DUP2 DUP5 KECCAK256 DUP7 SWAP1 SSTORE DUP2 MLOAD DUP7 DUP2 MSTORE SWAP2 MLOAD SWAP4 SWAP5 SWAP1 SWAP4 SWAP1 SWAP3 PUSH32 0x8C5BE1E5EBEC7D5BD14F71427D1E84F3DD0314C0F7B2291E5B200AC8C7C3B925 SWAP3 DUP3 SWAP1 SUB ADD SWAP1 LOG3 POP PUSH1 0x1 SWAP3 SWAP2 POP POP JUMP JUMPDEST PUSH1 0x3 SLOAD DUP2 JUMP JUMPDEST PUSH1 0x0 DUP2 ISZERO PUSH2 0x44B JUMPI PUSH1 0x1 PUSH1 0x1 PUSH1 0xA0 SHL SUB DUP5 AND PUSH1 0x0 SWAP1 DUP2 MSTORE PUSH1 0x20 DUP2 SWAP1 MSTORE PUSH1 0x40 SWAP1 KECCAK256 SLOAD DUP3 DUP2 LT ISZERO PUSH2 0x304 JUMPI PUSH1 0x40 DUP1 MLOAD PUSH3 0x461BCD PUSH1 0xE5 SHL DUP2 MSTORE PUSH1 0x20 PUSH1 0x4 DUP3 ADD MSTORE PUSH1 0x16 PUSH1 0x24 DUP3 ADD MSTORE PUSH22 0x45524332303A2062616C616E636520746F6F206C6F77 PUSH1 0x50 SHL PUSH1 0x44 DUP3 ADD MSTORE SWAP1 MLOAD SWAP1 DUP2 SWAP1 SUB PUSH1 0x64 ADD SWAP1 REVERT JUMPDEST DUP4 PUSH1 0x1 PUSH1 0x1 PUSH1 0xA0 SHL SUB AND DUP6 PUSH1 0x1 PUSH1 0x1 PUSH1 0xA0 SHL SUB AND EQ PUSH2 0x449 JUMPI PUSH1 0x1 PUSH1 0x1 PUSH1 0xA0 SHL SUB DUP6 AND PUSH1 0x0 SWAP1 DUP2 MSTORE PUSH1 0x1 PUSH1 0x20 SWAP1 DUP2 MSTORE PUSH1 0x40 DUP1 DUP4 KECCAK256 CALLER DUP5 MSTORE SWAP1 SWAP2 MSTORE SWAP1 KECCAK256 SLOAD PUSH1 0x0 NOT DUP2 EQ PUSH2 0x3C8 JUMPI DUP4 DUP2 LT ISZERO PUSH2 0x39F JUMPI PUSH1 0x40 DUP1 MLOAD PUSH3 0x461BCD PUSH1 0xE5 SHL DUP2 MSTORE PUSH1 0x20 PUSH1 0x4 DUP3 ADD MSTORE PUSH1 0x18 PUSH1 0x24 DUP3 ADD MSTORE PUSH32 0x45524332303A20616C6C6F77616E636520746F6F206C6F770000000000000000 PUSH1 0x44 DUP3 ADD MSTORE SWAP1 MLOAD SWAP1 DUP2 SWAP1 SUB PUSH1 0x64 ADD SWAP1 REVERT JUMPDEST PUSH1 0x1 PUSH1 0x1 PUSH1 0xA0 SHL SUB DUP7 AND PUSH1 0x0 SWAP1 DUP2 MSTORE PUSH1 0x1 PUSH1 0x20 SWAP1 DUP2 MSTORE PUSH1 0x40 DUP1 DUP4 KECCAK256 CALLER DUP5 MSTORE SWAP1 SWAP2 MSTORE SWAP1 KECCAK256 DUP5 DUP3 SUB SWAP1 SSTORE JUMPDEST PUSH1 0x1 PUSH1 0x1 PUSH1 0xA0 SHL SUB DUP6 AND PUSH2 0x41C JUMPI PUSH1 0x40 DUP1 MLOAD PUSH3 0x461BCD PUSH1 0xE5 SHL DUP2 MSTORE PUSH1 0x20 PUSH1 0x4 DUP3 ADD MSTORE PUSH1 0x16 PUSH1 0x24 DUP3 ADD MSTORE PUSH22 0x45524332303A206E6F207A65726F2061646472657373 PUSH1 0x50 SHL PUSH1 0x44 DUP3 ADD MSTORE SWAP1 MLOAD SWAP1 DUP2 SWAP1 SUB PUSH1 0x64 ADD SWAP1 REVERT JUMPDEST POP PUSH1 0x1 PUSH1 0x1 PUSH1 0xA0 SHL SUB DUP1 DUP7 AND PUSH1 0x0 SWAP1 DUP2 MSTORE PUSH1 0x20 DUP2 SWAP1 MSTORE PUSH1 0x40 DUP1 DUP3 KECCAK256 DUP7 DUP6 SUB SWAP1 SSTORE SWAP2 DUP7 AND DUP2 MSTORE KECCAK256 DUP1 SLOAD DUP5 ADD SWAP1 SSTORE JUMPDEST POP JUMPDEST DUP3 PUSH1 0x1 PUSH1 0x1 PUSH1 0xA0 SHL SUB AND DUP5 PUSH1 0x1 PUSH1 0x1 PUSH1 0xA0 SHL SUB AND PUSH32 0xDDF252AD1BE2C89B69C2B068FC378DAA952BA7F163C4A11628F55A4DF523B3EF DUP5 PUSH1 0x40 MLOAD DUP1 DUP3 DUP2 MSTORE PUSH1 0x20 ADD SWAP2 POP POP PUSH1 0x40 MLOAD DUP1 SWAP2 SUB SWAP1 LOG3 POP PUSH1 0x1 SWAP4 SWAP3 POP POP POP JUMP JUMPDEST PUSH1 0x0 PUSH2 0x4AA PUSH2 0x89C JUMP JUMPDEST SWAP1 POP SWAP1 JUMP JUMPDEST PUSH1 0x0 PUSH1 0x20 DUP2 SWAP1 MSTORE SWAP1 DUP2 MSTORE PUSH1 0x40 SWAP1 KECCAK256 SLOAD DUP2 JUMP JUMPDEST PUSH1 0x2 PUSH1 0x20 MSTORE PUSH1 0x0 SWAP1 DUP2 MSTORE PUSH1 0x40 SWAP1 KECCAK256 SLOAD DUP2 JUMP JUMPDEST PUSH1 0x0 DUP2 ISZERO ISZERO DUP1 PUSH2 0x4EB JUMPI POP CALLER PUSH1 0x1 PUSH1 0x1 PUSH1 0xA0 SHL SUB DUP5 AND EQ JUMPDEST ISZERO PUSH2 0x5DE JUMPI CALLER PUSH1 0x0 SWAP1 DUP2 MSTORE PUSH1 0x20 DUP2 SWAP1 MSTORE PUSH1 0x40 SWAP1 KECCAK256 SLOAD DUP3 DUP2 LT ISZERO PUSH2 0x54E JUMPI PUSH1 0x40 DUP1 MLOAD PUSH3 0x461BCD PUSH1 0xE5 SHL DUP2 MSTORE PUSH1 0x20 PUSH1 0x4 DUP3 ADD MSTORE PUSH1 0x16 PUSH1 0x24 DUP3 ADD MSTORE PUSH22 0x45524332303A2062616C616E636520746F6F206C6F77 PUSH1 0x50 SHL PUSH1 0x44 DUP3 ADD MSTORE SWAP1 MLOAD SWAP1 DUP2 SWAP1 SUB PUSH1 0x64 ADD SWAP1 REVERT JUMPDEST CALLER PUSH1 0x1 PUSH1 0x1 PUSH1 0xA0 SHL SUB DUP6 AND EQ PUSH2 0x5DC JUMPI PUSH1 0x1 PUSH1 0x1 PUSH1 0xA0 SHL SUB DUP5 AND PUSH2 0x5B2 JUMPI PUSH1 0x40 DUP1 MLOAD PUSH3 0x461BCD PUSH1 0xE5 SHL DUP2 MSTORE PUSH1 0x20 PUSH1 0x4 DUP3 ADD MSTORE PUSH1 0x16 PUSH1 0x24 DUP3 ADD MSTORE PUSH22 0x45524332303A206E6F207A65726F2061646472657373 PUSH1 0x50 SHL PUSH1 0x44 DUP3 ADD MSTORE SWAP1 MLOAD SWAP1 DUP2 SWAP1 SUB PUSH1 0x64 ADD SWAP1 REVERT JUMPDEST CALLER PUSH1 0x0 SWAP1 DUP2 MSTORE PUSH1 0x20 DUP2 SWAP1 MSTORE PUSH1 0x40 DUP1 DUP3 KECCAK256 DUP6 DUP5 SUB SWAP1 SSTORE PUSH1 0x1 PUSH1 0x1 PUSH1 0xA0 SHL SUB DUP7 AND DUP3 MSTORE SWAP1 KECCAK256 DUP1 SLOAD DUP5 ADD SWAP1 SSTORE JUMPDEST POP JUMPDEST PUSH1 0x40 DUP1 MLOAD DUP4 DUP2 MSTORE SWAP1 MLOAD PUSH1 0x1 PUSH1 0x1 PUSH1 0xA0 SHL SUB DUP6 AND SWAP2 CALLER SWAP2 PUSH32 0xDDF252AD1BE2C89B69C2B068FC378DAA952BA7F163C4A11628F55A4DF523B3EF SWAP2 DUP2 SWAP1 SUB PUSH1 0x20 ADD SWAP1 LOG3 POP PUSH1 0x1 SWAP3 SWAP2 POP POP JUMP JUMPDEST PUSH1 0x1 PUSH1 0x1 PUSH1 0xA0 SHL SUB DUP8 AND PUSH2 0x682 JUMPI PUSH1 0x40 DUP1 MLOAD PUSH3 0x461BCD PUSH1 0xE5 SHL DUP2 MSTORE PUSH1 0x20 PUSH1 0x4 DUP3 ADD MSTORE PUSH1 0x18 PUSH1 0x24 DUP3 ADD MSTORE PUSH32 0x45524332303A204F776E65722063616E6E6F7420626520300000000000000000 PUSH1 0x44 DUP3 ADD MSTORE SWAP1 MLOAD SWAP1 DUP2 SWAP1 SUB PUSH1 0x64 ADD SWAP1 REVERT JUMPDEST DUP4 TIMESTAMP LT PUSH2 0x6C7 JUMPI PUSH1 0x40 DUP1 MLOAD PUSH3 0x461BCD PUSH1 0xE5 SHL DUP2 MSTORE PUSH1 0x20 PUSH1 0x4 DUP3 ADD MSTORE PUSH1 0xE PUSH1 0x24 DUP3 ADD MSTORE PUSH14 0x115490CC8C0E88115E1C1A5C9959 PUSH1 0x92 SHL PUSH1 0x44 DUP3 ADD MSTORE SWAP1 MLOAD SWAP1 DUP2 SWAP1 SUB PUSH1 0x64 ADD SWAP1 REVERT JUMPDEST PUSH1 0x1 PUSH1 0x1 PUSH1 0xA0 SHL SUB DUP1 DUP9 AND PUSH1 0x0 DUP2 DUP2 MSTORE PUSH1 0x2 PUSH1 0x20 SWAP1 DUP2 MSTORE PUSH1 0x40 SWAP2 DUP3 SWAP1 KECCAK256 DUP1 SLOAD PUSH1 0x1 DUP2 DUP2 ADD SWAP1 SWAP3 SSTORE DUP4 MLOAD PUSH32 0x6E71EDAE12B1B97F4D1F60370FEF10105FA2FAAE0126114A169C64845D6126C9 DUP2 DUP6 ADD MSTORE DUP1 DUP6 ADD DUP7 SWAP1 MSTORE SWAP6 DUP13 AND PUSH1 0x60 DUP8 ADD MSTORE PUSH1 0x80 DUP7 ADD DUP12 SWAP1 MSTORE PUSH1 0xA0 DUP7 ADD MSTORE PUSH1 0xC0 DUP1 DUP7 ADD DUP11 SWAP1 MSTORE DUP4 MLOAD DUP1 DUP8 SUB SWAP1 SWAP2 ADD DUP2 MSTORE PUSH1 0xE0 SWAP1 SWAP6 ADD SWAP1 SWAP3 MSTORE DUP4 MLOAD SWAP4 ADD SWAP3 SWAP1 SWAP3 KECCAK256 SWAP1 SWAP2 SWAP1 PUSH2 0x75D SWAP1 PUSH2 0x8FC JUMP JUMPDEST DUP6 DUP6 DUP6 PUSH1 0x40 MLOAD PUSH1 0x0 DUP2 MSTORE PUSH1 0x20 ADD PUSH1 0x40 MSTORE PUSH1 0x40 MLOAD DUP1 DUP6 DUP2 MSTORE PUSH1 0x20 ADD DUP5 PUSH1 0xFF AND DUP2 MSTORE PUSH1 0x20 ADD DUP4 DUP2 MSTORE PUSH1 0x20 ADD DUP3 DUP2 MSTORE PUSH1 0x20 ADD SWAP5 POP POP POP POP POP PUSH1 0x20 PUSH1 0x40 MLOAD PUSH1 0x20 DUP2 SUB SWAP1 DUP1 DUP5 SUB SWAP1 DUP6 GAS STATICCALL ISZERO DUP1 ISZERO PUSH2 0x7B4 JUMPI RETURNDATASIZE PUSH1 0x0 DUP1 RETURNDATACOPY RETURNDATASIZE PUSH1 0x0 REVERT JUMPDEST POP POP POP PUSH1 0x20 PUSH1 0x40 MLOAD SUB MLOAD PUSH1 0x1 PUSH1 0x1 PUSH1 0xA0 SHL SUB AND EQ PUSH2 0x819 JUMPI PUSH1 0x40 DUP1 MLOAD PUSH3 0x461BCD PUSH1 0xE5 SHL DUP2 MSTORE PUSH1 0x20 PUSH1 0x4 DUP3 ADD MSTORE PUSH1 0x18 PUSH1 0x24 DUP3 ADD MSTORE PUSH32 0x45524332303A20496E76616C6964205369676E61747572650000000000000000 PUSH1 0x44 DUP3 ADD MSTORE SWAP1 MLOAD SWAP1 DUP2 SWAP1 SUB PUSH1 0x64 ADD SWAP1 REVERT JUMPDEST PUSH1 0x1 PUSH1 0x1 PUSH1 0xA0 SHL SUB DUP1 DUP9 AND PUSH1 0x0 DUP2 DUP2 MSTORE PUSH1 0x1 PUSH1 0x20 SWAP1 DUP2 MSTORE PUSH1 0x40 DUP1 DUP4 KECCAK256 SWAP5 DUP12 AND DUP1 DUP5 MSTORE SWAP5 DUP3 MSTORE SWAP2 DUP3 SWAP1 KECCAK256 DUP10 SWAP1 SSTORE DUP2 MLOAD DUP10 DUP2 MSTORE SWAP2 MLOAD PUSH32 0x8C5BE1E5EBEC7D5BD14F71427D1E84F3DD0314C0F7B2291E5B200AC8C7C3B925 SWAP3 DUP2 SWAP1 SUB SWAP1 SWAP2 ADD SWAP1 LOG3 POP POP POP POP POP POP POP JUMP JUMPDEST PUSH1 0x1 PUSH1 0x20 SWAP1 DUP2 MSTORE PUSH1 0x0 SWAP3 DUP4 MSTORE PUSH1 0x40 DUP1 DUP5 KECCAK256 SWAP1 SWAP2 MSTORE SWAP1 DUP3 MSTORE SWAP1 KECCAK256 SLOAD DUP2 JUMP JUMPDEST PUSH1 0x0 CHAINID PUSH32 0x0 DUP2 EQ PUSH2 0x8D4 JUMPI PUSH2 0x8CF DUP2 PUSH2 0x998 JUMP JUMPDEST PUSH2 0x8F6 JUMP JUMPDEST PUSH32 0x0 JUMPDEST SWAP2 POP POP SWAP1 JUMP JUMPDEST PUSH1 0x0 PUSH1 0x40 MLOAD DUP1 PUSH1 0x40 ADD PUSH1 0x40 MSTORE DUP1 PUSH1 0x2 DUP2 MSTORE PUSH1 0x20 ADD PUSH2 0x1901 PUSH1 0xF0 SHL DUP2 MSTORE POP PUSH2 0x921 PUSH2 0x89C JUMP JUMPDEST DUP4 PUSH1 0x40 MLOAD PUSH1 0x20 ADD DUP1 DUP5 DUP1 MLOAD SWAP1 PUSH1 0x20 ADD SWAP1 DUP1 DUP4 DUP4 JUMPDEST PUSH1 0x20 DUP4 LT PUSH2 0x954 JUMPI DUP1 MLOAD DUP3 MSTORE PUSH1 0x1F NOT SWAP1 SWAP3 ADD SWAP2 PUSH1 0x20 SWAP2 DUP3 ADD SWAP2 ADD PUSH2 0x935 JUMP JUMPDEST MLOAD DUP2 MLOAD PUSH1 0x20 SWAP4 DUP5 SUB PUSH2 0x100 EXP PUSH1 0x0 NOT ADD DUP1 NOT SWAP1 SWAP3 AND SWAP2 AND OR SWAP1 MSTORE SWAP3 ADD SWAP5 DUP6 MSTORE POP DUP4 DUP2 ADD SWAP3 SWAP1 SWAP3 MSTORE POP PUSH1 0x40 DUP1 MLOAD DUP1 DUP5 SUB DUP4 ADD DUP2 MSTORE SWAP3 DUP2 ADD SWAP1 MSTORE DUP2 MLOAD SWAP2 ADD KECCAK256 SWAP4 SWAP3 POP POP POP JUMP JUMPDEST PUSH1 0x40 DUP1 MLOAD PUSH32 0x47E79534A245952E8B16893A336B85A3D9EA9FA8C573F3D803AFB92A79469218 PUSH1 0x20 DUP1 DUP4 ADD SWAP2 SWAP1 SWAP2 MSTORE DUP2 DUP4 ADD SWAP4 SWAP1 SWAP4 MSTORE ADDRESS PUSH1 0x60 DUP1 DUP4 ADD SWAP2 SWAP1 SWAP2 MSTORE DUP3 MLOAD DUP1 DUP4 SUB SWAP1 SWAP2 ADD DUP2 MSTORE PUSH1 0x80 SWAP1 SWAP2 ADD SWAP1 SWAP2 MSTORE DUP1 MLOAD SWAP2 ADD KECCAK256 SWAP1 JUMP INVALID LOG2 PUSH5 0x6970667358 0x22 SLT KECCAK256 PUSH7 0x669CB64FCDB343 JUMPI XOR PUSH9 0xA4302D6A1D0580290C SELFBALANCE PUSH5 0x9C4D12FDD7 STOP 0xE0 MUL PUSH27 0x1964736F6C634300060C0033000000000000000000000000000000 "
				},
				"gasEstimates": {
					"creation": {
						"codeDepositCost": "519800",
						"executionCost": "infinite",
						"totalCost": "infinite"
					},
					"external": {
						"DOMAIN_SEPARATOR()": "infinite",
						"allowance(address,address)": "1305",
						"approve(address,uint256)": "22278",
						"balanceOf(address)": "1127",
						"nonces(address)": "1146",
						"permit(address,address,uint256,uint256,uint8,bytes32,bytes32)": "infinite",
						"totalSupply()": "1021",
						"transfer(address,uint256)": "44189",
						"transferFrom(address,address,uint256)": "65421"
					},
					"internal": {
						"_burn(address,uint256)": "infinite",
						"_mint(address,uint256)": "infinite"
					}
				},
				"methodIdentifiers": {
					"DOMAIN_SEPARATOR()": "3644e515",
					"allowance(address,address)": "dd62ed3e",
					"approve(address,uint256)": "095ea7b3",
					"balanceOf(address)": "70a08231",
					"nonces(address)": "7ecebe00",
					"permit(address,address,uint256,uint256,uint8,bytes32,bytes32)": "d505accf",
					"totalSupply()": "18160ddd",
					"transfer(address,uint256)": "a9059cbb",
					"transferFrom(address,address,uint256)": "23b872dd"
				}
			},
			"storageLayout": {
				"storage": [
					{
						"astId": 238,
						"contract": "@boringcrypto/boring-solidity/contracts/ERC20.sol:ERC20WithSupply",
						"label": "balanceOf",
						"offset": 0,
						"slot": "0",
						"type": "t_mapping(t_address,t_uint256)"
					},
					{
						"astId": 246,
						"contract": "@boringcrypto/boring-solidity/contracts/ERC20.sol:ERC20WithSupply",
						"label": "allowance",
						"offset": 0,
						"slot": "1",
						"type": "t_mapping(t_address,t_mapping(t_address,t_uint256))"
					},
					{
						"astId": 251,
						"contract": "@boringcrypto/boring-solidity/contracts/ERC20.sol:ERC20WithSupply",
						"label": "nonces",
						"offset": 0,
						"slot": "2",
						"type": "t_mapping(t_address,t_uint256)"
					},
					{
						"astId": 575,
						"contract": "@boringcrypto/boring-solidity/contracts/ERC20.sol:ERC20WithSupply",
						"label": "totalSupply",
						"offset": 0,
						"slot": "3",
						"type": "t_uint256"
					}
				],
				"types": {
					"t_address": {
						"encoding": "inplace",
						"label": "address",
						"numberOfBytes": "20"
					},
					"t_mapping(t_address,t_mapping(t_address,t_uint256))": {
						"encoding": "mapping",
						"key": "t_address",
						"label": "mapping(address => mapping(address => uint256))",
						"numberOfBytes": "32",
						"value": "t_mapping(t_address,t_uint256)"
					},
					"t_mapping(t_address,t_uint256)": {
						"encoding": "mapping",
						"key": "t_address",
						"label": "mapping(address => uint256)",
						"numberOfBytes": "32",
						"value": "t_uint256"
					},
					"t_uint256": {
						"encoding": "inplace",
						"label": "uint256",
						"numberOfBytes": "32"
					}
				}
			},
			"userdoc": {
				"kind": "user",
				"methods": {
					"allowance(address,address)": {
						"notice": "owner > spender > allowance mapping."
					},
					"approve(address,uint256)": {
						"notice": "Approves `amount` from sender to be spend by `spender`."
					},
					"balanceOf(address)": {
						"notice": "owner > balance mapping."
					},
					"nonces(address)": {
						"notice": "owner > nonce mapping. Used in `permit`."
					},
					"permit(address,address,uint256,uint256,uint8,bytes32,bytes32)": {
						"notice": "Approves `value` from `owner_` to be spend by `spender`."
					},
					"transfer(address,uint256)": {
						"notice": "Transfers `amount` tokens from `msg.sender` to `to`."
					},
					"transferFrom(address,address,uint256)": {
						"notice": "Transfers `amount` tokens from `from` to `to`. Caller needs approval for `from`."
					}
				},
				"version": 1
			}
		}
	}
}