{
	"@boringcrypto/boring-solidity/contracts/BoringBatchable.sol": {
		"BoringBatchable": {
			"abi": [
				{
					"inputs": [
						{
							"internalType": "bytes[]",
							"name": "calls",
							"type": "bytes[]"
						},
						{
							"internalType": "bool",
							"name": "revertOnFail",
							"type": "bool"
						}
					],
					"name": "batch",
					"outputs": [],
					"stateMutability": "payable",
					"type": "function"
				},
				{
					"inputs": [
						{
							"internalType": "contract IERC20",
							"name": "token",
							"type": "address"
						},
						{
							"internalType": "address",
							"name": "from",
							"type": "address"
						},
						{
							"internalType": "address",
							"name": "to",
							"type": "address"
						},
						{
							"internalType": "uint256",
							"name": "amount",
							"type": "uint256"
						},
						{
							"internalType": "uint256",
							"name": "deadline",
							"type": "uint256"
						},
						{
							"internalType": "uint8",
							"name": "v",
							"type": "uint8"
						},
						{
							"internalType": "bytes32",
							"name": "r",
							"type": "bytes32"
						},
						{
							"internalType": "bytes32",
							"name": "s",
							"type": "bytes32"
						}
					],
					"name": "permitToken",
					"outputs": [],
					"stateMutability": "nonpayable",
					"type": "function"
				}
			],
			"devdoc": {
				"kind": "dev",
				"methods": {
					"batch(bytes[],bool)": {
						"params": {
							"calls": "An array of inputs for each call.",
							"revertOnFail": "If True then reverts after a failed call and stops doing further calls."
						}
					}
				},
				"version": 1
			},
			"evm": {
				"assembly": "    /* \"@boringcrypto/boring-solidity/contracts/BoringBatchable.sol\":1927:2580  contract BoringBatchable is BaseBoringBatchable {... */\n  mstore(0x40, 0x80)\n  callvalue\n  dup1\n  iszero\n  tag_1\n  jumpi\n  0x00\n  dup1\n  revert\ntag_1:\n  pop\n  dataSize(sub_0)\n  dup1\n  dataOffset(sub_0)\n  0x00\n  codecopy\n  0x00\n  return\nstop\n\nsub_0: assembly {\n        /* \"@boringcrypto/boring-solidity/contracts/BoringBatchable.sol\":1927:2580  contract BoringBatchable is BaseBoringBatchable {... */\n      mstore(0x40, 0x80)\n      jumpi(tag_1, lt(calldatasize, 0x04))\n      shr(0xe0, calldataload(0x00))\n      dup1\n      0x7c516e94\n      eq\n      tag_2\n      jumpi\n      dup1\n      0xd2423b51\n      eq\n      tag_3\n      jumpi\n    tag_1:\n      0x00\n      dup1\n      revert\n        /* \"@boringcrypto/boring-solidity/contracts/BoringBatchable.sol\":2309:2578  function permitToken(... */\n    tag_2:\n      callvalue\n      dup1\n      iszero\n      tag_4\n      jumpi\n      0x00\n      dup1\n      revert\n    tag_4:\n      pop\n      tag_5\n      tag_6\n      calldatasize\n      0x04\n      tag_7\n      jump\t// in\n    tag_6:\n      tag_8\n      jump\t// in\n    tag_5:\n      stop\n        /* \"@boringcrypto/boring-solidity/contracts/BoringBatchable.sol\":1585:1923  function batch(bytes[] calldata calls, bool revertOnFail) external payable {... */\n    tag_3:\n      tag_5\n      tag_10\n      calldatasize\n      0x04\n      tag_11\n      jump\t// in\n    tag_10:\n      tag_12\n      jump\t// in\n        /* \"@boringcrypto/boring-solidity/contracts/BoringBatchable.sol\":2309:2578  function permitToken(... */\n    tag_8:\n        /* \"@boringcrypto/boring-solidity/contracts/BoringBatchable.sol\":2522:2571  token.permit(from, to, amount, deadline, v, r, s) */\n      mload(0x40)\n      shl(0xe0, 0xd505accf)\n      dup2\n      mstore\n      sub(shl(0xa0, 0x01), 0x01)\n        /* \"@boringcrypto/boring-solidity/contracts/BoringBatchable.sol\":2522:2534  token.permit */\n      dup10\n      and\n      swap1\n      0xd505accf\n      swap1\n        /* \"@boringcrypto/boring-solidity/contracts/BoringBatchable.sol\":2522:2571  token.permit(from, to, amount, deadline, v, r, s) */\n      tag_14\n      swap1\n        /* \"@boringcrypto/boring-solidity/contracts/BoringBatchable.sol\":2535:2539  from */\n      dup11\n      swap1\n        /* \"@boringcrypto/boring-solidity/contracts/BoringBatchable.sol\":2541:2543  to */\n      dup11\n      swap1\n        /* \"@boringcrypto/boring-solidity/contracts/BoringBatchable.sol\":2545:2551  amount */\n      dup11\n      swap1\n        /* \"@boringcrypto/boring-solidity/contracts/BoringBatchable.sol\":2553:2561  deadline */\n      dup11\n      swap1\n        /* \"@boringcrypto/boring-solidity/contracts/BoringBatchable.sol\":2563:2564  v */\n      dup11\n      swap1\n        /* \"@boringcrypto/boring-solidity/contracts/BoringBatchable.sol\":2566:2567  r */\n      dup11\n      swap1\n        /* \"@boringcrypto/boring-solidity/contracts/BoringBatchable.sol\":2569:2570  s */\n      dup11\n      swap1\n        /* \"@boringcrypto/boring-solidity/contracts/BoringBatchable.sol\":2522:2571  token.permit(from, to, amount, deadline, v, r, s) */\n      0x04\n      add\n      tag_15\n      jump\t// in\n    tag_14:\n      0x00\n      mload(0x40)\n      dup1\n      dup4\n      sub\n      dup2\n      0x00\n      dup8\n      dup1\n      extcodesize\n      iszero\n      dup1\n      iszero\n      tag_16\n      jumpi\n      0x00\n      dup1\n      revert\n    tag_16:\n      pop\n      gas\n      call\n      iszero\n      dup1\n      iszero\n      tag_18\n      jumpi\n      returndatasize\n      0x00\n      dup1\n      returndatacopy\n      revert(0x00, returndatasize)\n    tag_18:\n      pop\n      pop\n      pop\n      pop\n        /* \"@boringcrypto/boring-solidity/contracts/BoringBatchable.sol\":2309:2578  function permitToken(... */\n      pop\n      pop\n      pop\n      pop\n      pop\n      pop\n      pop\n      pop\n      jump\t// out\n        /* \"@boringcrypto/boring-solidity/contracts/BoringBatchable.sol\":1585:1923  function batch(bytes[] calldata calls, bool revertOnFail) external payable {... */\n    tag_12:\n        /* \"@boringcrypto/boring-solidity/contracts/BoringBatchable.sol\":1675:1684  uint256 i */\n      0x00\n        /* \"@boringcrypto/boring-solidity/contracts/BoringBatchable.sol\":1670:1917  for (uint256 i = 0; i < calls.length; i++) {... */\n    tag_20:\n        /* \"@boringcrypto/boring-solidity/contracts/BoringBatchable.sol\":1690:1706  i < calls.length */\n      dup3\n      dup2\n      lt\n        /* \"@boringcrypto/boring-solidity/contracts/BoringBatchable.sol\":1670:1917  for (uint256 i = 0; i < calls.length; i++) {... */\n      iszero\n      tag_21\n      jumpi\n        /* \"@boringcrypto/boring-solidity/contracts/BoringBatchable.sol\":1728:1740  bool success */\n      0x00\n        /* \"@boringcrypto/boring-solidity/contracts/BoringBatchable.sol\":1742:1761  bytes memory result */\n      0x60\n        /* \"@boringcrypto/boring-solidity/contracts/BoringBatchable.sol\":1773:1777  this */\n      address\n        /* \"@boringcrypto/boring-solidity/contracts/BoringBatchable.sol\":1792:1797  calls */\n      dup7\n      dup7\n        /* \"@boringcrypto/boring-solidity/contracts/BoringBatchable.sol\":1798:1799  i */\n      dup6\n        /* \"@boringcrypto/boring-solidity/contracts/BoringBatchable.sol\":1792:1800  calls[i] */\n      dup2\n      dup2\n      lt\n      tag_23\n      jumpi\n      invalid\n    tag_23:\n      swap1\n      pop\n      0x20\n      mul\n      dup2\n      add\n      swap1\n      tag_24\n      swap2\n      swap1\n      tag_25\n      jump\t// in\n    tag_24:\n        /* \"@boringcrypto/boring-solidity/contracts/BoringBatchable.sol\":1765:1801  address(this).delegatecall(calls[i]) */\n      mload(0x40)\n      tag_26\n      swap3\n      swap2\n      swap1\n      tag_27\n      jump\t// in\n    tag_26:\n      0x00\n      mload(0x40)\n      dup1\n      dup4\n      sub\n      dup2\n      dup6\n      gas\n      delegatecall\n      swap2\n      pop\n      pop\n      returndatasize\n      dup1\n      0x00\n      dup2\n      eq\n      tag_30\n      jumpi\n      mload(0x40)\n      swap2\n      pop\n      and(add(returndatasize, 0x3f), not(0x1f))\n      dup3\n      add\n      0x40\n      mstore\n      returndatasize\n      dup3\n      mstore\n      returndatasize\n      0x00\n      0x20\n      dup5\n      add\n      returndatacopy\n      jump(tag_29)\n    tag_30:\n      0x60\n      swap2\n      pop\n    tag_29:\n      pop\n        /* \"@boringcrypto/boring-solidity/contracts/BoringBatchable.sol\":1727:1801  (bool success, bytes memory result) = address(this).delegatecall(calls[i]) */\n      swap2\n      pop\n      swap2\n      pop\n        /* \"@boringcrypto/boring-solidity/contracts/BoringBatchable.sol\":1820:1827  success */\n      dup2\n        /* \"@boringcrypto/boring-solidity/contracts/BoringBatchable.sol\":1819:1827  !success */\n      iszero\n        /* \"@boringcrypto/boring-solidity/contracts/BoringBatchable.sol\":1819:1843  !success && revertOnFail */\n      dup1\n      iszero\n      tag_31\n      jumpi\n      pop\n        /* \"@boringcrypto/boring-solidity/contracts/BoringBatchable.sol\":1831:1843  revertOnFail */\n      dup4\n        /* \"@boringcrypto/boring-solidity/contracts/BoringBatchable.sol\":1819:1843  !success && revertOnFail */\n    tag_31:\n        /* \"@boringcrypto/boring-solidity/contracts/BoringBatchable.sol\":1815:1907  if (!success && revertOnFail) {... */\n      iszero\n      tag_32\n      jumpi\n        /* \"@boringcrypto/boring-solidity/contracts/BoringBatchable.sol\":1870:1891  _getRevertMsg(result) */\n      tag_33\n        /* \"@boringcrypto/boring-solidity/contracts/BoringBatchable.sol\":1884:1890  result */\n      dup2\n        /* \"@boringcrypto/boring-solidity/contracts/BoringBatchable.sol\":1870:1883  _getRevertMsg */\n      tag_34\n        /* \"@boringcrypto/boring-solidity/contracts/BoringBatchable.sol\":1870:1891  _getRevertMsg(result) */\n      jump\t// in\n    tag_33:\n        /* \"@boringcrypto/boring-solidity/contracts/BoringBatchable.sol\":1863:1892  revert(_getRevertMsg(result)) */\n      mload(0x40)\n      shl(0xe5, 0x461bcd)\n      dup2\n      mstore\n      0x04\n      add\n      tag_35\n      swap2\n      swap1\n      tag_36\n      jump\t// in\n    tag_35:\n      mload(0x40)\n      dup1\n      swap2\n      sub\n      swap1\n      revert\n        /* \"@boringcrypto/boring-solidity/contracts/BoringBatchable.sol\":1815:1907  if (!success && revertOnFail) {... */\n    tag_32:\n      pop\n      pop\n        /* \"@boringcrypto/boring-solidity/contracts/BoringBatchable.sol\":1708:1711  i++ */\n      0x01\n      add\n        /* \"@boringcrypto/boring-solidity/contracts/BoringBatchable.sol\":1670:1917  for (uint256 i = 0; i < calls.length; i++) {... */\n      jump(tag_20)\n    tag_21:\n      pop\n        /* \"@boringcrypto/boring-solidity/contracts/BoringBatchable.sol\":1585:1923  function batch(bytes[] calldata calls, bool revertOnFail) external payable {... */\n      pop\n      pop\n      pop\n      jump\t// out\n        /* \"@boringcrypto/boring-solidity/contracts/BoringBatchable.sol\":477:964  function _getRevertMsg(bytes memory _returnData) internal pure returns (string memory) {... */\n    tag_34:\n        /* \"@boringcrypto/boring-solidity/contracts/BoringBatchable.sol\":549:562  string memory */\n      0x60\n        /* \"@boringcrypto/boring-solidity/contracts/BoringBatchable.sol\":710:712  68 */\n      0x44\n        /* \"@boringcrypto/boring-solidity/contracts/BoringBatchable.sol\":689:700  _returnData */\n      dup3\n        /* \"@boringcrypto/boring-solidity/contracts/BoringBatchable.sol\":689:707  _returnData.length */\n      mload\n        /* \"@boringcrypto/boring-solidity/contracts/BoringBatchable.sol\":689:712  _returnData.length < 68 */\n      lt\n        /* \"@boringcrypto/boring-solidity/contracts/BoringBatchable.sol\":685:752  if (_returnData.length < 68) return \"Transaction reverted silently\" */\n      iszero\n      tag_38\n      jumpi\n      pop\n        /* \"@boringcrypto/boring-solidity/contracts/BoringBatchable.sol\":714:752  return \"Transaction reverted silently\" */\n      0x40\n      dup1\n      mload\n      dup1\n      dup3\n      add\n      swap1\n      swap2\n      mstore\n      0x1d\n      dup2\n      mstore\n      0x5472616e73616374696f6e2072657665727465642073696c656e746c79000000\n      0x20\n      dup3\n      add\n      mstore\n      jump(tag_37)\n        /* \"@boringcrypto/boring-solidity/contracts/BoringBatchable.sol\":685:752  if (_returnData.length < 68) return \"Transaction reverted silently\" */\n    tag_38:\n        /* \"@boringcrypto/boring-solidity/contracts/BoringBatchable.sol\":852:856  0x04 */\n      0x04\n        /* \"@boringcrypto/boring-solidity/contracts/BoringBatchable.sol\":839:850  _returnData */\n      dup3\n        /* \"@boringcrypto/boring-solidity/contracts/BoringBatchable.sol\":835:857  add(_returnData, 0x04) */\n      add\n        /* \"@boringcrypto/boring-solidity/contracts/BoringBatchable.sol\":820:857  _returnData := add(_returnData, 0x04) */\n      swap2\n      pop\n        /* \"@boringcrypto/boring-solidity/contracts/BoringBatchable.sol\":894:905  _returnData */\n      dup2\n        /* \"@boringcrypto/boring-solidity/contracts/BoringBatchable.sol\":883:916  abi.decode(_returnData, (string)) */\n      dup1\n      0x20\n      add\n      swap1\n      mload\n      dup2\n      add\n      swap1\n      tag_39\n      swap2\n      swap1\n      tag_40\n      jump\t// in\n    tag_39:\n        /* \"@boringcrypto/boring-solidity/contracts/BoringBatchable.sol\":876:916  return abi.decode(_returnData, (string)) */\n      swap1\n      pop\n        /* \"@boringcrypto/boring-solidity/contracts/BoringBatchable.sol\":477:964  function _getRevertMsg(bytes memory _returnData) internal pure returns (string memory) {... */\n    tag_37:\n      swap2\n      swap1\n      pop\n      jump\t// out\n        /* \"--CODEGEN--\":1685:2223   */\n    tag_11:\n      0x00\n      dup1\n      0x00\n        /* \"--CODEGEN--\":1849:1851   */\n      0x40\n        /* \"--CODEGEN--\":1837:1846   */\n      dup5\n        /* \"--CODEGEN--\":1828:1835   */\n      dup7\n        /* \"--CODEGEN--\":1824:1847   */\n      sub\n        /* \"--CODEGEN--\":1820:1852   */\n      slt\n        /* \"--CODEGEN--\":1817:1819   */\n      iszero\n      tag_43\n      jumpi\n      dup3\n      dup4\n        /* \"--CODEGEN--\":1855:1867   */\n      revert\n        /* \"--CODEGEN--\":1817:1819   */\n    tag_43:\n        /* \"--CODEGEN--\":1913:1930   */\n      dup4\n        /* \"--CODEGEN--\":1900:1931   */\n      calldataload\n        /* \"--CODEGEN--\":1951:1969   */\n      0xffffffffffffffff\n      dup1\n        /* \"--CODEGEN--\":1943:1949   */\n      dup3\n        /* \"--CODEGEN--\":1940:1970   */\n      gt\n        /* \"--CODEGEN--\":1937:1939   */\n      iszero\n      tag_44\n      jumpi\n      dup5\n      dup6\n        /* \"--CODEGEN--\":1973:1985   */\n      revert\n        /* \"--CODEGEN--\":1937:1939   */\n    tag_44:\n        /* \"--CODEGEN--\":2085:2091   */\n      dup2\n        /* \"--CODEGEN--\":2074:2083   */\n      dup7\n        /* \"--CODEGEN--\":2070:2092   */\n      add\n      swap2\n      pop\n        /* \"--CODEGEN--\":299:302   */\n      dup7\n        /* \"--CODEGEN--\":292:296   */\n      0x1f\n        /* \"--CODEGEN--\":284:290   */\n      dup4\n        /* \"--CODEGEN--\":280:297   */\n      add\n        /* \"--CODEGEN--\":276:303   */\n      slt\n        /* \"--CODEGEN--\":266:268   */\n      tag_45\n      jumpi\n      dup5\n      dup6\n        /* \"--CODEGEN--\":307:319   */\n      revert\n        /* \"--CODEGEN--\":266:268   */\n    tag_45:\n        /* \"--CODEGEN--\":350:356   */\n      dup2\n        /* \"--CODEGEN--\":337:357   */\n      calldataload\n        /* \"--CODEGEN--\":1951:1969   */\n      dup2\n        /* \"--CODEGEN--\":369:375   */\n      dup2\n        /* \"--CODEGEN--\":366:396   */\n      gt\n        /* \"--CODEGEN--\":363:365   */\n      iszero\n      tag_46\n      jumpi\n      dup6\n      dup7\n        /* \"--CODEGEN--\":399:411   */\n      revert\n        /* \"--CODEGEN--\":363:365   */\n    tag_46:\n        /* \"--CODEGEN--\":494:497   */\n      dup8\n        /* \"--CODEGEN--\":443:447   */\n      0x20\n      dup1\n        /* \"--CODEGEN--\":478:484   */\n      dup4\n        /* \"--CODEGEN--\":474:491   */\n      mul\n        /* \"--CODEGEN--\":435:441   */\n      dup6\n        /* \"--CODEGEN--\":460:492   */\n      add\n      add\n        /* \"--CODEGEN--\":457:498   */\n      gt\n        /* \"--CODEGEN--\":454:456   */\n      iszero\n      tag_47\n      jumpi\n      dup6\n      dup7\n        /* \"--CODEGEN--\":501:513   */\n      revert\n        /* \"--CODEGEN--\":454:456   */\n    tag_47:\n        /* \"--CODEGEN--\":443:447   */\n      0x20\n        /* \"--CODEGEN--\":431:448   */\n      swap3\n      dup4\n      add\n      swap6\n      pop\n        /* \"--CODEGEN--\":1993:2102   */\n      swap4\n      pop\n      pop\n        /* \"--CODEGEN--\":2175:2197   */\n      dup5\n      add\n        /* \"--CODEGEN--\":593:613   */\n      calldataload\n        /* \"--CODEGEN--\":8149:8162   */\n      dup1\n      iszero\n        /* \"--CODEGEN--\":8142:8163   */\n      iszero\n        /* \"--CODEGEN--\":9377:9409   */\n      dup2\n      eq\n        /* \"--CODEGEN--\":9367:9369   */\n      tag_48\n      jumpi\n      dup2\n      dup3\n        /* \"--CODEGEN--\":9413:9425   */\n      revert\n        /* \"--CODEGEN--\":9367:9369   */\n    tag_48:\n        /* \"--CODEGEN--\":2147:2207   */\n      dup1\n      swap2\n      pop\n      pop\n        /* \"--CODEGEN--\":1811:2223   */\n      swap3\n      pop\n      swap3\n      pop\n      swap3\n      jump\t// out\n        /* \"--CODEGEN--\":2230:3375   */\n    tag_7:\n      0x00\n      dup1\n      0x00\n      dup1\n      0x00\n      dup1\n      0x00\n      dup1\n        /* \"--CODEGEN--\":2465:2468   */\n      0x0100\n        /* \"--CODEGEN--\":2453:2462   */\n      dup10\n        /* \"--CODEGEN--\":2444:2451   */\n      dup12\n        /* \"--CODEGEN--\":2440:2463   */\n      sub\n        /* \"--CODEGEN--\":2436:2469   */\n      slt\n        /* \"--CODEGEN--\":2433:2435   */\n      iszero\n      tag_50\n      jumpi\n      dup4\n      dup5\n        /* \"--CODEGEN--\":2472:2484   */\n      revert\n        /* \"--CODEGEN--\":2433:2435   */\n    tag_50:\n        /* \"--CODEGEN--\":891:897   */\n      dup9\n        /* \"--CODEGEN--\":878:898   */\n      calldataload\n        /* \"--CODEGEN--\":903:950   */\n      tag_51\n        /* \"--CODEGEN--\":944:949   */\n      dup2\n        /* \"--CODEGEN--\":903:950   */\n      tag_52\n      jump\t// in\n    tag_51:\n        /* \"--CODEGEN--\":2524:2601   */\n      swap8\n      pop\n        /* \"--CODEGEN--\":2638:2640   */\n      0x20\n        /* \"--CODEGEN--\":2677:2699   */\n      dup10\n      add\n        /* \"--CODEGEN--\":72:92   */\n      calldataload\n        /* \"--CODEGEN--\":97:130   */\n      tag_53\n        /* \"--CODEGEN--\":72:92   */\n      dup2\n        /* \"--CODEGEN--\":97:130   */\n      tag_52\n      jump\t// in\n    tag_53:\n        /* \"--CODEGEN--\":2646:2709   */\n      swap7\n      pop\n        /* \"--CODEGEN--\":2746:2748   */\n      0x40\n        /* \"--CODEGEN--\":2785:2807   */\n      dup10\n      add\n        /* \"--CODEGEN--\":72:92   */\n      calldataload\n        /* \"--CODEGEN--\":97:130   */\n      tag_54\n        /* \"--CODEGEN--\":72:92   */\n      dup2\n        /* \"--CODEGEN--\":97:130   */\n      tag_52\n      jump\t// in\n    tag_54:\n        /* \"--CODEGEN--\":2754:2817   */\n      swap6\n      pop\n        /* \"--CODEGEN--\":2854:2856   */\n      0x60\n        /* \"--CODEGEN--\":2893:2915   */\n      dup10\n      add\n        /* \"--CODEGEN--\":1482:1502   */\n      calldataload\n      swap5\n      pop\n        /* \"--CODEGEN--\":2962:2965   */\n      0x80\n        /* \"--CODEGEN--\":3002:3024   */\n      dup10\n      add\n        /* \"--CODEGEN--\":1482:1502   */\n      calldataload\n      swap4\n      pop\n        /* \"--CODEGEN--\":3071:3074   */\n      0xa0\n        /* \"--CODEGEN--\":3109:3131   */\n      dup10\n      add\n        /* \"--CODEGEN--\":1617:1637   */\n      calldataload\n        /* \"--CODEGEN--\":8644:8648   */\n      0xff\n        /* \"--CODEGEN--\":8633:8649   */\n      dup2\n      and\n        /* \"--CODEGEN--\":9896:9929   */\n      dup2\n      eq\n        /* \"--CODEGEN--\":9886:9888   */\n      tag_55\n      jumpi\n      dup4\n      dup5\n        /* \"--CODEGEN--\":9933:9945   */\n      revert\n        /* \"--CODEGEN--\":9886:9888   */\n    tag_55:\n        /* \"--CODEGEN--\":2427:3375   */\n      swap8\n      swap11\n      swap7\n      swap10\n      pop\n      swap5\n      swap8\n      swap4\n      swap7\n      swap3\n      swap6\n        /* \"--CODEGEN--\":3080:3141   */\n      swap3\n      swap5\n      pop\n      pop\n      pop\n        /* \"--CODEGEN--\":3178:3181   */\n      0xc0\n        /* \"--CODEGEN--\":3218:3240   */\n      dup3\n      add\n        /* \"--CODEGEN--\":727:747   */\n      calldataload\n      swap2\n        /* \"--CODEGEN--\":3287:3290   */\n      0xe0\n        /* \"--CODEGEN--\":3327:3349   */\n      add\n        /* \"--CODEGEN--\":727:747   */\n      calldataload\n      swap1\n        /* \"--CODEGEN--\":2427:3375   */\n      jump\t// out\n        /* \"--CODEGEN--\":3382:3744   */\n    tag_40:\n      0x00\n        /* \"--CODEGEN--\":3507:3509   */\n      0x20\n        /* \"--CODEGEN--\":3495:3504   */\n      dup3\n        /* \"--CODEGEN--\":3486:3493   */\n      dup5\n        /* \"--CODEGEN--\":3482:3505   */\n      sub\n        /* \"--CODEGEN--\":3478:3510   */\n      slt\n        /* \"--CODEGEN--\":3475:3477   */\n      iszero\n      tag_57\n      jumpi\n      dup1\n      dup2\n        /* \"--CODEGEN--\":3513:3525   */\n      revert\n        /* \"--CODEGEN--\":3475:3477   */\n    tag_57:\n        /* \"--CODEGEN--\":3564:3581   */\n      dup2\n        /* \"--CODEGEN--\":3558:3582   */\n      mload\n        /* \"--CODEGEN--\":3602:3620   */\n      0xffffffffffffffff\n      dup1\n        /* \"--CODEGEN--\":3594:3600   */\n      dup3\n        /* \"--CODEGEN--\":3591:3621   */\n      gt\n        /* \"--CODEGEN--\":3588:3590   */\n      iszero\n      tag_58\n      jumpi\n      dup3\n      dup4\n        /* \"--CODEGEN--\":3624:3636   */\n      revert\n        /* \"--CODEGEN--\":3588:3590   */\n    tag_58:\n        /* \"--CODEGEN--\":3711:3717   */\n      dup2\n        /* \"--CODEGEN--\":3700:3709   */\n      dup5\n        /* \"--CODEGEN--\":3696:3718   */\n      add\n      swap2\n      pop\n        /* \"--CODEGEN--\":1076:1079   */\n      dup5\n        /* \"--CODEGEN--\":1069:1073   */\n      0x1f\n        /* \"--CODEGEN--\":1061:1067   */\n      dup4\n        /* \"--CODEGEN--\":1057:1074   */\n      add\n        /* \"--CODEGEN--\":1053:1080   */\n      slt\n        /* \"--CODEGEN--\":1043:1045   */\n      tag_59\n      jumpi\n      dup3\n      dup4\n        /* \"--CODEGEN--\":1084:1096   */\n      revert\n        /* \"--CODEGEN--\":1043:1045   */\n    tag_59:\n        /* \"--CODEGEN--\":1124:1130   */\n      dup2\n        /* \"--CODEGEN--\":1118:1131   */\n      mload\n        /* \"--CODEGEN--\":3602:3620   */\n      dup2\n        /* \"--CODEGEN--\":7338:7344   */\n      dup2\n        /* \"--CODEGEN--\":7335:7365   */\n      gt\n        /* \"--CODEGEN--\":7332:7334   */\n      iszero\n      tag_60\n      jumpi\n      dup4\n      dup5\n        /* \"--CODEGEN--\":7368:7380   */\n      revert\n        /* \"--CODEGEN--\":7332:7334   */\n    tag_60:\n        /* \"--CODEGEN--\":7001:7003   */\n      0x40\n        /* \"--CODEGEN--\":6995:7004   */\n      mload\n        /* \"--CODEGEN--\":7441:7450   */\n      0x1f\n        /* \"--CODEGEN--\":7422:7439   */\n      dup3\n      add\n      not(0x1f)\n        /* \"--CODEGEN--\":7418:7451   */\n      and\n        /* \"--CODEGEN--\":7027:7044   */\n      dup2\n      add\n        /* \"--CODEGEN--\":3507:3509   */\n      0x20\n        /* \"--CODEGEN--\":7027:7044   */\n      add\n        /* \"--CODEGEN--\":7087:7121   */\n      dup4\n      dup2\n      gt\n        /* \"--CODEGEN--\":7123:7145   */\n      dup3\n      dup3\n      lt\n        /* \"--CODEGEN--\":7084:7146   */\n      or\n        /* \"--CODEGEN--\":7081:7083   */\n      iszero\n      tag_61\n      jumpi\n      dup6\n      dup7\n        /* \"--CODEGEN--\":7149:7161   */\n      revert\n        /* \"--CODEGEN--\":7081:7083   */\n    tag_61:\n        /* \"--CODEGEN--\":7001:7003   */\n      0x40\n        /* \"--CODEGEN--\":7168:7190   */\n      mstore\n        /* \"--CODEGEN--\":1217:1238   */\n      dup2\n      dup2\n      mstore\n        /* \"--CODEGEN--\":1317:1333   */\n      dup4\n      dup3\n      add\n        /* \"--CODEGEN--\":3507:3509   */\n      0x20\n        /* \"--CODEGEN--\":1317:1333   */\n      add\n        /* \"--CODEGEN--\":1314:1339   */\n      dup8\n      lt\n        /* \"--CODEGEN--\":1311:1313   */\n      iszero\n      tag_62\n      jumpi\n      dup5\n      dup6\n        /* \"--CODEGEN--\":1342:1354   */\n      revert\n        /* \"--CODEGEN--\":1311:1313   */\n    tag_62:\n        /* \"--CODEGEN--\":1362:1401   */\n      tag_63\n        /* \"--CODEGEN--\":1394:1400   */\n      dup3\n        /* \"--CODEGEN--\":3507:3509   */\n      0x20\n        /* \"--CODEGEN--\":1293:1298   */\n      dup4\n        /* \"--CODEGEN--\":1289:1305   */\n      add\n        /* \"--CODEGEN--\":3507:3509   */\n      0x20\n        /* \"--CODEGEN--\":1259:1265   */\n      dup8\n        /* \"--CODEGEN--\":1255:1272   */\n      add\n        /* \"--CODEGEN--\":1362:1401   */\n      tag_64\n      jump\t// in\n    tag_63:\n        /* \"--CODEGEN--\":3644:3728   */\n      swap7\n        /* \"--CODEGEN--\":3469:3744   */\n      swap6\n      pop\n      pop\n      pop\n      pop\n      pop\n      pop\n      jump\t// out\n        /* \"--CODEGEN--\":4920:5211   */\n    tag_27:\n      0x00\n        /* \"--CODEGEN--\":8743:8749   */\n      dup3\n        /* \"--CODEGEN--\":8738:8741   */\n      dup5\n        /* \"--CODEGEN--\":8733:8736   */\n      dup4\n        /* \"--CODEGEN--\":8720:8750   */\n      calldatacopy\n        /* \"--CODEGEN--\":8781:8797   */\n      swap2\n      add\n        /* \"--CODEGEN--\":8774:8801   */\n      swap1\n      dup2\n      mstore\n        /* \"--CODEGEN--\":8781:8797   */\n      swap2\n        /* \"--CODEGEN--\":5064:5211   */\n      swap1\n      pop\n      jump\t// out\n        /* \"--CODEGEN--\":5218:6102   */\n    tag_15:\n      sub(shl(0xa0, 0x01), 0x01)\n        /* \"--CODEGEN--\":8428:8482   */\n      swap8\n      dup9\n      and\n        /* \"--CODEGEN--\":3822:3859   */\n      dup2\n      mstore\n        /* \"--CODEGEN--\":8428:8482   */\n      swap6\n      swap1\n      swap7\n      and\n        /* \"--CODEGEN--\":5674:5676   */\n      0x20\n        /* \"--CODEGEN--\":5659:5677   */\n      dup7\n      add\n        /* \"--CODEGEN--\":3822:3859   */\n      mstore\n        /* \"--CODEGEN--\":5757:5759   */\n      0x40\n        /* \"--CODEGEN--\":5742:5760   */\n      dup6\n      add\n        /* \"--CODEGEN--\":3942:3979   */\n      swap4\n      swap1\n      swap4\n      mstore\n        /* \"--CODEGEN--\":5840:5842   */\n      0x60\n        /* \"--CODEGEN--\":5825:5843   */\n      dup5\n      add\n        /* \"--CODEGEN--\":3942:3979   */\n      swap2\n      swap1\n      swap2\n      mstore\n        /* \"--CODEGEN--\":8644:8648   */\n      0xff\n        /* \"--CODEGEN--\":8633:8649   */\n      and\n        /* \"--CODEGEN--\":5919:5922   */\n      0x80\n        /* \"--CODEGEN--\":5904:5923   */\n      dup4\n      add\n        /* \"--CODEGEN--\":4873:4908   */\n      mstore\n        /* \"--CODEGEN--\":8439:8481   */\n      0xa0\n        /* \"--CODEGEN--\":5988:6007   */\n      dup3\n      add\n        /* \"--CODEGEN--\":3942:3979   */\n      mstore\n        /* \"--CODEGEN--\":6087:6090   */\n      0xc0\n        /* \"--CODEGEN--\":6072:6091   */\n      dup2\n      add\n        /* \"--CODEGEN--\":3942:3979   */\n      swap2\n      swap1\n      swap2\n      mstore\n        /* \"--CODEGEN--\":5509:5512   */\n      0xe0\n        /* \"--CODEGEN--\":5494:5513   */\n      add\n      swap1\n        /* \"--CODEGEN--\":5480:6102   */\n      jump\t// out\n        /* \"--CODEGEN--\":6109:6419   */\n    tag_36:\n      0x00\n        /* \"--CODEGEN--\":6256:6258   */\n      0x20\n        /* \"--CODEGEN--\":6277:6294   */\n      dup3\n        /* \"--CODEGEN--\":6270:6317   */\n      mstore\n        /* \"--CODEGEN--\":4477:4482   */\n      dup3\n        /* \"--CODEGEN--\":7619:7631   */\n      mload\n        /* \"--CODEGEN--\":7929:7935   */\n      dup1\n        /* \"--CODEGEN--\":6256:6258   */\n      0x20\n        /* \"--CODEGEN--\":6245:6254   */\n      dup5\n        /* \"--CODEGEN--\":6241:6259   */\n      add\n        /* \"--CODEGEN--\":7917:7936   */\n      mstore\n        /* \"--CODEGEN--\":4571:4623   */\n      tag_68\n        /* \"--CODEGEN--\":4616:4622   */\n      dup2\n        /* \"--CODEGEN--\":7957:7971   */\n      0x40\n        /* \"--CODEGEN--\":6245:6254   */\n      dup6\n        /* \"--CODEGEN--\":7957:7971   */\n      add\n        /* \"--CODEGEN--\":6256:6258   */\n      0x20\n        /* \"--CODEGEN--\":4597:4602   */\n      dup8\n        /* \"--CODEGEN--\":4593:4609   */\n      add\n        /* \"--CODEGEN--\":4571:4623   */\n      tag_64\n      jump\t// in\n    tag_68:\n        /* \"--CODEGEN--\":7441:7450   */\n      0x1f\n        /* \"--CODEGEN--\":9160:9174   */\n      add\n      not(0x1f)\n        /* \"--CODEGEN--\":9156:9184   */\n      and\n        /* \"--CODEGEN--\":4635:4674   */\n      swap2\n      swap1\n      swap2\n      add\n        /* \"--CODEGEN--\":7957:7971   */\n      0x40\n        /* \"--CODEGEN--\":4635:4674   */\n      add\n      swap3\n        /* \"--CODEGEN--\":6227:6419   */\n      swap2\n      pop\n      pop\n      jump\t// out\n        /* \"--CODEGEN--\":6426:6932   */\n    tag_25:\n      0x00\n      dup1\n        /* \"--CODEGEN--\":6561:6572   */\n      dup4\n        /* \"--CODEGEN--\":6548:6573   */\n      calldataload\n        /* \"--CODEGEN--\":6612:6660   */\n      not(0x1e)\n        /* \"--CODEGEN--\":6636:6644   */\n      dup5\n        /* \"--CODEGEN--\":6620:6634   */\n      calldatasize\n        /* \"--CODEGEN--\":6616:6645   */\n      sub\n        /* \"--CODEGEN--\":6612:6660   */\n      add\n        /* \"--CODEGEN--\":6592:6610   */\n      dup2\n        /* \"--CODEGEN--\":6588:6661   */\n      slt\n        /* \"--CODEGEN--\":6578:6580   */\n      tag_70\n      jumpi\n      dup3\n      dup4\n        /* \"--CODEGEN--\":6665:6677   */\n      revert\n        /* \"--CODEGEN--\":6578:6580   */\n    tag_70:\n        /* \"--CODEGEN--\":6692:6725   */\n      dup4\n      add\n        /* \"--CODEGEN--\":6746:6764   */\n      dup1\n      calldataload\n      swap2\n      pop\n        /* \"--CODEGEN--\":6784:6802   */\n      0xffffffffffffffff\n        /* \"--CODEGEN--\":6773:6803   */\n      dup3\n      gt\n        /* \"--CODEGEN--\":6770:6772   */\n      iszero\n      tag_71\n      jumpi\n      dup3\n      dup4\n        /* \"--CODEGEN--\":6806:6818   */\n      revert\n        /* \"--CODEGEN--\":6770:6772   */\n    tag_71:\n        /* \"--CODEGEN--\":6651:6655   */\n      0x20\n        /* \"--CODEGEN--\":6834:6847   */\n      add\n      swap2\n      pop\n        /* \"--CODEGEN--\":6620:6634   */\n      calldatasize\n        /* \"--CODEGEN--\":6866:6904   */\n      dup2\n      swap1\n      sub\n        /* \"--CODEGEN--\":6856:6905   */\n      dup3\n      sgt\n        /* \"--CODEGEN--\":6853:6855   */\n      iszero\n      tag_72\n      jumpi\n        /* \"--CODEGEN--\":6918:6919   */\n      0x00\n      dup1\n        /* \"--CODEGEN--\":6908:6920   */\n      revert\n        /* \"--CODEGEN--\":6853:6855   */\n    tag_72:\n        /* \"--CODEGEN--\":6516:6932   */\n      swap3\n      pop\n      swap3\n      swap1\n      pop\n      jump\t// out\n        /* \"--CODEGEN--\":8816:9084   */\n    tag_64:\n        /* \"--CODEGEN--\":8881:8882   */\n      0x00\n        /* \"--CODEGEN--\":8888:8989   */\n    tag_74:\n        /* \"--CODEGEN--\":8902:8908   */\n      dup4\n        /* \"--CODEGEN--\":8899:8900   */\n      dup2\n        /* \"--CODEGEN--\":8896:8909   */\n      lt\n        /* \"--CODEGEN--\":8888:8989   */\n      iszero\n      tag_76\n      jumpi\n        /* \"--CODEGEN--\":8969:8980   */\n      dup2\n      dup2\n      add\n        /* \"--CODEGEN--\":8963:8981   */\n      mload\n        /* \"--CODEGEN--\":8950:8961   */\n      dup4\n      dup3\n      add\n        /* \"--CODEGEN--\":8943:8982   */\n      mstore\n        /* \"--CODEGEN--\":8924:8926   */\n      0x20\n        /* \"--CODEGEN--\":8917:8927   */\n      add\n        /* \"--CODEGEN--\":8888:8989   */\n      jump(tag_74)\n    tag_76:\n        /* \"--CODEGEN--\":9004:9010   */\n      dup4\n        /* \"--CODEGEN--\":9001:9002   */\n      dup2\n        /* \"--CODEGEN--\":8998:9011   */\n      gt\n        /* \"--CODEGEN--\":8995:8997   */\n      iszero\n      tag_21\n      jumpi\n      pop\n      pop\n        /* \"--CODEGEN--\":8881:8882   */\n      0x00\n        /* \"--CODEGEN--\":9051:9067   */\n      swap2\n      add\n        /* \"--CODEGEN--\":9044:9071   */\n      mstore\n        /* \"--CODEGEN--\":8865:9084   */\n      jump\t// out\n        /* \"--CODEGEN--\":9197:9314   */\n    tag_52:\n      sub(shl(0xa0, 0x01), 0x01)\n        /* \"--CODEGEN--\":8428:8482   */\n      dup2\n      and\n        /* \"--CODEGEN--\":9256:9291   */\n      dup2\n      eq\n        /* \"--CODEGEN--\":9246:9248   */\n      tag_79\n      jumpi\n        /* \"--CODEGEN--\":9305:9306   */\n      0x00\n      dup1\n        /* \"--CODEGEN--\":9295:9307   */\n      revert\n        /* \"--CODEGEN--\":9246:9248   */\n    tag_79:\n        /* \"--CODEGEN--\":9240:9314   */\n      pop\n      jump\t// out\n\n    auxdata: 0xa26469706673582212208f2bb5a8c4c079e6de606501bd39053068b61b0f25b5721df6ce8c4f8fbacdbb64736f6c634300060c0033\n}\n",
				"bytecode": {
					"linkReferences": {},
					"object": "608060405234801561001057600080fd5b506104fb806100206000396000f3fe6080604052600436106100295760003560e01c80637c516e941461002e578063d2423b5114610050575b600080fd5b34801561003a57600080fd5b5061004e61004936600461028f565b610063565b005b61004e61005e36600461020b565b6100d7565b60405163d505accf60e01b81526001600160a01b0389169063d505accf9061009b908a908a908a908a908a908a908a906004016103c1565b600060405180830381600087803b1580156100b557600080fd5b505af11580156100c9573d6000803e3d6000fd5b505050505050505050505050565b60005b8281101561019d5760006060308686858181106100f357fe5b90506020028101906101059190610435565b6040516101139291906103b1565b600060405180830381855af49150503d806000811461014e576040519150601f19603f3d011682016040523d82523d6000602084013e610153565b606091505b5091509150811580156101635750835b1561019357610171816101a3565b60405162461bcd60e51b815260040161018a9190610402565b60405180910390fd5b50506001016100da565b50505050565b60606044825110156101e9575060408051808201909152601d81527f5472616e73616374696f6e2072657665727465642073696c656e746c790000006020820152610206565b600482019150818060200190518101906102039190610316565b90505b919050565b60008060006040848603121561021f578283fd5b833567ffffffffffffffff80821115610236578485fd5b818601915086601f830112610249578485fd5b813581811115610257578586fd5b876020808302850101111561026a578586fd5b602092830195509350508401358015158114610284578182fd5b809150509250925092565b600080600080600080600080610100898b0312156102ab578384fd5b88356102b6816104ad565b975060208901356102c6816104ad565b965060408901356102d6816104ad565b9550606089013594506080890135935060a089013560ff811681146102f9578384fd5b979a969950949793969295929450505060c08201359160e0013590565b600060208284031215610327578081fd5b815167ffffffffffffffff8082111561033e578283fd5b818401915084601f830112610351578283fd5b81518181111561035f578384fd5b604051601f8201601f19168101602001838111828210171561037f578586fd5b604052818152838201602001871015610396578485fd5b6103a7826020830160208701610481565b9695505050505050565b6000828483379101908152919050565b6001600160a01b0397881681529590961660208601526040850193909352606084019190915260ff16608083015260a082015260c081019190915260e00190565b6000602082528251806020840152610421816040850160208701610481565b601f01601f19169190910160400192915050565b6000808335601e1984360301811261044b578283fd5b83018035915067ffffffffffffffff821115610465578283fd5b60200191503681900382131561047a57600080fd5b9250929050565b60005b8381101561049c578181015183820152602001610484565b8381111561019d5750506000910152565b6001600160a01b03811681146104c257600080fd5b5056fea26469706673582212208f2bb5a8c4c079e6de606501bd39053068b61b0f25b5721df6ce8c4f8fbacdbb64736f6c634300060c0033",
					"opcodes": "PUSH1 0x80 PUSH1 0x40 MSTORE CALLVALUE DUP1 ISZERO PUSH2 0x10 JUMPI PUSH1 0x0 DUP1 REVERT JUMPDEST POP PUSH2 0x4FB DUP1 PUSH2 0x20 PUSH1 0x0 CODECOPY PUSH1 0x0 RETURN INVALID PUSH1 0x80 PUSH1 0x40 MSTORE PUSH1 0x4 CALLDATASIZE LT PUSH2 0x29 JUMPI PUSH1 0x0 CALLDATALOAD PUSH1 0xE0 SHR DUP1 PUSH4 0x7C516E94 EQ PUSH2 0x2E JUMPI DUP1 PUSH4 0xD2423B51 EQ PUSH2 0x50 JUMPI JUMPDEST PUSH1 0x0 DUP1 REVERT JUMPDEST CALLVALUE DUP1 ISZERO PUSH2 0x3A JUMPI PUSH1 0x0 DUP1 REVERT JUMPDEST POP PUSH2 0x4E PUSH2 0x49 CALLDATASIZE PUSH1 0x4 PUSH2 0x28F JUMP JUMPDEST PUSH2 0x63 JUMP JUMPDEST STOP JUMPDEST PUSH2 0x4E PUSH2 0x5E CALLDATASIZE PUSH1 0x4 PUSH2 0x20B JUMP JUMPDEST PUSH2 0xD7 JUMP JUMPDEST PUSH1 0x40 MLOAD PUSH4 0xD505ACCF PUSH1 0xE0 SHL DUP2 MSTORE PUSH1 0x1 PUSH1 0x1 PUSH1 0xA0 SHL SUB DUP10 AND SWAP1 PUSH4 0xD505ACCF SWAP1 PUSH2 0x9B SWAP1 DUP11 SWAP1 DUP11 SWAP1 DUP11 SWAP1 DUP11 SWAP1 DUP11 SWAP1 DUP11 SWAP1 DUP11 SWAP1 PUSH1 0x4 ADD PUSH2 0x3C1 JUMP JUMPDEST PUSH1 0x0 PUSH1 0x40 MLOAD DUP1 DUP4 SUB DUP2 PUSH1 0x0 DUP8 DUP1 EXTCODESIZE ISZERO DUP1 ISZERO PUSH2 0xB5 JUMPI PUSH1 0x0 DUP1 REVERT JUMPDEST POP GAS CALL ISZERO DUP1 ISZERO PUSH2 0xC9 JUMPI RETURNDATASIZE PUSH1 0x0 DUP1 RETURNDATACOPY RETURNDATASIZE PUSH1 0x0 REVERT JUMPDEST POP POP POP POP POP POP POP POP POP POP POP POP JUMP JUMPDEST PUSH1 0x0 JUMPDEST DUP3 DUP2 LT ISZERO PUSH2 0x19D JUMPI PUSH1 0x0 PUSH1 0x60 ADDRESS DUP7 DUP7 DUP6 DUP2 DUP2 LT PUSH2 0xF3 JUMPI INVALID JUMPDEST SWAP1 POP PUSH1 0x20 MUL DUP2 ADD SWAP1 PUSH2 0x105 SWAP2 SWAP1 PUSH2 0x435 JUMP JUMPDEST PUSH1 0x40 MLOAD PUSH2 0x113 SWAP3 SWAP2 SWAP1 PUSH2 0x3B1 JUMP JUMPDEST PUSH1 0x0 PUSH1 0x40 MLOAD DUP1 DUP4 SUB DUP2 DUP6 GAS DELEGATECALL SWAP2 POP POP RETURNDATASIZE DUP1 PUSH1 0x0 DUP2 EQ PUSH2 0x14E JUMPI PUSH1 0x40 MLOAD SWAP2 POP PUSH1 0x1F NOT PUSH1 0x3F RETURNDATASIZE ADD AND DUP3 ADD PUSH1 0x40 MSTORE RETURNDATASIZE DUP3 MSTORE RETURNDATASIZE PUSH1 0x0 PUSH1 0x20 DUP5 ADD RETURNDATACOPY PUSH2 0x153 JUMP JUMPDEST PUSH1 0x60 SWAP2 POP JUMPDEST POP SWAP2 POP SWAP2 POP DUP2 ISZERO DUP1 ISZERO PUSH2 0x163 JUMPI POP DUP4 JUMPDEST ISZERO PUSH2 0x193 JUMPI PUSH2 0x171 DUP2 PUSH2 0x1A3 JUMP JUMPDEST PUSH1 0x40 MLOAD PUSH3 0x461BCD PUSH1 0xE5 SHL DUP2 MSTORE PUSH1 0x4 ADD PUSH2 0x18A SWAP2 SWAP1 PUSH2 0x402 JUMP JUMPDEST PUSH1 0x40 MLOAD DUP1 SWAP2 SUB SWAP1 REVERT JUMPDEST POP POP PUSH1 0x1 ADD PUSH2 0xDA JUMP JUMPDEST POP POP POP POP JUMP JUMPDEST PUSH1 0x60 PUSH1 0x44 DUP3 MLOAD LT ISZERO PUSH2 0x1E9 JUMPI POP PUSH1 0x40 DUP1 MLOAD DUP1 DUP3 ADD SWAP1 SWAP2 MSTORE PUSH1 0x1D DUP2 MSTORE PUSH32 0x5472616E73616374696F6E2072657665727465642073696C656E746C79000000 PUSH1 0x20 DUP3 ADD MSTORE PUSH2 0x206 JUMP JUMPDEST PUSH1 0x4 DUP3 ADD SWAP2 POP DUP2 DUP1 PUSH1 0x20 ADD SWAP1 MLOAD DUP2 ADD SWAP1 PUSH2 0x203 SWAP2 SWAP1 PUSH2 0x316 JUMP JUMPDEST SWAP1 POP JUMPDEST SWAP2 SWAP1 POP JUMP JUMPDEST PUSH1 0x0 DUP1 PUSH1 0x0 PUSH1 0x40 DUP5 DUP7 SUB SLT ISZERO PUSH2 0x21F JUMPI DUP3 DUP4 REVERT JUMPDEST DUP4 CALLDATALOAD PUSH8 0xFFFFFFFFFFFFFFFF DUP1 DUP3 GT ISZERO PUSH2 0x236 JUMPI DUP5 DUP6 REVERT JUMPDEST DUP2 DUP7 ADD SWAP2 POP DUP7 PUSH1 0x1F DUP4 ADD SLT PUSH2 0x249 JUMPI DUP5 DUP6 REVERT JUMPDEST DUP2 CALLDATALOAD DUP2 DUP2 GT ISZERO PUSH2 0x257 JUMPI DUP6 DUP7 REVERT JUMPDEST DUP8 PUSH1 0x20 DUP1 DUP4 MUL DUP6 ADD ADD GT ISZERO PUSH2 0x26A JUMPI DUP6 DUP7 REVERT JUMPDEST PUSH1 0x20 SWAP3 DUP4 ADD SWAP6 POP SWAP4 POP POP DUP5 ADD CALLDATALOAD DUP1 ISZERO ISZERO DUP2 EQ PUSH2 0x284 JUMPI DUP2 DUP3 REVERT JUMPDEST DUP1 SWAP2 POP POP SWAP3 POP SWAP3 POP SWAP3 JUMP JUMPDEST PUSH1 0x0 DUP1 PUSH1 0x0 DUP1 PUSH1 0x0 DUP1 PUSH1 0x0 DUP1 PUSH2 0x100 DUP10 DUP12 SUB SLT ISZERO PUSH2 0x2AB JUMPI DUP4 DUP5 REVERT JUMPDEST DUP9 CALLDATALOAD PUSH2 0x2B6 DUP2 PUSH2 0x4AD JUMP JUMPDEST SWAP8 POP PUSH1 0x20 DUP10 ADD CALLDATALOAD PUSH2 0x2C6 DUP2 PUSH2 0x4AD JUMP JUMPDEST SWAP7 POP PUSH1 0x40 DUP10 ADD CALLDATALOAD PUSH2 0x2D6 DUP2 PUSH2 0x4AD JUMP JUMPDEST SWAP6 POP PUSH1 0x60 DUP10 ADD CALLDATALOAD SWAP5 POP PUSH1 0x80 DUP10 ADD CALLDATALOAD SWAP4 POP PUSH1 0xA0 DUP10 ADD CALLDATALOAD PUSH1 0xFF DUP2 AND DUP2 EQ PUSH2 0x2F9 JUMPI DUP4 DUP5 REVERT JUMPDEST SWAP8 SWAP11 SWAP7 SWAP10 POP SWAP5 SWAP8 SWAP4 SWAP7 SWAP3 SWAP6 SWAP3 SWAP5 POP POP POP PUSH1 0xC0 DUP3 ADD CALLDATALOAD SWAP2 PUSH1 0xE0 ADD CALLDATALOAD SWAP1 JUMP JUMPDEST PUSH1 0x0 PUSH1 0x20 DUP3 DUP5 SUB SLT ISZERO PUSH2 0x327 JUMPI DUP1 DUP2 REVERT JUMPDEST DUP2 MLOAD PUSH8 0xFFFFFFFFFFFFFFFF DUP1 DUP3 GT ISZERO PUSH2 0x33E JUMPI DUP3 DUP4 REVERT JUMPDEST DUP2 DUP5 ADD SWAP2 POP DUP5 PUSH1 0x1F DUP4 ADD SLT PUSH2 0x351 JUMPI DUP3 DUP4 REVERT JUMPDEST DUP2 MLOAD DUP2 DUP2 GT ISZERO PUSH2 0x35F JUMPI DUP4 DUP5 REVERT JUMPDEST PUSH1 0x40 MLOAD PUSH1 0x1F DUP3 ADD PUSH1 0x1F NOT AND DUP2 ADD PUSH1 0x20 ADD DUP4 DUP2 GT DUP3 DUP3 LT OR ISZERO PUSH2 0x37F JUMPI DUP6 DUP7 REVERT JUMPDEST PUSH1 0x40 MSTORE DUP2 DUP2 MSTORE DUP4 DUP3 ADD PUSH1 0x20 ADD DUP8 LT ISZERO PUSH2 0x396 JUMPI DUP5 DUP6 REVERT JUMPDEST PUSH2 0x3A7 DUP3 PUSH1 0x20 DUP4 ADD PUSH1 0x20 DUP8 ADD PUSH2 0x481 JUMP JUMPDEST SWAP7 SWAP6 POP POP POP POP POP POP JUMP JUMPDEST PUSH1 0x0 DUP3 DUP5 DUP4 CALLDATACOPY SWAP2 ADD SWAP1 DUP2 MSTORE SWAP2 SWAP1 POP JUMP JUMPDEST PUSH1 0x1 PUSH1 0x1 PUSH1 0xA0 SHL SUB SWAP8 DUP9 AND DUP2 MSTORE SWAP6 SWAP1 SWAP7 AND PUSH1 0x20 DUP7 ADD MSTORE PUSH1 0x40 DUP6 ADD SWAP4 SWAP1 SWAP4 MSTORE PUSH1 0x60 DUP5 ADD SWAP2 SWAP1 SWAP2 MSTORE PUSH1 0xFF AND PUSH1 0x80 DUP4 ADD MSTORE PUSH1 0xA0 DUP3 ADD MSTORE PUSH1 0xC0 DUP2 ADD SWAP2 SWAP1 SWAP2 MSTORE PUSH1 0xE0 ADD SWAP1 JUMP JUMPDEST PUSH1 0x0 PUSH1 0x20 DUP3 MSTORE DUP3 MLOAD DUP1 PUSH1 0x20 DUP5 ADD MSTORE PUSH2 0x421 DUP2 PUSH1 0x40 DUP6 ADD PUSH1 0x20 DUP8 ADD PUSH2 0x481 JUMP JUMPDEST PUSH1 0x1F ADD PUSH1 0x1F NOT AND SWAP2 SWAP1 SWAP2 ADD PUSH1 0x40 ADD SWAP3 SWAP2 POP POP JUMP JUMPDEST PUSH1 0x0 DUP1 DUP4 CALLDATALOAD PUSH1 0x1E NOT DUP5 CALLDATASIZE SUB ADD DUP2 SLT PUSH2 0x44B JUMPI DUP3 DUP4 REVERT JUMPDEST DUP4 ADD DUP1 CALLDATALOAD SWAP2 POP PUSH8 0xFFFFFFFFFFFFFFFF DUP3 GT ISZERO PUSH2 0x465 JUMPI DUP3 DUP4 REVERT JUMPDEST PUSH1 0x20 ADD SWAP2 POP CALLDATASIZE DUP2 SWAP1 SUB DUP3 SGT ISZERO PUSH2 0x47A JUMPI PUSH1 0x0 DUP1 REVERT JUMPDEST SWAP3 POP SWAP3 SWAP1 POP JUMP JUMPDEST PUSH1 0x0 JUMPDEST DUP4 DUP2 LT ISZERO PUSH2 0x49C JUMPI DUP2 DUP2 ADD MLOAD DUP4 DUP3 ADD MSTORE PUSH1 0x20 ADD PUSH2 0x484 JUMP JUMPDEST DUP4 DUP2 GT ISZERO PUSH2 0x19D JUMPI POP POP PUSH1 0x0 SWAP2 ADD MSTORE JUMP JUMPDEST PUSH1 0x1 PUSH1 0x1 PUSH1 0xA0 SHL SUB DUP2 AND DUP2 EQ PUSH2 0x4C2 JUMPI PUSH1 0x0 DUP1 REVERT JUMPDEST POP JUMP INVALID LOG2 PUSH5 0x6970667358 0x22 SLT KECCAK256 DUP16 0x2B 0xB5 0xA8 0xC4 0xC0 PUSH26 0xE6DE606501BD39053068B61B0F25B5721DF6CE8C4F8FBACDBB64 PUSH20 0x6F6C634300060C00330000000000000000000000 "
				},
				"gasEstimates": {
					"creation": {
						"codeDepositCost": "255000",
						"executionCost": "294",
						"totalCost": "255294"
					},
					"external": {
						"batch(bytes[],bool)": "infinite",
						"permitToken(address,address,address,uint256,uint256,uint8,bytes32,bytes32)": "infinite"
					}
				},
				"methodIdentifiers": {
					"batch(bytes[],bool)": "d2423b51",
					"permitToken(address,address,address,uint256,uint256,uint8,bytes32,bytes32)": "7c516e94"
				}
			},
			"storageLayout": {
				"storage": [],
				"types": null
			},
			"userdoc": {
				"kind": "user",
				"methods": {
					"batch(bytes[],bool)": {
						"notice": "Allows batched call to self (this contract)."
					},
					"permitToken(address,address,address,uint256,uint256,uint8,bytes32,bytes32)": {
						"notice": "Call wrapper that performs `ERC20.permit` on `token`. Lookup `IERC20.permit`."
					}
				},
				"version": 1
			}
		}
	}
}