{
	"contracts/sseaERC20.sol": {
		"sSeaERC20": {
			"abi": [
				{
					"inputs": [
						{
							"internalType": "contract IERC20",
							"name": "_token",
							"type": "address"
						}
					],
					"stateMutability": "nonpayable",
					"type": "constructor"
				},
				{
					"anonymous": false,
					"inputs": [
						{
							"indexed": true,
							"internalType": "address",
							"name": "_owner",
							"type": "address"
						},
						{
							"indexed": true,
							"internalType": "address",
							"name": "_spender",
							"type": "address"
						},
						{
							"indexed": false,
							"internalType": "uint256",
							"name": "_value",
							"type": "uint256"
						}
					],
					"name": "Approval",
					"type": "event"
				},
				{
					"anonymous": false,
					"inputs": [
						{
							"indexed": true,
							"internalType": "address",
							"name": "_from",
							"type": "address"
						},
						{
							"indexed": true,
							"internalType": "address",
							"name": "_to",
							"type": "address"
						},
						{
							"indexed": false,
							"internalType": "uint256",
							"name": "_value",
							"type": "uint256"
						}
					],
					"name": "Transfer",
					"type": "event"
				},
				{
					"inputs": [],
					"name": "DOMAIN_SEPARATOR",
					"outputs": [
						{
							"internalType": "bytes32",
							"name": "",
							"type": "bytes32"
						}
					],
					"stateMutability": "view",
					"type": "function"
				},
				{
					"inputs": [],
					"name": "LOCK_TIME",
					"outputs": [
						{
							"internalType": "uint256",
							"name": "",
							"type": "uint256"
						}
					],
					"stateMutability": "view",
					"type": "function"
				},
				{
					"inputs": [],
					"name": "_owner",
					"outputs": [
						{
							"internalType": "address",
							"name": "",
							"type": "address"
						}
					],
					"stateMutability": "view",
					"type": "function"
				},
				{
					"inputs": [
						{
							"internalType": "address",
							"name": "",
							"type": "address"
						},
						{
							"internalType": "address",
							"name": "",
							"type": "address"
						}
					],
					"name": "allowance",
					"outputs": [
						{
							"internalType": "uint256",
							"name": "",
							"type": "uint256"
						}
					],
					"stateMutability": "view",
					"type": "function"
				},
				{
					"inputs": [
						{
							"internalType": "address",
							"name": "spender",
							"type": "address"
						},
						{
							"internalType": "uint256",
							"name": "amount",
							"type": "uint256"
						}
					],
					"name": "approve",
					"outputs": [
						{
							"internalType": "bool",
							"name": "",
							"type": "bool"
						}
					],
					"stateMutability": "nonpayable",
					"type": "function"
				},
				{
					"inputs": [
						{
							"internalType": "address",
							"name": "user",
							"type": "address"
						}
					],
					"name": "balanceOf",
					"outputs": [
						{
							"internalType": "uint256",
							"name": "balance",
							"type": "uint256"
						}
					],
					"stateMutability": "view",
					"type": "function"
				},
				{
					"inputs": [
						{
							"internalType": "address",
							"name": "to",
							"type": "address"
						},
						{
							"internalType": "uint256",
							"name": "shares",
							"type": "uint256"
						}
					],
					"name": "burn",
					"outputs": [
						{
							"internalType": "bool",
							"name": "",
							"type": "bool"
						}
					],
					"stateMutability": "nonpayable",
					"type": "function"
				},
				{
					"inputs": [
						{
							"internalType": "address",
							"name": "from",
							"type": "address"
						},
						{
							"internalType": "address",
							"name": "to",
							"type": "address"
						},
						{
							"internalType": "uint256",
							"name": "shares",
							"type": "uint256"
						}
					],
					"name": "burnFrom",
					"outputs": [
						{
							"internalType": "bool",
							"name": "",
							"type": "bool"
						}
					],
					"stateMutability": "nonpayable",
					"type": "function"
				},
				{
					"inputs": [],
					"name": "decimals",
					"outputs": [
						{
							"internalType": "uint8",
							"name": "",
							"type": "uint8"
						}
					],
					"stateMutability": "view",
					"type": "function"
				},
				{
					"inputs": [
						{
							"internalType": "uint256",
							"name": "amount",
							"type": "uint256"
						}
					],
					"name": "mint",
					"outputs": [
						{
							"internalType": "bool",
							"name": "",
							"type": "bool"
						}
					],
					"stateMutability": "nonpayable",
					"type": "function"
				},
				{
					"inputs": [],
					"name": "name",
					"outputs": [
						{
							"internalType": "string",
							"name": "",
							"type": "string"
						}
					],
					"stateMutability": "view",
					"type": "function"
				},
				{
					"inputs": [
						{
							"internalType": "address",
							"name": "",
							"type": "address"
						}
					],
					"name": "nonces",
					"outputs": [
						{
							"internalType": "uint256",
							"name": "",
							"type": "uint256"
						}
					],
					"stateMutability": "view",
					"type": "function"
				},
				{
					"inputs": [],
					"name": "owner",
					"outputs": [
						{
							"internalType": "address",
							"name": "",
							"type": "address"
						}
					],
					"stateMutability": "view",
					"type": "function"
				},
				{
					"inputs": [
						{
							"internalType": "address",
							"name": "owner_",
							"type": "address"
						},
						{
							"internalType": "address",
							"name": "spender",
							"type": "address"
						},
						{
							"internalType": "uint256",
							"name": "value",
							"type": "uint256"
						},
						{
							"internalType": "uint256",
							"name": "deadline",
							"type": "uint256"
						},
						{
							"internalType": "uint8",
							"name": "v",
							"type": "uint8"
						},
						{
							"internalType": "bytes32",
							"name": "r",
							"type": "bytes32"
						},
						{
							"internalType": "bytes32",
							"name": "s",
							"type": "bytes32"
						}
					],
					"name": "permit",
					"outputs": [],
					"stateMutability": "nonpayable",
					"type": "function"
				},
				{
					"inputs": [
						{
							"internalType": "uint256",
							"name": "_LOCK_TIME",
							"type": "uint256"
						}
					],
					"name": "setLOCK_TIME",
					"outputs": [
						{
							"internalType": "bool",
							"name": "",
							"type": "bool"
						}
					],
					"stateMutability": "nonpayable",
					"type": "function"
				},
				{
					"inputs": [],
					"name": "symbol",
					"outputs": [
						{
							"internalType": "string",
							"name": "",
							"type": "string"
						}
					],
					"stateMutability": "view",
					"type": "function"
				},
				{
					"inputs": [],
					"name": "token",
					"outputs": [
						{
							"internalType": "contract IERC20",
							"name": "",
							"type": "address"
						}
					],
					"stateMutability": "view",
					"type": "function"
				},
				{
					"inputs": [],
					"name": "totalSupply",
					"outputs": [
						{
							"internalType": "uint256",
							"name": "",
							"type": "uint256"
						}
					],
					"stateMutability": "view",
					"type": "function"
				},
				{
					"inputs": [
						{
							"internalType": "address",
							"name": "to",
							"type": "address"
						},
						{
							"internalType": "uint256",
							"name": "shares",
							"type": "uint256"
						}
					],
					"name": "transfer",
					"outputs": [
						{
							"internalType": "bool",
							"name": "",
							"type": "bool"
						}
					],
					"stateMutability": "nonpayable",
					"type": "function"
				},
				{
					"inputs": [
						{
							"internalType": "address",
							"name": "from",
							"type": "address"
						},
						{
							"internalType": "address",
							"name": "to",
							"type": "address"
						},
						{
							"internalType": "uint256",
							"name": "shares",
							"type": "uint256"
						}
					],
					"name": "transferFrom",
					"outputs": [
						{
							"internalType": "bool",
							"name": "",
							"type": "bool"
						}
					],
					"stateMutability": "nonpayable",
					"type": "function"
				},
				{
					"inputs": [
						{
							"internalType": "address",
							"name": "newOwner",
							"type": "address"
						}
					],
					"name": "transferOwnership",
					"outputs": [],
					"stateMutability": "nonpayable",
					"type": "function"
				},
				{
					"inputs": [
						{
							"internalType": "address",
							"name": "",
							"type": "address"
						}
					],
					"name": "users",
					"outputs": [
						{
							"internalType": "uint128",
							"name": "balance",
							"type": "uint128"
						},
						{
							"internalType": "uint128",
							"name": "lockedUntil",
							"type": "uint128"
						}
					],
					"stateMutability": "view",
					"type": "function"
				}
			],
			"devdoc": {
				"kind": "dev",
				"methods": {
					"approve(address,uint256)": {
						"params": {
							"amount": "The maximum collective amount that `spender` can draw.",
							"spender": "Address of the party that can draw from msg.sender's account."
						},
						"returns": {
							"_0": "(bool) Returns True if approved."
						}
					},
					"permit(address,address,uint256,uint256,uint8,bytes32,bytes32)": {
						"params": {
							"deadline": "This permit must be redeemed before this deadline (UTC timestamp in seconds).",
							"owner_": "Address of the owner.",
							"spender": "The address of the spender that gets approved to draw from `owner_`.",
							"value": "The maximum collective amount that `spender` can draw."
						}
					},
					"transfer(address,uint256)": {
						"params": {
							"shares": "of the tokens to move.",
							"to": "The address to move the tokens."
						},
						"returns": {
							"_0": "(bool) Returns True if succeeded."
						}
					},
					"transferFrom(address,address,uint256)": {
						"params": {
							"from": "Address to draw tokens from.",
							"shares": "The token shares to move.",
							"to": "The address to move the tokens."
						},
						"returns": {
							"_0": "(bool) Returns True if succeeded."
						}
					}
				},
				"version": 1
			},
			"evm": {
				"assembly": "    /* \"contracts/sseaERC20.sol\":564:8841  contract sSeaERC20 is IERC20, Domain {... */\n  mstore(0x40, 0xe0)\n    /* \"contracts/sseaERC20.sol\":921:929  24 hours */\n  0x015180\n    /* \"contracts/sseaERC20.sol\":894:929  uint256 public LOCK_TIME = 24 hours */\n  0x01\n  sstore\n    /* \"contracts/sseaERC20.sol\":998:1092  constructor(IERC20 _token) public {... */\n  callvalue\n  dup1\n  iszero\n  tag_1\n  jumpi\n  0x00\n  dup1\n  revert\ntag_1:\n  pop\n  mload(0x40)\n  sub(codesize, bytecodeSize)\n  dup1\n  bytecodeSize\n  dup4\n  codecopy\n  dup2\n  add\n  0x40\n  dup2\n  swap1\n  mstore\n  tag_2\n  swap2\n  tag_3\n  jump\t// in\ntag_2:\n    /* \"@boringcrypto/boring-solidity/contracts/Domain.sol\":1137:1146  chainid() */\n  chainid\n    /* \"@boringcrypto/boring-solidity/contracts/Domain.sol\":1202:1237  DOMAIN_SEPARATOR_CHAIN_ID = chainId */\n  0xa0\n  dup2\n  swap1\n  mstore\n    /* \"@boringcrypto/boring-solidity/contracts/Domain.sol\":1176:1238  _calculateDomainSeparator(DOMAIN_SEPARATOR_CHAIN_ID = chainId) */\n  tag_7\n    /* \"@boringcrypto/boring-solidity/contracts/Domain.sol\":1137:1146  chainid() */\n  dup2\n    /* \"@boringcrypto/boring-solidity/contracts/Domain.sol\":1176:1201  _calculateDomainSeparator */\n  tag_8\n    /* \"@boringcrypto/boring-solidity/contracts/Domain.sol\":1176:1238  _calculateDomainSeparator(DOMAIN_SEPARATOR_CHAIN_ID = chainId) */\n  jump\t// in\ntag_7:\n    /* \"@boringcrypto/boring-solidity/contracts/Domain.sol\":1156:1238  _DOMAIN_SEPARATOR = _calculateDomainSeparator(DOMAIN_SEPARATOR_CHAIN_ID = chainId) */\n  0x80\n  mstore\n  pop\n    /* \"contracts/sseaERC20.sol\":1042:1056  token = _token */\n  0x60\n  shl\n  not(sub(shl(0x60, 0x01), 0x01))\n  and\n  0xc0\n  mstore\n    /* \"contracts/sseaERC20.sol\":1066:1072  _owner */\n  0x02\n    /* \"contracts/sseaERC20.sol\":1066:1085  _owner = msg.sender */\n  dup1\n  sload\n    /* \"contracts/sseaERC20.sol\":1075:1085  msg.sender */\n  caller\n  not(sub(shl(0xa0, 0x01), 0x01))\n    /* \"contracts/sseaERC20.sol\":1066:1085  _owner = msg.sender */\n  swap1\n  swap2\n  and\n  or\n  swap1\n  sstore\n    /* \"contracts/sseaERC20.sol\":564:8841  contract sSeaERC20 is IERC20, Domain {... */\n  jump(tag_14)\n    /* \"@boringcrypto/boring-solidity/contracts/Domain.sol\":793:1062  function _calculateDomainSeparator(uint256 chainId) private view returns (bytes32) {... */\ntag_8:\n    /* \"@boringcrypto/boring-solidity/contracts/Domain.sol\":867:874  bytes32 */\n  0x00\n    /* \"@boringcrypto/boring-solidity/contracts/Domain.sol\":388:456  keccak256(\"EIP712Domain(uint256 chainId,address verifyingContract)\") */\n  0x47e79534a245952e8b16893a336b85a3d9ea9fa8c573f3d803afb92a79469218\n    /* \"@boringcrypto/boring-solidity/contracts/Domain.sol\":993:1000  chainId */\n  dup3\n    /* \"@boringcrypto/boring-solidity/contracts/Domain.sol\":1026:1030  this */\n  address\n    /* \"@boringcrypto/boring-solidity/contracts/Domain.sol\":916:1045  abi.encode(... */\n  add(0x20, mload(0x40))\n  tag_12\n  swap4\n  swap3\n  swap2\n  swap1\n  tag_13\n  jump\t// in\ntag_12:\n  mload(0x40)\n  0x20\n  dup2\n  dup4\n  sub\n  sub\n  dup2\n  mstore\n  swap1\n  0x40\n  mstore\n    /* \"@boringcrypto/boring-solidity/contracts/Domain.sol\":893:1055  keccak256(... */\n  dup1\n  mload\n  swap1\n  0x20\n  add\n  keccak256\n    /* \"@boringcrypto/boring-solidity/contracts/Domain.sol\":886:1055  return keccak256(... */\n  swap1\n  pop\n    /* \"@boringcrypto/boring-solidity/contracts/Domain.sol\":793:1062  function _calculateDomainSeparator(uint256 chainId) private view returns (bytes32) {... */\n  swap2\n  swap1\n  pop\n  jump\t// out\n    /* \"--CODEGEN--\":174:465   */\ntag_3:\n  0x00\n    /* \"--CODEGEN--\":303:305   */\n  0x20\n    /* \"--CODEGEN--\":291:300   */\n  dup3\n    /* \"--CODEGEN--\":282:289   */\n  dup5\n    /* \"--CODEGEN--\":278:301   */\n  sub\n    /* \"--CODEGEN--\":274:306   */\n  slt\n    /* \"--CODEGEN--\":271:273   */\n  iszero\n  tag_16\n  jumpi\n  dup1\n  dup2\n    /* \"--CODEGEN--\":309:321   */\n  revert\n    /* \"--CODEGEN--\":271:273   */\ntag_16:\n    /* \"--CODEGEN--\":97:110   */\n  dup2\n  mload\n  sub(shl(0xa0, 0x01), 0x01)\n    /* \"--CODEGEN--\":1634:1688   */\n  dup2\n  and\n    /* \"--CODEGEN--\":1852:1901   */\n  dup2\n  eq\n    /* \"--CODEGEN--\":1842:1844   */\n  tag_17\n  jumpi\n  dup2\n  dup3\n    /* \"--CODEGEN--\":1905:1917   */\n  revert\n    /* \"--CODEGEN--\":1842:1844   */\ntag_17:\n    /* \"--CODEGEN--\":361:449   */\n  swap4\n    /* \"--CODEGEN--\":265:465   */\n  swap3\n  pop\n  pop\n  pop\n  jump\t// out\n    /* \"--CODEGEN--\":832:1276   */\ntag_13:\n    /* \"--CODEGEN--\":663:700   */\n  swap3\n  dup4\n  mstore\n    /* \"--CODEGEN--\":1179:1181   */\n  0x20\n    /* \"--CODEGEN--\":1164:1182   */\n  dup4\n  add\n    /* \"--CODEGEN--\":663:700   */\n  swap2\n  swap1\n  swap2\n  mstore\n  sub(shl(0xa0, 0x01), 0x01)\n    /* \"--CODEGEN--\":1634:1688   */\n  and\n    /* \"--CODEGEN--\":1262:1264   */\n  0x40\n    /* \"--CODEGEN--\":1247:1265   */\n  dup3\n  add\n    /* \"--CODEGEN--\":543:580   */\n  mstore\n    /* \"--CODEGEN--\":1015:1017   */\n  0x60\n    /* \"--CODEGEN--\":1000:1018   */\n  add\n  swap1\n    /* \"--CODEGEN--\":986:1276   */\n  jump\t// out\ntag_14:\n    /* \"contracts/sseaERC20.sol\":564:8841  contract sSeaERC20 is IERC20, Domain {... */\n  mload(0x80)\n  mload(0xa0)\n  shr(0x60, mload(0xc0))\n  codecopy(0x00, dataOffset(sub_0), dataSize(sub_0))\n  assignImmutable(\"0x135d24c3045eb2fc378507486529b206ce031bd4e306ff07b2abc1c06a63b749\")\n  assignImmutable(\"0x24036ccf201a67256250eabe66d3f9fd72f9c4d022f225a8ee964be060dcb993\")\n  assignImmutable(\"0x7dbef654fd5c6145f82b72cd5dbbfc6d48fd276b8a7a4371a61d55985b9d6d8b\")\n  return(0x00, dataSize(sub_0))\nstop\n\nsub_0: assembly {\n        /* \"contracts/sseaERC20.sol\":564:8841  contract sSeaERC20 is IERC20, Domain {... */\n      mstore(0x40, 0x80)\n      callvalue\n      dup1\n      iszero\n      tag_1\n      jumpi\n      0x00\n      dup1\n      revert\n    tag_1:\n      pop\n      jumpi(tag_2, lt(calldatasize, 0x04))\n      shr(0xe0, calldataload(0x00))\n      dup1\n      0x9dc29fac\n      gt\n      tag_25\n      jumpi\n      dup1\n      0xd505accf\n      gt\n      tag_26\n      jumpi\n      dup1\n      0xd505accf\n      eq\n      tag_19\n      jumpi\n      dup1\n      0xdd62ed3e\n      eq\n      tag_20\n      jumpi\n      dup1\n      0xe3f0dfe7\n      eq\n      tag_21\n      jumpi\n      dup1\n      0xec60bcf3\n      eq\n      tag_22\n      jumpi\n      dup1\n      0xf2fde38b\n      eq\n      tag_23\n      jumpi\n      dup1\n      0xfc0c546a\n      eq\n      tag_24\n      jumpi\n      jump(tag_2)\n    tag_26:\n      dup1\n      0x9dc29fac\n      eq\n      tag_14\n      jumpi\n      dup1\n      0xa0712d68\n      eq\n      tag_15\n      jumpi\n      dup1\n      0xa87430ba\n      eq\n      tag_16\n      jumpi\n      dup1\n      0xa9059cbb\n      eq\n      tag_17\n      jumpi\n      dup1\n      0xb2bdfa7b\n      eq\n      tag_18\n      jumpi\n      jump(tag_2)\n    tag_25:\n      dup1\n      0x3644e515\n      gt\n      tag_27\n      jumpi\n      dup1\n      0x3644e515\n      eq\n      tag_8\n      jumpi\n      dup1\n      0x413d9c3a\n      eq\n      tag_9\n      jumpi\n      dup1\n      0x70a08231\n      eq\n      tag_10\n      jumpi\n      dup1\n      0x7ecebe00\n      eq\n      tag_11\n      jumpi\n      dup1\n      0x8da5cb5b\n      eq\n      tag_12\n      jumpi\n      dup1\n      0x95d89b41\n      eq\n      tag_13\n      jumpi\n      jump(tag_2)\n    tag_27:\n      dup1\n      0x06fdde03\n      eq\n      tag_3\n      jumpi\n      dup1\n      0x095ea7b3\n      eq\n      tag_4\n      jumpi\n      dup1\n      0x18160ddd\n      eq\n      tag_5\n      jumpi\n      dup1\n      0x23b872dd\n      eq\n      tag_6\n      jumpi\n      dup1\n      0x313ce567\n      eq\n      tag_7\n      jumpi\n    tag_2:\n      0x00\n      dup1\n      revert\n        /* \"contracts/sseaERC20.sol\":757:806  string public constant name = \"Staked SEA Tokens\" */\n    tag_3:\n      tag_28\n      tag_29\n      jump\t// in\n    tag_28:\n      mload(0x40)\n      tag_30\n      swap2\n      swap1\n      tag_31\n      jump\t// in\n    tag_30:\n      mload(0x40)\n      dup1\n      swap2\n      sub\n      swap1\n      return\n        /* \"contracts/sseaERC20.sol\":5068:5306  function approve(address spender, uint256 amount)... */\n    tag_4:\n      tag_32\n      tag_33\n      calldatasize\n      0x04\n      tag_34\n      jump\t// in\n    tag_33:\n      tag_35\n      jump\t// in\n    tag_32:\n      mload(0x40)\n      tag_30\n      swap2\n      swap1\n      tag_37\n      jump\t// in\n        /* \"contracts/sseaERC20.sol\":853:888  uint256 public override totalSupply */\n    tag_5:\n      tag_38\n      tag_39\n      jump\t// in\n    tag_38:\n      mload(0x40)\n      tag_30\n      swap2\n      swap1\n      tag_54\n      jump\t// in\n        /* \"contracts/sseaERC20.sol\":4561:4779  function transferFrom(... */\n    tag_6:\n      tag_32\n      tag_43\n      calldatasize\n      0x04\n      tag_44\n      jump\t// in\n    tag_43:\n      tag_45\n      jump\t// in\n        /* \"contracts/sseaERC20.sol\":812:847  uint8 public constant decimals = 18 */\n    tag_7:\n      tag_47\n      tag_48\n      jump\t// in\n    tag_47:\n      mload(0x40)\n      tag_30\n      swap2\n      swap1\n      tag_50\n      jump\t// in\n        /* \"contracts/sseaERC20.sol\":5365:5467  function DOMAIN_SEPARATOR() external view returns (bytes32) {... */\n    tag_8:\n      tag_38\n      tag_52\n      jump\t// in\n        /* \"contracts/sseaERC20.sol\":894:929  uint256 public LOCK_TIME = 24 hours */\n    tag_9:\n      tag_38\n      tag_56\n      jump\t// in\n        /* \"contracts/sseaERC20.sol\":2423:2582  function balanceOf(address user)... */\n    tag_10:\n      tag_38\n      tag_59\n      calldatasize\n      0x04\n      tag_60\n      jump\t// in\n    tag_59:\n      tag_61\n      jump\t// in\n        /* \"contracts/sseaERC20.sol\":1450:1491  mapping(address => uint256) public nonces */\n    tag_11:\n      tag_38\n      tag_64\n      calldatasize\n      0x04\n      tag_60\n      jump\t// in\n    tag_64:\n      tag_65\n      jump\t// in\n        /* \"contracts/sseaERC20.sol\":1695:1780  function owner() public view virtual returns (address) {... */\n    tag_12:\n      tag_67\n      tag_68\n      jump\t// in\n    tag_67:\n      mload(0x40)\n      tag_30\n      swap2\n      swap1\n      tag_70\n      jump\t// in\n        /* \"contracts/sseaERC20.sol\":713:751  string public constant symbol = \"sSEA\" */\n    tag_13:\n      tag_28\n      tag_72\n      jump\t// in\n        /* \"contracts/sseaERC20.sol\":8492:8623  function burn(address to, uint256 shares) public returns (bool) {... */\n    tag_14:\n      tag_32\n      tag_75\n      calldatasize\n      0x04\n      tag_34\n      jump\t// in\n    tag_75:\n      tag_76\n      jump\t// in\n        /* \"contracts/sseaERC20.sol\":7260:7918  function mint(uint256 amount) public returns (bool) {... */\n    tag_15:\n      tag_32\n      tag_79\n      calldatasize\n      0x04\n      tag_80\n      jump\t// in\n    tag_79:\n      tag_81\n      jump\t// in\n        /* \"contracts/sseaERC20.sol\":1218:1255  mapping(address => User) public users */\n    tag_16:\n      tag_83\n      tag_84\n      calldatasize\n      0x04\n      tag_60\n      jump\t// in\n    tag_84:\n      tag_85\n      jump\t// in\n    tag_83:\n      mload(0x40)\n      tag_30\n      swap3\n      swap2\n      swap1\n      tag_87\n      jump\t// in\n        /* \"contracts/sseaERC20.sol\":4122:4261  function transfer(address to, uint256 shares) public returns (bool) {... */\n    tag_17:\n      tag_32\n      tag_89\n      calldatasize\n      0x04\n      tag_34\n      jump\t// in\n    tag_89:\n      tag_90\n      jump\t// in\n        /* \"contracts/sseaERC20.sol\":935:956  address public _owner */\n    tag_18:\n      tag_67\n      tag_93\n      jump\t// in\n        /* \"contracts/sseaERC20.sol\":6094:7056  function permit(... */\n    tag_19:\n      tag_95\n      tag_96\n      calldatasize\n      0x04\n      tag_97\n      jump\t// in\n    tag_96:\n      tag_98\n      jump\t// in\n    tag_95:\n      stop\n        /* \"contracts/sseaERC20.sol\":1314:1387  mapping(address => mapping(address => uint256)) public override allowance */\n    tag_20:\n      tag_38\n      tag_100\n      calldatasize\n      0x04\n      tag_101\n      jump\t// in\n    tag_100:\n      tag_102\n      jump\t// in\n        /* \"contracts/sseaERC20.sol\":2283:2417  function setLOCK_TIME(uint256 _LOCK_TIME) public onlyOwner returns (bool) {... */\n    tag_21:\n      tag_32\n      tag_105\n      calldatasize\n      0x04\n      tag_80\n      jump\t// in\n    tag_105:\n      tag_106\n      jump\t// in\n        /* \"contracts/sseaERC20.sol\":8629:8839  function burnFrom(... */\n    tag_22:\n      tag_32\n      tag_109\n      calldatasize\n      0x04\n      tag_44\n      jump\t// in\n    tag_109:\n      tag_110\n      jump\t// in\n        /* \"contracts/sseaERC20.sol\":1907:2139  function transferOwnership(address newOwner) public virtual onlyOwner {... */\n    tag_23:\n      tag_95\n      tag_113\n      calldatasize\n      0x04\n      tag_60\n      jump\t// in\n    tag_113:\n      tag_114\n      jump\t// in\n        /* \"contracts/sseaERC20.sol\":962:991  IERC20 public immutable token */\n    tag_24:\n      tag_67\n      tag_116\n      jump\t// in\n        /* \"contracts/sseaERC20.sol\":757:806  string public constant name = \"Staked SEA Tokens\" */\n    tag_29:\n      mload(0x40)\n      dup1\n      0x40\n      add\n      0x40\n      mstore\n      dup1\n      0x11\n      dup2\n      mstore\n      0x20\n      add\n      shl(0x78, 0x5374616b65642053454120546f6b656e73)\n      dup2\n      mstore\n      pop\n      dup2\n      jump\t// out\n        /* \"contracts/sseaERC20.sol\":5068:5306  function approve(address spender, uint256 amount)... */\n    tag_35:\n        /* \"contracts/sseaERC20.sol\":5197:5207  msg.sender */\n      caller\n        /* \"contracts/sseaERC20.sol\":5167:5171  bool */\n      0x00\n        /* \"contracts/sseaERC20.sol\":5187:5208  allowance[msg.sender] */\n      dup2\n      dup2\n      mstore\n        /* \"contracts/sseaERC20.sol\":5187:5196  allowance */\n      0x04\n        /* \"contracts/sseaERC20.sol\":5187:5208  allowance[msg.sender] */\n      0x20\n      swap1\n      dup2\n      mstore\n      0x40\n      dup1\n      dup4\n      keccak256\n      sub(shl(0xa0, 0x01), 0x01)\n        /* \"contracts/sseaERC20.sol\":5187:5217  allowance[msg.sender][spender] */\n      dup8\n      and\n      dup1\n      dup6\n      mstore\n      swap3\n      mstore\n      dup1\n      dup4\n      keccak256\n        /* \"contracts/sseaERC20.sol\":5187:5226  allowance[msg.sender][spender] = amount */\n      dup6\n      swap1\n      sstore\n        /* \"contracts/sseaERC20.sol\":5241:5278  Approval(msg.sender, spender, amount) */\n      mload\n        /* \"contracts/sseaERC20.sol\":5167:5171  bool */\n      swap2\n      swap3\n        /* \"contracts/sseaERC20.sol\":5187:5217  allowance[msg.sender][spender] */\n      swap1\n      swap2\n        /* \"contracts/sseaERC20.sol\":5241:5278  Approval(msg.sender, spender, amount) */\n      0x8c5be1e5ebec7d5bd14f71427d1e84f3dd0314c0f7b2291e5b200ac8c7c3b925\n      swap1\n      tag_120\n      swap1\n        /* \"contracts/sseaERC20.sol\":5220:5226  amount */\n      dup7\n      swap1\n        /* \"contracts/sseaERC20.sol\":5241:5278  Approval(msg.sender, spender, amount) */\n      tag_54\n      jump\t// in\n    tag_120:\n      mload(0x40)\n      dup1\n      swap2\n      sub\n      swap1\n      log3\n      pop\n        /* \"contracts/sseaERC20.sol\":5295:5299  true */\n      0x01\n        /* \"contracts/sseaERC20.sol\":5068:5306  function approve(address spender, uint256 amount)... */\n    tag_119:\n      swap3\n      swap2\n      pop\n      pop\n      jump\t// out\n        /* \"contracts/sseaERC20.sol\":853:888  uint256 public override totalSupply */\n    tag_39:\n      sload(0x00)\n      dup2\n      jump\t// out\n        /* \"contracts/sseaERC20.sol\":4561:4779  function transferFrom(... */\n    tag_45:\n        /* \"contracts/sseaERC20.sol\":4671:4675  bool */\n      0x00\n        /* \"contracts/sseaERC20.sol\":4687:4714  _useAllowance(from, shares) */\n      tag_122\n        /* \"contracts/sseaERC20.sol\":4701:4705  from */\n      dup5\n        /* \"contracts/sseaERC20.sol\":4707:4713  shares */\n      dup4\n        /* \"contracts/sseaERC20.sol\":4687:4700  _useAllowance */\n      tag_123\n        /* \"contracts/sseaERC20.sol\":4687:4714  _useAllowance(from, shares) */\n      jump\t// in\n    tag_122:\n        /* \"contracts/sseaERC20.sol\":4724:4751  _transfer(from, to, shares) */\n      tag_124\n        /* \"contracts/sseaERC20.sol\":4734:4738  from */\n      dup5\n        /* \"contracts/sseaERC20.sol\":4740:4742  to */\n      dup5\n        /* \"contracts/sseaERC20.sol\":4744:4750  shares */\n      dup5\n        /* \"contracts/sseaERC20.sol\":4724:4733  _transfer */\n      tag_125\n        /* \"contracts/sseaERC20.sol\":4724:4751  _transfer(from, to, shares) */\n      jump\t// in\n    tag_124:\n      pop\n        /* \"contracts/sseaERC20.sol\":4768:4772  true */\n      0x01\n        /* \"contracts/sseaERC20.sol\":4561:4779  function transferFrom(... */\n      swap4\n      swap3\n      pop\n      pop\n      pop\n      jump\t// out\n        /* \"contracts/sseaERC20.sol\":812:847  uint8 public constant decimals = 18 */\n    tag_48:\n        /* \"contracts/sseaERC20.sol\":845:847  18 */\n      0x12\n        /* \"contracts/sseaERC20.sol\":812:847  uint8 public constant decimals = 18 */\n      dup2\n      jump\t// out\n        /* \"contracts/sseaERC20.sol\":5365:5467  function DOMAIN_SEPARATOR() external view returns (bytes32) {... */\n    tag_52:\n        /* \"contracts/sseaERC20.sol\":5416:5423  bytes32 */\n      0x00\n        /* \"contracts/sseaERC20.sol\":5442:5460  _domainSeparator() */\n      tag_127\n        /* \"contracts/sseaERC20.sol\":5442:5458  _domainSeparator */\n      tag_128\n        /* \"contracts/sseaERC20.sol\":5442:5460  _domainSeparator() */\n      jump\t// in\n    tag_127:\n        /* \"contracts/sseaERC20.sol\":5435:5460  return _domainSeparator() */\n      swap1\n      pop\n        /* \"contracts/sseaERC20.sol\":5365:5467  function DOMAIN_SEPARATOR() external view returns (bytes32) {... */\n      swap1\n      jump\t// out\n        /* \"contracts/sseaERC20.sol\":894:929  uint256 public LOCK_TIME = 24 hours */\n    tag_56:\n      sload(0x01)\n      dup2\n      jump\t// out\n        /* \"contracts/sseaERC20.sol\":2423:2582  function balanceOf(address user)... */\n    tag_61:\n      sub(shl(0xa0, 0x01), 0x01)\n        /* \"contracts/sseaERC20.sol\":2556:2567  users[user] */\n      and\n        /* \"contracts/sseaERC20.sol\":2518:2533  uint256 balance */\n      0x00\n        /* \"contracts/sseaERC20.sol\":2556:2567  users[user] */\n      swap1\n      dup2\n      mstore\n        /* \"contracts/sseaERC20.sol\":2556:2561  users */\n      0x03\n        /* \"contracts/sseaERC20.sol\":2556:2567  users[user] */\n      0x20\n      mstore\n      0x40\n      swap1\n      keccak256\n        /* \"contracts/sseaERC20.sol\":2556:2575  users[user].balance */\n      sload\n      sub(shl(0x80, 0x01), 0x01)\n      and\n      swap1\n        /* \"contracts/sseaERC20.sol\":2423:2582  function balanceOf(address user)... */\n      jump\t// out\n        /* \"contracts/sseaERC20.sol\":1450:1491  mapping(address => uint256) public nonces */\n    tag_65:\n      mstore(0x20, 0x05)\n      0x00\n      swap1\n      dup2\n      mstore\n      0x40\n      swap1\n      keccak256\n      sload\n      dup2\n      jump\t// out\n        /* \"contracts/sseaERC20.sol\":1695:1780  function owner() public view virtual returns (address) {... */\n    tag_68:\n        /* \"contracts/sseaERC20.sol\":1767:1773  _owner */\n      and(sub(shl(0xa0, 0x01), 0x01), sload(0x02))\n        /* \"contracts/sseaERC20.sol\":1695:1780  function owner() public view virtual returns (address) {... */\n      swap1\n      jump\t// out\n        /* \"contracts/sseaERC20.sol\":713:751  string public constant symbol = \"sSEA\" */\n    tag_72:\n      mload(0x40)\n      dup1\n      0x40\n      add\n      0x40\n      mstore\n      dup1\n      0x04\n      dup2\n      mstore\n      0x20\n      add\n      shl(0xe0, 0x73534541)\n      dup2\n      mstore\n      pop\n      dup2\n      jump\t// out\n        /* \"contracts/sseaERC20.sol\":8492:8623  function burn(address to, uint256 shares) public returns (bool) {... */\n    tag_76:\n        /* \"contracts/sseaERC20.sol\":8550:8554  bool */\n      0x00\n        /* \"contracts/sseaERC20.sol\":8566:8595  _burn(msg.sender, to, shares) */\n      tag_132\n        /* \"contracts/sseaERC20.sol\":8572:8582  msg.sender */\n      caller\n        /* \"contracts/sseaERC20.sol\":8584:8586  to */\n      dup5\n        /* \"contracts/sseaERC20.sol\":8588:8594  shares */\n      dup5\n        /* \"contracts/sseaERC20.sol\":8566:8571  _burn */\n      tag_133\n        /* \"contracts/sseaERC20.sol\":8566:8595  _burn(msg.sender, to, shares) */\n      jump\t// in\n    tag_132:\n      pop\n        /* \"contracts/sseaERC20.sol\":8612:8616  true */\n      0x01\n        /* \"contracts/sseaERC20.sol\":8492:8623  function burn(address to, uint256 shares) public returns (bool) {... */\n      swap3\n      swap2\n      pop\n      pop\n      jump\t// out\n        /* \"contracts/sseaERC20.sol\":7260:7918  function mint(uint256 amount) public returns (bool) {... */\n    tag_81:\n        /* \"contracts/sseaERC20.sol\":7306:7310  bool */\n      0x00\n        /* \"contracts/sseaERC20.sol\":7330:7340  msg.sender */\n      caller\n        /* \"contracts/sseaERC20.sol\":7322:7371  require(msg.sender != address(0), \"Zero address\") */\n      tag_135\n      jumpi\n      mload(0x40)\n      shl(0xe5, 0x461bcd)\n      dup2\n      mstore\n      0x04\n      add\n      tag_136\n      swap1\n      tag_137\n      jump\t// in\n    tag_136:\n      mload(0x40)\n      dup1\n      swap2\n      sub\n      swap1\n      revert\n    tag_135:\n        /* \"contracts/sseaERC20.sol\":7381:7397  User memory user */\n      tag_138\n      tag_139\n      jump\t// in\n    tag_138:\n      pop\n        /* \"contracts/sseaERC20.sol\":7406:7416  msg.sender */\n      caller\n        /* \"contracts/sseaERC20.sol\":7400:7417  users[msg.sender] */\n      0x00\n      swap1\n      dup2\n      mstore\n        /* \"contracts/sseaERC20.sol\":7400:7405  users */\n      0x03\n        /* \"contracts/sseaERC20.sol\":7400:7417  users[msg.sender] */\n      0x20\n      swap1\n      dup2\n      mstore\n      0x40\n      dup1\n      dup4\n      keccak256\n        /* \"contracts/sseaERC20.sol\":7381:7417  User memory user = users[msg.sender] */\n      dup2\n      mload\n      dup1\n      dup4\n      add\n      dup4\n      mstore\n      swap1\n      sload\n      sub(shl(0x80, 0x01), 0x01)\n      dup1\n      dup3\n      and\n      dup4\n      mstore\n      shl(0x80, 0x01)\n      swap1\n      swap2\n      div\n      and\n      swap3\n      dup2\n      add\n      swap3\n      swap1\n      swap3\n      mstore\n        /* \"contracts/sseaERC20.sol\":7450:7480  token.balanceOf(address(this)) */\n      mload\n      shl(0xe0, 0x70a08231)\n      dup2\n      mstore\n        /* \"contracts/sseaERC20.sol\":7381:7417  User memory user = users[msg.sender] */\n      swap1\n      swap2\n        /* \"contracts/sseaERC20.sol\":7400:7417  users[msg.sender] */\n      swap1\n        /* \"contracts/sseaERC20.sol\":7450:7455  token */\n      immutable(\"0x135d24c3045eb2fc378507486529b206ce031bd4e306ff07b2abc1c06a63b749\")\n      sub(shl(0xa0, 0x01), 0x01)\n        /* \"contracts/sseaERC20.sol\":7450:7465  token.balanceOf */\n      and\n      swap1\n      0x70a08231\n      swap1\n        /* \"contracts/sseaERC20.sol\":7450:7480  token.balanceOf(address(this)) */\n      tag_140\n      swap1\n        /* \"contracts/sseaERC20.sol\":7474:7478  this */\n      address\n      swap1\n        /* \"contracts/sseaERC20.sol\":7450:7480  token.balanceOf(address(this)) */\n      0x04\n      add\n      tag_70\n      jump\t// in\n    tag_140:\n      0x20\n      mload(0x40)\n      dup1\n      dup4\n      sub\n      dup2\n      dup7\n      dup1\n      extcodesize\n      iszero\n      dup1\n      iszero\n      tag_141\n      jumpi\n      0x00\n      dup1\n      revert\n    tag_141:\n      pop\n      gas\n      staticcall\n      iszero\n      dup1\n      iszero\n      tag_143\n      jumpi\n      returndatasize\n      0x00\n      dup1\n      returndatacopy\n      revert(0x00, returndatasize)\n    tag_143:\n      pop\n      pop\n      pop\n      pop\n      mload(0x40)\n      returndatasize\n      not(0x1f)\n      0x1f\n      dup3\n      add\n      and\n      dup3\n      add\n      dup1\n      0x40\n      mstore\n      pop\n      dup2\n      add\n      swap1\n      tag_144\n      swap2\n      swap1\n      tag_145\n      jump\t// in\n    tag_144:\n        /* \"contracts/sseaERC20.sol\":7428:7480  uint256 totalTokens = token.balanceOf(address(this)) */\n      swap1\n      pop\n        /* \"contracts/sseaERC20.sol\":7490:7504  uint256 shares */\n      0x00\n        /* \"contracts/sseaERC20.sol\":7507:7518  totalSupply */\n      dup1\n      sload\n        /* \"contracts/sseaERC20.sol\":7522:7523  0 */\n      0x00\n        /* \"contracts/sseaERC20.sol\":7507:7523  totalSupply == 0 */\n      eq\n        /* \"contracts/sseaERC20.sol\":7507:7595  totalSupply == 0... */\n      tag_146\n      jumpi\n        /* \"contracts/sseaERC20.sol\":7584:7595  totalTokens */\n      dup2\n        /* \"contracts/sseaERC20.sol\":7569:7580  totalSupply */\n      sload(0x00)\n        /* \"contracts/sseaERC20.sol\":7560:7566  amount */\n      dup7\n        /* \"contracts/sseaERC20.sol\":7560:7580  amount * totalSupply */\n      mul\n        /* \"contracts/sseaERC20.sol\":7559:7595  (amount * totalSupply) / totalTokens */\n      dup2\n      tag_147\n      jumpi\n      invalid\n    tag_147:\n      div\n        /* \"contracts/sseaERC20.sol\":7507:7595  totalSupply == 0... */\n      jump(tag_148)\n    tag_146:\n        /* \"contracts/sseaERC20.sol\":7538:7544  amount */\n      dup5\n        /* \"contracts/sseaERC20.sol\":7507:7595  totalSupply == 0... */\n    tag_148:\n        /* \"contracts/sseaERC20.sol\":7490:7595  uint256 shares = totalSupply == 0... */\n      swap1\n      pop\n        /* \"contracts/sseaERC20.sol\":7621:7635  shares.to128() */\n      tag_149\n        /* \"contracts/sseaERC20.sol\":7621:7627  shares */\n      dup2\n        /* \"contracts/sseaERC20.sol\":7621:7633  shares.to128 */\n      tag_150\n        /* \"contracts/sseaERC20.sol\":7621:7635  shares.to128() */\n      jump\t// in\n    tag_149:\n        /* \"contracts/sseaERC20.sol\":7605:7635  user.balance += shares.to128() */\n      dup4\n      mload\n      add\n      sub(shl(0x80, 0x01), 0x01)\n      and\n      dup4\n      mstore\n        /* \"contracts/sseaERC20.sol\":7683:7692  LOCK_TIME */\n      sload(0x01)\n        /* \"contracts/sseaERC20.sol\":7664:7701  (block.timestamp + LOCK_TIME).to128() */\n      tag_151\n      swap1\n        /* \"contracts/sseaERC20.sol\":7665:7680  block.timestamp */\n      timestamp\n        /* \"contracts/sseaERC20.sol\":7665:7692  block.timestamp + LOCK_TIME */\n      add\n        /* \"contracts/sseaERC20.sol\":7664:7699  (block.timestamp + LOCK_TIME).to128 */\n      tag_150\n        /* \"contracts/sseaERC20.sol\":7664:7701  (block.timestamp + LOCK_TIME).to128() */\n      jump\t// in\n    tag_151:\n      sub(shl(0x80, 0x01), 0x01)\n        /* \"contracts/sseaERC20.sol\":7645:7701  user.lockedUntil = (block.timestamp + LOCK_TIME).to128() */\n      swap1\n      dup2\n      and\n        /* \"contracts/sseaERC20.sol\":7645:7661  user.lockedUntil */\n      0x20\n      dup1\n      dup7\n      add\n        /* \"contracts/sseaERC20.sol\":7645:7701  user.lockedUntil = (block.timestamp + LOCK_TIME).to128() */\n      swap2\n      dup3\n      mstore\n        /* \"contracts/sseaERC20.sol\":7717:7727  msg.sender */\n      caller\n        /* \"contracts/sseaERC20.sol\":7711:7728  users[msg.sender] */\n      0x00\n      dup2\n      dup2\n      mstore\n        /* \"contracts/sseaERC20.sol\":7711:7716  users */\n      0x03\n        /* \"contracts/sseaERC20.sol\":7711:7728  users[msg.sender] */\n      swap1\n      swap3\n      mstore\n      0x40\n      dup3\n      keccak256\n        /* \"contracts/sseaERC20.sol\":7711:7735  users[msg.sender] = user */\n      dup8\n      mload\n      dup2\n      sload\n      swap5\n      mload\n      dup7\n      and\n      shl(0x80, 0x01)\n      mul\n      swap1\n      dup7\n      and\n      not(sub(shl(0x80, 0x01), 0x01))\n      swap1\n      swap6\n      and\n      swap5\n      swap1\n      swap5\n      or\n      swap1\n      swap5\n      and\n      swap3\n      swap1\n      swap3\n      or\n      swap1\n      swap3\n      sstore\n        /* \"contracts/sseaERC20.sol\":7745:7766  totalSupply += shares */\n      dup2\n      sload\n      dup4\n      add\n      swap1\n      swap2\n      sstore\n        /* \"contracts/sseaERC20.sol\":7777:7834  token.safeTransferFrom(msg.sender, address(this), amount) */\n      tag_152\n      swap1\n        /* \"contracts/sseaERC20.sol\":7777:7782  token */\n      immutable(\"0x135d24c3045eb2fc378507486529b206ce031bd4e306ff07b2abc1c06a63b749\")\n      sub(shl(0xa0, 0x01), 0x01)\n        /* \"contracts/sseaERC20.sol\":7777:7799  token.safeTransferFrom */\n      and\n      swap1\n        /* \"contracts/sseaERC20.sol\":7820:7824  this */\n      address\n        /* \"contracts/sseaERC20.sol\":7827:7833  amount */\n      dup9\n        /* \"contracts/sseaERC20.sol\":7777:7799  token.safeTransferFrom */\n      tag_153\n        /* \"contracts/sseaERC20.sol\":7777:7834  token.safeTransferFrom(msg.sender, address(this), amount) */\n      jump\t// in\n    tag_152:\n        /* \"contracts/sseaERC20.sol\":7850:7890  Transfer(address(0), msg.sender, shares) */\n      mload(0x40)\n        /* \"contracts/sseaERC20.sol\":7871:7881  msg.sender */\n      caller\n      swap1\n        /* \"contracts/sseaERC20.sol\":7867:7868  0 */\n      0x00\n      swap1\n        /* \"contracts/sseaERC20.sol\":7850:7890  Transfer(address(0), msg.sender, shares) */\n      0xddf252ad1be2c89b69c2b068fc378daa952ba7f163c4a11628f55a4df523b3ef\n      swap1\n      tag_154\n      swap1\n        /* \"contracts/sseaERC20.sol\":7883:7889  shares */\n      dup6\n      swap1\n        /* \"contracts/sseaERC20.sol\":7850:7890  Transfer(address(0), msg.sender, shares) */\n      tag_54\n      jump\t// in\n    tag_154:\n      mload(0x40)\n      dup1\n      swap2\n      sub\n      swap1\n      log3\n      pop\n        /* \"contracts/sseaERC20.sol\":7907:7911  true */\n      0x01\n      swap5\n        /* \"contracts/sseaERC20.sol\":7260:7918  function mint(uint256 amount) public returns (bool) {... */\n      swap4\n      pop\n      pop\n      pop\n      pop\n      jump\t// out\n        /* \"contracts/sseaERC20.sol\":1218:1255  mapping(address => User) public users */\n    tag_85:\n      mstore(0x20, 0x03)\n      0x00\n      swap1\n      dup2\n      mstore\n      0x40\n      swap1\n      keccak256\n      sload\n      sub(shl(0x80, 0x01), 0x01)\n      dup1\n      dup3\n      and\n      swap2\n      shl(0x80, 0x01)\n      swap1\n      div\n      and\n      dup3\n      jump\t// out\n        /* \"contracts/sseaERC20.sol\":4122:4261  function transfer(address to, uint256 shares) public returns (bool) {... */\n    tag_90:\n        /* \"contracts/sseaERC20.sol\":4184:4188  bool */\n      0x00\n        /* \"contracts/sseaERC20.sol\":4200:4233  _transfer(msg.sender, to, shares) */\n      tag_132\n        /* \"contracts/sseaERC20.sol\":4210:4220  msg.sender */\n      caller\n        /* \"contracts/sseaERC20.sol\":4222:4224  to */\n      dup5\n        /* \"contracts/sseaERC20.sol\":4226:4232  shares */\n      dup5\n        /* \"contracts/sseaERC20.sol\":4200:4209  _transfer */\n      tag_125\n        /* \"contracts/sseaERC20.sol\":4200:4233  _transfer(msg.sender, to, shares) */\n      jump\t// in\n        /* \"contracts/sseaERC20.sol\":935:956  address public _owner */\n    tag_93:\n      and(sub(shl(0xa0, 0x01), 0x01), sload(0x02))\n      dup2\n      jump\t// out\n        /* \"contracts/sseaERC20.sol\":6094:7056  function permit(... */\n    tag_98:\n      sub(shl(0xa0, 0x01), 0x01)\n        /* \"contracts/sseaERC20.sol\":6305:6325  owner_ != address(0) */\n      dup8\n      and\n        /* \"contracts/sseaERC20.sol\":6297:6340  require(owner_ != address(0), \"Zero owner\") */\n      tag_158\n      jumpi\n      mload(0x40)\n      shl(0xe5, 0x461bcd)\n      dup2\n      mstore\n      0x04\n      add\n      tag_136\n      swap1\n      tag_160\n      jump\t// in\n    tag_158:\n        /* \"contracts/sseaERC20.sol\":6376:6384  deadline */\n      dup4\n        /* \"contracts/sseaERC20.sol\":6358:6373  block.timestamp */\n      timestamp\n        /* \"contracts/sseaERC20.sol\":6358:6384  block.timestamp < deadline */\n      lt\n        /* \"contracts/sseaERC20.sol\":6350:6396  require(block.timestamp < deadline, \"Expired\") */\n      tag_161\n      jumpi\n      mload(0x40)\n      shl(0xe5, 0x461bcd)\n      dup2\n      mstore\n      0x04\n      add\n      tag_136\n      swap1\n      tag_163\n      jump\t// in\n    tag_161:\n      sub(shl(0xa0, 0x01), 0x01)\n        /* \"contracts/sseaERC20.sol\":6427:6921  ecrecover(... */\n      dup8\n      and\n        /* \"contracts/sseaERC20.sol\":6561:6582  PERMIT_SIGNATURE_HASH */\n      0x00\n        /* \"contracts/sseaERC20.sol\":6720:6734  nonces[owner_] */\n      dup2\n      dup2\n      mstore\n        /* \"contracts/sseaERC20.sol\":6720:6726  nonces */\n      0x05\n        /* \"contracts/sseaERC20.sol\":6720:6734  nonces[owner_] */\n      0x20\n      swap1\n      dup2\n      mstore\n      0x40\n      swap2\n      dup3\n      swap1\n      keccak256\n        /* \"contracts/sseaERC20.sol\":6720:6736  nonces[owner_]++ */\n      dup1\n      sload\n        /* \"contracts/sseaERC20.sol\":6427:6911  ecrecover(... */\n      0x01\n        /* \"contracts/sseaERC20.sol\":6720:6736  nonces[owner_]++ */\n      dup2\n      dup2\n      add\n      swap1\n      swap3\n      sstore\n        /* \"contracts/sseaERC20.sol\":6521:6800  abi.encode(... */\n      swap3\n      mload\n        /* \"contracts/sseaERC20.sol\":6427:6911  ecrecover(... */\n      swap1\n      swap3\n        /* \"contracts/sseaERC20.sol\":6454:6840  _getDigest(... */\n      tag_164\n      swap3\n        /* \"contracts/sseaERC20.sol\":6521:6800  abi.encode(... */\n      tag_165\n      swap3\n        /* \"contracts/sseaERC20.sol\":5634:5700  0x6e71edae12b1b97f4d1f60370fef10105fa2faae0126114a169c64845d6126c9 */\n      0x6e71edae12b1b97f4d1f60370fef10105fa2faae0126114a169c64845d6126c9\n      swap3\n        /* \"contracts/sseaERC20.sol\":6915:6921  owner_ */\n      dup15\n      swap3\n        /* \"contracts/sseaERC20.sol\":6648:6655  spender */\n      dup15\n      swap3\n        /* \"contracts/sseaERC20.sol\":6685:6690  value */\n      dup15\n      swap3\n        /* \"contracts/sseaERC20.sol\":6720:6736  nonces[owner_]++ */\n      swap2\n        /* \"contracts/sseaERC20.sol\":6766:6774  deadline */\n      dup15\n      swap2\n        /* \"contracts/sseaERC20.sol\":6521:6800  abi.encode(... */\n      add\n      tag_166\n      jump\t// in\n    tag_165:\n      mload(0x40)\n      0x20\n      dup2\n      dup4\n      sub\n      sub\n      dup2\n      mstore\n      swap1\n      0x40\n      mstore\n        /* \"contracts/sseaERC20.sol\":6486:6822  keccak256(... */\n      dup1\n      mload\n      swap1\n      0x20\n      add\n      keccak256\n        /* \"contracts/sseaERC20.sol\":6454:6464  _getDigest */\n      tag_167\n        /* \"contracts/sseaERC20.sol\":6454:6840  _getDigest(... */\n      jump\t// in\n    tag_164:\n        /* \"contracts/sseaERC20.sol\":6858:6859  v */\n      dup6\n        /* \"contracts/sseaERC20.sol\":6877:6878  r */\n      dup6\n        /* \"contracts/sseaERC20.sol\":6896:6897  s */\n      dup6\n        /* \"contracts/sseaERC20.sol\":6427:6911  ecrecover(... */\n      mload(0x40)\n      0x00\n      dup2\n      mstore\n      0x20\n      add\n      0x40\n      mstore\n      mload(0x40)\n      tag_168\n      swap5\n      swap4\n      swap3\n      swap2\n      swap1\n      tag_169\n      jump\t// in\n    tag_168:\n      0x20\n      mload(0x40)\n      0x20\n      dup2\n      sub\n      swap1\n      dup1\n      dup5\n      sub\n      swap1\n      dup6\n      gas\n      staticcall\n      iszero\n      dup1\n      iszero\n      tag_171\n      jumpi\n      returndatasize\n      0x00\n      dup1\n      returndatacopy\n      revert(0x00, returndatasize)\n    tag_171:\n      pop\n      pop\n      pop\n      mload(sub(mload(0x40), 0x20))\n      sub(shl(0xa0, 0x01), 0x01)\n        /* \"contracts/sseaERC20.sol\":6427:6921  ecrecover(... */\n      and\n      eq\n        /* \"contracts/sseaERC20.sol\":6406:6958  require(... */\n      tag_172\n      jumpi\n      mload(0x40)\n      shl(0xe5, 0x461bcd)\n      dup2\n      mstore\n      0x04\n      add\n      tag_136\n      swap1\n      tag_174\n      jump\t// in\n    tag_172:\n      sub(shl(0xa0, 0x01), 0x01)\n        /* \"contracts/sseaERC20.sol\":6968:6985  allowance[owner_] */\n      dup1\n      dup9\n      and\n      0x00\n      dup2\n      dup2\n      mstore\n        /* \"contracts/sseaERC20.sol\":6968:6977  allowance */\n      0x04\n        /* \"contracts/sseaERC20.sol\":6968:6985  allowance[owner_] */\n      0x20\n      swap1\n      dup2\n      mstore\n      0x40\n      dup1\n      dup4\n      keccak256\n        /* \"contracts/sseaERC20.sol\":6968:6994  allowance[owner_][spender] */\n      swap5\n      dup12\n      and\n      dup1\n      dup5\n      mstore\n      swap5\n      swap1\n      swap2\n      mstore\n      swap1\n      dup2\n      swap1\n      keccak256\n        /* \"contracts/sseaERC20.sol\":6968:7002  allowance[owner_][spender] = value */\n      dup9\n      swap1\n      sstore\n        /* \"contracts/sseaERC20.sol\":7017:7049  Approval(owner_, spender, value) */\n      mload\n      0x8c5be1e5ebec7d5bd14f71427d1e84f3dd0314c0f7b2291e5b200ac8c7c3b925\n      swap1\n      tag_175\n      swap1\n        /* \"contracts/sseaERC20.sol\":6997:7002  value */\n      dup10\n      swap1\n        /* \"contracts/sseaERC20.sol\":7017:7049  Approval(owner_, spender, value) */\n      tag_54\n      jump\t// in\n    tag_175:\n      mload(0x40)\n      dup1\n      swap2\n      sub\n      swap1\n      log3\n        /* \"contracts/sseaERC20.sol\":6094:7056  function permit(... */\n      pop\n      pop\n      pop\n      pop\n      pop\n      pop\n      pop\n      jump\t// out\n        /* \"contracts/sseaERC20.sol\":1314:1387  mapping(address => mapping(address => uint256)) public override allowance */\n    tag_102:\n      0x04\n      0x20\n      swap1\n      dup2\n      mstore\n      0x00\n      swap3\n      dup4\n      mstore\n      0x40\n      dup1\n      dup5\n      keccak256\n      swap1\n      swap2\n      mstore\n      swap1\n      dup3\n      mstore\n      swap1\n      keccak256\n      sload\n      dup2\n      jump\t// out\n        /* \"contracts/sseaERC20.sol\":2283:2417  function setLOCK_TIME(uint256 _LOCK_TIME) public onlyOwner returns (bool) {... */\n    tag_106:\n        /* \"contracts/sseaERC20.sol\":2351:2355  bool */\n      0x00\n        /* \"contracts/sseaERC20.sol\":1836:1846  msg.sender */\n      caller\n        /* \"contracts/sseaERC20.sol\":1825:1832  owner() */\n      tag_177\n        /* \"contracts/sseaERC20.sol\":1825:1830  owner */\n      tag_68\n        /* \"contracts/sseaERC20.sol\":1825:1832  owner() */\n      jump\t// in\n    tag_177:\n      sub(shl(0xa0, 0x01), 0x01)\n        /* \"contracts/sseaERC20.sol\":1825:1846  owner() == msg.sender */\n      and\n      eq\n        /* \"contracts/sseaERC20.sol\":1817:1883  require(owner() == msg.sender, \"Ownable: caller is not the owner\") */\n      tag_178\n      jumpi\n      mload(0x40)\n      shl(0xe5, 0x461bcd)\n      dup2\n      mstore\n      0x04\n      add\n      tag_136\n      swap1\n      tag_180\n      jump\t// in\n    tag_178:\n      pop\n        /* \"contracts/sseaERC20.sol\":2367:2376  LOCK_TIME */\n      0x01\n        /* \"contracts/sseaERC20.sol\":2367:2389  LOCK_TIME = _LOCK_TIME */\n      swap1\n      dup2\n      sstore\n        /* \"contracts/sseaERC20.sol\":2367:2376  LOCK_TIME */\n      swap1\n        /* \"contracts/sseaERC20.sol\":2283:2417  function setLOCK_TIME(uint256 _LOCK_TIME) public onlyOwner returns (bool) {... */\n      jump\t// out\n        /* \"contracts/sseaERC20.sol\":8629:8839  function burnFrom(... */\n    tag_110:\n        /* \"contracts/sseaERC20.sol\":8735:8739  bool */\n      0x00\n        /* \"contracts/sseaERC20.sol\":8751:8778  _useAllowance(from, shares) */\n      tag_183\n        /* \"contracts/sseaERC20.sol\":8765:8769  from */\n      dup5\n        /* \"contracts/sseaERC20.sol\":8771:8777  shares */\n      dup4\n        /* \"contracts/sseaERC20.sol\":8751:8764  _useAllowance */\n      tag_123\n        /* \"contracts/sseaERC20.sol\":8751:8778  _useAllowance(from, shares) */\n      jump\t// in\n    tag_183:\n        /* \"contracts/sseaERC20.sol\":8788:8811  _burn(from, to, shares) */\n      tag_124\n        /* \"contracts/sseaERC20.sol\":8794:8798  from */\n      dup5\n        /* \"contracts/sseaERC20.sol\":8800:8802  to */\n      dup5\n        /* \"contracts/sseaERC20.sol\":8804:8810  shares */\n      dup5\n        /* \"contracts/sseaERC20.sol\":8788:8793  _burn */\n      tag_133\n        /* \"contracts/sseaERC20.sol\":8788:8811  _burn(from, to, shares) */\n      jump\t// in\n        /* \"contracts/sseaERC20.sol\":1907:2139  function transferOwnership(address newOwner) public virtual onlyOwner {... */\n    tag_114:\n        /* \"contracts/sseaERC20.sol\":1836:1846  msg.sender */\n      caller\n        /* \"contracts/sseaERC20.sol\":1825:1832  owner() */\n      tag_186\n        /* \"contracts/sseaERC20.sol\":1825:1830  owner */\n      tag_68\n        /* \"contracts/sseaERC20.sol\":1825:1832  owner() */\n      jump\t// in\n    tag_186:\n      sub(shl(0xa0, 0x01), 0x01)\n        /* \"contracts/sseaERC20.sol\":1825:1846  owner() == msg.sender */\n      and\n      eq\n        /* \"contracts/sseaERC20.sol\":1817:1883  require(owner() == msg.sender, \"Ownable: caller is not the owner\") */\n      tag_187\n      jumpi\n      mload(0x40)\n      shl(0xe5, 0x461bcd)\n      dup2\n      mstore\n      0x04\n      add\n      tag_136\n      swap1\n      tag_180\n      jump\t// in\n    tag_187:\n      sub(shl(0xa0, 0x01), 0x01)\n        /* \"contracts/sseaERC20.sol\":2008:2030  newOwner != address(0) */\n      dup2\n      and\n        /* \"contracts/sseaERC20.sol\":1987:2094  require(... */\n      tag_190\n      jumpi\n      mload(0x40)\n      shl(0xe5, 0x461bcd)\n      dup2\n      mstore\n      0x04\n      add\n      tag_136\n      swap1\n      tag_192\n      jump\t// in\n    tag_190:\n        /* \"contracts/sseaERC20.sol\":2104:2132  _transferOwnership(newOwner) */\n      tag_193\n        /* \"contracts/sseaERC20.sol\":2123:2131  newOwner */\n      dup2\n        /* \"contracts/sseaERC20.sol\":2104:2122  _transferOwnership */\n      tag_194\n        /* \"contracts/sseaERC20.sol\":2104:2132  _transferOwnership(newOwner) */\n      jump\t// in\n    tag_193:\n        /* \"contracts/sseaERC20.sol\":1907:2139  function transferOwnership(address newOwner) public virtual onlyOwner {... */\n      pop\n      jump\t// out\n        /* \"contracts/sseaERC20.sol\":962:991  IERC20 public immutable token */\n    tag_116:\n      immutable(\"0x135d24c3045eb2fc378507486529b206ce031bd4e306ff07b2abc1c06a63b749\")\n      dup2\n      jump\t// out\n        /* \"contracts/sseaERC20.sol\":3391:3902  function _useAllowance(address from, uint256 shares) internal {... */\n    tag_123:\n        /* \"contracts/sseaERC20.sol\":3467:3477  msg.sender */\n      caller\n      sub(shl(0xa0, 0x01), 0x01)\n        /* \"contracts/sseaERC20.sol\":3467:3485  msg.sender == from */\n      dup4\n      and\n      eq\n        /* \"contracts/sseaERC20.sol\":3463:3518  if (msg.sender == from) {... */\n      iszero\n      tag_196\n      jumpi\n        /* \"contracts/sseaERC20.sol\":3501:3508  return; */\n      jump(tag_195)\n        /* \"contracts/sseaERC20.sol\":3463:3518  if (msg.sender == from) {... */\n    tag_196:\n      sub(shl(0xa0, 0x01), 0x01)\n        /* \"contracts/sseaERC20.sol\":3554:3569  allowance[from] */\n      dup3\n      and\n        /* \"contracts/sseaERC20.sol\":3527:3551  uint256 spenderAllowance */\n      0x00\n        /* \"contracts/sseaERC20.sol\":3554:3569  allowance[from] */\n      swap1\n      dup2\n      mstore\n        /* \"contracts/sseaERC20.sol\":3554:3563  allowance */\n      0x04\n        /* \"contracts/sseaERC20.sol\":3554:3569  allowance[from] */\n      0x20\n      swap1\n      dup2\n      mstore\n      0x40\n      dup1\n      dup4\n      keccak256\n        /* \"contracts/sseaERC20.sol\":3570:3580  msg.sender */\n      caller\n        /* \"contracts/sseaERC20.sol\":3554:3581  allowance[from][msg.sender] */\n      dup5\n      mstore\n      swap1\n      swap2\n      mstore\n      swap1\n      keccak256\n      sload\n      not(0x00)\n        /* \"contracts/sseaERC20.sol\":3687:3724  spenderAllowance != type(uint256).max */\n      dup2\n      eq\n        /* \"contracts/sseaERC20.sol\":3683:3896  if (spenderAllowance != type(uint256).max) {... */\n      tag_197\n      jumpi\n        /* \"contracts/sseaERC20.sol\":3768:3774  shares */\n      dup2\n        /* \"contracts/sseaERC20.sol\":3748:3764  spenderAllowance */\n      dup2\n        /* \"contracts/sseaERC20.sol\":3748:3774  spenderAllowance >= shares */\n      lt\n      iszero\n        /* \"contracts/sseaERC20.sol\":3740:3792  require(spenderAllowance >= shares, \"Low allowance\") */\n      tag_198\n      jumpi\n      mload(0x40)\n      shl(0xe5, 0x461bcd)\n      dup2\n      mstore\n      0x04\n      add\n      tag_136\n      swap1\n      tag_200\n      jump\t// in\n    tag_198:\n      sub(shl(0xa0, 0x01), 0x01)\n        /* \"contracts/sseaERC20.sol\":3806:3821  allowance[from] */\n      dup4\n      and\n      0x00\n      swap1\n      dup2\n      mstore\n        /* \"contracts/sseaERC20.sol\":3806:3815  allowance */\n      0x04\n        /* \"contracts/sseaERC20.sol\":3806:3821  allowance[from] */\n      0x20\n      swap1\n      dup2\n      mstore\n      0x40\n      dup1\n      dup4\n      keccak256\n        /* \"contracts/sseaERC20.sol\":3822:3832  msg.sender */\n      caller\n        /* \"contracts/sseaERC20.sol\":3806:3833  allowance[from][msg.sender] */\n      dup5\n      mstore\n      swap1\n      swap2\n      mstore\n      swap1\n      keccak256\n        /* \"contracts/sseaERC20.sol\":3836:3861  spenderAllowance - shares */\n      dup3\n      dup3\n      sub\n        /* \"contracts/sseaERC20.sol\":3806:3861  allowance[from][msg.sender] = spenderAllowance - shares */\n      swap1\n      sstore\n        /* \"contracts/sseaERC20.sol\":3683:3896  if (spenderAllowance != type(uint256).max) {... */\n    tag_197:\n        /* \"contracts/sseaERC20.sol\":3391:3902  function _useAllowance(address from, uint256 shares) internal {... */\n      pop\n    tag_195:\n      pop\n      pop\n      jump\t// out\n        /* \"contracts/sseaERC20.sol\":2588:3385  function _transfer(... */\n    tag_125:\n        /* \"contracts/sseaERC20.sol\":2698:2718  User memory fromUser */\n      tag_202\n      tag_139\n      jump\t// in\n    tag_202:\n      pop\n      sub(shl(0xa0, 0x01), 0x01)\n        /* \"contracts/sseaERC20.sol\":2721:2732  users[from] */\n      dup4\n      and\n      0x00\n      swap1\n      dup2\n      mstore\n        /* \"contracts/sseaERC20.sol\":2721:2726  users */\n      0x03\n        /* \"contracts/sseaERC20.sol\":2721:2732  users[from] */\n      0x20\n      swap1\n      dup2\n      mstore\n      0x40\n      swap2\n      dup3\n      swap1\n      keccak256\n        /* \"contracts/sseaERC20.sol\":2698:2732  User memory fromUser = users[from] */\n      dup3\n      mload\n      dup1\n      dup5\n      add\n      swap1\n      swap4\n      mstore\n      sload\n      sub(shl(0x80, 0x01), 0x01)\n      dup1\n      dup3\n      and\n      dup5\n      mstore\n      shl(0x80, 0x01)\n      swap1\n      swap2\n      div\n      and\n      swap1\n      dup3\n      add\n      dup2\n      swap1\n      mstore\n        /* \"contracts/sseaERC20.sol\":2750:2765  block.timestamp */\n      timestamp\n        /* \"contracts/sseaERC20.sol\":2750:2789  block.timestamp >= fromUser.lockedUntil */\n      lt\n      iszero\n        /* \"contracts/sseaERC20.sol\":2742:2800  require(block.timestamp >= fromUser.lockedUntil, \"Locked\") */\n      tag_203\n      jumpi\n      mload(0x40)\n      shl(0xe5, 0x461bcd)\n      dup2\n      mstore\n      0x04\n      add\n      tag_136\n      swap1\n      tag_205\n      jump\t// in\n    tag_203:\n        /* \"contracts/sseaERC20.sol\":2814:2825  shares != 0 */\n      dup2\n      iszero\n        /* \"contracts/sseaERC20.sol\":2810:3338  if (shares != 0) {... */\n      tag_210\n      jumpi\n        /* \"contracts/sseaERC20.sol\":2849:2865  fromUser.balance */\n      dup1\n      mload\n      sub(shl(0x80, 0x01), 0x01)\n        /* \"contracts/sseaERC20.sol\":2849:2875  fromUser.balance >= shares */\n      and\n      dup3\n      gt\n      iszero\n        /* \"contracts/sseaERC20.sol\":2841:2891  require(fromUser.balance >= shares, \"Low balance\") */\n      tag_207\n      jumpi\n      mload(0x40)\n      shl(0xe5, 0x461bcd)\n      dup2\n      mstore\n      0x04\n      add\n      tag_136\n      swap1\n      tag_209\n      jump\t// in\n    tag_207:\n        /* \"contracts/sseaERC20.sol\":2917:2919  to */\n      dup3\n      sub(shl(0xa0, 0x01), 0x01)\n        /* \"contracts/sseaERC20.sol\":2909:2919  from != to */\n      and\n        /* \"contracts/sseaERC20.sol\":2909:2913  from */\n      dup5\n      sub(shl(0xa0, 0x01), 0x01)\n        /* \"contracts/sseaERC20.sol\":2909:2919  from != to */\n      and\n      eq\n        /* \"contracts/sseaERC20.sol\":2905:3328  if (from != to) {... */\n      tag_210\n      jumpi\n      sub(shl(0xa0, 0x01), 0x01)\n        /* \"contracts/sseaERC20.sol\":2947:2963  to != address(0) */\n      dup4\n      and\n        /* \"contracts/sseaERC20.sol\":2939:2980  require(to != address(0), \"Zero address\") */\n      tag_211\n      jumpi\n      mload(0x40)\n      shl(0xe5, 0x461bcd)\n      dup2\n      mstore\n      0x04\n      add\n      tag_136\n      swap1\n      tag_137\n      jump\t// in\n    tag_211:\n        /* \"contracts/sseaERC20.sol\":3048:3066  User memory toUser */\n      tag_213\n      tag_139\n      jump\t// in\n    tag_213:\n      pop\n      sub(shl(0xa0, 0x01), 0x01)\n        /* \"contracts/sseaERC20.sol\":3069:3078  users[to] */\n      dup4\n      and\n      0x00\n      swap1\n      dup2\n      mstore\n        /* \"contracts/sseaERC20.sol\":3069:3074  users */\n      0x03\n        /* \"contracts/sseaERC20.sol\":3069:3078  users[to] */\n      0x20\n      swap1\n      dup2\n      mstore\n      0x40\n      swap2\n      dup3\n      swap1\n      keccak256\n        /* \"contracts/sseaERC20.sol\":3048:3078  User memory toUser = users[to] */\n      dup3\n      mload\n      dup1\n      dup5\n      add\n      swap1\n      swap4\n      mstore\n      sload\n      sub(shl(0x80, 0x01), 0x01)\n      dup1\n      dup3\n      and\n      dup5\n      mstore\n      shl(0x80, 0x01)\n      swap1\n      swap2\n      div\n      and\n      swap1\n      dup3\n      add\n      mstore\n        /* \"contracts/sseaERC20.sol\":3137:3151  shares.to128() */\n      tag_214\n        /* \"contracts/sseaERC20.sol\":3137:3143  shares */\n      dup4\n        /* \"contracts/sseaERC20.sol\":3137:3149  shares.to128 */\n      tag_150\n        /* \"contracts/sseaERC20.sol\":3137:3151  shares.to128() */\n      jump\t// in\n    tag_214:\n        /* \"contracts/sseaERC20.sol\":3118:3134  fromUser.balance */\n      dup3\n      mload\n      sub(shl(0xa0, 0x01), 0x01)\n        /* \"contracts/sseaERC20.sol\":3096:3107  users[from] */\n      dup8\n      and\n        /* \"contracts/sseaERC20.sol\":3118:3134  fromUser.balance */\n      0x00\n        /* \"contracts/sseaERC20.sol\":3096:3107  users[from] */\n      swap1\n      dup2\n      mstore\n        /* \"contracts/sseaERC20.sol\":3096:3101  users */\n      0x03\n        /* \"contracts/sseaERC20.sol\":3096:3107  users[from] */\n      0x20\n      mstore\n      0x40\n      swap1\n      keccak256\n        /* \"contracts/sseaERC20.sol\":3096:3151  users[from].balance = fromUser.balance - shares.to128() */\n      dup1\n      sload\n      not(sub(shl(0x80, 0x01), 0x01))\n      and\n        /* \"contracts/sseaERC20.sol\":3118:3151  fromUser.balance - shares.to128() */\n      swap3\n      swap1\n      swap2\n      sub\n      sub(shl(0x80, 0x01), 0x01)\n        /* \"contracts/sseaERC20.sol\":3096:3151  users[from].balance = fromUser.balance - shares.to128() */\n      and\n      swap2\n      swap1\n      swap2\n      or\n      swap1\n      sstore\n        /* \"contracts/sseaERC20.sol\":3230:3244  shares.to128() */\n      tag_215\n        /* \"contracts/sseaERC20.sol\":3230:3236  shares */\n      dup4\n        /* \"contracts/sseaERC20.sol\":3230:3242  shares.to128 */\n      tag_150\n        /* \"contracts/sseaERC20.sol\":3230:3244  shares.to128() */\n      jump\t// in\n    tag_215:\n        /* \"contracts/sseaERC20.sol\":3213:3227  toUser.balance */\n      swap1\n      mload\n      sub(shl(0xa0, 0x01), 0x01)\n        /* \"contracts/sseaERC20.sol\":3193:3202  users[to] */\n      dup6\n      and\n        /* \"contracts/sseaERC20.sol\":3213:3227  toUser.balance */\n      0x00\n        /* \"contracts/sseaERC20.sol\":3193:3202  users[to] */\n      swap1\n      dup2\n      mstore\n        /* \"contracts/sseaERC20.sol\":3193:3198  users */\n      0x03\n        /* \"contracts/sseaERC20.sol\":3193:3202  users[to] */\n      0x20\n      mstore\n      0x40\n      swap1\n      keccak256\n        /* \"contracts/sseaERC20.sol\":3193:3244  users[to].balance = toUser.balance + shares.to128() */\n      dup1\n      sload\n      not(sub(shl(0x80, 0x01), 0x01))\n      and\n        /* \"contracts/sseaERC20.sol\":3213:3244  toUser.balance + shares.to128() */\n      swap2\n      swap1\n      swap3\n      add\n      sub(shl(0x80, 0x01), 0x01)\n        /* \"contracts/sseaERC20.sol\":3193:3244  users[to].balance = toUser.balance + shares.to128() */\n      and\n      or\n      swap1\n      sstore\n        /* \"contracts/sseaERC20.sol\":2905:3328  if (from != to) {... */\n    tag_210:\n        /* \"contracts/sseaERC20.sol\":3367:3369  to */\n      dup3\n      sub(shl(0xa0, 0x01), 0x01)\n        /* \"contracts/sseaERC20.sol\":3352:3378  Transfer(from, to, shares) */\n      and\n        /* \"contracts/sseaERC20.sol\":3361:3365  from */\n      dup5\n      sub(shl(0xa0, 0x01), 0x01)\n        /* \"contracts/sseaERC20.sol\":3352:3378  Transfer(from, to, shares) */\n      and\n      0xddf252ad1be2c89b69c2b068fc378daa952ba7f163c4a11628f55a4df523b3ef\n        /* \"contracts/sseaERC20.sol\":3371:3377  shares */\n      dup5\n        /* \"contracts/sseaERC20.sol\":3352:3378  Transfer(from, to, shares) */\n      mload(0x40)\n      tag_216\n      swap2\n      swap1\n      tag_54\n      jump\t// in\n    tag_216:\n      mload(0x40)\n      dup1\n      swap2\n      sub\n      swap1\n      log3\n        /* \"contracts/sseaERC20.sol\":2588:3385  function _transfer(... */\n      pop\n      pop\n      pop\n      pop\n      jump\t// out\n        /* \"@boringcrypto/boring-solidity/contracts/Domain.sol\":1546:1780  function _domainSeparator() internal view returns (bytes32) {... */\n    tag_128:\n        /* \"@boringcrypto/boring-solidity/contracts/Domain.sol\":1597:1604  bytes32 */\n      0x00\n        /* \"@boringcrypto/boring-solidity/contracts/Domain.sol\":1654:1663  chainid() */\n      chainid\n        /* \"@boringcrypto/boring-solidity/contracts/Domain.sol\":1691:1716  DOMAIN_SEPARATOR_CHAIN_ID */\n      immutable(\"0x24036ccf201a67256250eabe66d3f9fd72f9c4d022f225a8ee964be060dcb993\")\n        /* \"@boringcrypto/boring-solidity/contracts/Domain.sol\":1680:1716  chainId == DOMAIN_SEPARATOR_CHAIN_ID */\n      dup2\n      eq\n        /* \"@boringcrypto/boring-solidity/contracts/Domain.sol\":1680:1773  chainId == DOMAIN_SEPARATOR_CHAIN_ID ? _DOMAIN_SEPARATOR : _calculateDomainSeparator(chainId) */\n      tag_218\n      jumpi\n        /* \"@boringcrypto/boring-solidity/contracts/Domain.sol\":1739:1773  _calculateDomainSeparator(chainId) */\n      tag_219\n        /* \"@boringcrypto/boring-solidity/contracts/Domain.sol\":1765:1772  chainId */\n      dup2\n        /* \"@boringcrypto/boring-solidity/contracts/Domain.sol\":1739:1764  _calculateDomainSeparator */\n      tag_220\n        /* \"@boringcrypto/boring-solidity/contracts/Domain.sol\":1739:1773  _calculateDomainSeparator(chainId) */\n      jump\t// in\n    tag_219:\n        /* \"@boringcrypto/boring-solidity/contracts/Domain.sol\":1680:1773  chainId == DOMAIN_SEPARATOR_CHAIN_ID ? _DOMAIN_SEPARATOR : _calculateDomainSeparator(chainId) */\n      jump(tag_221)\n    tag_218:\n        /* \"@boringcrypto/boring-solidity/contracts/Domain.sol\":1719:1736  _DOMAIN_SEPARATOR */\n      immutable(\"0x7dbef654fd5c6145f82b72cd5dbbfc6d48fd276b8a7a4371a61d55985b9d6d8b\")\n        /* \"@boringcrypto/boring-solidity/contracts/Domain.sol\":1680:1773  chainId == DOMAIN_SEPARATOR_CHAIN_ID ? _DOMAIN_SEPARATOR : _calculateDomainSeparator(chainId) */\n    tag_221:\n        /* \"@boringcrypto/boring-solidity/contracts/Domain.sol\":1673:1773  return chainId == DOMAIN_SEPARATOR_CHAIN_ID ? _DOMAIN_SEPARATOR : _calculateDomainSeparator(chainId) */\n      swap2\n      pop\n      pop\n        /* \"@boringcrypto/boring-solidity/contracts/Domain.sol\":1546:1780  function _domainSeparator() internal view returns (bytes32) {... */\n      swap1\n      jump\t// out\n        /* \"contracts/sseaERC20.sol\":7924:8486  function _burn(... */\n    tag_133:\n      sub(shl(0xa0, 0x01), 0x01)\n        /* \"contracts/sseaERC20.sol\":8038:8054  to != address(0) */\n      dup3\n      and\n        /* \"contracts/sseaERC20.sol\":8030:8071  require(to != address(0), \"Zero address\") */\n      tag_223\n      jumpi\n      mload(0x40)\n      shl(0xe5, 0x461bcd)\n      dup2\n      mstore\n      0x04\n      add\n      tag_136\n      swap1\n      tag_137\n      jump\t// in\n    tag_223:\n        /* \"contracts/sseaERC20.sol\":8081:8097  User memory user */\n      tag_225\n      tag_139\n      jump\t// in\n    tag_225:\n      pop\n      sub(shl(0xa0, 0x01), 0x01)\n        /* \"contracts/sseaERC20.sol\":8100:8111  users[from] */\n      dup4\n      and\n      0x00\n      swap1\n      dup2\n      mstore\n        /* \"contracts/sseaERC20.sol\":8100:8105  users */\n      0x03\n        /* \"contracts/sseaERC20.sol\":8100:8111  users[from] */\n      0x20\n      swap1\n      dup2\n      mstore\n      0x40\n      swap2\n      dup3\n      swap1\n      keccak256\n        /* \"contracts/sseaERC20.sol\":8081:8111  User memory user = users[from] */\n      dup3\n      mload\n      dup1\n      dup5\n      add\n      swap1\n      swap4\n      mstore\n      sload\n      sub(shl(0x80, 0x01), 0x01)\n      dup1\n      dup3\n      and\n      dup5\n      mstore\n      shl(0x80, 0x01)\n      swap1\n      swap2\n      div\n      and\n      swap1\n      dup3\n      add\n      dup2\n      swap1\n      mstore\n        /* \"contracts/sseaERC20.sol\":8129:8144  block.timestamp */\n      timestamp\n        /* \"contracts/sseaERC20.sol\":8129:8164  block.timestamp >= user.lockedUntil */\n      lt\n      iszero\n        /* \"contracts/sseaERC20.sol\":8121:8175  require(block.timestamp >= user.lockedUntil, \"Locked\") */\n      tag_226\n      jumpi\n      mload(0x40)\n      shl(0xe5, 0x461bcd)\n      dup2\n      mstore\n      0x04\n      add\n      tag_136\n      swap1\n      tag_205\n      jump\t// in\n    tag_226:\n        /* \"contracts/sseaERC20.sol\":8185:8199  uint256 amount */\n      0x00\n        /* \"contracts/sseaERC20.sol\":8258:8269  totalSupply */\n      dup1\n      sload\n        /* \"contracts/sseaERC20.sol\":8212:8242  token.balanceOf(address(this)) */\n      mload(0x40)\n      shl(0xe0, 0x70a08231)\n      dup2\n      mstore\n      sub(shl(0xa0, 0x01), 0x01)\n        /* \"contracts/sseaERC20.sol\":8212:8217  token */\n      immutable(\"0x135d24c3045eb2fc378507486529b206ce031bd4e306ff07b2abc1c06a63b749\")\n        /* \"contracts/sseaERC20.sol\":8212:8227  token.balanceOf */\n      and\n      swap1\n      0x70a08231\n      swap1\n        /* \"contracts/sseaERC20.sol\":8212:8242  token.balanceOf(address(this)) */\n      tag_228\n      swap1\n        /* \"contracts/sseaERC20.sol\":8236:8240  this */\n      address\n      swap1\n        /* \"contracts/sseaERC20.sol\":8212:8242  token.balanceOf(address(this)) */\n      0x04\n      add\n      tag_70\n      jump\t// in\n    tag_228:\n      0x20\n      mload(0x40)\n      dup1\n      dup4\n      sub\n      dup2\n      dup7\n      dup1\n      extcodesize\n      iszero\n      dup1\n      iszero\n      tag_229\n      jumpi\n      0x00\n      dup1\n      revert\n    tag_229:\n      pop\n      gas\n      staticcall\n      iszero\n      dup1\n      iszero\n      tag_231\n      jumpi\n      returndatasize\n      0x00\n      dup1\n      returndatacopy\n      revert(0x00, returndatasize)\n    tag_231:\n      pop\n      pop\n      pop\n      pop\n      mload(0x40)\n      returndatasize\n      not(0x1f)\n      0x1f\n      dup3\n      add\n      and\n      dup3\n      add\n      dup1\n      0x40\n      mstore\n      pop\n      dup2\n      add\n      swap1\n      tag_232\n      swap2\n      swap1\n      tag_145\n      jump\t// in\n    tag_232:\n        /* \"contracts/sseaERC20.sol\":8203:8209  shares */\n      dup5\n        /* \"contracts/sseaERC20.sol\":8203:8242  shares * token.balanceOf(address(this)) */\n      mul\n        /* \"contracts/sseaERC20.sol\":8202:8269  (shares * token.balanceOf(address(this))) /... */\n      dup2\n      tag_233\n      jumpi\n      invalid\n    tag_233:\n      div\n        /* \"contracts/sseaERC20.sol\":8185:8269  uint256 amount = (shares * token.balanceOf(address(this))) /... */\n      swap1\n      pop\n        /* \"contracts/sseaERC20.sol\":8301:8333  user.balance.sub(shares.to128()) */\n      tag_234\n        /* \"contracts/sseaERC20.sol\":8318:8332  shares.to128() */\n      tag_235\n        /* \"contracts/sseaERC20.sol\":8318:8324  shares */\n      dup5\n        /* \"contracts/sseaERC20.sol\":8318:8330  shares.to128 */\n      tag_150\n        /* \"contracts/sseaERC20.sol\":8318:8332  shares.to128() */\n      jump\t// in\n    tag_235:\n        /* \"contracts/sseaERC20.sol\":8301:8313  user.balance */\n      dup4\n      mload\n      sub(shl(0x80, 0x01), 0x01)\n        /* \"contracts/sseaERC20.sol\":8301:8317  user.balance.sub */\n      and\n      swap1\n      tag_236\n        /* \"contracts/sseaERC20.sol\":8301:8333  user.balance.sub(shares.to128()) */\n      jump\t// in\n    tag_234:\n      sub(shl(0xa0, 0x01), 0x01)\n        /* \"contracts/sseaERC20.sol\":8279:8290  users[from] */\n      dup7\n      dup2\n      and\n      0x00\n      swap1\n      dup2\n      mstore\n        /* \"contracts/sseaERC20.sol\":8279:8284  users */\n      0x03\n        /* \"contracts/sseaERC20.sol\":8279:8290  users[from] */\n      0x20\n      mstore\n      0x40\n      dup2\n      keccak256\n        /* \"contracts/sseaERC20.sol\":8279:8333  users[from].balance = user.balance.sub(shares.to128()) */\n      dup1\n      sload\n      not(sub(shl(0x80, 0x01), 0x01))\n      and\n      sub(shl(0x80, 0x01), 0x01)\n      swap5\n      swap1\n      swap5\n      and\n      swap4\n      swap1\n      swap4\n      or\n      swap1\n      swap3\n      sstore\n        /* \"contracts/sseaERC20.sol\":8367:8388  totalSupply -= shares */\n      dup2\n      sload\n      dup6\n      swap1\n      sub\n      swap1\n      swap2\n      sstore\n        /* \"contracts/sseaERC20.sol\":8399:8429  token.safeTransfer(to, amount) */\n      tag_237\n      swap1\n        /* \"contracts/sseaERC20.sol\":8399:8404  token */\n      immutable(\"0x135d24c3045eb2fc378507486529b206ce031bd4e306ff07b2abc1c06a63b749\")\n        /* \"contracts/sseaERC20.sol\":8399:8417  token.safeTransfer */\n      and\n        /* \"contracts/sseaERC20.sol\":8418:8420  to */\n      dup6\n        /* \"contracts/sseaERC20.sol\":8422:8428  amount */\n      dup4\n        /* \"contracts/sseaERC20.sol\":8399:8417  token.safeTransfer */\n      tag_238\n        /* \"contracts/sseaERC20.sol\":8399:8429  token.safeTransfer(to, amount) */\n      jump\t// in\n    tag_237:\n        /* \"contracts/sseaERC20.sol\":8468:8469  0 */\n      0x00\n      sub(shl(0xa0, 0x01), 0x01)\n        /* \"contracts/sseaERC20.sol\":8445:8479  Transfer(from, address(0), shares) */\n      and\n        /* \"contracts/sseaERC20.sol\":8454:8458  from */\n      dup6\n      sub(shl(0xa0, 0x01), 0x01)\n        /* \"contracts/sseaERC20.sol\":8445:8479  Transfer(from, address(0), shares) */\n      and\n      0xddf252ad1be2c89b69c2b068fc378daa952ba7f163c4a11628f55a4df523b3ef\n        /* \"contracts/sseaERC20.sol\":8472:8478  shares */\n      dup6\n        /* \"contracts/sseaERC20.sol\":8445:8479  Transfer(from, address(0), shares) */\n      mload(0x40)\n      tag_239\n      swap2\n      swap1\n      tag_54\n      jump\t// in\n    tag_239:\n      mload(0x40)\n      dup1\n      swap2\n      sub\n      swap1\n      log3\n        /* \"contracts/sseaERC20.sol\":7924:8486  function _burn(... */\n      pop\n      pop\n      pop\n      pop\n      pop\n      jump\t// out\n        /* \"@boringcrypto/boring-solidity/contracts/libraries/BoringMath.sol\":679:837  function to128(uint256 a) internal pure returns (uint128 c) {... */\n    tag_150:\n        /* \"@boringcrypto/boring-solidity/contracts/libraries/BoringMath.sol\":728:737  uint128 c */\n      0x00\n      sub(shl(0x80, 0x01), 0x01)\n        /* \"@boringcrypto/boring-solidity/contracts/libraries/BoringMath.sol\":757:773  a <= uint128(-1) */\n      dup3\n      gt\n      iszero\n        /* \"@boringcrypto/boring-solidity/contracts/libraries/BoringMath.sol\":749:806  require(a <= uint128(-1), \"BoringMath: uint128 Overflow\") */\n      tag_241\n      jumpi\n      mload(0x40)\n      shl(0xe5, 0x461bcd)\n      dup2\n      mstore\n      0x04\n      add\n      tag_136\n      swap1\n      tag_243\n      jump\t// in\n    tag_241:\n      pop\n        /* \"@boringcrypto/boring-solidity/contracts/libraries/BoringMath.sol\":828:829  a */\n      swap1\n        /* \"@boringcrypto/boring-solidity/contracts/libraries/BoringMath.sol\":679:837  function to128(uint256 a) internal pure returns (uint128 c) {... */\n      jump\t// out\n        /* \"@boringcrypto/boring-solidity/contracts/libraries/BoringERC20.sol\":3374:3748  function safeTransferFrom(... */\n    tag_153:\n        /* \"@boringcrypto/boring-solidity/contracts/libraries/BoringERC20.sol\":3514:3526  bool success */\n      0x00\n        /* \"@boringcrypto/boring-solidity/contracts/libraries/BoringERC20.sol\":3528:3545  bytes memory data */\n      0x60\n        /* \"@boringcrypto/boring-solidity/contracts/libraries/BoringERC20.sol\":3557:3562  token */\n      dup6\n      sub(shl(0xa0, 0x01), 0x01)\n        /* \"@boringcrypto/boring-solidity/contracts/libraries/BoringERC20.sol\":3549:3568  address(token).call */\n      and\n        /* \"@boringcrypto/boring-solidity/contracts/libraries/BoringERC20.sol\":483:493  0x23b872dd */\n      0x23b872dd\n        /* \"@boringcrypto/boring-solidity/contracts/libraries/BoringERC20.sol\":3592:3609  SIG_TRANSFER_FROM */\n      0xe0\n      shl\n        /* \"@boringcrypto/boring-solidity/contracts/libraries/BoringERC20.sol\":3611:3615  from */\n      dup7\n        /* \"@boringcrypto/boring-solidity/contracts/libraries/BoringERC20.sol\":3617:3619  to */\n      dup7\n        /* \"@boringcrypto/boring-solidity/contracts/libraries/BoringERC20.sol\":3621:3627  amount */\n      dup7\n        /* \"@boringcrypto/boring-solidity/contracts/libraries/BoringERC20.sol\":3569:3628  abi.encodeWithSelector(SIG_TRANSFER_FROM, from, to, amount) */\n      add(0x24, mload(0x40))\n      tag_245\n      swap4\n      swap3\n      swap2\n      swap1\n      tag_246\n      jump\t// in\n    tag_245:\n      0x40\n      dup1\n      mload\n      not(0x1f)\n      dup2\n      dup5\n      sub\n      add\n      dup2\n      mstore\n      swap2\n      dup2\n      mstore\n      0x20\n      dup3\n      add\n      dup1\n      mload\n      sub(shl(0xe0, 0x01), 0x01)\n      and\n      not(sub(shl(0xe0, 0x01), 0x01))\n      swap1\n      swap5\n      and\n      swap4\n      swap1\n      swap4\n      or\n      swap1\n      swap3\n      mstore\n        /* \"@boringcrypto/boring-solidity/contracts/libraries/BoringERC20.sol\":3549:3629  address(token).call(abi.encodeWithSelector(SIG_TRANSFER_FROM, from, to, amount)) */\n      swap1\n      mload\n      tag_247\n      swap2\n        /* \"@boringcrypto/boring-solidity/contracts/libraries/BoringERC20.sol\":3569:3628  abi.encodeWithSelector(SIG_TRANSFER_FROM, from, to, amount) */\n      swap1\n        /* \"@boringcrypto/boring-solidity/contracts/libraries/BoringERC20.sol\":3549:3629  address(token).call(abi.encodeWithSelector(SIG_TRANSFER_FROM, from, to, amount)) */\n      tag_248\n      jump\t// in\n    tag_247:\n      0x00\n      mload(0x40)\n      dup1\n      dup4\n      sub\n      dup2\n      0x00\n      dup7\n      gas\n      call\n      swap2\n      pop\n      pop\n      returndatasize\n      dup1\n      0x00\n      dup2\n      eq\n      tag_251\n      jumpi\n      mload(0x40)\n      swap2\n      pop\n      and(add(returndatasize, 0x3f), not(0x1f))\n      dup3\n      add\n      0x40\n      mstore\n      returndatasize\n      dup3\n      mstore\n      returndatasize\n      0x00\n      0x20\n      dup5\n      add\n      returndatacopy\n      jump(tag_250)\n    tag_251:\n      0x60\n      swap2\n      pop\n    tag_250:\n      pop\n        /* \"@boringcrypto/boring-solidity/contracts/libraries/BoringERC20.sol\":3513:3629  (bool success, bytes memory data) = address(token).call(abi.encodeWithSelector(SIG_TRANSFER_FROM, from, to, amount)) */\n      swap2\n      pop\n      swap2\n      pop\n        /* \"@boringcrypto/boring-solidity/contracts/libraries/BoringERC20.sol\":3647:3654  success */\n      dup2\n        /* \"@boringcrypto/boring-solidity/contracts/libraries/BoringERC20.sol\":3647:3704  success && (data.length == 0 || abi.decode(data, (bool))) */\n      dup1\n      iszero\n      tag_254\n      jumpi\n      pop\n        /* \"@boringcrypto/boring-solidity/contracts/libraries/BoringERC20.sol\":3659:3670  data.length */\n      dup1\n      mload\n        /* \"@boringcrypto/boring-solidity/contracts/libraries/BoringERC20.sol\":3659:3675  data.length == 0 */\n      iszero\n      dup1\n        /* \"@boringcrypto/boring-solidity/contracts/libraries/BoringERC20.sol\":3659:3703  data.length == 0 || abi.decode(data, (bool)) */\n      tag_254\n      jumpi\n      pop\n        /* \"@boringcrypto/boring-solidity/contracts/libraries/BoringERC20.sol\":3690:3694  data */\n      dup1\n        /* \"@boringcrypto/boring-solidity/contracts/libraries/BoringERC20.sol\":3679:3703  abi.decode(data, (bool)) */\n      dup1\n      0x20\n      add\n      swap1\n      mload\n      dup2\n      add\n      swap1\n      tag_254\n      swap2\n      swap1\n      tag_255\n      jump\t// in\n    tag_254:\n        /* \"@boringcrypto/boring-solidity/contracts/libraries/BoringERC20.sol\":3639:3741  require(success && (data.length == 0 || abi.decode(data, (bool))), \"BoringERC20: TransferFrom failed\") */\n      tag_256\n      jumpi\n      mload(0x40)\n      shl(0xe5, 0x461bcd)\n      dup2\n      mstore\n      0x04\n      add\n      tag_136\n      swap1\n      tag_258\n      jump\t// in\n    tag_256:\n        /* \"@boringcrypto/boring-solidity/contracts/libraries/BoringERC20.sol\":3374:3748  function safeTransferFrom(... */\n      pop\n      pop\n      pop\n      pop\n      pop\n      pop\n      jump\t// out\n        /* \"@boringcrypto/boring-solidity/contracts/Domain.sol\":1786:2108  function _getDigest(bytes32 dataHash) internal view returns (bytes32 digest) {... */\n    tag_167:\n        /* \"@boringcrypto/boring-solidity/contracts/Domain.sol\":1847:1861  bytes32 digest */\n      0x00\n        /* \"@boringcrypto/boring-solidity/contracts/Domain.sol\":1959:1999  EIP191_PREFIX_FOR_EIP712_STRUCTURED_DATA */\n      mload(0x40)\n      dup1\n      0x40\n      add\n      0x40\n      mstore\n      dup1\n      0x02\n      dup2\n      mstore\n      0x20\n      add\n      shl(0xf0, 0x1901)\n      dup2\n      mstore\n      pop\n        /* \"@boringcrypto/boring-solidity/contracts/Domain.sol\":2021:2039  _domainSeparator() */\n      tag_260\n        /* \"@boringcrypto/boring-solidity/contracts/Domain.sol\":2021:2037  _domainSeparator */\n      tag_128\n        /* \"@boringcrypto/boring-solidity/contracts/Domain.sol\":2021:2039  _domainSeparator() */\n      jump\t// in\n    tag_260:\n        /* \"@boringcrypto/boring-solidity/contracts/Domain.sol\":2061:2069  dataHash */\n      dup4\n        /* \"@boringcrypto/boring-solidity/contracts/Domain.sol\":1921:2087  abi.encodePacked(... */\n      add(0x20, mload(0x40))\n      tag_261\n      swap4\n      swap3\n      swap2\n      swap1\n      tag_262\n      jump\t// in\n    tag_261:\n      mload(0x40)\n      0x20\n      dup2\n      dup4\n      sub\n      sub\n      dup2\n      mstore\n      swap1\n      0x40\n      mstore\n        /* \"@boringcrypto/boring-solidity/contracts/Domain.sol\":1894:2101  keccak256(... */\n      dup1\n      mload\n      swap1\n      0x20\n      add\n      keccak256\n        /* \"@boringcrypto/boring-solidity/contracts/Domain.sol\":1873:2101  digest =... */\n      swap1\n      pop\n        /* \"@boringcrypto/boring-solidity/contracts/Domain.sol\":1786:2108  function _getDigest(bytes32 dataHash) internal view returns (bytes32 digest) {... */\n      swap2\n      swap1\n      pop\n      jump\t// out\n        /* \"contracts/sseaERC20.sol\":2145:2277  function _transferOwnership(address newOwner) internal virtual {... */\n    tag_194:\n        /* \"contracts/sseaERC20.sol\":2237:2243  _owner */\n      0x02\n      dup1\n      sload\n      not(sub(shl(0xa0, 0x01), 0x01))\n        /* \"contracts/sseaERC20.sol\":2253:2270  _owner = newOwner */\n      and\n      sub(shl(0xa0, 0x01), 0x01)\n      swap3\n      swap1\n      swap3\n      and\n      swap2\n      swap1\n      swap2\n      or\n      swap1\n      sstore\n        /* \"contracts/sseaERC20.sol\":2145:2277  function _transferOwnership(address newOwner) internal virtual {... */\n      jump\t// out\n        /* \"@boringcrypto/boring-solidity/contracts/Domain.sol\":793:1062  function _calculateDomainSeparator(uint256 chainId) private view returns (bytes32) {... */\n    tag_220:\n        /* \"@boringcrypto/boring-solidity/contracts/Domain.sol\":867:874  bytes32 */\n      0x00\n        /* \"@boringcrypto/boring-solidity/contracts/Domain.sol\":388:456  keccak256(\"EIP712Domain(uint256 chainId,address verifyingContract)\") */\n      0x47e79534a245952e8b16893a336b85a3d9ea9fa8c573f3d803afb92a79469218\n        /* \"@boringcrypto/boring-solidity/contracts/Domain.sol\":993:1000  chainId */\n      dup3\n        /* \"@boringcrypto/boring-solidity/contracts/Domain.sol\":1026:1030  this */\n      address\n        /* \"@boringcrypto/boring-solidity/contracts/Domain.sol\":916:1045  abi.encode(... */\n      add(0x20, mload(0x40))\n      tag_261\n      swap4\n      swap3\n      swap2\n      swap1\n      tag_266\n      jump\t// in\n        /* \"@boringcrypto/boring-solidity/contracts/libraries/BoringMath.sol\":1431:1567  function sub(uint128 a, uint128 b) internal pure returns (uint128 c) {... */\n    tag_236:\n        /* \"@boringcrypto/boring-solidity/contracts/libraries/BoringMath.sol\":1523:1528  a - b */\n      dup1\n      dup3\n      sub\n      sub(shl(0x80, 0x01), 0x01)\n        /* \"@boringcrypto/boring-solidity/contracts/libraries/BoringMath.sol\":1518:1534  (c = a - b) <= a */\n      dup1\n      dup5\n      and\n      swap1\n      dup3\n      and\n      gt\n      iszero\n        /* \"@boringcrypto/boring-solidity/contracts/libraries/BoringMath.sol\":1510:1560  require((c = a - b) <= a, \"BoringMath: Underflow\") */\n      tag_119\n      jumpi\n      mload(0x40)\n      shl(0xe5, 0x461bcd)\n      dup2\n      mstore\n      0x04\n      add\n      tag_136\n      swap1\n      tag_270\n      jump\t// in\n        /* \"@boringcrypto/boring-solidity/contracts/libraries/BoringERC20.sol\":2726:3059  function safeTransfer(... */\n    tag_238:\n        /* \"@boringcrypto/boring-solidity/contracts/libraries/BoringERC20.sol\":2840:2852  bool success */\n      0x00\n        /* \"@boringcrypto/boring-solidity/contracts/libraries/BoringERC20.sol\":2854:2871  bytes memory data */\n      0x60\n        /* \"@boringcrypto/boring-solidity/contracts/libraries/BoringERC20.sol\":2883:2888  token */\n      dup5\n      sub(shl(0xa0, 0x01), 0x01)\n        /* \"@boringcrypto/boring-solidity/contracts/libraries/BoringERC20.sol\":2875:2894  address(token).call */\n      and\n        /* \"@boringcrypto/boring-solidity/contracts/libraries/BoringERC20.sol\":394:404  0xa9059cbb */\n      0xa9059cbb\n        /* \"@boringcrypto/boring-solidity/contracts/libraries/BoringERC20.sol\":2918:2930  SIG_TRANSFER */\n      0xe0\n      shl\n        /* \"@boringcrypto/boring-solidity/contracts/libraries/BoringERC20.sol\":2932:2934  to */\n      dup6\n        /* \"@boringcrypto/boring-solidity/contracts/libraries/BoringERC20.sol\":2936:2942  amount */\n      dup6\n        /* \"@boringcrypto/boring-solidity/contracts/libraries/BoringERC20.sol\":2895:2943  abi.encodeWithSelector(SIG_TRANSFER, to, amount) */\n      add(0x24, mload(0x40))\n      tag_272\n      swap3\n      swap2\n      swap1\n      tag_273\n      jump\t// in\n    tag_272:\n      0x40\n      dup1\n      mload\n      not(0x1f)\n      dup2\n      dup5\n      sub\n      add\n      dup2\n      mstore\n      swap2\n      dup2\n      mstore\n      0x20\n      dup3\n      add\n      dup1\n      mload\n      sub(shl(0xe0, 0x01), 0x01)\n      and\n      not(sub(shl(0xe0, 0x01), 0x01))\n      swap1\n      swap5\n      and\n      swap4\n      swap1\n      swap4\n      or\n      swap1\n      swap3\n      mstore\n        /* \"@boringcrypto/boring-solidity/contracts/libraries/BoringERC20.sol\":2875:2944  address(token).call(abi.encodeWithSelector(SIG_TRANSFER, to, amount)) */\n      swap1\n      mload\n      tag_274\n      swap2\n        /* \"@boringcrypto/boring-solidity/contracts/libraries/BoringERC20.sol\":2895:2943  abi.encodeWithSelector(SIG_TRANSFER, to, amount) */\n      swap1\n        /* \"@boringcrypto/boring-solidity/contracts/libraries/BoringERC20.sol\":2875:2944  address(token).call(abi.encodeWithSelector(SIG_TRANSFER, to, amount)) */\n      tag_248\n      jump\t// in\n    tag_274:\n      0x00\n      mload(0x40)\n      dup1\n      dup4\n      sub\n      dup2\n      0x00\n      dup7\n      gas\n      call\n      swap2\n      pop\n      pop\n      returndatasize\n      dup1\n      0x00\n      dup2\n      eq\n      tag_277\n      jumpi\n      mload(0x40)\n      swap2\n      pop\n      and(add(returndatasize, 0x3f), not(0x1f))\n      dup3\n      add\n      0x40\n      mstore\n      returndatasize\n      dup3\n      mstore\n      returndatasize\n      0x00\n      0x20\n      dup5\n      add\n      returndatacopy\n      jump(tag_276)\n    tag_277:\n      0x60\n      swap2\n      pop\n    tag_276:\n      pop\n        /* \"@boringcrypto/boring-solidity/contracts/libraries/BoringERC20.sol\":2839:2944  (bool success, bytes memory data) = address(token).call(abi.encodeWithSelector(SIG_TRANSFER, to, amount)) */\n      swap2\n      pop\n      swap2\n      pop\n        /* \"@boringcrypto/boring-solidity/contracts/libraries/BoringERC20.sol\":2962:2969  success */\n      dup2\n        /* \"@boringcrypto/boring-solidity/contracts/libraries/BoringERC20.sol\":2962:3019  success && (data.length == 0 || abi.decode(data, (bool))) */\n      dup1\n      iszero\n      tag_280\n      jumpi\n      pop\n        /* \"@boringcrypto/boring-solidity/contracts/libraries/BoringERC20.sol\":2974:2985  data.length */\n      dup1\n      mload\n        /* \"@boringcrypto/boring-solidity/contracts/libraries/BoringERC20.sol\":2974:2990  data.length == 0 */\n      iszero\n      dup1\n        /* \"@boringcrypto/boring-solidity/contracts/libraries/BoringERC20.sol\":2974:3018  data.length == 0 || abi.decode(data, (bool)) */\n      tag_280\n      jumpi\n      pop\n        /* \"@boringcrypto/boring-solidity/contracts/libraries/BoringERC20.sol\":3005:3009  data */\n      dup1\n        /* \"@boringcrypto/boring-solidity/contracts/libraries/BoringERC20.sol\":2994:3018  abi.decode(data, (bool)) */\n      dup1\n      0x20\n      add\n      swap1\n      mload\n      dup2\n      add\n      swap1\n      tag_280\n      swap2\n      swap1\n      tag_255\n      jump\t// in\n    tag_280:\n        /* \"@boringcrypto/boring-solidity/contracts/libraries/BoringERC20.sol\":2954:3052  require(success && (data.length == 0 || abi.decode(data, (bool))), \"BoringERC20: Transfer failed\") */\n      tag_281\n      jumpi\n      mload(0x40)\n      shl(0xe5, 0x461bcd)\n      dup2\n      mstore\n      0x04\n      add\n      tag_136\n      swap1\n      tag_283\n      jump\t// in\n    tag_281:\n        /* \"@boringcrypto/boring-solidity/contracts/libraries/BoringERC20.sol\":2726:3059  function safeTransfer(... */\n      pop\n      pop\n      pop\n      pop\n      pop\n      jump\t// out\n    tag_139:\n      0x40\n      dup1\n      mload\n      dup1\n      dup3\n      add\n      swap1\n      swap2\n      mstore\n      0x00\n      dup1\n      dup3\n      mstore\n      0x20\n      dup3\n      add\n      mstore\n      swap1\n      jump\t// out\n        /* \"--CODEGEN--\":5:135   */\n    tag_285:\n        /* \"--CODEGEN--\":72:92   */\n      dup1\n      calldataload\n      sub(shl(0xa0, 0x01), 0x01)\n        /* \"--CODEGEN--\":22654:22708   */\n      dup2\n      and\n        /* \"--CODEGEN--\":23694:23729   */\n      dup2\n      eq\n        /* \"--CODEGEN--\":23684:23686   */\n      tag_119\n      jumpi\n        /* \"--CODEGEN--\":23743:23744   */\n      0x00\n      dup1\n        /* \"--CODEGEN--\":23733:23745   */\n      revert\n        /* \"--CODEGEN--\":825:1066   */\n    tag_60:\n      0x00\n        /* \"--CODEGEN--\":929:931   */\n      0x20\n        /* \"--CODEGEN--\":917:926   */\n      dup3\n        /* \"--CODEGEN--\":908:915   */\n      dup5\n        /* \"--CODEGEN--\":904:927   */\n      sub\n        /* \"--CODEGEN--\":900:932   */\n      slt\n        /* \"--CODEGEN--\":897:899   */\n      iszero\n      tag_289\n      jumpi\n      dup1\n      dup2\n        /* \"--CODEGEN--\":935:947   */\n      revert\n        /* \"--CODEGEN--\":897:899   */\n    tag_289:\n        /* \"--CODEGEN--\":997:1050   */\n      tag_290\n        /* \"--CODEGEN--\":1042:1049   */\n      dup4\n        /* \"--CODEGEN--\":1018:1040   */\n      dup4\n        /* \"--CODEGEN--\":997:1050   */\n      tag_285\n      jump\t// in\n    tag_290:\n        /* \"--CODEGEN--\":987:1050   */\n      swap4\n        /* \"--CODEGEN--\":891:1066   */\n      swap3\n      pop\n      pop\n      pop\n      jump\t// out\n        /* \"--CODEGEN--\":1073:1439   */\n    tag_101:\n      0x00\n      dup1\n        /* \"--CODEGEN--\":1194:1196   */\n      0x40\n        /* \"--CODEGEN--\":1182:1191   */\n      dup4\n        /* \"--CODEGEN--\":1173:1180   */\n      dup6\n        /* \"--CODEGEN--\":1169:1192   */\n      sub\n        /* \"--CODEGEN--\":1165:1197   */\n      slt\n        /* \"--CODEGEN--\":1162:1164   */\n      iszero\n      tag_292\n      jumpi\n      dup1\n      dup2\n        /* \"--CODEGEN--\":1200:1212   */\n      revert\n        /* \"--CODEGEN--\":1162:1164   */\n    tag_292:\n        /* \"--CODEGEN--\":1262:1315   */\n      tag_293\n        /* \"--CODEGEN--\":1307:1314   */\n      dup5\n        /* \"--CODEGEN--\":1283:1305   */\n      dup5\n        /* \"--CODEGEN--\":1262:1315   */\n      tag_285\n      jump\t// in\n    tag_293:\n        /* \"--CODEGEN--\":1252:1315   */\n      swap2\n      pop\n        /* \"--CODEGEN--\":1370:1423   */\n      tag_294\n        /* \"--CODEGEN--\":1415:1422   */\n      dup5\n        /* \"--CODEGEN--\":1352:1354   */\n      0x20\n        /* \"--CODEGEN--\":1395:1404   */\n      dup6\n        /* \"--CODEGEN--\":1391:1413   */\n      add\n        /* \"--CODEGEN--\":1370:1423   */\n      tag_285\n      jump\t// in\n    tag_294:\n        /* \"--CODEGEN--\":1360:1423   */\n      swap1\n      pop\n        /* \"--CODEGEN--\":1156:1439   */\n      swap3\n      pop\n      swap3\n      swap1\n      pop\n      jump\t// out\n        /* \"--CODEGEN--\":1446:1937   */\n    tag_44:\n      0x00\n      dup1\n      0x00\n        /* \"--CODEGEN--\":1584:1586   */\n      0x60\n        /* \"--CODEGEN--\":1572:1581   */\n      dup5\n        /* \"--CODEGEN--\":1563:1570   */\n      dup7\n        /* \"--CODEGEN--\":1559:1582   */\n      sub\n        /* \"--CODEGEN--\":1555:1587   */\n      slt\n        /* \"--CODEGEN--\":1552:1554   */\n      iszero\n      tag_296\n      jumpi\n      dup1\n      dup2\n        /* \"--CODEGEN--\":1590:1602   */\n      revert\n        /* \"--CODEGEN--\":1552:1554   */\n    tag_296:\n        /* \"--CODEGEN--\":85:91   */\n      dup4\n        /* \"--CODEGEN--\":72:92   */\n      calldataload\n        /* \"--CODEGEN--\":97:130   */\n      tag_297\n        /* \"--CODEGEN--\":124:129   */\n      dup2\n        /* \"--CODEGEN--\":97:130   */\n      tag_298\n      jump\t// in\n    tag_297:\n        /* \"--CODEGEN--\":1642:1705   */\n      swap3\n      pop\n        /* \"--CODEGEN--\":1742:1744   */\n      0x20\n        /* \"--CODEGEN--\":1781:1803   */\n      dup5\n      add\n        /* \"--CODEGEN--\":72:92   */\n      calldataload\n        /* \"--CODEGEN--\":97:130   */\n      tag_299\n        /* \"--CODEGEN--\":72:92   */\n      dup2\n        /* \"--CODEGEN--\":97:130   */\n      tag_298\n      jump\t// in\n    tag_299:\n        /* \"--CODEGEN--\":1546:1937   */\n      swap3\n      swap6\n        /* \"--CODEGEN--\":1750:1813   */\n      swap3\n      swap5\n      pop\n      pop\n      pop\n        /* \"--CODEGEN--\":1850:1852   */\n      0x40\n        /* \"--CODEGEN--\":1889:1911   */\n      swap2\n      swap1\n      swap2\n      add\n        /* \"--CODEGEN--\":481:501   */\n      calldataload\n      swap1\n        /* \"--CODEGEN--\":1546:1937   */\n      jump\t// out\n        /* \"--CODEGEN--\":1944:2935   */\n    tag_97:\n      0x00\n      dup1\n      0x00\n      dup1\n      0x00\n      dup1\n      0x00\n        /* \"--CODEGEN--\":2148:2151   */\n      0xe0\n        /* \"--CODEGEN--\":2136:2145   */\n      dup9\n        /* \"--CODEGEN--\":2127:2134   */\n      dup11\n        /* \"--CODEGEN--\":2123:2146   */\n      sub\n        /* \"--CODEGEN--\":2119:2152   */\n      slt\n        /* \"--CODEGEN--\":2116:2118   */\n      iszero\n      tag_301\n      jumpi\n      dup3\n      dup4\n        /* \"--CODEGEN--\":2155:2167   */\n      revert\n        /* \"--CODEGEN--\":2116:2118   */\n    tag_301:\n        /* \"--CODEGEN--\":2217:2270   */\n      tag_302\n        /* \"--CODEGEN--\":2262:2269   */\n      dup10\n        /* \"--CODEGEN--\":2238:2260   */\n      dup10\n        /* \"--CODEGEN--\":2217:2270   */\n      tag_285\n      jump\t// in\n    tag_302:\n        /* \"--CODEGEN--\":2207:2270   */\n      swap7\n      pop\n        /* \"--CODEGEN--\":2325:2378   */\n      tag_303\n        /* \"--CODEGEN--\":2370:2377   */\n      dup10\n        /* \"--CODEGEN--\":2307:2309   */\n      0x20\n        /* \"--CODEGEN--\":2350:2359   */\n      dup11\n        /* \"--CODEGEN--\":2346:2368   */\n      add\n        /* \"--CODEGEN--\":2325:2378   */\n      tag_285\n      jump\t// in\n    tag_303:\n        /* \"--CODEGEN--\":2315:2378   */\n      swap6\n      pop\n        /* \"--CODEGEN--\":2415:2417   */\n      0x40\n        /* \"--CODEGEN--\":2458:2467   */\n      dup9\n        /* \"--CODEGEN--\":2454:2476   */\n      add\n        /* \"--CODEGEN--\":481:501   */\n      calldataload\n        /* \"--CODEGEN--\":2423:2486   */\n      swap5\n      pop\n        /* \"--CODEGEN--\":2523:2525   */\n      0x60\n        /* \"--CODEGEN--\":2566:2575   */\n      dup9\n        /* \"--CODEGEN--\":2562:2584   */\n      add\n        /* \"--CODEGEN--\":481:501   */\n      calldataload\n        /* \"--CODEGEN--\":2531:2594   */\n      swap4\n      pop\n        /* \"--CODEGEN--\":2631:2634   */\n      0x80\n        /* \"--CODEGEN--\":2673:2682   */\n      dup9\n        /* \"--CODEGEN--\":2669:2691   */\n      add\n        /* \"--CODEGEN--\":757:777   */\n      calldataload\n        /* \"--CODEGEN--\":22870:22874   */\n      0xff\n        /* \"--CODEGEN--\":24208:24213   */\n      dup2\n        /* \"--CODEGEN--\":22859:22875   */\n      and\n        /* \"--CODEGEN--\":24185:24190   */\n      dup2\n        /* \"--CODEGEN--\":24182:24215   */\n      eq\n        /* \"--CODEGEN--\":24172:24174   */\n      tag_304\n      jumpi\n      dup4\n      dup5\n        /* \"--CODEGEN--\":24219:24231   */\n      revert\n        /* \"--CODEGEN--\":24172:24174   */\n    tag_304:\n        /* \"--CODEGEN--\":2110:2935   */\n      swap7\n      swap10\n      swap6\n      swap9\n      pop\n      swap4\n      swap7\n      swap3\n      swap6\n        /* \"--CODEGEN--\":2640:2701   */\n      swap5\n        /* \"--CODEGEN--\":2738:2741   */\n      0xa0\n        /* \"--CODEGEN--\":2778:2800   */\n      dup5\n      add\n        /* \"--CODEGEN--\":344:364   */\n      calldataload\n      swap5\n      pop\n        /* \"--CODEGEN--\":2847:2850   */\n      0xc0\n        /* \"--CODEGEN--\":2887:2909   */\n      swap1\n      swap4\n      add\n        /* \"--CODEGEN--\":344:364   */\n      calldataload\n      swap3\n        /* \"--CODEGEN--\":2110:2935   */\n      swap2\n      pop\n      pop\n      jump\t// out\n        /* \"--CODEGEN--\":2942:3308   */\n    tag_34:\n      0x00\n      dup1\n        /* \"--CODEGEN--\":3063:3065   */\n      0x40\n        /* \"--CODEGEN--\":3051:3060   */\n      dup4\n        /* \"--CODEGEN--\":3042:3049   */\n      dup6\n        /* \"--CODEGEN--\":3038:3061   */\n      sub\n        /* \"--CODEGEN--\":3034:3066   */\n      slt\n        /* \"--CODEGEN--\":3031:3033   */\n      iszero\n      tag_306\n      jumpi\n      dup2\n      dup3\n        /* \"--CODEGEN--\":3069:3081   */\n      revert\n        /* \"--CODEGEN--\":3031:3033   */\n    tag_306:\n        /* \"--CODEGEN--\":3131:3184   */\n      tag_307\n        /* \"--CODEGEN--\":3176:3183   */\n      dup5\n        /* \"--CODEGEN--\":3152:3174   */\n      dup5\n        /* \"--CODEGEN--\":3131:3184   */\n      tag_285\n      jump\t// in\n    tag_307:\n        /* \"--CODEGEN--\":3121:3184   */\n      swap5\n        /* \"--CODEGEN--\":3221:3223   */\n      0x20\n        /* \"--CODEGEN--\":3260:3282   */\n      swap4\n      swap1\n      swap4\n      add\n        /* \"--CODEGEN--\":481:501   */\n      calldataload\n      swap4\n      pop\n      pop\n      pop\n        /* \"--CODEGEN--\":3025:3308   */\n      jump\t// out\n        /* \"--CODEGEN--\":3315:3572   */\n    tag_255:\n      0x00\n        /* \"--CODEGEN--\":3427:3429   */\n      0x20\n        /* \"--CODEGEN--\":3415:3424   */\n      dup3\n        /* \"--CODEGEN--\":3406:3413   */\n      dup5\n        /* \"--CODEGEN--\":3402:3425   */\n      sub\n        /* \"--CODEGEN--\":3398:3430   */\n      slt\n        /* \"--CODEGEN--\":3395:3397   */\n      iszero\n      tag_309\n      jumpi\n      dup1\n      dup2\n        /* \"--CODEGEN--\":3433:3445   */\n      revert\n        /* \"--CODEGEN--\":3395:3397   */\n    tag_309:\n        /* \"--CODEGEN--\":223:229   */\n      dup2\n        /* \"--CODEGEN--\":217:230   */\n      mload\n        /* \"--CODEGEN--\":23840:23845   */\n      dup1\n        /* \"--CODEGEN--\":22367:22380   */\n      iszero\n        /* \"--CODEGEN--\":22360:22381   */\n      iszero\n        /* \"--CODEGEN--\":23818:23823   */\n      dup2\n        /* \"--CODEGEN--\":23815:23847   */\n      eq\n        /* \"--CODEGEN--\":23805:23807   */\n      tag_290\n      jumpi\n      dup2\n      dup3\n        /* \"--CODEGEN--\":23851:23863   */\n      revert\n        /* \"--CODEGEN--\":3579:3820   */\n    tag_80:\n      0x00\n        /* \"--CODEGEN--\":3683:3685   */\n      0x20\n        /* \"--CODEGEN--\":3671:3680   */\n      dup3\n        /* \"--CODEGEN--\":3662:3669   */\n      dup5\n        /* \"--CODEGEN--\":3658:3681   */\n      sub\n        /* \"--CODEGEN--\":3654:3686   */\n      slt\n        /* \"--CODEGEN--\":3651:3653   */\n      iszero\n      tag_312\n      jumpi\n      dup1\n      dup2\n        /* \"--CODEGEN--\":3689:3701   */\n      revert\n        /* \"--CODEGEN--\":3651:3653   */\n    tag_312:\n      pop\n        /* \"--CODEGEN--\":481:501   */\n      calldataload\n      swap2\n        /* \"--CODEGEN--\":3645:3820   */\n      swap1\n      pop\n      jump\t// out\n        /* \"--CODEGEN--\":3827:4090   */\n    tag_145:\n      0x00\n        /* \"--CODEGEN--\":3942:3944   */\n      0x20\n        /* \"--CODEGEN--\":3930:3939   */\n      dup3\n        /* \"--CODEGEN--\":3921:3928   */\n      dup5\n        /* \"--CODEGEN--\":3917:3940   */\n      sub\n        /* \"--CODEGEN--\":3913:3945   */\n      slt\n        /* \"--CODEGEN--\":3910:3912   */\n      iszero\n      tag_314\n      jumpi\n      dup1\n      dup2\n        /* \"--CODEGEN--\":3948:3960   */\n      revert\n        /* \"--CODEGEN--\":3910:3912   */\n    tag_314:\n      pop\n        /* \"--CODEGEN--\":629:642   */\n      mload\n      swap2\n        /* \"--CODEGEN--\":3904:4090   */\n      swap1\n      pop\n      jump\t// out\n        /* \"--CODEGEN--\":10507:10778   */\n    tag_248:\n      0x00\n        /* \"--CODEGEN--\":4767:4772   */\n      dup3\n        /* \"--CODEGEN--\":21554:21566   */\n      mload\n        /* \"--CODEGEN--\":4878:4930   */\n      tag_316\n        /* \"--CODEGEN--\":4923:4929   */\n      dup2\n        /* \"--CODEGEN--\":4918:4921   */\n      dup5\n        /* \"--CODEGEN--\":4911:4915   */\n      0x20\n        /* \"--CODEGEN--\":4904:4909   */\n      dup8\n        /* \"--CODEGEN--\":4900:4916   */\n      add\n        /* \"--CODEGEN--\":4878:4930   */\n      tag_317\n      jump\t// in\n    tag_316:\n        /* \"--CODEGEN--\":4942:4958   */\n      swap2\n      swap1\n      swap2\n      add\n      swap3\n        /* \"--CODEGEN--\":10641:10778   */\n      swap2\n      pop\n      pop\n      jump\t// out\n        /* \"--CODEGEN--\":10785:11338   */\n    tag_262:\n      0x00\n        /* \"--CODEGEN--\":4767:4772   */\n      dup5\n        /* \"--CODEGEN--\":21554:21566   */\n      mload\n        /* \"--CODEGEN--\":4878:4930   */\n      tag_319\n        /* \"--CODEGEN--\":4923:4929   */\n      dup2\n        /* \"--CODEGEN--\":4918:4921   */\n      dup5\n        /* \"--CODEGEN--\":4911:4915   */\n      0x20\n        /* \"--CODEGEN--\":4904:4909   */\n      dup10\n        /* \"--CODEGEN--\":4900:4916   */\n      add\n        /* \"--CODEGEN--\":4878:4930   */\n      tag_317\n      jump\t// in\n    tag_319:\n        /* \"--CODEGEN--\":4942:4958   */\n      swap2\n      swap1\n      swap2\n      add\n        /* \"--CODEGEN--\":4399:4436   */\n      swap3\n      dup4\n      mstore\n      pop\n        /* \"--CODEGEN--\":4911:4915   */\n      0x20\n        /* \"--CODEGEN--\":11190:11202   */\n      dup3\n      add\n        /* \"--CODEGEN--\":4399:4436   */\n      mstore\n        /* \"--CODEGEN--\":11301:11313   */\n      0x40\n      add\n      swap2\n        /* \"--CODEGEN--\":10977:11338   */\n      swap1\n      pop\n      jump\t// out\n        /* \"--CODEGEN--\":11345:11567   */\n    tag_70:\n      sub(shl(0xa0, 0x01), 0x01)\n        /* \"--CODEGEN--\":22654:22708   */\n      swap2\n      swap1\n      swap2\n      and\n        /* \"--CODEGEN--\":4168:4205   */\n      dup2\n      mstore\n        /* \"--CODEGEN--\":11472:11474   */\n      0x20\n        /* \"--CODEGEN--\":11457:11475   */\n      add\n      swap1\n        /* \"--CODEGEN--\":11443:11567   */\n      jump\t// out\n        /* \"--CODEGEN--\":11574:12018   */\n    tag_246:\n      sub(shl(0xa0, 0x01), 0x01)\n        /* \"--CODEGEN--\":22654:22708   */\n      swap4\n      dup5\n      and\n        /* \"--CODEGEN--\":4168:4205   */\n      dup2\n      mstore\n        /* \"--CODEGEN--\":22654:22708   */\n      swap2\n      swap1\n      swap3\n      and\n        /* \"--CODEGEN--\":11921:11923   */\n      0x20\n        /* \"--CODEGEN--\":11906:11924   */\n      dup3\n      add\n        /* \"--CODEGEN--\":4168:4205   */\n      mstore\n        /* \"--CODEGEN--\":12004:12006   */\n      0x40\n        /* \"--CODEGEN--\":11989:12007   */\n      dup2\n      add\n        /* \"--CODEGEN--\":4399:4436   */\n      swap2\n      swap1\n      swap2\n      mstore\n        /* \"--CODEGEN--\":11757:11759   */\n      0x60\n        /* \"--CODEGEN--\":11742:11760   */\n      add\n      swap1\n        /* \"--CODEGEN--\":11728:12018   */\n      jump\t// out\n        /* \"--CODEGEN--\":12025:12358   */\n    tag_273:\n      sub(shl(0xa0, 0x01), 0x01)\n        /* \"--CODEGEN--\":22654:22708   */\n      swap3\n      swap1\n      swap3\n      and\n        /* \"--CODEGEN--\":4168:4205   */\n      dup3\n      mstore\n        /* \"--CODEGEN--\":12344:12346   */\n      0x20\n        /* \"--CODEGEN--\":12329:12347   */\n      dup3\n      add\n        /* \"--CODEGEN--\":4399:4436   */\n      mstore\n        /* \"--CODEGEN--\":12180:12182   */\n      0x40\n        /* \"--CODEGEN--\":12165:12183   */\n      add\n      swap1\n        /* \"--CODEGEN--\":12151:12358   */\n      jump\t// out\n        /* \"--CODEGEN--\":12365:12575   */\n    tag_37:\n        /* \"--CODEGEN--\":22367:22380   */\n      swap1\n      iszero\n        /* \"--CODEGEN--\":22360:22381   */\n      iszero\n        /* \"--CODEGEN--\":4282:4316   */\n      dup2\n      mstore\n        /* \"--CODEGEN--\":12486:12488   */\n      0x20\n        /* \"--CODEGEN--\":12471:12489   */\n      add\n      swap1\n        /* \"--CODEGEN--\":12457:12575   */\n      jump\t// out\n        /* \"--CODEGEN--\":12582:12804   */\n    tag_54:\n        /* \"--CODEGEN--\":4399:4436   */\n      swap1\n      dup2\n      mstore\n        /* \"--CODEGEN--\":12709:12711   */\n      0x20\n        /* \"--CODEGEN--\":12694:12712   */\n      add\n      swap1\n        /* \"--CODEGEN--\":12680:12804   */\n      jump\t// out\n        /* \"--CODEGEN--\":12811:13591   */\n    tag_166:\n        /* \"--CODEGEN--\":4399:4436   */\n      swap6\n      dup7\n      mstore\n      sub(shl(0xa0, 0x01), 0x01)\n        /* \"--CODEGEN--\":22654:22708   */\n      swap5\n      dup6\n      and\n        /* \"--CODEGEN--\":13243:13245   */\n      0x20\n        /* \"--CODEGEN--\":13228:13246   */\n      dup8\n      add\n        /* \"--CODEGEN--\":4168:4205   */\n      mstore\n        /* \"--CODEGEN--\":22654:22708   */\n      swap3\n      swap1\n      swap4\n      and\n        /* \"--CODEGEN--\":13326:13328   */\n      0x40\n        /* \"--CODEGEN--\":13311:13329   */\n      dup6\n      add\n        /* \"--CODEGEN--\":4168:4205   */\n      mstore\n        /* \"--CODEGEN--\":13409:13411   */\n      0x60\n        /* \"--CODEGEN--\":13394:13412   */\n      dup5\n      add\n        /* \"--CODEGEN--\":4399:4436   */\n      mstore\n        /* \"--CODEGEN--\":13492:13495   */\n      0x80\n        /* \"--CODEGEN--\":13477:13496   */\n      dup4\n      add\n        /* \"--CODEGEN--\":4399:4436   */\n      swap2\n      swap1\n      swap2\n      mstore\n        /* \"--CODEGEN--\":22665:22707   */\n      0xa0\n        /* \"--CODEGEN--\":13561:13580   */\n      dup3\n      add\n        /* \"--CODEGEN--\":4399:4436   */\n      mstore\n        /* \"--CODEGEN--\":13078:13081   */\n      0xc0\n        /* \"--CODEGEN--\":13063:13082   */\n      add\n      swap1\n        /* \"--CODEGEN--\":13049:13591   */\n      jump\t// out\n        /* \"--CODEGEN--\":13598:14042   */\n    tag_266:\n        /* \"--CODEGEN--\":4399:4436   */\n      swap3\n      dup4\n      mstore\n        /* \"--CODEGEN--\":13945:13947   */\n      0x20\n        /* \"--CODEGEN--\":13930:13948   */\n      dup4\n      add\n        /* \"--CODEGEN--\":4399:4436   */\n      swap2\n      swap1\n      swap2\n      mstore\n      sub(shl(0xa0, 0x01), 0x01)\n        /* \"--CODEGEN--\":22654:22708   */\n      and\n        /* \"--CODEGEN--\":14028:14030   */\n      0x40\n        /* \"--CODEGEN--\":14013:14031   */\n      dup3\n      add\n        /* \"--CODEGEN--\":4168:4205   */\n      mstore\n        /* \"--CODEGEN--\":13781:13783   */\n      0x60\n        /* \"--CODEGEN--\":13766:13784   */\n      add\n      swap1\n        /* \"--CODEGEN--\":13752:14042   */\n      jump\t// out\n        /* \"--CODEGEN--\":14049:14597   */\n    tag_169:\n        /* \"--CODEGEN--\":4399:4436   */\n      swap4\n      dup5\n      mstore\n        /* \"--CODEGEN--\":22870:22874   */\n      0xff\n        /* \"--CODEGEN--\":22859:22875   */\n      swap3\n      swap1\n      swap3\n      and\n        /* \"--CODEGEN--\":14417:14419   */\n      0x20\n        /* \"--CODEGEN--\":14402:14420   */\n      dup5\n      add\n        /* \"--CODEGEN--\":10460:10495   */\n      mstore\n        /* \"--CODEGEN--\":14500:14502   */\n      0x40\n        /* \"--CODEGEN--\":14485:14503   */\n      dup4\n      add\n        /* \"--CODEGEN--\":4399:4436   */\n      mstore\n        /* \"--CODEGEN--\":14583:14585   */\n      0x60\n        /* \"--CODEGEN--\":14568:14586   */\n      dup3\n      add\n        /* \"--CODEGEN--\":4399:4436   */\n      mstore\n        /* \"--CODEGEN--\":14256:14259   */\n      0x80\n        /* \"--CODEGEN--\":14241:14260   */\n      add\n      swap1\n        /* \"--CODEGEN--\":14227:14597   */\n      jump\t// out\n        /* \"--CODEGEN--\":14861:15171   */\n    tag_31:\n      0x00\n        /* \"--CODEGEN--\":15008:15010   */\n      0x20\n        /* \"--CODEGEN--\":15029:15046   */\n      dup3\n        /* \"--CODEGEN--\":15022:15069   */\n      mstore\n        /* \"--CODEGEN--\":5276:5281   */\n      dup3\n        /* \"--CODEGEN--\":21554:21566   */\n      mload\n        /* \"--CODEGEN--\":21993:21999   */\n      dup1\n        /* \"--CODEGEN--\":15008:15010   */\n      0x20\n        /* \"--CODEGEN--\":14997:15006   */\n      dup5\n        /* \"--CODEGEN--\":14993:15011   */\n      add\n        /* \"--CODEGEN--\":21981:22000   */\n      mstore\n        /* \"--CODEGEN--\":5370:5422   */\n      tag_330\n        /* \"--CODEGEN--\":5415:5421   */\n      dup2\n        /* \"--CODEGEN--\":22021:22035   */\n      0x40\n        /* \"--CODEGEN--\":14997:15006   */\n      dup6\n        /* \"--CODEGEN--\":22021:22035   */\n      add\n        /* \"--CODEGEN--\":15008:15010   */\n      0x20\n        /* \"--CODEGEN--\":5396:5401   */\n      dup8\n        /* \"--CODEGEN--\":5392:5408   */\n      add\n        /* \"--CODEGEN--\":5370:5422   */\n      tag_317\n      jump\t// in\n    tag_330:\n        /* \"--CODEGEN--\":23614:23621   */\n      0x1f\n        /* \"--CODEGEN--\":23598:23612   */\n      add\n      not(0x1f)\n        /* \"--CODEGEN--\":23594:23622   */\n      and\n        /* \"--CODEGEN--\":5434:5473   */\n      swap2\n      swap1\n      swap2\n      add\n        /* \"--CODEGEN--\":22021:22035   */\n      0x40\n        /* \"--CODEGEN--\":5434:5473   */\n      add\n      swap3\n        /* \"--CODEGEN--\":14979:15171   */\n      swap2\n      pop\n      pop\n      jump\t// out\n        /* \"--CODEGEN--\":15178:15594   */\n    tag_270:\n        /* \"--CODEGEN--\":15378:15380   */\n      0x20\n        /* \"--CODEGEN--\":15392:15439   */\n      dup1\n      dup3\n      mstore\n        /* \"--CODEGEN--\":6077:6079   */\n      0x15\n        /* \"--CODEGEN--\":15363:15381   */\n      swap1\n      dup3\n      add\n        /* \"--CODEGEN--\":21981:22000   */\n      mstore\n      shl(0x58, 0x426f72696e674d6174683a20556e646572666c6f77)\n        /* \"--CODEGEN--\":22021:22035   */\n      0x40\n      dup3\n      add\n        /* \"--CODEGEN--\":6093:6137   */\n      mstore\n        /* \"--CODEGEN--\":6156:6168   */\n      0x60\n      add\n      swap1\n        /* \"--CODEGEN--\":15349:15594   */\n      jump\t// out\n        /* \"--CODEGEN--\":15601:16017   */\n    tag_205:\n        /* \"--CODEGEN--\":15801:15803   */\n      0x20\n        /* \"--CODEGEN--\":15815:15862   */\n      dup1\n      dup3\n      mstore\n        /* \"--CODEGEN--\":6407:6408   */\n      0x06\n        /* \"--CODEGEN--\":15786:15804   */\n      swap1\n      dup3\n      add\n        /* \"--CODEGEN--\":21981:22000   */\n      mstore\n      shl(0xd2, 0x131bd8dad959)\n        /* \"--CODEGEN--\":22021:22035   */\n      0x40\n      dup3\n      add\n        /* \"--CODEGEN--\":6422:6451   */\n      mstore\n        /* \"--CODEGEN--\":6470:6482   */\n      0x60\n      add\n      swap1\n        /* \"--CODEGEN--\":15772:16017   */\n      jump\t// out\n        /* \"--CODEGEN--\":16024:16440   */\n    tag_283:\n        /* \"--CODEGEN--\":16224:16226   */\n      0x20\n        /* \"--CODEGEN--\":16238:16285   */\n      dup1\n      dup3\n      mstore\n        /* \"--CODEGEN--\":6721:6723   */\n      0x1c\n        /* \"--CODEGEN--\":16209:16227   */\n      swap1\n      dup3\n      add\n        /* \"--CODEGEN--\":21981:22000   */\n      mstore\n        /* \"--CODEGEN--\":6757:6787   */\n      0x426f72696e6745524332303a205472616e73666572206661696c656400000000\n        /* \"--CODEGEN--\":22021:22035   */\n      0x40\n      dup3\n      add\n        /* \"--CODEGEN--\":6737:6788   */\n      mstore\n        /* \"--CODEGEN--\":6807:6819   */\n      0x60\n      add\n      swap1\n        /* \"--CODEGEN--\":16195:16440   */\n      jump\t// out\n        /* \"--CODEGEN--\":16447:16863   */\n    tag_192:\n        /* \"--CODEGEN--\":16647:16649   */\n      0x20\n        /* \"--CODEGEN--\":16661:16708   */\n      dup1\n      dup3\n      mstore\n        /* \"--CODEGEN--\":7058:7060   */\n      0x26\n        /* \"--CODEGEN--\":16632:16650   */\n      swap1\n      dup3\n      add\n        /* \"--CODEGEN--\":21981:22000   */\n      mstore\n        /* \"--CODEGEN--\":7094:7128   */\n      0x4f776e61626c653a206e6577206f776e657220697320746865207a65726f2061\n        /* \"--CODEGEN--\":22021:22035   */\n      0x40\n      dup3\n      add\n        /* \"--CODEGEN--\":7074:7129   */\n      mstore\n      shl(0xd0, 0x646472657373)\n        /* \"--CODEGEN--\":7149:7161   */\n      0x60\n      dup3\n      add\n        /* \"--CODEGEN--\":7142:7172   */\n      mstore\n        /* \"--CODEGEN--\":7191:7203   */\n      0x80\n      add\n      swap1\n        /* \"--CODEGEN--\":16618:16863   */\n      jump\t// out\n        /* \"--CODEGEN--\":16870:17286   */\n    tag_200:\n        /* \"--CODEGEN--\":17070:17072   */\n      0x20\n        /* \"--CODEGEN--\":17084:17131   */\n      dup1\n      dup3\n      mstore\n        /* \"--CODEGEN--\":7442:7444   */\n      0x0d\n        /* \"--CODEGEN--\":17055:17073   */\n      swap1\n      dup3\n      add\n        /* \"--CODEGEN--\":21981:22000   */\n      mstore\n      shl(0x98, 0x4c6f7720616c6c6f77616e6365)\n        /* \"--CODEGEN--\":22021:22035   */\n      0x40\n      dup3\n      add\n        /* \"--CODEGEN--\":7458:7494   */\n      mstore\n        /* \"--CODEGEN--\":7513:7525   */\n      0x60\n      add\n      swap1\n        /* \"--CODEGEN--\":17041:17286   */\n      jump\t// out\n        /* \"--CODEGEN--\":17293:17709   */\n    tag_209:\n        /* \"--CODEGEN--\":17493:17495   */\n      0x20\n        /* \"--CODEGEN--\":17507:17554   */\n      dup1\n      dup3\n      mstore\n        /* \"--CODEGEN--\":7764:7766   */\n      0x0b\n        /* \"--CODEGEN--\":17478:17496   */\n      swap1\n      dup3\n      add\n        /* \"--CODEGEN--\":21981:22000   */\n      mstore\n      shl(0xa8, 0x4c6f772062616c616e6365)\n        /* \"--CODEGEN--\":22021:22035   */\n      0x40\n      dup3\n      add\n        /* \"--CODEGEN--\":7780:7814   */\n      mstore\n        /* \"--CODEGEN--\":7833:7845   */\n      0x60\n      add\n      swap1\n        /* \"--CODEGEN--\":17464:17709   */\n      jump\t// out\n        /* \"--CODEGEN--\":17716:18132   */\n    tag_137:\n        /* \"--CODEGEN--\":17916:17918   */\n      0x20\n        /* \"--CODEGEN--\":17930:17977   */\n      dup1\n      dup3\n      mstore\n        /* \"--CODEGEN--\":8084:8086   */\n      0x0c\n        /* \"--CODEGEN--\":17901:17919   */\n      swap1\n      dup3\n      add\n        /* \"--CODEGEN--\":21981:22000   */\n      mstore\n      shl(0xa0, 0x5a65726f2061646472657373)\n        /* \"--CODEGEN--\":22021:22035   */\n      0x40\n      dup3\n      add\n        /* \"--CODEGEN--\":8100:8135   */\n      mstore\n        /* \"--CODEGEN--\":8154:8166   */\n      0x60\n      add\n      swap1\n        /* \"--CODEGEN--\":17887:18132   */\n      jump\t// out\n        /* \"--CODEGEN--\":18139:18555   */\n    tag_243:\n        /* \"--CODEGEN--\":18339:18341   */\n      0x20\n        /* \"--CODEGEN--\":18353:18400   */\n      dup1\n      dup3\n      mstore\n        /* \"--CODEGEN--\":8405:8407   */\n      0x1c\n        /* \"--CODEGEN--\":18324:18342   */\n      swap1\n      dup3\n      add\n        /* \"--CODEGEN--\":21981:22000   */\n      mstore\n        /* \"--CODEGEN--\":8441:8471   */\n      0x426f72696e674d6174683a2075696e74313238204f766572666c6f7700000000\n        /* \"--CODEGEN--\":22021:22035   */\n      0x40\n      dup3\n      add\n        /* \"--CODEGEN--\":8421:8472   */\n      mstore\n        /* \"--CODEGEN--\":8491:8503   */\n      0x60\n      add\n      swap1\n        /* \"--CODEGEN--\":18310:18555   */\n      jump\t// out\n        /* \"--CODEGEN--\":18562:18978   */\n    tag_180:\n        /* \"--CODEGEN--\":18762:18764   */\n      0x20\n        /* \"--CODEGEN--\":18776:18823   */\n      dup1\n      dup3\n      mstore\n        /* \"--CODEGEN--\":18747:18765   */\n      dup2\n      dup2\n      add\n        /* \"--CODEGEN--\":21981:22000   */\n      mstore\n        /* \"--CODEGEN--\":8778:8812   */\n      0x4f776e61626c653a2063616c6c6572206973206e6f7420746865206f776e6572\n        /* \"--CODEGEN--\":22021:22035   */\n      0x40\n      dup3\n      add\n        /* \"--CODEGEN--\":8758:8813   */\n      mstore\n        /* \"--CODEGEN--\":8832:8844   */\n      0x60\n      add\n      swap1\n        /* \"--CODEGEN--\":18733:18978   */\n      jump\t// out\n        /* \"--CODEGEN--\":18985:19401   */\n    tag_174:\n        /* \"--CODEGEN--\":19185:19187   */\n      0x20\n        /* \"--CODEGEN--\":19199:19246   */\n      dup1\n      dup3\n      mstore\n        /* \"--CODEGEN--\":9083:9085   */\n      0x0b\n        /* \"--CODEGEN--\":19170:19188   */\n      swap1\n      dup3\n      add\n        /* \"--CODEGEN--\":21981:22000   */\n      mstore\n      shl(0xa8, 0x496e76616c696420536967)\n        /* \"--CODEGEN--\":22021:22035   */\n      0x40\n      dup3\n      add\n        /* \"--CODEGEN--\":9099:9133   */\n      mstore\n        /* \"--CODEGEN--\":9152:9164   */\n      0x60\n      add\n      swap1\n        /* \"--CODEGEN--\":19156:19401   */\n      jump\t// out\n        /* \"--CODEGEN--\":19408:19824   */\n    tag_258:\n        /* \"--CODEGEN--\":19608:19610   */\n      0x20\n        /* \"--CODEGEN--\":19622:19669   */\n      dup1\n      dup3\n      mstore\n        /* \"--CODEGEN--\":19593:19611   */\n      dup2\n      dup2\n      add\n        /* \"--CODEGEN--\":21981:22000   */\n      mstore\n        /* \"--CODEGEN--\":9439:9473   */\n      0x426f72696e6745524332303a205472616e7366657246726f6d206661696c6564\n        /* \"--CODEGEN--\":22021:22035   */\n      0x40\n      dup3\n      add\n        /* \"--CODEGEN--\":9419:9474   */\n      mstore\n        /* \"--CODEGEN--\":9493:9505   */\n      0x60\n      add\n      swap1\n        /* \"--CODEGEN--\":19579:19824   */\n      jump\t// out\n        /* \"--CODEGEN--\":19831:20247   */\n    tag_160:\n        /* \"--CODEGEN--\":20031:20033   */\n      0x20\n        /* \"--CODEGEN--\":20045:20092   */\n      dup1\n      dup3\n      mstore\n        /* \"--CODEGEN--\":9744:9746   */\n      0x0a\n        /* \"--CODEGEN--\":20016:20034   */\n      swap1\n      dup3\n      add\n        /* \"--CODEGEN--\":21981:22000   */\n      mstore\n      shl(0xb1, 0x2d32b9379037bbb732b9)\n        /* \"--CODEGEN--\":22021:22035   */\n      0x40\n      dup3\n      add\n        /* \"--CODEGEN--\":9760:9793   */\n      mstore\n        /* \"--CODEGEN--\":9812:9824   */\n      0x60\n      add\n      swap1\n        /* \"--CODEGEN--\":20002:20247   */\n      jump\t// out\n        /* \"--CODEGEN--\":20254:20670   */\n    tag_163:\n        /* \"--CODEGEN--\":20454:20456   */\n      0x20\n        /* \"--CODEGEN--\":20468:20515   */\n      dup1\n      dup3\n      mstore\n        /* \"--CODEGEN--\":10063:10064   */\n      0x07\n        /* \"--CODEGEN--\":20439:20457   */\n      swap1\n      dup3\n      add\n        /* \"--CODEGEN--\":21981:22000   */\n      mstore\n      shl(0xca, 0x115e1c1a5c9959)\n        /* \"--CODEGEN--\":22021:22035   */\n      0x40\n      dup3\n      add\n        /* \"--CODEGEN--\":10078:10108   */\n      mstore\n        /* \"--CODEGEN--\":10127:10139   */\n      0x60\n      add\n      swap1\n        /* \"--CODEGEN--\":20425:20670   */\n      jump\t// out\n        /* \"--CODEGEN--\":20677:21010   */\n    tag_87:\n      sub(shl(0x80, 0x01), 0x01)\n        /* \"--CODEGEN--\":22534:22580   */\n      swap3\n      dup4\n      and\n        /* \"--CODEGEN--\":10224:10261   */\n      dup2\n      mstore\n        /* \"--CODEGEN--\":22534:22580   */\n      swap2\n      and\n        /* \"--CODEGEN--\":20996:20998   */\n      0x20\n        /* \"--CODEGEN--\":20981:20999   */\n      dup3\n      add\n        /* \"--CODEGEN--\":10224:10261   */\n      mstore\n        /* \"--CODEGEN--\":20832:20834   */\n      0x40\n        /* \"--CODEGEN--\":20817:20835   */\n      add\n      swap1\n        /* \"--CODEGEN--\":20803:21010   */\n      jump\t// out\n        /* \"--CODEGEN--\":21246:21460   */\n    tag_50:\n        /* \"--CODEGEN--\":22870:22874   */\n      0xff\n        /* \"--CODEGEN--\":22859:22875   */\n      swap2\n      swap1\n      swap2\n      and\n        /* \"--CODEGEN--\":10460:10495   */\n      dup2\n      mstore\n        /* \"--CODEGEN--\":21369:21371   */\n      0x20\n        /* \"--CODEGEN--\":21354:21372   */\n      add\n      swap1\n        /* \"--CODEGEN--\":21340:21460   */\n      jump\t// out\n        /* \"--CODEGEN--\":23173:23441   */\n    tag_317:\n        /* \"--CODEGEN--\":23238:23239   */\n      0x00\n        /* \"--CODEGEN--\":23245:23346   */\n    tag_348:\n        /* \"--CODEGEN--\":23259:23265   */\n      dup4\n        /* \"--CODEGEN--\":23256:23257   */\n      dup2\n        /* \"--CODEGEN--\":23253:23266   */\n      lt\n        /* \"--CODEGEN--\":23245:23346   */\n      iszero\n      tag_350\n      jumpi\n        /* \"--CODEGEN--\":23326:23337   */\n      dup2\n      dup2\n      add\n        /* \"--CODEGEN--\":23320:23338   */\n      mload\n        /* \"--CODEGEN--\":23307:23318   */\n      dup4\n      dup3\n      add\n        /* \"--CODEGEN--\":23300:23339   */\n      mstore\n        /* \"--CODEGEN--\":23281:23283   */\n      0x20\n        /* \"--CODEGEN--\":23274:23284   */\n      add\n        /* \"--CODEGEN--\":23245:23346   */\n      jump(tag_348)\n    tag_350:\n        /* \"--CODEGEN--\":23361:23367   */\n      dup4\n        /* \"--CODEGEN--\":23358:23359   */\n      dup2\n        /* \"--CODEGEN--\":23355:23368   */\n      gt\n        /* \"--CODEGEN--\":23352:23354   */\n      iszero\n      tag_351\n      jumpi\n        /* \"--CODEGEN--\":23238:23239   */\n      0x00\n        /* \"--CODEGEN--\":23417:23423   */\n      dup5\n        /* \"--CODEGEN--\":23412:23415   */\n      dup5\n        /* \"--CODEGEN--\":23408:23424   */\n      add\n        /* \"--CODEGEN--\":23401:23428   */\n      mstore\n        /* \"--CODEGEN--\":23352:23354   */\n    tag_351:\n      pop\n        /* \"--CODEGEN--\":23222:23441   */\n      pop\n      pop\n      pop\n      jump\t// out\n        /* \"--CODEGEN--\":23635:23752   */\n    tag_298:\n      sub(shl(0xa0, 0x01), 0x01)\n        /* \"--CODEGEN--\":22654:22708   */\n      dup2\n      and\n        /* \"--CODEGEN--\":23694:23729   */\n      dup2\n      eq\n        /* \"--CODEGEN--\":23684:23686   */\n      tag_193\n      jumpi\n        /* \"--CODEGEN--\":23743:23744   */\n      0x00\n      dup1\n        /* \"--CODEGEN--\":23733:23745   */\n      revert\n\n    auxdata: 0xa26469706673582212201c87ac96469fc929fef27b2a5ae34df6261559d99c48322ba4fa17bbb6a0434a64736f6c634300060c0033\n}\n",
				"bytecode": {
					"linkReferences": {},
					"object": "60e06040526201518060015534801561001757600080fd5b506040516200186338038062001863833981016040819052610038916100c8565b4660a081905261004781610074565b6080525060601b6001600160601b03191660c05260028054336001600160a01b0319909116179055610115565b60007f47e79534a245952e8b16893a336b85a3d9ea9fa8c573f3d803afb92a7946921882306040516020016100ab939291906100f6565b604051602081830303815290604052805190602001209050919050565b6000602082840312156100d9578081fd5b81516001600160a01b03811681146100ef578182fd5b9392505050565b92835260208301919091526001600160a01b0316604082015260600190565b60805160a05160c05160601c61170a62000159600039806104ad52806105dd52806109095280610cba5280610dae525080610bb5525080610bea525061170a6000f3fe608060405234801561001057600080fd5b50600436106101425760003560e01c80639dc29fac116100b8578063d505accf1161007c578063d505accf14610277578063dd62ed3e1461028c578063e3f0dfe71461029f578063ec60bcf3146102b2578063f2fde38b146102c5578063fc0c546a146102d857610142565b80639dc29fac14610215578063a0712d6814610228578063a87430ba1461023b578063a9059cbb1461025c578063b2bdfa7b1461026f57610142565b80633644e5151161010a5780633644e515146101c2578063413d9c3a146101ca57806370a08231146101d25780637ecebe00146101e55780638da5cb5b146101f857806395d89b411461020d57610142565b806306fdde0314610147578063095ea7b31461016557806318160ddd1461018557806323b872dd1461019a578063313ce567146101ad575b600080fd5b61014f6102e0565b60405161015c91906113eb565b60405180910390f35b610178610173366004611258565b61030d565b60405161015c9190611366565b61018d610378565b60405161015c9190611371565b6101786101a83660046111a5565b61037e565b6101b561039f565b60405161015c9190611681565b61018d6103a4565b61018d6103b3565b61018d6101e036600461114f565b6103b9565b61018d6101f336600461114f565b6103dd565b6102006103ef565b60405161015c9190611315565b61014f6103fe565b610178610223366004611258565b61041e565b6101786102363660046112a2565b610434565b61024e61024936600461114f565b610655565b60405161015c929190611667565b61017861026a366004611258565b61067b565b610200610688565b61028a6102853660046111e5565b610697565b005b61018d61029a366004611171565b610838565b6101786102ad3660046112a2565b610855565b6101786102c03660046111a5565b61088f565b61028a6102d336600461114f565b6108a6565b610200610907565b604051806040016040528060118152602001705374616b65642053454120546f6b656e7360781b81525081565b3360008181526004602090815260408083206001600160a01b038716808552925280832085905551919290917f8c5be1e5ebec7d5bd14f71427d1e84f3dd0314c0f7b2291e5b200ac8c7c3b92590610366908690611371565b60405180910390a35060015b92915050565b60005481565b600061038a848361092b565b6103958484846109bd565b5060019392505050565b601281565b60006103ae610bb0565b905090565b60015481565b6001600160a01b03166000908152600360205260409020546001600160801b031690565b60056020526000908152604090205481565b6002546001600160a01b031690565b604051806040016040528060048152602001637353454160e01b81525081565b600061042b338484610c10565b50600192915050565b60003361045c5760405162461bcd60e51b815260040161045390611536565b60405180910390fd5b610464611121565b503360009081526003602090815260408083208151808301835290546001600160801b038082168352600160801b9091041692810192909252516370a0823160e01b81529091907f00000000000000000000000000000000000000000000000000000000000000006001600160a01b0316906370a08231906104ea903090600401611315565b60206040518083038186803b15801561050257600080fd5b505afa158015610516573d6000803e3d6000fd5b505050506040513d601f19601f8201168201806040525081019061053a91906112ba565b90506000805460001461055a578160005486028161055457fe5b0461055c565b845b905061056781610e28565b8351016001600160801b03168352600154610583904201610e28565b6001600160801b0390811660208086019182523360008181526003909252604082208751815494518616600160801b029086166001600160801b031990951694909417909416929092179092558154830190915561060d907f00000000000000000000000000000000000000000000000000000000000000006001600160a01b0316903088610e55565b60405133906000907fddf252ad1be2c89b69c2b068fc378daa952ba7f163c4a11628f55a4df523b3ef90610642908590611371565b60405180910390a3506001949350505050565b6003602052600090815260409020546001600160801b0380821691600160801b90041682565b600061042b3384846109bd565b6002546001600160a01b031681565b6001600160a01b0387166106bd5760405162461bcd60e51b815260040161045390611622565b8342106106dc5760405162461bcd60e51b815260040161045390611646565b6001600160a01b038716600081815260056020908152604091829020805460018181019092559251909261075a9261073f927f6e71edae12b1b97f4d1f60370fef10105fa2faae0126114a169c64845d6126c9928e928e928e92918e910161137a565b60405160208183030381529060405280519060200120610f4e565b8585856040516000815260200160405260405161077a94939291906113cd565b6020604051602081039080840390855afa15801561079c573d6000803e3d6000fd5b505050602060405103516001600160a01b0316146107cc5760405162461bcd60e51b8152600401610453906115c8565b6001600160a01b038088166000818152600460209081526040808320948b168084529490915290819020889055517f8c5be1e5ebec7d5bd14f71427d1e84f3dd0314c0f7b2291e5b200ac8c7c3b92590610827908990611371565b60405180910390a350505050505050565b600460209081526000928352604080842090915290825290205481565b6000336108606103ef565b6001600160a01b0316146108865760405162461bcd60e51b815260040161045390611593565b50600190815590565b600061089b848361092b565b610395848484610c10565b336108af6103ef565b6001600160a01b0316146108d55760405162461bcd60e51b815260040161045390611593565b6001600160a01b0381166108fb5760405162461bcd60e51b8152600401610453906114a4565b61090481610fa3565b50565b7f000000000000000000000000000000000000000000000000000000000000000081565b336001600160a01b0383161415610941576109b9565b6001600160a01b038216600090815260046020908152604080832033845290915290205460001981146109b7578181101561098e5760405162461bcd60e51b8152600401610453906114ea565b6001600160a01b0383166000908152600460209081526040808320338452909152902082820390555b505b5050565b6109c5611121565b506001600160a01b0383166000908152600360209081526040918290208251808401909352546001600160801b038082168452600160801b90910416908201819052421015610a265760405162461bcd60e51b81526004016104539061144d565b8115610b5f5780516001600160801b0316821115610a565760405162461bcd60e51b815260040161045390611511565b826001600160a01b0316846001600160a01b031614610b5f576001600160a01b038316610a955760405162461bcd60e51b815260040161045390611536565b610a9d611121565b506001600160a01b0383166000908152600360209081526040918290208251808401909352546001600160801b038082168452600160801b9091041690820152610ae683610e28565b82516001600160a01b038716600090815260036020526040902080546001600160801b031916929091036001600160801b0316919091179055610b2883610e28565b90516001600160a01b038516600090815260036020526040902080546001600160801b031916919092016001600160801b03161790555b826001600160a01b0316846001600160a01b03167fddf252ad1be2c89b69c2b068fc378daa952ba7f163c4a11628f55a4df523b3ef84604051610ba29190611371565b60405180910390a350505050565b6000467f00000000000000000000000000000000000000000000000000000000000000008114610be857610be381610fc5565b610c0a565b7f00000000000000000000000000000000000000000000000000000000000000005b91505090565b6001600160a01b038216610c365760405162461bcd60e51b815260040161045390611536565b610c3e611121565b506001600160a01b0383166000908152600360209081526040918290208251808401909352546001600160801b038082168452600160801b90910416908201819052421015610c9f5760405162461bcd60e51b81526004016104539061144d565b600080546040516370a0823160e01b81526001600160a01b037f000000000000000000000000000000000000000000000000000000000000000016906370a0823190610cef903090600401611315565b60206040518083038186803b158015610d0757600080fd5b505afa158015610d1b573d6000803e3d6000fd5b505050506040513d601f19601f82011682018060405250810190610d3f91906112ba565b840281610d4857fe5b049050610d68610d5784610e28565b83516001600160801b031690610ffc565b6001600160a01b03868116600090815260036020526040812080546001600160801b0319166001600160801b0394909416939093179092558154859003909155610dd5907f000000000000000000000000000000000000000000000000000000000000000016858361102b565b60006001600160a01b0316856001600160a01b03167fddf252ad1be2c89b69c2b068fc378daa952ba7f163c4a11628f55a4df523b3ef85604051610e199190611371565b60405180910390a35050505050565b60006001600160801b03821115610e515760405162461bcd60e51b81526004016104539061155c565b5090565b60006060856001600160a01b03166323b872dd60e01b868686604051602401610e8093929190611329565b60408051601f198184030181529181526020820180516001600160e01b03166001600160e01b0319909416939093179092529051610ebe91906112d2565b6000604051808303816000865af19150503d8060008114610efb576040519150601f19603f3d011682016040523d82523d6000602084013e610f00565b606091505b5091509150818015610f2a575080511580610f2a575080806020019051810190610f2a9190611282565b610f465760405162461bcd60e51b8152600401610453906115ed565b505050505050565b600060405180604001604052806002815260200161190160f01b815250610f73610bb0565b83604051602001610f86939291906112ee565b604051602081830303815290604052805190602001209050919050565b600280546001600160a01b0319166001600160a01b0392909216919091179055565b60007f47e79534a245952e8b16893a336b85a3d9ea9fa8c573f3d803afb92a794692188230604051602001610f86939291906113ae565b8082036001600160801b0380841690821611156103725760405162461bcd60e51b81526004016104539061141e565b60006060846001600160a01b031663a9059cbb60e01b858560405160240161105492919061134d565b60408051601f198184030181529181526020820180516001600160e01b03166001600160e01b031990941693909317909252905161109291906112d2565b6000604051808303816000865af19150503d80600081146110cf576040519150601f19603f3d011682016040523d82523d6000602084013e6110d4565b606091505b50915091508180156110fe5750805115806110fe5750808060200190518101906110fe9190611282565b61111a5760405162461bcd60e51b81526004016104539061146d565b5050505050565b604080518082019091526000808252602082015290565b80356001600160a01b038116811461037257600080fd5b600060208284031215611160578081fd5b61116a8383611138565b9392505050565b60008060408385031215611183578081fd5b61118d8484611138565b915061119c8460208501611138565b90509250929050565b6000806000606084860312156111b9578081fd5b83356111c4816116bf565b925060208401356111d4816116bf565b929592945050506040919091013590565b600080600080600080600060e0888a0312156111ff578283fd5b6112098989611138565b96506112188960208a01611138565b95506040880135945060608801359350608088013560ff8116811461123b578384fd5b9699959850939692959460a0840135945060c09093013592915050565b6000806040838503121561126a578182fd5b6112748484611138565b946020939093013593505050565b600060208284031215611293578081fd5b8151801515811461116a578182fd5b6000602082840312156112b3578081fd5b5035919050565b6000602082840312156112cb578081fd5b5051919050565b600082516112e481846020870161168f565b9190910192915050565b6000845161130081846020890161168f565b91909101928352506020820152604001919050565b6001600160a01b0391909116815260200190565b6001600160a01b039384168152919092166020820152604081019190915260600190565b6001600160a01b03929092168252602082015260400190565b901515815260200190565b90815260200190565b9586526001600160a01b0394851660208701529290931660408501526060840152608083019190915260a082015260c00190565b92835260208301919091526001600160a01b0316604082015260600190565b93845260ff9290921660208401526040830152606082015260800190565b600060208252825180602084015261140a81604085016020870161168f565b601f01601f19169190910160400192915050565b602080825260159082015274426f72696e674d6174683a20556e646572666c6f7760581b604082015260600190565b602080825260069082015265131bd8dad95960d21b604082015260600190565b6020808252601c908201527f426f72696e6745524332303a205472616e73666572206661696c656400000000604082015260600190565b60208082526026908201527f4f776e61626c653a206e6577206f776e657220697320746865207a65726f206160408201526564647265737360d01b606082015260800190565b6020808252600d908201526c4c6f7720616c6c6f77616e636560981b604082015260600190565b6020808252600b908201526a4c6f772062616c616e636560a81b604082015260600190565b6020808252600c908201526b5a65726f206164647265737360a01b604082015260600190565b6020808252601c908201527f426f72696e674d6174683a2075696e74313238204f766572666c6f7700000000604082015260600190565b6020808252818101527f4f776e61626c653a2063616c6c6572206973206e6f7420746865206f776e6572604082015260600190565b6020808252600b908201526a496e76616c69642053696760a81b604082015260600190565b6020808252818101527f426f72696e6745524332303a205472616e7366657246726f6d206661696c6564604082015260600190565b6020808252600a90820152692d32b9379037bbb732b960b11b604082015260600190565b602080825260079082015266115e1c1a5c995960ca1b604082015260600190565b6001600160801b0392831681529116602082015260400190565b60ff91909116815260200190565b60005b838110156116aa578181015183820152602001611692565b838111156116b9576000848401525b50505050565b6001600160a01b038116811461090457600080fdfea26469706673582212201c87ac96469fc929fef27b2a5ae34df6261559d99c48322ba4fa17bbb6a0434a64736f6c634300060c0033",
					"opcodes": "PUSH1 0xE0 PUSH1 0x40 MSTORE PUSH3 0x15180 PUSH1 0x1 SSTORE CALLVALUE DUP1 ISZERO PUSH2 0x17 JUMPI PUSH1 0x0 DUP1 REVERT JUMPDEST POP PUSH1 0x40 MLOAD PUSH3 0x1863 CODESIZE SUB DUP1 PUSH3 0x1863 DUP4 CODECOPY DUP2 ADD PUSH1 0x40 DUP2 SWAP1 MSTORE PUSH2 0x38 SWAP2 PUSH2 0xC8 JUMP JUMPDEST CHAINID PUSH1 0xA0 DUP2 SWAP1 MSTORE PUSH2 0x47 DUP2 PUSH2 0x74 JUMP JUMPDEST PUSH1 0x80 MSTORE POP PUSH1 0x60 SHL PUSH1 0x1 PUSH1 0x1 PUSH1 0x60 SHL SUB NOT AND PUSH1 0xC0 MSTORE PUSH1 0x2 DUP1 SLOAD CALLER PUSH1 0x1 PUSH1 0x1 PUSH1 0xA0 SHL SUB NOT SWAP1 SWAP2 AND OR SWAP1 SSTORE PUSH2 0x115 JUMP JUMPDEST PUSH1 0x0 PUSH32 0x47E79534A245952E8B16893A336B85A3D9EA9FA8C573F3D803AFB92A79469218 DUP3 ADDRESS PUSH1 0x40 MLOAD PUSH1 0x20 ADD PUSH2 0xAB SWAP4 SWAP3 SWAP2 SWAP1 PUSH2 0xF6 JUMP JUMPDEST PUSH1 0x40 MLOAD PUSH1 0x20 DUP2 DUP4 SUB SUB DUP2 MSTORE SWAP1 PUSH1 0x40 MSTORE DUP1 MLOAD SWAP1 PUSH1 0x20 ADD KECCAK256 SWAP1 POP SWAP2 SWAP1 POP JUMP JUMPDEST PUSH1 0x0 PUSH1 0x20 DUP3 DUP5 SUB SLT ISZERO PUSH2 0xD9 JUMPI DUP1 DUP2 REVERT JUMPDEST DUP2 MLOAD PUSH1 0x1 PUSH1 0x1 PUSH1 0xA0 SHL SUB DUP2 AND DUP2 EQ PUSH2 0xEF JUMPI DUP2 DUP3 REVERT JUMPDEST SWAP4 SWAP3 POP POP POP JUMP JUMPDEST SWAP3 DUP4 MSTORE PUSH1 0x20 DUP4 ADD SWAP2 SWAP1 SWAP2 MSTORE PUSH1 0x1 PUSH1 0x1 PUSH1 0xA0 SHL SUB AND PUSH1 0x40 DUP3 ADD MSTORE PUSH1 0x60 ADD SWAP1 JUMP JUMPDEST PUSH1 0x80 MLOAD PUSH1 0xA0 MLOAD PUSH1 0xC0 MLOAD PUSH1 0x60 SHR PUSH2 0x170A PUSH3 0x159 PUSH1 0x0 CODECOPY DUP1 PUSH2 0x4AD MSTORE DUP1 PUSH2 0x5DD MSTORE DUP1 PUSH2 0x909 MSTORE DUP1 PUSH2 0xCBA MSTORE DUP1 PUSH2 0xDAE MSTORE POP DUP1 PUSH2 0xBB5 MSTORE POP DUP1 PUSH2 0xBEA MSTORE POP PUSH2 0x170A PUSH1 0x0 RETURN INVALID PUSH1 0x80 PUSH1 0x40 MSTORE CALLVALUE DUP1 ISZERO PUSH2 0x10 JUMPI PUSH1 0x0 DUP1 REVERT JUMPDEST POP PUSH1 0x4 CALLDATASIZE LT PUSH2 0x142 JUMPI PUSH1 0x0 CALLDATALOAD PUSH1 0xE0 SHR DUP1 PUSH4 0x9DC29FAC GT PUSH2 0xB8 JUMPI DUP1 PUSH4 0xD505ACCF GT PUSH2 0x7C JUMPI DUP1 PUSH4 0xD505ACCF EQ PUSH2 0x277 JUMPI DUP1 PUSH4 0xDD62ED3E EQ PUSH2 0x28C JUMPI DUP1 PUSH4 0xE3F0DFE7 EQ PUSH2 0x29F JUMPI DUP1 PUSH4 0xEC60BCF3 EQ PUSH2 0x2B2 JUMPI DUP1 PUSH4 0xF2FDE38B EQ PUSH2 0x2C5 JUMPI DUP1 PUSH4 0xFC0C546A EQ PUSH2 0x2D8 JUMPI PUSH2 0x142 JUMP JUMPDEST DUP1 PUSH4 0x9DC29FAC EQ PUSH2 0x215 JUMPI DUP1 PUSH4 0xA0712D68 EQ PUSH2 0x228 JUMPI DUP1 PUSH4 0xA87430BA EQ PUSH2 0x23B JUMPI DUP1 PUSH4 0xA9059CBB EQ PUSH2 0x25C JUMPI DUP1 PUSH4 0xB2BDFA7B EQ PUSH2 0x26F JUMPI PUSH2 0x142 JUMP JUMPDEST DUP1 PUSH4 0x3644E515 GT PUSH2 0x10A JUMPI DUP1 PUSH4 0x3644E515 EQ PUSH2 0x1C2 JUMPI DUP1 PUSH4 0x413D9C3A EQ PUSH2 0x1CA JUMPI DUP1 PUSH4 0x70A08231 EQ PUSH2 0x1D2 JUMPI DUP1 PUSH4 0x7ECEBE00 EQ PUSH2 0x1E5 JUMPI DUP1 PUSH4 0x8DA5CB5B EQ PUSH2 0x1F8 JUMPI DUP1 PUSH4 0x95D89B41 EQ PUSH2 0x20D JUMPI PUSH2 0x142 JUMP JUMPDEST DUP1 PUSH4 0x6FDDE03 EQ PUSH2 0x147 JUMPI DUP1 PUSH4 0x95EA7B3 EQ PUSH2 0x165 JUMPI DUP1 PUSH4 0x18160DDD EQ PUSH2 0x185 JUMPI DUP1 PUSH4 0x23B872DD EQ PUSH2 0x19A JUMPI DUP1 PUSH4 0x313CE567 EQ PUSH2 0x1AD JUMPI JUMPDEST PUSH1 0x0 DUP1 REVERT JUMPDEST PUSH2 0x14F PUSH2 0x2E0 JUMP JUMPDEST PUSH1 0x40 MLOAD PUSH2 0x15C SWAP2 SWAP1 PUSH2 0x13EB JUMP JUMPDEST PUSH1 0x40 MLOAD DUP1 SWAP2 SUB SWAP1 RETURN JUMPDEST PUSH2 0x178 PUSH2 0x173 CALLDATASIZE PUSH1 0x4 PUSH2 0x1258 JUMP JUMPDEST PUSH2 0x30D JUMP JUMPDEST PUSH1 0x40 MLOAD PUSH2 0x15C SWAP2 SWAP1 PUSH2 0x1366 JUMP JUMPDEST PUSH2 0x18D PUSH2 0x378 JUMP JUMPDEST PUSH1 0x40 MLOAD PUSH2 0x15C SWAP2 SWAP1 PUSH2 0x1371 JUMP JUMPDEST PUSH2 0x178 PUSH2 0x1A8 CALLDATASIZE PUSH1 0x4 PUSH2 0x11A5 JUMP JUMPDEST PUSH2 0x37E JUMP JUMPDEST PUSH2 0x1B5 PUSH2 0x39F JUMP JUMPDEST PUSH1 0x40 MLOAD PUSH2 0x15C SWAP2 SWAP1 PUSH2 0x1681 JUMP JUMPDEST PUSH2 0x18D PUSH2 0x3A4 JUMP JUMPDEST PUSH2 0x18D PUSH2 0x3B3 JUMP JUMPDEST PUSH2 0x18D PUSH2 0x1E0 CALLDATASIZE PUSH1 0x4 PUSH2 0x114F JUMP JUMPDEST PUSH2 0x3B9 JUMP JUMPDEST PUSH2 0x18D PUSH2 0x1F3 CALLDATASIZE PUSH1 0x4 PUSH2 0x114F JUMP JUMPDEST PUSH2 0x3DD JUMP JUMPDEST PUSH2 0x200 PUSH2 0x3EF JUMP JUMPDEST PUSH1 0x40 MLOAD PUSH2 0x15C SWAP2 SWAP1 PUSH2 0x1315 JUMP JUMPDEST PUSH2 0x14F PUSH2 0x3FE JUMP JUMPDEST PUSH2 0x178 PUSH2 0x223 CALLDATASIZE PUSH1 0x4 PUSH2 0x1258 JUMP JUMPDEST PUSH2 0x41E JUMP JUMPDEST PUSH2 0x178 PUSH2 0x236 CALLDATASIZE PUSH1 0x4 PUSH2 0x12A2 JUMP JUMPDEST PUSH2 0x434 JUMP JUMPDEST PUSH2 0x24E PUSH2 0x249 CALLDATASIZE PUSH1 0x4 PUSH2 0x114F JUMP JUMPDEST PUSH2 0x655 JUMP JUMPDEST PUSH1 0x40 MLOAD PUSH2 0x15C SWAP3 SWAP2 SWAP1 PUSH2 0x1667 JUMP JUMPDEST PUSH2 0x178 PUSH2 0x26A CALLDATASIZE PUSH1 0x4 PUSH2 0x1258 JUMP JUMPDEST PUSH2 0x67B JUMP JUMPDEST PUSH2 0x200 PUSH2 0x688 JUMP JUMPDEST PUSH2 0x28A PUSH2 0x285 CALLDATASIZE PUSH1 0x4 PUSH2 0x11E5 JUMP JUMPDEST PUSH2 0x697 JUMP JUMPDEST STOP JUMPDEST PUSH2 0x18D PUSH2 0x29A CALLDATASIZE PUSH1 0x4 PUSH2 0x1171 JUMP JUMPDEST PUSH2 0x838 JUMP JUMPDEST PUSH2 0x178 PUSH2 0x2AD CALLDATASIZE PUSH1 0x4 PUSH2 0x12A2 JUMP JUMPDEST PUSH2 0x855 JUMP JUMPDEST PUSH2 0x178 PUSH2 0x2C0 CALLDATASIZE PUSH1 0x4 PUSH2 0x11A5 JUMP JUMPDEST PUSH2 0x88F JUMP JUMPDEST PUSH2 0x28A PUSH2 0x2D3 CALLDATASIZE PUSH1 0x4 PUSH2 0x114F JUMP JUMPDEST PUSH2 0x8A6 JUMP JUMPDEST PUSH2 0x200 PUSH2 0x907 JUMP JUMPDEST PUSH1 0x40 MLOAD DUP1 PUSH1 0x40 ADD PUSH1 0x40 MSTORE DUP1 PUSH1 0x11 DUP2 MSTORE PUSH1 0x20 ADD PUSH17 0x5374616B65642053454120546F6B656E73 PUSH1 0x78 SHL DUP2 MSTORE POP DUP2 JUMP JUMPDEST CALLER PUSH1 0x0 DUP2 DUP2 MSTORE PUSH1 0x4 PUSH1 0x20 SWAP1 DUP2 MSTORE PUSH1 0x40 DUP1 DUP4 KECCAK256 PUSH1 0x1 PUSH1 0x1 PUSH1 0xA0 SHL SUB DUP8 AND DUP1 DUP6 MSTORE SWAP3 MSTORE DUP1 DUP4 KECCAK256 DUP6 SWAP1 SSTORE MLOAD SWAP2 SWAP3 SWAP1 SWAP2 PUSH32 0x8C5BE1E5EBEC7D5BD14F71427D1E84F3DD0314C0F7B2291E5B200AC8C7C3B925 SWAP1 PUSH2 0x366 SWAP1 DUP7 SWAP1 PUSH2 0x1371 JUMP JUMPDEST PUSH1 0x40 MLOAD DUP1 SWAP2 SUB SWAP1 LOG3 POP PUSH1 0x1 JUMPDEST SWAP3 SWAP2 POP POP JUMP JUMPDEST PUSH1 0x0 SLOAD DUP2 JUMP JUMPDEST PUSH1 0x0 PUSH2 0x38A DUP5 DUP4 PUSH2 0x92B JUMP JUMPDEST PUSH2 0x395 DUP5 DUP5 DUP5 PUSH2 0x9BD JUMP JUMPDEST POP PUSH1 0x1 SWAP4 SWAP3 POP POP POP JUMP JUMPDEST PUSH1 0x12 DUP2 JUMP JUMPDEST PUSH1 0x0 PUSH2 0x3AE PUSH2 0xBB0 JUMP JUMPDEST SWAP1 POP SWAP1 JUMP JUMPDEST PUSH1 0x1 SLOAD DUP2 JUMP JUMPDEST PUSH1 0x1 PUSH1 0x1 PUSH1 0xA0 SHL SUB AND PUSH1 0x0 SWAP1 DUP2 MSTORE PUSH1 0x3 PUSH1 0x20 MSTORE PUSH1 0x40 SWAP1 KECCAK256 SLOAD PUSH1 0x1 PUSH1 0x1 PUSH1 0x80 SHL SUB AND SWAP1 JUMP JUMPDEST PUSH1 0x5 PUSH1 0x20 MSTORE PUSH1 0x0 SWAP1 DUP2 MSTORE PUSH1 0x40 SWAP1 KECCAK256 SLOAD DUP2 JUMP JUMPDEST PUSH1 0x2 SLOAD PUSH1 0x1 PUSH1 0x1 PUSH1 0xA0 SHL SUB AND SWAP1 JUMP JUMPDEST PUSH1 0x40 MLOAD DUP1 PUSH1 0x40 ADD PUSH1 0x40 MSTORE DUP1 PUSH1 0x4 DUP2 MSTORE PUSH1 0x20 ADD PUSH4 0x73534541 PUSH1 0xE0 SHL DUP2 MSTORE POP DUP2 JUMP JUMPDEST PUSH1 0x0 PUSH2 0x42B CALLER DUP5 DUP5 PUSH2 0xC10 JUMP JUMPDEST POP PUSH1 0x1 SWAP3 SWAP2 POP POP JUMP JUMPDEST PUSH1 0x0 CALLER PUSH2 0x45C JUMPI PUSH1 0x40 MLOAD PUSH3 0x461BCD PUSH1 0xE5 SHL DUP2 MSTORE PUSH1 0x4 ADD PUSH2 0x453 SWAP1 PUSH2 0x1536 JUMP JUMPDEST PUSH1 0x40 MLOAD DUP1 SWAP2 SUB SWAP1 REVERT JUMPDEST PUSH2 0x464 PUSH2 0x1121 JUMP JUMPDEST POP CALLER PUSH1 0x0 SWAP1 DUP2 MSTORE PUSH1 0x3 PUSH1 0x20 SWAP1 DUP2 MSTORE PUSH1 0x40 DUP1 DUP4 KECCAK256 DUP2 MLOAD DUP1 DUP4 ADD DUP4 MSTORE SWAP1 SLOAD PUSH1 0x1 PUSH1 0x1 PUSH1 0x80 SHL SUB DUP1 DUP3 AND DUP4 MSTORE PUSH1 0x1 PUSH1 0x80 SHL SWAP1 SWAP2 DIV AND SWAP3 DUP2 ADD SWAP3 SWAP1 SWAP3 MSTORE MLOAD PUSH4 0x70A08231 PUSH1 0xE0 SHL DUP2 MSTORE SWAP1 SWAP2 SWAP1 PUSH32 0x0 PUSH1 0x1 PUSH1 0x1 PUSH1 0xA0 SHL SUB AND SWAP1 PUSH4 0x70A08231 SWAP1 PUSH2 0x4EA SWAP1 ADDRESS SWAP1 PUSH1 0x4 ADD PUSH2 0x1315 JUMP JUMPDEST PUSH1 0x20 PUSH1 0x40 MLOAD DUP1 DUP4 SUB DUP2 DUP7 DUP1 EXTCODESIZE ISZERO DUP1 ISZERO PUSH2 0x502 JUMPI PUSH1 0x0 DUP1 REVERT JUMPDEST POP GAS STATICCALL ISZERO DUP1 ISZERO PUSH2 0x516 JUMPI RETURNDATASIZE PUSH1 0x0 DUP1 RETURNDATACOPY RETURNDATASIZE PUSH1 0x0 REVERT JUMPDEST POP POP POP POP PUSH1 0x40 MLOAD RETURNDATASIZE PUSH1 0x1F NOT PUSH1 0x1F DUP3 ADD AND DUP3 ADD DUP1 PUSH1 0x40 MSTORE POP DUP2 ADD SWAP1 PUSH2 0x53A SWAP2 SWAP1 PUSH2 0x12BA JUMP JUMPDEST SWAP1 POP PUSH1 0x0 DUP1 SLOAD PUSH1 0x0 EQ PUSH2 0x55A JUMPI DUP2 PUSH1 0x0 SLOAD DUP7 MUL DUP2 PUSH2 0x554 JUMPI INVALID JUMPDEST DIV PUSH2 0x55C JUMP JUMPDEST DUP5 JUMPDEST SWAP1 POP PUSH2 0x567 DUP2 PUSH2 0xE28 JUMP JUMPDEST DUP4 MLOAD ADD PUSH1 0x1 PUSH1 0x1 PUSH1 0x80 SHL SUB AND DUP4 MSTORE PUSH1 0x1 SLOAD PUSH2 0x583 SWAP1 TIMESTAMP ADD PUSH2 0xE28 JUMP JUMPDEST PUSH1 0x1 PUSH1 0x1 PUSH1 0x80 SHL SUB SWAP1 DUP2 AND PUSH1 0x20 DUP1 DUP7 ADD SWAP2 DUP3 MSTORE CALLER PUSH1 0x0 DUP2 DUP2 MSTORE PUSH1 0x3 SWAP1 SWAP3 MSTORE PUSH1 0x40 DUP3 KECCAK256 DUP8 MLOAD DUP2 SLOAD SWAP5 MLOAD DUP7 AND PUSH1 0x1 PUSH1 0x80 SHL MUL SWAP1 DUP7 AND PUSH1 0x1 PUSH1 0x1 PUSH1 0x80 SHL SUB NOT SWAP1 SWAP6 AND SWAP5 SWAP1 SWAP5 OR SWAP1 SWAP5 AND SWAP3 SWAP1 SWAP3 OR SWAP1 SWAP3 SSTORE DUP2 SLOAD DUP4 ADD SWAP1 SWAP2 SSTORE PUSH2 0x60D SWAP1 PUSH32 0x0 PUSH1 0x1 PUSH1 0x1 PUSH1 0xA0 SHL SUB AND SWAP1 ADDRESS DUP9 PUSH2 0xE55 JUMP JUMPDEST PUSH1 0x40 MLOAD CALLER SWAP1 PUSH1 0x0 SWAP1 PUSH32 0xDDF252AD1BE2C89B69C2B068FC378DAA952BA7F163C4A11628F55A4DF523B3EF SWAP1 PUSH2 0x642 SWAP1 DUP6 SWAP1 PUSH2 0x1371 JUMP JUMPDEST PUSH1 0x40 MLOAD DUP1 SWAP2 SUB SWAP1 LOG3 POP PUSH1 0x1 SWAP5 SWAP4 POP POP POP POP JUMP JUMPDEST PUSH1 0x3 PUSH1 0x20 MSTORE PUSH1 0x0 SWAP1 DUP2 MSTORE PUSH1 0x40 SWAP1 KECCAK256 SLOAD PUSH1 0x1 PUSH1 0x1 PUSH1 0x80 SHL SUB DUP1 DUP3 AND SWAP2 PUSH1 0x1 PUSH1 0x80 SHL SWAP1 DIV AND DUP3 JUMP JUMPDEST PUSH1 0x0 PUSH2 0x42B CALLER DUP5 DUP5 PUSH2 0x9BD JUMP JUMPDEST PUSH1 0x2 SLOAD PUSH1 0x1 PUSH1 0x1 PUSH1 0xA0 SHL SUB AND DUP2 JUMP JUMPDEST PUSH1 0x1 PUSH1 0x1 PUSH1 0xA0 SHL SUB DUP8 AND PUSH2 0x6BD JUMPI PUSH1 0x40 MLOAD PUSH3 0x461BCD PUSH1 0xE5 SHL DUP2 MSTORE PUSH1 0x4 ADD PUSH2 0x453 SWAP1 PUSH2 0x1622 JUMP JUMPDEST DUP4 TIMESTAMP LT PUSH2 0x6DC JUMPI PUSH1 0x40 MLOAD PUSH3 0x461BCD PUSH1 0xE5 SHL DUP2 MSTORE PUSH1 0x4 ADD PUSH2 0x453 SWAP1 PUSH2 0x1646 JUMP JUMPDEST PUSH1 0x1 PUSH1 0x1 PUSH1 0xA0 SHL SUB DUP8 AND PUSH1 0x0 DUP2 DUP2 MSTORE PUSH1 0x5 PUSH1 0x20 SWAP1 DUP2 MSTORE PUSH1 0x40 SWAP2 DUP3 SWAP1 KECCAK256 DUP1 SLOAD PUSH1 0x1 DUP2 DUP2 ADD SWAP1 SWAP3 SSTORE SWAP3 MLOAD SWAP1 SWAP3 PUSH2 0x75A SWAP3 PUSH2 0x73F SWAP3 PUSH32 0x6E71EDAE12B1B97F4D1F60370FEF10105FA2FAAE0126114A169C64845D6126C9 SWAP3 DUP15 SWAP3 DUP15 SWAP3 DUP15 SWAP3 SWAP2 DUP15 SWAP2 ADD PUSH2 0x137A JUMP JUMPDEST PUSH1 0x40 MLOAD PUSH1 0x20 DUP2 DUP4 SUB SUB DUP2 MSTORE SWAP1 PUSH1 0x40 MSTORE DUP1 MLOAD SWAP1 PUSH1 0x20 ADD KECCAK256 PUSH2 0xF4E JUMP JUMPDEST DUP6 DUP6 DUP6 PUSH1 0x40 MLOAD PUSH1 0x0 DUP2 MSTORE PUSH1 0x20 ADD PUSH1 0x40 MSTORE PUSH1 0x40 MLOAD PUSH2 0x77A SWAP5 SWAP4 SWAP3 SWAP2 SWAP1 PUSH2 0x13CD JUMP JUMPDEST PUSH1 0x20 PUSH1 0x40 MLOAD PUSH1 0x20 DUP2 SUB SWAP1 DUP1 DUP5 SUB SWAP1 DUP6 GAS STATICCALL ISZERO DUP1 ISZERO PUSH2 0x79C JUMPI RETURNDATASIZE PUSH1 0x0 DUP1 RETURNDATACOPY RETURNDATASIZE PUSH1 0x0 REVERT JUMPDEST POP POP POP PUSH1 0x20 PUSH1 0x40 MLOAD SUB MLOAD PUSH1 0x1 PUSH1 0x1 PUSH1 0xA0 SHL SUB AND EQ PUSH2 0x7CC JUMPI PUSH1 0x40 MLOAD PUSH3 0x461BCD PUSH1 0xE5 SHL DUP2 MSTORE PUSH1 0x4 ADD PUSH2 0x453 SWAP1 PUSH2 0x15C8 JUMP JUMPDEST PUSH1 0x1 PUSH1 0x1 PUSH1 0xA0 SHL SUB DUP1 DUP9 AND PUSH1 0x0 DUP2 DUP2 MSTORE PUSH1 0x4 PUSH1 0x20 SWAP1 DUP2 MSTORE PUSH1 0x40 DUP1 DUP4 KECCAK256 SWAP5 DUP12 AND DUP1 DUP5 MSTORE SWAP5 SWAP1 SWAP2 MSTORE SWAP1 DUP2 SWAP1 KECCAK256 DUP9 SWAP1 SSTORE MLOAD PUSH32 0x8C5BE1E5EBEC7D5BD14F71427D1E84F3DD0314C0F7B2291E5B200AC8C7C3B925 SWAP1 PUSH2 0x827 SWAP1 DUP10 SWAP1 PUSH2 0x1371 JUMP JUMPDEST PUSH1 0x40 MLOAD DUP1 SWAP2 SUB SWAP1 LOG3 POP POP POP POP POP POP POP JUMP JUMPDEST PUSH1 0x4 PUSH1 0x20 SWAP1 DUP2 MSTORE PUSH1 0x0 SWAP3 DUP4 MSTORE PUSH1 0x40 DUP1 DUP5 KECCAK256 SWAP1 SWAP2 MSTORE SWAP1 DUP3 MSTORE SWAP1 KECCAK256 SLOAD DUP2 JUMP JUMPDEST PUSH1 0x0 CALLER PUSH2 0x860 PUSH2 0x3EF JUMP JUMPDEST PUSH1 0x1 PUSH1 0x1 PUSH1 0xA0 SHL SUB AND EQ PUSH2 0x886 JUMPI PUSH1 0x40 MLOAD PUSH3 0x461BCD PUSH1 0xE5 SHL DUP2 MSTORE PUSH1 0x4 ADD PUSH2 0x453 SWAP1 PUSH2 0x1593 JUMP JUMPDEST POP PUSH1 0x1 SWAP1 DUP2 SSTORE SWAP1 JUMP JUMPDEST PUSH1 0x0 PUSH2 0x89B DUP5 DUP4 PUSH2 0x92B JUMP JUMPDEST PUSH2 0x395 DUP5 DUP5 DUP5 PUSH2 0xC10 JUMP JUMPDEST CALLER PUSH2 0x8AF PUSH2 0x3EF JUMP JUMPDEST PUSH1 0x1 PUSH1 0x1 PUSH1 0xA0 SHL SUB AND EQ PUSH2 0x8D5 JUMPI PUSH1 0x40 MLOAD PUSH3 0x461BCD PUSH1 0xE5 SHL DUP2 MSTORE PUSH1 0x4 ADD PUSH2 0x453 SWAP1 PUSH2 0x1593 JUMP JUMPDEST PUSH1 0x1 PUSH1 0x1 PUSH1 0xA0 SHL SUB DUP2 AND PUSH2 0x8FB JUMPI PUSH1 0x40 MLOAD PUSH3 0x461BCD PUSH1 0xE5 SHL DUP2 MSTORE PUSH1 0x4 ADD PUSH2 0x453 SWAP1 PUSH2 0x14A4 JUMP JUMPDEST PUSH2 0x904 DUP2 PUSH2 0xFA3 JUMP JUMPDEST POP JUMP JUMPDEST PUSH32 0x0 DUP2 JUMP JUMPDEST CALLER PUSH1 0x1 PUSH1 0x1 PUSH1 0xA0 SHL SUB DUP4 AND EQ ISZERO PUSH2 0x941 JUMPI PUSH2 0x9B9 JUMP JUMPDEST PUSH1 0x1 PUSH1 0x1 PUSH1 0xA0 SHL SUB DUP3 AND PUSH1 0x0 SWAP1 DUP2 MSTORE PUSH1 0x4 PUSH1 0x20 SWAP1 DUP2 MSTORE PUSH1 0x40 DUP1 DUP4 KECCAK256 CALLER DUP5 MSTORE SWAP1 SWAP2 MSTORE SWAP1 KECCAK256 SLOAD PUSH1 0x0 NOT DUP2 EQ PUSH2 0x9B7 JUMPI DUP2 DUP2 LT ISZERO PUSH2 0x98E JUMPI PUSH1 0x40 MLOAD PUSH3 0x461BCD PUSH1 0xE5 SHL DUP2 MSTORE PUSH1 0x4 ADD PUSH2 0x453 SWAP1 PUSH2 0x14EA JUMP JUMPDEST PUSH1 0x1 PUSH1 0x1 PUSH1 0xA0 SHL SUB DUP4 AND PUSH1 0x0 SWAP1 DUP2 MSTORE PUSH1 0x4 PUSH1 0x20 SWAP1 DUP2 MSTORE PUSH1 0x40 DUP1 DUP4 KECCAK256 CALLER DUP5 MSTORE SWAP1 SWAP2 MSTORE SWAP1 KECCAK256 DUP3 DUP3 SUB SWAP1 SSTORE JUMPDEST POP JUMPDEST POP POP JUMP JUMPDEST PUSH2 0x9C5 PUSH2 0x1121 JUMP JUMPDEST POP PUSH1 0x1 PUSH1 0x1 PUSH1 0xA0 SHL SUB DUP4 AND PUSH1 0x0 SWAP1 DUP2 MSTORE PUSH1 0x3 PUSH1 0x20 SWAP1 DUP2 MSTORE PUSH1 0x40 SWAP2 DUP3 SWAP1 KECCAK256 DUP3 MLOAD DUP1 DUP5 ADD SWAP1 SWAP4 MSTORE SLOAD PUSH1 0x1 PUSH1 0x1 PUSH1 0x80 SHL SUB DUP1 DUP3 AND DUP5 MSTORE PUSH1 0x1 PUSH1 0x80 SHL SWAP1 SWAP2 DIV AND SWAP1 DUP3 ADD DUP2 SWAP1 MSTORE TIMESTAMP LT ISZERO PUSH2 0xA26 JUMPI PUSH1 0x40 MLOAD PUSH3 0x461BCD PUSH1 0xE5 SHL DUP2 MSTORE PUSH1 0x4 ADD PUSH2 0x453 SWAP1 PUSH2 0x144D JUMP JUMPDEST DUP2 ISZERO PUSH2 0xB5F JUMPI DUP1 MLOAD PUSH1 0x1 PUSH1 0x1 PUSH1 0x80 SHL SUB AND DUP3 GT ISZERO PUSH2 0xA56 JUMPI PUSH1 0x40 MLOAD PUSH3 0x461BCD PUSH1 0xE5 SHL DUP2 MSTORE PUSH1 0x4 ADD PUSH2 0x453 SWAP1 PUSH2 0x1511 JUMP JUMPDEST DUP3 PUSH1 0x1 PUSH1 0x1 PUSH1 0xA0 SHL SUB AND DUP5 PUSH1 0x1 PUSH1 0x1 PUSH1 0xA0 SHL SUB AND EQ PUSH2 0xB5F JUMPI PUSH1 0x1 PUSH1 0x1 PUSH1 0xA0 SHL SUB DUP4 AND PUSH2 0xA95 JUMPI PUSH1 0x40 MLOAD PUSH3 0x461BCD PUSH1 0xE5 SHL DUP2 MSTORE PUSH1 0x4 ADD PUSH2 0x453 SWAP1 PUSH2 0x1536 JUMP JUMPDEST PUSH2 0xA9D PUSH2 0x1121 JUMP JUMPDEST POP PUSH1 0x1 PUSH1 0x1 PUSH1 0xA0 SHL SUB DUP4 AND PUSH1 0x0 SWAP1 DUP2 MSTORE PUSH1 0x3 PUSH1 0x20 SWAP1 DUP2 MSTORE PUSH1 0x40 SWAP2 DUP3 SWAP1 KECCAK256 DUP3 MLOAD DUP1 DUP5 ADD SWAP1 SWAP4 MSTORE SLOAD PUSH1 0x1 PUSH1 0x1 PUSH1 0x80 SHL SUB DUP1 DUP3 AND DUP5 MSTORE PUSH1 0x1 PUSH1 0x80 SHL SWAP1 SWAP2 DIV AND SWAP1 DUP3 ADD MSTORE PUSH2 0xAE6 DUP4 PUSH2 0xE28 JUMP JUMPDEST DUP3 MLOAD PUSH1 0x1 PUSH1 0x1 PUSH1 0xA0 SHL SUB DUP8 AND PUSH1 0x0 SWAP1 DUP2 MSTORE PUSH1 0x3 PUSH1 0x20 MSTORE PUSH1 0x40 SWAP1 KECCAK256 DUP1 SLOAD PUSH1 0x1 PUSH1 0x1 PUSH1 0x80 SHL SUB NOT AND SWAP3 SWAP1 SWAP2 SUB PUSH1 0x1 PUSH1 0x1 PUSH1 0x80 SHL SUB AND SWAP2 SWAP1 SWAP2 OR SWAP1 SSTORE PUSH2 0xB28 DUP4 PUSH2 0xE28 JUMP JUMPDEST SWAP1 MLOAD PUSH1 0x1 PUSH1 0x1 PUSH1 0xA0 SHL SUB DUP6 AND PUSH1 0x0 SWAP1 DUP2 MSTORE PUSH1 0x3 PUSH1 0x20 MSTORE PUSH1 0x40 SWAP1 KECCAK256 DUP1 SLOAD PUSH1 0x1 PUSH1 0x1 PUSH1 0x80 SHL SUB NOT AND SWAP2 SWAP1 SWAP3 ADD PUSH1 0x1 PUSH1 0x1 PUSH1 0x80 SHL SUB AND OR SWAP1 SSTORE JUMPDEST DUP3 PUSH1 0x1 PUSH1 0x1 PUSH1 0xA0 SHL SUB AND DUP5 PUSH1 0x1 PUSH1 0x1 PUSH1 0xA0 SHL SUB AND PUSH32 0xDDF252AD1BE2C89B69C2B068FC378DAA952BA7F163C4A11628F55A4DF523B3EF DUP5 PUSH1 0x40 MLOAD PUSH2 0xBA2 SWAP2 SWAP1 PUSH2 0x1371 JUMP JUMPDEST PUSH1 0x40 MLOAD DUP1 SWAP2 SUB SWAP1 LOG3 POP POP POP POP JUMP JUMPDEST PUSH1 0x0 CHAINID PUSH32 0x0 DUP2 EQ PUSH2 0xBE8 JUMPI PUSH2 0xBE3 DUP2 PUSH2 0xFC5 JUMP JUMPDEST PUSH2 0xC0A JUMP JUMPDEST PUSH32 0x0 JUMPDEST SWAP2 POP POP SWAP1 JUMP JUMPDEST PUSH1 0x1 PUSH1 0x1 PUSH1 0xA0 SHL SUB DUP3 AND PUSH2 0xC36 JUMPI PUSH1 0x40 MLOAD PUSH3 0x461BCD PUSH1 0xE5 SHL DUP2 MSTORE PUSH1 0x4 ADD PUSH2 0x453 SWAP1 PUSH2 0x1536 JUMP JUMPDEST PUSH2 0xC3E PUSH2 0x1121 JUMP JUMPDEST POP PUSH1 0x1 PUSH1 0x1 PUSH1 0xA0 SHL SUB DUP4 AND PUSH1 0x0 SWAP1 DUP2 MSTORE PUSH1 0x3 PUSH1 0x20 SWAP1 DUP2 MSTORE PUSH1 0x40 SWAP2 DUP3 SWAP1 KECCAK256 DUP3 MLOAD DUP1 DUP5 ADD SWAP1 SWAP4 MSTORE SLOAD PUSH1 0x1 PUSH1 0x1 PUSH1 0x80 SHL SUB DUP1 DUP3 AND DUP5 MSTORE PUSH1 0x1 PUSH1 0x80 SHL SWAP1 SWAP2 DIV AND SWAP1 DUP3 ADD DUP2 SWAP1 MSTORE TIMESTAMP LT ISZERO PUSH2 0xC9F JUMPI PUSH1 0x40 MLOAD PUSH3 0x461BCD PUSH1 0xE5 SHL DUP2 MSTORE PUSH1 0x4 ADD PUSH2 0x453 SWAP1 PUSH2 0x144D JUMP JUMPDEST PUSH1 0x0 DUP1 SLOAD PUSH1 0x40 MLOAD PUSH4 0x70A08231 PUSH1 0xE0 SHL DUP2 MSTORE PUSH1 0x1 PUSH1 0x1 PUSH1 0xA0 SHL SUB PUSH32 0x0 AND SWAP1 PUSH4 0x70A08231 SWAP1 PUSH2 0xCEF SWAP1 ADDRESS SWAP1 PUSH1 0x4 ADD PUSH2 0x1315 JUMP JUMPDEST PUSH1 0x20 PUSH1 0x40 MLOAD DUP1 DUP4 SUB DUP2 DUP7 DUP1 EXTCODESIZE ISZERO DUP1 ISZERO PUSH2 0xD07 JUMPI PUSH1 0x0 DUP1 REVERT JUMPDEST POP GAS STATICCALL ISZERO DUP1 ISZERO PUSH2 0xD1B JUMPI RETURNDATASIZE PUSH1 0x0 DUP1 RETURNDATACOPY RETURNDATASIZE PUSH1 0x0 REVERT JUMPDEST POP POP POP POP PUSH1 0x40 MLOAD RETURNDATASIZE PUSH1 0x1F NOT PUSH1 0x1F DUP3 ADD AND DUP3 ADD DUP1 PUSH1 0x40 MSTORE POP DUP2 ADD SWAP1 PUSH2 0xD3F SWAP2 SWAP1 PUSH2 0x12BA JUMP JUMPDEST DUP5 MUL DUP2 PUSH2 0xD48 JUMPI INVALID JUMPDEST DIV SWAP1 POP PUSH2 0xD68 PUSH2 0xD57 DUP5 PUSH2 0xE28 JUMP JUMPDEST DUP4 MLOAD PUSH1 0x1 PUSH1 0x1 PUSH1 0x80 SHL SUB AND SWAP1 PUSH2 0xFFC JUMP JUMPDEST PUSH1 0x1 PUSH1 0x1 PUSH1 0xA0 SHL SUB DUP7 DUP2 AND PUSH1 0x0 SWAP1 DUP2 MSTORE PUSH1 0x3 PUSH1 0x20 MSTORE PUSH1 0x40 DUP2 KECCAK256 DUP1 SLOAD PUSH1 0x1 PUSH1 0x1 PUSH1 0x80 SHL SUB NOT AND PUSH1 0x1 PUSH1 0x1 PUSH1 0x80 SHL SUB SWAP5 SWAP1 SWAP5 AND SWAP4 SWAP1 SWAP4 OR SWAP1 SWAP3 SSTORE DUP2 SLOAD DUP6 SWAP1 SUB SWAP1 SWAP2 SSTORE PUSH2 0xDD5 SWAP1 PUSH32 0x0 AND DUP6 DUP4 PUSH2 0x102B JUMP JUMPDEST PUSH1 0x0 PUSH1 0x1 PUSH1 0x1 PUSH1 0xA0 SHL SUB AND DUP6 PUSH1 0x1 PUSH1 0x1 PUSH1 0xA0 SHL SUB AND PUSH32 0xDDF252AD1BE2C89B69C2B068FC378DAA952BA7F163C4A11628F55A4DF523B3EF DUP6 PUSH1 0x40 MLOAD PUSH2 0xE19 SWAP2 SWAP1 PUSH2 0x1371 JUMP JUMPDEST PUSH1 0x40 MLOAD DUP1 SWAP2 SUB SWAP1 LOG3 POP POP POP POP POP JUMP JUMPDEST PUSH1 0x0 PUSH1 0x1 PUSH1 0x1 PUSH1 0x80 SHL SUB DUP3 GT ISZERO PUSH2 0xE51 JUMPI PUSH1 0x40 MLOAD PUSH3 0x461BCD PUSH1 0xE5 SHL DUP2 MSTORE PUSH1 0x4 ADD PUSH2 0x453 SWAP1 PUSH2 0x155C JUMP JUMPDEST POP SWAP1 JUMP JUMPDEST PUSH1 0x0 PUSH1 0x60 DUP6 PUSH1 0x1 PUSH1 0x1 PUSH1 0xA0 SHL SUB AND PUSH4 0x23B872DD PUSH1 0xE0 SHL DUP7 DUP7 DUP7 PUSH1 0x40 MLOAD PUSH1 0x24 ADD PUSH2 0xE80 SWAP4 SWAP3 SWAP2 SWAP1 PUSH2 0x1329 JUMP JUMPDEST PUSH1 0x40 DUP1 MLOAD PUSH1 0x1F NOT DUP2 DUP5 SUB ADD DUP2 MSTORE SWAP2 DUP2 MSTORE PUSH1 0x20 DUP3 ADD DUP1 MLOAD PUSH1 0x1 PUSH1 0x1 PUSH1 0xE0 SHL SUB AND PUSH1 0x1 PUSH1 0x1 PUSH1 0xE0 SHL SUB NOT SWAP1 SWAP5 AND SWAP4 SWAP1 SWAP4 OR SWAP1 SWAP3 MSTORE SWAP1 MLOAD PUSH2 0xEBE SWAP2 SWAP1 PUSH2 0x12D2 JUMP JUMPDEST PUSH1 0x0 PUSH1 0x40 MLOAD DUP1 DUP4 SUB DUP2 PUSH1 0x0 DUP7 GAS CALL SWAP2 POP POP RETURNDATASIZE DUP1 PUSH1 0x0 DUP2 EQ PUSH2 0xEFB JUMPI PUSH1 0x40 MLOAD SWAP2 POP PUSH1 0x1F NOT PUSH1 0x3F RETURNDATASIZE ADD AND DUP3 ADD PUSH1 0x40 MSTORE RETURNDATASIZE DUP3 MSTORE RETURNDATASIZE PUSH1 0x0 PUSH1 0x20 DUP5 ADD RETURNDATACOPY PUSH2 0xF00 JUMP JUMPDEST PUSH1 0x60 SWAP2 POP JUMPDEST POP SWAP2 POP SWAP2 POP DUP2 DUP1 ISZERO PUSH2 0xF2A JUMPI POP DUP1 MLOAD ISZERO DUP1 PUSH2 0xF2A JUMPI POP DUP1 DUP1 PUSH1 0x20 ADD SWAP1 MLOAD DUP2 ADD SWAP1 PUSH2 0xF2A SWAP2 SWAP1 PUSH2 0x1282 JUMP JUMPDEST PUSH2 0xF46 JUMPI PUSH1 0x40 MLOAD PUSH3 0x461BCD PUSH1 0xE5 SHL DUP2 MSTORE PUSH1 0x4 ADD PUSH2 0x453 SWAP1 PUSH2 0x15ED JUMP JUMPDEST POP POP POP POP POP POP JUMP JUMPDEST PUSH1 0x0 PUSH1 0x40 MLOAD DUP1 PUSH1 0x40 ADD PUSH1 0x40 MSTORE DUP1 PUSH1 0x2 DUP2 MSTORE PUSH1 0x20 ADD PUSH2 0x1901 PUSH1 0xF0 SHL DUP2 MSTORE POP PUSH2 0xF73 PUSH2 0xBB0 JUMP JUMPDEST DUP4 PUSH1 0x40 MLOAD PUSH1 0x20 ADD PUSH2 0xF86 SWAP4 SWAP3 SWAP2 SWAP1 PUSH2 0x12EE JUMP JUMPDEST PUSH1 0x40 MLOAD PUSH1 0x20 DUP2 DUP4 SUB SUB DUP2 MSTORE SWAP1 PUSH1 0x40 MSTORE DUP1 MLOAD SWAP1 PUSH1 0x20 ADD KECCAK256 SWAP1 POP SWAP2 SWAP1 POP JUMP JUMPDEST PUSH1 0x2 DUP1 SLOAD PUSH1 0x1 PUSH1 0x1 PUSH1 0xA0 SHL SUB NOT AND PUSH1 0x1 PUSH1 0x1 PUSH1 0xA0 SHL SUB SWAP3 SWAP1 SWAP3 AND SWAP2 SWAP1 SWAP2 OR SWAP1 SSTORE JUMP JUMPDEST PUSH1 0x0 PUSH32 0x47E79534A245952E8B16893A336B85A3D9EA9FA8C573F3D803AFB92A79469218 DUP3 ADDRESS PUSH1 0x40 MLOAD PUSH1 0x20 ADD PUSH2 0xF86 SWAP4 SWAP3 SWAP2 SWAP1 PUSH2 0x13AE JUMP JUMPDEST DUP1 DUP3 SUB PUSH1 0x1 PUSH1 0x1 PUSH1 0x80 SHL SUB DUP1 DUP5 AND SWAP1 DUP3 AND GT ISZERO PUSH2 0x372 JUMPI PUSH1 0x40 MLOAD PUSH3 0x461BCD PUSH1 0xE5 SHL DUP2 MSTORE PUSH1 0x4 ADD PUSH2 0x453 SWAP1 PUSH2 0x141E JUMP JUMPDEST PUSH1 0x0 PUSH1 0x60 DUP5 PUSH1 0x1 PUSH1 0x1 PUSH1 0xA0 SHL SUB AND PUSH4 0xA9059CBB PUSH1 0xE0 SHL DUP6 DUP6 PUSH1 0x40 MLOAD PUSH1 0x24 ADD PUSH2 0x1054 SWAP3 SWAP2 SWAP1 PUSH2 0x134D JUMP JUMPDEST PUSH1 0x40 DUP1 MLOAD PUSH1 0x1F NOT DUP2 DUP5 SUB ADD DUP2 MSTORE SWAP2 DUP2 MSTORE PUSH1 0x20 DUP3 ADD DUP1 MLOAD PUSH1 0x1 PUSH1 0x1 PUSH1 0xE0 SHL SUB AND PUSH1 0x1 PUSH1 0x1 PUSH1 0xE0 SHL SUB NOT SWAP1 SWAP5 AND SWAP4 SWAP1 SWAP4 OR SWAP1 SWAP3 MSTORE SWAP1 MLOAD PUSH2 0x1092 SWAP2 SWAP1 PUSH2 0x12D2 JUMP JUMPDEST PUSH1 0x0 PUSH1 0x40 MLOAD DUP1 DUP4 SUB DUP2 PUSH1 0x0 DUP7 GAS CALL SWAP2 POP POP RETURNDATASIZE DUP1 PUSH1 0x0 DUP2 EQ PUSH2 0x10CF JUMPI PUSH1 0x40 MLOAD SWAP2 POP PUSH1 0x1F NOT PUSH1 0x3F RETURNDATASIZE ADD AND DUP3 ADD PUSH1 0x40 MSTORE RETURNDATASIZE DUP3 MSTORE RETURNDATASIZE PUSH1 0x0 PUSH1 0x20 DUP5 ADD RETURNDATACOPY PUSH2 0x10D4 JUMP JUMPDEST PUSH1 0x60 SWAP2 POP JUMPDEST POP SWAP2 POP SWAP2 POP DUP2 DUP1 ISZERO PUSH2 0x10FE JUMPI POP DUP1 MLOAD ISZERO DUP1 PUSH2 0x10FE JUMPI POP DUP1 DUP1 PUSH1 0x20 ADD SWAP1 MLOAD DUP2 ADD SWAP1 PUSH2 0x10FE SWAP2 SWAP1 PUSH2 0x1282 JUMP JUMPDEST PUSH2 0x111A JUMPI PUSH1 0x40 MLOAD PUSH3 0x461BCD PUSH1 0xE5 SHL DUP2 MSTORE PUSH1 0x4 ADD PUSH2 0x453 SWAP1 PUSH2 0x146D JUMP JUMPDEST POP POP POP POP POP JUMP JUMPDEST PUSH1 0x40 DUP1 MLOAD DUP1 DUP3 ADD SWAP1 SWAP2 MSTORE PUSH1 0x0 DUP1 DUP3 MSTORE PUSH1 0x20 DUP3 ADD MSTORE SWAP1 JUMP JUMPDEST DUP1 CALLDATALOAD PUSH1 0x1 PUSH1 0x1 PUSH1 0xA0 SHL SUB DUP2 AND DUP2 EQ PUSH2 0x372 JUMPI PUSH1 0x0 DUP1 REVERT JUMPDEST PUSH1 0x0 PUSH1 0x20 DUP3 DUP5 SUB SLT ISZERO PUSH2 0x1160 JUMPI DUP1 DUP2 REVERT JUMPDEST PUSH2 0x116A DUP4 DUP4 PUSH2 0x1138 JUMP JUMPDEST SWAP4 SWAP3 POP POP POP JUMP JUMPDEST PUSH1 0x0 DUP1 PUSH1 0x40 DUP4 DUP6 SUB SLT ISZERO PUSH2 0x1183 JUMPI DUP1 DUP2 REVERT JUMPDEST PUSH2 0x118D DUP5 DUP5 PUSH2 0x1138 JUMP JUMPDEST SWAP2 POP PUSH2 0x119C DUP5 PUSH1 0x20 DUP6 ADD PUSH2 0x1138 JUMP JUMPDEST SWAP1 POP SWAP3 POP SWAP3 SWAP1 POP JUMP JUMPDEST PUSH1 0x0 DUP1 PUSH1 0x0 PUSH1 0x60 DUP5 DUP7 SUB SLT ISZERO PUSH2 0x11B9 JUMPI DUP1 DUP2 REVERT JUMPDEST DUP4 CALLDATALOAD PUSH2 0x11C4 DUP2 PUSH2 0x16BF JUMP JUMPDEST SWAP3 POP PUSH1 0x20 DUP5 ADD CALLDATALOAD PUSH2 0x11D4 DUP2 PUSH2 0x16BF JUMP JUMPDEST SWAP3 SWAP6 SWAP3 SWAP5 POP POP POP PUSH1 0x40 SWAP2 SWAP1 SWAP2 ADD CALLDATALOAD SWAP1 JUMP JUMPDEST PUSH1 0x0 DUP1 PUSH1 0x0 DUP1 PUSH1 0x0 DUP1 PUSH1 0x0 PUSH1 0xE0 DUP9 DUP11 SUB SLT ISZERO PUSH2 0x11FF JUMPI DUP3 DUP4 REVERT JUMPDEST PUSH2 0x1209 DUP10 DUP10 PUSH2 0x1138 JUMP JUMPDEST SWAP7 POP PUSH2 0x1218 DUP10 PUSH1 0x20 DUP11 ADD PUSH2 0x1138 JUMP JUMPDEST SWAP6 POP PUSH1 0x40 DUP9 ADD CALLDATALOAD SWAP5 POP PUSH1 0x60 DUP9 ADD CALLDATALOAD SWAP4 POP PUSH1 0x80 DUP9 ADD CALLDATALOAD PUSH1 0xFF DUP2 AND DUP2 EQ PUSH2 0x123B JUMPI DUP4 DUP5 REVERT JUMPDEST SWAP7 SWAP10 SWAP6 SWAP9 POP SWAP4 SWAP7 SWAP3 SWAP6 SWAP5 PUSH1 0xA0 DUP5 ADD CALLDATALOAD SWAP5 POP PUSH1 0xC0 SWAP1 SWAP4 ADD CALLDATALOAD SWAP3 SWAP2 POP POP JUMP JUMPDEST PUSH1 0x0 DUP1 PUSH1 0x40 DUP4 DUP6 SUB SLT ISZERO PUSH2 0x126A JUMPI DUP2 DUP3 REVERT JUMPDEST PUSH2 0x1274 DUP5 DUP5 PUSH2 0x1138 JUMP JUMPDEST SWAP5 PUSH1 0x20 SWAP4 SWAP1 SWAP4 ADD CALLDATALOAD SWAP4 POP POP POP JUMP JUMPDEST PUSH1 0x0 PUSH1 0x20 DUP3 DUP5 SUB SLT ISZERO PUSH2 0x1293 JUMPI DUP1 DUP2 REVERT JUMPDEST DUP2 MLOAD DUP1 ISZERO ISZERO DUP2 EQ PUSH2 0x116A JUMPI DUP2 DUP3 REVERT JUMPDEST PUSH1 0x0 PUSH1 0x20 DUP3 DUP5 SUB SLT ISZERO PUSH2 0x12B3 JUMPI DUP1 DUP2 REVERT JUMPDEST POP CALLDATALOAD SWAP2 SWAP1 POP JUMP JUMPDEST PUSH1 0x0 PUSH1 0x20 DUP3 DUP5 SUB SLT ISZERO PUSH2 0x12CB JUMPI DUP1 DUP2 REVERT JUMPDEST POP MLOAD SWAP2 SWAP1 POP JUMP JUMPDEST PUSH1 0x0 DUP3 MLOAD PUSH2 0x12E4 DUP2 DUP5 PUSH1 0x20 DUP8 ADD PUSH2 0x168F JUMP JUMPDEST SWAP2 SWAP1 SWAP2 ADD SWAP3 SWAP2 POP POP JUMP JUMPDEST PUSH1 0x0 DUP5 MLOAD PUSH2 0x1300 DUP2 DUP5 PUSH1 0x20 DUP10 ADD PUSH2 0x168F JUMP JUMPDEST SWAP2 SWAP1 SWAP2 ADD SWAP3 DUP4 MSTORE POP PUSH1 0x20 DUP3 ADD MSTORE PUSH1 0x40 ADD SWAP2 SWAP1 POP JUMP JUMPDEST PUSH1 0x1 PUSH1 0x1 PUSH1 0xA0 SHL SUB SWAP2 SWAP1 SWAP2 AND DUP2 MSTORE PUSH1 0x20 ADD SWAP1 JUMP JUMPDEST PUSH1 0x1 PUSH1 0x1 PUSH1 0xA0 SHL SUB SWAP4 DUP5 AND DUP2 MSTORE SWAP2 SWAP1 SWAP3 AND PUSH1 0x20 DUP3 ADD MSTORE PUSH1 0x40 DUP2 ADD SWAP2 SWAP1 SWAP2 MSTORE PUSH1 0x60 ADD SWAP1 JUMP JUMPDEST PUSH1 0x1 PUSH1 0x1 PUSH1 0xA0 SHL SUB SWAP3 SWAP1 SWAP3 AND DUP3 MSTORE PUSH1 0x20 DUP3 ADD MSTORE PUSH1 0x40 ADD SWAP1 JUMP JUMPDEST SWAP1 ISZERO ISZERO DUP2 MSTORE PUSH1 0x20 ADD SWAP1 JUMP JUMPDEST SWAP1 DUP2 MSTORE PUSH1 0x20 ADD SWAP1 JUMP JUMPDEST SWAP6 DUP7 MSTORE PUSH1 0x1 PUSH1 0x1 PUSH1 0xA0 SHL SUB SWAP5 DUP6 AND PUSH1 0x20 DUP8 ADD MSTORE SWAP3 SWAP1 SWAP4 AND PUSH1 0x40 DUP6 ADD MSTORE PUSH1 0x60 DUP5 ADD MSTORE PUSH1 0x80 DUP4 ADD SWAP2 SWAP1 SWAP2 MSTORE PUSH1 0xA0 DUP3 ADD MSTORE PUSH1 0xC0 ADD SWAP1 JUMP JUMPDEST SWAP3 DUP4 MSTORE PUSH1 0x20 DUP4 ADD SWAP2 SWAP1 SWAP2 MSTORE PUSH1 0x1 PUSH1 0x1 PUSH1 0xA0 SHL SUB AND PUSH1 0x40 DUP3 ADD MSTORE PUSH1 0x60 ADD SWAP1 JUMP JUMPDEST SWAP4 DUP5 MSTORE PUSH1 0xFF SWAP3 SWAP1 SWAP3 AND PUSH1 0x20 DUP5 ADD MSTORE PUSH1 0x40 DUP4 ADD MSTORE PUSH1 0x60 DUP3 ADD MSTORE PUSH1 0x80 ADD SWAP1 JUMP JUMPDEST PUSH1 0x0 PUSH1 0x20 DUP3 MSTORE DUP3 MLOAD DUP1 PUSH1 0x20 DUP5 ADD MSTORE PUSH2 0x140A DUP2 PUSH1 0x40 DUP6 ADD PUSH1 0x20 DUP8 ADD PUSH2 0x168F JUMP JUMPDEST PUSH1 0x1F ADD PUSH1 0x1F NOT AND SWAP2 SWAP1 SWAP2 ADD PUSH1 0x40 ADD SWAP3 SWAP2 POP POP JUMP JUMPDEST PUSH1 0x20 DUP1 DUP3 MSTORE PUSH1 0x15 SWAP1 DUP3 ADD MSTORE PUSH21 0x426F72696E674D6174683A20556E646572666C6F77 PUSH1 0x58 SHL PUSH1 0x40 DUP3 ADD MSTORE PUSH1 0x60 ADD SWAP1 JUMP JUMPDEST PUSH1 0x20 DUP1 DUP3 MSTORE PUSH1 0x6 SWAP1 DUP3 ADD MSTORE PUSH6 0x131BD8DAD959 PUSH1 0xD2 SHL PUSH1 0x40 DUP3 ADD MSTORE PUSH1 0x60 ADD SWAP1 JUMP JUMPDEST PUSH1 0x20 DUP1 DUP3 MSTORE PUSH1 0x1C SWAP1 DUP3 ADD MSTORE PUSH32 0x426F72696E6745524332303A205472616E73666572206661696C656400000000 PUSH1 0x40 DUP3 ADD MSTORE PUSH1 0x60 ADD SWAP1 JUMP JUMPDEST PUSH1 0x20 DUP1 DUP3 MSTORE PUSH1 0x26 SWAP1 DUP3 ADD MSTORE PUSH32 0x4F776E61626C653A206E6577206F776E657220697320746865207A65726F2061 PUSH1 0x40 DUP3 ADD MSTORE PUSH6 0x646472657373 PUSH1 0xD0 SHL PUSH1 0x60 DUP3 ADD MSTORE PUSH1 0x80 ADD SWAP1 JUMP JUMPDEST PUSH1 0x20 DUP1 DUP3 MSTORE PUSH1 0xD SWAP1 DUP3 ADD MSTORE PUSH13 0x4C6F7720616C6C6F77616E6365 PUSH1 0x98 SHL PUSH1 0x40 DUP3 ADD MSTORE PUSH1 0x60 ADD SWAP1 JUMP JUMPDEST PUSH1 0x20 DUP1 DUP3 MSTORE PUSH1 0xB SWAP1 DUP3 ADD MSTORE PUSH11 0x4C6F772062616C616E6365 PUSH1 0xA8 SHL PUSH1 0x40 DUP3 ADD MSTORE PUSH1 0x60 ADD SWAP1 JUMP JUMPDEST PUSH1 0x20 DUP1 DUP3 MSTORE PUSH1 0xC SWAP1 DUP3 ADD MSTORE PUSH12 0x5A65726F2061646472657373 PUSH1 0xA0 SHL PUSH1 0x40 DUP3 ADD MSTORE PUSH1 0x60 ADD SWAP1 JUMP JUMPDEST PUSH1 0x20 DUP1 DUP3 MSTORE PUSH1 0x1C SWAP1 DUP3 ADD MSTORE PUSH32 0x426F72696E674D6174683A2075696E74313238204F766572666C6F7700000000 PUSH1 0x40 DUP3 ADD MSTORE PUSH1 0x60 ADD SWAP1 JUMP JUMPDEST PUSH1 0x20 DUP1 DUP3 MSTORE DUP2 DUP2 ADD MSTORE PUSH32 0x4F776E61626C653A2063616C6C6572206973206E6F7420746865206F776E6572 PUSH1 0x40 DUP3 ADD MSTORE PUSH1 0x60 ADD SWAP1 JUMP JUMPDEST PUSH1 0x20 DUP1 DUP3 MSTORE PUSH1 0xB SWAP1 DUP3 ADD MSTORE PUSH11 0x496E76616C696420536967 PUSH1 0xA8 SHL PUSH1 0x40 DUP3 ADD MSTORE PUSH1 0x60 ADD SWAP1 JUMP JUMPDEST PUSH1 0x20 DUP1 DUP3 MSTORE DUP2 DUP2 ADD MSTORE PUSH32 0x426F72696E6745524332303A205472616E7366657246726F6D206661696C6564 PUSH1 0x40 DUP3 ADD MSTORE PUSH1 0x60 ADD SWAP1 JUMP JUMPDEST PUSH1 0x20 DUP1 DUP3 MSTORE PUSH1 0xA SWAP1 DUP3 ADD MSTORE PUSH10 0x2D32B9379037BBB732B9 PUSH1 0xB1 SHL PUSH1 0x40 DUP3 ADD MSTORE PUSH1 0x60 ADD SWAP1 JUMP JUMPDEST PUSH1 0x20 DUP1 DUP3 MSTORE PUSH1 0x7 SWAP1 DUP3 ADD MSTORE PUSH7 0x115E1C1A5C9959 PUSH1 0xCA SHL PUSH1 0x40 DUP3 ADD MSTORE PUSH1 0x60 ADD SWAP1 JUMP JUMPDEST PUSH1 0x1 PUSH1 0x1 PUSH1 0x80 SHL SUB SWAP3 DUP4 AND DUP2 MSTORE SWAP2 AND PUSH1 0x20 DUP3 ADD MSTORE PUSH1 0x40 ADD SWAP1 JUMP JUMPDEST PUSH1 0xFF SWAP2 SWAP1 SWAP2 AND DUP2 MSTORE PUSH1 0x20 ADD SWAP1 JUMP JUMPDEST PUSH1 0x0 JUMPDEST DUP4 DUP2 LT ISZERO PUSH2 0x16AA JUMPI DUP2 DUP2 ADD MLOAD DUP4 DUP3 ADD MSTORE PUSH1 0x20 ADD PUSH2 0x1692 JUMP JUMPDEST DUP4 DUP2 GT ISZERO PUSH2 0x16B9 JUMPI PUSH1 0x0 DUP5 DUP5 ADD MSTORE JUMPDEST POP POP POP POP JUMP JUMPDEST PUSH1 0x1 PUSH1 0x1 PUSH1 0xA0 SHL SUB DUP2 AND DUP2 EQ PUSH2 0x904 JUMPI PUSH1 0x0 DUP1 REVERT INVALID LOG2 PUSH5 0x6970667358 0x22 SLT KECCAK256 SHR DUP8 0xAC SWAP7 CHAINID SWAP16 0xC9 0x29 INVALID CALLCODE PUSH28 0x2A5AE34DF6261559D99C48322BA4FA17BBB6A0434A64736F6C634300 MOD 0xC STOP CALLER "
				},
				"gasEstimates": {
					"creation": {
						"codeDepositCost": "1179600",
						"executionCost": "infinite",
						"totalCost": "infinite"
					},
					"external": {
						"DOMAIN_SEPARATOR()": "infinite",
						"LOCK_TIME()": "1073",
						"_owner()": "1181",
						"allowance(address,address)": "infinite",
						"approve(address,uint256)": "infinite",
						"balanceOf(address)": "1360",
						"burn(address,uint256)": "infinite",
						"burnFrom(address,address,uint256)": "infinite",
						"decimals()": "352",
						"mint(uint256)": "infinite",
						"name()": "infinite",
						"nonces(address)": "1346",
						"owner()": "1181",
						"permit(address,address,uint256,uint256,uint8,bytes32,bytes32)": "infinite",
						"setLOCK_TIME(uint256)": "21273",
						"symbol()": "infinite",
						"token()": "infinite",
						"totalSupply()": "1096",
						"transfer(address,uint256)": "infinite",
						"transferFrom(address,address,uint256)": "infinite",
						"transferOwnership(address)": "22235",
						"users(address)": "1416"
					},
					"internal": {
						"_burn(address,address,uint256)": "infinite",
						"_transfer(address,address,uint256)": "infinite",
						"_transferOwnership(address)": "20878",
						"_useAllowance(address,uint256)": "infinite"
					}
				},
				"methodIdentifiers": {
					"DOMAIN_SEPARATOR()": "3644e515",
					"LOCK_TIME()": "413d9c3a",
					"_owner()": "b2bdfa7b",
					"allowance(address,address)": "dd62ed3e",
					"approve(address,uint256)": "095ea7b3",
					"balanceOf(address)": "70a08231",
					"burn(address,uint256)": "9dc29fac",
					"burnFrom(address,address,uint256)": "ec60bcf3",
					"decimals()": "313ce567",
					"mint(uint256)": "a0712d68",
					"name()": "06fdde03",
					"nonces(address)": "7ecebe00",
					"owner()": "8da5cb5b",
					"permit(address,address,uint256,uint256,uint8,bytes32,bytes32)": "d505accf",
					"setLOCK_TIME(uint256)": "e3f0dfe7",
					"symbol()": "95d89b41",
					"token()": "fc0c546a",
					"totalSupply()": "18160ddd",
					"transfer(address,uint256)": "a9059cbb",
					"transferFrom(address,address,uint256)": "23b872dd",
					"transferOwnership(address)": "f2fde38b",
					"users(address)": "a87430ba"
				}
			},
			"storageLayout": {
				"storage": [
					{
						"astId": 1331,
						"contract": "contracts/sseaERC20.sol:sSeaERC20",
						"label": "totalSupply",
						"offset": 0,
						"slot": "0",
						"type": "t_uint256"
					},
					{
						"astId": 1334,
						"contract": "contracts/sseaERC20.sol:sSeaERC20",
						"label": "LOCK_TIME",
						"offset": 0,
						"slot": "1",
						"type": "t_uint256"
					},
					{
						"astId": 1336,
						"contract": "contracts/sseaERC20.sol:sSeaERC20",
						"label": "_owner",
						"offset": 0,
						"slot": "2",
						"type": "t_address"
					},
					{
						"astId": 1363,
						"contract": "contracts/sseaERC20.sol:sSeaERC20",
						"label": "users",
						"offset": 0,
						"slot": "3",
						"type": "t_mapping(t_address,t_struct(User)1358_storage)"
					},
					{
						"astId": 1371,
						"contract": "contracts/sseaERC20.sol:sSeaERC20",
						"label": "allowance",
						"offset": 0,
						"slot": "4",
						"type": "t_mapping(t_address,t_mapping(t_address,t_uint256))"
					},
					{
						"astId": 1376,
						"contract": "contracts/sseaERC20.sol:sSeaERC20",
						"label": "nonces",
						"offset": 0,
						"slot": "5",
						"type": "t_mapping(t_address,t_uint256)"
					}
				],
				"types": {
					"t_address": {
						"encoding": "inplace",
						"label": "address",
						"numberOfBytes": "20"
					},
					"t_mapping(t_address,t_mapping(t_address,t_uint256))": {
						"encoding": "mapping",
						"key": "t_address",
						"label": "mapping(address => mapping(address => uint256))",
						"numberOfBytes": "32",
						"value": "t_mapping(t_address,t_uint256)"
					},
					"t_mapping(t_address,t_struct(User)1358_storage)": {
						"encoding": "mapping",
						"key": "t_address",
						"label": "mapping(address => struct sSeaERC20.User)",
						"numberOfBytes": "32",
						"value": "t_struct(User)1358_storage"
					},
					"t_mapping(t_address,t_uint256)": {
						"encoding": "mapping",
						"key": "t_address",
						"label": "mapping(address => uint256)",
						"numberOfBytes": "32",
						"value": "t_uint256"
					},
					"t_struct(User)1358_storage": {
						"encoding": "inplace",
						"label": "struct sSeaERC20.User",
						"members": [
							{
								"astId": 1355,
								"contract": "contracts/sseaERC20.sol:sSeaERC20",
								"label": "balance",
								"offset": 0,
								"slot": "0",
								"type": "t_uint128"
							},
							{
								"astId": 1357,
								"contract": "contracts/sseaERC20.sol:sSeaERC20",
								"label": "lockedUntil",
								"offset": 16,
								"slot": "0",
								"type": "t_uint128"
							}
						],
						"numberOfBytes": "32"
					},
					"t_uint128": {
						"encoding": "inplace",
						"label": "uint128",
						"numberOfBytes": "16"
					},
					"t_uint256": {
						"encoding": "inplace",
						"label": "uint256",
						"numberOfBytes": "32"
					}
				}
			},
			"userdoc": {
				"kind": "user",
				"methods": {
					"allowance(address,address)": {
						"notice": "owner > spender > allowance mapping."
					},
					"approve(address,uint256)": {
						"notice": "Approves `amount` from sender to be spend by `spender`."
					},
					"mint(uint256)": {
						"notice": "math is ok, because amount, totalSupply and shares is always 0 <= amount <= 100.000.000 * 10^18 theoretically you can grow the amount/share ratio, but it's not practical and useless"
					},
					"nonces(address)": {
						"notice": "owner > nonce mapping. Used in `permit`."
					},
					"permit(address,address,uint256,uint256,uint8,bytes32,bytes32)": {
						"notice": "Approves `value` from `owner_` to be spend by `spender`."
					},
					"transfer(address,uint256)": {
						"notice": "Transfers `shares` tokens from `msg.sender` to `to`."
					},
					"transferFrom(address,address,uint256)": {
						"notice": "Transfers `shares` tokens from `from` to `to`. Caller needs approval for `from`."
					},
					"users(address)": {
						"notice": "owner > balance mapping."
					}
				},
				"version": 1
			}
		}
	}
}