{
	"contracts/mirrorseaMain.sol": {
		"mirrorseaMain": {
			"abi": [
				{
					"anonymous": false,
					"inputs": [
						{
							"indexed": true,
							"internalType": "address",
							"name": "previousOwner",
							"type": "address"
						},
						{
							"indexed": true,
							"internalType": "address",
							"name": "newOwner",
							"type": "address"
						}
					],
					"name": "OwnershipTransferred",
					"type": "event"
				},
				{
					"inputs": [],
					"name": "OrderIndex",
					"outputs": [
						{
							"internalType": "uint256",
							"name": "",
							"type": "uint256"
						}
					],
					"stateMutability": "view",
					"type": "function"
				},
				{
					"inputs": [],
					"name": "PRECISION",
					"outputs": [
						{
							"internalType": "uint256",
							"name": "",
							"type": "uint256"
						}
					],
					"stateMutability": "view",
					"type": "function"
				},
				{
					"inputs": [
						{
							"internalType": "uint256",
							"name": "_id",
							"type": "uint256"
						},
						{
							"internalType": "uint256",
							"name": "_timestamp",
							"type": "uint256"
						},
						{
							"internalType": "string",
							"name": "_symbols",
							"type": "string"
						},
						{
							"internalType": "uint256",
							"name": "_price18",
							"type": "uint256"
						},
						{
							"internalType": "bytes",
							"name": "_signature",
							"type": "bytes"
						},
						{
							"internalType": "uint256",
							"name": "_adjustMargin",
							"type": "uint256"
						}
					],
					"name": "adjustPosition",
					"outputs": [
						{
							"internalType": "bool",
							"name": "",
							"type": "bool"
						}
					],
					"stateMutability": "nonpayable",
					"type": "function"
				},
				{
					"inputs": [
						{
							"internalType": "uint256",
							"name": "_id",
							"type": "uint256"
						},
						{
							"internalType": "uint256",
							"name": "_timestamp",
							"type": "uint256"
						},
						{
							"internalType": "string",
							"name": "_symbols",
							"type": "string"
						},
						{
							"internalType": "uint256",
							"name": "_price18",
							"type": "uint256"
						},
						{
							"internalType": "bytes",
							"name": "_signature",
							"type": "bytes"
						}
					],
					"name": "closePosition",
					"outputs": [
						{
							"internalType": "bool",
							"name": "",
							"type": "bool"
						}
					],
					"stateMutability": "nonpayable",
					"type": "function"
				},
				{
					"inputs": [
						{
							"internalType": "address",
							"name": "",
							"type": "address"
						}
					],
					"name": "executor",
					"outputs": [
						{
							"internalType": "bool",
							"name": "",
							"type": "bool"
						}
					],
					"stateMutability": "view",
					"type": "function"
				},
				{
					"inputs": [],
					"name": "feePercent",
					"outputs": [
						{
							"internalType": "uint256",
							"name": "",
							"type": "uint256"
						}
					],
					"stateMutability": "view",
					"type": "function"
				},
				{
					"inputs": [
						{
							"internalType": "uint256",
							"name": "_id",
							"type": "uint256"
						},
						{
							"internalType": "uint256",
							"name": "_timestamp",
							"type": "uint256"
						},
						{
							"internalType": "string",
							"name": "_symbols",
							"type": "string"
						},
						{
							"internalType": "uint256",
							"name": "_price18",
							"type": "uint256"
						},
						{
							"internalType": "bytes",
							"name": "_signature",
							"type": "bytes"
						}
					],
					"name": "forcedLiquidation",
					"outputs": [
						{
							"internalType": "bool",
							"name": "",
							"type": "bool"
						}
					],
					"stateMutability": "nonpayable",
					"type": "function"
				},
				{
					"inputs": [],
					"name": "helperLogic",
					"outputs": [
						{
							"internalType": "contract IhelperLogic",
							"name": "",
							"type": "address"
						}
					],
					"stateMutability": "view",
					"type": "function"
				},
				{
					"inputs": [
						{
							"internalType": "address",
							"name": "_signer",
							"type": "address"
						},
						{
							"internalType": "contract IhelperLogic",
							"name": "_helperLogic",
							"type": "address"
						},
						{
							"internalType": "contract IERC20Upgradeable",
							"name": "_usc",
							"type": "address"
						},
						{
							"internalType": "contract IOracle",
							"name": "_oracle",
							"type": "address"
						}
					],
					"name": "initialize",
					"outputs": [],
					"stateMutability": "nonpayable",
					"type": "function"
				},
				{
					"inputs": [
						{
							"internalType": "uint256[]",
							"name": "_id",
							"type": "uint256[]"
						},
						{
							"internalType": "uint256[]",
							"name": "_timestamp",
							"type": "uint256[]"
						},
						{
							"internalType": "string[]",
							"name": "_symbols",
							"type": "string[]"
						},
						{
							"internalType": "uint256[]",
							"name": "_price18",
							"type": "uint256[]"
						},
						{
							"internalType": "bytes[]",
							"name": "_signature",
							"type": "bytes[]"
						}
					],
					"name": "liquidation",
					"outputs": [
						{
							"internalType": "bool",
							"name": "",
							"type": "bool"
						}
					],
					"stateMutability": "nonpayable",
					"type": "function"
				},
				{
					"inputs": [],
					"name": "minVal",
					"outputs": [
						{
							"internalType": "uint256",
							"name": "",
							"type": "uint256"
						}
					],
					"stateMutability": "view",
					"type": "function"
				},
				{
					"inputs": [
						{
							"internalType": "address",
							"name": "",
							"type": "address"
						},
						{
							"internalType": "uint256",
							"name": "",
							"type": "uint256"
						}
					],
					"name": "myCloseOrderIdList",
					"outputs": [
						{
							"internalType": "uint256",
							"name": "",
							"type": "uint256"
						}
					],
					"stateMutability": "view",
					"type": "function"
				},
				{
					"inputs": [
						{
							"internalType": "address",
							"name": "_user",
							"type": "address"
						}
					],
					"name": "myCloseOrderIdListLength",
					"outputs": [
						{
							"internalType": "uint256",
							"name": "",
							"type": "uint256"
						}
					],
					"stateMutability": "view",
					"type": "function"
				},
				{
					"inputs": [
						{
							"internalType": "address",
							"name": "",
							"type": "address"
						},
						{
							"internalType": "uint256",
							"name": "",
							"type": "uint256"
						}
					],
					"name": "myCloseOrderIdList_index",
					"outputs": [
						{
							"internalType": "uint256",
							"name": "",
							"type": "uint256"
						}
					],
					"stateMutability": "view",
					"type": "function"
				},
				{
					"inputs": [
						{
							"internalType": "address",
							"name": "",
							"type": "address"
						},
						{
							"internalType": "uint256",
							"name": "",
							"type": "uint256"
						}
					],
					"name": "myOpenOrderIdList",
					"outputs": [
						{
							"internalType": "uint256",
							"name": "",
							"type": "uint256"
						}
					],
					"stateMutability": "view",
					"type": "function"
				},
				{
					"inputs": [
						{
							"internalType": "address",
							"name": "_user",
							"type": "address"
						}
					],
					"name": "myOpenOrderIdListLength",
					"outputs": [
						{
							"internalType": "uint256",
							"name": "",
							"type": "uint256"
						}
					],
					"stateMutability": "view",
					"type": "function"
				},
				{
					"inputs": [
						{
							"internalType": "address",
							"name": "",
							"type": "address"
						},
						{
							"internalType": "uint256",
							"name": "",
							"type": "uint256"
						}
					],
					"name": "myOpenOrderIdList_index",
					"outputs": [
						{
							"internalType": "uint256",
							"name": "",
							"type": "uint256"
						}
					],
					"stateMutability": "view",
					"type": "function"
				},
				{
					"inputs": [
						{
							"internalType": "uint256",
							"name": "",
							"type": "uint256"
						}
					],
					"name": "openOrderIdList",
					"outputs": [
						{
							"internalType": "uint256",
							"name": "",
							"type": "uint256"
						}
					],
					"stateMutability": "view",
					"type": "function"
				},
				{
					"inputs": [
						{
							"internalType": "uint256",
							"name": "",
							"type": "uint256"
						}
					],
					"name": "openOrderIdList_index",
					"outputs": [
						{
							"internalType": "uint256",
							"name": "",
							"type": "uint256"
						}
					],
					"stateMutability": "view",
					"type": "function"
				},
				{
					"inputs": [
						{
							"internalType": "uint256",
							"name": "_timestamp",
							"type": "uint256"
						},
						{
							"internalType": "uint256",
							"name": "_direction",
							"type": "uint256"
						},
						{
							"internalType": "uint256",
							"name": "_type",
							"type": "uint256"
						},
						{
							"internalType": "string",
							"name": "_symbols",
							"type": "string"
						},
						{
							"internalType": "uint256",
							"name": "_price18",
							"type": "uint256"
						},
						{
							"internalType": "uint256",
							"name": "_amt",
							"type": "uint256"
						},
						{
							"internalType": "bytes",
							"name": "_signature",
							"type": "bytes"
						}
					],
					"name": "openPosition",
					"outputs": [
						{
							"internalType": "bool",
							"name": "",
							"type": "bool"
						}
					],
					"stateMutability": "nonpayable",
					"type": "function"
				},
				{
					"inputs": [],
					"name": "oracle",
					"outputs": [
						{
							"internalType": "contract IOracle",
							"name": "",
							"type": "address"
						}
					],
					"stateMutability": "view",
					"type": "function"
				},
				{
					"inputs": [
						{
							"internalType": "uint256",
							"name": "_id",
							"type": "uint256"
						}
					],
					"name": "orderInfo",
					"outputs": [
						{
							"components": [
								{
									"internalType": "address",
									"name": "user",
									"type": "address"
								},
								{
									"internalType": "uint256",
									"name": "_type",
									"type": "uint256"
								},
								{
									"internalType": "string",
									"name": "symbols",
									"type": "string"
								},
								{
									"internalType": "uint256",
									"name": "state",
									"type": "uint256"
								},
								{
									"internalType": "uint256",
									"name": "direction",
									"type": "uint256"
								},
								{
									"internalType": "uint256",
									"name": "openPrice18",
									"type": "uint256"
								},
								{
									"internalType": "uint256",
									"name": "openTime",
									"type": "uint256"
								},
								{
									"internalType": "uint256",
									"name": "closePrice18",
									"type": "uint256"
								},
								{
									"internalType": "uint256",
									"name": "closeTime",
									"type": "uint256"
								},
								{
									"internalType": "uint256",
									"name": "amt",
									"type": "uint256"
								},
								{
									"internalType": "uint256",
									"name": "margin",
									"type": "uint256"
								}
							],
							"internalType": "struct mirrorseaMain.OrderInfo",
							"name": "",
							"type": "tuple"
						}
					],
					"stateMutability": "view",
					"type": "function"
				},
				{
					"inputs": [],
					"name": "owner",
					"outputs": [
						{
							"internalType": "address",
							"name": "",
							"type": "address"
						}
					],
					"stateMutability": "view",
					"type": "function"
				},
				{
					"inputs": [
						{
							"internalType": "address",
							"name": "_user",
							"type": "address"
						},
						{
							"internalType": "uint256",
							"name": "_type",
							"type": "uint256"
						},
						{
							"internalType": "uint256",
							"name": "_row",
							"type": "uint256"
						},
						{
							"internalType": "uint256",
							"name": "_page",
							"type": "uint256"
						}
					],
					"name": "pagination",
					"outputs": [
						{
							"internalType": "uint256[]",
							"name": "",
							"type": "uint256[]"
						}
					],
					"stateMutability": "view",
					"type": "function"
				},
				{
					"inputs": [],
					"name": "renounceOwnership",
					"outputs": [],
					"stateMutability": "nonpayable",
					"type": "function"
				},
				{
					"inputs": [
						{
							"internalType": "address",
							"name": "_address",
							"type": "address"
						},
						{
							"internalType": "bool",
							"name": "_type",
							"type": "bool"
						}
					],
					"name": "setExecutor",
					"outputs": [
						{
							"internalType": "bool",
							"name": "",
							"type": "bool"
						}
					],
					"stateMutability": "nonpayable",
					"type": "function"
				},
				{
					"inputs": [
						{
							"internalType": "uint256",
							"name": "_val",
							"type": "uint256"
						}
					],
					"name": "setFeePercent",
					"outputs": [
						{
							"internalType": "bool",
							"name": "",
							"type": "bool"
						}
					],
					"stateMutability": "nonpayable",
					"type": "function"
				},
				{
					"inputs": [
						{
							"internalType": "uint256",
							"name": "id",
							"type": "uint256"
						},
						{
							"internalType": "address",
							"name": "user",
							"type": "address"
						},
						{
							"internalType": "uint256",
							"name": "_type",
							"type": "uint256"
						},
						{
							"internalType": "string",
							"name": "symbols",
							"type": "string"
						},
						{
							"internalType": "uint256",
							"name": "state",
							"type": "uint256"
						},
						{
							"internalType": "uint256",
							"name": "direction",
							"type": "uint256"
						},
						{
							"internalType": "uint256",
							"name": "openPrice18",
							"type": "uint256"
						},
						{
							"internalType": "uint256",
							"name": "openTime",
							"type": "uint256"
						},
						{
							"internalType": "uint256",
							"name": "closePrice18",
							"type": "uint256"
						},
						{
							"internalType": "uint256",
							"name": "closeTime",
							"type": "uint256"
						},
						{
							"internalType": "uint256",
							"name": "amt",
							"type": "uint256"
						},
						{
							"internalType": "uint256",
							"name": "margin",
							"type": "uint256"
						}
					],
					"name": "setOrderInfo",
					"outputs": [
						{
							"internalType": "bool",
							"name": "",
							"type": "bool"
						}
					],
					"stateMutability": "nonpayable",
					"type": "function"
				},
				{
					"inputs": [
						{
							"internalType": "address",
							"name": "_address",
							"type": "address"
						}
					],
					"name": "setSigner",
					"outputs": [
						{
							"internalType": "bool",
							"name": "",
							"type": "bool"
						}
					],
					"stateMutability": "nonpayable",
					"type": "function"
				},
				{
					"inputs": [],
					"name": "signer",
					"outputs": [
						{
							"internalType": "address",
							"name": "",
							"type": "address"
						}
					],
					"stateMutability": "view",
					"type": "function"
				},
				{
					"inputs": [
						{
							"internalType": "address",
							"name": "newOwner",
							"type": "address"
						}
					],
					"name": "transferOwnership",
					"outputs": [],
					"stateMutability": "nonpayable",
					"type": "function"
				},
				{
					"inputs": [],
					"name": "usc",
					"outputs": [
						{
							"internalType": "contract IERC20Upgradeable",
							"name": "",
							"type": "address"
						}
					],
					"stateMutability": "view",
					"type": "function"
				}
			],
			"devdoc": {
				"kind": "dev",
				"methods": {
					"owner()": {
						"details": "Returns the address of the current owner."
					},
					"renounceOwnership()": {
						"details": "Leaves the contract without owner. It will not be possible to call `onlyOwner` functions anymore. Can only be called by the current owner. NOTE: Renouncing ownership will leave the contract without an owner, thereby removing any functionality that is only available to the owner."
					},
					"transferOwnership(address)": {
						"details": "Transfers ownership of the contract to a new account (`newOwner`). Can only be called by the current owner."
					}
				},
				"version": 1
			},
			"evm": {
				"assembly": "    /* \"contracts/mirrorseaMain.sol\":883:14593  contract mirrorseaMain is Initializable, OwnableUpgradeable {... */\n  mstore(0x40, 0x80)\n  callvalue\n  dup1\n  iszero\n  tag_1\n  jumpi\n  0x00\n  dup1\n  revert\ntag_1:\n  pop\n  dataSize(sub_0)\n  dup1\n  dataOffset(sub_0)\n  0x00\n  codecopy\n  0x00\n  return\nstop\n\nsub_0: assembly {\n        /* \"contracts/mirrorseaMain.sol\":883:14593  contract mirrorseaMain is Initializable, OwnableUpgradeable {... */\n      mstore(0x40, 0x80)\n      callvalue\n      dup1\n      iszero\n      tag_1\n      jumpi\n      0x00\n      dup1\n      revert\n    tag_1:\n      pop\n      jumpi(tag_2, lt(calldatasize, 0x04))\n      shr(0xe0, calldataload(0x00))\n      dup1\n      0x7fd6f15c\n      gt\n      tag_35\n      jumpi\n      dup1\n      0xe4e95520\n      gt\n      tag_36\n      jumpi\n      dup1\n      0xf2fde38b\n      gt\n      tag_37\n      jumpi\n      dup1\n      0xf2fde38b\n      eq\n      tag_31\n      jumpi\n      dup1\n      0xf7ab69fd\n      eq\n      tag_32\n      jumpi\n      dup1\n      0xf8c8765e\n      eq\n      tag_33\n      jumpi\n      dup1\n      0xfc234d06\n      eq\n      tag_34\n      jumpi\n      jump(tag_2)\n    tag_37:\n      dup1\n      0xe4e95520\n      eq\n      tag_27\n      jumpi\n      dup1\n      0xec4c4f34\n      eq\n      tag_28\n      jumpi\n      dup1\n      0xf0c765e4\n      eq\n      tag_29\n      jumpi\n      dup1\n      0xf14053ad\n      eq\n      tag_30\n      jumpi\n      jump(tag_2)\n    tag_36:\n      dup1\n      0xa80c3cd3\n      gt\n      tag_38\n      jumpi\n      dup1\n      0xa80c3cd3\n      eq\n      tag_23\n      jumpi\n      dup1\n      0xaaf5eb68\n      eq\n      tag_24\n      jumpi\n      dup1\n      0xaecf77b1\n      eq\n      tag_25\n      jumpi\n      dup1\n      0xc2ec527d\n      eq\n      tag_26\n      jumpi\n      jump(tag_2)\n    tag_38:\n      dup1\n      0x7fd6f15c\n      eq\n      tag_19\n      jumpi\n      dup1\n      0x8da5cb5b\n      eq\n      tag_20\n      jumpi\n      dup1\n      0x99315ccf\n      eq\n      tag_21\n      jumpi\n      dup1\n      0xa17397db\n      eq\n      tag_22\n      jumpi\n      jump(tag_2)\n    tag_35:\n      dup1\n      0x48c7e528\n      gt\n      tag_39\n      jumpi\n      dup1\n      0x715018a6\n      gt\n      tag_40\n      jumpi\n      dup1\n      0x715018a6\n      eq\n      tag_15\n      jumpi\n      dup1\n      0x7be3a1a1\n      eq\n      tag_16\n      jumpi\n      dup1\n      0x7ce3489b\n      eq\n      tag_17\n      jumpi\n      dup1\n      0x7dc0d1d0\n      eq\n      tag_18\n      jumpi\n      jump(tag_2)\n    tag_40:\n      dup1\n      0x48c7e528\n      eq\n      tag_11\n      jumpi\n      dup1\n      0x6ab34a4a\n      eq\n      tag_12\n      jumpi\n      dup1\n      0x6c19e783\n      eq\n      tag_13\n      jumpi\n      dup1\n      0x6dbe9624\n      eq\n      tag_14\n      jumpi\n      jump(tag_2)\n    tag_39:\n      dup1\n      0x238ac933\n      gt\n      tag_41\n      jumpi\n      dup1\n      0x238ac933\n      eq\n      tag_7\n      jumpi\n      dup1\n      0x3011d3d5\n      eq\n      tag_8\n      jumpi\n      dup1\n      0x43b1f3cb\n      eq\n      tag_9\n      jumpi\n      dup1\n      0x475b4fd3\n      eq\n      tag_10\n      jumpi\n      jump(tag_2)\n    tag_41:\n      dup1\n      0x080270a8\n      eq\n      tag_3\n      jumpi\n      dup1\n      0x0f58d242\n      eq\n      tag_4\n      jumpi\n      dup1\n      0x1e1bff3f\n      eq\n      tag_5\n      jumpi\n      dup1\n      0x1e64610c\n      eq\n      tag_6\n      jumpi\n    tag_2:\n      0x00\n      dup1\n      revert\n        /* \"contracts/mirrorseaMain.sol\":4475:5226  function pagination(... */\n    tag_3:\n      tag_42\n      tag_43\n      calldatasize\n      0x04\n      tag_44\n      jump\t// in\n    tag_43:\n      tag_45\n      jump\t// in\n    tag_42:\n      mload(0x40)\n      tag_46\n      swap2\n      swap1\n      tag_47\n      jump\t// in\n    tag_46:\n      mload(0x40)\n      dup1\n      swap2\n      sub\n      swap1\n      return\n        /* \"contracts/mirrorseaMain.sol\":1320:1352  uint256[] public openOrderIdList */\n    tag_4:\n      tag_48\n      tag_49\n      calldatasize\n      0x04\n      tag_50\n      jump\t// in\n    tag_49:\n      tag_51\n      jump\t// in\n    tag_48:\n      mload(0x40)\n      tag_46\n      swap2\n      swap1\n      tag_53\n      jump\t// in\n        /* \"contracts/mirrorseaMain.sol\":2972:3149  function setExecutor(address _address, bool _type)... */\n    tag_5:\n      tag_54\n      tag_55\n      calldatasize\n      0x04\n      tag_56\n      jump\t// in\n    tag_55:\n      tag_57\n      jump\t// in\n    tag_54:\n      mload(0x40)\n      tag_46\n      swap2\n      swap1\n      tag_59\n      jump\t// in\n        /* \"contracts/mirrorseaMain.sol\":1169:1200  IhelperLogic public helperLogic */\n    tag_6:\n      tag_60\n      tag_61\n      jump\t// in\n    tag_60:\n      mload(0x40)\n      tag_46\n      swap2\n      swap1\n      tag_67\n      jump\t// in\n        /* \"contracts/mirrorseaMain.sol\":1108:1129  address public signer */\n    tag_7:\n      tag_60\n      tag_65\n      jump\t// in\n        /* \"contracts/mirrorseaMain.sol\":1135:1163  IERC20Upgradeable public usc */\n    tag_8:\n      tag_60\n      tag_69\n      jump\t// in\n        /* \"contracts/mirrorseaMain.sol\":1358:1414  mapping(uint256 => uint256) public openOrderIdList_index */\n    tag_9:\n      tag_48\n      tag_73\n      calldatasize\n      0x04\n      tag_50\n      jump\t// in\n    tag_73:\n      tag_74\n      jump\t// in\n        /* \"contracts/mirrorseaMain.sol\":5232:6930  function openPosition(... */\n    tag_10:\n      tag_54\n      tag_77\n      calldatasize\n      0x04\n      tag_78\n      jump\t// in\n    tag_77:\n      tag_79\n      jump\t// in\n        /* \"contracts/mirrorseaMain.sol\":1062:1102  mapping(address => bool) public executor */\n    tag_11:\n      tag_54\n      tag_82\n      calldatasize\n      0x04\n      tag_83\n      jump\t// in\n    tag_82:\n      tag_84\n      jump\t// in\n        /* \"contracts/mirrorseaMain.sol\":3576:3688  function orderInfo(uint256 _id) external view returns (OrderInfo memory) {... */\n    tag_12:\n      tag_86\n      tag_87\n      calldatasize\n      0x04\n      tag_50\n      jump\t// in\n    tag_87:\n      tag_88\n      jump\t// in\n    tag_86:\n      mload(0x40)\n      tag_46\n      swap2\n      swap1\n      tag_90\n      jump\t// in\n        /* \"contracts/mirrorseaMain.sol\":3444:3570  function setSigner(address _address) external onlyOwner returns (bool) {... */\n    tag_13:\n      tag_54\n      tag_92\n      calldatasize\n      0x04\n      tag_83\n      jump\t// in\n    tag_92:\n      tag_93\n      jump\t// in\n        /* \"contracts/mirrorseaMain.sol\":11561:12347  function liquidation(... */\n    tag_14:\n      tag_54\n      tag_96\n      calldatasize\n      0x04\n      tag_97\n      jump\t// in\n    tag_96:\n      tag_98\n      jump\t// in\n        /* \"@openzeppelin/contracts-upgradeable/access/OwnableUpgradeable.sol\":1934:2035  function renounceOwnership() public virtual onlyOwner {... */\n    tag_15:\n      tag_100\n      tag_101\n      jump\t// in\n    tag_100:\n      stop\n        /* \"contracts/mirrorseaMain.sol\":1481:1567  mapping(address => mapping(uint256 => uint256))... */\n    tag_16:\n      tag_48\n      tag_103\n      calldatasize\n      0x04\n      tag_104\n      jump\t// in\n    tag_103:\n      tag_105\n      jump\t// in\n        /* \"contracts/mirrorseaMain.sol\":3299:3425  function setFeePercent(uint256 _val) external onlyOwner returns (bool) {... */\n    tag_17:\n      tag_54\n      tag_108\n      calldatasize\n      0x04\n      tag_50\n      jump\t// in\n    tag_108:\n      tag_109\n      jump\t// in\n        /* \"contracts/mirrorseaMain.sol\":1206:1227  IOracle public oracle */\n    tag_18:\n      tag_60\n      tag_112\n      jump\t// in\n        /* \"contracts/mirrorseaMain.sol\":1729:1754  uint256 public feePercent */\n    tag_19:\n      tag_48\n      tag_116\n      jump\t// in\n        /* \"@openzeppelin/contracts-upgradeable/access/OwnableUpgradeable.sol\":1302:1387  function owner() public view virtual returns (address) {... */\n    tag_20:\n      tag_60\n      tag_119\n      jump\t// in\n        /* \"contracts/mirrorseaMain.sol\":13932:14591  function adjustPosition(... */\n    tag_21:\n      tag_54\n      tag_122\n      calldatasize\n      0x04\n      tag_123\n      jump\t// in\n    tag_122:\n      tag_124\n      jump\t// in\n        /* \"contracts/mirrorseaMain.sol\":10588:11123  function closePosition(... */\n    tag_22:\n      tag_54\n      tag_127\n      calldatasize\n      0x04\n      tag_128\n      jump\t// in\n    tag_127:\n      tag_129\n      jump\t// in\n        /* \"contracts/mirrorseaMain.sol\":12353:12849  function forcedLiquidation(... */\n    tag_23:\n      tag_54\n      tag_132\n      calldatasize\n      0x04\n      tag_128\n      jump\t// in\n    tag_132:\n      tag_133\n      jump\t// in\n        /* \"contracts/mirrorseaMain.sol\":1760:1784  uint256 public PRECISION */\n    tag_24:\n      tag_48\n      tag_136\n      jump\t// in\n        /* \"contracts/mirrorseaMain.sol\":2803:2966  function myCloseOrderIdListLength(address _user)... */\n    tag_25:\n      tag_48\n      tag_139\n      calldatasize\n      0x04\n      tag_83\n      jump\t// in\n    tag_139:\n      tag_140\n      jump\t// in\n        /* \"contracts/mirrorseaMain.sol\":1421:1475  mapping(address => uint256[]) public myOpenOrderIdList */\n    tag_26:\n      tag_48\n      tag_143\n      calldatasize\n      0x04\n      tag_104\n      jump\t// in\n    tag_143:\n      tag_144\n      jump\t// in\n        /* \"contracts/mirrorseaMain.sol\":2636:2797  function myOpenOrderIdListLength(address _user)... */\n    tag_27:\n      tag_48\n      tag_147\n      calldatasize\n      0x04\n      tag_83\n      jump\t// in\n    tag_147:\n      tag_148\n      jump\t// in\n        /* \"contracts/mirrorseaMain.sol\":1574:1629  mapping(address => uint256[]) public myCloseOrderIdList */\n    tag_28:\n      tag_48\n      tag_151\n      calldatasize\n      0x04\n      tag_104\n      jump\t// in\n    tag_151:\n      tag_152\n      jump\t// in\n        /* \"contracts/mirrorseaMain.sol\":1635:1722  mapping(address => mapping(uint256 => uint256))... */\n    tag_29:\n      tag_48\n      tag_155\n      calldatasize\n      0x04\n      tag_104\n      jump\t// in\n    tag_155:\n      tag_156\n      jump\t// in\n        /* \"contracts/mirrorseaMain.sol\":1791:1812  uint256 public minVal */\n    tag_30:\n      tag_48\n      tag_159\n      jump\t// in\n        /* \"@openzeppelin/contracts-upgradeable/access/OwnableUpgradeable.sol\":2184:2382  function transferOwnership(address newOwner) public virtual onlyOwner {... */\n    tag_31:\n      tag_100\n      tag_162\n      calldatasize\n      0x04\n      tag_83\n      jump\t// in\n    tag_162:\n      tag_163\n      jump\t// in\n        /* \"contracts/mirrorseaMain.sol\":1288:1313  uint256 public OrderIndex */\n    tag_32:\n      tag_48\n      tag_165\n      jump\t// in\n        /* \"contracts/mirrorseaMain.sol\":2250:2630  function initialize(... */\n    tag_33:\n      tag_100\n      tag_168\n      calldatasize\n      0x04\n      tag_169\n      jump\t// in\n    tag_168:\n      tag_170\n      jump\t// in\n        /* \"contracts/mirrorseaMain.sol\":3694:4469  function setOrderInfo(... */\n    tag_34:\n      tag_54\n      tag_172\n      calldatasize\n      0x04\n      tag_173\n      jump\t// in\n    tag_172:\n      tag_174\n      jump\t// in\n        /* \"contracts/mirrorseaMain.sol\":4475:5226  function pagination(... */\n    tag_45:\n        /* \"contracts/mirrorseaMain.sol\":4615:4631  uint256[] memory */\n      0x60\n        /* \"contracts/mirrorseaMain.sol\":4643:4667  uint256[] memory newList */\n      0x00\n        /* \"contracts/mirrorseaMain.sol\":4684:4689  _page */\n      dup3\n        /* \"contracts/mirrorseaMain.sol\":4670:4690  new uint256[](_page) */\n      0xffffffffffffffff\n      dup2\n      gt\n      iszero\n      tag_177\n      jumpi\n      mstore(0x00, shl(0xe0, 0x4e487b71))\n      mstore(0x04, 0x41)\n      revert(0x00, 0x24)\n    tag_177:\n      mload(0x40)\n      swap1\n      dup1\n      dup3\n      mstore\n      dup1\n      0x20\n      mul\n      0x20\n      add\n      dup3\n      add\n      0x40\n      mstore\n      dup1\n      iszero\n      tag_178\n      jumpi\n      dup2\n      0x20\n      add\n      0x20\n      dup3\n      mul\n      dup1\n      calldatasize\n      dup4\n      calldatacopy\n      add\n      swap1\n      pop\n    tag_178:\n      pop\n        /* \"contracts/mirrorseaMain.sol\":4643:4690  uint256[] memory newList = new uint256[](_page) */\n      swap1\n      pop\n        /* \"contracts/mirrorseaMain.sol\":4700:4713  uint256 index */\n      0x00\n        /* \"contracts/mirrorseaMain.sol\":4727:4749  uint256[] memory _list */\n      0x60\n        /* \"contracts/mirrorseaMain.sol\":4763:4773  _type == 0 */\n      dup7\n        /* \"contracts/mirrorseaMain.sol\":4759:4982  if (_type == 0) {... */\n      tag_179\n      jumpi\n        /* \"contracts/mirrorseaMain.sol\":4797:4812  openOrderIdList */\n      0x6c\n        /* \"contracts/mirrorseaMain.sol\":4789:4812  _list = openOrderIdList */\n      dup1\n      sload\n      dup1\n      0x20\n      mul\n      0x20\n      add\n      mload(0x40)\n      swap1\n      dup2\n      add\n      0x40\n      mstore\n      dup1\n      swap3\n      swap2\n      swap1\n      dup2\n      dup2\n      mstore\n      0x20\n      add\n      dup3\n      dup1\n      sload\n      dup1\n      iszero\n      tag_180\n      jumpi\n      0x20\n      mul\n      dup3\n      add\n      swap2\n      swap1\n      0x00\n      mstore\n      keccak256(0x00, 0x20)\n      swap1\n    tag_181:\n      dup2\n      sload\n      dup2\n      mstore\n      0x20\n      add\n      swap1\n      0x01\n      add\n      swap1\n      dup1\n      dup4\n      gt\n      tag_181\n      jumpi\n    tag_180:\n      pop\n      pop\n      pop\n      pop\n      pop\n      swap1\n      pop\n        /* \"contracts/mirrorseaMain.sol\":4759:4982  if (_type == 0) {... */\n      jump(tag_187)\n    tag_179:\n        /* \"contracts/mirrorseaMain.sol\":4833:4838  _type */\n      dup7\n        /* \"contracts/mirrorseaMain.sol\":4842:4843  1 */\n      0x01\n        /* \"contracts/mirrorseaMain.sol\":4833:4843  _type == 1 */\n      eq\n        /* \"contracts/mirrorseaMain.sol\":4829:4982  if (_type == 1) {... */\n      iszero\n      tag_183\n      jumpi\n      sub(shl(0xa0, 0x01), 0x01)\n        /* \"contracts/mirrorseaMain.sol\":4867:4891  myOpenOrderIdList[_user] */\n      dup9\n      and\n      0x00\n      swap1\n      dup2\n      mstore\n        /* \"contracts/mirrorseaMain.sol\":4867:4884  myOpenOrderIdList */\n      0x6e\n        /* \"contracts/mirrorseaMain.sol\":4867:4891  myOpenOrderIdList[_user] */\n      0x20\n      swap1\n      dup2\n      mstore\n      0x40\n      swap2\n      dup3\n      swap1\n      keccak256\n        /* \"contracts/mirrorseaMain.sol\":4859:4891  _list = myOpenOrderIdList[_user] */\n      dup1\n      sload\n      dup4\n      mload\n      dup2\n      dup5\n      mul\n      dup2\n      add\n      dup5\n      add\n      swap1\n      swap5\n      mstore\n      dup1\n      dup5\n      mstore\n        /* \"contracts/mirrorseaMain.sol\":4867:4891  myOpenOrderIdList[_user] */\n      swap1\n      swap2\n        /* \"contracts/mirrorseaMain.sol\":4859:4891  _list = myOpenOrderIdList[_user] */\n      dup4\n      add\n        /* \"contracts/mirrorseaMain.sol\":4867:4891  myOpenOrderIdList[_user] */\n      dup3\n        /* \"contracts/mirrorseaMain.sol\":4859:4891  _list = myOpenOrderIdList[_user] */\n      dup3\n      dup1\n      iszero\n      tag_180\n      jumpi\n      0x20\n      mul\n      dup3\n      add\n      swap2\n      swap1\n      0x00\n      mstore\n      keccak256(0x00, 0x20)\n      swap1\n      dup2\n      sload\n      dup2\n      mstore\n      0x20\n      add\n      swap1\n      0x01\n      add\n      swap1\n      dup1\n      dup4\n      gt\n      tag_181\n      jumpi\n      pop\n      pop\n      pop\n      pop\n      pop\n      swap1\n      pop\n        /* \"contracts/mirrorseaMain.sol\":4829:4982  if (_type == 1) {... */\n      jump(tag_187)\n    tag_183:\n        /* \"contracts/mirrorseaMain.sol\":4912:4917  _type */\n      dup7\n        /* \"contracts/mirrorseaMain.sol\":4921:4922  2 */\n      0x02\n        /* \"contracts/mirrorseaMain.sol\":4912:4922  _type == 2 */\n      eq\n        /* \"contracts/mirrorseaMain.sol\":4908:4982  if (_type == 2) {... */\n      iszero\n      tag_187\n      jumpi\n      sub(shl(0xa0, 0x01), 0x01)\n        /* \"contracts/mirrorseaMain.sol\":4946:4971  myCloseOrderIdList[_user] */\n      dup9\n      and\n      0x00\n      swap1\n      dup2\n      mstore\n        /* \"contracts/mirrorseaMain.sol\":4946:4964  myCloseOrderIdList */\n      0x70\n        /* \"contracts/mirrorseaMain.sol\":4946:4971  myCloseOrderIdList[_user] */\n      0x20\n      swap1\n      dup2\n      mstore\n      0x40\n      swap2\n      dup3\n      swap1\n      keccak256\n        /* \"contracts/mirrorseaMain.sol\":4938:4971  _list = myCloseOrderIdList[_user] */\n      dup1\n      sload\n      dup4\n      mload\n      dup2\n      dup5\n      mul\n      dup2\n      add\n      dup5\n      add\n      swap1\n      swap5\n      mstore\n      dup1\n      dup5\n      mstore\n        /* \"contracts/mirrorseaMain.sol\":4946:4971  myCloseOrderIdList[_user] */\n      swap1\n      swap2\n        /* \"contracts/mirrorseaMain.sol\":4938:4971  _list = myCloseOrderIdList[_user] */\n      dup4\n      add\n        /* \"contracts/mirrorseaMain.sol\":4946:4971  myCloseOrderIdList[_user] */\n      dup3\n        /* \"contracts/mirrorseaMain.sol\":4938:4971  _list = myCloseOrderIdList[_user] */\n      dup3\n      dup1\n      iszero\n      tag_188\n      jumpi\n      0x20\n      mul\n      dup3\n      add\n      swap2\n      swap1\n      0x00\n      mstore\n      keccak256(0x00, 0x20)\n      swap1\n    tag_189:\n      dup2\n      sload\n      dup2\n      mstore\n      0x20\n      add\n      swap1\n      0x01\n      add\n      swap1\n      dup1\n      dup4\n      gt\n      tag_189\n      jumpi\n    tag_188:\n      pop\n      pop\n      pop\n      pop\n      pop\n      swap1\n      pop\n        /* \"contracts/mirrorseaMain.sol\":4908:4982  if (_type == 2) {... */\n    tag_187:\n        /* \"contracts/mirrorseaMain.sol\":5014:5026  _list.length */\n      dup1\n      mload\n        /* \"contracts/mirrorseaMain.sol\":4999:5011  _row * _page */\n      tag_190\n        /* \"contracts/mirrorseaMain.sol\":5006:5011  _page */\n      dup7\n        /* \"contracts/mirrorseaMain.sol\":4999:5003  _row */\n      dup9\n        /* \"contracts/mirrorseaMain.sol\":4999:5011  _row * _page */\n      tag_191\n      jump\t// in\n    tag_190:\n        /* \"contracts/mirrorseaMain.sol\":4999:5026  _row * _page > _list.length */\n      gt\n        /* \"contracts/mirrorseaMain.sol\":4991:5041  require(_row * _page > _list.length, \"length err\") */\n      tag_192\n      jumpi\n      mload(0x40)\n      shl(0xe5, 0x461bcd)\n      dup2\n      mstore\n      0x04\n      add\n      tag_193\n      swap1\n      tag_194\n      jump\t// in\n    tag_193:\n      mload(0x40)\n      dup1\n      swap2\n      sub\n      swap1\n      revert\n    tag_192:\n        /* \"contracts/mirrorseaMain.sol\":5056:5065  uint256 i */\n      0x00\n        /* \"contracts/mirrorseaMain.sol\":5085:5090  _page */\n      dup6\n        /* \"contracts/mirrorseaMain.sol\":5069:5081  _row * _page */\n      tag_198\n        /* \"contracts/mirrorseaMain.sol\":5085:5090  _page */\n      dup2\n        /* \"contracts/mirrorseaMain.sol\":5069:5073  _row */\n      dup10\n        /* \"contracts/mirrorseaMain.sol\":5069:5081  _row * _page */\n      tag_191\n      jump\t// in\n    tag_198:\n        /* \"contracts/mirrorseaMain.sol\":5068:5090  (_row * _page) - _page */\n      tag_199\n      swap2\n      swap1\n      tag_200\n      jump\t// in\n    tag_199:\n        /* \"contracts/mirrorseaMain.sol\":5056:5090  uint256 i = (_row * _page) - _page */\n      swap1\n      pop\n        /* \"contracts/mirrorseaMain.sol\":5051:5196  for (uint256 i = (_row * _page) - _page; i < _row * _page; i++) {... */\n    tag_195:\n        /* \"contracts/mirrorseaMain.sol\":5096:5108  _row * _page */\n      tag_201\n        /* \"contracts/mirrorseaMain.sol\":5103:5108  _page */\n      dup7\n        /* \"contracts/mirrorseaMain.sol\":5096:5100  _row */\n      dup9\n        /* \"contracts/mirrorseaMain.sol\":5096:5108  _row * _page */\n      tag_191\n      jump\t// in\n    tag_201:\n        /* \"contracts/mirrorseaMain.sol\":5092:5093  i */\n      dup2\n        /* \"contracts/mirrorseaMain.sol\":5092:5108  i < _row * _page */\n      lt\n        /* \"contracts/mirrorseaMain.sol\":5051:5196  for (uint256 i = (_row * _page) - _page; i < _row * _page; i++) {... */\n      iszero\n      tag_196\n      jumpi\n        /* \"contracts/mirrorseaMain.sol\":5146:5151  _list */\n      dup2\n        /* \"contracts/mirrorseaMain.sol\":5152:5153  i */\n      dup2\n        /* \"contracts/mirrorseaMain.sol\":5146:5154  _list[i] */\n      dup2\n      mload\n      dup2\n      lt\n      tag_202\n      jumpi\n      mstore(0x00, shl(0xe0, 0x4e487b71))\n      mstore(0x04, 0x32)\n      revert(0x00, 0x24)\n    tag_202:\n      0x20\n      mul\n      0x20\n      add\n      add\n      mload\n        /* \"contracts/mirrorseaMain.sol\":5129:5136  newList */\n      dup5\n        /* \"contracts/mirrorseaMain.sol\":5137:5142  index */\n      dup5\n        /* \"contracts/mirrorseaMain.sol\":5129:5143  newList[index] */\n      dup2\n      mload\n      dup2\n      lt\n      tag_203\n      jumpi\n      mstore(0x00, shl(0xe0, 0x4e487b71))\n      mstore(0x04, 0x32)\n      revert(0x00, 0x24)\n    tag_203:\n      0x20\n      swap1\n      dup2\n      mul\n      swap2\n      swap1\n      swap2\n      add\n      add\n        /* \"contracts/mirrorseaMain.sol\":5129:5154  newList[index] = _list[i] */\n      mstore\n        /* \"contracts/mirrorseaMain.sol\":5176:5185  index + 1 */\n      tag_204\n        /* \"contracts/mirrorseaMain.sol\":5176:5181  index */\n      dup4\n        /* \"contracts/mirrorseaMain.sol\":5184:5185  1 */\n      0x01\n        /* \"contracts/mirrorseaMain.sol\":5176:5185  index + 1 */\n      tag_205\n      jump\t// in\n    tag_204:\n        /* \"contracts/mirrorseaMain.sol\":5168:5185  index = index + 1 */\n      swap3\n      pop\n        /* \"contracts/mirrorseaMain.sol\":5110:5113  i++ */\n      dup1\n      tag_206\n      dup2\n      tag_207\n      jump\t// in\n    tag_206:\n      swap2\n      pop\n      pop\n        /* \"contracts/mirrorseaMain.sol\":5051:5196  for (uint256 i = (_row * _page) - _page; i < _row * _page; i++) {... */\n      jump(tag_195)\n    tag_196:\n      pop\n        /* \"contracts/mirrorseaMain.sol\":5212:5219  newList */\n      swap2\n      swap8\n        /* \"contracts/mirrorseaMain.sol\":4475:5226  function pagination(... */\n      swap7\n      pop\n      pop\n      pop\n      pop\n      pop\n      pop\n      pop\n      jump\t// out\n        /* \"contracts/mirrorseaMain.sol\":1320:1352  uint256[] public openOrderIdList */\n    tag_51:\n      0x6c\n      dup2\n      dup2\n      sload\n      dup2\n      lt\n      tag_208\n      jumpi\n      0x00\n      dup1\n      revert\n    tag_208:\n      0x00\n      swap2\n      dup3\n      mstore\n      0x20\n      swap1\n      swap2\n      keccak256\n      add\n      sload\n      swap1\n      pop\n      dup2\n      jump\t// out\n        /* \"contracts/mirrorseaMain.sol\":2972:3149  function setExecutor(address _address, bool _type)... */\n    tag_57:\n        /* \"contracts/mirrorseaMain.sol\":3075:3079  bool */\n      0x00\n        /* \"@openzeppelin/contracts-upgradeable/access/OwnableUpgradeable.sol\":1525:1537  _msgSender() */\n      tag_211\n        /* \"@openzeppelin/contracts-upgradeable/access/OwnableUpgradeable.sol\":1525:1535  _msgSender */\n      tag_212\n        /* \"@openzeppelin/contracts-upgradeable/access/OwnableUpgradeable.sol\":1525:1537  _msgSender() */\n      jump\t// in\n    tag_211:\n      sub(shl(0xa0, 0x01), 0x01)\n        /* \"@openzeppelin/contracts-upgradeable/access/OwnableUpgradeable.sol\":1514:1537  owner() == _msgSender() */\n      and\n        /* \"@openzeppelin/contracts-upgradeable/access/OwnableUpgradeable.sol\":1514:1521  owner() */\n      tag_213\n        /* \"@openzeppelin/contracts-upgradeable/access/OwnableUpgradeable.sol\":1514:1519  owner */\n      tag_119\n        /* \"@openzeppelin/contracts-upgradeable/access/OwnableUpgradeable.sol\":1514:1521  owner() */\n      jump\t// in\n    tag_213:\n      sub(shl(0xa0, 0x01), 0x01)\n        /* \"@openzeppelin/contracts-upgradeable/access/OwnableUpgradeable.sol\":1514:1537  owner() == _msgSender() */\n      and\n      eq\n        /* \"@openzeppelin/contracts-upgradeable/access/OwnableUpgradeable.sol\":1506:1574  require(owner() == _msgSender(), \"Ownable: caller is not the owner\") */\n      tag_214\n      jumpi\n      mload(0x40)\n      shl(0xe5, 0x461bcd)\n      dup2\n      mstore\n      0x04\n      add\n      tag_193\n      swap1\n      tag_216\n      jump\t// in\n    tag_214:\n      pop\n      sub(shl(0xa0, 0x01), 0x01)\n        /* \"contracts/mirrorseaMain.sol\":3095:3113  executor[_address] */\n      dup3\n      and\n      0x00\n      swap1\n      dup2\n      mstore\n        /* \"contracts/mirrorseaMain.sol\":3095:3103  executor */\n      0x65\n        /* \"contracts/mirrorseaMain.sol\":3095:3113  executor[_address] */\n      0x20\n      mstore\n      0x40\n      swap1\n      keccak256\n        /* \"contracts/mirrorseaMain.sol\":3095:3121  executor[_address] = _type */\n      dup1\n      sload\n      dup3\n      iszero\n      iszero\n      not(0xff)\n      swap1\n      swap2\n      and\n      or\n      swap1\n      sstore\n      0x01\n        /* \"contracts/mirrorseaMain.sol\":2972:3149  function setExecutor(address _address, bool _type)... */\n      swap3\n      swap2\n      pop\n      pop\n      jump\t// out\n        /* \"contracts/mirrorseaMain.sol\":1169:1200  IhelperLogic public helperLogic */\n    tag_61:\n      and(sub(shl(0xa0, 0x01), 0x01), sload(0x68))\n      dup2\n      jump\t// out\n        /* \"contracts/mirrorseaMain.sol\":1108:1129  address public signer */\n    tag_65:\n      and(sub(shl(0xa0, 0x01), 0x01), sload(0x66))\n      dup2\n      jump\t// out\n        /* \"contracts/mirrorseaMain.sol\":1135:1163  IERC20Upgradeable public usc */\n    tag_69:\n      and(sub(shl(0xa0, 0x01), 0x01), sload(0x67))\n      dup2\n      jump\t// out\n        /* \"contracts/mirrorseaMain.sol\":1358:1414  mapping(uint256 => uint256) public openOrderIdList_index */\n    tag_74:\n      mstore(0x20, 0x6d)\n      0x00\n      swap1\n      dup2\n      mstore\n      0x40\n      swap1\n      keccak256\n      sload\n      dup2\n      jump\t// out\n        /* \"contracts/mirrorseaMain.sol\":5232:6930  function openPosition(... */\n    tag_79:\n        /* \"contracts/mirrorseaMain.sol\":5523:5533  OrderIndex */\n      sload(0x6b)\n        /* \"contracts/mirrorseaMain.sol\":5470:5474  bool */\n      0x00\n        /* \"contracts/mirrorseaMain.sol\":5512:5534  _orderInfo[OrderIndex] */\n      swap1\n      dup2\n      mstore\n        /* \"contracts/mirrorseaMain.sol\":5512:5522  _orderInfo */\n      0x6a\n        /* \"contracts/mirrorseaMain.sol\":5512:5534  _orderInfo[OrderIndex] */\n      0x20\n      mstore\n      0x40\n      dup2\n      keccak256\n        /* \"contracts/mirrorseaMain.sol\":5552:5563  order.state */\n      0x03\n      dup2\n      add\n      sload\n        /* \"contracts/mirrorseaMain.sol\":5552:5568  order.state == 0 */\n      iszero\n        /* \"contracts/mirrorseaMain.sol\":5544:5582  require(order.state == 0, \"state err\") */\n      tag_219\n      jumpi\n      mload(0x40)\n      shl(0xe5, 0x461bcd)\n      dup2\n      mstore\n      0x04\n      add\n      tag_193\n      swap1\n      tag_221\n      jump\t// in\n    tag_219:\n        /* \"contracts/mirrorseaMain.sol\":5613:5619  oracle */\n      sload(0x69)\n        /* \"contracts/mirrorseaMain.sol\":5613:5670  oracle.getkey(_price18, _timestamp, _symbols, _signature) */\n      mload(0x40)\n      shl(0xe0, 0x81952f3b)\n      dup2\n      mstore\n      sub(shl(0xa0, 0x01), 0x01)\n        /* \"contracts/mirrorseaMain.sol\":5613:5619  oracle */\n      swap1\n      swap2\n      and\n      swap1\n        /* \"contracts/mirrorseaMain.sol\":5613:5626  oracle.getkey */\n      0x81952f3b\n      swap1\n        /* \"contracts/mirrorseaMain.sol\":5613:5670  oracle.getkey(_price18, _timestamp, _symbols, _signature) */\n      tag_222\n      swap1\n        /* \"contracts/mirrorseaMain.sol\":5627:5635  _price18 */\n      dup9\n      swap1\n        /* \"contracts/mirrorseaMain.sol\":5637:5647  _timestamp */\n      dup14\n      swap1\n        /* \"contracts/mirrorseaMain.sol\":5649:5657  _symbols */\n      dup12\n      swap1\n        /* \"contracts/mirrorseaMain.sol\":5659:5669  _signature */\n      dup10\n      swap1\n        /* \"contracts/mirrorseaMain.sol\":5613:5670  oracle.getkey(_price18, _timestamp, _symbols, _signature) */\n      0x04\n      add\n      tag_223\n      jump\t// in\n    tag_222:\n      0x20\n      mload(0x40)\n      dup1\n      dup4\n      sub\n      dup2\n      dup7\n      dup1\n      extcodesize\n      iszero\n      dup1\n      iszero\n      tag_224\n      jumpi\n      0x00\n      dup1\n      revert\n    tag_224:\n      pop\n      gas\n      staticcall\n      iszero\n      dup1\n      iszero\n      tag_226\n      jumpi\n      returndatasize\n      0x00\n      dup1\n      returndatacopy\n      revert(0x00, returndatasize)\n    tag_226:\n      pop\n      pop\n      pop\n      pop\n      mload(0x40)\n      returndatasize\n      not(0x1f)\n      0x1f\n      dup3\n      add\n      and\n      dup3\n      add\n      dup1\n      0x40\n      mstore\n      pop\n      dup2\n      add\n      swap1\n      tag_227\n      swap2\n      swap1\n      tag_228\n      jump\t// in\n    tag_227:\n        /* \"contracts/mirrorseaMain.sol\":5592:5706  require(... */\n      tag_229\n      jumpi\n      mload(0x40)\n      shl(0xe5, 0x461bcd)\n      dup2\n      mstore\n      0x04\n      add\n      tag_193\n      swap1\n      tag_231\n      jump\t// in\n    tag_229:\n        /* \"contracts/mirrorseaMain.sol\":5758:5764  minVal */\n      sload(0x74)\n        /* \"contracts/mirrorseaMain.sol\":5737:5755  _amt.mul(_price18) */\n      tag_232\n        /* \"contracts/mirrorseaMain.sol\":5737:5741  _amt */\n      dup6\n        /* \"contracts/mirrorseaMain.sol\":5746:5754  _price18 */\n      dup8\n        /* \"contracts/mirrorseaMain.sol\":5737:5745  _amt.mul */\n      tag_233\n        /* \"contracts/mirrorseaMain.sol\":5737:5755  _amt.mul(_price18) */\n      jump\t// in\n    tag_232:\n        /* \"contracts/mirrorseaMain.sol\":5737:5764  _amt.mul(_price18) > minVal */\n      gt\n        /* \"contracts/mirrorseaMain.sol\":5716:5825  require(... */\n      tag_234\n      jumpi\n      mload(0x40)\n      shl(0xe5, 0x461bcd)\n      dup2\n      mstore\n      0x04\n      add\n      tag_193\n      swap1\n      tag_236\n      jump\t// in\n    tag_234:\n        /* \"contracts/mirrorseaMain.sol\":5836:5903  usc.safeTransferFrom(msg.sender, address(this), _amt.mul(_price18)) */\n      tag_237\n        /* \"contracts/mirrorseaMain.sol\":5857:5867  msg.sender */\n      caller\n        /* \"contracts/mirrorseaMain.sol\":5877:5881  this */\n      address\n        /* \"contracts/mirrorseaMain.sol\":5884:5902  _amt.mul(_price18) */\n      tag_238\n        /* \"contracts/mirrorseaMain.sol\":5884:5888  _amt */\n      dup8\n        /* \"contracts/mirrorseaMain.sol\":5893:5901  _price18 */\n      dup10\n        /* \"contracts/mirrorseaMain.sol\":5884:5892  _amt.mul */\n      tag_233\n        /* \"contracts/mirrorseaMain.sol\":5884:5902  _amt.mul(_price18) */\n      jump\t// in\n    tag_238:\n        /* \"contracts/mirrorseaMain.sol\":5836:5839  usc */\n      and(sub(shl(0xa0, 0x01), 0x01), sload(0x67))\n      swap3\n        /* \"contracts/mirrorseaMain.sol\":5836:5903  usc.safeTransferFrom(msg.sender, address(this), _amt.mul(_price18)) */\n      swap2\n      swap1\n        /* \"contracts/mirrorseaMain.sol\":5836:5856  usc.safeTransferFrom */\n      tag_239\n        /* \"contracts/mirrorseaMain.sol\":5836:5903  usc.safeTransferFrom(msg.sender, address(this), _amt.mul(_price18)) */\n      jump\t// in\n    tag_237:\n        /* \"contracts/mirrorseaMain.sol\":5936:5939  usc */\n      sload(0x67)\n        /* \"contracts/mirrorseaMain.sol\":5936:5964  usc.balanceOf(address(this)) */\n      mload(0x40)\n      shl(0xe0, 0x70a08231)\n      dup2\n      mstore\n        /* \"contracts/mirrorseaMain.sol\":5913:5933  uint256 uscBalanceOf */\n      0x00\n      swap2\n      sub(shl(0xa0, 0x01), 0x01)\n        /* \"contracts/mirrorseaMain.sol\":5936:5939  usc */\n      and\n      swap1\n        /* \"contracts/mirrorseaMain.sol\":5936:5949  usc.balanceOf */\n      0x70a08231\n      swap1\n        /* \"contracts/mirrorseaMain.sol\":5936:5964  usc.balanceOf(address(this)) */\n      tag_240\n      swap1\n        /* \"contracts/mirrorseaMain.sol\":5958:5962  this */\n      address\n      swap1\n        /* \"contracts/mirrorseaMain.sol\":5936:5964  usc.balanceOf(address(this)) */\n      0x04\n      add\n      tag_67\n      jump\t// in\n    tag_240:\n      0x20\n      mload(0x40)\n      dup1\n      dup4\n      sub\n      dup2\n      dup7\n      dup1\n      extcodesize\n      iszero\n      dup1\n      iszero\n      tag_241\n      jumpi\n      0x00\n      dup1\n      revert\n    tag_241:\n      pop\n      gas\n      staticcall\n      iszero\n      dup1\n      iszero\n      tag_243\n      jumpi\n      returndatasize\n      0x00\n      dup1\n      returndatacopy\n      revert(0x00, returndatasize)\n    tag_243:\n      pop\n      pop\n      pop\n      pop\n      mload(0x40)\n      returndatasize\n      not(0x1f)\n      0x1f\n      dup3\n      add\n      and\n      dup3\n      add\n      dup1\n      0x40\n      mstore\n      pop\n      dup2\n      add\n      swap1\n      tag_244\n      swap2\n      swap1\n      tag_245\n      jump\t// in\n    tag_244:\n        /* \"contracts/mirrorseaMain.sol\":5913:5964  uint256 uscBalanceOf = usc.balanceOf(address(this)) */\n      swap1\n      pop\n        /* \"contracts/mirrorseaMain.sol\":5974:5985  uint256 fee */\n      0x00\n        /* \"contracts/mirrorseaMain.sol\":5988:6031  uscBalanceOf.mul(feePercent).div(PRECISION) */\n      tag_246\n        /* \"contracts/mirrorseaMain.sol\":6021:6030  PRECISION */\n      sload(0x73)\n        /* \"contracts/mirrorseaMain.sol\":5988:6016  uscBalanceOf.mul(feePercent) */\n      tag_247\n        /* \"contracts/mirrorseaMain.sol\":6005:6015  feePercent */\n      sload(0x72)\n        /* \"contracts/mirrorseaMain.sol\":5988:6000  uscBalanceOf */\n      dup6\n        /* \"contracts/mirrorseaMain.sol\":5988:6004  uscBalanceOf.mul */\n      tag_233\n      swap1\n        /* \"contracts/mirrorseaMain.sol\":5988:6016  uscBalanceOf.mul(feePercent) */\n      swap2\n      swap1\n      0xffffffff\n      and\n      jump\t// in\n    tag_247:\n        /* \"contracts/mirrorseaMain.sol\":5988:6020  uscBalanceOf.mul(feePercent).div */\n      swap1\n      tag_248\n        /* \"contracts/mirrorseaMain.sol\":5988:6031  uscBalanceOf.mul(feePercent).div(PRECISION) */\n      jump\t// in\n    tag_246:\n        /* \"contracts/mirrorseaMain.sol\":6066:6077  helperLogic */\n      sload(0x68)\n        /* \"contracts/mirrorseaMain.sol\":6041:6044  usc */\n      sload(0x67)\n        /* \"contracts/mirrorseaMain.sol\":5974:6031  uint256 fee = uscBalanceOf.mul(feePercent).div(PRECISION) */\n      swap2\n      swap3\n      pop\n        /* \"contracts/mirrorseaMain.sol\":6041:6084  usc.safeTransfer(address(helperLogic), fee) */\n      tag_249\n      swap2\n      sub(shl(0xa0, 0x01), 0x01)\n        /* \"contracts/mirrorseaMain.sol\":6041:6044  usc */\n      swap1\n      dup2\n      and\n      swap2\n        /* \"contracts/mirrorseaMain.sol\":6066:6077  helperLogic */\n      and\n        /* \"contracts/mirrorseaMain.sol\":5974:6031  uint256 fee = uscBalanceOf.mul(feePercent).div(PRECISION) */\n      dup4\n        /* \"contracts/mirrorseaMain.sol\":6041:6057  usc.safeTransfer */\n      tag_250\n        /* \"contracts/mirrorseaMain.sol\":6041:6084  usc.safeTransfer(address(helperLogic), fee) */\n      jump\t// in\n    tag_249:\n        /* \"contracts/mirrorseaMain.sol\":6094:6105  helperLogic */\n      0x68\n      0x00\n      swap1\n      sload\n      swap1\n      0x0100\n      exp\n      swap1\n      div\n      sub(shl(0xa0, 0x01), 0x01)\n      and\n      sub(shl(0xa0, 0x01), 0x01)\n        /* \"contracts/mirrorseaMain.sol\":6094:6120  helperLogic.jointExecution */\n      and\n      0xd10c06a2\n        /* \"contracts/mirrorseaMain.sol\":6094:6122  helperLogic.jointExecution() */\n      mload(0x40)\n      dup2\n      0xffffffff\n      and\n      0xe0\n      shl\n      dup2\n      mstore\n      0x04\n      add\n      0x20\n      mload(0x40)\n      dup1\n      dup4\n      sub\n      dup2\n      0x00\n      dup8\n      dup1\n      extcodesize\n      iszero\n      dup1\n      iszero\n      tag_251\n      jumpi\n      0x00\n      dup1\n      revert\n    tag_251:\n      pop\n      gas\n      call\n      iszero\n      dup1\n      iszero\n      tag_253\n      jumpi\n      returndatasize\n      0x00\n      dup1\n      returndatacopy\n      revert(0x00, returndatasize)\n    tag_253:\n      pop\n      pop\n      pop\n      pop\n      mload(0x40)\n      returndatasize\n      not(0x1f)\n      0x1f\n      dup3\n      add\n      and\n      dup3\n      add\n      dup1\n      0x40\n      mstore\n      pop\n      dup2\n      add\n      swap1\n      tag_254\n      swap2\n      swap1\n      tag_228\n      jump\t// in\n    tag_254:\n      pop\n        /* \"contracts/mirrorseaMain.sol\":6145:6148  usc */\n      and(sub(shl(0xa0, 0x01), 0x01), sload(0x67))\n        /* \"contracts/mirrorseaMain.sol\":6132:6155  IUSC(address(usc)).burn */\n      0x42966c68\n        /* \"contracts/mirrorseaMain.sol\":6156:6177  uscBalanceOf.sub(fee) */\n      tag_255\n        /* \"contracts/mirrorseaMain.sol\":6156:6168  uscBalanceOf */\n      dup5\n        /* \"contracts/mirrorseaMain.sol\":6173:6176  fee */\n      dup5\n        /* \"contracts/mirrorseaMain.sol\":6156:6172  uscBalanceOf.sub */\n      tag_256\n        /* \"contracts/mirrorseaMain.sol\":6156:6177  uscBalanceOf.sub(fee) */\n      jump\t// in\n    tag_255:\n        /* \"contracts/mirrorseaMain.sol\":6132:6178  IUSC(address(usc)).burn(uscBalanceOf.sub(fee)) */\n      mload(0x40)\n      dup3\n      0xffffffff\n      and\n      0xe0\n      shl\n      dup2\n      mstore\n      0x04\n      add\n      tag_257\n      swap2\n      swap1\n      tag_53\n      jump\t// in\n    tag_257:\n      0x00\n      mload(0x40)\n      dup1\n      dup4\n      sub\n      dup2\n      0x00\n      dup8\n      dup1\n      extcodesize\n      iszero\n      dup1\n      iszero\n      tag_258\n      jumpi\n      0x00\n      dup1\n      revert\n    tag_258:\n      pop\n      gas\n      call\n      iszero\n      dup1\n      iszero\n      tag_260\n      jumpi\n      returndatasize\n      0x00\n      dup1\n      returndatacopy\n      revert(0x00, returndatasize)\n    tag_260:\n      pop\n      pop\n        /* \"contracts/mirrorseaMain.sol\":6210:6220  OrderIndex */\n      sload(0x6b)\n        /* \"contracts/mirrorseaMain.sol\":6189:6204  openOrderIdList */\n      0x6c\n        /* \"contracts/mirrorseaMain.sol\":6189:6221  openOrderIdList.push(OrderIndex) */\n      dup1\n      sload\n      0x01\n      dup2\n      dup2\n      add\n      dup4\n      sstore\n      0x00\n      dup4\n      swap1\n      mstore\n      0x2b4a51ab505fc96a0952efda2ba61bcd3078d4c02c39a186ec16f21883fbe016\n      swap1\n      swap2\n      add\n      swap3\n      swap1\n      swap3\n      sstore\n        /* \"contracts/mirrorseaMain.sol\":6267:6289  openOrderIdList.length */\n      sload\n        /* \"contracts/mirrorseaMain.sol\":6267:6296  openOrderIdList.length.sub(1) */\n      tag_262\n      swap4\n      pop\n        /* \"contracts/mirrorseaMain.sol\":6267:6289  openOrderIdList.length */\n      swap2\n      pop\n        /* \"contracts/mirrorseaMain.sol\":6267:6293  openOrderIdList.length.sub */\n      tag_256\n        /* \"contracts/mirrorseaMain.sol\":6267:6296  openOrderIdList.length.sub(1) */\n      jump\t// in\n    tag_262:\n        /* \"contracts/mirrorseaMain.sol\":6253:6263  OrderIndex */\n      0x6b\n      dup1\n      sload\n        /* \"contracts/mirrorseaMain.sol\":6231:6264  openOrderIdList_index[OrderIndex] */\n      0x00\n      swap1\n      dup2\n      mstore\n        /* \"contracts/mirrorseaMain.sol\":6231:6252  openOrderIdList_index */\n      0x6d\n        /* \"contracts/mirrorseaMain.sol\":6231:6264  openOrderIdList_index[OrderIndex] */\n      0x20\n      swap1\n      dup2\n      mstore\n      0x40\n      dup1\n      dup4\n      keccak256\n        /* \"contracts/mirrorseaMain.sol\":6231:6296  openOrderIdList_index[OrderIndex] = openOrderIdList.length.sub(1) */\n      swap5\n      swap1\n      swap5\n      sstore\n        /* \"contracts/mirrorseaMain.sol\":6325:6335  msg.sender */\n      caller\n        /* \"contracts/mirrorseaMain.sol\":6307:6336  myOpenOrderIdList[msg.sender] */\n      dup1\n      dup4\n      mstore\n        /* \"contracts/mirrorseaMain.sol\":6307:6324  myOpenOrderIdList */\n      0x6e\n        /* \"contracts/mirrorseaMain.sol\":6307:6336  myOpenOrderIdList[msg.sender] */\n      dup1\n      dup4\n      mstore\n      dup6\n      dup5\n      keccak256\n        /* \"contracts/mirrorseaMain.sol\":6342:6352  OrderIndex */\n      dup6\n      sload\n        /* \"contracts/mirrorseaMain.sol\":6307:6353  myOpenOrderIdList[msg.sender].push(OrderIndex) */\n      dup2\n      sload\n      0x01\n      dup2\n      dup2\n      add\n      dup5\n      sstore\n      dup4\n      dup9\n      mstore\n      dup7\n      dup9\n      keccak256\n      swap1\n      swap2\n      add\n      swap2\n      swap1\n      swap2\n      sstore\n        /* \"contracts/mirrorseaMain.sol\":6468:6478  OrderIndex */\n      swap6\n      sload\n        /* \"contracts/mirrorseaMain.sol\":6363:6398  myOpenOrderIdList_index[msg.sender] */\n      swap3\n      dup6\n      mstore\n        /* \"contracts/mirrorseaMain.sol\":6363:6386  myOpenOrderIdList_index */\n      0x6f\n        /* \"contracts/mirrorseaMain.sol\":6363:6398  myOpenOrderIdList_index[msg.sender] */\n      dup5\n      mstore\n      swap6\n      dup5\n      keccak256\n        /* \"contracts/mirrorseaMain.sol\":6412:6441  myOpenOrderIdList[msg.sender] */\n      swap3\n      mstore\n        /* \"contracts/mirrorseaMain.sol\":6412:6448  myOpenOrderIdList[msg.sender].length */\n      swap4\n      sload\n        /* \"contracts/mirrorseaMain.sol\":6363:6398  myOpenOrderIdList_index[msg.sender] */\n      swap1\n      swap3\n        /* \"contracts/mirrorseaMain.sol\":6412:6455  myOpenOrderIdList[msg.sender].length.sub(1) */\n      tag_264\n      swap2\n        /* \"contracts/mirrorseaMain.sol\":6412:6448  myOpenOrderIdList[msg.sender].length */\n      swap1\n        /* \"contracts/mirrorseaMain.sol\":6412:6452  myOpenOrderIdList[msg.sender].length.sub */\n      tag_256\n        /* \"contracts/mirrorseaMain.sol\":6412:6455  myOpenOrderIdList[msg.sender].length.sub(1) */\n      jump\t// in\n    tag_264:\n        /* \"contracts/mirrorseaMain.sol\":6363:6465  myOpenOrderIdList_index[msg.sender][... */\n      dup2\n      mstore\n      0x20\n      add\n      swap1\n      dup2\n      mstore\n      0x20\n      add\n      0x00\n      keccak256\n        /* \"contracts/mirrorseaMain.sol\":6363:6478  myOpenOrderIdList_index[msg.sender][... */\n      dup2\n      swap1\n      sstore\n      pop\n        /* \"contracts/mirrorseaMain.sol\":6489:6499  OrderIndex */\n      0x6b\n      0x00\n        /* \"contracts/mirrorseaMain.sol\":6489:6501  OrderIndex++ */\n      dup2\n      sload\n      dup1\n      swap3\n      swap2\n      swap1\n      tag_265\n      swap1\n      tag_207\n      jump\t// in\n    tag_265:\n      swap1\n      swap2\n      sstore\n      pop\n      pop\n        /* \"contracts/mirrorseaMain.sol\":6512:6535  order.user = msg.sender */\n      dup3\n      sload\n      not(sub(shl(0xa0, 0x01), 0x01))\n      and\n        /* \"contracts/mirrorseaMain.sol\":6525:6535  msg.sender */\n      caller\n        /* \"contracts/mirrorseaMain.sol\":6512:6535  order.user = msg.sender */\n      or\n      dup4\n      sstore\n      0x01\n        /* \"contracts/mirrorseaMain.sol\":6545:6556  order._type */\n      dup4\n      add\n        /* \"contracts/mirrorseaMain.sol\":6545:6564  order._type = _type */\n      dup10\n      swap1\n      sstore\n        /* \"contracts/mirrorseaMain.sol\":6574:6598  order.symbols = _symbols */\n      dup8\n      mload\n      tag_266\n      swap1\n        /* \"contracts/mirrorseaMain.sol\":6574:6587  order.symbols */\n      0x02\n      dup6\n      add\n      swap1\n        /* \"contracts/mirrorseaMain.sol\":6574:6598  order.symbols = _symbols */\n      0x20\n      dup12\n      add\n      swap1\n      tag_267\n      jump\t// in\n    tag_266:\n      pop\n        /* \"contracts/mirrorseaMain.sol\":6622:6623  1 */\n      0x01\n        /* \"contracts/mirrorseaMain.sol\":6608:6619  order.state */\n      0x03\n      dup5\n      add\n        /* \"contracts/mirrorseaMain.sol\":6608:6623  order.state = 1 */\n      sstore\n        /* \"contracts/mirrorseaMain.sol\":6709:6724  order.direction */\n      0x04\n      dup4\n      add\n        /* \"contracts/mirrorseaMain.sol\":6709:6737  order.direction = _direction */\n      dup11\n      swap1\n      sstore\n        /* \"contracts/mirrorseaMain.sol\":6764:6781  order.openPrice18 */\n      0x05\n      dup4\n      add\n        /* \"contracts/mirrorseaMain.sol\":6764:6792  order.openPrice18 = _price18 */\n      dup8\n      swap1\n      sstore\n        /* \"contracts/mirrorseaMain.sol\":6802:6816  order.openTime */\n      0x06\n      dup4\n      add\n        /* \"contracts/mirrorseaMain.sol\":6802:6829  order.openTime = _timestamp */\n      dup12\n      swap1\n      sstore\n        /* \"contracts/mirrorseaMain.sol\":6839:6848  order.amt */\n      0x09\n      dup4\n      add\n        /* \"contracts/mirrorseaMain.sol\":6839:6855  order.amt = _amt */\n      dup7\n      swap1\n      sstore\n        /* \"contracts/mirrorseaMain.sol\":6880:6901  uscBalanceOf.sub(fee) */\n      tag_268\n        /* \"contracts/mirrorseaMain.sol\":6880:6892  uscBalanceOf */\n      dup3\n        /* \"contracts/mirrorseaMain.sol\":6897:6900  fee */\n      dup3\n        /* \"contracts/mirrorseaMain.sol\":6880:6896  uscBalanceOf.sub */\n      tag_256\n        /* \"contracts/mirrorseaMain.sol\":6880:6901  uscBalanceOf.sub(fee) */\n      jump\t// in\n    tag_268:\n        /* \"contracts/mirrorseaMain.sol\":6865:6877  order.margin */\n      0x0a\n      swap1\n      swap4\n      add\n        /* \"contracts/mirrorseaMain.sol\":6865:6901  order.margin = uscBalanceOf.sub(fee) */\n      swap3\n      swap1\n      swap3\n      sstore\n      pop\n        /* \"contracts/mirrorseaMain.sol\":6919:6923  true */\n      0x01\n      swap10\n        /* \"contracts/mirrorseaMain.sol\":5232:6930  function openPosition(... */\n      swap9\n      pop\n      pop\n      pop\n      pop\n      pop\n      pop\n      pop\n      pop\n      pop\n      jump\t// out\n        /* \"contracts/mirrorseaMain.sol\":1062:1102  mapping(address => bool) public executor */\n    tag_84:\n      mstore(0x20, 0x65)\n      0x00\n      swap1\n      dup2\n      mstore\n      0x40\n      swap1\n      keccak256\n      sload\n      0xff\n      and\n      dup2\n      jump\t// out\n        /* \"contracts/mirrorseaMain.sol\":3576:3688  function orderInfo(uint256 _id) external view returns (OrderInfo memory) {... */\n    tag_88:\n        /* \"contracts/mirrorseaMain.sol\":3631:3647  OrderInfo memory */\n      tag_269\n      tag_270\n      jump\t// in\n    tag_269:\n        /* \"contracts/mirrorseaMain.sol\":3666:3681  _orderInfo[_id] */\n      0x00\n      dup3\n      dup2\n      mstore\n        /* \"contracts/mirrorseaMain.sol\":3666:3676  _orderInfo */\n      0x6a\n        /* \"contracts/mirrorseaMain.sol\":3666:3681  _orderInfo[_id] */\n      0x20\n      swap1\n      dup2\n      mstore\n      0x40\n      swap2\n      dup3\n      swap1\n      keccak256\n        /* \"contracts/mirrorseaMain.sol\":3659:3681  return _orderInfo[_id] */\n      dup3\n      mload\n      0x0160\n      dup2\n      add\n      dup5\n      mstore\n      dup2\n      sload\n      sub(shl(0xa0, 0x01), 0x01)\n      and\n      dup2\n      mstore\n      0x01\n      dup3\n      add\n      sload\n      swap3\n      dup2\n      add\n      swap3\n      swap1\n      swap3\n      mstore\n      0x02\n      dup2\n      add\n      dup1\n      sload\n      swap3\n      swap4\n        /* \"contracts/mirrorseaMain.sol\":3666:3681  _orderInfo[_id] */\n      swap2\n      swap3\n        /* \"contracts/mirrorseaMain.sol\":3659:3681  return _orderInfo[_id] */\n      swap2\n      dup5\n      add\n      swap2\n      tag_272\n      swap1\n      tag_273\n      jump\t// in\n    tag_272:\n      dup1\n      0x1f\n      add\n      0x20\n      dup1\n      swap2\n      div\n      mul\n      0x20\n      add\n      mload(0x40)\n      swap1\n      dup2\n      add\n      0x40\n      mstore\n      dup1\n      swap3\n      swap2\n      swap1\n      dup2\n      dup2\n      mstore\n      0x20\n      add\n      dup3\n      dup1\n      sload\n      tag_274\n      swap1\n      tag_273\n      jump\t// in\n    tag_274:\n      dup1\n      iszero\n      tag_275\n      jumpi\n      dup1\n      0x1f\n      lt\n      tag_276\n      jumpi\n      0x0100\n      dup1\n      dup4\n      sload\n      div\n      mul\n      dup4\n      mstore\n      swap2\n      0x20\n      add\n      swap2\n      jump(tag_275)\n    tag_276:\n      dup3\n      add\n      swap2\n      swap1\n      0x00\n      mstore\n      keccak256(0x00, 0x20)\n      swap1\n    tag_277:\n      dup2\n      sload\n      dup2\n      mstore\n      swap1\n      0x01\n      add\n      swap1\n      0x20\n      add\n      dup1\n      dup4\n      gt\n      tag_277\n      jumpi\n      dup3\n      swap1\n      sub\n      0x1f\n      and\n      dup3\n      add\n      swap2\n    tag_275:\n      pop\n      pop\n      pop\n      pop\n      pop\n      dup2\n      mstore\n      0x20\n      add\n      0x03\n      dup3\n      add\n      sload\n      dup2\n      mstore\n      0x20\n      add\n      0x04\n      dup3\n      add\n      sload\n      dup2\n      mstore\n      0x20\n      add\n      0x05\n      dup3\n      add\n      sload\n      dup2\n      mstore\n      0x20\n      add\n      0x06\n      dup3\n      add\n      sload\n      dup2\n      mstore\n      0x20\n      add\n      0x07\n      dup3\n      add\n      sload\n      dup2\n      mstore\n      0x20\n      add\n      0x08\n      dup3\n      add\n      sload\n      dup2\n      mstore\n      0x20\n      add\n      0x09\n      dup3\n      add\n      sload\n      dup2\n      mstore\n      0x20\n      add\n      0x0a\n      dup3\n      add\n      sload\n      dup2\n      mstore\n      pop\n      pop\n      swap1\n      pop\n        /* \"contracts/mirrorseaMain.sol\":3576:3688  function orderInfo(uint256 _id) external view returns (OrderInfo memory) {... */\n    tag_271:\n      swap2\n      swap1\n      pop\n      jump\t// out\n        /* \"contracts/mirrorseaMain.sol\":3444:3570  function setSigner(address _address) external onlyOwner returns (bool) {... */\n    tag_93:\n        /* \"contracts/mirrorseaMain.sol\":3509:3513  bool */\n      0x00\n        /* \"@openzeppelin/contracts-upgradeable/access/OwnableUpgradeable.sol\":1525:1537  _msgSender() */\n      tag_279\n        /* \"@openzeppelin/contracts-upgradeable/access/OwnableUpgradeable.sol\":1525:1535  _msgSender */\n      tag_212\n        /* \"@openzeppelin/contracts-upgradeable/access/OwnableUpgradeable.sol\":1525:1537  _msgSender() */\n      jump\t// in\n    tag_279:\n      sub(shl(0xa0, 0x01), 0x01)\n        /* \"@openzeppelin/contracts-upgradeable/access/OwnableUpgradeable.sol\":1514:1537  owner() == _msgSender() */\n      and\n        /* \"@openzeppelin/contracts-upgradeable/access/OwnableUpgradeable.sol\":1514:1521  owner() */\n      tag_280\n        /* \"@openzeppelin/contracts-upgradeable/access/OwnableUpgradeable.sol\":1514:1519  owner */\n      tag_119\n        /* \"@openzeppelin/contracts-upgradeable/access/OwnableUpgradeable.sol\":1514:1521  owner() */\n      jump\t// in\n    tag_280:\n      sub(shl(0xa0, 0x01), 0x01)\n        /* \"@openzeppelin/contracts-upgradeable/access/OwnableUpgradeable.sol\":1514:1537  owner() == _msgSender() */\n      and\n      eq\n        /* \"@openzeppelin/contracts-upgradeable/access/OwnableUpgradeable.sol\":1506:1574  require(owner() == _msgSender(), \"Ownable: caller is not the owner\") */\n      tag_281\n      jumpi\n      mload(0x40)\n      shl(0xe5, 0x461bcd)\n      dup2\n      mstore\n      0x04\n      add\n      tag_193\n      swap1\n      tag_216\n      jump\t// in\n    tag_281:\n      pop\n        /* \"contracts/mirrorseaMain.sol\":3525:3531  signer */\n      0x66\n        /* \"contracts/mirrorseaMain.sol\":3525:3542  signer = _address */\n      dup1\n      sload\n      sub(shl(0xa0, 0x01), 0x01)\n      dup4\n      and\n      not(sub(shl(0xa0, 0x01), 0x01))\n      swap1\n      swap2\n      and\n      or\n      swap1\n      sstore\n      0x01\n        /* \"contracts/mirrorseaMain.sol\":3444:3570  function setSigner(address _address) external onlyOwner returns (bool) {... */\n      swap2\n      swap1\n      pop\n      jump\t// out\n        /* \"contracts/mirrorseaMain.sol\":11561:12347  function liquidation(... */\n    tag_98:\n        /* \"contracts/mirrorseaMain.sol\":3206:3216  msg.sender */\n      caller\n        /* \"contracts/mirrorseaMain.sol\":11790:11794  bool */\n      0x00\n        /* \"contracts/mirrorseaMain.sol\":3197:3217  executor[msg.sender] */\n      swap1\n      dup2\n      mstore\n        /* \"contracts/mirrorseaMain.sol\":3197:3205  executor */\n      0x65\n        /* \"contracts/mirrorseaMain.sol\":3197:3217  executor[msg.sender] */\n      0x20\n      mstore\n      0x40\n      dup2\n      keccak256\n      sload\n      0xff\n      and\n        /* \"contracts/mirrorseaMain.sol\":3189:3258  require(executor[msg.sender], \"executor: caller is not the executor\") */\n      tag_285\n      jumpi\n      mload(0x40)\n      shl(0xe5, 0x461bcd)\n      dup2\n      mstore\n      0x04\n      add\n      tag_193\n      swap1\n      tag_287\n      jump\t// in\n    tag_285:\n        /* \"contracts/mirrorseaMain.sol\":11811:11820  uint256 i */\n      0x00\n        /* \"contracts/mirrorseaMain.sol\":11806:12319  for (uint256 i = 0; i < _id.length; i++) {... */\n    tag_289:\n        /* \"contracts/mirrorseaMain.sol\":11830:11833  _id */\n      dup7\n        /* \"contracts/mirrorseaMain.sol\":11830:11840  _id.length */\n      mload\n        /* \"contracts/mirrorseaMain.sol\":11826:11827  i */\n      dup2\n        /* \"contracts/mirrorseaMain.sol\":11826:11840  i < _id.length */\n      lt\n        /* \"contracts/mirrorseaMain.sol\":11806:12319  for (uint256 i = 0; i < _id.length; i++) {... */\n      iszero\n      tag_290\n      jumpi\n        /* \"contracts/mirrorseaMain.sol\":11861:11884  OrderInfo storage order */\n      0x00\n        /* \"contracts/mirrorseaMain.sol\":11887:11897  _orderInfo */\n      0x6a\n        /* \"contracts/mirrorseaMain.sol\":11887:11905  _orderInfo[_id[i]] */\n      0x00\n        /* \"contracts/mirrorseaMain.sol\":11898:11901  _id */\n      dup10\n        /* \"contracts/mirrorseaMain.sol\":11902:11903  i */\n      dup5\n        /* \"contracts/mirrorseaMain.sol\":11898:11904  _id[i] */\n      dup2\n      mload\n      dup2\n      lt\n      tag_292\n      jumpi\n      mstore(0x00, shl(0xe0, 0x4e487b71))\n      mstore(0x04, 0x32)\n      revert(0x00, 0x24)\n    tag_292:\n      0x20\n      mul\n      0x20\n      add\n      add\n      mload\n        /* \"contracts/mirrorseaMain.sol\":11887:11905  _orderInfo[_id[i]] */\n      dup2\n      mstore\n      0x20\n      add\n      swap1\n      dup2\n      mstore\n      0x20\n      add\n      0x00\n      keccak256\n        /* \"contracts/mirrorseaMain.sol\":11861:11905  OrderInfo storage order = _orderInfo[_id[i]] */\n      swap1\n      pop\n        /* \"contracts/mirrorseaMain.sol\":11924:11969  _isSolvent(_id[i], _price18[i], order.margin) */\n      tag_293\n        /* \"contracts/mirrorseaMain.sol\":11935:11938  _id */\n      dup9\n        /* \"contracts/mirrorseaMain.sol\":11939:11940  i */\n      dup4\n        /* \"contracts/mirrorseaMain.sol\":11935:11941  _id[i] */\n      dup2\n      mload\n      dup2\n      lt\n      tag_294\n      jumpi\n      mstore(0x00, shl(0xe0, 0x4e487b71))\n      mstore(0x04, 0x32)\n      revert(0x00, 0x24)\n    tag_294:\n      0x20\n      mul\n      0x20\n      add\n      add\n      mload\n        /* \"contracts/mirrorseaMain.sol\":11943:11951  _price18 */\n      dup7\n        /* \"contracts/mirrorseaMain.sol\":11952:11953  i */\n      dup5\n        /* \"contracts/mirrorseaMain.sol\":11943:11954  _price18[i] */\n      dup2\n      mload\n      dup2\n      lt\n      tag_295\n      jumpi\n      mstore(0x00, shl(0xe0, 0x4e487b71))\n      mstore(0x04, 0x32)\n      revert(0x00, 0x24)\n    tag_295:\n      0x20\n      mul\n      0x20\n      add\n      add\n      mload\n        /* \"contracts/mirrorseaMain.sol\":11956:11961  order */\n      dup4\n        /* \"contracts/mirrorseaMain.sol\":11956:11968  order.margin */\n      0x0a\n      add\n      sload\n        /* \"contracts/mirrorseaMain.sol\":11924:11934  _isSolvent */\n      tag_296\n        /* \"contracts/mirrorseaMain.sol\":11924:11969  _isSolvent(_id[i], _price18[i], order.margin) */\n      jump\t// in\n    tag_293:\n        /* \"contracts/mirrorseaMain.sol\":11919:12309  if (!_isSolvent(_id[i], _price18[i], order.margin)) {... */\n      tag_297\n      jumpi\n        /* \"contracts/mirrorseaMain.sol\":12016:12294  _closePosition(... */\n      tag_298\n        /* \"contracts/mirrorseaMain.sol\":12056:12061  order */\n      dup2\n        /* \"contracts/mirrorseaMain.sol\":12087:12088  3 */\n      0x03\n        /* \"contracts/mirrorseaMain.sol\":12114:12117  _id */\n      dup11\n        /* \"contracts/mirrorseaMain.sol\":12118:12119  i */\n      dup6\n        /* \"contracts/mirrorseaMain.sol\":12114:12120  _id[i] */\n      dup2\n      mload\n      dup2\n      lt\n      tag_299\n      jumpi\n      mstore(0x00, shl(0xe0, 0x4e487b71))\n      mstore(0x04, 0x32)\n      revert(0x00, 0x24)\n    tag_299:\n      0x20\n      mul\n      0x20\n      add\n      add\n      mload\n        /* \"contracts/mirrorseaMain.sol\":12146:12156  _timestamp */\n      dup11\n        /* \"contracts/mirrorseaMain.sol\":12157:12158  i */\n      dup7\n        /* \"contracts/mirrorseaMain.sol\":12146:12159  _timestamp[i] */\n      dup2\n      mload\n      dup2\n      lt\n      tag_300\n      jumpi\n      mstore(0x00, shl(0xe0, 0x4e487b71))\n      mstore(0x04, 0x32)\n      revert(0x00, 0x24)\n    tag_300:\n      0x20\n      mul\n      0x20\n      add\n      add\n      mload\n        /* \"contracts/mirrorseaMain.sol\":12185:12193  _symbols */\n      dup11\n        /* \"contracts/mirrorseaMain.sol\":12194:12195  i */\n      dup8\n        /* \"contracts/mirrorseaMain.sol\":12185:12196  _symbols[i] */\n      dup2\n      mload\n      dup2\n      lt\n      tag_301\n      jumpi\n      mstore(0x00, shl(0xe0, 0x4e487b71))\n      mstore(0x04, 0x32)\n      revert(0x00, 0x24)\n    tag_301:\n      0x20\n      mul\n      0x20\n      add\n      add\n      mload\n        /* \"contracts/mirrorseaMain.sol\":12222:12230  _price18 */\n      dup11\n        /* \"contracts/mirrorseaMain.sol\":12231:12232  i */\n      dup9\n        /* \"contracts/mirrorseaMain.sol\":12222:12233  _price18[i] */\n      dup2\n      mload\n      dup2\n      lt\n      tag_302\n      jumpi\n      mstore(0x00, shl(0xe0, 0x4e487b71))\n      mstore(0x04, 0x32)\n      revert(0x00, 0x24)\n    tag_302:\n      0x20\n      mul\n      0x20\n      add\n      add\n      mload\n        /* \"contracts/mirrorseaMain.sol\":12259:12269  _signature */\n      dup11\n        /* \"contracts/mirrorseaMain.sol\":12270:12271  i */\n      dup10\n        /* \"contracts/mirrorseaMain.sol\":12259:12272  _signature[i] */\n      dup2\n      mload\n      dup2\n      lt\n      tag_303\n      jumpi\n      mstore(0x00, shl(0xe0, 0x4e487b71))\n      mstore(0x04, 0x32)\n      revert(0x00, 0x24)\n    tag_303:\n      0x20\n      mul\n      0x20\n      add\n      add\n      mload\n        /* \"contracts/mirrorseaMain.sol\":12016:12030  _closePosition */\n      tag_304\n        /* \"contracts/mirrorseaMain.sol\":12016:12294  _closePosition(... */\n      jump\t// in\n    tag_298:\n        /* \"contracts/mirrorseaMain.sol\":11989:12294  return... */\n      swap3\n      pop\n      pop\n      pop\n      jump(tag_288)\n        /* \"contracts/mirrorseaMain.sol\":11919:12309  if (!_isSolvent(_id[i], _price18[i], order.margin)) {... */\n    tag_297:\n      pop\n        /* \"contracts/mirrorseaMain.sol\":11842:11845  i++ */\n      dup1\n      tag_305\n      dup2\n      tag_207\n      jump\t// in\n    tag_305:\n      swap2\n      pop\n      pop\n        /* \"contracts/mirrorseaMain.sol\":11806:12319  for (uint256 i = 0; i < _id.length; i++) {... */\n      jump(tag_289)\n    tag_290:\n      pop\n        /* \"contracts/mirrorseaMain.sol\":12336:12340  true */\n      0x01\n        /* \"contracts/mirrorseaMain.sol\":12329:12340  return true */\n      swap1\n      pop\n        /* \"contracts/mirrorseaMain.sol\":3268:3269  _ */\n    tag_288:\n        /* \"contracts/mirrorseaMain.sol\":11561:12347  function liquidation(... */\n      swap6\n      swap5\n      pop\n      pop\n      pop\n      pop\n      pop\n      jump\t// out\n        /* \"@openzeppelin/contracts-upgradeable/access/OwnableUpgradeable.sol\":1934:2035  function renounceOwnership() public virtual onlyOwner {... */\n    tag_101:\n        /* \"@openzeppelin/contracts-upgradeable/access/OwnableUpgradeable.sol\":1525:1537  _msgSender() */\n      tag_307\n        /* \"@openzeppelin/contracts-upgradeable/access/OwnableUpgradeable.sol\":1525:1535  _msgSender */\n      tag_212\n        /* \"@openzeppelin/contracts-upgradeable/access/OwnableUpgradeable.sol\":1525:1537  _msgSender() */\n      jump\t// in\n    tag_307:\n      sub(shl(0xa0, 0x01), 0x01)\n        /* \"@openzeppelin/contracts-upgradeable/access/OwnableUpgradeable.sol\":1514:1537  owner() == _msgSender() */\n      and\n        /* \"@openzeppelin/contracts-upgradeable/access/OwnableUpgradeable.sol\":1514:1521  owner() */\n      tag_308\n        /* \"@openzeppelin/contracts-upgradeable/access/OwnableUpgradeable.sol\":1514:1519  owner */\n      tag_119\n        /* \"@openzeppelin/contracts-upgradeable/access/OwnableUpgradeable.sol\":1514:1521  owner() */\n      jump\t// in\n    tag_308:\n      sub(shl(0xa0, 0x01), 0x01)\n        /* \"@openzeppelin/contracts-upgradeable/access/OwnableUpgradeable.sol\":1514:1537  owner() == _msgSender() */\n      and\n      eq\n        /* \"@openzeppelin/contracts-upgradeable/access/OwnableUpgradeable.sol\":1506:1574  require(owner() == _msgSender(), \"Ownable: caller is not the owner\") */\n      tag_309\n      jumpi\n      mload(0x40)\n      shl(0xe5, 0x461bcd)\n      dup2\n      mstore\n      0x04\n      add\n      tag_193\n      swap1\n      tag_216\n      jump\t// in\n    tag_309:\n        /* \"@openzeppelin/contracts-upgradeable/access/OwnableUpgradeable.sol\":1998:2028  _transferOwnership(address(0)) */\n      tag_312\n        /* \"@openzeppelin/contracts-upgradeable/access/OwnableUpgradeable.sol\":2025:2026  0 */\n      0x00\n        /* \"@openzeppelin/contracts-upgradeable/access/OwnableUpgradeable.sol\":1998:2016  _transferOwnership */\n      tag_313\n        /* \"@openzeppelin/contracts-upgradeable/access/OwnableUpgradeable.sol\":1998:2028  _transferOwnership(address(0)) */\n      jump\t// in\n    tag_312:\n        /* \"@openzeppelin/contracts-upgradeable/access/OwnableUpgradeable.sol\":1934:2035  function renounceOwnership() public virtual onlyOwner {... */\n      jump\t// out\n        /* \"contracts/mirrorseaMain.sol\":1481:1567  mapping(address => mapping(uint256 => uint256))... */\n    tag_105:\n      0x6f\n      0x20\n      swap1\n      dup2\n      mstore\n      0x00\n      swap3\n      dup4\n      mstore\n      0x40\n      dup1\n      dup5\n      keccak256\n      swap1\n      swap2\n      mstore\n      swap1\n      dup3\n      mstore\n      swap1\n      keccak256\n      sload\n      dup2\n      jump\t// out\n        /* \"contracts/mirrorseaMain.sol\":3299:3425  function setFeePercent(uint256 _val) external onlyOwner returns (bool) {... */\n    tag_109:\n        /* \"contracts/mirrorseaMain.sol\":3364:3368  bool */\n      0x00\n        /* \"@openzeppelin/contracts-upgradeable/access/OwnableUpgradeable.sol\":1525:1537  _msgSender() */\n      tag_315\n        /* \"@openzeppelin/contracts-upgradeable/access/OwnableUpgradeable.sol\":1525:1535  _msgSender */\n      tag_212\n        /* \"@openzeppelin/contracts-upgradeable/access/OwnableUpgradeable.sol\":1525:1537  _msgSender() */\n      jump\t// in\n    tag_315:\n      sub(shl(0xa0, 0x01), 0x01)\n        /* \"@openzeppelin/contracts-upgradeable/access/OwnableUpgradeable.sol\":1514:1537  owner() == _msgSender() */\n      and\n        /* \"@openzeppelin/contracts-upgradeable/access/OwnableUpgradeable.sol\":1514:1521  owner() */\n      tag_316\n        /* \"@openzeppelin/contracts-upgradeable/access/OwnableUpgradeable.sol\":1514:1519  owner */\n      tag_119\n        /* \"@openzeppelin/contracts-upgradeable/access/OwnableUpgradeable.sol\":1514:1521  owner() */\n      jump\t// in\n    tag_316:\n      sub(shl(0xa0, 0x01), 0x01)\n        /* \"@openzeppelin/contracts-upgradeable/access/OwnableUpgradeable.sol\":1514:1537  owner() == _msgSender() */\n      and\n      eq\n        /* \"@openzeppelin/contracts-upgradeable/access/OwnableUpgradeable.sol\":1506:1574  require(owner() == _msgSender(), \"Ownable: caller is not the owner\") */\n      tag_317\n      jumpi\n      mload(0x40)\n      shl(0xe5, 0x461bcd)\n      dup2\n      mstore\n      0x04\n      add\n      tag_193\n      swap1\n      tag_216\n      jump\t// in\n    tag_317:\n      pop\n        /* \"contracts/mirrorseaMain.sol\":3380:3390  feePercent */\n      0x72\n        /* \"contracts/mirrorseaMain.sol\":3380:3397  feePercent = _val */\n      sstore\n        /* \"contracts/mirrorseaMain.sol\":3414:3418  true */\n      0x01\n      swap1\n        /* \"contracts/mirrorseaMain.sol\":3299:3425  function setFeePercent(uint256 _val) external onlyOwner returns (bool) {... */\n      jump\t// out\n        /* \"contracts/mirrorseaMain.sol\":1206:1227  IOracle public oracle */\n    tag_112:\n      and(sub(shl(0xa0, 0x01), 0x01), sload(0x69))\n      dup2\n      jump\t// out\n        /* \"contracts/mirrorseaMain.sol\":1729:1754  uint256 public feePercent */\n    tag_116:\n      sload(0x72)\n      dup2\n      jump\t// out\n        /* \"@openzeppelin/contracts-upgradeable/access/OwnableUpgradeable.sol\":1302:1387  function owner() public view virtual returns (address) {... */\n    tag_119:\n        /* \"@openzeppelin/contracts-upgradeable/access/OwnableUpgradeable.sol\":1374:1380  _owner */\n      and(sub(shl(0xa0, 0x01), 0x01), sload(0x33))\n        /* \"@openzeppelin/contracts-upgradeable/access/OwnableUpgradeable.sol\":1302:1387  function owner() public view virtual returns (address) {... */\n      swap1\n      jump\t// out\n        /* \"contracts/mirrorseaMain.sol\":13932:14591  function adjustPosition(... */\n    tag_124:\n        /* \"contracts/mirrorseaMain.sol\":14151:14155  bool */\n      0x00\n        /* \"contracts/mirrorseaMain.sol\":14193:14208  _orderInfo[_id] */\n      dup7\n      dup2\n      mstore\n        /* \"contracts/mirrorseaMain.sol\":14193:14203  _orderInfo */\n      0x6a\n        /* \"contracts/mirrorseaMain.sol\":14193:14208  _orderInfo[_id] */\n      0x20\n      mstore\n      0x40\n      dup2\n      keccak256\n        /* \"contracts/mirrorseaMain.sol\":14226:14236  order.user */\n      dup1\n      sload\n      sub(shl(0xa0, 0x01), 0x01)\n      and\n        /* \"contracts/mirrorseaMain.sol\":14218:14275  require(order.user != address(0), \"order does not exist\") */\n      tag_322\n      jumpi\n      mload(0x40)\n      shl(0xe5, 0x461bcd)\n      dup2\n      mstore\n      0x04\n      add\n      tag_193\n      swap1\n      tag_324\n      jump\t// in\n    tag_322:\n        /* \"contracts/mirrorseaMain.sol\":14307:14308  2 */\n      0x02\n        /* \"contracts/mirrorseaMain.sol\":14293:14298  order */\n      dup2\n        /* \"contracts/mirrorseaMain.sol\":14293:14304  order.state */\n      0x03\n      add\n      sload\n        /* \"contracts/mirrorseaMain.sol\":14293:14308  order.state < 2 */\n      lt\n        /* \"contracts/mirrorseaMain.sol\":14285:14322  require(order.state < 2, \"state err\") */\n      tag_325\n      jumpi\n      mload(0x40)\n      shl(0xe5, 0x461bcd)\n      dup2\n      mstore\n      0x04\n      add\n      tag_193\n      swap1\n      tag_221\n      jump\t// in\n    tag_325:\n        /* \"contracts/mirrorseaMain.sol\":14353:14359  oracle */\n      sload(0x69)\n        /* \"contracts/mirrorseaMain.sol\":14353:14410  oracle.getkey(_price18, _timestamp, _symbols, _signature) */\n      mload(0x40)\n      shl(0xe0, 0x81952f3b)\n      dup2\n      mstore\n      sub(shl(0xa0, 0x01), 0x01)\n        /* \"contracts/mirrorseaMain.sol\":14353:14359  oracle */\n      swap1\n      swap2\n      and\n      swap1\n        /* \"contracts/mirrorseaMain.sol\":14353:14366  oracle.getkey */\n      0x81952f3b\n      swap1\n        /* \"contracts/mirrorseaMain.sol\":14353:14410  oracle.getkey(_price18, _timestamp, _symbols, _signature) */\n      tag_327\n      swap1\n        /* \"contracts/mirrorseaMain.sol\":14367:14375  _price18 */\n      dup9\n      swap1\n        /* \"contracts/mirrorseaMain.sol\":14377:14387  _timestamp */\n      dup12\n      swap1\n        /* \"contracts/mirrorseaMain.sol\":14389:14397  _symbols */\n      dup12\n      swap1\n        /* \"contracts/mirrorseaMain.sol\":14399:14409  _signature */\n      dup11\n      swap1\n        /* \"contracts/mirrorseaMain.sol\":14353:14410  oracle.getkey(_price18, _timestamp, _symbols, _signature) */\n      0x04\n      add\n      tag_223\n      jump\t// in\n    tag_327:\n      0x20\n      mload(0x40)\n      dup1\n      dup4\n      sub\n      dup2\n      dup7\n      dup1\n      extcodesize\n      iszero\n      dup1\n      iszero\n      tag_328\n      jumpi\n      0x00\n      dup1\n      revert\n    tag_328:\n      pop\n      gas\n      staticcall\n      iszero\n      dup1\n      iszero\n      tag_330\n      jumpi\n      returndatasize\n      0x00\n      dup1\n      returndatacopy\n      revert(0x00, returndatasize)\n    tag_330:\n      pop\n      pop\n      pop\n      pop\n      mload(0x40)\n      returndatasize\n      not(0x1f)\n      0x1f\n      dup3\n      add\n      and\n      dup3\n      add\n      dup1\n      0x40\n      mstore\n      pop\n      dup2\n      add\n      swap1\n      tag_331\n      swap2\n      swap1\n      tag_228\n      jump\t// in\n    tag_331:\n        /* \"contracts/mirrorseaMain.sol\":14332:14446  require(... */\n      tag_332\n      jumpi\n      mload(0x40)\n      shl(0xe5, 0x461bcd)\n      dup2\n      mstore\n      0x04\n      add\n      tag_193\n      swap1\n      tag_231\n      jump\t// in\n    tag_332:\n        /* \"contracts/mirrorseaMain.sol\":14464:14504  _isSolvent(_id, _price18, _adjustMargin) */\n      tag_334\n        /* \"contracts/mirrorseaMain.sol\":14475:14478  _id */\n      dup9\n        /* \"contracts/mirrorseaMain.sol\":14480:14488  _price18 */\n      dup7\n        /* \"contracts/mirrorseaMain.sol\":14490:14503  _adjustMargin */\n      dup6\n        /* \"contracts/mirrorseaMain.sol\":14464:14474  _isSolvent */\n      tag_296\n        /* \"contracts/mirrorseaMain.sol\":14464:14504  _isSolvent(_id, _price18, _adjustMargin) */\n      jump\t// in\n    tag_334:\n        /* \"contracts/mirrorseaMain.sol\":14456:14525  require(_isSolvent(_id, _price18, _adjustMargin), \"User is bankrupt\") */\n      tag_335\n      jumpi\n      mload(0x40)\n      shl(0xe5, 0x461bcd)\n      dup2\n      mstore\n      0x04\n      add\n      tag_193\n      swap1\n      tag_337\n      jump\t// in\n    tag_335:\n        /* \"contracts/mirrorseaMain.sol\":14535:14547  order.margin */\n      0x0a\n      add\n        /* \"contracts/mirrorseaMain.sol\":14535:14563  order.margin = _adjustMargin */\n      dup3\n      swap1\n      sstore\n      pop\n        /* \"contracts/mirrorseaMain.sol\":14580:14584  true */\n      0x01\n        /* \"contracts/mirrorseaMain.sol\":13932:14591  function adjustPosition(... */\n      swap7\n      swap6\n      pop\n      pop\n      pop\n      pop\n      pop\n      pop\n      jump\t// out\n        /* \"contracts/mirrorseaMain.sol\":10588:11123  function closePosition(... */\n    tag_129:\n        /* \"contracts/mirrorseaMain.sol\":10775:10779  bool */\n      0x00\n        /* \"contracts/mirrorseaMain.sol\":10817:10832  _orderInfo[_id] */\n      dup6\n      dup2\n      mstore\n        /* \"contracts/mirrorseaMain.sol\":10817:10827  _orderInfo */\n      0x6a\n        /* \"contracts/mirrorseaMain.sol\":10817:10832  _orderInfo[_id] */\n      0x20\n      mstore\n      0x40\n      dup2\n      keccak256\n        /* \"contracts/mirrorseaMain.sol\":10850:10860  order.user */\n      dup1\n      sload\n      sub(shl(0xa0, 0x01), 0x01)\n      and\n        /* \"contracts/mirrorseaMain.sol\":10864:10874  msg.sender */\n      caller\n        /* \"contracts/mirrorseaMain.sol\":10850:10874  order.user == msg.sender */\n      eq\n        /* \"contracts/mirrorseaMain.sol\":10842:10887  require(order.user == msg.sender, \"user err\") */\n      tag_339\n      jumpi\n      mload(0x40)\n      shl(0xe5, 0x461bcd)\n      dup2\n      mstore\n      0x04\n      add\n      tag_193\n      swap1\n      tag_341\n      jump\t// in\n    tag_339:\n        /* \"contracts/mirrorseaMain.sol\":10917:11116  _closePosition(... */\n      tag_342\n        /* \"contracts/mirrorseaMain.sol\":10949:10954  order */\n      dup2\n        /* \"contracts/mirrorseaMain.sol\":10972:10973  2 */\n      0x02\n        /* \"contracts/mirrorseaMain.sol\":10991:10994  _id */\n      dup10\n        /* \"contracts/mirrorseaMain.sol\":11012:11022  _timestamp */\n      dup10\n        /* \"contracts/mirrorseaMain.sol\":11040:11048  _symbols */\n      dup10\n        /* \"contracts/mirrorseaMain.sol\":11066:11074  _price18 */\n      dup10\n        /* \"contracts/mirrorseaMain.sol\":11092:11102  _signature */\n      dup10\n        /* \"contracts/mirrorseaMain.sol\":10917:10931  _closePosition */\n      tag_304\n        /* \"contracts/mirrorseaMain.sol\":10917:11116  _closePosition(... */\n      jump\t// in\n    tag_342:\n        /* \"contracts/mirrorseaMain.sol\":10898:11116  return... */\n      swap8\n        /* \"contracts/mirrorseaMain.sol\":10588:11123  function closePosition(... */\n      swap7\n      pop\n      pop\n      pop\n      pop\n      pop\n      pop\n      pop\n      jump\t// out\n        /* \"contracts/mirrorseaMain.sol\":12353:12849  function forcedLiquidation(... */\n    tag_133:\n        /* \"contracts/mirrorseaMain.sol\":3206:3216  msg.sender */\n      caller\n        /* \"contracts/mirrorseaMain.sol\":12557:12561  bool */\n      0x00\n        /* \"contracts/mirrorseaMain.sol\":3197:3217  executor[msg.sender] */\n      swap1\n      dup2\n      mstore\n        /* \"contracts/mirrorseaMain.sol\":3197:3205  executor */\n      0x65\n        /* \"contracts/mirrorseaMain.sol\":3197:3217  executor[msg.sender] */\n      0x20\n      mstore\n      0x40\n      dup2\n      keccak256\n      sload\n      0xff\n      and\n        /* \"contracts/mirrorseaMain.sol\":3189:3258  require(executor[msg.sender], \"executor: caller is not the executor\") */\n      tag_344\n      jumpi\n      mload(0x40)\n      shl(0xe5, 0x461bcd)\n      dup2\n      mstore\n      0x04\n      add\n      tag_193\n      swap1\n      tag_287\n      jump\t// in\n    tag_344:\n        /* \"contracts/mirrorseaMain.sol\":12573:12596  OrderInfo storage order */\n      0x00\n        /* \"contracts/mirrorseaMain.sol\":12599:12614  _orderInfo[_id] */\n      dup7\n      dup2\n      mstore\n        /* \"contracts/mirrorseaMain.sol\":12599:12609  _orderInfo */\n      0x6a\n        /* \"contracts/mirrorseaMain.sol\":12599:12614  _orderInfo[_id] */\n      0x20\n      mstore\n      0x40\n      swap1\n      keccak256\n        /* \"contracts/mirrorseaMain.sol\":12643:12842  _closePosition(... */\n      tag_342\n        /* \"contracts/mirrorseaMain.sol\":12599:12614  _orderInfo[_id] */\n      dup2\n        /* \"contracts/mirrorseaMain.sol\":12698:12699  4 */\n      0x04\n        /* \"contracts/mirrorseaMain.sol\":12610:12613  _id */\n      dup10\n        /* \"contracts/mirrorseaMain.sol\":12738:12748  _timestamp */\n      dup10\n        /* \"contracts/mirrorseaMain.sol\":12766:12774  _symbols */\n      dup10\n        /* \"contracts/mirrorseaMain.sol\":12792:12800  _price18 */\n      dup10\n        /* \"contracts/mirrorseaMain.sol\":12818:12828  _signature */\n      dup10\n        /* \"contracts/mirrorseaMain.sol\":12643:12657  _closePosition */\n      tag_304\n        /* \"contracts/mirrorseaMain.sol\":12643:12842  _closePosition(... */\n      jump\t// in\n        /* \"contracts/mirrorseaMain.sol\":1760:1784  uint256 public PRECISION */\n    tag_136:\n      sload(0x73)\n      dup2\n      jump\t// out\n        /* \"contracts/mirrorseaMain.sol\":2803:2966  function myCloseOrderIdListLength(address _user)... */\n    tag_140:\n      sub(shl(0xa0, 0x01), 0x01)\n        /* \"contracts/mirrorseaMain.sol\":2927:2952  myCloseOrderIdList[_user] */\n      and\n        /* \"contracts/mirrorseaMain.sol\":2897:2904  uint256 */\n      0x00\n        /* \"contracts/mirrorseaMain.sol\":2927:2952  myCloseOrderIdList[_user] */\n      swap1\n      dup2\n      mstore\n        /* \"contracts/mirrorseaMain.sol\":2927:2945  myCloseOrderIdList */\n      0x70\n        /* \"contracts/mirrorseaMain.sol\":2927:2952  myCloseOrderIdList[_user] */\n      0x20\n      mstore\n      0x40\n      swap1\n      keccak256\n        /* \"contracts/mirrorseaMain.sol\":2927:2959  myCloseOrderIdList[_user].length */\n      sload\n      swap1\n        /* \"contracts/mirrorseaMain.sol\":2803:2966  function myCloseOrderIdListLength(address _user)... */\n      jump\t// out\n        /* \"contracts/mirrorseaMain.sol\":1421:1475  mapping(address => uint256[]) public myOpenOrderIdList */\n    tag_144:\n      mstore(0x20, 0x6e)\n      dup2\n      0x00\n      mstore\n      keccak256(0x00, 0x40)\n      dup2\n      dup2\n      sload\n      dup2\n      lt\n      tag_349\n      jumpi\n      0x00\n      dup1\n      revert\n    tag_349:\n      swap1\n      0x00\n      mstore\n      keccak256(0x00, 0x20)\n      add\n      0x00\n      swap2\n      pop\n      swap2\n      pop\n      pop\n      sload\n      dup2\n      jump\t// out\n        /* \"contracts/mirrorseaMain.sol\":2636:2797  function myOpenOrderIdListLength(address _user)... */\n    tag_148:\n      sub(shl(0xa0, 0x01), 0x01)\n        /* \"contracts/mirrorseaMain.sol\":2759:2783  myOpenOrderIdList[_user] */\n      and\n        /* \"contracts/mirrorseaMain.sol\":2729:2736  uint256 */\n      0x00\n        /* \"contracts/mirrorseaMain.sol\":2759:2783  myOpenOrderIdList[_user] */\n      swap1\n      dup2\n      mstore\n        /* \"contracts/mirrorseaMain.sol\":2759:2776  myOpenOrderIdList */\n      0x6e\n        /* \"contracts/mirrorseaMain.sol\":2759:2783  myOpenOrderIdList[_user] */\n      0x20\n      mstore\n      0x40\n      swap1\n      keccak256\n        /* \"contracts/mirrorseaMain.sol\":2759:2790  myOpenOrderIdList[_user].length */\n      sload\n      swap1\n        /* \"contracts/mirrorseaMain.sol\":2636:2797  function myOpenOrderIdListLength(address _user)... */\n      jump\t// out\n        /* \"contracts/mirrorseaMain.sol\":1574:1629  mapping(address => uint256[]) public myCloseOrderIdList */\n    tag_152:\n      mstore(0x20, 0x70)\n      dup2\n      0x00\n      mstore\n      keccak256(0x00, 0x40)\n      dup2\n      dup2\n      sload\n      dup2\n      lt\n      tag_349\n      jumpi\n      0x00\n      dup1\n      revert\n        /* \"contracts/mirrorseaMain.sol\":1635:1722  mapping(address => mapping(uint256 => uint256))... */\n    tag_156:\n      0x71\n      0x20\n      swap1\n      dup2\n      mstore\n      0x00\n      swap3\n      dup4\n      mstore\n      0x40\n      dup1\n      dup5\n      keccak256\n      swap1\n      swap2\n      mstore\n      swap1\n      dup3\n      mstore\n      swap1\n      keccak256\n      sload\n      dup2\n      jump\t// out\n        /* \"contracts/mirrorseaMain.sol\":1791:1812  uint256 public minVal */\n    tag_159:\n      sload(0x74)\n      dup2\n      jump\t// out\n        /* \"@openzeppelin/contracts-upgradeable/access/OwnableUpgradeable.sol\":2184:2382  function transferOwnership(address newOwner) public virtual onlyOwner {... */\n    tag_163:\n        /* \"@openzeppelin/contracts-upgradeable/access/OwnableUpgradeable.sol\":1525:1537  _msgSender() */\n      tag_355\n        /* \"@openzeppelin/contracts-upgradeable/access/OwnableUpgradeable.sol\":1525:1535  _msgSender */\n      tag_212\n        /* \"@openzeppelin/contracts-upgradeable/access/OwnableUpgradeable.sol\":1525:1537  _msgSender() */\n      jump\t// in\n    tag_355:\n      sub(shl(0xa0, 0x01), 0x01)\n        /* \"@openzeppelin/contracts-upgradeable/access/OwnableUpgradeable.sol\":1514:1537  owner() == _msgSender() */\n      and\n        /* \"@openzeppelin/contracts-upgradeable/access/OwnableUpgradeable.sol\":1514:1521  owner() */\n      tag_356\n        /* \"@openzeppelin/contracts-upgradeable/access/OwnableUpgradeable.sol\":1514:1519  owner */\n      tag_119\n        /* \"@openzeppelin/contracts-upgradeable/access/OwnableUpgradeable.sol\":1514:1521  owner() */\n      jump\t// in\n    tag_356:\n      sub(shl(0xa0, 0x01), 0x01)\n        /* \"@openzeppelin/contracts-upgradeable/access/OwnableUpgradeable.sol\":1514:1537  owner() == _msgSender() */\n      and\n      eq\n        /* \"@openzeppelin/contracts-upgradeable/access/OwnableUpgradeable.sol\":1506:1574  require(owner() == _msgSender(), \"Ownable: caller is not the owner\") */\n      tag_357\n      jumpi\n      mload(0x40)\n      shl(0xe5, 0x461bcd)\n      dup2\n      mstore\n      0x04\n      add\n      tag_193\n      swap1\n      tag_216\n      jump\t// in\n    tag_357:\n      sub(shl(0xa0, 0x01), 0x01)\n        /* \"@openzeppelin/contracts-upgradeable/access/OwnableUpgradeable.sol\":2272:2294  newOwner != address(0) */\n      dup2\n      and\n        /* \"@openzeppelin/contracts-upgradeable/access/OwnableUpgradeable.sol\":2264:2337  require(newOwner != address(0), \"Ownable: new owner is the zero address\") */\n      tag_360\n      jumpi\n      mload(0x40)\n      shl(0xe5, 0x461bcd)\n      dup2\n      mstore\n      0x04\n      add\n      tag_193\n      swap1\n      tag_362\n      jump\t// in\n    tag_360:\n        /* \"@openzeppelin/contracts-upgradeable/access/OwnableUpgradeable.sol\":2347:2375  _transferOwnership(newOwner) */\n      tag_363\n        /* \"@openzeppelin/contracts-upgradeable/access/OwnableUpgradeable.sol\":2366:2374  newOwner */\n      dup2\n        /* \"@openzeppelin/contracts-upgradeable/access/OwnableUpgradeable.sol\":2347:2365  _transferOwnership */\n      tag_313\n        /* \"@openzeppelin/contracts-upgradeable/access/OwnableUpgradeable.sol\":2347:2375  _transferOwnership(newOwner) */\n      jump\t// in\n    tag_363:\n        /* \"@openzeppelin/contracts-upgradeable/access/OwnableUpgradeable.sol\":2184:2382  function transferOwnership(address newOwner) public virtual onlyOwner {... */\n      pop\n      jump\t// out\n        /* \"contracts/mirrorseaMain.sol\":1288:1313  uint256 public OrderIndex */\n    tag_165:\n      sload(0x6b)\n      dup2\n      jump\t// out\n        /* \"contracts/mirrorseaMain.sol\":2250:2630  function initialize(... */\n    tag_170:\n        /* \"@openzeppelin/contracts-upgradeable/proxy/utils/Initializable.sol\":539:552  _initializing */\n      sload(0x00)\n      0x0100\n      swap1\n      div\n      0xff\n      and\n      dup1\n        /* \"@openzeppelin/contracts-upgradeable/proxy/utils/Initializable.sol\":539:569  _initializing || !_initialized */\n      tag_365\n      jumpi\n      pop\n        /* \"@openzeppelin/contracts-upgradeable/proxy/utils/Initializable.sol\":557:569  _initialized */\n      and(0xff, sload(0x00))\n        /* \"@openzeppelin/contracts-upgradeable/proxy/utils/Initializable.sol\":556:569  !_initialized */\n      iszero\n        /* \"@openzeppelin/contracts-upgradeable/proxy/utils/Initializable.sol\":539:569  _initializing || !_initialized */\n    tag_365:\n        /* \"@openzeppelin/contracts-upgradeable/proxy/utils/Initializable.sol\":531:620  require(_initializing || !_initialized, \"Initializable: contract is already initialized\") */\n      tag_366\n      jumpi\n      mload(0x40)\n      shl(0xe5, 0x461bcd)\n      dup2\n      mstore\n      0x04\n      add\n      tag_193\n      swap1\n      tag_368\n      jump\t// in\n    tag_366:\n        /* \"@openzeppelin/contracts-upgradeable/proxy/utils/Initializable.sol\":631:650  bool isTopLevelCall */\n      0x00\n        /* \"@openzeppelin/contracts-upgradeable/proxy/utils/Initializable.sol\":654:667  _initializing */\n      sload\n      0x0100\n      swap1\n      div\n      0xff\n      and\n        /* \"@openzeppelin/contracts-upgradeable/proxy/utils/Initializable.sol\":653:667  !_initializing */\n      iszero\n        /* \"@openzeppelin/contracts-upgradeable/proxy/utils/Initializable.sol\":677:775  if (isTopLevelCall) {... */\n      dup1\n      iszero\n      tag_369\n      jumpi\n        /* \"@openzeppelin/contracts-upgradeable/proxy/utils/Initializable.sol\":711:724  _initializing */\n      0x00\n        /* \"@openzeppelin/contracts-upgradeable/proxy/utils/Initializable.sol\":711:731  _initializing = true */\n      dup1\n      sload\n      not(0xff)\n      not(0xff00)\n      swap1\n      swap2\n      and\n      0x0100\n      or\n        /* \"@openzeppelin/contracts-upgradeable/proxy/utils/Initializable.sol\":745:764  _initialized = true */\n      and\n        /* \"@openzeppelin/contracts-upgradeable/proxy/utils/Initializable.sol\":727:731  true */\n      0x01\n        /* \"@openzeppelin/contracts-upgradeable/proxy/utils/Initializable.sol\":745:764  _initialized = true */\n      or\n      swap1\n      sstore\n        /* \"@openzeppelin/contracts-upgradeable/proxy/utils/Initializable.sol\":677:775  if (isTopLevelCall) {... */\n    tag_369:\n        /* \"contracts/mirrorseaMain.sol\":2424:2440  __Ownable_init() */\n      tag_371\n        /* \"contracts/mirrorseaMain.sol\":2424:2438  __Ownable_init */\n      tag_372\n        /* \"contracts/mirrorseaMain.sol\":2424:2440  __Ownable_init() */\n      jump\t// in\n    tag_371:\n        /* \"contracts/mirrorseaMain.sol\":2450:2456  signer */\n      0x66\n        /* \"contracts/mirrorseaMain.sol\":2450:2466  signer = _signer */\n      dup1\n      sload\n      sub(shl(0xa0, 0x01), 0x01)\n      dup1\n      dup9\n      and\n      not(sub(shl(0xa0, 0x01), 0x01))\n      swap3\n      dup4\n      and\n      or\n      swap1\n      swap3\n      sstore\n        /* \"contracts/mirrorseaMain.sol\":2476:2487  helperLogic */\n      0x68\n        /* \"contracts/mirrorseaMain.sol\":2476:2502  helperLogic = _helperLogic */\n      dup1\n      sload\n      dup8\n      dup5\n      and\n      swap1\n      dup4\n      and\n      or\n      swap1\n      sstore\n        /* \"contracts/mirrorseaMain.sol\":2512:2515  usc */\n      0x67\n        /* \"contracts/mirrorseaMain.sol\":2512:2522  usc = _usc */\n      dup1\n      sload\n      dup7\n      dup5\n      and\n      swap1\n      dup4\n      and\n      or\n      swap1\n      sstore\n        /* \"contracts/mirrorseaMain.sol\":2544:2549  10000 */\n      0x2710\n        /* \"contracts/mirrorseaMain.sol\":2532:2541  PRECISION */\n      0x73\n        /* \"contracts/mirrorseaMain.sol\":2532:2549  PRECISION = 10000 */\n      sstore\n        /* \"contracts/mirrorseaMain.sol\":2559:2565  oracle */\n      0x69\n        /* \"contracts/mirrorseaMain.sol\":2559:2575  oracle = _oracle */\n      dup1\n      sload\n      swap3\n      dup6\n      and\n      swap3\n      swap1\n      swap2\n      and\n      swap2\n      swap1\n      swap2\n      or\n      swap1\n      sstore\n        /* \"contracts/mirrorseaMain.sol\":2594:2598  1e18 */\n      0x0de0b6b3a7640000\n        /* \"contracts/mirrorseaMain.sol\":2585:2591  minVal */\n      0x74\n        /* \"contracts/mirrorseaMain.sol\":2585:2598  minVal = 1e18 */\n      sstore\n        /* \"contracts/mirrorseaMain.sol\":2621:2623  50 */\n      0x32\n        /* \"contracts/mirrorseaMain.sol\":2608:2618  feePercent */\n      0x72\n        /* \"contracts/mirrorseaMain.sol\":2608:2623  feePercent = 50 */\n      sstore\n        /* \"@openzeppelin/contracts-upgradeable/proxy/utils/Initializable.sol\":797:863  if (isTopLevelCall) {... */\n      dup1\n      iszero\n      tag_373\n      jumpi\n        /* \"@openzeppelin/contracts-upgradeable/proxy/utils/Initializable.sol\":847:852  false */\n      0x00\n        /* \"@openzeppelin/contracts-upgradeable/proxy/utils/Initializable.sol\":831:852  _initializing = false */\n      dup1\n      sload\n      not(0xff00)\n      and\n      swap1\n      sstore\n        /* \"@openzeppelin/contracts-upgradeable/proxy/utils/Initializable.sol\":797:863  if (isTopLevelCall) {... */\n    tag_373:\n        /* \"contracts/mirrorseaMain.sol\":2250:2630  function initialize(... */\n      pop\n      pop\n      pop\n      pop\n      pop\n      jump\t// out\n        /* \"contracts/mirrorseaMain.sol\":3694:4469  function setOrderInfo(... */\n    tag_174:\n        /* \"contracts/mirrorseaMain.sol\":4053:4057  bool */\n      0x00\n        /* \"@openzeppelin/contracts-upgradeable/access/OwnableUpgradeable.sol\":1525:1537  _msgSender() */\n      tag_375\n        /* \"@openzeppelin/contracts-upgradeable/access/OwnableUpgradeable.sol\":1525:1535  _msgSender */\n      tag_212\n        /* \"@openzeppelin/contracts-upgradeable/access/OwnableUpgradeable.sol\":1525:1537  _msgSender() */\n      jump\t// in\n    tag_375:\n      sub(shl(0xa0, 0x01), 0x01)\n        /* \"@openzeppelin/contracts-upgradeable/access/OwnableUpgradeable.sol\":1514:1537  owner() == _msgSender() */\n      and\n        /* \"@openzeppelin/contracts-upgradeable/access/OwnableUpgradeable.sol\":1514:1521  owner() */\n      tag_376\n        /* \"@openzeppelin/contracts-upgradeable/access/OwnableUpgradeable.sol\":1514:1519  owner */\n      tag_119\n        /* \"@openzeppelin/contracts-upgradeable/access/OwnableUpgradeable.sol\":1514:1521  owner() */\n      jump\t// in\n    tag_376:\n      sub(shl(0xa0, 0x01), 0x01)\n        /* \"@openzeppelin/contracts-upgradeable/access/OwnableUpgradeable.sol\":1514:1537  owner() == _msgSender() */\n      and\n      eq\n        /* \"@openzeppelin/contracts-upgradeable/access/OwnableUpgradeable.sol\":1506:1574  require(owner() == _msgSender(), \"Ownable: caller is not the owner\") */\n      tag_377\n      jumpi\n      mload(0x40)\n      shl(0xe5, 0x461bcd)\n      dup2\n      mstore\n      0x04\n      add\n      tag_193\n      swap1\n      tag_216\n      jump\t// in\n    tag_377:\n        /* \"contracts/mirrorseaMain.sol\":4086:4441  OrderInfo({... */\n      mload(0x40)\n      dup1\n      0x0160\n      add\n      0x40\n      mstore\n      dup1\n        /* \"contracts/mirrorseaMain.sol\":4116:4120  user */\n      dup14\n      sub(shl(0xa0, 0x01), 0x01)\n        /* \"contracts/mirrorseaMain.sol\":4086:4441  OrderInfo({... */\n      and\n      dup2\n      mstore\n      0x20\n      add\n        /* \"contracts/mirrorseaMain.sol\":4141:4146  _type */\n      dup13\n        /* \"contracts/mirrorseaMain.sol\":4086:4441  OrderInfo({... */\n      dup2\n      mstore\n      0x20\n      add\n        /* \"contracts/mirrorseaMain.sol\":4169:4176  symbols */\n      dup12\n        /* \"contracts/mirrorseaMain.sol\":4086:4441  OrderInfo({... */\n      dup2\n      mstore\n      0x20\n      add\n        /* \"contracts/mirrorseaMain.sol\":4197:4202  state */\n      dup11\n        /* \"contracts/mirrorseaMain.sol\":4086:4441  OrderInfo({... */\n      dup2\n      mstore\n      0x20\n      add\n        /* \"contracts/mirrorseaMain.sol\":4227:4236  direction */\n      dup10\n        /* \"contracts/mirrorseaMain.sol\":4086:4441  OrderInfo({... */\n      dup2\n      mstore\n      0x20\n      add\n        /* \"contracts/mirrorseaMain.sol\":4263:4274  openPrice18 */\n      dup9\n        /* \"contracts/mirrorseaMain.sol\":4086:4441  OrderInfo({... */\n      dup2\n      mstore\n      0x20\n      add\n        /* \"contracts/mirrorseaMain.sol\":4298:4306  openTime */\n      dup8\n        /* \"contracts/mirrorseaMain.sol\":4086:4441  OrderInfo({... */\n      dup2\n      mstore\n      0x20\n      add\n        /* \"contracts/mirrorseaMain.sol\":4334:4346  closePrice18 */\n      dup7\n        /* \"contracts/mirrorseaMain.sol\":4086:4441  OrderInfo({... */\n      dup2\n      mstore\n      0x20\n      add\n        /* \"contracts/mirrorseaMain.sol\":4371:4380  closeTime */\n      dup6\n        /* \"contracts/mirrorseaMain.sol\":4086:4441  OrderInfo({... */\n      dup2\n      mstore\n      0x20\n      add\n        /* \"contracts/mirrorseaMain.sol\":4399:4402  amt */\n      dup5\n        /* \"contracts/mirrorseaMain.sol\":4086:4441  OrderInfo({... */\n      dup2\n      mstore\n      0x20\n      add\n        /* \"contracts/mirrorseaMain.sol\":4424:4430  margin */\n      dup4\n        /* \"contracts/mirrorseaMain.sol\":4086:4441  OrderInfo({... */\n      dup2\n      mstore\n      pop\n        /* \"contracts/mirrorseaMain.sol\":4069:4079  _orderInfo */\n      0x6a\n        /* \"contracts/mirrorseaMain.sol\":4069:4083  _orderInfo[id] */\n      0x00\n        /* \"contracts/mirrorseaMain.sol\":4080:4082  id */\n      dup16\n        /* \"contracts/mirrorseaMain.sol\":4069:4083  _orderInfo[id] */\n      dup2\n      mstore\n      0x20\n      add\n      swap1\n      dup2\n      mstore\n      0x20\n      add\n      0x00\n      keccak256\n        /* \"contracts/mirrorseaMain.sol\":4069:4441  _orderInfo[id] = OrderInfo({... */\n      0x00\n      dup3\n      add\n      mload\n      dup2\n      0x00\n      add\n      exp(0x0100, 0x00)\n      dup2\n      sload\n      dup2\n      sub(shl(0xa0, 0x01), 0x01)\n      mul\n      not\n      and\n      swap1\n      dup4\n      sub(shl(0xa0, 0x01), 0x01)\n      and\n      mul\n      or\n      swap1\n      sstore\n      pop\n      0x20\n      dup3\n      add\n      mload\n      dup2\n      0x01\n      add\n      sstore\n      0x40\n      dup3\n      add\n      mload\n      dup2\n      0x02\n      add\n      swap1\n      dup1\n      mload\n      swap1\n      0x20\n      add\n      swap1\n      tag_380\n      swap3\n      swap2\n      swap1\n      tag_267\n      jump\t// in\n    tag_380:\n      pop\n      0x60\n      dup3\n      add\n      mload\n      0x03\n      dup3\n      add\n      sstore\n      0x80\n      dup3\n      add\n      mload\n      0x04\n      dup3\n      add\n      sstore\n      0xa0\n      dup3\n      add\n      mload\n      0x05\n      dup3\n      add\n      sstore\n      0xc0\n      dup3\n      add\n      mload\n      0x06\n      dup3\n      add\n      sstore\n      0xe0\n      dup3\n      add\n      mload\n      0x07\n      dup3\n      add\n      sstore\n      0x0100\n      dup3\n      add\n      mload\n      0x08\n      dup3\n      add\n      sstore\n      0x0120\n      dup3\n      add\n      mload\n      0x09\n      dup3\n      add\n      sstore\n      0x0140\n      swap1\n      swap2\n      add\n      mload\n      0x0a\n      swap1\n      swap2\n      add\n      sstore\n      pop\n        /* \"contracts/mirrorseaMain.sol\":4458:4462  true */\n      0x01\n        /* \"contracts/mirrorseaMain.sol\":3694:4469  function setOrderInfo(... */\n      swap13\n      swap12\n      pop\n      pop\n      pop\n      pop\n      pop\n      pop\n      pop\n      pop\n      pop\n      pop\n      pop\n      pop\n      jump\t// out\n        /* \"@openzeppelin/contracts-upgradeable/utils/ContextUpgradeable.sol\":876:972  function _msgSender() internal view virtual returns (address) {... */\n    tag_212:\n        /* \"@openzeppelin/contracts-upgradeable/utils/ContextUpgradeable.sol\":955:965  msg.sender */\n      caller\n        /* \"@openzeppelin/contracts-upgradeable/utils/ContextUpgradeable.sol\":876:972  function _msgSender() internal view virtual returns (address) {... */\n      swap1\n      jump\t// out\n        /* \"@openzeppelin/contracts-upgradeable/utils/math/SafeMathUpgradeable.sol\":3462:3558  function mul(uint256 a, uint256 b) internal pure returns (uint256) {... */\n    tag_233:\n        /* \"@openzeppelin/contracts-upgradeable/utils/math/SafeMathUpgradeable.sol\":3520:3527  uint256 */\n      0x00\n        /* \"@openzeppelin/contracts-upgradeable/utils/math/SafeMathUpgradeable.sol\":3546:3551  a * b */\n      tag_383\n        /* \"@openzeppelin/contracts-upgradeable/utils/math/SafeMathUpgradeable.sol\":3550:3551  b */\n      dup3\n        /* \"@openzeppelin/contracts-upgradeable/utils/math/SafeMathUpgradeable.sol\":3546:3547  a */\n      dup5\n        /* \"@openzeppelin/contracts-upgradeable/utils/math/SafeMathUpgradeable.sol\":3546:3551  a * b */\n      tag_191\n      jump\t// in\n    tag_383:\n        /* \"@openzeppelin/contracts-upgradeable/utils/math/SafeMathUpgradeable.sol\":3539:3551  return a * b */\n      swap4\n        /* \"@openzeppelin/contracts-upgradeable/utils/math/SafeMathUpgradeable.sol\":3462:3558  function mul(uint256 a, uint256 b) internal pure returns (uint256) {... */\n      swap3\n      pop\n      pop\n      pop\n      jump\t// out\n        /* \"@openzeppelin/contracts-upgradeable/token/ERC20/utils/SafeERC20Upgradeable.sol\":967:1219  function safeTransferFrom(... */\n    tag_239:\n        /* \"@openzeppelin/contracts-upgradeable/token/ERC20/utils/SafeERC20Upgradeable.sol\":1116:1212  _callOptionalReturn(token, abi.encodeWithSelector(token.transferFrom.selector, from, to, value)) */\n      tag_385\n        /* \"@openzeppelin/contracts-upgradeable/token/ERC20/utils/SafeERC20Upgradeable.sol\":1136:1141  token */\n      dup5\n        /* \"@openzeppelin/contracts-upgradeable/token/ERC20/utils/SafeERC20Upgradeable.sol\":1166:1193  token.transferFrom.selector */\n      shl(0xe0, 0x23b872dd)\n        /* \"@openzeppelin/contracts-upgradeable/token/ERC20/utils/SafeERC20Upgradeable.sol\":1195:1199  from */\n      dup6\n        /* \"@openzeppelin/contracts-upgradeable/token/ERC20/utils/SafeERC20Upgradeable.sol\":1201:1203  to */\n      dup6\n        /* \"@openzeppelin/contracts-upgradeable/token/ERC20/utils/SafeERC20Upgradeable.sol\":1205:1210  value */\n      dup6\n        /* \"@openzeppelin/contracts-upgradeable/token/ERC20/utils/SafeERC20Upgradeable.sol\":1143:1211  abi.encodeWithSelector(token.transferFrom.selector, from, to, value) */\n      add(0x24, mload(0x40))\n      tag_386\n      swap4\n      swap3\n      swap2\n      swap1\n      tag_387\n      jump\t// in\n    tag_386:\n      0x40\n      dup1\n      mload\n      not(0x1f)\n      dup2\n      dup5\n      sub\n      add\n      dup2\n      mstore\n      swap2\n      swap1\n      mstore\n      0x20\n      dup2\n      add\n      dup1\n      mload\n      sub(shl(0xe0, 0x01), 0x01)\n      and\n      not(sub(shl(0xe0, 0x01), 0x01))\n      swap1\n      swap4\n      and\n      swap3\n      swap1\n      swap3\n      or\n      swap1\n      swap2\n      mstore\n        /* \"@openzeppelin/contracts-upgradeable/token/ERC20/utils/SafeERC20Upgradeable.sol\":1116:1135  _callOptionalReturn */\n      tag_388\n        /* \"@openzeppelin/contracts-upgradeable/token/ERC20/utils/SafeERC20Upgradeable.sol\":1116:1212  _callOptionalReturn(token, abi.encodeWithSelector(token.transferFrom.selector, from, to, value)) */\n      jump\t// in\n    tag_385:\n        /* \"@openzeppelin/contracts-upgradeable/token/ERC20/utils/SafeERC20Upgradeable.sol\":967:1219  function safeTransferFrom(... */\n      pop\n      pop\n      pop\n      pop\n      jump\t// out\n        /* \"@openzeppelin/contracts-upgradeable/utils/math/SafeMathUpgradeable.sol\":3847:3943  function div(uint256 a, uint256 b) internal pure returns (uint256) {... */\n    tag_248:\n        /* \"@openzeppelin/contracts-upgradeable/utils/math/SafeMathUpgradeable.sol\":3905:3912  uint256 */\n      0x00\n        /* \"@openzeppelin/contracts-upgradeable/utils/math/SafeMathUpgradeable.sol\":3931:3936  a / b */\n      tag_383\n        /* \"@openzeppelin/contracts-upgradeable/utils/math/SafeMathUpgradeable.sol\":3935:3936  b */\n      dup3\n        /* \"@openzeppelin/contracts-upgradeable/utils/math/SafeMathUpgradeable.sol\":3931:3932  a */\n      dup5\n        /* \"@openzeppelin/contracts-upgradeable/utils/math/SafeMathUpgradeable.sol\":3931:3936  a / b */\n      tag_391\n      jump\t// in\n        /* \"@openzeppelin/contracts-upgradeable/token/ERC20/utils/SafeERC20Upgradeable.sol\":745:961  function safeTransfer(... */\n    tag_250:\n        /* \"@openzeppelin/contracts-upgradeable/token/ERC20/utils/SafeERC20Upgradeable.sol\":868:954  _callOptionalReturn(token, abi.encodeWithSelector(token.transfer.selector, to, value)) */\n      tag_393\n        /* \"@openzeppelin/contracts-upgradeable/token/ERC20/utils/SafeERC20Upgradeable.sol\":888:893  token */\n      dup4\n        /* \"@openzeppelin/contracts-upgradeable/token/ERC20/utils/SafeERC20Upgradeable.sol\":918:941  token.transfer.selector */\n      shl(0xe0, 0xa9059cbb)\n        /* \"@openzeppelin/contracts-upgradeable/token/ERC20/utils/SafeERC20Upgradeable.sol\":943:945  to */\n      dup5\n        /* \"@openzeppelin/contracts-upgradeable/token/ERC20/utils/SafeERC20Upgradeable.sol\":947:952  value */\n      dup5\n        /* \"@openzeppelin/contracts-upgradeable/token/ERC20/utils/SafeERC20Upgradeable.sol\":895:953  abi.encodeWithSelector(token.transfer.selector, to, value) */\n      add(0x24, mload(0x40))\n      tag_386\n      swap3\n      swap2\n      swap1\n      tag_395\n      jump\t// in\n        /* \"@openzeppelin/contracts-upgradeable/token/ERC20/utils/SafeERC20Upgradeable.sol\":868:954  _callOptionalReturn(token, abi.encodeWithSelector(token.transfer.selector, to, value)) */\n    tag_393:\n        /* \"@openzeppelin/contracts-upgradeable/token/ERC20/utils/SafeERC20Upgradeable.sol\":745:961  function safeTransfer(... */\n      pop\n      pop\n      pop\n      jump\t// out\n        /* \"@openzeppelin/contracts-upgradeable/utils/math/SafeMathUpgradeable.sol\":3119:3215  function sub(uint256 a, uint256 b) internal pure returns (uint256) {... */\n    tag_256:\n        /* \"@openzeppelin/contracts-upgradeable/utils/math/SafeMathUpgradeable.sol\":3177:3184  uint256 */\n      0x00\n        /* \"@openzeppelin/contracts-upgradeable/utils/math/SafeMathUpgradeable.sol\":3203:3208  a - b */\n      tag_383\n        /* \"@openzeppelin/contracts-upgradeable/utils/math/SafeMathUpgradeable.sol\":3207:3208  b */\n      dup3\n        /* \"@openzeppelin/contracts-upgradeable/utils/math/SafeMathUpgradeable.sol\":3203:3204  a */\n      dup5\n        /* \"@openzeppelin/contracts-upgradeable/utils/math/SafeMathUpgradeable.sol\":3203:3208  a - b */\n      tag_200\n      jump\t// in\n        /* \"contracts/mirrorseaMain.sol\":12855:13926  function _isSolvent(... */\n    tag_296:\n        /* \"contracts/mirrorseaMain.sol\":12976:12980  bool */\n      0x00\n        /* \"contracts/mirrorseaMain.sol\":13018:13033  _orderInfo[_id] */\n      dup4\n      dup2\n      mstore\n        /* \"contracts/mirrorseaMain.sol\":13018:13028  _orderInfo */\n      0x6a\n        /* \"contracts/mirrorseaMain.sol\":13018:13033  _orderInfo[_id] */\n      0x20\n      mstore\n      0x40\n      dup2\n      keccak256\n        /* \"contracts/mirrorseaMain.sol\":13125:13140  order.direction */\n      0x04\n      dup2\n      add\n      sload\n        /* \"contracts/mirrorseaMain.sol\":12976:12980  bool */\n      dup3\n      swap1\n      dup2\n      swap1\n      dup2\n      swap1\n        /* \"contracts/mirrorseaMain.sol\":13144:13145  1 */\n      0x01\n        /* \"contracts/mirrorseaMain.sol\":13125:13145  order.direction == 1 */\n      eq\n        /* \"contracts/mirrorseaMain.sol\":13121:13899  if (order.direction == 1) {... */\n      iszero\n      tag_399\n      jumpi\n        /* \"contracts/mirrorseaMain.sol\":13176:13181  order */\n      dup4\n        /* \"contracts/mirrorseaMain.sol\":13176:13193  order.openPrice18 */\n      0x05\n      add\n      sload\n        /* \"contracts/mirrorseaMain.sol\":13165:13173  _price18 */\n      dup8\n        /* \"contracts/mirrorseaMain.sol\":13165:13193  _price18 < order.openPrice18 */\n      lt\n        /* \"contracts/mirrorseaMain.sol\":13161:13510  if (_price18 < order.openPrice18) {... */\n      iszero\n      tag_407\n      jumpi\n        /* \"contracts/mirrorseaMain.sol\":13227:13244  order.openPrice18 */\n      0x05\n      dup5\n      add\n      sload\n        /* \"contracts/mirrorseaMain.sol\":13227:13258  order.openPrice18.sub(_price18) */\n      tag_401\n      swap1\n        /* \"contracts/mirrorseaMain.sol\":13249:13257  _price18 */\n      dup9\n        /* \"contracts/mirrorseaMain.sol\":13227:13248  order.openPrice18.sub */\n      tag_256\n        /* \"contracts/mirrorseaMain.sol\":13227:13258  order.openPrice18.sub(_price18) */\n      jump\t// in\n    tag_401:\n        /* \"contracts/mirrorseaMain.sol\":13213:13258  diffPrice18 = order.openPrice18.sub(_price18) */\n      swap3\n      pop\n        /* \"contracts/mirrorseaMain.sol\":13289:13315  diffPrice18.mul(order.amt) */\n      tag_402\n        /* \"contracts/mirrorseaMain.sol\":13305:13310  order */\n      dup5\n        /* \"contracts/mirrorseaMain.sol\":13305:13314  order.amt */\n      0x09\n      add\n      sload\n        /* \"contracts/mirrorseaMain.sol\":13289:13300  diffPrice18 */\n      dup5\n        /* \"contracts/mirrorseaMain.sol\":13289:13304  diffPrice18.mul */\n      tag_233\n      swap1\n        /* \"contracts/mirrorseaMain.sol\":13289:13315  diffPrice18.mul(order.amt) */\n      swap2\n      swap1\n      0xffffffff\n      and\n      jump\t// in\n    tag_402:\n        /* \"contracts/mirrorseaMain.sol\":13276:13315  diffMargin = diffPrice18.mul(order.amt) */\n      swap2\n      pop\n        /* \"contracts/mirrorseaMain.sol\":13339:13393  order.amt.mul(_price18).mul(feePercent).div(PRECISION) */\n      tag_403\n        /* \"contracts/mirrorseaMain.sol\":13383:13392  PRECISION */\n      sload(0x73)\n        /* \"contracts/mirrorseaMain.sol\":13339:13378  order.amt.mul(_price18).mul(feePercent) */\n      tag_247\n        /* \"contracts/mirrorseaMain.sol\":13367:13377  feePercent */\n      sload(0x72)\n        /* \"contracts/mirrorseaMain.sol\":13339:13362  order.amt.mul(_price18) */\n      tag_405\n        /* \"contracts/mirrorseaMain.sol\":13353:13361  _price18 */\n      dup12\n        /* \"contracts/mirrorseaMain.sol\":13339:13344  order */\n      dup10\n        /* \"contracts/mirrorseaMain.sol\":13339:13348  order.amt */\n      0x09\n      add\n      sload\n        /* \"contracts/mirrorseaMain.sol\":13339:13352  order.amt.mul */\n      tag_233\n      swap1\n        /* \"contracts/mirrorseaMain.sol\":13339:13362  order.amt.mul(_price18) */\n      swap2\n      swap1\n      0xffffffff\n      and\n      jump\t// in\n    tag_405:\n        /* \"contracts/mirrorseaMain.sol\":13339:13366  order.amt.mul(_price18).mul */\n      swap1\n      tag_233\n        /* \"contracts/mirrorseaMain.sol\":13339:13378  order.amt.mul(_price18).mul(feePercent) */\n      jump\t// in\n        /* \"contracts/mirrorseaMain.sol\":13339:13393  order.amt.mul(_price18).mul(feePercent).div(PRECISION) */\n    tag_403:\n        /* \"contracts/mirrorseaMain.sol\":13333:13393  fee = order.amt.mul(_price18).mul(feePercent).div(PRECISION) */\n      swap1\n      pop\n        /* \"contracts/mirrorseaMain.sol\":13425:13441  diffMargin + fee */\n      tag_406\n        /* \"contracts/mirrorseaMain.sol\":13333:13393  fee = order.amt.mul(_price18).mul(feePercent).div(PRECISION) */\n      dup2\n        /* \"contracts/mirrorseaMain.sol\":13425:13435  diffMargin */\n      dup4\n        /* \"contracts/mirrorseaMain.sol\":13425:13441  diffMargin + fee */\n      tag_205\n      jump\t// in\n    tag_406:\n        /* \"contracts/mirrorseaMain.sol\":13415:13422  _margin */\n      dup7\n        /* \"contracts/mirrorseaMain.sol\":13415:13441  _margin < diffMargin + fee */\n      lt\n        /* \"contracts/mirrorseaMain.sol\":13411:13496  if (_margin < diffMargin + fee) {... */\n      iszero\n      tag_407\n      jumpi\n        /* \"contracts/mirrorseaMain.sol\":13472:13477  false */\n      0x00\n        /* \"contracts/mirrorseaMain.sol\":13465:13477  return false */\n      swap5\n      pop\n      pop\n      pop\n      pop\n      pop\n      jump(tag_383)\n        /* \"contracts/mirrorseaMain.sol\":13411:13496  if (_margin < diffMargin + fee) {... */\n    tag_407:\n        /* \"contracts/mirrorseaMain.sol\":13121:13899  if (order.direction == 1) {... */\n      jump(tag_416)\n    tag_399:\n        /* \"contracts/mirrorseaMain.sol\":13555:13560  order */\n      dup4\n        /* \"contracts/mirrorseaMain.sol\":13555:13572  order.openPrice18 */\n      0x05\n      add\n      sload\n        /* \"contracts/mirrorseaMain.sol\":13544:13552  _price18 */\n      dup8\n        /* \"contracts/mirrorseaMain.sol\":13544:13572  _price18 > order.openPrice18 */\n      gt\n        /* \"contracts/mirrorseaMain.sol\":13540:13889  if (_price18 > order.openPrice18) {... */\n      iszero\n      tag_416\n      jumpi\n        /* \"contracts/mirrorseaMain.sol\":13619:13636  order.openPrice18 */\n      0x05\n      dup5\n      add\n      sload\n        /* \"contracts/mirrorseaMain.sol\":13606:13637  _price18.sub(order.openPrice18) */\n      tag_410\n      swap1\n        /* \"contracts/mirrorseaMain.sol\":13606:13614  _price18 */\n      dup9\n      swap1\n        /* \"contracts/mirrorseaMain.sol\":13606:13618  _price18.sub */\n      tag_256\n        /* \"contracts/mirrorseaMain.sol\":13606:13637  _price18.sub(order.openPrice18) */\n      jump\t// in\n    tag_410:\n        /* \"contracts/mirrorseaMain.sol\":13592:13637  diffPrice18 = _price18.sub(order.openPrice18) */\n      swap3\n      pop\n        /* \"contracts/mirrorseaMain.sol\":13668:13694  diffPrice18.mul(order.amt) */\n      tag_411\n        /* \"contracts/mirrorseaMain.sol\":13684:13689  order */\n      dup5\n        /* \"contracts/mirrorseaMain.sol\":13684:13693  order.amt */\n      0x09\n      add\n      sload\n        /* \"contracts/mirrorseaMain.sol\":13668:13679  diffPrice18 */\n      dup5\n        /* \"contracts/mirrorseaMain.sol\":13668:13683  diffPrice18.mul */\n      tag_233\n      swap1\n        /* \"contracts/mirrorseaMain.sol\":13668:13694  diffPrice18.mul(order.amt) */\n      swap2\n      swap1\n      0xffffffff\n      and\n      jump\t// in\n    tag_411:\n        /* \"contracts/mirrorseaMain.sol\":13655:13694  diffMargin = diffPrice18.mul(order.amt) */\n      swap2\n      pop\n        /* \"contracts/mirrorseaMain.sol\":13718:13772  order.amt.mul(_price18).mul(feePercent).div(PRECISION) */\n      tag_412\n        /* \"contracts/mirrorseaMain.sol\":13762:13771  PRECISION */\n      sload(0x73)\n        /* \"contracts/mirrorseaMain.sol\":13718:13757  order.amt.mul(_price18).mul(feePercent) */\n      tag_247\n        /* \"contracts/mirrorseaMain.sol\":13746:13756  feePercent */\n      sload(0x72)\n        /* \"contracts/mirrorseaMain.sol\":13718:13741  order.amt.mul(_price18) */\n      tag_405\n        /* \"contracts/mirrorseaMain.sol\":13732:13740  _price18 */\n      dup12\n        /* \"contracts/mirrorseaMain.sol\":13718:13723  order */\n      dup10\n        /* \"contracts/mirrorseaMain.sol\":13718:13727  order.amt */\n      0x09\n      add\n      sload\n        /* \"contracts/mirrorseaMain.sol\":13718:13731  order.amt.mul */\n      tag_233\n      swap1\n        /* \"contracts/mirrorseaMain.sol\":13718:13741  order.amt.mul(_price18) */\n      swap2\n      swap1\n      0xffffffff\n      and\n      jump\t// in\n        /* \"contracts/mirrorseaMain.sol\":13718:13772  order.amt.mul(_price18).mul(feePercent).div(PRECISION) */\n    tag_412:\n        /* \"contracts/mirrorseaMain.sol\":13712:13772  fee = order.amt.mul(_price18).mul(feePercent).div(PRECISION) */\n      swap1\n      pop\n        /* \"contracts/mirrorseaMain.sol\":13804:13820  diffMargin + fee */\n      tag_415\n        /* \"contracts/mirrorseaMain.sol\":13712:13772  fee = order.amt.mul(_price18).mul(feePercent).div(PRECISION) */\n      dup2\n        /* \"contracts/mirrorseaMain.sol\":13804:13814  diffMargin */\n      dup4\n        /* \"contracts/mirrorseaMain.sol\":13804:13820  diffMargin + fee */\n      tag_205\n      jump\t// in\n    tag_415:\n        /* \"contracts/mirrorseaMain.sol\":13794:13801  _margin */\n      dup7\n        /* \"contracts/mirrorseaMain.sol\":13794:13820  _margin < diffMargin + fee */\n      lt\n        /* \"contracts/mirrorseaMain.sol\":13790:13875  if (_margin < diffMargin + fee) {... */\n      iszero\n      tag_416\n      jumpi\n        /* \"contracts/mirrorseaMain.sol\":13851:13856  false */\n      0x00\n        /* \"contracts/mirrorseaMain.sol\":13844:13856  return false */\n      swap5\n      pop\n      pop\n      pop\n      pop\n      pop\n      jump(tag_383)\n        /* \"contracts/mirrorseaMain.sol\":13790:13875  if (_margin < diffMargin + fee) {... */\n    tag_416:\n      pop\n        /* \"contracts/mirrorseaMain.sol\":13915:13919  true */\n      0x01\n      swap8\n        /* \"contracts/mirrorseaMain.sol\":12855:13926  function _isSolvent(... */\n      swap7\n      pop\n      pop\n      pop\n      pop\n      pop\n      pop\n      pop\n      jump\t// out\n        /* \"contracts/mirrorseaMain.sol\":6936:10582  function _closePosition(... */\n    tag_304:\n        /* \"contracts/mirrorseaMain.sol\":7205:7215  order.user */\n      dup7\n      sload\n        /* \"contracts/mirrorseaMain.sol\":7181:7185  bool */\n      0x00\n      swap1\n      sub(shl(0xa0, 0x01), 0x01)\n        /* \"contracts/mirrorseaMain.sol\":7205:7215  order.user */\n      and\n        /* \"contracts/mirrorseaMain.sol\":7197:7254  require(order.user != address(0), \"order does not exist\") */\n      tag_418\n      jumpi\n      mload(0x40)\n      shl(0xe5, 0x461bcd)\n      dup2\n      mstore\n      0x04\n      add\n      tag_193\n      swap1\n      tag_324\n      jump\t// in\n    tag_418:\n        /* \"contracts/mirrorseaMain.sol\":7286:7287  2 */\n      0x02\n        /* \"contracts/mirrorseaMain.sol\":7272:7277  order */\n      dup9\n        /* \"contracts/mirrorseaMain.sol\":7272:7283  order.state */\n      0x03\n      add\n      sload\n        /* \"contracts/mirrorseaMain.sol\":7272:7287  order.state < 2 */\n      lt\n        /* \"contracts/mirrorseaMain.sol\":7264:7301  require(order.state < 2, \"state err\") */\n      tag_420\n      jumpi\n      mload(0x40)\n      shl(0xe5, 0x461bcd)\n      dup2\n      mstore\n      0x04\n      add\n      tag_193\n      swap1\n      tag_221\n      jump\t// in\n    tag_420:\n        /* \"contracts/mirrorseaMain.sol\":7332:7338  oracle */\n      sload(0x69)\n        /* \"contracts/mirrorseaMain.sol\":7332:7389  oracle.getkey(_price18, _timestamp, _symbols, _signature) */\n      mload(0x40)\n      shl(0xe0, 0x81952f3b)\n      dup2\n      mstore\n      sub(shl(0xa0, 0x01), 0x01)\n        /* \"contracts/mirrorseaMain.sol\":7332:7338  oracle */\n      swap1\n      swap2\n      and\n      swap1\n        /* \"contracts/mirrorseaMain.sol\":7332:7345  oracle.getkey */\n      0x81952f3b\n      swap1\n        /* \"contracts/mirrorseaMain.sol\":7332:7389  oracle.getkey(_price18, _timestamp, _symbols, _signature) */\n      tag_422\n      swap1\n        /* \"contracts/mirrorseaMain.sol\":7346:7354  _price18 */\n      dup7\n      swap1\n        /* \"contracts/mirrorseaMain.sol\":7356:7366  _timestamp */\n      dup10\n      swap1\n        /* \"contracts/mirrorseaMain.sol\":7368:7376  _symbols */\n      dup10\n      swap1\n        /* \"contracts/mirrorseaMain.sol\":7378:7388  _signature */\n      dup9\n      swap1\n        /* \"contracts/mirrorseaMain.sol\":7332:7389  oracle.getkey(_price18, _timestamp, _symbols, _signature) */\n      0x04\n      add\n      tag_223\n      jump\t// in\n    tag_422:\n      0x20\n      mload(0x40)\n      dup1\n      dup4\n      sub\n      dup2\n      dup7\n      dup1\n      extcodesize\n      iszero\n      dup1\n      iszero\n      tag_423\n      jumpi\n      0x00\n      dup1\n      revert\n    tag_423:\n      pop\n      gas\n      staticcall\n      iszero\n      dup1\n      iszero\n      tag_425\n      jumpi\n      returndatasize\n      0x00\n      dup1\n      returndatacopy\n      revert(0x00, returndatasize)\n    tag_425:\n      pop\n      pop\n      pop\n      pop\n      mload(0x40)\n      returndatasize\n      not(0x1f)\n      0x1f\n      dup3\n      add\n      and\n      dup3\n      add\n      dup1\n      0x40\n      mstore\n      pop\n      dup2\n      add\n      swap1\n      tag_426\n      swap2\n      swap1\n      tag_228\n      jump\t// in\n    tag_426:\n        /* \"contracts/mirrorseaMain.sol\":7311:7425  require(... */\n      tag_427\n      jumpi\n      mload(0x40)\n      shl(0xe5, 0x461bcd)\n      dup2\n      mstore\n      0x04\n      add\n      tag_193\n      swap1\n      tag_231\n      jump\t// in\n    tag_427:\n        /* \"contracts/mirrorseaMain.sol\":7457:7465  _price18 */\n      dup3\n        /* \"contracts/mirrorseaMain.sol\":7436:7441  order */\n      dup9\n        /* \"contracts/mirrorseaMain.sol\":7436:7454  order.closePrice18 */\n      0x07\n      add\n        /* \"contracts/mirrorseaMain.sol\":7436:7465  order.closePrice18 = _price18 */\n      dup2\n      swap1\n      sstore\n      pop\n        /* \"contracts/mirrorseaMain.sol\":7475:7494  uint256 diffPrice18 */\n      0x00\n        /* \"contracts/mirrorseaMain.sol\":7504:7522  uint256 diffMargin */\n      dup1\n        /* \"contracts/mirrorseaMain.sol\":7532:7547  uint256 mintAmt */\n      0x00\n        /* \"contracts/mirrorseaMain.sol\":7561:7566  order */\n      dup11\n        /* \"contracts/mirrorseaMain.sol\":7561:7576  order.direction */\n      0x04\n      add\n      sload\n        /* \"contracts/mirrorseaMain.sol\":7580:7581  1 */\n      0x01\n        /* \"contracts/mirrorseaMain.sol\":7561:7581  order.direction == 1 */\n      eq\n        /* \"contracts/mirrorseaMain.sol\":7557:9660  if (order.direction == 1) {... */\n      iszero\n      tag_429\n      jumpi\n        /* \"contracts/mirrorseaMain.sol\":7622:7627  order */\n      dup11\n        /* \"contracts/mirrorseaMain.sol\":7622:7639  order.openPrice18 */\n      0x05\n      add\n      sload\n        /* \"contracts/mirrorseaMain.sol\":7601:7606  order */\n      dup12\n        /* \"contracts/mirrorseaMain.sol\":7601:7619  order.closePrice18 */\n      0x07\n      add\n      sload\n        /* \"contracts/mirrorseaMain.sol\":7601:7639  order.closePrice18 > order.openPrice18 */\n      gt\n        /* \"contracts/mirrorseaMain.sol\":7597:8609  if (order.closePrice18 > order.openPrice18) {... */\n      iszero\n      tag_430\n      jumpi\n        /* \"contracts/mirrorseaMain.sol\":7696:7713  order.openPrice18 */\n      0x05\n      dup12\n      add\n      sload\n        /* \"contracts/mirrorseaMain.sol\":7673:7691  order.closePrice18 */\n      0x07\n      dup13\n      add\n      sload\n        /* \"contracts/mirrorseaMain.sol\":7673:7714  order.closePrice18.sub(order.openPrice18) */\n      tag_431\n      swap2\n        /* \"contracts/mirrorseaMain.sol\":7673:7695  order.closePrice18.sub */\n      tag_256\n        /* \"contracts/mirrorseaMain.sol\":7673:7714  order.closePrice18.sub(order.openPrice18) */\n      jump\t// in\n    tag_431:\n        /* \"contracts/mirrorseaMain.sol\":7659:7714  diffPrice18 = order.closePrice18.sub(order.openPrice18) */\n      swap3\n      pop\n        /* \"contracts/mirrorseaMain.sol\":7745:7771  diffPrice18.mul(order.amt) */\n      tag_432\n        /* \"contracts/mirrorseaMain.sol\":7761:7766  order */\n      dup12\n        /* \"contracts/mirrorseaMain.sol\":7761:7770  order.amt */\n      0x09\n      add\n      sload\n        /* \"contracts/mirrorseaMain.sol\":7745:7756  diffPrice18 */\n      dup5\n        /* \"contracts/mirrorseaMain.sol\":7745:7760  diffPrice18.mul */\n      tag_233\n      swap1\n        /* \"contracts/mirrorseaMain.sol\":7745:7771  diffPrice18.mul(order.amt) */\n      swap2\n      swap1\n      0xffffffff\n      and\n      jump\t// in\n    tag_432:\n        /* \"contracts/mirrorseaMain.sol\":7799:7811  order.margin */\n      0x0a\n      dup13\n      add\n      sload\n        /* \"contracts/mirrorseaMain.sol\":7732:7771  diffMargin = diffPrice18.mul(order.amt) */\n      swap1\n      swap3\n      pop\n        /* \"contracts/mirrorseaMain.sol\":7799:7827  order.margin.add(diffMargin) */\n      tag_433\n      swap1\n        /* \"contracts/mirrorseaMain.sol\":7732:7771  diffMargin = diffPrice18.mul(order.amt) */\n      dup4\n        /* \"contracts/mirrorseaMain.sol\":7799:7815  order.margin.add */\n      tag_434\n        /* \"contracts/mirrorseaMain.sol\":7799:7827  order.margin.add(diffMargin) */\n      jump\t// in\n    tag_433:\n        /* \"contracts/mirrorseaMain.sol\":7789:7827  mintAmt = order.margin.add(diffMargin) */\n      swap1\n      pop\n        /* \"contracts/mirrorseaMain.sol\":7845:7856  uint256 fee */\n      0x00\n        /* \"contracts/mirrorseaMain.sol\":7859:7897  mintAmt.mul(feePercent).div(PRECISION) */\n      tag_435\n        /* \"contracts/mirrorseaMain.sol\":7887:7896  PRECISION */\n      sload(0x73)\n        /* \"contracts/mirrorseaMain.sol\":7859:7882  mintAmt.mul(feePercent) */\n      tag_247\n        /* \"contracts/mirrorseaMain.sol\":7871:7881  feePercent */\n      sload(0x72)\n        /* \"contracts/mirrorseaMain.sol\":7859:7866  mintAmt */\n      dup6\n        /* \"contracts/mirrorseaMain.sol\":7859:7870  mintAmt.mul */\n      tag_233\n      swap1\n        /* \"contracts/mirrorseaMain.sol\":7859:7882  mintAmt.mul(feePercent) */\n      swap2\n      swap1\n      0xffffffff\n      and\n      jump\t// in\n        /* \"contracts/mirrorseaMain.sol\":7859:7897  mintAmt.mul(feePercent).div(PRECISION) */\n    tag_435:\n        /* \"contracts/mirrorseaMain.sol\":7928:7931  usc */\n      sload(0x67)\n        /* \"contracts/mirrorseaMain.sol\":7947:7958  helperLogic */\n      sload(0x68)\n        /* \"contracts/mirrorseaMain.sol\":7915:7965  IUSC(address(usc)).mint(address(helperLogic), fee) */\n      mload(0x40)\n      shl(0xe0, 0x40c10f19)\n      dup2\n      mstore\n        /* \"contracts/mirrorseaMain.sol\":7845:7897  uint256 fee = mintAmt.mul(feePercent).div(PRECISION) */\n      swap3\n      swap4\n      pop\n      sub(shl(0xa0, 0x01), 0x01)\n        /* \"contracts/mirrorseaMain.sol\":7928:7931  usc */\n      swap2\n      dup3\n      and\n      swap3\n        /* \"contracts/mirrorseaMain.sol\":7915:7938  IUSC(address(usc)).mint */\n      0x40c10f19\n      swap3\n        /* \"contracts/mirrorseaMain.sol\":7915:7965  IUSC(address(usc)).mint(address(helperLogic), fee) */\n      tag_437\n      swap3\n        /* \"contracts/mirrorseaMain.sol\":7947:7958  helperLogic */\n      and\n      swap1\n        /* \"contracts/mirrorseaMain.sol\":7845:7897  uint256 fee = mintAmt.mul(feePercent).div(PRECISION) */\n      dup6\n      swap1\n        /* \"contracts/mirrorseaMain.sol\":7915:7965  IUSC(address(usc)).mint(address(helperLogic), fee) */\n      0x04\n      add\n      tag_395\n      jump\t// in\n    tag_437:\n      0x20\n      mload(0x40)\n      dup1\n      dup4\n      sub\n      dup2\n      0x00\n      dup8\n      dup1\n      extcodesize\n      iszero\n      dup1\n      iszero\n      tag_438\n      jumpi\n      0x00\n      dup1\n      revert\n    tag_438:\n      pop\n      gas\n      call\n      iszero\n      dup1\n      iszero\n      tag_440\n      jumpi\n      returndatasize\n      0x00\n      dup1\n      returndatacopy\n      revert(0x00, returndatasize)\n    tag_440:\n      pop\n      pop\n      pop\n      pop\n      mload(0x40)\n      returndatasize\n      not(0x1f)\n      0x1f\n      dup3\n      add\n      and\n      dup3\n      add\n      dup1\n      0x40\n      mstore\n      pop\n      dup2\n      add\n      swap1\n      tag_441\n      swap2\n      swap1\n      tag_228\n      jump\t// in\n    tag_441:\n      pop\n        /* \"contracts/mirrorseaMain.sol\":7996:7999  usc */\n      sload(0x67)\n        /* \"contracts/mirrorseaMain.sol\":8007:8017  order.user */\n      dup13\n      sload\n      sub(shl(0xa0, 0x01), 0x01)\n        /* \"contracts/mirrorseaMain.sol\":7996:7999  usc */\n      swap2\n      dup3\n      and\n      swap2\n        /* \"contracts/mirrorseaMain.sol\":7983:8006  IUSC(address(usc)).mint */\n      0x40c10f19\n      swap2\n        /* \"contracts/mirrorseaMain.sol\":8007:8017  order.user */\n      and\n        /* \"contracts/mirrorseaMain.sol\":8019:8035  mintAmt.sub(fee) */\n      tag_442\n        /* \"contracts/mirrorseaMain.sol\":8019:8026  mintAmt */\n      dup6\n        /* \"contracts/mirrorseaMain.sol\":8031:8034  fee */\n      dup6\n        /* \"contracts/mirrorseaMain.sol\":8019:8030  mintAmt.sub */\n      tag_256\n        /* \"contracts/mirrorseaMain.sol\":8019:8035  mintAmt.sub(fee) */\n      jump\t// in\n    tag_442:\n        /* \"contracts/mirrorseaMain.sol\":7983:8036  IUSC(address(usc)).mint(order.user, mintAmt.sub(fee)) */\n      mload(0x40)\n      dup4\n      0xffffffff\n      and\n      0xe0\n      shl\n      dup2\n      mstore\n      0x04\n      add\n      tag_443\n      swap3\n      swap2\n      swap1\n      tag_395\n      jump\t// in\n    tag_443:\n      0x20\n      mload(0x40)\n      dup1\n      dup4\n      sub\n      dup2\n      0x00\n      dup8\n      dup1\n      extcodesize\n      iszero\n      dup1\n      iszero\n      tag_444\n      jumpi\n      0x00\n      dup1\n      revert\n    tag_444:\n      pop\n      gas\n      call\n      iszero\n      dup1\n      iszero\n      tag_446\n      jumpi\n      returndatasize\n      0x00\n      dup1\n      returndatacopy\n      revert(0x00, returndatasize)\n    tag_446:\n      pop\n      pop\n      pop\n      pop\n      mload(0x40)\n      returndatasize\n      not(0x1f)\n      0x1f\n      dup3\n      add\n      and\n      dup3\n      add\n      dup1\n      0x40\n      mstore\n      pop\n      dup2\n      add\n      swap1\n      tag_447\n      swap2\n      swap1\n      tag_228\n      jump\t// in\n    tag_447:\n      pop\n        /* \"contracts/mirrorseaMain.sol\":7597:8609  if (order.closePrice18 > order.openPrice18) {... */\n      pop\n      jump(tag_452)\n    tag_430:\n        /* \"contracts/mirrorseaMain.sol\":8111:8129  order.closePrice18 */\n      0x07\n      dup12\n      add\n      sload\n        /* \"contracts/mirrorseaMain.sol\":8089:8106  order.openPrice18 */\n      0x05\n      dup13\n      add\n      sload\n        /* \"contracts/mirrorseaMain.sol\":8089:8130  order.openPrice18.sub(order.closePrice18) */\n      tag_449\n      swap2\n        /* \"contracts/mirrorseaMain.sol\":8089:8110  order.openPrice18.sub */\n      tag_256\n        /* \"contracts/mirrorseaMain.sol\":8089:8130  order.openPrice18.sub(order.closePrice18) */\n      jump\t// in\n    tag_449:\n        /* \"contracts/mirrorseaMain.sol\":8075:8130  diffPrice18 = order.openPrice18.sub(order.closePrice18) */\n      swap3\n      pop\n        /* \"contracts/mirrorseaMain.sol\":8161:8187  diffPrice18.mul(order.amt) */\n      tag_450\n        /* \"contracts/mirrorseaMain.sol\":8177:8182  order */\n      dup12\n        /* \"contracts/mirrorseaMain.sol\":8177:8186  order.amt */\n      0x09\n      add\n      sload\n        /* \"contracts/mirrorseaMain.sol\":8161:8172  diffPrice18 */\n      dup5\n        /* \"contracts/mirrorseaMain.sol\":8161:8176  diffPrice18.mul */\n      tag_233\n      swap1\n        /* \"contracts/mirrorseaMain.sol\":8161:8187  diffPrice18.mul(order.amt) */\n      swap2\n      swap1\n      0xffffffff\n      and\n      jump\t// in\n    tag_450:\n        /* \"contracts/mirrorseaMain.sol\":8148:8187  diffMargin = diffPrice18.mul(order.amt) */\n      swap2\n      pop\n        /* \"contracts/mirrorseaMain.sol\":8223:8228  order */\n      dup11\n        /* \"contracts/mirrorseaMain.sol\":8223:8235  order.margin */\n      0x0a\n      add\n      sload\n        /* \"contracts/mirrorseaMain.sol\":8210:8220  diffMargin */\n      dup3\n        /* \"contracts/mirrorseaMain.sol\":8210:8235  diffMargin > order.margin */\n      gt\n        /* \"contracts/mirrorseaMain.sol\":8206:8595  if (diffMargin > order.margin) {... */\n      iszero\n      tag_451\n      jumpi\n      pop\n        /* \"contracts/mirrorseaMain.sol\":8269:8270  0 */\n      0x00\n        /* \"contracts/mirrorseaMain.sol\":8206:8595  if (diffMargin > order.margin) {... */\n      jump(tag_452)\n    tag_451:\n        /* \"contracts/mirrorseaMain.sol\":8327:8339  order.margin */\n      0x0a\n      dup12\n      add\n      sload\n        /* \"contracts/mirrorseaMain.sol\":8327:8355  order.margin.sub(diffMargin) */\n      tag_453\n      swap1\n        /* \"contracts/mirrorseaMain.sol\":8344:8354  diffMargin */\n      dup4\n        /* \"contracts/mirrorseaMain.sol\":8327:8343  order.margin.sub */\n      tag_256\n        /* \"contracts/mirrorseaMain.sol\":8327:8355  order.margin.sub(diffMargin) */\n      jump\t// in\n    tag_453:\n        /* \"contracts/mirrorseaMain.sol\":8317:8355  mintAmt = order.margin.sub(diffMargin) */\n      swap1\n      pop\n        /* \"contracts/mirrorseaMain.sol\":8377:8388  uint256 fee */\n      0x00\n        /* \"contracts/mirrorseaMain.sol\":8391:8429  mintAmt.mul(feePercent).div(PRECISION) */\n      tag_454\n        /* \"contracts/mirrorseaMain.sol\":8419:8428  PRECISION */\n      sload(0x73)\n        /* \"contracts/mirrorseaMain.sol\":8391:8414  mintAmt.mul(feePercent) */\n      tag_247\n        /* \"contracts/mirrorseaMain.sol\":8403:8413  feePercent */\n      sload(0x72)\n        /* \"contracts/mirrorseaMain.sol\":8391:8398  mintAmt */\n      dup6\n        /* \"contracts/mirrorseaMain.sol\":8391:8402  mintAmt.mul */\n      tag_233\n      swap1\n        /* \"contracts/mirrorseaMain.sol\":8391:8414  mintAmt.mul(feePercent) */\n      swap2\n      swap1\n      0xffffffff\n      and\n      jump\t// in\n        /* \"contracts/mirrorseaMain.sol\":8391:8429  mintAmt.mul(feePercent).div(PRECISION) */\n    tag_454:\n        /* \"contracts/mirrorseaMain.sol\":8464:8467  usc */\n      sload(0x67)\n        /* \"contracts/mirrorseaMain.sol\":8483:8494  helperLogic */\n      sload(0x68)\n        /* \"contracts/mirrorseaMain.sol\":8451:8501  IUSC(address(usc)).mint(address(helperLogic), fee) */\n      mload(0x40)\n      shl(0xe0, 0x40c10f19)\n      dup2\n      mstore\n        /* \"contracts/mirrorseaMain.sol\":8377:8429  uint256 fee = mintAmt.mul(feePercent).div(PRECISION) */\n      swap3\n      swap4\n      pop\n      sub(shl(0xa0, 0x01), 0x01)\n        /* \"contracts/mirrorseaMain.sol\":8464:8467  usc */\n      swap2\n      dup3\n      and\n      swap3\n        /* \"contracts/mirrorseaMain.sol\":8451:8474  IUSC(address(usc)).mint */\n      0x40c10f19\n      swap3\n        /* \"contracts/mirrorseaMain.sol\":8451:8501  IUSC(address(usc)).mint(address(helperLogic), fee) */\n      tag_456\n      swap3\n        /* \"contracts/mirrorseaMain.sol\":8483:8494  helperLogic */\n      and\n      swap1\n        /* \"contracts/mirrorseaMain.sol\":8377:8429  uint256 fee = mintAmt.mul(feePercent).div(PRECISION) */\n      dup6\n      swap1\n        /* \"contracts/mirrorseaMain.sol\":8451:8501  IUSC(address(usc)).mint(address(helperLogic), fee) */\n      0x04\n      add\n      tag_395\n      jump\t// in\n    tag_456:\n      0x20\n      mload(0x40)\n      dup1\n      dup4\n      sub\n      dup2\n      0x00\n      dup8\n      dup1\n      extcodesize\n      iszero\n      dup1\n      iszero\n      tag_457\n      jumpi\n      0x00\n      dup1\n      revert\n    tag_457:\n      pop\n      gas\n      call\n      iszero\n      dup1\n      iszero\n      tag_459\n      jumpi\n      returndatasize\n      0x00\n      dup1\n      returndatacopy\n      revert(0x00, returndatasize)\n    tag_459:\n      pop\n      pop\n      pop\n      pop\n      mload(0x40)\n      returndatasize\n      not(0x1f)\n      0x1f\n      dup3\n      add\n      and\n      dup3\n      add\n      dup1\n      0x40\n      mstore\n      pop\n      dup2\n      add\n      swap1\n      tag_460\n      swap2\n      swap1\n      tag_228\n      jump\t// in\n    tag_460:\n      pop\n        /* \"contracts/mirrorseaMain.sol\":8536:8539  usc */\n      sload(0x67)\n        /* \"contracts/mirrorseaMain.sol\":8547:8557  order.user */\n      dup13\n      sload\n      sub(shl(0xa0, 0x01), 0x01)\n        /* \"contracts/mirrorseaMain.sol\":8536:8539  usc */\n      swap2\n      dup3\n      and\n      swap2\n        /* \"contracts/mirrorseaMain.sol\":8523:8546  IUSC(address(usc)).mint */\n      0x40c10f19\n      swap2\n        /* \"contracts/mirrorseaMain.sol\":8547:8557  order.user */\n      and\n        /* \"contracts/mirrorseaMain.sol\":8559:8575  mintAmt.sub(fee) */\n      tag_461\n        /* \"contracts/mirrorseaMain.sol\":8559:8566  mintAmt */\n      dup6\n        /* \"contracts/mirrorseaMain.sol\":8571:8574  fee */\n      dup6\n        /* \"contracts/mirrorseaMain.sol\":8559:8570  mintAmt.sub */\n      tag_256\n        /* \"contracts/mirrorseaMain.sol\":8559:8575  mintAmt.sub(fee) */\n      jump\t// in\n    tag_461:\n        /* \"contracts/mirrorseaMain.sol\":8523:8576  IUSC(address(usc)).mint(order.user, mintAmt.sub(fee)) */\n      mload(0x40)\n      dup4\n      0xffffffff\n      and\n      0xe0\n      shl\n      dup2\n      mstore\n      0x04\n      add\n      tag_462\n      swap3\n      swap2\n      swap1\n      tag_395\n      jump\t// in\n    tag_462:\n      0x20\n      mload(0x40)\n      dup1\n      dup4\n      sub\n      dup2\n      0x00\n      dup8\n      dup1\n      extcodesize\n      iszero\n      dup1\n      iszero\n      tag_463\n      jumpi\n      0x00\n      dup1\n      revert\n    tag_463:\n      pop\n      gas\n      call\n      iszero\n      dup1\n      iszero\n      tag_465\n      jumpi\n      returndatasize\n      0x00\n      dup1\n      returndatacopy\n      revert(0x00, returndatasize)\n    tag_465:\n      pop\n      pop\n      pop\n      pop\n      mload(0x40)\n      returndatasize\n      not(0x1f)\n      0x1f\n      dup3\n      add\n      and\n      dup3\n      add\n      dup1\n      0x40\n      mstore\n      pop\n      dup2\n      add\n      swap1\n      tag_466\n      swap2\n      swap1\n      tag_228\n      jump\t// in\n    tag_466:\n      pop\n        /* \"contracts/mirrorseaMain.sol\":8206:8595  if (diffMargin > order.margin) {... */\n      pop\n    tag_452:\n        /* \"contracts/mirrorseaMain.sol\":7557:9660  if (order.direction == 1) {... */\n      jump(tag_489)\n    tag_429:\n        /* \"contracts/mirrorseaMain.sol\":8664:8669  order */\n      dup11\n        /* \"contracts/mirrorseaMain.sol\":8664:8681  order.openPrice18 */\n      0x05\n      add\n      sload\n        /* \"contracts/mirrorseaMain.sol\":8643:8648  order */\n      dup12\n        /* \"contracts/mirrorseaMain.sol\":8643:8661  order.closePrice18 */\n      0x07\n      add\n      sload\n        /* \"contracts/mirrorseaMain.sol\":8643:8681  order.closePrice18 < order.openPrice18 */\n      lt\n        /* \"contracts/mirrorseaMain.sol\":8639:9650  if (order.closePrice18 < order.openPrice18) {... */\n      iszero\n      tag_468\n      jumpi\n        /* \"contracts/mirrorseaMain.sol\":8737:8755  order.closePrice18 */\n      0x07\n      dup12\n      add\n      sload\n        /* \"contracts/mirrorseaMain.sol\":8715:8732  order.openPrice18 */\n      0x05\n      dup13\n      add\n      sload\n        /* \"contracts/mirrorseaMain.sol\":8715:8756  order.openPrice18.sub(order.closePrice18) */\n      tag_469\n      swap2\n        /* \"contracts/mirrorseaMain.sol\":8715:8736  order.openPrice18.sub */\n      tag_256\n        /* \"contracts/mirrorseaMain.sol\":8715:8756  order.openPrice18.sub(order.closePrice18) */\n      jump\t// in\n    tag_469:\n        /* \"contracts/mirrorseaMain.sol\":8701:8756  diffPrice18 = order.openPrice18.sub(order.closePrice18) */\n      swap3\n      pop\n        /* \"contracts/mirrorseaMain.sol\":8787:8813  diffPrice18.mul(order.amt) */\n      tag_470\n        /* \"contracts/mirrorseaMain.sol\":8803:8808  order */\n      dup12\n        /* \"contracts/mirrorseaMain.sol\":8803:8812  order.amt */\n      0x09\n      add\n      sload\n        /* \"contracts/mirrorseaMain.sol\":8787:8798  diffPrice18 */\n      dup5\n        /* \"contracts/mirrorseaMain.sol\":8787:8802  diffPrice18.mul */\n      tag_233\n      swap1\n        /* \"contracts/mirrorseaMain.sol\":8787:8813  diffPrice18.mul(order.amt) */\n      swap2\n      swap1\n      0xffffffff\n      and\n      jump\t// in\n    tag_470:\n        /* \"contracts/mirrorseaMain.sol\":8841:8853  order.margin */\n      0x0a\n      dup13\n      add\n      sload\n        /* \"contracts/mirrorseaMain.sol\":8774:8813  diffMargin = diffPrice18.mul(order.amt) */\n      swap1\n      swap3\n      pop\n        /* \"contracts/mirrorseaMain.sol\":8841:8869  order.margin.add(diffMargin) */\n      tag_453\n      swap1\n        /* \"contracts/mirrorseaMain.sol\":8774:8813  diffMargin = diffPrice18.mul(order.amt) */\n      dup4\n        /* \"contracts/mirrorseaMain.sol\":8841:8857  order.margin.add */\n      tag_434\n        /* \"contracts/mirrorseaMain.sol\":8841:8869  order.margin.add(diffMargin) */\n      jump\t// in\n        /* \"contracts/mirrorseaMain.sol\":8639:9650  if (order.closePrice18 < order.openPrice18) {... */\n    tag_468:\n        /* \"contracts/mirrorseaMain.sol\":9154:9171  order.openPrice18 */\n      0x05\n      dup12\n      add\n      sload\n        /* \"contracts/mirrorseaMain.sol\":9131:9149  order.closePrice18 */\n      0x07\n      dup13\n      add\n      sload\n        /* \"contracts/mirrorseaMain.sol\":9131:9172  order.closePrice18.sub(order.openPrice18) */\n      tag_486\n      swap2\n        /* \"contracts/mirrorseaMain.sol\":9131:9153  order.closePrice18.sub */\n      tag_256\n        /* \"contracts/mirrorseaMain.sol\":9131:9172  order.closePrice18.sub(order.openPrice18) */\n      jump\t// in\n    tag_486:\n        /* \"contracts/mirrorseaMain.sol\":9117:9172  diffPrice18 = order.closePrice18.sub(order.openPrice18) */\n      swap3\n      pop\n        /* \"contracts/mirrorseaMain.sol\":9203:9229  diffPrice18.mul(order.amt) */\n      tag_487\n        /* \"contracts/mirrorseaMain.sol\":9219:9224  order */\n      dup12\n        /* \"contracts/mirrorseaMain.sol\":9219:9228  order.amt */\n      0x09\n      add\n      sload\n        /* \"contracts/mirrorseaMain.sol\":9203:9214  diffPrice18 */\n      dup5\n        /* \"contracts/mirrorseaMain.sol\":9203:9218  diffPrice18.mul */\n      tag_233\n      swap1\n        /* \"contracts/mirrorseaMain.sol\":9203:9229  diffPrice18.mul(order.amt) */\n      swap2\n      swap1\n      0xffffffff\n      and\n      jump\t// in\n    tag_487:\n        /* \"contracts/mirrorseaMain.sol\":9190:9229  diffMargin = diffPrice18.mul(order.amt) */\n      swap2\n      pop\n        /* \"contracts/mirrorseaMain.sol\":9264:9269  order */\n      dup11\n        /* \"contracts/mirrorseaMain.sol\":9264:9276  order.margin */\n      0x0a\n      add\n      sload\n        /* \"contracts/mirrorseaMain.sol\":9251:9261  diffMargin */\n      dup3\n        /* \"contracts/mirrorseaMain.sol\":9251:9276  diffMargin > order.margin */\n      gt\n        /* \"contracts/mirrorseaMain.sol\":9247:9636  if (diffMargin > order.margin) {... */\n      iszero\n      tag_488\n      jumpi\n      pop\n        /* \"contracts/mirrorseaMain.sol\":9310:9311  0 */\n      0x00\n        /* \"contracts/mirrorseaMain.sol\":9247:9636  if (diffMargin > order.margin) {... */\n      jump(tag_489)\n    tag_488:\n        /* \"contracts/mirrorseaMain.sol\":9368:9380  order.margin */\n      0x0a\n      dup12\n      add\n      sload\n        /* \"contracts/mirrorseaMain.sol\":9368:9396  order.margin.sub(diffMargin) */\n      tag_490\n      swap1\n        /* \"contracts/mirrorseaMain.sol\":9385:9395  diffMargin */\n      dup4\n        /* \"contracts/mirrorseaMain.sol\":9368:9384  order.margin.sub */\n      tag_256\n        /* \"contracts/mirrorseaMain.sol\":9368:9396  order.margin.sub(diffMargin) */\n      jump\t// in\n    tag_490:\n        /* \"contracts/mirrorseaMain.sol\":9358:9396  mintAmt = order.margin.sub(diffMargin) */\n      swap1\n      pop\n        /* \"contracts/mirrorseaMain.sol\":9418:9429  uint256 fee */\n      0x00\n        /* \"contracts/mirrorseaMain.sol\":9432:9470  mintAmt.mul(feePercent).div(PRECISION) */\n      tag_491\n        /* \"contracts/mirrorseaMain.sol\":9460:9469  PRECISION */\n      sload(0x73)\n        /* \"contracts/mirrorseaMain.sol\":9432:9455  mintAmt.mul(feePercent) */\n      tag_247\n        /* \"contracts/mirrorseaMain.sol\":9444:9454  feePercent */\n      sload(0x72)\n        /* \"contracts/mirrorseaMain.sol\":9432:9439  mintAmt */\n      dup6\n        /* \"contracts/mirrorseaMain.sol\":9432:9443  mintAmt.mul */\n      tag_233\n      swap1\n        /* \"contracts/mirrorseaMain.sol\":9432:9455  mintAmt.mul(feePercent) */\n      swap2\n      swap1\n      0xffffffff\n      and\n      jump\t// in\n        /* \"contracts/mirrorseaMain.sol\":9432:9470  mintAmt.mul(feePercent).div(PRECISION) */\n    tag_491:\n        /* \"contracts/mirrorseaMain.sol\":9505:9508  usc */\n      sload(0x67)\n        /* \"contracts/mirrorseaMain.sol\":9524:9535  helperLogic */\n      sload(0x68)\n        /* \"contracts/mirrorseaMain.sol\":9492:9542  IUSC(address(usc)).mint(address(helperLogic), fee) */\n      mload(0x40)\n      shl(0xe0, 0x40c10f19)\n      dup2\n      mstore\n        /* \"contracts/mirrorseaMain.sol\":9418:9470  uint256 fee = mintAmt.mul(feePercent).div(PRECISION) */\n      swap3\n      swap4\n      pop\n      sub(shl(0xa0, 0x01), 0x01)\n        /* \"contracts/mirrorseaMain.sol\":9505:9508  usc */\n      swap2\n      dup3\n      and\n      swap3\n        /* \"contracts/mirrorseaMain.sol\":9492:9515  IUSC(address(usc)).mint */\n      0x40c10f19\n      swap3\n        /* \"contracts/mirrorseaMain.sol\":9492:9542  IUSC(address(usc)).mint(address(helperLogic), fee) */\n      tag_493\n      swap3\n        /* \"contracts/mirrorseaMain.sol\":9524:9535  helperLogic */\n      and\n      swap1\n        /* \"contracts/mirrorseaMain.sol\":9418:9470  uint256 fee = mintAmt.mul(feePercent).div(PRECISION) */\n      dup6\n      swap1\n        /* \"contracts/mirrorseaMain.sol\":9492:9542  IUSC(address(usc)).mint(address(helperLogic), fee) */\n      0x04\n      add\n      tag_395\n      jump\t// in\n    tag_493:\n      0x20\n      mload(0x40)\n      dup1\n      dup4\n      sub\n      dup2\n      0x00\n      dup8\n      dup1\n      extcodesize\n      iszero\n      dup1\n      iszero\n      tag_494\n      jumpi\n      0x00\n      dup1\n      revert\n    tag_494:\n      pop\n      gas\n      call\n      iszero\n      dup1\n      iszero\n      tag_496\n      jumpi\n      returndatasize\n      0x00\n      dup1\n      returndatacopy\n      revert(0x00, returndatasize)\n    tag_496:\n      pop\n      pop\n      pop\n      pop\n      mload(0x40)\n      returndatasize\n      not(0x1f)\n      0x1f\n      dup3\n      add\n      and\n      dup3\n      add\n      dup1\n      0x40\n      mstore\n      pop\n      dup2\n      add\n      swap1\n      tag_497\n      swap2\n      swap1\n      tag_228\n      jump\t// in\n    tag_497:\n      pop\n        /* \"contracts/mirrorseaMain.sol\":9577:9580  usc */\n      sload(0x67)\n        /* \"contracts/mirrorseaMain.sol\":9588:9598  order.user */\n      dup13\n      sload\n      sub(shl(0xa0, 0x01), 0x01)\n        /* \"contracts/mirrorseaMain.sol\":9577:9580  usc */\n      swap2\n      dup3\n      and\n      swap2\n        /* \"contracts/mirrorseaMain.sol\":9564:9587  IUSC(address(usc)).mint */\n      0x40c10f19\n      swap2\n        /* \"contracts/mirrorseaMain.sol\":9588:9598  order.user */\n      and\n        /* \"contracts/mirrorseaMain.sol\":9600:9616  mintAmt.sub(fee) */\n      tag_498\n        /* \"contracts/mirrorseaMain.sol\":9600:9607  mintAmt */\n      dup6\n        /* \"contracts/mirrorseaMain.sol\":9612:9615  fee */\n      dup6\n        /* \"contracts/mirrorseaMain.sol\":9600:9611  mintAmt.sub */\n      tag_256\n        /* \"contracts/mirrorseaMain.sol\":9600:9616  mintAmt.sub(fee) */\n      jump\t// in\n    tag_498:\n        /* \"contracts/mirrorseaMain.sol\":9564:9617  IUSC(address(usc)).mint(order.user, mintAmt.sub(fee)) */\n      mload(0x40)\n      dup4\n      0xffffffff\n      and\n      0xe0\n      shl\n      dup2\n      mstore\n      0x04\n      add\n      tag_499\n      swap3\n      swap2\n      swap1\n      tag_395\n      jump\t// in\n    tag_499:\n      0x20\n      mload(0x40)\n      dup1\n      dup4\n      sub\n      dup2\n      0x00\n      dup8\n      dup1\n      extcodesize\n      iszero\n      dup1\n      iszero\n      tag_500\n      jumpi\n      0x00\n      dup1\n      revert\n    tag_500:\n      pop\n      gas\n      call\n      iszero\n      dup1\n      iszero\n      tag_502\n      jumpi\n      returndatasize\n      0x00\n      dup1\n      returndatacopy\n      revert(0x00, returndatasize)\n    tag_502:\n      pop\n      pop\n      pop\n      pop\n      mload(0x40)\n      returndatasize\n      not(0x1f)\n      0x1f\n      dup3\n      add\n      and\n      dup3\n      add\n      dup1\n      0x40\n      mstore\n      pop\n      dup2\n      add\n      swap1\n      tag_503\n      swap2\n      swap1\n      tag_228\n      jump\t// in\n    tag_503:\n      pop\n        /* \"contracts/mirrorseaMain.sol\":9247:9636  if (diffMargin > order.margin) {... */\n      pop\n    tag_489:\n        /* \"contracts/mirrorseaMain.sol\":9669:9680  helperLogic */\n      0x68\n      0x00\n      swap1\n      sload\n      swap1\n      0x0100\n      exp\n      swap1\n      div\n      sub(shl(0xa0, 0x01), 0x01)\n      and\n      sub(shl(0xa0, 0x01), 0x01)\n        /* \"contracts/mirrorseaMain.sol\":9669:9695  helperLogic.jointExecution */\n      and\n      0xd10c06a2\n        /* \"contracts/mirrorseaMain.sol\":9669:9697  helperLogic.jointExecution() */\n      mload(0x40)\n      dup2\n      0xffffffff\n      and\n      0xe0\n      shl\n      dup2\n      mstore\n      0x04\n      add\n      0x20\n      mload(0x40)\n      dup1\n      dup4\n      sub\n      dup2\n      0x00\n      dup8\n      dup1\n      extcodesize\n      iszero\n      dup1\n      iszero\n      tag_504\n      jumpi\n      0x00\n      dup1\n      revert\n    tag_504:\n      pop\n      gas\n      call\n      iszero\n      dup1\n      iszero\n      tag_506\n      jumpi\n      returndatasize\n      0x00\n      dup1\n      returndatacopy\n      revert(0x00, returndatasize)\n    tag_506:\n      pop\n      pop\n      pop\n      pop\n      mload(0x40)\n      returndatasize\n      not(0x1f)\n      0x1f\n      dup3\n      add\n      and\n      dup3\n      add\n      dup1\n      0x40\n      mstore\n      pop\n      dup2\n      add\n      swap1\n      tag_507\n      swap2\n      swap1\n      tag_228\n      jump\t// in\n    tag_507:\n      pop\n        /* \"contracts/mirrorseaMain.sol\":9708:9719  order.state */\n      0x03\n      dup12\n      add\n        /* \"contracts/mirrorseaMain.sol\":9708:9728  order.state = _state */\n      dup11\n      swap1\n      sstore\n        /* \"contracts/mirrorseaMain.sol\":9738:9756  order.closePrice18 */\n      0x07\n      dup12\n      add\n        /* \"contracts/mirrorseaMain.sol\":9738:9767  order.closePrice18 = _price18 */\n      dup7\n      swap1\n      sstore\n        /* \"contracts/mirrorseaMain.sol\":9777:9792  order.closeTime */\n      0x08\n      dup12\n      add\n        /* \"contracts/mirrorseaMain.sol\":9777:9805  order.closeTime = _timestamp */\n      dup9\n      swap1\n      sstore\n        /* \"contracts/mirrorseaMain.sol\":9816:9872  cutListItem(_id, openOrderIdList_index, openOrderIdList) */\n      tag_508\n        /* \"contracts/mirrorseaMain.sol\":9828:9831  _id */\n      dup10\n        /* \"contracts/mirrorseaMain.sol\":9833:9854  openOrderIdList_index */\n      0x6d\n        /* \"contracts/mirrorseaMain.sol\":9856:9871  openOrderIdList */\n      0x6c\n        /* \"contracts/mirrorseaMain.sol\":9816:9827  cutListItem */\n      tag_509\n        /* \"contracts/mirrorseaMain.sol\":9816:9872  cutListItem(_id, openOrderIdList_index, openOrderIdList) */\n      jump\t// in\n    tag_508:\n        /* \"contracts/mirrorseaMain.sol\":9948:9958  msg.sender */\n      caller\n        /* \"contracts/mirrorseaMain.sol\":9924:9959  myOpenOrderIdList_index[msg.sender] */\n      0x00\n      swap1\n      dup2\n      mstore\n        /* \"contracts/mirrorseaMain.sol\":9924:9947  myOpenOrderIdList_index */\n      0x6f\n        /* \"contracts/mirrorseaMain.sol\":9924:9959  myOpenOrderIdList_index[msg.sender] */\n      0x20\n      swap1\n      dup2\n      mstore\n      0x40\n      dup1\n      dup4\n      keccak256\n        /* \"contracts/mirrorseaMain.sol\":9973:9990  myOpenOrderIdList */\n      0x6e\n        /* \"contracts/mirrorseaMain.sol\":9973:10002  myOpenOrderIdList[msg.sender] */\n      swap1\n      swap3\n      mstore\n      swap1\n      swap2\n      keccak256\n        /* \"contracts/mirrorseaMain.sol\":9882:10012  cutListItem(... */\n      tag_510\n      swap2\n        /* \"contracts/mirrorseaMain.sol\":9907:9910  _id */\n      dup12\n      swap2\n        /* \"contracts/mirrorseaMain.sol\":9882:9893  cutListItem */\n      tag_509\n        /* \"contracts/mirrorseaMain.sol\":9882:10012  cutListItem(... */\n      jump\t// in\n    tag_510:\n        /* \"contracts/mirrorseaMain.sol\":10042:10052  msg.sender */\n      caller\n        /* \"contracts/mirrorseaMain.sol\":10023:10053  myCloseOrderIdList[msg.sender] */\n      0x00\n      dup2\n      dup2\n      mstore\n        /* \"contracts/mirrorseaMain.sol\":10023:10041  myCloseOrderIdList */\n      0x70\n        /* \"contracts/mirrorseaMain.sol\":10023:10053  myCloseOrderIdList[msg.sender] */\n      0x20\n      swap1\n      dup2\n      mstore\n      0x40\n      dup3\n      keccak256\n        /* \"contracts/mirrorseaMain.sol\":10023:10063  myCloseOrderIdList[msg.sender].push(_id) */\n      dup1\n      sload\n      0x01\n      dup2\n      dup2\n      add\n      dup4\n      sstore\n      dup3\n      dup6\n      mstore\n      swap3\n      dup5\n      keccak256\n      add\n      dup14\n      swap1\n      sstore\n        /* \"contracts/mirrorseaMain.sol\":10117:10169  myCloseOrderIdList[... */\n      swap3\n      swap1\n      swap2\n      mstore\n        /* \"contracts/mirrorseaMain.sol\":10117:10176  myCloseOrderIdList[... */\n      swap1\n      sload\n        /* \"contracts/mirrorseaMain.sol\":10117:10183  myCloseOrderIdList[... */\n      tag_512\n      swap2\n        /* \"contracts/mirrorseaMain.sol\":10117:10180  myCloseOrderIdList[... */\n      tag_256\n        /* \"contracts/mirrorseaMain.sol\":10117:10183  myCloseOrderIdList[... */\n      jump\t// in\n    tag_512:\n        /* \"contracts/mirrorseaMain.sol\":10098:10108  msg.sender */\n      caller\n        /* \"contracts/mirrorseaMain.sol\":10073:10109  myCloseOrderIdList_index[msg.sender] */\n      0x00\n      swap1\n      dup2\n      mstore\n        /* \"contracts/mirrorseaMain.sol\":10073:10097  myCloseOrderIdList_index */\n      0x71\n        /* \"contracts/mirrorseaMain.sol\":10073:10109  myCloseOrderIdList_index[msg.sender] */\n      0x20\n      swap1\n      dup2\n      mstore\n      0x40\n      dup1\n      dup4\n      keccak256\n        /* \"contracts/mirrorseaMain.sol\":10073:10114  myCloseOrderIdList_index[msg.sender][_id] */\n      dup14\n      dup5\n      mstore\n      swap1\n      swap2\n      mstore\n      swap1\n      keccak256\n        /* \"contracts/mirrorseaMain.sol\":10073:10183  myCloseOrderIdList_index[msg.sender][_id] = myCloseOrderIdList[... */\n      sstore\n      pop\n        /* \"contracts/mirrorseaMain.sol\":10571:10575  true */\n      0x01\n      swap3\n      pop\n      pop\n      pop\n        /* \"contracts/mirrorseaMain.sol\":6936:10582  function _closePosition(... */\n      swap8\n      swap7\n      pop\n      pop\n      pop\n      pop\n      pop\n      pop\n      pop\n      jump\t// out\n        /* \"@openzeppelin/contracts-upgradeable/access/OwnableUpgradeable.sol\":2536:2723  function _transferOwnership(address newOwner) internal virtual {... */\n    tag_313:\n        /* \"@openzeppelin/contracts-upgradeable/access/OwnableUpgradeable.sol\":2628:2634  _owner */\n      0x33\n      dup1\n      sload\n      sub(shl(0xa0, 0x01), 0x01)\n        /* \"@openzeppelin/contracts-upgradeable/access/OwnableUpgradeable.sol\":2644:2661  _owner = newOwner */\n      dup4\n      dup2\n      and\n      not(sub(shl(0xa0, 0x01), 0x01))\n      dup4\n      and\n      dup2\n      or\n      swap1\n      swap4\n      sstore\n        /* \"@openzeppelin/contracts-upgradeable/access/OwnableUpgradeable.sol\":2676:2716  OwnershipTransferred(oldOwner, newOwner) */\n      mload(0x40)\n        /* \"@openzeppelin/contracts-upgradeable/access/OwnableUpgradeable.sol\":2628:2634  _owner */\n      swap2\n      and\n      swap2\n        /* \"@openzeppelin/contracts-upgradeable/access/OwnableUpgradeable.sol\":2644:2661  _owner = newOwner */\n      swap1\n        /* \"@openzeppelin/contracts-upgradeable/access/OwnableUpgradeable.sol\":2628:2634  _owner */\n      dup3\n      swap1\n        /* \"@openzeppelin/contracts-upgradeable/access/OwnableUpgradeable.sol\":2676:2716  OwnershipTransferred(oldOwner, newOwner) */\n      0x8be0079c531659141344cd1fd0a4f28419497f9722a3daafe3b4186f6b6457e0\n      swap1\n        /* \"@openzeppelin/contracts-upgradeable/access/OwnableUpgradeable.sol\":2609:2625  address oldOwner */\n      0x00\n      swap1\n        /* \"@openzeppelin/contracts-upgradeable/access/OwnableUpgradeable.sol\":2676:2716  OwnershipTransferred(oldOwner, newOwner) */\n      log3\n        /* \"@openzeppelin/contracts-upgradeable/access/OwnableUpgradeable.sol\":2536:2723  function _transferOwnership(address newOwner) internal virtual {... */\n      pop\n      pop\n      jump\t// out\n        /* \"@openzeppelin/contracts-upgradeable/access/OwnableUpgradeable.sol\":988:1114  function __Ownable_init() internal initializer {... */\n    tag_372:\n        /* \"@openzeppelin/contracts-upgradeable/proxy/utils/Initializable.sol\":539:552  _initializing */\n      sload(0x00)\n      0x0100\n      swap1\n      div\n      0xff\n      and\n      dup1\n        /* \"@openzeppelin/contracts-upgradeable/proxy/utils/Initializable.sol\":539:569  _initializing || !_initialized */\n      tag_515\n      jumpi\n      pop\n        /* \"@openzeppelin/contracts-upgradeable/proxy/utils/Initializable.sol\":557:569  _initialized */\n      and(0xff, sload(0x00))\n        /* \"@openzeppelin/contracts-upgradeable/proxy/utils/Initializable.sol\":556:569  !_initialized */\n      iszero\n        /* \"@openzeppelin/contracts-upgradeable/proxy/utils/Initializable.sol\":539:569  _initializing || !_initialized */\n    tag_515:\n        /* \"@openzeppelin/contracts-upgradeable/proxy/utils/Initializable.sol\":531:620  require(_initializing || !_initialized, \"Initializable: contract is already initialized\") */\n      tag_516\n      jumpi\n      mload(0x40)\n      shl(0xe5, 0x461bcd)\n      dup2\n      mstore\n      0x04\n      add\n      tag_193\n      swap1\n      tag_368\n      jump\t// in\n    tag_516:\n        /* \"@openzeppelin/contracts-upgradeable/proxy/utils/Initializable.sol\":631:650  bool isTopLevelCall */\n      0x00\n        /* \"@openzeppelin/contracts-upgradeable/proxy/utils/Initializable.sol\":654:667  _initializing */\n      sload\n      0x0100\n      swap1\n      div\n      0xff\n      and\n        /* \"@openzeppelin/contracts-upgradeable/proxy/utils/Initializable.sol\":653:667  !_initializing */\n      iszero\n        /* \"@openzeppelin/contracts-upgradeable/proxy/utils/Initializable.sol\":677:775  if (isTopLevelCall) {... */\n      dup1\n      iszero\n      tag_518\n      jumpi\n        /* \"@openzeppelin/contracts-upgradeable/proxy/utils/Initializable.sol\":711:724  _initializing */\n      0x00\n        /* \"@openzeppelin/contracts-upgradeable/proxy/utils/Initializable.sol\":711:731  _initializing = true */\n      dup1\n      sload\n      not(0xff)\n      not(0xff00)\n      swap1\n      swap2\n      and\n      0x0100\n      or\n        /* \"@openzeppelin/contracts-upgradeable/proxy/utils/Initializable.sol\":745:764  _initialized = true */\n      and\n        /* \"@openzeppelin/contracts-upgradeable/proxy/utils/Initializable.sol\":727:731  true */\n      0x01\n        /* \"@openzeppelin/contracts-upgradeable/proxy/utils/Initializable.sol\":745:764  _initialized = true */\n      or\n      swap1\n      sstore\n        /* \"@openzeppelin/contracts-upgradeable/proxy/utils/Initializable.sol\":677:775  if (isTopLevelCall) {... */\n    tag_518:\n        /* \"@openzeppelin/contracts-upgradeable/access/OwnableUpgradeable.sol\":1045:1071  __Context_init_unchained() */\n      tag_520\n        /* \"@openzeppelin/contracts-upgradeable/access/OwnableUpgradeable.sol\":1045:1069  __Context_init_unchained */\n      tag_521\n        /* \"@openzeppelin/contracts-upgradeable/access/OwnableUpgradeable.sol\":1045:1071  __Context_init_unchained() */\n      jump\t// in\n    tag_520:\n        /* \"@openzeppelin/contracts-upgradeable/access/OwnableUpgradeable.sol\":1081:1107  __Ownable_init_unchained() */\n      tag_522\n        /* \"@openzeppelin/contracts-upgradeable/access/OwnableUpgradeable.sol\":1081:1105  __Ownable_init_unchained */\n      tag_523\n        /* \"@openzeppelin/contracts-upgradeable/access/OwnableUpgradeable.sol\":1081:1107  __Ownable_init_unchained() */\n      jump\t// in\n    tag_522:\n        /* \"@openzeppelin/contracts-upgradeable/proxy/utils/Initializable.sol\":801:815  isTopLevelCall */\n      dup1\n        /* \"@openzeppelin/contracts-upgradeable/proxy/utils/Initializable.sol\":797:863  if (isTopLevelCall) {... */\n      iszero\n      tag_363\n      jumpi\n        /* \"@openzeppelin/contracts-upgradeable/proxy/utils/Initializable.sol\":847:852  false */\n      0x00\n        /* \"@openzeppelin/contracts-upgradeable/proxy/utils/Initializable.sol\":831:852  _initializing = false */\n      dup1\n      sload\n      not(0xff00)\n      and\n      swap1\n      sstore\n        /* \"@openzeppelin/contracts-upgradeable/access/OwnableUpgradeable.sol\":988:1114  function __Ownable_init() internal initializer {... */\n      pop\n      jump\t// out\n        /* \"@openzeppelin/contracts-upgradeable/token/ERC20/utils/SafeERC20Upgradeable.sol\":3306:4023  function _callOptionalReturn(IERC20Upgradeable token, bytes memory data) private {... */\n    tag_388:\n        /* \"@openzeppelin/contracts-upgradeable/token/ERC20/utils/SafeERC20Upgradeable.sol\":3736:3759  bytes memory returndata */\n      0x00\n        /* \"@openzeppelin/contracts-upgradeable/token/ERC20/utils/SafeERC20Upgradeable.sol\":3762:3831  address(token).functionCall(data, \"SafeERC20: low-level call failed\") */\n      tag_526\n        /* \"@openzeppelin/contracts-upgradeable/token/ERC20/utils/SafeERC20Upgradeable.sol\":3790:3794  data */\n      dup3\n        /* \"@openzeppelin/contracts-upgradeable/token/ERC20/utils/SafeERC20Upgradeable.sol\":3762:3831  address(token).functionCall(data, \"SafeERC20: low-level call failed\") */\n      mload(0x40)\n      dup1\n      0x40\n      add\n      0x40\n      mstore\n      dup1\n      0x20\n      dup2\n      mstore\n      0x20\n      add\n      0x5361666545524332303a206c6f772d6c6576656c2063616c6c206661696c6564\n      dup2\n      mstore\n      pop\n        /* \"@openzeppelin/contracts-upgradeable/token/ERC20/utils/SafeERC20Upgradeable.sol\":3770:3775  token */\n      dup6\n      sub(shl(0xa0, 0x01), 0x01)\n        /* \"@openzeppelin/contracts-upgradeable/token/ERC20/utils/SafeERC20Upgradeable.sol\":3762:3789  address(token).functionCall */\n      and\n      tag_527\n      swap1\n        /* \"@openzeppelin/contracts-upgradeable/token/ERC20/utils/SafeERC20Upgradeable.sol\":3762:3831  address(token).functionCall(data, \"SafeERC20: low-level call failed\") */\n      swap3\n      swap2\n      swap1\n      0xffffffff\n      and\n      jump\t// in\n    tag_526:\n        /* \"@openzeppelin/contracts-upgradeable/token/ERC20/utils/SafeERC20Upgradeable.sol\":3845:3862  returndata.length */\n      dup1\n      mload\n        /* \"@openzeppelin/contracts-upgradeable/token/ERC20/utils/SafeERC20Upgradeable.sol\":3736:3831  bytes memory returndata = address(token).functionCall(data, \"SafeERC20: low-level call failed\") */\n      swap1\n      swap2\n      pop\n        /* \"@openzeppelin/contracts-upgradeable/token/ERC20/utils/SafeERC20Upgradeable.sol\":3845:3866  returndata.length > 0 */\n      iszero\n        /* \"@openzeppelin/contracts-upgradeable/token/ERC20/utils/SafeERC20Upgradeable.sol\":3841:4017  if (returndata.length > 0) {... */\n      tag_393\n      jumpi\n        /* \"@openzeppelin/contracts-upgradeable/token/ERC20/utils/SafeERC20Upgradeable.sol\":3940:3950  returndata */\n      dup1\n        /* \"@openzeppelin/contracts-upgradeable/token/ERC20/utils/SafeERC20Upgradeable.sol\":3929:3959  abi.decode(returndata, (bool)) */\n      dup1\n      0x20\n      add\n      swap1\n      mload\n      dup2\n      add\n      swap1\n      tag_529\n      swap2\n      swap1\n      tag_228\n      jump\t// in\n    tag_529:\n        /* \"@openzeppelin/contracts-upgradeable/token/ERC20/utils/SafeERC20Upgradeable.sol\":3921:4006  require(abi.decode(returndata, (bool)), \"SafeERC20: ERC20 operation did not succeed\") */\n      tag_393\n      jumpi\n      mload(0x40)\n      shl(0xe5, 0x461bcd)\n      dup2\n      mstore\n      0x04\n      add\n      tag_193\n      swap1\n      tag_532\n      jump\t// in\n        /* \"@openzeppelin/contracts-upgradeable/utils/math/SafeMathUpgradeable.sol\":2752:2848  function add(uint256 a, uint256 b) internal pure returns (uint256) {... */\n    tag_434:\n        /* \"@openzeppelin/contracts-upgradeable/utils/math/SafeMathUpgradeable.sol\":2810:2817  uint256 */\n      0x00\n        /* \"@openzeppelin/contracts-upgradeable/utils/math/SafeMathUpgradeable.sol\":2836:2841  a + b */\n      tag_383\n        /* \"@openzeppelin/contracts-upgradeable/utils/math/SafeMathUpgradeable.sol\":2840:2841  b */\n      dup3\n        /* \"@openzeppelin/contracts-upgradeable/utils/math/SafeMathUpgradeable.sol\":2836:2837  a */\n      dup5\n        /* \"@openzeppelin/contracts-upgradeable/utils/math/SafeMathUpgradeable.sol\":2836:2841  a + b */\n      tag_205\n      jump\t// in\n        /* \"contracts/mirrorseaMain.sol\":11129:11555  function cutListItem(... */\n    tag_509:\n        /* \"contracts/mirrorseaMain.sol\":11286:11302  uint256 delIndex */\n      0x00\n        /* \"contracts/mirrorseaMain.sol\":11305:11321  _List_index[_id] */\n      dup4\n      dup2\n      mstore\n      0x20\n      dup4\n      swap1\n      mstore\n      0x40\n      dup2\n      keccak256\n      sload\n        /* \"contracts/mirrorseaMain.sol\":11357:11369  _List.length */\n      dup3\n      sload\n        /* \"contracts/mirrorseaMain.sol\":11305:11321  _List_index[_id] */\n      swap1\n      swap2\n        /* \"contracts/mirrorseaMain.sol\":11286:11302  uint256 delIndex */\n      swap1\n        /* \"contracts/mirrorseaMain.sol\":11351:11356  _List */\n      dup4\n      swap1\n        /* \"contracts/mirrorseaMain.sol\":11357:11376  _List.length.sub(1) */\n      tag_536\n      swap1\n        /* \"contracts/mirrorseaMain.sol\":11374:11375  1 */\n      0x01\n        /* \"contracts/mirrorseaMain.sol\":11357:11373  _List.length.sub */\n      tag_256\n        /* \"contracts/mirrorseaMain.sol\":11357:11376  _List.length.sub(1) */\n      jump\t// in\n    tag_536:\n        /* \"contracts/mirrorseaMain.sol\":11351:11377  _List[_List.length.sub(1)] */\n      dup2\n      sload\n      dup2\n      lt\n      tag_537\n      jumpi\n      mstore(0x00, shl(0xe0, 0x4e487b71))\n      mstore(0x04, 0x32)\n      revert(0x00, 0x24)\n    tag_537:\n      swap1\n      0x00\n      mstore\n      keccak256(0x00, 0x20)\n      add\n      sload\n        /* \"contracts/mirrorseaMain.sol\":11331:11377  uint256 lastIndex = _List[_List.length.sub(1)] */\n      swap1\n      pop\n        /* \"contracts/mirrorseaMain.sol\":11387:11401  uint256 lastID */\n      0x00\n        /* \"contracts/mirrorseaMain.sol\":11404:11409  _List */\n      dup4\n        /* \"contracts/mirrorseaMain.sol\":11410:11419  lastIndex */\n      dup3\n        /* \"contracts/mirrorseaMain.sol\":11404:11420  _List[lastIndex] */\n      dup2\n      sload\n      dup2\n      lt\n      tag_539\n      jumpi\n      mstore(0x00, shl(0xe0, 0x4e487b71))\n      mstore(0x04, 0x32)\n      revert(0x00, 0x24)\n    tag_539:\n      swap1\n      0x00\n      mstore\n      keccak256(0x00, 0x20)\n      add\n      sload\n        /* \"contracts/mirrorseaMain.sol\":11387:11420  uint256 lastID = _List[lastIndex] */\n      swap1\n      pop\n        /* \"contracts/mirrorseaMain.sol\":11452:11460  delIndex */\n      dup3\n        /* \"contracts/mirrorseaMain.sol\":11430:11441  _List_index */\n      dup6\n        /* \"contracts/mirrorseaMain.sol\":11430:11449  _List_index[lastID] */\n      0x00\n        /* \"contracts/mirrorseaMain.sol\":11442:11448  lastID */\n      dup4\n        /* \"contracts/mirrorseaMain.sol\":11430:11449  _List_index[lastID] */\n      dup2\n      mstore\n      0x20\n      add\n      swap1\n      dup2\n      mstore\n      0x20\n      add\n      0x00\n      keccak256\n        /* \"contracts/mirrorseaMain.sol\":11430:11460  _List_index[lastID] = delIndex */\n      dup2\n      swap1\n      sstore\n      pop\n        /* \"contracts/mirrorseaMain.sol\":11488:11494  lastID */\n      dup1\n        /* \"contracts/mirrorseaMain.sol\":11470:11475  _List */\n      dup5\n        /* \"contracts/mirrorseaMain.sol\":11476:11484  delIndex */\n      dup5\n        /* \"contracts/mirrorseaMain.sol\":11470:11485  _List[delIndex] */\n      dup2\n      sload\n      dup2\n      lt\n      tag_541\n      jumpi\n      mstore(0x00, shl(0xe0, 0x4e487b71))\n      mstore(0x04, 0x32)\n      revert(0x00, 0x24)\n    tag_541:\n      0x00\n      swap2\n      dup3\n      mstore\n      0x20\n      dup1\n      dup4\n      keccak256\n      swap1\n      swap2\n      add\n        /* \"contracts/mirrorseaMain.sol\":11470:11494  _List[delIndex] = lastID */\n      swap3\n      swap1\n      swap3\n      sstore\n        /* \"contracts/mirrorseaMain.sol\":11511:11527  _List_index[_id] */\n      dup8\n      dup2\n      mstore\n      swap1\n      dup7\n      swap1\n      mstore\n      0x40\n      dup2\n      keccak256\n        /* \"contracts/mirrorseaMain.sol\":11504:11527  delete _List_index[_id] */\n      sstore\n        /* \"contracts/mirrorseaMain.sol\":11537:11548  _List.pop() */\n      dup4\n      sload\n        /* \"contracts/mirrorseaMain.sol\":11537:11542  _List */\n      dup5\n      swap1\n        /* \"contracts/mirrorseaMain.sol\":11537:11548  _List.pop() */\n      dup1\n      tag_543\n      jumpi\n      mstore(0x00, shl(0xe0, 0x4e487b71))\n      mstore(0x04, 0x31)\n      revert(0x00, 0x24)\n    tag_543:\n      0x01\n      swap1\n      sub\n      dup2\n      dup2\n      swap1\n      0x00\n      mstore\n      keccak256(0x00, 0x20)\n      add\n      0x00\n      swap1\n      sstore\n      swap1\n      sstore\n        /* \"contracts/mirrorseaMain.sol\":11129:11555  function cutListItem(... */\n      pop\n      pop\n      pop\n      pop\n      pop\n      pop\n      jump\t// out\n        /* \"@openzeppelin/contracts-upgradeable/utils/ContextUpgradeable.sol\":807:871  function __Context_init_unchained() internal initializer {... */\n    tag_521:\n        /* \"@openzeppelin/contracts-upgradeable/proxy/utils/Initializable.sol\":539:552  _initializing */\n      sload(0x00)\n      0x0100\n      swap1\n      div\n      0xff\n      and\n      dup1\n        /* \"@openzeppelin/contracts-upgradeable/proxy/utils/Initializable.sol\":539:569  _initializing || !_initialized */\n      tag_546\n      jumpi\n      pop\n        /* \"@openzeppelin/contracts-upgradeable/proxy/utils/Initializable.sol\":557:569  _initialized */\n      and(0xff, sload(0x00))\n        /* \"@openzeppelin/contracts-upgradeable/proxy/utils/Initializable.sol\":556:569  !_initialized */\n      iszero\n        /* \"@openzeppelin/contracts-upgradeable/proxy/utils/Initializable.sol\":539:569  _initializing || !_initialized */\n    tag_546:\n        /* \"@openzeppelin/contracts-upgradeable/proxy/utils/Initializable.sol\":531:620  require(_initializing || !_initialized, \"Initializable: contract is already initialized\") */\n      tag_547\n      jumpi\n      mload(0x40)\n      shl(0xe5, 0x461bcd)\n      dup2\n      mstore\n      0x04\n      add\n      tag_193\n      swap1\n      tag_368\n      jump\t// in\n    tag_547:\n        /* \"@openzeppelin/contracts-upgradeable/proxy/utils/Initializable.sol\":631:650  bool isTopLevelCall */\n      0x00\n        /* \"@openzeppelin/contracts-upgradeable/proxy/utils/Initializable.sol\":654:667  _initializing */\n      sload\n      0x0100\n      swap1\n      div\n      0xff\n      and\n        /* \"@openzeppelin/contracts-upgradeable/proxy/utils/Initializable.sol\":653:667  !_initializing */\n      iszero\n        /* \"@openzeppelin/contracts-upgradeable/proxy/utils/Initializable.sol\":677:775  if (isTopLevelCall) {... */\n      dup1\n      iszero\n      tag_522\n      jumpi\n        /* \"@openzeppelin/contracts-upgradeable/proxy/utils/Initializable.sol\":711:724  _initializing */\n      0x00\n        /* \"@openzeppelin/contracts-upgradeable/proxy/utils/Initializable.sol\":711:731  _initializing = true */\n      dup1\n      sload\n      not(0xff)\n      not(0xff00)\n      swap1\n      swap2\n      and\n      0x0100\n      or\n        /* \"@openzeppelin/contracts-upgradeable/proxy/utils/Initializable.sol\":745:764  _initialized = true */\n      and\n        /* \"@openzeppelin/contracts-upgradeable/proxy/utils/Initializable.sol\":727:731  true */\n      0x01\n        /* \"@openzeppelin/contracts-upgradeable/proxy/utils/Initializable.sol\":745:764  _initialized = true */\n      or\n      swap1\n      sstore\n        /* \"@openzeppelin/contracts-upgradeable/proxy/utils/Initializable.sol\":801:815  isTopLevelCall */\n      dup1\n        /* \"@openzeppelin/contracts-upgradeable/proxy/utils/Initializable.sol\":797:863  if (isTopLevelCall) {... */\n      iszero\n      tag_363\n      jumpi\n        /* \"@openzeppelin/contracts-upgradeable/proxy/utils/Initializable.sol\":847:852  false */\n      0x00\n        /* \"@openzeppelin/contracts-upgradeable/proxy/utils/Initializable.sol\":831:852  _initializing = false */\n      dup1\n      sload\n      not(0xff00)\n      and\n      swap1\n      sstore\n        /* \"@openzeppelin/contracts-upgradeable/utils/ContextUpgradeable.sol\":807:871  function __Context_init_unchained() internal initializer {... */\n      pop\n      jump\t// out\n        /* \"@openzeppelin/contracts-upgradeable/access/OwnableUpgradeable.sol\":1120:1226  function __Ownable_init_unchained() internal initializer {... */\n    tag_523:\n        /* \"@openzeppelin/contracts-upgradeable/proxy/utils/Initializable.sol\":539:552  _initializing */\n      sload(0x00)\n      0x0100\n      swap1\n      div\n      0xff\n      and\n      dup1\n        /* \"@openzeppelin/contracts-upgradeable/proxy/utils/Initializable.sol\":539:569  _initializing || !_initialized */\n      tag_553\n      jumpi\n      pop\n        /* \"@openzeppelin/contracts-upgradeable/proxy/utils/Initializable.sol\":557:569  _initialized */\n      and(0xff, sload(0x00))\n        /* \"@openzeppelin/contracts-upgradeable/proxy/utils/Initializable.sol\":556:569  !_initialized */\n      iszero\n        /* \"@openzeppelin/contracts-upgradeable/proxy/utils/Initializable.sol\":539:569  _initializing || !_initialized */\n    tag_553:\n        /* \"@openzeppelin/contracts-upgradeable/proxy/utils/Initializable.sol\":531:620  require(_initializing || !_initialized, \"Initializable: contract is already initialized\") */\n      tag_554\n      jumpi\n      mload(0x40)\n      shl(0xe5, 0x461bcd)\n      dup2\n      mstore\n      0x04\n      add\n      tag_193\n      swap1\n      tag_368\n      jump\t// in\n    tag_554:\n        /* \"@openzeppelin/contracts-upgradeable/proxy/utils/Initializable.sol\":631:650  bool isTopLevelCall */\n      0x00\n        /* \"@openzeppelin/contracts-upgradeable/proxy/utils/Initializable.sol\":654:667  _initializing */\n      sload\n      0x0100\n      swap1\n      div\n      0xff\n      and\n        /* \"@openzeppelin/contracts-upgradeable/proxy/utils/Initializable.sol\":653:667  !_initializing */\n      iszero\n        /* \"@openzeppelin/contracts-upgradeable/proxy/utils/Initializable.sol\":677:775  if (isTopLevelCall) {... */\n      dup1\n      iszero\n      tag_556\n      jumpi\n        /* \"@openzeppelin/contracts-upgradeable/proxy/utils/Initializable.sol\":711:724  _initializing */\n      0x00\n        /* \"@openzeppelin/contracts-upgradeable/proxy/utils/Initializable.sol\":711:731  _initializing = true */\n      dup1\n      sload\n      not(0xff)\n      not(0xff00)\n      swap1\n      swap2\n      and\n      0x0100\n      or\n        /* \"@openzeppelin/contracts-upgradeable/proxy/utils/Initializable.sol\":745:764  _initialized = true */\n      and\n        /* \"@openzeppelin/contracts-upgradeable/proxy/utils/Initializable.sol\":727:731  true */\n      0x01\n        /* \"@openzeppelin/contracts-upgradeable/proxy/utils/Initializable.sol\":745:764  _initialized = true */\n      or\n      swap1\n      sstore\n        /* \"@openzeppelin/contracts-upgradeable/proxy/utils/Initializable.sol\":677:775  if (isTopLevelCall) {... */\n    tag_556:\n        /* \"@openzeppelin/contracts-upgradeable/access/OwnableUpgradeable.sol\":1187:1219  _transferOwnership(_msgSender()) */\n      tag_522\n        /* \"@openzeppelin/contracts-upgradeable/access/OwnableUpgradeable.sol\":1206:1218  _msgSender() */\n      tag_559\n        /* \"@openzeppelin/contracts-upgradeable/access/OwnableUpgradeable.sol\":1206:1216  _msgSender */\n      tag_212\n        /* \"@openzeppelin/contracts-upgradeable/access/OwnableUpgradeable.sol\":1206:1218  _msgSender() */\n      jump\t// in\n    tag_559:\n        /* \"@openzeppelin/contracts-upgradeable/access/OwnableUpgradeable.sol\":1187:1205  _transferOwnership */\n      tag_313\n        /* \"@openzeppelin/contracts-upgradeable/access/OwnableUpgradeable.sol\":1187:1219  _transferOwnership(_msgSender()) */\n      jump\t// in\n        /* \"@openzeppelin/contracts-upgradeable/utils/AddressUpgradeable.sol\":3525:3748  function functionCall(... */\n    tag_527:\n        /* \"@openzeppelin/contracts-upgradeable/utils/AddressUpgradeable.sol\":3658:3670  bytes memory */\n      0x60\n        /* \"@openzeppelin/contracts-upgradeable/utils/AddressUpgradeable.sol\":3689:3741  functionCallWithValue(target, data, 0, errorMessage) */\n      tag_562\n        /* \"@openzeppelin/contracts-upgradeable/utils/AddressUpgradeable.sol\":3711:3717  target */\n      dup5\n        /* \"@openzeppelin/contracts-upgradeable/utils/AddressUpgradeable.sol\":3719:3723  data */\n      dup5\n        /* \"@openzeppelin/contracts-upgradeable/utils/AddressUpgradeable.sol\":3725:3726  0 */\n      0x00\n        /* \"@openzeppelin/contracts-upgradeable/utils/AddressUpgradeable.sol\":3728:3740  errorMessage */\n      dup6\n        /* \"@openzeppelin/contracts-upgradeable/utils/AddressUpgradeable.sol\":3689:3710  functionCallWithValue */\n      tag_563\n        /* \"@openzeppelin/contracts-upgradeable/utils/AddressUpgradeable.sol\":3689:3741  functionCallWithValue(target, data, 0, errorMessage) */\n      jump\t// in\n    tag_562:\n        /* \"@openzeppelin/contracts-upgradeable/utils/AddressUpgradeable.sol\":3682:3741  return functionCallWithValue(target, data, 0, errorMessage) */\n      swap5\n        /* \"@openzeppelin/contracts-upgradeable/utils/AddressUpgradeable.sol\":3525:3748  function functionCall(... */\n      swap4\n      pop\n      pop\n      pop\n      pop\n      jump\t// out\n        /* \"@openzeppelin/contracts-upgradeable/utils/AddressUpgradeable.sol\":4612:5111  function functionCallWithValue(... */\n    tag_563:\n        /* \"@openzeppelin/contracts-upgradeable/utils/AddressUpgradeable.sol\":4777:4789  bytes memory */\n      0x60\n        /* \"@openzeppelin/contracts-upgradeable/utils/AddressUpgradeable.sol\":4834:4839  value */\n      dup3\n        /* \"@openzeppelin/contracts-upgradeable/utils/AddressUpgradeable.sol\":4809:4830  address(this).balance */\n      selfbalance\n        /* \"@openzeppelin/contracts-upgradeable/utils/AddressUpgradeable.sol\":4809:4839  address(this).balance >= value */\n      lt\n      iszero\n        /* \"@openzeppelin/contracts-upgradeable/utils/AddressUpgradeable.sol\":4801:4882  require(address(this).balance >= value, \"Address: insufficient balance for call\") */\n      tag_565\n      jumpi\n      mload(0x40)\n      shl(0xe5, 0x461bcd)\n      dup2\n      mstore\n      0x04\n      add\n      tag_193\n      swap1\n      tag_567\n      jump\t// in\n    tag_565:\n        /* \"@openzeppelin/contracts-upgradeable/utils/AddressUpgradeable.sol\":4900:4918  isContract(target) */\n      tag_568\n        /* \"@openzeppelin/contracts-upgradeable/utils/AddressUpgradeable.sol\":4911:4917  target */\n      dup6\n        /* \"@openzeppelin/contracts-upgradeable/utils/AddressUpgradeable.sol\":4900:4910  isContract */\n      tag_569\n        /* \"@openzeppelin/contracts-upgradeable/utils/AddressUpgradeable.sol\":4900:4918  isContract(target) */\n      jump\t// in\n    tag_568:\n        /* \"@openzeppelin/contracts-upgradeable/utils/AddressUpgradeable.sol\":4892:4952  require(isContract(target), \"Address: call to non-contract\") */\n      tag_570\n      jumpi\n      mload(0x40)\n      shl(0xe5, 0x461bcd)\n      dup2\n      mstore\n      0x04\n      add\n      tag_193\n      swap1\n      tag_572\n      jump\t// in\n    tag_570:\n        /* \"@openzeppelin/contracts-upgradeable/utils/AddressUpgradeable.sol\":4964:4976  bool success */\n      0x00\n        /* \"@openzeppelin/contracts-upgradeable/utils/AddressUpgradeable.sol\":4978:5001  bytes memory returndata */\n      dup1\n        /* \"@openzeppelin/contracts-upgradeable/utils/AddressUpgradeable.sol\":5005:5011  target */\n      dup7\n      sub(shl(0xa0, 0x01), 0x01)\n        /* \"@openzeppelin/contracts-upgradeable/utils/AddressUpgradeable.sol\":5005:5016  target.call */\n      and\n        /* \"@openzeppelin/contracts-upgradeable/utils/AddressUpgradeable.sol\":5024:5029  value */\n      dup6\n        /* \"@openzeppelin/contracts-upgradeable/utils/AddressUpgradeable.sol\":5031:5035  data */\n      dup8\n        /* \"@openzeppelin/contracts-upgradeable/utils/AddressUpgradeable.sol\":5005:5036  target.call{value: value}(data) */\n      mload(0x40)\n      tag_573\n      swap2\n      swap1\n      tag_574\n      jump\t// in\n    tag_573:\n      0x00\n      mload(0x40)\n      dup1\n      dup4\n      sub\n      dup2\n      dup6\n      dup8\n      gas\n      call\n      swap3\n      pop\n      pop\n      pop\n      returndatasize\n      dup1\n      0x00\n      dup2\n      eq\n      tag_577\n      jumpi\n      mload(0x40)\n      swap2\n      pop\n      and(add(returndatasize, 0x3f), not(0x1f))\n      dup3\n      add\n      0x40\n      mstore\n      returndatasize\n      dup3\n      mstore\n      returndatasize\n      0x00\n      0x20\n      dup5\n      add\n      returndatacopy\n      jump(tag_576)\n    tag_577:\n      0x60\n      swap2\n      pop\n    tag_576:\n      pop\n        /* \"@openzeppelin/contracts-upgradeable/utils/AddressUpgradeable.sol\":4963:5036  (bool success, bytes memory returndata) = target.call{value: value}(data) */\n      swap2\n      pop\n      swap2\n      pop\n        /* \"@openzeppelin/contracts-upgradeable/utils/AddressUpgradeable.sol\":5053:5104  verifyCallResult(success, returndata, errorMessage) */\n      tag_342\n        /* \"@openzeppelin/contracts-upgradeable/utils/AddressUpgradeable.sol\":5070:5077  success */\n      dup3\n        /* \"@openzeppelin/contracts-upgradeable/utils/AddressUpgradeable.sol\":5079:5089  returndata */\n      dup3\n        /* \"@openzeppelin/contracts-upgradeable/utils/AddressUpgradeable.sol\":5091:5103  errorMessage */\n      dup7\n        /* \"@openzeppelin/contracts-upgradeable/utils/AddressUpgradeable.sol\":5053:5069  verifyCallResult */\n      tag_579\n        /* \"@openzeppelin/contracts-upgradeable/utils/AddressUpgradeable.sol\":5053:5104  verifyCallResult(success, returndata, errorMessage) */\n      jump\t// in\n        /* \"@openzeppelin/contracts-upgradeable/utils/AddressUpgradeable.sol\":782:1159  function isContract(address account) internal view returns (bool) {... */\n    tag_569:\n        /* \"@openzeppelin/contracts-upgradeable/utils/AddressUpgradeable.sol\":1098:1118  extcodesize(account) */\n      extcodesize\n        /* \"@openzeppelin/contracts-upgradeable/utils/AddressUpgradeable.sol\":1144:1152  size > 0 */\n      iszero\n      iszero\n      swap1\n        /* \"@openzeppelin/contracts-upgradeable/utils/AddressUpgradeable.sol\":782:1159  function isContract(address account) internal view returns (bool) {... */\n      jump\t// out\n        /* \"@openzeppelin/contracts-upgradeable/utils/AddressUpgradeable.sol\":6275:6967  function verifyCallResult(... */\n    tag_579:\n        /* \"@openzeppelin/contracts-upgradeable/utils/AddressUpgradeable.sol\":6421:6433  bytes memory */\n      0x60\n        /* \"@openzeppelin/contracts-upgradeable/utils/AddressUpgradeable.sol\":6449:6456  success */\n      dup4\n        /* \"@openzeppelin/contracts-upgradeable/utils/AddressUpgradeable.sol\":6445:6961  if (success) {... */\n      iszero\n      tag_582\n      jumpi\n      pop\n        /* \"@openzeppelin/contracts-upgradeable/utils/AddressUpgradeable.sol\":6479:6489  returndata */\n      dup2\n        /* \"@openzeppelin/contracts-upgradeable/utils/AddressUpgradeable.sol\":6472:6489  return returndata */\n      jump(tag_383)\n        /* \"@openzeppelin/contracts-upgradeable/utils/AddressUpgradeable.sol\":6445:6961  if (success) {... */\n    tag_582:\n        /* \"@openzeppelin/contracts-upgradeable/utils/AddressUpgradeable.sol\":6590:6607  returndata.length */\n      dup3\n      mload\n        /* \"@openzeppelin/contracts-upgradeable/utils/AddressUpgradeable.sol\":6590:6611  returndata.length > 0 */\n      iszero\n        /* \"@openzeppelin/contracts-upgradeable/utils/AddressUpgradeable.sol\":6586:6951  if (returndata.length > 0) {... */\n      tag_584\n      jumpi\n        /* \"@openzeppelin/contracts-upgradeable/utils/AddressUpgradeable.sol\":6784:6794  returndata */\n      dup3\n        /* \"@openzeppelin/contracts-upgradeable/utils/AddressUpgradeable.sol\":6778:6795  mload(returndata) */\n      mload\n        /* \"@openzeppelin/contracts-upgradeable/utils/AddressUpgradeable.sol\":6844:6859  returndata_size */\n      dup1\n        /* \"@openzeppelin/contracts-upgradeable/utils/AddressUpgradeable.sol\":6831:6841  returndata */\n      dup5\n        /* \"@openzeppelin/contracts-upgradeable/utils/AddressUpgradeable.sol\":6827:6829  32 */\n      0x20\n        /* \"@openzeppelin/contracts-upgradeable/utils/AddressUpgradeable.sol\":6823:6842  add(32, returndata) */\n      add\n        /* \"@openzeppelin/contracts-upgradeable/utils/AddressUpgradeable.sol\":6816:6860  revert(add(32, returndata), returndata_size) */\n      revert\n        /* \"@openzeppelin/contracts-upgradeable/utils/AddressUpgradeable.sol\":6733:6878  {... */\n    tag_584:\n        /* \"@openzeppelin/contracts-upgradeable/utils/AddressUpgradeable.sol\":6923:6935  errorMessage */\n      dup2\n        /* \"@openzeppelin/contracts-upgradeable/utils/AddressUpgradeable.sol\":6916:6936  revert(errorMessage) */\n      mload(0x40)\n      shl(0xe5, 0x461bcd)\n      dup2\n      mstore\n      0x04\n      add\n      tag_193\n      swap2\n      swap1\n      tag_587\n      jump\t// in\n    tag_267:\n      dup3\n      dup1\n      sload\n      tag_588\n      swap1\n      tag_273\n      jump\t// in\n    tag_588:\n      swap1\n      0x00\n      mstore\n      keccak256(0x00, 0x20)\n      swap1\n      0x1f\n      add\n      0x20\n      swap1\n      div\n      dup2\n      add\n      swap3\n      dup3\n      tag_590\n      jumpi\n      0x00\n      dup6\n      sstore\n      jump(tag_593)\n    tag_590:\n      dup3\n      0x1f\n      lt\n      tag_591\n      jumpi\n      dup1\n      mload\n      not(0xff)\n      and\n      dup4\n      dup1\n      add\n      or\n      dup6\n      sstore\n      jump(tag_593)\n    tag_591:\n      dup3\n      dup1\n      add\n      0x01\n      add\n      dup6\n      sstore\n      dup3\n      iszero\n      tag_593\n      jumpi\n      swap2\n      dup3\n      add\n    tag_592:\n      dup3\n      dup2\n      gt\n      iszero\n      tag_593\n      jumpi\n      dup3\n      mload\n      dup3\n      sstore\n      swap2\n      0x20\n      add\n      swap2\n      swap1\n      0x01\n      add\n      swap1\n      jump(tag_592)\n    tag_593:\n      pop\n      tag_594\n      swap3\n      swap2\n      pop\n      tag_595\n      jump\t// in\n    tag_594:\n      pop\n      swap1\n      jump\t// out\n    tag_270:\n      mload(0x40)\n      dup1\n      0x0160\n      add\n      0x40\n      mstore\n      dup1\n      and(sub(shl(0xa0, 0x01), 0x01), 0x00)\n      dup2\n      mstore\n      0x20\n      add\n      0x00\n      dup2\n      mstore\n      0x20\n      add\n      0x60\n      dup2\n      mstore\n      0x20\n      add\n      0x00\n      dup2\n      mstore\n      0x20\n      add\n      0x00\n      dup2\n      mstore\n      0x20\n      add\n      0x00\n      dup2\n      mstore\n      0x20\n      add\n      0x00\n      dup2\n      mstore\n      0x20\n      add\n      0x00\n      dup2\n      mstore\n      0x20\n      add\n      0x00\n      dup2\n      mstore\n      0x20\n      add\n      0x00\n      dup2\n      mstore\n      0x20\n      add\n      0x00\n      dup2\n      mstore\n      pop\n      swap1\n      jump\t// out\n    tag_595:\n    tag_596:\n      dup1\n      dup3\n      gt\n      iszero\n      tag_594\n      jumpi\n      0x00\n      dup2\n      sstore\n      0x01\n      add\n      jump(tag_596)\n        /* \"#utility.yul\":14:152   */\n    tag_599:\n        /* \"#utility.yul\":84:104   */\n      dup1\n      calldataload\n        /* \"#utility.yul\":113:146   */\n      tag_271\n        /* \"#utility.yul\":84:104   */\n      dup2\n        /* \"#utility.yul\":113:146   */\n      tag_602\n      jump\t// in\n        /* \"#utility.yul\":157:826   */\n    tag_603:\n      0x00\n        /* \"#utility.yul\":268:271   */\n      dup3\n        /* \"#utility.yul\":261:265   */\n      0x1f\n        /* \"#utility.yul\":253:259   */\n      dup4\n        /* \"#utility.yul\":249:266   */\n      add\n        /* \"#utility.yul\":245:272   */\n      slt\n        /* \"#utility.yul\":235:237   */\n      tag_605\n      jumpi\n        /* \"#utility.yul\":290:295   */\n      dup1\n        /* \"#utility.yul\":283:288   */\n      dup2\n        /* \"#utility.yul\":276:296   */\n      revert\n        /* \"#utility.yul\":235:237   */\n    tag_605:\n        /* \"#utility.yul\":330:336   */\n      dup2\n        /* \"#utility.yul\":317:337   */\n      calldataload\n        /* \"#utility.yul\":356:360   */\n      0x20\n        /* \"#utility.yul\":380:443   */\n      tag_606\n        /* \"#utility.yul\":395:442   */\n      tag_607\n        /* \"#utility.yul\":439:441   */\n      dup4\n        /* \"#utility.yul\":395:442   */\n      tag_608\n      jump\t// in\n    tag_607:\n        /* \"#utility.yul\":380:443   */\n      tag_609\n      jump\t// in\n    tag_606:\n        /* \"#utility.yul\":477:492   */\n      dup3\n      dup2\n      mstore\n        /* \"#utility.yul\":508:520   */\n      dup2\n      dup2\n      add\n      swap1\n        /* \"#utility.yul\":540:555   */\n      dup6\n      dup4\n      add\n        /* \"#utility.yul\":573:578   */\n      dup6\n        /* \"#utility.yul\":587:797   */\n    tag_610:\n        /* \"#utility.yul\":601:603   */\n      dup6\n        /* \"#utility.yul\":598:599   */\n      dup2\n        /* \"#utility.yul\":595:604   */\n      lt\n        /* \"#utility.yul\":587:797   */\n      iszero\n      tag_612\n      jumpi\n        /* \"#utility.yul\":658:722   */\n      tag_613\n        /* \"#utility.yul\":718:721   */\n      dup10\n        /* \"#utility.yul\":713:715   */\n      dup7\n        /* \"#utility.yul\":706:709   */\n      dup5\n        /* \"#utility.yul\":693:710   */\n      calldataload\n        /* \"#utility.yul\":685:691   */\n      dup12\n        /* \"#utility.yul\":681:711   */\n      add\n        /* \"#utility.yul\":677:716   */\n      add\n        /* \"#utility.yul\":658:722   */\n      tag_614\n      jump\t// in\n    tag_613:\n        /* \"#utility.yul\":646:723   */\n      dup5\n      mstore\n        /* \"#utility.yul\":743:755   */\n      swap3\n      dup5\n      add\n      swap3\n        /* \"#utility.yul\":775:787   */\n      swap1\n      dup5\n      add\n      swap1\n        /* \"#utility.yul\":619:620   */\n      0x01\n        /* \"#utility.yul\":612:621   */\n      add\n        /* \"#utility.yul\":587:797   */\n      jump(tag_610)\n    tag_612:\n      pop\n        /* \"#utility.yul\":815:820   */\n      swap1\n      swap8\n        /* \"#utility.yul\":225:826   */\n      swap7\n      pop\n      pop\n      pop\n      pop\n      pop\n      pop\n      pop\n      jump\t// out\n        /* \"#utility.yul\":831:1534   */\n    tag_615:\n      0x00\n        /* \"#utility.yul\":944:947   */\n      dup3\n        /* \"#utility.yul\":937:941   */\n      0x1f\n        /* \"#utility.yul\":929:935   */\n      dup4\n        /* \"#utility.yul\":925:942   */\n      add\n        /* \"#utility.yul\":921:948   */\n      slt\n        /* \"#utility.yul\":911:913   */\n      tag_617\n      jumpi\n        /* \"#utility.yul\":966:971   */\n      dup1\n        /* \"#utility.yul\":959:964   */\n      dup2\n        /* \"#utility.yul\":952:972   */\n      revert\n        /* \"#utility.yul\":911:913   */\n    tag_617:\n        /* \"#utility.yul\":1006:1012   */\n      dup2\n        /* \"#utility.yul\":993:1013   */\n      calldataload\n        /* \"#utility.yul\":1032:1036   */\n      0x20\n        /* \"#utility.yul\":1056:1119   */\n      tag_618\n        /* \"#utility.yul\":1071:1118   */\n      tag_607\n        /* \"#utility.yul\":1115:1117   */\n      dup4\n        /* \"#utility.yul\":1071:1118   */\n      tag_608\n      jump\t// in\n        /* \"#utility.yul\":1056:1119   */\n    tag_618:\n        /* \"#utility.yul\":1153:1168   */\n      dup3\n      dup2\n      mstore\n        /* \"#utility.yul\":1184:1196   */\n      dup2\n      dup2\n      add\n      swap1\n        /* \"#utility.yul\":1216:1231   */\n      dup6\n      dup4\n      add\n        /* \"#utility.yul\":1262:1273   */\n      dup4\n      dup6\n      mul\n        /* \"#utility.yul\":1250:1274   */\n      dup8\n      add\n        /* \"#utility.yul\":1246:1279   */\n      dup5\n      add\n        /* \"#utility.yul\":1243:1285   */\n      dup9\n      lt\n        /* \"#utility.yul\":1240:1242   */\n      iszero\n      tag_620\n      jumpi\n        /* \"#utility.yul\":1302:1307   */\n      dup6\n        /* \"#utility.yul\":1295:1300   */\n      dup7\n        /* \"#utility.yul\":1288:1308   */\n      revert\n        /* \"#utility.yul\":1240:1242   */\n    tag_620:\n        /* \"#utility.yul\":1328:1333   */\n      dup6\n        /* \"#utility.yul\":1342:1505   */\n    tag_621:\n        /* \"#utility.yul\":1356:1358   */\n      dup6\n        /* \"#utility.yul\":1353:1354   */\n      dup2\n        /* \"#utility.yul\":1350:1359   */\n      lt\n        /* \"#utility.yul\":1342:1505   */\n      iszero\n      tag_612\n      jumpi\n        /* \"#utility.yul\":1413:1430   */\n      dup2\n      calldataload\n        /* \"#utility.yul\":1401:1431   */\n      dup5\n      mstore\n        /* \"#utility.yul\":1451:1463   */\n      swap3\n      dup5\n      add\n      swap3\n        /* \"#utility.yul\":1483:1495   */\n      swap1\n      dup5\n      add\n      swap1\n        /* \"#utility.yul\":1374:1375   */\n      0x01\n        /* \"#utility.yul\":1367:1376   */\n      add\n        /* \"#utility.yul\":1342:1505   */\n      jump(tag_621)\n        /* \"#utility.yul\":1539:2090   */\n    tag_614:\n      0x00\n        /* \"#utility.yul\":1636:1639   */\n      dup3\n        /* \"#utility.yul\":1629:1633   */\n      0x1f\n        /* \"#utility.yul\":1621:1627   */\n      dup4\n        /* \"#utility.yul\":1617:1634   */\n      add\n        /* \"#utility.yul\":1613:1640   */\n      slt\n        /* \"#utility.yul\":1603:1605   */\n      tag_625\n      jumpi\n        /* \"#utility.yul\":1658:1663   */\n      dup1\n        /* \"#utility.yul\":1651:1656   */\n      dup2\n        /* \"#utility.yul\":1644:1664   */\n      revert\n        /* \"#utility.yul\":1603:1605   */\n    tag_625:\n        /* \"#utility.yul\":1698:1704   */\n      dup2\n        /* \"#utility.yul\":1685:1705   */\n      calldataload\n        /* \"#utility.yul\":1724:1742   */\n      0xffffffffffffffff\n        /* \"#utility.yul\":1720:1722   */\n      dup2\n        /* \"#utility.yul\":1717:1743   */\n      gt\n        /* \"#utility.yul\":1714:1716   */\n      iszero\n      tag_627\n      jumpi\n        /* \"#utility.yul\":1746:1764   */\n      tag_627\n      tag_628\n      jump\t// in\n    tag_627:\n        /* \"#utility.yul\":1790:1844   */\n      tag_629\n        /* \"#utility.yul\":1832:1834   */\n      0x1f\n        /* \"#utility.yul\":1813:1826   */\n      dup3\n      add\n      not(0x1f)\n        /* \"#utility.yul\":1809:1836   */\n      and\n        /* \"#utility.yul\":1838:1842   */\n      0x20\n        /* \"#utility.yul\":1805:1843   */\n      add\n        /* \"#utility.yul\":1790:1844   */\n      tag_609\n      jump\t// in\n    tag_629:\n        /* \"#utility.yul\":1869:1871   */\n      dup2\n        /* \"#utility.yul\":1860:1867   */\n      dup2\n        /* \"#utility.yul\":1853:1872   */\n      mstore\n        /* \"#utility.yul\":1915:1918   */\n      dup5\n        /* \"#utility.yul\":1908:1912   */\n      0x20\n        /* \"#utility.yul\":1903:1905   */\n      dup4\n        /* \"#utility.yul\":1895:1901   */\n      dup7\n        /* \"#utility.yul\":1891:1906   */\n      add\n        /* \"#utility.yul\":1887:1913   */\n      add\n        /* \"#utility.yul\":1884:1919   */\n      gt\n        /* \"#utility.yul\":1881:1883   */\n      iszero\n      tag_630\n      jumpi\n        /* \"#utility.yul\":1936:1941   */\n      dup3\n        /* \"#utility.yul\":1929:1934   */\n      dup4\n        /* \"#utility.yul\":1922:1942   */\n      revert\n        /* \"#utility.yul\":1881:1883   */\n    tag_630:\n        /* \"#utility.yul\":2005:2007   */\n      dup2\n        /* \"#utility.yul\":1998:2002   */\n      0x20\n        /* \"#utility.yul\":1990:1996   */\n      dup6\n        /* \"#utility.yul\":1986:2003   */\n      add\n        /* \"#utility.yul\":1979:1983   */\n      0x20\n        /* \"#utility.yul\":1970:1977   */\n      dup4\n        /* \"#utility.yul\":1966:1984   */\n      add\n        /* \"#utility.yul\":1953:2008   */\n      calldatacopy\n        /* \"#utility.yul\":2028:2044   */\n      swap1\n      dup2\n      add\n        /* \"#utility.yul\":2046:2050   */\n      0x20\n        /* \"#utility.yul\":2024:2051   */\n      add\n        /* \"#utility.yul\":2017:2059   */\n      swap2\n      swap1\n      swap2\n      mstore\n        /* \"#utility.yul\":2032:2039   */\n      swap3\n        /* \"#utility.yul\":1593:2090   */\n      swap2\n      pop\n      pop\n      jump\t// out\n        /* \"#utility.yul\":2095:2354   */\n    tag_83:\n      0x00\n        /* \"#utility.yul\":2207:2209   */\n      0x20\n        /* \"#utility.yul\":2195:2204   */\n      dup3\n        /* \"#utility.yul\":2186:2193   */\n      dup5\n        /* \"#utility.yul\":2182:2205   */\n      sub\n        /* \"#utility.yul\":2178:2210   */\n      slt\n        /* \"#utility.yul\":2175:2177   */\n      iszero\n      tag_632\n      jumpi\n        /* \"#utility.yul\":2228:2234   */\n      dup1\n        /* \"#utility.yul\":2220:2226   */\n      dup2\n        /* \"#utility.yul\":2213:2235   */\n      revert\n        /* \"#utility.yul\":2175:2177   */\n    tag_632:\n        /* \"#utility.yul\":2272:2281   */\n      dup2\n        /* \"#utility.yul\":2259:2282   */\n      calldataload\n        /* \"#utility.yul\":2291:2324   */\n      tag_383\n        /* \"#utility.yul\":2318:2323   */\n      dup2\n        /* \"#utility.yul\":2291:2324   */\n      tag_602\n      jump\t// in\n        /* \"#utility.yul\":2359:2755   */\n    tag_56:\n      0x00\n      dup1\n        /* \"#utility.yul\":2485:2487   */\n      0x40\n        /* \"#utility.yul\":2473:2482   */\n      dup4\n        /* \"#utility.yul\":2464:2471   */\n      dup6\n        /* \"#utility.yul\":2460:2483   */\n      sub\n        /* \"#utility.yul\":2456:2488   */\n      slt\n        /* \"#utility.yul\":2453:2455   */\n      iszero\n      tag_635\n      jumpi\n        /* \"#utility.yul\":2506:2512   */\n      dup1\n        /* \"#utility.yul\":2498:2504   */\n      dup2\n        /* \"#utility.yul\":2491:2513   */\n      revert\n        /* \"#utility.yul\":2453:2455   */\n    tag_635:\n        /* \"#utility.yul\":2550:2559   */\n      dup3\n        /* \"#utility.yul\":2537:2560   */\n      calldataload\n        /* \"#utility.yul\":2569:2602   */\n      tag_636\n        /* \"#utility.yul\":2596:2601   */\n      dup2\n        /* \"#utility.yul\":2569:2602   */\n      tag_602\n      jump\t// in\n    tag_636:\n        /* \"#utility.yul\":2621:2626   */\n      swap2\n      pop\n        /* \"#utility.yul\":2678:2680   */\n      0x20\n        /* \"#utility.yul\":2663:2681   */\n      dup4\n      add\n        /* \"#utility.yul\":2650:2682   */\n      calldataload\n        /* \"#utility.yul\":2691:2723   */\n      tag_637\n        /* \"#utility.yul\":2650:2682   */\n      dup2\n        /* \"#utility.yul\":2691:2723   */\n      tag_638\n      jump\t// in\n    tag_637:\n        /* \"#utility.yul\":2742:2749   */\n      dup1\n        /* \"#utility.yul\":2732:2749   */\n      swap2\n      pop\n      pop\n        /* \"#utility.yul\":2443:2755   */\n      swap3\n      pop\n      swap3\n      swap1\n      pop\n      jump\t// out\n        /* \"#utility.yul\":2760:3511   */\n    tag_169:\n      0x00\n      dup1\n      0x00\n      dup1\n        /* \"#utility.yul\":2985:2988   */\n      0x80\n        /* \"#utility.yul\":2973:2982   */\n      dup6\n        /* \"#utility.yul\":2964:2971   */\n      dup8\n        /* \"#utility.yul\":2960:2983   */\n      sub\n        /* \"#utility.yul\":2956:2989   */\n      slt\n        /* \"#utility.yul\":2953:2955   */\n      iszero\n      tag_640\n      jumpi\n        /* \"#utility.yul\":3007:3013   */\n      dup2\n        /* \"#utility.yul\":2999:3005   */\n      dup3\n        /* \"#utility.yul\":2992:3014   */\n      revert\n        /* \"#utility.yul\":2953:2955   */\n    tag_640:\n        /* \"#utility.yul\":3051:3060   */\n      dup5\n        /* \"#utility.yul\":3038:3061   */\n      calldataload\n        /* \"#utility.yul\":3070:3103   */\n      tag_641\n        /* \"#utility.yul\":3097:3102   */\n      dup2\n        /* \"#utility.yul\":3070:3103   */\n      tag_602\n      jump\t// in\n    tag_641:\n        /* \"#utility.yul\":3122:3127   */\n      swap4\n      pop\n        /* \"#utility.yul\":3179:3181   */\n      0x20\n        /* \"#utility.yul\":3164:3182   */\n      dup6\n      add\n        /* \"#utility.yul\":3151:3183   */\n      calldataload\n        /* \"#utility.yul\":3192:3227   */\n      tag_642\n        /* \"#utility.yul\":3151:3183   */\n      dup2\n        /* \"#utility.yul\":3192:3227   */\n      tag_602\n      jump\t// in\n    tag_642:\n        /* \"#utility.yul\":3246:3253   */\n      swap3\n      pop\n        /* \"#utility.yul\":3305:3307   */\n      0x40\n        /* \"#utility.yul\":3290:3308   */\n      dup6\n      add\n        /* \"#utility.yul\":3277:3309   */\n      calldataload\n        /* \"#utility.yul\":3318:3353   */\n      tag_643\n        /* \"#utility.yul\":3277:3309   */\n      dup2\n        /* \"#utility.yul\":3318:3353   */\n      tag_602\n      jump\t// in\n    tag_643:\n        /* \"#utility.yul\":3372:3379   */\n      swap2\n      pop\n        /* \"#utility.yul\":3431:3433   */\n      0x60\n        /* \"#utility.yul\":3416:3434   */\n      dup6\n      add\n        /* \"#utility.yul\":3403:3435   */\n      calldataload\n        /* \"#utility.yul\":3444:3479   */\n      tag_644\n        /* \"#utility.yul\":3403:3435   */\n      dup2\n        /* \"#utility.yul\":3444:3479   */\n      tag_602\n      jump\t// in\n    tag_644:\n        /* \"#utility.yul\":2943:3511   */\n      swap4\n      swap7\n      swap3\n      swap6\n      pop\n      swap1\n      swap4\n      pop\n      pop\n      jump\t// out\n        /* \"#utility.yul\":3516:3843   */\n    tag_104:\n      0x00\n      dup1\n        /* \"#utility.yul\":3645:3647   */\n      0x40\n        /* \"#utility.yul\":3633:3642   */\n      dup4\n        /* \"#utility.yul\":3624:3631   */\n      dup6\n        /* \"#utility.yul\":3620:3643   */\n      sub\n        /* \"#utility.yul\":3616:3648   */\n      slt\n        /* \"#utility.yul\":3613:3615   */\n      iszero\n      tag_646\n      jumpi\n        /* \"#utility.yul\":3666:3672   */\n      dup2\n        /* \"#utility.yul\":3658:3664   */\n      dup3\n        /* \"#utility.yul\":3651:3673   */\n      revert\n        /* \"#utility.yul\":3613:3615   */\n    tag_646:\n        /* \"#utility.yul\":3710:3719   */\n      dup3\n        /* \"#utility.yul\":3697:3720   */\n      calldataload\n        /* \"#utility.yul\":3729:3762   */\n      tag_647\n        /* \"#utility.yul\":3756:3761   */\n      dup2\n        /* \"#utility.yul\":3729:3762   */\n      tag_602\n      jump\t// in\n    tag_647:\n        /* \"#utility.yul\":3781:3786   */\n      swap5\n        /* \"#utility.yul\":3833:3835   */\n      0x20\n        /* \"#utility.yul\":3818:3836   */\n      swap4\n      swap1\n      swap4\n      add\n        /* \"#utility.yul\":3805:3837   */\n      calldataload\n      swap4\n      pop\n      pop\n      pop\n        /* \"#utility.yul\":3603:3843   */\n      jump\t// out\n        /* \"#utility.yul\":3848:4312   */\n    tag_44:\n      0x00\n      dup1\n      0x00\n      dup1\n        /* \"#utility.yul\":4011:4014   */\n      0x80\n        /* \"#utility.yul\":3999:4008   */\n      dup6\n        /* \"#utility.yul\":3990:3997   */\n      dup8\n        /* \"#utility.yul\":3986:4009   */\n      sub\n        /* \"#utility.yul\":3982:4015   */\n      slt\n        /* \"#utility.yul\":3979:3981   */\n      iszero\n      tag_649\n      jumpi\n        /* \"#utility.yul\":4033:4039   */\n      dup4\n        /* \"#utility.yul\":4025:4031   */\n      dup5\n        /* \"#utility.yul\":4018:4040   */\n      revert\n        /* \"#utility.yul\":3979:3981   */\n    tag_649:\n        /* \"#utility.yul\":4077:4086   */\n      dup5\n        /* \"#utility.yul\":4064:4087   */\n      calldataload\n        /* \"#utility.yul\":4096:4129   */\n      tag_650\n        /* \"#utility.yul\":4123:4128   */\n      dup2\n        /* \"#utility.yul\":4096:4129   */\n      tag_602\n      jump\t// in\n    tag_650:\n        /* \"#utility.yul\":4148:4153   */\n      swap7\n        /* \"#utility.yul\":4200:4202   */\n      0x20\n        /* \"#utility.yul\":4185:4203   */\n      dup7\n      add\n        /* \"#utility.yul\":4172:4204   */\n      calldataload\n      swap7\n      pop\n        /* \"#utility.yul\":4251:4253   */\n      0x40\n        /* \"#utility.yul\":4236:4254   */\n      dup7\n      add\n        /* \"#utility.yul\":4223:4255   */\n      calldataload\n      swap6\n        /* \"#utility.yul\":4302:4304   */\n      0x60\n        /* \"#utility.yul\":4287:4305   */\n      add\n        /* \"#utility.yul\":4274:4306   */\n      calldataload\n      swap5\n      pop\n        /* \"#utility.yul\":3969:4312   */\n      swap3\n      pop\n      pop\n      pop\n      jump\t// out\n        /* \"#utility.yul\":4317:5697   */\n    tag_97:\n      0x00\n      dup1\n      0x00\n      dup1\n      0x00\n        /* \"#utility.yul\":4641:4644   */\n      0xa0\n        /* \"#utility.yul\":4629:4638   */\n      dup7\n        /* \"#utility.yul\":4620:4627   */\n      dup9\n        /* \"#utility.yul\":4616:4639   */\n      sub\n        /* \"#utility.yul\":4612:4645   */\n      slt\n        /* \"#utility.yul\":4609:4611   */\n      iszero\n      tag_652\n      jumpi\n        /* \"#utility.yul\":4663:4669   */\n      dup3\n        /* \"#utility.yul\":4655:4661   */\n      dup4\n        /* \"#utility.yul\":4648:4670   */\n      revert\n        /* \"#utility.yul\":4609:4611   */\n    tag_652:\n        /* \"#utility.yul\":4708:4717   */\n      dup6\n        /* \"#utility.yul\":4695:4718   */\n      calldataload\n        /* \"#utility.yul\":4737:4755   */\n      0xffffffffffffffff\n        /* \"#utility.yul\":4778:4780   */\n      dup1\n        /* \"#utility.yul\":4770:4776   */\n      dup3\n        /* \"#utility.yul\":4767:4781   */\n      gt\n        /* \"#utility.yul\":4764:4766   */\n      iszero\n      tag_653\n      jumpi\n        /* \"#utility.yul\":4799:4805   */\n      dup5\n        /* \"#utility.yul\":4791:4797   */\n      dup6\n        /* \"#utility.yul\":4784:4806   */\n      revert\n        /* \"#utility.yul\":4764:4766   */\n    tag_653:\n        /* \"#utility.yul\":4827:4894   */\n      tag_654\n        /* \"#utility.yul\":4886:4893   */\n      dup10\n        /* \"#utility.yul\":4877:4883   */\n      dup4\n        /* \"#utility.yul\":4866:4875   */\n      dup11\n        /* \"#utility.yul\":4862:4884   */\n      add\n        /* \"#utility.yul\":4827:4894   */\n      tag_615\n      jump\t// in\n    tag_654:\n        /* \"#utility.yul\":4817:4894   */\n      swap7\n      pop\n        /* \"#utility.yul\":4947:4949   */\n      0x20\n        /* \"#utility.yul\":4936:4945   */\n      dup9\n        /* \"#utility.yul\":4932:4950   */\n      add\n        /* \"#utility.yul\":4919:4951   */\n      calldataload\n        /* \"#utility.yul\":4903:4951   */\n      swap2\n      pop\n        /* \"#utility.yul\":4976:4978   */\n      dup1\n        /* \"#utility.yul\":4966:4974   */\n      dup3\n        /* \"#utility.yul\":4963:4979   */\n      gt\n        /* \"#utility.yul\":4960:4962   */\n      iszero\n      tag_655\n      jumpi\n        /* \"#utility.yul\":4997:5003   */\n      dup5\n        /* \"#utility.yul\":4989:4995   */\n      dup6\n        /* \"#utility.yul\":4982:5004   */\n      revert\n        /* \"#utility.yul\":4960:4962   */\n    tag_655:\n        /* \"#utility.yul\":5025:5094   */\n      tag_656\n        /* \"#utility.yul\":5086:5093   */\n      dup10\n        /* \"#utility.yul\":5075:5083   */\n      dup4\n        /* \"#utility.yul\":5064:5073   */\n      dup11\n        /* \"#utility.yul\":5060:5084   */\n      add\n        /* \"#utility.yul\":5025:5094   */\n      tag_615\n      jump\t// in\n    tag_656:\n        /* \"#utility.yul\":5015:5094   */\n      swap6\n      pop\n        /* \"#utility.yul\":5147:5149   */\n      0x40\n        /* \"#utility.yul\":5136:5145   */\n      dup9\n        /* \"#utility.yul\":5132:5150   */\n      add\n        /* \"#utility.yul\":5119:5151   */\n      calldataload\n        /* \"#utility.yul\":5103:5151   */\n      swap2\n      pop\n        /* \"#utility.yul\":5176:5178   */\n      dup1\n        /* \"#utility.yul\":5166:5174   */\n      dup3\n        /* \"#utility.yul\":5163:5179   */\n      gt\n        /* \"#utility.yul\":5160:5162   */\n      iszero\n      tag_657\n      jumpi\n        /* \"#utility.yul\":5197:5203   */\n      dup5\n        /* \"#utility.yul\":5189:5195   */\n      dup6\n        /* \"#utility.yul\":5182:5204   */\n      revert\n        /* \"#utility.yul\":5160:5162   */\n    tag_657:\n        /* \"#utility.yul\":5225:5292   */\n      tag_658\n        /* \"#utility.yul\":5284:5291   */\n      dup10\n        /* \"#utility.yul\":5273:5281   */\n      dup4\n        /* \"#utility.yul\":5262:5271   */\n      dup11\n        /* \"#utility.yul\":5258:5282   */\n      add\n        /* \"#utility.yul\":5225:5292   */\n      tag_603\n      jump\t// in\n    tag_658:\n        /* \"#utility.yul\":5215:5292   */\n      swap5\n      pop\n        /* \"#utility.yul\":5345:5347   */\n      0x60\n        /* \"#utility.yul\":5334:5343   */\n      dup9\n        /* \"#utility.yul\":5330:5348   */\n      add\n        /* \"#utility.yul\":5317:5349   */\n      calldataload\n        /* \"#utility.yul\":5301:5349   */\n      swap2\n      pop\n        /* \"#utility.yul\":5374:5376   */\n      dup1\n        /* \"#utility.yul\":5364:5372   */\n      dup3\n        /* \"#utility.yul\":5361:5377   */\n      gt\n        /* \"#utility.yul\":5358:5360   */\n      iszero\n      tag_659\n      jumpi\n        /* \"#utility.yul\":5395:5401   */\n      dup3\n        /* \"#utility.yul\":5387:5393   */\n      dup4\n        /* \"#utility.yul\":5380:5402   */\n      revert\n        /* \"#utility.yul\":5358:5360   */\n    tag_659:\n        /* \"#utility.yul\":5423:5492   */\n      tag_660\n        /* \"#utility.yul\":5484:5491   */\n      dup10\n        /* \"#utility.yul\":5473:5481   */\n      dup4\n        /* \"#utility.yul\":5462:5471   */\n      dup11\n        /* \"#utility.yul\":5458:5482   */\n      add\n        /* \"#utility.yul\":5423:5492   */\n      tag_615\n      jump\t// in\n    tag_660:\n        /* \"#utility.yul\":5413:5492   */\n      swap4\n      pop\n        /* \"#utility.yul\":5545:5548   */\n      0x80\n        /* \"#utility.yul\":5534:5543   */\n      dup9\n        /* \"#utility.yul\":5530:5549   */\n      add\n        /* \"#utility.yul\":5517:5550   */\n      calldataload\n        /* \"#utility.yul\":5501:5550   */\n      swap2\n      pop\n        /* \"#utility.yul\":5575:5577   */\n      dup1\n        /* \"#utility.yul\":5565:5573   */\n      dup3\n        /* \"#utility.yul\":5562:5578   */\n      gt\n        /* \"#utility.yul\":5559:5561   */\n      iszero\n      tag_661\n      jumpi\n        /* \"#utility.yul\":5596:5602   */\n      dup3\n        /* \"#utility.yul\":5588:5594   */\n      dup4\n        /* \"#utility.yul\":5581:5603   */\n      revert\n        /* \"#utility.yul\":5559:5561   */\n    tag_661:\n      pop\n        /* \"#utility.yul\":5624:5691   */\n      tag_662\n        /* \"#utility.yul\":5683:5690   */\n      dup9\n        /* \"#utility.yul\":5672:5680   */\n      dup3\n        /* \"#utility.yul\":5661:5670   */\n      dup10\n        /* \"#utility.yul\":5657:5681   */\n      add\n        /* \"#utility.yul\":5624:5691   */\n      tag_603\n      jump\t// in\n    tag_662:\n        /* \"#utility.yul\":5614:5691   */\n      swap2\n      pop\n      pop\n        /* \"#utility.yul\":4599:5697   */\n      swap3\n      swap6\n      pop\n      swap3\n      swap6\n      swap1\n      swap4\n      pop\n      jump\t// out\n        /* \"#utility.yul\":5702:5959   */\n    tag_228:\n      0x00\n        /* \"#utility.yul\":5822:5824   */\n      0x20\n        /* \"#utility.yul\":5810:5819   */\n      dup3\n        /* \"#utility.yul\":5801:5808   */\n      dup5\n        /* \"#utility.yul\":5797:5820   */\n      sub\n        /* \"#utility.yul\":5793:5825   */\n      slt\n        /* \"#utility.yul\":5790:5792   */\n      iszero\n      tag_664\n      jumpi\n        /* \"#utility.yul\":5843:5849   */\n      dup1\n        /* \"#utility.yul\":5835:5841   */\n      dup2\n        /* \"#utility.yul\":5828:5850   */\n      revert\n        /* \"#utility.yul\":5790:5792   */\n    tag_664:\n        /* \"#utility.yul\":5880:5889   */\n      dup2\n        /* \"#utility.yul\":5874:5890   */\n      mload\n        /* \"#utility.yul\":5899:5929   */\n      tag_383\n        /* \"#utility.yul\":5923:5928   */\n      dup2\n        /* \"#utility.yul\":5899:5929   */\n      tag_638\n      jump\t// in\n        /* \"#utility.yul\":5964:6154   */\n    tag_50:\n      0x00\n        /* \"#utility.yul\":6076:6078   */\n      0x20\n        /* \"#utility.yul\":6064:6073   */\n      dup3\n        /* \"#utility.yul\":6055:6062   */\n      dup5\n        /* \"#utility.yul\":6051:6074   */\n      sub\n        /* \"#utility.yul\":6047:6079   */\n      slt\n        /* \"#utility.yul\":6044:6046   */\n      iszero\n      tag_667\n      jumpi\n        /* \"#utility.yul\":6097:6103   */\n      dup1\n        /* \"#utility.yul\":6089:6095   */\n      dup2\n        /* \"#utility.yul\":6082:6104   */\n      revert\n        /* \"#utility.yul\":6044:6046   */\n    tag_667:\n      pop\n        /* \"#utility.yul\":6125:6148   */\n      calldataload\n      swap2\n        /* \"#utility.yul\":6034:6154   */\n      swap1\n      pop\n      jump\t// out\n        /* \"#utility.yul\":6159:6353   */\n    tag_245:\n      0x00\n        /* \"#utility.yul\":6282:6284   */\n      0x20\n        /* \"#utility.yul\":6270:6279   */\n      dup3\n        /* \"#utility.yul\":6261:6268   */\n      dup5\n        /* \"#utility.yul\":6257:6280   */\n      sub\n        /* \"#utility.yul\":6253:6285   */\n      slt\n        /* \"#utility.yul\":6250:6252   */\n      iszero\n      tag_669\n      jumpi\n        /* \"#utility.yul\":6303:6309   */\n      dup1\n        /* \"#utility.yul\":6295:6301   */\n      dup2\n        /* \"#utility.yul\":6288:6310   */\n      revert\n        /* \"#utility.yul\":6250:6252   */\n    tag_669:\n      pop\n        /* \"#utility.yul\":6331:6347   */\n      mload\n      swap2\n        /* \"#utility.yul\":6240:6353   */\n      swap1\n      pop\n      jump\t// out\n        /* \"#utility.yul\":6358:7467   */\n    tag_173:\n      0x00\n      dup1\n      0x00\n      dup1\n      0x00\n      dup1\n      0x00\n      dup1\n      0x00\n      dup1\n      0x00\n      dup1\n        /* \"#utility.yul\":6669:6672   */\n      0x0180\n        /* \"#utility.yul\":6657:6666   */\n      dup14\n        /* \"#utility.yul\":6648:6655   */\n      dup16\n        /* \"#utility.yul\":6644:6667   */\n      sub\n        /* \"#utility.yul\":6640:6673   */\n      slt\n        /* \"#utility.yul\":6637:6639   */\n      iszero\n      tag_671\n      jumpi\n        /* \"#utility.yul\":6691:6697   */\n      dup10\n        /* \"#utility.yul\":6683:6689   */\n      dup11\n        /* \"#utility.yul\":6676:6698   */\n      revert\n        /* \"#utility.yul\":6637:6639   */\n    tag_671:\n        /* \"#utility.yul\":6732:6741   */\n      dup13\n        /* \"#utility.yul\":6719:6742   */\n      calldataload\n        /* \"#utility.yul\":6709:6742   */\n      swap12\n      pop\n        /* \"#utility.yul\":6761:6801   */\n      tag_672\n        /* \"#utility.yul\":6797:6799   */\n      0x20\n        /* \"#utility.yul\":6786:6795   */\n      dup15\n        /* \"#utility.yul\":6782:6800   */\n      add\n        /* \"#utility.yul\":6761:6801   */\n      tag_599\n      jump\t// in\n    tag_672:\n        /* \"#utility.yul\":6751:6801   */\n      swap11\n      pop\n        /* \"#utility.yul\":6848:6850   */\n      0x40\n        /* \"#utility.yul\":6837:6846   */\n      dup14\n        /* \"#utility.yul\":6833:6851   */\n      add\n        /* \"#utility.yul\":6820:6852   */\n      calldataload\n        /* \"#utility.yul\":6810:6852   */\n      swap10\n      pop\n        /* \"#utility.yul\":6901:6919   */\n      0xffffffffffffffff\n        /* \"#utility.yul\":6895:6897   */\n      0x60\n        /* \"#utility.yul\":6884:6893   */\n      dup15\n        /* \"#utility.yul\":6880:6898   */\n      add\n        /* \"#utility.yul\":6867:6899   */\n      calldataload\n        /* \"#utility.yul\":6864:6920   */\n      gt\n        /* \"#utility.yul\":6861:6863   */\n      iszero\n      tag_673\n      jumpi\n        /* \"#utility.yul\":6938:6944   */\n      dup7\n        /* \"#utility.yul\":6930:6936   */\n      dup8\n        /* \"#utility.yul\":6923:6945   */\n      revert\n        /* \"#utility.yul\":6861:6863   */\n    tag_673:\n        /* \"#utility.yul\":6966:7043   */\n      tag_674\n        /* \"#utility.yul\":7035:7042   */\n      dup15\n        /* \"#utility.yul\":7028:7030   */\n      0x60\n        /* \"#utility.yul\":7017:7026   */\n      dup16\n        /* \"#utility.yul\":7013:7031   */\n      add\n        /* \"#utility.yul\":7000:7032   */\n      calldataload\n        /* \"#utility.yul\":6989:6998   */\n      dup16\n        /* \"#utility.yul\":6985:7033   */\n      add\n        /* \"#utility.yul\":6966:7043   */\n      tag_614\n      jump\t// in\n    tag_674:\n        /* \"#utility.yul\":6627:7467   */\n      swap12\n      swap15\n      swap11\n      swap14\n      pop\n      swap9\n      swap12\n        /* \"#utility.yul\":7090:7093   */\n      0x80\n        /* \"#utility.yul\":7075:7094   */\n      dup2\n      add\n        /* \"#utility.yul\":7062:7095   */\n      calldataload\n      swap11\n        /* \"#utility.yul\":7142:7145   */\n      0xa0\n        /* \"#utility.yul\":7127:7146   */\n      dup3\n      add\n        /* \"#utility.yul\":7114:7147   */\n      calldataload\n      swap11\n      pop\n        /* \"#utility.yul\":7194:7197   */\n      0xc0\n        /* \"#utility.yul\":7179:7198   */\n      dup3\n      add\n        /* \"#utility.yul\":7166:7199   */\n      calldataload\n      swap10\n      pop\n        /* \"#utility.yul\":7246:7249   */\n      0xe0\n        /* \"#utility.yul\":7231:7250   */\n      dup3\n      add\n        /* \"#utility.yul\":7218:7251   */\n      calldataload\n      swap9\n      pop\n        /* \"#utility.yul\":7298:7301   */\n      0x0100\n        /* \"#utility.yul\":7283:7302   */\n      dup3\n      add\n        /* \"#utility.yul\":7270:7303   */\n      calldataload\n      swap8\n      pop\n        /* \"#utility.yul\":7350:7353   */\n      0x0120\n        /* \"#utility.yul\":7335:7354   */\n      dup3\n      add\n        /* \"#utility.yul\":7322:7355   */\n      calldataload\n      swap7\n      pop\n        /* \"#utility.yul\":7403:7406   */\n      0x0140\n        /* \"#utility.yul\":7388:7407   */\n      dup3\n      add\n        /* \"#utility.yul\":7375:7408   */\n      calldataload\n      swap6\n      pop\n        /* \"#utility.yul\":7456:7459   */\n      0x0160\n        /* \"#utility.yul\":7441:7460   */\n      swap1\n      swap2\n      add\n        /* \"#utility.yul\":7428:7461   */\n      calldataload\n      swap4\n      pop\n        /* \"#utility.yul\":6627:7467   */\n      swap2\n      pop\n      pop\n      jump\t// out\n        /* \"#utility.yul\":7472:8252   */\n    tag_128:\n      0x00\n      dup1\n      0x00\n      dup1\n      0x00\n        /* \"#utility.yul\":7671:7674   */\n      0xa0\n        /* \"#utility.yul\":7659:7668   */\n      dup7\n        /* \"#utility.yul\":7650:7657   */\n      dup9\n        /* \"#utility.yul\":7646:7669   */\n      sub\n        /* \"#utility.yul\":7642:7675   */\n      slt\n        /* \"#utility.yul\":7639:7641   */\n      iszero\n      tag_676\n      jumpi\n        /* \"#utility.yul\":7693:7699   */\n      dup3\n        /* \"#utility.yul\":7685:7691   */\n      dup4\n        /* \"#utility.yul\":7678:7700   */\n      revert\n        /* \"#utility.yul\":7639:7641   */\n    tag_676:\n        /* \"#utility.yul\":7734:7743   */\n      dup6\n        /* \"#utility.yul\":7721:7744   */\n      calldataload\n        /* \"#utility.yul\":7711:7744   */\n      swap5\n      pop\n        /* \"#utility.yul\":7791:7793   */\n      0x20\n        /* \"#utility.yul\":7780:7789   */\n      dup7\n        /* \"#utility.yul\":7776:7794   */\n      add\n        /* \"#utility.yul\":7763:7795   */\n      calldataload\n        /* \"#utility.yul\":7753:7795   */\n      swap4\n      pop\n        /* \"#utility.yul\":7846:7848   */\n      0x40\n        /* \"#utility.yul\":7835:7844   */\n      dup7\n        /* \"#utility.yul\":7831:7849   */\n      add\n        /* \"#utility.yul\":7818:7850   */\n      calldataload\n        /* \"#utility.yul\":7869:7887   */\n      0xffffffffffffffff\n        /* \"#utility.yul\":7910:7912   */\n      dup1\n        /* \"#utility.yul\":7902:7908   */\n      dup3\n        /* \"#utility.yul\":7899:7913   */\n      gt\n        /* \"#utility.yul\":7896:7898   */\n      iszero\n      tag_677\n      jumpi\n        /* \"#utility.yul\":7931:7937   */\n      dup5\n        /* \"#utility.yul\":7923:7929   */\n      dup6\n        /* \"#utility.yul\":7916:7938   */\n      revert\n        /* \"#utility.yul\":7896:7898   */\n    tag_677:\n        /* \"#utility.yul\":7959:8010   */\n      tag_678\n        /* \"#utility.yul\":8002:8009   */\n      dup10\n        /* \"#utility.yul\":7993:7999   */\n      dup4\n        /* \"#utility.yul\":7982:7991   */\n      dup11\n        /* \"#utility.yul\":7978:8000   */\n      add\n        /* \"#utility.yul\":7959:8010   */\n      tag_614\n      jump\t// in\n    tag_678:\n        /* \"#utility.yul\":7949:8010   */\n      swap5\n      pop\n        /* \"#utility.yul\":8057:8059   */\n      0x60\n        /* \"#utility.yul\":8046:8055   */\n      dup9\n        /* \"#utility.yul\":8042:8060   */\n      add\n        /* \"#utility.yul\":8029:8061   */\n      calldataload\n        /* \"#utility.yul\":8019:8061   */\n      swap4\n      pop\n        /* \"#utility.yul\":8114:8117   */\n      0x80\n        /* \"#utility.yul\":8103:8112   */\n      dup9\n        /* \"#utility.yul\":8099:8118   */\n      add\n        /* \"#utility.yul\":8086:8119   */\n      calldataload\n        /* \"#utility.yul\":8070:8119   */\n      swap2\n      pop\n        /* \"#utility.yul\":8144:8146   */\n      dup1\n        /* \"#utility.yul\":8134:8142   */\n      dup3\n        /* \"#utility.yul\":8131:8147   */\n      gt\n        /* \"#utility.yul\":8128:8130   */\n      iszero\n      tag_679\n      jumpi\n        /* \"#utility.yul\":8165:8171   */\n      dup3\n        /* \"#utility.yul\":8157:8163   */\n      dup4\n        /* \"#utility.yul\":8150:8172   */\n      revert\n        /* \"#utility.yul\":8128:8130   */\n    tag_679:\n      pop\n        /* \"#utility.yul\":8193:8246   */\n      tag_662\n        /* \"#utility.yul\":8238:8245   */\n      dup9\n        /* \"#utility.yul\":8227:8235   */\n      dup3\n        /* \"#utility.yul\":8216:8225   */\n      dup10\n        /* \"#utility.yul\":8212:8236   */\n      add\n        /* \"#utility.yul\":8193:8246   */\n      tag_614\n      jump\t// in\n        /* \"#utility.yul\":8257:9106   */\n    tag_123:\n      0x00\n      dup1\n      0x00\n      dup1\n      0x00\n      dup1\n        /* \"#utility.yul\":8473:8476   */\n      0xc0\n        /* \"#utility.yul\":8461:8470   */\n      dup8\n        /* \"#utility.yul\":8452:8459   */\n      dup10\n        /* \"#utility.yul\":8448:8471   */\n      sub\n        /* \"#utility.yul\":8444:8477   */\n      slt\n        /* \"#utility.yul\":8441:8443   */\n      iszero\n      tag_682\n      jumpi\n        /* \"#utility.yul\":8495:8501   */\n      dup4\n        /* \"#utility.yul\":8487:8493   */\n      dup5\n        /* \"#utility.yul\":8480:8502   */\n      revert\n        /* \"#utility.yul\":8441:8443   */\n    tag_682:\n        /* \"#utility.yul\":8536:8545   */\n      dup7\n        /* \"#utility.yul\":8523:8546   */\n      calldataload\n        /* \"#utility.yul\":8513:8546   */\n      swap6\n      pop\n        /* \"#utility.yul\":8593:8595   */\n      0x20\n        /* \"#utility.yul\":8582:8591   */\n      dup8\n        /* \"#utility.yul\":8578:8596   */\n      add\n        /* \"#utility.yul\":8565:8597   */\n      calldataload\n        /* \"#utility.yul\":8555:8597   */\n      swap5\n      pop\n        /* \"#utility.yul\":8648:8650   */\n      0x40\n        /* \"#utility.yul\":8637:8646   */\n      dup8\n        /* \"#utility.yul\":8633:8651   */\n      add\n        /* \"#utility.yul\":8620:8652   */\n      calldataload\n        /* \"#utility.yul\":8671:8689   */\n      0xffffffffffffffff\n        /* \"#utility.yul\":8712:8714   */\n      dup1\n        /* \"#utility.yul\":8704:8710   */\n      dup3\n        /* \"#utility.yul\":8701:8715   */\n      gt\n        /* \"#utility.yul\":8698:8700   */\n      iszero\n      tag_683\n      jumpi\n        /* \"#utility.yul\":8733:8739   */\n      dup6\n        /* \"#utility.yul\":8725:8731   */\n      dup7\n        /* \"#utility.yul\":8718:8740   */\n      revert\n        /* \"#utility.yul\":8698:8700   */\n    tag_683:\n        /* \"#utility.yul\":8761:8812   */\n      tag_684\n        /* \"#utility.yul\":8804:8811   */\n      dup11\n        /* \"#utility.yul\":8795:8801   */\n      dup4\n        /* \"#utility.yul\":8784:8793   */\n      dup12\n        /* \"#utility.yul\":8780:8802   */\n      add\n        /* \"#utility.yul\":8761:8812   */\n      tag_614\n      jump\t// in\n    tag_684:\n        /* \"#utility.yul\":8751:8812   */\n      swap6\n      pop\n        /* \"#utility.yul\":8859:8861   */\n      0x60\n        /* \"#utility.yul\":8848:8857   */\n      dup10\n        /* \"#utility.yul\":8844:8862   */\n      add\n        /* \"#utility.yul\":8831:8863   */\n      calldataload\n        /* \"#utility.yul\":8821:8863   */\n      swap5\n      pop\n        /* \"#utility.yul\":8916:8919   */\n      0x80\n        /* \"#utility.yul\":8905:8914   */\n      dup10\n        /* \"#utility.yul\":8901:8920   */\n      add\n        /* \"#utility.yul\":8888:8921   */\n      calldataload\n        /* \"#utility.yul\":8872:8921   */\n      swap2\n      pop\n        /* \"#utility.yul\":8946:8948   */\n      dup1\n        /* \"#utility.yul\":8936:8944   */\n      dup3\n        /* \"#utility.yul\":8933:8949   */\n      gt\n        /* \"#utility.yul\":8930:8932   */\n      iszero\n      tag_685\n      jumpi\n        /* \"#utility.yul\":8967:8973   */\n      dup4\n        /* \"#utility.yul\":8959:8965   */\n      dup5\n        /* \"#utility.yul\":8952:8974   */\n      revert\n        /* \"#utility.yul\":8930:8932   */\n    tag_685:\n      pop\n        /* \"#utility.yul\":8995:9048   */\n      tag_686\n        /* \"#utility.yul\":9040:9047   */\n      dup10\n        /* \"#utility.yul\":9029:9037   */\n      dup3\n        /* \"#utility.yul\":9018:9027   */\n      dup11\n        /* \"#utility.yul\":9014:9038   */\n      add\n        /* \"#utility.yul\":8995:9048   */\n      tag_614\n      jump\t// in\n    tag_686:\n        /* \"#utility.yul\":8985:9048   */\n      swap3\n      pop\n      pop\n        /* \"#utility.yul\":9095:9098   */\n      0xa0\n        /* \"#utility.yul\":9084:9093   */\n      dup8\n        /* \"#utility.yul\":9080:9099   */\n      add\n        /* \"#utility.yul\":9067:9100   */\n      calldataload\n        /* \"#utility.yul\":9057:9100   */\n      swap1\n      pop\n        /* \"#utility.yul\":8431:9106   */\n      swap3\n      swap6\n      pop\n      swap3\n      swap6\n      pop\n      swap3\n      swap6\n      jump\t// out\n        /* \"#utility.yul\":9111:10029   */\n    tag_78:\n      0x00\n      dup1\n      0x00\n      dup1\n      0x00\n      dup1\n      0x00\n        /* \"#utility.yul\":9344:9347   */\n      0xe0\n        /* \"#utility.yul\":9332:9341   */\n      dup9\n        /* \"#utility.yul\":9323:9330   */\n      dup11\n        /* \"#utility.yul\":9319:9342   */\n      sub\n        /* \"#utility.yul\":9315:9348   */\n      slt\n        /* \"#utility.yul\":9312:9314   */\n      iszero\n      tag_688\n      jumpi\n        /* \"#utility.yul\":9366:9372   */\n      dup1\n        /* \"#utility.yul\":9358:9364   */\n      dup2\n        /* \"#utility.yul\":9351:9373   */\n      revert\n        /* \"#utility.yul\":9312:9314   */\n    tag_688:\n        /* \"#utility.yul\":9407:9416   */\n      dup8\n        /* \"#utility.yul\":9394:9417   */\n      calldataload\n        /* \"#utility.yul\":9384:9417   */\n      swap7\n      pop\n        /* \"#utility.yul\":9464:9466   */\n      0x20\n        /* \"#utility.yul\":9453:9462   */\n      dup9\n        /* \"#utility.yul\":9449:9467   */\n      add\n        /* \"#utility.yul\":9436:9468   */\n      calldataload\n        /* \"#utility.yul\":9426:9468   */\n      swap6\n      pop\n        /* \"#utility.yul\":9515:9517   */\n      0x40\n        /* \"#utility.yul\":9504:9513   */\n      dup9\n        /* \"#utility.yul\":9500:9518   */\n      add\n        /* \"#utility.yul\":9487:9519   */\n      calldataload\n        /* \"#utility.yul\":9477:9519   */\n      swap5\n      pop\n        /* \"#utility.yul\":9570:9572   */\n      0x60\n        /* \"#utility.yul\":9559:9568   */\n      dup9\n        /* \"#utility.yul\":9555:9573   */\n      add\n        /* \"#utility.yul\":9542:9574   */\n      calldataload\n        /* \"#utility.yul\":9593:9611   */\n      0xffffffffffffffff\n        /* \"#utility.yul\":9634:9636   */\n      dup1\n        /* \"#utility.yul\":9626:9632   */\n      dup3\n        /* \"#utility.yul\":9623:9637   */\n      gt\n        /* \"#utility.yul\":9620:9622   */\n      iszero\n      tag_689\n      jumpi\n        /* \"#utility.yul\":9655:9661   */\n      dup3\n        /* \"#utility.yul\":9647:9653   */\n      dup4\n        /* \"#utility.yul\":9640:9662   */\n      revert\n        /* \"#utility.yul\":9620:9622   */\n    tag_689:\n        /* \"#utility.yul\":9683:9734   */\n      tag_690\n        /* \"#utility.yul\":9726:9733   */\n      dup12\n        /* \"#utility.yul\":9717:9723   */\n      dup4\n        /* \"#utility.yul\":9706:9715   */\n      dup13\n        /* \"#utility.yul\":9702:9724   */\n      add\n        /* \"#utility.yul\":9683:9734   */\n      tag_614\n      jump\t// in\n    tag_690:\n        /* \"#utility.yul\":9673:9734   */\n      swap6\n      pop\n        /* \"#utility.yul\":9781:9784   */\n      0x80\n        /* \"#utility.yul\":9770:9779   */\n      dup11\n        /* \"#utility.yul\":9766:9785   */\n      add\n        /* \"#utility.yul\":9753:9786   */\n      calldataload\n        /* \"#utility.yul\":9743:9786   */\n      swap5\n      pop\n        /* \"#utility.yul\":9833:9836   */\n      0xa0\n        /* \"#utility.yul\":9822:9831   */\n      dup11\n        /* \"#utility.yul\":9818:9837   */\n      add\n        /* \"#utility.yul\":9805:9838   */\n      calldataload\n        /* \"#utility.yul\":9795:9838   */\n      swap4\n      pop\n        /* \"#utility.yul\":9891:9894   */\n      0xc0\n        /* \"#utility.yul\":9880:9889   */\n      dup11\n        /* \"#utility.yul\":9876:9895   */\n      add\n        /* \"#utility.yul\":9863:9896   */\n      calldataload\n        /* \"#utility.yul\":9847:9896   */\n      swap2\n      pop\n        /* \"#utility.yul\":9921:9923   */\n      dup1\n        /* \"#utility.yul\":9911:9919   */\n      dup3\n        /* \"#utility.yul\":9908:9924   */\n      gt\n        /* \"#utility.yul\":9905:9907   */\n      iszero\n      tag_691\n      jumpi\n        /* \"#utility.yul\":9942:9948   */\n      dup3\n        /* \"#utility.yul\":9934:9940   */\n      dup4\n        /* \"#utility.yul\":9927:9949   */\n      revert\n        /* \"#utility.yul\":9905:9907   */\n    tag_691:\n      pop\n        /* \"#utility.yul\":9970:10023   */\n      tag_692\n        /* \"#utility.yul\":10015:10022   */\n      dup11\n        /* \"#utility.yul\":10004:10012   */\n      dup3\n        /* \"#utility.yul\":9993:10002   */\n      dup12\n        /* \"#utility.yul\":9989:10013   */\n      add\n        /* \"#utility.yul\":9970:10023   */\n      tag_614\n      jump\t// in\n    tag_692:\n        /* \"#utility.yul\":9960:10023   */\n      swap2\n      pop\n      pop\n        /* \"#utility.yul\":9302:10029   */\n      swap3\n      swap6\n      swap9\n      swap2\n      swap5\n      swap8\n      pop\n      swap3\n      swap6\n      pop\n      jump\t// out\n        /* \"#utility.yul\":10034:10140   */\n    tag_693:\n      sub(shl(0xa0, 0x01), 0x01)\n        /* \"#utility.yul\":10102:10133   */\n      and\n        /* \"#utility.yul\":10090:10134   */\n      swap1\n      mstore\n        /* \"#utility.yul\":10080:10140   */\n      jump\t// out\n        /* \"#utility.yul\":10145:10404   */\n    tag_695:\n      0x00\n        /* \"#utility.yul\":10226:10231   */\n      dup2\n        /* \"#utility.yul\":10220:10232   */\n      mload\n        /* \"#utility.yul\":10253:10259   */\n      dup1\n        /* \"#utility.yul\":10248:10251   */\n      dup5\n        /* \"#utility.yul\":10241:10260   */\n      mstore\n        /* \"#utility.yul\":10269:10332   */\n      tag_697\n        /* \"#utility.yul\":10325:10331   */\n      dup2\n        /* \"#utility.yul\":10318:10322   */\n      0x20\n        /* \"#utility.yul\":10313:10316   */\n      dup7\n        /* \"#utility.yul\":10309:10323   */\n      add\n        /* \"#utility.yul\":10302:10306   */\n      0x20\n        /* \"#utility.yul\":10295:10300   */\n      dup7\n        /* \"#utility.yul\":10291:10307   */\n      add\n        /* \"#utility.yul\":10269:10332   */\n      tag_698\n      jump\t// in\n    tag_697:\n        /* \"#utility.yul\":10386:10388   */\n      0x1f\n        /* \"#utility.yul\":10365:10380   */\n      add\n      not(0x1f)\n        /* \"#utility.yul\":10361:10390   */\n      and\n        /* \"#utility.yul\":10352:10391   */\n      swap3\n      swap1\n      swap3\n      add\n        /* \"#utility.yul\":10393:10397   */\n      0x20\n        /* \"#utility.yul\":10348:10398   */\n      add\n      swap3\n        /* \"#utility.yul\":10196:10404   */\n      swap2\n      pop\n      pop\n      jump\t// out\n        /* \"#utility.yul\":10409:10683   */\n    tag_574:\n      0x00\n        /* \"#utility.yul\":10576:10582   */\n      dup3\n        /* \"#utility.yul\":10570:10583   */\n      mload\n        /* \"#utility.yul\":10592:10645   */\n      tag_700\n        /* \"#utility.yul\":10638:10644   */\n      dup2\n        /* \"#utility.yul\":10633:10636   */\n      dup5\n        /* \"#utility.yul\":10626:10630   */\n      0x20\n        /* \"#utility.yul\":10618:10624   */\n      dup8\n        /* \"#utility.yul\":10614:10631   */\n      add\n        /* \"#utility.yul\":10592:10645   */\n      tag_698\n      jump\t// in\n    tag_700:\n        /* \"#utility.yul\":10661:10677   */\n      swap2\n      swap1\n      swap2\n      add\n      swap3\n        /* \"#utility.yul\":10546:10683   */\n      swap2\n      pop\n      pop\n      jump\t// out\n        /* \"#utility.yul\":10688:10891   */\n    tag_67:\n      sub(shl(0xa0, 0x01), 0x01)\n        /* \"#utility.yul\":10852:10884   */\n      swap2\n      swap1\n      swap2\n      and\n        /* \"#utility.yul\":10834:10885   */\n      dup2\n      mstore\n        /* \"#utility.yul\":10822:10824   */\n      0x20\n        /* \"#utility.yul\":10807:10825   */\n      add\n      swap1\n        /* \"#utility.yul\":10789:10891   */\n      jump\t// out\n        /* \"#utility.yul\":10896:11271   */\n    tag_387:\n      sub(shl(0xa0, 0x01), 0x01)\n        /* \"#utility.yul\":11154:11169   */\n      swap4\n      dup5\n      and\n        /* \"#utility.yul\":11136:11170   */\n      dup2\n      mstore\n        /* \"#utility.yul\":11206:11221   */\n      swap2\n      swap1\n      swap3\n      and\n        /* \"#utility.yul\":11201:11203   */\n      0x20\n        /* \"#utility.yul\":11186:11204   */\n      dup3\n      add\n        /* \"#utility.yul\":11179:11222   */\n      mstore\n        /* \"#utility.yul\":11253:11255   */\n      0x40\n        /* \"#utility.yul\":11238:11256   */\n      dup2\n      add\n        /* \"#utility.yul\":11231:11265   */\n      swap2\n      swap1\n      swap2\n      mstore\n        /* \"#utility.yul\":11086:11088   */\n      0x60\n        /* \"#utility.yul\":11071:11089   */\n      add\n      swap1\n        /* \"#utility.yul\":11053:11271   */\n      jump\t// out\n        /* \"#utility.yul\":11276:11550   */\n    tag_395:\n      sub(shl(0xa0, 0x01), 0x01)\n        /* \"#utility.yul\":11468:11500   */\n      swap3\n      swap1\n      swap3\n      and\n        /* \"#utility.yul\":11450:11501   */\n      dup3\n      mstore\n        /* \"#utility.yul\":11532:11534   */\n      0x20\n        /* \"#utility.yul\":11517:11535   */\n      dup3\n      add\n        /* \"#utility.yul\":11510:11544   */\n      mstore\n        /* \"#utility.yul\":11438:11440   */\n      0x40\n        /* \"#utility.yul\":11423:11441   */\n      add\n      swap1\n        /* \"#utility.yul\":11405:11550   */\n      jump\t// out\n        /* \"#utility.yul\":11555:12190   */\n    tag_47:\n        /* \"#utility.yul\":11726:11728   */\n      0x20\n        /* \"#utility.yul\":11778:11799   */\n      dup1\n      dup3\n      mstore\n        /* \"#utility.yul\":11848:11861   */\n      dup3\n      mload\n        /* \"#utility.yul\":11751:11769   */\n      dup3\n      dup3\n      add\n        /* \"#utility.yul\":11870:11892   */\n      dup2\n      swap1\n      mstore\n        /* \"#utility.yul\":11555:12190   */\n      0x00\n      swap2\n        /* \"#utility.yul\":11726:11728   */\n      swap1\n        /* \"#utility.yul\":11949:11964   */\n      dup5\n      dup3\n      add\n      swap1\n        /* \"#utility.yul\":11923:11925   */\n      0x40\n        /* \"#utility.yul\":11908:11926   */\n      dup6\n      add\n      swap1\n        /* \"#utility.yul\":11555:12190   */\n      dup5\n        /* \"#utility.yul\":11995:12164   */\n    tag_705:\n        /* \"#utility.yul\":12009:12015   */\n      dup2\n        /* \"#utility.yul\":12006:12007   */\n      dup2\n        /* \"#utility.yul\":12003:12016   */\n      lt\n        /* \"#utility.yul\":11995:12164   */\n      iszero\n      tag_707\n      jumpi\n        /* \"#utility.yul\":12070:12083   */\n      dup4\n      mload\n        /* \"#utility.yul\":12058:12084   */\n      dup4\n      mstore\n        /* \"#utility.yul\":12139:12154   */\n      swap3\n      dup5\n      add\n      swap3\n        /* \"#utility.yul\":12104:12116   */\n      swap2\n      dup5\n      add\n      swap2\n        /* \"#utility.yul\":12031:12032   */\n      0x01\n        /* \"#utility.yul\":12024:12033   */\n      add\n        /* \"#utility.yul\":11995:12164   */\n      jump(tag_705)\n    tag_707:\n      pop\n        /* \"#utility.yul\":12181:12184   */\n      swap1\n      swap7\n        /* \"#utility.yul\":11706:12190   */\n      swap6\n      pop\n      pop\n      pop\n      pop\n      pop\n      pop\n      jump\t// out\n        /* \"#utility.yul\":12195:12382   */\n    tag_59:\n        /* \"#utility.yul\":12360:12374   */\n      swap1\n      iszero\n        /* \"#utility.yul\":12353:12375   */\n      iszero\n        /* \"#utility.yul\":12335:12376   */\n      dup2\n      mstore\n        /* \"#utility.yul\":12323:12325   */\n      0x20\n        /* \"#utility.yul\":12308:12326   */\n      add\n      swap1\n        /* \"#utility.yul\":12290:12382   */\n      jump\t// out\n        /* \"#utility.yul\":13073:13294   */\n    tag_587:\n      0x00\n        /* \"#utility.yul\":13222:13224   */\n      0x20\n        /* \"#utility.yul\":13211:13220   */\n      dup3\n        /* \"#utility.yul\":13204:13225   */\n      mstore\n        /* \"#utility.yul\":13242:13288   */\n      tag_383\n        /* \"#utility.yul\":13284:13286   */\n      0x20\n        /* \"#utility.yul\":13273:13282   */\n      dup4\n        /* \"#utility.yul\":13269:13287   */\n      add\n        /* \"#utility.yul\":13261:13267   */\n      dup5\n        /* \"#utility.yul\":13242:13288   */\n      tag_695\n      jump\t// in\n        /* \"#utility.yul\":13299:13643   */\n    tag_324:\n        /* \"#utility.yul\":13501:13503   */\n      0x20\n        /* \"#utility.yul\":13483:13504   */\n      dup1\n      dup3\n      mstore\n        /* \"#utility.yul\":13540:13542   */\n      0x14\n        /* \"#utility.yul\":13520:13538   */\n      swap1\n      dup3\n      add\n        /* \"#utility.yul\":13513:13543   */\n      mstore\n      shl(0x62, 0x1bdc99195c88191bd95cc81b9bdd08195e1a5cdd)\n        /* \"#utility.yul\":13574:13576   */\n      0x40\n        /* \"#utility.yul\":13559:13577   */\n      dup3\n      add\n        /* \"#utility.yul\":13552:13602   */\n      mstore\n        /* \"#utility.yul\":13634:13636   */\n      0x60\n        /* \"#utility.yul\":13619:13637   */\n      add\n      swap1\n        /* \"#utility.yul\":13473:13643   */\n      jump\t// out\n        /* \"#utility.yul\":13648:14050   */\n    tag_362:\n        /* \"#utility.yul\":13850:13852   */\n      0x20\n        /* \"#utility.yul\":13832:13853   */\n      dup1\n      dup3\n      mstore\n        /* \"#utility.yul\":13889:13891   */\n      0x26\n        /* \"#utility.yul\":13869:13887   */\n      swap1\n      dup3\n      add\n        /* \"#utility.yul\":13862:13892   */\n      mstore\n        /* \"#utility.yul\":13928:13962   */\n      0x4f776e61626c653a206e6577206f776e657220697320746865207a65726f2061\n        /* \"#utility.yul\":13923:13925   */\n      0x40\n        /* \"#utility.yul\":13908:13926   */\n      dup3\n      add\n        /* \"#utility.yul\":13901:13963   */\n      mstore\n      shl(0xd0, 0x646472657373)\n        /* \"#utility.yul\":13994:13996   */\n      0x60\n        /* \"#utility.yul\":13979:13997   */\n      dup3\n      add\n        /* \"#utility.yul\":13972:14008   */\n      mstore\n        /* \"#utility.yul\":14040:14043   */\n      0x80\n        /* \"#utility.yul\":14025:14044   */\n      add\n      swap1\n        /* \"#utility.yul\":13822:14050   */\n      jump\t// out\n        /* \"#utility.yul\":14055:14389   */\n    tag_231:\n        /* \"#utility.yul\":14257:14259   */\n      0x20\n        /* \"#utility.yul\":14239:14260   */\n      dup1\n      dup3\n      mstore\n        /* \"#utility.yul\":14296:14298   */\n      0x0a\n        /* \"#utility.yul\":14276:14294   */\n      swap1\n      dup3\n      add\n        /* \"#utility.yul\":14269:14299   */\n      mstore\n      shl(0xb1, 0x37b930b1b6329032b939)\n        /* \"#utility.yul\":14330:14332   */\n      0x40\n        /* \"#utility.yul\":14315:14333   */\n      dup3\n      add\n        /* \"#utility.yul\":14308:14348   */\n      mstore\n        /* \"#utility.yul\":14380:14382   */\n      0x60\n        /* \"#utility.yul\":14365:14383   */\n      add\n      swap1\n        /* \"#utility.yul\":14229:14389   */\n      jump\t// out\n        /* \"#utility.yul\":14394:14794   */\n    tag_287:\n        /* \"#utility.yul\":14596:14598   */\n      0x20\n        /* \"#utility.yul\":14578:14599   */\n      dup1\n      dup3\n      mstore\n        /* \"#utility.yul\":14635:14637   */\n      0x24\n        /* \"#utility.yul\":14615:14633   */\n      swap1\n      dup3\n      add\n        /* \"#utility.yul\":14608:14638   */\n      mstore\n        /* \"#utility.yul\":14674:14708   */\n      0x6578656375746f723a2063616c6c6572206973206e6f74207468652065786563\n        /* \"#utility.yul\":14669:14671   */\n      0x40\n        /* \"#utility.yul\":14654:14672   */\n      dup3\n      add\n        /* \"#utility.yul\":14647:14709   */\n      mstore\n      shl(0xe1, 0x3aba37b9)\n        /* \"#utility.yul\":14740:14742   */\n      0x60\n        /* \"#utility.yul\":14725:14743   */\n      dup3\n      add\n        /* \"#utility.yul\":14718:14752   */\n      mstore\n        /* \"#utility.yul\":14784:14787   */\n      0x80\n        /* \"#utility.yul\":14769:14788   */\n      add\n      swap1\n        /* \"#utility.yul\":14568:14794   */\n      jump\t// out\n        /* \"#utility.yul\":14799:15201   */\n    tag_567:\n        /* \"#utility.yul\":15001:15003   */\n      0x20\n        /* \"#utility.yul\":14983:15004   */\n      dup1\n      dup3\n      mstore\n        /* \"#utility.yul\":15040:15042   */\n      0x26\n        /* \"#utility.yul\":15020:15038   */\n      swap1\n      dup3\n      add\n        /* \"#utility.yul\":15013:15043   */\n      mstore\n        /* \"#utility.yul\":15079:15113   */\n      0x416464726573733a20696e73756666696369656e742062616c616e636520666f\n        /* \"#utility.yul\":15074:15076   */\n      0x40\n        /* \"#utility.yul\":15059:15077   */\n      dup3\n      add\n        /* \"#utility.yul\":15052:15114   */\n      mstore\n      shl(0xd2, 0x1c8818d85b1b)\n        /* \"#utility.yul\":15145:15147   */\n      0x60\n        /* \"#utility.yul\":15130:15148   */\n      dup3\n      add\n        /* \"#utility.yul\":15123:15159   */\n      mstore\n        /* \"#utility.yul\":15191:15194   */\n      0x80\n        /* \"#utility.yul\":15176:15195   */\n      add\n      swap1\n        /* \"#utility.yul\":14973:15201   */\n      jump\t// out\n        /* \"#utility.yul\":15206:15616   */\n    tag_368:\n        /* \"#utility.yul\":15408:15410   */\n      0x20\n        /* \"#utility.yul\":15390:15411   */\n      dup1\n      dup3\n      mstore\n        /* \"#utility.yul\":15447:15449   */\n      0x2e\n        /* \"#utility.yul\":15427:15445   */\n      swap1\n      dup3\n      add\n        /* \"#utility.yul\":15420:15450   */\n      mstore\n        /* \"#utility.yul\":15486:15520   */\n      0x496e697469616c697a61626c653a20636f6e747261637420697320616c726561\n        /* \"#utility.yul\":15481:15483   */\n      0x40\n        /* \"#utility.yul\":15466:15484   */\n      dup3\n      add\n        /* \"#utility.yul\":15459:15521   */\n      mstore\n      shl(0x92, 0x191e481a5b9a5d1a585b1a5e9959)\n        /* \"#utility.yul\":15552:15554   */\n      0x60\n        /* \"#utility.yul\":15537:15555   */\n      dup3\n      add\n        /* \"#utility.yul\":15530:15574   */\n      mstore\n        /* \"#utility.yul\":15606:15609   */\n      0x80\n        /* \"#utility.yul\":15591:15610   */\n      add\n      swap1\n        /* \"#utility.yul\":15380:15616   */\n      jump\t// out\n        /* \"#utility.yul\":15621:16020   */\n    tag_236:\n        /* \"#utility.yul\":15823:15825   */\n      0x20\n        /* \"#utility.yul\":15805:15826   */\n      dup1\n      dup3\n      mstore\n        /* \"#utility.yul\":15862:15864   */\n      0x23\n        /* \"#utility.yul\":15842:15860   */\n      swap1\n      dup3\n      add\n        /* \"#utility.yul\":15835:15865   */\n      mstore\n        /* \"#utility.yul\":15901:15935   */\n      0x546865207472616e73616374696f6e20616d6f756e7420697320746f6f20736d\n        /* \"#utility.yul\":15896:15898   */\n      0x40\n        /* \"#utility.yul\":15881:15899   */\n      dup3\n      add\n        /* \"#utility.yul\":15874:15936   */\n      mstore\n      shl(0xea, 0x185b1b)\n        /* \"#utility.yul\":15967:15969   */\n      0x60\n        /* \"#utility.yul\":15952:15970   */\n      dup3\n      add\n        /* \"#utility.yul\":15945:15978   */\n      mstore\n        /* \"#utility.yul\":16010:16013   */\n      0x80\n        /* \"#utility.yul\":15995:16014   */\n      add\n      swap1\n        /* \"#utility.yul\":15795:16020   */\n      jump\t// out\n        /* \"#utility.yul\":16025:16365   */\n    tag_337:\n        /* \"#utility.yul\":16227:16229   */\n      0x20\n        /* \"#utility.yul\":16209:16230   */\n      dup1\n      dup3\n      mstore\n        /* \"#utility.yul\":16266:16268   */\n      0x10\n        /* \"#utility.yul\":16246:16264   */\n      swap1\n      dup3\n      add\n        /* \"#utility.yul\":16239:16269   */\n      mstore\n      shl(0x82, 0x155cd95c881a5cc818985b9adc9d5c1d)\n        /* \"#utility.yul\":16300:16302   */\n      0x40\n        /* \"#utility.yul\":16285:16303   */\n      dup3\n      add\n        /* \"#utility.yul\":16278:16324   */\n      mstore\n        /* \"#utility.yul\":16356:16358   */\n      0x60\n        /* \"#utility.yul\":16341:16359   */\n      add\n      swap1\n        /* \"#utility.yul\":16199:16365   */\n      jump\t// out\n        /* \"#utility.yul\":16370:16726   */\n    tag_216:\n        /* \"#utility.yul\":16572:16574   */\n      0x20\n        /* \"#utility.yul\":16554:16575   */\n      dup1\n      dup3\n      mstore\n        /* \"#utility.yul\":16591:16609   */\n      dup2\n      dup2\n      add\n        /* \"#utility.yul\":16584:16614   */\n      mstore\n        /* \"#utility.yul\":16650:16684   */\n      0x4f776e61626c653a2063616c6c6572206973206e6f7420746865206f776e6572\n        /* \"#utility.yul\":16645:16647   */\n      0x40\n        /* \"#utility.yul\":16630:16648   */\n      dup3\n      add\n        /* \"#utility.yul\":16623:16685   */\n      mstore\n        /* \"#utility.yul\":16717:16719   */\n      0x60\n        /* \"#utility.yul\":16702:16720   */\n      add\n      swap1\n        /* \"#utility.yul\":16544:16726   */\n      jump\t// out\n        /* \"#utility.yul\":16731:17084   */\n    tag_572:\n        /* \"#utility.yul\":16933:16935   */\n      0x20\n        /* \"#utility.yul\":16915:16936   */\n      dup1\n      dup3\n      mstore\n        /* \"#utility.yul\":16972:16974   */\n      0x1d\n        /* \"#utility.yul\":16952:16970   */\n      swap1\n      dup3\n      add\n        /* \"#utility.yul\":16945:16975   */\n      mstore\n        /* \"#utility.yul\":17011:17042   */\n      0x416464726573733a2063616c6c20746f206e6f6e2d636f6e7472616374000000\n        /* \"#utility.yul\":17006:17008   */\n      0x40\n        /* \"#utility.yul\":16991:17009   */\n      dup3\n      add\n        /* \"#utility.yul\":16984:17043   */\n      mstore\n        /* \"#utility.yul\":17075:17077   */\n      0x60\n        /* \"#utility.yul\":17060:17078   */\n      add\n      swap1\n        /* \"#utility.yul\":16905:17084   */\n      jump\t// out\n        /* \"#utility.yul\":17089:17423   */\n    tag_194:\n        /* \"#utility.yul\":17291:17293   */\n      0x20\n        /* \"#utility.yul\":17273:17294   */\n      dup1\n      dup3\n      mstore\n        /* \"#utility.yul\":17330:17332   */\n      0x0a\n        /* \"#utility.yul\":17310:17328   */\n      swap1\n      dup3\n      add\n        /* \"#utility.yul\":17303:17333   */\n      mstore\n      shl(0xb1, 0x3632b733ba341032b939)\n        /* \"#utility.yul\":17364:17366   */\n      0x40\n        /* \"#utility.yul\":17349:17367   */\n      dup3\n      add\n        /* \"#utility.yul\":17342:17382   */\n      mstore\n        /* \"#utility.yul\":17414:17416   */\n      0x60\n        /* \"#utility.yul\":17399:17417   */\n      add\n      swap1\n        /* \"#utility.yul\":17263:17423   */\n      jump\t// out\n        /* \"#utility.yul\":17428:17759   */\n    tag_341:\n        /* \"#utility.yul\":17630:17632   */\n      0x20\n        /* \"#utility.yul\":17612:17633   */\n      dup1\n      dup3\n      mstore\n        /* \"#utility.yul\":17669:17670   */\n      0x08\n        /* \"#utility.yul\":17649:17667   */\n      swap1\n      dup3\n      add\n        /* \"#utility.yul\":17642:17671   */\n      mstore\n      shl(0xc1, 0x3ab9b2b91032b939)\n        /* \"#utility.yul\":17702:17704   */\n      0x40\n        /* \"#utility.yul\":17687:17705   */\n      dup3\n      add\n        /* \"#utility.yul\":17680:17718   */\n      mstore\n        /* \"#utility.yul\":17750:17752   */\n      0x60\n        /* \"#utility.yul\":17735:17753   */\n      add\n      swap1\n        /* \"#utility.yul\":17602:17759   */\n      jump\t// out\n        /* \"#utility.yul\":17764:18096   */\n    tag_221:\n        /* \"#utility.yul\":17966:17968   */\n      0x20\n        /* \"#utility.yul\":17948:17969   */\n      dup1\n      dup3\n      mstore\n        /* \"#utility.yul\":18005:18006   */\n      0x09\n        /* \"#utility.yul\":17985:18003   */\n      swap1\n      dup3\n      add\n        /* \"#utility.yul\":17978:18007   */\n      mstore\n      shl(0xb9, 0x39ba30ba329032b939)\n        /* \"#utility.yul\":18038:18040   */\n      0x40\n        /* \"#utility.yul\":18023:18041   */\n      dup3\n      add\n        /* \"#utility.yul\":18016:18055   */\n      mstore\n        /* \"#utility.yul\":18087:18089   */\n      0x60\n        /* \"#utility.yul\":18072:18090   */\n      add\n      swap1\n        /* \"#utility.yul\":17938:18096   */\n      jump\t// out\n        /* \"#utility.yul\":18101:18507   */\n    tag_532:\n        /* \"#utility.yul\":18303:18305   */\n      0x20\n        /* \"#utility.yul\":18285:18306   */\n      dup1\n      dup3\n      mstore\n        /* \"#utility.yul\":18342:18344   */\n      0x2a\n        /* \"#utility.yul\":18322:18340   */\n      swap1\n      dup3\n      add\n        /* \"#utility.yul\":18315:18345   */\n      mstore\n        /* \"#utility.yul\":18381:18415   */\n      0x5361666545524332303a204552433230206f7065726174696f6e20646964206e\n        /* \"#utility.yul\":18376:18378   */\n      0x40\n        /* \"#utility.yul\":18361:18379   */\n      dup3\n      add\n        /* \"#utility.yul\":18354:18416   */\n      mstore\n      shl(0xb2, 0x1bdd081cdd58d8d95959)\n        /* \"#utility.yul\":18447:18449   */\n      0x60\n        /* \"#utility.yul\":18432:18450   */\n      dup3\n      add\n        /* \"#utility.yul\":18425:18465   */\n      mstore\n        /* \"#utility.yul\":18497:18500   */\n      0x80\n        /* \"#utility.yul\":18482:18501   */\n      add\n      swap1\n        /* \"#utility.yul\":18275:18507   */\n      jump\t// out\n        /* \"#utility.yul\":18512:19650   */\n    tag_90:\n      0x00\n        /* \"#utility.yul\":18695:18697   */\n      0x20\n        /* \"#utility.yul\":18684:18693   */\n      dup3\n        /* \"#utility.yul\":18677:18698   */\n      mstore\n        /* \"#utility.yul\":18707:18762   */\n      tag_729\n        /* \"#utility.yul\":18758:18760   */\n      0x20\n        /* \"#utility.yul\":18747:18756   */\n      dup4\n        /* \"#utility.yul\":18743:18761   */\n      add\n        /* \"#utility.yul\":18734:18740   */\n      dup5\n        /* \"#utility.yul\":18728:18741   */\n      mload\n        /* \"#utility.yul\":18707:18762   */\n      tag_693\n      jump\t// in\n    tag_729:\n        /* \"#utility.yul\":18816:18818   */\n      0x20\n        /* \"#utility.yul\":18808:18814   */\n      dup4\n        /* \"#utility.yul\":18804:18819   */\n      add\n        /* \"#utility.yul\":18798:18820   */\n      mload\n        /* \"#utility.yul\":18793:18795   */\n      0x40\n        /* \"#utility.yul\":18782:18791   */\n      dup4\n        /* \"#utility.yul\":18778:18796   */\n      add\n        /* \"#utility.yul\":18771:18821   */\n      mstore\n        /* \"#utility.yul\":18868:18870   */\n      0x40\n        /* \"#utility.yul\":18860:18866   */\n      dup4\n        /* \"#utility.yul\":18856:18871   */\n      add\n        /* \"#utility.yul\":18850:18872   */\n      mload\n        /* \"#utility.yul\":18891:18897   */\n      0x0160\n        /* \"#utility.yul\":18933:18935   */\n      dup1\n        /* \"#utility.yul\":18928:18930   */\n      0x60\n        /* \"#utility.yul\":18917:18926   */\n      dup6\n        /* \"#utility.yul\":18913:18931   */\n      add\n        /* \"#utility.yul\":18906:18936   */\n      mstore\n        /* \"#utility.yul\":18959:19012   */\n      tag_730\n        /* \"#utility.yul\":19007:19010   */\n      0x0180\n        /* \"#utility.yul\":18996:19005   */\n      dup6\n        /* \"#utility.yul\":18992:19011   */\n      add\n        /* \"#utility.yul\":18978:18990   */\n      dup4\n        /* \"#utility.yul\":18959:19012   */\n      tag_695\n      jump\t// in\n    tag_730:\n        /* \"#utility.yul\":18945:19012   */\n      swap2\n      pop\n        /* \"#utility.yul\":19067:19069   */\n      0x60\n        /* \"#utility.yul\":19059:19065   */\n      dup6\n        /* \"#utility.yul\":19055:19070   */\n      add\n        /* \"#utility.yul\":19049:19071   */\n      mload\n        /* \"#utility.yul\":19043:19046   */\n      0x80\n        /* \"#utility.yul\":19032:19041   */\n      dup6\n        /* \"#utility.yul\":19028:19047   */\n      add\n        /* \"#utility.yul\":19021:19072   */\n      mstore\n        /* \"#utility.yul\":19127:19130   */\n      0x80\n        /* \"#utility.yul\":19119:19125   */\n      dup6\n        /* \"#utility.yul\":19115:19131   */\n      add\n        /* \"#utility.yul\":19109:19132   */\n      mload\n        /* \"#utility.yul\":19103:19106   */\n      0xa0\n        /* \"#utility.yul\":19092:19101   */\n      dup6\n        /* \"#utility.yul\":19088:19107   */\n      add\n        /* \"#utility.yul\":19081:19133   */\n      mstore\n        /* \"#utility.yul\":19188:19191   */\n      0xa0\n        /* \"#utility.yul\":19180:19186   */\n      dup6\n        /* \"#utility.yul\":19176:19192   */\n      add\n        /* \"#utility.yul\":19170:19193   */\n      mload\n        /* \"#utility.yul\":19164:19167   */\n      0xc0\n        /* \"#utility.yul\":19153:19162   */\n      dup6\n        /* \"#utility.yul\":19149:19168   */\n      add\n        /* \"#utility.yul\":19142:19194   */\n      mstore\n        /* \"#utility.yul\":19249:19252   */\n      0xc0\n        /* \"#utility.yul\":19241:19247   */\n      dup6\n        /* \"#utility.yul\":19237:19253   */\n      add\n        /* \"#utility.yul\":19231:19254   */\n      mload\n        /* \"#utility.yul\":19225:19228   */\n      0xe0\n        /* \"#utility.yul\":19214:19223   */\n      dup6\n        /* \"#utility.yul\":19210:19229   */\n      add\n        /* \"#utility.yul\":19203:19255   */\n      mstore\n        /* \"#utility.yul\":19292:19295   */\n      0xe0\n        /* \"#utility.yul\":19284:19290   */\n      dup6\n        /* \"#utility.yul\":19280:19296   */\n      add\n        /* \"#utility.yul\":19274:19297   */\n      mload\n        /* \"#utility.yul\":19316:19319   */\n      0x0100\n        /* \"#utility.yul\":19355:19357   */\n      dup2\n        /* \"#utility.yul\":19350:19352   */\n      dup2\n        /* \"#utility.yul\":19339:19348   */\n      dup8\n        /* \"#utility.yul\":19335:19353   */\n      add\n        /* \"#utility.yul\":19328:19358   */\n      mstore\n        /* \"#utility.yul\":19395:19397   */\n      dup1\n        /* \"#utility.yul\":19387:19393   */\n      dup8\n        /* \"#utility.yul\":19383:19398   */\n      add\n        /* \"#utility.yul\":19377:19399   */\n      mload\n        /* \"#utility.yul\":19367:19399   */\n      swap2\n      pop\n      pop\n        /* \"#utility.yul\":19418:19421   */\n      0x0120\n        /* \"#utility.yul\":19457:19459   */\n      dup2\n        /* \"#utility.yul\":19452:19454   */\n      dup2\n        /* \"#utility.yul\":19441:19450   */\n      dup8\n        /* \"#utility.yul\":19437:19455   */\n      add\n        /* \"#utility.yul\":19430:19460   */\n      mstore\n        /* \"#utility.yul\":19497:19499   */\n      dup1\n        /* \"#utility.yul\":19489:19495   */\n      dup8\n        /* \"#utility.yul\":19485:19500   */\n      add\n        /* \"#utility.yul\":19479:19501   */\n      mload\n        /* \"#utility.yul\":19469:19501   */\n      swap2\n      pop\n      pop\n        /* \"#utility.yul\":19520:19523   */\n      0x0140\n        /* \"#utility.yul\":19559:19561   */\n      dup2\n        /* \"#utility.yul\":19554:19556   */\n      dup2\n        /* \"#utility.yul\":19543:19552   */\n      dup8\n        /* \"#utility.yul\":19539:19557   */\n      add\n        /* \"#utility.yul\":19532:19562   */\n      mstore\n        /* \"#utility.yul\":19616:19618   */\n      dup1\n        /* \"#utility.yul\":19608:19614   */\n      dup8\n        /* \"#utility.yul\":19604:19619   */\n      add\n        /* \"#utility.yul\":19598:19620   */\n      mload\n        /* \"#utility.yul\":19593:19595   */\n      dup4\n        /* \"#utility.yul\":19582:19591   */\n      dup8\n        /* \"#utility.yul\":19578:19596   */\n      add\n        /* \"#utility.yul\":19571:19621   */\n      mstore\n      pop\n      pop\n      pop\n        /* \"#utility.yul\":19638:19644   */\n      dup1\n        /* \"#utility.yul\":19630:19644   */\n      swap2\n      pop\n      pop\n        /* \"#utility.yul\":18667:19650   */\n      swap3\n      swap2\n      pop\n      pop\n      jump\t// out\n        /* \"#utility.yul\":19655:19832   */\n    tag_53:\n        /* \"#utility.yul\":19801:19826   */\n      swap1\n      dup2\n      mstore\n        /* \"#utility.yul\":19789:19791   */\n      0x20\n        /* \"#utility.yul\":19774:19792   */\n      add\n      swap1\n        /* \"#utility.yul\":19756:19832   */\n      jump\t// out\n        /* \"#utility.yul\":19837:20364   */\n    tag_223:\n      0x00\n        /* \"#utility.yul\":20088:20094   */\n      dup6\n        /* \"#utility.yul\":20077:20086   */\n      dup3\n        /* \"#utility.yul\":20070:20095   */\n      mstore\n        /* \"#utility.yul\":20131:20137   */\n      dup5\n        /* \"#utility.yul\":20126:20128   */\n      0x20\n        /* \"#utility.yul\":20115:20124   */\n      dup4\n        /* \"#utility.yul\":20111:20129   */\n      add\n        /* \"#utility.yul\":20104:20138   */\n      mstore\n        /* \"#utility.yul\":20174:20177   */\n      0x80\n        /* \"#utility.yul\":20169:20171   */\n      0x40\n        /* \"#utility.yul\":20158:20167   */\n      dup4\n        /* \"#utility.yul\":20154:20172   */\n      add\n        /* \"#utility.yul\":20147:20178   */\n      mstore\n        /* \"#utility.yul\":20201:20248   */\n      tag_733\n        /* \"#utility.yul\":20243:20246   */\n      0x80\n        /* \"#utility.yul\":20232:20241   */\n      dup4\n        /* \"#utility.yul\":20228:20247   */\n      add\n        /* \"#utility.yul\":20220:20226   */\n      dup6\n        /* \"#utility.yul\":20201:20248   */\n      tag_695\n      jump\t// in\n    tag_733:\n        /* \"#utility.yul\":20296:20305   */\n      dup3\n        /* \"#utility.yul\":20288:20294   */\n      dup2\n        /* \"#utility.yul\":20284:20306   */\n      sub\n        /* \"#utility.yul\":20279:20281   */\n      0x60\n        /* \"#utility.yul\":20268:20277   */\n      dup5\n        /* \"#utility.yul\":20264:20282   */\n      add\n        /* \"#utility.yul\":20257:20307   */\n      mstore\n        /* \"#utility.yul\":20324:20358   */\n      tag_342\n        /* \"#utility.yul\":20351:20357   */\n      dup2\n        /* \"#utility.yul\":20343:20349   */\n      dup6\n        /* \"#utility.yul\":20324:20358   */\n      tag_695\n      jump\t// in\n        /* \"#utility.yul\":20369:20620   */\n    tag_609:\n        /* \"#utility.yul\":20439:20441   */\n      0x40\n        /* \"#utility.yul\":20433:20442   */\n      mload\n        /* \"#utility.yul\":20469:20486   */\n      dup2\n      dup2\n      add\n        /* \"#utility.yul\":20516:20534   */\n      0xffffffffffffffff\n        /* \"#utility.yul\":20501:20535   */\n      dup2\n      gt\n        /* \"#utility.yul\":20537:20559   */\n      dup3\n      dup3\n      lt\n        /* \"#utility.yul\":20498:20560   */\n      or\n        /* \"#utility.yul\":20495:20497   */\n      iszero\n      tag_737\n      jumpi\n        /* \"#utility.yul\":20563:20581   */\n      tag_737\n      tag_628\n      jump\t// in\n    tag_737:\n        /* \"#utility.yul\":20599:20601   */\n      0x40\n        /* \"#utility.yul\":20592:20614   */\n      mstore\n        /* \"#utility.yul\":20413:20620   */\n      swap2\n      swap1\n      pop\n      jump\t// out\n        /* \"#utility.yul\":20625:20815   */\n    tag_608:\n      0x00\n        /* \"#utility.yul\":20722:20740   */\n      0xffffffffffffffff\n        /* \"#utility.yul\":20714:20720   */\n      dup3\n        /* \"#utility.yul\":20711:20741   */\n      gt\n        /* \"#utility.yul\":20708:20710   */\n      iszero\n      tag_740\n      jumpi\n        /* \"#utility.yul\":20744:20762   */\n      tag_740\n      tag_628\n      jump\t// in\n    tag_740:\n      pop\n        /* \"#utility.yul\":20804:20808   */\n      0x20\n        /* \"#utility.yul\":20785:20802   */\n      swap1\n      dup2\n      mul\n        /* \"#utility.yul\":20781:20809   */\n      add\n      swap1\n        /* \"#utility.yul\":20698:20815   */\n      jump\t// out\n        /* \"#utility.yul\":20820:20948   */\n    tag_205:\n      0x00\n        /* \"#utility.yul\":20891:20892   */\n      dup3\n        /* \"#utility.yul\":20887:20893   */\n      not\n        /* \"#utility.yul\":20884:20885   */\n      dup3\n        /* \"#utility.yul\":20881:20894   */\n      gt\n        /* \"#utility.yul\":20878:20880   */\n      iszero\n      tag_743\n      jumpi\n        /* \"#utility.yul\":20897:20915   */\n      tag_743\n      tag_744\n      jump\t// in\n    tag_743:\n      pop\n        /* \"#utility.yul\":20933:20942   */\n      add\n      swap1\n        /* \"#utility.yul\":20868:20948   */\n      jump\t// out\n        /* \"#utility.yul\":20953:21170   */\n    tag_391:\n      0x00\n        /* \"#utility.yul\":21019:21020   */\n      dup3\n        /* \"#utility.yul\":21009:21011   */\n      tag_746\n      jumpi\n      shl(0xe0, 0x4e487b71)\n        /* \"#utility.yul\":21044:21075   */\n      dup2\n      mstore\n        /* \"#utility.yul\":21098:21102   */\n      0x12\n        /* \"#utility.yul\":21095:21096   */\n      0x04\n        /* \"#utility.yul\":21088:21103   */\n      mstore\n        /* \"#utility.yul\":21126:21130   */\n      0x24\n        /* \"#utility.yul\":21051:21052   */\n      dup2\n        /* \"#utility.yul\":21116:21131   */\n      revert\n        /* \"#utility.yul\":21009:21011   */\n    tag_746:\n      pop\n        /* \"#utility.yul\":21155:21164   */\n      div\n      swap1\n        /* \"#utility.yul\":20999:21170   */\n      jump\t// out\n        /* \"#utility.yul\":21175:21343   */\n    tag_191:\n      0x00\n        /* \"#utility.yul\":21281:21282   */\n      dup2\n        /* \"#utility.yul\":21277:21278   */\n      0x00\n        /* \"#utility.yul\":21273:21279   */\n      not\n        /* \"#utility.yul\":21269:21283   */\n      div\n        /* \"#utility.yul\":21266:21267   */\n      dup4\n        /* \"#utility.yul\":21263:21284   */\n      gt\n        /* \"#utility.yul\":21258:21259   */\n      dup3\n        /* \"#utility.yul\":21251:21260   */\n      iszero\n        /* \"#utility.yul\":21244:21261   */\n      iszero\n        /* \"#utility.yul\":21240:21285   */\n      and\n        /* \"#utility.yul\":21237:21239   */\n      iszero\n      tag_749\n      jumpi\n        /* \"#utility.yul\":21288:21306   */\n      tag_749\n      tag_744\n      jump\t// in\n    tag_749:\n      pop\n        /* \"#utility.yul\":21328:21337   */\n      mul\n      swap1\n        /* \"#utility.yul\":21227:21343   */\n      jump\t// out\n        /* \"#utility.yul\":21348:21473   */\n    tag_200:\n      0x00\n        /* \"#utility.yul\":21416:21417   */\n      dup3\n        /* \"#utility.yul\":21413:21414   */\n      dup3\n        /* \"#utility.yul\":21410:21418   */\n      lt\n        /* \"#utility.yul\":21407:21409   */\n      iszero\n      tag_752\n      jumpi\n        /* \"#utility.yul\":21421:21439   */\n      tag_752\n      tag_744\n      jump\t// in\n    tag_752:\n      pop\n        /* \"#utility.yul\":21458:21467   */\n      sub\n      swap1\n        /* \"#utility.yul\":21397:21473   */\n      jump\t// out\n        /* \"#utility.yul\":21478:21736   */\n    tag_698:\n        /* \"#utility.yul\":21550:21551   */\n      0x00\n        /* \"#utility.yul\":21560:21673   */\n    tag_754:\n        /* \"#utility.yul\":21574:21580   */\n      dup4\n        /* \"#utility.yul\":21571:21572   */\n      dup2\n        /* \"#utility.yul\":21568:21581   */\n      lt\n        /* \"#utility.yul\":21560:21673   */\n      iszero\n      tag_756\n      jumpi\n        /* \"#utility.yul\":21650:21661   */\n      dup2\n      dup2\n      add\n        /* \"#utility.yul\":21644:21662   */\n      mload\n        /* \"#utility.yul\":21631:21642   */\n      dup4\n      dup3\n      add\n        /* \"#utility.yul\":21624:21663   */\n      mstore\n        /* \"#utility.yul\":21596:21598   */\n      0x20\n        /* \"#utility.yul\":21589:21599   */\n      add\n        /* \"#utility.yul\":21560:21673   */\n      jump(tag_754)\n    tag_756:\n        /* \"#utility.yul\":21691:21697   */\n      dup4\n        /* \"#utility.yul\":21688:21689   */\n      dup2\n        /* \"#utility.yul\":21685:21698   */\n      gt\n        /* \"#utility.yul\":21682:21684   */\n      iszero\n      tag_385\n      jumpi\n      pop\n      pop\n        /* \"#utility.yul\":21726:21727   */\n      0x00\n        /* \"#utility.yul\":21708:21724   */\n      swap2\n      add\n        /* \"#utility.yul\":21701:21728   */\n      mstore\n        /* \"#utility.yul\":21531:21736   */\n      jump\t// out\n        /* \"#utility.yul\":21741:22121   */\n    tag_273:\n        /* \"#utility.yul\":21826:21827   */\n      0x02\n        /* \"#utility.yul\":21816:21828   */\n      dup2\n      div\n        /* \"#utility.yul\":21873:21874   */\n      0x01\n        /* \"#utility.yul\":21863:21875   */\n      dup3\n      and\n      dup1\n        /* \"#utility.yul\":21884:21886   */\n      tag_759\n      jumpi\n        /* \"#utility.yul\":21938:21942   */\n      0x7f\n        /* \"#utility.yul\":21930:21936   */\n      dup3\n        /* \"#utility.yul\":21926:21943   */\n      and\n        /* \"#utility.yul\":21916:21943   */\n      swap2\n      pop\n        /* \"#utility.yul\":21884:21886   */\n    tag_759:\n        /* \"#utility.yul\":21991:21993   */\n      0x20\n        /* \"#utility.yul\":21983:21989   */\n      dup3\n        /* \"#utility.yul\":21980:21994   */\n      lt\n        /* \"#utility.yul\":21960:21978   */\n      dup2\n        /* \"#utility.yul\":21957:21995   */\n      eq\n        /* \"#utility.yul\":21954:21956   */\n      iszero\n      tag_760\n      jumpi\n        /* \"#utility.yul\":22037:22047   */\n      0x4e487b71\n        /* \"#utility.yul\":22032:22035   */\n      0xe0\n        /* \"#utility.yul\":22028:22048   */\n      shl\n        /* \"#utility.yul\":22025:22026   */\n      0x00\n        /* \"#utility.yul\":22018:22049   */\n      mstore\n        /* \"#utility.yul\":22072:22076   */\n      0x22\n        /* \"#utility.yul\":22069:22070   */\n      0x04\n        /* \"#utility.yul\":22062:22077   */\n      mstore\n        /* \"#utility.yul\":22100:22104   */\n      0x24\n        /* \"#utility.yul\":22097:22098   */\n      0x00\n        /* \"#utility.yul\":22090:22105   */\n      revert\n        /* \"#utility.yul\":21954:21956   */\n    tag_760:\n      pop\n        /* \"#utility.yul\":21796:22121   */\n      swap2\n      swap1\n      pop\n      jump\t// out\n        /* \"#utility.yul\":22126:22261   */\n    tag_207:\n      0x00\n      not(0x00)\n        /* \"#utility.yul\":22186:22203   */\n      dup3\n      eq\n        /* \"#utility.yul\":22183:22185   */\n      iszero\n      tag_763\n      jumpi\n        /* \"#utility.yul\":22206:22224   */\n      tag_763\n      tag_744\n      jump\t// in\n    tag_763:\n      pop\n        /* \"#utility.yul\":22253:22254   */\n      0x01\n        /* \"#utility.yul\":22242:22255   */\n      add\n      swap1\n        /* \"#utility.yul\":22173:22261   */\n      jump\t// out\n        /* \"#utility.yul\":22266:22393   */\n    tag_744:\n        /* \"#utility.yul\":22327:22337   */\n      0x4e487b71\n        /* \"#utility.yul\":22322:22325   */\n      0xe0\n        /* \"#utility.yul\":22318:22338   */\n      shl\n        /* \"#utility.yul\":22315:22316   */\n      0x00\n        /* \"#utility.yul\":22308:22339   */\n      mstore\n        /* \"#utility.yul\":22358:22362   */\n      0x11\n        /* \"#utility.yul\":22355:22356   */\n      0x04\n        /* \"#utility.yul\":22348:22363   */\n      mstore\n        /* \"#utility.yul\":22382:22386   */\n      0x24\n        /* \"#utility.yul\":22379:22380   */\n      0x00\n        /* \"#utility.yul\":22372:22387   */\n      revert\n        /* \"#utility.yul\":22398:22525   */\n    tag_628:\n        /* \"#utility.yul\":22459:22469   */\n      0x4e487b71\n        /* \"#utility.yul\":22454:22457   */\n      0xe0\n        /* \"#utility.yul\":22450:22470   */\n      shl\n        /* \"#utility.yul\":22447:22448   */\n      0x00\n        /* \"#utility.yul\":22440:22471   */\n      mstore\n        /* \"#utility.yul\":22490:22494   */\n      0x41\n        /* \"#utility.yul\":22487:22488   */\n      0x04\n        /* \"#utility.yul\":22480:22495   */\n      mstore\n        /* \"#utility.yul\":22514:22518   */\n      0x24\n        /* \"#utility.yul\":22511:22512   */\n      0x00\n        /* \"#utility.yul\":22504:22519   */\n      revert\n        /* \"#utility.yul\":22530:22663   */\n    tag_602:\n      sub(shl(0xa0, 0x01), 0x01)\n        /* \"#utility.yul\":22607:22638   */\n      dup2\n      and\n        /* \"#utility.yul\":22597:22639   */\n      dup2\n      eq\n        /* \"#utility.yul\":22587:22589   */\n      tag_363\n      jumpi\n        /* \"#utility.yul\":22653:22654   */\n      0x00\n        /* \"#utility.yul\":22650:22651   */\n      dup1\n        /* \"#utility.yul\":22643:22655   */\n      revert\n        /* \"#utility.yul\":22668:22788   */\n    tag_638:\n        /* \"#utility.yul\":22756:22761   */\n      dup1\n        /* \"#utility.yul\":22749:22762   */\n      iszero\n        /* \"#utility.yul\":22742:22763   */\n      iszero\n        /* \"#utility.yul\":22735:22740   */\n      dup2\n        /* \"#utility.yul\":22732:22764   */\n      eq\n        /* \"#utility.yul\":22722:22724   */\n      tag_363\n      jumpi\n        /* \"#utility.yul\":22778:22779   */\n      0x00\n        /* \"#utility.yul\":22775:22776   */\n      dup1\n        /* \"#utility.yul\":22768:22780   */\n      revert\n\n    auxdata: 0xa2646970667358221220d926b6e1fd5ca6e0bff70ab11829ef25e9c0d3ebac6c0954f7ff2d7880b0f94c64736f6c63430008000033\n}\n",
				"bytecode": {
					"linkReferences": {},
					"object": "608060405234801561001057600080fd5b50612fde806100206000396000f3fe608060405234801561001057600080fd5b50600436106101f05760003560e01c80637fd6f15c1161010f578063e4e95520116100a2578063f2fde38b11610071578063f2fde38b146103f2578063f7ab69fd14610405578063f8c8765e1461040d578063fc234d0614610420576101f0565b8063e4e95520146103b1578063ec4c4f34146103c4578063f0c765e4146103d7578063f14053ad146103ea576101f0565b8063a80c3cd3116100de578063a80c3cd314610370578063aaf5eb6814610383578063aecf77b11461038b578063c2ec527d1461039e576101f0565b80637fd6f15c1461033a5780638da5cb5b1461034257806399315ccf1461034a578063a17397db1461035d576101f0565b806348c7e52811610187578063715018a611610156578063715018a6146103025780637be3a1a11461030c5780637ce3489b1461031f5780637dc0d1d014610332576101f0565b806348c7e528146102a95780636ab34a4a146102bc5780636c19e783146102dc5780636dbe9624146102ef576101f0565b8063238ac933116101c3578063238ac933146102735780633011d3d51461027b57806343b1f3cb14610283578063475b4fd314610296576101f0565b8063080270a8146101f55780630f58d2421461021e5780631e1bff3f1461023e5780631e64610c1461025e575b600080fd5b6102086102033660046125b4565b610433565b60405161021591906129df565b60405180910390f35b61023161022c3660046126d6565b6106a7565b6040516102159190612de1565b61025161024c3660046124f6565b6106c8565b6040516102159190612a23565b610266610738565b604051610215919061298e565b610266610747565b610266610756565b6102316102913660046126d6565b610765565b6102516102a43660046128a8565b610777565b6102516102b73660046124da565b610b8d565b6102cf6102ca3660046126d6565b610ba2565b6040516102159190612d3d565b6102516102ea3660046124da565b610ccf565b6102516102fd3660046125ee565b610d35565b61030a610f0d565b005b61023161031a366004612589565b610f58565b61025161032d3660046126d6565b610f75565b610266610fbf565b610231610fce565b610266610fd4565b610251610358366004612822565b610fe3565b61025161036b3660046127b1565b611118565b61025161037e3660046127b1565b61116a565b6102316111b7565b6102316103993660046124da565b6111bd565b6102316103ac366004612589565b6111d8565b6102316103bf3660046124da565b611209565b6102316103d2366004612589565b611224565b6102316103e5366004612589565b611240565b61023161125d565b61030a6104003660046124da565b611263565b6102316112d4565b61030a61041b36600461252e565b6112da565b61025161042e366004612706565b6113bc565b606060008267ffffffffffffffff81111561045e57634e487b7160e01b600052604160045260246000fd5b604051908082528060200260200182016040528015610487578160200160208202803683370190505b50905060006060866104eb57606c8054806020026020016040519081016040528092919081815260200182805480156104df57602002820191906000526020600020905b8154815260200190600101908083116104cb575b505050505090506105cb565b866001141561055c576001600160a01b0388166000908152606e6020908152604091829020805483518184028101840190945280845290918301828280156104df57602002820191906000526020600020908154815260200190600101908083116104cb57505050505090506105cb565b86600214156105cb576001600160a01b038816600090815260706020908152604091829020805483518184028101840190945280845290918301828280156105c357602002820191906000526020600020905b8154815260200190600101908083116105af575b505050505090505b80516105d78688612ea1565b116105fd5760405162461bcd60e51b81526004016105f490612c8a565b60405180910390fd5b60008561060a8189612ea1565b6106149190612ec0565b90505b6106218688612ea1565b81101561069a5781818151811061064857634e487b7160e01b600052603260045260246000fd5b602002602001015184848151811061067057634e487b7160e01b600052603260045260246000fd5b6020908102919091010152610686836001612e69565b92508061069281612f3e565b915050610617565b5091979650505050505050565b606c81815481106106b757600080fd5b600091825260209091200154905081565b60006106d2611521565b6001600160a01b03166106e3610fd4565b6001600160a01b0316146107095760405162461bcd60e51b81526004016105f490612c1e565b506001600160a01b0382166000908152606560205260409020805482151560ff19909116179055600192915050565b6068546001600160a01b031681565b6066546001600160a01b031681565b6067546001600160a01b031681565b606d6020526000908152604090205481565b606b546000908152606a602052604081206003810154156107aa5760405162461bcd60e51b81526004016105f490612cd0565b6069546040516381952f3b60e01b81526001600160a01b03909116906381952f3b906107e09088908d908b908990600401612dea565b60206040518083038186803b1580156107f857600080fd5b505afa15801561080c573d6000803e3d6000fd5b505050506040513d601f19601f8201168201806040525081019061083091906126ba565b61084c5760405162461bcd60e51b81526004016105f490612ab5565b6074546108598587611525565b116108765760405162461bcd60e51b81526004016105f490612bb1565b61089933306108858789611525565b6067546001600160a01b0316929190611538565b6067546040516370a0823160e01b81526000916001600160a01b0316906370a08231906108ca90309060040161298e565b60206040518083038186803b1580156108e257600080fd5b505afa1580156108f6573d6000803e3d6000fd5b505050506040513d601f19601f8201168201806040525081019061091a91906126ee565b9050600061093f6073546109396072548561152590919063ffffffff16565b90611596565b60685460675491925061095f916001600160a01b039081169116836115a2565b606860009054906101000a90046001600160a01b03166001600160a01b031663d10c06a26040518163ffffffff1660e01b8152600401602060405180830381600087803b1580156109af57600080fd5b505af11580156109c3573d6000803e3d6000fd5b505050506040513d601f19601f820116820180604052508101906109e791906126ba565b506067546001600160a01b03166342966c68610a0384846115c6565b6040518263ffffffff1660e01b8152600401610a1f9190612de1565b600060405180830381600087803b158015610a3957600080fd5b505af1158015610a4d573d6000803e3d6000fd5b5050606b54606c80546001818101835560008390527f2b4a51ab505fc96a0952efda2ba61bcd3078d4c02c39a186ec16f21883fbe0169091019290925554610a97935091506115c6565b606b80546000908152606d602090815260408083209490945533808352606e8083528584208554815460018181018455838852868820909101919091559554928552606f8452958420925293549092610af091906115c6565b815260200190815260200160002081905550606b6000815480929190610b1590612f3e565b909155505082546001600160a01b03191633178355600183018990558751610b4690600285019060208b01906122a7565b5060016003840155600483018a905560058301879055600683018b905560098301869055610b7482826115c6565b600a909301929092555060019998505050505050505050565b60656020526000908152604090205460ff1681565b610baa61232b565b6000828152606a602090815260409182902082516101608101845281546001600160a01b031681526001820154928101929092526002810180549293919291840191610bf590612f03565b80601f0160208091040260200160405190810160405280929190818152602001828054610c2190612f03565b8015610c6e5780601f10610c4357610100808354040283529160200191610c6e565b820191906000526020600020905b815481529060010190602001808311610c5157829003601f168201915b5050505050815260200160038201548152602001600482015481526020016005820154815260200160068201548152602001600782015481526020016008820154815260200160098201548152602001600a8201548152505090505b919050565b6000610cd9611521565b6001600160a01b0316610cea610fd4565b6001600160a01b031614610d105760405162461bcd60e51b81526004016105f490612c1e565b50606680546001600160a01b0383166001600160a01b03199091161790556001919050565b3360009081526065602052604081205460ff16610d645760405162461bcd60e51b81526004016105f490612ad9565b60005b8651811015610efe576000606a6000898481518110610d9657634e487b7160e01b600052603260045260246000fd5b602002602001015181526020019081526020016000209050610e0b888381518110610dd157634e487b7160e01b600052603260045260246000fd5b6020026020010151868481518110610df957634e487b7160e01b600052603260045260246000fd5b602002602001015183600a01546115d2565b610eeb57610ee28160038a8581518110610e3557634e487b7160e01b600052603260045260246000fd5b60200260200101518a8681518110610e5d57634e487b7160e01b600052603260045260246000fd5b60200260200101518a8781518110610e8557634e487b7160e01b600052603260045260246000fd5b60200260200101518a8881518110610ead57634e487b7160e01b600052603260045260246000fd5b60200260200101518a8981518110610ed557634e487b7160e01b600052603260045260246000fd5b60200260200101516116ff565b92505050610f04565b5080610ef681612f3e565b915050610d67565b50600190505b95945050505050565b610f15611521565b6001600160a01b0316610f26610fd4565b6001600160a01b031614610f4c5760405162461bcd60e51b81526004016105f490612c1e565b610f566000611e3b565b565b606f60209081526000928352604080842090915290825290205481565b6000610f7f611521565b6001600160a01b0316610f90610fd4565b6001600160a01b031614610fb65760405162461bcd60e51b81526004016105f490612c1e565b50607255600190565b6069546001600160a01b031681565b60725481565b6033546001600160a01b031690565b6000868152606a6020526040812080546001600160a01b03166110185760405162461bcd60e51b81526004016105f490612a41565b600281600301541061103c5760405162461bcd60e51b81526004016105f490612cd0565b6069546040516381952f3b60e01b81526001600160a01b03909116906381952f3b906110729088908b908b908a90600401612dea565b60206040518083038186803b15801561108a57600080fd5b505afa15801561109e573d6000803e3d6000fd5b505050506040513d601f19601f820116820180604052508101906110c291906126ba565b6110de5760405162461bcd60e51b81526004016105f490612ab5565b6110e98886856115d2565b6111055760405162461bcd60e51b81526004016105f490612bf4565b600a018290555060019695505050505050565b6000858152606a6020526040812080546001600160a01b0316331461114f5760405162461bcd60e51b81526004016105f490612cae565b61115f81600289898989896116ff565b979650505050505050565b3360009081526065602052604081205460ff166111995760405162461bcd60e51b81526004016105f490612ad9565b6000868152606a6020526040902061115f81600489898989896116ff565b60735481565b6001600160a01b031660009081526070602052604090205490565b606e60205281600052604060002081815481106111f457600080fd5b90600052602060002001600091509150505481565b6001600160a01b03166000908152606e602052604090205490565b607060205281600052604060002081815481106111f457600080fd5b607160209081526000928352604080842090915290825290205481565b60745481565b61126b611521565b6001600160a01b031661127c610fd4565b6001600160a01b0316146112a25760405162461bcd60e51b81526004016105f490612c1e565b6001600160a01b0381166112c85760405162461bcd60e51b81526004016105f490612a6f565b6112d181611e3b565b50565b606b5481565b600054610100900460ff16806112f3575060005460ff16155b61130f5760405162461bcd60e51b81526004016105f490612b63565b600054610100900460ff1615801561133a576000805460ff1961ff0019909116610100171660011790555b611342611e8d565b606680546001600160a01b038088166001600160a01b03199283161790925560688054878416908316179055606780548684169083161790556127106073556069805492851692909116919091179055670de0b6b3a7640000607455603260725580156113b5576000805461ff00191690555b5050505050565b60006113c6611521565b6001600160a01b03166113d7610fd4565b6001600160a01b0316146113fd5760405162461bcd60e51b81526004016105f490612c1e565b6040518061016001604052808d6001600160a01b031681526020018c81526020018b81526020018a815260200189815260200188815260200187815260200186815260200185815260200184815260200183815250606a60008f815260200190815260200160002060008201518160000160006101000a8154816001600160a01b0302191690836001600160a01b031602179055506020820151816001015560408201518160020190805190602001906114b89291906122a7565b50606082015160038201556080820151600482015560a0820151600582015560c0820151600682015560e082015160078201556101008201516008820155610120820151600982015561014090910151600a909101555060019c9b505050505050505050505050565b3390565b60006115318284612ea1565b9392505050565b611590846323b872dd60e01b858585604051602401611559939291906129a2565b60408051601f198184030181529190526020810180516001600160e01b03166001600160e01b031990931692909217909152611f11565b50505050565b60006115318284612e81565b6115c18363a9059cbb60e01b84846040516024016115599291906129c6565b505050565b60006115318284612ec0565b6000838152606a6020526040812060048101548290819081906001141561167757836005015487101561167257600584015461160e90886115c6565b925061162784600901548461152590919063ffffffff16565b915061165260735461093960725461164c8b896009015461152590919063ffffffff16565b90611525565b905061165e8183612e69565b861015611672576000945050505050611531565b6116f1565b83600501548711156116f15760058401546116939088906115c6565b92506116ac84600901548461152590919063ffffffff16565b91506116d160735461093960725461164c8b896009015461152590919063ffffffff16565b90506116dd8183612e69565b8610156116f1576000945050505050611531565b506001979650505050505050565b86546000906001600160a01b03166117295760405162461bcd60e51b81526004016105f490612a41565b600288600301541061174d5760405162461bcd60e51b81526004016105f490612cd0565b6069546040516381952f3b60e01b81526001600160a01b03909116906381952f3b90611783908690899089908890600401612dea565b60206040518083038186803b15801561179b57600080fd5b505afa1580156117af573d6000803e3d6000fd5b505050506040513d601f19601f820116820180604052508101906117d391906126ba565b6117ef5760405162461bcd60e51b81526004016105f490612ab5565b82886007018190555060008060008a6004015460011415611b2e578a600501548b60070154111561199a5760058b015460078c015461182d916115c6565b92506118468b600901548461152590919063ffffffff16565b600a8c01549092506118589083611fa0565b905060006118776073546109396072548561152590919063ffffffff16565b6067546068546040516340c10f1960e01b81529293506001600160a01b03918216926340c10f19926118af92169085906004016129c6565b602060405180830381600087803b1580156118c957600080fd5b505af11580156118dd573d6000803e3d6000fd5b505050506040513d601f19601f8201168201806040525081019061190191906126ba565b506067548c546001600160a01b03918216916340c10f19911661192485856115c6565b6040518363ffffffff1660e01b81526004016119419291906129c6565b602060405180830381600087803b15801561195b57600080fd5b505af115801561196f573d6000803e3d6000fd5b505050506040513d601f19601f8201168201806040525081019061199391906126ba565b5050611b29565b60078b015460058c01546119ad916115c6565b92506119c68b600901548461152590919063ffffffff16565b91508a600a01548211156119dc57506000611b29565b600a8b01546119eb90836115c6565b90506000611a0a6073546109396072548561152590919063ffffffff16565b6067546068546040516340c10f1960e01b81529293506001600160a01b03918216926340c10f1992611a4292169085906004016129c6565b602060405180830381600087803b158015611a5c57600080fd5b505af1158015611a70573d6000803e3d6000fd5b505050506040513d601f19601f82011682018060405250810190611a9491906126ba565b506067548c546001600160a01b03918216916340c10f199116611ab785856115c6565b6040518363ffffffff1660e01b8152600401611ad49291906129c6565b602060405180830381600087803b158015611aee57600080fd5b505af1158015611b02573d6000803e3d6000fd5b505050506040513d601f19601f82011682018060405250810190611b2691906126ba565b50505b611d0b565b8a600501548b600701541015611b7c5760078b015460058c0154611b51916115c6565b9250611b6a8b600901548461152590919063ffffffff16565b600a8c01549092506119eb9083611fa0565b60058b015460078c0154611b8f916115c6565b9250611ba88b600901548461152590919063ffffffff16565b91508a600a0154821115611bbe57506000611d0b565b600a8b0154611bcd90836115c6565b90506000611bec6073546109396072548561152590919063ffffffff16565b6067546068546040516340c10f1960e01b81529293506001600160a01b03918216926340c10f1992611c2492169085906004016129c6565b602060405180830381600087803b158015611c3e57600080fd5b505af1158015611c52573d6000803e3d6000fd5b505050506040513d601f19601f82011682018060405250810190611c7691906126ba565b506067548c546001600160a01b03918216916340c10f199116611c9985856115c6565b6040518363ffffffff1660e01b8152600401611cb69291906129c6565b602060405180830381600087803b158015611cd057600080fd5b505af1158015611ce4573d6000803e3d6000fd5b505050506040513d601f19601f82011682018060405250810190611d0891906126ba565b50505b606860009054906101000a90046001600160a01b03166001600160a01b031663d10c06a26040518163ffffffff1660e01b8152600401602060405180830381600087803b158015611d5b57600080fd5b505af1158015611d6f573d6000803e3d6000fd5b505050506040513d601f19601f82011682018060405250810190611d9391906126ba565b5060038b018a905560078b0186905560088b01889055611db689606d606c611fac565b336000908152606f60209081526040808320606e909252909120611ddb918b91611fac565b3360008181526070602090815260408220805460018181018355828552928420018d9055929091529054611e0e916115c6565b3360009081526071602090815260408083208d845290915290205550600192505050979650505050505050565b603380546001600160a01b038381166001600160a01b0319831681179093556040519116919082907f8be0079c531659141344cd1fd0a4f28419497f9722a3daafe3b4186f6b6457e090600090a35050565b600054610100900460ff1680611ea6575060005460ff16155b611ec25760405162461bcd60e51b81526004016105f490612b63565b600054610100900460ff16158015611eed576000805460ff1961ff0019909116610100171660011790555b611ef56120b9565b611efd61212c565b80156112d1576000805461ff001916905550565b6000611f66826040518060400160405280602081526020017f5361666545524332303a206c6f772d6c6576656c2063616c6c206661696c6564815250856001600160a01b031661219c9092919063ffffffff16565b8051909150156115c15780806020019051810190611f8491906126ba565b6115c15760405162461bcd60e51b81526004016105f490612cf3565b60006115318284612e69565b60008381526020839052604081205482549091908390611fcd9060016115c6565b81548110611feb57634e487b7160e01b600052603260045260246000fd5b90600052602060002001549050600083828154811061201a57634e487b7160e01b600052603260045260246000fd5b9060005260206000200154905082856000838152602001908152602001600020819055508084848154811061205f57634e487b7160e01b600052603260045260246000fd5b6000918252602080832090910192909255878152908690526040812055835484908061209b57634e487b7160e01b600052603160045260246000fd5b60019003818190600052602060002001600090559055505050505050565b600054610100900460ff16806120d2575060005460ff16155b6120ee5760405162461bcd60e51b81526004016105f490612b63565b600054610100900460ff16158015611efd576000805460ff1961ff00199091166101001716600117905580156112d1576000805461ff001916905550565b600054610100900460ff1680612145575060005460ff16155b6121615760405162461bcd60e51b81526004016105f490612b63565b600054610100900460ff1615801561218c576000805460ff1961ff0019909116610100171660011790555b611efd612197611521565b611e3b565b60606121ab84846000856121b3565b949350505050565b6060824710156121d55760405162461bcd60e51b81526004016105f490612b1d565b6121de85612268565b6121fa5760405162461bcd60e51b81526004016105f490612c53565b600080866001600160a01b031685876040516122169190612972565b60006040518083038185875af1925050503d8060008114612253576040519150601f19603f3d011682016040523d82523d6000602084013e612258565b606091505b509150915061115f82828661226e565b3b151590565b6060831561227d575081611531565b82511561228d5782518084602001fd5b8160405162461bcd60e51b81526004016105f49190612a2e565b8280546122b390612f03565b90600052602060002090601f0160209004810192826122d5576000855561231b565b82601f106122ee57805160ff191683800117855561231b565b8280016001018555821561231b579182015b8281111561231b578251825591602001919060010190612300565b5061232792915061238e565b5090565b60405180610160016040528060006001600160a01b03168152602001600081526020016060815260200160008152602001600081526020016000815260200160008152602001600081526020016000815260200160008152602001600081525090565b5b80821115612327576000815560010161238f565b8035610cca81612f85565b600082601f8301126123be578081fd5b813560206123d36123ce83612e45565b612e1b565b82815281810190858301855b85811015612408576123f6898684358b010161246f565b845292840192908401906001016123df565b5090979650505050505050565b600082601f830112612425578081fd5b813560206124356123ce83612e45565b8281528181019085830183850287018401881015612451578586fd5b855b8581101561240857813584529284019290840190600101612453565b600082601f83011261247f578081fd5b813567ffffffffffffffff81111561249957612499612f6f565b6124ac601f8201601f1916602001612e1b565b8181528460208386010111156124c0578283fd5b816020850160208301379081016020019190915292915050565b6000602082840312156124eb578081fd5b813561153181612f85565b60008060408385031215612508578081fd5b823561251381612f85565b9150602083013561252381612f9a565b809150509250929050565b60008060008060808587031215612543578182fd5b843561254e81612f85565b9350602085013561255e81612f85565b9250604085013561256e81612f85565b9150606085013561257e81612f85565b939692955090935050565b6000806040838503121561259b578182fd5b82356125a681612f85565b946020939093013593505050565b600080600080608085870312156125c9578384fd5b84356125d481612f85565b966020860135965060408601359560600135945092505050565b600080600080600060a08688031215612605578283fd5b853567ffffffffffffffff8082111561261c578485fd5b61262889838a01612415565b9650602088013591508082111561263d578485fd5b61264989838a01612415565b9550604088013591508082111561265e578485fd5b61266a89838a016123ae565b9450606088013591508082111561267f578283fd5b61268b89838a01612415565b935060808801359150808211156126a0578283fd5b506126ad888289016123ae565b9150509295509295909350565b6000602082840312156126cb578081fd5b815161153181612f9a565b6000602082840312156126e7578081fd5b5035919050565b6000602082840312156126ff578081fd5b5051919050565b6000806000806000806000806000806000806101808d8f03121561272857898afd5b8c359b5061273860208e016123a3565b9a5060408d0135995067ffffffffffffffff60608e01351115612759578687fd5b6127698e60608f01358f0161246f565b9b9e9a9d50989b60808101359a60a08201359a5060c0820135995060e08201359850610100820135975061012082013596506101408201359550610160909101359350915050565b600080600080600060a086880312156127c8578283fd5b8535945060208601359350604086013567ffffffffffffffff808211156127ed578485fd5b6127f989838a0161246f565b9450606088013593506080880135915080821115612815578283fd5b506126ad8882890161246f565b60008060008060008060c0878903121561283a578384fd5b8635955060208701359450604087013567ffffffffffffffff8082111561285f578586fd5b61286b8a838b0161246f565b9550606089013594506080890135915080821115612887578384fd5b5061289489828a0161246f565b92505060a087013590509295509295509295565b600080600080600080600060e0888a0312156128c2578081fd5b873596506020880135955060408801359450606088013567ffffffffffffffff808211156128ee578283fd5b6128fa8b838c0161246f565b955060808a0135945060a08a0135935060c08a013591508082111561291d578283fd5b5061292a8a828b0161246f565b91505092959891949750929550565b6001600160a01b03169052565b6000815180845261295e816020860160208601612ed7565b601f01601f19169290920160200192915050565b60008251612984818460208701612ed7565b9190910192915050565b6001600160a01b0391909116815260200190565b6001600160a01b039384168152919092166020820152604081019190915260600190565b6001600160a01b03929092168252602082015260400190565b6020808252825182820181905260009190848201906040850190845b81811015612a17578351835292840192918401916001016129fb565b50909695505050505050565b901515815260200190565b6000602082526115316020830184612946565b6020808252601490820152731bdc99195c88191bd95cc81b9bdd08195e1a5cdd60621b604082015260600190565b60208082526026908201527f4f776e61626c653a206e6577206f776e657220697320746865207a65726f206160408201526564647265737360d01b606082015260800190565b6020808252600a908201526937b930b1b6329032b93960b11b604082015260600190565b60208082526024908201527f6578656375746f723a2063616c6c6572206973206e6f742074686520657865636040820152633aba37b960e11b606082015260800190565b60208082526026908201527f416464726573733a20696e73756666696369656e742062616c616e636520666f6040820152651c8818d85b1b60d21b606082015260800190565b6020808252602e908201527f496e697469616c697a61626c653a20636f6e747261637420697320616c72656160408201526d191e481a5b9a5d1a585b1a5e995960921b606082015260800190565b60208082526023908201527f546865207472616e73616374696f6e20616d6f756e7420697320746f6f20736d604082015262185b1b60ea1b606082015260800190565b60208082526010908201526f155cd95c881a5cc818985b9adc9d5c1d60821b604082015260600190565b6020808252818101527f4f776e61626c653a2063616c6c6572206973206e6f7420746865206f776e6572604082015260600190565b6020808252601d908201527f416464726573733a2063616c6c20746f206e6f6e2d636f6e7472616374000000604082015260600190565b6020808252600a90820152693632b733ba341032b93960b11b604082015260600190565b6020808252600890820152673ab9b2b91032b93960c11b604082015260600190565b60208082526009908201526839ba30ba329032b93960b91b604082015260600190565b6020808252602a908201527f5361666545524332303a204552433230206f7065726174696f6e20646964206e6040820152691bdd081cdd58d8d9595960b21b606082015260800190565b600060208252612d51602083018451612939565b602083015160408301526040830151610160806060850152612d77610180850183612946565b915060608501516080850152608085015160a085015260a085015160c085015260c085015160e085015260e0850151610100818187015280870151915050610120818187015280870151915050610140818187015280870151838701525050508091505092915050565b90815260200190565b600085825284602083015260806040830152612e096080830185612946565b828103606084015261115f8185612946565b60405181810167ffffffffffffffff81118282101715612e3d57612e3d612f6f565b604052919050565b600067ffffffffffffffff821115612e5f57612e5f612f6f565b5060209081020190565b60008219821115612e7c57612e7c612f59565b500190565b600082612e9c57634e487b7160e01b81526012600452602481fd5b500490565b6000816000190483118215151615612ebb57612ebb612f59565b500290565b600082821015612ed257612ed2612f59565b500390565b60005b83811015612ef2578181015183820152602001612eda565b838111156115905750506000910152565b600281046001821680612f1757607f821691505b60208210811415612f3857634e487b7160e01b600052602260045260246000fd5b50919050565b6000600019821415612f5257612f52612f59565b5060010190565b634e487b7160e01b600052601160045260246000fd5b634e487b7160e01b600052604160045260246000fd5b6001600160a01b03811681146112d157600080fd5b80151581146112d157600080fdfea2646970667358221220d926b6e1fd5ca6e0bff70ab11829ef25e9c0d3ebac6c0954f7ff2d7880b0f94c64736f6c63430008000033",
					"opcodes": "PUSH1 0x80 PUSH1 0x40 MSTORE CALLVALUE DUP1 ISZERO PUSH2 0x10 JUMPI PUSH1 0x0 DUP1 REVERT JUMPDEST POP PUSH2 0x2FDE DUP1 PUSH2 0x20 PUSH1 0x0 CODECOPY PUSH1 0x0 RETURN INVALID PUSH1 0x80 PUSH1 0x40 MSTORE CALLVALUE DUP1 ISZERO PUSH2 0x10 JUMPI PUSH1 0x0 DUP1 REVERT JUMPDEST POP PUSH1 0x4 CALLDATASIZE LT PUSH2 0x1F0 JUMPI PUSH1 0x0 CALLDATALOAD PUSH1 0xE0 SHR DUP1 PUSH4 0x7FD6F15C GT PUSH2 0x10F JUMPI DUP1 PUSH4 0xE4E95520 GT PUSH2 0xA2 JUMPI DUP1 PUSH4 0xF2FDE38B GT PUSH2 0x71 JUMPI DUP1 PUSH4 0xF2FDE38B EQ PUSH2 0x3F2 JUMPI DUP1 PUSH4 0xF7AB69FD EQ PUSH2 0x405 JUMPI DUP1 PUSH4 0xF8C8765E EQ PUSH2 0x40D JUMPI DUP1 PUSH4 0xFC234D06 EQ PUSH2 0x420 JUMPI PUSH2 0x1F0 JUMP JUMPDEST DUP1 PUSH4 0xE4E95520 EQ PUSH2 0x3B1 JUMPI DUP1 PUSH4 0xEC4C4F34 EQ PUSH2 0x3C4 JUMPI DUP1 PUSH4 0xF0C765E4 EQ PUSH2 0x3D7 JUMPI DUP1 PUSH4 0xF14053AD EQ PUSH2 0x3EA JUMPI PUSH2 0x1F0 JUMP JUMPDEST DUP1 PUSH4 0xA80C3CD3 GT PUSH2 0xDE JUMPI DUP1 PUSH4 0xA80C3CD3 EQ PUSH2 0x370 JUMPI DUP1 PUSH4 0xAAF5EB68 EQ PUSH2 0x383 JUMPI DUP1 PUSH4 0xAECF77B1 EQ PUSH2 0x38B JUMPI DUP1 PUSH4 0xC2EC527D EQ PUSH2 0x39E JUMPI PUSH2 0x1F0 JUMP JUMPDEST DUP1 PUSH4 0x7FD6F15C EQ PUSH2 0x33A JUMPI DUP1 PUSH4 0x8DA5CB5B EQ PUSH2 0x342 JUMPI DUP1 PUSH4 0x99315CCF EQ PUSH2 0x34A JUMPI DUP1 PUSH4 0xA17397DB EQ PUSH2 0x35D JUMPI PUSH2 0x1F0 JUMP JUMPDEST DUP1 PUSH4 0x48C7E528 GT PUSH2 0x187 JUMPI DUP1 PUSH4 0x715018A6 GT PUSH2 0x156 JUMPI DUP1 PUSH4 0x715018A6 EQ PUSH2 0x302 JUMPI DUP1 PUSH4 0x7BE3A1A1 EQ PUSH2 0x30C JUMPI DUP1 PUSH4 0x7CE3489B EQ PUSH2 0x31F JUMPI DUP1 PUSH4 0x7DC0D1D0 EQ PUSH2 0x332 JUMPI PUSH2 0x1F0 JUMP JUMPDEST DUP1 PUSH4 0x48C7E528 EQ PUSH2 0x2A9 JUMPI DUP1 PUSH4 0x6AB34A4A EQ PUSH2 0x2BC JUMPI DUP1 PUSH4 0x6C19E783 EQ PUSH2 0x2DC JUMPI DUP1 PUSH4 0x6DBE9624 EQ PUSH2 0x2EF JUMPI PUSH2 0x1F0 JUMP JUMPDEST DUP1 PUSH4 0x238AC933 GT PUSH2 0x1C3 JUMPI DUP1 PUSH4 0x238AC933 EQ PUSH2 0x273 JUMPI DUP1 PUSH4 0x3011D3D5 EQ PUSH2 0x27B JUMPI DUP1 PUSH4 0x43B1F3CB EQ PUSH2 0x283 JUMPI DUP1 PUSH4 0x475B4FD3 EQ PUSH2 0x296 JUMPI PUSH2 0x1F0 JUMP JUMPDEST DUP1 PUSH4 0x80270A8 EQ PUSH2 0x1F5 JUMPI DUP1 PUSH4 0xF58D242 EQ PUSH2 0x21E JUMPI DUP1 PUSH4 0x1E1BFF3F EQ PUSH2 0x23E JUMPI DUP1 PUSH4 0x1E64610C EQ PUSH2 0x25E JUMPI JUMPDEST PUSH1 0x0 DUP1 REVERT JUMPDEST PUSH2 0x208 PUSH2 0x203 CALLDATASIZE PUSH1 0x4 PUSH2 0x25B4 JUMP JUMPDEST PUSH2 0x433 JUMP JUMPDEST PUSH1 0x40 MLOAD PUSH2 0x215 SWAP2 SWAP1 PUSH2 0x29DF JUMP JUMPDEST PUSH1 0x40 MLOAD DUP1 SWAP2 SUB SWAP1 RETURN JUMPDEST PUSH2 0x231 PUSH2 0x22C CALLDATASIZE PUSH1 0x4 PUSH2 0x26D6 JUMP JUMPDEST PUSH2 0x6A7 JUMP JUMPDEST PUSH1 0x40 MLOAD PUSH2 0x215 SWAP2 SWAP1 PUSH2 0x2DE1 JUMP JUMPDEST PUSH2 0x251 PUSH2 0x24C CALLDATASIZE PUSH1 0x4 PUSH2 0x24F6 JUMP JUMPDEST PUSH2 0x6C8 JUMP JUMPDEST PUSH1 0x40 MLOAD PUSH2 0x215 SWAP2 SWAP1 PUSH2 0x2A23 JUMP JUMPDEST PUSH2 0x266 PUSH2 0x738 JUMP JUMPDEST PUSH1 0x40 MLOAD PUSH2 0x215 SWAP2 SWAP1 PUSH2 0x298E JUMP JUMPDEST PUSH2 0x266 PUSH2 0x747 JUMP JUMPDEST PUSH2 0x266 PUSH2 0x756 JUMP JUMPDEST PUSH2 0x231 PUSH2 0x291 CALLDATASIZE PUSH1 0x4 PUSH2 0x26D6 JUMP JUMPDEST PUSH2 0x765 JUMP JUMPDEST PUSH2 0x251 PUSH2 0x2A4 CALLDATASIZE PUSH1 0x4 PUSH2 0x28A8 JUMP JUMPDEST PUSH2 0x777 JUMP JUMPDEST PUSH2 0x251 PUSH2 0x2B7 CALLDATASIZE PUSH1 0x4 PUSH2 0x24DA JUMP JUMPDEST PUSH2 0xB8D JUMP JUMPDEST PUSH2 0x2CF PUSH2 0x2CA CALLDATASIZE PUSH1 0x4 PUSH2 0x26D6 JUMP JUMPDEST PUSH2 0xBA2 JUMP JUMPDEST PUSH1 0x40 MLOAD PUSH2 0x215 SWAP2 SWAP1 PUSH2 0x2D3D JUMP JUMPDEST PUSH2 0x251 PUSH2 0x2EA CALLDATASIZE PUSH1 0x4 PUSH2 0x24DA JUMP JUMPDEST PUSH2 0xCCF JUMP JUMPDEST PUSH2 0x251 PUSH2 0x2FD CALLDATASIZE PUSH1 0x4 PUSH2 0x25EE JUMP JUMPDEST PUSH2 0xD35 JUMP JUMPDEST PUSH2 0x30A PUSH2 0xF0D JUMP JUMPDEST STOP JUMPDEST PUSH2 0x231 PUSH2 0x31A CALLDATASIZE PUSH1 0x4 PUSH2 0x2589 JUMP JUMPDEST PUSH2 0xF58 JUMP JUMPDEST PUSH2 0x251 PUSH2 0x32D CALLDATASIZE PUSH1 0x4 PUSH2 0x26D6 JUMP JUMPDEST PUSH2 0xF75 JUMP JUMPDEST PUSH2 0x266 PUSH2 0xFBF JUMP JUMPDEST PUSH2 0x231 PUSH2 0xFCE JUMP JUMPDEST PUSH2 0x266 PUSH2 0xFD4 JUMP JUMPDEST PUSH2 0x251 PUSH2 0x358 CALLDATASIZE PUSH1 0x4 PUSH2 0x2822 JUMP JUMPDEST PUSH2 0xFE3 JUMP JUMPDEST PUSH2 0x251 PUSH2 0x36B CALLDATASIZE PUSH1 0x4 PUSH2 0x27B1 JUMP JUMPDEST PUSH2 0x1118 JUMP JUMPDEST PUSH2 0x251 PUSH2 0x37E CALLDATASIZE PUSH1 0x4 PUSH2 0x27B1 JUMP JUMPDEST PUSH2 0x116A JUMP JUMPDEST PUSH2 0x231 PUSH2 0x11B7 JUMP JUMPDEST PUSH2 0x231 PUSH2 0x399 CALLDATASIZE PUSH1 0x4 PUSH2 0x24DA JUMP JUMPDEST PUSH2 0x11BD JUMP JUMPDEST PUSH2 0x231 PUSH2 0x3AC CALLDATASIZE PUSH1 0x4 PUSH2 0x2589 JUMP JUMPDEST PUSH2 0x11D8 JUMP JUMPDEST PUSH2 0x231 PUSH2 0x3BF CALLDATASIZE PUSH1 0x4 PUSH2 0x24DA JUMP JUMPDEST PUSH2 0x1209 JUMP JUMPDEST PUSH2 0x231 PUSH2 0x3D2 CALLDATASIZE PUSH1 0x4 PUSH2 0x2589 JUMP JUMPDEST PUSH2 0x1224 JUMP JUMPDEST PUSH2 0x231 PUSH2 0x3E5 CALLDATASIZE PUSH1 0x4 PUSH2 0x2589 JUMP JUMPDEST PUSH2 0x1240 JUMP JUMPDEST PUSH2 0x231 PUSH2 0x125D JUMP JUMPDEST PUSH2 0x30A PUSH2 0x400 CALLDATASIZE PUSH1 0x4 PUSH2 0x24DA JUMP JUMPDEST PUSH2 0x1263 JUMP JUMPDEST PUSH2 0x231 PUSH2 0x12D4 JUMP JUMPDEST PUSH2 0x30A PUSH2 0x41B CALLDATASIZE PUSH1 0x4 PUSH2 0x252E JUMP JUMPDEST PUSH2 0x12DA JUMP JUMPDEST PUSH2 0x251 PUSH2 0x42E CALLDATASIZE PUSH1 0x4 PUSH2 0x2706 JUMP JUMPDEST PUSH2 0x13BC JUMP JUMPDEST PUSH1 0x60 PUSH1 0x0 DUP3 PUSH8 0xFFFFFFFFFFFFFFFF DUP2 GT ISZERO PUSH2 0x45E JUMPI PUSH4 0x4E487B71 PUSH1 0xE0 SHL PUSH1 0x0 MSTORE PUSH1 0x41 PUSH1 0x4 MSTORE PUSH1 0x24 PUSH1 0x0 REVERT JUMPDEST PUSH1 0x40 MLOAD SWAP1 DUP1 DUP3 MSTORE DUP1 PUSH1 0x20 MUL PUSH1 0x20 ADD DUP3 ADD PUSH1 0x40 MSTORE DUP1 ISZERO PUSH2 0x487 JUMPI DUP2 PUSH1 0x20 ADD PUSH1 0x20 DUP3 MUL DUP1 CALLDATASIZE DUP4 CALLDATACOPY ADD SWAP1 POP JUMPDEST POP SWAP1 POP PUSH1 0x0 PUSH1 0x60 DUP7 PUSH2 0x4EB JUMPI PUSH1 0x6C DUP1 SLOAD DUP1 PUSH1 0x20 MUL PUSH1 0x20 ADD PUSH1 0x40 MLOAD SWAP1 DUP2 ADD PUSH1 0x40 MSTORE DUP1 SWAP3 SWAP2 SWAP1 DUP2 DUP2 MSTORE PUSH1 0x20 ADD DUP3 DUP1 SLOAD DUP1 ISZERO PUSH2 0x4DF JUMPI PUSH1 0x20 MUL DUP3 ADD SWAP2 SWAP1 PUSH1 0x0 MSTORE PUSH1 0x20 PUSH1 0x0 KECCAK256 SWAP1 JUMPDEST DUP2 SLOAD DUP2 MSTORE PUSH1 0x20 ADD SWAP1 PUSH1 0x1 ADD SWAP1 DUP1 DUP4 GT PUSH2 0x4CB JUMPI JUMPDEST POP POP POP POP POP SWAP1 POP PUSH2 0x5CB JUMP JUMPDEST DUP7 PUSH1 0x1 EQ ISZERO PUSH2 0x55C JUMPI PUSH1 0x1 PUSH1 0x1 PUSH1 0xA0 SHL SUB DUP9 AND PUSH1 0x0 SWAP1 DUP2 MSTORE PUSH1 0x6E PUSH1 0x20 SWAP1 DUP2 MSTORE PUSH1 0x40 SWAP2 DUP3 SWAP1 KECCAK256 DUP1 SLOAD DUP4 MLOAD DUP2 DUP5 MUL DUP2 ADD DUP5 ADD SWAP1 SWAP5 MSTORE DUP1 DUP5 MSTORE SWAP1 SWAP2 DUP4 ADD DUP3 DUP3 DUP1 ISZERO PUSH2 0x4DF JUMPI PUSH1 0x20 MUL DUP3 ADD SWAP2 SWAP1 PUSH1 0x0 MSTORE PUSH1 0x20 PUSH1 0x0 KECCAK256 SWAP1 DUP2 SLOAD DUP2 MSTORE PUSH1 0x20 ADD SWAP1 PUSH1 0x1 ADD SWAP1 DUP1 DUP4 GT PUSH2 0x4CB JUMPI POP POP POP POP POP SWAP1 POP PUSH2 0x5CB JUMP JUMPDEST DUP7 PUSH1 0x2 EQ ISZERO PUSH2 0x5CB JUMPI PUSH1 0x1 PUSH1 0x1 PUSH1 0xA0 SHL SUB DUP9 AND PUSH1 0x0 SWAP1 DUP2 MSTORE PUSH1 0x70 PUSH1 0x20 SWAP1 DUP2 MSTORE PUSH1 0x40 SWAP2 DUP3 SWAP1 KECCAK256 DUP1 SLOAD DUP4 MLOAD DUP2 DUP5 MUL DUP2 ADD DUP5 ADD SWAP1 SWAP5 MSTORE DUP1 DUP5 MSTORE SWAP1 SWAP2 DUP4 ADD DUP3 DUP3 DUP1 ISZERO PUSH2 0x5C3 JUMPI PUSH1 0x20 MUL DUP3 ADD SWAP2 SWAP1 PUSH1 0x0 MSTORE PUSH1 0x20 PUSH1 0x0 KECCAK256 SWAP1 JUMPDEST DUP2 SLOAD DUP2 MSTORE PUSH1 0x20 ADD SWAP1 PUSH1 0x1 ADD SWAP1 DUP1 DUP4 GT PUSH2 0x5AF JUMPI JUMPDEST POP POP POP POP POP SWAP1 POP JUMPDEST DUP1 MLOAD PUSH2 0x5D7 DUP7 DUP9 PUSH2 0x2EA1 JUMP JUMPDEST GT PUSH2 0x5FD JUMPI PUSH1 0x40 MLOAD PUSH3 0x461BCD PUSH1 0xE5 SHL DUP2 MSTORE PUSH1 0x4 ADD PUSH2 0x5F4 SWAP1 PUSH2 0x2C8A JUMP JUMPDEST PUSH1 0x40 MLOAD DUP1 SWAP2 SUB SWAP1 REVERT JUMPDEST PUSH1 0x0 DUP6 PUSH2 0x60A DUP2 DUP10 PUSH2 0x2EA1 JUMP JUMPDEST PUSH2 0x614 SWAP2 SWAP1 PUSH2 0x2EC0 JUMP JUMPDEST SWAP1 POP JUMPDEST PUSH2 0x621 DUP7 DUP9 PUSH2 0x2EA1 JUMP JUMPDEST DUP2 LT ISZERO PUSH2 0x69A JUMPI DUP2 DUP2 DUP2 MLOAD DUP2 LT PUSH2 0x648 JUMPI PUSH4 0x4E487B71 PUSH1 0xE0 SHL PUSH1 0x0 MSTORE PUSH1 0x32 PUSH1 0x4 MSTORE PUSH1 0x24 PUSH1 0x0 REVERT JUMPDEST PUSH1 0x20 MUL PUSH1 0x20 ADD ADD MLOAD DUP5 DUP5 DUP2 MLOAD DUP2 LT PUSH2 0x670 JUMPI PUSH4 0x4E487B71 PUSH1 0xE0 SHL PUSH1 0x0 MSTORE PUSH1 0x32 PUSH1 0x4 MSTORE PUSH1 0x24 PUSH1 0x0 REVERT JUMPDEST PUSH1 0x20 SWAP1 DUP2 MUL SWAP2 SWAP1 SWAP2 ADD ADD MSTORE PUSH2 0x686 DUP4 PUSH1 0x1 PUSH2 0x2E69 JUMP JUMPDEST SWAP3 POP DUP1 PUSH2 0x692 DUP2 PUSH2 0x2F3E JUMP JUMPDEST SWAP2 POP POP PUSH2 0x617 JUMP JUMPDEST POP SWAP2 SWAP8 SWAP7 POP POP POP POP POP POP POP JUMP JUMPDEST PUSH1 0x6C DUP2 DUP2 SLOAD DUP2 LT PUSH2 0x6B7 JUMPI PUSH1 0x0 DUP1 REVERT JUMPDEST PUSH1 0x0 SWAP2 DUP3 MSTORE PUSH1 0x20 SWAP1 SWAP2 KECCAK256 ADD SLOAD SWAP1 POP DUP2 JUMP JUMPDEST PUSH1 0x0 PUSH2 0x6D2 PUSH2 0x1521 JUMP JUMPDEST PUSH1 0x1 PUSH1 0x1 PUSH1 0xA0 SHL SUB AND PUSH2 0x6E3 PUSH2 0xFD4 JUMP JUMPDEST PUSH1 0x1 PUSH1 0x1 PUSH1 0xA0 SHL SUB AND EQ PUSH2 0x709 JUMPI PUSH1 0x40 MLOAD PUSH3 0x461BCD PUSH1 0xE5 SHL DUP2 MSTORE PUSH1 0x4 ADD PUSH2 0x5F4 SWAP1 PUSH2 0x2C1E JUMP JUMPDEST POP PUSH1 0x1 PUSH1 0x1 PUSH1 0xA0 SHL SUB DUP3 AND PUSH1 0x0 SWAP1 DUP2 MSTORE PUSH1 0x65 PUSH1 0x20 MSTORE PUSH1 0x40 SWAP1 KECCAK256 DUP1 SLOAD DUP3 ISZERO ISZERO PUSH1 0xFF NOT SWAP1 SWAP2 AND OR SWAP1 SSTORE PUSH1 0x1 SWAP3 SWAP2 POP POP JUMP JUMPDEST PUSH1 0x68 SLOAD PUSH1 0x1 PUSH1 0x1 PUSH1 0xA0 SHL SUB AND DUP2 JUMP JUMPDEST PUSH1 0x66 SLOAD PUSH1 0x1 PUSH1 0x1 PUSH1 0xA0 SHL SUB AND DUP2 JUMP JUMPDEST PUSH1 0x67 SLOAD PUSH1 0x1 PUSH1 0x1 PUSH1 0xA0 SHL SUB AND DUP2 JUMP JUMPDEST PUSH1 0x6D PUSH1 0x20 MSTORE PUSH1 0x0 SWAP1 DUP2 MSTORE PUSH1 0x40 SWAP1 KECCAK256 SLOAD DUP2 JUMP JUMPDEST PUSH1 0x6B SLOAD PUSH1 0x0 SWAP1 DUP2 MSTORE PUSH1 0x6A PUSH1 0x20 MSTORE PUSH1 0x40 DUP2 KECCAK256 PUSH1 0x3 DUP2 ADD SLOAD ISZERO PUSH2 0x7AA JUMPI PUSH1 0x40 MLOAD PUSH3 0x461BCD PUSH1 0xE5 SHL DUP2 MSTORE PUSH1 0x4 ADD PUSH2 0x5F4 SWAP1 PUSH2 0x2CD0 JUMP JUMPDEST PUSH1 0x69 SLOAD PUSH1 0x40 MLOAD PUSH4 0x81952F3B PUSH1 0xE0 SHL DUP2 MSTORE PUSH1 0x1 PUSH1 0x1 PUSH1 0xA0 SHL SUB SWAP1 SWAP2 AND SWAP1 PUSH4 0x81952F3B SWAP1 PUSH2 0x7E0 SWAP1 DUP9 SWAP1 DUP14 SWAP1 DUP12 SWAP1 DUP10 SWAP1 PUSH1 0x4 ADD PUSH2 0x2DEA JUMP JUMPDEST PUSH1 0x20 PUSH1 0x40 MLOAD DUP1 DUP4 SUB DUP2 DUP7 DUP1 EXTCODESIZE ISZERO DUP1 ISZERO PUSH2 0x7F8 JUMPI PUSH1 0x0 DUP1 REVERT JUMPDEST POP GAS STATICCALL ISZERO DUP1 ISZERO PUSH2 0x80C JUMPI RETURNDATASIZE PUSH1 0x0 DUP1 RETURNDATACOPY RETURNDATASIZE PUSH1 0x0 REVERT JUMPDEST POP POP POP POP PUSH1 0x40 MLOAD RETURNDATASIZE PUSH1 0x1F NOT PUSH1 0x1F DUP3 ADD AND DUP3 ADD DUP1 PUSH1 0x40 MSTORE POP DUP2 ADD SWAP1 PUSH2 0x830 SWAP2 SWAP1 PUSH2 0x26BA JUMP JUMPDEST PUSH2 0x84C JUMPI PUSH1 0x40 MLOAD PUSH3 0x461BCD PUSH1 0xE5 SHL DUP2 MSTORE PUSH1 0x4 ADD PUSH2 0x5F4 SWAP1 PUSH2 0x2AB5 JUMP JUMPDEST PUSH1 0x74 SLOAD PUSH2 0x859 DUP6 DUP8 PUSH2 0x1525 JUMP JUMPDEST GT PUSH2 0x876 JUMPI PUSH1 0x40 MLOAD PUSH3 0x461BCD PUSH1 0xE5 SHL DUP2 MSTORE PUSH1 0x4 ADD PUSH2 0x5F4 SWAP1 PUSH2 0x2BB1 JUMP JUMPDEST PUSH2 0x899 CALLER ADDRESS PUSH2 0x885 DUP8 DUP10 PUSH2 0x1525 JUMP JUMPDEST PUSH1 0x67 SLOAD PUSH1 0x1 PUSH1 0x1 PUSH1 0xA0 SHL SUB AND SWAP3 SWAP2 SWAP1 PUSH2 0x1538 JUMP JUMPDEST PUSH1 0x67 SLOAD PUSH1 0x40 MLOAD PUSH4 0x70A08231 PUSH1 0xE0 SHL DUP2 MSTORE PUSH1 0x0 SWAP2 PUSH1 0x1 PUSH1 0x1 PUSH1 0xA0 SHL SUB AND SWAP1 PUSH4 0x70A08231 SWAP1 PUSH2 0x8CA SWAP1 ADDRESS SWAP1 PUSH1 0x4 ADD PUSH2 0x298E JUMP JUMPDEST PUSH1 0x20 PUSH1 0x40 MLOAD DUP1 DUP4 SUB DUP2 DUP7 DUP1 EXTCODESIZE ISZERO DUP1 ISZERO PUSH2 0x8E2 JUMPI PUSH1 0x0 DUP1 REVERT JUMPDEST POP GAS STATICCALL ISZERO DUP1 ISZERO PUSH2 0x8F6 JUMPI RETURNDATASIZE PUSH1 0x0 DUP1 RETURNDATACOPY RETURNDATASIZE PUSH1 0x0 REVERT JUMPDEST POP POP POP POP PUSH1 0x40 MLOAD RETURNDATASIZE PUSH1 0x1F NOT PUSH1 0x1F DUP3 ADD AND DUP3 ADD DUP1 PUSH1 0x40 MSTORE POP DUP2 ADD SWAP1 PUSH2 0x91A SWAP2 SWAP1 PUSH2 0x26EE JUMP JUMPDEST SWAP1 POP PUSH1 0x0 PUSH2 0x93F PUSH1 0x73 SLOAD PUSH2 0x939 PUSH1 0x72 SLOAD DUP6 PUSH2 0x1525 SWAP1 SWAP2 SWAP1 PUSH4 0xFFFFFFFF AND JUMP JUMPDEST SWAP1 PUSH2 0x1596 JUMP JUMPDEST PUSH1 0x68 SLOAD PUSH1 0x67 SLOAD SWAP2 SWAP3 POP PUSH2 0x95F SWAP2 PUSH1 0x1 PUSH1 0x1 PUSH1 0xA0 SHL SUB SWAP1 DUP2 AND SWAP2 AND DUP4 PUSH2 0x15A2 JUMP JUMPDEST PUSH1 0x68 PUSH1 0x0 SWAP1 SLOAD SWAP1 PUSH2 0x100 EXP SWAP1 DIV PUSH1 0x1 PUSH1 0x1 PUSH1 0xA0 SHL SUB AND PUSH1 0x1 PUSH1 0x1 PUSH1 0xA0 SHL SUB AND PUSH4 0xD10C06A2 PUSH1 0x40 MLOAD DUP2 PUSH4 0xFFFFFFFF AND PUSH1 0xE0 SHL DUP2 MSTORE PUSH1 0x4 ADD PUSH1 0x20 PUSH1 0x40 MLOAD DUP1 DUP4 SUB DUP2 PUSH1 0x0 DUP8 DUP1 EXTCODESIZE ISZERO DUP1 ISZERO PUSH2 0x9AF JUMPI PUSH1 0x0 DUP1 REVERT JUMPDEST POP GAS CALL ISZERO DUP1 ISZERO PUSH2 0x9C3 JUMPI RETURNDATASIZE PUSH1 0x0 DUP1 RETURNDATACOPY RETURNDATASIZE PUSH1 0x0 REVERT JUMPDEST POP POP POP POP PUSH1 0x40 MLOAD RETURNDATASIZE PUSH1 0x1F NOT PUSH1 0x1F DUP3 ADD AND DUP3 ADD DUP1 PUSH1 0x40 MSTORE POP DUP2 ADD SWAP1 PUSH2 0x9E7 SWAP2 SWAP1 PUSH2 0x26BA JUMP JUMPDEST POP PUSH1 0x67 SLOAD PUSH1 0x1 PUSH1 0x1 PUSH1 0xA0 SHL SUB AND PUSH4 0x42966C68 PUSH2 0xA03 DUP5 DUP5 PUSH2 0x15C6 JUMP JUMPDEST PUSH1 0x40 MLOAD DUP3 PUSH4 0xFFFFFFFF AND PUSH1 0xE0 SHL DUP2 MSTORE PUSH1 0x4 ADD PUSH2 0xA1F SWAP2 SWAP1 PUSH2 0x2DE1 JUMP JUMPDEST PUSH1 0x0 PUSH1 0x40 MLOAD DUP1 DUP4 SUB DUP2 PUSH1 0x0 DUP8 DUP1 EXTCODESIZE ISZERO DUP1 ISZERO PUSH2 0xA39 JUMPI PUSH1 0x0 DUP1 REVERT JUMPDEST POP GAS CALL ISZERO DUP1 ISZERO PUSH2 0xA4D JUMPI RETURNDATASIZE PUSH1 0x0 DUP1 RETURNDATACOPY RETURNDATASIZE PUSH1 0x0 REVERT JUMPDEST POP POP PUSH1 0x6B SLOAD PUSH1 0x6C DUP1 SLOAD PUSH1 0x1 DUP2 DUP2 ADD DUP4 SSTORE PUSH1 0x0 DUP4 SWAP1 MSTORE PUSH32 0x2B4A51AB505FC96A0952EFDA2BA61BCD3078D4C02C39A186EC16F21883FBE016 SWAP1 SWAP2 ADD SWAP3 SWAP1 SWAP3 SSTORE SLOAD PUSH2 0xA97 SWAP4 POP SWAP2 POP PUSH2 0x15C6 JUMP JUMPDEST PUSH1 0x6B DUP1 SLOAD PUSH1 0x0 SWAP1 DUP2 MSTORE PUSH1 0x6D PUSH1 0x20 SWAP1 DUP2 MSTORE PUSH1 0x40 DUP1 DUP4 KECCAK256 SWAP5 SWAP1 SWAP5 SSTORE CALLER DUP1 DUP4 MSTORE PUSH1 0x6E DUP1 DUP4 MSTORE DUP6 DUP5 KECCAK256 DUP6 SLOAD DUP2 SLOAD PUSH1 0x1 DUP2 DUP2 ADD DUP5 SSTORE DUP4 DUP9 MSTORE DUP7 DUP9 KECCAK256 SWAP1 SWAP2 ADD SWAP2 SWAP1 SWAP2 SSTORE SWAP6 SLOAD SWAP3 DUP6 MSTORE PUSH1 0x6F DUP5 MSTORE SWAP6 DUP5 KECCAK256 SWAP3 MSTORE SWAP4 SLOAD SWAP1 SWAP3 PUSH2 0xAF0 SWAP2 SWAP1 PUSH2 0x15C6 JUMP JUMPDEST DUP2 MSTORE PUSH1 0x20 ADD SWAP1 DUP2 MSTORE PUSH1 0x20 ADD PUSH1 0x0 KECCAK256 DUP2 SWAP1 SSTORE POP PUSH1 0x6B PUSH1 0x0 DUP2 SLOAD DUP1 SWAP3 SWAP2 SWAP1 PUSH2 0xB15 SWAP1 PUSH2 0x2F3E JUMP JUMPDEST SWAP1 SWAP2 SSTORE POP POP DUP3 SLOAD PUSH1 0x1 PUSH1 0x1 PUSH1 0xA0 SHL SUB NOT AND CALLER OR DUP4 SSTORE PUSH1 0x1 DUP4 ADD DUP10 SWAP1 SSTORE DUP8 MLOAD PUSH2 0xB46 SWAP1 PUSH1 0x2 DUP6 ADD SWAP1 PUSH1 0x20 DUP12 ADD SWAP1 PUSH2 0x22A7 JUMP JUMPDEST POP PUSH1 0x1 PUSH1 0x3 DUP5 ADD SSTORE PUSH1 0x4 DUP4 ADD DUP11 SWAP1 SSTORE PUSH1 0x5 DUP4 ADD DUP8 SWAP1 SSTORE PUSH1 0x6 DUP4 ADD DUP12 SWAP1 SSTORE PUSH1 0x9 DUP4 ADD DUP7 SWAP1 SSTORE PUSH2 0xB74 DUP3 DUP3 PUSH2 0x15C6 JUMP JUMPDEST PUSH1 0xA SWAP1 SWAP4 ADD SWAP3 SWAP1 SWAP3 SSTORE POP PUSH1 0x1 SWAP10 SWAP9 POP POP POP POP POP POP POP POP POP JUMP JUMPDEST PUSH1 0x65 PUSH1 0x20 MSTORE PUSH1 0x0 SWAP1 DUP2 MSTORE PUSH1 0x40 SWAP1 KECCAK256 SLOAD PUSH1 0xFF AND DUP2 JUMP JUMPDEST PUSH2 0xBAA PUSH2 0x232B JUMP JUMPDEST PUSH1 0x0 DUP3 DUP2 MSTORE PUSH1 0x6A PUSH1 0x20 SWAP1 DUP2 MSTORE PUSH1 0x40 SWAP2 DUP3 SWAP1 KECCAK256 DUP3 MLOAD PUSH2 0x160 DUP2 ADD DUP5 MSTORE DUP2 SLOAD PUSH1 0x1 PUSH1 0x1 PUSH1 0xA0 SHL SUB AND DUP2 MSTORE PUSH1 0x1 DUP3 ADD SLOAD SWAP3 DUP2 ADD SWAP3 SWAP1 SWAP3 MSTORE PUSH1 0x2 DUP2 ADD DUP1 SLOAD SWAP3 SWAP4 SWAP2 SWAP3 SWAP2 DUP5 ADD SWAP2 PUSH2 0xBF5 SWAP1 PUSH2 0x2F03 JUMP JUMPDEST DUP1 PUSH1 0x1F ADD PUSH1 0x20 DUP1 SWAP2 DIV MUL PUSH1 0x20 ADD PUSH1 0x40 MLOAD SWAP1 DUP2 ADD PUSH1 0x40 MSTORE DUP1 SWAP3 SWAP2 SWAP1 DUP2 DUP2 MSTORE PUSH1 0x20 ADD DUP3 DUP1 SLOAD PUSH2 0xC21 SWAP1 PUSH2 0x2F03 JUMP JUMPDEST DUP1 ISZERO PUSH2 0xC6E JUMPI DUP1 PUSH1 0x1F LT PUSH2 0xC43 JUMPI PUSH2 0x100 DUP1 DUP4 SLOAD DIV MUL DUP4 MSTORE SWAP2 PUSH1 0x20 ADD SWAP2 PUSH2 0xC6E JUMP JUMPDEST DUP3 ADD SWAP2 SWAP1 PUSH1 0x0 MSTORE PUSH1 0x20 PUSH1 0x0 KECCAK256 SWAP1 JUMPDEST DUP2 SLOAD DUP2 MSTORE SWAP1 PUSH1 0x1 ADD SWAP1 PUSH1 0x20 ADD DUP1 DUP4 GT PUSH2 0xC51 JUMPI DUP3 SWAP1 SUB PUSH1 0x1F AND DUP3 ADD SWAP2 JUMPDEST POP POP POP POP POP DUP2 MSTORE PUSH1 0x20 ADD PUSH1 0x3 DUP3 ADD SLOAD DUP2 MSTORE PUSH1 0x20 ADD PUSH1 0x4 DUP3 ADD SLOAD DUP2 MSTORE PUSH1 0x20 ADD PUSH1 0x5 DUP3 ADD SLOAD DUP2 MSTORE PUSH1 0x20 ADD PUSH1 0x6 DUP3 ADD SLOAD DUP2 MSTORE PUSH1 0x20 ADD PUSH1 0x7 DUP3 ADD SLOAD DUP2 MSTORE PUSH1 0x20 ADD PUSH1 0x8 DUP3 ADD SLOAD DUP2 MSTORE PUSH1 0x20 ADD PUSH1 0x9 DUP3 ADD SLOAD DUP2 MSTORE PUSH1 0x20 ADD PUSH1 0xA DUP3 ADD SLOAD DUP2 MSTORE POP POP SWAP1 POP JUMPDEST SWAP2 SWAP1 POP JUMP JUMPDEST PUSH1 0x0 PUSH2 0xCD9 PUSH2 0x1521 JUMP JUMPDEST PUSH1 0x1 PUSH1 0x1 PUSH1 0xA0 SHL SUB AND PUSH2 0xCEA PUSH2 0xFD4 JUMP JUMPDEST PUSH1 0x1 PUSH1 0x1 PUSH1 0xA0 SHL SUB AND EQ PUSH2 0xD10 JUMPI PUSH1 0x40 MLOAD PUSH3 0x461BCD PUSH1 0xE5 SHL DUP2 MSTORE PUSH1 0x4 ADD PUSH2 0x5F4 SWAP1 PUSH2 0x2C1E JUMP JUMPDEST POP PUSH1 0x66 DUP1 SLOAD PUSH1 0x1 PUSH1 0x1 PUSH1 0xA0 SHL SUB DUP4 AND PUSH1 0x1 PUSH1 0x1 PUSH1 0xA0 SHL SUB NOT SWAP1 SWAP2 AND OR SWAP1 SSTORE PUSH1 0x1 SWAP2 SWAP1 POP JUMP JUMPDEST CALLER PUSH1 0x0 SWAP1 DUP2 MSTORE PUSH1 0x65 PUSH1 0x20 MSTORE PUSH1 0x40 DUP2 KECCAK256 SLOAD PUSH1 0xFF AND PUSH2 0xD64 JUMPI PUSH1 0x40 MLOAD PUSH3 0x461BCD PUSH1 0xE5 SHL DUP2 MSTORE PUSH1 0x4 ADD PUSH2 0x5F4 SWAP1 PUSH2 0x2AD9 JUMP JUMPDEST PUSH1 0x0 JUMPDEST DUP7 MLOAD DUP2 LT ISZERO PUSH2 0xEFE JUMPI PUSH1 0x0 PUSH1 0x6A PUSH1 0x0 DUP10 DUP5 DUP2 MLOAD DUP2 LT PUSH2 0xD96 JUMPI PUSH4 0x4E487B71 PUSH1 0xE0 SHL PUSH1 0x0 MSTORE PUSH1 0x32 PUSH1 0x4 MSTORE PUSH1 0x24 PUSH1 0x0 REVERT JUMPDEST PUSH1 0x20 MUL PUSH1 0x20 ADD ADD MLOAD DUP2 MSTORE PUSH1 0x20 ADD SWAP1 DUP2 MSTORE PUSH1 0x20 ADD PUSH1 0x0 KECCAK256 SWAP1 POP PUSH2 0xE0B DUP9 DUP4 DUP2 MLOAD DUP2 LT PUSH2 0xDD1 JUMPI PUSH4 0x4E487B71 PUSH1 0xE0 SHL PUSH1 0x0 MSTORE PUSH1 0x32 PUSH1 0x4 MSTORE PUSH1 0x24 PUSH1 0x0 REVERT JUMPDEST PUSH1 0x20 MUL PUSH1 0x20 ADD ADD MLOAD DUP7 DUP5 DUP2 MLOAD DUP2 LT PUSH2 0xDF9 JUMPI PUSH4 0x4E487B71 PUSH1 0xE0 SHL PUSH1 0x0 MSTORE PUSH1 0x32 PUSH1 0x4 MSTORE PUSH1 0x24 PUSH1 0x0 REVERT JUMPDEST PUSH1 0x20 MUL PUSH1 0x20 ADD ADD MLOAD DUP4 PUSH1 0xA ADD SLOAD PUSH2 0x15D2 JUMP JUMPDEST PUSH2 0xEEB JUMPI PUSH2 0xEE2 DUP2 PUSH1 0x3 DUP11 DUP6 DUP2 MLOAD DUP2 LT PUSH2 0xE35 JUMPI PUSH4 0x4E487B71 PUSH1 0xE0 SHL PUSH1 0x0 MSTORE PUSH1 0x32 PUSH1 0x4 MSTORE PUSH1 0x24 PUSH1 0x0 REVERT JUMPDEST PUSH1 0x20 MUL PUSH1 0x20 ADD ADD MLOAD DUP11 DUP7 DUP2 MLOAD DUP2 LT PUSH2 0xE5D JUMPI PUSH4 0x4E487B71 PUSH1 0xE0 SHL PUSH1 0x0 MSTORE PUSH1 0x32 PUSH1 0x4 MSTORE PUSH1 0x24 PUSH1 0x0 REVERT JUMPDEST PUSH1 0x20 MUL PUSH1 0x20 ADD ADD MLOAD DUP11 DUP8 DUP2 MLOAD DUP2 LT PUSH2 0xE85 JUMPI PUSH4 0x4E487B71 PUSH1 0xE0 SHL PUSH1 0x0 MSTORE PUSH1 0x32 PUSH1 0x4 MSTORE PUSH1 0x24 PUSH1 0x0 REVERT JUMPDEST PUSH1 0x20 MUL PUSH1 0x20 ADD ADD MLOAD DUP11 DUP9 DUP2 MLOAD DUP2 LT PUSH2 0xEAD JUMPI PUSH4 0x4E487B71 PUSH1 0xE0 SHL PUSH1 0x0 MSTORE PUSH1 0x32 PUSH1 0x4 MSTORE PUSH1 0x24 PUSH1 0x0 REVERT JUMPDEST PUSH1 0x20 MUL PUSH1 0x20 ADD ADD MLOAD DUP11 DUP10 DUP2 MLOAD DUP2 LT PUSH2 0xED5 JUMPI PUSH4 0x4E487B71 PUSH1 0xE0 SHL PUSH1 0x0 MSTORE PUSH1 0x32 PUSH1 0x4 MSTORE PUSH1 0x24 PUSH1 0x0 REVERT JUMPDEST PUSH1 0x20 MUL PUSH1 0x20 ADD ADD MLOAD PUSH2 0x16FF JUMP JUMPDEST SWAP3 POP POP POP PUSH2 0xF04 JUMP JUMPDEST POP DUP1 PUSH2 0xEF6 DUP2 PUSH2 0x2F3E JUMP JUMPDEST SWAP2 POP POP PUSH2 0xD67 JUMP JUMPDEST POP PUSH1 0x1 SWAP1 POP JUMPDEST SWAP6 SWAP5 POP POP POP POP POP JUMP JUMPDEST PUSH2 0xF15 PUSH2 0x1521 JUMP JUMPDEST PUSH1 0x1 PUSH1 0x1 PUSH1 0xA0 SHL SUB AND PUSH2 0xF26 PUSH2 0xFD4 JUMP JUMPDEST PUSH1 0x1 PUSH1 0x1 PUSH1 0xA0 SHL SUB AND EQ PUSH2 0xF4C JUMPI PUSH1 0x40 MLOAD PUSH3 0x461BCD PUSH1 0xE5 SHL DUP2 MSTORE PUSH1 0x4 ADD PUSH2 0x5F4 SWAP1 PUSH2 0x2C1E JUMP JUMPDEST PUSH2 0xF56 PUSH1 0x0 PUSH2 0x1E3B JUMP JUMPDEST JUMP JUMPDEST PUSH1 0x6F PUSH1 0x20 SWAP1 DUP2 MSTORE PUSH1 0x0 SWAP3 DUP4 MSTORE PUSH1 0x40 DUP1 DUP5 KECCAK256 SWAP1 SWAP2 MSTORE SWAP1 DUP3 MSTORE SWAP1 KECCAK256 SLOAD DUP2 JUMP JUMPDEST PUSH1 0x0 PUSH2 0xF7F PUSH2 0x1521 JUMP JUMPDEST PUSH1 0x1 PUSH1 0x1 PUSH1 0xA0 SHL SUB AND PUSH2 0xF90 PUSH2 0xFD4 JUMP JUMPDEST PUSH1 0x1 PUSH1 0x1 PUSH1 0xA0 SHL SUB AND EQ PUSH2 0xFB6 JUMPI PUSH1 0x40 MLOAD PUSH3 0x461BCD PUSH1 0xE5 SHL DUP2 MSTORE PUSH1 0x4 ADD PUSH2 0x5F4 SWAP1 PUSH2 0x2C1E JUMP JUMPDEST POP PUSH1 0x72 SSTORE PUSH1 0x1 SWAP1 JUMP JUMPDEST PUSH1 0x69 SLOAD PUSH1 0x1 PUSH1 0x1 PUSH1 0xA0 SHL SUB AND DUP2 JUMP JUMPDEST PUSH1 0x72 SLOAD DUP2 JUMP JUMPDEST PUSH1 0x33 SLOAD PUSH1 0x1 PUSH1 0x1 PUSH1 0xA0 SHL SUB AND SWAP1 JUMP JUMPDEST PUSH1 0x0 DUP7 DUP2 MSTORE PUSH1 0x6A PUSH1 0x20 MSTORE PUSH1 0x40 DUP2 KECCAK256 DUP1 SLOAD PUSH1 0x1 PUSH1 0x1 PUSH1 0xA0 SHL SUB AND PUSH2 0x1018 JUMPI PUSH1 0x40 MLOAD PUSH3 0x461BCD PUSH1 0xE5 SHL DUP2 MSTORE PUSH1 0x4 ADD PUSH2 0x5F4 SWAP1 PUSH2 0x2A41 JUMP JUMPDEST PUSH1 0x2 DUP2 PUSH1 0x3 ADD SLOAD LT PUSH2 0x103C JUMPI PUSH1 0x40 MLOAD PUSH3 0x461BCD PUSH1 0xE5 SHL DUP2 MSTORE PUSH1 0x4 ADD PUSH2 0x5F4 SWAP1 PUSH2 0x2CD0 JUMP JUMPDEST PUSH1 0x69 SLOAD PUSH1 0x40 MLOAD PUSH4 0x81952F3B PUSH1 0xE0 SHL DUP2 MSTORE PUSH1 0x1 PUSH1 0x1 PUSH1 0xA0 SHL SUB SWAP1 SWAP2 AND SWAP1 PUSH4 0x81952F3B SWAP1 PUSH2 0x1072 SWAP1 DUP9 SWAP1 DUP12 SWAP1 DUP12 SWAP1 DUP11 SWAP1 PUSH1 0x4 ADD PUSH2 0x2DEA JUMP JUMPDEST PUSH1 0x20 PUSH1 0x40 MLOAD DUP1 DUP4 SUB DUP2 DUP7 DUP1 EXTCODESIZE ISZERO DUP1 ISZERO PUSH2 0x108A JUMPI PUSH1 0x0 DUP1 REVERT JUMPDEST POP GAS STATICCALL ISZERO DUP1 ISZERO PUSH2 0x109E JUMPI RETURNDATASIZE PUSH1 0x0 DUP1 RETURNDATACOPY RETURNDATASIZE PUSH1 0x0 REVERT JUMPDEST POP POP POP POP PUSH1 0x40 MLOAD RETURNDATASIZE PUSH1 0x1F NOT PUSH1 0x1F DUP3 ADD AND DUP3 ADD DUP1 PUSH1 0x40 MSTORE POP DUP2 ADD SWAP1 PUSH2 0x10C2 SWAP2 SWAP1 PUSH2 0x26BA JUMP JUMPDEST PUSH2 0x10DE JUMPI PUSH1 0x40 MLOAD PUSH3 0x461BCD PUSH1 0xE5 SHL DUP2 MSTORE PUSH1 0x4 ADD PUSH2 0x5F4 SWAP1 PUSH2 0x2AB5 JUMP JUMPDEST PUSH2 0x10E9 DUP9 DUP7 DUP6 PUSH2 0x15D2 JUMP JUMPDEST PUSH2 0x1105 JUMPI PUSH1 0x40 MLOAD PUSH3 0x461BCD PUSH1 0xE5 SHL DUP2 MSTORE PUSH1 0x4 ADD PUSH2 0x5F4 SWAP1 PUSH2 0x2BF4 JUMP JUMPDEST PUSH1 0xA ADD DUP3 SWAP1 SSTORE POP PUSH1 0x1 SWAP7 SWAP6 POP POP POP POP POP POP JUMP JUMPDEST PUSH1 0x0 DUP6 DUP2 MSTORE PUSH1 0x6A PUSH1 0x20 MSTORE PUSH1 0x40 DUP2 KECCAK256 DUP1 SLOAD PUSH1 0x1 PUSH1 0x1 PUSH1 0xA0 SHL SUB AND CALLER EQ PUSH2 0x114F JUMPI PUSH1 0x40 MLOAD PUSH3 0x461BCD PUSH1 0xE5 SHL DUP2 MSTORE PUSH1 0x4 ADD PUSH2 0x5F4 SWAP1 PUSH2 0x2CAE JUMP JUMPDEST PUSH2 0x115F DUP2 PUSH1 0x2 DUP10 DUP10 DUP10 DUP10 DUP10 PUSH2 0x16FF JUMP JUMPDEST SWAP8 SWAP7 POP POP POP POP POP POP POP JUMP JUMPDEST CALLER PUSH1 0x0 SWAP1 DUP2 MSTORE PUSH1 0x65 PUSH1 0x20 MSTORE PUSH1 0x40 DUP2 KECCAK256 SLOAD PUSH1 0xFF AND PUSH2 0x1199 JUMPI PUSH1 0x40 MLOAD PUSH3 0x461BCD PUSH1 0xE5 SHL DUP2 MSTORE PUSH1 0x4 ADD PUSH2 0x5F4 SWAP1 PUSH2 0x2AD9 JUMP JUMPDEST PUSH1 0x0 DUP7 DUP2 MSTORE PUSH1 0x6A PUSH1 0x20 MSTORE PUSH1 0x40 SWAP1 KECCAK256 PUSH2 0x115F DUP2 PUSH1 0x4 DUP10 DUP10 DUP10 DUP10 DUP10 PUSH2 0x16FF JUMP JUMPDEST PUSH1 0x73 SLOAD DUP2 JUMP JUMPDEST PUSH1 0x1 PUSH1 0x1 PUSH1 0xA0 SHL SUB AND PUSH1 0x0 SWAP1 DUP2 MSTORE PUSH1 0x70 PUSH1 0x20 MSTORE PUSH1 0x40 SWAP1 KECCAK256 SLOAD SWAP1 JUMP JUMPDEST PUSH1 0x6E PUSH1 0x20 MSTORE DUP2 PUSH1 0x0 MSTORE PUSH1 0x40 PUSH1 0x0 KECCAK256 DUP2 DUP2 SLOAD DUP2 LT PUSH2 0x11F4 JUMPI PUSH1 0x0 DUP1 REVERT JUMPDEST SWAP1 PUSH1 0x0 MSTORE PUSH1 0x20 PUSH1 0x0 KECCAK256 ADD PUSH1 0x0 SWAP2 POP SWAP2 POP POP SLOAD DUP2 JUMP JUMPDEST PUSH1 0x1 PUSH1 0x1 PUSH1 0xA0 SHL SUB AND PUSH1 0x0 SWAP1 DUP2 MSTORE PUSH1 0x6E PUSH1 0x20 MSTORE PUSH1 0x40 SWAP1 KECCAK256 SLOAD SWAP1 JUMP JUMPDEST PUSH1 0x70 PUSH1 0x20 MSTORE DUP2 PUSH1 0x0 MSTORE PUSH1 0x40 PUSH1 0x0 KECCAK256 DUP2 DUP2 SLOAD DUP2 LT PUSH2 0x11F4 JUMPI PUSH1 0x0 DUP1 REVERT JUMPDEST PUSH1 0x71 PUSH1 0x20 SWAP1 DUP2 MSTORE PUSH1 0x0 SWAP3 DUP4 MSTORE PUSH1 0x40 DUP1 DUP5 KECCAK256 SWAP1 SWAP2 MSTORE SWAP1 DUP3 MSTORE SWAP1 KECCAK256 SLOAD DUP2 JUMP JUMPDEST PUSH1 0x74 SLOAD DUP2 JUMP JUMPDEST PUSH2 0x126B PUSH2 0x1521 JUMP JUMPDEST PUSH1 0x1 PUSH1 0x1 PUSH1 0xA0 SHL SUB AND PUSH2 0x127C PUSH2 0xFD4 JUMP JUMPDEST PUSH1 0x1 PUSH1 0x1 PUSH1 0xA0 SHL SUB AND EQ PUSH2 0x12A2 JUMPI PUSH1 0x40 MLOAD PUSH3 0x461BCD PUSH1 0xE5 SHL DUP2 MSTORE PUSH1 0x4 ADD PUSH2 0x5F4 SWAP1 PUSH2 0x2C1E JUMP JUMPDEST PUSH1 0x1 PUSH1 0x1 PUSH1 0xA0 SHL SUB DUP2 AND PUSH2 0x12C8 JUMPI PUSH1 0x40 MLOAD PUSH3 0x461BCD PUSH1 0xE5 SHL DUP2 MSTORE PUSH1 0x4 ADD PUSH2 0x5F4 SWAP1 PUSH2 0x2A6F JUMP JUMPDEST PUSH2 0x12D1 DUP2 PUSH2 0x1E3B JUMP JUMPDEST POP JUMP JUMPDEST PUSH1 0x6B SLOAD DUP2 JUMP JUMPDEST PUSH1 0x0 SLOAD PUSH2 0x100 SWAP1 DIV PUSH1 0xFF AND DUP1 PUSH2 0x12F3 JUMPI POP PUSH1 0x0 SLOAD PUSH1 0xFF AND ISZERO JUMPDEST PUSH2 0x130F JUMPI PUSH1 0x40 MLOAD PUSH3 0x461BCD PUSH1 0xE5 SHL DUP2 MSTORE PUSH1 0x4 ADD PUSH2 0x5F4 SWAP1 PUSH2 0x2B63 JUMP JUMPDEST PUSH1 0x0 SLOAD PUSH2 0x100 SWAP1 DIV PUSH1 0xFF AND ISZERO DUP1 ISZERO PUSH2 0x133A JUMPI PUSH1 0x0 DUP1 SLOAD PUSH1 0xFF NOT PUSH2 0xFF00 NOT SWAP1 SWAP2 AND PUSH2 0x100 OR AND PUSH1 0x1 OR SWAP1 SSTORE JUMPDEST PUSH2 0x1342 PUSH2 0x1E8D JUMP JUMPDEST PUSH1 0x66 DUP1 SLOAD PUSH1 0x1 PUSH1 0x1 PUSH1 0xA0 SHL SUB DUP1 DUP9 AND PUSH1 0x1 PUSH1 0x1 PUSH1 0xA0 SHL SUB NOT SWAP3 DUP4 AND OR SWAP1 SWAP3 SSTORE PUSH1 0x68 DUP1 SLOAD DUP8 DUP5 AND SWAP1 DUP4 AND OR SWAP1 SSTORE PUSH1 0x67 DUP1 SLOAD DUP7 DUP5 AND SWAP1 DUP4 AND OR SWAP1 SSTORE PUSH2 0x2710 PUSH1 0x73 SSTORE PUSH1 0x69 DUP1 SLOAD SWAP3 DUP6 AND SWAP3 SWAP1 SWAP2 AND SWAP2 SWAP1 SWAP2 OR SWAP1 SSTORE PUSH8 0xDE0B6B3A7640000 PUSH1 0x74 SSTORE PUSH1 0x32 PUSH1 0x72 SSTORE DUP1 ISZERO PUSH2 0x13B5 JUMPI PUSH1 0x0 DUP1 SLOAD PUSH2 0xFF00 NOT AND SWAP1 SSTORE JUMPDEST POP POP POP POP POP JUMP JUMPDEST PUSH1 0x0 PUSH2 0x13C6 PUSH2 0x1521 JUMP JUMPDEST PUSH1 0x1 PUSH1 0x1 PUSH1 0xA0 SHL SUB AND PUSH2 0x13D7 PUSH2 0xFD4 JUMP JUMPDEST PUSH1 0x1 PUSH1 0x1 PUSH1 0xA0 SHL SUB AND EQ PUSH2 0x13FD JUMPI PUSH1 0x40 MLOAD PUSH3 0x461BCD PUSH1 0xE5 SHL DUP2 MSTORE PUSH1 0x4 ADD PUSH2 0x5F4 SWAP1 PUSH2 0x2C1E JUMP JUMPDEST PUSH1 0x40 MLOAD DUP1 PUSH2 0x160 ADD PUSH1 0x40 MSTORE DUP1 DUP14 PUSH1 0x1 PUSH1 0x1 PUSH1 0xA0 SHL SUB AND DUP2 MSTORE PUSH1 0x20 ADD DUP13 DUP2 MSTORE PUSH1 0x20 ADD DUP12 DUP2 MSTORE PUSH1 0x20 ADD DUP11 DUP2 MSTORE PUSH1 0x20 ADD DUP10 DUP2 MSTORE PUSH1 0x20 ADD DUP9 DUP2 MSTORE PUSH1 0x20 ADD DUP8 DUP2 MSTORE PUSH1 0x20 ADD DUP7 DUP2 MSTORE PUSH1 0x20 ADD DUP6 DUP2 MSTORE PUSH1 0x20 ADD DUP5 DUP2 MSTORE PUSH1 0x20 ADD DUP4 DUP2 MSTORE POP PUSH1 0x6A PUSH1 0x0 DUP16 DUP2 MSTORE PUSH1 0x20 ADD SWAP1 DUP2 MSTORE PUSH1 0x20 ADD PUSH1 0x0 KECCAK256 PUSH1 0x0 DUP3 ADD MLOAD DUP2 PUSH1 0x0 ADD PUSH1 0x0 PUSH2 0x100 EXP DUP2 SLOAD DUP2 PUSH1 0x1 PUSH1 0x1 PUSH1 0xA0 SHL SUB MUL NOT AND SWAP1 DUP4 PUSH1 0x1 PUSH1 0x1 PUSH1 0xA0 SHL SUB AND MUL OR SWAP1 SSTORE POP PUSH1 0x20 DUP3 ADD MLOAD DUP2 PUSH1 0x1 ADD SSTORE PUSH1 0x40 DUP3 ADD MLOAD DUP2 PUSH1 0x2 ADD SWAP1 DUP1 MLOAD SWAP1 PUSH1 0x20 ADD SWAP1 PUSH2 0x14B8 SWAP3 SWAP2 SWAP1 PUSH2 0x22A7 JUMP JUMPDEST POP PUSH1 0x60 DUP3 ADD MLOAD PUSH1 0x3 DUP3 ADD SSTORE PUSH1 0x80 DUP3 ADD MLOAD PUSH1 0x4 DUP3 ADD SSTORE PUSH1 0xA0 DUP3 ADD MLOAD PUSH1 0x5 DUP3 ADD SSTORE PUSH1 0xC0 DUP3 ADD MLOAD PUSH1 0x6 DUP3 ADD SSTORE PUSH1 0xE0 DUP3 ADD MLOAD PUSH1 0x7 DUP3 ADD SSTORE PUSH2 0x100 DUP3 ADD MLOAD PUSH1 0x8 DUP3 ADD SSTORE PUSH2 0x120 DUP3 ADD MLOAD PUSH1 0x9 DUP3 ADD SSTORE PUSH2 0x140 SWAP1 SWAP2 ADD MLOAD PUSH1 0xA SWAP1 SWAP2 ADD SSTORE POP PUSH1 0x1 SWAP13 SWAP12 POP POP POP POP POP POP POP POP POP POP POP POP JUMP JUMPDEST CALLER SWAP1 JUMP JUMPDEST PUSH1 0x0 PUSH2 0x1531 DUP3 DUP5 PUSH2 0x2EA1 JUMP JUMPDEST SWAP4 SWAP3 POP POP POP JUMP JUMPDEST PUSH2 0x1590 DUP5 PUSH4 0x23B872DD PUSH1 0xE0 SHL DUP6 DUP6 DUP6 PUSH1 0x40 MLOAD PUSH1 0x24 ADD PUSH2 0x1559 SWAP4 SWAP3 SWAP2 SWAP1 PUSH2 0x29A2 JUMP JUMPDEST PUSH1 0x40 DUP1 MLOAD PUSH1 0x1F NOT DUP2 DUP5 SUB ADD DUP2 MSTORE SWAP2 SWAP1 MSTORE PUSH1 0x20 DUP2 ADD DUP1 MLOAD PUSH1 0x1 PUSH1 0x1 PUSH1 0xE0 SHL SUB AND PUSH1 0x1 PUSH1 0x1 PUSH1 0xE0 SHL SUB NOT SWAP1 SWAP4 AND SWAP3 SWAP1 SWAP3 OR SWAP1 SWAP2 MSTORE PUSH2 0x1F11 JUMP JUMPDEST POP POP POP POP JUMP JUMPDEST PUSH1 0x0 PUSH2 0x1531 DUP3 DUP5 PUSH2 0x2E81 JUMP JUMPDEST PUSH2 0x15C1 DUP4 PUSH4 0xA9059CBB PUSH1 0xE0 SHL DUP5 DUP5 PUSH1 0x40 MLOAD PUSH1 0x24 ADD PUSH2 0x1559 SWAP3 SWAP2 SWAP1 PUSH2 0x29C6 JUMP JUMPDEST POP POP POP JUMP JUMPDEST PUSH1 0x0 PUSH2 0x1531 DUP3 DUP5 PUSH2 0x2EC0 JUMP JUMPDEST PUSH1 0x0 DUP4 DUP2 MSTORE PUSH1 0x6A PUSH1 0x20 MSTORE PUSH1 0x40 DUP2 KECCAK256 PUSH1 0x4 DUP2 ADD SLOAD DUP3 SWAP1 DUP2 SWAP1 DUP2 SWAP1 PUSH1 0x1 EQ ISZERO PUSH2 0x1677 JUMPI DUP4 PUSH1 0x5 ADD SLOAD DUP8 LT ISZERO PUSH2 0x1672 JUMPI PUSH1 0x5 DUP5 ADD SLOAD PUSH2 0x160E SWAP1 DUP9 PUSH2 0x15C6 JUMP JUMPDEST SWAP3 POP PUSH2 0x1627 DUP5 PUSH1 0x9 ADD SLOAD DUP5 PUSH2 0x1525 SWAP1 SWAP2 SWAP1 PUSH4 0xFFFFFFFF AND JUMP JUMPDEST SWAP2 POP PUSH2 0x1652 PUSH1 0x73 SLOAD PUSH2 0x939 PUSH1 0x72 SLOAD PUSH2 0x164C DUP12 DUP10 PUSH1 0x9 ADD SLOAD PUSH2 0x1525 SWAP1 SWAP2 SWAP1 PUSH4 0xFFFFFFFF AND JUMP JUMPDEST SWAP1 PUSH2 0x1525 JUMP JUMPDEST SWAP1 POP PUSH2 0x165E DUP2 DUP4 PUSH2 0x2E69 JUMP JUMPDEST DUP7 LT ISZERO PUSH2 0x1672 JUMPI PUSH1 0x0 SWAP5 POP POP POP POP POP PUSH2 0x1531 JUMP JUMPDEST PUSH2 0x16F1 JUMP JUMPDEST DUP4 PUSH1 0x5 ADD SLOAD DUP8 GT ISZERO PUSH2 0x16F1 JUMPI PUSH1 0x5 DUP5 ADD SLOAD PUSH2 0x1693 SWAP1 DUP9 SWAP1 PUSH2 0x15C6 JUMP JUMPDEST SWAP3 POP PUSH2 0x16AC DUP5 PUSH1 0x9 ADD SLOAD DUP5 PUSH2 0x1525 SWAP1 SWAP2 SWAP1 PUSH4 0xFFFFFFFF AND JUMP JUMPDEST SWAP2 POP PUSH2 0x16D1 PUSH1 0x73 SLOAD PUSH2 0x939 PUSH1 0x72 SLOAD PUSH2 0x164C DUP12 DUP10 PUSH1 0x9 ADD SLOAD PUSH2 0x1525 SWAP1 SWAP2 SWAP1 PUSH4 0xFFFFFFFF AND JUMP JUMPDEST SWAP1 POP PUSH2 0x16DD DUP2 DUP4 PUSH2 0x2E69 JUMP JUMPDEST DUP7 LT ISZERO PUSH2 0x16F1 JUMPI PUSH1 0x0 SWAP5 POP POP POP POP POP PUSH2 0x1531 JUMP JUMPDEST POP PUSH1 0x1 SWAP8 SWAP7 POP POP POP POP POP POP POP JUMP JUMPDEST DUP7 SLOAD PUSH1 0x0 SWAP1 PUSH1 0x1 PUSH1 0x1 PUSH1 0xA0 SHL SUB AND PUSH2 0x1729 JUMPI PUSH1 0x40 MLOAD PUSH3 0x461BCD PUSH1 0xE5 SHL DUP2 MSTORE PUSH1 0x4 ADD PUSH2 0x5F4 SWAP1 PUSH2 0x2A41 JUMP JUMPDEST PUSH1 0x2 DUP9 PUSH1 0x3 ADD SLOAD LT PUSH2 0x174D JUMPI PUSH1 0x40 MLOAD PUSH3 0x461BCD PUSH1 0xE5 SHL DUP2 MSTORE PUSH1 0x4 ADD PUSH2 0x5F4 SWAP1 PUSH2 0x2CD0 JUMP JUMPDEST PUSH1 0x69 SLOAD PUSH1 0x40 MLOAD PUSH4 0x81952F3B PUSH1 0xE0 SHL DUP2 MSTORE PUSH1 0x1 PUSH1 0x1 PUSH1 0xA0 SHL SUB SWAP1 SWAP2 AND SWAP1 PUSH4 0x81952F3B SWAP1 PUSH2 0x1783 SWAP1 DUP7 SWAP1 DUP10 SWAP1 DUP10 SWAP1 DUP9 SWAP1 PUSH1 0x4 ADD PUSH2 0x2DEA JUMP JUMPDEST PUSH1 0x20 PUSH1 0x40 MLOAD DUP1 DUP4 SUB DUP2 DUP7 DUP1 EXTCODESIZE ISZERO DUP1 ISZERO PUSH2 0x179B JUMPI PUSH1 0x0 DUP1 REVERT JUMPDEST POP GAS STATICCALL ISZERO DUP1 ISZERO PUSH2 0x17AF JUMPI RETURNDATASIZE PUSH1 0x0 DUP1 RETURNDATACOPY RETURNDATASIZE PUSH1 0x0 REVERT JUMPDEST POP POP POP POP PUSH1 0x40 MLOAD RETURNDATASIZE PUSH1 0x1F NOT PUSH1 0x1F DUP3 ADD AND DUP3 ADD DUP1 PUSH1 0x40 MSTORE POP DUP2 ADD SWAP1 PUSH2 0x17D3 SWAP2 SWAP1 PUSH2 0x26BA JUMP JUMPDEST PUSH2 0x17EF JUMPI PUSH1 0x40 MLOAD PUSH3 0x461BCD PUSH1 0xE5 SHL DUP2 MSTORE PUSH1 0x4 ADD PUSH2 0x5F4 SWAP1 PUSH2 0x2AB5 JUMP JUMPDEST DUP3 DUP9 PUSH1 0x7 ADD DUP2 SWAP1 SSTORE POP PUSH1 0x0 DUP1 PUSH1 0x0 DUP11 PUSH1 0x4 ADD SLOAD PUSH1 0x1 EQ ISZERO PUSH2 0x1B2E JUMPI DUP11 PUSH1 0x5 ADD SLOAD DUP12 PUSH1 0x7 ADD SLOAD GT ISZERO PUSH2 0x199A JUMPI PUSH1 0x5 DUP12 ADD SLOAD PUSH1 0x7 DUP13 ADD SLOAD PUSH2 0x182D SWAP2 PUSH2 0x15C6 JUMP JUMPDEST SWAP3 POP PUSH2 0x1846 DUP12 PUSH1 0x9 ADD SLOAD DUP5 PUSH2 0x1525 SWAP1 SWAP2 SWAP1 PUSH4 0xFFFFFFFF AND JUMP JUMPDEST PUSH1 0xA DUP13 ADD SLOAD SWAP1 SWAP3 POP PUSH2 0x1858 SWAP1 DUP4 PUSH2 0x1FA0 JUMP JUMPDEST SWAP1 POP PUSH1 0x0 PUSH2 0x1877 PUSH1 0x73 SLOAD PUSH2 0x939 PUSH1 0x72 SLOAD DUP6 PUSH2 0x1525 SWAP1 SWAP2 SWAP1 PUSH4 0xFFFFFFFF AND JUMP JUMPDEST PUSH1 0x67 SLOAD PUSH1 0x68 SLOAD PUSH1 0x40 MLOAD PUSH4 0x40C10F19 PUSH1 0xE0 SHL DUP2 MSTORE SWAP3 SWAP4 POP PUSH1 0x1 PUSH1 0x1 PUSH1 0xA0 SHL SUB SWAP2 DUP3 AND SWAP3 PUSH4 0x40C10F19 SWAP3 PUSH2 0x18AF SWAP3 AND SWAP1 DUP6 SWAP1 PUSH1 0x4 ADD PUSH2 0x29C6 JUMP JUMPDEST PUSH1 0x20 PUSH1 0x40 MLOAD DUP1 DUP4 SUB DUP2 PUSH1 0x0 DUP8 DUP1 EXTCODESIZE ISZERO DUP1 ISZERO PUSH2 0x18C9 JUMPI PUSH1 0x0 DUP1 REVERT JUMPDEST POP GAS CALL ISZERO DUP1 ISZERO PUSH2 0x18DD JUMPI RETURNDATASIZE PUSH1 0x0 DUP1 RETURNDATACOPY RETURNDATASIZE PUSH1 0x0 REVERT JUMPDEST POP POP POP POP PUSH1 0x40 MLOAD RETURNDATASIZE PUSH1 0x1F NOT PUSH1 0x1F DUP3 ADD AND DUP3 ADD DUP1 PUSH1 0x40 MSTORE POP DUP2 ADD SWAP1 PUSH2 0x1901 SWAP2 SWAP1 PUSH2 0x26BA JUMP JUMPDEST POP PUSH1 0x67 SLOAD DUP13 SLOAD PUSH1 0x1 PUSH1 0x1 PUSH1 0xA0 SHL SUB SWAP2 DUP3 AND SWAP2 PUSH4 0x40C10F19 SWAP2 AND PUSH2 0x1924 DUP6 DUP6 PUSH2 0x15C6 JUMP JUMPDEST PUSH1 0x40 MLOAD DUP4 PUSH4 0xFFFFFFFF AND PUSH1 0xE0 SHL DUP2 MSTORE PUSH1 0x4 ADD PUSH2 0x1941 SWAP3 SWAP2 SWAP1 PUSH2 0x29C6 JUMP JUMPDEST PUSH1 0x20 PUSH1 0x40 MLOAD DUP1 DUP4 SUB DUP2 PUSH1 0x0 DUP8 DUP1 EXTCODESIZE ISZERO DUP1 ISZERO PUSH2 0x195B JUMPI PUSH1 0x0 DUP1 REVERT JUMPDEST POP GAS CALL ISZERO DUP1 ISZERO PUSH2 0x196F JUMPI RETURNDATASIZE PUSH1 0x0 DUP1 RETURNDATACOPY RETURNDATASIZE PUSH1 0x0 REVERT JUMPDEST POP POP POP POP PUSH1 0x40 MLOAD RETURNDATASIZE PUSH1 0x1F NOT PUSH1 0x1F DUP3 ADD AND DUP3 ADD DUP1 PUSH1 0x40 MSTORE POP DUP2 ADD SWAP1 PUSH2 0x1993 SWAP2 SWAP1 PUSH2 0x26BA JUMP JUMPDEST POP POP PUSH2 0x1B29 JUMP JUMPDEST PUSH1 0x7 DUP12 ADD SLOAD PUSH1 0x5 DUP13 ADD SLOAD PUSH2 0x19AD SWAP2 PUSH2 0x15C6 JUMP JUMPDEST SWAP3 POP PUSH2 0x19C6 DUP12 PUSH1 0x9 ADD SLOAD DUP5 PUSH2 0x1525 SWAP1 SWAP2 SWAP1 PUSH4 0xFFFFFFFF AND JUMP JUMPDEST SWAP2 POP DUP11 PUSH1 0xA ADD SLOAD DUP3 GT ISZERO PUSH2 0x19DC JUMPI POP PUSH1 0x0 PUSH2 0x1B29 JUMP JUMPDEST PUSH1 0xA DUP12 ADD SLOAD PUSH2 0x19EB SWAP1 DUP4 PUSH2 0x15C6 JUMP JUMPDEST SWAP1 POP PUSH1 0x0 PUSH2 0x1A0A PUSH1 0x73 SLOAD PUSH2 0x939 PUSH1 0x72 SLOAD DUP6 PUSH2 0x1525 SWAP1 SWAP2 SWAP1 PUSH4 0xFFFFFFFF AND JUMP JUMPDEST PUSH1 0x67 SLOAD PUSH1 0x68 SLOAD PUSH1 0x40 MLOAD PUSH4 0x40C10F19 PUSH1 0xE0 SHL DUP2 MSTORE SWAP3 SWAP4 POP PUSH1 0x1 PUSH1 0x1 PUSH1 0xA0 SHL SUB SWAP2 DUP3 AND SWAP3 PUSH4 0x40C10F19 SWAP3 PUSH2 0x1A42 SWAP3 AND SWAP1 DUP6 SWAP1 PUSH1 0x4 ADD PUSH2 0x29C6 JUMP JUMPDEST PUSH1 0x20 PUSH1 0x40 MLOAD DUP1 DUP4 SUB DUP2 PUSH1 0x0 DUP8 DUP1 EXTCODESIZE ISZERO DUP1 ISZERO PUSH2 0x1A5C JUMPI PUSH1 0x0 DUP1 REVERT JUMPDEST POP GAS CALL ISZERO DUP1 ISZERO PUSH2 0x1A70 JUMPI RETURNDATASIZE PUSH1 0x0 DUP1 RETURNDATACOPY RETURNDATASIZE PUSH1 0x0 REVERT JUMPDEST POP POP POP POP PUSH1 0x40 MLOAD RETURNDATASIZE PUSH1 0x1F NOT PUSH1 0x1F DUP3 ADD AND DUP3 ADD DUP1 PUSH1 0x40 MSTORE POP DUP2 ADD SWAP1 PUSH2 0x1A94 SWAP2 SWAP1 PUSH2 0x26BA JUMP JUMPDEST POP PUSH1 0x67 SLOAD DUP13 SLOAD PUSH1 0x1 PUSH1 0x1 PUSH1 0xA0 SHL SUB SWAP2 DUP3 AND SWAP2 PUSH4 0x40C10F19 SWAP2 AND PUSH2 0x1AB7 DUP6 DUP6 PUSH2 0x15C6 JUMP JUMPDEST PUSH1 0x40 MLOAD DUP4 PUSH4 0xFFFFFFFF AND PUSH1 0xE0 SHL DUP2 MSTORE PUSH1 0x4 ADD PUSH2 0x1AD4 SWAP3 SWAP2 SWAP1 PUSH2 0x29C6 JUMP JUMPDEST PUSH1 0x20 PUSH1 0x40 MLOAD DUP1 DUP4 SUB DUP2 PUSH1 0x0 DUP8 DUP1 EXTCODESIZE ISZERO DUP1 ISZERO PUSH2 0x1AEE JUMPI PUSH1 0x0 DUP1 REVERT JUMPDEST POP GAS CALL ISZERO DUP1 ISZERO PUSH2 0x1B02 JUMPI RETURNDATASIZE PUSH1 0x0 DUP1 RETURNDATACOPY RETURNDATASIZE PUSH1 0x0 REVERT JUMPDEST POP POP POP POP PUSH1 0x40 MLOAD RETURNDATASIZE PUSH1 0x1F NOT PUSH1 0x1F DUP3 ADD AND DUP3 ADD DUP1 PUSH1 0x40 MSTORE POP DUP2 ADD SWAP1 PUSH2 0x1B26 SWAP2 SWAP1 PUSH2 0x26BA JUMP JUMPDEST POP POP JUMPDEST PUSH2 0x1D0B JUMP JUMPDEST DUP11 PUSH1 0x5 ADD SLOAD DUP12 PUSH1 0x7 ADD SLOAD LT ISZERO PUSH2 0x1B7C JUMPI PUSH1 0x7 DUP12 ADD SLOAD PUSH1 0x5 DUP13 ADD SLOAD PUSH2 0x1B51 SWAP2 PUSH2 0x15C6 JUMP JUMPDEST SWAP3 POP PUSH2 0x1B6A DUP12 PUSH1 0x9 ADD SLOAD DUP5 PUSH2 0x1525 SWAP1 SWAP2 SWAP1 PUSH4 0xFFFFFFFF AND JUMP JUMPDEST PUSH1 0xA DUP13 ADD SLOAD SWAP1 SWAP3 POP PUSH2 0x19EB SWAP1 DUP4 PUSH2 0x1FA0 JUMP JUMPDEST PUSH1 0x5 DUP12 ADD SLOAD PUSH1 0x7 DUP13 ADD SLOAD PUSH2 0x1B8F SWAP2 PUSH2 0x15C6 JUMP JUMPDEST SWAP3 POP PUSH2 0x1BA8 DUP12 PUSH1 0x9 ADD SLOAD DUP5 PUSH2 0x1525 SWAP1 SWAP2 SWAP1 PUSH4 0xFFFFFFFF AND JUMP JUMPDEST SWAP2 POP DUP11 PUSH1 0xA ADD SLOAD DUP3 GT ISZERO PUSH2 0x1BBE JUMPI POP PUSH1 0x0 PUSH2 0x1D0B JUMP JUMPDEST PUSH1 0xA DUP12 ADD SLOAD PUSH2 0x1BCD SWAP1 DUP4 PUSH2 0x15C6 JUMP JUMPDEST SWAP1 POP PUSH1 0x0 PUSH2 0x1BEC PUSH1 0x73 SLOAD PUSH2 0x939 PUSH1 0x72 SLOAD DUP6 PUSH2 0x1525 SWAP1 SWAP2 SWAP1 PUSH4 0xFFFFFFFF AND JUMP JUMPDEST PUSH1 0x67 SLOAD PUSH1 0x68 SLOAD PUSH1 0x40 MLOAD PUSH4 0x40C10F19 PUSH1 0xE0 SHL DUP2 MSTORE SWAP3 SWAP4 POP PUSH1 0x1 PUSH1 0x1 PUSH1 0xA0 SHL SUB SWAP2 DUP3 AND SWAP3 PUSH4 0x40C10F19 SWAP3 PUSH2 0x1C24 SWAP3 AND SWAP1 DUP6 SWAP1 PUSH1 0x4 ADD PUSH2 0x29C6 JUMP JUMPDEST PUSH1 0x20 PUSH1 0x40 MLOAD DUP1 DUP4 SUB DUP2 PUSH1 0x0 DUP8 DUP1 EXTCODESIZE ISZERO DUP1 ISZERO PUSH2 0x1C3E JUMPI PUSH1 0x0 DUP1 REVERT JUMPDEST POP GAS CALL ISZERO DUP1 ISZERO PUSH2 0x1C52 JUMPI RETURNDATASIZE PUSH1 0x0 DUP1 RETURNDATACOPY RETURNDATASIZE PUSH1 0x0 REVERT JUMPDEST POP POP POP POP PUSH1 0x40 MLOAD RETURNDATASIZE PUSH1 0x1F NOT PUSH1 0x1F DUP3 ADD AND DUP3 ADD DUP1 PUSH1 0x40 MSTORE POP DUP2 ADD SWAP1 PUSH2 0x1C76 SWAP2 SWAP1 PUSH2 0x26BA JUMP JUMPDEST POP PUSH1 0x67 SLOAD DUP13 SLOAD PUSH1 0x1 PUSH1 0x1 PUSH1 0xA0 SHL SUB SWAP2 DUP3 AND SWAP2 PUSH4 0x40C10F19 SWAP2 AND PUSH2 0x1C99 DUP6 DUP6 PUSH2 0x15C6 JUMP JUMPDEST PUSH1 0x40 MLOAD DUP4 PUSH4 0xFFFFFFFF AND PUSH1 0xE0 SHL DUP2 MSTORE PUSH1 0x4 ADD PUSH2 0x1CB6 SWAP3 SWAP2 SWAP1 PUSH2 0x29C6 JUMP JUMPDEST PUSH1 0x20 PUSH1 0x40 MLOAD DUP1 DUP4 SUB DUP2 PUSH1 0x0 DUP8 DUP1 EXTCODESIZE ISZERO DUP1 ISZERO PUSH2 0x1CD0 JUMPI PUSH1 0x0 DUP1 REVERT JUMPDEST POP GAS CALL ISZERO DUP1 ISZERO PUSH2 0x1CE4 JUMPI RETURNDATASIZE PUSH1 0x0 DUP1 RETURNDATACOPY RETURNDATASIZE PUSH1 0x0 REVERT JUMPDEST POP POP POP POP PUSH1 0x40 MLOAD RETURNDATASIZE PUSH1 0x1F NOT PUSH1 0x1F DUP3 ADD AND DUP3 ADD DUP1 PUSH1 0x40 MSTORE POP DUP2 ADD SWAP1 PUSH2 0x1D08 SWAP2 SWAP1 PUSH2 0x26BA JUMP JUMPDEST POP POP JUMPDEST PUSH1 0x68 PUSH1 0x0 SWAP1 SLOAD SWAP1 PUSH2 0x100 EXP SWAP1 DIV PUSH1 0x1 PUSH1 0x1 PUSH1 0xA0 SHL SUB AND PUSH1 0x1 PUSH1 0x1 PUSH1 0xA0 SHL SUB AND PUSH4 0xD10C06A2 PUSH1 0x40 MLOAD DUP2 PUSH4 0xFFFFFFFF AND PUSH1 0xE0 SHL DUP2 MSTORE PUSH1 0x4 ADD PUSH1 0x20 PUSH1 0x40 MLOAD DUP1 DUP4 SUB DUP2 PUSH1 0x0 DUP8 DUP1 EXTCODESIZE ISZERO DUP1 ISZERO PUSH2 0x1D5B JUMPI PUSH1 0x0 DUP1 REVERT JUMPDEST POP GAS CALL ISZERO DUP1 ISZERO PUSH2 0x1D6F JUMPI RETURNDATASIZE PUSH1 0x0 DUP1 RETURNDATACOPY RETURNDATASIZE PUSH1 0x0 REVERT JUMPDEST POP POP POP POP PUSH1 0x40 MLOAD RETURNDATASIZE PUSH1 0x1F NOT PUSH1 0x1F DUP3 ADD AND DUP3 ADD DUP1 PUSH1 0x40 MSTORE POP DUP2 ADD SWAP1 PUSH2 0x1D93 SWAP2 SWAP1 PUSH2 0x26BA JUMP JUMPDEST POP PUSH1 0x3 DUP12 ADD DUP11 SWAP1 SSTORE PUSH1 0x7 DUP12 ADD DUP7 SWAP1 SSTORE PUSH1 0x8 DUP12 ADD DUP9 SWAP1 SSTORE PUSH2 0x1DB6 DUP10 PUSH1 0x6D PUSH1 0x6C PUSH2 0x1FAC JUMP JUMPDEST CALLER PUSH1 0x0 SWAP1 DUP2 MSTORE PUSH1 0x6F PUSH1 0x20 SWAP1 DUP2 MSTORE PUSH1 0x40 DUP1 DUP4 KECCAK256 PUSH1 0x6E SWAP1 SWAP3 MSTORE SWAP1 SWAP2 KECCAK256 PUSH2 0x1DDB SWAP2 DUP12 SWAP2 PUSH2 0x1FAC JUMP JUMPDEST CALLER PUSH1 0x0 DUP2 DUP2 MSTORE PUSH1 0x70 PUSH1 0x20 SWAP1 DUP2 MSTORE PUSH1 0x40 DUP3 KECCAK256 DUP1 SLOAD PUSH1 0x1 DUP2 DUP2 ADD DUP4 SSTORE DUP3 DUP6 MSTORE SWAP3 DUP5 KECCAK256 ADD DUP14 SWAP1 SSTORE SWAP3 SWAP1 SWAP2 MSTORE SWAP1 SLOAD PUSH2 0x1E0E SWAP2 PUSH2 0x15C6 JUMP JUMPDEST CALLER PUSH1 0x0 SWAP1 DUP2 MSTORE PUSH1 0x71 PUSH1 0x20 SWAP1 DUP2 MSTORE PUSH1 0x40 DUP1 DUP4 KECCAK256 DUP14 DUP5 MSTORE SWAP1 SWAP2 MSTORE SWAP1 KECCAK256 SSTORE POP PUSH1 0x1 SWAP3 POP POP POP SWAP8 SWAP7 POP POP POP POP POP POP POP JUMP JUMPDEST PUSH1 0x33 DUP1 SLOAD PUSH1 0x1 PUSH1 0x1 PUSH1 0xA0 SHL SUB DUP4 DUP2 AND PUSH1 0x1 PUSH1 0x1 PUSH1 0xA0 SHL SUB NOT DUP4 AND DUP2 OR SWAP1 SWAP4 SSTORE PUSH1 0x40 MLOAD SWAP2 AND SWAP2 SWAP1 DUP3 SWAP1 PUSH32 0x8BE0079C531659141344CD1FD0A4F28419497F9722A3DAAFE3B4186F6B6457E0 SWAP1 PUSH1 0x0 SWAP1 LOG3 POP POP JUMP JUMPDEST PUSH1 0x0 SLOAD PUSH2 0x100 SWAP1 DIV PUSH1 0xFF AND DUP1 PUSH2 0x1EA6 JUMPI POP PUSH1 0x0 SLOAD PUSH1 0xFF AND ISZERO JUMPDEST PUSH2 0x1EC2 JUMPI PUSH1 0x40 MLOAD PUSH3 0x461BCD PUSH1 0xE5 SHL DUP2 MSTORE PUSH1 0x4 ADD PUSH2 0x5F4 SWAP1 PUSH2 0x2B63 JUMP JUMPDEST PUSH1 0x0 SLOAD PUSH2 0x100 SWAP1 DIV PUSH1 0xFF AND ISZERO DUP1 ISZERO PUSH2 0x1EED JUMPI PUSH1 0x0 DUP1 SLOAD PUSH1 0xFF NOT PUSH2 0xFF00 NOT SWAP1 SWAP2 AND PUSH2 0x100 OR AND PUSH1 0x1 OR SWAP1 SSTORE JUMPDEST PUSH2 0x1EF5 PUSH2 0x20B9 JUMP JUMPDEST PUSH2 0x1EFD PUSH2 0x212C JUMP JUMPDEST DUP1 ISZERO PUSH2 0x12D1 JUMPI PUSH1 0x0 DUP1 SLOAD PUSH2 0xFF00 NOT AND SWAP1 SSTORE POP JUMP JUMPDEST PUSH1 0x0 PUSH2 0x1F66 DUP3 PUSH1 0x40 MLOAD DUP1 PUSH1 0x40 ADD PUSH1 0x40 MSTORE DUP1 PUSH1 0x20 DUP2 MSTORE PUSH1 0x20 ADD PUSH32 0x5361666545524332303A206C6F772D6C6576656C2063616C6C206661696C6564 DUP2 MSTORE POP DUP6 PUSH1 0x1 PUSH1 0x1 PUSH1 0xA0 SHL SUB AND PUSH2 0x219C SWAP1 SWAP3 SWAP2 SWAP1 PUSH4 0xFFFFFFFF AND JUMP JUMPDEST DUP1 MLOAD SWAP1 SWAP2 POP ISZERO PUSH2 0x15C1 JUMPI DUP1 DUP1 PUSH1 0x20 ADD SWAP1 MLOAD DUP2 ADD SWAP1 PUSH2 0x1F84 SWAP2 SWAP1 PUSH2 0x26BA JUMP JUMPDEST PUSH2 0x15C1 JUMPI PUSH1 0x40 MLOAD PUSH3 0x461BCD PUSH1 0xE5 SHL DUP2 MSTORE PUSH1 0x4 ADD PUSH2 0x5F4 SWAP1 PUSH2 0x2CF3 JUMP JUMPDEST PUSH1 0x0 PUSH2 0x1531 DUP3 DUP5 PUSH2 0x2E69 JUMP JUMPDEST PUSH1 0x0 DUP4 DUP2 MSTORE PUSH1 0x20 DUP4 SWAP1 MSTORE PUSH1 0x40 DUP2 KECCAK256 SLOAD DUP3 SLOAD SWAP1 SWAP2 SWAP1 DUP4 SWAP1 PUSH2 0x1FCD SWAP1 PUSH1 0x1 PUSH2 0x15C6 JUMP JUMPDEST DUP2 SLOAD DUP2 LT PUSH2 0x1FEB JUMPI PUSH4 0x4E487B71 PUSH1 0xE0 SHL PUSH1 0x0 MSTORE PUSH1 0x32 PUSH1 0x4 MSTORE PUSH1 0x24 PUSH1 0x0 REVERT JUMPDEST SWAP1 PUSH1 0x0 MSTORE PUSH1 0x20 PUSH1 0x0 KECCAK256 ADD SLOAD SWAP1 POP PUSH1 0x0 DUP4 DUP3 DUP2 SLOAD DUP2 LT PUSH2 0x201A JUMPI PUSH4 0x4E487B71 PUSH1 0xE0 SHL PUSH1 0x0 MSTORE PUSH1 0x32 PUSH1 0x4 MSTORE PUSH1 0x24 PUSH1 0x0 REVERT JUMPDEST SWAP1 PUSH1 0x0 MSTORE PUSH1 0x20 PUSH1 0x0 KECCAK256 ADD SLOAD SWAP1 POP DUP3 DUP6 PUSH1 0x0 DUP4 DUP2 MSTORE PUSH1 0x20 ADD SWAP1 DUP2 MSTORE PUSH1 0x20 ADD PUSH1 0x0 KECCAK256 DUP2 SWAP1 SSTORE POP DUP1 DUP5 DUP5 DUP2 SLOAD DUP2 LT PUSH2 0x205F JUMPI PUSH4 0x4E487B71 PUSH1 0xE0 SHL PUSH1 0x0 MSTORE PUSH1 0x32 PUSH1 0x4 MSTORE PUSH1 0x24 PUSH1 0x0 REVERT JUMPDEST PUSH1 0x0 SWAP2 DUP3 MSTORE PUSH1 0x20 DUP1 DUP4 KECCAK256 SWAP1 SWAP2 ADD SWAP3 SWAP1 SWAP3 SSTORE DUP8 DUP2 MSTORE SWAP1 DUP7 SWAP1 MSTORE PUSH1 0x40 DUP2 KECCAK256 SSTORE DUP4 SLOAD DUP5 SWAP1 DUP1 PUSH2 0x209B JUMPI PUSH4 0x4E487B71 PUSH1 0xE0 SHL PUSH1 0x0 MSTORE PUSH1 0x31 PUSH1 0x4 MSTORE PUSH1 0x24 PUSH1 0x0 REVERT JUMPDEST PUSH1 0x1 SWAP1 SUB DUP2 DUP2 SWAP1 PUSH1 0x0 MSTORE PUSH1 0x20 PUSH1 0x0 KECCAK256 ADD PUSH1 0x0 SWAP1 SSTORE SWAP1 SSTORE POP POP POP POP POP POP JUMP JUMPDEST PUSH1 0x0 SLOAD PUSH2 0x100 SWAP1 DIV PUSH1 0xFF AND DUP1 PUSH2 0x20D2 JUMPI POP PUSH1 0x0 SLOAD PUSH1 0xFF AND ISZERO JUMPDEST PUSH2 0x20EE JUMPI PUSH1 0x40 MLOAD PUSH3 0x461BCD PUSH1 0xE5 SHL DUP2 MSTORE PUSH1 0x4 ADD PUSH2 0x5F4 SWAP1 PUSH2 0x2B63 JUMP JUMPDEST PUSH1 0x0 SLOAD PUSH2 0x100 SWAP1 DIV PUSH1 0xFF AND ISZERO DUP1 ISZERO PUSH2 0x1EFD JUMPI PUSH1 0x0 DUP1 SLOAD PUSH1 0xFF NOT PUSH2 0xFF00 NOT SWAP1 SWAP2 AND PUSH2 0x100 OR AND PUSH1 0x1 OR SWAP1 SSTORE DUP1 ISZERO PUSH2 0x12D1 JUMPI PUSH1 0x0 DUP1 SLOAD PUSH2 0xFF00 NOT AND SWAP1 SSTORE POP JUMP JUMPDEST PUSH1 0x0 SLOAD PUSH2 0x100 SWAP1 DIV PUSH1 0xFF AND DUP1 PUSH2 0x2145 JUMPI POP PUSH1 0x0 SLOAD PUSH1 0xFF AND ISZERO JUMPDEST PUSH2 0x2161 JUMPI PUSH1 0x40 MLOAD PUSH3 0x461BCD PUSH1 0xE5 SHL DUP2 MSTORE PUSH1 0x4 ADD PUSH2 0x5F4 SWAP1 PUSH2 0x2B63 JUMP JUMPDEST PUSH1 0x0 SLOAD PUSH2 0x100 SWAP1 DIV PUSH1 0xFF AND ISZERO DUP1 ISZERO PUSH2 0x218C JUMPI PUSH1 0x0 DUP1 SLOAD PUSH1 0xFF NOT PUSH2 0xFF00 NOT SWAP1 SWAP2 AND PUSH2 0x100 OR AND PUSH1 0x1 OR SWAP1 SSTORE JUMPDEST PUSH2 0x1EFD PUSH2 0x2197 PUSH2 0x1521 JUMP JUMPDEST PUSH2 0x1E3B JUMP JUMPDEST PUSH1 0x60 PUSH2 0x21AB DUP5 DUP5 PUSH1 0x0 DUP6 PUSH2 0x21B3 JUMP JUMPDEST SWAP5 SWAP4 POP POP POP POP JUMP JUMPDEST PUSH1 0x60 DUP3 SELFBALANCE LT ISZERO PUSH2 0x21D5 JUMPI PUSH1 0x40 MLOAD PUSH3 0x461BCD PUSH1 0xE5 SHL DUP2 MSTORE PUSH1 0x4 ADD PUSH2 0x5F4 SWAP1 PUSH2 0x2B1D JUMP JUMPDEST PUSH2 0x21DE DUP6 PUSH2 0x2268 JUMP JUMPDEST PUSH2 0x21FA JUMPI PUSH1 0x40 MLOAD PUSH3 0x461BCD PUSH1 0xE5 SHL DUP2 MSTORE PUSH1 0x4 ADD PUSH2 0x5F4 SWAP1 PUSH2 0x2C53 JUMP JUMPDEST PUSH1 0x0 DUP1 DUP7 PUSH1 0x1 PUSH1 0x1 PUSH1 0xA0 SHL SUB AND DUP6 DUP8 PUSH1 0x40 MLOAD PUSH2 0x2216 SWAP2 SWAP1 PUSH2 0x2972 JUMP JUMPDEST PUSH1 0x0 PUSH1 0x40 MLOAD DUP1 DUP4 SUB DUP2 DUP6 DUP8 GAS CALL SWAP3 POP POP POP RETURNDATASIZE DUP1 PUSH1 0x0 DUP2 EQ PUSH2 0x2253 JUMPI PUSH1 0x40 MLOAD SWAP2 POP PUSH1 0x1F NOT PUSH1 0x3F RETURNDATASIZE ADD AND DUP3 ADD PUSH1 0x40 MSTORE RETURNDATASIZE DUP3 MSTORE RETURNDATASIZE PUSH1 0x0 PUSH1 0x20 DUP5 ADD RETURNDATACOPY PUSH2 0x2258 JUMP JUMPDEST PUSH1 0x60 SWAP2 POP JUMPDEST POP SWAP2 POP SWAP2 POP PUSH2 0x115F DUP3 DUP3 DUP7 PUSH2 0x226E JUMP JUMPDEST EXTCODESIZE ISZERO ISZERO SWAP1 JUMP JUMPDEST PUSH1 0x60 DUP4 ISZERO PUSH2 0x227D JUMPI POP DUP2 PUSH2 0x1531 JUMP JUMPDEST DUP3 MLOAD ISZERO PUSH2 0x228D JUMPI DUP3 MLOAD DUP1 DUP5 PUSH1 0x20 ADD REVERT JUMPDEST DUP2 PUSH1 0x40 MLOAD PUSH3 0x461BCD PUSH1 0xE5 SHL DUP2 MSTORE PUSH1 0x4 ADD PUSH2 0x5F4 SWAP2 SWAP1 PUSH2 0x2A2E JUMP JUMPDEST DUP3 DUP1 SLOAD PUSH2 0x22B3 SWAP1 PUSH2 0x2F03 JUMP JUMPDEST SWAP1 PUSH1 0x0 MSTORE PUSH1 0x20 PUSH1 0x0 KECCAK256 SWAP1 PUSH1 0x1F ADD PUSH1 0x20 SWAP1 DIV DUP2 ADD SWAP3 DUP3 PUSH2 0x22D5 JUMPI PUSH1 0x0 DUP6 SSTORE PUSH2 0x231B JUMP JUMPDEST DUP3 PUSH1 0x1F LT PUSH2 0x22EE JUMPI DUP1 MLOAD PUSH1 0xFF NOT AND DUP4 DUP1 ADD OR DUP6 SSTORE PUSH2 0x231B JUMP JUMPDEST DUP3 DUP1 ADD PUSH1 0x1 ADD DUP6 SSTORE DUP3 ISZERO PUSH2 0x231B JUMPI SWAP2 DUP3 ADD JUMPDEST DUP3 DUP2 GT ISZERO PUSH2 0x231B JUMPI DUP3 MLOAD DUP3 SSTORE SWAP2 PUSH1 0x20 ADD SWAP2 SWAP1 PUSH1 0x1 ADD SWAP1 PUSH2 0x2300 JUMP JUMPDEST POP PUSH2 0x2327 SWAP3 SWAP2 POP PUSH2 0x238E JUMP JUMPDEST POP SWAP1 JUMP JUMPDEST PUSH1 0x40 MLOAD DUP1 PUSH2 0x160 ADD PUSH1 0x40 MSTORE DUP1 PUSH1 0x0 PUSH1 0x1 PUSH1 0x1 PUSH1 0xA0 SHL SUB AND DUP2 MSTORE PUSH1 0x20 ADD PUSH1 0x0 DUP2 MSTORE PUSH1 0x20 ADD PUSH1 0x60 DUP2 MSTORE PUSH1 0x20 ADD PUSH1 0x0 DUP2 MSTORE PUSH1 0x20 ADD PUSH1 0x0 DUP2 MSTORE PUSH1 0x20 ADD PUSH1 0x0 DUP2 MSTORE PUSH1 0x20 ADD PUSH1 0x0 DUP2 MSTORE PUSH1 0x20 ADD PUSH1 0x0 DUP2 MSTORE PUSH1 0x20 ADD PUSH1 0x0 DUP2 MSTORE PUSH1 0x20 ADD PUSH1 0x0 DUP2 MSTORE PUSH1 0x20 ADD PUSH1 0x0 DUP2 MSTORE POP SWAP1 JUMP JUMPDEST JUMPDEST DUP1 DUP3 GT ISZERO PUSH2 0x2327 JUMPI PUSH1 0x0 DUP2 SSTORE PUSH1 0x1 ADD PUSH2 0x238F JUMP JUMPDEST DUP1 CALLDATALOAD PUSH2 0xCCA DUP2 PUSH2 0x2F85 JUMP JUMPDEST PUSH1 0x0 DUP3 PUSH1 0x1F DUP4 ADD SLT PUSH2 0x23BE JUMPI DUP1 DUP2 REVERT JUMPDEST DUP2 CALLDATALOAD PUSH1 0x20 PUSH2 0x23D3 PUSH2 0x23CE DUP4 PUSH2 0x2E45 JUMP JUMPDEST PUSH2 0x2E1B JUMP JUMPDEST DUP3 DUP2 MSTORE DUP2 DUP2 ADD SWAP1 DUP6 DUP4 ADD DUP6 JUMPDEST DUP6 DUP2 LT ISZERO PUSH2 0x2408 JUMPI PUSH2 0x23F6 DUP10 DUP7 DUP5 CALLDATALOAD DUP12 ADD ADD PUSH2 0x246F JUMP JUMPDEST DUP5 MSTORE SWAP3 DUP5 ADD SWAP3 SWAP1 DUP5 ADD SWAP1 PUSH1 0x1 ADD PUSH2 0x23DF JUMP JUMPDEST POP SWAP1 SWAP8 SWAP7 POP POP POP POP POP POP POP JUMP JUMPDEST PUSH1 0x0 DUP3 PUSH1 0x1F DUP4 ADD SLT PUSH2 0x2425 JUMPI DUP1 DUP2 REVERT JUMPDEST DUP2 CALLDATALOAD PUSH1 0x20 PUSH2 0x2435 PUSH2 0x23CE DUP4 PUSH2 0x2E45 JUMP JUMPDEST DUP3 DUP2 MSTORE DUP2 DUP2 ADD SWAP1 DUP6 DUP4 ADD DUP4 DUP6 MUL DUP8 ADD DUP5 ADD DUP9 LT ISZERO PUSH2 0x2451 JUMPI DUP6 DUP7 REVERT JUMPDEST DUP6 JUMPDEST DUP6 DUP2 LT ISZERO PUSH2 0x2408 JUMPI DUP2 CALLDATALOAD DUP5 MSTORE SWAP3 DUP5 ADD SWAP3 SWAP1 DUP5 ADD SWAP1 PUSH1 0x1 ADD PUSH2 0x2453 JUMP JUMPDEST PUSH1 0x0 DUP3 PUSH1 0x1F DUP4 ADD SLT PUSH2 0x247F JUMPI DUP1 DUP2 REVERT JUMPDEST DUP2 CALLDATALOAD PUSH8 0xFFFFFFFFFFFFFFFF DUP2 GT ISZERO PUSH2 0x2499 JUMPI PUSH2 0x2499 PUSH2 0x2F6F JUMP JUMPDEST PUSH2 0x24AC PUSH1 0x1F DUP3 ADD PUSH1 0x1F NOT AND PUSH1 0x20 ADD PUSH2 0x2E1B JUMP JUMPDEST DUP2 DUP2 MSTORE DUP5 PUSH1 0x20 DUP4 DUP7 ADD ADD GT ISZERO PUSH2 0x24C0 JUMPI DUP3 DUP4 REVERT JUMPDEST DUP2 PUSH1 0x20 DUP6 ADD PUSH1 0x20 DUP4 ADD CALLDATACOPY SWAP1 DUP2 ADD PUSH1 0x20 ADD SWAP2 SWAP1 SWAP2 MSTORE SWAP3 SWAP2 POP POP JUMP JUMPDEST PUSH1 0x0 PUSH1 0x20 DUP3 DUP5 SUB SLT ISZERO PUSH2 0x24EB JUMPI DUP1 DUP2 REVERT JUMPDEST DUP2 CALLDATALOAD PUSH2 0x1531 DUP2 PUSH2 0x2F85 JUMP JUMPDEST PUSH1 0x0 DUP1 PUSH1 0x40 DUP4 DUP6 SUB SLT ISZERO PUSH2 0x2508 JUMPI DUP1 DUP2 REVERT JUMPDEST DUP3 CALLDATALOAD PUSH2 0x2513 DUP2 PUSH2 0x2F85 JUMP JUMPDEST SWAP2 POP PUSH1 0x20 DUP4 ADD CALLDATALOAD PUSH2 0x2523 DUP2 PUSH2 0x2F9A JUMP JUMPDEST DUP1 SWAP2 POP POP SWAP3 POP SWAP3 SWAP1 POP JUMP JUMPDEST PUSH1 0x0 DUP1 PUSH1 0x0 DUP1 PUSH1 0x80 DUP6 DUP8 SUB SLT ISZERO PUSH2 0x2543 JUMPI DUP2 DUP3 REVERT JUMPDEST DUP5 CALLDATALOAD PUSH2 0x254E DUP2 PUSH2 0x2F85 JUMP JUMPDEST SWAP4 POP PUSH1 0x20 DUP6 ADD CALLDATALOAD PUSH2 0x255E DUP2 PUSH2 0x2F85 JUMP JUMPDEST SWAP3 POP PUSH1 0x40 DUP6 ADD CALLDATALOAD PUSH2 0x256E DUP2 PUSH2 0x2F85 JUMP JUMPDEST SWAP2 POP PUSH1 0x60 DUP6 ADD CALLDATALOAD PUSH2 0x257E DUP2 PUSH2 0x2F85 JUMP JUMPDEST SWAP4 SWAP7 SWAP3 SWAP6 POP SWAP1 SWAP4 POP POP JUMP JUMPDEST PUSH1 0x0 DUP1 PUSH1 0x40 DUP4 DUP6 SUB SLT ISZERO PUSH2 0x259B JUMPI DUP2 DUP3 REVERT JUMPDEST DUP3 CALLDATALOAD PUSH2 0x25A6 DUP2 PUSH2 0x2F85 JUMP JUMPDEST SWAP5 PUSH1 0x20 SWAP4 SWAP1 SWAP4 ADD CALLDATALOAD SWAP4 POP POP POP JUMP JUMPDEST PUSH1 0x0 DUP1 PUSH1 0x0 DUP1 PUSH1 0x80 DUP6 DUP8 SUB SLT ISZERO PUSH2 0x25C9 JUMPI DUP4 DUP5 REVERT JUMPDEST DUP5 CALLDATALOAD PUSH2 0x25D4 DUP2 PUSH2 0x2F85 JUMP JUMPDEST SWAP7 PUSH1 0x20 DUP7 ADD CALLDATALOAD SWAP7 POP PUSH1 0x40 DUP7 ADD CALLDATALOAD SWAP6 PUSH1 0x60 ADD CALLDATALOAD SWAP5 POP SWAP3 POP POP POP JUMP JUMPDEST PUSH1 0x0 DUP1 PUSH1 0x0 DUP1 PUSH1 0x0 PUSH1 0xA0 DUP7 DUP9 SUB SLT ISZERO PUSH2 0x2605 JUMPI DUP3 DUP4 REVERT JUMPDEST DUP6 CALLDATALOAD PUSH8 0xFFFFFFFFFFFFFFFF DUP1 DUP3 GT ISZERO PUSH2 0x261C JUMPI DUP5 DUP6 REVERT JUMPDEST PUSH2 0x2628 DUP10 DUP4 DUP11 ADD PUSH2 0x2415 JUMP JUMPDEST SWAP7 POP PUSH1 0x20 DUP9 ADD CALLDATALOAD SWAP2 POP DUP1 DUP3 GT ISZERO PUSH2 0x263D JUMPI DUP5 DUP6 REVERT JUMPDEST PUSH2 0x2649 DUP10 DUP4 DUP11 ADD PUSH2 0x2415 JUMP JUMPDEST SWAP6 POP PUSH1 0x40 DUP9 ADD CALLDATALOAD SWAP2 POP DUP1 DUP3 GT ISZERO PUSH2 0x265E JUMPI DUP5 DUP6 REVERT JUMPDEST PUSH2 0x266A DUP10 DUP4 DUP11 ADD PUSH2 0x23AE JUMP JUMPDEST SWAP5 POP PUSH1 0x60 DUP9 ADD CALLDATALOAD SWAP2 POP DUP1 DUP3 GT ISZERO PUSH2 0x267F JUMPI DUP3 DUP4 REVERT JUMPDEST PUSH2 0x268B DUP10 DUP4 DUP11 ADD PUSH2 0x2415 JUMP JUMPDEST SWAP4 POP PUSH1 0x80 DUP9 ADD CALLDATALOAD SWAP2 POP DUP1 DUP3 GT ISZERO PUSH2 0x26A0 JUMPI DUP3 DUP4 REVERT JUMPDEST POP PUSH2 0x26AD DUP9 DUP3 DUP10 ADD PUSH2 0x23AE JUMP JUMPDEST SWAP2 POP POP SWAP3 SWAP6 POP SWAP3 SWAP6 SWAP1 SWAP4 POP JUMP JUMPDEST PUSH1 0x0 PUSH1 0x20 DUP3 DUP5 SUB SLT ISZERO PUSH2 0x26CB JUMPI DUP1 DUP2 REVERT JUMPDEST DUP2 MLOAD PUSH2 0x1531 DUP2 PUSH2 0x2F9A JUMP JUMPDEST PUSH1 0x0 PUSH1 0x20 DUP3 DUP5 SUB SLT ISZERO PUSH2 0x26E7 JUMPI DUP1 DUP2 REVERT JUMPDEST POP CALLDATALOAD SWAP2 SWAP1 POP JUMP JUMPDEST PUSH1 0x0 PUSH1 0x20 DUP3 DUP5 SUB SLT ISZERO PUSH2 0x26FF JUMPI DUP1 DUP2 REVERT JUMPDEST POP MLOAD SWAP2 SWAP1 POP JUMP JUMPDEST PUSH1 0x0 DUP1 PUSH1 0x0 DUP1 PUSH1 0x0 DUP1 PUSH1 0x0 DUP1 PUSH1 0x0 DUP1 PUSH1 0x0 DUP1 PUSH2 0x180 DUP14 DUP16 SUB SLT ISZERO PUSH2 0x2728 JUMPI DUP10 DUP11 REVERT JUMPDEST DUP13 CALLDATALOAD SWAP12 POP PUSH2 0x2738 PUSH1 0x20 DUP15 ADD PUSH2 0x23A3 JUMP JUMPDEST SWAP11 POP PUSH1 0x40 DUP14 ADD CALLDATALOAD SWAP10 POP PUSH8 0xFFFFFFFFFFFFFFFF PUSH1 0x60 DUP15 ADD CALLDATALOAD GT ISZERO PUSH2 0x2759 JUMPI DUP7 DUP8 REVERT JUMPDEST PUSH2 0x2769 DUP15 PUSH1 0x60 DUP16 ADD CALLDATALOAD DUP16 ADD PUSH2 0x246F JUMP JUMPDEST SWAP12 SWAP15 SWAP11 SWAP14 POP SWAP9 SWAP12 PUSH1 0x80 DUP2 ADD CALLDATALOAD SWAP11 PUSH1 0xA0 DUP3 ADD CALLDATALOAD SWAP11 POP PUSH1 0xC0 DUP3 ADD CALLDATALOAD SWAP10 POP PUSH1 0xE0 DUP3 ADD CALLDATALOAD SWAP9 POP PUSH2 0x100 DUP3 ADD CALLDATALOAD SWAP8 POP PUSH2 0x120 DUP3 ADD CALLDATALOAD SWAP7 POP PUSH2 0x140 DUP3 ADD CALLDATALOAD SWAP6 POP PUSH2 0x160 SWAP1 SWAP2 ADD CALLDATALOAD SWAP4 POP SWAP2 POP POP JUMP JUMPDEST PUSH1 0x0 DUP1 PUSH1 0x0 DUP1 PUSH1 0x0 PUSH1 0xA0 DUP7 DUP9 SUB SLT ISZERO PUSH2 0x27C8 JUMPI DUP3 DUP4 REVERT JUMPDEST DUP6 CALLDATALOAD SWAP5 POP PUSH1 0x20 DUP7 ADD CALLDATALOAD SWAP4 POP PUSH1 0x40 DUP7 ADD CALLDATALOAD PUSH8 0xFFFFFFFFFFFFFFFF DUP1 DUP3 GT ISZERO PUSH2 0x27ED JUMPI DUP5 DUP6 REVERT JUMPDEST PUSH2 0x27F9 DUP10 DUP4 DUP11 ADD PUSH2 0x246F JUMP JUMPDEST SWAP5 POP PUSH1 0x60 DUP9 ADD CALLDATALOAD SWAP4 POP PUSH1 0x80 DUP9 ADD CALLDATALOAD SWAP2 POP DUP1 DUP3 GT ISZERO PUSH2 0x2815 JUMPI DUP3 DUP4 REVERT JUMPDEST POP PUSH2 0x26AD DUP9 DUP3 DUP10 ADD PUSH2 0x246F JUMP JUMPDEST PUSH1 0x0 DUP1 PUSH1 0x0 DUP1 PUSH1 0x0 DUP1 PUSH1 0xC0 DUP8 DUP10 SUB SLT ISZERO PUSH2 0x283A JUMPI DUP4 DUP5 REVERT JUMPDEST DUP7 CALLDATALOAD SWAP6 POP PUSH1 0x20 DUP8 ADD CALLDATALOAD SWAP5 POP PUSH1 0x40 DUP8 ADD CALLDATALOAD PUSH8 0xFFFFFFFFFFFFFFFF DUP1 DUP3 GT ISZERO PUSH2 0x285F JUMPI DUP6 DUP7 REVERT JUMPDEST PUSH2 0x286B DUP11 DUP4 DUP12 ADD PUSH2 0x246F JUMP JUMPDEST SWAP6 POP PUSH1 0x60 DUP10 ADD CALLDATALOAD SWAP5 POP PUSH1 0x80 DUP10 ADD CALLDATALOAD SWAP2 POP DUP1 DUP3 GT ISZERO PUSH2 0x2887 JUMPI DUP4 DUP5 REVERT JUMPDEST POP PUSH2 0x2894 DUP10 DUP3 DUP11 ADD PUSH2 0x246F JUMP JUMPDEST SWAP3 POP POP PUSH1 0xA0 DUP8 ADD CALLDATALOAD SWAP1 POP SWAP3 SWAP6 POP SWAP3 SWAP6 POP SWAP3 SWAP6 JUMP JUMPDEST PUSH1 0x0 DUP1 PUSH1 0x0 DUP1 PUSH1 0x0 DUP1 PUSH1 0x0 PUSH1 0xE0 DUP9 DUP11 SUB SLT ISZERO PUSH2 0x28C2 JUMPI DUP1 DUP2 REVERT JUMPDEST DUP8 CALLDATALOAD SWAP7 POP PUSH1 0x20 DUP9 ADD CALLDATALOAD SWAP6 POP PUSH1 0x40 DUP9 ADD CALLDATALOAD SWAP5 POP PUSH1 0x60 DUP9 ADD CALLDATALOAD PUSH8 0xFFFFFFFFFFFFFFFF DUP1 DUP3 GT ISZERO PUSH2 0x28EE JUMPI DUP3 DUP4 REVERT JUMPDEST PUSH2 0x28FA DUP12 DUP4 DUP13 ADD PUSH2 0x246F JUMP JUMPDEST SWAP6 POP PUSH1 0x80 DUP11 ADD CALLDATALOAD SWAP5 POP PUSH1 0xA0 DUP11 ADD CALLDATALOAD SWAP4 POP PUSH1 0xC0 DUP11 ADD CALLDATALOAD SWAP2 POP DUP1 DUP3 GT ISZERO PUSH2 0x291D JUMPI DUP3 DUP4 REVERT JUMPDEST POP PUSH2 0x292A DUP11 DUP3 DUP12 ADD PUSH2 0x246F JUMP JUMPDEST SWAP2 POP POP SWAP3 SWAP6 SWAP9 SWAP2 SWAP5 SWAP8 POP SWAP3 SWAP6 POP JUMP JUMPDEST PUSH1 0x1 PUSH1 0x1 PUSH1 0xA0 SHL SUB AND SWAP1 MSTORE JUMP JUMPDEST PUSH1 0x0 DUP2 MLOAD DUP1 DUP5 MSTORE PUSH2 0x295E DUP2 PUSH1 0x20 DUP7 ADD PUSH1 0x20 DUP7 ADD PUSH2 0x2ED7 JUMP JUMPDEST PUSH1 0x1F ADD PUSH1 0x1F NOT AND SWAP3 SWAP1 SWAP3 ADD PUSH1 0x20 ADD SWAP3 SWAP2 POP POP JUMP JUMPDEST PUSH1 0x0 DUP3 MLOAD PUSH2 0x2984 DUP2 DUP5 PUSH1 0x20 DUP8 ADD PUSH2 0x2ED7 JUMP JUMPDEST SWAP2 SWAP1 SWAP2 ADD SWAP3 SWAP2 POP POP JUMP JUMPDEST PUSH1 0x1 PUSH1 0x1 PUSH1 0xA0 SHL SUB SWAP2 SWAP1 SWAP2 AND DUP2 MSTORE PUSH1 0x20 ADD SWAP1 JUMP JUMPDEST PUSH1 0x1 PUSH1 0x1 PUSH1 0xA0 SHL SUB SWAP4 DUP5 AND DUP2 MSTORE SWAP2 SWAP1 SWAP3 AND PUSH1 0x20 DUP3 ADD MSTORE PUSH1 0x40 DUP2 ADD SWAP2 SWAP1 SWAP2 MSTORE PUSH1 0x60 ADD SWAP1 JUMP JUMPDEST PUSH1 0x1 PUSH1 0x1 PUSH1 0xA0 SHL SUB SWAP3 SWAP1 SWAP3 AND DUP3 MSTORE PUSH1 0x20 DUP3 ADD MSTORE PUSH1 0x40 ADD SWAP1 JUMP JUMPDEST PUSH1 0x20 DUP1 DUP3 MSTORE DUP3 MLOAD DUP3 DUP3 ADD DUP2 SWAP1 MSTORE PUSH1 0x0 SWAP2 SWAP1 DUP5 DUP3 ADD SWAP1 PUSH1 0x40 DUP6 ADD SWAP1 DUP5 JUMPDEST DUP2 DUP2 LT ISZERO PUSH2 0x2A17 JUMPI DUP4 MLOAD DUP4 MSTORE SWAP3 DUP5 ADD SWAP3 SWAP2 DUP5 ADD SWAP2 PUSH1 0x1 ADD PUSH2 0x29FB JUMP JUMPDEST POP SWAP1 SWAP7 SWAP6 POP POP POP POP POP POP JUMP JUMPDEST SWAP1 ISZERO ISZERO DUP2 MSTORE PUSH1 0x20 ADD SWAP1 JUMP JUMPDEST PUSH1 0x0 PUSH1 0x20 DUP3 MSTORE PUSH2 0x1531 PUSH1 0x20 DUP4 ADD DUP5 PUSH2 0x2946 JUMP JUMPDEST PUSH1 0x20 DUP1 DUP3 MSTORE PUSH1 0x14 SWAP1 DUP3 ADD MSTORE PUSH20 0x1BDC99195C88191BD95CC81B9BDD08195E1A5CDD PUSH1 0x62 SHL PUSH1 0x40 DUP3 ADD MSTORE PUSH1 0x60 ADD SWAP1 JUMP JUMPDEST PUSH1 0x20 DUP1 DUP3 MSTORE PUSH1 0x26 SWAP1 DUP3 ADD MSTORE PUSH32 0x4F776E61626C653A206E6577206F776E657220697320746865207A65726F2061 PUSH1 0x40 DUP3 ADD MSTORE PUSH6 0x646472657373 PUSH1 0xD0 SHL PUSH1 0x60 DUP3 ADD MSTORE PUSH1 0x80 ADD SWAP1 JUMP JUMPDEST PUSH1 0x20 DUP1 DUP3 MSTORE PUSH1 0xA SWAP1 DUP3 ADD MSTORE PUSH10 0x37B930B1B6329032B939 PUSH1 0xB1 SHL PUSH1 0x40 DUP3 ADD MSTORE PUSH1 0x60 ADD SWAP1 JUMP JUMPDEST PUSH1 0x20 DUP1 DUP3 MSTORE PUSH1 0x24 SWAP1 DUP3 ADD MSTORE PUSH32 0x6578656375746F723A2063616C6C6572206973206E6F74207468652065786563 PUSH1 0x40 DUP3 ADD MSTORE PUSH4 0x3ABA37B9 PUSH1 0xE1 SHL PUSH1 0x60 DUP3 ADD MSTORE PUSH1 0x80 ADD SWAP1 JUMP JUMPDEST PUSH1 0x20 DUP1 DUP3 MSTORE PUSH1 0x26 SWAP1 DUP3 ADD MSTORE PUSH32 0x416464726573733A20696E73756666696369656E742062616C616E636520666F PUSH1 0x40 DUP3 ADD MSTORE PUSH6 0x1C8818D85B1B PUSH1 0xD2 SHL PUSH1 0x60 DUP3 ADD MSTORE PUSH1 0x80 ADD SWAP1 JUMP JUMPDEST PUSH1 0x20 DUP1 DUP3 MSTORE PUSH1 0x2E SWAP1 DUP3 ADD MSTORE PUSH32 0x496E697469616C697A61626C653A20636F6E747261637420697320616C726561 PUSH1 0x40 DUP3 ADD MSTORE PUSH14 0x191E481A5B9A5D1A585B1A5E9959 PUSH1 0x92 SHL PUSH1 0x60 DUP3 ADD MSTORE PUSH1 0x80 ADD SWAP1 JUMP JUMPDEST PUSH1 0x20 DUP1 DUP3 MSTORE PUSH1 0x23 SWAP1 DUP3 ADD MSTORE PUSH32 0x546865207472616E73616374696F6E20616D6F756E7420697320746F6F20736D PUSH1 0x40 DUP3 ADD MSTORE PUSH3 0x185B1B PUSH1 0xEA SHL PUSH1 0x60 DUP3 ADD MSTORE PUSH1 0x80 ADD SWAP1 JUMP JUMPDEST PUSH1 0x20 DUP1 DUP3 MSTORE PUSH1 0x10 SWAP1 DUP3 ADD MSTORE PUSH16 0x155CD95C881A5CC818985B9ADC9D5C1D PUSH1 0x82 SHL PUSH1 0x40 DUP3 ADD MSTORE PUSH1 0x60 ADD SWAP1 JUMP JUMPDEST PUSH1 0x20 DUP1 DUP3 MSTORE DUP2 DUP2 ADD MSTORE PUSH32 0x4F776E61626C653A2063616C6C6572206973206E6F7420746865206F776E6572 PUSH1 0x40 DUP3 ADD MSTORE PUSH1 0x60 ADD SWAP1 JUMP JUMPDEST PUSH1 0x20 DUP1 DUP3 MSTORE PUSH1 0x1D SWAP1 DUP3 ADD MSTORE PUSH32 0x416464726573733A2063616C6C20746F206E6F6E2D636F6E7472616374000000 PUSH1 0x40 DUP3 ADD MSTORE PUSH1 0x60 ADD SWAP1 JUMP JUMPDEST PUSH1 0x20 DUP1 DUP3 MSTORE PUSH1 0xA SWAP1 DUP3 ADD MSTORE PUSH10 0x3632B733BA341032B939 PUSH1 0xB1 SHL PUSH1 0x40 DUP3 ADD MSTORE PUSH1 0x60 ADD SWAP1 JUMP JUMPDEST PUSH1 0x20 DUP1 DUP3 MSTORE PUSH1 0x8 SWAP1 DUP3 ADD MSTORE PUSH8 0x3AB9B2B91032B939 PUSH1 0xC1 SHL PUSH1 0x40 DUP3 ADD MSTORE PUSH1 0x60 ADD SWAP1 JUMP JUMPDEST PUSH1 0x20 DUP1 DUP3 MSTORE PUSH1 0x9 SWAP1 DUP3 ADD MSTORE PUSH9 0x39BA30BA329032B939 PUSH1 0xB9 SHL PUSH1 0x40 DUP3 ADD MSTORE PUSH1 0x60 ADD SWAP1 JUMP JUMPDEST PUSH1 0x20 DUP1 DUP3 MSTORE PUSH1 0x2A SWAP1 DUP3 ADD MSTORE PUSH32 0x5361666545524332303A204552433230206F7065726174696F6E20646964206E PUSH1 0x40 DUP3 ADD MSTORE PUSH10 0x1BDD081CDD58D8D95959 PUSH1 0xB2 SHL PUSH1 0x60 DUP3 ADD MSTORE PUSH1 0x80 ADD SWAP1 JUMP JUMPDEST PUSH1 0x0 PUSH1 0x20 DUP3 MSTORE PUSH2 0x2D51 PUSH1 0x20 DUP4 ADD DUP5 MLOAD PUSH2 0x2939 JUMP JUMPDEST PUSH1 0x20 DUP4 ADD MLOAD PUSH1 0x40 DUP4 ADD MSTORE PUSH1 0x40 DUP4 ADD MLOAD PUSH2 0x160 DUP1 PUSH1 0x60 DUP6 ADD MSTORE PUSH2 0x2D77 PUSH2 0x180 DUP6 ADD DUP4 PUSH2 0x2946 JUMP JUMPDEST SWAP2 POP PUSH1 0x60 DUP6 ADD MLOAD PUSH1 0x80 DUP6 ADD MSTORE PUSH1 0x80 DUP6 ADD MLOAD PUSH1 0xA0 DUP6 ADD MSTORE PUSH1 0xA0 DUP6 ADD MLOAD PUSH1 0xC0 DUP6 ADD MSTORE PUSH1 0xC0 DUP6 ADD MLOAD PUSH1 0xE0 DUP6 ADD MSTORE PUSH1 0xE0 DUP6 ADD MLOAD PUSH2 0x100 DUP2 DUP2 DUP8 ADD MSTORE DUP1 DUP8 ADD MLOAD SWAP2 POP POP PUSH2 0x120 DUP2 DUP2 DUP8 ADD MSTORE DUP1 DUP8 ADD MLOAD SWAP2 POP POP PUSH2 0x140 DUP2 DUP2 DUP8 ADD MSTORE DUP1 DUP8 ADD MLOAD DUP4 DUP8 ADD MSTORE POP POP POP DUP1 SWAP2 POP POP SWAP3 SWAP2 POP POP JUMP JUMPDEST SWAP1 DUP2 MSTORE PUSH1 0x20 ADD SWAP1 JUMP JUMPDEST PUSH1 0x0 DUP6 DUP3 MSTORE DUP5 PUSH1 0x20 DUP4 ADD MSTORE PUSH1 0x80 PUSH1 0x40 DUP4 ADD MSTORE PUSH2 0x2E09 PUSH1 0x80 DUP4 ADD DUP6 PUSH2 0x2946 JUMP JUMPDEST DUP3 DUP2 SUB PUSH1 0x60 DUP5 ADD MSTORE PUSH2 0x115F DUP2 DUP6 PUSH2 0x2946 JUMP JUMPDEST PUSH1 0x40 MLOAD DUP2 DUP2 ADD PUSH8 0xFFFFFFFFFFFFFFFF DUP2 GT DUP3 DUP3 LT OR ISZERO PUSH2 0x2E3D JUMPI PUSH2 0x2E3D PUSH2 0x2F6F JUMP JUMPDEST PUSH1 0x40 MSTORE SWAP2 SWAP1 POP JUMP JUMPDEST PUSH1 0x0 PUSH8 0xFFFFFFFFFFFFFFFF DUP3 GT ISZERO PUSH2 0x2E5F JUMPI PUSH2 0x2E5F PUSH2 0x2F6F JUMP JUMPDEST POP PUSH1 0x20 SWAP1 DUP2 MUL ADD SWAP1 JUMP JUMPDEST PUSH1 0x0 DUP3 NOT DUP3 GT ISZERO PUSH2 0x2E7C JUMPI PUSH2 0x2E7C PUSH2 0x2F59 JUMP JUMPDEST POP ADD SWAP1 JUMP JUMPDEST PUSH1 0x0 DUP3 PUSH2 0x2E9C JUMPI PUSH4 0x4E487B71 PUSH1 0xE0 SHL DUP2 MSTORE PUSH1 0x12 PUSH1 0x4 MSTORE PUSH1 0x24 DUP2 REVERT JUMPDEST POP DIV SWAP1 JUMP JUMPDEST PUSH1 0x0 DUP2 PUSH1 0x0 NOT DIV DUP4 GT DUP3 ISZERO ISZERO AND ISZERO PUSH2 0x2EBB JUMPI PUSH2 0x2EBB PUSH2 0x2F59 JUMP JUMPDEST POP MUL SWAP1 JUMP JUMPDEST PUSH1 0x0 DUP3 DUP3 LT ISZERO PUSH2 0x2ED2 JUMPI PUSH2 0x2ED2 PUSH2 0x2F59 JUMP JUMPDEST POP SUB SWAP1 JUMP JUMPDEST PUSH1 0x0 JUMPDEST DUP4 DUP2 LT ISZERO PUSH2 0x2EF2 JUMPI DUP2 DUP2 ADD MLOAD DUP4 DUP3 ADD MSTORE PUSH1 0x20 ADD PUSH2 0x2EDA JUMP JUMPDEST DUP4 DUP2 GT ISZERO PUSH2 0x1590 JUMPI POP POP PUSH1 0x0 SWAP2 ADD MSTORE JUMP JUMPDEST PUSH1 0x2 DUP2 DIV PUSH1 0x1 DUP3 AND DUP1 PUSH2 0x2F17 JUMPI PUSH1 0x7F DUP3 AND SWAP2 POP JUMPDEST PUSH1 0x20 DUP3 LT DUP2 EQ ISZERO PUSH2 0x2F38 JUMPI PUSH4 0x4E487B71 PUSH1 0xE0 SHL PUSH1 0x0 MSTORE PUSH1 0x22 PUSH1 0x4 MSTORE PUSH1 0x24 PUSH1 0x0 REVERT JUMPDEST POP SWAP2 SWAP1 POP JUMP JUMPDEST PUSH1 0x0 PUSH1 0x0 NOT DUP3 EQ ISZERO PUSH2 0x2F52 JUMPI PUSH2 0x2F52 PUSH2 0x2F59 JUMP JUMPDEST POP PUSH1 0x1 ADD SWAP1 JUMP JUMPDEST PUSH4 0x4E487B71 PUSH1 0xE0 SHL PUSH1 0x0 MSTORE PUSH1 0x11 PUSH1 0x4 MSTORE PUSH1 0x24 PUSH1 0x0 REVERT JUMPDEST PUSH4 0x4E487B71 PUSH1 0xE0 SHL PUSH1 0x0 MSTORE PUSH1 0x41 PUSH1 0x4 MSTORE PUSH1 0x24 PUSH1 0x0 REVERT JUMPDEST PUSH1 0x1 PUSH1 0x1 PUSH1 0xA0 SHL SUB DUP2 AND DUP2 EQ PUSH2 0x12D1 JUMPI PUSH1 0x0 DUP1 REVERT JUMPDEST DUP1 ISZERO ISZERO DUP2 EQ PUSH2 0x12D1 JUMPI PUSH1 0x0 DUP1 REVERT INVALID LOG2 PUSH5 0x6970667358 0x22 SLT KECCAK256 0xD9 0x26 0xB6 0xE1 REVERT 0x5C 0xA6 0xE0 0xBF 0xF7 EXP 0xB1 XOR 0x29 0xEF 0x25 0xE9 0xC0 0xD3 0xEB 0xAC PUSH13 0x954F7FF2D7880B0F94C64736F PUSH13 0x63430008000033000000000000 "
				},
				"gasEstimates": {
					"creation": {
						"codeDepositCost": "2450800",
						"executionCost": "2635",
						"totalCost": "2453435"
					},
					"external": {
						"OrderIndex()": "1094",
						"PRECISION()": "1095",
						"adjustPosition(uint256,uint256,string,uint256,bytes,uint256)": "infinite",
						"closePosition(uint256,uint256,string,uint256,bytes)": "infinite",
						"executor(address)": "1304",
						"feePercent()": "1074",
						"forcedLiquidation(uint256,uint256,string,uint256,bytes)": "infinite",
						"helperLogic()": "1183",
						"initialize(address,address,address,address)": "infinite",
						"liquidation(uint256[],uint256[],string[],uint256[],bytes[])": "infinite",
						"minVal()": "1139",
						"myCloseOrderIdList(address,uint256)": "2226",
						"myCloseOrderIdListLength(address)": "1353",
						"myCloseOrderIdList_index(address,uint256)": "1428",
						"myOpenOrderIdList(address,uint256)": "2270",
						"myOpenOrderIdListLength(address)": "1309",
						"myOpenOrderIdList_index(address,uint256)": "1406",
						"openOrderIdList(uint256)": "2065",
						"openOrderIdList_index(uint256)": "1261",
						"openPosition(uint256,uint256,uint256,string,uint256,uint256,bytes)": "infinite",
						"oracle()": "1181",
						"orderInfo(uint256)": "infinite",
						"owner()": "1138",
						"pagination(address,uint256,uint256,uint256)": "infinite",
						"renounceOwnership()": "23552",
						"setExecutor(address,bool)": "infinite",
						"setFeePercent(uint256)": "21338",
						"setOrderInfo(uint256,address,uint256,string,uint256,uint256,uint256,uint256,uint256,uint256,uint256,uint256)": "infinite",
						"setSigner(address)": "22276",
						"signer()": "1116",
						"transferOwnership(address)": "infinite",
						"usc()": "1138"
					},
					"internal": {
						"_closePosition(struct mirrorseaMain.OrderInfo storage pointer,uint256,uint256,uint256,string memory,uint256,bytes memory)": "infinite",
						"_isSolvent(uint256,uint256,uint256)": "infinite",
						"cutListItem(uint256,mapping(uint256 => uint256),uint256[] storage pointer)": "77174"
					}
				},
				"methodIdentifiers": {
					"OrderIndex()": "f7ab69fd",
					"PRECISION()": "aaf5eb68",
					"adjustPosition(uint256,uint256,string,uint256,bytes,uint256)": "99315ccf",
					"closePosition(uint256,uint256,string,uint256,bytes)": "a17397db",
					"executor(address)": "48c7e528",
					"feePercent()": "7fd6f15c",
					"forcedLiquidation(uint256,uint256,string,uint256,bytes)": "a80c3cd3",
					"helperLogic()": "1e64610c",
					"initialize(address,address,address,address)": "f8c8765e",
					"liquidation(uint256[],uint256[],string[],uint256[],bytes[])": "6dbe9624",
					"minVal()": "f14053ad",
					"myCloseOrderIdList(address,uint256)": "ec4c4f34",
					"myCloseOrderIdListLength(address)": "aecf77b1",
					"myCloseOrderIdList_index(address,uint256)": "f0c765e4",
					"myOpenOrderIdList(address,uint256)": "c2ec527d",
					"myOpenOrderIdListLength(address)": "e4e95520",
					"myOpenOrderIdList_index(address,uint256)": "7be3a1a1",
					"openOrderIdList(uint256)": "0f58d242",
					"openOrderIdList_index(uint256)": "43b1f3cb",
					"openPosition(uint256,uint256,uint256,string,uint256,uint256,bytes)": "475b4fd3",
					"oracle()": "7dc0d1d0",
					"orderInfo(uint256)": "6ab34a4a",
					"owner()": "8da5cb5b",
					"pagination(address,uint256,uint256,uint256)": "080270a8",
					"renounceOwnership()": "715018a6",
					"setExecutor(address,bool)": "1e1bff3f",
					"setFeePercent(uint256)": "7ce3489b",
					"setOrderInfo(uint256,address,uint256,string,uint256,uint256,uint256,uint256,uint256,uint256,uint256,uint256)": "fc234d06",
					"setSigner(address)": "6c19e783",
					"signer()": "238ac933",
					"transferOwnership(address)": "f2fde38b",
					"usc()": "3011d3d5"
				}
			},
			"storageLayout": {
				"storage": [
					{
						"astId": 130,
						"contract": "contracts/mirrorseaMain.sol:mirrorseaMain",
						"label": "_initialized",
						"offset": 0,
						"slot": "0",
						"type": "t_bool"
					},
					{
						"astId": 133,
						"contract": "contracts/mirrorseaMain.sol:mirrorseaMain",
						"label": "_initializing",
						"offset": 1,
						"slot": "0",
						"type": "t_bool"
					},
					{
						"astId": 760,
						"contract": "contracts/mirrorseaMain.sol:mirrorseaMain",
						"label": "__gap",
						"offset": 0,
						"slot": "1",
						"type": "t_array(t_uint256)50_storage"
					},
					{
						"astId": 10,
						"contract": "contracts/mirrorseaMain.sol:mirrorseaMain",
						"label": "_owner",
						"offset": 0,
						"slot": "51",
						"type": "t_address"
					},
					{
						"astId": 124,
						"contract": "contracts/mirrorseaMain.sol:mirrorseaMain",
						"label": "__gap",
						"offset": 0,
						"slot": "52",
						"type": "t_array(t_uint256)49_storage"
					},
					{
						"astId": 1130,
						"contract": "contracts/mirrorseaMain.sol:mirrorseaMain",
						"label": "executor",
						"offset": 0,
						"slot": "101",
						"type": "t_mapping(t_address,t_bool)"
					},
					{
						"astId": 1132,
						"contract": "contracts/mirrorseaMain.sol:mirrorseaMain",
						"label": "signer",
						"offset": 0,
						"slot": "102",
						"type": "t_address"
					},
					{
						"astId": 1135,
						"contract": "contracts/mirrorseaMain.sol:mirrorseaMain",
						"label": "usc",
						"offset": 0,
						"slot": "103",
						"type": "t_contract(IERC20Upgradeable)248"
					},
					{
						"astId": 1138,
						"contract": "contracts/mirrorseaMain.sol:mirrorseaMain",
						"label": "helperLogic",
						"offset": 0,
						"slot": "104",
						"type": "t_contract(IhelperLogic)1086"
					},
					{
						"astId": 1141,
						"contract": "contracts/mirrorseaMain.sol:mirrorseaMain",
						"label": "oracle",
						"offset": 0,
						"slot": "105",
						"type": "t_contract(IOracle)1100"
					},
					{
						"astId": 1146,
						"contract": "contracts/mirrorseaMain.sol:mirrorseaMain",
						"label": "_orderInfo",
						"offset": 0,
						"slot": "106",
						"type": "t_mapping(t_uint256,t_struct(OrderInfo)1206_storage)"
					},
					{
						"astId": 1148,
						"contract": "contracts/mirrorseaMain.sol:mirrorseaMain",
						"label": "OrderIndex",
						"offset": 0,
						"slot": "107",
						"type": "t_uint256"
					},
					{
						"astId": 1151,
						"contract": "contracts/mirrorseaMain.sol:mirrorseaMain",
						"label": "openOrderIdList",
						"offset": 0,
						"slot": "108",
						"type": "t_array(t_uint256)dyn_storage"
					},
					{
						"astId": 1155,
						"contract": "contracts/mirrorseaMain.sol:mirrorseaMain",
						"label": "openOrderIdList_index",
						"offset": 0,
						"slot": "109",
						"type": "t_mapping(t_uint256,t_uint256)"
					},
					{
						"astId": 1160,
						"contract": "contracts/mirrorseaMain.sol:mirrorseaMain",
						"label": "myOpenOrderIdList",
						"offset": 0,
						"slot": "110",
						"type": "t_mapping(t_address,t_array(t_uint256)dyn_storage)"
					},
					{
						"astId": 1166,
						"contract": "contracts/mirrorseaMain.sol:mirrorseaMain",
						"label": "myOpenOrderIdList_index",
						"offset": 0,
						"slot": "111",
						"type": "t_mapping(t_address,t_mapping(t_uint256,t_uint256))"
					},
					{
						"astId": 1171,
						"contract": "contracts/mirrorseaMain.sol:mirrorseaMain",
						"label": "myCloseOrderIdList",
						"offset": 0,
						"slot": "112",
						"type": "t_mapping(t_address,t_array(t_uint256)dyn_storage)"
					},
					{
						"astId": 1177,
						"contract": "contracts/mirrorseaMain.sol:mirrorseaMain",
						"label": "myCloseOrderIdList_index",
						"offset": 0,
						"slot": "113",
						"type": "t_mapping(t_address,t_mapping(t_uint256,t_uint256))"
					},
					{
						"astId": 1179,
						"contract": "contracts/mirrorseaMain.sol:mirrorseaMain",
						"label": "feePercent",
						"offset": 0,
						"slot": "114",
						"type": "t_uint256"
					},
					{
						"astId": 1181,
						"contract": "contracts/mirrorseaMain.sol:mirrorseaMain",
						"label": "PRECISION",
						"offset": 0,
						"slot": "115",
						"type": "t_uint256"
					},
					{
						"astId": 1183,
						"contract": "contracts/mirrorseaMain.sol:mirrorseaMain",
						"label": "minVal",
						"offset": 0,
						"slot": "116",
						"type": "t_uint256"
					}
				],
				"types": {
					"t_address": {
						"encoding": "inplace",
						"label": "address",
						"numberOfBytes": "20"
					},
					"t_array(t_uint256)49_storage": {
						"base": "t_uint256",
						"encoding": "inplace",
						"label": "uint256[49]",
						"numberOfBytes": "1568"
					},
					"t_array(t_uint256)50_storage": {
						"base": "t_uint256",
						"encoding": "inplace",
						"label": "uint256[50]",
						"numberOfBytes": "1600"
					},
					"t_array(t_uint256)dyn_storage": {
						"base": "t_uint256",
						"encoding": "dynamic_array",
						"label": "uint256[]",
						"numberOfBytes": "32"
					},
					"t_bool": {
						"encoding": "inplace",
						"label": "bool",
						"numberOfBytes": "1"
					},
					"t_contract(IERC20Upgradeable)248": {
						"encoding": "inplace",
						"label": "contract IERC20Upgradeable",
						"numberOfBytes": "20"
					},
					"t_contract(IOracle)1100": {
						"encoding": "inplace",
						"label": "contract IOracle",
						"numberOfBytes": "20"
					},
					"t_contract(IhelperLogic)1086": {
						"encoding": "inplace",
						"label": "contract IhelperLogic",
						"numberOfBytes": "20"
					},
					"t_mapping(t_address,t_array(t_uint256)dyn_storage)": {
						"encoding": "mapping",
						"key": "t_address",
						"label": "mapping(address => uint256[])",
						"numberOfBytes": "32",
						"value": "t_array(t_uint256)dyn_storage"
					},
					"t_mapping(t_address,t_bool)": {
						"encoding": "mapping",
						"key": "t_address",
						"label": "mapping(address => bool)",
						"numberOfBytes": "32",
						"value": "t_bool"
					},
					"t_mapping(t_address,t_mapping(t_uint256,t_uint256))": {
						"encoding": "mapping",
						"key": "t_address",
						"label": "mapping(address => mapping(uint256 => uint256))",
						"numberOfBytes": "32",
						"value": "t_mapping(t_uint256,t_uint256)"
					},
					"t_mapping(t_uint256,t_struct(OrderInfo)1206_storage)": {
						"encoding": "mapping",
						"key": "t_uint256",
						"label": "mapping(uint256 => struct mirrorseaMain.OrderInfo)",
						"numberOfBytes": "32",
						"value": "t_struct(OrderInfo)1206_storage"
					},
					"t_mapping(t_uint256,t_uint256)": {
						"encoding": "mapping",
						"key": "t_uint256",
						"label": "mapping(uint256 => uint256)",
						"numberOfBytes": "32",
						"value": "t_uint256"
					},
					"t_string_storage": {
						"encoding": "bytes",
						"label": "string",
						"numberOfBytes": "32"
					},
					"t_struct(OrderInfo)1206_storage": {
						"encoding": "inplace",
						"label": "struct mirrorseaMain.OrderInfo",
						"members": [
							{
								"astId": 1185,
								"contract": "contracts/mirrorseaMain.sol:mirrorseaMain",
								"label": "user",
								"offset": 0,
								"slot": "0",
								"type": "t_address"
							},
							{
								"astId": 1187,
								"contract": "contracts/mirrorseaMain.sol:mirrorseaMain",
								"label": "_type",
								"offset": 0,
								"slot": "1",
								"type": "t_uint256"
							},
							{
								"astId": 1189,
								"contract": "contracts/mirrorseaMain.sol:mirrorseaMain",
								"label": "symbols",
								"offset": 0,
								"slot": "2",
								"type": "t_string_storage"
							},
							{
								"astId": 1191,
								"contract": "contracts/mirrorseaMain.sol:mirrorseaMain",
								"label": "state",
								"offset": 0,
								"slot": "3",
								"type": "t_uint256"
							},
							{
								"astId": 1193,
								"contract": "contracts/mirrorseaMain.sol:mirrorseaMain",
								"label": "direction",
								"offset": 0,
								"slot": "4",
								"type": "t_uint256"
							},
							{
								"astId": 1195,
								"contract": "contracts/mirrorseaMain.sol:mirrorseaMain",
								"label": "openPrice18",
								"offset": 0,
								"slot": "5",
								"type": "t_uint256"
							},
							{
								"astId": 1197,
								"contract": "contracts/mirrorseaMain.sol:mirrorseaMain",
								"label": "openTime",
								"offset": 0,
								"slot": "6",
								"type": "t_uint256"
							},
							{
								"astId": 1199,
								"contract": "contracts/mirrorseaMain.sol:mirrorseaMain",
								"label": "closePrice18",
								"offset": 0,
								"slot": "7",
								"type": "t_uint256"
							},
							{
								"astId": 1201,
								"contract": "contracts/mirrorseaMain.sol:mirrorseaMain",
								"label": "closeTime",
								"offset": 0,
								"slot": "8",
								"type": "t_uint256"
							},
							{
								"astId": 1203,
								"contract": "contracts/mirrorseaMain.sol:mirrorseaMain",
								"label": "amt",
								"offset": 0,
								"slot": "9",
								"type": "t_uint256"
							},
							{
								"astId": 1205,
								"contract": "contracts/mirrorseaMain.sol:mirrorseaMain",
								"label": "margin",
								"offset": 0,
								"slot": "10",
								"type": "t_uint256"
							}
						],
						"numberOfBytes": "352"
					},
					"t_uint256": {
						"encoding": "inplace",
						"label": "uint256",
						"numberOfBytes": "32"
					}
				}
			},
			"userdoc": {
				"kind": "user",
				"methods": {},
				"version": 1
			}
		}
	}
}