{
	"contracts/mirrorseaMain.sol": {
		"mirrorseaMain": {
			"abi": [
				{
					"anonymous": false,
					"inputs": [
						{
							"indexed": true,
							"internalType": "address",
							"name": "previousOwner",
							"type": "address"
						},
						{
							"indexed": true,
							"internalType": "address",
							"name": "newOwner",
							"type": "address"
						}
					],
					"name": "OwnershipTransferred",
					"type": "event"
				},
				{
					"inputs": [],
					"name": "OrderIndex",
					"outputs": [
						{
							"internalType": "uint256",
							"name": "",
							"type": "uint256"
						}
					],
					"stateMutability": "view",
					"type": "function"
				},
				{
					"inputs": [],
					"name": "PRECISION",
					"outputs": [
						{
							"internalType": "uint256",
							"name": "",
							"type": "uint256"
						}
					],
					"stateMutability": "view",
					"type": "function"
				},
				{
					"inputs": [
						{
							"internalType": "uint256",
							"name": "_id",
							"type": "uint256"
						},
						{
							"internalType": "uint256",
							"name": "_timestamp",
							"type": "uint256"
						},
						{
							"internalType": "string",
							"name": "_symbols",
							"type": "string"
						},
						{
							"internalType": "uint256",
							"name": "_price18",
							"type": "uint256"
						},
						{
							"internalType": "bytes",
							"name": "_signature",
							"type": "bytes"
						},
						{
							"internalType": "uint256",
							"name": "_adjustMargin",
							"type": "uint256"
						}
					],
					"name": "adjustPosition",
					"outputs": [
						{
							"internalType": "bool",
							"name": "",
							"type": "bool"
						}
					],
					"stateMutability": "nonpayable",
					"type": "function"
				},
				{
					"inputs": [
						{
							"internalType": "uint256",
							"name": "_id",
							"type": "uint256"
						},
						{
							"internalType": "uint256",
							"name": "_timestamp",
							"type": "uint256"
						},
						{
							"internalType": "string",
							"name": "_symbols",
							"type": "string"
						},
						{
							"internalType": "uint256",
							"name": "_price18",
							"type": "uint256"
						},
						{
							"internalType": "bytes",
							"name": "_signature",
							"type": "bytes"
						}
					],
					"name": "closePosition",
					"outputs": [
						{
							"internalType": "bool",
							"name": "",
							"type": "bool"
						}
					],
					"stateMutability": "nonpayable",
					"type": "function"
				},
				{
					"inputs": [
						{
							"internalType": "address",
							"name": "",
							"type": "address"
						}
					],
					"name": "executor",
					"outputs": [
						{
							"internalType": "bool",
							"name": "",
							"type": "bool"
						}
					],
					"stateMutability": "view",
					"type": "function"
				},
				{
					"inputs": [],
					"name": "feePercent",
					"outputs": [
						{
							"internalType": "uint256",
							"name": "",
							"type": "uint256"
						}
					],
					"stateMutability": "view",
					"type": "function"
				},
				{
					"inputs": [
						{
							"internalType": "uint256",
							"name": "_id",
							"type": "uint256"
						},
						{
							"internalType": "uint256",
							"name": "_timestamp",
							"type": "uint256"
						},
						{
							"internalType": "string",
							"name": "_symbols",
							"type": "string"
						},
						{
							"internalType": "uint256",
							"name": "_price18",
							"type": "uint256"
						},
						{
							"internalType": "bytes",
							"name": "_signature",
							"type": "bytes"
						}
					],
					"name": "forcedLiquidation",
					"outputs": [
						{
							"internalType": "bool",
							"name": "",
							"type": "bool"
						}
					],
					"stateMutability": "nonpayable",
					"type": "function"
				},
				{
					"inputs": [],
					"name": "helperLogic",
					"outputs": [
						{
							"internalType": "contract IhelperLogic",
							"name": "",
							"type": "address"
						}
					],
					"stateMutability": "view",
					"type": "function"
				},
				{
					"inputs": [
						{
							"internalType": "address",
							"name": "_signer",
							"type": "address"
						},
						{
							"internalType": "contract IhelperLogic",
							"name": "_helperLogic",
							"type": "address"
						},
						{
							"internalType": "contract IERC20Upgradeable",
							"name": "_usc",
							"type": "address"
						},
						{
							"internalType": "contract IOracle",
							"name": "_oracle",
							"type": "address"
						}
					],
					"name": "initialize",
					"outputs": [],
					"stateMutability": "nonpayable",
					"type": "function"
				},
				{
					"inputs": [
						{
							"internalType": "uint256[]",
							"name": "_id",
							"type": "uint256[]"
						},
						{
							"internalType": "uint256[]",
							"name": "_timestamp",
							"type": "uint256[]"
						},
						{
							"internalType": "string[]",
							"name": "_symbols",
							"type": "string[]"
						},
						{
							"internalType": "uint256[]",
							"name": "_price18",
							"type": "uint256[]"
						},
						{
							"internalType": "bytes[]",
							"name": "_signature",
							"type": "bytes[]"
						}
					],
					"name": "liquidation",
					"outputs": [
						{
							"internalType": "bool",
							"name": "",
							"type": "bool"
						}
					],
					"stateMutability": "nonpayable",
					"type": "function"
				},
				{
					"inputs": [],
					"name": "minVal",
					"outputs": [
						{
							"internalType": "uint256",
							"name": "",
							"type": "uint256"
						}
					],
					"stateMutability": "view",
					"type": "function"
				},
				{
					"inputs": [
						{
							"internalType": "address",
							"name": "",
							"type": "address"
						},
						{
							"internalType": "uint256",
							"name": "",
							"type": "uint256"
						}
					],
					"name": "myCloseOrderIdList",
					"outputs": [
						{
							"internalType": "uint256",
							"name": "",
							"type": "uint256"
						}
					],
					"stateMutability": "view",
					"type": "function"
				},
				{
					"inputs": [
						{
							"internalType": "address",
							"name": "_user",
							"type": "address"
						}
					],
					"name": "myCloseOrderIdListLength",
					"outputs": [
						{
							"internalType": "uint256",
							"name": "",
							"type": "uint256"
						}
					],
					"stateMutability": "view",
					"type": "function"
				},
				{
					"inputs": [
						{
							"internalType": "address",
							"name": "",
							"type": "address"
						},
						{
							"internalType": "uint256",
							"name": "",
							"type": "uint256"
						}
					],
					"name": "myCloseOrderIdList_index",
					"outputs": [
						{
							"internalType": "uint256",
							"name": "",
							"type": "uint256"
						}
					],
					"stateMutability": "view",
					"type": "function"
				},
				{
					"inputs": [
						{
							"internalType": "address",
							"name": "",
							"type": "address"
						},
						{
							"internalType": "uint256",
							"name": "",
							"type": "uint256"
						}
					],
					"name": "myOpenOrderIdList",
					"outputs": [
						{
							"internalType": "uint256",
							"name": "",
							"type": "uint256"
						}
					],
					"stateMutability": "view",
					"type": "function"
				},
				{
					"inputs": [
						{
							"internalType": "address",
							"name": "_user",
							"type": "address"
						}
					],
					"name": "myOpenOrderIdListLength",
					"outputs": [
						{
							"internalType": "uint256",
							"name": "",
							"type": "uint256"
						}
					],
					"stateMutability": "view",
					"type": "function"
				},
				{
					"inputs": [
						{
							"internalType": "address",
							"name": "",
							"type": "address"
						},
						{
							"internalType": "uint256",
							"name": "",
							"type": "uint256"
						}
					],
					"name": "myOpenOrderIdList_index",
					"outputs": [
						{
							"internalType": "uint256",
							"name": "",
							"type": "uint256"
						}
					],
					"stateMutability": "view",
					"type": "function"
				},
				{
					"inputs": [
						{
							"internalType": "uint256",
							"name": "",
							"type": "uint256"
						}
					],
					"name": "openOrderIdList",
					"outputs": [
						{
							"internalType": "uint256",
							"name": "",
							"type": "uint256"
						}
					],
					"stateMutability": "view",
					"type": "function"
				},
				{
					"inputs": [
						{
							"internalType": "uint256",
							"name": "",
							"type": "uint256"
						}
					],
					"name": "openOrderIdList_index",
					"outputs": [
						{
							"internalType": "uint256",
							"name": "",
							"type": "uint256"
						}
					],
					"stateMutability": "view",
					"type": "function"
				},
				{
					"inputs": [
						{
							"internalType": "uint256",
							"name": "_timestamp",
							"type": "uint256"
						},
						{
							"internalType": "uint256",
							"name": "_direction",
							"type": "uint256"
						},
						{
							"internalType": "uint256",
							"name": "_type",
							"type": "uint256"
						},
						{
							"internalType": "string",
							"name": "_symbols",
							"type": "string"
						},
						{
							"internalType": "uint256",
							"name": "_price18",
							"type": "uint256"
						},
						{
							"internalType": "uint256",
							"name": "_amt",
							"type": "uint256"
						},
						{
							"internalType": "bytes",
							"name": "_signature",
							"type": "bytes"
						}
					],
					"name": "openPosition",
					"outputs": [
						{
							"internalType": "bool",
							"name": "",
							"type": "bool"
						}
					],
					"stateMutability": "nonpayable",
					"type": "function"
				},
				{
					"inputs": [],
					"name": "oracle",
					"outputs": [
						{
							"internalType": "contract IOracle",
							"name": "",
							"type": "address"
						}
					],
					"stateMutability": "view",
					"type": "function"
				},
				{
					"inputs": [
						{
							"internalType": "uint256",
							"name": "_id",
							"type": "uint256"
						}
					],
					"name": "orderInfo",
					"outputs": [
						{
							"components": [
								{
									"internalType": "address",
									"name": "user",
									"type": "address"
								},
								{
									"internalType": "uint256",
									"name": "_type",
									"type": "uint256"
								},
								{
									"internalType": "string",
									"name": "symbols",
									"type": "string"
								},
								{
									"internalType": "uint256",
									"name": "state",
									"type": "uint256"
								},
								{
									"internalType": "uint256",
									"name": "direction",
									"type": "uint256"
								},
								{
									"internalType": "uint256",
									"name": "openPrice18",
									"type": "uint256"
								},
								{
									"internalType": "uint256",
									"name": "openTime",
									"type": "uint256"
								},
								{
									"internalType": "uint256",
									"name": "closePrice18",
									"type": "uint256"
								},
								{
									"internalType": "uint256",
									"name": "closeTime",
									"type": "uint256"
								},
								{
									"internalType": "uint256",
									"name": "amt",
									"type": "uint256"
								},
								{
									"internalType": "uint256",
									"name": "margin",
									"type": "uint256"
								}
							],
							"internalType": "struct mirrorseaMain.OrderInfo",
							"name": "",
							"type": "tuple"
						}
					],
					"stateMutability": "view",
					"type": "function"
				},
				{
					"inputs": [],
					"name": "owner",
					"outputs": [
						{
							"internalType": "address",
							"name": "",
							"type": "address"
						}
					],
					"stateMutability": "view",
					"type": "function"
				},
				{
					"inputs": [
						{
							"internalType": "address",
							"name": "_user",
							"type": "address"
						},
						{
							"internalType": "uint256",
							"name": "_type",
							"type": "uint256"
						},
						{
							"internalType": "uint256",
							"name": "_row",
							"type": "uint256"
						},
						{
							"internalType": "uint256",
							"name": "_page",
							"type": "uint256"
						}
					],
					"name": "pagination",
					"outputs": [
						{
							"internalType": "uint256[]",
							"name": "",
							"type": "uint256[]"
						}
					],
					"stateMutability": "view",
					"type": "function"
				},
				{
					"inputs": [],
					"name": "renounceOwnership",
					"outputs": [],
					"stateMutability": "nonpayable",
					"type": "function"
				},
				{
					"inputs": [
						{
							"internalType": "address",
							"name": "_address",
							"type": "address"
						},
						{
							"internalType": "bool",
							"name": "_type",
							"type": "bool"
						}
					],
					"name": "setExecutor",
					"outputs": [
						{
							"internalType": "bool",
							"name": "",
							"type": "bool"
						}
					],
					"stateMutability": "nonpayable",
					"type": "function"
				},
				{
					"inputs": [
						{
							"internalType": "uint256",
							"name": "_val",
							"type": "uint256"
						}
					],
					"name": "setFeePercent",
					"outputs": [
						{
							"internalType": "bool",
							"name": "",
							"type": "bool"
						}
					],
					"stateMutability": "nonpayable",
					"type": "function"
				},
				{
					"inputs": [
						{
							"internalType": "uint256",
							"name": "id",
							"type": "uint256"
						},
						{
							"internalType": "address",
							"name": "user",
							"type": "address"
						},
						{
							"internalType": "uint256",
							"name": "_type",
							"type": "uint256"
						},
						{
							"internalType": "string",
							"name": "symbols",
							"type": "string"
						},
						{
							"internalType": "uint256",
							"name": "state",
							"type": "uint256"
						},
						{
							"internalType": "uint256",
							"name": "direction",
							"type": "uint256"
						},
						{
							"internalType": "uint256",
							"name": "openPrice18",
							"type": "uint256"
						},
						{
							"internalType": "uint256",
							"name": "openTime",
							"type": "uint256"
						},
						{
							"internalType": "uint256",
							"name": "closePrice18",
							"type": "uint256"
						},
						{
							"internalType": "uint256",
							"name": "closeTime",
							"type": "uint256"
						},
						{
							"internalType": "uint256",
							"name": "amt",
							"type": "uint256"
						},
						{
							"internalType": "uint256",
							"name": "margin",
							"type": "uint256"
						}
					],
					"name": "setOrderInfo",
					"outputs": [
						{
							"internalType": "bool",
							"name": "",
							"type": "bool"
						}
					],
					"stateMutability": "nonpayable",
					"type": "function"
				},
				{
					"inputs": [
						{
							"internalType": "address",
							"name": "_address",
							"type": "address"
						}
					],
					"name": "setSigner",
					"outputs": [
						{
							"internalType": "bool",
							"name": "",
							"type": "bool"
						}
					],
					"stateMutability": "nonpayable",
					"type": "function"
				},
				{
					"inputs": [],
					"name": "signer",
					"outputs": [
						{
							"internalType": "address",
							"name": "",
							"type": "address"
						}
					],
					"stateMutability": "view",
					"type": "function"
				},
				{
					"inputs": [
						{
							"internalType": "address",
							"name": "newOwner",
							"type": "address"
						}
					],
					"name": "transferOwnership",
					"outputs": [],
					"stateMutability": "nonpayable",
					"type": "function"
				},
				{
					"inputs": [],
					"name": "usc",
					"outputs": [
						{
							"internalType": "contract IERC20Upgradeable",
							"name": "",
							"type": "address"
						}
					],
					"stateMutability": "view",
					"type": "function"
				}
			],
			"devdoc": {
				"kind": "dev",
				"methods": {
					"owner()": {
						"details": "Returns the address of the current owner."
					},
					"renounceOwnership()": {
						"details": "Leaves the contract without owner. It will not be possible to call `onlyOwner` functions anymore. Can only be called by the current owner. NOTE: Renouncing ownership will leave the contract without an owner, thereby removing any functionality that is only available to the owner."
					},
					"transferOwnership(address)": {
						"details": "Transfers ownership of the contract to a new account (`newOwner`). Can only be called by the current owner."
					}
				},
				"version": 1
			},
			"evm": {
				"assembly": "    /* \"contracts/mirrorseaMain.sol\":883:14653  contract mirrorseaMain is Initializable, OwnableUpgradeable {... */\n  mstore(0x40, 0x80)\n  callvalue\n  dup1\n  iszero\n  tag_1\n  jumpi\n  0x00\n  dup1\n  revert\ntag_1:\n  pop\n  dataSize(sub_0)\n  dup1\n  dataOffset(sub_0)\n  0x00\n  codecopy\n  0x00\n  return\nstop\n\nsub_0: assembly {\n        /* \"contracts/mirrorseaMain.sol\":883:14653  contract mirrorseaMain is Initializable, OwnableUpgradeable {... */\n      mstore(0x40, 0x80)\n      callvalue\n      dup1\n      iszero\n      tag_1\n      jumpi\n      0x00\n      dup1\n      revert\n    tag_1:\n      pop\n      jumpi(tag_2, lt(calldatasize, 0x04))\n      shr(0xe0, calldataload(0x00))\n      dup1\n      0x7fd6f15c\n      gt\n      tag_35\n      jumpi\n      dup1\n      0xe4e95520\n      gt\n      tag_36\n      jumpi\n      dup1\n      0xf2fde38b\n      gt\n      tag_37\n      jumpi\n      dup1\n      0xf2fde38b\n      eq\n      tag_31\n      jumpi\n      dup1\n      0xf7ab69fd\n      eq\n      tag_32\n      jumpi\n      dup1\n      0xf8c8765e\n      eq\n      tag_33\n      jumpi\n      dup1\n      0xfc234d06\n      eq\n      tag_34\n      jumpi\n      jump(tag_2)\n    tag_37:\n      dup1\n      0xe4e95520\n      eq\n      tag_27\n      jumpi\n      dup1\n      0xec4c4f34\n      eq\n      tag_28\n      jumpi\n      dup1\n      0xf0c765e4\n      eq\n      tag_29\n      jumpi\n      dup1\n      0xf14053ad\n      eq\n      tag_30\n      jumpi\n      jump(tag_2)\n    tag_36:\n      dup1\n      0xa80c3cd3\n      gt\n      tag_38\n      jumpi\n      dup1\n      0xa80c3cd3\n      eq\n      tag_23\n      jumpi\n      dup1\n      0xaaf5eb68\n      eq\n      tag_24\n      jumpi\n      dup1\n      0xaecf77b1\n      eq\n      tag_25\n      jumpi\n      dup1\n      0xc2ec527d\n      eq\n      tag_26\n      jumpi\n      jump(tag_2)\n    tag_38:\n      dup1\n      0x7fd6f15c\n      eq\n      tag_19\n      jumpi\n      dup1\n      0x8da5cb5b\n      eq\n      tag_20\n      jumpi\n      dup1\n      0x99315ccf\n      eq\n      tag_21\n      jumpi\n      dup1\n      0xa17397db\n      eq\n      tag_22\n      jumpi\n      jump(tag_2)\n    tag_35:\n      dup1\n      0x48c7e528\n      gt\n      tag_39\n      jumpi\n      dup1\n      0x715018a6\n      gt\n      tag_40\n      jumpi\n      dup1\n      0x715018a6\n      eq\n      tag_15\n      jumpi\n      dup1\n      0x7be3a1a1\n      eq\n      tag_16\n      jumpi\n      dup1\n      0x7ce3489b\n      eq\n      tag_17\n      jumpi\n      dup1\n      0x7dc0d1d0\n      eq\n      tag_18\n      jumpi\n      jump(tag_2)\n    tag_40:\n      dup1\n      0x48c7e528\n      eq\n      tag_11\n      jumpi\n      dup1\n      0x6ab34a4a\n      eq\n      tag_12\n      jumpi\n      dup1\n      0x6c19e783\n      eq\n      tag_13\n      jumpi\n      dup1\n      0x6dbe9624\n      eq\n      tag_14\n      jumpi\n      jump(tag_2)\n    tag_39:\n      dup1\n      0x238ac933\n      gt\n      tag_41\n      jumpi\n      dup1\n      0x238ac933\n      eq\n      tag_7\n      jumpi\n      dup1\n      0x3011d3d5\n      eq\n      tag_8\n      jumpi\n      dup1\n      0x43b1f3cb\n      eq\n      tag_9\n      jumpi\n      dup1\n      0x475b4fd3\n      eq\n      tag_10\n      jumpi\n      jump(tag_2)\n    tag_41:\n      dup1\n      0x080270a8\n      eq\n      tag_3\n      jumpi\n      dup1\n      0x0f58d242\n      eq\n      tag_4\n      jumpi\n      dup1\n      0x1e1bff3f\n      eq\n      tag_5\n      jumpi\n      dup1\n      0x1e64610c\n      eq\n      tag_6\n      jumpi\n    tag_2:\n      0x00\n      dup1\n      revert\n        /* \"contracts/mirrorseaMain.sol\":4475:5226  function pagination(... */\n    tag_3:\n      tag_42\n      tag_43\n      calldatasize\n      0x04\n      tag_44\n      jump\t// in\n    tag_43:\n      tag_45\n      jump\t// in\n    tag_42:\n      mload(0x40)\n      tag_46\n      swap2\n      swap1\n      tag_47\n      jump\t// in\n    tag_46:\n      mload(0x40)\n      dup1\n      swap2\n      sub\n      swap1\n      return\n        /* \"contracts/mirrorseaMain.sol\":1320:1352  uint256[] public openOrderIdList */\n    tag_4:\n      tag_48\n      tag_49\n      calldatasize\n      0x04\n      tag_50\n      jump\t// in\n    tag_49:\n      tag_51\n      jump\t// in\n    tag_48:\n      mload(0x40)\n      tag_46\n      swap2\n      swap1\n      tag_53\n      jump\t// in\n        /* \"contracts/mirrorseaMain.sol\":2972:3149  function setExecutor(address _address, bool _type)... */\n    tag_5:\n      tag_54\n      tag_55\n      calldatasize\n      0x04\n      tag_56\n      jump\t// in\n    tag_55:\n      tag_57\n      jump\t// in\n    tag_54:\n      mload(0x40)\n      tag_46\n      swap2\n      swap1\n      tag_59\n      jump\t// in\n        /* \"contracts/mirrorseaMain.sol\":1169:1200  IhelperLogic public helperLogic */\n    tag_6:\n      tag_60\n      tag_61\n      jump\t// in\n    tag_60:\n      mload(0x40)\n      tag_46\n      swap2\n      swap1\n      tag_67\n      jump\t// in\n        /* \"contracts/mirrorseaMain.sol\":1108:1129  address public signer */\n    tag_7:\n      tag_60\n      tag_65\n      jump\t// in\n        /* \"contracts/mirrorseaMain.sol\":1135:1163  IERC20Upgradeable public usc */\n    tag_8:\n      tag_60\n      tag_69\n      jump\t// in\n        /* \"contracts/mirrorseaMain.sol\":1358:1414  mapping(uint256 => uint256) public openOrderIdList_index */\n    tag_9:\n      tag_48\n      tag_73\n      calldatasize\n      0x04\n      tag_50\n      jump\t// in\n    tag_73:\n      tag_74\n      jump\t// in\n        /* \"contracts/mirrorseaMain.sol\":5232:6930  function openPosition(... */\n    tag_10:\n      tag_54\n      tag_77\n      calldatasize\n      0x04\n      tag_78\n      jump\t// in\n    tag_77:\n      tag_79\n      jump\t// in\n        /* \"contracts/mirrorseaMain.sol\":1062:1102  mapping(address => bool) public executor */\n    tag_11:\n      tag_54\n      tag_82\n      calldatasize\n      0x04\n      tag_83\n      jump\t// in\n    tag_82:\n      tag_84\n      jump\t// in\n        /* \"contracts/mirrorseaMain.sol\":3576:3688  function orderInfo(uint256 _id) external view returns (OrderInfo memory) {... */\n    tag_12:\n      tag_86\n      tag_87\n      calldatasize\n      0x04\n      tag_50\n      jump\t// in\n    tag_87:\n      tag_88\n      jump\t// in\n    tag_86:\n      mload(0x40)\n      tag_46\n      swap2\n      swap1\n      tag_90\n      jump\t// in\n        /* \"contracts/mirrorseaMain.sol\":3444:3570  function setSigner(address _address) external onlyOwner returns (bool) {... */\n    tag_13:\n      tag_54\n      tag_92\n      calldatasize\n      0x04\n      tag_83\n      jump\t// in\n    tag_92:\n      tag_93\n      jump\t// in\n        /* \"contracts/mirrorseaMain.sol\":11621:12407  function liquidation(... */\n    tag_14:\n      tag_54\n      tag_96\n      calldatasize\n      0x04\n      tag_97\n      jump\t// in\n    tag_96:\n      tag_98\n      jump\t// in\n        /* \"@openzeppelin/contracts-upgradeable/access/OwnableUpgradeable.sol\":1934:2035  function renounceOwnership() public virtual onlyOwner {... */\n    tag_15:\n      tag_100\n      tag_101\n      jump\t// in\n    tag_100:\n      stop\n        /* \"contracts/mirrorseaMain.sol\":1481:1567  mapping(address => mapping(uint256 => uint256))... */\n    tag_16:\n      tag_48\n      tag_103\n      calldatasize\n      0x04\n      tag_104\n      jump\t// in\n    tag_103:\n      tag_105\n      jump\t// in\n        /* \"contracts/mirrorseaMain.sol\":3299:3425  function setFeePercent(uint256 _val) external onlyOwner returns (bool) {... */\n    tag_17:\n      tag_54\n      tag_108\n      calldatasize\n      0x04\n      tag_50\n      jump\t// in\n    tag_108:\n      tag_109\n      jump\t// in\n        /* \"contracts/mirrorseaMain.sol\":1206:1227  IOracle public oracle */\n    tag_18:\n      tag_60\n      tag_112\n      jump\t// in\n        /* \"contracts/mirrorseaMain.sol\":1729:1754  uint256 public feePercent */\n    tag_19:\n      tag_48\n      tag_116\n      jump\t// in\n        /* \"@openzeppelin/contracts-upgradeable/access/OwnableUpgradeable.sol\":1302:1387  function owner() public view virtual returns (address) {... */\n    tag_20:\n      tag_60\n      tag_119\n      jump\t// in\n        /* \"contracts/mirrorseaMain.sol\":13992:14651  function adjustPosition(... */\n    tag_21:\n      tag_54\n      tag_122\n      calldatasize\n      0x04\n      tag_123\n      jump\t// in\n    tag_122:\n      tag_124\n      jump\t// in\n        /* \"contracts/mirrorseaMain.sol\":10648:11183  function closePosition(... */\n    tag_22:\n      tag_54\n      tag_127\n      calldatasize\n      0x04\n      tag_128\n      jump\t// in\n    tag_127:\n      tag_129\n      jump\t// in\n        /* \"contracts/mirrorseaMain.sol\":12413:12909  function forcedLiquidation(... */\n    tag_23:\n      tag_54\n      tag_132\n      calldatasize\n      0x04\n      tag_128\n      jump\t// in\n    tag_132:\n      tag_133\n      jump\t// in\n        /* \"contracts/mirrorseaMain.sol\":1760:1784  uint256 public PRECISION */\n    tag_24:\n      tag_48\n      tag_136\n      jump\t// in\n        /* \"contracts/mirrorseaMain.sol\":2803:2966  function myCloseOrderIdListLength(address _user)... */\n    tag_25:\n      tag_48\n      tag_139\n      calldatasize\n      0x04\n      tag_83\n      jump\t// in\n    tag_139:\n      tag_140\n      jump\t// in\n        /* \"contracts/mirrorseaMain.sol\":1421:1475  mapping(address => uint256[]) public myOpenOrderIdList */\n    tag_26:\n      tag_48\n      tag_143\n      calldatasize\n      0x04\n      tag_104\n      jump\t// in\n    tag_143:\n      tag_144\n      jump\t// in\n        /* \"contracts/mirrorseaMain.sol\":2636:2797  function myOpenOrderIdListLength(address _user)... */\n    tag_27:\n      tag_48\n      tag_147\n      calldatasize\n      0x04\n      tag_83\n      jump\t// in\n    tag_147:\n      tag_148\n      jump\t// in\n        /* \"contracts/mirrorseaMain.sol\":1574:1629  mapping(address => uint256[]) public myCloseOrderIdList */\n    tag_28:\n      tag_48\n      tag_151\n      calldatasize\n      0x04\n      tag_104\n      jump\t// in\n    tag_151:\n      tag_152\n      jump\t// in\n        /* \"contracts/mirrorseaMain.sol\":1635:1722  mapping(address => mapping(uint256 => uint256))... */\n    tag_29:\n      tag_48\n      tag_155\n      calldatasize\n      0x04\n      tag_104\n      jump\t// in\n    tag_155:\n      tag_156\n      jump\t// in\n        /* \"contracts/mirrorseaMain.sol\":1791:1812  uint256 public minVal */\n    tag_30:\n      tag_48\n      tag_159\n      jump\t// in\n        /* \"@openzeppelin/contracts-upgradeable/access/OwnableUpgradeable.sol\":2184:2382  function transferOwnership(address newOwner) public virtual onlyOwner {... */\n    tag_31:\n      tag_100\n      tag_162\n      calldatasize\n      0x04\n      tag_83\n      jump\t// in\n    tag_162:\n      tag_163\n      jump\t// in\n        /* \"contracts/mirrorseaMain.sol\":1288:1313  uint256 public OrderIndex */\n    tag_32:\n      tag_48\n      tag_165\n      jump\t// in\n        /* \"contracts/mirrorseaMain.sol\":2250:2630  function initialize(... */\n    tag_33:\n      tag_100\n      tag_168\n      calldatasize\n      0x04\n      tag_169\n      jump\t// in\n    tag_168:\n      tag_170\n      jump\t// in\n        /* \"contracts/mirrorseaMain.sol\":3694:4469  function setOrderInfo(... */\n    tag_34:\n      tag_54\n      tag_172\n      calldatasize\n      0x04\n      tag_173\n      jump\t// in\n    tag_172:\n      tag_174\n      jump\t// in\n        /* \"contracts/mirrorseaMain.sol\":4475:5226  function pagination(... */\n    tag_45:\n        /* \"contracts/mirrorseaMain.sol\":4615:4631  uint256[] memory */\n      0x60\n        /* \"contracts/mirrorseaMain.sol\":4643:4667  uint256[] memory newList */\n      0x00\n        /* \"contracts/mirrorseaMain.sol\":4684:4689  _page */\n      dup3\n        /* \"contracts/mirrorseaMain.sol\":4670:4690  new uint256[](_page) */\n      0xffffffffffffffff\n      dup2\n      gt\n      iszero\n      tag_177\n      jumpi\n      mstore(0x00, shl(0xe0, 0x4e487b71))\n      mstore(0x04, 0x41)\n      revert(0x00, 0x24)\n    tag_177:\n      mload(0x40)\n      swap1\n      dup1\n      dup3\n      mstore\n      dup1\n      0x20\n      mul\n      0x20\n      add\n      dup3\n      add\n      0x40\n      mstore\n      dup1\n      iszero\n      tag_178\n      jumpi\n      dup2\n      0x20\n      add\n      0x20\n      dup3\n      mul\n      dup1\n      calldatasize\n      dup4\n      calldatacopy\n      add\n      swap1\n      pop\n    tag_178:\n      pop\n        /* \"contracts/mirrorseaMain.sol\":4643:4690  uint256[] memory newList = new uint256[](_page) */\n      swap1\n      pop\n        /* \"contracts/mirrorseaMain.sol\":4700:4713  uint256 index */\n      0x00\n        /* \"contracts/mirrorseaMain.sol\":4727:4749  uint256[] memory _list */\n      0x60\n        /* \"contracts/mirrorseaMain.sol\":4763:4773  _type == 0 */\n      dup7\n        /* \"contracts/mirrorseaMain.sol\":4759:4982  if (_type == 0) {... */\n      tag_179\n      jumpi\n        /* \"contracts/mirrorseaMain.sol\":4797:4812  openOrderIdList */\n      0x6c\n        /* \"contracts/mirrorseaMain.sol\":4789:4812  _list = openOrderIdList */\n      dup1\n      sload\n      dup1\n      0x20\n      mul\n      0x20\n      add\n      mload(0x40)\n      swap1\n      dup2\n      add\n      0x40\n      mstore\n      dup1\n      swap3\n      swap2\n      swap1\n      dup2\n      dup2\n      mstore\n      0x20\n      add\n      dup3\n      dup1\n      sload\n      dup1\n      iszero\n      tag_180\n      jumpi\n      0x20\n      mul\n      dup3\n      add\n      swap2\n      swap1\n      0x00\n      mstore\n      keccak256(0x00, 0x20)\n      swap1\n    tag_181:\n      dup2\n      sload\n      dup2\n      mstore\n      0x20\n      add\n      swap1\n      0x01\n      add\n      swap1\n      dup1\n      dup4\n      gt\n      tag_181\n      jumpi\n    tag_180:\n      pop\n      pop\n      pop\n      pop\n      pop\n      swap1\n      pop\n        /* \"contracts/mirrorseaMain.sol\":4759:4982  if (_type == 0) {... */\n      jump(tag_187)\n    tag_179:\n        /* \"contracts/mirrorseaMain.sol\":4833:4838  _type */\n      dup7\n        /* \"contracts/mirrorseaMain.sol\":4842:4843  1 */\n      0x01\n        /* \"contracts/mirrorseaMain.sol\":4833:4843  _type == 1 */\n      eq\n        /* \"contracts/mirrorseaMain.sol\":4829:4982  if (_type == 1) {... */\n      iszero\n      tag_183\n      jumpi\n      sub(shl(0xa0, 0x01), 0x01)\n        /* \"contracts/mirrorseaMain.sol\":4867:4891  myOpenOrderIdList[_user] */\n      dup9\n      and\n      0x00\n      swap1\n      dup2\n      mstore\n        /* \"contracts/mirrorseaMain.sol\":4867:4884  myOpenOrderIdList */\n      0x6e\n        /* \"contracts/mirrorseaMain.sol\":4867:4891  myOpenOrderIdList[_user] */\n      0x20\n      swap1\n      dup2\n      mstore\n      0x40\n      swap2\n      dup3\n      swap1\n      keccak256\n        /* \"contracts/mirrorseaMain.sol\":4859:4891  _list = myOpenOrderIdList[_user] */\n      dup1\n      sload\n      dup4\n      mload\n      dup2\n      dup5\n      mul\n      dup2\n      add\n      dup5\n      add\n      swap1\n      swap5\n      mstore\n      dup1\n      dup5\n      mstore\n        /* \"contracts/mirrorseaMain.sol\":4867:4891  myOpenOrderIdList[_user] */\n      swap1\n      swap2\n        /* \"contracts/mirrorseaMain.sol\":4859:4891  _list = myOpenOrderIdList[_user] */\n      dup4\n      add\n        /* \"contracts/mirrorseaMain.sol\":4867:4891  myOpenOrderIdList[_user] */\n      dup3\n        /* \"contracts/mirrorseaMain.sol\":4859:4891  _list = myOpenOrderIdList[_user] */\n      dup3\n      dup1\n      iszero\n      tag_180\n      jumpi\n      0x20\n      mul\n      dup3\n      add\n      swap2\n      swap1\n      0x00\n      mstore\n      keccak256(0x00, 0x20)\n      swap1\n      dup2\n      sload\n      dup2\n      mstore\n      0x20\n      add\n      swap1\n      0x01\n      add\n      swap1\n      dup1\n      dup4\n      gt\n      tag_181\n      jumpi\n      pop\n      pop\n      pop\n      pop\n      pop\n      swap1\n      pop\n        /* \"contracts/mirrorseaMain.sol\":4829:4982  if (_type == 1) {... */\n      jump(tag_187)\n    tag_183:\n        /* \"contracts/mirrorseaMain.sol\":4912:4917  _type */\n      dup7\n        /* \"contracts/mirrorseaMain.sol\":4921:4922  2 */\n      0x02\n        /* \"contracts/mirrorseaMain.sol\":4912:4922  _type == 2 */\n      eq\n        /* \"contracts/mirrorseaMain.sol\":4908:4982  if (_type == 2) {... */\n      iszero\n      tag_187\n      jumpi\n      sub(shl(0xa0, 0x01), 0x01)\n        /* \"contracts/mirrorseaMain.sol\":4946:4971  myCloseOrderIdList[_user] */\n      dup9\n      and\n      0x00\n      swap1\n      dup2\n      mstore\n        /* \"contracts/mirrorseaMain.sol\":4946:4964  myCloseOrderIdList */\n      0x70\n        /* \"contracts/mirrorseaMain.sol\":4946:4971  myCloseOrderIdList[_user] */\n      0x20\n      swap1\n      dup2\n      mstore\n      0x40\n      swap2\n      dup3\n      swap1\n      keccak256\n        /* \"contracts/mirrorseaMain.sol\":4938:4971  _list = myCloseOrderIdList[_user] */\n      dup1\n      sload\n      dup4\n      mload\n      dup2\n      dup5\n      mul\n      dup2\n      add\n      dup5\n      add\n      swap1\n      swap5\n      mstore\n      dup1\n      dup5\n      mstore\n        /* \"contracts/mirrorseaMain.sol\":4946:4971  myCloseOrderIdList[_user] */\n      swap1\n      swap2\n        /* \"contracts/mirrorseaMain.sol\":4938:4971  _list = myCloseOrderIdList[_user] */\n      dup4\n      add\n        /* \"contracts/mirrorseaMain.sol\":4946:4971  myCloseOrderIdList[_user] */\n      dup3\n        /* \"contracts/mirrorseaMain.sol\":4938:4971  _list = myCloseOrderIdList[_user] */\n      dup3\n      dup1\n      iszero\n      tag_188\n      jumpi\n      0x20\n      mul\n      dup3\n      add\n      swap2\n      swap1\n      0x00\n      mstore\n      keccak256(0x00, 0x20)\n      swap1\n    tag_189:\n      dup2\n      sload\n      dup2\n      mstore\n      0x20\n      add\n      swap1\n      0x01\n      add\n      swap1\n      dup1\n      dup4\n      gt\n      tag_189\n      jumpi\n    tag_188:\n      pop\n      pop\n      pop\n      pop\n      pop\n      swap1\n      pop\n        /* \"contracts/mirrorseaMain.sol\":4908:4982  if (_type == 2) {... */\n    tag_187:\n        /* \"contracts/mirrorseaMain.sol\":5014:5026  _list.length */\n      dup1\n      mload\n        /* \"contracts/mirrorseaMain.sol\":4999:5011  _row * _page */\n      tag_190\n        /* \"contracts/mirrorseaMain.sol\":5006:5011  _page */\n      dup7\n        /* \"contracts/mirrorseaMain.sol\":4999:5003  _row */\n      dup9\n        /* \"contracts/mirrorseaMain.sol\":4999:5011  _row * _page */\n      tag_191\n      jump\t// in\n    tag_190:\n        /* \"contracts/mirrorseaMain.sol\":4999:5026  _row * _page > _list.length */\n      gt\n        /* \"contracts/mirrorseaMain.sol\":4991:5041  require(_row * _page > _list.length, \"length err\") */\n      tag_192\n      jumpi\n      mload(0x40)\n      shl(0xe5, 0x461bcd)\n      dup2\n      mstore\n      0x04\n      add\n      tag_193\n      swap1\n      tag_194\n      jump\t// in\n    tag_193:\n      mload(0x40)\n      dup1\n      swap2\n      sub\n      swap1\n      revert\n    tag_192:\n        /* \"contracts/mirrorseaMain.sol\":5056:5065  uint256 i */\n      0x00\n        /* \"contracts/mirrorseaMain.sol\":5085:5090  _page */\n      dup6\n        /* \"contracts/mirrorseaMain.sol\":5069:5081  _row * _page */\n      tag_198\n        /* \"contracts/mirrorseaMain.sol\":5085:5090  _page */\n      dup2\n        /* \"contracts/mirrorseaMain.sol\":5069:5073  _row */\n      dup10\n        /* \"contracts/mirrorseaMain.sol\":5069:5081  _row * _page */\n      tag_191\n      jump\t// in\n    tag_198:\n        /* \"contracts/mirrorseaMain.sol\":5068:5090  (_row * _page) - _page */\n      tag_199\n      swap2\n      swap1\n      tag_200\n      jump\t// in\n    tag_199:\n        /* \"contracts/mirrorseaMain.sol\":5056:5090  uint256 i = (_row * _page) - _page */\n      swap1\n      pop\n        /* \"contracts/mirrorseaMain.sol\":5051:5196  for (uint256 i = (_row * _page) - _page; i < _row * _page; i++) {... */\n    tag_195:\n        /* \"contracts/mirrorseaMain.sol\":5096:5108  _row * _page */\n      tag_201\n        /* \"contracts/mirrorseaMain.sol\":5103:5108  _page */\n      dup7\n        /* \"contracts/mirrorseaMain.sol\":5096:5100  _row */\n      dup9\n        /* \"contracts/mirrorseaMain.sol\":5096:5108  _row * _page */\n      tag_191\n      jump\t// in\n    tag_201:\n        /* \"contracts/mirrorseaMain.sol\":5092:5093  i */\n      dup2\n        /* \"contracts/mirrorseaMain.sol\":5092:5108  i < _row * _page */\n      lt\n        /* \"contracts/mirrorseaMain.sol\":5051:5196  for (uint256 i = (_row * _page) - _page; i < _row * _page; i++) {... */\n      iszero\n      tag_196\n      jumpi\n        /* \"contracts/mirrorseaMain.sol\":5146:5151  _list */\n      dup2\n        /* \"contracts/mirrorseaMain.sol\":5152:5153  i */\n      dup2\n        /* \"contracts/mirrorseaMain.sol\":5146:5154  _list[i] */\n      dup2\n      mload\n      dup2\n      lt\n      tag_202\n      jumpi\n      mstore(0x00, shl(0xe0, 0x4e487b71))\n      mstore(0x04, 0x32)\n      revert(0x00, 0x24)\n    tag_202:\n      0x20\n      mul\n      0x20\n      add\n      add\n      mload\n        /* \"contracts/mirrorseaMain.sol\":5129:5136  newList */\n      dup5\n        /* \"contracts/mirrorseaMain.sol\":5137:5142  index */\n      dup5\n        /* \"contracts/mirrorseaMain.sol\":5129:5143  newList[index] */\n      dup2\n      mload\n      dup2\n      lt\n      tag_203\n      jumpi\n      mstore(0x00, shl(0xe0, 0x4e487b71))\n      mstore(0x04, 0x32)\n      revert(0x00, 0x24)\n    tag_203:\n      0x20\n      swap1\n      dup2\n      mul\n      swap2\n      swap1\n      swap2\n      add\n      add\n        /* \"contracts/mirrorseaMain.sol\":5129:5154  newList[index] = _list[i] */\n      mstore\n        /* \"contracts/mirrorseaMain.sol\":5176:5185  index + 1 */\n      tag_204\n        /* \"contracts/mirrorseaMain.sol\":5176:5181  index */\n      dup4\n        /* \"contracts/mirrorseaMain.sol\":5184:5185  1 */\n      0x01\n        /* \"contracts/mirrorseaMain.sol\":5176:5185  index + 1 */\n      tag_205\n      jump\t// in\n    tag_204:\n        /* \"contracts/mirrorseaMain.sol\":5168:5185  index = index + 1 */\n      swap3\n      pop\n        /* \"contracts/mirrorseaMain.sol\":5110:5113  i++ */\n      dup1\n      tag_206\n      dup2\n      tag_207\n      jump\t// in\n    tag_206:\n      swap2\n      pop\n      pop\n        /* \"contracts/mirrorseaMain.sol\":5051:5196  for (uint256 i = (_row * _page) - _page; i < _row * _page; i++) {... */\n      jump(tag_195)\n    tag_196:\n      pop\n        /* \"contracts/mirrorseaMain.sol\":5212:5219  newList */\n      swap2\n      swap8\n        /* \"contracts/mirrorseaMain.sol\":4475:5226  function pagination(... */\n      swap7\n      pop\n      pop\n      pop\n      pop\n      pop\n      pop\n      pop\n      jump\t// out\n        /* \"contracts/mirrorseaMain.sol\":1320:1352  uint256[] public openOrderIdList */\n    tag_51:\n      0x6c\n      dup2\n      dup2\n      sload\n      dup2\n      lt\n      tag_208\n      jumpi\n      0x00\n      dup1\n      revert\n    tag_208:\n      0x00\n      swap2\n      dup3\n      mstore\n      0x20\n      swap1\n      swap2\n      keccak256\n      add\n      sload\n      swap1\n      pop\n      dup2\n      jump\t// out\n        /* \"contracts/mirrorseaMain.sol\":2972:3149  function setExecutor(address _address, bool _type)... */\n    tag_57:\n        /* \"contracts/mirrorseaMain.sol\":3075:3079  bool */\n      0x00\n        /* \"@openzeppelin/contracts-upgradeable/access/OwnableUpgradeable.sol\":1525:1537  _msgSender() */\n      tag_211\n        /* \"@openzeppelin/contracts-upgradeable/access/OwnableUpgradeable.sol\":1525:1535  _msgSender */\n      tag_212\n        /* \"@openzeppelin/contracts-upgradeable/access/OwnableUpgradeable.sol\":1525:1537  _msgSender() */\n      jump\t// in\n    tag_211:\n      sub(shl(0xa0, 0x01), 0x01)\n        /* \"@openzeppelin/contracts-upgradeable/access/OwnableUpgradeable.sol\":1514:1537  owner() == _msgSender() */\n      and\n        /* \"@openzeppelin/contracts-upgradeable/access/OwnableUpgradeable.sol\":1514:1521  owner() */\n      tag_213\n        /* \"@openzeppelin/contracts-upgradeable/access/OwnableUpgradeable.sol\":1514:1519  owner */\n      tag_119\n        /* \"@openzeppelin/contracts-upgradeable/access/OwnableUpgradeable.sol\":1514:1521  owner() */\n      jump\t// in\n    tag_213:\n      sub(shl(0xa0, 0x01), 0x01)\n        /* \"@openzeppelin/contracts-upgradeable/access/OwnableUpgradeable.sol\":1514:1537  owner() == _msgSender() */\n      and\n      eq\n        /* \"@openzeppelin/contracts-upgradeable/access/OwnableUpgradeable.sol\":1506:1574  require(owner() == _msgSender(), \"Ownable: caller is not the owner\") */\n      tag_214\n      jumpi\n      mload(0x40)\n      shl(0xe5, 0x461bcd)\n      dup2\n      mstore\n      0x04\n      add\n      tag_193\n      swap1\n      tag_216\n      jump\t// in\n    tag_214:\n      pop\n      sub(shl(0xa0, 0x01), 0x01)\n        /* \"contracts/mirrorseaMain.sol\":3095:3113  executor[_address] */\n      dup3\n      and\n      0x00\n      swap1\n      dup2\n      mstore\n        /* \"contracts/mirrorseaMain.sol\":3095:3103  executor */\n      0x65\n        /* \"contracts/mirrorseaMain.sol\":3095:3113  executor[_address] */\n      0x20\n      mstore\n      0x40\n      swap1\n      keccak256\n        /* \"contracts/mirrorseaMain.sol\":3095:3121  executor[_address] = _type */\n      dup1\n      sload\n      dup3\n      iszero\n      iszero\n      not(0xff)\n      swap1\n      swap2\n      and\n      or\n      swap1\n      sstore\n      0x01\n        /* \"contracts/mirrorseaMain.sol\":2972:3149  function setExecutor(address _address, bool _type)... */\n      swap3\n      swap2\n      pop\n      pop\n      jump\t// out\n        /* \"contracts/mirrorseaMain.sol\":1169:1200  IhelperLogic public helperLogic */\n    tag_61:\n      and(sub(shl(0xa0, 0x01), 0x01), sload(0x68))\n      dup2\n      jump\t// out\n        /* \"contracts/mirrorseaMain.sol\":1108:1129  address public signer */\n    tag_65:\n      and(sub(shl(0xa0, 0x01), 0x01), sload(0x66))\n      dup2\n      jump\t// out\n        /* \"contracts/mirrorseaMain.sol\":1135:1163  IERC20Upgradeable public usc */\n    tag_69:\n      and(sub(shl(0xa0, 0x01), 0x01), sload(0x67))\n      dup2\n      jump\t// out\n        /* \"contracts/mirrorseaMain.sol\":1358:1414  mapping(uint256 => uint256) public openOrderIdList_index */\n    tag_74:\n      mstore(0x20, 0x6d)\n      0x00\n      swap1\n      dup2\n      mstore\n      0x40\n      swap1\n      keccak256\n      sload\n      dup2\n      jump\t// out\n        /* \"contracts/mirrorseaMain.sol\":5232:6930  function openPosition(... */\n    tag_79:\n        /* \"contracts/mirrorseaMain.sol\":5523:5533  OrderIndex */\n      sload(0x6b)\n        /* \"contracts/mirrorseaMain.sol\":5470:5474  bool */\n      0x00\n        /* \"contracts/mirrorseaMain.sol\":5512:5534  _orderInfo[OrderIndex] */\n      swap1\n      dup2\n      mstore\n        /* \"contracts/mirrorseaMain.sol\":5512:5522  _orderInfo */\n      0x6a\n        /* \"contracts/mirrorseaMain.sol\":5512:5534  _orderInfo[OrderIndex] */\n      0x20\n      mstore\n      0x40\n      dup2\n      keccak256\n        /* \"contracts/mirrorseaMain.sol\":5552:5563  order.state */\n      0x03\n      dup2\n      add\n      sload\n        /* \"contracts/mirrorseaMain.sol\":5552:5568  order.state == 0 */\n      iszero\n        /* \"contracts/mirrorseaMain.sol\":5544:5582  require(order.state == 0, \"state err\") */\n      tag_219\n      jumpi\n      mload(0x40)\n      shl(0xe5, 0x461bcd)\n      dup2\n      mstore\n      0x04\n      add\n      tag_193\n      swap1\n      tag_221\n      jump\t// in\n    tag_219:\n        /* \"contracts/mirrorseaMain.sol\":5613:5619  oracle */\n      sload(0x69)\n        /* \"contracts/mirrorseaMain.sol\":5613:5670  oracle.getkey(_price18, _timestamp, _symbols, _signature) */\n      mload(0x40)\n      shl(0xe0, 0x81952f3b)\n      dup2\n      mstore\n      sub(shl(0xa0, 0x01), 0x01)\n        /* \"contracts/mirrorseaMain.sol\":5613:5619  oracle */\n      swap1\n      swap2\n      and\n      swap1\n        /* \"contracts/mirrorseaMain.sol\":5613:5626  oracle.getkey */\n      0x81952f3b\n      swap1\n        /* \"contracts/mirrorseaMain.sol\":5613:5670  oracle.getkey(_price18, _timestamp, _symbols, _signature) */\n      tag_222\n      swap1\n        /* \"contracts/mirrorseaMain.sol\":5627:5635  _price18 */\n      dup9\n      swap1\n        /* \"contracts/mirrorseaMain.sol\":5637:5647  _timestamp */\n      dup14\n      swap1\n        /* \"contracts/mirrorseaMain.sol\":5649:5657  _symbols */\n      dup12\n      swap1\n        /* \"contracts/mirrorseaMain.sol\":5659:5669  _signature */\n      dup10\n      swap1\n        /* \"contracts/mirrorseaMain.sol\":5613:5670  oracle.getkey(_price18, _timestamp, _symbols, _signature) */\n      0x04\n      add\n      tag_223\n      jump\t// in\n    tag_222:\n      0x20\n      mload(0x40)\n      dup1\n      dup4\n      sub\n      dup2\n      dup7\n      dup1\n      extcodesize\n      iszero\n      dup1\n      iszero\n      tag_224\n      jumpi\n      0x00\n      dup1\n      revert\n    tag_224:\n      pop\n      gas\n      staticcall\n      iszero\n      dup1\n      iszero\n      tag_226\n      jumpi\n      returndatasize\n      0x00\n      dup1\n      returndatacopy\n      revert(0x00, returndatasize)\n    tag_226:\n      pop\n      pop\n      pop\n      pop\n      mload(0x40)\n      returndatasize\n      not(0x1f)\n      0x1f\n      dup3\n      add\n      and\n      dup3\n      add\n      dup1\n      0x40\n      mstore\n      pop\n      dup2\n      add\n      swap1\n      tag_227\n      swap2\n      swap1\n      tag_228\n      jump\t// in\n    tag_227:\n        /* \"contracts/mirrorseaMain.sol\":5592:5706  require(... */\n      tag_229\n      jumpi\n      mload(0x40)\n      shl(0xe5, 0x461bcd)\n      dup2\n      mstore\n      0x04\n      add\n      tag_193\n      swap1\n      tag_231\n      jump\t// in\n    tag_229:\n        /* \"contracts/mirrorseaMain.sol\":5758:5764  minVal */\n      sload(0x74)\n        /* \"contracts/mirrorseaMain.sol\":5737:5755  _amt.mul(_price18) */\n      tag_232\n        /* \"contracts/mirrorseaMain.sol\":5737:5741  _amt */\n      dup6\n        /* \"contracts/mirrorseaMain.sol\":5746:5754  _price18 */\n      dup8\n        /* \"contracts/mirrorseaMain.sol\":5737:5745  _amt.mul */\n      tag_233\n        /* \"contracts/mirrorseaMain.sol\":5737:5755  _amt.mul(_price18) */\n      jump\t// in\n    tag_232:\n        /* \"contracts/mirrorseaMain.sol\":5737:5764  _amt.mul(_price18) > minVal */\n      gt\n        /* \"contracts/mirrorseaMain.sol\":5716:5825  require(... */\n      tag_234\n      jumpi\n      mload(0x40)\n      shl(0xe5, 0x461bcd)\n      dup2\n      mstore\n      0x04\n      add\n      tag_193\n      swap1\n      tag_236\n      jump\t// in\n    tag_234:\n        /* \"contracts/mirrorseaMain.sol\":5836:5903  usc.safeTransferFrom(msg.sender, address(this), _amt.mul(_price18)) */\n      tag_237\n        /* \"contracts/mirrorseaMain.sol\":5857:5867  msg.sender */\n      caller\n        /* \"contracts/mirrorseaMain.sol\":5877:5881  this */\n      address\n        /* \"contracts/mirrorseaMain.sol\":5884:5902  _amt.mul(_price18) */\n      tag_238\n        /* \"contracts/mirrorseaMain.sol\":5884:5888  _amt */\n      dup8\n        /* \"contracts/mirrorseaMain.sol\":5893:5901  _price18 */\n      dup10\n        /* \"contracts/mirrorseaMain.sol\":5884:5892  _amt.mul */\n      tag_233\n        /* \"contracts/mirrorseaMain.sol\":5884:5902  _amt.mul(_price18) */\n      jump\t// in\n    tag_238:\n        /* \"contracts/mirrorseaMain.sol\":5836:5839  usc */\n      and(sub(shl(0xa0, 0x01), 0x01), sload(0x67))\n      swap3\n        /* \"contracts/mirrorseaMain.sol\":5836:5903  usc.safeTransferFrom(msg.sender, address(this), _amt.mul(_price18)) */\n      swap2\n      swap1\n        /* \"contracts/mirrorseaMain.sol\":5836:5856  usc.safeTransferFrom */\n      tag_239\n        /* \"contracts/mirrorseaMain.sol\":5836:5903  usc.safeTransferFrom(msg.sender, address(this), _amt.mul(_price18)) */\n      jump\t// in\n    tag_237:\n        /* \"contracts/mirrorseaMain.sol\":5936:5939  usc */\n      sload(0x67)\n        /* \"contracts/mirrorseaMain.sol\":5936:5964  usc.balanceOf(address(this)) */\n      mload(0x40)\n      shl(0xe0, 0x70a08231)\n      dup2\n      mstore\n        /* \"contracts/mirrorseaMain.sol\":5913:5933  uint256 uscBalanceOf */\n      0x00\n      swap2\n      sub(shl(0xa0, 0x01), 0x01)\n        /* \"contracts/mirrorseaMain.sol\":5936:5939  usc */\n      and\n      swap1\n        /* \"contracts/mirrorseaMain.sol\":5936:5949  usc.balanceOf */\n      0x70a08231\n      swap1\n        /* \"contracts/mirrorseaMain.sol\":5936:5964  usc.balanceOf(address(this)) */\n      tag_240\n      swap1\n        /* \"contracts/mirrorseaMain.sol\":5958:5962  this */\n      address\n      swap1\n        /* \"contracts/mirrorseaMain.sol\":5936:5964  usc.balanceOf(address(this)) */\n      0x04\n      add\n      tag_67\n      jump\t// in\n    tag_240:\n      0x20\n      mload(0x40)\n      dup1\n      dup4\n      sub\n      dup2\n      dup7\n      dup1\n      extcodesize\n      iszero\n      dup1\n      iszero\n      tag_241\n      jumpi\n      0x00\n      dup1\n      revert\n    tag_241:\n      pop\n      gas\n      staticcall\n      iszero\n      dup1\n      iszero\n      tag_243\n      jumpi\n      returndatasize\n      0x00\n      dup1\n      returndatacopy\n      revert(0x00, returndatasize)\n    tag_243:\n      pop\n      pop\n      pop\n      pop\n      mload(0x40)\n      returndatasize\n      not(0x1f)\n      0x1f\n      dup3\n      add\n      and\n      dup3\n      add\n      dup1\n      0x40\n      mstore\n      pop\n      dup2\n      add\n      swap1\n      tag_244\n      swap2\n      swap1\n      tag_245\n      jump\t// in\n    tag_244:\n        /* \"contracts/mirrorseaMain.sol\":5913:5964  uint256 uscBalanceOf = usc.balanceOf(address(this)) */\n      swap1\n      pop\n        /* \"contracts/mirrorseaMain.sol\":5974:5985  uint256 fee */\n      0x00\n        /* \"contracts/mirrorseaMain.sol\":5988:6031  uscBalanceOf.mul(feePercent).div(PRECISION) */\n      tag_246\n        /* \"contracts/mirrorseaMain.sol\":6021:6030  PRECISION */\n      sload(0x73)\n        /* \"contracts/mirrorseaMain.sol\":5988:6016  uscBalanceOf.mul(feePercent) */\n      tag_247\n        /* \"contracts/mirrorseaMain.sol\":6005:6015  feePercent */\n      sload(0x72)\n        /* \"contracts/mirrorseaMain.sol\":5988:6000  uscBalanceOf */\n      dup6\n        /* \"contracts/mirrorseaMain.sol\":5988:6004  uscBalanceOf.mul */\n      tag_233\n      swap1\n        /* \"contracts/mirrorseaMain.sol\":5988:6016  uscBalanceOf.mul(feePercent) */\n      swap2\n      swap1\n      0xffffffff\n      and\n      jump\t// in\n    tag_247:\n        /* \"contracts/mirrorseaMain.sol\":5988:6020  uscBalanceOf.mul(feePercent).div */\n      swap1\n      tag_248\n        /* \"contracts/mirrorseaMain.sol\":5988:6031  uscBalanceOf.mul(feePercent).div(PRECISION) */\n      jump\t// in\n    tag_246:\n        /* \"contracts/mirrorseaMain.sol\":6066:6077  helperLogic */\n      sload(0x68)\n        /* \"contracts/mirrorseaMain.sol\":6041:6044  usc */\n      sload(0x67)\n        /* \"contracts/mirrorseaMain.sol\":5974:6031  uint256 fee = uscBalanceOf.mul(feePercent).div(PRECISION) */\n      swap2\n      swap3\n      pop\n        /* \"contracts/mirrorseaMain.sol\":6041:6084  usc.safeTransfer(address(helperLogic), fee) */\n      tag_249\n      swap2\n      sub(shl(0xa0, 0x01), 0x01)\n        /* \"contracts/mirrorseaMain.sol\":6041:6044  usc */\n      swap1\n      dup2\n      and\n      swap2\n        /* \"contracts/mirrorseaMain.sol\":6066:6077  helperLogic */\n      and\n        /* \"contracts/mirrorseaMain.sol\":5974:6031  uint256 fee = uscBalanceOf.mul(feePercent).div(PRECISION) */\n      dup4\n        /* \"contracts/mirrorseaMain.sol\":6041:6057  usc.safeTransfer */\n      tag_250\n        /* \"contracts/mirrorseaMain.sol\":6041:6084  usc.safeTransfer(address(helperLogic), fee) */\n      jump\t// in\n    tag_249:\n        /* \"contracts/mirrorseaMain.sol\":6094:6105  helperLogic */\n      0x68\n      0x00\n      swap1\n      sload\n      swap1\n      0x0100\n      exp\n      swap1\n      div\n      sub(shl(0xa0, 0x01), 0x01)\n      and\n      sub(shl(0xa0, 0x01), 0x01)\n        /* \"contracts/mirrorseaMain.sol\":6094:6120  helperLogic.jointExecution */\n      and\n      0xd10c06a2\n        /* \"contracts/mirrorseaMain.sol\":6094:6122  helperLogic.jointExecution() */\n      mload(0x40)\n      dup2\n      0xffffffff\n      and\n      0xe0\n      shl\n      dup2\n      mstore\n      0x04\n      add\n      0x20\n      mload(0x40)\n      dup1\n      dup4\n      sub\n      dup2\n      0x00\n      dup8\n      dup1\n      extcodesize\n      iszero\n      dup1\n      iszero\n      tag_251\n      jumpi\n      0x00\n      dup1\n      revert\n    tag_251:\n      pop\n      gas\n      call\n      iszero\n      dup1\n      iszero\n      tag_253\n      jumpi\n      returndatasize\n      0x00\n      dup1\n      returndatacopy\n      revert(0x00, returndatasize)\n    tag_253:\n      pop\n      pop\n      pop\n      pop\n      mload(0x40)\n      returndatasize\n      not(0x1f)\n      0x1f\n      dup3\n      add\n      and\n      dup3\n      add\n      dup1\n      0x40\n      mstore\n      pop\n      dup2\n      add\n      swap1\n      tag_254\n      swap2\n      swap1\n      tag_228\n      jump\t// in\n    tag_254:\n      pop\n        /* \"contracts/mirrorseaMain.sol\":6145:6148  usc */\n      and(sub(shl(0xa0, 0x01), 0x01), sload(0x67))\n        /* \"contracts/mirrorseaMain.sol\":6132:6155  IUSC(address(usc)).burn */\n      0x42966c68\n        /* \"contracts/mirrorseaMain.sol\":6156:6177  uscBalanceOf.sub(fee) */\n      tag_255\n        /* \"contracts/mirrorseaMain.sol\":6156:6168  uscBalanceOf */\n      dup5\n        /* \"contracts/mirrorseaMain.sol\":6173:6176  fee */\n      dup5\n        /* \"contracts/mirrorseaMain.sol\":6156:6172  uscBalanceOf.sub */\n      tag_256\n        /* \"contracts/mirrorseaMain.sol\":6156:6177  uscBalanceOf.sub(fee) */\n      jump\t// in\n    tag_255:\n        /* \"contracts/mirrorseaMain.sol\":6132:6178  IUSC(address(usc)).burn(uscBalanceOf.sub(fee)) */\n      mload(0x40)\n      dup3\n      0xffffffff\n      and\n      0xe0\n      shl\n      dup2\n      mstore\n      0x04\n      add\n      tag_257\n      swap2\n      swap1\n      tag_53\n      jump\t// in\n    tag_257:\n      0x00\n      mload(0x40)\n      dup1\n      dup4\n      sub\n      dup2\n      0x00\n      dup8\n      dup1\n      extcodesize\n      iszero\n      dup1\n      iszero\n      tag_258\n      jumpi\n      0x00\n      dup1\n      revert\n    tag_258:\n      pop\n      gas\n      call\n      iszero\n      dup1\n      iszero\n      tag_260\n      jumpi\n      returndatasize\n      0x00\n      dup1\n      returndatacopy\n      revert(0x00, returndatasize)\n    tag_260:\n      pop\n      pop\n        /* \"contracts/mirrorseaMain.sol\":6210:6220  OrderIndex */\n      sload(0x6b)\n        /* \"contracts/mirrorseaMain.sol\":6189:6204  openOrderIdList */\n      0x6c\n        /* \"contracts/mirrorseaMain.sol\":6189:6221  openOrderIdList.push(OrderIndex) */\n      dup1\n      sload\n      0x01\n      dup2\n      dup2\n      add\n      dup4\n      sstore\n      0x00\n      dup4\n      swap1\n      mstore\n      0x2b4a51ab505fc96a0952efda2ba61bcd3078d4c02c39a186ec16f21883fbe016\n      swap1\n      swap2\n      add\n      swap3\n      swap1\n      swap3\n      sstore\n        /* \"contracts/mirrorseaMain.sol\":6267:6289  openOrderIdList.length */\n      sload\n        /* \"contracts/mirrorseaMain.sol\":6267:6296  openOrderIdList.length.sub(1) */\n      tag_262\n      swap4\n      pop\n        /* \"contracts/mirrorseaMain.sol\":6267:6289  openOrderIdList.length */\n      swap2\n      pop\n        /* \"contracts/mirrorseaMain.sol\":6267:6293  openOrderIdList.length.sub */\n      tag_256\n        /* \"contracts/mirrorseaMain.sol\":6267:6296  openOrderIdList.length.sub(1) */\n      jump\t// in\n    tag_262:\n        /* \"contracts/mirrorseaMain.sol\":6253:6263  OrderIndex */\n      0x6b\n      dup1\n      sload\n        /* \"contracts/mirrorseaMain.sol\":6231:6264  openOrderIdList_index[OrderIndex] */\n      0x00\n      swap1\n      dup2\n      mstore\n        /* \"contracts/mirrorseaMain.sol\":6231:6252  openOrderIdList_index */\n      0x6d\n        /* \"contracts/mirrorseaMain.sol\":6231:6264  openOrderIdList_index[OrderIndex] */\n      0x20\n      swap1\n      dup2\n      mstore\n      0x40\n      dup1\n      dup4\n      keccak256\n        /* \"contracts/mirrorseaMain.sol\":6231:6296  openOrderIdList_index[OrderIndex] = openOrderIdList.length.sub(1) */\n      swap5\n      swap1\n      swap5\n      sstore\n        /* \"contracts/mirrorseaMain.sol\":6325:6335  msg.sender */\n      caller\n        /* \"contracts/mirrorseaMain.sol\":6307:6336  myOpenOrderIdList[msg.sender] */\n      dup1\n      dup4\n      mstore\n        /* \"contracts/mirrorseaMain.sol\":6307:6324  myOpenOrderIdList */\n      0x6e\n        /* \"contracts/mirrorseaMain.sol\":6307:6336  myOpenOrderIdList[msg.sender] */\n      dup1\n      dup4\n      mstore\n      dup6\n      dup5\n      keccak256\n        /* \"contracts/mirrorseaMain.sol\":6342:6352  OrderIndex */\n      dup6\n      sload\n        /* \"contracts/mirrorseaMain.sol\":6307:6353  myOpenOrderIdList[msg.sender].push(OrderIndex) */\n      dup2\n      sload\n      0x01\n      dup2\n      dup2\n      add\n      dup5\n      sstore\n      dup4\n      dup9\n      mstore\n      dup7\n      dup9\n      keccak256\n      swap1\n      swap2\n      add\n      swap2\n      swap1\n      swap2\n      sstore\n        /* \"contracts/mirrorseaMain.sol\":6468:6478  OrderIndex */\n      swap6\n      sload\n        /* \"contracts/mirrorseaMain.sol\":6363:6398  myOpenOrderIdList_index[msg.sender] */\n      swap3\n      dup6\n      mstore\n        /* \"contracts/mirrorseaMain.sol\":6363:6386  myOpenOrderIdList_index */\n      0x6f\n        /* \"contracts/mirrorseaMain.sol\":6363:6398  myOpenOrderIdList_index[msg.sender] */\n      dup5\n      mstore\n      swap6\n      dup5\n      keccak256\n        /* \"contracts/mirrorseaMain.sol\":6412:6441  myOpenOrderIdList[msg.sender] */\n      swap3\n      mstore\n        /* \"contracts/mirrorseaMain.sol\":6412:6448  myOpenOrderIdList[msg.sender].length */\n      swap4\n      sload\n        /* \"contracts/mirrorseaMain.sol\":6363:6398  myOpenOrderIdList_index[msg.sender] */\n      swap1\n      swap3\n        /* \"contracts/mirrorseaMain.sol\":6412:6455  myOpenOrderIdList[msg.sender].length.sub(1) */\n      tag_264\n      swap2\n        /* \"contracts/mirrorseaMain.sol\":6412:6448  myOpenOrderIdList[msg.sender].length */\n      swap1\n        /* \"contracts/mirrorseaMain.sol\":6412:6452  myOpenOrderIdList[msg.sender].length.sub */\n      tag_256\n        /* \"contracts/mirrorseaMain.sol\":6412:6455  myOpenOrderIdList[msg.sender].length.sub(1) */\n      jump\t// in\n    tag_264:\n        /* \"contracts/mirrorseaMain.sol\":6363:6465  myOpenOrderIdList_index[msg.sender][... */\n      dup2\n      mstore\n      0x20\n      add\n      swap1\n      dup2\n      mstore\n      0x20\n      add\n      0x00\n      keccak256\n        /* \"contracts/mirrorseaMain.sol\":6363:6478  myOpenOrderIdList_index[msg.sender][... */\n      dup2\n      swap1\n      sstore\n      pop\n        /* \"contracts/mirrorseaMain.sol\":6489:6499  OrderIndex */\n      0x6b\n      0x00\n        /* \"contracts/mirrorseaMain.sol\":6489:6501  OrderIndex++ */\n      dup2\n      sload\n      dup1\n      swap3\n      swap2\n      swap1\n      tag_265\n      swap1\n      tag_207\n      jump\t// in\n    tag_265:\n      swap1\n      swap2\n      sstore\n      pop\n      pop\n        /* \"contracts/mirrorseaMain.sol\":6512:6535  order.user = msg.sender */\n      dup3\n      sload\n      not(sub(shl(0xa0, 0x01), 0x01))\n      and\n        /* \"contracts/mirrorseaMain.sol\":6525:6535  msg.sender */\n      caller\n        /* \"contracts/mirrorseaMain.sol\":6512:6535  order.user = msg.sender */\n      or\n      dup4\n      sstore\n      0x01\n        /* \"contracts/mirrorseaMain.sol\":6545:6556  order._type */\n      dup4\n      add\n        /* \"contracts/mirrorseaMain.sol\":6545:6564  order._type = _type */\n      dup10\n      swap1\n      sstore\n        /* \"contracts/mirrorseaMain.sol\":6574:6598  order.symbols = _symbols */\n      dup8\n      mload\n      tag_266\n      swap1\n        /* \"contracts/mirrorseaMain.sol\":6574:6587  order.symbols */\n      0x02\n      dup6\n      add\n      swap1\n        /* \"contracts/mirrorseaMain.sol\":6574:6598  order.symbols = _symbols */\n      0x20\n      dup12\n      add\n      swap1\n      tag_267\n      jump\t// in\n    tag_266:\n      pop\n        /* \"contracts/mirrorseaMain.sol\":6622:6623  1 */\n      0x01\n        /* \"contracts/mirrorseaMain.sol\":6608:6619  order.state */\n      0x03\n      dup5\n      add\n        /* \"contracts/mirrorseaMain.sol\":6608:6623  order.state = 1 */\n      sstore\n        /* \"contracts/mirrorseaMain.sol\":6709:6724  order.direction */\n      0x04\n      dup4\n      add\n        /* \"contracts/mirrorseaMain.sol\":6709:6737  order.direction = _direction */\n      dup11\n      swap1\n      sstore\n        /* \"contracts/mirrorseaMain.sol\":6764:6781  order.openPrice18 */\n      0x05\n      dup4\n      add\n        /* \"contracts/mirrorseaMain.sol\":6764:6792  order.openPrice18 = _price18 */\n      dup8\n      swap1\n      sstore\n        /* \"contracts/mirrorseaMain.sol\":6802:6816  order.openTime */\n      0x06\n      dup4\n      add\n        /* \"contracts/mirrorseaMain.sol\":6802:6829  order.openTime = _timestamp */\n      dup12\n      swap1\n      sstore\n        /* \"contracts/mirrorseaMain.sol\":6839:6848  order.amt */\n      0x09\n      dup4\n      add\n        /* \"contracts/mirrorseaMain.sol\":6839:6855  order.amt = _amt */\n      dup7\n      swap1\n      sstore\n        /* \"contracts/mirrorseaMain.sol\":6880:6901  uscBalanceOf.sub(fee) */\n      tag_268\n        /* \"contracts/mirrorseaMain.sol\":6880:6892  uscBalanceOf */\n      dup3\n        /* \"contracts/mirrorseaMain.sol\":6897:6900  fee */\n      dup3\n        /* \"contracts/mirrorseaMain.sol\":6880:6896  uscBalanceOf.sub */\n      tag_256\n        /* \"contracts/mirrorseaMain.sol\":6880:6901  uscBalanceOf.sub(fee) */\n      jump\t// in\n    tag_268:\n        /* \"contracts/mirrorseaMain.sol\":6865:6877  order.margin */\n      0x0a\n      swap1\n      swap4\n      add\n        /* \"contracts/mirrorseaMain.sol\":6865:6901  order.margin = uscBalanceOf.sub(fee) */\n      swap3\n      swap1\n      swap3\n      sstore\n      pop\n        /* \"contracts/mirrorseaMain.sol\":6919:6923  true */\n      0x01\n      swap10\n        /* \"contracts/mirrorseaMain.sol\":5232:6930  function openPosition(... */\n      swap9\n      pop\n      pop\n      pop\n      pop\n      pop\n      pop\n      pop\n      pop\n      pop\n      jump\t// out\n        /* \"contracts/mirrorseaMain.sol\":1062:1102  mapping(address => bool) public executor */\n    tag_84:\n      mstore(0x20, 0x65)\n      0x00\n      swap1\n      dup2\n      mstore\n      0x40\n      swap1\n      keccak256\n      sload\n      0xff\n      and\n      dup2\n      jump\t// out\n        /* \"contracts/mirrorseaMain.sol\":3576:3688  function orderInfo(uint256 _id) external view returns (OrderInfo memory) {... */\n    tag_88:\n        /* \"contracts/mirrorseaMain.sol\":3631:3647  OrderInfo memory */\n      tag_269\n      tag_270\n      jump\t// in\n    tag_269:\n        /* \"contracts/mirrorseaMain.sol\":3666:3681  _orderInfo[_id] */\n      0x00\n      dup3\n      dup2\n      mstore\n        /* \"contracts/mirrorseaMain.sol\":3666:3676  _orderInfo */\n      0x6a\n        /* \"contracts/mirrorseaMain.sol\":3666:3681  _orderInfo[_id] */\n      0x20\n      swap1\n      dup2\n      mstore\n      0x40\n      swap2\n      dup3\n      swap1\n      keccak256\n        /* \"contracts/mirrorseaMain.sol\":3659:3681  return _orderInfo[_id] */\n      dup3\n      mload\n      0x0160\n      dup2\n      add\n      dup5\n      mstore\n      dup2\n      sload\n      sub(shl(0xa0, 0x01), 0x01)\n      and\n      dup2\n      mstore\n      0x01\n      dup3\n      add\n      sload\n      swap3\n      dup2\n      add\n      swap3\n      swap1\n      swap3\n      mstore\n      0x02\n      dup2\n      add\n      dup1\n      sload\n      swap3\n      swap4\n        /* \"contracts/mirrorseaMain.sol\":3666:3681  _orderInfo[_id] */\n      swap2\n      swap3\n        /* \"contracts/mirrorseaMain.sol\":3659:3681  return _orderInfo[_id] */\n      swap2\n      dup5\n      add\n      swap2\n      tag_272\n      swap1\n      tag_273\n      jump\t// in\n    tag_272:\n      dup1\n      0x1f\n      add\n      0x20\n      dup1\n      swap2\n      div\n      mul\n      0x20\n      add\n      mload(0x40)\n      swap1\n      dup2\n      add\n      0x40\n      mstore\n      dup1\n      swap3\n      swap2\n      swap1\n      dup2\n      dup2\n      mstore\n      0x20\n      add\n      dup3\n      dup1\n      sload\n      tag_274\n      swap1\n      tag_273\n      jump\t// in\n    tag_274:\n      dup1\n      iszero\n      tag_275\n      jumpi\n      dup1\n      0x1f\n      lt\n      tag_276\n      jumpi\n      0x0100\n      dup1\n      dup4\n      sload\n      div\n      mul\n      dup4\n      mstore\n      swap2\n      0x20\n      add\n      swap2\n      jump(tag_275)\n    tag_276:\n      dup3\n      add\n      swap2\n      swap1\n      0x00\n      mstore\n      keccak256(0x00, 0x20)\n      swap1\n    tag_277:\n      dup2\n      sload\n      dup2\n      mstore\n      swap1\n      0x01\n      add\n      swap1\n      0x20\n      add\n      dup1\n      dup4\n      gt\n      tag_277\n      jumpi\n      dup3\n      swap1\n      sub\n      0x1f\n      and\n      dup3\n      add\n      swap2\n    tag_275:\n      pop\n      pop\n      pop\n      pop\n      pop\n      dup2\n      mstore\n      0x20\n      add\n      0x03\n      dup3\n      add\n      sload\n      dup2\n      mstore\n      0x20\n      add\n      0x04\n      dup3\n      add\n      sload\n      dup2\n      mstore\n      0x20\n      add\n      0x05\n      dup3\n      add\n      sload\n      dup2\n      mstore\n      0x20\n      add\n      0x06\n      dup3\n      add\n      sload\n      dup2\n      mstore\n      0x20\n      add\n      0x07\n      dup3\n      add\n      sload\n      dup2\n      mstore\n      0x20\n      add\n      0x08\n      dup3\n      add\n      sload\n      dup2\n      mstore\n      0x20\n      add\n      0x09\n      dup3\n      add\n      sload\n      dup2\n      mstore\n      0x20\n      add\n      0x0a\n      dup3\n      add\n      sload\n      dup2\n      mstore\n      pop\n      pop\n      swap1\n      pop\n        /* \"contracts/mirrorseaMain.sol\":3576:3688  function orderInfo(uint256 _id) external view returns (OrderInfo memory) {... */\n    tag_271:\n      swap2\n      swap1\n      pop\n      jump\t// out\n        /* \"contracts/mirrorseaMain.sol\":3444:3570  function setSigner(address _address) external onlyOwner returns (bool) {... */\n    tag_93:\n        /* \"contracts/mirrorseaMain.sol\":3509:3513  bool */\n      0x00\n        /* \"@openzeppelin/contracts-upgradeable/access/OwnableUpgradeable.sol\":1525:1537  _msgSender() */\n      tag_279\n        /* \"@openzeppelin/contracts-upgradeable/access/OwnableUpgradeable.sol\":1525:1535  _msgSender */\n      tag_212\n        /* \"@openzeppelin/contracts-upgradeable/access/OwnableUpgradeable.sol\":1525:1537  _msgSender() */\n      jump\t// in\n    tag_279:\n      sub(shl(0xa0, 0x01), 0x01)\n        /* \"@openzeppelin/contracts-upgradeable/access/OwnableUpgradeable.sol\":1514:1537  owner() == _msgSender() */\n      and\n        /* \"@openzeppelin/contracts-upgradeable/access/OwnableUpgradeable.sol\":1514:1521  owner() */\n      tag_280\n        /* \"@openzeppelin/contracts-upgradeable/access/OwnableUpgradeable.sol\":1514:1519  owner */\n      tag_119\n        /* \"@openzeppelin/contracts-upgradeable/access/OwnableUpgradeable.sol\":1514:1521  owner() */\n      jump\t// in\n    tag_280:\n      sub(shl(0xa0, 0x01), 0x01)\n        /* \"@openzeppelin/contracts-upgradeable/access/OwnableUpgradeable.sol\":1514:1537  owner() == _msgSender() */\n      and\n      eq\n        /* \"@openzeppelin/contracts-upgradeable/access/OwnableUpgradeable.sol\":1506:1574  require(owner() == _msgSender(), \"Ownable: caller is not the owner\") */\n      tag_281\n      jumpi\n      mload(0x40)\n      shl(0xe5, 0x461bcd)\n      dup2\n      mstore\n      0x04\n      add\n      tag_193\n      swap1\n      tag_216\n      jump\t// in\n    tag_281:\n      pop\n        /* \"contracts/mirrorseaMain.sol\":3525:3531  signer */\n      0x66\n        /* \"contracts/mirrorseaMain.sol\":3525:3542  signer = _address */\n      dup1\n      sload\n      sub(shl(0xa0, 0x01), 0x01)\n      dup4\n      and\n      not(sub(shl(0xa0, 0x01), 0x01))\n      swap1\n      swap2\n      and\n      or\n      swap1\n      sstore\n      0x01\n        /* \"contracts/mirrorseaMain.sol\":3444:3570  function setSigner(address _address) external onlyOwner returns (bool) {... */\n      swap2\n      swap1\n      pop\n      jump\t// out\n        /* \"contracts/mirrorseaMain.sol\":11621:12407  function liquidation(... */\n    tag_98:\n        /* \"contracts/mirrorseaMain.sol\":3206:3216  msg.sender */\n      caller\n        /* \"contracts/mirrorseaMain.sol\":11850:11854  bool */\n      0x00\n        /* \"contracts/mirrorseaMain.sol\":3197:3217  executor[msg.sender] */\n      swap1\n      dup2\n      mstore\n        /* \"contracts/mirrorseaMain.sol\":3197:3205  executor */\n      0x65\n        /* \"contracts/mirrorseaMain.sol\":3197:3217  executor[msg.sender] */\n      0x20\n      mstore\n      0x40\n      dup2\n      keccak256\n      sload\n      0xff\n      and\n        /* \"contracts/mirrorseaMain.sol\":3189:3258  require(executor[msg.sender], \"executor: caller is not the executor\") */\n      tag_285\n      jumpi\n      mload(0x40)\n      shl(0xe5, 0x461bcd)\n      dup2\n      mstore\n      0x04\n      add\n      tag_193\n      swap1\n      tag_287\n      jump\t// in\n    tag_285:\n        /* \"contracts/mirrorseaMain.sol\":11871:11880  uint256 i */\n      0x00\n        /* \"contracts/mirrorseaMain.sol\":11866:12379  for (uint256 i = 0; i < _id.length; i++) {... */\n    tag_289:\n        /* \"contracts/mirrorseaMain.sol\":11890:11893  _id */\n      dup7\n        /* \"contracts/mirrorseaMain.sol\":11890:11900  _id.length */\n      mload\n        /* \"contracts/mirrorseaMain.sol\":11886:11887  i */\n      dup2\n        /* \"contracts/mirrorseaMain.sol\":11886:11900  i < _id.length */\n      lt\n        /* \"contracts/mirrorseaMain.sol\":11866:12379  for (uint256 i = 0; i < _id.length; i++) {... */\n      iszero\n      tag_290\n      jumpi\n        /* \"contracts/mirrorseaMain.sol\":11921:11944  OrderInfo storage order */\n      0x00\n        /* \"contracts/mirrorseaMain.sol\":11947:11957  _orderInfo */\n      0x6a\n        /* \"contracts/mirrorseaMain.sol\":11947:11965  _orderInfo[_id[i]] */\n      0x00\n        /* \"contracts/mirrorseaMain.sol\":11958:11961  _id */\n      dup10\n        /* \"contracts/mirrorseaMain.sol\":11962:11963  i */\n      dup5\n        /* \"contracts/mirrorseaMain.sol\":11958:11964  _id[i] */\n      dup2\n      mload\n      dup2\n      lt\n      tag_292\n      jumpi\n      mstore(0x00, shl(0xe0, 0x4e487b71))\n      mstore(0x04, 0x32)\n      revert(0x00, 0x24)\n    tag_292:\n      0x20\n      mul\n      0x20\n      add\n      add\n      mload\n        /* \"contracts/mirrorseaMain.sol\":11947:11965  _orderInfo[_id[i]] */\n      dup2\n      mstore\n      0x20\n      add\n      swap1\n      dup2\n      mstore\n      0x20\n      add\n      0x00\n      keccak256\n        /* \"contracts/mirrorseaMain.sol\":11921:11965  OrderInfo storage order = _orderInfo[_id[i]] */\n      swap1\n      pop\n        /* \"contracts/mirrorseaMain.sol\":11984:12029  _isSolvent(_id[i], _price18[i], order.margin) */\n      tag_293\n        /* \"contracts/mirrorseaMain.sol\":11995:11998  _id */\n      dup9\n        /* \"contracts/mirrorseaMain.sol\":11999:12000  i */\n      dup4\n        /* \"contracts/mirrorseaMain.sol\":11995:12001  _id[i] */\n      dup2\n      mload\n      dup2\n      lt\n      tag_294\n      jumpi\n      mstore(0x00, shl(0xe0, 0x4e487b71))\n      mstore(0x04, 0x32)\n      revert(0x00, 0x24)\n    tag_294:\n      0x20\n      mul\n      0x20\n      add\n      add\n      mload\n        /* \"contracts/mirrorseaMain.sol\":12003:12011  _price18 */\n      dup7\n        /* \"contracts/mirrorseaMain.sol\":12012:12013  i */\n      dup5\n        /* \"contracts/mirrorseaMain.sol\":12003:12014  _price18[i] */\n      dup2\n      mload\n      dup2\n      lt\n      tag_295\n      jumpi\n      mstore(0x00, shl(0xe0, 0x4e487b71))\n      mstore(0x04, 0x32)\n      revert(0x00, 0x24)\n    tag_295:\n      0x20\n      mul\n      0x20\n      add\n      add\n      mload\n        /* \"contracts/mirrorseaMain.sol\":12016:12021  order */\n      dup4\n        /* \"contracts/mirrorseaMain.sol\":12016:12028  order.margin */\n      0x0a\n      add\n      sload\n        /* \"contracts/mirrorseaMain.sol\":11984:11994  _isSolvent */\n      tag_296\n        /* \"contracts/mirrorseaMain.sol\":11984:12029  _isSolvent(_id[i], _price18[i], order.margin) */\n      jump\t// in\n    tag_293:\n        /* \"contracts/mirrorseaMain.sol\":11979:12369  if (!_isSolvent(_id[i], _price18[i], order.margin)) {... */\n      tag_297\n      jumpi\n        /* \"contracts/mirrorseaMain.sol\":12076:12354  _closePosition(... */\n      tag_298\n        /* \"contracts/mirrorseaMain.sol\":12116:12121  order */\n      dup2\n        /* \"contracts/mirrorseaMain.sol\":12147:12148  3 */\n      0x03\n        /* \"contracts/mirrorseaMain.sol\":12174:12177  _id */\n      dup11\n        /* \"contracts/mirrorseaMain.sol\":12178:12179  i */\n      dup6\n        /* \"contracts/mirrorseaMain.sol\":12174:12180  _id[i] */\n      dup2\n      mload\n      dup2\n      lt\n      tag_299\n      jumpi\n      mstore(0x00, shl(0xe0, 0x4e487b71))\n      mstore(0x04, 0x32)\n      revert(0x00, 0x24)\n    tag_299:\n      0x20\n      mul\n      0x20\n      add\n      add\n      mload\n        /* \"contracts/mirrorseaMain.sol\":12206:12216  _timestamp */\n      dup11\n        /* \"contracts/mirrorseaMain.sol\":12217:12218  i */\n      dup7\n        /* \"contracts/mirrorseaMain.sol\":12206:12219  _timestamp[i] */\n      dup2\n      mload\n      dup2\n      lt\n      tag_300\n      jumpi\n      mstore(0x00, shl(0xe0, 0x4e487b71))\n      mstore(0x04, 0x32)\n      revert(0x00, 0x24)\n    tag_300:\n      0x20\n      mul\n      0x20\n      add\n      add\n      mload\n        /* \"contracts/mirrorseaMain.sol\":12245:12253  _symbols */\n      dup11\n        /* \"contracts/mirrorseaMain.sol\":12254:12255  i */\n      dup8\n        /* \"contracts/mirrorseaMain.sol\":12245:12256  _symbols[i] */\n      dup2\n      mload\n      dup2\n      lt\n      tag_301\n      jumpi\n      mstore(0x00, shl(0xe0, 0x4e487b71))\n      mstore(0x04, 0x32)\n      revert(0x00, 0x24)\n    tag_301:\n      0x20\n      mul\n      0x20\n      add\n      add\n      mload\n        /* \"contracts/mirrorseaMain.sol\":12282:12290  _price18 */\n      dup11\n        /* \"contracts/mirrorseaMain.sol\":12291:12292  i */\n      dup9\n        /* \"contracts/mirrorseaMain.sol\":12282:12293  _price18[i] */\n      dup2\n      mload\n      dup2\n      lt\n      tag_302\n      jumpi\n      mstore(0x00, shl(0xe0, 0x4e487b71))\n      mstore(0x04, 0x32)\n      revert(0x00, 0x24)\n    tag_302:\n      0x20\n      mul\n      0x20\n      add\n      add\n      mload\n        /* \"contracts/mirrorseaMain.sol\":12319:12329  _signature */\n      dup11\n        /* \"contracts/mirrorseaMain.sol\":12330:12331  i */\n      dup10\n        /* \"contracts/mirrorseaMain.sol\":12319:12332  _signature[i] */\n      dup2\n      mload\n      dup2\n      lt\n      tag_303\n      jumpi\n      mstore(0x00, shl(0xe0, 0x4e487b71))\n      mstore(0x04, 0x32)\n      revert(0x00, 0x24)\n    tag_303:\n      0x20\n      mul\n      0x20\n      add\n      add\n      mload\n        /* \"contracts/mirrorseaMain.sol\":12076:12090  _closePosition */\n      tag_304\n        /* \"contracts/mirrorseaMain.sol\":12076:12354  _closePosition(... */\n      jump\t// in\n    tag_298:\n        /* \"contracts/mirrorseaMain.sol\":12049:12354  return... */\n      swap3\n      pop\n      pop\n      pop\n      jump(tag_288)\n        /* \"contracts/mirrorseaMain.sol\":11979:12369  if (!_isSolvent(_id[i], _price18[i], order.margin)) {... */\n    tag_297:\n      pop\n        /* \"contracts/mirrorseaMain.sol\":11902:11905  i++ */\n      dup1\n      tag_305\n      dup2\n      tag_207\n      jump\t// in\n    tag_305:\n      swap2\n      pop\n      pop\n        /* \"contracts/mirrorseaMain.sol\":11866:12379  for (uint256 i = 0; i < _id.length; i++) {... */\n      jump(tag_289)\n    tag_290:\n      pop\n        /* \"contracts/mirrorseaMain.sol\":12396:12400  true */\n      0x01\n        /* \"contracts/mirrorseaMain.sol\":12389:12400  return true */\n      swap1\n      pop\n        /* \"contracts/mirrorseaMain.sol\":3268:3269  _ */\n    tag_288:\n        /* \"contracts/mirrorseaMain.sol\":11621:12407  function liquidation(... */\n      swap6\n      swap5\n      pop\n      pop\n      pop\n      pop\n      pop\n      jump\t// out\n        /* \"@openzeppelin/contracts-upgradeable/access/OwnableUpgradeable.sol\":1934:2035  function renounceOwnership() public virtual onlyOwner {... */\n    tag_101:\n        /* \"@openzeppelin/contracts-upgradeable/access/OwnableUpgradeable.sol\":1525:1537  _msgSender() */\n      tag_307\n        /* \"@openzeppelin/contracts-upgradeable/access/OwnableUpgradeable.sol\":1525:1535  _msgSender */\n      tag_212\n        /* \"@openzeppelin/contracts-upgradeable/access/OwnableUpgradeable.sol\":1525:1537  _msgSender() */\n      jump\t// in\n    tag_307:\n      sub(shl(0xa0, 0x01), 0x01)\n        /* \"@openzeppelin/contracts-upgradeable/access/OwnableUpgradeable.sol\":1514:1537  owner() == _msgSender() */\n      and\n        /* \"@openzeppelin/contracts-upgradeable/access/OwnableUpgradeable.sol\":1514:1521  owner() */\n      tag_308\n        /* \"@openzeppelin/contracts-upgradeable/access/OwnableUpgradeable.sol\":1514:1519  owner */\n      tag_119\n        /* \"@openzeppelin/contracts-upgradeable/access/OwnableUpgradeable.sol\":1514:1521  owner() */\n      jump\t// in\n    tag_308:\n      sub(shl(0xa0, 0x01), 0x01)\n        /* \"@openzeppelin/contracts-upgradeable/access/OwnableUpgradeable.sol\":1514:1537  owner() == _msgSender() */\n      and\n      eq\n        /* \"@openzeppelin/contracts-upgradeable/access/OwnableUpgradeable.sol\":1506:1574  require(owner() == _msgSender(), \"Ownable: caller is not the owner\") */\n      tag_309\n      jumpi\n      mload(0x40)\n      shl(0xe5, 0x461bcd)\n      dup2\n      mstore\n      0x04\n      add\n      tag_193\n      swap1\n      tag_216\n      jump\t// in\n    tag_309:\n        /* \"@openzeppelin/contracts-upgradeable/access/OwnableUpgradeable.sol\":1998:2028  _transferOwnership(address(0)) */\n      tag_312\n        /* \"@openzeppelin/contracts-upgradeable/access/OwnableUpgradeable.sol\":2025:2026  0 */\n      0x00\n        /* \"@openzeppelin/contracts-upgradeable/access/OwnableUpgradeable.sol\":1998:2016  _transferOwnership */\n      tag_313\n        /* \"@openzeppelin/contracts-upgradeable/access/OwnableUpgradeable.sol\":1998:2028  _transferOwnership(address(0)) */\n      jump\t// in\n    tag_312:\n        /* \"@openzeppelin/contracts-upgradeable/access/OwnableUpgradeable.sol\":1934:2035  function renounceOwnership() public virtual onlyOwner {... */\n      jump\t// out\n        /* \"contracts/mirrorseaMain.sol\":1481:1567  mapping(address => mapping(uint256 => uint256))... */\n    tag_105:\n      0x6f\n      0x20\n      swap1\n      dup2\n      mstore\n      0x00\n      swap3\n      dup4\n      mstore\n      0x40\n      dup1\n      dup5\n      keccak256\n      swap1\n      swap2\n      mstore\n      swap1\n      dup3\n      mstore\n      swap1\n      keccak256\n      sload\n      dup2\n      jump\t// out\n        /* \"contracts/mirrorseaMain.sol\":3299:3425  function setFeePercent(uint256 _val) external onlyOwner returns (bool) {... */\n    tag_109:\n        /* \"contracts/mirrorseaMain.sol\":3364:3368  bool */\n      0x00\n        /* \"@openzeppelin/contracts-upgradeable/access/OwnableUpgradeable.sol\":1525:1537  _msgSender() */\n      tag_315\n        /* \"@openzeppelin/contracts-upgradeable/access/OwnableUpgradeable.sol\":1525:1535  _msgSender */\n      tag_212\n        /* \"@openzeppelin/contracts-upgradeable/access/OwnableUpgradeable.sol\":1525:1537  _msgSender() */\n      jump\t// in\n    tag_315:\n      sub(shl(0xa0, 0x01), 0x01)\n        /* \"@openzeppelin/contracts-upgradeable/access/OwnableUpgradeable.sol\":1514:1537  owner() == _msgSender() */\n      and\n        /* \"@openzeppelin/contracts-upgradeable/access/OwnableUpgradeable.sol\":1514:1521  owner() */\n      tag_316\n        /* \"@openzeppelin/contracts-upgradeable/access/OwnableUpgradeable.sol\":1514:1519  owner */\n      tag_119\n        /* \"@openzeppelin/contracts-upgradeable/access/OwnableUpgradeable.sol\":1514:1521  owner() */\n      jump\t// in\n    tag_316:\n      sub(shl(0xa0, 0x01), 0x01)\n        /* \"@openzeppelin/contracts-upgradeable/access/OwnableUpgradeable.sol\":1514:1537  owner() == _msgSender() */\n      and\n      eq\n        /* \"@openzeppelin/contracts-upgradeable/access/OwnableUpgradeable.sol\":1506:1574  require(owner() == _msgSender(), \"Ownable: caller is not the owner\") */\n      tag_317\n      jumpi\n      mload(0x40)\n      shl(0xe5, 0x461bcd)\n      dup2\n      mstore\n      0x04\n      add\n      tag_193\n      swap1\n      tag_216\n      jump\t// in\n    tag_317:\n      pop\n        /* \"contracts/mirrorseaMain.sol\":3380:3390  feePercent */\n      0x72\n        /* \"contracts/mirrorseaMain.sol\":3380:3397  feePercent = _val */\n      sstore\n        /* \"contracts/mirrorseaMain.sol\":3414:3418  true */\n      0x01\n      swap1\n        /* \"contracts/mirrorseaMain.sol\":3299:3425  function setFeePercent(uint256 _val) external onlyOwner returns (bool) {... */\n      jump\t// out\n        /* \"contracts/mirrorseaMain.sol\":1206:1227  IOracle public oracle */\n    tag_112:\n      and(sub(shl(0xa0, 0x01), 0x01), sload(0x69))\n      dup2\n      jump\t// out\n        /* \"contracts/mirrorseaMain.sol\":1729:1754  uint256 public feePercent */\n    tag_116:\n      sload(0x72)\n      dup2\n      jump\t// out\n        /* \"@openzeppelin/contracts-upgradeable/access/OwnableUpgradeable.sol\":1302:1387  function owner() public view virtual returns (address) {... */\n    tag_119:\n        /* \"@openzeppelin/contracts-upgradeable/access/OwnableUpgradeable.sol\":1374:1380  _owner */\n      and(sub(shl(0xa0, 0x01), 0x01), sload(0x33))\n        /* \"@openzeppelin/contracts-upgradeable/access/OwnableUpgradeable.sol\":1302:1387  function owner() public view virtual returns (address) {... */\n      swap1\n      jump\t// out\n        /* \"contracts/mirrorseaMain.sol\":13992:14651  function adjustPosition(... */\n    tag_124:\n        /* \"contracts/mirrorseaMain.sol\":14211:14215  bool */\n      0x00\n        /* \"contracts/mirrorseaMain.sol\":14253:14268  _orderInfo[_id] */\n      dup7\n      dup2\n      mstore\n        /* \"contracts/mirrorseaMain.sol\":14253:14263  _orderInfo */\n      0x6a\n        /* \"contracts/mirrorseaMain.sol\":14253:14268  _orderInfo[_id] */\n      0x20\n      mstore\n      0x40\n      dup2\n      keccak256\n        /* \"contracts/mirrorseaMain.sol\":14286:14296  order.user */\n      dup1\n      sload\n      sub(shl(0xa0, 0x01), 0x01)\n      and\n        /* \"contracts/mirrorseaMain.sol\":14278:14335  require(order.user != address(0), \"order does not exist\") */\n      tag_322\n      jumpi\n      mload(0x40)\n      shl(0xe5, 0x461bcd)\n      dup2\n      mstore\n      0x04\n      add\n      tag_193\n      swap1\n      tag_324\n      jump\t// in\n    tag_322:\n        /* \"contracts/mirrorseaMain.sol\":14367:14368  2 */\n      0x02\n        /* \"contracts/mirrorseaMain.sol\":14353:14358  order */\n      dup2\n        /* \"contracts/mirrorseaMain.sol\":14353:14364  order.state */\n      0x03\n      add\n      sload\n        /* \"contracts/mirrorseaMain.sol\":14353:14368  order.state < 2 */\n      lt\n        /* \"contracts/mirrorseaMain.sol\":14345:14382  require(order.state < 2, \"state err\") */\n      tag_325\n      jumpi\n      mload(0x40)\n      shl(0xe5, 0x461bcd)\n      dup2\n      mstore\n      0x04\n      add\n      tag_193\n      swap1\n      tag_221\n      jump\t// in\n    tag_325:\n        /* \"contracts/mirrorseaMain.sol\":14413:14419  oracle */\n      sload(0x69)\n        /* \"contracts/mirrorseaMain.sol\":14413:14470  oracle.getkey(_price18, _timestamp, _symbols, _signature) */\n      mload(0x40)\n      shl(0xe0, 0x81952f3b)\n      dup2\n      mstore\n      sub(shl(0xa0, 0x01), 0x01)\n        /* \"contracts/mirrorseaMain.sol\":14413:14419  oracle */\n      swap1\n      swap2\n      and\n      swap1\n        /* \"contracts/mirrorseaMain.sol\":14413:14426  oracle.getkey */\n      0x81952f3b\n      swap1\n        /* \"contracts/mirrorseaMain.sol\":14413:14470  oracle.getkey(_price18, _timestamp, _symbols, _signature) */\n      tag_327\n      swap1\n        /* \"contracts/mirrorseaMain.sol\":14427:14435  _price18 */\n      dup9\n      swap1\n        /* \"contracts/mirrorseaMain.sol\":14437:14447  _timestamp */\n      dup12\n      swap1\n        /* \"contracts/mirrorseaMain.sol\":14449:14457  _symbols */\n      dup12\n      swap1\n        /* \"contracts/mirrorseaMain.sol\":14459:14469  _signature */\n      dup11\n      swap1\n        /* \"contracts/mirrorseaMain.sol\":14413:14470  oracle.getkey(_price18, _timestamp, _symbols, _signature) */\n      0x04\n      add\n      tag_223\n      jump\t// in\n    tag_327:\n      0x20\n      mload(0x40)\n      dup1\n      dup4\n      sub\n      dup2\n      dup7\n      dup1\n      extcodesize\n      iszero\n      dup1\n      iszero\n      tag_328\n      jumpi\n      0x00\n      dup1\n      revert\n    tag_328:\n      pop\n      gas\n      staticcall\n      iszero\n      dup1\n      iszero\n      tag_330\n      jumpi\n      returndatasize\n      0x00\n      dup1\n      returndatacopy\n      revert(0x00, returndatasize)\n    tag_330:\n      pop\n      pop\n      pop\n      pop\n      mload(0x40)\n      returndatasize\n      not(0x1f)\n      0x1f\n      dup3\n      add\n      and\n      dup3\n      add\n      dup1\n      0x40\n      mstore\n      pop\n      dup2\n      add\n      swap1\n      tag_331\n      swap2\n      swap1\n      tag_228\n      jump\t// in\n    tag_331:\n        /* \"contracts/mirrorseaMain.sol\":14392:14506  require(... */\n      tag_332\n      jumpi\n      mload(0x40)\n      shl(0xe5, 0x461bcd)\n      dup2\n      mstore\n      0x04\n      add\n      tag_193\n      swap1\n      tag_231\n      jump\t// in\n    tag_332:\n        /* \"contracts/mirrorseaMain.sol\":14524:14564  _isSolvent(_id, _price18, _adjustMargin) */\n      tag_334\n        /* \"contracts/mirrorseaMain.sol\":14535:14538  _id */\n      dup9\n        /* \"contracts/mirrorseaMain.sol\":14540:14548  _price18 */\n      dup7\n        /* \"contracts/mirrorseaMain.sol\":14550:14563  _adjustMargin */\n      dup6\n        /* \"contracts/mirrorseaMain.sol\":14524:14534  _isSolvent */\n      tag_296\n        /* \"contracts/mirrorseaMain.sol\":14524:14564  _isSolvent(_id, _price18, _adjustMargin) */\n      jump\t// in\n    tag_334:\n        /* \"contracts/mirrorseaMain.sol\":14516:14585  require(_isSolvent(_id, _price18, _adjustMargin), \"User is bankrupt\") */\n      tag_335\n      jumpi\n      mload(0x40)\n      shl(0xe5, 0x461bcd)\n      dup2\n      mstore\n      0x04\n      add\n      tag_193\n      swap1\n      tag_337\n      jump\t// in\n    tag_335:\n        /* \"contracts/mirrorseaMain.sol\":14595:14607  order.margin */\n      0x0a\n      add\n        /* \"contracts/mirrorseaMain.sol\":14595:14623  order.margin = _adjustMargin */\n      dup3\n      swap1\n      sstore\n      pop\n        /* \"contracts/mirrorseaMain.sol\":14640:14644  true */\n      0x01\n        /* \"contracts/mirrorseaMain.sol\":13992:14651  function adjustPosition(... */\n      swap7\n      swap6\n      pop\n      pop\n      pop\n      pop\n      pop\n      pop\n      jump\t// out\n        /* \"contracts/mirrorseaMain.sol\":10648:11183  function closePosition(... */\n    tag_129:\n        /* \"contracts/mirrorseaMain.sol\":10835:10839  bool */\n      0x00\n        /* \"contracts/mirrorseaMain.sol\":10877:10892  _orderInfo[_id] */\n      dup6\n      dup2\n      mstore\n        /* \"contracts/mirrorseaMain.sol\":10877:10887  _orderInfo */\n      0x6a\n        /* \"contracts/mirrorseaMain.sol\":10877:10892  _orderInfo[_id] */\n      0x20\n      mstore\n      0x40\n      dup2\n      keccak256\n        /* \"contracts/mirrorseaMain.sol\":10910:10920  order.user */\n      dup1\n      sload\n      sub(shl(0xa0, 0x01), 0x01)\n      and\n        /* \"contracts/mirrorseaMain.sol\":10924:10934  msg.sender */\n      caller\n        /* \"contracts/mirrorseaMain.sol\":10910:10934  order.user == msg.sender */\n      eq\n        /* \"contracts/mirrorseaMain.sol\":10902:10947  require(order.user == msg.sender, \"user err\") */\n      tag_339\n      jumpi\n      mload(0x40)\n      shl(0xe5, 0x461bcd)\n      dup2\n      mstore\n      0x04\n      add\n      tag_193\n      swap1\n      tag_341\n      jump\t// in\n    tag_339:\n        /* \"contracts/mirrorseaMain.sol\":10977:11176  _closePosition(... */\n      tag_342\n        /* \"contracts/mirrorseaMain.sol\":11009:11014  order */\n      dup2\n        /* \"contracts/mirrorseaMain.sol\":11032:11033  2 */\n      0x02\n        /* \"contracts/mirrorseaMain.sol\":11051:11054  _id */\n      dup10\n        /* \"contracts/mirrorseaMain.sol\":11072:11082  _timestamp */\n      dup10\n        /* \"contracts/mirrorseaMain.sol\":11100:11108  _symbols */\n      dup10\n        /* \"contracts/mirrorseaMain.sol\":11126:11134  _price18 */\n      dup10\n        /* \"contracts/mirrorseaMain.sol\":11152:11162  _signature */\n      dup10\n        /* \"contracts/mirrorseaMain.sol\":10977:10991  _closePosition */\n      tag_304\n        /* \"contracts/mirrorseaMain.sol\":10977:11176  _closePosition(... */\n      jump\t// in\n    tag_342:\n        /* \"contracts/mirrorseaMain.sol\":10958:11176  return... */\n      swap8\n        /* \"contracts/mirrorseaMain.sol\":10648:11183  function closePosition(... */\n      swap7\n      pop\n      pop\n      pop\n      pop\n      pop\n      pop\n      pop\n      jump\t// out\n        /* \"contracts/mirrorseaMain.sol\":12413:12909  function forcedLiquidation(... */\n    tag_133:\n        /* \"contracts/mirrorseaMain.sol\":3206:3216  msg.sender */\n      caller\n        /* \"contracts/mirrorseaMain.sol\":12617:12621  bool */\n      0x00\n        /* \"contracts/mirrorseaMain.sol\":3197:3217  executor[msg.sender] */\n      swap1\n      dup2\n      mstore\n        /* \"contracts/mirrorseaMain.sol\":3197:3205  executor */\n      0x65\n        /* \"contracts/mirrorseaMain.sol\":3197:3217  executor[msg.sender] */\n      0x20\n      mstore\n      0x40\n      dup2\n      keccak256\n      sload\n      0xff\n      and\n        /* \"contracts/mirrorseaMain.sol\":3189:3258  require(executor[msg.sender], \"executor: caller is not the executor\") */\n      tag_344\n      jumpi\n      mload(0x40)\n      shl(0xe5, 0x461bcd)\n      dup2\n      mstore\n      0x04\n      add\n      tag_193\n      swap1\n      tag_287\n      jump\t// in\n    tag_344:\n        /* \"contracts/mirrorseaMain.sol\":12633:12656  OrderInfo storage order */\n      0x00\n        /* \"contracts/mirrorseaMain.sol\":12659:12674  _orderInfo[_id] */\n      dup7\n      dup2\n      mstore\n        /* \"contracts/mirrorseaMain.sol\":12659:12669  _orderInfo */\n      0x6a\n        /* \"contracts/mirrorseaMain.sol\":12659:12674  _orderInfo[_id] */\n      0x20\n      mstore\n      0x40\n      swap1\n      keccak256\n        /* \"contracts/mirrorseaMain.sol\":12703:12902  _closePosition(... */\n      tag_342\n        /* \"contracts/mirrorseaMain.sol\":12659:12674  _orderInfo[_id] */\n      dup2\n        /* \"contracts/mirrorseaMain.sol\":12758:12759  4 */\n      0x04\n        /* \"contracts/mirrorseaMain.sol\":12670:12673  _id */\n      dup10\n        /* \"contracts/mirrorseaMain.sol\":12798:12808  _timestamp */\n      dup10\n        /* \"contracts/mirrorseaMain.sol\":12826:12834  _symbols */\n      dup10\n        /* \"contracts/mirrorseaMain.sol\":12852:12860  _price18 */\n      dup10\n        /* \"contracts/mirrorseaMain.sol\":12878:12888  _signature */\n      dup10\n        /* \"contracts/mirrorseaMain.sol\":12703:12717  _closePosition */\n      tag_304\n        /* \"contracts/mirrorseaMain.sol\":12703:12902  _closePosition(... */\n      jump\t// in\n        /* \"contracts/mirrorseaMain.sol\":1760:1784  uint256 public PRECISION */\n    tag_136:\n      sload(0x73)\n      dup2\n      jump\t// out\n        /* \"contracts/mirrorseaMain.sol\":2803:2966  function myCloseOrderIdListLength(address _user)... */\n    tag_140:\n      sub(shl(0xa0, 0x01), 0x01)\n        /* \"contracts/mirrorseaMain.sol\":2927:2952  myCloseOrderIdList[_user] */\n      and\n        /* \"contracts/mirrorseaMain.sol\":2897:2904  uint256 */\n      0x00\n        /* \"contracts/mirrorseaMain.sol\":2927:2952  myCloseOrderIdList[_user] */\n      swap1\n      dup2\n      mstore\n        /* \"contracts/mirrorseaMain.sol\":2927:2945  myCloseOrderIdList */\n      0x70\n        /* \"contracts/mirrorseaMain.sol\":2927:2952  myCloseOrderIdList[_user] */\n      0x20\n      mstore\n      0x40\n      swap1\n      keccak256\n        /* \"contracts/mirrorseaMain.sol\":2927:2959  myCloseOrderIdList[_user].length */\n      sload\n      swap1\n        /* \"contracts/mirrorseaMain.sol\":2803:2966  function myCloseOrderIdListLength(address _user)... */\n      jump\t// out\n        /* \"contracts/mirrorseaMain.sol\":1421:1475  mapping(address => uint256[]) public myOpenOrderIdList */\n    tag_144:\n      mstore(0x20, 0x6e)\n      dup2\n      0x00\n      mstore\n      keccak256(0x00, 0x40)\n      dup2\n      dup2\n      sload\n      dup2\n      lt\n      tag_349\n      jumpi\n      0x00\n      dup1\n      revert\n    tag_349:\n      swap1\n      0x00\n      mstore\n      keccak256(0x00, 0x20)\n      add\n      0x00\n      swap2\n      pop\n      swap2\n      pop\n      pop\n      sload\n      dup2\n      jump\t// out\n        /* \"contracts/mirrorseaMain.sol\":2636:2797  function myOpenOrderIdListLength(address _user)... */\n    tag_148:\n      sub(shl(0xa0, 0x01), 0x01)\n        /* \"contracts/mirrorseaMain.sol\":2759:2783  myOpenOrderIdList[_user] */\n      and\n        /* \"contracts/mirrorseaMain.sol\":2729:2736  uint256 */\n      0x00\n        /* \"contracts/mirrorseaMain.sol\":2759:2783  myOpenOrderIdList[_user] */\n      swap1\n      dup2\n      mstore\n        /* \"contracts/mirrorseaMain.sol\":2759:2776  myOpenOrderIdList */\n      0x6e\n        /* \"contracts/mirrorseaMain.sol\":2759:2783  myOpenOrderIdList[_user] */\n      0x20\n      mstore\n      0x40\n      swap1\n      keccak256\n        /* \"contracts/mirrorseaMain.sol\":2759:2790  myOpenOrderIdList[_user].length */\n      sload\n      swap1\n        /* \"contracts/mirrorseaMain.sol\":2636:2797  function myOpenOrderIdListLength(address _user)... */\n      jump\t// out\n        /* \"contracts/mirrorseaMain.sol\":1574:1629  mapping(address => uint256[]) public myCloseOrderIdList */\n    tag_152:\n      mstore(0x20, 0x70)\n      dup2\n      0x00\n      mstore\n      keccak256(0x00, 0x40)\n      dup2\n      dup2\n      sload\n      dup2\n      lt\n      tag_349\n      jumpi\n      0x00\n      dup1\n      revert\n        /* \"contracts/mirrorseaMain.sol\":1635:1722  mapping(address => mapping(uint256 => uint256))... */\n    tag_156:\n      0x71\n      0x20\n      swap1\n      dup2\n      mstore\n      0x00\n      swap3\n      dup4\n      mstore\n      0x40\n      dup1\n      dup5\n      keccak256\n      swap1\n      swap2\n      mstore\n      swap1\n      dup3\n      mstore\n      swap1\n      keccak256\n      sload\n      dup2\n      jump\t// out\n        /* \"contracts/mirrorseaMain.sol\":1791:1812  uint256 public minVal */\n    tag_159:\n      sload(0x74)\n      dup2\n      jump\t// out\n        /* \"@openzeppelin/contracts-upgradeable/access/OwnableUpgradeable.sol\":2184:2382  function transferOwnership(address newOwner) public virtual onlyOwner {... */\n    tag_163:\n        /* \"@openzeppelin/contracts-upgradeable/access/OwnableUpgradeable.sol\":1525:1537  _msgSender() */\n      tag_355\n        /* \"@openzeppelin/contracts-upgradeable/access/OwnableUpgradeable.sol\":1525:1535  _msgSender */\n      tag_212\n        /* \"@openzeppelin/contracts-upgradeable/access/OwnableUpgradeable.sol\":1525:1537  _msgSender() */\n      jump\t// in\n    tag_355:\n      sub(shl(0xa0, 0x01), 0x01)\n        /* \"@openzeppelin/contracts-upgradeable/access/OwnableUpgradeable.sol\":1514:1537  owner() == _msgSender() */\n      and\n        /* \"@openzeppelin/contracts-upgradeable/access/OwnableUpgradeable.sol\":1514:1521  owner() */\n      tag_356\n        /* \"@openzeppelin/contracts-upgradeable/access/OwnableUpgradeable.sol\":1514:1519  owner */\n      tag_119\n        /* \"@openzeppelin/contracts-upgradeable/access/OwnableUpgradeable.sol\":1514:1521  owner() */\n      jump\t// in\n    tag_356:\n      sub(shl(0xa0, 0x01), 0x01)\n        /* \"@openzeppelin/contracts-upgradeable/access/OwnableUpgradeable.sol\":1514:1537  owner() == _msgSender() */\n      and\n      eq\n        /* \"@openzeppelin/contracts-upgradeable/access/OwnableUpgradeable.sol\":1506:1574  require(owner() == _msgSender(), \"Ownable: caller is not the owner\") */\n      tag_357\n      jumpi\n      mload(0x40)\n      shl(0xe5, 0x461bcd)\n      dup2\n      mstore\n      0x04\n      add\n      tag_193\n      swap1\n      tag_216\n      jump\t// in\n    tag_357:\n      sub(shl(0xa0, 0x01), 0x01)\n        /* \"@openzeppelin/contracts-upgradeable/access/OwnableUpgradeable.sol\":2272:2294  newOwner != address(0) */\n      dup2\n      and\n        /* \"@openzeppelin/contracts-upgradeable/access/OwnableUpgradeable.sol\":2264:2337  require(newOwner != address(0), \"Ownable: new owner is the zero address\") */\n      tag_360\n      jumpi\n      mload(0x40)\n      shl(0xe5, 0x461bcd)\n      dup2\n      mstore\n      0x04\n      add\n      tag_193\n      swap1\n      tag_362\n      jump\t// in\n    tag_360:\n        /* \"@openzeppelin/contracts-upgradeable/access/OwnableUpgradeable.sol\":2347:2375  _transferOwnership(newOwner) */\n      tag_363\n        /* \"@openzeppelin/contracts-upgradeable/access/OwnableUpgradeable.sol\":2366:2374  newOwner */\n      dup2\n        /* \"@openzeppelin/contracts-upgradeable/access/OwnableUpgradeable.sol\":2347:2365  _transferOwnership */\n      tag_313\n        /* \"@openzeppelin/contracts-upgradeable/access/OwnableUpgradeable.sol\":2347:2375  _transferOwnership(newOwner) */\n      jump\t// in\n    tag_363:\n        /* \"@openzeppelin/contracts-upgradeable/access/OwnableUpgradeable.sol\":2184:2382  function transferOwnership(address newOwner) public virtual onlyOwner {... */\n      pop\n      jump\t// out\n        /* \"contracts/mirrorseaMain.sol\":1288:1313  uint256 public OrderIndex */\n    tag_165:\n      sload(0x6b)\n      dup2\n      jump\t// out\n        /* \"contracts/mirrorseaMain.sol\":2250:2630  function initialize(... */\n    tag_170:\n        /* \"@openzeppelin/contracts-upgradeable/proxy/utils/Initializable.sol\":539:552  _initializing */\n      sload(0x00)\n      0x0100\n      swap1\n      div\n      0xff\n      and\n      dup1\n        /* \"@openzeppelin/contracts-upgradeable/proxy/utils/Initializable.sol\":539:569  _initializing || !_initialized */\n      tag_365\n      jumpi\n      pop\n        /* \"@openzeppelin/contracts-upgradeable/proxy/utils/Initializable.sol\":557:569  _initialized */\n      and(0xff, sload(0x00))\n        /* \"@openzeppelin/contracts-upgradeable/proxy/utils/Initializable.sol\":556:569  !_initialized */\n      iszero\n        /* \"@openzeppelin/contracts-upgradeable/proxy/utils/Initializable.sol\":539:569  _initializing || !_initialized */\n    tag_365:\n        /* \"@openzeppelin/contracts-upgradeable/proxy/utils/Initializable.sol\":531:620  require(_initializing || !_initialized, \"Initializable: contract is already initialized\") */\n      tag_366\n      jumpi\n      mload(0x40)\n      shl(0xe5, 0x461bcd)\n      dup2\n      mstore\n      0x04\n      add\n      tag_193\n      swap1\n      tag_368\n      jump\t// in\n    tag_366:\n        /* \"@openzeppelin/contracts-upgradeable/proxy/utils/Initializable.sol\":631:650  bool isTopLevelCall */\n      0x00\n        /* \"@openzeppelin/contracts-upgradeable/proxy/utils/Initializable.sol\":654:667  _initializing */\n      sload\n      0x0100\n      swap1\n      div\n      0xff\n      and\n        /* \"@openzeppelin/contracts-upgradeable/proxy/utils/Initializable.sol\":653:667  !_initializing */\n      iszero\n        /* \"@openzeppelin/contracts-upgradeable/proxy/utils/Initializable.sol\":677:775  if (isTopLevelCall) {... */\n      dup1\n      iszero\n      tag_369\n      jumpi\n        /* \"@openzeppelin/contracts-upgradeable/proxy/utils/Initializable.sol\":711:724  _initializing */\n      0x00\n        /* \"@openzeppelin/contracts-upgradeable/proxy/utils/Initializable.sol\":711:731  _initializing = true */\n      dup1\n      sload\n      not(0xff)\n      not(0xff00)\n      swap1\n      swap2\n      and\n      0x0100\n      or\n        /* \"@openzeppelin/contracts-upgradeable/proxy/utils/Initializable.sol\":745:764  _initialized = true */\n      and\n        /* \"@openzeppelin/contracts-upgradeable/proxy/utils/Initializable.sol\":727:731  true */\n      0x01\n        /* \"@openzeppelin/contracts-upgradeable/proxy/utils/Initializable.sol\":745:764  _initialized = true */\n      or\n      swap1\n      sstore\n        /* \"@openzeppelin/contracts-upgradeable/proxy/utils/Initializable.sol\":677:775  if (isTopLevelCall) {... */\n    tag_369:\n        /* \"contracts/mirrorseaMain.sol\":2424:2440  __Ownable_init() */\n      tag_371\n        /* \"contracts/mirrorseaMain.sol\":2424:2438  __Ownable_init */\n      tag_372\n        /* \"contracts/mirrorseaMain.sol\":2424:2440  __Ownable_init() */\n      jump\t// in\n    tag_371:\n        /* \"contracts/mirrorseaMain.sol\":2450:2456  signer */\n      0x66\n        /* \"contracts/mirrorseaMain.sol\":2450:2466  signer = _signer */\n      dup1\n      sload\n      sub(shl(0xa0, 0x01), 0x01)\n      dup1\n      dup9\n      and\n      not(sub(shl(0xa0, 0x01), 0x01))\n      swap3\n      dup4\n      and\n      or\n      swap1\n      swap3\n      sstore\n        /* \"contracts/mirrorseaMain.sol\":2476:2487  helperLogic */\n      0x68\n        /* \"contracts/mirrorseaMain.sol\":2476:2502  helperLogic = _helperLogic */\n      dup1\n      sload\n      dup8\n      dup5\n      and\n      swap1\n      dup4\n      and\n      or\n      swap1\n      sstore\n        /* \"contracts/mirrorseaMain.sol\":2512:2515  usc */\n      0x67\n        /* \"contracts/mirrorseaMain.sol\":2512:2522  usc = _usc */\n      dup1\n      sload\n      dup7\n      dup5\n      and\n      swap1\n      dup4\n      and\n      or\n      swap1\n      sstore\n        /* \"contracts/mirrorseaMain.sol\":2544:2549  10000 */\n      0x2710\n        /* \"contracts/mirrorseaMain.sol\":2532:2541  PRECISION */\n      0x73\n        /* \"contracts/mirrorseaMain.sol\":2532:2549  PRECISION = 10000 */\n      sstore\n        /* \"contracts/mirrorseaMain.sol\":2559:2565  oracle */\n      0x69\n        /* \"contracts/mirrorseaMain.sol\":2559:2575  oracle = _oracle */\n      dup1\n      sload\n      swap3\n      dup6\n      and\n      swap3\n      swap1\n      swap2\n      and\n      swap2\n      swap1\n      swap2\n      or\n      swap1\n      sstore\n        /* \"contracts/mirrorseaMain.sol\":2594:2598  1e18 */\n      0x0de0b6b3a7640000\n        /* \"contracts/mirrorseaMain.sol\":2585:2591  minVal */\n      0x74\n        /* \"contracts/mirrorseaMain.sol\":2585:2598  minVal = 1e18 */\n      sstore\n        /* \"contracts/mirrorseaMain.sol\":2621:2623  50 */\n      0x32\n        /* \"contracts/mirrorseaMain.sol\":2608:2618  feePercent */\n      0x72\n        /* \"contracts/mirrorseaMain.sol\":2608:2623  feePercent = 50 */\n      sstore\n        /* \"@openzeppelin/contracts-upgradeable/proxy/utils/Initializable.sol\":797:863  if (isTopLevelCall) {... */\n      dup1\n      iszero\n      tag_373\n      jumpi\n        /* \"@openzeppelin/contracts-upgradeable/proxy/utils/Initializable.sol\":847:852  false */\n      0x00\n        /* \"@openzeppelin/contracts-upgradeable/proxy/utils/Initializable.sol\":831:852  _initializing = false */\n      dup1\n      sload\n      not(0xff00)\n      and\n      swap1\n      sstore\n        /* \"@openzeppelin/contracts-upgradeable/proxy/utils/Initializable.sol\":797:863  if (isTopLevelCall) {... */\n    tag_373:\n        /* \"contracts/mirrorseaMain.sol\":2250:2630  function initialize(... */\n      pop\n      pop\n      pop\n      pop\n      pop\n      jump\t// out\n        /* \"contracts/mirrorseaMain.sol\":3694:4469  function setOrderInfo(... */\n    tag_174:\n        /* \"contracts/mirrorseaMain.sol\":4053:4057  bool */\n      0x00\n        /* \"@openzeppelin/contracts-upgradeable/access/OwnableUpgradeable.sol\":1525:1537  _msgSender() */\n      tag_375\n        /* \"@openzeppelin/contracts-upgradeable/access/OwnableUpgradeable.sol\":1525:1535  _msgSender */\n      tag_212\n        /* \"@openzeppelin/contracts-upgradeable/access/OwnableUpgradeable.sol\":1525:1537  _msgSender() */\n      jump\t// in\n    tag_375:\n      sub(shl(0xa0, 0x01), 0x01)\n        /* \"@openzeppelin/contracts-upgradeable/access/OwnableUpgradeable.sol\":1514:1537  owner() == _msgSender() */\n      and\n        /* \"@openzeppelin/contracts-upgradeable/access/OwnableUpgradeable.sol\":1514:1521  owner() */\n      tag_376\n        /* \"@openzeppelin/contracts-upgradeable/access/OwnableUpgradeable.sol\":1514:1519  owner */\n      tag_119\n        /* \"@openzeppelin/contracts-upgradeable/access/OwnableUpgradeable.sol\":1514:1521  owner() */\n      jump\t// in\n    tag_376:\n      sub(shl(0xa0, 0x01), 0x01)\n        /* \"@openzeppelin/contracts-upgradeable/access/OwnableUpgradeable.sol\":1514:1537  owner() == _msgSender() */\n      and\n      eq\n        /* \"@openzeppelin/contracts-upgradeable/access/OwnableUpgradeable.sol\":1506:1574  require(owner() == _msgSender(), \"Ownable: caller is not the owner\") */\n      tag_377\n      jumpi\n      mload(0x40)\n      shl(0xe5, 0x461bcd)\n      dup2\n      mstore\n      0x04\n      add\n      tag_193\n      swap1\n      tag_216\n      jump\t// in\n    tag_377:\n        /* \"contracts/mirrorseaMain.sol\":4086:4441  OrderInfo({... */\n      mload(0x40)\n      dup1\n      0x0160\n      add\n      0x40\n      mstore\n      dup1\n        /* \"contracts/mirrorseaMain.sol\":4116:4120  user */\n      dup14\n      sub(shl(0xa0, 0x01), 0x01)\n        /* \"contracts/mirrorseaMain.sol\":4086:4441  OrderInfo({... */\n      and\n      dup2\n      mstore\n      0x20\n      add\n        /* \"contracts/mirrorseaMain.sol\":4141:4146  _type */\n      dup13\n        /* \"contracts/mirrorseaMain.sol\":4086:4441  OrderInfo({... */\n      dup2\n      mstore\n      0x20\n      add\n        /* \"contracts/mirrorseaMain.sol\":4169:4176  symbols */\n      dup12\n        /* \"contracts/mirrorseaMain.sol\":4086:4441  OrderInfo({... */\n      dup2\n      mstore\n      0x20\n      add\n        /* \"contracts/mirrorseaMain.sol\":4197:4202  state */\n      dup11\n        /* \"contracts/mirrorseaMain.sol\":4086:4441  OrderInfo({... */\n      dup2\n      mstore\n      0x20\n      add\n        /* \"contracts/mirrorseaMain.sol\":4227:4236  direction */\n      dup10\n        /* \"contracts/mirrorseaMain.sol\":4086:4441  OrderInfo({... */\n      dup2\n      mstore\n      0x20\n      add\n        /* \"contracts/mirrorseaMain.sol\":4263:4274  openPrice18 */\n      dup9\n        /* \"contracts/mirrorseaMain.sol\":4086:4441  OrderInfo({... */\n      dup2\n      mstore\n      0x20\n      add\n        /* \"contracts/mirrorseaMain.sol\":4298:4306  openTime */\n      dup8\n        /* \"contracts/mirrorseaMain.sol\":4086:4441  OrderInfo({... */\n      dup2\n      mstore\n      0x20\n      add\n        /* \"contracts/mirrorseaMain.sol\":4334:4346  closePrice18 */\n      dup7\n        /* \"contracts/mirrorseaMain.sol\":4086:4441  OrderInfo({... */\n      dup2\n      mstore\n      0x20\n      add\n        /* \"contracts/mirrorseaMain.sol\":4371:4380  closeTime */\n      dup6\n        /* \"contracts/mirrorseaMain.sol\":4086:4441  OrderInfo({... */\n      dup2\n      mstore\n      0x20\n      add\n        /* \"contracts/mirrorseaMain.sol\":4399:4402  amt */\n      dup5\n        /* \"contracts/mirrorseaMain.sol\":4086:4441  OrderInfo({... */\n      dup2\n      mstore\n      0x20\n      add\n        /* \"contracts/mirrorseaMain.sol\":4424:4430  margin */\n      dup4\n        /* \"contracts/mirrorseaMain.sol\":4086:4441  OrderInfo({... */\n      dup2\n      mstore\n      pop\n        /* \"contracts/mirrorseaMain.sol\":4069:4079  _orderInfo */\n      0x6a\n        /* \"contracts/mirrorseaMain.sol\":4069:4083  _orderInfo[id] */\n      0x00\n        /* \"contracts/mirrorseaMain.sol\":4080:4082  id */\n      dup16\n        /* \"contracts/mirrorseaMain.sol\":4069:4083  _orderInfo[id] */\n      dup2\n      mstore\n      0x20\n      add\n      swap1\n      dup2\n      mstore\n      0x20\n      add\n      0x00\n      keccak256\n        /* \"contracts/mirrorseaMain.sol\":4069:4441  _orderInfo[id] = OrderInfo({... */\n      0x00\n      dup3\n      add\n      mload\n      dup2\n      0x00\n      add\n      exp(0x0100, 0x00)\n      dup2\n      sload\n      dup2\n      sub(shl(0xa0, 0x01), 0x01)\n      mul\n      not\n      and\n      swap1\n      dup4\n      sub(shl(0xa0, 0x01), 0x01)\n      and\n      mul\n      or\n      swap1\n      sstore\n      pop\n      0x20\n      dup3\n      add\n      mload\n      dup2\n      0x01\n      add\n      sstore\n      0x40\n      dup3\n      add\n      mload\n      dup2\n      0x02\n      add\n      swap1\n      dup1\n      mload\n      swap1\n      0x20\n      add\n      swap1\n      tag_380\n      swap3\n      swap2\n      swap1\n      tag_267\n      jump\t// in\n    tag_380:\n      pop\n      0x60\n      dup3\n      add\n      mload\n      0x03\n      dup3\n      add\n      sstore\n      0x80\n      dup3\n      add\n      mload\n      0x04\n      dup3\n      add\n      sstore\n      0xa0\n      dup3\n      add\n      mload\n      0x05\n      dup3\n      add\n      sstore\n      0xc0\n      dup3\n      add\n      mload\n      0x06\n      dup3\n      add\n      sstore\n      0xe0\n      dup3\n      add\n      mload\n      0x07\n      dup3\n      add\n      sstore\n      0x0100\n      dup3\n      add\n      mload\n      0x08\n      dup3\n      add\n      sstore\n      0x0120\n      dup3\n      add\n      mload\n      0x09\n      dup3\n      add\n      sstore\n      0x0140\n      swap1\n      swap2\n      add\n      mload\n      0x0a\n      swap1\n      swap2\n      add\n      sstore\n      pop\n        /* \"contracts/mirrorseaMain.sol\":4458:4462  true */\n      0x01\n        /* \"contracts/mirrorseaMain.sol\":3694:4469  function setOrderInfo(... */\n      swap13\n      swap12\n      pop\n      pop\n      pop\n      pop\n      pop\n      pop\n      pop\n      pop\n      pop\n      pop\n      pop\n      pop\n      jump\t// out\n        /* \"@openzeppelin/contracts-upgradeable/utils/ContextUpgradeable.sol\":876:972  function _msgSender() internal view virtual returns (address) {... */\n    tag_212:\n        /* \"@openzeppelin/contracts-upgradeable/utils/ContextUpgradeable.sol\":955:965  msg.sender */\n      caller\n        /* \"@openzeppelin/contracts-upgradeable/utils/ContextUpgradeable.sol\":876:972  function _msgSender() internal view virtual returns (address) {... */\n      swap1\n      jump\t// out\n        /* \"@openzeppelin/contracts-upgradeable/utils/math/SafeMathUpgradeable.sol\":3462:3558  function mul(uint256 a, uint256 b) internal pure returns (uint256) {... */\n    tag_233:\n        /* \"@openzeppelin/contracts-upgradeable/utils/math/SafeMathUpgradeable.sol\":3520:3527  uint256 */\n      0x00\n        /* \"@openzeppelin/contracts-upgradeable/utils/math/SafeMathUpgradeable.sol\":3546:3551  a * b */\n      tag_383\n        /* \"@openzeppelin/contracts-upgradeable/utils/math/SafeMathUpgradeable.sol\":3550:3551  b */\n      dup3\n        /* \"@openzeppelin/contracts-upgradeable/utils/math/SafeMathUpgradeable.sol\":3546:3547  a */\n      dup5\n        /* \"@openzeppelin/contracts-upgradeable/utils/math/SafeMathUpgradeable.sol\":3546:3551  a * b */\n      tag_191\n      jump\t// in\n    tag_383:\n        /* \"@openzeppelin/contracts-upgradeable/utils/math/SafeMathUpgradeable.sol\":3539:3551  return a * b */\n      swap4\n        /* \"@openzeppelin/contracts-upgradeable/utils/math/SafeMathUpgradeable.sol\":3462:3558  function mul(uint256 a, uint256 b) internal pure returns (uint256) {... */\n      swap3\n      pop\n      pop\n      pop\n      jump\t// out\n        /* \"@openzeppelin/contracts-upgradeable/token/ERC20/utils/SafeERC20Upgradeable.sol\":967:1219  function safeTransferFrom(... */\n    tag_239:\n        /* \"@openzeppelin/contracts-upgradeable/token/ERC20/utils/SafeERC20Upgradeable.sol\":1116:1212  _callOptionalReturn(token, abi.encodeWithSelector(token.transferFrom.selector, from, to, value)) */\n      tag_385\n        /* \"@openzeppelin/contracts-upgradeable/token/ERC20/utils/SafeERC20Upgradeable.sol\":1136:1141  token */\n      dup5\n        /* \"@openzeppelin/contracts-upgradeable/token/ERC20/utils/SafeERC20Upgradeable.sol\":1166:1193  token.transferFrom.selector */\n      shl(0xe0, 0x23b872dd)\n        /* \"@openzeppelin/contracts-upgradeable/token/ERC20/utils/SafeERC20Upgradeable.sol\":1195:1199  from */\n      dup6\n        /* \"@openzeppelin/contracts-upgradeable/token/ERC20/utils/SafeERC20Upgradeable.sol\":1201:1203  to */\n      dup6\n        /* \"@openzeppelin/contracts-upgradeable/token/ERC20/utils/SafeERC20Upgradeable.sol\":1205:1210  value */\n      dup6\n        /* \"@openzeppelin/contracts-upgradeable/token/ERC20/utils/SafeERC20Upgradeable.sol\":1143:1211  abi.encodeWithSelector(token.transferFrom.selector, from, to, value) */\n      add(0x24, mload(0x40))\n      tag_386\n      swap4\n      swap3\n      swap2\n      swap1\n      tag_387\n      jump\t// in\n    tag_386:\n      0x40\n      dup1\n      mload\n      not(0x1f)\n      dup2\n      dup5\n      sub\n      add\n      dup2\n      mstore\n      swap2\n      swap1\n      mstore\n      0x20\n      dup2\n      add\n      dup1\n      mload\n      sub(shl(0xe0, 0x01), 0x01)\n      and\n      not(sub(shl(0xe0, 0x01), 0x01))\n      swap1\n      swap4\n      and\n      swap3\n      swap1\n      swap3\n      or\n      swap1\n      swap2\n      mstore\n        /* \"@openzeppelin/contracts-upgradeable/token/ERC20/utils/SafeERC20Upgradeable.sol\":1116:1135  _callOptionalReturn */\n      tag_388\n        /* \"@openzeppelin/contracts-upgradeable/token/ERC20/utils/SafeERC20Upgradeable.sol\":1116:1212  _callOptionalReturn(token, abi.encodeWithSelector(token.transferFrom.selector, from, to, value)) */\n      jump\t// in\n    tag_385:\n        /* \"@openzeppelin/contracts-upgradeable/token/ERC20/utils/SafeERC20Upgradeable.sol\":967:1219  function safeTransferFrom(... */\n      pop\n      pop\n      pop\n      pop\n      jump\t// out\n        /* \"@openzeppelin/contracts-upgradeable/utils/math/SafeMathUpgradeable.sol\":3847:3943  function div(uint256 a, uint256 b) internal pure returns (uint256) {... */\n    tag_248:\n        /* \"@openzeppelin/contracts-upgradeable/utils/math/SafeMathUpgradeable.sol\":3905:3912  uint256 */\n      0x00\n        /* \"@openzeppelin/contracts-upgradeable/utils/math/SafeMathUpgradeable.sol\":3931:3936  a / b */\n      tag_383\n        /* \"@openzeppelin/contracts-upgradeable/utils/math/SafeMathUpgradeable.sol\":3935:3936  b */\n      dup3\n        /* \"@openzeppelin/contracts-upgradeable/utils/math/SafeMathUpgradeable.sol\":3931:3932  a */\n      dup5\n        /* \"@openzeppelin/contracts-upgradeable/utils/math/SafeMathUpgradeable.sol\":3931:3936  a / b */\n      tag_391\n      jump\t// in\n        /* \"@openzeppelin/contracts-upgradeable/token/ERC20/utils/SafeERC20Upgradeable.sol\":745:961  function safeTransfer(... */\n    tag_250:\n        /* \"@openzeppelin/contracts-upgradeable/token/ERC20/utils/SafeERC20Upgradeable.sol\":868:954  _callOptionalReturn(token, abi.encodeWithSelector(token.transfer.selector, to, value)) */\n      tag_393\n        /* \"@openzeppelin/contracts-upgradeable/token/ERC20/utils/SafeERC20Upgradeable.sol\":888:893  token */\n      dup4\n        /* \"@openzeppelin/contracts-upgradeable/token/ERC20/utils/SafeERC20Upgradeable.sol\":918:941  token.transfer.selector */\n      shl(0xe0, 0xa9059cbb)\n        /* \"@openzeppelin/contracts-upgradeable/token/ERC20/utils/SafeERC20Upgradeable.sol\":943:945  to */\n      dup5\n        /* \"@openzeppelin/contracts-upgradeable/token/ERC20/utils/SafeERC20Upgradeable.sol\":947:952  value */\n      dup5\n        /* \"@openzeppelin/contracts-upgradeable/token/ERC20/utils/SafeERC20Upgradeable.sol\":895:953  abi.encodeWithSelector(token.transfer.selector, to, value) */\n      add(0x24, mload(0x40))\n      tag_386\n      swap3\n      swap2\n      swap1\n      tag_395\n      jump\t// in\n        /* \"@openzeppelin/contracts-upgradeable/token/ERC20/utils/SafeERC20Upgradeable.sol\":868:954  _callOptionalReturn(token, abi.encodeWithSelector(token.transfer.selector, to, value)) */\n    tag_393:\n        /* \"@openzeppelin/contracts-upgradeable/token/ERC20/utils/SafeERC20Upgradeable.sol\":745:961  function safeTransfer(... */\n      pop\n      pop\n      pop\n      jump\t// out\n        /* \"@openzeppelin/contracts-upgradeable/utils/math/SafeMathUpgradeable.sol\":3119:3215  function sub(uint256 a, uint256 b) internal pure returns (uint256) {... */\n    tag_256:\n        /* \"@openzeppelin/contracts-upgradeable/utils/math/SafeMathUpgradeable.sol\":3177:3184  uint256 */\n      0x00\n        /* \"@openzeppelin/contracts-upgradeable/utils/math/SafeMathUpgradeable.sol\":3203:3208  a - b */\n      tag_383\n        /* \"@openzeppelin/contracts-upgradeable/utils/math/SafeMathUpgradeable.sol\":3207:3208  b */\n      dup3\n        /* \"@openzeppelin/contracts-upgradeable/utils/math/SafeMathUpgradeable.sol\":3203:3204  a */\n      dup5\n        /* \"@openzeppelin/contracts-upgradeable/utils/math/SafeMathUpgradeable.sol\":3203:3208  a - b */\n      tag_200\n      jump\t// in\n        /* \"contracts/mirrorseaMain.sol\":12915:13986  function _isSolvent(... */\n    tag_296:\n        /* \"contracts/mirrorseaMain.sol\":13036:13040  bool */\n      0x00\n        /* \"contracts/mirrorseaMain.sol\":13078:13093  _orderInfo[_id] */\n      dup4\n      dup2\n      mstore\n        /* \"contracts/mirrorseaMain.sol\":13078:13088  _orderInfo */\n      0x6a\n        /* \"contracts/mirrorseaMain.sol\":13078:13093  _orderInfo[_id] */\n      0x20\n      mstore\n      0x40\n      dup2\n      keccak256\n        /* \"contracts/mirrorseaMain.sol\":13185:13200  order.direction */\n      0x04\n      dup2\n      add\n      sload\n        /* \"contracts/mirrorseaMain.sol\":13036:13040  bool */\n      dup3\n      swap1\n      dup2\n      swap1\n      dup2\n      swap1\n        /* \"contracts/mirrorseaMain.sol\":13204:13205  1 */\n      0x01\n        /* \"contracts/mirrorseaMain.sol\":13185:13205  order.direction == 1 */\n      eq\n        /* \"contracts/mirrorseaMain.sol\":13181:13959  if (order.direction == 1) {... */\n      iszero\n      tag_399\n      jumpi\n        /* \"contracts/mirrorseaMain.sol\":13236:13241  order */\n      dup4\n        /* \"contracts/mirrorseaMain.sol\":13236:13253  order.openPrice18 */\n      0x05\n      add\n      sload\n        /* \"contracts/mirrorseaMain.sol\":13225:13233  _price18 */\n      dup8\n        /* \"contracts/mirrorseaMain.sol\":13225:13253  _price18 < order.openPrice18 */\n      lt\n        /* \"contracts/mirrorseaMain.sol\":13221:13570  if (_price18 < order.openPrice18) {... */\n      iszero\n      tag_407\n      jumpi\n        /* \"contracts/mirrorseaMain.sol\":13287:13304  order.openPrice18 */\n      0x05\n      dup5\n      add\n      sload\n        /* \"contracts/mirrorseaMain.sol\":13287:13318  order.openPrice18.sub(_price18) */\n      tag_401\n      swap1\n        /* \"contracts/mirrorseaMain.sol\":13309:13317  _price18 */\n      dup9\n        /* \"contracts/mirrorseaMain.sol\":13287:13308  order.openPrice18.sub */\n      tag_256\n        /* \"contracts/mirrorseaMain.sol\":13287:13318  order.openPrice18.sub(_price18) */\n      jump\t// in\n    tag_401:\n        /* \"contracts/mirrorseaMain.sol\":13273:13318  diffPrice18 = order.openPrice18.sub(_price18) */\n      swap3\n      pop\n        /* \"contracts/mirrorseaMain.sol\":13349:13375  diffPrice18.mul(order.amt) */\n      tag_402\n        /* \"contracts/mirrorseaMain.sol\":13365:13370  order */\n      dup5\n        /* \"contracts/mirrorseaMain.sol\":13365:13374  order.amt */\n      0x09\n      add\n      sload\n        /* \"contracts/mirrorseaMain.sol\":13349:13360  diffPrice18 */\n      dup5\n        /* \"contracts/mirrorseaMain.sol\":13349:13364  diffPrice18.mul */\n      tag_233\n      swap1\n        /* \"contracts/mirrorseaMain.sol\":13349:13375  diffPrice18.mul(order.amt) */\n      swap2\n      swap1\n      0xffffffff\n      and\n      jump\t// in\n    tag_402:\n        /* \"contracts/mirrorseaMain.sol\":13336:13375  diffMargin = diffPrice18.mul(order.amt) */\n      swap2\n      pop\n        /* \"contracts/mirrorseaMain.sol\":13399:13453  order.amt.mul(_price18).mul(feePercent).div(PRECISION) */\n      tag_403\n        /* \"contracts/mirrorseaMain.sol\":13443:13452  PRECISION */\n      sload(0x73)\n        /* \"contracts/mirrorseaMain.sol\":13399:13438  order.amt.mul(_price18).mul(feePercent) */\n      tag_247\n        /* \"contracts/mirrorseaMain.sol\":13427:13437  feePercent */\n      sload(0x72)\n        /* \"contracts/mirrorseaMain.sol\":13399:13422  order.amt.mul(_price18) */\n      tag_405\n        /* \"contracts/mirrorseaMain.sol\":13413:13421  _price18 */\n      dup12\n        /* \"contracts/mirrorseaMain.sol\":13399:13404  order */\n      dup10\n        /* \"contracts/mirrorseaMain.sol\":13399:13408  order.amt */\n      0x09\n      add\n      sload\n        /* \"contracts/mirrorseaMain.sol\":13399:13412  order.amt.mul */\n      tag_233\n      swap1\n        /* \"contracts/mirrorseaMain.sol\":13399:13422  order.amt.mul(_price18) */\n      swap2\n      swap1\n      0xffffffff\n      and\n      jump\t// in\n    tag_405:\n        /* \"contracts/mirrorseaMain.sol\":13399:13426  order.amt.mul(_price18).mul */\n      swap1\n      tag_233\n        /* \"contracts/mirrorseaMain.sol\":13399:13438  order.amt.mul(_price18).mul(feePercent) */\n      jump\t// in\n        /* \"contracts/mirrorseaMain.sol\":13399:13453  order.amt.mul(_price18).mul(feePercent).div(PRECISION) */\n    tag_403:\n        /* \"contracts/mirrorseaMain.sol\":13393:13453  fee = order.amt.mul(_price18).mul(feePercent).div(PRECISION) */\n      swap1\n      pop\n        /* \"contracts/mirrorseaMain.sol\":13485:13501  diffMargin + fee */\n      tag_406\n        /* \"contracts/mirrorseaMain.sol\":13393:13453  fee = order.amt.mul(_price18).mul(feePercent).div(PRECISION) */\n      dup2\n        /* \"contracts/mirrorseaMain.sol\":13485:13495  diffMargin */\n      dup4\n        /* \"contracts/mirrorseaMain.sol\":13485:13501  diffMargin + fee */\n      tag_205\n      jump\t// in\n    tag_406:\n        /* \"contracts/mirrorseaMain.sol\":13475:13482  _margin */\n      dup7\n        /* \"contracts/mirrorseaMain.sol\":13475:13501  _margin < diffMargin + fee */\n      lt\n        /* \"contracts/mirrorseaMain.sol\":13471:13556  if (_margin < diffMargin + fee) {... */\n      iszero\n      tag_407\n      jumpi\n        /* \"contracts/mirrorseaMain.sol\":13532:13537  false */\n      0x00\n        /* \"contracts/mirrorseaMain.sol\":13525:13537  return false */\n      swap5\n      pop\n      pop\n      pop\n      pop\n      pop\n      jump(tag_383)\n        /* \"contracts/mirrorseaMain.sol\":13471:13556  if (_margin < diffMargin + fee) {... */\n    tag_407:\n        /* \"contracts/mirrorseaMain.sol\":13181:13959  if (order.direction == 1) {... */\n      jump(tag_416)\n    tag_399:\n        /* \"contracts/mirrorseaMain.sol\":13615:13620  order */\n      dup4\n        /* \"contracts/mirrorseaMain.sol\":13615:13632  order.openPrice18 */\n      0x05\n      add\n      sload\n        /* \"contracts/mirrorseaMain.sol\":13604:13612  _price18 */\n      dup8\n        /* \"contracts/mirrorseaMain.sol\":13604:13632  _price18 > order.openPrice18 */\n      gt\n        /* \"contracts/mirrorseaMain.sol\":13600:13949  if (_price18 > order.openPrice18) {... */\n      iszero\n      tag_416\n      jumpi\n        /* \"contracts/mirrorseaMain.sol\":13679:13696  order.openPrice18 */\n      0x05\n      dup5\n      add\n      sload\n        /* \"contracts/mirrorseaMain.sol\":13666:13697  _price18.sub(order.openPrice18) */\n      tag_410\n      swap1\n        /* \"contracts/mirrorseaMain.sol\":13666:13674  _price18 */\n      dup9\n      swap1\n        /* \"contracts/mirrorseaMain.sol\":13666:13678  _price18.sub */\n      tag_256\n        /* \"contracts/mirrorseaMain.sol\":13666:13697  _price18.sub(order.openPrice18) */\n      jump\t// in\n    tag_410:\n        /* \"contracts/mirrorseaMain.sol\":13652:13697  diffPrice18 = _price18.sub(order.openPrice18) */\n      swap3\n      pop\n        /* \"contracts/mirrorseaMain.sol\":13728:13754  diffPrice18.mul(order.amt) */\n      tag_411\n        /* \"contracts/mirrorseaMain.sol\":13744:13749  order */\n      dup5\n        /* \"contracts/mirrorseaMain.sol\":13744:13753  order.amt */\n      0x09\n      add\n      sload\n        /* \"contracts/mirrorseaMain.sol\":13728:13739  diffPrice18 */\n      dup5\n        /* \"contracts/mirrorseaMain.sol\":13728:13743  diffPrice18.mul */\n      tag_233\n      swap1\n        /* \"contracts/mirrorseaMain.sol\":13728:13754  diffPrice18.mul(order.amt) */\n      swap2\n      swap1\n      0xffffffff\n      and\n      jump\t// in\n    tag_411:\n        /* \"contracts/mirrorseaMain.sol\":13715:13754  diffMargin = diffPrice18.mul(order.amt) */\n      swap2\n      pop\n        /* \"contracts/mirrorseaMain.sol\":13778:13832  order.amt.mul(_price18).mul(feePercent).div(PRECISION) */\n      tag_412\n        /* \"contracts/mirrorseaMain.sol\":13822:13831  PRECISION */\n      sload(0x73)\n        /* \"contracts/mirrorseaMain.sol\":13778:13817  order.amt.mul(_price18).mul(feePercent) */\n      tag_247\n        /* \"contracts/mirrorseaMain.sol\":13806:13816  feePercent */\n      sload(0x72)\n        /* \"contracts/mirrorseaMain.sol\":13778:13801  order.amt.mul(_price18) */\n      tag_405\n        /* \"contracts/mirrorseaMain.sol\":13792:13800  _price18 */\n      dup12\n        /* \"contracts/mirrorseaMain.sol\":13778:13783  order */\n      dup10\n        /* \"contracts/mirrorseaMain.sol\":13778:13787  order.amt */\n      0x09\n      add\n      sload\n        /* \"contracts/mirrorseaMain.sol\":13778:13791  order.amt.mul */\n      tag_233\n      swap1\n        /* \"contracts/mirrorseaMain.sol\":13778:13801  order.amt.mul(_price18) */\n      swap2\n      swap1\n      0xffffffff\n      and\n      jump\t// in\n        /* \"contracts/mirrorseaMain.sol\":13778:13832  order.amt.mul(_price18).mul(feePercent).div(PRECISION) */\n    tag_412:\n        /* \"contracts/mirrorseaMain.sol\":13772:13832  fee = order.amt.mul(_price18).mul(feePercent).div(PRECISION) */\n      swap1\n      pop\n        /* \"contracts/mirrorseaMain.sol\":13864:13880  diffMargin + fee */\n      tag_415\n        /* \"contracts/mirrorseaMain.sol\":13772:13832  fee = order.amt.mul(_price18).mul(feePercent).div(PRECISION) */\n      dup2\n        /* \"contracts/mirrorseaMain.sol\":13864:13874  diffMargin */\n      dup4\n        /* \"contracts/mirrorseaMain.sol\":13864:13880  diffMargin + fee */\n      tag_205\n      jump\t// in\n    tag_415:\n        /* \"contracts/mirrorseaMain.sol\":13854:13861  _margin */\n      dup7\n        /* \"contracts/mirrorseaMain.sol\":13854:13880  _margin < diffMargin + fee */\n      lt\n        /* \"contracts/mirrorseaMain.sol\":13850:13935  if (_margin < diffMargin + fee) {... */\n      iszero\n      tag_416\n      jumpi\n        /* \"contracts/mirrorseaMain.sol\":13911:13916  false */\n      0x00\n        /* \"contracts/mirrorseaMain.sol\":13904:13916  return false */\n      swap5\n      pop\n      pop\n      pop\n      pop\n      pop\n      jump(tag_383)\n        /* \"contracts/mirrorseaMain.sol\":13850:13935  if (_margin < diffMargin + fee) {... */\n    tag_416:\n      pop\n        /* \"contracts/mirrorseaMain.sol\":13975:13979  true */\n      0x01\n      swap8\n        /* \"contracts/mirrorseaMain.sol\":12915:13986  function _isSolvent(... */\n      swap7\n      pop\n      pop\n      pop\n      pop\n      pop\n      pop\n      pop\n      jump\t// out\n        /* \"contracts/mirrorseaMain.sol\":6936:10642  function _closePosition(... */\n    tag_304:\n        /* \"contracts/mirrorseaMain.sol\":7205:7215  order.user */\n      dup7\n      sload\n        /* \"contracts/mirrorseaMain.sol\":7181:7185  bool */\n      0x00\n      swap1\n      sub(shl(0xa0, 0x01), 0x01)\n        /* \"contracts/mirrorseaMain.sol\":7205:7215  order.user */\n      and\n        /* \"contracts/mirrorseaMain.sol\":7197:7254  require(order.user != address(0), \"order does not exist\") */\n      tag_418\n      jumpi\n      mload(0x40)\n      shl(0xe5, 0x461bcd)\n      dup2\n      mstore\n      0x04\n      add\n      tag_193\n      swap1\n      tag_324\n      jump\t// in\n    tag_418:\n        /* \"contracts/mirrorseaMain.sol\":7286:7287  2 */\n      0x02\n        /* \"contracts/mirrorseaMain.sol\":7272:7277  order */\n      dup9\n        /* \"contracts/mirrorseaMain.sol\":7272:7283  order.state */\n      0x03\n      add\n      sload\n        /* \"contracts/mirrorseaMain.sol\":7272:7287  order.state < 2 */\n      lt\n        /* \"contracts/mirrorseaMain.sol\":7264:7301  require(order.state < 2, \"state err\") */\n      tag_420\n      jumpi\n      mload(0x40)\n      shl(0xe5, 0x461bcd)\n      dup2\n      mstore\n      0x04\n      add\n      tag_193\n      swap1\n      tag_221\n      jump\t// in\n    tag_420:\n        /* \"contracts/mirrorseaMain.sol\":7332:7338  oracle */\n      sload(0x69)\n        /* \"contracts/mirrorseaMain.sol\":7332:7389  oracle.getkey(_price18, _timestamp, _symbols, _signature) */\n      mload(0x40)\n      shl(0xe0, 0x81952f3b)\n      dup2\n      mstore\n      sub(shl(0xa0, 0x01), 0x01)\n        /* \"contracts/mirrorseaMain.sol\":7332:7338  oracle */\n      swap1\n      swap2\n      and\n      swap1\n        /* \"contracts/mirrorseaMain.sol\":7332:7345  oracle.getkey */\n      0x81952f3b\n      swap1\n        /* \"contracts/mirrorseaMain.sol\":7332:7389  oracle.getkey(_price18, _timestamp, _symbols, _signature) */\n      tag_422\n      swap1\n        /* \"contracts/mirrorseaMain.sol\":7346:7354  _price18 */\n      dup7\n      swap1\n        /* \"contracts/mirrorseaMain.sol\":7356:7366  _timestamp */\n      dup10\n      swap1\n        /* \"contracts/mirrorseaMain.sol\":7368:7376  _symbols */\n      dup10\n      swap1\n        /* \"contracts/mirrorseaMain.sol\":7378:7388  _signature */\n      dup9\n      swap1\n        /* \"contracts/mirrorseaMain.sol\":7332:7389  oracle.getkey(_price18, _timestamp, _symbols, _signature) */\n      0x04\n      add\n      tag_223\n      jump\t// in\n    tag_422:\n      0x20\n      mload(0x40)\n      dup1\n      dup4\n      sub\n      dup2\n      dup7\n      dup1\n      extcodesize\n      iszero\n      dup1\n      iszero\n      tag_423\n      jumpi\n      0x00\n      dup1\n      revert\n    tag_423:\n      pop\n      gas\n      staticcall\n      iszero\n      dup1\n      iszero\n      tag_425\n      jumpi\n      returndatasize\n      0x00\n      dup1\n      returndatacopy\n      revert(0x00, returndatasize)\n    tag_425:\n      pop\n      pop\n      pop\n      pop\n      mload(0x40)\n      returndatasize\n      not(0x1f)\n      0x1f\n      dup3\n      add\n      and\n      dup3\n      add\n      dup1\n      0x40\n      mstore\n      pop\n      dup2\n      add\n      swap1\n      tag_426\n      swap2\n      swap1\n      tag_228\n      jump\t// in\n    tag_426:\n        /* \"contracts/mirrorseaMain.sol\":7311:7425  require(... */\n      tag_427\n      jumpi\n      mload(0x40)\n      shl(0xe5, 0x461bcd)\n      dup2\n      mstore\n      0x04\n      add\n      tag_193\n      swap1\n      tag_231\n      jump\t// in\n    tag_427:\n        /* \"contracts/mirrorseaMain.sol\":7457:7465  _price18 */\n      dup3\n        /* \"contracts/mirrorseaMain.sol\":7436:7441  order */\n      dup9\n        /* \"contracts/mirrorseaMain.sol\":7436:7454  order.closePrice18 */\n      0x07\n      add\n        /* \"contracts/mirrorseaMain.sol\":7436:7465  order.closePrice18 = _price18 */\n      dup2\n      swap1\n      sstore\n      pop\n        /* \"contracts/mirrorseaMain.sol\":7475:7494  uint256 diffPrice18 */\n      0x00\n        /* \"contracts/mirrorseaMain.sol\":7504:7522  uint256 diffMargin */\n      dup1\n        /* \"contracts/mirrorseaMain.sol\":7532:7547  uint256 mintAmt */\n      0x00\n        /* \"contracts/mirrorseaMain.sol\":7562:7567  order */\n      dup11\n        /* \"contracts/mirrorseaMain.sol\":7562:7577  order.direction */\n      0x04\n      add\n      sload\n        /* \"contracts/mirrorseaMain.sol\":7581:7582  1 */\n      0x01\n        /* \"contracts/mirrorseaMain.sol\":7562:7582  order.direction == 1 */\n      eq\n        /* \"contracts/mirrorseaMain.sol\":7558:9661  if (order.direction == 1) {... */\n      iszero\n      tag_429\n      jumpi\n        /* \"contracts/mirrorseaMain.sol\":7623:7628  order */\n      dup11\n        /* \"contracts/mirrorseaMain.sol\":7623:7640  order.openPrice18 */\n      0x05\n      add\n      sload\n        /* \"contracts/mirrorseaMain.sol\":7602:7607  order */\n      dup12\n        /* \"contracts/mirrorseaMain.sol\":7602:7620  order.closePrice18 */\n      0x07\n      add\n      sload\n        /* \"contracts/mirrorseaMain.sol\":7602:7640  order.closePrice18 > order.openPrice18 */\n      gt\n        /* \"contracts/mirrorseaMain.sol\":7598:8610  if (order.closePrice18 > order.openPrice18) {... */\n      iszero\n      tag_430\n      jumpi\n        /* \"contracts/mirrorseaMain.sol\":7697:7714  order.openPrice18 */\n      0x05\n      dup12\n      add\n      sload\n        /* \"contracts/mirrorseaMain.sol\":7674:7692  order.closePrice18 */\n      0x07\n      dup13\n      add\n      sload\n        /* \"contracts/mirrorseaMain.sol\":7674:7715  order.closePrice18.sub(order.openPrice18) */\n      tag_431\n      swap2\n        /* \"contracts/mirrorseaMain.sol\":7674:7696  order.closePrice18.sub */\n      tag_256\n        /* \"contracts/mirrorseaMain.sol\":7674:7715  order.closePrice18.sub(order.openPrice18) */\n      jump\t// in\n    tag_431:\n        /* \"contracts/mirrorseaMain.sol\":7660:7715  diffPrice18 = order.closePrice18.sub(order.openPrice18) */\n      swap3\n      pop\n        /* \"contracts/mirrorseaMain.sol\":7746:7772  diffPrice18.mul(order.amt) */\n      tag_432\n        /* \"contracts/mirrorseaMain.sol\":7762:7767  order */\n      dup12\n        /* \"contracts/mirrorseaMain.sol\":7762:7771  order.amt */\n      0x09\n      add\n      sload\n        /* \"contracts/mirrorseaMain.sol\":7746:7757  diffPrice18 */\n      dup5\n        /* \"contracts/mirrorseaMain.sol\":7746:7761  diffPrice18.mul */\n      tag_233\n      swap1\n        /* \"contracts/mirrorseaMain.sol\":7746:7772  diffPrice18.mul(order.amt) */\n      swap2\n      swap1\n      0xffffffff\n      and\n      jump\t// in\n    tag_432:\n        /* \"contracts/mirrorseaMain.sol\":7800:7812  order.margin */\n      0x0a\n      dup13\n      add\n      sload\n        /* \"contracts/mirrorseaMain.sol\":7733:7772  diffMargin = diffPrice18.mul(order.amt) */\n      swap1\n      swap3\n      pop\n        /* \"contracts/mirrorseaMain.sol\":7800:7828  order.margin.add(diffMargin) */\n      tag_433\n      swap1\n        /* \"contracts/mirrorseaMain.sol\":7733:7772  diffMargin = diffPrice18.mul(order.amt) */\n      dup4\n        /* \"contracts/mirrorseaMain.sol\":7800:7816  order.margin.add */\n      tag_434\n        /* \"contracts/mirrorseaMain.sol\":7800:7828  order.margin.add(diffMargin) */\n      jump\t// in\n    tag_433:\n        /* \"contracts/mirrorseaMain.sol\":7790:7828  mintAmt = order.margin.add(diffMargin) */\n      swap1\n      pop\n        /* \"contracts/mirrorseaMain.sol\":7846:7857  uint256 fee */\n      0x00\n        /* \"contracts/mirrorseaMain.sol\":7860:7898  mintAmt.mul(feePercent).div(PRECISION) */\n      tag_435\n        /* \"contracts/mirrorseaMain.sol\":7888:7897  PRECISION */\n      sload(0x73)\n        /* \"contracts/mirrorseaMain.sol\":7860:7883  mintAmt.mul(feePercent) */\n      tag_247\n        /* \"contracts/mirrorseaMain.sol\":7872:7882  feePercent */\n      sload(0x72)\n        /* \"contracts/mirrorseaMain.sol\":7860:7867  mintAmt */\n      dup6\n        /* \"contracts/mirrorseaMain.sol\":7860:7871  mintAmt.mul */\n      tag_233\n      swap1\n        /* \"contracts/mirrorseaMain.sol\":7860:7883  mintAmt.mul(feePercent) */\n      swap2\n      swap1\n      0xffffffff\n      and\n      jump\t// in\n        /* \"contracts/mirrorseaMain.sol\":7860:7898  mintAmt.mul(feePercent).div(PRECISION) */\n    tag_435:\n        /* \"contracts/mirrorseaMain.sol\":7929:7932  usc */\n      sload(0x67)\n        /* \"contracts/mirrorseaMain.sol\":7948:7959  helperLogic */\n      sload(0x68)\n        /* \"contracts/mirrorseaMain.sol\":7916:7966  IUSC(address(usc)).mint(address(helperLogic), fee) */\n      mload(0x40)\n      shl(0xe0, 0x40c10f19)\n      dup2\n      mstore\n        /* \"contracts/mirrorseaMain.sol\":7846:7898  uint256 fee = mintAmt.mul(feePercent).div(PRECISION) */\n      swap3\n      swap4\n      pop\n      sub(shl(0xa0, 0x01), 0x01)\n        /* \"contracts/mirrorseaMain.sol\":7929:7932  usc */\n      swap2\n      dup3\n      and\n      swap3\n        /* \"contracts/mirrorseaMain.sol\":7916:7939  IUSC(address(usc)).mint */\n      0x40c10f19\n      swap3\n        /* \"contracts/mirrorseaMain.sol\":7916:7966  IUSC(address(usc)).mint(address(helperLogic), fee) */\n      tag_437\n      swap3\n        /* \"contracts/mirrorseaMain.sol\":7948:7959  helperLogic */\n      and\n      swap1\n        /* \"contracts/mirrorseaMain.sol\":7846:7898  uint256 fee = mintAmt.mul(feePercent).div(PRECISION) */\n      dup6\n      swap1\n        /* \"contracts/mirrorseaMain.sol\":7916:7966  IUSC(address(usc)).mint(address(helperLogic), fee) */\n      0x04\n      add\n      tag_395\n      jump\t// in\n    tag_437:\n      0x20\n      mload(0x40)\n      dup1\n      dup4\n      sub\n      dup2\n      0x00\n      dup8\n      dup1\n      extcodesize\n      iszero\n      dup1\n      iszero\n      tag_438\n      jumpi\n      0x00\n      dup1\n      revert\n    tag_438:\n      pop\n      gas\n      call\n      iszero\n      dup1\n      iszero\n      tag_440\n      jumpi\n      returndatasize\n      0x00\n      dup1\n      returndatacopy\n      revert(0x00, returndatasize)\n    tag_440:\n      pop\n      pop\n      pop\n      pop\n      mload(0x40)\n      returndatasize\n      not(0x1f)\n      0x1f\n      dup3\n      add\n      and\n      dup3\n      add\n      dup1\n      0x40\n      mstore\n      pop\n      dup2\n      add\n      swap1\n      tag_441\n      swap2\n      swap1\n      tag_228\n      jump\t// in\n    tag_441:\n      pop\n        /* \"contracts/mirrorseaMain.sol\":7997:8000  usc */\n      sload(0x67)\n        /* \"contracts/mirrorseaMain.sol\":8008:8018  order.user */\n      dup13\n      sload\n      sub(shl(0xa0, 0x01), 0x01)\n        /* \"contracts/mirrorseaMain.sol\":7997:8000  usc */\n      swap2\n      dup3\n      and\n      swap2\n        /* \"contracts/mirrorseaMain.sol\":7984:8007  IUSC(address(usc)).mint */\n      0x40c10f19\n      swap2\n        /* \"contracts/mirrorseaMain.sol\":8008:8018  order.user */\n      and\n        /* \"contracts/mirrorseaMain.sol\":8020:8036  mintAmt.sub(fee) */\n      tag_442\n        /* \"contracts/mirrorseaMain.sol\":8020:8027  mintAmt */\n      dup6\n        /* \"contracts/mirrorseaMain.sol\":8032:8035  fee */\n      dup6\n        /* \"contracts/mirrorseaMain.sol\":8020:8031  mintAmt.sub */\n      tag_256\n        /* \"contracts/mirrorseaMain.sol\":8020:8036  mintAmt.sub(fee) */\n      jump\t// in\n    tag_442:\n        /* \"contracts/mirrorseaMain.sol\":7984:8037  IUSC(address(usc)).mint(order.user, mintAmt.sub(fee)) */\n      mload(0x40)\n      dup4\n      0xffffffff\n      and\n      0xe0\n      shl\n      dup2\n      mstore\n      0x04\n      add\n      tag_443\n      swap3\n      swap2\n      swap1\n      tag_395\n      jump\t// in\n    tag_443:\n      0x20\n      mload(0x40)\n      dup1\n      dup4\n      sub\n      dup2\n      0x00\n      dup8\n      dup1\n      extcodesize\n      iszero\n      dup1\n      iszero\n      tag_444\n      jumpi\n      0x00\n      dup1\n      revert\n    tag_444:\n      pop\n      gas\n      call\n      iszero\n      dup1\n      iszero\n      tag_446\n      jumpi\n      returndatasize\n      0x00\n      dup1\n      returndatacopy\n      revert(0x00, returndatasize)\n    tag_446:\n      pop\n      pop\n      pop\n      pop\n      mload(0x40)\n      returndatasize\n      not(0x1f)\n      0x1f\n      dup3\n      add\n      and\n      dup3\n      add\n      dup1\n      0x40\n      mstore\n      pop\n      dup2\n      add\n      swap1\n      tag_447\n      swap2\n      swap1\n      tag_228\n      jump\t// in\n    tag_447:\n      pop\n        /* \"contracts/mirrorseaMain.sol\":7598:8610  if (order.closePrice18 > order.openPrice18) {... */\n      pop\n      jump(tag_452)\n    tag_430:\n        /* \"contracts/mirrorseaMain.sol\":8112:8130  order.closePrice18 */\n      0x07\n      dup12\n      add\n      sload\n        /* \"contracts/mirrorseaMain.sol\":8090:8107  order.openPrice18 */\n      0x05\n      dup13\n      add\n      sload\n        /* \"contracts/mirrorseaMain.sol\":8090:8131  order.openPrice18.sub(order.closePrice18) */\n      tag_449\n      swap2\n        /* \"contracts/mirrorseaMain.sol\":8090:8111  order.openPrice18.sub */\n      tag_256\n        /* \"contracts/mirrorseaMain.sol\":8090:8131  order.openPrice18.sub(order.closePrice18) */\n      jump\t// in\n    tag_449:\n        /* \"contracts/mirrorseaMain.sol\":8076:8131  diffPrice18 = order.openPrice18.sub(order.closePrice18) */\n      swap3\n      pop\n        /* \"contracts/mirrorseaMain.sol\":8162:8188  diffPrice18.mul(order.amt) */\n      tag_450\n        /* \"contracts/mirrorseaMain.sol\":8178:8183  order */\n      dup12\n        /* \"contracts/mirrorseaMain.sol\":8178:8187  order.amt */\n      0x09\n      add\n      sload\n        /* \"contracts/mirrorseaMain.sol\":8162:8173  diffPrice18 */\n      dup5\n        /* \"contracts/mirrorseaMain.sol\":8162:8177  diffPrice18.mul */\n      tag_233\n      swap1\n        /* \"contracts/mirrorseaMain.sol\":8162:8188  diffPrice18.mul(order.amt) */\n      swap2\n      swap1\n      0xffffffff\n      and\n      jump\t// in\n    tag_450:\n        /* \"contracts/mirrorseaMain.sol\":8149:8188  diffMargin = diffPrice18.mul(order.amt) */\n      swap2\n      pop\n        /* \"contracts/mirrorseaMain.sol\":8224:8229  order */\n      dup11\n        /* \"contracts/mirrorseaMain.sol\":8224:8236  order.margin */\n      0x0a\n      add\n      sload\n        /* \"contracts/mirrorseaMain.sol\":8211:8221  diffMargin */\n      dup3\n        /* \"contracts/mirrorseaMain.sol\":8211:8236  diffMargin > order.margin */\n      gt\n        /* \"contracts/mirrorseaMain.sol\":8207:8596  if (diffMargin > order.margin) {... */\n      iszero\n      tag_451\n      jumpi\n      pop\n        /* \"contracts/mirrorseaMain.sol\":8270:8271  0 */\n      0x00\n        /* \"contracts/mirrorseaMain.sol\":8207:8596  if (diffMargin > order.margin) {... */\n      jump(tag_452)\n    tag_451:\n        /* \"contracts/mirrorseaMain.sol\":8328:8340  order.margin */\n      0x0a\n      dup12\n      add\n      sload\n        /* \"contracts/mirrorseaMain.sol\":8328:8356  order.margin.sub(diffMargin) */\n      tag_453\n      swap1\n        /* \"contracts/mirrorseaMain.sol\":8345:8355  diffMargin */\n      dup4\n        /* \"contracts/mirrorseaMain.sol\":8328:8344  order.margin.sub */\n      tag_256\n        /* \"contracts/mirrorseaMain.sol\":8328:8356  order.margin.sub(diffMargin) */\n      jump\t// in\n    tag_453:\n        /* \"contracts/mirrorseaMain.sol\":8318:8356  mintAmt = order.margin.sub(diffMargin) */\n      swap1\n      pop\n        /* \"contracts/mirrorseaMain.sol\":8378:8389  uint256 fee */\n      0x00\n        /* \"contracts/mirrorseaMain.sol\":8392:8430  mintAmt.mul(feePercent).div(PRECISION) */\n      tag_454\n        /* \"contracts/mirrorseaMain.sol\":8420:8429  PRECISION */\n      sload(0x73)\n        /* \"contracts/mirrorseaMain.sol\":8392:8415  mintAmt.mul(feePercent) */\n      tag_247\n        /* \"contracts/mirrorseaMain.sol\":8404:8414  feePercent */\n      sload(0x72)\n        /* \"contracts/mirrorseaMain.sol\":8392:8399  mintAmt */\n      dup6\n        /* \"contracts/mirrorseaMain.sol\":8392:8403  mintAmt.mul */\n      tag_233\n      swap1\n        /* \"contracts/mirrorseaMain.sol\":8392:8415  mintAmt.mul(feePercent) */\n      swap2\n      swap1\n      0xffffffff\n      and\n      jump\t// in\n        /* \"contracts/mirrorseaMain.sol\":8392:8430  mintAmt.mul(feePercent).div(PRECISION) */\n    tag_454:\n        /* \"contracts/mirrorseaMain.sol\":8465:8468  usc */\n      sload(0x67)\n        /* \"contracts/mirrorseaMain.sol\":8484:8495  helperLogic */\n      sload(0x68)\n        /* \"contracts/mirrorseaMain.sol\":8452:8502  IUSC(address(usc)).mint(address(helperLogic), fee) */\n      mload(0x40)\n      shl(0xe0, 0x40c10f19)\n      dup2\n      mstore\n        /* \"contracts/mirrorseaMain.sol\":8378:8430  uint256 fee = mintAmt.mul(feePercent).div(PRECISION) */\n      swap3\n      swap4\n      pop\n      sub(shl(0xa0, 0x01), 0x01)\n        /* \"contracts/mirrorseaMain.sol\":8465:8468  usc */\n      swap2\n      dup3\n      and\n      swap3\n        /* \"contracts/mirrorseaMain.sol\":8452:8475  IUSC(address(usc)).mint */\n      0x40c10f19\n      swap3\n        /* \"contracts/mirrorseaMain.sol\":8452:8502  IUSC(address(usc)).mint(address(helperLogic), fee) */\n      tag_456\n      swap3\n        /* \"contracts/mirrorseaMain.sol\":8484:8495  helperLogic */\n      and\n      swap1\n        /* \"contracts/mirrorseaMain.sol\":8378:8430  uint256 fee = mintAmt.mul(feePercent).div(PRECISION) */\n      dup6\n      swap1\n        /* \"contracts/mirrorseaMain.sol\":8452:8502  IUSC(address(usc)).mint(address(helperLogic), fee) */\n      0x04\n      add\n      tag_395\n      jump\t// in\n    tag_456:\n      0x20\n      mload(0x40)\n      dup1\n      dup4\n      sub\n      dup2\n      0x00\n      dup8\n      dup1\n      extcodesize\n      iszero\n      dup1\n      iszero\n      tag_457\n      jumpi\n      0x00\n      dup1\n      revert\n    tag_457:\n      pop\n      gas\n      call\n      iszero\n      dup1\n      iszero\n      tag_459\n      jumpi\n      returndatasize\n      0x00\n      dup1\n      returndatacopy\n      revert(0x00, returndatasize)\n    tag_459:\n      pop\n      pop\n      pop\n      pop\n      mload(0x40)\n      returndatasize\n      not(0x1f)\n      0x1f\n      dup3\n      add\n      and\n      dup3\n      add\n      dup1\n      0x40\n      mstore\n      pop\n      dup2\n      add\n      swap1\n      tag_460\n      swap2\n      swap1\n      tag_228\n      jump\t// in\n    tag_460:\n      pop\n        /* \"contracts/mirrorseaMain.sol\":8537:8540  usc */\n      sload(0x67)\n        /* \"contracts/mirrorseaMain.sol\":8548:8558  order.user */\n      dup13\n      sload\n      sub(shl(0xa0, 0x01), 0x01)\n        /* \"contracts/mirrorseaMain.sol\":8537:8540  usc */\n      swap2\n      dup3\n      and\n      swap2\n        /* \"contracts/mirrorseaMain.sol\":8524:8547  IUSC(address(usc)).mint */\n      0x40c10f19\n      swap2\n        /* \"contracts/mirrorseaMain.sol\":8548:8558  order.user */\n      and\n        /* \"contracts/mirrorseaMain.sol\":8560:8576  mintAmt.sub(fee) */\n      tag_461\n        /* \"contracts/mirrorseaMain.sol\":8560:8567  mintAmt */\n      dup6\n        /* \"contracts/mirrorseaMain.sol\":8572:8575  fee */\n      dup6\n        /* \"contracts/mirrorseaMain.sol\":8560:8571  mintAmt.sub */\n      tag_256\n        /* \"contracts/mirrorseaMain.sol\":8560:8576  mintAmt.sub(fee) */\n      jump\t// in\n    tag_461:\n        /* \"contracts/mirrorseaMain.sol\":8524:8577  IUSC(address(usc)).mint(order.user, mintAmt.sub(fee)) */\n      mload(0x40)\n      dup4\n      0xffffffff\n      and\n      0xe0\n      shl\n      dup2\n      mstore\n      0x04\n      add\n      tag_462\n      swap3\n      swap2\n      swap1\n      tag_395\n      jump\t// in\n    tag_462:\n      0x20\n      mload(0x40)\n      dup1\n      dup4\n      sub\n      dup2\n      0x00\n      dup8\n      dup1\n      extcodesize\n      iszero\n      dup1\n      iszero\n      tag_463\n      jumpi\n      0x00\n      dup1\n      revert\n    tag_463:\n      pop\n      gas\n      call\n      iszero\n      dup1\n      iszero\n      tag_465\n      jumpi\n      returndatasize\n      0x00\n      dup1\n      returndatacopy\n      revert(0x00, returndatasize)\n    tag_465:\n      pop\n      pop\n      pop\n      pop\n      mload(0x40)\n      returndatasize\n      not(0x1f)\n      0x1f\n      dup3\n      add\n      and\n      dup3\n      add\n      dup1\n      0x40\n      mstore\n      pop\n      dup2\n      add\n      swap1\n      tag_466\n      swap2\n      swap1\n      tag_228\n      jump\t// in\n    tag_466:\n      pop\n        /* \"contracts/mirrorseaMain.sol\":8207:8596  if (diffMargin > order.margin) {... */\n      pop\n    tag_452:\n        /* \"contracts/mirrorseaMain.sol\":7558:9661  if (order.direction == 1) {... */\n      jump(tag_489)\n    tag_429:\n        /* \"contracts/mirrorseaMain.sol\":8665:8670  order */\n      dup11\n        /* \"contracts/mirrorseaMain.sol\":8665:8682  order.openPrice18 */\n      0x05\n      add\n      sload\n        /* \"contracts/mirrorseaMain.sol\":8644:8649  order */\n      dup12\n        /* \"contracts/mirrorseaMain.sol\":8644:8662  order.closePrice18 */\n      0x07\n      add\n      sload\n        /* \"contracts/mirrorseaMain.sol\":8644:8682  order.closePrice18 < order.openPrice18 */\n      lt\n        /* \"contracts/mirrorseaMain.sol\":8640:9651  if (order.closePrice18 < order.openPrice18) {... */\n      iszero\n      tag_468\n      jumpi\n        /* \"contracts/mirrorseaMain.sol\":8738:8756  order.closePrice18 */\n      0x07\n      dup12\n      add\n      sload\n        /* \"contracts/mirrorseaMain.sol\":8716:8733  order.openPrice18 */\n      0x05\n      dup13\n      add\n      sload\n        /* \"contracts/mirrorseaMain.sol\":8716:8757  order.openPrice18.sub(order.closePrice18) */\n      tag_469\n      swap2\n        /* \"contracts/mirrorseaMain.sol\":8716:8737  order.openPrice18.sub */\n      tag_256\n        /* \"contracts/mirrorseaMain.sol\":8716:8757  order.openPrice18.sub(order.closePrice18) */\n      jump\t// in\n    tag_469:\n        /* \"contracts/mirrorseaMain.sol\":8702:8757  diffPrice18 = order.openPrice18.sub(order.closePrice18) */\n      swap3\n      pop\n        /* \"contracts/mirrorseaMain.sol\":8788:8814  diffPrice18.mul(order.amt) */\n      tag_470\n        /* \"contracts/mirrorseaMain.sol\":8804:8809  order */\n      dup12\n        /* \"contracts/mirrorseaMain.sol\":8804:8813  order.amt */\n      0x09\n      add\n      sload\n        /* \"contracts/mirrorseaMain.sol\":8788:8799  diffPrice18 */\n      dup5\n        /* \"contracts/mirrorseaMain.sol\":8788:8803  diffPrice18.mul */\n      tag_233\n      swap1\n        /* \"contracts/mirrorseaMain.sol\":8788:8814  diffPrice18.mul(order.amt) */\n      swap2\n      swap1\n      0xffffffff\n      and\n      jump\t// in\n    tag_470:\n        /* \"contracts/mirrorseaMain.sol\":8842:8854  order.margin */\n      0x0a\n      dup13\n      add\n      sload\n        /* \"contracts/mirrorseaMain.sol\":8775:8814  diffMargin = diffPrice18.mul(order.amt) */\n      swap1\n      swap3\n      pop\n        /* \"contracts/mirrorseaMain.sol\":8842:8870  order.margin.add(diffMargin) */\n      tag_453\n      swap1\n        /* \"contracts/mirrorseaMain.sol\":8775:8814  diffMargin = diffPrice18.mul(order.amt) */\n      dup4\n        /* \"contracts/mirrorseaMain.sol\":8842:8858  order.margin.add */\n      tag_434\n        /* \"contracts/mirrorseaMain.sol\":8842:8870  order.margin.add(diffMargin) */\n      jump\t// in\n        /* \"contracts/mirrorseaMain.sol\":8640:9651  if (order.closePrice18 < order.openPrice18) {... */\n    tag_468:\n        /* \"contracts/mirrorseaMain.sol\":9155:9172  order.openPrice18 */\n      0x05\n      dup12\n      add\n      sload\n        /* \"contracts/mirrorseaMain.sol\":9132:9150  order.closePrice18 */\n      0x07\n      dup13\n      add\n      sload\n        /* \"contracts/mirrorseaMain.sol\":9132:9173  order.closePrice18.sub(order.openPrice18) */\n      tag_486\n      swap2\n        /* \"contracts/mirrorseaMain.sol\":9132:9154  order.closePrice18.sub */\n      tag_256\n        /* \"contracts/mirrorseaMain.sol\":9132:9173  order.closePrice18.sub(order.openPrice18) */\n      jump\t// in\n    tag_486:\n        /* \"contracts/mirrorseaMain.sol\":9118:9173  diffPrice18 = order.closePrice18.sub(order.openPrice18) */\n      swap3\n      pop\n        /* \"contracts/mirrorseaMain.sol\":9204:9230  diffPrice18.mul(order.amt) */\n      tag_487\n        /* \"contracts/mirrorseaMain.sol\":9220:9225  order */\n      dup12\n        /* \"contracts/mirrorseaMain.sol\":9220:9229  order.amt */\n      0x09\n      add\n      sload\n        /* \"contracts/mirrorseaMain.sol\":9204:9215  diffPrice18 */\n      dup5\n        /* \"contracts/mirrorseaMain.sol\":9204:9219  diffPrice18.mul */\n      tag_233\n      swap1\n        /* \"contracts/mirrorseaMain.sol\":9204:9230  diffPrice18.mul(order.amt) */\n      swap2\n      swap1\n      0xffffffff\n      and\n      jump\t// in\n    tag_487:\n        /* \"contracts/mirrorseaMain.sol\":9191:9230  diffMargin = diffPrice18.mul(order.amt) */\n      swap2\n      pop\n        /* \"contracts/mirrorseaMain.sol\":9265:9270  order */\n      dup11\n        /* \"contracts/mirrorseaMain.sol\":9265:9277  order.margin */\n      0x0a\n      add\n      sload\n        /* \"contracts/mirrorseaMain.sol\":9252:9262  diffMargin */\n      dup3\n        /* \"contracts/mirrorseaMain.sol\":9252:9277  diffMargin > order.margin */\n      gt\n        /* \"contracts/mirrorseaMain.sol\":9248:9637  if (diffMargin > order.margin) {... */\n      iszero\n      tag_488\n      jumpi\n      pop\n        /* \"contracts/mirrorseaMain.sol\":9311:9312  0 */\n      0x00\n        /* \"contracts/mirrorseaMain.sol\":9248:9637  if (diffMargin > order.margin) {... */\n      jump(tag_489)\n    tag_488:\n        /* \"contracts/mirrorseaMain.sol\":9369:9381  order.margin */\n      0x0a\n      dup12\n      add\n      sload\n        /* \"contracts/mirrorseaMain.sol\":9369:9397  order.margin.sub(diffMargin) */\n      tag_490\n      swap1\n        /* \"contracts/mirrorseaMain.sol\":9386:9396  diffMargin */\n      dup4\n        /* \"contracts/mirrorseaMain.sol\":9369:9385  order.margin.sub */\n      tag_256\n        /* \"contracts/mirrorseaMain.sol\":9369:9397  order.margin.sub(diffMargin) */\n      jump\t// in\n    tag_490:\n        /* \"contracts/mirrorseaMain.sol\":9359:9397  mintAmt = order.margin.sub(diffMargin) */\n      swap1\n      pop\n        /* \"contracts/mirrorseaMain.sol\":9419:9430  uint256 fee */\n      0x00\n        /* \"contracts/mirrorseaMain.sol\":9433:9471  mintAmt.mul(feePercent).div(PRECISION) */\n      tag_491\n        /* \"contracts/mirrorseaMain.sol\":9461:9470  PRECISION */\n      sload(0x73)\n        /* \"contracts/mirrorseaMain.sol\":9433:9456  mintAmt.mul(feePercent) */\n      tag_247\n        /* \"contracts/mirrorseaMain.sol\":9445:9455  feePercent */\n      sload(0x72)\n        /* \"contracts/mirrorseaMain.sol\":9433:9440  mintAmt */\n      dup6\n        /* \"contracts/mirrorseaMain.sol\":9433:9444  mintAmt.mul */\n      tag_233\n      swap1\n        /* \"contracts/mirrorseaMain.sol\":9433:9456  mintAmt.mul(feePercent) */\n      swap2\n      swap1\n      0xffffffff\n      and\n      jump\t// in\n        /* \"contracts/mirrorseaMain.sol\":9433:9471  mintAmt.mul(feePercent).div(PRECISION) */\n    tag_491:\n        /* \"contracts/mirrorseaMain.sol\":9506:9509  usc */\n      sload(0x67)\n        /* \"contracts/mirrorseaMain.sol\":9525:9536  helperLogic */\n      sload(0x68)\n        /* \"contracts/mirrorseaMain.sol\":9493:9543  IUSC(address(usc)).mint(address(helperLogic), fee) */\n      mload(0x40)\n      shl(0xe0, 0x40c10f19)\n      dup2\n      mstore\n        /* \"contracts/mirrorseaMain.sol\":9419:9471  uint256 fee = mintAmt.mul(feePercent).div(PRECISION) */\n      swap3\n      swap4\n      pop\n      sub(shl(0xa0, 0x01), 0x01)\n        /* \"contracts/mirrorseaMain.sol\":9506:9509  usc */\n      swap2\n      dup3\n      and\n      swap3\n        /* \"contracts/mirrorseaMain.sol\":9493:9516  IUSC(address(usc)).mint */\n      0x40c10f19\n      swap3\n        /* \"contracts/mirrorseaMain.sol\":9493:9543  IUSC(address(usc)).mint(address(helperLogic), fee) */\n      tag_493\n      swap3\n        /* \"contracts/mirrorseaMain.sol\":9525:9536  helperLogic */\n      and\n      swap1\n        /* \"contracts/mirrorseaMain.sol\":9419:9471  uint256 fee = mintAmt.mul(feePercent).div(PRECISION) */\n      dup6\n      swap1\n        /* \"contracts/mirrorseaMain.sol\":9493:9543  IUSC(address(usc)).mint(address(helperLogic), fee) */\n      0x04\n      add\n      tag_395\n      jump\t// in\n    tag_493:\n      0x20\n      mload(0x40)\n      dup1\n      dup4\n      sub\n      dup2\n      0x00\n      dup8\n      dup1\n      extcodesize\n      iszero\n      dup1\n      iszero\n      tag_494\n      jumpi\n      0x00\n      dup1\n      revert\n    tag_494:\n      pop\n      gas\n      call\n      iszero\n      dup1\n      iszero\n      tag_496\n      jumpi\n      returndatasize\n      0x00\n      dup1\n      returndatacopy\n      revert(0x00, returndatasize)\n    tag_496:\n      pop\n      pop\n      pop\n      pop\n      mload(0x40)\n      returndatasize\n      not(0x1f)\n      0x1f\n      dup3\n      add\n      and\n      dup3\n      add\n      dup1\n      0x40\n      mstore\n      pop\n      dup2\n      add\n      swap1\n      tag_497\n      swap2\n      swap1\n      tag_228\n      jump\t// in\n    tag_497:\n      pop\n        /* \"contracts/mirrorseaMain.sol\":9578:9581  usc */\n      sload(0x67)\n        /* \"contracts/mirrorseaMain.sol\":9589:9599  order.user */\n      dup13\n      sload\n      sub(shl(0xa0, 0x01), 0x01)\n        /* \"contracts/mirrorseaMain.sol\":9578:9581  usc */\n      swap2\n      dup3\n      and\n      swap2\n        /* \"contracts/mirrorseaMain.sol\":9565:9588  IUSC(address(usc)).mint */\n      0x40c10f19\n      swap2\n        /* \"contracts/mirrorseaMain.sol\":9589:9599  order.user */\n      and\n        /* \"contracts/mirrorseaMain.sol\":9601:9617  mintAmt.sub(fee) */\n      tag_498\n        /* \"contracts/mirrorseaMain.sol\":9601:9608  mintAmt */\n      dup6\n        /* \"contracts/mirrorseaMain.sol\":9613:9616  fee */\n      dup6\n        /* \"contracts/mirrorseaMain.sol\":9601:9612  mintAmt.sub */\n      tag_256\n        /* \"contracts/mirrorseaMain.sol\":9601:9617  mintAmt.sub(fee) */\n      jump\t// in\n    tag_498:\n        /* \"contracts/mirrorseaMain.sol\":9565:9618  IUSC(address(usc)).mint(order.user, mintAmt.sub(fee)) */\n      mload(0x40)\n      dup4\n      0xffffffff\n      and\n      0xe0\n      shl\n      dup2\n      mstore\n      0x04\n      add\n      tag_499\n      swap3\n      swap2\n      swap1\n      tag_395\n      jump\t// in\n    tag_499:\n      0x20\n      mload(0x40)\n      dup1\n      dup4\n      sub\n      dup2\n      0x00\n      dup8\n      dup1\n      extcodesize\n      iszero\n      dup1\n      iszero\n      tag_500\n      jumpi\n      0x00\n      dup1\n      revert\n    tag_500:\n      pop\n      gas\n      call\n      iszero\n      dup1\n      iszero\n      tag_502\n      jumpi\n      returndatasize\n      0x00\n      dup1\n      returndatacopy\n      revert(0x00, returndatasize)\n    tag_502:\n      pop\n      pop\n      pop\n      pop\n      mload(0x40)\n      returndatasize\n      not(0x1f)\n      0x1f\n      dup3\n      add\n      and\n      dup3\n      add\n      dup1\n      0x40\n      mstore\n      pop\n      dup2\n      add\n      swap1\n      tag_503\n      swap2\n      swap1\n      tag_228\n      jump\t// in\n    tag_503:\n      pop\n        /* \"contracts/mirrorseaMain.sol\":9248:9637  if (diffMargin > order.margin) {... */\n      pop\n    tag_489:\n        /* \"contracts/mirrorseaMain.sol\":9670:9719  require(false, \"222222falsefalsefalsefalsefalse\") */\n      mload(0x40)\n      shl(0xe5, 0x461bcd)\n      dup2\n      mstore\n      0x04\n      add\n      tag_193\n      swap1\n      tag_506\n      jump\t// in\n        /* \"@openzeppelin/contracts-upgradeable/access/OwnableUpgradeable.sol\":2536:2723  function _transferOwnership(address newOwner) internal virtual {... */\n    tag_313:\n        /* \"@openzeppelin/contracts-upgradeable/access/OwnableUpgradeable.sol\":2628:2634  _owner */\n      0x33\n      dup1\n      sload\n      sub(shl(0xa0, 0x01), 0x01)\n        /* \"@openzeppelin/contracts-upgradeable/access/OwnableUpgradeable.sol\":2644:2661  _owner = newOwner */\n      dup4\n      dup2\n      and\n      not(sub(shl(0xa0, 0x01), 0x01))\n      dup4\n      and\n      dup2\n      or\n      swap1\n      swap4\n      sstore\n        /* \"@openzeppelin/contracts-upgradeable/access/OwnableUpgradeable.sol\":2676:2716  OwnershipTransferred(oldOwner, newOwner) */\n      mload(0x40)\n        /* \"@openzeppelin/contracts-upgradeable/access/OwnableUpgradeable.sol\":2628:2634  _owner */\n      swap2\n      and\n      swap2\n        /* \"@openzeppelin/contracts-upgradeable/access/OwnableUpgradeable.sol\":2644:2661  _owner = newOwner */\n      swap1\n        /* \"@openzeppelin/contracts-upgradeable/access/OwnableUpgradeable.sol\":2628:2634  _owner */\n      dup3\n      swap1\n        /* \"@openzeppelin/contracts-upgradeable/access/OwnableUpgradeable.sol\":2676:2716  OwnershipTransferred(oldOwner, newOwner) */\n      0x8be0079c531659141344cd1fd0a4f28419497f9722a3daafe3b4186f6b6457e0\n      swap1\n        /* \"@openzeppelin/contracts-upgradeable/access/OwnableUpgradeable.sol\":2609:2625  address oldOwner */\n      0x00\n      swap1\n        /* \"@openzeppelin/contracts-upgradeable/access/OwnableUpgradeable.sol\":2676:2716  OwnershipTransferred(oldOwner, newOwner) */\n      log3\n        /* \"@openzeppelin/contracts-upgradeable/access/OwnableUpgradeable.sol\":2536:2723  function _transferOwnership(address newOwner) internal virtual {... */\n      pop\n      pop\n      jump\t// out\n        /* \"@openzeppelin/contracts-upgradeable/access/OwnableUpgradeable.sol\":988:1114  function __Ownable_init() internal initializer {... */\n    tag_372:\n        /* \"@openzeppelin/contracts-upgradeable/proxy/utils/Initializable.sol\":539:552  _initializing */\n      sload(0x00)\n      0x0100\n      swap1\n      div\n      0xff\n      and\n      dup1\n        /* \"@openzeppelin/contracts-upgradeable/proxy/utils/Initializable.sol\":539:569  _initializing || !_initialized */\n      tag_518\n      jumpi\n      pop\n        /* \"@openzeppelin/contracts-upgradeable/proxy/utils/Initializable.sol\":557:569  _initialized */\n      and(0xff, sload(0x00))\n        /* \"@openzeppelin/contracts-upgradeable/proxy/utils/Initializable.sol\":556:569  !_initialized */\n      iszero\n        /* \"@openzeppelin/contracts-upgradeable/proxy/utils/Initializable.sol\":539:569  _initializing || !_initialized */\n    tag_518:\n        /* \"@openzeppelin/contracts-upgradeable/proxy/utils/Initializable.sol\":531:620  require(_initializing || !_initialized, \"Initializable: contract is already initialized\") */\n      tag_519\n      jumpi\n      mload(0x40)\n      shl(0xe5, 0x461bcd)\n      dup2\n      mstore\n      0x04\n      add\n      tag_193\n      swap1\n      tag_368\n      jump\t// in\n    tag_519:\n        /* \"@openzeppelin/contracts-upgradeable/proxy/utils/Initializable.sol\":631:650  bool isTopLevelCall */\n      0x00\n        /* \"@openzeppelin/contracts-upgradeable/proxy/utils/Initializable.sol\":654:667  _initializing */\n      sload\n      0x0100\n      swap1\n      div\n      0xff\n      and\n        /* \"@openzeppelin/contracts-upgradeable/proxy/utils/Initializable.sol\":653:667  !_initializing */\n      iszero\n        /* \"@openzeppelin/contracts-upgradeable/proxy/utils/Initializable.sol\":677:775  if (isTopLevelCall) {... */\n      dup1\n      iszero\n      tag_521\n      jumpi\n        /* \"@openzeppelin/contracts-upgradeable/proxy/utils/Initializable.sol\":711:724  _initializing */\n      0x00\n        /* \"@openzeppelin/contracts-upgradeable/proxy/utils/Initializable.sol\":711:731  _initializing = true */\n      dup1\n      sload\n      not(0xff)\n      not(0xff00)\n      swap1\n      swap2\n      and\n      0x0100\n      or\n        /* \"@openzeppelin/contracts-upgradeable/proxy/utils/Initializable.sol\":745:764  _initialized = true */\n      and\n        /* \"@openzeppelin/contracts-upgradeable/proxy/utils/Initializable.sol\":727:731  true */\n      0x01\n        /* \"@openzeppelin/contracts-upgradeable/proxy/utils/Initializable.sol\":745:764  _initialized = true */\n      or\n      swap1\n      sstore\n        /* \"@openzeppelin/contracts-upgradeable/proxy/utils/Initializable.sol\":677:775  if (isTopLevelCall) {... */\n    tag_521:\n        /* \"@openzeppelin/contracts-upgradeable/access/OwnableUpgradeable.sol\":1045:1071  __Context_init_unchained() */\n      tag_523\n        /* \"@openzeppelin/contracts-upgradeable/access/OwnableUpgradeable.sol\":1045:1069  __Context_init_unchained */\n      tag_524\n        /* \"@openzeppelin/contracts-upgradeable/access/OwnableUpgradeable.sol\":1045:1071  __Context_init_unchained() */\n      jump\t// in\n    tag_523:\n        /* \"@openzeppelin/contracts-upgradeable/access/OwnableUpgradeable.sol\":1081:1107  __Ownable_init_unchained() */\n      tag_525\n        /* \"@openzeppelin/contracts-upgradeable/access/OwnableUpgradeable.sol\":1081:1105  __Ownable_init_unchained */\n      tag_526\n        /* \"@openzeppelin/contracts-upgradeable/access/OwnableUpgradeable.sol\":1081:1107  __Ownable_init_unchained() */\n      jump\t// in\n    tag_525:\n        /* \"@openzeppelin/contracts-upgradeable/proxy/utils/Initializable.sol\":801:815  isTopLevelCall */\n      dup1\n        /* \"@openzeppelin/contracts-upgradeable/proxy/utils/Initializable.sol\":797:863  if (isTopLevelCall) {... */\n      iszero\n      tag_363\n      jumpi\n        /* \"@openzeppelin/contracts-upgradeable/proxy/utils/Initializable.sol\":847:852  false */\n      0x00\n        /* \"@openzeppelin/contracts-upgradeable/proxy/utils/Initializable.sol\":831:852  _initializing = false */\n      dup1\n      sload\n      not(0xff00)\n      and\n      swap1\n      sstore\n        /* \"@openzeppelin/contracts-upgradeable/access/OwnableUpgradeable.sol\":988:1114  function __Ownable_init() internal initializer {... */\n      pop\n      jump\t// out\n        /* \"@openzeppelin/contracts-upgradeable/token/ERC20/utils/SafeERC20Upgradeable.sol\":3306:4023  function _callOptionalReturn(IERC20Upgradeable token, bytes memory data) private {... */\n    tag_388:\n        /* \"@openzeppelin/contracts-upgradeable/token/ERC20/utils/SafeERC20Upgradeable.sol\":3736:3759  bytes memory returndata */\n      0x00\n        /* \"@openzeppelin/contracts-upgradeable/token/ERC20/utils/SafeERC20Upgradeable.sol\":3762:3831  address(token).functionCall(data, \"SafeERC20: low-level call failed\") */\n      tag_529\n        /* \"@openzeppelin/contracts-upgradeable/token/ERC20/utils/SafeERC20Upgradeable.sol\":3790:3794  data */\n      dup3\n        /* \"@openzeppelin/contracts-upgradeable/token/ERC20/utils/SafeERC20Upgradeable.sol\":3762:3831  address(token).functionCall(data, \"SafeERC20: low-level call failed\") */\n      mload(0x40)\n      dup1\n      0x40\n      add\n      0x40\n      mstore\n      dup1\n      0x20\n      dup2\n      mstore\n      0x20\n      add\n      0x5361666545524332303a206c6f772d6c6576656c2063616c6c206661696c6564\n      dup2\n      mstore\n      pop\n        /* \"@openzeppelin/contracts-upgradeable/token/ERC20/utils/SafeERC20Upgradeable.sol\":3770:3775  token */\n      dup6\n      sub(shl(0xa0, 0x01), 0x01)\n        /* \"@openzeppelin/contracts-upgradeable/token/ERC20/utils/SafeERC20Upgradeable.sol\":3762:3789  address(token).functionCall */\n      and\n      tag_530\n      swap1\n        /* \"@openzeppelin/contracts-upgradeable/token/ERC20/utils/SafeERC20Upgradeable.sol\":3762:3831  address(token).functionCall(data, \"SafeERC20: low-level call failed\") */\n      swap3\n      swap2\n      swap1\n      0xffffffff\n      and\n      jump\t// in\n    tag_529:\n        /* \"@openzeppelin/contracts-upgradeable/token/ERC20/utils/SafeERC20Upgradeable.sol\":3845:3862  returndata.length */\n      dup1\n      mload\n        /* \"@openzeppelin/contracts-upgradeable/token/ERC20/utils/SafeERC20Upgradeable.sol\":3736:3831  bytes memory returndata = address(token).functionCall(data, \"SafeERC20: low-level call failed\") */\n      swap1\n      swap2\n      pop\n        /* \"@openzeppelin/contracts-upgradeable/token/ERC20/utils/SafeERC20Upgradeable.sol\":3845:3866  returndata.length > 0 */\n      iszero\n        /* \"@openzeppelin/contracts-upgradeable/token/ERC20/utils/SafeERC20Upgradeable.sol\":3841:4017  if (returndata.length > 0) {... */\n      tag_393\n      jumpi\n        /* \"@openzeppelin/contracts-upgradeable/token/ERC20/utils/SafeERC20Upgradeable.sol\":3940:3950  returndata */\n      dup1\n        /* \"@openzeppelin/contracts-upgradeable/token/ERC20/utils/SafeERC20Upgradeable.sol\":3929:3959  abi.decode(returndata, (bool)) */\n      dup1\n      0x20\n      add\n      swap1\n      mload\n      dup2\n      add\n      swap1\n      tag_532\n      swap2\n      swap1\n      tag_228\n      jump\t// in\n    tag_532:\n        /* \"@openzeppelin/contracts-upgradeable/token/ERC20/utils/SafeERC20Upgradeable.sol\":3921:4006  require(abi.decode(returndata, (bool)), \"SafeERC20: ERC20 operation did not succeed\") */\n      tag_393\n      jumpi\n      mload(0x40)\n      shl(0xe5, 0x461bcd)\n      dup2\n      mstore\n      0x04\n      add\n      tag_193\n      swap1\n      tag_535\n      jump\t// in\n        /* \"@openzeppelin/contracts-upgradeable/utils/math/SafeMathUpgradeable.sol\":2752:2848  function add(uint256 a, uint256 b) internal pure returns (uint256) {... */\n    tag_434:\n        /* \"@openzeppelin/contracts-upgradeable/utils/math/SafeMathUpgradeable.sol\":2810:2817  uint256 */\n      0x00\n        /* \"@openzeppelin/contracts-upgradeable/utils/math/SafeMathUpgradeable.sol\":2836:2841  a + b */\n      tag_383\n        /* \"@openzeppelin/contracts-upgradeable/utils/math/SafeMathUpgradeable.sol\":2840:2841  b */\n      dup3\n        /* \"@openzeppelin/contracts-upgradeable/utils/math/SafeMathUpgradeable.sol\":2836:2837  a */\n      dup5\n        /* \"@openzeppelin/contracts-upgradeable/utils/math/SafeMathUpgradeable.sol\":2836:2841  a + b */\n      tag_205\n      jump\t// in\n        /* \"@openzeppelin/contracts-upgradeable/utils/ContextUpgradeable.sol\":807:871  function __Context_init_unchained() internal initializer {... */\n    tag_524:\n        /* \"@openzeppelin/contracts-upgradeable/proxy/utils/Initializable.sol\":539:552  _initializing */\n      sload(0x00)\n      0x0100\n      swap1\n      div\n      0xff\n      and\n      dup1\n        /* \"@openzeppelin/contracts-upgradeable/proxy/utils/Initializable.sol\":539:569  _initializing || !_initialized */\n      tag_549\n      jumpi\n      pop\n        /* \"@openzeppelin/contracts-upgradeable/proxy/utils/Initializable.sol\":557:569  _initialized */\n      and(0xff, sload(0x00))\n        /* \"@openzeppelin/contracts-upgradeable/proxy/utils/Initializable.sol\":556:569  !_initialized */\n      iszero\n        /* \"@openzeppelin/contracts-upgradeable/proxy/utils/Initializable.sol\":539:569  _initializing || !_initialized */\n    tag_549:\n        /* \"@openzeppelin/contracts-upgradeable/proxy/utils/Initializable.sol\":531:620  require(_initializing || !_initialized, \"Initializable: contract is already initialized\") */\n      tag_550\n      jumpi\n      mload(0x40)\n      shl(0xe5, 0x461bcd)\n      dup2\n      mstore\n      0x04\n      add\n      tag_193\n      swap1\n      tag_368\n      jump\t// in\n    tag_550:\n        /* \"@openzeppelin/contracts-upgradeable/proxy/utils/Initializable.sol\":631:650  bool isTopLevelCall */\n      0x00\n        /* \"@openzeppelin/contracts-upgradeable/proxy/utils/Initializable.sol\":654:667  _initializing */\n      sload\n      0x0100\n      swap1\n      div\n      0xff\n      and\n        /* \"@openzeppelin/contracts-upgradeable/proxy/utils/Initializable.sol\":653:667  !_initializing */\n      iszero\n        /* \"@openzeppelin/contracts-upgradeable/proxy/utils/Initializable.sol\":677:775  if (isTopLevelCall) {... */\n      dup1\n      iszero\n      tag_525\n      jumpi\n        /* \"@openzeppelin/contracts-upgradeable/proxy/utils/Initializable.sol\":711:724  _initializing */\n      0x00\n        /* \"@openzeppelin/contracts-upgradeable/proxy/utils/Initializable.sol\":711:731  _initializing = true */\n      dup1\n      sload\n      not(0xff)\n      not(0xff00)\n      swap1\n      swap2\n      and\n      0x0100\n      or\n        /* \"@openzeppelin/contracts-upgradeable/proxy/utils/Initializable.sol\":745:764  _initialized = true */\n      and\n        /* \"@openzeppelin/contracts-upgradeable/proxy/utils/Initializable.sol\":727:731  true */\n      0x01\n        /* \"@openzeppelin/contracts-upgradeable/proxy/utils/Initializable.sol\":745:764  _initialized = true */\n      or\n      swap1\n      sstore\n        /* \"@openzeppelin/contracts-upgradeable/proxy/utils/Initializable.sol\":801:815  isTopLevelCall */\n      dup1\n        /* \"@openzeppelin/contracts-upgradeable/proxy/utils/Initializable.sol\":797:863  if (isTopLevelCall) {... */\n      iszero\n      tag_363\n      jumpi\n        /* \"@openzeppelin/contracts-upgradeable/proxy/utils/Initializable.sol\":847:852  false */\n      0x00\n        /* \"@openzeppelin/contracts-upgradeable/proxy/utils/Initializable.sol\":831:852  _initializing = false */\n      dup1\n      sload\n      not(0xff00)\n      and\n      swap1\n      sstore\n        /* \"@openzeppelin/contracts-upgradeable/utils/ContextUpgradeable.sol\":807:871  function __Context_init_unchained() internal initializer {... */\n      pop\n      jump\t// out\n        /* \"@openzeppelin/contracts-upgradeable/access/OwnableUpgradeable.sol\":1120:1226  function __Ownable_init_unchained() internal initializer {... */\n    tag_526:\n        /* \"@openzeppelin/contracts-upgradeable/proxy/utils/Initializable.sol\":539:552  _initializing */\n      sload(0x00)\n      0x0100\n      swap1\n      div\n      0xff\n      and\n      dup1\n        /* \"@openzeppelin/contracts-upgradeable/proxy/utils/Initializable.sol\":539:569  _initializing || !_initialized */\n      tag_556\n      jumpi\n      pop\n        /* \"@openzeppelin/contracts-upgradeable/proxy/utils/Initializable.sol\":557:569  _initialized */\n      and(0xff, sload(0x00))\n        /* \"@openzeppelin/contracts-upgradeable/proxy/utils/Initializable.sol\":556:569  !_initialized */\n      iszero\n        /* \"@openzeppelin/contracts-upgradeable/proxy/utils/Initializable.sol\":539:569  _initializing || !_initialized */\n    tag_556:\n        /* \"@openzeppelin/contracts-upgradeable/proxy/utils/Initializable.sol\":531:620  require(_initializing || !_initialized, \"Initializable: contract is already initialized\") */\n      tag_557\n      jumpi\n      mload(0x40)\n      shl(0xe5, 0x461bcd)\n      dup2\n      mstore\n      0x04\n      add\n      tag_193\n      swap1\n      tag_368\n      jump\t// in\n    tag_557:\n        /* \"@openzeppelin/contracts-upgradeable/proxy/utils/Initializable.sol\":631:650  bool isTopLevelCall */\n      0x00\n        /* \"@openzeppelin/contracts-upgradeable/proxy/utils/Initializable.sol\":654:667  _initializing */\n      sload\n      0x0100\n      swap1\n      div\n      0xff\n      and\n        /* \"@openzeppelin/contracts-upgradeable/proxy/utils/Initializable.sol\":653:667  !_initializing */\n      iszero\n        /* \"@openzeppelin/contracts-upgradeable/proxy/utils/Initializable.sol\":677:775  if (isTopLevelCall) {... */\n      dup1\n      iszero\n      tag_559\n      jumpi\n        /* \"@openzeppelin/contracts-upgradeable/proxy/utils/Initializable.sol\":711:724  _initializing */\n      0x00\n        /* \"@openzeppelin/contracts-upgradeable/proxy/utils/Initializable.sol\":711:731  _initializing = true */\n      dup1\n      sload\n      not(0xff)\n      not(0xff00)\n      swap1\n      swap2\n      and\n      0x0100\n      or\n        /* \"@openzeppelin/contracts-upgradeable/proxy/utils/Initializable.sol\":745:764  _initialized = true */\n      and\n        /* \"@openzeppelin/contracts-upgradeable/proxy/utils/Initializable.sol\":727:731  true */\n      0x01\n        /* \"@openzeppelin/contracts-upgradeable/proxy/utils/Initializable.sol\":745:764  _initialized = true */\n      or\n      swap1\n      sstore\n        /* \"@openzeppelin/contracts-upgradeable/proxy/utils/Initializable.sol\":677:775  if (isTopLevelCall) {... */\n    tag_559:\n        /* \"@openzeppelin/contracts-upgradeable/access/OwnableUpgradeable.sol\":1187:1219  _transferOwnership(_msgSender()) */\n      tag_525\n        /* \"@openzeppelin/contracts-upgradeable/access/OwnableUpgradeable.sol\":1206:1218  _msgSender() */\n      tag_562\n        /* \"@openzeppelin/contracts-upgradeable/access/OwnableUpgradeable.sol\":1206:1216  _msgSender */\n      tag_212\n        /* \"@openzeppelin/contracts-upgradeable/access/OwnableUpgradeable.sol\":1206:1218  _msgSender() */\n      jump\t// in\n    tag_562:\n        /* \"@openzeppelin/contracts-upgradeable/access/OwnableUpgradeable.sol\":1187:1205  _transferOwnership */\n      tag_313\n        /* \"@openzeppelin/contracts-upgradeable/access/OwnableUpgradeable.sol\":1187:1219  _transferOwnership(_msgSender()) */\n      jump\t// in\n        /* \"@openzeppelin/contracts-upgradeable/utils/AddressUpgradeable.sol\":3525:3748  function functionCall(... */\n    tag_530:\n        /* \"@openzeppelin/contracts-upgradeable/utils/AddressUpgradeable.sol\":3658:3670  bytes memory */\n      0x60\n        /* \"@openzeppelin/contracts-upgradeable/utils/AddressUpgradeable.sol\":3689:3741  functionCallWithValue(target, data, 0, errorMessage) */\n      tag_565\n        /* \"@openzeppelin/contracts-upgradeable/utils/AddressUpgradeable.sol\":3711:3717  target */\n      dup5\n        /* \"@openzeppelin/contracts-upgradeable/utils/AddressUpgradeable.sol\":3719:3723  data */\n      dup5\n        /* \"@openzeppelin/contracts-upgradeable/utils/AddressUpgradeable.sol\":3725:3726  0 */\n      0x00\n        /* \"@openzeppelin/contracts-upgradeable/utils/AddressUpgradeable.sol\":3728:3740  errorMessage */\n      dup6\n        /* \"@openzeppelin/contracts-upgradeable/utils/AddressUpgradeable.sol\":3689:3710  functionCallWithValue */\n      tag_566\n        /* \"@openzeppelin/contracts-upgradeable/utils/AddressUpgradeable.sol\":3689:3741  functionCallWithValue(target, data, 0, errorMessage) */\n      jump\t// in\n    tag_565:\n        /* \"@openzeppelin/contracts-upgradeable/utils/AddressUpgradeable.sol\":3682:3741  return functionCallWithValue(target, data, 0, errorMessage) */\n      swap5\n        /* \"@openzeppelin/contracts-upgradeable/utils/AddressUpgradeable.sol\":3525:3748  function functionCall(... */\n      swap4\n      pop\n      pop\n      pop\n      pop\n      jump\t// out\n        /* \"@openzeppelin/contracts-upgradeable/utils/AddressUpgradeable.sol\":4612:5111  function functionCallWithValue(... */\n    tag_566:\n        /* \"@openzeppelin/contracts-upgradeable/utils/AddressUpgradeable.sol\":4777:4789  bytes memory */\n      0x60\n        /* \"@openzeppelin/contracts-upgradeable/utils/AddressUpgradeable.sol\":4834:4839  value */\n      dup3\n        /* \"@openzeppelin/contracts-upgradeable/utils/AddressUpgradeable.sol\":4809:4830  address(this).balance */\n      selfbalance\n        /* \"@openzeppelin/contracts-upgradeable/utils/AddressUpgradeable.sol\":4809:4839  address(this).balance >= value */\n      lt\n      iszero\n        /* \"@openzeppelin/contracts-upgradeable/utils/AddressUpgradeable.sol\":4801:4882  require(address(this).balance >= value, \"Address: insufficient balance for call\") */\n      tag_568\n      jumpi\n      mload(0x40)\n      shl(0xe5, 0x461bcd)\n      dup2\n      mstore\n      0x04\n      add\n      tag_193\n      swap1\n      tag_570\n      jump\t// in\n    tag_568:\n        /* \"@openzeppelin/contracts-upgradeable/utils/AddressUpgradeable.sol\":4900:4918  isContract(target) */\n      tag_571\n        /* \"@openzeppelin/contracts-upgradeable/utils/AddressUpgradeable.sol\":4911:4917  target */\n      dup6\n        /* \"@openzeppelin/contracts-upgradeable/utils/AddressUpgradeable.sol\":4900:4910  isContract */\n      tag_572\n        /* \"@openzeppelin/contracts-upgradeable/utils/AddressUpgradeable.sol\":4900:4918  isContract(target) */\n      jump\t// in\n    tag_571:\n        /* \"@openzeppelin/contracts-upgradeable/utils/AddressUpgradeable.sol\":4892:4952  require(isContract(target), \"Address: call to non-contract\") */\n      tag_573\n      jumpi\n      mload(0x40)\n      shl(0xe5, 0x461bcd)\n      dup2\n      mstore\n      0x04\n      add\n      tag_193\n      swap1\n      tag_575\n      jump\t// in\n    tag_573:\n        /* \"@openzeppelin/contracts-upgradeable/utils/AddressUpgradeable.sol\":4964:4976  bool success */\n      0x00\n        /* \"@openzeppelin/contracts-upgradeable/utils/AddressUpgradeable.sol\":4978:5001  bytes memory returndata */\n      dup1\n        /* \"@openzeppelin/contracts-upgradeable/utils/AddressUpgradeable.sol\":5005:5011  target */\n      dup7\n      sub(shl(0xa0, 0x01), 0x01)\n        /* \"@openzeppelin/contracts-upgradeable/utils/AddressUpgradeable.sol\":5005:5016  target.call */\n      and\n        /* \"@openzeppelin/contracts-upgradeable/utils/AddressUpgradeable.sol\":5024:5029  value */\n      dup6\n        /* \"@openzeppelin/contracts-upgradeable/utils/AddressUpgradeable.sol\":5031:5035  data */\n      dup8\n        /* \"@openzeppelin/contracts-upgradeable/utils/AddressUpgradeable.sol\":5005:5036  target.call{value: value}(data) */\n      mload(0x40)\n      tag_576\n      swap2\n      swap1\n      tag_577\n      jump\t// in\n    tag_576:\n      0x00\n      mload(0x40)\n      dup1\n      dup4\n      sub\n      dup2\n      dup6\n      dup8\n      gas\n      call\n      swap3\n      pop\n      pop\n      pop\n      returndatasize\n      dup1\n      0x00\n      dup2\n      eq\n      tag_580\n      jumpi\n      mload(0x40)\n      swap2\n      pop\n      and(add(returndatasize, 0x3f), not(0x1f))\n      dup3\n      add\n      0x40\n      mstore\n      returndatasize\n      dup3\n      mstore\n      returndatasize\n      0x00\n      0x20\n      dup5\n      add\n      returndatacopy\n      jump(tag_579)\n    tag_580:\n      0x60\n      swap2\n      pop\n    tag_579:\n      pop\n        /* \"@openzeppelin/contracts-upgradeable/utils/AddressUpgradeable.sol\":4963:5036  (bool success, bytes memory returndata) = target.call{value: value}(data) */\n      swap2\n      pop\n      swap2\n      pop\n        /* \"@openzeppelin/contracts-upgradeable/utils/AddressUpgradeable.sol\":5053:5104  verifyCallResult(success, returndata, errorMessage) */\n      tag_342\n        /* \"@openzeppelin/contracts-upgradeable/utils/AddressUpgradeable.sol\":5070:5077  success */\n      dup3\n        /* \"@openzeppelin/contracts-upgradeable/utils/AddressUpgradeable.sol\":5079:5089  returndata */\n      dup3\n        /* \"@openzeppelin/contracts-upgradeable/utils/AddressUpgradeable.sol\":5091:5103  errorMessage */\n      dup7\n        /* \"@openzeppelin/contracts-upgradeable/utils/AddressUpgradeable.sol\":5053:5069  verifyCallResult */\n      tag_582\n        /* \"@openzeppelin/contracts-upgradeable/utils/AddressUpgradeable.sol\":5053:5104  verifyCallResult(success, returndata, errorMessage) */\n      jump\t// in\n        /* \"@openzeppelin/contracts-upgradeable/utils/AddressUpgradeable.sol\":782:1159  function isContract(address account) internal view returns (bool) {... */\n    tag_572:\n        /* \"@openzeppelin/contracts-upgradeable/utils/AddressUpgradeable.sol\":1098:1118  extcodesize(account) */\n      extcodesize\n        /* \"@openzeppelin/contracts-upgradeable/utils/AddressUpgradeable.sol\":1144:1152  size > 0 */\n      iszero\n      iszero\n      swap1\n        /* \"@openzeppelin/contracts-upgradeable/utils/AddressUpgradeable.sol\":782:1159  function isContract(address account) internal view returns (bool) {... */\n      jump\t// out\n        /* \"@openzeppelin/contracts-upgradeable/utils/AddressUpgradeable.sol\":6275:6967  function verifyCallResult(... */\n    tag_582:\n        /* \"@openzeppelin/contracts-upgradeable/utils/AddressUpgradeable.sol\":6421:6433  bytes memory */\n      0x60\n        /* \"@openzeppelin/contracts-upgradeable/utils/AddressUpgradeable.sol\":6449:6456  success */\n      dup4\n        /* \"@openzeppelin/contracts-upgradeable/utils/AddressUpgradeable.sol\":6445:6961  if (success) {... */\n      iszero\n      tag_585\n      jumpi\n      pop\n        /* \"@openzeppelin/contracts-upgradeable/utils/AddressUpgradeable.sol\":6479:6489  returndata */\n      dup2\n        /* \"@openzeppelin/contracts-upgradeable/utils/AddressUpgradeable.sol\":6472:6489  return returndata */\n      jump(tag_383)\n        /* \"@openzeppelin/contracts-upgradeable/utils/AddressUpgradeable.sol\":6445:6961  if (success) {... */\n    tag_585:\n        /* \"@openzeppelin/contracts-upgradeable/utils/AddressUpgradeable.sol\":6590:6607  returndata.length */\n      dup3\n      mload\n        /* \"@openzeppelin/contracts-upgradeable/utils/AddressUpgradeable.sol\":6590:6611  returndata.length > 0 */\n      iszero\n        /* \"@openzeppelin/contracts-upgradeable/utils/AddressUpgradeable.sol\":6586:6951  if (returndata.length > 0) {... */\n      tag_587\n      jumpi\n        /* \"@openzeppelin/contracts-upgradeable/utils/AddressUpgradeable.sol\":6784:6794  returndata */\n      dup3\n        /* \"@openzeppelin/contracts-upgradeable/utils/AddressUpgradeable.sol\":6778:6795  mload(returndata) */\n      mload\n        /* \"@openzeppelin/contracts-upgradeable/utils/AddressUpgradeable.sol\":6844:6859  returndata_size */\n      dup1\n        /* \"@openzeppelin/contracts-upgradeable/utils/AddressUpgradeable.sol\":6831:6841  returndata */\n      dup5\n        /* \"@openzeppelin/contracts-upgradeable/utils/AddressUpgradeable.sol\":6827:6829  32 */\n      0x20\n        /* \"@openzeppelin/contracts-upgradeable/utils/AddressUpgradeable.sol\":6823:6842  add(32, returndata) */\n      add\n        /* \"@openzeppelin/contracts-upgradeable/utils/AddressUpgradeable.sol\":6816:6860  revert(add(32, returndata), returndata_size) */\n      revert\n        /* \"@openzeppelin/contracts-upgradeable/utils/AddressUpgradeable.sol\":6733:6878  {... */\n    tag_587:\n        /* \"@openzeppelin/contracts-upgradeable/utils/AddressUpgradeable.sol\":6923:6935  errorMessage */\n      dup2\n        /* \"@openzeppelin/contracts-upgradeable/utils/AddressUpgradeable.sol\":6916:6936  revert(errorMessage) */\n      mload(0x40)\n      shl(0xe5, 0x461bcd)\n      dup2\n      mstore\n      0x04\n      add\n      tag_193\n      swap2\n      swap1\n      tag_590\n      jump\t// in\n    tag_267:\n      dup3\n      dup1\n      sload\n      tag_591\n      swap1\n      tag_273\n      jump\t// in\n    tag_591:\n      swap1\n      0x00\n      mstore\n      keccak256(0x00, 0x20)\n      swap1\n      0x1f\n      add\n      0x20\n      swap1\n      div\n      dup2\n      add\n      swap3\n      dup3\n      tag_593\n      jumpi\n      0x00\n      dup6\n      sstore\n      jump(tag_596)\n    tag_593:\n      dup3\n      0x1f\n      lt\n      tag_594\n      jumpi\n      dup1\n      mload\n      not(0xff)\n      and\n      dup4\n      dup1\n      add\n      or\n      dup6\n      sstore\n      jump(tag_596)\n    tag_594:\n      dup3\n      dup1\n      add\n      0x01\n      add\n      dup6\n      sstore\n      dup3\n      iszero\n      tag_596\n      jumpi\n      swap2\n      dup3\n      add\n    tag_595:\n      dup3\n      dup2\n      gt\n      iszero\n      tag_596\n      jumpi\n      dup3\n      mload\n      dup3\n      sstore\n      swap2\n      0x20\n      add\n      swap2\n      swap1\n      0x01\n      add\n      swap1\n      jump(tag_595)\n    tag_596:\n      pop\n      tag_597\n      swap3\n      swap2\n      pop\n      tag_598\n      jump\t// in\n    tag_597:\n      pop\n      swap1\n      jump\t// out\n    tag_270:\n      mload(0x40)\n      dup1\n      0x0160\n      add\n      0x40\n      mstore\n      dup1\n      and(sub(shl(0xa0, 0x01), 0x01), 0x00)\n      dup2\n      mstore\n      0x20\n      add\n      0x00\n      dup2\n      mstore\n      0x20\n      add\n      0x60\n      dup2\n      mstore\n      0x20\n      add\n      0x00\n      dup2\n      mstore\n      0x20\n      add\n      0x00\n      dup2\n      mstore\n      0x20\n      add\n      0x00\n      dup2\n      mstore\n      0x20\n      add\n      0x00\n      dup2\n      mstore\n      0x20\n      add\n      0x00\n      dup2\n      mstore\n      0x20\n      add\n      0x00\n      dup2\n      mstore\n      0x20\n      add\n      0x00\n      dup2\n      mstore\n      0x20\n      add\n      0x00\n      dup2\n      mstore\n      pop\n      swap1\n      jump\t// out\n    tag_598:\n    tag_599:\n      dup1\n      dup3\n      gt\n      iszero\n      tag_597\n      jumpi\n      0x00\n      dup2\n      sstore\n      0x01\n      add\n      jump(tag_599)\n        /* \"#utility.yul\":14:152   */\n    tag_602:\n        /* \"#utility.yul\":84:104   */\n      dup1\n      calldataload\n        /* \"#utility.yul\":113:146   */\n      tag_271\n        /* \"#utility.yul\":84:104   */\n      dup2\n        /* \"#utility.yul\":113:146   */\n      tag_605\n      jump\t// in\n        /* \"#utility.yul\":157:826   */\n    tag_606:\n      0x00\n        /* \"#utility.yul\":268:271   */\n      dup3\n        /* \"#utility.yul\":261:265   */\n      0x1f\n        /* \"#utility.yul\":253:259   */\n      dup4\n        /* \"#utility.yul\":249:266   */\n      add\n        /* \"#utility.yul\":245:272   */\n      slt\n        /* \"#utility.yul\":235:237   */\n      tag_608\n      jumpi\n        /* \"#utility.yul\":290:295   */\n      dup1\n        /* \"#utility.yul\":283:288   */\n      dup2\n        /* \"#utility.yul\":276:296   */\n      revert\n        /* \"#utility.yul\":235:237   */\n    tag_608:\n        /* \"#utility.yul\":330:336   */\n      dup2\n        /* \"#utility.yul\":317:337   */\n      calldataload\n        /* \"#utility.yul\":356:360   */\n      0x20\n        /* \"#utility.yul\":380:443   */\n      tag_609\n        /* \"#utility.yul\":395:442   */\n      tag_610\n        /* \"#utility.yul\":439:441   */\n      dup4\n        /* \"#utility.yul\":395:442   */\n      tag_611\n      jump\t// in\n    tag_610:\n        /* \"#utility.yul\":380:443   */\n      tag_612\n      jump\t// in\n    tag_609:\n        /* \"#utility.yul\":477:492   */\n      dup3\n      dup2\n      mstore\n        /* \"#utility.yul\":508:520   */\n      dup2\n      dup2\n      add\n      swap1\n        /* \"#utility.yul\":540:555   */\n      dup6\n      dup4\n      add\n        /* \"#utility.yul\":573:578   */\n      dup6\n        /* \"#utility.yul\":587:797   */\n    tag_613:\n        /* \"#utility.yul\":601:603   */\n      dup6\n        /* \"#utility.yul\":598:599   */\n      dup2\n        /* \"#utility.yul\":595:604   */\n      lt\n        /* \"#utility.yul\":587:797   */\n      iszero\n      tag_615\n      jumpi\n        /* \"#utility.yul\":658:722   */\n      tag_616\n        /* \"#utility.yul\":718:721   */\n      dup10\n        /* \"#utility.yul\":713:715   */\n      dup7\n        /* \"#utility.yul\":706:709   */\n      dup5\n        /* \"#utility.yul\":693:710   */\n      calldataload\n        /* \"#utility.yul\":685:691   */\n      dup12\n        /* \"#utility.yul\":681:711   */\n      add\n        /* \"#utility.yul\":677:716   */\n      add\n        /* \"#utility.yul\":658:722   */\n      tag_617\n      jump\t// in\n    tag_616:\n        /* \"#utility.yul\":646:723   */\n      dup5\n      mstore\n        /* \"#utility.yul\":743:755   */\n      swap3\n      dup5\n      add\n      swap3\n        /* \"#utility.yul\":775:787   */\n      swap1\n      dup5\n      add\n      swap1\n        /* \"#utility.yul\":619:620   */\n      0x01\n        /* \"#utility.yul\":612:621   */\n      add\n        /* \"#utility.yul\":587:797   */\n      jump(tag_613)\n    tag_615:\n      pop\n        /* \"#utility.yul\":815:820   */\n      swap1\n      swap8\n        /* \"#utility.yul\":225:826   */\n      swap7\n      pop\n      pop\n      pop\n      pop\n      pop\n      pop\n      pop\n      jump\t// out\n        /* \"#utility.yul\":831:1534   */\n    tag_618:\n      0x00\n        /* \"#utility.yul\":944:947   */\n      dup3\n        /* \"#utility.yul\":937:941   */\n      0x1f\n        /* \"#utility.yul\":929:935   */\n      dup4\n        /* \"#utility.yul\":925:942   */\n      add\n        /* \"#utility.yul\":921:948   */\n      slt\n        /* \"#utility.yul\":911:913   */\n      tag_620\n      jumpi\n        /* \"#utility.yul\":966:971   */\n      dup1\n        /* \"#utility.yul\":959:964   */\n      dup2\n        /* \"#utility.yul\":952:972   */\n      revert\n        /* \"#utility.yul\":911:913   */\n    tag_620:\n        /* \"#utility.yul\":1006:1012   */\n      dup2\n        /* \"#utility.yul\":993:1013   */\n      calldataload\n        /* \"#utility.yul\":1032:1036   */\n      0x20\n        /* \"#utility.yul\":1056:1119   */\n      tag_621\n        /* \"#utility.yul\":1071:1118   */\n      tag_610\n        /* \"#utility.yul\":1115:1117   */\n      dup4\n        /* \"#utility.yul\":1071:1118   */\n      tag_611\n      jump\t// in\n        /* \"#utility.yul\":1056:1119   */\n    tag_621:\n        /* \"#utility.yul\":1153:1168   */\n      dup3\n      dup2\n      mstore\n        /* \"#utility.yul\":1184:1196   */\n      dup2\n      dup2\n      add\n      swap1\n        /* \"#utility.yul\":1216:1231   */\n      dup6\n      dup4\n      add\n        /* \"#utility.yul\":1262:1273   */\n      dup4\n      dup6\n      mul\n        /* \"#utility.yul\":1250:1274   */\n      dup8\n      add\n        /* \"#utility.yul\":1246:1279   */\n      dup5\n      add\n        /* \"#utility.yul\":1243:1285   */\n      dup9\n      lt\n        /* \"#utility.yul\":1240:1242   */\n      iszero\n      tag_623\n      jumpi\n        /* \"#utility.yul\":1302:1307   */\n      dup6\n        /* \"#utility.yul\":1295:1300   */\n      dup7\n        /* \"#utility.yul\":1288:1308   */\n      revert\n        /* \"#utility.yul\":1240:1242   */\n    tag_623:\n        /* \"#utility.yul\":1328:1333   */\n      dup6\n        /* \"#utility.yul\":1342:1505   */\n    tag_624:\n        /* \"#utility.yul\":1356:1358   */\n      dup6\n        /* \"#utility.yul\":1353:1354   */\n      dup2\n        /* \"#utility.yul\":1350:1359   */\n      lt\n        /* \"#utility.yul\":1342:1505   */\n      iszero\n      tag_615\n      jumpi\n        /* \"#utility.yul\":1413:1430   */\n      dup2\n      calldataload\n        /* \"#utility.yul\":1401:1431   */\n      dup5\n      mstore\n        /* \"#utility.yul\":1451:1463   */\n      swap3\n      dup5\n      add\n      swap3\n        /* \"#utility.yul\":1483:1495   */\n      swap1\n      dup5\n      add\n      swap1\n        /* \"#utility.yul\":1374:1375   */\n      0x01\n        /* \"#utility.yul\":1367:1376   */\n      add\n        /* \"#utility.yul\":1342:1505   */\n      jump(tag_624)\n        /* \"#utility.yul\":1539:2090   */\n    tag_617:\n      0x00\n        /* \"#utility.yul\":1636:1639   */\n      dup3\n        /* \"#utility.yul\":1629:1633   */\n      0x1f\n        /* \"#utility.yul\":1621:1627   */\n      dup4\n        /* \"#utility.yul\":1617:1634   */\n      add\n        /* \"#utility.yul\":1613:1640   */\n      slt\n        /* \"#utility.yul\":1603:1605   */\n      tag_628\n      jumpi\n        /* \"#utility.yul\":1658:1663   */\n      dup1\n        /* \"#utility.yul\":1651:1656   */\n      dup2\n        /* \"#utility.yul\":1644:1664   */\n      revert\n        /* \"#utility.yul\":1603:1605   */\n    tag_628:\n        /* \"#utility.yul\":1698:1704   */\n      dup2\n        /* \"#utility.yul\":1685:1705   */\n      calldataload\n        /* \"#utility.yul\":1724:1742   */\n      0xffffffffffffffff\n        /* \"#utility.yul\":1720:1722   */\n      dup2\n        /* \"#utility.yul\":1717:1743   */\n      gt\n        /* \"#utility.yul\":1714:1716   */\n      iszero\n      tag_630\n      jumpi\n        /* \"#utility.yul\":1746:1764   */\n      tag_630\n      tag_631\n      jump\t// in\n    tag_630:\n        /* \"#utility.yul\":1790:1844   */\n      tag_632\n        /* \"#utility.yul\":1832:1834   */\n      0x1f\n        /* \"#utility.yul\":1813:1826   */\n      dup3\n      add\n      not(0x1f)\n        /* \"#utility.yul\":1809:1836   */\n      and\n        /* \"#utility.yul\":1838:1842   */\n      0x20\n        /* \"#utility.yul\":1805:1843   */\n      add\n        /* \"#utility.yul\":1790:1844   */\n      tag_612\n      jump\t// in\n    tag_632:\n        /* \"#utility.yul\":1869:1871   */\n      dup2\n        /* \"#utility.yul\":1860:1867   */\n      dup2\n        /* \"#utility.yul\":1853:1872   */\n      mstore\n        /* \"#utility.yul\":1915:1918   */\n      dup5\n        /* \"#utility.yul\":1908:1912   */\n      0x20\n        /* \"#utility.yul\":1903:1905   */\n      dup4\n        /* \"#utility.yul\":1895:1901   */\n      dup7\n        /* \"#utility.yul\":1891:1906   */\n      add\n        /* \"#utility.yul\":1887:1913   */\n      add\n        /* \"#utility.yul\":1884:1919   */\n      gt\n        /* \"#utility.yul\":1881:1883   */\n      iszero\n      tag_633\n      jumpi\n        /* \"#utility.yul\":1936:1941   */\n      dup3\n        /* \"#utility.yul\":1929:1934   */\n      dup4\n        /* \"#utility.yul\":1922:1942   */\n      revert\n        /* \"#utility.yul\":1881:1883   */\n    tag_633:\n        /* \"#utility.yul\":2005:2007   */\n      dup2\n        /* \"#utility.yul\":1998:2002   */\n      0x20\n        /* \"#utility.yul\":1990:1996   */\n      dup6\n        /* \"#utility.yul\":1986:2003   */\n      add\n        /* \"#utility.yul\":1979:1983   */\n      0x20\n        /* \"#utility.yul\":1970:1977   */\n      dup4\n        /* \"#utility.yul\":1966:1984   */\n      add\n        /* \"#utility.yul\":1953:2008   */\n      calldatacopy\n        /* \"#utility.yul\":2028:2044   */\n      swap1\n      dup2\n      add\n        /* \"#utility.yul\":2046:2050   */\n      0x20\n        /* \"#utility.yul\":2024:2051   */\n      add\n        /* \"#utility.yul\":2017:2059   */\n      swap2\n      swap1\n      swap2\n      mstore\n        /* \"#utility.yul\":2032:2039   */\n      swap3\n        /* \"#utility.yul\":1593:2090   */\n      swap2\n      pop\n      pop\n      jump\t// out\n        /* \"#utility.yul\":2095:2354   */\n    tag_83:\n      0x00\n        /* \"#utility.yul\":2207:2209   */\n      0x20\n        /* \"#utility.yul\":2195:2204   */\n      dup3\n        /* \"#utility.yul\":2186:2193   */\n      dup5\n        /* \"#utility.yul\":2182:2205   */\n      sub\n        /* \"#utility.yul\":2178:2210   */\n      slt\n        /* \"#utility.yul\":2175:2177   */\n      iszero\n      tag_635\n      jumpi\n        /* \"#utility.yul\":2228:2234   */\n      dup1\n        /* \"#utility.yul\":2220:2226   */\n      dup2\n        /* \"#utility.yul\":2213:2235   */\n      revert\n        /* \"#utility.yul\":2175:2177   */\n    tag_635:\n        /* \"#utility.yul\":2272:2281   */\n      dup2\n        /* \"#utility.yul\":2259:2282   */\n      calldataload\n        /* \"#utility.yul\":2291:2324   */\n      tag_383\n        /* \"#utility.yul\":2318:2323   */\n      dup2\n        /* \"#utility.yul\":2291:2324   */\n      tag_605\n      jump\t// in\n        /* \"#utility.yul\":2359:2755   */\n    tag_56:\n      0x00\n      dup1\n        /* \"#utility.yul\":2485:2487   */\n      0x40\n        /* \"#utility.yul\":2473:2482   */\n      dup4\n        /* \"#utility.yul\":2464:2471   */\n      dup6\n        /* \"#utility.yul\":2460:2483   */\n      sub\n        /* \"#utility.yul\":2456:2488   */\n      slt\n        /* \"#utility.yul\":2453:2455   */\n      iszero\n      tag_638\n      jumpi\n        /* \"#utility.yul\":2506:2512   */\n      dup1\n        /* \"#utility.yul\":2498:2504   */\n      dup2\n        /* \"#utility.yul\":2491:2513   */\n      revert\n        /* \"#utility.yul\":2453:2455   */\n    tag_638:\n        /* \"#utility.yul\":2550:2559   */\n      dup3\n        /* \"#utility.yul\":2537:2560   */\n      calldataload\n        /* \"#utility.yul\":2569:2602   */\n      tag_639\n        /* \"#utility.yul\":2596:2601   */\n      dup2\n        /* \"#utility.yul\":2569:2602   */\n      tag_605\n      jump\t// in\n    tag_639:\n        /* \"#utility.yul\":2621:2626   */\n      swap2\n      pop\n        /* \"#utility.yul\":2678:2680   */\n      0x20\n        /* \"#utility.yul\":2663:2681   */\n      dup4\n      add\n        /* \"#utility.yul\":2650:2682   */\n      calldataload\n        /* \"#utility.yul\":2691:2723   */\n      tag_640\n        /* \"#utility.yul\":2650:2682   */\n      dup2\n        /* \"#utility.yul\":2691:2723   */\n      tag_641\n      jump\t// in\n    tag_640:\n        /* \"#utility.yul\":2742:2749   */\n      dup1\n        /* \"#utility.yul\":2732:2749   */\n      swap2\n      pop\n      pop\n        /* \"#utility.yul\":2443:2755   */\n      swap3\n      pop\n      swap3\n      swap1\n      pop\n      jump\t// out\n        /* \"#utility.yul\":2760:3511   */\n    tag_169:\n      0x00\n      dup1\n      0x00\n      dup1\n        /* \"#utility.yul\":2985:2988   */\n      0x80\n        /* \"#utility.yul\":2973:2982   */\n      dup6\n        /* \"#utility.yul\":2964:2971   */\n      dup8\n        /* \"#utility.yul\":2960:2983   */\n      sub\n        /* \"#utility.yul\":2956:2989   */\n      slt\n        /* \"#utility.yul\":2953:2955   */\n      iszero\n      tag_643\n      jumpi\n        /* \"#utility.yul\":3007:3013   */\n      dup2\n        /* \"#utility.yul\":2999:3005   */\n      dup3\n        /* \"#utility.yul\":2992:3014   */\n      revert\n        /* \"#utility.yul\":2953:2955   */\n    tag_643:\n        /* \"#utility.yul\":3051:3060   */\n      dup5\n        /* \"#utility.yul\":3038:3061   */\n      calldataload\n        /* \"#utility.yul\":3070:3103   */\n      tag_644\n        /* \"#utility.yul\":3097:3102   */\n      dup2\n        /* \"#utility.yul\":3070:3103   */\n      tag_605\n      jump\t// in\n    tag_644:\n        /* \"#utility.yul\":3122:3127   */\n      swap4\n      pop\n        /* \"#utility.yul\":3179:3181   */\n      0x20\n        /* \"#utility.yul\":3164:3182   */\n      dup6\n      add\n        /* \"#utility.yul\":3151:3183   */\n      calldataload\n        /* \"#utility.yul\":3192:3227   */\n      tag_645\n        /* \"#utility.yul\":3151:3183   */\n      dup2\n        /* \"#utility.yul\":3192:3227   */\n      tag_605\n      jump\t// in\n    tag_645:\n        /* \"#utility.yul\":3246:3253   */\n      swap3\n      pop\n        /* \"#utility.yul\":3305:3307   */\n      0x40\n        /* \"#utility.yul\":3290:3308   */\n      dup6\n      add\n        /* \"#utility.yul\":3277:3309   */\n      calldataload\n        /* \"#utility.yul\":3318:3353   */\n      tag_646\n        /* \"#utility.yul\":3277:3309   */\n      dup2\n        /* \"#utility.yul\":3318:3353   */\n      tag_605\n      jump\t// in\n    tag_646:\n        /* \"#utility.yul\":3372:3379   */\n      swap2\n      pop\n        /* \"#utility.yul\":3431:3433   */\n      0x60\n        /* \"#utility.yul\":3416:3434   */\n      dup6\n      add\n        /* \"#utility.yul\":3403:3435   */\n      calldataload\n        /* \"#utility.yul\":3444:3479   */\n      tag_647\n        /* \"#utility.yul\":3403:3435   */\n      dup2\n        /* \"#utility.yul\":3444:3479   */\n      tag_605\n      jump\t// in\n    tag_647:\n        /* \"#utility.yul\":2943:3511   */\n      swap4\n      swap7\n      swap3\n      swap6\n      pop\n      swap1\n      swap4\n      pop\n      pop\n      jump\t// out\n        /* \"#utility.yul\":3516:3843   */\n    tag_104:\n      0x00\n      dup1\n        /* \"#utility.yul\":3645:3647   */\n      0x40\n        /* \"#utility.yul\":3633:3642   */\n      dup4\n        /* \"#utility.yul\":3624:3631   */\n      dup6\n        /* \"#utility.yul\":3620:3643   */\n      sub\n        /* \"#utility.yul\":3616:3648   */\n      slt\n        /* \"#utility.yul\":3613:3615   */\n      iszero\n      tag_649\n      jumpi\n        /* \"#utility.yul\":3666:3672   */\n      dup2\n        /* \"#utility.yul\":3658:3664   */\n      dup3\n        /* \"#utility.yul\":3651:3673   */\n      revert\n        /* \"#utility.yul\":3613:3615   */\n    tag_649:\n        /* \"#utility.yul\":3710:3719   */\n      dup3\n        /* \"#utility.yul\":3697:3720   */\n      calldataload\n        /* \"#utility.yul\":3729:3762   */\n      tag_650\n        /* \"#utility.yul\":3756:3761   */\n      dup2\n        /* \"#utility.yul\":3729:3762   */\n      tag_605\n      jump\t// in\n    tag_650:\n        /* \"#utility.yul\":3781:3786   */\n      swap5\n        /* \"#utility.yul\":3833:3835   */\n      0x20\n        /* \"#utility.yul\":3818:3836   */\n      swap4\n      swap1\n      swap4\n      add\n        /* \"#utility.yul\":3805:3837   */\n      calldataload\n      swap4\n      pop\n      pop\n      pop\n        /* \"#utility.yul\":3603:3843   */\n      jump\t// out\n        /* \"#utility.yul\":3848:4312   */\n    tag_44:\n      0x00\n      dup1\n      0x00\n      dup1\n        /* \"#utility.yul\":4011:4014   */\n      0x80\n        /* \"#utility.yul\":3999:4008   */\n      dup6\n        /* \"#utility.yul\":3990:3997   */\n      dup8\n        /* \"#utility.yul\":3986:4009   */\n      sub\n        /* \"#utility.yul\":3982:4015   */\n      slt\n        /* \"#utility.yul\":3979:3981   */\n      iszero\n      tag_652\n      jumpi\n        /* \"#utility.yul\":4033:4039   */\n      dup4\n        /* \"#utility.yul\":4025:4031   */\n      dup5\n        /* \"#utility.yul\":4018:4040   */\n      revert\n        /* \"#utility.yul\":3979:3981   */\n    tag_652:\n        /* \"#utility.yul\":4077:4086   */\n      dup5\n        /* \"#utility.yul\":4064:4087   */\n      calldataload\n        /* \"#utility.yul\":4096:4129   */\n      tag_653\n        /* \"#utility.yul\":4123:4128   */\n      dup2\n        /* \"#utility.yul\":4096:4129   */\n      tag_605\n      jump\t// in\n    tag_653:\n        /* \"#utility.yul\":4148:4153   */\n      swap7\n        /* \"#utility.yul\":4200:4202   */\n      0x20\n        /* \"#utility.yul\":4185:4203   */\n      dup7\n      add\n        /* \"#utility.yul\":4172:4204   */\n      calldataload\n      swap7\n      pop\n        /* \"#utility.yul\":4251:4253   */\n      0x40\n        /* \"#utility.yul\":4236:4254   */\n      dup7\n      add\n        /* \"#utility.yul\":4223:4255   */\n      calldataload\n      swap6\n        /* \"#utility.yul\":4302:4304   */\n      0x60\n        /* \"#utility.yul\":4287:4305   */\n      add\n        /* \"#utility.yul\":4274:4306   */\n      calldataload\n      swap5\n      pop\n        /* \"#utility.yul\":3969:4312   */\n      swap3\n      pop\n      pop\n      pop\n      jump\t// out\n        /* \"#utility.yul\":4317:5697   */\n    tag_97:\n      0x00\n      dup1\n      0x00\n      dup1\n      0x00\n        /* \"#utility.yul\":4641:4644   */\n      0xa0\n        /* \"#utility.yul\":4629:4638   */\n      dup7\n        /* \"#utility.yul\":4620:4627   */\n      dup9\n        /* \"#utility.yul\":4616:4639   */\n      sub\n        /* \"#utility.yul\":4612:4645   */\n      slt\n        /* \"#utility.yul\":4609:4611   */\n      iszero\n      tag_655\n      jumpi\n        /* \"#utility.yul\":4663:4669   */\n      dup3\n        /* \"#utility.yul\":4655:4661   */\n      dup4\n        /* \"#utility.yul\":4648:4670   */\n      revert\n        /* \"#utility.yul\":4609:4611   */\n    tag_655:\n        /* \"#utility.yul\":4708:4717   */\n      dup6\n        /* \"#utility.yul\":4695:4718   */\n      calldataload\n        /* \"#utility.yul\":4737:4755   */\n      0xffffffffffffffff\n        /* \"#utility.yul\":4778:4780   */\n      dup1\n        /* \"#utility.yul\":4770:4776   */\n      dup3\n        /* \"#utility.yul\":4767:4781   */\n      gt\n        /* \"#utility.yul\":4764:4766   */\n      iszero\n      tag_656\n      jumpi\n        /* \"#utility.yul\":4799:4805   */\n      dup5\n        /* \"#utility.yul\":4791:4797   */\n      dup6\n        /* \"#utility.yul\":4784:4806   */\n      revert\n        /* \"#utility.yul\":4764:4766   */\n    tag_656:\n        /* \"#utility.yul\":4827:4894   */\n      tag_657\n        /* \"#utility.yul\":4886:4893   */\n      dup10\n        /* \"#utility.yul\":4877:4883   */\n      dup4\n        /* \"#utility.yul\":4866:4875   */\n      dup11\n        /* \"#utility.yul\":4862:4884   */\n      add\n        /* \"#utility.yul\":4827:4894   */\n      tag_618\n      jump\t// in\n    tag_657:\n        /* \"#utility.yul\":4817:4894   */\n      swap7\n      pop\n        /* \"#utility.yul\":4947:4949   */\n      0x20\n        /* \"#utility.yul\":4936:4945   */\n      dup9\n        /* \"#utility.yul\":4932:4950   */\n      add\n        /* \"#utility.yul\":4919:4951   */\n      calldataload\n        /* \"#utility.yul\":4903:4951   */\n      swap2\n      pop\n        /* \"#utility.yul\":4976:4978   */\n      dup1\n        /* \"#utility.yul\":4966:4974   */\n      dup3\n        /* \"#utility.yul\":4963:4979   */\n      gt\n        /* \"#utility.yul\":4960:4962   */\n      iszero\n      tag_658\n      jumpi\n        /* \"#utility.yul\":4997:5003   */\n      dup5\n        /* \"#utility.yul\":4989:4995   */\n      dup6\n        /* \"#utility.yul\":4982:5004   */\n      revert\n        /* \"#utility.yul\":4960:4962   */\n    tag_658:\n        /* \"#utility.yul\":5025:5094   */\n      tag_659\n        /* \"#utility.yul\":5086:5093   */\n      dup10\n        /* \"#utility.yul\":5075:5083   */\n      dup4\n        /* \"#utility.yul\":5064:5073   */\n      dup11\n        /* \"#utility.yul\":5060:5084   */\n      add\n        /* \"#utility.yul\":5025:5094   */\n      tag_618\n      jump\t// in\n    tag_659:\n        /* \"#utility.yul\":5015:5094   */\n      swap6\n      pop\n        /* \"#utility.yul\":5147:5149   */\n      0x40\n        /* \"#utility.yul\":5136:5145   */\n      dup9\n        /* \"#utility.yul\":5132:5150   */\n      add\n        /* \"#utility.yul\":5119:5151   */\n      calldataload\n        /* \"#utility.yul\":5103:5151   */\n      swap2\n      pop\n        /* \"#utility.yul\":5176:5178   */\n      dup1\n        /* \"#utility.yul\":5166:5174   */\n      dup3\n        /* \"#utility.yul\":5163:5179   */\n      gt\n        /* \"#utility.yul\":5160:5162   */\n      iszero\n      tag_660\n      jumpi\n        /* \"#utility.yul\":5197:5203   */\n      dup5\n        /* \"#utility.yul\":5189:5195   */\n      dup6\n        /* \"#utility.yul\":5182:5204   */\n      revert\n        /* \"#utility.yul\":5160:5162   */\n    tag_660:\n        /* \"#utility.yul\":5225:5292   */\n      tag_661\n        /* \"#utility.yul\":5284:5291   */\n      dup10\n        /* \"#utility.yul\":5273:5281   */\n      dup4\n        /* \"#utility.yul\":5262:5271   */\n      dup11\n        /* \"#utility.yul\":5258:5282   */\n      add\n        /* \"#utility.yul\":5225:5292   */\n      tag_606\n      jump\t// in\n    tag_661:\n        /* \"#utility.yul\":5215:5292   */\n      swap5\n      pop\n        /* \"#utility.yul\":5345:5347   */\n      0x60\n        /* \"#utility.yul\":5334:5343   */\n      dup9\n        /* \"#utility.yul\":5330:5348   */\n      add\n        /* \"#utility.yul\":5317:5349   */\n      calldataload\n        /* \"#utility.yul\":5301:5349   */\n      swap2\n      pop\n        /* \"#utility.yul\":5374:5376   */\n      dup1\n        /* \"#utility.yul\":5364:5372   */\n      dup3\n        /* \"#utility.yul\":5361:5377   */\n      gt\n        /* \"#utility.yul\":5358:5360   */\n      iszero\n      tag_662\n      jumpi\n        /* \"#utility.yul\":5395:5401   */\n      dup3\n        /* \"#utility.yul\":5387:5393   */\n      dup4\n        /* \"#utility.yul\":5380:5402   */\n      revert\n        /* \"#utility.yul\":5358:5360   */\n    tag_662:\n        /* \"#utility.yul\":5423:5492   */\n      tag_663\n        /* \"#utility.yul\":5484:5491   */\n      dup10\n        /* \"#utility.yul\":5473:5481   */\n      dup4\n        /* \"#utility.yul\":5462:5471   */\n      dup11\n        /* \"#utility.yul\":5458:5482   */\n      add\n        /* \"#utility.yul\":5423:5492   */\n      tag_618\n      jump\t// in\n    tag_663:\n        /* \"#utility.yul\":5413:5492   */\n      swap4\n      pop\n        /* \"#utility.yul\":5545:5548   */\n      0x80\n        /* \"#utility.yul\":5534:5543   */\n      dup9\n        /* \"#utility.yul\":5530:5549   */\n      add\n        /* \"#utility.yul\":5517:5550   */\n      calldataload\n        /* \"#utility.yul\":5501:5550   */\n      swap2\n      pop\n        /* \"#utility.yul\":5575:5577   */\n      dup1\n        /* \"#utility.yul\":5565:5573   */\n      dup3\n        /* \"#utility.yul\":5562:5578   */\n      gt\n        /* \"#utility.yul\":5559:5561   */\n      iszero\n      tag_664\n      jumpi\n        /* \"#utility.yul\":5596:5602   */\n      dup3\n        /* \"#utility.yul\":5588:5594   */\n      dup4\n        /* \"#utility.yul\":5581:5603   */\n      revert\n        /* \"#utility.yul\":5559:5561   */\n    tag_664:\n      pop\n        /* \"#utility.yul\":5624:5691   */\n      tag_665\n        /* \"#utility.yul\":5683:5690   */\n      dup9\n        /* \"#utility.yul\":5672:5680   */\n      dup3\n        /* \"#utility.yul\":5661:5670   */\n      dup10\n        /* \"#utility.yul\":5657:5681   */\n      add\n        /* \"#utility.yul\":5624:5691   */\n      tag_606\n      jump\t// in\n    tag_665:\n        /* \"#utility.yul\":5614:5691   */\n      swap2\n      pop\n      pop\n        /* \"#utility.yul\":4599:5697   */\n      swap3\n      swap6\n      pop\n      swap3\n      swap6\n      swap1\n      swap4\n      pop\n      jump\t// out\n        /* \"#utility.yul\":5702:5959   */\n    tag_228:\n      0x00\n        /* \"#utility.yul\":5822:5824   */\n      0x20\n        /* \"#utility.yul\":5810:5819   */\n      dup3\n        /* \"#utility.yul\":5801:5808   */\n      dup5\n        /* \"#utility.yul\":5797:5820   */\n      sub\n        /* \"#utility.yul\":5793:5825   */\n      slt\n        /* \"#utility.yul\":5790:5792   */\n      iszero\n      tag_667\n      jumpi\n        /* \"#utility.yul\":5843:5849   */\n      dup1\n        /* \"#utility.yul\":5835:5841   */\n      dup2\n        /* \"#utility.yul\":5828:5850   */\n      revert\n        /* \"#utility.yul\":5790:5792   */\n    tag_667:\n        /* \"#utility.yul\":5880:5889   */\n      dup2\n        /* \"#utility.yul\":5874:5890   */\n      mload\n        /* \"#utility.yul\":5899:5929   */\n      tag_383\n        /* \"#utility.yul\":5923:5928   */\n      dup2\n        /* \"#utility.yul\":5899:5929   */\n      tag_641\n      jump\t// in\n        /* \"#utility.yul\":5964:6154   */\n    tag_50:\n      0x00\n        /* \"#utility.yul\":6076:6078   */\n      0x20\n        /* \"#utility.yul\":6064:6073   */\n      dup3\n        /* \"#utility.yul\":6055:6062   */\n      dup5\n        /* \"#utility.yul\":6051:6074   */\n      sub\n        /* \"#utility.yul\":6047:6079   */\n      slt\n        /* \"#utility.yul\":6044:6046   */\n      iszero\n      tag_670\n      jumpi\n        /* \"#utility.yul\":6097:6103   */\n      dup1\n        /* \"#utility.yul\":6089:6095   */\n      dup2\n        /* \"#utility.yul\":6082:6104   */\n      revert\n        /* \"#utility.yul\":6044:6046   */\n    tag_670:\n      pop\n        /* \"#utility.yul\":6125:6148   */\n      calldataload\n      swap2\n        /* \"#utility.yul\":6034:6154   */\n      swap1\n      pop\n      jump\t// out\n        /* \"#utility.yul\":6159:6353   */\n    tag_245:\n      0x00\n        /* \"#utility.yul\":6282:6284   */\n      0x20\n        /* \"#utility.yul\":6270:6279   */\n      dup3\n        /* \"#utility.yul\":6261:6268   */\n      dup5\n        /* \"#utility.yul\":6257:6280   */\n      sub\n        /* \"#utility.yul\":6253:6285   */\n      slt\n        /* \"#utility.yul\":6250:6252   */\n      iszero\n      tag_672\n      jumpi\n        /* \"#utility.yul\":6303:6309   */\n      dup1\n        /* \"#utility.yul\":6295:6301   */\n      dup2\n        /* \"#utility.yul\":6288:6310   */\n      revert\n        /* \"#utility.yul\":6250:6252   */\n    tag_672:\n      pop\n        /* \"#utility.yul\":6331:6347   */\n      mload\n      swap2\n        /* \"#utility.yul\":6240:6353   */\n      swap1\n      pop\n      jump\t// out\n        /* \"#utility.yul\":6358:7467   */\n    tag_173:\n      0x00\n      dup1\n      0x00\n      dup1\n      0x00\n      dup1\n      0x00\n      dup1\n      0x00\n      dup1\n      0x00\n      dup1\n        /* \"#utility.yul\":6669:6672   */\n      0x0180\n        /* \"#utility.yul\":6657:6666   */\n      dup14\n        /* \"#utility.yul\":6648:6655   */\n      dup16\n        /* \"#utility.yul\":6644:6667   */\n      sub\n        /* \"#utility.yul\":6640:6673   */\n      slt\n        /* \"#utility.yul\":6637:6639   */\n      iszero\n      tag_674\n      jumpi\n        /* \"#utility.yul\":6691:6697   */\n      dup10\n        /* \"#utility.yul\":6683:6689   */\n      dup11\n        /* \"#utility.yul\":6676:6698   */\n      revert\n        /* \"#utility.yul\":6637:6639   */\n    tag_674:\n        /* \"#utility.yul\":6732:6741   */\n      dup13\n        /* \"#utility.yul\":6719:6742   */\n      calldataload\n        /* \"#utility.yul\":6709:6742   */\n      swap12\n      pop\n        /* \"#utility.yul\":6761:6801   */\n      tag_675\n        /* \"#utility.yul\":6797:6799   */\n      0x20\n        /* \"#utility.yul\":6786:6795   */\n      dup15\n        /* \"#utility.yul\":6782:6800   */\n      add\n        /* \"#utility.yul\":6761:6801   */\n      tag_602\n      jump\t// in\n    tag_675:\n        /* \"#utility.yul\":6751:6801   */\n      swap11\n      pop\n        /* \"#utility.yul\":6848:6850   */\n      0x40\n        /* \"#utility.yul\":6837:6846   */\n      dup14\n        /* \"#utility.yul\":6833:6851   */\n      add\n        /* \"#utility.yul\":6820:6852   */\n      calldataload\n        /* \"#utility.yul\":6810:6852   */\n      swap10\n      pop\n        /* \"#utility.yul\":6901:6919   */\n      0xffffffffffffffff\n        /* \"#utility.yul\":6895:6897   */\n      0x60\n        /* \"#utility.yul\":6884:6893   */\n      dup15\n        /* \"#utility.yul\":6880:6898   */\n      add\n        /* \"#utility.yul\":6867:6899   */\n      calldataload\n        /* \"#utility.yul\":6864:6920   */\n      gt\n        /* \"#utility.yul\":6861:6863   */\n      iszero\n      tag_676\n      jumpi\n        /* \"#utility.yul\":6938:6944   */\n      dup7\n        /* \"#utility.yul\":6930:6936   */\n      dup8\n        /* \"#utility.yul\":6923:6945   */\n      revert\n        /* \"#utility.yul\":6861:6863   */\n    tag_676:\n        /* \"#utility.yul\":6966:7043   */\n      tag_677\n        /* \"#utility.yul\":7035:7042   */\n      dup15\n        /* \"#utility.yul\":7028:7030   */\n      0x60\n        /* \"#utility.yul\":7017:7026   */\n      dup16\n        /* \"#utility.yul\":7013:7031   */\n      add\n        /* \"#utility.yul\":7000:7032   */\n      calldataload\n        /* \"#utility.yul\":6989:6998   */\n      dup16\n        /* \"#utility.yul\":6985:7033   */\n      add\n        /* \"#utility.yul\":6966:7043   */\n      tag_617\n      jump\t// in\n    tag_677:\n        /* \"#utility.yul\":6627:7467   */\n      swap12\n      swap15\n      swap11\n      swap14\n      pop\n      swap9\n      swap12\n        /* \"#utility.yul\":7090:7093   */\n      0x80\n        /* \"#utility.yul\":7075:7094   */\n      dup2\n      add\n        /* \"#utility.yul\":7062:7095   */\n      calldataload\n      swap11\n        /* \"#utility.yul\":7142:7145   */\n      0xa0\n        /* \"#utility.yul\":7127:7146   */\n      dup3\n      add\n        /* \"#utility.yul\":7114:7147   */\n      calldataload\n      swap11\n      pop\n        /* \"#utility.yul\":7194:7197   */\n      0xc0\n        /* \"#utility.yul\":7179:7198   */\n      dup3\n      add\n        /* \"#utility.yul\":7166:7199   */\n      calldataload\n      swap10\n      pop\n        /* \"#utility.yul\":7246:7249   */\n      0xe0\n        /* \"#utility.yul\":7231:7250   */\n      dup3\n      add\n        /* \"#utility.yul\":7218:7251   */\n      calldataload\n      swap9\n      pop\n        /* \"#utility.yul\":7298:7301   */\n      0x0100\n        /* \"#utility.yul\":7283:7302   */\n      dup3\n      add\n        /* \"#utility.yul\":7270:7303   */\n      calldataload\n      swap8\n      pop\n        /* \"#utility.yul\":7350:7353   */\n      0x0120\n        /* \"#utility.yul\":7335:7354   */\n      dup3\n      add\n        /* \"#utility.yul\":7322:7355   */\n      calldataload\n      swap7\n      pop\n        /* \"#utility.yul\":7403:7406   */\n      0x0140\n        /* \"#utility.yul\":7388:7407   */\n      dup3\n      add\n        /* \"#utility.yul\":7375:7408   */\n      calldataload\n      swap6\n      pop\n        /* \"#utility.yul\":7456:7459   */\n      0x0160\n        /* \"#utility.yul\":7441:7460   */\n      swap1\n      swap2\n      add\n        /* \"#utility.yul\":7428:7461   */\n      calldataload\n      swap4\n      pop\n        /* \"#utility.yul\":6627:7467   */\n      swap2\n      pop\n      pop\n      jump\t// out\n        /* \"#utility.yul\":7472:8252   */\n    tag_128:\n      0x00\n      dup1\n      0x00\n      dup1\n      0x00\n        /* \"#utility.yul\":7671:7674   */\n      0xa0\n        /* \"#utility.yul\":7659:7668   */\n      dup7\n        /* \"#utility.yul\":7650:7657   */\n      dup9\n        /* \"#utility.yul\":7646:7669   */\n      sub\n        /* \"#utility.yul\":7642:7675   */\n      slt\n        /* \"#utility.yul\":7639:7641   */\n      iszero\n      tag_679\n      jumpi\n        /* \"#utility.yul\":7693:7699   */\n      dup3\n        /* \"#utility.yul\":7685:7691   */\n      dup4\n        /* \"#utility.yul\":7678:7700   */\n      revert\n        /* \"#utility.yul\":7639:7641   */\n    tag_679:\n        /* \"#utility.yul\":7734:7743   */\n      dup6\n        /* \"#utility.yul\":7721:7744   */\n      calldataload\n        /* \"#utility.yul\":7711:7744   */\n      swap5\n      pop\n        /* \"#utility.yul\":7791:7793   */\n      0x20\n        /* \"#utility.yul\":7780:7789   */\n      dup7\n        /* \"#utility.yul\":7776:7794   */\n      add\n        /* \"#utility.yul\":7763:7795   */\n      calldataload\n        /* \"#utility.yul\":7753:7795   */\n      swap4\n      pop\n        /* \"#utility.yul\":7846:7848   */\n      0x40\n        /* \"#utility.yul\":7835:7844   */\n      dup7\n        /* \"#utility.yul\":7831:7849   */\n      add\n        /* \"#utility.yul\":7818:7850   */\n      calldataload\n        /* \"#utility.yul\":7869:7887   */\n      0xffffffffffffffff\n        /* \"#utility.yul\":7910:7912   */\n      dup1\n        /* \"#utility.yul\":7902:7908   */\n      dup3\n        /* \"#utility.yul\":7899:7913   */\n      gt\n        /* \"#utility.yul\":7896:7898   */\n      iszero\n      tag_680\n      jumpi\n        /* \"#utility.yul\":7931:7937   */\n      dup5\n        /* \"#utility.yul\":7923:7929   */\n      dup6\n        /* \"#utility.yul\":7916:7938   */\n      revert\n        /* \"#utility.yul\":7896:7898   */\n    tag_680:\n        /* \"#utility.yul\":7959:8010   */\n      tag_681\n        /* \"#utility.yul\":8002:8009   */\n      dup10\n        /* \"#utility.yul\":7993:7999   */\n      dup4\n        /* \"#utility.yul\":7982:7991   */\n      dup11\n        /* \"#utility.yul\":7978:8000   */\n      add\n        /* \"#utility.yul\":7959:8010   */\n      tag_617\n      jump\t// in\n    tag_681:\n        /* \"#utility.yul\":7949:8010   */\n      swap5\n      pop\n        /* \"#utility.yul\":8057:8059   */\n      0x60\n        /* \"#utility.yul\":8046:8055   */\n      dup9\n        /* \"#utility.yul\":8042:8060   */\n      add\n        /* \"#utility.yul\":8029:8061   */\n      calldataload\n        /* \"#utility.yul\":8019:8061   */\n      swap4\n      pop\n        /* \"#utility.yul\":8114:8117   */\n      0x80\n        /* \"#utility.yul\":8103:8112   */\n      dup9\n        /* \"#utility.yul\":8099:8118   */\n      add\n        /* \"#utility.yul\":8086:8119   */\n      calldataload\n        /* \"#utility.yul\":8070:8119   */\n      swap2\n      pop\n        /* \"#utility.yul\":8144:8146   */\n      dup1\n        /* \"#utility.yul\":8134:8142   */\n      dup3\n        /* \"#utility.yul\":8131:8147   */\n      gt\n        /* \"#utility.yul\":8128:8130   */\n      iszero\n      tag_682\n      jumpi\n        /* \"#utility.yul\":8165:8171   */\n      dup3\n        /* \"#utility.yul\":8157:8163   */\n      dup4\n        /* \"#utility.yul\":8150:8172   */\n      revert\n        /* \"#utility.yul\":8128:8130   */\n    tag_682:\n      pop\n        /* \"#utility.yul\":8193:8246   */\n      tag_665\n        /* \"#utility.yul\":8238:8245   */\n      dup9\n        /* \"#utility.yul\":8227:8235   */\n      dup3\n        /* \"#utility.yul\":8216:8225   */\n      dup10\n        /* \"#utility.yul\":8212:8236   */\n      add\n        /* \"#utility.yul\":8193:8246   */\n      tag_617\n      jump\t// in\n        /* \"#utility.yul\":8257:9106   */\n    tag_123:\n      0x00\n      dup1\n      0x00\n      dup1\n      0x00\n      dup1\n        /* \"#utility.yul\":8473:8476   */\n      0xc0\n        /* \"#utility.yul\":8461:8470   */\n      dup8\n        /* \"#utility.yul\":8452:8459   */\n      dup10\n        /* \"#utility.yul\":8448:8471   */\n      sub\n        /* \"#utility.yul\":8444:8477   */\n      slt\n        /* \"#utility.yul\":8441:8443   */\n      iszero\n      tag_685\n      jumpi\n        /* \"#utility.yul\":8495:8501   */\n      dup4\n        /* \"#utility.yul\":8487:8493   */\n      dup5\n        /* \"#utility.yul\":8480:8502   */\n      revert\n        /* \"#utility.yul\":8441:8443   */\n    tag_685:\n        /* \"#utility.yul\":8536:8545   */\n      dup7\n        /* \"#utility.yul\":8523:8546   */\n      calldataload\n        /* \"#utility.yul\":8513:8546   */\n      swap6\n      pop\n        /* \"#utility.yul\":8593:8595   */\n      0x20\n        /* \"#utility.yul\":8582:8591   */\n      dup8\n        /* \"#utility.yul\":8578:8596   */\n      add\n        /* \"#utility.yul\":8565:8597   */\n      calldataload\n        /* \"#utility.yul\":8555:8597   */\n      swap5\n      pop\n        /* \"#utility.yul\":8648:8650   */\n      0x40\n        /* \"#utility.yul\":8637:8646   */\n      dup8\n        /* \"#utility.yul\":8633:8651   */\n      add\n        /* \"#utility.yul\":8620:8652   */\n      calldataload\n        /* \"#utility.yul\":8671:8689   */\n      0xffffffffffffffff\n        /* \"#utility.yul\":8712:8714   */\n      dup1\n        /* \"#utility.yul\":8704:8710   */\n      dup3\n        /* \"#utility.yul\":8701:8715   */\n      gt\n        /* \"#utility.yul\":8698:8700   */\n      iszero\n      tag_686\n      jumpi\n        /* \"#utility.yul\":8733:8739   */\n      dup6\n        /* \"#utility.yul\":8725:8731   */\n      dup7\n        /* \"#utility.yul\":8718:8740   */\n      revert\n        /* \"#utility.yul\":8698:8700   */\n    tag_686:\n        /* \"#utility.yul\":8761:8812   */\n      tag_687\n        /* \"#utility.yul\":8804:8811   */\n      dup11\n        /* \"#utility.yul\":8795:8801   */\n      dup4\n        /* \"#utility.yul\":8784:8793   */\n      dup12\n        /* \"#utility.yul\":8780:8802   */\n      add\n        /* \"#utility.yul\":8761:8812   */\n      tag_617\n      jump\t// in\n    tag_687:\n        /* \"#utility.yul\":8751:8812   */\n      swap6\n      pop\n        /* \"#utility.yul\":8859:8861   */\n      0x60\n        /* \"#utility.yul\":8848:8857   */\n      dup10\n        /* \"#utility.yul\":8844:8862   */\n      add\n        /* \"#utility.yul\":8831:8863   */\n      calldataload\n        /* \"#utility.yul\":8821:8863   */\n      swap5\n      pop\n        /* \"#utility.yul\":8916:8919   */\n      0x80\n        /* \"#utility.yul\":8905:8914   */\n      dup10\n        /* \"#utility.yul\":8901:8920   */\n      add\n        /* \"#utility.yul\":8888:8921   */\n      calldataload\n        /* \"#utility.yul\":8872:8921   */\n      swap2\n      pop\n        /* \"#utility.yul\":8946:8948   */\n      dup1\n        /* \"#utility.yul\":8936:8944   */\n      dup3\n        /* \"#utility.yul\":8933:8949   */\n      gt\n        /* \"#utility.yul\":8930:8932   */\n      iszero\n      tag_688\n      jumpi\n        /* \"#utility.yul\":8967:8973   */\n      dup4\n        /* \"#utility.yul\":8959:8965   */\n      dup5\n        /* \"#utility.yul\":8952:8974   */\n      revert\n        /* \"#utility.yul\":8930:8932   */\n    tag_688:\n      pop\n        /* \"#utility.yul\":8995:9048   */\n      tag_689\n        /* \"#utility.yul\":9040:9047   */\n      dup10\n        /* \"#utility.yul\":9029:9037   */\n      dup3\n        /* \"#utility.yul\":9018:9027   */\n      dup11\n        /* \"#utility.yul\":9014:9038   */\n      add\n        /* \"#utility.yul\":8995:9048   */\n      tag_617\n      jump\t// in\n    tag_689:\n        /* \"#utility.yul\":8985:9048   */\n      swap3\n      pop\n      pop\n        /* \"#utility.yul\":9095:9098   */\n      0xa0\n        /* \"#utility.yul\":9084:9093   */\n      dup8\n        /* \"#utility.yul\":9080:9099   */\n      add\n        /* \"#utility.yul\":9067:9100   */\n      calldataload\n        /* \"#utility.yul\":9057:9100   */\n      swap1\n      pop\n        /* \"#utility.yul\":8431:9106   */\n      swap3\n      swap6\n      pop\n      swap3\n      swap6\n      pop\n      swap3\n      swap6\n      jump\t// out\n        /* \"#utility.yul\":9111:10029   */\n    tag_78:\n      0x00\n      dup1\n      0x00\n      dup1\n      0x00\n      dup1\n      0x00\n        /* \"#utility.yul\":9344:9347   */\n      0xe0\n        /* \"#utility.yul\":9332:9341   */\n      dup9\n        /* \"#utility.yul\":9323:9330   */\n      dup11\n        /* \"#utility.yul\":9319:9342   */\n      sub\n        /* \"#utility.yul\":9315:9348   */\n      slt\n        /* \"#utility.yul\":9312:9314   */\n      iszero\n      tag_691\n      jumpi\n        /* \"#utility.yul\":9366:9372   */\n      dup1\n        /* \"#utility.yul\":9358:9364   */\n      dup2\n        /* \"#utility.yul\":9351:9373   */\n      revert\n        /* \"#utility.yul\":9312:9314   */\n    tag_691:\n        /* \"#utility.yul\":9407:9416   */\n      dup8\n        /* \"#utility.yul\":9394:9417   */\n      calldataload\n        /* \"#utility.yul\":9384:9417   */\n      swap7\n      pop\n        /* \"#utility.yul\":9464:9466   */\n      0x20\n        /* \"#utility.yul\":9453:9462   */\n      dup9\n        /* \"#utility.yul\":9449:9467   */\n      add\n        /* \"#utility.yul\":9436:9468   */\n      calldataload\n        /* \"#utility.yul\":9426:9468   */\n      swap6\n      pop\n        /* \"#utility.yul\":9515:9517   */\n      0x40\n        /* \"#utility.yul\":9504:9513   */\n      dup9\n        /* \"#utility.yul\":9500:9518   */\n      add\n        /* \"#utility.yul\":9487:9519   */\n      calldataload\n        /* \"#utility.yul\":9477:9519   */\n      swap5\n      pop\n        /* \"#utility.yul\":9570:9572   */\n      0x60\n        /* \"#utility.yul\":9559:9568   */\n      dup9\n        /* \"#utility.yul\":9555:9573   */\n      add\n        /* \"#utility.yul\":9542:9574   */\n      calldataload\n        /* \"#utility.yul\":9593:9611   */\n      0xffffffffffffffff\n        /* \"#utility.yul\":9634:9636   */\n      dup1\n        /* \"#utility.yul\":9626:9632   */\n      dup3\n        /* \"#utility.yul\":9623:9637   */\n      gt\n        /* \"#utility.yul\":9620:9622   */\n      iszero\n      tag_692\n      jumpi\n        /* \"#utility.yul\":9655:9661   */\n      dup3\n        /* \"#utility.yul\":9647:9653   */\n      dup4\n        /* \"#utility.yul\":9640:9662   */\n      revert\n        /* \"#utility.yul\":9620:9622   */\n    tag_692:\n        /* \"#utility.yul\":9683:9734   */\n      tag_693\n        /* \"#utility.yul\":9726:9733   */\n      dup12\n        /* \"#utility.yul\":9717:9723   */\n      dup4\n        /* \"#utility.yul\":9706:9715   */\n      dup13\n        /* \"#utility.yul\":9702:9724   */\n      add\n        /* \"#utility.yul\":9683:9734   */\n      tag_617\n      jump\t// in\n    tag_693:\n        /* \"#utility.yul\":9673:9734   */\n      swap6\n      pop\n        /* \"#utility.yul\":9781:9784   */\n      0x80\n        /* \"#utility.yul\":9770:9779   */\n      dup11\n        /* \"#utility.yul\":9766:9785   */\n      add\n        /* \"#utility.yul\":9753:9786   */\n      calldataload\n        /* \"#utility.yul\":9743:9786   */\n      swap5\n      pop\n        /* \"#utility.yul\":9833:9836   */\n      0xa0\n        /* \"#utility.yul\":9822:9831   */\n      dup11\n        /* \"#utility.yul\":9818:9837   */\n      add\n        /* \"#utility.yul\":9805:9838   */\n      calldataload\n        /* \"#utility.yul\":9795:9838   */\n      swap4\n      pop\n        /* \"#utility.yul\":9891:9894   */\n      0xc0\n        /* \"#utility.yul\":9880:9889   */\n      dup11\n        /* \"#utility.yul\":9876:9895   */\n      add\n        /* \"#utility.yul\":9863:9896   */\n      calldataload\n        /* \"#utility.yul\":9847:9896   */\n      swap2\n      pop\n        /* \"#utility.yul\":9921:9923   */\n      dup1\n        /* \"#utility.yul\":9911:9919   */\n      dup3\n        /* \"#utility.yul\":9908:9924   */\n      gt\n        /* \"#utility.yul\":9905:9907   */\n      iszero\n      tag_694\n      jumpi\n        /* \"#utility.yul\":9942:9948   */\n      dup3\n        /* \"#utility.yul\":9934:9940   */\n      dup4\n        /* \"#utility.yul\":9927:9949   */\n      revert\n        /* \"#utility.yul\":9905:9907   */\n    tag_694:\n      pop\n        /* \"#utility.yul\":9970:10023   */\n      tag_695\n        /* \"#utility.yul\":10015:10022   */\n      dup11\n        /* \"#utility.yul\":10004:10012   */\n      dup3\n        /* \"#utility.yul\":9993:10002   */\n      dup12\n        /* \"#utility.yul\":9989:10013   */\n      add\n        /* \"#utility.yul\":9970:10023   */\n      tag_617\n      jump\t// in\n    tag_695:\n        /* \"#utility.yul\":9960:10023   */\n      swap2\n      pop\n      pop\n        /* \"#utility.yul\":9302:10029   */\n      swap3\n      swap6\n      swap9\n      swap2\n      swap5\n      swap8\n      pop\n      swap3\n      swap6\n      pop\n      jump\t// out\n        /* \"#utility.yul\":10034:10140   */\n    tag_696:\n      sub(shl(0xa0, 0x01), 0x01)\n        /* \"#utility.yul\":10102:10133   */\n      and\n        /* \"#utility.yul\":10090:10134   */\n      swap1\n      mstore\n        /* \"#utility.yul\":10080:10140   */\n      jump\t// out\n        /* \"#utility.yul\":10145:10404   */\n    tag_698:\n      0x00\n        /* \"#utility.yul\":10226:10231   */\n      dup2\n        /* \"#utility.yul\":10220:10232   */\n      mload\n        /* \"#utility.yul\":10253:10259   */\n      dup1\n        /* \"#utility.yul\":10248:10251   */\n      dup5\n        /* \"#utility.yul\":10241:10260   */\n      mstore\n        /* \"#utility.yul\":10269:10332   */\n      tag_700\n        /* \"#utility.yul\":10325:10331   */\n      dup2\n        /* \"#utility.yul\":10318:10322   */\n      0x20\n        /* \"#utility.yul\":10313:10316   */\n      dup7\n        /* \"#utility.yul\":10309:10323   */\n      add\n        /* \"#utility.yul\":10302:10306   */\n      0x20\n        /* \"#utility.yul\":10295:10300   */\n      dup7\n        /* \"#utility.yul\":10291:10307   */\n      add\n        /* \"#utility.yul\":10269:10332   */\n      tag_701\n      jump\t// in\n    tag_700:\n        /* \"#utility.yul\":10386:10388   */\n      0x1f\n        /* \"#utility.yul\":10365:10380   */\n      add\n      not(0x1f)\n        /* \"#utility.yul\":10361:10390   */\n      and\n        /* \"#utility.yul\":10352:10391   */\n      swap3\n      swap1\n      swap3\n      add\n        /* \"#utility.yul\":10393:10397   */\n      0x20\n        /* \"#utility.yul\":10348:10398   */\n      add\n      swap3\n        /* \"#utility.yul\":10196:10404   */\n      swap2\n      pop\n      pop\n      jump\t// out\n        /* \"#utility.yul\":10409:10683   */\n    tag_577:\n      0x00\n        /* \"#utility.yul\":10576:10582   */\n      dup3\n        /* \"#utility.yul\":10570:10583   */\n      mload\n        /* \"#utility.yul\":10592:10645   */\n      tag_703\n        /* \"#utility.yul\":10638:10644   */\n      dup2\n        /* \"#utility.yul\":10633:10636   */\n      dup5\n        /* \"#utility.yul\":10626:10630   */\n      0x20\n        /* \"#utility.yul\":10618:10624   */\n      dup8\n        /* \"#utility.yul\":10614:10631   */\n      add\n        /* \"#utility.yul\":10592:10645   */\n      tag_701\n      jump\t// in\n    tag_703:\n        /* \"#utility.yul\":10661:10677   */\n      swap2\n      swap1\n      swap2\n      add\n      swap3\n        /* \"#utility.yul\":10546:10683   */\n      swap2\n      pop\n      pop\n      jump\t// out\n        /* \"#utility.yul\":10688:10891   */\n    tag_67:\n      sub(shl(0xa0, 0x01), 0x01)\n        /* \"#utility.yul\":10852:10884   */\n      swap2\n      swap1\n      swap2\n      and\n        /* \"#utility.yul\":10834:10885   */\n      dup2\n      mstore\n        /* \"#utility.yul\":10822:10824   */\n      0x20\n        /* \"#utility.yul\":10807:10825   */\n      add\n      swap1\n        /* \"#utility.yul\":10789:10891   */\n      jump\t// out\n        /* \"#utility.yul\":10896:11271   */\n    tag_387:\n      sub(shl(0xa0, 0x01), 0x01)\n        /* \"#utility.yul\":11154:11169   */\n      swap4\n      dup5\n      and\n        /* \"#utility.yul\":11136:11170   */\n      dup2\n      mstore\n        /* \"#utility.yul\":11206:11221   */\n      swap2\n      swap1\n      swap3\n      and\n        /* \"#utility.yul\":11201:11203   */\n      0x20\n        /* \"#utility.yul\":11186:11204   */\n      dup3\n      add\n        /* \"#utility.yul\":11179:11222   */\n      mstore\n        /* \"#utility.yul\":11253:11255   */\n      0x40\n        /* \"#utility.yul\":11238:11256   */\n      dup2\n      add\n        /* \"#utility.yul\":11231:11265   */\n      swap2\n      swap1\n      swap2\n      mstore\n        /* \"#utility.yul\":11086:11088   */\n      0x60\n        /* \"#utility.yul\":11071:11089   */\n      add\n      swap1\n        /* \"#utility.yul\":11053:11271   */\n      jump\t// out\n        /* \"#utility.yul\":11276:11550   */\n    tag_395:\n      sub(shl(0xa0, 0x01), 0x01)\n        /* \"#utility.yul\":11468:11500   */\n      swap3\n      swap1\n      swap3\n      and\n        /* \"#utility.yul\":11450:11501   */\n      dup3\n      mstore\n        /* \"#utility.yul\":11532:11534   */\n      0x20\n        /* \"#utility.yul\":11517:11535   */\n      dup3\n      add\n        /* \"#utility.yul\":11510:11544   */\n      mstore\n        /* \"#utility.yul\":11438:11440   */\n      0x40\n        /* \"#utility.yul\":11423:11441   */\n      add\n      swap1\n        /* \"#utility.yul\":11405:11550   */\n      jump\t// out\n        /* \"#utility.yul\":11555:12190   */\n    tag_47:\n        /* \"#utility.yul\":11726:11728   */\n      0x20\n        /* \"#utility.yul\":11778:11799   */\n      dup1\n      dup3\n      mstore\n        /* \"#utility.yul\":11848:11861   */\n      dup3\n      mload\n        /* \"#utility.yul\":11751:11769   */\n      dup3\n      dup3\n      add\n        /* \"#utility.yul\":11870:11892   */\n      dup2\n      swap1\n      mstore\n        /* \"#utility.yul\":11555:12190   */\n      0x00\n      swap2\n        /* \"#utility.yul\":11726:11728   */\n      swap1\n        /* \"#utility.yul\":11949:11964   */\n      dup5\n      dup3\n      add\n      swap1\n        /* \"#utility.yul\":11923:11925   */\n      0x40\n        /* \"#utility.yul\":11908:11926   */\n      dup6\n      add\n      swap1\n        /* \"#utility.yul\":11555:12190   */\n      dup5\n        /* \"#utility.yul\":11995:12164   */\n    tag_708:\n        /* \"#utility.yul\":12009:12015   */\n      dup2\n        /* \"#utility.yul\":12006:12007   */\n      dup2\n        /* \"#utility.yul\":12003:12016   */\n      lt\n        /* \"#utility.yul\":11995:12164   */\n      iszero\n      tag_710\n      jumpi\n        /* \"#utility.yul\":12070:12083   */\n      dup4\n      mload\n        /* \"#utility.yul\":12058:12084   */\n      dup4\n      mstore\n        /* \"#utility.yul\":12139:12154   */\n      swap3\n      dup5\n      add\n      swap3\n        /* \"#utility.yul\":12104:12116   */\n      swap2\n      dup5\n      add\n      swap2\n        /* \"#utility.yul\":12031:12032   */\n      0x01\n        /* \"#utility.yul\":12024:12033   */\n      add\n        /* \"#utility.yul\":11995:12164   */\n      jump(tag_708)\n    tag_710:\n      pop\n        /* \"#utility.yul\":12181:12184   */\n      swap1\n      swap7\n        /* \"#utility.yul\":11706:12190   */\n      swap6\n      pop\n      pop\n      pop\n      pop\n      pop\n      pop\n      jump\t// out\n        /* \"#utility.yul\":12195:12382   */\n    tag_59:\n        /* \"#utility.yul\":12360:12374   */\n      swap1\n      iszero\n        /* \"#utility.yul\":12353:12375   */\n      iszero\n        /* \"#utility.yul\":12335:12376   */\n      dup2\n      mstore\n        /* \"#utility.yul\":12323:12325   */\n      0x20\n        /* \"#utility.yul\":12308:12326   */\n      add\n      swap1\n        /* \"#utility.yul\":12290:12382   */\n      jump\t// out\n        /* \"#utility.yul\":13073:13294   */\n    tag_590:\n      0x00\n        /* \"#utility.yul\":13222:13224   */\n      0x20\n        /* \"#utility.yul\":13211:13220   */\n      dup3\n        /* \"#utility.yul\":13204:13225   */\n      mstore\n        /* \"#utility.yul\":13242:13288   */\n      tag_383\n        /* \"#utility.yul\":13284:13286   */\n      0x20\n        /* \"#utility.yul\":13273:13282   */\n      dup4\n        /* \"#utility.yul\":13269:13287   */\n      add\n        /* \"#utility.yul\":13261:13267   */\n      dup5\n        /* \"#utility.yul\":13242:13288   */\n      tag_698\n      jump\t// in\n        /* \"#utility.yul\":13299:13643   */\n    tag_324:\n        /* \"#utility.yul\":13501:13503   */\n      0x20\n        /* \"#utility.yul\":13483:13504   */\n      dup1\n      dup3\n      mstore\n        /* \"#utility.yul\":13540:13542   */\n      0x14\n        /* \"#utility.yul\":13520:13538   */\n      swap1\n      dup3\n      add\n        /* \"#utility.yul\":13513:13543   */\n      mstore\n      shl(0x62, 0x1bdc99195c88191bd95cc81b9bdd08195e1a5cdd)\n        /* \"#utility.yul\":13574:13576   */\n      0x40\n        /* \"#utility.yul\":13559:13577   */\n      dup3\n      add\n        /* \"#utility.yul\":13552:13602   */\n      mstore\n        /* \"#utility.yul\":13634:13636   */\n      0x60\n        /* \"#utility.yul\":13619:13637   */\n      add\n      swap1\n        /* \"#utility.yul\":13473:13643   */\n      jump\t// out\n        /* \"#utility.yul\":13648:14050   */\n    tag_362:\n        /* \"#utility.yul\":13850:13852   */\n      0x20\n        /* \"#utility.yul\":13832:13853   */\n      dup1\n      dup3\n      mstore\n        /* \"#utility.yul\":13889:13891   */\n      0x26\n        /* \"#utility.yul\":13869:13887   */\n      swap1\n      dup3\n      add\n        /* \"#utility.yul\":13862:13892   */\n      mstore\n        /* \"#utility.yul\":13928:13962   */\n      0x4f776e61626c653a206e6577206f776e657220697320746865207a65726f2061\n        /* \"#utility.yul\":13923:13925   */\n      0x40\n        /* \"#utility.yul\":13908:13926   */\n      dup3\n      add\n        /* \"#utility.yul\":13901:13963   */\n      mstore\n      shl(0xd0, 0x646472657373)\n        /* \"#utility.yul\":13994:13996   */\n      0x60\n        /* \"#utility.yul\":13979:13997   */\n      dup3\n      add\n        /* \"#utility.yul\":13972:14008   */\n      mstore\n        /* \"#utility.yul\":14040:14043   */\n      0x80\n        /* \"#utility.yul\":14025:14044   */\n      add\n      swap1\n        /* \"#utility.yul\":13822:14050   */\n      jump\t// out\n        /* \"#utility.yul\":14055:14389   */\n    tag_231:\n        /* \"#utility.yul\":14257:14259   */\n      0x20\n        /* \"#utility.yul\":14239:14260   */\n      dup1\n      dup3\n      mstore\n        /* \"#utility.yul\":14296:14298   */\n      0x0a\n        /* \"#utility.yul\":14276:14294   */\n      swap1\n      dup3\n      add\n        /* \"#utility.yul\":14269:14299   */\n      mstore\n      shl(0xb1, 0x37b930b1b6329032b939)\n        /* \"#utility.yul\":14330:14332   */\n      0x40\n        /* \"#utility.yul\":14315:14333   */\n      dup3\n      add\n        /* \"#utility.yul\":14308:14348   */\n      mstore\n        /* \"#utility.yul\":14380:14382   */\n      0x60\n        /* \"#utility.yul\":14365:14383   */\n      add\n      swap1\n        /* \"#utility.yul\":14229:14389   */\n      jump\t// out\n        /* \"#utility.yul\":14394:14794   */\n    tag_287:\n        /* \"#utility.yul\":14596:14598   */\n      0x20\n        /* \"#utility.yul\":14578:14599   */\n      dup1\n      dup3\n      mstore\n        /* \"#utility.yul\":14635:14637   */\n      0x24\n        /* \"#utility.yul\":14615:14633   */\n      swap1\n      dup3\n      add\n        /* \"#utility.yul\":14608:14638   */\n      mstore\n        /* \"#utility.yul\":14674:14708   */\n      0x6578656375746f723a2063616c6c6572206973206e6f74207468652065786563\n        /* \"#utility.yul\":14669:14671   */\n      0x40\n        /* \"#utility.yul\":14654:14672   */\n      dup3\n      add\n        /* \"#utility.yul\":14647:14709   */\n      mstore\n      shl(0xe1, 0x3aba37b9)\n        /* \"#utility.yul\":14740:14742   */\n      0x60\n        /* \"#utility.yul\":14725:14743   */\n      dup3\n      add\n        /* \"#utility.yul\":14718:14752   */\n      mstore\n        /* \"#utility.yul\":14784:14787   */\n      0x80\n        /* \"#utility.yul\":14769:14788   */\n      add\n      swap1\n        /* \"#utility.yul\":14568:14794   */\n      jump\t// out\n        /* \"#utility.yul\":14799:15201   */\n    tag_570:\n        /* \"#utility.yul\":15001:15003   */\n      0x20\n        /* \"#utility.yul\":14983:15004   */\n      dup1\n      dup3\n      mstore\n        /* \"#utility.yul\":15040:15042   */\n      0x26\n        /* \"#utility.yul\":15020:15038   */\n      swap1\n      dup3\n      add\n        /* \"#utility.yul\":15013:15043   */\n      mstore\n        /* \"#utility.yul\":15079:15113   */\n      0x416464726573733a20696e73756666696369656e742062616c616e636520666f\n        /* \"#utility.yul\":15074:15076   */\n      0x40\n        /* \"#utility.yul\":15059:15077   */\n      dup3\n      add\n        /* \"#utility.yul\":15052:15114   */\n      mstore\n      shl(0xd2, 0x1c8818d85b1b)\n        /* \"#utility.yul\":15145:15147   */\n      0x60\n        /* \"#utility.yul\":15130:15148   */\n      dup3\n      add\n        /* \"#utility.yul\":15123:15159   */\n      mstore\n        /* \"#utility.yul\":15191:15194   */\n      0x80\n        /* \"#utility.yul\":15176:15195   */\n      add\n      swap1\n        /* \"#utility.yul\":14973:15201   */\n      jump\t// out\n        /* \"#utility.yul\":15206:15616   */\n    tag_368:\n        /* \"#utility.yul\":15408:15410   */\n      0x20\n        /* \"#utility.yul\":15390:15411   */\n      dup1\n      dup3\n      mstore\n        /* \"#utility.yul\":15447:15449   */\n      0x2e\n        /* \"#utility.yul\":15427:15445   */\n      swap1\n      dup3\n      add\n        /* \"#utility.yul\":15420:15450   */\n      mstore\n        /* \"#utility.yul\":15486:15520   */\n      0x496e697469616c697a61626c653a20636f6e747261637420697320616c726561\n        /* \"#utility.yul\":15481:15483   */\n      0x40\n        /* \"#utility.yul\":15466:15484   */\n      dup3\n      add\n        /* \"#utility.yul\":15459:15521   */\n      mstore\n      shl(0x92, 0x191e481a5b9a5d1a585b1a5e9959)\n        /* \"#utility.yul\":15552:15554   */\n      0x60\n        /* \"#utility.yul\":15537:15555   */\n      dup3\n      add\n        /* \"#utility.yul\":15530:15574   */\n      mstore\n        /* \"#utility.yul\":15606:15609   */\n      0x80\n        /* \"#utility.yul\":15591:15610   */\n      add\n      swap1\n        /* \"#utility.yul\":15380:15616   */\n      jump\t// out\n        /* \"#utility.yul\":15621:16020   */\n    tag_236:\n        /* \"#utility.yul\":15823:15825   */\n      0x20\n        /* \"#utility.yul\":15805:15826   */\n      dup1\n      dup3\n      mstore\n        /* \"#utility.yul\":15862:15864   */\n      0x23\n        /* \"#utility.yul\":15842:15860   */\n      swap1\n      dup3\n      add\n        /* \"#utility.yul\":15835:15865   */\n      mstore\n        /* \"#utility.yul\":15901:15935   */\n      0x546865207472616e73616374696f6e20616d6f756e7420697320746f6f20736d\n        /* \"#utility.yul\":15896:15898   */\n      0x40\n        /* \"#utility.yul\":15881:15899   */\n      dup3\n      add\n        /* \"#utility.yul\":15874:15936   */\n      mstore\n      shl(0xea, 0x185b1b)\n        /* \"#utility.yul\":15967:15969   */\n      0x60\n        /* \"#utility.yul\":15952:15970   */\n      dup3\n      add\n        /* \"#utility.yul\":15945:15978   */\n      mstore\n        /* \"#utility.yul\":16010:16013   */\n      0x80\n        /* \"#utility.yul\":15995:16014   */\n      add\n      swap1\n        /* \"#utility.yul\":15795:16020   */\n      jump\t// out\n        /* \"#utility.yul\":16025:16365   */\n    tag_337:\n        /* \"#utility.yul\":16227:16229   */\n      0x20\n        /* \"#utility.yul\":16209:16230   */\n      dup1\n      dup3\n      mstore\n        /* \"#utility.yul\":16266:16268   */\n      0x10\n        /* \"#utility.yul\":16246:16264   */\n      swap1\n      dup3\n      add\n        /* \"#utility.yul\":16239:16269   */\n      mstore\n      shl(0x82, 0x155cd95c881a5cc818985b9adc9d5c1d)\n        /* \"#utility.yul\":16300:16302   */\n      0x40\n        /* \"#utility.yul\":16285:16303   */\n      dup3\n      add\n        /* \"#utility.yul\":16278:16324   */\n      mstore\n        /* \"#utility.yul\":16356:16358   */\n      0x60\n        /* \"#utility.yul\":16341:16359   */\n      add\n      swap1\n        /* \"#utility.yul\":16199:16365   */\n      jump\t// out\n        /* \"#utility.yul\":16370:16726   */\n    tag_216:\n        /* \"#utility.yul\":16572:16574   */\n      0x20\n        /* \"#utility.yul\":16554:16575   */\n      dup1\n      dup3\n      mstore\n        /* \"#utility.yul\":16591:16609   */\n      dup2\n      dup2\n      add\n        /* \"#utility.yul\":16584:16614   */\n      mstore\n        /* \"#utility.yul\":16650:16684   */\n      0x4f776e61626c653a2063616c6c6572206973206e6f7420746865206f776e6572\n        /* \"#utility.yul\":16645:16647   */\n      0x40\n        /* \"#utility.yul\":16630:16648   */\n      dup3\n      add\n        /* \"#utility.yul\":16623:16685   */\n      mstore\n        /* \"#utility.yul\":16717:16719   */\n      0x60\n        /* \"#utility.yul\":16702:16720   */\n      add\n      swap1\n        /* \"#utility.yul\":16544:16726   */\n      jump\t// out\n        /* \"#utility.yul\":16731:17084   */\n    tag_575:\n        /* \"#utility.yul\":16933:16935   */\n      0x20\n        /* \"#utility.yul\":16915:16936   */\n      dup1\n      dup3\n      mstore\n        /* \"#utility.yul\":16972:16974   */\n      0x1d\n        /* \"#utility.yul\":16952:16970   */\n      swap1\n      dup3\n      add\n        /* \"#utility.yul\":16945:16975   */\n      mstore\n        /* \"#utility.yul\":17011:17042   */\n      0x416464726573733a2063616c6c20746f206e6f6e2d636f6e7472616374000000\n        /* \"#utility.yul\":17006:17008   */\n      0x40\n        /* \"#utility.yul\":16991:17009   */\n      dup3\n      add\n        /* \"#utility.yul\":16984:17043   */\n      mstore\n        /* \"#utility.yul\":17075:17077   */\n      0x60\n        /* \"#utility.yul\":17060:17078   */\n      add\n      swap1\n        /* \"#utility.yul\":16905:17084   */\n      jump\t// out\n        /* \"#utility.yul\":17089:17423   */\n    tag_194:\n        /* \"#utility.yul\":17291:17293   */\n      0x20\n        /* \"#utility.yul\":17273:17294   */\n      dup1\n      dup3\n      mstore\n        /* \"#utility.yul\":17330:17332   */\n      0x0a\n        /* \"#utility.yul\":17310:17328   */\n      swap1\n      dup3\n      add\n        /* \"#utility.yul\":17303:17333   */\n      mstore\n      shl(0xb1, 0x3632b733ba341032b939)\n        /* \"#utility.yul\":17364:17366   */\n      0x40\n        /* \"#utility.yul\":17349:17367   */\n      dup3\n      add\n        /* \"#utility.yul\":17342:17382   */\n      mstore\n        /* \"#utility.yul\":17414:17416   */\n      0x60\n        /* \"#utility.yul\":17399:17417   */\n      add\n      swap1\n        /* \"#utility.yul\":17263:17423   */\n      jump\t// out\n        /* \"#utility.yul\":17428:17759   */\n    tag_341:\n        /* \"#utility.yul\":17630:17632   */\n      0x20\n        /* \"#utility.yul\":17612:17633   */\n      dup1\n      dup3\n      mstore\n        /* \"#utility.yul\":17669:17670   */\n      0x08\n        /* \"#utility.yul\":17649:17667   */\n      swap1\n      dup3\n      add\n        /* \"#utility.yul\":17642:17671   */\n      mstore\n      shl(0xc1, 0x3ab9b2b91032b939)\n        /* \"#utility.yul\":17702:17704   */\n      0x40\n        /* \"#utility.yul\":17687:17705   */\n      dup3\n      add\n        /* \"#utility.yul\":17680:17718   */\n      mstore\n        /* \"#utility.yul\":17750:17752   */\n      0x60\n        /* \"#utility.yul\":17735:17753   */\n      add\n      swap1\n        /* \"#utility.yul\":17602:17759   */\n      jump\t// out\n        /* \"#utility.yul\":17764:18119   */\n    tag_506:\n        /* \"#utility.yul\":17966:17968   */\n      0x20\n        /* \"#utility.yul\":17948:17969   */\n      dup1\n      dup3\n      mstore\n        /* \"#utility.yul\":18005:18007   */\n      0x1f\n        /* \"#utility.yul\":17985:18003   */\n      swap1\n      dup3\n      add\n        /* \"#utility.yul\":17978:18008   */\n      mstore\n        /* \"#utility.yul\":18044:18077   */\n      0x32323232323266616c736566616c736566616c736566616c736566616c736500\n        /* \"#utility.yul\":18039:18041   */\n      0x40\n        /* \"#utility.yul\":18024:18042   */\n      dup3\n      add\n        /* \"#utility.yul\":18017:18078   */\n      mstore\n        /* \"#utility.yul\":18110:18112   */\n      0x60\n        /* \"#utility.yul\":18095:18113   */\n      add\n      swap1\n        /* \"#utility.yul\":17938:18119   */\n      jump\t// out\n        /* \"#utility.yul\":18124:18456   */\n    tag_221:\n        /* \"#utility.yul\":18326:18328   */\n      0x20\n        /* \"#utility.yul\":18308:18329   */\n      dup1\n      dup3\n      mstore\n        /* \"#utility.yul\":18365:18366   */\n      0x09\n        /* \"#utility.yul\":18345:18363   */\n      swap1\n      dup3\n      add\n        /* \"#utility.yul\":18338:18367   */\n      mstore\n      shl(0xb9, 0x39ba30ba329032b939)\n        /* \"#utility.yul\":18398:18400   */\n      0x40\n        /* \"#utility.yul\":18383:18401   */\n      dup3\n      add\n        /* \"#utility.yul\":18376:18415   */\n      mstore\n        /* \"#utility.yul\":18447:18449   */\n      0x60\n        /* \"#utility.yul\":18432:18450   */\n      add\n      swap1\n        /* \"#utility.yul\":18298:18456   */\n      jump\t// out\n        /* \"#utility.yul\":18461:18867   */\n    tag_535:\n        /* \"#utility.yul\":18663:18665   */\n      0x20\n        /* \"#utility.yul\":18645:18666   */\n      dup1\n      dup3\n      mstore\n        /* \"#utility.yul\":18702:18704   */\n      0x2a\n        /* \"#utility.yul\":18682:18700   */\n      swap1\n      dup3\n      add\n        /* \"#utility.yul\":18675:18705   */\n      mstore\n        /* \"#utility.yul\":18741:18775   */\n      0x5361666545524332303a204552433230206f7065726174696f6e20646964206e\n        /* \"#utility.yul\":18736:18738   */\n      0x40\n        /* \"#utility.yul\":18721:18739   */\n      dup3\n      add\n        /* \"#utility.yul\":18714:18776   */\n      mstore\n      shl(0xb2, 0x1bdd081cdd58d8d95959)\n        /* \"#utility.yul\":18807:18809   */\n      0x60\n        /* \"#utility.yul\":18792:18810   */\n      dup3\n      add\n        /* \"#utility.yul\":18785:18825   */\n      mstore\n        /* \"#utility.yul\":18857:18860   */\n      0x80\n        /* \"#utility.yul\":18842:18861   */\n      add\n      swap1\n        /* \"#utility.yul\":18635:18867   */\n      jump\t// out\n        /* \"#utility.yul\":18872:20010   */\n    tag_90:\n      0x00\n        /* \"#utility.yul\":19055:19057   */\n      0x20\n        /* \"#utility.yul\":19044:19053   */\n      dup3\n        /* \"#utility.yul\":19037:19058   */\n      mstore\n        /* \"#utility.yul\":19067:19122   */\n      tag_733\n        /* \"#utility.yul\":19118:19120   */\n      0x20\n        /* \"#utility.yul\":19107:19116   */\n      dup4\n        /* \"#utility.yul\":19103:19121   */\n      add\n        /* \"#utility.yul\":19094:19100   */\n      dup5\n        /* \"#utility.yul\":19088:19101   */\n      mload\n        /* \"#utility.yul\":19067:19122   */\n      tag_696\n      jump\t// in\n    tag_733:\n        /* \"#utility.yul\":19176:19178   */\n      0x20\n        /* \"#utility.yul\":19168:19174   */\n      dup4\n        /* \"#utility.yul\":19164:19179   */\n      add\n        /* \"#utility.yul\":19158:19180   */\n      mload\n        /* \"#utility.yul\":19153:19155   */\n      0x40\n        /* \"#utility.yul\":19142:19151   */\n      dup4\n        /* \"#utility.yul\":19138:19156   */\n      add\n        /* \"#utility.yul\":19131:19181   */\n      mstore\n        /* \"#utility.yul\":19228:19230   */\n      0x40\n        /* \"#utility.yul\":19220:19226   */\n      dup4\n        /* \"#utility.yul\":19216:19231   */\n      add\n        /* \"#utility.yul\":19210:19232   */\n      mload\n        /* \"#utility.yul\":19251:19257   */\n      0x0160\n        /* \"#utility.yul\":19293:19295   */\n      dup1\n        /* \"#utility.yul\":19288:19290   */\n      0x60\n        /* \"#utility.yul\":19277:19286   */\n      dup6\n        /* \"#utility.yul\":19273:19291   */\n      add\n        /* \"#utility.yul\":19266:19296   */\n      mstore\n        /* \"#utility.yul\":19319:19372   */\n      tag_734\n        /* \"#utility.yul\":19367:19370   */\n      0x0180\n        /* \"#utility.yul\":19356:19365   */\n      dup6\n        /* \"#utility.yul\":19352:19371   */\n      add\n        /* \"#utility.yul\":19338:19350   */\n      dup4\n        /* \"#utility.yul\":19319:19372   */\n      tag_698\n      jump\t// in\n    tag_734:\n        /* \"#utility.yul\":19305:19372   */\n      swap2\n      pop\n        /* \"#utility.yul\":19427:19429   */\n      0x60\n        /* \"#utility.yul\":19419:19425   */\n      dup6\n        /* \"#utility.yul\":19415:19430   */\n      add\n        /* \"#utility.yul\":19409:19431   */\n      mload\n        /* \"#utility.yul\":19403:19406   */\n      0x80\n        /* \"#utility.yul\":19392:19401   */\n      dup6\n        /* \"#utility.yul\":19388:19407   */\n      add\n        /* \"#utility.yul\":19381:19432   */\n      mstore\n        /* \"#utility.yul\":19487:19490   */\n      0x80\n        /* \"#utility.yul\":19479:19485   */\n      dup6\n        /* \"#utility.yul\":19475:19491   */\n      add\n        /* \"#utility.yul\":19469:19492   */\n      mload\n        /* \"#utility.yul\":19463:19466   */\n      0xa0\n        /* \"#utility.yul\":19452:19461   */\n      dup6\n        /* \"#utility.yul\":19448:19467   */\n      add\n        /* \"#utility.yul\":19441:19493   */\n      mstore\n        /* \"#utility.yul\":19548:19551   */\n      0xa0\n        /* \"#utility.yul\":19540:19546   */\n      dup6\n        /* \"#utility.yul\":19536:19552   */\n      add\n        /* \"#utility.yul\":19530:19553   */\n      mload\n        /* \"#utility.yul\":19524:19527   */\n      0xc0\n        /* \"#utility.yul\":19513:19522   */\n      dup6\n        /* \"#utility.yul\":19509:19528   */\n      add\n        /* \"#utility.yul\":19502:19554   */\n      mstore\n        /* \"#utility.yul\":19609:19612   */\n      0xc0\n        /* \"#utility.yul\":19601:19607   */\n      dup6\n        /* \"#utility.yul\":19597:19613   */\n      add\n        /* \"#utility.yul\":19591:19614   */\n      mload\n        /* \"#utility.yul\":19585:19588   */\n      0xe0\n        /* \"#utility.yul\":19574:19583   */\n      dup6\n        /* \"#utility.yul\":19570:19589   */\n      add\n        /* \"#utility.yul\":19563:19615   */\n      mstore\n        /* \"#utility.yul\":19652:19655   */\n      0xe0\n        /* \"#utility.yul\":19644:19650   */\n      dup6\n        /* \"#utility.yul\":19640:19656   */\n      add\n        /* \"#utility.yul\":19634:19657   */\n      mload\n        /* \"#utility.yul\":19676:19679   */\n      0x0100\n        /* \"#utility.yul\":19715:19717   */\n      dup2\n        /* \"#utility.yul\":19710:19712   */\n      dup2\n        /* \"#utility.yul\":19699:19708   */\n      dup8\n        /* \"#utility.yul\":19695:19713   */\n      add\n        /* \"#utility.yul\":19688:19718   */\n      mstore\n        /* \"#utility.yul\":19755:19757   */\n      dup1\n        /* \"#utility.yul\":19747:19753   */\n      dup8\n        /* \"#utility.yul\":19743:19758   */\n      add\n        /* \"#utility.yul\":19737:19759   */\n      mload\n        /* \"#utility.yul\":19727:19759   */\n      swap2\n      pop\n      pop\n        /* \"#utility.yul\":19778:19781   */\n      0x0120\n        /* \"#utility.yul\":19817:19819   */\n      dup2\n        /* \"#utility.yul\":19812:19814   */\n      dup2\n        /* \"#utility.yul\":19801:19810   */\n      dup8\n        /* \"#utility.yul\":19797:19815   */\n      add\n        /* \"#utility.yul\":19790:19820   */\n      mstore\n        /* \"#utility.yul\":19857:19859   */\n      dup1\n        /* \"#utility.yul\":19849:19855   */\n      dup8\n        /* \"#utility.yul\":19845:19860   */\n      add\n        /* \"#utility.yul\":19839:19861   */\n      mload\n        /* \"#utility.yul\":19829:19861   */\n      swap2\n      pop\n      pop\n        /* \"#utility.yul\":19880:19883   */\n      0x0140\n        /* \"#utility.yul\":19919:19921   */\n      dup2\n        /* \"#utility.yul\":19914:19916   */\n      dup2\n        /* \"#utility.yul\":19903:19912   */\n      dup8\n        /* \"#utility.yul\":19899:19917   */\n      add\n        /* \"#utility.yul\":19892:19922   */\n      mstore\n        /* \"#utility.yul\":19976:19978   */\n      dup1\n        /* \"#utility.yul\":19968:19974   */\n      dup8\n        /* \"#utility.yul\":19964:19979   */\n      add\n        /* \"#utility.yul\":19958:19980   */\n      mload\n        /* \"#utility.yul\":19953:19955   */\n      dup4\n        /* \"#utility.yul\":19942:19951   */\n      dup8\n        /* \"#utility.yul\":19938:19956   */\n      add\n        /* \"#utility.yul\":19931:19981   */\n      mstore\n      pop\n      pop\n      pop\n        /* \"#utility.yul\":19998:20004   */\n      dup1\n        /* \"#utility.yul\":19990:20004   */\n      swap2\n      pop\n      pop\n        /* \"#utility.yul\":19027:20010   */\n      swap3\n      swap2\n      pop\n      pop\n      jump\t// out\n        /* \"#utility.yul\":20015:20192   */\n    tag_53:\n        /* \"#utility.yul\":20161:20186   */\n      swap1\n      dup2\n      mstore\n        /* \"#utility.yul\":20149:20151   */\n      0x20\n        /* \"#utility.yul\":20134:20152   */\n      add\n      swap1\n        /* \"#utility.yul\":20116:20192   */\n      jump\t// out\n        /* \"#utility.yul\":20197:20724   */\n    tag_223:\n      0x00\n        /* \"#utility.yul\":20448:20454   */\n      dup6\n        /* \"#utility.yul\":20437:20446   */\n      dup3\n        /* \"#utility.yul\":20430:20455   */\n      mstore\n        /* \"#utility.yul\":20491:20497   */\n      dup5\n        /* \"#utility.yul\":20486:20488   */\n      0x20\n        /* \"#utility.yul\":20475:20484   */\n      dup4\n        /* \"#utility.yul\":20471:20489   */\n      add\n        /* \"#utility.yul\":20464:20498   */\n      mstore\n        /* \"#utility.yul\":20534:20537   */\n      0x80\n        /* \"#utility.yul\":20529:20531   */\n      0x40\n        /* \"#utility.yul\":20518:20527   */\n      dup4\n        /* \"#utility.yul\":20514:20532   */\n      add\n        /* \"#utility.yul\":20507:20538   */\n      mstore\n        /* \"#utility.yul\":20561:20608   */\n      tag_737\n        /* \"#utility.yul\":20603:20606   */\n      0x80\n        /* \"#utility.yul\":20592:20601   */\n      dup4\n        /* \"#utility.yul\":20588:20607   */\n      add\n        /* \"#utility.yul\":20580:20586   */\n      dup6\n        /* \"#utility.yul\":20561:20608   */\n      tag_698\n      jump\t// in\n    tag_737:\n        /* \"#utility.yul\":20656:20665   */\n      dup3\n        /* \"#utility.yul\":20648:20654   */\n      dup2\n        /* \"#utility.yul\":20644:20666   */\n      sub\n        /* \"#utility.yul\":20639:20641   */\n      0x60\n        /* \"#utility.yul\":20628:20637   */\n      dup5\n        /* \"#utility.yul\":20624:20642   */\n      add\n        /* \"#utility.yul\":20617:20667   */\n      mstore\n        /* \"#utility.yul\":20684:20718   */\n      tag_342\n        /* \"#utility.yul\":20711:20717   */\n      dup2\n        /* \"#utility.yul\":20703:20709   */\n      dup6\n        /* \"#utility.yul\":20684:20718   */\n      tag_698\n      jump\t// in\n        /* \"#utility.yul\":20729:20980   */\n    tag_612:\n        /* \"#utility.yul\":20799:20801   */\n      0x40\n        /* \"#utility.yul\":20793:20802   */\n      mload\n        /* \"#utility.yul\":20829:20846   */\n      dup2\n      dup2\n      add\n        /* \"#utility.yul\":20876:20894   */\n      0xffffffffffffffff\n        /* \"#utility.yul\":20861:20895   */\n      dup2\n      gt\n        /* \"#utility.yul\":20897:20919   */\n      dup3\n      dup3\n      lt\n        /* \"#utility.yul\":20858:20920   */\n      or\n        /* \"#utility.yul\":20855:20857   */\n      iszero\n      tag_741\n      jumpi\n        /* \"#utility.yul\":20923:20941   */\n      tag_741\n      tag_631\n      jump\t// in\n    tag_741:\n        /* \"#utility.yul\":20959:20961   */\n      0x40\n        /* \"#utility.yul\":20952:20974   */\n      mstore\n        /* \"#utility.yul\":20773:20980   */\n      swap2\n      swap1\n      pop\n      jump\t// out\n        /* \"#utility.yul\":20985:21175   */\n    tag_611:\n      0x00\n        /* \"#utility.yul\":21082:21100   */\n      0xffffffffffffffff\n        /* \"#utility.yul\":21074:21080   */\n      dup3\n        /* \"#utility.yul\":21071:21101   */\n      gt\n        /* \"#utility.yul\":21068:21070   */\n      iszero\n      tag_744\n      jumpi\n        /* \"#utility.yul\":21104:21122   */\n      tag_744\n      tag_631\n      jump\t// in\n    tag_744:\n      pop\n        /* \"#utility.yul\":21164:21168   */\n      0x20\n        /* \"#utility.yul\":21145:21162   */\n      swap1\n      dup2\n      mul\n        /* \"#utility.yul\":21141:21169   */\n      add\n      swap1\n        /* \"#utility.yul\":21058:21175   */\n      jump\t// out\n        /* \"#utility.yul\":21180:21308   */\n    tag_205:\n      0x00\n        /* \"#utility.yul\":21251:21252   */\n      dup3\n        /* \"#utility.yul\":21247:21253   */\n      not\n        /* \"#utility.yul\":21244:21245   */\n      dup3\n        /* \"#utility.yul\":21241:21254   */\n      gt\n        /* \"#utility.yul\":21238:21240   */\n      iszero\n      tag_747\n      jumpi\n        /* \"#utility.yul\":21257:21275   */\n      tag_747\n      tag_748\n      jump\t// in\n    tag_747:\n      pop\n        /* \"#utility.yul\":21293:21302   */\n      add\n      swap1\n        /* \"#utility.yul\":21228:21308   */\n      jump\t// out\n        /* \"#utility.yul\":21313:21530   */\n    tag_391:\n      0x00\n        /* \"#utility.yul\":21379:21380   */\n      dup3\n        /* \"#utility.yul\":21369:21371   */\n      tag_750\n      jumpi\n      shl(0xe0, 0x4e487b71)\n        /* \"#utility.yul\":21404:21435   */\n      dup2\n      mstore\n        /* \"#utility.yul\":21458:21462   */\n      0x12\n        /* \"#utility.yul\":21455:21456   */\n      0x04\n        /* \"#utility.yul\":21448:21463   */\n      mstore\n        /* \"#utility.yul\":21486:21490   */\n      0x24\n        /* \"#utility.yul\":21411:21412   */\n      dup2\n        /* \"#utility.yul\":21476:21491   */\n      revert\n        /* \"#utility.yul\":21369:21371   */\n    tag_750:\n      pop\n        /* \"#utility.yul\":21515:21524   */\n      div\n      swap1\n        /* \"#utility.yul\":21359:21530   */\n      jump\t// out\n        /* \"#utility.yul\":21535:21703   */\n    tag_191:\n      0x00\n        /* \"#utility.yul\":21641:21642   */\n      dup2\n        /* \"#utility.yul\":21637:21638   */\n      0x00\n        /* \"#utility.yul\":21633:21639   */\n      not\n        /* \"#utility.yul\":21629:21643   */\n      div\n        /* \"#utility.yul\":21626:21627   */\n      dup4\n        /* \"#utility.yul\":21623:21644   */\n      gt\n        /* \"#utility.yul\":21618:21619   */\n      dup3\n        /* \"#utility.yul\":21611:21620   */\n      iszero\n        /* \"#utility.yul\":21604:21621   */\n      iszero\n        /* \"#utility.yul\":21600:21645   */\n      and\n        /* \"#utility.yul\":21597:21599   */\n      iszero\n      tag_753\n      jumpi\n        /* \"#utility.yul\":21648:21666   */\n      tag_753\n      tag_748\n      jump\t// in\n    tag_753:\n      pop\n        /* \"#utility.yul\":21688:21697   */\n      mul\n      swap1\n        /* \"#utility.yul\":21587:21703   */\n      jump\t// out\n        /* \"#utility.yul\":21708:21833   */\n    tag_200:\n      0x00\n        /* \"#utility.yul\":21776:21777   */\n      dup3\n        /* \"#utility.yul\":21773:21774   */\n      dup3\n        /* \"#utility.yul\":21770:21778   */\n      lt\n        /* \"#utility.yul\":21767:21769   */\n      iszero\n      tag_756\n      jumpi\n        /* \"#utility.yul\":21781:21799   */\n      tag_756\n      tag_748\n      jump\t// in\n    tag_756:\n      pop\n        /* \"#utility.yul\":21818:21827   */\n      sub\n      swap1\n        /* \"#utility.yul\":21757:21833   */\n      jump\t// out\n        /* \"#utility.yul\":21838:22096   */\n    tag_701:\n        /* \"#utility.yul\":21910:21911   */\n      0x00\n        /* \"#utility.yul\":21920:22033   */\n    tag_758:\n        /* \"#utility.yul\":21934:21940   */\n      dup4\n        /* \"#utility.yul\":21931:21932   */\n      dup2\n        /* \"#utility.yul\":21928:21941   */\n      lt\n        /* \"#utility.yul\":21920:22033   */\n      iszero\n      tag_760\n      jumpi\n        /* \"#utility.yul\":22010:22021   */\n      dup2\n      dup2\n      add\n        /* \"#utility.yul\":22004:22022   */\n      mload\n        /* \"#utility.yul\":21991:22002   */\n      dup4\n      dup3\n      add\n        /* \"#utility.yul\":21984:22023   */\n      mstore\n        /* \"#utility.yul\":21956:21958   */\n      0x20\n        /* \"#utility.yul\":21949:21959   */\n      add\n        /* \"#utility.yul\":21920:22033   */\n      jump(tag_758)\n    tag_760:\n        /* \"#utility.yul\":22051:22057   */\n      dup4\n        /* \"#utility.yul\":22048:22049   */\n      dup2\n        /* \"#utility.yul\":22045:22058   */\n      gt\n        /* \"#utility.yul\":22042:22044   */\n      iszero\n      tag_385\n      jumpi\n      pop\n      pop\n        /* \"#utility.yul\":22086:22087   */\n      0x00\n        /* \"#utility.yul\":22068:22084   */\n      swap2\n      add\n        /* \"#utility.yul\":22061:22088   */\n      mstore\n        /* \"#utility.yul\":21891:22096   */\n      jump\t// out\n        /* \"#utility.yul\":22101:22481   */\n    tag_273:\n        /* \"#utility.yul\":22186:22187   */\n      0x02\n        /* \"#utility.yul\":22176:22188   */\n      dup2\n      div\n        /* \"#utility.yul\":22233:22234   */\n      0x01\n        /* \"#utility.yul\":22223:22235   */\n      dup3\n      and\n      dup1\n        /* \"#utility.yul\":22244:22246   */\n      tag_763\n      jumpi\n        /* \"#utility.yul\":22298:22302   */\n      0x7f\n        /* \"#utility.yul\":22290:22296   */\n      dup3\n        /* \"#utility.yul\":22286:22303   */\n      and\n        /* \"#utility.yul\":22276:22303   */\n      swap2\n      pop\n        /* \"#utility.yul\":22244:22246   */\n    tag_763:\n        /* \"#utility.yul\":22351:22353   */\n      0x20\n        /* \"#utility.yul\":22343:22349   */\n      dup3\n        /* \"#utility.yul\":22340:22354   */\n      lt\n        /* \"#utility.yul\":22320:22338   */\n      dup2\n        /* \"#utility.yul\":22317:22355   */\n      eq\n        /* \"#utility.yul\":22314:22316   */\n      iszero\n      tag_764\n      jumpi\n        /* \"#utility.yul\":22397:22407   */\n      0x4e487b71\n        /* \"#utility.yul\":22392:22395   */\n      0xe0\n        /* \"#utility.yul\":22388:22408   */\n      shl\n        /* \"#utility.yul\":22385:22386   */\n      0x00\n        /* \"#utility.yul\":22378:22409   */\n      mstore\n        /* \"#utility.yul\":22432:22436   */\n      0x22\n        /* \"#utility.yul\":22429:22430   */\n      0x04\n        /* \"#utility.yul\":22422:22437   */\n      mstore\n        /* \"#utility.yul\":22460:22464   */\n      0x24\n        /* \"#utility.yul\":22457:22458   */\n      0x00\n        /* \"#utility.yul\":22450:22465   */\n      revert\n        /* \"#utility.yul\":22314:22316   */\n    tag_764:\n      pop\n        /* \"#utility.yul\":22156:22481   */\n      swap2\n      swap1\n      pop\n      jump\t// out\n        /* \"#utility.yul\":22486:22621   */\n    tag_207:\n      0x00\n      not(0x00)\n        /* \"#utility.yul\":22546:22563   */\n      dup3\n      eq\n        /* \"#utility.yul\":22543:22545   */\n      iszero\n      tag_767\n      jumpi\n        /* \"#utility.yul\":22566:22584   */\n      tag_767\n      tag_748\n      jump\t// in\n    tag_767:\n      pop\n        /* \"#utility.yul\":22613:22614   */\n      0x01\n        /* \"#utility.yul\":22602:22615   */\n      add\n      swap1\n        /* \"#utility.yul\":22533:22621   */\n      jump\t// out\n        /* \"#utility.yul\":22626:22753   */\n    tag_748:\n        /* \"#utility.yul\":22687:22697   */\n      0x4e487b71\n        /* \"#utility.yul\":22682:22685   */\n      0xe0\n        /* \"#utility.yul\":22678:22698   */\n      shl\n        /* \"#utility.yul\":22675:22676   */\n      0x00\n        /* \"#utility.yul\":22668:22699   */\n      mstore\n        /* \"#utility.yul\":22718:22722   */\n      0x11\n        /* \"#utility.yul\":22715:22716   */\n      0x04\n        /* \"#utility.yul\":22708:22723   */\n      mstore\n        /* \"#utility.yul\":22742:22746   */\n      0x24\n        /* \"#utility.yul\":22739:22740   */\n      0x00\n        /* \"#utility.yul\":22732:22747   */\n      revert\n        /* \"#utility.yul\":22758:22885   */\n    tag_631:\n        /* \"#utility.yul\":22819:22829   */\n      0x4e487b71\n        /* \"#utility.yul\":22814:22817   */\n      0xe0\n        /* \"#utility.yul\":22810:22830   */\n      shl\n        /* \"#utility.yul\":22807:22808   */\n      0x00\n        /* \"#utility.yul\":22800:22831   */\n      mstore\n        /* \"#utility.yul\":22850:22854   */\n      0x41\n        /* \"#utility.yul\":22847:22848   */\n      0x04\n        /* \"#utility.yul\":22840:22855   */\n      mstore\n        /* \"#utility.yul\":22874:22878   */\n      0x24\n        /* \"#utility.yul\":22871:22872   */\n      0x00\n        /* \"#utility.yul\":22864:22879   */\n      revert\n        /* \"#utility.yul\":22890:23023   */\n    tag_605:\n      sub(shl(0xa0, 0x01), 0x01)\n        /* \"#utility.yul\":22967:22998   */\n      dup2\n      and\n        /* \"#utility.yul\":22957:22999   */\n      dup2\n      eq\n        /* \"#utility.yul\":22947:22949   */\n      tag_363\n      jumpi\n        /* \"#utility.yul\":23013:23014   */\n      0x00\n        /* \"#utility.yul\":23010:23011   */\n      dup1\n        /* \"#utility.yul\":23003:23015   */\n      revert\n        /* \"#utility.yul\":23028:23148   */\n    tag_641:\n        /* \"#utility.yul\":23116:23121   */\n      dup1\n        /* \"#utility.yul\":23109:23122   */\n      iszero\n        /* \"#utility.yul\":23102:23123   */\n      iszero\n        /* \"#utility.yul\":23095:23100   */\n      dup2\n        /* \"#utility.yul\":23092:23124   */\n      eq\n        /* \"#utility.yul\":23082:23084   */\n      tag_363\n      jumpi\n        /* \"#utility.yul\":23138:23139   */\n      0x00\n        /* \"#utility.yul\":23135:23136   */\n      dup1\n        /* \"#utility.yul\":23128:23140   */\n      revert\n\n    auxdata: 0xa2646970667358221220c8d9e16caaa54bc6b0018c42da0c0020c2cfe00fccc685187e2eb54c05bbb46464736f6c63430008000033\n}\n",
				"bytecode": {
					"linkReferences": {},
					"object": "608060405234801561001057600080fd5b50612df0806100206000396000f3fe608060405234801561001057600080fd5b50600436106101f05760003560e01c80637fd6f15c1161010f578063e4e95520116100a2578063f2fde38b11610071578063f2fde38b146103f2578063f7ab69fd14610405578063f8c8765e1461040d578063fc234d0614610420576101f0565b8063e4e95520146103b1578063ec4c4f34146103c4578063f0c765e4146103d7578063f14053ad146103ea576101f0565b8063a80c3cd3116100de578063a80c3cd314610370578063aaf5eb6814610383578063aecf77b11461038b578063c2ec527d1461039e576101f0565b80637fd6f15c1461033a5780638da5cb5b1461034257806399315ccf1461034a578063a17397db1461035d576101f0565b806348c7e52811610187578063715018a611610156578063715018a6146103025780637be3a1a11461030c5780637ce3489b1461031f5780637dc0d1d014610332576101f0565b806348c7e528146102a95780636ab34a4a146102bc5780636c19e783146102dc5780636dbe9624146102ef576101f0565b8063238ac933116101c3578063238ac933146102735780633011d3d51461027b57806343b1f3cb14610283578063475b4fd314610296576101f0565b8063080270a8146101f55780630f58d2421461021e5780631e1bff3f1461023e5780631e64610c1461025e575b600080fd5b61020861020336600461238f565b610433565b60405161021591906127ba565b60405180910390f35b61023161022c3660046124b1565b6106a7565b6040516102159190612bf3565b61025161024c3660046122d1565b6106c8565b60405161021591906127fe565b610266610738565b6040516102159190612769565b610266610747565b610266610756565b6102316102913660046124b1565b610765565b6102516102a4366004612683565b610777565b6102516102b73660046122b5565b610b8d565b6102cf6102ca3660046124b1565b610ba2565b6040516102159190612b4f565b6102516102ea3660046122b5565b610ccf565b6102516102fd3660046123c9565b610d35565b61030a610f0d565b005b61023161031a366004612364565b610f58565b61025161032d3660046124b1565b610f75565b610266610fbf565b610231610fce565b610266610fd4565b6102516103583660046125fd565b610fe3565b61025161036b36600461258c565b611118565b61025161037e36600461258c565b61116a565b6102316111b7565b6102316103993660046122b5565b6111bd565b6102316103ac366004612364565b6111d8565b6102316103bf3660046122b5565b611209565b6102316103d2366004612364565b611224565b6102316103e5366004612364565b611240565b61023161125d565b61030a6104003660046122b5565b611263565b6102316112d4565b61030a61041b366004612309565b6112da565b61025161042e3660046124e1565b6113bc565b606060008267ffffffffffffffff81111561045e57634e487b7160e01b600052604160045260246000fd5b604051908082528060200260200182016040528015610487578160200160208202803683370190505b50905060006060866104eb57606c8054806020026020016040519081016040528092919081815260200182805480156104df57602002820191906000526020600020905b8154815260200190600101908083116104cb575b505050505090506105cb565b866001141561055c576001600160a01b0388166000908152606e6020908152604091829020805483518184028101840190945280845290918301828280156104df57602002820191906000526020600020908154815260200190600101908083116104cb57505050505090506105cb565b86600214156105cb576001600160a01b038816600090815260706020908152604091829020805483518184028101840190945280845290918301828280156105c357602002820191906000526020600020905b8154815260200190600101908083116105af575b505050505090505b80516105d78688612cb3565b116105fd5760405162461bcd60e51b81526004016105f490612a65565b60405180910390fd5b60008561060a8189612cb3565b6106149190612cd2565b90505b6106218688612cb3565b81101561069a5781818151811061064857634e487b7160e01b600052603260045260246000fd5b602002602001015184848151811061067057634e487b7160e01b600052603260045260246000fd5b6020908102919091010152610686836001612c7b565b92508061069281612d50565b915050610617565b5091979650505050505050565b606c81815481106106b757600080fd5b600091825260209091200154905081565b60006106d2611521565b6001600160a01b03166106e3610fd4565b6001600160a01b0316146107095760405162461bcd60e51b81526004016105f4906129f9565b506001600160a01b0382166000908152606560205260409020805482151560ff19909116179055600192915050565b6068546001600160a01b031681565b6066546001600160a01b031681565b6067546001600160a01b031681565b606d6020526000908152604090205481565b606b546000908152606a602052604081206003810154156107aa5760405162461bcd60e51b81526004016105f490612ae2565b6069546040516381952f3b60e01b81526001600160a01b03909116906381952f3b906107e09088908d908b908990600401612bfc565b60206040518083038186803b1580156107f857600080fd5b505afa15801561080c573d6000803e3d6000fd5b505050506040513d601f19601f820116820180604052508101906108309190612495565b61084c5760405162461bcd60e51b81526004016105f490612890565b6074546108598587611525565b116108765760405162461bcd60e51b81526004016105f49061298c565b61089933306108858789611525565b6067546001600160a01b0316929190611538565b6067546040516370a0823160e01b81526000916001600160a01b0316906370a08231906108ca903090600401612769565b60206040518083038186803b1580156108e257600080fd5b505afa1580156108f6573d6000803e3d6000fd5b505050506040513d601f19601f8201168201806040525081019061091a91906124c9565b9050600061093f6073546109396072548561152590919063ffffffff16565b90611596565b60685460675491925061095f916001600160a01b039081169116836115a2565b606860009054906101000a90046001600160a01b03166001600160a01b031663d10c06a26040518163ffffffff1660e01b8152600401602060405180830381600087803b1580156109af57600080fd5b505af11580156109c3573d6000803e3d6000fd5b505050506040513d601f19601f820116820180604052508101906109e79190612495565b506067546001600160a01b03166342966c68610a0384846115c6565b6040518263ffffffff1660e01b8152600401610a1f9190612bf3565b600060405180830381600087803b158015610a3957600080fd5b505af1158015610a4d573d6000803e3d6000fd5b5050606b54606c80546001818101835560008390527f2b4a51ab505fc96a0952efda2ba61bcd3078d4c02c39a186ec16f21883fbe0169091019290925554610a97935091506115c6565b606b80546000908152606d602090815260408083209490945533808352606e8083528584208554815460018181018455838852868820909101919091559554928552606f8452958420925293549092610af091906115c6565b815260200190815260200160002081905550606b6000815480929190610b1590612d50565b909155505082546001600160a01b03191633178355600183018990558751610b4690600285019060208b0190612082565b5060016003840155600483018a905560058301879055600683018b905560098301869055610b7482826115c6565b600a909301929092555060019998505050505050505050565b60656020526000908152604090205460ff1681565b610baa612106565b6000828152606a602090815260409182902082516101608101845281546001600160a01b031681526001820154928101929092526002810180549293919291840191610bf590612d15565b80601f0160208091040260200160405190810160405280929190818152602001828054610c2190612d15565b8015610c6e5780601f10610c4357610100808354040283529160200191610c6e565b820191906000526020600020905b815481529060010190602001808311610c5157829003601f168201915b5050505050815260200160038201548152602001600482015481526020016005820154815260200160068201548152602001600782015481526020016008820154815260200160098201548152602001600a8201548152505090505b919050565b6000610cd9611521565b6001600160a01b0316610cea610fd4565b6001600160a01b031614610d105760405162461bcd60e51b81526004016105f4906129f9565b50606680546001600160a01b0383166001600160a01b03199091161790556001919050565b3360009081526065602052604081205460ff16610d645760405162461bcd60e51b81526004016105f4906128b4565b60005b8651811015610efe576000606a6000898481518110610d9657634e487b7160e01b600052603260045260246000fd5b602002602001015181526020019081526020016000209050610e0b888381518110610dd157634e487b7160e01b600052603260045260246000fd5b6020026020010151868481518110610df957634e487b7160e01b600052603260045260246000fd5b602002602001015183600a01546115d2565b610eeb57610ee28160038a8581518110610e3557634e487b7160e01b600052603260045260246000fd5b60200260200101518a8681518110610e5d57634e487b7160e01b600052603260045260246000fd5b60200260200101518a8781518110610e8557634e487b7160e01b600052603260045260246000fd5b60200260200101518a8881518110610ead57634e487b7160e01b600052603260045260246000fd5b60200260200101518a8981518110610ed557634e487b7160e01b600052603260045260246000fd5b60200260200101516116ff565b92505050610f04565b5080610ef681612d50565b915050610d67565b50600190505b95945050505050565b610f15611521565b6001600160a01b0316610f26610fd4565b6001600160a01b031614610f4c5760405162461bcd60e51b81526004016105f4906129f9565b610f566000611d23565b565b606f60209081526000928352604080842090915290825290205481565b6000610f7f611521565b6001600160a01b0316610f90610fd4565b6001600160a01b031614610fb65760405162461bcd60e51b81526004016105f4906129f9565b50607255600190565b6069546001600160a01b031681565b60725481565b6033546001600160a01b031690565b6000868152606a6020526040812080546001600160a01b03166110185760405162461bcd60e51b81526004016105f49061281c565b600281600301541061103c5760405162461bcd60e51b81526004016105f490612ae2565b6069546040516381952f3b60e01b81526001600160a01b03909116906381952f3b906110729088908b908b908a90600401612bfc565b60206040518083038186803b15801561108a57600080fd5b505afa15801561109e573d6000803e3d6000fd5b505050506040513d601f19601f820116820180604052508101906110c29190612495565b6110de5760405162461bcd60e51b81526004016105f490612890565b6110e98886856115d2565b6111055760405162461bcd60e51b81526004016105f4906129cf565b600a018290555060019695505050505050565b6000858152606a6020526040812080546001600160a01b0316331461114f5760405162461bcd60e51b81526004016105f490612a89565b61115f81600289898989896116ff565b979650505050505050565b3360009081526065602052604081205460ff166111995760405162461bcd60e51b81526004016105f4906128b4565b6000868152606a6020526040902061115f81600489898989896116ff565b60735481565b6001600160a01b031660009081526070602052604090205490565b606e60205281600052604060002081815481106111f457600080fd5b90600052602060002001600091509150505481565b6001600160a01b03166000908152606e602052604090205490565b607060205281600052604060002081815481106111f457600080fd5b607160209081526000928352604080842090915290825290205481565b60745481565b61126b611521565b6001600160a01b031661127c610fd4565b6001600160a01b0316146112a25760405162461bcd60e51b81526004016105f4906129f9565b6001600160a01b0381166112c85760405162461bcd60e51b81526004016105f49061284a565b6112d181611d23565b50565b606b5481565b600054610100900460ff16806112f3575060005460ff16155b61130f5760405162461bcd60e51b81526004016105f49061293e565b600054610100900460ff1615801561133a576000805460ff1961ff0019909116610100171660011790555b611342611d75565b606680546001600160a01b038088166001600160a01b03199283161790925560688054878416908316179055606780548684169083161790556127106073556069805492851692909116919091179055670de0b6b3a7640000607455603260725580156113b5576000805461ff00191690555b5050505050565b60006113c6611521565b6001600160a01b03166113d7610fd4565b6001600160a01b0316146113fd5760405162461bcd60e51b81526004016105f4906129f9565b6040518061016001604052808d6001600160a01b031681526020018c81526020018b81526020018a815260200189815260200188815260200187815260200186815260200185815260200184815260200183815250606a60008f815260200190815260200160002060008201518160000160006101000a8154816001600160a01b0302191690836001600160a01b031602179055506020820151816001015560408201518160020190805190602001906114b8929190612082565b50606082015160038201556080820151600482015560a0820151600582015560c0820151600682015560e082015160078201556101008201516008820155610120820151600982015561014090910151600a909101555060019c9b505050505050505050505050565b3390565b60006115318284612cb3565b9392505050565b611590846323b872dd60e01b8585856040516024016115599392919061277d565b60408051601f198184030181529190526020810180516001600160e01b03166001600160e01b031990931692909217909152611df9565b50505050565b60006115318284612c93565b6115c18363a9059cbb60e01b84846040516024016115599291906127a1565b505050565b60006115318284612cd2565b6000838152606a6020526040812060048101548290819081906001141561167757836005015487101561167257600584015461160e90886115c6565b925061162784600901548461152590919063ffffffff16565b915061165260735461093960725461164c8b896009015461152590919063ffffffff16565b90611525565b905061165e8183612c7b565b861015611672576000945050505050611531565b6116f1565b83600501548711156116f15760058401546116939088906115c6565b92506116ac84600901548461152590919063ffffffff16565b91506116d160735461093960725461164c8b896009015461152590919063ffffffff16565b90506116dd8183612c7b565b8610156116f1576000945050505050611531565b506001979650505050505050565b86546000906001600160a01b03166117295760405162461bcd60e51b81526004016105f49061281c565b600288600301541061174d5760405162461bcd60e51b81526004016105f490612ae2565b6069546040516381952f3b60e01b81526001600160a01b03909116906381952f3b90611783908690899089908890600401612bfc565b60206040518083038186803b15801561179b57600080fd5b505afa1580156117af573d6000803e3d6000fd5b505050506040513d601f19601f820116820180604052508101906117d39190612495565b6117ef5760405162461bcd60e51b81526004016105f490612890565b82886007018190555060008060008a6004015460011415611b2e578a600501548b60070154111561199a5760058b015460078c015461182d916115c6565b92506118468b600901548461152590919063ffffffff16565b600a8c01549092506118589083611e88565b905060006118776073546109396072548561152590919063ffffffff16565b6067546068546040516340c10f1960e01b81529293506001600160a01b03918216926340c10f19926118af92169085906004016127a1565b602060405180830381600087803b1580156118c957600080fd5b505af11580156118dd573d6000803e3d6000fd5b505050506040513d601f19601f820116820180604052508101906119019190612495565b506067548c546001600160a01b03918216916340c10f19911661192485856115c6565b6040518363ffffffff1660e01b81526004016119419291906127a1565b602060405180830381600087803b15801561195b57600080fd5b505af115801561196f573d6000803e3d6000fd5b505050506040513d601f19601f820116820180604052508101906119939190612495565b5050611b29565b60078b015460058c01546119ad916115c6565b92506119c68b600901548461152590919063ffffffff16565b91508a600a01548211156119dc57506000611b29565b600a8b01546119eb90836115c6565b90506000611a0a6073546109396072548561152590919063ffffffff16565b6067546068546040516340c10f1960e01b81529293506001600160a01b03918216926340c10f1992611a4292169085906004016127a1565b602060405180830381600087803b158015611a5c57600080fd5b505af1158015611a70573d6000803e3d6000fd5b505050506040513d601f19601f82011682018060405250810190611a949190612495565b506067548c546001600160a01b03918216916340c10f199116611ab785856115c6565b6040518363ffffffff1660e01b8152600401611ad49291906127a1565b602060405180830381600087803b158015611aee57600080fd5b505af1158015611b02573d6000803e3d6000fd5b505050506040513d601f19601f82011682018060405250810190611b269190612495565b50505b611d0b565b8a600501548b600701541015611b7c5760078b015460058c0154611b51916115c6565b9250611b6a8b600901548461152590919063ffffffff16565b600a8c01549092506119eb9083611e88565b60058b015460078c0154611b8f916115c6565b9250611ba88b600901548461152590919063ffffffff16565b91508a600a0154821115611bbe57506000611d0b565b600a8b0154611bcd90836115c6565b90506000611bec6073546109396072548561152590919063ffffffff16565b6067546068546040516340c10f1960e01b81529293506001600160a01b03918216926340c10f1992611c2492169085906004016127a1565b602060405180830381600087803b158015611c3e57600080fd5b505af1158015611c52573d6000803e3d6000fd5b505050506040513d601f19601f82011682018060405250810190611c769190612495565b506067548c546001600160a01b03918216916340c10f199116611c9985856115c6565b6040518363ffffffff1660e01b8152600401611cb69291906127a1565b602060405180830381600087803b158015611cd057600080fd5b505af1158015611ce4573d6000803e3d6000fd5b505050506040513d601f19601f82011682018060405250810190611d089190612495565b50505b60405162461bcd60e51b81526004016105f490612aab565b603380546001600160a01b038381166001600160a01b0319831681179093556040519116919082907f8be0079c531659141344cd1fd0a4f28419497f9722a3daafe3b4186f6b6457e090600090a35050565b600054610100900460ff1680611d8e575060005460ff16155b611daa5760405162461bcd60e51b81526004016105f49061293e565b600054610100900460ff16158015611dd5576000805460ff1961ff0019909116610100171660011790555b611ddd611e94565b611de5611f07565b80156112d1576000805461ff001916905550565b6000611e4e826040518060400160405280602081526020017f5361666545524332303a206c6f772d6c6576656c2063616c6c206661696c6564815250856001600160a01b0316611f779092919063ffffffff16565b8051909150156115c15780806020019051810190611e6c9190612495565b6115c15760405162461bcd60e51b81526004016105f490612b05565b60006115318284612c7b565b600054610100900460ff1680611ead575060005460ff16155b611ec95760405162461bcd60e51b81526004016105f49061293e565b600054610100900460ff16158015611de5576000805460ff1961ff00199091166101001716600117905580156112d1576000805461ff001916905550565b600054610100900460ff1680611f20575060005460ff16155b611f3c5760405162461bcd60e51b81526004016105f49061293e565b600054610100900460ff16158015611f67576000805460ff1961ff0019909116610100171660011790555b611de5611f72611521565b611d23565b6060611f868484600085611f8e565b949350505050565b606082471015611fb05760405162461bcd60e51b81526004016105f4906128f8565b611fb985612043565b611fd55760405162461bcd60e51b81526004016105f490612a2e565b600080866001600160a01b03168587604051611ff1919061274d565b60006040518083038185875af1925050503d806000811461202e576040519150601f19603f3d011682016040523d82523d6000602084013e612033565b606091505b509150915061115f828286612049565b3b151590565b60608315612058575081611531565b8251156120685782518084602001fd5b8160405162461bcd60e51b81526004016105f49190612809565b82805461208e90612d15565b90600052602060002090601f0160209004810192826120b057600085556120f6565b82601f106120c957805160ff19168380011785556120f6565b828001600101855582156120f6579182015b828111156120f65782518255916020019190600101906120db565b50612102929150612169565b5090565b60405180610160016040528060006001600160a01b03168152602001600081526020016060815260200160008152602001600081526020016000815260200160008152602001600081526020016000815260200160008152602001600081525090565b5b80821115612102576000815560010161216a565b8035610cca81612d97565b600082601f830112612199578081fd5b813560206121ae6121a983612c57565b612c2d565b82815281810190858301855b858110156121e3576121d1898684358b010161224a565b845292840192908401906001016121ba565b5090979650505050505050565b600082601f830112612200578081fd5b813560206122106121a983612c57565b828152818101908583018385028701840188101561222c578586fd5b855b858110156121e35781358452928401929084019060010161222e565b600082601f83011261225a578081fd5b813567ffffffffffffffff81111561227457612274612d81565b612287601f8201601f1916602001612c2d565b81815284602083860101111561229b578283fd5b816020850160208301379081016020019190915292915050565b6000602082840312156122c6578081fd5b813561153181612d97565b600080604083850312156122e3578081fd5b82356122ee81612d97565b915060208301356122fe81612dac565b809150509250929050565b6000806000806080858703121561231e578182fd5b843561232981612d97565b9350602085013561233981612d97565b9250604085013561234981612d97565b9150606085013561235981612d97565b939692955090935050565b60008060408385031215612376578182fd5b823561238181612d97565b946020939093013593505050565b600080600080608085870312156123a4578384fd5b84356123af81612d97565b966020860135965060408601359560600135945092505050565b600080600080600060a086880312156123e0578283fd5b853567ffffffffffffffff808211156123f7578485fd5b61240389838a016121f0565b96506020880135915080821115612418578485fd5b61242489838a016121f0565b95506040880135915080821115612439578485fd5b61244589838a01612189565b9450606088013591508082111561245a578283fd5b61246689838a016121f0565b9350608088013591508082111561247b578283fd5b5061248888828901612189565b9150509295509295909350565b6000602082840312156124a6578081fd5b815161153181612dac565b6000602082840312156124c2578081fd5b5035919050565b6000602082840312156124da578081fd5b5051919050565b6000806000806000806000806000806000806101808d8f03121561250357898afd5b8c359b5061251360208e0161217e565b9a5060408d0135995067ffffffffffffffff60608e01351115612534578687fd5b6125448e60608f01358f0161224a565b9b9e9a9d50989b60808101359a60a08201359a5060c0820135995060e08201359850610100820135975061012082013596506101408201359550610160909101359350915050565b600080600080600060a086880312156125a3578283fd5b8535945060208601359350604086013567ffffffffffffffff808211156125c8578485fd5b6125d489838a0161224a565b94506060880135935060808801359150808211156125f0578283fd5b506124888882890161224a565b60008060008060008060c08789031215612615578384fd5b8635955060208701359450604087013567ffffffffffffffff8082111561263a578586fd5b6126468a838b0161224a565b9550606089013594506080890135915080821115612662578384fd5b5061266f89828a0161224a565b92505060a087013590509295509295509295565b600080600080600080600060e0888a03121561269d578081fd5b873596506020880135955060408801359450606088013567ffffffffffffffff808211156126c9578283fd5b6126d58b838c0161224a565b955060808a0135945060a08a0135935060c08a01359150808211156126f8578283fd5b506127058a828b0161224a565b91505092959891949750929550565b6001600160a01b03169052565b60008151808452612739816020860160208601612ce9565b601f01601f19169290920160200192915050565b6000825161275f818460208701612ce9565b9190910192915050565b6001600160a01b0391909116815260200190565b6001600160a01b039384168152919092166020820152604081019190915260600190565b6001600160a01b03929092168252602082015260400190565b6020808252825182820181905260009190848201906040850190845b818110156127f2578351835292840192918401916001016127d6565b50909695505050505050565b901515815260200190565b6000602082526115316020830184612721565b6020808252601490820152731bdc99195c88191bd95cc81b9bdd08195e1a5cdd60621b604082015260600190565b60208082526026908201527f4f776e61626c653a206e6577206f776e657220697320746865207a65726f206160408201526564647265737360d01b606082015260800190565b6020808252600a908201526937b930b1b6329032b93960b11b604082015260600190565b60208082526024908201527f6578656375746f723a2063616c6c6572206973206e6f742074686520657865636040820152633aba37b960e11b606082015260800190565b60208082526026908201527f416464726573733a20696e73756666696369656e742062616c616e636520666f6040820152651c8818d85b1b60d21b606082015260800190565b6020808252602e908201527f496e697469616c697a61626c653a20636f6e747261637420697320616c72656160408201526d191e481a5b9a5d1a585b1a5e995960921b606082015260800190565b60208082526023908201527f546865207472616e73616374696f6e20616d6f756e7420697320746f6f20736d604082015262185b1b60ea1b606082015260800190565b60208082526010908201526f155cd95c881a5cc818985b9adc9d5c1d60821b604082015260600190565b6020808252818101527f4f776e61626c653a2063616c6c6572206973206e6f7420746865206f776e6572604082015260600190565b6020808252601d908201527f416464726573733a2063616c6c20746f206e6f6e2d636f6e7472616374000000604082015260600190565b6020808252600a90820152693632b733ba341032b93960b11b604082015260600190565b6020808252600890820152673ab9b2b91032b93960c11b604082015260600190565b6020808252601f908201527f32323232323266616c736566616c736566616c736566616c736566616c736500604082015260600190565b60208082526009908201526839ba30ba329032b93960b91b604082015260600190565b6020808252602a908201527f5361666545524332303a204552433230206f7065726174696f6e20646964206e6040820152691bdd081cdd58d8d9595960b21b606082015260800190565b600060208252612b63602083018451612714565b602083015160408301526040830151610160806060850152612b89610180850183612721565b915060608501516080850152608085015160a085015260a085015160c085015260c085015160e085015260e0850151610100818187015280870151915050610120818187015280870151915050610140818187015280870151838701525050508091505092915050565b90815260200190565b600085825284602083015260806040830152612c1b6080830185612721565b828103606084015261115f8185612721565b60405181810167ffffffffffffffff81118282101715612c4f57612c4f612d81565b604052919050565b600067ffffffffffffffff821115612c7157612c71612d81565b5060209081020190565b60008219821115612c8e57612c8e612d6b565b500190565b600082612cae57634e487b7160e01b81526012600452602481fd5b500490565b6000816000190483118215151615612ccd57612ccd612d6b565b500290565b600082821015612ce457612ce4612d6b565b500390565b60005b83811015612d04578181015183820152602001612cec565b838111156115905750506000910152565b600281046001821680612d2957607f821691505b60208210811415612d4a57634e487b7160e01b600052602260045260246000fd5b50919050565b6000600019821415612d6457612d64612d6b565b5060010190565b634e487b7160e01b600052601160045260246000fd5b634e487b7160e01b600052604160045260246000fd5b6001600160a01b03811681146112d157600080fd5b80151581146112d157600080fdfea2646970667358221220c8d9e16caaa54bc6b0018c42da0c0020c2cfe00fccc685187e2eb54c05bbb46464736f6c63430008000033",
					"opcodes": "PUSH1 0x80 PUSH1 0x40 MSTORE CALLVALUE DUP1 ISZERO PUSH2 0x10 JUMPI PUSH1 0x0 DUP1 REVERT JUMPDEST POP PUSH2 0x2DF0 DUP1 PUSH2 0x20 PUSH1 0x0 CODECOPY PUSH1 0x0 RETURN INVALID PUSH1 0x80 PUSH1 0x40 MSTORE CALLVALUE DUP1 ISZERO PUSH2 0x10 JUMPI PUSH1 0x0 DUP1 REVERT JUMPDEST POP PUSH1 0x4 CALLDATASIZE LT PUSH2 0x1F0 JUMPI PUSH1 0x0 CALLDATALOAD PUSH1 0xE0 SHR DUP1 PUSH4 0x7FD6F15C GT PUSH2 0x10F JUMPI DUP1 PUSH4 0xE4E95520 GT PUSH2 0xA2 JUMPI DUP1 PUSH4 0xF2FDE38B GT PUSH2 0x71 JUMPI DUP1 PUSH4 0xF2FDE38B EQ PUSH2 0x3F2 JUMPI DUP1 PUSH4 0xF7AB69FD EQ PUSH2 0x405 JUMPI DUP1 PUSH4 0xF8C8765E EQ PUSH2 0x40D JUMPI DUP1 PUSH4 0xFC234D06 EQ PUSH2 0x420 JUMPI PUSH2 0x1F0 JUMP JUMPDEST DUP1 PUSH4 0xE4E95520 EQ PUSH2 0x3B1 JUMPI DUP1 PUSH4 0xEC4C4F34 EQ PUSH2 0x3C4 JUMPI DUP1 PUSH4 0xF0C765E4 EQ PUSH2 0x3D7 JUMPI DUP1 PUSH4 0xF14053AD EQ PUSH2 0x3EA JUMPI PUSH2 0x1F0 JUMP JUMPDEST DUP1 PUSH4 0xA80C3CD3 GT PUSH2 0xDE JUMPI DUP1 PUSH4 0xA80C3CD3 EQ PUSH2 0x370 JUMPI DUP1 PUSH4 0xAAF5EB68 EQ PUSH2 0x383 JUMPI DUP1 PUSH4 0xAECF77B1 EQ PUSH2 0x38B JUMPI DUP1 PUSH4 0xC2EC527D EQ PUSH2 0x39E JUMPI PUSH2 0x1F0 JUMP JUMPDEST DUP1 PUSH4 0x7FD6F15C EQ PUSH2 0x33A JUMPI DUP1 PUSH4 0x8DA5CB5B EQ PUSH2 0x342 JUMPI DUP1 PUSH4 0x99315CCF EQ PUSH2 0x34A JUMPI DUP1 PUSH4 0xA17397DB EQ PUSH2 0x35D JUMPI PUSH2 0x1F0 JUMP JUMPDEST DUP1 PUSH4 0x48C7E528 GT PUSH2 0x187 JUMPI DUP1 PUSH4 0x715018A6 GT PUSH2 0x156 JUMPI DUP1 PUSH4 0x715018A6 EQ PUSH2 0x302 JUMPI DUP1 PUSH4 0x7BE3A1A1 EQ PUSH2 0x30C JUMPI DUP1 PUSH4 0x7CE3489B EQ PUSH2 0x31F JUMPI DUP1 PUSH4 0x7DC0D1D0 EQ PUSH2 0x332 JUMPI PUSH2 0x1F0 JUMP JUMPDEST DUP1 PUSH4 0x48C7E528 EQ PUSH2 0x2A9 JUMPI DUP1 PUSH4 0x6AB34A4A EQ PUSH2 0x2BC JUMPI DUP1 PUSH4 0x6C19E783 EQ PUSH2 0x2DC JUMPI DUP1 PUSH4 0x6DBE9624 EQ PUSH2 0x2EF JUMPI PUSH2 0x1F0 JUMP JUMPDEST DUP1 PUSH4 0x238AC933 GT PUSH2 0x1C3 JUMPI DUP1 PUSH4 0x238AC933 EQ PUSH2 0x273 JUMPI DUP1 PUSH4 0x3011D3D5 EQ PUSH2 0x27B JUMPI DUP1 PUSH4 0x43B1F3CB EQ PUSH2 0x283 JUMPI DUP1 PUSH4 0x475B4FD3 EQ PUSH2 0x296 JUMPI PUSH2 0x1F0 JUMP JUMPDEST DUP1 PUSH4 0x80270A8 EQ PUSH2 0x1F5 JUMPI DUP1 PUSH4 0xF58D242 EQ PUSH2 0x21E JUMPI DUP1 PUSH4 0x1E1BFF3F EQ PUSH2 0x23E JUMPI DUP1 PUSH4 0x1E64610C EQ PUSH2 0x25E JUMPI JUMPDEST PUSH1 0x0 DUP1 REVERT JUMPDEST PUSH2 0x208 PUSH2 0x203 CALLDATASIZE PUSH1 0x4 PUSH2 0x238F JUMP JUMPDEST PUSH2 0x433 JUMP JUMPDEST PUSH1 0x40 MLOAD PUSH2 0x215 SWAP2 SWAP1 PUSH2 0x27BA JUMP JUMPDEST PUSH1 0x40 MLOAD DUP1 SWAP2 SUB SWAP1 RETURN JUMPDEST PUSH2 0x231 PUSH2 0x22C CALLDATASIZE PUSH1 0x4 PUSH2 0x24B1 JUMP JUMPDEST PUSH2 0x6A7 JUMP JUMPDEST PUSH1 0x40 MLOAD PUSH2 0x215 SWAP2 SWAP1 PUSH2 0x2BF3 JUMP JUMPDEST PUSH2 0x251 PUSH2 0x24C CALLDATASIZE PUSH1 0x4 PUSH2 0x22D1 JUMP JUMPDEST PUSH2 0x6C8 JUMP JUMPDEST PUSH1 0x40 MLOAD PUSH2 0x215 SWAP2 SWAP1 PUSH2 0x27FE JUMP JUMPDEST PUSH2 0x266 PUSH2 0x738 JUMP JUMPDEST PUSH1 0x40 MLOAD PUSH2 0x215 SWAP2 SWAP1 PUSH2 0x2769 JUMP JUMPDEST PUSH2 0x266 PUSH2 0x747 JUMP JUMPDEST PUSH2 0x266 PUSH2 0x756 JUMP JUMPDEST PUSH2 0x231 PUSH2 0x291 CALLDATASIZE PUSH1 0x4 PUSH2 0x24B1 JUMP JUMPDEST PUSH2 0x765 JUMP JUMPDEST PUSH2 0x251 PUSH2 0x2A4 CALLDATASIZE PUSH1 0x4 PUSH2 0x2683 JUMP JUMPDEST PUSH2 0x777 JUMP JUMPDEST PUSH2 0x251 PUSH2 0x2B7 CALLDATASIZE PUSH1 0x4 PUSH2 0x22B5 JUMP JUMPDEST PUSH2 0xB8D JUMP JUMPDEST PUSH2 0x2CF PUSH2 0x2CA CALLDATASIZE PUSH1 0x4 PUSH2 0x24B1 JUMP JUMPDEST PUSH2 0xBA2 JUMP JUMPDEST PUSH1 0x40 MLOAD PUSH2 0x215 SWAP2 SWAP1 PUSH2 0x2B4F JUMP JUMPDEST PUSH2 0x251 PUSH2 0x2EA CALLDATASIZE PUSH1 0x4 PUSH2 0x22B5 JUMP JUMPDEST PUSH2 0xCCF JUMP JUMPDEST PUSH2 0x251 PUSH2 0x2FD CALLDATASIZE PUSH1 0x4 PUSH2 0x23C9 JUMP JUMPDEST PUSH2 0xD35 JUMP JUMPDEST PUSH2 0x30A PUSH2 0xF0D JUMP JUMPDEST STOP JUMPDEST PUSH2 0x231 PUSH2 0x31A CALLDATASIZE PUSH1 0x4 PUSH2 0x2364 JUMP JUMPDEST PUSH2 0xF58 JUMP JUMPDEST PUSH2 0x251 PUSH2 0x32D CALLDATASIZE PUSH1 0x4 PUSH2 0x24B1 JUMP JUMPDEST PUSH2 0xF75 JUMP JUMPDEST PUSH2 0x266 PUSH2 0xFBF JUMP JUMPDEST PUSH2 0x231 PUSH2 0xFCE JUMP JUMPDEST PUSH2 0x266 PUSH2 0xFD4 JUMP JUMPDEST PUSH2 0x251 PUSH2 0x358 CALLDATASIZE PUSH1 0x4 PUSH2 0x25FD JUMP JUMPDEST PUSH2 0xFE3 JUMP JUMPDEST PUSH2 0x251 PUSH2 0x36B CALLDATASIZE PUSH1 0x4 PUSH2 0x258C JUMP JUMPDEST PUSH2 0x1118 JUMP JUMPDEST PUSH2 0x251 PUSH2 0x37E CALLDATASIZE PUSH1 0x4 PUSH2 0x258C JUMP JUMPDEST PUSH2 0x116A JUMP JUMPDEST PUSH2 0x231 PUSH2 0x11B7 JUMP JUMPDEST PUSH2 0x231 PUSH2 0x399 CALLDATASIZE PUSH1 0x4 PUSH2 0x22B5 JUMP JUMPDEST PUSH2 0x11BD JUMP JUMPDEST PUSH2 0x231 PUSH2 0x3AC CALLDATASIZE PUSH1 0x4 PUSH2 0x2364 JUMP JUMPDEST PUSH2 0x11D8 JUMP JUMPDEST PUSH2 0x231 PUSH2 0x3BF CALLDATASIZE PUSH1 0x4 PUSH2 0x22B5 JUMP JUMPDEST PUSH2 0x1209 JUMP JUMPDEST PUSH2 0x231 PUSH2 0x3D2 CALLDATASIZE PUSH1 0x4 PUSH2 0x2364 JUMP JUMPDEST PUSH2 0x1224 JUMP JUMPDEST PUSH2 0x231 PUSH2 0x3E5 CALLDATASIZE PUSH1 0x4 PUSH2 0x2364 JUMP JUMPDEST PUSH2 0x1240 JUMP JUMPDEST PUSH2 0x231 PUSH2 0x125D JUMP JUMPDEST PUSH2 0x30A PUSH2 0x400 CALLDATASIZE PUSH1 0x4 PUSH2 0x22B5 JUMP JUMPDEST PUSH2 0x1263 JUMP JUMPDEST PUSH2 0x231 PUSH2 0x12D4 JUMP JUMPDEST PUSH2 0x30A PUSH2 0x41B CALLDATASIZE PUSH1 0x4 PUSH2 0x2309 JUMP JUMPDEST PUSH2 0x12DA JUMP JUMPDEST PUSH2 0x251 PUSH2 0x42E CALLDATASIZE PUSH1 0x4 PUSH2 0x24E1 JUMP JUMPDEST PUSH2 0x13BC JUMP JUMPDEST PUSH1 0x60 PUSH1 0x0 DUP3 PUSH8 0xFFFFFFFFFFFFFFFF DUP2 GT ISZERO PUSH2 0x45E JUMPI PUSH4 0x4E487B71 PUSH1 0xE0 SHL PUSH1 0x0 MSTORE PUSH1 0x41 PUSH1 0x4 MSTORE PUSH1 0x24 PUSH1 0x0 REVERT JUMPDEST PUSH1 0x40 MLOAD SWAP1 DUP1 DUP3 MSTORE DUP1 PUSH1 0x20 MUL PUSH1 0x20 ADD DUP3 ADD PUSH1 0x40 MSTORE DUP1 ISZERO PUSH2 0x487 JUMPI DUP2 PUSH1 0x20 ADD PUSH1 0x20 DUP3 MUL DUP1 CALLDATASIZE DUP4 CALLDATACOPY ADD SWAP1 POP JUMPDEST POP SWAP1 POP PUSH1 0x0 PUSH1 0x60 DUP7 PUSH2 0x4EB JUMPI PUSH1 0x6C DUP1 SLOAD DUP1 PUSH1 0x20 MUL PUSH1 0x20 ADD PUSH1 0x40 MLOAD SWAP1 DUP2 ADD PUSH1 0x40 MSTORE DUP1 SWAP3 SWAP2 SWAP1 DUP2 DUP2 MSTORE PUSH1 0x20 ADD DUP3 DUP1 SLOAD DUP1 ISZERO PUSH2 0x4DF JUMPI PUSH1 0x20 MUL DUP3 ADD SWAP2 SWAP1 PUSH1 0x0 MSTORE PUSH1 0x20 PUSH1 0x0 KECCAK256 SWAP1 JUMPDEST DUP2 SLOAD DUP2 MSTORE PUSH1 0x20 ADD SWAP1 PUSH1 0x1 ADD SWAP1 DUP1 DUP4 GT PUSH2 0x4CB JUMPI JUMPDEST POP POP POP POP POP SWAP1 POP PUSH2 0x5CB JUMP JUMPDEST DUP7 PUSH1 0x1 EQ ISZERO PUSH2 0x55C JUMPI PUSH1 0x1 PUSH1 0x1 PUSH1 0xA0 SHL SUB DUP9 AND PUSH1 0x0 SWAP1 DUP2 MSTORE PUSH1 0x6E PUSH1 0x20 SWAP1 DUP2 MSTORE PUSH1 0x40 SWAP2 DUP3 SWAP1 KECCAK256 DUP1 SLOAD DUP4 MLOAD DUP2 DUP5 MUL DUP2 ADD DUP5 ADD SWAP1 SWAP5 MSTORE DUP1 DUP5 MSTORE SWAP1 SWAP2 DUP4 ADD DUP3 DUP3 DUP1 ISZERO PUSH2 0x4DF JUMPI PUSH1 0x20 MUL DUP3 ADD SWAP2 SWAP1 PUSH1 0x0 MSTORE PUSH1 0x20 PUSH1 0x0 KECCAK256 SWAP1 DUP2 SLOAD DUP2 MSTORE PUSH1 0x20 ADD SWAP1 PUSH1 0x1 ADD SWAP1 DUP1 DUP4 GT PUSH2 0x4CB JUMPI POP POP POP POP POP SWAP1 POP PUSH2 0x5CB JUMP JUMPDEST DUP7 PUSH1 0x2 EQ ISZERO PUSH2 0x5CB JUMPI PUSH1 0x1 PUSH1 0x1 PUSH1 0xA0 SHL SUB DUP9 AND PUSH1 0x0 SWAP1 DUP2 MSTORE PUSH1 0x70 PUSH1 0x20 SWAP1 DUP2 MSTORE PUSH1 0x40 SWAP2 DUP3 SWAP1 KECCAK256 DUP1 SLOAD DUP4 MLOAD DUP2 DUP5 MUL DUP2 ADD DUP5 ADD SWAP1 SWAP5 MSTORE DUP1 DUP5 MSTORE SWAP1 SWAP2 DUP4 ADD DUP3 DUP3 DUP1 ISZERO PUSH2 0x5C3 JUMPI PUSH1 0x20 MUL DUP3 ADD SWAP2 SWAP1 PUSH1 0x0 MSTORE PUSH1 0x20 PUSH1 0x0 KECCAK256 SWAP1 JUMPDEST DUP2 SLOAD DUP2 MSTORE PUSH1 0x20 ADD SWAP1 PUSH1 0x1 ADD SWAP1 DUP1 DUP4 GT PUSH2 0x5AF JUMPI JUMPDEST POP POP POP POP POP SWAP1 POP JUMPDEST DUP1 MLOAD PUSH2 0x5D7 DUP7 DUP9 PUSH2 0x2CB3 JUMP JUMPDEST GT PUSH2 0x5FD JUMPI PUSH1 0x40 MLOAD PUSH3 0x461BCD PUSH1 0xE5 SHL DUP2 MSTORE PUSH1 0x4 ADD PUSH2 0x5F4 SWAP1 PUSH2 0x2A65 JUMP JUMPDEST PUSH1 0x40 MLOAD DUP1 SWAP2 SUB SWAP1 REVERT JUMPDEST PUSH1 0x0 DUP6 PUSH2 0x60A DUP2 DUP10 PUSH2 0x2CB3 JUMP JUMPDEST PUSH2 0x614 SWAP2 SWAP1 PUSH2 0x2CD2 JUMP JUMPDEST SWAP1 POP JUMPDEST PUSH2 0x621 DUP7 DUP9 PUSH2 0x2CB3 JUMP JUMPDEST DUP2 LT ISZERO PUSH2 0x69A JUMPI DUP2 DUP2 DUP2 MLOAD DUP2 LT PUSH2 0x648 JUMPI PUSH4 0x4E487B71 PUSH1 0xE0 SHL PUSH1 0x0 MSTORE PUSH1 0x32 PUSH1 0x4 MSTORE PUSH1 0x24 PUSH1 0x0 REVERT JUMPDEST PUSH1 0x20 MUL PUSH1 0x20 ADD ADD MLOAD DUP5 DUP5 DUP2 MLOAD DUP2 LT PUSH2 0x670 JUMPI PUSH4 0x4E487B71 PUSH1 0xE0 SHL PUSH1 0x0 MSTORE PUSH1 0x32 PUSH1 0x4 MSTORE PUSH1 0x24 PUSH1 0x0 REVERT JUMPDEST PUSH1 0x20 SWAP1 DUP2 MUL SWAP2 SWAP1 SWAP2 ADD ADD MSTORE PUSH2 0x686 DUP4 PUSH1 0x1 PUSH2 0x2C7B JUMP JUMPDEST SWAP3 POP DUP1 PUSH2 0x692 DUP2 PUSH2 0x2D50 JUMP JUMPDEST SWAP2 POP POP PUSH2 0x617 JUMP JUMPDEST POP SWAP2 SWAP8 SWAP7 POP POP POP POP POP POP POP JUMP JUMPDEST PUSH1 0x6C DUP2 DUP2 SLOAD DUP2 LT PUSH2 0x6B7 JUMPI PUSH1 0x0 DUP1 REVERT JUMPDEST PUSH1 0x0 SWAP2 DUP3 MSTORE PUSH1 0x20 SWAP1 SWAP2 KECCAK256 ADD SLOAD SWAP1 POP DUP2 JUMP JUMPDEST PUSH1 0x0 PUSH2 0x6D2 PUSH2 0x1521 JUMP JUMPDEST PUSH1 0x1 PUSH1 0x1 PUSH1 0xA0 SHL SUB AND PUSH2 0x6E3 PUSH2 0xFD4 JUMP JUMPDEST PUSH1 0x1 PUSH1 0x1 PUSH1 0xA0 SHL SUB AND EQ PUSH2 0x709 JUMPI PUSH1 0x40 MLOAD PUSH3 0x461BCD PUSH1 0xE5 SHL DUP2 MSTORE PUSH1 0x4 ADD PUSH2 0x5F4 SWAP1 PUSH2 0x29F9 JUMP JUMPDEST POP PUSH1 0x1 PUSH1 0x1 PUSH1 0xA0 SHL SUB DUP3 AND PUSH1 0x0 SWAP1 DUP2 MSTORE PUSH1 0x65 PUSH1 0x20 MSTORE PUSH1 0x40 SWAP1 KECCAK256 DUP1 SLOAD DUP3 ISZERO ISZERO PUSH1 0xFF NOT SWAP1 SWAP2 AND OR SWAP1 SSTORE PUSH1 0x1 SWAP3 SWAP2 POP POP JUMP JUMPDEST PUSH1 0x68 SLOAD PUSH1 0x1 PUSH1 0x1 PUSH1 0xA0 SHL SUB AND DUP2 JUMP JUMPDEST PUSH1 0x66 SLOAD PUSH1 0x1 PUSH1 0x1 PUSH1 0xA0 SHL SUB AND DUP2 JUMP JUMPDEST PUSH1 0x67 SLOAD PUSH1 0x1 PUSH1 0x1 PUSH1 0xA0 SHL SUB AND DUP2 JUMP JUMPDEST PUSH1 0x6D PUSH1 0x20 MSTORE PUSH1 0x0 SWAP1 DUP2 MSTORE PUSH1 0x40 SWAP1 KECCAK256 SLOAD DUP2 JUMP JUMPDEST PUSH1 0x6B SLOAD PUSH1 0x0 SWAP1 DUP2 MSTORE PUSH1 0x6A PUSH1 0x20 MSTORE PUSH1 0x40 DUP2 KECCAK256 PUSH1 0x3 DUP2 ADD SLOAD ISZERO PUSH2 0x7AA JUMPI PUSH1 0x40 MLOAD PUSH3 0x461BCD PUSH1 0xE5 SHL DUP2 MSTORE PUSH1 0x4 ADD PUSH2 0x5F4 SWAP1 PUSH2 0x2AE2 JUMP JUMPDEST PUSH1 0x69 SLOAD PUSH1 0x40 MLOAD PUSH4 0x81952F3B PUSH1 0xE0 SHL DUP2 MSTORE PUSH1 0x1 PUSH1 0x1 PUSH1 0xA0 SHL SUB SWAP1 SWAP2 AND SWAP1 PUSH4 0x81952F3B SWAP1 PUSH2 0x7E0 SWAP1 DUP9 SWAP1 DUP14 SWAP1 DUP12 SWAP1 DUP10 SWAP1 PUSH1 0x4 ADD PUSH2 0x2BFC JUMP JUMPDEST PUSH1 0x20 PUSH1 0x40 MLOAD DUP1 DUP4 SUB DUP2 DUP7 DUP1 EXTCODESIZE ISZERO DUP1 ISZERO PUSH2 0x7F8 JUMPI PUSH1 0x0 DUP1 REVERT JUMPDEST POP GAS STATICCALL ISZERO DUP1 ISZERO PUSH2 0x80C JUMPI RETURNDATASIZE PUSH1 0x0 DUP1 RETURNDATACOPY RETURNDATASIZE PUSH1 0x0 REVERT JUMPDEST POP POP POP POP PUSH1 0x40 MLOAD RETURNDATASIZE PUSH1 0x1F NOT PUSH1 0x1F DUP3 ADD AND DUP3 ADD DUP1 PUSH1 0x40 MSTORE POP DUP2 ADD SWAP1 PUSH2 0x830 SWAP2 SWAP1 PUSH2 0x2495 JUMP JUMPDEST PUSH2 0x84C JUMPI PUSH1 0x40 MLOAD PUSH3 0x461BCD PUSH1 0xE5 SHL DUP2 MSTORE PUSH1 0x4 ADD PUSH2 0x5F4 SWAP1 PUSH2 0x2890 JUMP JUMPDEST PUSH1 0x74 SLOAD PUSH2 0x859 DUP6 DUP8 PUSH2 0x1525 JUMP JUMPDEST GT PUSH2 0x876 JUMPI PUSH1 0x40 MLOAD PUSH3 0x461BCD PUSH1 0xE5 SHL DUP2 MSTORE PUSH1 0x4 ADD PUSH2 0x5F4 SWAP1 PUSH2 0x298C JUMP JUMPDEST PUSH2 0x899 CALLER ADDRESS PUSH2 0x885 DUP8 DUP10 PUSH2 0x1525 JUMP JUMPDEST PUSH1 0x67 SLOAD PUSH1 0x1 PUSH1 0x1 PUSH1 0xA0 SHL SUB AND SWAP3 SWAP2 SWAP1 PUSH2 0x1538 JUMP JUMPDEST PUSH1 0x67 SLOAD PUSH1 0x40 MLOAD PUSH4 0x70A08231 PUSH1 0xE0 SHL DUP2 MSTORE PUSH1 0x0 SWAP2 PUSH1 0x1 PUSH1 0x1 PUSH1 0xA0 SHL SUB AND SWAP1 PUSH4 0x70A08231 SWAP1 PUSH2 0x8CA SWAP1 ADDRESS SWAP1 PUSH1 0x4 ADD PUSH2 0x2769 JUMP JUMPDEST PUSH1 0x20 PUSH1 0x40 MLOAD DUP1 DUP4 SUB DUP2 DUP7 DUP1 EXTCODESIZE ISZERO DUP1 ISZERO PUSH2 0x8E2 JUMPI PUSH1 0x0 DUP1 REVERT JUMPDEST POP GAS STATICCALL ISZERO DUP1 ISZERO PUSH2 0x8F6 JUMPI RETURNDATASIZE PUSH1 0x0 DUP1 RETURNDATACOPY RETURNDATASIZE PUSH1 0x0 REVERT JUMPDEST POP POP POP POP PUSH1 0x40 MLOAD RETURNDATASIZE PUSH1 0x1F NOT PUSH1 0x1F DUP3 ADD AND DUP3 ADD DUP1 PUSH1 0x40 MSTORE POP DUP2 ADD SWAP1 PUSH2 0x91A SWAP2 SWAP1 PUSH2 0x24C9 JUMP JUMPDEST SWAP1 POP PUSH1 0x0 PUSH2 0x93F PUSH1 0x73 SLOAD PUSH2 0x939 PUSH1 0x72 SLOAD DUP6 PUSH2 0x1525 SWAP1 SWAP2 SWAP1 PUSH4 0xFFFFFFFF AND JUMP JUMPDEST SWAP1 PUSH2 0x1596 JUMP JUMPDEST PUSH1 0x68 SLOAD PUSH1 0x67 SLOAD SWAP2 SWAP3 POP PUSH2 0x95F SWAP2 PUSH1 0x1 PUSH1 0x1 PUSH1 0xA0 SHL SUB SWAP1 DUP2 AND SWAP2 AND DUP4 PUSH2 0x15A2 JUMP JUMPDEST PUSH1 0x68 PUSH1 0x0 SWAP1 SLOAD SWAP1 PUSH2 0x100 EXP SWAP1 DIV PUSH1 0x1 PUSH1 0x1 PUSH1 0xA0 SHL SUB AND PUSH1 0x1 PUSH1 0x1 PUSH1 0xA0 SHL SUB AND PUSH4 0xD10C06A2 PUSH1 0x40 MLOAD DUP2 PUSH4 0xFFFFFFFF AND PUSH1 0xE0 SHL DUP2 MSTORE PUSH1 0x4 ADD PUSH1 0x20 PUSH1 0x40 MLOAD DUP1 DUP4 SUB DUP2 PUSH1 0x0 DUP8 DUP1 EXTCODESIZE ISZERO DUP1 ISZERO PUSH2 0x9AF JUMPI PUSH1 0x0 DUP1 REVERT JUMPDEST POP GAS CALL ISZERO DUP1 ISZERO PUSH2 0x9C3 JUMPI RETURNDATASIZE PUSH1 0x0 DUP1 RETURNDATACOPY RETURNDATASIZE PUSH1 0x0 REVERT JUMPDEST POP POP POP POP PUSH1 0x40 MLOAD RETURNDATASIZE PUSH1 0x1F NOT PUSH1 0x1F DUP3 ADD AND DUP3 ADD DUP1 PUSH1 0x40 MSTORE POP DUP2 ADD SWAP1 PUSH2 0x9E7 SWAP2 SWAP1 PUSH2 0x2495 JUMP JUMPDEST POP PUSH1 0x67 SLOAD PUSH1 0x1 PUSH1 0x1 PUSH1 0xA0 SHL SUB AND PUSH4 0x42966C68 PUSH2 0xA03 DUP5 DUP5 PUSH2 0x15C6 JUMP JUMPDEST PUSH1 0x40 MLOAD DUP3 PUSH4 0xFFFFFFFF AND PUSH1 0xE0 SHL DUP2 MSTORE PUSH1 0x4 ADD PUSH2 0xA1F SWAP2 SWAP1 PUSH2 0x2BF3 JUMP JUMPDEST PUSH1 0x0 PUSH1 0x40 MLOAD DUP1 DUP4 SUB DUP2 PUSH1 0x0 DUP8 DUP1 EXTCODESIZE ISZERO DUP1 ISZERO PUSH2 0xA39 JUMPI PUSH1 0x0 DUP1 REVERT JUMPDEST POP GAS CALL ISZERO DUP1 ISZERO PUSH2 0xA4D JUMPI RETURNDATASIZE PUSH1 0x0 DUP1 RETURNDATACOPY RETURNDATASIZE PUSH1 0x0 REVERT JUMPDEST POP POP PUSH1 0x6B SLOAD PUSH1 0x6C DUP1 SLOAD PUSH1 0x1 DUP2 DUP2 ADD DUP4 SSTORE PUSH1 0x0 DUP4 SWAP1 MSTORE PUSH32 0x2B4A51AB505FC96A0952EFDA2BA61BCD3078D4C02C39A186EC16F21883FBE016 SWAP1 SWAP2 ADD SWAP3 SWAP1 SWAP3 SSTORE SLOAD PUSH2 0xA97 SWAP4 POP SWAP2 POP PUSH2 0x15C6 JUMP JUMPDEST PUSH1 0x6B DUP1 SLOAD PUSH1 0x0 SWAP1 DUP2 MSTORE PUSH1 0x6D PUSH1 0x20 SWAP1 DUP2 MSTORE PUSH1 0x40 DUP1 DUP4 KECCAK256 SWAP5 SWAP1 SWAP5 SSTORE CALLER DUP1 DUP4 MSTORE PUSH1 0x6E DUP1 DUP4 MSTORE DUP6 DUP5 KECCAK256 DUP6 SLOAD DUP2 SLOAD PUSH1 0x1 DUP2 DUP2 ADD DUP5 SSTORE DUP4 DUP9 MSTORE DUP7 DUP9 KECCAK256 SWAP1 SWAP2 ADD SWAP2 SWAP1 SWAP2 SSTORE SWAP6 SLOAD SWAP3 DUP6 MSTORE PUSH1 0x6F DUP5 MSTORE SWAP6 DUP5 KECCAK256 SWAP3 MSTORE SWAP4 SLOAD SWAP1 SWAP3 PUSH2 0xAF0 SWAP2 SWAP1 PUSH2 0x15C6 JUMP JUMPDEST DUP2 MSTORE PUSH1 0x20 ADD SWAP1 DUP2 MSTORE PUSH1 0x20 ADD PUSH1 0x0 KECCAK256 DUP2 SWAP1 SSTORE POP PUSH1 0x6B PUSH1 0x0 DUP2 SLOAD DUP1 SWAP3 SWAP2 SWAP1 PUSH2 0xB15 SWAP1 PUSH2 0x2D50 JUMP JUMPDEST SWAP1 SWAP2 SSTORE POP POP DUP3 SLOAD PUSH1 0x1 PUSH1 0x1 PUSH1 0xA0 SHL SUB NOT AND CALLER OR DUP4 SSTORE PUSH1 0x1 DUP4 ADD DUP10 SWAP1 SSTORE DUP8 MLOAD PUSH2 0xB46 SWAP1 PUSH1 0x2 DUP6 ADD SWAP1 PUSH1 0x20 DUP12 ADD SWAP1 PUSH2 0x2082 JUMP JUMPDEST POP PUSH1 0x1 PUSH1 0x3 DUP5 ADD SSTORE PUSH1 0x4 DUP4 ADD DUP11 SWAP1 SSTORE PUSH1 0x5 DUP4 ADD DUP8 SWAP1 SSTORE PUSH1 0x6 DUP4 ADD DUP12 SWAP1 SSTORE PUSH1 0x9 DUP4 ADD DUP7 SWAP1 SSTORE PUSH2 0xB74 DUP3 DUP3 PUSH2 0x15C6 JUMP JUMPDEST PUSH1 0xA SWAP1 SWAP4 ADD SWAP3 SWAP1 SWAP3 SSTORE POP PUSH1 0x1 SWAP10 SWAP9 POP POP POP POP POP POP POP POP POP JUMP JUMPDEST PUSH1 0x65 PUSH1 0x20 MSTORE PUSH1 0x0 SWAP1 DUP2 MSTORE PUSH1 0x40 SWAP1 KECCAK256 SLOAD PUSH1 0xFF AND DUP2 JUMP JUMPDEST PUSH2 0xBAA PUSH2 0x2106 JUMP JUMPDEST PUSH1 0x0 DUP3 DUP2 MSTORE PUSH1 0x6A PUSH1 0x20 SWAP1 DUP2 MSTORE PUSH1 0x40 SWAP2 DUP3 SWAP1 KECCAK256 DUP3 MLOAD PUSH2 0x160 DUP2 ADD DUP5 MSTORE DUP2 SLOAD PUSH1 0x1 PUSH1 0x1 PUSH1 0xA0 SHL SUB AND DUP2 MSTORE PUSH1 0x1 DUP3 ADD SLOAD SWAP3 DUP2 ADD SWAP3 SWAP1 SWAP3 MSTORE PUSH1 0x2 DUP2 ADD DUP1 SLOAD SWAP3 SWAP4 SWAP2 SWAP3 SWAP2 DUP5 ADD SWAP2 PUSH2 0xBF5 SWAP1 PUSH2 0x2D15 JUMP JUMPDEST DUP1 PUSH1 0x1F ADD PUSH1 0x20 DUP1 SWAP2 DIV MUL PUSH1 0x20 ADD PUSH1 0x40 MLOAD SWAP1 DUP2 ADD PUSH1 0x40 MSTORE DUP1 SWAP3 SWAP2 SWAP1 DUP2 DUP2 MSTORE PUSH1 0x20 ADD DUP3 DUP1 SLOAD PUSH2 0xC21 SWAP1 PUSH2 0x2D15 JUMP JUMPDEST DUP1 ISZERO PUSH2 0xC6E JUMPI DUP1 PUSH1 0x1F LT PUSH2 0xC43 JUMPI PUSH2 0x100 DUP1 DUP4 SLOAD DIV MUL DUP4 MSTORE SWAP2 PUSH1 0x20 ADD SWAP2 PUSH2 0xC6E JUMP JUMPDEST DUP3 ADD SWAP2 SWAP1 PUSH1 0x0 MSTORE PUSH1 0x20 PUSH1 0x0 KECCAK256 SWAP1 JUMPDEST DUP2 SLOAD DUP2 MSTORE SWAP1 PUSH1 0x1 ADD SWAP1 PUSH1 0x20 ADD DUP1 DUP4 GT PUSH2 0xC51 JUMPI DUP3 SWAP1 SUB PUSH1 0x1F AND DUP3 ADD SWAP2 JUMPDEST POP POP POP POP POP DUP2 MSTORE PUSH1 0x20 ADD PUSH1 0x3 DUP3 ADD SLOAD DUP2 MSTORE PUSH1 0x20 ADD PUSH1 0x4 DUP3 ADD SLOAD DUP2 MSTORE PUSH1 0x20 ADD PUSH1 0x5 DUP3 ADD SLOAD DUP2 MSTORE PUSH1 0x20 ADD PUSH1 0x6 DUP3 ADD SLOAD DUP2 MSTORE PUSH1 0x20 ADD PUSH1 0x7 DUP3 ADD SLOAD DUP2 MSTORE PUSH1 0x20 ADD PUSH1 0x8 DUP3 ADD SLOAD DUP2 MSTORE PUSH1 0x20 ADD PUSH1 0x9 DUP3 ADD SLOAD DUP2 MSTORE PUSH1 0x20 ADD PUSH1 0xA DUP3 ADD SLOAD DUP2 MSTORE POP POP SWAP1 POP JUMPDEST SWAP2 SWAP1 POP JUMP JUMPDEST PUSH1 0x0 PUSH2 0xCD9 PUSH2 0x1521 JUMP JUMPDEST PUSH1 0x1 PUSH1 0x1 PUSH1 0xA0 SHL SUB AND PUSH2 0xCEA PUSH2 0xFD4 JUMP JUMPDEST PUSH1 0x1 PUSH1 0x1 PUSH1 0xA0 SHL SUB AND EQ PUSH2 0xD10 JUMPI PUSH1 0x40 MLOAD PUSH3 0x461BCD PUSH1 0xE5 SHL DUP2 MSTORE PUSH1 0x4 ADD PUSH2 0x5F4 SWAP1 PUSH2 0x29F9 JUMP JUMPDEST POP PUSH1 0x66 DUP1 SLOAD PUSH1 0x1 PUSH1 0x1 PUSH1 0xA0 SHL SUB DUP4 AND PUSH1 0x1 PUSH1 0x1 PUSH1 0xA0 SHL SUB NOT SWAP1 SWAP2 AND OR SWAP1 SSTORE PUSH1 0x1 SWAP2 SWAP1 POP JUMP JUMPDEST CALLER PUSH1 0x0 SWAP1 DUP2 MSTORE PUSH1 0x65 PUSH1 0x20 MSTORE PUSH1 0x40 DUP2 KECCAK256 SLOAD PUSH1 0xFF AND PUSH2 0xD64 JUMPI PUSH1 0x40 MLOAD PUSH3 0x461BCD PUSH1 0xE5 SHL DUP2 MSTORE PUSH1 0x4 ADD PUSH2 0x5F4 SWAP1 PUSH2 0x28B4 JUMP JUMPDEST PUSH1 0x0 JUMPDEST DUP7 MLOAD DUP2 LT ISZERO PUSH2 0xEFE JUMPI PUSH1 0x0 PUSH1 0x6A PUSH1 0x0 DUP10 DUP5 DUP2 MLOAD DUP2 LT PUSH2 0xD96 JUMPI PUSH4 0x4E487B71 PUSH1 0xE0 SHL PUSH1 0x0 MSTORE PUSH1 0x32 PUSH1 0x4 MSTORE PUSH1 0x24 PUSH1 0x0 REVERT JUMPDEST PUSH1 0x20 MUL PUSH1 0x20 ADD ADD MLOAD DUP2 MSTORE PUSH1 0x20 ADD SWAP1 DUP2 MSTORE PUSH1 0x20 ADD PUSH1 0x0 KECCAK256 SWAP1 POP PUSH2 0xE0B DUP9 DUP4 DUP2 MLOAD DUP2 LT PUSH2 0xDD1 JUMPI PUSH4 0x4E487B71 PUSH1 0xE0 SHL PUSH1 0x0 MSTORE PUSH1 0x32 PUSH1 0x4 MSTORE PUSH1 0x24 PUSH1 0x0 REVERT JUMPDEST PUSH1 0x20 MUL PUSH1 0x20 ADD ADD MLOAD DUP7 DUP5 DUP2 MLOAD DUP2 LT PUSH2 0xDF9 JUMPI PUSH4 0x4E487B71 PUSH1 0xE0 SHL PUSH1 0x0 MSTORE PUSH1 0x32 PUSH1 0x4 MSTORE PUSH1 0x24 PUSH1 0x0 REVERT JUMPDEST PUSH1 0x20 MUL PUSH1 0x20 ADD ADD MLOAD DUP4 PUSH1 0xA ADD SLOAD PUSH2 0x15D2 JUMP JUMPDEST PUSH2 0xEEB JUMPI PUSH2 0xEE2 DUP2 PUSH1 0x3 DUP11 DUP6 DUP2 MLOAD DUP2 LT PUSH2 0xE35 JUMPI PUSH4 0x4E487B71 PUSH1 0xE0 SHL PUSH1 0x0 MSTORE PUSH1 0x32 PUSH1 0x4 MSTORE PUSH1 0x24 PUSH1 0x0 REVERT JUMPDEST PUSH1 0x20 MUL PUSH1 0x20 ADD ADD MLOAD DUP11 DUP7 DUP2 MLOAD DUP2 LT PUSH2 0xE5D JUMPI PUSH4 0x4E487B71 PUSH1 0xE0 SHL PUSH1 0x0 MSTORE PUSH1 0x32 PUSH1 0x4 MSTORE PUSH1 0x24 PUSH1 0x0 REVERT JUMPDEST PUSH1 0x20 MUL PUSH1 0x20 ADD ADD MLOAD DUP11 DUP8 DUP2 MLOAD DUP2 LT PUSH2 0xE85 JUMPI PUSH4 0x4E487B71 PUSH1 0xE0 SHL PUSH1 0x0 MSTORE PUSH1 0x32 PUSH1 0x4 MSTORE PUSH1 0x24 PUSH1 0x0 REVERT JUMPDEST PUSH1 0x20 MUL PUSH1 0x20 ADD ADD MLOAD DUP11 DUP9 DUP2 MLOAD DUP2 LT PUSH2 0xEAD JUMPI PUSH4 0x4E487B71 PUSH1 0xE0 SHL PUSH1 0x0 MSTORE PUSH1 0x32 PUSH1 0x4 MSTORE PUSH1 0x24 PUSH1 0x0 REVERT JUMPDEST PUSH1 0x20 MUL PUSH1 0x20 ADD ADD MLOAD DUP11 DUP10 DUP2 MLOAD DUP2 LT PUSH2 0xED5 JUMPI PUSH4 0x4E487B71 PUSH1 0xE0 SHL PUSH1 0x0 MSTORE PUSH1 0x32 PUSH1 0x4 MSTORE PUSH1 0x24 PUSH1 0x0 REVERT JUMPDEST PUSH1 0x20 MUL PUSH1 0x20 ADD ADD MLOAD PUSH2 0x16FF JUMP JUMPDEST SWAP3 POP POP POP PUSH2 0xF04 JUMP JUMPDEST POP DUP1 PUSH2 0xEF6 DUP2 PUSH2 0x2D50 JUMP JUMPDEST SWAP2 POP POP PUSH2 0xD67 JUMP JUMPDEST POP PUSH1 0x1 SWAP1 POP JUMPDEST SWAP6 SWAP5 POP POP POP POP POP JUMP JUMPDEST PUSH2 0xF15 PUSH2 0x1521 JUMP JUMPDEST PUSH1 0x1 PUSH1 0x1 PUSH1 0xA0 SHL SUB AND PUSH2 0xF26 PUSH2 0xFD4 JUMP JUMPDEST PUSH1 0x1 PUSH1 0x1 PUSH1 0xA0 SHL SUB AND EQ PUSH2 0xF4C JUMPI PUSH1 0x40 MLOAD PUSH3 0x461BCD PUSH1 0xE5 SHL DUP2 MSTORE PUSH1 0x4 ADD PUSH2 0x5F4 SWAP1 PUSH2 0x29F9 JUMP JUMPDEST PUSH2 0xF56 PUSH1 0x0 PUSH2 0x1D23 JUMP JUMPDEST JUMP JUMPDEST PUSH1 0x6F PUSH1 0x20 SWAP1 DUP2 MSTORE PUSH1 0x0 SWAP3 DUP4 MSTORE PUSH1 0x40 DUP1 DUP5 KECCAK256 SWAP1 SWAP2 MSTORE SWAP1 DUP3 MSTORE SWAP1 KECCAK256 SLOAD DUP2 JUMP JUMPDEST PUSH1 0x0 PUSH2 0xF7F PUSH2 0x1521 JUMP JUMPDEST PUSH1 0x1 PUSH1 0x1 PUSH1 0xA0 SHL SUB AND PUSH2 0xF90 PUSH2 0xFD4 JUMP JUMPDEST PUSH1 0x1 PUSH1 0x1 PUSH1 0xA0 SHL SUB AND EQ PUSH2 0xFB6 JUMPI PUSH1 0x40 MLOAD PUSH3 0x461BCD PUSH1 0xE5 SHL DUP2 MSTORE PUSH1 0x4 ADD PUSH2 0x5F4 SWAP1 PUSH2 0x29F9 JUMP JUMPDEST POP PUSH1 0x72 SSTORE PUSH1 0x1 SWAP1 JUMP JUMPDEST PUSH1 0x69 SLOAD PUSH1 0x1 PUSH1 0x1 PUSH1 0xA0 SHL SUB AND DUP2 JUMP JUMPDEST PUSH1 0x72 SLOAD DUP2 JUMP JUMPDEST PUSH1 0x33 SLOAD PUSH1 0x1 PUSH1 0x1 PUSH1 0xA0 SHL SUB AND SWAP1 JUMP JUMPDEST PUSH1 0x0 DUP7 DUP2 MSTORE PUSH1 0x6A PUSH1 0x20 MSTORE PUSH1 0x40 DUP2 KECCAK256 DUP1 SLOAD PUSH1 0x1 PUSH1 0x1 PUSH1 0xA0 SHL SUB AND PUSH2 0x1018 JUMPI PUSH1 0x40 MLOAD PUSH3 0x461BCD PUSH1 0xE5 SHL DUP2 MSTORE PUSH1 0x4 ADD PUSH2 0x5F4 SWAP1 PUSH2 0x281C JUMP JUMPDEST PUSH1 0x2 DUP2 PUSH1 0x3 ADD SLOAD LT PUSH2 0x103C JUMPI PUSH1 0x40 MLOAD PUSH3 0x461BCD PUSH1 0xE5 SHL DUP2 MSTORE PUSH1 0x4 ADD PUSH2 0x5F4 SWAP1 PUSH2 0x2AE2 JUMP JUMPDEST PUSH1 0x69 SLOAD PUSH1 0x40 MLOAD PUSH4 0x81952F3B PUSH1 0xE0 SHL DUP2 MSTORE PUSH1 0x1 PUSH1 0x1 PUSH1 0xA0 SHL SUB SWAP1 SWAP2 AND SWAP1 PUSH4 0x81952F3B SWAP1 PUSH2 0x1072 SWAP1 DUP9 SWAP1 DUP12 SWAP1 DUP12 SWAP1 DUP11 SWAP1 PUSH1 0x4 ADD PUSH2 0x2BFC JUMP JUMPDEST PUSH1 0x20 PUSH1 0x40 MLOAD DUP1 DUP4 SUB DUP2 DUP7 DUP1 EXTCODESIZE ISZERO DUP1 ISZERO PUSH2 0x108A JUMPI PUSH1 0x0 DUP1 REVERT JUMPDEST POP GAS STATICCALL ISZERO DUP1 ISZERO PUSH2 0x109E JUMPI RETURNDATASIZE PUSH1 0x0 DUP1 RETURNDATACOPY RETURNDATASIZE PUSH1 0x0 REVERT JUMPDEST POP POP POP POP PUSH1 0x40 MLOAD RETURNDATASIZE PUSH1 0x1F NOT PUSH1 0x1F DUP3 ADD AND DUP3 ADD DUP1 PUSH1 0x40 MSTORE POP DUP2 ADD SWAP1 PUSH2 0x10C2 SWAP2 SWAP1 PUSH2 0x2495 JUMP JUMPDEST PUSH2 0x10DE JUMPI PUSH1 0x40 MLOAD PUSH3 0x461BCD PUSH1 0xE5 SHL DUP2 MSTORE PUSH1 0x4 ADD PUSH2 0x5F4 SWAP1 PUSH2 0x2890 JUMP JUMPDEST PUSH2 0x10E9 DUP9 DUP7 DUP6 PUSH2 0x15D2 JUMP JUMPDEST PUSH2 0x1105 JUMPI PUSH1 0x40 MLOAD PUSH3 0x461BCD PUSH1 0xE5 SHL DUP2 MSTORE PUSH1 0x4 ADD PUSH2 0x5F4 SWAP1 PUSH2 0x29CF JUMP JUMPDEST PUSH1 0xA ADD DUP3 SWAP1 SSTORE POP PUSH1 0x1 SWAP7 SWAP6 POP POP POP POP POP POP JUMP JUMPDEST PUSH1 0x0 DUP6 DUP2 MSTORE PUSH1 0x6A PUSH1 0x20 MSTORE PUSH1 0x40 DUP2 KECCAK256 DUP1 SLOAD PUSH1 0x1 PUSH1 0x1 PUSH1 0xA0 SHL SUB AND CALLER EQ PUSH2 0x114F JUMPI PUSH1 0x40 MLOAD PUSH3 0x461BCD PUSH1 0xE5 SHL DUP2 MSTORE PUSH1 0x4 ADD PUSH2 0x5F4 SWAP1 PUSH2 0x2A89 JUMP JUMPDEST PUSH2 0x115F DUP2 PUSH1 0x2 DUP10 DUP10 DUP10 DUP10 DUP10 PUSH2 0x16FF JUMP JUMPDEST SWAP8 SWAP7 POP POP POP POP POP POP POP JUMP JUMPDEST CALLER PUSH1 0x0 SWAP1 DUP2 MSTORE PUSH1 0x65 PUSH1 0x20 MSTORE PUSH1 0x40 DUP2 KECCAK256 SLOAD PUSH1 0xFF AND PUSH2 0x1199 JUMPI PUSH1 0x40 MLOAD PUSH3 0x461BCD PUSH1 0xE5 SHL DUP2 MSTORE PUSH1 0x4 ADD PUSH2 0x5F4 SWAP1 PUSH2 0x28B4 JUMP JUMPDEST PUSH1 0x0 DUP7 DUP2 MSTORE PUSH1 0x6A PUSH1 0x20 MSTORE PUSH1 0x40 SWAP1 KECCAK256 PUSH2 0x115F DUP2 PUSH1 0x4 DUP10 DUP10 DUP10 DUP10 DUP10 PUSH2 0x16FF JUMP JUMPDEST PUSH1 0x73 SLOAD DUP2 JUMP JUMPDEST PUSH1 0x1 PUSH1 0x1 PUSH1 0xA0 SHL SUB AND PUSH1 0x0 SWAP1 DUP2 MSTORE PUSH1 0x70 PUSH1 0x20 MSTORE PUSH1 0x40 SWAP1 KECCAK256 SLOAD SWAP1 JUMP JUMPDEST PUSH1 0x6E PUSH1 0x20 MSTORE DUP2 PUSH1 0x0 MSTORE PUSH1 0x40 PUSH1 0x0 KECCAK256 DUP2 DUP2 SLOAD DUP2 LT PUSH2 0x11F4 JUMPI PUSH1 0x0 DUP1 REVERT JUMPDEST SWAP1 PUSH1 0x0 MSTORE PUSH1 0x20 PUSH1 0x0 KECCAK256 ADD PUSH1 0x0 SWAP2 POP SWAP2 POP POP SLOAD DUP2 JUMP JUMPDEST PUSH1 0x1 PUSH1 0x1 PUSH1 0xA0 SHL SUB AND PUSH1 0x0 SWAP1 DUP2 MSTORE PUSH1 0x6E PUSH1 0x20 MSTORE PUSH1 0x40 SWAP1 KECCAK256 SLOAD SWAP1 JUMP JUMPDEST PUSH1 0x70 PUSH1 0x20 MSTORE DUP2 PUSH1 0x0 MSTORE PUSH1 0x40 PUSH1 0x0 KECCAK256 DUP2 DUP2 SLOAD DUP2 LT PUSH2 0x11F4 JUMPI PUSH1 0x0 DUP1 REVERT JUMPDEST PUSH1 0x71 PUSH1 0x20 SWAP1 DUP2 MSTORE PUSH1 0x0 SWAP3 DUP4 MSTORE PUSH1 0x40 DUP1 DUP5 KECCAK256 SWAP1 SWAP2 MSTORE SWAP1 DUP3 MSTORE SWAP1 KECCAK256 SLOAD DUP2 JUMP JUMPDEST PUSH1 0x74 SLOAD DUP2 JUMP JUMPDEST PUSH2 0x126B PUSH2 0x1521 JUMP JUMPDEST PUSH1 0x1 PUSH1 0x1 PUSH1 0xA0 SHL SUB AND PUSH2 0x127C PUSH2 0xFD4 JUMP JUMPDEST PUSH1 0x1 PUSH1 0x1 PUSH1 0xA0 SHL SUB AND EQ PUSH2 0x12A2 JUMPI PUSH1 0x40 MLOAD PUSH3 0x461BCD PUSH1 0xE5 SHL DUP2 MSTORE PUSH1 0x4 ADD PUSH2 0x5F4 SWAP1 PUSH2 0x29F9 JUMP JUMPDEST PUSH1 0x1 PUSH1 0x1 PUSH1 0xA0 SHL SUB DUP2 AND PUSH2 0x12C8 JUMPI PUSH1 0x40 MLOAD PUSH3 0x461BCD PUSH1 0xE5 SHL DUP2 MSTORE PUSH1 0x4 ADD PUSH2 0x5F4 SWAP1 PUSH2 0x284A JUMP JUMPDEST PUSH2 0x12D1 DUP2 PUSH2 0x1D23 JUMP JUMPDEST POP JUMP JUMPDEST PUSH1 0x6B SLOAD DUP2 JUMP JUMPDEST PUSH1 0x0 SLOAD PUSH2 0x100 SWAP1 DIV PUSH1 0xFF AND DUP1 PUSH2 0x12F3 JUMPI POP PUSH1 0x0 SLOAD PUSH1 0xFF AND ISZERO JUMPDEST PUSH2 0x130F JUMPI PUSH1 0x40 MLOAD PUSH3 0x461BCD PUSH1 0xE5 SHL DUP2 MSTORE PUSH1 0x4 ADD PUSH2 0x5F4 SWAP1 PUSH2 0x293E JUMP JUMPDEST PUSH1 0x0 SLOAD PUSH2 0x100 SWAP1 DIV PUSH1 0xFF AND ISZERO DUP1 ISZERO PUSH2 0x133A JUMPI PUSH1 0x0 DUP1 SLOAD PUSH1 0xFF NOT PUSH2 0xFF00 NOT SWAP1 SWAP2 AND PUSH2 0x100 OR AND PUSH1 0x1 OR SWAP1 SSTORE JUMPDEST PUSH2 0x1342 PUSH2 0x1D75 JUMP JUMPDEST PUSH1 0x66 DUP1 SLOAD PUSH1 0x1 PUSH1 0x1 PUSH1 0xA0 SHL SUB DUP1 DUP9 AND PUSH1 0x1 PUSH1 0x1 PUSH1 0xA0 SHL SUB NOT SWAP3 DUP4 AND OR SWAP1 SWAP3 SSTORE PUSH1 0x68 DUP1 SLOAD DUP8 DUP5 AND SWAP1 DUP4 AND OR SWAP1 SSTORE PUSH1 0x67 DUP1 SLOAD DUP7 DUP5 AND SWAP1 DUP4 AND OR SWAP1 SSTORE PUSH2 0x2710 PUSH1 0x73 SSTORE PUSH1 0x69 DUP1 SLOAD SWAP3 DUP6 AND SWAP3 SWAP1 SWAP2 AND SWAP2 SWAP1 SWAP2 OR SWAP1 SSTORE PUSH8 0xDE0B6B3A7640000 PUSH1 0x74 SSTORE PUSH1 0x32 PUSH1 0x72 SSTORE DUP1 ISZERO PUSH2 0x13B5 JUMPI PUSH1 0x0 DUP1 SLOAD PUSH2 0xFF00 NOT AND SWAP1 SSTORE JUMPDEST POP POP POP POP POP JUMP JUMPDEST PUSH1 0x0 PUSH2 0x13C6 PUSH2 0x1521 JUMP JUMPDEST PUSH1 0x1 PUSH1 0x1 PUSH1 0xA0 SHL SUB AND PUSH2 0x13D7 PUSH2 0xFD4 JUMP JUMPDEST PUSH1 0x1 PUSH1 0x1 PUSH1 0xA0 SHL SUB AND EQ PUSH2 0x13FD JUMPI PUSH1 0x40 MLOAD PUSH3 0x461BCD PUSH1 0xE5 SHL DUP2 MSTORE PUSH1 0x4 ADD PUSH2 0x5F4 SWAP1 PUSH2 0x29F9 JUMP JUMPDEST PUSH1 0x40 MLOAD DUP1 PUSH2 0x160 ADD PUSH1 0x40 MSTORE DUP1 DUP14 PUSH1 0x1 PUSH1 0x1 PUSH1 0xA0 SHL SUB AND DUP2 MSTORE PUSH1 0x20 ADD DUP13 DUP2 MSTORE PUSH1 0x20 ADD DUP12 DUP2 MSTORE PUSH1 0x20 ADD DUP11 DUP2 MSTORE PUSH1 0x20 ADD DUP10 DUP2 MSTORE PUSH1 0x20 ADD DUP9 DUP2 MSTORE PUSH1 0x20 ADD DUP8 DUP2 MSTORE PUSH1 0x20 ADD DUP7 DUP2 MSTORE PUSH1 0x20 ADD DUP6 DUP2 MSTORE PUSH1 0x20 ADD DUP5 DUP2 MSTORE PUSH1 0x20 ADD DUP4 DUP2 MSTORE POP PUSH1 0x6A PUSH1 0x0 DUP16 DUP2 MSTORE PUSH1 0x20 ADD SWAP1 DUP2 MSTORE PUSH1 0x20 ADD PUSH1 0x0 KECCAK256 PUSH1 0x0 DUP3 ADD MLOAD DUP2 PUSH1 0x0 ADD PUSH1 0x0 PUSH2 0x100 EXP DUP2 SLOAD DUP2 PUSH1 0x1 PUSH1 0x1 PUSH1 0xA0 SHL SUB MUL NOT AND SWAP1 DUP4 PUSH1 0x1 PUSH1 0x1 PUSH1 0xA0 SHL SUB AND MUL OR SWAP1 SSTORE POP PUSH1 0x20 DUP3 ADD MLOAD DUP2 PUSH1 0x1 ADD SSTORE PUSH1 0x40 DUP3 ADD MLOAD DUP2 PUSH1 0x2 ADD SWAP1 DUP1 MLOAD SWAP1 PUSH1 0x20 ADD SWAP1 PUSH2 0x14B8 SWAP3 SWAP2 SWAP1 PUSH2 0x2082 JUMP JUMPDEST POP PUSH1 0x60 DUP3 ADD MLOAD PUSH1 0x3 DUP3 ADD SSTORE PUSH1 0x80 DUP3 ADD MLOAD PUSH1 0x4 DUP3 ADD SSTORE PUSH1 0xA0 DUP3 ADD MLOAD PUSH1 0x5 DUP3 ADD SSTORE PUSH1 0xC0 DUP3 ADD MLOAD PUSH1 0x6 DUP3 ADD SSTORE PUSH1 0xE0 DUP3 ADD MLOAD PUSH1 0x7 DUP3 ADD SSTORE PUSH2 0x100 DUP3 ADD MLOAD PUSH1 0x8 DUP3 ADD SSTORE PUSH2 0x120 DUP3 ADD MLOAD PUSH1 0x9 DUP3 ADD SSTORE PUSH2 0x140 SWAP1 SWAP2 ADD MLOAD PUSH1 0xA SWAP1 SWAP2 ADD SSTORE POP PUSH1 0x1 SWAP13 SWAP12 POP POP POP POP POP POP POP POP POP POP POP POP JUMP JUMPDEST CALLER SWAP1 JUMP JUMPDEST PUSH1 0x0 PUSH2 0x1531 DUP3 DUP5 PUSH2 0x2CB3 JUMP JUMPDEST SWAP4 SWAP3 POP POP POP JUMP JUMPDEST PUSH2 0x1590 DUP5 PUSH4 0x23B872DD PUSH1 0xE0 SHL DUP6 DUP6 DUP6 PUSH1 0x40 MLOAD PUSH1 0x24 ADD PUSH2 0x1559 SWAP4 SWAP3 SWAP2 SWAP1 PUSH2 0x277D JUMP JUMPDEST PUSH1 0x40 DUP1 MLOAD PUSH1 0x1F NOT DUP2 DUP5 SUB ADD DUP2 MSTORE SWAP2 SWAP1 MSTORE PUSH1 0x20 DUP2 ADD DUP1 MLOAD PUSH1 0x1 PUSH1 0x1 PUSH1 0xE0 SHL SUB AND PUSH1 0x1 PUSH1 0x1 PUSH1 0xE0 SHL SUB NOT SWAP1 SWAP4 AND SWAP3 SWAP1 SWAP3 OR SWAP1 SWAP2 MSTORE PUSH2 0x1DF9 JUMP JUMPDEST POP POP POP POP JUMP JUMPDEST PUSH1 0x0 PUSH2 0x1531 DUP3 DUP5 PUSH2 0x2C93 JUMP JUMPDEST PUSH2 0x15C1 DUP4 PUSH4 0xA9059CBB PUSH1 0xE0 SHL DUP5 DUP5 PUSH1 0x40 MLOAD PUSH1 0x24 ADD PUSH2 0x1559 SWAP3 SWAP2 SWAP1 PUSH2 0x27A1 JUMP JUMPDEST POP POP POP JUMP JUMPDEST PUSH1 0x0 PUSH2 0x1531 DUP3 DUP5 PUSH2 0x2CD2 JUMP JUMPDEST PUSH1 0x0 DUP4 DUP2 MSTORE PUSH1 0x6A PUSH1 0x20 MSTORE PUSH1 0x40 DUP2 KECCAK256 PUSH1 0x4 DUP2 ADD SLOAD DUP3 SWAP1 DUP2 SWAP1 DUP2 SWAP1 PUSH1 0x1 EQ ISZERO PUSH2 0x1677 JUMPI DUP4 PUSH1 0x5 ADD SLOAD DUP8 LT ISZERO PUSH2 0x1672 JUMPI PUSH1 0x5 DUP5 ADD SLOAD PUSH2 0x160E SWAP1 DUP9 PUSH2 0x15C6 JUMP JUMPDEST SWAP3 POP PUSH2 0x1627 DUP5 PUSH1 0x9 ADD SLOAD DUP5 PUSH2 0x1525 SWAP1 SWAP2 SWAP1 PUSH4 0xFFFFFFFF AND JUMP JUMPDEST SWAP2 POP PUSH2 0x1652 PUSH1 0x73 SLOAD PUSH2 0x939 PUSH1 0x72 SLOAD PUSH2 0x164C DUP12 DUP10 PUSH1 0x9 ADD SLOAD PUSH2 0x1525 SWAP1 SWAP2 SWAP1 PUSH4 0xFFFFFFFF AND JUMP JUMPDEST SWAP1 PUSH2 0x1525 JUMP JUMPDEST SWAP1 POP PUSH2 0x165E DUP2 DUP4 PUSH2 0x2C7B JUMP JUMPDEST DUP7 LT ISZERO PUSH2 0x1672 JUMPI PUSH1 0x0 SWAP5 POP POP POP POP POP PUSH2 0x1531 JUMP JUMPDEST PUSH2 0x16F1 JUMP JUMPDEST DUP4 PUSH1 0x5 ADD SLOAD DUP8 GT ISZERO PUSH2 0x16F1 JUMPI PUSH1 0x5 DUP5 ADD SLOAD PUSH2 0x1693 SWAP1 DUP9 SWAP1 PUSH2 0x15C6 JUMP JUMPDEST SWAP3 POP PUSH2 0x16AC DUP5 PUSH1 0x9 ADD SLOAD DUP5 PUSH2 0x1525 SWAP1 SWAP2 SWAP1 PUSH4 0xFFFFFFFF AND JUMP JUMPDEST SWAP2 POP PUSH2 0x16D1 PUSH1 0x73 SLOAD PUSH2 0x939 PUSH1 0x72 SLOAD PUSH2 0x164C DUP12 DUP10 PUSH1 0x9 ADD SLOAD PUSH2 0x1525 SWAP1 SWAP2 SWAP1 PUSH4 0xFFFFFFFF AND JUMP JUMPDEST SWAP1 POP PUSH2 0x16DD DUP2 DUP4 PUSH2 0x2C7B JUMP JUMPDEST DUP7 LT ISZERO PUSH2 0x16F1 JUMPI PUSH1 0x0 SWAP5 POP POP POP POP POP PUSH2 0x1531 JUMP JUMPDEST POP PUSH1 0x1 SWAP8 SWAP7 POP POP POP POP POP POP POP JUMP JUMPDEST DUP7 SLOAD PUSH1 0x0 SWAP1 PUSH1 0x1 PUSH1 0x1 PUSH1 0xA0 SHL SUB AND PUSH2 0x1729 JUMPI PUSH1 0x40 MLOAD PUSH3 0x461BCD PUSH1 0xE5 SHL DUP2 MSTORE PUSH1 0x4 ADD PUSH2 0x5F4 SWAP1 PUSH2 0x281C JUMP JUMPDEST PUSH1 0x2 DUP9 PUSH1 0x3 ADD SLOAD LT PUSH2 0x174D JUMPI PUSH1 0x40 MLOAD PUSH3 0x461BCD PUSH1 0xE5 SHL DUP2 MSTORE PUSH1 0x4 ADD PUSH2 0x5F4 SWAP1 PUSH2 0x2AE2 JUMP JUMPDEST PUSH1 0x69 SLOAD PUSH1 0x40 MLOAD PUSH4 0x81952F3B PUSH1 0xE0 SHL DUP2 MSTORE PUSH1 0x1 PUSH1 0x1 PUSH1 0xA0 SHL SUB SWAP1 SWAP2 AND SWAP1 PUSH4 0x81952F3B SWAP1 PUSH2 0x1783 SWAP1 DUP7 SWAP1 DUP10 SWAP1 DUP10 SWAP1 DUP9 SWAP1 PUSH1 0x4 ADD PUSH2 0x2BFC JUMP JUMPDEST PUSH1 0x20 PUSH1 0x40 MLOAD DUP1 DUP4 SUB DUP2 DUP7 DUP1 EXTCODESIZE ISZERO DUP1 ISZERO PUSH2 0x179B JUMPI PUSH1 0x0 DUP1 REVERT JUMPDEST POP GAS STATICCALL ISZERO DUP1 ISZERO PUSH2 0x17AF JUMPI RETURNDATASIZE PUSH1 0x0 DUP1 RETURNDATACOPY RETURNDATASIZE PUSH1 0x0 REVERT JUMPDEST POP POP POP POP PUSH1 0x40 MLOAD RETURNDATASIZE PUSH1 0x1F NOT PUSH1 0x1F DUP3 ADD AND DUP3 ADD DUP1 PUSH1 0x40 MSTORE POP DUP2 ADD SWAP1 PUSH2 0x17D3 SWAP2 SWAP1 PUSH2 0x2495 JUMP JUMPDEST PUSH2 0x17EF JUMPI PUSH1 0x40 MLOAD PUSH3 0x461BCD PUSH1 0xE5 SHL DUP2 MSTORE PUSH1 0x4 ADD PUSH2 0x5F4 SWAP1 PUSH2 0x2890 JUMP JUMPDEST DUP3 DUP9 PUSH1 0x7 ADD DUP2 SWAP1 SSTORE POP PUSH1 0x0 DUP1 PUSH1 0x0 DUP11 PUSH1 0x4 ADD SLOAD PUSH1 0x1 EQ ISZERO PUSH2 0x1B2E JUMPI DUP11 PUSH1 0x5 ADD SLOAD DUP12 PUSH1 0x7 ADD SLOAD GT ISZERO PUSH2 0x199A JUMPI PUSH1 0x5 DUP12 ADD SLOAD PUSH1 0x7 DUP13 ADD SLOAD PUSH2 0x182D SWAP2 PUSH2 0x15C6 JUMP JUMPDEST SWAP3 POP PUSH2 0x1846 DUP12 PUSH1 0x9 ADD SLOAD DUP5 PUSH2 0x1525 SWAP1 SWAP2 SWAP1 PUSH4 0xFFFFFFFF AND JUMP JUMPDEST PUSH1 0xA DUP13 ADD SLOAD SWAP1 SWAP3 POP PUSH2 0x1858 SWAP1 DUP4 PUSH2 0x1E88 JUMP JUMPDEST SWAP1 POP PUSH1 0x0 PUSH2 0x1877 PUSH1 0x73 SLOAD PUSH2 0x939 PUSH1 0x72 SLOAD DUP6 PUSH2 0x1525 SWAP1 SWAP2 SWAP1 PUSH4 0xFFFFFFFF AND JUMP JUMPDEST PUSH1 0x67 SLOAD PUSH1 0x68 SLOAD PUSH1 0x40 MLOAD PUSH4 0x40C10F19 PUSH1 0xE0 SHL DUP2 MSTORE SWAP3 SWAP4 POP PUSH1 0x1 PUSH1 0x1 PUSH1 0xA0 SHL SUB SWAP2 DUP3 AND SWAP3 PUSH4 0x40C10F19 SWAP3 PUSH2 0x18AF SWAP3 AND SWAP1 DUP6 SWAP1 PUSH1 0x4 ADD PUSH2 0x27A1 JUMP JUMPDEST PUSH1 0x20 PUSH1 0x40 MLOAD DUP1 DUP4 SUB DUP2 PUSH1 0x0 DUP8 DUP1 EXTCODESIZE ISZERO DUP1 ISZERO PUSH2 0x18C9 JUMPI PUSH1 0x0 DUP1 REVERT JUMPDEST POP GAS CALL ISZERO DUP1 ISZERO PUSH2 0x18DD JUMPI RETURNDATASIZE PUSH1 0x0 DUP1 RETURNDATACOPY RETURNDATASIZE PUSH1 0x0 REVERT JUMPDEST POP POP POP POP PUSH1 0x40 MLOAD RETURNDATASIZE PUSH1 0x1F NOT PUSH1 0x1F DUP3 ADD AND DUP3 ADD DUP1 PUSH1 0x40 MSTORE POP DUP2 ADD SWAP1 PUSH2 0x1901 SWAP2 SWAP1 PUSH2 0x2495 JUMP JUMPDEST POP PUSH1 0x67 SLOAD DUP13 SLOAD PUSH1 0x1 PUSH1 0x1 PUSH1 0xA0 SHL SUB SWAP2 DUP3 AND SWAP2 PUSH4 0x40C10F19 SWAP2 AND PUSH2 0x1924 DUP6 DUP6 PUSH2 0x15C6 JUMP JUMPDEST PUSH1 0x40 MLOAD DUP4 PUSH4 0xFFFFFFFF AND PUSH1 0xE0 SHL DUP2 MSTORE PUSH1 0x4 ADD PUSH2 0x1941 SWAP3 SWAP2 SWAP1 PUSH2 0x27A1 JUMP JUMPDEST PUSH1 0x20 PUSH1 0x40 MLOAD DUP1 DUP4 SUB DUP2 PUSH1 0x0 DUP8 DUP1 EXTCODESIZE ISZERO DUP1 ISZERO PUSH2 0x195B JUMPI PUSH1 0x0 DUP1 REVERT JUMPDEST POP GAS CALL ISZERO DUP1 ISZERO PUSH2 0x196F JUMPI RETURNDATASIZE PUSH1 0x0 DUP1 RETURNDATACOPY RETURNDATASIZE PUSH1 0x0 REVERT JUMPDEST POP POP POP POP PUSH1 0x40 MLOAD RETURNDATASIZE PUSH1 0x1F NOT PUSH1 0x1F DUP3 ADD AND DUP3 ADD DUP1 PUSH1 0x40 MSTORE POP DUP2 ADD SWAP1 PUSH2 0x1993 SWAP2 SWAP1 PUSH2 0x2495 JUMP JUMPDEST POP POP PUSH2 0x1B29 JUMP JUMPDEST PUSH1 0x7 DUP12 ADD SLOAD PUSH1 0x5 DUP13 ADD SLOAD PUSH2 0x19AD SWAP2 PUSH2 0x15C6 JUMP JUMPDEST SWAP3 POP PUSH2 0x19C6 DUP12 PUSH1 0x9 ADD SLOAD DUP5 PUSH2 0x1525 SWAP1 SWAP2 SWAP1 PUSH4 0xFFFFFFFF AND JUMP JUMPDEST SWAP2 POP DUP11 PUSH1 0xA ADD SLOAD DUP3 GT ISZERO PUSH2 0x19DC JUMPI POP PUSH1 0x0 PUSH2 0x1B29 JUMP JUMPDEST PUSH1 0xA DUP12 ADD SLOAD PUSH2 0x19EB SWAP1 DUP4 PUSH2 0x15C6 JUMP JUMPDEST SWAP1 POP PUSH1 0x0 PUSH2 0x1A0A PUSH1 0x73 SLOAD PUSH2 0x939 PUSH1 0x72 SLOAD DUP6 PUSH2 0x1525 SWAP1 SWAP2 SWAP1 PUSH4 0xFFFFFFFF AND JUMP JUMPDEST PUSH1 0x67 SLOAD PUSH1 0x68 SLOAD PUSH1 0x40 MLOAD PUSH4 0x40C10F19 PUSH1 0xE0 SHL DUP2 MSTORE SWAP3 SWAP4 POP PUSH1 0x1 PUSH1 0x1 PUSH1 0xA0 SHL SUB SWAP2 DUP3 AND SWAP3 PUSH4 0x40C10F19 SWAP3 PUSH2 0x1A42 SWAP3 AND SWAP1 DUP6 SWAP1 PUSH1 0x4 ADD PUSH2 0x27A1 JUMP JUMPDEST PUSH1 0x20 PUSH1 0x40 MLOAD DUP1 DUP4 SUB DUP2 PUSH1 0x0 DUP8 DUP1 EXTCODESIZE ISZERO DUP1 ISZERO PUSH2 0x1A5C JUMPI PUSH1 0x0 DUP1 REVERT JUMPDEST POP GAS CALL ISZERO DUP1 ISZERO PUSH2 0x1A70 JUMPI RETURNDATASIZE PUSH1 0x0 DUP1 RETURNDATACOPY RETURNDATASIZE PUSH1 0x0 REVERT JUMPDEST POP POP POP POP PUSH1 0x40 MLOAD RETURNDATASIZE PUSH1 0x1F NOT PUSH1 0x1F DUP3 ADD AND DUP3 ADD DUP1 PUSH1 0x40 MSTORE POP DUP2 ADD SWAP1 PUSH2 0x1A94 SWAP2 SWAP1 PUSH2 0x2495 JUMP JUMPDEST POP PUSH1 0x67 SLOAD DUP13 SLOAD PUSH1 0x1 PUSH1 0x1 PUSH1 0xA0 SHL SUB SWAP2 DUP3 AND SWAP2 PUSH4 0x40C10F19 SWAP2 AND PUSH2 0x1AB7 DUP6 DUP6 PUSH2 0x15C6 JUMP JUMPDEST PUSH1 0x40 MLOAD DUP4 PUSH4 0xFFFFFFFF AND PUSH1 0xE0 SHL DUP2 MSTORE PUSH1 0x4 ADD PUSH2 0x1AD4 SWAP3 SWAP2 SWAP1 PUSH2 0x27A1 JUMP JUMPDEST PUSH1 0x20 PUSH1 0x40 MLOAD DUP1 DUP4 SUB DUP2 PUSH1 0x0 DUP8 DUP1 EXTCODESIZE ISZERO DUP1 ISZERO PUSH2 0x1AEE JUMPI PUSH1 0x0 DUP1 REVERT JUMPDEST POP GAS CALL ISZERO DUP1 ISZERO PUSH2 0x1B02 JUMPI RETURNDATASIZE PUSH1 0x0 DUP1 RETURNDATACOPY RETURNDATASIZE PUSH1 0x0 REVERT JUMPDEST POP POP POP POP PUSH1 0x40 MLOAD RETURNDATASIZE PUSH1 0x1F NOT PUSH1 0x1F DUP3 ADD AND DUP3 ADD DUP1 PUSH1 0x40 MSTORE POP DUP2 ADD SWAP1 PUSH2 0x1B26 SWAP2 SWAP1 PUSH2 0x2495 JUMP JUMPDEST POP POP JUMPDEST PUSH2 0x1D0B JUMP JUMPDEST DUP11 PUSH1 0x5 ADD SLOAD DUP12 PUSH1 0x7 ADD SLOAD LT ISZERO PUSH2 0x1B7C JUMPI PUSH1 0x7 DUP12 ADD SLOAD PUSH1 0x5 DUP13 ADD SLOAD PUSH2 0x1B51 SWAP2 PUSH2 0x15C6 JUMP JUMPDEST SWAP3 POP PUSH2 0x1B6A DUP12 PUSH1 0x9 ADD SLOAD DUP5 PUSH2 0x1525 SWAP1 SWAP2 SWAP1 PUSH4 0xFFFFFFFF AND JUMP JUMPDEST PUSH1 0xA DUP13 ADD SLOAD SWAP1 SWAP3 POP PUSH2 0x19EB SWAP1 DUP4 PUSH2 0x1E88 JUMP JUMPDEST PUSH1 0x5 DUP12 ADD SLOAD PUSH1 0x7 DUP13 ADD SLOAD PUSH2 0x1B8F SWAP2 PUSH2 0x15C6 JUMP JUMPDEST SWAP3 POP PUSH2 0x1BA8 DUP12 PUSH1 0x9 ADD SLOAD DUP5 PUSH2 0x1525 SWAP1 SWAP2 SWAP1 PUSH4 0xFFFFFFFF AND JUMP JUMPDEST SWAP2 POP DUP11 PUSH1 0xA ADD SLOAD DUP3 GT ISZERO PUSH2 0x1BBE JUMPI POP PUSH1 0x0 PUSH2 0x1D0B JUMP JUMPDEST PUSH1 0xA DUP12 ADD SLOAD PUSH2 0x1BCD SWAP1 DUP4 PUSH2 0x15C6 JUMP JUMPDEST SWAP1 POP PUSH1 0x0 PUSH2 0x1BEC PUSH1 0x73 SLOAD PUSH2 0x939 PUSH1 0x72 SLOAD DUP6 PUSH2 0x1525 SWAP1 SWAP2 SWAP1 PUSH4 0xFFFFFFFF AND JUMP JUMPDEST PUSH1 0x67 SLOAD PUSH1 0x68 SLOAD PUSH1 0x40 MLOAD PUSH4 0x40C10F19 PUSH1 0xE0 SHL DUP2 MSTORE SWAP3 SWAP4 POP PUSH1 0x1 PUSH1 0x1 PUSH1 0xA0 SHL SUB SWAP2 DUP3 AND SWAP3 PUSH4 0x40C10F19 SWAP3 PUSH2 0x1C24 SWAP3 AND SWAP1 DUP6 SWAP1 PUSH1 0x4 ADD PUSH2 0x27A1 JUMP JUMPDEST PUSH1 0x20 PUSH1 0x40 MLOAD DUP1 DUP4 SUB DUP2 PUSH1 0x0 DUP8 DUP1 EXTCODESIZE ISZERO DUP1 ISZERO PUSH2 0x1C3E JUMPI PUSH1 0x0 DUP1 REVERT JUMPDEST POP GAS CALL ISZERO DUP1 ISZERO PUSH2 0x1C52 JUMPI RETURNDATASIZE PUSH1 0x0 DUP1 RETURNDATACOPY RETURNDATASIZE PUSH1 0x0 REVERT JUMPDEST POP POP POP POP PUSH1 0x40 MLOAD RETURNDATASIZE PUSH1 0x1F NOT PUSH1 0x1F DUP3 ADD AND DUP3 ADD DUP1 PUSH1 0x40 MSTORE POP DUP2 ADD SWAP1 PUSH2 0x1C76 SWAP2 SWAP1 PUSH2 0x2495 JUMP JUMPDEST POP PUSH1 0x67 SLOAD DUP13 SLOAD PUSH1 0x1 PUSH1 0x1 PUSH1 0xA0 SHL SUB SWAP2 DUP3 AND SWAP2 PUSH4 0x40C10F19 SWAP2 AND PUSH2 0x1C99 DUP6 DUP6 PUSH2 0x15C6 JUMP JUMPDEST PUSH1 0x40 MLOAD DUP4 PUSH4 0xFFFFFFFF AND PUSH1 0xE0 SHL DUP2 MSTORE PUSH1 0x4 ADD PUSH2 0x1CB6 SWAP3 SWAP2 SWAP1 PUSH2 0x27A1 JUMP JUMPDEST PUSH1 0x20 PUSH1 0x40 MLOAD DUP1 DUP4 SUB DUP2 PUSH1 0x0 DUP8 DUP1 EXTCODESIZE ISZERO DUP1 ISZERO PUSH2 0x1CD0 JUMPI PUSH1 0x0 DUP1 REVERT JUMPDEST POP GAS CALL ISZERO DUP1 ISZERO PUSH2 0x1CE4 JUMPI RETURNDATASIZE PUSH1 0x0 DUP1 RETURNDATACOPY RETURNDATASIZE PUSH1 0x0 REVERT JUMPDEST POP POP POP POP PUSH1 0x40 MLOAD RETURNDATASIZE PUSH1 0x1F NOT PUSH1 0x1F DUP3 ADD AND DUP3 ADD DUP1 PUSH1 0x40 MSTORE POP DUP2 ADD SWAP1 PUSH2 0x1D08 SWAP2 SWAP1 PUSH2 0x2495 JUMP JUMPDEST POP POP JUMPDEST PUSH1 0x40 MLOAD PUSH3 0x461BCD PUSH1 0xE5 SHL DUP2 MSTORE PUSH1 0x4 ADD PUSH2 0x5F4 SWAP1 PUSH2 0x2AAB JUMP JUMPDEST PUSH1 0x33 DUP1 SLOAD PUSH1 0x1 PUSH1 0x1 PUSH1 0xA0 SHL SUB DUP4 DUP2 AND PUSH1 0x1 PUSH1 0x1 PUSH1 0xA0 SHL SUB NOT DUP4 AND DUP2 OR SWAP1 SWAP4 SSTORE PUSH1 0x40 MLOAD SWAP2 AND SWAP2 SWAP1 DUP3 SWAP1 PUSH32 0x8BE0079C531659141344CD1FD0A4F28419497F9722A3DAAFE3B4186F6B6457E0 SWAP1 PUSH1 0x0 SWAP1 LOG3 POP POP JUMP JUMPDEST PUSH1 0x0 SLOAD PUSH2 0x100 SWAP1 DIV PUSH1 0xFF AND DUP1 PUSH2 0x1D8E JUMPI POP PUSH1 0x0 SLOAD PUSH1 0xFF AND ISZERO JUMPDEST PUSH2 0x1DAA JUMPI PUSH1 0x40 MLOAD PUSH3 0x461BCD PUSH1 0xE5 SHL DUP2 MSTORE PUSH1 0x4 ADD PUSH2 0x5F4 SWAP1 PUSH2 0x293E JUMP JUMPDEST PUSH1 0x0 SLOAD PUSH2 0x100 SWAP1 DIV PUSH1 0xFF AND ISZERO DUP1 ISZERO PUSH2 0x1DD5 JUMPI PUSH1 0x0 DUP1 SLOAD PUSH1 0xFF NOT PUSH2 0xFF00 NOT SWAP1 SWAP2 AND PUSH2 0x100 OR AND PUSH1 0x1 OR SWAP1 SSTORE JUMPDEST PUSH2 0x1DDD PUSH2 0x1E94 JUMP JUMPDEST PUSH2 0x1DE5 PUSH2 0x1F07 JUMP JUMPDEST DUP1 ISZERO PUSH2 0x12D1 JUMPI PUSH1 0x0 DUP1 SLOAD PUSH2 0xFF00 NOT AND SWAP1 SSTORE POP JUMP JUMPDEST PUSH1 0x0 PUSH2 0x1E4E DUP3 PUSH1 0x40 MLOAD DUP1 PUSH1 0x40 ADD PUSH1 0x40 MSTORE DUP1 PUSH1 0x20 DUP2 MSTORE PUSH1 0x20 ADD PUSH32 0x5361666545524332303A206C6F772D6C6576656C2063616C6C206661696C6564 DUP2 MSTORE POP DUP6 PUSH1 0x1 PUSH1 0x1 PUSH1 0xA0 SHL SUB AND PUSH2 0x1F77 SWAP1 SWAP3 SWAP2 SWAP1 PUSH4 0xFFFFFFFF AND JUMP JUMPDEST DUP1 MLOAD SWAP1 SWAP2 POP ISZERO PUSH2 0x15C1 JUMPI DUP1 DUP1 PUSH1 0x20 ADD SWAP1 MLOAD DUP2 ADD SWAP1 PUSH2 0x1E6C SWAP2 SWAP1 PUSH2 0x2495 JUMP JUMPDEST PUSH2 0x15C1 JUMPI PUSH1 0x40 MLOAD PUSH3 0x461BCD PUSH1 0xE5 SHL DUP2 MSTORE PUSH1 0x4 ADD PUSH2 0x5F4 SWAP1 PUSH2 0x2B05 JUMP JUMPDEST PUSH1 0x0 PUSH2 0x1531 DUP3 DUP5 PUSH2 0x2C7B JUMP JUMPDEST PUSH1 0x0 SLOAD PUSH2 0x100 SWAP1 DIV PUSH1 0xFF AND DUP1 PUSH2 0x1EAD JUMPI POP PUSH1 0x0 SLOAD PUSH1 0xFF AND ISZERO JUMPDEST PUSH2 0x1EC9 JUMPI PUSH1 0x40 MLOAD PUSH3 0x461BCD PUSH1 0xE5 SHL DUP2 MSTORE PUSH1 0x4 ADD PUSH2 0x5F4 SWAP1 PUSH2 0x293E JUMP JUMPDEST PUSH1 0x0 SLOAD PUSH2 0x100 SWAP1 DIV PUSH1 0xFF AND ISZERO DUP1 ISZERO PUSH2 0x1DE5 JUMPI PUSH1 0x0 DUP1 SLOAD PUSH1 0xFF NOT PUSH2 0xFF00 NOT SWAP1 SWAP2 AND PUSH2 0x100 OR AND PUSH1 0x1 OR SWAP1 SSTORE DUP1 ISZERO PUSH2 0x12D1 JUMPI PUSH1 0x0 DUP1 SLOAD PUSH2 0xFF00 NOT AND SWAP1 SSTORE POP JUMP JUMPDEST PUSH1 0x0 SLOAD PUSH2 0x100 SWAP1 DIV PUSH1 0xFF AND DUP1 PUSH2 0x1F20 JUMPI POP PUSH1 0x0 SLOAD PUSH1 0xFF AND ISZERO JUMPDEST PUSH2 0x1F3C JUMPI PUSH1 0x40 MLOAD PUSH3 0x461BCD PUSH1 0xE5 SHL DUP2 MSTORE PUSH1 0x4 ADD PUSH2 0x5F4 SWAP1 PUSH2 0x293E JUMP JUMPDEST PUSH1 0x0 SLOAD PUSH2 0x100 SWAP1 DIV PUSH1 0xFF AND ISZERO DUP1 ISZERO PUSH2 0x1F67 JUMPI PUSH1 0x0 DUP1 SLOAD PUSH1 0xFF NOT PUSH2 0xFF00 NOT SWAP1 SWAP2 AND PUSH2 0x100 OR AND PUSH1 0x1 OR SWAP1 SSTORE JUMPDEST PUSH2 0x1DE5 PUSH2 0x1F72 PUSH2 0x1521 JUMP JUMPDEST PUSH2 0x1D23 JUMP JUMPDEST PUSH1 0x60 PUSH2 0x1F86 DUP5 DUP5 PUSH1 0x0 DUP6 PUSH2 0x1F8E JUMP JUMPDEST SWAP5 SWAP4 POP POP POP POP JUMP JUMPDEST PUSH1 0x60 DUP3 SELFBALANCE LT ISZERO PUSH2 0x1FB0 JUMPI PUSH1 0x40 MLOAD PUSH3 0x461BCD PUSH1 0xE5 SHL DUP2 MSTORE PUSH1 0x4 ADD PUSH2 0x5F4 SWAP1 PUSH2 0x28F8 JUMP JUMPDEST PUSH2 0x1FB9 DUP6 PUSH2 0x2043 JUMP JUMPDEST PUSH2 0x1FD5 JUMPI PUSH1 0x40 MLOAD PUSH3 0x461BCD PUSH1 0xE5 SHL DUP2 MSTORE PUSH1 0x4 ADD PUSH2 0x5F4 SWAP1 PUSH2 0x2A2E JUMP JUMPDEST PUSH1 0x0 DUP1 DUP7 PUSH1 0x1 PUSH1 0x1 PUSH1 0xA0 SHL SUB AND DUP6 DUP8 PUSH1 0x40 MLOAD PUSH2 0x1FF1 SWAP2 SWAP1 PUSH2 0x274D JUMP JUMPDEST PUSH1 0x0 PUSH1 0x40 MLOAD DUP1 DUP4 SUB DUP2 DUP6 DUP8 GAS CALL SWAP3 POP POP POP RETURNDATASIZE DUP1 PUSH1 0x0 DUP2 EQ PUSH2 0x202E JUMPI PUSH1 0x40 MLOAD SWAP2 POP PUSH1 0x1F NOT PUSH1 0x3F RETURNDATASIZE ADD AND DUP3 ADD PUSH1 0x40 MSTORE RETURNDATASIZE DUP3 MSTORE RETURNDATASIZE PUSH1 0x0 PUSH1 0x20 DUP5 ADD RETURNDATACOPY PUSH2 0x2033 JUMP JUMPDEST PUSH1 0x60 SWAP2 POP JUMPDEST POP SWAP2 POP SWAP2 POP PUSH2 0x115F DUP3 DUP3 DUP7 PUSH2 0x2049 JUMP JUMPDEST EXTCODESIZE ISZERO ISZERO SWAP1 JUMP JUMPDEST PUSH1 0x60 DUP4 ISZERO PUSH2 0x2058 JUMPI POP DUP2 PUSH2 0x1531 JUMP JUMPDEST DUP3 MLOAD ISZERO PUSH2 0x2068 JUMPI DUP3 MLOAD DUP1 DUP5 PUSH1 0x20 ADD REVERT JUMPDEST DUP2 PUSH1 0x40 MLOAD PUSH3 0x461BCD PUSH1 0xE5 SHL DUP2 MSTORE PUSH1 0x4 ADD PUSH2 0x5F4 SWAP2 SWAP1 PUSH2 0x2809 JUMP JUMPDEST DUP3 DUP1 SLOAD PUSH2 0x208E SWAP1 PUSH2 0x2D15 JUMP JUMPDEST SWAP1 PUSH1 0x0 MSTORE PUSH1 0x20 PUSH1 0x0 KECCAK256 SWAP1 PUSH1 0x1F ADD PUSH1 0x20 SWAP1 DIV DUP2 ADD SWAP3 DUP3 PUSH2 0x20B0 JUMPI PUSH1 0x0 DUP6 SSTORE PUSH2 0x20F6 JUMP JUMPDEST DUP3 PUSH1 0x1F LT PUSH2 0x20C9 JUMPI DUP1 MLOAD PUSH1 0xFF NOT AND DUP4 DUP1 ADD OR DUP6 SSTORE PUSH2 0x20F6 JUMP JUMPDEST DUP3 DUP1 ADD PUSH1 0x1 ADD DUP6 SSTORE DUP3 ISZERO PUSH2 0x20F6 JUMPI SWAP2 DUP3 ADD JUMPDEST DUP3 DUP2 GT ISZERO PUSH2 0x20F6 JUMPI DUP3 MLOAD DUP3 SSTORE SWAP2 PUSH1 0x20 ADD SWAP2 SWAP1 PUSH1 0x1 ADD SWAP1 PUSH2 0x20DB JUMP JUMPDEST POP PUSH2 0x2102 SWAP3 SWAP2 POP PUSH2 0x2169 JUMP JUMPDEST POP SWAP1 JUMP JUMPDEST PUSH1 0x40 MLOAD DUP1 PUSH2 0x160 ADD PUSH1 0x40 MSTORE DUP1 PUSH1 0x0 PUSH1 0x1 PUSH1 0x1 PUSH1 0xA0 SHL SUB AND DUP2 MSTORE PUSH1 0x20 ADD PUSH1 0x0 DUP2 MSTORE PUSH1 0x20 ADD PUSH1 0x60 DUP2 MSTORE PUSH1 0x20 ADD PUSH1 0x0 DUP2 MSTORE PUSH1 0x20 ADD PUSH1 0x0 DUP2 MSTORE PUSH1 0x20 ADD PUSH1 0x0 DUP2 MSTORE PUSH1 0x20 ADD PUSH1 0x0 DUP2 MSTORE PUSH1 0x20 ADD PUSH1 0x0 DUP2 MSTORE PUSH1 0x20 ADD PUSH1 0x0 DUP2 MSTORE PUSH1 0x20 ADD PUSH1 0x0 DUP2 MSTORE PUSH1 0x20 ADD PUSH1 0x0 DUP2 MSTORE POP SWAP1 JUMP JUMPDEST JUMPDEST DUP1 DUP3 GT ISZERO PUSH2 0x2102 JUMPI PUSH1 0x0 DUP2 SSTORE PUSH1 0x1 ADD PUSH2 0x216A JUMP JUMPDEST DUP1 CALLDATALOAD PUSH2 0xCCA DUP2 PUSH2 0x2D97 JUMP JUMPDEST PUSH1 0x0 DUP3 PUSH1 0x1F DUP4 ADD SLT PUSH2 0x2199 JUMPI DUP1 DUP2 REVERT JUMPDEST DUP2 CALLDATALOAD PUSH1 0x20 PUSH2 0x21AE PUSH2 0x21A9 DUP4 PUSH2 0x2C57 JUMP JUMPDEST PUSH2 0x2C2D JUMP JUMPDEST DUP3 DUP2 MSTORE DUP2 DUP2 ADD SWAP1 DUP6 DUP4 ADD DUP6 JUMPDEST DUP6 DUP2 LT ISZERO PUSH2 0x21E3 JUMPI PUSH2 0x21D1 DUP10 DUP7 DUP5 CALLDATALOAD DUP12 ADD ADD PUSH2 0x224A JUMP JUMPDEST DUP5 MSTORE SWAP3 DUP5 ADD SWAP3 SWAP1 DUP5 ADD SWAP1 PUSH1 0x1 ADD PUSH2 0x21BA JUMP JUMPDEST POP SWAP1 SWAP8 SWAP7 POP POP POP POP POP POP POP JUMP JUMPDEST PUSH1 0x0 DUP3 PUSH1 0x1F DUP4 ADD SLT PUSH2 0x2200 JUMPI DUP1 DUP2 REVERT JUMPDEST DUP2 CALLDATALOAD PUSH1 0x20 PUSH2 0x2210 PUSH2 0x21A9 DUP4 PUSH2 0x2C57 JUMP JUMPDEST DUP3 DUP2 MSTORE DUP2 DUP2 ADD SWAP1 DUP6 DUP4 ADD DUP4 DUP6 MUL DUP8 ADD DUP5 ADD DUP9 LT ISZERO PUSH2 0x222C JUMPI DUP6 DUP7 REVERT JUMPDEST DUP6 JUMPDEST DUP6 DUP2 LT ISZERO PUSH2 0x21E3 JUMPI DUP2 CALLDATALOAD DUP5 MSTORE SWAP3 DUP5 ADD SWAP3 SWAP1 DUP5 ADD SWAP1 PUSH1 0x1 ADD PUSH2 0x222E JUMP JUMPDEST PUSH1 0x0 DUP3 PUSH1 0x1F DUP4 ADD SLT PUSH2 0x225A JUMPI DUP1 DUP2 REVERT JUMPDEST DUP2 CALLDATALOAD PUSH8 0xFFFFFFFFFFFFFFFF DUP2 GT ISZERO PUSH2 0x2274 JUMPI PUSH2 0x2274 PUSH2 0x2D81 JUMP JUMPDEST PUSH2 0x2287 PUSH1 0x1F DUP3 ADD PUSH1 0x1F NOT AND PUSH1 0x20 ADD PUSH2 0x2C2D JUMP JUMPDEST DUP2 DUP2 MSTORE DUP5 PUSH1 0x20 DUP4 DUP7 ADD ADD GT ISZERO PUSH2 0x229B JUMPI DUP3 DUP4 REVERT JUMPDEST DUP2 PUSH1 0x20 DUP6 ADD PUSH1 0x20 DUP4 ADD CALLDATACOPY SWAP1 DUP2 ADD PUSH1 0x20 ADD SWAP2 SWAP1 SWAP2 MSTORE SWAP3 SWAP2 POP POP JUMP JUMPDEST PUSH1 0x0 PUSH1 0x20 DUP3 DUP5 SUB SLT ISZERO PUSH2 0x22C6 JUMPI DUP1 DUP2 REVERT JUMPDEST DUP2 CALLDATALOAD PUSH2 0x1531 DUP2 PUSH2 0x2D97 JUMP JUMPDEST PUSH1 0x0 DUP1 PUSH1 0x40 DUP4 DUP6 SUB SLT ISZERO PUSH2 0x22E3 JUMPI DUP1 DUP2 REVERT JUMPDEST DUP3 CALLDATALOAD PUSH2 0x22EE DUP2 PUSH2 0x2D97 JUMP JUMPDEST SWAP2 POP PUSH1 0x20 DUP4 ADD CALLDATALOAD PUSH2 0x22FE DUP2 PUSH2 0x2DAC JUMP JUMPDEST DUP1 SWAP2 POP POP SWAP3 POP SWAP3 SWAP1 POP JUMP JUMPDEST PUSH1 0x0 DUP1 PUSH1 0x0 DUP1 PUSH1 0x80 DUP6 DUP8 SUB SLT ISZERO PUSH2 0x231E JUMPI DUP2 DUP3 REVERT JUMPDEST DUP5 CALLDATALOAD PUSH2 0x2329 DUP2 PUSH2 0x2D97 JUMP JUMPDEST SWAP4 POP PUSH1 0x20 DUP6 ADD CALLDATALOAD PUSH2 0x2339 DUP2 PUSH2 0x2D97 JUMP JUMPDEST SWAP3 POP PUSH1 0x40 DUP6 ADD CALLDATALOAD PUSH2 0x2349 DUP2 PUSH2 0x2D97 JUMP JUMPDEST SWAP2 POP PUSH1 0x60 DUP6 ADD CALLDATALOAD PUSH2 0x2359 DUP2 PUSH2 0x2D97 JUMP JUMPDEST SWAP4 SWAP7 SWAP3 SWAP6 POP SWAP1 SWAP4 POP POP JUMP JUMPDEST PUSH1 0x0 DUP1 PUSH1 0x40 DUP4 DUP6 SUB SLT ISZERO PUSH2 0x2376 JUMPI DUP2 DUP3 REVERT JUMPDEST DUP3 CALLDATALOAD PUSH2 0x2381 DUP2 PUSH2 0x2D97 JUMP JUMPDEST SWAP5 PUSH1 0x20 SWAP4 SWAP1 SWAP4 ADD CALLDATALOAD SWAP4 POP POP POP JUMP JUMPDEST PUSH1 0x0 DUP1 PUSH1 0x0 DUP1 PUSH1 0x80 DUP6 DUP8 SUB SLT ISZERO PUSH2 0x23A4 JUMPI DUP4 DUP5 REVERT JUMPDEST DUP5 CALLDATALOAD PUSH2 0x23AF DUP2 PUSH2 0x2D97 JUMP JUMPDEST SWAP7 PUSH1 0x20 DUP7 ADD CALLDATALOAD SWAP7 POP PUSH1 0x40 DUP7 ADD CALLDATALOAD SWAP6 PUSH1 0x60 ADD CALLDATALOAD SWAP5 POP SWAP3 POP POP POP JUMP JUMPDEST PUSH1 0x0 DUP1 PUSH1 0x0 DUP1 PUSH1 0x0 PUSH1 0xA0 DUP7 DUP9 SUB SLT ISZERO PUSH2 0x23E0 JUMPI DUP3 DUP4 REVERT JUMPDEST DUP6 CALLDATALOAD PUSH8 0xFFFFFFFFFFFFFFFF DUP1 DUP3 GT ISZERO PUSH2 0x23F7 JUMPI DUP5 DUP6 REVERT JUMPDEST PUSH2 0x2403 DUP10 DUP4 DUP11 ADD PUSH2 0x21F0 JUMP JUMPDEST SWAP7 POP PUSH1 0x20 DUP9 ADD CALLDATALOAD SWAP2 POP DUP1 DUP3 GT ISZERO PUSH2 0x2418 JUMPI DUP5 DUP6 REVERT JUMPDEST PUSH2 0x2424 DUP10 DUP4 DUP11 ADD PUSH2 0x21F0 JUMP JUMPDEST SWAP6 POP PUSH1 0x40 DUP9 ADD CALLDATALOAD SWAP2 POP DUP1 DUP3 GT ISZERO PUSH2 0x2439 JUMPI DUP5 DUP6 REVERT JUMPDEST PUSH2 0x2445 DUP10 DUP4 DUP11 ADD PUSH2 0x2189 JUMP JUMPDEST SWAP5 POP PUSH1 0x60 DUP9 ADD CALLDATALOAD SWAP2 POP DUP1 DUP3 GT ISZERO PUSH2 0x245A JUMPI DUP3 DUP4 REVERT JUMPDEST PUSH2 0x2466 DUP10 DUP4 DUP11 ADD PUSH2 0x21F0 JUMP JUMPDEST SWAP4 POP PUSH1 0x80 DUP9 ADD CALLDATALOAD SWAP2 POP DUP1 DUP3 GT ISZERO PUSH2 0x247B JUMPI DUP3 DUP4 REVERT JUMPDEST POP PUSH2 0x2488 DUP9 DUP3 DUP10 ADD PUSH2 0x2189 JUMP JUMPDEST SWAP2 POP POP SWAP3 SWAP6 POP SWAP3 SWAP6 SWAP1 SWAP4 POP JUMP JUMPDEST PUSH1 0x0 PUSH1 0x20 DUP3 DUP5 SUB SLT ISZERO PUSH2 0x24A6 JUMPI DUP1 DUP2 REVERT JUMPDEST DUP2 MLOAD PUSH2 0x1531 DUP2 PUSH2 0x2DAC JUMP JUMPDEST PUSH1 0x0 PUSH1 0x20 DUP3 DUP5 SUB SLT ISZERO PUSH2 0x24C2 JUMPI DUP1 DUP2 REVERT JUMPDEST POP CALLDATALOAD SWAP2 SWAP1 POP JUMP JUMPDEST PUSH1 0x0 PUSH1 0x20 DUP3 DUP5 SUB SLT ISZERO PUSH2 0x24DA JUMPI DUP1 DUP2 REVERT JUMPDEST POP MLOAD SWAP2 SWAP1 POP JUMP JUMPDEST PUSH1 0x0 DUP1 PUSH1 0x0 DUP1 PUSH1 0x0 DUP1 PUSH1 0x0 DUP1 PUSH1 0x0 DUP1 PUSH1 0x0 DUP1 PUSH2 0x180 DUP14 DUP16 SUB SLT ISZERO PUSH2 0x2503 JUMPI DUP10 DUP11 REVERT JUMPDEST DUP13 CALLDATALOAD SWAP12 POP PUSH2 0x2513 PUSH1 0x20 DUP15 ADD PUSH2 0x217E JUMP JUMPDEST SWAP11 POP PUSH1 0x40 DUP14 ADD CALLDATALOAD SWAP10 POP PUSH8 0xFFFFFFFFFFFFFFFF PUSH1 0x60 DUP15 ADD CALLDATALOAD GT ISZERO PUSH2 0x2534 JUMPI DUP7 DUP8 REVERT JUMPDEST PUSH2 0x2544 DUP15 PUSH1 0x60 DUP16 ADD CALLDATALOAD DUP16 ADD PUSH2 0x224A JUMP JUMPDEST SWAP12 SWAP15 SWAP11 SWAP14 POP SWAP9 SWAP12 PUSH1 0x80 DUP2 ADD CALLDATALOAD SWAP11 PUSH1 0xA0 DUP3 ADD CALLDATALOAD SWAP11 POP PUSH1 0xC0 DUP3 ADD CALLDATALOAD SWAP10 POP PUSH1 0xE0 DUP3 ADD CALLDATALOAD SWAP9 POP PUSH2 0x100 DUP3 ADD CALLDATALOAD SWAP8 POP PUSH2 0x120 DUP3 ADD CALLDATALOAD SWAP7 POP PUSH2 0x140 DUP3 ADD CALLDATALOAD SWAP6 POP PUSH2 0x160 SWAP1 SWAP2 ADD CALLDATALOAD SWAP4 POP SWAP2 POP POP JUMP JUMPDEST PUSH1 0x0 DUP1 PUSH1 0x0 DUP1 PUSH1 0x0 PUSH1 0xA0 DUP7 DUP9 SUB SLT ISZERO PUSH2 0x25A3 JUMPI DUP3 DUP4 REVERT JUMPDEST DUP6 CALLDATALOAD SWAP5 POP PUSH1 0x20 DUP7 ADD CALLDATALOAD SWAP4 POP PUSH1 0x40 DUP7 ADD CALLDATALOAD PUSH8 0xFFFFFFFFFFFFFFFF DUP1 DUP3 GT ISZERO PUSH2 0x25C8 JUMPI DUP5 DUP6 REVERT JUMPDEST PUSH2 0x25D4 DUP10 DUP4 DUP11 ADD PUSH2 0x224A JUMP JUMPDEST SWAP5 POP PUSH1 0x60 DUP9 ADD CALLDATALOAD SWAP4 POP PUSH1 0x80 DUP9 ADD CALLDATALOAD SWAP2 POP DUP1 DUP3 GT ISZERO PUSH2 0x25F0 JUMPI DUP3 DUP4 REVERT JUMPDEST POP PUSH2 0x2488 DUP9 DUP3 DUP10 ADD PUSH2 0x224A JUMP JUMPDEST PUSH1 0x0 DUP1 PUSH1 0x0 DUP1 PUSH1 0x0 DUP1 PUSH1 0xC0 DUP8 DUP10 SUB SLT ISZERO PUSH2 0x2615 JUMPI DUP4 DUP5 REVERT JUMPDEST DUP7 CALLDATALOAD SWAP6 POP PUSH1 0x20 DUP8 ADD CALLDATALOAD SWAP5 POP PUSH1 0x40 DUP8 ADD CALLDATALOAD PUSH8 0xFFFFFFFFFFFFFFFF DUP1 DUP3 GT ISZERO PUSH2 0x263A JUMPI DUP6 DUP7 REVERT JUMPDEST PUSH2 0x2646 DUP11 DUP4 DUP12 ADD PUSH2 0x224A JUMP JUMPDEST SWAP6 POP PUSH1 0x60 DUP10 ADD CALLDATALOAD SWAP5 POP PUSH1 0x80 DUP10 ADD CALLDATALOAD SWAP2 POP DUP1 DUP3 GT ISZERO PUSH2 0x2662 JUMPI DUP4 DUP5 REVERT JUMPDEST POP PUSH2 0x266F DUP10 DUP3 DUP11 ADD PUSH2 0x224A JUMP JUMPDEST SWAP3 POP POP PUSH1 0xA0 DUP8 ADD CALLDATALOAD SWAP1 POP SWAP3 SWAP6 POP SWAP3 SWAP6 POP SWAP3 SWAP6 JUMP JUMPDEST PUSH1 0x0 DUP1 PUSH1 0x0 DUP1 PUSH1 0x0 DUP1 PUSH1 0x0 PUSH1 0xE0 DUP9 DUP11 SUB SLT ISZERO PUSH2 0x269D JUMPI DUP1 DUP2 REVERT JUMPDEST DUP8 CALLDATALOAD SWAP7 POP PUSH1 0x20 DUP9 ADD CALLDATALOAD SWAP6 POP PUSH1 0x40 DUP9 ADD CALLDATALOAD SWAP5 POP PUSH1 0x60 DUP9 ADD CALLDATALOAD PUSH8 0xFFFFFFFFFFFFFFFF DUP1 DUP3 GT ISZERO PUSH2 0x26C9 JUMPI DUP3 DUP4 REVERT JUMPDEST PUSH2 0x26D5 DUP12 DUP4 DUP13 ADD PUSH2 0x224A JUMP JUMPDEST SWAP6 POP PUSH1 0x80 DUP11 ADD CALLDATALOAD SWAP5 POP PUSH1 0xA0 DUP11 ADD CALLDATALOAD SWAP4 POP PUSH1 0xC0 DUP11 ADD CALLDATALOAD SWAP2 POP DUP1 DUP3 GT ISZERO PUSH2 0x26F8 JUMPI DUP3 DUP4 REVERT JUMPDEST POP PUSH2 0x2705 DUP11 DUP3 DUP12 ADD PUSH2 0x224A JUMP JUMPDEST SWAP2 POP POP SWAP3 SWAP6 SWAP9 SWAP2 SWAP5 SWAP8 POP SWAP3 SWAP6 POP JUMP JUMPDEST PUSH1 0x1 PUSH1 0x1 PUSH1 0xA0 SHL SUB AND SWAP1 MSTORE JUMP JUMPDEST PUSH1 0x0 DUP2 MLOAD DUP1 DUP5 MSTORE PUSH2 0x2739 DUP2 PUSH1 0x20 DUP7 ADD PUSH1 0x20 DUP7 ADD PUSH2 0x2CE9 JUMP JUMPDEST PUSH1 0x1F ADD PUSH1 0x1F NOT AND SWAP3 SWAP1 SWAP3 ADD PUSH1 0x20 ADD SWAP3 SWAP2 POP POP JUMP JUMPDEST PUSH1 0x0 DUP3 MLOAD PUSH2 0x275F DUP2 DUP5 PUSH1 0x20 DUP8 ADD PUSH2 0x2CE9 JUMP JUMPDEST SWAP2 SWAP1 SWAP2 ADD SWAP3 SWAP2 POP POP JUMP JUMPDEST PUSH1 0x1 PUSH1 0x1 PUSH1 0xA0 SHL SUB SWAP2 SWAP1 SWAP2 AND DUP2 MSTORE PUSH1 0x20 ADD SWAP1 JUMP JUMPDEST PUSH1 0x1 PUSH1 0x1 PUSH1 0xA0 SHL SUB SWAP4 DUP5 AND DUP2 MSTORE SWAP2 SWAP1 SWAP3 AND PUSH1 0x20 DUP3 ADD MSTORE PUSH1 0x40 DUP2 ADD SWAP2 SWAP1 SWAP2 MSTORE PUSH1 0x60 ADD SWAP1 JUMP JUMPDEST PUSH1 0x1 PUSH1 0x1 PUSH1 0xA0 SHL SUB SWAP3 SWAP1 SWAP3 AND DUP3 MSTORE PUSH1 0x20 DUP3 ADD MSTORE PUSH1 0x40 ADD SWAP1 JUMP JUMPDEST PUSH1 0x20 DUP1 DUP3 MSTORE DUP3 MLOAD DUP3 DUP3 ADD DUP2 SWAP1 MSTORE PUSH1 0x0 SWAP2 SWAP1 DUP5 DUP3 ADD SWAP1 PUSH1 0x40 DUP6 ADD SWAP1 DUP5 JUMPDEST DUP2 DUP2 LT ISZERO PUSH2 0x27F2 JUMPI DUP4 MLOAD DUP4 MSTORE SWAP3 DUP5 ADD SWAP3 SWAP2 DUP5 ADD SWAP2 PUSH1 0x1 ADD PUSH2 0x27D6 JUMP JUMPDEST POP SWAP1 SWAP7 SWAP6 POP POP POP POP POP POP JUMP JUMPDEST SWAP1 ISZERO ISZERO DUP2 MSTORE PUSH1 0x20 ADD SWAP1 JUMP JUMPDEST PUSH1 0x0 PUSH1 0x20 DUP3 MSTORE PUSH2 0x1531 PUSH1 0x20 DUP4 ADD DUP5 PUSH2 0x2721 JUMP JUMPDEST PUSH1 0x20 DUP1 DUP3 MSTORE PUSH1 0x14 SWAP1 DUP3 ADD MSTORE PUSH20 0x1BDC99195C88191BD95CC81B9BDD08195E1A5CDD PUSH1 0x62 SHL PUSH1 0x40 DUP3 ADD MSTORE PUSH1 0x60 ADD SWAP1 JUMP JUMPDEST PUSH1 0x20 DUP1 DUP3 MSTORE PUSH1 0x26 SWAP1 DUP3 ADD MSTORE PUSH32 0x4F776E61626C653A206E6577206F776E657220697320746865207A65726F2061 PUSH1 0x40 DUP3 ADD MSTORE PUSH6 0x646472657373 PUSH1 0xD0 SHL PUSH1 0x60 DUP3 ADD MSTORE PUSH1 0x80 ADD SWAP1 JUMP JUMPDEST PUSH1 0x20 DUP1 DUP3 MSTORE PUSH1 0xA SWAP1 DUP3 ADD MSTORE PUSH10 0x37B930B1B6329032B939 PUSH1 0xB1 SHL PUSH1 0x40 DUP3 ADD MSTORE PUSH1 0x60 ADD SWAP1 JUMP JUMPDEST PUSH1 0x20 DUP1 DUP3 MSTORE PUSH1 0x24 SWAP1 DUP3 ADD MSTORE PUSH32 0x6578656375746F723A2063616C6C6572206973206E6F74207468652065786563 PUSH1 0x40 DUP3 ADD MSTORE PUSH4 0x3ABA37B9 PUSH1 0xE1 SHL PUSH1 0x60 DUP3 ADD MSTORE PUSH1 0x80 ADD SWAP1 JUMP JUMPDEST PUSH1 0x20 DUP1 DUP3 MSTORE PUSH1 0x26 SWAP1 DUP3 ADD MSTORE PUSH32 0x416464726573733A20696E73756666696369656E742062616C616E636520666F PUSH1 0x40 DUP3 ADD MSTORE PUSH6 0x1C8818D85B1B PUSH1 0xD2 SHL PUSH1 0x60 DUP3 ADD MSTORE PUSH1 0x80 ADD SWAP1 JUMP JUMPDEST PUSH1 0x20 DUP1 DUP3 MSTORE PUSH1 0x2E SWAP1 DUP3 ADD MSTORE PUSH32 0x496E697469616C697A61626C653A20636F6E747261637420697320616C726561 PUSH1 0x40 DUP3 ADD MSTORE PUSH14 0x191E481A5B9A5D1A585B1A5E9959 PUSH1 0x92 SHL PUSH1 0x60 DUP3 ADD MSTORE PUSH1 0x80 ADD SWAP1 JUMP JUMPDEST PUSH1 0x20 DUP1 DUP3 MSTORE PUSH1 0x23 SWAP1 DUP3 ADD MSTORE PUSH32 0x546865207472616E73616374696F6E20616D6F756E7420697320746F6F20736D PUSH1 0x40 DUP3 ADD MSTORE PUSH3 0x185B1B PUSH1 0xEA SHL PUSH1 0x60 DUP3 ADD MSTORE PUSH1 0x80 ADD SWAP1 JUMP JUMPDEST PUSH1 0x20 DUP1 DUP3 MSTORE PUSH1 0x10 SWAP1 DUP3 ADD MSTORE PUSH16 0x155CD95C881A5CC818985B9ADC9D5C1D PUSH1 0x82 SHL PUSH1 0x40 DUP3 ADD MSTORE PUSH1 0x60 ADD SWAP1 JUMP JUMPDEST PUSH1 0x20 DUP1 DUP3 MSTORE DUP2 DUP2 ADD MSTORE PUSH32 0x4F776E61626C653A2063616C6C6572206973206E6F7420746865206F776E6572 PUSH1 0x40 DUP3 ADD MSTORE PUSH1 0x60 ADD SWAP1 JUMP JUMPDEST PUSH1 0x20 DUP1 DUP3 MSTORE PUSH1 0x1D SWAP1 DUP3 ADD MSTORE PUSH32 0x416464726573733A2063616C6C20746F206E6F6E2D636F6E7472616374000000 PUSH1 0x40 DUP3 ADD MSTORE PUSH1 0x60 ADD SWAP1 JUMP JUMPDEST PUSH1 0x20 DUP1 DUP3 MSTORE PUSH1 0xA SWAP1 DUP3 ADD MSTORE PUSH10 0x3632B733BA341032B939 PUSH1 0xB1 SHL PUSH1 0x40 DUP3 ADD MSTORE PUSH1 0x60 ADD SWAP1 JUMP JUMPDEST PUSH1 0x20 DUP1 DUP3 MSTORE PUSH1 0x8 SWAP1 DUP3 ADD MSTORE PUSH8 0x3AB9B2B91032B939 PUSH1 0xC1 SHL PUSH1 0x40 DUP3 ADD MSTORE PUSH1 0x60 ADD SWAP1 JUMP JUMPDEST PUSH1 0x20 DUP1 DUP3 MSTORE PUSH1 0x1F SWAP1 DUP3 ADD MSTORE PUSH32 0x32323232323266616C736566616C736566616C736566616C736566616C736500 PUSH1 0x40 DUP3 ADD MSTORE PUSH1 0x60 ADD SWAP1 JUMP JUMPDEST PUSH1 0x20 DUP1 DUP3 MSTORE PUSH1 0x9 SWAP1 DUP3 ADD MSTORE PUSH9 0x39BA30BA329032B939 PUSH1 0xB9 SHL PUSH1 0x40 DUP3 ADD MSTORE PUSH1 0x60 ADD SWAP1 JUMP JUMPDEST PUSH1 0x20 DUP1 DUP3 MSTORE PUSH1 0x2A SWAP1 DUP3 ADD MSTORE PUSH32 0x5361666545524332303A204552433230206F7065726174696F6E20646964206E PUSH1 0x40 DUP3 ADD MSTORE PUSH10 0x1BDD081CDD58D8D95959 PUSH1 0xB2 SHL PUSH1 0x60 DUP3 ADD MSTORE PUSH1 0x80 ADD SWAP1 JUMP JUMPDEST PUSH1 0x0 PUSH1 0x20 DUP3 MSTORE PUSH2 0x2B63 PUSH1 0x20 DUP4 ADD DUP5 MLOAD PUSH2 0x2714 JUMP JUMPDEST PUSH1 0x20 DUP4 ADD MLOAD PUSH1 0x40 DUP4 ADD MSTORE PUSH1 0x40 DUP4 ADD MLOAD PUSH2 0x160 DUP1 PUSH1 0x60 DUP6 ADD MSTORE PUSH2 0x2B89 PUSH2 0x180 DUP6 ADD DUP4 PUSH2 0x2721 JUMP JUMPDEST SWAP2 POP PUSH1 0x60 DUP6 ADD MLOAD PUSH1 0x80 DUP6 ADD MSTORE PUSH1 0x80 DUP6 ADD MLOAD PUSH1 0xA0 DUP6 ADD MSTORE PUSH1 0xA0 DUP6 ADD MLOAD PUSH1 0xC0 DUP6 ADD MSTORE PUSH1 0xC0 DUP6 ADD MLOAD PUSH1 0xE0 DUP6 ADD MSTORE PUSH1 0xE0 DUP6 ADD MLOAD PUSH2 0x100 DUP2 DUP2 DUP8 ADD MSTORE DUP1 DUP8 ADD MLOAD SWAP2 POP POP PUSH2 0x120 DUP2 DUP2 DUP8 ADD MSTORE DUP1 DUP8 ADD MLOAD SWAP2 POP POP PUSH2 0x140 DUP2 DUP2 DUP8 ADD MSTORE DUP1 DUP8 ADD MLOAD DUP4 DUP8 ADD MSTORE POP POP POP DUP1 SWAP2 POP POP SWAP3 SWAP2 POP POP JUMP JUMPDEST SWAP1 DUP2 MSTORE PUSH1 0x20 ADD SWAP1 JUMP JUMPDEST PUSH1 0x0 DUP6 DUP3 MSTORE DUP5 PUSH1 0x20 DUP4 ADD MSTORE PUSH1 0x80 PUSH1 0x40 DUP4 ADD MSTORE PUSH2 0x2C1B PUSH1 0x80 DUP4 ADD DUP6 PUSH2 0x2721 JUMP JUMPDEST DUP3 DUP2 SUB PUSH1 0x60 DUP5 ADD MSTORE PUSH2 0x115F DUP2 DUP6 PUSH2 0x2721 JUMP JUMPDEST PUSH1 0x40 MLOAD DUP2 DUP2 ADD PUSH8 0xFFFFFFFFFFFFFFFF DUP2 GT DUP3 DUP3 LT OR ISZERO PUSH2 0x2C4F JUMPI PUSH2 0x2C4F PUSH2 0x2D81 JUMP JUMPDEST PUSH1 0x40 MSTORE SWAP2 SWAP1 POP JUMP JUMPDEST PUSH1 0x0 PUSH8 0xFFFFFFFFFFFFFFFF DUP3 GT ISZERO PUSH2 0x2C71 JUMPI PUSH2 0x2C71 PUSH2 0x2D81 JUMP JUMPDEST POP PUSH1 0x20 SWAP1 DUP2 MUL ADD SWAP1 JUMP JUMPDEST PUSH1 0x0 DUP3 NOT DUP3 GT ISZERO PUSH2 0x2C8E JUMPI PUSH2 0x2C8E PUSH2 0x2D6B JUMP JUMPDEST POP ADD SWAP1 JUMP JUMPDEST PUSH1 0x0 DUP3 PUSH2 0x2CAE JUMPI PUSH4 0x4E487B71 PUSH1 0xE0 SHL DUP2 MSTORE PUSH1 0x12 PUSH1 0x4 MSTORE PUSH1 0x24 DUP2 REVERT JUMPDEST POP DIV SWAP1 JUMP JUMPDEST PUSH1 0x0 DUP2 PUSH1 0x0 NOT DIV DUP4 GT DUP3 ISZERO ISZERO AND ISZERO PUSH2 0x2CCD JUMPI PUSH2 0x2CCD PUSH2 0x2D6B JUMP JUMPDEST POP MUL SWAP1 JUMP JUMPDEST PUSH1 0x0 DUP3 DUP3 LT ISZERO PUSH2 0x2CE4 JUMPI PUSH2 0x2CE4 PUSH2 0x2D6B JUMP JUMPDEST POP SUB SWAP1 JUMP JUMPDEST PUSH1 0x0 JUMPDEST DUP4 DUP2 LT ISZERO PUSH2 0x2D04 JUMPI DUP2 DUP2 ADD MLOAD DUP4 DUP3 ADD MSTORE PUSH1 0x20 ADD PUSH2 0x2CEC JUMP JUMPDEST DUP4 DUP2 GT ISZERO PUSH2 0x1590 JUMPI POP POP PUSH1 0x0 SWAP2 ADD MSTORE JUMP JUMPDEST PUSH1 0x2 DUP2 DIV PUSH1 0x1 DUP3 AND DUP1 PUSH2 0x2D29 JUMPI PUSH1 0x7F DUP3 AND SWAP2 POP JUMPDEST PUSH1 0x20 DUP3 LT DUP2 EQ ISZERO PUSH2 0x2D4A JUMPI PUSH4 0x4E487B71 PUSH1 0xE0 SHL PUSH1 0x0 MSTORE PUSH1 0x22 PUSH1 0x4 MSTORE PUSH1 0x24 PUSH1 0x0 REVERT JUMPDEST POP SWAP2 SWAP1 POP JUMP JUMPDEST PUSH1 0x0 PUSH1 0x0 NOT DUP3 EQ ISZERO PUSH2 0x2D64 JUMPI PUSH2 0x2D64 PUSH2 0x2D6B JUMP JUMPDEST POP PUSH1 0x1 ADD SWAP1 JUMP JUMPDEST PUSH4 0x4E487B71 PUSH1 0xE0 SHL PUSH1 0x0 MSTORE PUSH1 0x11 PUSH1 0x4 MSTORE PUSH1 0x24 PUSH1 0x0 REVERT JUMPDEST PUSH4 0x4E487B71 PUSH1 0xE0 SHL PUSH1 0x0 MSTORE PUSH1 0x41 PUSH1 0x4 MSTORE PUSH1 0x24 PUSH1 0x0 REVERT JUMPDEST PUSH1 0x1 PUSH1 0x1 PUSH1 0xA0 SHL SUB DUP2 AND DUP2 EQ PUSH2 0x12D1 JUMPI PUSH1 0x0 DUP1 REVERT JUMPDEST DUP1 ISZERO ISZERO DUP2 EQ PUSH2 0x12D1 JUMPI PUSH1 0x0 DUP1 REVERT INVALID LOG2 PUSH5 0x6970667358 0x22 SLT KECCAK256 0xC8 0xD9 0xE1 PUSH13 0xAAA54BC6B0018C42DA0C0020C2 0xCF 0xE0 0xF 0xCC 0xC6 DUP6 XOR PUSH31 0x2EB54C05BBB46464736F6C6343000800003300000000000000000000000000 "
				},
				"gasEstimates": {
					"creation": {
						"codeDepositCost": "2352000",
						"executionCost": "2523",
						"totalCost": "2354523"
					},
					"external": {
						"OrderIndex()": "1094",
						"PRECISION()": "1095",
						"adjustPosition(uint256,uint256,string,uint256,bytes,uint256)": "infinite",
						"closePosition(uint256,uint256,string,uint256,bytes)": "infinite",
						"executor(address)": "1304",
						"feePercent()": "1074",
						"forcedLiquidation(uint256,uint256,string,uint256,bytes)": "infinite",
						"helperLogic()": "1183",
						"initialize(address,address,address,address)": "infinite",
						"liquidation(uint256[],uint256[],string[],uint256[],bytes[])": "infinite",
						"minVal()": "1139",
						"myCloseOrderIdList(address,uint256)": "2226",
						"myCloseOrderIdListLength(address)": "1353",
						"myCloseOrderIdList_index(address,uint256)": "1428",
						"myOpenOrderIdList(address,uint256)": "2270",
						"myOpenOrderIdListLength(address)": "1309",
						"myOpenOrderIdList_index(address,uint256)": "1406",
						"openOrderIdList(uint256)": "2065",
						"openOrderIdList_index(uint256)": "1261",
						"openPosition(uint256,uint256,uint256,string,uint256,uint256,bytes)": "infinite",
						"oracle()": "1181",
						"orderInfo(uint256)": "infinite",
						"owner()": "1138",
						"pagination(address,uint256,uint256,uint256)": "infinite",
						"renounceOwnership()": "23552",
						"setExecutor(address,bool)": "infinite",
						"setFeePercent(uint256)": "21338",
						"setOrderInfo(uint256,address,uint256,string,uint256,uint256,uint256,uint256,uint256,uint256,uint256,uint256)": "infinite",
						"setSigner(address)": "22276",
						"signer()": "1116",
						"transferOwnership(address)": "infinite",
						"usc()": "1138"
					},
					"internal": {
						"_closePosition(struct mirrorseaMain.OrderInfo storage pointer,uint256,uint256,uint256,string memory,uint256,bytes memory)": "infinite",
						"_isSolvent(uint256,uint256,uint256)": "infinite",
						"cutListItem(uint256,mapping(uint256 => uint256),uint256[] storage pointer)": "infinite"
					}
				},
				"methodIdentifiers": {
					"OrderIndex()": "f7ab69fd",
					"PRECISION()": "aaf5eb68",
					"adjustPosition(uint256,uint256,string,uint256,bytes,uint256)": "99315ccf",
					"closePosition(uint256,uint256,string,uint256,bytes)": "a17397db",
					"executor(address)": "48c7e528",
					"feePercent()": "7fd6f15c",
					"forcedLiquidation(uint256,uint256,string,uint256,bytes)": "a80c3cd3",
					"helperLogic()": "1e64610c",
					"initialize(address,address,address,address)": "f8c8765e",
					"liquidation(uint256[],uint256[],string[],uint256[],bytes[])": "6dbe9624",
					"minVal()": "f14053ad",
					"myCloseOrderIdList(address,uint256)": "ec4c4f34",
					"myCloseOrderIdListLength(address)": "aecf77b1",
					"myCloseOrderIdList_index(address,uint256)": "f0c765e4",
					"myOpenOrderIdList(address,uint256)": "c2ec527d",
					"myOpenOrderIdListLength(address)": "e4e95520",
					"myOpenOrderIdList_index(address,uint256)": "7be3a1a1",
					"openOrderIdList(uint256)": "0f58d242",
					"openOrderIdList_index(uint256)": "43b1f3cb",
					"openPosition(uint256,uint256,uint256,string,uint256,uint256,bytes)": "475b4fd3",
					"oracle()": "7dc0d1d0",
					"orderInfo(uint256)": "6ab34a4a",
					"owner()": "8da5cb5b",
					"pagination(address,uint256,uint256,uint256)": "080270a8",
					"renounceOwnership()": "715018a6",
					"setExecutor(address,bool)": "1e1bff3f",
					"setFeePercent(uint256)": "7ce3489b",
					"setOrderInfo(uint256,address,uint256,string,uint256,uint256,uint256,uint256,uint256,uint256,uint256,uint256)": "fc234d06",
					"setSigner(address)": "6c19e783",
					"signer()": "238ac933",
					"transferOwnership(address)": "f2fde38b",
					"usc()": "3011d3d5"
				}
			},
			"storageLayout": {
				"storage": [
					{
						"astId": 130,
						"contract": "contracts/mirrorseaMain.sol:mirrorseaMain",
						"label": "_initialized",
						"offset": 0,
						"slot": "0",
						"type": "t_bool"
					},
					{
						"astId": 133,
						"contract": "contracts/mirrorseaMain.sol:mirrorseaMain",
						"label": "_initializing",
						"offset": 1,
						"slot": "0",
						"type": "t_bool"
					},
					{
						"astId": 760,
						"contract": "contracts/mirrorseaMain.sol:mirrorseaMain",
						"label": "__gap",
						"offset": 0,
						"slot": "1",
						"type": "t_array(t_uint256)50_storage"
					},
					{
						"astId": 10,
						"contract": "contracts/mirrorseaMain.sol:mirrorseaMain",
						"label": "_owner",
						"offset": 0,
						"slot": "51",
						"type": "t_address"
					},
					{
						"astId": 124,
						"contract": "contracts/mirrorseaMain.sol:mirrorseaMain",
						"label": "__gap",
						"offset": 0,
						"slot": "52",
						"type": "t_array(t_uint256)49_storage"
					},
					{
						"astId": 1130,
						"contract": "contracts/mirrorseaMain.sol:mirrorseaMain",
						"label": "executor",
						"offset": 0,
						"slot": "101",
						"type": "t_mapping(t_address,t_bool)"
					},
					{
						"astId": 1132,
						"contract": "contracts/mirrorseaMain.sol:mirrorseaMain",
						"label": "signer",
						"offset": 0,
						"slot": "102",
						"type": "t_address"
					},
					{
						"astId": 1135,
						"contract": "contracts/mirrorseaMain.sol:mirrorseaMain",
						"label": "usc",
						"offset": 0,
						"slot": "103",
						"type": "t_contract(IERC20Upgradeable)248"
					},
					{
						"astId": 1138,
						"contract": "contracts/mirrorseaMain.sol:mirrorseaMain",
						"label": "helperLogic",
						"offset": 0,
						"slot": "104",
						"type": "t_contract(IhelperLogic)1086"
					},
					{
						"astId": 1141,
						"contract": "contracts/mirrorseaMain.sol:mirrorseaMain",
						"label": "oracle",
						"offset": 0,
						"slot": "105",
						"type": "t_contract(IOracle)1100"
					},
					{
						"astId": 1146,
						"contract": "contracts/mirrorseaMain.sol:mirrorseaMain",
						"label": "_orderInfo",
						"offset": 0,
						"slot": "106",
						"type": "t_mapping(t_uint256,t_struct(OrderInfo)1206_storage)"
					},
					{
						"astId": 1148,
						"contract": "contracts/mirrorseaMain.sol:mirrorseaMain",
						"label": "OrderIndex",
						"offset": 0,
						"slot": "107",
						"type": "t_uint256"
					},
					{
						"astId": 1151,
						"contract": "contracts/mirrorseaMain.sol:mirrorseaMain",
						"label": "openOrderIdList",
						"offset": 0,
						"slot": "108",
						"type": "t_array(t_uint256)dyn_storage"
					},
					{
						"astId": 1155,
						"contract": "contracts/mirrorseaMain.sol:mirrorseaMain",
						"label": "openOrderIdList_index",
						"offset": 0,
						"slot": "109",
						"type": "t_mapping(t_uint256,t_uint256)"
					},
					{
						"astId": 1160,
						"contract": "contracts/mirrorseaMain.sol:mirrorseaMain",
						"label": "myOpenOrderIdList",
						"offset": 0,
						"slot": "110",
						"type": "t_mapping(t_address,t_array(t_uint256)dyn_storage)"
					},
					{
						"astId": 1166,
						"contract": "contracts/mirrorseaMain.sol:mirrorseaMain",
						"label": "myOpenOrderIdList_index",
						"offset": 0,
						"slot": "111",
						"type": "t_mapping(t_address,t_mapping(t_uint256,t_uint256))"
					},
					{
						"astId": 1171,
						"contract": "contracts/mirrorseaMain.sol:mirrorseaMain",
						"label": "myCloseOrderIdList",
						"offset": 0,
						"slot": "112",
						"type": "t_mapping(t_address,t_array(t_uint256)dyn_storage)"
					},
					{
						"astId": 1177,
						"contract": "contracts/mirrorseaMain.sol:mirrorseaMain",
						"label": "myCloseOrderIdList_index",
						"offset": 0,
						"slot": "113",
						"type": "t_mapping(t_address,t_mapping(t_uint256,t_uint256))"
					},
					{
						"astId": 1179,
						"contract": "contracts/mirrorseaMain.sol:mirrorseaMain",
						"label": "feePercent",
						"offset": 0,
						"slot": "114",
						"type": "t_uint256"
					},
					{
						"astId": 1181,
						"contract": "contracts/mirrorseaMain.sol:mirrorseaMain",
						"label": "PRECISION",
						"offset": 0,
						"slot": "115",
						"type": "t_uint256"
					},
					{
						"astId": 1183,
						"contract": "contracts/mirrorseaMain.sol:mirrorseaMain",
						"label": "minVal",
						"offset": 0,
						"slot": "116",
						"type": "t_uint256"
					}
				],
				"types": {
					"t_address": {
						"encoding": "inplace",
						"label": "address",
						"numberOfBytes": "20"
					},
					"t_array(t_uint256)49_storage": {
						"base": "t_uint256",
						"encoding": "inplace",
						"label": "uint256[49]",
						"numberOfBytes": "1568"
					},
					"t_array(t_uint256)50_storage": {
						"base": "t_uint256",
						"encoding": "inplace",
						"label": "uint256[50]",
						"numberOfBytes": "1600"
					},
					"t_array(t_uint256)dyn_storage": {
						"base": "t_uint256",
						"encoding": "dynamic_array",
						"label": "uint256[]",
						"numberOfBytes": "32"
					},
					"t_bool": {
						"encoding": "inplace",
						"label": "bool",
						"numberOfBytes": "1"
					},
					"t_contract(IERC20Upgradeable)248": {
						"encoding": "inplace",
						"label": "contract IERC20Upgradeable",
						"numberOfBytes": "20"
					},
					"t_contract(IOracle)1100": {
						"encoding": "inplace",
						"label": "contract IOracle",
						"numberOfBytes": "20"
					},
					"t_contract(IhelperLogic)1086": {
						"encoding": "inplace",
						"label": "contract IhelperLogic",
						"numberOfBytes": "20"
					},
					"t_mapping(t_address,t_array(t_uint256)dyn_storage)": {
						"encoding": "mapping",
						"key": "t_address",
						"label": "mapping(address => uint256[])",
						"numberOfBytes": "32",
						"value": "t_array(t_uint256)dyn_storage"
					},
					"t_mapping(t_address,t_bool)": {
						"encoding": "mapping",
						"key": "t_address",
						"label": "mapping(address => bool)",
						"numberOfBytes": "32",
						"value": "t_bool"
					},
					"t_mapping(t_address,t_mapping(t_uint256,t_uint256))": {
						"encoding": "mapping",
						"key": "t_address",
						"label": "mapping(address => mapping(uint256 => uint256))",
						"numberOfBytes": "32",
						"value": "t_mapping(t_uint256,t_uint256)"
					},
					"t_mapping(t_uint256,t_struct(OrderInfo)1206_storage)": {
						"encoding": "mapping",
						"key": "t_uint256",
						"label": "mapping(uint256 => struct mirrorseaMain.OrderInfo)",
						"numberOfBytes": "32",
						"value": "t_struct(OrderInfo)1206_storage"
					},
					"t_mapping(t_uint256,t_uint256)": {
						"encoding": "mapping",
						"key": "t_uint256",
						"label": "mapping(uint256 => uint256)",
						"numberOfBytes": "32",
						"value": "t_uint256"
					},
					"t_string_storage": {
						"encoding": "bytes",
						"label": "string",
						"numberOfBytes": "32"
					},
					"t_struct(OrderInfo)1206_storage": {
						"encoding": "inplace",
						"label": "struct mirrorseaMain.OrderInfo",
						"members": [
							{
								"astId": 1185,
								"contract": "contracts/mirrorseaMain.sol:mirrorseaMain",
								"label": "user",
								"offset": 0,
								"slot": "0",
								"type": "t_address"
							},
							{
								"astId": 1187,
								"contract": "contracts/mirrorseaMain.sol:mirrorseaMain",
								"label": "_type",
								"offset": 0,
								"slot": "1",
								"type": "t_uint256"
							},
							{
								"astId": 1189,
								"contract": "contracts/mirrorseaMain.sol:mirrorseaMain",
								"label": "symbols",
								"offset": 0,
								"slot": "2",
								"type": "t_string_storage"
							},
							{
								"astId": 1191,
								"contract": "contracts/mirrorseaMain.sol:mirrorseaMain",
								"label": "state",
								"offset": 0,
								"slot": "3",
								"type": "t_uint256"
							},
							{
								"astId": 1193,
								"contract": "contracts/mirrorseaMain.sol:mirrorseaMain",
								"label": "direction",
								"offset": 0,
								"slot": "4",
								"type": "t_uint256"
							},
							{
								"astId": 1195,
								"contract": "contracts/mirrorseaMain.sol:mirrorseaMain",
								"label": "openPrice18",
								"offset": 0,
								"slot": "5",
								"type": "t_uint256"
							},
							{
								"astId": 1197,
								"contract": "contracts/mirrorseaMain.sol:mirrorseaMain",
								"label": "openTime",
								"offset": 0,
								"slot": "6",
								"type": "t_uint256"
							},
							{
								"astId": 1199,
								"contract": "contracts/mirrorseaMain.sol:mirrorseaMain",
								"label": "closePrice18",
								"offset": 0,
								"slot": "7",
								"type": "t_uint256"
							},
							{
								"astId": 1201,
								"contract": "contracts/mirrorseaMain.sol:mirrorseaMain",
								"label": "closeTime",
								"offset": 0,
								"slot": "8",
								"type": "t_uint256"
							},
							{
								"astId": 1203,
								"contract": "contracts/mirrorseaMain.sol:mirrorseaMain",
								"label": "amt",
								"offset": 0,
								"slot": "9",
								"type": "t_uint256"
							},
							{
								"astId": 1205,
								"contract": "contracts/mirrorseaMain.sol:mirrorseaMain",
								"label": "margin",
								"offset": 0,
								"slot": "10",
								"type": "t_uint256"
							}
						],
						"numberOfBytes": "352"
					},
					"t_uint256": {
						"encoding": "inplace",
						"label": "uint256",
						"numberOfBytes": "32"
					}
				}
			},
			"userdoc": {
				"kind": "user",
				"methods": {},
				"version": 1
			}
		}
	}
}