{
	"contracts/helperLogic.sol": {
		"helperLogic": {
			"abi": [
				{
					"anonymous": false,
					"inputs": [
						{
							"indexed": true,
							"internalType": "address",
							"name": "previousOwner",
							"type": "address"
						},
						{
							"indexed": true,
							"internalType": "address",
							"name": "newOwner",
							"type": "address"
						}
					],
					"name": "OwnershipTransferred",
					"type": "event"
				},
				{
					"inputs": [],
					"name": "Factory",
					"outputs": [
						{
							"internalType": "contract IUniswapV2Factory",
							"name": "",
							"type": "address"
						}
					],
					"stateMutability": "view",
					"type": "function"
				},
				{
					"inputs": [],
					"name": "PRECISION",
					"outputs": [
						{
							"internalType": "uint256",
							"name": "",
							"type": "uint256"
						}
					],
					"stateMutability": "view",
					"type": "function"
				},
				{
					"inputs": [],
					"name": "Router",
					"outputs": [
						{
							"internalType": "contract IUniswapV2Router02",
							"name": "",
							"type": "address"
						}
					],
					"stateMutability": "view",
					"type": "function"
				},
				{
					"inputs": [],
					"name": "autoAdjustFarm",
					"outputs": [
						{
							"internalType": "bool",
							"name": "",
							"type": "bool"
						}
					],
					"stateMutability": "view",
					"type": "function"
				},
				{
					"inputs": [],
					"name": "basePoint",
					"outputs": [
						{
							"internalType": "uint256",
							"name": "",
							"type": "uint256"
						}
					],
					"stateMutability": "view",
					"type": "function"
				},
				{
					"inputs": [],
					"name": "dev",
					"outputs": [
						{
							"internalType": "address",
							"name": "",
							"type": "address"
						}
					],
					"stateMutability": "view",
					"type": "function"
				},
				{
					"inputs": [
						{
							"internalType": "address",
							"name": "",
							"type": "address"
						}
					],
					"name": "executor",
					"outputs": [
						{
							"internalType": "bool",
							"name": "",
							"type": "bool"
						}
					],
					"stateMutability": "view",
					"type": "function"
				},
				{
					"inputs": [],
					"name": "farm",
					"outputs": [
						{
							"internalType": "contract IFarm",
							"name": "",
							"type": "address"
						}
					],
					"stateMutability": "view",
					"type": "function"
				},
				{
					"inputs": [
						{
							"internalType": "contract IUniswapV2Factory",
							"name": "_Factory",
							"type": "address"
						},
						{
							"internalType": "contract IUniswapV2Router02",
							"name": "_Router",
							"type": "address"
						},
						{
							"internalType": "contract IERC20Upgradeable",
							"name": "_usc",
							"type": "address"
						},
						{
							"internalType": "contract IERC20Upgradeable",
							"name": "_usdc",
							"type": "address"
						},
						{
							"internalType": "contract IERC20Upgradeable",
							"name": "_sea",
							"type": "address"
						},
						{
							"internalType": "contract IERC20Upgradeable",
							"name": "_ssea",
							"type": "address"
						},
						{
							"internalType": "contract IFarm",
							"name": "_farm",
							"type": "address"
						}
					],
					"name": "initialize",
					"outputs": [],
					"stateMutability": "nonpayable",
					"type": "function"
				},
				{
					"inputs": [],
					"name": "jointExecution",
					"outputs": [
						{
							"internalType": "bool",
							"name": "",
							"type": "bool"
						}
					],
					"stateMutability": "nonpayable",
					"type": "function"
				},
				{
					"inputs": [],
					"name": "op",
					"outputs": [
						{
							"internalType": "address",
							"name": "",
							"type": "address"
						}
					],
					"stateMutability": "view",
					"type": "function"
				},
				{
					"inputs": [],
					"name": "openStabilizer",
					"outputs": [
						{
							"internalType": "bool",
							"name": "",
							"type": "bool"
						}
					],
					"stateMutability": "view",
					"type": "function"
				},
				{
					"inputs": [],
					"name": "owner",
					"outputs": [
						{
							"internalType": "address",
							"name": "",
							"type": "address"
						}
					],
					"stateMutability": "view",
					"type": "function"
				},
				{
					"inputs": [],
					"name": "pid",
					"outputs": [
						{
							"internalType": "uint256",
							"name": "",
							"type": "uint256"
						}
					],
					"stateMutability": "view",
					"type": "function"
				},
				{
					"inputs": [],
					"name": "renounceOwnership",
					"outputs": [],
					"stateMutability": "nonpayable",
					"type": "function"
				},
				{
					"inputs": [],
					"name": "sea",
					"outputs": [
						{
							"internalType": "contract IERC20Upgradeable",
							"name": "",
							"type": "address"
						}
					],
					"stateMutability": "view",
					"type": "function"
				},
				{
					"inputs": [
						{
							"internalType": "bool",
							"name": "_bool",
							"type": "bool"
						}
					],
					"name": "setAutoAdjustFarm",
					"outputs": [
						{
							"internalType": "bool",
							"name": "",
							"type": "bool"
						}
					],
					"stateMutability": "nonpayable",
					"type": "function"
				},
				{
					"inputs": [
						{
							"internalType": "address",
							"name": "_address",
							"type": "address"
						}
					],
					"name": "setDev",
					"outputs": [
						{
							"internalType": "bool",
							"name": "",
							"type": "bool"
						}
					],
					"stateMutability": "nonpayable",
					"type": "function"
				},
				{
					"inputs": [
						{
							"internalType": "address",
							"name": "_address",
							"type": "address"
						},
						{
							"internalType": "bool",
							"name": "_type",
							"type": "bool"
						}
					],
					"name": "setExecutor",
					"outputs": [
						{
							"internalType": "bool",
							"name": "",
							"type": "bool"
						}
					],
					"stateMutability": "nonpayable",
					"type": "function"
				},
				{
					"inputs": [
						{
							"internalType": "address",
							"name": "_address",
							"type": "address"
						}
					],
					"name": "setOp",
					"outputs": [
						{
							"internalType": "bool",
							"name": "",
							"type": "bool"
						}
					],
					"stateMutability": "nonpayable",
					"type": "function"
				},
				{
					"inputs": [
						{
							"internalType": "bool",
							"name": "_bool",
							"type": "bool"
						}
					],
					"name": "setOpenStabilizer",
					"outputs": [
						{
							"internalType": "bool",
							"name": "",
							"type": "bool"
						}
					],
					"stateMutability": "nonpayable",
					"type": "function"
				},
				{
					"inputs": [
						{
							"internalType": "uint256",
							"name": "_val",
							"type": "uint256"
						}
					],
					"name": "setPid",
					"outputs": [
						{
							"internalType": "bool",
							"name": "",
							"type": "bool"
						}
					],
					"stateMutability": "nonpayable",
					"type": "function"
				},
				{
					"inputs": [
						{
							"internalType": "address",
							"name": "_address",
							"type": "address"
						}
					],
					"name": "setStabilizer",
					"outputs": [
						{
							"internalType": "bool",
							"name": "",
							"type": "bool"
						}
					],
					"stateMutability": "nonpayable",
					"type": "function"
				},
				{
					"inputs": [
						{
							"internalType": "uint256",
							"name": "_val",
							"type": "uint256"
						}
					],
					"name": "setToDevPercent",
					"outputs": [
						{
							"internalType": "bool",
							"name": "",
							"type": "bool"
						}
					],
					"stateMutability": "nonpayable",
					"type": "function"
				},
				{
					"inputs": [
						{
							"internalType": "uint256",
							"name": "_val",
							"type": "uint256"
						}
					],
					"name": "setToOpPercent",
					"outputs": [
						{
							"internalType": "bool",
							"name": "",
							"type": "bool"
						}
					],
					"stateMutability": "nonpayable",
					"type": "function"
				},
				{
					"inputs": [
						{
							"internalType": "uint256",
							"name": "_val",
							"type": "uint256"
						}
					],
					"name": "setToSseaPercent",
					"outputs": [
						{
							"internalType": "bool",
							"name": "",
							"type": "bool"
						}
					],
					"stateMutability": "nonpayable",
					"type": "function"
				},
				{
					"inputs": [
						{
							"internalType": "contract IERC20Upgradeable",
							"name": "_usdc",
							"type": "address"
						}
					],
					"name": "setUSDCAddress",
					"outputs": [
						{
							"internalType": "bool",
							"name": "",
							"type": "bool"
						}
					],
					"stateMutability": "nonpayable",
					"type": "function"
				},
				{
					"inputs": [],
					"name": "ssea",
					"outputs": [
						{
							"internalType": "contract IERC20Upgradeable",
							"name": "",
							"type": "address"
						}
					],
					"stateMutability": "view",
					"type": "function"
				},
				{
					"inputs": [],
					"name": "stabilizer",
					"outputs": [
						{
							"internalType": "address",
							"name": "",
							"type": "address"
						}
					],
					"stateMutability": "view",
					"type": "function"
				},
				{
					"inputs": [],
					"name": "toDevPercent",
					"outputs": [
						{
							"internalType": "uint256",
							"name": "",
							"type": "uint256"
						}
					],
					"stateMutability": "view",
					"type": "function"
				},
				{
					"inputs": [],
					"name": "toOpPercent",
					"outputs": [
						{
							"internalType": "uint256",
							"name": "",
							"type": "uint256"
						}
					],
					"stateMutability": "view",
					"type": "function"
				},
				{
					"inputs": [],
					"name": "toSseaPercent",
					"outputs": [
						{
							"internalType": "uint256",
							"name": "",
							"type": "uint256"
						}
					],
					"stateMutability": "view",
					"type": "function"
				},
				{
					"inputs": [
						{
							"internalType": "address",
							"name": "newOwner",
							"type": "address"
						}
					],
					"name": "transferOwnership",
					"outputs": [],
					"stateMutability": "nonpayable",
					"type": "function"
				},
				{
					"inputs": [],
					"name": "usc",
					"outputs": [
						{
							"internalType": "contract IERC20Upgradeable",
							"name": "",
							"type": "address"
						}
					],
					"stateMutability": "view",
					"type": "function"
				},
				{
					"inputs": [],
					"name": "usdc",
					"outputs": [
						{
							"internalType": "contract IERC20Upgradeable",
							"name": "",
							"type": "address"
						}
					],
					"stateMutability": "view",
					"type": "function"
				},
				{
					"inputs": [
						{
							"internalType": "address",
							"name": "_address",
							"type": "address"
						},
						{
							"internalType": "uint256",
							"name": "_amt",
							"type": "uint256"
						}
					],
					"name": "withdrawalERC20",
					"outputs": [
						{
							"internalType": "bool",
							"name": "",
							"type": "bool"
						}
					],
					"stateMutability": "nonpayable",
					"type": "function"
				}
			],
			"devdoc": {
				"kind": "dev",
				"methods": {
					"owner()": {
						"details": "Returns the address of the current owner."
					},
					"renounceOwnership()": {
						"details": "Leaves the contract without owner. It will not be possible to call `onlyOwner` functions anymore. Can only be called by the current owner. NOTE: Renouncing ownership will leave the contract without an owner, thereby removing any functionality that is only available to the owner."
					},
					"transferOwnership(address)": {
						"details": "Transfers ownership of the contract to a new account (`newOwner`). Can only be called by the current owner."
					}
				},
				"version": 1
			},
			"evm": {
				"assembly": "    /* \"contracts/helperLogic.sol\":909:6086  contract helperLogic is Initializable, OwnableUpgradeable {... */\n  mstore(0x40, 0x80)\n  callvalue\n  dup1\n  iszero\n  tag_1\n  jumpi\n  0x00\n  dup1\n  revert\ntag_1:\n  pop\n  dataSize(sub_0)\n  dup1\n  dataOffset(sub_0)\n  0x00\n  codecopy\n  0x00\n  return\nstop\n\nsub_0: assembly {\n        /* \"contracts/helperLogic.sol\":909:6086  contract helperLogic is Initializable, OwnableUpgradeable {... */\n      mstore(0x40, 0x80)\n      callvalue\n      dup1\n      iszero\n      tag_1\n      jumpi\n      0x00\n      dup1\n      revert\n    tag_1:\n      pop\n      jumpi(tag_2, lt(calldatasize, 0x04))\n      shr(0xe0, calldataload(0x00))\n      dup1\n      0x8da5cb5b\n      gt\n      tag_39\n      jumpi\n      dup1\n      0xbd0b1f44\n      gt\n      tag_40\n      jumpi\n      dup1\n      0xdb7f521a\n      gt\n      tag_41\n      jumpi\n      dup1\n      0xdb7f521a\n      eq\n      tag_34\n      jumpi\n      dup1\n      0xec1f1f69\n      eq\n      tag_35\n      jumpi\n      dup1\n      0xf1068454\n      eq\n      tag_36\n      jumpi\n      dup1\n      0xf2fde38b\n      eq\n      tag_37\n      jumpi\n      dup1\n      0xf6d7eade\n      eq\n      tag_38\n      jumpi\n      jump(tag_2)\n    tag_41:\n      dup1\n      0xbd0b1f44\n      eq\n      tag_30\n      jumpi\n      dup1\n      0xc83dd231\n      eq\n      tag_31\n      jumpi\n      dup1\n      0xd10c06a2\n      eq\n      tag_32\n      jumpi\n      dup1\n      0xd477f05f\n      eq\n      tag_33\n      jumpi\n      jump(tag_2)\n    tag_40:\n      dup1\n      0xa36a7526\n      gt\n      tag_42\n      jumpi\n      dup1\n      0xa36a7526\n      eq\n      tag_25\n      jumpi\n      dup1\n      0xaaf5bfc3\n      eq\n      tag_26\n      jumpi\n      dup1\n      0xaaf5eb68\n      eq\n      tag_27\n      jumpi\n      dup1\n      0xaf5518c4\n      eq\n      tag_28\n      jumpi\n      dup1\n      0xb8bb97a1\n      eq\n      tag_29\n      jumpi\n      jump(tag_2)\n    tag_42:\n      dup1\n      0x8da5cb5b\n      eq\n      tag_21\n      jumpi\n      dup1\n      0x91cca3db\n      eq\n      tag_22\n      jumpi\n      dup1\n      0x930ed033\n      eq\n      tag_23\n      jumpi\n      dup1\n      0x9da5b0d5\n      eq\n      tag_24\n      jumpi\n      jump(tag_2)\n    tag_39:\n      dup1\n      0x3e413bee\n      gt\n      tag_43\n      jumpi\n      dup1\n      0x4ecaac41\n      gt\n      tag_44\n      jumpi\n      dup1\n      0x4ecaac41\n      eq\n      tag_16\n      jumpi\n      dup1\n      0x55c746d1\n      eq\n      tag_17\n      jumpi\n      dup1\n      0x58de5de8\n      eq\n      tag_18\n      jumpi\n      dup1\n      0x715018a6\n      eq\n      tag_19\n      jumpi\n      dup1\n      0x7e47961c\n      eq\n      tag_20\n      jumpi\n      jump(tag_2)\n    tag_44:\n      dup1\n      0x3e413bee\n      eq\n      tag_12\n      jumpi\n      dup1\n      0x4591db50\n      eq\n      tag_13\n      jumpi\n      dup1\n      0x48c7e528\n      eq\n      tag_14\n      jumpi\n      dup1\n      0x4ae6a027\n      eq\n      tag_15\n      jumpi\n      jump(tag_2)\n    tag_43:\n      dup1\n      0x2c535a52\n      gt\n      tag_45\n      jumpi\n      dup1\n      0x2c535a52\n      eq\n      tag_7\n      jumpi\n      dup1\n      0x3011d3d5\n      eq\n      tag_8\n      jumpi\n      dup1\n      0x35876476\n      eq\n      tag_9\n      jumpi\n      dup1\n      0x36e9332d\n      eq\n      tag_10\n      jumpi\n      dup1\n      0x3c850e1e\n      eq\n      tag_11\n      jumpi\n      jump(tag_2)\n    tag_45:\n      dup1\n      0x16d03993\n      eq\n      tag_3\n      jumpi\n      dup1\n      0x1b0d8aab\n      eq\n      tag_4\n      jumpi\n      dup1\n      0x1e1bff3f\n      eq\n      tag_5\n      jumpi\n      dup1\n      0x27c42a50\n      eq\n      tag_6\n      jumpi\n    tag_2:\n      0x00\n      dup1\n      revert\n        /* \"contracts/helperLogic.sol\":1525:1549  uint256 public basePoint */\n    tag_3:\n      tag_46\n      tag_47\n      jump\t// in\n    tag_46:\n      mload(0x40)\n      tag_48\n      swap2\n      swap1\n      tag_49\n      jump\t// in\n    tag_48:\n      mload(0x40)\n      dup1\n      swap2\n      sub\n      swap1\n      return\n        /* \"contracts/helperLogic.sol\":5805:5917  function setPid(uint256 _val) external onlyOwner returns (bool) {... */\n    tag_4:\n      tag_50\n      tag_51\n      calldatasize\n      0x04\n      tag_52\n      jump\t// in\n    tag_51:\n      tag_53\n      jump\t// in\n    tag_50:\n      mload(0x40)\n      tag_48\n      swap2\n      swap1\n      tag_55\n      jump\t// in\n        /* \"contracts/helperLogic.sol\":2591:2768  function setExecutor(address _address, bool _type)... */\n    tag_5:\n      tag_50\n      tag_57\n      calldatasize\n      0x04\n      tag_58\n      jump\t// in\n    tag_57:\n      tag_59\n      jump\t// in\n        /* \"contracts/helperLogic.sol\":4979:5111  function setToSseaPercent(uint256 _val) external onlyOwner returns (bool) {... */\n    tag_6:\n      tag_50\n      tag_62\n      calldatasize\n      0x04\n      tag_52\n      jump\t// in\n    tag_62:\n      tag_63\n      jump\t// in\n        /* \"contracts/helperLogic.sol\":1429:1455  uint256 public toOpPercent */\n    tag_7:\n      tag_46\n      tag_66\n      jump\t// in\n        /* \"contracts/helperLogic.sol\":1132:1160  IERC20Upgradeable public usc */\n    tag_8:\n      tag_68\n      tag_69\n      jump\t// in\n    tag_68:\n      mload(0x40)\n      tag_48\n      swap2\n      swap1\n      tag_115\n      jump\t// in\n        /* \"contracts/helperLogic.sol\":1701:2585  function initialize(... */\n    tag_9:\n      tag_72\n      tag_73\n      calldatasize\n      0x04\n      tag_74\n      jump\t// in\n    tag_73:\n      tag_75\n      jump\t// in\n    tag_72:\n      stop\n        /* \"contracts/helperLogic.sol\":1580:1597  IFarm public farm */\n    tag_10:\n      tag_68\n      tag_77\n      jump\t// in\n        /* \"contracts/helperLogic.sol\":5251:5381  function setToDevPercent(uint256 _val) external onlyOwner returns (bool) {... */\n    tag_11:\n      tag_50\n      tag_81\n      calldatasize\n      0x04\n      tag_52\n      jump\t// in\n    tag_81:\n      tag_82\n      jump\t// in\n        /* \"contracts/helperLogic.sol\":1166:1195  IERC20Upgradeable public usdc */\n    tag_12:\n      tag_68\n      tag_85\n      jump\t// in\n        /* \"contracts/helperLogic.sol\":5387:5520  function setAutoAdjustFarm(bool _bool) external onlyOwner returns (bool) {... */\n    tag_13:\n      tag_50\n      tag_88\n      calldatasize\n      0x04\n      tag_89\n      jump\t// in\n    tag_88:\n      tag_90\n      jump\t// in\n        /* \"contracts/helperLogic.sol\":1086:1126  mapping(address => bool) public executor */\n    tag_14:\n      tag_50\n      tag_93\n      calldatasize\n      0x04\n      tag_94\n      jump\t// in\n    tag_93:\n      tag_95\n      jump\t// in\n        /* \"contracts/helperLogic.sol\":1461:1488  uint256 public toDevPercent */\n    tag_15:\n      tag_46\n      tag_98\n      jump\t// in\n        /* \"contracts/helperLogic.sol\":1201:1229  IERC20Upgradeable public sea */\n    tag_16:\n      tag_68\n      tag_101\n      jump\t// in\n        /* \"contracts/helperLogic.sol\":5526:5659  function setOpenStabilizer(bool _bool) external onlyOwner returns (bool) {... */\n    tag_17:\n      tag_50\n      tag_104\n      calldatasize\n      0x04\n      tag_89\n      jump\t// in\n    tag_104:\n      tag_105\n      jump\t// in\n        /* \"contracts/helperLogic.sol\":1636:1662  bool public openStabilizer */\n    tag_18:\n      tag_50\n      tag_108\n      jump\t// in\n        /* \"@openzeppelin/contracts-upgradeable/access/OwnableUpgradeable.sol\":1934:2035  function renounceOwnership() public virtual onlyOwner {... */\n    tag_19:\n      tag_72\n      tag_111\n      jump\t// in\n        /* \"contracts/helperLogic.sol\":1669:1694  address public stabilizer */\n    tag_20:\n      tag_68\n      tag_113\n      jump\t// in\n        /* \"@openzeppelin/contracts-upgradeable/access/OwnableUpgradeable.sol\":1302:1387  function owner() public view virtual returns (address) {... */\n    tag_21:\n      tag_68\n      tag_117\n      jump\t// in\n        /* \"contracts/helperLogic.sol\":1293:1311  address public dev */\n    tag_22:\n      tag_68\n      tag_120\n      jump\t// in\n        /* \"contracts/helperLogic.sol\":4508:4723  function withdrawalERC20(address _address, uint256 _amt)... */\n    tag_23:\n      tag_50\n      tag_123\n      calldatasize\n      0x04\n      tag_124\n      jump\t// in\n    tag_123:\n      tag_125\n      jump\t// in\n        /* \"contracts/helperLogic.sol\":1604:1630  bool public autoAdjustFarm */\n    tag_24:\n      tag_50\n      tag_128\n      jump\t// in\n        /* \"contracts/helperLogic.sol\":4729:4847  function setOp(address _address) external onlyOwner returns (bool) {... */\n    tag_25:\n      tag_50\n      tag_131\n      calldatasize\n      0x04\n      tag_94\n      jump\t// in\n    tag_131:\n      tag_132\n      jump\t// in\n        /* \"contracts/helperLogic.sol\":5923:6084  function setUSDCAddress(IERC20Upgradeable _usdc)... */\n    tag_26:\n      tag_50\n      tag_135\n      calldatasize\n      0x04\n      tag_94\n      jump\t// in\n    tag_135:\n      tag_137\n      jump\t// in\n        /* \"contracts/helperLogic.sol\":1494:1518  uint256 public PRECISION */\n    tag_27:\n      tag_46\n      tag_140\n      jump\t// in\n        /* \"contracts/helperLogic.sol\":5117:5245  function setToOpPercent(uint256 _val) external onlyOwner returns (bool) {... */\n    tag_28:\n      tag_50\n      tag_143\n      calldatasize\n      0x04\n      tag_52\n      jump\t// in\n    tag_143:\n      tag_144\n      jump\t// in\n        /* \"contracts/helperLogic.sol\":1235:1264  IERC20Upgradeable public ssea */\n    tag_29:\n      tag_68\n      tag_147\n      jump\t// in\n        /* \"contracts/helperLogic.sol\":1395:1423  uint256 public toSseaPercent */\n    tag_30:\n      tag_46\n      tag_150\n      jump\t// in\n        /* \"contracts/helperLogic.sol\":1356:1388  IUniswapV2Factory public Factory */\n    tag_31:\n      tag_68\n      tag_153\n      jump\t// in\n        /* \"contracts/helperLogic.sol\":2901:3558  function jointExecution() external onlyExecutor returns (bool) {... */\n    tag_32:\n      tag_50\n      tag_157\n      jump\t// in\n        /* \"contracts/helperLogic.sol\":4853:4973  function setDev(address _address) external onlyOwner returns (bool) {... */\n    tag_33:\n      tag_50\n      tag_160\n      calldatasize\n      0x04\n      tag_94\n      jump\t// in\n    tag_160:\n      tag_161\n      jump\t// in\n        /* \"contracts/helperLogic.sol\":5665:5799  function setStabilizer(address _address) external onlyOwner returns (bool) {... */\n    tag_34:\n      tag_50\n      tag_164\n      calldatasize\n      0x04\n      tag_94\n      jump\t// in\n    tag_164:\n      tag_165\n      jump\t// in\n        /* \"contracts/helperLogic.sol\":1270:1287  address public op */\n    tag_35:\n      tag_68\n      tag_168\n      jump\t// in\n        /* \"contracts/helperLogic.sol\":1555:1573  uint256 public pid */\n    tag_36:\n      tag_46\n      tag_171\n      jump\t// in\n        /* \"@openzeppelin/contracts-upgradeable/access/OwnableUpgradeable.sol\":2184:2382  function transferOwnership(address newOwner) public virtual onlyOwner {... */\n    tag_37:\n      tag_72\n      tag_174\n      calldatasize\n      0x04\n      tag_94\n      jump\t// in\n    tag_174:\n      tag_175\n      jump\t// in\n        /* \"contracts/helperLogic.sol\":1318:1350  IUniswapV2Router02 public Router */\n    tag_38:\n      tag_68\n      tag_177\n      jump\t// in\n        /* \"contracts/helperLogic.sol\":1525:1549  uint256 public basePoint */\n    tag_47:\n      sload(0x72)\n      dup2\n      jump\t// out\n        /* \"contracts/helperLogic.sol\":5805:5917  function setPid(uint256 _val) external onlyOwner returns (bool) {... */\n    tag_53:\n        /* \"contracts/helperLogic.sol\":5863:5867  bool */\n      0x00\n        /* \"@openzeppelin/contracts-upgradeable/access/OwnableUpgradeable.sol\":1525:1537  _msgSender() */\n      tag_181\n        /* \"@openzeppelin/contracts-upgradeable/access/OwnableUpgradeable.sol\":1525:1535  _msgSender */\n      tag_182\n        /* \"@openzeppelin/contracts-upgradeable/access/OwnableUpgradeable.sol\":1525:1537  _msgSender() */\n      jump\t// in\n    tag_181:\n      sub(shl(0xa0, 0x01), 0x01)\n        /* \"@openzeppelin/contracts-upgradeable/access/OwnableUpgradeable.sol\":1514:1537  owner() == _msgSender() */\n      and\n        /* \"@openzeppelin/contracts-upgradeable/access/OwnableUpgradeable.sol\":1514:1521  owner() */\n      tag_183\n        /* \"@openzeppelin/contracts-upgradeable/access/OwnableUpgradeable.sol\":1514:1519  owner */\n      tag_117\n        /* \"@openzeppelin/contracts-upgradeable/access/OwnableUpgradeable.sol\":1514:1521  owner() */\n      jump\t// in\n    tag_183:\n      sub(shl(0xa0, 0x01), 0x01)\n        /* \"@openzeppelin/contracts-upgradeable/access/OwnableUpgradeable.sol\":1514:1537  owner() == _msgSender() */\n      and\n      eq\n        /* \"@openzeppelin/contracts-upgradeable/access/OwnableUpgradeable.sol\":1506:1574  require(owner() == _msgSender(), \"Ownable: caller is not the owner\") */\n      tag_184\n      jumpi\n      mload(0x40)\n      shl(0xe5, 0x461bcd)\n      dup2\n      mstore\n      0x04\n      add\n      tag_185\n      swap1\n      tag_186\n      jump\t// in\n    tag_185:\n      mload(0x40)\n      dup1\n      swap2\n      sub\n      swap1\n      revert\n    tag_184:\n      pop\n        /* \"contracts/helperLogic.sol\":5879:5882  pid */\n      0x73\n        /* \"contracts/helperLogic.sol\":5879:5889  pid = _val */\n      sstore\n        /* \"contracts/helperLogic.sol\":5906:5910  true */\n      0x01\n      swap1\n        /* \"contracts/helperLogic.sol\":5805:5917  function setPid(uint256 _val) external onlyOwner returns (bool) {... */\n      jump\t// out\n        /* \"contracts/helperLogic.sol\":2591:2768  function setExecutor(address _address, bool _type)... */\n    tag_59:\n        /* \"contracts/helperLogic.sol\":2694:2698  bool */\n      0x00\n        /* \"@openzeppelin/contracts-upgradeable/access/OwnableUpgradeable.sol\":1525:1537  _msgSender() */\n      tag_189\n        /* \"@openzeppelin/contracts-upgradeable/access/OwnableUpgradeable.sol\":1525:1535  _msgSender */\n      tag_182\n        /* \"@openzeppelin/contracts-upgradeable/access/OwnableUpgradeable.sol\":1525:1537  _msgSender() */\n      jump\t// in\n    tag_189:\n      sub(shl(0xa0, 0x01), 0x01)\n        /* \"@openzeppelin/contracts-upgradeable/access/OwnableUpgradeable.sol\":1514:1537  owner() == _msgSender() */\n      and\n        /* \"@openzeppelin/contracts-upgradeable/access/OwnableUpgradeable.sol\":1514:1521  owner() */\n      tag_190\n        /* \"@openzeppelin/contracts-upgradeable/access/OwnableUpgradeable.sol\":1514:1519  owner */\n      tag_117\n        /* \"@openzeppelin/contracts-upgradeable/access/OwnableUpgradeable.sol\":1514:1521  owner() */\n      jump\t// in\n    tag_190:\n      sub(shl(0xa0, 0x01), 0x01)\n        /* \"@openzeppelin/contracts-upgradeable/access/OwnableUpgradeable.sol\":1514:1537  owner() == _msgSender() */\n      and\n      eq\n        /* \"@openzeppelin/contracts-upgradeable/access/OwnableUpgradeable.sol\":1506:1574  require(owner() == _msgSender(), \"Ownable: caller is not the owner\") */\n      tag_191\n      jumpi\n      mload(0x40)\n      shl(0xe5, 0x461bcd)\n      dup2\n      mstore\n      0x04\n      add\n      tag_185\n      swap1\n      tag_186\n      jump\t// in\n    tag_191:\n      pop\n      sub(shl(0xa0, 0x01), 0x01)\n        /* \"contracts/helperLogic.sol\":2714:2732  executor[_address] */\n      dup3\n      and\n      0x00\n      swap1\n      dup2\n      mstore\n        /* \"contracts/helperLogic.sol\":2714:2722  executor */\n      0x65\n        /* \"contracts/helperLogic.sol\":2714:2732  executor[_address] */\n      0x20\n      mstore\n      0x40\n      swap1\n      keccak256\n        /* \"contracts/helperLogic.sol\":2714:2740  executor[_address] = _type */\n      dup1\n      sload\n      dup3\n      iszero\n      iszero\n      not(0xff)\n      swap1\n      swap2\n      and\n      or\n      swap1\n      sstore\n      0x01\n        /* \"contracts/helperLogic.sol\":2591:2768  function setExecutor(address _address, bool _type)... */\n      swap3\n      swap2\n      pop\n      pop\n      jump\t// out\n        /* \"contracts/helperLogic.sol\":4979:5111  function setToSseaPercent(uint256 _val) external onlyOwner returns (bool) {... */\n    tag_63:\n        /* \"contracts/helperLogic.sol\":5047:5051  bool */\n      0x00\n        /* \"@openzeppelin/contracts-upgradeable/access/OwnableUpgradeable.sol\":1525:1537  _msgSender() */\n      tag_195\n        /* \"@openzeppelin/contracts-upgradeable/access/OwnableUpgradeable.sol\":1525:1535  _msgSender */\n      tag_182\n        /* \"@openzeppelin/contracts-upgradeable/access/OwnableUpgradeable.sol\":1525:1537  _msgSender() */\n      jump\t// in\n    tag_195:\n      sub(shl(0xa0, 0x01), 0x01)\n        /* \"@openzeppelin/contracts-upgradeable/access/OwnableUpgradeable.sol\":1514:1537  owner() == _msgSender() */\n      and\n        /* \"@openzeppelin/contracts-upgradeable/access/OwnableUpgradeable.sol\":1514:1521  owner() */\n      tag_196\n        /* \"@openzeppelin/contracts-upgradeable/access/OwnableUpgradeable.sol\":1514:1519  owner */\n      tag_117\n        /* \"@openzeppelin/contracts-upgradeable/access/OwnableUpgradeable.sol\":1514:1521  owner() */\n      jump\t// in\n    tag_196:\n      sub(shl(0xa0, 0x01), 0x01)\n        /* \"@openzeppelin/contracts-upgradeable/access/OwnableUpgradeable.sol\":1514:1537  owner() == _msgSender() */\n      and\n      eq\n        /* \"@openzeppelin/contracts-upgradeable/access/OwnableUpgradeable.sol\":1506:1574  require(owner() == _msgSender(), \"Ownable: caller is not the owner\") */\n      tag_197\n      jumpi\n      mload(0x40)\n      shl(0xe5, 0x461bcd)\n      dup2\n      mstore\n      0x04\n      add\n      tag_185\n      swap1\n      tag_186\n      jump\t// in\n    tag_197:\n      pop\n        /* \"contracts/helperLogic.sol\":5063:5076  toSseaPercent */\n      0x6e\n        /* \"contracts/helperLogic.sol\":5063:5083  toSseaPercent = _val */\n      sstore\n        /* \"contracts/helperLogic.sol\":5100:5104  true */\n      0x01\n      swap1\n        /* \"contracts/helperLogic.sol\":4979:5111  function setToSseaPercent(uint256 _val) external onlyOwner returns (bool) {... */\n      jump\t// out\n        /* \"contracts/helperLogic.sol\":1429:1455  uint256 public toOpPercent */\n    tag_66:\n      sload(0x6f)\n      dup2\n      jump\t// out\n        /* \"contracts/helperLogic.sol\":1132:1160  IERC20Upgradeable public usc */\n    tag_69:\n      and(sub(shl(0xa0, 0x01), 0x01), sload(0x66))\n      dup2\n      jump\t// out\n        /* \"contracts/helperLogic.sol\":1701:2585  function initialize(... */\n    tag_75:\n        /* \"@openzeppelin/contracts-upgradeable/proxy/utils/Initializable.sol\":539:552  _initializing */\n      sload(0x00)\n      0x0100\n      swap1\n      div\n      0xff\n      and\n      dup1\n        /* \"@openzeppelin/contracts-upgradeable/proxy/utils/Initializable.sol\":539:569  _initializing || !_initialized */\n      tag_201\n      jumpi\n      pop\n        /* \"@openzeppelin/contracts-upgradeable/proxy/utils/Initializable.sol\":557:569  _initialized */\n      and(0xff, sload(0x00))\n        /* \"@openzeppelin/contracts-upgradeable/proxy/utils/Initializable.sol\":556:569  !_initialized */\n      iszero\n        /* \"@openzeppelin/contracts-upgradeable/proxy/utils/Initializable.sol\":539:569  _initializing || !_initialized */\n    tag_201:\n        /* \"@openzeppelin/contracts-upgradeable/proxy/utils/Initializable.sol\":531:620  require(_initializing || !_initialized, \"Initializable: contract is already initialized\") */\n      tag_202\n      jumpi\n      mload(0x40)\n      shl(0xe5, 0x461bcd)\n      dup2\n      mstore\n      0x04\n      add\n      tag_185\n      swap1\n      tag_204\n      jump\t// in\n    tag_202:\n        /* \"@openzeppelin/contracts-upgradeable/proxy/utils/Initializable.sol\":631:650  bool isTopLevelCall */\n      0x00\n        /* \"@openzeppelin/contracts-upgradeable/proxy/utils/Initializable.sol\":654:667  _initializing */\n      sload\n      0x0100\n      swap1\n      div\n      0xff\n      and\n        /* \"@openzeppelin/contracts-upgradeable/proxy/utils/Initializable.sol\":653:667  !_initializing */\n      iszero\n        /* \"@openzeppelin/contracts-upgradeable/proxy/utils/Initializable.sol\":677:775  if (isTopLevelCall) {... */\n      dup1\n      iszero\n      tag_205\n      jumpi\n        /* \"@openzeppelin/contracts-upgradeable/proxy/utils/Initializable.sol\":711:724  _initializing */\n      0x00\n        /* \"@openzeppelin/contracts-upgradeable/proxy/utils/Initializable.sol\":711:731  _initializing = true */\n      dup1\n      sload\n      not(0xff)\n      not(0xff00)\n      swap1\n      swap2\n      and\n      0x0100\n      or\n        /* \"@openzeppelin/contracts-upgradeable/proxy/utils/Initializable.sol\":745:764  _initialized = true */\n      and\n        /* \"@openzeppelin/contracts-upgradeable/proxy/utils/Initializable.sol\":727:731  true */\n      0x01\n        /* \"@openzeppelin/contracts-upgradeable/proxy/utils/Initializable.sol\":745:764  _initialized = true */\n      or\n      swap1\n      sstore\n        /* \"@openzeppelin/contracts-upgradeable/proxy/utils/Initializable.sol\":677:775  if (isTopLevelCall) {... */\n    tag_205:\n        /* \"contracts/helperLogic.sol\":2067:2083  __Ownable_init() */\n      tag_207\n        /* \"contracts/helperLogic.sol\":2067:2081  __Ownable_init */\n      tag_208\n        /* \"contracts/helperLogic.sol\":2067:2083  __Ownable_init() */\n      jump\t// in\n    tag_207:\n        /* \"contracts/helperLogic.sol\":2137:2143  Router */\n      0x6c\n        /* \"contracts/helperLogic.sol\":2137:2153  Router = _Router */\n      dup1\n      sload\n      not(sub(shl(0xa0, 0x01), 0x01))\n      swap1\n      dup2\n      and\n      sub(shl(0xa0, 0x01), 0x01)\n      dup11\n      dup2\n      and\n      swap2\n      swap1\n      swap2\n      or\n      swap1\n      swap3\n      sstore\n        /* \"contracts/helperLogic.sol\":2163:2170  Factory */\n      0x6d\n        /* \"contracts/helperLogic.sol\":2163:2181  Factory = _Factory */\n      dup1\n      sload\n      dup3\n      and\n      dup12\n      dup5\n      and\n      or\n      swap1\n      sstore\n        /* \"contracts/helperLogic.sol\":2191:2194  usc */\n      0x66\n        /* \"contracts/helperLogic.sol\":2191:2201  usc = _usc */\n      dup1\n      sload\n      dup3\n      and\n      dup10\n      dup5\n      and\n      or\n      swap1\n      sstore\n        /* \"contracts/helperLogic.sol\":2211:2214  sea */\n      0x68\n        /* \"contracts/helperLogic.sol\":2211:2221  sea = _sea */\n      dup1\n      sload\n      dup3\n      and\n      dup8\n      dup5\n      and\n      or\n      swap1\n      sstore\n        /* \"contracts/helperLogic.sol\":2231:2235  ssea */\n      0x69\n        /* \"contracts/helperLogic.sol\":2231:2243  ssea = _ssea */\n      dup1\n      sload\n      dup3\n      and\n      dup7\n      dup5\n      and\n      or\n      swap1\n      sstore\n        /* \"contracts/helperLogic.sol\":2253:2255  op */\n      0x6a\n        /* \"contracts/helperLogic.sol\":2253:2268  op = msg.sender */\n      dup1\n      sload\n        /* \"contracts/helperLogic.sol\":2258:2268  msg.sender */\n      caller\n        /* \"contracts/helperLogic.sol\":2253:2268  op = msg.sender */\n      swap1\n      dup4\n      and\n      dup2\n      or\n      swap1\n      swap2\n      sstore\n        /* \"contracts/helperLogic.sol\":2278:2281  dev */\n      0x6b\n        /* \"contracts/helperLogic.sol\":2278:2294  dev = msg.sender */\n      dup1\n      sload\n      dup4\n      and\n      swap1\n      swap2\n      or\n      swap1\n      sstore\n        /* \"contracts/helperLogic.sol\":2320:2324  5000 */\n      0x1388\n        /* \"contracts/helperLogic.sol\":2304:2317  toSseaPercent */\n      0x6e\n        /* \"contracts/helperLogic.sol\":2304:2324  toSseaPercent = 5000 */\n      sstore\n        /* \"contracts/helperLogic.sol\":2348:2352  2500 */\n      0x09c4\n        /* \"contracts/helperLogic.sol\":2334:2345  toOpPercent */\n      0x6f\n        /* \"contracts/helperLogic.sol\":2334:2352  toOpPercent = 2500 */\n      dup2\n      swap1\n      sstore\n        /* \"contracts/helperLogic.sol\":2362:2374  toDevPercent */\n      0x70\n        /* \"contracts/helperLogic.sol\":2362:2381  toDevPercent = 2500 */\n      sstore\n        /* \"contracts/helperLogic.sol\":2403:2408  10000 */\n      0x2710\n        /* \"contracts/helperLogic.sol\":2391:2400  PRECISION */\n      0x71\n        /* \"contracts/helperLogic.sol\":2391:2408  PRECISION = 10000 */\n      sstore\n        /* \"contracts/helperLogic.sol\":2430:2434  1000 */\n      0x03e8\n        /* \"contracts/helperLogic.sol\":2418:2427  basePoint */\n      0x72\n        /* \"contracts/helperLogic.sol\":2418:2434  basePoint = 1000 */\n      sstore\n        /* \"contracts/helperLogic.sol\":2444:2458  autoAdjustFarm */\n      0x74\n        /* \"contracts/helperLogic.sol\":2444:2465  autoAdjustFarm = true */\n      dup1\n      sload\n      shl(0xa0, 0x01)\n      not(shl(0xa0, 0xff))\n      swap1\n      swap2\n      and\n      or\n      not(sub(shl(0xa0, 0xff01), 0x01))\n        /* \"contracts/helperLogic.sol\":2507:2519  farm = _farm */\n      and\n      dup6\n      dup5\n      and\n      or\n      swap1\n      sstore\n        /* \"contracts/helperLogic.sol\":2529:2533  usdc */\n      0x67\n        /* \"contracts/helperLogic.sol\":2529:2541  usdc = _usdc */\n      dup1\n      sload\n      swap1\n      swap2\n      and\n      swap2\n      dup8\n      and\n      swap2\n      swap1\n      swap2\n      or\n      swap1\n      sstore\n        /* \"@openzeppelin/contracts-upgradeable/proxy/utils/Initializable.sol\":797:863  if (isTopLevelCall) {... */\n      dup1\n      iszero\n      tag_209\n      jumpi\n        /* \"@openzeppelin/contracts-upgradeable/proxy/utils/Initializable.sol\":847:852  false */\n      0x00\n        /* \"@openzeppelin/contracts-upgradeable/proxy/utils/Initializable.sol\":831:852  _initializing = false */\n      dup1\n      sload\n      not(0xff00)\n      and\n      swap1\n      sstore\n        /* \"@openzeppelin/contracts-upgradeable/proxy/utils/Initializable.sol\":797:863  if (isTopLevelCall) {... */\n    tag_209:\n        /* \"contracts/helperLogic.sol\":1701:2585  function initialize(... */\n      pop\n      pop\n      pop\n      pop\n      pop\n      pop\n      pop\n      pop\n      jump\t// out\n        /* \"contracts/helperLogic.sol\":1580:1597  IFarm public farm */\n    tag_77:\n      and(sub(shl(0xa0, 0x01), 0x01), sload(0x74))\n      dup2\n      jump\t// out\n        /* \"contracts/helperLogic.sol\":5251:5381  function setToDevPercent(uint256 _val) external onlyOwner returns (bool) {... */\n    tag_82:\n        /* \"contracts/helperLogic.sol\":5318:5322  bool */\n      0x00\n        /* \"@openzeppelin/contracts-upgradeable/access/OwnableUpgradeable.sol\":1525:1537  _msgSender() */\n      tag_211\n        /* \"@openzeppelin/contracts-upgradeable/access/OwnableUpgradeable.sol\":1525:1535  _msgSender */\n      tag_182\n        /* \"@openzeppelin/contracts-upgradeable/access/OwnableUpgradeable.sol\":1525:1537  _msgSender() */\n      jump\t// in\n    tag_211:\n      sub(shl(0xa0, 0x01), 0x01)\n        /* \"@openzeppelin/contracts-upgradeable/access/OwnableUpgradeable.sol\":1514:1537  owner() == _msgSender() */\n      and\n        /* \"@openzeppelin/contracts-upgradeable/access/OwnableUpgradeable.sol\":1514:1521  owner() */\n      tag_212\n        /* \"@openzeppelin/contracts-upgradeable/access/OwnableUpgradeable.sol\":1514:1519  owner */\n      tag_117\n        /* \"@openzeppelin/contracts-upgradeable/access/OwnableUpgradeable.sol\":1514:1521  owner() */\n      jump\t// in\n    tag_212:\n      sub(shl(0xa0, 0x01), 0x01)\n        /* \"@openzeppelin/contracts-upgradeable/access/OwnableUpgradeable.sol\":1514:1537  owner() == _msgSender() */\n      and\n      eq\n        /* \"@openzeppelin/contracts-upgradeable/access/OwnableUpgradeable.sol\":1506:1574  require(owner() == _msgSender(), \"Ownable: caller is not the owner\") */\n      tag_213\n      jumpi\n      mload(0x40)\n      shl(0xe5, 0x461bcd)\n      dup2\n      mstore\n      0x04\n      add\n      tag_185\n      swap1\n      tag_186\n      jump\t// in\n    tag_213:\n      pop\n        /* \"contracts/helperLogic.sol\":5334:5346  toDevPercent */\n      0x70\n        /* \"contracts/helperLogic.sol\":5334:5353  toDevPercent = _val */\n      sstore\n        /* \"contracts/helperLogic.sol\":5370:5374  true */\n      0x01\n      swap1\n        /* \"contracts/helperLogic.sol\":5251:5381  function setToDevPercent(uint256 _val) external onlyOwner returns (bool) {... */\n      jump\t// out\n        /* \"contracts/helperLogic.sol\":1166:1195  IERC20Upgradeable public usdc */\n    tag_85:\n      and(sub(shl(0xa0, 0x01), 0x01), sload(0x67))\n      dup2\n      jump\t// out\n        /* \"contracts/helperLogic.sol\":5387:5520  function setAutoAdjustFarm(bool _bool) external onlyOwner returns (bool) {... */\n    tag_90:\n        /* \"contracts/helperLogic.sol\":5454:5458  bool */\n      0x00\n        /* \"@openzeppelin/contracts-upgradeable/access/OwnableUpgradeable.sol\":1525:1537  _msgSender() */\n      tag_217\n        /* \"@openzeppelin/contracts-upgradeable/access/OwnableUpgradeable.sol\":1525:1535  _msgSender */\n      tag_182\n        /* \"@openzeppelin/contracts-upgradeable/access/OwnableUpgradeable.sol\":1525:1537  _msgSender() */\n      jump\t// in\n    tag_217:\n      sub(shl(0xa0, 0x01), 0x01)\n        /* \"@openzeppelin/contracts-upgradeable/access/OwnableUpgradeable.sol\":1514:1537  owner() == _msgSender() */\n      and\n        /* \"@openzeppelin/contracts-upgradeable/access/OwnableUpgradeable.sol\":1514:1521  owner() */\n      tag_218\n        /* \"@openzeppelin/contracts-upgradeable/access/OwnableUpgradeable.sol\":1514:1519  owner */\n      tag_117\n        /* \"@openzeppelin/contracts-upgradeable/access/OwnableUpgradeable.sol\":1514:1521  owner() */\n      jump\t// in\n    tag_218:\n      sub(shl(0xa0, 0x01), 0x01)\n        /* \"@openzeppelin/contracts-upgradeable/access/OwnableUpgradeable.sol\":1514:1537  owner() == _msgSender() */\n      and\n      eq\n        /* \"@openzeppelin/contracts-upgradeable/access/OwnableUpgradeable.sol\":1506:1574  require(owner() == _msgSender(), \"Ownable: caller is not the owner\") */\n      tag_219\n      jumpi\n      mload(0x40)\n      shl(0xe5, 0x461bcd)\n      dup2\n      mstore\n      0x04\n      add\n      tag_185\n      swap1\n      tag_186\n      jump\t// in\n    tag_219:\n      pop\n        /* \"contracts/helperLogic.sol\":5470:5484  autoAdjustFarm */\n      0x74\n        /* \"contracts/helperLogic.sol\":5470:5492  autoAdjustFarm = _bool */\n      dup1\n      sload\n      dup3\n      iszero\n      iszero\n      shl(0xa0, 0x01)\n      mul\n      not(shl(0xa0, 0xff))\n      swap1\n      swap2\n      and\n      or\n      swap1\n      sstore\n      0x01\n        /* \"contracts/helperLogic.sol\":5387:5520  function setAutoAdjustFarm(bool _bool) external onlyOwner returns (bool) {... */\n      swap2\n      swap1\n      pop\n      jump\t// out\n        /* \"contracts/helperLogic.sol\":1086:1126  mapping(address => bool) public executor */\n    tag_95:\n      mstore(0x20, 0x65)\n      0x00\n      swap1\n      dup2\n      mstore\n      0x40\n      swap1\n      keccak256\n      sload\n      0xff\n      and\n      dup2\n      jump\t// out\n        /* \"contracts/helperLogic.sol\":1461:1488  uint256 public toDevPercent */\n    tag_98:\n      sload(0x70)\n      dup2\n      jump\t// out\n        /* \"contracts/helperLogic.sol\":1201:1229  IERC20Upgradeable public sea */\n    tag_101:\n      and(sub(shl(0xa0, 0x01), 0x01), sload(0x68))\n      dup2\n      jump\t// out\n        /* \"contracts/helperLogic.sol\":5526:5659  function setOpenStabilizer(bool _bool) external onlyOwner returns (bool) {... */\n    tag_105:\n        /* \"contracts/helperLogic.sol\":5593:5597  bool */\n      0x00\n        /* \"@openzeppelin/contracts-upgradeable/access/OwnableUpgradeable.sol\":1525:1537  _msgSender() */\n      tag_223\n        /* \"@openzeppelin/contracts-upgradeable/access/OwnableUpgradeable.sol\":1525:1535  _msgSender */\n      tag_182\n        /* \"@openzeppelin/contracts-upgradeable/access/OwnableUpgradeable.sol\":1525:1537  _msgSender() */\n      jump\t// in\n    tag_223:\n      sub(shl(0xa0, 0x01), 0x01)\n        /* \"@openzeppelin/contracts-upgradeable/access/OwnableUpgradeable.sol\":1514:1537  owner() == _msgSender() */\n      and\n        /* \"@openzeppelin/contracts-upgradeable/access/OwnableUpgradeable.sol\":1514:1521  owner() */\n      tag_224\n        /* \"@openzeppelin/contracts-upgradeable/access/OwnableUpgradeable.sol\":1514:1519  owner */\n      tag_117\n        /* \"@openzeppelin/contracts-upgradeable/access/OwnableUpgradeable.sol\":1514:1521  owner() */\n      jump\t// in\n    tag_224:\n      sub(shl(0xa0, 0x01), 0x01)\n        /* \"@openzeppelin/contracts-upgradeable/access/OwnableUpgradeable.sol\":1514:1537  owner() == _msgSender() */\n      and\n      eq\n        /* \"@openzeppelin/contracts-upgradeable/access/OwnableUpgradeable.sol\":1506:1574  require(owner() == _msgSender(), \"Ownable: caller is not the owner\") */\n      tag_225\n      jumpi\n      mload(0x40)\n      shl(0xe5, 0x461bcd)\n      dup2\n      mstore\n      0x04\n      add\n      tag_185\n      swap1\n      tag_186\n      jump\t// in\n    tag_225:\n      pop\n        /* \"contracts/helperLogic.sol\":5609:5623  openStabilizer */\n      0x74\n        /* \"contracts/helperLogic.sol\":5609:5631  openStabilizer = _bool */\n      dup1\n      sload\n      dup3\n      iszero\n      iszero\n      shl(0xa8, 0x01)\n      mul\n      not(shl(0xa8, 0xff))\n      swap1\n      swap2\n      and\n      or\n      swap1\n      sstore\n      0x01\n        /* \"contracts/helperLogic.sol\":5526:5659  function setOpenStabilizer(bool _bool) external onlyOwner returns (bool) {... */\n      swap2\n      swap1\n      pop\n      jump\t// out\n        /* \"contracts/helperLogic.sol\":1636:1662  bool public openStabilizer */\n    tag_108:\n      sload(0x74)\n      shl(0xa8, 0x01)\n      swap1\n      div\n      0xff\n      and\n      dup2\n      jump\t// out\n        /* \"@openzeppelin/contracts-upgradeable/access/OwnableUpgradeable.sol\":1934:2035  function renounceOwnership() public virtual onlyOwner {... */\n    tag_111:\n        /* \"@openzeppelin/contracts-upgradeable/access/OwnableUpgradeable.sol\":1525:1537  _msgSender() */\n      tag_229\n        /* \"@openzeppelin/contracts-upgradeable/access/OwnableUpgradeable.sol\":1525:1535  _msgSender */\n      tag_182\n        /* \"@openzeppelin/contracts-upgradeable/access/OwnableUpgradeable.sol\":1525:1537  _msgSender() */\n      jump\t// in\n    tag_229:\n      sub(shl(0xa0, 0x01), 0x01)\n        /* \"@openzeppelin/contracts-upgradeable/access/OwnableUpgradeable.sol\":1514:1537  owner() == _msgSender() */\n      and\n        /* \"@openzeppelin/contracts-upgradeable/access/OwnableUpgradeable.sol\":1514:1521  owner() */\n      tag_230\n        /* \"@openzeppelin/contracts-upgradeable/access/OwnableUpgradeable.sol\":1514:1519  owner */\n      tag_117\n        /* \"@openzeppelin/contracts-upgradeable/access/OwnableUpgradeable.sol\":1514:1521  owner() */\n      jump\t// in\n    tag_230:\n      sub(shl(0xa0, 0x01), 0x01)\n        /* \"@openzeppelin/contracts-upgradeable/access/OwnableUpgradeable.sol\":1514:1537  owner() == _msgSender() */\n      and\n      eq\n        /* \"@openzeppelin/contracts-upgradeable/access/OwnableUpgradeable.sol\":1506:1574  require(owner() == _msgSender(), \"Ownable: caller is not the owner\") */\n      tag_231\n      jumpi\n      mload(0x40)\n      shl(0xe5, 0x461bcd)\n      dup2\n      mstore\n      0x04\n      add\n      tag_185\n      swap1\n      tag_186\n      jump\t// in\n    tag_231:\n        /* \"@openzeppelin/contracts-upgradeable/access/OwnableUpgradeable.sol\":1998:2028  _transferOwnership(address(0)) */\n      tag_234\n        /* \"@openzeppelin/contracts-upgradeable/access/OwnableUpgradeable.sol\":2025:2026  0 */\n      0x00\n        /* \"@openzeppelin/contracts-upgradeable/access/OwnableUpgradeable.sol\":1998:2016  _transferOwnership */\n      tag_235\n        /* \"@openzeppelin/contracts-upgradeable/access/OwnableUpgradeable.sol\":1998:2028  _transferOwnership(address(0)) */\n      jump\t// in\n    tag_234:\n        /* \"@openzeppelin/contracts-upgradeable/access/OwnableUpgradeable.sol\":1934:2035  function renounceOwnership() public virtual onlyOwner {... */\n      jump\t// out\n        /* \"contracts/helperLogic.sol\":1669:1694  address public stabilizer */\n    tag_113:\n      and(sub(shl(0xa0, 0x01), 0x01), sload(0x75))\n      dup2\n      jump\t// out\n        /* \"@openzeppelin/contracts-upgradeable/access/OwnableUpgradeable.sol\":1302:1387  function owner() public view virtual returns (address) {... */\n    tag_117:\n        /* \"@openzeppelin/contracts-upgradeable/access/OwnableUpgradeable.sol\":1374:1380  _owner */\n      and(sub(shl(0xa0, 0x01), 0x01), sload(0x33))\n        /* \"@openzeppelin/contracts-upgradeable/access/OwnableUpgradeable.sol\":1302:1387  function owner() public view virtual returns (address) {... */\n      swap1\n      jump\t// out\n        /* \"contracts/helperLogic.sol\":1293:1311  address public dev */\n    tag_120:\n      and(sub(shl(0xa0, 0x01), 0x01), sload(0x6b))\n      dup2\n      jump\t// out\n        /* \"contracts/helperLogic.sol\":4508:4723  function withdrawalERC20(address _address, uint256 _amt)... */\n    tag_125:\n        /* \"contracts/helperLogic.sol\":4617:4621  bool */\n      0x00\n        /* \"@openzeppelin/contracts-upgradeable/access/OwnableUpgradeable.sol\":1525:1537  _msgSender() */\n      tag_238\n        /* \"@openzeppelin/contracts-upgradeable/access/OwnableUpgradeable.sol\":1525:1535  _msgSender */\n      tag_182\n        /* \"@openzeppelin/contracts-upgradeable/access/OwnableUpgradeable.sol\":1525:1537  _msgSender() */\n      jump\t// in\n    tag_238:\n      sub(shl(0xa0, 0x01), 0x01)\n        /* \"@openzeppelin/contracts-upgradeable/access/OwnableUpgradeable.sol\":1514:1537  owner() == _msgSender() */\n      and\n        /* \"@openzeppelin/contracts-upgradeable/access/OwnableUpgradeable.sol\":1514:1521  owner() */\n      tag_239\n        /* \"@openzeppelin/contracts-upgradeable/access/OwnableUpgradeable.sol\":1514:1519  owner */\n      tag_117\n        /* \"@openzeppelin/contracts-upgradeable/access/OwnableUpgradeable.sol\":1514:1521  owner() */\n      jump\t// in\n    tag_239:\n      sub(shl(0xa0, 0x01), 0x01)\n        /* \"@openzeppelin/contracts-upgradeable/access/OwnableUpgradeable.sol\":1514:1537  owner() == _msgSender() */\n      and\n      eq\n        /* \"@openzeppelin/contracts-upgradeable/access/OwnableUpgradeable.sol\":1506:1574  require(owner() == _msgSender(), \"Ownable: caller is not the owner\") */\n      tag_240\n      jumpi\n      mload(0x40)\n      shl(0xe5, 0x461bcd)\n      dup2\n      mstore\n      0x04\n      add\n      tag_185\n      swap1\n      tag_186\n      jump\t// in\n    tag_240:\n        /* \"contracts/helperLogic.sol\":4637:4695  IERC20Upgradeable(_address).safeTransfer(msg.sender, _amt) */\n      tag_243\n      sub(shl(0xa0, 0x01), 0x01)\n        /* \"contracts/helperLogic.sol\":4637:4677  IERC20Upgradeable(_address).safeTransfer */\n      dup5\n      and\n        /* \"contracts/helperLogic.sol\":4678:4688  msg.sender */\n      caller\n        /* \"contracts/helperLogic.sol\":4690:4694  _amt */\n      dup5\n        /* \"contracts/helperLogic.sol\":4637:4677  IERC20Upgradeable(_address).safeTransfer */\n      tag_244\n        /* \"contracts/helperLogic.sol\":4637:4695  IERC20Upgradeable(_address).safeTransfer(msg.sender, _amt) */\n      jump\t// in\n    tag_243:\n      pop\n        /* \"contracts/helperLogic.sol\":4712:4716  true */\n      0x01\n        /* \"contracts/helperLogic.sol\":4508:4723  function withdrawalERC20(address _address, uint256 _amt)... */\n      swap3\n      swap2\n      pop\n      pop\n      jump\t// out\n        /* \"contracts/helperLogic.sol\":1604:1630  bool public autoAdjustFarm */\n    tag_128:\n      sload(0x74)\n      shl(0xa0, 0x01)\n      swap1\n      div\n      0xff\n      and\n      dup2\n      jump\t// out\n        /* \"contracts/helperLogic.sol\":4729:4847  function setOp(address _address) external onlyOwner returns (bool) {... */\n    tag_132:\n        /* \"contracts/helperLogic.sol\":4790:4794  bool */\n      0x00\n        /* \"@openzeppelin/contracts-upgradeable/access/OwnableUpgradeable.sol\":1525:1537  _msgSender() */\n      tag_246\n        /* \"@openzeppelin/contracts-upgradeable/access/OwnableUpgradeable.sol\":1525:1535  _msgSender */\n      tag_182\n        /* \"@openzeppelin/contracts-upgradeable/access/OwnableUpgradeable.sol\":1525:1537  _msgSender() */\n      jump\t// in\n    tag_246:\n      sub(shl(0xa0, 0x01), 0x01)\n        /* \"@openzeppelin/contracts-upgradeable/access/OwnableUpgradeable.sol\":1514:1537  owner() == _msgSender() */\n      and\n        /* \"@openzeppelin/contracts-upgradeable/access/OwnableUpgradeable.sol\":1514:1521  owner() */\n      tag_247\n        /* \"@openzeppelin/contracts-upgradeable/access/OwnableUpgradeable.sol\":1514:1519  owner */\n      tag_117\n        /* \"@openzeppelin/contracts-upgradeable/access/OwnableUpgradeable.sol\":1514:1521  owner() */\n      jump\t// in\n    tag_247:\n      sub(shl(0xa0, 0x01), 0x01)\n        /* \"@openzeppelin/contracts-upgradeable/access/OwnableUpgradeable.sol\":1514:1537  owner() == _msgSender() */\n      and\n      eq\n        /* \"@openzeppelin/contracts-upgradeable/access/OwnableUpgradeable.sol\":1506:1574  require(owner() == _msgSender(), \"Ownable: caller is not the owner\") */\n      tag_248\n      jumpi\n      mload(0x40)\n      shl(0xe5, 0x461bcd)\n      dup2\n      mstore\n      0x04\n      add\n      tag_185\n      swap1\n      tag_186\n      jump\t// in\n    tag_248:\n      pop\n        /* \"contracts/helperLogic.sol\":4806:4808  op */\n      0x6a\n        /* \"contracts/helperLogic.sol\":4806:4819  op = _address */\n      dup1\n      sload\n      sub(shl(0xa0, 0x01), 0x01)\n      dup4\n      and\n      not(sub(shl(0xa0, 0x01), 0x01))\n      swap1\n      swap2\n      and\n      or\n      swap1\n      sstore\n      0x01\n        /* \"contracts/helperLogic.sol\":4729:4847  function setOp(address _address) external onlyOwner returns (bool) {... */\n      swap2\n      swap1\n      pop\n      jump\t// out\n        /* \"contracts/helperLogic.sol\":5923:6084  function setUSDCAddress(IERC20Upgradeable _usdc)... */\n    tag_137:\n        /* \"contracts/helperLogic.sol\":6024:6028  bool */\n      0x00\n        /* \"@openzeppelin/contracts-upgradeable/access/OwnableUpgradeable.sol\":1525:1537  _msgSender() */\n      tag_252\n        /* \"@openzeppelin/contracts-upgradeable/access/OwnableUpgradeable.sol\":1525:1535  _msgSender */\n      tag_182\n        /* \"@openzeppelin/contracts-upgradeable/access/OwnableUpgradeable.sol\":1525:1537  _msgSender() */\n      jump\t// in\n    tag_252:\n      sub(shl(0xa0, 0x01), 0x01)\n        /* \"@openzeppelin/contracts-upgradeable/access/OwnableUpgradeable.sol\":1514:1537  owner() == _msgSender() */\n      and\n        /* \"@openzeppelin/contracts-upgradeable/access/OwnableUpgradeable.sol\":1514:1521  owner() */\n      tag_253\n        /* \"@openzeppelin/contracts-upgradeable/access/OwnableUpgradeable.sol\":1514:1519  owner */\n      tag_117\n        /* \"@openzeppelin/contracts-upgradeable/access/OwnableUpgradeable.sol\":1514:1521  owner() */\n      jump\t// in\n    tag_253:\n      sub(shl(0xa0, 0x01), 0x01)\n        /* \"@openzeppelin/contracts-upgradeable/access/OwnableUpgradeable.sol\":1514:1537  owner() == _msgSender() */\n      and\n      eq\n        /* \"@openzeppelin/contracts-upgradeable/access/OwnableUpgradeable.sol\":1506:1574  require(owner() == _msgSender(), \"Ownable: caller is not the owner\") */\n      tag_254\n      jumpi\n      mload(0x40)\n      shl(0xe5, 0x461bcd)\n      dup2\n      mstore\n      0x04\n      add\n      tag_185\n      swap1\n      tag_186\n      jump\t// in\n    tag_254:\n      pop\n        /* \"contracts/helperLogic.sol\":6044:6048  usdc */\n      0x67\n        /* \"contracts/helperLogic.sol\":6044:6056  usdc = _usdc */\n      dup1\n      sload\n      sub(shl(0xa0, 0x01), 0x01)\n      dup4\n      and\n      not(sub(shl(0xa0, 0x01), 0x01))\n      swap1\n      swap2\n      and\n      or\n      swap1\n      sstore\n      0x01\n        /* \"contracts/helperLogic.sol\":5923:6084  function setUSDCAddress(IERC20Upgradeable _usdc)... */\n      swap2\n      swap1\n      pop\n      jump\t// out\n        /* \"contracts/helperLogic.sol\":1494:1518  uint256 public PRECISION */\n    tag_140:\n      sload(0x71)\n      dup2\n      jump\t// out\n        /* \"contracts/helperLogic.sol\":5117:5245  function setToOpPercent(uint256 _val) external onlyOwner returns (bool) {... */\n    tag_144:\n        /* \"contracts/helperLogic.sol\":5183:5187  bool */\n      0x00\n        /* \"@openzeppelin/contracts-upgradeable/access/OwnableUpgradeable.sol\":1525:1537  _msgSender() */\n      tag_258\n        /* \"@openzeppelin/contracts-upgradeable/access/OwnableUpgradeable.sol\":1525:1535  _msgSender */\n      tag_182\n        /* \"@openzeppelin/contracts-upgradeable/access/OwnableUpgradeable.sol\":1525:1537  _msgSender() */\n      jump\t// in\n    tag_258:\n      sub(shl(0xa0, 0x01), 0x01)\n        /* \"@openzeppelin/contracts-upgradeable/access/OwnableUpgradeable.sol\":1514:1537  owner() == _msgSender() */\n      and\n        /* \"@openzeppelin/contracts-upgradeable/access/OwnableUpgradeable.sol\":1514:1521  owner() */\n      tag_259\n        /* \"@openzeppelin/contracts-upgradeable/access/OwnableUpgradeable.sol\":1514:1519  owner */\n      tag_117\n        /* \"@openzeppelin/contracts-upgradeable/access/OwnableUpgradeable.sol\":1514:1521  owner() */\n      jump\t// in\n    tag_259:\n      sub(shl(0xa0, 0x01), 0x01)\n        /* \"@openzeppelin/contracts-upgradeable/access/OwnableUpgradeable.sol\":1514:1537  owner() == _msgSender() */\n      and\n      eq\n        /* \"@openzeppelin/contracts-upgradeable/access/OwnableUpgradeable.sol\":1506:1574  require(owner() == _msgSender(), \"Ownable: caller is not the owner\") */\n      tag_260\n      jumpi\n      mload(0x40)\n      shl(0xe5, 0x461bcd)\n      dup2\n      mstore\n      0x04\n      add\n      tag_185\n      swap1\n      tag_186\n      jump\t// in\n    tag_260:\n      pop\n        /* \"contracts/helperLogic.sol\":5199:5210  toOpPercent */\n      0x6f\n        /* \"contracts/helperLogic.sol\":5199:5217  toOpPercent = _val */\n      sstore\n        /* \"contracts/helperLogic.sol\":5234:5238  true */\n      0x01\n      swap1\n        /* \"contracts/helperLogic.sol\":5117:5245  function setToOpPercent(uint256 _val) external onlyOwner returns (bool) {... */\n      jump\t// out\n        /* \"contracts/helperLogic.sol\":1235:1264  IERC20Upgradeable public ssea */\n    tag_147:\n      and(sub(shl(0xa0, 0x01), 0x01), sload(0x69))\n      dup2\n      jump\t// out\n        /* \"contracts/helperLogic.sol\":1395:1423  uint256 public toSseaPercent */\n    tag_150:\n      sload(0x6e)\n      dup2\n      jump\t// out\n        /* \"contracts/helperLogic.sol\":1356:1388  IUniswapV2Factory public Factory */\n    tag_153:\n      and(sub(shl(0xa0, 0x01), 0x01), sload(0x6d))\n      dup2\n      jump\t// out\n        /* \"contracts/helperLogic.sol\":2901:3558  function jointExecution() external onlyExecutor returns (bool) {... */\n    tag_157:\n        /* \"contracts/helperLogic.sol\":2825:2835  msg.sender */\n      caller\n        /* \"contracts/helperLogic.sol\":2958:2962  bool */\n      0x00\n        /* \"contracts/helperLogic.sol\":2816:2836  executor[msg.sender] */\n      swap1\n      dup2\n      mstore\n        /* \"contracts/helperLogic.sol\":2816:2824  executor */\n      0x65\n        /* \"contracts/helperLogic.sol\":2816:2836  executor[msg.sender] */\n      0x20\n      mstore\n      0x40\n      dup2\n      keccak256\n      sload\n      0xff\n      and\n        /* \"contracts/helperLogic.sol\":2808:2877  require(executor[msg.sender], \"executor: caller is not the executor\") */\n      tag_264\n      jumpi\n      mload(0x40)\n      shl(0xe5, 0x461bcd)\n      dup2\n      mstore\n      0x04\n      add\n      tag_185\n      swap1\n      tag_266\n      jump\t// in\n    tag_264:\n        /* \"contracts/helperLogic.sol\":2997:3000  usc */\n      sload(0x66)\n        /* \"contracts/helperLogic.sol\":2997:3025  usc.balanceOf(address(this)) */\n      mload(0x40)\n      shl(0xe0, 0x70a08231)\n      dup2\n      mstore\n        /* \"contracts/helperLogic.sol\":2974:2994  uint256 uscBalanceOf */\n      0x00\n      swap2\n      sub(shl(0xa0, 0x01), 0x01)\n        /* \"contracts/helperLogic.sol\":2997:3000  usc */\n      and\n      swap1\n        /* \"contracts/helperLogic.sol\":2997:3010  usc.balanceOf */\n      0x70a08231\n      swap1\n        /* \"contracts/helperLogic.sol\":2997:3025  usc.balanceOf(address(this)) */\n      tag_268\n      swap1\n        /* \"contracts/helperLogic.sol\":3019:3023  this */\n      address\n      swap1\n        /* \"contracts/helperLogic.sol\":2997:3025  usc.balanceOf(address(this)) */\n      0x04\n      add\n      tag_115\n      jump\t// in\n    tag_268:\n      0x20\n      mload(0x40)\n      dup1\n      dup4\n      sub\n      dup2\n      dup7\n      dup1\n      extcodesize\n      iszero\n      dup1\n      iszero\n      tag_269\n      jumpi\n      0x00\n      dup1\n      revert\n    tag_269:\n      pop\n      gas\n      staticcall\n      iszero\n      dup1\n      iszero\n      tag_271\n      jumpi\n      returndatasize\n      0x00\n      dup1\n      returndatacopy\n      revert(0x00, returndatasize)\n    tag_271:\n      pop\n      pop\n      pop\n      pop\n      mload(0x40)\n      returndatasize\n      not(0x1f)\n      0x1f\n      dup3\n      add\n      and\n      dup3\n      add\n      dup1\n      0x40\n      mstore\n      pop\n      dup2\n      add\n      swap1\n      tag_272\n      swap2\n      swap1\n      tag_273\n      jump\t// in\n    tag_272:\n        /* \"contracts/helperLogic.sol\":2974:3025  uint256 uscBalanceOf = usc.balanceOf(address(this)) */\n      swap1\n      pop\n        /* \"contracts/helperLogic.sol\":3035:3049  uint256 toSsea */\n      0x00\n        /* \"contracts/helperLogic.sol\":3052:3098  uscBalanceOf.mul(toSseaPercent).div(PRECISION) */\n      tag_274\n        /* \"contracts/helperLogic.sol\":3088:3097  PRECISION */\n      sload(0x71)\n        /* \"contracts/helperLogic.sol\":3052:3083  uscBalanceOf.mul(toSseaPercent) */\n      tag_275\n        /* \"contracts/helperLogic.sol\":3069:3082  toSseaPercent */\n      sload(0x6e)\n        /* \"contracts/helperLogic.sol\":3052:3064  uscBalanceOf */\n      dup6\n        /* \"contracts/helperLogic.sol\":3052:3068  uscBalanceOf.mul */\n      tag_276\n      swap1\n        /* \"contracts/helperLogic.sol\":3052:3083  uscBalanceOf.mul(toSseaPercent) */\n      swap2\n      swap1\n      0xffffffff\n      and\n      jump\t// in\n    tag_275:\n        /* \"contracts/helperLogic.sol\":3052:3087  uscBalanceOf.mul(toSseaPercent).div */\n      swap1\n      tag_277\n        /* \"contracts/helperLogic.sol\":3052:3098  uscBalanceOf.mul(toSseaPercent).div(PRECISION) */\n      jump\t// in\n    tag_274:\n        /* \"contracts/helperLogic.sol\":3035:3098  uint256 toSsea = uscBalanceOf.mul(toSseaPercent).div(PRECISION) */\n      swap1\n      pop\n        /* \"contracts/helperLogic.sol\":3108:3120  uint256 toOp */\n      0x00\n        /* \"contracts/helperLogic.sol\":3123:3167  uscBalanceOf.mul(toOpPercent).div(PRECISION) */\n      tag_278\n        /* \"contracts/helperLogic.sol\":3157:3166  PRECISION */\n      sload(0x71)\n        /* \"contracts/helperLogic.sol\":3123:3152  uscBalanceOf.mul(toOpPercent) */\n      tag_275\n        /* \"contracts/helperLogic.sol\":3140:3151  toOpPercent */\n      sload(0x6f)\n        /* \"contracts/helperLogic.sol\":3123:3135  uscBalanceOf */\n      dup7\n        /* \"contracts/helperLogic.sol\":3123:3139  uscBalanceOf.mul */\n      tag_276\n      swap1\n        /* \"contracts/helperLogic.sol\":3123:3152  uscBalanceOf.mul(toOpPercent) */\n      swap2\n      swap1\n      0xffffffff\n      and\n      jump\t// in\n        /* \"contracts/helperLogic.sol\":3123:3167  uscBalanceOf.mul(toOpPercent).div(PRECISION) */\n    tag_278:\n        /* \"contracts/helperLogic.sol\":3108:3167  uint256 toOp = uscBalanceOf.mul(toOpPercent).div(PRECISION) */\n      swap1\n      pop\n        /* \"contracts/helperLogic.sol\":3177:3190  uint256 toDev */\n      0x00\n        /* \"contracts/helperLogic.sol\":3193:3227  uscBalanceOf.sub(toSsea).sub(toOp) */\n      tag_280\n        /* \"contracts/helperLogic.sol\":3108:3167  uint256 toOp = uscBalanceOf.mul(toOpPercent).div(PRECISION) */\n      dup3\n        /* \"contracts/helperLogic.sol\":3193:3217  uscBalanceOf.sub(toSsea) */\n      tag_281\n        /* \"contracts/helperLogic.sol\":3193:3205  uscBalanceOf */\n      dup7\n        /* \"contracts/helperLogic.sol\":3210:3216  toSsea */\n      dup7\n        /* \"contracts/helperLogic.sol\":3193:3209  uscBalanceOf.sub */\n      tag_282\n        /* \"contracts/helperLogic.sol\":3193:3217  uscBalanceOf.sub(toSsea) */\n      jump\t// in\n    tag_281:\n        /* \"contracts/helperLogic.sol\":3193:3221  uscBalanceOf.sub(toSsea).sub */\n      swap1\n      tag_282\n        /* \"contracts/helperLogic.sol\":3193:3227  uscBalanceOf.sub(toSsea).sub(toOp) */\n      jump\t// in\n    tag_280:\n        /* \"contracts/helperLogic.sol\":3263:3267  ssea */\n      sload(0x69)\n        /* \"contracts/helperLogic.sol\":3238:3241  usc */\n      sload(0x66)\n        /* \"contracts/helperLogic.sol\":3177:3227  uint256 toDev = uscBalanceOf.sub(toSsea).sub(toOp) */\n      swap2\n      swap3\n      pop\n        /* \"contracts/helperLogic.sol\":3238:3277  usc.safeTransfer(address(ssea), toSsea) */\n      tag_283\n      swap2\n      sub(shl(0xa0, 0x01), 0x01)\n        /* \"contracts/helperLogic.sol\":3238:3241  usc */\n      swap1\n      dup2\n      and\n      swap2\n        /* \"contracts/helperLogic.sol\":3263:3267  ssea */\n      and\n        /* \"contracts/helperLogic.sol\":3270:3276  toSsea */\n      dup6\n        /* \"contracts/helperLogic.sol\":3238:3254  usc.safeTransfer */\n      tag_244\n        /* \"contracts/helperLogic.sol\":3238:3277  usc.safeTransfer(address(ssea), toSsea) */\n      jump\t// in\n    tag_283:\n        /* \"contracts/helperLogic.sol\":3312:3314  op */\n      sload(0x6a)\n        /* \"contracts/helperLogic.sol\":3287:3290  usc */\n      sload(0x66)\n        /* \"contracts/helperLogic.sol\":3287:3322  usc.safeTransfer(address(op), toOp) */\n      tag_284\n      swap2\n      sub(shl(0xa0, 0x01), 0x01)\n        /* \"contracts/helperLogic.sol\":3287:3290  usc */\n      swap2\n      dup3\n      and\n      swap2\n        /* \"contracts/helperLogic.sol\":3312:3314  op */\n      and\n        /* \"contracts/helperLogic.sol\":3317:3321  toOp */\n      dup5\n        /* \"contracts/helperLogic.sol\":3287:3303  usc.safeTransfer */\n      tag_244\n        /* \"contracts/helperLogic.sol\":3287:3322  usc.safeTransfer(address(op), toOp) */\n      jump\t// in\n    tag_284:\n        /* \"contracts/helperLogic.sol\":3357:3360  dev */\n      sload(0x6b)\n        /* \"contracts/helperLogic.sol\":3332:3335  usc */\n      sload(0x66)\n        /* \"contracts/helperLogic.sol\":3332:3369  usc.safeTransfer(address(dev), toDev) */\n      tag_285\n      swap2\n      sub(shl(0xa0, 0x01), 0x01)\n        /* \"contracts/helperLogic.sol\":3332:3335  usc */\n      swap2\n      dup3\n      and\n      swap2\n        /* \"contracts/helperLogic.sol\":3357:3360  dev */\n      and\n        /* \"contracts/helperLogic.sol\":3363:3368  toDev */\n      dup4\n        /* \"contracts/helperLogic.sol\":3332:3348  usc.safeTransfer */\n      tag_244\n        /* \"contracts/helperLogic.sol\":3332:3369  usc.safeTransfer(address(dev), toDev) */\n      jump\t// in\n    tag_285:\n        /* \"contracts/helperLogic.sol\":3384:3398  autoAdjustFarm */\n      sload(0x74)\n      shl(0xa0, 0x01)\n      swap1\n      div\n      0xff\n      and\n        /* \"contracts/helperLogic.sol\":3380:3437  if (autoAdjustFarm) {... */\n      iszero\n      tag_287\n      jumpi\n        /* \"contracts/helperLogic.sol\":3414:3426  adjustFarm() */\n      tag_287\n        /* \"contracts/helperLogic.sol\":3414:3424  adjustFarm */\n      tag_288\n        /* \"contracts/helperLogic.sol\":3414:3426  adjustFarm() */\n      jump\t// in\n    tag_287:\n        /* \"contracts/helperLogic.sol\":3451:3465  openStabilizer */\n      sload(0x74)\n      shl(0xa8, 0x01)\n      swap1\n      div\n      0xff\n      and\n        /* \"contracts/helperLogic.sol\":3447:3530  if (openStabilizer) {... */\n      iszero\n      tag_289\n      jumpi\n        /* \"contracts/helperLogic.sol\":3493:3503  stabilizer */\n      0x75\n      0x00\n      swap1\n      sload\n      swap1\n      0x0100\n      exp\n      swap1\n      div\n      sub(shl(0xa0, 0x01), 0x01)\n      and\n      sub(shl(0xa0, 0x01), 0x01)\n        /* \"contracts/helperLogic.sol\":3481:3517  IStabilizer(stabilizer).goStabilizer */\n      and\n      0x796c7be7\n        /* \"contracts/helperLogic.sol\":3481:3519  IStabilizer(stabilizer).goStabilizer() */\n      mload(0x40)\n      dup2\n      0xffffffff\n      and\n      0xe0\n      shl\n      dup2\n      mstore\n      0x04\n      add\n      0x20\n      mload(0x40)\n      dup1\n      dup4\n      sub\n      dup2\n      0x00\n      dup8\n      dup1\n      extcodesize\n      iszero\n      dup1\n      iszero\n      tag_290\n      jumpi\n      0x00\n      dup1\n      revert\n    tag_290:\n      pop\n      gas\n      call\n      iszero\n      dup1\n      iszero\n      tag_292\n      jumpi\n      returndatasize\n      0x00\n      dup1\n      returndatacopy\n      revert(0x00, returndatasize)\n    tag_292:\n      pop\n      pop\n      pop\n      pop\n      mload(0x40)\n      returndatasize\n      not(0x1f)\n      0x1f\n      dup3\n      add\n      and\n      dup3\n      add\n      dup1\n      0x40\n      mstore\n      pop\n      dup2\n      add\n      swap1\n      tag_293\n      swap2\n      swap1\n      tag_294\n      jump\t// in\n    tag_293:\n      pop\n        /* \"contracts/helperLogic.sol\":3447:3530  if (openStabilizer) {... */\n    tag_289:\n        /* \"contracts/helperLogic.sol\":3547:3551  true */\n      0x01\n        /* \"contracts/helperLogic.sol\":3540:3551  return true */\n      swap5\n      pop\n      pop\n      pop\n      pop\n      pop\n        /* \"contracts/helperLogic.sol\":2901:3558  function jointExecution() external onlyExecutor returns (bool) {... */\n      swap1\n      jump\t// out\n        /* \"contracts/helperLogic.sol\":4853:4973  function setDev(address _address) external onlyOwner returns (bool) {... */\n    tag_161:\n        /* \"contracts/helperLogic.sol\":4915:4919  bool */\n      0x00\n        /* \"@openzeppelin/contracts-upgradeable/access/OwnableUpgradeable.sol\":1525:1537  _msgSender() */\n      tag_296\n        /* \"@openzeppelin/contracts-upgradeable/access/OwnableUpgradeable.sol\":1525:1535  _msgSender */\n      tag_182\n        /* \"@openzeppelin/contracts-upgradeable/access/OwnableUpgradeable.sol\":1525:1537  _msgSender() */\n      jump\t// in\n    tag_296:\n      sub(shl(0xa0, 0x01), 0x01)\n        /* \"@openzeppelin/contracts-upgradeable/access/OwnableUpgradeable.sol\":1514:1537  owner() == _msgSender() */\n      and\n        /* \"@openzeppelin/contracts-upgradeable/access/OwnableUpgradeable.sol\":1514:1521  owner() */\n      tag_297\n        /* \"@openzeppelin/contracts-upgradeable/access/OwnableUpgradeable.sol\":1514:1519  owner */\n      tag_117\n        /* \"@openzeppelin/contracts-upgradeable/access/OwnableUpgradeable.sol\":1514:1521  owner() */\n      jump\t// in\n    tag_297:\n      sub(shl(0xa0, 0x01), 0x01)\n        /* \"@openzeppelin/contracts-upgradeable/access/OwnableUpgradeable.sol\":1514:1537  owner() == _msgSender() */\n      and\n      eq\n        /* \"@openzeppelin/contracts-upgradeable/access/OwnableUpgradeable.sol\":1506:1574  require(owner() == _msgSender(), \"Ownable: caller is not the owner\") */\n      tag_298\n      jumpi\n      mload(0x40)\n      shl(0xe5, 0x461bcd)\n      dup2\n      mstore\n      0x04\n      add\n      tag_185\n      swap1\n      tag_186\n      jump\t// in\n    tag_298:\n      pop\n        /* \"contracts/helperLogic.sol\":4931:4934  dev */\n      0x6b\n        /* \"contracts/helperLogic.sol\":4931:4945  dev = _address */\n      dup1\n      sload\n      sub(shl(0xa0, 0x01), 0x01)\n      dup4\n      and\n      not(sub(shl(0xa0, 0x01), 0x01))\n      swap1\n      swap2\n      and\n      or\n      swap1\n      sstore\n      0x01\n        /* \"contracts/helperLogic.sol\":4853:4973  function setDev(address _address) external onlyOwner returns (bool) {... */\n      swap2\n      swap1\n      pop\n      jump\t// out\n        /* \"contracts/helperLogic.sol\":5665:5799  function setStabilizer(address _address) external onlyOwner returns (bool) {... */\n    tag_165:\n        /* \"contracts/helperLogic.sol\":5734:5738  bool */\n      0x00\n        /* \"@openzeppelin/contracts-upgradeable/access/OwnableUpgradeable.sol\":1525:1537  _msgSender() */\n      tag_302\n        /* \"@openzeppelin/contracts-upgradeable/access/OwnableUpgradeable.sol\":1525:1535  _msgSender */\n      tag_182\n        /* \"@openzeppelin/contracts-upgradeable/access/OwnableUpgradeable.sol\":1525:1537  _msgSender() */\n      jump\t// in\n    tag_302:\n      sub(shl(0xa0, 0x01), 0x01)\n        /* \"@openzeppelin/contracts-upgradeable/access/OwnableUpgradeable.sol\":1514:1537  owner() == _msgSender() */\n      and\n        /* \"@openzeppelin/contracts-upgradeable/access/OwnableUpgradeable.sol\":1514:1521  owner() */\n      tag_303\n        /* \"@openzeppelin/contracts-upgradeable/access/OwnableUpgradeable.sol\":1514:1519  owner */\n      tag_117\n        /* \"@openzeppelin/contracts-upgradeable/access/OwnableUpgradeable.sol\":1514:1521  owner() */\n      jump\t// in\n    tag_303:\n      sub(shl(0xa0, 0x01), 0x01)\n        /* \"@openzeppelin/contracts-upgradeable/access/OwnableUpgradeable.sol\":1514:1537  owner() == _msgSender() */\n      and\n      eq\n        /* \"@openzeppelin/contracts-upgradeable/access/OwnableUpgradeable.sol\":1506:1574  require(owner() == _msgSender(), \"Ownable: caller is not the owner\") */\n      tag_304\n      jumpi\n      mload(0x40)\n      shl(0xe5, 0x461bcd)\n      dup2\n      mstore\n      0x04\n      add\n      tag_185\n      swap1\n      tag_186\n      jump\t// in\n    tag_304:\n      pop\n        /* \"contracts/helperLogic.sol\":5750:5760  stabilizer */\n      0x75\n        /* \"contracts/helperLogic.sol\":5750:5771  stabilizer = _address */\n      dup1\n      sload\n      sub(shl(0xa0, 0x01), 0x01)\n      dup4\n      and\n      not(sub(shl(0xa0, 0x01), 0x01))\n      swap1\n      swap2\n      and\n      or\n      swap1\n      sstore\n      0x01\n        /* \"contracts/helperLogic.sol\":5665:5799  function setStabilizer(address _address) external onlyOwner returns (bool) {... */\n      swap2\n      swap1\n      pop\n      jump\t// out\n        /* \"contracts/helperLogic.sol\":1270:1287  address public op */\n    tag_168:\n      and(sub(shl(0xa0, 0x01), 0x01), sload(0x6a))\n      dup2\n      jump\t// out\n        /* \"contracts/helperLogic.sol\":1555:1573  uint256 public pid */\n    tag_171:\n      sload(0x73)\n      dup2\n      jump\t// out\n        /* \"@openzeppelin/contracts-upgradeable/access/OwnableUpgradeable.sol\":2184:2382  function transferOwnership(address newOwner) public virtual onlyOwner {... */\n    tag_175:\n        /* \"@openzeppelin/contracts-upgradeable/access/OwnableUpgradeable.sol\":1525:1537  _msgSender() */\n      tag_308\n        /* \"@openzeppelin/contracts-upgradeable/access/OwnableUpgradeable.sol\":1525:1535  _msgSender */\n      tag_182\n        /* \"@openzeppelin/contracts-upgradeable/access/OwnableUpgradeable.sol\":1525:1537  _msgSender() */\n      jump\t// in\n    tag_308:\n      sub(shl(0xa0, 0x01), 0x01)\n        /* \"@openzeppelin/contracts-upgradeable/access/OwnableUpgradeable.sol\":1514:1537  owner() == _msgSender() */\n      and\n        /* \"@openzeppelin/contracts-upgradeable/access/OwnableUpgradeable.sol\":1514:1521  owner() */\n      tag_309\n        /* \"@openzeppelin/contracts-upgradeable/access/OwnableUpgradeable.sol\":1514:1519  owner */\n      tag_117\n        /* \"@openzeppelin/contracts-upgradeable/access/OwnableUpgradeable.sol\":1514:1521  owner() */\n      jump\t// in\n    tag_309:\n      sub(shl(0xa0, 0x01), 0x01)\n        /* \"@openzeppelin/contracts-upgradeable/access/OwnableUpgradeable.sol\":1514:1537  owner() == _msgSender() */\n      and\n      eq\n        /* \"@openzeppelin/contracts-upgradeable/access/OwnableUpgradeable.sol\":1506:1574  require(owner() == _msgSender(), \"Ownable: caller is not the owner\") */\n      tag_310\n      jumpi\n      mload(0x40)\n      shl(0xe5, 0x461bcd)\n      dup2\n      mstore\n      0x04\n      add\n      tag_185\n      swap1\n      tag_186\n      jump\t// in\n    tag_310:\n      sub(shl(0xa0, 0x01), 0x01)\n        /* \"@openzeppelin/contracts-upgradeable/access/OwnableUpgradeable.sol\":2272:2294  newOwner != address(0) */\n      dup2\n      and\n        /* \"@openzeppelin/contracts-upgradeable/access/OwnableUpgradeable.sol\":2264:2337  require(newOwner != address(0), \"Ownable: new owner is the zero address\") */\n      tag_313\n      jumpi\n      mload(0x40)\n      shl(0xe5, 0x461bcd)\n      dup2\n      mstore\n      0x04\n      add\n      tag_185\n      swap1\n      tag_315\n      jump\t// in\n    tag_313:\n        /* \"@openzeppelin/contracts-upgradeable/access/OwnableUpgradeable.sol\":2347:2375  _transferOwnership(newOwner) */\n      tag_316\n        /* \"@openzeppelin/contracts-upgradeable/access/OwnableUpgradeable.sol\":2366:2374  newOwner */\n      dup2\n        /* \"@openzeppelin/contracts-upgradeable/access/OwnableUpgradeable.sol\":2347:2365  _transferOwnership */\n      tag_235\n        /* \"@openzeppelin/contracts-upgradeable/access/OwnableUpgradeable.sol\":2347:2375  _transferOwnership(newOwner) */\n      jump\t// in\n    tag_316:\n        /* \"@openzeppelin/contracts-upgradeable/access/OwnableUpgradeable.sol\":2184:2382  function transferOwnership(address newOwner) public virtual onlyOwner {... */\n      pop\n      jump\t// out\n        /* \"contracts/helperLogic.sol\":1318:1350  IUniswapV2Router02 public Router */\n    tag_177:\n      and(sub(shl(0xa0, 0x01), 0x01), sload(0x6c))\n      dup2\n      jump\t// out\n        /* \"@openzeppelin/contracts-upgradeable/utils/ContextUpgradeable.sol\":876:972  function _msgSender() internal view virtual returns (address) {... */\n    tag_182:\n        /* \"@openzeppelin/contracts-upgradeable/utils/ContextUpgradeable.sol\":955:965  msg.sender */\n      caller\n        /* \"@openzeppelin/contracts-upgradeable/utils/ContextUpgradeable.sol\":876:972  function _msgSender() internal view virtual returns (address) {... */\n      swap1\n      jump\t// out\n        /* \"@openzeppelin/contracts-upgradeable/access/OwnableUpgradeable.sol\":988:1114  function __Ownable_init() internal initializer {... */\n    tag_208:\n        /* \"@openzeppelin/contracts-upgradeable/proxy/utils/Initializable.sol\":539:552  _initializing */\n      sload(0x00)\n      0x0100\n      swap1\n      div\n      0xff\n      and\n      dup1\n        /* \"@openzeppelin/contracts-upgradeable/proxy/utils/Initializable.sol\":539:569  _initializing || !_initialized */\n      tag_319\n      jumpi\n      pop\n        /* \"@openzeppelin/contracts-upgradeable/proxy/utils/Initializable.sol\":557:569  _initialized */\n      and(0xff, sload(0x00))\n        /* \"@openzeppelin/contracts-upgradeable/proxy/utils/Initializable.sol\":556:569  !_initialized */\n      iszero\n        /* \"@openzeppelin/contracts-upgradeable/proxy/utils/Initializable.sol\":539:569  _initializing || !_initialized */\n    tag_319:\n        /* \"@openzeppelin/contracts-upgradeable/proxy/utils/Initializable.sol\":531:620  require(_initializing || !_initialized, \"Initializable: contract is already initialized\") */\n      tag_320\n      jumpi\n      mload(0x40)\n      shl(0xe5, 0x461bcd)\n      dup2\n      mstore\n      0x04\n      add\n      tag_185\n      swap1\n      tag_204\n      jump\t// in\n    tag_320:\n        /* \"@openzeppelin/contracts-upgradeable/proxy/utils/Initializable.sol\":631:650  bool isTopLevelCall */\n      0x00\n        /* \"@openzeppelin/contracts-upgradeable/proxy/utils/Initializable.sol\":654:667  _initializing */\n      sload\n      0x0100\n      swap1\n      div\n      0xff\n      and\n        /* \"@openzeppelin/contracts-upgradeable/proxy/utils/Initializable.sol\":653:667  !_initializing */\n      iszero\n        /* \"@openzeppelin/contracts-upgradeable/proxy/utils/Initializable.sol\":677:775  if (isTopLevelCall) {... */\n      dup1\n      iszero\n      tag_322\n      jumpi\n        /* \"@openzeppelin/contracts-upgradeable/proxy/utils/Initializable.sol\":711:724  _initializing */\n      0x00\n        /* \"@openzeppelin/contracts-upgradeable/proxy/utils/Initializable.sol\":711:731  _initializing = true */\n      dup1\n      sload\n      not(0xff)\n      not(0xff00)\n      swap1\n      swap2\n      and\n      0x0100\n      or\n        /* \"@openzeppelin/contracts-upgradeable/proxy/utils/Initializable.sol\":745:764  _initialized = true */\n      and\n        /* \"@openzeppelin/contracts-upgradeable/proxy/utils/Initializable.sol\":727:731  true */\n      0x01\n        /* \"@openzeppelin/contracts-upgradeable/proxy/utils/Initializable.sol\":745:764  _initialized = true */\n      or\n      swap1\n      sstore\n        /* \"@openzeppelin/contracts-upgradeable/proxy/utils/Initializable.sol\":677:775  if (isTopLevelCall) {... */\n    tag_322:\n        /* \"@openzeppelin/contracts-upgradeable/access/OwnableUpgradeable.sol\":1045:1071  __Context_init_unchained() */\n      tag_324\n        /* \"@openzeppelin/contracts-upgradeable/access/OwnableUpgradeable.sol\":1045:1069  __Context_init_unchained */\n      tag_325\n        /* \"@openzeppelin/contracts-upgradeable/access/OwnableUpgradeable.sol\":1045:1071  __Context_init_unchained() */\n      jump\t// in\n    tag_324:\n        /* \"@openzeppelin/contracts-upgradeable/access/OwnableUpgradeable.sol\":1081:1107  __Ownable_init_unchained() */\n      tag_326\n        /* \"@openzeppelin/contracts-upgradeable/access/OwnableUpgradeable.sol\":1081:1105  __Ownable_init_unchained */\n      tag_327\n        /* \"@openzeppelin/contracts-upgradeable/access/OwnableUpgradeable.sol\":1081:1107  __Ownable_init_unchained() */\n      jump\t// in\n    tag_326:\n        /* \"@openzeppelin/contracts-upgradeable/proxy/utils/Initializable.sol\":801:815  isTopLevelCall */\n      dup1\n        /* \"@openzeppelin/contracts-upgradeable/proxy/utils/Initializable.sol\":797:863  if (isTopLevelCall) {... */\n      iszero\n      tag_316\n      jumpi\n        /* \"@openzeppelin/contracts-upgradeable/proxy/utils/Initializable.sol\":847:852  false */\n      0x00\n        /* \"@openzeppelin/contracts-upgradeable/proxy/utils/Initializable.sol\":831:852  _initializing = false */\n      dup1\n      sload\n      not(0xff00)\n      and\n      swap1\n      sstore\n        /* \"@openzeppelin/contracts-upgradeable/access/OwnableUpgradeable.sol\":988:1114  function __Ownable_init() internal initializer {... */\n      pop\n      jump\t// out\n        /* \"@openzeppelin/contracts-upgradeable/access/OwnableUpgradeable.sol\":2536:2723  function _transferOwnership(address newOwner) internal virtual {... */\n    tag_235:\n        /* \"@openzeppelin/contracts-upgradeable/access/OwnableUpgradeable.sol\":2628:2634  _owner */\n      0x33\n      dup1\n      sload\n      sub(shl(0xa0, 0x01), 0x01)\n        /* \"@openzeppelin/contracts-upgradeable/access/OwnableUpgradeable.sol\":2644:2661  _owner = newOwner */\n      dup4\n      dup2\n      and\n      not(sub(shl(0xa0, 0x01), 0x01))\n      dup4\n      and\n      dup2\n      or\n      swap1\n      swap4\n      sstore\n        /* \"@openzeppelin/contracts-upgradeable/access/OwnableUpgradeable.sol\":2676:2716  OwnershipTransferred(oldOwner, newOwner) */\n      mload(0x40)\n        /* \"@openzeppelin/contracts-upgradeable/access/OwnableUpgradeable.sol\":2628:2634  _owner */\n      swap2\n      and\n      swap2\n        /* \"@openzeppelin/contracts-upgradeable/access/OwnableUpgradeable.sol\":2644:2661  _owner = newOwner */\n      swap1\n        /* \"@openzeppelin/contracts-upgradeable/access/OwnableUpgradeable.sol\":2628:2634  _owner */\n      dup3\n      swap1\n        /* \"@openzeppelin/contracts-upgradeable/access/OwnableUpgradeable.sol\":2676:2716  OwnershipTransferred(oldOwner, newOwner) */\n      0x8be0079c531659141344cd1fd0a4f28419497f9722a3daafe3b4186f6b6457e0\n      swap1\n        /* \"@openzeppelin/contracts-upgradeable/access/OwnableUpgradeable.sol\":2609:2625  address oldOwner */\n      0x00\n      swap1\n        /* \"@openzeppelin/contracts-upgradeable/access/OwnableUpgradeable.sol\":2676:2716  OwnershipTransferred(oldOwner, newOwner) */\n      log3\n        /* \"@openzeppelin/contracts-upgradeable/access/OwnableUpgradeable.sol\":2536:2723  function _transferOwnership(address newOwner) internal virtual {... */\n      pop\n      pop\n      jump\t// out\n        /* \"@openzeppelin/contracts-upgradeable/token/ERC20/utils/SafeERC20Upgradeable.sol\":745:961  function safeTransfer(... */\n    tag_244:\n        /* \"@openzeppelin/contracts-upgradeable/token/ERC20/utils/SafeERC20Upgradeable.sol\":868:954  _callOptionalReturn(token, abi.encodeWithSelector(token.transfer.selector, to, value)) */\n      tag_331\n        /* \"@openzeppelin/contracts-upgradeable/token/ERC20/utils/SafeERC20Upgradeable.sol\":888:893  token */\n      dup4\n        /* \"@openzeppelin/contracts-upgradeable/token/ERC20/utils/SafeERC20Upgradeable.sol\":918:941  token.transfer.selector */\n      shl(0xe0, 0xa9059cbb)\n        /* \"@openzeppelin/contracts-upgradeable/token/ERC20/utils/SafeERC20Upgradeable.sol\":943:945  to */\n      dup5\n        /* \"@openzeppelin/contracts-upgradeable/token/ERC20/utils/SafeERC20Upgradeable.sol\":947:952  value */\n      dup5\n        /* \"@openzeppelin/contracts-upgradeable/token/ERC20/utils/SafeERC20Upgradeable.sol\":895:953  abi.encodeWithSelector(token.transfer.selector, to, value) */\n      add(0x24, mload(0x40))\n      tag_332\n      swap3\n      swap2\n      swap1\n      tag_333\n      jump\t// in\n    tag_332:\n      0x40\n      dup1\n      mload\n      not(0x1f)\n      dup2\n      dup5\n      sub\n      add\n      dup2\n      mstore\n      swap2\n      swap1\n      mstore\n      0x20\n      dup2\n      add\n      dup1\n      mload\n      sub(shl(0xe0, 0x01), 0x01)\n      and\n      not(sub(shl(0xe0, 0x01), 0x01))\n      swap1\n      swap4\n      and\n      swap3\n      swap1\n      swap3\n      or\n      swap1\n      swap2\n      mstore\n        /* \"@openzeppelin/contracts-upgradeable/token/ERC20/utils/SafeERC20Upgradeable.sol\":868:887  _callOptionalReturn */\n      tag_334\n        /* \"@openzeppelin/contracts-upgradeable/token/ERC20/utils/SafeERC20Upgradeable.sol\":868:954  _callOptionalReturn(token, abi.encodeWithSelector(token.transfer.selector, to, value)) */\n      jump\t// in\n    tag_331:\n        /* \"@openzeppelin/contracts-upgradeable/token/ERC20/utils/SafeERC20Upgradeable.sol\":745:961  function safeTransfer(... */\n      pop\n      pop\n      pop\n      jump\t// out\n        /* \"@openzeppelin/contracts-upgradeable/utils/math/SafeMathUpgradeable.sol\":3462:3558  function mul(uint256 a, uint256 b) internal pure returns (uint256) {... */\n    tag_276:\n        /* \"@openzeppelin/contracts-upgradeable/utils/math/SafeMathUpgradeable.sol\":3520:3527  uint256 */\n      0x00\n        /* \"@openzeppelin/contracts-upgradeable/utils/math/SafeMathUpgradeable.sol\":3546:3551  a * b */\n      tag_336\n        /* \"@openzeppelin/contracts-upgradeable/utils/math/SafeMathUpgradeable.sol\":3550:3551  b */\n      dup3\n        /* \"@openzeppelin/contracts-upgradeable/utils/math/SafeMathUpgradeable.sol\":3546:3547  a */\n      dup5\n        /* \"@openzeppelin/contracts-upgradeable/utils/math/SafeMathUpgradeable.sol\":3546:3551  a * b */\n      tag_337\n      jump\t// in\n    tag_336:\n        /* \"@openzeppelin/contracts-upgradeable/utils/math/SafeMathUpgradeable.sol\":3539:3551  return a * b */\n      swap4\n        /* \"@openzeppelin/contracts-upgradeable/utils/math/SafeMathUpgradeable.sol\":3462:3558  function mul(uint256 a, uint256 b) internal pure returns (uint256) {... */\n      swap3\n      pop\n      pop\n      pop\n      jump\t// out\n        /* \"@openzeppelin/contracts-upgradeable/utils/math/SafeMathUpgradeable.sol\":3847:3943  function div(uint256 a, uint256 b) internal pure returns (uint256) {... */\n    tag_277:\n        /* \"@openzeppelin/contracts-upgradeable/utils/math/SafeMathUpgradeable.sol\":3905:3912  uint256 */\n      0x00\n        /* \"@openzeppelin/contracts-upgradeable/utils/math/SafeMathUpgradeable.sol\":3931:3936  a / b */\n      tag_336\n        /* \"@openzeppelin/contracts-upgradeable/utils/math/SafeMathUpgradeable.sol\":3935:3936  b */\n      dup3\n        /* \"@openzeppelin/contracts-upgradeable/utils/math/SafeMathUpgradeable.sol\":3931:3932  a */\n      dup5\n        /* \"@openzeppelin/contracts-upgradeable/utils/math/SafeMathUpgradeable.sol\":3931:3936  a / b */\n      tag_340\n      jump\t// in\n        /* \"@openzeppelin/contracts-upgradeable/utils/math/SafeMathUpgradeable.sol\":3119:3215  function sub(uint256 a, uint256 b) internal pure returns (uint256) {... */\n    tag_282:\n        /* \"@openzeppelin/contracts-upgradeable/utils/math/SafeMathUpgradeable.sol\":3177:3184  uint256 */\n      0x00\n        /* \"@openzeppelin/contracts-upgradeable/utils/math/SafeMathUpgradeable.sol\":3203:3208  a - b */\n      tag_336\n        /* \"@openzeppelin/contracts-upgradeable/utils/math/SafeMathUpgradeable.sol\":3207:3208  b */\n      dup3\n        /* \"@openzeppelin/contracts-upgradeable/utils/math/SafeMathUpgradeable.sol\":3203:3204  a */\n      dup5\n        /* \"@openzeppelin/contracts-upgradeable/utils/math/SafeMathUpgradeable.sol\":3203:3208  a - b */\n      tag_343\n      jump\t// in\n        /* \"contracts/helperLogic.sol\":3564:4502  function adjustFarm() internal {... */\n    tag_288:\n        /* \"contracts/helperLogic.sol\":3627:3634  Factory */\n      sload(0x6d)\n        /* \"contracts/helperLogic.sol\":3651:3655  usdc */\n      sload(0x67)\n        /* \"contracts/helperLogic.sol\":3666:3669  usc */\n      sload(0x66)\n        /* \"contracts/helperLogic.sol\":3627:3671  Factory.getPair(address(usdc), address(usc)) */\n      mload(0x40)\n      shl(0xe0, 0xe6a43905)\n      dup2\n      mstore\n        /* \"contracts/helperLogic.sol\":3605:3624  address pairAddress */\n      0x00\n      swap4\n      sub(shl(0xa0, 0x01), 0x01)\n        /* \"contracts/helperLogic.sol\":3627:3634  Factory */\n      swap1\n      dup2\n      and\n      swap4\n        /* \"contracts/helperLogic.sol\":3627:3642  Factory.getPair */\n      0xe6a43905\n      swap4\n        /* \"contracts/helperLogic.sol\":3627:3671  Factory.getPair(address(usdc), address(usc)) */\n      tag_345\n      swap4\n        /* \"contracts/helperLogic.sol\":3651:3655  usdc */\n      swap2\n      dup4\n      and\n      swap3\n        /* \"contracts/helperLogic.sol\":3666:3669  usc */\n      and\n      swap1\n        /* \"contracts/helperLogic.sol\":3627:3671  Factory.getPair(address(usdc), address(usc)) */\n      0x04\n      add\n      tag_346\n      jump\t// in\n    tag_345:\n      0x20\n      mload(0x40)\n      dup1\n      dup4\n      sub\n      dup2\n      dup7\n      dup1\n      extcodesize\n      iszero\n      dup1\n      iszero\n      tag_347\n      jumpi\n      0x00\n      dup1\n      revert\n    tag_347:\n      pop\n      gas\n      staticcall\n      iszero\n      dup1\n      iszero\n      tag_349\n      jumpi\n      returndatasize\n      0x00\n      dup1\n      returndatacopy\n      revert(0x00, returndatasize)\n    tag_349:\n      pop\n      pop\n      pop\n      pop\n      mload(0x40)\n      returndatasize\n      not(0x1f)\n      0x1f\n      dup3\n      add\n      and\n      dup3\n      add\n      dup1\n      0x40\n      mstore\n      pop\n      dup2\n      add\n      swap1\n      tag_350\n      swap2\n      swap1\n      tag_351\n      jump\t// in\n    tag_350:\n      pop\n      pop\n        /* \"contracts/helperLogic.sol\":3564:4502  function adjustFarm() internal {... */\n      jump\t// out\n        /* \"@openzeppelin/contracts-upgradeable/utils/ContextUpgradeable.sol\":807:871  function __Context_init_unchained() internal initializer {... */\n    tag_325:\n        /* \"@openzeppelin/contracts-upgradeable/proxy/utils/Initializable.sol\":539:552  _initializing */\n      sload(0x00)\n      0x0100\n      swap1\n      div\n      0xff\n      and\n      dup1\n        /* \"@openzeppelin/contracts-upgradeable/proxy/utils/Initializable.sol\":539:569  _initializing || !_initialized */\n      tag_353\n      jumpi\n      pop\n        /* \"@openzeppelin/contracts-upgradeable/proxy/utils/Initializable.sol\":557:569  _initialized */\n      and(0xff, sload(0x00))\n        /* \"@openzeppelin/contracts-upgradeable/proxy/utils/Initializable.sol\":556:569  !_initialized */\n      iszero\n        /* \"@openzeppelin/contracts-upgradeable/proxy/utils/Initializable.sol\":539:569  _initializing || !_initialized */\n    tag_353:\n        /* \"@openzeppelin/contracts-upgradeable/proxy/utils/Initializable.sol\":531:620  require(_initializing || !_initialized, \"Initializable: contract is already initialized\") */\n      tag_354\n      jumpi\n      mload(0x40)\n      shl(0xe5, 0x461bcd)\n      dup2\n      mstore\n      0x04\n      add\n      tag_185\n      swap1\n      tag_204\n      jump\t// in\n    tag_354:\n        /* \"@openzeppelin/contracts-upgradeable/proxy/utils/Initializable.sol\":631:650  bool isTopLevelCall */\n      0x00\n        /* \"@openzeppelin/contracts-upgradeable/proxy/utils/Initializable.sol\":654:667  _initializing */\n      sload\n      0x0100\n      swap1\n      div\n      0xff\n      and\n        /* \"@openzeppelin/contracts-upgradeable/proxy/utils/Initializable.sol\":653:667  !_initializing */\n      iszero\n        /* \"@openzeppelin/contracts-upgradeable/proxy/utils/Initializable.sol\":677:775  if (isTopLevelCall) {... */\n      dup1\n      iszero\n      tag_326\n      jumpi\n        /* \"@openzeppelin/contracts-upgradeable/proxy/utils/Initializable.sol\":711:724  _initializing */\n      0x00\n        /* \"@openzeppelin/contracts-upgradeable/proxy/utils/Initializable.sol\":711:731  _initializing = true */\n      dup1\n      sload\n      not(0xff)\n      not(0xff00)\n      swap1\n      swap2\n      and\n      0x0100\n      or\n        /* \"@openzeppelin/contracts-upgradeable/proxy/utils/Initializable.sol\":745:764  _initialized = true */\n      and\n        /* \"@openzeppelin/contracts-upgradeable/proxy/utils/Initializable.sol\":727:731  true */\n      0x01\n        /* \"@openzeppelin/contracts-upgradeable/proxy/utils/Initializable.sol\":745:764  _initialized = true */\n      or\n      swap1\n      sstore\n        /* \"@openzeppelin/contracts-upgradeable/proxy/utils/Initializable.sol\":801:815  isTopLevelCall */\n      dup1\n        /* \"@openzeppelin/contracts-upgradeable/proxy/utils/Initializable.sol\":797:863  if (isTopLevelCall) {... */\n      iszero\n      tag_316\n      jumpi\n        /* \"@openzeppelin/contracts-upgradeable/proxy/utils/Initializable.sol\":847:852  false */\n      0x00\n        /* \"@openzeppelin/contracts-upgradeable/proxy/utils/Initializable.sol\":831:852  _initializing = false */\n      dup1\n      sload\n      not(0xff00)\n      and\n      swap1\n      sstore\n        /* \"@openzeppelin/contracts-upgradeable/utils/ContextUpgradeable.sol\":807:871  function __Context_init_unchained() internal initializer {... */\n      pop\n      jump\t// out\n        /* \"@openzeppelin/contracts-upgradeable/access/OwnableUpgradeable.sol\":1120:1226  function __Ownable_init_unchained() internal initializer {... */\n    tag_327:\n        /* \"@openzeppelin/contracts-upgradeable/proxy/utils/Initializable.sol\":539:552  _initializing */\n      sload(0x00)\n      0x0100\n      swap1\n      div\n      0xff\n      and\n      dup1\n        /* \"@openzeppelin/contracts-upgradeable/proxy/utils/Initializable.sol\":539:569  _initializing || !_initialized */\n      tag_360\n      jumpi\n      pop\n        /* \"@openzeppelin/contracts-upgradeable/proxy/utils/Initializable.sol\":557:569  _initialized */\n      and(0xff, sload(0x00))\n        /* \"@openzeppelin/contracts-upgradeable/proxy/utils/Initializable.sol\":556:569  !_initialized */\n      iszero\n        /* \"@openzeppelin/contracts-upgradeable/proxy/utils/Initializable.sol\":539:569  _initializing || !_initialized */\n    tag_360:\n        /* \"@openzeppelin/contracts-upgradeable/proxy/utils/Initializable.sol\":531:620  require(_initializing || !_initialized, \"Initializable: contract is already initialized\") */\n      tag_361\n      jumpi\n      mload(0x40)\n      shl(0xe5, 0x461bcd)\n      dup2\n      mstore\n      0x04\n      add\n      tag_185\n      swap1\n      tag_204\n      jump\t// in\n    tag_361:\n        /* \"@openzeppelin/contracts-upgradeable/proxy/utils/Initializable.sol\":631:650  bool isTopLevelCall */\n      0x00\n        /* \"@openzeppelin/contracts-upgradeable/proxy/utils/Initializable.sol\":654:667  _initializing */\n      sload\n      0x0100\n      swap1\n      div\n      0xff\n      and\n        /* \"@openzeppelin/contracts-upgradeable/proxy/utils/Initializable.sol\":653:667  !_initializing */\n      iszero\n        /* \"@openzeppelin/contracts-upgradeable/proxy/utils/Initializable.sol\":677:775  if (isTopLevelCall) {... */\n      dup1\n      iszero\n      tag_363\n      jumpi\n        /* \"@openzeppelin/contracts-upgradeable/proxy/utils/Initializable.sol\":711:724  _initializing */\n      0x00\n        /* \"@openzeppelin/contracts-upgradeable/proxy/utils/Initializable.sol\":711:731  _initializing = true */\n      dup1\n      sload\n      not(0xff)\n      not(0xff00)\n      swap1\n      swap2\n      and\n      0x0100\n      or\n        /* \"@openzeppelin/contracts-upgradeable/proxy/utils/Initializable.sol\":745:764  _initialized = true */\n      and\n        /* \"@openzeppelin/contracts-upgradeable/proxy/utils/Initializable.sol\":727:731  true */\n      0x01\n        /* \"@openzeppelin/contracts-upgradeable/proxy/utils/Initializable.sol\":745:764  _initialized = true */\n      or\n      swap1\n      sstore\n        /* \"@openzeppelin/contracts-upgradeable/proxy/utils/Initializable.sol\":677:775  if (isTopLevelCall) {... */\n    tag_363:\n        /* \"@openzeppelin/contracts-upgradeable/access/OwnableUpgradeable.sol\":1187:1219  _transferOwnership(_msgSender()) */\n      tag_326\n        /* \"@openzeppelin/contracts-upgradeable/access/OwnableUpgradeable.sol\":1206:1218  _msgSender() */\n      tag_366\n        /* \"@openzeppelin/contracts-upgradeable/access/OwnableUpgradeable.sol\":1206:1216  _msgSender */\n      tag_182\n        /* \"@openzeppelin/contracts-upgradeable/access/OwnableUpgradeable.sol\":1206:1218  _msgSender() */\n      jump\t// in\n    tag_366:\n        /* \"@openzeppelin/contracts-upgradeable/access/OwnableUpgradeable.sol\":1187:1205  _transferOwnership */\n      tag_235\n        /* \"@openzeppelin/contracts-upgradeable/access/OwnableUpgradeable.sol\":1187:1219  _transferOwnership(_msgSender()) */\n      jump\t// in\n        /* \"@openzeppelin/contracts-upgradeable/token/ERC20/utils/SafeERC20Upgradeable.sol\":3306:4023  function _callOptionalReturn(IERC20Upgradeable token, bytes memory data) private {... */\n    tag_334:\n        /* \"@openzeppelin/contracts-upgradeable/token/ERC20/utils/SafeERC20Upgradeable.sol\":3736:3759  bytes memory returndata */\n      0x00\n        /* \"@openzeppelin/contracts-upgradeable/token/ERC20/utils/SafeERC20Upgradeable.sol\":3762:3831  address(token).functionCall(data, \"SafeERC20: low-level call failed\") */\n      tag_369\n        /* \"@openzeppelin/contracts-upgradeable/token/ERC20/utils/SafeERC20Upgradeable.sol\":3790:3794  data */\n      dup3\n        /* \"@openzeppelin/contracts-upgradeable/token/ERC20/utils/SafeERC20Upgradeable.sol\":3762:3831  address(token).functionCall(data, \"SafeERC20: low-level call failed\") */\n      mload(0x40)\n      dup1\n      0x40\n      add\n      0x40\n      mstore\n      dup1\n      0x20\n      dup2\n      mstore\n      0x20\n      add\n      0x5361666545524332303a206c6f772d6c6576656c2063616c6c206661696c6564\n      dup2\n      mstore\n      pop\n        /* \"@openzeppelin/contracts-upgradeable/token/ERC20/utils/SafeERC20Upgradeable.sol\":3770:3775  token */\n      dup6\n      sub(shl(0xa0, 0x01), 0x01)\n        /* \"@openzeppelin/contracts-upgradeable/token/ERC20/utils/SafeERC20Upgradeable.sol\":3762:3789  address(token).functionCall */\n      and\n      tag_370\n      swap1\n        /* \"@openzeppelin/contracts-upgradeable/token/ERC20/utils/SafeERC20Upgradeable.sol\":3762:3831  address(token).functionCall(data, \"SafeERC20: low-level call failed\") */\n      swap3\n      swap2\n      swap1\n      0xffffffff\n      and\n      jump\t// in\n    tag_369:\n        /* \"@openzeppelin/contracts-upgradeable/token/ERC20/utils/SafeERC20Upgradeable.sol\":3845:3862  returndata.length */\n      dup1\n      mload\n        /* \"@openzeppelin/contracts-upgradeable/token/ERC20/utils/SafeERC20Upgradeable.sol\":3736:3831  bytes memory returndata = address(token).functionCall(data, \"SafeERC20: low-level call failed\") */\n      swap1\n      swap2\n      pop\n        /* \"@openzeppelin/contracts-upgradeable/token/ERC20/utils/SafeERC20Upgradeable.sol\":3845:3866  returndata.length > 0 */\n      iszero\n        /* \"@openzeppelin/contracts-upgradeable/token/ERC20/utils/SafeERC20Upgradeable.sol\":3841:4017  if (returndata.length > 0) {... */\n      tag_331\n      jumpi\n        /* \"@openzeppelin/contracts-upgradeable/token/ERC20/utils/SafeERC20Upgradeable.sol\":3940:3950  returndata */\n      dup1\n        /* \"@openzeppelin/contracts-upgradeable/token/ERC20/utils/SafeERC20Upgradeable.sol\":3929:3959  abi.decode(returndata, (bool)) */\n      dup1\n      0x20\n      add\n      swap1\n      mload\n      dup2\n      add\n      swap1\n      tag_372\n      swap2\n      swap1\n      tag_294\n      jump\t// in\n    tag_372:\n        /* \"@openzeppelin/contracts-upgradeable/token/ERC20/utils/SafeERC20Upgradeable.sol\":3921:4006  require(abi.decode(returndata, (bool)), \"SafeERC20: ERC20 operation did not succeed\") */\n      tag_331\n      jumpi\n      mload(0x40)\n      shl(0xe5, 0x461bcd)\n      dup2\n      mstore\n      0x04\n      add\n      tag_185\n      swap1\n      tag_375\n      jump\t// in\n        /* \"@openzeppelin/contracts-upgradeable/utils/AddressUpgradeable.sol\":3525:3748  function functionCall(... */\n    tag_370:\n        /* \"@openzeppelin/contracts-upgradeable/utils/AddressUpgradeable.sol\":3658:3670  bytes memory */\n      0x60\n        /* \"@openzeppelin/contracts-upgradeable/utils/AddressUpgradeable.sol\":3689:3741  functionCallWithValue(target, data, 0, errorMessage) */\n      tag_377\n        /* \"@openzeppelin/contracts-upgradeable/utils/AddressUpgradeable.sol\":3711:3717  target */\n      dup5\n        /* \"@openzeppelin/contracts-upgradeable/utils/AddressUpgradeable.sol\":3719:3723  data */\n      dup5\n        /* \"@openzeppelin/contracts-upgradeable/utils/AddressUpgradeable.sol\":3725:3726  0 */\n      0x00\n        /* \"@openzeppelin/contracts-upgradeable/utils/AddressUpgradeable.sol\":3728:3740  errorMessage */\n      dup6\n        /* \"@openzeppelin/contracts-upgradeable/utils/AddressUpgradeable.sol\":3689:3710  functionCallWithValue */\n      tag_378\n        /* \"@openzeppelin/contracts-upgradeable/utils/AddressUpgradeable.sol\":3689:3741  functionCallWithValue(target, data, 0, errorMessage) */\n      jump\t// in\n    tag_377:\n        /* \"@openzeppelin/contracts-upgradeable/utils/AddressUpgradeable.sol\":3682:3741  return functionCallWithValue(target, data, 0, errorMessage) */\n      swap5\n        /* \"@openzeppelin/contracts-upgradeable/utils/AddressUpgradeable.sol\":3525:3748  function functionCall(... */\n      swap4\n      pop\n      pop\n      pop\n      pop\n      jump\t// out\n        /* \"@openzeppelin/contracts-upgradeable/utils/AddressUpgradeable.sol\":4612:5111  function functionCallWithValue(... */\n    tag_378:\n        /* \"@openzeppelin/contracts-upgradeable/utils/AddressUpgradeable.sol\":4777:4789  bytes memory */\n      0x60\n        /* \"@openzeppelin/contracts-upgradeable/utils/AddressUpgradeable.sol\":4834:4839  value */\n      dup3\n        /* \"@openzeppelin/contracts-upgradeable/utils/AddressUpgradeable.sol\":4809:4830  address(this).balance */\n      selfbalance\n        /* \"@openzeppelin/contracts-upgradeable/utils/AddressUpgradeable.sol\":4809:4839  address(this).balance >= value */\n      lt\n      iszero\n        /* \"@openzeppelin/contracts-upgradeable/utils/AddressUpgradeable.sol\":4801:4882  require(address(this).balance >= value, \"Address: insufficient balance for call\") */\n      tag_380\n      jumpi\n      mload(0x40)\n      shl(0xe5, 0x461bcd)\n      dup2\n      mstore\n      0x04\n      add\n      tag_185\n      swap1\n      tag_382\n      jump\t// in\n    tag_380:\n        /* \"@openzeppelin/contracts-upgradeable/utils/AddressUpgradeable.sol\":4900:4918  isContract(target) */\n      tag_383\n        /* \"@openzeppelin/contracts-upgradeable/utils/AddressUpgradeable.sol\":4911:4917  target */\n      dup6\n        /* \"@openzeppelin/contracts-upgradeable/utils/AddressUpgradeable.sol\":4900:4910  isContract */\n      tag_384\n        /* \"@openzeppelin/contracts-upgradeable/utils/AddressUpgradeable.sol\":4900:4918  isContract(target) */\n      jump\t// in\n    tag_383:\n        /* \"@openzeppelin/contracts-upgradeable/utils/AddressUpgradeable.sol\":4892:4952  require(isContract(target), \"Address: call to non-contract\") */\n      tag_385\n      jumpi\n      mload(0x40)\n      shl(0xe5, 0x461bcd)\n      dup2\n      mstore\n      0x04\n      add\n      tag_185\n      swap1\n      tag_387\n      jump\t// in\n    tag_385:\n        /* \"@openzeppelin/contracts-upgradeable/utils/AddressUpgradeable.sol\":4964:4976  bool success */\n      0x00\n        /* \"@openzeppelin/contracts-upgradeable/utils/AddressUpgradeable.sol\":4978:5001  bytes memory returndata */\n      dup1\n        /* \"@openzeppelin/contracts-upgradeable/utils/AddressUpgradeable.sol\":5005:5011  target */\n      dup7\n      sub(shl(0xa0, 0x01), 0x01)\n        /* \"@openzeppelin/contracts-upgradeable/utils/AddressUpgradeable.sol\":5005:5016  target.call */\n      and\n        /* \"@openzeppelin/contracts-upgradeable/utils/AddressUpgradeable.sol\":5024:5029  value */\n      dup6\n        /* \"@openzeppelin/contracts-upgradeable/utils/AddressUpgradeable.sol\":5031:5035  data */\n      dup8\n        /* \"@openzeppelin/contracts-upgradeable/utils/AddressUpgradeable.sol\":5005:5036  target.call{value: value}(data) */\n      mload(0x40)\n      tag_388\n      swap2\n      swap1\n      tag_389\n      jump\t// in\n    tag_388:\n      0x00\n      mload(0x40)\n      dup1\n      dup4\n      sub\n      dup2\n      dup6\n      dup8\n      gas\n      call\n      swap3\n      pop\n      pop\n      pop\n      returndatasize\n      dup1\n      0x00\n      dup2\n      eq\n      tag_392\n      jumpi\n      mload(0x40)\n      swap2\n      pop\n      and(add(returndatasize, 0x3f), not(0x1f))\n      dup3\n      add\n      0x40\n      mstore\n      returndatasize\n      dup3\n      mstore\n      returndatasize\n      0x00\n      0x20\n      dup5\n      add\n      returndatacopy\n      jump(tag_391)\n    tag_392:\n      0x60\n      swap2\n      pop\n    tag_391:\n      pop\n        /* \"@openzeppelin/contracts-upgradeable/utils/AddressUpgradeable.sol\":4963:5036  (bool success, bytes memory returndata) = target.call{value: value}(data) */\n      swap2\n      pop\n      swap2\n      pop\n        /* \"@openzeppelin/contracts-upgradeable/utils/AddressUpgradeable.sol\":5053:5104  verifyCallResult(success, returndata, errorMessage) */\n      tag_393\n        /* \"@openzeppelin/contracts-upgradeable/utils/AddressUpgradeable.sol\":5070:5077  success */\n      dup3\n        /* \"@openzeppelin/contracts-upgradeable/utils/AddressUpgradeable.sol\":5079:5089  returndata */\n      dup3\n        /* \"@openzeppelin/contracts-upgradeable/utils/AddressUpgradeable.sol\":5091:5103  errorMessage */\n      dup7\n        /* \"@openzeppelin/contracts-upgradeable/utils/AddressUpgradeable.sol\":5053:5069  verifyCallResult */\n      tag_394\n        /* \"@openzeppelin/contracts-upgradeable/utils/AddressUpgradeable.sol\":5053:5104  verifyCallResult(success, returndata, errorMessage) */\n      jump\t// in\n    tag_393:\n        /* \"@openzeppelin/contracts-upgradeable/utils/AddressUpgradeable.sol\":5046:5104  return verifyCallResult(success, returndata, errorMessage) */\n      swap8\n        /* \"@openzeppelin/contracts-upgradeable/utils/AddressUpgradeable.sol\":4612:5111  function functionCallWithValue(... */\n      swap7\n      pop\n      pop\n      pop\n      pop\n      pop\n      pop\n      pop\n      jump\t// out\n        /* \"@openzeppelin/contracts-upgradeable/utils/AddressUpgradeable.sol\":782:1159  function isContract(address account) internal view returns (bool) {... */\n    tag_384:\n        /* \"@openzeppelin/contracts-upgradeable/utils/AddressUpgradeable.sol\":1098:1118  extcodesize(account) */\n      extcodesize\n        /* \"@openzeppelin/contracts-upgradeable/utils/AddressUpgradeable.sol\":1144:1152  size > 0 */\n      iszero\n      iszero\n      swap1\n        /* \"@openzeppelin/contracts-upgradeable/utils/AddressUpgradeable.sol\":782:1159  function isContract(address account) internal view returns (bool) {... */\n      jump\t// out\n        /* \"@openzeppelin/contracts-upgradeable/utils/AddressUpgradeable.sol\":6275:6967  function verifyCallResult(... */\n    tag_394:\n        /* \"@openzeppelin/contracts-upgradeable/utils/AddressUpgradeable.sol\":6421:6433  bytes memory */\n      0x60\n        /* \"@openzeppelin/contracts-upgradeable/utils/AddressUpgradeable.sol\":6449:6456  success */\n      dup4\n        /* \"@openzeppelin/contracts-upgradeable/utils/AddressUpgradeable.sol\":6445:6961  if (success) {... */\n      iszero\n      tag_397\n      jumpi\n      pop\n        /* \"@openzeppelin/contracts-upgradeable/utils/AddressUpgradeable.sol\":6479:6489  returndata */\n      dup2\n        /* \"@openzeppelin/contracts-upgradeable/utils/AddressUpgradeable.sol\":6472:6489  return returndata */\n      jump(tag_336)\n        /* \"@openzeppelin/contracts-upgradeable/utils/AddressUpgradeable.sol\":6445:6961  if (success) {... */\n    tag_397:\n        /* \"@openzeppelin/contracts-upgradeable/utils/AddressUpgradeable.sol\":6590:6607  returndata.length */\n      dup3\n      mload\n        /* \"@openzeppelin/contracts-upgradeable/utils/AddressUpgradeable.sol\":6590:6611  returndata.length > 0 */\n      iszero\n        /* \"@openzeppelin/contracts-upgradeable/utils/AddressUpgradeable.sol\":6586:6951  if (returndata.length > 0) {... */\n      tag_399\n      jumpi\n        /* \"@openzeppelin/contracts-upgradeable/utils/AddressUpgradeable.sol\":6784:6794  returndata */\n      dup3\n        /* \"@openzeppelin/contracts-upgradeable/utils/AddressUpgradeable.sol\":6778:6795  mload(returndata) */\n      mload\n        /* \"@openzeppelin/contracts-upgradeable/utils/AddressUpgradeable.sol\":6844:6859  returndata_size */\n      dup1\n        /* \"@openzeppelin/contracts-upgradeable/utils/AddressUpgradeable.sol\":6831:6841  returndata */\n      dup5\n        /* \"@openzeppelin/contracts-upgradeable/utils/AddressUpgradeable.sol\":6827:6829  32 */\n      0x20\n        /* \"@openzeppelin/contracts-upgradeable/utils/AddressUpgradeable.sol\":6823:6842  add(32, returndata) */\n      add\n        /* \"@openzeppelin/contracts-upgradeable/utils/AddressUpgradeable.sol\":6816:6860  revert(add(32, returndata), returndata_size) */\n      revert\n        /* \"@openzeppelin/contracts-upgradeable/utils/AddressUpgradeable.sol\":6733:6878  {... */\n    tag_399:\n        /* \"@openzeppelin/contracts-upgradeable/utils/AddressUpgradeable.sol\":6923:6935  errorMessage */\n      dup2\n        /* \"@openzeppelin/contracts-upgradeable/utils/AddressUpgradeable.sol\":6916:6936  revert(errorMessage) */\n      mload(0x40)\n      shl(0xe5, 0x461bcd)\n      dup2\n      mstore\n      0x04\n      add\n      tag_185\n      swap2\n      swap1\n      tag_402\n      jump\t// in\n        /* \"#utility.yul\":14:273   */\n    tag_94:\n      0x00\n        /* \"#utility.yul\":126:128   */\n      0x20\n        /* \"#utility.yul\":114:123   */\n      dup3\n        /* \"#utility.yul\":105:112   */\n      dup5\n        /* \"#utility.yul\":101:124   */\n      sub\n        /* \"#utility.yul\":97:129   */\n      slt\n        /* \"#utility.yul\":94:96   */\n      iszero\n      tag_405\n      jumpi\n        /* \"#utility.yul\":147:153   */\n      dup1\n        /* \"#utility.yul\":139:145   */\n      dup2\n        /* \"#utility.yul\":132:154   */\n      revert\n        /* \"#utility.yul\":94:96   */\n    tag_405:\n        /* \"#utility.yul\":191:200   */\n      dup2\n        /* \"#utility.yul\":178:201   */\n      calldataload\n        /* \"#utility.yul\":210:243   */\n      tag_336\n        /* \"#utility.yul\":237:242   */\n      dup2\n        /* \"#utility.yul\":210:243   */\n      tag_407\n      jump\t// in\n        /* \"#utility.yul\":278:541   */\n    tag_351:\n      0x00\n        /* \"#utility.yul\":401:403   */\n      0x20\n        /* \"#utility.yul\":389:398   */\n      dup3\n        /* \"#utility.yul\":380:387   */\n      dup5\n        /* \"#utility.yul\":376:399   */\n      sub\n        /* \"#utility.yul\":372:404   */\n      slt\n        /* \"#utility.yul\":369:371   */\n      iszero\n      tag_409\n      jumpi\n        /* \"#utility.yul\":422:428   */\n      dup1\n        /* \"#utility.yul\":414:420   */\n      dup2\n        /* \"#utility.yul\":407:429   */\n      revert\n        /* \"#utility.yul\":369:371   */\n    tag_409:\n        /* \"#utility.yul\":459:468   */\n      dup2\n        /* \"#utility.yul\":453:469   */\n      mload\n        /* \"#utility.yul\":478:511   */\n      tag_336\n        /* \"#utility.yul\":505:510   */\n      dup2\n        /* \"#utility.yul\":478:511   */\n      tag_407\n      jump\t// in\n        /* \"#utility.yul\":546:942   */\n    tag_58:\n      0x00\n      dup1\n        /* \"#utility.yul\":672:674   */\n      0x40\n        /* \"#utility.yul\":660:669   */\n      dup4\n        /* \"#utility.yul\":651:658   */\n      dup6\n        /* \"#utility.yul\":647:670   */\n      sub\n        /* \"#utility.yul\":643:675   */\n      slt\n        /* \"#utility.yul\":640:642   */\n      iszero\n      tag_412\n      jumpi\n        /* \"#utility.yul\":693:699   */\n      dup1\n        /* \"#utility.yul\":685:691   */\n      dup2\n        /* \"#utility.yul\":678:700   */\n      revert\n        /* \"#utility.yul\":640:642   */\n    tag_412:\n        /* \"#utility.yul\":737:746   */\n      dup3\n        /* \"#utility.yul\":724:747   */\n      calldataload\n        /* \"#utility.yul\":756:789   */\n      tag_413\n        /* \"#utility.yul\":783:788   */\n      dup2\n        /* \"#utility.yul\":756:789   */\n      tag_407\n      jump\t// in\n    tag_413:\n        /* \"#utility.yul\":808:813   */\n      swap2\n      pop\n        /* \"#utility.yul\":865:867   */\n      0x20\n        /* \"#utility.yul\":850:868   */\n      dup4\n      add\n        /* \"#utility.yul\":837:869   */\n      calldataload\n        /* \"#utility.yul\":878:910   */\n      tag_414\n        /* \"#utility.yul\":837:869   */\n      dup2\n        /* \"#utility.yul\":878:910   */\n      tag_415\n      jump\t// in\n    tag_414:\n        /* \"#utility.yul\":929:936   */\n      dup1\n        /* \"#utility.yul\":919:936   */\n      swap2\n      pop\n      pop\n        /* \"#utility.yul\":630:942   */\n      swap3\n      pop\n      swap3\n      swap1\n      pop\n      jump\t// out\n        /* \"#utility.yul\":947:1274   */\n    tag_124:\n      0x00\n      dup1\n        /* \"#utility.yul\":1076:1078   */\n      0x40\n        /* \"#utility.yul\":1064:1073   */\n      dup4\n        /* \"#utility.yul\":1055:1062   */\n      dup6\n        /* \"#utility.yul\":1051:1074   */\n      sub\n        /* \"#utility.yul\":1047:1079   */\n      slt\n        /* \"#utility.yul\":1044:1046   */\n      iszero\n      tag_417\n      jumpi\n        /* \"#utility.yul\":1097:1103   */\n      dup2\n        /* \"#utility.yul\":1089:1095   */\n      dup3\n        /* \"#utility.yul\":1082:1104   */\n      revert\n        /* \"#utility.yul\":1044:1046   */\n    tag_417:\n        /* \"#utility.yul\":1141:1150   */\n      dup3\n        /* \"#utility.yul\":1128:1151   */\n      calldataload\n        /* \"#utility.yul\":1160:1193   */\n      tag_418\n        /* \"#utility.yul\":1187:1192   */\n      dup2\n        /* \"#utility.yul\":1160:1193   */\n      tag_407\n      jump\t// in\n    tag_418:\n        /* \"#utility.yul\":1212:1217   */\n      swap5\n        /* \"#utility.yul\":1264:1266   */\n      0x20\n        /* \"#utility.yul\":1249:1267   */\n      swap4\n      swap1\n      swap4\n      add\n        /* \"#utility.yul\":1236:1268   */\n      calldataload\n      swap4\n      pop\n      pop\n      pop\n        /* \"#utility.yul\":1034:1274   */\n      jump\t// out\n        /* \"#utility.yul\":1279:1532   */\n    tag_89:\n      0x00\n        /* \"#utility.yul\":1388:1390   */\n      0x20\n        /* \"#utility.yul\":1376:1385   */\n      dup3\n        /* \"#utility.yul\":1367:1374   */\n      dup5\n        /* \"#utility.yul\":1363:1386   */\n      sub\n        /* \"#utility.yul\":1359:1391   */\n      slt\n        /* \"#utility.yul\":1356:1358   */\n      iszero\n      tag_420\n      jumpi\n        /* \"#utility.yul\":1409:1415   */\n      dup1\n        /* \"#utility.yul\":1401:1407   */\n      dup2\n        /* \"#utility.yul\":1394:1416   */\n      revert\n        /* \"#utility.yul\":1356:1358   */\n    tag_420:\n        /* \"#utility.yul\":1453:1462   */\n      dup2\n        /* \"#utility.yul\":1440:1463   */\n      calldataload\n        /* \"#utility.yul\":1472:1502   */\n      tag_336\n        /* \"#utility.yul\":1496:1501   */\n      dup2\n        /* \"#utility.yul\":1472:1502   */\n      tag_415\n      jump\t// in\n        /* \"#utility.yul\":1537:1794   */\n    tag_294:\n      0x00\n        /* \"#utility.yul\":1657:1659   */\n      0x20\n        /* \"#utility.yul\":1645:1654   */\n      dup3\n        /* \"#utility.yul\":1636:1643   */\n      dup5\n        /* \"#utility.yul\":1632:1655   */\n      sub\n        /* \"#utility.yul\":1628:1660   */\n      slt\n        /* \"#utility.yul\":1625:1627   */\n      iszero\n      tag_423\n      jumpi\n        /* \"#utility.yul\":1678:1684   */\n      dup1\n        /* \"#utility.yul\":1670:1676   */\n      dup2\n        /* \"#utility.yul\":1663:1685   */\n      revert\n        /* \"#utility.yul\":1625:1627   */\n    tag_423:\n        /* \"#utility.yul\":1715:1724   */\n      dup2\n        /* \"#utility.yul\":1709:1725   */\n      mload\n        /* \"#utility.yul\":1734:1764   */\n      tag_336\n        /* \"#utility.yul\":1758:1763   */\n      dup2\n        /* \"#utility.yul\":1734:1764   */\n      tag_415\n      jump\t// in\n        /* \"#utility.yul\":2088:3376   */\n    tag_74:\n      0x00\n      dup1\n      0x00\n      dup1\n      0x00\n      dup1\n      0x00\n        /* \"#utility.yul\":2469:2472   */\n      0xe0\n        /* \"#utility.yul\":2457:2466   */\n      dup9\n        /* \"#utility.yul\":2448:2455   */\n      dup11\n        /* \"#utility.yul\":2444:2467   */\n      sub\n        /* \"#utility.yul\":2440:2473   */\n      slt\n        /* \"#utility.yul\":2437:2439   */\n      iszero\n      tag_429\n      jumpi\n        /* \"#utility.yul\":2491:2497   */\n      dup3\n        /* \"#utility.yul\":2483:2489   */\n      dup4\n        /* \"#utility.yul\":2476:2498   */\n      revert\n        /* \"#utility.yul\":2437:2439   */\n    tag_429:\n        /* \"#utility.yul\":2535:2544   */\n      dup8\n        /* \"#utility.yul\":2522:2545   */\n      calldataload\n        /* \"#utility.yul\":2554:2587   */\n      tag_430\n        /* \"#utility.yul\":2581:2586   */\n      dup2\n        /* \"#utility.yul\":2554:2587   */\n      tag_407\n      jump\t// in\n    tag_430:\n        /* \"#utility.yul\":2606:2611   */\n      swap7\n      pop\n        /* \"#utility.yul\":2663:2665   */\n      0x20\n        /* \"#utility.yul\":2648:2666   */\n      dup9\n      add\n        /* \"#utility.yul\":2635:2667   */\n      calldataload\n        /* \"#utility.yul\":2676:2711   */\n      tag_431\n        /* \"#utility.yul\":2635:2667   */\n      dup2\n        /* \"#utility.yul\":2676:2711   */\n      tag_407\n      jump\t// in\n    tag_431:\n        /* \"#utility.yul\":2730:2737   */\n      swap6\n      pop\n        /* \"#utility.yul\":2789:2791   */\n      0x40\n        /* \"#utility.yul\":2774:2792   */\n      dup9\n      add\n        /* \"#utility.yul\":2761:2793   */\n      calldataload\n        /* \"#utility.yul\":2802:2837   */\n      tag_432\n        /* \"#utility.yul\":2761:2793   */\n      dup2\n        /* \"#utility.yul\":2802:2837   */\n      tag_407\n      jump\t// in\n    tag_432:\n        /* \"#utility.yul\":2856:2863   */\n      swap5\n      pop\n        /* \"#utility.yul\":2915:2917   */\n      0x60\n        /* \"#utility.yul\":2900:2918   */\n      dup9\n      add\n        /* \"#utility.yul\":2887:2919   */\n      calldataload\n        /* \"#utility.yul\":2928:2963   */\n      tag_433\n        /* \"#utility.yul\":2887:2919   */\n      dup2\n        /* \"#utility.yul\":2928:2963   */\n      tag_407\n      jump\t// in\n    tag_433:\n        /* \"#utility.yul\":2982:2989   */\n      swap4\n      pop\n        /* \"#utility.yul\":3041:3044   */\n      0x80\n        /* \"#utility.yul\":3026:3045   */\n      dup9\n      add\n        /* \"#utility.yul\":3013:3046   */\n      calldataload\n        /* \"#utility.yul\":3055:3090   */\n      tag_434\n        /* \"#utility.yul\":3013:3046   */\n      dup2\n        /* \"#utility.yul\":3055:3090   */\n      tag_407\n      jump\t// in\n    tag_434:\n        /* \"#utility.yul\":3109:3116   */\n      swap3\n      pop\n        /* \"#utility.yul\":3168:3171   */\n      0xa0\n        /* \"#utility.yul\":3153:3172   */\n      dup9\n      add\n        /* \"#utility.yul\":3140:3173   */\n      calldataload\n        /* \"#utility.yul\":3182:3217   */\n      tag_435\n        /* \"#utility.yul\":3140:3173   */\n      dup2\n        /* \"#utility.yul\":3182:3217   */\n      tag_407\n      jump\t// in\n    tag_435:\n        /* \"#utility.yul\":3236:3243   */\n      swap2\n      pop\n        /* \"#utility.yul\":3295:3298   */\n      0xc0\n        /* \"#utility.yul\":3280:3299   */\n      dup9\n      add\n        /* \"#utility.yul\":3267:3300   */\n      calldataload\n        /* \"#utility.yul\":3309:3344   */\n      tag_436\n        /* \"#utility.yul\":3267:3300   */\n      dup2\n        /* \"#utility.yul\":3309:3344   */\n      tag_407\n      jump\t// in\n    tag_436:\n        /* \"#utility.yul\":3363:3370   */\n      dup1\n        /* \"#utility.yul\":3353:3370   */\n      swap2\n      pop\n      pop\n        /* \"#utility.yul\":2427:3376   */\n      swap3\n      swap6\n      swap9\n      swap2\n      swap5\n      swap8\n      pop\n      swap3\n      swap6\n      pop\n      jump\t// out\n        /* \"#utility.yul\":3381:3571   */\n    tag_52:\n      0x00\n        /* \"#utility.yul\":3493:3495   */\n      0x20\n        /* \"#utility.yul\":3481:3490   */\n      dup3\n        /* \"#utility.yul\":3472:3479   */\n      dup5\n        /* \"#utility.yul\":3468:3491   */\n      sub\n        /* \"#utility.yul\":3464:3496   */\n      slt\n        /* \"#utility.yul\":3461:3463   */\n      iszero\n      tag_438\n      jumpi\n        /* \"#utility.yul\":3514:3520   */\n      dup1\n        /* \"#utility.yul\":3506:3512   */\n      dup2\n        /* \"#utility.yul\":3499:3521   */\n      revert\n        /* \"#utility.yul\":3461:3463   */\n    tag_438:\n      pop\n        /* \"#utility.yul\":3542:3565   */\n      calldataload\n      swap2\n        /* \"#utility.yul\":3451:3571   */\n      swap1\n      pop\n      jump\t// out\n        /* \"#utility.yul\":3576:3770   */\n    tag_273:\n      0x00\n        /* \"#utility.yul\":3699:3701   */\n      0x20\n        /* \"#utility.yul\":3687:3696   */\n      dup3\n        /* \"#utility.yul\":3678:3685   */\n      dup5\n        /* \"#utility.yul\":3674:3697   */\n      sub\n        /* \"#utility.yul\":3670:3702   */\n      slt\n        /* \"#utility.yul\":3667:3669   */\n      iszero\n      tag_440\n      jumpi\n        /* \"#utility.yul\":3720:3726   */\n      dup1\n        /* \"#utility.yul\":3712:3718   */\n      dup2\n        /* \"#utility.yul\":3705:3727   */\n      revert\n        /* \"#utility.yul\":3667:3669   */\n    tag_440:\n      pop\n        /* \"#utility.yul\":3748:3764   */\n      mload\n      swap2\n        /* \"#utility.yul\":3657:3770   */\n      swap1\n      pop\n      jump\t// out\n        /* \"#utility.yul\":3775:4049   */\n    tag_389:\n      0x00\n        /* \"#utility.yul\":3942:3948   */\n      dup3\n        /* \"#utility.yul\":3936:3949   */\n      mload\n        /* \"#utility.yul\":3958:4011   */\n      tag_442\n        /* \"#utility.yul\":4004:4010   */\n      dup2\n        /* \"#utility.yul\":3999:4002   */\n      dup5\n        /* \"#utility.yul\":3992:3996   */\n      0x20\n        /* \"#utility.yul\":3984:3990   */\n      dup8\n        /* \"#utility.yul\":3980:3997   */\n      add\n        /* \"#utility.yul\":3958:4011   */\n      tag_443\n      jump\t// in\n    tag_442:\n        /* \"#utility.yul\":4027:4043   */\n      swap2\n      swap1\n      swap2\n      add\n      swap3\n        /* \"#utility.yul\":3912:4049   */\n      swap2\n      pop\n      pop\n      jump\t// out\n        /* \"#utility.yul\":4054:4257   */\n    tag_115:\n      sub(shl(0xa0, 0x01), 0x01)\n        /* \"#utility.yul\":4218:4250   */\n      swap2\n      swap1\n      swap2\n      and\n        /* \"#utility.yul\":4200:4251   */\n      dup2\n      mstore\n        /* \"#utility.yul\":4188:4190   */\n      0x20\n        /* \"#utility.yul\":4173:4191   */\n      add\n      swap1\n        /* \"#utility.yul\":4155:4257   */\n      jump\t// out\n        /* \"#utility.yul\":4262:4566   */\n    tag_346:\n      sub(shl(0xa0, 0x01), 0x01)\n        /* \"#utility.yul\":4492:4507   */\n      swap3\n      dup4\n      and\n        /* \"#utility.yul\":4474:4508   */\n      dup2\n      mstore\n        /* \"#utility.yul\":4544:4559   */\n      swap2\n      and\n        /* \"#utility.yul\":4539:4541   */\n      0x20\n        /* \"#utility.yul\":4524:4542   */\n      dup3\n      add\n        /* \"#utility.yul\":4517:4560   */\n      mstore\n        /* \"#utility.yul\":4424:4426   */\n      0x40\n        /* \"#utility.yul\":4409:4427   */\n      add\n      swap1\n        /* \"#utility.yul\":4391:4566   */\n      jump\t// out\n        /* \"#utility.yul\":4571:4845   */\n    tag_333:\n      sub(shl(0xa0, 0x01), 0x01)\n        /* \"#utility.yul\":4763:4795   */\n      swap3\n      swap1\n      swap3\n      and\n        /* \"#utility.yul\":4745:4796   */\n      dup3\n      mstore\n        /* \"#utility.yul\":4827:4829   */\n      0x20\n        /* \"#utility.yul\":4812:4830   */\n      dup3\n      add\n        /* \"#utility.yul\":4805:4839   */\n      mstore\n        /* \"#utility.yul\":4733:4735   */\n      0x40\n        /* \"#utility.yul\":4718:4736   */\n      add\n      swap1\n        /* \"#utility.yul\":4700:4845   */\n      jump\t// out\n        /* \"#utility.yul\":4850:5037   */\n    tag_55:\n        /* \"#utility.yul\":5015:5029   */\n      swap1\n      iszero\n        /* \"#utility.yul\":5008:5030   */\n      iszero\n        /* \"#utility.yul\":4990:5031   */\n      dup2\n      mstore\n        /* \"#utility.yul\":4978:4980   */\n      0x20\n        /* \"#utility.yul\":4963:4981   */\n      add\n      swap1\n        /* \"#utility.yul\":4945:5037   */\n      jump\t// out\n        /* \"#utility.yul\":5966:6349   */\n    tag_402:\n      0x00\n        /* \"#utility.yul\":6115:6117   */\n      0x20\n        /* \"#utility.yul\":6104:6113   */\n      dup3\n        /* \"#utility.yul\":6097:6118   */\n      mstore\n        /* \"#utility.yul\":6147:6153   */\n      dup3\n        /* \"#utility.yul\":6141:6154   */\n      mload\n        /* \"#utility.yul\":6190:6196   */\n      dup1\n        /* \"#utility.yul\":6185:6187   */\n      0x20\n        /* \"#utility.yul\":6174:6183   */\n      dup5\n        /* \"#utility.yul\":6170:6188   */\n      add\n        /* \"#utility.yul\":6163:6197   */\n      mstore\n        /* \"#utility.yul\":6206:6272   */\n      tag_453\n        /* \"#utility.yul\":6265:6271   */\n      dup2\n        /* \"#utility.yul\":6260:6262   */\n      0x40\n        /* \"#utility.yul\":6249:6258   */\n      dup6\n        /* \"#utility.yul\":6245:6263   */\n      add\n        /* \"#utility.yul\":6240:6242   */\n      0x20\n        /* \"#utility.yul\":6232:6238   */\n      dup8\n        /* \"#utility.yul\":6228:6243   */\n      add\n        /* \"#utility.yul\":6206:6272   */\n      tag_443\n      jump\t// in\n    tag_453:\n        /* \"#utility.yul\":6333:6335   */\n      0x1f\n        /* \"#utility.yul\":6312:6327   */\n      add\n      not(0x1f)\n        /* \"#utility.yul\":6308:6337   */\n      and\n        /* \"#utility.yul\":6293:6338   */\n      swap2\n      swap1\n      swap2\n      add\n        /* \"#utility.yul\":6340:6342   */\n      0x40\n        /* \"#utility.yul\":6289:6343   */\n      add\n      swap3\n        /* \"#utility.yul\":6087:6349   */\n      swap2\n      pop\n      pop\n      jump\t// out\n        /* \"#utility.yul\":6354:6756   */\n    tag_315:\n        /* \"#utility.yul\":6556:6558   */\n      0x20\n        /* \"#utility.yul\":6538:6559   */\n      dup1\n      dup3\n      mstore\n        /* \"#utility.yul\":6595:6597   */\n      0x26\n        /* \"#utility.yul\":6575:6593   */\n      swap1\n      dup3\n      add\n        /* \"#utility.yul\":6568:6598   */\n      mstore\n        /* \"#utility.yul\":6634:6668   */\n      0x4f776e61626c653a206e6577206f776e657220697320746865207a65726f2061\n        /* \"#utility.yul\":6629:6631   */\n      0x40\n        /* \"#utility.yul\":6614:6632   */\n      dup3\n      add\n        /* \"#utility.yul\":6607:6669   */\n      mstore\n      shl(0xd0, 0x646472657373)\n        /* \"#utility.yul\":6700:6702   */\n      0x60\n        /* \"#utility.yul\":6685:6703   */\n      dup3\n      add\n        /* \"#utility.yul\":6678:6714   */\n      mstore\n        /* \"#utility.yul\":6746:6749   */\n      0x80\n        /* \"#utility.yul\":6731:6750   */\n      add\n      swap1\n        /* \"#utility.yul\":6528:6756   */\n      jump\t// out\n        /* \"#utility.yul\":6761:7161   */\n    tag_266:\n        /* \"#utility.yul\":6963:6965   */\n      0x20\n        /* \"#utility.yul\":6945:6966   */\n      dup1\n      dup3\n      mstore\n        /* \"#utility.yul\":7002:7004   */\n      0x24\n        /* \"#utility.yul\":6982:7000   */\n      swap1\n      dup3\n      add\n        /* \"#utility.yul\":6975:7005   */\n      mstore\n        /* \"#utility.yul\":7041:7075   */\n      0x6578656375746f723a2063616c6c6572206973206e6f74207468652065786563\n        /* \"#utility.yul\":7036:7038   */\n      0x40\n        /* \"#utility.yul\":7021:7039   */\n      dup3\n      add\n        /* \"#utility.yul\":7014:7076   */\n      mstore\n      shl(0xe1, 0x3aba37b9)\n        /* \"#utility.yul\":7107:7109   */\n      0x60\n        /* \"#utility.yul\":7092:7110   */\n      dup3\n      add\n        /* \"#utility.yul\":7085:7119   */\n      mstore\n        /* \"#utility.yul\":7151:7154   */\n      0x80\n        /* \"#utility.yul\":7136:7155   */\n      add\n      swap1\n        /* \"#utility.yul\":6935:7161   */\n      jump\t// out\n        /* \"#utility.yul\":7166:7568   */\n    tag_382:\n        /* \"#utility.yul\":7368:7370   */\n      0x20\n        /* \"#utility.yul\":7350:7371   */\n      dup1\n      dup3\n      mstore\n        /* \"#utility.yul\":7407:7409   */\n      0x26\n        /* \"#utility.yul\":7387:7405   */\n      swap1\n      dup3\n      add\n        /* \"#utility.yul\":7380:7410   */\n      mstore\n        /* \"#utility.yul\":7446:7480   */\n      0x416464726573733a20696e73756666696369656e742062616c616e636520666f\n        /* \"#utility.yul\":7441:7443   */\n      0x40\n        /* \"#utility.yul\":7426:7444   */\n      dup3\n      add\n        /* \"#utility.yul\":7419:7481   */\n      mstore\n      shl(0xd2, 0x1c8818d85b1b)\n        /* \"#utility.yul\":7512:7514   */\n      0x60\n        /* \"#utility.yul\":7497:7515   */\n      dup3\n      add\n        /* \"#utility.yul\":7490:7526   */\n      mstore\n        /* \"#utility.yul\":7558:7561   */\n      0x80\n        /* \"#utility.yul\":7543:7562   */\n      add\n      swap1\n        /* \"#utility.yul\":7340:7568   */\n      jump\t// out\n        /* \"#utility.yul\":7573:7983   */\n    tag_204:\n        /* \"#utility.yul\":7775:7777   */\n      0x20\n        /* \"#utility.yul\":7757:7778   */\n      dup1\n      dup3\n      mstore\n        /* \"#utility.yul\":7814:7816   */\n      0x2e\n        /* \"#utility.yul\":7794:7812   */\n      swap1\n      dup3\n      add\n        /* \"#utility.yul\":7787:7817   */\n      mstore\n        /* \"#utility.yul\":7853:7887   */\n      0x496e697469616c697a61626c653a20636f6e747261637420697320616c726561\n        /* \"#utility.yul\":7848:7850   */\n      0x40\n        /* \"#utility.yul\":7833:7851   */\n      dup3\n      add\n        /* \"#utility.yul\":7826:7888   */\n      mstore\n      shl(0x92, 0x191e481a5b9a5d1a585b1a5e9959)\n        /* \"#utility.yul\":7919:7921   */\n      0x60\n        /* \"#utility.yul\":7904:7922   */\n      dup3\n      add\n        /* \"#utility.yul\":7897:7941   */\n      mstore\n        /* \"#utility.yul\":7973:7976   */\n      0x80\n        /* \"#utility.yul\":7958:7977   */\n      add\n      swap1\n        /* \"#utility.yul\":7747:7983   */\n      jump\t// out\n        /* \"#utility.yul\":7988:8344   */\n    tag_186:\n        /* \"#utility.yul\":8190:8192   */\n      0x20\n        /* \"#utility.yul\":8172:8193   */\n      dup1\n      dup3\n      mstore\n        /* \"#utility.yul\":8209:8227   */\n      dup2\n      dup2\n      add\n        /* \"#utility.yul\":8202:8232   */\n      mstore\n        /* \"#utility.yul\":8268:8302   */\n      0x4f776e61626c653a2063616c6c6572206973206e6f7420746865206f776e6572\n        /* \"#utility.yul\":8263:8265   */\n      0x40\n        /* \"#utility.yul\":8248:8266   */\n      dup3\n      add\n        /* \"#utility.yul\":8241:8303   */\n      mstore\n        /* \"#utility.yul\":8335:8337   */\n      0x60\n        /* \"#utility.yul\":8320:8338   */\n      add\n      swap1\n        /* \"#utility.yul\":8162:8344   */\n      jump\t// out\n        /* \"#utility.yul\":8349:8702   */\n    tag_387:\n        /* \"#utility.yul\":8551:8553   */\n      0x20\n        /* \"#utility.yul\":8533:8554   */\n      dup1\n      dup3\n      mstore\n        /* \"#utility.yul\":8590:8592   */\n      0x1d\n        /* \"#utility.yul\":8570:8588   */\n      swap1\n      dup3\n      add\n        /* \"#utility.yul\":8563:8593   */\n      mstore\n        /* \"#utility.yul\":8629:8660   */\n      0x416464726573733a2063616c6c20746f206e6f6e2d636f6e7472616374000000\n        /* \"#utility.yul\":8624:8626   */\n      0x40\n        /* \"#utility.yul\":8609:8627   */\n      dup3\n      add\n        /* \"#utility.yul\":8602:8661   */\n      mstore\n        /* \"#utility.yul\":8693:8695   */\n      0x60\n        /* \"#utility.yul\":8678:8696   */\n      add\n      swap1\n        /* \"#utility.yul\":8523:8702   */\n      jump\t// out\n        /* \"#utility.yul\":8707:9113   */\n    tag_375:\n        /* \"#utility.yul\":8909:8911   */\n      0x20\n        /* \"#utility.yul\":8891:8912   */\n      dup1\n      dup3\n      mstore\n        /* \"#utility.yul\":8948:8950   */\n      0x2a\n        /* \"#utility.yul\":8928:8946   */\n      swap1\n      dup3\n      add\n        /* \"#utility.yul\":8921:8951   */\n      mstore\n        /* \"#utility.yul\":8987:9021   */\n      0x5361666545524332303a204552433230206f7065726174696f6e20646964206e\n        /* \"#utility.yul\":8982:8984   */\n      0x40\n        /* \"#utility.yul\":8967:8985   */\n      dup3\n      add\n        /* \"#utility.yul\":8960:9022   */\n      mstore\n      shl(0xb2, 0x1bdd081cdd58d8d95959)\n        /* \"#utility.yul\":9053:9055   */\n      0x60\n        /* \"#utility.yul\":9038:9056   */\n      dup3\n      add\n        /* \"#utility.yul\":9031:9071   */\n      mstore\n        /* \"#utility.yul\":9103:9106   */\n      0x80\n        /* \"#utility.yul\":9088:9107   */\n      add\n      swap1\n        /* \"#utility.yul\":8881:9113   */\n      jump\t// out\n        /* \"#utility.yul\":9118:9295   */\n    tag_49:\n        /* \"#utility.yul\":9264:9289   */\n      swap1\n      dup2\n      mstore\n        /* \"#utility.yul\":9252:9254   */\n      0x20\n        /* \"#utility.yul\":9237:9255   */\n      add\n      swap1\n        /* \"#utility.yul\":9219:9295   */\n      jump\t// out\n        /* \"#utility.yul\":9300:9517   */\n    tag_340:\n      0x00\n        /* \"#utility.yul\":9366:9367   */\n      dup3\n        /* \"#utility.yul\":9356:9358   */\n      tag_463\n      jumpi\n      shl(0xe0, 0x4e487b71)\n        /* \"#utility.yul\":9391:9422   */\n      dup2\n      mstore\n        /* \"#utility.yul\":9445:9449   */\n      0x12\n        /* \"#utility.yul\":9442:9443   */\n      0x04\n        /* \"#utility.yul\":9435:9450   */\n      mstore\n        /* \"#utility.yul\":9473:9477   */\n      0x24\n        /* \"#utility.yul\":9398:9399   */\n      dup2\n        /* \"#utility.yul\":9463:9478   */\n      revert\n        /* \"#utility.yul\":9356:9358   */\n    tag_463:\n      pop\n        /* \"#utility.yul\":9502:9511   */\n      div\n      swap1\n        /* \"#utility.yul\":9346:9517   */\n      jump\t// out\n        /* \"#utility.yul\":9522:9690   */\n    tag_337:\n      0x00\n        /* \"#utility.yul\":9628:9629   */\n      dup2\n        /* \"#utility.yul\":9624:9625   */\n      0x00\n        /* \"#utility.yul\":9620:9626   */\n      not\n        /* \"#utility.yul\":9616:9630   */\n      div\n        /* \"#utility.yul\":9613:9614   */\n      dup4\n        /* \"#utility.yul\":9610:9631   */\n      gt\n        /* \"#utility.yul\":9605:9606   */\n      dup3\n        /* \"#utility.yul\":9598:9607   */\n      iszero\n        /* \"#utility.yul\":9591:9608   */\n      iszero\n        /* \"#utility.yul\":9587:9632   */\n      and\n        /* \"#utility.yul\":9584:9586   */\n      iszero\n      tag_466\n      jumpi\n        /* \"#utility.yul\":9635:9653   */\n      tag_466\n      tag_467\n      jump\t// in\n    tag_466:\n      pop\n        /* \"#utility.yul\":9675:9684   */\n      mul\n      swap1\n        /* \"#utility.yul\":9574:9690   */\n      jump\t// out\n        /* \"#utility.yul\":9695:9820   */\n    tag_343:\n      0x00\n        /* \"#utility.yul\":9763:9764   */\n      dup3\n        /* \"#utility.yul\":9760:9761   */\n      dup3\n        /* \"#utility.yul\":9757:9765   */\n      lt\n        /* \"#utility.yul\":9754:9756   */\n      iszero\n      tag_470\n      jumpi\n        /* \"#utility.yul\":9768:9786   */\n      tag_470\n      tag_467\n      jump\t// in\n    tag_470:\n      pop\n        /* \"#utility.yul\":9805:9814   */\n      sub\n      swap1\n        /* \"#utility.yul\":9744:9820   */\n      jump\t// out\n        /* \"#utility.yul\":9825:10083   */\n    tag_443:\n        /* \"#utility.yul\":9897:9898   */\n      0x00\n        /* \"#utility.yul\":9907:10020   */\n    tag_472:\n        /* \"#utility.yul\":9921:9927   */\n      dup4\n        /* \"#utility.yul\":9918:9919   */\n      dup2\n        /* \"#utility.yul\":9915:9928   */\n      lt\n        /* \"#utility.yul\":9907:10020   */\n      iszero\n      tag_474\n      jumpi\n        /* \"#utility.yul\":9997:10008   */\n      dup2\n      dup2\n      add\n        /* \"#utility.yul\":9991:10009   */\n      mload\n        /* \"#utility.yul\":9978:9989   */\n      dup4\n      dup3\n      add\n        /* \"#utility.yul\":9971:10010   */\n      mstore\n        /* \"#utility.yul\":9943:9945   */\n      0x20\n        /* \"#utility.yul\":9936:9946   */\n      add\n        /* \"#utility.yul\":9907:10020   */\n      jump(tag_472)\n    tag_474:\n        /* \"#utility.yul\":10038:10044   */\n      dup4\n        /* \"#utility.yul\":10035:10036   */\n      dup2\n        /* \"#utility.yul\":10032:10045   */\n      gt\n        /* \"#utility.yul\":10029:10031   */\n      iszero\n      tag_475\n      jumpi\n        /* \"#utility.yul\":10073:10074   */\n      0x00\n        /* \"#utility.yul\":10064:10070   */\n      dup5\n        /* \"#utility.yul\":10059:10062   */\n      dup5\n        /* \"#utility.yul\":10055:10071   */\n      add\n        /* \"#utility.yul\":10048:10075   */\n      mstore\n        /* \"#utility.yul\":10029:10031   */\n    tag_475:\n      pop\n        /* \"#utility.yul\":9878:10083   */\n      pop\n      pop\n      pop\n      jump\t// out\n        /* \"#utility.yul\":10088:10215   */\n    tag_467:\n        /* \"#utility.yul\":10149:10159   */\n      0x4e487b71\n        /* \"#utility.yul\":10144:10147   */\n      0xe0\n        /* \"#utility.yul\":10140:10160   */\n      shl\n        /* \"#utility.yul\":10137:10138   */\n      0x00\n        /* \"#utility.yul\":10130:10161   */\n      mstore\n        /* \"#utility.yul\":10180:10184   */\n      0x11\n        /* \"#utility.yul\":10177:10178   */\n      0x04\n        /* \"#utility.yul\":10170:10185   */\n      mstore\n        /* \"#utility.yul\":10204:10208   */\n      0x24\n        /* \"#utility.yul\":10201:10202   */\n      0x00\n        /* \"#utility.yul\":10194:10209   */\n      revert\n        /* \"#utility.yul\":10220:10353   */\n    tag_407:\n      sub(shl(0xa0, 0x01), 0x01)\n        /* \"#utility.yul\":10297:10328   */\n      dup2\n      and\n        /* \"#utility.yul\":10287:10329   */\n      dup2\n      eq\n        /* \"#utility.yul\":10277:10279   */\n      tag_316\n      jumpi\n        /* \"#utility.yul\":10343:10344   */\n      0x00\n        /* \"#utility.yul\":10340:10341   */\n      dup1\n        /* \"#utility.yul\":10333:10345   */\n      revert\n        /* \"#utility.yul\":10358:10478   */\n    tag_415:\n        /* \"#utility.yul\":10446:10451   */\n      dup1\n        /* \"#utility.yul\":10439:10452   */\n      iszero\n        /* \"#utility.yul\":10432:10453   */\n      iszero\n        /* \"#utility.yul\":10425:10430   */\n      dup2\n        /* \"#utility.yul\":10422:10454   */\n      eq\n        /* \"#utility.yul\":10412:10414   */\n      tag_316\n      jumpi\n        /* \"#utility.yul\":10468:10469   */\n      0x00\n        /* \"#utility.yul\":10465:10466   */\n      dup1\n        /* \"#utility.yul\":10458:10470   */\n      revert\n\n    auxdata: 0xa264697066735822122070cc6a9ca8bdc19a8b3de12baacc67a7ad70b380fc6dced7195437f0d2c2430964736f6c63430008000033\n}\n",
				"bytecode": {
					"linkReferences": {},
					"object": "608060405234801561001057600080fd5b50611717806100206000396000f3fe608060405234801561001057600080fd5b506004361061021c5760003560e01c80638da5cb5b11610125578063bd0b1f44116100ad578063db7f521a1161007c578063db7f521a146103da578063ec1f1f69146103ed578063f1068454146103f5578063f2fde38b146103fd578063f6d7eade146104105761021c565b8063bd0b1f44146103af578063c83dd231146103b7578063d10c06a2146103bf578063d477f05f146103c75761021c565b8063a36a7526116100f4578063a36a752614610366578063aaf5bfc314610379578063aaf5eb681461038c578063af5518c414610394578063b8bb97a1146103a75761021c565b80638da5cb5b1461033b57806391cca3db14610343578063930ed0331461034b5780639da5b0d51461035e5761021c565b80633e413bee116101a85780634ecaac41116101775780634ecaac411461030857806355c746d11461031057806358de5de814610323578063715018a61461032b5780637e47961c146103335761021c565b80633e413bee146102d25780634591db50146102da57806348c7e528146102ed5780634ae6a027146103005761021c565b80632c535a52116101ef5780632c535a52146102855780633011d3d51461028d57806335876476146102a257806336e9332d146102b75780633c850e1e146102bf5761021c565b806316d03993146102215780631b0d8aab1461023f5780631e1bff3f1461025f57806327c42a5014610272575b600080fd5b610229610418565b6040516102369190611619565b60405180910390f35b61025261024d366004611374565b61041e565b6040516102369190611407565b61025261026d366004611244565b610471565b610252610280366004611374565b6104e1565b61022961052b565b610295610531565b60405161023691906113c0565b6102b56102b03660046112df565b610540565b005b61029561067f565b6102526102cd366004611374565b61068e565b6102956106d8565b6102526102e83660046112a7565b6106e7565b6102526102fb36600461120c565b610749565b61022961075e565b610295610764565b61025261031e3660046112a7565b610773565b6102526107d5565b6102b56107e5565b610295610830565b61029561083f565b61029561084e565b61025261035936600461127c565b61085d565b6102526108bb565b61025261037436600461120c565b6108cb565b61025261038736600461120c565b610931565b610229610997565b6102526103a2366004611374565b61099d565b6102956109e7565b6102296109f6565b6102956109fc565b610252610a0b565b6102526103d536600461120c565b610c32565b6102526103e836600461120c565b610c98565b610295610cfe565b610229610d0d565b6102b561040b36600461120c565b610d13565b610295610d84565b60725481565b6000610428610d93565b6001600160a01b031661043961083f565b6001600160a01b0316146104685760405162461bcd60e51b815260040161045f90611563565b60405180910390fd5b50607355600190565b600061047b610d93565b6001600160a01b031661048c61083f565b6001600160a01b0316146104b25760405162461bcd60e51b815260040161045f90611563565b506001600160a01b0382166000908152606560205260409020805482151560ff19909116179055600192915050565b60006104eb610d93565b6001600160a01b03166104fc61083f565b6001600160a01b0316146105225760405162461bcd60e51b815260040161045f90611563565b50606e55600190565b606f5481565b6066546001600160a01b031681565b600054610100900460ff1680610559575060005460ff16155b6105755760405162461bcd60e51b815260040161045f90611515565b600054610100900460ff161580156105a0576000805460ff1961ff0019909116610100171660011790555b6105a8610d97565b606c80546001600160a01b03199081166001600160a01b038a811691909117909255606d805482168b8416179055606680548216898416179055606880548216878416179055606980548216868416179055606a8054339083168117909155606b805483169091179055611388606e556109c4606f8190556070556127106071556103e860725560748054600160a01b60ff60a01b1990911617600161ff0160a01b031916858416179055606780549091169187169190911790558015610675576000805461ff00191690555b5050505050505050565b6074546001600160a01b031681565b6000610698610d93565b6001600160a01b03166106a961083f565b6001600160a01b0316146106cf5760405162461bcd60e51b815260040161045f90611563565b50607055600190565b6067546001600160a01b031681565b60006106f1610d93565b6001600160a01b031661070261083f565b6001600160a01b0316146107285760405162461bcd60e51b815260040161045f90611563565b5060748054821515600160a01b0260ff60a01b199091161790556001919050565b60656020526000908152604090205460ff1681565b60705481565b6068546001600160a01b031681565b600061077d610d93565b6001600160a01b031661078e61083f565b6001600160a01b0316146107b45760405162461bcd60e51b815260040161045f90611563565b5060748054821515600160a81b0260ff60a81b199091161790556001919050565b607454600160a81b900460ff1681565b6107ed610d93565b6001600160a01b03166107fe61083f565b6001600160a01b0316146108245760405162461bcd60e51b815260040161045f90611563565b61082e6000610e1b565b565b6075546001600160a01b031681565b6033546001600160a01b031690565b606b546001600160a01b031681565b6000610867610d93565b6001600160a01b031661087861083f565b6001600160a01b03161461089e5760405162461bcd60e51b815260040161045f90611563565b6108b26001600160a01b0384163384610e6d565b50600192915050565b607454600160a01b900460ff1681565b60006108d5610d93565b6001600160a01b03166108e661083f565b6001600160a01b03161461090c5760405162461bcd60e51b815260040161045f90611563565b50606a80546001600160a01b0383166001600160a01b03199091161790556001919050565b600061093b610d93565b6001600160a01b031661094c61083f565b6001600160a01b0316146109725760405162461bcd60e51b815260040161045f90611563565b50606780546001600160a01b0383166001600160a01b03199091161790556001919050565b60715481565b60006109a7610d93565b6001600160a01b03166109b861083f565b6001600160a01b0316146109de5760405162461bcd60e51b815260040161045f90611563565b50606f55600190565b6069546001600160a01b031681565b606e5481565b606d546001600160a01b031681565b3360009081526065602052604081205460ff16610a3a5760405162461bcd60e51b815260040161045f9061148b565b6066546040516370a0823160e01b81526000916001600160a01b0316906370a0823190610a6b9030906004016113c0565b60206040518083038186803b158015610a8357600080fd5b505afa158015610a97573d6000803e3d6000fd5b505050506040513d601f19601f82011682018060405250810190610abb919061138c565b90506000610ae0607154610ada606e5485610ec890919063ffffffff16565b90610edb565b90506000610aff607154610ada606f5486610ec890919063ffffffff16565b90506000610b1782610b118686610ee7565b90610ee7565b606954606654919250610b37916001600160a01b03908116911685610e6d565b606a54606654610b54916001600160a01b03918216911684610e6d565b606b54606654610b71916001600160a01b03918216911683610e6d565b607454600160a01b900460ff1615610b8b57610b8b610ef3565b607454600160a81b900460ff1615610c2757607560009054906101000a90046001600160a01b03166001600160a01b031663796c7be76040518163ffffffff1660e01b8152600401602060405180830381600087803b158015610bed57600080fd5b505af1158015610c01573d6000803e3d6000fd5b505050506040513d601f19601f82011682018060405250810190610c2591906112c3565b505b600194505050505090565b6000610c3c610d93565b6001600160a01b0316610c4d61083f565b6001600160a01b031614610c735760405162461bcd60e51b815260040161045f90611563565b50606b80546001600160a01b0383166001600160a01b03199091161790556001919050565b6000610ca2610d93565b6001600160a01b0316610cb361083f565b6001600160a01b031614610cd95760405162461bcd60e51b815260040161045f90611563565b50607580546001600160a01b0383166001600160a01b03199091161790556001919050565b606a546001600160a01b031681565b60735481565b610d1b610d93565b6001600160a01b0316610d2c61083f565b6001600160a01b031614610d525760405162461bcd60e51b815260040161045f90611563565b6001600160a01b038116610d785760405162461bcd60e51b815260040161045f90611445565b610d8181610e1b565b50565b606c546001600160a01b031681565b3390565b600054610100900460ff1680610db0575060005460ff16155b610dcc5760405162461bcd60e51b815260040161045f90611515565b600054610100900460ff16158015610df7576000805460ff1961ff0019909116610100171660011790555b610dff610f84565b610e07610ff7565b8015610d81576000805461ff001916905550565b603380546001600160a01b038381166001600160a01b0319831681179093556040519116919082907f8be0079c531659141344cd1fd0a4f28419497f9722a3daafe3b4186f6b6457e090600090a35050565b610ec38363a9059cbb60e01b8484604051602401610e8c9291906113ee565b60408051601f198184030181529190526020810180516001600160e01b03166001600160e01b031990931692909217909152611067565b505050565b6000610ed48284611642565b9392505050565b6000610ed48284611622565b6000610ed48284611661565b606d5460675460665460405163e6a4390560e01b81526000936001600160a01b039081169363e6a4390593610f30939183169216906004016113d4565b60206040518083038186803b158015610f4857600080fd5b505afa158015610f5c573d6000803e3d6000fd5b505050506040513d601f19601f82011682018060405250810190610f809190611228565b5050565b600054610100900460ff1680610f9d575060005460ff16155b610fb95760405162461bcd60e51b815260040161045f90611515565b600054610100900460ff16158015610e07576000805460ff1961ff0019909116610100171660011790558015610d81576000805461ff001916905550565b600054610100900460ff1680611010575060005460ff16155b61102c5760405162461bcd60e51b815260040161045f90611515565b600054610100900460ff16158015611057576000805460ff1961ff0019909116610100171660011790555b610e07611062610d93565b610e1b565b60006110bc826040518060400160405280602081526020017f5361666545524332303a206c6f772d6c6576656c2063616c6c206661696c6564815250856001600160a01b03166110f69092919063ffffffff16565b805190915015610ec357808060200190518101906110da91906112c3565b610ec35760405162461bcd60e51b815260040161045f906115cf565b6060611105848460008561110d565b949350505050565b60608247101561112f5760405162461bcd60e51b815260040161045f906114cf565b611138856111cd565b6111545760405162461bcd60e51b815260040161045f90611598565b600080866001600160a01b0316858760405161117091906113a4565b60006040518083038185875af1925050503d80600081146111ad576040519150601f19603f3d011682016040523d82523d6000602084013e6111b2565b606091505b50915091506111c28282866111d3565b979650505050505050565b3b151590565b606083156111e2575081610ed4565b8251156111f25782518084602001fd5b8160405162461bcd60e51b815260040161045f9190611412565b60006020828403121561121d578081fd5b8135610ed4816116be565b600060208284031215611239578081fd5b8151610ed4816116be565b60008060408385031215611256578081fd5b8235611261816116be565b91506020830135611271816116d3565b809150509250929050565b6000806040838503121561128e578182fd5b8235611299816116be565b946020939093013593505050565b6000602082840312156112b8578081fd5b8135610ed4816116d3565b6000602082840312156112d4578081fd5b8151610ed4816116d3565b600080600080600080600060e0888a0312156112f9578283fd5b8735611304816116be565b96506020880135611314816116be565b95506040880135611324816116be565b94506060880135611334816116be565b93506080880135611344816116be565b925060a0880135611354816116be565b915060c0880135611364816116be565b8091505092959891949750929550565b600060208284031215611385578081fd5b5035919050565b60006020828403121561139d578081fd5b5051919050565b600082516113b6818460208701611678565b9190910192915050565b6001600160a01b0391909116815260200190565b6001600160a01b0392831681529116602082015260400190565b6001600160a01b03929092168252602082015260400190565b901515815260200190565b6000602082528251806020840152611431816040850160208701611678565b601f01601f19169190910160400192915050565b60208082526026908201527f4f776e61626c653a206e6577206f776e657220697320746865207a65726f206160408201526564647265737360d01b606082015260800190565b60208082526024908201527f6578656375746f723a2063616c6c6572206973206e6f742074686520657865636040820152633aba37b960e11b606082015260800190565b60208082526026908201527f416464726573733a20696e73756666696369656e742062616c616e636520666f6040820152651c8818d85b1b60d21b606082015260800190565b6020808252602e908201527f496e697469616c697a61626c653a20636f6e747261637420697320616c72656160408201526d191e481a5b9a5d1a585b1a5e995960921b606082015260800190565b6020808252818101527f4f776e61626c653a2063616c6c6572206973206e6f7420746865206f776e6572604082015260600190565b6020808252601d908201527f416464726573733a2063616c6c20746f206e6f6e2d636f6e7472616374000000604082015260600190565b6020808252602a908201527f5361666545524332303a204552433230206f7065726174696f6e20646964206e6040820152691bdd081cdd58d8d9595960b21b606082015260800190565b90815260200190565b60008261163d57634e487b7160e01b81526012600452602481fd5b500490565b600081600019048311821515161561165c5761165c6116a8565b500290565b600082821015611673576116736116a8565b500390565b60005b8381101561169357818101518382015260200161167b565b838111156116a2576000848401525b50505050565b634e487b7160e01b600052601160045260246000fd5b6001600160a01b0381168114610d8157600080fd5b8015158114610d8157600080fdfea264697066735822122070cc6a9ca8bdc19a8b3de12baacc67a7ad70b380fc6dced7195437f0d2c2430964736f6c63430008000033",
					"opcodes": "PUSH1 0x80 PUSH1 0x40 MSTORE CALLVALUE DUP1 ISZERO PUSH2 0x10 JUMPI PUSH1 0x0 DUP1 REVERT JUMPDEST POP PUSH2 0x1717 DUP1 PUSH2 0x20 PUSH1 0x0 CODECOPY PUSH1 0x0 RETURN INVALID PUSH1 0x80 PUSH1 0x40 MSTORE CALLVALUE DUP1 ISZERO PUSH2 0x10 JUMPI PUSH1 0x0 DUP1 REVERT JUMPDEST POP PUSH1 0x4 CALLDATASIZE LT PUSH2 0x21C JUMPI PUSH1 0x0 CALLDATALOAD PUSH1 0xE0 SHR DUP1 PUSH4 0x8DA5CB5B GT PUSH2 0x125 JUMPI DUP1 PUSH4 0xBD0B1F44 GT PUSH2 0xAD JUMPI DUP1 PUSH4 0xDB7F521A GT PUSH2 0x7C JUMPI DUP1 PUSH4 0xDB7F521A EQ PUSH2 0x3DA JUMPI DUP1 PUSH4 0xEC1F1F69 EQ PUSH2 0x3ED JUMPI DUP1 PUSH4 0xF1068454 EQ PUSH2 0x3F5 JUMPI DUP1 PUSH4 0xF2FDE38B EQ PUSH2 0x3FD JUMPI DUP1 PUSH4 0xF6D7EADE EQ PUSH2 0x410 JUMPI PUSH2 0x21C JUMP JUMPDEST DUP1 PUSH4 0xBD0B1F44 EQ PUSH2 0x3AF JUMPI DUP1 PUSH4 0xC83DD231 EQ PUSH2 0x3B7 JUMPI DUP1 PUSH4 0xD10C06A2 EQ PUSH2 0x3BF JUMPI DUP1 PUSH4 0xD477F05F EQ PUSH2 0x3C7 JUMPI PUSH2 0x21C JUMP JUMPDEST DUP1 PUSH4 0xA36A7526 GT PUSH2 0xF4 JUMPI DUP1 PUSH4 0xA36A7526 EQ PUSH2 0x366 JUMPI DUP1 PUSH4 0xAAF5BFC3 EQ PUSH2 0x379 JUMPI DUP1 PUSH4 0xAAF5EB68 EQ PUSH2 0x38C JUMPI DUP1 PUSH4 0xAF5518C4 EQ PUSH2 0x394 JUMPI DUP1 PUSH4 0xB8BB97A1 EQ PUSH2 0x3A7 JUMPI PUSH2 0x21C JUMP JUMPDEST DUP1 PUSH4 0x8DA5CB5B EQ PUSH2 0x33B JUMPI DUP1 PUSH4 0x91CCA3DB EQ PUSH2 0x343 JUMPI DUP1 PUSH4 0x930ED033 EQ PUSH2 0x34B JUMPI DUP1 PUSH4 0x9DA5B0D5 EQ PUSH2 0x35E JUMPI PUSH2 0x21C JUMP JUMPDEST DUP1 PUSH4 0x3E413BEE GT PUSH2 0x1A8 JUMPI DUP1 PUSH4 0x4ECAAC41 GT PUSH2 0x177 JUMPI DUP1 PUSH4 0x4ECAAC41 EQ PUSH2 0x308 JUMPI DUP1 PUSH4 0x55C746D1 EQ PUSH2 0x310 JUMPI DUP1 PUSH4 0x58DE5DE8 EQ PUSH2 0x323 JUMPI DUP1 PUSH4 0x715018A6 EQ PUSH2 0x32B JUMPI DUP1 PUSH4 0x7E47961C EQ PUSH2 0x333 JUMPI PUSH2 0x21C JUMP JUMPDEST DUP1 PUSH4 0x3E413BEE EQ PUSH2 0x2D2 JUMPI DUP1 PUSH4 0x4591DB50 EQ PUSH2 0x2DA JUMPI DUP1 PUSH4 0x48C7E528 EQ PUSH2 0x2ED JUMPI DUP1 PUSH4 0x4AE6A027 EQ PUSH2 0x300 JUMPI PUSH2 0x21C JUMP JUMPDEST DUP1 PUSH4 0x2C535A52 GT PUSH2 0x1EF JUMPI DUP1 PUSH4 0x2C535A52 EQ PUSH2 0x285 JUMPI DUP1 PUSH4 0x3011D3D5 EQ PUSH2 0x28D JUMPI DUP1 PUSH4 0x35876476 EQ PUSH2 0x2A2 JUMPI DUP1 PUSH4 0x36E9332D EQ PUSH2 0x2B7 JUMPI DUP1 PUSH4 0x3C850E1E EQ PUSH2 0x2BF JUMPI PUSH2 0x21C JUMP JUMPDEST DUP1 PUSH4 0x16D03993 EQ PUSH2 0x221 JUMPI DUP1 PUSH4 0x1B0D8AAB EQ PUSH2 0x23F JUMPI DUP1 PUSH4 0x1E1BFF3F EQ PUSH2 0x25F JUMPI DUP1 PUSH4 0x27C42A50 EQ PUSH2 0x272 JUMPI JUMPDEST PUSH1 0x0 DUP1 REVERT JUMPDEST PUSH2 0x229 PUSH2 0x418 JUMP JUMPDEST PUSH1 0x40 MLOAD PUSH2 0x236 SWAP2 SWAP1 PUSH2 0x1619 JUMP JUMPDEST PUSH1 0x40 MLOAD DUP1 SWAP2 SUB SWAP1 RETURN JUMPDEST PUSH2 0x252 PUSH2 0x24D CALLDATASIZE PUSH1 0x4 PUSH2 0x1374 JUMP JUMPDEST PUSH2 0x41E JUMP JUMPDEST PUSH1 0x40 MLOAD PUSH2 0x236 SWAP2 SWAP1 PUSH2 0x1407 JUMP JUMPDEST PUSH2 0x252 PUSH2 0x26D CALLDATASIZE PUSH1 0x4 PUSH2 0x1244 JUMP JUMPDEST PUSH2 0x471 JUMP JUMPDEST PUSH2 0x252 PUSH2 0x280 CALLDATASIZE PUSH1 0x4 PUSH2 0x1374 JUMP JUMPDEST PUSH2 0x4E1 JUMP JUMPDEST PUSH2 0x229 PUSH2 0x52B JUMP JUMPDEST PUSH2 0x295 PUSH2 0x531 JUMP JUMPDEST PUSH1 0x40 MLOAD PUSH2 0x236 SWAP2 SWAP1 PUSH2 0x13C0 JUMP JUMPDEST PUSH2 0x2B5 PUSH2 0x2B0 CALLDATASIZE PUSH1 0x4 PUSH2 0x12DF JUMP JUMPDEST PUSH2 0x540 JUMP JUMPDEST STOP JUMPDEST PUSH2 0x295 PUSH2 0x67F JUMP JUMPDEST PUSH2 0x252 PUSH2 0x2CD CALLDATASIZE PUSH1 0x4 PUSH2 0x1374 JUMP JUMPDEST PUSH2 0x68E JUMP JUMPDEST PUSH2 0x295 PUSH2 0x6D8 JUMP JUMPDEST PUSH2 0x252 PUSH2 0x2E8 CALLDATASIZE PUSH1 0x4 PUSH2 0x12A7 JUMP JUMPDEST PUSH2 0x6E7 JUMP JUMPDEST PUSH2 0x252 PUSH2 0x2FB CALLDATASIZE PUSH1 0x4 PUSH2 0x120C JUMP JUMPDEST PUSH2 0x749 JUMP JUMPDEST PUSH2 0x229 PUSH2 0x75E JUMP JUMPDEST PUSH2 0x295 PUSH2 0x764 JUMP JUMPDEST PUSH2 0x252 PUSH2 0x31E CALLDATASIZE PUSH1 0x4 PUSH2 0x12A7 JUMP JUMPDEST PUSH2 0x773 JUMP JUMPDEST PUSH2 0x252 PUSH2 0x7D5 JUMP JUMPDEST PUSH2 0x2B5 PUSH2 0x7E5 JUMP JUMPDEST PUSH2 0x295 PUSH2 0x830 JUMP JUMPDEST PUSH2 0x295 PUSH2 0x83F JUMP JUMPDEST PUSH2 0x295 PUSH2 0x84E JUMP JUMPDEST PUSH2 0x252 PUSH2 0x359 CALLDATASIZE PUSH1 0x4 PUSH2 0x127C JUMP JUMPDEST PUSH2 0x85D JUMP JUMPDEST PUSH2 0x252 PUSH2 0x8BB JUMP JUMPDEST PUSH2 0x252 PUSH2 0x374 CALLDATASIZE PUSH1 0x4 PUSH2 0x120C JUMP JUMPDEST PUSH2 0x8CB JUMP JUMPDEST PUSH2 0x252 PUSH2 0x387 CALLDATASIZE PUSH1 0x4 PUSH2 0x120C JUMP JUMPDEST PUSH2 0x931 JUMP JUMPDEST PUSH2 0x229 PUSH2 0x997 JUMP JUMPDEST PUSH2 0x252 PUSH2 0x3A2 CALLDATASIZE PUSH1 0x4 PUSH2 0x1374 JUMP JUMPDEST PUSH2 0x99D JUMP JUMPDEST PUSH2 0x295 PUSH2 0x9E7 JUMP JUMPDEST PUSH2 0x229 PUSH2 0x9F6 JUMP JUMPDEST PUSH2 0x295 PUSH2 0x9FC JUMP JUMPDEST PUSH2 0x252 PUSH2 0xA0B JUMP JUMPDEST PUSH2 0x252 PUSH2 0x3D5 CALLDATASIZE PUSH1 0x4 PUSH2 0x120C JUMP JUMPDEST PUSH2 0xC32 JUMP JUMPDEST PUSH2 0x252 PUSH2 0x3E8 CALLDATASIZE PUSH1 0x4 PUSH2 0x120C JUMP JUMPDEST PUSH2 0xC98 JUMP JUMPDEST PUSH2 0x295 PUSH2 0xCFE JUMP JUMPDEST PUSH2 0x229 PUSH2 0xD0D JUMP JUMPDEST PUSH2 0x2B5 PUSH2 0x40B CALLDATASIZE PUSH1 0x4 PUSH2 0x120C JUMP JUMPDEST PUSH2 0xD13 JUMP JUMPDEST PUSH2 0x295 PUSH2 0xD84 JUMP JUMPDEST PUSH1 0x72 SLOAD DUP2 JUMP JUMPDEST PUSH1 0x0 PUSH2 0x428 PUSH2 0xD93 JUMP JUMPDEST PUSH1 0x1 PUSH1 0x1 PUSH1 0xA0 SHL SUB AND PUSH2 0x439 PUSH2 0x83F JUMP JUMPDEST PUSH1 0x1 PUSH1 0x1 PUSH1 0xA0 SHL SUB AND EQ PUSH2 0x468 JUMPI PUSH1 0x40 MLOAD PUSH3 0x461BCD PUSH1 0xE5 SHL DUP2 MSTORE PUSH1 0x4 ADD PUSH2 0x45F SWAP1 PUSH2 0x1563 JUMP JUMPDEST PUSH1 0x40 MLOAD DUP1 SWAP2 SUB SWAP1 REVERT JUMPDEST POP PUSH1 0x73 SSTORE PUSH1 0x1 SWAP1 JUMP JUMPDEST PUSH1 0x0 PUSH2 0x47B PUSH2 0xD93 JUMP JUMPDEST PUSH1 0x1 PUSH1 0x1 PUSH1 0xA0 SHL SUB AND PUSH2 0x48C PUSH2 0x83F JUMP JUMPDEST PUSH1 0x1 PUSH1 0x1 PUSH1 0xA0 SHL SUB AND EQ PUSH2 0x4B2 JUMPI PUSH1 0x40 MLOAD PUSH3 0x461BCD PUSH1 0xE5 SHL DUP2 MSTORE PUSH1 0x4 ADD PUSH2 0x45F SWAP1 PUSH2 0x1563 JUMP JUMPDEST POP PUSH1 0x1 PUSH1 0x1 PUSH1 0xA0 SHL SUB DUP3 AND PUSH1 0x0 SWAP1 DUP2 MSTORE PUSH1 0x65 PUSH1 0x20 MSTORE PUSH1 0x40 SWAP1 KECCAK256 DUP1 SLOAD DUP3 ISZERO ISZERO PUSH1 0xFF NOT SWAP1 SWAP2 AND OR SWAP1 SSTORE PUSH1 0x1 SWAP3 SWAP2 POP POP JUMP JUMPDEST PUSH1 0x0 PUSH2 0x4EB PUSH2 0xD93 JUMP JUMPDEST PUSH1 0x1 PUSH1 0x1 PUSH1 0xA0 SHL SUB AND PUSH2 0x4FC PUSH2 0x83F JUMP JUMPDEST PUSH1 0x1 PUSH1 0x1 PUSH1 0xA0 SHL SUB AND EQ PUSH2 0x522 JUMPI PUSH1 0x40 MLOAD PUSH3 0x461BCD PUSH1 0xE5 SHL DUP2 MSTORE PUSH1 0x4 ADD PUSH2 0x45F SWAP1 PUSH2 0x1563 JUMP JUMPDEST POP PUSH1 0x6E SSTORE PUSH1 0x1 SWAP1 JUMP JUMPDEST PUSH1 0x6F SLOAD DUP2 JUMP JUMPDEST PUSH1 0x66 SLOAD PUSH1 0x1 PUSH1 0x1 PUSH1 0xA0 SHL SUB AND DUP2 JUMP JUMPDEST PUSH1 0x0 SLOAD PUSH2 0x100 SWAP1 DIV PUSH1 0xFF AND DUP1 PUSH2 0x559 JUMPI POP PUSH1 0x0 SLOAD PUSH1 0xFF AND ISZERO JUMPDEST PUSH2 0x575 JUMPI PUSH1 0x40 MLOAD PUSH3 0x461BCD PUSH1 0xE5 SHL DUP2 MSTORE PUSH1 0x4 ADD PUSH2 0x45F SWAP1 PUSH2 0x1515 JUMP JUMPDEST PUSH1 0x0 SLOAD PUSH2 0x100 SWAP1 DIV PUSH1 0xFF AND ISZERO DUP1 ISZERO PUSH2 0x5A0 JUMPI PUSH1 0x0 DUP1 SLOAD PUSH1 0xFF NOT PUSH2 0xFF00 NOT SWAP1 SWAP2 AND PUSH2 0x100 OR AND PUSH1 0x1 OR SWAP1 SSTORE JUMPDEST PUSH2 0x5A8 PUSH2 0xD97 JUMP JUMPDEST PUSH1 0x6C DUP1 SLOAD PUSH1 0x1 PUSH1 0x1 PUSH1 0xA0 SHL SUB NOT SWAP1 DUP2 AND PUSH1 0x1 PUSH1 0x1 PUSH1 0xA0 SHL SUB DUP11 DUP2 AND SWAP2 SWAP1 SWAP2 OR SWAP1 SWAP3 SSTORE PUSH1 0x6D DUP1 SLOAD DUP3 AND DUP12 DUP5 AND OR SWAP1 SSTORE PUSH1 0x66 DUP1 SLOAD DUP3 AND DUP10 DUP5 AND OR SWAP1 SSTORE PUSH1 0x68 DUP1 SLOAD DUP3 AND DUP8 DUP5 AND OR SWAP1 SSTORE PUSH1 0x69 DUP1 SLOAD DUP3 AND DUP7 DUP5 AND OR SWAP1 SSTORE PUSH1 0x6A DUP1 SLOAD CALLER SWAP1 DUP4 AND DUP2 OR SWAP1 SWAP2 SSTORE PUSH1 0x6B DUP1 SLOAD DUP4 AND SWAP1 SWAP2 OR SWAP1 SSTORE PUSH2 0x1388 PUSH1 0x6E SSTORE PUSH2 0x9C4 PUSH1 0x6F DUP2 SWAP1 SSTORE PUSH1 0x70 SSTORE PUSH2 0x2710 PUSH1 0x71 SSTORE PUSH2 0x3E8 PUSH1 0x72 SSTORE PUSH1 0x74 DUP1 SLOAD PUSH1 0x1 PUSH1 0xA0 SHL PUSH1 0xFF PUSH1 0xA0 SHL NOT SWAP1 SWAP2 AND OR PUSH1 0x1 PUSH2 0xFF01 PUSH1 0xA0 SHL SUB NOT AND DUP6 DUP5 AND OR SWAP1 SSTORE PUSH1 0x67 DUP1 SLOAD SWAP1 SWAP2 AND SWAP2 DUP8 AND SWAP2 SWAP1 SWAP2 OR SWAP1 SSTORE DUP1 ISZERO PUSH2 0x675 JUMPI PUSH1 0x0 DUP1 SLOAD PUSH2 0xFF00 NOT AND SWAP1 SSTORE JUMPDEST POP POP POP POP POP POP POP POP JUMP JUMPDEST PUSH1 0x74 SLOAD PUSH1 0x1 PUSH1 0x1 PUSH1 0xA0 SHL SUB AND DUP2 JUMP JUMPDEST PUSH1 0x0 PUSH2 0x698 PUSH2 0xD93 JUMP JUMPDEST PUSH1 0x1 PUSH1 0x1 PUSH1 0xA0 SHL SUB AND PUSH2 0x6A9 PUSH2 0x83F JUMP JUMPDEST PUSH1 0x1 PUSH1 0x1 PUSH1 0xA0 SHL SUB AND EQ PUSH2 0x6CF JUMPI PUSH1 0x40 MLOAD PUSH3 0x461BCD PUSH1 0xE5 SHL DUP2 MSTORE PUSH1 0x4 ADD PUSH2 0x45F SWAP1 PUSH2 0x1563 JUMP JUMPDEST POP PUSH1 0x70 SSTORE PUSH1 0x1 SWAP1 JUMP JUMPDEST PUSH1 0x67 SLOAD PUSH1 0x1 PUSH1 0x1 PUSH1 0xA0 SHL SUB AND DUP2 JUMP JUMPDEST PUSH1 0x0 PUSH2 0x6F1 PUSH2 0xD93 JUMP JUMPDEST PUSH1 0x1 PUSH1 0x1 PUSH1 0xA0 SHL SUB AND PUSH2 0x702 PUSH2 0x83F JUMP JUMPDEST PUSH1 0x1 PUSH1 0x1 PUSH1 0xA0 SHL SUB AND EQ PUSH2 0x728 JUMPI PUSH1 0x40 MLOAD PUSH3 0x461BCD PUSH1 0xE5 SHL DUP2 MSTORE PUSH1 0x4 ADD PUSH2 0x45F SWAP1 PUSH2 0x1563 JUMP JUMPDEST POP PUSH1 0x74 DUP1 SLOAD DUP3 ISZERO ISZERO PUSH1 0x1 PUSH1 0xA0 SHL MUL PUSH1 0xFF PUSH1 0xA0 SHL NOT SWAP1 SWAP2 AND OR SWAP1 SSTORE PUSH1 0x1 SWAP2 SWAP1 POP JUMP JUMPDEST PUSH1 0x65 PUSH1 0x20 MSTORE PUSH1 0x0 SWAP1 DUP2 MSTORE PUSH1 0x40 SWAP1 KECCAK256 SLOAD PUSH1 0xFF AND DUP2 JUMP JUMPDEST PUSH1 0x70 SLOAD DUP2 JUMP JUMPDEST PUSH1 0x68 SLOAD PUSH1 0x1 PUSH1 0x1 PUSH1 0xA0 SHL SUB AND DUP2 JUMP JUMPDEST PUSH1 0x0 PUSH2 0x77D PUSH2 0xD93 JUMP JUMPDEST PUSH1 0x1 PUSH1 0x1 PUSH1 0xA0 SHL SUB AND PUSH2 0x78E PUSH2 0x83F JUMP JUMPDEST PUSH1 0x1 PUSH1 0x1 PUSH1 0xA0 SHL SUB AND EQ PUSH2 0x7B4 JUMPI PUSH1 0x40 MLOAD PUSH3 0x461BCD PUSH1 0xE5 SHL DUP2 MSTORE PUSH1 0x4 ADD PUSH2 0x45F SWAP1 PUSH2 0x1563 JUMP JUMPDEST POP PUSH1 0x74 DUP1 SLOAD DUP3 ISZERO ISZERO PUSH1 0x1 PUSH1 0xA8 SHL MUL PUSH1 0xFF PUSH1 0xA8 SHL NOT SWAP1 SWAP2 AND OR SWAP1 SSTORE PUSH1 0x1 SWAP2 SWAP1 POP JUMP JUMPDEST PUSH1 0x74 SLOAD PUSH1 0x1 PUSH1 0xA8 SHL SWAP1 DIV PUSH1 0xFF AND DUP2 JUMP JUMPDEST PUSH2 0x7ED PUSH2 0xD93 JUMP JUMPDEST PUSH1 0x1 PUSH1 0x1 PUSH1 0xA0 SHL SUB AND PUSH2 0x7FE PUSH2 0x83F JUMP JUMPDEST PUSH1 0x1 PUSH1 0x1 PUSH1 0xA0 SHL SUB AND EQ PUSH2 0x824 JUMPI PUSH1 0x40 MLOAD PUSH3 0x461BCD PUSH1 0xE5 SHL DUP2 MSTORE PUSH1 0x4 ADD PUSH2 0x45F SWAP1 PUSH2 0x1563 JUMP JUMPDEST PUSH2 0x82E PUSH1 0x0 PUSH2 0xE1B JUMP JUMPDEST JUMP JUMPDEST PUSH1 0x75 SLOAD PUSH1 0x1 PUSH1 0x1 PUSH1 0xA0 SHL SUB AND DUP2 JUMP JUMPDEST PUSH1 0x33 SLOAD PUSH1 0x1 PUSH1 0x1 PUSH1 0xA0 SHL SUB AND SWAP1 JUMP JUMPDEST PUSH1 0x6B SLOAD PUSH1 0x1 PUSH1 0x1 PUSH1 0xA0 SHL SUB AND DUP2 JUMP JUMPDEST PUSH1 0x0 PUSH2 0x867 PUSH2 0xD93 JUMP JUMPDEST PUSH1 0x1 PUSH1 0x1 PUSH1 0xA0 SHL SUB AND PUSH2 0x878 PUSH2 0x83F JUMP JUMPDEST PUSH1 0x1 PUSH1 0x1 PUSH1 0xA0 SHL SUB AND EQ PUSH2 0x89E JUMPI PUSH1 0x40 MLOAD PUSH3 0x461BCD PUSH1 0xE5 SHL DUP2 MSTORE PUSH1 0x4 ADD PUSH2 0x45F SWAP1 PUSH2 0x1563 JUMP JUMPDEST PUSH2 0x8B2 PUSH1 0x1 PUSH1 0x1 PUSH1 0xA0 SHL SUB DUP5 AND CALLER DUP5 PUSH2 0xE6D JUMP JUMPDEST POP PUSH1 0x1 SWAP3 SWAP2 POP POP JUMP JUMPDEST PUSH1 0x74 SLOAD PUSH1 0x1 PUSH1 0xA0 SHL SWAP1 DIV PUSH1 0xFF AND DUP2 JUMP JUMPDEST PUSH1 0x0 PUSH2 0x8D5 PUSH2 0xD93 JUMP JUMPDEST PUSH1 0x1 PUSH1 0x1 PUSH1 0xA0 SHL SUB AND PUSH2 0x8E6 PUSH2 0x83F JUMP JUMPDEST PUSH1 0x1 PUSH1 0x1 PUSH1 0xA0 SHL SUB AND EQ PUSH2 0x90C JUMPI PUSH1 0x40 MLOAD PUSH3 0x461BCD PUSH1 0xE5 SHL DUP2 MSTORE PUSH1 0x4 ADD PUSH2 0x45F SWAP1 PUSH2 0x1563 JUMP JUMPDEST POP PUSH1 0x6A DUP1 SLOAD PUSH1 0x1 PUSH1 0x1 PUSH1 0xA0 SHL SUB DUP4 AND PUSH1 0x1 PUSH1 0x1 PUSH1 0xA0 SHL SUB NOT SWAP1 SWAP2 AND OR SWAP1 SSTORE PUSH1 0x1 SWAP2 SWAP1 POP JUMP JUMPDEST PUSH1 0x0 PUSH2 0x93B PUSH2 0xD93 JUMP JUMPDEST PUSH1 0x1 PUSH1 0x1 PUSH1 0xA0 SHL SUB AND PUSH2 0x94C PUSH2 0x83F JUMP JUMPDEST PUSH1 0x1 PUSH1 0x1 PUSH1 0xA0 SHL SUB AND EQ PUSH2 0x972 JUMPI PUSH1 0x40 MLOAD PUSH3 0x461BCD PUSH1 0xE5 SHL DUP2 MSTORE PUSH1 0x4 ADD PUSH2 0x45F SWAP1 PUSH2 0x1563 JUMP JUMPDEST POP PUSH1 0x67 DUP1 SLOAD PUSH1 0x1 PUSH1 0x1 PUSH1 0xA0 SHL SUB DUP4 AND PUSH1 0x1 PUSH1 0x1 PUSH1 0xA0 SHL SUB NOT SWAP1 SWAP2 AND OR SWAP1 SSTORE PUSH1 0x1 SWAP2 SWAP1 POP JUMP JUMPDEST PUSH1 0x71 SLOAD DUP2 JUMP JUMPDEST PUSH1 0x0 PUSH2 0x9A7 PUSH2 0xD93 JUMP JUMPDEST PUSH1 0x1 PUSH1 0x1 PUSH1 0xA0 SHL SUB AND PUSH2 0x9B8 PUSH2 0x83F JUMP JUMPDEST PUSH1 0x1 PUSH1 0x1 PUSH1 0xA0 SHL SUB AND EQ PUSH2 0x9DE JUMPI PUSH1 0x40 MLOAD PUSH3 0x461BCD PUSH1 0xE5 SHL DUP2 MSTORE PUSH1 0x4 ADD PUSH2 0x45F SWAP1 PUSH2 0x1563 JUMP JUMPDEST POP PUSH1 0x6F SSTORE PUSH1 0x1 SWAP1 JUMP JUMPDEST PUSH1 0x69 SLOAD PUSH1 0x1 PUSH1 0x1 PUSH1 0xA0 SHL SUB AND DUP2 JUMP JUMPDEST PUSH1 0x6E SLOAD DUP2 JUMP JUMPDEST PUSH1 0x6D SLOAD PUSH1 0x1 PUSH1 0x1 PUSH1 0xA0 SHL SUB AND DUP2 JUMP JUMPDEST CALLER PUSH1 0x0 SWAP1 DUP2 MSTORE PUSH1 0x65 PUSH1 0x20 MSTORE PUSH1 0x40 DUP2 KECCAK256 SLOAD PUSH1 0xFF AND PUSH2 0xA3A JUMPI PUSH1 0x40 MLOAD PUSH3 0x461BCD PUSH1 0xE5 SHL DUP2 MSTORE PUSH1 0x4 ADD PUSH2 0x45F SWAP1 PUSH2 0x148B JUMP JUMPDEST PUSH1 0x66 SLOAD PUSH1 0x40 MLOAD PUSH4 0x70A08231 PUSH1 0xE0 SHL DUP2 MSTORE PUSH1 0x0 SWAP2 PUSH1 0x1 PUSH1 0x1 PUSH1 0xA0 SHL SUB AND SWAP1 PUSH4 0x70A08231 SWAP1 PUSH2 0xA6B SWAP1 ADDRESS SWAP1 PUSH1 0x4 ADD PUSH2 0x13C0 JUMP JUMPDEST PUSH1 0x20 PUSH1 0x40 MLOAD DUP1 DUP4 SUB DUP2 DUP7 DUP1 EXTCODESIZE ISZERO DUP1 ISZERO PUSH2 0xA83 JUMPI PUSH1 0x0 DUP1 REVERT JUMPDEST POP GAS STATICCALL ISZERO DUP1 ISZERO PUSH2 0xA97 JUMPI RETURNDATASIZE PUSH1 0x0 DUP1 RETURNDATACOPY RETURNDATASIZE PUSH1 0x0 REVERT JUMPDEST POP POP POP POP PUSH1 0x40 MLOAD RETURNDATASIZE PUSH1 0x1F NOT PUSH1 0x1F DUP3 ADD AND DUP3 ADD DUP1 PUSH1 0x40 MSTORE POP DUP2 ADD SWAP1 PUSH2 0xABB SWAP2 SWAP1 PUSH2 0x138C JUMP JUMPDEST SWAP1 POP PUSH1 0x0 PUSH2 0xAE0 PUSH1 0x71 SLOAD PUSH2 0xADA PUSH1 0x6E SLOAD DUP6 PUSH2 0xEC8 SWAP1 SWAP2 SWAP1 PUSH4 0xFFFFFFFF AND JUMP JUMPDEST SWAP1 PUSH2 0xEDB JUMP JUMPDEST SWAP1 POP PUSH1 0x0 PUSH2 0xAFF PUSH1 0x71 SLOAD PUSH2 0xADA PUSH1 0x6F SLOAD DUP7 PUSH2 0xEC8 SWAP1 SWAP2 SWAP1 PUSH4 0xFFFFFFFF AND JUMP JUMPDEST SWAP1 POP PUSH1 0x0 PUSH2 0xB17 DUP3 PUSH2 0xB11 DUP7 DUP7 PUSH2 0xEE7 JUMP JUMPDEST SWAP1 PUSH2 0xEE7 JUMP JUMPDEST PUSH1 0x69 SLOAD PUSH1 0x66 SLOAD SWAP2 SWAP3 POP PUSH2 0xB37 SWAP2 PUSH1 0x1 PUSH1 0x1 PUSH1 0xA0 SHL SUB SWAP1 DUP2 AND SWAP2 AND DUP6 PUSH2 0xE6D JUMP JUMPDEST PUSH1 0x6A SLOAD PUSH1 0x66 SLOAD PUSH2 0xB54 SWAP2 PUSH1 0x1 PUSH1 0x1 PUSH1 0xA0 SHL SUB SWAP2 DUP3 AND SWAP2 AND DUP5 PUSH2 0xE6D JUMP JUMPDEST PUSH1 0x6B SLOAD PUSH1 0x66 SLOAD PUSH2 0xB71 SWAP2 PUSH1 0x1 PUSH1 0x1 PUSH1 0xA0 SHL SUB SWAP2 DUP3 AND SWAP2 AND DUP4 PUSH2 0xE6D JUMP JUMPDEST PUSH1 0x74 SLOAD PUSH1 0x1 PUSH1 0xA0 SHL SWAP1 DIV PUSH1 0xFF AND ISZERO PUSH2 0xB8B JUMPI PUSH2 0xB8B PUSH2 0xEF3 JUMP JUMPDEST PUSH1 0x74 SLOAD PUSH1 0x1 PUSH1 0xA8 SHL SWAP1 DIV PUSH1 0xFF AND ISZERO PUSH2 0xC27 JUMPI PUSH1 0x75 PUSH1 0x0 SWAP1 SLOAD SWAP1 PUSH2 0x100 EXP SWAP1 DIV PUSH1 0x1 PUSH1 0x1 PUSH1 0xA0 SHL SUB AND PUSH1 0x1 PUSH1 0x1 PUSH1 0xA0 SHL SUB AND PUSH4 0x796C7BE7 PUSH1 0x40 MLOAD DUP2 PUSH4 0xFFFFFFFF AND PUSH1 0xE0 SHL DUP2 MSTORE PUSH1 0x4 ADD PUSH1 0x20 PUSH1 0x40 MLOAD DUP1 DUP4 SUB DUP2 PUSH1 0x0 DUP8 DUP1 EXTCODESIZE ISZERO DUP1 ISZERO PUSH2 0xBED JUMPI PUSH1 0x0 DUP1 REVERT JUMPDEST POP GAS CALL ISZERO DUP1 ISZERO PUSH2 0xC01 JUMPI RETURNDATASIZE PUSH1 0x0 DUP1 RETURNDATACOPY RETURNDATASIZE PUSH1 0x0 REVERT JUMPDEST POP POP POP POP PUSH1 0x40 MLOAD RETURNDATASIZE PUSH1 0x1F NOT PUSH1 0x1F DUP3 ADD AND DUP3 ADD DUP1 PUSH1 0x40 MSTORE POP DUP2 ADD SWAP1 PUSH2 0xC25 SWAP2 SWAP1 PUSH2 0x12C3 JUMP JUMPDEST POP JUMPDEST PUSH1 0x1 SWAP5 POP POP POP POP POP SWAP1 JUMP JUMPDEST PUSH1 0x0 PUSH2 0xC3C PUSH2 0xD93 JUMP JUMPDEST PUSH1 0x1 PUSH1 0x1 PUSH1 0xA0 SHL SUB AND PUSH2 0xC4D PUSH2 0x83F JUMP JUMPDEST PUSH1 0x1 PUSH1 0x1 PUSH1 0xA0 SHL SUB AND EQ PUSH2 0xC73 JUMPI PUSH1 0x40 MLOAD PUSH3 0x461BCD PUSH1 0xE5 SHL DUP2 MSTORE PUSH1 0x4 ADD PUSH2 0x45F SWAP1 PUSH2 0x1563 JUMP JUMPDEST POP PUSH1 0x6B DUP1 SLOAD PUSH1 0x1 PUSH1 0x1 PUSH1 0xA0 SHL SUB DUP4 AND PUSH1 0x1 PUSH1 0x1 PUSH1 0xA0 SHL SUB NOT SWAP1 SWAP2 AND OR SWAP1 SSTORE PUSH1 0x1 SWAP2 SWAP1 POP JUMP JUMPDEST PUSH1 0x0 PUSH2 0xCA2 PUSH2 0xD93 JUMP JUMPDEST PUSH1 0x1 PUSH1 0x1 PUSH1 0xA0 SHL SUB AND PUSH2 0xCB3 PUSH2 0x83F JUMP JUMPDEST PUSH1 0x1 PUSH1 0x1 PUSH1 0xA0 SHL SUB AND EQ PUSH2 0xCD9 JUMPI PUSH1 0x40 MLOAD PUSH3 0x461BCD PUSH1 0xE5 SHL DUP2 MSTORE PUSH1 0x4 ADD PUSH2 0x45F SWAP1 PUSH2 0x1563 JUMP JUMPDEST POP PUSH1 0x75 DUP1 SLOAD PUSH1 0x1 PUSH1 0x1 PUSH1 0xA0 SHL SUB DUP4 AND PUSH1 0x1 PUSH1 0x1 PUSH1 0xA0 SHL SUB NOT SWAP1 SWAP2 AND OR SWAP1 SSTORE PUSH1 0x1 SWAP2 SWAP1 POP JUMP JUMPDEST PUSH1 0x6A SLOAD PUSH1 0x1 PUSH1 0x1 PUSH1 0xA0 SHL SUB AND DUP2 JUMP JUMPDEST PUSH1 0x73 SLOAD DUP2 JUMP JUMPDEST PUSH2 0xD1B PUSH2 0xD93 JUMP JUMPDEST PUSH1 0x1 PUSH1 0x1 PUSH1 0xA0 SHL SUB AND PUSH2 0xD2C PUSH2 0x83F JUMP JUMPDEST PUSH1 0x1 PUSH1 0x1 PUSH1 0xA0 SHL SUB AND EQ PUSH2 0xD52 JUMPI PUSH1 0x40 MLOAD PUSH3 0x461BCD PUSH1 0xE5 SHL DUP2 MSTORE PUSH1 0x4 ADD PUSH2 0x45F SWAP1 PUSH2 0x1563 JUMP JUMPDEST PUSH1 0x1 PUSH1 0x1 PUSH1 0xA0 SHL SUB DUP2 AND PUSH2 0xD78 JUMPI PUSH1 0x40 MLOAD PUSH3 0x461BCD PUSH1 0xE5 SHL DUP2 MSTORE PUSH1 0x4 ADD PUSH2 0x45F SWAP1 PUSH2 0x1445 JUMP JUMPDEST PUSH2 0xD81 DUP2 PUSH2 0xE1B JUMP JUMPDEST POP JUMP JUMPDEST PUSH1 0x6C SLOAD PUSH1 0x1 PUSH1 0x1 PUSH1 0xA0 SHL SUB AND DUP2 JUMP JUMPDEST CALLER SWAP1 JUMP JUMPDEST PUSH1 0x0 SLOAD PUSH2 0x100 SWAP1 DIV PUSH1 0xFF AND DUP1 PUSH2 0xDB0 JUMPI POP PUSH1 0x0 SLOAD PUSH1 0xFF AND ISZERO JUMPDEST PUSH2 0xDCC JUMPI PUSH1 0x40 MLOAD PUSH3 0x461BCD PUSH1 0xE5 SHL DUP2 MSTORE PUSH1 0x4 ADD PUSH2 0x45F SWAP1 PUSH2 0x1515 JUMP JUMPDEST PUSH1 0x0 SLOAD PUSH2 0x100 SWAP1 DIV PUSH1 0xFF AND ISZERO DUP1 ISZERO PUSH2 0xDF7 JUMPI PUSH1 0x0 DUP1 SLOAD PUSH1 0xFF NOT PUSH2 0xFF00 NOT SWAP1 SWAP2 AND PUSH2 0x100 OR AND PUSH1 0x1 OR SWAP1 SSTORE JUMPDEST PUSH2 0xDFF PUSH2 0xF84 JUMP JUMPDEST PUSH2 0xE07 PUSH2 0xFF7 JUMP JUMPDEST DUP1 ISZERO PUSH2 0xD81 JUMPI PUSH1 0x0 DUP1 SLOAD PUSH2 0xFF00 NOT AND SWAP1 SSTORE POP JUMP JUMPDEST PUSH1 0x33 DUP1 SLOAD PUSH1 0x1 PUSH1 0x1 PUSH1 0xA0 SHL SUB DUP4 DUP2 AND PUSH1 0x1 PUSH1 0x1 PUSH1 0xA0 SHL SUB NOT DUP4 AND DUP2 OR SWAP1 SWAP4 SSTORE PUSH1 0x40 MLOAD SWAP2 AND SWAP2 SWAP1 DUP3 SWAP1 PUSH32 0x8BE0079C531659141344CD1FD0A4F28419497F9722A3DAAFE3B4186F6B6457E0 SWAP1 PUSH1 0x0 SWAP1 LOG3 POP POP JUMP JUMPDEST PUSH2 0xEC3 DUP4 PUSH4 0xA9059CBB PUSH1 0xE0 SHL DUP5 DUP5 PUSH1 0x40 MLOAD PUSH1 0x24 ADD PUSH2 0xE8C SWAP3 SWAP2 SWAP1 PUSH2 0x13EE JUMP JUMPDEST PUSH1 0x40 DUP1 MLOAD PUSH1 0x1F NOT DUP2 DUP5 SUB ADD DUP2 MSTORE SWAP2 SWAP1 MSTORE PUSH1 0x20 DUP2 ADD DUP1 MLOAD PUSH1 0x1 PUSH1 0x1 PUSH1 0xE0 SHL SUB AND PUSH1 0x1 PUSH1 0x1 PUSH1 0xE0 SHL SUB NOT SWAP1 SWAP4 AND SWAP3 SWAP1 SWAP3 OR SWAP1 SWAP2 MSTORE PUSH2 0x1067 JUMP JUMPDEST POP POP POP JUMP JUMPDEST PUSH1 0x0 PUSH2 0xED4 DUP3 DUP5 PUSH2 0x1642 JUMP JUMPDEST SWAP4 SWAP3 POP POP POP JUMP JUMPDEST PUSH1 0x0 PUSH2 0xED4 DUP3 DUP5 PUSH2 0x1622 JUMP JUMPDEST PUSH1 0x0 PUSH2 0xED4 DUP3 DUP5 PUSH2 0x1661 JUMP JUMPDEST PUSH1 0x6D SLOAD PUSH1 0x67 SLOAD PUSH1 0x66 SLOAD PUSH1 0x40 MLOAD PUSH4 0xE6A43905 PUSH1 0xE0 SHL DUP2 MSTORE PUSH1 0x0 SWAP4 PUSH1 0x1 PUSH1 0x1 PUSH1 0xA0 SHL SUB SWAP1 DUP2 AND SWAP4 PUSH4 0xE6A43905 SWAP4 PUSH2 0xF30 SWAP4 SWAP2 DUP4 AND SWAP3 AND SWAP1 PUSH1 0x4 ADD PUSH2 0x13D4 JUMP JUMPDEST PUSH1 0x20 PUSH1 0x40 MLOAD DUP1 DUP4 SUB DUP2 DUP7 DUP1 EXTCODESIZE ISZERO DUP1 ISZERO PUSH2 0xF48 JUMPI PUSH1 0x0 DUP1 REVERT JUMPDEST POP GAS STATICCALL ISZERO DUP1 ISZERO PUSH2 0xF5C JUMPI RETURNDATASIZE PUSH1 0x0 DUP1 RETURNDATACOPY RETURNDATASIZE PUSH1 0x0 REVERT JUMPDEST POP POP POP POP PUSH1 0x40 MLOAD RETURNDATASIZE PUSH1 0x1F NOT PUSH1 0x1F DUP3 ADD AND DUP3 ADD DUP1 PUSH1 0x40 MSTORE POP DUP2 ADD SWAP1 PUSH2 0xF80 SWAP2 SWAP1 PUSH2 0x1228 JUMP JUMPDEST POP POP JUMP JUMPDEST PUSH1 0x0 SLOAD PUSH2 0x100 SWAP1 DIV PUSH1 0xFF AND DUP1 PUSH2 0xF9D JUMPI POP PUSH1 0x0 SLOAD PUSH1 0xFF AND ISZERO JUMPDEST PUSH2 0xFB9 JUMPI PUSH1 0x40 MLOAD PUSH3 0x461BCD PUSH1 0xE5 SHL DUP2 MSTORE PUSH1 0x4 ADD PUSH2 0x45F SWAP1 PUSH2 0x1515 JUMP JUMPDEST PUSH1 0x0 SLOAD PUSH2 0x100 SWAP1 DIV PUSH1 0xFF AND ISZERO DUP1 ISZERO PUSH2 0xE07 JUMPI PUSH1 0x0 DUP1 SLOAD PUSH1 0xFF NOT PUSH2 0xFF00 NOT SWAP1 SWAP2 AND PUSH2 0x100 OR AND PUSH1 0x1 OR SWAP1 SSTORE DUP1 ISZERO PUSH2 0xD81 JUMPI PUSH1 0x0 DUP1 SLOAD PUSH2 0xFF00 NOT AND SWAP1 SSTORE POP JUMP JUMPDEST PUSH1 0x0 SLOAD PUSH2 0x100 SWAP1 DIV PUSH1 0xFF AND DUP1 PUSH2 0x1010 JUMPI POP PUSH1 0x0 SLOAD PUSH1 0xFF AND ISZERO JUMPDEST PUSH2 0x102C JUMPI PUSH1 0x40 MLOAD PUSH3 0x461BCD PUSH1 0xE5 SHL DUP2 MSTORE PUSH1 0x4 ADD PUSH2 0x45F SWAP1 PUSH2 0x1515 JUMP JUMPDEST PUSH1 0x0 SLOAD PUSH2 0x100 SWAP1 DIV PUSH1 0xFF AND ISZERO DUP1 ISZERO PUSH2 0x1057 JUMPI PUSH1 0x0 DUP1 SLOAD PUSH1 0xFF NOT PUSH2 0xFF00 NOT SWAP1 SWAP2 AND PUSH2 0x100 OR AND PUSH1 0x1 OR SWAP1 SSTORE JUMPDEST PUSH2 0xE07 PUSH2 0x1062 PUSH2 0xD93 JUMP JUMPDEST PUSH2 0xE1B JUMP JUMPDEST PUSH1 0x0 PUSH2 0x10BC DUP3 PUSH1 0x40 MLOAD DUP1 PUSH1 0x40 ADD PUSH1 0x40 MSTORE DUP1 PUSH1 0x20 DUP2 MSTORE PUSH1 0x20 ADD PUSH32 0x5361666545524332303A206C6F772D6C6576656C2063616C6C206661696C6564 DUP2 MSTORE POP DUP6 PUSH1 0x1 PUSH1 0x1 PUSH1 0xA0 SHL SUB AND PUSH2 0x10F6 SWAP1 SWAP3 SWAP2 SWAP1 PUSH4 0xFFFFFFFF AND JUMP JUMPDEST DUP1 MLOAD SWAP1 SWAP2 POP ISZERO PUSH2 0xEC3 JUMPI DUP1 DUP1 PUSH1 0x20 ADD SWAP1 MLOAD DUP2 ADD SWAP1 PUSH2 0x10DA SWAP2 SWAP1 PUSH2 0x12C3 JUMP JUMPDEST PUSH2 0xEC3 JUMPI PUSH1 0x40 MLOAD PUSH3 0x461BCD PUSH1 0xE5 SHL DUP2 MSTORE PUSH1 0x4 ADD PUSH2 0x45F SWAP1 PUSH2 0x15CF JUMP JUMPDEST PUSH1 0x60 PUSH2 0x1105 DUP5 DUP5 PUSH1 0x0 DUP6 PUSH2 0x110D JUMP JUMPDEST SWAP5 SWAP4 POP POP POP POP JUMP JUMPDEST PUSH1 0x60 DUP3 SELFBALANCE LT ISZERO PUSH2 0x112F JUMPI PUSH1 0x40 MLOAD PUSH3 0x461BCD PUSH1 0xE5 SHL DUP2 MSTORE PUSH1 0x4 ADD PUSH2 0x45F SWAP1 PUSH2 0x14CF JUMP JUMPDEST PUSH2 0x1138 DUP6 PUSH2 0x11CD JUMP JUMPDEST PUSH2 0x1154 JUMPI PUSH1 0x40 MLOAD PUSH3 0x461BCD PUSH1 0xE5 SHL DUP2 MSTORE PUSH1 0x4 ADD PUSH2 0x45F SWAP1 PUSH2 0x1598 JUMP JUMPDEST PUSH1 0x0 DUP1 DUP7 PUSH1 0x1 PUSH1 0x1 PUSH1 0xA0 SHL SUB AND DUP6 DUP8 PUSH1 0x40 MLOAD PUSH2 0x1170 SWAP2 SWAP1 PUSH2 0x13A4 JUMP JUMPDEST PUSH1 0x0 PUSH1 0x40 MLOAD DUP1 DUP4 SUB DUP2 DUP6 DUP8 GAS CALL SWAP3 POP POP POP RETURNDATASIZE DUP1 PUSH1 0x0 DUP2 EQ PUSH2 0x11AD JUMPI PUSH1 0x40 MLOAD SWAP2 POP PUSH1 0x1F NOT PUSH1 0x3F RETURNDATASIZE ADD AND DUP3 ADD PUSH1 0x40 MSTORE RETURNDATASIZE DUP3 MSTORE RETURNDATASIZE PUSH1 0x0 PUSH1 0x20 DUP5 ADD RETURNDATACOPY PUSH2 0x11B2 JUMP JUMPDEST PUSH1 0x60 SWAP2 POP JUMPDEST POP SWAP2 POP SWAP2 POP PUSH2 0x11C2 DUP3 DUP3 DUP7 PUSH2 0x11D3 JUMP JUMPDEST SWAP8 SWAP7 POP POP POP POP POP POP POP JUMP JUMPDEST EXTCODESIZE ISZERO ISZERO SWAP1 JUMP JUMPDEST PUSH1 0x60 DUP4 ISZERO PUSH2 0x11E2 JUMPI POP DUP2 PUSH2 0xED4 JUMP JUMPDEST DUP3 MLOAD ISZERO PUSH2 0x11F2 JUMPI DUP3 MLOAD DUP1 DUP5 PUSH1 0x20 ADD REVERT JUMPDEST DUP2 PUSH1 0x40 MLOAD PUSH3 0x461BCD PUSH1 0xE5 SHL DUP2 MSTORE PUSH1 0x4 ADD PUSH2 0x45F SWAP2 SWAP1 PUSH2 0x1412 JUMP JUMPDEST PUSH1 0x0 PUSH1 0x20 DUP3 DUP5 SUB SLT ISZERO PUSH2 0x121D JUMPI DUP1 DUP2 REVERT JUMPDEST DUP2 CALLDATALOAD PUSH2 0xED4 DUP2 PUSH2 0x16BE JUMP JUMPDEST PUSH1 0x0 PUSH1 0x20 DUP3 DUP5 SUB SLT ISZERO PUSH2 0x1239 JUMPI DUP1 DUP2 REVERT JUMPDEST DUP2 MLOAD PUSH2 0xED4 DUP2 PUSH2 0x16BE JUMP JUMPDEST PUSH1 0x0 DUP1 PUSH1 0x40 DUP4 DUP6 SUB SLT ISZERO PUSH2 0x1256 JUMPI DUP1 DUP2 REVERT JUMPDEST DUP3 CALLDATALOAD PUSH2 0x1261 DUP2 PUSH2 0x16BE JUMP JUMPDEST SWAP2 POP PUSH1 0x20 DUP4 ADD CALLDATALOAD PUSH2 0x1271 DUP2 PUSH2 0x16D3 JUMP JUMPDEST DUP1 SWAP2 POP POP SWAP3 POP SWAP3 SWAP1 POP JUMP JUMPDEST PUSH1 0x0 DUP1 PUSH1 0x40 DUP4 DUP6 SUB SLT ISZERO PUSH2 0x128E JUMPI DUP2 DUP3 REVERT JUMPDEST DUP3 CALLDATALOAD PUSH2 0x1299 DUP2 PUSH2 0x16BE JUMP JUMPDEST SWAP5 PUSH1 0x20 SWAP4 SWAP1 SWAP4 ADD CALLDATALOAD SWAP4 POP POP POP JUMP JUMPDEST PUSH1 0x0 PUSH1 0x20 DUP3 DUP5 SUB SLT ISZERO PUSH2 0x12B8 JUMPI DUP1 DUP2 REVERT JUMPDEST DUP2 CALLDATALOAD PUSH2 0xED4 DUP2 PUSH2 0x16D3 JUMP JUMPDEST PUSH1 0x0 PUSH1 0x20 DUP3 DUP5 SUB SLT ISZERO PUSH2 0x12D4 JUMPI DUP1 DUP2 REVERT JUMPDEST DUP2 MLOAD PUSH2 0xED4 DUP2 PUSH2 0x16D3 JUMP JUMPDEST PUSH1 0x0 DUP1 PUSH1 0x0 DUP1 PUSH1 0x0 DUP1 PUSH1 0x0 PUSH1 0xE0 DUP9 DUP11 SUB SLT ISZERO PUSH2 0x12F9 JUMPI DUP3 DUP4 REVERT JUMPDEST DUP8 CALLDATALOAD PUSH2 0x1304 DUP2 PUSH2 0x16BE JUMP JUMPDEST SWAP7 POP PUSH1 0x20 DUP9 ADD CALLDATALOAD PUSH2 0x1314 DUP2 PUSH2 0x16BE JUMP JUMPDEST SWAP6 POP PUSH1 0x40 DUP9 ADD CALLDATALOAD PUSH2 0x1324 DUP2 PUSH2 0x16BE JUMP JUMPDEST SWAP5 POP PUSH1 0x60 DUP9 ADD CALLDATALOAD PUSH2 0x1334 DUP2 PUSH2 0x16BE JUMP JUMPDEST SWAP4 POP PUSH1 0x80 DUP9 ADD CALLDATALOAD PUSH2 0x1344 DUP2 PUSH2 0x16BE JUMP JUMPDEST SWAP3 POP PUSH1 0xA0 DUP9 ADD CALLDATALOAD PUSH2 0x1354 DUP2 PUSH2 0x16BE JUMP JUMPDEST SWAP2 POP PUSH1 0xC0 DUP9 ADD CALLDATALOAD PUSH2 0x1364 DUP2 PUSH2 0x16BE JUMP JUMPDEST DUP1 SWAP2 POP POP SWAP3 SWAP6 SWAP9 SWAP2 SWAP5 SWAP8 POP SWAP3 SWAP6 POP JUMP JUMPDEST PUSH1 0x0 PUSH1 0x20 DUP3 DUP5 SUB SLT ISZERO PUSH2 0x1385 JUMPI DUP1 DUP2 REVERT JUMPDEST POP CALLDATALOAD SWAP2 SWAP1 POP JUMP JUMPDEST PUSH1 0x0 PUSH1 0x20 DUP3 DUP5 SUB SLT ISZERO PUSH2 0x139D JUMPI DUP1 DUP2 REVERT JUMPDEST POP MLOAD SWAP2 SWAP1 POP JUMP JUMPDEST PUSH1 0x0 DUP3 MLOAD PUSH2 0x13B6 DUP2 DUP5 PUSH1 0x20 DUP8 ADD PUSH2 0x1678 JUMP JUMPDEST SWAP2 SWAP1 SWAP2 ADD SWAP3 SWAP2 POP POP JUMP JUMPDEST PUSH1 0x1 PUSH1 0x1 PUSH1 0xA0 SHL SUB SWAP2 SWAP1 SWAP2 AND DUP2 MSTORE PUSH1 0x20 ADD SWAP1 JUMP JUMPDEST PUSH1 0x1 PUSH1 0x1 PUSH1 0xA0 SHL SUB SWAP3 DUP4 AND DUP2 MSTORE SWAP2 AND PUSH1 0x20 DUP3 ADD MSTORE PUSH1 0x40 ADD SWAP1 JUMP JUMPDEST PUSH1 0x1 PUSH1 0x1 PUSH1 0xA0 SHL SUB SWAP3 SWAP1 SWAP3 AND DUP3 MSTORE PUSH1 0x20 DUP3 ADD MSTORE PUSH1 0x40 ADD SWAP1 JUMP JUMPDEST SWAP1 ISZERO ISZERO DUP2 MSTORE PUSH1 0x20 ADD SWAP1 JUMP JUMPDEST PUSH1 0x0 PUSH1 0x20 DUP3 MSTORE DUP3 MLOAD DUP1 PUSH1 0x20 DUP5 ADD MSTORE PUSH2 0x1431 DUP2 PUSH1 0x40 DUP6 ADD PUSH1 0x20 DUP8 ADD PUSH2 0x1678 JUMP JUMPDEST PUSH1 0x1F ADD PUSH1 0x1F NOT AND SWAP2 SWAP1 SWAP2 ADD PUSH1 0x40 ADD SWAP3 SWAP2 POP POP JUMP JUMPDEST PUSH1 0x20 DUP1 DUP3 MSTORE PUSH1 0x26 SWAP1 DUP3 ADD MSTORE PUSH32 0x4F776E61626C653A206E6577206F776E657220697320746865207A65726F2061 PUSH1 0x40 DUP3 ADD MSTORE PUSH6 0x646472657373 PUSH1 0xD0 SHL PUSH1 0x60 DUP3 ADD MSTORE PUSH1 0x80 ADD SWAP1 JUMP JUMPDEST PUSH1 0x20 DUP1 DUP3 MSTORE PUSH1 0x24 SWAP1 DUP3 ADD MSTORE PUSH32 0x6578656375746F723A2063616C6C6572206973206E6F74207468652065786563 PUSH1 0x40 DUP3 ADD MSTORE PUSH4 0x3ABA37B9 PUSH1 0xE1 SHL PUSH1 0x60 DUP3 ADD MSTORE PUSH1 0x80 ADD SWAP1 JUMP JUMPDEST PUSH1 0x20 DUP1 DUP3 MSTORE PUSH1 0x26 SWAP1 DUP3 ADD MSTORE PUSH32 0x416464726573733A20696E73756666696369656E742062616C616E636520666F PUSH1 0x40 DUP3 ADD MSTORE PUSH6 0x1C8818D85B1B PUSH1 0xD2 SHL PUSH1 0x60 DUP3 ADD MSTORE PUSH1 0x80 ADD SWAP1 JUMP JUMPDEST PUSH1 0x20 DUP1 DUP3 MSTORE PUSH1 0x2E SWAP1 DUP3 ADD MSTORE PUSH32 0x496E697469616C697A61626C653A20636F6E747261637420697320616C726561 PUSH1 0x40 DUP3 ADD MSTORE PUSH14 0x191E481A5B9A5D1A585B1A5E9959 PUSH1 0x92 SHL PUSH1 0x60 DUP3 ADD MSTORE PUSH1 0x80 ADD SWAP1 JUMP JUMPDEST PUSH1 0x20 DUP1 DUP3 MSTORE DUP2 DUP2 ADD MSTORE PUSH32 0x4F776E61626C653A2063616C6C6572206973206E6F7420746865206F776E6572 PUSH1 0x40 DUP3 ADD MSTORE PUSH1 0x60 ADD SWAP1 JUMP JUMPDEST PUSH1 0x20 DUP1 DUP3 MSTORE PUSH1 0x1D SWAP1 DUP3 ADD MSTORE PUSH32 0x416464726573733A2063616C6C20746F206E6F6E2D636F6E7472616374000000 PUSH1 0x40 DUP3 ADD MSTORE PUSH1 0x60 ADD SWAP1 JUMP JUMPDEST PUSH1 0x20 DUP1 DUP3 MSTORE PUSH1 0x2A SWAP1 DUP3 ADD MSTORE PUSH32 0x5361666545524332303A204552433230206F7065726174696F6E20646964206E PUSH1 0x40 DUP3 ADD MSTORE PUSH10 0x1BDD081CDD58D8D95959 PUSH1 0xB2 SHL PUSH1 0x60 DUP3 ADD MSTORE PUSH1 0x80 ADD SWAP1 JUMP JUMPDEST SWAP1 DUP2 MSTORE PUSH1 0x20 ADD SWAP1 JUMP JUMPDEST PUSH1 0x0 DUP3 PUSH2 0x163D JUMPI PUSH4 0x4E487B71 PUSH1 0xE0 SHL DUP2 MSTORE PUSH1 0x12 PUSH1 0x4 MSTORE PUSH1 0x24 DUP2 REVERT JUMPDEST POP DIV SWAP1 JUMP JUMPDEST PUSH1 0x0 DUP2 PUSH1 0x0 NOT DIV DUP4 GT DUP3 ISZERO ISZERO AND ISZERO PUSH2 0x165C JUMPI PUSH2 0x165C PUSH2 0x16A8 JUMP JUMPDEST POP MUL SWAP1 JUMP JUMPDEST PUSH1 0x0 DUP3 DUP3 LT ISZERO PUSH2 0x1673 JUMPI PUSH2 0x1673 PUSH2 0x16A8 JUMP JUMPDEST POP SUB SWAP1 JUMP JUMPDEST PUSH1 0x0 JUMPDEST DUP4 DUP2 LT ISZERO PUSH2 0x1693 JUMPI DUP2 DUP2 ADD MLOAD DUP4 DUP3 ADD MSTORE PUSH1 0x20 ADD PUSH2 0x167B JUMP JUMPDEST DUP4 DUP2 GT ISZERO PUSH2 0x16A2 JUMPI PUSH1 0x0 DUP5 DUP5 ADD MSTORE JUMPDEST POP POP POP POP JUMP JUMPDEST PUSH4 0x4E487B71 PUSH1 0xE0 SHL PUSH1 0x0 MSTORE PUSH1 0x11 PUSH1 0x4 MSTORE PUSH1 0x24 PUSH1 0x0 REVERT JUMPDEST PUSH1 0x1 PUSH1 0x1 PUSH1 0xA0 SHL SUB DUP2 AND DUP2 EQ PUSH2 0xD81 JUMPI PUSH1 0x0 DUP1 REVERT JUMPDEST DUP1 ISZERO ISZERO DUP2 EQ PUSH2 0xD81 JUMPI PUSH1 0x0 DUP1 REVERT INVALID LOG2 PUSH5 0x6970667358 0x22 SLT KECCAK256 PUSH17 0xCC6A9CA8BDC19A8B3DE12BAACC67A7AD70 0xB3 DUP1 0xFC PUSH14 0xCED7195437F0D2C2430964736F6C PUSH4 0x43000800 STOP CALLER "
				},
				"gasEstimates": {
					"creation": {
						"codeDepositCost": "1182200",
						"executionCost": "1227",
						"totalCost": "1183427"
					},
					"external": {
						"Factory()": "1137",
						"PRECISION()": "1117",
						"Router()": "1202",
						"autoAdjustFarm()": "1169",
						"basePoint()": "1075",
						"dev()": "1138",
						"executor(address)": "1348",
						"farm()": "1182",
						"initialize(address,address,address,address,address,address,address)": "infinite",
						"jointExecution()": "infinite",
						"op()": "1136",
						"openStabilizer()": "1146",
						"owner()": "1116",
						"pid()": "1116",
						"renounceOwnership()": "23618",
						"sea()": "1115",
						"setAutoAdjustFarm(bool)": "22238",
						"setDev(address)": "22297",
						"setExecutor(address,bool)": "infinite",
						"setOp(address)": "22231",
						"setOpenStabilizer(bool)": "22237",
						"setPid(uint256)": "21318",
						"setStabilizer(address)": "22230",
						"setToDevPercent(uint256)": "21383",
						"setToOpPercent(uint256)": "21360",
						"setToSseaPercent(uint256)": "21362",
						"setUSDCAddress(address)": "22253",
						"ssea()": "1203",
						"stabilizer()": "1203",
						"toDevPercent()": "1140",
						"toOpPercent()": "1074",
						"toSseaPercent()": "1073",
						"transferOwnership(address)": "infinite",
						"usc()": "1138",
						"usdc()": "1116",
						"withdrawalERC20(address,uint256)": "infinite"
					},
					"internal": {
						"adjustFarm()": "infinite"
					}
				},
				"methodIdentifiers": {
					"Factory()": "c83dd231",
					"PRECISION()": "aaf5eb68",
					"Router()": "f6d7eade",
					"autoAdjustFarm()": "9da5b0d5",
					"basePoint()": "16d03993",
					"dev()": "91cca3db",
					"executor(address)": "48c7e528",
					"farm()": "36e9332d",
					"initialize(address,address,address,address,address,address,address)": "35876476",
					"jointExecution()": "d10c06a2",
					"op()": "ec1f1f69",
					"openStabilizer()": "58de5de8",
					"owner()": "8da5cb5b",
					"pid()": "f1068454",
					"renounceOwnership()": "715018a6",
					"sea()": "4ecaac41",
					"setAutoAdjustFarm(bool)": "4591db50",
					"setDev(address)": "d477f05f",
					"setExecutor(address,bool)": "1e1bff3f",
					"setOp(address)": "a36a7526",
					"setOpenStabilizer(bool)": "55c746d1",
					"setPid(uint256)": "1b0d8aab",
					"setStabilizer(address)": "db7f521a",
					"setToDevPercent(uint256)": "3c850e1e",
					"setToOpPercent(uint256)": "af5518c4",
					"setToSseaPercent(uint256)": "27c42a50",
					"setUSDCAddress(address)": "aaf5bfc3",
					"ssea()": "b8bb97a1",
					"stabilizer()": "7e47961c",
					"toDevPercent()": "4ae6a027",
					"toOpPercent()": "2c535a52",
					"toSseaPercent()": "bd0b1f44",
					"transferOwnership(address)": "f2fde38b",
					"usc()": "3011d3d5",
					"usdc()": "3e413bee",
					"withdrawalERC20(address,uint256)": "930ed033"
				}
			},
			"storageLayout": {
				"storage": [
					{
						"astId": 130,
						"contract": "contracts/helperLogic.sol:helperLogic",
						"label": "_initialized",
						"offset": 0,
						"slot": "0",
						"type": "t_bool"
					},
					{
						"astId": 133,
						"contract": "contracts/helperLogic.sol:helperLogic",
						"label": "_initializing",
						"offset": 1,
						"slot": "0",
						"type": "t_bool"
					},
					{
						"astId": 760,
						"contract": "contracts/helperLogic.sol:helperLogic",
						"label": "__gap",
						"offset": 0,
						"slot": "1",
						"type": "t_array(t_uint256)50_storage"
					},
					{
						"astId": 10,
						"contract": "contracts/helperLogic.sol:helperLogic",
						"label": "_owner",
						"offset": 0,
						"slot": "51",
						"type": "t_address"
					},
					{
						"astId": 124,
						"contract": "contracts/helperLogic.sol:helperLogic",
						"label": "__gap",
						"offset": 0,
						"slot": "52",
						"type": "t_array(t_uint256)49_storage"
					},
					{
						"astId": 1825,
						"contract": "contracts/helperLogic.sol:helperLogic",
						"label": "executor",
						"offset": 0,
						"slot": "101",
						"type": "t_mapping(t_address,t_bool)"
					},
					{
						"astId": 1828,
						"contract": "contracts/helperLogic.sol:helperLogic",
						"label": "usc",
						"offset": 0,
						"slot": "102",
						"type": "t_contract(IERC20Upgradeable)248"
					},
					{
						"astId": 1831,
						"contract": "contracts/helperLogic.sol:helperLogic",
						"label": "usdc",
						"offset": 0,
						"slot": "103",
						"type": "t_contract(IERC20Upgradeable)248"
					},
					{
						"astId": 1834,
						"contract": "contracts/helperLogic.sol:helperLogic",
						"label": "sea",
						"offset": 0,
						"slot": "104",
						"type": "t_contract(IERC20Upgradeable)248"
					},
					{
						"astId": 1837,
						"contract": "contracts/helperLogic.sol:helperLogic",
						"label": "ssea",
						"offset": 0,
						"slot": "105",
						"type": "t_contract(IERC20Upgradeable)248"
					},
					{
						"astId": 1839,
						"contract": "contracts/helperLogic.sol:helperLogic",
						"label": "op",
						"offset": 0,
						"slot": "106",
						"type": "t_address"
					},
					{
						"astId": 1841,
						"contract": "contracts/helperLogic.sol:helperLogic",
						"label": "dev",
						"offset": 0,
						"slot": "107",
						"type": "t_address"
					},
					{
						"astId": 1844,
						"contract": "contracts/helperLogic.sol:helperLogic",
						"label": "Router",
						"offset": 0,
						"slot": "108",
						"type": "t_contract(IUniswapV2Router02)1784"
					},
					{
						"astId": 1847,
						"contract": "contracts/helperLogic.sol:helperLogic",
						"label": "Factory",
						"offset": 0,
						"slot": "109",
						"type": "t_contract(IUniswapV2Factory)1146"
					},
					{
						"astId": 1849,
						"contract": "contracts/helperLogic.sol:helperLogic",
						"label": "toSseaPercent",
						"offset": 0,
						"slot": "110",
						"type": "t_uint256"
					},
					{
						"astId": 1851,
						"contract": "contracts/helperLogic.sol:helperLogic",
						"label": "toOpPercent",
						"offset": 0,
						"slot": "111",
						"type": "t_uint256"
					},
					{
						"astId": 1853,
						"contract": "contracts/helperLogic.sol:helperLogic",
						"label": "toDevPercent",
						"offset": 0,
						"slot": "112",
						"type": "t_uint256"
					},
					{
						"astId": 1855,
						"contract": "contracts/helperLogic.sol:helperLogic",
						"label": "PRECISION",
						"offset": 0,
						"slot": "113",
						"type": "t_uint256"
					},
					{
						"astId": 1857,
						"contract": "contracts/helperLogic.sol:helperLogic",
						"label": "basePoint",
						"offset": 0,
						"slot": "114",
						"type": "t_uint256"
					},
					{
						"astId": 1859,
						"contract": "contracts/helperLogic.sol:helperLogic",
						"label": "pid",
						"offset": 0,
						"slot": "115",
						"type": "t_uint256"
					},
					{
						"astId": 1862,
						"contract": "contracts/helperLogic.sol:helperLogic",
						"label": "farm",
						"offset": 0,
						"slot": "116",
						"type": "t_contract(IFarm)1804"
					},
					{
						"astId": 1864,
						"contract": "contracts/helperLogic.sol:helperLogic",
						"label": "autoAdjustFarm",
						"offset": 20,
						"slot": "116",
						"type": "t_bool"
					},
					{
						"astId": 1866,
						"contract": "contracts/helperLogic.sol:helperLogic",
						"label": "openStabilizer",
						"offset": 21,
						"slot": "116",
						"type": "t_bool"
					},
					{
						"astId": 1868,
						"contract": "contracts/helperLogic.sol:helperLogic",
						"label": "stabilizer",
						"offset": 0,
						"slot": "117",
						"type": "t_address"
					}
				],
				"types": {
					"t_address": {
						"encoding": "inplace",
						"label": "address",
						"numberOfBytes": "20"
					},
					"t_array(t_uint256)49_storage": {
						"base": "t_uint256",
						"encoding": "inplace",
						"label": "uint256[49]",
						"numberOfBytes": "1568"
					},
					"t_array(t_uint256)50_storage": {
						"base": "t_uint256",
						"encoding": "inplace",
						"label": "uint256[50]",
						"numberOfBytes": "1600"
					},
					"t_bool": {
						"encoding": "inplace",
						"label": "bool",
						"numberOfBytes": "1"
					},
					"t_contract(IERC20Upgradeable)248": {
						"encoding": "inplace",
						"label": "contract IERC20Upgradeable",
						"numberOfBytes": "20"
					},
					"t_contract(IFarm)1804": {
						"encoding": "inplace",
						"label": "contract IFarm",
						"numberOfBytes": "20"
					},
					"t_contract(IUniswapV2Factory)1146": {
						"encoding": "inplace",
						"label": "contract IUniswapV2Factory",
						"numberOfBytes": "20"
					},
					"t_contract(IUniswapV2Router02)1784": {
						"encoding": "inplace",
						"label": "contract IUniswapV2Router02",
						"numberOfBytes": "20"
					},
					"t_mapping(t_address,t_bool)": {
						"encoding": "mapping",
						"key": "t_address",
						"label": "mapping(address => bool)",
						"numberOfBytes": "32",
						"value": "t_bool"
					},
					"t_uint256": {
						"encoding": "inplace",
						"label": "uint256",
						"numberOfBytes": "32"
					}
				}
			},
			"userdoc": {
				"kind": "user",
				"methods": {},
				"version": 1
			}
		}
	}
}