{
	"contracts/mirrorseaMain.sol": {
		"mirrorseaMain": {
			"abi": [
				{
					"anonymous": false,
					"inputs": [
						{
							"indexed": true,
							"internalType": "address",
							"name": "previousOwner",
							"type": "address"
						},
						{
							"indexed": true,
							"internalType": "address",
							"name": "newOwner",
							"type": "address"
						}
					],
					"name": "OwnershipTransferred",
					"type": "event"
				},
				{
					"inputs": [],
					"name": "OrderIndex",
					"outputs": [
						{
							"internalType": "uint256",
							"name": "",
							"type": "uint256"
						}
					],
					"stateMutability": "view",
					"type": "function"
				},
				{
					"inputs": [],
					"name": "PRECISION",
					"outputs": [
						{
							"internalType": "uint256",
							"name": "",
							"type": "uint256"
						}
					],
					"stateMutability": "view",
					"type": "function"
				},
				{
					"inputs": [
						{
							"internalType": "bool",
							"name": "_marketState",
							"type": "bool"
						},
						{
							"internalType": "uint256",
							"name": "_id",
							"type": "uint256"
						},
						{
							"internalType": "uint256",
							"name": "_timestamp",
							"type": "uint256"
						},
						{
							"internalType": "string",
							"name": "_symbols",
							"type": "string"
						},
						{
							"internalType": "uint256",
							"name": "_price18",
							"type": "uint256"
						},
						{
							"internalType": "bytes",
							"name": "_signature",
							"type": "bytes"
						},
						{
							"internalType": "uint256",
							"name": "_adjustMargin",
							"type": "uint256"
						}
					],
					"name": "adjustPosition",
					"outputs": [
						{
							"internalType": "bool",
							"name": "",
							"type": "bool"
						}
					],
					"stateMutability": "nonpayable",
					"type": "function"
				},
				{
					"inputs": [
						{
							"internalType": "bool",
							"name": "_marketState",
							"type": "bool"
						},
						{
							"internalType": "uint256",
							"name": "_id",
							"type": "uint256"
						},
						{
							"internalType": "uint256",
							"name": "_timestamp",
							"type": "uint256"
						},
						{
							"internalType": "string",
							"name": "_symbols",
							"type": "string"
						},
						{
							"internalType": "uint256",
							"name": "_price18",
							"type": "uint256"
						},
						{
							"internalType": "bytes",
							"name": "_signature",
							"type": "bytes"
						}
					],
					"name": "closePosition",
					"outputs": [
						{
							"internalType": "bool",
							"name": "",
							"type": "bool"
						}
					],
					"stateMutability": "nonpayable",
					"type": "function"
				},
				{
					"inputs": [
						{
							"internalType": "address",
							"name": "",
							"type": "address"
						}
					],
					"name": "executor",
					"outputs": [
						{
							"internalType": "bool",
							"name": "",
							"type": "bool"
						}
					],
					"stateMutability": "view",
					"type": "function"
				},
				{
					"inputs": [],
					"name": "feePercent",
					"outputs": [
						{
							"internalType": "uint256",
							"name": "",
							"type": "uint256"
						}
					],
					"stateMutability": "view",
					"type": "function"
				},
				{
					"inputs": [
						{
							"internalType": "bool",
							"name": "_marketState",
							"type": "bool"
						},
						{
							"internalType": "uint256",
							"name": "_id",
							"type": "uint256"
						},
						{
							"internalType": "uint256",
							"name": "_timestamp",
							"type": "uint256"
						},
						{
							"internalType": "string",
							"name": "_symbols",
							"type": "string"
						},
						{
							"internalType": "uint256",
							"name": "_price18",
							"type": "uint256"
						},
						{
							"internalType": "bytes",
							"name": "_signature",
							"type": "bytes"
						}
					],
					"name": "forcedLiquidation",
					"outputs": [
						{
							"internalType": "bool",
							"name": "",
							"type": "bool"
						}
					],
					"stateMutability": "nonpayable",
					"type": "function"
				},
				{
					"inputs": [],
					"name": "helperLogic",
					"outputs": [
						{
							"internalType": "contract IhelperLogic",
							"name": "",
							"type": "address"
						}
					],
					"stateMutability": "view",
					"type": "function"
				},
				{
					"inputs": [
						{
							"internalType": "address",
							"name": "_signer",
							"type": "address"
						},
						{
							"internalType": "contract IhelperLogic",
							"name": "_helperLogic",
							"type": "address"
						},
						{
							"internalType": "contract IERC20Upgradeable",
							"name": "_usc",
							"type": "address"
						},
						{
							"internalType": "contract IOracle",
							"name": "_oracle",
							"type": "address"
						}
					],
					"name": "initialize",
					"outputs": [],
					"stateMutability": "nonpayable",
					"type": "function"
				},
				{
					"inputs": [
						{
							"internalType": "bool",
							"name": "_marketState",
							"type": "bool"
						},
						{
							"internalType": "uint256[]",
							"name": "_id",
							"type": "uint256[]"
						},
						{
							"internalType": "uint256[]",
							"name": "_timestamp",
							"type": "uint256[]"
						},
						{
							"internalType": "string[]",
							"name": "_symbols",
							"type": "string[]"
						},
						{
							"internalType": "uint256[]",
							"name": "_price18",
							"type": "uint256[]"
						},
						{
							"internalType": "bytes[]",
							"name": "_signature",
							"type": "bytes[]"
						}
					],
					"name": "liquidation",
					"outputs": [
						{
							"internalType": "bool",
							"name": "",
							"type": "bool"
						}
					],
					"stateMutability": "nonpayable",
					"type": "function"
				},
				{
					"inputs": [],
					"name": "minVal",
					"outputs": [
						{
							"internalType": "uint256",
							"name": "",
							"type": "uint256"
						}
					],
					"stateMutability": "view",
					"type": "function"
				},
				{
					"inputs": [
						{
							"internalType": "address",
							"name": "",
							"type": "address"
						},
						{
							"internalType": "uint256",
							"name": "",
							"type": "uint256"
						}
					],
					"name": "myCloseOrderIdList",
					"outputs": [
						{
							"internalType": "uint256",
							"name": "",
							"type": "uint256"
						}
					],
					"stateMutability": "view",
					"type": "function"
				},
				{
					"inputs": [
						{
							"internalType": "address",
							"name": "_user",
							"type": "address"
						}
					],
					"name": "myCloseOrderIdListLength",
					"outputs": [
						{
							"internalType": "uint256",
							"name": "",
							"type": "uint256"
						}
					],
					"stateMutability": "view",
					"type": "function"
				},
				{
					"inputs": [
						{
							"internalType": "address",
							"name": "",
							"type": "address"
						},
						{
							"internalType": "uint256",
							"name": "",
							"type": "uint256"
						}
					],
					"name": "myCloseOrderIdList_index",
					"outputs": [
						{
							"internalType": "uint256",
							"name": "",
							"type": "uint256"
						}
					],
					"stateMutability": "view",
					"type": "function"
				},
				{
					"inputs": [
						{
							"internalType": "address",
							"name": "",
							"type": "address"
						},
						{
							"internalType": "uint256",
							"name": "",
							"type": "uint256"
						}
					],
					"name": "myOpenOrderIdList",
					"outputs": [
						{
							"internalType": "uint256",
							"name": "",
							"type": "uint256"
						}
					],
					"stateMutability": "view",
					"type": "function"
				},
				{
					"inputs": [
						{
							"internalType": "address",
							"name": "_user",
							"type": "address"
						}
					],
					"name": "myOpenOrderIdListLength",
					"outputs": [
						{
							"internalType": "uint256",
							"name": "",
							"type": "uint256"
						}
					],
					"stateMutability": "view",
					"type": "function"
				},
				{
					"inputs": [
						{
							"internalType": "address",
							"name": "",
							"type": "address"
						},
						{
							"internalType": "uint256",
							"name": "",
							"type": "uint256"
						}
					],
					"name": "myOpenOrderIdList_index",
					"outputs": [
						{
							"internalType": "uint256",
							"name": "",
							"type": "uint256"
						}
					],
					"stateMutability": "view",
					"type": "function"
				},
				{
					"inputs": [
						{
							"internalType": "uint256",
							"name": "",
							"type": "uint256"
						}
					],
					"name": "openOrderIdList",
					"outputs": [
						{
							"internalType": "uint256",
							"name": "",
							"type": "uint256"
						}
					],
					"stateMutability": "view",
					"type": "function"
				},
				{
					"inputs": [
						{
							"internalType": "uint256",
							"name": "",
							"type": "uint256"
						}
					],
					"name": "openOrderIdList_index",
					"outputs": [
						{
							"internalType": "uint256",
							"name": "",
							"type": "uint256"
						}
					],
					"stateMutability": "view",
					"type": "function"
				},
				{
					"inputs": [
						{
							"internalType": "bool",
							"name": "_marketState",
							"type": "bool"
						},
						{
							"internalType": "uint256",
							"name": "_margin",
							"type": "uint256"
						},
						{
							"internalType": "uint256",
							"name": "_timestamp",
							"type": "uint256"
						},
						{
							"internalType": "uint256",
							"name": "_direction",
							"type": "uint256"
						},
						{
							"internalType": "uint256",
							"name": "_type",
							"type": "uint256"
						},
						{
							"internalType": "string",
							"name": "_symbols",
							"type": "string"
						},
						{
							"internalType": "uint256",
							"name": "_price18",
							"type": "uint256"
						},
						{
							"internalType": "uint256",
							"name": "_amt",
							"type": "uint256"
						},
						{
							"internalType": "bytes",
							"name": "_signature",
							"type": "bytes"
						}
					],
					"name": "openPosition",
					"outputs": [
						{
							"internalType": "bool",
							"name": "",
							"type": "bool"
						}
					],
					"stateMutability": "nonpayable",
					"type": "function"
				},
				{
					"inputs": [],
					"name": "oracle",
					"outputs": [
						{
							"internalType": "contract IOracle",
							"name": "",
							"type": "address"
						}
					],
					"stateMutability": "view",
					"type": "function"
				},
				{
					"inputs": [
						{
							"internalType": "uint256",
							"name": "_id",
							"type": "uint256"
						}
					],
					"name": "orderInfo",
					"outputs": [
						{
							"components": [
								{
									"internalType": "address",
									"name": "user",
									"type": "address"
								},
								{
									"internalType": "uint256",
									"name": "_type",
									"type": "uint256"
								},
								{
									"internalType": "string",
									"name": "symbols",
									"type": "string"
								},
								{
									"internalType": "uint256",
									"name": "state",
									"type": "uint256"
								},
								{
									"internalType": "uint256",
									"name": "direction",
									"type": "uint256"
								},
								{
									"internalType": "uint256",
									"name": "openPrice18",
									"type": "uint256"
								},
								{
									"internalType": "uint256",
									"name": "openTime",
									"type": "uint256"
								},
								{
									"internalType": "uint256",
									"name": "closePrice18",
									"type": "uint256"
								},
								{
									"internalType": "uint256",
									"name": "closeTime",
									"type": "uint256"
								},
								{
									"internalType": "uint256",
									"name": "amt",
									"type": "uint256"
								},
								{
									"internalType": "uint256",
									"name": "margin",
									"type": "uint256"
								}
							],
							"internalType": "struct mirrorseaMain.OrderInfo",
							"name": "",
							"type": "tuple"
						}
					],
					"stateMutability": "view",
					"type": "function"
				},
				{
					"inputs": [],
					"name": "owner",
					"outputs": [
						{
							"internalType": "address",
							"name": "",
							"type": "address"
						}
					],
					"stateMutability": "view",
					"type": "function"
				},
				{
					"inputs": [
						{
							"internalType": "address",
							"name": "_user",
							"type": "address"
						},
						{
							"internalType": "uint256",
							"name": "_type",
							"type": "uint256"
						},
						{
							"internalType": "uint256",
							"name": "_row",
							"type": "uint256"
						},
						{
							"internalType": "uint256",
							"name": "_page",
							"type": "uint256"
						}
					],
					"name": "pagination",
					"outputs": [
						{
							"internalType": "uint256[]",
							"name": "",
							"type": "uint256[]"
						}
					],
					"stateMutability": "view",
					"type": "function"
				},
				{
					"inputs": [],
					"name": "renounceOwnership",
					"outputs": [],
					"stateMutability": "nonpayable",
					"type": "function"
				},
				{
					"inputs": [
						{
							"internalType": "address",
							"name": "_address",
							"type": "address"
						},
						{
							"internalType": "bool",
							"name": "_type",
							"type": "bool"
						}
					],
					"name": "setExecutor",
					"outputs": [
						{
							"internalType": "bool",
							"name": "",
							"type": "bool"
						}
					],
					"stateMutability": "nonpayable",
					"type": "function"
				},
				{
					"inputs": [
						{
							"internalType": "uint256",
							"name": "_val",
							"type": "uint256"
						}
					],
					"name": "setFeePercent",
					"outputs": [
						{
							"internalType": "bool",
							"name": "",
							"type": "bool"
						}
					],
					"stateMutability": "nonpayable",
					"type": "function"
				},
				{
					"inputs": [
						{
							"internalType": "uint256",
							"name": "id",
							"type": "uint256"
						},
						{
							"internalType": "address",
							"name": "user",
							"type": "address"
						},
						{
							"internalType": "uint256",
							"name": "_type",
							"type": "uint256"
						},
						{
							"internalType": "string",
							"name": "symbols",
							"type": "string"
						},
						{
							"internalType": "uint256",
							"name": "state",
							"type": "uint256"
						},
						{
							"internalType": "uint256",
							"name": "direction",
							"type": "uint256"
						},
						{
							"internalType": "uint256",
							"name": "openPrice18",
							"type": "uint256"
						},
						{
							"internalType": "uint256",
							"name": "openTime",
							"type": "uint256"
						},
						{
							"internalType": "uint256",
							"name": "closePrice18",
							"type": "uint256"
						},
						{
							"internalType": "uint256",
							"name": "closeTime",
							"type": "uint256"
						},
						{
							"internalType": "uint256",
							"name": "amt",
							"type": "uint256"
						},
						{
							"internalType": "uint256",
							"name": "margin",
							"type": "uint256"
						}
					],
					"name": "setOrderInfo",
					"outputs": [
						{
							"internalType": "bool",
							"name": "",
							"type": "bool"
						}
					],
					"stateMutability": "nonpayable",
					"type": "function"
				},
				{
					"inputs": [
						{
							"internalType": "address",
							"name": "_address",
							"type": "address"
						}
					],
					"name": "setSigner",
					"outputs": [
						{
							"internalType": "bool",
							"name": "",
							"type": "bool"
						}
					],
					"stateMutability": "nonpayable",
					"type": "function"
				},
				{
					"inputs": [],
					"name": "signer",
					"outputs": [
						{
							"internalType": "address",
							"name": "",
							"type": "address"
						}
					],
					"stateMutability": "view",
					"type": "function"
				},
				{
					"inputs": [
						{
							"internalType": "address",
							"name": "newOwner",
							"type": "address"
						}
					],
					"name": "transferOwnership",
					"outputs": [],
					"stateMutability": "nonpayable",
					"type": "function"
				},
				{
					"inputs": [],
					"name": "usc",
					"outputs": [
						{
							"internalType": "contract IERC20Upgradeable",
							"name": "",
							"type": "address"
						}
					],
					"stateMutability": "view",
					"type": "function"
				}
			],
			"devdoc": {
				"kind": "dev",
				"methods": {
					"owner()": {
						"details": "Returns the address of the current owner."
					},
					"renounceOwnership()": {
						"details": "Leaves the contract without owner. It will not be possible to call `onlyOwner` functions anymore. Can only be called by the current owner. NOTE: Renouncing ownership will leave the contract without an owner, thereby removing any functionality that is only available to the owner."
					},
					"transferOwnership(address)": {
						"details": "Transfers ownership of the contract to a new account (`newOwner`). Can only be called by the current owner."
					}
				},
				"version": 1
			},
			"evm": {
				"assembly": "    /* \"contracts/mirrorseaMain.sol\":910:16620  contract mirrorseaMain is Initializable, OwnableUpgradeable {... */\n  mstore(0x40, 0x80)\n  callvalue\n  dup1\n  iszero\n  tag_1\n  jumpi\n  0x00\n  dup1\n  revert\ntag_1:\n  pop\n  dataSize(sub_0)\n  dup1\n  dataOffset(sub_0)\n  0x00\n  codecopy\n  0x00\n  return\nstop\n\nsub_0: assembly {\n        /* \"contracts/mirrorseaMain.sol\":910:16620  contract mirrorseaMain is Initializable, OwnableUpgradeable {... */\n      mstore(0x40, 0x80)\n      callvalue\n      dup1\n      iszero\n      tag_1\n      jumpi\n      0x00\n      dup1\n      revert\n    tag_1:\n      pop\n      jumpi(tag_2, lt(calldatasize, 0x04))\n      shr(0xe0, calldataload(0x00))\n      dup1\n      0x7fd6f15c\n      gt\n      tag_35\n      jumpi\n      dup1\n      0xe4e95520\n      gt\n      tag_36\n      jumpi\n      dup1\n      0xf2fde38b\n      gt\n      tag_37\n      jumpi\n      dup1\n      0xf2fde38b\n      eq\n      tag_31\n      jumpi\n      dup1\n      0xf7ab69fd\n      eq\n      tag_32\n      jumpi\n      dup1\n      0xf8c8765e\n      eq\n      tag_33\n      jumpi\n      dup1\n      0xfc234d06\n      eq\n      tag_34\n      jumpi\n      jump(tag_2)\n    tag_37:\n      dup1\n      0xe4e95520\n      eq\n      tag_27\n      jumpi\n      dup1\n      0xec4c4f34\n      eq\n      tag_28\n      jumpi\n      dup1\n      0xf0c765e4\n      eq\n      tag_29\n      jumpi\n      dup1\n      0xf14053ad\n      eq\n      tag_30\n      jumpi\n      jump(tag_2)\n    tag_36:\n      dup1\n      0xaaf5eb68\n      gt\n      tag_38\n      jumpi\n      dup1\n      0xaaf5eb68\n      eq\n      tag_23\n      jumpi\n      dup1\n      0xaecf77b1\n      eq\n      tag_24\n      jumpi\n      dup1\n      0xc2ec527d\n      eq\n      tag_25\n      jumpi\n      dup1\n      0xdb4a5aa9\n      eq\n      tag_26\n      jumpi\n      jump(tag_2)\n    tag_38:\n      dup1\n      0x7fd6f15c\n      eq\n      tag_19\n      jumpi\n      dup1\n      0x8da5cb5b\n      eq\n      tag_20\n      jumpi\n      dup1\n      0xa0ad12e2\n      eq\n      tag_21\n      jumpi\n      dup1\n      0xa8ecb028\n      eq\n      tag_22\n      jumpi\n      jump(tag_2)\n    tag_35:\n      dup1\n      0x4b989ce3\n      gt\n      tag_39\n      jumpi\n      dup1\n      0x715018a6\n      gt\n      tag_40\n      jumpi\n      dup1\n      0x715018a6\n      eq\n      tag_15\n      jumpi\n      dup1\n      0x7be3a1a1\n      eq\n      tag_16\n      jumpi\n      dup1\n      0x7ce3489b\n      eq\n      tag_17\n      jumpi\n      dup1\n      0x7dc0d1d0\n      eq\n      tag_18\n      jumpi\n      jump(tag_2)\n    tag_40:\n      dup1\n      0x4b989ce3\n      eq\n      tag_11\n      jumpi\n      dup1\n      0x6ab34a4a\n      eq\n      tag_12\n      jumpi\n      dup1\n      0x6c19e783\n      eq\n      tag_13\n      jumpi\n      dup1\n      0x6e812437\n      eq\n      tag_14\n      jumpi\n      jump(tag_2)\n    tag_39:\n      dup1\n      0x238ac933\n      gt\n      tag_41\n      jumpi\n      dup1\n      0x238ac933\n      eq\n      tag_7\n      jumpi\n      dup1\n      0x3011d3d5\n      eq\n      tag_8\n      jumpi\n      dup1\n      0x43b1f3cb\n      eq\n      tag_9\n      jumpi\n      dup1\n      0x48c7e528\n      eq\n      tag_10\n      jumpi\n      jump(tag_2)\n    tag_41:\n      dup1\n      0x080270a8\n      eq\n      tag_3\n      jumpi\n      dup1\n      0x0f58d242\n      eq\n      tag_4\n      jumpi\n      dup1\n      0x1e1bff3f\n      eq\n      tag_5\n      jumpi\n      dup1\n      0x1e64610c\n      eq\n      tag_6\n      jumpi\n    tag_2:\n      0x00\n      dup1\n      revert\n        /* \"contracts/mirrorseaMain.sol\":4502:5516  function pagination(... */\n    tag_3:\n      tag_42\n      tag_43\n      calldatasize\n      0x04\n      tag_44\n      jump\t// in\n    tag_43:\n      tag_45\n      jump\t// in\n    tag_42:\n      mload(0x40)\n      tag_46\n      swap2\n      swap1\n      tag_47\n      jump\t// in\n    tag_46:\n      mload(0x40)\n      dup1\n      swap2\n      sub\n      swap1\n      return\n        /* \"contracts/mirrorseaMain.sol\":1347:1379  uint256[] public openOrderIdList */\n    tag_4:\n      tag_48\n      tag_49\n      calldatasize\n      0x04\n      tag_50\n      jump\t// in\n    tag_49:\n      tag_51\n      jump\t// in\n    tag_48:\n      mload(0x40)\n      tag_46\n      swap2\n      swap1\n      tag_53\n      jump\t// in\n        /* \"contracts/mirrorseaMain.sol\":2999:3176  function setExecutor(address _address, bool _type)... */\n    tag_5:\n      tag_54\n      tag_55\n      calldatasize\n      0x04\n      tag_56\n      jump\t// in\n    tag_55:\n      tag_57\n      jump\t// in\n    tag_54:\n      mload(0x40)\n      tag_46\n      swap2\n      swap1\n      tag_59\n      jump\t// in\n        /* \"contracts/mirrorseaMain.sol\":1196:1227  IhelperLogic public helperLogic */\n    tag_6:\n      tag_60\n      tag_61\n      jump\t// in\n    tag_60:\n      mload(0x40)\n      tag_46\n      swap2\n      swap1\n      tag_67\n      jump\t// in\n        /* \"contracts/mirrorseaMain.sol\":1135:1156  address public signer */\n    tag_7:\n      tag_60\n      tag_65\n      jump\t// in\n        /* \"contracts/mirrorseaMain.sol\":1162:1190  IERC20Upgradeable public usc */\n    tag_8:\n      tag_60\n      tag_69\n      jump\t// in\n        /* \"contracts/mirrorseaMain.sol\":1385:1441  mapping(uint256 => uint256) public openOrderIdList_index */\n    tag_9:\n      tag_48\n      tag_73\n      calldatasize\n      0x04\n      tag_50\n      jump\t// in\n    tag_73:\n      tag_74\n      jump\t// in\n        /* \"contracts/mirrorseaMain.sol\":1089:1129  mapping(address => bool) public executor */\n    tag_10:\n      tag_54\n      tag_77\n      calldatasize\n      0x04\n      tag_78\n      jump\t// in\n    tag_77:\n      tag_79\n      jump\t// in\n        /* \"contracts/mirrorseaMain.sol\":12122:12973  function liquidation(... */\n    tag_11:\n      tag_54\n      tag_82\n      calldatasize\n      0x04\n      tag_83\n      jump\t// in\n    tag_82:\n      tag_84\n      jump\t// in\n        /* \"contracts/mirrorseaMain.sol\":3603:3715  function orderInfo(uint256 _id) external view returns (OrderInfo memory) {... */\n    tag_12:\n      tag_86\n      tag_87\n      calldatasize\n      0x04\n      tag_50\n      jump\t// in\n    tag_87:\n      tag_88\n      jump\t// in\n    tag_86:\n      mload(0x40)\n      tag_46\n      swap2\n      swap1\n      tag_90\n      jump\t// in\n        /* \"contracts/mirrorseaMain.sol\":3471:3597  function setSigner(address _address) external onlyOwner returns (bool) {... */\n    tag_13:\n      tag_54\n      tag_92\n      calldatasize\n      0x04\n      tag_78\n      jump\t// in\n    tag_92:\n      tag_93\n      jump\t// in\n        /* \"contracts/mirrorseaMain.sol\":11138:11730  function closePosition(... */\n    tag_14:\n      tag_54\n      tag_96\n      calldatasize\n      0x04\n      tag_97\n      jump\t// in\n    tag_96:\n      tag_98\n      jump\t// in\n        /* \"@openzeppelin/contracts-upgradeable/access/OwnableUpgradeable.sol\":1934:2035  function renounceOwnership() public virtual onlyOwner {... */\n    tag_15:\n      tag_100\n      tag_101\n      jump\t// in\n    tag_100:\n      stop\n        /* \"contracts/mirrorseaMain.sol\":1508:1594  mapping(address => mapping(uint256 => uint256))... */\n    tag_16:\n      tag_48\n      tag_103\n      calldatasize\n      0x04\n      tag_104\n      jump\t// in\n    tag_103:\n      tag_105\n      jump\t// in\n        /* \"contracts/mirrorseaMain.sol\":3326:3452  function setFeePercent(uint256 _val) external onlyOwner returns (bool) {... */\n    tag_17:\n      tag_54\n      tag_108\n      calldatasize\n      0x04\n      tag_50\n      jump\t// in\n    tag_108:\n      tag_109\n      jump\t// in\n        /* \"contracts/mirrorseaMain.sol\":1233:1254  IOracle public oracle */\n    tag_18:\n      tag_60\n      tag_112\n      jump\t// in\n        /* \"contracts/mirrorseaMain.sol\":1756:1781  uint256 public feePercent */\n    tag_19:\n      tag_48\n      tag_116\n      jump\t// in\n        /* \"@openzeppelin/contracts-upgradeable/access/OwnableUpgradeable.sol\":1302:1387  function owner() public view virtual returns (address) {... */\n    tag_20:\n      tag_60\n      tag_119\n      jump\t// in\n        /* \"contracts/mirrorseaMain.sol\":12979:13532  function forcedLiquidation(... */\n    tag_21:\n      tag_54\n      tag_122\n      calldatasize\n      0x04\n      tag_97\n      jump\t// in\n    tag_122:\n      tag_123\n      jump\t// in\n        /* \"contracts/mirrorseaMain.sol\":14865:16618  function adjustPosition(... */\n    tag_22:\n      tag_54\n      tag_126\n      calldatasize\n      0x04\n      tag_127\n      jump\t// in\n    tag_126:\n      tag_128\n      jump\t// in\n        /* \"contracts/mirrorseaMain.sol\":1787:1811  uint256 public PRECISION */\n    tag_23:\n      tag_48\n      tag_131\n      jump\t// in\n        /* \"contracts/mirrorseaMain.sol\":2830:2993  function myCloseOrderIdListLength(address _user)... */\n    tag_24:\n      tag_48\n      tag_134\n      calldatasize\n      0x04\n      tag_78\n      jump\t// in\n    tag_134:\n      tag_135\n      jump\t// in\n        /* \"contracts/mirrorseaMain.sol\":1448:1502  mapping(address => uint256[]) public myOpenOrderIdList */\n    tag_25:\n      tag_48\n      tag_138\n      calldatasize\n      0x04\n      tag_104\n      jump\t// in\n    tag_138:\n      tag_139\n      jump\t// in\n        /* \"contracts/mirrorseaMain.sol\":5522:7373  function openPosition(... */\n    tag_26:\n      tag_54\n      tag_142\n      calldatasize\n      0x04\n      tag_143\n      jump\t// in\n    tag_142:\n      tag_144\n      jump\t// in\n        /* \"contracts/mirrorseaMain.sol\":2663:2824  function myOpenOrderIdListLength(address _user)... */\n    tag_27:\n      tag_48\n      tag_147\n      calldatasize\n      0x04\n      tag_78\n      jump\t// in\n    tag_147:\n      tag_148\n      jump\t// in\n        /* \"contracts/mirrorseaMain.sol\":1601:1656  mapping(address => uint256[]) public myCloseOrderIdList */\n    tag_28:\n      tag_48\n      tag_151\n      calldatasize\n      0x04\n      tag_104\n      jump\t// in\n    tag_151:\n      tag_152\n      jump\t// in\n        /* \"contracts/mirrorseaMain.sol\":1662:1749  mapping(address => mapping(uint256 => uint256))... */\n    tag_29:\n      tag_48\n      tag_155\n      calldatasize\n      0x04\n      tag_104\n      jump\t// in\n    tag_155:\n      tag_156\n      jump\t// in\n        /* \"contracts/mirrorseaMain.sol\":1818:1839  uint256 public minVal */\n    tag_30:\n      tag_48\n      tag_159\n      jump\t// in\n        /* \"@openzeppelin/contracts-upgradeable/access/OwnableUpgradeable.sol\":2184:2382  function transferOwnership(address newOwner) public virtual onlyOwner {... */\n    tag_31:\n      tag_100\n      tag_162\n      calldatasize\n      0x04\n      tag_78\n      jump\t// in\n    tag_162:\n      tag_163\n      jump\t// in\n        /* \"contracts/mirrorseaMain.sol\":1315:1340  uint256 public OrderIndex */\n    tag_32:\n      tag_48\n      tag_165\n      jump\t// in\n        /* \"contracts/mirrorseaMain.sol\":2277:2657  function initialize(... */\n    tag_33:\n      tag_100\n      tag_168\n      calldatasize\n      0x04\n      tag_169\n      jump\t// in\n    tag_168:\n      tag_170\n      jump\t// in\n        /* \"contracts/mirrorseaMain.sol\":3721:4496  function setOrderInfo(... */\n    tag_34:\n      tag_54\n      tag_172\n      calldatasize\n      0x04\n      tag_173\n      jump\t// in\n    tag_172:\n      tag_174\n      jump\t// in\n        /* \"contracts/mirrorseaMain.sol\":4502:5516  function pagination(... */\n    tag_45:\n        /* \"contracts/mirrorseaMain.sol\":4642:4658  uint256[] memory */\n      0x60\n        /* \"contracts/mirrorseaMain.sol\":4670:4683  uint256 index */\n      0x00\n      dup1\n        /* \"contracts/mirrorseaMain.sol\":4642:4658  uint256[] memory */\n      dup3\n        /* \"contracts/mirrorseaMain.sol\":4750:4760  _type == 0 */\n      dup7\n        /* \"contracts/mirrorseaMain.sol\":4746:4969  if (_type == 0) {... */\n      tag_177\n      jumpi\n        /* \"contracts/mirrorseaMain.sol\":4784:4799  openOrderIdList */\n      0x6c\n        /* \"contracts/mirrorseaMain.sol\":4776:4799  _list = openOrderIdList */\n      dup1\n      sload\n      dup1\n      0x20\n      mul\n      0x20\n      add\n      mload(0x40)\n      swap1\n      dup2\n      add\n      0x40\n      mstore\n      dup1\n      swap3\n      swap2\n      swap1\n      dup2\n      dup2\n      mstore\n      0x20\n      add\n      dup3\n      dup1\n      sload\n      dup1\n      iszero\n      tag_178\n      jumpi\n      0x20\n      mul\n      dup3\n      add\n      swap2\n      swap1\n      0x00\n      mstore\n      keccak256(0x00, 0x20)\n      swap1\n    tag_179:\n      dup2\n      sload\n      dup2\n      mstore\n      0x20\n      add\n      swap1\n      0x01\n      add\n      swap1\n      dup1\n      dup4\n      gt\n      tag_179\n      jumpi\n    tag_178:\n      pop\n      pop\n      pop\n      pop\n      pop\n      swap1\n      pop\n        /* \"contracts/mirrorseaMain.sol\":4746:4969  if (_type == 0) {... */\n      jump(tag_185)\n    tag_177:\n        /* \"contracts/mirrorseaMain.sol\":4820:4825  _type */\n      dup7\n        /* \"contracts/mirrorseaMain.sol\":4829:4830  1 */\n      0x01\n        /* \"contracts/mirrorseaMain.sol\":4820:4830  _type == 1 */\n      eq\n        /* \"contracts/mirrorseaMain.sol\":4816:4969  if (_type == 1) {... */\n      iszero\n      tag_181\n      jumpi\n      sub(shl(0xa0, 0x01), 0x01)\n        /* \"contracts/mirrorseaMain.sol\":4854:4878  myOpenOrderIdList[_user] */\n      dup9\n      and\n      0x00\n      swap1\n      dup2\n      mstore\n        /* \"contracts/mirrorseaMain.sol\":4854:4871  myOpenOrderIdList */\n      0x6e\n        /* \"contracts/mirrorseaMain.sol\":4854:4878  myOpenOrderIdList[_user] */\n      0x20\n      swap1\n      dup2\n      mstore\n      0x40\n      swap2\n      dup3\n      swap1\n      keccak256\n        /* \"contracts/mirrorseaMain.sol\":4846:4878  _list = myOpenOrderIdList[_user] */\n      dup1\n      sload\n      dup4\n      mload\n      dup2\n      dup5\n      mul\n      dup2\n      add\n      dup5\n      add\n      swap1\n      swap5\n      mstore\n      dup1\n      dup5\n      mstore\n        /* \"contracts/mirrorseaMain.sol\":4854:4878  myOpenOrderIdList[_user] */\n      swap1\n      swap2\n        /* \"contracts/mirrorseaMain.sol\":4846:4878  _list = myOpenOrderIdList[_user] */\n      dup4\n      add\n        /* \"contracts/mirrorseaMain.sol\":4854:4878  myOpenOrderIdList[_user] */\n      dup3\n        /* \"contracts/mirrorseaMain.sol\":4846:4878  _list = myOpenOrderIdList[_user] */\n      dup3\n      dup1\n      iszero\n      tag_178\n      jumpi\n      0x20\n      mul\n      dup3\n      add\n      swap2\n      swap1\n      0x00\n      mstore\n      keccak256(0x00, 0x20)\n      swap1\n      dup2\n      sload\n      dup2\n      mstore\n      0x20\n      add\n      swap1\n      0x01\n      add\n      swap1\n      dup1\n      dup4\n      gt\n      tag_179\n      jumpi\n      pop\n      pop\n      pop\n      pop\n      pop\n      swap1\n      pop\n        /* \"contracts/mirrorseaMain.sol\":4816:4969  if (_type == 1) {... */\n      jump(tag_185)\n    tag_181:\n        /* \"contracts/mirrorseaMain.sol\":4899:4904  _type */\n      dup7\n        /* \"contracts/mirrorseaMain.sol\":4908:4909  2 */\n      0x02\n        /* \"contracts/mirrorseaMain.sol\":4899:4909  _type == 2 */\n      eq\n        /* \"contracts/mirrorseaMain.sol\":4895:4969  if (_type == 2) {... */\n      iszero\n      tag_185\n      jumpi\n      sub(shl(0xa0, 0x01), 0x01)\n        /* \"contracts/mirrorseaMain.sol\":4933:4958  myCloseOrderIdList[_user] */\n      dup9\n      and\n      0x00\n      swap1\n      dup2\n      mstore\n        /* \"contracts/mirrorseaMain.sol\":4933:4951  myCloseOrderIdList */\n      0x70\n        /* \"contracts/mirrorseaMain.sol\":4933:4958  myCloseOrderIdList[_user] */\n      0x20\n      swap1\n      dup2\n      mstore\n      0x40\n      swap2\n      dup3\n      swap1\n      keccak256\n        /* \"contracts/mirrorseaMain.sol\":4925:4958  _list = myCloseOrderIdList[_user] */\n      dup1\n      sload\n      dup4\n      mload\n      dup2\n      dup5\n      mul\n      dup2\n      add\n      dup5\n      add\n      swap1\n      swap5\n      mstore\n      dup1\n      dup5\n      mstore\n        /* \"contracts/mirrorseaMain.sol\":4933:4958  myCloseOrderIdList[_user] */\n      swap1\n      swap2\n        /* \"contracts/mirrorseaMain.sol\":4925:4958  _list = myCloseOrderIdList[_user] */\n      dup4\n      add\n        /* \"contracts/mirrorseaMain.sol\":4933:4958  myCloseOrderIdList[_user] */\n      dup3\n        /* \"contracts/mirrorseaMain.sol\":4925:4958  _list = myCloseOrderIdList[_user] */\n      dup3\n      dup1\n      iszero\n      tag_186\n      jumpi\n      0x20\n      mul\n      dup3\n      add\n      swap2\n      swap1\n      0x00\n      mstore\n      keccak256(0x00, 0x20)\n      swap1\n    tag_187:\n      dup2\n      sload\n      dup2\n      mstore\n      0x20\n      add\n      swap1\n      0x01\n      add\n      swap1\n      dup1\n      dup4\n      gt\n      tag_187\n      jumpi\n    tag_186:\n      pop\n      pop\n      pop\n      pop\n      pop\n      swap1\n      pop\n        /* \"contracts/mirrorseaMain.sol\":4895:4969  if (_type == 2) {... */\n    tag_185:\n        /* \"contracts/mirrorseaMain.sol\":4978:4992  uint256 remAmt */\n      0x00\n        /* \"contracts/mirrorseaMain.sol\":4995:5038  _list.length.sub(_row.mul(_page).sub(_row)) */\n      tag_188\n        /* \"contracts/mirrorseaMain.sol\":5012:5037  _row.mul(_page).sub(_row) */\n      tag_189\n        /* \"contracts/mirrorseaMain.sol\":5032:5036  _row */\n      dup9\n        /* \"contracts/mirrorseaMain.sol\":5012:5027  _row.mul(_page) */\n      tag_190\n        /* \"contracts/mirrorseaMain.sol\":5032:5036  _row */\n      dup2\n        /* \"contracts/mirrorseaMain.sol\":5021:5026  _page */\n      dup11\n        /* \"contracts/mirrorseaMain.sol\":5012:5020  _row.mul */\n      tag_191\n        /* \"contracts/mirrorseaMain.sol\":5012:5027  _row.mul(_page) */\n      jump\t// in\n    tag_190:\n        /* \"contracts/mirrorseaMain.sol\":5012:5031  _row.mul(_page).sub */\n      swap1\n      tag_192\n        /* \"contracts/mirrorseaMain.sol\":5012:5037  _row.mul(_page).sub(_row) */\n      jump\t// in\n    tag_189:\n        /* \"contracts/mirrorseaMain.sol\":4995:5007  _list.length */\n      dup4\n      mload\n      swap1\n        /* \"contracts/mirrorseaMain.sol\":4995:5011  _list.length.sub */\n      tag_192\n        /* \"contracts/mirrorseaMain.sol\":4995:5038  _list.length.sub(_row.mul(_page).sub(_row)) */\n      jump\t// in\n    tag_188:\n        /* \"contracts/mirrorseaMain.sol\":4978:5038  uint256 remAmt = _list.length.sub(_row.mul(_page).sub(_row)) */\n      swap1\n      pop\n        /* \"contracts/mirrorseaMain.sol\":5062:5066  _row */\n      dup7\n        /* \"contracts/mirrorseaMain.sol\":5052:5058  remAmt */\n      dup2\n        /* \"contracts/mirrorseaMain.sol\":5052:5066  remAmt >= _row */\n      lt\n        /* \"contracts/mirrorseaMain.sol\":5048:5146  if (remAmt >= _row) {... */\n      tag_193\n      jumpi\n        /* \"contracts/mirrorseaMain.sol\":5088:5092  _row */\n      dup7\n        /* \"contracts/mirrorseaMain.sol\":5082:5092  arr = _row */\n      swap3\n      pop\n        /* \"contracts/mirrorseaMain.sol\":5048:5146  if (remAmt >= _row) {... */\n      jump(tag_194)\n    tag_193:\n        /* \"contracts/mirrorseaMain.sol\":5129:5135  remAmt */\n      dup1\n        /* \"contracts/mirrorseaMain.sol\":5123:5135  arr = remAmt */\n      swap3\n      pop\n        /* \"contracts/mirrorseaMain.sol\":5048:5146  if (remAmt >= _row) {... */\n    tag_194:\n        /* \"contracts/mirrorseaMain.sol\":5155:5179  uint256[] memory newList */\n      0x00\n        /* \"contracts/mirrorseaMain.sol\":5196:5199  arr */\n      dup4\n        /* \"contracts/mirrorseaMain.sol\":5182:5200  new uint256[](arr) */\n      0xffffffffffffffff\n      dup2\n      gt\n      iszero\n      tag_195\n      jumpi\n      mstore(0x00, shl(0xe0, 0x4e487b71))\n      mstore(0x04, 0x41)\n      revert(0x00, 0x24)\n    tag_195:\n      mload(0x40)\n      swap1\n      dup1\n      dup3\n      mstore\n      dup1\n      0x20\n      mul\n      0x20\n      add\n      dup3\n      add\n      0x40\n      mstore\n      dup1\n      iszero\n      tag_196\n      jumpi\n      dup2\n      0x20\n      add\n      0x20\n      dup3\n      mul\n      dup1\n      calldatasize\n      dup4\n      calldatacopy\n      add\n      swap1\n      pop\n    tag_196:\n      pop\n        /* \"contracts/mirrorseaMain.sol\":5246:5258  _list.length */\n      dup4\n      mload\n        /* \"contracts/mirrorseaMain.sol\":5155:5200  uint256[] memory newList = new uint256[](arr) */\n      swap1\n      swap2\n      pop\n        /* \"contracts/mirrorseaMain.sol\":5218:5243  _row.mul(_page).sub(_row) */\n      tag_197\n        /* \"contracts/mirrorseaMain.sol\":5238:5242  _row */\n      dup10\n        /* \"contracts/mirrorseaMain.sol\":5218:5233  _row.mul(_page) */\n      tag_190\n        /* \"contracts/mirrorseaMain.sol\":5238:5242  _row */\n      dup2\n        /* \"contracts/mirrorseaMain.sol\":5227:5232  _page */\n      dup12\n        /* \"contracts/mirrorseaMain.sol\":5218:5226  _row.mul */\n      tag_191\n        /* \"contracts/mirrorseaMain.sol\":5218:5233  _row.mul(_page) */\n      jump\t// in\n        /* \"contracts/mirrorseaMain.sol\":5218:5243  _row.mul(_page).sub(_row) */\n    tag_197:\n        /* \"contracts/mirrorseaMain.sol\":5218:5258  _row.mul(_page).sub(_row) < _list.length */\n      lt\n        /* \"contracts/mirrorseaMain.sol\":5210:5273  require(_row.mul(_page).sub(_row) < _list.length, \"length err\") */\n      tag_199\n      jumpi\n      mload(0x40)\n      shl(0xe5, 0x461bcd)\n      dup2\n      mstore\n      0x04\n      add\n      tag_200\n      swap1\n      tag_201\n      jump\t// in\n    tag_200:\n      mload(0x40)\n      dup1\n      swap2\n      sub\n      swap1\n      revert\n    tag_199:\n        /* \"contracts/mirrorseaMain.sol\":5288:5297  uint256 i */\n      0x00\n        /* \"contracts/mirrorseaMain.sol\":5317:5321  _row */\n      dup9\n        /* \"contracts/mirrorseaMain.sol\":5301:5313  _row * _page */\n      tag_205\n        /* \"contracts/mirrorseaMain.sol\":5308:5313  _page */\n      dup10\n        /* \"contracts/mirrorseaMain.sol\":5317:5321  _row */\n      dup3\n        /* \"contracts/mirrorseaMain.sol\":5301:5313  _row * _page */\n      tag_206\n      jump\t// in\n    tag_205:\n        /* \"contracts/mirrorseaMain.sol\":5300:5321  (_row * _page) - _row */\n      tag_207\n      swap2\n      swap1\n      tag_208\n      jump\t// in\n    tag_207:\n        /* \"contracts/mirrorseaMain.sol\":5288:5321  uint256 i = (_row * _page) - _row */\n      swap1\n      pop\n        /* \"contracts/mirrorseaMain.sol\":5283:5486  for (uint256 i = (_row * _page) - _row; i < _row * _page; i++) {... */\n    tag_202:\n        /* \"contracts/mirrorseaMain.sol\":5327:5339  _row * _page */\n      tag_209\n        /* \"contracts/mirrorseaMain.sol\":5334:5339  _page */\n      dup9\n        /* \"contracts/mirrorseaMain.sol\":5327:5331  _row */\n      dup11\n        /* \"contracts/mirrorseaMain.sol\":5327:5339  _row * _page */\n      tag_206\n      jump\t// in\n    tag_209:\n        /* \"contracts/mirrorseaMain.sol\":5323:5324  i */\n      dup2\n        /* \"contracts/mirrorseaMain.sol\":5323:5339  i < _row * _page */\n      lt\n        /* \"contracts/mirrorseaMain.sol\":5283:5486  for (uint256 i = (_row * _page) - _row; i < _row * _page; i++) {... */\n      iszero\n      tag_203\n      jumpi\n        /* \"contracts/mirrorseaMain.sol\":5377:5382  _list */\n      dup4\n        /* \"contracts/mirrorseaMain.sol\":5383:5384  i */\n      dup2\n        /* \"contracts/mirrorseaMain.sol\":5377:5385  _list[i] */\n      dup2\n      mload\n      dup2\n      lt\n      tag_210\n      jumpi\n      mstore(0x00, shl(0xe0, 0x4e487b71))\n      mstore(0x04, 0x32)\n      revert(0x00, 0x24)\n    tag_210:\n      0x20\n      mul\n      0x20\n      add\n      add\n      mload\n        /* \"contracts/mirrorseaMain.sol\":5360:5367  newList */\n      dup3\n        /* \"contracts/mirrorseaMain.sol\":5368:5373  index */\n      dup8\n        /* \"contracts/mirrorseaMain.sol\":5360:5374  newList[index] */\n      dup2\n      mload\n      dup2\n      lt\n      tag_211\n      jumpi\n      mstore(0x00, shl(0xe0, 0x4e487b71))\n      mstore(0x04, 0x32)\n      revert(0x00, 0x24)\n    tag_211:\n      0x20\n      swap1\n      dup2\n      mul\n      swap2\n      swap1\n      swap2\n      add\n      add\n        /* \"contracts/mirrorseaMain.sol\":5360:5385  newList[index] = _list[i] */\n      mstore\n        /* \"contracts/mirrorseaMain.sol\":5399:5406  index++ */\n      dup6\n      tag_212\n      dup2\n      tag_213\n      jump\t// in\n    tag_212:\n      swap7\n      pop\n      pop\n        /* \"contracts/mirrorseaMain.sol\":5431:5436  index */\n      dup6\n        /* \"contracts/mirrorseaMain.sol\":5424:5427  arr */\n      dup6\n        /* \"contracts/mirrorseaMain.sol\":5424:5436  arr == index */\n      eq\n        /* \"contracts/mirrorseaMain.sol\":5420:5476  if (arr == index) {... */\n      iszero\n      tag_214\n      jumpi\n        /* \"contracts/mirrorseaMain.sol\":5456:5461  break */\n      jump(tag_203)\n        /* \"contracts/mirrorseaMain.sol\":5420:5476  if (arr == index) {... */\n    tag_214:\n        /* \"contracts/mirrorseaMain.sol\":5341:5344  i++ */\n      dup1\n      tag_215\n      dup2\n      tag_213\n      jump\t// in\n    tag_215:\n      swap2\n      pop\n      pop\n        /* \"contracts/mirrorseaMain.sol\":5283:5486  for (uint256 i = (_row * _page) - _row; i < _row * _page; i++) {... */\n      jump(tag_202)\n    tag_203:\n      pop\n        /* \"contracts/mirrorseaMain.sol\":5502:5509  newList */\n      swap10\n        /* \"contracts/mirrorseaMain.sol\":4502:5516  function pagination(... */\n      swap9\n      pop\n      pop\n      pop\n      pop\n      pop\n      pop\n      pop\n      pop\n      pop\n      jump\t// out\n        /* \"contracts/mirrorseaMain.sol\":1347:1379  uint256[] public openOrderIdList */\n    tag_51:\n      0x6c\n      dup2\n      dup2\n      sload\n      dup2\n      lt\n      tag_216\n      jumpi\n      0x00\n      dup1\n      revert\n    tag_216:\n      0x00\n      swap2\n      dup3\n      mstore\n      0x20\n      swap1\n      swap2\n      keccak256\n      add\n      sload\n      swap1\n      pop\n      dup2\n      jump\t// out\n        /* \"contracts/mirrorseaMain.sol\":2999:3176  function setExecutor(address _address, bool _type)... */\n    tag_57:\n        /* \"contracts/mirrorseaMain.sol\":3102:3106  bool */\n      0x00\n        /* \"@openzeppelin/contracts-upgradeable/access/OwnableUpgradeable.sol\":1525:1537  _msgSender() */\n      tag_219\n        /* \"@openzeppelin/contracts-upgradeable/access/OwnableUpgradeable.sol\":1525:1535  _msgSender */\n      tag_220\n        /* \"@openzeppelin/contracts-upgradeable/access/OwnableUpgradeable.sol\":1525:1537  _msgSender() */\n      jump\t// in\n    tag_219:\n      sub(shl(0xa0, 0x01), 0x01)\n        /* \"@openzeppelin/contracts-upgradeable/access/OwnableUpgradeable.sol\":1514:1537  owner() == _msgSender() */\n      and\n        /* \"@openzeppelin/contracts-upgradeable/access/OwnableUpgradeable.sol\":1514:1521  owner() */\n      tag_221\n        /* \"@openzeppelin/contracts-upgradeable/access/OwnableUpgradeable.sol\":1514:1519  owner */\n      tag_119\n        /* \"@openzeppelin/contracts-upgradeable/access/OwnableUpgradeable.sol\":1514:1521  owner() */\n      jump\t// in\n    tag_221:\n      sub(shl(0xa0, 0x01), 0x01)\n        /* \"@openzeppelin/contracts-upgradeable/access/OwnableUpgradeable.sol\":1514:1537  owner() == _msgSender() */\n      and\n      eq\n        /* \"@openzeppelin/contracts-upgradeable/access/OwnableUpgradeable.sol\":1506:1574  require(owner() == _msgSender(), \"Ownable: caller is not the owner\") */\n      tag_222\n      jumpi\n      mload(0x40)\n      shl(0xe5, 0x461bcd)\n      dup2\n      mstore\n      0x04\n      add\n      tag_200\n      swap1\n      tag_224\n      jump\t// in\n    tag_222:\n      pop\n      sub(shl(0xa0, 0x01), 0x01)\n        /* \"contracts/mirrorseaMain.sol\":3122:3140  executor[_address] */\n      dup3\n      and\n      0x00\n      swap1\n      dup2\n      mstore\n        /* \"contracts/mirrorseaMain.sol\":3122:3130  executor */\n      0x65\n        /* \"contracts/mirrorseaMain.sol\":3122:3140  executor[_address] */\n      0x20\n      mstore\n      0x40\n      swap1\n      keccak256\n        /* \"contracts/mirrorseaMain.sol\":3122:3148  executor[_address] = _type */\n      dup1\n      sload\n      dup3\n      iszero\n      iszero\n      not(0xff)\n      swap1\n      swap2\n      and\n      or\n      swap1\n      sstore\n      0x01\n        /* \"contracts/mirrorseaMain.sol\":2999:3176  function setExecutor(address _address, bool _type)... */\n      swap3\n      swap2\n      pop\n      pop\n      jump\t// out\n        /* \"contracts/mirrorseaMain.sol\":1196:1227  IhelperLogic public helperLogic */\n    tag_61:\n      and(sub(shl(0xa0, 0x01), 0x01), sload(0x68))\n      dup2\n      jump\t// out\n        /* \"contracts/mirrorseaMain.sol\":1135:1156  address public signer */\n    tag_65:\n      and(sub(shl(0xa0, 0x01), 0x01), sload(0x66))\n      dup2\n      jump\t// out\n        /* \"contracts/mirrorseaMain.sol\":1162:1190  IERC20Upgradeable public usc */\n    tag_69:\n      and(sub(shl(0xa0, 0x01), 0x01), sload(0x67))\n      dup2\n      jump\t// out\n        /* \"contracts/mirrorseaMain.sol\":1385:1441  mapping(uint256 => uint256) public openOrderIdList_index */\n    tag_74:\n      mstore(0x20, 0x6d)\n      0x00\n      swap1\n      dup2\n      mstore\n      0x40\n      swap1\n      keccak256\n      sload\n      dup2\n      jump\t// out\n        /* \"contracts/mirrorseaMain.sol\":1089:1129  mapping(address => bool) public executor */\n    tag_79:\n      mstore(0x20, 0x65)\n      0x00\n      swap1\n      dup2\n      mstore\n      0x40\n      swap1\n      keccak256\n      sload\n      0xff\n      and\n      dup2\n      jump\t// out\n        /* \"contracts/mirrorseaMain.sol\":12122:12973  function liquidation(... */\n    tag_84:\n        /* \"contracts/mirrorseaMain.sol\":3233:3243  msg.sender */\n      caller\n        /* \"contracts/mirrorseaMain.sol\":12378:12382  bool */\n      0x00\n        /* \"contracts/mirrorseaMain.sol\":3224:3244  executor[msg.sender] */\n      swap1\n      dup2\n      mstore\n        /* \"contracts/mirrorseaMain.sol\":3224:3232  executor */\n      0x65\n        /* \"contracts/mirrorseaMain.sol\":3224:3244  executor[msg.sender] */\n      0x20\n      mstore\n      0x40\n      dup2\n      keccak256\n      sload\n      0xff\n      and\n        /* \"contracts/mirrorseaMain.sol\":3216:3285  require(executor[msg.sender], \"executor: caller is not the executor\") */\n      tag_227\n      jumpi\n      mload(0x40)\n      shl(0xe5, 0x461bcd)\n      dup2\n      mstore\n      0x04\n      add\n      tag_200\n      swap1\n      tag_229\n      jump\t// in\n    tag_227:\n        /* \"contracts/mirrorseaMain.sol\":12399:12408  uint256 i */\n      0x00\n        /* \"contracts/mirrorseaMain.sol\":12394:12945  for (uint256 i = 0; i < _id.length; i++) {... */\n    tag_231:\n        /* \"contracts/mirrorseaMain.sol\":12418:12421  _id */\n      dup7\n        /* \"contracts/mirrorseaMain.sol\":12418:12428  _id.length */\n      mload\n        /* \"contracts/mirrorseaMain.sol\":12414:12415  i */\n      dup2\n        /* \"contracts/mirrorseaMain.sol\":12414:12428  i < _id.length */\n      lt\n        /* \"contracts/mirrorseaMain.sol\":12394:12945  for (uint256 i = 0; i < _id.length; i++) {... */\n      iszero\n      tag_232\n      jumpi\n        /* \"contracts/mirrorseaMain.sol\":12449:12472  OrderInfo storage order */\n      0x00\n        /* \"contracts/mirrorseaMain.sol\":12475:12485  _orderInfo */\n      0x6a\n        /* \"contracts/mirrorseaMain.sol\":12475:12493  _orderInfo[_id[i]] */\n      0x00\n        /* \"contracts/mirrorseaMain.sol\":12486:12489  _id */\n      dup10\n        /* \"contracts/mirrorseaMain.sol\":12490:12491  i */\n      dup5\n        /* \"contracts/mirrorseaMain.sol\":12486:12492  _id[i] */\n      dup2\n      mload\n      dup2\n      lt\n      tag_234\n      jumpi\n      mstore(0x00, shl(0xe0, 0x4e487b71))\n      mstore(0x04, 0x32)\n      revert(0x00, 0x24)\n    tag_234:\n      0x20\n      mul\n      0x20\n      add\n      add\n      mload\n        /* \"contracts/mirrorseaMain.sol\":12475:12493  _orderInfo[_id[i]] */\n      dup2\n      mstore\n      0x20\n      add\n      swap1\n      dup2\n      mstore\n      0x20\n      add\n      0x00\n      keccak256\n        /* \"contracts/mirrorseaMain.sol\":12449:12493  OrderInfo storage order = _orderInfo[_id[i]] */\n      swap1\n      pop\n        /* \"contracts/mirrorseaMain.sol\":12512:12557  _isSolvent(_id[i], _price18[i], order.margin) */\n      tag_235\n        /* \"contracts/mirrorseaMain.sol\":12523:12526  _id */\n      dup9\n        /* \"contracts/mirrorseaMain.sol\":12527:12528  i */\n      dup4\n        /* \"contracts/mirrorseaMain.sol\":12523:12529  _id[i] */\n      dup2\n      mload\n      dup2\n      lt\n      tag_236\n      jumpi\n      mstore(0x00, shl(0xe0, 0x4e487b71))\n      mstore(0x04, 0x32)\n      revert(0x00, 0x24)\n    tag_236:\n      0x20\n      mul\n      0x20\n      add\n      add\n      mload\n        /* \"contracts/mirrorseaMain.sol\":12531:12539  _price18 */\n      dup7\n        /* \"contracts/mirrorseaMain.sol\":12540:12541  i */\n      dup5\n        /* \"contracts/mirrorseaMain.sol\":12531:12542  _price18[i] */\n      dup2\n      mload\n      dup2\n      lt\n      tag_237\n      jumpi\n      mstore(0x00, shl(0xe0, 0x4e487b71))\n      mstore(0x04, 0x32)\n      revert(0x00, 0x24)\n    tag_237:\n      0x20\n      mul\n      0x20\n      add\n      add\n      mload\n        /* \"contracts/mirrorseaMain.sol\":12544:12549  order */\n      dup4\n        /* \"contracts/mirrorseaMain.sol\":12544:12556  order.margin */\n      0x0a\n      add\n      sload\n        /* \"contracts/mirrorseaMain.sol\":12512:12522  _isSolvent */\n      tag_238\n        /* \"contracts/mirrorseaMain.sol\":12512:12557  _isSolvent(_id[i], _price18[i], order.margin) */\n      jump\t// in\n    tag_235:\n        /* \"contracts/mirrorseaMain.sol\":12507:12935  if (!_isSolvent(_id[i], _price18[i], order.margin)) {... */\n      tag_239\n      jumpi\n        /* \"contracts/mirrorseaMain.sol\":12604:12920  _closePosition(... */\n      tag_240\n        /* \"contracts/mirrorseaMain.sol\":12644:12656  _marketState */\n      dup10\n        /* \"contracts/mirrorseaMain.sol\":12682:12687  order */\n      dup3\n        /* \"contracts/mirrorseaMain.sol\":12713:12714  3 */\n      0x03\n        /* \"contracts/mirrorseaMain.sol\":12740:12743  _id */\n      dup12\n        /* \"contracts/mirrorseaMain.sol\":12744:12745  i */\n      dup7\n        /* \"contracts/mirrorseaMain.sol\":12740:12746  _id[i] */\n      dup2\n      mload\n      dup2\n      lt\n      tag_241\n      jumpi\n      mstore(0x00, shl(0xe0, 0x4e487b71))\n      mstore(0x04, 0x32)\n      revert(0x00, 0x24)\n    tag_241:\n      0x20\n      mul\n      0x20\n      add\n      add\n      mload\n        /* \"contracts/mirrorseaMain.sol\":12772:12782  _timestamp */\n      dup12\n        /* \"contracts/mirrorseaMain.sol\":12783:12784  i */\n      dup8\n        /* \"contracts/mirrorseaMain.sol\":12772:12785  _timestamp[i] */\n      dup2\n      mload\n      dup2\n      lt\n      tag_242\n      jumpi\n      mstore(0x00, shl(0xe0, 0x4e487b71))\n      mstore(0x04, 0x32)\n      revert(0x00, 0x24)\n    tag_242:\n      0x20\n      mul\n      0x20\n      add\n      add\n      mload\n        /* \"contracts/mirrorseaMain.sol\":12811:12819  _symbols */\n      dup12\n        /* \"contracts/mirrorseaMain.sol\":12820:12821  i */\n      dup9\n        /* \"contracts/mirrorseaMain.sol\":12811:12822  _symbols[i] */\n      dup2\n      mload\n      dup2\n      lt\n      tag_243\n      jumpi\n      mstore(0x00, shl(0xe0, 0x4e487b71))\n      mstore(0x04, 0x32)\n      revert(0x00, 0x24)\n    tag_243:\n      0x20\n      mul\n      0x20\n      add\n      add\n      mload\n        /* \"contracts/mirrorseaMain.sol\":12848:12856  _price18 */\n      dup12\n        /* \"contracts/mirrorseaMain.sol\":12857:12858  i */\n      dup10\n        /* \"contracts/mirrorseaMain.sol\":12848:12859  _price18[i] */\n      dup2\n      mload\n      dup2\n      lt\n      tag_244\n      jumpi\n      mstore(0x00, shl(0xe0, 0x4e487b71))\n      mstore(0x04, 0x32)\n      revert(0x00, 0x24)\n    tag_244:\n      0x20\n      mul\n      0x20\n      add\n      add\n      mload\n        /* \"contracts/mirrorseaMain.sol\":12885:12895  _signature */\n      dup12\n        /* \"contracts/mirrorseaMain.sol\":12896:12897  i */\n      dup11\n        /* \"contracts/mirrorseaMain.sol\":12885:12898  _signature[i] */\n      dup2\n      mload\n      dup2\n      lt\n      tag_245\n      jumpi\n      mstore(0x00, shl(0xe0, 0x4e487b71))\n      mstore(0x04, 0x32)\n      revert(0x00, 0x24)\n    tag_245:\n      0x20\n      mul\n      0x20\n      add\n      add\n      mload\n        /* \"contracts/mirrorseaMain.sol\":12604:12618  _closePosition */\n      tag_246\n        /* \"contracts/mirrorseaMain.sol\":12604:12920  _closePosition(... */\n      jump\t// in\n    tag_240:\n        /* \"contracts/mirrorseaMain.sol\":12577:12920  return... */\n      swap3\n      pop\n      pop\n      pop\n      jump(tag_230)\n        /* \"contracts/mirrorseaMain.sol\":12507:12935  if (!_isSolvent(_id[i], _price18[i], order.margin)) {... */\n    tag_239:\n      pop\n        /* \"contracts/mirrorseaMain.sol\":12430:12433  i++ */\n      dup1\n      tag_247\n      dup2\n      tag_213\n      jump\t// in\n    tag_247:\n      swap2\n      pop\n      pop\n        /* \"contracts/mirrorseaMain.sol\":12394:12945  for (uint256 i = 0; i < _id.length; i++) {... */\n      jump(tag_231)\n    tag_232:\n      pop\n        /* \"contracts/mirrorseaMain.sol\":12962:12966  true */\n      0x01\n        /* \"contracts/mirrorseaMain.sol\":12955:12966  return true */\n      swap1\n      pop\n        /* \"contracts/mirrorseaMain.sol\":3295:3296  _ */\n    tag_230:\n        /* \"contracts/mirrorseaMain.sol\":12122:12973  function liquidation(... */\n      swap7\n      swap6\n      pop\n      pop\n      pop\n      pop\n      pop\n      pop\n      jump\t// out\n        /* \"contracts/mirrorseaMain.sol\":3603:3715  function orderInfo(uint256 _id) external view returns (OrderInfo memory) {... */\n    tag_88:\n        /* \"contracts/mirrorseaMain.sol\":3658:3674  OrderInfo memory */\n      tag_248\n      tag_249\n      jump\t// in\n    tag_248:\n        /* \"contracts/mirrorseaMain.sol\":3693:3708  _orderInfo[_id] */\n      0x00\n      dup3\n      dup2\n      mstore\n        /* \"contracts/mirrorseaMain.sol\":3693:3703  _orderInfo */\n      0x6a\n        /* \"contracts/mirrorseaMain.sol\":3693:3708  _orderInfo[_id] */\n      0x20\n      swap1\n      dup2\n      mstore\n      0x40\n      swap2\n      dup3\n      swap1\n      keccak256\n        /* \"contracts/mirrorseaMain.sol\":3686:3708  return _orderInfo[_id] */\n      dup3\n      mload\n      0x0160\n      dup2\n      add\n      dup5\n      mstore\n      dup2\n      sload\n      sub(shl(0xa0, 0x01), 0x01)\n      and\n      dup2\n      mstore\n      0x01\n      dup3\n      add\n      sload\n      swap3\n      dup2\n      add\n      swap3\n      swap1\n      swap3\n      mstore\n      0x02\n      dup2\n      add\n      dup1\n      sload\n      swap3\n      swap4\n        /* \"contracts/mirrorseaMain.sol\":3693:3708  _orderInfo[_id] */\n      swap2\n      swap3\n        /* \"contracts/mirrorseaMain.sol\":3686:3708  return _orderInfo[_id] */\n      swap2\n      dup5\n      add\n      swap2\n      tag_251\n      swap1\n      tag_252\n      jump\t// in\n    tag_251:\n      dup1\n      0x1f\n      add\n      0x20\n      dup1\n      swap2\n      div\n      mul\n      0x20\n      add\n      mload(0x40)\n      swap1\n      dup2\n      add\n      0x40\n      mstore\n      dup1\n      swap3\n      swap2\n      swap1\n      dup2\n      dup2\n      mstore\n      0x20\n      add\n      dup3\n      dup1\n      sload\n      tag_253\n      swap1\n      tag_252\n      jump\t// in\n    tag_253:\n      dup1\n      iszero\n      tag_254\n      jumpi\n      dup1\n      0x1f\n      lt\n      tag_255\n      jumpi\n      0x0100\n      dup1\n      dup4\n      sload\n      div\n      mul\n      dup4\n      mstore\n      swap2\n      0x20\n      add\n      swap2\n      jump(tag_254)\n    tag_255:\n      dup3\n      add\n      swap2\n      swap1\n      0x00\n      mstore\n      keccak256(0x00, 0x20)\n      swap1\n    tag_256:\n      dup2\n      sload\n      dup2\n      mstore\n      swap1\n      0x01\n      add\n      swap1\n      0x20\n      add\n      dup1\n      dup4\n      gt\n      tag_256\n      jumpi\n      dup3\n      swap1\n      sub\n      0x1f\n      and\n      dup3\n      add\n      swap2\n    tag_254:\n      pop\n      pop\n      pop\n      pop\n      pop\n      dup2\n      mstore\n      0x20\n      add\n      0x03\n      dup3\n      add\n      sload\n      dup2\n      mstore\n      0x20\n      add\n      0x04\n      dup3\n      add\n      sload\n      dup2\n      mstore\n      0x20\n      add\n      0x05\n      dup3\n      add\n      sload\n      dup2\n      mstore\n      0x20\n      add\n      0x06\n      dup3\n      add\n      sload\n      dup2\n      mstore\n      0x20\n      add\n      0x07\n      dup3\n      add\n      sload\n      dup2\n      mstore\n      0x20\n      add\n      0x08\n      dup3\n      add\n      sload\n      dup2\n      mstore\n      0x20\n      add\n      0x09\n      dup3\n      add\n      sload\n      dup2\n      mstore\n      0x20\n      add\n      0x0a\n      dup3\n      add\n      sload\n      dup2\n      mstore\n      pop\n      pop\n      swap1\n      pop\n        /* \"contracts/mirrorseaMain.sol\":3603:3715  function orderInfo(uint256 _id) external view returns (OrderInfo memory) {... */\n    tag_250:\n      swap2\n      swap1\n      pop\n      jump\t// out\n        /* \"contracts/mirrorseaMain.sol\":3471:3597  function setSigner(address _address) external onlyOwner returns (bool) {... */\n    tag_93:\n        /* \"contracts/mirrorseaMain.sol\":3536:3540  bool */\n      0x00\n        /* \"@openzeppelin/contracts-upgradeable/access/OwnableUpgradeable.sol\":1525:1537  _msgSender() */\n      tag_258\n        /* \"@openzeppelin/contracts-upgradeable/access/OwnableUpgradeable.sol\":1525:1535  _msgSender */\n      tag_220\n        /* \"@openzeppelin/contracts-upgradeable/access/OwnableUpgradeable.sol\":1525:1537  _msgSender() */\n      jump\t// in\n    tag_258:\n      sub(shl(0xa0, 0x01), 0x01)\n        /* \"@openzeppelin/contracts-upgradeable/access/OwnableUpgradeable.sol\":1514:1537  owner() == _msgSender() */\n      and\n        /* \"@openzeppelin/contracts-upgradeable/access/OwnableUpgradeable.sol\":1514:1521  owner() */\n      tag_259\n        /* \"@openzeppelin/contracts-upgradeable/access/OwnableUpgradeable.sol\":1514:1519  owner */\n      tag_119\n        /* \"@openzeppelin/contracts-upgradeable/access/OwnableUpgradeable.sol\":1514:1521  owner() */\n      jump\t// in\n    tag_259:\n      sub(shl(0xa0, 0x01), 0x01)\n        /* \"@openzeppelin/contracts-upgradeable/access/OwnableUpgradeable.sol\":1514:1537  owner() == _msgSender() */\n      and\n      eq\n        /* \"@openzeppelin/contracts-upgradeable/access/OwnableUpgradeable.sol\":1506:1574  require(owner() == _msgSender(), \"Ownable: caller is not the owner\") */\n      tag_260\n      jumpi\n      mload(0x40)\n      shl(0xe5, 0x461bcd)\n      dup2\n      mstore\n      0x04\n      add\n      tag_200\n      swap1\n      tag_224\n      jump\t// in\n    tag_260:\n      pop\n        /* \"contracts/mirrorseaMain.sol\":3552:3558  signer */\n      0x66\n        /* \"contracts/mirrorseaMain.sol\":3552:3569  signer = _address */\n      dup1\n      sload\n      sub(shl(0xa0, 0x01), 0x01)\n      dup4\n      and\n      not(sub(shl(0xa0, 0x01), 0x01))\n      swap1\n      swap2\n      and\n      or\n      swap1\n      sstore\n      0x01\n        /* \"contracts/mirrorseaMain.sol\":3471:3597  function setSigner(address _address) external onlyOwner returns (bool) {... */\n      swap2\n      swap1\n      pop\n      jump\t// out\n        /* \"contracts/mirrorseaMain.sol\":11138:11730  function closePosition(... */\n    tag_98:\n        /* \"contracts/mirrorseaMain.sol\":11352:11356  bool */\n      0x00\n        /* \"contracts/mirrorseaMain.sol\":11394:11409  _orderInfo[_id] */\n      dup6\n      dup2\n      mstore\n        /* \"contracts/mirrorseaMain.sol\":11394:11404  _orderInfo */\n      0x6a\n        /* \"contracts/mirrorseaMain.sol\":11394:11409  _orderInfo[_id] */\n      0x20\n      mstore\n      0x40\n      dup2\n      keccak256\n        /* \"contracts/mirrorseaMain.sol\":11427:11437  order.user */\n      dup1\n      sload\n      sub(shl(0xa0, 0x01), 0x01)\n      and\n        /* \"contracts/mirrorseaMain.sol\":11441:11451  msg.sender */\n      caller\n        /* \"contracts/mirrorseaMain.sol\":11427:11451  order.user == msg.sender */\n      eq\n        /* \"contracts/mirrorseaMain.sol\":11419:11464  require(order.user == msg.sender, \"user err\") */\n      tag_264\n      jumpi\n      mload(0x40)\n      shl(0xe5, 0x461bcd)\n      dup2\n      mstore\n      0x04\n      add\n      tag_200\n      swap1\n      tag_266\n      jump\t// in\n    tag_264:\n        /* \"contracts/mirrorseaMain.sol\":11494:11723  _closePosition(... */\n      tag_267\n        /* \"contracts/mirrorseaMain.sol\":11526:11538  _marketState */\n      dup9\n        /* \"contracts/mirrorseaMain.sol\":11556:11561  order */\n      dup3\n        /* \"contracts/mirrorseaMain.sol\":11579:11580  2 */\n      0x02\n        /* \"contracts/mirrorseaMain.sol\":11598:11601  _id */\n      dup11\n        /* \"contracts/mirrorseaMain.sol\":11619:11629  _timestamp */\n      dup11\n        /* \"contracts/mirrorseaMain.sol\":11647:11655  _symbols */\n      dup11\n        /* \"contracts/mirrorseaMain.sol\":11673:11681  _price18 */\n      dup11\n        /* \"contracts/mirrorseaMain.sol\":11699:11709  _signature */\n      dup11\n        /* \"contracts/mirrorseaMain.sol\":11494:11508  _closePosition */\n      tag_246\n        /* \"contracts/mirrorseaMain.sol\":11494:11723  _closePosition(... */\n      jump\t// in\n    tag_267:\n        /* \"contracts/mirrorseaMain.sol\":11475:11723  return... */\n      swap9\n        /* \"contracts/mirrorseaMain.sol\":11138:11730  function closePosition(... */\n      swap8\n      pop\n      pop\n      pop\n      pop\n      pop\n      pop\n      pop\n      pop\n      jump\t// out\n        /* \"@openzeppelin/contracts-upgradeable/access/OwnableUpgradeable.sol\":1934:2035  function renounceOwnership() public virtual onlyOwner {... */\n    tag_101:\n        /* \"@openzeppelin/contracts-upgradeable/access/OwnableUpgradeable.sol\":1525:1537  _msgSender() */\n      tag_269\n        /* \"@openzeppelin/contracts-upgradeable/access/OwnableUpgradeable.sol\":1525:1535  _msgSender */\n      tag_220\n        /* \"@openzeppelin/contracts-upgradeable/access/OwnableUpgradeable.sol\":1525:1537  _msgSender() */\n      jump\t// in\n    tag_269:\n      sub(shl(0xa0, 0x01), 0x01)\n        /* \"@openzeppelin/contracts-upgradeable/access/OwnableUpgradeable.sol\":1514:1537  owner() == _msgSender() */\n      and\n        /* \"@openzeppelin/contracts-upgradeable/access/OwnableUpgradeable.sol\":1514:1521  owner() */\n      tag_270\n        /* \"@openzeppelin/contracts-upgradeable/access/OwnableUpgradeable.sol\":1514:1519  owner */\n      tag_119\n        /* \"@openzeppelin/contracts-upgradeable/access/OwnableUpgradeable.sol\":1514:1521  owner() */\n      jump\t// in\n    tag_270:\n      sub(shl(0xa0, 0x01), 0x01)\n        /* \"@openzeppelin/contracts-upgradeable/access/OwnableUpgradeable.sol\":1514:1537  owner() == _msgSender() */\n      and\n      eq\n        /* \"@openzeppelin/contracts-upgradeable/access/OwnableUpgradeable.sol\":1506:1574  require(owner() == _msgSender(), \"Ownable: caller is not the owner\") */\n      tag_271\n      jumpi\n      mload(0x40)\n      shl(0xe5, 0x461bcd)\n      dup2\n      mstore\n      0x04\n      add\n      tag_200\n      swap1\n      tag_224\n      jump\t// in\n    tag_271:\n        /* \"@openzeppelin/contracts-upgradeable/access/OwnableUpgradeable.sol\":1998:2028  _transferOwnership(address(0)) */\n      tag_274\n        /* \"@openzeppelin/contracts-upgradeable/access/OwnableUpgradeable.sol\":2025:2026  0 */\n      0x00\n        /* \"@openzeppelin/contracts-upgradeable/access/OwnableUpgradeable.sol\":1998:2016  _transferOwnership */\n      tag_275\n        /* \"@openzeppelin/contracts-upgradeable/access/OwnableUpgradeable.sol\":1998:2028  _transferOwnership(address(0)) */\n      jump\t// in\n    tag_274:\n        /* \"@openzeppelin/contracts-upgradeable/access/OwnableUpgradeable.sol\":1934:2035  function renounceOwnership() public virtual onlyOwner {... */\n      jump\t// out\n        /* \"contracts/mirrorseaMain.sol\":1508:1594  mapping(address => mapping(uint256 => uint256))... */\n    tag_105:\n      0x6f\n      0x20\n      swap1\n      dup2\n      mstore\n      0x00\n      swap3\n      dup4\n      mstore\n      0x40\n      dup1\n      dup5\n      keccak256\n      swap1\n      swap2\n      mstore\n      swap1\n      dup3\n      mstore\n      swap1\n      keccak256\n      sload\n      dup2\n      jump\t// out\n        /* \"contracts/mirrorseaMain.sol\":3326:3452  function setFeePercent(uint256 _val) external onlyOwner returns (bool) {... */\n    tag_109:\n        /* \"contracts/mirrorseaMain.sol\":3391:3395  bool */\n      0x00\n        /* \"@openzeppelin/contracts-upgradeable/access/OwnableUpgradeable.sol\":1525:1537  _msgSender() */\n      tag_277\n        /* \"@openzeppelin/contracts-upgradeable/access/OwnableUpgradeable.sol\":1525:1535  _msgSender */\n      tag_220\n        /* \"@openzeppelin/contracts-upgradeable/access/OwnableUpgradeable.sol\":1525:1537  _msgSender() */\n      jump\t// in\n    tag_277:\n      sub(shl(0xa0, 0x01), 0x01)\n        /* \"@openzeppelin/contracts-upgradeable/access/OwnableUpgradeable.sol\":1514:1537  owner() == _msgSender() */\n      and\n        /* \"@openzeppelin/contracts-upgradeable/access/OwnableUpgradeable.sol\":1514:1521  owner() */\n      tag_278\n        /* \"@openzeppelin/contracts-upgradeable/access/OwnableUpgradeable.sol\":1514:1519  owner */\n      tag_119\n        /* \"@openzeppelin/contracts-upgradeable/access/OwnableUpgradeable.sol\":1514:1521  owner() */\n      jump\t// in\n    tag_278:\n      sub(shl(0xa0, 0x01), 0x01)\n        /* \"@openzeppelin/contracts-upgradeable/access/OwnableUpgradeable.sol\":1514:1537  owner() == _msgSender() */\n      and\n      eq\n        /* \"@openzeppelin/contracts-upgradeable/access/OwnableUpgradeable.sol\":1506:1574  require(owner() == _msgSender(), \"Ownable: caller is not the owner\") */\n      tag_279\n      jumpi\n      mload(0x40)\n      shl(0xe5, 0x461bcd)\n      dup2\n      mstore\n      0x04\n      add\n      tag_200\n      swap1\n      tag_224\n      jump\t// in\n    tag_279:\n      pop\n        /* \"contracts/mirrorseaMain.sol\":3407:3417  feePercent */\n      0x72\n        /* \"contracts/mirrorseaMain.sol\":3407:3424  feePercent = _val */\n      sstore\n        /* \"contracts/mirrorseaMain.sol\":3441:3445  true */\n      0x01\n      swap1\n        /* \"contracts/mirrorseaMain.sol\":3326:3452  function setFeePercent(uint256 _val) external onlyOwner returns (bool) {... */\n      jump\t// out\n        /* \"contracts/mirrorseaMain.sol\":1233:1254  IOracle public oracle */\n    tag_112:\n      and(sub(shl(0xa0, 0x01), 0x01), sload(0x69))\n      dup2\n      jump\t// out\n        /* \"contracts/mirrorseaMain.sol\":1756:1781  uint256 public feePercent */\n    tag_116:\n      sload(0x72)\n      dup2\n      jump\t// out\n        /* \"@openzeppelin/contracts-upgradeable/access/OwnableUpgradeable.sol\":1302:1387  function owner() public view virtual returns (address) {... */\n    tag_119:\n        /* \"@openzeppelin/contracts-upgradeable/access/OwnableUpgradeable.sol\":1374:1380  _owner */\n      and(sub(shl(0xa0, 0x01), 0x01), sload(0x33))\n        /* \"@openzeppelin/contracts-upgradeable/access/OwnableUpgradeable.sol\":1302:1387  function owner() public view virtual returns (address) {... */\n      swap1\n      jump\t// out\n        /* \"contracts/mirrorseaMain.sol\":12979:13532  function forcedLiquidation(... */\n    tag_123:\n        /* \"contracts/mirrorseaMain.sol\":3233:3243  msg.sender */\n      caller\n        /* \"contracts/mirrorseaMain.sol\":13210:13214  bool */\n      0x00\n        /* \"contracts/mirrorseaMain.sol\":3224:3244  executor[msg.sender] */\n      swap1\n      dup2\n      mstore\n        /* \"contracts/mirrorseaMain.sol\":3224:3232  executor */\n      0x65\n        /* \"contracts/mirrorseaMain.sol\":3224:3244  executor[msg.sender] */\n      0x20\n      mstore\n      0x40\n      dup2\n      keccak256\n      sload\n      0xff\n      and\n        /* \"contracts/mirrorseaMain.sol\":3216:3285  require(executor[msg.sender], \"executor: caller is not the executor\") */\n      tag_284\n      jumpi\n      mload(0x40)\n      shl(0xe5, 0x461bcd)\n      dup2\n      mstore\n      0x04\n      add\n      tag_200\n      swap1\n      tag_229\n      jump\t// in\n    tag_284:\n        /* \"contracts/mirrorseaMain.sol\":13226:13249  OrderInfo storage order */\n      0x00\n        /* \"contracts/mirrorseaMain.sol\":13252:13267  _orderInfo[_id] */\n      dup7\n      dup2\n      mstore\n        /* \"contracts/mirrorseaMain.sol\":13252:13262  _orderInfo */\n      0x6a\n        /* \"contracts/mirrorseaMain.sol\":13252:13267  _orderInfo[_id] */\n      0x20\n      mstore\n      0x40\n      swap1\n      keccak256\n        /* \"contracts/mirrorseaMain.sol\":13296:13525  _closePosition(... */\n      tag_267\n        /* \"contracts/mirrorseaMain.sol\":13328:13340  _marketState */\n      dup9\n        /* \"contracts/mirrorseaMain.sol\":13252:13267  _orderInfo[_id] */\n      dup3\n        /* \"contracts/mirrorseaMain.sol\":13381:13382  4 */\n      0x04\n        /* \"contracts/mirrorseaMain.sol\":13263:13266  _id */\n      dup11\n        /* \"contracts/mirrorseaMain.sol\":13421:13431  _timestamp */\n      dup11\n        /* \"contracts/mirrorseaMain.sol\":13449:13457  _symbols */\n      dup11\n        /* \"contracts/mirrorseaMain.sol\":13475:13483  _price18 */\n      dup11\n        /* \"contracts/mirrorseaMain.sol\":13501:13511  _signature */\n      dup11\n        /* \"contracts/mirrorseaMain.sol\":13296:13310  _closePosition */\n      tag_246\n        /* \"contracts/mirrorseaMain.sol\":13296:13525  _closePosition(... */\n      jump\t// in\n        /* \"contracts/mirrorseaMain.sol\":14865:16618  function adjustPosition(... */\n    tag_128:\n        /* \"contracts/mirrorseaMain.sol\":15111:15115  bool */\n      0x00\n        /* \"contracts/mirrorseaMain.sol\":15153:15168  _orderInfo[_id] */\n      dup7\n      dup2\n      mstore\n        /* \"contracts/mirrorseaMain.sol\":15153:15163  _orderInfo */\n      0x6a\n        /* \"contracts/mirrorseaMain.sol\":15153:15168  _orderInfo[_id] */\n      0x20\n      mstore\n      0x40\n      dup2\n      keccak256\n        /* \"contracts/mirrorseaMain.sol\":15186:15196  order.user */\n      dup1\n      sload\n      sub(shl(0xa0, 0x01), 0x01)\n      and\n        /* \"contracts/mirrorseaMain.sol\":15178:15235  require(order.user != address(0), \"order does not exist\") */\n      tag_289\n      jumpi\n      mload(0x40)\n      shl(0xe5, 0x461bcd)\n      dup2\n      mstore\n      0x04\n      add\n      tag_200\n      swap1\n      tag_291\n      jump\t// in\n    tag_289:\n        /* \"contracts/mirrorseaMain.sol\":15267:15268  2 */\n      0x02\n        /* \"contracts/mirrorseaMain.sol\":15253:15258  order */\n      dup2\n        /* \"contracts/mirrorseaMain.sol\":15253:15264  order.state */\n      0x03\n      add\n      sload\n        /* \"contracts/mirrorseaMain.sol\":15253:15268  order.state < 2 */\n      lt\n        /* \"contracts/mirrorseaMain.sol\":15245:15282  require(order.state < 2, \"state err\") */\n      tag_292\n      jumpi\n      mload(0x40)\n      shl(0xe5, 0x461bcd)\n      dup2\n      mstore\n      0x04\n      add\n      tag_200\n      swap1\n      tag_294\n      jump\t// in\n    tag_292:\n        /* \"contracts/mirrorseaMain.sol\":15313:15319  oracle */\n      sload(0x69)\n        /* \"contracts/mirrorseaMain.sol\":15313:15478  oracle.getkey(... */\n      mload(0x40)\n      shl(0xe1, 0x11cdc9d9)\n      dup2\n      mstore\n      sub(shl(0xa0, 0x01), 0x01)\n        /* \"contracts/mirrorseaMain.sol\":15313:15319  oracle */\n      swap1\n      swap2\n      and\n      swap1\n        /* \"contracts/mirrorseaMain.sol\":15313:15326  oracle.getkey */\n      0x239b93b2\n      swap1\n        /* \"contracts/mirrorseaMain.sol\":15313:15478  oracle.getkey(... */\n      tag_295\n      swap1\n        /* \"contracts/mirrorseaMain.sol\":15344:15356  _marketState */\n      dup13\n      swap1\n        /* \"contracts/mirrorseaMain.sol\":15374:15382  _price18 */\n      dup10\n      swap1\n        /* \"contracts/mirrorseaMain.sol\":15400:15410  _timestamp */\n      dup13\n      swap1\n        /* \"contracts/mirrorseaMain.sol\":15428:15436  _symbols */\n      dup13\n      swap1\n        /* \"contracts/mirrorseaMain.sol\":15454:15464  _signature */\n      dup12\n      swap1\n        /* \"contracts/mirrorseaMain.sol\":15313:15478  oracle.getkey(... */\n      0x04\n      add\n      tag_296\n      jump\t// in\n    tag_295:\n      0x20\n      mload(0x40)\n      dup1\n      dup4\n      sub\n      dup2\n      dup7\n      dup1\n      extcodesize\n      iszero\n      dup1\n      iszero\n      tag_297\n      jumpi\n      0x00\n      dup1\n      revert\n    tag_297:\n      pop\n      gas\n      staticcall\n      iszero\n      dup1\n      iszero\n      tag_299\n      jumpi\n      returndatasize\n      0x00\n      dup1\n      returndatacopy\n      revert(0x00, returndatasize)\n    tag_299:\n      pop\n      pop\n      pop\n      pop\n      mload(0x40)\n      returndatasize\n      not(0x1f)\n      0x1f\n      dup3\n      add\n      and\n      dup3\n      add\n      dup1\n      0x40\n      mstore\n      pop\n      dup2\n      add\n      swap1\n      tag_300\n      swap2\n      swap1\n      tag_301\n      jump\t// in\n    tag_300:\n        /* \"contracts/mirrorseaMain.sol\":15292:15514  require(... */\n      tag_302\n      jumpi\n      mload(0x40)\n      shl(0xe5, 0x461bcd)\n      dup2\n      mstore\n      0x04\n      add\n      tag_200\n      swap1\n      tag_304\n      jump\t// in\n    tag_302:\n        /* \"contracts/mirrorseaMain.sol\":15532:15572  _isSolvent(_id, _price18, _adjustMargin) */\n      tag_305\n        /* \"contracts/mirrorseaMain.sol\":15543:15546  _id */\n      dup9\n        /* \"contracts/mirrorseaMain.sol\":15548:15556  _price18 */\n      dup7\n        /* \"contracts/mirrorseaMain.sol\":15558:15571  _adjustMargin */\n      dup6\n        /* \"contracts/mirrorseaMain.sol\":15532:15542  _isSolvent */\n      tag_238\n        /* \"contracts/mirrorseaMain.sol\":15532:15572  _isSolvent(_id, _price18, _adjustMargin) */\n      jump\t// in\n    tag_305:\n        /* \"contracts/mirrorseaMain.sol\":15524:15593  require(_isSolvent(_id, _price18, _adjustMargin), \"User is bankrupt\") */\n      tag_306\n      jumpi\n      mload(0x40)\n      shl(0xe5, 0x461bcd)\n      dup2\n      mstore\n      0x04\n      add\n      tag_200\n      swap1\n      tag_308\n      jump\t// in\n    tag_306:\n        /* \"contracts/mirrorseaMain.sol\":15604:15615  uint256 fee */\n      0x00\n        /* \"contracts/mirrorseaMain.sol\":15618:15747  order... */\n      tag_309\n        /* \"contracts/mirrorseaMain.sol\":15742:15746  1e18 */\n      0x0de0b6b3a7640000\n        /* \"contracts/mirrorseaMain.sol\":15618:15724  order... */\n      tag_311\n        /* \"contracts/mirrorseaMain.sol\":15714:15723  PRECISION */\n      sload(0x73)\n        /* \"contracts/mirrorseaMain.sol\":15618:15696  order... */\n      tag_311\n        /* \"contracts/mirrorseaMain.sol\":15685:15695  feePercent */\n      sload(0x72)\n        /* \"contracts/mirrorseaMain.sol\":15618:15667  order... */\n      tag_312\n        /* \"contracts/mirrorseaMain.sol\":15658:15666  _price18 */\n      dup13\n        /* \"contracts/mirrorseaMain.sol\":15618:15623  order */\n      dup10\n        /* \"contracts/mirrorseaMain.sol\":15618:15640  order... */\n      0x09\n      add\n      sload\n        /* \"contracts/mirrorseaMain.sol\":15618:15657  order... */\n      tag_191\n      swap1\n        /* \"contracts/mirrorseaMain.sol\":15618:15667  order... */\n      swap2\n      swap1\n      0xffffffff\n      and\n      jump\t// in\n    tag_312:\n        /* \"contracts/mirrorseaMain.sol\":15618:15684  order... */\n      swap1\n      tag_191\n        /* \"contracts/mirrorseaMain.sol\":15618:15696  order... */\n      jump\t// in\n    tag_311:\n        /* \"contracts/mirrorseaMain.sol\":15618:15713  order... */\n      swap1\n      tag_313\n        /* \"contracts/mirrorseaMain.sol\":15618:15724  order... */\n      jump\t// in\n        /* \"contracts/mirrorseaMain.sol\":15618:15747  order... */\n    tag_309:\n        /* \"contracts/mirrorseaMain.sol\":15604:15747  uint256 fee = order... */\n      swap1\n      pop\n        /* \"contracts/mirrorseaMain.sol\":15757:15769  uint256 earn */\n      0x00\n        /* \"contracts/mirrorseaMain.sol\":15772:15877  (_price18.mul(order.amt).div(1e18)).sub(... */\n      tag_314\n        /* \"contracts/mirrorseaMain.sol\":15825:15867  order.openPrice18.mul(order.amt).div(1e18) */\n      tag_315\n        /* \"contracts/mirrorseaMain.sol\":15862:15866  1e18 */\n      0x0de0b6b3a7640000\n        /* \"contracts/mirrorseaMain.sol\":15825:15857  order.openPrice18.mul(order.amt) */\n      tag_311\n        /* \"contracts/mirrorseaMain.sol\":15847:15852  order */\n      dup7\n        /* \"contracts/mirrorseaMain.sol\":15847:15856  order.amt */\n      0x09\n      add\n      sload\n        /* \"contracts/mirrorseaMain.sol\":15825:15830  order */\n      dup8\n        /* \"contracts/mirrorseaMain.sol\":15825:15842  order.openPrice18 */\n      0x05\n      add\n      sload\n        /* \"contracts/mirrorseaMain.sol\":15825:15846  order.openPrice18.mul */\n      tag_191\n      swap1\n        /* \"contracts/mirrorseaMain.sol\":15825:15857  order.openPrice18.mul(order.amt) */\n      swap2\n      swap1\n      0xffffffff\n      and\n      jump\t// in\n        /* \"contracts/mirrorseaMain.sol\":15825:15867  order.openPrice18.mul(order.amt).div(1e18) */\n    tag_315:\n        /* \"contracts/mirrorseaMain.sol\":15773:15806  _price18.mul(order.amt).div(1e18) */\n      tag_190\n        /* \"contracts/mirrorseaMain.sol\":15801:15805  1e18 */\n      0x0de0b6b3a7640000\n        /* \"contracts/mirrorseaMain.sol\":15773:15796  _price18.mul(order.amt) */\n      tag_311\n        /* \"contracts/mirrorseaMain.sol\":15786:15791  order */\n      dup8\n        /* \"contracts/mirrorseaMain.sol\":15786:15795  order.amt */\n      0x09\n      add\n      sload\n        /* \"contracts/mirrorseaMain.sol\":15773:15781  _price18 */\n      dup13\n        /* \"contracts/mirrorseaMain.sol\":15773:15785  _price18.mul */\n      tag_191\n      swap1\n        /* \"contracts/mirrorseaMain.sol\":15773:15796  _price18.mul(order.amt) */\n      swap2\n      swap1\n      0xffffffff\n      and\n      jump\t// in\n        /* \"contracts/mirrorseaMain.sol\":15772:15877  (_price18.mul(order.amt).div(1e18)).sub(... */\n    tag_314:\n        /* \"contracts/mirrorseaMain.sol\":15757:15877  uint256 earn = (_price18.mul(order.amt).div(1e18)).sub(... */\n      swap1\n      pop\n        /* \"contracts/mirrorseaMain.sol\":15887:15904  uint256 nowMargin */\n      0x00\n        /* \"contracts/mirrorseaMain.sol\":15907:15929  order.margin.add(earn) */\n      tag_319\n        /* \"contracts/mirrorseaMain.sol\":15924:15928  earn */\n      dup3\n        /* \"contracts/mirrorseaMain.sol\":15907:15912  order */\n      dup6\n        /* \"contracts/mirrorseaMain.sol\":15907:15919  order.margin */\n      0x0a\n      add\n      sload\n        /* \"contracts/mirrorseaMain.sol\":15907:15923  order.margin.add */\n      tag_320\n      swap1\n        /* \"contracts/mirrorseaMain.sol\":15907:15929  order.margin.add(earn) */\n      swap2\n      swap1\n      0xffffffff\n      and\n      jump\t// in\n    tag_319:\n        /* \"contracts/mirrorseaMain.sol\":15887:15929  uint256 nowMargin = order.margin.add(earn) */\n      swap1\n      pop\n        /* \"contracts/mirrorseaMain.sol\":15939:15957  uint256 diffMargin */\n      0x00\n        /* \"contracts/mirrorseaMain.sol\":15887:15929  uint256 nowMargin = order.margin.add(earn) */\n      dup2\n        /* \"contracts/mirrorseaMain.sol\":15971:15993  _adjustMargin.sub(fee) */\n      tag_321\n        /* \"contracts/mirrorseaMain.sol\":15971:15984  _adjustMargin */\n      dup9\n        /* \"contracts/mirrorseaMain.sol\":15989:15992  fee */\n      dup7\n        /* \"contracts/mirrorseaMain.sol\":15971:15988  _adjustMargin.sub */\n      tag_192\n        /* \"contracts/mirrorseaMain.sol\":15971:15993  _adjustMargin.sub(fee) */\n      jump\t// in\n    tag_321:\n        /* \"contracts/mirrorseaMain.sol\":15971:16005  _adjustMargin.sub(fee) > nowMargin */\n      gt\n        /* \"contracts/mirrorseaMain.sol\":15967:16346  if (_adjustMargin.sub(fee) > nowMargin) {... */\n      iszero\n      tag_322\n      jumpi\n        /* \"contracts/mirrorseaMain.sol\":16034:16071  _adjustMargin.sub(fee).sub(nowMargin) */\n      tag_323\n        /* \"contracts/mirrorseaMain.sol\":16061:16070  nowMargin */\n      dup3\n        /* \"contracts/mirrorseaMain.sol\":16034:16056  _adjustMargin.sub(fee) */\n      tag_190\n        /* \"contracts/mirrorseaMain.sol\":16034:16047  _adjustMargin */\n      dup10\n        /* \"contracts/mirrorseaMain.sol\":16052:16055  fee */\n      dup8\n        /* \"contracts/mirrorseaMain.sol\":16034:16051  _adjustMargin.sub */\n      tag_192\n        /* \"contracts/mirrorseaMain.sol\":16034:16056  _adjustMargin.sub(fee) */\n      jump\t// in\n        /* \"contracts/mirrorseaMain.sol\":16034:16071  _adjustMargin.sub(fee).sub(nowMargin) */\n    tag_323:\n        /* \"contracts/mirrorseaMain.sol\":16085:16088  usc */\n      sload(0x67)\n        /* \"contracts/mirrorseaMain.sol\":16021:16071  diffMargin = _adjustMargin.sub(fee).sub(nowMargin) */\n      swap1\n      swap2\n      pop\n        /* \"contracts/mirrorseaMain.sol\":16085:16144  usc.safeTransferFrom(msg.sender, address(this), diffMargin) */\n      tag_325\n      swap1\n      sub(shl(0xa0, 0x01), 0x01)\n        /* \"contracts/mirrorseaMain.sol\":16085:16088  usc */\n      and\n        /* \"contracts/mirrorseaMain.sol\":16106:16116  msg.sender */\n      caller\n        /* \"contracts/mirrorseaMain.sol\":16126:16130  this */\n      address\n        /* \"contracts/mirrorseaMain.sol\":16021:16071  diffMargin = _adjustMargin.sub(fee).sub(nowMargin) */\n      dup5\n        /* \"contracts/mirrorseaMain.sol\":16085:16105  usc.safeTransferFrom */\n      tag_326\n        /* \"contracts/mirrorseaMain.sol\":16085:16144  usc.safeTransferFrom(msg.sender, address(this), diffMargin) */\n      jump\t// in\n    tag_325:\n        /* \"contracts/mirrorseaMain.sol\":16171:16174  usc */\n      sload(0x67)\n        /* \"contracts/mirrorseaMain.sol\":16158:16193  IUSC(address(usc)).burn(diffMargin) */\n      mload(0x40)\n      shl(0xe3, 0x0852cd8d)\n      dup2\n      mstore\n      sub(shl(0xa0, 0x01), 0x01)\n        /* \"contracts/mirrorseaMain.sol\":16171:16174  usc */\n      swap1\n      swap2\n      and\n      swap1\n        /* \"contracts/mirrorseaMain.sol\":16158:16181  IUSC(address(usc)).burn */\n      0x42966c68\n      swap1\n        /* \"contracts/mirrorseaMain.sol\":16158:16193  IUSC(address(usc)).burn(diffMargin) */\n      tag_327\n      swap1\n        /* \"contracts/mirrorseaMain.sol\":16182:16192  diffMargin */\n      dup5\n      swap1\n        /* \"contracts/mirrorseaMain.sol\":16158:16193  IUSC(address(usc)).burn(diffMargin) */\n      0x04\n      add\n      tag_53\n      jump\t// in\n    tag_327:\n      0x00\n      mload(0x40)\n      dup1\n      dup4\n      sub\n      dup2\n      0x00\n      dup8\n      dup1\n      extcodesize\n      iszero\n      dup1\n      iszero\n      tag_328\n      jumpi\n      0x00\n      dup1\n      revert\n    tag_328:\n      pop\n      gas\n      call\n      iszero\n      dup1\n      iszero\n      tag_330\n      jumpi\n      returndatasize\n      0x00\n      dup1\n      returndatacopy\n      revert(0x00, returndatasize)\n    tag_330:\n      pop\n      pop\n      pop\n      pop\n        /* \"contracts/mirrorseaMain.sol\":15967:16346  if (_adjustMargin.sub(fee) > nowMargin) {... */\n      jump(tag_331)\n    tag_322:\n        /* \"contracts/mirrorseaMain.sol\":16237:16274  nowMargin.sub(_adjustMargin).sub(fee) */\n      tag_332\n        /* \"contracts/mirrorseaMain.sol\":16270:16273  fee */\n      dup5\n        /* \"contracts/mirrorseaMain.sol\":16237:16265  nowMargin.sub(_adjustMargin) */\n      tag_190\n        /* \"contracts/mirrorseaMain.sol\":16237:16246  nowMargin */\n      dup5\n        /* \"contracts/mirrorseaMain.sol\":16251:16264  _adjustMargin */\n      dup11\n        /* \"contracts/mirrorseaMain.sol\":16237:16250  nowMargin.sub */\n      tag_192\n        /* \"contracts/mirrorseaMain.sol\":16237:16265  nowMargin.sub(_adjustMargin) */\n      jump\t// in\n        /* \"contracts/mirrorseaMain.sol\":16237:16274  nowMargin.sub(_adjustMargin).sub(fee) */\n    tag_332:\n        /* \"contracts/mirrorseaMain.sol\":16301:16304  usc */\n      sload(0x67)\n        /* \"contracts/mirrorseaMain.sol\":16312:16322  order.user */\n      dup7\n      sload\n        /* \"contracts/mirrorseaMain.sol\":16288:16335  IUSC(address(usc)).mint(order.user, diffMargin) */\n      mload(0x40)\n      shl(0xe0, 0x40c10f19)\n      dup2\n      mstore\n        /* \"contracts/mirrorseaMain.sol\":16224:16274  diffMargin = nowMargin.sub(_adjustMargin).sub(fee) */\n      swap3\n      swap4\n      pop\n      sub(shl(0xa0, 0x01), 0x01)\n        /* \"contracts/mirrorseaMain.sol\":16301:16304  usc */\n      swap2\n      dup3\n      and\n      swap3\n        /* \"contracts/mirrorseaMain.sol\":16288:16311  IUSC(address(usc)).mint */\n      0x40c10f19\n      swap3\n        /* \"contracts/mirrorseaMain.sol\":16288:16335  IUSC(address(usc)).mint(order.user, diffMargin) */\n      tag_334\n      swap3\n        /* \"contracts/mirrorseaMain.sol\":16312:16322  order.user */\n      and\n      swap1\n        /* \"contracts/mirrorseaMain.sol\":16224:16274  diffMargin = nowMargin.sub(_adjustMargin).sub(fee) */\n      dup6\n      swap1\n        /* \"contracts/mirrorseaMain.sol\":16288:16335  IUSC(address(usc)).mint(order.user, diffMargin) */\n      0x04\n      add\n      tag_335\n      jump\t// in\n    tag_334:\n      0x20\n      mload(0x40)\n      dup1\n      dup4\n      sub\n      dup2\n      0x00\n      dup8\n      dup1\n      extcodesize\n      iszero\n      dup1\n      iszero\n      tag_336\n      jumpi\n      0x00\n      dup1\n      revert\n    tag_336:\n      pop\n      gas\n      call\n      iszero\n      dup1\n      iszero\n      tag_338\n      jumpi\n      returndatasize\n      0x00\n      dup1\n      returndatacopy\n      revert(0x00, returndatasize)\n    tag_338:\n      pop\n      pop\n      pop\n      pop\n      mload(0x40)\n      returndatasize\n      not(0x1f)\n      0x1f\n      dup3\n      add\n      and\n      dup3\n      add\n      dup1\n      0x40\n      mstore\n      pop\n      dup2\n      add\n      swap1\n      tag_339\n      swap2\n      swap1\n      tag_301\n      jump\t// in\n    tag_339:\n      pop\n        /* \"contracts/mirrorseaMain.sol\":15967:16346  if (_adjustMargin.sub(fee) > nowMargin) {... */\n    tag_331:\n      pop\n        /* \"contracts/mirrorseaMain.sol\":16607:16611  true */\n      0x01\n      swap13\n        /* \"contracts/mirrorseaMain.sol\":14865:16618  function adjustPosition(... */\n      swap12\n      pop\n      pop\n      pop\n      pop\n      pop\n      pop\n      pop\n      pop\n      pop\n      pop\n      pop\n      pop\n      jump\t// out\n        /* \"contracts/mirrorseaMain.sol\":1787:1811  uint256 public PRECISION */\n    tag_131:\n      sload(0x73)\n      dup2\n      jump\t// out\n        /* \"contracts/mirrorseaMain.sol\":2830:2993  function myCloseOrderIdListLength(address _user)... */\n    tag_135:\n      sub(shl(0xa0, 0x01), 0x01)\n        /* \"contracts/mirrorseaMain.sol\":2954:2979  myCloseOrderIdList[_user] */\n      and\n        /* \"contracts/mirrorseaMain.sol\":2924:2931  uint256 */\n      0x00\n        /* \"contracts/mirrorseaMain.sol\":2954:2979  myCloseOrderIdList[_user] */\n      swap1\n      dup2\n      mstore\n        /* \"contracts/mirrorseaMain.sol\":2954:2972  myCloseOrderIdList */\n      0x70\n        /* \"contracts/mirrorseaMain.sol\":2954:2979  myCloseOrderIdList[_user] */\n      0x20\n      mstore\n      0x40\n      swap1\n      keccak256\n        /* \"contracts/mirrorseaMain.sol\":2954:2986  myCloseOrderIdList[_user].length */\n      sload\n      swap1\n        /* \"contracts/mirrorseaMain.sol\":2830:2993  function myCloseOrderIdListLength(address _user)... */\n      jump\t// out\n        /* \"contracts/mirrorseaMain.sol\":1448:1502  mapping(address => uint256[]) public myOpenOrderIdList */\n    tag_139:\n      mstore(0x20, 0x6e)\n      dup2\n      0x00\n      mstore\n      keccak256(0x00, 0x40)\n      dup2\n      dup2\n      sload\n      dup2\n      lt\n      tag_341\n      jumpi\n      0x00\n      dup1\n      revert\n    tag_341:\n      swap1\n      0x00\n      mstore\n      keccak256(0x00, 0x20)\n      add\n      0x00\n      swap2\n      pop\n      swap2\n      pop\n      pop\n      sload\n      dup2\n      jump\t// out\n        /* \"contracts/mirrorseaMain.sol\":5522:7373  function openPosition(... */\n    tag_144:\n        /* \"contracts/mirrorseaMain.sol\":5865:5875  OrderIndex */\n      sload(0x6b)\n        /* \"contracts/mirrorseaMain.sol\":5812:5816  bool */\n      0x00\n        /* \"contracts/mirrorseaMain.sol\":5854:5876  _orderInfo[OrderIndex] */\n      swap1\n      dup2\n      mstore\n        /* \"contracts/mirrorseaMain.sol\":5854:5864  _orderInfo */\n      0x6a\n        /* \"contracts/mirrorseaMain.sol\":5854:5876  _orderInfo[OrderIndex] */\n      0x20\n      mstore\n      0x40\n      dup2\n      keccak256\n        /* \"contracts/mirrorseaMain.sol\":5894:5906  _margin != 0 */\n      dup10\n        /* \"contracts/mirrorseaMain.sol\":5886:5925  require(_margin != 0, \"margin no good\") */\n      tag_344\n      jumpi\n      mload(0x40)\n      shl(0xe5, 0x461bcd)\n      dup2\n      mstore\n      0x04\n      add\n      tag_200\n      swap1\n      tag_346\n      jump\t// in\n    tag_344:\n        /* \"contracts/mirrorseaMain.sol\":5943:5954  order.state */\n      0x03\n      dup2\n      add\n      sload\n        /* \"contracts/mirrorseaMain.sol\":5943:5959  order.state == 0 */\n      iszero\n        /* \"contracts/mirrorseaMain.sol\":5935:5973  require(order.state == 0, \"state err\") */\n      tag_347\n      jumpi\n      mload(0x40)\n      shl(0xe5, 0x461bcd)\n      dup2\n      mstore\n      0x04\n      add\n      tag_200\n      swap1\n      tag_294\n      jump\t// in\n    tag_347:\n        /* \"contracts/mirrorseaMain.sol\":6004:6010  oracle */\n      sload(0x69)\n        /* \"contracts/mirrorseaMain.sol\":6004:6169  oracle.getkey(... */\n      mload(0x40)\n      shl(0xe1, 0x11cdc9d9)\n      dup2\n      mstore\n      sub(shl(0xa0, 0x01), 0x01)\n        /* \"contracts/mirrorseaMain.sol\":6004:6010  oracle */\n      swap1\n      swap2\n      and\n      swap1\n        /* \"contracts/mirrorseaMain.sol\":6004:6017  oracle.getkey */\n      0x239b93b2\n      swap1\n        /* \"contracts/mirrorseaMain.sol\":6004:6169  oracle.getkey(... */\n      tag_349\n      swap1\n        /* \"contracts/mirrorseaMain.sol\":6035:6047  _marketState */\n      dup15\n      swap1\n        /* \"contracts/mirrorseaMain.sol\":6065:6073  _price18 */\n      dup10\n      swap1\n        /* \"contracts/mirrorseaMain.sol\":6091:6101  _timestamp */\n      dup15\n      swap1\n        /* \"contracts/mirrorseaMain.sol\":6119:6127  _symbols */\n      dup13\n      swap1\n        /* \"contracts/mirrorseaMain.sol\":6145:6155  _signature */\n      dup11\n      swap1\n        /* \"contracts/mirrorseaMain.sol\":6004:6169  oracle.getkey(... */\n      0x04\n      add\n      tag_296\n      jump\t// in\n    tag_349:\n      0x20\n      mload(0x40)\n      dup1\n      dup4\n      sub\n      dup2\n      dup7\n      dup1\n      extcodesize\n      iszero\n      dup1\n      iszero\n      tag_350\n      jumpi\n      0x00\n      dup1\n      revert\n    tag_350:\n      pop\n      gas\n      staticcall\n      iszero\n      dup1\n      iszero\n      tag_352\n      jumpi\n      returndatasize\n      0x00\n      dup1\n      returndatacopy\n      revert(0x00, returndatasize)\n    tag_352:\n      pop\n      pop\n      pop\n      pop\n      mload(0x40)\n      returndatasize\n      not(0x1f)\n      0x1f\n      dup3\n      add\n      and\n      dup3\n      add\n      dup1\n      0x40\n      mstore\n      pop\n      dup2\n      add\n      swap1\n      tag_353\n      swap2\n      swap1\n      tag_301\n      jump\t// in\n    tag_353:\n        /* \"contracts/mirrorseaMain.sol\":5983:6205  require(... */\n      tag_354\n      jumpi\n      mload(0x40)\n      shl(0xe5, 0x461bcd)\n      dup2\n      mstore\n      0x04\n      add\n      tag_200\n      swap1\n      tag_304\n      jump\t// in\n    tag_354:\n        /* \"contracts/mirrorseaMain.sol\":6233:6239  minVal */\n      sload(0x74)\n        /* \"contracts/mirrorseaMain.sol\":6223:6230  _margin */\n      dup11\n        /* \"contracts/mirrorseaMain.sol\":6223:6239  _margin > minVal */\n      gt\n        /* \"contracts/mirrorseaMain.sol\":6215:6279  require(_margin > minVal, \"The transaction amount is too small\") */\n      tag_356\n      jumpi\n      mload(0x40)\n      shl(0xe5, 0x461bcd)\n      dup2\n      mstore\n      0x04\n      add\n      tag_200\n      swap1\n      tag_358\n      jump\t// in\n    tag_356:\n        /* \"contracts/mirrorseaMain.sol\":6290:6293  usc */\n      sload(0x67)\n        /* \"contracts/mirrorseaMain.sol\":6290:6346  usc.safeTransferFrom(msg.sender, address(this), _margin) */\n      tag_359\n      swap1\n      sub(shl(0xa0, 0x01), 0x01)\n        /* \"contracts/mirrorseaMain.sol\":6290:6293  usc */\n      and\n        /* \"contracts/mirrorseaMain.sol\":6311:6321  msg.sender */\n      caller\n        /* \"contracts/mirrorseaMain.sol\":6331:6335  this */\n      address\n        /* \"contracts/mirrorseaMain.sol\":6338:6345  _margin */\n      dup14\n        /* \"contracts/mirrorseaMain.sol\":6290:6310  usc.safeTransferFrom */\n      tag_326\n        /* \"contracts/mirrorseaMain.sol\":6290:6346  usc.safeTransferFrom(msg.sender, address(this), _margin) */\n      jump\t// in\n    tag_359:\n        /* \"contracts/mirrorseaMain.sol\":6379:6382  usc */\n      sload(0x67)\n        /* \"contracts/mirrorseaMain.sol\":6379:6407  usc.balanceOf(address(this)) */\n      mload(0x40)\n      shl(0xe0, 0x70a08231)\n      dup2\n      mstore\n        /* \"contracts/mirrorseaMain.sol\":6356:6376  uint256 uscBalanceOf */\n      0x00\n      swap2\n      sub(shl(0xa0, 0x01), 0x01)\n        /* \"contracts/mirrorseaMain.sol\":6379:6382  usc */\n      and\n      swap1\n        /* \"contracts/mirrorseaMain.sol\":6379:6392  usc.balanceOf */\n      0x70a08231\n      swap1\n        /* \"contracts/mirrorseaMain.sol\":6379:6407  usc.balanceOf(address(this)) */\n      tag_360\n      swap1\n        /* \"contracts/mirrorseaMain.sol\":6401:6405  this */\n      address\n      swap1\n        /* \"contracts/mirrorseaMain.sol\":6379:6407  usc.balanceOf(address(this)) */\n      0x04\n      add\n      tag_67\n      jump\t// in\n    tag_360:\n      0x20\n      mload(0x40)\n      dup1\n      dup4\n      sub\n      dup2\n      dup7\n      dup1\n      extcodesize\n      iszero\n      dup1\n      iszero\n      tag_361\n      jumpi\n      0x00\n      dup1\n      revert\n    tag_361:\n      pop\n      gas\n      staticcall\n      iszero\n      dup1\n      iszero\n      tag_363\n      jumpi\n      returndatasize\n      0x00\n      dup1\n      returndatacopy\n      revert(0x00, returndatasize)\n    tag_363:\n      pop\n      pop\n      pop\n      pop\n      mload(0x40)\n      returndatasize\n      not(0x1f)\n      0x1f\n      dup3\n      add\n      and\n      dup3\n      add\n      dup1\n      0x40\n      mstore\n      pop\n      dup2\n      add\n      swap1\n      tag_364\n      swap2\n      swap1\n      tag_365\n      jump\t// in\n    tag_364:\n        /* \"contracts/mirrorseaMain.sol\":6356:6407  uint256 uscBalanceOf = usc.balanceOf(address(this)) */\n      swap1\n      pop\n        /* \"contracts/mirrorseaMain.sol\":6417:6428  uint256 fee */\n      0x00\n        /* \"contracts/mirrorseaMain.sol\":6431:6474  uscBalanceOf.mul(feePercent).div(PRECISION) */\n      tag_366\n        /* \"contracts/mirrorseaMain.sol\":6464:6473  PRECISION */\n      sload(0x73)\n        /* \"contracts/mirrorseaMain.sol\":6431:6459  uscBalanceOf.mul(feePercent) */\n      tag_311\n        /* \"contracts/mirrorseaMain.sol\":6448:6458  feePercent */\n      sload(0x72)\n        /* \"contracts/mirrorseaMain.sol\":6431:6443  uscBalanceOf */\n      dup6\n        /* \"contracts/mirrorseaMain.sol\":6431:6447  uscBalanceOf.mul */\n      tag_191\n      swap1\n        /* \"contracts/mirrorseaMain.sol\":6431:6459  uscBalanceOf.mul(feePercent) */\n      swap2\n      swap1\n      0xffffffff\n      and\n      jump\t// in\n        /* \"contracts/mirrorseaMain.sol\":6431:6474  uscBalanceOf.mul(feePercent).div(PRECISION) */\n    tag_366:\n        /* \"contracts/mirrorseaMain.sol\":6509:6520  helperLogic */\n      sload(0x68)\n        /* \"contracts/mirrorseaMain.sol\":6484:6487  usc */\n      sload(0x67)\n        /* \"contracts/mirrorseaMain.sol\":6417:6474  uint256 fee = uscBalanceOf.mul(feePercent).div(PRECISION) */\n      swap2\n      swap3\n      pop\n        /* \"contracts/mirrorseaMain.sol\":6484:6527  usc.safeTransfer(address(helperLogic), fee) */\n      tag_368\n      swap2\n      sub(shl(0xa0, 0x01), 0x01)\n        /* \"contracts/mirrorseaMain.sol\":6484:6487  usc */\n      swap1\n      dup2\n      and\n      swap2\n        /* \"contracts/mirrorseaMain.sol\":6509:6520  helperLogic */\n      and\n        /* \"contracts/mirrorseaMain.sol\":6417:6474  uint256 fee = uscBalanceOf.mul(feePercent).div(PRECISION) */\n      dup4\n        /* \"contracts/mirrorseaMain.sol\":6484:6500  usc.safeTransfer */\n      tag_369\n        /* \"contracts/mirrorseaMain.sol\":6484:6527  usc.safeTransfer(address(helperLogic), fee) */\n      jump\t// in\n    tag_368:\n        /* \"contracts/mirrorseaMain.sol\":6537:6548  helperLogic */\n      0x68\n      0x00\n      swap1\n      sload\n      swap1\n      0x0100\n      exp\n      swap1\n      div\n      sub(shl(0xa0, 0x01), 0x01)\n      and\n      sub(shl(0xa0, 0x01), 0x01)\n        /* \"contracts/mirrorseaMain.sol\":6537:6563  helperLogic.jointExecution */\n      and\n      0xd10c06a2\n        /* \"contracts/mirrorseaMain.sol\":6537:6565  helperLogic.jointExecution() */\n      mload(0x40)\n      dup2\n      0xffffffff\n      and\n      0xe0\n      shl\n      dup2\n      mstore\n      0x04\n      add\n      0x20\n      mload(0x40)\n      dup1\n      dup4\n      sub\n      dup2\n      0x00\n      dup8\n      dup1\n      extcodesize\n      iszero\n      dup1\n      iszero\n      tag_370\n      jumpi\n      0x00\n      dup1\n      revert\n    tag_370:\n      pop\n      gas\n      call\n      iszero\n      dup1\n      iszero\n      tag_372\n      jumpi\n      returndatasize\n      0x00\n      dup1\n      returndatacopy\n      revert(0x00, returndatasize)\n    tag_372:\n      pop\n      pop\n      pop\n      pop\n      mload(0x40)\n      returndatasize\n      not(0x1f)\n      0x1f\n      dup3\n      add\n      and\n      dup3\n      add\n      dup1\n      0x40\n      mstore\n      pop\n      dup2\n      add\n      swap1\n      tag_373\n      swap2\n      swap1\n      tag_301\n      jump\t// in\n    tag_373:\n      pop\n        /* \"contracts/mirrorseaMain.sol\":6588:6591  usc */\n      and(sub(shl(0xa0, 0x01), 0x01), sload(0x67))\n        /* \"contracts/mirrorseaMain.sol\":6575:6598  IUSC(address(usc)).burn */\n      0x42966c68\n        /* \"contracts/mirrorseaMain.sol\":6599:6620  uscBalanceOf.sub(fee) */\n      tag_374\n        /* \"contracts/mirrorseaMain.sol\":6599:6611  uscBalanceOf */\n      dup5\n        /* \"contracts/mirrorseaMain.sol\":6616:6619  fee */\n      dup5\n        /* \"contracts/mirrorseaMain.sol\":6599:6615  uscBalanceOf.sub */\n      tag_192\n        /* \"contracts/mirrorseaMain.sol\":6599:6620  uscBalanceOf.sub(fee) */\n      jump\t// in\n    tag_374:\n        /* \"contracts/mirrorseaMain.sol\":6575:6621  IUSC(address(usc)).burn(uscBalanceOf.sub(fee)) */\n      mload(0x40)\n      dup3\n      0xffffffff\n      and\n      0xe0\n      shl\n      dup2\n      mstore\n      0x04\n      add\n      tag_375\n      swap2\n      swap1\n      tag_53\n      jump\t// in\n    tag_375:\n      0x00\n      mload(0x40)\n      dup1\n      dup4\n      sub\n      dup2\n      0x00\n      dup8\n      dup1\n      extcodesize\n      iszero\n      dup1\n      iszero\n      tag_376\n      jumpi\n      0x00\n      dup1\n      revert\n    tag_376:\n      pop\n      gas\n      call\n      iszero\n      dup1\n      iszero\n      tag_378\n      jumpi\n      returndatasize\n      0x00\n      dup1\n      returndatacopy\n      revert(0x00, returndatasize)\n    tag_378:\n      pop\n      pop\n        /* \"contracts/mirrorseaMain.sol\":6653:6663  OrderIndex */\n      sload(0x6b)\n        /* \"contracts/mirrorseaMain.sol\":6632:6647  openOrderIdList */\n      0x6c\n        /* \"contracts/mirrorseaMain.sol\":6632:6664  openOrderIdList.push(OrderIndex) */\n      dup1\n      sload\n      0x01\n      dup2\n      dup2\n      add\n      dup4\n      sstore\n      0x00\n      dup4\n      swap1\n      mstore\n      0x2b4a51ab505fc96a0952efda2ba61bcd3078d4c02c39a186ec16f21883fbe016\n      swap1\n      swap2\n      add\n      swap3\n      swap1\n      swap3\n      sstore\n        /* \"contracts/mirrorseaMain.sol\":6710:6732  openOrderIdList.length */\n      sload\n        /* \"contracts/mirrorseaMain.sol\":6710:6739  openOrderIdList.length.sub(1) */\n      tag_380\n      swap4\n      pop\n        /* \"contracts/mirrorseaMain.sol\":6710:6732  openOrderIdList.length */\n      swap2\n      pop\n        /* \"contracts/mirrorseaMain.sol\":6710:6736  openOrderIdList.length.sub */\n      tag_192\n        /* \"contracts/mirrorseaMain.sol\":6710:6739  openOrderIdList.length.sub(1) */\n      jump\t// in\n    tag_380:\n        /* \"contracts/mirrorseaMain.sol\":6696:6706  OrderIndex */\n      0x6b\n      dup1\n      sload\n        /* \"contracts/mirrorseaMain.sol\":6674:6707  openOrderIdList_index[OrderIndex] */\n      0x00\n      swap1\n      dup2\n      mstore\n        /* \"contracts/mirrorseaMain.sol\":6674:6695  openOrderIdList_index */\n      0x6d\n        /* \"contracts/mirrorseaMain.sol\":6674:6707  openOrderIdList_index[OrderIndex] */\n      0x20\n      swap1\n      dup2\n      mstore\n      0x40\n      dup1\n      dup4\n      keccak256\n        /* \"contracts/mirrorseaMain.sol\":6674:6739  openOrderIdList_index[OrderIndex] = openOrderIdList.length.sub(1) */\n      swap5\n      swap1\n      swap5\n      sstore\n        /* \"contracts/mirrorseaMain.sol\":6768:6778  msg.sender */\n      caller\n        /* \"contracts/mirrorseaMain.sol\":6750:6779  myOpenOrderIdList[msg.sender] */\n      dup1\n      dup4\n      mstore\n        /* \"contracts/mirrorseaMain.sol\":6750:6767  myOpenOrderIdList */\n      0x6e\n        /* \"contracts/mirrorseaMain.sol\":6750:6779  myOpenOrderIdList[msg.sender] */\n      dup1\n      dup4\n      mstore\n      dup6\n      dup5\n      keccak256\n        /* \"contracts/mirrorseaMain.sol\":6785:6795  OrderIndex */\n      dup6\n      sload\n        /* \"contracts/mirrorseaMain.sol\":6750:6796  myOpenOrderIdList[msg.sender].push(OrderIndex) */\n      dup2\n      sload\n      0x01\n      dup2\n      dup2\n      add\n      dup5\n      sstore\n      dup4\n      dup9\n      mstore\n      dup7\n      dup9\n      keccak256\n      swap1\n      swap2\n      add\n      swap2\n      swap1\n      swap2\n      sstore\n        /* \"contracts/mirrorseaMain.sol\":6911:6921  OrderIndex */\n      swap6\n      sload\n        /* \"contracts/mirrorseaMain.sol\":6806:6841  myOpenOrderIdList_index[msg.sender] */\n      swap3\n      dup6\n      mstore\n        /* \"contracts/mirrorseaMain.sol\":6806:6829  myOpenOrderIdList_index */\n      0x6f\n        /* \"contracts/mirrorseaMain.sol\":6806:6841  myOpenOrderIdList_index[msg.sender] */\n      dup5\n      mstore\n      swap6\n      dup5\n      keccak256\n        /* \"contracts/mirrorseaMain.sol\":6855:6884  myOpenOrderIdList[msg.sender] */\n      swap3\n      mstore\n        /* \"contracts/mirrorseaMain.sol\":6855:6891  myOpenOrderIdList[msg.sender].length */\n      swap4\n      sload\n        /* \"contracts/mirrorseaMain.sol\":6806:6841  myOpenOrderIdList_index[msg.sender] */\n      swap1\n      swap3\n        /* \"contracts/mirrorseaMain.sol\":6855:6898  myOpenOrderIdList[msg.sender].length.sub(1) */\n      tag_382\n      swap2\n        /* \"contracts/mirrorseaMain.sol\":6855:6891  myOpenOrderIdList[msg.sender].length */\n      swap1\n        /* \"contracts/mirrorseaMain.sol\":6855:6895  myOpenOrderIdList[msg.sender].length.sub */\n      tag_192\n        /* \"contracts/mirrorseaMain.sol\":6855:6898  myOpenOrderIdList[msg.sender].length.sub(1) */\n      jump\t// in\n    tag_382:\n        /* \"contracts/mirrorseaMain.sol\":6806:6908  myOpenOrderIdList_index[msg.sender][... */\n      dup2\n      mstore\n      0x20\n      add\n      swap1\n      dup2\n      mstore\n      0x20\n      add\n      0x00\n      keccak256\n        /* \"contracts/mirrorseaMain.sol\":6806:6921  myOpenOrderIdList_index[msg.sender][... */\n      dup2\n      swap1\n      sstore\n      pop\n        /* \"contracts/mirrorseaMain.sol\":6932:6942  OrderIndex */\n      0x6b\n      0x00\n        /* \"contracts/mirrorseaMain.sol\":6932:6944  OrderIndex++ */\n      dup2\n      sload\n      dup1\n      swap3\n      swap2\n      swap1\n      tag_383\n      swap1\n      tag_213\n      jump\t// in\n    tag_383:\n      swap1\n      swap2\n      sstore\n      pop\n      pop\n        /* \"contracts/mirrorseaMain.sol\":6955:6978  order.user = msg.sender */\n      dup3\n      sload\n      not(sub(shl(0xa0, 0x01), 0x01))\n      and\n        /* \"contracts/mirrorseaMain.sol\":6968:6978  msg.sender */\n      caller\n        /* \"contracts/mirrorseaMain.sol\":6955:6978  order.user = msg.sender */\n      or\n      dup4\n      sstore\n      0x01\n        /* \"contracts/mirrorseaMain.sol\":6988:6999  order._type */\n      dup4\n      add\n        /* \"contracts/mirrorseaMain.sol\":6988:7007  order._type = _type */\n      dup10\n      swap1\n      sstore\n        /* \"contracts/mirrorseaMain.sol\":7017:7041  order.symbols = _symbols */\n      dup8\n      mload\n      tag_384\n      swap1\n        /* \"contracts/mirrorseaMain.sol\":7017:7030  order.symbols */\n      0x02\n      dup6\n      add\n      swap1\n        /* \"contracts/mirrorseaMain.sol\":7017:7041  order.symbols = _symbols */\n      0x20\n      dup12\n      add\n      swap1\n      tag_385\n      jump\t// in\n    tag_384:\n      pop\n        /* \"contracts/mirrorseaMain.sol\":7065:7066  1 */\n      0x01\n        /* \"contracts/mirrorseaMain.sol\":7051:7062  order.state */\n      0x03\n      dup5\n      add\n        /* \"contracts/mirrorseaMain.sol\":7051:7066  order.state = 1 */\n      sstore\n        /* \"contracts/mirrorseaMain.sol\":7152:7167  order.direction */\n      0x04\n      dup4\n      add\n        /* \"contracts/mirrorseaMain.sol\":7152:7180  order.direction = _direction */\n      dup11\n      swap1\n      sstore\n        /* \"contracts/mirrorseaMain.sol\":7207:7224  order.openPrice18 */\n      0x05\n      dup4\n      add\n        /* \"contracts/mirrorseaMain.sol\":7207:7235  order.openPrice18 = _price18 */\n      dup8\n      swap1\n      sstore\n        /* \"contracts/mirrorseaMain.sol\":7245:7259  order.openTime */\n      0x06\n      dup4\n      add\n        /* \"contracts/mirrorseaMain.sol\":7245:7272  order.openTime = _timestamp */\n      dup12\n      swap1\n      sstore\n        /* \"contracts/mirrorseaMain.sol\":7282:7291  order.amt */\n      0x09\n      dup4\n      add\n        /* \"contracts/mirrorseaMain.sol\":7282:7298  order.amt = _amt */\n      dup7\n      swap1\n      sstore\n        /* \"contracts/mirrorseaMain.sol\":7323:7344  uscBalanceOf.sub(fee) */\n      tag_386\n        /* \"contracts/mirrorseaMain.sol\":7323:7335  uscBalanceOf */\n      dup3\n        /* \"contracts/mirrorseaMain.sol\":7340:7343  fee */\n      dup3\n        /* \"contracts/mirrorseaMain.sol\":7323:7339  uscBalanceOf.sub */\n      tag_192\n        /* \"contracts/mirrorseaMain.sol\":7323:7344  uscBalanceOf.sub(fee) */\n      jump\t// in\n    tag_386:\n        /* \"contracts/mirrorseaMain.sol\":7308:7320  order.margin */\n      0x0a\n      swap1\n      swap4\n      add\n        /* \"contracts/mirrorseaMain.sol\":7308:7344  order.margin = uscBalanceOf.sub(fee) */\n      swap3\n      swap1\n      swap3\n      sstore\n      pop\n        /* \"contracts/mirrorseaMain.sol\":7362:7366  true */\n      0x01\n      swap12\n        /* \"contracts/mirrorseaMain.sol\":5522:7373  function openPosition(... */\n      swap11\n      pop\n      pop\n      pop\n      pop\n      pop\n      pop\n      pop\n      pop\n      pop\n      pop\n      pop\n      jump\t// out\n        /* \"contracts/mirrorseaMain.sol\":2663:2824  function myOpenOrderIdListLength(address _user)... */\n    tag_148:\n      sub(shl(0xa0, 0x01), 0x01)\n        /* \"contracts/mirrorseaMain.sol\":2786:2810  myOpenOrderIdList[_user] */\n      and\n        /* \"contracts/mirrorseaMain.sol\":2756:2763  uint256 */\n      0x00\n        /* \"contracts/mirrorseaMain.sol\":2786:2810  myOpenOrderIdList[_user] */\n      swap1\n      dup2\n      mstore\n        /* \"contracts/mirrorseaMain.sol\":2786:2803  myOpenOrderIdList */\n      0x6e\n        /* \"contracts/mirrorseaMain.sol\":2786:2810  myOpenOrderIdList[_user] */\n      0x20\n      mstore\n      0x40\n      swap1\n      keccak256\n        /* \"contracts/mirrorseaMain.sol\":2786:2817  myOpenOrderIdList[_user].length */\n      sload\n      swap1\n        /* \"contracts/mirrorseaMain.sol\":2663:2824  function myOpenOrderIdListLength(address _user)... */\n      jump\t// out\n        /* \"contracts/mirrorseaMain.sol\":1601:1656  mapping(address => uint256[]) public myCloseOrderIdList */\n    tag_152:\n      mstore(0x20, 0x70)\n      dup2\n      0x00\n      mstore\n      keccak256(0x00, 0x40)\n      dup2\n      dup2\n      sload\n      dup2\n      lt\n      tag_341\n      jumpi\n      0x00\n      dup1\n      revert\n        /* \"contracts/mirrorseaMain.sol\":1662:1749  mapping(address => mapping(uint256 => uint256))... */\n    tag_156:\n      0x71\n      0x20\n      swap1\n      dup2\n      mstore\n      0x00\n      swap3\n      dup4\n      mstore\n      0x40\n      dup1\n      dup5\n      keccak256\n      swap1\n      swap2\n      mstore\n      swap1\n      dup3\n      mstore\n      swap1\n      keccak256\n      sload\n      dup2\n      jump\t// out\n        /* \"contracts/mirrorseaMain.sol\":1818:1839  uint256 public minVal */\n    tag_159:\n      sload(0x74)\n      dup2\n      jump\t// out\n        /* \"@openzeppelin/contracts-upgradeable/access/OwnableUpgradeable.sol\":2184:2382  function transferOwnership(address newOwner) public virtual onlyOwner {... */\n    tag_163:\n        /* \"@openzeppelin/contracts-upgradeable/access/OwnableUpgradeable.sol\":1525:1537  _msgSender() */\n      tag_391\n        /* \"@openzeppelin/contracts-upgradeable/access/OwnableUpgradeable.sol\":1525:1535  _msgSender */\n      tag_220\n        /* \"@openzeppelin/contracts-upgradeable/access/OwnableUpgradeable.sol\":1525:1537  _msgSender() */\n      jump\t// in\n    tag_391:\n      sub(shl(0xa0, 0x01), 0x01)\n        /* \"@openzeppelin/contracts-upgradeable/access/OwnableUpgradeable.sol\":1514:1537  owner() == _msgSender() */\n      and\n        /* \"@openzeppelin/contracts-upgradeable/access/OwnableUpgradeable.sol\":1514:1521  owner() */\n      tag_392\n        /* \"@openzeppelin/contracts-upgradeable/access/OwnableUpgradeable.sol\":1514:1519  owner */\n      tag_119\n        /* \"@openzeppelin/contracts-upgradeable/access/OwnableUpgradeable.sol\":1514:1521  owner() */\n      jump\t// in\n    tag_392:\n      sub(shl(0xa0, 0x01), 0x01)\n        /* \"@openzeppelin/contracts-upgradeable/access/OwnableUpgradeable.sol\":1514:1537  owner() == _msgSender() */\n      and\n      eq\n        /* \"@openzeppelin/contracts-upgradeable/access/OwnableUpgradeable.sol\":1506:1574  require(owner() == _msgSender(), \"Ownable: caller is not the owner\") */\n      tag_393\n      jumpi\n      mload(0x40)\n      shl(0xe5, 0x461bcd)\n      dup2\n      mstore\n      0x04\n      add\n      tag_200\n      swap1\n      tag_224\n      jump\t// in\n    tag_393:\n      sub(shl(0xa0, 0x01), 0x01)\n        /* \"@openzeppelin/contracts-upgradeable/access/OwnableUpgradeable.sol\":2272:2294  newOwner != address(0) */\n      dup2\n      and\n        /* \"@openzeppelin/contracts-upgradeable/access/OwnableUpgradeable.sol\":2264:2337  require(newOwner != address(0), \"Ownable: new owner is the zero address\") */\n      tag_396\n      jumpi\n      mload(0x40)\n      shl(0xe5, 0x461bcd)\n      dup2\n      mstore\n      0x04\n      add\n      tag_200\n      swap1\n      tag_398\n      jump\t// in\n    tag_396:\n        /* \"@openzeppelin/contracts-upgradeable/access/OwnableUpgradeable.sol\":2347:2375  _transferOwnership(newOwner) */\n      tag_399\n        /* \"@openzeppelin/contracts-upgradeable/access/OwnableUpgradeable.sol\":2366:2374  newOwner */\n      dup2\n        /* \"@openzeppelin/contracts-upgradeable/access/OwnableUpgradeable.sol\":2347:2365  _transferOwnership */\n      tag_275\n        /* \"@openzeppelin/contracts-upgradeable/access/OwnableUpgradeable.sol\":2347:2375  _transferOwnership(newOwner) */\n      jump\t// in\n    tag_399:\n        /* \"@openzeppelin/contracts-upgradeable/access/OwnableUpgradeable.sol\":2184:2382  function transferOwnership(address newOwner) public virtual onlyOwner {... */\n      pop\n      jump\t// out\n        /* \"contracts/mirrorseaMain.sol\":1315:1340  uint256 public OrderIndex */\n    tag_165:\n      sload(0x6b)\n      dup2\n      jump\t// out\n        /* \"contracts/mirrorseaMain.sol\":2277:2657  function initialize(... */\n    tag_170:\n        /* \"@openzeppelin/contracts-upgradeable/proxy/utils/Initializable.sol\":539:552  _initializing */\n      sload(0x00)\n      0x0100\n      swap1\n      div\n      0xff\n      and\n      dup1\n        /* \"@openzeppelin/contracts-upgradeable/proxy/utils/Initializable.sol\":539:569  _initializing || !_initialized */\n      tag_401\n      jumpi\n      pop\n        /* \"@openzeppelin/contracts-upgradeable/proxy/utils/Initializable.sol\":557:569  _initialized */\n      and(0xff, sload(0x00))\n        /* \"@openzeppelin/contracts-upgradeable/proxy/utils/Initializable.sol\":556:569  !_initialized */\n      iszero\n        /* \"@openzeppelin/contracts-upgradeable/proxy/utils/Initializable.sol\":539:569  _initializing || !_initialized */\n    tag_401:\n        /* \"@openzeppelin/contracts-upgradeable/proxy/utils/Initializable.sol\":531:620  require(_initializing || !_initialized, \"Initializable: contract is already initialized\") */\n      tag_402\n      jumpi\n      mload(0x40)\n      shl(0xe5, 0x461bcd)\n      dup2\n      mstore\n      0x04\n      add\n      tag_200\n      swap1\n      tag_404\n      jump\t// in\n    tag_402:\n        /* \"@openzeppelin/contracts-upgradeable/proxy/utils/Initializable.sol\":631:650  bool isTopLevelCall */\n      0x00\n        /* \"@openzeppelin/contracts-upgradeable/proxy/utils/Initializable.sol\":654:667  _initializing */\n      sload\n      0x0100\n      swap1\n      div\n      0xff\n      and\n        /* \"@openzeppelin/contracts-upgradeable/proxy/utils/Initializable.sol\":653:667  !_initializing */\n      iszero\n        /* \"@openzeppelin/contracts-upgradeable/proxy/utils/Initializable.sol\":677:775  if (isTopLevelCall) {... */\n      dup1\n      iszero\n      tag_405\n      jumpi\n        /* \"@openzeppelin/contracts-upgradeable/proxy/utils/Initializable.sol\":711:724  _initializing */\n      0x00\n        /* \"@openzeppelin/contracts-upgradeable/proxy/utils/Initializable.sol\":711:731  _initializing = true */\n      dup1\n      sload\n      not(0xff)\n      not(0xff00)\n      swap1\n      swap2\n      and\n      0x0100\n      or\n        /* \"@openzeppelin/contracts-upgradeable/proxy/utils/Initializable.sol\":745:764  _initialized = true */\n      and\n        /* \"@openzeppelin/contracts-upgradeable/proxy/utils/Initializable.sol\":727:731  true */\n      0x01\n        /* \"@openzeppelin/contracts-upgradeable/proxy/utils/Initializable.sol\":745:764  _initialized = true */\n      or\n      swap1\n      sstore\n        /* \"@openzeppelin/contracts-upgradeable/proxy/utils/Initializable.sol\":677:775  if (isTopLevelCall) {... */\n    tag_405:\n        /* \"contracts/mirrorseaMain.sol\":2451:2467  __Ownable_init() */\n      tag_407\n        /* \"contracts/mirrorseaMain.sol\":2451:2465  __Ownable_init */\n      tag_408\n        /* \"contracts/mirrorseaMain.sol\":2451:2467  __Ownable_init() */\n      jump\t// in\n    tag_407:\n        /* \"contracts/mirrorseaMain.sol\":2477:2483  signer */\n      0x66\n        /* \"contracts/mirrorseaMain.sol\":2477:2493  signer = _signer */\n      dup1\n      sload\n      sub(shl(0xa0, 0x01), 0x01)\n      dup1\n      dup9\n      and\n      not(sub(shl(0xa0, 0x01), 0x01))\n      swap3\n      dup4\n      and\n      or\n      swap1\n      swap3\n      sstore\n        /* \"contracts/mirrorseaMain.sol\":2503:2514  helperLogic */\n      0x68\n        /* \"contracts/mirrorseaMain.sol\":2503:2529  helperLogic = _helperLogic */\n      dup1\n      sload\n      dup8\n      dup5\n      and\n      swap1\n      dup4\n      and\n      or\n      swap1\n      sstore\n        /* \"contracts/mirrorseaMain.sol\":2539:2542  usc */\n      0x67\n        /* \"contracts/mirrorseaMain.sol\":2539:2549  usc = _usc */\n      dup1\n      sload\n      dup7\n      dup5\n      and\n      swap1\n      dup4\n      and\n      or\n      swap1\n      sstore\n        /* \"contracts/mirrorseaMain.sol\":2571:2576  10000 */\n      0x2710\n        /* \"contracts/mirrorseaMain.sol\":2559:2568  PRECISION */\n      0x73\n        /* \"contracts/mirrorseaMain.sol\":2559:2576  PRECISION = 10000 */\n      sstore\n        /* \"contracts/mirrorseaMain.sol\":2586:2592  oracle */\n      0x69\n        /* \"contracts/mirrorseaMain.sol\":2586:2602  oracle = _oracle */\n      dup1\n      sload\n      swap3\n      dup6\n      and\n      swap3\n      swap1\n      swap2\n      and\n      swap2\n      swap1\n      swap2\n      or\n      swap1\n      sstore\n        /* \"contracts/mirrorseaMain.sol\":2621:2625  1e18 */\n      0x0de0b6b3a7640000\n        /* \"contracts/mirrorseaMain.sol\":2612:2618  minVal */\n      0x74\n        /* \"contracts/mirrorseaMain.sol\":2612:2625  minVal = 1e18 */\n      sstore\n        /* \"contracts/mirrorseaMain.sol\":2648:2650  50 */\n      0x32\n        /* \"contracts/mirrorseaMain.sol\":2635:2645  feePercent */\n      0x72\n        /* \"contracts/mirrorseaMain.sol\":2635:2650  feePercent = 50 */\n      sstore\n        /* \"@openzeppelin/contracts-upgradeable/proxy/utils/Initializable.sol\":797:863  if (isTopLevelCall) {... */\n      dup1\n      iszero\n      tag_409\n      jumpi\n        /* \"@openzeppelin/contracts-upgradeable/proxy/utils/Initializable.sol\":847:852  false */\n      0x00\n        /* \"@openzeppelin/contracts-upgradeable/proxy/utils/Initializable.sol\":831:852  _initializing = false */\n      dup1\n      sload\n      not(0xff00)\n      and\n      swap1\n      sstore\n        /* \"@openzeppelin/contracts-upgradeable/proxy/utils/Initializable.sol\":797:863  if (isTopLevelCall) {... */\n    tag_409:\n        /* \"contracts/mirrorseaMain.sol\":2277:2657  function initialize(... */\n      pop\n      pop\n      pop\n      pop\n      pop\n      jump\t// out\n        /* \"contracts/mirrorseaMain.sol\":3721:4496  function setOrderInfo(... */\n    tag_174:\n        /* \"contracts/mirrorseaMain.sol\":4080:4084  bool */\n      0x00\n        /* \"@openzeppelin/contracts-upgradeable/access/OwnableUpgradeable.sol\":1525:1537  _msgSender() */\n      tag_411\n        /* \"@openzeppelin/contracts-upgradeable/access/OwnableUpgradeable.sol\":1525:1535  _msgSender */\n      tag_220\n        /* \"@openzeppelin/contracts-upgradeable/access/OwnableUpgradeable.sol\":1525:1537  _msgSender() */\n      jump\t// in\n    tag_411:\n      sub(shl(0xa0, 0x01), 0x01)\n        /* \"@openzeppelin/contracts-upgradeable/access/OwnableUpgradeable.sol\":1514:1537  owner() == _msgSender() */\n      and\n        /* \"@openzeppelin/contracts-upgradeable/access/OwnableUpgradeable.sol\":1514:1521  owner() */\n      tag_412\n        /* \"@openzeppelin/contracts-upgradeable/access/OwnableUpgradeable.sol\":1514:1519  owner */\n      tag_119\n        /* \"@openzeppelin/contracts-upgradeable/access/OwnableUpgradeable.sol\":1514:1521  owner() */\n      jump\t// in\n    tag_412:\n      sub(shl(0xa0, 0x01), 0x01)\n        /* \"@openzeppelin/contracts-upgradeable/access/OwnableUpgradeable.sol\":1514:1537  owner() == _msgSender() */\n      and\n      eq\n        /* \"@openzeppelin/contracts-upgradeable/access/OwnableUpgradeable.sol\":1506:1574  require(owner() == _msgSender(), \"Ownable: caller is not the owner\") */\n      tag_413\n      jumpi\n      mload(0x40)\n      shl(0xe5, 0x461bcd)\n      dup2\n      mstore\n      0x04\n      add\n      tag_200\n      swap1\n      tag_224\n      jump\t// in\n    tag_413:\n        /* \"contracts/mirrorseaMain.sol\":4113:4468  OrderInfo({... */\n      mload(0x40)\n      dup1\n      0x0160\n      add\n      0x40\n      mstore\n      dup1\n        /* \"contracts/mirrorseaMain.sol\":4143:4147  user */\n      dup14\n      sub(shl(0xa0, 0x01), 0x01)\n        /* \"contracts/mirrorseaMain.sol\":4113:4468  OrderInfo({... */\n      and\n      dup2\n      mstore\n      0x20\n      add\n        /* \"contracts/mirrorseaMain.sol\":4168:4173  _type */\n      dup13\n        /* \"contracts/mirrorseaMain.sol\":4113:4468  OrderInfo({... */\n      dup2\n      mstore\n      0x20\n      add\n        /* \"contracts/mirrorseaMain.sol\":4196:4203  symbols */\n      dup12\n        /* \"contracts/mirrorseaMain.sol\":4113:4468  OrderInfo({... */\n      dup2\n      mstore\n      0x20\n      add\n        /* \"contracts/mirrorseaMain.sol\":4224:4229  state */\n      dup11\n        /* \"contracts/mirrorseaMain.sol\":4113:4468  OrderInfo({... */\n      dup2\n      mstore\n      0x20\n      add\n        /* \"contracts/mirrorseaMain.sol\":4254:4263  direction */\n      dup10\n        /* \"contracts/mirrorseaMain.sol\":4113:4468  OrderInfo({... */\n      dup2\n      mstore\n      0x20\n      add\n        /* \"contracts/mirrorseaMain.sol\":4290:4301  openPrice18 */\n      dup9\n        /* \"contracts/mirrorseaMain.sol\":4113:4468  OrderInfo({... */\n      dup2\n      mstore\n      0x20\n      add\n        /* \"contracts/mirrorseaMain.sol\":4325:4333  openTime */\n      dup8\n        /* \"contracts/mirrorseaMain.sol\":4113:4468  OrderInfo({... */\n      dup2\n      mstore\n      0x20\n      add\n        /* \"contracts/mirrorseaMain.sol\":4361:4373  closePrice18 */\n      dup7\n        /* \"contracts/mirrorseaMain.sol\":4113:4468  OrderInfo({... */\n      dup2\n      mstore\n      0x20\n      add\n        /* \"contracts/mirrorseaMain.sol\":4398:4407  closeTime */\n      dup6\n        /* \"contracts/mirrorseaMain.sol\":4113:4468  OrderInfo({... */\n      dup2\n      mstore\n      0x20\n      add\n        /* \"contracts/mirrorseaMain.sol\":4426:4429  amt */\n      dup5\n        /* \"contracts/mirrorseaMain.sol\":4113:4468  OrderInfo({... */\n      dup2\n      mstore\n      0x20\n      add\n        /* \"contracts/mirrorseaMain.sol\":4451:4457  margin */\n      dup4\n        /* \"contracts/mirrorseaMain.sol\":4113:4468  OrderInfo({... */\n      dup2\n      mstore\n      pop\n        /* \"contracts/mirrorseaMain.sol\":4096:4106  _orderInfo */\n      0x6a\n        /* \"contracts/mirrorseaMain.sol\":4096:4110  _orderInfo[id] */\n      0x00\n        /* \"contracts/mirrorseaMain.sol\":4107:4109  id */\n      dup16\n        /* \"contracts/mirrorseaMain.sol\":4096:4110  _orderInfo[id] */\n      dup2\n      mstore\n      0x20\n      add\n      swap1\n      dup2\n      mstore\n      0x20\n      add\n      0x00\n      keccak256\n        /* \"contracts/mirrorseaMain.sol\":4096:4468  _orderInfo[id] = OrderInfo({... */\n      0x00\n      dup3\n      add\n      mload\n      dup2\n      0x00\n      add\n      exp(0x0100, 0x00)\n      dup2\n      sload\n      dup2\n      sub(shl(0xa0, 0x01), 0x01)\n      mul\n      not\n      and\n      swap1\n      dup4\n      sub(shl(0xa0, 0x01), 0x01)\n      and\n      mul\n      or\n      swap1\n      sstore\n      pop\n      0x20\n      dup3\n      add\n      mload\n      dup2\n      0x01\n      add\n      sstore\n      0x40\n      dup3\n      add\n      mload\n      dup2\n      0x02\n      add\n      swap1\n      dup1\n      mload\n      swap1\n      0x20\n      add\n      swap1\n      tag_416\n      swap3\n      swap2\n      swap1\n      tag_385\n      jump\t// in\n    tag_416:\n      pop\n      0x60\n      dup3\n      add\n      mload\n      0x03\n      dup3\n      add\n      sstore\n      0x80\n      dup3\n      add\n      mload\n      0x04\n      dup3\n      add\n      sstore\n      0xa0\n      dup3\n      add\n      mload\n      0x05\n      dup3\n      add\n      sstore\n      0xc0\n      dup3\n      add\n      mload\n      0x06\n      dup3\n      add\n      sstore\n      0xe0\n      dup3\n      add\n      mload\n      0x07\n      dup3\n      add\n      sstore\n      0x0100\n      dup3\n      add\n      mload\n      0x08\n      dup3\n      add\n      sstore\n      0x0120\n      dup3\n      add\n      mload\n      0x09\n      dup3\n      add\n      sstore\n      0x0140\n      swap1\n      swap2\n      add\n      mload\n      0x0a\n      swap1\n      swap2\n      add\n      sstore\n      pop\n        /* \"contracts/mirrorseaMain.sol\":4485:4489  true */\n      0x01\n        /* \"contracts/mirrorseaMain.sol\":3721:4496  function setOrderInfo(... */\n      swap13\n      swap12\n      pop\n      pop\n      pop\n      pop\n      pop\n      pop\n      pop\n      pop\n      pop\n      pop\n      pop\n      pop\n      jump\t// out\n        /* \"@openzeppelin/contracts-upgradeable/utils/math/SafeMathUpgradeable.sol\":3462:3558  function mul(uint256 a, uint256 b) internal pure returns (uint256) {... */\n    tag_191:\n        /* \"@openzeppelin/contracts-upgradeable/utils/math/SafeMathUpgradeable.sol\":3520:3527  uint256 */\n      0x00\n        /* \"@openzeppelin/contracts-upgradeable/utils/math/SafeMathUpgradeable.sol\":3546:3551  a * b */\n      tag_418\n        /* \"@openzeppelin/contracts-upgradeable/utils/math/SafeMathUpgradeable.sol\":3550:3551  b */\n      dup3\n        /* \"@openzeppelin/contracts-upgradeable/utils/math/SafeMathUpgradeable.sol\":3546:3547  a */\n      dup5\n        /* \"@openzeppelin/contracts-upgradeable/utils/math/SafeMathUpgradeable.sol\":3546:3551  a * b */\n      tag_206\n      jump\t// in\n    tag_418:\n        /* \"@openzeppelin/contracts-upgradeable/utils/math/SafeMathUpgradeable.sol\":3539:3551  return a * b */\n      swap4\n        /* \"@openzeppelin/contracts-upgradeable/utils/math/SafeMathUpgradeable.sol\":3462:3558  function mul(uint256 a, uint256 b) internal pure returns (uint256) {... */\n      swap3\n      pop\n      pop\n      pop\n      jump\t// out\n        /* \"@openzeppelin/contracts-upgradeable/utils/math/SafeMathUpgradeable.sol\":3119:3215  function sub(uint256 a, uint256 b) internal pure returns (uint256) {... */\n    tag_192:\n        /* \"@openzeppelin/contracts-upgradeable/utils/math/SafeMathUpgradeable.sol\":3177:3184  uint256 */\n      0x00\n        /* \"@openzeppelin/contracts-upgradeable/utils/math/SafeMathUpgradeable.sol\":3203:3208  a - b */\n      tag_418\n        /* \"@openzeppelin/contracts-upgradeable/utils/math/SafeMathUpgradeable.sol\":3207:3208  b */\n      dup3\n        /* \"@openzeppelin/contracts-upgradeable/utils/math/SafeMathUpgradeable.sol\":3203:3204  a */\n      dup5\n        /* \"@openzeppelin/contracts-upgradeable/utils/math/SafeMathUpgradeable.sol\":3203:3208  a - b */\n      tag_208\n      jump\t// in\n        /* \"@openzeppelin/contracts-upgradeable/utils/ContextUpgradeable.sol\":876:972  function _msgSender() internal view virtual returns (address) {... */\n    tag_220:\n        /* \"@openzeppelin/contracts-upgradeable/utils/ContextUpgradeable.sol\":955:965  msg.sender */\n      caller\n        /* \"@openzeppelin/contracts-upgradeable/utils/ContextUpgradeable.sol\":876:972  function _msgSender() internal view virtual returns (address) {... */\n      swap1\n      jump\t// out\n        /* \"contracts/mirrorseaMain.sol\":13538:14859  function _isSolvent(... */\n    tag_238:\n        /* \"contracts/mirrorseaMain.sol\":13659:13663  bool */\n      0x00\n        /* \"contracts/mirrorseaMain.sol\":13701:13716  _orderInfo[_id] */\n      dup4\n      dup2\n      mstore\n        /* \"contracts/mirrorseaMain.sol\":13701:13711  _orderInfo */\n      0x6a\n        /* \"contracts/mirrorseaMain.sol\":13701:13716  _orderInfo[_id] */\n      0x20\n      mstore\n      0x40\n      dup2\n      keccak256\n        /* \"contracts/mirrorseaMain.sol\":13808:13823  order.direction */\n      0x04\n      dup2\n      add\n      sload\n        /* \"contracts/mirrorseaMain.sol\":13659:13663  bool */\n      dup3\n      swap1\n      dup2\n      swap1\n      dup2\n      swap1\n        /* \"contracts/mirrorseaMain.sol\":13827:13828  1 */\n      0x01\n        /* \"contracts/mirrorseaMain.sol\":13808:13828  order.direction == 1 */\n      eq\n        /* \"contracts/mirrorseaMain.sol\":13804:14832  if (order.direction == 1) {... */\n      iszero\n      tag_423\n      jumpi\n        /* \"contracts/mirrorseaMain.sol\":13859:13864  order */\n      dup4\n        /* \"contracts/mirrorseaMain.sol\":13859:13876  order.openPrice18 */\n      0x05\n      add\n      sload\n        /* \"contracts/mirrorseaMain.sol\":13848:13856  _price18 */\n      dup8\n        /* \"contracts/mirrorseaMain.sol\":13848:13876  _price18 < order.openPrice18 */\n      lt\n        /* \"contracts/mirrorseaMain.sol\":13844:14318  if (_price18 < order.openPrice18) {... */\n      iszero\n      tag_434\n      jumpi\n        /* \"contracts/mirrorseaMain.sol\":13910:13927  order.openPrice18 */\n      0x05\n      dup5\n      add\n      sload\n        /* \"contracts/mirrorseaMain.sol\":13910:13941  order.openPrice18.sub(_price18) */\n      tag_425\n      swap1\n        /* \"contracts/mirrorseaMain.sol\":13932:13940  _price18 */\n      dup9\n        /* \"contracts/mirrorseaMain.sol\":13910:13931  order.openPrice18.sub */\n      tag_192\n        /* \"contracts/mirrorseaMain.sol\":13910:13941  order.openPrice18.sub(_price18) */\n      jump\t// in\n    tag_425:\n        /* \"contracts/mirrorseaMain.sol\":13896:13941  diffPrice18 = order.openPrice18.sub(_price18) */\n      swap3\n      pop\n        /* \"contracts/mirrorseaMain.sol\":13972:14008  diffPrice18.mul(order.amt).div(1e18) */\n      tag_426\n        /* \"contracts/mirrorseaMain.sol\":14003:14007  1e18 */\n      0x0de0b6b3a7640000\n        /* \"contracts/mirrorseaMain.sol\":13972:13998  diffPrice18.mul(order.amt) */\n      tag_311\n        /* \"contracts/mirrorseaMain.sol\":13988:13993  order */\n      dup7\n        /* \"contracts/mirrorseaMain.sol\":13988:13997  order.amt */\n      0x09\n      add\n      sload\n        /* \"contracts/mirrorseaMain.sol\":13972:13983  diffPrice18 */\n      dup7\n        /* \"contracts/mirrorseaMain.sol\":13972:13987  diffPrice18.mul */\n      tag_191\n      swap1\n        /* \"contracts/mirrorseaMain.sol\":13972:13998  diffPrice18.mul(order.amt) */\n      swap2\n      swap1\n      0xffffffff\n      and\n      jump\t// in\n        /* \"contracts/mirrorseaMain.sol\":13972:14008  diffPrice18.mul(order.amt).div(1e18) */\n    tag_426:\n        /* \"contracts/mirrorseaMain.sol\":13959:14008  diffMargin = diffPrice18.mul(order.amt).div(1e18) */\n      swap2\n      pop\n        /* \"contracts/mirrorseaMain.sol\":14032:14201  order... */\n      tag_428\n        /* \"contracts/mirrorseaMain.sol\":14196:14200  1e18 */\n      0x0de0b6b3a7640000\n        /* \"contracts/mirrorseaMain.sol\":14032:14170  order... */\n      tag_311\n        /* \"contracts/mirrorseaMain.sol\":14160:14169  PRECISION */\n      sload(0x73)\n        /* \"contracts/mirrorseaMain.sol\":14032:14134  order... */\n      tag_311\n        /* \"contracts/mirrorseaMain.sol\":14123:14133  feePercent */\n      sload(0x72)\n        /* \"contracts/mirrorseaMain.sol\":14032:14097  order... */\n      tag_312\n        /* \"contracts/mirrorseaMain.sol\":14088:14096  _price18 */\n      dup14\n        /* \"contracts/mirrorseaMain.sol\":14032:14037  order */\n      dup12\n        /* \"contracts/mirrorseaMain.sol\":14032:14062  order... */\n      0x09\n      add\n      sload\n        /* \"contracts/mirrorseaMain.sol\":14032:14087  order... */\n      tag_191\n      swap1\n        /* \"contracts/mirrorseaMain.sol\":14032:14097  order... */\n      swap2\n      swap1\n      0xffffffff\n      and\n      jump\t// in\n        /* \"contracts/mirrorseaMain.sol\":14032:14201  order... */\n    tag_428:\n        /* \"contracts/mirrorseaMain.sol\":14026:14201  fee = order... */\n      swap1\n      pop\n        /* \"contracts/mirrorseaMain.sol\":14233:14249  diffMargin + fee */\n      tag_432\n        /* \"contracts/mirrorseaMain.sol\":14026:14201  fee = order... */\n      dup2\n        /* \"contracts/mirrorseaMain.sol\":14233:14243  diffMargin */\n      dup4\n        /* \"contracts/mirrorseaMain.sol\":14233:14249  diffMargin + fee */\n      tag_433\n      jump\t// in\n    tag_432:\n        /* \"contracts/mirrorseaMain.sol\":14223:14230  _margin */\n      dup7\n        /* \"contracts/mirrorseaMain.sol\":14223:14249  _margin < diffMargin + fee */\n      lt\n        /* \"contracts/mirrorseaMain.sol\":14219:14304  if (_margin < diffMargin + fee) {... */\n      iszero\n      tag_434\n      jumpi\n        /* \"contracts/mirrorseaMain.sol\":14280:14285  false */\n      0x00\n        /* \"contracts/mirrorseaMain.sol\":14273:14285  return false */\n      swap5\n      pop\n      pop\n      pop\n      pop\n      pop\n      jump(tag_418)\n        /* \"contracts/mirrorseaMain.sol\":14219:14304  if (_margin < diffMargin + fee) {... */\n    tag_434:\n        /* \"contracts/mirrorseaMain.sol\":13804:14832  if (order.direction == 1) {... */\n      jump(tag_445)\n    tag_423:\n        /* \"contracts/mirrorseaMain.sol\":14363:14368  order */\n      dup4\n        /* \"contracts/mirrorseaMain.sol\":14363:14380  order.openPrice18 */\n      0x05\n      add\n      sload\n        /* \"contracts/mirrorseaMain.sol\":14352:14360  _price18 */\n      dup8\n        /* \"contracts/mirrorseaMain.sol\":14352:14380  _price18 > order.openPrice18 */\n      gt\n        /* \"contracts/mirrorseaMain.sol\":14348:14822  if (_price18 > order.openPrice18) {... */\n      iszero\n      tag_445\n      jumpi\n        /* \"contracts/mirrorseaMain.sol\":14427:14444  order.openPrice18 */\n      0x05\n      dup5\n      add\n      sload\n        /* \"contracts/mirrorseaMain.sol\":14414:14445  _price18.sub(order.openPrice18) */\n      tag_437\n      swap1\n        /* \"contracts/mirrorseaMain.sol\":14414:14422  _price18 */\n      dup9\n      swap1\n        /* \"contracts/mirrorseaMain.sol\":14414:14426  _price18.sub */\n      tag_192\n        /* \"contracts/mirrorseaMain.sol\":14414:14445  _price18.sub(order.openPrice18) */\n      jump\t// in\n    tag_437:\n        /* \"contracts/mirrorseaMain.sol\":14400:14445  diffPrice18 = _price18.sub(order.openPrice18) */\n      swap3\n      pop\n        /* \"contracts/mirrorseaMain.sol\":14476:14512  diffPrice18.mul(order.amt).div(1e18) */\n      tag_438\n        /* \"contracts/mirrorseaMain.sol\":14507:14511  1e18 */\n      0x0de0b6b3a7640000\n        /* \"contracts/mirrorseaMain.sol\":14476:14502  diffPrice18.mul(order.amt) */\n      tag_311\n        /* \"contracts/mirrorseaMain.sol\":14492:14497  order */\n      dup7\n        /* \"contracts/mirrorseaMain.sol\":14492:14501  order.amt */\n      0x09\n      add\n      sload\n        /* \"contracts/mirrorseaMain.sol\":14476:14487  diffPrice18 */\n      dup7\n        /* \"contracts/mirrorseaMain.sol\":14476:14491  diffPrice18.mul */\n      tag_191\n      swap1\n        /* \"contracts/mirrorseaMain.sol\":14476:14502  diffPrice18.mul(order.amt) */\n      swap2\n      swap1\n      0xffffffff\n      and\n      jump\t// in\n        /* \"contracts/mirrorseaMain.sol\":14476:14512  diffPrice18.mul(order.amt).div(1e18) */\n    tag_438:\n        /* \"contracts/mirrorseaMain.sol\":14463:14512  diffMargin = diffPrice18.mul(order.amt).div(1e18) */\n      swap2\n      pop\n        /* \"contracts/mirrorseaMain.sol\":14536:14705  order... */\n      tag_440\n        /* \"contracts/mirrorseaMain.sol\":14700:14704  1e18 */\n      0x0de0b6b3a7640000\n        /* \"contracts/mirrorseaMain.sol\":14536:14674  order... */\n      tag_311\n        /* \"contracts/mirrorseaMain.sol\":14664:14673  PRECISION */\n      sload(0x73)\n        /* \"contracts/mirrorseaMain.sol\":14536:14638  order... */\n      tag_311\n        /* \"contracts/mirrorseaMain.sol\":14627:14637  feePercent */\n      sload(0x72)\n        /* \"contracts/mirrorseaMain.sol\":14536:14601  order... */\n      tag_312\n        /* \"contracts/mirrorseaMain.sol\":14592:14600  _price18 */\n      dup14\n        /* \"contracts/mirrorseaMain.sol\":14536:14541  order */\n      dup12\n        /* \"contracts/mirrorseaMain.sol\":14536:14566  order... */\n      0x09\n      add\n      sload\n        /* \"contracts/mirrorseaMain.sol\":14536:14591  order... */\n      tag_191\n      swap1\n        /* \"contracts/mirrorseaMain.sol\":14536:14601  order... */\n      swap2\n      swap1\n      0xffffffff\n      and\n      jump\t// in\n        /* \"contracts/mirrorseaMain.sol\":14536:14705  order... */\n    tag_440:\n        /* \"contracts/mirrorseaMain.sol\":14530:14705  fee = order... */\n      swap1\n      pop\n        /* \"contracts/mirrorseaMain.sol\":14737:14753  diffMargin + fee */\n      tag_444\n        /* \"contracts/mirrorseaMain.sol\":14530:14705  fee = order... */\n      dup2\n        /* \"contracts/mirrorseaMain.sol\":14737:14747  diffMargin */\n      dup4\n        /* \"contracts/mirrorseaMain.sol\":14737:14753  diffMargin + fee */\n      tag_433\n      jump\t// in\n    tag_444:\n        /* \"contracts/mirrorseaMain.sol\":14727:14734  _margin */\n      dup7\n        /* \"contracts/mirrorseaMain.sol\":14727:14753  _margin < diffMargin + fee */\n      lt\n        /* \"contracts/mirrorseaMain.sol\":14723:14808  if (_margin < diffMargin + fee) {... */\n      iszero\n      tag_445\n      jumpi\n        /* \"contracts/mirrorseaMain.sol\":14784:14789  false */\n      0x00\n        /* \"contracts/mirrorseaMain.sol\":14777:14789  return false */\n      swap5\n      pop\n      pop\n      pop\n      pop\n      pop\n      jump(tag_418)\n        /* \"contracts/mirrorseaMain.sol\":14723:14808  if (_margin < diffMargin + fee) {... */\n    tag_445:\n      pop\n        /* \"contracts/mirrorseaMain.sol\":14848:14852  true */\n      0x01\n      swap8\n        /* \"contracts/mirrorseaMain.sol\":13538:14859  function _isSolvent(... */\n      swap7\n      pop\n      pop\n      pop\n      pop\n      pop\n      pop\n      pop\n      jump\t// out\n        /* \"contracts/mirrorseaMain.sol\":7379:11132  function _closePosition(... */\n    tag_246:\n        /* \"contracts/mirrorseaMain.sol\":7675:7685  order.user */\n      dup7\n      sload\n        /* \"contracts/mirrorseaMain.sol\":7651:7655  bool */\n      0x00\n      swap1\n      sub(shl(0xa0, 0x01), 0x01)\n        /* \"contracts/mirrorseaMain.sol\":7675:7685  order.user */\n      and\n        /* \"contracts/mirrorseaMain.sol\":7667:7724  require(order.user != address(0), \"order does not exist\") */\n      tag_447\n      jumpi\n      mload(0x40)\n      shl(0xe5, 0x461bcd)\n      dup2\n      mstore\n      0x04\n      add\n      tag_200\n      swap1\n      tag_291\n      jump\t// in\n    tag_447:\n        /* \"contracts/mirrorseaMain.sol\":7756:7757  2 */\n      0x02\n        /* \"contracts/mirrorseaMain.sol\":7742:7747  order */\n      dup9\n        /* \"contracts/mirrorseaMain.sol\":7742:7753  order.state */\n      0x03\n      add\n      sload\n        /* \"contracts/mirrorseaMain.sol\":7742:7757  order.state < 2 */\n      lt\n        /* \"contracts/mirrorseaMain.sol\":7734:7771  require(order.state < 2, \"state err\") */\n      tag_449\n      jumpi\n      mload(0x40)\n      shl(0xe5, 0x461bcd)\n      dup2\n      mstore\n      0x04\n      add\n      tag_200\n      swap1\n      tag_294\n      jump\t// in\n    tag_449:\n        /* \"contracts/mirrorseaMain.sol\":7802:7808  oracle */\n      sload(0x69)\n        /* \"contracts/mirrorseaMain.sol\":7802:7967  oracle.getkey(... */\n      mload(0x40)\n      shl(0xe1, 0x11cdc9d9)\n      dup2\n      mstore\n      sub(shl(0xa0, 0x01), 0x01)\n        /* \"contracts/mirrorseaMain.sol\":7802:7808  oracle */\n      swap1\n      swap2\n      and\n      swap1\n        /* \"contracts/mirrorseaMain.sol\":7802:7815  oracle.getkey */\n      0x239b93b2\n      swap1\n        /* \"contracts/mirrorseaMain.sol\":7802:7967  oracle.getkey(... */\n      tag_451\n      swap1\n        /* \"contracts/mirrorseaMain.sol\":7833:7845  _marketState */\n      dup13\n      swap1\n        /* \"contracts/mirrorseaMain.sol\":7863:7871  _price18 */\n      dup8\n      swap1\n        /* \"contracts/mirrorseaMain.sol\":7889:7899  _timestamp */\n      dup11\n      swap1\n        /* \"contracts/mirrorseaMain.sol\":7917:7925  _symbols */\n      dup11\n      swap1\n        /* \"contracts/mirrorseaMain.sol\":7943:7953  _signature */\n      dup10\n      swap1\n        /* \"contracts/mirrorseaMain.sol\":7802:7967  oracle.getkey(... */\n      0x04\n      add\n      tag_296\n      jump\t// in\n    tag_451:\n      0x20\n      mload(0x40)\n      dup1\n      dup4\n      sub\n      dup2\n      dup7\n      dup1\n      extcodesize\n      iszero\n      dup1\n      iszero\n      tag_452\n      jumpi\n      0x00\n      dup1\n      revert\n    tag_452:\n      pop\n      gas\n      staticcall\n      iszero\n      dup1\n      iszero\n      tag_454\n      jumpi\n      returndatasize\n      0x00\n      dup1\n      returndatacopy\n      revert(0x00, returndatasize)\n    tag_454:\n      pop\n      pop\n      pop\n      pop\n      mload(0x40)\n      returndatasize\n      not(0x1f)\n      0x1f\n      dup3\n      add\n      and\n      dup3\n      add\n      dup1\n      0x40\n      mstore\n      pop\n      dup2\n      add\n      swap1\n      tag_455\n      swap2\n      swap1\n      tag_301\n      jump\t// in\n    tag_455:\n        /* \"contracts/mirrorseaMain.sol\":7781:8003  require(... */\n      tag_456\n      jumpi\n      mload(0x40)\n      shl(0xe5, 0x461bcd)\n      dup2\n      mstore\n      0x04\n      add\n      tag_200\n      swap1\n      tag_304\n      jump\t// in\n    tag_456:\n        /* \"contracts/mirrorseaMain.sol\":8035:8043  _price18 */\n      dup3\n        /* \"contracts/mirrorseaMain.sol\":8014:8019  order */\n      dup9\n        /* \"contracts/mirrorseaMain.sol\":8014:8032  order.closePrice18 */\n      0x07\n      add\n        /* \"contracts/mirrorseaMain.sol\":8014:8043  order.closePrice18 = _price18 */\n      dup2\n      swap1\n      sstore\n      pop\n        /* \"contracts/mirrorseaMain.sol\":8053:8072  uint256 diffPrice18 */\n      0x00\n        /* \"contracts/mirrorseaMain.sol\":8082:8100  uint256 diffMargin */\n      dup1\n        /* \"contracts/mirrorseaMain.sol\":8110:8125  uint256 mintAmt */\n      0x00\n        /* \"contracts/mirrorseaMain.sol\":8140:8145  order */\n      dup11\n        /* \"contracts/mirrorseaMain.sol\":8140:8155  order.direction */\n      0x04\n      add\n      sload\n        /* \"contracts/mirrorseaMain.sol\":8159:8160  1 */\n      0x01\n        /* \"contracts/mirrorseaMain.sol\":8140:8160  order.direction == 1 */\n      eq\n        /* \"contracts/mirrorseaMain.sol\":8136:10269  if (order.direction == 1) {... */\n      iszero\n      tag_458\n      jumpi\n        /* \"contracts/mirrorseaMain.sol\":8201:8206  order */\n      dup11\n        /* \"contracts/mirrorseaMain.sol\":8201:8218  order.openPrice18 */\n      0x05\n      add\n      sload\n        /* \"contracts/mirrorseaMain.sol\":8180:8185  order */\n      dup12\n        /* \"contracts/mirrorseaMain.sol\":8180:8198  order.closePrice18 */\n      0x07\n      add\n      sload\n        /* \"contracts/mirrorseaMain.sol\":8180:8218  order.closePrice18 > order.openPrice18 */\n      gt\n        /* \"contracts/mirrorseaMain.sol\":8176:9198  if (order.closePrice18 > order.openPrice18) {... */\n      iszero\n      tag_459\n      jumpi\n        /* \"contracts/mirrorseaMain.sol\":8275:8292  order.openPrice18 */\n      0x05\n      dup12\n      add\n      sload\n        /* \"contracts/mirrorseaMain.sol\":8252:8270  order.closePrice18 */\n      0x07\n      dup13\n      add\n      sload\n        /* \"contracts/mirrorseaMain.sol\":8252:8293  order.closePrice18.sub(order.openPrice18) */\n      tag_460\n      swap2\n        /* \"contracts/mirrorseaMain.sol\":8252:8274  order.closePrice18.sub */\n      tag_192\n        /* \"contracts/mirrorseaMain.sol\":8252:8293  order.closePrice18.sub(order.openPrice18) */\n      jump\t// in\n    tag_460:\n        /* \"contracts/mirrorseaMain.sol\":8238:8293  diffPrice18 = order.closePrice18.sub(order.openPrice18) */\n      swap3\n      pop\n        /* \"contracts/mirrorseaMain.sol\":8324:8360  diffPrice18.mul(order.amt).div(1e18) */\n      tag_461\n        /* \"contracts/mirrorseaMain.sol\":8355:8359  1e18 */\n      0x0de0b6b3a7640000\n        /* \"contracts/mirrorseaMain.sol\":8324:8350  diffPrice18.mul(order.amt) */\n      tag_311\n        /* \"contracts/mirrorseaMain.sol\":8340:8345  order */\n      dup14\n        /* \"contracts/mirrorseaMain.sol\":8340:8349  order.amt */\n      0x09\n      add\n      sload\n        /* \"contracts/mirrorseaMain.sol\":8324:8335  diffPrice18 */\n      dup7\n        /* \"contracts/mirrorseaMain.sol\":8324:8339  diffPrice18.mul */\n      tag_191\n      swap1\n        /* \"contracts/mirrorseaMain.sol\":8324:8350  diffPrice18.mul(order.amt) */\n      swap2\n      swap1\n      0xffffffff\n      and\n      jump\t// in\n        /* \"contracts/mirrorseaMain.sol\":8324:8360  diffPrice18.mul(order.amt).div(1e18) */\n    tag_461:\n        /* \"contracts/mirrorseaMain.sol\":8388:8400  order.margin */\n      0x0a\n      dup13\n      add\n      sload\n        /* \"contracts/mirrorseaMain.sol\":8311:8360  diffMargin = diffPrice18.mul(order.amt).div(1e18) */\n      swap1\n      swap3\n      pop\n        /* \"contracts/mirrorseaMain.sol\":8388:8416  order.margin.add(diffMargin) */\n      tag_463\n      swap1\n        /* \"contracts/mirrorseaMain.sol\":8311:8360  diffMargin = diffPrice18.mul(order.amt).div(1e18) */\n      dup4\n        /* \"contracts/mirrorseaMain.sol\":8388:8404  order.margin.add */\n      tag_320\n        /* \"contracts/mirrorseaMain.sol\":8388:8416  order.margin.add(diffMargin) */\n      jump\t// in\n    tag_463:\n        /* \"contracts/mirrorseaMain.sol\":8378:8416  mintAmt = order.margin.add(diffMargin) */\n      swap1\n      pop\n        /* \"contracts/mirrorseaMain.sol\":8434:8445  uint256 fee */\n      0x00\n        /* \"contracts/mirrorseaMain.sol\":8448:8486  mintAmt.mul(feePercent).div(PRECISION) */\n      tag_464\n        /* \"contracts/mirrorseaMain.sol\":8476:8485  PRECISION */\n      sload(0x73)\n        /* \"contracts/mirrorseaMain.sol\":8448:8471  mintAmt.mul(feePercent) */\n      tag_311\n        /* \"contracts/mirrorseaMain.sol\":8460:8470  feePercent */\n      sload(0x72)\n        /* \"contracts/mirrorseaMain.sol\":8448:8455  mintAmt */\n      dup6\n        /* \"contracts/mirrorseaMain.sol\":8448:8459  mintAmt.mul */\n      tag_191\n      swap1\n        /* \"contracts/mirrorseaMain.sol\":8448:8471  mintAmt.mul(feePercent) */\n      swap2\n      swap1\n      0xffffffff\n      and\n      jump\t// in\n        /* \"contracts/mirrorseaMain.sol\":8448:8486  mintAmt.mul(feePercent).div(PRECISION) */\n    tag_464:\n        /* \"contracts/mirrorseaMain.sol\":8517:8520  usc */\n      sload(0x67)\n        /* \"contracts/mirrorseaMain.sol\":8536:8547  helperLogic */\n      sload(0x68)\n        /* \"contracts/mirrorseaMain.sol\":8504:8554  IUSC(address(usc)).mint(address(helperLogic), fee) */\n      mload(0x40)\n      shl(0xe0, 0x40c10f19)\n      dup2\n      mstore\n        /* \"contracts/mirrorseaMain.sol\":8434:8486  uint256 fee = mintAmt.mul(feePercent).div(PRECISION) */\n      swap3\n      swap4\n      pop\n      sub(shl(0xa0, 0x01), 0x01)\n        /* \"contracts/mirrorseaMain.sol\":8517:8520  usc */\n      swap2\n      dup3\n      and\n      swap3\n        /* \"contracts/mirrorseaMain.sol\":8504:8527  IUSC(address(usc)).mint */\n      0x40c10f19\n      swap3\n        /* \"contracts/mirrorseaMain.sol\":8504:8554  IUSC(address(usc)).mint(address(helperLogic), fee) */\n      tag_466\n      swap3\n        /* \"contracts/mirrorseaMain.sol\":8536:8547  helperLogic */\n      and\n      swap1\n        /* \"contracts/mirrorseaMain.sol\":8434:8486  uint256 fee = mintAmt.mul(feePercent).div(PRECISION) */\n      dup6\n      swap1\n        /* \"contracts/mirrorseaMain.sol\":8504:8554  IUSC(address(usc)).mint(address(helperLogic), fee) */\n      0x04\n      add\n      tag_335\n      jump\t// in\n    tag_466:\n      0x20\n      mload(0x40)\n      dup1\n      dup4\n      sub\n      dup2\n      0x00\n      dup8\n      dup1\n      extcodesize\n      iszero\n      dup1\n      iszero\n      tag_467\n      jumpi\n      0x00\n      dup1\n      revert\n    tag_467:\n      pop\n      gas\n      call\n      iszero\n      dup1\n      iszero\n      tag_469\n      jumpi\n      returndatasize\n      0x00\n      dup1\n      returndatacopy\n      revert(0x00, returndatasize)\n    tag_469:\n      pop\n      pop\n      pop\n      pop\n      mload(0x40)\n      returndatasize\n      not(0x1f)\n      0x1f\n      dup3\n      add\n      and\n      dup3\n      add\n      dup1\n      0x40\n      mstore\n      pop\n      dup2\n      add\n      swap1\n      tag_470\n      swap2\n      swap1\n      tag_301\n      jump\t// in\n    tag_470:\n      pop\n        /* \"contracts/mirrorseaMain.sol\":8585:8588  usc */\n      sload(0x67)\n        /* \"contracts/mirrorseaMain.sol\":8596:8606  order.user */\n      dup13\n      sload\n      sub(shl(0xa0, 0x01), 0x01)\n        /* \"contracts/mirrorseaMain.sol\":8585:8588  usc */\n      swap2\n      dup3\n      and\n      swap2\n        /* \"contracts/mirrorseaMain.sol\":8572:8595  IUSC(address(usc)).mint */\n      0x40c10f19\n      swap2\n        /* \"contracts/mirrorseaMain.sol\":8596:8606  order.user */\n      and\n        /* \"contracts/mirrorseaMain.sol\":8608:8624  mintAmt.sub(fee) */\n      tag_471\n        /* \"contracts/mirrorseaMain.sol\":8608:8615  mintAmt */\n      dup6\n        /* \"contracts/mirrorseaMain.sol\":8620:8623  fee */\n      dup6\n        /* \"contracts/mirrorseaMain.sol\":8608:8619  mintAmt.sub */\n      tag_192\n        /* \"contracts/mirrorseaMain.sol\":8608:8624  mintAmt.sub(fee) */\n      jump\t// in\n    tag_471:\n        /* \"contracts/mirrorseaMain.sol\":8572:8625  IUSC(address(usc)).mint(order.user, mintAmt.sub(fee)) */\n      mload(0x40)\n      dup4\n      0xffffffff\n      and\n      0xe0\n      shl\n      dup2\n      mstore\n      0x04\n      add\n      tag_472\n      swap3\n      swap2\n      swap1\n      tag_335\n      jump\t// in\n    tag_472:\n      0x20\n      mload(0x40)\n      dup1\n      dup4\n      sub\n      dup2\n      0x00\n      dup8\n      dup1\n      extcodesize\n      iszero\n      dup1\n      iszero\n      tag_473\n      jumpi\n      0x00\n      dup1\n      revert\n    tag_473:\n      pop\n      gas\n      call\n      iszero\n      dup1\n      iszero\n      tag_475\n      jumpi\n      returndatasize\n      0x00\n      dup1\n      returndatacopy\n      revert(0x00, returndatasize)\n    tag_475:\n      pop\n      pop\n      pop\n      pop\n      mload(0x40)\n      returndatasize\n      not(0x1f)\n      0x1f\n      dup3\n      add\n      and\n      dup3\n      add\n      dup1\n      0x40\n      mstore\n      pop\n      dup2\n      add\n      swap1\n      tag_476\n      swap2\n      swap1\n      tag_301\n      jump\t// in\n    tag_476:\n      pop\n        /* \"contracts/mirrorseaMain.sol\":8176:9198  if (order.closePrice18 > order.openPrice18) {... */\n      pop\n      jump(tag_481)\n    tag_459:\n        /* \"contracts/mirrorseaMain.sol\":8700:8718  order.closePrice18 */\n      0x07\n      dup12\n      add\n      sload\n        /* \"contracts/mirrorseaMain.sol\":8678:8695  order.openPrice18 */\n      0x05\n      dup13\n      add\n      sload\n        /* \"contracts/mirrorseaMain.sol\":8678:8719  order.openPrice18.sub(order.closePrice18) */\n      tag_478\n      swap2\n        /* \"contracts/mirrorseaMain.sol\":8678:8699  order.openPrice18.sub */\n      tag_192\n        /* \"contracts/mirrorseaMain.sol\":8678:8719  order.openPrice18.sub(order.closePrice18) */\n      jump\t// in\n    tag_478:\n        /* \"contracts/mirrorseaMain.sol\":8664:8719  diffPrice18 = order.openPrice18.sub(order.closePrice18) */\n      swap3\n      pop\n        /* \"contracts/mirrorseaMain.sol\":8750:8776  diffPrice18.mul(order.amt) */\n      tag_479\n        /* \"contracts/mirrorseaMain.sol\":8766:8771  order */\n      dup12\n        /* \"contracts/mirrorseaMain.sol\":8766:8775  order.amt */\n      0x09\n      add\n      sload\n        /* \"contracts/mirrorseaMain.sol\":8750:8761  diffPrice18 */\n      dup5\n        /* \"contracts/mirrorseaMain.sol\":8750:8765  diffPrice18.mul */\n      tag_191\n      swap1\n        /* \"contracts/mirrorseaMain.sol\":8750:8776  diffPrice18.mul(order.amt) */\n      swap2\n      swap1\n      0xffffffff\n      and\n      jump\t// in\n    tag_479:\n        /* \"contracts/mirrorseaMain.sol\":8737:8776  diffMargin = diffPrice18.mul(order.amt) */\n      swap2\n      pop\n        /* \"contracts/mirrorseaMain.sol\":8812:8817  order */\n      dup11\n        /* \"contracts/mirrorseaMain.sol\":8812:8824  order.margin */\n      0x0a\n      add\n      sload\n        /* \"contracts/mirrorseaMain.sol\":8799:8809  diffMargin */\n      dup3\n        /* \"contracts/mirrorseaMain.sol\":8799:8824  diffMargin > order.margin */\n      gt\n        /* \"contracts/mirrorseaMain.sol\":8795:9184  if (diffMargin > order.margin) {... */\n      iszero\n      tag_480\n      jumpi\n      pop\n        /* \"contracts/mirrorseaMain.sol\":8858:8859  0 */\n      0x00\n        /* \"contracts/mirrorseaMain.sol\":8795:9184  if (diffMargin > order.margin) {... */\n      jump(tag_481)\n    tag_480:\n        /* \"contracts/mirrorseaMain.sol\":8916:8928  order.margin */\n      0x0a\n      dup12\n      add\n      sload\n        /* \"contracts/mirrorseaMain.sol\":8916:8944  order.margin.sub(diffMargin) */\n      tag_482\n      swap1\n        /* \"contracts/mirrorseaMain.sol\":8933:8943  diffMargin */\n      dup4\n        /* \"contracts/mirrorseaMain.sol\":8916:8932  order.margin.sub */\n      tag_192\n        /* \"contracts/mirrorseaMain.sol\":8916:8944  order.margin.sub(diffMargin) */\n      jump\t// in\n    tag_482:\n        /* \"contracts/mirrorseaMain.sol\":8906:8944  mintAmt = order.margin.sub(diffMargin) */\n      swap1\n      pop\n        /* \"contracts/mirrorseaMain.sol\":8966:8977  uint256 fee */\n      0x00\n        /* \"contracts/mirrorseaMain.sol\":8980:9018  mintAmt.mul(feePercent).div(PRECISION) */\n      tag_483\n        /* \"contracts/mirrorseaMain.sol\":9008:9017  PRECISION */\n      sload(0x73)\n        /* \"contracts/mirrorseaMain.sol\":8980:9003  mintAmt.mul(feePercent) */\n      tag_311\n        /* \"contracts/mirrorseaMain.sol\":8992:9002  feePercent */\n      sload(0x72)\n        /* \"contracts/mirrorseaMain.sol\":8980:8987  mintAmt */\n      dup6\n        /* \"contracts/mirrorseaMain.sol\":8980:8991  mintAmt.mul */\n      tag_191\n      swap1\n        /* \"contracts/mirrorseaMain.sol\":8980:9003  mintAmt.mul(feePercent) */\n      swap2\n      swap1\n      0xffffffff\n      and\n      jump\t// in\n        /* \"contracts/mirrorseaMain.sol\":8980:9018  mintAmt.mul(feePercent).div(PRECISION) */\n    tag_483:\n        /* \"contracts/mirrorseaMain.sol\":9053:9056  usc */\n      sload(0x67)\n        /* \"contracts/mirrorseaMain.sol\":9072:9083  helperLogic */\n      sload(0x68)\n        /* \"contracts/mirrorseaMain.sol\":9040:9090  IUSC(address(usc)).mint(address(helperLogic), fee) */\n      mload(0x40)\n      shl(0xe0, 0x40c10f19)\n      dup2\n      mstore\n        /* \"contracts/mirrorseaMain.sol\":8966:9018  uint256 fee = mintAmt.mul(feePercent).div(PRECISION) */\n      swap3\n      swap4\n      pop\n      sub(shl(0xa0, 0x01), 0x01)\n        /* \"contracts/mirrorseaMain.sol\":9053:9056  usc */\n      swap2\n      dup3\n      and\n      swap3\n        /* \"contracts/mirrorseaMain.sol\":9040:9063  IUSC(address(usc)).mint */\n      0x40c10f19\n      swap3\n        /* \"contracts/mirrorseaMain.sol\":9040:9090  IUSC(address(usc)).mint(address(helperLogic), fee) */\n      tag_485\n      swap3\n        /* \"contracts/mirrorseaMain.sol\":9072:9083  helperLogic */\n      and\n      swap1\n        /* \"contracts/mirrorseaMain.sol\":8966:9018  uint256 fee = mintAmt.mul(feePercent).div(PRECISION) */\n      dup6\n      swap1\n        /* \"contracts/mirrorseaMain.sol\":9040:9090  IUSC(address(usc)).mint(address(helperLogic), fee) */\n      0x04\n      add\n      tag_335\n      jump\t// in\n    tag_485:\n      0x20\n      mload(0x40)\n      dup1\n      dup4\n      sub\n      dup2\n      0x00\n      dup8\n      dup1\n      extcodesize\n      iszero\n      dup1\n      iszero\n      tag_486\n      jumpi\n      0x00\n      dup1\n      revert\n    tag_486:\n      pop\n      gas\n      call\n      iszero\n      dup1\n      iszero\n      tag_488\n      jumpi\n      returndatasize\n      0x00\n      dup1\n      returndatacopy\n      revert(0x00, returndatasize)\n    tag_488:\n      pop\n      pop\n      pop\n      pop\n      mload(0x40)\n      returndatasize\n      not(0x1f)\n      0x1f\n      dup3\n      add\n      and\n      dup3\n      add\n      dup1\n      0x40\n      mstore\n      pop\n      dup2\n      add\n      swap1\n      tag_489\n      swap2\n      swap1\n      tag_301\n      jump\t// in\n    tag_489:\n      pop\n        /* \"contracts/mirrorseaMain.sol\":9125:9128  usc */\n      sload(0x67)\n        /* \"contracts/mirrorseaMain.sol\":9136:9146  order.user */\n      dup13\n      sload\n      sub(shl(0xa0, 0x01), 0x01)\n        /* \"contracts/mirrorseaMain.sol\":9125:9128  usc */\n      swap2\n      dup3\n      and\n      swap2\n        /* \"contracts/mirrorseaMain.sol\":9112:9135  IUSC(address(usc)).mint */\n      0x40c10f19\n      swap2\n        /* \"contracts/mirrorseaMain.sol\":9136:9146  order.user */\n      and\n        /* \"contracts/mirrorseaMain.sol\":9148:9164  mintAmt.sub(fee) */\n      tag_490\n        /* \"contracts/mirrorseaMain.sol\":9148:9155  mintAmt */\n      dup6\n        /* \"contracts/mirrorseaMain.sol\":9160:9163  fee */\n      dup6\n        /* \"contracts/mirrorseaMain.sol\":9148:9159  mintAmt.sub */\n      tag_192\n        /* \"contracts/mirrorseaMain.sol\":9148:9164  mintAmt.sub(fee) */\n      jump\t// in\n    tag_490:\n        /* \"contracts/mirrorseaMain.sol\":9112:9165  IUSC(address(usc)).mint(order.user, mintAmt.sub(fee)) */\n      mload(0x40)\n      dup4\n      0xffffffff\n      and\n      0xe0\n      shl\n      dup2\n      mstore\n      0x04\n      add\n      tag_491\n      swap3\n      swap2\n      swap1\n      tag_335\n      jump\t// in\n    tag_491:\n      0x20\n      mload(0x40)\n      dup1\n      dup4\n      sub\n      dup2\n      0x00\n      dup8\n      dup1\n      extcodesize\n      iszero\n      dup1\n      iszero\n      tag_492\n      jumpi\n      0x00\n      dup1\n      revert\n    tag_492:\n      pop\n      gas\n      call\n      iszero\n      dup1\n      iszero\n      tag_494\n      jumpi\n      returndatasize\n      0x00\n      dup1\n      returndatacopy\n      revert(0x00, returndatasize)\n    tag_494:\n      pop\n      pop\n      pop\n      pop\n      mload(0x40)\n      returndatasize\n      not(0x1f)\n      0x1f\n      dup3\n      add\n      and\n      dup3\n      add\n      dup1\n      0x40\n      mstore\n      pop\n      dup2\n      add\n      swap1\n      tag_495\n      swap2\n      swap1\n      tag_301\n      jump\t// in\n    tag_495:\n      pop\n        /* \"contracts/mirrorseaMain.sol\":8795:9184  if (diffMargin > order.margin) {... */\n      pop\n    tag_481:\n        /* \"contracts/mirrorseaMain.sol\":8136:10269  if (order.direction == 1) {... */\n      jump(tag_520)\n    tag_458:\n        /* \"contracts/mirrorseaMain.sol\":9253:9258  order */\n      dup11\n        /* \"contracts/mirrorseaMain.sol\":9253:9270  order.openPrice18 */\n      0x05\n      add\n      sload\n        /* \"contracts/mirrorseaMain.sol\":9232:9237  order */\n      dup12\n        /* \"contracts/mirrorseaMain.sol\":9232:9250  order.closePrice18 */\n      0x07\n      add\n      sload\n        /* \"contracts/mirrorseaMain.sol\":9232:9270  order.closePrice18 < order.openPrice18 */\n      lt\n        /* \"contracts/mirrorseaMain.sol\":9228:10259  if (order.closePrice18 < order.openPrice18) {... */\n      iszero\n      tag_497\n      jumpi\n        /* \"contracts/mirrorseaMain.sol\":9326:9344  order.closePrice18 */\n      0x07\n      dup12\n      add\n      sload\n        /* \"contracts/mirrorseaMain.sol\":9304:9321  order.openPrice18 */\n      0x05\n      dup13\n      add\n      sload\n        /* \"contracts/mirrorseaMain.sol\":9304:9345  order.openPrice18.sub(order.closePrice18) */\n      tag_498\n      swap2\n        /* \"contracts/mirrorseaMain.sol\":9304:9325  order.openPrice18.sub */\n      tag_192\n        /* \"contracts/mirrorseaMain.sol\":9304:9345  order.openPrice18.sub(order.closePrice18) */\n      jump\t// in\n    tag_498:\n        /* \"contracts/mirrorseaMain.sol\":9290:9345  diffPrice18 = order.openPrice18.sub(order.closePrice18) */\n      swap3\n      pop\n        /* \"contracts/mirrorseaMain.sol\":9376:9412  diffPrice18.mul(order.amt).div(1e18) */\n      tag_499\n        /* \"contracts/mirrorseaMain.sol\":9407:9411  1e18 */\n      0x0de0b6b3a7640000\n        /* \"contracts/mirrorseaMain.sol\":9376:9402  diffPrice18.mul(order.amt) */\n      tag_311\n        /* \"contracts/mirrorseaMain.sol\":9392:9397  order */\n      dup14\n        /* \"contracts/mirrorseaMain.sol\":9392:9401  order.amt */\n      0x09\n      add\n      sload\n        /* \"contracts/mirrorseaMain.sol\":9376:9387  diffPrice18 */\n      dup7\n        /* \"contracts/mirrorseaMain.sol\":9376:9391  diffPrice18.mul */\n      tag_191\n      swap1\n        /* \"contracts/mirrorseaMain.sol\":9376:9402  diffPrice18.mul(order.amt) */\n      swap2\n      swap1\n      0xffffffff\n      and\n      jump\t// in\n        /* \"contracts/mirrorseaMain.sol\":9376:9412  diffPrice18.mul(order.amt).div(1e18) */\n    tag_499:\n        /* \"contracts/mirrorseaMain.sol\":9440:9452  order.margin */\n      0x0a\n      dup13\n      add\n      sload\n        /* \"contracts/mirrorseaMain.sol\":9363:9412  diffMargin = diffPrice18.mul(order.amt).div(1e18) */\n      swap1\n      swap3\n      pop\n        /* \"contracts/mirrorseaMain.sol\":9440:9468  order.margin.add(diffMargin) */\n      tag_482\n      swap1\n        /* \"contracts/mirrorseaMain.sol\":9363:9412  diffMargin = diffPrice18.mul(order.amt).div(1e18) */\n      dup4\n        /* \"contracts/mirrorseaMain.sol\":9440:9456  order.margin.add */\n      tag_320\n        /* \"contracts/mirrorseaMain.sol\":9440:9468  order.margin.add(diffMargin) */\n      jump\t// in\n        /* \"contracts/mirrorseaMain.sol\":9228:10259  if (order.closePrice18 < order.openPrice18) {... */\n    tag_497:\n        /* \"contracts/mirrorseaMain.sol\":9753:9770  order.openPrice18 */\n      0x05\n      dup12\n      add\n      sload\n        /* \"contracts/mirrorseaMain.sol\":9730:9748  order.closePrice18 */\n      0x07\n      dup13\n      add\n      sload\n        /* \"contracts/mirrorseaMain.sol\":9730:9771  order.closePrice18.sub(order.openPrice18) */\n      tag_516\n      swap2\n        /* \"contracts/mirrorseaMain.sol\":9730:9752  order.closePrice18.sub */\n      tag_192\n        /* \"contracts/mirrorseaMain.sol\":9730:9771  order.closePrice18.sub(order.openPrice18) */\n      jump\t// in\n    tag_516:\n        /* \"contracts/mirrorseaMain.sol\":9716:9771  diffPrice18 = order.closePrice18.sub(order.openPrice18) */\n      swap3\n      pop\n        /* \"contracts/mirrorseaMain.sol\":9802:9838  diffPrice18.mul(order.amt).div(1e18) */\n      tag_517\n        /* \"contracts/mirrorseaMain.sol\":9833:9837  1e18 */\n      0x0de0b6b3a7640000\n        /* \"contracts/mirrorseaMain.sol\":9802:9828  diffPrice18.mul(order.amt) */\n      tag_311\n        /* \"contracts/mirrorseaMain.sol\":9818:9823  order */\n      dup14\n        /* \"contracts/mirrorseaMain.sol\":9818:9827  order.amt */\n      0x09\n      add\n      sload\n        /* \"contracts/mirrorseaMain.sol\":9802:9813  diffPrice18 */\n      dup7\n        /* \"contracts/mirrorseaMain.sol\":9802:9817  diffPrice18.mul */\n      tag_191\n      swap1\n        /* \"contracts/mirrorseaMain.sol\":9802:9828  diffPrice18.mul(order.amt) */\n      swap2\n      swap1\n      0xffffffff\n      and\n      jump\t// in\n        /* \"contracts/mirrorseaMain.sol\":9802:9838  diffPrice18.mul(order.amt).div(1e18) */\n    tag_517:\n        /* \"contracts/mirrorseaMain.sol\":9789:9838  diffMargin = diffPrice18.mul(order.amt).div(1e18) */\n      swap2\n      pop\n        /* \"contracts/mirrorseaMain.sol\":9873:9878  order */\n      dup11\n        /* \"contracts/mirrorseaMain.sol\":9873:9885  order.margin */\n      0x0a\n      add\n      sload\n        /* \"contracts/mirrorseaMain.sol\":9860:9870  diffMargin */\n      dup3\n        /* \"contracts/mirrorseaMain.sol\":9860:9885  diffMargin > order.margin */\n      gt\n        /* \"contracts/mirrorseaMain.sol\":9856:10245  if (diffMargin > order.margin) {... */\n      iszero\n      tag_519\n      jumpi\n      pop\n        /* \"contracts/mirrorseaMain.sol\":9919:9920  0 */\n      0x00\n        /* \"contracts/mirrorseaMain.sol\":9856:10245  if (diffMargin > order.margin) {... */\n      jump(tag_520)\n    tag_519:\n        /* \"contracts/mirrorseaMain.sol\":9977:9989  order.margin */\n      0x0a\n      dup12\n      add\n      sload\n        /* \"contracts/mirrorseaMain.sol\":9977:10005  order.margin.sub(diffMargin) */\n      tag_521\n      swap1\n        /* \"contracts/mirrorseaMain.sol\":9994:10004  diffMargin */\n      dup4\n        /* \"contracts/mirrorseaMain.sol\":9977:9993  order.margin.sub */\n      tag_192\n        /* \"contracts/mirrorseaMain.sol\":9977:10005  order.margin.sub(diffMargin) */\n      jump\t// in\n    tag_521:\n        /* \"contracts/mirrorseaMain.sol\":9967:10005  mintAmt = order.margin.sub(diffMargin) */\n      swap1\n      pop\n        /* \"contracts/mirrorseaMain.sol\":10027:10038  uint256 fee */\n      0x00\n        /* \"contracts/mirrorseaMain.sol\":10041:10079  mintAmt.mul(feePercent).div(PRECISION) */\n      tag_522\n        /* \"contracts/mirrorseaMain.sol\":10069:10078  PRECISION */\n      sload(0x73)\n        /* \"contracts/mirrorseaMain.sol\":10041:10064  mintAmt.mul(feePercent) */\n      tag_311\n        /* \"contracts/mirrorseaMain.sol\":10053:10063  feePercent */\n      sload(0x72)\n        /* \"contracts/mirrorseaMain.sol\":10041:10048  mintAmt */\n      dup6\n        /* \"contracts/mirrorseaMain.sol\":10041:10052  mintAmt.mul */\n      tag_191\n      swap1\n        /* \"contracts/mirrorseaMain.sol\":10041:10064  mintAmt.mul(feePercent) */\n      swap2\n      swap1\n      0xffffffff\n      and\n      jump\t// in\n        /* \"contracts/mirrorseaMain.sol\":10041:10079  mintAmt.mul(feePercent).div(PRECISION) */\n    tag_522:\n        /* \"contracts/mirrorseaMain.sol\":10114:10117  usc */\n      sload(0x67)\n        /* \"contracts/mirrorseaMain.sol\":10133:10144  helperLogic */\n      sload(0x68)\n        /* \"contracts/mirrorseaMain.sol\":10101:10151  IUSC(address(usc)).mint(address(helperLogic), fee) */\n      mload(0x40)\n      shl(0xe0, 0x40c10f19)\n      dup2\n      mstore\n        /* \"contracts/mirrorseaMain.sol\":10027:10079  uint256 fee = mintAmt.mul(feePercent).div(PRECISION) */\n      swap3\n      swap4\n      pop\n      sub(shl(0xa0, 0x01), 0x01)\n        /* \"contracts/mirrorseaMain.sol\":10114:10117  usc */\n      swap2\n      dup3\n      and\n      swap3\n        /* \"contracts/mirrorseaMain.sol\":10101:10124  IUSC(address(usc)).mint */\n      0x40c10f19\n      swap3\n        /* \"contracts/mirrorseaMain.sol\":10101:10151  IUSC(address(usc)).mint(address(helperLogic), fee) */\n      tag_524\n      swap3\n        /* \"contracts/mirrorseaMain.sol\":10133:10144  helperLogic */\n      and\n      swap1\n        /* \"contracts/mirrorseaMain.sol\":10027:10079  uint256 fee = mintAmt.mul(feePercent).div(PRECISION) */\n      dup6\n      swap1\n        /* \"contracts/mirrorseaMain.sol\":10101:10151  IUSC(address(usc)).mint(address(helperLogic), fee) */\n      0x04\n      add\n      tag_335\n      jump\t// in\n    tag_524:\n      0x20\n      mload(0x40)\n      dup1\n      dup4\n      sub\n      dup2\n      0x00\n      dup8\n      dup1\n      extcodesize\n      iszero\n      dup1\n      iszero\n      tag_525\n      jumpi\n      0x00\n      dup1\n      revert\n    tag_525:\n      pop\n      gas\n      call\n      iszero\n      dup1\n      iszero\n      tag_527\n      jumpi\n      returndatasize\n      0x00\n      dup1\n      returndatacopy\n      revert(0x00, returndatasize)\n    tag_527:\n      pop\n      pop\n      pop\n      pop\n      mload(0x40)\n      returndatasize\n      not(0x1f)\n      0x1f\n      dup3\n      add\n      and\n      dup3\n      add\n      dup1\n      0x40\n      mstore\n      pop\n      dup2\n      add\n      swap1\n      tag_528\n      swap2\n      swap1\n      tag_301\n      jump\t// in\n    tag_528:\n      pop\n        /* \"contracts/mirrorseaMain.sol\":10186:10189  usc */\n      sload(0x67)\n        /* \"contracts/mirrorseaMain.sol\":10197:10207  order.user */\n      dup13\n      sload\n      sub(shl(0xa0, 0x01), 0x01)\n        /* \"contracts/mirrorseaMain.sol\":10186:10189  usc */\n      swap2\n      dup3\n      and\n      swap2\n        /* \"contracts/mirrorseaMain.sol\":10173:10196  IUSC(address(usc)).mint */\n      0x40c10f19\n      swap2\n        /* \"contracts/mirrorseaMain.sol\":10197:10207  order.user */\n      and\n        /* \"contracts/mirrorseaMain.sol\":10209:10225  mintAmt.sub(fee) */\n      tag_529\n        /* \"contracts/mirrorseaMain.sol\":10209:10216  mintAmt */\n      dup6\n        /* \"contracts/mirrorseaMain.sol\":10221:10224  fee */\n      dup6\n        /* \"contracts/mirrorseaMain.sol\":10209:10220  mintAmt.sub */\n      tag_192\n        /* \"contracts/mirrorseaMain.sol\":10209:10225  mintAmt.sub(fee) */\n      jump\t// in\n    tag_529:\n        /* \"contracts/mirrorseaMain.sol\":10173:10226  IUSC(address(usc)).mint(order.user, mintAmt.sub(fee)) */\n      mload(0x40)\n      dup4\n      0xffffffff\n      and\n      0xe0\n      shl\n      dup2\n      mstore\n      0x04\n      add\n      tag_530\n      swap3\n      swap2\n      swap1\n      tag_335\n      jump\t// in\n    tag_530:\n      0x20\n      mload(0x40)\n      dup1\n      dup4\n      sub\n      dup2\n      0x00\n      dup8\n      dup1\n      extcodesize\n      iszero\n      dup1\n      iszero\n      tag_531\n      jumpi\n      0x00\n      dup1\n      revert\n    tag_531:\n      pop\n      gas\n      call\n      iszero\n      dup1\n      iszero\n      tag_533\n      jumpi\n      returndatasize\n      0x00\n      dup1\n      returndatacopy\n      revert(0x00, returndatasize)\n    tag_533:\n      pop\n      pop\n      pop\n      pop\n      mload(0x40)\n      returndatasize\n      not(0x1f)\n      0x1f\n      dup3\n      add\n      and\n      dup3\n      add\n      dup1\n      0x40\n      mstore\n      pop\n      dup2\n      add\n      swap1\n      tag_534\n      swap2\n      swap1\n      tag_301\n      jump\t// in\n    tag_534:\n      pop\n        /* \"contracts/mirrorseaMain.sol\":9856:10245  if (diffMargin > order.margin) {... */\n      pop\n    tag_520:\n        /* \"contracts/mirrorseaMain.sol\":10279:10290  helperLogic */\n      0x68\n      0x00\n      swap1\n      sload\n      swap1\n      0x0100\n      exp\n      swap1\n      div\n      sub(shl(0xa0, 0x01), 0x01)\n      and\n      sub(shl(0xa0, 0x01), 0x01)\n        /* \"contracts/mirrorseaMain.sol\":10279:10305  helperLogic.jointExecution */\n      and\n      0xd10c06a2\n        /* \"contracts/mirrorseaMain.sol\":10279:10307  helperLogic.jointExecution() */\n      mload(0x40)\n      dup2\n      0xffffffff\n      and\n      0xe0\n      shl\n      dup2\n      mstore\n      0x04\n      add\n      0x20\n      mload(0x40)\n      dup1\n      dup4\n      sub\n      dup2\n      0x00\n      dup8\n      dup1\n      extcodesize\n      iszero\n      dup1\n      iszero\n      tag_535\n      jumpi\n      0x00\n      dup1\n      revert\n    tag_535:\n      pop\n      gas\n      call\n      iszero\n      dup1\n      iszero\n      tag_537\n      jumpi\n      returndatasize\n      0x00\n      dup1\n      returndatacopy\n      revert(0x00, returndatasize)\n    tag_537:\n      pop\n      pop\n      pop\n      pop\n      mload(0x40)\n      returndatasize\n      not(0x1f)\n      0x1f\n      dup3\n      add\n      and\n      dup3\n      add\n      dup1\n      0x40\n      mstore\n      pop\n      dup2\n      add\n      swap1\n      tag_538\n      swap2\n      swap1\n      tag_301\n      jump\t// in\n    tag_538:\n      pop\n        /* \"contracts/mirrorseaMain.sol\":10318:10329  order.state */\n      0x03\n      dup12\n      add\n        /* \"contracts/mirrorseaMain.sol\":10318:10338  order.state = _state */\n      dup11\n      swap1\n      sstore\n        /* \"contracts/mirrorseaMain.sol\":10348:10366  order.closePrice18 */\n      0x07\n      dup12\n      add\n        /* \"contracts/mirrorseaMain.sol\":10348:10377  order.closePrice18 = _price18 */\n      dup7\n      swap1\n      sstore\n        /* \"contracts/mirrorseaMain.sol\":10387:10402  order.closeTime */\n      0x08\n      dup12\n      add\n        /* \"contracts/mirrorseaMain.sol\":10387:10415  order.closeTime = _timestamp */\n      dup9\n      swap1\n      sstore\n        /* \"contracts/mirrorseaMain.sol\":10426:10482  cutListItem(_id, openOrderIdList_index, openOrderIdList) */\n      tag_539\n        /* \"contracts/mirrorseaMain.sol\":10438:10441  _id */\n      dup10\n        /* \"contracts/mirrorseaMain.sol\":10443:10464  openOrderIdList_index */\n      0x6d\n        /* \"contracts/mirrorseaMain.sol\":10466:10481  openOrderIdList */\n      0x6c\n        /* \"contracts/mirrorseaMain.sol\":10426:10437  cutListItem */\n      tag_540\n        /* \"contracts/mirrorseaMain.sol\":10426:10482  cutListItem(_id, openOrderIdList_index, openOrderIdList) */\n      jump\t// in\n    tag_539:\n        /* \"contracts/mirrorseaMain.sol\":10558:10568  msg.sender */\n      caller\n        /* \"contracts/mirrorseaMain.sol\":10534:10569  myOpenOrderIdList_index[msg.sender] */\n      0x00\n      swap1\n      dup2\n      mstore\n        /* \"contracts/mirrorseaMain.sol\":10534:10557  myOpenOrderIdList_index */\n      0x6f\n        /* \"contracts/mirrorseaMain.sol\":10534:10569  myOpenOrderIdList_index[msg.sender] */\n      0x20\n      swap1\n      dup2\n      mstore\n      0x40\n      dup1\n      dup4\n      keccak256\n        /* \"contracts/mirrorseaMain.sol\":10583:10600  myOpenOrderIdList */\n      0x6e\n        /* \"contracts/mirrorseaMain.sol\":10583:10612  myOpenOrderIdList[msg.sender] */\n      swap1\n      swap3\n      mstore\n      swap1\n      swap2\n      keccak256\n        /* \"contracts/mirrorseaMain.sol\":10492:10622  cutListItem(... */\n      tag_541\n      swap2\n        /* \"contracts/mirrorseaMain.sol\":10517:10520  _id */\n      dup12\n      swap2\n        /* \"contracts/mirrorseaMain.sol\":10492:10503  cutListItem */\n      tag_540\n        /* \"contracts/mirrorseaMain.sol\":10492:10622  cutListItem(... */\n      jump\t// in\n    tag_541:\n        /* \"contracts/mirrorseaMain.sol\":10652:10662  msg.sender */\n      caller\n        /* \"contracts/mirrorseaMain.sol\":10633:10663  myCloseOrderIdList[msg.sender] */\n      0x00\n      dup2\n      dup2\n      mstore\n        /* \"contracts/mirrorseaMain.sol\":10633:10651  myCloseOrderIdList */\n      0x70\n        /* \"contracts/mirrorseaMain.sol\":10633:10663  myCloseOrderIdList[msg.sender] */\n      0x20\n      swap1\n      dup2\n      mstore\n      0x40\n      dup3\n      keccak256\n        /* \"contracts/mirrorseaMain.sol\":10633:10673  myCloseOrderIdList[msg.sender].push(_id) */\n      dup1\n      sload\n      0x01\n      dup2\n      dup2\n      add\n      dup4\n      sstore\n      swap2\n      dup5\n      mstore\n      swap2\n      swap1\n      swap3\n      keccak256\n      add\n      dup12\n      swap1\n      sstore\n        /* \"contracts/mirrorseaMain.sol\":10728:10793  myCloseOrderIdListLength(... */\n      tag_543\n      swap2\n        /* \"contracts/mirrorseaMain.sol\":10728:10786  myCloseOrderIdListLength(... */\n      tag_190\n      swap1\n        /* \"contracts/mirrorseaMain.sol\":10728:10752  myCloseOrderIdListLength */\n      tag_135\n        /* \"contracts/mirrorseaMain.sol\":10728:10786  myCloseOrderIdListLength(... */\n      jump\t// in\n        /* \"contracts/mirrorseaMain.sol\":10728:10793  myCloseOrderIdListLength(... */\n    tag_543:\n        /* \"contracts/mirrorseaMain.sol\":10709:10719  msg.sender */\n      caller\n        /* \"contracts/mirrorseaMain.sol\":10684:10720  myCloseOrderIdList_index[msg.sender] */\n      0x00\n      swap1\n      dup2\n      mstore\n        /* \"contracts/mirrorseaMain.sol\":10684:10708  myCloseOrderIdList_index */\n      0x71\n        /* \"contracts/mirrorseaMain.sol\":10684:10720  myCloseOrderIdList_index[msg.sender] */\n      0x20\n      swap1\n      dup2\n      mstore\n      0x40\n      dup1\n      dup4\n      keccak256\n        /* \"contracts/mirrorseaMain.sol\":10684:10725  myCloseOrderIdList_index[msg.sender][_id] */\n      dup14\n      dup5\n      mstore\n      swap1\n      swap2\n      mstore\n      swap1\n      keccak256\n        /* \"contracts/mirrorseaMain.sol\":10684:10793  myCloseOrderIdList_index[msg.sender][_id] = myCloseOrderIdListLength(... */\n      sstore\n      pop\n        /* \"contracts/mirrorseaMain.sol\":11121:11125  true */\n      0x01\n      swap3\n      pop\n      pop\n      pop\n        /* \"contracts/mirrorseaMain.sol\":7379:11132  function _closePosition(... */\n      swap9\n      swap8\n      pop\n      pop\n      pop\n      pop\n      pop\n      pop\n      pop\n      pop\n      jump\t// out\n        /* \"@openzeppelin/contracts-upgradeable/access/OwnableUpgradeable.sol\":2536:2723  function _transferOwnership(address newOwner) internal virtual {... */\n    tag_275:\n        /* \"@openzeppelin/contracts-upgradeable/access/OwnableUpgradeable.sol\":2628:2634  _owner */\n      0x33\n      dup1\n      sload\n      sub(shl(0xa0, 0x01), 0x01)\n        /* \"@openzeppelin/contracts-upgradeable/access/OwnableUpgradeable.sol\":2644:2661  _owner = newOwner */\n      dup4\n      dup2\n      and\n      not(sub(shl(0xa0, 0x01), 0x01))\n      dup4\n      and\n      dup2\n      or\n      swap1\n      swap4\n      sstore\n        /* \"@openzeppelin/contracts-upgradeable/access/OwnableUpgradeable.sol\":2676:2716  OwnershipTransferred(oldOwner, newOwner) */\n      mload(0x40)\n        /* \"@openzeppelin/contracts-upgradeable/access/OwnableUpgradeable.sol\":2628:2634  _owner */\n      swap2\n      and\n      swap2\n        /* \"@openzeppelin/contracts-upgradeable/access/OwnableUpgradeable.sol\":2644:2661  _owner = newOwner */\n      swap1\n        /* \"@openzeppelin/contracts-upgradeable/access/OwnableUpgradeable.sol\":2628:2634  _owner */\n      dup3\n      swap1\n        /* \"@openzeppelin/contracts-upgradeable/access/OwnableUpgradeable.sol\":2676:2716  OwnershipTransferred(oldOwner, newOwner) */\n      0x8be0079c531659141344cd1fd0a4f28419497f9722a3daafe3b4186f6b6457e0\n      swap1\n        /* \"@openzeppelin/contracts-upgradeable/access/OwnableUpgradeable.sol\":2609:2625  address oldOwner */\n      0x00\n      swap1\n        /* \"@openzeppelin/contracts-upgradeable/access/OwnableUpgradeable.sol\":2676:2716  OwnershipTransferred(oldOwner, newOwner) */\n      log3\n        /* \"@openzeppelin/contracts-upgradeable/access/OwnableUpgradeable.sol\":2536:2723  function _transferOwnership(address newOwner) internal virtual {... */\n      pop\n      pop\n      jump\t// out\n        /* \"@openzeppelin/contracts-upgradeable/utils/math/SafeMathUpgradeable.sol\":3847:3943  function div(uint256 a, uint256 b) internal pure returns (uint256) {... */\n    tag_313:\n        /* \"@openzeppelin/contracts-upgradeable/utils/math/SafeMathUpgradeable.sol\":3905:3912  uint256 */\n      0x00\n        /* \"@openzeppelin/contracts-upgradeable/utils/math/SafeMathUpgradeable.sol\":3931:3936  a / b */\n      tag_418\n        /* \"@openzeppelin/contracts-upgradeable/utils/math/SafeMathUpgradeable.sol\":3935:3936  b */\n      dup3\n        /* \"@openzeppelin/contracts-upgradeable/utils/math/SafeMathUpgradeable.sol\":3931:3932  a */\n      dup5\n        /* \"@openzeppelin/contracts-upgradeable/utils/math/SafeMathUpgradeable.sol\":3931:3936  a / b */\n      tag_548\n      jump\t// in\n        /* \"@openzeppelin/contracts-upgradeable/utils/math/SafeMathUpgradeable.sol\":2752:2848  function add(uint256 a, uint256 b) internal pure returns (uint256) {... */\n    tag_320:\n        /* \"@openzeppelin/contracts-upgradeable/utils/math/SafeMathUpgradeable.sol\":2810:2817  uint256 */\n      0x00\n        /* \"@openzeppelin/contracts-upgradeable/utils/math/SafeMathUpgradeable.sol\":2836:2841  a + b */\n      tag_418\n        /* \"@openzeppelin/contracts-upgradeable/utils/math/SafeMathUpgradeable.sol\":2840:2841  b */\n      dup3\n        /* \"@openzeppelin/contracts-upgradeable/utils/math/SafeMathUpgradeable.sol\":2836:2837  a */\n      dup5\n        /* \"@openzeppelin/contracts-upgradeable/utils/math/SafeMathUpgradeable.sol\":2836:2841  a + b */\n      tag_433\n      jump\t// in\n        /* \"@openzeppelin/contracts-upgradeable/token/ERC20/utils/SafeERC20Upgradeable.sol\":967:1219  function safeTransferFrom(... */\n    tag_326:\n        /* \"@openzeppelin/contracts-upgradeable/token/ERC20/utils/SafeERC20Upgradeable.sol\":1116:1212  _callOptionalReturn(token, abi.encodeWithSelector(token.transferFrom.selector, from, to, value)) */\n      tag_552\n        /* \"@openzeppelin/contracts-upgradeable/token/ERC20/utils/SafeERC20Upgradeable.sol\":1136:1141  token */\n      dup5\n        /* \"@openzeppelin/contracts-upgradeable/token/ERC20/utils/SafeERC20Upgradeable.sol\":1166:1193  token.transferFrom.selector */\n      shl(0xe0, 0x23b872dd)\n        /* \"@openzeppelin/contracts-upgradeable/token/ERC20/utils/SafeERC20Upgradeable.sol\":1195:1199  from */\n      dup6\n        /* \"@openzeppelin/contracts-upgradeable/token/ERC20/utils/SafeERC20Upgradeable.sol\":1201:1203  to */\n      dup6\n        /* \"@openzeppelin/contracts-upgradeable/token/ERC20/utils/SafeERC20Upgradeable.sol\":1205:1210  value */\n      dup6\n        /* \"@openzeppelin/contracts-upgradeable/token/ERC20/utils/SafeERC20Upgradeable.sol\":1143:1211  abi.encodeWithSelector(token.transferFrom.selector, from, to, value) */\n      add(0x24, mload(0x40))\n      tag_553\n      swap4\n      swap3\n      swap2\n      swap1\n      tag_554\n      jump\t// in\n    tag_553:\n      0x40\n      dup1\n      mload\n      not(0x1f)\n      dup2\n      dup5\n      sub\n      add\n      dup2\n      mstore\n      swap2\n      swap1\n      mstore\n      0x20\n      dup2\n      add\n      dup1\n      mload\n      sub(shl(0xe0, 0x01), 0x01)\n      and\n      not(sub(shl(0xe0, 0x01), 0x01))\n      swap1\n      swap4\n      and\n      swap3\n      swap1\n      swap3\n      or\n      swap1\n      swap2\n      mstore\n        /* \"@openzeppelin/contracts-upgradeable/token/ERC20/utils/SafeERC20Upgradeable.sol\":1116:1135  _callOptionalReturn */\n      tag_555\n        /* \"@openzeppelin/contracts-upgradeable/token/ERC20/utils/SafeERC20Upgradeable.sol\":1116:1212  _callOptionalReturn(token, abi.encodeWithSelector(token.transferFrom.selector, from, to, value)) */\n      jump\t// in\n    tag_552:\n        /* \"@openzeppelin/contracts-upgradeable/token/ERC20/utils/SafeERC20Upgradeable.sol\":967:1219  function safeTransferFrom(... */\n      pop\n      pop\n      pop\n      pop\n      jump\t// out\n        /* \"@openzeppelin/contracts-upgradeable/token/ERC20/utils/SafeERC20Upgradeable.sol\":745:961  function safeTransfer(... */\n    tag_369:\n        /* \"@openzeppelin/contracts-upgradeable/token/ERC20/utils/SafeERC20Upgradeable.sol\":868:954  _callOptionalReturn(token, abi.encodeWithSelector(token.transfer.selector, to, value)) */\n      tag_557\n        /* \"@openzeppelin/contracts-upgradeable/token/ERC20/utils/SafeERC20Upgradeable.sol\":888:893  token */\n      dup4\n        /* \"@openzeppelin/contracts-upgradeable/token/ERC20/utils/SafeERC20Upgradeable.sol\":918:941  token.transfer.selector */\n      shl(0xe0, 0xa9059cbb)\n        /* \"@openzeppelin/contracts-upgradeable/token/ERC20/utils/SafeERC20Upgradeable.sol\":943:945  to */\n      dup5\n        /* \"@openzeppelin/contracts-upgradeable/token/ERC20/utils/SafeERC20Upgradeable.sol\":947:952  value */\n      dup5\n        /* \"@openzeppelin/contracts-upgradeable/token/ERC20/utils/SafeERC20Upgradeable.sol\":895:953  abi.encodeWithSelector(token.transfer.selector, to, value) */\n      add(0x24, mload(0x40))\n      tag_553\n      swap3\n      swap2\n      swap1\n      tag_335\n      jump\t// in\n        /* \"@openzeppelin/contracts-upgradeable/token/ERC20/utils/SafeERC20Upgradeable.sol\":868:954  _callOptionalReturn(token, abi.encodeWithSelector(token.transfer.selector, to, value)) */\n    tag_557:\n        /* \"@openzeppelin/contracts-upgradeable/token/ERC20/utils/SafeERC20Upgradeable.sol\":745:961  function safeTransfer(... */\n      pop\n      pop\n      pop\n      jump\t// out\n        /* \"@openzeppelin/contracts-upgradeable/access/OwnableUpgradeable.sol\":988:1114  function __Ownable_init() internal initializer {... */\n    tag_408:\n        /* \"@openzeppelin/contracts-upgradeable/proxy/utils/Initializable.sol\":539:552  _initializing */\n      sload(0x00)\n      0x0100\n      swap1\n      div\n      0xff\n      and\n      dup1\n        /* \"@openzeppelin/contracts-upgradeable/proxy/utils/Initializable.sol\":539:569  _initializing || !_initialized */\n      tag_560\n      jumpi\n      pop\n        /* \"@openzeppelin/contracts-upgradeable/proxy/utils/Initializable.sol\":557:569  _initialized */\n      and(0xff, sload(0x00))\n        /* \"@openzeppelin/contracts-upgradeable/proxy/utils/Initializable.sol\":556:569  !_initialized */\n      iszero\n        /* \"@openzeppelin/contracts-upgradeable/proxy/utils/Initializable.sol\":539:569  _initializing || !_initialized */\n    tag_560:\n        /* \"@openzeppelin/contracts-upgradeable/proxy/utils/Initializable.sol\":531:620  require(_initializing || !_initialized, \"Initializable: contract is already initialized\") */\n      tag_561\n      jumpi\n      mload(0x40)\n      shl(0xe5, 0x461bcd)\n      dup2\n      mstore\n      0x04\n      add\n      tag_200\n      swap1\n      tag_404\n      jump\t// in\n    tag_561:\n        /* \"@openzeppelin/contracts-upgradeable/proxy/utils/Initializable.sol\":631:650  bool isTopLevelCall */\n      0x00\n        /* \"@openzeppelin/contracts-upgradeable/proxy/utils/Initializable.sol\":654:667  _initializing */\n      sload\n      0x0100\n      swap1\n      div\n      0xff\n      and\n        /* \"@openzeppelin/contracts-upgradeable/proxy/utils/Initializable.sol\":653:667  !_initializing */\n      iszero\n        /* \"@openzeppelin/contracts-upgradeable/proxy/utils/Initializable.sol\":677:775  if (isTopLevelCall) {... */\n      dup1\n      iszero\n      tag_563\n      jumpi\n        /* \"@openzeppelin/contracts-upgradeable/proxy/utils/Initializable.sol\":711:724  _initializing */\n      0x00\n        /* \"@openzeppelin/contracts-upgradeable/proxy/utils/Initializable.sol\":711:731  _initializing = true */\n      dup1\n      sload\n      not(0xff)\n      not(0xff00)\n      swap1\n      swap2\n      and\n      0x0100\n      or\n        /* \"@openzeppelin/contracts-upgradeable/proxy/utils/Initializable.sol\":745:764  _initialized = true */\n      and\n        /* \"@openzeppelin/contracts-upgradeable/proxy/utils/Initializable.sol\":727:731  true */\n      0x01\n        /* \"@openzeppelin/contracts-upgradeable/proxy/utils/Initializable.sol\":745:764  _initialized = true */\n      or\n      swap1\n      sstore\n        /* \"@openzeppelin/contracts-upgradeable/proxy/utils/Initializable.sol\":677:775  if (isTopLevelCall) {... */\n    tag_563:\n        /* \"@openzeppelin/contracts-upgradeable/access/OwnableUpgradeable.sol\":1045:1071  __Context_init_unchained() */\n      tag_565\n        /* \"@openzeppelin/contracts-upgradeable/access/OwnableUpgradeable.sol\":1045:1069  __Context_init_unchained */\n      tag_566\n        /* \"@openzeppelin/contracts-upgradeable/access/OwnableUpgradeable.sol\":1045:1071  __Context_init_unchained() */\n      jump\t// in\n    tag_565:\n        /* \"@openzeppelin/contracts-upgradeable/access/OwnableUpgradeable.sol\":1081:1107  __Ownable_init_unchained() */\n      tag_567\n        /* \"@openzeppelin/contracts-upgradeable/access/OwnableUpgradeable.sol\":1081:1105  __Ownable_init_unchained */\n      tag_568\n        /* \"@openzeppelin/contracts-upgradeable/access/OwnableUpgradeable.sol\":1081:1107  __Ownable_init_unchained() */\n      jump\t// in\n    tag_567:\n        /* \"@openzeppelin/contracts-upgradeable/proxy/utils/Initializable.sol\":801:815  isTopLevelCall */\n      dup1\n        /* \"@openzeppelin/contracts-upgradeable/proxy/utils/Initializable.sol\":797:863  if (isTopLevelCall) {... */\n      iszero\n      tag_399\n      jumpi\n        /* \"@openzeppelin/contracts-upgradeable/proxy/utils/Initializable.sol\":847:852  false */\n      0x00\n        /* \"@openzeppelin/contracts-upgradeable/proxy/utils/Initializable.sol\":831:852  _initializing = false */\n      dup1\n      sload\n      not(0xff00)\n      and\n      swap1\n      sstore\n        /* \"@openzeppelin/contracts-upgradeable/access/OwnableUpgradeable.sol\":988:1114  function __Ownable_init() internal initializer {... */\n      pop\n      jump\t// out\n        /* \"contracts/mirrorseaMain.sol\":11736:12116  function cutListItem(... */\n    tag_540:\n        /* \"contracts/mirrorseaMain.sol\":11893:11909  uint256 delIndex */\n      0x00\n        /* \"contracts/mirrorseaMain.sol\":11912:11928  _List_index[_id] */\n      dup4\n      dup2\n      mstore\n      0x20\n      dup4\n      swap1\n      mstore\n      0x40\n      dup2\n      keccak256\n      sload\n        /* \"contracts/mirrorseaMain.sol\":11961:11973  _List.length */\n      dup3\n      sload\n        /* \"contracts/mirrorseaMain.sol\":11912:11928  _List_index[_id] */\n      swap1\n      swap2\n        /* \"contracts/mirrorseaMain.sol\":11893:11909  uint256 delIndex */\n      swap1\n        /* \"contracts/mirrorseaMain.sol\":11955:11960  _List */\n      dup4\n      swap1\n        /* \"contracts/mirrorseaMain.sol\":11961:11980  _List.length.sub(1) */\n      tag_571\n      swap1\n        /* \"contracts/mirrorseaMain.sol\":11978:11979  1 */\n      0x01\n        /* \"contracts/mirrorseaMain.sol\":11961:11977  _List.length.sub */\n      tag_192\n        /* \"contracts/mirrorseaMain.sol\":11961:11980  _List.length.sub(1) */\n      jump\t// in\n    tag_571:\n        /* \"contracts/mirrorseaMain.sol\":11955:11981  _List[_List.length.sub(1)] */\n      dup2\n      sload\n      dup2\n      lt\n      tag_572\n      jumpi\n      mstore(0x00, shl(0xe0, 0x4e487b71))\n      mstore(0x04, 0x32)\n      revert(0x00, 0x24)\n    tag_572:\n      swap1\n      0x00\n      mstore\n      keccak256(0x00, 0x20)\n      add\n      sload\n        /* \"contracts/mirrorseaMain.sol\":11938:11981  uint256 lastID = _List[_List.length.sub(1)] */\n      swap1\n      pop\n        /* \"contracts/mirrorseaMain.sol\":12013:12021  delIndex */\n      dup2\n        /* \"contracts/mirrorseaMain.sol\":11991:12002  _List_index */\n      dup5\n        /* \"contracts/mirrorseaMain.sol\":11991:12010  _List_index[lastID] */\n      0x00\n        /* \"contracts/mirrorseaMain.sol\":12003:12009  lastID */\n      dup4\n        /* \"contracts/mirrorseaMain.sol\":11991:12010  _List_index[lastID] */\n      dup2\n      mstore\n      0x20\n      add\n      swap1\n      dup2\n      mstore\n      0x20\n      add\n      0x00\n      keccak256\n        /* \"contracts/mirrorseaMain.sol\":11991:12021  _List_index[lastID] = delIndex */\n      dup2\n      swap1\n      sstore\n      pop\n        /* \"contracts/mirrorseaMain.sol\":12049:12055  lastID */\n      dup1\n        /* \"contracts/mirrorseaMain.sol\":12031:12036  _List */\n      dup4\n        /* \"contracts/mirrorseaMain.sol\":12037:12045  delIndex */\n      dup4\n        /* \"contracts/mirrorseaMain.sol\":12031:12046  _List[delIndex] */\n      dup2\n      sload\n      dup2\n      lt\n      tag_574\n      jumpi\n      mstore(0x00, shl(0xe0, 0x4e487b71))\n      mstore(0x04, 0x32)\n      revert(0x00, 0x24)\n    tag_574:\n      0x00\n      swap2\n      dup3\n      mstore\n      0x20\n      dup1\n      dup4\n      keccak256\n      swap1\n      swap2\n      add\n        /* \"contracts/mirrorseaMain.sol\":12031:12055  _List[delIndex] = lastID */\n      swap3\n      swap1\n      swap3\n      sstore\n        /* \"contracts/mirrorseaMain.sol\":12072:12088  _List_index[_id] */\n      dup7\n      dup2\n      mstore\n      swap1\n      dup6\n      swap1\n      mstore\n      0x40\n      dup2\n      keccak256\n        /* \"contracts/mirrorseaMain.sol\":12065:12088  delete _List_index[_id] */\n      sstore\n        /* \"contracts/mirrorseaMain.sol\":12098:12109  _List.pop() */\n      dup3\n      sload\n        /* \"contracts/mirrorseaMain.sol\":12098:12103  _List */\n      dup4\n      swap1\n        /* \"contracts/mirrorseaMain.sol\":12098:12109  _List.pop() */\n      dup1\n      tag_576\n      jumpi\n      mstore(0x00, shl(0xe0, 0x4e487b71))\n      mstore(0x04, 0x31)\n      revert(0x00, 0x24)\n    tag_576:\n      0x01\n      swap1\n      sub\n      dup2\n      dup2\n      swap1\n      0x00\n      mstore\n      keccak256(0x00, 0x20)\n      add\n      0x00\n      swap1\n      sstore\n      swap1\n      sstore\n        /* \"contracts/mirrorseaMain.sol\":11736:12116  function cutListItem(... */\n      pop\n      pop\n      pop\n      pop\n      pop\n      jump\t// out\n        /* \"@openzeppelin/contracts-upgradeable/token/ERC20/utils/SafeERC20Upgradeable.sol\":3306:4023  function _callOptionalReturn(IERC20Upgradeable token, bytes memory data) private {... */\n    tag_555:\n        /* \"@openzeppelin/contracts-upgradeable/token/ERC20/utils/SafeERC20Upgradeable.sol\":3736:3759  bytes memory returndata */\n      0x00\n        /* \"@openzeppelin/contracts-upgradeable/token/ERC20/utils/SafeERC20Upgradeable.sol\":3762:3831  address(token).functionCall(data, \"SafeERC20: low-level call failed\") */\n      tag_579\n        /* \"@openzeppelin/contracts-upgradeable/token/ERC20/utils/SafeERC20Upgradeable.sol\":3790:3794  data */\n      dup3\n        /* \"@openzeppelin/contracts-upgradeable/token/ERC20/utils/SafeERC20Upgradeable.sol\":3762:3831  address(token).functionCall(data, \"SafeERC20: low-level call failed\") */\n      mload(0x40)\n      dup1\n      0x40\n      add\n      0x40\n      mstore\n      dup1\n      0x20\n      dup2\n      mstore\n      0x20\n      add\n      0x5361666545524332303a206c6f772d6c6576656c2063616c6c206661696c6564\n      dup2\n      mstore\n      pop\n        /* \"@openzeppelin/contracts-upgradeable/token/ERC20/utils/SafeERC20Upgradeable.sol\":3770:3775  token */\n      dup6\n      sub(shl(0xa0, 0x01), 0x01)\n        /* \"@openzeppelin/contracts-upgradeable/token/ERC20/utils/SafeERC20Upgradeable.sol\":3762:3789  address(token).functionCall */\n      and\n      tag_580\n      swap1\n        /* \"@openzeppelin/contracts-upgradeable/token/ERC20/utils/SafeERC20Upgradeable.sol\":3762:3831  address(token).functionCall(data, \"SafeERC20: low-level call failed\") */\n      swap3\n      swap2\n      swap1\n      0xffffffff\n      and\n      jump\t// in\n    tag_579:\n        /* \"@openzeppelin/contracts-upgradeable/token/ERC20/utils/SafeERC20Upgradeable.sol\":3845:3862  returndata.length */\n      dup1\n      mload\n        /* \"@openzeppelin/contracts-upgradeable/token/ERC20/utils/SafeERC20Upgradeable.sol\":3736:3831  bytes memory returndata = address(token).functionCall(data, \"SafeERC20: low-level call failed\") */\n      swap1\n      swap2\n      pop\n        /* \"@openzeppelin/contracts-upgradeable/token/ERC20/utils/SafeERC20Upgradeable.sol\":3845:3866  returndata.length > 0 */\n      iszero\n        /* \"@openzeppelin/contracts-upgradeable/token/ERC20/utils/SafeERC20Upgradeable.sol\":3841:4017  if (returndata.length > 0) {... */\n      tag_557\n      jumpi\n        /* \"@openzeppelin/contracts-upgradeable/token/ERC20/utils/SafeERC20Upgradeable.sol\":3940:3950  returndata */\n      dup1\n        /* \"@openzeppelin/contracts-upgradeable/token/ERC20/utils/SafeERC20Upgradeable.sol\":3929:3959  abi.decode(returndata, (bool)) */\n      dup1\n      0x20\n      add\n      swap1\n      mload\n      dup2\n      add\n      swap1\n      tag_582\n      swap2\n      swap1\n      tag_301\n      jump\t// in\n    tag_582:\n        /* \"@openzeppelin/contracts-upgradeable/token/ERC20/utils/SafeERC20Upgradeable.sol\":3921:4006  require(abi.decode(returndata, (bool)), \"SafeERC20: ERC20 operation did not succeed\") */\n      tag_557\n      jumpi\n      mload(0x40)\n      shl(0xe5, 0x461bcd)\n      dup2\n      mstore\n      0x04\n      add\n      tag_200\n      swap1\n      tag_585\n      jump\t// in\n        /* \"@openzeppelin/contracts-upgradeable/utils/ContextUpgradeable.sol\":807:871  function __Context_init_unchained() internal initializer {... */\n    tag_566:\n        /* \"@openzeppelin/contracts-upgradeable/proxy/utils/Initializable.sol\":539:552  _initializing */\n      sload(0x00)\n      0x0100\n      swap1\n      div\n      0xff\n      and\n      dup1\n        /* \"@openzeppelin/contracts-upgradeable/proxy/utils/Initializable.sol\":539:569  _initializing || !_initialized */\n      tag_587\n      jumpi\n      pop\n        /* \"@openzeppelin/contracts-upgradeable/proxy/utils/Initializable.sol\":557:569  _initialized */\n      and(0xff, sload(0x00))\n        /* \"@openzeppelin/contracts-upgradeable/proxy/utils/Initializable.sol\":556:569  !_initialized */\n      iszero\n        /* \"@openzeppelin/contracts-upgradeable/proxy/utils/Initializable.sol\":539:569  _initializing || !_initialized */\n    tag_587:\n        /* \"@openzeppelin/contracts-upgradeable/proxy/utils/Initializable.sol\":531:620  require(_initializing || !_initialized, \"Initializable: contract is already initialized\") */\n      tag_588\n      jumpi\n      mload(0x40)\n      shl(0xe5, 0x461bcd)\n      dup2\n      mstore\n      0x04\n      add\n      tag_200\n      swap1\n      tag_404\n      jump\t// in\n    tag_588:\n        /* \"@openzeppelin/contracts-upgradeable/proxy/utils/Initializable.sol\":631:650  bool isTopLevelCall */\n      0x00\n        /* \"@openzeppelin/contracts-upgradeable/proxy/utils/Initializable.sol\":654:667  _initializing */\n      sload\n      0x0100\n      swap1\n      div\n      0xff\n      and\n        /* \"@openzeppelin/contracts-upgradeable/proxy/utils/Initializable.sol\":653:667  !_initializing */\n      iszero\n        /* \"@openzeppelin/contracts-upgradeable/proxy/utils/Initializable.sol\":677:775  if (isTopLevelCall) {... */\n      dup1\n      iszero\n      tag_567\n      jumpi\n        /* \"@openzeppelin/contracts-upgradeable/proxy/utils/Initializable.sol\":711:724  _initializing */\n      0x00\n        /* \"@openzeppelin/contracts-upgradeable/proxy/utils/Initializable.sol\":711:731  _initializing = true */\n      dup1\n      sload\n      not(0xff)\n      not(0xff00)\n      swap1\n      swap2\n      and\n      0x0100\n      or\n        /* \"@openzeppelin/contracts-upgradeable/proxy/utils/Initializable.sol\":745:764  _initialized = true */\n      and\n        /* \"@openzeppelin/contracts-upgradeable/proxy/utils/Initializable.sol\":727:731  true */\n      0x01\n        /* \"@openzeppelin/contracts-upgradeable/proxy/utils/Initializable.sol\":745:764  _initialized = true */\n      or\n      swap1\n      sstore\n        /* \"@openzeppelin/contracts-upgradeable/proxy/utils/Initializable.sol\":801:815  isTopLevelCall */\n      dup1\n        /* \"@openzeppelin/contracts-upgradeable/proxy/utils/Initializable.sol\":797:863  if (isTopLevelCall) {... */\n      iszero\n      tag_399\n      jumpi\n        /* \"@openzeppelin/contracts-upgradeable/proxy/utils/Initializable.sol\":847:852  false */\n      0x00\n        /* \"@openzeppelin/contracts-upgradeable/proxy/utils/Initializable.sol\":831:852  _initializing = false */\n      dup1\n      sload\n      not(0xff00)\n      and\n      swap1\n      sstore\n        /* \"@openzeppelin/contracts-upgradeable/utils/ContextUpgradeable.sol\":807:871  function __Context_init_unchained() internal initializer {... */\n      pop\n      jump\t// out\n        /* \"@openzeppelin/contracts-upgradeable/access/OwnableUpgradeable.sol\":1120:1226  function __Ownable_init_unchained() internal initializer {... */\n    tag_568:\n        /* \"@openzeppelin/contracts-upgradeable/proxy/utils/Initializable.sol\":539:552  _initializing */\n      sload(0x00)\n      0x0100\n      swap1\n      div\n      0xff\n      and\n      dup1\n        /* \"@openzeppelin/contracts-upgradeable/proxy/utils/Initializable.sol\":539:569  _initializing || !_initialized */\n      tag_594\n      jumpi\n      pop\n        /* \"@openzeppelin/contracts-upgradeable/proxy/utils/Initializable.sol\":557:569  _initialized */\n      and(0xff, sload(0x00))\n        /* \"@openzeppelin/contracts-upgradeable/proxy/utils/Initializable.sol\":556:569  !_initialized */\n      iszero\n        /* \"@openzeppelin/contracts-upgradeable/proxy/utils/Initializable.sol\":539:569  _initializing || !_initialized */\n    tag_594:\n        /* \"@openzeppelin/contracts-upgradeable/proxy/utils/Initializable.sol\":531:620  require(_initializing || !_initialized, \"Initializable: contract is already initialized\") */\n      tag_595\n      jumpi\n      mload(0x40)\n      shl(0xe5, 0x461bcd)\n      dup2\n      mstore\n      0x04\n      add\n      tag_200\n      swap1\n      tag_404\n      jump\t// in\n    tag_595:\n        /* \"@openzeppelin/contracts-upgradeable/proxy/utils/Initializable.sol\":631:650  bool isTopLevelCall */\n      0x00\n        /* \"@openzeppelin/contracts-upgradeable/proxy/utils/Initializable.sol\":654:667  _initializing */\n      sload\n      0x0100\n      swap1\n      div\n      0xff\n      and\n        /* \"@openzeppelin/contracts-upgradeable/proxy/utils/Initializable.sol\":653:667  !_initializing */\n      iszero\n        /* \"@openzeppelin/contracts-upgradeable/proxy/utils/Initializable.sol\":677:775  if (isTopLevelCall) {... */\n      dup1\n      iszero\n      tag_597\n      jumpi\n        /* \"@openzeppelin/contracts-upgradeable/proxy/utils/Initializable.sol\":711:724  _initializing */\n      0x00\n        /* \"@openzeppelin/contracts-upgradeable/proxy/utils/Initializable.sol\":711:731  _initializing = true */\n      dup1\n      sload\n      not(0xff)\n      not(0xff00)\n      swap1\n      swap2\n      and\n      0x0100\n      or\n        /* \"@openzeppelin/contracts-upgradeable/proxy/utils/Initializable.sol\":745:764  _initialized = true */\n      and\n        /* \"@openzeppelin/contracts-upgradeable/proxy/utils/Initializable.sol\":727:731  true */\n      0x01\n        /* \"@openzeppelin/contracts-upgradeable/proxy/utils/Initializable.sol\":745:764  _initialized = true */\n      or\n      swap1\n      sstore\n        /* \"@openzeppelin/contracts-upgradeable/proxy/utils/Initializable.sol\":677:775  if (isTopLevelCall) {... */\n    tag_597:\n        /* \"@openzeppelin/contracts-upgradeable/access/OwnableUpgradeable.sol\":1187:1219  _transferOwnership(_msgSender()) */\n      tag_567\n        /* \"@openzeppelin/contracts-upgradeable/access/OwnableUpgradeable.sol\":1206:1218  _msgSender() */\n      tag_600\n        /* \"@openzeppelin/contracts-upgradeable/access/OwnableUpgradeable.sol\":1206:1216  _msgSender */\n      tag_220\n        /* \"@openzeppelin/contracts-upgradeable/access/OwnableUpgradeable.sol\":1206:1218  _msgSender() */\n      jump\t// in\n    tag_600:\n        /* \"@openzeppelin/contracts-upgradeable/access/OwnableUpgradeable.sol\":1187:1205  _transferOwnership */\n      tag_275\n        /* \"@openzeppelin/contracts-upgradeable/access/OwnableUpgradeable.sol\":1187:1219  _transferOwnership(_msgSender()) */\n      jump\t// in\n        /* \"@openzeppelin/contracts-upgradeable/utils/AddressUpgradeable.sol\":3525:3748  function functionCall(... */\n    tag_580:\n        /* \"@openzeppelin/contracts-upgradeable/utils/AddressUpgradeable.sol\":3658:3670  bytes memory */\n      0x60\n        /* \"@openzeppelin/contracts-upgradeable/utils/AddressUpgradeable.sol\":3689:3741  functionCallWithValue(target, data, 0, errorMessage) */\n      tag_603\n        /* \"@openzeppelin/contracts-upgradeable/utils/AddressUpgradeable.sol\":3711:3717  target */\n      dup5\n        /* \"@openzeppelin/contracts-upgradeable/utils/AddressUpgradeable.sol\":3719:3723  data */\n      dup5\n        /* \"@openzeppelin/contracts-upgradeable/utils/AddressUpgradeable.sol\":3725:3726  0 */\n      0x00\n        /* \"@openzeppelin/contracts-upgradeable/utils/AddressUpgradeable.sol\":3728:3740  errorMessage */\n      dup6\n        /* \"@openzeppelin/contracts-upgradeable/utils/AddressUpgradeable.sol\":3689:3710  functionCallWithValue */\n      tag_604\n        /* \"@openzeppelin/contracts-upgradeable/utils/AddressUpgradeable.sol\":3689:3741  functionCallWithValue(target, data, 0, errorMessage) */\n      jump\t// in\n    tag_603:\n        /* \"@openzeppelin/contracts-upgradeable/utils/AddressUpgradeable.sol\":3682:3741  return functionCallWithValue(target, data, 0, errorMessage) */\n      swap5\n        /* \"@openzeppelin/contracts-upgradeable/utils/AddressUpgradeable.sol\":3525:3748  function functionCall(... */\n      swap4\n      pop\n      pop\n      pop\n      pop\n      jump\t// out\n        /* \"@openzeppelin/contracts-upgradeable/utils/AddressUpgradeable.sol\":4612:5111  function functionCallWithValue(... */\n    tag_604:\n        /* \"@openzeppelin/contracts-upgradeable/utils/AddressUpgradeable.sol\":4777:4789  bytes memory */\n      0x60\n        /* \"@openzeppelin/contracts-upgradeable/utils/AddressUpgradeable.sol\":4834:4839  value */\n      dup3\n        /* \"@openzeppelin/contracts-upgradeable/utils/AddressUpgradeable.sol\":4809:4830  address(this).balance */\n      selfbalance\n        /* \"@openzeppelin/contracts-upgradeable/utils/AddressUpgradeable.sol\":4809:4839  address(this).balance >= value */\n      lt\n      iszero\n        /* \"@openzeppelin/contracts-upgradeable/utils/AddressUpgradeable.sol\":4801:4882  require(address(this).balance >= value, \"Address: insufficient balance for call\") */\n      tag_606\n      jumpi\n      mload(0x40)\n      shl(0xe5, 0x461bcd)\n      dup2\n      mstore\n      0x04\n      add\n      tag_200\n      swap1\n      tag_608\n      jump\t// in\n    tag_606:\n        /* \"@openzeppelin/contracts-upgradeable/utils/AddressUpgradeable.sol\":4900:4918  isContract(target) */\n      tag_609\n        /* \"@openzeppelin/contracts-upgradeable/utils/AddressUpgradeable.sol\":4911:4917  target */\n      dup6\n        /* \"@openzeppelin/contracts-upgradeable/utils/AddressUpgradeable.sol\":4900:4910  isContract */\n      tag_610\n        /* \"@openzeppelin/contracts-upgradeable/utils/AddressUpgradeable.sol\":4900:4918  isContract(target) */\n      jump\t// in\n    tag_609:\n        /* \"@openzeppelin/contracts-upgradeable/utils/AddressUpgradeable.sol\":4892:4952  require(isContract(target), \"Address: call to non-contract\") */\n      tag_611\n      jumpi\n      mload(0x40)\n      shl(0xe5, 0x461bcd)\n      dup2\n      mstore\n      0x04\n      add\n      tag_200\n      swap1\n      tag_613\n      jump\t// in\n    tag_611:\n        /* \"@openzeppelin/contracts-upgradeable/utils/AddressUpgradeable.sol\":4964:4976  bool success */\n      0x00\n        /* \"@openzeppelin/contracts-upgradeable/utils/AddressUpgradeable.sol\":4978:5001  bytes memory returndata */\n      dup1\n        /* \"@openzeppelin/contracts-upgradeable/utils/AddressUpgradeable.sol\":5005:5011  target */\n      dup7\n      sub(shl(0xa0, 0x01), 0x01)\n        /* \"@openzeppelin/contracts-upgradeable/utils/AddressUpgradeable.sol\":5005:5016  target.call */\n      and\n        /* \"@openzeppelin/contracts-upgradeable/utils/AddressUpgradeable.sol\":5024:5029  value */\n      dup6\n        /* \"@openzeppelin/contracts-upgradeable/utils/AddressUpgradeable.sol\":5031:5035  data */\n      dup8\n        /* \"@openzeppelin/contracts-upgradeable/utils/AddressUpgradeable.sol\":5005:5036  target.call{value: value}(data) */\n      mload(0x40)\n      tag_614\n      swap2\n      swap1\n      tag_615\n      jump\t// in\n    tag_614:\n      0x00\n      mload(0x40)\n      dup1\n      dup4\n      sub\n      dup2\n      dup6\n      dup8\n      gas\n      call\n      swap3\n      pop\n      pop\n      pop\n      returndatasize\n      dup1\n      0x00\n      dup2\n      eq\n      tag_618\n      jumpi\n      mload(0x40)\n      swap2\n      pop\n      and(add(returndatasize, 0x3f), not(0x1f))\n      dup3\n      add\n      0x40\n      mstore\n      returndatasize\n      dup3\n      mstore\n      returndatasize\n      0x00\n      0x20\n      dup5\n      add\n      returndatacopy\n      jump(tag_617)\n    tag_618:\n      0x60\n      swap2\n      pop\n    tag_617:\n      pop\n        /* \"@openzeppelin/contracts-upgradeable/utils/AddressUpgradeable.sol\":4963:5036  (bool success, bytes memory returndata) = target.call{value: value}(data) */\n      swap2\n      pop\n      swap2\n      pop\n        /* \"@openzeppelin/contracts-upgradeable/utils/AddressUpgradeable.sol\":5053:5104  verifyCallResult(success, returndata, errorMessage) */\n      tag_619\n        /* \"@openzeppelin/contracts-upgradeable/utils/AddressUpgradeable.sol\":5070:5077  success */\n      dup3\n        /* \"@openzeppelin/contracts-upgradeable/utils/AddressUpgradeable.sol\":5079:5089  returndata */\n      dup3\n        /* \"@openzeppelin/contracts-upgradeable/utils/AddressUpgradeable.sol\":5091:5103  errorMessage */\n      dup7\n        /* \"@openzeppelin/contracts-upgradeable/utils/AddressUpgradeable.sol\":5053:5069  verifyCallResult */\n      tag_620\n        /* \"@openzeppelin/contracts-upgradeable/utils/AddressUpgradeable.sol\":5053:5104  verifyCallResult(success, returndata, errorMessage) */\n      jump\t// in\n    tag_619:\n        /* \"@openzeppelin/contracts-upgradeable/utils/AddressUpgradeable.sol\":5046:5104  return verifyCallResult(success, returndata, errorMessage) */\n      swap8\n        /* \"@openzeppelin/contracts-upgradeable/utils/AddressUpgradeable.sol\":4612:5111  function functionCallWithValue(... */\n      swap7\n      pop\n      pop\n      pop\n      pop\n      pop\n      pop\n      pop\n      jump\t// out\n        /* \"@openzeppelin/contracts-upgradeable/utils/AddressUpgradeable.sol\":782:1159  function isContract(address account) internal view returns (bool) {... */\n    tag_610:\n        /* \"@openzeppelin/contracts-upgradeable/utils/AddressUpgradeable.sol\":1098:1118  extcodesize(account) */\n      extcodesize\n        /* \"@openzeppelin/contracts-upgradeable/utils/AddressUpgradeable.sol\":1144:1152  size > 0 */\n      iszero\n      iszero\n      swap1\n        /* \"@openzeppelin/contracts-upgradeable/utils/AddressUpgradeable.sol\":782:1159  function isContract(address account) internal view returns (bool) {... */\n      jump\t// out\n        /* \"@openzeppelin/contracts-upgradeable/utils/AddressUpgradeable.sol\":6275:6967  function verifyCallResult(... */\n    tag_620:\n        /* \"@openzeppelin/contracts-upgradeable/utils/AddressUpgradeable.sol\":6421:6433  bytes memory */\n      0x60\n        /* \"@openzeppelin/contracts-upgradeable/utils/AddressUpgradeable.sol\":6449:6456  success */\n      dup4\n        /* \"@openzeppelin/contracts-upgradeable/utils/AddressUpgradeable.sol\":6445:6961  if (success) {... */\n      iszero\n      tag_623\n      jumpi\n      pop\n        /* \"@openzeppelin/contracts-upgradeable/utils/AddressUpgradeable.sol\":6479:6489  returndata */\n      dup2\n        /* \"@openzeppelin/contracts-upgradeable/utils/AddressUpgradeable.sol\":6472:6489  return returndata */\n      jump(tag_418)\n        /* \"@openzeppelin/contracts-upgradeable/utils/AddressUpgradeable.sol\":6445:6961  if (success) {... */\n    tag_623:\n        /* \"@openzeppelin/contracts-upgradeable/utils/AddressUpgradeable.sol\":6590:6607  returndata.length */\n      dup3\n      mload\n        /* \"@openzeppelin/contracts-upgradeable/utils/AddressUpgradeable.sol\":6590:6611  returndata.length > 0 */\n      iszero\n        /* \"@openzeppelin/contracts-upgradeable/utils/AddressUpgradeable.sol\":6586:6951  if (returndata.length > 0) {... */\n      tag_625\n      jumpi\n        /* \"@openzeppelin/contracts-upgradeable/utils/AddressUpgradeable.sol\":6784:6794  returndata */\n      dup3\n        /* \"@openzeppelin/contracts-upgradeable/utils/AddressUpgradeable.sol\":6778:6795  mload(returndata) */\n      mload\n        /* \"@openzeppelin/contracts-upgradeable/utils/AddressUpgradeable.sol\":6844:6859  returndata_size */\n      dup1\n        /* \"@openzeppelin/contracts-upgradeable/utils/AddressUpgradeable.sol\":6831:6841  returndata */\n      dup5\n        /* \"@openzeppelin/contracts-upgradeable/utils/AddressUpgradeable.sol\":6827:6829  32 */\n      0x20\n        /* \"@openzeppelin/contracts-upgradeable/utils/AddressUpgradeable.sol\":6823:6842  add(32, returndata) */\n      add\n        /* \"@openzeppelin/contracts-upgradeable/utils/AddressUpgradeable.sol\":6816:6860  revert(add(32, returndata), returndata_size) */\n      revert\n        /* \"@openzeppelin/contracts-upgradeable/utils/AddressUpgradeable.sol\":6733:6878  {... */\n    tag_625:\n        /* \"@openzeppelin/contracts-upgradeable/utils/AddressUpgradeable.sol\":6923:6935  errorMessage */\n      dup2\n        /* \"@openzeppelin/contracts-upgradeable/utils/AddressUpgradeable.sol\":6916:6936  revert(errorMessage) */\n      mload(0x40)\n      shl(0xe5, 0x461bcd)\n      dup2\n      mstore\n      0x04\n      add\n      tag_200\n      swap2\n      swap1\n      tag_628\n      jump\t// in\n    tag_249:\n      mload(0x40)\n      dup1\n      0x0160\n      add\n      0x40\n      mstore\n      dup1\n      and(sub(shl(0xa0, 0x01), 0x01), 0x00)\n      dup2\n      mstore\n      0x20\n      add\n      0x00\n      dup2\n      mstore\n      0x20\n      add\n      0x60\n      dup2\n      mstore\n      0x20\n      add\n      0x00\n      dup2\n      mstore\n      0x20\n      add\n      0x00\n      dup2\n      mstore\n      0x20\n      add\n      0x00\n      dup2\n      mstore\n      0x20\n      add\n      0x00\n      dup2\n      mstore\n      0x20\n      add\n      0x00\n      dup2\n      mstore\n      0x20\n      add\n      0x00\n      dup2\n      mstore\n      0x20\n      add\n      0x00\n      dup2\n      mstore\n      0x20\n      add\n      0x00\n      dup2\n      mstore\n      pop\n      swap1\n      jump\t// out\n    tag_385:\n      dup3\n      dup1\n      sload\n      tag_629\n      swap1\n      tag_252\n      jump\t// in\n    tag_629:\n      swap1\n      0x00\n      mstore\n      keccak256(0x00, 0x20)\n      swap1\n      0x1f\n      add\n      0x20\n      swap1\n      div\n      dup2\n      add\n      swap3\n      dup3\n      tag_631\n      jumpi\n      0x00\n      dup6\n      sstore\n      jump(tag_634)\n    tag_631:\n      dup3\n      0x1f\n      lt\n      tag_632\n      jumpi\n      dup1\n      mload\n      not(0xff)\n      and\n      dup4\n      dup1\n      add\n      or\n      dup6\n      sstore\n      jump(tag_634)\n    tag_632:\n      dup3\n      dup1\n      add\n      0x01\n      add\n      dup6\n      sstore\n      dup3\n      iszero\n      tag_634\n      jumpi\n      swap2\n      dup3\n      add\n    tag_633:\n      dup3\n      dup2\n      gt\n      iszero\n      tag_634\n      jumpi\n      dup3\n      mload\n      dup3\n      sstore\n      swap2\n      0x20\n      add\n      swap2\n      swap1\n      0x01\n      add\n      swap1\n      jump(tag_633)\n    tag_634:\n      pop\n      tag_635\n      swap3\n      swap2\n      pop\n      tag_636\n      jump\t// in\n    tag_635:\n      pop\n      swap1\n      jump\t// out\n    tag_636:\n    tag_637:\n      dup1\n      dup3\n      gt\n      iszero\n      tag_635\n      jumpi\n      0x00\n      dup2\n      sstore\n      0x01\n      add\n      jump(tag_637)\n        /* \"#utility.yul\":14:152   */\n    tag_640:\n        /* \"#utility.yul\":84:104   */\n      dup1\n      calldataload\n        /* \"#utility.yul\":113:146   */\n      tag_250\n        /* \"#utility.yul\":84:104   */\n      dup2\n        /* \"#utility.yul\":113:146   */\n      tag_643\n      jump\t// in\n        /* \"#utility.yul\":157:826   */\n    tag_644:\n      0x00\n        /* \"#utility.yul\":268:271   */\n      dup3\n        /* \"#utility.yul\":261:265   */\n      0x1f\n        /* \"#utility.yul\":253:259   */\n      dup4\n        /* \"#utility.yul\":249:266   */\n      add\n        /* \"#utility.yul\":245:272   */\n      slt\n        /* \"#utility.yul\":235:237   */\n      tag_646\n      jumpi\n        /* \"#utility.yul\":290:295   */\n      dup1\n        /* \"#utility.yul\":283:288   */\n      dup2\n        /* \"#utility.yul\":276:296   */\n      revert\n        /* \"#utility.yul\":235:237   */\n    tag_646:\n        /* \"#utility.yul\":330:336   */\n      dup2\n        /* \"#utility.yul\":317:337   */\n      calldataload\n        /* \"#utility.yul\":356:360   */\n      0x20\n        /* \"#utility.yul\":380:443   */\n      tag_647\n        /* \"#utility.yul\":395:442   */\n      tag_648\n        /* \"#utility.yul\":439:441   */\n      dup4\n        /* \"#utility.yul\":395:442   */\n      tag_649\n      jump\t// in\n    tag_648:\n        /* \"#utility.yul\":380:443   */\n      tag_650\n      jump\t// in\n    tag_647:\n        /* \"#utility.yul\":477:492   */\n      dup3\n      dup2\n      mstore\n        /* \"#utility.yul\":508:520   */\n      dup2\n      dup2\n      add\n      swap1\n        /* \"#utility.yul\":540:555   */\n      dup6\n      dup4\n      add\n        /* \"#utility.yul\":573:578   */\n      dup6\n        /* \"#utility.yul\":587:797   */\n    tag_651:\n        /* \"#utility.yul\":601:603   */\n      dup6\n        /* \"#utility.yul\":598:599   */\n      dup2\n        /* \"#utility.yul\":595:604   */\n      lt\n        /* \"#utility.yul\":587:797   */\n      iszero\n      tag_653\n      jumpi\n        /* \"#utility.yul\":658:722   */\n      tag_654\n        /* \"#utility.yul\":718:721   */\n      dup10\n        /* \"#utility.yul\":713:715   */\n      dup7\n        /* \"#utility.yul\":706:709   */\n      dup5\n        /* \"#utility.yul\":693:710   */\n      calldataload\n        /* \"#utility.yul\":685:691   */\n      dup12\n        /* \"#utility.yul\":681:711   */\n      add\n        /* \"#utility.yul\":677:716   */\n      add\n        /* \"#utility.yul\":658:722   */\n      tag_655\n      jump\t// in\n    tag_654:\n        /* \"#utility.yul\":646:723   */\n      dup5\n      mstore\n        /* \"#utility.yul\":743:755   */\n      swap3\n      dup5\n      add\n      swap3\n        /* \"#utility.yul\":775:787   */\n      swap1\n      dup5\n      add\n      swap1\n        /* \"#utility.yul\":619:620   */\n      0x01\n        /* \"#utility.yul\":612:621   */\n      add\n        /* \"#utility.yul\":587:797   */\n      jump(tag_651)\n    tag_653:\n      pop\n        /* \"#utility.yul\":815:820   */\n      swap1\n      swap8\n        /* \"#utility.yul\":225:826   */\n      swap7\n      pop\n      pop\n      pop\n      pop\n      pop\n      pop\n      pop\n      jump\t// out\n        /* \"#utility.yul\":831:1534   */\n    tag_656:\n      0x00\n        /* \"#utility.yul\":944:947   */\n      dup3\n        /* \"#utility.yul\":937:941   */\n      0x1f\n        /* \"#utility.yul\":929:935   */\n      dup4\n        /* \"#utility.yul\":925:942   */\n      add\n        /* \"#utility.yul\":921:948   */\n      slt\n        /* \"#utility.yul\":911:913   */\n      tag_658\n      jumpi\n        /* \"#utility.yul\":966:971   */\n      dup1\n        /* \"#utility.yul\":959:964   */\n      dup2\n        /* \"#utility.yul\":952:972   */\n      revert\n        /* \"#utility.yul\":911:913   */\n    tag_658:\n        /* \"#utility.yul\":1006:1012   */\n      dup2\n        /* \"#utility.yul\":993:1013   */\n      calldataload\n        /* \"#utility.yul\":1032:1036   */\n      0x20\n        /* \"#utility.yul\":1056:1119   */\n      tag_659\n        /* \"#utility.yul\":1071:1118   */\n      tag_648\n        /* \"#utility.yul\":1115:1117   */\n      dup4\n        /* \"#utility.yul\":1071:1118   */\n      tag_649\n      jump\t// in\n        /* \"#utility.yul\":1056:1119   */\n    tag_659:\n        /* \"#utility.yul\":1153:1168   */\n      dup3\n      dup2\n      mstore\n        /* \"#utility.yul\":1184:1196   */\n      dup2\n      dup2\n      add\n      swap1\n        /* \"#utility.yul\":1216:1231   */\n      dup6\n      dup4\n      add\n        /* \"#utility.yul\":1262:1273   */\n      dup4\n      dup6\n      mul\n        /* \"#utility.yul\":1250:1274   */\n      dup8\n      add\n        /* \"#utility.yul\":1246:1279   */\n      dup5\n      add\n        /* \"#utility.yul\":1243:1285   */\n      dup9\n      lt\n        /* \"#utility.yul\":1240:1242   */\n      iszero\n      tag_661\n      jumpi\n        /* \"#utility.yul\":1302:1307   */\n      dup6\n        /* \"#utility.yul\":1295:1300   */\n      dup7\n        /* \"#utility.yul\":1288:1308   */\n      revert\n        /* \"#utility.yul\":1240:1242   */\n    tag_661:\n        /* \"#utility.yul\":1328:1333   */\n      dup6\n        /* \"#utility.yul\":1342:1505   */\n    tag_662:\n        /* \"#utility.yul\":1356:1358   */\n      dup6\n        /* \"#utility.yul\":1353:1354   */\n      dup2\n        /* \"#utility.yul\":1350:1359   */\n      lt\n        /* \"#utility.yul\":1342:1505   */\n      iszero\n      tag_653\n      jumpi\n        /* \"#utility.yul\":1413:1430   */\n      dup2\n      calldataload\n        /* \"#utility.yul\":1401:1431   */\n      dup5\n      mstore\n        /* \"#utility.yul\":1451:1463   */\n      swap3\n      dup5\n      add\n      swap3\n        /* \"#utility.yul\":1483:1495   */\n      swap1\n      dup5\n      add\n      swap1\n        /* \"#utility.yul\":1374:1375   */\n      0x01\n        /* \"#utility.yul\":1367:1376   */\n      add\n        /* \"#utility.yul\":1342:1505   */\n      jump(tag_662)\n        /* \"#utility.yul\":1539:1671   */\n    tag_665:\n        /* \"#utility.yul\":1606:1626   */\n      dup1\n      calldataload\n        /* \"#utility.yul\":1635:1665   */\n      tag_250\n        /* \"#utility.yul\":1606:1626   */\n      dup2\n        /* \"#utility.yul\":1635:1665   */\n      tag_668\n      jump\t// in\n        /* \"#utility.yul\":1676:2227   */\n    tag_655:\n      0x00\n        /* \"#utility.yul\":1773:1776   */\n      dup3\n        /* \"#utility.yul\":1766:1770   */\n      0x1f\n        /* \"#utility.yul\":1758:1764   */\n      dup4\n        /* \"#utility.yul\":1754:1771   */\n      add\n        /* \"#utility.yul\":1750:1777   */\n      slt\n        /* \"#utility.yul\":1740:1742   */\n      tag_670\n      jumpi\n        /* \"#utility.yul\":1795:1800   */\n      dup1\n        /* \"#utility.yul\":1788:1793   */\n      dup2\n        /* \"#utility.yul\":1781:1801   */\n      revert\n        /* \"#utility.yul\":1740:1742   */\n    tag_670:\n        /* \"#utility.yul\":1835:1841   */\n      dup2\n        /* \"#utility.yul\":1822:1842   */\n      calldataload\n        /* \"#utility.yul\":1861:1879   */\n      0xffffffffffffffff\n        /* \"#utility.yul\":1857:1859   */\n      dup2\n        /* \"#utility.yul\":1854:1880   */\n      gt\n        /* \"#utility.yul\":1851:1853   */\n      iszero\n      tag_672\n      jumpi\n        /* \"#utility.yul\":1883:1901   */\n      tag_672\n      tag_673\n      jump\t// in\n    tag_672:\n        /* \"#utility.yul\":1927:1981   */\n      tag_674\n        /* \"#utility.yul\":1969:1971   */\n      0x1f\n        /* \"#utility.yul\":1950:1963   */\n      dup3\n      add\n      not(0x1f)\n        /* \"#utility.yul\":1946:1973   */\n      and\n        /* \"#utility.yul\":1975:1979   */\n      0x20\n        /* \"#utility.yul\":1942:1980   */\n      add\n        /* \"#utility.yul\":1927:1981   */\n      tag_650\n      jump\t// in\n    tag_674:\n        /* \"#utility.yul\":2006:2008   */\n      dup2\n        /* \"#utility.yul\":1997:2004   */\n      dup2\n        /* \"#utility.yul\":1990:2009   */\n      mstore\n        /* \"#utility.yul\":2052:2055   */\n      dup5\n        /* \"#utility.yul\":2045:2049   */\n      0x20\n        /* \"#utility.yul\":2040:2042   */\n      dup4\n        /* \"#utility.yul\":2032:2038   */\n      dup7\n        /* \"#utility.yul\":2028:2043   */\n      add\n        /* \"#utility.yul\":2024:2050   */\n      add\n        /* \"#utility.yul\":2021:2056   */\n      gt\n        /* \"#utility.yul\":2018:2020   */\n      iszero\n      tag_675\n      jumpi\n        /* \"#utility.yul\":2073:2078   */\n      dup3\n        /* \"#utility.yul\":2066:2071   */\n      dup4\n        /* \"#utility.yul\":2059:2079   */\n      revert\n        /* \"#utility.yul\":2018:2020   */\n    tag_675:\n        /* \"#utility.yul\":2142:2144   */\n      dup2\n        /* \"#utility.yul\":2135:2139   */\n      0x20\n        /* \"#utility.yul\":2127:2133   */\n      dup6\n        /* \"#utility.yul\":2123:2140   */\n      add\n        /* \"#utility.yul\":2116:2120   */\n      0x20\n        /* \"#utility.yul\":2107:2114   */\n      dup4\n        /* \"#utility.yul\":2103:2121   */\n      add\n        /* \"#utility.yul\":2090:2145   */\n      calldatacopy\n        /* \"#utility.yul\":2165:2181   */\n      swap1\n      dup2\n      add\n        /* \"#utility.yul\":2183:2187   */\n      0x20\n        /* \"#utility.yul\":2161:2188   */\n      add\n        /* \"#utility.yul\":2154:2196   */\n      swap2\n      swap1\n      swap2\n      mstore\n        /* \"#utility.yul\":2169:2176   */\n      swap3\n        /* \"#utility.yul\":1730:2227   */\n      swap2\n      pop\n      pop\n      jump\t// out\n        /* \"#utility.yul\":2232:2491   */\n    tag_78:\n      0x00\n        /* \"#utility.yul\":2344:2346   */\n      0x20\n        /* \"#utility.yul\":2332:2341   */\n      dup3\n        /* \"#utility.yul\":2323:2330   */\n      dup5\n        /* \"#utility.yul\":2319:2342   */\n      sub\n        /* \"#utility.yul\":2315:2347   */\n      slt\n        /* \"#utility.yul\":2312:2314   */\n      iszero\n      tag_677\n      jumpi\n        /* \"#utility.yul\":2365:2371   */\n      dup1\n        /* \"#utility.yul\":2357:2363   */\n      dup2\n        /* \"#utility.yul\":2350:2372   */\n      revert\n        /* \"#utility.yul\":2312:2314   */\n    tag_677:\n        /* \"#utility.yul\":2409:2418   */\n      dup2\n        /* \"#utility.yul\":2396:2419   */\n      calldataload\n        /* \"#utility.yul\":2428:2461   */\n      tag_418\n        /* \"#utility.yul\":2455:2460   */\n      dup2\n        /* \"#utility.yul\":2428:2461   */\n      tag_643\n      jump\t// in\n        /* \"#utility.yul\":2496:2892   */\n    tag_56:\n      0x00\n      dup1\n        /* \"#utility.yul\":2622:2624   */\n      0x40\n        /* \"#utility.yul\":2610:2619   */\n      dup4\n        /* \"#utility.yul\":2601:2608   */\n      dup6\n        /* \"#utility.yul\":2597:2620   */\n      sub\n        /* \"#utility.yul\":2593:2625   */\n      slt\n        /* \"#utility.yul\":2590:2592   */\n      iszero\n      tag_680\n      jumpi\n        /* \"#utility.yul\":2643:2649   */\n      dup1\n        /* \"#utility.yul\":2635:2641   */\n      dup2\n        /* \"#utility.yul\":2628:2650   */\n      revert\n        /* \"#utility.yul\":2590:2592   */\n    tag_680:\n        /* \"#utility.yul\":2687:2696   */\n      dup3\n        /* \"#utility.yul\":2674:2697   */\n      calldataload\n        /* \"#utility.yul\":2706:2739   */\n      tag_681\n        /* \"#utility.yul\":2733:2738   */\n      dup2\n        /* \"#utility.yul\":2706:2739   */\n      tag_643\n      jump\t// in\n    tag_681:\n        /* \"#utility.yul\":2758:2763   */\n      swap2\n      pop\n        /* \"#utility.yul\":2815:2817   */\n      0x20\n        /* \"#utility.yul\":2800:2818   */\n      dup4\n      add\n        /* \"#utility.yul\":2787:2819   */\n      calldataload\n        /* \"#utility.yul\":2828:2860   */\n      tag_682\n        /* \"#utility.yul\":2787:2819   */\n      dup2\n        /* \"#utility.yul\":2828:2860   */\n      tag_668\n      jump\t// in\n    tag_682:\n        /* \"#utility.yul\":2879:2886   */\n      dup1\n        /* \"#utility.yul\":2869:2886   */\n      swap2\n      pop\n      pop\n        /* \"#utility.yul\":2580:2892   */\n      swap3\n      pop\n      swap3\n      swap1\n      pop\n      jump\t// out\n        /* \"#utility.yul\":2897:3648   */\n    tag_169:\n      0x00\n      dup1\n      0x00\n      dup1\n        /* \"#utility.yul\":3122:3125   */\n      0x80\n        /* \"#utility.yul\":3110:3119   */\n      dup6\n        /* \"#utility.yul\":3101:3108   */\n      dup8\n        /* \"#utility.yul\":3097:3120   */\n      sub\n        /* \"#utility.yul\":3093:3126   */\n      slt\n        /* \"#utility.yul\":3090:3092   */\n      iszero\n      tag_684\n      jumpi\n        /* \"#utility.yul\":3144:3150   */\n      dup2\n        /* \"#utility.yul\":3136:3142   */\n      dup3\n        /* \"#utility.yul\":3129:3151   */\n      revert\n        /* \"#utility.yul\":3090:3092   */\n    tag_684:\n        /* \"#utility.yul\":3188:3197   */\n      dup5\n        /* \"#utility.yul\":3175:3198   */\n      calldataload\n        /* \"#utility.yul\":3207:3240   */\n      tag_685\n        /* \"#utility.yul\":3234:3239   */\n      dup2\n        /* \"#utility.yul\":3207:3240   */\n      tag_643\n      jump\t// in\n    tag_685:\n        /* \"#utility.yul\":3259:3264   */\n      swap4\n      pop\n        /* \"#utility.yul\":3316:3318   */\n      0x20\n        /* \"#utility.yul\":3301:3319   */\n      dup6\n      add\n        /* \"#utility.yul\":3288:3320   */\n      calldataload\n        /* \"#utility.yul\":3329:3364   */\n      tag_686\n        /* \"#utility.yul\":3288:3320   */\n      dup2\n        /* \"#utility.yul\":3329:3364   */\n      tag_643\n      jump\t// in\n    tag_686:\n        /* \"#utility.yul\":3383:3390   */\n      swap3\n      pop\n        /* \"#utility.yul\":3442:3444   */\n      0x40\n        /* \"#utility.yul\":3427:3445   */\n      dup6\n      add\n        /* \"#utility.yul\":3414:3446   */\n      calldataload\n        /* \"#utility.yul\":3455:3490   */\n      tag_687\n        /* \"#utility.yul\":3414:3446   */\n      dup2\n        /* \"#utility.yul\":3455:3490   */\n      tag_643\n      jump\t// in\n    tag_687:\n        /* \"#utility.yul\":3509:3516   */\n      swap2\n      pop\n        /* \"#utility.yul\":3568:3570   */\n      0x60\n        /* \"#utility.yul\":3553:3571   */\n      dup6\n      add\n        /* \"#utility.yul\":3540:3572   */\n      calldataload\n        /* \"#utility.yul\":3581:3616   */\n      tag_688\n        /* \"#utility.yul\":3540:3572   */\n      dup2\n        /* \"#utility.yul\":3581:3616   */\n      tag_643\n      jump\t// in\n    tag_688:\n        /* \"#utility.yul\":3080:3648   */\n      swap4\n      swap7\n      swap3\n      swap6\n      pop\n      swap1\n      swap4\n      pop\n      pop\n      jump\t// out\n        /* \"#utility.yul\":3653:3980   */\n    tag_104:\n      0x00\n      dup1\n        /* \"#utility.yul\":3782:3784   */\n      0x40\n        /* \"#utility.yul\":3770:3779   */\n      dup4\n        /* \"#utility.yul\":3761:3768   */\n      dup6\n        /* \"#utility.yul\":3757:3780   */\n      sub\n        /* \"#utility.yul\":3753:3785   */\n      slt\n        /* \"#utility.yul\":3750:3752   */\n      iszero\n      tag_690\n      jumpi\n        /* \"#utility.yul\":3803:3809   */\n      dup2\n        /* \"#utility.yul\":3795:3801   */\n      dup3\n        /* \"#utility.yul\":3788:3810   */\n      revert\n        /* \"#utility.yul\":3750:3752   */\n    tag_690:\n        /* \"#utility.yul\":3847:3856   */\n      dup3\n        /* \"#utility.yul\":3834:3857   */\n      calldataload\n        /* \"#utility.yul\":3866:3899   */\n      tag_691\n        /* \"#utility.yul\":3893:3898   */\n      dup2\n        /* \"#utility.yul\":3866:3899   */\n      tag_643\n      jump\t// in\n    tag_691:\n        /* \"#utility.yul\":3918:3923   */\n      swap5\n        /* \"#utility.yul\":3970:3972   */\n      0x20\n        /* \"#utility.yul\":3955:3973   */\n      swap4\n      swap1\n      swap4\n      add\n        /* \"#utility.yul\":3942:3974   */\n      calldataload\n      swap4\n      pop\n      pop\n      pop\n        /* \"#utility.yul\":3740:3980   */\n      jump\t// out\n        /* \"#utility.yul\":3985:4449   */\n    tag_44:\n      0x00\n      dup1\n      0x00\n      dup1\n        /* \"#utility.yul\":4148:4151   */\n      0x80\n        /* \"#utility.yul\":4136:4145   */\n      dup6\n        /* \"#utility.yul\":4127:4134   */\n      dup8\n        /* \"#utility.yul\":4123:4146   */\n      sub\n        /* \"#utility.yul\":4119:4152   */\n      slt\n        /* \"#utility.yul\":4116:4118   */\n      iszero\n      tag_693\n      jumpi\n        /* \"#utility.yul\":4170:4176   */\n      dup4\n        /* \"#utility.yul\":4162:4168   */\n      dup5\n        /* \"#utility.yul\":4155:4177   */\n      revert\n        /* \"#utility.yul\":4116:4118   */\n    tag_693:\n        /* \"#utility.yul\":4214:4223   */\n      dup5\n        /* \"#utility.yul\":4201:4224   */\n      calldataload\n        /* \"#utility.yul\":4233:4266   */\n      tag_694\n        /* \"#utility.yul\":4260:4265   */\n      dup2\n        /* \"#utility.yul\":4233:4266   */\n      tag_643\n      jump\t// in\n    tag_694:\n        /* \"#utility.yul\":4285:4290   */\n      swap7\n        /* \"#utility.yul\":4337:4339   */\n      0x20\n        /* \"#utility.yul\":4322:4340   */\n      dup7\n      add\n        /* \"#utility.yul\":4309:4341   */\n      calldataload\n      swap7\n      pop\n        /* \"#utility.yul\":4388:4390   */\n      0x40\n        /* \"#utility.yul\":4373:4391   */\n      dup7\n      add\n        /* \"#utility.yul\":4360:4392   */\n      calldataload\n      swap6\n        /* \"#utility.yul\":4439:4441   */\n      0x60\n        /* \"#utility.yul\":4424:4442   */\n      add\n        /* \"#utility.yul\":4411:4443   */\n      calldataload\n      swap5\n      pop\n        /* \"#utility.yul\":4106:4449   */\n      swap3\n      pop\n      pop\n      pop\n      jump\t// out\n        /* \"#utility.yul\":4454:4711   */\n    tag_301:\n      0x00\n        /* \"#utility.yul\":4574:4576   */\n      0x20\n        /* \"#utility.yul\":4562:4571   */\n      dup3\n        /* \"#utility.yul\":4553:4560   */\n      dup5\n        /* \"#utility.yul\":4549:4572   */\n      sub\n        /* \"#utility.yul\":4545:4577   */\n      slt\n        /* \"#utility.yul\":4542:4544   */\n      iszero\n      tag_696\n      jumpi\n        /* \"#utility.yul\":4595:4601   */\n      dup1\n        /* \"#utility.yul\":4587:4593   */\n      dup2\n        /* \"#utility.yul\":4580:4602   */\n      revert\n        /* \"#utility.yul\":4542:4544   */\n    tag_696:\n        /* \"#utility.yul\":4632:4641   */\n      dup2\n        /* \"#utility.yul\":4626:4642   */\n      mload\n        /* \"#utility.yul\":4651:4681   */\n      tag_418\n        /* \"#utility.yul\":4675:4680   */\n      dup2\n        /* \"#utility.yul\":4651:4681   */\n      tag_668\n      jump\t// in\n        /* \"#utility.yul\":4716:6167   */\n    tag_83:\n      0x00\n      dup1\n      0x00\n      dup1\n      0x00\n      dup1\n        /* \"#utility.yul\":5054:5057   */\n      0xc0\n        /* \"#utility.yul\":5042:5051   */\n      dup8\n        /* \"#utility.yul\":5033:5040   */\n      dup10\n        /* \"#utility.yul\":5029:5052   */\n      sub\n        /* \"#utility.yul\":5025:5058   */\n      slt\n        /* \"#utility.yul\":5022:5024   */\n      iszero\n      tag_699\n      jumpi\n        /* \"#utility.yul\":5076:5082   */\n      dup4\n        /* \"#utility.yul\":5068:5074   */\n      dup5\n        /* \"#utility.yul\":5061:5083   */\n      revert\n        /* \"#utility.yul\":5022:5024   */\n    tag_699:\n        /* \"#utility.yul\":5104:5132   */\n      tag_700\n        /* \"#utility.yul\":5122:5131   */\n      dup8\n        /* \"#utility.yul\":5104:5132   */\n      tag_665\n      jump\t// in\n    tag_700:\n        /* \"#utility.yul\":5094:5132   */\n      swap6\n      pop\n        /* \"#utility.yul\":5183:5185   */\n      0x20\n        /* \"#utility.yul\":5172:5181   */\n      dup8\n        /* \"#utility.yul\":5168:5186   */\n      add\n        /* \"#utility.yul\":5155:5187   */\n      calldataload\n        /* \"#utility.yul\":5206:5224   */\n      0xffffffffffffffff\n        /* \"#utility.yul\":5247:5249   */\n      dup1\n        /* \"#utility.yul\":5239:5245   */\n      dup3\n        /* \"#utility.yul\":5236:5250   */\n      gt\n        /* \"#utility.yul\":5233:5235   */\n      iszero\n      tag_701\n      jumpi\n        /* \"#utility.yul\":5268:5274   */\n      dup6\n        /* \"#utility.yul\":5260:5266   */\n      dup7\n        /* \"#utility.yul\":5253:5275   */\n      revert\n        /* \"#utility.yul\":5233:5235   */\n    tag_701:\n        /* \"#utility.yul\":5296:5363   */\n      tag_702\n        /* \"#utility.yul\":5355:5362   */\n      dup11\n        /* \"#utility.yul\":5346:5352   */\n      dup4\n        /* \"#utility.yul\":5335:5344   */\n      dup12\n        /* \"#utility.yul\":5331:5353   */\n      add\n        /* \"#utility.yul\":5296:5363   */\n      tag_656\n      jump\t// in\n    tag_702:\n        /* \"#utility.yul\":5286:5363   */\n      swap7\n      pop\n        /* \"#utility.yul\":5416:5418   */\n      0x40\n        /* \"#utility.yul\":5405:5414   */\n      dup10\n        /* \"#utility.yul\":5401:5419   */\n      add\n        /* \"#utility.yul\":5388:5420   */\n      calldataload\n        /* \"#utility.yul\":5372:5420   */\n      swap2\n      pop\n        /* \"#utility.yul\":5445:5447   */\n      dup1\n        /* \"#utility.yul\":5435:5443   */\n      dup3\n        /* \"#utility.yul\":5432:5448   */\n      gt\n        /* \"#utility.yul\":5429:5431   */\n      iszero\n      tag_703\n      jumpi\n        /* \"#utility.yul\":5466:5472   */\n      dup6\n        /* \"#utility.yul\":5458:5464   */\n      dup7\n        /* \"#utility.yul\":5451:5473   */\n      revert\n        /* \"#utility.yul\":5429:5431   */\n    tag_703:\n        /* \"#utility.yul\":5494:5563   */\n      tag_704\n        /* \"#utility.yul\":5555:5562   */\n      dup11\n        /* \"#utility.yul\":5544:5552   */\n      dup4\n        /* \"#utility.yul\":5533:5542   */\n      dup12\n        /* \"#utility.yul\":5529:5553   */\n      add\n        /* \"#utility.yul\":5494:5563   */\n      tag_656\n      jump\t// in\n    tag_704:\n        /* \"#utility.yul\":5484:5563   */\n      swap6\n      pop\n        /* \"#utility.yul\":5616:5618   */\n      0x60\n        /* \"#utility.yul\":5605:5614   */\n      dup10\n        /* \"#utility.yul\":5601:5619   */\n      add\n        /* \"#utility.yul\":5588:5620   */\n      calldataload\n        /* \"#utility.yul\":5572:5620   */\n      swap2\n      pop\n        /* \"#utility.yul\":5645:5647   */\n      dup1\n        /* \"#utility.yul\":5635:5643   */\n      dup3\n        /* \"#utility.yul\":5632:5648   */\n      gt\n        /* \"#utility.yul\":5629:5631   */\n      iszero\n      tag_705\n      jumpi\n        /* \"#utility.yul\":5666:5672   */\n      dup4\n        /* \"#utility.yul\":5658:5664   */\n      dup5\n        /* \"#utility.yul\":5651:5673   */\n      revert\n        /* \"#utility.yul\":5629:5631   */\n    tag_705:\n        /* \"#utility.yul\":5694:5761   */\n      tag_706\n        /* \"#utility.yul\":5753:5760   */\n      dup11\n        /* \"#utility.yul\":5742:5750   */\n      dup4\n        /* \"#utility.yul\":5731:5740   */\n      dup12\n        /* \"#utility.yul\":5727:5751   */\n      add\n        /* \"#utility.yul\":5694:5761   */\n      tag_644\n      jump\t// in\n    tag_706:\n        /* \"#utility.yul\":5684:5761   */\n      swap5\n      pop\n        /* \"#utility.yul\":5814:5817   */\n      0x80\n        /* \"#utility.yul\":5803:5812   */\n      dup10\n        /* \"#utility.yul\":5799:5818   */\n      add\n        /* \"#utility.yul\":5786:5819   */\n      calldataload\n        /* \"#utility.yul\":5770:5819   */\n      swap2\n      pop\n        /* \"#utility.yul\":5844:5846   */\n      dup1\n        /* \"#utility.yul\":5834:5842   */\n      dup3\n        /* \"#utility.yul\":5831:5847   */\n      gt\n        /* \"#utility.yul\":5828:5830   */\n      iszero\n      tag_707\n      jumpi\n        /* \"#utility.yul\":5865:5871   */\n      dup4\n        /* \"#utility.yul\":5857:5863   */\n      dup5\n        /* \"#utility.yul\":5850:5872   */\n      revert\n        /* \"#utility.yul\":5828:5830   */\n    tag_707:\n        /* \"#utility.yul\":5893:5962   */\n      tag_708\n        /* \"#utility.yul\":5954:5961   */\n      dup11\n        /* \"#utility.yul\":5943:5951   */\n      dup4\n        /* \"#utility.yul\":5932:5941   */\n      dup12\n        /* \"#utility.yul\":5928:5952   */\n      add\n        /* \"#utility.yul\":5893:5962   */\n      tag_656\n      jump\t// in\n    tag_708:\n        /* \"#utility.yul\":5883:5962   */\n      swap4\n      pop\n        /* \"#utility.yul\":6015:6018   */\n      0xa0\n        /* \"#utility.yul\":6004:6013   */\n      dup10\n        /* \"#utility.yul\":6000:6019   */\n      add\n        /* \"#utility.yul\":5987:6020   */\n      calldataload\n        /* \"#utility.yul\":5971:6020   */\n      swap2\n      pop\n        /* \"#utility.yul\":6045:6047   */\n      dup1\n        /* \"#utility.yul\":6035:6043   */\n      dup3\n        /* \"#utility.yul\":6032:6048   */\n      gt\n        /* \"#utility.yul\":6029:6031   */\n      iszero\n      tag_709\n      jumpi\n        /* \"#utility.yul\":6066:6072   */\n      dup3\n        /* \"#utility.yul\":6058:6064   */\n      dup4\n        /* \"#utility.yul\":6051:6073   */\n      revert\n        /* \"#utility.yul\":6029:6031   */\n    tag_709:\n      pop\n        /* \"#utility.yul\":6094:6161   */\n      tag_710\n        /* \"#utility.yul\":6153:6160   */\n      dup10\n        /* \"#utility.yul\":6142:6150   */\n      dup3\n        /* \"#utility.yul\":6131:6140   */\n      dup11\n        /* \"#utility.yul\":6127:6151   */\n      add\n        /* \"#utility.yul\":6094:6161   */\n      tag_644\n      jump\t// in\n    tag_710:\n        /* \"#utility.yul\":6084:6161   */\n      swap2\n      pop\n      pop\n        /* \"#utility.yul\":5012:6167   */\n      swap3\n      swap6\n      pop\n      swap3\n      swap6\n      pop\n      swap3\n      swap6\n      jump\t// out\n        /* \"#utility.yul\":6172:7084   */\n    tag_97:\n      0x00\n      dup1\n      0x00\n      dup1\n      0x00\n      dup1\n        /* \"#utility.yul\":6385:6388   */\n      0xc0\n        /* \"#utility.yul\":6373:6382   */\n      dup8\n        /* \"#utility.yul\":6364:6371   */\n      dup10\n        /* \"#utility.yul\":6360:6383   */\n      sub\n        /* \"#utility.yul\":6356:6389   */\n      slt\n        /* \"#utility.yul\":6353:6355   */\n      iszero\n      tag_712\n      jumpi\n        /* \"#utility.yul\":6407:6413   */\n      dup4\n        /* \"#utility.yul\":6399:6405   */\n      dup5\n        /* \"#utility.yul\":6392:6414   */\n      revert\n        /* \"#utility.yul\":6353:6355   */\n    tag_712:\n        /* \"#utility.yul\":6451:6460   */\n      dup7\n        /* \"#utility.yul\":6438:6461   */\n      calldataload\n        /* \"#utility.yul\":6470:6500   */\n      tag_713\n        /* \"#utility.yul\":6494:6499   */\n      dup2\n        /* \"#utility.yul\":6470:6500   */\n      tag_668\n      jump\t// in\n    tag_713:\n        /* \"#utility.yul\":6519:6524   */\n      swap6\n      pop\n        /* \"#utility.yul\":6571:6573   */\n      0x20\n        /* \"#utility.yul\":6556:6574   */\n      dup8\n      add\n        /* \"#utility.yul\":6543:6575   */\n      calldataload\n      swap5\n      pop\n        /* \"#utility.yul\":6622:6624   */\n      0x40\n        /* \"#utility.yul\":6607:6625   */\n      dup8\n      add\n        /* \"#utility.yul\":6594:6626   */\n      calldataload\n      swap4\n      pop\n        /* \"#utility.yul\":6677:6679   */\n      0x60\n        /* \"#utility.yul\":6662:6680   */\n      dup8\n      add\n        /* \"#utility.yul\":6649:6681   */\n      calldataload\n        /* \"#utility.yul\":6700:6718   */\n      0xffffffffffffffff\n        /* \"#utility.yul\":6730:6744   */\n      dup1\n      dup3\n      gt\n        /* \"#utility.yul\":6727:6729   */\n      iszero\n      tag_714\n      jumpi\n        /* \"#utility.yul\":6762:6768   */\n      dup4\n        /* \"#utility.yul\":6754:6760   */\n      dup5\n        /* \"#utility.yul\":6747:6769   */\n      revert\n        /* \"#utility.yul\":6727:6729   */\n    tag_714:\n        /* \"#utility.yul\":6790:6841   */\n      tag_715\n        /* \"#utility.yul\":6833:6840   */\n      dup11\n        /* \"#utility.yul\":6824:6830   */\n      dup4\n        /* \"#utility.yul\":6813:6822   */\n      dup12\n        /* \"#utility.yul\":6809:6831   */\n      add\n        /* \"#utility.yul\":6790:6841   */\n      tag_655\n      jump\t// in\n    tag_715:\n        /* \"#utility.yul\":6780:6841   */\n      swap5\n      pop\n        /* \"#utility.yul\":6888:6891   */\n      0x80\n        /* \"#utility.yul\":6877:6886   */\n      dup10\n        /* \"#utility.yul\":6873:6892   */\n      add\n        /* \"#utility.yul\":6860:6893   */\n      calldataload\n        /* \"#utility.yul\":6850:6893   */\n      swap4\n      pop\n        /* \"#utility.yul\":6946:6949   */\n      0xa0\n        /* \"#utility.yul\":6935:6944   */\n      dup10\n        /* \"#utility.yul\":6931:6950   */\n      add\n        /* \"#utility.yul\":6918:6951   */\n      calldataload\n        /* \"#utility.yul\":6902:6951   */\n      swap2\n      pop\n        /* \"#utility.yul\":6976:6978   */\n      dup1\n        /* \"#utility.yul\":6966:6974   */\n      dup3\n        /* \"#utility.yul\":6963:6979   */\n      gt\n        /* \"#utility.yul\":6960:6962   */\n      iszero\n      tag_716\n      jumpi\n        /* \"#utility.yul\":6997:7003   */\n      dup3\n        /* \"#utility.yul\":6989:6995   */\n      dup4\n        /* \"#utility.yul\":6982:7004   */\n      revert\n        /* \"#utility.yul\":6960:6962   */\n    tag_716:\n      pop\n        /* \"#utility.yul\":7025:7078   */\n      tag_710\n        /* \"#utility.yul\":7070:7077   */\n      dup10\n        /* \"#utility.yul\":7059:7067   */\n      dup3\n        /* \"#utility.yul\":7048:7057   */\n      dup11\n        /* \"#utility.yul\":7044:7068   */\n      add\n        /* \"#utility.yul\":7025:7078   */\n      tag_655\n      jump\t// in\n        /* \"#utility.yul\":7089:8070   */\n    tag_127:\n      0x00\n      dup1\n      0x00\n      dup1\n      0x00\n      dup1\n      0x00\n        /* \"#utility.yul\":7319:7322   */\n      0xe0\n        /* \"#utility.yul\":7307:7316   */\n      dup9\n        /* \"#utility.yul\":7298:7305   */\n      dup11\n        /* \"#utility.yul\":7294:7317   */\n      sub\n        /* \"#utility.yul\":7290:7323   */\n      slt\n        /* \"#utility.yul\":7287:7289   */\n      iszero\n      tag_719\n      jumpi\n        /* \"#utility.yul\":7341:7347   */\n      dup5\n        /* \"#utility.yul\":7333:7339   */\n      dup6\n        /* \"#utility.yul\":7326:7348   */\n      revert\n        /* \"#utility.yul\":7287:7289   */\n    tag_719:\n        /* \"#utility.yul\":7385:7394   */\n      dup8\n        /* \"#utility.yul\":7372:7395   */\n      calldataload\n        /* \"#utility.yul\":7404:7434   */\n      tag_720\n        /* \"#utility.yul\":7428:7433   */\n      dup2\n        /* \"#utility.yul\":7404:7434   */\n      tag_668\n      jump\t// in\n    tag_720:\n        /* \"#utility.yul\":7453:7458   */\n      swap7\n      pop\n        /* \"#utility.yul\":7505:7507   */\n      0x20\n        /* \"#utility.yul\":7490:7508   */\n      dup9\n      add\n        /* \"#utility.yul\":7477:7509   */\n      calldataload\n      swap6\n      pop\n        /* \"#utility.yul\":7556:7558   */\n      0x40\n        /* \"#utility.yul\":7541:7559   */\n      dup9\n      add\n        /* \"#utility.yul\":7528:7560   */\n      calldataload\n      swap5\n      pop\n        /* \"#utility.yul\":7611:7613   */\n      0x60\n        /* \"#utility.yul\":7596:7614   */\n      dup9\n      add\n        /* \"#utility.yul\":7583:7615   */\n      calldataload\n        /* \"#utility.yul\":7634:7652   */\n      0xffffffffffffffff\n        /* \"#utility.yul\":7664:7678   */\n      dup1\n      dup3\n      gt\n        /* \"#utility.yul\":7661:7663   */\n      iszero\n      tag_721\n      jumpi\n        /* \"#utility.yul\":7696:7702   */\n      dup3\n        /* \"#utility.yul\":7688:7694   */\n      dup4\n        /* \"#utility.yul\":7681:7703   */\n      revert\n        /* \"#utility.yul\":7661:7663   */\n    tag_721:\n        /* \"#utility.yul\":7724:7775   */\n      tag_722\n        /* \"#utility.yul\":7767:7774   */\n      dup12\n        /* \"#utility.yul\":7758:7764   */\n      dup4\n        /* \"#utility.yul\":7747:7756   */\n      dup13\n        /* \"#utility.yul\":7743:7765   */\n      add\n        /* \"#utility.yul\":7724:7775   */\n      tag_655\n      jump\t// in\n    tag_722:\n        /* \"#utility.yul\":7714:7775   */\n      swap6\n      pop\n        /* \"#utility.yul\":7822:7825   */\n      0x80\n        /* \"#utility.yul\":7811:7820   */\n      dup11\n        /* \"#utility.yul\":7807:7826   */\n      add\n        /* \"#utility.yul\":7794:7827   */\n      calldataload\n        /* \"#utility.yul\":7784:7827   */\n      swap5\n      pop\n        /* \"#utility.yul\":7880:7883   */\n      0xa0\n        /* \"#utility.yul\":7869:7878   */\n      dup11\n        /* \"#utility.yul\":7865:7884   */\n      add\n        /* \"#utility.yul\":7852:7885   */\n      calldataload\n        /* \"#utility.yul\":7836:7885   */\n      swap2\n      pop\n        /* \"#utility.yul\":7910:7912   */\n      dup1\n        /* \"#utility.yul\":7900:7908   */\n      dup3\n        /* \"#utility.yul\":7897:7913   */\n      gt\n        /* \"#utility.yul\":7894:7896   */\n      iszero\n      tag_723\n      jumpi\n        /* \"#utility.yul\":7931:7937   */\n      dup3\n        /* \"#utility.yul\":7923:7929   */\n      dup4\n        /* \"#utility.yul\":7916:7938   */\n      revert\n        /* \"#utility.yul\":7894:7896   */\n    tag_723:\n      pop\n        /* \"#utility.yul\":7959:8012   */\n      tag_724\n        /* \"#utility.yul\":8004:8011   */\n      dup11\n        /* \"#utility.yul\":7993:8001   */\n      dup3\n        /* \"#utility.yul\":7982:7991   */\n      dup12\n        /* \"#utility.yul\":7978:8002   */\n      add\n        /* \"#utility.yul\":7959:8012   */\n      tag_655\n      jump\t// in\n    tag_724:\n        /* \"#utility.yul\":7949:8012   */\n      swap3\n      pop\n      pop\n        /* \"#utility.yul\":8059:8062   */\n      0xc0\n        /* \"#utility.yul\":8048:8057   */\n      dup9\n        /* \"#utility.yul\":8044:8063   */\n      add\n        /* \"#utility.yul\":8031:8064   */\n      calldataload\n        /* \"#utility.yul\":8021:8064   */\n      swap1\n      pop\n        /* \"#utility.yul\":7277:8070   */\n      swap3\n      swap6\n      swap9\n      swap2\n      swap5\n      swap8\n      pop\n      swap3\n      swap6\n      pop\n      jump\t// out\n        /* \"#utility.yul\":8075:9194   */\n    tag_143:\n      0x00\n      dup1\n      0x00\n      dup1\n      0x00\n      dup1\n      0x00\n      dup1\n      0x00\n        /* \"#utility.yul\":8339:8342   */\n      0x0120\n        /* \"#utility.yul\":8327:8336   */\n      dup11\n        /* \"#utility.yul\":8318:8325   */\n      dup13\n        /* \"#utility.yul\":8314:8337   */\n      sub\n        /* \"#utility.yul\":8310:8343   */\n      slt\n        /* \"#utility.yul\":8307:8309   */\n      iszero\n      tag_726\n      jumpi\n        /* \"#utility.yul\":8361:8367   */\n      dup3\n        /* \"#utility.yul\":8353:8359   */\n      dup4\n        /* \"#utility.yul\":8346:8368   */\n      revert\n        /* \"#utility.yul\":8307:8309   */\n    tag_726:\n        /* \"#utility.yul\":8405:8414   */\n      dup10\n        /* \"#utility.yul\":8392:8415   */\n      calldataload\n        /* \"#utility.yul\":8424:8454   */\n      tag_727\n        /* \"#utility.yul\":8448:8453   */\n      dup2\n        /* \"#utility.yul\":8424:8454   */\n      tag_668\n      jump\t// in\n    tag_727:\n        /* \"#utility.yul\":8473:8478   */\n      swap9\n      pop\n        /* \"#utility.yul\":8525:8527   */\n      0x20\n        /* \"#utility.yul\":8510:8528   */\n      dup11\n      add\n        /* \"#utility.yul\":8497:8529   */\n      calldataload\n      swap8\n      pop\n        /* \"#utility.yul\":8576:8578   */\n      0x40\n        /* \"#utility.yul\":8561:8579   */\n      dup11\n      add\n        /* \"#utility.yul\":8548:8580   */\n      calldataload\n      swap7\n      pop\n        /* \"#utility.yul\":8627:8629   */\n      0x60\n        /* \"#utility.yul\":8612:8630   */\n      dup11\n      add\n        /* \"#utility.yul\":8599:8631   */\n      calldataload\n      swap6\n      pop\n        /* \"#utility.yul\":8678:8681   */\n      0x80\n        /* \"#utility.yul\":8663:8682   */\n      dup11\n      add\n        /* \"#utility.yul\":8650:8683   */\n      calldataload\n      swap5\n      pop\n        /* \"#utility.yul\":8734:8737   */\n      0xa0\n        /* \"#utility.yul\":8719:8738   */\n      dup11\n      add\n        /* \"#utility.yul\":8706:8739   */\n      calldataload\n        /* \"#utility.yul\":8758:8776   */\n      0xffffffffffffffff\n        /* \"#utility.yul\":8788:8802   */\n      dup1\n      dup3\n      gt\n        /* \"#utility.yul\":8785:8787   */\n      iszero\n      tag_728\n      jumpi\n        /* \"#utility.yul\":8820:8826   */\n      dup5\n        /* \"#utility.yul\":8812:8818   */\n      dup6\n        /* \"#utility.yul\":8805:8827   */\n      revert\n        /* \"#utility.yul\":8785:8787   */\n    tag_728:\n        /* \"#utility.yul\":8848:8899   */\n      tag_729\n        /* \"#utility.yul\":8891:8898   */\n      dup14\n        /* \"#utility.yul\":8882:8888   */\n      dup4\n        /* \"#utility.yul\":8871:8880   */\n      dup15\n        /* \"#utility.yul\":8867:8889   */\n      add\n        /* \"#utility.yul\":8848:8899   */\n      tag_655\n      jump\t// in\n    tag_729:\n        /* \"#utility.yul\":8838:8899   */\n      swap6\n      pop\n        /* \"#utility.yul\":8946:8949   */\n      0xc0\n        /* \"#utility.yul\":8935:8944   */\n      dup13\n        /* \"#utility.yul\":8931:8950   */\n      add\n        /* \"#utility.yul\":8918:8951   */\n      calldataload\n        /* \"#utility.yul\":8908:8951   */\n      swap5\n      pop\n        /* \"#utility.yul\":8998:9001   */\n      0xe0\n        /* \"#utility.yul\":8987:8996   */\n      dup13\n        /* \"#utility.yul\":8983:9002   */\n      add\n        /* \"#utility.yul\":8970:9003   */\n      calldataload\n        /* \"#utility.yul\":8960:9003   */\n      swap4\n      pop\n        /* \"#utility.yul\":9056:9059   */\n      0x0100\n        /* \"#utility.yul\":9045:9054   */\n      dup13\n        /* \"#utility.yul\":9041:9060   */\n      add\n        /* \"#utility.yul\":9028:9061   */\n      calldataload\n        /* \"#utility.yul\":9012:9061   */\n      swap2\n      pop\n        /* \"#utility.yul\":9086:9088   */\n      dup1\n        /* \"#utility.yul\":9076:9084   */\n      dup3\n        /* \"#utility.yul\":9073:9089   */\n      gt\n        /* \"#utility.yul\":9070:9072   */\n      iszero\n      tag_730\n      jumpi\n        /* \"#utility.yul\":9107:9113   */\n      dup3\n        /* \"#utility.yul\":9099:9105   */\n      dup4\n        /* \"#utility.yul\":9092:9114   */\n      revert\n        /* \"#utility.yul\":9070:9072   */\n    tag_730:\n      pop\n        /* \"#utility.yul\":9135:9188   */\n      tag_731\n        /* \"#utility.yul\":9180:9187   */\n      dup13\n        /* \"#utility.yul\":9169:9177   */\n      dup3\n        /* \"#utility.yul\":9158:9167   */\n      dup14\n        /* \"#utility.yul\":9154:9178   */\n      add\n        /* \"#utility.yul\":9135:9188   */\n      tag_655\n      jump\t// in\n    tag_731:\n        /* \"#utility.yul\":9125:9188   */\n      swap2\n      pop\n      pop\n        /* \"#utility.yul\":8297:9194   */\n      swap3\n      swap6\n      swap9\n      pop\n      swap3\n      swap6\n      swap9\n      pop\n      swap3\n      swap6\n      swap9\n      jump\t// out\n        /* \"#utility.yul\":9199:9389   */\n    tag_50:\n      0x00\n        /* \"#utility.yul\":9311:9313   */\n      0x20\n        /* \"#utility.yul\":9299:9308   */\n      dup3\n        /* \"#utility.yul\":9290:9297   */\n      dup5\n        /* \"#utility.yul\":9286:9309   */\n      sub\n        /* \"#utility.yul\":9282:9314   */\n      slt\n        /* \"#utility.yul\":9279:9281   */\n      iszero\n      tag_733\n      jumpi\n        /* \"#utility.yul\":9332:9338   */\n      dup1\n        /* \"#utility.yul\":9324:9330   */\n      dup2\n        /* \"#utility.yul\":9317:9339   */\n      revert\n        /* \"#utility.yul\":9279:9281   */\n    tag_733:\n      pop\n        /* \"#utility.yul\":9360:9383   */\n      calldataload\n      swap2\n        /* \"#utility.yul\":9269:9389   */\n      swap1\n      pop\n      jump\t// out\n        /* \"#utility.yul\":9394:9588   */\n    tag_365:\n      0x00\n        /* \"#utility.yul\":9517:9519   */\n      0x20\n        /* \"#utility.yul\":9505:9514   */\n      dup3\n        /* \"#utility.yul\":9496:9503   */\n      dup5\n        /* \"#utility.yul\":9492:9515   */\n      sub\n        /* \"#utility.yul\":9488:9520   */\n      slt\n        /* \"#utility.yul\":9485:9487   */\n      iszero\n      tag_735\n      jumpi\n        /* \"#utility.yul\":9538:9544   */\n      dup1\n        /* \"#utility.yul\":9530:9536   */\n      dup2\n        /* \"#utility.yul\":9523:9545   */\n      revert\n        /* \"#utility.yul\":9485:9487   */\n    tag_735:\n      pop\n        /* \"#utility.yul\":9566:9582   */\n      mload\n      swap2\n        /* \"#utility.yul\":9475:9588   */\n      swap1\n      pop\n      jump\t// out\n        /* \"#utility.yul\":9593:10702   */\n    tag_173:\n      0x00\n      dup1\n      0x00\n      dup1\n      0x00\n      dup1\n      0x00\n      dup1\n      0x00\n      dup1\n      0x00\n      dup1\n        /* \"#utility.yul\":9904:9907   */\n      0x0180\n        /* \"#utility.yul\":9892:9901   */\n      dup14\n        /* \"#utility.yul\":9883:9890   */\n      dup16\n        /* \"#utility.yul\":9879:9902   */\n      sub\n        /* \"#utility.yul\":9875:9908   */\n      slt\n        /* \"#utility.yul\":9872:9874   */\n      iszero\n      tag_737\n      jumpi\n        /* \"#utility.yul\":9926:9932   */\n      dup6\n        /* \"#utility.yul\":9918:9924   */\n      dup7\n        /* \"#utility.yul\":9911:9933   */\n      revert\n        /* \"#utility.yul\":9872:9874   */\n    tag_737:\n        /* \"#utility.yul\":9967:9976   */\n      dup13\n        /* \"#utility.yul\":9954:9977   */\n      calldataload\n        /* \"#utility.yul\":9944:9977   */\n      swap12\n      pop\n        /* \"#utility.yul\":9996:10036   */\n      tag_738\n        /* \"#utility.yul\":10032:10034   */\n      0x20\n        /* \"#utility.yul\":10021:10030   */\n      dup15\n        /* \"#utility.yul\":10017:10035   */\n      add\n        /* \"#utility.yul\":9996:10036   */\n      tag_640\n      jump\t// in\n    tag_738:\n        /* \"#utility.yul\":9986:10036   */\n      swap11\n      pop\n        /* \"#utility.yul\":10083:10085   */\n      0x40\n        /* \"#utility.yul\":10072:10081   */\n      dup14\n        /* \"#utility.yul\":10068:10086   */\n      add\n        /* \"#utility.yul\":10055:10087   */\n      calldataload\n        /* \"#utility.yul\":10045:10087   */\n      swap10\n      pop\n        /* \"#utility.yul\":10136:10154   */\n      0xffffffffffffffff\n        /* \"#utility.yul\":10130:10132   */\n      0x60\n        /* \"#utility.yul\":10119:10128   */\n      dup15\n        /* \"#utility.yul\":10115:10133   */\n      add\n        /* \"#utility.yul\":10102:10134   */\n      calldataload\n        /* \"#utility.yul\":10099:10155   */\n      gt\n        /* \"#utility.yul\":10096:10098   */\n      iszero\n      tag_739\n      jumpi\n        /* \"#utility.yul\":10173:10179   */\n      dup6\n        /* \"#utility.yul\":10165:10171   */\n      dup7\n        /* \"#utility.yul\":10158:10180   */\n      revert\n        /* \"#utility.yul\":10096:10098   */\n    tag_739:\n        /* \"#utility.yul\":10201:10278   */\n      tag_740\n        /* \"#utility.yul\":10270:10277   */\n      dup15\n        /* \"#utility.yul\":10263:10265   */\n      0x60\n        /* \"#utility.yul\":10252:10261   */\n      dup16\n        /* \"#utility.yul\":10248:10266   */\n      add\n        /* \"#utility.yul\":10235:10267   */\n      calldataload\n        /* \"#utility.yul\":10224:10233   */\n      dup16\n        /* \"#utility.yul\":10220:10268   */\n      add\n        /* \"#utility.yul\":10201:10278   */\n      tag_655\n      jump\t// in\n    tag_740:\n        /* \"#utility.yul\":9862:10702   */\n      swap12\n      swap15\n      swap11\n      swap14\n      pop\n      swap9\n      swap12\n        /* \"#utility.yul\":10325:10328   */\n      0x80\n        /* \"#utility.yul\":10310:10329   */\n      dup2\n      add\n        /* \"#utility.yul\":10297:10330   */\n      calldataload\n      swap11\n        /* \"#utility.yul\":10377:10380   */\n      0xa0\n        /* \"#utility.yul\":10362:10381   */\n      dup3\n      add\n        /* \"#utility.yul\":10349:10382   */\n      calldataload\n      swap11\n      pop\n        /* \"#utility.yul\":10429:10432   */\n      0xc0\n        /* \"#utility.yul\":10414:10433   */\n      dup3\n      add\n        /* \"#utility.yul\":10401:10434   */\n      calldataload\n      swap10\n      pop\n        /* \"#utility.yul\":10481:10484   */\n      0xe0\n        /* \"#utility.yul\":10466:10485   */\n      dup3\n      add\n        /* \"#utility.yul\":10453:10486   */\n      calldataload\n      swap9\n      pop\n        /* \"#utility.yul\":10533:10536   */\n      0x0100\n        /* \"#utility.yul\":10518:10537   */\n      dup3\n      add\n        /* \"#utility.yul\":10505:10538   */\n      calldataload\n      swap8\n      pop\n        /* \"#utility.yul\":10585:10588   */\n      0x0120\n        /* \"#utility.yul\":10570:10589   */\n      dup3\n      add\n        /* \"#utility.yul\":10557:10590   */\n      calldataload\n      swap7\n      pop\n        /* \"#utility.yul\":10638:10641   */\n      0x0140\n        /* \"#utility.yul\":10623:10642   */\n      dup3\n      add\n        /* \"#utility.yul\":10610:10643   */\n      calldataload\n      swap6\n      pop\n        /* \"#utility.yul\":10691:10694   */\n      0x0160\n        /* \"#utility.yul\":10676:10695   */\n      swap1\n      swap2\n      add\n        /* \"#utility.yul\":10663:10696   */\n      calldataload\n      swap4\n      pop\n        /* \"#utility.yul\":9862:10702   */\n      swap2\n      pop\n      pop\n      jump\t// out\n        /* \"#utility.yul\":10707:10813   */\n    tag_741:\n      sub(shl(0xa0, 0x01), 0x01)\n        /* \"#utility.yul\":10775:10806   */\n      and\n        /* \"#utility.yul\":10763:10807   */\n      swap1\n      mstore\n        /* \"#utility.yul\":10753:10813   */\n      jump\t// out\n        /* \"#utility.yul\":10818:11077   */\n    tag_743:\n      0x00\n        /* \"#utility.yul\":10899:10904   */\n      dup2\n        /* \"#utility.yul\":10893:10905   */\n      mload\n        /* \"#utility.yul\":10926:10932   */\n      dup1\n        /* \"#utility.yul\":10921:10924   */\n      dup5\n        /* \"#utility.yul\":10914:10933   */\n      mstore\n        /* \"#utility.yul\":10942:11005   */\n      tag_745\n        /* \"#utility.yul\":10998:11004   */\n      dup2\n        /* \"#utility.yul\":10991:10995   */\n      0x20\n        /* \"#utility.yul\":10986:10989   */\n      dup7\n        /* \"#utility.yul\":10982:10996   */\n      add\n        /* \"#utility.yul\":10975:10979   */\n      0x20\n        /* \"#utility.yul\":10968:10973   */\n      dup7\n        /* \"#utility.yul\":10964:10980   */\n      add\n        /* \"#utility.yul\":10942:11005   */\n      tag_746\n      jump\t// in\n    tag_745:\n        /* \"#utility.yul\":11059:11061   */\n      0x1f\n        /* \"#utility.yul\":11038:11053   */\n      add\n      not(0x1f)\n        /* \"#utility.yul\":11034:11063   */\n      and\n        /* \"#utility.yul\":11025:11064   */\n      swap3\n      swap1\n      swap3\n      add\n        /* \"#utility.yul\":11066:11070   */\n      0x20\n        /* \"#utility.yul\":11021:11071   */\n      add\n      swap3\n        /* \"#utility.yul\":10869:11077   */\n      swap2\n      pop\n      pop\n      jump\t// out\n        /* \"#utility.yul\":11082:11356   */\n    tag_615:\n      0x00\n        /* \"#utility.yul\":11249:11255   */\n      dup3\n        /* \"#utility.yul\":11243:11256   */\n      mload\n        /* \"#utility.yul\":11265:11318   */\n      tag_748\n        /* \"#utility.yul\":11311:11317   */\n      dup2\n        /* \"#utility.yul\":11306:11309   */\n      dup5\n        /* \"#utility.yul\":11299:11303   */\n      0x20\n        /* \"#utility.yul\":11291:11297   */\n      dup8\n        /* \"#utility.yul\":11287:11304   */\n      add\n        /* \"#utility.yul\":11265:11318   */\n      tag_746\n      jump\t// in\n    tag_748:\n        /* \"#utility.yul\":11334:11350   */\n      swap2\n      swap1\n      swap2\n      add\n      swap3\n        /* \"#utility.yul\":11219:11356   */\n      swap2\n      pop\n      pop\n      jump\t// out\n        /* \"#utility.yul\":11361:11564   */\n    tag_67:\n      sub(shl(0xa0, 0x01), 0x01)\n        /* \"#utility.yul\":11525:11557   */\n      swap2\n      swap1\n      swap2\n      and\n        /* \"#utility.yul\":11507:11558   */\n      dup2\n      mstore\n        /* \"#utility.yul\":11495:11497   */\n      0x20\n        /* \"#utility.yul\":11480:11498   */\n      add\n      swap1\n        /* \"#utility.yul\":11462:11564   */\n      jump\t// out\n        /* \"#utility.yul\":11569:11944   */\n    tag_554:\n      sub(shl(0xa0, 0x01), 0x01)\n        /* \"#utility.yul\":11827:11842   */\n      swap4\n      dup5\n      and\n        /* \"#utility.yul\":11809:11843   */\n      dup2\n      mstore\n        /* \"#utility.yul\":11879:11894   */\n      swap2\n      swap1\n      swap3\n      and\n        /* \"#utility.yul\":11874:11876   */\n      0x20\n        /* \"#utility.yul\":11859:11877   */\n      dup3\n      add\n        /* \"#utility.yul\":11852:11895   */\n      mstore\n        /* \"#utility.yul\":11926:11928   */\n      0x40\n        /* \"#utility.yul\":11911:11929   */\n      dup2\n      add\n        /* \"#utility.yul\":11904:11938   */\n      swap2\n      swap1\n      swap2\n      mstore\n        /* \"#utility.yul\":11759:11761   */\n      0x60\n        /* \"#utility.yul\":11744:11762   */\n      add\n      swap1\n        /* \"#utility.yul\":11726:11944   */\n      jump\t// out\n        /* \"#utility.yul\":11949:12223   */\n    tag_335:\n      sub(shl(0xa0, 0x01), 0x01)\n        /* \"#utility.yul\":12141:12173   */\n      swap3\n      swap1\n      swap3\n      and\n        /* \"#utility.yul\":12123:12174   */\n      dup3\n      mstore\n        /* \"#utility.yul\":12205:12207   */\n      0x20\n        /* \"#utility.yul\":12190:12208   */\n      dup3\n      add\n        /* \"#utility.yul\":12183:12217   */\n      mstore\n        /* \"#utility.yul\":12111:12113   */\n      0x40\n        /* \"#utility.yul\":12096:12114   */\n      add\n      swap1\n        /* \"#utility.yul\":12078:12223   */\n      jump\t// out\n        /* \"#utility.yul\":12228:12863   */\n    tag_47:\n        /* \"#utility.yul\":12399:12401   */\n      0x20\n        /* \"#utility.yul\":12451:12472   */\n      dup1\n      dup3\n      mstore\n        /* \"#utility.yul\":12521:12534   */\n      dup3\n      mload\n        /* \"#utility.yul\":12424:12442   */\n      dup3\n      dup3\n      add\n        /* \"#utility.yul\":12543:12565   */\n      dup2\n      swap1\n      mstore\n        /* \"#utility.yul\":12228:12863   */\n      0x00\n      swap2\n        /* \"#utility.yul\":12399:12401   */\n      swap1\n        /* \"#utility.yul\":12622:12637   */\n      dup5\n      dup3\n      add\n      swap1\n        /* \"#utility.yul\":12596:12598   */\n      0x40\n        /* \"#utility.yul\":12581:12599   */\n      dup6\n      add\n      swap1\n        /* \"#utility.yul\":12228:12863   */\n      dup5\n        /* \"#utility.yul\":12668:12837   */\n    tag_753:\n        /* \"#utility.yul\":12682:12688   */\n      dup2\n        /* \"#utility.yul\":12679:12680   */\n      dup2\n        /* \"#utility.yul\":12676:12689   */\n      lt\n        /* \"#utility.yul\":12668:12837   */\n      iszero\n      tag_755\n      jumpi\n        /* \"#utility.yul\":12743:12756   */\n      dup4\n      mload\n        /* \"#utility.yul\":12731:12757   */\n      dup4\n      mstore\n        /* \"#utility.yul\":12812:12827   */\n      swap3\n      dup5\n      add\n      swap3\n        /* \"#utility.yul\":12777:12789   */\n      swap2\n      dup5\n      add\n      swap2\n        /* \"#utility.yul\":12704:12705   */\n      0x01\n        /* \"#utility.yul\":12697:12706   */\n      add\n        /* \"#utility.yul\":12668:12837   */\n      jump(tag_753)\n    tag_755:\n      pop\n        /* \"#utility.yul\":12854:12857   */\n      swap1\n      swap7\n        /* \"#utility.yul\":12379:12863   */\n      swap6\n      pop\n      pop\n      pop\n      pop\n      pop\n      pop\n      jump\t// out\n        /* \"#utility.yul\":12868:13055   */\n    tag_59:\n        /* \"#utility.yul\":13033:13047   */\n      swap1\n      iszero\n        /* \"#utility.yul\":13026:13048   */\n      iszero\n        /* \"#utility.yul\":13008:13049   */\n      dup2\n      mstore\n        /* \"#utility.yul\":12996:12998   */\n      0x20\n        /* \"#utility.yul\":12981:12999   */\n      add\n      swap1\n        /* \"#utility.yul\":12963:13055   */\n      jump\t// out\n        /* \"#utility.yul\":13060:13669   */\n    tag_296:\n      0x00\n        /* \"#utility.yul\":13347:13353   */\n      dup7\n        /* \"#utility.yul\":13340:13354   */\n      iszero\n        /* \"#utility.yul\":13333:13355   */\n      iszero\n        /* \"#utility.yul\":13322:13331   */\n      dup3\n        /* \"#utility.yul\":13315:13356   */\n      mstore\n        /* \"#utility.yul\":13392:13398   */\n      dup6\n        /* \"#utility.yul\":13387:13389   */\n      0x20\n        /* \"#utility.yul\":13376:13385   */\n      dup4\n        /* \"#utility.yul\":13372:13390   */\n      add\n        /* \"#utility.yul\":13365:13399   */\n      mstore\n        /* \"#utility.yul\":13435:13441   */\n      dup5\n        /* \"#utility.yul\":13430:13432   */\n      0x40\n        /* \"#utility.yul\":13419:13428   */\n      dup4\n        /* \"#utility.yul\":13415:13433   */\n      add\n        /* \"#utility.yul\":13408:13442   */\n      mstore\n        /* \"#utility.yul\":13478:13481   */\n      0xa0\n        /* \"#utility.yul\":13473:13475   */\n      0x60\n        /* \"#utility.yul\":13462:13471   */\n      dup4\n        /* \"#utility.yul\":13458:13476   */\n      add\n        /* \"#utility.yul\":13451:13482   */\n      mstore\n        /* \"#utility.yul\":13505:13552   */\n      tag_758\n        /* \"#utility.yul\":13547:13550   */\n      0xa0\n        /* \"#utility.yul\":13536:13545   */\n      dup4\n        /* \"#utility.yul\":13532:13551   */\n      add\n        /* \"#utility.yul\":13524:13530   */\n      dup6\n        /* \"#utility.yul\":13505:13552   */\n      tag_743\n      jump\t// in\n    tag_758:\n        /* \"#utility.yul\":13601:13610   */\n      dup3\n        /* \"#utility.yul\":13593:13599   */\n      dup2\n        /* \"#utility.yul\":13589:13611   */\n      sub\n        /* \"#utility.yul\":13583:13586   */\n      0x80\n        /* \"#utility.yul\":13572:13581   */\n      dup5\n        /* \"#utility.yul\":13568:13587   */\n      add\n        /* \"#utility.yul\":13561:13612   */\n      mstore\n        /* \"#utility.yul\":13629:13663   */\n      tag_267\n        /* \"#utility.yul\":13656:13662   */\n      dup2\n        /* \"#utility.yul\":13648:13654   */\n      dup6\n        /* \"#utility.yul\":13629:13663   */\n      tag_743\n      jump\t// in\n        /* \"#utility.yul\":14360:14581   */\n    tag_628:\n      0x00\n        /* \"#utility.yul\":14509:14511   */\n      0x20\n        /* \"#utility.yul\":14498:14507   */\n      dup3\n        /* \"#utility.yul\":14491:14512   */\n      mstore\n        /* \"#utility.yul\":14529:14575   */\n      tag_418\n        /* \"#utility.yul\":14571:14573   */\n      0x20\n        /* \"#utility.yul\":14560:14569   */\n      dup4\n        /* \"#utility.yul\":14556:14574   */\n      add\n        /* \"#utility.yul\":14548:14554   */\n      dup5\n        /* \"#utility.yul\":14529:14575   */\n      tag_743\n      jump\t// in\n        /* \"#utility.yul\":14586:14930   */\n    tag_291:\n        /* \"#utility.yul\":14788:14790   */\n      0x20\n        /* \"#utility.yul\":14770:14791   */\n      dup1\n      dup3\n      mstore\n        /* \"#utility.yul\":14827:14829   */\n      0x14\n        /* \"#utility.yul\":14807:14825   */\n      swap1\n      dup3\n      add\n        /* \"#utility.yul\":14800:14830   */\n      mstore\n      shl(0x62, 0x1bdc99195c88191bd95cc81b9bdd08195e1a5cdd)\n        /* \"#utility.yul\":14861:14863   */\n      0x40\n        /* \"#utility.yul\":14846:14864   */\n      dup3\n      add\n        /* \"#utility.yul\":14839:14889   */\n      mstore\n        /* \"#utility.yul\":14921:14923   */\n      0x60\n        /* \"#utility.yul\":14906:14924   */\n      add\n      swap1\n        /* \"#utility.yul\":14760:14930   */\n      jump\t// out\n        /* \"#utility.yul\":14935:15273   */\n    tag_346:\n        /* \"#utility.yul\":15137:15139   */\n      0x20\n        /* \"#utility.yul\":15119:15140   */\n      dup1\n      dup3\n      mstore\n        /* \"#utility.yul\":15176:15178   */\n      0x0e\n        /* \"#utility.yul\":15156:15174   */\n      swap1\n      dup3\n      add\n        /* \"#utility.yul\":15149:15179   */\n      mstore\n      shl(0x92, 0x1b585c99da5b881b9bc819dbdbd9)\n        /* \"#utility.yul\":15210:15212   */\n      0x40\n        /* \"#utility.yul\":15195:15213   */\n      dup3\n      add\n        /* \"#utility.yul\":15188:15232   */\n      mstore\n        /* \"#utility.yul\":15264:15266   */\n      0x60\n        /* \"#utility.yul\":15249:15267   */\n      add\n      swap1\n        /* \"#utility.yul\":15109:15273   */\n      jump\t// out\n        /* \"#utility.yul\":15278:15680   */\n    tag_398:\n        /* \"#utility.yul\":15480:15482   */\n      0x20\n        /* \"#utility.yul\":15462:15483   */\n      dup1\n      dup3\n      mstore\n        /* \"#utility.yul\":15519:15521   */\n      0x26\n        /* \"#utility.yul\":15499:15517   */\n      swap1\n      dup3\n      add\n        /* \"#utility.yul\":15492:15522   */\n      mstore\n        /* \"#utility.yul\":15558:15592   */\n      0x4f776e61626c653a206e6577206f776e657220697320746865207a65726f2061\n        /* \"#utility.yul\":15553:15555   */\n      0x40\n        /* \"#utility.yul\":15538:15556   */\n      dup3\n      add\n        /* \"#utility.yul\":15531:15593   */\n      mstore\n      shl(0xd0, 0x646472657373)\n        /* \"#utility.yul\":15624:15626   */\n      0x60\n        /* \"#utility.yul\":15609:15627   */\n      dup3\n      add\n        /* \"#utility.yul\":15602:15638   */\n      mstore\n        /* \"#utility.yul\":15670:15673   */\n      0x80\n        /* \"#utility.yul\":15655:15674   */\n      add\n      swap1\n        /* \"#utility.yul\":15452:15680   */\n      jump\t// out\n        /* \"#utility.yul\":15685:16019   */\n    tag_304:\n        /* \"#utility.yul\":15887:15889   */\n      0x20\n        /* \"#utility.yul\":15869:15890   */\n      dup1\n      dup3\n      mstore\n        /* \"#utility.yul\":15926:15928   */\n      0x0a\n        /* \"#utility.yul\":15906:15924   */\n      swap1\n      dup3\n      add\n        /* \"#utility.yul\":15899:15929   */\n      mstore\n      shl(0xb1, 0x37b930b1b6329032b939)\n        /* \"#utility.yul\":15960:15962   */\n      0x40\n        /* \"#utility.yul\":15945:15963   */\n      dup3\n      add\n        /* \"#utility.yul\":15938:15978   */\n      mstore\n        /* \"#utility.yul\":16010:16012   */\n      0x60\n        /* \"#utility.yul\":15995:16013   */\n      add\n      swap1\n        /* \"#utility.yul\":15859:16019   */\n      jump\t// out\n        /* \"#utility.yul\":16024:16424   */\n    tag_229:\n        /* \"#utility.yul\":16226:16228   */\n      0x20\n        /* \"#utility.yul\":16208:16229   */\n      dup1\n      dup3\n      mstore\n        /* \"#utility.yul\":16265:16267   */\n      0x24\n        /* \"#utility.yul\":16245:16263   */\n      swap1\n      dup3\n      add\n        /* \"#utility.yul\":16238:16268   */\n      mstore\n        /* \"#utility.yul\":16304:16338   */\n      0x6578656375746f723a2063616c6c6572206973206e6f74207468652065786563\n        /* \"#utility.yul\":16299:16301   */\n      0x40\n        /* \"#utility.yul\":16284:16302   */\n      dup3\n      add\n        /* \"#utility.yul\":16277:16339   */\n      mstore\n      shl(0xe1, 0x3aba37b9)\n        /* \"#utility.yul\":16370:16372   */\n      0x60\n        /* \"#utility.yul\":16355:16373   */\n      dup3\n      add\n        /* \"#utility.yul\":16348:16382   */\n      mstore\n        /* \"#utility.yul\":16414:16417   */\n      0x80\n        /* \"#utility.yul\":16399:16418   */\n      add\n      swap1\n        /* \"#utility.yul\":16198:16424   */\n      jump\t// out\n        /* \"#utility.yul\":16429:16831   */\n    tag_608:\n        /* \"#utility.yul\":16631:16633   */\n      0x20\n        /* \"#utility.yul\":16613:16634   */\n      dup1\n      dup3\n      mstore\n        /* \"#utility.yul\":16670:16672   */\n      0x26\n        /* \"#utility.yul\":16650:16668   */\n      swap1\n      dup3\n      add\n        /* \"#utility.yul\":16643:16673   */\n      mstore\n        /* \"#utility.yul\":16709:16743   */\n      0x416464726573733a20696e73756666696369656e742062616c616e636520666f\n        /* \"#utility.yul\":16704:16706   */\n      0x40\n        /* \"#utility.yul\":16689:16707   */\n      dup3\n      add\n        /* \"#utility.yul\":16682:16744   */\n      mstore\n      shl(0xd2, 0x1c8818d85b1b)\n        /* \"#utility.yul\":16775:16777   */\n      0x60\n        /* \"#utility.yul\":16760:16778   */\n      dup3\n      add\n        /* \"#utility.yul\":16753:16789   */\n      mstore\n        /* \"#utility.yul\":16821:16824   */\n      0x80\n        /* \"#utility.yul\":16806:16825   */\n      add\n      swap1\n        /* \"#utility.yul\":16603:16831   */\n      jump\t// out\n        /* \"#utility.yul\":16836:17246   */\n    tag_404:\n        /* \"#utility.yul\":17038:17040   */\n      0x20\n        /* \"#utility.yul\":17020:17041   */\n      dup1\n      dup3\n      mstore\n        /* \"#utility.yul\":17077:17079   */\n      0x2e\n        /* \"#utility.yul\":17057:17075   */\n      swap1\n      dup3\n      add\n        /* \"#utility.yul\":17050:17080   */\n      mstore\n        /* \"#utility.yul\":17116:17150   */\n      0x496e697469616c697a61626c653a20636f6e747261637420697320616c726561\n        /* \"#utility.yul\":17111:17113   */\n      0x40\n        /* \"#utility.yul\":17096:17114   */\n      dup3\n      add\n        /* \"#utility.yul\":17089:17151   */\n      mstore\n      shl(0x92, 0x191e481a5b9a5d1a585b1a5e9959)\n        /* \"#utility.yul\":17182:17184   */\n      0x60\n        /* \"#utility.yul\":17167:17185   */\n      dup3\n      add\n        /* \"#utility.yul\":17160:17204   */\n      mstore\n        /* \"#utility.yul\":17236:17239   */\n      0x80\n        /* \"#utility.yul\":17221:17240   */\n      add\n      swap1\n        /* \"#utility.yul\":17010:17246   */\n      jump\t// out\n        /* \"#utility.yul\":17251:17650   */\n    tag_358:\n        /* \"#utility.yul\":17453:17455   */\n      0x20\n        /* \"#utility.yul\":17435:17456   */\n      dup1\n      dup3\n      mstore\n        /* \"#utility.yul\":17492:17494   */\n      0x23\n        /* \"#utility.yul\":17472:17490   */\n      swap1\n      dup3\n      add\n        /* \"#utility.yul\":17465:17495   */\n      mstore\n        /* \"#utility.yul\":17531:17565   */\n      0x546865207472616e73616374696f6e20616d6f756e7420697320746f6f20736d\n        /* \"#utility.yul\":17526:17528   */\n      0x40\n        /* \"#utility.yul\":17511:17529   */\n      dup3\n      add\n        /* \"#utility.yul\":17504:17566   */\n      mstore\n      shl(0xea, 0x185b1b)\n        /* \"#utility.yul\":17597:17599   */\n      0x60\n        /* \"#utility.yul\":17582:17600   */\n      dup3\n      add\n        /* \"#utility.yul\":17575:17608   */\n      mstore\n        /* \"#utility.yul\":17640:17643   */\n      0x80\n        /* \"#utility.yul\":17625:17644   */\n      add\n      swap1\n        /* \"#utility.yul\":17425:17650   */\n      jump\t// out\n        /* \"#utility.yul\":17655:17995   */\n    tag_308:\n        /* \"#utility.yul\":17857:17859   */\n      0x20\n        /* \"#utility.yul\":17839:17860   */\n      dup1\n      dup3\n      mstore\n        /* \"#utility.yul\":17896:17898   */\n      0x10\n        /* \"#utility.yul\":17876:17894   */\n      swap1\n      dup3\n      add\n        /* \"#utility.yul\":17869:17899   */\n      mstore\n      shl(0x82, 0x155cd95c881a5cc818985b9adc9d5c1d)\n        /* \"#utility.yul\":17930:17932   */\n      0x40\n        /* \"#utility.yul\":17915:17933   */\n      dup3\n      add\n        /* \"#utility.yul\":17908:17954   */\n      mstore\n        /* \"#utility.yul\":17986:17988   */\n      0x60\n        /* \"#utility.yul\":17971:17989   */\n      add\n      swap1\n        /* \"#utility.yul\":17829:17995   */\n      jump\t// out\n        /* \"#utility.yul\":18000:18356   */\n    tag_224:\n        /* \"#utility.yul\":18202:18204   */\n      0x20\n        /* \"#utility.yul\":18184:18205   */\n      dup1\n      dup3\n      mstore\n        /* \"#utility.yul\":18221:18239   */\n      dup2\n      dup2\n      add\n        /* \"#utility.yul\":18214:18244   */\n      mstore\n        /* \"#utility.yul\":18280:18314   */\n      0x4f776e61626c653a2063616c6c6572206973206e6f7420746865206f776e6572\n        /* \"#utility.yul\":18275:18277   */\n      0x40\n        /* \"#utility.yul\":18260:18278   */\n      dup3\n      add\n        /* \"#utility.yul\":18253:18315   */\n      mstore\n        /* \"#utility.yul\":18347:18349   */\n      0x60\n        /* \"#utility.yul\":18332:18350   */\n      add\n      swap1\n        /* \"#utility.yul\":18174:18356   */\n      jump\t// out\n        /* \"#utility.yul\":18361:18714   */\n    tag_613:\n        /* \"#utility.yul\":18563:18565   */\n      0x20\n        /* \"#utility.yul\":18545:18566   */\n      dup1\n      dup3\n      mstore\n        /* \"#utility.yul\":18602:18604   */\n      0x1d\n        /* \"#utility.yul\":18582:18600   */\n      swap1\n      dup3\n      add\n        /* \"#utility.yul\":18575:18605   */\n      mstore\n        /* \"#utility.yul\":18641:18672   */\n      0x416464726573733a2063616c6c20746f206e6f6e2d636f6e7472616374000000\n        /* \"#utility.yul\":18636:18638   */\n      0x40\n        /* \"#utility.yul\":18621:18639   */\n      dup3\n      add\n        /* \"#utility.yul\":18614:18673   */\n      mstore\n        /* \"#utility.yul\":18705:18707   */\n      0x60\n        /* \"#utility.yul\":18690:18708   */\n      add\n      swap1\n        /* \"#utility.yul\":18535:18714   */\n      jump\t// out\n        /* \"#utility.yul\":18719:19053   */\n    tag_201:\n        /* \"#utility.yul\":18921:18923   */\n      0x20\n        /* \"#utility.yul\":18903:18924   */\n      dup1\n      dup3\n      mstore\n        /* \"#utility.yul\":18960:18962   */\n      0x0a\n        /* \"#utility.yul\":18940:18958   */\n      swap1\n      dup3\n      add\n        /* \"#utility.yul\":18933:18963   */\n      mstore\n      shl(0xb1, 0x3632b733ba341032b939)\n        /* \"#utility.yul\":18994:18996   */\n      0x40\n        /* \"#utility.yul\":18979:18997   */\n      dup3\n      add\n        /* \"#utility.yul\":18972:19012   */\n      mstore\n        /* \"#utility.yul\":19044:19046   */\n      0x60\n        /* \"#utility.yul\":19029:19047   */\n      add\n      swap1\n        /* \"#utility.yul\":18893:19053   */\n      jump\t// out\n        /* \"#utility.yul\":19058:19389   */\n    tag_266:\n        /* \"#utility.yul\":19260:19262   */\n      0x20\n        /* \"#utility.yul\":19242:19263   */\n      dup1\n      dup3\n      mstore\n        /* \"#utility.yul\":19299:19300   */\n      0x08\n        /* \"#utility.yul\":19279:19297   */\n      swap1\n      dup3\n      add\n        /* \"#utility.yul\":19272:19301   */\n      mstore\n      shl(0xc1, 0x3ab9b2b91032b939)\n        /* \"#utility.yul\":19332:19334   */\n      0x40\n        /* \"#utility.yul\":19317:19335   */\n      dup3\n      add\n        /* \"#utility.yul\":19310:19348   */\n      mstore\n        /* \"#utility.yul\":19380:19382   */\n      0x60\n        /* \"#utility.yul\":19365:19383   */\n      add\n      swap1\n        /* \"#utility.yul\":19232:19389   */\n      jump\t// out\n        /* \"#utility.yul\":19394:19726   */\n    tag_294:\n        /* \"#utility.yul\":19596:19598   */\n      0x20\n        /* \"#utility.yul\":19578:19599   */\n      dup1\n      dup3\n      mstore\n        /* \"#utility.yul\":19635:19636   */\n      0x09\n        /* \"#utility.yul\":19615:19633   */\n      swap1\n      dup3\n      add\n        /* \"#utility.yul\":19608:19637   */\n      mstore\n      shl(0xb9, 0x39ba30ba329032b939)\n        /* \"#utility.yul\":19668:19670   */\n      0x40\n        /* \"#utility.yul\":19653:19671   */\n      dup3\n      add\n        /* \"#utility.yul\":19646:19685   */\n      mstore\n        /* \"#utility.yul\":19717:19719   */\n      0x60\n        /* \"#utility.yul\":19702:19720   */\n      add\n      swap1\n        /* \"#utility.yul\":19568:19726   */\n      jump\t// out\n        /* \"#utility.yul\":19731:20137   */\n    tag_585:\n        /* \"#utility.yul\":19933:19935   */\n      0x20\n        /* \"#utility.yul\":19915:19936   */\n      dup1\n      dup3\n      mstore\n        /* \"#utility.yul\":19972:19974   */\n      0x2a\n        /* \"#utility.yul\":19952:19970   */\n      swap1\n      dup3\n      add\n        /* \"#utility.yul\":19945:19975   */\n      mstore\n        /* \"#utility.yul\":20011:20045   */\n      0x5361666545524332303a204552433230206f7065726174696f6e20646964206e\n        /* \"#utility.yul\":20006:20008   */\n      0x40\n        /* \"#utility.yul\":19991:20009   */\n      dup3\n      add\n        /* \"#utility.yul\":19984:20046   */\n      mstore\n      shl(0xb2, 0x1bdd081cdd58d8d95959)\n        /* \"#utility.yul\":20077:20079   */\n      0x60\n        /* \"#utility.yul\":20062:20080   */\n      dup3\n      add\n        /* \"#utility.yul\":20055:20095   */\n      mstore\n        /* \"#utility.yul\":20127:20130   */\n      0x80\n        /* \"#utility.yul\":20112:20131   */\n      add\n      swap1\n        /* \"#utility.yul\":19905:20137   */\n      jump\t// out\n        /* \"#utility.yul\":20142:21280   */\n    tag_90:\n      0x00\n        /* \"#utility.yul\":20325:20327   */\n      0x20\n        /* \"#utility.yul\":20314:20323   */\n      dup3\n        /* \"#utility.yul\":20307:20328   */\n      mstore\n        /* \"#utility.yul\":20337:20392   */\n      tag_781\n        /* \"#utility.yul\":20388:20390   */\n      0x20\n        /* \"#utility.yul\":20377:20386   */\n      dup4\n        /* \"#utility.yul\":20373:20391   */\n      add\n        /* \"#utility.yul\":20364:20370   */\n      dup5\n        /* \"#utility.yul\":20358:20371   */\n      mload\n        /* \"#utility.yul\":20337:20392   */\n      tag_741\n      jump\t// in\n    tag_781:\n        /* \"#utility.yul\":20446:20448   */\n      0x20\n        /* \"#utility.yul\":20438:20444   */\n      dup4\n        /* \"#utility.yul\":20434:20449   */\n      add\n        /* \"#utility.yul\":20428:20450   */\n      mload\n        /* \"#utility.yul\":20423:20425   */\n      0x40\n        /* \"#utility.yul\":20412:20421   */\n      dup4\n        /* \"#utility.yul\":20408:20426   */\n      add\n        /* \"#utility.yul\":20401:20451   */\n      mstore\n        /* \"#utility.yul\":20498:20500   */\n      0x40\n        /* \"#utility.yul\":20490:20496   */\n      dup4\n        /* \"#utility.yul\":20486:20501   */\n      add\n        /* \"#utility.yul\":20480:20502   */\n      mload\n        /* \"#utility.yul\":20521:20527   */\n      0x0160\n        /* \"#utility.yul\":20563:20565   */\n      dup1\n        /* \"#utility.yul\":20558:20560   */\n      0x60\n        /* \"#utility.yul\":20547:20556   */\n      dup6\n        /* \"#utility.yul\":20543:20561   */\n      add\n        /* \"#utility.yul\":20536:20566   */\n      mstore\n        /* \"#utility.yul\":20589:20642   */\n      tag_782\n        /* \"#utility.yul\":20637:20640   */\n      0x0180\n        /* \"#utility.yul\":20626:20635   */\n      dup6\n        /* \"#utility.yul\":20622:20641   */\n      add\n        /* \"#utility.yul\":20608:20620   */\n      dup4\n        /* \"#utility.yul\":20589:20642   */\n      tag_743\n      jump\t// in\n    tag_782:\n        /* \"#utility.yul\":20575:20642   */\n      swap2\n      pop\n        /* \"#utility.yul\":20697:20699   */\n      0x60\n        /* \"#utility.yul\":20689:20695   */\n      dup6\n        /* \"#utility.yul\":20685:20700   */\n      add\n        /* \"#utility.yul\":20679:20701   */\n      mload\n        /* \"#utility.yul\":20673:20676   */\n      0x80\n        /* \"#utility.yul\":20662:20671   */\n      dup6\n        /* \"#utility.yul\":20658:20677   */\n      add\n        /* \"#utility.yul\":20651:20702   */\n      mstore\n        /* \"#utility.yul\":20757:20760   */\n      0x80\n        /* \"#utility.yul\":20749:20755   */\n      dup6\n        /* \"#utility.yul\":20745:20761   */\n      add\n        /* \"#utility.yul\":20739:20762   */\n      mload\n        /* \"#utility.yul\":20733:20736   */\n      0xa0\n        /* \"#utility.yul\":20722:20731   */\n      dup6\n        /* \"#utility.yul\":20718:20737   */\n      add\n        /* \"#utility.yul\":20711:20763   */\n      mstore\n        /* \"#utility.yul\":20818:20821   */\n      0xa0\n        /* \"#utility.yul\":20810:20816   */\n      dup6\n        /* \"#utility.yul\":20806:20822   */\n      add\n        /* \"#utility.yul\":20800:20823   */\n      mload\n        /* \"#utility.yul\":20794:20797   */\n      0xc0\n        /* \"#utility.yul\":20783:20792   */\n      dup6\n        /* \"#utility.yul\":20779:20798   */\n      add\n        /* \"#utility.yul\":20772:20824   */\n      mstore\n        /* \"#utility.yul\":20879:20882   */\n      0xc0\n        /* \"#utility.yul\":20871:20877   */\n      dup6\n        /* \"#utility.yul\":20867:20883   */\n      add\n        /* \"#utility.yul\":20861:20884   */\n      mload\n        /* \"#utility.yul\":20855:20858   */\n      0xe0\n        /* \"#utility.yul\":20844:20853   */\n      dup6\n        /* \"#utility.yul\":20840:20859   */\n      add\n        /* \"#utility.yul\":20833:20885   */\n      mstore\n        /* \"#utility.yul\":20922:20925   */\n      0xe0\n        /* \"#utility.yul\":20914:20920   */\n      dup6\n        /* \"#utility.yul\":20910:20926   */\n      add\n        /* \"#utility.yul\":20904:20927   */\n      mload\n        /* \"#utility.yul\":20946:20949   */\n      0x0100\n        /* \"#utility.yul\":20985:20987   */\n      dup2\n        /* \"#utility.yul\":20980:20982   */\n      dup2\n        /* \"#utility.yul\":20969:20978   */\n      dup8\n        /* \"#utility.yul\":20965:20983   */\n      add\n        /* \"#utility.yul\":20958:20988   */\n      mstore\n        /* \"#utility.yul\":21025:21027   */\n      dup1\n        /* \"#utility.yul\":21017:21023   */\n      dup8\n        /* \"#utility.yul\":21013:21028   */\n      add\n        /* \"#utility.yul\":21007:21029   */\n      mload\n        /* \"#utility.yul\":20997:21029   */\n      swap2\n      pop\n      pop\n        /* \"#utility.yul\":21048:21051   */\n      0x0120\n        /* \"#utility.yul\":21087:21089   */\n      dup2\n        /* \"#utility.yul\":21082:21084   */\n      dup2\n        /* \"#utility.yul\":21071:21080   */\n      dup8\n        /* \"#utility.yul\":21067:21085   */\n      add\n        /* \"#utility.yul\":21060:21090   */\n      mstore\n        /* \"#utility.yul\":21127:21129   */\n      dup1\n        /* \"#utility.yul\":21119:21125   */\n      dup8\n        /* \"#utility.yul\":21115:21130   */\n      add\n        /* \"#utility.yul\":21109:21131   */\n      mload\n        /* \"#utility.yul\":21099:21131   */\n      swap2\n      pop\n      pop\n        /* \"#utility.yul\":21150:21153   */\n      0x0140\n        /* \"#utility.yul\":21189:21191   */\n      dup2\n        /* \"#utility.yul\":21184:21186   */\n      dup2\n        /* \"#utility.yul\":21173:21182   */\n      dup8\n        /* \"#utility.yul\":21169:21187   */\n      add\n        /* \"#utility.yul\":21162:21192   */\n      mstore\n        /* \"#utility.yul\":21246:21248   */\n      dup1\n        /* \"#utility.yul\":21238:21244   */\n      dup8\n        /* \"#utility.yul\":21234:21249   */\n      add\n        /* \"#utility.yul\":21228:21250   */\n      mload\n        /* \"#utility.yul\":21223:21225   */\n      dup4\n        /* \"#utility.yul\":21212:21221   */\n      dup8\n        /* \"#utility.yul\":21208:21226   */\n      add\n        /* \"#utility.yul\":21201:21251   */\n      mstore\n      pop\n      pop\n      pop\n        /* \"#utility.yul\":21268:21274   */\n      dup1\n        /* \"#utility.yul\":21260:21274   */\n      swap2\n      pop\n      pop\n        /* \"#utility.yul\":20297:21280   */\n      swap3\n      swap2\n      pop\n      pop\n      jump\t// out\n        /* \"#utility.yul\":21285:21462   */\n    tag_53:\n        /* \"#utility.yul\":21431:21456   */\n      swap1\n      dup2\n      mstore\n        /* \"#utility.yul\":21419:21421   */\n      0x20\n        /* \"#utility.yul\":21404:21422   */\n      add\n      swap1\n        /* \"#utility.yul\":21386:21462   */\n      jump\t// out\n        /* \"#utility.yul\":21467:21718   */\n    tag_650:\n        /* \"#utility.yul\":21537:21539   */\n      0x40\n        /* \"#utility.yul\":21531:21540   */\n      mload\n        /* \"#utility.yul\":21567:21584   */\n      dup2\n      dup2\n      add\n        /* \"#utility.yul\":21614:21632   */\n      0xffffffffffffffff\n        /* \"#utility.yul\":21599:21633   */\n      dup2\n      gt\n        /* \"#utility.yul\":21635:21657   */\n      dup3\n      dup3\n      lt\n        /* \"#utility.yul\":21596:21658   */\n      or\n        /* \"#utility.yul\":21593:21595   */\n      iszero\n      tag_786\n      jumpi\n        /* \"#utility.yul\":21661:21679   */\n      tag_786\n      tag_673\n      jump\t// in\n    tag_786:\n        /* \"#utility.yul\":21697:21699   */\n      0x40\n        /* \"#utility.yul\":21690:21712   */\n      mstore\n        /* \"#utility.yul\":21511:21718   */\n      swap2\n      swap1\n      pop\n      jump\t// out\n        /* \"#utility.yul\":21723:21913   */\n    tag_649:\n      0x00\n        /* \"#utility.yul\":21820:21838   */\n      0xffffffffffffffff\n        /* \"#utility.yul\":21812:21818   */\n      dup3\n        /* \"#utility.yul\":21809:21839   */\n      gt\n        /* \"#utility.yul\":21806:21808   */\n      iszero\n      tag_789\n      jumpi\n        /* \"#utility.yul\":21842:21860   */\n      tag_789\n      tag_673\n      jump\t// in\n    tag_789:\n      pop\n        /* \"#utility.yul\":21902:21906   */\n      0x20\n        /* \"#utility.yul\":21883:21900   */\n      swap1\n      dup2\n      mul\n        /* \"#utility.yul\":21879:21907   */\n      add\n      swap1\n        /* \"#utility.yul\":21796:21913   */\n      jump\t// out\n        /* \"#utility.yul\":21918:22046   */\n    tag_433:\n      0x00\n        /* \"#utility.yul\":21989:21990   */\n      dup3\n        /* \"#utility.yul\":21985:21991   */\n      not\n        /* \"#utility.yul\":21982:21983   */\n      dup3\n        /* \"#utility.yul\":21979:21992   */\n      gt\n        /* \"#utility.yul\":21976:21978   */\n      iszero\n      tag_792\n      jumpi\n        /* \"#utility.yul\":21995:22013   */\n      tag_792\n      tag_793\n      jump\t// in\n    tag_792:\n      pop\n        /* \"#utility.yul\":22031:22040   */\n      add\n      swap1\n        /* \"#utility.yul\":21966:22046   */\n      jump\t// out\n        /* \"#utility.yul\":22051:22268   */\n    tag_548:\n      0x00\n        /* \"#utility.yul\":22117:22118   */\n      dup3\n        /* \"#utility.yul\":22107:22109   */\n      tag_795\n      jumpi\n      shl(0xe0, 0x4e487b71)\n        /* \"#utility.yul\":22142:22173   */\n      dup2\n      mstore\n        /* \"#utility.yul\":22196:22200   */\n      0x12\n        /* \"#utility.yul\":22193:22194   */\n      0x04\n        /* \"#utility.yul\":22186:22201   */\n      mstore\n        /* \"#utility.yul\":22224:22228   */\n      0x24\n        /* \"#utility.yul\":22149:22150   */\n      dup2\n        /* \"#utility.yul\":22214:22229   */\n      revert\n        /* \"#utility.yul\":22107:22109   */\n    tag_795:\n      pop\n        /* \"#utility.yul\":22253:22262   */\n      div\n      swap1\n        /* \"#utility.yul\":22097:22268   */\n      jump\t// out\n        /* \"#utility.yul\":22273:22441   */\n    tag_206:\n      0x00\n        /* \"#utility.yul\":22379:22380   */\n      dup2\n        /* \"#utility.yul\":22375:22376   */\n      0x00\n        /* \"#utility.yul\":22371:22377   */\n      not\n        /* \"#utility.yul\":22367:22381   */\n      div\n        /* \"#utility.yul\":22364:22365   */\n      dup4\n        /* \"#utility.yul\":22361:22382   */\n      gt\n        /* \"#utility.yul\":22356:22357   */\n      dup3\n        /* \"#utility.yul\":22349:22358   */\n      iszero\n        /* \"#utility.yul\":22342:22359   */\n      iszero\n        /* \"#utility.yul\":22338:22383   */\n      and\n        /* \"#utility.yul\":22335:22337   */\n      iszero\n      tag_798\n      jumpi\n        /* \"#utility.yul\":22386:22404   */\n      tag_798\n      tag_793\n      jump\t// in\n    tag_798:\n      pop\n        /* \"#utility.yul\":22426:22435   */\n      mul\n      swap1\n        /* \"#utility.yul\":22325:22441   */\n      jump\t// out\n        /* \"#utility.yul\":22446:22571   */\n    tag_208:\n      0x00\n        /* \"#utility.yul\":22514:22515   */\n      dup3\n        /* \"#utility.yul\":22511:22512   */\n      dup3\n        /* \"#utility.yul\":22508:22516   */\n      lt\n        /* \"#utility.yul\":22505:22507   */\n      iszero\n      tag_801\n      jumpi\n        /* \"#utility.yul\":22519:22537   */\n      tag_801\n      tag_793\n      jump\t// in\n    tag_801:\n      pop\n        /* \"#utility.yul\":22556:22565   */\n      sub\n      swap1\n        /* \"#utility.yul\":22495:22571   */\n      jump\t// out\n        /* \"#utility.yul\":22576:22834   */\n    tag_746:\n        /* \"#utility.yul\":22648:22649   */\n      0x00\n        /* \"#utility.yul\":22658:22771   */\n    tag_803:\n        /* \"#utility.yul\":22672:22678   */\n      dup4\n        /* \"#utility.yul\":22669:22670   */\n      dup2\n        /* \"#utility.yul\":22666:22679   */\n      lt\n        /* \"#utility.yul\":22658:22771   */\n      iszero\n      tag_805\n      jumpi\n        /* \"#utility.yul\":22748:22759   */\n      dup2\n      dup2\n      add\n        /* \"#utility.yul\":22742:22760   */\n      mload\n        /* \"#utility.yul\":22729:22740   */\n      dup4\n      dup3\n      add\n        /* \"#utility.yul\":22722:22761   */\n      mstore\n        /* \"#utility.yul\":22694:22696   */\n      0x20\n        /* \"#utility.yul\":22687:22697   */\n      add\n        /* \"#utility.yul\":22658:22771   */\n      jump(tag_803)\n    tag_805:\n        /* \"#utility.yul\":22789:22795   */\n      dup4\n        /* \"#utility.yul\":22786:22787   */\n      dup2\n        /* \"#utility.yul\":22783:22796   */\n      gt\n        /* \"#utility.yul\":22780:22782   */\n      iszero\n      tag_552\n      jumpi\n      pop\n      pop\n        /* \"#utility.yul\":22824:22825   */\n      0x00\n        /* \"#utility.yul\":22806:22822   */\n      swap2\n      add\n        /* \"#utility.yul\":22799:22826   */\n      mstore\n        /* \"#utility.yul\":22629:22834   */\n      jump\t// out\n        /* \"#utility.yul\":22839:23219   */\n    tag_252:\n        /* \"#utility.yul\":22924:22925   */\n      0x02\n        /* \"#utility.yul\":22914:22926   */\n      dup2\n      div\n        /* \"#utility.yul\":22971:22972   */\n      0x01\n        /* \"#utility.yul\":22961:22973   */\n      dup3\n      and\n      dup1\n        /* \"#utility.yul\":22982:22984   */\n      tag_808\n      jumpi\n        /* \"#utility.yul\":23036:23040   */\n      0x7f\n        /* \"#utility.yul\":23028:23034   */\n      dup3\n        /* \"#utility.yul\":23024:23041   */\n      and\n        /* \"#utility.yul\":23014:23041   */\n      swap2\n      pop\n        /* \"#utility.yul\":22982:22984   */\n    tag_808:\n        /* \"#utility.yul\":23089:23091   */\n      0x20\n        /* \"#utility.yul\":23081:23087   */\n      dup3\n        /* \"#utility.yul\":23078:23092   */\n      lt\n        /* \"#utility.yul\":23058:23076   */\n      dup2\n        /* \"#utility.yul\":23055:23093   */\n      eq\n        /* \"#utility.yul\":23052:23054   */\n      iszero\n      tag_809\n      jumpi\n        /* \"#utility.yul\":23135:23145   */\n      0x4e487b71\n        /* \"#utility.yul\":23130:23133   */\n      0xe0\n        /* \"#utility.yul\":23126:23146   */\n      shl\n        /* \"#utility.yul\":23123:23124   */\n      0x00\n        /* \"#utility.yul\":23116:23147   */\n      mstore\n        /* \"#utility.yul\":23170:23174   */\n      0x22\n        /* \"#utility.yul\":23167:23168   */\n      0x04\n        /* \"#utility.yul\":23160:23175   */\n      mstore\n        /* \"#utility.yul\":23198:23202   */\n      0x24\n        /* \"#utility.yul\":23195:23196   */\n      0x00\n        /* \"#utility.yul\":23188:23203   */\n      revert\n        /* \"#utility.yul\":23052:23054   */\n    tag_809:\n      pop\n        /* \"#utility.yul\":22894:23219   */\n      swap2\n      swap1\n      pop\n      jump\t// out\n        /* \"#utility.yul\":23224:23359   */\n    tag_213:\n      0x00\n      not(0x00)\n        /* \"#utility.yul\":23284:23301   */\n      dup3\n      eq\n        /* \"#utility.yul\":23281:23283   */\n      iszero\n      tag_812\n      jumpi\n        /* \"#utility.yul\":23304:23322   */\n      tag_812\n      tag_793\n      jump\t// in\n    tag_812:\n      pop\n        /* \"#utility.yul\":23351:23352   */\n      0x01\n        /* \"#utility.yul\":23340:23353   */\n      add\n      swap1\n        /* \"#utility.yul\":23271:23359   */\n      jump\t// out\n        /* \"#utility.yul\":23364:23491   */\n    tag_793:\n        /* \"#utility.yul\":23425:23435   */\n      0x4e487b71\n        /* \"#utility.yul\":23420:23423   */\n      0xe0\n        /* \"#utility.yul\":23416:23436   */\n      shl\n        /* \"#utility.yul\":23413:23414   */\n      0x00\n        /* \"#utility.yul\":23406:23437   */\n      mstore\n        /* \"#utility.yul\":23456:23460   */\n      0x11\n        /* \"#utility.yul\":23453:23454   */\n      0x04\n        /* \"#utility.yul\":23446:23461   */\n      mstore\n        /* \"#utility.yul\":23480:23484   */\n      0x24\n        /* \"#utility.yul\":23477:23478   */\n      0x00\n        /* \"#utility.yul\":23470:23485   */\n      revert\n        /* \"#utility.yul\":23496:23623   */\n    tag_673:\n        /* \"#utility.yul\":23557:23567   */\n      0x4e487b71\n        /* \"#utility.yul\":23552:23555   */\n      0xe0\n        /* \"#utility.yul\":23548:23568   */\n      shl\n        /* \"#utility.yul\":23545:23546   */\n      0x00\n        /* \"#utility.yul\":23538:23569   */\n      mstore\n        /* \"#utility.yul\":23588:23592   */\n      0x41\n        /* \"#utility.yul\":23585:23586   */\n      0x04\n        /* \"#utility.yul\":23578:23593   */\n      mstore\n        /* \"#utility.yul\":23612:23616   */\n      0x24\n        /* \"#utility.yul\":23609:23610   */\n      0x00\n        /* \"#utility.yul\":23602:23617   */\n      revert\n        /* \"#utility.yul\":23628:23761   */\n    tag_643:\n      sub(shl(0xa0, 0x01), 0x01)\n        /* \"#utility.yul\":23705:23736   */\n      dup2\n      and\n        /* \"#utility.yul\":23695:23737   */\n      dup2\n      eq\n        /* \"#utility.yul\":23685:23687   */\n      tag_399\n      jumpi\n        /* \"#utility.yul\":23751:23752   */\n      0x00\n        /* \"#utility.yul\":23748:23749   */\n      dup1\n        /* \"#utility.yul\":23741:23753   */\n      revert\n        /* \"#utility.yul\":23766:23886   */\n    tag_668:\n        /* \"#utility.yul\":23854:23859   */\n      dup1\n        /* \"#utility.yul\":23847:23860   */\n      iszero\n        /* \"#utility.yul\":23840:23861   */\n      iszero\n        /* \"#utility.yul\":23833:23838   */\n      dup2\n        /* \"#utility.yul\":23830:23862   */\n      eq\n        /* \"#utility.yul\":23820:23822   */\n      tag_399\n      jumpi\n        /* \"#utility.yul\":23876:23877   */\n      0x00\n        /* \"#utility.yul\":23873:23874   */\n      dup1\n        /* \"#utility.yul\":23866:23878   */\n      revert\n\n    auxdata: 0xa26469706673582212207f5a81cd9bde1bc948c80fa42356278df4306b7c858df3f11bfb25d672b0aa1e64736f6c63430008000033\n}\n",
				"bytecode": {
					"linkReferences": {},
					"object": "608060405234801561001057600080fd5b506132d3806100206000396000f3fe608060405234801561001057600080fd5b50600436106101f05760003560e01c80637fd6f15c1161010f578063e4e95520116100a2578063f2fde38b11610071578063f2fde38b146103f2578063f7ab69fd14610405578063f8c8765e1461040d578063fc234d0614610420576101f0565b8063e4e95520146103b1578063ec4c4f34146103c4578063f0c765e4146103d7578063f14053ad146103ea576101f0565b8063aaf5eb68116100de578063aaf5eb6814610370578063aecf77b114610378578063c2ec527d1461038b578063db4a5aa91461039e576101f0565b80637fd6f15c1461033a5780638da5cb5b14610342578063a0ad12e21461034a578063a8ecb0281461035d576101f0565b80634b989ce311610187578063715018a611610156578063715018a6146103025780637be3a1a11461030c5780637ce3489b1461031f5780637dc0d1d014610332576101f0565b80634b989ce3146102a95780636ab34a4a146102bc5780636c19e783146102dc5780636e812437146102ef576101f0565b8063238ac933116101c3578063238ac933146102735780633011d3d51461027b57806343b1f3cb1461028357806348c7e52814610296576101f0565b8063080270a8146101f55780630f58d2421461021e5780631e1bff3f1461023e5780631e64610c1461025e575b600080fd5b610208610203366004612828565b610433565b6040516102159190612ca4565b60405180910390f35b61023161022c366004612b23565b6106f0565b6040516102159190613107565b61025161024c36600461276a565b610711565b6040516102159190612ce8565b610266610781565b6040516102159190612c53565b610266610790565b61026661079f565b610231610291366004612b23565b6107ae565b6102516102a436600461274e565b6107c0565b6102516102b736600461287e565b6107d5565b6102cf6102ca366004612b23565b6109af565b6040516102159190613063565b6102516102ea36600461274e565b610adc565b6102516102fd366004612959565b610b42565b61030a610b96565b005b61023161031a3660046127fd565b610be1565b61025161032d366004612b23565b610bfe565b610266610c48565b610231610c57565b610266610c5d565b610251610358366004612959565b610c6c565b61025161036b3660046129db565b610cba565b610231610fd8565b61023161038636600461274e565b610fde565b6102316103993660046127fd565b610ff9565b6102516103ac366004612a75565b61102a565b6102316103bf36600461274e565b611447565b6102316103d23660046127fd565b611462565b6102316103e53660046127fd565b61147e565b61023161149b565b61030a61040036600461274e565b6114a1565b610231611512565b61030a61041b3660046127a2565b611518565b61025161042e366004612b53565b6115fa565b6060600080828661049657606c80548060200260200160405190810160405280929190818152602001828054801561048a57602002820191906000526020600020905b815481526020019060010190808311610476575b50505050509050610576565b8660011415610507576001600160a01b0388166000908152606e60209081526040918290208054835181840281018401909452808452909183018282801561048a57602002820191906000526020600020908154815260200190600101908083116104765750505050509050610576565b8660021415610576576001600160a01b0388166000908152607060209081526040918290208054835181840281018401909452808452909183018282801561056e57602002820191906000526020600020905b81548152602001906001019080831161055a575b505050505090505b600061059761058f88610589818a61175f565b90611772565b835190611772565b90508681106105a8578692506105ac565b8092505b60008367ffffffffffffffff8111156105d557634e487b7160e01b600052604160045260246000fd5b6040519080825280602002602001820160405280156105fe578160200160208202803683370190505b50835190915061061289610589818b61175f565b106106385760405162461bcd60e51b815260040161062f90612fb0565b60405180910390fd5b6000886106458982613196565b61064f91906131b5565b90505b61065c888a613196565b8110156106e25783818151811061068357634e487b7160e01b600052603260045260246000fd5b60200260200101518287815181106106ab57634e487b7160e01b600052603260045260246000fd5b6020908102919091010152856106c081613233565b965050858514156106d0576106e2565b806106da81613233565b915050610652565b509998505050505050505050565b606c818154811061070057600080fd5b600091825260209091200154905081565b600061071b61177e565b6001600160a01b031661072c610c5d565b6001600160a01b0316146107525760405162461bcd60e51b815260040161062f90612f44565b506001600160a01b0382166000908152606560205260409020805482151560ff19909116179055600192915050565b6068546001600160a01b031681565b6066546001600160a01b031681565b6067546001600160a01b031681565b606d6020526000908152604090205481565b60656020526000908152604090205460ff1681565b3360009081526065602052604081205460ff166108045760405162461bcd60e51b815260040161062f90612dff565b60005b865181101561099f576000606a600089848151811061083657634e487b7160e01b600052603260045260246000fd5b6020026020010151815260200190815260200160002090506108ab88838151811061087157634e487b7160e01b600052603260045260246000fd5b602002602001015186848151811061089957634e487b7160e01b600052603260045260246000fd5b602002602001015183600a0154611782565b61098c57610983898260038b86815181106108d657634e487b7160e01b600052603260045260246000fd5b60200260200101518b87815181106108fe57634e487b7160e01b600052603260045260246000fd5b60200260200101518b888151811061092657634e487b7160e01b600052603260045260246000fd5b60200260200101518b898151811061094e57634e487b7160e01b600052603260045260246000fd5b60200260200101518b8a8151811061097657634e487b7160e01b600052603260045260246000fd5b60200260200101516118d9565b925050506109a5565b508061099781613233565b915050610807565b50600190505b9695505050505050565b6109b7612510565b6000828152606a602090815260409182902082516101608101845281546001600160a01b031681526001820154928101929092526002810180549293919291840191610a02906131f8565b80601f0160208091040260200160405190810160405280929190818152602001828054610a2e906131f8565b8015610a7b5780601f10610a5057610100808354040283529160200191610a7b565b820191906000526020600020905b815481529060010190602001808311610a5e57829003601f168201915b5050505050815260200160038201548152602001600482015481526020016005820154815260200160068201548152602001600782015481526020016008820154815260200160098201548152602001600a8201548152505090505b919050565b6000610ae661177e565b6001600160a01b0316610af7610c5d565b6001600160a01b031614610b1d5760405162461bcd60e51b815260040161062f90612f44565b50606680546001600160a01b0383166001600160a01b03199091161790556001919050565b6000858152606a6020526040812080546001600160a01b03163314610b795760405162461bcd60e51b815260040161062f90612fd4565b610b8a888260028a8a8a8a8a6118d9565b98975050505050505050565b610b9e61177e565b6001600160a01b0316610baf610c5d565b6001600160a01b031614610bd55760405162461bcd60e51b815260040161062f90612f44565b610bdf600061203b565b565b606f60209081526000928352604080842090915290825290205481565b6000610c0861177e565b6001600160a01b0316610c19610c5d565b6001600160a01b031614610c3f5760405162461bcd60e51b815260040161062f90612f44565b50607255600190565b6069546001600160a01b031681565b60725481565b6033546001600160a01b031690565b3360009081526065602052604081205460ff16610c9b5760405162461bcd60e51b815260040161062f90612dff565b6000868152606a60205260409020610b8a888260048a8a8a8a8a6118d9565b6000868152606a6020526040812080546001600160a01b0316610cef5760405162461bcd60e51b815260040161062f90612d3f565b6002816003015410610d135760405162461bcd60e51b815260040161062f90612ff6565b6069546040516311cdc9d960e11b81526001600160a01b039091169063239b93b290610d4b908c9089908c908c908b90600401612cf3565b60206040518083038186803b158015610d6357600080fd5b505afa158015610d77573d6000803e3d6000fd5b505050506040513d601f19601f82011682018060405250810190610d9b9190612862565b610db75760405162461bcd60e51b815260040161062f90612ddb565b610dc2888685611782565b610dde5760405162461bcd60e51b815260040161062f90612f1a565b6000610e1b670de0b6b3a7640000610e15607354610e15607254610e0f8c896009015461175f90919063ffffffff16565b9061175f565b9061208d565b90506000610e6c610e49670de0b6b3a7640000610e158660090154876005015461175f90919063ffffffff16565b610589670de0b6b3a7640000610e1587600901548c61175f90919063ffffffff16565b90506000610e878285600a015461209990919063ffffffff16565b9050600081610e968886611772565b1115610f2c57610eaa826105898987611772565b606754909150610ec5906001600160a01b03163330846120a5565b606754604051630852cd8d60e31b81526001600160a01b03909116906342966c6890610ef5908490600401613107565b600060405180830381600087803b158015610f0f57600080fd5b505af1158015610f23573d6000803e3d6000fd5b50505050610fc5565b610f3a84610589848a611772565b60675486546040516340c10f1960e01b81529293506001600160a01b03918216926340c10f1992610f719216908590600401612c8b565b602060405180830381600087803b158015610f8b57600080fd5b505af1158015610f9f573d6000803e3d6000fd5b505050506040513d601f19601f82011682018060405250810190610fc39190612862565b505b5060019c9b505050505050505050505050565b60735481565b6001600160a01b031660009081526070602052604090205490565b606e602052816000526040600020818154811061101557600080fd5b90600052602060002001600091509150505481565b606b546000908152606a60205260408120896110585760405162461bcd60e51b815260040161062f90612d6d565b60038101541561107a5760405162461bcd60e51b815260040161062f90612ff6565b6069546040516311cdc9d960e11b81526001600160a01b039091169063239b93b2906110b2908e9089908e908c908a90600401612cf3565b60206040518083038186803b1580156110ca57600080fd5b505afa1580156110de573d6000803e3d6000fd5b505050506040513d601f19601f820116820180604052508101906111029190612862565b61111e5760405162461bcd60e51b815260040161062f90612ddb565b6074548a1161113f5760405162461bcd60e51b815260040161062f90612ed7565b606754611157906001600160a01b031633308d6120a5565b6067546040516370a0823160e01b81526000916001600160a01b0316906370a0823190611188903090600401612c53565b60206040518083038186803b1580156111a057600080fd5b505afa1580156111b4573d6000803e3d6000fd5b505050506040513d601f19601f820116820180604052508101906111d89190612b3b565b905060006111f7607354610e156072548561175f90919063ffffffff16565b606854606754919250611217916001600160a01b03908116911683612103565b606860009054906101000a90046001600160a01b03166001600160a01b031663d10c06a26040518163ffffffff1660e01b8152600401602060405180830381600087803b15801561126757600080fd5b505af115801561127b573d6000803e3d6000fd5b505050506040513d601f19601f8201168201806040525081019061129f9190612862565b506067546001600160a01b03166342966c686112bb8484611772565b6040518263ffffffff1660e01b81526004016112d79190613107565b600060405180830381600087803b1580156112f157600080fd5b505af1158015611305573d6000803e3d6000fd5b5050606b54606c80546001818101835560008390527f2b4a51ab505fc96a0952efda2ba61bcd3078d4c02c39a186ec16f21883fbe016909101929092555461134f93509150611772565b606b80546000908152606d602090815260408083209490945533808352606e8083528584208554815460018181018455838852868820909101919091559554928552606f84529584209252935490926113a89190611772565b815260200190815260200160002081905550606b60008154809291906113cd90613233565b909155505082546001600160a01b031916331783556001830189905587516113fe90600285019060208b0190612573565b5060016003840155600483018a905560058301879055600683018b90556009830186905561142c8282611772565b600a909301929092555060019b9a5050505050505050505050565b6001600160a01b03166000908152606e602052604090205490565b6070602052816000526040600020818154811061101557600080fd5b607160209081526000928352604080842090915290825290205481565b60745481565b6114a961177e565b6001600160a01b03166114ba610c5d565b6001600160a01b0316146114e05760405162461bcd60e51b815260040161062f90612f44565b6001600160a01b0381166115065760405162461bcd60e51b815260040161062f90612d95565b61150f8161203b565b50565b606b5481565b600054610100900460ff1680611531575060005460ff16155b61154d5760405162461bcd60e51b815260040161062f90612e89565b600054610100900460ff16158015611578576000805460ff1961ff0019909116610100171660011790555b611580612127565b606680546001600160a01b038088166001600160a01b03199283161790925560688054878416908316179055606780548684169083161790556127106073556069805492851692909116919091179055670de0b6b3a7640000607455603260725580156115f3576000805461ff00191690555b5050505050565b600061160461177e565b6001600160a01b0316611615610c5d565b6001600160a01b03161461163b5760405162461bcd60e51b815260040161062f90612f44565b6040518061016001604052808d6001600160a01b031681526020018c81526020018b81526020018a815260200189815260200188815260200187815260200186815260200185815260200184815260200183815250606a60008f815260200190815260200160002060008201518160000160006101000a8154816001600160a01b0302191690836001600160a01b031602179055506020820151816001015560408201518160020190805190602001906116f6929190612573565b50606082015160038201556080820151600482015560a0820151600582015560c0820151600682015560e082015160078201556101008201516008820155610120820151600982015561014090910151600a909101555060019c9b505050505050505050505050565b600061176b8284613196565b9392505050565b600061176b82846131b5565b3390565b6000838152606a602052604081206004810154829081908190600114156118395783600501548710156118345760058401546117be9088611772565b92506117e3670de0b6b3a7640000610e1586600901548661175f90919063ffffffff16565b9150611814670de0b6b3a7640000610e15607354610e15607254610e0f8d8b6009015461175f90919063ffffffff16565b9050611820818361315e565b86101561183457600094505050505061176b565b6118cb565b83600501548711156118cb576005840154611855908890611772565b925061187a670de0b6b3a7640000610e1586600901548661175f90919063ffffffff16565b91506118ab670de0b6b3a7640000610e15607354610e15607254610e0f8d8b6009015461175f90919063ffffffff16565b90506118b7818361315e565b8610156118cb57600094505050505061176b565b506001979650505050505050565b86546000906001600160a01b03166119035760405162461bcd60e51b815260040161062f90612d3f565b60028860030154106119275760405162461bcd60e51b815260040161062f90612ff6565b6069546040516311cdc9d960e11b81526001600160a01b039091169063239b93b29061195f908c9087908a908a908990600401612cf3565b60206040518083038186803b15801561197757600080fd5b505afa15801561198b573d6000803e3d6000fd5b505050506040513d601f19601f820116820180604052508101906119af9190612862565b6119cb5760405162461bcd60e51b815260040161062f90612ddb565b82886007018190555060008060008a6004015460011415611d16578a600501548b600701541115611b825760058b015460078c0154611a0991611772565b9250611a2e670de0b6b3a7640000610e158d600901548661175f90919063ffffffff16565b600a8c0154909250611a409083612099565b90506000611a5f607354610e156072548561175f90919063ffffffff16565b6067546068546040516340c10f1960e01b81529293506001600160a01b03918216926340c10f1992611a979216908590600401612c8b565b602060405180830381600087803b158015611ab157600080fd5b505af1158015611ac5573d6000803e3d6000fd5b505050506040513d601f19601f82011682018060405250810190611ae99190612862565b506067548c546001600160a01b03918216916340c10f199116611b0c8585611772565b6040518363ffffffff1660e01b8152600401611b29929190612c8b565b602060405180830381600087803b158015611b4357600080fd5b505af1158015611b57573d6000803e3d6000fd5b505050506040513d601f19601f82011682018060405250810190611b7b9190612862565b5050611d11565b60078b015460058c0154611b9591611772565b9250611bae8b600901548461175f90919063ffffffff16565b91508a600a0154821115611bc457506000611d11565b600a8b0154611bd39083611772565b90506000611bf2607354610e156072548561175f90919063ffffffff16565b6067546068546040516340c10f1960e01b81529293506001600160a01b03918216926340c10f1992611c2a9216908590600401612c8b565b602060405180830381600087803b158015611c4457600080fd5b505af1158015611c58573d6000803e3d6000fd5b505050506040513d601f19601f82011682018060405250810190611c7c9190612862565b506067548c546001600160a01b03918216916340c10f199116611c9f8585611772565b6040518363ffffffff1660e01b8152600401611cbc929190612c8b565b602060405180830381600087803b158015611cd657600080fd5b505af1158015611cea573d6000803e3d6000fd5b505050506040513d601f19601f82011682018060405250810190611d0e9190612862565b50505b611f0b565b8a600501548b600701541015611d705760078b015460058c0154611d3991611772565b9250611d5e670de0b6b3a7640000610e158d600901548661175f90919063ffffffff16565b600a8c0154909250611bd39083612099565b60058b015460078c0154611d8391611772565b9250611da8670de0b6b3a7640000610e158d600901548661175f90919063ffffffff16565b91508a600a0154821115611dbe57506000611f0b565b600a8b0154611dcd9083611772565b90506000611dec607354610e156072548561175f90919063ffffffff16565b6067546068546040516340c10f1960e01b81529293506001600160a01b03918216926340c10f1992611e249216908590600401612c8b565b602060405180830381600087803b158015611e3e57600080fd5b505af1158015611e52573d6000803e3d6000fd5b505050506040513d601f19601f82011682018060405250810190611e769190612862565b506067548c546001600160a01b03918216916340c10f199116611e998585611772565b6040518363ffffffff1660e01b8152600401611eb6929190612c8b565b602060405180830381600087803b158015611ed057600080fd5b505af1158015611ee4573d6000803e3d6000fd5b505050506040513d601f19601f82011682018060405250810190611f089190612862565b50505b606860009054906101000a90046001600160a01b03166001600160a01b031663d10c06a26040518163ffffffff1660e01b8152600401602060405180830381600087803b158015611f5b57600080fd5b505af1158015611f6f573d6000803e3d6000fd5b505050506040513d601f19601f82011682018060405250810190611f939190612862565b5060038b018a905560078b0186905560088b01889055611fb689606d606c6121ab565b336000908152606f60209081526040808320606e909252909120611fdb918b916121ab565b336000818152607060209081526040822080546001818101835591845291909220018b905561200d9161058990610fde565b3360009081526071602090815260408083208d84529091529020555060019250505098975050505050505050565b603380546001600160a01b038381166001600160a01b0319831681179093556040519116919082907f8be0079c531659141344cd1fd0a4f28419497f9722a3daafe3b4186f6b6457e090600090a35050565b600061176b8284613176565b600061176b828461315e565b6120fd846323b872dd60e01b8585856040516024016120c693929190612c67565b60408051601f198184030181529190526020810180516001600160e01b03166001600160e01b031990931692909217909152612288565b50505050565b6121228363a9059cbb60e01b84846040516024016120c6929190612c8b565b505050565b600054610100900460ff1680612140575060005460ff16155b61215c5760405162461bcd60e51b815260040161062f90612e89565b600054610100900460ff16158015612187576000805460ff1961ff0019909116610100171660011790555b61218f612317565b61219761238a565b801561150f576000805461ff001916905550565b600083815260208390526040812054825490919083906121cc906001611772565b815481106121ea57634e487b7160e01b600052603260045260246000fd5b9060005260206000200154905081846000838152602001908152602001600020819055508083838154811061222f57634e487b7160e01b600052603260045260246000fd5b6000918252602080832090910192909255868152908590526040812055825483908061226b57634e487b7160e01b600052603160045260246000fd5b600190038181906000526020600020016000905590555050505050565b60006122dd826040518060400160405280602081526020017f5361666545524332303a206c6f772d6c6576656c2063616c6c206661696c6564815250856001600160a01b03166123fa9092919063ffffffff16565b80519091501561212257808060200190518101906122fb9190612862565b6121225760405162461bcd60e51b815260040161062f90613019565b600054610100900460ff1680612330575060005460ff16155b61234c5760405162461bcd60e51b815260040161062f90612e89565b600054610100900460ff16158015612197576000805460ff1961ff001990911661010017166001179055801561150f576000805461ff001916905550565b600054610100900460ff16806123a3575060005460ff16155b6123bf5760405162461bcd60e51b815260040161062f90612e89565b600054610100900460ff161580156123ea576000805460ff1961ff0019909116610100171660011790555b6121976123f561177e565b61203b565b60606124098484600085612411565b949350505050565b6060824710156124335760405162461bcd60e51b815260040161062f90612e43565b61243c856124d1565b6124585760405162461bcd60e51b815260040161062f90612f79565b600080866001600160a01b031685876040516124749190612c37565b60006040518083038185875af1925050503d80600081146124b1576040519150601f19603f3d011682016040523d82523d6000602084013e6124b6565b606091505b50915091506124c68282866124d7565b979650505050505050565b3b151590565b606083156124e657508161176b565b8251156124f65782518084602001fd5b8160405162461bcd60e51b815260040161062f9190612d2c565b60405180610160016040528060006001600160a01b03168152602001600081526020016060815260200160008152602001600081526020016000815260200160008152602001600081526020016000815260200160008152602001600081525090565b82805461257f906131f8565b90600052602060002090601f0160209004810192826125a157600085556125e7565b82601f106125ba57805160ff19168380011785556125e7565b828001600101855582156125e7579182015b828111156125e75782518255916020019190600101906125cc565b506125f39291506125f7565b5090565b5b808211156125f357600081556001016125f8565b8035610ad78161327a565b600082601f830112612627578081fd5b8135602061263c6126378361313a565b613110565b82815281810190858301855b858110156126715761265f898684358b01016126e3565b84529284019290840190600101612648565b5090979650505050505050565b600082601f83011261268e578081fd5b8135602061269e6126378361313a565b82815281810190858301838502870184018810156126ba578586fd5b855b85811015612671578135845292840192908401906001016126bc565b8035610ad78161328f565b600082601f8301126126f3578081fd5b813567ffffffffffffffff81111561270d5761270d613264565b612720601f8201601f1916602001613110565b818152846020838601011115612734578283fd5b816020850160208301379081016020019190915292915050565b60006020828403121561275f578081fd5b813561176b8161327a565b6000806040838503121561277c578081fd5b82356127878161327a565b915060208301356127978161328f565b809150509250929050565b600080600080608085870312156127b7578182fd5b84356127c28161327a565b935060208501356127d28161327a565b925060408501356127e28161327a565b915060608501356127f28161327a565b939692955090935050565b6000806040838503121561280f578182fd5b823561281a8161327a565b946020939093013593505050565b6000806000806080858703121561283d578384fd5b84356128488161327a565b966020860135965060408601359560600135945092505050565b600060208284031215612873578081fd5b815161176b8161328f565b60008060008060008060c08789031215612896578384fd5b61289f876126d8565b9550602087013567ffffffffffffffff808211156128bb578586fd5b6128c78a838b0161267e565b965060408901359150808211156128dc578586fd5b6128e88a838b0161267e565b955060608901359150808211156128fd578384fd5b6129098a838b01612617565b9450608089013591508082111561291e578384fd5b61292a8a838b0161267e565b935060a089013591508082111561293f578283fd5b5061294c89828a01612617565b9150509295509295509295565b60008060008060008060c08789031215612971578384fd5b863561297c8161328f565b95506020870135945060408701359350606087013567ffffffffffffffff808211156129a6578384fd5b6129b28a838b016126e3565b94506080890135935060a08901359150808211156129ce578283fd5b5061294c89828a016126e3565b600080600080600080600060e0888a0312156129f5578485fd5b8735612a008161328f565b96506020880135955060408801359450606088013567ffffffffffffffff80821115612a2a578283fd5b612a368b838c016126e3565b955060808a0135945060a08a0135915080821115612a52578283fd5b50612a5f8a828b016126e3565b92505060c0880135905092959891949750929550565b60008060008060008060008060006101208a8c031215612a93578283fd5b8935612a9e8161328f565b985060208a0135975060408a0135965060608a0135955060808a0135945060a08a013567ffffffffffffffff80821115612ad6578485fd5b612ae28d838e016126e3565b955060c08c0135945060e08c013593506101008c0135915080821115612b06578283fd5b50612b138c828d016126e3565b9150509295985092959850929598565b600060208284031215612b34578081fd5b5035919050565b600060208284031215612b4c578081fd5b5051919050565b6000806000806000806000806000806000806101808d8f031215612b75578586fd5b8c359b50612b8560208e0161260c565b9a5060408d0135995067ffffffffffffffff60608e01351115612ba6578586fd5b612bb68e60608f01358f016126e3565b9b9e9a9d50989b60808101359a60a08201359a5060c0820135995060e08201359850610100820135975061012082013596506101408201359550610160909101359350915050565b6001600160a01b03169052565b60008151808452612c238160208601602086016131cc565b601f01601f19169290920160200192915050565b60008251612c498184602087016131cc565b9190910192915050565b6001600160a01b0391909116815260200190565b6001600160a01b039384168152919092166020820152604081019190915260600190565b6001600160a01b03929092168252602082015260400190565b6020808252825182820181905260009190848201906040850190845b81811015612cdc57835183529284019291840191600101612cc0565b50909695505050505050565b901515815260200190565b6000861515825285602083015284604083015260a06060830152612d1a60a0830185612c0b565b8281036080840152610b8a8185612c0b565b60006020825261176b6020830184612c0b565b6020808252601490820152731bdc99195c88191bd95cc81b9bdd08195e1a5cdd60621b604082015260600190565b6020808252600e908201526d1b585c99da5b881b9bc819dbdbd960921b604082015260600190565b60208082526026908201527f4f776e61626c653a206e6577206f776e657220697320746865207a65726f206160408201526564647265737360d01b606082015260800190565b6020808252600a908201526937b930b1b6329032b93960b11b604082015260600190565b60208082526024908201527f6578656375746f723a2063616c6c6572206973206e6f742074686520657865636040820152633aba37b960e11b606082015260800190565b60208082526026908201527f416464726573733a20696e73756666696369656e742062616c616e636520666f6040820152651c8818d85b1b60d21b606082015260800190565b6020808252602e908201527f496e697469616c697a61626c653a20636f6e747261637420697320616c72656160408201526d191e481a5b9a5d1a585b1a5e995960921b606082015260800190565b60208082526023908201527f546865207472616e73616374696f6e20616d6f756e7420697320746f6f20736d604082015262185b1b60ea1b606082015260800190565b60208082526010908201526f155cd95c881a5cc818985b9adc9d5c1d60821b604082015260600190565b6020808252818101527f4f776e61626c653a2063616c6c6572206973206e6f7420746865206f776e6572604082015260600190565b6020808252601d908201527f416464726573733a2063616c6c20746f206e6f6e2d636f6e7472616374000000604082015260600190565b6020808252600a90820152693632b733ba341032b93960b11b604082015260600190565b6020808252600890820152673ab9b2b91032b93960c11b604082015260600190565b60208082526009908201526839ba30ba329032b93960b91b604082015260600190565b6020808252602a908201527f5361666545524332303a204552433230206f7065726174696f6e20646964206e6040820152691bdd081cdd58d8d9595960b21b606082015260800190565b600060208252613077602083018451612bfe565b60208301516040830152604083015161016080606085015261309d610180850183612c0b565b915060608501516080850152608085015160a085015260a085015160c085015260c085015160e085015260e0850151610100818187015280870151915050610120818187015280870151915050610140818187015280870151838701525050508091505092915050565b90815260200190565b60405181810167ffffffffffffffff8111828210171561313257613132613264565b604052919050565b600067ffffffffffffffff82111561315457613154613264565b5060209081020190565b600082198211156131715761317161324e565b500190565b60008261319157634e487b7160e01b81526012600452602481fd5b500490565b60008160001904831182151516156131b0576131b061324e565b500290565b6000828210156131c7576131c761324e565b500390565b60005b838110156131e75781810151838201526020016131cf565b838111156120fd5750506000910152565b60028104600182168061320c57607f821691505b6020821081141561322d57634e487b7160e01b600052602260045260246000fd5b50919050565b60006000198214156132475761324761324e565b5060010190565b634e487b7160e01b600052601160045260246000fd5b634e487b7160e01b600052604160045260246000fd5b6001600160a01b038116811461150f57600080fd5b801515811461150f57600080fdfea26469706673582212207f5a81cd9bde1bc948c80fa42356278df4306b7c858df3f11bfb25d672b0aa1e64736f6c63430008000033",
					"opcodes": "PUSH1 0x80 PUSH1 0x40 MSTORE CALLVALUE DUP1 ISZERO PUSH2 0x10 JUMPI PUSH1 0x0 DUP1 REVERT JUMPDEST POP PUSH2 0x32D3 DUP1 PUSH2 0x20 PUSH1 0x0 CODECOPY PUSH1 0x0 RETURN INVALID PUSH1 0x80 PUSH1 0x40 MSTORE CALLVALUE DUP1 ISZERO PUSH2 0x10 JUMPI PUSH1 0x0 DUP1 REVERT JUMPDEST POP PUSH1 0x4 CALLDATASIZE LT PUSH2 0x1F0 JUMPI PUSH1 0x0 CALLDATALOAD PUSH1 0xE0 SHR DUP1 PUSH4 0x7FD6F15C GT PUSH2 0x10F JUMPI DUP1 PUSH4 0xE4E95520 GT PUSH2 0xA2 JUMPI DUP1 PUSH4 0xF2FDE38B GT PUSH2 0x71 JUMPI DUP1 PUSH4 0xF2FDE38B EQ PUSH2 0x3F2 JUMPI DUP1 PUSH4 0xF7AB69FD EQ PUSH2 0x405 JUMPI DUP1 PUSH4 0xF8C8765E EQ PUSH2 0x40D JUMPI DUP1 PUSH4 0xFC234D06 EQ PUSH2 0x420 JUMPI PUSH2 0x1F0 JUMP JUMPDEST DUP1 PUSH4 0xE4E95520 EQ PUSH2 0x3B1 JUMPI DUP1 PUSH4 0xEC4C4F34 EQ PUSH2 0x3C4 JUMPI DUP1 PUSH4 0xF0C765E4 EQ PUSH2 0x3D7 JUMPI DUP1 PUSH4 0xF14053AD EQ PUSH2 0x3EA JUMPI PUSH2 0x1F0 JUMP JUMPDEST DUP1 PUSH4 0xAAF5EB68 GT PUSH2 0xDE JUMPI DUP1 PUSH4 0xAAF5EB68 EQ PUSH2 0x370 JUMPI DUP1 PUSH4 0xAECF77B1 EQ PUSH2 0x378 JUMPI DUP1 PUSH4 0xC2EC527D EQ PUSH2 0x38B JUMPI DUP1 PUSH4 0xDB4A5AA9 EQ PUSH2 0x39E JUMPI PUSH2 0x1F0 JUMP JUMPDEST DUP1 PUSH4 0x7FD6F15C EQ PUSH2 0x33A JUMPI DUP1 PUSH4 0x8DA5CB5B EQ PUSH2 0x342 JUMPI DUP1 PUSH4 0xA0AD12E2 EQ PUSH2 0x34A JUMPI DUP1 PUSH4 0xA8ECB028 EQ PUSH2 0x35D JUMPI PUSH2 0x1F0 JUMP JUMPDEST DUP1 PUSH4 0x4B989CE3 GT PUSH2 0x187 JUMPI DUP1 PUSH4 0x715018A6 GT PUSH2 0x156 JUMPI DUP1 PUSH4 0x715018A6 EQ PUSH2 0x302 JUMPI DUP1 PUSH4 0x7BE3A1A1 EQ PUSH2 0x30C JUMPI DUP1 PUSH4 0x7CE3489B EQ PUSH2 0x31F JUMPI DUP1 PUSH4 0x7DC0D1D0 EQ PUSH2 0x332 JUMPI PUSH2 0x1F0 JUMP JUMPDEST DUP1 PUSH4 0x4B989CE3 EQ PUSH2 0x2A9 JUMPI DUP1 PUSH4 0x6AB34A4A EQ PUSH2 0x2BC JUMPI DUP1 PUSH4 0x6C19E783 EQ PUSH2 0x2DC JUMPI DUP1 PUSH4 0x6E812437 EQ PUSH2 0x2EF JUMPI PUSH2 0x1F0 JUMP JUMPDEST DUP1 PUSH4 0x238AC933 GT PUSH2 0x1C3 JUMPI DUP1 PUSH4 0x238AC933 EQ PUSH2 0x273 JUMPI DUP1 PUSH4 0x3011D3D5 EQ PUSH2 0x27B JUMPI DUP1 PUSH4 0x43B1F3CB EQ PUSH2 0x283 JUMPI DUP1 PUSH4 0x48C7E528 EQ PUSH2 0x296 JUMPI PUSH2 0x1F0 JUMP JUMPDEST DUP1 PUSH4 0x80270A8 EQ PUSH2 0x1F5 JUMPI DUP1 PUSH4 0xF58D242 EQ PUSH2 0x21E JUMPI DUP1 PUSH4 0x1E1BFF3F EQ PUSH2 0x23E JUMPI DUP1 PUSH4 0x1E64610C EQ PUSH2 0x25E JUMPI JUMPDEST PUSH1 0x0 DUP1 REVERT JUMPDEST PUSH2 0x208 PUSH2 0x203 CALLDATASIZE PUSH1 0x4 PUSH2 0x2828 JUMP JUMPDEST PUSH2 0x433 JUMP JUMPDEST PUSH1 0x40 MLOAD PUSH2 0x215 SWAP2 SWAP1 PUSH2 0x2CA4 JUMP JUMPDEST PUSH1 0x40 MLOAD DUP1 SWAP2 SUB SWAP1 RETURN JUMPDEST PUSH2 0x231 PUSH2 0x22C CALLDATASIZE PUSH1 0x4 PUSH2 0x2B23 JUMP JUMPDEST PUSH2 0x6F0 JUMP JUMPDEST PUSH1 0x40 MLOAD PUSH2 0x215 SWAP2 SWAP1 PUSH2 0x3107 JUMP JUMPDEST PUSH2 0x251 PUSH2 0x24C CALLDATASIZE PUSH1 0x4 PUSH2 0x276A JUMP JUMPDEST PUSH2 0x711 JUMP JUMPDEST PUSH1 0x40 MLOAD PUSH2 0x215 SWAP2 SWAP1 PUSH2 0x2CE8 JUMP JUMPDEST PUSH2 0x266 PUSH2 0x781 JUMP JUMPDEST PUSH1 0x40 MLOAD PUSH2 0x215 SWAP2 SWAP1 PUSH2 0x2C53 JUMP JUMPDEST PUSH2 0x266 PUSH2 0x790 JUMP JUMPDEST PUSH2 0x266 PUSH2 0x79F JUMP JUMPDEST PUSH2 0x231 PUSH2 0x291 CALLDATASIZE PUSH1 0x4 PUSH2 0x2B23 JUMP JUMPDEST PUSH2 0x7AE JUMP JUMPDEST PUSH2 0x251 PUSH2 0x2A4 CALLDATASIZE PUSH1 0x4 PUSH2 0x274E JUMP JUMPDEST PUSH2 0x7C0 JUMP JUMPDEST PUSH2 0x251 PUSH2 0x2B7 CALLDATASIZE PUSH1 0x4 PUSH2 0x287E JUMP JUMPDEST PUSH2 0x7D5 JUMP JUMPDEST PUSH2 0x2CF PUSH2 0x2CA CALLDATASIZE PUSH1 0x4 PUSH2 0x2B23 JUMP JUMPDEST PUSH2 0x9AF JUMP JUMPDEST PUSH1 0x40 MLOAD PUSH2 0x215 SWAP2 SWAP1 PUSH2 0x3063 JUMP JUMPDEST PUSH2 0x251 PUSH2 0x2EA CALLDATASIZE PUSH1 0x4 PUSH2 0x274E JUMP JUMPDEST PUSH2 0xADC JUMP JUMPDEST PUSH2 0x251 PUSH2 0x2FD CALLDATASIZE PUSH1 0x4 PUSH2 0x2959 JUMP JUMPDEST PUSH2 0xB42 JUMP JUMPDEST PUSH2 0x30A PUSH2 0xB96 JUMP JUMPDEST STOP JUMPDEST PUSH2 0x231 PUSH2 0x31A CALLDATASIZE PUSH1 0x4 PUSH2 0x27FD JUMP JUMPDEST PUSH2 0xBE1 JUMP JUMPDEST PUSH2 0x251 PUSH2 0x32D CALLDATASIZE PUSH1 0x4 PUSH2 0x2B23 JUMP JUMPDEST PUSH2 0xBFE JUMP JUMPDEST PUSH2 0x266 PUSH2 0xC48 JUMP JUMPDEST PUSH2 0x231 PUSH2 0xC57 JUMP JUMPDEST PUSH2 0x266 PUSH2 0xC5D JUMP JUMPDEST PUSH2 0x251 PUSH2 0x358 CALLDATASIZE PUSH1 0x4 PUSH2 0x2959 JUMP JUMPDEST PUSH2 0xC6C JUMP JUMPDEST PUSH2 0x251 PUSH2 0x36B CALLDATASIZE PUSH1 0x4 PUSH2 0x29DB JUMP JUMPDEST PUSH2 0xCBA JUMP JUMPDEST PUSH2 0x231 PUSH2 0xFD8 JUMP JUMPDEST PUSH2 0x231 PUSH2 0x386 CALLDATASIZE PUSH1 0x4 PUSH2 0x274E JUMP JUMPDEST PUSH2 0xFDE JUMP JUMPDEST PUSH2 0x231 PUSH2 0x399 CALLDATASIZE PUSH1 0x4 PUSH2 0x27FD JUMP JUMPDEST PUSH2 0xFF9 JUMP JUMPDEST PUSH2 0x251 PUSH2 0x3AC CALLDATASIZE PUSH1 0x4 PUSH2 0x2A75 JUMP JUMPDEST PUSH2 0x102A JUMP JUMPDEST PUSH2 0x231 PUSH2 0x3BF CALLDATASIZE PUSH1 0x4 PUSH2 0x274E JUMP JUMPDEST PUSH2 0x1447 JUMP JUMPDEST PUSH2 0x231 PUSH2 0x3D2 CALLDATASIZE PUSH1 0x4 PUSH2 0x27FD JUMP JUMPDEST PUSH2 0x1462 JUMP JUMPDEST PUSH2 0x231 PUSH2 0x3E5 CALLDATASIZE PUSH1 0x4 PUSH2 0x27FD JUMP JUMPDEST PUSH2 0x147E JUMP JUMPDEST PUSH2 0x231 PUSH2 0x149B JUMP JUMPDEST PUSH2 0x30A PUSH2 0x400 CALLDATASIZE PUSH1 0x4 PUSH2 0x274E JUMP JUMPDEST PUSH2 0x14A1 JUMP JUMPDEST PUSH2 0x231 PUSH2 0x1512 JUMP JUMPDEST PUSH2 0x30A PUSH2 0x41B CALLDATASIZE PUSH1 0x4 PUSH2 0x27A2 JUMP JUMPDEST PUSH2 0x1518 JUMP JUMPDEST PUSH2 0x251 PUSH2 0x42E CALLDATASIZE PUSH1 0x4 PUSH2 0x2B53 JUMP JUMPDEST PUSH2 0x15FA JUMP JUMPDEST PUSH1 0x60 PUSH1 0x0 DUP1 DUP3 DUP7 PUSH2 0x496 JUMPI PUSH1 0x6C DUP1 SLOAD DUP1 PUSH1 0x20 MUL PUSH1 0x20 ADD PUSH1 0x40 MLOAD SWAP1 DUP2 ADD PUSH1 0x40 MSTORE DUP1 SWAP3 SWAP2 SWAP1 DUP2 DUP2 MSTORE PUSH1 0x20 ADD DUP3 DUP1 SLOAD DUP1 ISZERO PUSH2 0x48A JUMPI PUSH1 0x20 MUL DUP3 ADD SWAP2 SWAP1 PUSH1 0x0 MSTORE PUSH1 0x20 PUSH1 0x0 KECCAK256 SWAP1 JUMPDEST DUP2 SLOAD DUP2 MSTORE PUSH1 0x20 ADD SWAP1 PUSH1 0x1 ADD SWAP1 DUP1 DUP4 GT PUSH2 0x476 JUMPI JUMPDEST POP POP POP POP POP SWAP1 POP PUSH2 0x576 JUMP JUMPDEST DUP7 PUSH1 0x1 EQ ISZERO PUSH2 0x507 JUMPI PUSH1 0x1 PUSH1 0x1 PUSH1 0xA0 SHL SUB DUP9 AND PUSH1 0x0 SWAP1 DUP2 MSTORE PUSH1 0x6E PUSH1 0x20 SWAP1 DUP2 MSTORE PUSH1 0x40 SWAP2 DUP3 SWAP1 KECCAK256 DUP1 SLOAD DUP4 MLOAD DUP2 DUP5 MUL DUP2 ADD DUP5 ADD SWAP1 SWAP5 MSTORE DUP1 DUP5 MSTORE SWAP1 SWAP2 DUP4 ADD DUP3 DUP3 DUP1 ISZERO PUSH2 0x48A JUMPI PUSH1 0x20 MUL DUP3 ADD SWAP2 SWAP1 PUSH1 0x0 MSTORE PUSH1 0x20 PUSH1 0x0 KECCAK256 SWAP1 DUP2 SLOAD DUP2 MSTORE PUSH1 0x20 ADD SWAP1 PUSH1 0x1 ADD SWAP1 DUP1 DUP4 GT PUSH2 0x476 JUMPI POP POP POP POP POP SWAP1 POP PUSH2 0x576 JUMP JUMPDEST DUP7 PUSH1 0x2 EQ ISZERO PUSH2 0x576 JUMPI PUSH1 0x1 PUSH1 0x1 PUSH1 0xA0 SHL SUB DUP9 AND PUSH1 0x0 SWAP1 DUP2 MSTORE PUSH1 0x70 PUSH1 0x20 SWAP1 DUP2 MSTORE PUSH1 0x40 SWAP2 DUP3 SWAP1 KECCAK256 DUP1 SLOAD DUP4 MLOAD DUP2 DUP5 MUL DUP2 ADD DUP5 ADD SWAP1 SWAP5 MSTORE DUP1 DUP5 MSTORE SWAP1 SWAP2 DUP4 ADD DUP3 DUP3 DUP1 ISZERO PUSH2 0x56E JUMPI PUSH1 0x20 MUL DUP3 ADD SWAP2 SWAP1 PUSH1 0x0 MSTORE PUSH1 0x20 PUSH1 0x0 KECCAK256 SWAP1 JUMPDEST DUP2 SLOAD DUP2 MSTORE PUSH1 0x20 ADD SWAP1 PUSH1 0x1 ADD SWAP1 DUP1 DUP4 GT PUSH2 0x55A JUMPI JUMPDEST POP POP POP POP POP SWAP1 POP JUMPDEST PUSH1 0x0 PUSH2 0x597 PUSH2 0x58F DUP9 PUSH2 0x589 DUP2 DUP11 PUSH2 0x175F JUMP JUMPDEST SWAP1 PUSH2 0x1772 JUMP JUMPDEST DUP4 MLOAD SWAP1 PUSH2 0x1772 JUMP JUMPDEST SWAP1 POP DUP7 DUP2 LT PUSH2 0x5A8 JUMPI DUP7 SWAP3 POP PUSH2 0x5AC JUMP JUMPDEST DUP1 SWAP3 POP JUMPDEST PUSH1 0x0 DUP4 PUSH8 0xFFFFFFFFFFFFFFFF DUP2 GT ISZERO PUSH2 0x5D5 JUMPI PUSH4 0x4E487B71 PUSH1 0xE0 SHL PUSH1 0x0 MSTORE PUSH1 0x41 PUSH1 0x4 MSTORE PUSH1 0x24 PUSH1 0x0 REVERT JUMPDEST PUSH1 0x40 MLOAD SWAP1 DUP1 DUP3 MSTORE DUP1 PUSH1 0x20 MUL PUSH1 0x20 ADD DUP3 ADD PUSH1 0x40 MSTORE DUP1 ISZERO PUSH2 0x5FE JUMPI DUP2 PUSH1 0x20 ADD PUSH1 0x20 DUP3 MUL DUP1 CALLDATASIZE DUP4 CALLDATACOPY ADD SWAP1 POP JUMPDEST POP DUP4 MLOAD SWAP1 SWAP2 POP PUSH2 0x612 DUP10 PUSH2 0x589 DUP2 DUP12 PUSH2 0x175F JUMP JUMPDEST LT PUSH2 0x638 JUMPI PUSH1 0x40 MLOAD PUSH3 0x461BCD PUSH1 0xE5 SHL DUP2 MSTORE PUSH1 0x4 ADD PUSH2 0x62F SWAP1 PUSH2 0x2FB0 JUMP JUMPDEST PUSH1 0x40 MLOAD DUP1 SWAP2 SUB SWAP1 REVERT JUMPDEST PUSH1 0x0 DUP9 PUSH2 0x645 DUP10 DUP3 PUSH2 0x3196 JUMP JUMPDEST PUSH2 0x64F SWAP2 SWAP1 PUSH2 0x31B5 JUMP JUMPDEST SWAP1 POP JUMPDEST PUSH2 0x65C DUP9 DUP11 PUSH2 0x3196 JUMP JUMPDEST DUP2 LT ISZERO PUSH2 0x6E2 JUMPI DUP4 DUP2 DUP2 MLOAD DUP2 LT PUSH2 0x683 JUMPI PUSH4 0x4E487B71 PUSH1 0xE0 SHL PUSH1 0x0 MSTORE PUSH1 0x32 PUSH1 0x4 MSTORE PUSH1 0x24 PUSH1 0x0 REVERT JUMPDEST PUSH1 0x20 MUL PUSH1 0x20 ADD ADD MLOAD DUP3 DUP8 DUP2 MLOAD DUP2 LT PUSH2 0x6AB JUMPI PUSH4 0x4E487B71 PUSH1 0xE0 SHL PUSH1 0x0 MSTORE PUSH1 0x32 PUSH1 0x4 MSTORE PUSH1 0x24 PUSH1 0x0 REVERT JUMPDEST PUSH1 0x20 SWAP1 DUP2 MUL SWAP2 SWAP1 SWAP2 ADD ADD MSTORE DUP6 PUSH2 0x6C0 DUP2 PUSH2 0x3233 JUMP JUMPDEST SWAP7 POP POP DUP6 DUP6 EQ ISZERO PUSH2 0x6D0 JUMPI PUSH2 0x6E2 JUMP JUMPDEST DUP1 PUSH2 0x6DA DUP2 PUSH2 0x3233 JUMP JUMPDEST SWAP2 POP POP PUSH2 0x652 JUMP JUMPDEST POP SWAP10 SWAP9 POP POP POP POP POP POP POP POP POP JUMP JUMPDEST PUSH1 0x6C DUP2 DUP2 SLOAD DUP2 LT PUSH2 0x700 JUMPI PUSH1 0x0 DUP1 REVERT JUMPDEST PUSH1 0x0 SWAP2 DUP3 MSTORE PUSH1 0x20 SWAP1 SWAP2 KECCAK256 ADD SLOAD SWAP1 POP DUP2 JUMP JUMPDEST PUSH1 0x0 PUSH2 0x71B PUSH2 0x177E JUMP JUMPDEST PUSH1 0x1 PUSH1 0x1 PUSH1 0xA0 SHL SUB AND PUSH2 0x72C PUSH2 0xC5D JUMP JUMPDEST PUSH1 0x1 PUSH1 0x1 PUSH1 0xA0 SHL SUB AND EQ PUSH2 0x752 JUMPI PUSH1 0x40 MLOAD PUSH3 0x461BCD PUSH1 0xE5 SHL DUP2 MSTORE PUSH1 0x4 ADD PUSH2 0x62F SWAP1 PUSH2 0x2F44 JUMP JUMPDEST POP PUSH1 0x1 PUSH1 0x1 PUSH1 0xA0 SHL SUB DUP3 AND PUSH1 0x0 SWAP1 DUP2 MSTORE PUSH1 0x65 PUSH1 0x20 MSTORE PUSH1 0x40 SWAP1 KECCAK256 DUP1 SLOAD DUP3 ISZERO ISZERO PUSH1 0xFF NOT SWAP1 SWAP2 AND OR SWAP1 SSTORE PUSH1 0x1 SWAP3 SWAP2 POP POP JUMP JUMPDEST PUSH1 0x68 SLOAD PUSH1 0x1 PUSH1 0x1 PUSH1 0xA0 SHL SUB AND DUP2 JUMP JUMPDEST PUSH1 0x66 SLOAD PUSH1 0x1 PUSH1 0x1 PUSH1 0xA0 SHL SUB AND DUP2 JUMP JUMPDEST PUSH1 0x67 SLOAD PUSH1 0x1 PUSH1 0x1 PUSH1 0xA0 SHL SUB AND DUP2 JUMP JUMPDEST PUSH1 0x6D PUSH1 0x20 MSTORE PUSH1 0x0 SWAP1 DUP2 MSTORE PUSH1 0x40 SWAP1 KECCAK256 SLOAD DUP2 JUMP JUMPDEST PUSH1 0x65 PUSH1 0x20 MSTORE PUSH1 0x0 SWAP1 DUP2 MSTORE PUSH1 0x40 SWAP1 KECCAK256 SLOAD PUSH1 0xFF AND DUP2 JUMP JUMPDEST CALLER PUSH1 0x0 SWAP1 DUP2 MSTORE PUSH1 0x65 PUSH1 0x20 MSTORE PUSH1 0x40 DUP2 KECCAK256 SLOAD PUSH1 0xFF AND PUSH2 0x804 JUMPI PUSH1 0x40 MLOAD PUSH3 0x461BCD PUSH1 0xE5 SHL DUP2 MSTORE PUSH1 0x4 ADD PUSH2 0x62F SWAP1 PUSH2 0x2DFF JUMP JUMPDEST PUSH1 0x0 JUMPDEST DUP7 MLOAD DUP2 LT ISZERO PUSH2 0x99F JUMPI PUSH1 0x0 PUSH1 0x6A PUSH1 0x0 DUP10 DUP5 DUP2 MLOAD DUP2 LT PUSH2 0x836 JUMPI PUSH4 0x4E487B71 PUSH1 0xE0 SHL PUSH1 0x0 MSTORE PUSH1 0x32 PUSH1 0x4 MSTORE PUSH1 0x24 PUSH1 0x0 REVERT JUMPDEST PUSH1 0x20 MUL PUSH1 0x20 ADD ADD MLOAD DUP2 MSTORE PUSH1 0x20 ADD SWAP1 DUP2 MSTORE PUSH1 0x20 ADD PUSH1 0x0 KECCAK256 SWAP1 POP PUSH2 0x8AB DUP9 DUP4 DUP2 MLOAD DUP2 LT PUSH2 0x871 JUMPI PUSH4 0x4E487B71 PUSH1 0xE0 SHL PUSH1 0x0 MSTORE PUSH1 0x32 PUSH1 0x4 MSTORE PUSH1 0x24 PUSH1 0x0 REVERT JUMPDEST PUSH1 0x20 MUL PUSH1 0x20 ADD ADD MLOAD DUP7 DUP5 DUP2 MLOAD DUP2 LT PUSH2 0x899 JUMPI PUSH4 0x4E487B71 PUSH1 0xE0 SHL PUSH1 0x0 MSTORE PUSH1 0x32 PUSH1 0x4 MSTORE PUSH1 0x24 PUSH1 0x0 REVERT JUMPDEST PUSH1 0x20 MUL PUSH1 0x20 ADD ADD MLOAD DUP4 PUSH1 0xA ADD SLOAD PUSH2 0x1782 JUMP JUMPDEST PUSH2 0x98C JUMPI PUSH2 0x983 DUP10 DUP3 PUSH1 0x3 DUP12 DUP7 DUP2 MLOAD DUP2 LT PUSH2 0x8D6 JUMPI PUSH4 0x4E487B71 PUSH1 0xE0 SHL PUSH1 0x0 MSTORE PUSH1 0x32 PUSH1 0x4 MSTORE PUSH1 0x24 PUSH1 0x0 REVERT JUMPDEST PUSH1 0x20 MUL PUSH1 0x20 ADD ADD MLOAD DUP12 DUP8 DUP2 MLOAD DUP2 LT PUSH2 0x8FE JUMPI PUSH4 0x4E487B71 PUSH1 0xE0 SHL PUSH1 0x0 MSTORE PUSH1 0x32 PUSH1 0x4 MSTORE PUSH1 0x24 PUSH1 0x0 REVERT JUMPDEST PUSH1 0x20 MUL PUSH1 0x20 ADD ADD MLOAD DUP12 DUP9 DUP2 MLOAD DUP2 LT PUSH2 0x926 JUMPI PUSH4 0x4E487B71 PUSH1 0xE0 SHL PUSH1 0x0 MSTORE PUSH1 0x32 PUSH1 0x4 MSTORE PUSH1 0x24 PUSH1 0x0 REVERT JUMPDEST PUSH1 0x20 MUL PUSH1 0x20 ADD ADD MLOAD DUP12 DUP10 DUP2 MLOAD DUP2 LT PUSH2 0x94E JUMPI PUSH4 0x4E487B71 PUSH1 0xE0 SHL PUSH1 0x0 MSTORE PUSH1 0x32 PUSH1 0x4 MSTORE PUSH1 0x24 PUSH1 0x0 REVERT JUMPDEST PUSH1 0x20 MUL PUSH1 0x20 ADD ADD MLOAD DUP12 DUP11 DUP2 MLOAD DUP2 LT PUSH2 0x976 JUMPI PUSH4 0x4E487B71 PUSH1 0xE0 SHL PUSH1 0x0 MSTORE PUSH1 0x32 PUSH1 0x4 MSTORE PUSH1 0x24 PUSH1 0x0 REVERT JUMPDEST PUSH1 0x20 MUL PUSH1 0x20 ADD ADD MLOAD PUSH2 0x18D9 JUMP JUMPDEST SWAP3 POP POP POP PUSH2 0x9A5 JUMP JUMPDEST POP DUP1 PUSH2 0x997 DUP2 PUSH2 0x3233 JUMP JUMPDEST SWAP2 POP POP PUSH2 0x807 JUMP JUMPDEST POP PUSH1 0x1 SWAP1 POP JUMPDEST SWAP7 SWAP6 POP POP POP POP POP POP JUMP JUMPDEST PUSH2 0x9B7 PUSH2 0x2510 JUMP JUMPDEST PUSH1 0x0 DUP3 DUP2 MSTORE PUSH1 0x6A PUSH1 0x20 SWAP1 DUP2 MSTORE PUSH1 0x40 SWAP2 DUP3 SWAP1 KECCAK256 DUP3 MLOAD PUSH2 0x160 DUP2 ADD DUP5 MSTORE DUP2 SLOAD PUSH1 0x1 PUSH1 0x1 PUSH1 0xA0 SHL SUB AND DUP2 MSTORE PUSH1 0x1 DUP3 ADD SLOAD SWAP3 DUP2 ADD SWAP3 SWAP1 SWAP3 MSTORE PUSH1 0x2 DUP2 ADD DUP1 SLOAD SWAP3 SWAP4 SWAP2 SWAP3 SWAP2 DUP5 ADD SWAP2 PUSH2 0xA02 SWAP1 PUSH2 0x31F8 JUMP JUMPDEST DUP1 PUSH1 0x1F ADD PUSH1 0x20 DUP1 SWAP2 DIV MUL PUSH1 0x20 ADD PUSH1 0x40 MLOAD SWAP1 DUP2 ADD PUSH1 0x40 MSTORE DUP1 SWAP3 SWAP2 SWAP1 DUP2 DUP2 MSTORE PUSH1 0x20 ADD DUP3 DUP1 SLOAD PUSH2 0xA2E SWAP1 PUSH2 0x31F8 JUMP JUMPDEST DUP1 ISZERO PUSH2 0xA7B JUMPI DUP1 PUSH1 0x1F LT PUSH2 0xA50 JUMPI PUSH2 0x100 DUP1 DUP4 SLOAD DIV MUL DUP4 MSTORE SWAP2 PUSH1 0x20 ADD SWAP2 PUSH2 0xA7B JUMP JUMPDEST DUP3 ADD SWAP2 SWAP1 PUSH1 0x0 MSTORE PUSH1 0x20 PUSH1 0x0 KECCAK256 SWAP1 JUMPDEST DUP2 SLOAD DUP2 MSTORE SWAP1 PUSH1 0x1 ADD SWAP1 PUSH1 0x20 ADD DUP1 DUP4 GT PUSH2 0xA5E JUMPI DUP3 SWAP1 SUB PUSH1 0x1F AND DUP3 ADD SWAP2 JUMPDEST POP POP POP POP POP DUP2 MSTORE PUSH1 0x20 ADD PUSH1 0x3 DUP3 ADD SLOAD DUP2 MSTORE PUSH1 0x20 ADD PUSH1 0x4 DUP3 ADD SLOAD DUP2 MSTORE PUSH1 0x20 ADD PUSH1 0x5 DUP3 ADD SLOAD DUP2 MSTORE PUSH1 0x20 ADD PUSH1 0x6 DUP3 ADD SLOAD DUP2 MSTORE PUSH1 0x20 ADD PUSH1 0x7 DUP3 ADD SLOAD DUP2 MSTORE PUSH1 0x20 ADD PUSH1 0x8 DUP3 ADD SLOAD DUP2 MSTORE PUSH1 0x20 ADD PUSH1 0x9 DUP3 ADD SLOAD DUP2 MSTORE PUSH1 0x20 ADD PUSH1 0xA DUP3 ADD SLOAD DUP2 MSTORE POP POP SWAP1 POP JUMPDEST SWAP2 SWAP1 POP JUMP JUMPDEST PUSH1 0x0 PUSH2 0xAE6 PUSH2 0x177E JUMP JUMPDEST PUSH1 0x1 PUSH1 0x1 PUSH1 0xA0 SHL SUB AND PUSH2 0xAF7 PUSH2 0xC5D JUMP JUMPDEST PUSH1 0x1 PUSH1 0x1 PUSH1 0xA0 SHL SUB AND EQ PUSH2 0xB1D JUMPI PUSH1 0x40 MLOAD PUSH3 0x461BCD PUSH1 0xE5 SHL DUP2 MSTORE PUSH1 0x4 ADD PUSH2 0x62F SWAP1 PUSH2 0x2F44 JUMP JUMPDEST POP PUSH1 0x66 DUP1 SLOAD PUSH1 0x1 PUSH1 0x1 PUSH1 0xA0 SHL SUB DUP4 AND PUSH1 0x1 PUSH1 0x1 PUSH1 0xA0 SHL SUB NOT SWAP1 SWAP2 AND OR SWAP1 SSTORE PUSH1 0x1 SWAP2 SWAP1 POP JUMP JUMPDEST PUSH1 0x0 DUP6 DUP2 MSTORE PUSH1 0x6A PUSH1 0x20 MSTORE PUSH1 0x40 DUP2 KECCAK256 DUP1 SLOAD PUSH1 0x1 PUSH1 0x1 PUSH1 0xA0 SHL SUB AND CALLER EQ PUSH2 0xB79 JUMPI PUSH1 0x40 MLOAD PUSH3 0x461BCD PUSH1 0xE5 SHL DUP2 MSTORE PUSH1 0x4 ADD PUSH2 0x62F SWAP1 PUSH2 0x2FD4 JUMP JUMPDEST PUSH2 0xB8A DUP9 DUP3 PUSH1 0x2 DUP11 DUP11 DUP11 DUP11 DUP11 PUSH2 0x18D9 JUMP JUMPDEST SWAP9 SWAP8 POP POP POP POP POP POP POP POP JUMP JUMPDEST PUSH2 0xB9E PUSH2 0x177E JUMP JUMPDEST PUSH1 0x1 PUSH1 0x1 PUSH1 0xA0 SHL SUB AND PUSH2 0xBAF PUSH2 0xC5D JUMP JUMPDEST PUSH1 0x1 PUSH1 0x1 PUSH1 0xA0 SHL SUB AND EQ PUSH2 0xBD5 JUMPI PUSH1 0x40 MLOAD PUSH3 0x461BCD PUSH1 0xE5 SHL DUP2 MSTORE PUSH1 0x4 ADD PUSH2 0x62F SWAP1 PUSH2 0x2F44 JUMP JUMPDEST PUSH2 0xBDF PUSH1 0x0 PUSH2 0x203B JUMP JUMPDEST JUMP JUMPDEST PUSH1 0x6F PUSH1 0x20 SWAP1 DUP2 MSTORE PUSH1 0x0 SWAP3 DUP4 MSTORE PUSH1 0x40 DUP1 DUP5 KECCAK256 SWAP1 SWAP2 MSTORE SWAP1 DUP3 MSTORE SWAP1 KECCAK256 SLOAD DUP2 JUMP JUMPDEST PUSH1 0x0 PUSH2 0xC08 PUSH2 0x177E JUMP JUMPDEST PUSH1 0x1 PUSH1 0x1 PUSH1 0xA0 SHL SUB AND PUSH2 0xC19 PUSH2 0xC5D JUMP JUMPDEST PUSH1 0x1 PUSH1 0x1 PUSH1 0xA0 SHL SUB AND EQ PUSH2 0xC3F JUMPI PUSH1 0x40 MLOAD PUSH3 0x461BCD PUSH1 0xE5 SHL DUP2 MSTORE PUSH1 0x4 ADD PUSH2 0x62F SWAP1 PUSH2 0x2F44 JUMP JUMPDEST POP PUSH1 0x72 SSTORE PUSH1 0x1 SWAP1 JUMP JUMPDEST PUSH1 0x69 SLOAD PUSH1 0x1 PUSH1 0x1 PUSH1 0xA0 SHL SUB AND DUP2 JUMP JUMPDEST PUSH1 0x72 SLOAD DUP2 JUMP JUMPDEST PUSH1 0x33 SLOAD PUSH1 0x1 PUSH1 0x1 PUSH1 0xA0 SHL SUB AND SWAP1 JUMP JUMPDEST CALLER PUSH1 0x0 SWAP1 DUP2 MSTORE PUSH1 0x65 PUSH1 0x20 MSTORE PUSH1 0x40 DUP2 KECCAK256 SLOAD PUSH1 0xFF AND PUSH2 0xC9B JUMPI PUSH1 0x40 MLOAD PUSH3 0x461BCD PUSH1 0xE5 SHL DUP2 MSTORE PUSH1 0x4 ADD PUSH2 0x62F SWAP1 PUSH2 0x2DFF JUMP JUMPDEST PUSH1 0x0 DUP7 DUP2 MSTORE PUSH1 0x6A PUSH1 0x20 MSTORE PUSH1 0x40 SWAP1 KECCAK256 PUSH2 0xB8A DUP9 DUP3 PUSH1 0x4 DUP11 DUP11 DUP11 DUP11 DUP11 PUSH2 0x18D9 JUMP JUMPDEST PUSH1 0x0 DUP7 DUP2 MSTORE PUSH1 0x6A PUSH1 0x20 MSTORE PUSH1 0x40 DUP2 KECCAK256 DUP1 SLOAD PUSH1 0x1 PUSH1 0x1 PUSH1 0xA0 SHL SUB AND PUSH2 0xCEF JUMPI PUSH1 0x40 MLOAD PUSH3 0x461BCD PUSH1 0xE5 SHL DUP2 MSTORE PUSH1 0x4 ADD PUSH2 0x62F SWAP1 PUSH2 0x2D3F JUMP JUMPDEST PUSH1 0x2 DUP2 PUSH1 0x3 ADD SLOAD LT PUSH2 0xD13 JUMPI PUSH1 0x40 MLOAD PUSH3 0x461BCD PUSH1 0xE5 SHL DUP2 MSTORE PUSH1 0x4 ADD PUSH2 0x62F SWAP1 PUSH2 0x2FF6 JUMP JUMPDEST PUSH1 0x69 SLOAD PUSH1 0x40 MLOAD PUSH4 0x11CDC9D9 PUSH1 0xE1 SHL DUP2 MSTORE PUSH1 0x1 PUSH1 0x1 PUSH1 0xA0 SHL SUB SWAP1 SWAP2 AND SWAP1 PUSH4 0x239B93B2 SWAP1 PUSH2 0xD4B SWAP1 DUP13 SWAP1 DUP10 SWAP1 DUP13 SWAP1 DUP13 SWAP1 DUP12 SWAP1 PUSH1 0x4 ADD PUSH2 0x2CF3 JUMP JUMPDEST PUSH1 0x20 PUSH1 0x40 MLOAD DUP1 DUP4 SUB DUP2 DUP7 DUP1 EXTCODESIZE ISZERO DUP1 ISZERO PUSH2 0xD63 JUMPI PUSH1 0x0 DUP1 REVERT JUMPDEST POP GAS STATICCALL ISZERO DUP1 ISZERO PUSH2 0xD77 JUMPI RETURNDATASIZE PUSH1 0x0 DUP1 RETURNDATACOPY RETURNDATASIZE PUSH1 0x0 REVERT JUMPDEST POP POP POP POP PUSH1 0x40 MLOAD RETURNDATASIZE PUSH1 0x1F NOT PUSH1 0x1F DUP3 ADD AND DUP3 ADD DUP1 PUSH1 0x40 MSTORE POP DUP2 ADD SWAP1 PUSH2 0xD9B SWAP2 SWAP1 PUSH2 0x2862 JUMP JUMPDEST PUSH2 0xDB7 JUMPI PUSH1 0x40 MLOAD PUSH3 0x461BCD PUSH1 0xE5 SHL DUP2 MSTORE PUSH1 0x4 ADD PUSH2 0x62F SWAP1 PUSH2 0x2DDB JUMP JUMPDEST PUSH2 0xDC2 DUP9 DUP7 DUP6 PUSH2 0x1782 JUMP JUMPDEST PUSH2 0xDDE JUMPI PUSH1 0x40 MLOAD PUSH3 0x461BCD PUSH1 0xE5 SHL DUP2 MSTORE PUSH1 0x4 ADD PUSH2 0x62F SWAP1 PUSH2 0x2F1A JUMP JUMPDEST PUSH1 0x0 PUSH2 0xE1B PUSH8 0xDE0B6B3A7640000 PUSH2 0xE15 PUSH1 0x73 SLOAD PUSH2 0xE15 PUSH1 0x72 SLOAD PUSH2 0xE0F DUP13 DUP10 PUSH1 0x9 ADD SLOAD PUSH2 0x175F SWAP1 SWAP2 SWAP1 PUSH4 0xFFFFFFFF AND JUMP JUMPDEST SWAP1 PUSH2 0x175F JUMP JUMPDEST SWAP1 PUSH2 0x208D JUMP JUMPDEST SWAP1 POP PUSH1 0x0 PUSH2 0xE6C PUSH2 0xE49 PUSH8 0xDE0B6B3A7640000 PUSH2 0xE15 DUP7 PUSH1 0x9 ADD SLOAD DUP8 PUSH1 0x5 ADD SLOAD PUSH2 0x175F SWAP1 SWAP2 SWAP1 PUSH4 0xFFFFFFFF AND JUMP JUMPDEST PUSH2 0x589 PUSH8 0xDE0B6B3A7640000 PUSH2 0xE15 DUP8 PUSH1 0x9 ADD SLOAD DUP13 PUSH2 0x175F SWAP1 SWAP2 SWAP1 PUSH4 0xFFFFFFFF AND JUMP JUMPDEST SWAP1 POP PUSH1 0x0 PUSH2 0xE87 DUP3 DUP6 PUSH1 0xA ADD SLOAD PUSH2 0x2099 SWAP1 SWAP2 SWAP1 PUSH4 0xFFFFFFFF AND JUMP JUMPDEST SWAP1 POP PUSH1 0x0 DUP2 PUSH2 0xE96 DUP9 DUP7 PUSH2 0x1772 JUMP JUMPDEST GT ISZERO PUSH2 0xF2C JUMPI PUSH2 0xEAA DUP3 PUSH2 0x589 DUP10 DUP8 PUSH2 0x1772 JUMP JUMPDEST PUSH1 0x67 SLOAD SWAP1 SWAP2 POP PUSH2 0xEC5 SWAP1 PUSH1 0x1 PUSH1 0x1 PUSH1 0xA0 SHL SUB AND CALLER ADDRESS DUP5 PUSH2 0x20A5 JUMP JUMPDEST PUSH1 0x67 SLOAD PUSH1 0x40 MLOAD PUSH4 0x852CD8D PUSH1 0xE3 SHL DUP2 MSTORE PUSH1 0x1 PUSH1 0x1 PUSH1 0xA0 SHL SUB SWAP1 SWAP2 AND SWAP1 PUSH4 0x42966C68 SWAP1 PUSH2 0xEF5 SWAP1 DUP5 SWAP1 PUSH1 0x4 ADD PUSH2 0x3107 JUMP JUMPDEST PUSH1 0x0 PUSH1 0x40 MLOAD DUP1 DUP4 SUB DUP2 PUSH1 0x0 DUP8 DUP1 EXTCODESIZE ISZERO DUP1 ISZERO PUSH2 0xF0F JUMPI PUSH1 0x0 DUP1 REVERT JUMPDEST POP GAS CALL ISZERO DUP1 ISZERO PUSH2 0xF23 JUMPI RETURNDATASIZE PUSH1 0x0 DUP1 RETURNDATACOPY RETURNDATASIZE PUSH1 0x0 REVERT JUMPDEST POP POP POP POP PUSH2 0xFC5 JUMP JUMPDEST PUSH2 0xF3A DUP5 PUSH2 0x589 DUP5 DUP11 PUSH2 0x1772 JUMP JUMPDEST PUSH1 0x67 SLOAD DUP7 SLOAD PUSH1 0x40 MLOAD PUSH4 0x40C10F19 PUSH1 0xE0 SHL DUP2 MSTORE SWAP3 SWAP4 POP PUSH1 0x1 PUSH1 0x1 PUSH1 0xA0 SHL SUB SWAP2 DUP3 AND SWAP3 PUSH4 0x40C10F19 SWAP3 PUSH2 0xF71 SWAP3 AND SWAP1 DUP6 SWAP1 PUSH1 0x4 ADD PUSH2 0x2C8B JUMP JUMPDEST PUSH1 0x20 PUSH1 0x40 MLOAD DUP1 DUP4 SUB DUP2 PUSH1 0x0 DUP8 DUP1 EXTCODESIZE ISZERO DUP1 ISZERO PUSH2 0xF8B JUMPI PUSH1 0x0 DUP1 REVERT JUMPDEST POP GAS CALL ISZERO DUP1 ISZERO PUSH2 0xF9F JUMPI RETURNDATASIZE PUSH1 0x0 DUP1 RETURNDATACOPY RETURNDATASIZE PUSH1 0x0 REVERT JUMPDEST POP POP POP POP PUSH1 0x40 MLOAD RETURNDATASIZE PUSH1 0x1F NOT PUSH1 0x1F DUP3 ADD AND DUP3 ADD DUP1 PUSH1 0x40 MSTORE POP DUP2 ADD SWAP1 PUSH2 0xFC3 SWAP2 SWAP1 PUSH2 0x2862 JUMP JUMPDEST POP JUMPDEST POP PUSH1 0x1 SWAP13 SWAP12 POP POP POP POP POP POP POP POP POP POP POP POP JUMP JUMPDEST PUSH1 0x73 SLOAD DUP2 JUMP JUMPDEST PUSH1 0x1 PUSH1 0x1 PUSH1 0xA0 SHL SUB AND PUSH1 0x0 SWAP1 DUP2 MSTORE PUSH1 0x70 PUSH1 0x20 MSTORE PUSH1 0x40 SWAP1 KECCAK256 SLOAD SWAP1 JUMP JUMPDEST PUSH1 0x6E PUSH1 0x20 MSTORE DUP2 PUSH1 0x0 MSTORE PUSH1 0x40 PUSH1 0x0 KECCAK256 DUP2 DUP2 SLOAD DUP2 LT PUSH2 0x1015 JUMPI PUSH1 0x0 DUP1 REVERT JUMPDEST SWAP1 PUSH1 0x0 MSTORE PUSH1 0x20 PUSH1 0x0 KECCAK256 ADD PUSH1 0x0 SWAP2 POP SWAP2 POP POP SLOAD DUP2 JUMP JUMPDEST PUSH1 0x6B SLOAD PUSH1 0x0 SWAP1 DUP2 MSTORE PUSH1 0x6A PUSH1 0x20 MSTORE PUSH1 0x40 DUP2 KECCAK256 DUP10 PUSH2 0x1058 JUMPI PUSH1 0x40 MLOAD PUSH3 0x461BCD PUSH1 0xE5 SHL DUP2 MSTORE PUSH1 0x4 ADD PUSH2 0x62F SWAP1 PUSH2 0x2D6D JUMP JUMPDEST PUSH1 0x3 DUP2 ADD SLOAD ISZERO PUSH2 0x107A JUMPI PUSH1 0x40 MLOAD PUSH3 0x461BCD PUSH1 0xE5 SHL DUP2 MSTORE PUSH1 0x4 ADD PUSH2 0x62F SWAP1 PUSH2 0x2FF6 JUMP JUMPDEST PUSH1 0x69 SLOAD PUSH1 0x40 MLOAD PUSH4 0x11CDC9D9 PUSH1 0xE1 SHL DUP2 MSTORE PUSH1 0x1 PUSH1 0x1 PUSH1 0xA0 SHL SUB SWAP1 SWAP2 AND SWAP1 PUSH4 0x239B93B2 SWAP1 PUSH2 0x10B2 SWAP1 DUP15 SWAP1 DUP10 SWAP1 DUP15 SWAP1 DUP13 SWAP1 DUP11 SWAP1 PUSH1 0x4 ADD PUSH2 0x2CF3 JUMP JUMPDEST PUSH1 0x20 PUSH1 0x40 MLOAD DUP1 DUP4 SUB DUP2 DUP7 DUP1 EXTCODESIZE ISZERO DUP1 ISZERO PUSH2 0x10CA JUMPI PUSH1 0x0 DUP1 REVERT JUMPDEST POP GAS STATICCALL ISZERO DUP1 ISZERO PUSH2 0x10DE JUMPI RETURNDATASIZE PUSH1 0x0 DUP1 RETURNDATACOPY RETURNDATASIZE PUSH1 0x0 REVERT JUMPDEST POP POP POP POP PUSH1 0x40 MLOAD RETURNDATASIZE PUSH1 0x1F NOT PUSH1 0x1F DUP3 ADD AND DUP3 ADD DUP1 PUSH1 0x40 MSTORE POP DUP2 ADD SWAP1 PUSH2 0x1102 SWAP2 SWAP1 PUSH2 0x2862 JUMP JUMPDEST PUSH2 0x111E JUMPI PUSH1 0x40 MLOAD PUSH3 0x461BCD PUSH1 0xE5 SHL DUP2 MSTORE PUSH1 0x4 ADD PUSH2 0x62F SWAP1 PUSH2 0x2DDB JUMP JUMPDEST PUSH1 0x74 SLOAD DUP11 GT PUSH2 0x113F JUMPI PUSH1 0x40 MLOAD PUSH3 0x461BCD PUSH1 0xE5 SHL DUP2 MSTORE PUSH1 0x4 ADD PUSH2 0x62F SWAP1 PUSH2 0x2ED7 JUMP JUMPDEST PUSH1 0x67 SLOAD PUSH2 0x1157 SWAP1 PUSH1 0x1 PUSH1 0x1 PUSH1 0xA0 SHL SUB AND CALLER ADDRESS DUP14 PUSH2 0x20A5 JUMP JUMPDEST PUSH1 0x67 SLOAD PUSH1 0x40 MLOAD PUSH4 0x70A08231 PUSH1 0xE0 SHL DUP2 MSTORE PUSH1 0x0 SWAP2 PUSH1 0x1 PUSH1 0x1 PUSH1 0xA0 SHL SUB AND SWAP1 PUSH4 0x70A08231 SWAP1 PUSH2 0x1188 SWAP1 ADDRESS SWAP1 PUSH1 0x4 ADD PUSH2 0x2C53 JUMP JUMPDEST PUSH1 0x20 PUSH1 0x40 MLOAD DUP1 DUP4 SUB DUP2 DUP7 DUP1 EXTCODESIZE ISZERO DUP1 ISZERO PUSH2 0x11A0 JUMPI PUSH1 0x0 DUP1 REVERT JUMPDEST POP GAS STATICCALL ISZERO DUP1 ISZERO PUSH2 0x11B4 JUMPI RETURNDATASIZE PUSH1 0x0 DUP1 RETURNDATACOPY RETURNDATASIZE PUSH1 0x0 REVERT JUMPDEST POP POP POP POP PUSH1 0x40 MLOAD RETURNDATASIZE PUSH1 0x1F NOT PUSH1 0x1F DUP3 ADD AND DUP3 ADD DUP1 PUSH1 0x40 MSTORE POP DUP2 ADD SWAP1 PUSH2 0x11D8 SWAP2 SWAP1 PUSH2 0x2B3B JUMP JUMPDEST SWAP1 POP PUSH1 0x0 PUSH2 0x11F7 PUSH1 0x73 SLOAD PUSH2 0xE15 PUSH1 0x72 SLOAD DUP6 PUSH2 0x175F SWAP1 SWAP2 SWAP1 PUSH4 0xFFFFFFFF AND JUMP JUMPDEST PUSH1 0x68 SLOAD PUSH1 0x67 SLOAD SWAP2 SWAP3 POP PUSH2 0x1217 SWAP2 PUSH1 0x1 PUSH1 0x1 PUSH1 0xA0 SHL SUB SWAP1 DUP2 AND SWAP2 AND DUP4 PUSH2 0x2103 JUMP JUMPDEST PUSH1 0x68 PUSH1 0x0 SWAP1 SLOAD SWAP1 PUSH2 0x100 EXP SWAP1 DIV PUSH1 0x1 PUSH1 0x1 PUSH1 0xA0 SHL SUB AND PUSH1 0x1 PUSH1 0x1 PUSH1 0xA0 SHL SUB AND PUSH4 0xD10C06A2 PUSH1 0x40 MLOAD DUP2 PUSH4 0xFFFFFFFF AND PUSH1 0xE0 SHL DUP2 MSTORE PUSH1 0x4 ADD PUSH1 0x20 PUSH1 0x40 MLOAD DUP1 DUP4 SUB DUP2 PUSH1 0x0 DUP8 DUP1 EXTCODESIZE ISZERO DUP1 ISZERO PUSH2 0x1267 JUMPI PUSH1 0x0 DUP1 REVERT JUMPDEST POP GAS CALL ISZERO DUP1 ISZERO PUSH2 0x127B JUMPI RETURNDATASIZE PUSH1 0x0 DUP1 RETURNDATACOPY RETURNDATASIZE PUSH1 0x0 REVERT JUMPDEST POP POP POP POP PUSH1 0x40 MLOAD RETURNDATASIZE PUSH1 0x1F NOT PUSH1 0x1F DUP3 ADD AND DUP3 ADD DUP1 PUSH1 0x40 MSTORE POP DUP2 ADD SWAP1 PUSH2 0x129F SWAP2 SWAP1 PUSH2 0x2862 JUMP JUMPDEST POP PUSH1 0x67 SLOAD PUSH1 0x1 PUSH1 0x1 PUSH1 0xA0 SHL SUB AND PUSH4 0x42966C68 PUSH2 0x12BB DUP5 DUP5 PUSH2 0x1772 JUMP JUMPDEST PUSH1 0x40 MLOAD DUP3 PUSH4 0xFFFFFFFF AND PUSH1 0xE0 SHL DUP2 MSTORE PUSH1 0x4 ADD PUSH2 0x12D7 SWAP2 SWAP1 PUSH2 0x3107 JUMP JUMPDEST PUSH1 0x0 PUSH1 0x40 MLOAD DUP1 DUP4 SUB DUP2 PUSH1 0x0 DUP8 DUP1 EXTCODESIZE ISZERO DUP1 ISZERO PUSH2 0x12F1 JUMPI PUSH1 0x0 DUP1 REVERT JUMPDEST POP GAS CALL ISZERO DUP1 ISZERO PUSH2 0x1305 JUMPI RETURNDATASIZE PUSH1 0x0 DUP1 RETURNDATACOPY RETURNDATASIZE PUSH1 0x0 REVERT JUMPDEST POP POP PUSH1 0x6B SLOAD PUSH1 0x6C DUP1 SLOAD PUSH1 0x1 DUP2 DUP2 ADD DUP4 SSTORE PUSH1 0x0 DUP4 SWAP1 MSTORE PUSH32 0x2B4A51AB505FC96A0952EFDA2BA61BCD3078D4C02C39A186EC16F21883FBE016 SWAP1 SWAP2 ADD SWAP3 SWAP1 SWAP3 SSTORE SLOAD PUSH2 0x134F SWAP4 POP SWAP2 POP PUSH2 0x1772 JUMP JUMPDEST PUSH1 0x6B DUP1 SLOAD PUSH1 0x0 SWAP1 DUP2 MSTORE PUSH1 0x6D PUSH1 0x20 SWAP1 DUP2 MSTORE PUSH1 0x40 DUP1 DUP4 KECCAK256 SWAP5 SWAP1 SWAP5 SSTORE CALLER DUP1 DUP4 MSTORE PUSH1 0x6E DUP1 DUP4 MSTORE DUP6 DUP5 KECCAK256 DUP6 SLOAD DUP2 SLOAD PUSH1 0x1 DUP2 DUP2 ADD DUP5 SSTORE DUP4 DUP9 MSTORE DUP7 DUP9 KECCAK256 SWAP1 SWAP2 ADD SWAP2 SWAP1 SWAP2 SSTORE SWAP6 SLOAD SWAP3 DUP6 MSTORE PUSH1 0x6F DUP5 MSTORE SWAP6 DUP5 KECCAK256 SWAP3 MSTORE SWAP4 SLOAD SWAP1 SWAP3 PUSH2 0x13A8 SWAP2 SWAP1 PUSH2 0x1772 JUMP JUMPDEST DUP2 MSTORE PUSH1 0x20 ADD SWAP1 DUP2 MSTORE PUSH1 0x20 ADD PUSH1 0x0 KECCAK256 DUP2 SWAP1 SSTORE POP PUSH1 0x6B PUSH1 0x0 DUP2 SLOAD DUP1 SWAP3 SWAP2 SWAP1 PUSH2 0x13CD SWAP1 PUSH2 0x3233 JUMP JUMPDEST SWAP1 SWAP2 SSTORE POP POP DUP3 SLOAD PUSH1 0x1 PUSH1 0x1 PUSH1 0xA0 SHL SUB NOT AND CALLER OR DUP4 SSTORE PUSH1 0x1 DUP4 ADD DUP10 SWAP1 SSTORE DUP8 MLOAD PUSH2 0x13FE SWAP1 PUSH1 0x2 DUP6 ADD SWAP1 PUSH1 0x20 DUP12 ADD SWAP1 PUSH2 0x2573 JUMP JUMPDEST POP PUSH1 0x1 PUSH1 0x3 DUP5 ADD SSTORE PUSH1 0x4 DUP4 ADD DUP11 SWAP1 SSTORE PUSH1 0x5 DUP4 ADD DUP8 SWAP1 SSTORE PUSH1 0x6 DUP4 ADD DUP12 SWAP1 SSTORE PUSH1 0x9 DUP4 ADD DUP7 SWAP1 SSTORE PUSH2 0x142C DUP3 DUP3 PUSH2 0x1772 JUMP JUMPDEST PUSH1 0xA SWAP1 SWAP4 ADD SWAP3 SWAP1 SWAP3 SSTORE POP PUSH1 0x1 SWAP12 SWAP11 POP POP POP POP POP POP POP POP POP POP POP JUMP JUMPDEST PUSH1 0x1 PUSH1 0x1 PUSH1 0xA0 SHL SUB AND PUSH1 0x0 SWAP1 DUP2 MSTORE PUSH1 0x6E PUSH1 0x20 MSTORE PUSH1 0x40 SWAP1 KECCAK256 SLOAD SWAP1 JUMP JUMPDEST PUSH1 0x70 PUSH1 0x20 MSTORE DUP2 PUSH1 0x0 MSTORE PUSH1 0x40 PUSH1 0x0 KECCAK256 DUP2 DUP2 SLOAD DUP2 LT PUSH2 0x1015 JUMPI PUSH1 0x0 DUP1 REVERT JUMPDEST PUSH1 0x71 PUSH1 0x20 SWAP1 DUP2 MSTORE PUSH1 0x0 SWAP3 DUP4 MSTORE PUSH1 0x40 DUP1 DUP5 KECCAK256 SWAP1 SWAP2 MSTORE SWAP1 DUP3 MSTORE SWAP1 KECCAK256 SLOAD DUP2 JUMP JUMPDEST PUSH1 0x74 SLOAD DUP2 JUMP JUMPDEST PUSH2 0x14A9 PUSH2 0x177E JUMP JUMPDEST PUSH1 0x1 PUSH1 0x1 PUSH1 0xA0 SHL SUB AND PUSH2 0x14BA PUSH2 0xC5D JUMP JUMPDEST PUSH1 0x1 PUSH1 0x1 PUSH1 0xA0 SHL SUB AND EQ PUSH2 0x14E0 JUMPI PUSH1 0x40 MLOAD PUSH3 0x461BCD PUSH1 0xE5 SHL DUP2 MSTORE PUSH1 0x4 ADD PUSH2 0x62F SWAP1 PUSH2 0x2F44 JUMP JUMPDEST PUSH1 0x1 PUSH1 0x1 PUSH1 0xA0 SHL SUB DUP2 AND PUSH2 0x1506 JUMPI PUSH1 0x40 MLOAD PUSH3 0x461BCD PUSH1 0xE5 SHL DUP2 MSTORE PUSH1 0x4 ADD PUSH2 0x62F SWAP1 PUSH2 0x2D95 JUMP JUMPDEST PUSH2 0x150F DUP2 PUSH2 0x203B JUMP JUMPDEST POP JUMP JUMPDEST PUSH1 0x6B SLOAD DUP2 JUMP JUMPDEST PUSH1 0x0 SLOAD PUSH2 0x100 SWAP1 DIV PUSH1 0xFF AND DUP1 PUSH2 0x1531 JUMPI POP PUSH1 0x0 SLOAD PUSH1 0xFF AND ISZERO JUMPDEST PUSH2 0x154D JUMPI PUSH1 0x40 MLOAD PUSH3 0x461BCD PUSH1 0xE5 SHL DUP2 MSTORE PUSH1 0x4 ADD PUSH2 0x62F SWAP1 PUSH2 0x2E89 JUMP JUMPDEST PUSH1 0x0 SLOAD PUSH2 0x100 SWAP1 DIV PUSH1 0xFF AND ISZERO DUP1 ISZERO PUSH2 0x1578 JUMPI PUSH1 0x0 DUP1 SLOAD PUSH1 0xFF NOT PUSH2 0xFF00 NOT SWAP1 SWAP2 AND PUSH2 0x100 OR AND PUSH1 0x1 OR SWAP1 SSTORE JUMPDEST PUSH2 0x1580 PUSH2 0x2127 JUMP JUMPDEST PUSH1 0x66 DUP1 SLOAD PUSH1 0x1 PUSH1 0x1 PUSH1 0xA0 SHL SUB DUP1 DUP9 AND PUSH1 0x1 PUSH1 0x1 PUSH1 0xA0 SHL SUB NOT SWAP3 DUP4 AND OR SWAP1 SWAP3 SSTORE PUSH1 0x68 DUP1 SLOAD DUP8 DUP5 AND SWAP1 DUP4 AND OR SWAP1 SSTORE PUSH1 0x67 DUP1 SLOAD DUP7 DUP5 AND SWAP1 DUP4 AND OR SWAP1 SSTORE PUSH2 0x2710 PUSH1 0x73 SSTORE PUSH1 0x69 DUP1 SLOAD SWAP3 DUP6 AND SWAP3 SWAP1 SWAP2 AND SWAP2 SWAP1 SWAP2 OR SWAP1 SSTORE PUSH8 0xDE0B6B3A7640000 PUSH1 0x74 SSTORE PUSH1 0x32 PUSH1 0x72 SSTORE DUP1 ISZERO PUSH2 0x15F3 JUMPI PUSH1 0x0 DUP1 SLOAD PUSH2 0xFF00 NOT AND SWAP1 SSTORE JUMPDEST POP POP POP POP POP JUMP JUMPDEST PUSH1 0x0 PUSH2 0x1604 PUSH2 0x177E JUMP JUMPDEST PUSH1 0x1 PUSH1 0x1 PUSH1 0xA0 SHL SUB AND PUSH2 0x1615 PUSH2 0xC5D JUMP JUMPDEST PUSH1 0x1 PUSH1 0x1 PUSH1 0xA0 SHL SUB AND EQ PUSH2 0x163B JUMPI PUSH1 0x40 MLOAD PUSH3 0x461BCD PUSH1 0xE5 SHL DUP2 MSTORE PUSH1 0x4 ADD PUSH2 0x62F SWAP1 PUSH2 0x2F44 JUMP JUMPDEST PUSH1 0x40 MLOAD DUP1 PUSH2 0x160 ADD PUSH1 0x40 MSTORE DUP1 DUP14 PUSH1 0x1 PUSH1 0x1 PUSH1 0xA0 SHL SUB AND DUP2 MSTORE PUSH1 0x20 ADD DUP13 DUP2 MSTORE PUSH1 0x20 ADD DUP12 DUP2 MSTORE PUSH1 0x20 ADD DUP11 DUP2 MSTORE PUSH1 0x20 ADD DUP10 DUP2 MSTORE PUSH1 0x20 ADD DUP9 DUP2 MSTORE PUSH1 0x20 ADD DUP8 DUP2 MSTORE PUSH1 0x20 ADD DUP7 DUP2 MSTORE PUSH1 0x20 ADD DUP6 DUP2 MSTORE PUSH1 0x20 ADD DUP5 DUP2 MSTORE PUSH1 0x20 ADD DUP4 DUP2 MSTORE POP PUSH1 0x6A PUSH1 0x0 DUP16 DUP2 MSTORE PUSH1 0x20 ADD SWAP1 DUP2 MSTORE PUSH1 0x20 ADD PUSH1 0x0 KECCAK256 PUSH1 0x0 DUP3 ADD MLOAD DUP2 PUSH1 0x0 ADD PUSH1 0x0 PUSH2 0x100 EXP DUP2 SLOAD DUP2 PUSH1 0x1 PUSH1 0x1 PUSH1 0xA0 SHL SUB MUL NOT AND SWAP1 DUP4 PUSH1 0x1 PUSH1 0x1 PUSH1 0xA0 SHL SUB AND MUL OR SWAP1 SSTORE POP PUSH1 0x20 DUP3 ADD MLOAD DUP2 PUSH1 0x1 ADD SSTORE PUSH1 0x40 DUP3 ADD MLOAD DUP2 PUSH1 0x2 ADD SWAP1 DUP1 MLOAD SWAP1 PUSH1 0x20 ADD SWAP1 PUSH2 0x16F6 SWAP3 SWAP2 SWAP1 PUSH2 0x2573 JUMP JUMPDEST POP PUSH1 0x60 DUP3 ADD MLOAD PUSH1 0x3 DUP3 ADD SSTORE PUSH1 0x80 DUP3 ADD MLOAD PUSH1 0x4 DUP3 ADD SSTORE PUSH1 0xA0 DUP3 ADD MLOAD PUSH1 0x5 DUP3 ADD SSTORE PUSH1 0xC0 DUP3 ADD MLOAD PUSH1 0x6 DUP3 ADD SSTORE PUSH1 0xE0 DUP3 ADD MLOAD PUSH1 0x7 DUP3 ADD SSTORE PUSH2 0x100 DUP3 ADD MLOAD PUSH1 0x8 DUP3 ADD SSTORE PUSH2 0x120 DUP3 ADD MLOAD PUSH1 0x9 DUP3 ADD SSTORE PUSH2 0x140 SWAP1 SWAP2 ADD MLOAD PUSH1 0xA SWAP1 SWAP2 ADD SSTORE POP PUSH1 0x1 SWAP13 SWAP12 POP POP POP POP POP POP POP POP POP POP POP POP JUMP JUMPDEST PUSH1 0x0 PUSH2 0x176B DUP3 DUP5 PUSH2 0x3196 JUMP JUMPDEST SWAP4 SWAP3 POP POP POP JUMP JUMPDEST PUSH1 0x0 PUSH2 0x176B DUP3 DUP5 PUSH2 0x31B5 JUMP JUMPDEST CALLER SWAP1 JUMP JUMPDEST PUSH1 0x0 DUP4 DUP2 MSTORE PUSH1 0x6A PUSH1 0x20 MSTORE PUSH1 0x40 DUP2 KECCAK256 PUSH1 0x4 DUP2 ADD SLOAD DUP3 SWAP1 DUP2 SWAP1 DUP2 SWAP1 PUSH1 0x1 EQ ISZERO PUSH2 0x1839 JUMPI DUP4 PUSH1 0x5 ADD SLOAD DUP8 LT ISZERO PUSH2 0x1834 JUMPI PUSH1 0x5 DUP5 ADD SLOAD PUSH2 0x17BE SWAP1 DUP9 PUSH2 0x1772 JUMP JUMPDEST SWAP3 POP PUSH2 0x17E3 PUSH8 0xDE0B6B3A7640000 PUSH2 0xE15 DUP7 PUSH1 0x9 ADD SLOAD DUP7 PUSH2 0x175F SWAP1 SWAP2 SWAP1 PUSH4 0xFFFFFFFF AND JUMP JUMPDEST SWAP2 POP PUSH2 0x1814 PUSH8 0xDE0B6B3A7640000 PUSH2 0xE15 PUSH1 0x73 SLOAD PUSH2 0xE15 PUSH1 0x72 SLOAD PUSH2 0xE0F DUP14 DUP12 PUSH1 0x9 ADD SLOAD PUSH2 0x175F SWAP1 SWAP2 SWAP1 PUSH4 0xFFFFFFFF AND JUMP JUMPDEST SWAP1 POP PUSH2 0x1820 DUP2 DUP4 PUSH2 0x315E JUMP JUMPDEST DUP7 LT ISZERO PUSH2 0x1834 JUMPI PUSH1 0x0 SWAP5 POP POP POP POP POP PUSH2 0x176B JUMP JUMPDEST PUSH2 0x18CB JUMP JUMPDEST DUP4 PUSH1 0x5 ADD SLOAD DUP8 GT ISZERO PUSH2 0x18CB JUMPI PUSH1 0x5 DUP5 ADD SLOAD PUSH2 0x1855 SWAP1 DUP9 SWAP1 PUSH2 0x1772 JUMP JUMPDEST SWAP3 POP PUSH2 0x187A PUSH8 0xDE0B6B3A7640000 PUSH2 0xE15 DUP7 PUSH1 0x9 ADD SLOAD DUP7 PUSH2 0x175F SWAP1 SWAP2 SWAP1 PUSH4 0xFFFFFFFF AND JUMP JUMPDEST SWAP2 POP PUSH2 0x18AB PUSH8 0xDE0B6B3A7640000 PUSH2 0xE15 PUSH1 0x73 SLOAD PUSH2 0xE15 PUSH1 0x72 SLOAD PUSH2 0xE0F DUP14 DUP12 PUSH1 0x9 ADD SLOAD PUSH2 0x175F SWAP1 SWAP2 SWAP1 PUSH4 0xFFFFFFFF AND JUMP JUMPDEST SWAP1 POP PUSH2 0x18B7 DUP2 DUP4 PUSH2 0x315E JUMP JUMPDEST DUP7 LT ISZERO PUSH2 0x18CB JUMPI PUSH1 0x0 SWAP5 POP POP POP POP POP PUSH2 0x176B JUMP JUMPDEST POP PUSH1 0x1 SWAP8 SWAP7 POP POP POP POP POP POP POP JUMP JUMPDEST DUP7 SLOAD PUSH1 0x0 SWAP1 PUSH1 0x1 PUSH1 0x1 PUSH1 0xA0 SHL SUB AND PUSH2 0x1903 JUMPI PUSH1 0x40 MLOAD PUSH3 0x461BCD PUSH1 0xE5 SHL DUP2 MSTORE PUSH1 0x4 ADD PUSH2 0x62F SWAP1 PUSH2 0x2D3F JUMP JUMPDEST PUSH1 0x2 DUP9 PUSH1 0x3 ADD SLOAD LT PUSH2 0x1927 JUMPI PUSH1 0x40 MLOAD PUSH3 0x461BCD PUSH1 0xE5 SHL DUP2 MSTORE PUSH1 0x4 ADD PUSH2 0x62F SWAP1 PUSH2 0x2FF6 JUMP JUMPDEST PUSH1 0x69 SLOAD PUSH1 0x40 MLOAD PUSH4 0x11CDC9D9 PUSH1 0xE1 SHL DUP2 MSTORE PUSH1 0x1 PUSH1 0x1 PUSH1 0xA0 SHL SUB SWAP1 SWAP2 AND SWAP1 PUSH4 0x239B93B2 SWAP1 PUSH2 0x195F SWAP1 DUP13 SWAP1 DUP8 SWAP1 DUP11 SWAP1 DUP11 SWAP1 DUP10 SWAP1 PUSH1 0x4 ADD PUSH2 0x2CF3 JUMP JUMPDEST PUSH1 0x20 PUSH1 0x40 MLOAD DUP1 DUP4 SUB DUP2 DUP7 DUP1 EXTCODESIZE ISZERO DUP1 ISZERO PUSH2 0x1977 JUMPI PUSH1 0x0 DUP1 REVERT JUMPDEST POP GAS STATICCALL ISZERO DUP1 ISZERO PUSH2 0x198B JUMPI RETURNDATASIZE PUSH1 0x0 DUP1 RETURNDATACOPY RETURNDATASIZE PUSH1 0x0 REVERT JUMPDEST POP POP POP POP PUSH1 0x40 MLOAD RETURNDATASIZE PUSH1 0x1F NOT PUSH1 0x1F DUP3 ADD AND DUP3 ADD DUP1 PUSH1 0x40 MSTORE POP DUP2 ADD SWAP1 PUSH2 0x19AF SWAP2 SWAP1 PUSH2 0x2862 JUMP JUMPDEST PUSH2 0x19CB JUMPI PUSH1 0x40 MLOAD PUSH3 0x461BCD PUSH1 0xE5 SHL DUP2 MSTORE PUSH1 0x4 ADD PUSH2 0x62F SWAP1 PUSH2 0x2DDB JUMP JUMPDEST DUP3 DUP9 PUSH1 0x7 ADD DUP2 SWAP1 SSTORE POP PUSH1 0x0 DUP1 PUSH1 0x0 DUP11 PUSH1 0x4 ADD SLOAD PUSH1 0x1 EQ ISZERO PUSH2 0x1D16 JUMPI DUP11 PUSH1 0x5 ADD SLOAD DUP12 PUSH1 0x7 ADD SLOAD GT ISZERO PUSH2 0x1B82 JUMPI PUSH1 0x5 DUP12 ADD SLOAD PUSH1 0x7 DUP13 ADD SLOAD PUSH2 0x1A09 SWAP2 PUSH2 0x1772 JUMP JUMPDEST SWAP3 POP PUSH2 0x1A2E PUSH8 0xDE0B6B3A7640000 PUSH2 0xE15 DUP14 PUSH1 0x9 ADD SLOAD DUP7 PUSH2 0x175F SWAP1 SWAP2 SWAP1 PUSH4 0xFFFFFFFF AND JUMP JUMPDEST PUSH1 0xA DUP13 ADD SLOAD SWAP1 SWAP3 POP PUSH2 0x1A40 SWAP1 DUP4 PUSH2 0x2099 JUMP JUMPDEST SWAP1 POP PUSH1 0x0 PUSH2 0x1A5F PUSH1 0x73 SLOAD PUSH2 0xE15 PUSH1 0x72 SLOAD DUP6 PUSH2 0x175F SWAP1 SWAP2 SWAP1 PUSH4 0xFFFFFFFF AND JUMP JUMPDEST PUSH1 0x67 SLOAD PUSH1 0x68 SLOAD PUSH1 0x40 MLOAD PUSH4 0x40C10F19 PUSH1 0xE0 SHL DUP2 MSTORE SWAP3 SWAP4 POP PUSH1 0x1 PUSH1 0x1 PUSH1 0xA0 SHL SUB SWAP2 DUP3 AND SWAP3 PUSH4 0x40C10F19 SWAP3 PUSH2 0x1A97 SWAP3 AND SWAP1 DUP6 SWAP1 PUSH1 0x4 ADD PUSH2 0x2C8B JUMP JUMPDEST PUSH1 0x20 PUSH1 0x40 MLOAD DUP1 DUP4 SUB DUP2 PUSH1 0x0 DUP8 DUP1 EXTCODESIZE ISZERO DUP1 ISZERO PUSH2 0x1AB1 JUMPI PUSH1 0x0 DUP1 REVERT JUMPDEST POP GAS CALL ISZERO DUP1 ISZERO PUSH2 0x1AC5 JUMPI RETURNDATASIZE PUSH1 0x0 DUP1 RETURNDATACOPY RETURNDATASIZE PUSH1 0x0 REVERT JUMPDEST POP POP POP POP PUSH1 0x40 MLOAD RETURNDATASIZE PUSH1 0x1F NOT PUSH1 0x1F DUP3 ADD AND DUP3 ADD DUP1 PUSH1 0x40 MSTORE POP DUP2 ADD SWAP1 PUSH2 0x1AE9 SWAP2 SWAP1 PUSH2 0x2862 JUMP JUMPDEST POP PUSH1 0x67 SLOAD DUP13 SLOAD PUSH1 0x1 PUSH1 0x1 PUSH1 0xA0 SHL SUB SWAP2 DUP3 AND SWAP2 PUSH4 0x40C10F19 SWAP2 AND PUSH2 0x1B0C DUP6 DUP6 PUSH2 0x1772 JUMP JUMPDEST PUSH1 0x40 MLOAD DUP4 PUSH4 0xFFFFFFFF AND PUSH1 0xE0 SHL DUP2 MSTORE PUSH1 0x4 ADD PUSH2 0x1B29 SWAP3 SWAP2 SWAP1 PUSH2 0x2C8B JUMP JUMPDEST PUSH1 0x20 PUSH1 0x40 MLOAD DUP1 DUP4 SUB DUP2 PUSH1 0x0 DUP8 DUP1 EXTCODESIZE ISZERO DUP1 ISZERO PUSH2 0x1B43 JUMPI PUSH1 0x0 DUP1 REVERT JUMPDEST POP GAS CALL ISZERO DUP1 ISZERO PUSH2 0x1B57 JUMPI RETURNDATASIZE PUSH1 0x0 DUP1 RETURNDATACOPY RETURNDATASIZE PUSH1 0x0 REVERT JUMPDEST POP POP POP POP PUSH1 0x40 MLOAD RETURNDATASIZE PUSH1 0x1F NOT PUSH1 0x1F DUP3 ADD AND DUP3 ADD DUP1 PUSH1 0x40 MSTORE POP DUP2 ADD SWAP1 PUSH2 0x1B7B SWAP2 SWAP1 PUSH2 0x2862 JUMP JUMPDEST POP POP PUSH2 0x1D11 JUMP JUMPDEST PUSH1 0x7 DUP12 ADD SLOAD PUSH1 0x5 DUP13 ADD SLOAD PUSH2 0x1B95 SWAP2 PUSH2 0x1772 JUMP JUMPDEST SWAP3 POP PUSH2 0x1BAE DUP12 PUSH1 0x9 ADD SLOAD DUP5 PUSH2 0x175F SWAP1 SWAP2 SWAP1 PUSH4 0xFFFFFFFF AND JUMP JUMPDEST SWAP2 POP DUP11 PUSH1 0xA ADD SLOAD DUP3 GT ISZERO PUSH2 0x1BC4 JUMPI POP PUSH1 0x0 PUSH2 0x1D11 JUMP JUMPDEST PUSH1 0xA DUP12 ADD SLOAD PUSH2 0x1BD3 SWAP1 DUP4 PUSH2 0x1772 JUMP JUMPDEST SWAP1 POP PUSH1 0x0 PUSH2 0x1BF2 PUSH1 0x73 SLOAD PUSH2 0xE15 PUSH1 0x72 SLOAD DUP6 PUSH2 0x175F SWAP1 SWAP2 SWAP1 PUSH4 0xFFFFFFFF AND JUMP JUMPDEST PUSH1 0x67 SLOAD PUSH1 0x68 SLOAD PUSH1 0x40 MLOAD PUSH4 0x40C10F19 PUSH1 0xE0 SHL DUP2 MSTORE SWAP3 SWAP4 POP PUSH1 0x1 PUSH1 0x1 PUSH1 0xA0 SHL SUB SWAP2 DUP3 AND SWAP3 PUSH4 0x40C10F19 SWAP3 PUSH2 0x1C2A SWAP3 AND SWAP1 DUP6 SWAP1 PUSH1 0x4 ADD PUSH2 0x2C8B JUMP JUMPDEST PUSH1 0x20 PUSH1 0x40 MLOAD DUP1 DUP4 SUB DUP2 PUSH1 0x0 DUP8 DUP1 EXTCODESIZE ISZERO DUP1 ISZERO PUSH2 0x1C44 JUMPI PUSH1 0x0 DUP1 REVERT JUMPDEST POP GAS CALL ISZERO DUP1 ISZERO PUSH2 0x1C58 JUMPI RETURNDATASIZE PUSH1 0x0 DUP1 RETURNDATACOPY RETURNDATASIZE PUSH1 0x0 REVERT JUMPDEST POP POP POP POP PUSH1 0x40 MLOAD RETURNDATASIZE PUSH1 0x1F NOT PUSH1 0x1F DUP3 ADD AND DUP3 ADD DUP1 PUSH1 0x40 MSTORE POP DUP2 ADD SWAP1 PUSH2 0x1C7C SWAP2 SWAP1 PUSH2 0x2862 JUMP JUMPDEST POP PUSH1 0x67 SLOAD DUP13 SLOAD PUSH1 0x1 PUSH1 0x1 PUSH1 0xA0 SHL SUB SWAP2 DUP3 AND SWAP2 PUSH4 0x40C10F19 SWAP2 AND PUSH2 0x1C9F DUP6 DUP6 PUSH2 0x1772 JUMP JUMPDEST PUSH1 0x40 MLOAD DUP4 PUSH4 0xFFFFFFFF AND PUSH1 0xE0 SHL DUP2 MSTORE PUSH1 0x4 ADD PUSH2 0x1CBC SWAP3 SWAP2 SWAP1 PUSH2 0x2C8B JUMP JUMPDEST PUSH1 0x20 PUSH1 0x40 MLOAD DUP1 DUP4 SUB DUP2 PUSH1 0x0 DUP8 DUP1 EXTCODESIZE ISZERO DUP1 ISZERO PUSH2 0x1CD6 JUMPI PUSH1 0x0 DUP1 REVERT JUMPDEST POP GAS CALL ISZERO DUP1 ISZERO PUSH2 0x1CEA JUMPI RETURNDATASIZE PUSH1 0x0 DUP1 RETURNDATACOPY RETURNDATASIZE PUSH1 0x0 REVERT JUMPDEST POP POP POP POP PUSH1 0x40 MLOAD RETURNDATASIZE PUSH1 0x1F NOT PUSH1 0x1F DUP3 ADD AND DUP3 ADD DUP1 PUSH1 0x40 MSTORE POP DUP2 ADD SWAP1 PUSH2 0x1D0E SWAP2 SWAP1 PUSH2 0x2862 JUMP JUMPDEST POP POP JUMPDEST PUSH2 0x1F0B JUMP JUMPDEST DUP11 PUSH1 0x5 ADD SLOAD DUP12 PUSH1 0x7 ADD SLOAD LT ISZERO PUSH2 0x1D70 JUMPI PUSH1 0x7 DUP12 ADD SLOAD PUSH1 0x5 DUP13 ADD SLOAD PUSH2 0x1D39 SWAP2 PUSH2 0x1772 JUMP JUMPDEST SWAP3 POP PUSH2 0x1D5E PUSH8 0xDE0B6B3A7640000 PUSH2 0xE15 DUP14 PUSH1 0x9 ADD SLOAD DUP7 PUSH2 0x175F SWAP1 SWAP2 SWAP1 PUSH4 0xFFFFFFFF AND JUMP JUMPDEST PUSH1 0xA DUP13 ADD SLOAD SWAP1 SWAP3 POP PUSH2 0x1BD3 SWAP1 DUP4 PUSH2 0x2099 JUMP JUMPDEST PUSH1 0x5 DUP12 ADD SLOAD PUSH1 0x7 DUP13 ADD SLOAD PUSH2 0x1D83 SWAP2 PUSH2 0x1772 JUMP JUMPDEST SWAP3 POP PUSH2 0x1DA8 PUSH8 0xDE0B6B3A7640000 PUSH2 0xE15 DUP14 PUSH1 0x9 ADD SLOAD DUP7 PUSH2 0x175F SWAP1 SWAP2 SWAP1 PUSH4 0xFFFFFFFF AND JUMP JUMPDEST SWAP2 POP DUP11 PUSH1 0xA ADD SLOAD DUP3 GT ISZERO PUSH2 0x1DBE JUMPI POP PUSH1 0x0 PUSH2 0x1F0B JUMP JUMPDEST PUSH1 0xA DUP12 ADD SLOAD PUSH2 0x1DCD SWAP1 DUP4 PUSH2 0x1772 JUMP JUMPDEST SWAP1 POP PUSH1 0x0 PUSH2 0x1DEC PUSH1 0x73 SLOAD PUSH2 0xE15 PUSH1 0x72 SLOAD DUP6 PUSH2 0x175F SWAP1 SWAP2 SWAP1 PUSH4 0xFFFFFFFF AND JUMP JUMPDEST PUSH1 0x67 SLOAD PUSH1 0x68 SLOAD PUSH1 0x40 MLOAD PUSH4 0x40C10F19 PUSH1 0xE0 SHL DUP2 MSTORE SWAP3 SWAP4 POP PUSH1 0x1 PUSH1 0x1 PUSH1 0xA0 SHL SUB SWAP2 DUP3 AND SWAP3 PUSH4 0x40C10F19 SWAP3 PUSH2 0x1E24 SWAP3 AND SWAP1 DUP6 SWAP1 PUSH1 0x4 ADD PUSH2 0x2C8B JUMP JUMPDEST PUSH1 0x20 PUSH1 0x40 MLOAD DUP1 DUP4 SUB DUP2 PUSH1 0x0 DUP8 DUP1 EXTCODESIZE ISZERO DUP1 ISZERO PUSH2 0x1E3E JUMPI PUSH1 0x0 DUP1 REVERT JUMPDEST POP GAS CALL ISZERO DUP1 ISZERO PUSH2 0x1E52 JUMPI RETURNDATASIZE PUSH1 0x0 DUP1 RETURNDATACOPY RETURNDATASIZE PUSH1 0x0 REVERT JUMPDEST POP POP POP POP PUSH1 0x40 MLOAD RETURNDATASIZE PUSH1 0x1F NOT PUSH1 0x1F DUP3 ADD AND DUP3 ADD DUP1 PUSH1 0x40 MSTORE POP DUP2 ADD SWAP1 PUSH2 0x1E76 SWAP2 SWAP1 PUSH2 0x2862 JUMP JUMPDEST POP PUSH1 0x67 SLOAD DUP13 SLOAD PUSH1 0x1 PUSH1 0x1 PUSH1 0xA0 SHL SUB SWAP2 DUP3 AND SWAP2 PUSH4 0x40C10F19 SWAP2 AND PUSH2 0x1E99 DUP6 DUP6 PUSH2 0x1772 JUMP JUMPDEST PUSH1 0x40 MLOAD DUP4 PUSH4 0xFFFFFFFF AND PUSH1 0xE0 SHL DUP2 MSTORE PUSH1 0x4 ADD PUSH2 0x1EB6 SWAP3 SWAP2 SWAP1 PUSH2 0x2C8B JUMP JUMPDEST PUSH1 0x20 PUSH1 0x40 MLOAD DUP1 DUP4 SUB DUP2 PUSH1 0x0 DUP8 DUP1 EXTCODESIZE ISZERO DUP1 ISZERO PUSH2 0x1ED0 JUMPI PUSH1 0x0 DUP1 REVERT JUMPDEST POP GAS CALL ISZERO DUP1 ISZERO PUSH2 0x1EE4 JUMPI RETURNDATASIZE PUSH1 0x0 DUP1 RETURNDATACOPY RETURNDATASIZE PUSH1 0x0 REVERT JUMPDEST POP POP POP POP PUSH1 0x40 MLOAD RETURNDATASIZE PUSH1 0x1F NOT PUSH1 0x1F DUP3 ADD AND DUP3 ADD DUP1 PUSH1 0x40 MSTORE POP DUP2 ADD SWAP1 PUSH2 0x1F08 SWAP2 SWAP1 PUSH2 0x2862 JUMP JUMPDEST POP POP JUMPDEST PUSH1 0x68 PUSH1 0x0 SWAP1 SLOAD SWAP1 PUSH2 0x100 EXP SWAP1 DIV PUSH1 0x1 PUSH1 0x1 PUSH1 0xA0 SHL SUB AND PUSH1 0x1 PUSH1 0x1 PUSH1 0xA0 SHL SUB AND PUSH4 0xD10C06A2 PUSH1 0x40 MLOAD DUP2 PUSH4 0xFFFFFFFF AND PUSH1 0xE0 SHL DUP2 MSTORE PUSH1 0x4 ADD PUSH1 0x20 PUSH1 0x40 MLOAD DUP1 DUP4 SUB DUP2 PUSH1 0x0 DUP8 DUP1 EXTCODESIZE ISZERO DUP1 ISZERO PUSH2 0x1F5B JUMPI PUSH1 0x0 DUP1 REVERT JUMPDEST POP GAS CALL ISZERO DUP1 ISZERO PUSH2 0x1F6F JUMPI RETURNDATASIZE PUSH1 0x0 DUP1 RETURNDATACOPY RETURNDATASIZE PUSH1 0x0 REVERT JUMPDEST POP POP POP POP PUSH1 0x40 MLOAD RETURNDATASIZE PUSH1 0x1F NOT PUSH1 0x1F DUP3 ADD AND DUP3 ADD DUP1 PUSH1 0x40 MSTORE POP DUP2 ADD SWAP1 PUSH2 0x1F93 SWAP2 SWAP1 PUSH2 0x2862 JUMP JUMPDEST POP PUSH1 0x3 DUP12 ADD DUP11 SWAP1 SSTORE PUSH1 0x7 DUP12 ADD DUP7 SWAP1 SSTORE PUSH1 0x8 DUP12 ADD DUP9 SWAP1 SSTORE PUSH2 0x1FB6 DUP10 PUSH1 0x6D PUSH1 0x6C PUSH2 0x21AB JUMP JUMPDEST CALLER PUSH1 0x0 SWAP1 DUP2 MSTORE PUSH1 0x6F PUSH1 0x20 SWAP1 DUP2 MSTORE PUSH1 0x40 DUP1 DUP4 KECCAK256 PUSH1 0x6E SWAP1 SWAP3 MSTORE SWAP1 SWAP2 KECCAK256 PUSH2 0x1FDB SWAP2 DUP12 SWAP2 PUSH2 0x21AB JUMP JUMPDEST CALLER PUSH1 0x0 DUP2 DUP2 MSTORE PUSH1 0x70 PUSH1 0x20 SWAP1 DUP2 MSTORE PUSH1 0x40 DUP3 KECCAK256 DUP1 SLOAD PUSH1 0x1 DUP2 DUP2 ADD DUP4 SSTORE SWAP2 DUP5 MSTORE SWAP2 SWAP1 SWAP3 KECCAK256 ADD DUP12 SWAP1 SSTORE PUSH2 0x200D SWAP2 PUSH2 0x589 SWAP1 PUSH2 0xFDE JUMP JUMPDEST CALLER PUSH1 0x0 SWAP1 DUP2 MSTORE PUSH1 0x71 PUSH1 0x20 SWAP1 DUP2 MSTORE PUSH1 0x40 DUP1 DUP4 KECCAK256 DUP14 DUP5 MSTORE SWAP1 SWAP2 MSTORE SWAP1 KECCAK256 SSTORE POP PUSH1 0x1 SWAP3 POP POP POP SWAP9 SWAP8 POP POP POP POP POP POP POP POP JUMP JUMPDEST PUSH1 0x33 DUP1 SLOAD PUSH1 0x1 PUSH1 0x1 PUSH1 0xA0 SHL SUB DUP4 DUP2 AND PUSH1 0x1 PUSH1 0x1 PUSH1 0xA0 SHL SUB NOT DUP4 AND DUP2 OR SWAP1 SWAP4 SSTORE PUSH1 0x40 MLOAD SWAP2 AND SWAP2 SWAP1 DUP3 SWAP1 PUSH32 0x8BE0079C531659141344CD1FD0A4F28419497F9722A3DAAFE3B4186F6B6457E0 SWAP1 PUSH1 0x0 SWAP1 LOG3 POP POP JUMP JUMPDEST PUSH1 0x0 PUSH2 0x176B DUP3 DUP5 PUSH2 0x3176 JUMP JUMPDEST PUSH1 0x0 PUSH2 0x176B DUP3 DUP5 PUSH2 0x315E JUMP JUMPDEST PUSH2 0x20FD DUP5 PUSH4 0x23B872DD PUSH1 0xE0 SHL DUP6 DUP6 DUP6 PUSH1 0x40 MLOAD PUSH1 0x24 ADD PUSH2 0x20C6 SWAP4 SWAP3 SWAP2 SWAP1 PUSH2 0x2C67 JUMP JUMPDEST PUSH1 0x40 DUP1 MLOAD PUSH1 0x1F NOT DUP2 DUP5 SUB ADD DUP2 MSTORE SWAP2 SWAP1 MSTORE PUSH1 0x20 DUP2 ADD DUP1 MLOAD PUSH1 0x1 PUSH1 0x1 PUSH1 0xE0 SHL SUB AND PUSH1 0x1 PUSH1 0x1 PUSH1 0xE0 SHL SUB NOT SWAP1 SWAP4 AND SWAP3 SWAP1 SWAP3 OR SWAP1 SWAP2 MSTORE PUSH2 0x2288 JUMP JUMPDEST POP POP POP POP JUMP JUMPDEST PUSH2 0x2122 DUP4 PUSH4 0xA9059CBB PUSH1 0xE0 SHL DUP5 DUP5 PUSH1 0x40 MLOAD PUSH1 0x24 ADD PUSH2 0x20C6 SWAP3 SWAP2 SWAP1 PUSH2 0x2C8B JUMP JUMPDEST POP POP POP JUMP JUMPDEST PUSH1 0x0 SLOAD PUSH2 0x100 SWAP1 DIV PUSH1 0xFF AND DUP1 PUSH2 0x2140 JUMPI POP PUSH1 0x0 SLOAD PUSH1 0xFF AND ISZERO JUMPDEST PUSH2 0x215C JUMPI PUSH1 0x40 MLOAD PUSH3 0x461BCD PUSH1 0xE5 SHL DUP2 MSTORE PUSH1 0x4 ADD PUSH2 0x62F SWAP1 PUSH2 0x2E89 JUMP JUMPDEST PUSH1 0x0 SLOAD PUSH2 0x100 SWAP1 DIV PUSH1 0xFF AND ISZERO DUP1 ISZERO PUSH2 0x2187 JUMPI PUSH1 0x0 DUP1 SLOAD PUSH1 0xFF NOT PUSH2 0xFF00 NOT SWAP1 SWAP2 AND PUSH2 0x100 OR AND PUSH1 0x1 OR SWAP1 SSTORE JUMPDEST PUSH2 0x218F PUSH2 0x2317 JUMP JUMPDEST PUSH2 0x2197 PUSH2 0x238A JUMP JUMPDEST DUP1 ISZERO PUSH2 0x150F JUMPI PUSH1 0x0 DUP1 SLOAD PUSH2 0xFF00 NOT AND SWAP1 SSTORE POP JUMP JUMPDEST PUSH1 0x0 DUP4 DUP2 MSTORE PUSH1 0x20 DUP4 SWAP1 MSTORE PUSH1 0x40 DUP2 KECCAK256 SLOAD DUP3 SLOAD SWAP1 SWAP2 SWAP1 DUP4 SWAP1 PUSH2 0x21CC SWAP1 PUSH1 0x1 PUSH2 0x1772 JUMP JUMPDEST DUP2 SLOAD DUP2 LT PUSH2 0x21EA JUMPI PUSH4 0x4E487B71 PUSH1 0xE0 SHL PUSH1 0x0 MSTORE PUSH1 0x32 PUSH1 0x4 MSTORE PUSH1 0x24 PUSH1 0x0 REVERT JUMPDEST SWAP1 PUSH1 0x0 MSTORE PUSH1 0x20 PUSH1 0x0 KECCAK256 ADD SLOAD SWAP1 POP DUP2 DUP5 PUSH1 0x0 DUP4 DUP2 MSTORE PUSH1 0x20 ADD SWAP1 DUP2 MSTORE PUSH1 0x20 ADD PUSH1 0x0 KECCAK256 DUP2 SWAP1 SSTORE POP DUP1 DUP4 DUP4 DUP2 SLOAD DUP2 LT PUSH2 0x222F JUMPI PUSH4 0x4E487B71 PUSH1 0xE0 SHL PUSH1 0x0 MSTORE PUSH1 0x32 PUSH1 0x4 MSTORE PUSH1 0x24 PUSH1 0x0 REVERT JUMPDEST PUSH1 0x0 SWAP2 DUP3 MSTORE PUSH1 0x20 DUP1 DUP4 KECCAK256 SWAP1 SWAP2 ADD SWAP3 SWAP1 SWAP3 SSTORE DUP7 DUP2 MSTORE SWAP1 DUP6 SWAP1 MSTORE PUSH1 0x40 DUP2 KECCAK256 SSTORE DUP3 SLOAD DUP4 SWAP1 DUP1 PUSH2 0x226B JUMPI PUSH4 0x4E487B71 PUSH1 0xE0 SHL PUSH1 0x0 MSTORE PUSH1 0x31 PUSH1 0x4 MSTORE PUSH1 0x24 PUSH1 0x0 REVERT JUMPDEST PUSH1 0x1 SWAP1 SUB DUP2 DUP2 SWAP1 PUSH1 0x0 MSTORE PUSH1 0x20 PUSH1 0x0 KECCAK256 ADD PUSH1 0x0 SWAP1 SSTORE SWAP1 SSTORE POP POP POP POP POP JUMP JUMPDEST PUSH1 0x0 PUSH2 0x22DD DUP3 PUSH1 0x40 MLOAD DUP1 PUSH1 0x40 ADD PUSH1 0x40 MSTORE DUP1 PUSH1 0x20 DUP2 MSTORE PUSH1 0x20 ADD PUSH32 0x5361666545524332303A206C6F772D6C6576656C2063616C6C206661696C6564 DUP2 MSTORE POP DUP6 PUSH1 0x1 PUSH1 0x1 PUSH1 0xA0 SHL SUB AND PUSH2 0x23FA SWAP1 SWAP3 SWAP2 SWAP1 PUSH4 0xFFFFFFFF AND JUMP JUMPDEST DUP1 MLOAD SWAP1 SWAP2 POP ISZERO PUSH2 0x2122 JUMPI DUP1 DUP1 PUSH1 0x20 ADD SWAP1 MLOAD DUP2 ADD SWAP1 PUSH2 0x22FB SWAP2 SWAP1 PUSH2 0x2862 JUMP JUMPDEST PUSH2 0x2122 JUMPI PUSH1 0x40 MLOAD PUSH3 0x461BCD PUSH1 0xE5 SHL DUP2 MSTORE PUSH1 0x4 ADD PUSH2 0x62F SWAP1 PUSH2 0x3019 JUMP JUMPDEST PUSH1 0x0 SLOAD PUSH2 0x100 SWAP1 DIV PUSH1 0xFF AND DUP1 PUSH2 0x2330 JUMPI POP PUSH1 0x0 SLOAD PUSH1 0xFF AND ISZERO JUMPDEST PUSH2 0x234C JUMPI PUSH1 0x40 MLOAD PUSH3 0x461BCD PUSH1 0xE5 SHL DUP2 MSTORE PUSH1 0x4 ADD PUSH2 0x62F SWAP1 PUSH2 0x2E89 JUMP JUMPDEST PUSH1 0x0 SLOAD PUSH2 0x100 SWAP1 DIV PUSH1 0xFF AND ISZERO DUP1 ISZERO PUSH2 0x2197 JUMPI PUSH1 0x0 DUP1 SLOAD PUSH1 0xFF NOT PUSH2 0xFF00 NOT SWAP1 SWAP2 AND PUSH2 0x100 OR AND PUSH1 0x1 OR SWAP1 SSTORE DUP1 ISZERO PUSH2 0x150F JUMPI PUSH1 0x0 DUP1 SLOAD PUSH2 0xFF00 NOT AND SWAP1 SSTORE POP JUMP JUMPDEST PUSH1 0x0 SLOAD PUSH2 0x100 SWAP1 DIV PUSH1 0xFF AND DUP1 PUSH2 0x23A3 JUMPI POP PUSH1 0x0 SLOAD PUSH1 0xFF AND ISZERO JUMPDEST PUSH2 0x23BF JUMPI PUSH1 0x40 MLOAD PUSH3 0x461BCD PUSH1 0xE5 SHL DUP2 MSTORE PUSH1 0x4 ADD PUSH2 0x62F SWAP1 PUSH2 0x2E89 JUMP JUMPDEST PUSH1 0x0 SLOAD PUSH2 0x100 SWAP1 DIV PUSH1 0xFF AND ISZERO DUP1 ISZERO PUSH2 0x23EA JUMPI PUSH1 0x0 DUP1 SLOAD PUSH1 0xFF NOT PUSH2 0xFF00 NOT SWAP1 SWAP2 AND PUSH2 0x100 OR AND PUSH1 0x1 OR SWAP1 SSTORE JUMPDEST PUSH2 0x2197 PUSH2 0x23F5 PUSH2 0x177E JUMP JUMPDEST PUSH2 0x203B JUMP JUMPDEST PUSH1 0x60 PUSH2 0x2409 DUP5 DUP5 PUSH1 0x0 DUP6 PUSH2 0x2411 JUMP JUMPDEST SWAP5 SWAP4 POP POP POP POP JUMP JUMPDEST PUSH1 0x60 DUP3 SELFBALANCE LT ISZERO PUSH2 0x2433 JUMPI PUSH1 0x40 MLOAD PUSH3 0x461BCD PUSH1 0xE5 SHL DUP2 MSTORE PUSH1 0x4 ADD PUSH2 0x62F SWAP1 PUSH2 0x2E43 JUMP JUMPDEST PUSH2 0x243C DUP6 PUSH2 0x24D1 JUMP JUMPDEST PUSH2 0x2458 JUMPI PUSH1 0x40 MLOAD PUSH3 0x461BCD PUSH1 0xE5 SHL DUP2 MSTORE PUSH1 0x4 ADD PUSH2 0x62F SWAP1 PUSH2 0x2F79 JUMP JUMPDEST PUSH1 0x0 DUP1 DUP7 PUSH1 0x1 PUSH1 0x1 PUSH1 0xA0 SHL SUB AND DUP6 DUP8 PUSH1 0x40 MLOAD PUSH2 0x2474 SWAP2 SWAP1 PUSH2 0x2C37 JUMP JUMPDEST PUSH1 0x0 PUSH1 0x40 MLOAD DUP1 DUP4 SUB DUP2 DUP6 DUP8 GAS CALL SWAP3 POP POP POP RETURNDATASIZE DUP1 PUSH1 0x0 DUP2 EQ PUSH2 0x24B1 JUMPI PUSH1 0x40 MLOAD SWAP2 POP PUSH1 0x1F NOT PUSH1 0x3F RETURNDATASIZE ADD AND DUP3 ADD PUSH1 0x40 MSTORE RETURNDATASIZE DUP3 MSTORE RETURNDATASIZE PUSH1 0x0 PUSH1 0x20 DUP5 ADD RETURNDATACOPY PUSH2 0x24B6 JUMP JUMPDEST PUSH1 0x60 SWAP2 POP JUMPDEST POP SWAP2 POP SWAP2 POP PUSH2 0x24C6 DUP3 DUP3 DUP7 PUSH2 0x24D7 JUMP JUMPDEST SWAP8 SWAP7 POP POP POP POP POP POP POP JUMP JUMPDEST EXTCODESIZE ISZERO ISZERO SWAP1 JUMP JUMPDEST PUSH1 0x60 DUP4 ISZERO PUSH2 0x24E6 JUMPI POP DUP2 PUSH2 0x176B JUMP JUMPDEST DUP3 MLOAD ISZERO PUSH2 0x24F6 JUMPI DUP3 MLOAD DUP1 DUP5 PUSH1 0x20 ADD REVERT JUMPDEST DUP2 PUSH1 0x40 MLOAD PUSH3 0x461BCD PUSH1 0xE5 SHL DUP2 MSTORE PUSH1 0x4 ADD PUSH2 0x62F SWAP2 SWAP1 PUSH2 0x2D2C JUMP JUMPDEST PUSH1 0x40 MLOAD DUP1 PUSH2 0x160 ADD PUSH1 0x40 MSTORE DUP1 PUSH1 0x0 PUSH1 0x1 PUSH1 0x1 PUSH1 0xA0 SHL SUB AND DUP2 MSTORE PUSH1 0x20 ADD PUSH1 0x0 DUP2 MSTORE PUSH1 0x20 ADD PUSH1 0x60 DUP2 MSTORE PUSH1 0x20 ADD PUSH1 0x0 DUP2 MSTORE PUSH1 0x20 ADD PUSH1 0x0 DUP2 MSTORE PUSH1 0x20 ADD PUSH1 0x0 DUP2 MSTORE PUSH1 0x20 ADD PUSH1 0x0 DUP2 MSTORE PUSH1 0x20 ADD PUSH1 0x0 DUP2 MSTORE PUSH1 0x20 ADD PUSH1 0x0 DUP2 MSTORE PUSH1 0x20 ADD PUSH1 0x0 DUP2 MSTORE PUSH1 0x20 ADD PUSH1 0x0 DUP2 MSTORE POP SWAP1 JUMP JUMPDEST DUP3 DUP1 SLOAD PUSH2 0x257F SWAP1 PUSH2 0x31F8 JUMP JUMPDEST SWAP1 PUSH1 0x0 MSTORE PUSH1 0x20 PUSH1 0x0 KECCAK256 SWAP1 PUSH1 0x1F ADD PUSH1 0x20 SWAP1 DIV DUP2 ADD SWAP3 DUP3 PUSH2 0x25A1 JUMPI PUSH1 0x0 DUP6 SSTORE PUSH2 0x25E7 JUMP JUMPDEST DUP3 PUSH1 0x1F LT PUSH2 0x25BA JUMPI DUP1 MLOAD PUSH1 0xFF NOT AND DUP4 DUP1 ADD OR DUP6 SSTORE PUSH2 0x25E7 JUMP JUMPDEST DUP3 DUP1 ADD PUSH1 0x1 ADD DUP6 SSTORE DUP3 ISZERO PUSH2 0x25E7 JUMPI SWAP2 DUP3 ADD JUMPDEST DUP3 DUP2 GT ISZERO PUSH2 0x25E7 JUMPI DUP3 MLOAD DUP3 SSTORE SWAP2 PUSH1 0x20 ADD SWAP2 SWAP1 PUSH1 0x1 ADD SWAP1 PUSH2 0x25CC JUMP JUMPDEST POP PUSH2 0x25F3 SWAP3 SWAP2 POP PUSH2 0x25F7 JUMP JUMPDEST POP SWAP1 JUMP JUMPDEST JUMPDEST DUP1 DUP3 GT ISZERO PUSH2 0x25F3 JUMPI PUSH1 0x0 DUP2 SSTORE PUSH1 0x1 ADD PUSH2 0x25F8 JUMP JUMPDEST DUP1 CALLDATALOAD PUSH2 0xAD7 DUP2 PUSH2 0x327A JUMP JUMPDEST PUSH1 0x0 DUP3 PUSH1 0x1F DUP4 ADD SLT PUSH2 0x2627 JUMPI DUP1 DUP2 REVERT JUMPDEST DUP2 CALLDATALOAD PUSH1 0x20 PUSH2 0x263C PUSH2 0x2637 DUP4 PUSH2 0x313A JUMP JUMPDEST PUSH2 0x3110 JUMP JUMPDEST DUP3 DUP2 MSTORE DUP2 DUP2 ADD SWAP1 DUP6 DUP4 ADD DUP6 JUMPDEST DUP6 DUP2 LT ISZERO PUSH2 0x2671 JUMPI PUSH2 0x265F DUP10 DUP7 DUP5 CALLDATALOAD DUP12 ADD ADD PUSH2 0x26E3 JUMP JUMPDEST DUP5 MSTORE SWAP3 DUP5 ADD SWAP3 SWAP1 DUP5 ADD SWAP1 PUSH1 0x1 ADD PUSH2 0x2648 JUMP JUMPDEST POP SWAP1 SWAP8 SWAP7 POP POP POP POP POP POP POP JUMP JUMPDEST PUSH1 0x0 DUP3 PUSH1 0x1F DUP4 ADD SLT PUSH2 0x268E JUMPI DUP1 DUP2 REVERT JUMPDEST DUP2 CALLDATALOAD PUSH1 0x20 PUSH2 0x269E PUSH2 0x2637 DUP4 PUSH2 0x313A JUMP JUMPDEST DUP3 DUP2 MSTORE DUP2 DUP2 ADD SWAP1 DUP6 DUP4 ADD DUP4 DUP6 MUL DUP8 ADD DUP5 ADD DUP9 LT ISZERO PUSH2 0x26BA JUMPI DUP6 DUP7 REVERT JUMPDEST DUP6 JUMPDEST DUP6 DUP2 LT ISZERO PUSH2 0x2671 JUMPI DUP2 CALLDATALOAD DUP5 MSTORE SWAP3 DUP5 ADD SWAP3 SWAP1 DUP5 ADD SWAP1 PUSH1 0x1 ADD PUSH2 0x26BC JUMP JUMPDEST DUP1 CALLDATALOAD PUSH2 0xAD7 DUP2 PUSH2 0x328F JUMP JUMPDEST PUSH1 0x0 DUP3 PUSH1 0x1F DUP4 ADD SLT PUSH2 0x26F3 JUMPI DUP1 DUP2 REVERT JUMPDEST DUP2 CALLDATALOAD PUSH8 0xFFFFFFFFFFFFFFFF DUP2 GT ISZERO PUSH2 0x270D JUMPI PUSH2 0x270D PUSH2 0x3264 JUMP JUMPDEST PUSH2 0x2720 PUSH1 0x1F DUP3 ADD PUSH1 0x1F NOT AND PUSH1 0x20 ADD PUSH2 0x3110 JUMP JUMPDEST DUP2 DUP2 MSTORE DUP5 PUSH1 0x20 DUP4 DUP7 ADD ADD GT ISZERO PUSH2 0x2734 JUMPI DUP3 DUP4 REVERT JUMPDEST DUP2 PUSH1 0x20 DUP6 ADD PUSH1 0x20 DUP4 ADD CALLDATACOPY SWAP1 DUP2 ADD PUSH1 0x20 ADD SWAP2 SWAP1 SWAP2 MSTORE SWAP3 SWAP2 POP POP JUMP JUMPDEST PUSH1 0x0 PUSH1 0x20 DUP3 DUP5 SUB SLT ISZERO PUSH2 0x275F JUMPI DUP1 DUP2 REVERT JUMPDEST DUP2 CALLDATALOAD PUSH2 0x176B DUP2 PUSH2 0x327A JUMP JUMPDEST PUSH1 0x0 DUP1 PUSH1 0x40 DUP4 DUP6 SUB SLT ISZERO PUSH2 0x277C JUMPI DUP1 DUP2 REVERT JUMPDEST DUP3 CALLDATALOAD PUSH2 0x2787 DUP2 PUSH2 0x327A JUMP JUMPDEST SWAP2 POP PUSH1 0x20 DUP4 ADD CALLDATALOAD PUSH2 0x2797 DUP2 PUSH2 0x328F JUMP JUMPDEST DUP1 SWAP2 POP POP SWAP3 POP SWAP3 SWAP1 POP JUMP JUMPDEST PUSH1 0x0 DUP1 PUSH1 0x0 DUP1 PUSH1 0x80 DUP6 DUP8 SUB SLT ISZERO PUSH2 0x27B7 JUMPI DUP2 DUP3 REVERT JUMPDEST DUP5 CALLDATALOAD PUSH2 0x27C2 DUP2 PUSH2 0x327A JUMP JUMPDEST SWAP4 POP PUSH1 0x20 DUP6 ADD CALLDATALOAD PUSH2 0x27D2 DUP2 PUSH2 0x327A JUMP JUMPDEST SWAP3 POP PUSH1 0x40 DUP6 ADD CALLDATALOAD PUSH2 0x27E2 DUP2 PUSH2 0x327A JUMP JUMPDEST SWAP2 POP PUSH1 0x60 DUP6 ADD CALLDATALOAD PUSH2 0x27F2 DUP2 PUSH2 0x327A JUMP JUMPDEST SWAP4 SWAP7 SWAP3 SWAP6 POP SWAP1 SWAP4 POP POP JUMP JUMPDEST PUSH1 0x0 DUP1 PUSH1 0x40 DUP4 DUP6 SUB SLT ISZERO PUSH2 0x280F JUMPI DUP2 DUP3 REVERT JUMPDEST DUP3 CALLDATALOAD PUSH2 0x281A DUP2 PUSH2 0x327A JUMP JUMPDEST SWAP5 PUSH1 0x20 SWAP4 SWAP1 SWAP4 ADD CALLDATALOAD SWAP4 POP POP POP JUMP JUMPDEST PUSH1 0x0 DUP1 PUSH1 0x0 DUP1 PUSH1 0x80 DUP6 DUP8 SUB SLT ISZERO PUSH2 0x283D JUMPI DUP4 DUP5 REVERT JUMPDEST DUP5 CALLDATALOAD PUSH2 0x2848 DUP2 PUSH2 0x327A JUMP JUMPDEST SWAP7 PUSH1 0x20 DUP7 ADD CALLDATALOAD SWAP7 POP PUSH1 0x40 DUP7 ADD CALLDATALOAD SWAP6 PUSH1 0x60 ADD CALLDATALOAD SWAP5 POP SWAP3 POP POP POP JUMP JUMPDEST PUSH1 0x0 PUSH1 0x20 DUP3 DUP5 SUB SLT ISZERO PUSH2 0x2873 JUMPI DUP1 DUP2 REVERT JUMPDEST DUP2 MLOAD PUSH2 0x176B DUP2 PUSH2 0x328F JUMP JUMPDEST PUSH1 0x0 DUP1 PUSH1 0x0 DUP1 PUSH1 0x0 DUP1 PUSH1 0xC0 DUP8 DUP10 SUB SLT ISZERO PUSH2 0x2896 JUMPI DUP4 DUP5 REVERT JUMPDEST PUSH2 0x289F DUP8 PUSH2 0x26D8 JUMP JUMPDEST SWAP6 POP PUSH1 0x20 DUP8 ADD CALLDATALOAD PUSH8 0xFFFFFFFFFFFFFFFF DUP1 DUP3 GT ISZERO PUSH2 0x28BB JUMPI DUP6 DUP7 REVERT JUMPDEST PUSH2 0x28C7 DUP11 DUP4 DUP12 ADD PUSH2 0x267E JUMP JUMPDEST SWAP7 POP PUSH1 0x40 DUP10 ADD CALLDATALOAD SWAP2 POP DUP1 DUP3 GT ISZERO PUSH2 0x28DC JUMPI DUP6 DUP7 REVERT JUMPDEST PUSH2 0x28E8 DUP11 DUP4 DUP12 ADD PUSH2 0x267E JUMP JUMPDEST SWAP6 POP PUSH1 0x60 DUP10 ADD CALLDATALOAD SWAP2 POP DUP1 DUP3 GT ISZERO PUSH2 0x28FD JUMPI DUP4 DUP5 REVERT JUMPDEST PUSH2 0x2909 DUP11 DUP4 DUP12 ADD PUSH2 0x2617 JUMP JUMPDEST SWAP5 POP PUSH1 0x80 DUP10 ADD CALLDATALOAD SWAP2 POP DUP1 DUP3 GT ISZERO PUSH2 0x291E JUMPI DUP4 DUP5 REVERT JUMPDEST PUSH2 0x292A DUP11 DUP4 DUP12 ADD PUSH2 0x267E JUMP JUMPDEST SWAP4 POP PUSH1 0xA0 DUP10 ADD CALLDATALOAD SWAP2 POP DUP1 DUP3 GT ISZERO PUSH2 0x293F JUMPI DUP3 DUP4 REVERT JUMPDEST POP PUSH2 0x294C DUP10 DUP3 DUP11 ADD PUSH2 0x2617 JUMP JUMPDEST SWAP2 POP POP SWAP3 SWAP6 POP SWAP3 SWAP6 POP SWAP3 SWAP6 JUMP JUMPDEST PUSH1 0x0 DUP1 PUSH1 0x0 DUP1 PUSH1 0x0 DUP1 PUSH1 0xC0 DUP8 DUP10 SUB SLT ISZERO PUSH2 0x2971 JUMPI DUP4 DUP5 REVERT JUMPDEST DUP7 CALLDATALOAD PUSH2 0x297C DUP2 PUSH2 0x328F JUMP JUMPDEST SWAP6 POP PUSH1 0x20 DUP8 ADD CALLDATALOAD SWAP5 POP PUSH1 0x40 DUP8 ADD CALLDATALOAD SWAP4 POP PUSH1 0x60 DUP8 ADD CALLDATALOAD PUSH8 0xFFFFFFFFFFFFFFFF DUP1 DUP3 GT ISZERO PUSH2 0x29A6 JUMPI DUP4 DUP5 REVERT JUMPDEST PUSH2 0x29B2 DUP11 DUP4 DUP12 ADD PUSH2 0x26E3 JUMP JUMPDEST SWAP5 POP PUSH1 0x80 DUP10 ADD CALLDATALOAD SWAP4 POP PUSH1 0xA0 DUP10 ADD CALLDATALOAD SWAP2 POP DUP1 DUP3 GT ISZERO PUSH2 0x29CE JUMPI DUP3 DUP4 REVERT JUMPDEST POP PUSH2 0x294C DUP10 DUP3 DUP11 ADD PUSH2 0x26E3 JUMP JUMPDEST PUSH1 0x0 DUP1 PUSH1 0x0 DUP1 PUSH1 0x0 DUP1 PUSH1 0x0 PUSH1 0xE0 DUP9 DUP11 SUB SLT ISZERO PUSH2 0x29F5 JUMPI DUP5 DUP6 REVERT JUMPDEST DUP8 CALLDATALOAD PUSH2 0x2A00 DUP2 PUSH2 0x328F JUMP JUMPDEST SWAP7 POP PUSH1 0x20 DUP9 ADD CALLDATALOAD SWAP6 POP PUSH1 0x40 DUP9 ADD CALLDATALOAD SWAP5 POP PUSH1 0x60 DUP9 ADD CALLDATALOAD PUSH8 0xFFFFFFFFFFFFFFFF DUP1 DUP3 GT ISZERO PUSH2 0x2A2A JUMPI DUP3 DUP4 REVERT JUMPDEST PUSH2 0x2A36 DUP12 DUP4 DUP13 ADD PUSH2 0x26E3 JUMP JUMPDEST SWAP6 POP PUSH1 0x80 DUP11 ADD CALLDATALOAD SWAP5 POP PUSH1 0xA0 DUP11 ADD CALLDATALOAD SWAP2 POP DUP1 DUP3 GT ISZERO PUSH2 0x2A52 JUMPI DUP3 DUP4 REVERT JUMPDEST POP PUSH2 0x2A5F DUP11 DUP3 DUP12 ADD PUSH2 0x26E3 JUMP JUMPDEST SWAP3 POP POP PUSH1 0xC0 DUP9 ADD CALLDATALOAD SWAP1 POP SWAP3 SWAP6 SWAP9 SWAP2 SWAP5 SWAP8 POP SWAP3 SWAP6 POP JUMP JUMPDEST PUSH1 0x0 DUP1 PUSH1 0x0 DUP1 PUSH1 0x0 DUP1 PUSH1 0x0 DUP1 PUSH1 0x0 PUSH2 0x120 DUP11 DUP13 SUB SLT ISZERO PUSH2 0x2A93 JUMPI DUP3 DUP4 REVERT JUMPDEST DUP10 CALLDATALOAD PUSH2 0x2A9E DUP2 PUSH2 0x328F JUMP JUMPDEST SWAP9 POP PUSH1 0x20 DUP11 ADD CALLDATALOAD SWAP8 POP PUSH1 0x40 DUP11 ADD CALLDATALOAD SWAP7 POP PUSH1 0x60 DUP11 ADD CALLDATALOAD SWAP6 POP PUSH1 0x80 DUP11 ADD CALLDATALOAD SWAP5 POP PUSH1 0xA0 DUP11 ADD CALLDATALOAD PUSH8 0xFFFFFFFFFFFFFFFF DUP1 DUP3 GT ISZERO PUSH2 0x2AD6 JUMPI DUP5 DUP6 REVERT JUMPDEST PUSH2 0x2AE2 DUP14 DUP4 DUP15 ADD PUSH2 0x26E3 JUMP JUMPDEST SWAP6 POP PUSH1 0xC0 DUP13 ADD CALLDATALOAD SWAP5 POP PUSH1 0xE0 DUP13 ADD CALLDATALOAD SWAP4 POP PUSH2 0x100 DUP13 ADD CALLDATALOAD SWAP2 POP DUP1 DUP3 GT ISZERO PUSH2 0x2B06 JUMPI DUP3 DUP4 REVERT JUMPDEST POP PUSH2 0x2B13 DUP13 DUP3 DUP14 ADD PUSH2 0x26E3 JUMP JUMPDEST SWAP2 POP POP SWAP3 SWAP6 SWAP9 POP SWAP3 SWAP6 SWAP9 POP SWAP3 SWAP6 SWAP9 JUMP JUMPDEST PUSH1 0x0 PUSH1 0x20 DUP3 DUP5 SUB SLT ISZERO PUSH2 0x2B34 JUMPI DUP1 DUP2 REVERT JUMPDEST POP CALLDATALOAD SWAP2 SWAP1 POP JUMP JUMPDEST PUSH1 0x0 PUSH1 0x20 DUP3 DUP5 SUB SLT ISZERO PUSH2 0x2B4C JUMPI DUP1 DUP2 REVERT JUMPDEST POP MLOAD SWAP2 SWAP1 POP JUMP JUMPDEST PUSH1 0x0 DUP1 PUSH1 0x0 DUP1 PUSH1 0x0 DUP1 PUSH1 0x0 DUP1 PUSH1 0x0 DUP1 PUSH1 0x0 DUP1 PUSH2 0x180 DUP14 DUP16 SUB SLT ISZERO PUSH2 0x2B75 JUMPI DUP6 DUP7 REVERT JUMPDEST DUP13 CALLDATALOAD SWAP12 POP PUSH2 0x2B85 PUSH1 0x20 DUP15 ADD PUSH2 0x260C JUMP JUMPDEST SWAP11 POP PUSH1 0x40 DUP14 ADD CALLDATALOAD SWAP10 POP PUSH8 0xFFFFFFFFFFFFFFFF PUSH1 0x60 DUP15 ADD CALLDATALOAD GT ISZERO PUSH2 0x2BA6 JUMPI DUP6 DUP7 REVERT JUMPDEST PUSH2 0x2BB6 DUP15 PUSH1 0x60 DUP16 ADD CALLDATALOAD DUP16 ADD PUSH2 0x26E3 JUMP JUMPDEST SWAP12 SWAP15 SWAP11 SWAP14 POP SWAP9 SWAP12 PUSH1 0x80 DUP2 ADD CALLDATALOAD SWAP11 PUSH1 0xA0 DUP3 ADD CALLDATALOAD SWAP11 POP PUSH1 0xC0 DUP3 ADD CALLDATALOAD SWAP10 POP PUSH1 0xE0 DUP3 ADD CALLDATALOAD SWAP9 POP PUSH2 0x100 DUP3 ADD CALLDATALOAD SWAP8 POP PUSH2 0x120 DUP3 ADD CALLDATALOAD SWAP7 POP PUSH2 0x140 DUP3 ADD CALLDATALOAD SWAP6 POP PUSH2 0x160 SWAP1 SWAP2 ADD CALLDATALOAD SWAP4 POP SWAP2 POP POP JUMP JUMPDEST PUSH1 0x1 PUSH1 0x1 PUSH1 0xA0 SHL SUB AND SWAP1 MSTORE JUMP JUMPDEST PUSH1 0x0 DUP2 MLOAD DUP1 DUP5 MSTORE PUSH2 0x2C23 DUP2 PUSH1 0x20 DUP7 ADD PUSH1 0x20 DUP7 ADD PUSH2 0x31CC JUMP JUMPDEST PUSH1 0x1F ADD PUSH1 0x1F NOT AND SWAP3 SWAP1 SWAP3 ADD PUSH1 0x20 ADD SWAP3 SWAP2 POP POP JUMP JUMPDEST PUSH1 0x0 DUP3 MLOAD PUSH2 0x2C49 DUP2 DUP5 PUSH1 0x20 DUP8 ADD PUSH2 0x31CC JUMP JUMPDEST SWAP2 SWAP1 SWAP2 ADD SWAP3 SWAP2 POP POP JUMP JUMPDEST PUSH1 0x1 PUSH1 0x1 PUSH1 0xA0 SHL SUB SWAP2 SWAP1 SWAP2 AND DUP2 MSTORE PUSH1 0x20 ADD SWAP1 JUMP JUMPDEST PUSH1 0x1 PUSH1 0x1 PUSH1 0xA0 SHL SUB SWAP4 DUP5 AND DUP2 MSTORE SWAP2 SWAP1 SWAP3 AND PUSH1 0x20 DUP3 ADD MSTORE PUSH1 0x40 DUP2 ADD SWAP2 SWAP1 SWAP2 MSTORE PUSH1 0x60 ADD SWAP1 JUMP JUMPDEST PUSH1 0x1 PUSH1 0x1 PUSH1 0xA0 SHL SUB SWAP3 SWAP1 SWAP3 AND DUP3 MSTORE PUSH1 0x20 DUP3 ADD MSTORE PUSH1 0x40 ADD SWAP1 JUMP JUMPDEST PUSH1 0x20 DUP1 DUP3 MSTORE DUP3 MLOAD DUP3 DUP3 ADD DUP2 SWAP1 MSTORE PUSH1 0x0 SWAP2 SWAP1 DUP5 DUP3 ADD SWAP1 PUSH1 0x40 DUP6 ADD SWAP1 DUP5 JUMPDEST DUP2 DUP2 LT ISZERO PUSH2 0x2CDC JUMPI DUP4 MLOAD DUP4 MSTORE SWAP3 DUP5 ADD SWAP3 SWAP2 DUP5 ADD SWAP2 PUSH1 0x1 ADD PUSH2 0x2CC0 JUMP JUMPDEST POP SWAP1 SWAP7 SWAP6 POP POP POP POP POP POP JUMP JUMPDEST SWAP1 ISZERO ISZERO DUP2 MSTORE PUSH1 0x20 ADD SWAP1 JUMP JUMPDEST PUSH1 0x0 DUP7 ISZERO ISZERO DUP3 MSTORE DUP6 PUSH1 0x20 DUP4 ADD MSTORE DUP5 PUSH1 0x40 DUP4 ADD MSTORE PUSH1 0xA0 PUSH1 0x60 DUP4 ADD MSTORE PUSH2 0x2D1A PUSH1 0xA0 DUP4 ADD DUP6 PUSH2 0x2C0B JUMP JUMPDEST DUP3 DUP2 SUB PUSH1 0x80 DUP5 ADD MSTORE PUSH2 0xB8A DUP2 DUP6 PUSH2 0x2C0B JUMP JUMPDEST PUSH1 0x0 PUSH1 0x20 DUP3 MSTORE PUSH2 0x176B PUSH1 0x20 DUP4 ADD DUP5 PUSH2 0x2C0B JUMP JUMPDEST PUSH1 0x20 DUP1 DUP3 MSTORE PUSH1 0x14 SWAP1 DUP3 ADD MSTORE PUSH20 0x1BDC99195C88191BD95CC81B9BDD08195E1A5CDD PUSH1 0x62 SHL PUSH1 0x40 DUP3 ADD MSTORE PUSH1 0x60 ADD SWAP1 JUMP JUMPDEST PUSH1 0x20 DUP1 DUP3 MSTORE PUSH1 0xE SWAP1 DUP3 ADD MSTORE PUSH14 0x1B585C99DA5B881B9BC819DBDBD9 PUSH1 0x92 SHL PUSH1 0x40 DUP3 ADD MSTORE PUSH1 0x60 ADD SWAP1 JUMP JUMPDEST PUSH1 0x20 DUP1 DUP3 MSTORE PUSH1 0x26 SWAP1 DUP3 ADD MSTORE PUSH32 0x4F776E61626C653A206E6577206F776E657220697320746865207A65726F2061 PUSH1 0x40 DUP3 ADD MSTORE PUSH6 0x646472657373 PUSH1 0xD0 SHL PUSH1 0x60 DUP3 ADD MSTORE PUSH1 0x80 ADD SWAP1 JUMP JUMPDEST PUSH1 0x20 DUP1 DUP3 MSTORE PUSH1 0xA SWAP1 DUP3 ADD MSTORE PUSH10 0x37B930B1B6329032B939 PUSH1 0xB1 SHL PUSH1 0x40 DUP3 ADD MSTORE PUSH1 0x60 ADD SWAP1 JUMP JUMPDEST PUSH1 0x20 DUP1 DUP3 MSTORE PUSH1 0x24 SWAP1 DUP3 ADD MSTORE PUSH32 0x6578656375746F723A2063616C6C6572206973206E6F74207468652065786563 PUSH1 0x40 DUP3 ADD MSTORE PUSH4 0x3ABA37B9 PUSH1 0xE1 SHL PUSH1 0x60 DUP3 ADD MSTORE PUSH1 0x80 ADD SWAP1 JUMP JUMPDEST PUSH1 0x20 DUP1 DUP3 MSTORE PUSH1 0x26 SWAP1 DUP3 ADD MSTORE PUSH32 0x416464726573733A20696E73756666696369656E742062616C616E636520666F PUSH1 0x40 DUP3 ADD MSTORE PUSH6 0x1C8818D85B1B PUSH1 0xD2 SHL PUSH1 0x60 DUP3 ADD MSTORE PUSH1 0x80 ADD SWAP1 JUMP JUMPDEST PUSH1 0x20 DUP1 DUP3 MSTORE PUSH1 0x2E SWAP1 DUP3 ADD MSTORE PUSH32 0x496E697469616C697A61626C653A20636F6E747261637420697320616C726561 PUSH1 0x40 DUP3 ADD MSTORE PUSH14 0x191E481A5B9A5D1A585B1A5E9959 PUSH1 0x92 SHL PUSH1 0x60 DUP3 ADD MSTORE PUSH1 0x80 ADD SWAP1 JUMP JUMPDEST PUSH1 0x20 DUP1 DUP3 MSTORE PUSH1 0x23 SWAP1 DUP3 ADD MSTORE PUSH32 0x546865207472616E73616374696F6E20616D6F756E7420697320746F6F20736D PUSH1 0x40 DUP3 ADD MSTORE PUSH3 0x185B1B PUSH1 0xEA SHL PUSH1 0x60 DUP3 ADD MSTORE PUSH1 0x80 ADD SWAP1 JUMP JUMPDEST PUSH1 0x20 DUP1 DUP3 MSTORE PUSH1 0x10 SWAP1 DUP3 ADD MSTORE PUSH16 0x155CD95C881A5CC818985B9ADC9D5C1D PUSH1 0x82 SHL PUSH1 0x40 DUP3 ADD MSTORE PUSH1 0x60 ADD SWAP1 JUMP JUMPDEST PUSH1 0x20 DUP1 DUP3 MSTORE DUP2 DUP2 ADD MSTORE PUSH32 0x4F776E61626C653A2063616C6C6572206973206E6F7420746865206F776E6572 PUSH1 0x40 DUP3 ADD MSTORE PUSH1 0x60 ADD SWAP1 JUMP JUMPDEST PUSH1 0x20 DUP1 DUP3 MSTORE PUSH1 0x1D SWAP1 DUP3 ADD MSTORE PUSH32 0x416464726573733A2063616C6C20746F206E6F6E2D636F6E7472616374000000 PUSH1 0x40 DUP3 ADD MSTORE PUSH1 0x60 ADD SWAP1 JUMP JUMPDEST PUSH1 0x20 DUP1 DUP3 MSTORE PUSH1 0xA SWAP1 DUP3 ADD MSTORE PUSH10 0x3632B733BA341032B939 PUSH1 0xB1 SHL PUSH1 0x40 DUP3 ADD MSTORE PUSH1 0x60 ADD SWAP1 JUMP JUMPDEST PUSH1 0x20 DUP1 DUP3 MSTORE PUSH1 0x8 SWAP1 DUP3 ADD MSTORE PUSH8 0x3AB9B2B91032B939 PUSH1 0xC1 SHL PUSH1 0x40 DUP3 ADD MSTORE PUSH1 0x60 ADD SWAP1 JUMP JUMPDEST PUSH1 0x20 DUP1 DUP3 MSTORE PUSH1 0x9 SWAP1 DUP3 ADD MSTORE PUSH9 0x39BA30BA329032B939 PUSH1 0xB9 SHL PUSH1 0x40 DUP3 ADD MSTORE PUSH1 0x60 ADD SWAP1 JUMP JUMPDEST PUSH1 0x20 DUP1 DUP3 MSTORE PUSH1 0x2A SWAP1 DUP3 ADD MSTORE PUSH32 0x5361666545524332303A204552433230206F7065726174696F6E20646964206E PUSH1 0x40 DUP3 ADD MSTORE PUSH10 0x1BDD081CDD58D8D95959 PUSH1 0xB2 SHL PUSH1 0x60 DUP3 ADD MSTORE PUSH1 0x80 ADD SWAP1 JUMP JUMPDEST PUSH1 0x0 PUSH1 0x20 DUP3 MSTORE PUSH2 0x3077 PUSH1 0x20 DUP4 ADD DUP5 MLOAD PUSH2 0x2BFE JUMP JUMPDEST PUSH1 0x20 DUP4 ADD MLOAD PUSH1 0x40 DUP4 ADD MSTORE PUSH1 0x40 DUP4 ADD MLOAD PUSH2 0x160 DUP1 PUSH1 0x60 DUP6 ADD MSTORE PUSH2 0x309D PUSH2 0x180 DUP6 ADD DUP4 PUSH2 0x2C0B JUMP JUMPDEST SWAP2 POP PUSH1 0x60 DUP6 ADD MLOAD PUSH1 0x80 DUP6 ADD MSTORE PUSH1 0x80 DUP6 ADD MLOAD PUSH1 0xA0 DUP6 ADD MSTORE PUSH1 0xA0 DUP6 ADD MLOAD PUSH1 0xC0 DUP6 ADD MSTORE PUSH1 0xC0 DUP6 ADD MLOAD PUSH1 0xE0 DUP6 ADD MSTORE PUSH1 0xE0 DUP6 ADD MLOAD PUSH2 0x100 DUP2 DUP2 DUP8 ADD MSTORE DUP1 DUP8 ADD MLOAD SWAP2 POP POP PUSH2 0x120 DUP2 DUP2 DUP8 ADD MSTORE DUP1 DUP8 ADD MLOAD SWAP2 POP POP PUSH2 0x140 DUP2 DUP2 DUP8 ADD MSTORE DUP1 DUP8 ADD MLOAD DUP4 DUP8 ADD MSTORE POP POP POP DUP1 SWAP2 POP POP SWAP3 SWAP2 POP POP JUMP JUMPDEST SWAP1 DUP2 MSTORE PUSH1 0x20 ADD SWAP1 JUMP JUMPDEST PUSH1 0x40 MLOAD DUP2 DUP2 ADD PUSH8 0xFFFFFFFFFFFFFFFF DUP2 GT DUP3 DUP3 LT OR ISZERO PUSH2 0x3132 JUMPI PUSH2 0x3132 PUSH2 0x3264 JUMP JUMPDEST PUSH1 0x40 MSTORE SWAP2 SWAP1 POP JUMP JUMPDEST PUSH1 0x0 PUSH8 0xFFFFFFFFFFFFFFFF DUP3 GT ISZERO PUSH2 0x3154 JUMPI PUSH2 0x3154 PUSH2 0x3264 JUMP JUMPDEST POP PUSH1 0x20 SWAP1 DUP2 MUL ADD SWAP1 JUMP JUMPDEST PUSH1 0x0 DUP3 NOT DUP3 GT ISZERO PUSH2 0x3171 JUMPI PUSH2 0x3171 PUSH2 0x324E JUMP JUMPDEST POP ADD SWAP1 JUMP JUMPDEST PUSH1 0x0 DUP3 PUSH2 0x3191 JUMPI PUSH4 0x4E487B71 PUSH1 0xE0 SHL DUP2 MSTORE PUSH1 0x12 PUSH1 0x4 MSTORE PUSH1 0x24 DUP2 REVERT JUMPDEST POP DIV SWAP1 JUMP JUMPDEST PUSH1 0x0 DUP2 PUSH1 0x0 NOT DIV DUP4 GT DUP3 ISZERO ISZERO AND ISZERO PUSH2 0x31B0 JUMPI PUSH2 0x31B0 PUSH2 0x324E JUMP JUMPDEST POP MUL SWAP1 JUMP JUMPDEST PUSH1 0x0 DUP3 DUP3 LT ISZERO PUSH2 0x31C7 JUMPI PUSH2 0x31C7 PUSH2 0x324E JUMP JUMPDEST POP SUB SWAP1 JUMP JUMPDEST PUSH1 0x0 JUMPDEST DUP4 DUP2 LT ISZERO PUSH2 0x31E7 JUMPI DUP2 DUP2 ADD MLOAD DUP4 DUP3 ADD MSTORE PUSH1 0x20 ADD PUSH2 0x31CF JUMP JUMPDEST DUP4 DUP2 GT ISZERO PUSH2 0x20FD JUMPI POP POP PUSH1 0x0 SWAP2 ADD MSTORE JUMP JUMPDEST PUSH1 0x2 DUP2 DIV PUSH1 0x1 DUP3 AND DUP1 PUSH2 0x320C JUMPI PUSH1 0x7F DUP3 AND SWAP2 POP JUMPDEST PUSH1 0x20 DUP3 LT DUP2 EQ ISZERO PUSH2 0x322D JUMPI PUSH4 0x4E487B71 PUSH1 0xE0 SHL PUSH1 0x0 MSTORE PUSH1 0x22 PUSH1 0x4 MSTORE PUSH1 0x24 PUSH1 0x0 REVERT JUMPDEST POP SWAP2 SWAP1 POP JUMP JUMPDEST PUSH1 0x0 PUSH1 0x0 NOT DUP3 EQ ISZERO PUSH2 0x3247 JUMPI PUSH2 0x3247 PUSH2 0x324E JUMP JUMPDEST POP PUSH1 0x1 ADD SWAP1 JUMP JUMPDEST PUSH4 0x4E487B71 PUSH1 0xE0 SHL PUSH1 0x0 MSTORE PUSH1 0x11 PUSH1 0x4 MSTORE PUSH1 0x24 PUSH1 0x0 REVERT JUMPDEST PUSH4 0x4E487B71 PUSH1 0xE0 SHL PUSH1 0x0 MSTORE PUSH1 0x41 PUSH1 0x4 MSTORE PUSH1 0x24 PUSH1 0x0 REVERT JUMPDEST PUSH1 0x1 PUSH1 0x1 PUSH1 0xA0 SHL SUB DUP2 AND DUP2 EQ PUSH2 0x150F JUMPI PUSH1 0x0 DUP1 REVERT JUMPDEST DUP1 ISZERO ISZERO DUP2 EQ PUSH2 0x150F JUMPI PUSH1 0x0 DUP1 REVERT INVALID LOG2 PUSH5 0x6970667358 0x22 SLT KECCAK256 PUSH32 0x5A81CD9BDE1BC948C80FA42356278DF4306B7C858DF3F11BFB25D672B0AA1E64 PUSH20 0x6F6C634300080000330000000000000000000000 "
				},
				"gasEstimates": {
					"creation": {
						"codeDepositCost": "2602200",
						"executionCost": "2816",
						"totalCost": "2605016"
					},
					"external": {
						"OrderIndex()": "1094",
						"PRECISION()": "1073",
						"adjustPosition(bool,uint256,uint256,string,uint256,bytes,uint256)": "infinite",
						"closePosition(bool,uint256,uint256,string,uint256,bytes)": "infinite",
						"executor(address)": "1370",
						"feePercent()": "1074",
						"forcedLiquidation(bool,uint256,uint256,string,uint256,bytes)": "infinite",
						"helperLogic()": "1183",
						"initialize(address,address,address,address)": "infinite",
						"liquidation(bool,uint256[],uint256[],string[],uint256[],bytes[])": "infinite",
						"minVal()": "1139",
						"myCloseOrderIdList(address,uint256)": "2226",
						"myCloseOrderIdListLength(address)": "1331",
						"myCloseOrderIdList_index(address,uint256)": "1428",
						"myOpenOrderIdList(address,uint256)": "2248",
						"myOpenOrderIdListLength(address)": "1309",
						"myOpenOrderIdList_index(address,uint256)": "1406",
						"openOrderIdList(uint256)": "2065",
						"openOrderIdList_index(uint256)": "1261",
						"openPosition(bool,uint256,uint256,uint256,uint256,string,uint256,uint256,bytes)": "infinite",
						"oracle()": "1181",
						"orderInfo(uint256)": "infinite",
						"owner()": "1138",
						"pagination(address,uint256,uint256,uint256)": "infinite",
						"renounceOwnership()": "23552",
						"setExecutor(address,bool)": "infinite",
						"setFeePercent(uint256)": "21338",
						"setOrderInfo(uint256,address,uint256,string,uint256,uint256,uint256,uint256,uint256,uint256,uint256,uint256)": "infinite",
						"setSigner(address)": "22276",
						"signer()": "1116",
						"transferOwnership(address)": "infinite",
						"usc()": "1138"
					},
					"internal": {
						"_closePosition(bool,struct mirrorseaMain.OrderInfo storage pointer,uint256,uint256,uint256,string memory,uint256,bytes memory)": "infinite",
						"_isSolvent(uint256,uint256,uint256)": "infinite",
						"cutListItem(uint256,mapping(uint256 => uint256),uint256[] storage pointer)": "75481"
					}
				},
				"methodIdentifiers": {
					"OrderIndex()": "f7ab69fd",
					"PRECISION()": "aaf5eb68",
					"adjustPosition(bool,uint256,uint256,string,uint256,bytes,uint256)": "a8ecb028",
					"closePosition(bool,uint256,uint256,string,uint256,bytes)": "6e812437",
					"executor(address)": "48c7e528",
					"feePercent()": "7fd6f15c",
					"forcedLiquidation(bool,uint256,uint256,string,uint256,bytes)": "a0ad12e2",
					"helperLogic()": "1e64610c",
					"initialize(address,address,address,address)": "f8c8765e",
					"liquidation(bool,uint256[],uint256[],string[],uint256[],bytes[])": "4b989ce3",
					"minVal()": "f14053ad",
					"myCloseOrderIdList(address,uint256)": "ec4c4f34",
					"myCloseOrderIdListLength(address)": "aecf77b1",
					"myCloseOrderIdList_index(address,uint256)": "f0c765e4",
					"myOpenOrderIdList(address,uint256)": "c2ec527d",
					"myOpenOrderIdListLength(address)": "e4e95520",
					"myOpenOrderIdList_index(address,uint256)": "7be3a1a1",
					"openOrderIdList(uint256)": "0f58d242",
					"openOrderIdList_index(uint256)": "43b1f3cb",
					"openPosition(bool,uint256,uint256,uint256,uint256,string,uint256,uint256,bytes)": "db4a5aa9",
					"oracle()": "7dc0d1d0",
					"orderInfo(uint256)": "6ab34a4a",
					"owner()": "8da5cb5b",
					"pagination(address,uint256,uint256,uint256)": "080270a8",
					"renounceOwnership()": "715018a6",
					"setExecutor(address,bool)": "1e1bff3f",
					"setFeePercent(uint256)": "7ce3489b",
					"setOrderInfo(uint256,address,uint256,string,uint256,uint256,uint256,uint256,uint256,uint256,uint256,uint256)": "fc234d06",
					"setSigner(address)": "6c19e783",
					"signer()": "238ac933",
					"transferOwnership(address)": "f2fde38b",
					"usc()": "3011d3d5"
				}
			},
			"storageLayout": {
				"storage": [
					{
						"astId": 130,
						"contract": "contracts/mirrorseaMain.sol:mirrorseaMain",
						"label": "_initialized",
						"offset": 0,
						"slot": "0",
						"type": "t_bool"
					},
					{
						"astId": 133,
						"contract": "contracts/mirrorseaMain.sol:mirrorseaMain",
						"label": "_initializing",
						"offset": 1,
						"slot": "0",
						"type": "t_bool"
					},
					{
						"astId": 760,
						"contract": "contracts/mirrorseaMain.sol:mirrorseaMain",
						"label": "__gap",
						"offset": 0,
						"slot": "1",
						"type": "t_array(t_uint256)50_storage"
					},
					{
						"astId": 10,
						"contract": "contracts/mirrorseaMain.sol:mirrorseaMain",
						"label": "_owner",
						"offset": 0,
						"slot": "51",
						"type": "t_address"
					},
					{
						"astId": 124,
						"contract": "contracts/mirrorseaMain.sol:mirrorseaMain",
						"label": "__gap",
						"offset": 0,
						"slot": "52",
						"type": "t_array(t_uint256)49_storage"
					},
					{
						"astId": 1132,
						"contract": "contracts/mirrorseaMain.sol:mirrorseaMain",
						"label": "executor",
						"offset": 0,
						"slot": "101",
						"type": "t_mapping(t_address,t_bool)"
					},
					{
						"astId": 1134,
						"contract": "contracts/mirrorseaMain.sol:mirrorseaMain",
						"label": "signer",
						"offset": 0,
						"slot": "102",
						"type": "t_address"
					},
					{
						"astId": 1137,
						"contract": "contracts/mirrorseaMain.sol:mirrorseaMain",
						"label": "usc",
						"offset": 0,
						"slot": "103",
						"type": "t_contract(IERC20Upgradeable)248"
					},
					{
						"astId": 1140,
						"contract": "contracts/mirrorseaMain.sol:mirrorseaMain",
						"label": "helperLogic",
						"offset": 0,
						"slot": "104",
						"type": "t_contract(IhelperLogic)1086"
					},
					{
						"astId": 1143,
						"contract": "contracts/mirrorseaMain.sol:mirrorseaMain",
						"label": "oracle",
						"offset": 0,
						"slot": "105",
						"type": "t_contract(IOracle)1102"
					},
					{
						"astId": 1148,
						"contract": "contracts/mirrorseaMain.sol:mirrorseaMain",
						"label": "_orderInfo",
						"offset": 0,
						"slot": "106",
						"type": "t_mapping(t_uint256,t_struct(OrderInfo)1208_storage)"
					},
					{
						"astId": 1150,
						"contract": "contracts/mirrorseaMain.sol:mirrorseaMain",
						"label": "OrderIndex",
						"offset": 0,
						"slot": "107",
						"type": "t_uint256"
					},
					{
						"astId": 1153,
						"contract": "contracts/mirrorseaMain.sol:mirrorseaMain",
						"label": "openOrderIdList",
						"offset": 0,
						"slot": "108",
						"type": "t_array(t_uint256)dyn_storage"
					},
					{
						"astId": 1157,
						"contract": "contracts/mirrorseaMain.sol:mirrorseaMain",
						"label": "openOrderIdList_index",
						"offset": 0,
						"slot": "109",
						"type": "t_mapping(t_uint256,t_uint256)"
					},
					{
						"astId": 1162,
						"contract": "contracts/mirrorseaMain.sol:mirrorseaMain",
						"label": "myOpenOrderIdList",
						"offset": 0,
						"slot": "110",
						"type": "t_mapping(t_address,t_array(t_uint256)dyn_storage)"
					},
					{
						"astId": 1168,
						"contract": "contracts/mirrorseaMain.sol:mirrorseaMain",
						"label": "myOpenOrderIdList_index",
						"offset": 0,
						"slot": "111",
						"type": "t_mapping(t_address,t_mapping(t_uint256,t_uint256))"
					},
					{
						"astId": 1173,
						"contract": "contracts/mirrorseaMain.sol:mirrorseaMain",
						"label": "myCloseOrderIdList",
						"offset": 0,
						"slot": "112",
						"type": "t_mapping(t_address,t_array(t_uint256)dyn_storage)"
					},
					{
						"astId": 1179,
						"contract": "contracts/mirrorseaMain.sol:mirrorseaMain",
						"label": "myCloseOrderIdList_index",
						"offset": 0,
						"slot": "113",
						"type": "t_mapping(t_address,t_mapping(t_uint256,t_uint256))"
					},
					{
						"astId": 1181,
						"contract": "contracts/mirrorseaMain.sol:mirrorseaMain",
						"label": "feePercent",
						"offset": 0,
						"slot": "114",
						"type": "t_uint256"
					},
					{
						"astId": 1183,
						"contract": "contracts/mirrorseaMain.sol:mirrorseaMain",
						"label": "PRECISION",
						"offset": 0,
						"slot": "115",
						"type": "t_uint256"
					},
					{
						"astId": 1185,
						"contract": "contracts/mirrorseaMain.sol:mirrorseaMain",
						"label": "minVal",
						"offset": 0,
						"slot": "116",
						"type": "t_uint256"
					}
				],
				"types": {
					"t_address": {
						"encoding": "inplace",
						"label": "address",
						"numberOfBytes": "20"
					},
					"t_array(t_uint256)49_storage": {
						"base": "t_uint256",
						"encoding": "inplace",
						"label": "uint256[49]",
						"numberOfBytes": "1568"
					},
					"t_array(t_uint256)50_storage": {
						"base": "t_uint256",
						"encoding": "inplace",
						"label": "uint256[50]",
						"numberOfBytes": "1600"
					},
					"t_array(t_uint256)dyn_storage": {
						"base": "t_uint256",
						"encoding": "dynamic_array",
						"label": "uint256[]",
						"numberOfBytes": "32"
					},
					"t_bool": {
						"encoding": "inplace",
						"label": "bool",
						"numberOfBytes": "1"
					},
					"t_contract(IERC20Upgradeable)248": {
						"encoding": "inplace",
						"label": "contract IERC20Upgradeable",
						"numberOfBytes": "20"
					},
					"t_contract(IOracle)1102": {
						"encoding": "inplace",
						"label": "contract IOracle",
						"numberOfBytes": "20"
					},
					"t_contract(IhelperLogic)1086": {
						"encoding": "inplace",
						"label": "contract IhelperLogic",
						"numberOfBytes": "20"
					},
					"t_mapping(t_address,t_array(t_uint256)dyn_storage)": {
						"encoding": "mapping",
						"key": "t_address",
						"label": "mapping(address => uint256[])",
						"numberOfBytes": "32",
						"value": "t_array(t_uint256)dyn_storage"
					},
					"t_mapping(t_address,t_bool)": {
						"encoding": "mapping",
						"key": "t_address",
						"label": "mapping(address => bool)",
						"numberOfBytes": "32",
						"value": "t_bool"
					},
					"t_mapping(t_address,t_mapping(t_uint256,t_uint256))": {
						"encoding": "mapping",
						"key": "t_address",
						"label": "mapping(address => mapping(uint256 => uint256))",
						"numberOfBytes": "32",
						"value": "t_mapping(t_uint256,t_uint256)"
					},
					"t_mapping(t_uint256,t_struct(OrderInfo)1208_storage)": {
						"encoding": "mapping",
						"key": "t_uint256",
						"label": "mapping(uint256 => struct mirrorseaMain.OrderInfo)",
						"numberOfBytes": "32",
						"value": "t_struct(OrderInfo)1208_storage"
					},
					"t_mapping(t_uint256,t_uint256)": {
						"encoding": "mapping",
						"key": "t_uint256",
						"label": "mapping(uint256 => uint256)",
						"numberOfBytes": "32",
						"value": "t_uint256"
					},
					"t_string_storage": {
						"encoding": "bytes",
						"label": "string",
						"numberOfBytes": "32"
					},
					"t_struct(OrderInfo)1208_storage": {
						"encoding": "inplace",
						"label": "struct mirrorseaMain.OrderInfo",
						"members": [
							{
								"astId": 1187,
								"contract": "contracts/mirrorseaMain.sol:mirrorseaMain",
								"label": "user",
								"offset": 0,
								"slot": "0",
								"type": "t_address"
							},
							{
								"astId": 1189,
								"contract": "contracts/mirrorseaMain.sol:mirrorseaMain",
								"label": "_type",
								"offset": 0,
								"slot": "1",
								"type": "t_uint256"
							},
							{
								"astId": 1191,
								"contract": "contracts/mirrorseaMain.sol:mirrorseaMain",
								"label": "symbols",
								"offset": 0,
								"slot": "2",
								"type": "t_string_storage"
							},
							{
								"astId": 1193,
								"contract": "contracts/mirrorseaMain.sol:mirrorseaMain",
								"label": "state",
								"offset": 0,
								"slot": "3",
								"type": "t_uint256"
							},
							{
								"astId": 1195,
								"contract": "contracts/mirrorseaMain.sol:mirrorseaMain",
								"label": "direction",
								"offset": 0,
								"slot": "4",
								"type": "t_uint256"
							},
							{
								"astId": 1197,
								"contract": "contracts/mirrorseaMain.sol:mirrorseaMain",
								"label": "openPrice18",
								"offset": 0,
								"slot": "5",
								"type": "t_uint256"
							},
							{
								"astId": 1199,
								"contract": "contracts/mirrorseaMain.sol:mirrorseaMain",
								"label": "openTime",
								"offset": 0,
								"slot": "6",
								"type": "t_uint256"
							},
							{
								"astId": 1201,
								"contract": "contracts/mirrorseaMain.sol:mirrorseaMain",
								"label": "closePrice18",
								"offset": 0,
								"slot": "7",
								"type": "t_uint256"
							},
							{
								"astId": 1203,
								"contract": "contracts/mirrorseaMain.sol:mirrorseaMain",
								"label": "closeTime",
								"offset": 0,
								"slot": "8",
								"type": "t_uint256"
							},
							{
								"astId": 1205,
								"contract": "contracts/mirrorseaMain.sol:mirrorseaMain",
								"label": "amt",
								"offset": 0,
								"slot": "9",
								"type": "t_uint256"
							},
							{
								"astId": 1207,
								"contract": "contracts/mirrorseaMain.sol:mirrorseaMain",
								"label": "margin",
								"offset": 0,
								"slot": "10",
								"type": "t_uint256"
							}
						],
						"numberOfBytes": "352"
					},
					"t_uint256": {
						"encoding": "inplace",
						"label": "uint256",
						"numberOfBytes": "32"
					}
				}
			},
			"userdoc": {
				"kind": "user",
				"methods": {},
				"version": 1
			}
		}
	}
}