{
	"contracts/farm.sol": {
		"FairLaunch": {
			"abi": [
				{
					"inputs": [
						{
							"internalType": "address",
							"name": "_sea",
							"type": "address"
						},
						{
							"internalType": "address",
							"name": "_devaddr",
							"type": "address"
						},
						{
							"internalType": "uint256",
							"name": "_seaPerBlock",
							"type": "uint256"
						},
						{
							"internalType": "uint256",
							"name": "_startBlock",
							"type": "uint256"
						},
						{
							"internalType": "uint256",
							"name": "_bonusEndBlock",
							"type": "uint256"
						}
					],
					"stateMutability": "nonpayable",
					"type": "constructor"
				},
				{
					"anonymous": false,
					"inputs": [
						{
							"indexed": true,
							"internalType": "address",
							"name": "user",
							"type": "address"
						},
						{
							"indexed": true,
							"internalType": "uint256",
							"name": "pid",
							"type": "uint256"
						},
						{
							"indexed": false,
							"internalType": "uint256",
							"name": "amount",
							"type": "uint256"
						}
					],
					"name": "Deposit",
					"type": "event"
				},
				{
					"anonymous": false,
					"inputs": [
						{
							"indexed": true,
							"internalType": "address",
							"name": "user",
							"type": "address"
						},
						{
							"indexed": true,
							"internalType": "uint256",
							"name": "pid",
							"type": "uint256"
						},
						{
							"indexed": false,
							"internalType": "uint256",
							"name": "amount",
							"type": "uint256"
						}
					],
					"name": "EmergencyWithdraw",
					"type": "event"
				},
				{
					"anonymous": false,
					"inputs": [
						{
							"indexed": true,
							"internalType": "address",
							"name": "to",
							"type": "address"
						},
						{
							"indexed": true,
							"internalType": "uint256",
							"name": "amount",
							"type": "uint256"
						}
					],
					"name": "ManualMint",
					"type": "event"
				},
				{
					"anonymous": false,
					"inputs": [
						{
							"indexed": true,
							"internalType": "address",
							"name": "previousOwner",
							"type": "address"
						},
						{
							"indexed": true,
							"internalType": "address",
							"name": "newOwner",
							"type": "address"
						}
					],
					"name": "OwnershipTransferred",
					"type": "event"
				},
				{
					"anonymous": false,
					"inputs": [
						{
							"indexed": true,
							"internalType": "address",
							"name": "devAddr",
							"type": "address"
						}
					],
					"name": "SetDevAddress",
					"type": "event"
				},
				{
					"anonymous": false,
					"inputs": [
						{
							"indexed": true,
							"internalType": "uint256",
							"name": "seaPerBlock",
							"type": "uint256"
						}
					],
					"name": "SetSeaPerBlock",
					"type": "event"
				},
				{
					"anonymous": false,
					"inputs": [
						{
							"indexed": true,
							"internalType": "address",
							"name": "user",
							"type": "address"
						},
						{
							"indexed": true,
							"internalType": "uint256",
							"name": "pid",
							"type": "uint256"
						},
						{
							"indexed": false,
							"internalType": "uint256",
							"name": "amount",
							"type": "uint256"
						}
					],
					"name": "Withdraw",
					"type": "event"
				},
				{
					"inputs": [
						{
							"internalType": "uint256",
							"name": "_allocPoint",
							"type": "uint256"
						},
						{
							"internalType": "address",
							"name": "_stakeToken",
							"type": "address"
						},
						{
							"internalType": "bool",
							"name": "_withUpdate",
							"type": "bool"
						}
					],
					"name": "addPool",
					"outputs": [],
					"stateMutability": "nonpayable",
					"type": "function"
				},
				{
					"inputs": [],
					"name": "bonusEndBlock",
					"outputs": [
						{
							"internalType": "uint256",
							"name": "",
							"type": "uint256"
						}
					],
					"stateMutability": "view",
					"type": "function"
				},
				{
					"inputs": [],
					"name": "bonusMultiplier",
					"outputs": [
						{
							"internalType": "uint256",
							"name": "",
							"type": "uint256"
						}
					],
					"stateMutability": "view",
					"type": "function"
				},
				{
					"inputs": [
						{
							"internalType": "address",
							"name": "_for",
							"type": "address"
						},
						{
							"internalType": "uint256",
							"name": "_pid",
							"type": "uint256"
						},
						{
							"internalType": "uint256",
							"name": "_amount",
							"type": "uint256"
						}
					],
					"name": "deposit",
					"outputs": [],
					"stateMutability": "nonpayable",
					"type": "function"
				},
				{
					"inputs": [],
					"name": "devaddr",
					"outputs": [
						{
							"internalType": "address",
							"name": "",
							"type": "address"
						}
					],
					"stateMutability": "view",
					"type": "function"
				},
				{
					"inputs": [
						{
							"internalType": "uint256",
							"name": "_pid",
							"type": "uint256"
						}
					],
					"name": "emergencyWithdraw",
					"outputs": [],
					"stateMutability": "nonpayable",
					"type": "function"
				},
				{
					"inputs": [
						{
							"internalType": "address",
							"name": "",
							"type": "address"
						}
					],
					"name": "executor",
					"outputs": [
						{
							"internalType": "bool",
							"name": "",
							"type": "bool"
						}
					],
					"stateMutability": "view",
					"type": "function"
				},
				{
					"inputs": [],
					"name": "getBlock",
					"outputs": [
						{
							"internalType": "uint256",
							"name": "",
							"type": "uint256"
						}
					],
					"stateMutability": "view",
					"type": "function"
				},
				{
					"inputs": [
						{
							"internalType": "uint256",
							"name": "_lastRewardBlock",
							"type": "uint256"
						},
						{
							"internalType": "uint256",
							"name": "_currentBlock",
							"type": "uint256"
						}
					],
					"name": "getMultiplier",
					"outputs": [
						{
							"internalType": "uint256",
							"name": "",
							"type": "uint256"
						}
					],
					"stateMutability": "view",
					"type": "function"
				},
				{
					"inputs": [
						{
							"internalType": "uint256",
							"name": "_pid",
							"type": "uint256"
						}
					],
					"name": "harvest",
					"outputs": [],
					"stateMutability": "nonpayable",
					"type": "function"
				},
				{
					"inputs": [
						{
							"internalType": "address",
							"name": "_stakeToken",
							"type": "address"
						}
					],
					"name": "isDuplicatedPool",
					"outputs": [
						{
							"internalType": "bool",
							"name": "",
							"type": "bool"
						}
					],
					"stateMutability": "view",
					"type": "function"
				},
				{
					"inputs": [
						{
							"internalType": "address",
							"name": "_to",
							"type": "address"
						},
						{
							"internalType": "uint256",
							"name": "_amount",
							"type": "uint256"
						}
					],
					"name": "manualMint",
					"outputs": [],
					"stateMutability": "nonpayable",
					"type": "function"
				},
				{
					"inputs": [],
					"name": "massUpdatePools",
					"outputs": [],
					"stateMutability": "nonpayable",
					"type": "function"
				},
				{
					"inputs": [],
					"name": "owner",
					"outputs": [
						{
							"internalType": "address",
							"name": "",
							"type": "address"
						}
					],
					"stateMutability": "view",
					"type": "function"
				},
				{
					"inputs": [
						{
							"internalType": "uint256",
							"name": "_pid",
							"type": "uint256"
						},
						{
							"internalType": "address",
							"name": "_user",
							"type": "address"
						}
					],
					"name": "pendingSea",
					"outputs": [
						{
							"internalType": "uint256",
							"name": "",
							"type": "uint256"
						}
					],
					"stateMutability": "view",
					"type": "function"
				},
				{
					"inputs": [
						{
							"internalType": "uint256",
							"name": "",
							"type": "uint256"
						}
					],
					"name": "poolInfo",
					"outputs": [
						{
							"internalType": "address",
							"name": "stakeToken",
							"type": "address"
						},
						{
							"internalType": "uint256",
							"name": "allocPoint",
							"type": "uint256"
						},
						{
							"internalType": "uint256",
							"name": "lastRewardBlock",
							"type": "uint256"
						},
						{
							"internalType": "uint256",
							"name": "accSeaPerShare",
							"type": "uint256"
						},
						{
							"internalType": "uint256",
							"name": "accSeaPerShareTilBonusEnd",
							"type": "uint256"
						}
					],
					"stateMutability": "view",
					"type": "function"
				},
				{
					"inputs": [],
					"name": "poolLength",
					"outputs": [
						{
							"internalType": "uint256",
							"name": "",
							"type": "uint256"
						}
					],
					"stateMutability": "view",
					"type": "function"
				},
				{
					"inputs": [],
					"name": "renounceOwnership",
					"outputs": [],
					"stateMutability": "nonpayable",
					"type": "function"
				},
				{
					"inputs": [],
					"name": "sea",
					"outputs": [
						{
							"internalType": "address",
							"name": "",
							"type": "address"
						}
					],
					"stateMutability": "view",
					"type": "function"
				},
				{
					"inputs": [],
					"name": "seaPerBlock",
					"outputs": [
						{
							"internalType": "uint256",
							"name": "",
							"type": "uint256"
						}
					],
					"stateMutability": "view",
					"type": "function"
				},
				{
					"inputs": [
						{
							"internalType": "uint256",
							"name": "_bonusMultiplier",
							"type": "uint256"
						},
						{
							"internalType": "uint256",
							"name": "_bonusEndBlock",
							"type": "uint256"
						}
					],
					"name": "setBonus",
					"outputs": [],
					"stateMutability": "nonpayable",
					"type": "function"
				},
				{
					"inputs": [
						{
							"internalType": "address",
							"name": "_devaddr",
							"type": "address"
						}
					],
					"name": "setDev",
					"outputs": [],
					"stateMutability": "nonpayable",
					"type": "function"
				},
				{
					"inputs": [
						{
							"internalType": "address",
							"name": "_address",
							"type": "address"
						},
						{
							"internalType": "bool",
							"name": "_type",
							"type": "bool"
						}
					],
					"name": "setExecutor",
					"outputs": [
						{
							"internalType": "bool",
							"name": "",
							"type": "bool"
						}
					],
					"stateMutability": "nonpayable",
					"type": "function"
				},
				{
					"inputs": [
						{
							"internalType": "uint256",
							"name": "_pid",
							"type": "uint256"
						},
						{
							"internalType": "uint256",
							"name": "_allocPoint",
							"type": "uint256"
						},
						{
							"internalType": "bool",
							"name": "_withUpdate",
							"type": "bool"
						}
					],
					"name": "setPool",
					"outputs": [],
					"stateMutability": "nonpayable",
					"type": "function"
				},
				{
					"inputs": [
						{
							"internalType": "uint256",
							"name": "_seaPerBlock",
							"type": "uint256"
						}
					],
					"name": "setSeaPerBlock",
					"outputs": [],
					"stateMutability": "nonpayable",
					"type": "function"
				},
				{
					"inputs": [],
					"name": "startBlock",
					"outputs": [
						{
							"internalType": "uint256",
							"name": "",
							"type": "uint256"
						}
					],
					"stateMutability": "view",
					"type": "function"
				},
				{
					"inputs": [],
					"name": "totalAllocPoint",
					"outputs": [
						{
							"internalType": "uint256",
							"name": "",
							"type": "uint256"
						}
					],
					"stateMutability": "view",
					"type": "function"
				},
				{
					"inputs": [
						{
							"internalType": "address",
							"name": "newOwner",
							"type": "address"
						}
					],
					"name": "transferOwnership",
					"outputs": [],
					"stateMutability": "nonpayable",
					"type": "function"
				},
				{
					"inputs": [
						{
							"internalType": "uint256",
							"name": "_pid",
							"type": "uint256"
						}
					],
					"name": "updatePool",
					"outputs": [],
					"stateMutability": "nonpayable",
					"type": "function"
				},
				{
					"inputs": [
						{
							"internalType": "uint256",
							"name": "",
							"type": "uint256"
						},
						{
							"internalType": "address",
							"name": "",
							"type": "address"
						}
					],
					"name": "userInfo",
					"outputs": [
						{
							"internalType": "uint256",
							"name": "amount",
							"type": "uint256"
						},
						{
							"internalType": "uint256",
							"name": "rewardDebt",
							"type": "uint256"
						},
						{
							"internalType": "uint256",
							"name": "bonusDebt",
							"type": "uint256"
						},
						{
							"internalType": "address",
							"name": "fundedBy",
							"type": "address"
						}
					],
					"stateMutability": "view",
					"type": "function"
				},
				{
					"inputs": [
						{
							"internalType": "address",
							"name": "_for",
							"type": "address"
						},
						{
							"internalType": "uint256",
							"name": "_pid",
							"type": "uint256"
						},
						{
							"internalType": "uint256",
							"name": "_amount",
							"type": "uint256"
						}
					],
					"name": "withdraw",
					"outputs": [],
					"stateMutability": "nonpayable",
					"type": "function"
				},
				{
					"inputs": [
						{
							"internalType": "address",
							"name": "_for",
							"type": "address"
						},
						{
							"internalType": "uint256",
							"name": "_pid",
							"type": "uint256"
						}
					],
					"name": "withdrawAll",
					"outputs": [],
					"stateMutability": "nonpayable",
					"type": "function"
				},
				{
					"inputs": [
						{
							"internalType": "address",
							"name": "_address",
							"type": "address"
						},
						{
							"internalType": "uint256",
							"name": "_amt",
							"type": "uint256"
						}
					],
					"name": "withdrawalERC20",
					"outputs": [
						{
							"internalType": "bool",
							"name": "",
							"type": "bool"
						}
					],
					"stateMutability": "nonpayable",
					"type": "function"
				}
			],
			"devdoc": {
				"kind": "dev",
				"methods": {
					"owner()": {
						"details": "Returns the address of the current owner."
					},
					"renounceOwnership()": {
						"details": "Leaves the contract without owner. It will not be possible to call `onlyOwner` functions anymore. Can only be called by the current owner. NOTE: Renouncing ownership will leave the contract without an owner, thereby removing any functionality that is only available to the owner."
					},
					"transferOwnership(address)": {
						"details": "Transfers ownership of the contract to a new account (`newOwner`). Can only be called by the current owner."
					}
				},
				"version": 1
			},
			"evm": {
				"assembly": "    /* \"contracts/farm.sol\":25189:40117  contract FairLaunch is IFairLaunch, Ownable, ReentrancyGuard {... */\n  mstore(0x40, 0x80)\n    /* \"contracts/farm.sol\":28008:28425  constructor(... */\n  callvalue\n  dup1\n  iszero\n  tag_1\n  jumpi\n  0x00\n  dup1\n  revert\ntag_1:\n  pop\n  mload(0x40)\n  sub(codesize, bytecodeSize)\n  dup1\n  bytecodeSize\n  dup4\n  codecopy\n  dup2\n  add\n  0x40\n  dup2\n  swap1\n  mstore\n  tag_2\n  swap2\n  tag_3\n  jump\t// in\ntag_2:\n    /* \"@openzeppelin/contracts/access/Ownable.sol\":921:953  _transferOwnership(_msgSender()) */\n  tag_8\n    /* \"@openzeppelin/contracts/access/Ownable.sol\":940:952  _msgSender() */\n  tag_9\n    /* \"@openzeppelin/contracts/access/Ownable.sol\":940:950  _msgSender */\n  tag_10\n    /* \"@openzeppelin/contracts/access/Ownable.sol\":940:952  _msgSender() */\n  jump\t// in\ntag_9:\n    /* \"@openzeppelin/contracts/access/Ownable.sol\":921:939  _transferOwnership */\n  tag_11\n    /* \"@openzeppelin/contracts/access/Ownable.sol\":921:953  _transferOwnership(_msgSender()) */\n  jump\t// in\ntag_8:\n    /* \"contracts/farm.sol\":23559:23560  1 */\n  0x01\n    /* \"contracts/farm.sol\":23543:23560  _guardCounter = 1 */\n  dup1\n  dup1\n  sstore\n    /* \"contracts/farm.sol\":28193:28194  0 */\n  0x00\n    /* \"contracts/farm.sol\":28175:28190  bonusMultiplier */\n  0x05\n    /* \"contracts/farm.sol\":28175:28194  bonusMultiplier = 0 */\n  dup2\n  swap1\n  sstore\n    /* \"contracts/farm.sol\":28204:28219  totalAllocPoint */\n  0x09\n    /* \"contracts/farm.sol\":28204:28223  totalAllocPoint = 0 */\n  dup2\n  swap1\n  sstore\n    /* \"contracts/farm.sol\":28233:28236  sea */\n  0x02\n    /* \"contracts/farm.sol\":28233:28243  sea = _sea */\n  dup1\n  sload\n  sub(shl(0xa0, 0x01), 0x01)\n  swap9\n  dup10\n  and\n  not(sub(shl(0xa0, 0x01), 0x01))\n  swap2\n  dup3\n  and\n  or\n  swap1\n  swap2\n  sstore\n  0x03\n    /* \"contracts/farm.sol\":28253:28271  devaddr = _devaddr */\n  dup1\n  sload\n  swap8\n  swap1\n  swap9\n  and\n  swap7\n  and\n  swap6\n  swap1\n  swap6\n  or\n  swap1\n  swap6\n  sstore\n    /* \"contracts/farm.sol\":28281:28292  seaPerBlock */\n  0x04\n    /* \"contracts/farm.sol\":28281:28307  seaPerBlock = _seaPerBlock */\n  swap3\n  swap1\n  swap3\n  sstore\n  0x06\n    /* \"contracts/farm.sol\":28317:28347  bonusEndBlock = _bonusEndBlock */\n  swap2\n  swap1\n  swap2\n  sstore\n    /* \"contracts/farm.sol\":28357:28367  startBlock */\n  0x0a\n    /* \"contracts/farm.sol\":28357:28381  startBlock = _startBlock */\n  sstore\n    /* \"contracts/farm.sol\":28400:28410  msg.sender */\n  caller\n    /* \"contracts/farm.sol\":28391:28411  executor[msg.sender] */\n  dup2\n  mstore\n    /* \"contracts/farm.sol\":28391:28399  executor */\n  0x0b\n    /* \"contracts/farm.sol\":28391:28411  executor[msg.sender] */\n  0x20\n  mstore\n  0x40\n  swap1\n  keccak256\n    /* \"contracts/farm.sol\":28391:28418  executor[msg.sender] = true */\n  dup1\n  sload\n  not(0xff)\n  and\n  swap1\n  swap2\n  or\n  swap1\n  sstore\n    /* \"contracts/farm.sol\":25189:40117  contract FairLaunch is IFairLaunch, Ownable, ReentrancyGuard {... */\n  jump(tag_17)\n    /* \"@openzeppelin/contracts/utils/Context.sol\":640:736  function _msgSender() internal view virtual returns (address) {... */\ntag_10:\n    /* \"@openzeppelin/contracts/utils/Context.sol\":719:729  msg.sender */\n  caller\n    /* \"@openzeppelin/contracts/utils/Context.sol\":640:736  function _msgSender() internal view virtual returns (address) {... */\n  swap1\n  jump\t// out\n    /* \"@openzeppelin/contracts/access/Ownable.sol\":2270:2457  function _transferOwnership(address newOwner) internal virtual {... */\ntag_11:\n    /* \"@openzeppelin/contracts/access/Ownable.sol\":2343:2359  address oldOwner */\n  0x00\n    /* \"@openzeppelin/contracts/access/Ownable.sol\":2362:2368  _owner */\n  dup1\n  sload\n  sub(shl(0xa0, 0x01), 0x01)\n    /* \"@openzeppelin/contracts/access/Ownable.sol\":2378:2395  _owner = newOwner */\n  dup4\n  dup2\n  and\n  not(sub(shl(0xa0, 0x01), 0x01))\n  dup4\n  and\n  dup2\n  or\n  dup5\n  sstore\n    /* \"@openzeppelin/contracts/access/Ownable.sol\":2410:2450  OwnershipTransferred(oldOwner, newOwner) */\n  mload(0x40)\n    /* \"@openzeppelin/contracts/access/Ownable.sol\":2362:2368  _owner */\n  swap2\n  swap1\n  swap3\n  and\n  swap3\n  dup4\n  swap2\n    /* \"@openzeppelin/contracts/access/Ownable.sol\":2410:2450  OwnershipTransferred(oldOwner, newOwner) */\n  0x8be0079c531659141344cd1fd0a4f28419497f9722a3daafe3b4186f6b6457e0\n  swap2\n    /* \"@openzeppelin/contracts/access/Ownable.sol\":2343:2359  address oldOwner */\n  swap1\n    /* \"@openzeppelin/contracts/access/Ownable.sol\":2410:2450  OwnershipTransferred(oldOwner, newOwner) */\n  log3\n    /* \"@openzeppelin/contracts/access/Ownable.sol\":2270:2457  function _transferOwnership(address newOwner) internal virtual {... */\n  pop\n  pop\n  jump\t// out\n    /* \"#utility.yul\":14:193   */\ntag_18:\n    /* \"#utility.yul\":95:108   */\n  dup1\n  mload\n  sub(shl(0xa0, 0x01), 0x01)\n    /* \"#utility.yul\":137:168   */\n  dup2\n  and\n    /* \"#utility.yul\":127:169   */\n  dup2\n  eq\n    /* \"#utility.yul\":117:119   */\n  tag_20\n  jumpi\n    /* \"#utility.yul\":183:184   */\n  0x00\n    /* \"#utility.yul\":180:181   */\n  dup1\n    /* \"#utility.yul\":173:185   */\n  revert\n    /* \"#utility.yul\":117:119   */\ntag_20:\n    /* \"#utility.yul\":76:193   */\n  swap2\n  swap1\n  pop\n  jump\t// out\n    /* \"#utility.yul\":198:690   */\ntag_3:\n  0x00\n  dup1\n  0x00\n  dup1\n  0x00\n    /* \"#utility.yul\":389:392   */\n  0xa0\n    /* \"#utility.yul\":377:386   */\n  dup7\n    /* \"#utility.yul\":368:375   */\n  dup9\n    /* \"#utility.yul\":364:387   */\n  sub\n    /* \"#utility.yul\":360:393   */\n  slt\n    /* \"#utility.yul\":357:359   */\n  iszero\n  tag_22\n  jumpi\n    /* \"#utility.yul\":411:417   */\n  dup1\n    /* \"#utility.yul\":403:409   */\n  dup2\n    /* \"#utility.yul\":396:418   */\n  revert\n    /* \"#utility.yul\":357:359   */\ntag_22:\n    /* \"#utility.yul\":439:481   */\n  tag_23\n    /* \"#utility.yul\":471:480   */\n  dup7\n    /* \"#utility.yul\":439:481   */\n  tag_18\n  jump\t// in\ntag_23:\n    /* \"#utility.yul\":429:481   */\n  swap5\n  pop\n    /* \"#utility.yul\":500:551   */\n  tag_24\n    /* \"#utility.yul\":547:549   */\n  0x20\n    /* \"#utility.yul\":536:545   */\n  dup8\n    /* \"#utility.yul\":532:550   */\n  add\n    /* \"#utility.yul\":500:551   */\n  tag_18\n  jump\t// in\ntag_24:\n    /* \"#utility.yul\":591:593   */\n  0x40\n    /* \"#utility.yul\":576:594   */\n  dup8\n  add\n    /* \"#utility.yul\":570:595   */\n  mload\n    /* \"#utility.yul\":635:637   */\n  0x60\n    /* \"#utility.yul\":620:638   */\n  dup9\n  add\n    /* \"#utility.yul\":614:639   */\n  mload\n    /* \"#utility.yul\":679:682   */\n  0x80\n    /* \"#utility.yul\":664:683   */\n  swap1\n  swap9\n  add\n    /* \"#utility.yul\":658:684   */\n  mload\n    /* \"#utility.yul\":347:690   */\n  swap7\n  swap10\n    /* \"#utility.yul\":490:551   */\n  swap2\n  swap9\n  pop\n    /* \"#utility.yul\":570:595   */\n  swap7\n    /* \"#utility.yul\":614:639   */\n  swap6\n    /* \"#utility.yul\":658:684   */\n  swap5\n  pop\n    /* \"#utility.yul\":347:690   */\n  swap3\n  pop\n  pop\n  pop\n  jump\t// out\ntag_17:\n    /* \"contracts/farm.sol\":25189:40117  contract FairLaunch is IFairLaunch, Ownable, ReentrancyGuard {... */\n  dataSize(sub_0)\n  dup1\n  dataOffset(sub_0)\n  0x00\n  codecopy\n  0x00\n  return\nstop\n\nsub_0: assembly {\n        /* \"contracts/farm.sol\":25189:40117  contract FairLaunch is IFairLaunch, Ownable, ReentrancyGuard {... */\n      mstore(0x40, 0x80)\n      callvalue\n      dup1\n      iszero\n      tag_1\n      jumpi\n      0x00\n      dup1\n      revert\n    tag_1:\n      pop\n      jumpi(tag_2, lt(calldatasize, 0x04))\n      shr(0xe0, calldataload(0x00))\n      dup1\n      0x715018a6\n      gt\n      tag_36\n      jumpi\n      dup1\n      0xb5c5f672\n      gt\n      tag_37\n      jumpi\n      dup1\n      0xd4a91e38\n      gt\n      tag_38\n      jumpi\n      dup1\n      0xd4a91e38\n      eq\n      tag_31\n      jumpi\n      dup1\n      0xddc63262\n      eq\n      tag_32\n      jumpi\n      dup1\n      0xe4c5ff46\n      eq\n      tag_33\n      jumpi\n      dup1\n      0xf1101804\n      eq\n      tag_34\n      jumpi\n      dup1\n      0xf2fde38b\n      eq\n      tag_35\n      jumpi\n      jump(tag_2)\n    tag_38:\n      dup1\n      0xb5c5f672\n      eq\n      tag_27\n      jumpi\n      dup1\n      0xcc6dbc27\n      eq\n      tag_28\n      jumpi\n      dup1\n      0xd477f05f\n      eq\n      tag_29\n      jumpi\n      dup1\n      0xd49e77cd\n      eq\n      tag_30\n      jumpi\n      jump(tag_2)\n    tag_37:\n      dup1\n      0x930ed033\n      gt\n      tag_39\n      jumpi\n      dup1\n      0x930ed033\n      eq\n      tag_23\n      jumpi\n      dup1\n      0x93f1a40b\n      eq\n      tag_24\n      jumpi\n      dup1\n      0xa8b973a1\n      eq\n      tag_25\n      jumpi\n      dup1\n      0xb03df69d\n      eq\n      tag_26\n      jumpi\n      jump(tag_2)\n    tag_39:\n      dup1\n      0x715018a6\n      eq\n      tag_19\n      jumpi\n      dup1\n      0x7abceffd\n      eq\n      tag_20\n      jumpi\n      dup1\n      0x8da5cb5b\n      eq\n      tag_21\n      jumpi\n      dup1\n      0x8dbb1e3a\n      eq\n      tag_22\n      jumpi\n      jump(tag_2)\n    tag_36:\n      dup1\n      0x2e97766d\n      gt\n      tag_40\n      jumpi\n      dup1\n      0x4ecaac41\n      gt\n      tag_41\n      jumpi\n      dup1\n      0x4ecaac41\n      eq\n      tag_15\n      jumpi\n      dup1\n      0x51eb05a6\n      eq\n      tag_16\n      jumpi\n      dup1\n      0x5312ea8e\n      eq\n      tag_17\n      jumpi\n      dup1\n      0x630b5ba1\n      eq\n      tag_18\n      jumpi\n      jump(tag_2)\n    tag_41:\n      dup1\n      0x2e97766d\n      eq\n      tag_11\n      jumpi\n      dup1\n      0x46ca6bea\n      eq\n      tag_12\n      jumpi\n      dup1\n      0x48c7e528\n      eq\n      tag_13\n      jumpi\n      dup1\n      0x48cd4cb1\n      eq\n      tag_14\n      jumpi\n      jump(tag_2)\n    tag_40:\n      dup1\n      0x17caf6f1\n      gt\n      tag_42\n      jumpi\n      dup1\n      0x17caf6f1\n      eq\n      tag_7\n      jumpi\n      dup1\n      0x1aed6553\n      eq\n      tag_8\n      jumpi\n      dup1\n      0x1e1bff3f\n      eq\n      tag_9\n      jumpi\n      dup1\n      0x24cdee22\n      eq\n      tag_10\n      jumpi\n      jump(tag_2)\n    tag_42:\n      dup1\n      0x037c99b0\n      eq\n      tag_3\n      jumpi\n      dup1\n      0x081e3eda\n      eq\n      tag_4\n      jumpi\n      dup1\n      0x0efe6a8b\n      eq\n      tag_5\n      jumpi\n      dup1\n      0x1526fe27\n      eq\n      tag_6\n      jumpi\n    tag_2:\n      0x00\n      dup1\n      revert\n        /* \"contracts/farm.sol\":29794:30141  function setBonus(uint256 _bonusMultiplier, uint256 _bonusEndBlock)... */\n    tag_3:\n      tag_43\n      tag_44\n      calldatasize\n      0x04\n      tag_45\n      jump\t// in\n    tag_44:\n      tag_46\n      jump\t// in\n    tag_43:\n      stop\n        /* \"contracts/farm.sol\":31774:31876  function poolLength() external view override returns (uint256) {... */\n    tag_4:\n      tag_47\n      tag_48\n      jump\t// in\n    tag_47:\n      mload(0x40)\n      tag_49\n      swap2\n      swap1\n      tag_50\n      jump\t// in\n    tag_49:\n      mload(0x40)\n      dup1\n      swap2\n      sub\n      swap1\n      return\n        /* \"contracts/farm.sol\":35783:36764  function deposit(... */\n    tag_5:\n      tag_43\n      tag_52\n      calldatasize\n      0x04\n      tag_53\n      jump\t// in\n    tag_52:\n      tag_54\n      jump\t// in\n        /* \"contracts/farm.sol\":27142:27168  PoolInfo[] public poolInfo */\n    tag_6:\n      tag_55\n      tag_56\n      calldatasize\n      0x04\n      tag_57\n      jump\t// in\n    tag_56:\n      tag_58\n      jump\t// in\n    tag_55:\n      mload(0x40)\n      tag_49\n      swap6\n      swap5\n      swap4\n      swap3\n      swap2\n      swap1\n      tag_60\n      jump\t// in\n        /* \"contracts/farm.sol\":27384:27414  uint256 public totalAllocPoint */\n    tag_7:\n      tag_47\n      tag_62\n      jump\t// in\n        /* \"contracts/farm.sol\":27081:27109  uint256 public bonusEndBlock */\n    tag_8:\n      tag_47\n      tag_65\n      jump\t// in\n        /* \"contracts/farm.sol\":28961:29138  function setExecutor(address _address, bool _type)... */\n    tag_9:\n      tag_67\n      tag_68\n      calldatasize\n      0x04\n      tag_69\n      jump\t// in\n    tag_68:\n      tag_70\n      jump\t// in\n    tag_67:\n      mload(0x40)\n      tag_49\n      swap2\n      swap1\n      tag_72\n      jump\t// in\n        /* \"contracts/farm.sol\":32899:33839  function pendingSea(uint256 _pid, address _user)... */\n    tag_10:\n      tag_47\n      tag_74\n      calldatasize\n      0x04\n      tag_75\n      jump\t// in\n    tag_74:\n      tag_76\n      jump\t// in\n        /* \"contracts/farm.sol\":39817:39905  function getBlock() external view returns (uint256) {... */\n    tag_11:\n      tag_47\n      tag_79\n      jump\t// in\n        /* \"contracts/farm.sol\":31114:31480  function setPool(... */\n    tag_12:\n      tag_43\n      tag_82\n      calldatasize\n      0x04\n      tag_83\n      jump\t// in\n    tag_82:\n      tag_84\n      jump\t// in\n        /* \"contracts/farm.sol\":27514:27554  mapping(address => bool) public executor */\n    tag_13:\n      tag_67\n      tag_86\n      calldatasize\n      0x04\n      tag_87\n      jump\t// in\n    tag_86:\n      tag_88\n      jump\t// in\n        /* \"contracts/farm.sol\":27468:27493  uint256 public startBlock */\n    tag_14:\n      tag_47\n      tag_91\n      jump\t// in\n        /* \"contracts/farm.sol\":26811:26829  address public sea */\n    tag_15:\n      tag_93\n      tag_94\n      jump\t// in\n    tag_93:\n      mload(0x40)\n      tag_49\n      swap2\n      swap1\n      tag_96\n      jump\t// in\n        /* \"contracts/farm.sol\":34167:35708  function updatePool(uint256 _pid) public override {... */\n    tag_16:\n      tag_43\n      tag_98\n      calldatasize\n      0x04\n      tag_57\n      jump\t// in\n    tag_98:\n      tag_99\n      jump\t// in\n        /* \"contracts/farm.sol\":39021:39414  function emergencyWithdraw(uint256 _pid) public {... */\n    tag_17:\n      tag_43\n      tag_101\n      calldatasize\n      0x04\n      tag_57\n      jump\t// in\n    tag_101:\n      tag_102\n      jump\t// in\n        /* \"contracts/farm.sol\":33919:34094  function massUpdatePools() public {... */\n    tag_18:\n      tag_43\n      tag_104\n      jump\t// in\n        /* \"@openzeppelin/contracts/access/Ownable.sol\":1668:1769  function renounceOwnership() public virtual onlyOwner {... */\n    tag_19:\n      tag_43\n      tag_106\n      jump\t// in\n        /* \"contracts/farm.sol\":30213:31022  function addPool(... */\n    tag_20:\n      tag_43\n      tag_108\n      calldatasize\n      0x04\n      tag_109\n      jump\t// in\n    tag_108:\n      tag_110\n      jump\t// in\n        /* \"@openzeppelin/contracts/access/Ownable.sol\":1036:1121  function owner() public view virtual returns (address) {... */\n    tag_21:\n      tag_93\n      tag_112\n      jump\t// in\n        /* \"contracts/farm.sol\":32115:32839  function getMultiplier(uint256 _lastRewardBlock, uint256 _currentBlock)... */\n    tag_22:\n      tag_47\n      tag_115\n      calldatasize\n      0x04\n      tag_45\n      jump\t// in\n    tag_115:\n      tag_116\n      jump\t// in\n        /* \"contracts/farm.sol\":39911:40115  function withdrawalERC20(address _address, uint256 _amt)... */\n    tag_23:\n      tag_67\n      tag_119\n      calldatasize\n      0x04\n      tag_120\n      jump\t// in\n    tag_119:\n      tag_121\n      jump\t// in\n        /* \"contracts/farm.sol\":27227:27291  mapping(uint256 => mapping(address => UserInfo)) public userInfo */\n    tag_24:\n      tag_123\n      tag_124\n      calldatasize\n      0x04\n      tag_75\n      jump\t// in\n    tag_124:\n      tag_125\n      jump\t// in\n    tag_123:\n      mload(0x40)\n      tag_49\n      swap5\n      swap4\n      swap3\n      swap2\n      swap1\n      tag_127\n      jump\t// in\n        /* \"contracts/farm.sol\":26997:27027  uint256 public bonusMultiplier */\n    tag_25:\n      tag_47\n      tag_129\n      jump\t// in\n        /* \"contracts/farm.sol\":31486:31768  function isDuplicatedPool(address _stakeToken) public view returns (bool) {... */\n    tag_26:\n      tag_67\n      tag_132\n      calldatasize\n      0x04\n      tag_87\n      jump\t// in\n    tag_132:\n      tag_133\n      jump\t// in\n        /* \"contracts/farm.sol\":36823:36992  function withdraw(... */\n    tag_27:\n      tag_43\n      tag_136\n      calldatasize\n      0x04\n      tag_53\n      jump\t// in\n    tag_136:\n      tag_137\n      jump\t// in\n        /* \"contracts/farm.sol\":36998:37171  function withdrawAll(address _for, uint256 _pid)... */\n    tag_28:\n      tag_43\n      tag_139\n      calldatasize\n      0x04\n      tag_120\n      jump\t// in\n    tag_139:\n      tag_140\n      jump\t// in\n        /* \"contracts/farm.sol\":29318:29483  function setDev(address _devaddr) public onlyOwner {... */\n    tag_29:\n      tag_43\n      tag_142\n      calldatasize\n      0x04\n      tag_87\n      jump\t// in\n    tag_142:\n      tag_143\n      jump\t// in\n        /* \"contracts/farm.sol\":26855:26877  address public devaddr */\n    tag_30:\n      tag_93\n      tag_145\n      jump\t// in\n        /* \"contracts/farm.sol\":29489:29638  function setSeaPerBlock(uint256 _seaPerBlock) public onlyOwner {... */\n    tag_31:\n      tag_43\n      tag_148\n      calldatasize\n      0x04\n      tag_57\n      jump\t// in\n    tag_148:\n      tag_149\n      jump\t// in\n        /* \"contracts/farm.sol\":38038:38448  function harvest(uint256 _pid) public override {... */\n    tag_32:\n      tag_43\n      tag_151\n      calldatasize\n      0x04\n      tag_57\n      jump\t// in\n    tag_151:\n      tag_152\n      jump\t// in\n        /* \"contracts/farm.sol\":31882:32042  function manualMint(address _to, uint256 _amount) public onlyOwner {... */\n    tag_33:\n      tag_43\n      tag_154\n      calldatasize\n      0x04\n      tag_120\n      jump\t// in\n    tag_154:\n      tag_155\n      jump\t// in\n        /* \"contracts/farm.sol\":26920:26946  uint256 public seaPerBlock */\n    tag_34:\n      tag_47\n      tag_157\n      jump\t// in\n        /* \"@openzeppelin/contracts/access/Ownable.sol\":1918:2116  function transferOwnership(address newOwner) public virtual onlyOwner {... */\n    tag_35:\n      tag_43\n      tag_160\n      calldatasize\n      0x04\n      tag_87\n      jump\t// in\n    tag_160:\n      tag_161\n      jump\t// in\n        /* \"contracts/farm.sol\":29794:30141  function setBonus(uint256 _bonusMultiplier, uint256 _bonusEndBlock)... */\n    tag_46:\n        /* \"@openzeppelin/contracts/access/Ownable.sol\":1259:1271  _msgSender() */\n      tag_163\n        /* \"@openzeppelin/contracts/access/Ownable.sol\":1259:1269  _msgSender */\n      tag_164\n        /* \"@openzeppelin/contracts/access/Ownable.sol\":1259:1271  _msgSender() */\n      jump\t// in\n    tag_163:\n      sub(shl(0xa0, 0x01), 0x01)\n        /* \"@openzeppelin/contracts/access/Ownable.sol\":1248:1271  owner() == _msgSender() */\n      and\n        /* \"@openzeppelin/contracts/access/Ownable.sol\":1248:1255  owner() */\n      tag_165\n        /* \"@openzeppelin/contracts/access/Ownable.sol\":1248:1253  owner */\n      tag_112\n        /* \"@openzeppelin/contracts/access/Ownable.sol\":1248:1255  owner() */\n      jump\t// in\n    tag_165:\n      sub(shl(0xa0, 0x01), 0x01)\n        /* \"@openzeppelin/contracts/access/Ownable.sol\":1248:1271  owner() == _msgSender() */\n      and\n      eq\n        /* \"@openzeppelin/contracts/access/Ownable.sol\":1240:1308  require(owner() == _msgSender(), \"Ownable: caller is not the owner\") */\n      tag_166\n      jumpi\n      mload(0x40)\n      shl(0xe5, 0x461bcd)\n      dup2\n      mstore\n      0x04\n      add\n      tag_167\n      swap1\n      tag_168\n      jump\t// in\n    tag_167:\n      mload(0x40)\n      dup1\n      swap2\n      sub\n      swap1\n      revert\n    tag_166:\n        /* \"contracts/farm.sol\":29934:29946  block.number */\n      number\n        /* \"contracts/farm.sol\":29917:29931  _bonusEndBlock */\n      dup2\n        /* \"contracts/farm.sol\":29917:29946  _bonusEndBlock > block.number */\n      gt\n        /* \"contracts/farm.sol\":29909:29978  require(_bonusEndBlock > block.number, \"setBonus: bad bonusEndBlock\") */\n      tag_170\n      jumpi\n      mload(0x40)\n      shl(0xe5, 0x461bcd)\n      dup2\n      mstore\n      0x04\n      add\n      tag_167\n      swap1\n      tag_172\n      jump\t// in\n    tag_170:\n        /* \"contracts/farm.sol\":30015:30016  1 */\n      0x01\n        /* \"contracts/farm.sol\":29996:30012  _bonusMultiplier */\n      dup3\n        /* \"contracts/farm.sol\":29996:30016  _bonusMultiplier > 1 */\n      gt\n        /* \"contracts/farm.sol\":29988:30050  require(_bonusMultiplier > 1, \"setBonus: bad bonusMultiplier\") */\n      tag_173\n      jumpi\n      mload(0x40)\n      shl(0xe5, 0x461bcd)\n      dup2\n      mstore\n      0x04\n      add\n      tag_167\n      swap1\n      tag_175\n      jump\t// in\n    tag_173:\n        /* \"contracts/farm.sol\":30060:30075  bonusMultiplier */\n      0x05\n        /* \"contracts/farm.sol\":30060:30094  bonusMultiplier = _bonusMultiplier */\n      swap2\n      swap1\n      swap2\n      sstore\n        /* \"contracts/farm.sol\":30104:30117  bonusEndBlock */\n      0x06\n        /* \"contracts/farm.sol\":30104:30134  bonusEndBlock = _bonusEndBlock */\n      sstore\n        /* \"contracts/farm.sol\":29794:30141  function setBonus(uint256 _bonusMultiplier, uint256 _bonusEndBlock)... */\n      jump\t// out\n        /* \"contracts/farm.sol\":31774:31876  function poolLength() external view override returns (uint256) {... */\n    tag_48:\n        /* \"contracts/farm.sol\":31854:31862  poolInfo */\n      0x07\n        /* \"contracts/farm.sol\":31854:31869  poolInfo.length */\n      sload\n        /* \"contracts/farm.sol\":31774:31876  function poolLength() external view override returns (uint256) {... */\n      swap1\n      jump\t// out\n        /* \"contracts/farm.sol\":35783:36764  function deposit(... */\n    tag_54:\n        /* \"contracts/farm.sol\":23993:23994  1 */\n      0x01\n        /* \"contracts/farm.sol\":23976:23989  _guardCounter */\n      dup1\n      0x00\n        /* \"contracts/farm.sol\":23976:23994  _guardCounter += 1 */\n      dup3\n      dup3\n      sload\n      tag_178\n      swap2\n      swap1\n      tag_179\n      jump\t// in\n    tag_178:\n      swap1\n      swap2\n      sstore\n      pop\n      pop\n        /* \"contracts/farm.sol\":24027:24040  _guardCounter */\n      sload(0x01)\n        /* \"contracts/farm.sol\":35938:35946  poolInfo */\n      0x07\n        /* \"contracts/farm.sol\":35938:35952  poolInfo[_pid] */\n      dup1\n      sload\n        /* \"contracts/farm.sol\":24004:24024  uint256 localCounter */\n      0x00\n      swap2\n        /* \"contracts/farm.sol\":35938:35946  poolInfo */\n      swap1\n        /* \"contracts/farm.sol\":35947:35951  _pid */\n      dup6\n      swap1\n        /* \"contracts/farm.sol\":35938:35952  poolInfo[_pid] */\n      dup2\n      lt\n      tag_181\n      jumpi\n      mstore(0x00, shl(0xe0, 0x4e487b71))\n      mstore(0x04, 0x32)\n      revert(0x00, 0x24)\n    tag_181:\n      0x00\n      swap2\n      dup3\n      mstore\n      0x20\n      dup1\n      dup4\n      keccak256\n        /* \"contracts/farm.sol\":35986:36000  userInfo[_pid] */\n      dup8\n      dup5\n      mstore\n        /* \"contracts/farm.sol\":35986:35994  userInfo */\n      0x08\n        /* \"contracts/farm.sol\":35986:36000  userInfo[_pid] */\n      dup3\n      mstore\n      0x40\n      dup1\n      dup6\n      keccak256\n      sub(shl(0xa0, 0x01), 0x01)\n        /* \"contracts/farm.sol\":35986:36006  userInfo[_pid][_for] */\n      dup1\n      dup13\n      and\n      dup8\n      mstore\n      swap4\n      mstore\n      swap1\n      swap4\n      keccak256\n        /* \"contracts/farm.sol\":36020:36033  user.fundedBy */\n      0x03\n      dup2\n      add\n      sload\n        /* \"contracts/farm.sol\":35938:35952  poolInfo[_pid] */\n      0x05\n      swap1\n      swap4\n      mul\n      swap1\n      swap4\n      add\n      swap4\n      pop\n        /* \"contracts/farm.sol\":36020:36033  user.fundedBy */\n      and\n        /* \"contracts/farm.sol\":36020:36047  user.fundedBy != address(0) */\n      iszero\n        /* \"contracts/farm.sol\":36016:36108  if (user.fundedBy != address(0))... */\n      tag_184\n      jumpi\n        /* \"contracts/farm.sol\":36069:36082  user.fundedBy */\n      0x03\n      dup2\n      add\n      sload\n      sub(shl(0xa0, 0x01), 0x01)\n      and\n        /* \"contracts/farm.sol\":36086:36096  msg.sender */\n      caller\n        /* \"contracts/farm.sol\":36069:36096  user.fundedBy == msg.sender */\n      eq\n        /* \"contracts/farm.sol\":36061:36108  require(user.fundedBy == msg.sender, \"bad sof\") */\n      tag_184\n      jumpi\n      mload(0x40)\n      shl(0xe5, 0x461bcd)\n      dup2\n      mstore\n      0x04\n      add\n      tag_167\n      swap1\n      tag_186\n      jump\t// in\n    tag_184:\n        /* \"contracts/farm.sol\":36126:36141  pool.stakeToken */\n      dup2\n      sload\n      sub(shl(0xa0, 0x01), 0x01)\n      and\n        /* \"contracts/farm.sol\":36118:36187  require(pool.stakeToken != address(0), \"deposit: not accept deposit\") */\n      tag_187\n      jumpi\n      mload(0x40)\n      shl(0xe5, 0x461bcd)\n      dup2\n      mstore\n      0x04\n      add\n      tag_167\n      swap1\n      tag_189\n      jump\t// in\n    tag_187:\n        /* \"contracts/farm.sol\":36197:36213  updatePool(_pid) */\n      tag_190\n        /* \"contracts/farm.sol\":36208:36212  _pid */\n      dup6\n        /* \"contracts/farm.sol\":36197:36207  updatePool */\n      tag_99\n        /* \"contracts/farm.sol\":36197:36213  updatePool(_pid) */\n      jump\t// in\n    tag_190:\n        /* \"contracts/farm.sol\":36227:36238  user.amount */\n      dup1\n      sload\n        /* \"contracts/farm.sol\":36227:36242  user.amount > 0 */\n      iszero\n        /* \"contracts/farm.sol\":36223:36264  if (user.amount > 0) _harvest(_for, _pid) */\n      tag_192\n      jumpi\n        /* \"contracts/farm.sol\":36244:36264  _harvest(_for, _pid) */\n      tag_192\n        /* \"contracts/farm.sol\":36253:36257  _for */\n      dup7\n        /* \"contracts/farm.sol\":36259:36263  _pid */\n      dup7\n        /* \"contracts/farm.sol\":36244:36252  _harvest */\n      tag_193\n        /* \"contracts/farm.sol\":36244:36264  _harvest(_for, _pid) */\n      jump\t// in\n    tag_192:\n        /* \"contracts/farm.sol\":36278:36291  user.fundedBy */\n      0x03\n      dup2\n      add\n      sload\n      sub(shl(0xa0, 0x01), 0x01)\n      and\n        /* \"contracts/farm.sol\":36274:36333  if (user.fundedBy == address(0)) user.fundedBy = msg.sender */\n      tag_194\n      jumpi\n        /* \"contracts/farm.sol\":36307:36320  user.fundedBy */\n      0x03\n      dup2\n      add\n        /* \"contracts/farm.sol\":36307:36333  user.fundedBy = msg.sender */\n      dup1\n      sload\n      not(sub(shl(0xa0, 0x01), 0x01))\n      and\n        /* \"contracts/farm.sol\":36323:36333  msg.sender */\n      caller\n        /* \"contracts/farm.sol\":36307:36333  user.fundedBy = msg.sender */\n      or\n      swap1\n      sstore\n        /* \"contracts/farm.sol\":36274:36333  if (user.fundedBy == address(0)) user.fundedBy = msg.sender */\n    tag_194:\n        /* \"contracts/farm.sol\":36350:36365  pool.stakeToken */\n      dup2\n      sload\n        /* \"contracts/farm.sol\":36343:36474  IERC20(pool.stakeToken).safeTransferFrom(... */\n      tag_195\n      swap1\n      sub(shl(0xa0, 0x01), 0x01)\n        /* \"contracts/farm.sol\":36350:36365  pool.stakeToken */\n      and\n        /* \"contracts/farm.sol\":36405:36415  msg.sender */\n      caller\n        /* \"contracts/farm.sol\":36438:36442  this */\n      address\n        /* \"contracts/farm.sol\":36457:36464  _amount */\n      dup8\n        /* \"contracts/farm.sol\":36343:36383  IERC20(pool.stakeToken).safeTransferFrom */\n      tag_196\n        /* \"contracts/farm.sol\":36343:36474  IERC20(pool.stakeToken).safeTransferFrom(... */\n      jump\t// in\n    tag_195:\n        /* \"contracts/farm.sol\":36498:36509  user.amount */\n      dup1\n      sload\n        /* \"contracts/farm.sol\":36498:36522  user.amount.add(_amount) */\n      tag_197\n      swap1\n        /* \"contracts/farm.sol\":36514:36521  _amount */\n      dup6\n        /* \"contracts/farm.sol\":36498:36513  user.amount.add */\n      tag_198\n        /* \"contracts/farm.sol\":36498:36522  user.amount.add(_amount) */\n      jump\t// in\n    tag_197:\n        /* \"contracts/farm.sol\":36484:36522  user.amount = user.amount.add(_amount) */\n      dup1\n      dup3\n      sstore\n        /* \"contracts/farm.sol\":36566:36585  pool.accSeaPerShare */\n      0x03\n      dup4\n      add\n      sload\n        /* \"contracts/farm.sol\":36550:36599  user.amount.mul(pool.accSeaPerShare).div(GLO_VAL) */\n      tag_199\n      swap2\n        /* \"contracts/farm.sol\":25348:25352  1e12 */\n      0xe8d4a51000\n      swap2\n        /* \"contracts/farm.sol\":36550:36586  user.amount.mul(pool.accSeaPerShare) */\n      tag_200\n      swap2\n        /* \"contracts/farm.sol\":36484:36522  user.amount = user.amount.add(_amount) */\n      swap1\n        /* \"contracts/farm.sol\":36550:36565  user.amount.mul */\n      tag_201\n        /* \"contracts/farm.sol\":36550:36586  user.amount.mul(pool.accSeaPerShare) */\n      jump\t// in\n    tag_200:\n        /* \"contracts/farm.sol\":36550:36590  user.amount.mul(pool.accSeaPerShare).div */\n      swap1\n      tag_202\n        /* \"contracts/farm.sol\":36550:36599  user.amount.mul(pool.accSeaPerShare).div(GLO_VAL) */\n      jump\t// in\n    tag_199:\n        /* \"contracts/farm.sol\":36532:36547  user.rewardDebt */\n      0x01\n      dup3\n      add\n        /* \"contracts/farm.sol\":36532:36599  user.rewardDebt = user.amount.mul(pool.accSeaPerShare).div(GLO_VAL) */\n      sstore\n        /* \"contracts/farm.sol\":36642:36672  pool.accSeaPerShareTilBonusEnd */\n      0x04\n      dup3\n      add\n      sload\n        /* \"contracts/farm.sol\":36626:36637  user.amount */\n      dup2\n      sload\n        /* \"contracts/farm.sol\":36626:36708  user.amount.mul(pool.accSeaPerShareTilBonusEnd).div(... */\n      tag_203\n      swap2\n        /* \"contracts/farm.sol\":25348:25352  1e12 */\n      0xe8d4a51000\n      swap2\n        /* \"contracts/farm.sol\":36626:36673  user.amount.mul(pool.accSeaPerShareTilBonusEnd) */\n      tag_200\n      swap2\n        /* \"contracts/farm.sol\":36626:36641  user.amount.mul */\n      tag_201\n        /* \"contracts/farm.sol\":36626:36673  user.amount.mul(pool.accSeaPerShareTilBonusEnd) */\n      jump\t// in\n        /* \"contracts/farm.sol\":36626:36708  user.amount.mul(pool.accSeaPerShareTilBonusEnd).div(... */\n    tag_203:\n        /* \"contracts/farm.sol\":36609:36623  user.bonusDebt */\n      0x02\n      dup3\n      add\n        /* \"contracts/farm.sol\":36609:36708  user.bonusDebt = user.amount.mul(pool.accSeaPerShareTilBonusEnd).div(... */\n      sstore\n        /* \"contracts/farm.sol\":36723:36757  Deposit(msg.sender, _pid, _amount) */\n      mload(0x40)\n        /* \"contracts/farm.sol\":36743:36747  _pid */\n      dup6\n      swap1\n        /* \"contracts/farm.sol\":36731:36741  msg.sender */\n      caller\n      swap1\n        /* \"contracts/farm.sol\":36723:36757  Deposit(msg.sender, _pid, _amount) */\n      0x90890809c654f11d6e72a28fa60149770a0d11ec6c92319d6ceb2bb0a4ea1a15\n      swap1\n      tag_205\n      swap1\n        /* \"contracts/farm.sol\":36749:36756  _amount */\n      dup9\n      swap1\n        /* \"contracts/farm.sol\":36723:36757  Deposit(msg.sender, _pid, _amount) */\n      tag_50\n      jump\t// in\n    tag_205:\n      mload(0x40)\n      dup1\n      swap2\n      sub\n      swap1\n      log3\n        /* \"contracts/farm.sol\":24050:24051  _ */\n      pop\n      pop\n        /* \"contracts/farm.sol\":24098:24111  _guardCounter */\n      sload(0x01)\n        /* \"contracts/farm.sol\":24082:24094  localCounter */\n      dup2\n        /* \"contracts/farm.sol\":24082:24111  localCounter == _guardCounter */\n      eq\n        /* \"contracts/farm.sol\":24061:24168  require(... */\n      tag_206\n      jumpi\n      mload(0x40)\n      shl(0xe5, 0x461bcd)\n      dup2\n      mstore\n      0x04\n      add\n      tag_167\n      swap1\n      tag_208\n      jump\t// in\n    tag_206:\n        /* \"contracts/farm.sol\":35783:36764  function deposit(... */\n      pop\n      pop\n      pop\n      pop\n      jump\t// out\n        /* \"contracts/farm.sol\":27142:27168  PoolInfo[] public poolInfo */\n    tag_58:\n      0x07\n      dup2\n      dup2\n      sload\n      dup2\n      lt\n      tag_209\n      jumpi\n      0x00\n      dup1\n      revert\n    tag_209:\n      0x00\n      swap2\n      dup3\n      mstore\n      0x20\n      swap1\n      swap2\n      keccak256\n      0x05\n      swap1\n      swap2\n      mul\n      add\n      dup1\n      sload\n      0x01\n      dup3\n      add\n      sload\n      0x02\n      dup4\n      add\n      sload\n      0x03\n      dup5\n      add\n      sload\n      0x04\n      swap1\n      swap5\n      add\n      sload\n      sub(shl(0xa0, 0x01), 0x01)\n      swap1\n      swap4\n      and\n      swap5\n      pop\n      swap1\n      swap3\n      swap1\n      swap2\n      dup6\n      jump\t// out\n        /* \"contracts/farm.sol\":27384:27414  uint256 public totalAllocPoint */\n    tag_62:\n      sload(0x09)\n      dup2\n      jump\t// out\n        /* \"contracts/farm.sol\":27081:27109  uint256 public bonusEndBlock */\n    tag_65:\n      sload(0x06)\n      dup2\n      jump\t// out\n        /* \"contracts/farm.sol\":28961:29138  function setExecutor(address _address, bool _type)... */\n    tag_70:\n        /* \"contracts/farm.sol\":29064:29068  bool */\n      0x00\n        /* \"@openzeppelin/contracts/access/Ownable.sol\":1259:1271  _msgSender() */\n      tag_212\n        /* \"@openzeppelin/contracts/access/Ownable.sol\":1259:1269  _msgSender */\n      tag_164\n        /* \"@openzeppelin/contracts/access/Ownable.sol\":1259:1271  _msgSender() */\n      jump\t// in\n    tag_212:\n      sub(shl(0xa0, 0x01), 0x01)\n        /* \"@openzeppelin/contracts/access/Ownable.sol\":1248:1271  owner() == _msgSender() */\n      and\n        /* \"@openzeppelin/contracts/access/Ownable.sol\":1248:1255  owner() */\n      tag_213\n        /* \"@openzeppelin/contracts/access/Ownable.sol\":1248:1253  owner */\n      tag_112\n        /* \"@openzeppelin/contracts/access/Ownable.sol\":1248:1255  owner() */\n      jump\t// in\n    tag_213:\n      sub(shl(0xa0, 0x01), 0x01)\n        /* \"@openzeppelin/contracts/access/Ownable.sol\":1248:1271  owner() == _msgSender() */\n      and\n      eq\n        /* \"@openzeppelin/contracts/access/Ownable.sol\":1240:1308  require(owner() == _msgSender(), \"Ownable: caller is not the owner\") */\n      tag_214\n      jumpi\n      mload(0x40)\n      shl(0xe5, 0x461bcd)\n      dup2\n      mstore\n      0x04\n      add\n      tag_167\n      swap1\n      tag_168\n      jump\t// in\n    tag_214:\n      pop\n      sub(shl(0xa0, 0x01), 0x01)\n        /* \"contracts/farm.sol\":29084:29102  executor[_address] */\n      dup3\n      and\n      0x00\n      swap1\n      dup2\n      mstore\n        /* \"contracts/farm.sol\":29084:29092  executor */\n      0x0b\n        /* \"contracts/farm.sol\":29084:29102  executor[_address] */\n      0x20\n      mstore\n      0x40\n      swap1\n      keccak256\n        /* \"contracts/farm.sol\":29084:29110  executor[_address] = _type */\n      dup1\n      sload\n      not(0xff)\n      and\n      dup3\n      iszero\n      iszero\n      or\n      swap1\n      sstore\n      0x01\n        /* \"@openzeppelin/contracts/access/Ownable.sol\":1318:1319  _ */\n    tag_216:\n        /* \"contracts/farm.sol\":28961:29138  function setExecutor(address _address, bool _type)... */\n      swap3\n      swap2\n      pop\n      pop\n      jump\t// out\n        /* \"contracts/farm.sol\":32899:33839  function pendingSea(uint256 _pid, address _user)... */\n    tag_76:\n        /* \"contracts/farm.sol\":33012:33019  uint256 */\n      0x00\n        /* \"contracts/farm.sol\":33035:33056  PoolInfo storage pool */\n      dup1\n        /* \"contracts/farm.sol\":33059:33067  poolInfo */\n      0x07\n        /* \"contracts/farm.sol\":33068:33072  _pid */\n      dup5\n        /* \"contracts/farm.sol\":33059:33073  poolInfo[_pid] */\n      dup2\n      sload\n      dup2\n      lt\n      tag_218\n      jumpi\n      mstore(0x00, shl(0xe0, 0x4e487b71))\n      mstore(0x04, 0x32)\n      revert(0x00, 0x24)\n    tag_218:\n      0x00\n      swap2\n      dup3\n      mstore\n      0x20\n      dup1\n      dup4\n      keccak256\n        /* \"contracts/farm.sol\":33107:33121  userInfo[_pid] */\n      dup8\n      dup5\n      mstore\n        /* \"contracts/farm.sol\":33107:33115  userInfo */\n      0x08\n        /* \"contracts/farm.sol\":33107:33121  userInfo[_pid] */\n      dup3\n      mstore\n      0x40\n      dup1\n      dup6\n      keccak256\n      sub(shl(0xa0, 0x01), 0x01)\n        /* \"contracts/farm.sol\":33107:33128  userInfo[_pid][_user] */\n      dup1\n      dup11\n      and\n      dup8\n      mstore\n      swap4\n      mstore\n      dup1\n      dup6\n      keccak256\n        /* \"contracts/farm.sol\":33163:33182  pool.accSeaPerShare */\n      0x03\n        /* \"contracts/farm.sol\":33059:33073  poolInfo[_pid] */\n      0x05\n      swap1\n      swap6\n      mul\n      swap1\n      swap3\n      add\n        /* \"contracts/farm.sol\":33163:33182  pool.accSeaPerShare */\n      swap4\n      dup5\n      add\n      sload\n        /* \"contracts/farm.sol\":33218:33233  pool.stakeToken */\n      dup5\n      sload\n        /* \"contracts/farm.sol\":33211:33259  IERC20(pool.stakeToken).balanceOf(address(this)) */\n      swap2\n      mload\n      shl(0xe0, 0x70a08231)\n      dup2\n      mstore\n        /* \"contracts/farm.sol\":33059:33073  poolInfo[_pid] */\n      swap5\n      swap7\n      pop\n        /* \"contracts/farm.sol\":33107:33128  userInfo[_pid][_user] */\n      swap2\n      swap5\n        /* \"contracts/farm.sol\":33163:33182  pool.accSeaPerShare */\n      swap2\n      swap4\n        /* \"contracts/farm.sol\":33059:33073  poolInfo[_pid] */\n      swap2\n      swap3\n        /* \"contracts/farm.sol\":33218:33233  pool.stakeToken */\n      and\n      swap1\n        /* \"contracts/farm.sol\":33211:33244  IERC20(pool.stakeToken).balanceOf */\n      0x70a08231\n      swap1\n        /* \"contracts/farm.sol\":33211:33259  IERC20(pool.stakeToken).balanceOf(address(this)) */\n      tag_220\n      swap1\n        /* \"contracts/farm.sol\":33253:33257  this */\n      address\n      swap1\n        /* \"contracts/farm.sol\":33211:33259  IERC20(pool.stakeToken).balanceOf(address(this)) */\n      0x04\n      add\n      tag_96\n      jump\t// in\n    tag_220:\n      0x20\n      mload(0x40)\n      dup1\n      dup4\n      sub\n      dup2\n      dup7\n      dup1\n      extcodesize\n      iszero\n      dup1\n      iszero\n      tag_221\n      jumpi\n      0x00\n      dup1\n      revert\n    tag_221:\n      pop\n      gas\n      staticcall\n      iszero\n      dup1\n      iszero\n      tag_223\n      jumpi\n      returndatasize\n      0x00\n      dup1\n      returndatacopy\n      revert(0x00, returndatasize)\n    tag_223:\n      pop\n      pop\n      pop\n      pop\n      mload(0x40)\n      returndatasize\n      not(0x1f)\n      0x1f\n      dup3\n      add\n      and\n      dup3\n      add\n      dup1\n      0x40\n      mstore\n      pop\n      dup2\n      add\n      swap1\n      tag_224\n      swap2\n      swap1\n      tag_225\n      jump\t// in\n    tag_224:\n        /* \"contracts/farm.sol\":33192:33259  uint256 lpSupply = IERC20(pool.stakeToken).balanceOf(address(this)) */\n      swap1\n      pop\n        /* \"contracts/farm.sol\":33288:33292  pool */\n      dup4\n        /* \"contracts/farm.sol\":33288:33308  pool.lastRewardBlock */\n      0x02\n      add\n      sload\n        /* \"contracts/farm.sol\":33273:33285  block.number */\n      number\n        /* \"contracts/farm.sol\":33273:33308  block.number > pool.lastRewardBlock */\n      gt\n        /* \"contracts/farm.sol\":33273:33325  block.number > pool.lastRewardBlock && lpSupply != 0 */\n      dup1\n      iszero\n      tag_226\n      jumpi\n      pop\n        /* \"contracts/farm.sol\":33312:33325  lpSupply != 0 */\n      dup1\n      iszero\n      iszero\n        /* \"contracts/farm.sol\":33273:33325  block.number > pool.lastRewardBlock && lpSupply != 0 */\n    tag_226:\n        /* \"contracts/farm.sol\":33269:33739  if (block.number > pool.lastRewardBlock && lpSupply != 0) {... */\n      iszero\n      tag_227\n      jumpi\n        /* \"contracts/farm.sol\":33341:33359  uint256 multiplier */\n      0x00\n        /* \"contracts/farm.sol\":33362:33457  getMultiplier(... */\n      tag_228\n        /* \"contracts/farm.sol\":33393:33397  pool */\n      dup6\n        /* \"contracts/farm.sol\":33393:33413  pool.lastRewardBlock */\n      0x02\n      add\n      sload\n        /* \"contracts/farm.sol\":33431:33443  block.number */\n      number\n        /* \"contracts/farm.sol\":33362:33375  getMultiplier */\n      tag_116\n        /* \"contracts/farm.sol\":33362:33457  getMultiplier(... */\n      jump\t// in\n    tag_228:\n        /* \"contracts/farm.sol\":33341:33457  uint256 multiplier = getMultiplier(... */\n      swap1\n      pop\n        /* \"contracts/farm.sol\":33471:33488  uint256 seaReward */\n      0x00\n        /* \"contracts/farm.sol\":33491:33611  multiplier... */\n      tag_229\n        /* \"contracts/farm.sol\":33595:33610  totalAllocPoint */\n      sload(0x09)\n        /* \"contracts/farm.sol\":33491:33573  multiplier... */\n      tag_200\n        /* \"contracts/farm.sol\":33557:33561  pool */\n      dup9\n        /* \"contracts/farm.sol\":33557:33572  pool.allocPoint */\n      0x01\n      add\n      sload\n        /* \"contracts/farm.sol\":33491:33535  multiplier... */\n      tag_231\n        /* \"contracts/farm.sol\":33523:33534  seaPerBlock */\n      sload(0x04)\n        /* \"contracts/farm.sol\":33491:33501  multiplier */\n      dup8\n        /* \"contracts/farm.sol\":33491:33522  multiplier... */\n      tag_201\n      swap1\n        /* \"contracts/farm.sol\":33491:33535  multiplier... */\n      swap2\n      swap1\n      0xffffffff\n      and\n      jump\t// in\n    tag_231:\n        /* \"contracts/farm.sol\":33491:33556  multiplier... */\n      swap1\n      tag_201\n        /* \"contracts/farm.sol\":33491:33573  multiplier... */\n      jump\t// in\n        /* \"contracts/farm.sol\":33491:33611  multiplier... */\n    tag_229:\n        /* \"contracts/farm.sol\":33471:33611  uint256 seaReward = multiplier... */\n      swap1\n      pop\n        /* \"contracts/farm.sol\":33642:33728  accSeaPerShare.add(... */\n      tag_232\n        /* \"contracts/farm.sol\":33678:33714  seaReward.mul(GLO_VAL).div(lpSupply) */\n      tag_233\n        /* \"contracts/farm.sol\":33705:33713  lpSupply */\n      dup5\n        /* \"contracts/farm.sol\":33678:33700  seaReward.mul(GLO_VAL) */\n      tag_200\n        /* \"contracts/farm.sol\":33471:33611  uint256 seaReward = multiplier... */\n      dup5\n        /* \"contracts/farm.sol\":25348:25352  1e12 */\n      0xe8d4a51000\n        /* \"contracts/farm.sol\":33678:33691  seaReward.mul */\n      tag_201\n        /* \"contracts/farm.sol\":33678:33700  seaReward.mul(GLO_VAL) */\n      jump\t// in\n        /* \"contracts/farm.sol\":33678:33714  seaReward.mul(GLO_VAL).div(lpSupply) */\n    tag_233:\n        /* \"contracts/farm.sol\":33642:33656  accSeaPerShare */\n      dup6\n      swap1\n        /* \"contracts/farm.sol\":33642:33660  accSeaPerShare.add */\n      tag_198\n        /* \"contracts/farm.sol\":33642:33728  accSeaPerShare.add(... */\n      jump\t// in\n    tag_232:\n        /* \"contracts/farm.sol\":33625:33728  accSeaPerShare = accSeaPerShare.add(... */\n      swap4\n      pop\n        /* \"contracts/farm.sol\":33269:33739  if (block.number > pool.lastRewardBlock && lpSupply != 0) {... */\n      pop\n      pop\n    tag_227:\n        /* \"contracts/farm.sol\":33767:33832  user.amount.mul(accSeaPerShare).div(GLO_VAL).sub(user.rewardDebt) */\n      tag_235\n        /* \"contracts/farm.sol\":33816:33820  user */\n      dup4\n        /* \"contracts/farm.sol\":33816:33831  user.rewardDebt */\n      0x01\n      add\n      sload\n        /* \"contracts/farm.sol\":33767:33811  user.amount.mul(accSeaPerShare).div(GLO_VAL) */\n      tag_236\n        /* \"contracts/farm.sol\":25348:25352  1e12 */\n      0xe8d4a51000\n        /* \"contracts/farm.sol\":33767:33798  user.amount.mul(accSeaPerShare) */\n      tag_200\n        /* \"contracts/farm.sol\":33783:33797  accSeaPerShare */\n      dup7\n        /* \"contracts/farm.sol\":33767:33771  user */\n      dup9\n        /* \"contracts/farm.sol\":33767:33778  user.amount */\n      0x00\n      add\n      sload\n        /* \"contracts/farm.sol\":33767:33782  user.amount.mul */\n      tag_201\n      swap1\n        /* \"contracts/farm.sol\":33767:33798  user.amount.mul(accSeaPerShare) */\n      swap2\n      swap1\n      0xffffffff\n      and\n      jump\t// in\n        /* \"contracts/farm.sol\":33767:33811  user.amount.mul(accSeaPerShare).div(GLO_VAL) */\n    tag_236:\n        /* \"contracts/farm.sol\":33767:33815  user.amount.mul(accSeaPerShare).div(GLO_VAL).sub */\n      swap1\n      tag_238\n        /* \"contracts/farm.sol\":33767:33832  user.amount.mul(accSeaPerShare).div(GLO_VAL).sub(user.rewardDebt) */\n      jump\t// in\n    tag_235:\n        /* \"contracts/farm.sol\":33748:33832  return... */\n      swap8\n        /* \"contracts/farm.sol\":32899:33839  function pendingSea(uint256 _pid, address _user)... */\n      swap7\n      pop\n      pop\n      pop\n      pop\n      pop\n      pop\n      pop\n      jump\t// out\n        /* \"contracts/farm.sol\":39817:39905  function getBlock() external view returns (uint256) {... */\n    tag_79:\n        /* \"contracts/farm.sol\":39886:39898  block.number */\n      number\n        /* \"contracts/farm.sol\":39817:39905  function getBlock() external view returns (uint256) {... */\n      swap1\n      jump\t// out\n        /* \"contracts/farm.sol\":31114:31480  function setPool(... */\n    tag_84:\n        /* \"contracts/farm.sol\":29195:29205  msg.sender */\n      caller\n        /* \"contracts/farm.sol\":29186:29206  executor[msg.sender] */\n      0x00\n      swap1\n      dup2\n      mstore\n        /* \"contracts/farm.sol\":29186:29194  executor */\n      0x0b\n        /* \"contracts/farm.sol\":29186:29206  executor[msg.sender] */\n      0x20\n      mstore\n      0x40\n      swap1\n      keccak256\n      sload\n      0xff\n      and\n        /* \"contracts/farm.sol\":29178:29247  require(executor[msg.sender], \"executor: caller is not the executor\") */\n      tag_241\n      jumpi\n      mload(0x40)\n      shl(0xe5, 0x461bcd)\n      dup2\n      mstore\n      0x04\n      add\n      tag_167\n      swap1\n      tag_243\n      jump\t// in\n    tag_241:\n        /* \"contracts/farm.sol\":31257:31268  _withUpdate */\n      dup1\n        /* \"contracts/farm.sol\":31253:31312  if (_withUpdate) {... */\n      iszero\n      tag_246\n      jumpi\n        /* \"contracts/farm.sol\":31284:31301  massUpdatePools() */\n      tag_246\n        /* \"contracts/farm.sol\":31284:31299  massUpdatePools */\n      tag_104\n        /* \"contracts/farm.sol\":31284:31301  massUpdatePools() */\n      jump\t// in\n    tag_246:\n        /* \"contracts/farm.sol\":31339:31424  totalAllocPoint.sub(poolInfo[_pid].allocPoint).add(... */\n      tag_247\n        /* \"contracts/farm.sol\":31403:31414  _allocPoint */\n      dup3\n        /* \"contracts/farm.sol\":31339:31385  totalAllocPoint.sub(poolInfo[_pid].allocPoint) */\n      tag_248\n        /* \"contracts/farm.sol\":31359:31367  poolInfo */\n      0x07\n        /* \"contracts/farm.sol\":31368:31372  _pid */\n      dup7\n        /* \"contracts/farm.sol\":31359:31373  poolInfo[_pid] */\n      dup2\n      sload\n      dup2\n      lt\n      tag_249\n      jumpi\n      mstore(0x00, shl(0xe0, 0x4e487b71))\n      mstore(0x04, 0x32)\n      revert(0x00, 0x24)\n    tag_249:\n      swap1\n      0x00\n      mstore\n      keccak256(0x00, 0x20)\n      swap1\n      0x05\n      mul\n      add\n        /* \"contracts/farm.sol\":31359:31384  poolInfo[_pid].allocPoint */\n      0x01\n      add\n      sload\n        /* \"contracts/farm.sol\":31339:31354  totalAllocPoint */\n      sload(0x09)\n        /* \"contracts/farm.sol\":31339:31358  totalAllocPoint.sub */\n      tag_238\n      swap1\n        /* \"contracts/farm.sol\":31339:31385  totalAllocPoint.sub(poolInfo[_pid].allocPoint) */\n      swap2\n      swap1\n      0xffffffff\n      and\n      jump\t// in\n    tag_248:\n        /* \"contracts/farm.sol\":31339:31389  totalAllocPoint.sub(poolInfo[_pid].allocPoint).add */\n      swap1\n      tag_198\n        /* \"contracts/farm.sol\":31339:31424  totalAllocPoint.sub(poolInfo[_pid].allocPoint).add(... */\n      jump\t// in\n    tag_247:\n        /* \"contracts/farm.sol\":31321:31336  totalAllocPoint */\n      0x09\n        /* \"contracts/farm.sol\":31321:31424  totalAllocPoint = totalAllocPoint.sub(poolInfo[_pid].allocPoint).add(... */\n      dup2\n      swap1\n      sstore\n      pop\n        /* \"contracts/farm.sol\":31462:31473  _allocPoint */\n      dup2\n        /* \"contracts/farm.sol\":31434:31442  poolInfo */\n      0x07\n        /* \"contracts/farm.sol\":31443:31447  _pid */\n      dup5\n        /* \"contracts/farm.sol\":31434:31448  poolInfo[_pid] */\n      dup2\n      sload\n      dup2\n      lt\n      tag_251\n      jumpi\n      mstore(0x00, shl(0xe0, 0x4e487b71))\n      mstore(0x04, 0x32)\n      revert(0x00, 0x24)\n    tag_251:\n      swap1\n      0x00\n      mstore\n      keccak256(0x00, 0x20)\n      swap1\n      0x05\n      mul\n      add\n        /* \"contracts/farm.sol\":31434:31459  poolInfo[_pid].allocPoint */\n      0x01\n      add\n        /* \"contracts/farm.sol\":31434:31473  poolInfo[_pid].allocPoint = _allocPoint */\n      dup2\n      swap1\n      sstore\n      pop\n        /* \"contracts/farm.sol\":31114:31480  function setPool(... */\n      pop\n      pop\n      pop\n      jump\t// out\n        /* \"contracts/farm.sol\":27514:27554  mapping(address => bool) public executor */\n    tag_88:\n      mstore(0x20, 0x0b)\n      0x00\n      swap1\n      dup2\n      mstore\n      0x40\n      swap1\n      keccak256\n      sload\n      0xff\n      and\n      dup2\n      jump\t// out\n        /* \"contracts/farm.sol\":27468:27493  uint256 public startBlock */\n    tag_91:\n      sload(0x0a)\n      dup2\n      jump\t// out\n        /* \"contracts/farm.sol\":26811:26829  address public sea */\n    tag_94:\n      and(sub(shl(0xa0, 0x01), 0x01), sload(0x02))\n      dup2\n      jump\t// out\n        /* \"contracts/farm.sol\":34167:35708  function updatePool(uint256 _pid) public override {... */\n    tag_99:\n        /* \"contracts/farm.sol\":34227:34248  PoolInfo storage pool */\n      0x00\n        /* \"contracts/farm.sol\":34251:34259  poolInfo */\n      0x07\n        /* \"contracts/farm.sol\":34260:34264  _pid */\n      dup3\n        /* \"contracts/farm.sol\":34251:34265  poolInfo[_pid] */\n      dup2\n      sload\n      dup2\n      lt\n      tag_254\n      jumpi\n      mstore(0x00, shl(0xe0, 0x4e487b71))\n      mstore(0x04, 0x32)\n      revert(0x00, 0x24)\n    tag_254:\n      swap1\n      0x00\n      mstore\n      keccak256(0x00, 0x20)\n      swap1\n      0x05\n      mul\n      add\n        /* \"contracts/farm.sol\":34227:34265  PoolInfo storage pool = poolInfo[_pid] */\n      swap1\n      pop\n        /* \"contracts/farm.sol\":34295:34299  pool */\n      dup1\n        /* \"contracts/farm.sol\":34295:34315  pool.lastRewardBlock */\n      0x02\n      add\n      sload\n        /* \"contracts/farm.sol\":34279:34291  block.number */\n      number\n        /* \"contracts/farm.sol\":34279:34315  block.number <= pool.lastRewardBlock */\n      gt\n        /* \"contracts/farm.sol\":34275:34348  if (block.number <= pool.lastRewardBlock) {... */\n      tag_256\n      jumpi\n        /* \"contracts/farm.sol\":34331:34338  return; */\n      pop\n      jump(tag_253)\n        /* \"contracts/farm.sol\":34275:34348  if (block.number <= pool.lastRewardBlock) {... */\n    tag_256:\n        /* \"contracts/farm.sol\":34383:34398  pool.stakeToken */\n      dup1\n      sload\n        /* \"contracts/farm.sol\":34376:34424  IERC20(pool.stakeToken).balanceOf(address(this)) */\n      mload(0x40)\n      shl(0xe0, 0x70a08231)\n      dup2\n      mstore\n        /* \"contracts/farm.sol\":34357:34373  uint256 lpSupply */\n      0x00\n      swap2\n      sub(shl(0xa0, 0x01), 0x01)\n        /* \"contracts/farm.sol\":34383:34398  pool.stakeToken */\n      and\n      swap1\n        /* \"contracts/farm.sol\":34376:34409  IERC20(pool.stakeToken).balanceOf */\n      0x70a08231\n      swap1\n        /* \"contracts/farm.sol\":34376:34424  IERC20(pool.stakeToken).balanceOf(address(this)) */\n      tag_257\n      swap1\n        /* \"contracts/farm.sol\":34418:34422  this */\n      address\n      swap1\n        /* \"contracts/farm.sol\":34376:34424  IERC20(pool.stakeToken).balanceOf(address(this)) */\n      0x04\n      add\n      tag_96\n      jump\t// in\n    tag_257:\n      0x20\n      mload(0x40)\n      dup1\n      dup4\n      sub\n      dup2\n      dup7\n      dup1\n      extcodesize\n      iszero\n      dup1\n      iszero\n      tag_258\n      jumpi\n      0x00\n      dup1\n      revert\n    tag_258:\n      pop\n      gas\n      staticcall\n      iszero\n      dup1\n      iszero\n      tag_260\n      jumpi\n      returndatasize\n      0x00\n      dup1\n      returndatacopy\n      revert(0x00, returndatasize)\n    tag_260:\n      pop\n      pop\n      pop\n      pop\n      mload(0x40)\n      returndatasize\n      not(0x1f)\n      0x1f\n      dup3\n      add\n      and\n      dup3\n      add\n      dup1\n      0x40\n      mstore\n      pop\n      dup2\n      add\n      swap1\n      tag_261\n      swap2\n      swap1\n      tag_225\n      jump\t// in\n    tag_261:\n        /* \"contracts/farm.sol\":34357:34424  uint256 lpSupply = IERC20(pool.stakeToken).balanceOf(address(this)) */\n      swap1\n      pop\n        /* \"contracts/farm.sol\":34438:34451  lpSupply == 0 */\n      dup1\n        /* \"contracts/farm.sol\":34434:34533  if (lpSupply == 0) {... */\n      tag_262\n      jumpi\n      pop\n        /* \"contracts/farm.sol\":34490:34502  block.number */\n      number\n        /* \"contracts/farm.sol\":34467:34487  pool.lastRewardBlock */\n      0x02\n      swap1\n      swap2\n      add\n        /* \"contracts/farm.sol\":34467:34502  pool.lastRewardBlock = block.number */\n      sstore\n        /* \"contracts/farm.sol\":34516:34523  return; */\n      jump(tag_253)\n        /* \"contracts/farm.sol\":34434:34533  if (lpSupply == 0) {... */\n    tag_262:\n        /* \"contracts/farm.sol\":34542:34560  uint256 multiplier */\n      0x00\n        /* \"contracts/farm.sol\":34563:34612  getMultiplier(pool.lastRewardBlock, block.number) */\n      tag_263\n        /* \"contracts/farm.sol\":34577:34581  pool */\n      dup4\n        /* \"contracts/farm.sol\":34577:34597  pool.lastRewardBlock */\n      0x02\n      add\n      sload\n        /* \"contracts/farm.sol\":34599:34611  block.number */\n      number\n        /* \"contracts/farm.sol\":34563:34576  getMultiplier */\n      tag_116\n        /* \"contracts/farm.sol\":34563:34612  getMultiplier(pool.lastRewardBlock, block.number) */\n      jump\t// in\n    tag_263:\n        /* \"contracts/farm.sol\":34542:34612  uint256 multiplier = getMultiplier(pool.lastRewardBlock, block.number) */\n      swap1\n      pop\n        /* \"contracts/farm.sol\":34622:34639  uint256 seaReward */\n      0x00\n        /* \"contracts/farm.sol\":34642:34750  multiplier... */\n      tag_264\n        /* \"contracts/farm.sol\":34734:34749  totalAllocPoint */\n      sload(0x09)\n        /* \"contracts/farm.sol\":34642:34716  multiplier... */\n      tag_200\n        /* \"contracts/farm.sol\":34700:34704  pool */\n      dup7\n        /* \"contracts/farm.sol\":34700:34715  pool.allocPoint */\n      0x01\n      add\n      sload\n        /* \"contracts/farm.sol\":34642:34682  multiplier... */\n      tag_231\n        /* \"contracts/farm.sol\":34670:34681  seaPerBlock */\n      sload(0x04)\n        /* \"contracts/farm.sol\":34642:34652  multiplier */\n      dup8\n        /* \"contracts/farm.sol\":34642:34669  multiplier... */\n      tag_201\n      swap1\n        /* \"contracts/farm.sol\":34642:34682  multiplier... */\n      swap2\n      swap1\n      0xffffffff\n      and\n      jump\t// in\n        /* \"contracts/farm.sol\":34642:34750  multiplier... */\n    tag_264:\n        /* \"contracts/farm.sol\":34765:34768  sea */\n      sload(0x02)\n        /* \"contracts/farm.sol\":34775:34782  devaddr */\n      sload(0x03)\n        /* \"contracts/farm.sol\":34622:34750  uint256 seaReward = multiplier... */\n      swap2\n      swap3\n      pop\n      sub(shl(0xa0, 0x01), 0x01)\n        /* \"contracts/farm.sol\":34765:34768  sea */\n      swap1\n      dup2\n      and\n      swap2\n        /* \"contracts/farm.sol\":34760:34774  ISea(sea).mint */\n      0x40c10f19\n      swap2\n        /* \"contracts/farm.sol\":34775:34782  devaddr */\n      and\n        /* \"contracts/farm.sol\":34784:34810  seaReward.mul(20).div(100) */\n      tag_267\n        /* \"contracts/farm.sol\":34806:34809  100 */\n      0x64\n        /* \"contracts/farm.sol\":34784:34801  seaReward.mul(20) */\n      tag_200\n        /* \"contracts/farm.sol\":34622:34750  uint256 seaReward = multiplier... */\n      dup7\n        /* \"contracts/farm.sol\":34798:34800  20 */\n      0x14\n        /* \"contracts/farm.sol\":34784:34797  seaReward.mul */\n      tag_201\n        /* \"contracts/farm.sol\":34784:34801  seaReward.mul(20) */\n      jump\t// in\n        /* \"contracts/farm.sol\":34784:34810  seaReward.mul(20).div(100) */\n    tag_267:\n        /* \"contracts/farm.sol\":34760:34811  ISea(sea).mint(devaddr, seaReward.mul(20).div(100)) */\n      mload(0x40)\n      dup4\n      0xffffffff\n      and\n      0xe0\n      shl\n      dup2\n      mstore\n      0x04\n      add\n      tag_269\n      swap3\n      swap2\n      swap1\n      tag_270\n      jump\t// in\n    tag_269:\n      0x20\n      mload(0x40)\n      dup1\n      dup4\n      sub\n      dup2\n      0x00\n      dup8\n      dup1\n      extcodesize\n      iszero\n      dup1\n      iszero\n      tag_271\n      jumpi\n      0x00\n      dup1\n      revert\n    tag_271:\n      pop\n      gas\n      call\n      iszero\n      dup1\n      iszero\n      tag_273\n      jumpi\n      returndatasize\n      0x00\n      dup1\n      returndatacopy\n      revert(0x00, returndatasize)\n    tag_273:\n      pop\n      pop\n      pop\n      pop\n      mload(0x40)\n      returndatasize\n      not(0x1f)\n      0x1f\n      dup3\n      add\n      and\n      dup3\n      add\n      dup1\n      0x40\n      mstore\n      pop\n      dup2\n      add\n      swap1\n      tag_274\n      swap2\n      swap1\n      tag_275\n      jump\t// in\n    tag_274:\n      pop\n        /* \"contracts/farm.sol\":34826:34829  sea */\n      sload(0x02)\n        /* \"contracts/farm.sol\":34821:34861  ISea(sea).mint(address(this), seaReward) */\n      mload(0x40)\n      shl(0xe0, 0x40c10f19)\n      dup2\n      mstore\n      sub(shl(0xa0, 0x01), 0x01)\n        /* \"contracts/farm.sol\":34826:34829  sea */\n      swap1\n      swap2\n      and\n      swap1\n        /* \"contracts/farm.sol\":34821:34835  ISea(sea).mint */\n      0x40c10f19\n      swap1\n        /* \"contracts/farm.sol\":34821:34861  ISea(sea).mint(address(this), seaReward) */\n      tag_276\n      swap1\n        /* \"contracts/farm.sol\":34844:34848  this */\n      address\n      swap1\n        /* \"contracts/farm.sol\":34851:34860  seaReward */\n      dup6\n      swap1\n        /* \"contracts/farm.sol\":34821:34861  ISea(sea).mint(address(this), seaReward) */\n      0x04\n      add\n      tag_270\n      jump\t// in\n    tag_276:\n      0x20\n      mload(0x40)\n      dup1\n      dup4\n      sub\n      dup2\n      0x00\n      dup8\n      dup1\n      extcodesize\n      iszero\n      dup1\n      iszero\n      tag_277\n      jumpi\n      0x00\n      dup1\n      revert\n    tag_277:\n      pop\n      gas\n      call\n      iszero\n      dup1\n      iszero\n      tag_279\n      jumpi\n      returndatasize\n      0x00\n      dup1\n      returndatacopy\n      revert(0x00, returndatasize)\n    tag_279:\n      pop\n      pop\n      pop\n      pop\n      mload(0x40)\n      returndatasize\n      not(0x1f)\n      0x1f\n      dup3\n      add\n      and\n      dup3\n      add\n      dup1\n      0x40\n      mstore\n      pop\n      dup2\n      add\n      swap1\n      tag_280\n      swap2\n      swap1\n      tag_275\n      jump\t// in\n    tag_280:\n      pop\n        /* \"contracts/farm.sol\":34893:34976  pool.accSeaPerShare.add(... */\n      tag_281\n        /* \"contracts/farm.sol\":34930:34966  seaReward.mul(GLO_VAL).div(lpSupply) */\n      tag_282\n        /* \"contracts/farm.sol\":34957:34965  lpSupply */\n      dup5\n        /* \"contracts/farm.sol\":34930:34952  seaReward.mul(GLO_VAL) */\n      tag_200\n        /* \"contracts/farm.sol\":34930:34939  seaReward */\n      dup5\n        /* \"contracts/farm.sol\":25348:25352  1e12 */\n      0xe8d4a51000\n        /* \"contracts/farm.sol\":34930:34943  seaReward.mul */\n      tag_201\n        /* \"contracts/farm.sol\":34930:34952  seaReward.mul(GLO_VAL) */\n      jump\t// in\n        /* \"contracts/farm.sol\":34930:34966  seaReward.mul(GLO_VAL).div(lpSupply) */\n    tag_282:\n        /* \"contracts/farm.sol\":34893:34912  pool.accSeaPerShare */\n      0x03\n      dup7\n      add\n      sload\n      swap1\n        /* \"contracts/farm.sol\":34893:34916  pool.accSeaPerShare.add */\n      tag_198\n        /* \"contracts/farm.sol\":34893:34976  pool.accSeaPerShare.add(... */\n      jump\t// in\n    tag_281:\n        /* \"contracts/farm.sol\":34871:34890  pool.accSeaPerShare */\n      0x03\n      dup6\n      add\n        /* \"contracts/farm.sol\":34871:34976  pool.accSeaPerShare = pool.accSeaPerShare.add(... */\n      sstore\n        /* \"contracts/farm.sol\":35050:35063  bonusEndBlock */\n      sload(0x06)\n        /* \"contracts/farm.sol\":35034:35046  block.number */\n      number\n        /* \"contracts/farm.sol\":35034:35063  block.number <= bonusEndBlock */\n      gt\n        /* \"contracts/farm.sol\":35030:35142  if (block.number <= bonusEndBlock) {... */\n      tag_284\n      jumpi\n        /* \"contracts/farm.sol\":35112:35131  pool.accSeaPerShare */\n      0x03\n      dup5\n      add\n      sload\n        /* \"contracts/farm.sol\":35079:35109  pool.accSeaPerShareTilBonusEnd */\n      0x04\n      dup6\n      add\n        /* \"contracts/farm.sol\":35079:35131  pool.accSeaPerShareTilBonusEnd = pool.accSeaPerShare */\n      sstore\n        /* \"contracts/farm.sol\":35030:35142  if (block.number <= bonusEndBlock) {... */\n    tag_284:\n        /* \"contracts/farm.sol\":35183:35196  bonusEndBlock */\n      sload(0x06)\n        /* \"contracts/farm.sol\":35168:35180  block.number */\n      number\n        /* \"contracts/farm.sol\":35168:35196  block.number > bonusEndBlock */\n      gt\n        /* \"contracts/farm.sol\":35168:35236  block.number > bonusEndBlock && pool.lastRewardBlock < bonusEndBlock */\n      dup1\n      iszero\n      tag_285\n      jumpi\n      pop\n        /* \"contracts/farm.sol\":35223:35236  bonusEndBlock */\n      sload(0x06)\n        /* \"contracts/farm.sol\":35200:35204  pool */\n      dup5\n        /* \"contracts/farm.sol\":35200:35220  pool.lastRewardBlock */\n      0x02\n      add\n      sload\n        /* \"contracts/farm.sol\":35200:35236  pool.lastRewardBlock < bonusEndBlock */\n      lt\n        /* \"contracts/farm.sol\":35168:35236  block.number > bonusEndBlock && pool.lastRewardBlock < bonusEndBlock */\n    tag_285:\n        /* \"contracts/farm.sol\":35151:35657  if (... */\n      iszero\n      tag_286\n      jumpi\n        /* \"contracts/farm.sol\":35261:35284  uint256 SeaBonusPortion */\n      0x00\n        /* \"contracts/farm.sol\":35287:35491  bonusEndBlock... */\n      tag_287\n        /* \"contracts/farm.sol\":35475:35490  totalAllocPoint */\n      sload(0x09)\n        /* \"contracts/farm.sol\":35287:35453  bonusEndBlock... */\n      tag_200\n        /* \"contracts/farm.sol\":35437:35441  pool */\n      dup8\n        /* \"contracts/farm.sol\":35437:35452  pool.allocPoint */\n      0x01\n      add\n      sload\n        /* \"contracts/farm.sol\":35287:35415  bonusEndBlock... */\n      tag_231\n        /* \"contracts/farm.sol\":35403:35414  seaPerBlock */\n      sload(0x04)\n        /* \"contracts/farm.sol\":35287:35381  bonusEndBlock... */\n      tag_231\n        /* \"contracts/farm.sol\":35365:35380  bonusMultiplier */\n      sload(0x05)\n        /* \"contracts/farm.sol\":35287:35343  bonusEndBlock... */\n      tag_231\n        /* \"contracts/farm.sol\":35322:35326  pool */\n      dup14\n        /* \"contracts/farm.sol\":35322:35342  pool.lastRewardBlock */\n      0x02\n      add\n      sload\n        /* \"contracts/farm.sol\":35287:35300  bonusEndBlock */\n      sload(0x06)\n        /* \"contracts/farm.sol\":35287:35321  bonusEndBlock... */\n      tag_238\n      swap1\n        /* \"contracts/farm.sol\":35287:35343  bonusEndBlock... */\n      swap2\n      swap1\n      0xffffffff\n      and\n      jump\t// in\n        /* \"contracts/farm.sol\":35287:35491  bonusEndBlock... */\n    tag_287:\n        /* \"contracts/farm.sol\":35261:35491  uint256 SeaBonusPortion = bonusEndBlock... */\n      swap1\n      pop\n        /* \"contracts/farm.sol\":35538:35646  pool.accSeaPerShareTilBonusEnd.add(... */\n      tag_292\n        /* \"contracts/farm.sol\":35590:35632  SeaBonusPortion.mul(GLO_VAL).div(lpSupply) */\n      tag_293\n        /* \"contracts/farm.sol\":35623:35631  lpSupply */\n      dup6\n        /* \"contracts/farm.sol\":35590:35618  SeaBonusPortion.mul(GLO_VAL) */\n      tag_200\n        /* \"contracts/farm.sol\":35261:35491  uint256 SeaBonusPortion = bonusEndBlock... */\n      dup5\n        /* \"contracts/farm.sol\":25348:25352  1e12 */\n      0xe8d4a51000\n        /* \"contracts/farm.sol\":35590:35609  SeaBonusPortion.mul */\n      tag_201\n        /* \"contracts/farm.sol\":35590:35618  SeaBonusPortion.mul(GLO_VAL) */\n      jump\t// in\n        /* \"contracts/farm.sol\":35590:35632  SeaBonusPortion.mul(GLO_VAL).div(lpSupply) */\n    tag_293:\n        /* \"contracts/farm.sol\":35538:35568  pool.accSeaPerShareTilBonusEnd */\n      0x04\n      dup8\n      add\n      sload\n      swap1\n        /* \"contracts/farm.sol\":35538:35572  pool.accSeaPerShareTilBonusEnd.add */\n      tag_198\n        /* \"contracts/farm.sol\":35538:35646  pool.accSeaPerShareTilBonusEnd.add(... */\n      jump\t// in\n    tag_292:\n        /* \"contracts/farm.sol\":35505:35535  pool.accSeaPerShareTilBonusEnd */\n      0x04\n      dup7\n      add\n        /* \"contracts/farm.sol\":35505:35646  pool.accSeaPerShareTilBonusEnd = pool.accSeaPerShareTilBonusEnd.add(... */\n      sstore\n      pop\n        /* \"contracts/farm.sol\":35151:35657  if (... */\n    tag_286:\n        /* \"contracts/farm.sol\":35689:35701  block.number */\n      number\n        /* \"contracts/farm.sol\":35666:35670  pool */\n      dup5\n        /* \"contracts/farm.sol\":35666:35686  pool.lastRewardBlock */\n      0x02\n      add\n        /* \"contracts/farm.sol\":35666:35701  pool.lastRewardBlock = block.number */\n      dup2\n      swap1\n      sstore\n      pop\n        /* \"contracts/farm.sol\":34167:35708  function updatePool(uint256 _pid) public override {... */\n      pop\n      pop\n      pop\n      pop\n    tag_253:\n      pop\n      jump\t// out\n        /* \"contracts/farm.sol\":39021:39414  function emergencyWithdraw(uint256 _pid) public {... */\n    tag_102:\n        /* \"contracts/farm.sol\":39079:39100  PoolInfo storage pool */\n      0x00\n        /* \"contracts/farm.sol\":39103:39111  poolInfo */\n      0x07\n        /* \"contracts/farm.sol\":39112:39116  _pid */\n      dup3\n        /* \"contracts/farm.sol\":39103:39117  poolInfo[_pid] */\n      dup2\n      sload\n      dup2\n      lt\n      tag_296\n      jumpi\n      mstore(0x00, shl(0xe0, 0x4e487b71))\n      mstore(0x04, 0x32)\n      revert(0x00, 0x24)\n    tag_296:\n      0x00\n      swap2\n      dup3\n      mstore\n      0x20\n      dup1\n      dup4\n      keccak256\n        /* \"contracts/farm.sol\":39151:39165  userInfo[_pid] */\n      dup6\n      dup5\n      mstore\n        /* \"contracts/farm.sol\":39151:39159  userInfo */\n      0x08\n        /* \"contracts/farm.sol\":39151:39165  userInfo[_pid] */\n      dup3\n      mstore\n      0x40\n      dup1\n      dup6\n      keccak256\n        /* \"contracts/farm.sol\":39166:39176  msg.sender */\n      caller\n        /* \"contracts/farm.sol\":39151:39177  userInfo[_pid][msg.sender] */\n      dup1\n      dup8\n      mstore\n      swap4\n      mstore\n      dup5\n      keccak256\n        /* \"contracts/farm.sol\":39204:39215  user.amount */\n      dup1\n      sload\n        /* \"contracts/farm.sol\":39225:39240  user.amount = 0 */\n      dup6\n      dup3\n      sstore\n      0x01\n        /* \"contracts/farm.sol\":39250:39265  user.rewardDebt */\n      dup3\n      add\n        /* \"contracts/farm.sol\":39250:39269  user.rewardDebt = 0 */\n      swap6\n      swap1\n      swap6\n      sstore\n        /* \"contracts/farm.sol\":39103:39117  poolInfo[_pid] */\n      0x05\n      swap1\n      swap4\n      mul\n      add\n        /* \"contracts/farm.sol\":39286:39301  pool.stakeToken */\n      dup1\n      sload\n        /* \"contracts/farm.sol\":39103:39117  poolInfo[_pid] */\n      swap1\n      swap5\n      pop\n        /* \"contracts/farm.sol\":39151:39177  userInfo[_pid][msg.sender] */\n      swap2\n      swap3\n        /* \"contracts/farm.sol\":39204:39215  user.amount */\n      swap2\n        /* \"contracts/farm.sol\":39279:39344  IERC20(pool.stakeToken).safeTransfer(address(msg.sender), amount) */\n      tag_298\n      swap2\n      sub(shl(0xa0, 0x01), 0x01)\n        /* \"contracts/farm.sol\":39286:39301  pool.stakeToken */\n      swap2\n      swap1\n      swap2\n      and\n      swap1\n        /* \"contracts/farm.sol\":39204:39215  user.amount */\n      dup4\n        /* \"contracts/farm.sol\":39279:39315  IERC20(pool.stakeToken).safeTransfer */\n      tag_299\n        /* \"contracts/farm.sol\":39279:39344  IERC20(pool.stakeToken).safeTransfer(address(msg.sender), amount) */\n      jump\t// in\n    tag_298:\n        /* \"contracts/farm.sol\":39395:39406  user.amount */\n      dup2\n      sload\n        /* \"contracts/farm.sol\":39359:39407  EmergencyWithdraw(msg.sender, _pid, user.amount) */\n      mload(0x40)\n        /* \"contracts/farm.sol\":39389:39393  _pid */\n      dup6\n      swap2\n        /* \"contracts/farm.sol\":39377:39387  msg.sender */\n      caller\n      swap2\n        /* \"contracts/farm.sol\":39359:39407  EmergencyWithdraw(msg.sender, _pid, user.amount) */\n      0xbb757047c2b5f3974fe26b7c10f732e7bce710b0952a71082702781e62ae0595\n      swap2\n      tag_300\n      swap2\n      tag_50\n      jump\t// in\n    tag_300:\n      mload(0x40)\n      dup1\n      swap2\n      sub\n      swap1\n      log3\n        /* \"contracts/farm.sol\":39021:39414  function emergencyWithdraw(uint256 _pid) public {... */\n      pop\n      pop\n      pop\n      pop\n      jump\t// out\n        /* \"contracts/farm.sol\":33919:34094  function massUpdatePools() public {... */\n    tag_104:\n        /* \"contracts/farm.sol\":33980:33988  poolInfo */\n      0x07\n        /* \"contracts/farm.sol\":33980:33995  poolInfo.length */\n      sload\n        /* \"contracts/farm.sol\":33963:33977  uint256 length */\n      0x00\n        /* \"contracts/farm.sol\":34005:34088  for (uint256 pid = 0; pid < length; ++pid) {... */\n    tag_302:\n        /* \"contracts/farm.sol\":34033:34039  length */\n      dup2\n        /* \"contracts/farm.sol\":34027:34030  pid */\n      dup2\n        /* \"contracts/farm.sol\":34027:34039  pid < length */\n      lt\n        /* \"contracts/farm.sol\":34005:34088  for (uint256 pid = 0; pid < length; ++pid) {... */\n      iszero\n      tag_303\n      jumpi\n        /* \"contracts/farm.sol\":34062:34077  updatePool(pid) */\n      tag_305\n        /* \"contracts/farm.sol\":34073:34076  pid */\n      dup2\n        /* \"contracts/farm.sol\":34062:34072  updatePool */\n      tag_99\n        /* \"contracts/farm.sol\":34062:34077  updatePool(pid) */\n      jump\t// in\n    tag_305:\n        /* \"contracts/farm.sol\":34041:34046  ++pid */\n      tag_306\n      dup2\n      tag_307\n      jump\t// in\n    tag_306:\n      swap1\n      pop\n        /* \"contracts/farm.sol\":34005:34088  for (uint256 pid = 0; pid < length; ++pid) {... */\n      jump(tag_302)\n    tag_303:\n      pop\n        /* \"contracts/farm.sol\":33919:34094  function massUpdatePools() public {... */\n      pop\n      jump\t// out\n        /* \"@openzeppelin/contracts/access/Ownable.sol\":1668:1769  function renounceOwnership() public virtual onlyOwner {... */\n    tag_106:\n        /* \"@openzeppelin/contracts/access/Ownable.sol\":1259:1271  _msgSender() */\n      tag_309\n        /* \"@openzeppelin/contracts/access/Ownable.sol\":1259:1269  _msgSender */\n      tag_164\n        /* \"@openzeppelin/contracts/access/Ownable.sol\":1259:1271  _msgSender() */\n      jump\t// in\n    tag_309:\n      sub(shl(0xa0, 0x01), 0x01)\n        /* \"@openzeppelin/contracts/access/Ownable.sol\":1248:1271  owner() == _msgSender() */\n      and\n        /* \"@openzeppelin/contracts/access/Ownable.sol\":1248:1255  owner() */\n      tag_310\n        /* \"@openzeppelin/contracts/access/Ownable.sol\":1248:1253  owner */\n      tag_112\n        /* \"@openzeppelin/contracts/access/Ownable.sol\":1248:1255  owner() */\n      jump\t// in\n    tag_310:\n      sub(shl(0xa0, 0x01), 0x01)\n        /* \"@openzeppelin/contracts/access/Ownable.sol\":1248:1271  owner() == _msgSender() */\n      and\n      eq\n        /* \"@openzeppelin/contracts/access/Ownable.sol\":1240:1308  require(owner() == _msgSender(), \"Ownable: caller is not the owner\") */\n      tag_311\n      jumpi\n      mload(0x40)\n      shl(0xe5, 0x461bcd)\n      dup2\n      mstore\n      0x04\n      add\n      tag_167\n      swap1\n      tag_168\n      jump\t// in\n    tag_311:\n        /* \"@openzeppelin/contracts/access/Ownable.sol\":1732:1762  _transferOwnership(address(0)) */\n      tag_314\n        /* \"@openzeppelin/contracts/access/Ownable.sol\":1759:1760  0 */\n      0x00\n        /* \"@openzeppelin/contracts/access/Ownable.sol\":1732:1750  _transferOwnership */\n      tag_315\n        /* \"@openzeppelin/contracts/access/Ownable.sol\":1732:1762  _transferOwnership(address(0)) */\n      jump\t// in\n    tag_314:\n        /* \"@openzeppelin/contracts/access/Ownable.sol\":1668:1769  function renounceOwnership() public virtual onlyOwner {... */\n      jump\t// out\n        /* \"contracts/farm.sol\":30213:31022  function addPool(... */\n    tag_110:\n        /* \"@openzeppelin/contracts/access/Ownable.sol\":1259:1271  _msgSender() */\n      tag_317\n        /* \"@openzeppelin/contracts/access/Ownable.sol\":1259:1269  _msgSender */\n      tag_164\n        /* \"@openzeppelin/contracts/access/Ownable.sol\":1259:1271  _msgSender() */\n      jump\t// in\n    tag_317:\n      sub(shl(0xa0, 0x01), 0x01)\n        /* \"@openzeppelin/contracts/access/Ownable.sol\":1248:1271  owner() == _msgSender() */\n      and\n        /* \"@openzeppelin/contracts/access/Ownable.sol\":1248:1255  owner() */\n      tag_318\n        /* \"@openzeppelin/contracts/access/Ownable.sol\":1248:1253  owner */\n      tag_112\n        /* \"@openzeppelin/contracts/access/Ownable.sol\":1248:1255  owner() */\n      jump\t// in\n    tag_318:\n      sub(shl(0xa0, 0x01), 0x01)\n        /* \"@openzeppelin/contracts/access/Ownable.sol\":1248:1271  owner() == _msgSender() */\n      and\n      eq\n        /* \"@openzeppelin/contracts/access/Ownable.sol\":1240:1308  require(owner() == _msgSender(), \"Ownable: caller is not the owner\") */\n      tag_319\n      jumpi\n      mload(0x40)\n      shl(0xe5, 0x461bcd)\n      dup2\n      mstore\n      0x04\n      add\n      tag_167\n      swap1\n      tag_168\n      jump\t// in\n    tag_319:\n        /* \"contracts/farm.sol\":30360:30371  _withUpdate */\n      dup1\n        /* \"contracts/farm.sol\":30356:30415  if (_withUpdate) {... */\n      iszero\n      tag_323\n      jumpi\n        /* \"contracts/farm.sol\":30387:30404  massUpdatePools() */\n      tag_323\n        /* \"contracts/farm.sol\":30387:30402  massUpdatePools */\n      tag_104\n        /* \"contracts/farm.sol\":30387:30404  massUpdatePools() */\n      jump\t// in\n    tag_323:\n      sub(shl(0xa0, 0x01), 0x01)\n        /* \"contracts/farm.sol\":30432:30457  _stakeToken != address(0) */\n      dup3\n      and\n        /* \"contracts/farm.sol\":30424:30486  require(_stakeToken != address(0), \"add: not stakeToken addr\") */\n      tag_324\n      jumpi\n      mload(0x40)\n      shl(0xe5, 0x461bcd)\n      dup2\n      mstore\n      0x04\n      add\n      tag_167\n      swap1\n      tag_326\n      jump\t// in\n    tag_324:\n        /* \"contracts/farm.sol\":30505:30534  isDuplicatedPool(_stakeToken) */\n      tag_327\n        /* \"contracts/farm.sol\":30522:30533  _stakeToken */\n      dup3\n        /* \"contracts/farm.sol\":30505:30521  isDuplicatedPool */\n      tag_133\n        /* \"contracts/farm.sol\":30505:30534  isDuplicatedPool(_stakeToken) */\n      jump\t// in\n    tag_327:\n        /* \"contracts/farm.sol\":30504:30534  !isDuplicatedPool(_stakeToken) */\n      iszero\n        /* \"contracts/farm.sol\":30496:30558  require(!isDuplicatedPool(_stakeToken), \"add: stakeToken dup\") */\n      tag_328\n      jumpi\n      mload(0x40)\n      shl(0xe5, 0x461bcd)\n      dup2\n      mstore\n      0x04\n      add\n      tag_167\n      swap1\n      tag_330\n      jump\t// in\n    tag_328:\n        /* \"contracts/farm.sol\":30568:30591  uint256 lastRewardBlock */\n      0x00\n        /* \"contracts/farm.sol\":30609:30619  startBlock */\n      sload(0x0a)\n        /* \"contracts/farm.sol\":30594:30606  block.number */\n      number\n        /* \"contracts/farm.sol\":30594:30619  block.number > startBlock */\n      gt\n        /* \"contracts/farm.sol\":30594:30671  block.number > startBlock... */\n      tag_331\n      jumpi\n        /* \"contracts/farm.sol\":30661:30671  startBlock */\n      sload(0x0a)\n        /* \"contracts/farm.sol\":30594:30671  block.number > startBlock... */\n      jump(tag_332)\n    tag_331:\n        /* \"contracts/farm.sol\":30634:30646  block.number */\n      number\n        /* \"contracts/farm.sol\":30594:30671  block.number > startBlock... */\n    tag_332:\n        /* \"contracts/farm.sol\":30699:30714  totalAllocPoint */\n      sload(0x09)\n        /* \"contracts/farm.sol\":30568:30671  uint256 lastRewardBlock = block.number > startBlock... */\n      swap1\n      swap2\n      pop\n        /* \"contracts/farm.sol\":30699:30731  totalAllocPoint.add(_allocPoint) */\n      tag_333\n      swap1\n        /* \"contracts/farm.sol\":30719:30730  _allocPoint */\n      dup6\n        /* \"contracts/farm.sol\":30699:30718  totalAllocPoint.add */\n      tag_198\n        /* \"contracts/farm.sol\":30699:30731  totalAllocPoint.add(_allocPoint) */\n      jump\t// in\n    tag_333:\n        /* \"contracts/farm.sol\":30681:30696  totalAllocPoint */\n      0x09\n        /* \"contracts/farm.sol\":30681:30731  totalAllocPoint = totalAllocPoint.add(_allocPoint) */\n      sstore\n        /* \"contracts/farm.sol\":30768:31005  PoolInfo({... */\n      0x40\n      dup1\n      mload\n      0xa0\n      dup2\n      add\n      dup3\n      mstore\n      sub(shl(0xa0, 0x01), 0x01)\n      swap5\n      dup6\n      and\n      dup2\n      mstore\n      0x20\n      dup2\n      add\n      swap6\n      dup7\n      mstore\n      swap1\n      dup2\n      add\n      swap2\n      dup3\n      mstore\n      0x00\n      0x60\n      dup3\n      add\n      dup2\n      dup2\n      mstore\n      0x80\n      dup4\n      add\n      dup3\n      dup2\n      mstore\n        /* \"contracts/farm.sol\":30741:30749  poolInfo */\n      0x07\n        /* \"contracts/farm.sol\":30741:31015  poolInfo.push(... */\n      dup1\n      sload\n      0x01\n      dup2\n      add\n      dup3\n      sstore\n      swap4\n      mstore\n      swap3\n      mload\n      0xa66cc928b5edb82af9bd49922954155ab7b0942694bea4ce44661d9a8736c688\n      0x05\n      swap1\n      swap4\n      mul\n      swap3\n      dup4\n      add\n      dup1\n      sload\n      not(sub(shl(0xa0, 0x01), 0x01))\n      and\n      swap2\n      swap1\n      swap8\n      and\n      or\n      swap1\n      swap6\n      sstore\n      swap5\n      mload\n      0xa66cc928b5edb82af9bd49922954155ab7b0942694bea4ce44661d9a8736c689\n      dup7\n      add\n      sstore\n      swap1\n      mload\n      0xa66cc928b5edb82af9bd49922954155ab7b0942694bea4ce44661d9a8736c68a\n      dup6\n      add\n      sstore\n      swap2\n      mload\n      0xa66cc928b5edb82af9bd49922954155ab7b0942694bea4ce44661d9a8736c68b\n      dup5\n      add\n      sstore\n      pop\n      mload\n      0xa66cc928b5edb82af9bd49922954155ab7b0942694bea4ce44661d9a8736c68c\n      swap1\n      swap2\n      add\n      sstore\n        /* \"contracts/farm.sol\":30213:31022  function addPool(... */\n      jump\t// out\n        /* \"@openzeppelin/contracts/access/Ownable.sol\":1036:1121  function owner() public view virtual returns (address) {... */\n    tag_112:\n        /* \"@openzeppelin/contracts/access/Ownable.sol\":1082:1089  address */\n      0x00\n        /* \"@openzeppelin/contracts/access/Ownable.sol\":1108:1114  _owner */\n      sload\n      sub(shl(0xa0, 0x01), 0x01)\n      and\n        /* \"@openzeppelin/contracts/access/Ownable.sol\":1036:1121  function owner() public view virtual returns (address) {... */\n      swap1\n      jump\t// out\n        /* \"contracts/farm.sol\":32115:32839  function getMultiplier(uint256 _lastRewardBlock, uint256 _currentBlock)... */\n    tag_116:\n        /* \"contracts/farm.sol\":32232:32239  uint256 */\n      0x00\n        /* \"contracts/farm.sol\":32283:32296  _currentBlock */\n      dup2\n        /* \"contracts/farm.sol\":32263:32279  _lastRewardBlock */\n      dup4\n        /* \"contracts/farm.sol\":32263:32296  _lastRewardBlock <= _currentBlock */\n      gt\n      iszero\n        /* \"contracts/farm.sol\":32255:32321  require(_lastRewardBlock <= _currentBlock, \"Block range exceeded\") */\n      tag_337\n      jumpi\n      mload(0x40)\n      shl(0xe5, 0x461bcd)\n      dup2\n      mstore\n      0x04\n      add\n      tag_167\n      swap1\n      tag_339\n      jump\t// in\n    tag_337:\n        /* \"contracts/farm.sol\":32352:32365  bonusEndBlock */\n      sload(0x06)\n        /* \"contracts/farm.sol\":32335:32348  _currentBlock */\n      dup3\n        /* \"contracts/farm.sol\":32335:32365  _currentBlock <= bonusEndBlock */\n      gt\n        /* \"contracts/farm.sol\":32331:32455  if (_currentBlock <= bonusEndBlock) {... */\n      tag_340\n      jumpi\n        /* \"contracts/farm.sol\":32428:32443  bonusMultiplier */\n      sload(0x05)\n        /* \"contracts/farm.sol\":32388:32444  _currentBlock.sub(_lastRewardBlock).mul(bonusMultiplier) */\n      tag_341\n      swap1\n        /* \"contracts/farm.sol\":32388:32423  _currentBlock.sub(_lastRewardBlock) */\n      tag_231\n        /* \"contracts/farm.sol\":32388:32401  _currentBlock */\n      dup5\n        /* \"contracts/farm.sol\":32406:32422  _lastRewardBlock */\n      dup7\n        /* \"contracts/farm.sol\":32388:32405  _currentBlock.sub */\n      tag_238\n        /* \"contracts/farm.sol\":32388:32423  _currentBlock.sub(_lastRewardBlock) */\n      jump\t// in\n        /* \"contracts/farm.sol\":32388:32444  _currentBlock.sub(_lastRewardBlock).mul(bonusMultiplier) */\n    tag_341:\n        /* \"contracts/farm.sol\":32381:32444  return _currentBlock.sub(_lastRewardBlock).mul(bonusMultiplier) */\n      swap1\n      pop\n      jump(tag_216)\n        /* \"contracts/farm.sol\":32331:32455  if (_currentBlock <= bonusEndBlock) {... */\n    tag_340:\n        /* \"contracts/farm.sol\":32488:32501  bonusEndBlock */\n      sload(0x06)\n        /* \"contracts/farm.sol\":32468:32484  _lastRewardBlock */\n      dup4\n        /* \"contracts/farm.sol\":32468:32501  _lastRewardBlock >= bonusEndBlock */\n      lt\n        /* \"contracts/farm.sol\":32464:32570  if (_lastRewardBlock >= bonusEndBlock) {... */\n      tag_343\n      jumpi\n        /* \"contracts/farm.sol\":32524:32559  _currentBlock.sub(_lastRewardBlock) */\n      tag_341\n        /* \"contracts/farm.sol\":32524:32537  _currentBlock */\n      dup3\n        /* \"contracts/farm.sol\":32542:32558  _lastRewardBlock */\n      dup5\n        /* \"contracts/farm.sol\":32524:32541  _currentBlock.sub */\n      tag_238\n        /* \"contracts/farm.sol\":32524:32559  _currentBlock.sub(_lastRewardBlock) */\n      jump\t// in\n        /* \"contracts/farm.sol\":32464:32570  if (_lastRewardBlock >= bonusEndBlock) {... */\n    tag_343:\n        /* \"contracts/farm.sol\":32708:32832  bonusEndBlock.sub(_lastRewardBlock).mul(bonusMultiplier).add(... */\n      tag_345\n        /* \"contracts/farm.sol\":32786:32818  _currentBlock.sub(bonusEndBlock) */\n      tag_346\n        /* \"contracts/farm.sol\":32804:32817  bonusEndBlock */\n      sload(0x06)\n        /* \"contracts/farm.sol\":32786:32799  _currentBlock */\n      dup5\n        /* \"contracts/farm.sol\":32786:32803  _currentBlock.sub */\n      tag_238\n      swap1\n        /* \"contracts/farm.sol\":32786:32818  _currentBlock.sub(bonusEndBlock) */\n      swap2\n      swap1\n      0xffffffff\n      and\n      jump\t// in\n    tag_346:\n        /* \"contracts/farm.sol\":32708:32764  bonusEndBlock.sub(_lastRewardBlock).mul(bonusMultiplier) */\n      tag_248\n        /* \"contracts/farm.sol\":32748:32763  bonusMultiplier */\n      sload(0x05)\n        /* \"contracts/farm.sol\":32708:32743  bonusEndBlock.sub(_lastRewardBlock) */\n      tag_231\n        /* \"contracts/farm.sol\":32726:32742  _lastRewardBlock */\n      dup8\n        /* \"contracts/farm.sol\":32708:32721  bonusEndBlock */\n      sload(0x06)\n        /* \"contracts/farm.sol\":32708:32725  bonusEndBlock.sub */\n      tag_238\n      swap1\n        /* \"contracts/farm.sol\":32708:32743  bonusEndBlock.sub(_lastRewardBlock) */\n      swap2\n      swap1\n      0xffffffff\n      and\n      jump\t// in\n        /* \"contracts/farm.sol\":32708:32832  bonusEndBlock.sub(_lastRewardBlock).mul(bonusMultiplier).add(... */\n    tag_345:\n        /* \"contracts/farm.sol\":32689:32832  return... */\n      swap4\n        /* \"contracts/farm.sol\":32115:32839  function getMultiplier(uint256 _lastRewardBlock, uint256 _currentBlock)... */\n      swap3\n      pop\n      pop\n      pop\n      jump\t// out\n        /* \"contracts/farm.sol\":39911:40115  function withdrawalERC20(address _address, uint256 _amt)... */\n    tag_121:\n        /* \"contracts/farm.sol\":40020:40024  bool */\n      0x00\n        /* \"@openzeppelin/contracts/access/Ownable.sol\":1259:1271  _msgSender() */\n      tag_350\n        /* \"@openzeppelin/contracts/access/Ownable.sol\":1259:1269  _msgSender */\n      tag_164\n        /* \"@openzeppelin/contracts/access/Ownable.sol\":1259:1271  _msgSender() */\n      jump\t// in\n    tag_350:\n      sub(shl(0xa0, 0x01), 0x01)\n        /* \"@openzeppelin/contracts/access/Ownable.sol\":1248:1271  owner() == _msgSender() */\n      and\n        /* \"@openzeppelin/contracts/access/Ownable.sol\":1248:1255  owner() */\n      tag_351\n        /* \"@openzeppelin/contracts/access/Ownable.sol\":1248:1253  owner */\n      tag_112\n        /* \"@openzeppelin/contracts/access/Ownable.sol\":1248:1255  owner() */\n      jump\t// in\n    tag_351:\n      sub(shl(0xa0, 0x01), 0x01)\n        /* \"@openzeppelin/contracts/access/Ownable.sol\":1248:1271  owner() == _msgSender() */\n      and\n      eq\n        /* \"@openzeppelin/contracts/access/Ownable.sol\":1240:1308  require(owner() == _msgSender(), \"Ownable: caller is not the owner\") */\n      tag_352\n      jumpi\n      mload(0x40)\n      shl(0xe5, 0x461bcd)\n      dup2\n      mstore\n      0x04\n      add\n      tag_167\n      swap1\n      tag_168\n      jump\t// in\n    tag_352:\n        /* \"contracts/farm.sol\":40040:40087  IERC20(_address).safeTransfer(msg.sender, _amt) */\n      tag_355\n      sub(shl(0xa0, 0x01), 0x01)\n        /* \"contracts/farm.sol\":40040:40069  IERC20(_address).safeTransfer */\n      dup5\n      and\n        /* \"contracts/farm.sol\":40070:40080  msg.sender */\n      caller\n        /* \"contracts/farm.sol\":40082:40086  _amt */\n      dup5\n        /* \"contracts/farm.sol\":40040:40069  IERC20(_address).safeTransfer */\n      tag_299\n        /* \"contracts/farm.sol\":40040:40087  IERC20(_address).safeTransfer(msg.sender, _amt) */\n      jump\t// in\n    tag_355:\n      pop\n        /* \"contracts/farm.sol\":40104:40108  true */\n      0x01\n        /* \"contracts/farm.sol\":39911:40115  function withdrawalERC20(address _address, uint256 _amt)... */\n      swap3\n      swap2\n      pop\n      pop\n      jump\t// out\n        /* \"contracts/farm.sol\":27227:27291  mapping(uint256 => mapping(address => UserInfo)) public userInfo */\n    tag_125:\n      0x08\n      0x20\n      swap1\n      dup2\n      mstore\n      0x00\n      swap3\n      dup4\n      mstore\n      0x40\n      dup1\n      dup5\n      keccak256\n      swap1\n      swap2\n      mstore\n      swap1\n      dup3\n      mstore\n      swap1\n      keccak256\n      dup1\n      sload\n      0x01\n      dup3\n      add\n      sload\n      0x02\n      dup4\n      add\n      sload\n      0x03\n      swap1\n      swap4\n      add\n      sload\n      swap2\n      swap3\n      swap1\n      swap2\n      sub(shl(0xa0, 0x01), 0x01)\n      and\n      dup5\n      jump\t// out\n        /* \"contracts/farm.sol\":26997:27027  uint256 public bonusMultiplier */\n    tag_129:\n      sload(0x05)\n      dup2\n      jump\t// out\n        /* \"contracts/farm.sol\":31486:31768  function isDuplicatedPool(address _stakeToken) public view returns (bool) {... */\n    tag_133:\n        /* \"contracts/farm.sol\":31587:31595  poolInfo */\n      0x07\n        /* \"contracts/farm.sol\":31587:31602  poolInfo.length */\n      sload\n        /* \"contracts/farm.sol\":31554:31558  bool */\n      0x00\n      swap1\n      dup2\n        /* \"contracts/farm.sol\":31612:31740  for (uint256 _pid = 0; _pid < length; _pid++) {... */\n    tag_357:\n        /* \"contracts/farm.sol\":31642:31648  length */\n      dup2\n        /* \"contracts/farm.sol\":31635:31639  _pid */\n      dup2\n        /* \"contracts/farm.sol\":31635:31648  _pid < length */\n      lt\n        /* \"contracts/farm.sol\":31612:31740  for (uint256 _pid = 0; _pid < length; _pid++) {... */\n      iszero\n      tag_358\n      jumpi\n        /* \"contracts/farm.sol\":31705:31716  _stakeToken */\n      dup4\n      sub(shl(0xa0, 0x01), 0x01)\n        /* \"contracts/farm.sol\":31676:31716  poolInfo[_pid].stakeToken == _stakeToken */\n      and\n        /* \"contracts/farm.sol\":31676:31684  poolInfo */\n      0x07\n        /* \"contracts/farm.sol\":31685:31689  _pid */\n      dup3\n        /* \"contracts/farm.sol\":31676:31690  poolInfo[_pid] */\n      dup2\n      sload\n      dup2\n      lt\n      tag_360\n      jumpi\n      mstore(0x00, shl(0xe0, 0x4e487b71))\n      mstore(0x04, 0x32)\n      revert(0x00, 0x24)\n    tag_360:\n      0x00\n      swap2\n      dup3\n      mstore\n      0x20\n      swap1\n      swap2\n      keccak256\n      0x05\n      swap1\n      swap2\n      mul\n      add\n        /* \"contracts/farm.sol\":31676:31701  poolInfo[_pid].stakeToken */\n      sload\n      sub(shl(0xa0, 0x01), 0x01)\n      and\n        /* \"contracts/farm.sol\":31676:31716  poolInfo[_pid].stakeToken == _stakeToken */\n      eq\n        /* \"contracts/farm.sol\":31672:31729  if (poolInfo[_pid].stakeToken == _stakeToken) return true */\n      iszero\n      tag_362\n      jumpi\n        /* \"contracts/farm.sol\":31725:31729  true */\n      0x01\n        /* \"contracts/farm.sol\":31718:31729  return true */\n      swap3\n      pop\n      pop\n      pop\n      jump(tag_356)\n        /* \"contracts/farm.sol\":31672:31729  if (poolInfo[_pid].stakeToken == _stakeToken) return true */\n    tag_362:\n        /* \"contracts/farm.sol\":31650:31656  _pid++ */\n      dup1\n      tag_363\n      dup2\n      tag_307\n      jump\t// in\n    tag_363:\n      swap2\n      pop\n      pop\n        /* \"contracts/farm.sol\":31612:31740  for (uint256 _pid = 0; _pid < length; _pid++) {... */\n      jump(tag_357)\n    tag_358:\n      pop\n        /* \"contracts/farm.sol\":31756:31761  false */\n      0x00\n        /* \"contracts/farm.sol\":31749:31761  return false */\n      swap2\n      pop\n      pop\n        /* \"contracts/farm.sol\":31486:31768  function isDuplicatedPool(address _stakeToken) public view returns (bool) {... */\n    tag_356:\n      swap2\n      swap1\n      pop\n      jump\t// out\n        /* \"contracts/farm.sol\":36823:36992  function withdraw(... */\n    tag_137:\n        /* \"contracts/farm.sol\":23993:23994  1 */\n      0x01\n        /* \"contracts/farm.sol\":23976:23989  _guardCounter */\n      dup1\n      0x00\n        /* \"contracts/farm.sol\":23976:23994  _guardCounter += 1 */\n      dup3\n      dup3\n      sload\n      tag_365\n      swap2\n      swap1\n      tag_179\n      jump\t// in\n    tag_365:\n      swap1\n      swap2\n      sstore\n      pop\n      pop\n        /* \"contracts/farm.sol\":24027:24040  _guardCounter */\n      sload(0x01)\n        /* \"contracts/farm.sol\":36955:36985  _withdraw(_for, _pid, _amount) */\n      tag_367\n        /* \"contracts/farm.sol\":36965:36969  _for */\n      dup5\n        /* \"contracts/farm.sol\":36971:36975  _pid */\n      dup5\n        /* \"contracts/farm.sol\":36977:36984  _amount */\n      dup5\n        /* \"contracts/farm.sol\":36955:36964  _withdraw */\n      tag_368\n        /* \"contracts/farm.sol\":36955:36985  _withdraw(_for, _pid, _amount) */\n      jump\t// in\n    tag_367:\n        /* \"contracts/farm.sol\":24098:24111  _guardCounter */\n      sload(0x01)\n        /* \"contracts/farm.sol\":24082:24094  localCounter */\n      dup2\n        /* \"contracts/farm.sol\":24082:24111  localCounter == _guardCounter */\n      eq\n        /* \"contracts/farm.sol\":24061:24168  require(... */\n      tag_206\n      jumpi\n      mload(0x40)\n      shl(0xe5, 0x461bcd)\n      dup2\n      mstore\n      0x04\n      add\n      tag_167\n      swap1\n      tag_208\n      jump\t// in\n        /* \"contracts/farm.sol\":36998:37171  function withdrawAll(address _for, uint256 _pid)... */\n    tag_140:\n        /* \"contracts/farm.sol\":23993:23994  1 */\n      0x01\n        /* \"contracts/farm.sol\":23976:23989  _guardCounter */\n      dup1\n      0x00\n        /* \"contracts/farm.sol\":23976:23994  _guardCounter += 1 */\n      dup3\n      dup3\n      sload\n      tag_372\n      swap2\n      swap1\n      tag_179\n      jump\t// in\n    tag_372:\n      swap1\n      swap2\n      sstore\n      pop\n      pop\n        /* \"contracts/farm.sol\":24027:24040  _guardCounter */\n      sload(0x01)\n        /* \"contracts/farm.sol\":24004:24024  uint256 localCounter */\n      0x00\n        /* \"contracts/farm.sol\":37136:37150  userInfo[_pid] */\n      dup3\n      dup2\n      mstore\n        /* \"contracts/farm.sol\":37136:37144  userInfo */\n      0x08\n        /* \"contracts/farm.sol\":37136:37150  userInfo[_pid] */\n      0x20\n      swap1\n      dup2\n      mstore\n      0x40\n      dup1\n      dup4\n      keccak256\n      sub(shl(0xa0, 0x01), 0x01)\n        /* \"contracts/farm.sol\":37136:37156  userInfo[_pid][_for] */\n      dup8\n      and\n      dup5\n      mstore\n      swap1\n      swap2\n      mstore\n      swap1\n      keccak256\n        /* \"contracts/farm.sol\":37136:37163  userInfo[_pid][_for].amount */\n      sload\n        /* \"contracts/farm.sol\":37114:37164  _withdraw(_for, _pid, userInfo[_pid][_for].amount) */\n      tag_374\n      swap1\n        /* \"contracts/farm.sol\":37124:37128  _for */\n      dup5\n      swap1\n        /* \"contracts/farm.sol\":37130:37134  _pid */\n      dup5\n      swap1\n        /* \"contracts/farm.sol\":37114:37123  _withdraw */\n      tag_368\n        /* \"contracts/farm.sol\":37114:37164  _withdraw(_for, _pid, userInfo[_pid][_for].amount) */\n      jump\t// in\n    tag_374:\n        /* \"contracts/farm.sol\":24098:24111  _guardCounter */\n      sload(0x01)\n        /* \"contracts/farm.sol\":24082:24094  localCounter */\n      dup2\n        /* \"contracts/farm.sol\":24082:24111  localCounter == _guardCounter */\n      eq\n        /* \"contracts/farm.sol\":24061:24168  require(... */\n      tag_375\n      jumpi\n      mload(0x40)\n      shl(0xe5, 0x461bcd)\n      dup2\n      mstore\n      0x04\n      add\n      tag_167\n      swap1\n      tag_208\n      jump\t// in\n    tag_375:\n        /* \"contracts/farm.sol\":36998:37171  function withdrawAll(address _for, uint256 _pid)... */\n      pop\n      pop\n      pop\n      jump\t// out\n        /* \"contracts/farm.sol\":29318:29483  function setDev(address _devaddr) public onlyOwner {... */\n    tag_143:\n        /* \"@openzeppelin/contracts/access/Ownable.sol\":1259:1271  _msgSender() */\n      tag_378\n        /* \"@openzeppelin/contracts/access/Ownable.sol\":1259:1269  _msgSender */\n      tag_164\n        /* \"@openzeppelin/contracts/access/Ownable.sol\":1259:1271  _msgSender() */\n      jump\t// in\n    tag_378:\n      sub(shl(0xa0, 0x01), 0x01)\n        /* \"@openzeppelin/contracts/access/Ownable.sol\":1248:1271  owner() == _msgSender() */\n      and\n        /* \"@openzeppelin/contracts/access/Ownable.sol\":1248:1255  owner() */\n      tag_379\n        /* \"@openzeppelin/contracts/access/Ownable.sol\":1248:1253  owner */\n      tag_112\n        /* \"@openzeppelin/contracts/access/Ownable.sol\":1248:1255  owner() */\n      jump\t// in\n    tag_379:\n      sub(shl(0xa0, 0x01), 0x01)\n        /* \"@openzeppelin/contracts/access/Ownable.sol\":1248:1271  owner() == _msgSender() */\n      and\n      eq\n        /* \"@openzeppelin/contracts/access/Ownable.sol\":1240:1308  require(owner() == _msgSender(), \"Ownable: caller is not the owner\") */\n      tag_380\n      jumpi\n      mload(0x40)\n      shl(0xe5, 0x461bcd)\n      dup2\n      mstore\n      0x04\n      add\n      tag_167\n      swap1\n      tag_168\n      jump\t// in\n    tag_380:\n      sub(shl(0xa0, 0x01), 0x01)\n        /* \"contracts/farm.sol\":29387:29409  _devaddr != address(0) */\n      dup2\n      and\n        /* \"contracts/farm.sol\":29379:29410  require(_devaddr != address(0)) */\n      tag_383\n      jumpi\n      0x00\n      dup1\n      revert\n    tag_383:\n        /* \"contracts/farm.sol\":29420:29427  devaddr */\n      0x03\n        /* \"contracts/farm.sol\":29420:29438  devaddr = _devaddr */\n      dup1\n      sload\n      not(sub(shl(0xa0, 0x01), 0x01))\n      and\n      sub(shl(0xa0, 0x01), 0x01)\n      dup4\n      and\n      swap1\n      dup2\n      or\n      swap1\n      swap2\n      sstore\n        /* \"contracts/farm.sol\":29453:29476  SetDevAddress(_devaddr) */\n      mload(0x40)\n      0xf5721dfa6ddbf8e4a2cd38b2152fff4008050b9b37de59ae1e022dde4bd5df73\n      swap1\n      0x00\n      swap1\n      log2\n        /* \"contracts/farm.sol\":29318:29483  function setDev(address _devaddr) public onlyOwner {... */\n      pop\n      jump\t// out\n        /* \"contracts/farm.sol\":26855:26877  address public devaddr */\n    tag_145:\n      and(sub(shl(0xa0, 0x01), 0x01), sload(0x03))\n      dup2\n      jump\t// out\n        /* \"contracts/farm.sol\":29489:29638  function setSeaPerBlock(uint256 _seaPerBlock) public onlyOwner {... */\n    tag_149:\n        /* \"@openzeppelin/contracts/access/Ownable.sol\":1259:1271  _msgSender() */\n      tag_385\n        /* \"@openzeppelin/contracts/access/Ownable.sol\":1259:1269  _msgSender */\n      tag_164\n        /* \"@openzeppelin/contracts/access/Ownable.sol\":1259:1271  _msgSender() */\n      jump\t// in\n    tag_385:\n      sub(shl(0xa0, 0x01), 0x01)\n        /* \"@openzeppelin/contracts/access/Ownable.sol\":1248:1271  owner() == _msgSender() */\n      and\n        /* \"@openzeppelin/contracts/access/Ownable.sol\":1248:1255  owner() */\n      tag_386\n        /* \"@openzeppelin/contracts/access/Ownable.sol\":1248:1253  owner */\n      tag_112\n        /* \"@openzeppelin/contracts/access/Ownable.sol\":1248:1255  owner() */\n      jump\t// in\n    tag_386:\n      sub(shl(0xa0, 0x01), 0x01)\n        /* \"@openzeppelin/contracts/access/Ownable.sol\":1248:1271  owner() == _msgSender() */\n      and\n      eq\n        /* \"@openzeppelin/contracts/access/Ownable.sol\":1240:1308  require(owner() == _msgSender(), \"Ownable: caller is not the owner\") */\n      tag_387\n      jumpi\n      mload(0x40)\n      shl(0xe5, 0x461bcd)\n      dup2\n      mstore\n      0x04\n      add\n      tag_167\n      swap1\n      tag_168\n      jump\t// in\n    tag_387:\n        /* \"contracts/farm.sol\":29562:29573  seaPerBlock */\n      0x04\n        /* \"contracts/farm.sol\":29562:29588  seaPerBlock = _seaPerBlock */\n      dup2\n      swap1\n      sstore\n        /* \"contracts/farm.sol\":29603:29631  SetSeaPerBlock(_seaPerBlock) */\n      mload(0x40)\n        /* \"contracts/farm.sol\":29576:29588  _seaPerBlock */\n      dup2\n      swap1\n        /* \"contracts/farm.sol\":29603:29631  SetSeaPerBlock(_seaPerBlock) */\n      0x045c280c0ee21a223bf57ba9b47035cda586d0472889fcf81d6ecf95a72fbf64\n      swap1\n      0x00\n      swap1\n      log2\n        /* \"contracts/farm.sol\":29489:29638  function setSeaPerBlock(uint256 _seaPerBlock) public onlyOwner {... */\n      pop\n      jump\t// out\n        /* \"contracts/farm.sol\":38038:38448  function harvest(uint256 _pid) public override {... */\n    tag_152:\n        /* \"contracts/farm.sol\":38095:38116  PoolInfo storage pool */\n      0x00\n        /* \"contracts/farm.sol\":38119:38127  poolInfo */\n      0x07\n        /* \"contracts/farm.sol\":38128:38132  _pid */\n      dup3\n        /* \"contracts/farm.sol\":38119:38133  poolInfo[_pid] */\n      dup2\n      sload\n      dup2\n      lt\n      tag_391\n      jumpi\n      mstore(0x00, shl(0xe0, 0x4e487b71))\n      mstore(0x04, 0x32)\n      revert(0x00, 0x24)\n    tag_391:\n      0x00\n      swap2\n      dup3\n      mstore\n      0x20\n      dup1\n      dup4\n      keccak256\n        /* \"contracts/farm.sol\":38167:38181  userInfo[_pid] */\n      dup6\n      dup5\n      mstore\n        /* \"contracts/farm.sol\":38167:38175  userInfo */\n      0x08\n        /* \"contracts/farm.sol\":38167:38181  userInfo[_pid] */\n      dup3\n      mstore\n      0x40\n      dup1\n      dup6\n      keccak256\n        /* \"contracts/farm.sol\":38182:38192  msg.sender */\n      caller\n        /* \"contracts/farm.sol\":38167:38193  userInfo[_pid][msg.sender] */\n      dup7\n      mstore\n      swap1\n      swap3\n      mstore\n      swap3\n      keccak256\n        /* \"contracts/farm.sol\":38119:38133  poolInfo[_pid] */\n      0x05\n      swap1\n      swap2\n      mul\n      swap1\n      swap2\n      add\n      swap2\n      pop\n        /* \"contracts/farm.sol\":38203:38219  updatePool(_pid) */\n      tag_393\n        /* \"contracts/farm.sol\":38176:38180  _pid */\n      dup4\n        /* \"contracts/farm.sol\":38203:38213  updatePool */\n      tag_99\n        /* \"contracts/farm.sol\":38203:38219  updatePool(_pid) */\n      jump\t// in\n    tag_393:\n        /* \"contracts/farm.sol\":38229:38255  _harvest(msg.sender, _pid) */\n      tag_394\n        /* \"contracts/farm.sol\":38238:38248  msg.sender */\n      caller\n        /* \"contracts/farm.sol\":38250:38254  _pid */\n      dup5\n        /* \"contracts/farm.sol\":38229:38237  _harvest */\n      tag_193\n        /* \"contracts/farm.sol\":38229:38255  _harvest(msg.sender, _pid) */\n      jump\t// in\n    tag_394:\n        /* \"contracts/farm.sol\":38299:38318  pool.accSeaPerShare */\n      0x03\n      dup3\n      add\n      sload\n        /* \"contracts/farm.sol\":38283:38294  user.amount */\n      dup2\n      sload\n        /* \"contracts/farm.sol\":38283:38332  user.amount.mul(pool.accSeaPerShare).div(GLO_VAL) */\n      tag_395\n      swap2\n        /* \"contracts/farm.sol\":25348:25352  1e12 */\n      0xe8d4a51000\n      swap2\n        /* \"contracts/farm.sol\":38283:38319  user.amount.mul(pool.accSeaPerShare) */\n      tag_200\n      swap2\n        /* \"contracts/farm.sol\":38283:38298  user.amount.mul */\n      tag_201\n        /* \"contracts/farm.sol\":38283:38319  user.amount.mul(pool.accSeaPerShare) */\n      jump\t// in\n        /* \"contracts/farm.sol\":38283:38332  user.amount.mul(pool.accSeaPerShare).div(GLO_VAL) */\n    tag_395:\n        /* \"contracts/farm.sol\":38265:38280  user.rewardDebt */\n      0x01\n      dup3\n      add\n        /* \"contracts/farm.sol\":38265:38332  user.rewardDebt = user.amount.mul(pool.accSeaPerShare).div(GLO_VAL) */\n      sstore\n        /* \"contracts/farm.sol\":38375:38405  pool.accSeaPerShareTilBonusEnd */\n      0x04\n      dup3\n      add\n      sload\n        /* \"contracts/farm.sol\":38359:38370  user.amount */\n      dup2\n      sload\n        /* \"contracts/farm.sol\":38359:38441  user.amount.mul(pool.accSeaPerShareTilBonusEnd).div(... */\n      tag_397\n      swap2\n        /* \"contracts/farm.sol\":25348:25352  1e12 */\n      0xe8d4a51000\n      swap2\n        /* \"contracts/farm.sol\":38359:38406  user.amount.mul(pool.accSeaPerShareTilBonusEnd) */\n      tag_200\n      swap2\n        /* \"contracts/farm.sol\":38359:38374  user.amount.mul */\n      tag_201\n        /* \"contracts/farm.sol\":38359:38406  user.amount.mul(pool.accSeaPerShareTilBonusEnd) */\n      jump\t// in\n        /* \"contracts/farm.sol\":38359:38441  user.amount.mul(pool.accSeaPerShareTilBonusEnd).div(... */\n    tag_397:\n        /* \"contracts/farm.sol\":38342:38356  user.bonusDebt */\n      0x02\n      swap1\n      swap2\n      add\n        /* \"contracts/farm.sol\":38342:38441  user.bonusDebt = user.amount.mul(pool.accSeaPerShareTilBonusEnd).div(... */\n      sstore\n      pop\n      pop\n        /* \"contracts/farm.sol\":38038:38448  function harvest(uint256 _pid) public override {... */\n      jump\t// out\n        /* \"contracts/farm.sol\":31882:32042  function manualMint(address _to, uint256 _amount) public onlyOwner {... */\n    tag_155:\n        /* \"@openzeppelin/contracts/access/Ownable.sol\":1259:1271  _msgSender() */\n      tag_400\n        /* \"@openzeppelin/contracts/access/Ownable.sol\":1259:1269  _msgSender */\n      tag_164\n        /* \"@openzeppelin/contracts/access/Ownable.sol\":1259:1271  _msgSender() */\n      jump\t// in\n    tag_400:\n      sub(shl(0xa0, 0x01), 0x01)\n        /* \"@openzeppelin/contracts/access/Ownable.sol\":1248:1271  owner() == _msgSender() */\n      and\n        /* \"@openzeppelin/contracts/access/Ownable.sol\":1248:1255  owner() */\n      tag_401\n        /* \"@openzeppelin/contracts/access/Ownable.sol\":1248:1253  owner */\n      tag_112\n        /* \"@openzeppelin/contracts/access/Ownable.sol\":1248:1255  owner() */\n      jump\t// in\n    tag_401:\n      sub(shl(0xa0, 0x01), 0x01)\n        /* \"@openzeppelin/contracts/access/Ownable.sol\":1248:1271  owner() == _msgSender() */\n      and\n      eq\n        /* \"@openzeppelin/contracts/access/Ownable.sol\":1240:1308  require(owner() == _msgSender(), \"Ownable: caller is not the owner\") */\n      tag_402\n      jumpi\n      mload(0x40)\n      shl(0xe5, 0x461bcd)\n      dup2\n      mstore\n      0x04\n      add\n      tag_167\n      swap1\n      tag_168\n      jump\t// in\n    tag_402:\n        /* \"contracts/farm.sol\":31972:31975  sea */\n      sload(0x02)\n        /* \"contracts/farm.sol\":31959:31996  ISea(address(sea)).mint(_to, _amount) */\n      mload(0x40)\n      shl(0xe0, 0x40c10f19)\n      dup2\n      mstore\n      sub(shl(0xa0, 0x01), 0x01)\n        /* \"contracts/farm.sol\":31972:31975  sea */\n      swap1\n      swap2\n      and\n      swap1\n        /* \"contracts/farm.sol\":31959:31982  ISea(address(sea)).mint */\n      0x40c10f19\n      swap1\n        /* \"contracts/farm.sol\":31959:31996  ISea(address(sea)).mint(_to, _amount) */\n      tag_405\n      swap1\n        /* \"contracts/farm.sol\":31983:31986  _to */\n      dup6\n      swap1\n        /* \"contracts/farm.sol\":31988:31995  _amount */\n      dup6\n      swap1\n        /* \"contracts/farm.sol\":31959:31996  ISea(address(sea)).mint(_to, _amount) */\n      0x04\n      add\n      tag_270\n      jump\t// in\n    tag_405:\n      0x20\n      mload(0x40)\n      dup1\n      dup4\n      sub\n      dup2\n      0x00\n      dup8\n      dup1\n      extcodesize\n      iszero\n      dup1\n      iszero\n      tag_406\n      jumpi\n      0x00\n      dup1\n      revert\n    tag_406:\n      pop\n      gas\n      call\n      iszero\n      dup1\n      iszero\n      tag_408\n      jumpi\n      returndatasize\n      0x00\n      dup1\n      returndatacopy\n      revert(0x00, returndatasize)\n    tag_408:\n      pop\n      pop\n      pop\n      pop\n      mload(0x40)\n      returndatasize\n      not(0x1f)\n      0x1f\n      dup3\n      add\n      and\n      dup3\n      add\n      dup1\n      0x40\n      mstore\n      pop\n      dup2\n      add\n      swap1\n      tag_409\n      swap2\n      swap1\n      tag_275\n      jump\t// in\n    tag_409:\n      pop\n        /* \"contracts/farm.sol\":32011:32035  ManualMint(_to, _amount) */\n      mload(0x40)\n        /* \"contracts/farm.sol\":32027:32034  _amount */\n      dup2\n      swap1\n      sub(shl(0xa0, 0x01), 0x01)\n        /* \"contracts/farm.sol\":32011:32035  ManualMint(_to, _amount) */\n      dup5\n      and\n      swap1\n      0x5a513126cbc10dde78a9844543bd609b2c5b0f4169cecb81f0378f00fa2bdbf0\n      swap1\n      0x00\n      swap1\n      log3\n        /* \"contracts/farm.sol\":31882:32042  function manualMint(address _to, uint256 _amount) public onlyOwner {... */\n      pop\n      pop\n      jump\t// out\n        /* \"contracts/farm.sol\":26920:26946  uint256 public seaPerBlock */\n    tag_157:\n      sload(0x04)\n      dup2\n      jump\t// out\n        /* \"@openzeppelin/contracts/access/Ownable.sol\":1918:2116  function transferOwnership(address newOwner) public virtual onlyOwner {... */\n    tag_161:\n        /* \"@openzeppelin/contracts/access/Ownable.sol\":1259:1271  _msgSender() */\n      tag_411\n        /* \"@openzeppelin/contracts/access/Ownable.sol\":1259:1269  _msgSender */\n      tag_164\n        /* \"@openzeppelin/contracts/access/Ownable.sol\":1259:1271  _msgSender() */\n      jump\t// in\n    tag_411:\n      sub(shl(0xa0, 0x01), 0x01)\n        /* \"@openzeppelin/contracts/access/Ownable.sol\":1248:1271  owner() == _msgSender() */\n      and\n        /* \"@openzeppelin/contracts/access/Ownable.sol\":1248:1255  owner() */\n      tag_412\n        /* \"@openzeppelin/contracts/access/Ownable.sol\":1248:1253  owner */\n      tag_112\n        /* \"@openzeppelin/contracts/access/Ownable.sol\":1248:1255  owner() */\n      jump\t// in\n    tag_412:\n      sub(shl(0xa0, 0x01), 0x01)\n        /* \"@openzeppelin/contracts/access/Ownable.sol\":1248:1271  owner() == _msgSender() */\n      and\n      eq\n        /* \"@openzeppelin/contracts/access/Ownable.sol\":1240:1308  require(owner() == _msgSender(), \"Ownable: caller is not the owner\") */\n      tag_413\n      jumpi\n      mload(0x40)\n      shl(0xe5, 0x461bcd)\n      dup2\n      mstore\n      0x04\n      add\n      tag_167\n      swap1\n      tag_168\n      jump\t// in\n    tag_413:\n      sub(shl(0xa0, 0x01), 0x01)\n        /* \"@openzeppelin/contracts/access/Ownable.sol\":2006:2028  newOwner != address(0) */\n      dup2\n      and\n        /* \"@openzeppelin/contracts/access/Ownable.sol\":1998:2071  require(newOwner != address(0), \"Ownable: new owner is the zero address\") */\n      tag_416\n      jumpi\n      mload(0x40)\n      shl(0xe5, 0x461bcd)\n      dup2\n      mstore\n      0x04\n      add\n      tag_167\n      swap1\n      tag_418\n      jump\t// in\n    tag_416:\n        /* \"@openzeppelin/contracts/access/Ownable.sol\":2081:2109  _transferOwnership(newOwner) */\n      tag_253\n        /* \"@openzeppelin/contracts/access/Ownable.sol\":2100:2108  newOwner */\n      dup2\n        /* \"@openzeppelin/contracts/access/Ownable.sol\":2081:2099  _transferOwnership */\n      tag_315\n        /* \"@openzeppelin/contracts/access/Ownable.sol\":2081:2109  _transferOwnership(newOwner) */\n      jump\t// in\n        /* \"@openzeppelin/contracts/utils/Context.sol\":640:736  function _msgSender() internal view virtual returns (address) {... */\n    tag_164:\n        /* \"@openzeppelin/contracts/utils/Context.sol\":719:729  msg.sender */\n      caller\n        /* \"@openzeppelin/contracts/utils/Context.sol\":640:736  function _msgSender() internal view virtual returns (address) {... */\n      swap1\n      jump\t// out\n        /* \"contracts/farm.sol\":38454:38953  function _harvest(address _to, uint256 _pid) internal {... */\n    tag_193:\n        /* \"contracts/farm.sol\":38518:38539  PoolInfo storage pool */\n      0x00\n        /* \"contracts/farm.sol\":38542:38550  poolInfo */\n      0x07\n        /* \"contracts/farm.sol\":38551:38555  _pid */\n      dup3\n        /* \"contracts/farm.sol\":38542:38556  poolInfo[_pid] */\n      dup2\n      sload\n      dup2\n      lt\n      tag_422\n      jumpi\n      mstore(0x00, shl(0xe0, 0x4e487b71))\n      mstore(0x04, 0x32)\n      revert(0x00, 0x24)\n    tag_422:\n      0x00\n      swap2\n      dup3\n      mstore\n      0x20\n      dup1\n      dup4\n      keccak256\n        /* \"contracts/farm.sol\":38590:38604  userInfo[_pid] */\n      dup6\n      dup5\n      mstore\n        /* \"contracts/farm.sol\":38590:38598  userInfo */\n      0x08\n        /* \"contracts/farm.sol\":38590:38604  userInfo[_pid] */\n      dup3\n      mstore\n      0x40\n      dup1\n      dup6\n      keccak256\n      sub(shl(0xa0, 0x01), 0x01)\n        /* \"contracts/farm.sol\":38590:38609  userInfo[_pid][_to] */\n      dup10\n      and\n      dup7\n      mstore\n      swap1\n      swap3\n      mstore\n      swap3\n      keccak256\n        /* \"contracts/farm.sol\":38627:38638  user.amount */\n      dup1\n      sload\n        /* \"contracts/farm.sol\":38542:38556  poolInfo[_pid] */\n      0x05\n      swap1\n      swap3\n      mul\n      swap1\n      swap3\n      add\n      swap3\n      pop\n        /* \"contracts/farm.sol\":38619:38665  require(user.amount > 0, \"nothing to harvest\") */\n      tag_424\n      jumpi\n      mload(0x40)\n      shl(0xe5, 0x461bcd)\n      dup2\n      mstore\n      0x04\n      add\n      tag_167\n      swap1\n      tag_426\n      jump\t// in\n    tag_424:\n        /* \"contracts/farm.sol\":38675:38690  uint256 pending */\n      0x00\n        /* \"contracts/farm.sol\":38693:38785  user.amount.mul(pool.accSeaPerShare).div(GLO_VAL).sub(... */\n      tag_427\n        /* \"contracts/farm.sol\":38760:38764  user */\n      dup3\n        /* \"contracts/farm.sol\":38760:38775  user.rewardDebt */\n      0x01\n      add\n      sload\n        /* \"contracts/farm.sol\":38693:38742  user.amount.mul(pool.accSeaPerShare).div(GLO_VAL) */\n      tag_236\n        /* \"contracts/farm.sol\":25348:25352  1e12 */\n      0xe8d4a51000\n        /* \"contracts/farm.sol\":38693:38729  user.amount.mul(pool.accSeaPerShare) */\n      tag_200\n        /* \"contracts/farm.sol\":38709:38713  pool */\n      dup8\n        /* \"contracts/farm.sol\":38709:38728  pool.accSeaPerShare */\n      0x03\n      add\n      sload\n        /* \"contracts/farm.sol\":38693:38697  user */\n      dup8\n        /* \"contracts/farm.sol\":38693:38704  user.amount */\n      0x00\n      add\n      sload\n        /* \"contracts/farm.sol\":38693:38708  user.amount.mul */\n      tag_201\n      swap1\n        /* \"contracts/farm.sol\":38693:38729  user.amount.mul(pool.accSeaPerShare) */\n      swap2\n      swap1\n      0xffffffff\n      and\n      jump\t// in\n        /* \"contracts/farm.sol\":38693:38785  user.amount.mul(pool.accSeaPerShare).div(GLO_VAL).sub(... */\n    tag_427:\n        /* \"contracts/farm.sol\":38834:38837  sea */\n      sload(0x02)\n        /* \"contracts/farm.sol\":38827:38863  IERC20(sea).balanceOf(address(this)) */\n      mload(0x40)\n      shl(0xe0, 0x70a08231)\n      dup2\n      mstore\n        /* \"contracts/farm.sol\":38675:38785  uint256 pending = user.amount.mul(pool.accSeaPerShare).div(GLO_VAL).sub(... */\n      swap2\n      swap3\n      pop\n      sub(shl(0xa0, 0x01), 0x01)\n        /* \"contracts/farm.sol\":38834:38837  sea */\n      and\n      swap1\n        /* \"contracts/farm.sol\":38827:38848  IERC20(sea).balanceOf */\n      0x70a08231\n      swap1\n        /* \"contracts/farm.sol\":38827:38863  IERC20(sea).balanceOf(address(this)) */\n      tag_430\n      swap1\n        /* \"contracts/farm.sol\":38857:38861  this */\n      address\n      swap1\n        /* \"contracts/farm.sol\":38827:38863  IERC20(sea).balanceOf(address(this)) */\n      0x04\n      add\n      tag_96\n      jump\t// in\n    tag_430:\n      0x20\n      mload(0x40)\n      dup1\n      dup4\n      sub\n      dup2\n      dup7\n      dup1\n      extcodesize\n      iszero\n      dup1\n      iszero\n      tag_431\n      jumpi\n      0x00\n      dup1\n      revert\n    tag_431:\n      pop\n      gas\n      staticcall\n      iszero\n      dup1\n      iszero\n      tag_433\n      jumpi\n      returndatasize\n      0x00\n      dup1\n      returndatacopy\n      revert(0x00, returndatasize)\n    tag_433:\n      pop\n      pop\n      pop\n      pop\n      mload(0x40)\n      returndatasize\n      not(0x1f)\n      0x1f\n      dup3\n      add\n      and\n      dup3\n      add\n      dup1\n      0x40\n      mstore\n      pop\n      dup2\n      add\n      swap1\n      tag_434\n      swap2\n      swap1\n      tag_225\n      jump\t// in\n    tag_434:\n        /* \"contracts/farm.sol\":38816:38823  pending */\n      dup2\n        /* \"contracts/farm.sol\":38816:38863  pending <= IERC20(sea).balanceOf(address(this)) */\n      gt\n      iszero\n        /* \"contracts/farm.sol\":38795:38907  require(... */\n      tag_435\n      jumpi\n      mload(0x40)\n      shl(0xe5, 0x461bcd)\n      dup2\n      mstore\n      0x04\n      add\n      tag_167\n      swap1\n      tag_437\n      jump\t// in\n    tag_435:\n        /* \"contracts/farm.sol\":38917:38946  safeSeaTransfer(_to, pending) */\n      tag_438\n        /* \"contracts/farm.sol\":38933:38936  _to */\n      dup6\n        /* \"contracts/farm.sol\":38938:38945  pending */\n      dup3\n        /* \"contracts/farm.sol\":38917:38932  safeSeaTransfer */\n      tag_439\n        /* \"contracts/farm.sol\":38917:38946  safeSeaTransfer(_to, pending) */\n      jump\t// in\n    tag_438:\n        /* \"contracts/farm.sol\":38454:38953  function _harvest(address _to, uint256 _pid) internal {... */\n      pop\n      pop\n      pop\n      pop\n      pop\n      jump\t// out\n        /* \"contracts/farm.sol\":19324:19599  function safeTransferFrom(... */\n    tag_196:\n        /* \"contracts/farm.sol\":19462:19592  _callOptionalReturn(... */\n      tag_206\n        /* \"contracts/farm.sol\":19495:19500  token */\n      dup5\n        /* \"contracts/farm.sol\":19537:19564  token.transferFrom.selector */\n      shl(0xe0, 0x23b872dd)\n        /* \"contracts/farm.sol\":19566:19570  from */\n      dup6\n        /* \"contracts/farm.sol\":19572:19574  to */\n      dup6\n        /* \"contracts/farm.sol\":19576:19581  value */\n      dup6\n        /* \"contracts/farm.sol\":19514:19582  abi.encodeWithSelector(token.transferFrom.selector, from, to, value) */\n      add(0x24, mload(0x40))\n      tag_442\n      swap4\n      swap3\n      swap2\n      swap1\n      tag_443\n      jump\t// in\n    tag_442:\n      0x40\n      dup1\n      mload\n      not(0x1f)\n      dup2\n      dup5\n      sub\n      add\n      dup2\n      mstore\n      swap2\n      swap1\n      mstore\n      0x20\n      dup2\n      add\n      dup1\n      mload\n      sub(shl(0xe0, 0x01), 0x01)\n      and\n      not(sub(shl(0xe0, 0x01), 0x01))\n      swap1\n      swap4\n      and\n      swap3\n      swap1\n      swap3\n      or\n      swap1\n      swap2\n      mstore\n        /* \"contracts/farm.sol\":19462:19481  _callOptionalReturn */\n      tag_444\n        /* \"contracts/farm.sol\":19462:19592  _callOptionalReturn(... */\n      jump\t// in\n        /* \"contracts/farm.sol\":5584:5759  function add(uint256 a, uint256 b) internal pure returns (uint256) {... */\n    tag_198:\n        /* \"contracts/farm.sol\":5642:5649  uint256 */\n      0x00\n      dup1\n        /* \"contracts/farm.sol\":5673:5678  a + b */\n      tag_446\n        /* \"contracts/farm.sol\":5677:5678  b */\n      dup4\n        /* \"contracts/farm.sol\":5673:5674  a */\n      dup6\n        /* \"contracts/farm.sol\":5673:5678  a + b */\n      tag_179\n      jump\t// in\n    tag_446:\n        /* \"contracts/farm.sol\":5661:5678  uint256 c = a + b */\n      swap1\n      pop\n        /* \"contracts/farm.sol\":5701:5702  a */\n      dup4\n        /* \"contracts/farm.sol\":5696:5697  c */\n      dup2\n        /* \"contracts/farm.sol\":5696:5702  c >= a */\n      lt\n      iszero\n        /* \"contracts/farm.sol\":5688:5734  require(c >= a, \"SafeMath: addition overflow\") */\n      tag_345\n      jumpi\n      mload(0x40)\n      shl(0xe5, 0x461bcd)\n      dup2\n      mstore\n      0x04\n      add\n      tag_167\n      swap1\n      tag_449\n      jump\t// in\n        /* \"contracts/farm.sol\":6432:6647  function mul(uint256 a, uint256 b) internal pure returns (uint256) {... */\n    tag_201:\n        /* \"contracts/farm.sol\":6490:6497  uint256 */\n      0x00\n        /* \"contracts/farm.sol\":6513:6519  a == 0 */\n      dup3\n        /* \"contracts/farm.sol\":6509:6529  if (a == 0) return 0 */\n      tag_451\n      jumpi\n      pop\n        /* \"contracts/farm.sol\":6528:6529  0 */\n      0x00\n        /* \"contracts/farm.sol\":6521:6529  return 0 */\n      jump(tag_216)\n        /* \"contracts/farm.sol\":6509:6529  if (a == 0) return 0 */\n    tag_451:\n        /* \"contracts/farm.sol\":6539:6548  uint256 c */\n      0x00\n        /* \"contracts/farm.sol\":6551:6556  a * b */\n      tag_452\n        /* \"contracts/farm.sol\":6555:6556  b */\n      dup4\n        /* \"contracts/farm.sol\":6551:6552  a */\n      dup6\n        /* \"contracts/farm.sol\":6551:6556  a * b */\n      tag_453\n      jump\t// in\n    tag_452:\n        /* \"contracts/farm.sol\":6539:6556  uint256 c = a * b */\n      swap1\n      pop\n        /* \"contracts/farm.sol\":6583:6584  b */\n      dup3\n        /* \"contracts/farm.sol\":6574:6579  c / a */\n      tag_454\n        /* \"contracts/farm.sol\":6578:6579  a */\n      dup6\n        /* \"contracts/farm.sol\":6539:6556  uint256 c = a * b */\n      dup4\n        /* \"contracts/farm.sol\":6574:6579  c / a */\n      tag_455\n      jump\t// in\n    tag_454:\n        /* \"contracts/farm.sol\":6574:6584  c / a == b */\n      eq\n        /* \"contracts/farm.sol\":6566:6622  require(c / a == b, \"SafeMath: multiplication overflow\") */\n      tag_345\n      jumpi\n      mload(0x40)\n      shl(0xe5, 0x461bcd)\n      dup2\n      mstore\n      0x04\n      add\n      tag_167\n      swap1\n      tag_458\n      jump\t// in\n        /* \"contracts/farm.sol\":7111:7261  function div(uint256 a, uint256 b) internal pure returns (uint256) {... */\n    tag_202:\n        /* \"contracts/farm.sol\":7169:7176  uint256 */\n      0x00\n        /* \"contracts/farm.sol\":7200:7201  0 */\n      dup1\n        /* \"contracts/farm.sol\":7196:7197  b */\n      dup3\n        /* \"contracts/farm.sol\":7196:7201  b > 0 */\n      gt\n        /* \"contracts/farm.sol\":7188:7232  require(b > 0, \"SafeMath: division by zero\") */\n      tag_460\n      jumpi\n      mload(0x40)\n      shl(0xe5, 0x461bcd)\n      dup2\n      mstore\n      0x04\n      add\n      tag_167\n      swap1\n      tag_462\n      jump\t// in\n    tag_460:\n        /* \"contracts/farm.sol\":7249:7254  a / b */\n      tag_345\n        /* \"contracts/farm.sol\":7253:7254  b */\n      dup3\n        /* \"contracts/farm.sol\":7249:7250  a */\n      dup5\n        /* \"contracts/farm.sol\":7249:7254  a / b */\n      tag_455\n      jump\t// in\n        /* \"contracts/farm.sol\":6030:6185  function sub(uint256 a, uint256 b) internal pure returns (uint256) {... */\n    tag_238:\n        /* \"contracts/farm.sol\":6088:6095  uint256 */\n      0x00\n        /* \"contracts/farm.sol\":6120:6121  a */\n      dup3\n        /* \"contracts/farm.sol\":6115:6116  b */\n      dup3\n        /* \"contracts/farm.sol\":6115:6121  b <= a */\n      gt\n      iszero\n        /* \"contracts/farm.sol\":6107:6156  require(b <= a, \"SafeMath: subtraction overflow\") */\n      tag_465\n      jumpi\n      mload(0x40)\n      shl(0xe5, 0x461bcd)\n      dup2\n      mstore\n      0x04\n      add\n      tag_167\n      swap1\n      tag_467\n      jump\t// in\n    tag_465:\n        /* \"contracts/farm.sol\":6173:6178  a - b */\n      tag_345\n        /* \"contracts/farm.sol\":6177:6178  b */\n      dup3\n        /* \"contracts/farm.sol\":6173:6174  a */\n      dup5\n        /* \"contracts/farm.sol\":6173:6178  a - b */\n      tag_469\n      jump\t// in\n        /* \"contracts/farm.sol\":19079:19318  function safeTransfer(... */\n    tag_299:\n        /* \"contracts/farm.sol\":19191:19311  _callOptionalReturn(... */\n      tag_375\n        /* \"contracts/farm.sol\":19224:19229  token */\n      dup4\n        /* \"contracts/farm.sol\":19266:19289  token.transfer.selector */\n      shl(0xe0, 0xa9059cbb)\n        /* \"contracts/farm.sol\":19291:19293  to */\n      dup5\n        /* \"contracts/farm.sol\":19295:19300  value */\n      dup5\n        /* \"contracts/farm.sol\":19243:19301  abi.encodeWithSelector(token.transfer.selector, to, value) */\n      add(0x24, mload(0x40))\n      tag_442\n      swap3\n      swap2\n      swap1\n      tag_270\n      jump\t// in\n        /* \"@openzeppelin/contracts/access/Ownable.sol\":2270:2457  function _transferOwnership(address newOwner) internal virtual {... */\n    tag_315:\n        /* \"@openzeppelin/contracts/access/Ownable.sol\":2343:2359  address oldOwner */\n      0x00\n        /* \"@openzeppelin/contracts/access/Ownable.sol\":2362:2368  _owner */\n      dup1\n      sload\n      sub(shl(0xa0, 0x01), 0x01)\n        /* \"@openzeppelin/contracts/access/Ownable.sol\":2378:2395  _owner = newOwner */\n      dup4\n      dup2\n      and\n      not(sub(shl(0xa0, 0x01), 0x01))\n      dup4\n      and\n      dup2\n      or\n      dup5\n      sstore\n        /* \"@openzeppelin/contracts/access/Ownable.sol\":2410:2450  OwnershipTransferred(oldOwner, newOwner) */\n      mload(0x40)\n        /* \"@openzeppelin/contracts/access/Ownable.sol\":2362:2368  _owner */\n      swap2\n      swap1\n      swap3\n      and\n      swap3\n      dup4\n      swap2\n        /* \"@openzeppelin/contracts/access/Ownable.sol\":2410:2450  OwnershipTransferred(oldOwner, newOwner) */\n      0x8be0079c531659141344cd1fd0a4f28419497f9722a3daafe3b4186f6b6457e0\n      swap2\n        /* \"@openzeppelin/contracts/access/Ownable.sol\":2343:2359  address oldOwner */\n      swap1\n        /* \"@openzeppelin/contracts/access/Ownable.sol\":2410:2450  OwnershipTransferred(oldOwner, newOwner) */\n      log3\n        /* \"@openzeppelin/contracts/access/Ownable.sol\":2270:2457  function _transferOwnership(address newOwner) internal virtual {... */\n      pop\n      pop\n      jump\t// out\n        /* \"contracts/farm.sol\":37177:37992  function _withdraw(... */\n    tag_368:\n        /* \"contracts/farm.sol\":37290:37311  PoolInfo storage pool */\n      0x00\n        /* \"contracts/farm.sol\":37314:37322  poolInfo */\n      0x07\n        /* \"contracts/farm.sol\":37323:37327  _pid */\n      dup4\n        /* \"contracts/farm.sol\":37314:37328  poolInfo[_pid] */\n      dup2\n      sload\n      dup2\n      lt\n      tag_475\n      jumpi\n      mstore(0x00, shl(0xe0, 0x4e487b71))\n      mstore(0x04, 0x32)\n      revert(0x00, 0x24)\n    tag_475:\n      0x00\n      swap2\n      dup3\n      mstore\n      0x20\n      dup1\n      dup4\n      keccak256\n        /* \"contracts/farm.sol\":37362:37376  userInfo[_pid] */\n      dup7\n      dup5\n      mstore\n        /* \"contracts/farm.sol\":37362:37370  userInfo */\n      0x08\n        /* \"contracts/farm.sol\":37362:37376  userInfo[_pid] */\n      dup3\n      mstore\n      0x40\n      dup1\n      dup6\n      keccak256\n      sub(shl(0xa0, 0x01), 0x01)\n        /* \"contracts/farm.sol\":37362:37382  userInfo[_pid][_for] */\n      dup1\n      dup12\n      and\n      dup8\n      mstore\n      swap4\n      mstore\n      swap1\n      swap4\n      keccak256\n        /* \"contracts/farm.sol\":37400:37413  user.fundedBy */\n      0x03\n      dup2\n      add\n      sload\n        /* \"contracts/farm.sol\":37314:37328  poolInfo[_pid] */\n      0x05\n      swap1\n      swap4\n      mul\n      swap1\n      swap4\n      add\n      swap4\n      pop\n        /* \"contracts/farm.sol\":37400:37413  user.fundedBy */\n      and\n        /* \"contracts/farm.sol\":37417:37427  msg.sender */\n      caller\n        /* \"contracts/farm.sol\":37400:37427  user.fundedBy == msg.sender */\n      eq\n        /* \"contracts/farm.sol\":37392:37443  require(user.fundedBy == msg.sender, \"only funder\") */\n      tag_477\n      jumpi\n      mload(0x40)\n      shl(0xe5, 0x461bcd)\n      dup2\n      mstore\n      0x04\n      add\n      tag_167\n      swap1\n      tag_479\n      jump\t// in\n    tag_477:\n        /* \"contracts/farm.sol\":37461:37472  user.amount */\n      dup1\n      sload\n        /* \"contracts/farm.sol\":37461:37483  user.amount >= _amount */\n      dup4\n      gt\n      iszero\n        /* \"contracts/farm.sol\":37453:37506  require(user.amount >= _amount, \"withdraw: not good\") */\n      tag_480\n      jumpi\n      mload(0x40)\n      shl(0xe5, 0x461bcd)\n      dup2\n      mstore\n      0x04\n      add\n      tag_167\n      swap1\n      tag_482\n      jump\t// in\n    tag_480:\n        /* \"contracts/farm.sol\":37516:37532  updatePool(_pid) */\n      tag_483\n        /* \"contracts/farm.sol\":37527:37531  _pid */\n      dup5\n        /* \"contracts/farm.sol\":37516:37526  updatePool */\n      tag_99\n        /* \"contracts/farm.sol\":37516:37532  updatePool(_pid) */\n      jump\t// in\n    tag_483:\n        /* \"contracts/farm.sol\":37542:37562  _harvest(_for, _pid) */\n      tag_484\n        /* \"contracts/farm.sol\":37551:37555  _for */\n      dup6\n        /* \"contracts/farm.sol\":37557:37561  _pid */\n      dup6\n        /* \"contracts/farm.sol\":37542:37550  _harvest */\n      tag_193\n        /* \"contracts/farm.sol\":37542:37562  _harvest(_for, _pid) */\n      jump\t// in\n    tag_484:\n        /* \"contracts/farm.sol\":37586:37597  user.amount */\n      dup1\n      sload\n        /* \"contracts/farm.sol\":37586:37610  user.amount.sub(_amount) */\n      tag_485\n      swap1\n        /* \"contracts/farm.sol\":37602:37609  _amount */\n      dup5\n        /* \"contracts/farm.sol\":37586:37601  user.amount.sub */\n      tag_238\n        /* \"contracts/farm.sol\":37586:37610  user.amount.sub(_amount) */\n      jump\t// in\n    tag_485:\n        /* \"contracts/farm.sol\":37572:37610  user.amount = user.amount.sub(_amount) */\n      dup1\n      dup3\n      sstore\n        /* \"contracts/farm.sol\":37654:37673  pool.accSeaPerShare */\n      0x03\n      dup4\n      add\n      sload\n        /* \"contracts/farm.sol\":37638:37687  user.amount.mul(pool.accSeaPerShare).div(GLO_VAL) */\n      tag_486\n      swap2\n        /* \"contracts/farm.sol\":25348:25352  1e12 */\n      0xe8d4a51000\n      swap2\n        /* \"contracts/farm.sol\":37638:37674  user.amount.mul(pool.accSeaPerShare) */\n      tag_200\n      swap2\n        /* \"contracts/farm.sol\":37572:37610  user.amount = user.amount.sub(_amount) */\n      swap1\n        /* \"contracts/farm.sol\":37638:37653  user.amount.mul */\n      tag_201\n        /* \"contracts/farm.sol\":37638:37674  user.amount.mul(pool.accSeaPerShare) */\n      jump\t// in\n        /* \"contracts/farm.sol\":37638:37687  user.amount.mul(pool.accSeaPerShare).div(GLO_VAL) */\n    tag_486:\n        /* \"contracts/farm.sol\":37620:37635  user.rewardDebt */\n      0x01\n      dup3\n      add\n        /* \"contracts/farm.sol\":37620:37687  user.rewardDebt = user.amount.mul(pool.accSeaPerShare).div(GLO_VAL) */\n      sstore\n        /* \"contracts/farm.sol\":37730:37760  pool.accSeaPerShareTilBonusEnd */\n      0x04\n      dup3\n      add\n      sload\n        /* \"contracts/farm.sol\":37714:37725  user.amount */\n      dup2\n      sload\n        /* \"contracts/farm.sol\":37714:37796  user.amount.mul(pool.accSeaPerShareTilBonusEnd).div(... */\n      tag_488\n      swap2\n        /* \"contracts/farm.sol\":25348:25352  1e12 */\n      0xe8d4a51000\n      swap2\n        /* \"contracts/farm.sol\":37714:37761  user.amount.mul(pool.accSeaPerShareTilBonusEnd) */\n      tag_200\n      swap2\n        /* \"contracts/farm.sol\":37714:37729  user.amount.mul */\n      tag_201\n        /* \"contracts/farm.sol\":37714:37761  user.amount.mul(pool.accSeaPerShareTilBonusEnd) */\n      jump\t// in\n        /* \"contracts/farm.sol\":37714:37796  user.amount.mul(pool.accSeaPerShareTilBonusEnd).div(... */\n    tag_488:\n        /* \"contracts/farm.sol\":37697:37711  user.bonusDebt */\n      0x02\n      dup3\n      add\n        /* \"contracts/farm.sol\":37697:37796  user.bonusDebt = user.amount.mul(pool.accSeaPerShareTilBonusEnd).div(... */\n      sstore\n        /* \"contracts/farm.sol\":37810:37825  pool.stakeToken */\n      dup2\n      sload\n      sub(shl(0xa0, 0x01), 0x01)\n      and\n        /* \"contracts/farm.sol\":37810:37839  pool.stakeToken != address(0) */\n      iszero\n        /* \"contracts/farm.sol\":37806:37932  if (pool.stakeToken != address(0)) {... */\n      tag_491\n      jumpi\n        /* \"contracts/farm.sol\":37862:37877  pool.stakeToken */\n      dup2\n      sload\n        /* \"contracts/farm.sol\":37855:37921  IERC20(pool.stakeToken).safeTransfer(address(msg.sender), _amount) */\n      tag_491\n      swap1\n      sub(shl(0xa0, 0x01), 0x01)\n        /* \"contracts/farm.sol\":37862:37877  pool.stakeToken */\n      and\n        /* \"contracts/farm.sol\":37900:37910  msg.sender */\n      caller\n        /* \"contracts/farm.sol\":37913:37920  _amount */\n      dup6\n        /* \"contracts/farm.sol\":37855:37891  IERC20(pool.stakeToken).safeTransfer */\n      tag_299\n        /* \"contracts/farm.sol\":37855:37921  IERC20(pool.stakeToken).safeTransfer(address(msg.sender), _amount) */\n      jump\t// in\n    tag_491:\n        /* \"contracts/farm.sol\":37973:37984  user.amount */\n      dup1\n      sload\n        /* \"contracts/farm.sol\":37946:37985  Withdraw(msg.sender, _pid, user.amount) */\n      mload(0x40)\n        /* \"contracts/farm.sol\":37967:37971  _pid */\n      dup6\n      swap2\n        /* \"contracts/farm.sol\":37955:37965  msg.sender */\n      caller\n      swap2\n        /* \"contracts/farm.sol\":37946:37985  Withdraw(msg.sender, _pid, user.amount) */\n      0xf279e6a1f5e320cca91135676d9cb6e44ca8a08c0b88342bcdb1144f6511b568\n      swap2\n      tag_492\n      swap2\n      tag_50\n      jump\t// in\n    tag_492:\n      mload(0x40)\n      dup1\n      swap2\n      sub\n      swap1\n      log3\n        /* \"contracts/farm.sol\":37177:37992  function _withdraw(... */\n      pop\n      pop\n      pop\n      pop\n      pop\n      jump\t// out\n        /* \"contracts/farm.sol\":39523:39811  function safeSeaTransfer(address _to, uint256 _amount) internal {... */\n    tag_439:\n        /* \"contracts/farm.sol\":39621:39624  sea */\n      sload(0x02)\n        /* \"contracts/farm.sol\":39614:39650  IERC20(sea).balanceOf(address(this)) */\n      mload(0x40)\n      shl(0xe0, 0x70a08231)\n      dup2\n      mstore\n        /* \"contracts/farm.sol\":39597:39611  uint256 SeaBal */\n      0x00\n      swap2\n      sub(shl(0xa0, 0x01), 0x01)\n        /* \"contracts/farm.sol\":39621:39624  sea */\n      and\n      swap1\n        /* \"contracts/farm.sol\":39614:39635  IERC20(sea).balanceOf */\n      0x70a08231\n      swap1\n        /* \"contracts/farm.sol\":39614:39650  IERC20(sea).balanceOf(address(this)) */\n      tag_494\n      swap1\n        /* \"contracts/farm.sol\":39644:39648  this */\n      address\n      swap1\n        /* \"contracts/farm.sol\":39614:39650  IERC20(sea).balanceOf(address(this)) */\n      0x04\n      add\n      tag_96\n      jump\t// in\n    tag_494:\n      0x20\n      mload(0x40)\n      dup1\n      dup4\n      sub\n      dup2\n      dup7\n      dup1\n      extcodesize\n      iszero\n      dup1\n      iszero\n      tag_495\n      jumpi\n      0x00\n      dup1\n      revert\n    tag_495:\n      pop\n      gas\n      staticcall\n      iszero\n      dup1\n      iszero\n      tag_497\n      jumpi\n      returndatasize\n      0x00\n      dup1\n      returndatacopy\n      revert(0x00, returndatasize)\n    tag_497:\n      pop\n      pop\n      pop\n      pop\n      mload(0x40)\n      returndatasize\n      not(0x1f)\n      0x1f\n      dup3\n      add\n      and\n      dup3\n      add\n      dup1\n      0x40\n      mstore\n      pop\n      dup2\n      add\n      swap1\n      tag_498\n      swap2\n      swap1\n      tag_225\n      jump\t// in\n    tag_498:\n        /* \"contracts/farm.sol\":39597:39650  uint256 SeaBal = IERC20(sea).balanceOf(address(this)) */\n      swap1\n      pop\n        /* \"contracts/farm.sol\":39674:39680  SeaBal */\n      dup1\n        /* \"contracts/farm.sol\":39664:39671  _amount */\n      dup3\n        /* \"contracts/farm.sol\":39664:39680  _amount > SeaBal */\n      gt\n        /* \"contracts/farm.sol\":39660:39805  if (_amount > SeaBal) {... */\n      iszero\n      tag_499\n      jumpi\n        /* \"contracts/farm.sol\":39703:39706  sea */\n      sload(0x02)\n        /* \"contracts/farm.sol\":39696:39729  IERC20(sea).transfer(_to, SeaBal) */\n      mload(0x40)\n      shl(0xe0, 0xa9059cbb)\n      dup2\n      mstore\n      sub(shl(0xa0, 0x01), 0x01)\n        /* \"contracts/farm.sol\":39703:39706  sea */\n      swap1\n      swap2\n      and\n      swap1\n        /* \"contracts/farm.sol\":39696:39716  IERC20(sea).transfer */\n      0xa9059cbb\n      swap1\n        /* \"contracts/farm.sol\":39696:39729  IERC20(sea).transfer(_to, SeaBal) */\n      tag_500\n      swap1\n        /* \"contracts/farm.sol\":39717:39720  _to */\n      dup7\n      swap1\n        /* \"contracts/farm.sol\":39722:39728  SeaBal */\n      dup6\n      swap1\n        /* \"contracts/farm.sol\":39696:39729  IERC20(sea).transfer(_to, SeaBal) */\n      0x04\n      add\n      tag_270\n      jump\t// in\n    tag_500:\n      0x20\n      mload(0x40)\n      dup1\n      dup4\n      sub\n      dup2\n      0x00\n      dup8\n      dup1\n      extcodesize\n      iszero\n      dup1\n      iszero\n      tag_501\n      jumpi\n      0x00\n      dup1\n      revert\n    tag_501:\n      pop\n      gas\n      call\n      iszero\n      dup1\n      iszero\n      tag_503\n      jumpi\n      returndatasize\n      0x00\n      dup1\n      returndatacopy\n      revert(0x00, returndatasize)\n    tag_503:\n      pop\n      pop\n      pop\n      pop\n      mload(0x40)\n      returndatasize\n      not(0x1f)\n      0x1f\n      dup3\n      add\n      and\n      dup3\n      add\n      dup1\n      0x40\n      mstore\n      pop\n      dup2\n      add\n      swap1\n      tag_504\n      swap2\n      swap1\n      tag_275\n      jump\t// in\n    tag_504:\n      pop\n        /* \"contracts/farm.sol\":39660:39805  if (_amount > SeaBal) {... */\n      jump(tag_375)\n    tag_499:\n        /* \"contracts/farm.sol\":39767:39770  sea */\n      sload(0x02)\n        /* \"contracts/farm.sol\":39760:39794  IERC20(sea).transfer(_to, _amount) */\n      mload(0x40)\n      shl(0xe0, 0xa9059cbb)\n      dup2\n      mstore\n      sub(shl(0xa0, 0x01), 0x01)\n        /* \"contracts/farm.sol\":39767:39770  sea */\n      swap1\n      swap2\n      and\n      swap1\n        /* \"contracts/farm.sol\":39760:39780  IERC20(sea).transfer */\n      0xa9059cbb\n      swap1\n        /* \"contracts/farm.sol\":39760:39794  IERC20(sea).transfer(_to, _amount) */\n      tag_506\n      swap1\n        /* \"contracts/farm.sol\":39781:39784  _to */\n      dup7\n      swap1\n        /* \"contracts/farm.sol\":39786:39793  _amount */\n      dup7\n      swap1\n        /* \"contracts/farm.sol\":39760:39794  IERC20(sea).transfer(_to, _amount) */\n      0x04\n      add\n      tag_270\n      jump\t// in\n    tag_506:\n      0x20\n      mload(0x40)\n      dup1\n      dup4\n      sub\n      dup2\n      0x00\n      dup8\n      dup1\n      extcodesize\n      iszero\n      dup1\n      iszero\n      tag_507\n      jumpi\n      0x00\n      dup1\n      revert\n    tag_507:\n      pop\n      gas\n      call\n      iszero\n      dup1\n      iszero\n      tag_509\n      jumpi\n      returndatasize\n      0x00\n      dup1\n      returndatacopy\n      revert(0x00, returndatasize)\n    tag_509:\n      pop\n      pop\n      pop\n      pop\n      mload(0x40)\n      returndatasize\n      not(0x1f)\n      0x1f\n      dup3\n      add\n      and\n      dup3\n      add\n      dup1\n      0x40\n      mstore\n      pop\n      dup2\n      add\n      swap1\n      tag_206\n      swap2\n      swap1\n      tag_275\n      jump\t// in\n        /* \"contracts/farm.sol\":21863:22706  function _callOptionalReturn(IERC20 token, bytes memory data) private {... */\n    tag_444:\n        /* \"contracts/farm.sol\":22282:22305  bytes memory returndata */\n      0x00\n        /* \"contracts/farm.sol\":22308:22411  address(token).functionCall(... */\n      tag_512\n        /* \"contracts/farm.sol\":22349:22353  data */\n      dup3\n        /* \"contracts/farm.sol\":22308:22411  address(token).functionCall(... */\n      mload(0x40)\n      dup1\n      0x40\n      add\n      0x40\n      mstore\n      dup1\n      0x20\n      dup2\n      mstore\n      0x20\n      add\n      0x5361666545524332303a206c6f772d6c6576656c2063616c6c206661696c6564\n      dup2\n      mstore\n      pop\n        /* \"contracts/farm.sol\":22316:22321  token */\n      dup6\n      sub(shl(0xa0, 0x01), 0x01)\n        /* \"contracts/farm.sol\":22308:22335  address(token).functionCall */\n      and\n      tag_513\n      swap1\n        /* \"contracts/farm.sol\":22308:22411  address(token).functionCall(... */\n      swap3\n      swap2\n      swap1\n      0xffffffff\n      and\n      jump\t// in\n    tag_512:\n        /* \"contracts/farm.sol\":22425:22442  returndata.length */\n      dup1\n      mload\n        /* \"contracts/farm.sol\":22282:22411  bytes memory returndata = address(token).functionCall(... */\n      swap1\n      swap2\n      pop\n        /* \"contracts/farm.sol\":22425:22446  returndata.length > 0 */\n      iszero\n        /* \"contracts/farm.sol\":22421:22700  if (returndata.length > 0) {... */\n      tag_375\n      jumpi\n        /* \"contracts/farm.sol\":22594:22604  returndata */\n      dup1\n        /* \"contracts/farm.sol\":22583:22613  abi.decode(returndata, (bool)) */\n      dup1\n      0x20\n      add\n      swap1\n      mload\n      dup2\n      add\n      swap1\n      tag_515\n      swap2\n      swap1\n      tag_275\n      jump\t// in\n    tag_515:\n        /* \"contracts/farm.sol\":22558:22689  require(... */\n      tag_375\n      jumpi\n      mload(0x40)\n      shl(0xe5, 0x461bcd)\n      dup2\n      mstore\n      0x04\n      add\n      tag_167\n      swap1\n      tag_518\n      jump\t// in\n        /* \"contracts/farm.sol\":13765:13988  function functionCall(... */\n    tag_513:\n        /* \"contracts/farm.sol\":13898:13910  bytes memory */\n      0x60\n        /* \"contracts/farm.sol\":13929:13981  functionCallWithValue(target, data, 0, errorMessage) */\n      tag_520\n        /* \"contracts/farm.sol\":13951:13957  target */\n      dup5\n        /* \"contracts/farm.sol\":13959:13963  data */\n      dup5\n        /* \"contracts/farm.sol\":13965:13966  0 */\n      0x00\n        /* \"contracts/farm.sol\":13968:13980  errorMessage */\n      dup6\n        /* \"contracts/farm.sol\":13929:13950  functionCallWithValue */\n      tag_521\n        /* \"contracts/farm.sol\":13929:13981  functionCallWithValue(target, data, 0, errorMessage) */\n      jump\t// in\n    tag_520:\n        /* \"contracts/farm.sol\":13922:13981  return functionCallWithValue(target, data, 0, errorMessage) */\n      swap5\n        /* \"contracts/farm.sol\":13765:13988  function functionCall(... */\n      swap4\n      pop\n      pop\n      pop\n      pop\n      jump\t// out\n        /* \"contracts/farm.sol\":14942:15557  function functionCallWithValue(... */\n    tag_521:\n        /* \"contracts/farm.sol\":15107:15119  bytes memory */\n      0x60\n        /* \"contracts/farm.sol\":15177:15182  value */\n      dup3\n        /* \"contracts/farm.sol\":15152:15173  address(this).balance */\n      selfbalance\n        /* \"contracts/farm.sol\":15152:15182  address(this).balance >= value */\n      lt\n      iszero\n        /* \"contracts/farm.sol\":15131:15246  require(... */\n      tag_523\n      jumpi\n      mload(0x40)\n      shl(0xe5, 0x461bcd)\n      dup2\n      mstore\n      0x04\n      add\n      tag_167\n      swap1\n      tag_525\n      jump\t// in\n    tag_523:\n        /* \"contracts/farm.sol\":15264:15282  isContract(target) */\n      tag_526\n        /* \"contracts/farm.sol\":15275:15281  target */\n      dup6\n        /* \"contracts/farm.sol\":15264:15274  isContract */\n      tag_527\n        /* \"contracts/farm.sol\":15264:15282  isContract(target) */\n      jump\t// in\n    tag_526:\n        /* \"contracts/farm.sol\":15256:15316  require(isContract(target), \"Address: call to non-contract\") */\n      tag_528\n      jumpi\n      mload(0x40)\n      shl(0xe5, 0x461bcd)\n      dup2\n      mstore\n      0x04\n      add\n      tag_167\n      swap1\n      tag_530\n      jump\t// in\n    tag_528:\n        /* \"contracts/farm.sol\":15387:15399  bool success */\n      0x00\n        /* \"contracts/farm.sol\":15401:15424  bytes memory returndata */\n      dup1\n        /* \"contracts/farm.sol\":15428:15434  target */\n      dup7\n      sub(shl(0xa0, 0x01), 0x01)\n        /* \"contracts/farm.sol\":15428:15439  target.call */\n      and\n        /* \"contracts/farm.sol\":15447:15452  value */\n      dup6\n        /* \"contracts/farm.sol\":15467:15471  data */\n      dup8\n        /* \"contracts/farm.sol\":15428:15481  target.call{value: value}(... */\n      mload(0x40)\n      tag_531\n      swap2\n      swap1\n      tag_532\n      jump\t// in\n    tag_531:\n      0x00\n      mload(0x40)\n      dup1\n      dup4\n      sub\n      dup2\n      dup6\n      dup8\n      gas\n      call\n      swap3\n      pop\n      pop\n      pop\n      returndatasize\n      dup1\n      0x00\n      dup2\n      eq\n      tag_535\n      jumpi\n      mload(0x40)\n      swap2\n      pop\n      and(add(returndatasize, 0x3f), not(0x1f))\n      dup3\n      add\n      0x40\n      mstore\n      returndatasize\n      dup3\n      mstore\n      returndatasize\n      0x00\n      0x20\n      dup5\n      add\n      returndatacopy\n      jump(tag_534)\n    tag_535:\n      0x60\n      swap2\n      pop\n    tag_534:\n      pop\n        /* \"contracts/farm.sol\":15386:15481  (bool success, bytes memory returndata) = target.call{value: value}(... */\n      swap2\n      pop\n      swap2\n      pop\n        /* \"contracts/farm.sol\":15498:15550  _verifyCallResult(success, returndata, errorMessage) */\n      tag_235\n        /* \"contracts/farm.sol\":15516:15523  success */\n      dup3\n        /* \"contracts/farm.sol\":15525:15535  returndata */\n      dup3\n        /* \"contracts/farm.sol\":15537:15549  errorMessage */\n      dup7\n        /* \"contracts/farm.sol\":15498:15515  _verifyCallResult */\n      tag_537\n        /* \"contracts/farm.sol\":15498:15550  _verifyCallResult(success, returndata, errorMessage) */\n      jump\t// in\n        /* \"contracts/farm.sol\":10802:11235  function isContract(address account) internal view returns (bool) {... */\n    tag_527:\n        /* \"contracts/farm.sol\":11174:11194  extcodesize(account) */\n      extcodesize\n        /* \"contracts/farm.sol\":11220:11228  size > 0 */\n      iszero\n      iszero\n      swap1\n        /* \"contracts/farm.sol\":10802:11235  function isContract(address account) internal view returns (bool) {... */\n      jump\t// out\n        /* \"contracts/farm.sol\":17773:18529  function _verifyCallResult(... */\n    tag_537:\n        /* \"contracts/farm.sol\":17919:17931  bytes memory */\n      0x60\n        /* \"contracts/farm.sol\":17947:17954  success */\n      dup4\n        /* \"contracts/farm.sol\":17943:18523  if (success) {... */\n      iszero\n      tag_540\n      jumpi\n      pop\n        /* \"contracts/farm.sol\":17977:17987  returndata */\n      dup2\n        /* \"contracts/farm.sol\":17970:17987  return returndata */\n      jump(tag_345)\n        /* \"contracts/farm.sol\":17943:18523  if (success) {... */\n    tag_540:\n        /* \"contracts/farm.sol\":18088:18105  returndata.length */\n      dup3\n      mload\n        /* \"contracts/farm.sol\":18088:18109  returndata.length > 0 */\n      iszero\n        /* \"contracts/farm.sol\":18084:18513  if (returndata.length > 0) {... */\n      tag_542\n      jumpi\n        /* \"contracts/farm.sol\":18346:18356  returndata */\n      dup3\n        /* \"contracts/farm.sol\":18340:18357  mload(returndata) */\n      mload\n        /* \"contracts/farm.sol\":18406:18421  returndata_size */\n      dup1\n        /* \"contracts/farm.sol\":18393:18403  returndata */\n      dup5\n        /* \"contracts/farm.sol\":18389:18391  32 */\n      0x20\n        /* \"contracts/farm.sol\":18385:18404  add(32, returndata) */\n      add\n        /* \"contracts/farm.sol\":18378:18422  revert(add(32, returndata), returndata_size) */\n      revert\n        /* \"contracts/farm.sol\":18295:18440  {... */\n    tag_542:\n        /* \"contracts/farm.sol\":18485:18497  errorMessage */\n      dup2\n        /* \"contracts/farm.sol\":18478:18498  revert(errorMessage) */\n      mload(0x40)\n      shl(0xe5, 0x461bcd)\n      dup2\n      mstore\n      0x04\n      add\n      tag_167\n      swap2\n      swap1\n      tag_545\n      jump\t// in\n        /* \"#utility.yul\":14:189   */\n    tag_547:\n        /* \"#utility.yul\":84:104   */\n      dup1\n      calldataload\n      sub(shl(0xa0, 0x01), 0x01)\n        /* \"#utility.yul\":133:164   */\n      dup2\n      and\n        /* \"#utility.yul\":123:165   */\n      dup2\n      eq\n        /* \"#utility.yul\":113:115   */\n      tag_356\n      jumpi\n        /* \"#utility.yul\":179:180   */\n      0x00\n        /* \"#utility.yul\":176:177   */\n      dup1\n        /* \"#utility.yul\":169:181   */\n      revert\n        /* \"#utility.yul\":194:392   */\n    tag_87:\n      0x00\n        /* \"#utility.yul\":306:308   */\n      0x20\n        /* \"#utility.yul\":294:303   */\n      dup3\n        /* \"#utility.yul\":285:292   */\n      dup5\n        /* \"#utility.yul\":281:304   */\n      sub\n        /* \"#utility.yul\":277:309   */\n      slt\n        /* \"#utility.yul\":274:276   */\n      iszero\n      tag_551\n      jumpi\n        /* \"#utility.yul\":327:333   */\n      dup1\n        /* \"#utility.yul\":319:325   */\n      dup2\n        /* \"#utility.yul\":312:334   */\n      revert\n        /* \"#utility.yul\":274:276   */\n    tag_551:\n        /* \"#utility.yul\":355:386   */\n      tag_345\n        /* \"#utility.yul\":376:385   */\n      dup3\n        /* \"#utility.yul\":355:386   */\n      tag_547\n      jump\t// in\n        /* \"#utility.yul\":397:726   */\n    tag_69:\n      0x00\n      dup1\n        /* \"#utility.yul\":523:525   */\n      0x40\n        /* \"#utility.yul\":511:520   */\n      dup4\n        /* \"#utility.yul\":502:509   */\n      dup6\n        /* \"#utility.yul\":498:521   */\n      sub\n        /* \"#utility.yul\":494:526   */\n      slt\n        /* \"#utility.yul\":491:493   */\n      iszero\n      tag_554\n      jumpi\n        /* \"#utility.yul\":544:550   */\n      dup1\n        /* \"#utility.yul\":536:542   */\n      dup2\n        /* \"#utility.yul\":529:551   */\n      revert\n        /* \"#utility.yul\":491:493   */\n    tag_554:\n        /* \"#utility.yul\":572:603   */\n      tag_555\n        /* \"#utility.yul\":593:602   */\n      dup4\n        /* \"#utility.yul\":572:603   */\n      tag_547\n      jump\t// in\n    tag_555:\n        /* \"#utility.yul\":562:603   */\n      swap2\n      pop\n        /* \"#utility.yul\":653:655   */\n      0x20\n        /* \"#utility.yul\":642:651   */\n      dup4\n        /* \"#utility.yul\":638:656   */\n      add\n        /* \"#utility.yul\":625:657   */\n      calldataload\n        /* \"#utility.yul\":666:696   */\n      tag_556\n        /* \"#utility.yul\":690:695   */\n      dup2\n        /* \"#utility.yul\":666:696   */\n      tag_557\n      jump\t// in\n    tag_556:\n        /* \"#utility.yul\":715:720   */\n      dup1\n        /* \"#utility.yul\":705:720   */\n      swap2\n      pop\n      pop\n        /* \"#utility.yul\":481:726   */\n      swap3\n      pop\n      swap3\n      swap1\n      pop\n      jump\t// out\n        /* \"#utility.yul\":731:997   */\n    tag_120:\n      0x00\n      dup1\n        /* \"#utility.yul\":860:862   */\n      0x40\n        /* \"#utility.yul\":848:857   */\n      dup4\n        /* \"#utility.yul\":839:846   */\n      dup6\n        /* \"#utility.yul\":835:858   */\n      sub\n        /* \"#utility.yul\":831:863   */\n      slt\n        /* \"#utility.yul\":828:830   */\n      iszero\n      tag_559\n      jumpi\n        /* \"#utility.yul\":881:887   */\n      dup2\n        /* \"#utility.yul\":873:879   */\n      dup3\n        /* \"#utility.yul\":866:888   */\n      revert\n        /* \"#utility.yul\":828:830   */\n    tag_559:\n        /* \"#utility.yul\":909:940   */\n      tag_560\n        /* \"#utility.yul\":930:939   */\n      dup4\n        /* \"#utility.yul\":909:940   */\n      tag_547\n      jump\t// in\n    tag_560:\n        /* \"#utility.yul\":899:940   */\n      swap5\n        /* \"#utility.yul\":987:989   */\n      0x20\n        /* \"#utility.yul\":972:990   */\n      swap4\n      swap1\n      swap4\n      add\n        /* \"#utility.yul\":959:991   */\n      calldataload\n      swap4\n      pop\n      pop\n      pop\n        /* \"#utility.yul\":818:997   */\n      jump\t// out\n        /* \"#utility.yul\":1002:1336   */\n    tag_53:\n      0x00\n      dup1\n      0x00\n        /* \"#utility.yul\":1148:1150   */\n      0x60\n        /* \"#utility.yul\":1136:1145   */\n      dup5\n        /* \"#utility.yul\":1127:1134   */\n      dup7\n        /* \"#utility.yul\":1123:1146   */\n      sub\n        /* \"#utility.yul\":1119:1151   */\n      slt\n        /* \"#utility.yul\":1116:1118   */\n      iszero\n      tag_562\n      jumpi\n        /* \"#utility.yul\":1169:1175   */\n      dup1\n        /* \"#utility.yul\":1161:1167   */\n      dup2\n        /* \"#utility.yul\":1154:1176   */\n      revert\n        /* \"#utility.yul\":1116:1118   */\n    tag_562:\n        /* \"#utility.yul\":1197:1228   */\n      tag_563\n        /* \"#utility.yul\":1218:1227   */\n      dup5\n        /* \"#utility.yul\":1197:1228   */\n      tag_547\n      jump\t// in\n    tag_563:\n        /* \"#utility.yul\":1187:1228   */\n      swap6\n        /* \"#utility.yul\":1275:1277   */\n      0x20\n        /* \"#utility.yul\":1260:1278   */\n      dup6\n      add\n        /* \"#utility.yul\":1247:1279   */\n      calldataload\n      swap6\n      pop\n        /* \"#utility.yul\":1326:1328   */\n      0x40\n        /* \"#utility.yul\":1311:1329   */\n      swap1\n      swap5\n      add\n        /* \"#utility.yul\":1298:1330   */\n      calldataload\n      swap4\n        /* \"#utility.yul\":1106:1336   */\n      swap3\n      pop\n      pop\n      pop\n      jump\t// out\n        /* \"#utility.yul\":1341:1598   */\n    tag_275:\n      0x00\n        /* \"#utility.yul\":1461:1463   */\n      0x20\n        /* \"#utility.yul\":1449:1458   */\n      dup3\n        /* \"#utility.yul\":1440:1447   */\n      dup5\n        /* \"#utility.yul\":1436:1459   */\n      sub\n        /* \"#utility.yul\":1432:1464   */\n      slt\n        /* \"#utility.yul\":1429:1431   */\n      iszero\n      tag_565\n      jumpi\n        /* \"#utility.yul\":1482:1488   */\n      dup1\n        /* \"#utility.yul\":1474:1480   */\n      dup2\n        /* \"#utility.yul\":1467:1489   */\n      revert\n        /* \"#utility.yul\":1429:1431   */\n    tag_565:\n        /* \"#utility.yul\":1519:1528   */\n      dup2\n        /* \"#utility.yul\":1513:1529   */\n      mload\n        /* \"#utility.yul\":1538:1568   */\n      tag_345\n        /* \"#utility.yul\":1562:1567   */\n      dup2\n        /* \"#utility.yul\":1538:1568   */\n      tag_557\n      jump\t// in\n        /* \"#utility.yul\":1603:1793   */\n    tag_57:\n      0x00\n        /* \"#utility.yul\":1715:1717   */\n      0x20\n        /* \"#utility.yul\":1703:1712   */\n      dup3\n        /* \"#utility.yul\":1694:1701   */\n      dup5\n        /* \"#utility.yul\":1690:1713   */\n      sub\n        /* \"#utility.yul\":1686:1718   */\n      slt\n        /* \"#utility.yul\":1683:1685   */\n      iszero\n      tag_568\n      jumpi\n        /* \"#utility.yul\":1736:1742   */\n      dup1\n        /* \"#utility.yul\":1728:1734   */\n      dup2\n        /* \"#utility.yul\":1721:1743   */\n      revert\n        /* \"#utility.yul\":1683:1685   */\n    tag_568:\n      pop\n        /* \"#utility.yul\":1764:1787   */\n      calldataload\n      swap2\n        /* \"#utility.yul\":1673:1793   */\n      swap1\n      pop\n      jump\t// out\n        /* \"#utility.yul\":1798:1992   */\n    tag_225:\n      0x00\n        /* \"#utility.yul\":1921:1923   */\n      0x20\n        /* \"#utility.yul\":1909:1918   */\n      dup3\n        /* \"#utility.yul\":1900:1907   */\n      dup5\n        /* \"#utility.yul\":1896:1919   */\n      sub\n        /* \"#utility.yul\":1892:1924   */\n      slt\n        /* \"#utility.yul\":1889:1891   */\n      iszero\n      tag_570\n      jumpi\n        /* \"#utility.yul\":1942:1948   */\n      dup1\n        /* \"#utility.yul\":1934:1940   */\n      dup2\n        /* \"#utility.yul\":1927:1949   */\n      revert\n        /* \"#utility.yul\":1889:1891   */\n    tag_570:\n      pop\n        /* \"#utility.yul\":1970:1986   */\n      mload\n      swap2\n        /* \"#utility.yul\":1879:1992   */\n      swap1\n      pop\n      jump\t// out\n        /* \"#utility.yul\":1997:2263   */\n    tag_75:\n      0x00\n      dup1\n        /* \"#utility.yul\":2126:2128   */\n      0x40\n        /* \"#utility.yul\":2114:2123   */\n      dup4\n        /* \"#utility.yul\":2105:2112   */\n      dup6\n        /* \"#utility.yul\":2101:2124   */\n      sub\n        /* \"#utility.yul\":2097:2129   */\n      slt\n        /* \"#utility.yul\":2094:2096   */\n      iszero\n      tag_572\n      jumpi\n        /* \"#utility.yul\":2147:2153   */\n      dup2\n        /* \"#utility.yul\":2139:2145   */\n      dup3\n        /* \"#utility.yul\":2132:2154   */\n      revert\n        /* \"#utility.yul\":2094:2096   */\n    tag_572:\n        /* \"#utility.yul\":2188:2197   */\n      dup3\n        /* \"#utility.yul\":2175:2198   */\n      calldataload\n        /* \"#utility.yul\":2165:2198   */\n      swap2\n      pop\n        /* \"#utility.yul\":2217:2257   */\n      tag_573\n        /* \"#utility.yul\":2253:2255   */\n      0x20\n        /* \"#utility.yul\":2242:2251   */\n      dup5\n        /* \"#utility.yul\":2238:2256   */\n      add\n        /* \"#utility.yul\":2217:2257   */\n      tag_547\n      jump\t// in\n    tag_573:\n        /* \"#utility.yul\":2207:2257   */\n      swap1\n      pop\n        /* \"#utility.yul\":2084:2263   */\n      swap3\n      pop\n      swap3\n      swap1\n      pop\n      jump\t// out\n        /* \"#utility.yul\":2268:2665   */\n    tag_109:\n      0x00\n      dup1\n      0x00\n        /* \"#utility.yul\":2411:2413   */\n      0x60\n        /* \"#utility.yul\":2399:2408   */\n      dup5\n        /* \"#utility.yul\":2390:2397   */\n      dup7\n        /* \"#utility.yul\":2386:2409   */\n      sub\n        /* \"#utility.yul\":2382:2414   */\n      slt\n        /* \"#utility.yul\":2379:2381   */\n      iszero\n      tag_575\n      jumpi\n        /* \"#utility.yul\":2432:2438   */\n      dup3\n        /* \"#utility.yul\":2424:2430   */\n      dup4\n        /* \"#utility.yul\":2417:2439   */\n      revert\n        /* \"#utility.yul\":2379:2381   */\n    tag_575:\n        /* \"#utility.yul\":2473:2482   */\n      dup4\n        /* \"#utility.yul\":2460:2483   */\n      calldataload\n        /* \"#utility.yul\":2450:2483   */\n      swap3\n      pop\n        /* \"#utility.yul\":2502:2542   */\n      tag_576\n        /* \"#utility.yul\":2538:2540   */\n      0x20\n        /* \"#utility.yul\":2527:2536   */\n      dup6\n        /* \"#utility.yul\":2523:2541   */\n      add\n        /* \"#utility.yul\":2502:2542   */\n      tag_547\n      jump\t// in\n    tag_576:\n        /* \"#utility.yul\":2492:2542   */\n      swap2\n      pop\n        /* \"#utility.yul\":2592:2594   */\n      0x40\n        /* \"#utility.yul\":2581:2590   */\n      dup5\n        /* \"#utility.yul\":2577:2595   */\n      add\n        /* \"#utility.yul\":2564:2596   */\n      calldataload\n        /* \"#utility.yul\":2605:2635   */\n      tag_577\n        /* \"#utility.yul\":2629:2634   */\n      dup2\n        /* \"#utility.yul\":2605:2635   */\n      tag_557\n      jump\t// in\n    tag_577:\n        /* \"#utility.yul\":2654:2659   */\n      dup1\n        /* \"#utility.yul\":2644:2659   */\n      swap2\n      pop\n      pop\n        /* \"#utility.yul\":2369:2665   */\n      swap3\n      pop\n      swap3\n      pop\n      swap3\n      jump\t// out\n        /* \"#utility.yul\":2670:2928   */\n    tag_45:\n      0x00\n      dup1\n        /* \"#utility.yul\":2799:2801   */\n      0x40\n        /* \"#utility.yul\":2787:2796   */\n      dup4\n        /* \"#utility.yul\":2778:2785   */\n      dup6\n        /* \"#utility.yul\":2774:2797   */\n      sub\n        /* \"#utility.yul\":2770:2802   */\n      slt\n        /* \"#utility.yul\":2767:2769   */\n      iszero\n      tag_579\n      jumpi\n        /* \"#utility.yul\":2820:2826   */\n      dup2\n        /* \"#utility.yul\":2812:2818   */\n      dup3\n        /* \"#utility.yul\":2805:2827   */\n      revert\n        /* \"#utility.yul\":2767:2769   */\n    tag_579:\n      pop\n      pop\n        /* \"#utility.yul\":2848:2871   */\n      dup1\n      calldataload\n      swap3\n        /* \"#utility.yul\":2918:2920   */\n      0x20\n        /* \"#utility.yul\":2903:2921   */\n      swap1\n      swap2\n      add\n        /* \"#utility.yul\":2890:2922   */\n      calldataload\n      swap2\n      pop\n        /* \"#utility.yul\":2757:2928   */\n      jump\t// out\n        /* \"#utility.yul\":2933:3322   */\n    tag_83:\n      0x00\n      dup1\n      0x00\n        /* \"#utility.yul\":3076:3078   */\n      0x60\n        /* \"#utility.yul\":3064:3073   */\n      dup5\n        /* \"#utility.yul\":3055:3062   */\n      dup7\n        /* \"#utility.yul\":3051:3074   */\n      sub\n        /* \"#utility.yul\":3047:3079   */\n      slt\n        /* \"#utility.yul\":3044:3046   */\n      iszero\n      tag_581\n      jumpi\n        /* \"#utility.yul\":3097:3103   */\n      dup3\n        /* \"#utility.yul\":3089:3095   */\n      dup4\n        /* \"#utility.yul\":3082:3104   */\n      revert\n        /* \"#utility.yul\":3044:3046   */\n    tag_581:\n        /* \"#utility.yul\":3138:3147   */\n      dup4\n        /* \"#utility.yul\":3125:3148   */\n      calldataload\n        /* \"#utility.yul\":3115:3148   */\n      swap3\n      pop\n        /* \"#utility.yul\":3195:3197   */\n      0x20\n        /* \"#utility.yul\":3184:3193   */\n      dup5\n        /* \"#utility.yul\":3180:3198   */\n      add\n        /* \"#utility.yul\":3167:3199   */\n      calldataload\n        /* \"#utility.yul\":3157:3199   */\n      swap2\n      pop\n        /* \"#utility.yul\":3249:3251   */\n      0x40\n        /* \"#utility.yul\":3238:3247   */\n      dup5\n        /* \"#utility.yul\":3234:3252   */\n      add\n        /* \"#utility.yul\":3221:3253   */\n      calldataload\n        /* \"#utility.yul\":3262:3292   */\n      tag_577\n        /* \"#utility.yul\":3286:3291   */\n      dup2\n        /* \"#utility.yul\":3262:3292   */\n      tag_557\n      jump\t// in\n        /* \"#utility.yul\":3327:3601   */\n    tag_532:\n      0x00\n        /* \"#utility.yul\":3494:3500   */\n      dup3\n        /* \"#utility.yul\":3488:3501   */\n      mload\n        /* \"#utility.yul\":3510:3563   */\n      tag_584\n        /* \"#utility.yul\":3556:3562   */\n      dup2\n        /* \"#utility.yul\":3551:3554   */\n      dup5\n        /* \"#utility.yul\":3544:3548   */\n      0x20\n        /* \"#utility.yul\":3536:3542   */\n      dup8\n        /* \"#utility.yul\":3532:3549   */\n      add\n        /* \"#utility.yul\":3510:3563   */\n      tag_585\n      jump\t// in\n    tag_584:\n        /* \"#utility.yul\":3579:3595   */\n      swap2\n      swap1\n      swap2\n      add\n      swap3\n        /* \"#utility.yul\":3464:3601   */\n      swap2\n      pop\n      pop\n      jump\t// out\n        /* \"#utility.yul\":3606:3809   */\n    tag_96:\n      sub(shl(0xa0, 0x01), 0x01)\n        /* \"#utility.yul\":3770:3802   */\n      swap2\n      swap1\n      swap2\n      and\n        /* \"#utility.yul\":3752:3803   */\n      dup2\n      mstore\n        /* \"#utility.yul\":3740:3742   */\n      0x20\n        /* \"#utility.yul\":3725:3743   */\n      add\n      swap1\n        /* \"#utility.yul\":3707:3809   */\n      jump\t// out\n        /* \"#utility.yul\":3814:4189   */\n    tag_443:\n      sub(shl(0xa0, 0x01), 0x01)\n        /* \"#utility.yul\":4072:4087   */\n      swap4\n      dup5\n      and\n        /* \"#utility.yul\":4054:4088   */\n      dup2\n      mstore\n        /* \"#utility.yul\":4124:4139   */\n      swap2\n      swap1\n      swap3\n      and\n        /* \"#utility.yul\":4119:4121   */\n      0x20\n        /* \"#utility.yul\":4104:4122   */\n      dup3\n      add\n        /* \"#utility.yul\":4097:4140   */\n      mstore\n        /* \"#utility.yul\":4171:4173   */\n      0x40\n        /* \"#utility.yul\":4156:4174   */\n      dup2\n      add\n        /* \"#utility.yul\":4149:4183   */\n      swap2\n      swap1\n      swap2\n      mstore\n        /* \"#utility.yul\":4004:4006   */\n      0x60\n        /* \"#utility.yul\":3989:4007   */\n      add\n      swap1\n        /* \"#utility.yul\":3971:4189   */\n      jump\t// out\n        /* \"#utility.yul\":4194:4468   */\n    tag_270:\n      sub(shl(0xa0, 0x01), 0x01)\n        /* \"#utility.yul\":4386:4418   */\n      swap3\n      swap1\n      swap3\n      and\n        /* \"#utility.yul\":4368:4419   */\n      dup3\n      mstore\n        /* \"#utility.yul\":4450:4452   */\n      0x20\n        /* \"#utility.yul\":4435:4453   */\n      dup3\n      add\n        /* \"#utility.yul\":4428:4462   */\n      mstore\n        /* \"#utility.yul\":4356:4358   */\n      0x40\n        /* \"#utility.yul\":4341:4359   */\n      add\n      swap1\n        /* \"#utility.yul\":4323:4468   */\n      jump\t// out\n        /* \"#utility.yul\":4473:4962   */\n    tag_60:\n      sub(shl(0xa0, 0x01), 0x01)\n        /* \"#utility.yul\":4750:4782   */\n      swap6\n      swap1\n      swap6\n      and\n        /* \"#utility.yul\":4732:4783   */\n      dup6\n      mstore\n        /* \"#utility.yul\":4814:4816   */\n      0x20\n        /* \"#utility.yul\":4799:4817   */\n      dup6\n      add\n        /* \"#utility.yul\":4792:4826   */\n      swap4\n      swap1\n      swap4\n      mstore\n        /* \"#utility.yul\":4857:4859   */\n      0x40\n        /* \"#utility.yul\":4842:4860   */\n      dup5\n      add\n        /* \"#utility.yul\":4835:4869   */\n      swap2\n      swap1\n      swap2\n      mstore\n        /* \"#utility.yul\":4900:4902   */\n      0x60\n        /* \"#utility.yul\":4885:4903   */\n      dup4\n      add\n        /* \"#utility.yul\":4878:4912   */\n      mstore\n        /* \"#utility.yul\":4943:4946   */\n      0x80\n        /* \"#utility.yul\":4928:4947   */\n      dup3\n      add\n        /* \"#utility.yul\":4921:4956   */\n      mstore\n        /* \"#utility.yul\":4719:4722   */\n      0xa0\n        /* \"#utility.yul\":4704:4723   */\n      add\n      swap1\n        /* \"#utility.yul\":4686:4962   */\n      jump\t// out\n        /* \"#utility.yul\":4967:5154   */\n    tag_72:\n        /* \"#utility.yul\":5132:5146   */\n      swap1\n      iszero\n        /* \"#utility.yul\":5125:5147   */\n      iszero\n        /* \"#utility.yul\":5107:5148   */\n      dup2\n      mstore\n        /* \"#utility.yul\":5095:5097   */\n      0x20\n        /* \"#utility.yul\":5080:5098   */\n      add\n      swap1\n        /* \"#utility.yul\":5062:5154   */\n      jump\t// out\n        /* \"#utility.yul\":5159:5542   */\n    tag_545:\n      0x00\n        /* \"#utility.yul\":5308:5310   */\n      0x20\n        /* \"#utility.yul\":5297:5306   */\n      dup3\n        /* \"#utility.yul\":5290:5311   */\n      mstore\n        /* \"#utility.yul\":5340:5346   */\n      dup3\n        /* \"#utility.yul\":5334:5347   */\n      mload\n        /* \"#utility.yul\":5383:5389   */\n      dup1\n        /* \"#utility.yul\":5378:5380   */\n      0x20\n        /* \"#utility.yul\":5367:5376   */\n      dup5\n        /* \"#utility.yul\":5363:5381   */\n      add\n        /* \"#utility.yul\":5356:5390   */\n      mstore\n        /* \"#utility.yul\":5399:5465   */\n      tag_592\n        /* \"#utility.yul\":5458:5464   */\n      dup2\n        /* \"#utility.yul\":5453:5455   */\n      0x40\n        /* \"#utility.yul\":5442:5451   */\n      dup6\n        /* \"#utility.yul\":5438:5456   */\n      add\n        /* \"#utility.yul\":5433:5435   */\n      0x20\n        /* \"#utility.yul\":5425:5431   */\n      dup8\n        /* \"#utility.yul\":5421:5436   */\n      add\n        /* \"#utility.yul\":5399:5465   */\n      tag_585\n      jump\t// in\n    tag_592:\n        /* \"#utility.yul\":5526:5528   */\n      0x1f\n        /* \"#utility.yul\":5505:5520   */\n      add\n      not(0x1f)\n        /* \"#utility.yul\":5501:5530   */\n      and\n        /* \"#utility.yul\":5486:5531   */\n      swap2\n      swap1\n      swap2\n      add\n        /* \"#utility.yul\":5533:5535   */\n      0x40\n        /* \"#utility.yul\":5482:5536   */\n      add\n      swap3\n        /* \"#utility.yul\":5280:5542   */\n      swap2\n      pop\n      pop\n      jump\t// out\n        /* \"#utility.yul\":5547:5949   */\n    tag_418:\n        /* \"#utility.yul\":5749:5751   */\n      0x20\n        /* \"#utility.yul\":5731:5752   */\n      dup1\n      dup3\n      mstore\n        /* \"#utility.yul\":5788:5790   */\n      0x26\n        /* \"#utility.yul\":5768:5786   */\n      swap1\n      dup3\n      add\n        /* \"#utility.yul\":5761:5791   */\n      mstore\n        /* \"#utility.yul\":5827:5861   */\n      0x4f776e61626c653a206e6577206f776e657220697320746865207a65726f2061\n        /* \"#utility.yul\":5822:5824   */\n      0x40\n        /* \"#utility.yul\":5807:5825   */\n      dup3\n      add\n        /* \"#utility.yul\":5800:5862   */\n      mstore\n      shl(0xd0, 0x646472657373)\n        /* \"#utility.yul\":5893:5895   */\n      0x60\n        /* \"#utility.yul\":5878:5896   */\n      dup3\n      add\n        /* \"#utility.yul\":5871:5907   */\n      mstore\n        /* \"#utility.yul\":5939:5942   */\n      0x80\n        /* \"#utility.yul\":5924:5943   */\n      add\n      swap1\n        /* \"#utility.yul\":5721:5949   */\n      jump\t// out\n        /* \"#utility.yul\":5954:6305   */\n    tag_172:\n        /* \"#utility.yul\":6156:6158   */\n      0x20\n        /* \"#utility.yul\":6138:6159   */\n      dup1\n      dup3\n      mstore\n        /* \"#utility.yul\":6195:6197   */\n      0x1b\n        /* \"#utility.yul\":6175:6193   */\n      swap1\n      dup3\n      add\n        /* \"#utility.yul\":6168:6198   */\n      mstore\n        /* \"#utility.yul\":6234:6263   */\n      0x736574426f6e75733a2062616420626f6e7573456e64426c6f636b0000000000\n        /* \"#utility.yul\":6229:6231   */\n      0x40\n        /* \"#utility.yul\":6214:6232   */\n      dup3\n      add\n        /* \"#utility.yul\":6207:6264   */\n      mstore\n        /* \"#utility.yul\":6296:6298   */\n      0x60\n        /* \"#utility.yul\":6281:6299   */\n      add\n      swap1\n        /* \"#utility.yul\":6128:6305   */\n      jump\t// out\n        /* \"#utility.yul\":6310:6661   */\n    tag_449:\n        /* \"#utility.yul\":6512:6514   */\n      0x20\n        /* \"#utility.yul\":6494:6515   */\n      dup1\n      dup3\n      mstore\n        /* \"#utility.yul\":6551:6553   */\n      0x1b\n        /* \"#utility.yul\":6531:6549   */\n      swap1\n      dup3\n      add\n        /* \"#utility.yul\":6524:6554   */\n      mstore\n        /* \"#utility.yul\":6590:6619   */\n      0x536166654d6174683a206164646974696f6e206f766572666c6f770000000000\n        /* \"#utility.yul\":6585:6587   */\n      0x40\n        /* \"#utility.yul\":6570:6588   */\n      dup3\n      add\n        /* \"#utility.yul\":6563:6620   */\n      mstore\n        /* \"#utility.yul\":6652:6654   */\n      0x60\n        /* \"#utility.yul\":6637:6655   */\n      add\n      swap1\n        /* \"#utility.yul\":6484:6661   */\n      jump\t// out\n        /* \"#utility.yul\":6666:7066   */\n    tag_243:\n        /* \"#utility.yul\":6868:6870   */\n      0x20\n        /* \"#utility.yul\":6850:6871   */\n      dup1\n      dup3\n      mstore\n        /* \"#utility.yul\":6907:6909   */\n      0x24\n        /* \"#utility.yul\":6887:6905   */\n      swap1\n      dup3\n      add\n        /* \"#utility.yul\":6880:6910   */\n      mstore\n        /* \"#utility.yul\":6946:6980   */\n      0x6578656375746f723a2063616c6c6572206973206e6f74207468652065786563\n        /* \"#utility.yul\":6941:6943   */\n      0x40\n        /* \"#utility.yul\":6926:6944   */\n      dup3\n      add\n        /* \"#utility.yul\":6919:6981   */\n      mstore\n      shl(0xe1, 0x3aba37b9)\n        /* \"#utility.yul\":7012:7014   */\n      0x60\n        /* \"#utility.yul\":6997:7015   */\n      dup3\n      add\n        /* \"#utility.yul\":6990:7024   */\n      mstore\n        /* \"#utility.yul\":7056:7059   */\n      0x80\n        /* \"#utility.yul\":7041:7060   */\n      add\n      swap1\n        /* \"#utility.yul\":6840:7066   */\n      jump\t// out\n        /* \"#utility.yul\":7071:7406   */\n    tag_479:\n        /* \"#utility.yul\":7273:7275   */\n      0x20\n        /* \"#utility.yul\":7255:7276   */\n      dup1\n      dup3\n      mstore\n        /* \"#utility.yul\":7312:7314   */\n      0x0b\n        /* \"#utility.yul\":7292:7310   */\n      swap1\n      dup3\n      add\n        /* \"#utility.yul\":7285:7315   */\n      mstore\n      shl(0xa9, 0x37b7363c90333ab73232b9)\n        /* \"#utility.yul\":7346:7348   */\n      0x40\n        /* \"#utility.yul\":7331:7349   */\n      dup3\n      add\n        /* \"#utility.yul\":7324:7365   */\n      mstore\n        /* \"#utility.yul\":7397:7399   */\n      0x60\n        /* \"#utility.yul\":7382:7400   */\n      add\n      swap1\n        /* \"#utility.yul\":7245:7406   */\n      jump\t// out\n        /* \"#utility.yul\":7411:7759   */\n    tag_326:\n        /* \"#utility.yul\":7613:7615   */\n      0x20\n        /* \"#utility.yul\":7595:7616   */\n      dup1\n      dup3\n      mstore\n        /* \"#utility.yul\":7652:7654   */\n      0x18\n        /* \"#utility.yul\":7632:7650   */\n      swap1\n      dup3\n      add\n        /* \"#utility.yul\":7625:7655   */\n      mstore\n        /* \"#utility.yul\":7691:7717   */\n      0x6164643a206e6f74207374616b65546f6b656e20616464720000000000000000\n        /* \"#utility.yul\":7686:7688   */\n      0x40\n        /* \"#utility.yul\":7671:7689   */\n      dup3\n      add\n        /* \"#utility.yul\":7664:7718   */\n      mstore\n        /* \"#utility.yul\":7750:7752   */\n      0x60\n        /* \"#utility.yul\":7735:7753   */\n      add\n      swap1\n        /* \"#utility.yul\":7585:7759   */\n      jump\t// out\n        /* \"#utility.yul\":7764:8118   */\n    tag_467:\n        /* \"#utility.yul\":7966:7968   */\n      0x20\n        /* \"#utility.yul\":7948:7969   */\n      dup1\n      dup3\n      mstore\n        /* \"#utility.yul\":8005:8007   */\n      0x1e\n        /* \"#utility.yul\":7985:8003   */\n      swap1\n      dup3\n      add\n        /* \"#utility.yul\":7978:8008   */\n      mstore\n        /* \"#utility.yul\":8044:8076   */\n      0x536166654d6174683a207375627472616374696f6e206f766572666c6f770000\n        /* \"#utility.yul\":8039:8041   */\n      0x40\n        /* \"#utility.yul\":8024:8042   */\n      dup3\n      add\n        /* \"#utility.yul\":8017:8077   */\n      mstore\n        /* \"#utility.yul\":8109:8111   */\n      0x60\n        /* \"#utility.yul\":8094:8112   */\n      add\n      swap1\n        /* \"#utility.yul\":7938:8118   */\n      jump\t// out\n        /* \"#utility.yul\":8123:8525   */\n    tag_525:\n        /* \"#utility.yul\":8325:8327   */\n      0x20\n        /* \"#utility.yul\":8307:8328   */\n      dup1\n      dup3\n      mstore\n        /* \"#utility.yul\":8364:8366   */\n      0x26\n        /* \"#utility.yul\":8344:8362   */\n      swap1\n      dup3\n      add\n        /* \"#utility.yul\":8337:8367   */\n      mstore\n        /* \"#utility.yul\":8403:8437   */\n      0x416464726573733a20696e73756666696369656e742062616c616e636520666f\n        /* \"#utility.yul\":8398:8400   */\n      0x40\n        /* \"#utility.yul\":8383:8401   */\n      dup3\n      add\n        /* \"#utility.yul\":8376:8438   */\n      mstore\n      shl(0xd2, 0x1c8818d85b1b)\n        /* \"#utility.yul\":8469:8471   */\n      0x60\n        /* \"#utility.yul\":8454:8472   */\n      dup3\n      add\n        /* \"#utility.yul\":8447:8483   */\n      mstore\n        /* \"#utility.yul\":8515:8518   */\n      0x80\n        /* \"#utility.yul\":8500:8519   */\n      add\n      swap1\n        /* \"#utility.yul\":8297:8525   */\n      jump\t// out\n        /* \"#utility.yul\":8530:8880   */\n    tag_462:\n        /* \"#utility.yul\":8732:8734   */\n      0x20\n        /* \"#utility.yul\":8714:8735   */\n      dup1\n      dup3\n      mstore\n        /* \"#utility.yul\":8771:8773   */\n      0x1a\n        /* \"#utility.yul\":8751:8769   */\n      swap1\n      dup3\n      add\n        /* \"#utility.yul\":8744:8774   */\n      mstore\n        /* \"#utility.yul\":8810:8838   */\n      0x536166654d6174683a206469766973696f6e206279207a65726f000000000000\n        /* \"#utility.yul\":8805:8807   */\n      0x40\n        /* \"#utility.yul\":8790:8808   */\n      dup3\n      add\n        /* \"#utility.yul\":8783:8839   */\n      mstore\n        /* \"#utility.yul\":8871:8873   */\n      0x60\n        /* \"#utility.yul\":8856:8874   */\n      add\n      swap1\n        /* \"#utility.yul\":8704:8880   */\n      jump\t// out\n        /* \"#utility.yul\":8885:9238   */\n    tag_175:\n        /* \"#utility.yul\":9087:9089   */\n      0x20\n        /* \"#utility.yul\":9069:9090   */\n      dup1\n      dup3\n      mstore\n        /* \"#utility.yul\":9126:9128   */\n      0x1d\n        /* \"#utility.yul\":9106:9124   */\n      swap1\n      dup3\n      add\n        /* \"#utility.yul\":9099:9129   */\n      mstore\n        /* \"#utility.yul\":9165:9196   */\n      0x736574426f6e75733a2062616420626f6e75734d756c7469706c696572000000\n        /* \"#utility.yul\":9160:9162   */\n      0x40\n        /* \"#utility.yul\":9145:9163   */\n      dup3\n      add\n        /* \"#utility.yul\":9138:9197   */\n      mstore\n        /* \"#utility.yul\":9229:9231   */\n      0x60\n        /* \"#utility.yul\":9214:9232   */\n      add\n      swap1\n        /* \"#utility.yul\":9059:9238   */\n      jump\t// out\n        /* \"#utility.yul\":9243:9640   */\n    tag_458:\n        /* \"#utility.yul\":9445:9447   */\n      0x20\n        /* \"#utility.yul\":9427:9448   */\n      dup1\n      dup3\n      mstore\n        /* \"#utility.yul\":9484:9486   */\n      0x21\n        /* \"#utility.yul\":9464:9482   */\n      swap1\n      dup3\n      add\n        /* \"#utility.yul\":9457:9487   */\n      mstore\n        /* \"#utility.yul\":9523:9557   */\n      0x536166654d6174683a206d756c7469706c69636174696f6e206f766572666c6f\n        /* \"#utility.yul\":9518:9520   */\n      0x40\n        /* \"#utility.yul\":9503:9521   */\n      dup3\n      add\n        /* \"#utility.yul\":9496:9558   */\n      mstore\n      shl(0xf8, 0x77)\n        /* \"#utility.yul\":9589:9591   */\n      0x60\n        /* \"#utility.yul\":9574:9592   */\n      dup3\n      add\n        /* \"#utility.yul\":9567:9598   */\n      mstore\n        /* \"#utility.yul\":9630:9633   */\n      0x80\n        /* \"#utility.yul\":9615:9634   */\n      add\n      swap1\n        /* \"#utility.yul\":9417:9640   */\n      jump\t// out\n        /* \"#utility.yul\":9645:10001   */\n    tag_168:\n        /* \"#utility.yul\":9847:9849   */\n      0x20\n        /* \"#utility.yul\":9829:9850   */\n      dup1\n      dup3\n      mstore\n        /* \"#utility.yul\":9866:9884   */\n      dup2\n      dup2\n      add\n        /* \"#utility.yul\":9859:9889   */\n      mstore\n        /* \"#utility.yul\":9925:9959   */\n      0x4f776e61626c653a2063616c6c6572206973206e6f7420746865206f776e6572\n        /* \"#utility.yul\":9920:9922   */\n      0x40\n        /* \"#utility.yul\":9905:9923   */\n      dup3\n      add\n        /* \"#utility.yul\":9898:9960   */\n      mstore\n        /* \"#utility.yul\":9992:9994   */\n      0x60\n        /* \"#utility.yul\":9977:9995   */\n      add\n      swap1\n        /* \"#utility.yul\":9819:10001   */\n      jump\t// out\n        /* \"#utility.yul\":10006:10348   */\n    tag_437:\n        /* \"#utility.yul\":10208:10210   */\n      0x20\n        /* \"#utility.yul\":10190:10211   */\n      dup1\n      dup3\n      mstore\n        /* \"#utility.yul\":10247:10249   */\n      0x12\n        /* \"#utility.yul\":10227:10245   */\n      swap1\n      dup3\n      add\n        /* \"#utility.yul\":10220:10250   */\n      mstore\n      shl(0x70, 0x777466206e6f7420656e6f75676820536561)\n        /* \"#utility.yul\":10281:10283   */\n      0x40\n        /* \"#utility.yul\":10266:10284   */\n      dup3\n      add\n        /* \"#utility.yul\":10259:10307   */\n      mstore\n        /* \"#utility.yul\":10339:10341   */\n      0x60\n        /* \"#utility.yul\":10324:10342   */\n      add\n      swap1\n        /* \"#utility.yul\":10180:10348   */\n      jump\t// out\n        /* \"#utility.yul\":10353:10697   */\n    tag_339:\n        /* \"#utility.yul\":10555:10557   */\n      0x20\n        /* \"#utility.yul\":10537:10558   */\n      dup1\n      dup3\n      mstore\n        /* \"#utility.yul\":10594:10596   */\n      0x14\n        /* \"#utility.yul\":10574:10592   */\n      swap1\n      dup3\n      add\n        /* \"#utility.yul\":10567:10597   */\n      mstore\n      shl(0x62, 0x109b1bd8dac81c985b99d948195e18d959591959)\n        /* \"#utility.yul\":10628:10630   */\n      0x40\n        /* \"#utility.yul\":10613:10631   */\n      dup3\n      add\n        /* \"#utility.yul\":10606:10656   */\n      mstore\n        /* \"#utility.yul\":10688:10690   */\n      0x60\n        /* \"#utility.yul\":10673:10691   */\n      add\n      swap1\n        /* \"#utility.yul\":10527:10697   */\n      jump\t// out\n        /* \"#utility.yul\":10702:11032   */\n    tag_186:\n        /* \"#utility.yul\":10904:10906   */\n      0x20\n        /* \"#utility.yul\":10886:10907   */\n      dup1\n      dup3\n      mstore\n        /* \"#utility.yul\":10943:10944   */\n      0x07\n        /* \"#utility.yul\":10923:10941   */\n      swap1\n      dup3\n      add\n        /* \"#utility.yul\":10916:10945   */\n      mstore\n      shl(0xc9, 0x3130b21039b7b3)\n        /* \"#utility.yul\":10976:10978   */\n      0x40\n        /* \"#utility.yul\":10961:10979   */\n      dup3\n      add\n        /* \"#utility.yul\":10954:10991   */\n      mstore\n        /* \"#utility.yul\":11023:11025   */\n      0x60\n        /* \"#utility.yul\":11008:11026   */\n      add\n      swap1\n        /* \"#utility.yul\":10876:11032   */\n      jump\t// out\n        /* \"#utility.yul\":11037:11390   */\n    tag_530:\n        /* \"#utility.yul\":11239:11241   */\n      0x20\n        /* \"#utility.yul\":11221:11242   */\n      dup1\n      dup3\n      mstore\n        /* \"#utility.yul\":11278:11280   */\n      0x1d\n        /* \"#utility.yul\":11258:11276   */\n      swap1\n      dup3\n      add\n        /* \"#utility.yul\":11251:11281   */\n      mstore\n        /* \"#utility.yul\":11317:11348   */\n      0x416464726573733a2063616c6c20746f206e6f6e2d636f6e7472616374000000\n        /* \"#utility.yul\":11312:11314   */\n      0x40\n        /* \"#utility.yul\":11297:11315   */\n      dup3\n      add\n        /* \"#utility.yul\":11290:11349   */\n      mstore\n        /* \"#utility.yul\":11381:11383   */\n      0x60\n        /* \"#utility.yul\":11366:11384   */\n      add\n      swap1\n        /* \"#utility.yul\":11211:11390   */\n      jump\t// out\n        /* \"#utility.yul\":11395:11737   */\n    tag_482:\n        /* \"#utility.yul\":11597:11599   */\n      0x20\n        /* \"#utility.yul\":11579:11600   */\n      dup1\n      dup3\n      mstore\n        /* \"#utility.yul\":11636:11638   */\n      0x12\n        /* \"#utility.yul\":11616:11634   */\n      swap1\n      dup3\n      add\n        /* \"#utility.yul\":11609:11639   */\n      mstore\n      shl(0x72, 0x1dda5d1a191c985dce881b9bdd0819dbdbd9)\n        /* \"#utility.yul\":11670:11672   */\n      0x40\n        /* \"#utility.yul\":11655:11673   */\n      dup3\n      add\n        /* \"#utility.yul\":11648:11696   */\n      mstore\n        /* \"#utility.yul\":11728:11730   */\n      0x60\n        /* \"#utility.yul\":11713:11731   */\n      add\n      swap1\n        /* \"#utility.yul\":11569:11737   */\n      jump\t// out\n        /* \"#utility.yul\":11742:12093   */\n    tag_189:\n        /* \"#utility.yul\":11944:11946   */\n      0x20\n        /* \"#utility.yul\":11926:11947   */\n      dup1\n      dup3\n      mstore\n        /* \"#utility.yul\":11983:11985   */\n      0x1b\n        /* \"#utility.yul\":11963:11981   */\n      swap1\n      dup3\n      add\n        /* \"#utility.yul\":11956:11986   */\n      mstore\n        /* \"#utility.yul\":12022:12051   */\n      0x6465706f7369743a206e6f7420616363657074206465706f7369740000000000\n        /* \"#utility.yul\":12017:12019   */\n      0x40\n        /* \"#utility.yul\":12002:12020   */\n      dup3\n      add\n        /* \"#utility.yul\":11995:12052   */\n      mstore\n        /* \"#utility.yul\":12084:12086   */\n      0x60\n        /* \"#utility.yul\":12069:12087   */\n      add\n      swap1\n        /* \"#utility.yul\":11916:12093   */\n      jump\t// out\n        /* \"#utility.yul\":12098:12504   */\n    tag_518:\n        /* \"#utility.yul\":12300:12302   */\n      0x20\n        /* \"#utility.yul\":12282:12303   */\n      dup1\n      dup3\n      mstore\n        /* \"#utility.yul\":12339:12341   */\n      0x2a\n        /* \"#utility.yul\":12319:12337   */\n      swap1\n      dup3\n      add\n        /* \"#utility.yul\":12312:12342   */\n      mstore\n        /* \"#utility.yul\":12378:12412   */\n      0x5361666545524332303a204552433230206f7065726174696f6e20646964206e\n        /* \"#utility.yul\":12373:12375   */\n      0x40\n        /* \"#utility.yul\":12358:12376   */\n      dup3\n      add\n        /* \"#utility.yul\":12351:12413   */\n      mstore\n      shl(0xb2, 0x1bdd081cdd58d8d95959)\n        /* \"#utility.yul\":12444:12446   */\n      0x60\n        /* \"#utility.yul\":12429:12447   */\n      dup3\n      add\n        /* \"#utility.yul\":12422:12462   */\n      mstore\n        /* \"#utility.yul\":12494:12497   */\n      0x80\n        /* \"#utility.yul\":12479:12498   */\n      add\n      swap1\n        /* \"#utility.yul\":12272:12504   */\n      jump\t// out\n        /* \"#utility.yul\":12509:12864   */\n    tag_208:\n        /* \"#utility.yul\":12711:12713   */\n      0x20\n        /* \"#utility.yul\":12693:12714   */\n      dup1\n      dup3\n      mstore\n        /* \"#utility.yul\":12750:12752   */\n      0x1f\n        /* \"#utility.yul\":12730:12748   */\n      swap1\n      dup3\n      add\n        /* \"#utility.yul\":12723:12753   */\n      mstore\n        /* \"#utility.yul\":12789:12822   */\n      0x5265656e7472616e637947756172643a207265656e7472616e742063616c6c00\n        /* \"#utility.yul\":12784:12786   */\n      0x40\n        /* \"#utility.yul\":12769:12787   */\n      dup3\n      add\n        /* \"#utility.yul\":12762:12823   */\n      mstore\n        /* \"#utility.yul\":12855:12857   */\n      0x60\n        /* \"#utility.yul\":12840:12858   */\n      add\n      swap1\n        /* \"#utility.yul\":12683:12864   */\n      jump\t// out\n        /* \"#utility.yul\":12869:13211   */\n    tag_426:\n        /* \"#utility.yul\":13071:13073   */\n      0x20\n        /* \"#utility.yul\":13053:13074   */\n      dup1\n      dup3\n      mstore\n        /* \"#utility.yul\":13110:13112   */\n      0x12\n        /* \"#utility.yul\":13090:13108   */\n      swap1\n      dup3\n      add\n        /* \"#utility.yul\":13083:13113   */\n      mstore\n      shl(0x72, 0x1b9bdd1a1a5b99c81d1bc81a185c9d995cdd)\n        /* \"#utility.yul\":13144:13146   */\n      0x40\n        /* \"#utility.yul\":13129:13147   */\n      dup3\n      add\n        /* \"#utility.yul\":13122:13170   */\n      mstore\n        /* \"#utility.yul\":13202:13204   */\n      0x60\n        /* \"#utility.yul\":13187:13205   */\n      add\n      swap1\n        /* \"#utility.yul\":13043:13211   */\n      jump\t// out\n        /* \"#utility.yul\":13216:13559   */\n    tag_330:\n        /* \"#utility.yul\":13418:13420   */\n      0x20\n        /* \"#utility.yul\":13400:13421   */\n      dup1\n      dup3\n      mstore\n        /* \"#utility.yul\":13457:13459   */\n      0x13\n        /* \"#utility.yul\":13437:13455   */\n      swap1\n      dup3\n      add\n        /* \"#utility.yul\":13430:13460   */\n      mstore\n      shl(0x6c, 0x06164643a207374616b65546f6b656e2064757)\n        /* \"#utility.yul\":13491:13493   */\n      0x40\n        /* \"#utility.yul\":13476:13494   */\n      dup3\n      add\n        /* \"#utility.yul\":13469:13518   */\n      mstore\n        /* \"#utility.yul\":13550:13552   */\n      0x60\n        /* \"#utility.yul\":13535:13553   */\n      add\n      swap1\n        /* \"#utility.yul\":13390:13559   */\n      jump\t// out\n        /* \"#utility.yul\":13564:13741   */\n    tag_50:\n        /* \"#utility.yul\":13710:13735   */\n      swap1\n      dup2\n      mstore\n        /* \"#utility.yul\":13698:13700   */\n      0x20\n        /* \"#utility.yul\":13683:13701   */\n      add\n      swap1\n        /* \"#utility.yul\":13665:13741   */\n      jump\t// out\n        /* \"#utility.yul\":13746:14163   */\n    tag_127:\n        /* \"#utility.yul\":13977:14002   */\n      swap4\n      dup5\n      mstore\n        /* \"#utility.yul\":14033:14035   */\n      0x20\n        /* \"#utility.yul\":14018:14036   */\n      dup5\n      add\n        /* \"#utility.yul\":14011:14045   */\n      swap3\n      swap1\n      swap3\n      mstore\n        /* \"#utility.yul\":14076:14078   */\n      0x40\n        /* \"#utility.yul\":14061:14079   */\n      dup4\n      add\n        /* \"#utility.yul\":14054:14088   */\n      mstore\n      sub(shl(0xa0, 0x01), 0x01)\n        /* \"#utility.yul\":14124:14156   */\n      and\n        /* \"#utility.yul\":14119:14121   */\n      0x60\n        /* \"#utility.yul\":14104:14122   */\n      dup3\n      add\n        /* \"#utility.yul\":14097:14157   */\n      mstore\n        /* \"#utility.yul\":13964:13967   */\n      0x80\n        /* \"#utility.yul\":13949:13968   */\n      add\n      swap1\n        /* \"#utility.yul\":13931:14163   */\n      jump\t// out\n        /* \"#utility.yul\":14168:14296   */\n    tag_179:\n      0x00\n        /* \"#utility.yul\":14239:14240   */\n      dup3\n        /* \"#utility.yul\":14235:14241   */\n      not\n        /* \"#utility.yul\":14232:14233   */\n      dup3\n        /* \"#utility.yul\":14229:14242   */\n      gt\n        /* \"#utility.yul\":14226:14228   */\n      iszero\n      tag_619\n      jumpi\n        /* \"#utility.yul\":14245:14263   */\n      tag_619\n      tag_620\n      jump\t// in\n    tag_619:\n      pop\n        /* \"#utility.yul\":14281:14290   */\n      add\n      swap1\n        /* \"#utility.yul\":14216:14296   */\n      jump\t// out\n        /* \"#utility.yul\":14301:14518   */\n    tag_455:\n      0x00\n        /* \"#utility.yul\":14367:14368   */\n      dup3\n        /* \"#utility.yul\":14357:14359   */\n      tag_622\n      jumpi\n      shl(0xe0, 0x4e487b71)\n        /* \"#utility.yul\":14392:14423   */\n      dup2\n      mstore\n        /* \"#utility.yul\":14446:14450   */\n      0x12\n        /* \"#utility.yul\":14443:14444   */\n      0x04\n        /* \"#utility.yul\":14436:14451   */\n      mstore\n        /* \"#utility.yul\":14474:14478   */\n      0x24\n        /* \"#utility.yul\":14399:14400   */\n      dup2\n        /* \"#utility.yul\":14464:14479   */\n      revert\n        /* \"#utility.yul\":14357:14359   */\n    tag_622:\n      pop\n        /* \"#utility.yul\":14503:14512   */\n      div\n      swap1\n        /* \"#utility.yul\":14347:14518   */\n      jump\t// out\n        /* \"#utility.yul\":14523:14691   */\n    tag_453:\n      0x00\n        /* \"#utility.yul\":14629:14630   */\n      dup2\n        /* \"#utility.yul\":14625:14626   */\n      0x00\n        /* \"#utility.yul\":14621:14627   */\n      not\n        /* \"#utility.yul\":14617:14631   */\n      div\n        /* \"#utility.yul\":14614:14615   */\n      dup4\n        /* \"#utility.yul\":14611:14632   */\n      gt\n        /* \"#utility.yul\":14606:14607   */\n      dup3\n        /* \"#utility.yul\":14599:14608   */\n      iszero\n        /* \"#utility.yul\":14592:14609   */\n      iszero\n        /* \"#utility.yul\":14588:14633   */\n      and\n        /* \"#utility.yul\":14585:14587   */\n      iszero\n      tag_625\n      jumpi\n        /* \"#utility.yul\":14636:14654   */\n      tag_625\n      tag_620\n      jump\t// in\n    tag_625:\n      pop\n        /* \"#utility.yul\":14676:14685   */\n      mul\n      swap1\n        /* \"#utility.yul\":14575:14691   */\n      jump\t// out\n        /* \"#utility.yul\":14696:14821   */\n    tag_469:\n      0x00\n        /* \"#utility.yul\":14764:14765   */\n      dup3\n        /* \"#utility.yul\":14761:14762   */\n      dup3\n        /* \"#utility.yul\":14758:14766   */\n      lt\n        /* \"#utility.yul\":14755:14757   */\n      iszero\n      tag_628\n      jumpi\n        /* \"#utility.yul\":14769:14787   */\n      tag_628\n      tag_620\n      jump\t// in\n    tag_628:\n      pop\n        /* \"#utility.yul\":14806:14815   */\n      sub\n      swap1\n        /* \"#utility.yul\":14745:14821   */\n      jump\t// out\n        /* \"#utility.yul\":14826:15084   */\n    tag_585:\n        /* \"#utility.yul\":14898:14899   */\n      0x00\n        /* \"#utility.yul\":14908:15021   */\n    tag_630:\n        /* \"#utility.yul\":14922:14928   */\n      dup4\n        /* \"#utility.yul\":14919:14920   */\n      dup2\n        /* \"#utility.yul\":14916:14929   */\n      lt\n        /* \"#utility.yul\":14908:15021   */\n      iszero\n      tag_632\n      jumpi\n        /* \"#utility.yul\":14998:15009   */\n      dup2\n      dup2\n      add\n        /* \"#utility.yul\":14992:15010   */\n      mload\n        /* \"#utility.yul\":14979:14990   */\n      dup4\n      dup3\n      add\n        /* \"#utility.yul\":14972:15011   */\n      mstore\n        /* \"#utility.yul\":14944:14946   */\n      0x20\n        /* \"#utility.yul\":14937:14947   */\n      add\n        /* \"#utility.yul\":14908:15021   */\n      jump(tag_630)\n    tag_632:\n        /* \"#utility.yul\":15039:15045   */\n      dup4\n        /* \"#utility.yul\":15036:15037   */\n      dup2\n        /* \"#utility.yul\":15033:15046   */\n      gt\n        /* \"#utility.yul\":15030:15032   */\n      iszero\n      tag_206\n      jumpi\n      pop\n      pop\n        /* \"#utility.yul\":15074:15075   */\n      0x00\n        /* \"#utility.yul\":15056:15072   */\n      swap2\n      add\n        /* \"#utility.yul\":15049:15076   */\n      mstore\n        /* \"#utility.yul\":14879:15084   */\n      jump\t// out\n        /* \"#utility.yul\":15089:15224   */\n    tag_307:\n      0x00\n      not(0x00)\n        /* \"#utility.yul\":15149:15166   */\n      dup3\n      eq\n        /* \"#utility.yul\":15146:15148   */\n      iszero\n      tag_636\n      jumpi\n        /* \"#utility.yul\":15169:15187   */\n      tag_636\n      tag_620\n      jump\t// in\n    tag_636:\n      pop\n        /* \"#utility.yul\":15216:15217   */\n      0x01\n        /* \"#utility.yul\":15205:15218   */\n      add\n      swap1\n        /* \"#utility.yul\":15136:15224   */\n      jump\t// out\n        /* \"#utility.yul\":15229:15356   */\n    tag_620:\n        /* \"#utility.yul\":15290:15300   */\n      0x4e487b71\n        /* \"#utility.yul\":15285:15288   */\n      0xe0\n        /* \"#utility.yul\":15281:15301   */\n      shl\n        /* \"#utility.yul\":15278:15279   */\n      0x00\n        /* \"#utility.yul\":15271:15302   */\n      mstore\n        /* \"#utility.yul\":15321:15325   */\n      0x11\n        /* \"#utility.yul\":15318:15319   */\n      0x04\n        /* \"#utility.yul\":15311:15326   */\n      mstore\n        /* \"#utility.yul\":15345:15349   */\n      0x24\n        /* \"#utility.yul\":15342:15343   */\n      0x00\n        /* \"#utility.yul\":15335:15350   */\n      revert\n        /* \"#utility.yul\":15361:15481   */\n    tag_557:\n        /* \"#utility.yul\":15449:15454   */\n      dup1\n        /* \"#utility.yul\":15442:15455   */\n      iszero\n        /* \"#utility.yul\":15435:15456   */\n      iszero\n        /* \"#utility.yul\":15428:15433   */\n      dup2\n        /* \"#utility.yul\":15425:15457   */\n      eq\n        /* \"#utility.yul\":15415:15417   */\n      tag_253\n      jumpi\n        /* \"#utility.yul\":15471:15472   */\n      0x00\n        /* \"#utility.yul\":15468:15469   */\n      dup1\n        /* \"#utility.yul\":15461:15473   */\n      revert\n\n    auxdata: 0xa2646970667358221220678195dbc01bd6b569ba05e947aabac1490e829647fead15ce1c9fefe6d75c9264736f6c63430008000033\n}\n",
				"bytecode": {
					"linkReferences": {},
					"object": "60806040523480156200001157600080fd5b506040516200273338038062002733833981016040819052620000349162000126565b6200004862000042620000b5565b620000b9565b6001808055600060058190556009819055600280546001600160a01b039889166001600160a01b0319918216179091556003805497909816961695909517909555600492909255600691909155600a55338152600b60205260409020805460ff1916909117905562000178565b3390565b600080546001600160a01b038381166001600160a01b0319831681178455604051919092169283917f8be0079c531659141344cd1fd0a4f28419497f9722a3daafe3b4186f6b6457e09190a35050565b80516001600160a01b03811681146200012157600080fd5b919050565b600080600080600060a086880312156200013e578081fd5b620001498662000109565b9450620001596020870162000109565b6040870151606088015160809098015196999198509695945092505050565b6125ab80620001886000396000f3fe608060405234801561001057600080fd5b50600436106101fb5760003560e01c8063715018a61161011a578063b5c5f672116100ad578063d4a91e381161007c578063d4a91e38146103ee578063ddc6326214610401578063e4c5ff4614610414578063f110180414610427578063f2fde38b1461042f576101fb565b8063b5c5f672146103ad578063cc6dbc27146103c0578063d477f05f146103d3578063d49e77cd146103e6576101fb565b8063930ed033116100e9578063930ed0331461035c57806393f1a40b1461036f578063a8b973a114610392578063b03df69d1461039a576101fb565b8063715018a6146103265780637abceffd1461032e5780638da5cb5b146103415780638dbb1e3a14610349576101fb565b80632e97766d116101925780634ecaac41116101615780634ecaac41146102e357806351eb05a6146102f85780635312ea8e1461030b578063630b5ba11461031e576101fb565b80632e97766d146102ad57806346ca6bea146102b557806348c7e528146102c857806348cd4cb1146102db576101fb565b806317caf6f1116101ce57806317caf6f11461026a5780631aed6553146102725780631e1bff3f1461027a57806324cdee221461029a576101fb565b8063037c99b014610200578063081e3eda146102155780630efe6a8b146102335780631526fe2714610246575b600080fd5b61021361020e366004611ea4565b610442565b005b61021d6104d4565b60405161022a919061246f565b60405180910390f35b610213610241366004611dbc565b6104da565b610259610254366004611e0a565b6106bb565b60405161022a959493929190611f5f565b61021d610706565b61021d61070c565b61028d610288366004611d5d565b610712565b60405161022a9190611f8d565b61021d6102a8366004611e3a565b610781565b61021d61090b565b6102136102c3366004611ec5565b61090f565b61028d6102d6366004611d43565b6109df565b61021d6109f4565b6102eb6109fa565b60405161022a9190611f0e565b610213610306366004611e0a565b610a09565b610213610319366004611e0a565b610cfe565b610213610db3565b610213610dde565b61021361033c366004611e65565b610e29565b6102eb611004565b61021d610357366004611ea4565b611013565b61028d61036a366004611d93565b6110a3565b61038261037d366004611e3a565b611101565b60405161022a9493929190612478565b61021d61113c565b61028d6103a8366004611d43565b611142565b6102136103bb366004611dbc565b6111c6565b6102136103ce366004611d93565b61120c565b6102136103e1366004611d43565b61127c565b6102eb611318565b6102136103fc366004611e0a565b611327565b61021361040f366004611e0a565b611399565b610213610422366004611d93565b61143c565b61021d61153a565b61021361043d366004611d43565b611540565b61044a6115ae565b6001600160a01b031661045b611004565b6001600160a01b03161461048a5760405162461bcd60e51b81526004016104819061224b565b60405180910390fd5b4381116104a95760405162461bcd60e51b815260040161048190612011565b600182116104c95760405162461bcd60e51b8152600401610481906121d3565b600591909155600655565b60075490565b60018060008282546104ec919061249c565b909155505060015460078054600091908590811061051a57634e487b7160e01b600052603260045260246000fd5b600091825260208083208784526008825260408085206001600160a01b03808c168752935290932060038101546005909302909301935016156105835760038101546001600160a01b031633146105835760405162461bcd60e51b8152600401610481906122da565b81546001600160a01b03166105aa5760405162461bcd60e51b81526004016104819061235e565b6105b385610a09565b8054156105c4576105c486866115b2565b60038101546001600160a01b03166105eb576003810180546001600160a01b031916331790555b8154610602906001600160a01b0316333087611703565b805461060e908561175b565b80825560038301546106319164e8d4a510009161062b919061178a565b906117cf565b6001820155600482015481546106519164e8d4a510009161062b9161178a565b6002820155604051859033907f90890809c654f11d6e72a28fa60149770a0d11ec6c92319d6ceb2bb0a4ea1a159061068a90889061246f565b60405180910390a3505060015481146106b55760405162461bcd60e51b8152600401610481906123df565b50505050565b600781815481106106cb57600080fd5b6000918252602090912060059091020180546001820154600283015460038401546004909401546001600160a01b0390931694509092909185565b60095481565b60065481565b600061071c6115ae565b6001600160a01b031661072d611004565b6001600160a01b0316146107535760405162461bcd60e51b81526004016104819061224b565b506001600160a01b0382166000908152600b60205260409020805460ff191682151517905560015b92915050565b600080600784815481106107a557634e487b7160e01b600052603260045260246000fd5b600091825260208083208784526008825260408085206001600160a01b03808a16875293528085206003600590950290920193840154845491516370a0823160e01b815294965091949193919216906370a0823190610808903090600401611f0e565b60206040518083038186803b15801561082057600080fd5b505afa158015610834573d6000803e3d6000fd5b505050506040513d601f19601f820116820180604052508101906108589190611e22565b905083600201544311801561086c57508015155b156108d2576000610881856002015443611013565b905060006108ae60095461062b88600101546108a86004548761178a90919063ffffffff16565b9061178a565b90506108cd6108c68461062b8464e8d4a5100061178a565b859061175b565b935050505b61090083600101546108fa64e8d4a5100061062b86886000015461178a90919063ffffffff16565b906117fa565b979650505050505050565b4390565b336000908152600b602052604090205460ff1661093e5760405162461bcd60e51b81526004016104819061207f565b801561094c5761094c610db3565b61099d826109976007868154811061097457634e487b7160e01b600052603260045260246000fd5b9060005260206000209060050201600101546009546117fa90919063ffffffff16565b9061175b565b60098190555081600784815481106109c557634e487b7160e01b600052603260045260246000fd5b906000526020600020906005020160010181905550505050565b600b6020526000908152604090205460ff1681565b600a5481565b6002546001600160a01b031681565b600060078281548110610a2c57634e487b7160e01b600052603260045260246000fd5b9060005260206000209060050201905080600201544311610a4d5750610cfb565b80546040516370a0823160e01b81526000916001600160a01b0316906370a0823190610a7d903090600401611f0e565b60206040518083038186803b158015610a9557600080fd5b505afa158015610aa9573d6000803e3d6000fd5b505050506040513d601f19601f82011682018060405250810190610acd9190611e22565b905080610ae1575043600290910155610cfb565b6000610af1836002015443611013565b90506000610b1860095461062b86600101546108a86004548761178a90919063ffffffff16565b6002546003549192506001600160a01b03908116916340c10f199116610b44606461062b86601461178a565b6040518363ffffffff1660e01b8152600401610b61929190611f46565b602060405180830381600087803b158015610b7b57600080fd5b505af1158015610b8f573d6000803e3d6000fd5b505050506040513d601f19601f82011682018060405250810190610bb39190611dee565b506002546040516340c10f1960e01b81526001600160a01b03909116906340c10f1990610be69030908590600401611f46565b602060405180830381600087803b158015610c0057600080fd5b505af1158015610c14573d6000803e3d6000fd5b505050506040513d601f19601f82011682018060405250810190610c389190611dee565b50610c5a610c4f8461062b8464e8d4a5100061178a565b60038601549061175b565b60038501556006544311610c7357600384015460048501555b60065443118015610c8957506006548460020154105b15610ced576000610cc360095461062b87600101546108a86004546108a86005546108a88d600201546006546117fa90919063ffffffff16565b9050610ce6610cdb8561062b8464e8d4a5100061178a565b60048701549061175b565b6004860155505b438460020181905550505050505b50565b600060078281548110610d2157634e487b7160e01b600052603260045260246000fd5b600091825260208083208584526008825260408085203380875293528420805485825560018201959095556005909302018054909450919291610d71916001600160a01b03919091169083611826565b8154604051859133917fbb757047c2b5f3974fe26b7c10f732e7bce710b0952a71082702781e62ae059591610da59161246f565b60405180910390a350505050565b60075460005b81811015610dda57610dca81610a09565b610dd381612536565b9050610db9565b5050565b610de66115ae565b6001600160a01b0316610df7611004565b6001600160a01b031614610e1d5760405162461bcd60e51b81526004016104819061224b565b610e276000611845565b565b610e316115ae565b6001600160a01b0316610e42611004565b6001600160a01b031614610e685760405162461bcd60e51b81526004016104819061224b565b8015610e7657610e76610db3565b6001600160a01b038216610e9c5760405162461bcd60e51b8152600401610481906120e8565b610ea582611142565b15610ec25760405162461bcd60e51b815260040161048190612442565b6000600a544311610ed557600a54610ed7565b435b600954909150610ee7908561175b565b6009556040805160a0810182526001600160a01b039485168152602081019586529081019182526000606082018181526080830182815260078054600181018255935292517fa66cc928b5edb82af9bd49922954155ab7b0942694bea4ce44661d9a8736c688600590930292830180546001600160a01b031916919097161790955594517fa66cc928b5edb82af9bd49922954155ab7b0942694bea4ce44661d9a8736c68986015590517fa66cc928b5edb82af9bd49922954155ab7b0942694bea4ce44661d9a8736c68a85015591517fa66cc928b5edb82af9bd49922954155ab7b0942694bea4ce44661d9a8736c68b84015550517fa66cc928b5edb82af9bd49922954155ab7b0942694bea4ce44661d9a8736c68c90910155565b6000546001600160a01b031690565b6000818311156110355760405162461bcd60e51b8152600401610481906122ac565b60065482116110565760055461104f906108a884866117fa565b905061077b565b60065483106110695761104f82846117fa565b61109c611081600654846117fa90919063ffffffff16565b6109976005546108a8876006546117fa90919063ffffffff16565b9392505050565b60006110ad6115ae565b6001600160a01b03166110be611004565b6001600160a01b0316146110e45760405162461bcd60e51b81526004016104819061224b565b6110f86001600160a01b0384163384611826565b50600192915050565b60086020908152600092835260408084209091529082529020805460018201546002830154600390930154919290916001600160a01b031684565b60055481565b600754600090815b818110156111ba57836001600160a01b03166007828154811061117d57634e487b7160e01b600052603260045260246000fd5b60009182526020909120600590910201546001600160a01b031614156111a8576001925050506111c1565b806111b281612536565b91505061114a565b5060009150505b919050565b60018060008282546111d8919061249c565b90915550506001546111eb848484611895565b60015481146106b55760405162461bcd60e51b8152600401610481906123df565b600180600082825461121e919061249c565b909155505060015460008281526008602090815260408083206001600160a01b03871684529091529020546112569084908490611895565b60015481146112775760405162461bcd60e51b8152600401610481906123df565b505050565b6112846115ae565b6001600160a01b0316611295611004565b6001600160a01b0316146112bb5760405162461bcd60e51b81526004016104819061224b565b6001600160a01b0381166112ce57600080fd5b600380546001600160a01b0319166001600160a01b0383169081179091556040517ff5721dfa6ddbf8e4a2cd38b2152fff4008050b9b37de59ae1e022dde4bd5df7390600090a250565b6003546001600160a01b031681565b61132f6115ae565b6001600160a01b0316611340611004565b6001600160a01b0316146113665760405162461bcd60e51b81526004016104819061224b565b600481905560405181907f045c280c0ee21a223bf57ba9b47035cda586d0472889fcf81d6ecf95a72fbf6490600090a250565b6000600782815481106113bc57634e487b7160e01b600052603260045260246000fd5b600091825260208083208584526008825260408085203386529092529220600590910290910191506113ed83610a09565b6113f733846115b2565b600382015481546114129164e8d4a510009161062b9161178a565b6001820155600482015481546114329164e8d4a510009161062b9161178a565b6002909101555050565b6114446115ae565b6001600160a01b0316611455611004565b6001600160a01b03161461147b5760405162461bcd60e51b81526004016104819061224b565b6002546040516340c10f1960e01b81526001600160a01b03909116906340c10f19906114ad9085908590600401611f46565b602060405180830381600087803b1580156114c757600080fd5b505af11580156114db573d6000803e3d6000fd5b505050506040513d601f19601f820116820180604052508101906114ff9190611dee565b5060405181906001600160a01b038416907f5a513126cbc10dde78a9844543bd609b2c5b0f4169cecb81f0378f00fa2bdbf090600090a35050565b60045481565b6115486115ae565b6001600160a01b0316611559611004565b6001600160a01b03161461157f5760405162461bcd60e51b81526004016104819061224b565b6001600160a01b0381166115a55760405162461bcd60e51b815260040161048190611fcb565b610cfb81611845565b3390565b6000600782815481106115d557634e487b7160e01b600052603260045260246000fd5b600091825260208083208584526008825260408085206001600160a01b038916865290925292208054600590920290920192506116245760405162461bcd60e51b815260040161048190612416565b600061165282600101546108fa64e8d4a5100061062b8760030154876000015461178a90919063ffffffff16565b6002546040516370a0823160e01b81529192506001600160a01b0316906370a0823190611683903090600401611f0e565b60206040518083038186803b15801561169b57600080fd5b505afa1580156116af573d6000803e3d6000fd5b505050506040513d601f19601f820116820180604052508101906116d39190611e22565b8111156116f25760405162461bcd60e51b815260040161048190612280565b6116fc85826119f9565b5050505050565b6106b5846323b872dd60e01b85858560405160240161172493929190611f22565b60408051601f198184030181529190526020810180516001600160e01b03166001600160e01b031990931692909217909152611b92565b600080611768838561249c565b90508381101561109c5760405162461bcd60e51b815260040161048190612048565b6000826117995750600061077b565b60006117a583856124d4565b9050826117b285836124b4565b1461109c5760405162461bcd60e51b81526004016104819061220a565b60008082116117f05760405162461bcd60e51b81526004016104819061219c565b61109c82846124b4565b60008282111561181c5760405162461bcd60e51b81526004016104819061211f565b61109c82846124f3565b6112778363a9059cbb60e01b8484604051602401611724929190611f46565b600080546001600160a01b038381166001600160a01b0319831681178455604051919092169283917f8be0079c531659141344cd1fd0a4f28419497f9722a3daafe3b4186f6b6457e09190a35050565b6000600783815481106118b857634e487b7160e01b600052603260045260246000fd5b600091825260208083208684526008825260408085206001600160a01b03808b168752935290932060038101546005909302909301935016331461190e5760405162461bcd60e51b8152600401610481906120c3565b805483111561192f5760405162461bcd60e51b815260040161048190612332565b61193884610a09565b61194285856115b2565b805461194e90846117fa565b808255600383015461196b9164e8d4a510009161062b919061178a565b60018201556004820154815461198b9164e8d4a510009161062b9161178a565b600282015581546001600160a01b0316156119b65781546119b6906001600160a01b03163385611826565b8054604051859133917ff279e6a1f5e320cca91135676d9cb6e44ca8a08c0b88342bcdb1144f6511b568916119ea9161246f565b60405180910390a35050505050565b6002546040516370a0823160e01b81526000916001600160a01b0316906370a0823190611a2a903090600401611f0e565b60206040518083038186803b158015611a4257600080fd5b505afa158015611a56573d6000803e3d6000fd5b505050506040513d601f19601f82011682018060405250810190611a7a9190611e22565b905080821115611b0e5760025460405163a9059cbb60e01b81526001600160a01b039091169063a9059cbb90611ab69086908590600401611f46565b602060405180830381600087803b158015611ad057600080fd5b505af1158015611ae4573d6000803e3d6000fd5b505050506040513d601f19601f82011682018060405250810190611b089190611dee565b50611277565b60025460405163a9059cbb60e01b81526001600160a01b039091169063a9059cbb90611b409086908690600401611f46565b602060405180830381600087803b158015611b5a57600080fd5b505af1158015611b6e573d6000803e3d6000fd5b505050506040513d601f19601f820116820180604052508101906106b59190611dee565b6000611be7826040518060400160405280602081526020017f5361666545524332303a206c6f772d6c6576656c2063616c6c206661696c6564815250856001600160a01b0316611c219092919063ffffffff16565b8051909150156112775780806020019051810190611c059190611dee565b6112775760405162461bcd60e51b815260040161048190612395565b6060611c308484600085611c38565b949350505050565b606082471015611c5a5760405162461bcd60e51b815260040161048190612156565b611c6385611ced565b611c7f5760405162461bcd60e51b8152600401610481906122fb565b600080866001600160a01b03168587604051611c9b9190611ef2565b60006040518083038185875af1925050503d8060008114611cd8576040519150601f19603f3d011682016040523d82523d6000602084013e611cdd565b606091505b5091509150610900828286611cf3565b3b151590565b60608315611d0257508161109c565b825115611d125782518084602001fd5b8160405162461bcd60e51b81526004016104819190611f98565b80356001600160a01b03811681146111c157600080fd5b600060208284031215611d54578081fd5b61109c82611d2c565b60008060408385031215611d6f578081fd5b611d7883611d2c565b91506020830135611d8881612567565b809150509250929050565b60008060408385031215611da5578182fd5b611dae83611d2c565b946020939093013593505050565b600080600060608486031215611dd0578081fd5b611dd984611d2c565b95602085013595506040909401359392505050565b600060208284031215611dff578081fd5b815161109c81612567565b600060208284031215611e1b578081fd5b5035919050565b600060208284031215611e33578081fd5b5051919050565b60008060408385031215611e4c578182fd5b82359150611e5c60208401611d2c565b90509250929050565b600080600060608486031215611e79578283fd5b83359250611e8960208501611d2c565b91506040840135611e9981612567565b809150509250925092565b60008060408385031215611eb6578182fd5b50508035926020909101359150565b600080600060608486031215611ed9578283fd5b83359250602084013591506040840135611e9981612567565b60008251611f0481846020870161250a565b9190910192915050565b6001600160a01b0391909116815260200190565b6001600160a01b039384168152919092166020820152604081019190915260600190565b6001600160a01b03929092168252602082015260400190565b6001600160a01b03959095168552602085019390935260408401919091526060830152608082015260a00190565b901515815260200190565b6000602082528251806020840152611fb781604085016020870161250a565b601f01601f19169190910160400192915050565b60208082526026908201527f4f776e61626c653a206e6577206f776e657220697320746865207a65726f206160408201526564647265737360d01b606082015260800190565b6020808252601b908201527f736574426f6e75733a2062616420626f6e7573456e64426c6f636b0000000000604082015260600190565b6020808252601b908201527f536166654d6174683a206164646974696f6e206f766572666c6f770000000000604082015260600190565b60208082526024908201527f6578656375746f723a2063616c6c6572206973206e6f742074686520657865636040820152633aba37b960e11b606082015260800190565b6020808252600b908201526a37b7363c90333ab73232b960a91b604082015260600190565b60208082526018908201527f6164643a206e6f74207374616b65546f6b656e20616464720000000000000000604082015260600190565b6020808252601e908201527f536166654d6174683a207375627472616374696f6e206f766572666c6f770000604082015260600190565b60208082526026908201527f416464726573733a20696e73756666696369656e742062616c616e636520666f6040820152651c8818d85b1b60d21b606082015260800190565b6020808252601a908201527f536166654d6174683a206469766973696f6e206279207a65726f000000000000604082015260600190565b6020808252601d908201527f736574426f6e75733a2062616420626f6e75734d756c7469706c696572000000604082015260600190565b60208082526021908201527f536166654d6174683a206d756c7469706c69636174696f6e206f766572666c6f6040820152607760f81b606082015260800190565b6020808252818101527f4f776e61626c653a2063616c6c6572206973206e6f7420746865206f776e6572604082015260600190565b602080825260129082015271777466206e6f7420656e6f7567682053656160701b604082015260600190565b602080825260149082015273109b1bd8dac81c985b99d948195e18d95959195960621b604082015260600190565b6020808252600790820152663130b21039b7b360c91b604082015260600190565b6020808252601d908201527f416464726573733a2063616c6c20746f206e6f6e2d636f6e7472616374000000604082015260600190565b6020808252601290820152711dda5d1a191c985dce881b9bdd0819dbdbd960721b604082015260600190565b6020808252601b908201527f6465706f7369743a206e6f7420616363657074206465706f7369740000000000604082015260600190565b6020808252602a908201527f5361666545524332303a204552433230206f7065726174696f6e20646964206e6040820152691bdd081cdd58d8d9595960b21b606082015260800190565b6020808252601f908201527f5265656e7472616e637947756172643a207265656e7472616e742063616c6c00604082015260600190565b6020808252601290820152711b9bdd1a1a5b99c81d1bc81a185c9d995cdd60721b604082015260600190565b60208082526013908201527206164643a207374616b65546f6b656e2064757606c1b604082015260600190565b90815260200190565b938452602084019290925260408301526001600160a01b0316606082015260800190565b600082198211156124af576124af612551565b500190565b6000826124cf57634e487b7160e01b81526012600452602481fd5b500490565b60008160001904831182151516156124ee576124ee612551565b500290565b60008282101561250557612505612551565b500390565b60005b8381101561252557818101518382015260200161250d565b838111156106b55750506000910152565b600060001982141561254a5761254a612551565b5060010190565b634e487b7160e01b600052601160045260246000fd5b8015158114610cfb57600080fdfea2646970667358221220678195dbc01bd6b569ba05e947aabac1490e829647fead15ce1c9fefe6d75c9264736f6c63430008000033",
					"opcodes": "PUSH1 0x80 PUSH1 0x40 MSTORE CALLVALUE DUP1 ISZERO PUSH3 0x11 JUMPI PUSH1 0x0 DUP1 REVERT JUMPDEST POP PUSH1 0x40 MLOAD PUSH3 0x2733 CODESIZE SUB DUP1 PUSH3 0x2733 DUP4 CODECOPY DUP2 ADD PUSH1 0x40 DUP2 SWAP1 MSTORE PUSH3 0x34 SWAP2 PUSH3 0x126 JUMP JUMPDEST PUSH3 0x48 PUSH3 0x42 PUSH3 0xB5 JUMP JUMPDEST PUSH3 0xB9 JUMP JUMPDEST PUSH1 0x1 DUP1 DUP1 SSTORE PUSH1 0x0 PUSH1 0x5 DUP2 SWAP1 SSTORE PUSH1 0x9 DUP2 SWAP1 SSTORE PUSH1 0x2 DUP1 SLOAD PUSH1 0x1 PUSH1 0x1 PUSH1 0xA0 SHL SUB SWAP9 DUP10 AND PUSH1 0x1 PUSH1 0x1 PUSH1 0xA0 SHL SUB NOT SWAP2 DUP3 AND OR SWAP1 SWAP2 SSTORE PUSH1 0x3 DUP1 SLOAD SWAP8 SWAP1 SWAP9 AND SWAP7 AND SWAP6 SWAP1 SWAP6 OR SWAP1 SWAP6 SSTORE PUSH1 0x4 SWAP3 SWAP1 SWAP3 SSTORE PUSH1 0x6 SWAP2 SWAP1 SWAP2 SSTORE PUSH1 0xA SSTORE CALLER DUP2 MSTORE PUSH1 0xB PUSH1 0x20 MSTORE PUSH1 0x40 SWAP1 KECCAK256 DUP1 SLOAD PUSH1 0xFF NOT AND SWAP1 SWAP2 OR SWAP1 SSTORE PUSH3 0x178 JUMP JUMPDEST CALLER SWAP1 JUMP JUMPDEST PUSH1 0x0 DUP1 SLOAD PUSH1 0x1 PUSH1 0x1 PUSH1 0xA0 SHL SUB DUP4 DUP2 AND PUSH1 0x1 PUSH1 0x1 PUSH1 0xA0 SHL SUB NOT DUP4 AND DUP2 OR DUP5 SSTORE PUSH1 0x40 MLOAD SWAP2 SWAP1 SWAP3 AND SWAP3 DUP4 SWAP2 PUSH32 0x8BE0079C531659141344CD1FD0A4F28419497F9722A3DAAFE3B4186F6B6457E0 SWAP2 SWAP1 LOG3 POP POP JUMP JUMPDEST DUP1 MLOAD PUSH1 0x1 PUSH1 0x1 PUSH1 0xA0 SHL SUB DUP2 AND DUP2 EQ PUSH3 0x121 JUMPI PUSH1 0x0 DUP1 REVERT JUMPDEST SWAP2 SWAP1 POP JUMP JUMPDEST PUSH1 0x0 DUP1 PUSH1 0x0 DUP1 PUSH1 0x0 PUSH1 0xA0 DUP7 DUP9 SUB SLT ISZERO PUSH3 0x13E JUMPI DUP1 DUP2 REVERT JUMPDEST PUSH3 0x149 DUP7 PUSH3 0x109 JUMP JUMPDEST SWAP5 POP PUSH3 0x159 PUSH1 0x20 DUP8 ADD PUSH3 0x109 JUMP JUMPDEST PUSH1 0x40 DUP8 ADD MLOAD PUSH1 0x60 DUP9 ADD MLOAD PUSH1 0x80 SWAP1 SWAP9 ADD MLOAD SWAP7 SWAP10 SWAP2 SWAP9 POP SWAP7 SWAP6 SWAP5 POP SWAP3 POP POP POP JUMP JUMPDEST PUSH2 0x25AB DUP1 PUSH3 0x188 PUSH1 0x0 CODECOPY PUSH1 0x0 RETURN INVALID PUSH1 0x80 PUSH1 0x40 MSTORE CALLVALUE DUP1 ISZERO PUSH2 0x10 JUMPI PUSH1 0x0 DUP1 REVERT JUMPDEST POP PUSH1 0x4 CALLDATASIZE LT PUSH2 0x1FB JUMPI PUSH1 0x0 CALLDATALOAD PUSH1 0xE0 SHR DUP1 PUSH4 0x715018A6 GT PUSH2 0x11A JUMPI DUP1 PUSH4 0xB5C5F672 GT PUSH2 0xAD JUMPI DUP1 PUSH4 0xD4A91E38 GT PUSH2 0x7C JUMPI DUP1 PUSH4 0xD4A91E38 EQ PUSH2 0x3EE JUMPI DUP1 PUSH4 0xDDC63262 EQ PUSH2 0x401 JUMPI DUP1 PUSH4 0xE4C5FF46 EQ PUSH2 0x414 JUMPI DUP1 PUSH4 0xF1101804 EQ PUSH2 0x427 JUMPI DUP1 PUSH4 0xF2FDE38B EQ PUSH2 0x42F JUMPI PUSH2 0x1FB JUMP JUMPDEST DUP1 PUSH4 0xB5C5F672 EQ PUSH2 0x3AD JUMPI DUP1 PUSH4 0xCC6DBC27 EQ PUSH2 0x3C0 JUMPI DUP1 PUSH4 0xD477F05F EQ PUSH2 0x3D3 JUMPI DUP1 PUSH4 0xD49E77CD EQ PUSH2 0x3E6 JUMPI PUSH2 0x1FB JUMP JUMPDEST DUP1 PUSH4 0x930ED033 GT PUSH2 0xE9 JUMPI DUP1 PUSH4 0x930ED033 EQ PUSH2 0x35C JUMPI DUP1 PUSH4 0x93F1A40B EQ PUSH2 0x36F JUMPI DUP1 PUSH4 0xA8B973A1 EQ PUSH2 0x392 JUMPI DUP1 PUSH4 0xB03DF69D EQ PUSH2 0x39A JUMPI PUSH2 0x1FB JUMP JUMPDEST DUP1 PUSH4 0x715018A6 EQ PUSH2 0x326 JUMPI DUP1 PUSH4 0x7ABCEFFD EQ PUSH2 0x32E JUMPI DUP1 PUSH4 0x8DA5CB5B EQ PUSH2 0x341 JUMPI DUP1 PUSH4 0x8DBB1E3A EQ PUSH2 0x349 JUMPI PUSH2 0x1FB JUMP JUMPDEST DUP1 PUSH4 0x2E97766D GT PUSH2 0x192 JUMPI DUP1 PUSH4 0x4ECAAC41 GT PUSH2 0x161 JUMPI DUP1 PUSH4 0x4ECAAC41 EQ PUSH2 0x2E3 JUMPI DUP1 PUSH4 0x51EB05A6 EQ PUSH2 0x2F8 JUMPI DUP1 PUSH4 0x5312EA8E EQ PUSH2 0x30B JUMPI DUP1 PUSH4 0x630B5BA1 EQ PUSH2 0x31E JUMPI PUSH2 0x1FB JUMP JUMPDEST DUP1 PUSH4 0x2E97766D EQ PUSH2 0x2AD JUMPI DUP1 PUSH4 0x46CA6BEA EQ PUSH2 0x2B5 JUMPI DUP1 PUSH4 0x48C7E528 EQ PUSH2 0x2C8 JUMPI DUP1 PUSH4 0x48CD4CB1 EQ PUSH2 0x2DB JUMPI PUSH2 0x1FB JUMP JUMPDEST DUP1 PUSH4 0x17CAF6F1 GT PUSH2 0x1CE JUMPI DUP1 PUSH4 0x17CAF6F1 EQ PUSH2 0x26A JUMPI DUP1 PUSH4 0x1AED6553 EQ PUSH2 0x272 JUMPI DUP1 PUSH4 0x1E1BFF3F EQ PUSH2 0x27A JUMPI DUP1 PUSH4 0x24CDEE22 EQ PUSH2 0x29A JUMPI PUSH2 0x1FB JUMP JUMPDEST DUP1 PUSH4 0x37C99B0 EQ PUSH2 0x200 JUMPI DUP1 PUSH4 0x81E3EDA EQ PUSH2 0x215 JUMPI DUP1 PUSH4 0xEFE6A8B EQ PUSH2 0x233 JUMPI DUP1 PUSH4 0x1526FE27 EQ PUSH2 0x246 JUMPI JUMPDEST PUSH1 0x0 DUP1 REVERT JUMPDEST PUSH2 0x213 PUSH2 0x20E CALLDATASIZE PUSH1 0x4 PUSH2 0x1EA4 JUMP JUMPDEST PUSH2 0x442 JUMP JUMPDEST STOP JUMPDEST PUSH2 0x21D PUSH2 0x4D4 JUMP JUMPDEST PUSH1 0x40 MLOAD PUSH2 0x22A SWAP2 SWAP1 PUSH2 0x246F JUMP JUMPDEST PUSH1 0x40 MLOAD DUP1 SWAP2 SUB SWAP1 RETURN JUMPDEST PUSH2 0x213 PUSH2 0x241 CALLDATASIZE PUSH1 0x4 PUSH2 0x1DBC JUMP JUMPDEST PUSH2 0x4DA JUMP JUMPDEST PUSH2 0x259 PUSH2 0x254 CALLDATASIZE PUSH1 0x4 PUSH2 0x1E0A JUMP JUMPDEST PUSH2 0x6BB JUMP JUMPDEST PUSH1 0x40 MLOAD PUSH2 0x22A SWAP6 SWAP5 SWAP4 SWAP3 SWAP2 SWAP1 PUSH2 0x1F5F JUMP JUMPDEST PUSH2 0x21D PUSH2 0x706 JUMP JUMPDEST PUSH2 0x21D PUSH2 0x70C JUMP JUMPDEST PUSH2 0x28D PUSH2 0x288 CALLDATASIZE PUSH1 0x4 PUSH2 0x1D5D JUMP JUMPDEST PUSH2 0x712 JUMP JUMPDEST PUSH1 0x40 MLOAD PUSH2 0x22A SWAP2 SWAP1 PUSH2 0x1F8D JUMP JUMPDEST PUSH2 0x21D PUSH2 0x2A8 CALLDATASIZE PUSH1 0x4 PUSH2 0x1E3A JUMP JUMPDEST PUSH2 0x781 JUMP JUMPDEST PUSH2 0x21D PUSH2 0x90B JUMP JUMPDEST PUSH2 0x213 PUSH2 0x2C3 CALLDATASIZE PUSH1 0x4 PUSH2 0x1EC5 JUMP JUMPDEST PUSH2 0x90F JUMP JUMPDEST PUSH2 0x28D PUSH2 0x2D6 CALLDATASIZE PUSH1 0x4 PUSH2 0x1D43 JUMP JUMPDEST PUSH2 0x9DF JUMP JUMPDEST PUSH2 0x21D PUSH2 0x9F4 JUMP JUMPDEST PUSH2 0x2EB PUSH2 0x9FA JUMP JUMPDEST PUSH1 0x40 MLOAD PUSH2 0x22A SWAP2 SWAP1 PUSH2 0x1F0E JUMP JUMPDEST PUSH2 0x213 PUSH2 0x306 CALLDATASIZE PUSH1 0x4 PUSH2 0x1E0A JUMP JUMPDEST PUSH2 0xA09 JUMP JUMPDEST PUSH2 0x213 PUSH2 0x319 CALLDATASIZE PUSH1 0x4 PUSH2 0x1E0A JUMP JUMPDEST PUSH2 0xCFE JUMP JUMPDEST PUSH2 0x213 PUSH2 0xDB3 JUMP JUMPDEST PUSH2 0x213 PUSH2 0xDDE JUMP JUMPDEST PUSH2 0x213 PUSH2 0x33C CALLDATASIZE PUSH1 0x4 PUSH2 0x1E65 JUMP JUMPDEST PUSH2 0xE29 JUMP JUMPDEST PUSH2 0x2EB PUSH2 0x1004 JUMP JUMPDEST PUSH2 0x21D PUSH2 0x357 CALLDATASIZE PUSH1 0x4 PUSH2 0x1EA4 JUMP JUMPDEST PUSH2 0x1013 JUMP JUMPDEST PUSH2 0x28D PUSH2 0x36A CALLDATASIZE PUSH1 0x4 PUSH2 0x1D93 JUMP JUMPDEST PUSH2 0x10A3 JUMP JUMPDEST PUSH2 0x382 PUSH2 0x37D CALLDATASIZE PUSH1 0x4 PUSH2 0x1E3A JUMP JUMPDEST PUSH2 0x1101 JUMP JUMPDEST PUSH1 0x40 MLOAD PUSH2 0x22A SWAP5 SWAP4 SWAP3 SWAP2 SWAP1 PUSH2 0x2478 JUMP JUMPDEST PUSH2 0x21D PUSH2 0x113C JUMP JUMPDEST PUSH2 0x28D PUSH2 0x3A8 CALLDATASIZE PUSH1 0x4 PUSH2 0x1D43 JUMP JUMPDEST PUSH2 0x1142 JUMP JUMPDEST PUSH2 0x213 PUSH2 0x3BB CALLDATASIZE PUSH1 0x4 PUSH2 0x1DBC JUMP JUMPDEST PUSH2 0x11C6 JUMP JUMPDEST PUSH2 0x213 PUSH2 0x3CE CALLDATASIZE PUSH1 0x4 PUSH2 0x1D93 JUMP JUMPDEST PUSH2 0x120C JUMP JUMPDEST PUSH2 0x213 PUSH2 0x3E1 CALLDATASIZE PUSH1 0x4 PUSH2 0x1D43 JUMP JUMPDEST PUSH2 0x127C JUMP JUMPDEST PUSH2 0x2EB PUSH2 0x1318 JUMP JUMPDEST PUSH2 0x213 PUSH2 0x3FC CALLDATASIZE PUSH1 0x4 PUSH2 0x1E0A JUMP JUMPDEST PUSH2 0x1327 JUMP JUMPDEST PUSH2 0x213 PUSH2 0x40F CALLDATASIZE PUSH1 0x4 PUSH2 0x1E0A JUMP JUMPDEST PUSH2 0x1399 JUMP JUMPDEST PUSH2 0x213 PUSH2 0x422 CALLDATASIZE PUSH1 0x4 PUSH2 0x1D93 JUMP JUMPDEST PUSH2 0x143C JUMP JUMPDEST PUSH2 0x21D PUSH2 0x153A JUMP JUMPDEST PUSH2 0x213 PUSH2 0x43D CALLDATASIZE PUSH1 0x4 PUSH2 0x1D43 JUMP JUMPDEST PUSH2 0x1540 JUMP JUMPDEST PUSH2 0x44A PUSH2 0x15AE JUMP JUMPDEST PUSH1 0x1 PUSH1 0x1 PUSH1 0xA0 SHL SUB AND PUSH2 0x45B PUSH2 0x1004 JUMP JUMPDEST PUSH1 0x1 PUSH1 0x1 PUSH1 0xA0 SHL SUB AND EQ PUSH2 0x48A JUMPI PUSH1 0x40 MLOAD PUSH3 0x461BCD PUSH1 0xE5 SHL DUP2 MSTORE PUSH1 0x4 ADD PUSH2 0x481 SWAP1 PUSH2 0x224B JUMP JUMPDEST PUSH1 0x40 MLOAD DUP1 SWAP2 SUB SWAP1 REVERT JUMPDEST NUMBER DUP2 GT PUSH2 0x4A9 JUMPI PUSH1 0x40 MLOAD PUSH3 0x461BCD PUSH1 0xE5 SHL DUP2 MSTORE PUSH1 0x4 ADD PUSH2 0x481 SWAP1 PUSH2 0x2011 JUMP JUMPDEST PUSH1 0x1 DUP3 GT PUSH2 0x4C9 JUMPI PUSH1 0x40 MLOAD PUSH3 0x461BCD PUSH1 0xE5 SHL DUP2 MSTORE PUSH1 0x4 ADD PUSH2 0x481 SWAP1 PUSH2 0x21D3 JUMP JUMPDEST PUSH1 0x5 SWAP2 SWAP1 SWAP2 SSTORE PUSH1 0x6 SSTORE JUMP JUMPDEST PUSH1 0x7 SLOAD SWAP1 JUMP JUMPDEST PUSH1 0x1 DUP1 PUSH1 0x0 DUP3 DUP3 SLOAD PUSH2 0x4EC SWAP2 SWAP1 PUSH2 0x249C JUMP JUMPDEST SWAP1 SWAP2 SSTORE POP POP PUSH1 0x1 SLOAD PUSH1 0x7 DUP1 SLOAD PUSH1 0x0 SWAP2 SWAP1 DUP6 SWAP1 DUP2 LT PUSH2 0x51A JUMPI PUSH4 0x4E487B71 PUSH1 0xE0 SHL PUSH1 0x0 MSTORE PUSH1 0x32 PUSH1 0x4 MSTORE PUSH1 0x24 PUSH1 0x0 REVERT JUMPDEST PUSH1 0x0 SWAP2 DUP3 MSTORE PUSH1 0x20 DUP1 DUP4 KECCAK256 DUP8 DUP5 MSTORE PUSH1 0x8 DUP3 MSTORE PUSH1 0x40 DUP1 DUP6 KECCAK256 PUSH1 0x1 PUSH1 0x1 PUSH1 0xA0 SHL SUB DUP1 DUP13 AND DUP8 MSTORE SWAP4 MSTORE SWAP1 SWAP4 KECCAK256 PUSH1 0x3 DUP2 ADD SLOAD PUSH1 0x5 SWAP1 SWAP4 MUL SWAP1 SWAP4 ADD SWAP4 POP AND ISZERO PUSH2 0x583 JUMPI PUSH1 0x3 DUP2 ADD SLOAD PUSH1 0x1 PUSH1 0x1 PUSH1 0xA0 SHL SUB AND CALLER EQ PUSH2 0x583 JUMPI PUSH1 0x40 MLOAD PUSH3 0x461BCD PUSH1 0xE5 SHL DUP2 MSTORE PUSH1 0x4 ADD PUSH2 0x481 SWAP1 PUSH2 0x22DA JUMP JUMPDEST DUP2 SLOAD PUSH1 0x1 PUSH1 0x1 PUSH1 0xA0 SHL SUB AND PUSH2 0x5AA JUMPI PUSH1 0x40 MLOAD PUSH3 0x461BCD PUSH1 0xE5 SHL DUP2 MSTORE PUSH1 0x4 ADD PUSH2 0x481 SWAP1 PUSH2 0x235E JUMP JUMPDEST PUSH2 0x5B3 DUP6 PUSH2 0xA09 JUMP JUMPDEST DUP1 SLOAD ISZERO PUSH2 0x5C4 JUMPI PUSH2 0x5C4 DUP7 DUP7 PUSH2 0x15B2 JUMP JUMPDEST PUSH1 0x3 DUP2 ADD SLOAD PUSH1 0x1 PUSH1 0x1 PUSH1 0xA0 SHL SUB AND PUSH2 0x5EB JUMPI PUSH1 0x3 DUP2 ADD DUP1 SLOAD PUSH1 0x1 PUSH1 0x1 PUSH1 0xA0 SHL SUB NOT AND CALLER OR SWAP1 SSTORE JUMPDEST DUP2 SLOAD PUSH2 0x602 SWAP1 PUSH1 0x1 PUSH1 0x1 PUSH1 0xA0 SHL SUB AND CALLER ADDRESS DUP8 PUSH2 0x1703 JUMP JUMPDEST DUP1 SLOAD PUSH2 0x60E SWAP1 DUP6 PUSH2 0x175B JUMP JUMPDEST DUP1 DUP3 SSTORE PUSH1 0x3 DUP4 ADD SLOAD PUSH2 0x631 SWAP2 PUSH5 0xE8D4A51000 SWAP2 PUSH2 0x62B SWAP2 SWAP1 PUSH2 0x178A JUMP JUMPDEST SWAP1 PUSH2 0x17CF JUMP JUMPDEST PUSH1 0x1 DUP3 ADD SSTORE PUSH1 0x4 DUP3 ADD SLOAD DUP2 SLOAD PUSH2 0x651 SWAP2 PUSH5 0xE8D4A51000 SWAP2 PUSH2 0x62B SWAP2 PUSH2 0x178A JUMP JUMPDEST PUSH1 0x2 DUP3 ADD SSTORE PUSH1 0x40 MLOAD DUP6 SWAP1 CALLER SWAP1 PUSH32 0x90890809C654F11D6E72A28FA60149770A0D11EC6C92319D6CEB2BB0A4EA1A15 SWAP1 PUSH2 0x68A SWAP1 DUP9 SWAP1 PUSH2 0x246F JUMP JUMPDEST PUSH1 0x40 MLOAD DUP1 SWAP2 SUB SWAP1 LOG3 POP POP PUSH1 0x1 SLOAD DUP2 EQ PUSH2 0x6B5 JUMPI PUSH1 0x40 MLOAD PUSH3 0x461BCD PUSH1 0xE5 SHL DUP2 MSTORE PUSH1 0x4 ADD PUSH2 0x481 SWAP1 PUSH2 0x23DF JUMP JUMPDEST POP POP POP POP JUMP JUMPDEST PUSH1 0x7 DUP2 DUP2 SLOAD DUP2 LT PUSH2 0x6CB JUMPI PUSH1 0x0 DUP1 REVERT JUMPDEST PUSH1 0x0 SWAP2 DUP3 MSTORE PUSH1 0x20 SWAP1 SWAP2 KECCAK256 PUSH1 0x5 SWAP1 SWAP2 MUL ADD DUP1 SLOAD PUSH1 0x1 DUP3 ADD SLOAD PUSH1 0x2 DUP4 ADD SLOAD PUSH1 0x3 DUP5 ADD SLOAD PUSH1 0x4 SWAP1 SWAP5 ADD SLOAD PUSH1 0x1 PUSH1 0x1 PUSH1 0xA0 SHL SUB SWAP1 SWAP4 AND SWAP5 POP SWAP1 SWAP3 SWAP1 SWAP2 DUP6 JUMP JUMPDEST PUSH1 0x9 SLOAD DUP2 JUMP JUMPDEST PUSH1 0x6 SLOAD DUP2 JUMP JUMPDEST PUSH1 0x0 PUSH2 0x71C PUSH2 0x15AE JUMP JUMPDEST PUSH1 0x1 PUSH1 0x1 PUSH1 0xA0 SHL SUB AND PUSH2 0x72D PUSH2 0x1004 JUMP JUMPDEST PUSH1 0x1 PUSH1 0x1 PUSH1 0xA0 SHL SUB AND EQ PUSH2 0x753 JUMPI PUSH1 0x40 MLOAD PUSH3 0x461BCD PUSH1 0xE5 SHL DUP2 MSTORE PUSH1 0x4 ADD PUSH2 0x481 SWAP1 PUSH2 0x224B JUMP JUMPDEST POP PUSH1 0x1 PUSH1 0x1 PUSH1 0xA0 SHL SUB DUP3 AND PUSH1 0x0 SWAP1 DUP2 MSTORE PUSH1 0xB PUSH1 0x20 MSTORE PUSH1 0x40 SWAP1 KECCAK256 DUP1 SLOAD PUSH1 0xFF NOT AND DUP3 ISZERO ISZERO OR SWAP1 SSTORE PUSH1 0x1 JUMPDEST SWAP3 SWAP2 POP POP JUMP JUMPDEST PUSH1 0x0 DUP1 PUSH1 0x7 DUP5 DUP2 SLOAD DUP2 LT PUSH2 0x7A5 JUMPI PUSH4 0x4E487B71 PUSH1 0xE0 SHL PUSH1 0x0 MSTORE PUSH1 0x32 PUSH1 0x4 MSTORE PUSH1 0x24 PUSH1 0x0 REVERT JUMPDEST PUSH1 0x0 SWAP2 DUP3 MSTORE PUSH1 0x20 DUP1 DUP4 KECCAK256 DUP8 DUP5 MSTORE PUSH1 0x8 DUP3 MSTORE PUSH1 0x40 DUP1 DUP6 KECCAK256 PUSH1 0x1 PUSH1 0x1 PUSH1 0xA0 SHL SUB DUP1 DUP11 AND DUP8 MSTORE SWAP4 MSTORE DUP1 DUP6 KECCAK256 PUSH1 0x3 PUSH1 0x5 SWAP1 SWAP6 MUL SWAP1 SWAP3 ADD SWAP4 DUP5 ADD SLOAD DUP5 SLOAD SWAP2 MLOAD PUSH4 0x70A08231 PUSH1 0xE0 SHL DUP2 MSTORE SWAP5 SWAP7 POP SWAP2 SWAP5 SWAP2 SWAP4 SWAP2 SWAP3 AND SWAP1 PUSH4 0x70A08231 SWAP1 PUSH2 0x808 SWAP1 ADDRESS SWAP1 PUSH1 0x4 ADD PUSH2 0x1F0E JUMP JUMPDEST PUSH1 0x20 PUSH1 0x40 MLOAD DUP1 DUP4 SUB DUP2 DUP7 DUP1 EXTCODESIZE ISZERO DUP1 ISZERO PUSH2 0x820 JUMPI PUSH1 0x0 DUP1 REVERT JUMPDEST POP GAS STATICCALL ISZERO DUP1 ISZERO PUSH2 0x834 JUMPI RETURNDATASIZE PUSH1 0x0 DUP1 RETURNDATACOPY RETURNDATASIZE PUSH1 0x0 REVERT JUMPDEST POP POP POP POP PUSH1 0x40 MLOAD RETURNDATASIZE PUSH1 0x1F NOT PUSH1 0x1F DUP3 ADD AND DUP3 ADD DUP1 PUSH1 0x40 MSTORE POP DUP2 ADD SWAP1 PUSH2 0x858 SWAP2 SWAP1 PUSH2 0x1E22 JUMP JUMPDEST SWAP1 POP DUP4 PUSH1 0x2 ADD SLOAD NUMBER GT DUP1 ISZERO PUSH2 0x86C JUMPI POP DUP1 ISZERO ISZERO JUMPDEST ISZERO PUSH2 0x8D2 JUMPI PUSH1 0x0 PUSH2 0x881 DUP6 PUSH1 0x2 ADD SLOAD NUMBER PUSH2 0x1013 JUMP JUMPDEST SWAP1 POP PUSH1 0x0 PUSH2 0x8AE PUSH1 0x9 SLOAD PUSH2 0x62B DUP9 PUSH1 0x1 ADD SLOAD PUSH2 0x8A8 PUSH1 0x4 SLOAD DUP8 PUSH2 0x178A SWAP1 SWAP2 SWAP1 PUSH4 0xFFFFFFFF AND JUMP JUMPDEST SWAP1 PUSH2 0x178A JUMP JUMPDEST SWAP1 POP PUSH2 0x8CD PUSH2 0x8C6 DUP5 PUSH2 0x62B DUP5 PUSH5 0xE8D4A51000 PUSH2 0x178A JUMP JUMPDEST DUP6 SWAP1 PUSH2 0x175B JUMP JUMPDEST SWAP4 POP POP POP JUMPDEST PUSH2 0x900 DUP4 PUSH1 0x1 ADD SLOAD PUSH2 0x8FA PUSH5 0xE8D4A51000 PUSH2 0x62B DUP7 DUP9 PUSH1 0x0 ADD SLOAD PUSH2 0x178A SWAP1 SWAP2 SWAP1 PUSH4 0xFFFFFFFF AND JUMP JUMPDEST SWAP1 PUSH2 0x17FA JUMP JUMPDEST SWAP8 SWAP7 POP POP POP POP POP POP POP JUMP JUMPDEST NUMBER SWAP1 JUMP JUMPDEST CALLER PUSH1 0x0 SWAP1 DUP2 MSTORE PUSH1 0xB PUSH1 0x20 MSTORE PUSH1 0x40 SWAP1 KECCAK256 SLOAD PUSH1 0xFF AND PUSH2 0x93E JUMPI PUSH1 0x40 MLOAD PUSH3 0x461BCD PUSH1 0xE5 SHL DUP2 MSTORE PUSH1 0x4 ADD PUSH2 0x481 SWAP1 PUSH2 0x207F JUMP JUMPDEST DUP1 ISZERO PUSH2 0x94C JUMPI PUSH2 0x94C PUSH2 0xDB3 JUMP JUMPDEST PUSH2 0x99D DUP3 PUSH2 0x997 PUSH1 0x7 DUP7 DUP2 SLOAD DUP2 LT PUSH2 0x974 JUMPI PUSH4 0x4E487B71 PUSH1 0xE0 SHL PUSH1 0x0 MSTORE PUSH1 0x32 PUSH1 0x4 MSTORE PUSH1 0x24 PUSH1 0x0 REVERT JUMPDEST SWAP1 PUSH1 0x0 MSTORE PUSH1 0x20 PUSH1 0x0 KECCAK256 SWAP1 PUSH1 0x5 MUL ADD PUSH1 0x1 ADD SLOAD PUSH1 0x9 SLOAD PUSH2 0x17FA SWAP1 SWAP2 SWAP1 PUSH4 0xFFFFFFFF AND JUMP JUMPDEST SWAP1 PUSH2 0x175B JUMP JUMPDEST PUSH1 0x9 DUP2 SWAP1 SSTORE POP DUP2 PUSH1 0x7 DUP5 DUP2 SLOAD DUP2 LT PUSH2 0x9C5 JUMPI PUSH4 0x4E487B71 PUSH1 0xE0 SHL PUSH1 0x0 MSTORE PUSH1 0x32 PUSH1 0x4 MSTORE PUSH1 0x24 PUSH1 0x0 REVERT JUMPDEST SWAP1 PUSH1 0x0 MSTORE PUSH1 0x20 PUSH1 0x0 KECCAK256 SWAP1 PUSH1 0x5 MUL ADD PUSH1 0x1 ADD DUP2 SWAP1 SSTORE POP POP POP POP JUMP JUMPDEST PUSH1 0xB PUSH1 0x20 MSTORE PUSH1 0x0 SWAP1 DUP2 MSTORE PUSH1 0x40 SWAP1 KECCAK256 SLOAD PUSH1 0xFF AND DUP2 JUMP JUMPDEST PUSH1 0xA SLOAD DUP2 JUMP JUMPDEST PUSH1 0x2 SLOAD PUSH1 0x1 PUSH1 0x1 PUSH1 0xA0 SHL SUB AND DUP2 JUMP JUMPDEST PUSH1 0x0 PUSH1 0x7 DUP3 DUP2 SLOAD DUP2 LT PUSH2 0xA2C JUMPI PUSH4 0x4E487B71 PUSH1 0xE0 SHL PUSH1 0x0 MSTORE PUSH1 0x32 PUSH1 0x4 MSTORE PUSH1 0x24 PUSH1 0x0 REVERT JUMPDEST SWAP1 PUSH1 0x0 MSTORE PUSH1 0x20 PUSH1 0x0 KECCAK256 SWAP1 PUSH1 0x5 MUL ADD SWAP1 POP DUP1 PUSH1 0x2 ADD SLOAD NUMBER GT PUSH2 0xA4D JUMPI POP PUSH2 0xCFB JUMP JUMPDEST DUP1 SLOAD PUSH1 0x40 MLOAD PUSH4 0x70A08231 PUSH1 0xE0 SHL DUP2 MSTORE PUSH1 0x0 SWAP2 PUSH1 0x1 PUSH1 0x1 PUSH1 0xA0 SHL SUB AND SWAP1 PUSH4 0x70A08231 SWAP1 PUSH2 0xA7D SWAP1 ADDRESS SWAP1 PUSH1 0x4 ADD PUSH2 0x1F0E JUMP JUMPDEST PUSH1 0x20 PUSH1 0x40 MLOAD DUP1 DUP4 SUB DUP2 DUP7 DUP1 EXTCODESIZE ISZERO DUP1 ISZERO PUSH2 0xA95 JUMPI PUSH1 0x0 DUP1 REVERT JUMPDEST POP GAS STATICCALL ISZERO DUP1 ISZERO PUSH2 0xAA9 JUMPI RETURNDATASIZE PUSH1 0x0 DUP1 RETURNDATACOPY RETURNDATASIZE PUSH1 0x0 REVERT JUMPDEST POP POP POP POP PUSH1 0x40 MLOAD RETURNDATASIZE PUSH1 0x1F NOT PUSH1 0x1F DUP3 ADD AND DUP3 ADD DUP1 PUSH1 0x40 MSTORE POP DUP2 ADD SWAP1 PUSH2 0xACD SWAP2 SWAP1 PUSH2 0x1E22 JUMP JUMPDEST SWAP1 POP DUP1 PUSH2 0xAE1 JUMPI POP NUMBER PUSH1 0x2 SWAP1 SWAP2 ADD SSTORE PUSH2 0xCFB JUMP JUMPDEST PUSH1 0x0 PUSH2 0xAF1 DUP4 PUSH1 0x2 ADD SLOAD NUMBER PUSH2 0x1013 JUMP JUMPDEST SWAP1 POP PUSH1 0x0 PUSH2 0xB18 PUSH1 0x9 SLOAD PUSH2 0x62B DUP7 PUSH1 0x1 ADD SLOAD PUSH2 0x8A8 PUSH1 0x4 SLOAD DUP8 PUSH2 0x178A SWAP1 SWAP2 SWAP1 PUSH4 0xFFFFFFFF AND JUMP JUMPDEST PUSH1 0x2 SLOAD PUSH1 0x3 SLOAD SWAP2 SWAP3 POP PUSH1 0x1 PUSH1 0x1 PUSH1 0xA0 SHL SUB SWAP1 DUP2 AND SWAP2 PUSH4 0x40C10F19 SWAP2 AND PUSH2 0xB44 PUSH1 0x64 PUSH2 0x62B DUP7 PUSH1 0x14 PUSH2 0x178A JUMP JUMPDEST PUSH1 0x40 MLOAD DUP4 PUSH4 0xFFFFFFFF AND PUSH1 0xE0 SHL DUP2 MSTORE PUSH1 0x4 ADD PUSH2 0xB61 SWAP3 SWAP2 SWAP1 PUSH2 0x1F46 JUMP JUMPDEST PUSH1 0x20 PUSH1 0x40 MLOAD DUP1 DUP4 SUB DUP2 PUSH1 0x0 DUP8 DUP1 EXTCODESIZE ISZERO DUP1 ISZERO PUSH2 0xB7B JUMPI PUSH1 0x0 DUP1 REVERT JUMPDEST POP GAS CALL ISZERO DUP1 ISZERO PUSH2 0xB8F JUMPI RETURNDATASIZE PUSH1 0x0 DUP1 RETURNDATACOPY RETURNDATASIZE PUSH1 0x0 REVERT JUMPDEST POP POP POP POP PUSH1 0x40 MLOAD RETURNDATASIZE PUSH1 0x1F NOT PUSH1 0x1F DUP3 ADD AND DUP3 ADD DUP1 PUSH1 0x40 MSTORE POP DUP2 ADD SWAP1 PUSH2 0xBB3 SWAP2 SWAP1 PUSH2 0x1DEE JUMP JUMPDEST POP PUSH1 0x2 SLOAD PUSH1 0x40 MLOAD PUSH4 0x40C10F19 PUSH1 0xE0 SHL DUP2 MSTORE PUSH1 0x1 PUSH1 0x1 PUSH1 0xA0 SHL SUB SWAP1 SWAP2 AND SWAP1 PUSH4 0x40C10F19 SWAP1 PUSH2 0xBE6 SWAP1 ADDRESS SWAP1 DUP6 SWAP1 PUSH1 0x4 ADD PUSH2 0x1F46 JUMP JUMPDEST PUSH1 0x20 PUSH1 0x40 MLOAD DUP1 DUP4 SUB DUP2 PUSH1 0x0 DUP8 DUP1 EXTCODESIZE ISZERO DUP1 ISZERO PUSH2 0xC00 JUMPI PUSH1 0x0 DUP1 REVERT JUMPDEST POP GAS CALL ISZERO DUP1 ISZERO PUSH2 0xC14 JUMPI RETURNDATASIZE PUSH1 0x0 DUP1 RETURNDATACOPY RETURNDATASIZE PUSH1 0x0 REVERT JUMPDEST POP POP POP POP PUSH1 0x40 MLOAD RETURNDATASIZE PUSH1 0x1F NOT PUSH1 0x1F DUP3 ADD AND DUP3 ADD DUP1 PUSH1 0x40 MSTORE POP DUP2 ADD SWAP1 PUSH2 0xC38 SWAP2 SWAP1 PUSH2 0x1DEE JUMP JUMPDEST POP PUSH2 0xC5A PUSH2 0xC4F DUP5 PUSH2 0x62B DUP5 PUSH5 0xE8D4A51000 PUSH2 0x178A JUMP JUMPDEST PUSH1 0x3 DUP7 ADD SLOAD SWAP1 PUSH2 0x175B JUMP JUMPDEST PUSH1 0x3 DUP6 ADD SSTORE PUSH1 0x6 SLOAD NUMBER GT PUSH2 0xC73 JUMPI PUSH1 0x3 DUP5 ADD SLOAD PUSH1 0x4 DUP6 ADD SSTORE JUMPDEST PUSH1 0x6 SLOAD NUMBER GT DUP1 ISZERO PUSH2 0xC89 JUMPI POP PUSH1 0x6 SLOAD DUP5 PUSH1 0x2 ADD SLOAD LT JUMPDEST ISZERO PUSH2 0xCED JUMPI PUSH1 0x0 PUSH2 0xCC3 PUSH1 0x9 SLOAD PUSH2 0x62B DUP8 PUSH1 0x1 ADD SLOAD PUSH2 0x8A8 PUSH1 0x4 SLOAD PUSH2 0x8A8 PUSH1 0x5 SLOAD PUSH2 0x8A8 DUP14 PUSH1 0x2 ADD SLOAD PUSH1 0x6 SLOAD PUSH2 0x17FA SWAP1 SWAP2 SWAP1 PUSH4 0xFFFFFFFF AND JUMP JUMPDEST SWAP1 POP PUSH2 0xCE6 PUSH2 0xCDB DUP6 PUSH2 0x62B DUP5 PUSH5 0xE8D4A51000 PUSH2 0x178A JUMP JUMPDEST PUSH1 0x4 DUP8 ADD SLOAD SWAP1 PUSH2 0x175B JUMP JUMPDEST PUSH1 0x4 DUP7 ADD SSTORE POP JUMPDEST NUMBER DUP5 PUSH1 0x2 ADD DUP2 SWAP1 SSTORE POP POP POP POP POP JUMPDEST POP JUMP JUMPDEST PUSH1 0x0 PUSH1 0x7 DUP3 DUP2 SLOAD DUP2 LT PUSH2 0xD21 JUMPI PUSH4 0x4E487B71 PUSH1 0xE0 SHL PUSH1 0x0 MSTORE PUSH1 0x32 PUSH1 0x4 MSTORE PUSH1 0x24 PUSH1 0x0 REVERT JUMPDEST PUSH1 0x0 SWAP2 DUP3 MSTORE PUSH1 0x20 DUP1 DUP4 KECCAK256 DUP6 DUP5 MSTORE PUSH1 0x8 DUP3 MSTORE PUSH1 0x40 DUP1 DUP6 KECCAK256 CALLER DUP1 DUP8 MSTORE SWAP4 MSTORE DUP5 KECCAK256 DUP1 SLOAD DUP6 DUP3 SSTORE PUSH1 0x1 DUP3 ADD SWAP6 SWAP1 SWAP6 SSTORE PUSH1 0x5 SWAP1 SWAP4 MUL ADD DUP1 SLOAD SWAP1 SWAP5 POP SWAP2 SWAP3 SWAP2 PUSH2 0xD71 SWAP2 PUSH1 0x1 PUSH1 0x1 PUSH1 0xA0 SHL SUB SWAP2 SWAP1 SWAP2 AND SWAP1 DUP4 PUSH2 0x1826 JUMP JUMPDEST DUP2 SLOAD PUSH1 0x40 MLOAD DUP6 SWAP2 CALLER SWAP2 PUSH32 0xBB757047C2B5F3974FE26B7C10F732E7BCE710B0952A71082702781E62AE0595 SWAP2 PUSH2 0xDA5 SWAP2 PUSH2 0x246F JUMP JUMPDEST PUSH1 0x40 MLOAD DUP1 SWAP2 SUB SWAP1 LOG3 POP POP POP POP JUMP JUMPDEST PUSH1 0x7 SLOAD PUSH1 0x0 JUMPDEST DUP2 DUP2 LT ISZERO PUSH2 0xDDA JUMPI PUSH2 0xDCA DUP2 PUSH2 0xA09 JUMP JUMPDEST PUSH2 0xDD3 DUP2 PUSH2 0x2536 JUMP JUMPDEST SWAP1 POP PUSH2 0xDB9 JUMP JUMPDEST POP POP JUMP JUMPDEST PUSH2 0xDE6 PUSH2 0x15AE JUMP JUMPDEST PUSH1 0x1 PUSH1 0x1 PUSH1 0xA0 SHL SUB AND PUSH2 0xDF7 PUSH2 0x1004 JUMP JUMPDEST PUSH1 0x1 PUSH1 0x1 PUSH1 0xA0 SHL SUB AND EQ PUSH2 0xE1D JUMPI PUSH1 0x40 MLOAD PUSH3 0x461BCD PUSH1 0xE5 SHL DUP2 MSTORE PUSH1 0x4 ADD PUSH2 0x481 SWAP1 PUSH2 0x224B JUMP JUMPDEST PUSH2 0xE27 PUSH1 0x0 PUSH2 0x1845 JUMP JUMPDEST JUMP JUMPDEST PUSH2 0xE31 PUSH2 0x15AE JUMP JUMPDEST PUSH1 0x1 PUSH1 0x1 PUSH1 0xA0 SHL SUB AND PUSH2 0xE42 PUSH2 0x1004 JUMP JUMPDEST PUSH1 0x1 PUSH1 0x1 PUSH1 0xA0 SHL SUB AND EQ PUSH2 0xE68 JUMPI PUSH1 0x40 MLOAD PUSH3 0x461BCD PUSH1 0xE5 SHL DUP2 MSTORE PUSH1 0x4 ADD PUSH2 0x481 SWAP1 PUSH2 0x224B JUMP JUMPDEST DUP1 ISZERO PUSH2 0xE76 JUMPI PUSH2 0xE76 PUSH2 0xDB3 JUMP JUMPDEST PUSH1 0x1 PUSH1 0x1 PUSH1 0xA0 SHL SUB DUP3 AND PUSH2 0xE9C JUMPI PUSH1 0x40 MLOAD PUSH3 0x461BCD PUSH1 0xE5 SHL DUP2 MSTORE PUSH1 0x4 ADD PUSH2 0x481 SWAP1 PUSH2 0x20E8 JUMP JUMPDEST PUSH2 0xEA5 DUP3 PUSH2 0x1142 JUMP JUMPDEST ISZERO PUSH2 0xEC2 JUMPI PUSH1 0x40 MLOAD PUSH3 0x461BCD PUSH1 0xE5 SHL DUP2 MSTORE PUSH1 0x4 ADD PUSH2 0x481 SWAP1 PUSH2 0x2442 JUMP JUMPDEST PUSH1 0x0 PUSH1 0xA SLOAD NUMBER GT PUSH2 0xED5 JUMPI PUSH1 0xA SLOAD PUSH2 0xED7 JUMP JUMPDEST NUMBER JUMPDEST PUSH1 0x9 SLOAD SWAP1 SWAP2 POP PUSH2 0xEE7 SWAP1 DUP6 PUSH2 0x175B JUMP JUMPDEST PUSH1 0x9 SSTORE PUSH1 0x40 DUP1 MLOAD PUSH1 0xA0 DUP2 ADD DUP3 MSTORE PUSH1 0x1 PUSH1 0x1 PUSH1 0xA0 SHL SUB SWAP5 DUP6 AND DUP2 MSTORE PUSH1 0x20 DUP2 ADD SWAP6 DUP7 MSTORE SWAP1 DUP2 ADD SWAP2 DUP3 MSTORE PUSH1 0x0 PUSH1 0x60 DUP3 ADD DUP2 DUP2 MSTORE PUSH1 0x80 DUP4 ADD DUP3 DUP2 MSTORE PUSH1 0x7 DUP1 SLOAD PUSH1 0x1 DUP2 ADD DUP3 SSTORE SWAP4 MSTORE SWAP3 MLOAD PUSH32 0xA66CC928B5EDB82AF9BD49922954155AB7B0942694BEA4CE44661D9A8736C688 PUSH1 0x5 SWAP1 SWAP4 MUL SWAP3 DUP4 ADD DUP1 SLOAD PUSH1 0x1 PUSH1 0x1 PUSH1 0xA0 SHL SUB NOT AND SWAP2 SWAP1 SWAP8 AND OR SWAP1 SWAP6 SSTORE SWAP5 MLOAD PUSH32 0xA66CC928B5EDB82AF9BD49922954155AB7B0942694BEA4CE44661D9A8736C689 DUP7 ADD SSTORE SWAP1 MLOAD PUSH32 0xA66CC928B5EDB82AF9BD49922954155AB7B0942694BEA4CE44661D9A8736C68A DUP6 ADD SSTORE SWAP2 MLOAD PUSH32 0xA66CC928B5EDB82AF9BD49922954155AB7B0942694BEA4CE44661D9A8736C68B DUP5 ADD SSTORE POP MLOAD PUSH32 0xA66CC928B5EDB82AF9BD49922954155AB7B0942694BEA4CE44661D9A8736C68C SWAP1 SWAP2 ADD SSTORE JUMP JUMPDEST PUSH1 0x0 SLOAD PUSH1 0x1 PUSH1 0x1 PUSH1 0xA0 SHL SUB AND SWAP1 JUMP JUMPDEST PUSH1 0x0 DUP2 DUP4 GT ISZERO PUSH2 0x1035 JUMPI PUSH1 0x40 MLOAD PUSH3 0x461BCD PUSH1 0xE5 SHL DUP2 MSTORE PUSH1 0x4 ADD PUSH2 0x481 SWAP1 PUSH2 0x22AC JUMP JUMPDEST PUSH1 0x6 SLOAD DUP3 GT PUSH2 0x1056 JUMPI PUSH1 0x5 SLOAD PUSH2 0x104F SWAP1 PUSH2 0x8A8 DUP5 DUP7 PUSH2 0x17FA JUMP JUMPDEST SWAP1 POP PUSH2 0x77B JUMP JUMPDEST PUSH1 0x6 SLOAD DUP4 LT PUSH2 0x1069 JUMPI PUSH2 0x104F DUP3 DUP5 PUSH2 0x17FA JUMP JUMPDEST PUSH2 0x109C PUSH2 0x1081 PUSH1 0x6 SLOAD DUP5 PUSH2 0x17FA SWAP1 SWAP2 SWAP1 PUSH4 0xFFFFFFFF AND JUMP JUMPDEST PUSH2 0x997 PUSH1 0x5 SLOAD PUSH2 0x8A8 DUP8 PUSH1 0x6 SLOAD PUSH2 0x17FA SWAP1 SWAP2 SWAP1 PUSH4 0xFFFFFFFF AND JUMP JUMPDEST SWAP4 SWAP3 POP POP POP JUMP JUMPDEST PUSH1 0x0 PUSH2 0x10AD PUSH2 0x15AE JUMP JUMPDEST PUSH1 0x1 PUSH1 0x1 PUSH1 0xA0 SHL SUB AND PUSH2 0x10BE PUSH2 0x1004 JUMP JUMPDEST PUSH1 0x1 PUSH1 0x1 PUSH1 0xA0 SHL SUB AND EQ PUSH2 0x10E4 JUMPI PUSH1 0x40 MLOAD PUSH3 0x461BCD PUSH1 0xE5 SHL DUP2 MSTORE PUSH1 0x4 ADD PUSH2 0x481 SWAP1 PUSH2 0x224B JUMP JUMPDEST PUSH2 0x10F8 PUSH1 0x1 PUSH1 0x1 PUSH1 0xA0 SHL SUB DUP5 AND CALLER DUP5 PUSH2 0x1826 JUMP JUMPDEST POP PUSH1 0x1 SWAP3 SWAP2 POP POP JUMP JUMPDEST PUSH1 0x8 PUSH1 0x20 SWAP1 DUP2 MSTORE PUSH1 0x0 SWAP3 DUP4 MSTORE PUSH1 0x40 DUP1 DUP5 KECCAK256 SWAP1 SWAP2 MSTORE SWAP1 DUP3 MSTORE SWAP1 KECCAK256 DUP1 SLOAD PUSH1 0x1 DUP3 ADD SLOAD PUSH1 0x2 DUP4 ADD SLOAD PUSH1 0x3 SWAP1 SWAP4 ADD SLOAD SWAP2 SWAP3 SWAP1 SWAP2 PUSH1 0x1 PUSH1 0x1 PUSH1 0xA0 SHL SUB AND DUP5 JUMP JUMPDEST PUSH1 0x5 SLOAD DUP2 JUMP JUMPDEST PUSH1 0x7 SLOAD PUSH1 0x0 SWAP1 DUP2 JUMPDEST DUP2 DUP2 LT ISZERO PUSH2 0x11BA JUMPI DUP4 PUSH1 0x1 PUSH1 0x1 PUSH1 0xA0 SHL SUB AND PUSH1 0x7 DUP3 DUP2 SLOAD DUP2 LT PUSH2 0x117D JUMPI PUSH4 0x4E487B71 PUSH1 0xE0 SHL PUSH1 0x0 MSTORE PUSH1 0x32 PUSH1 0x4 MSTORE PUSH1 0x24 PUSH1 0x0 REVERT JUMPDEST PUSH1 0x0 SWAP2 DUP3 MSTORE PUSH1 0x20 SWAP1 SWAP2 KECCAK256 PUSH1 0x5 SWAP1 SWAP2 MUL ADD SLOAD PUSH1 0x1 PUSH1 0x1 PUSH1 0xA0 SHL SUB AND EQ ISZERO PUSH2 0x11A8 JUMPI PUSH1 0x1 SWAP3 POP POP POP PUSH2 0x11C1 JUMP JUMPDEST DUP1 PUSH2 0x11B2 DUP2 PUSH2 0x2536 JUMP JUMPDEST SWAP2 POP POP PUSH2 0x114A JUMP JUMPDEST POP PUSH1 0x0 SWAP2 POP POP JUMPDEST SWAP2 SWAP1 POP JUMP JUMPDEST PUSH1 0x1 DUP1 PUSH1 0x0 DUP3 DUP3 SLOAD PUSH2 0x11D8 SWAP2 SWAP1 PUSH2 0x249C JUMP JUMPDEST SWAP1 SWAP2 SSTORE POP POP PUSH1 0x1 SLOAD PUSH2 0x11EB DUP5 DUP5 DUP5 PUSH2 0x1895 JUMP JUMPDEST PUSH1 0x1 SLOAD DUP2 EQ PUSH2 0x6B5 JUMPI PUSH1 0x40 MLOAD PUSH3 0x461BCD PUSH1 0xE5 SHL DUP2 MSTORE PUSH1 0x4 ADD PUSH2 0x481 SWAP1 PUSH2 0x23DF JUMP JUMPDEST PUSH1 0x1 DUP1 PUSH1 0x0 DUP3 DUP3 SLOAD PUSH2 0x121E SWAP2 SWAP1 PUSH2 0x249C JUMP JUMPDEST SWAP1 SWAP2 SSTORE POP POP PUSH1 0x1 SLOAD PUSH1 0x0 DUP3 DUP2 MSTORE PUSH1 0x8 PUSH1 0x20 SWAP1 DUP2 MSTORE PUSH1 0x40 DUP1 DUP4 KECCAK256 PUSH1 0x1 PUSH1 0x1 PUSH1 0xA0 SHL SUB DUP8 AND DUP5 MSTORE SWAP1 SWAP2 MSTORE SWAP1 KECCAK256 SLOAD PUSH2 0x1256 SWAP1 DUP5 SWAP1 DUP5 SWAP1 PUSH2 0x1895 JUMP JUMPDEST PUSH1 0x1 SLOAD DUP2 EQ PUSH2 0x1277 JUMPI PUSH1 0x40 MLOAD PUSH3 0x461BCD PUSH1 0xE5 SHL DUP2 MSTORE PUSH1 0x4 ADD PUSH2 0x481 SWAP1 PUSH2 0x23DF JUMP JUMPDEST POP POP POP JUMP JUMPDEST PUSH2 0x1284 PUSH2 0x15AE JUMP JUMPDEST PUSH1 0x1 PUSH1 0x1 PUSH1 0xA0 SHL SUB AND PUSH2 0x1295 PUSH2 0x1004 JUMP JUMPDEST PUSH1 0x1 PUSH1 0x1 PUSH1 0xA0 SHL SUB AND EQ PUSH2 0x12BB JUMPI PUSH1 0x40 MLOAD PUSH3 0x461BCD PUSH1 0xE5 SHL DUP2 MSTORE PUSH1 0x4 ADD PUSH2 0x481 SWAP1 PUSH2 0x224B JUMP JUMPDEST PUSH1 0x1 PUSH1 0x1 PUSH1 0xA0 SHL SUB DUP2 AND PUSH2 0x12CE JUMPI PUSH1 0x0 DUP1 REVERT JUMPDEST PUSH1 0x3 DUP1 SLOAD PUSH1 0x1 PUSH1 0x1 PUSH1 0xA0 SHL SUB NOT AND PUSH1 0x1 PUSH1 0x1 PUSH1 0xA0 SHL SUB DUP4 AND SWAP1 DUP2 OR SWAP1 SWAP2 SSTORE PUSH1 0x40 MLOAD PUSH32 0xF5721DFA6DDBF8E4A2CD38B2152FFF4008050B9B37DE59AE1E022DDE4BD5DF73 SWAP1 PUSH1 0x0 SWAP1 LOG2 POP JUMP JUMPDEST PUSH1 0x3 SLOAD PUSH1 0x1 PUSH1 0x1 PUSH1 0xA0 SHL SUB AND DUP2 JUMP JUMPDEST PUSH2 0x132F PUSH2 0x15AE JUMP JUMPDEST PUSH1 0x1 PUSH1 0x1 PUSH1 0xA0 SHL SUB AND PUSH2 0x1340 PUSH2 0x1004 JUMP JUMPDEST PUSH1 0x1 PUSH1 0x1 PUSH1 0xA0 SHL SUB AND EQ PUSH2 0x1366 JUMPI PUSH1 0x40 MLOAD PUSH3 0x461BCD PUSH1 0xE5 SHL DUP2 MSTORE PUSH1 0x4 ADD PUSH2 0x481 SWAP1 PUSH2 0x224B JUMP JUMPDEST PUSH1 0x4 DUP2 SWAP1 SSTORE PUSH1 0x40 MLOAD DUP2 SWAP1 PUSH32 0x45C280C0EE21A223BF57BA9B47035CDA586D0472889FCF81D6ECF95A72FBF64 SWAP1 PUSH1 0x0 SWAP1 LOG2 POP JUMP JUMPDEST PUSH1 0x0 PUSH1 0x7 DUP3 DUP2 SLOAD DUP2 LT PUSH2 0x13BC JUMPI PUSH4 0x4E487B71 PUSH1 0xE0 SHL PUSH1 0x0 MSTORE PUSH1 0x32 PUSH1 0x4 MSTORE PUSH1 0x24 PUSH1 0x0 REVERT JUMPDEST PUSH1 0x0 SWAP2 DUP3 MSTORE PUSH1 0x20 DUP1 DUP4 KECCAK256 DUP6 DUP5 MSTORE PUSH1 0x8 DUP3 MSTORE PUSH1 0x40 DUP1 DUP6 KECCAK256 CALLER DUP7 MSTORE SWAP1 SWAP3 MSTORE SWAP3 KECCAK256 PUSH1 0x5 SWAP1 SWAP2 MUL SWAP1 SWAP2 ADD SWAP2 POP PUSH2 0x13ED DUP4 PUSH2 0xA09 JUMP JUMPDEST PUSH2 0x13F7 CALLER DUP5 PUSH2 0x15B2 JUMP JUMPDEST PUSH1 0x3 DUP3 ADD SLOAD DUP2 SLOAD PUSH2 0x1412 SWAP2 PUSH5 0xE8D4A51000 SWAP2 PUSH2 0x62B SWAP2 PUSH2 0x178A JUMP JUMPDEST PUSH1 0x1 DUP3 ADD SSTORE PUSH1 0x4 DUP3 ADD SLOAD DUP2 SLOAD PUSH2 0x1432 SWAP2 PUSH5 0xE8D4A51000 SWAP2 PUSH2 0x62B SWAP2 PUSH2 0x178A JUMP JUMPDEST PUSH1 0x2 SWAP1 SWAP2 ADD SSTORE POP POP JUMP JUMPDEST PUSH2 0x1444 PUSH2 0x15AE JUMP JUMPDEST PUSH1 0x1 PUSH1 0x1 PUSH1 0xA0 SHL SUB AND PUSH2 0x1455 PUSH2 0x1004 JUMP JUMPDEST PUSH1 0x1 PUSH1 0x1 PUSH1 0xA0 SHL SUB AND EQ PUSH2 0x147B JUMPI PUSH1 0x40 MLOAD PUSH3 0x461BCD PUSH1 0xE5 SHL DUP2 MSTORE PUSH1 0x4 ADD PUSH2 0x481 SWAP1 PUSH2 0x224B JUMP JUMPDEST PUSH1 0x2 SLOAD PUSH1 0x40 MLOAD PUSH4 0x40C10F19 PUSH1 0xE0 SHL DUP2 MSTORE PUSH1 0x1 PUSH1 0x1 PUSH1 0xA0 SHL SUB SWAP1 SWAP2 AND SWAP1 PUSH4 0x40C10F19 SWAP1 PUSH2 0x14AD SWAP1 DUP6 SWAP1 DUP6 SWAP1 PUSH1 0x4 ADD PUSH2 0x1F46 JUMP JUMPDEST PUSH1 0x20 PUSH1 0x40 MLOAD DUP1 DUP4 SUB DUP2 PUSH1 0x0 DUP8 DUP1 EXTCODESIZE ISZERO DUP1 ISZERO PUSH2 0x14C7 JUMPI PUSH1 0x0 DUP1 REVERT JUMPDEST POP GAS CALL ISZERO DUP1 ISZERO PUSH2 0x14DB JUMPI RETURNDATASIZE PUSH1 0x0 DUP1 RETURNDATACOPY RETURNDATASIZE PUSH1 0x0 REVERT JUMPDEST POP POP POP POP PUSH1 0x40 MLOAD RETURNDATASIZE PUSH1 0x1F NOT PUSH1 0x1F DUP3 ADD AND DUP3 ADD DUP1 PUSH1 0x40 MSTORE POP DUP2 ADD SWAP1 PUSH2 0x14FF SWAP2 SWAP1 PUSH2 0x1DEE JUMP JUMPDEST POP PUSH1 0x40 MLOAD DUP2 SWAP1 PUSH1 0x1 PUSH1 0x1 PUSH1 0xA0 SHL SUB DUP5 AND SWAP1 PUSH32 0x5A513126CBC10DDE78A9844543BD609B2C5B0F4169CECB81F0378F00FA2BDBF0 SWAP1 PUSH1 0x0 SWAP1 LOG3 POP POP JUMP JUMPDEST PUSH1 0x4 SLOAD DUP2 JUMP JUMPDEST PUSH2 0x1548 PUSH2 0x15AE JUMP JUMPDEST PUSH1 0x1 PUSH1 0x1 PUSH1 0xA0 SHL SUB AND PUSH2 0x1559 PUSH2 0x1004 JUMP JUMPDEST PUSH1 0x1 PUSH1 0x1 PUSH1 0xA0 SHL SUB AND EQ PUSH2 0x157F JUMPI PUSH1 0x40 MLOAD PUSH3 0x461BCD PUSH1 0xE5 SHL DUP2 MSTORE PUSH1 0x4 ADD PUSH2 0x481 SWAP1 PUSH2 0x224B JUMP JUMPDEST PUSH1 0x1 PUSH1 0x1 PUSH1 0xA0 SHL SUB DUP2 AND PUSH2 0x15A5 JUMPI PUSH1 0x40 MLOAD PUSH3 0x461BCD PUSH1 0xE5 SHL DUP2 MSTORE PUSH1 0x4 ADD PUSH2 0x481 SWAP1 PUSH2 0x1FCB JUMP JUMPDEST PUSH2 0xCFB DUP2 PUSH2 0x1845 JUMP JUMPDEST CALLER SWAP1 JUMP JUMPDEST PUSH1 0x0 PUSH1 0x7 DUP3 DUP2 SLOAD DUP2 LT PUSH2 0x15D5 JUMPI PUSH4 0x4E487B71 PUSH1 0xE0 SHL PUSH1 0x0 MSTORE PUSH1 0x32 PUSH1 0x4 MSTORE PUSH1 0x24 PUSH1 0x0 REVERT JUMPDEST PUSH1 0x0 SWAP2 DUP3 MSTORE PUSH1 0x20 DUP1 DUP4 KECCAK256 DUP6 DUP5 MSTORE PUSH1 0x8 DUP3 MSTORE PUSH1 0x40 DUP1 DUP6 KECCAK256 PUSH1 0x1 PUSH1 0x1 PUSH1 0xA0 SHL SUB DUP10 AND DUP7 MSTORE SWAP1 SWAP3 MSTORE SWAP3 KECCAK256 DUP1 SLOAD PUSH1 0x5 SWAP1 SWAP3 MUL SWAP1 SWAP3 ADD SWAP3 POP PUSH2 0x1624 JUMPI PUSH1 0x40 MLOAD PUSH3 0x461BCD PUSH1 0xE5 SHL DUP2 MSTORE PUSH1 0x4 ADD PUSH2 0x481 SWAP1 PUSH2 0x2416 JUMP JUMPDEST PUSH1 0x0 PUSH2 0x1652 DUP3 PUSH1 0x1 ADD SLOAD PUSH2 0x8FA PUSH5 0xE8D4A51000 PUSH2 0x62B DUP8 PUSH1 0x3 ADD SLOAD DUP8 PUSH1 0x0 ADD SLOAD PUSH2 0x178A SWAP1 SWAP2 SWAP1 PUSH4 0xFFFFFFFF AND JUMP JUMPDEST PUSH1 0x2 SLOAD PUSH1 0x40 MLOAD PUSH4 0x70A08231 PUSH1 0xE0 SHL DUP2 MSTORE SWAP2 SWAP3 POP PUSH1 0x1 PUSH1 0x1 PUSH1 0xA0 SHL SUB AND SWAP1 PUSH4 0x70A08231 SWAP1 PUSH2 0x1683 SWAP1 ADDRESS SWAP1 PUSH1 0x4 ADD PUSH2 0x1F0E JUMP JUMPDEST PUSH1 0x20 PUSH1 0x40 MLOAD DUP1 DUP4 SUB DUP2 DUP7 DUP1 EXTCODESIZE ISZERO DUP1 ISZERO PUSH2 0x169B JUMPI PUSH1 0x0 DUP1 REVERT JUMPDEST POP GAS STATICCALL ISZERO DUP1 ISZERO PUSH2 0x16AF JUMPI RETURNDATASIZE PUSH1 0x0 DUP1 RETURNDATACOPY RETURNDATASIZE PUSH1 0x0 REVERT JUMPDEST POP POP POP POP PUSH1 0x40 MLOAD RETURNDATASIZE PUSH1 0x1F NOT PUSH1 0x1F DUP3 ADD AND DUP3 ADD DUP1 PUSH1 0x40 MSTORE POP DUP2 ADD SWAP1 PUSH2 0x16D3 SWAP2 SWAP1 PUSH2 0x1E22 JUMP JUMPDEST DUP2 GT ISZERO PUSH2 0x16F2 JUMPI PUSH1 0x40 MLOAD PUSH3 0x461BCD PUSH1 0xE5 SHL DUP2 MSTORE PUSH1 0x4 ADD PUSH2 0x481 SWAP1 PUSH2 0x2280 JUMP JUMPDEST PUSH2 0x16FC DUP6 DUP3 PUSH2 0x19F9 JUMP JUMPDEST POP POP POP POP POP JUMP JUMPDEST PUSH2 0x6B5 DUP5 PUSH4 0x23B872DD PUSH1 0xE0 SHL DUP6 DUP6 DUP6 PUSH1 0x40 MLOAD PUSH1 0x24 ADD PUSH2 0x1724 SWAP4 SWAP3 SWAP2 SWAP1 PUSH2 0x1F22 JUMP JUMPDEST PUSH1 0x40 DUP1 MLOAD PUSH1 0x1F NOT DUP2 DUP5 SUB ADD DUP2 MSTORE SWAP2 SWAP1 MSTORE PUSH1 0x20 DUP2 ADD DUP1 MLOAD PUSH1 0x1 PUSH1 0x1 PUSH1 0xE0 SHL SUB AND PUSH1 0x1 PUSH1 0x1 PUSH1 0xE0 SHL SUB NOT SWAP1 SWAP4 AND SWAP3 SWAP1 SWAP3 OR SWAP1 SWAP2 MSTORE PUSH2 0x1B92 JUMP JUMPDEST PUSH1 0x0 DUP1 PUSH2 0x1768 DUP4 DUP6 PUSH2 0x249C JUMP JUMPDEST SWAP1 POP DUP4 DUP2 LT ISZERO PUSH2 0x109C JUMPI PUSH1 0x40 MLOAD PUSH3 0x461BCD PUSH1 0xE5 SHL DUP2 MSTORE PUSH1 0x4 ADD PUSH2 0x481 SWAP1 PUSH2 0x2048 JUMP JUMPDEST PUSH1 0x0 DUP3 PUSH2 0x1799 JUMPI POP PUSH1 0x0 PUSH2 0x77B JUMP JUMPDEST PUSH1 0x0 PUSH2 0x17A5 DUP4 DUP6 PUSH2 0x24D4 JUMP JUMPDEST SWAP1 POP DUP3 PUSH2 0x17B2 DUP6 DUP4 PUSH2 0x24B4 JUMP JUMPDEST EQ PUSH2 0x109C JUMPI PUSH1 0x40 MLOAD PUSH3 0x461BCD PUSH1 0xE5 SHL DUP2 MSTORE PUSH1 0x4 ADD PUSH2 0x481 SWAP1 PUSH2 0x220A JUMP JUMPDEST PUSH1 0x0 DUP1 DUP3 GT PUSH2 0x17F0 JUMPI PUSH1 0x40 MLOAD PUSH3 0x461BCD PUSH1 0xE5 SHL DUP2 MSTORE PUSH1 0x4 ADD PUSH2 0x481 SWAP1 PUSH2 0x219C JUMP JUMPDEST PUSH2 0x109C DUP3 DUP5 PUSH2 0x24B4 JUMP JUMPDEST PUSH1 0x0 DUP3 DUP3 GT ISZERO PUSH2 0x181C JUMPI PUSH1 0x40 MLOAD PUSH3 0x461BCD PUSH1 0xE5 SHL DUP2 MSTORE PUSH1 0x4 ADD PUSH2 0x481 SWAP1 PUSH2 0x211F JUMP JUMPDEST PUSH2 0x109C DUP3 DUP5 PUSH2 0x24F3 JUMP JUMPDEST PUSH2 0x1277 DUP4 PUSH4 0xA9059CBB PUSH1 0xE0 SHL DUP5 DUP5 PUSH1 0x40 MLOAD PUSH1 0x24 ADD PUSH2 0x1724 SWAP3 SWAP2 SWAP1 PUSH2 0x1F46 JUMP JUMPDEST PUSH1 0x0 DUP1 SLOAD PUSH1 0x1 PUSH1 0x1 PUSH1 0xA0 SHL SUB DUP4 DUP2 AND PUSH1 0x1 PUSH1 0x1 PUSH1 0xA0 SHL SUB NOT DUP4 AND DUP2 OR DUP5 SSTORE PUSH1 0x40 MLOAD SWAP2 SWAP1 SWAP3 AND SWAP3 DUP4 SWAP2 PUSH32 0x8BE0079C531659141344CD1FD0A4F28419497F9722A3DAAFE3B4186F6B6457E0 SWAP2 SWAP1 LOG3 POP POP JUMP JUMPDEST PUSH1 0x0 PUSH1 0x7 DUP4 DUP2 SLOAD DUP2 LT PUSH2 0x18B8 JUMPI PUSH4 0x4E487B71 PUSH1 0xE0 SHL PUSH1 0x0 MSTORE PUSH1 0x32 PUSH1 0x4 MSTORE PUSH1 0x24 PUSH1 0x0 REVERT JUMPDEST PUSH1 0x0 SWAP2 DUP3 MSTORE PUSH1 0x20 DUP1 DUP4 KECCAK256 DUP7 DUP5 MSTORE PUSH1 0x8 DUP3 MSTORE PUSH1 0x40 DUP1 DUP6 KECCAK256 PUSH1 0x1 PUSH1 0x1 PUSH1 0xA0 SHL SUB DUP1 DUP12 AND DUP8 MSTORE SWAP4 MSTORE SWAP1 SWAP4 KECCAK256 PUSH1 0x3 DUP2 ADD SLOAD PUSH1 0x5 SWAP1 SWAP4 MUL SWAP1 SWAP4 ADD SWAP4 POP AND CALLER EQ PUSH2 0x190E JUMPI PUSH1 0x40 MLOAD PUSH3 0x461BCD PUSH1 0xE5 SHL DUP2 MSTORE PUSH1 0x4 ADD PUSH2 0x481 SWAP1 PUSH2 0x20C3 JUMP JUMPDEST DUP1 SLOAD DUP4 GT ISZERO PUSH2 0x192F JUMPI PUSH1 0x40 MLOAD PUSH3 0x461BCD PUSH1 0xE5 SHL DUP2 MSTORE PUSH1 0x4 ADD PUSH2 0x481 SWAP1 PUSH2 0x2332 JUMP JUMPDEST PUSH2 0x1938 DUP5 PUSH2 0xA09 JUMP JUMPDEST PUSH2 0x1942 DUP6 DUP6 PUSH2 0x15B2 JUMP JUMPDEST DUP1 SLOAD PUSH2 0x194E SWAP1 DUP5 PUSH2 0x17FA JUMP JUMPDEST DUP1 DUP3 SSTORE PUSH1 0x3 DUP4 ADD SLOAD PUSH2 0x196B SWAP2 PUSH5 0xE8D4A51000 SWAP2 PUSH2 0x62B SWAP2 SWAP1 PUSH2 0x178A JUMP JUMPDEST PUSH1 0x1 DUP3 ADD SSTORE PUSH1 0x4 DUP3 ADD SLOAD DUP2 SLOAD PUSH2 0x198B SWAP2 PUSH5 0xE8D4A51000 SWAP2 PUSH2 0x62B SWAP2 PUSH2 0x178A JUMP JUMPDEST PUSH1 0x2 DUP3 ADD SSTORE DUP2 SLOAD PUSH1 0x1 PUSH1 0x1 PUSH1 0xA0 SHL SUB AND ISZERO PUSH2 0x19B6 JUMPI DUP2 SLOAD PUSH2 0x19B6 SWAP1 PUSH1 0x1 PUSH1 0x1 PUSH1 0xA0 SHL SUB AND CALLER DUP6 PUSH2 0x1826 JUMP JUMPDEST DUP1 SLOAD PUSH1 0x40 MLOAD DUP6 SWAP2 CALLER SWAP2 PUSH32 0xF279E6A1F5E320CCA91135676D9CB6E44CA8A08C0B88342BCDB1144F6511B568 SWAP2 PUSH2 0x19EA SWAP2 PUSH2 0x246F JUMP JUMPDEST PUSH1 0x40 MLOAD DUP1 SWAP2 SUB SWAP1 LOG3 POP POP POP POP POP JUMP JUMPDEST PUSH1 0x2 SLOAD PUSH1 0x40 MLOAD PUSH4 0x70A08231 PUSH1 0xE0 SHL DUP2 MSTORE PUSH1 0x0 SWAP2 PUSH1 0x1 PUSH1 0x1 PUSH1 0xA0 SHL SUB AND SWAP1 PUSH4 0x70A08231 SWAP1 PUSH2 0x1A2A SWAP1 ADDRESS SWAP1 PUSH1 0x4 ADD PUSH2 0x1F0E JUMP JUMPDEST PUSH1 0x20 PUSH1 0x40 MLOAD DUP1 DUP4 SUB DUP2 DUP7 DUP1 EXTCODESIZE ISZERO DUP1 ISZERO PUSH2 0x1A42 JUMPI PUSH1 0x0 DUP1 REVERT JUMPDEST POP GAS STATICCALL ISZERO DUP1 ISZERO PUSH2 0x1A56 JUMPI RETURNDATASIZE PUSH1 0x0 DUP1 RETURNDATACOPY RETURNDATASIZE PUSH1 0x0 REVERT JUMPDEST POP POP POP POP PUSH1 0x40 MLOAD RETURNDATASIZE PUSH1 0x1F NOT PUSH1 0x1F DUP3 ADD AND DUP3 ADD DUP1 PUSH1 0x40 MSTORE POP DUP2 ADD SWAP1 PUSH2 0x1A7A SWAP2 SWAP1 PUSH2 0x1E22 JUMP JUMPDEST SWAP1 POP DUP1 DUP3 GT ISZERO PUSH2 0x1B0E JUMPI PUSH1 0x2 SLOAD PUSH1 0x40 MLOAD PUSH4 0xA9059CBB PUSH1 0xE0 SHL DUP2 MSTORE PUSH1 0x1 PUSH1 0x1 PUSH1 0xA0 SHL SUB SWAP1 SWAP2 AND SWAP1 PUSH4 0xA9059CBB SWAP1 PUSH2 0x1AB6 SWAP1 DUP7 SWAP1 DUP6 SWAP1 PUSH1 0x4 ADD PUSH2 0x1F46 JUMP JUMPDEST PUSH1 0x20 PUSH1 0x40 MLOAD DUP1 DUP4 SUB DUP2 PUSH1 0x0 DUP8 DUP1 EXTCODESIZE ISZERO DUP1 ISZERO PUSH2 0x1AD0 JUMPI PUSH1 0x0 DUP1 REVERT JUMPDEST POP GAS CALL ISZERO DUP1 ISZERO PUSH2 0x1AE4 JUMPI RETURNDATASIZE PUSH1 0x0 DUP1 RETURNDATACOPY RETURNDATASIZE PUSH1 0x0 REVERT JUMPDEST POP POP POP POP PUSH1 0x40 MLOAD RETURNDATASIZE PUSH1 0x1F NOT PUSH1 0x1F DUP3 ADD AND DUP3 ADD DUP1 PUSH1 0x40 MSTORE POP DUP2 ADD SWAP1 PUSH2 0x1B08 SWAP2 SWAP1 PUSH2 0x1DEE JUMP JUMPDEST POP PUSH2 0x1277 JUMP JUMPDEST PUSH1 0x2 SLOAD PUSH1 0x40 MLOAD PUSH4 0xA9059CBB PUSH1 0xE0 SHL DUP2 MSTORE PUSH1 0x1 PUSH1 0x1 PUSH1 0xA0 SHL SUB SWAP1 SWAP2 AND SWAP1 PUSH4 0xA9059CBB SWAP1 PUSH2 0x1B40 SWAP1 DUP7 SWAP1 DUP7 SWAP1 PUSH1 0x4 ADD PUSH2 0x1F46 JUMP JUMPDEST PUSH1 0x20 PUSH1 0x40 MLOAD DUP1 DUP4 SUB DUP2 PUSH1 0x0 DUP8 DUP1 EXTCODESIZE ISZERO DUP1 ISZERO PUSH2 0x1B5A JUMPI PUSH1 0x0 DUP1 REVERT JUMPDEST POP GAS CALL ISZERO DUP1 ISZERO PUSH2 0x1B6E JUMPI RETURNDATASIZE PUSH1 0x0 DUP1 RETURNDATACOPY RETURNDATASIZE PUSH1 0x0 REVERT JUMPDEST POP POP POP POP PUSH1 0x40 MLOAD RETURNDATASIZE PUSH1 0x1F NOT PUSH1 0x1F DUP3 ADD AND DUP3 ADD DUP1 PUSH1 0x40 MSTORE POP DUP2 ADD SWAP1 PUSH2 0x6B5 SWAP2 SWAP1 PUSH2 0x1DEE JUMP JUMPDEST PUSH1 0x0 PUSH2 0x1BE7 DUP3 PUSH1 0x40 MLOAD DUP1 PUSH1 0x40 ADD PUSH1 0x40 MSTORE DUP1 PUSH1 0x20 DUP2 MSTORE PUSH1 0x20 ADD PUSH32 0x5361666545524332303A206C6F772D6C6576656C2063616C6C206661696C6564 DUP2 MSTORE POP DUP6 PUSH1 0x1 PUSH1 0x1 PUSH1 0xA0 SHL SUB AND PUSH2 0x1C21 SWAP1 SWAP3 SWAP2 SWAP1 PUSH4 0xFFFFFFFF AND JUMP JUMPDEST DUP1 MLOAD SWAP1 SWAP2 POP ISZERO PUSH2 0x1277 JUMPI DUP1 DUP1 PUSH1 0x20 ADD SWAP1 MLOAD DUP2 ADD SWAP1 PUSH2 0x1C05 SWAP2 SWAP1 PUSH2 0x1DEE JUMP JUMPDEST PUSH2 0x1277 JUMPI PUSH1 0x40 MLOAD PUSH3 0x461BCD PUSH1 0xE5 SHL DUP2 MSTORE PUSH1 0x4 ADD PUSH2 0x481 SWAP1 PUSH2 0x2395 JUMP JUMPDEST PUSH1 0x60 PUSH2 0x1C30 DUP5 DUP5 PUSH1 0x0 DUP6 PUSH2 0x1C38 JUMP JUMPDEST SWAP5 SWAP4 POP POP POP POP JUMP JUMPDEST PUSH1 0x60 DUP3 SELFBALANCE LT ISZERO PUSH2 0x1C5A JUMPI PUSH1 0x40 MLOAD PUSH3 0x461BCD PUSH1 0xE5 SHL DUP2 MSTORE PUSH1 0x4 ADD PUSH2 0x481 SWAP1 PUSH2 0x2156 JUMP JUMPDEST PUSH2 0x1C63 DUP6 PUSH2 0x1CED JUMP JUMPDEST PUSH2 0x1C7F JUMPI PUSH1 0x40 MLOAD PUSH3 0x461BCD PUSH1 0xE5 SHL DUP2 MSTORE PUSH1 0x4 ADD PUSH2 0x481 SWAP1 PUSH2 0x22FB JUMP JUMPDEST PUSH1 0x0 DUP1 DUP7 PUSH1 0x1 PUSH1 0x1 PUSH1 0xA0 SHL SUB AND DUP6 DUP8 PUSH1 0x40 MLOAD PUSH2 0x1C9B SWAP2 SWAP1 PUSH2 0x1EF2 JUMP JUMPDEST PUSH1 0x0 PUSH1 0x40 MLOAD DUP1 DUP4 SUB DUP2 DUP6 DUP8 GAS CALL SWAP3 POP POP POP RETURNDATASIZE DUP1 PUSH1 0x0 DUP2 EQ PUSH2 0x1CD8 JUMPI PUSH1 0x40 MLOAD SWAP2 POP PUSH1 0x1F NOT PUSH1 0x3F RETURNDATASIZE ADD AND DUP3 ADD PUSH1 0x40 MSTORE RETURNDATASIZE DUP3 MSTORE RETURNDATASIZE PUSH1 0x0 PUSH1 0x20 DUP5 ADD RETURNDATACOPY PUSH2 0x1CDD JUMP JUMPDEST PUSH1 0x60 SWAP2 POP JUMPDEST POP SWAP2 POP SWAP2 POP PUSH2 0x900 DUP3 DUP3 DUP7 PUSH2 0x1CF3 JUMP JUMPDEST EXTCODESIZE ISZERO ISZERO SWAP1 JUMP JUMPDEST PUSH1 0x60 DUP4 ISZERO PUSH2 0x1D02 JUMPI POP DUP2 PUSH2 0x109C JUMP JUMPDEST DUP3 MLOAD ISZERO PUSH2 0x1D12 JUMPI DUP3 MLOAD DUP1 DUP5 PUSH1 0x20 ADD REVERT JUMPDEST DUP2 PUSH1 0x40 MLOAD PUSH3 0x461BCD PUSH1 0xE5 SHL DUP2 MSTORE PUSH1 0x4 ADD PUSH2 0x481 SWAP2 SWAP1 PUSH2 0x1F98 JUMP JUMPDEST DUP1 CALLDATALOAD PUSH1 0x1 PUSH1 0x1 PUSH1 0xA0 SHL SUB DUP2 AND DUP2 EQ PUSH2 0x11C1 JUMPI PUSH1 0x0 DUP1 REVERT JUMPDEST PUSH1 0x0 PUSH1 0x20 DUP3 DUP5 SUB SLT ISZERO PUSH2 0x1D54 JUMPI DUP1 DUP2 REVERT JUMPDEST PUSH2 0x109C DUP3 PUSH2 0x1D2C JUMP JUMPDEST PUSH1 0x0 DUP1 PUSH1 0x40 DUP4 DUP6 SUB SLT ISZERO PUSH2 0x1D6F JUMPI DUP1 DUP2 REVERT JUMPDEST PUSH2 0x1D78 DUP4 PUSH2 0x1D2C JUMP JUMPDEST SWAP2 POP PUSH1 0x20 DUP4 ADD CALLDATALOAD PUSH2 0x1D88 DUP2 PUSH2 0x2567 JUMP JUMPDEST DUP1 SWAP2 POP POP SWAP3 POP SWAP3 SWAP1 POP JUMP JUMPDEST PUSH1 0x0 DUP1 PUSH1 0x40 DUP4 DUP6 SUB SLT ISZERO PUSH2 0x1DA5 JUMPI DUP2 DUP3 REVERT JUMPDEST PUSH2 0x1DAE DUP4 PUSH2 0x1D2C JUMP JUMPDEST SWAP5 PUSH1 0x20 SWAP4 SWAP1 SWAP4 ADD CALLDATALOAD SWAP4 POP POP POP JUMP JUMPDEST PUSH1 0x0 DUP1 PUSH1 0x0 PUSH1 0x60 DUP5 DUP7 SUB SLT ISZERO PUSH2 0x1DD0 JUMPI DUP1 DUP2 REVERT JUMPDEST PUSH2 0x1DD9 DUP5 PUSH2 0x1D2C JUMP JUMPDEST SWAP6 PUSH1 0x20 DUP6 ADD CALLDATALOAD SWAP6 POP PUSH1 0x40 SWAP1 SWAP5 ADD CALLDATALOAD SWAP4 SWAP3 POP POP POP JUMP JUMPDEST PUSH1 0x0 PUSH1 0x20 DUP3 DUP5 SUB SLT ISZERO PUSH2 0x1DFF JUMPI DUP1 DUP2 REVERT JUMPDEST DUP2 MLOAD PUSH2 0x109C DUP2 PUSH2 0x2567 JUMP JUMPDEST PUSH1 0x0 PUSH1 0x20 DUP3 DUP5 SUB SLT ISZERO PUSH2 0x1E1B JUMPI DUP1 DUP2 REVERT JUMPDEST POP CALLDATALOAD SWAP2 SWAP1 POP JUMP JUMPDEST PUSH1 0x0 PUSH1 0x20 DUP3 DUP5 SUB SLT ISZERO PUSH2 0x1E33 JUMPI DUP1 DUP2 REVERT JUMPDEST POP MLOAD SWAP2 SWAP1 POP JUMP JUMPDEST PUSH1 0x0 DUP1 PUSH1 0x40 DUP4 DUP6 SUB SLT ISZERO PUSH2 0x1E4C JUMPI DUP2 DUP3 REVERT JUMPDEST DUP3 CALLDATALOAD SWAP2 POP PUSH2 0x1E5C PUSH1 0x20 DUP5 ADD PUSH2 0x1D2C JUMP JUMPDEST SWAP1 POP SWAP3 POP SWAP3 SWAP1 POP JUMP JUMPDEST PUSH1 0x0 DUP1 PUSH1 0x0 PUSH1 0x60 DUP5 DUP7 SUB SLT ISZERO PUSH2 0x1E79 JUMPI DUP3 DUP4 REVERT JUMPDEST DUP4 CALLDATALOAD SWAP3 POP PUSH2 0x1E89 PUSH1 0x20 DUP6 ADD PUSH2 0x1D2C JUMP JUMPDEST SWAP2 POP PUSH1 0x40 DUP5 ADD CALLDATALOAD PUSH2 0x1E99 DUP2 PUSH2 0x2567 JUMP JUMPDEST DUP1 SWAP2 POP POP SWAP3 POP SWAP3 POP SWAP3 JUMP JUMPDEST PUSH1 0x0 DUP1 PUSH1 0x40 DUP4 DUP6 SUB SLT ISZERO PUSH2 0x1EB6 JUMPI DUP2 DUP3 REVERT JUMPDEST POP POP DUP1 CALLDATALOAD SWAP3 PUSH1 0x20 SWAP1 SWAP2 ADD CALLDATALOAD SWAP2 POP JUMP JUMPDEST PUSH1 0x0 DUP1 PUSH1 0x0 PUSH1 0x60 DUP5 DUP7 SUB SLT ISZERO PUSH2 0x1ED9 JUMPI DUP3 DUP4 REVERT JUMPDEST DUP4 CALLDATALOAD SWAP3 POP PUSH1 0x20 DUP5 ADD CALLDATALOAD SWAP2 POP PUSH1 0x40 DUP5 ADD CALLDATALOAD PUSH2 0x1E99 DUP2 PUSH2 0x2567 JUMP JUMPDEST PUSH1 0x0 DUP3 MLOAD PUSH2 0x1F04 DUP2 DUP5 PUSH1 0x20 DUP8 ADD PUSH2 0x250A JUMP JUMPDEST SWAP2 SWAP1 SWAP2 ADD SWAP3 SWAP2 POP POP JUMP JUMPDEST PUSH1 0x1 PUSH1 0x1 PUSH1 0xA0 SHL SUB SWAP2 SWAP1 SWAP2 AND DUP2 MSTORE PUSH1 0x20 ADD SWAP1 JUMP JUMPDEST PUSH1 0x1 PUSH1 0x1 PUSH1 0xA0 SHL SUB SWAP4 DUP5 AND DUP2 MSTORE SWAP2 SWAP1 SWAP3 AND PUSH1 0x20 DUP3 ADD MSTORE PUSH1 0x40 DUP2 ADD SWAP2 SWAP1 SWAP2 MSTORE PUSH1 0x60 ADD SWAP1 JUMP JUMPDEST PUSH1 0x1 PUSH1 0x1 PUSH1 0xA0 SHL SUB SWAP3 SWAP1 SWAP3 AND DUP3 MSTORE PUSH1 0x20 DUP3 ADD MSTORE PUSH1 0x40 ADD SWAP1 JUMP JUMPDEST PUSH1 0x1 PUSH1 0x1 PUSH1 0xA0 SHL SUB SWAP6 SWAP1 SWAP6 AND DUP6 MSTORE PUSH1 0x20 DUP6 ADD SWAP4 SWAP1 SWAP4 MSTORE PUSH1 0x40 DUP5 ADD SWAP2 SWAP1 SWAP2 MSTORE PUSH1 0x60 DUP4 ADD MSTORE PUSH1 0x80 DUP3 ADD MSTORE PUSH1 0xA0 ADD SWAP1 JUMP JUMPDEST SWAP1 ISZERO ISZERO DUP2 MSTORE PUSH1 0x20 ADD SWAP1 JUMP JUMPDEST PUSH1 0x0 PUSH1 0x20 DUP3 MSTORE DUP3 MLOAD DUP1 PUSH1 0x20 DUP5 ADD MSTORE PUSH2 0x1FB7 DUP2 PUSH1 0x40 DUP6 ADD PUSH1 0x20 DUP8 ADD PUSH2 0x250A JUMP JUMPDEST PUSH1 0x1F ADD PUSH1 0x1F NOT AND SWAP2 SWAP1 SWAP2 ADD PUSH1 0x40 ADD SWAP3 SWAP2 POP POP JUMP JUMPDEST PUSH1 0x20 DUP1 DUP3 MSTORE PUSH1 0x26 SWAP1 DUP3 ADD MSTORE PUSH32 0x4F776E61626C653A206E6577206F776E657220697320746865207A65726F2061 PUSH1 0x40 DUP3 ADD MSTORE PUSH6 0x646472657373 PUSH1 0xD0 SHL PUSH1 0x60 DUP3 ADD MSTORE PUSH1 0x80 ADD SWAP1 JUMP JUMPDEST PUSH1 0x20 DUP1 DUP3 MSTORE PUSH1 0x1B SWAP1 DUP3 ADD MSTORE PUSH32 0x736574426F6E75733A2062616420626F6E7573456E64426C6F636B0000000000 PUSH1 0x40 DUP3 ADD MSTORE PUSH1 0x60 ADD SWAP1 JUMP JUMPDEST PUSH1 0x20 DUP1 DUP3 MSTORE PUSH1 0x1B SWAP1 DUP3 ADD MSTORE PUSH32 0x536166654D6174683A206164646974696F6E206F766572666C6F770000000000 PUSH1 0x40 DUP3 ADD MSTORE PUSH1 0x60 ADD SWAP1 JUMP JUMPDEST PUSH1 0x20 DUP1 DUP3 MSTORE PUSH1 0x24 SWAP1 DUP3 ADD MSTORE PUSH32 0x6578656375746F723A2063616C6C6572206973206E6F74207468652065786563 PUSH1 0x40 DUP3 ADD MSTORE PUSH4 0x3ABA37B9 PUSH1 0xE1 SHL PUSH1 0x60 DUP3 ADD MSTORE PUSH1 0x80 ADD SWAP1 JUMP JUMPDEST PUSH1 0x20 DUP1 DUP3 MSTORE PUSH1 0xB SWAP1 DUP3 ADD MSTORE PUSH11 0x37B7363C90333AB73232B9 PUSH1 0xA9 SHL PUSH1 0x40 DUP3 ADD MSTORE PUSH1 0x60 ADD SWAP1 JUMP JUMPDEST PUSH1 0x20 DUP1 DUP3 MSTORE PUSH1 0x18 SWAP1 DUP3 ADD MSTORE PUSH32 0x6164643A206E6F74207374616B65546F6B656E20616464720000000000000000 PUSH1 0x40 DUP3 ADD MSTORE PUSH1 0x60 ADD SWAP1 JUMP JUMPDEST PUSH1 0x20 DUP1 DUP3 MSTORE PUSH1 0x1E SWAP1 DUP3 ADD MSTORE PUSH32 0x536166654D6174683A207375627472616374696F6E206F766572666C6F770000 PUSH1 0x40 DUP3 ADD MSTORE PUSH1 0x60 ADD SWAP1 JUMP JUMPDEST PUSH1 0x20 DUP1 DUP3 MSTORE PUSH1 0x26 SWAP1 DUP3 ADD MSTORE PUSH32 0x416464726573733A20696E73756666696369656E742062616C616E636520666F PUSH1 0x40 DUP3 ADD MSTORE PUSH6 0x1C8818D85B1B PUSH1 0xD2 SHL PUSH1 0x60 DUP3 ADD MSTORE PUSH1 0x80 ADD SWAP1 JUMP JUMPDEST PUSH1 0x20 DUP1 DUP3 MSTORE PUSH1 0x1A SWAP1 DUP3 ADD MSTORE PUSH32 0x536166654D6174683A206469766973696F6E206279207A65726F000000000000 PUSH1 0x40 DUP3 ADD MSTORE PUSH1 0x60 ADD SWAP1 JUMP JUMPDEST PUSH1 0x20 DUP1 DUP3 MSTORE PUSH1 0x1D SWAP1 DUP3 ADD MSTORE PUSH32 0x736574426F6E75733A2062616420626F6E75734D756C7469706C696572000000 PUSH1 0x40 DUP3 ADD MSTORE PUSH1 0x60 ADD SWAP1 JUMP JUMPDEST PUSH1 0x20 DUP1 DUP3 MSTORE PUSH1 0x21 SWAP1 DUP3 ADD MSTORE PUSH32 0x536166654D6174683A206D756C7469706C69636174696F6E206F766572666C6F PUSH1 0x40 DUP3 ADD MSTORE PUSH1 0x77 PUSH1 0xF8 SHL PUSH1 0x60 DUP3 ADD MSTORE PUSH1 0x80 ADD SWAP1 JUMP JUMPDEST PUSH1 0x20 DUP1 DUP3 MSTORE DUP2 DUP2 ADD MSTORE PUSH32 0x4F776E61626C653A2063616C6C6572206973206E6F7420746865206F776E6572 PUSH1 0x40 DUP3 ADD MSTORE PUSH1 0x60 ADD SWAP1 JUMP JUMPDEST PUSH1 0x20 DUP1 DUP3 MSTORE PUSH1 0x12 SWAP1 DUP3 ADD MSTORE PUSH18 0x777466206E6F7420656E6F75676820536561 PUSH1 0x70 SHL PUSH1 0x40 DUP3 ADD MSTORE PUSH1 0x60 ADD SWAP1 JUMP JUMPDEST PUSH1 0x20 DUP1 DUP3 MSTORE PUSH1 0x14 SWAP1 DUP3 ADD MSTORE PUSH20 0x109B1BD8DAC81C985B99D948195E18D959591959 PUSH1 0x62 SHL PUSH1 0x40 DUP3 ADD MSTORE PUSH1 0x60 ADD SWAP1 JUMP JUMPDEST PUSH1 0x20 DUP1 DUP3 MSTORE PUSH1 0x7 SWAP1 DUP3 ADD MSTORE PUSH7 0x3130B21039B7B3 PUSH1 0xC9 SHL PUSH1 0x40 DUP3 ADD MSTORE PUSH1 0x60 ADD SWAP1 JUMP JUMPDEST PUSH1 0x20 DUP1 DUP3 MSTORE PUSH1 0x1D SWAP1 DUP3 ADD MSTORE PUSH32 0x416464726573733A2063616C6C20746F206E6F6E2D636F6E7472616374000000 PUSH1 0x40 DUP3 ADD MSTORE PUSH1 0x60 ADD SWAP1 JUMP JUMPDEST PUSH1 0x20 DUP1 DUP3 MSTORE PUSH1 0x12 SWAP1 DUP3 ADD MSTORE PUSH18 0x1DDA5D1A191C985DCE881B9BDD0819DBDBD9 PUSH1 0x72 SHL PUSH1 0x40 DUP3 ADD MSTORE PUSH1 0x60 ADD SWAP1 JUMP JUMPDEST PUSH1 0x20 DUP1 DUP3 MSTORE PUSH1 0x1B SWAP1 DUP3 ADD MSTORE PUSH32 0x6465706F7369743A206E6F7420616363657074206465706F7369740000000000 PUSH1 0x40 DUP3 ADD MSTORE PUSH1 0x60 ADD SWAP1 JUMP JUMPDEST PUSH1 0x20 DUP1 DUP3 MSTORE PUSH1 0x2A SWAP1 DUP3 ADD MSTORE PUSH32 0x5361666545524332303A204552433230206F7065726174696F6E20646964206E PUSH1 0x40 DUP3 ADD MSTORE PUSH10 0x1BDD081CDD58D8D95959 PUSH1 0xB2 SHL PUSH1 0x60 DUP3 ADD MSTORE PUSH1 0x80 ADD SWAP1 JUMP JUMPDEST PUSH1 0x20 DUP1 DUP3 MSTORE PUSH1 0x1F SWAP1 DUP3 ADD MSTORE PUSH32 0x5265656E7472616E637947756172643A207265656E7472616E742063616C6C00 PUSH1 0x40 DUP3 ADD MSTORE PUSH1 0x60 ADD SWAP1 JUMP JUMPDEST PUSH1 0x20 DUP1 DUP3 MSTORE PUSH1 0x12 SWAP1 DUP3 ADD MSTORE PUSH18 0x1B9BDD1A1A5B99C81D1BC81A185C9D995CDD PUSH1 0x72 SHL PUSH1 0x40 DUP3 ADD MSTORE PUSH1 0x60 ADD SWAP1 JUMP JUMPDEST PUSH1 0x20 DUP1 DUP3 MSTORE PUSH1 0x13 SWAP1 DUP3 ADD MSTORE PUSH19 0x6164643A207374616B65546F6B656E2064757 PUSH1 0x6C SHL PUSH1 0x40 DUP3 ADD MSTORE PUSH1 0x60 ADD SWAP1 JUMP JUMPDEST SWAP1 DUP2 MSTORE PUSH1 0x20 ADD SWAP1 JUMP JUMPDEST SWAP4 DUP5 MSTORE PUSH1 0x20 DUP5 ADD SWAP3 SWAP1 SWAP3 MSTORE PUSH1 0x40 DUP4 ADD MSTORE PUSH1 0x1 PUSH1 0x1 PUSH1 0xA0 SHL SUB AND PUSH1 0x60 DUP3 ADD MSTORE PUSH1 0x80 ADD SWAP1 JUMP JUMPDEST PUSH1 0x0 DUP3 NOT DUP3 GT ISZERO PUSH2 0x24AF JUMPI PUSH2 0x24AF PUSH2 0x2551 JUMP JUMPDEST POP ADD SWAP1 JUMP JUMPDEST PUSH1 0x0 DUP3 PUSH2 0x24CF JUMPI PUSH4 0x4E487B71 PUSH1 0xE0 SHL DUP2 MSTORE PUSH1 0x12 PUSH1 0x4 MSTORE PUSH1 0x24 DUP2 REVERT JUMPDEST POP DIV SWAP1 JUMP JUMPDEST PUSH1 0x0 DUP2 PUSH1 0x0 NOT DIV DUP4 GT DUP3 ISZERO ISZERO AND ISZERO PUSH2 0x24EE JUMPI PUSH2 0x24EE PUSH2 0x2551 JUMP JUMPDEST POP MUL SWAP1 JUMP JUMPDEST PUSH1 0x0 DUP3 DUP3 LT ISZERO PUSH2 0x2505 JUMPI PUSH2 0x2505 PUSH2 0x2551 JUMP JUMPDEST POP SUB SWAP1 JUMP JUMPDEST PUSH1 0x0 JUMPDEST DUP4 DUP2 LT ISZERO PUSH2 0x2525 JUMPI DUP2 DUP2 ADD MLOAD DUP4 DUP3 ADD MSTORE PUSH1 0x20 ADD PUSH2 0x250D JUMP JUMPDEST DUP4 DUP2 GT ISZERO PUSH2 0x6B5 JUMPI POP POP PUSH1 0x0 SWAP2 ADD MSTORE JUMP JUMPDEST PUSH1 0x0 PUSH1 0x0 NOT DUP3 EQ ISZERO PUSH2 0x254A JUMPI PUSH2 0x254A PUSH2 0x2551 JUMP JUMPDEST POP PUSH1 0x1 ADD SWAP1 JUMP JUMPDEST PUSH4 0x4E487B71 PUSH1 0xE0 SHL PUSH1 0x0 MSTORE PUSH1 0x11 PUSH1 0x4 MSTORE PUSH1 0x24 PUSH1 0x0 REVERT JUMPDEST DUP1 ISZERO ISZERO DUP2 EQ PUSH2 0xCFB JUMPI PUSH1 0x0 DUP1 REVERT INVALID LOG2 PUSH5 0x6970667358 0x22 SLT KECCAK256 PUSH8 0x8195DBC01BD6B569 0xBA SDIV 0xE9 SELFBALANCE 0xAA 0xBA 0xC1 0x49 0xE DUP3 SWAP7 SELFBALANCE INVALID 0xAD ISZERO 0xCE SHR SWAP16 0xEF 0xE6 0xD7 0x5C SWAP3 PUSH5 0x736F6C6343 STOP ADDMOD STOP STOP CALLER "
				},
				"gasEstimates": {
					"creation": {
						"codeDepositCost": "1928600",
						"executionCost": "infinite",
						"totalCost": "infinite"
					},
					"external": {
						"addPool(uint256,address,bool)": "infinite",
						"bonusEndBlock()": "1096",
						"bonusMultiplier()": "1117",
						"deposit(address,uint256,uint256)": "infinite",
						"devaddr()": "1181",
						"emergencyWithdraw(uint256)": "infinite",
						"executor(address)": "1354",
						"getBlock()": "273",
						"getMultiplier(uint256,uint256)": "infinite",
						"harvest(uint256)": "infinite",
						"isDuplicatedPool(address)": "infinite",
						"manualMint(address,uint256)": "infinite",
						"massUpdatePools()": "infinite",
						"owner()": "1160",
						"pendingSea(uint256,address)": "infinite",
						"poolInfo(uint256)": "5515",
						"poolLength()": "1097",
						"renounceOwnership()": "23550",
						"sea()": "1115",
						"seaPerBlock()": "1138",
						"setBonus(uint256,uint256)": "41281",
						"setDev(address)": "23364",
						"setExecutor(address,bool)": "22431",
						"setPool(uint256,uint256,bool)": "infinite",
						"setSeaPerBlock(uint256)": "22355",
						"startBlock()": "1140",
						"totalAllocPoint()": "1074",
						"transferOwnership(address)": "23831",
						"updatePool(uint256)": "infinite",
						"userInfo(uint256,address)": "3961",
						"withdraw(address,uint256,uint256)": "infinite",
						"withdrawAll(address,uint256)": "infinite",
						"withdrawalERC20(address,uint256)": "infinite"
					},
					"internal": {
						"_harvest(address,uint256)": "infinite",
						"_withdraw(address,uint256,uint256)": "infinite",
						"safeSeaTransfer(address,uint256)": "infinite"
					}
				},
				"methodIdentifiers": {
					"addPool(uint256,address,bool)": "7abceffd",
					"bonusEndBlock()": "1aed6553",
					"bonusMultiplier()": "a8b973a1",
					"deposit(address,uint256,uint256)": "0efe6a8b",
					"devaddr()": "d49e77cd",
					"emergencyWithdraw(uint256)": "5312ea8e",
					"executor(address)": "48c7e528",
					"getBlock()": "2e97766d",
					"getMultiplier(uint256,uint256)": "8dbb1e3a",
					"harvest(uint256)": "ddc63262",
					"isDuplicatedPool(address)": "b03df69d",
					"manualMint(address,uint256)": "e4c5ff46",
					"massUpdatePools()": "630b5ba1",
					"owner()": "8da5cb5b",
					"pendingSea(uint256,address)": "24cdee22",
					"poolInfo(uint256)": "1526fe27",
					"poolLength()": "081e3eda",
					"renounceOwnership()": "715018a6",
					"sea()": "4ecaac41",
					"seaPerBlock()": "f1101804",
					"setBonus(uint256,uint256)": "037c99b0",
					"setDev(address)": "d477f05f",
					"setExecutor(address,bool)": "1e1bff3f",
					"setPool(uint256,uint256,bool)": "46ca6bea",
					"setSeaPerBlock(uint256)": "d4a91e38",
					"startBlock()": "48cd4cb1",
					"totalAllocPoint()": "17caf6f1",
					"transferOwnership(address)": "f2fde38b",
					"updatePool(uint256)": "51eb05a6",
					"userInfo(uint256,address)": "93f1a40b",
					"withdraw(address,uint256,uint256)": "b5c5f672",
					"withdrawAll(address,uint256)": "cc6dbc27",
					"withdrawalERC20(address,uint256)": "930ed033"
				}
			},
			"storageLayout": {
				"storage": [
					{
						"astId": 7,
						"contract": "contracts/farm.sol:FairLaunch",
						"label": "_owner",
						"offset": 0,
						"slot": "0",
						"type": "t_address"
					},
					{
						"astId": 1069,
						"contract": "contracts/farm.sol:FairLaunch",
						"label": "_guardCounter",
						"offset": 0,
						"slot": "1",
						"type": "t_uint256"
					},
					{
						"astId": 1214,
						"contract": "contracts/farm.sol:FairLaunch",
						"label": "sea",
						"offset": 0,
						"slot": "2",
						"type": "t_address"
					},
					{
						"astId": 1216,
						"contract": "contracts/farm.sol:FairLaunch",
						"label": "devaddr",
						"offset": 0,
						"slot": "3",
						"type": "t_address"
					},
					{
						"astId": 1218,
						"contract": "contracts/farm.sol:FairLaunch",
						"label": "seaPerBlock",
						"offset": 0,
						"slot": "4",
						"type": "t_uint256"
					},
					{
						"astId": 1220,
						"contract": "contracts/farm.sol:FairLaunch",
						"label": "bonusMultiplier",
						"offset": 0,
						"slot": "5",
						"type": "t_uint256"
					},
					{
						"astId": 1222,
						"contract": "contracts/farm.sol:FairLaunch",
						"label": "bonusEndBlock",
						"offset": 0,
						"slot": "6",
						"type": "t_uint256"
					},
					{
						"astId": 1226,
						"contract": "contracts/farm.sol:FairLaunch",
						"label": "poolInfo",
						"offset": 0,
						"slot": "7",
						"type": "t_array(t_struct(PoolInfo)1212_storage)dyn_storage"
					},
					{
						"astId": 1233,
						"contract": "contracts/farm.sol:FairLaunch",
						"label": "userInfo",
						"offset": 0,
						"slot": "8",
						"type": "t_mapping(t_uint256,t_mapping(t_address,t_struct(UserInfo)1201_storage))"
					},
					{
						"astId": 1235,
						"contract": "contracts/farm.sol:FairLaunch",
						"label": "totalAllocPoint",
						"offset": 0,
						"slot": "9",
						"type": "t_uint256"
					},
					{
						"astId": 1237,
						"contract": "contracts/farm.sol:FairLaunch",
						"label": "startBlock",
						"offset": 0,
						"slot": "10",
						"type": "t_uint256"
					},
					{
						"astId": 1241,
						"contract": "contracts/farm.sol:FairLaunch",
						"label": "executor",
						"offset": 0,
						"slot": "11",
						"type": "t_mapping(t_address,t_bool)"
					}
				],
				"types": {
					"t_address": {
						"encoding": "inplace",
						"label": "address",
						"numberOfBytes": "20"
					},
					"t_array(t_struct(PoolInfo)1212_storage)dyn_storage": {
						"base": "t_struct(PoolInfo)1212_storage",
						"encoding": "dynamic_array",
						"label": "struct FairLaunch.PoolInfo[]",
						"numberOfBytes": "32"
					},
					"t_bool": {
						"encoding": "inplace",
						"label": "bool",
						"numberOfBytes": "1"
					},
					"t_mapping(t_address,t_bool)": {
						"encoding": "mapping",
						"key": "t_address",
						"label": "mapping(address => bool)",
						"numberOfBytes": "32",
						"value": "t_bool"
					},
					"t_mapping(t_address,t_struct(UserInfo)1201_storage)": {
						"encoding": "mapping",
						"key": "t_address",
						"label": "mapping(address => struct FairLaunch.UserInfo)",
						"numberOfBytes": "32",
						"value": "t_struct(UserInfo)1201_storage"
					},
					"t_mapping(t_uint256,t_mapping(t_address,t_struct(UserInfo)1201_storage))": {
						"encoding": "mapping",
						"key": "t_uint256",
						"label": "mapping(uint256 => mapping(address => struct FairLaunch.UserInfo))",
						"numberOfBytes": "32",
						"value": "t_mapping(t_address,t_struct(UserInfo)1201_storage)"
					},
					"t_struct(PoolInfo)1212_storage": {
						"encoding": "inplace",
						"label": "struct FairLaunch.PoolInfo",
						"members": [
							{
								"astId": 1203,
								"contract": "contracts/farm.sol:FairLaunch",
								"label": "stakeToken",
								"offset": 0,
								"slot": "0",
								"type": "t_address"
							},
							{
								"astId": 1205,
								"contract": "contracts/farm.sol:FairLaunch",
								"label": "allocPoint",
								"offset": 0,
								"slot": "1",
								"type": "t_uint256"
							},
							{
								"astId": 1207,
								"contract": "contracts/farm.sol:FairLaunch",
								"label": "lastRewardBlock",
								"offset": 0,
								"slot": "2",
								"type": "t_uint256"
							},
							{
								"astId": 1209,
								"contract": "contracts/farm.sol:FairLaunch",
								"label": "accSeaPerShare",
								"offset": 0,
								"slot": "3",
								"type": "t_uint256"
							},
							{
								"astId": 1211,
								"contract": "contracts/farm.sol:FairLaunch",
								"label": "accSeaPerShareTilBonusEnd",
								"offset": 0,
								"slot": "4",
								"type": "t_uint256"
							}
						],
						"numberOfBytes": "160"
					},
					"t_struct(UserInfo)1201_storage": {
						"encoding": "inplace",
						"label": "struct FairLaunch.UserInfo",
						"members": [
							{
								"astId": 1194,
								"contract": "contracts/farm.sol:FairLaunch",
								"label": "amount",
								"offset": 0,
								"slot": "0",
								"type": "t_uint256"
							},
							{
								"astId": 1196,
								"contract": "contracts/farm.sol:FairLaunch",
								"label": "rewardDebt",
								"offset": 0,
								"slot": "1",
								"type": "t_uint256"
							},
							{
								"astId": 1198,
								"contract": "contracts/farm.sol:FairLaunch",
								"label": "bonusDebt",
								"offset": 0,
								"slot": "2",
								"type": "t_uint256"
							},
							{
								"astId": 1200,
								"contract": "contracts/farm.sol:FairLaunch",
								"label": "fundedBy",
								"offset": 0,
								"slot": "3",
								"type": "t_address"
							}
						],
						"numberOfBytes": "128"
					},
					"t_uint256": {
						"encoding": "inplace",
						"label": "uint256",
						"numberOfBytes": "32"
					}
				}
			},
			"userdoc": {
				"kind": "user",
				"methods": {},
				"version": 1
			}
		}
	}
}