{
	"contracts/farm.sol": {
		"FairLaunch": {
			"abi": [
				{
					"inputs": [
						{
							"internalType": "address",
							"name": "_sea",
							"type": "address"
						},
						{
							"internalType": "address",
							"name": "_devaddr",
							"type": "address"
						},
						{
							"internalType": "uint256",
							"name": "_seaPerBlock",
							"type": "uint256"
						},
						{
							"internalType": "uint256",
							"name": "_startBlock",
							"type": "uint256"
						},
						{
							"internalType": "uint256",
							"name": "_bonusEndBlock",
							"type": "uint256"
						}
					],
					"stateMutability": "nonpayable",
					"type": "constructor"
				},
				{
					"anonymous": false,
					"inputs": [
						{
							"indexed": true,
							"internalType": "address",
							"name": "user",
							"type": "address"
						},
						{
							"indexed": true,
							"internalType": "uint256",
							"name": "pid",
							"type": "uint256"
						},
						{
							"indexed": false,
							"internalType": "uint256",
							"name": "amount",
							"type": "uint256"
						}
					],
					"name": "Deposit",
					"type": "event"
				},
				{
					"anonymous": false,
					"inputs": [
						{
							"indexed": true,
							"internalType": "address",
							"name": "user",
							"type": "address"
						},
						{
							"indexed": true,
							"internalType": "uint256",
							"name": "pid",
							"type": "uint256"
						},
						{
							"indexed": false,
							"internalType": "uint256",
							"name": "amount",
							"type": "uint256"
						}
					],
					"name": "EmergencyWithdraw",
					"type": "event"
				},
				{
					"anonymous": false,
					"inputs": [
						{
							"indexed": true,
							"internalType": "address",
							"name": "to",
							"type": "address"
						},
						{
							"indexed": true,
							"internalType": "uint256",
							"name": "amount",
							"type": "uint256"
						}
					],
					"name": "ManualMint",
					"type": "event"
				},
				{
					"anonymous": false,
					"inputs": [
						{
							"indexed": true,
							"internalType": "address",
							"name": "previousOwner",
							"type": "address"
						},
						{
							"indexed": true,
							"internalType": "address",
							"name": "newOwner",
							"type": "address"
						}
					],
					"name": "OwnershipTransferred",
					"type": "event"
				},
				{
					"anonymous": false,
					"inputs": [
						{
							"indexed": true,
							"internalType": "address",
							"name": "devAddr",
							"type": "address"
						}
					],
					"name": "SetDevAddress",
					"type": "event"
				},
				{
					"anonymous": false,
					"inputs": [
						{
							"indexed": true,
							"internalType": "uint256",
							"name": "seaPerBlock",
							"type": "uint256"
						}
					],
					"name": "SetSeaPerBlock",
					"type": "event"
				},
				{
					"anonymous": false,
					"inputs": [
						{
							"indexed": true,
							"internalType": "address",
							"name": "user",
							"type": "address"
						},
						{
							"indexed": true,
							"internalType": "uint256",
							"name": "pid",
							"type": "uint256"
						},
						{
							"indexed": false,
							"internalType": "uint256",
							"name": "amount",
							"type": "uint256"
						}
					],
					"name": "Withdraw",
					"type": "event"
				},
				{
					"inputs": [
						{
							"internalType": "uint256",
							"name": "_allocPoint",
							"type": "uint256"
						},
						{
							"internalType": "address",
							"name": "_stakeToken",
							"type": "address"
						},
						{
							"internalType": "bool",
							"name": "_withUpdate",
							"type": "bool"
						}
					],
					"name": "addPool",
					"outputs": [],
					"stateMutability": "nonpayable",
					"type": "function"
				},
				{
					"inputs": [],
					"name": "bonusEndBlock",
					"outputs": [
						{
							"internalType": "uint256",
							"name": "",
							"type": "uint256"
						}
					],
					"stateMutability": "view",
					"type": "function"
				},
				{
					"inputs": [],
					"name": "bonusMultiplier",
					"outputs": [
						{
							"internalType": "uint256",
							"name": "",
							"type": "uint256"
						}
					],
					"stateMutability": "view",
					"type": "function"
				},
				{
					"inputs": [
						{
							"internalType": "address",
							"name": "_for",
							"type": "address"
						},
						{
							"internalType": "uint256",
							"name": "_pid",
							"type": "uint256"
						},
						{
							"internalType": "uint256",
							"name": "_amount",
							"type": "uint256"
						}
					],
					"name": "deposit",
					"outputs": [],
					"stateMutability": "nonpayable",
					"type": "function"
				},
				{
					"inputs": [],
					"name": "devaddr",
					"outputs": [
						{
							"internalType": "address",
							"name": "",
							"type": "address"
						}
					],
					"stateMutability": "view",
					"type": "function"
				},
				{
					"inputs": [
						{
							"internalType": "uint256",
							"name": "_pid",
							"type": "uint256"
						}
					],
					"name": "emergencyWithdraw",
					"outputs": [],
					"stateMutability": "nonpayable",
					"type": "function"
				},
				{
					"inputs": [
						{
							"internalType": "address",
							"name": "",
							"type": "address"
						}
					],
					"name": "executor",
					"outputs": [
						{
							"internalType": "bool",
							"name": "",
							"type": "bool"
						}
					],
					"stateMutability": "view",
					"type": "function"
				},
				{
					"inputs": [],
					"name": "getBlock",
					"outputs": [
						{
							"internalType": "uint256",
							"name": "",
							"type": "uint256"
						}
					],
					"stateMutability": "view",
					"type": "function"
				},
				{
					"inputs": [
						{
							"internalType": "uint256",
							"name": "_lastRewardBlock",
							"type": "uint256"
						},
						{
							"internalType": "uint256",
							"name": "_currentBlock",
							"type": "uint256"
						}
					],
					"name": "getMultiplier",
					"outputs": [
						{
							"internalType": "uint256",
							"name": "",
							"type": "uint256"
						}
					],
					"stateMutability": "view",
					"type": "function"
				},
				{
					"inputs": [
						{
							"internalType": "uint256",
							"name": "_pid",
							"type": "uint256"
						}
					],
					"name": "harvest",
					"outputs": [],
					"stateMutability": "nonpayable",
					"type": "function"
				},
				{
					"inputs": [
						{
							"internalType": "address",
							"name": "_stakeToken",
							"type": "address"
						}
					],
					"name": "isDuplicatedPool",
					"outputs": [
						{
							"internalType": "bool",
							"name": "",
							"type": "bool"
						}
					],
					"stateMutability": "view",
					"type": "function"
				},
				{
					"inputs": [
						{
							"internalType": "address",
							"name": "_to",
							"type": "address"
						},
						{
							"internalType": "uint256",
							"name": "_amount",
							"type": "uint256"
						}
					],
					"name": "manualMint",
					"outputs": [],
					"stateMutability": "nonpayable",
					"type": "function"
				},
				{
					"inputs": [],
					"name": "massUpdatePools",
					"outputs": [],
					"stateMutability": "nonpayable",
					"type": "function"
				},
				{
					"inputs": [],
					"name": "owner",
					"outputs": [
						{
							"internalType": "address",
							"name": "",
							"type": "address"
						}
					],
					"stateMutability": "view",
					"type": "function"
				},
				{
					"inputs": [
						{
							"internalType": "uint256",
							"name": "_pid",
							"type": "uint256"
						},
						{
							"internalType": "address",
							"name": "_user",
							"type": "address"
						}
					],
					"name": "pendingSea",
					"outputs": [
						{
							"internalType": "uint256",
							"name": "",
							"type": "uint256"
						}
					],
					"stateMutability": "view",
					"type": "function"
				},
				{
					"inputs": [
						{
							"internalType": "uint256",
							"name": "",
							"type": "uint256"
						}
					],
					"name": "poolInfo",
					"outputs": [
						{
							"internalType": "address",
							"name": "stakeToken",
							"type": "address"
						},
						{
							"internalType": "uint256",
							"name": "allocPoint",
							"type": "uint256"
						},
						{
							"internalType": "uint256",
							"name": "lastRewardBlock",
							"type": "uint256"
						},
						{
							"internalType": "uint256",
							"name": "accSeaPerShare",
							"type": "uint256"
						},
						{
							"internalType": "uint256",
							"name": "accSeaPerShareTilBonusEnd",
							"type": "uint256"
						}
					],
					"stateMutability": "view",
					"type": "function"
				},
				{
					"inputs": [],
					"name": "poolLength",
					"outputs": [
						{
							"internalType": "uint256",
							"name": "",
							"type": "uint256"
						}
					],
					"stateMutability": "view",
					"type": "function"
				},
				{
					"inputs": [],
					"name": "renounceOwnership",
					"outputs": [],
					"stateMutability": "nonpayable",
					"type": "function"
				},
				{
					"inputs": [],
					"name": "sea",
					"outputs": [
						{
							"internalType": "address",
							"name": "",
							"type": "address"
						}
					],
					"stateMutability": "view",
					"type": "function"
				},
				{
					"inputs": [],
					"name": "seaPerBlock",
					"outputs": [
						{
							"internalType": "uint256",
							"name": "",
							"type": "uint256"
						}
					],
					"stateMutability": "view",
					"type": "function"
				},
				{
					"inputs": [
						{
							"internalType": "uint256",
							"name": "_bonusMultiplier",
							"type": "uint256"
						},
						{
							"internalType": "uint256",
							"name": "_bonusEndBlock",
							"type": "uint256"
						}
					],
					"name": "setBonus",
					"outputs": [],
					"stateMutability": "nonpayable",
					"type": "function"
				},
				{
					"inputs": [
						{
							"internalType": "address",
							"name": "_devaddr",
							"type": "address"
						}
					],
					"name": "setDev",
					"outputs": [],
					"stateMutability": "nonpayable",
					"type": "function"
				},
				{
					"inputs": [
						{
							"internalType": "address",
							"name": "_address",
							"type": "address"
						},
						{
							"internalType": "bool",
							"name": "_type",
							"type": "bool"
						}
					],
					"name": "setExecutor",
					"outputs": [
						{
							"internalType": "bool",
							"name": "",
							"type": "bool"
						}
					],
					"stateMutability": "nonpayable",
					"type": "function"
				},
				{
					"inputs": [
						{
							"internalType": "uint256",
							"name": "_pid",
							"type": "uint256"
						},
						{
							"internalType": "uint256",
							"name": "_allocPoint",
							"type": "uint256"
						},
						{
							"internalType": "bool",
							"name": "_withUpdate",
							"type": "bool"
						}
					],
					"name": "setPool",
					"outputs": [],
					"stateMutability": "nonpayable",
					"type": "function"
				},
				{
					"inputs": [
						{
							"internalType": "uint256",
							"name": "_seaPerBlock",
							"type": "uint256"
						}
					],
					"name": "setSeaPerBlock",
					"outputs": [],
					"stateMutability": "nonpayable",
					"type": "function"
				},
				{
					"inputs": [],
					"name": "startBlock",
					"outputs": [
						{
							"internalType": "uint256",
							"name": "",
							"type": "uint256"
						}
					],
					"stateMutability": "view",
					"type": "function"
				},
				{
					"inputs": [],
					"name": "totalAllocPoint",
					"outputs": [
						{
							"internalType": "uint256",
							"name": "",
							"type": "uint256"
						}
					],
					"stateMutability": "view",
					"type": "function"
				},
				{
					"inputs": [
						{
							"internalType": "address",
							"name": "newOwner",
							"type": "address"
						}
					],
					"name": "transferOwnership",
					"outputs": [],
					"stateMutability": "nonpayable",
					"type": "function"
				},
				{
					"inputs": [
						{
							"internalType": "uint256",
							"name": "_pid",
							"type": "uint256"
						}
					],
					"name": "updatePool",
					"outputs": [],
					"stateMutability": "nonpayable",
					"type": "function"
				},
				{
					"inputs": [
						{
							"internalType": "uint256",
							"name": "",
							"type": "uint256"
						},
						{
							"internalType": "address",
							"name": "",
							"type": "address"
						}
					],
					"name": "userInfo",
					"outputs": [
						{
							"internalType": "uint256",
							"name": "amount",
							"type": "uint256"
						},
						{
							"internalType": "uint256",
							"name": "rewardDebt",
							"type": "uint256"
						},
						{
							"internalType": "uint256",
							"name": "bonusDebt",
							"type": "uint256"
						},
						{
							"internalType": "address",
							"name": "fundedBy",
							"type": "address"
						}
					],
					"stateMutability": "view",
					"type": "function"
				},
				{
					"inputs": [
						{
							"internalType": "address",
							"name": "_for",
							"type": "address"
						},
						{
							"internalType": "uint256",
							"name": "_pid",
							"type": "uint256"
						},
						{
							"internalType": "uint256",
							"name": "_amount",
							"type": "uint256"
						}
					],
					"name": "withdraw",
					"outputs": [],
					"stateMutability": "nonpayable",
					"type": "function"
				},
				{
					"inputs": [
						{
							"internalType": "address",
							"name": "_for",
							"type": "address"
						},
						{
							"internalType": "uint256",
							"name": "_pid",
							"type": "uint256"
						}
					],
					"name": "withdrawAll",
					"outputs": [],
					"stateMutability": "nonpayable",
					"type": "function"
				},
				{
					"inputs": [
						{
							"internalType": "address",
							"name": "_address",
							"type": "address"
						},
						{
							"internalType": "uint256",
							"name": "_amt",
							"type": "uint256"
						}
					],
					"name": "withdrawalERC20",
					"outputs": [
						{
							"internalType": "bool",
							"name": "",
							"type": "bool"
						}
					],
					"stateMutability": "nonpayable",
					"type": "function"
				}
			],
			"devdoc": {
				"kind": "dev",
				"methods": {
					"owner()": {
						"details": "Returns the address of the current owner."
					},
					"renounceOwnership()": {
						"details": "Leaves the contract without owner. It will not be possible to call `onlyOwner` functions anymore. Can only be called by the current owner. NOTE: Renouncing ownership will leave the contract without an owner, thereby removing any functionality that is only available to the owner."
					},
					"transferOwnership(address)": {
						"details": "Transfers ownership of the contract to a new account (`newOwner`). Can only be called by the current owner."
					}
				},
				"version": 1
			},
			"evm": {
				"assembly": "    /* \"contracts/farm.sol\":25189:40117  contract FairLaunch is IFairLaunch, Ownable, ReentrancyGuard {... */\n  mstore(0x40, 0x80)\n    /* \"contracts/farm.sol\":28008:28425  constructor(... */\n  callvalue\n  dup1\n  iszero\n  tag_1\n  jumpi\n  0x00\n  dup1\n  revert\ntag_1:\n  pop\n  mload(0x40)\n  sub(codesize, bytecodeSize)\n  dup1\n  bytecodeSize\n  dup4\n  codecopy\n  dup2\n  dup2\n  add\n  0x40\n  mstore\n  dup2\n  add\n  swap1\n  tag_2\n  swap2\n  swap1\n  tag_3\n  jump\t// in\ntag_2:\n    /* \"@openzeppelin/contracts/access/Ownable.sol\":921:953  _transferOwnership(_msgSender()) */\n  tag_8\n    /* \"@openzeppelin/contracts/access/Ownable.sol\":940:952  _msgSender() */\n  tag_9\n    /* \"@openzeppelin/contracts/access/Ownable.sol\":940:950  _msgSender */\n  shl(0x20, tag_10)\n    /* \"@openzeppelin/contracts/access/Ownable.sol\":940:952  _msgSender() */\n  0x20\n  shr\n  jump\t// in\ntag_9:\n    /* \"@openzeppelin/contracts/access/Ownable.sol\":921:939  _transferOwnership */\n  shl(0x20, tag_11)\n    /* \"@openzeppelin/contracts/access/Ownable.sol\":921:953  _transferOwnership(_msgSender()) */\n  0x20\n  shr\n  jump\t// in\ntag_8:\n    /* \"contracts/farm.sol\":23559:23560  1 */\n  0x01\n    /* \"contracts/farm.sol\":23543:23556  _guardCounter */\n  dup1\n    /* \"contracts/farm.sol\":23543:23560  _guardCounter = 1 */\n  dup2\n  swap1\n  sstore\n  pop\n    /* \"contracts/farm.sol\":28193:28194  0 */\n  0x00\n    /* \"contracts/farm.sol\":28175:28190  bonusMultiplier */\n  0x05\n    /* \"contracts/farm.sol\":28175:28194  bonusMultiplier = 0 */\n  dup2\n  swap1\n  sstore\n  pop\n    /* \"contracts/farm.sol\":28222:28223  0 */\n  0x00\n    /* \"contracts/farm.sol\":28204:28219  totalAllocPoint */\n  0x09\n    /* \"contracts/farm.sol\":28204:28223  totalAllocPoint = 0 */\n  dup2\n  swap1\n  sstore\n  pop\n    /* \"contracts/farm.sol\":28239:28243  _sea */\n  dup5\n    /* \"contracts/farm.sol\":28233:28236  sea */\n  0x02\n  0x00\n    /* \"contracts/farm.sol\":28233:28243  sea = _sea */\n  0x0100\n  exp\n  dup2\n  sload\n  dup2\n  0xffffffffffffffffffffffffffffffffffffffff\n  mul\n  not\n  and\n  swap1\n  dup4\n  0xffffffffffffffffffffffffffffffffffffffff\n  and\n  mul\n  or\n  swap1\n  sstore\n  pop\n    /* \"contracts/farm.sol\":28263:28271  _devaddr */\n  dup4\n    /* \"contracts/farm.sol\":28253:28260  devaddr */\n  0x03\n  0x00\n    /* \"contracts/farm.sol\":28253:28271  devaddr = _devaddr */\n  0x0100\n  exp\n  dup2\n  sload\n  dup2\n  0xffffffffffffffffffffffffffffffffffffffff\n  mul\n  not\n  and\n  swap1\n  dup4\n  0xffffffffffffffffffffffffffffffffffffffff\n  and\n  mul\n  or\n  swap1\n  sstore\n  pop\n    /* \"contracts/farm.sol\":28295:28307  _seaPerBlock */\n  dup3\n    /* \"contracts/farm.sol\":28281:28292  seaPerBlock */\n  0x04\n    /* \"contracts/farm.sol\":28281:28307  seaPerBlock = _seaPerBlock */\n  dup2\n  swap1\n  sstore\n  pop\n    /* \"contracts/farm.sol\":28333:28347  _bonusEndBlock */\n  dup1\n    /* \"contracts/farm.sol\":28317:28330  bonusEndBlock */\n  0x06\n    /* \"contracts/farm.sol\":28317:28347  bonusEndBlock = _bonusEndBlock */\n  dup2\n  swap1\n  sstore\n  pop\n    /* \"contracts/farm.sol\":28370:28381  _startBlock */\n  dup2\n    /* \"contracts/farm.sol\":28357:28367  startBlock */\n  0x0a\n    /* \"contracts/farm.sol\":28357:28381  startBlock = _startBlock */\n  dup2\n  swap1\n  sstore\n  pop\n    /* \"contracts/farm.sol\":28414:28418  true */\n  0x01\n    /* \"contracts/farm.sol\":28391:28399  executor */\n  0x0b\n    /* \"contracts/farm.sol\":28391:28411  executor[msg.sender] */\n  0x00\n    /* \"contracts/farm.sol\":28400:28410  msg.sender */\n  caller\n    /* \"contracts/farm.sol\":28391:28411  executor[msg.sender] */\n  0xffffffffffffffffffffffffffffffffffffffff\n  and\n  0xffffffffffffffffffffffffffffffffffffffff\n  and\n  dup2\n  mstore\n  0x20\n  add\n  swap1\n  dup2\n  mstore\n  0x20\n  add\n  0x00\n  keccak256\n  0x00\n    /* \"contracts/farm.sol\":28391:28418  executor[msg.sender] = true */\n  0x0100\n  exp\n  dup2\n  sload\n  dup2\n  0xff\n  mul\n  not\n  and\n  swap1\n  dup4\n  iszero\n  iszero\n  mul\n  or\n  swap1\n  sstore\n  pop\n    /* \"contracts/farm.sol\":28008:28425  constructor(... */\n  pop\n  pop\n  pop\n  pop\n  pop\n    /* \"contracts/farm.sol\":25189:40117  contract FairLaunch is IFairLaunch, Ownable, ReentrancyGuard {... */\n  jump(tag_14)\n    /* \"@openzeppelin/contracts/utils/Context.sol\":640:736  function _msgSender() internal view virtual returns (address) {... */\ntag_10:\n    /* \"@openzeppelin/contracts/utils/Context.sol\":693:700  address */\n  0x00\n    /* \"@openzeppelin/contracts/utils/Context.sol\":719:729  msg.sender */\n  caller\n    /* \"@openzeppelin/contracts/utils/Context.sol\":712:729  return msg.sender */\n  swap1\n  pop\n    /* \"@openzeppelin/contracts/utils/Context.sol\":640:736  function _msgSender() internal view virtual returns (address) {... */\n  swap1\n  jump\t// out\n    /* \"@openzeppelin/contracts/access/Ownable.sol\":2270:2457  function _transferOwnership(address newOwner) internal virtual {... */\ntag_11:\n    /* \"@openzeppelin/contracts/access/Ownable.sol\":2343:2359  address oldOwner */\n  0x00\n    /* \"@openzeppelin/contracts/access/Ownable.sol\":2362:2368  _owner */\n  dup1\n  0x00\n  swap1\n  sload\n  swap1\n  0x0100\n  exp\n  swap1\n  div\n  0xffffffffffffffffffffffffffffffffffffffff\n  and\n    /* \"@openzeppelin/contracts/access/Ownable.sol\":2343:2368  address oldOwner = _owner */\n  swap1\n  pop\n    /* \"@openzeppelin/contracts/access/Ownable.sol\":2387:2395  newOwner */\n  dup2\n    /* \"@openzeppelin/contracts/access/Ownable.sol\":2378:2384  _owner */\n  0x00\n  dup1\n    /* \"@openzeppelin/contracts/access/Ownable.sol\":2378:2395  _owner = newOwner */\n  0x0100\n  exp\n  dup2\n  sload\n  dup2\n  0xffffffffffffffffffffffffffffffffffffffff\n  mul\n  not\n  and\n  swap1\n  dup4\n  0xffffffffffffffffffffffffffffffffffffffff\n  and\n  mul\n  or\n  swap1\n  sstore\n  pop\n    /* \"@openzeppelin/contracts/access/Ownable.sol\":2441:2449  newOwner */\n  dup2\n    /* \"@openzeppelin/contracts/access/Ownable.sol\":2410:2450  OwnershipTransferred(oldOwner, newOwner) */\n  0xffffffffffffffffffffffffffffffffffffffff\n  and\n    /* \"@openzeppelin/contracts/access/Ownable.sol\":2431:2439  oldOwner */\n  dup2\n    /* \"@openzeppelin/contracts/access/Ownable.sol\":2410:2450  OwnershipTransferred(oldOwner, newOwner) */\n  0xffffffffffffffffffffffffffffffffffffffff\n  and\n  0x8be0079c531659141344cd1fd0a4f28419497f9722a3daafe3b4186f6b6457e0\n  mload(0x40)\n  mload(0x40)\n  dup1\n  swap2\n  sub\n  swap1\n  log3\n    /* \"@openzeppelin/contracts/access/Ownable.sol\":2270:2457  function _transferOwnership(address newOwner) internal virtual {... */\n  pop\n  pop\n  jump\t// out\n    /* \"#utility.yul\":7:150   */\ntag_18:\n  0x00\n    /* \"#utility.yul\":95:101   */\n  dup2\n    /* \"#utility.yul\":89:102   */\n  mload\n    /* \"#utility.yul\":80:102   */\n  swap1\n  pop\n    /* \"#utility.yul\":111:144   */\n  tag_20\n    /* \"#utility.yul\":138:143   */\n  dup2\n    /* \"#utility.yul\":111:144   */\n  tag_21\n  jump\t// in\ntag_20:\n    /* \"#utility.yul\":70:150   */\n  swap3\n  swap2\n  pop\n  pop\n  jump\t// out\n    /* \"#utility.yul\":156:299   */\ntag_22:\n  0x00\n    /* \"#utility.yul\":244:250   */\n  dup2\n    /* \"#utility.yul\":238:251   */\n  mload\n    /* \"#utility.yul\":229:251   */\n  swap1\n  pop\n    /* \"#utility.yul\":260:293   */\n  tag_24\n    /* \"#utility.yul\":287:292   */\n  dup2\n    /* \"#utility.yul\":260:293   */\n  tag_25\n  jump\t// in\ntag_24:\n    /* \"#utility.yul\":219:299   */\n  swap3\n  swap2\n  pop\n  pop\n  jump\t// out\n    /* \"#utility.yul\":305:1215   */\ntag_3:\n  0x00\n  dup1\n  0x00\n  dup1\n  0x00\n    /* \"#utility.yul\":492:495   */\n  0xa0\n    /* \"#utility.yul\":480:489   */\n  dup7\n    /* \"#utility.yul\":471:478   */\n  dup9\n    /* \"#utility.yul\":467:490   */\n  sub\n    /* \"#utility.yul\":463:496   */\n  slt\n    /* \"#utility.yul\":460:462   */\n  iszero\n  tag_27\n  jumpi\n    /* \"#utility.yul\":509:510   */\n  0x00\n    /* \"#utility.yul\":506:507   */\n  dup1\n    /* \"#utility.yul\":499:511   */\n  revert\n    /* \"#utility.yul\":460:462   */\ntag_27:\n    /* \"#utility.yul\":552:553   */\n  0x00\n    /* \"#utility.yul\":577:641   */\n  tag_28\n    /* \"#utility.yul\":633:640   */\n  dup9\n    /* \"#utility.yul\":624:630   */\n  dup3\n    /* \"#utility.yul\":613:622   */\n  dup10\n    /* \"#utility.yul\":609:631   */\n  add\n    /* \"#utility.yul\":577:641   */\n  tag_18\n  jump\t// in\ntag_28:\n    /* \"#utility.yul\":567:641   */\n  swap6\n  pop\n    /* \"#utility.yul\":523:651   */\n  pop\n    /* \"#utility.yul\":690:692   */\n  0x20\n    /* \"#utility.yul\":716:780   */\n  tag_29\n    /* \"#utility.yul\":772:779   */\n  dup9\n    /* \"#utility.yul\":763:769   */\n  dup3\n    /* \"#utility.yul\":752:761   */\n  dup10\n    /* \"#utility.yul\":748:770   */\n  add\n    /* \"#utility.yul\":716:780   */\n  tag_18\n  jump\t// in\ntag_29:\n    /* \"#utility.yul\":706:780   */\n  swap5\n  pop\n    /* \"#utility.yul\":661:790   */\n  pop\n    /* \"#utility.yul\":829:831   */\n  0x40\n    /* \"#utility.yul\":855:919   */\n  tag_30\n    /* \"#utility.yul\":911:918   */\n  dup9\n    /* \"#utility.yul\":902:908   */\n  dup3\n    /* \"#utility.yul\":891:900   */\n  dup10\n    /* \"#utility.yul\":887:909   */\n  add\n    /* \"#utility.yul\":855:919   */\n  tag_22\n  jump\t// in\ntag_30:\n    /* \"#utility.yul\":845:919   */\n  swap4\n  pop\n    /* \"#utility.yul\":800:929   */\n  pop\n    /* \"#utility.yul\":968:970   */\n  0x60\n    /* \"#utility.yul\":994:1058   */\n  tag_31\n    /* \"#utility.yul\":1050:1057   */\n  dup9\n    /* \"#utility.yul\":1041:1047   */\n  dup3\n    /* \"#utility.yul\":1030:1039   */\n  dup10\n    /* \"#utility.yul\":1026:1048   */\n  add\n    /* \"#utility.yul\":994:1058   */\n  tag_22\n  jump\t// in\ntag_31:\n    /* \"#utility.yul\":984:1058   */\n  swap3\n  pop\n    /* \"#utility.yul\":939:1068   */\n  pop\n    /* \"#utility.yul\":1107:1110   */\n  0x80\n    /* \"#utility.yul\":1134:1198   */\n  tag_32\n    /* \"#utility.yul\":1190:1197   */\n  dup9\n    /* \"#utility.yul\":1181:1187   */\n  dup3\n    /* \"#utility.yul\":1170:1179   */\n  dup10\n    /* \"#utility.yul\":1166:1188   */\n  add\n    /* \"#utility.yul\":1134:1198   */\n  tag_22\n  jump\t// in\ntag_32:\n    /* \"#utility.yul\":1124:1198   */\n  swap2\n  pop\n    /* \"#utility.yul\":1078:1208   */\n  pop\n    /* \"#utility.yul\":450:1215   */\n  swap3\n  swap6\n  pop\n  swap3\n  swap6\n  swap1\n  swap4\n  pop\n  jump\t// out\n    /* \"#utility.yul\":1221:1317   */\ntag_33:\n  0x00\n    /* \"#utility.yul\":1287:1311   */\n  tag_35\n    /* \"#utility.yul\":1305:1310   */\n  dup3\n    /* \"#utility.yul\":1287:1311   */\n  tag_36\n  jump\t// in\ntag_35:\n    /* \"#utility.yul\":1276:1311   */\n  swap1\n  pop\n    /* \"#utility.yul\":1266:1317   */\n  swap2\n  swap1\n  pop\n  jump\t// out\n    /* \"#utility.yul\":1323:1449   */\ntag_36:\n  0x00\n    /* \"#utility.yul\":1400:1442   */\n  0xffffffffffffffffffffffffffffffffffffffff\n    /* \"#utility.yul\":1393:1398   */\n  dup3\n    /* \"#utility.yul\":1389:1443   */\n  and\n    /* \"#utility.yul\":1378:1443   */\n  swap1\n  pop\n    /* \"#utility.yul\":1368:1449   */\n  swap2\n  swap1\n  pop\n  jump\t// out\n    /* \"#utility.yul\":1455:1532   */\ntag_38:\n  0x00\n    /* \"#utility.yul\":1521:1526   */\n  dup2\n    /* \"#utility.yul\":1510:1526   */\n  swap1\n  pop\n    /* \"#utility.yul\":1500:1532   */\n  swap2\n  swap1\n  pop\n  jump\t// out\n    /* \"#utility.yul\":1538:1660   */\ntag_21:\n    /* \"#utility.yul\":1611:1635   */\n  tag_41\n    /* \"#utility.yul\":1629:1634   */\n  dup2\n    /* \"#utility.yul\":1611:1635   */\n  tag_33\n  jump\t// in\ntag_41:\n    /* \"#utility.yul\":1604:1609   */\n  dup2\n    /* \"#utility.yul\":1601:1636   */\n  eq\n    /* \"#utility.yul\":1591:1593   */\n  tag_42\n  jumpi\n    /* \"#utility.yul\":1650:1651   */\n  0x00\n    /* \"#utility.yul\":1647:1648   */\n  dup1\n    /* \"#utility.yul\":1640:1652   */\n  revert\n    /* \"#utility.yul\":1591:1593   */\ntag_42:\n    /* \"#utility.yul\":1581:1660   */\n  pop\n  jump\t// out\n    /* \"#utility.yul\":1666:1788   */\ntag_25:\n    /* \"#utility.yul\":1739:1763   */\n  tag_44\n    /* \"#utility.yul\":1757:1762   */\n  dup2\n    /* \"#utility.yul\":1739:1763   */\n  tag_38\n  jump\t// in\ntag_44:\n    /* \"#utility.yul\":1732:1737   */\n  dup2\n    /* \"#utility.yul\":1729:1764   */\n  eq\n    /* \"#utility.yul\":1719:1721   */\n  tag_45\n  jumpi\n    /* \"#utility.yul\":1778:1779   */\n  0x00\n    /* \"#utility.yul\":1775:1776   */\n  dup1\n    /* \"#utility.yul\":1768:1780   */\n  revert\n    /* \"#utility.yul\":1719:1721   */\ntag_45:\n    /* \"#utility.yul\":1709:1788   */\n  pop\n  jump\t// out\n    /* \"contracts/farm.sol\":25189:40117  contract FairLaunch is IFairLaunch, Ownable, ReentrancyGuard {... */\ntag_14:\n  dataSize(sub_0)\n  dup1\n  dataOffset(sub_0)\n  0x00\n  codecopy\n  0x00\n  return\nstop\n\nsub_0: assembly {\n        /* \"contracts/farm.sol\":25189:40117  contract FairLaunch is IFairLaunch, Ownable, ReentrancyGuard {... */\n      mstore(0x40, 0x80)\n      callvalue\n      dup1\n      iszero\n      tag_1\n      jumpi\n      0x00\n      dup1\n      revert\n    tag_1:\n      pop\n      jumpi(tag_2, lt(calldatasize, 0x04))\n      shr(0xe0, calldataload(0x00))\n      dup1\n      0x715018a6\n      gt\n      tag_36\n      jumpi\n      dup1\n      0xb5c5f672\n      gt\n      tag_37\n      jumpi\n      dup1\n      0xd4a91e38\n      gt\n      tag_38\n      jumpi\n      dup1\n      0xd4a91e38\n      eq\n      tag_31\n      jumpi\n      dup1\n      0xddc63262\n      eq\n      tag_32\n      jumpi\n      dup1\n      0xe4c5ff46\n      eq\n      tag_33\n      jumpi\n      dup1\n      0xf1101804\n      eq\n      tag_34\n      jumpi\n      dup1\n      0xf2fde38b\n      eq\n      tag_35\n      jumpi\n      jump(tag_2)\n    tag_38:\n      dup1\n      0xb5c5f672\n      eq\n      tag_27\n      jumpi\n      dup1\n      0xcc6dbc27\n      eq\n      tag_28\n      jumpi\n      dup1\n      0xd477f05f\n      eq\n      tag_29\n      jumpi\n      dup1\n      0xd49e77cd\n      eq\n      tag_30\n      jumpi\n      jump(tag_2)\n    tag_37:\n      dup1\n      0x930ed033\n      gt\n      tag_39\n      jumpi\n      dup1\n      0x930ed033\n      eq\n      tag_23\n      jumpi\n      dup1\n      0x93f1a40b\n      eq\n      tag_24\n      jumpi\n      dup1\n      0xa8b973a1\n      eq\n      tag_25\n      jumpi\n      dup1\n      0xb03df69d\n      eq\n      tag_26\n      jumpi\n      jump(tag_2)\n    tag_39:\n      dup1\n      0x715018a6\n      eq\n      tag_19\n      jumpi\n      dup1\n      0x7abceffd\n      eq\n      tag_20\n      jumpi\n      dup1\n      0x8da5cb5b\n      eq\n      tag_21\n      jumpi\n      dup1\n      0x8dbb1e3a\n      eq\n      tag_22\n      jumpi\n      jump(tag_2)\n    tag_36:\n      dup1\n      0x2e97766d\n      gt\n      tag_40\n      jumpi\n      dup1\n      0x4ecaac41\n      gt\n      tag_41\n      jumpi\n      dup1\n      0x4ecaac41\n      eq\n      tag_15\n      jumpi\n      dup1\n      0x51eb05a6\n      eq\n      tag_16\n      jumpi\n      dup1\n      0x5312ea8e\n      eq\n      tag_17\n      jumpi\n      dup1\n      0x630b5ba1\n      eq\n      tag_18\n      jumpi\n      jump(tag_2)\n    tag_41:\n      dup1\n      0x2e97766d\n      eq\n      tag_11\n      jumpi\n      dup1\n      0x46ca6bea\n      eq\n      tag_12\n      jumpi\n      dup1\n      0x48c7e528\n      eq\n      tag_13\n      jumpi\n      dup1\n      0x48cd4cb1\n      eq\n      tag_14\n      jumpi\n      jump(tag_2)\n    tag_40:\n      dup1\n      0x17caf6f1\n      gt\n      tag_42\n      jumpi\n      dup1\n      0x17caf6f1\n      eq\n      tag_7\n      jumpi\n      dup1\n      0x1aed6553\n      eq\n      tag_8\n      jumpi\n      dup1\n      0x1e1bff3f\n      eq\n      tag_9\n      jumpi\n      dup1\n      0x24cdee22\n      eq\n      tag_10\n      jumpi\n      jump(tag_2)\n    tag_42:\n      dup1\n      0x037c99b0\n      eq\n      tag_3\n      jumpi\n      dup1\n      0x081e3eda\n      eq\n      tag_4\n      jumpi\n      dup1\n      0x0efe6a8b\n      eq\n      tag_5\n      jumpi\n      dup1\n      0x1526fe27\n      eq\n      tag_6\n      jumpi\n    tag_2:\n      0x00\n      dup1\n      revert\n        /* \"contracts/farm.sol\":29794:30141  function setBonus(uint256 _bonusMultiplier, uint256 _bonusEndBlock)... */\n    tag_3:\n      tag_43\n      0x04\n      dup1\n      calldatasize\n      sub\n      dup2\n      add\n      swap1\n      tag_44\n      swap2\n      swap1\n      tag_45\n      jump\t// in\n    tag_44:\n      tag_46\n      jump\t// in\n    tag_43:\n      stop\n        /* \"contracts/farm.sol\":31774:31876  function poolLength() external view override returns (uint256) {... */\n    tag_4:\n      tag_47\n      tag_48\n      jump\t// in\n    tag_47:\n      mload(0x40)\n      tag_49\n      swap2\n      swap1\n      tag_50\n      jump\t// in\n    tag_49:\n      mload(0x40)\n      dup1\n      swap2\n      sub\n      swap1\n      return\n        /* \"contracts/farm.sol\":35783:36764  function deposit(... */\n    tag_5:\n      tag_51\n      0x04\n      dup1\n      calldatasize\n      sub\n      dup2\n      add\n      swap1\n      tag_52\n      swap2\n      swap1\n      tag_53\n      jump\t// in\n    tag_52:\n      tag_54\n      jump\t// in\n    tag_51:\n      stop\n        /* \"contracts/farm.sol\":27142:27168  PoolInfo[] public poolInfo */\n    tag_6:\n      tag_55\n      0x04\n      dup1\n      calldatasize\n      sub\n      dup2\n      add\n      swap1\n      tag_56\n      swap2\n      swap1\n      tag_57\n      jump\t// in\n    tag_56:\n      tag_58\n      jump\t// in\n    tag_55:\n      mload(0x40)\n      tag_59\n      swap6\n      swap5\n      swap4\n      swap3\n      swap2\n      swap1\n      tag_60\n      jump\t// in\n    tag_59:\n      mload(0x40)\n      dup1\n      swap2\n      sub\n      swap1\n      return\n        /* \"contracts/farm.sol\":27384:27414  uint256 public totalAllocPoint */\n    tag_7:\n      tag_61\n      tag_62\n      jump\t// in\n    tag_61:\n      mload(0x40)\n      tag_63\n      swap2\n      swap1\n      tag_50\n      jump\t// in\n    tag_63:\n      mload(0x40)\n      dup1\n      swap2\n      sub\n      swap1\n      return\n        /* \"contracts/farm.sol\":27081:27109  uint256 public bonusEndBlock */\n    tag_8:\n      tag_64\n      tag_65\n      jump\t// in\n    tag_64:\n      mload(0x40)\n      tag_66\n      swap2\n      swap1\n      tag_50\n      jump\t// in\n    tag_66:\n      mload(0x40)\n      dup1\n      swap2\n      sub\n      swap1\n      return\n        /* \"contracts/farm.sol\":28961:29138  function setExecutor(address _address, bool _type)... */\n    tag_9:\n      tag_67\n      0x04\n      dup1\n      calldatasize\n      sub\n      dup2\n      add\n      swap1\n      tag_68\n      swap2\n      swap1\n      tag_69\n      jump\t// in\n    tag_68:\n      tag_70\n      jump\t// in\n    tag_67:\n      mload(0x40)\n      tag_71\n      swap2\n      swap1\n      tag_72\n      jump\t// in\n    tag_71:\n      mload(0x40)\n      dup1\n      swap2\n      sub\n      swap1\n      return\n        /* \"contracts/farm.sol\":32899:33839  function pendingSea(uint256 _pid, address _user)... */\n    tag_10:\n      tag_73\n      0x04\n      dup1\n      calldatasize\n      sub\n      dup2\n      add\n      swap1\n      tag_74\n      swap2\n      swap1\n      tag_75\n      jump\t// in\n    tag_74:\n      tag_76\n      jump\t// in\n    tag_73:\n      mload(0x40)\n      tag_77\n      swap2\n      swap1\n      tag_50\n      jump\t// in\n    tag_77:\n      mload(0x40)\n      dup1\n      swap2\n      sub\n      swap1\n      return\n        /* \"contracts/farm.sol\":39817:39905  function getBlock() external view returns (uint256) {... */\n    tag_11:\n      tag_78\n      tag_79\n      jump\t// in\n    tag_78:\n      mload(0x40)\n      tag_80\n      swap2\n      swap1\n      tag_50\n      jump\t// in\n    tag_80:\n      mload(0x40)\n      dup1\n      swap2\n      sub\n      swap1\n      return\n        /* \"contracts/farm.sol\":31114:31480  function setPool(... */\n    tag_12:\n      tag_81\n      0x04\n      dup1\n      calldatasize\n      sub\n      dup2\n      add\n      swap1\n      tag_82\n      swap2\n      swap1\n      tag_83\n      jump\t// in\n    tag_82:\n      tag_84\n      jump\t// in\n    tag_81:\n      stop\n        /* \"contracts/farm.sol\":27514:27554  mapping(address => bool) public executor */\n    tag_13:\n      tag_85\n      0x04\n      dup1\n      calldatasize\n      sub\n      dup2\n      add\n      swap1\n      tag_86\n      swap2\n      swap1\n      tag_87\n      jump\t// in\n    tag_86:\n      tag_88\n      jump\t// in\n    tag_85:\n      mload(0x40)\n      tag_89\n      swap2\n      swap1\n      tag_72\n      jump\t// in\n    tag_89:\n      mload(0x40)\n      dup1\n      swap2\n      sub\n      swap1\n      return\n        /* \"contracts/farm.sol\":27468:27493  uint256 public startBlock */\n    tag_14:\n      tag_90\n      tag_91\n      jump\t// in\n    tag_90:\n      mload(0x40)\n      tag_92\n      swap2\n      swap1\n      tag_50\n      jump\t// in\n    tag_92:\n      mload(0x40)\n      dup1\n      swap2\n      sub\n      swap1\n      return\n        /* \"contracts/farm.sol\":26811:26829  address public sea */\n    tag_15:\n      tag_93\n      tag_94\n      jump\t// in\n    tag_93:\n      mload(0x40)\n      tag_95\n      swap2\n      swap1\n      tag_96\n      jump\t// in\n    tag_95:\n      mload(0x40)\n      dup1\n      swap2\n      sub\n      swap1\n      return\n        /* \"contracts/farm.sol\":34167:35708  function updatePool(uint256 _pid) public override {... */\n    tag_16:\n      tag_97\n      0x04\n      dup1\n      calldatasize\n      sub\n      dup2\n      add\n      swap1\n      tag_98\n      swap2\n      swap1\n      tag_57\n      jump\t// in\n    tag_98:\n      tag_99\n      jump\t// in\n    tag_97:\n      stop\n        /* \"contracts/farm.sol\":39021:39414  function emergencyWithdraw(uint256 _pid) public {... */\n    tag_17:\n      tag_100\n      0x04\n      dup1\n      calldatasize\n      sub\n      dup2\n      add\n      swap1\n      tag_101\n      swap2\n      swap1\n      tag_57\n      jump\t// in\n    tag_101:\n      tag_102\n      jump\t// in\n    tag_100:\n      stop\n        /* \"contracts/farm.sol\":33919:34094  function massUpdatePools() public {... */\n    tag_18:\n      tag_103\n      tag_104\n      jump\t// in\n    tag_103:\n      stop\n        /* \"@openzeppelin/contracts/access/Ownable.sol\":1668:1769  function renounceOwnership() public virtual onlyOwner {... */\n    tag_19:\n      tag_105\n      tag_106\n      jump\t// in\n    tag_105:\n      stop\n        /* \"contracts/farm.sol\":30213:31022  function addPool(... */\n    tag_20:\n      tag_107\n      0x04\n      dup1\n      calldatasize\n      sub\n      dup2\n      add\n      swap1\n      tag_108\n      swap2\n      swap1\n      tag_109\n      jump\t// in\n    tag_108:\n      tag_110\n      jump\t// in\n    tag_107:\n      stop\n        /* \"@openzeppelin/contracts/access/Ownable.sol\":1036:1121  function owner() public view virtual returns (address) {... */\n    tag_21:\n      tag_111\n      tag_112\n      jump\t// in\n    tag_111:\n      mload(0x40)\n      tag_113\n      swap2\n      swap1\n      tag_96\n      jump\t// in\n    tag_113:\n      mload(0x40)\n      dup1\n      swap2\n      sub\n      swap1\n      return\n        /* \"contracts/farm.sol\":32115:32839  function getMultiplier(uint256 _lastRewardBlock, uint256 _currentBlock)... */\n    tag_22:\n      tag_114\n      0x04\n      dup1\n      calldatasize\n      sub\n      dup2\n      add\n      swap1\n      tag_115\n      swap2\n      swap1\n      tag_45\n      jump\t// in\n    tag_115:\n      tag_116\n      jump\t// in\n    tag_114:\n      mload(0x40)\n      tag_117\n      swap2\n      swap1\n      tag_50\n      jump\t// in\n    tag_117:\n      mload(0x40)\n      dup1\n      swap2\n      sub\n      swap1\n      return\n        /* \"contracts/farm.sol\":39911:40115  function withdrawalERC20(address _address, uint256 _amt)... */\n    tag_23:\n      tag_118\n      0x04\n      dup1\n      calldatasize\n      sub\n      dup2\n      add\n      swap1\n      tag_119\n      swap2\n      swap1\n      tag_120\n      jump\t// in\n    tag_119:\n      tag_121\n      jump\t// in\n    tag_118:\n      mload(0x40)\n      tag_122\n      swap2\n      swap1\n      tag_72\n      jump\t// in\n    tag_122:\n      mload(0x40)\n      dup1\n      swap2\n      sub\n      swap1\n      return\n        /* \"contracts/farm.sol\":27227:27291  mapping(uint256 => mapping(address => UserInfo)) public userInfo */\n    tag_24:\n      tag_123\n      0x04\n      dup1\n      calldatasize\n      sub\n      dup2\n      add\n      swap1\n      tag_124\n      swap2\n      swap1\n      tag_75\n      jump\t// in\n    tag_124:\n      tag_125\n      jump\t// in\n    tag_123:\n      mload(0x40)\n      tag_126\n      swap5\n      swap4\n      swap3\n      swap2\n      swap1\n      tag_127\n      jump\t// in\n    tag_126:\n      mload(0x40)\n      dup1\n      swap2\n      sub\n      swap1\n      return\n        /* \"contracts/farm.sol\":26997:27027  uint256 public bonusMultiplier */\n    tag_25:\n      tag_128\n      tag_129\n      jump\t// in\n    tag_128:\n      mload(0x40)\n      tag_130\n      swap2\n      swap1\n      tag_50\n      jump\t// in\n    tag_130:\n      mload(0x40)\n      dup1\n      swap2\n      sub\n      swap1\n      return\n        /* \"contracts/farm.sol\":31486:31768  function isDuplicatedPool(address _stakeToken) public view returns (bool) {... */\n    tag_26:\n      tag_131\n      0x04\n      dup1\n      calldatasize\n      sub\n      dup2\n      add\n      swap1\n      tag_132\n      swap2\n      swap1\n      tag_87\n      jump\t// in\n    tag_132:\n      tag_133\n      jump\t// in\n    tag_131:\n      mload(0x40)\n      tag_134\n      swap2\n      swap1\n      tag_72\n      jump\t// in\n    tag_134:\n      mload(0x40)\n      dup1\n      swap2\n      sub\n      swap1\n      return\n        /* \"contracts/farm.sol\":36823:36992  function withdraw(... */\n    tag_27:\n      tag_135\n      0x04\n      dup1\n      calldatasize\n      sub\n      dup2\n      add\n      swap1\n      tag_136\n      swap2\n      swap1\n      tag_53\n      jump\t// in\n    tag_136:\n      tag_137\n      jump\t// in\n    tag_135:\n      stop\n        /* \"contracts/farm.sol\":36998:37171  function withdrawAll(address _for, uint256 _pid)... */\n    tag_28:\n      tag_138\n      0x04\n      dup1\n      calldatasize\n      sub\n      dup2\n      add\n      swap1\n      tag_139\n      swap2\n      swap1\n      tag_120\n      jump\t// in\n    tag_139:\n      tag_140\n      jump\t// in\n    tag_138:\n      stop\n        /* \"contracts/farm.sol\":29318:29483  function setDev(address _devaddr) public onlyOwner {... */\n    tag_29:\n      tag_141\n      0x04\n      dup1\n      calldatasize\n      sub\n      dup2\n      add\n      swap1\n      tag_142\n      swap2\n      swap1\n      tag_87\n      jump\t// in\n    tag_142:\n      tag_143\n      jump\t// in\n    tag_141:\n      stop\n        /* \"contracts/farm.sol\":26855:26877  address public devaddr */\n    tag_30:\n      tag_144\n      tag_145\n      jump\t// in\n    tag_144:\n      mload(0x40)\n      tag_146\n      swap2\n      swap1\n      tag_96\n      jump\t// in\n    tag_146:\n      mload(0x40)\n      dup1\n      swap2\n      sub\n      swap1\n      return\n        /* \"contracts/farm.sol\":29489:29638  function setSeaPerBlock(uint256 _seaPerBlock) public onlyOwner {... */\n    tag_31:\n      tag_147\n      0x04\n      dup1\n      calldatasize\n      sub\n      dup2\n      add\n      swap1\n      tag_148\n      swap2\n      swap1\n      tag_57\n      jump\t// in\n    tag_148:\n      tag_149\n      jump\t// in\n    tag_147:\n      stop\n        /* \"contracts/farm.sol\":38038:38448  function harvest(uint256 _pid) public override {... */\n    tag_32:\n      tag_150\n      0x04\n      dup1\n      calldatasize\n      sub\n      dup2\n      add\n      swap1\n      tag_151\n      swap2\n      swap1\n      tag_57\n      jump\t// in\n    tag_151:\n      tag_152\n      jump\t// in\n    tag_150:\n      stop\n        /* \"contracts/farm.sol\":31882:32042  function manualMint(address _to, uint256 _amount) public onlyOwner {... */\n    tag_33:\n      tag_153\n      0x04\n      dup1\n      calldatasize\n      sub\n      dup2\n      add\n      swap1\n      tag_154\n      swap2\n      swap1\n      tag_120\n      jump\t// in\n    tag_154:\n      tag_155\n      jump\t// in\n    tag_153:\n      stop\n        /* \"contracts/farm.sol\":26920:26946  uint256 public seaPerBlock */\n    tag_34:\n      tag_156\n      tag_157\n      jump\t// in\n    tag_156:\n      mload(0x40)\n      tag_158\n      swap2\n      swap1\n      tag_50\n      jump\t// in\n    tag_158:\n      mload(0x40)\n      dup1\n      swap2\n      sub\n      swap1\n      return\n        /* \"@openzeppelin/contracts/access/Ownable.sol\":1918:2116  function transferOwnership(address newOwner) public virtual onlyOwner {... */\n    tag_35:\n      tag_159\n      0x04\n      dup1\n      calldatasize\n      sub\n      dup2\n      add\n      swap1\n      tag_160\n      swap2\n      swap1\n      tag_87\n      jump\t// in\n    tag_160:\n      tag_161\n      jump\t// in\n    tag_159:\n      stop\n        /* \"contracts/farm.sol\":29794:30141  function setBonus(uint256 _bonusMultiplier, uint256 _bonusEndBlock)... */\n    tag_46:\n        /* \"@openzeppelin/contracts/access/Ownable.sol\":1259:1271  _msgSender() */\n      tag_163\n        /* \"@openzeppelin/contracts/access/Ownable.sol\":1259:1269  _msgSender */\n      tag_164\n        /* \"@openzeppelin/contracts/access/Ownable.sol\":1259:1271  _msgSender() */\n      jump\t// in\n    tag_163:\n        /* \"@openzeppelin/contracts/access/Ownable.sol\":1248:1271  owner() == _msgSender() */\n      0xffffffffffffffffffffffffffffffffffffffff\n      and\n        /* \"@openzeppelin/contracts/access/Ownable.sol\":1248:1255  owner() */\n      tag_165\n        /* \"@openzeppelin/contracts/access/Ownable.sol\":1248:1253  owner */\n      tag_112\n        /* \"@openzeppelin/contracts/access/Ownable.sol\":1248:1255  owner() */\n      jump\t// in\n    tag_165:\n        /* \"@openzeppelin/contracts/access/Ownable.sol\":1248:1271  owner() == _msgSender() */\n      0xffffffffffffffffffffffffffffffffffffffff\n      and\n      eq\n        /* \"@openzeppelin/contracts/access/Ownable.sol\":1240:1308  require(owner() == _msgSender(), \"Ownable: caller is not the owner\") */\n      tag_166\n      jumpi\n      mload(0x40)\n      0x08c379a000000000000000000000000000000000000000000000000000000000\n      dup2\n      mstore\n      0x04\n      add\n      tag_167\n      swap1\n      tag_168\n      jump\t// in\n    tag_167:\n      mload(0x40)\n      dup1\n      swap2\n      sub\n      swap1\n      revert\n    tag_166:\n        /* \"contracts/farm.sol\":29934:29946  block.number */\n      number\n        /* \"contracts/farm.sol\":29917:29931  _bonusEndBlock */\n      dup2\n        /* \"contracts/farm.sol\":29917:29946  _bonusEndBlock > block.number */\n      gt\n        /* \"contracts/farm.sol\":29909:29978  require(_bonusEndBlock > block.number, \"setBonus: bad bonusEndBlock\") */\n      tag_170\n      jumpi\n      mload(0x40)\n      0x08c379a000000000000000000000000000000000000000000000000000000000\n      dup2\n      mstore\n      0x04\n      add\n      tag_171\n      swap1\n      tag_172\n      jump\t// in\n    tag_171:\n      mload(0x40)\n      dup1\n      swap2\n      sub\n      swap1\n      revert\n    tag_170:\n        /* \"contracts/farm.sol\":30015:30016  1 */\n      0x01\n        /* \"contracts/farm.sol\":29996:30012  _bonusMultiplier */\n      dup3\n        /* \"contracts/farm.sol\":29996:30016  _bonusMultiplier > 1 */\n      gt\n        /* \"contracts/farm.sol\":29988:30050  require(_bonusMultiplier > 1, \"setBonus: bad bonusMultiplier\") */\n      tag_173\n      jumpi\n      mload(0x40)\n      0x08c379a000000000000000000000000000000000000000000000000000000000\n      dup2\n      mstore\n      0x04\n      add\n      tag_174\n      swap1\n      tag_175\n      jump\t// in\n    tag_174:\n      mload(0x40)\n      dup1\n      swap2\n      sub\n      swap1\n      revert\n    tag_173:\n        /* \"contracts/farm.sol\":30078:30094  _bonusMultiplier */\n      dup2\n        /* \"contracts/farm.sol\":30060:30075  bonusMultiplier */\n      0x05\n        /* \"contracts/farm.sol\":30060:30094  bonusMultiplier = _bonusMultiplier */\n      dup2\n      swap1\n      sstore\n      pop\n        /* \"contracts/farm.sol\":30120:30134  _bonusEndBlock */\n      dup1\n        /* \"contracts/farm.sol\":30104:30117  bonusEndBlock */\n      0x06\n        /* \"contracts/farm.sol\":30104:30134  bonusEndBlock = _bonusEndBlock */\n      dup2\n      swap1\n      sstore\n      pop\n        /* \"contracts/farm.sol\":29794:30141  function setBonus(uint256 _bonusMultiplier, uint256 _bonusEndBlock)... */\n      pop\n      pop\n      jump\t// out\n        /* \"contracts/farm.sol\":31774:31876  function poolLength() external view override returns (uint256) {... */\n    tag_48:\n        /* \"contracts/farm.sol\":31828:31835  uint256 */\n      0x00\n        /* \"contracts/farm.sol\":31854:31862  poolInfo */\n      0x07\n        /* \"contracts/farm.sol\":31854:31869  poolInfo.length */\n      dup1\n      sload\n      swap1\n      pop\n        /* \"contracts/farm.sol\":31847:31869  return poolInfo.length */\n      swap1\n      pop\n        /* \"contracts/farm.sol\":31774:31876  function poolLength() external view override returns (uint256) {... */\n      swap1\n      jump\t// out\n        /* \"contracts/farm.sol\":35783:36764  function deposit(... */\n    tag_54:\n        /* \"contracts/farm.sol\":23993:23994  1 */\n      0x01\n        /* \"contracts/farm.sol\":23976:23989  _guardCounter */\n      dup1\n      0x00\n        /* \"contracts/farm.sol\":23976:23994  _guardCounter += 1 */\n      dup3\n      dup3\n      sload\n      tag_178\n      swap2\n      swap1\n      tag_179\n      jump\t// in\n    tag_178:\n      swap3\n      pop\n      pop\n      dup2\n      swap1\n      sstore\n      pop\n        /* \"contracts/farm.sol\":24004:24024  uint256 localCounter */\n      0x00\n        /* \"contracts/farm.sol\":24027:24040  _guardCounter */\n      sload(0x01)\n        /* \"contracts/farm.sol\":24004:24040  uint256 localCounter = _guardCounter */\n      swap1\n      pop\n        /* \"contracts/farm.sol\":35914:35935  PoolInfo storage pool */\n      0x00\n        /* \"contracts/farm.sol\":35938:35946  poolInfo */\n      0x07\n        /* \"contracts/farm.sol\":35947:35951  _pid */\n      dup5\n        /* \"contracts/farm.sol\":35938:35952  poolInfo[_pid] */\n      dup2\n      sload\n      dup2\n      lt\n      tag_181\n      jumpi\n      mstore(0x00, 0x4e487b7100000000000000000000000000000000000000000000000000000000)\n      mstore(0x04, 0x32)\n      revert(0x00, 0x24)\n    tag_181:\n      swap1\n      0x00\n      mstore\n      keccak256(0x00, 0x20)\n      swap1\n      0x05\n      mul\n      add\n        /* \"contracts/farm.sol\":35914:35952  PoolInfo storage pool = poolInfo[_pid] */\n      swap1\n      pop\n        /* \"contracts/farm.sol\":35962:35983  UserInfo storage user */\n      0x00\n        /* \"contracts/farm.sol\":35986:35994  userInfo */\n      0x08\n        /* \"contracts/farm.sol\":35986:36000  userInfo[_pid] */\n      0x00\n        /* \"contracts/farm.sol\":35995:35999  _pid */\n      dup7\n        /* \"contracts/farm.sol\":35986:36000  userInfo[_pid] */\n      dup2\n      mstore\n      0x20\n      add\n      swap1\n      dup2\n      mstore\n      0x20\n      add\n      0x00\n      keccak256\n        /* \"contracts/farm.sol\":35986:36006  userInfo[_pid][_for] */\n      0x00\n        /* \"contracts/farm.sol\":36001:36005  _for */\n      dup8\n        /* \"contracts/farm.sol\":35986:36006  userInfo[_pid][_for] */\n      0xffffffffffffffffffffffffffffffffffffffff\n      and\n      0xffffffffffffffffffffffffffffffffffffffff\n      and\n      dup2\n      mstore\n      0x20\n      add\n      swap1\n      dup2\n      mstore\n      0x20\n      add\n      0x00\n      keccak256\n        /* \"contracts/farm.sol\":35962:36006  UserInfo storage user = userInfo[_pid][_for] */\n      swap1\n      pop\n        /* \"contracts/farm.sol\":36045:36046  0 */\n      0x00\n        /* \"contracts/farm.sol\":36020:36047  user.fundedBy != address(0) */\n      0xffffffffffffffffffffffffffffffffffffffff\n      and\n        /* \"contracts/farm.sol\":36020:36024  user */\n      dup2\n        /* \"contracts/farm.sol\":36020:36033  user.fundedBy */\n      0x03\n      add\n      0x00\n      swap1\n      sload\n      swap1\n      0x0100\n      exp\n      swap1\n      div\n      0xffffffffffffffffffffffffffffffffffffffff\n      and\n        /* \"contracts/farm.sol\":36020:36047  user.fundedBy != address(0) */\n      0xffffffffffffffffffffffffffffffffffffffff\n      and\n      eq\n        /* \"contracts/farm.sol\":36016:36108  if (user.fundedBy != address(0))... */\n      tag_183\n      jumpi\n        /* \"contracts/farm.sol\":36086:36096  msg.sender */\n      caller\n        /* \"contracts/farm.sol\":36069:36096  user.fundedBy == msg.sender */\n      0xffffffffffffffffffffffffffffffffffffffff\n      and\n        /* \"contracts/farm.sol\":36069:36073  user */\n      dup2\n        /* \"contracts/farm.sol\":36069:36082  user.fundedBy */\n      0x03\n      add\n      0x00\n      swap1\n      sload\n      swap1\n      0x0100\n      exp\n      swap1\n      div\n      0xffffffffffffffffffffffffffffffffffffffff\n      and\n        /* \"contracts/farm.sol\":36069:36096  user.fundedBy == msg.sender */\n      0xffffffffffffffffffffffffffffffffffffffff\n      and\n      eq\n        /* \"contracts/farm.sol\":36061:36108  require(user.fundedBy == msg.sender, \"bad sof\") */\n      tag_184\n      jumpi\n      mload(0x40)\n      0x08c379a000000000000000000000000000000000000000000000000000000000\n      dup2\n      mstore\n      0x04\n      add\n      tag_185\n      swap1\n      tag_186\n      jump\t// in\n    tag_185:\n      mload(0x40)\n      dup1\n      swap2\n      sub\n      swap1\n      revert\n    tag_184:\n        /* \"contracts/farm.sol\":36016:36108  if (user.fundedBy != address(0))... */\n    tag_183:\n        /* \"contracts/farm.sol\":36153:36154  0 */\n      0x00\n        /* \"contracts/farm.sol\":36126:36155  pool.stakeToken != address(0) */\n      0xffffffffffffffffffffffffffffffffffffffff\n      and\n        /* \"contracts/farm.sol\":36126:36130  pool */\n      dup3\n        /* \"contracts/farm.sol\":36126:36141  pool.stakeToken */\n      0x00\n      add\n      0x00\n      swap1\n      sload\n      swap1\n      0x0100\n      exp\n      swap1\n      div\n      0xffffffffffffffffffffffffffffffffffffffff\n      and\n        /* \"contracts/farm.sol\":36126:36155  pool.stakeToken != address(0) */\n      0xffffffffffffffffffffffffffffffffffffffff\n      and\n      eq\n      iszero\n        /* \"contracts/farm.sol\":36118:36187  require(pool.stakeToken != address(0), \"deposit: not accept deposit\") */\n      tag_187\n      jumpi\n      mload(0x40)\n      0x08c379a000000000000000000000000000000000000000000000000000000000\n      dup2\n      mstore\n      0x04\n      add\n      tag_188\n      swap1\n      tag_189\n      jump\t// in\n    tag_188:\n      mload(0x40)\n      dup1\n      swap2\n      sub\n      swap1\n      revert\n    tag_187:\n        /* \"contracts/farm.sol\":36197:36213  updatePool(_pid) */\n      tag_190\n        /* \"contracts/farm.sol\":36208:36212  _pid */\n      dup6\n        /* \"contracts/farm.sol\":36197:36207  updatePool */\n      tag_99\n        /* \"contracts/farm.sol\":36197:36213  updatePool(_pid) */\n      jump\t// in\n    tag_190:\n        /* \"contracts/farm.sol\":36241:36242  0 */\n      0x00\n        /* \"contracts/farm.sol\":36227:36231  user */\n      dup2\n        /* \"contracts/farm.sol\":36227:36238  user.amount */\n      0x00\n      add\n      sload\n        /* \"contracts/farm.sol\":36227:36242  user.amount > 0 */\n      gt\n        /* \"contracts/farm.sol\":36223:36264  if (user.amount > 0) _harvest(_for, _pid) */\n      iszero\n      tag_191\n      jumpi\n        /* \"contracts/farm.sol\":36244:36264  _harvest(_for, _pid) */\n      tag_192\n        /* \"contracts/farm.sol\":36253:36257  _for */\n      dup7\n        /* \"contracts/farm.sol\":36259:36263  _pid */\n      dup7\n        /* \"contracts/farm.sol\":36244:36252  _harvest */\n      tag_193\n        /* \"contracts/farm.sol\":36244:36264  _harvest(_for, _pid) */\n      jump\t// in\n    tag_192:\n        /* \"contracts/farm.sol\":36223:36264  if (user.amount > 0) _harvest(_for, _pid) */\n    tag_191:\n        /* \"contracts/farm.sol\":36303:36304  0 */\n      0x00\n        /* \"contracts/farm.sol\":36278:36305  user.fundedBy == address(0) */\n      0xffffffffffffffffffffffffffffffffffffffff\n      and\n        /* \"contracts/farm.sol\":36278:36282  user */\n      dup2\n        /* \"contracts/farm.sol\":36278:36291  user.fundedBy */\n      0x03\n      add\n      0x00\n      swap1\n      sload\n      swap1\n      0x0100\n      exp\n      swap1\n      div\n      0xffffffffffffffffffffffffffffffffffffffff\n      and\n        /* \"contracts/farm.sol\":36278:36305  user.fundedBy == address(0) */\n      0xffffffffffffffffffffffffffffffffffffffff\n      and\n      eq\n        /* \"contracts/farm.sol\":36274:36333  if (user.fundedBy == address(0)) user.fundedBy = msg.sender */\n      iszero\n      tag_194\n      jumpi\n        /* \"contracts/farm.sol\":36323:36333  msg.sender */\n      caller\n        /* \"contracts/farm.sol\":36307:36311  user */\n      dup2\n        /* \"contracts/farm.sol\":36307:36320  user.fundedBy */\n      0x03\n      add\n      0x00\n        /* \"contracts/farm.sol\":36307:36333  user.fundedBy = msg.sender */\n      0x0100\n      exp\n      dup2\n      sload\n      dup2\n      0xffffffffffffffffffffffffffffffffffffffff\n      mul\n      not\n      and\n      swap1\n      dup4\n      0xffffffffffffffffffffffffffffffffffffffff\n      and\n      mul\n      or\n      swap1\n      sstore\n      pop\n        /* \"contracts/farm.sol\":36274:36333  if (user.fundedBy == address(0)) user.fundedBy = msg.sender */\n    tag_194:\n        /* \"contracts/farm.sol\":36343:36474  IERC20(pool.stakeToken).safeTransferFrom(... */\n      tag_195\n        /* \"contracts/farm.sol\":36405:36415  msg.sender */\n      caller\n        /* \"contracts/farm.sol\":36438:36442  this */\n      address\n        /* \"contracts/farm.sol\":36457:36464  _amount */\n      dup7\n        /* \"contracts/farm.sol\":36350:36354  pool */\n      dup6\n        /* \"contracts/farm.sol\":36350:36365  pool.stakeToken */\n      0x00\n      add\n      0x00\n      swap1\n      sload\n      swap1\n      0x0100\n      exp\n      swap1\n      div\n      0xffffffffffffffffffffffffffffffffffffffff\n      and\n        /* \"contracts/farm.sol\":36343:36383  IERC20(pool.stakeToken).safeTransferFrom */\n      0xffffffffffffffffffffffffffffffffffffffff\n      and\n      tag_196\n      swap1\n        /* \"contracts/farm.sol\":36343:36474  IERC20(pool.stakeToken).safeTransferFrom(... */\n      swap4\n      swap3\n      swap2\n      swap1\n      0xffffffff\n      and\n      jump\t// in\n    tag_195:\n        /* \"contracts/farm.sol\":36498:36522  user.amount.add(_amount) */\n      tag_197\n        /* \"contracts/farm.sol\":36514:36521  _amount */\n      dup5\n        /* \"contracts/farm.sol\":36498:36502  user */\n      dup3\n        /* \"contracts/farm.sol\":36498:36509  user.amount */\n      0x00\n      add\n      sload\n        /* \"contracts/farm.sol\":36498:36513  user.amount.add */\n      tag_198\n      swap1\n        /* \"contracts/farm.sol\":36498:36522  user.amount.add(_amount) */\n      swap2\n      swap1\n      0xffffffff\n      and\n      jump\t// in\n    tag_197:\n        /* \"contracts/farm.sol\":36484:36488  user */\n      dup2\n        /* \"contracts/farm.sol\":36484:36495  user.amount */\n      0x00\n      add\n        /* \"contracts/farm.sol\":36484:36522  user.amount = user.amount.add(_amount) */\n      dup2\n      swap1\n      sstore\n      pop\n        /* \"contracts/farm.sol\":36550:36599  user.amount.mul(pool.accSeaPerShare).div(GLO_VAL) */\n      tag_199\n        /* \"contracts/farm.sol\":25348:25352  1e12 */\n      0xe8d4a51000\n        /* \"contracts/farm.sol\":36550:36586  user.amount.mul(pool.accSeaPerShare) */\n      tag_200\n        /* \"contracts/farm.sol\":36566:36570  pool */\n      dup5\n        /* \"contracts/farm.sol\":36566:36585  pool.accSeaPerShare */\n      0x03\n      add\n      sload\n        /* \"contracts/farm.sol\":36550:36554  user */\n      dup5\n        /* \"contracts/farm.sol\":36550:36561  user.amount */\n      0x00\n      add\n      sload\n        /* \"contracts/farm.sol\":36550:36565  user.amount.mul */\n      tag_201\n      swap1\n        /* \"contracts/farm.sol\":36550:36586  user.amount.mul(pool.accSeaPerShare) */\n      swap2\n      swap1\n      0xffffffff\n      and\n      jump\t// in\n    tag_200:\n        /* \"contracts/farm.sol\":36550:36590  user.amount.mul(pool.accSeaPerShare).div */\n      tag_202\n      swap1\n        /* \"contracts/farm.sol\":36550:36599  user.amount.mul(pool.accSeaPerShare).div(GLO_VAL) */\n      swap2\n      swap1\n      0xffffffff\n      and\n      jump\t// in\n    tag_199:\n        /* \"contracts/farm.sol\":36532:36536  user */\n      dup2\n        /* \"contracts/farm.sol\":36532:36547  user.rewardDebt */\n      0x01\n      add\n        /* \"contracts/farm.sol\":36532:36599  user.rewardDebt = user.amount.mul(pool.accSeaPerShare).div(GLO_VAL) */\n      dup2\n      swap1\n      sstore\n      pop\n        /* \"contracts/farm.sol\":36626:36708  user.amount.mul(pool.accSeaPerShareTilBonusEnd).div(... */\n      tag_203\n        /* \"contracts/farm.sol\":25348:25352  1e12 */\n      0xe8d4a51000\n        /* \"contracts/farm.sol\":36626:36673  user.amount.mul(pool.accSeaPerShareTilBonusEnd) */\n      tag_204\n        /* \"contracts/farm.sol\":36642:36646  pool */\n      dup5\n        /* \"contracts/farm.sol\":36642:36672  pool.accSeaPerShareTilBonusEnd */\n      0x04\n      add\n      sload\n        /* \"contracts/farm.sol\":36626:36630  user */\n      dup5\n        /* \"contracts/farm.sol\":36626:36637  user.amount */\n      0x00\n      add\n      sload\n        /* \"contracts/farm.sol\":36626:36641  user.amount.mul */\n      tag_201\n      swap1\n        /* \"contracts/farm.sol\":36626:36673  user.amount.mul(pool.accSeaPerShareTilBonusEnd) */\n      swap2\n      swap1\n      0xffffffff\n      and\n      jump\t// in\n    tag_204:\n        /* \"contracts/farm.sol\":36626:36677  user.amount.mul(pool.accSeaPerShareTilBonusEnd).div */\n      tag_202\n      swap1\n        /* \"contracts/farm.sol\":36626:36708  user.amount.mul(pool.accSeaPerShareTilBonusEnd).div(... */\n      swap2\n      swap1\n      0xffffffff\n      and\n      jump\t// in\n    tag_203:\n        /* \"contracts/farm.sol\":36609:36613  user */\n      dup2\n        /* \"contracts/farm.sol\":36609:36623  user.bonusDebt */\n      0x02\n      add\n        /* \"contracts/farm.sol\":36609:36708  user.bonusDebt = user.amount.mul(pool.accSeaPerShareTilBonusEnd).div(... */\n      dup2\n      swap1\n      sstore\n      pop\n        /* \"contracts/farm.sol\":36743:36747  _pid */\n      dup5\n        /* \"contracts/farm.sol\":36731:36741  msg.sender */\n      caller\n        /* \"contracts/farm.sol\":36723:36757  Deposit(msg.sender, _pid, _amount) */\n      0xffffffffffffffffffffffffffffffffffffffff\n      and\n      0x90890809c654f11d6e72a28fa60149770a0d11ec6c92319d6ceb2bb0a4ea1a15\n        /* \"contracts/farm.sol\":36749:36756  _amount */\n      dup7\n        /* \"contracts/farm.sol\":36723:36757  Deposit(msg.sender, _pid, _amount) */\n      mload(0x40)\n      tag_205\n      swap2\n      swap1\n      tag_50\n      jump\t// in\n    tag_205:\n      mload(0x40)\n      dup1\n      swap2\n      sub\n      swap1\n      log3\n        /* \"contracts/farm.sol\":24050:24051  _ */\n      pop\n      pop\n        /* \"contracts/farm.sol\":24098:24111  _guardCounter */\n      sload(0x01)\n        /* \"contracts/farm.sol\":24082:24094  localCounter */\n      dup2\n        /* \"contracts/farm.sol\":24082:24111  localCounter == _guardCounter */\n      eq\n        /* \"contracts/farm.sol\":24061:24168  require(... */\n      tag_206\n      jumpi\n      mload(0x40)\n      0x08c379a000000000000000000000000000000000000000000000000000000000\n      dup2\n      mstore\n      0x04\n      add\n      tag_207\n      swap1\n      tag_208\n      jump\t// in\n    tag_207:\n      mload(0x40)\n      dup1\n      swap2\n      sub\n      swap1\n      revert\n    tag_206:\n        /* \"contracts/farm.sol\":35783:36764  function deposit(... */\n      pop\n      pop\n      pop\n      pop\n      jump\t// out\n        /* \"contracts/farm.sol\":27142:27168  PoolInfo[] public poolInfo */\n    tag_58:\n      0x07\n      dup2\n      dup2\n      sload\n      dup2\n      lt\n      tag_209\n      jumpi\n      0x00\n      dup1\n      revert\n    tag_209:\n      swap1\n      0x00\n      mstore\n      keccak256(0x00, 0x20)\n      swap1\n      0x05\n      mul\n      add\n      0x00\n      swap2\n      pop\n      swap1\n      pop\n      dup1\n      0x00\n      add\n      0x00\n      swap1\n      sload\n      swap1\n      0x0100\n      exp\n      swap1\n      div\n      0xffffffffffffffffffffffffffffffffffffffff\n      and\n      swap1\n      dup1\n      0x01\n      add\n      sload\n      swap1\n      dup1\n      0x02\n      add\n      sload\n      swap1\n      dup1\n      0x03\n      add\n      sload\n      swap1\n      dup1\n      0x04\n      add\n      sload\n      swap1\n      pop\n      dup6\n      jump\t// out\n        /* \"contracts/farm.sol\":27384:27414  uint256 public totalAllocPoint */\n    tag_62:\n      sload(0x09)\n      dup2\n      jump\t// out\n        /* \"contracts/farm.sol\":27081:27109  uint256 public bonusEndBlock */\n    tag_65:\n      sload(0x06)\n      dup2\n      jump\t// out\n        /* \"contracts/farm.sol\":28961:29138  function setExecutor(address _address, bool _type)... */\n    tag_70:\n        /* \"contracts/farm.sol\":29064:29068  bool */\n      0x00\n        /* \"@openzeppelin/contracts/access/Ownable.sol\":1259:1271  _msgSender() */\n      tag_212\n        /* \"@openzeppelin/contracts/access/Ownable.sol\":1259:1269  _msgSender */\n      tag_164\n        /* \"@openzeppelin/contracts/access/Ownable.sol\":1259:1271  _msgSender() */\n      jump\t// in\n    tag_212:\n        /* \"@openzeppelin/contracts/access/Ownable.sol\":1248:1271  owner() == _msgSender() */\n      0xffffffffffffffffffffffffffffffffffffffff\n      and\n        /* \"@openzeppelin/contracts/access/Ownable.sol\":1248:1255  owner() */\n      tag_213\n        /* \"@openzeppelin/contracts/access/Ownable.sol\":1248:1253  owner */\n      tag_112\n        /* \"@openzeppelin/contracts/access/Ownable.sol\":1248:1255  owner() */\n      jump\t// in\n    tag_213:\n        /* \"@openzeppelin/contracts/access/Ownable.sol\":1248:1271  owner() == _msgSender() */\n      0xffffffffffffffffffffffffffffffffffffffff\n      and\n      eq\n        /* \"@openzeppelin/contracts/access/Ownable.sol\":1240:1308  require(owner() == _msgSender(), \"Ownable: caller is not the owner\") */\n      tag_214\n      jumpi\n      mload(0x40)\n      0x08c379a000000000000000000000000000000000000000000000000000000000\n      dup2\n      mstore\n      0x04\n      add\n      tag_215\n      swap1\n      tag_168\n      jump\t// in\n    tag_215:\n      mload(0x40)\n      dup1\n      swap2\n      sub\n      swap1\n      revert\n    tag_214:\n        /* \"contracts/farm.sol\":29105:29110  _type */\n      dup2\n        /* \"contracts/farm.sol\":29084:29092  executor */\n      0x0b\n        /* \"contracts/farm.sol\":29084:29102  executor[_address] */\n      0x00\n        /* \"contracts/farm.sol\":29093:29101  _address */\n      dup6\n        /* \"contracts/farm.sol\":29084:29102  executor[_address] */\n      0xffffffffffffffffffffffffffffffffffffffff\n      and\n      0xffffffffffffffffffffffffffffffffffffffff\n      and\n      dup2\n      mstore\n      0x20\n      add\n      swap1\n      dup2\n      mstore\n      0x20\n      add\n      0x00\n      keccak256\n      0x00\n        /* \"contracts/farm.sol\":29084:29110  executor[_address] = _type */\n      0x0100\n      exp\n      dup2\n      sload\n      dup2\n      0xff\n      mul\n      not\n      and\n      swap1\n      dup4\n      iszero\n      iszero\n      mul\n      or\n      swap1\n      sstore\n      pop\n        /* \"contracts/farm.sol\":29127:29131  true */\n      0x01\n        /* \"contracts/farm.sol\":29120:29131  return true */\n      swap1\n      pop\n        /* \"contracts/farm.sol\":28961:29138  function setExecutor(address _address, bool _type)... */\n      swap3\n      swap2\n      pop\n      pop\n      jump\t// out\n        /* \"contracts/farm.sol\":32899:33839  function pendingSea(uint256 _pid, address _user)... */\n    tag_76:\n        /* \"contracts/farm.sol\":33012:33019  uint256 */\n      0x00\n        /* \"contracts/farm.sol\":33035:33056  PoolInfo storage pool */\n      dup1\n        /* \"contracts/farm.sol\":33059:33067  poolInfo */\n      0x07\n        /* \"contracts/farm.sol\":33068:33072  _pid */\n      dup5\n        /* \"contracts/farm.sol\":33059:33073  poolInfo[_pid] */\n      dup2\n      sload\n      dup2\n      lt\n      tag_218\n      jumpi\n      mstore(0x00, 0x4e487b7100000000000000000000000000000000000000000000000000000000)\n      mstore(0x04, 0x32)\n      revert(0x00, 0x24)\n    tag_218:\n      swap1\n      0x00\n      mstore\n      keccak256(0x00, 0x20)\n      swap1\n      0x05\n      mul\n      add\n        /* \"contracts/farm.sol\":33035:33073  PoolInfo storage pool = poolInfo[_pid] */\n      swap1\n      pop\n        /* \"contracts/farm.sol\":33083:33104  UserInfo storage user */\n      0x00\n        /* \"contracts/farm.sol\":33107:33115  userInfo */\n      0x08\n        /* \"contracts/farm.sol\":33107:33121  userInfo[_pid] */\n      0x00\n        /* \"contracts/farm.sol\":33116:33120  _pid */\n      dup7\n        /* \"contracts/farm.sol\":33107:33121  userInfo[_pid] */\n      dup2\n      mstore\n      0x20\n      add\n      swap1\n      dup2\n      mstore\n      0x20\n      add\n      0x00\n      keccak256\n        /* \"contracts/farm.sol\":33107:33128  userInfo[_pid][_user] */\n      0x00\n        /* \"contracts/farm.sol\":33122:33127  _user */\n      dup6\n        /* \"contracts/farm.sol\":33107:33128  userInfo[_pid][_user] */\n      0xffffffffffffffffffffffffffffffffffffffff\n      and\n      0xffffffffffffffffffffffffffffffffffffffff\n      and\n      dup2\n      mstore\n      0x20\n      add\n      swap1\n      dup2\n      mstore\n      0x20\n      add\n      0x00\n      keccak256\n        /* \"contracts/farm.sol\":33083:33128  UserInfo storage user = userInfo[_pid][_user] */\n      swap1\n      pop\n        /* \"contracts/farm.sol\":33138:33160  uint256 accSeaPerShare */\n      0x00\n        /* \"contracts/farm.sol\":33163:33167  pool */\n      dup3\n        /* \"contracts/farm.sol\":33163:33182  pool.accSeaPerShare */\n      0x03\n      add\n      sload\n        /* \"contracts/farm.sol\":33138:33182  uint256 accSeaPerShare = pool.accSeaPerShare */\n      swap1\n      pop\n        /* \"contracts/farm.sol\":33192:33208  uint256 lpSupply */\n      0x00\n        /* \"contracts/farm.sol\":33218:33222  pool */\n      dup4\n        /* \"contracts/farm.sol\":33218:33233  pool.stakeToken */\n      0x00\n      add\n      0x00\n      swap1\n      sload\n      swap1\n      0x0100\n      exp\n      swap1\n      div\n      0xffffffffffffffffffffffffffffffffffffffff\n      and\n        /* \"contracts/farm.sol\":33211:33244  IERC20(pool.stakeToken).balanceOf */\n      0xffffffffffffffffffffffffffffffffffffffff\n      and\n      0x70a08231\n        /* \"contracts/farm.sol\":33253:33257  this */\n      address\n        /* \"contracts/farm.sol\":33211:33259  IERC20(pool.stakeToken).balanceOf(address(this)) */\n      mload(0x40)\n      dup3\n      0xffffffff\n      and\n      0xe0\n      shl\n      dup2\n      mstore\n      0x04\n      add\n      tag_220\n      swap2\n      swap1\n      tag_96\n      jump\t// in\n    tag_220:\n      0x20\n      mload(0x40)\n      dup1\n      dup4\n      sub\n      dup2\n      dup7\n      dup1\n      extcodesize\n      iszero\n      dup1\n      iszero\n      tag_221\n      jumpi\n      0x00\n      dup1\n      revert\n    tag_221:\n      pop\n      gas\n      staticcall\n      iszero\n      dup1\n      iszero\n      tag_223\n      jumpi\n      returndatasize\n      0x00\n      dup1\n      returndatacopy\n      revert(0x00, returndatasize)\n    tag_223:\n      pop\n      pop\n      pop\n      pop\n      mload(0x40)\n      returndatasize\n      not(0x1f)\n      0x1f\n      dup3\n      add\n      and\n      dup3\n      add\n      dup1\n      0x40\n      mstore\n      pop\n      dup2\n      add\n      swap1\n      tag_224\n      swap2\n      swap1\n      tag_225\n      jump\t// in\n    tag_224:\n        /* \"contracts/farm.sol\":33192:33259  uint256 lpSupply = IERC20(pool.stakeToken).balanceOf(address(this)) */\n      swap1\n      pop\n        /* \"contracts/farm.sol\":33288:33292  pool */\n      dup4\n        /* \"contracts/farm.sol\":33288:33308  pool.lastRewardBlock */\n      0x02\n      add\n      sload\n        /* \"contracts/farm.sol\":33273:33285  block.number */\n      number\n        /* \"contracts/farm.sol\":33273:33308  block.number > pool.lastRewardBlock */\n      gt\n        /* \"contracts/farm.sol\":33273:33325  block.number > pool.lastRewardBlock && lpSupply != 0 */\n      dup1\n      iszero\n      tag_226\n      jumpi\n      pop\n        /* \"contracts/farm.sol\":33324:33325  0 */\n      0x00\n        /* \"contracts/farm.sol\":33312:33320  lpSupply */\n      dup2\n        /* \"contracts/farm.sol\":33312:33325  lpSupply != 0 */\n      eq\n      iszero\n        /* \"contracts/farm.sol\":33273:33325  block.number > pool.lastRewardBlock && lpSupply != 0 */\n    tag_226:\n        /* \"contracts/farm.sol\":33269:33739  if (block.number > pool.lastRewardBlock && lpSupply != 0) {... */\n      iszero\n      tag_227\n      jumpi\n        /* \"contracts/farm.sol\":33341:33359  uint256 multiplier */\n      0x00\n        /* \"contracts/farm.sol\":33362:33457  getMultiplier(... */\n      tag_228\n        /* \"contracts/farm.sol\":33393:33397  pool */\n      dup6\n        /* \"contracts/farm.sol\":33393:33413  pool.lastRewardBlock */\n      0x02\n      add\n      sload\n        /* \"contracts/farm.sol\":33431:33443  block.number */\n      number\n        /* \"contracts/farm.sol\":33362:33375  getMultiplier */\n      tag_116\n        /* \"contracts/farm.sol\":33362:33457  getMultiplier(... */\n      jump\t// in\n    tag_228:\n        /* \"contracts/farm.sol\":33341:33457  uint256 multiplier = getMultiplier(... */\n      swap1\n      pop\n        /* \"contracts/farm.sol\":33471:33488  uint256 seaReward */\n      0x00\n        /* \"contracts/farm.sol\":33491:33611  multiplier... */\n      tag_229\n        /* \"contracts/farm.sol\":33595:33610  totalAllocPoint */\n      sload(0x09)\n        /* \"contracts/farm.sol\":33491:33573  multiplier... */\n      tag_230\n        /* \"contracts/farm.sol\":33557:33561  pool */\n      dup9\n        /* \"contracts/farm.sol\":33557:33572  pool.allocPoint */\n      0x01\n      add\n      sload\n        /* \"contracts/farm.sol\":33491:33535  multiplier... */\n      tag_231\n        /* \"contracts/farm.sol\":33523:33534  seaPerBlock */\n      sload(0x04)\n        /* \"contracts/farm.sol\":33491:33501  multiplier */\n      dup8\n        /* \"contracts/farm.sol\":33491:33522  multiplier... */\n      tag_201\n      swap1\n        /* \"contracts/farm.sol\":33491:33535  multiplier... */\n      swap2\n      swap1\n      0xffffffff\n      and\n      jump\t// in\n    tag_231:\n        /* \"contracts/farm.sol\":33491:33556  multiplier... */\n      tag_201\n      swap1\n        /* \"contracts/farm.sol\":33491:33573  multiplier... */\n      swap2\n      swap1\n      0xffffffff\n      and\n      jump\t// in\n    tag_230:\n        /* \"contracts/farm.sol\":33491:33594  multiplier... */\n      tag_202\n      swap1\n        /* \"contracts/farm.sol\":33491:33611  multiplier... */\n      swap2\n      swap1\n      0xffffffff\n      and\n      jump\t// in\n    tag_229:\n        /* \"contracts/farm.sol\":33471:33611  uint256 seaReward = multiplier... */\n      swap1\n      pop\n        /* \"contracts/farm.sol\":33642:33728  accSeaPerShare.add(... */\n      tag_232\n        /* \"contracts/farm.sol\":33678:33714  seaReward.mul(GLO_VAL).div(lpSupply) */\n      tag_233\n        /* \"contracts/farm.sol\":33705:33713  lpSupply */\n      dup5\n        /* \"contracts/farm.sol\":33678:33700  seaReward.mul(GLO_VAL) */\n      tag_234\n        /* \"contracts/farm.sol\":25348:25352  1e12 */\n      0xe8d4a51000\n        /* \"contracts/farm.sol\":33678:33687  seaReward */\n      dup6\n        /* \"contracts/farm.sol\":33678:33691  seaReward.mul */\n      tag_201\n      swap1\n        /* \"contracts/farm.sol\":33678:33700  seaReward.mul(GLO_VAL) */\n      swap2\n      swap1\n      0xffffffff\n      and\n      jump\t// in\n    tag_234:\n        /* \"contracts/farm.sol\":33678:33704  seaReward.mul(GLO_VAL).div */\n      tag_202\n      swap1\n        /* \"contracts/farm.sol\":33678:33714  seaReward.mul(GLO_VAL).div(lpSupply) */\n      swap2\n      swap1\n      0xffffffff\n      and\n      jump\t// in\n    tag_233:\n        /* \"contracts/farm.sol\":33642:33656  accSeaPerShare */\n      dup6\n        /* \"contracts/farm.sol\":33642:33660  accSeaPerShare.add */\n      tag_198\n      swap1\n        /* \"contracts/farm.sol\":33642:33728  accSeaPerShare.add(... */\n      swap2\n      swap1\n      0xffffffff\n      and\n      jump\t// in\n    tag_232:\n        /* \"contracts/farm.sol\":33625:33728  accSeaPerShare = accSeaPerShare.add(... */\n      swap4\n      pop\n        /* \"contracts/farm.sol\":33269:33739  if (block.number > pool.lastRewardBlock && lpSupply != 0) {... */\n      pop\n      pop\n    tag_227:\n        /* \"contracts/farm.sol\":33767:33832  user.amount.mul(accSeaPerShare).div(GLO_VAL).sub(user.rewardDebt) */\n      tag_235\n        /* \"contracts/farm.sol\":33816:33820  user */\n      dup4\n        /* \"contracts/farm.sol\":33816:33831  user.rewardDebt */\n      0x01\n      add\n      sload\n        /* \"contracts/farm.sol\":33767:33811  user.amount.mul(accSeaPerShare).div(GLO_VAL) */\n      tag_236\n        /* \"contracts/farm.sol\":25348:25352  1e12 */\n      0xe8d4a51000\n        /* \"contracts/farm.sol\":33767:33798  user.amount.mul(accSeaPerShare) */\n      tag_237\n        /* \"contracts/farm.sol\":33783:33797  accSeaPerShare */\n      dup7\n        /* \"contracts/farm.sol\":33767:33771  user */\n      dup9\n        /* \"contracts/farm.sol\":33767:33778  user.amount */\n      0x00\n      add\n      sload\n        /* \"contracts/farm.sol\":33767:33782  user.amount.mul */\n      tag_201\n      swap1\n        /* \"contracts/farm.sol\":33767:33798  user.amount.mul(accSeaPerShare) */\n      swap2\n      swap1\n      0xffffffff\n      and\n      jump\t// in\n    tag_237:\n        /* \"contracts/farm.sol\":33767:33802  user.amount.mul(accSeaPerShare).div */\n      tag_202\n      swap1\n        /* \"contracts/farm.sol\":33767:33811  user.amount.mul(accSeaPerShare).div(GLO_VAL) */\n      swap2\n      swap1\n      0xffffffff\n      and\n      jump\t// in\n    tag_236:\n        /* \"contracts/farm.sol\":33767:33815  user.amount.mul(accSeaPerShare).div(GLO_VAL).sub */\n      tag_238\n      swap1\n        /* \"contracts/farm.sol\":33767:33832  user.amount.mul(accSeaPerShare).div(GLO_VAL).sub(user.rewardDebt) */\n      swap2\n      swap1\n      0xffffffff\n      and\n      jump\t// in\n    tag_235:\n        /* \"contracts/farm.sol\":33748:33832  return... */\n      swap5\n      pop\n      pop\n      pop\n      pop\n      pop\n        /* \"contracts/farm.sol\":32899:33839  function pendingSea(uint256 _pid, address _user)... */\n      swap3\n      swap2\n      pop\n      pop\n      jump\t// out\n        /* \"contracts/farm.sol\":39817:39905  function getBlock() external view returns (uint256) {... */\n    tag_79:\n        /* \"contracts/farm.sol\":39860:39867  uint256 */\n      0x00\n        /* \"contracts/farm.sol\":39886:39898  block.number */\n      number\n        /* \"contracts/farm.sol\":39879:39898  return block.number */\n      swap1\n      pop\n        /* \"contracts/farm.sol\":39817:39905  function getBlock() external view returns (uint256) {... */\n      swap1\n      jump\t// out\n        /* \"contracts/farm.sol\":31114:31480  function setPool(... */\n    tag_84:\n        /* \"contracts/farm.sol\":29186:29194  executor */\n      0x0b\n        /* \"contracts/farm.sol\":29186:29206  executor[msg.sender] */\n      0x00\n        /* \"contracts/farm.sol\":29195:29205  msg.sender */\n      caller\n        /* \"contracts/farm.sol\":29186:29206  executor[msg.sender] */\n      0xffffffffffffffffffffffffffffffffffffffff\n      and\n      0xffffffffffffffffffffffffffffffffffffffff\n      and\n      dup2\n      mstore\n      0x20\n      add\n      swap1\n      dup2\n      mstore\n      0x20\n      add\n      0x00\n      keccak256\n      0x00\n      swap1\n      sload\n      swap1\n      0x0100\n      exp\n      swap1\n      div\n      0xff\n      and\n        /* \"contracts/farm.sol\":29178:29247  require(executor[msg.sender], \"executor: caller is not the executor\") */\n      tag_241\n      jumpi\n      mload(0x40)\n      0x08c379a000000000000000000000000000000000000000000000000000000000\n      dup2\n      mstore\n      0x04\n      add\n      tag_242\n      swap1\n      tag_243\n      jump\t// in\n    tag_242:\n      mload(0x40)\n      dup1\n      swap2\n      sub\n      swap1\n      revert\n    tag_241:\n        /* \"contracts/farm.sol\":31257:31268  _withUpdate */\n      dup1\n        /* \"contracts/farm.sol\":31253:31312  if (_withUpdate) {... */\n      iszero\n      tag_245\n      jumpi\n        /* \"contracts/farm.sol\":31284:31301  massUpdatePools() */\n      tag_246\n        /* \"contracts/farm.sol\":31284:31299  massUpdatePools */\n      tag_104\n        /* \"contracts/farm.sol\":31284:31301  massUpdatePools() */\n      jump\t// in\n    tag_246:\n        /* \"contracts/farm.sol\":31253:31312  if (_withUpdate) {... */\n    tag_245:\n        /* \"contracts/farm.sol\":31339:31424  totalAllocPoint.sub(poolInfo[_pid].allocPoint).add(... */\n      tag_247\n        /* \"contracts/farm.sol\":31403:31414  _allocPoint */\n      dup3\n        /* \"contracts/farm.sol\":31339:31385  totalAllocPoint.sub(poolInfo[_pid].allocPoint) */\n      tag_248\n        /* \"contracts/farm.sol\":31359:31367  poolInfo */\n      0x07\n        /* \"contracts/farm.sol\":31368:31372  _pid */\n      dup7\n        /* \"contracts/farm.sol\":31359:31373  poolInfo[_pid] */\n      dup2\n      sload\n      dup2\n      lt\n      tag_249\n      jumpi\n      mstore(0x00, 0x4e487b7100000000000000000000000000000000000000000000000000000000)\n      mstore(0x04, 0x32)\n      revert(0x00, 0x24)\n    tag_249:\n      swap1\n      0x00\n      mstore\n      keccak256(0x00, 0x20)\n      swap1\n      0x05\n      mul\n      add\n        /* \"contracts/farm.sol\":31359:31384  poolInfo[_pid].allocPoint */\n      0x01\n      add\n      sload\n        /* \"contracts/farm.sol\":31339:31354  totalAllocPoint */\n      sload(0x09)\n        /* \"contracts/farm.sol\":31339:31358  totalAllocPoint.sub */\n      tag_238\n      swap1\n        /* \"contracts/farm.sol\":31339:31385  totalAllocPoint.sub(poolInfo[_pid].allocPoint) */\n      swap2\n      swap1\n      0xffffffff\n      and\n      jump\t// in\n    tag_248:\n        /* \"contracts/farm.sol\":31339:31389  totalAllocPoint.sub(poolInfo[_pid].allocPoint).add */\n      tag_198\n      swap1\n        /* \"contracts/farm.sol\":31339:31424  totalAllocPoint.sub(poolInfo[_pid].allocPoint).add(... */\n      swap2\n      swap1\n      0xffffffff\n      and\n      jump\t// in\n    tag_247:\n        /* \"contracts/farm.sol\":31321:31336  totalAllocPoint */\n      0x09\n        /* \"contracts/farm.sol\":31321:31424  totalAllocPoint = totalAllocPoint.sub(poolInfo[_pid].allocPoint).add(... */\n      dup2\n      swap1\n      sstore\n      pop\n        /* \"contracts/farm.sol\":31462:31473  _allocPoint */\n      dup2\n        /* \"contracts/farm.sol\":31434:31442  poolInfo */\n      0x07\n        /* \"contracts/farm.sol\":31443:31447  _pid */\n      dup5\n        /* \"contracts/farm.sol\":31434:31448  poolInfo[_pid] */\n      dup2\n      sload\n      dup2\n      lt\n      tag_251\n      jumpi\n      mstore(0x00, 0x4e487b7100000000000000000000000000000000000000000000000000000000)\n      mstore(0x04, 0x32)\n      revert(0x00, 0x24)\n    tag_251:\n      swap1\n      0x00\n      mstore\n      keccak256(0x00, 0x20)\n      swap1\n      0x05\n      mul\n      add\n        /* \"contracts/farm.sol\":31434:31459  poolInfo[_pid].allocPoint */\n      0x01\n      add\n        /* \"contracts/farm.sol\":31434:31473  poolInfo[_pid].allocPoint = _allocPoint */\n      dup2\n      swap1\n      sstore\n      pop\n        /* \"contracts/farm.sol\":31114:31480  function setPool(... */\n      pop\n      pop\n      pop\n      jump\t// out\n        /* \"contracts/farm.sol\":27514:27554  mapping(address => bool) public executor */\n    tag_88:\n      mstore(0x20, 0x0b)\n      dup1\n      0x00\n      mstore\n      keccak256(0x00, 0x40)\n      0x00\n      swap2\n      pop\n      sload\n      swap1\n      0x0100\n      exp\n      swap1\n      div\n      0xff\n      and\n      dup2\n      jump\t// out\n        /* \"contracts/farm.sol\":27468:27493  uint256 public startBlock */\n    tag_91:\n      sload(0x0a)\n      dup2\n      jump\t// out\n        /* \"contracts/farm.sol\":26811:26829  address public sea */\n    tag_94:\n      0x02\n      0x00\n      swap1\n      sload\n      swap1\n      0x0100\n      exp\n      swap1\n      div\n      0xffffffffffffffffffffffffffffffffffffffff\n      and\n      dup2\n      jump\t// out\n        /* \"contracts/farm.sol\":34167:35708  function updatePool(uint256 _pid) public override {... */\n    tag_99:\n        /* \"contracts/farm.sol\":34227:34248  PoolInfo storage pool */\n      0x00\n        /* \"contracts/farm.sol\":34251:34259  poolInfo */\n      0x07\n        /* \"contracts/farm.sol\":34260:34264  _pid */\n      dup3\n        /* \"contracts/farm.sol\":34251:34265  poolInfo[_pid] */\n      dup2\n      sload\n      dup2\n      lt\n      tag_254\n      jumpi\n      mstore(0x00, 0x4e487b7100000000000000000000000000000000000000000000000000000000)\n      mstore(0x04, 0x32)\n      revert(0x00, 0x24)\n    tag_254:\n      swap1\n      0x00\n      mstore\n      keccak256(0x00, 0x20)\n      swap1\n      0x05\n      mul\n      add\n        /* \"contracts/farm.sol\":34227:34265  PoolInfo storage pool = poolInfo[_pid] */\n      swap1\n      pop\n        /* \"contracts/farm.sol\":34295:34299  pool */\n      dup1\n        /* \"contracts/farm.sol\":34295:34315  pool.lastRewardBlock */\n      0x02\n      add\n      sload\n        /* \"contracts/farm.sol\":34279:34291  block.number */\n      number\n        /* \"contracts/farm.sol\":34279:34315  block.number <= pool.lastRewardBlock */\n      gt\n        /* \"contracts/farm.sol\":34275:34348  if (block.number <= pool.lastRewardBlock) {... */\n      tag_256\n      jumpi\n        /* \"contracts/farm.sol\":34331:34338  return; */\n      pop\n      jump(tag_253)\n        /* \"contracts/farm.sol\":34275:34348  if (block.number <= pool.lastRewardBlock) {... */\n    tag_256:\n        /* \"contracts/farm.sol\":34357:34373  uint256 lpSupply */\n      0x00\n        /* \"contracts/farm.sol\":34383:34387  pool */\n      dup2\n        /* \"contracts/farm.sol\":34383:34398  pool.stakeToken */\n      0x00\n      add\n      0x00\n      swap1\n      sload\n      swap1\n      0x0100\n      exp\n      swap1\n      div\n      0xffffffffffffffffffffffffffffffffffffffff\n      and\n        /* \"contracts/farm.sol\":34376:34409  IERC20(pool.stakeToken).balanceOf */\n      0xffffffffffffffffffffffffffffffffffffffff\n      and\n      0x70a08231\n        /* \"contracts/farm.sol\":34418:34422  this */\n      address\n        /* \"contracts/farm.sol\":34376:34424  IERC20(pool.stakeToken).balanceOf(address(this)) */\n      mload(0x40)\n      dup3\n      0xffffffff\n      and\n      0xe0\n      shl\n      dup2\n      mstore\n      0x04\n      add\n      tag_257\n      swap2\n      swap1\n      tag_96\n      jump\t// in\n    tag_257:\n      0x20\n      mload(0x40)\n      dup1\n      dup4\n      sub\n      dup2\n      dup7\n      dup1\n      extcodesize\n      iszero\n      dup1\n      iszero\n      tag_258\n      jumpi\n      0x00\n      dup1\n      revert\n    tag_258:\n      pop\n      gas\n      staticcall\n      iszero\n      dup1\n      iszero\n      tag_260\n      jumpi\n      returndatasize\n      0x00\n      dup1\n      returndatacopy\n      revert(0x00, returndatasize)\n    tag_260:\n      pop\n      pop\n      pop\n      pop\n      mload(0x40)\n      returndatasize\n      not(0x1f)\n      0x1f\n      dup3\n      add\n      and\n      dup3\n      add\n      dup1\n      0x40\n      mstore\n      pop\n      dup2\n      add\n      swap1\n      tag_261\n      swap2\n      swap1\n      tag_225\n      jump\t// in\n    tag_261:\n        /* \"contracts/farm.sol\":34357:34424  uint256 lpSupply = IERC20(pool.stakeToken).balanceOf(address(this)) */\n      swap1\n      pop\n        /* \"contracts/farm.sol\":34450:34451  0 */\n      0x00\n        /* \"contracts/farm.sol\":34438:34446  lpSupply */\n      dup2\n        /* \"contracts/farm.sol\":34438:34451  lpSupply == 0 */\n      eq\n        /* \"contracts/farm.sol\":34434:34533  if (lpSupply == 0) {... */\n      iszero\n      tag_262\n      jumpi\n        /* \"contracts/farm.sol\":34490:34502  block.number */\n      number\n        /* \"contracts/farm.sol\":34467:34471  pool */\n      dup3\n        /* \"contracts/farm.sol\":34467:34487  pool.lastRewardBlock */\n      0x02\n      add\n        /* \"contracts/farm.sol\":34467:34502  pool.lastRewardBlock = block.number */\n      dup2\n      swap1\n      sstore\n      pop\n        /* \"contracts/farm.sol\":34516:34523  return; */\n      pop\n      pop\n      jump(tag_253)\n        /* \"contracts/farm.sol\":34434:34533  if (lpSupply == 0) {... */\n    tag_262:\n        /* \"contracts/farm.sol\":34542:34560  uint256 multiplier */\n      0x00\n        /* \"contracts/farm.sol\":34563:34612  getMultiplier(pool.lastRewardBlock, block.number) */\n      tag_263\n        /* \"contracts/farm.sol\":34577:34581  pool */\n      dup4\n        /* \"contracts/farm.sol\":34577:34597  pool.lastRewardBlock */\n      0x02\n      add\n      sload\n        /* \"contracts/farm.sol\":34599:34611  block.number */\n      number\n        /* \"contracts/farm.sol\":34563:34576  getMultiplier */\n      tag_116\n        /* \"contracts/farm.sol\":34563:34612  getMultiplier(pool.lastRewardBlock, block.number) */\n      jump\t// in\n    tag_263:\n        /* \"contracts/farm.sol\":34542:34612  uint256 multiplier = getMultiplier(pool.lastRewardBlock, block.number) */\n      swap1\n      pop\n        /* \"contracts/farm.sol\":34622:34639  uint256 seaReward */\n      0x00\n        /* \"contracts/farm.sol\":34642:34750  multiplier... */\n      tag_264\n        /* \"contracts/farm.sol\":34734:34749  totalAllocPoint */\n      sload(0x09)\n        /* \"contracts/farm.sol\":34642:34716  multiplier... */\n      tag_265\n        /* \"contracts/farm.sol\":34700:34704  pool */\n      dup7\n        /* \"contracts/farm.sol\":34700:34715  pool.allocPoint */\n      0x01\n      add\n      sload\n        /* \"contracts/farm.sol\":34642:34682  multiplier... */\n      tag_266\n        /* \"contracts/farm.sol\":34670:34681  seaPerBlock */\n      sload(0x04)\n        /* \"contracts/farm.sol\":34642:34652  multiplier */\n      dup8\n        /* \"contracts/farm.sol\":34642:34669  multiplier... */\n      tag_201\n      swap1\n        /* \"contracts/farm.sol\":34642:34682  multiplier... */\n      swap2\n      swap1\n      0xffffffff\n      and\n      jump\t// in\n    tag_266:\n        /* \"contracts/farm.sol\":34642:34699  multiplier... */\n      tag_201\n      swap1\n        /* \"contracts/farm.sol\":34642:34716  multiplier... */\n      swap2\n      swap1\n      0xffffffff\n      and\n      jump\t// in\n    tag_265:\n        /* \"contracts/farm.sol\":34642:34733  multiplier... */\n      tag_202\n      swap1\n        /* \"contracts/farm.sol\":34642:34750  multiplier... */\n      swap2\n      swap1\n      0xffffffff\n      and\n      jump\t// in\n    tag_264:\n        /* \"contracts/farm.sol\":34622:34750  uint256 seaReward = multiplier... */\n      swap1\n      pop\n        /* \"contracts/farm.sol\":34765:34768  sea */\n      0x02\n      0x00\n      swap1\n      sload\n      swap1\n      0x0100\n      exp\n      swap1\n      div\n      0xffffffffffffffffffffffffffffffffffffffff\n      and\n        /* \"contracts/farm.sol\":34760:34774  ISea(sea).mint */\n      0xffffffffffffffffffffffffffffffffffffffff\n      and\n      0x40c10f19\n        /* \"contracts/farm.sol\":34775:34782  devaddr */\n      0x03\n      0x00\n      swap1\n      sload\n      swap1\n      0x0100\n      exp\n      swap1\n      div\n      0xffffffffffffffffffffffffffffffffffffffff\n      and\n        /* \"contracts/farm.sol\":34784:34810  seaReward.mul(20).div(100) */\n      tag_267\n        /* \"contracts/farm.sol\":34806:34809  100 */\n      0x64\n        /* \"contracts/farm.sol\":34784:34801  seaReward.mul(20) */\n      tag_268\n        /* \"contracts/farm.sol\":34798:34800  20 */\n      0x14\n        /* \"contracts/farm.sol\":34784:34793  seaReward */\n      dup8\n        /* \"contracts/farm.sol\":34784:34797  seaReward.mul */\n      tag_201\n      swap1\n        /* \"contracts/farm.sol\":34784:34801  seaReward.mul(20) */\n      swap2\n      swap1\n      0xffffffff\n      and\n      jump\t// in\n    tag_268:\n        /* \"contracts/farm.sol\":34784:34805  seaReward.mul(20).div */\n      tag_202\n      swap1\n        /* \"contracts/farm.sol\":34784:34810  seaReward.mul(20).div(100) */\n      swap2\n      swap1\n      0xffffffff\n      and\n      jump\t// in\n    tag_267:\n        /* \"contracts/farm.sol\":34760:34811  ISea(sea).mint(devaddr, seaReward.mul(20).div(100)) */\n      mload(0x40)\n      dup4\n      0xffffffff\n      and\n      0xe0\n      shl\n      dup2\n      mstore\n      0x04\n      add\n      tag_269\n      swap3\n      swap2\n      swap1\n      tag_270\n      jump\t// in\n    tag_269:\n      0x20\n      mload(0x40)\n      dup1\n      dup4\n      sub\n      dup2\n      0x00\n      dup8\n      dup1\n      extcodesize\n      iszero\n      dup1\n      iszero\n      tag_271\n      jumpi\n      0x00\n      dup1\n      revert\n    tag_271:\n      pop\n      gas\n      call\n      iszero\n      dup1\n      iszero\n      tag_273\n      jumpi\n      returndatasize\n      0x00\n      dup1\n      returndatacopy\n      revert(0x00, returndatasize)\n    tag_273:\n      pop\n      pop\n      pop\n      pop\n      mload(0x40)\n      returndatasize\n      not(0x1f)\n      0x1f\n      dup3\n      add\n      and\n      dup3\n      add\n      dup1\n      0x40\n      mstore\n      pop\n      dup2\n      add\n      swap1\n      tag_274\n      swap2\n      swap1\n      tag_275\n      jump\t// in\n    tag_274:\n      pop\n        /* \"contracts/farm.sol\":34826:34829  sea */\n      0x02\n      0x00\n      swap1\n      sload\n      swap1\n      0x0100\n      exp\n      swap1\n      div\n      0xffffffffffffffffffffffffffffffffffffffff\n      and\n        /* \"contracts/farm.sol\":34821:34835  ISea(sea).mint */\n      0xffffffffffffffffffffffffffffffffffffffff\n      and\n      0x40c10f19\n        /* \"contracts/farm.sol\":34844:34848  this */\n      address\n        /* \"contracts/farm.sol\":34851:34860  seaReward */\n      dup4\n        /* \"contracts/farm.sol\":34821:34861  ISea(sea).mint(address(this), seaReward) */\n      mload(0x40)\n      dup4\n      0xffffffff\n      and\n      0xe0\n      shl\n      dup2\n      mstore\n      0x04\n      add\n      tag_276\n      swap3\n      swap2\n      swap1\n      tag_270\n      jump\t// in\n    tag_276:\n      0x20\n      mload(0x40)\n      dup1\n      dup4\n      sub\n      dup2\n      0x00\n      dup8\n      dup1\n      extcodesize\n      iszero\n      dup1\n      iszero\n      tag_277\n      jumpi\n      0x00\n      dup1\n      revert\n    tag_277:\n      pop\n      gas\n      call\n      iszero\n      dup1\n      iszero\n      tag_279\n      jumpi\n      returndatasize\n      0x00\n      dup1\n      returndatacopy\n      revert(0x00, returndatasize)\n    tag_279:\n      pop\n      pop\n      pop\n      pop\n      mload(0x40)\n      returndatasize\n      not(0x1f)\n      0x1f\n      dup3\n      add\n      and\n      dup3\n      add\n      dup1\n      0x40\n      mstore\n      pop\n      dup2\n      add\n      swap1\n      tag_280\n      swap2\n      swap1\n      tag_275\n      jump\t// in\n    tag_280:\n      pop\n        /* \"contracts/farm.sol\":34893:34976  pool.accSeaPerShare.add(... */\n      tag_281\n        /* \"contracts/farm.sol\":34930:34966  seaReward.mul(GLO_VAL).div(lpSupply) */\n      tag_282\n        /* \"contracts/farm.sol\":34957:34965  lpSupply */\n      dup5\n        /* \"contracts/farm.sol\":34930:34952  seaReward.mul(GLO_VAL) */\n      tag_283\n        /* \"contracts/farm.sol\":25348:25352  1e12 */\n      0xe8d4a51000\n        /* \"contracts/farm.sol\":34930:34939  seaReward */\n      dup6\n        /* \"contracts/farm.sol\":34930:34943  seaReward.mul */\n      tag_201\n      swap1\n        /* \"contracts/farm.sol\":34930:34952  seaReward.mul(GLO_VAL) */\n      swap2\n      swap1\n      0xffffffff\n      and\n      jump\t// in\n    tag_283:\n        /* \"contracts/farm.sol\":34930:34956  seaReward.mul(GLO_VAL).div */\n      tag_202\n      swap1\n        /* \"contracts/farm.sol\":34930:34966  seaReward.mul(GLO_VAL).div(lpSupply) */\n      swap2\n      swap1\n      0xffffffff\n      and\n      jump\t// in\n    tag_282:\n        /* \"contracts/farm.sol\":34893:34897  pool */\n      dup6\n        /* \"contracts/farm.sol\":34893:34912  pool.accSeaPerShare */\n      0x03\n      add\n      sload\n        /* \"contracts/farm.sol\":34893:34916  pool.accSeaPerShare.add */\n      tag_198\n      swap1\n        /* \"contracts/farm.sol\":34893:34976  pool.accSeaPerShare.add(... */\n      swap2\n      swap1\n      0xffffffff\n      and\n      jump\t// in\n    tag_281:\n        /* \"contracts/farm.sol\":34871:34875  pool */\n      dup5\n        /* \"contracts/farm.sol\":34871:34890  pool.accSeaPerShare */\n      0x03\n      add\n        /* \"contracts/farm.sol\":34871:34976  pool.accSeaPerShare = pool.accSeaPerShare.add(... */\n      dup2\n      swap1\n      sstore\n      pop\n        /* \"contracts/farm.sol\":35050:35063  bonusEndBlock */\n      sload(0x06)\n        /* \"contracts/farm.sol\":35034:35046  block.number */\n      number\n        /* \"contracts/farm.sol\":35034:35063  block.number <= bonusEndBlock */\n      gt\n        /* \"contracts/farm.sol\":35030:35142  if (block.number <= bonusEndBlock) {... */\n      tag_284\n      jumpi\n        /* \"contracts/farm.sol\":35112:35116  pool */\n      dup4\n        /* \"contracts/farm.sol\":35112:35131  pool.accSeaPerShare */\n      0x03\n      add\n      sload\n        /* \"contracts/farm.sol\":35079:35083  pool */\n      dup5\n        /* \"contracts/farm.sol\":35079:35109  pool.accSeaPerShareTilBonusEnd */\n      0x04\n      add\n        /* \"contracts/farm.sol\":35079:35131  pool.accSeaPerShareTilBonusEnd = pool.accSeaPerShare */\n      dup2\n      swap1\n      sstore\n      pop\n        /* \"contracts/farm.sol\":35030:35142  if (block.number <= bonusEndBlock) {... */\n    tag_284:\n        /* \"contracts/farm.sol\":35183:35196  bonusEndBlock */\n      sload(0x06)\n        /* \"contracts/farm.sol\":35168:35180  block.number */\n      number\n        /* \"contracts/farm.sol\":35168:35196  block.number > bonusEndBlock */\n      gt\n        /* \"contracts/farm.sol\":35168:35236  block.number > bonusEndBlock && pool.lastRewardBlock < bonusEndBlock */\n      dup1\n      iszero\n      tag_285\n      jumpi\n      pop\n        /* \"contracts/farm.sol\":35223:35236  bonusEndBlock */\n      sload(0x06)\n        /* \"contracts/farm.sol\":35200:35204  pool */\n      dup5\n        /* \"contracts/farm.sol\":35200:35220  pool.lastRewardBlock */\n      0x02\n      add\n      sload\n        /* \"contracts/farm.sol\":35200:35236  pool.lastRewardBlock < bonusEndBlock */\n      lt\n        /* \"contracts/farm.sol\":35168:35236  block.number > bonusEndBlock && pool.lastRewardBlock < bonusEndBlock */\n    tag_285:\n        /* \"contracts/farm.sol\":35151:35657  if (... */\n      iszero\n      tag_286\n      jumpi\n        /* \"contracts/farm.sol\":35261:35284  uint256 SeaBonusPortion */\n      0x00\n        /* \"contracts/farm.sol\":35287:35491  bonusEndBlock... */\n      tag_287\n        /* \"contracts/farm.sol\":35475:35490  totalAllocPoint */\n      sload(0x09)\n        /* \"contracts/farm.sol\":35287:35453  bonusEndBlock... */\n      tag_288\n        /* \"contracts/farm.sol\":35437:35441  pool */\n      dup8\n        /* \"contracts/farm.sol\":35437:35452  pool.allocPoint */\n      0x01\n      add\n      sload\n        /* \"contracts/farm.sol\":35287:35415  bonusEndBlock... */\n      tag_289\n        /* \"contracts/farm.sol\":35403:35414  seaPerBlock */\n      sload(0x04)\n        /* \"contracts/farm.sol\":35287:35381  bonusEndBlock... */\n      tag_290\n        /* \"contracts/farm.sol\":35365:35380  bonusMultiplier */\n      sload(0x05)\n        /* \"contracts/farm.sol\":35287:35343  bonusEndBlock... */\n      tag_291\n        /* \"contracts/farm.sol\":35322:35326  pool */\n      dup14\n        /* \"contracts/farm.sol\":35322:35342  pool.lastRewardBlock */\n      0x02\n      add\n      sload\n        /* \"contracts/farm.sol\":35287:35300  bonusEndBlock */\n      sload(0x06)\n        /* \"contracts/farm.sol\":35287:35321  bonusEndBlock... */\n      tag_238\n      swap1\n        /* \"contracts/farm.sol\":35287:35343  bonusEndBlock... */\n      swap2\n      swap1\n      0xffffffff\n      and\n      jump\t// in\n    tag_291:\n        /* \"contracts/farm.sol\":35287:35364  bonusEndBlock... */\n      tag_201\n      swap1\n        /* \"contracts/farm.sol\":35287:35381  bonusEndBlock... */\n      swap2\n      swap1\n      0xffffffff\n      and\n      jump\t// in\n    tag_290:\n        /* \"contracts/farm.sol\":35287:35402  bonusEndBlock... */\n      tag_201\n      swap1\n        /* \"contracts/farm.sol\":35287:35415  bonusEndBlock... */\n      swap2\n      swap1\n      0xffffffff\n      and\n      jump\t// in\n    tag_289:\n        /* \"contracts/farm.sol\":35287:35436  bonusEndBlock... */\n      tag_201\n      swap1\n        /* \"contracts/farm.sol\":35287:35453  bonusEndBlock... */\n      swap2\n      swap1\n      0xffffffff\n      and\n      jump\t// in\n    tag_288:\n        /* \"contracts/farm.sol\":35287:35474  bonusEndBlock... */\n      tag_202\n      swap1\n        /* \"contracts/farm.sol\":35287:35491  bonusEndBlock... */\n      swap2\n      swap1\n      0xffffffff\n      and\n      jump\t// in\n    tag_287:\n        /* \"contracts/farm.sol\":35261:35491  uint256 SeaBonusPortion = bonusEndBlock... */\n      swap1\n      pop\n        /* \"contracts/farm.sol\":35538:35646  pool.accSeaPerShareTilBonusEnd.add(... */\n      tag_292\n        /* \"contracts/farm.sol\":35590:35632  SeaBonusPortion.mul(GLO_VAL).div(lpSupply) */\n      tag_293\n        /* \"contracts/farm.sol\":35623:35631  lpSupply */\n      dup6\n        /* \"contracts/farm.sol\":35590:35618  SeaBonusPortion.mul(GLO_VAL) */\n      tag_294\n        /* \"contracts/farm.sol\":25348:25352  1e12 */\n      0xe8d4a51000\n        /* \"contracts/farm.sol\":35590:35605  SeaBonusPortion */\n      dup6\n        /* \"contracts/farm.sol\":35590:35609  SeaBonusPortion.mul */\n      tag_201\n      swap1\n        /* \"contracts/farm.sol\":35590:35618  SeaBonusPortion.mul(GLO_VAL) */\n      swap2\n      swap1\n      0xffffffff\n      and\n      jump\t// in\n    tag_294:\n        /* \"contracts/farm.sol\":35590:35622  SeaBonusPortion.mul(GLO_VAL).div */\n      tag_202\n      swap1\n        /* \"contracts/farm.sol\":35590:35632  SeaBonusPortion.mul(GLO_VAL).div(lpSupply) */\n      swap2\n      swap1\n      0xffffffff\n      and\n      jump\t// in\n    tag_293:\n        /* \"contracts/farm.sol\":35538:35542  pool */\n      dup7\n        /* \"contracts/farm.sol\":35538:35568  pool.accSeaPerShareTilBonusEnd */\n      0x04\n      add\n      sload\n        /* \"contracts/farm.sol\":35538:35572  pool.accSeaPerShareTilBonusEnd.add */\n      tag_198\n      swap1\n        /* \"contracts/farm.sol\":35538:35646  pool.accSeaPerShareTilBonusEnd.add(... */\n      swap2\n      swap1\n      0xffffffff\n      and\n      jump\t// in\n    tag_292:\n        /* \"contracts/farm.sol\":35505:35509  pool */\n      dup6\n        /* \"contracts/farm.sol\":35505:35535  pool.accSeaPerShareTilBonusEnd */\n      0x04\n      add\n        /* \"contracts/farm.sol\":35505:35646  pool.accSeaPerShareTilBonusEnd = pool.accSeaPerShareTilBonusEnd.add(... */\n      dup2\n      swap1\n      sstore\n      pop\n        /* \"contracts/farm.sol\":35151:35657  if (... */\n      pop\n    tag_286:\n        /* \"contracts/farm.sol\":35689:35701  block.number */\n      number\n        /* \"contracts/farm.sol\":35666:35670  pool */\n      dup5\n        /* \"contracts/farm.sol\":35666:35686  pool.lastRewardBlock */\n      0x02\n      add\n        /* \"contracts/farm.sol\":35666:35701  pool.lastRewardBlock = block.number */\n      dup2\n      swap1\n      sstore\n      pop\n        /* \"contracts/farm.sol\":34167:35708  function updatePool(uint256 _pid) public override {... */\n      pop\n      pop\n      pop\n      pop\n    tag_253:\n      pop\n      jump\t// out\n        /* \"contracts/farm.sol\":39021:39414  function emergencyWithdraw(uint256 _pid) public {... */\n    tag_102:\n        /* \"contracts/farm.sol\":39079:39100  PoolInfo storage pool */\n      0x00\n        /* \"contracts/farm.sol\":39103:39111  poolInfo */\n      0x07\n        /* \"contracts/farm.sol\":39112:39116  _pid */\n      dup3\n        /* \"contracts/farm.sol\":39103:39117  poolInfo[_pid] */\n      dup2\n      sload\n      dup2\n      lt\n      tag_296\n      jumpi\n      mstore(0x00, 0x4e487b7100000000000000000000000000000000000000000000000000000000)\n      mstore(0x04, 0x32)\n      revert(0x00, 0x24)\n    tag_296:\n      swap1\n      0x00\n      mstore\n      keccak256(0x00, 0x20)\n      swap1\n      0x05\n      mul\n      add\n        /* \"contracts/farm.sol\":39079:39117  PoolInfo storage pool = poolInfo[_pid] */\n      swap1\n      pop\n        /* \"contracts/farm.sol\":39127:39148  UserInfo storage user */\n      0x00\n        /* \"contracts/farm.sol\":39151:39159  userInfo */\n      0x08\n        /* \"contracts/farm.sol\":39151:39165  userInfo[_pid] */\n      0x00\n        /* \"contracts/farm.sol\":39160:39164  _pid */\n      dup5\n        /* \"contracts/farm.sol\":39151:39165  userInfo[_pid] */\n      dup2\n      mstore\n      0x20\n      add\n      swap1\n      dup2\n      mstore\n      0x20\n      add\n      0x00\n      keccak256\n        /* \"contracts/farm.sol\":39151:39177  userInfo[_pid][msg.sender] */\n      0x00\n        /* \"contracts/farm.sol\":39166:39176  msg.sender */\n      caller\n        /* \"contracts/farm.sol\":39151:39177  userInfo[_pid][msg.sender] */\n      0xffffffffffffffffffffffffffffffffffffffff\n      and\n      0xffffffffffffffffffffffffffffffffffffffff\n      and\n      dup2\n      mstore\n      0x20\n      add\n      swap1\n      dup2\n      mstore\n      0x20\n      add\n      0x00\n      keccak256\n        /* \"contracts/farm.sol\":39127:39177  UserInfo storage user = userInfo[_pid][msg.sender] */\n      swap1\n      pop\n        /* \"contracts/farm.sol\":39187:39201  uint256 amount */\n      0x00\n        /* \"contracts/farm.sol\":39204:39208  user */\n      dup2\n        /* \"contracts/farm.sol\":39204:39215  user.amount */\n      0x00\n      add\n      sload\n        /* \"contracts/farm.sol\":39187:39215  uint256 amount = user.amount */\n      swap1\n      pop\n        /* \"contracts/farm.sol\":39239:39240  0 */\n      0x00\n        /* \"contracts/farm.sol\":39225:39229  user */\n      dup3\n        /* \"contracts/farm.sol\":39225:39236  user.amount */\n      0x00\n      add\n        /* \"contracts/farm.sol\":39225:39240  user.amount = 0 */\n      dup2\n      swap1\n      sstore\n      pop\n        /* \"contracts/farm.sol\":39268:39269  0 */\n      0x00\n        /* \"contracts/farm.sol\":39250:39254  user */\n      dup3\n        /* \"contracts/farm.sol\":39250:39265  user.rewardDebt */\n      0x01\n      add\n        /* \"contracts/farm.sol\":39250:39269  user.rewardDebt = 0 */\n      dup2\n      swap1\n      sstore\n      pop\n        /* \"contracts/farm.sol\":39279:39344  IERC20(pool.stakeToken).safeTransfer(address(msg.sender), amount) */\n      tag_298\n        /* \"contracts/farm.sol\":39324:39334  msg.sender */\n      caller\n        /* \"contracts/farm.sol\":39337:39343  amount */\n      dup3\n        /* \"contracts/farm.sol\":39286:39290  pool */\n      dup6\n        /* \"contracts/farm.sol\":39286:39301  pool.stakeToken */\n      0x00\n      add\n      0x00\n      swap1\n      sload\n      swap1\n      0x0100\n      exp\n      swap1\n      div\n      0xffffffffffffffffffffffffffffffffffffffff\n      and\n        /* \"contracts/farm.sol\":39279:39315  IERC20(pool.stakeToken).safeTransfer */\n      0xffffffffffffffffffffffffffffffffffffffff\n      and\n      tag_299\n      swap1\n        /* \"contracts/farm.sol\":39279:39344  IERC20(pool.stakeToken).safeTransfer(address(msg.sender), amount) */\n      swap3\n      swap2\n      swap1\n      0xffffffff\n      and\n      jump\t// in\n    tag_298:\n        /* \"contracts/farm.sol\":39389:39393  _pid */\n      dup4\n        /* \"contracts/farm.sol\":39377:39387  msg.sender */\n      caller\n        /* \"contracts/farm.sol\":39359:39407  EmergencyWithdraw(msg.sender, _pid, user.amount) */\n      0xffffffffffffffffffffffffffffffffffffffff\n      and\n      0xbb757047c2b5f3974fe26b7c10f732e7bce710b0952a71082702781e62ae0595\n        /* \"contracts/farm.sol\":39395:39399  user */\n      dup5\n        /* \"contracts/farm.sol\":39395:39406  user.amount */\n      0x00\n      add\n      sload\n        /* \"contracts/farm.sol\":39359:39407  EmergencyWithdraw(msg.sender, _pid, user.amount) */\n      mload(0x40)\n      tag_300\n      swap2\n      swap1\n      tag_50\n      jump\t// in\n    tag_300:\n      mload(0x40)\n      dup1\n      swap2\n      sub\n      swap1\n      log3\n        /* \"contracts/farm.sol\":39021:39414  function emergencyWithdraw(uint256 _pid) public {... */\n      pop\n      pop\n      pop\n      pop\n      jump\t// out\n        /* \"contracts/farm.sol\":33919:34094  function massUpdatePools() public {... */\n    tag_104:\n        /* \"contracts/farm.sol\":33963:33977  uint256 length */\n      0x00\n        /* \"contracts/farm.sol\":33980:33988  poolInfo */\n      0x07\n        /* \"contracts/farm.sol\":33980:33995  poolInfo.length */\n      dup1\n      sload\n      swap1\n      pop\n        /* \"contracts/farm.sol\":33963:33995  uint256 length = poolInfo.length */\n      swap1\n      pop\n        /* \"contracts/farm.sol\":34010:34021  uint256 pid */\n      0x00\n        /* \"contracts/farm.sol\":34005:34088  for (uint256 pid = 0; pid < length; ++pid) {... */\n    tag_302:\n        /* \"contracts/farm.sol\":34033:34039  length */\n      dup2\n        /* \"contracts/farm.sol\":34027:34030  pid */\n      dup2\n        /* \"contracts/farm.sol\":34027:34039  pid < length */\n      lt\n        /* \"contracts/farm.sol\":34005:34088  for (uint256 pid = 0; pid < length; ++pid) {... */\n      iszero\n      tag_303\n      jumpi\n        /* \"contracts/farm.sol\":34062:34077  updatePool(pid) */\n      tag_305\n        /* \"contracts/farm.sol\":34073:34076  pid */\n      dup2\n        /* \"contracts/farm.sol\":34062:34072  updatePool */\n      tag_99\n        /* \"contracts/farm.sol\":34062:34077  updatePool(pid) */\n      jump\t// in\n    tag_305:\n        /* \"contracts/farm.sol\":34041:34046  ++pid */\n      dup1\n      tag_306\n      swap1\n      tag_307\n      jump\t// in\n    tag_306:\n      swap1\n      pop\n        /* \"contracts/farm.sol\":34005:34088  for (uint256 pid = 0; pid < length; ++pid) {... */\n      jump(tag_302)\n    tag_303:\n      pop\n        /* \"contracts/farm.sol\":33919:34094  function massUpdatePools() public {... */\n      pop\n      jump\t// out\n        /* \"@openzeppelin/contracts/access/Ownable.sol\":1668:1769  function renounceOwnership() public virtual onlyOwner {... */\n    tag_106:\n        /* \"@openzeppelin/contracts/access/Ownable.sol\":1259:1271  _msgSender() */\n      tag_309\n        /* \"@openzeppelin/contracts/access/Ownable.sol\":1259:1269  _msgSender */\n      tag_164\n        /* \"@openzeppelin/contracts/access/Ownable.sol\":1259:1271  _msgSender() */\n      jump\t// in\n    tag_309:\n        /* \"@openzeppelin/contracts/access/Ownable.sol\":1248:1271  owner() == _msgSender() */\n      0xffffffffffffffffffffffffffffffffffffffff\n      and\n        /* \"@openzeppelin/contracts/access/Ownable.sol\":1248:1255  owner() */\n      tag_310\n        /* \"@openzeppelin/contracts/access/Ownable.sol\":1248:1253  owner */\n      tag_112\n        /* \"@openzeppelin/contracts/access/Ownable.sol\":1248:1255  owner() */\n      jump\t// in\n    tag_310:\n        /* \"@openzeppelin/contracts/access/Ownable.sol\":1248:1271  owner() == _msgSender() */\n      0xffffffffffffffffffffffffffffffffffffffff\n      and\n      eq\n        /* \"@openzeppelin/contracts/access/Ownable.sol\":1240:1308  require(owner() == _msgSender(), \"Ownable: caller is not the owner\") */\n      tag_311\n      jumpi\n      mload(0x40)\n      0x08c379a000000000000000000000000000000000000000000000000000000000\n      dup2\n      mstore\n      0x04\n      add\n      tag_312\n      swap1\n      tag_168\n      jump\t// in\n    tag_312:\n      mload(0x40)\n      dup1\n      swap2\n      sub\n      swap1\n      revert\n    tag_311:\n        /* \"@openzeppelin/contracts/access/Ownable.sol\":1732:1762  _transferOwnership(address(0)) */\n      tag_314\n        /* \"@openzeppelin/contracts/access/Ownable.sol\":1759:1760  0 */\n      0x00\n        /* \"@openzeppelin/contracts/access/Ownable.sol\":1732:1750  _transferOwnership */\n      tag_315\n        /* \"@openzeppelin/contracts/access/Ownable.sol\":1732:1762  _transferOwnership(address(0)) */\n      jump\t// in\n    tag_314:\n        /* \"@openzeppelin/contracts/access/Ownable.sol\":1668:1769  function renounceOwnership() public virtual onlyOwner {... */\n      jump\t// out\n        /* \"contracts/farm.sol\":30213:31022  function addPool(... */\n    tag_110:\n        /* \"@openzeppelin/contracts/access/Ownable.sol\":1259:1271  _msgSender() */\n      tag_317\n        /* \"@openzeppelin/contracts/access/Ownable.sol\":1259:1269  _msgSender */\n      tag_164\n        /* \"@openzeppelin/contracts/access/Ownable.sol\":1259:1271  _msgSender() */\n      jump\t// in\n    tag_317:\n        /* \"@openzeppelin/contracts/access/Ownable.sol\":1248:1271  owner() == _msgSender() */\n      0xffffffffffffffffffffffffffffffffffffffff\n      and\n        /* \"@openzeppelin/contracts/access/Ownable.sol\":1248:1255  owner() */\n      tag_318\n        /* \"@openzeppelin/contracts/access/Ownable.sol\":1248:1253  owner */\n      tag_112\n        /* \"@openzeppelin/contracts/access/Ownable.sol\":1248:1255  owner() */\n      jump\t// in\n    tag_318:\n        /* \"@openzeppelin/contracts/access/Ownable.sol\":1248:1271  owner() == _msgSender() */\n      0xffffffffffffffffffffffffffffffffffffffff\n      and\n      eq\n        /* \"@openzeppelin/contracts/access/Ownable.sol\":1240:1308  require(owner() == _msgSender(), \"Ownable: caller is not the owner\") */\n      tag_319\n      jumpi\n      mload(0x40)\n      0x08c379a000000000000000000000000000000000000000000000000000000000\n      dup2\n      mstore\n      0x04\n      add\n      tag_320\n      swap1\n      tag_168\n      jump\t// in\n    tag_320:\n      mload(0x40)\n      dup1\n      swap2\n      sub\n      swap1\n      revert\n    tag_319:\n        /* \"contracts/farm.sol\":30360:30371  _withUpdate */\n      dup1\n        /* \"contracts/farm.sol\":30356:30415  if (_withUpdate) {... */\n      iszero\n      tag_322\n      jumpi\n        /* \"contracts/farm.sol\":30387:30404  massUpdatePools() */\n      tag_323\n        /* \"contracts/farm.sol\":30387:30402  massUpdatePools */\n      tag_104\n        /* \"contracts/farm.sol\":30387:30404  massUpdatePools() */\n      jump\t// in\n    tag_323:\n        /* \"contracts/farm.sol\":30356:30415  if (_withUpdate) {... */\n    tag_322:\n        /* \"contracts/farm.sol\":30455:30456  0 */\n      0x00\n        /* \"contracts/farm.sol\":30432:30457  _stakeToken != address(0) */\n      0xffffffffffffffffffffffffffffffffffffffff\n      and\n        /* \"contracts/farm.sol\":30432:30443  _stakeToken */\n      dup3\n        /* \"contracts/farm.sol\":30432:30457  _stakeToken != address(0) */\n      0xffffffffffffffffffffffffffffffffffffffff\n      and\n      eq\n      iszero\n        /* \"contracts/farm.sol\":30424:30486  require(_stakeToken != address(0), \"add: not stakeToken addr\") */\n      tag_324\n      jumpi\n      mload(0x40)\n      0x08c379a000000000000000000000000000000000000000000000000000000000\n      dup2\n      mstore\n      0x04\n      add\n      tag_325\n      swap1\n      tag_326\n      jump\t// in\n    tag_325:\n      mload(0x40)\n      dup1\n      swap2\n      sub\n      swap1\n      revert\n    tag_324:\n        /* \"contracts/farm.sol\":30505:30534  isDuplicatedPool(_stakeToken) */\n      tag_327\n        /* \"contracts/farm.sol\":30522:30533  _stakeToken */\n      dup3\n        /* \"contracts/farm.sol\":30505:30521  isDuplicatedPool */\n      tag_133\n        /* \"contracts/farm.sol\":30505:30534  isDuplicatedPool(_stakeToken) */\n      jump\t// in\n    tag_327:\n        /* \"contracts/farm.sol\":30504:30534  !isDuplicatedPool(_stakeToken) */\n      iszero\n        /* \"contracts/farm.sol\":30496:30558  require(!isDuplicatedPool(_stakeToken), \"add: stakeToken dup\") */\n      tag_328\n      jumpi\n      mload(0x40)\n      0x08c379a000000000000000000000000000000000000000000000000000000000\n      dup2\n      mstore\n      0x04\n      add\n      tag_329\n      swap1\n      tag_330\n      jump\t// in\n    tag_329:\n      mload(0x40)\n      dup1\n      swap2\n      sub\n      swap1\n      revert\n    tag_328:\n        /* \"contracts/farm.sol\":30568:30591  uint256 lastRewardBlock */\n      0x00\n        /* \"contracts/farm.sol\":30609:30619  startBlock */\n      sload(0x0a)\n        /* \"contracts/farm.sol\":30594:30606  block.number */\n      number\n        /* \"contracts/farm.sol\":30594:30619  block.number > startBlock */\n      gt\n        /* \"contracts/farm.sol\":30594:30671  block.number > startBlock... */\n      tag_331\n      jumpi\n        /* \"contracts/farm.sol\":30661:30671  startBlock */\n      sload(0x0a)\n        /* \"contracts/farm.sol\":30594:30671  block.number > startBlock... */\n      jump(tag_332)\n    tag_331:\n        /* \"contracts/farm.sol\":30634:30646  block.number */\n      number\n        /* \"contracts/farm.sol\":30594:30671  block.number > startBlock... */\n    tag_332:\n        /* \"contracts/farm.sol\":30568:30671  uint256 lastRewardBlock = block.number > startBlock... */\n      swap1\n      pop\n        /* \"contracts/farm.sol\":30699:30731  totalAllocPoint.add(_allocPoint) */\n      tag_333\n        /* \"contracts/farm.sol\":30719:30730  _allocPoint */\n      dup5\n        /* \"contracts/farm.sol\":30699:30714  totalAllocPoint */\n      sload(0x09)\n        /* \"contracts/farm.sol\":30699:30718  totalAllocPoint.add */\n      tag_198\n      swap1\n        /* \"contracts/farm.sol\":30699:30731  totalAllocPoint.add(_allocPoint) */\n      swap2\n      swap1\n      0xffffffff\n      and\n      jump\t// in\n    tag_333:\n        /* \"contracts/farm.sol\":30681:30696  totalAllocPoint */\n      0x09\n        /* \"contracts/farm.sol\":30681:30731  totalAllocPoint = totalAllocPoint.add(_allocPoint) */\n      dup2\n      swap1\n      sstore\n      pop\n        /* \"contracts/farm.sol\":30741:30749  poolInfo */\n      0x07\n        /* \"contracts/farm.sol\":30768:31005  PoolInfo({... */\n      mload(0x40)\n      dup1\n      0xa0\n      add\n      0x40\n      mstore\n      dup1\n        /* \"contracts/farm.sol\":30807:30818  _stakeToken */\n      dup6\n        /* \"contracts/farm.sol\":30768:31005  PoolInfo({... */\n      0xffffffffffffffffffffffffffffffffffffffff\n      and\n      dup2\n      mstore\n      0x20\n      add\n        /* \"contracts/farm.sol\":30848:30859  _allocPoint */\n      dup7\n        /* \"contracts/farm.sol\":30768:31005  PoolInfo({... */\n      dup2\n      mstore\n      0x20\n      add\n        /* \"contracts/farm.sol\":30894:30909  lastRewardBlock */\n      dup4\n        /* \"contracts/farm.sol\":30768:31005  PoolInfo({... */\n      dup2\n      mstore\n      0x20\n      add\n        /* \"contracts/farm.sol\":30943:30944  0 */\n      0x00\n        /* \"contracts/farm.sol\":30768:31005  PoolInfo({... */\n      dup2\n      mstore\n      0x20\n      add\n        /* \"contracts/farm.sol\":30989:30990  0 */\n      0x00\n        /* \"contracts/farm.sol\":30768:31005  PoolInfo({... */\n      dup2\n      mstore\n      pop\n        /* \"contracts/farm.sol\":30741:31015  poolInfo.push(... */\n      swap1\n      dup1\n      0x01\n      dup2\n      sload\n      add\n      dup1\n      dup3\n      sstore\n      dup1\n      swap2\n      pop\n      pop\n      0x01\n      swap1\n      sub\n      swap1\n      0x00\n      mstore\n      keccak256(0x00, 0x20)\n      swap1\n      0x05\n      mul\n      add\n      0x00\n      swap1\n      swap2\n      swap1\n      swap2\n      swap1\n      swap2\n      pop\n      0x00\n      dup3\n      add\n      mload\n      dup2\n      0x00\n      add\n      exp(0x0100, 0x00)\n      dup2\n      sload\n      dup2\n      0xffffffffffffffffffffffffffffffffffffffff\n      mul\n      not\n      and\n      swap1\n      dup4\n      0xffffffffffffffffffffffffffffffffffffffff\n      and\n      mul\n      or\n      swap1\n      sstore\n      pop\n      0x20\n      dup3\n      add\n      mload\n      dup2\n      0x01\n      add\n      sstore\n      0x40\n      dup3\n      add\n      mload\n      dup2\n      0x02\n      add\n      sstore\n      0x60\n      dup3\n      add\n      mload\n      dup2\n      0x03\n      add\n      sstore\n      0x80\n      dup3\n      add\n      mload\n      dup2\n      0x04\n      add\n      sstore\n      pop\n      pop\n        /* \"@openzeppelin/contracts/access/Ownable.sol\":1318:1319  _ */\n      pop\n        /* \"contracts/farm.sol\":30213:31022  function addPool(... */\n      pop\n      pop\n      pop\n      jump\t// out\n        /* \"@openzeppelin/contracts/access/Ownable.sol\":1036:1121  function owner() public view virtual returns (address) {... */\n    tag_112:\n        /* \"@openzeppelin/contracts/access/Ownable.sol\":1082:1089  address */\n      0x00\n        /* \"@openzeppelin/contracts/access/Ownable.sol\":1108:1114  _owner */\n      dup1\n      0x00\n      swap1\n      sload\n      swap1\n      0x0100\n      exp\n      swap1\n      div\n      0xffffffffffffffffffffffffffffffffffffffff\n      and\n        /* \"@openzeppelin/contracts/access/Ownable.sol\":1101:1114  return _owner */\n      swap1\n      pop\n        /* \"@openzeppelin/contracts/access/Ownable.sol\":1036:1121  function owner() public view virtual returns (address) {... */\n      swap1\n      jump\t// out\n        /* \"contracts/farm.sol\":32115:32839  function getMultiplier(uint256 _lastRewardBlock, uint256 _currentBlock)... */\n    tag_116:\n        /* \"contracts/farm.sol\":32232:32239  uint256 */\n      0x00\n        /* \"contracts/farm.sol\":32283:32296  _currentBlock */\n      dup2\n        /* \"contracts/farm.sol\":32263:32279  _lastRewardBlock */\n      dup4\n        /* \"contracts/farm.sol\":32263:32296  _lastRewardBlock <= _currentBlock */\n      gt\n      iszero\n        /* \"contracts/farm.sol\":32255:32321  require(_lastRewardBlock <= _currentBlock, \"Block range exceeded\") */\n      tag_337\n      jumpi\n      mload(0x40)\n      0x08c379a000000000000000000000000000000000000000000000000000000000\n      dup2\n      mstore\n      0x04\n      add\n      tag_338\n      swap1\n      tag_339\n      jump\t// in\n    tag_338:\n      mload(0x40)\n      dup1\n      swap2\n      sub\n      swap1\n      revert\n    tag_337:\n        /* \"contracts/farm.sol\":32352:32365  bonusEndBlock */\n      sload(0x06)\n        /* \"contracts/farm.sol\":32335:32348  _currentBlock */\n      dup3\n        /* \"contracts/farm.sol\":32335:32365  _currentBlock <= bonusEndBlock */\n      gt\n        /* \"contracts/farm.sol\":32331:32455  if (_currentBlock <= bonusEndBlock) {... */\n      tag_340\n      jumpi\n        /* \"contracts/farm.sol\":32388:32444  _currentBlock.sub(_lastRewardBlock).mul(bonusMultiplier) */\n      tag_341\n        /* \"contracts/farm.sol\":32428:32443  bonusMultiplier */\n      sload(0x05)\n        /* \"contracts/farm.sol\":32388:32423  _currentBlock.sub(_lastRewardBlock) */\n      tag_342\n        /* \"contracts/farm.sol\":32406:32422  _lastRewardBlock */\n      dup6\n        /* \"contracts/farm.sol\":32388:32401  _currentBlock */\n      dup6\n        /* \"contracts/farm.sol\":32388:32405  _currentBlock.sub */\n      tag_238\n      swap1\n        /* \"contracts/farm.sol\":32388:32423  _currentBlock.sub(_lastRewardBlock) */\n      swap2\n      swap1\n      0xffffffff\n      and\n      jump\t// in\n    tag_342:\n        /* \"contracts/farm.sol\":32388:32427  _currentBlock.sub(_lastRewardBlock).mul */\n      tag_201\n      swap1\n        /* \"contracts/farm.sol\":32388:32444  _currentBlock.sub(_lastRewardBlock).mul(bonusMultiplier) */\n      swap2\n      swap1\n      0xffffffff\n      and\n      jump\t// in\n    tag_341:\n        /* \"contracts/farm.sol\":32381:32444  return _currentBlock.sub(_lastRewardBlock).mul(bonusMultiplier) */\n      swap1\n      pop\n      jump(tag_336)\n        /* \"contracts/farm.sol\":32331:32455  if (_currentBlock <= bonusEndBlock) {... */\n    tag_340:\n        /* \"contracts/farm.sol\":32488:32501  bonusEndBlock */\n      sload(0x06)\n        /* \"contracts/farm.sol\":32468:32484  _lastRewardBlock */\n      dup4\n        /* \"contracts/farm.sol\":32468:32501  _lastRewardBlock >= bonusEndBlock */\n      lt\n        /* \"contracts/farm.sol\":32464:32570  if (_lastRewardBlock >= bonusEndBlock) {... */\n      tag_343\n      jumpi\n        /* \"contracts/farm.sol\":32524:32559  _currentBlock.sub(_lastRewardBlock) */\n      tag_344\n        /* \"contracts/farm.sol\":32542:32558  _lastRewardBlock */\n      dup4\n        /* \"contracts/farm.sol\":32524:32537  _currentBlock */\n      dup4\n        /* \"contracts/farm.sol\":32524:32541  _currentBlock.sub */\n      tag_238\n      swap1\n        /* \"contracts/farm.sol\":32524:32559  _currentBlock.sub(_lastRewardBlock) */\n      swap2\n      swap1\n      0xffffffff\n      and\n      jump\t// in\n    tag_344:\n        /* \"contracts/farm.sol\":32517:32559  return _currentBlock.sub(_lastRewardBlock) */\n      swap1\n      pop\n      jump(tag_336)\n        /* \"contracts/farm.sol\":32464:32570  if (_lastRewardBlock >= bonusEndBlock) {... */\n    tag_343:\n        /* \"contracts/farm.sol\":32708:32832  bonusEndBlock.sub(_lastRewardBlock).mul(bonusMultiplier).add(... */\n      tag_345\n        /* \"contracts/farm.sol\":32786:32818  _currentBlock.sub(bonusEndBlock) */\n      tag_346\n        /* \"contracts/farm.sol\":32804:32817  bonusEndBlock */\n      sload(0x06)\n        /* \"contracts/farm.sol\":32786:32799  _currentBlock */\n      dup5\n        /* \"contracts/farm.sol\":32786:32803  _currentBlock.sub */\n      tag_238\n      swap1\n        /* \"contracts/farm.sol\":32786:32818  _currentBlock.sub(bonusEndBlock) */\n      swap2\n      swap1\n      0xffffffff\n      and\n      jump\t// in\n    tag_346:\n        /* \"contracts/farm.sol\":32708:32764  bonusEndBlock.sub(_lastRewardBlock).mul(bonusMultiplier) */\n      tag_347\n        /* \"contracts/farm.sol\":32748:32763  bonusMultiplier */\n      sload(0x05)\n        /* \"contracts/farm.sol\":32708:32743  bonusEndBlock.sub(_lastRewardBlock) */\n      tag_348\n        /* \"contracts/farm.sol\":32726:32742  _lastRewardBlock */\n      dup8\n        /* \"contracts/farm.sol\":32708:32721  bonusEndBlock */\n      sload(0x06)\n        /* \"contracts/farm.sol\":32708:32725  bonusEndBlock.sub */\n      tag_238\n      swap1\n        /* \"contracts/farm.sol\":32708:32743  bonusEndBlock.sub(_lastRewardBlock) */\n      swap2\n      swap1\n      0xffffffff\n      and\n      jump\t// in\n    tag_348:\n        /* \"contracts/farm.sol\":32708:32747  bonusEndBlock.sub(_lastRewardBlock).mul */\n      tag_201\n      swap1\n        /* \"contracts/farm.sol\":32708:32764  bonusEndBlock.sub(_lastRewardBlock).mul(bonusMultiplier) */\n      swap2\n      swap1\n      0xffffffff\n      and\n      jump\t// in\n    tag_347:\n        /* \"contracts/farm.sol\":32708:32768  bonusEndBlock.sub(_lastRewardBlock).mul(bonusMultiplier).add */\n      tag_198\n      swap1\n        /* \"contracts/farm.sol\":32708:32832  bonusEndBlock.sub(_lastRewardBlock).mul(bonusMultiplier).add(... */\n      swap2\n      swap1\n      0xffffffff\n      and\n      jump\t// in\n    tag_345:\n        /* \"contracts/farm.sol\":32689:32832  return... */\n      swap1\n      pop\n        /* \"contracts/farm.sol\":32115:32839  function getMultiplier(uint256 _lastRewardBlock, uint256 _currentBlock)... */\n    tag_336:\n      swap3\n      swap2\n      pop\n      pop\n      jump\t// out\n        /* \"contracts/farm.sol\":39911:40115  function withdrawalERC20(address _address, uint256 _amt)... */\n    tag_121:\n        /* \"contracts/farm.sol\":40020:40024  bool */\n      0x00\n        /* \"@openzeppelin/contracts/access/Ownable.sol\":1259:1271  _msgSender() */\n      tag_350\n        /* \"@openzeppelin/contracts/access/Ownable.sol\":1259:1269  _msgSender */\n      tag_164\n        /* \"@openzeppelin/contracts/access/Ownable.sol\":1259:1271  _msgSender() */\n      jump\t// in\n    tag_350:\n        /* \"@openzeppelin/contracts/access/Ownable.sol\":1248:1271  owner() == _msgSender() */\n      0xffffffffffffffffffffffffffffffffffffffff\n      and\n        /* \"@openzeppelin/contracts/access/Ownable.sol\":1248:1255  owner() */\n      tag_351\n        /* \"@openzeppelin/contracts/access/Ownable.sol\":1248:1253  owner */\n      tag_112\n        /* \"@openzeppelin/contracts/access/Ownable.sol\":1248:1255  owner() */\n      jump\t// in\n    tag_351:\n        /* \"@openzeppelin/contracts/access/Ownable.sol\":1248:1271  owner() == _msgSender() */\n      0xffffffffffffffffffffffffffffffffffffffff\n      and\n      eq\n        /* \"@openzeppelin/contracts/access/Ownable.sol\":1240:1308  require(owner() == _msgSender(), \"Ownable: caller is not the owner\") */\n      tag_352\n      jumpi\n      mload(0x40)\n      0x08c379a000000000000000000000000000000000000000000000000000000000\n      dup2\n      mstore\n      0x04\n      add\n      tag_353\n      swap1\n      tag_168\n      jump\t// in\n    tag_353:\n      mload(0x40)\n      dup1\n      swap2\n      sub\n      swap1\n      revert\n    tag_352:\n        /* \"contracts/farm.sol\":40040:40087  IERC20(_address).safeTransfer(msg.sender, _amt) */\n      tag_355\n        /* \"contracts/farm.sol\":40070:40080  msg.sender */\n      caller\n        /* \"contracts/farm.sol\":40082:40086  _amt */\n      dup4\n        /* \"contracts/farm.sol\":40047:40055  _address */\n      dup6\n        /* \"contracts/farm.sol\":40040:40069  IERC20(_address).safeTransfer */\n      0xffffffffffffffffffffffffffffffffffffffff\n      and\n      tag_299\n      swap1\n        /* \"contracts/farm.sol\":40040:40087  IERC20(_address).safeTransfer(msg.sender, _amt) */\n      swap3\n      swap2\n      swap1\n      0xffffffff\n      and\n      jump\t// in\n    tag_355:\n        /* \"contracts/farm.sol\":40104:40108  true */\n      0x01\n        /* \"contracts/farm.sol\":40097:40108  return true */\n      swap1\n      pop\n        /* \"contracts/farm.sol\":39911:40115  function withdrawalERC20(address _address, uint256 _amt)... */\n      swap3\n      swap2\n      pop\n      pop\n      jump\t// out\n        /* \"contracts/farm.sol\":27227:27291  mapping(uint256 => mapping(address => UserInfo)) public userInfo */\n    tag_125:\n      mstore(0x20, 0x08)\n      dup2\n      0x00\n      mstore\n      mstore(0x20, keccak256(0x00, 0x40))\n      dup1\n      0x00\n      mstore\n      keccak256(0x00, 0x40)\n      0x00\n      swap2\n      pop\n      swap2\n      pop\n      pop\n      dup1\n      0x00\n      add\n      sload\n      swap1\n      dup1\n      0x01\n      add\n      sload\n      swap1\n      dup1\n      0x02\n      add\n      sload\n      swap1\n      dup1\n      0x03\n      add\n      0x00\n      swap1\n      sload\n      swap1\n      0x0100\n      exp\n      swap1\n      div\n      0xffffffffffffffffffffffffffffffffffffffff\n      and\n      swap1\n      pop\n      dup5\n      jump\t// out\n        /* \"contracts/farm.sol\":26997:27027  uint256 public bonusMultiplier */\n    tag_129:\n      sload(0x05)\n      dup2\n      jump\t// out\n        /* \"contracts/farm.sol\":31486:31768  function isDuplicatedPool(address _stakeToken) public view returns (bool) {... */\n    tag_133:\n        /* \"contracts/farm.sol\":31554:31558  bool */\n      0x00\n        /* \"contracts/farm.sol\":31570:31584  uint256 length */\n      dup1\n        /* \"contracts/farm.sol\":31587:31595  poolInfo */\n      0x07\n        /* \"contracts/farm.sol\":31587:31602  poolInfo.length */\n      dup1\n      sload\n      swap1\n      pop\n        /* \"contracts/farm.sol\":31570:31602  uint256 length = poolInfo.length */\n      swap1\n      pop\n        /* \"contracts/farm.sol\":31617:31629  uint256 _pid */\n      0x00\n        /* \"contracts/farm.sol\":31612:31740  for (uint256 _pid = 0; _pid < length; _pid++) {... */\n    tag_357:\n        /* \"contracts/farm.sol\":31642:31648  length */\n      dup2\n        /* \"contracts/farm.sol\":31635:31639  _pid */\n      dup2\n        /* \"contracts/farm.sol\":31635:31648  _pid < length */\n      lt\n        /* \"contracts/farm.sol\":31612:31740  for (uint256 _pid = 0; _pid < length; _pid++) {... */\n      iszero\n      tag_358\n      jumpi\n        /* \"contracts/farm.sol\":31705:31716  _stakeToken */\n      dup4\n        /* \"contracts/farm.sol\":31676:31716  poolInfo[_pid].stakeToken == _stakeToken */\n      0xffffffffffffffffffffffffffffffffffffffff\n      and\n        /* \"contracts/farm.sol\":31676:31684  poolInfo */\n      0x07\n        /* \"contracts/farm.sol\":31685:31689  _pid */\n      dup3\n        /* \"contracts/farm.sol\":31676:31690  poolInfo[_pid] */\n      dup2\n      sload\n      dup2\n      lt\n      tag_360\n      jumpi\n      mstore(0x00, 0x4e487b7100000000000000000000000000000000000000000000000000000000)\n      mstore(0x04, 0x32)\n      revert(0x00, 0x24)\n    tag_360:\n      swap1\n      0x00\n      mstore\n      keccak256(0x00, 0x20)\n      swap1\n      0x05\n      mul\n      add\n        /* \"contracts/farm.sol\":31676:31701  poolInfo[_pid].stakeToken */\n      0x00\n      add\n      0x00\n      swap1\n      sload\n      swap1\n      0x0100\n      exp\n      swap1\n      div\n      0xffffffffffffffffffffffffffffffffffffffff\n      and\n        /* \"contracts/farm.sol\":31676:31716  poolInfo[_pid].stakeToken == _stakeToken */\n      0xffffffffffffffffffffffffffffffffffffffff\n      and\n      eq\n        /* \"contracts/farm.sol\":31672:31729  if (poolInfo[_pid].stakeToken == _stakeToken) return true */\n      iszero\n      tag_362\n      jumpi\n        /* \"contracts/farm.sol\":31725:31729  true */\n      0x01\n        /* \"contracts/farm.sol\":31718:31729  return true */\n      swap3\n      pop\n      pop\n      pop\n      jump(tag_356)\n        /* \"contracts/farm.sol\":31672:31729  if (poolInfo[_pid].stakeToken == _stakeToken) return true */\n    tag_362:\n        /* \"contracts/farm.sol\":31650:31656  _pid++ */\n      dup1\n      dup1\n      tag_363\n      swap1\n      tag_307\n      jump\t// in\n    tag_363:\n      swap2\n      pop\n      pop\n        /* \"contracts/farm.sol\":31612:31740  for (uint256 _pid = 0; _pid < length; _pid++) {... */\n      jump(tag_357)\n    tag_358:\n      pop\n        /* \"contracts/farm.sol\":31756:31761  false */\n      0x00\n        /* \"contracts/farm.sol\":31749:31761  return false */\n      swap2\n      pop\n      pop\n        /* \"contracts/farm.sol\":31486:31768  function isDuplicatedPool(address _stakeToken) public view returns (bool) {... */\n    tag_356:\n      swap2\n      swap1\n      pop\n      jump\t// out\n        /* \"contracts/farm.sol\":36823:36992  function withdraw(... */\n    tag_137:\n        /* \"contracts/farm.sol\":23993:23994  1 */\n      0x01\n        /* \"contracts/farm.sol\":23976:23989  _guardCounter */\n      dup1\n      0x00\n        /* \"contracts/farm.sol\":23976:23994  _guardCounter += 1 */\n      dup3\n      dup3\n      sload\n      tag_365\n      swap2\n      swap1\n      tag_179\n      jump\t// in\n    tag_365:\n      swap3\n      pop\n      pop\n      dup2\n      swap1\n      sstore\n      pop\n        /* \"contracts/farm.sol\":24004:24024  uint256 localCounter */\n      0x00\n        /* \"contracts/farm.sol\":24027:24040  _guardCounter */\n      sload(0x01)\n        /* \"contracts/farm.sol\":24004:24040  uint256 localCounter = _guardCounter */\n      swap1\n      pop\n        /* \"contracts/farm.sol\":36955:36985  _withdraw(_for, _pid, _amount) */\n      tag_367\n        /* \"contracts/farm.sol\":36965:36969  _for */\n      dup5\n        /* \"contracts/farm.sol\":36971:36975  _pid */\n      dup5\n        /* \"contracts/farm.sol\":36977:36984  _amount */\n      dup5\n        /* \"contracts/farm.sol\":36955:36964  _withdraw */\n      tag_368\n        /* \"contracts/farm.sol\":36955:36985  _withdraw(_for, _pid, _amount) */\n      jump\t// in\n    tag_367:\n        /* \"contracts/farm.sol\":24098:24111  _guardCounter */\n      sload(0x01)\n        /* \"contracts/farm.sol\":24082:24094  localCounter */\n      dup2\n        /* \"contracts/farm.sol\":24082:24111  localCounter == _guardCounter */\n      eq\n        /* \"contracts/farm.sol\":24061:24168  require(... */\n      tag_369\n      jumpi\n      mload(0x40)\n      0x08c379a000000000000000000000000000000000000000000000000000000000\n      dup2\n      mstore\n      0x04\n      add\n      tag_370\n      swap1\n      tag_208\n      jump\t// in\n    tag_370:\n      mload(0x40)\n      dup1\n      swap2\n      sub\n      swap1\n      revert\n    tag_369:\n        /* \"contracts/farm.sol\":36823:36992  function withdraw(... */\n      pop\n      pop\n      pop\n      pop\n      jump\t// out\n        /* \"contracts/farm.sol\":36998:37171  function withdrawAll(address _for, uint256 _pid)... */\n    tag_140:\n        /* \"contracts/farm.sol\":23993:23994  1 */\n      0x01\n        /* \"contracts/farm.sol\":23976:23989  _guardCounter */\n      dup1\n      0x00\n        /* \"contracts/farm.sol\":23976:23994  _guardCounter += 1 */\n      dup3\n      dup3\n      sload\n      tag_372\n      swap2\n      swap1\n      tag_179\n      jump\t// in\n    tag_372:\n      swap3\n      pop\n      pop\n      dup2\n      swap1\n      sstore\n      pop\n        /* \"contracts/farm.sol\":24004:24024  uint256 localCounter */\n      0x00\n        /* \"contracts/farm.sol\":24027:24040  _guardCounter */\n      sload(0x01)\n        /* \"contracts/farm.sol\":24004:24040  uint256 localCounter = _guardCounter */\n      swap1\n      pop\n        /* \"contracts/farm.sol\":37114:37164  _withdraw(_for, _pid, userInfo[_pid][_for].amount) */\n      tag_374\n        /* \"contracts/farm.sol\":37124:37128  _for */\n      dup4\n        /* \"contracts/farm.sol\":37130:37134  _pid */\n      dup4\n        /* \"contracts/farm.sol\":37136:37144  userInfo */\n      0x08\n        /* \"contracts/farm.sol\":37136:37150  userInfo[_pid] */\n      0x00\n        /* \"contracts/farm.sol\":37145:37149  _pid */\n      dup7\n        /* \"contracts/farm.sol\":37136:37150  userInfo[_pid] */\n      dup2\n      mstore\n      0x20\n      add\n      swap1\n      dup2\n      mstore\n      0x20\n      add\n      0x00\n      keccak256\n        /* \"contracts/farm.sol\":37136:37156  userInfo[_pid][_for] */\n      0x00\n        /* \"contracts/farm.sol\":37151:37155  _for */\n      dup8\n        /* \"contracts/farm.sol\":37136:37156  userInfo[_pid][_for] */\n      0xffffffffffffffffffffffffffffffffffffffff\n      and\n      0xffffffffffffffffffffffffffffffffffffffff\n      and\n      dup2\n      mstore\n      0x20\n      add\n      swap1\n      dup2\n      mstore\n      0x20\n      add\n      0x00\n      keccak256\n        /* \"contracts/farm.sol\":37136:37163  userInfo[_pid][_for].amount */\n      0x00\n      add\n      sload\n        /* \"contracts/farm.sol\":37114:37123  _withdraw */\n      tag_368\n        /* \"contracts/farm.sol\":37114:37164  _withdraw(_for, _pid, userInfo[_pid][_for].amount) */\n      jump\t// in\n    tag_374:\n        /* \"contracts/farm.sol\":24098:24111  _guardCounter */\n      sload(0x01)\n        /* \"contracts/farm.sol\":24082:24094  localCounter */\n      dup2\n        /* \"contracts/farm.sol\":24082:24111  localCounter == _guardCounter */\n      eq\n        /* \"contracts/farm.sol\":24061:24168  require(... */\n      tag_375\n      jumpi\n      mload(0x40)\n      0x08c379a000000000000000000000000000000000000000000000000000000000\n      dup2\n      mstore\n      0x04\n      add\n      tag_376\n      swap1\n      tag_208\n      jump\t// in\n    tag_376:\n      mload(0x40)\n      dup1\n      swap2\n      sub\n      swap1\n      revert\n    tag_375:\n        /* \"contracts/farm.sol\":36998:37171  function withdrawAll(address _for, uint256 _pid)... */\n      pop\n      pop\n      pop\n      jump\t// out\n        /* \"contracts/farm.sol\":29318:29483  function setDev(address _devaddr) public onlyOwner {... */\n    tag_143:\n        /* \"@openzeppelin/contracts/access/Ownable.sol\":1259:1271  _msgSender() */\n      tag_378\n        /* \"@openzeppelin/contracts/access/Ownable.sol\":1259:1269  _msgSender */\n      tag_164\n        /* \"@openzeppelin/contracts/access/Ownable.sol\":1259:1271  _msgSender() */\n      jump\t// in\n    tag_378:\n        /* \"@openzeppelin/contracts/access/Ownable.sol\":1248:1271  owner() == _msgSender() */\n      0xffffffffffffffffffffffffffffffffffffffff\n      and\n        /* \"@openzeppelin/contracts/access/Ownable.sol\":1248:1255  owner() */\n      tag_379\n        /* \"@openzeppelin/contracts/access/Ownable.sol\":1248:1253  owner */\n      tag_112\n        /* \"@openzeppelin/contracts/access/Ownable.sol\":1248:1255  owner() */\n      jump\t// in\n    tag_379:\n        /* \"@openzeppelin/contracts/access/Ownable.sol\":1248:1271  owner() == _msgSender() */\n      0xffffffffffffffffffffffffffffffffffffffff\n      and\n      eq\n        /* \"@openzeppelin/contracts/access/Ownable.sol\":1240:1308  require(owner() == _msgSender(), \"Ownable: caller is not the owner\") */\n      tag_380\n      jumpi\n      mload(0x40)\n      0x08c379a000000000000000000000000000000000000000000000000000000000\n      dup2\n      mstore\n      0x04\n      add\n      tag_381\n      swap1\n      tag_168\n      jump\t// in\n    tag_381:\n      mload(0x40)\n      dup1\n      swap2\n      sub\n      swap1\n      revert\n    tag_380:\n        /* \"contracts/farm.sol\":29407:29408  0 */\n      0x00\n        /* \"contracts/farm.sol\":29387:29409  _devaddr != address(0) */\n      0xffffffffffffffffffffffffffffffffffffffff\n      and\n        /* \"contracts/farm.sol\":29387:29395  _devaddr */\n      dup2\n        /* \"contracts/farm.sol\":29387:29409  _devaddr != address(0) */\n      0xffffffffffffffffffffffffffffffffffffffff\n      and\n      eq\n      iszero\n        /* \"contracts/farm.sol\":29379:29410  require(_devaddr != address(0)) */\n      tag_383\n      jumpi\n      0x00\n      dup1\n      revert\n    tag_383:\n        /* \"contracts/farm.sol\":29430:29438  _devaddr */\n      dup1\n        /* \"contracts/farm.sol\":29420:29427  devaddr */\n      0x03\n      0x00\n        /* \"contracts/farm.sol\":29420:29438  devaddr = _devaddr */\n      0x0100\n      exp\n      dup2\n      sload\n      dup2\n      0xffffffffffffffffffffffffffffffffffffffff\n      mul\n      not\n      and\n      swap1\n      dup4\n      0xffffffffffffffffffffffffffffffffffffffff\n      and\n      mul\n      or\n      swap1\n      sstore\n      pop\n        /* \"contracts/farm.sol\":29467:29475  _devaddr */\n      dup1\n        /* \"contracts/farm.sol\":29453:29476  SetDevAddress(_devaddr) */\n      0xffffffffffffffffffffffffffffffffffffffff\n      and\n      0xf5721dfa6ddbf8e4a2cd38b2152fff4008050b9b37de59ae1e022dde4bd5df73\n      mload(0x40)\n      mload(0x40)\n      dup1\n      swap2\n      sub\n      swap1\n      log2\n        /* \"contracts/farm.sol\":29318:29483  function setDev(address _devaddr) public onlyOwner {... */\n      pop\n      jump\t// out\n        /* \"contracts/farm.sol\":26855:26877  address public devaddr */\n    tag_145:\n      0x03\n      0x00\n      swap1\n      sload\n      swap1\n      0x0100\n      exp\n      swap1\n      div\n      0xffffffffffffffffffffffffffffffffffffffff\n      and\n      dup2\n      jump\t// out\n        /* \"contracts/farm.sol\":29489:29638  function setSeaPerBlock(uint256 _seaPerBlock) public onlyOwner {... */\n    tag_149:\n        /* \"@openzeppelin/contracts/access/Ownable.sol\":1259:1271  _msgSender() */\n      tag_385\n        /* \"@openzeppelin/contracts/access/Ownable.sol\":1259:1269  _msgSender */\n      tag_164\n        /* \"@openzeppelin/contracts/access/Ownable.sol\":1259:1271  _msgSender() */\n      jump\t// in\n    tag_385:\n        /* \"@openzeppelin/contracts/access/Ownable.sol\":1248:1271  owner() == _msgSender() */\n      0xffffffffffffffffffffffffffffffffffffffff\n      and\n        /* \"@openzeppelin/contracts/access/Ownable.sol\":1248:1255  owner() */\n      tag_386\n        /* \"@openzeppelin/contracts/access/Ownable.sol\":1248:1253  owner */\n      tag_112\n        /* \"@openzeppelin/contracts/access/Ownable.sol\":1248:1255  owner() */\n      jump\t// in\n    tag_386:\n        /* \"@openzeppelin/contracts/access/Ownable.sol\":1248:1271  owner() == _msgSender() */\n      0xffffffffffffffffffffffffffffffffffffffff\n      and\n      eq\n        /* \"@openzeppelin/contracts/access/Ownable.sol\":1240:1308  require(owner() == _msgSender(), \"Ownable: caller is not the owner\") */\n      tag_387\n      jumpi\n      mload(0x40)\n      0x08c379a000000000000000000000000000000000000000000000000000000000\n      dup2\n      mstore\n      0x04\n      add\n      tag_388\n      swap1\n      tag_168\n      jump\t// in\n    tag_388:\n      mload(0x40)\n      dup1\n      swap2\n      sub\n      swap1\n      revert\n    tag_387:\n        /* \"contracts/farm.sol\":29576:29588  _seaPerBlock */\n      dup1\n        /* \"contracts/farm.sol\":29562:29573  seaPerBlock */\n      0x04\n        /* \"contracts/farm.sol\":29562:29588  seaPerBlock = _seaPerBlock */\n      dup2\n      swap1\n      sstore\n      pop\n        /* \"contracts/farm.sol\":29618:29630  _seaPerBlock */\n      dup1\n        /* \"contracts/farm.sol\":29603:29631  SetSeaPerBlock(_seaPerBlock) */\n      0x045c280c0ee21a223bf57ba9b47035cda586d0472889fcf81d6ecf95a72fbf64\n      mload(0x40)\n      mload(0x40)\n      dup1\n      swap2\n      sub\n      swap1\n      log2\n        /* \"contracts/farm.sol\":29489:29638  function setSeaPerBlock(uint256 _seaPerBlock) public onlyOwner {... */\n      pop\n      jump\t// out\n        /* \"contracts/farm.sol\":38038:38448  function harvest(uint256 _pid) public override {... */\n    tag_152:\n        /* \"contracts/farm.sol\":38095:38116  PoolInfo storage pool */\n      0x00\n        /* \"contracts/farm.sol\":38119:38127  poolInfo */\n      0x07\n        /* \"contracts/farm.sol\":38128:38132  _pid */\n      dup3\n        /* \"contracts/farm.sol\":38119:38133  poolInfo[_pid] */\n      dup2\n      sload\n      dup2\n      lt\n      tag_391\n      jumpi\n      mstore(0x00, 0x4e487b7100000000000000000000000000000000000000000000000000000000)\n      mstore(0x04, 0x32)\n      revert(0x00, 0x24)\n    tag_391:\n      swap1\n      0x00\n      mstore\n      keccak256(0x00, 0x20)\n      swap1\n      0x05\n      mul\n      add\n        /* \"contracts/farm.sol\":38095:38133  PoolInfo storage pool = poolInfo[_pid] */\n      swap1\n      pop\n        /* \"contracts/farm.sol\":38143:38164  UserInfo storage user */\n      0x00\n        /* \"contracts/farm.sol\":38167:38175  userInfo */\n      0x08\n        /* \"contracts/farm.sol\":38167:38181  userInfo[_pid] */\n      0x00\n        /* \"contracts/farm.sol\":38176:38180  _pid */\n      dup5\n        /* \"contracts/farm.sol\":38167:38181  userInfo[_pid] */\n      dup2\n      mstore\n      0x20\n      add\n      swap1\n      dup2\n      mstore\n      0x20\n      add\n      0x00\n      keccak256\n        /* \"contracts/farm.sol\":38167:38193  userInfo[_pid][msg.sender] */\n      0x00\n        /* \"contracts/farm.sol\":38182:38192  msg.sender */\n      caller\n        /* \"contracts/farm.sol\":38167:38193  userInfo[_pid][msg.sender] */\n      0xffffffffffffffffffffffffffffffffffffffff\n      and\n      0xffffffffffffffffffffffffffffffffffffffff\n      and\n      dup2\n      mstore\n      0x20\n      add\n      swap1\n      dup2\n      mstore\n      0x20\n      add\n      0x00\n      keccak256\n        /* \"contracts/farm.sol\":38143:38193  UserInfo storage user = userInfo[_pid][msg.sender] */\n      swap1\n      pop\n        /* \"contracts/farm.sol\":38203:38219  updatePool(_pid) */\n      tag_393\n        /* \"contracts/farm.sol\":38214:38218  _pid */\n      dup4\n        /* \"contracts/farm.sol\":38203:38213  updatePool */\n      tag_99\n        /* \"contracts/farm.sol\":38203:38219  updatePool(_pid) */\n      jump\t// in\n    tag_393:\n        /* \"contracts/farm.sol\":38229:38255  _harvest(msg.sender, _pid) */\n      tag_394\n        /* \"contracts/farm.sol\":38238:38248  msg.sender */\n      caller\n        /* \"contracts/farm.sol\":38250:38254  _pid */\n      dup5\n        /* \"contracts/farm.sol\":38229:38237  _harvest */\n      tag_193\n        /* \"contracts/farm.sol\":38229:38255  _harvest(msg.sender, _pid) */\n      jump\t// in\n    tag_394:\n        /* \"contracts/farm.sol\":38283:38332  user.amount.mul(pool.accSeaPerShare).div(GLO_VAL) */\n      tag_395\n        /* \"contracts/farm.sol\":25348:25352  1e12 */\n      0xe8d4a51000\n        /* \"contracts/farm.sol\":38283:38319  user.amount.mul(pool.accSeaPerShare) */\n      tag_396\n        /* \"contracts/farm.sol\":38299:38303  pool */\n      dup5\n        /* \"contracts/farm.sol\":38299:38318  pool.accSeaPerShare */\n      0x03\n      add\n      sload\n        /* \"contracts/farm.sol\":38283:38287  user */\n      dup5\n        /* \"contracts/farm.sol\":38283:38294  user.amount */\n      0x00\n      add\n      sload\n        /* \"contracts/farm.sol\":38283:38298  user.amount.mul */\n      tag_201\n      swap1\n        /* \"contracts/farm.sol\":38283:38319  user.amount.mul(pool.accSeaPerShare) */\n      swap2\n      swap1\n      0xffffffff\n      and\n      jump\t// in\n    tag_396:\n        /* \"contracts/farm.sol\":38283:38323  user.amount.mul(pool.accSeaPerShare).div */\n      tag_202\n      swap1\n        /* \"contracts/farm.sol\":38283:38332  user.amount.mul(pool.accSeaPerShare).div(GLO_VAL) */\n      swap2\n      swap1\n      0xffffffff\n      and\n      jump\t// in\n    tag_395:\n        /* \"contracts/farm.sol\":38265:38269  user */\n      dup2\n        /* \"contracts/farm.sol\":38265:38280  user.rewardDebt */\n      0x01\n      add\n        /* \"contracts/farm.sol\":38265:38332  user.rewardDebt = user.amount.mul(pool.accSeaPerShare).div(GLO_VAL) */\n      dup2\n      swap1\n      sstore\n      pop\n        /* \"contracts/farm.sol\":38359:38441  user.amount.mul(pool.accSeaPerShareTilBonusEnd).div(... */\n      tag_397\n        /* \"contracts/farm.sol\":25348:25352  1e12 */\n      0xe8d4a51000\n        /* \"contracts/farm.sol\":38359:38406  user.amount.mul(pool.accSeaPerShareTilBonusEnd) */\n      tag_398\n        /* \"contracts/farm.sol\":38375:38379  pool */\n      dup5\n        /* \"contracts/farm.sol\":38375:38405  pool.accSeaPerShareTilBonusEnd */\n      0x04\n      add\n      sload\n        /* \"contracts/farm.sol\":38359:38363  user */\n      dup5\n        /* \"contracts/farm.sol\":38359:38370  user.amount */\n      0x00\n      add\n      sload\n        /* \"contracts/farm.sol\":38359:38374  user.amount.mul */\n      tag_201\n      swap1\n        /* \"contracts/farm.sol\":38359:38406  user.amount.mul(pool.accSeaPerShareTilBonusEnd) */\n      swap2\n      swap1\n      0xffffffff\n      and\n      jump\t// in\n    tag_398:\n        /* \"contracts/farm.sol\":38359:38410  user.amount.mul(pool.accSeaPerShareTilBonusEnd).div */\n      tag_202\n      swap1\n        /* \"contracts/farm.sol\":38359:38441  user.amount.mul(pool.accSeaPerShareTilBonusEnd).div(... */\n      swap2\n      swap1\n      0xffffffff\n      and\n      jump\t// in\n    tag_397:\n        /* \"contracts/farm.sol\":38342:38346  user */\n      dup2\n        /* \"contracts/farm.sol\":38342:38356  user.bonusDebt */\n      0x02\n      add\n        /* \"contracts/farm.sol\":38342:38441  user.bonusDebt = user.amount.mul(pool.accSeaPerShareTilBonusEnd).div(... */\n      dup2\n      swap1\n      sstore\n      pop\n        /* \"contracts/farm.sol\":38038:38448  function harvest(uint256 _pid) public override {... */\n      pop\n      pop\n      pop\n      jump\t// out\n        /* \"contracts/farm.sol\":31882:32042  function manualMint(address _to, uint256 _amount) public onlyOwner {... */\n    tag_155:\n        /* \"@openzeppelin/contracts/access/Ownable.sol\":1259:1271  _msgSender() */\n      tag_400\n        /* \"@openzeppelin/contracts/access/Ownable.sol\":1259:1269  _msgSender */\n      tag_164\n        /* \"@openzeppelin/contracts/access/Ownable.sol\":1259:1271  _msgSender() */\n      jump\t// in\n    tag_400:\n        /* \"@openzeppelin/contracts/access/Ownable.sol\":1248:1271  owner() == _msgSender() */\n      0xffffffffffffffffffffffffffffffffffffffff\n      and\n        /* \"@openzeppelin/contracts/access/Ownable.sol\":1248:1255  owner() */\n      tag_401\n        /* \"@openzeppelin/contracts/access/Ownable.sol\":1248:1253  owner */\n      tag_112\n        /* \"@openzeppelin/contracts/access/Ownable.sol\":1248:1255  owner() */\n      jump\t// in\n    tag_401:\n        /* \"@openzeppelin/contracts/access/Ownable.sol\":1248:1271  owner() == _msgSender() */\n      0xffffffffffffffffffffffffffffffffffffffff\n      and\n      eq\n        /* \"@openzeppelin/contracts/access/Ownable.sol\":1240:1308  require(owner() == _msgSender(), \"Ownable: caller is not the owner\") */\n      tag_402\n      jumpi\n      mload(0x40)\n      0x08c379a000000000000000000000000000000000000000000000000000000000\n      dup2\n      mstore\n      0x04\n      add\n      tag_403\n      swap1\n      tag_168\n      jump\t// in\n    tag_403:\n      mload(0x40)\n      dup1\n      swap2\n      sub\n      swap1\n      revert\n    tag_402:\n        /* \"contracts/farm.sol\":31972:31975  sea */\n      0x02\n      0x00\n      swap1\n      sload\n      swap1\n      0x0100\n      exp\n      swap1\n      div\n      0xffffffffffffffffffffffffffffffffffffffff\n      and\n        /* \"contracts/farm.sol\":31959:31982  ISea(address(sea)).mint */\n      0xffffffffffffffffffffffffffffffffffffffff\n      and\n      0x40c10f19\n        /* \"contracts/farm.sol\":31983:31986  _to */\n      dup4\n        /* \"contracts/farm.sol\":31988:31995  _amount */\n      dup4\n        /* \"contracts/farm.sol\":31959:31996  ISea(address(sea)).mint(_to, _amount) */\n      mload(0x40)\n      dup4\n      0xffffffff\n      and\n      0xe0\n      shl\n      dup2\n      mstore\n      0x04\n      add\n      tag_405\n      swap3\n      swap2\n      swap1\n      tag_270\n      jump\t// in\n    tag_405:\n      0x20\n      mload(0x40)\n      dup1\n      dup4\n      sub\n      dup2\n      0x00\n      dup8\n      dup1\n      extcodesize\n      iszero\n      dup1\n      iszero\n      tag_406\n      jumpi\n      0x00\n      dup1\n      revert\n    tag_406:\n      pop\n      gas\n      call\n      iszero\n      dup1\n      iszero\n      tag_408\n      jumpi\n      returndatasize\n      0x00\n      dup1\n      returndatacopy\n      revert(0x00, returndatasize)\n    tag_408:\n      pop\n      pop\n      pop\n      pop\n      mload(0x40)\n      returndatasize\n      not(0x1f)\n      0x1f\n      dup3\n      add\n      and\n      dup3\n      add\n      dup1\n      0x40\n      mstore\n      pop\n      dup2\n      add\n      swap1\n      tag_409\n      swap2\n      swap1\n      tag_275\n      jump\t// in\n    tag_409:\n      pop\n        /* \"contracts/farm.sol\":32027:32034  _amount */\n      dup1\n        /* \"contracts/farm.sol\":32022:32025  _to */\n      dup3\n        /* \"contracts/farm.sol\":32011:32035  ManualMint(_to, _amount) */\n      0xffffffffffffffffffffffffffffffffffffffff\n      and\n      0x5a513126cbc10dde78a9844543bd609b2c5b0f4169cecb81f0378f00fa2bdbf0\n      mload(0x40)\n      mload(0x40)\n      dup1\n      swap2\n      sub\n      swap1\n      log3\n        /* \"contracts/farm.sol\":31882:32042  function manualMint(address _to, uint256 _amount) public onlyOwner {... */\n      pop\n      pop\n      jump\t// out\n        /* \"contracts/farm.sol\":26920:26946  uint256 public seaPerBlock */\n    tag_157:\n      sload(0x04)\n      dup2\n      jump\t// out\n        /* \"@openzeppelin/contracts/access/Ownable.sol\":1918:2116  function transferOwnership(address newOwner) public virtual onlyOwner {... */\n    tag_161:\n        /* \"@openzeppelin/contracts/access/Ownable.sol\":1259:1271  _msgSender() */\n      tag_411\n        /* \"@openzeppelin/contracts/access/Ownable.sol\":1259:1269  _msgSender */\n      tag_164\n        /* \"@openzeppelin/contracts/access/Ownable.sol\":1259:1271  _msgSender() */\n      jump\t// in\n    tag_411:\n        /* \"@openzeppelin/contracts/access/Ownable.sol\":1248:1271  owner() == _msgSender() */\n      0xffffffffffffffffffffffffffffffffffffffff\n      and\n        /* \"@openzeppelin/contracts/access/Ownable.sol\":1248:1255  owner() */\n      tag_412\n        /* \"@openzeppelin/contracts/access/Ownable.sol\":1248:1253  owner */\n      tag_112\n        /* \"@openzeppelin/contracts/access/Ownable.sol\":1248:1255  owner() */\n      jump\t// in\n    tag_412:\n        /* \"@openzeppelin/contracts/access/Ownable.sol\":1248:1271  owner() == _msgSender() */\n      0xffffffffffffffffffffffffffffffffffffffff\n      and\n      eq\n        /* \"@openzeppelin/contracts/access/Ownable.sol\":1240:1308  require(owner() == _msgSender(), \"Ownable: caller is not the owner\") */\n      tag_413\n      jumpi\n      mload(0x40)\n      0x08c379a000000000000000000000000000000000000000000000000000000000\n      dup2\n      mstore\n      0x04\n      add\n      tag_414\n      swap1\n      tag_168\n      jump\t// in\n    tag_414:\n      mload(0x40)\n      dup1\n      swap2\n      sub\n      swap1\n      revert\n    tag_413:\n        /* \"@openzeppelin/contracts/access/Ownable.sol\":2026:2027  0 */\n      0x00\n        /* \"@openzeppelin/contracts/access/Ownable.sol\":2006:2028  newOwner != address(0) */\n      0xffffffffffffffffffffffffffffffffffffffff\n      and\n        /* \"@openzeppelin/contracts/access/Ownable.sol\":2006:2014  newOwner */\n      dup2\n        /* \"@openzeppelin/contracts/access/Ownable.sol\":2006:2028  newOwner != address(0) */\n      0xffffffffffffffffffffffffffffffffffffffff\n      and\n      eq\n      iszero\n        /* \"@openzeppelin/contracts/access/Ownable.sol\":1998:2071  require(newOwner != address(0), \"Ownable: new owner is the zero address\") */\n      tag_416\n      jumpi\n      mload(0x40)\n      0x08c379a000000000000000000000000000000000000000000000000000000000\n      dup2\n      mstore\n      0x04\n      add\n      tag_417\n      swap1\n      tag_418\n      jump\t// in\n    tag_417:\n      mload(0x40)\n      dup1\n      swap2\n      sub\n      swap1\n      revert\n    tag_416:\n        /* \"@openzeppelin/contracts/access/Ownable.sol\":2081:2109  _transferOwnership(newOwner) */\n      tag_419\n        /* \"@openzeppelin/contracts/access/Ownable.sol\":2100:2108  newOwner */\n      dup2\n        /* \"@openzeppelin/contracts/access/Ownable.sol\":2081:2099  _transferOwnership */\n      tag_315\n        /* \"@openzeppelin/contracts/access/Ownable.sol\":2081:2109  _transferOwnership(newOwner) */\n      jump\t// in\n    tag_419:\n        /* \"@openzeppelin/contracts/access/Ownable.sol\":1918:2116  function transferOwnership(address newOwner) public virtual onlyOwner {... */\n      pop\n      jump\t// out\n        /* \"@openzeppelin/contracts/utils/Context.sol\":640:736  function _msgSender() internal view virtual returns (address) {... */\n    tag_164:\n        /* \"@openzeppelin/contracts/utils/Context.sol\":693:700  address */\n      0x00\n        /* \"@openzeppelin/contracts/utils/Context.sol\":719:729  msg.sender */\n      caller\n        /* \"@openzeppelin/contracts/utils/Context.sol\":712:729  return msg.sender */\n      swap1\n      pop\n        /* \"@openzeppelin/contracts/utils/Context.sol\":640:736  function _msgSender() internal view virtual returns (address) {... */\n      swap1\n      jump\t// out\n        /* \"contracts/farm.sol\":38454:38953  function _harvest(address _to, uint256 _pid) internal {... */\n    tag_193:\n        /* \"contracts/farm.sol\":38518:38539  PoolInfo storage pool */\n      0x00\n        /* \"contracts/farm.sol\":38542:38550  poolInfo */\n      0x07\n        /* \"contracts/farm.sol\":38551:38555  _pid */\n      dup3\n        /* \"contracts/farm.sol\":38542:38556  poolInfo[_pid] */\n      dup2\n      sload\n      dup2\n      lt\n      tag_422\n      jumpi\n      mstore(0x00, 0x4e487b7100000000000000000000000000000000000000000000000000000000)\n      mstore(0x04, 0x32)\n      revert(0x00, 0x24)\n    tag_422:\n      swap1\n      0x00\n      mstore\n      keccak256(0x00, 0x20)\n      swap1\n      0x05\n      mul\n      add\n        /* \"contracts/farm.sol\":38518:38556  PoolInfo storage pool = poolInfo[_pid] */\n      swap1\n      pop\n        /* \"contracts/farm.sol\":38566:38587  UserInfo storage user */\n      0x00\n        /* \"contracts/farm.sol\":38590:38598  userInfo */\n      0x08\n        /* \"contracts/farm.sol\":38590:38604  userInfo[_pid] */\n      0x00\n        /* \"contracts/farm.sol\":38599:38603  _pid */\n      dup5\n        /* \"contracts/farm.sol\":38590:38604  userInfo[_pid] */\n      dup2\n      mstore\n      0x20\n      add\n      swap1\n      dup2\n      mstore\n      0x20\n      add\n      0x00\n      keccak256\n        /* \"contracts/farm.sol\":38590:38609  userInfo[_pid][_to] */\n      0x00\n        /* \"contracts/farm.sol\":38605:38608  _to */\n      dup6\n        /* \"contracts/farm.sol\":38590:38609  userInfo[_pid][_to] */\n      0xffffffffffffffffffffffffffffffffffffffff\n      and\n      0xffffffffffffffffffffffffffffffffffffffff\n      and\n      dup2\n      mstore\n      0x20\n      add\n      swap1\n      dup2\n      mstore\n      0x20\n      add\n      0x00\n      keccak256\n        /* \"contracts/farm.sol\":38566:38609  UserInfo storage user = userInfo[_pid][_to] */\n      swap1\n      pop\n        /* \"contracts/farm.sol\":38641:38642  0 */\n      0x00\n        /* \"contracts/farm.sol\":38627:38631  user */\n      dup2\n        /* \"contracts/farm.sol\":38627:38638  user.amount */\n      0x00\n      add\n      sload\n        /* \"contracts/farm.sol\":38627:38642  user.amount > 0 */\n      gt\n        /* \"contracts/farm.sol\":38619:38665  require(user.amount > 0, \"nothing to harvest\") */\n      tag_424\n      jumpi\n      mload(0x40)\n      0x08c379a000000000000000000000000000000000000000000000000000000000\n      dup2\n      mstore\n      0x04\n      add\n      tag_425\n      swap1\n      tag_426\n      jump\t// in\n    tag_425:\n      mload(0x40)\n      dup1\n      swap2\n      sub\n      swap1\n      revert\n    tag_424:\n        /* \"contracts/farm.sol\":38675:38690  uint256 pending */\n      0x00\n        /* \"contracts/farm.sol\":38693:38785  user.amount.mul(pool.accSeaPerShare).div(GLO_VAL).sub(... */\n      tag_427\n        /* \"contracts/farm.sol\":38760:38764  user */\n      dup3\n        /* \"contracts/farm.sol\":38760:38775  user.rewardDebt */\n      0x01\n      add\n      sload\n        /* \"contracts/farm.sol\":38693:38742  user.amount.mul(pool.accSeaPerShare).div(GLO_VAL) */\n      tag_428\n        /* \"contracts/farm.sol\":25348:25352  1e12 */\n      0xe8d4a51000\n        /* \"contracts/farm.sol\":38693:38729  user.amount.mul(pool.accSeaPerShare) */\n      tag_429\n        /* \"contracts/farm.sol\":38709:38713  pool */\n      dup8\n        /* \"contracts/farm.sol\":38709:38728  pool.accSeaPerShare */\n      0x03\n      add\n      sload\n        /* \"contracts/farm.sol\":38693:38697  user */\n      dup8\n        /* \"contracts/farm.sol\":38693:38704  user.amount */\n      0x00\n      add\n      sload\n        /* \"contracts/farm.sol\":38693:38708  user.amount.mul */\n      tag_201\n      swap1\n        /* \"contracts/farm.sol\":38693:38729  user.amount.mul(pool.accSeaPerShare) */\n      swap2\n      swap1\n      0xffffffff\n      and\n      jump\t// in\n    tag_429:\n        /* \"contracts/farm.sol\":38693:38733  user.amount.mul(pool.accSeaPerShare).div */\n      tag_202\n      swap1\n        /* \"contracts/farm.sol\":38693:38742  user.amount.mul(pool.accSeaPerShare).div(GLO_VAL) */\n      swap2\n      swap1\n      0xffffffff\n      and\n      jump\t// in\n    tag_428:\n        /* \"contracts/farm.sol\":38693:38746  user.amount.mul(pool.accSeaPerShare).div(GLO_VAL).sub */\n      tag_238\n      swap1\n        /* \"contracts/farm.sol\":38693:38785  user.amount.mul(pool.accSeaPerShare).div(GLO_VAL).sub(... */\n      swap2\n      swap1\n      0xffffffff\n      and\n      jump\t// in\n    tag_427:\n        /* \"contracts/farm.sol\":38675:38785  uint256 pending = user.amount.mul(pool.accSeaPerShare).div(GLO_VAL).sub(... */\n      swap1\n      pop\n        /* \"contracts/farm.sol\":38834:38837  sea */\n      0x02\n      0x00\n      swap1\n      sload\n      swap1\n      0x0100\n      exp\n      swap1\n      div\n      0xffffffffffffffffffffffffffffffffffffffff\n      and\n        /* \"contracts/farm.sol\":38827:38848  IERC20(sea).balanceOf */\n      0xffffffffffffffffffffffffffffffffffffffff\n      and\n      0x70a08231\n        /* \"contracts/farm.sol\":38857:38861  this */\n      address\n        /* \"contracts/farm.sol\":38827:38863  IERC20(sea).balanceOf(address(this)) */\n      mload(0x40)\n      dup3\n      0xffffffff\n      and\n      0xe0\n      shl\n      dup2\n      mstore\n      0x04\n      add\n      tag_430\n      swap2\n      swap1\n      tag_96\n      jump\t// in\n    tag_430:\n      0x20\n      mload(0x40)\n      dup1\n      dup4\n      sub\n      dup2\n      dup7\n      dup1\n      extcodesize\n      iszero\n      dup1\n      iszero\n      tag_431\n      jumpi\n      0x00\n      dup1\n      revert\n    tag_431:\n      pop\n      gas\n      staticcall\n      iszero\n      dup1\n      iszero\n      tag_433\n      jumpi\n      returndatasize\n      0x00\n      dup1\n      returndatacopy\n      revert(0x00, returndatasize)\n    tag_433:\n      pop\n      pop\n      pop\n      pop\n      mload(0x40)\n      returndatasize\n      not(0x1f)\n      0x1f\n      dup3\n      add\n      and\n      dup3\n      add\n      dup1\n      0x40\n      mstore\n      pop\n      dup2\n      add\n      swap1\n      tag_434\n      swap2\n      swap1\n      tag_225\n      jump\t// in\n    tag_434:\n        /* \"contracts/farm.sol\":38816:38823  pending */\n      dup2\n        /* \"contracts/farm.sol\":38816:38863  pending <= IERC20(sea).balanceOf(address(this)) */\n      gt\n      iszero\n        /* \"contracts/farm.sol\":38795:38907  require(... */\n      tag_435\n      jumpi\n      mload(0x40)\n      0x08c379a000000000000000000000000000000000000000000000000000000000\n      dup2\n      mstore\n      0x04\n      add\n      tag_436\n      swap1\n      tag_437\n      jump\t// in\n    tag_436:\n      mload(0x40)\n      dup1\n      swap2\n      sub\n      swap1\n      revert\n    tag_435:\n        /* \"contracts/farm.sol\":38917:38946  safeSeaTransfer(_to, pending) */\n      tag_438\n        /* \"contracts/farm.sol\":38933:38936  _to */\n      dup6\n        /* \"contracts/farm.sol\":38938:38945  pending */\n      dup3\n        /* \"contracts/farm.sol\":38917:38932  safeSeaTransfer */\n      tag_439\n        /* \"contracts/farm.sol\":38917:38946  safeSeaTransfer(_to, pending) */\n      jump\t// in\n    tag_438:\n        /* \"contracts/farm.sol\":38454:38953  function _harvest(address _to, uint256 _pid) internal {... */\n      pop\n      pop\n      pop\n      pop\n      pop\n      jump\t// out\n        /* \"contracts/farm.sol\":19324:19599  function safeTransferFrom(... */\n    tag_196:\n        /* \"contracts/farm.sol\":19462:19592  _callOptionalReturn(... */\n      tag_441\n        /* \"contracts/farm.sol\":19495:19500  token */\n      dup5\n        /* \"contracts/farm.sol\":19537:19564  token.transferFrom.selector */\n      shl(0xe0, 0x23b872dd)\n        /* \"contracts/farm.sol\":19566:19570  from */\n      dup6\n        /* \"contracts/farm.sol\":19572:19574  to */\n      dup6\n        /* \"contracts/farm.sol\":19576:19581  value */\n      dup6\n        /* \"contracts/farm.sol\":19514:19582  abi.encodeWithSelector(token.transferFrom.selector, from, to, value) */\n      add(0x24, mload(0x40))\n      tag_442\n      swap4\n      swap3\n      swap2\n      swap1\n      tag_443\n      jump\t// in\n    tag_442:\n      mload(0x40)\n      0x20\n      dup2\n      dup4\n      sub\n      sub\n      dup2\n      mstore\n      swap1\n      0x40\n      mstore\n      swap1\n      not(0xffffffffffffffffffffffffffffffffffffffffffffffffffffffff)\n      and\n      0x20\n      dup3\n      add\n      dup1\n      mload\n      0xffffffffffffffffffffffffffffffffffffffffffffffffffffffff\n      dup4\n      dup2\n      dup4\n      and\n      or\n      dup4\n      mstore\n      pop\n      pop\n      pop\n      pop\n        /* \"contracts/farm.sol\":19462:19481  _callOptionalReturn */\n      tag_444\n        /* \"contracts/farm.sol\":19462:19592  _callOptionalReturn(... */\n      jump\t// in\n    tag_441:\n        /* \"contracts/farm.sol\":19324:19599  function safeTransferFrom(... */\n      pop\n      pop\n      pop\n      pop\n      jump\t// out\n        /* \"contracts/farm.sol\":5584:5759  function add(uint256 a, uint256 b) internal pure returns (uint256) {... */\n    tag_198:\n        /* \"contracts/farm.sol\":5642:5649  uint256 */\n      0x00\n        /* \"contracts/farm.sol\":5661:5670  uint256 c */\n      dup1\n        /* \"contracts/farm.sol\":5677:5678  b */\n      dup3\n        /* \"contracts/farm.sol\":5673:5674  a */\n      dup5\n        /* \"contracts/farm.sol\":5673:5678  a + b */\n      tag_446\n      swap2\n      swap1\n      tag_179\n      jump\t// in\n    tag_446:\n        /* \"contracts/farm.sol\":5661:5678  uint256 c = a + b */\n      swap1\n      pop\n        /* \"contracts/farm.sol\":5701:5702  a */\n      dup4\n        /* \"contracts/farm.sol\":5696:5697  c */\n      dup2\n        /* \"contracts/farm.sol\":5696:5702  c >= a */\n      lt\n      iszero\n        /* \"contracts/farm.sol\":5688:5734  require(c >= a, \"SafeMath: addition overflow\") */\n      tag_447\n      jumpi\n      mload(0x40)\n      0x08c379a000000000000000000000000000000000000000000000000000000000\n      dup2\n      mstore\n      0x04\n      add\n      tag_448\n      swap1\n      tag_449\n      jump\t// in\n    tag_448:\n      mload(0x40)\n      dup1\n      swap2\n      sub\n      swap1\n      revert\n    tag_447:\n        /* \"contracts/farm.sol\":5751:5752  c */\n      dup1\n        /* \"contracts/farm.sol\":5744:5752  return c */\n      swap2\n      pop\n      pop\n        /* \"contracts/farm.sol\":5584:5759  function add(uint256 a, uint256 b) internal pure returns (uint256) {... */\n      swap3\n      swap2\n      pop\n      pop\n      jump\t// out\n        /* \"contracts/farm.sol\":6432:6647  function mul(uint256 a, uint256 b) internal pure returns (uint256) {... */\n    tag_201:\n        /* \"contracts/farm.sol\":6490:6497  uint256 */\n      0x00\n        /* \"contracts/farm.sol\":6518:6519  0 */\n      dup1\n        /* \"contracts/farm.sol\":6513:6514  a */\n      dup4\n        /* \"contracts/farm.sol\":6513:6519  a == 0 */\n      eq\n        /* \"contracts/farm.sol\":6509:6529  if (a == 0) return 0 */\n      iszero\n      tag_451\n      jumpi\n        /* \"contracts/farm.sol\":6528:6529  0 */\n      0x00\n        /* \"contracts/farm.sol\":6521:6529  return 0 */\n      swap1\n      pop\n      jump(tag_450)\n        /* \"contracts/farm.sol\":6509:6529  if (a == 0) return 0 */\n    tag_451:\n        /* \"contracts/farm.sol\":6539:6548  uint256 c */\n      0x00\n        /* \"contracts/farm.sol\":6555:6556  b */\n      dup3\n        /* \"contracts/farm.sol\":6551:6552  a */\n      dup5\n        /* \"contracts/farm.sol\":6551:6556  a * b */\n      tag_452\n      swap2\n      swap1\n      tag_453\n      jump\t// in\n    tag_452:\n        /* \"contracts/farm.sol\":6539:6556  uint256 c = a * b */\n      swap1\n      pop\n        /* \"contracts/farm.sol\":6583:6584  b */\n      dup3\n        /* \"contracts/farm.sol\":6578:6579  a */\n      dup5\n        /* \"contracts/farm.sol\":6574:6575  c */\n      dup3\n        /* \"contracts/farm.sol\":6574:6579  c / a */\n      tag_454\n      swap2\n      swap1\n      tag_455\n      jump\t// in\n    tag_454:\n        /* \"contracts/farm.sol\":6574:6584  c / a == b */\n      eq\n        /* \"contracts/farm.sol\":6566:6622  require(c / a == b, \"SafeMath: multiplication overflow\") */\n      tag_456\n      jumpi\n      mload(0x40)\n      0x08c379a000000000000000000000000000000000000000000000000000000000\n      dup2\n      mstore\n      0x04\n      add\n      tag_457\n      swap1\n      tag_458\n      jump\t// in\n    tag_457:\n      mload(0x40)\n      dup1\n      swap2\n      sub\n      swap1\n      revert\n    tag_456:\n        /* \"contracts/farm.sol\":6639:6640  c */\n      dup1\n        /* \"contracts/farm.sol\":6632:6640  return c */\n      swap2\n      pop\n      pop\n        /* \"contracts/farm.sol\":6432:6647  function mul(uint256 a, uint256 b) internal pure returns (uint256) {... */\n    tag_450:\n      swap3\n      swap2\n      pop\n      pop\n      jump\t// out\n        /* \"contracts/farm.sol\":7111:7261  function div(uint256 a, uint256 b) internal pure returns (uint256) {... */\n    tag_202:\n        /* \"contracts/farm.sol\":7169:7176  uint256 */\n      0x00\n        /* \"contracts/farm.sol\":7200:7201  0 */\n      dup1\n        /* \"contracts/farm.sol\":7196:7197  b */\n      dup3\n        /* \"contracts/farm.sol\":7196:7201  b > 0 */\n      gt\n        /* \"contracts/farm.sol\":7188:7232  require(b > 0, \"SafeMath: division by zero\") */\n      tag_460\n      jumpi\n      mload(0x40)\n      0x08c379a000000000000000000000000000000000000000000000000000000000\n      dup2\n      mstore\n      0x04\n      add\n      tag_461\n      swap1\n      tag_462\n      jump\t// in\n    tag_461:\n      mload(0x40)\n      dup1\n      swap2\n      sub\n      swap1\n      revert\n    tag_460:\n        /* \"contracts/farm.sol\":7253:7254  b */\n      dup2\n        /* \"contracts/farm.sol\":7249:7250  a */\n      dup4\n        /* \"contracts/farm.sol\":7249:7254  a / b */\n      tag_463\n      swap2\n      swap1\n      tag_455\n      jump\t// in\n    tag_463:\n        /* \"contracts/farm.sol\":7242:7254  return a / b */\n      swap1\n      pop\n        /* \"contracts/farm.sol\":7111:7261  function div(uint256 a, uint256 b) internal pure returns (uint256) {... */\n      swap3\n      swap2\n      pop\n      pop\n      jump\t// out\n        /* \"contracts/farm.sol\":6030:6185  function sub(uint256 a, uint256 b) internal pure returns (uint256) {... */\n    tag_238:\n        /* \"contracts/farm.sol\":6088:6095  uint256 */\n      0x00\n        /* \"contracts/farm.sol\":6120:6121  a */\n      dup3\n        /* \"contracts/farm.sol\":6115:6116  b */\n      dup3\n        /* \"contracts/farm.sol\":6115:6121  b <= a */\n      gt\n      iszero\n        /* \"contracts/farm.sol\":6107:6156  require(b <= a, \"SafeMath: subtraction overflow\") */\n      tag_465\n      jumpi\n      mload(0x40)\n      0x08c379a000000000000000000000000000000000000000000000000000000000\n      dup2\n      mstore\n      0x04\n      add\n      tag_466\n      swap1\n      tag_467\n      jump\t// in\n    tag_466:\n      mload(0x40)\n      dup1\n      swap2\n      sub\n      swap1\n      revert\n    tag_465:\n        /* \"contracts/farm.sol\":6177:6178  b */\n      dup2\n        /* \"contracts/farm.sol\":6173:6174  a */\n      dup4\n        /* \"contracts/farm.sol\":6173:6178  a - b */\n      tag_468\n      swap2\n      swap1\n      tag_469\n      jump\t// in\n    tag_468:\n        /* \"contracts/farm.sol\":6166:6178  return a - b */\n      swap1\n      pop\n        /* \"contracts/farm.sol\":6030:6185  function sub(uint256 a, uint256 b) internal pure returns (uint256) {... */\n      swap3\n      swap2\n      pop\n      pop\n      jump\t// out\n        /* \"contracts/farm.sol\":19079:19318  function safeTransfer(... */\n    tag_299:\n        /* \"contracts/farm.sol\":19191:19311  _callOptionalReturn(... */\n      tag_471\n        /* \"contracts/farm.sol\":19224:19229  token */\n      dup4\n        /* \"contracts/farm.sol\":19266:19289  token.transfer.selector */\n      shl(0xe0, 0xa9059cbb)\n        /* \"contracts/farm.sol\":19291:19293  to */\n      dup5\n        /* \"contracts/farm.sol\":19295:19300  value */\n      dup5\n        /* \"contracts/farm.sol\":19243:19301  abi.encodeWithSelector(token.transfer.selector, to, value) */\n      add(0x24, mload(0x40))\n      tag_472\n      swap3\n      swap2\n      swap1\n      tag_270\n      jump\t// in\n    tag_472:\n      mload(0x40)\n      0x20\n      dup2\n      dup4\n      sub\n      sub\n      dup2\n      mstore\n      swap1\n      0x40\n      mstore\n      swap1\n      not(0xffffffffffffffffffffffffffffffffffffffffffffffffffffffff)\n      and\n      0x20\n      dup3\n      add\n      dup1\n      mload\n      0xffffffffffffffffffffffffffffffffffffffffffffffffffffffff\n      dup4\n      dup2\n      dup4\n      and\n      or\n      dup4\n      mstore\n      pop\n      pop\n      pop\n      pop\n        /* \"contracts/farm.sol\":19191:19210  _callOptionalReturn */\n      tag_444\n        /* \"contracts/farm.sol\":19191:19311  _callOptionalReturn(... */\n      jump\t// in\n    tag_471:\n        /* \"contracts/farm.sol\":19079:19318  function safeTransfer(... */\n      pop\n      pop\n      pop\n      jump\t// out\n        /* \"@openzeppelin/contracts/access/Ownable.sol\":2270:2457  function _transferOwnership(address newOwner) internal virtual {... */\n    tag_315:\n        /* \"@openzeppelin/contracts/access/Ownable.sol\":2343:2359  address oldOwner */\n      0x00\n        /* \"@openzeppelin/contracts/access/Ownable.sol\":2362:2368  _owner */\n      dup1\n      0x00\n      swap1\n      sload\n      swap1\n      0x0100\n      exp\n      swap1\n      div\n      0xffffffffffffffffffffffffffffffffffffffff\n      and\n        /* \"@openzeppelin/contracts/access/Ownable.sol\":2343:2368  address oldOwner = _owner */\n      swap1\n      pop\n        /* \"@openzeppelin/contracts/access/Ownable.sol\":2387:2395  newOwner */\n      dup2\n        /* \"@openzeppelin/contracts/access/Ownable.sol\":2378:2384  _owner */\n      0x00\n      dup1\n        /* \"@openzeppelin/contracts/access/Ownable.sol\":2378:2395  _owner = newOwner */\n      0x0100\n      exp\n      dup2\n      sload\n      dup2\n      0xffffffffffffffffffffffffffffffffffffffff\n      mul\n      not\n      and\n      swap1\n      dup4\n      0xffffffffffffffffffffffffffffffffffffffff\n      and\n      mul\n      or\n      swap1\n      sstore\n      pop\n        /* \"@openzeppelin/contracts/access/Ownable.sol\":2441:2449  newOwner */\n      dup2\n        /* \"@openzeppelin/contracts/access/Ownable.sol\":2410:2450  OwnershipTransferred(oldOwner, newOwner) */\n      0xffffffffffffffffffffffffffffffffffffffff\n      and\n        /* \"@openzeppelin/contracts/access/Ownable.sol\":2431:2439  oldOwner */\n      dup2\n        /* \"@openzeppelin/contracts/access/Ownable.sol\":2410:2450  OwnershipTransferred(oldOwner, newOwner) */\n      0xffffffffffffffffffffffffffffffffffffffff\n      and\n      0x8be0079c531659141344cd1fd0a4f28419497f9722a3daafe3b4186f6b6457e0\n      mload(0x40)\n      mload(0x40)\n      dup1\n      swap2\n      sub\n      swap1\n      log3\n        /* \"@openzeppelin/contracts/access/Ownable.sol\":2270:2457  function _transferOwnership(address newOwner) internal virtual {... */\n      pop\n      pop\n      jump\t// out\n        /* \"contracts/farm.sol\":37177:37992  function _withdraw(... */\n    tag_368:\n        /* \"contracts/farm.sol\":37290:37311  PoolInfo storage pool */\n      0x00\n        /* \"contracts/farm.sol\":37314:37322  poolInfo */\n      0x07\n        /* \"contracts/farm.sol\":37323:37327  _pid */\n      dup4\n        /* \"contracts/farm.sol\":37314:37328  poolInfo[_pid] */\n      dup2\n      sload\n      dup2\n      lt\n      tag_475\n      jumpi\n      mstore(0x00, 0x4e487b7100000000000000000000000000000000000000000000000000000000)\n      mstore(0x04, 0x32)\n      revert(0x00, 0x24)\n    tag_475:\n      swap1\n      0x00\n      mstore\n      keccak256(0x00, 0x20)\n      swap1\n      0x05\n      mul\n      add\n        /* \"contracts/farm.sol\":37290:37328  PoolInfo storage pool = poolInfo[_pid] */\n      swap1\n      pop\n        /* \"contracts/farm.sol\":37338:37359  UserInfo storage user */\n      0x00\n        /* \"contracts/farm.sol\":37362:37370  userInfo */\n      0x08\n        /* \"contracts/farm.sol\":37362:37376  userInfo[_pid] */\n      0x00\n        /* \"contracts/farm.sol\":37371:37375  _pid */\n      dup6\n        /* \"contracts/farm.sol\":37362:37376  userInfo[_pid] */\n      dup2\n      mstore\n      0x20\n      add\n      swap1\n      dup2\n      mstore\n      0x20\n      add\n      0x00\n      keccak256\n        /* \"contracts/farm.sol\":37362:37382  userInfo[_pid][_for] */\n      0x00\n        /* \"contracts/farm.sol\":37377:37381  _for */\n      dup7\n        /* \"contracts/farm.sol\":37362:37382  userInfo[_pid][_for] */\n      0xffffffffffffffffffffffffffffffffffffffff\n      and\n      0xffffffffffffffffffffffffffffffffffffffff\n      and\n      dup2\n      mstore\n      0x20\n      add\n      swap1\n      dup2\n      mstore\n      0x20\n      add\n      0x00\n      keccak256\n        /* \"contracts/farm.sol\":37338:37382  UserInfo storage user = userInfo[_pid][_for] */\n      swap1\n      pop\n        /* \"contracts/farm.sol\":37417:37427  msg.sender */\n      caller\n        /* \"contracts/farm.sol\":37400:37427  user.fundedBy == msg.sender */\n      0xffffffffffffffffffffffffffffffffffffffff\n      and\n        /* \"contracts/farm.sol\":37400:37404  user */\n      dup2\n        /* \"contracts/farm.sol\":37400:37413  user.fundedBy */\n      0x03\n      add\n      0x00\n      swap1\n      sload\n      swap1\n      0x0100\n      exp\n      swap1\n      div\n      0xffffffffffffffffffffffffffffffffffffffff\n      and\n        /* \"contracts/farm.sol\":37400:37427  user.fundedBy == msg.sender */\n      0xffffffffffffffffffffffffffffffffffffffff\n      and\n      eq\n        /* \"contracts/farm.sol\":37392:37443  require(user.fundedBy == msg.sender, \"only funder\") */\n      tag_477\n      jumpi\n      mload(0x40)\n      0x08c379a000000000000000000000000000000000000000000000000000000000\n      dup2\n      mstore\n      0x04\n      add\n      tag_478\n      swap1\n      tag_479\n      jump\t// in\n    tag_478:\n      mload(0x40)\n      dup1\n      swap2\n      sub\n      swap1\n      revert\n    tag_477:\n        /* \"contracts/farm.sol\":37476:37483  _amount */\n      dup3\n        /* \"contracts/farm.sol\":37461:37465  user */\n      dup2\n        /* \"contracts/farm.sol\":37461:37472  user.amount */\n      0x00\n      add\n      sload\n        /* \"contracts/farm.sol\":37461:37483  user.amount >= _amount */\n      lt\n      iszero\n        /* \"contracts/farm.sol\":37453:37506  require(user.amount >= _amount, \"withdraw: not good\") */\n      tag_480\n      jumpi\n      mload(0x40)\n      0x08c379a000000000000000000000000000000000000000000000000000000000\n      dup2\n      mstore\n      0x04\n      add\n      tag_481\n      swap1\n      tag_482\n      jump\t// in\n    tag_481:\n      mload(0x40)\n      dup1\n      swap2\n      sub\n      swap1\n      revert\n    tag_480:\n        /* \"contracts/farm.sol\":37516:37532  updatePool(_pid) */\n      tag_483\n        /* \"contracts/farm.sol\":37527:37531  _pid */\n      dup5\n        /* \"contracts/farm.sol\":37516:37526  updatePool */\n      tag_99\n        /* \"contracts/farm.sol\":37516:37532  updatePool(_pid) */\n      jump\t// in\n    tag_483:\n        /* \"contracts/farm.sol\":37542:37562  _harvest(_for, _pid) */\n      tag_484\n        /* \"contracts/farm.sol\":37551:37555  _for */\n      dup6\n        /* \"contracts/farm.sol\":37557:37561  _pid */\n      dup6\n        /* \"contracts/farm.sol\":37542:37550  _harvest */\n      tag_193\n        /* \"contracts/farm.sol\":37542:37562  _harvest(_for, _pid) */\n      jump\t// in\n    tag_484:\n        /* \"contracts/farm.sol\":37586:37610  user.amount.sub(_amount) */\n      tag_485\n        /* \"contracts/farm.sol\":37602:37609  _amount */\n      dup4\n        /* \"contracts/farm.sol\":37586:37590  user */\n      dup3\n        /* \"contracts/farm.sol\":37586:37597  user.amount */\n      0x00\n      add\n      sload\n        /* \"contracts/farm.sol\":37586:37601  user.amount.sub */\n      tag_238\n      swap1\n        /* \"contracts/farm.sol\":37586:37610  user.amount.sub(_amount) */\n      swap2\n      swap1\n      0xffffffff\n      and\n      jump\t// in\n    tag_485:\n        /* \"contracts/farm.sol\":37572:37576  user */\n      dup2\n        /* \"contracts/farm.sol\":37572:37583  user.amount */\n      0x00\n      add\n        /* \"contracts/farm.sol\":37572:37610  user.amount = user.amount.sub(_amount) */\n      dup2\n      swap1\n      sstore\n      pop\n        /* \"contracts/farm.sol\":37638:37687  user.amount.mul(pool.accSeaPerShare).div(GLO_VAL) */\n      tag_486\n        /* \"contracts/farm.sol\":25348:25352  1e12 */\n      0xe8d4a51000\n        /* \"contracts/farm.sol\":37638:37674  user.amount.mul(pool.accSeaPerShare) */\n      tag_487\n        /* \"contracts/farm.sol\":37654:37658  pool */\n      dup5\n        /* \"contracts/farm.sol\":37654:37673  pool.accSeaPerShare */\n      0x03\n      add\n      sload\n        /* \"contracts/farm.sol\":37638:37642  user */\n      dup5\n        /* \"contracts/farm.sol\":37638:37649  user.amount */\n      0x00\n      add\n      sload\n        /* \"contracts/farm.sol\":37638:37653  user.amount.mul */\n      tag_201\n      swap1\n        /* \"contracts/farm.sol\":37638:37674  user.amount.mul(pool.accSeaPerShare) */\n      swap2\n      swap1\n      0xffffffff\n      and\n      jump\t// in\n    tag_487:\n        /* \"contracts/farm.sol\":37638:37678  user.amount.mul(pool.accSeaPerShare).div */\n      tag_202\n      swap1\n        /* \"contracts/farm.sol\":37638:37687  user.amount.mul(pool.accSeaPerShare).div(GLO_VAL) */\n      swap2\n      swap1\n      0xffffffff\n      and\n      jump\t// in\n    tag_486:\n        /* \"contracts/farm.sol\":37620:37624  user */\n      dup2\n        /* \"contracts/farm.sol\":37620:37635  user.rewardDebt */\n      0x01\n      add\n        /* \"contracts/farm.sol\":37620:37687  user.rewardDebt = user.amount.mul(pool.accSeaPerShare).div(GLO_VAL) */\n      dup2\n      swap1\n      sstore\n      pop\n        /* \"contracts/farm.sol\":37714:37796  user.amount.mul(pool.accSeaPerShareTilBonusEnd).div(... */\n      tag_488\n        /* \"contracts/farm.sol\":25348:25352  1e12 */\n      0xe8d4a51000\n        /* \"contracts/farm.sol\":37714:37761  user.amount.mul(pool.accSeaPerShareTilBonusEnd) */\n      tag_489\n        /* \"contracts/farm.sol\":37730:37734  pool */\n      dup5\n        /* \"contracts/farm.sol\":37730:37760  pool.accSeaPerShareTilBonusEnd */\n      0x04\n      add\n      sload\n        /* \"contracts/farm.sol\":37714:37718  user */\n      dup5\n        /* \"contracts/farm.sol\":37714:37725  user.amount */\n      0x00\n      add\n      sload\n        /* \"contracts/farm.sol\":37714:37729  user.amount.mul */\n      tag_201\n      swap1\n        /* \"contracts/farm.sol\":37714:37761  user.amount.mul(pool.accSeaPerShareTilBonusEnd) */\n      swap2\n      swap1\n      0xffffffff\n      and\n      jump\t// in\n    tag_489:\n        /* \"contracts/farm.sol\":37714:37765  user.amount.mul(pool.accSeaPerShareTilBonusEnd).div */\n      tag_202\n      swap1\n        /* \"contracts/farm.sol\":37714:37796  user.amount.mul(pool.accSeaPerShareTilBonusEnd).div(... */\n      swap2\n      swap1\n      0xffffffff\n      and\n      jump\t// in\n    tag_488:\n        /* \"contracts/farm.sol\":37697:37701  user */\n      dup2\n        /* \"contracts/farm.sol\":37697:37711  user.bonusDebt */\n      0x02\n      add\n        /* \"contracts/farm.sol\":37697:37796  user.bonusDebt = user.amount.mul(pool.accSeaPerShareTilBonusEnd).div(... */\n      dup2\n      swap1\n      sstore\n      pop\n        /* \"contracts/farm.sol\":37837:37838  0 */\n      0x00\n        /* \"contracts/farm.sol\":37810:37839  pool.stakeToken != address(0) */\n      0xffffffffffffffffffffffffffffffffffffffff\n      and\n        /* \"contracts/farm.sol\":37810:37814  pool */\n      dup3\n        /* \"contracts/farm.sol\":37810:37825  pool.stakeToken */\n      0x00\n      add\n      0x00\n      swap1\n      sload\n      swap1\n      0x0100\n      exp\n      swap1\n      div\n      0xffffffffffffffffffffffffffffffffffffffff\n      and\n        /* \"contracts/farm.sol\":37810:37839  pool.stakeToken != address(0) */\n      0xffffffffffffffffffffffffffffffffffffffff\n      and\n      eq\n        /* \"contracts/farm.sol\":37806:37932  if (pool.stakeToken != address(0)) {... */\n      tag_490\n      jumpi\n        /* \"contracts/farm.sol\":37855:37921  IERC20(pool.stakeToken).safeTransfer(address(msg.sender), _amount) */\n      tag_491\n        /* \"contracts/farm.sol\":37900:37910  msg.sender */\n      caller\n        /* \"contracts/farm.sol\":37913:37920  _amount */\n      dup5\n        /* \"contracts/farm.sol\":37862:37866  pool */\n      dup5\n        /* \"contracts/farm.sol\":37862:37877  pool.stakeToken */\n      0x00\n      add\n      0x00\n      swap1\n      sload\n      swap1\n      0x0100\n      exp\n      swap1\n      div\n      0xffffffffffffffffffffffffffffffffffffffff\n      and\n        /* \"contracts/farm.sol\":37855:37891  IERC20(pool.stakeToken).safeTransfer */\n      0xffffffffffffffffffffffffffffffffffffffff\n      and\n      tag_299\n      swap1\n        /* \"contracts/farm.sol\":37855:37921  IERC20(pool.stakeToken).safeTransfer(address(msg.sender), _amount) */\n      swap3\n      swap2\n      swap1\n      0xffffffff\n      and\n      jump\t// in\n    tag_491:\n        /* \"contracts/farm.sol\":37806:37932  if (pool.stakeToken != address(0)) {... */\n    tag_490:\n        /* \"contracts/farm.sol\":37967:37971  _pid */\n      dup4\n        /* \"contracts/farm.sol\":37955:37965  msg.sender */\n      caller\n        /* \"contracts/farm.sol\":37946:37985  Withdraw(msg.sender, _pid, user.amount) */\n      0xffffffffffffffffffffffffffffffffffffffff\n      and\n      0xf279e6a1f5e320cca91135676d9cb6e44ca8a08c0b88342bcdb1144f6511b568\n        /* \"contracts/farm.sol\":37973:37977  user */\n      dup4\n        /* \"contracts/farm.sol\":37973:37984  user.amount */\n      0x00\n      add\n      sload\n        /* \"contracts/farm.sol\":37946:37985  Withdraw(msg.sender, _pid, user.amount) */\n      mload(0x40)\n      tag_492\n      swap2\n      swap1\n      tag_50\n      jump\t// in\n    tag_492:\n      mload(0x40)\n      dup1\n      swap2\n      sub\n      swap1\n      log3\n        /* \"contracts/farm.sol\":37177:37992  function _withdraw(... */\n      pop\n      pop\n      pop\n      pop\n      pop\n      jump\t// out\n        /* \"contracts/farm.sol\":39523:39811  function safeSeaTransfer(address _to, uint256 _amount) internal {... */\n    tag_439:\n        /* \"contracts/farm.sol\":39597:39611  uint256 SeaBal */\n      0x00\n        /* \"contracts/farm.sol\":39621:39624  sea */\n      0x02\n      0x00\n      swap1\n      sload\n      swap1\n      0x0100\n      exp\n      swap1\n      div\n      0xffffffffffffffffffffffffffffffffffffffff\n      and\n        /* \"contracts/farm.sol\":39614:39635  IERC20(sea).balanceOf */\n      0xffffffffffffffffffffffffffffffffffffffff\n      and\n      0x70a08231\n        /* \"contracts/farm.sol\":39644:39648  this */\n      address\n        /* \"contracts/farm.sol\":39614:39650  IERC20(sea).balanceOf(address(this)) */\n      mload(0x40)\n      dup3\n      0xffffffff\n      and\n      0xe0\n      shl\n      dup2\n      mstore\n      0x04\n      add\n      tag_494\n      swap2\n      swap1\n      tag_96\n      jump\t// in\n    tag_494:\n      0x20\n      mload(0x40)\n      dup1\n      dup4\n      sub\n      dup2\n      dup7\n      dup1\n      extcodesize\n      iszero\n      dup1\n      iszero\n      tag_495\n      jumpi\n      0x00\n      dup1\n      revert\n    tag_495:\n      pop\n      gas\n      staticcall\n      iszero\n      dup1\n      iszero\n      tag_497\n      jumpi\n      returndatasize\n      0x00\n      dup1\n      returndatacopy\n      revert(0x00, returndatasize)\n    tag_497:\n      pop\n      pop\n      pop\n      pop\n      mload(0x40)\n      returndatasize\n      not(0x1f)\n      0x1f\n      dup3\n      add\n      and\n      dup3\n      add\n      dup1\n      0x40\n      mstore\n      pop\n      dup2\n      add\n      swap1\n      tag_498\n      swap2\n      swap1\n      tag_225\n      jump\t// in\n    tag_498:\n        /* \"contracts/farm.sol\":39597:39650  uint256 SeaBal = IERC20(sea).balanceOf(address(this)) */\n      swap1\n      pop\n        /* \"contracts/farm.sol\":39674:39680  SeaBal */\n      dup1\n        /* \"contracts/farm.sol\":39664:39671  _amount */\n      dup3\n        /* \"contracts/farm.sol\":39664:39680  _amount > SeaBal */\n      gt\n        /* \"contracts/farm.sol\":39660:39805  if (_amount > SeaBal) {... */\n      iszero\n      tag_499\n      jumpi\n        /* \"contracts/farm.sol\":39703:39706  sea */\n      0x02\n      0x00\n      swap1\n      sload\n      swap1\n      0x0100\n      exp\n      swap1\n      div\n      0xffffffffffffffffffffffffffffffffffffffff\n      and\n        /* \"contracts/farm.sol\":39696:39716  IERC20(sea).transfer */\n      0xffffffffffffffffffffffffffffffffffffffff\n      and\n      0xa9059cbb\n        /* \"contracts/farm.sol\":39717:39720  _to */\n      dup5\n        /* \"contracts/farm.sol\":39722:39728  SeaBal */\n      dup4\n        /* \"contracts/farm.sol\":39696:39729  IERC20(sea).transfer(_to, SeaBal) */\n      mload(0x40)\n      dup4\n      0xffffffff\n      and\n      0xe0\n      shl\n      dup2\n      mstore\n      0x04\n      add\n      tag_500\n      swap3\n      swap2\n      swap1\n      tag_270\n      jump\t// in\n    tag_500:\n      0x20\n      mload(0x40)\n      dup1\n      dup4\n      sub\n      dup2\n      0x00\n      dup8\n      dup1\n      extcodesize\n      iszero\n      dup1\n      iszero\n      tag_501\n      jumpi\n      0x00\n      dup1\n      revert\n    tag_501:\n      pop\n      gas\n      call\n      iszero\n      dup1\n      iszero\n      tag_503\n      jumpi\n      returndatasize\n      0x00\n      dup1\n      returndatacopy\n      revert(0x00, returndatasize)\n    tag_503:\n      pop\n      pop\n      pop\n      pop\n      mload(0x40)\n      returndatasize\n      not(0x1f)\n      0x1f\n      dup3\n      add\n      and\n      dup3\n      add\n      dup1\n      0x40\n      mstore\n      pop\n      dup2\n      add\n      swap1\n      tag_504\n      swap2\n      swap1\n      tag_275\n      jump\t// in\n    tag_504:\n      pop\n        /* \"contracts/farm.sol\":39660:39805  if (_amount > SeaBal) {... */\n      jump(tag_505)\n    tag_499:\n        /* \"contracts/farm.sol\":39767:39770  sea */\n      0x02\n      0x00\n      swap1\n      sload\n      swap1\n      0x0100\n      exp\n      swap1\n      div\n      0xffffffffffffffffffffffffffffffffffffffff\n      and\n        /* \"contracts/farm.sol\":39760:39780  IERC20(sea).transfer */\n      0xffffffffffffffffffffffffffffffffffffffff\n      and\n      0xa9059cbb\n        /* \"contracts/farm.sol\":39781:39784  _to */\n      dup5\n        /* \"contracts/farm.sol\":39786:39793  _amount */\n      dup5\n        /* \"contracts/farm.sol\":39760:39794  IERC20(sea).transfer(_to, _amount) */\n      mload(0x40)\n      dup4\n      0xffffffff\n      and\n      0xe0\n      shl\n      dup2\n      mstore\n      0x04\n      add\n      tag_506\n      swap3\n      swap2\n      swap1\n      tag_270\n      jump\t// in\n    tag_506:\n      0x20\n      mload(0x40)\n      dup1\n      dup4\n      sub\n      dup2\n      0x00\n      dup8\n      dup1\n      extcodesize\n      iszero\n      dup1\n      iszero\n      tag_507\n      jumpi\n      0x00\n      dup1\n      revert\n    tag_507:\n      pop\n      gas\n      call\n      iszero\n      dup1\n      iszero\n      tag_509\n      jumpi\n      returndatasize\n      0x00\n      dup1\n      returndatacopy\n      revert(0x00, returndatasize)\n    tag_509:\n      pop\n      pop\n      pop\n      pop\n      mload(0x40)\n      returndatasize\n      not(0x1f)\n      0x1f\n      dup3\n      add\n      and\n      dup3\n      add\n      dup1\n      0x40\n      mstore\n      pop\n      dup2\n      add\n      swap1\n      tag_510\n      swap2\n      swap1\n      tag_275\n      jump\t// in\n    tag_510:\n      pop\n        /* \"contracts/farm.sol\":39660:39805  if (_amount > SeaBal) {... */\n    tag_505:\n        /* \"contracts/farm.sol\":39523:39811  function safeSeaTransfer(address _to, uint256 _amount) internal {... */\n      pop\n      pop\n      pop\n      jump\t// out\n        /* \"contracts/farm.sol\":21863:22706  function _callOptionalReturn(IERC20 token, bytes memory data) private {... */\n    tag_444:\n        /* \"contracts/farm.sol\":22282:22305  bytes memory returndata */\n      0x00\n        /* \"contracts/farm.sol\":22308:22411  address(token).functionCall(... */\n      tag_512\n        /* \"contracts/farm.sol\":22349:22353  data */\n      dup3\n        /* \"contracts/farm.sol\":22308:22411  address(token).functionCall(... */\n      mload(0x40)\n      dup1\n      0x40\n      add\n      0x40\n      mstore\n      dup1\n      0x20\n      dup2\n      mstore\n      0x20\n      add\n      0x5361666545524332303a206c6f772d6c6576656c2063616c6c206661696c6564\n      dup2\n      mstore\n      pop\n        /* \"contracts/farm.sol\":22316:22321  token */\n      dup6\n        /* \"contracts/farm.sol\":22308:22335  address(token).functionCall */\n      0xffffffffffffffffffffffffffffffffffffffff\n      and\n      tag_513\n      swap1\n        /* \"contracts/farm.sol\":22308:22411  address(token).functionCall(... */\n      swap3\n      swap2\n      swap1\n      0xffffffff\n      and\n      jump\t// in\n    tag_512:\n        /* \"contracts/farm.sol\":22282:22411  bytes memory returndata = address(token).functionCall(... */\n      swap1\n      pop\n        /* \"contracts/farm.sol\":22445:22446  0 */\n      0x00\n        /* \"contracts/farm.sol\":22425:22435  returndata */\n      dup2\n        /* \"contracts/farm.sol\":22425:22442  returndata.length */\n      mload\n        /* \"contracts/farm.sol\":22425:22446  returndata.length > 0 */\n      gt\n        /* \"contracts/farm.sol\":22421:22700  if (returndata.length > 0) {... */\n      iszero\n      tag_514\n      jumpi\n        /* \"contracts/farm.sol\":22594:22604  returndata */\n      dup1\n        /* \"contracts/farm.sol\":22583:22613  abi.decode(returndata, (bool)) */\n      dup1\n      0x20\n      add\n      swap1\n      mload\n      dup2\n      add\n      swap1\n      tag_515\n      swap2\n      swap1\n      tag_275\n      jump\t// in\n    tag_515:\n        /* \"contracts/farm.sol\":22558:22689  require(... */\n      tag_516\n      jumpi\n      mload(0x40)\n      0x08c379a000000000000000000000000000000000000000000000000000000000\n      dup2\n      mstore\n      0x04\n      add\n      tag_517\n      swap1\n      tag_518\n      jump\t// in\n    tag_517:\n      mload(0x40)\n      dup1\n      swap2\n      sub\n      swap1\n      revert\n    tag_516:\n        /* \"contracts/farm.sol\":22421:22700  if (returndata.length > 0) {... */\n    tag_514:\n        /* \"contracts/farm.sol\":21863:22706  function _callOptionalReturn(IERC20 token, bytes memory data) private {... */\n      pop\n      pop\n      pop\n      jump\t// out\n        /* \"contracts/farm.sol\":13765:13988  function functionCall(... */\n    tag_513:\n        /* \"contracts/farm.sol\":13898:13910  bytes memory */\n      0x60\n        /* \"contracts/farm.sol\":13929:13981  functionCallWithValue(target, data, 0, errorMessage) */\n      tag_520\n        /* \"contracts/farm.sol\":13951:13957  target */\n      dup5\n        /* \"contracts/farm.sol\":13959:13963  data */\n      dup5\n        /* \"contracts/farm.sol\":13965:13966  0 */\n      0x00\n        /* \"contracts/farm.sol\":13968:13980  errorMessage */\n      dup6\n        /* \"contracts/farm.sol\":13929:13950  functionCallWithValue */\n      tag_521\n        /* \"contracts/farm.sol\":13929:13981  functionCallWithValue(target, data, 0, errorMessage) */\n      jump\t// in\n    tag_520:\n        /* \"contracts/farm.sol\":13922:13981  return functionCallWithValue(target, data, 0, errorMessage) */\n      swap1\n      pop\n        /* \"contracts/farm.sol\":13765:13988  function functionCall(... */\n      swap4\n      swap3\n      pop\n      pop\n      pop\n      jump\t// out\n        /* \"contracts/farm.sol\":14942:15557  function functionCallWithValue(... */\n    tag_521:\n        /* \"contracts/farm.sol\":15107:15119  bytes memory */\n      0x60\n        /* \"contracts/farm.sol\":15177:15182  value */\n      dup3\n        /* \"contracts/farm.sol\":15152:15173  address(this).balance */\n      selfbalance\n        /* \"contracts/farm.sol\":15152:15182  address(this).balance >= value */\n      lt\n      iszero\n        /* \"contracts/farm.sol\":15131:15246  require(... */\n      tag_523\n      jumpi\n      mload(0x40)\n      0x08c379a000000000000000000000000000000000000000000000000000000000\n      dup2\n      mstore\n      0x04\n      add\n      tag_524\n      swap1\n      tag_525\n      jump\t// in\n    tag_524:\n      mload(0x40)\n      dup1\n      swap2\n      sub\n      swap1\n      revert\n    tag_523:\n        /* \"contracts/farm.sol\":15264:15282  isContract(target) */\n      tag_526\n        /* \"contracts/farm.sol\":15275:15281  target */\n      dup6\n        /* \"contracts/farm.sol\":15264:15274  isContract */\n      tag_527\n        /* \"contracts/farm.sol\":15264:15282  isContract(target) */\n      jump\t// in\n    tag_526:\n        /* \"contracts/farm.sol\":15256:15316  require(isContract(target), \"Address: call to non-contract\") */\n      tag_528\n      jumpi\n      mload(0x40)\n      0x08c379a000000000000000000000000000000000000000000000000000000000\n      dup2\n      mstore\n      0x04\n      add\n      tag_529\n      swap1\n      tag_530\n      jump\t// in\n    tag_529:\n      mload(0x40)\n      dup1\n      swap2\n      sub\n      swap1\n      revert\n    tag_528:\n        /* \"contracts/farm.sol\":15387:15399  bool success */\n      0x00\n        /* \"contracts/farm.sol\":15401:15424  bytes memory returndata */\n      dup1\n        /* \"contracts/farm.sol\":15428:15434  target */\n      dup7\n        /* \"contracts/farm.sol\":15428:15439  target.call */\n      0xffffffffffffffffffffffffffffffffffffffff\n      and\n        /* \"contracts/farm.sol\":15447:15452  value */\n      dup6\n        /* \"contracts/farm.sol\":15467:15471  data */\n      dup8\n        /* \"contracts/farm.sol\":15428:15481  target.call{value: value}(... */\n      mload(0x40)\n      tag_531\n      swap2\n      swap1\n      tag_532\n      jump\t// in\n    tag_531:\n      0x00\n      mload(0x40)\n      dup1\n      dup4\n      sub\n      dup2\n      dup6\n      dup8\n      gas\n      call\n      swap3\n      pop\n      pop\n      pop\n      returndatasize\n      dup1\n      0x00\n      dup2\n      eq\n      tag_535\n      jumpi\n      mload(0x40)\n      swap2\n      pop\n      and(add(returndatasize, 0x3f), not(0x1f))\n      dup3\n      add\n      0x40\n      mstore\n      returndatasize\n      dup3\n      mstore\n      returndatasize\n      0x00\n      0x20\n      dup5\n      add\n      returndatacopy\n      jump(tag_534)\n    tag_535:\n      0x60\n      swap2\n      pop\n    tag_534:\n      pop\n        /* \"contracts/farm.sol\":15386:15481  (bool success, bytes memory returndata) = target.call{value: value}(... */\n      swap2\n      pop\n      swap2\n      pop\n        /* \"contracts/farm.sol\":15498:15550  _verifyCallResult(success, returndata, errorMessage) */\n      tag_536\n        /* \"contracts/farm.sol\":15516:15523  success */\n      dup3\n        /* \"contracts/farm.sol\":15525:15535  returndata */\n      dup3\n        /* \"contracts/farm.sol\":15537:15549  errorMessage */\n      dup7\n        /* \"contracts/farm.sol\":15498:15515  _verifyCallResult */\n      tag_537\n        /* \"contracts/farm.sol\":15498:15550  _verifyCallResult(success, returndata, errorMessage) */\n      jump\t// in\n    tag_536:\n        /* \"contracts/farm.sol\":15491:15550  return _verifyCallResult(success, returndata, errorMessage) */\n      swap3\n      pop\n      pop\n      pop\n        /* \"contracts/farm.sol\":14942:15557  function functionCallWithValue(... */\n      swap5\n      swap4\n      pop\n      pop\n      pop\n      pop\n      jump\t// out\n        /* \"contracts/farm.sol\":10802:11235  function isContract(address account) internal view returns (bool) {... */\n    tag_527:\n        /* \"contracts/farm.sol\":10862:10866  bool */\n      0x00\n        /* \"contracts/farm.sol\":11065:11077  uint256 size */\n      dup1\n        /* \"contracts/farm.sol\":11186:11193  account */\n      dup3\n        /* \"contracts/farm.sol\":11174:11194  extcodesize(account) */\n      extcodesize\n        /* \"contracts/farm.sol\":11166:11194  size := extcodesize(account) */\n      swap1\n      pop\n        /* \"contracts/farm.sol\":11227:11228  0 */\n      0x00\n        /* \"contracts/farm.sol\":11220:11224  size */\n      dup2\n        /* \"contracts/farm.sol\":11220:11228  size > 0 */\n      gt\n        /* \"contracts/farm.sol\":11213:11228  return size > 0 */\n      swap2\n      pop\n      pop\n        /* \"contracts/farm.sol\":10802:11235  function isContract(address account) internal view returns (bool) {... */\n      swap2\n      swap1\n      pop\n      jump\t// out\n        /* \"contracts/farm.sol\":17773:18529  function _verifyCallResult(... */\n    tag_537:\n        /* \"contracts/farm.sol\":17919:17931  bytes memory */\n      0x60\n        /* \"contracts/farm.sol\":17947:17954  success */\n      dup4\n        /* \"contracts/farm.sol\":17943:18523  if (success) {... */\n      iszero\n      tag_540\n      jumpi\n        /* \"contracts/farm.sol\":17977:17987  returndata */\n      dup3\n        /* \"contracts/farm.sol\":17970:17987  return returndata */\n      swap1\n      pop\n      jump(tag_539)\n        /* \"contracts/farm.sol\":17943:18523  if (success) {... */\n    tag_540:\n        /* \"contracts/farm.sol\":18108:18109  0 */\n      0x00\n        /* \"contracts/farm.sol\":18088:18098  returndata */\n      dup4\n        /* \"contracts/farm.sol\":18088:18105  returndata.length */\n      mload\n        /* \"contracts/farm.sol\":18088:18109  returndata.length > 0 */\n      gt\n        /* \"contracts/farm.sol\":18084:18513  if (returndata.length > 0) {... */\n      iszero\n      tag_542\n      jumpi\n        /* \"contracts/farm.sol\":18346:18356  returndata */\n      dup3\n        /* \"contracts/farm.sol\":18340:18357  mload(returndata) */\n      mload\n        /* \"contracts/farm.sol\":18406:18421  returndata_size */\n      dup1\n        /* \"contracts/farm.sol\":18393:18403  returndata */\n      dup5\n        /* \"contracts/farm.sol\":18389:18391  32 */\n      0x20\n        /* \"contracts/farm.sol\":18385:18404  add(32, returndata) */\n      add\n        /* \"contracts/farm.sol\":18378:18422  revert(add(32, returndata), returndata_size) */\n      revert\n        /* \"contracts/farm.sol\":18295:18440  {... */\n    tag_542:\n        /* \"contracts/farm.sol\":18485:18497  errorMessage */\n      dup2\n        /* \"contracts/farm.sol\":18478:18498  revert(errorMessage) */\n      mload(0x40)\n      0x08c379a000000000000000000000000000000000000000000000000000000000\n      dup2\n      mstore\n      0x04\n      add\n      tag_544\n      swap2\n      swap1\n      tag_545\n      jump\t// in\n    tag_544:\n      mload(0x40)\n      dup1\n      swap2\n      sub\n      swap1\n      revert\n        /* \"contracts/farm.sol\":17773:18529  function _verifyCallResult(... */\n    tag_539:\n      swap4\n      swap3\n      pop\n      pop\n      pop\n      jump\t// out\n        /* \"#utility.yul\":7:146   */\n    tag_547:\n      0x00\n        /* \"#utility.yul\":91:97   */\n      dup2\n        /* \"#utility.yul\":78:98   */\n      calldataload\n        /* \"#utility.yul\":69:98   */\n      swap1\n      pop\n        /* \"#utility.yul\":107:140   */\n      tag_549\n        /* \"#utility.yul\":134:139   */\n      dup2\n        /* \"#utility.yul\":107:140   */\n      tag_550\n      jump\t// in\n    tag_549:\n        /* \"#utility.yul\":59:146   */\n      swap3\n      swap2\n      pop\n      pop\n      jump\t// out\n        /* \"#utility.yul\":152:285   */\n    tag_551:\n      0x00\n        /* \"#utility.yul\":233:239   */\n      dup2\n        /* \"#utility.yul\":220:240   */\n      calldataload\n        /* \"#utility.yul\":211:240   */\n      swap1\n      pop\n        /* \"#utility.yul\":249:279   */\n      tag_553\n        /* \"#utility.yul\":273:278   */\n      dup2\n        /* \"#utility.yul\":249:279   */\n      tag_554\n      jump\t// in\n    tag_553:\n        /* \"#utility.yul\":201:285   */\n      swap3\n      swap2\n      pop\n      pop\n      jump\t// out\n        /* \"#utility.yul\":291:428   */\n    tag_555:\n      0x00\n        /* \"#utility.yul\":376:382   */\n      dup2\n        /* \"#utility.yul\":370:383   */\n      mload\n        /* \"#utility.yul\":361:383   */\n      swap1\n      pop\n        /* \"#utility.yul\":392:422   */\n      tag_557\n        /* \"#utility.yul\":416:421   */\n      dup2\n        /* \"#utility.yul\":392:422   */\n      tag_554\n      jump\t// in\n    tag_557:\n        /* \"#utility.yul\":351:428   */\n      swap3\n      swap2\n      pop\n      pop\n      jump\t// out\n        /* \"#utility.yul\":434:573   */\n    tag_558:\n      0x00\n        /* \"#utility.yul\":518:524   */\n      dup2\n        /* \"#utility.yul\":505:525   */\n      calldataload\n        /* \"#utility.yul\":496:525   */\n      swap1\n      pop\n        /* \"#utility.yul\":534:567   */\n      tag_560\n        /* \"#utility.yul\":561:566   */\n      dup2\n        /* \"#utility.yul\":534:567   */\n      tag_561\n      jump\t// in\n    tag_560:\n        /* \"#utility.yul\":486:573   */\n      swap3\n      swap2\n      pop\n      pop\n      jump\t// out\n        /* \"#utility.yul\":579:722   */\n    tag_562:\n      0x00\n        /* \"#utility.yul\":667:673   */\n      dup2\n        /* \"#utility.yul\":661:674   */\n      mload\n        /* \"#utility.yul\":652:674   */\n      swap1\n      pop\n        /* \"#utility.yul\":683:716   */\n      tag_564\n        /* \"#utility.yul\":710:715   */\n      dup2\n        /* \"#utility.yul\":683:716   */\n      tag_561\n      jump\t// in\n    tag_564:\n        /* \"#utility.yul\":642:722   */\n      swap3\n      swap2\n      pop\n      pop\n      jump\t// out\n        /* \"#utility.yul\":728:990   */\n    tag_87:\n      0x00\n        /* \"#utility.yul\":836:838   */\n      0x20\n        /* \"#utility.yul\":824:833   */\n      dup3\n        /* \"#utility.yul\":815:822   */\n      dup5\n        /* \"#utility.yul\":811:834   */\n      sub\n        /* \"#utility.yul\":807:839   */\n      slt\n        /* \"#utility.yul\":804:806   */\n      iszero\n      tag_566\n      jumpi\n        /* \"#utility.yul\":852:853   */\n      0x00\n        /* \"#utility.yul\":849:850   */\n      dup1\n        /* \"#utility.yul\":842:854   */\n      revert\n        /* \"#utility.yul\":804:806   */\n    tag_566:\n        /* \"#utility.yul\":895:896   */\n      0x00\n        /* \"#utility.yul\":920:973   */\n      tag_567\n        /* \"#utility.yul\":965:972   */\n      dup5\n        /* \"#utility.yul\":956:962   */\n      dup3\n        /* \"#utility.yul\":945:954   */\n      dup6\n        /* \"#utility.yul\":941:963   */\n      add\n        /* \"#utility.yul\":920:973   */\n      tag_547\n      jump\t// in\n    tag_567:\n        /* \"#utility.yul\":910:973   */\n      swap2\n      pop\n        /* \"#utility.yul\":866:983   */\n      pop\n        /* \"#utility.yul\":794:990   */\n      swap3\n      swap2\n      pop\n      pop\n      jump\t// out\n        /* \"#utility.yul\":996:1397   */\n    tag_69:\n      0x00\n      dup1\n        /* \"#utility.yul\":1118:1120   */\n      0x40\n        /* \"#utility.yul\":1106:1115   */\n      dup4\n        /* \"#utility.yul\":1097:1104   */\n      dup6\n        /* \"#utility.yul\":1093:1116   */\n      sub\n        /* \"#utility.yul\":1089:1121   */\n      slt\n        /* \"#utility.yul\":1086:1088   */\n      iszero\n      tag_569\n      jumpi\n        /* \"#utility.yul\":1134:1135   */\n      0x00\n        /* \"#utility.yul\":1131:1132   */\n      dup1\n        /* \"#utility.yul\":1124:1136   */\n      revert\n        /* \"#utility.yul\":1086:1088   */\n    tag_569:\n        /* \"#utility.yul\":1177:1178   */\n      0x00\n        /* \"#utility.yul\":1202:1255   */\n      tag_570\n        /* \"#utility.yul\":1247:1254   */\n      dup6\n        /* \"#utility.yul\":1238:1244   */\n      dup3\n        /* \"#utility.yul\":1227:1236   */\n      dup7\n        /* \"#utility.yul\":1223:1245   */\n      add\n        /* \"#utility.yul\":1202:1255   */\n      tag_547\n      jump\t// in\n    tag_570:\n        /* \"#utility.yul\":1192:1255   */\n      swap3\n      pop\n        /* \"#utility.yul\":1148:1265   */\n      pop\n        /* \"#utility.yul\":1304:1306   */\n      0x20\n        /* \"#utility.yul\":1330:1380   */\n      tag_571\n        /* \"#utility.yul\":1372:1379   */\n      dup6\n        /* \"#utility.yul\":1363:1369   */\n      dup3\n        /* \"#utility.yul\":1352:1361   */\n      dup7\n        /* \"#utility.yul\":1348:1370   */\n      add\n        /* \"#utility.yul\":1330:1380   */\n      tag_551\n      jump\t// in\n    tag_571:\n        /* \"#utility.yul\":1320:1380   */\n      swap2\n      pop\n        /* \"#utility.yul\":1275:1390   */\n      pop\n        /* \"#utility.yul\":1076:1397   */\n      swap3\n      pop\n      swap3\n      swap1\n      pop\n      jump\t// out\n        /* \"#utility.yul\":1403:1810   */\n    tag_120:\n      0x00\n      dup1\n        /* \"#utility.yul\":1528:1530   */\n      0x40\n        /* \"#utility.yul\":1516:1525   */\n      dup4\n        /* \"#utility.yul\":1507:1514   */\n      dup6\n        /* \"#utility.yul\":1503:1526   */\n      sub\n        /* \"#utility.yul\":1499:1531   */\n      slt\n        /* \"#utility.yul\":1496:1498   */\n      iszero\n      tag_573\n      jumpi\n        /* \"#utility.yul\":1544:1545   */\n      0x00\n        /* \"#utility.yul\":1541:1542   */\n      dup1\n        /* \"#utility.yul\":1534:1546   */\n      revert\n        /* \"#utility.yul\":1496:1498   */\n    tag_573:\n        /* \"#utility.yul\":1587:1588   */\n      0x00\n        /* \"#utility.yul\":1612:1665   */\n      tag_574\n        /* \"#utility.yul\":1657:1664   */\n      dup6\n        /* \"#utility.yul\":1648:1654   */\n      dup3\n        /* \"#utility.yul\":1637:1646   */\n      dup7\n        /* \"#utility.yul\":1633:1655   */\n      add\n        /* \"#utility.yul\":1612:1665   */\n      tag_547\n      jump\t// in\n    tag_574:\n        /* \"#utility.yul\":1602:1665   */\n      swap3\n      pop\n        /* \"#utility.yul\":1558:1675   */\n      pop\n        /* \"#utility.yul\":1714:1716   */\n      0x20\n        /* \"#utility.yul\":1740:1793   */\n      tag_575\n        /* \"#utility.yul\":1785:1792   */\n      dup6\n        /* \"#utility.yul\":1776:1782   */\n      dup3\n        /* \"#utility.yul\":1765:1774   */\n      dup7\n        /* \"#utility.yul\":1761:1783   */\n      add\n        /* \"#utility.yul\":1740:1793   */\n      tag_558\n      jump\t// in\n    tag_575:\n        /* \"#utility.yul\":1730:1793   */\n      swap2\n      pop\n        /* \"#utility.yul\":1685:1803   */\n      pop\n        /* \"#utility.yul\":1486:1810   */\n      swap3\n      pop\n      swap3\n      swap1\n      pop\n      jump\t// out\n        /* \"#utility.yul\":1816:2368   */\n    tag_53:\n      0x00\n      dup1\n      0x00\n        /* \"#utility.yul\":1958:1960   */\n      0x60\n        /* \"#utility.yul\":1946:1955   */\n      dup5\n        /* \"#utility.yul\":1937:1944   */\n      dup7\n        /* \"#utility.yul\":1933:1956   */\n      sub\n        /* \"#utility.yul\":1929:1961   */\n      slt\n        /* \"#utility.yul\":1926:1928   */\n      iszero\n      tag_577\n      jumpi\n        /* \"#utility.yul\":1974:1975   */\n      0x00\n        /* \"#utility.yul\":1971:1972   */\n      dup1\n        /* \"#utility.yul\":1964:1976   */\n      revert\n        /* \"#utility.yul\":1926:1928   */\n    tag_577:\n        /* \"#utility.yul\":2017:2018   */\n      0x00\n        /* \"#utility.yul\":2042:2095   */\n      tag_578\n        /* \"#utility.yul\":2087:2094   */\n      dup7\n        /* \"#utility.yul\":2078:2084   */\n      dup3\n        /* \"#utility.yul\":2067:2076   */\n      dup8\n        /* \"#utility.yul\":2063:2085   */\n      add\n        /* \"#utility.yul\":2042:2095   */\n      tag_547\n      jump\t// in\n    tag_578:\n        /* \"#utility.yul\":2032:2095   */\n      swap4\n      pop\n        /* \"#utility.yul\":1988:2105   */\n      pop\n        /* \"#utility.yul\":2144:2146   */\n      0x20\n        /* \"#utility.yul\":2170:2223   */\n      tag_579\n        /* \"#utility.yul\":2215:2222   */\n      dup7\n        /* \"#utility.yul\":2206:2212   */\n      dup3\n        /* \"#utility.yul\":2195:2204   */\n      dup8\n        /* \"#utility.yul\":2191:2213   */\n      add\n        /* \"#utility.yul\":2170:2223   */\n      tag_558\n      jump\t// in\n    tag_579:\n        /* \"#utility.yul\":2160:2223   */\n      swap3\n      pop\n        /* \"#utility.yul\":2115:2233   */\n      pop\n        /* \"#utility.yul\":2272:2274   */\n      0x40\n        /* \"#utility.yul\":2298:2351   */\n      tag_580\n        /* \"#utility.yul\":2343:2350   */\n      dup7\n        /* \"#utility.yul\":2334:2340   */\n      dup3\n        /* \"#utility.yul\":2323:2332   */\n      dup8\n        /* \"#utility.yul\":2319:2341   */\n      add\n        /* \"#utility.yul\":2298:2351   */\n      tag_558\n      jump\t// in\n    tag_580:\n        /* \"#utility.yul\":2288:2351   */\n      swap2\n      pop\n        /* \"#utility.yul\":2243:2361   */\n      pop\n        /* \"#utility.yul\":1916:2368   */\n      swap3\n      pop\n      swap3\n      pop\n      swap3\n      jump\t// out\n        /* \"#utility.yul\":2374:2652   */\n    tag_275:\n      0x00\n        /* \"#utility.yul\":2490:2492   */\n      0x20\n        /* \"#utility.yul\":2478:2487   */\n      dup3\n        /* \"#utility.yul\":2469:2476   */\n      dup5\n        /* \"#utility.yul\":2465:2488   */\n      sub\n        /* \"#utility.yul\":2461:2493   */\n      slt\n        /* \"#utility.yul\":2458:2460   */\n      iszero\n      tag_582\n      jumpi\n        /* \"#utility.yul\":2506:2507   */\n      0x00\n        /* \"#utility.yul\":2503:2504   */\n      dup1\n        /* \"#utility.yul\":2496:2508   */\n      revert\n        /* \"#utility.yul\":2458:2460   */\n    tag_582:\n        /* \"#utility.yul\":2549:2550   */\n      0x00\n        /* \"#utility.yul\":2574:2635   */\n      tag_583\n        /* \"#utility.yul\":2627:2634   */\n      dup5\n        /* \"#utility.yul\":2618:2624   */\n      dup3\n        /* \"#utility.yul\":2607:2616   */\n      dup6\n        /* \"#utility.yul\":2603:2625   */\n      add\n        /* \"#utility.yul\":2574:2635   */\n      tag_555\n      jump\t// in\n    tag_583:\n        /* \"#utility.yul\":2564:2635   */\n      swap2\n      pop\n        /* \"#utility.yul\":2520:2645   */\n      pop\n        /* \"#utility.yul\":2448:2652   */\n      swap3\n      swap2\n      pop\n      pop\n      jump\t// out\n        /* \"#utility.yul\":2658:2920   */\n    tag_57:\n      0x00\n        /* \"#utility.yul\":2766:2768   */\n      0x20\n        /* \"#utility.yul\":2754:2763   */\n      dup3\n        /* \"#utility.yul\":2745:2752   */\n      dup5\n        /* \"#utility.yul\":2741:2764   */\n      sub\n        /* \"#utility.yul\":2737:2769   */\n      slt\n        /* \"#utility.yul\":2734:2736   */\n      iszero\n      tag_585\n      jumpi\n        /* \"#utility.yul\":2782:2783   */\n      0x00\n        /* \"#utility.yul\":2779:2780   */\n      dup1\n        /* \"#utility.yul\":2772:2784   */\n      revert\n        /* \"#utility.yul\":2734:2736   */\n    tag_585:\n        /* \"#utility.yul\":2825:2826   */\n      0x00\n        /* \"#utility.yul\":2850:2903   */\n      tag_586\n        /* \"#utility.yul\":2895:2902   */\n      dup5\n        /* \"#utility.yul\":2886:2892   */\n      dup3\n        /* \"#utility.yul\":2875:2884   */\n      dup6\n        /* \"#utility.yul\":2871:2893   */\n      add\n        /* \"#utility.yul\":2850:2903   */\n      tag_558\n      jump\t// in\n    tag_586:\n        /* \"#utility.yul\":2840:2903   */\n      swap2\n      pop\n        /* \"#utility.yul\":2796:2913   */\n      pop\n        /* \"#utility.yul\":2724:2920   */\n      swap3\n      swap2\n      pop\n      pop\n      jump\t// out\n        /* \"#utility.yul\":2926:3210   */\n    tag_225:\n      0x00\n        /* \"#utility.yul\":3045:3047   */\n      0x20\n        /* \"#utility.yul\":3033:3042   */\n      dup3\n        /* \"#utility.yul\":3024:3031   */\n      dup5\n        /* \"#utility.yul\":3020:3043   */\n      sub\n        /* \"#utility.yul\":3016:3048   */\n      slt\n        /* \"#utility.yul\":3013:3015   */\n      iszero\n      tag_588\n      jumpi\n        /* \"#utility.yul\":3061:3062   */\n      0x00\n        /* \"#utility.yul\":3058:3059   */\n      dup1\n        /* \"#utility.yul\":3051:3063   */\n      revert\n        /* \"#utility.yul\":3013:3015   */\n    tag_588:\n        /* \"#utility.yul\":3104:3105   */\n      0x00\n        /* \"#utility.yul\":3129:3193   */\n      tag_589\n        /* \"#utility.yul\":3185:3192   */\n      dup5\n        /* \"#utility.yul\":3176:3182   */\n      dup3\n        /* \"#utility.yul\":3165:3174   */\n      dup6\n        /* \"#utility.yul\":3161:3183   */\n      add\n        /* \"#utility.yul\":3129:3193   */\n      tag_562\n      jump\t// in\n    tag_589:\n        /* \"#utility.yul\":3119:3193   */\n      swap2\n      pop\n        /* \"#utility.yul\":3075:3203   */\n      pop\n        /* \"#utility.yul\":3003:3210   */\n      swap3\n      swap2\n      pop\n      pop\n      jump\t// out\n        /* \"#utility.yul\":3216:3623   */\n    tag_75:\n      0x00\n      dup1\n        /* \"#utility.yul\":3341:3343   */\n      0x40\n        /* \"#utility.yul\":3329:3338   */\n      dup4\n        /* \"#utility.yul\":3320:3327   */\n      dup6\n        /* \"#utility.yul\":3316:3339   */\n      sub\n        /* \"#utility.yul\":3312:3344   */\n      slt\n        /* \"#utility.yul\":3309:3311   */\n      iszero\n      tag_591\n      jumpi\n        /* \"#utility.yul\":3357:3358   */\n      0x00\n        /* \"#utility.yul\":3354:3355   */\n      dup1\n        /* \"#utility.yul\":3347:3359   */\n      revert\n        /* \"#utility.yul\":3309:3311   */\n    tag_591:\n        /* \"#utility.yul\":3400:3401   */\n      0x00\n        /* \"#utility.yul\":3425:3478   */\n      tag_592\n        /* \"#utility.yul\":3470:3477   */\n      dup6\n        /* \"#utility.yul\":3461:3467   */\n      dup3\n        /* \"#utility.yul\":3450:3459   */\n      dup7\n        /* \"#utility.yul\":3446:3468   */\n      add\n        /* \"#utility.yul\":3425:3478   */\n      tag_558\n      jump\t// in\n    tag_592:\n        /* \"#utility.yul\":3415:3478   */\n      swap3\n      pop\n        /* \"#utility.yul\":3371:3488   */\n      pop\n        /* \"#utility.yul\":3527:3529   */\n      0x20\n        /* \"#utility.yul\":3553:3606   */\n      tag_593\n        /* \"#utility.yul\":3598:3605   */\n      dup6\n        /* \"#utility.yul\":3589:3595   */\n      dup3\n        /* \"#utility.yul\":3578:3587   */\n      dup7\n        /* \"#utility.yul\":3574:3596   */\n      add\n        /* \"#utility.yul\":3553:3606   */\n      tag_547\n      jump\t// in\n    tag_593:\n        /* \"#utility.yul\":3543:3606   */\n      swap2\n      pop\n        /* \"#utility.yul\":3498:3616   */\n      pop\n        /* \"#utility.yul\":3299:3623   */\n      swap3\n      pop\n      swap3\n      swap1\n      pop\n      jump\t// out\n        /* \"#utility.yul\":3629:4175   */\n    tag_109:\n      0x00\n      dup1\n      0x00\n        /* \"#utility.yul\":3768:3770   */\n      0x60\n        /* \"#utility.yul\":3756:3765   */\n      dup5\n        /* \"#utility.yul\":3747:3754   */\n      dup7\n        /* \"#utility.yul\":3743:3766   */\n      sub\n        /* \"#utility.yul\":3739:3771   */\n      slt\n        /* \"#utility.yul\":3736:3738   */\n      iszero\n      tag_595\n      jumpi\n        /* \"#utility.yul\":3784:3785   */\n      0x00\n        /* \"#utility.yul\":3781:3782   */\n      dup1\n        /* \"#utility.yul\":3774:3786   */\n      revert\n        /* \"#utility.yul\":3736:3738   */\n    tag_595:\n        /* \"#utility.yul\":3827:3828   */\n      0x00\n        /* \"#utility.yul\":3852:3905   */\n      tag_596\n        /* \"#utility.yul\":3897:3904   */\n      dup7\n        /* \"#utility.yul\":3888:3894   */\n      dup3\n        /* \"#utility.yul\":3877:3886   */\n      dup8\n        /* \"#utility.yul\":3873:3895   */\n      add\n        /* \"#utility.yul\":3852:3905   */\n      tag_558\n      jump\t// in\n    tag_596:\n        /* \"#utility.yul\":3842:3905   */\n      swap4\n      pop\n        /* \"#utility.yul\":3798:3915   */\n      pop\n        /* \"#utility.yul\":3954:3956   */\n      0x20\n        /* \"#utility.yul\":3980:4033   */\n      tag_597\n        /* \"#utility.yul\":4025:4032   */\n      dup7\n        /* \"#utility.yul\":4016:4022   */\n      dup3\n        /* \"#utility.yul\":4005:4014   */\n      dup8\n        /* \"#utility.yul\":4001:4023   */\n      add\n        /* \"#utility.yul\":3980:4033   */\n      tag_547\n      jump\t// in\n    tag_597:\n        /* \"#utility.yul\":3970:4033   */\n      swap3\n      pop\n        /* \"#utility.yul\":3925:4043   */\n      pop\n        /* \"#utility.yul\":4082:4084   */\n      0x40\n        /* \"#utility.yul\":4108:4158   */\n      tag_598\n        /* \"#utility.yul\":4150:4157   */\n      dup7\n        /* \"#utility.yul\":4141:4147   */\n      dup3\n        /* \"#utility.yul\":4130:4139   */\n      dup8\n        /* \"#utility.yul\":4126:4148   */\n      add\n        /* \"#utility.yul\":4108:4158   */\n      tag_551\n      jump\t// in\n    tag_598:\n        /* \"#utility.yul\":4098:4158   */\n      swap2\n      pop\n        /* \"#utility.yul\":4053:4168   */\n      pop\n        /* \"#utility.yul\":3726:4175   */\n      swap3\n      pop\n      swap3\n      pop\n      swap3\n      jump\t// out\n        /* \"#utility.yul\":4181:4588   */\n    tag_45:\n      0x00\n      dup1\n        /* \"#utility.yul\":4306:4308   */\n      0x40\n        /* \"#utility.yul\":4294:4303   */\n      dup4\n        /* \"#utility.yul\":4285:4292   */\n      dup6\n        /* \"#utility.yul\":4281:4304   */\n      sub\n        /* \"#utility.yul\":4277:4309   */\n      slt\n        /* \"#utility.yul\":4274:4276   */\n      iszero\n      tag_600\n      jumpi\n        /* \"#utility.yul\":4322:4323   */\n      0x00\n        /* \"#utility.yul\":4319:4320   */\n      dup1\n        /* \"#utility.yul\":4312:4324   */\n      revert\n        /* \"#utility.yul\":4274:4276   */\n    tag_600:\n        /* \"#utility.yul\":4365:4366   */\n      0x00\n        /* \"#utility.yul\":4390:4443   */\n      tag_601\n        /* \"#utility.yul\":4435:4442   */\n      dup6\n        /* \"#utility.yul\":4426:4432   */\n      dup3\n        /* \"#utility.yul\":4415:4424   */\n      dup7\n        /* \"#utility.yul\":4411:4433   */\n      add\n        /* \"#utility.yul\":4390:4443   */\n      tag_558\n      jump\t// in\n    tag_601:\n        /* \"#utility.yul\":4380:4443   */\n      swap3\n      pop\n        /* \"#utility.yul\":4336:4453   */\n      pop\n        /* \"#utility.yul\":4492:4494   */\n      0x20\n        /* \"#utility.yul\":4518:4571   */\n      tag_602\n        /* \"#utility.yul\":4563:4570   */\n      dup6\n        /* \"#utility.yul\":4554:4560   */\n      dup3\n        /* \"#utility.yul\":4543:4552   */\n      dup7\n        /* \"#utility.yul\":4539:4561   */\n      add\n        /* \"#utility.yul\":4518:4571   */\n      tag_558\n      jump\t// in\n    tag_602:\n        /* \"#utility.yul\":4508:4571   */\n      swap2\n      pop\n        /* \"#utility.yul\":4463:4581   */\n      pop\n        /* \"#utility.yul\":4264:4588   */\n      swap3\n      pop\n      swap3\n      swap1\n      pop\n      jump\t// out\n        /* \"#utility.yul\":4594:5140   */\n    tag_83:\n      0x00\n      dup1\n      0x00\n        /* \"#utility.yul\":4733:4735   */\n      0x60\n        /* \"#utility.yul\":4721:4730   */\n      dup5\n        /* \"#utility.yul\":4712:4719   */\n      dup7\n        /* \"#utility.yul\":4708:4731   */\n      sub\n        /* \"#utility.yul\":4704:4736   */\n      slt\n        /* \"#utility.yul\":4701:4703   */\n      iszero\n      tag_604\n      jumpi\n        /* \"#utility.yul\":4749:4750   */\n      0x00\n        /* \"#utility.yul\":4746:4747   */\n      dup1\n        /* \"#utility.yul\":4739:4751   */\n      revert\n        /* \"#utility.yul\":4701:4703   */\n    tag_604:\n        /* \"#utility.yul\":4792:4793   */\n      0x00\n        /* \"#utility.yul\":4817:4870   */\n      tag_605\n        /* \"#utility.yul\":4862:4869   */\n      dup7\n        /* \"#utility.yul\":4853:4859   */\n      dup3\n        /* \"#utility.yul\":4842:4851   */\n      dup8\n        /* \"#utility.yul\":4838:4860   */\n      add\n        /* \"#utility.yul\":4817:4870   */\n      tag_558\n      jump\t// in\n    tag_605:\n        /* \"#utility.yul\":4807:4870   */\n      swap4\n      pop\n        /* \"#utility.yul\":4763:4880   */\n      pop\n        /* \"#utility.yul\":4919:4921   */\n      0x20\n        /* \"#utility.yul\":4945:4998   */\n      tag_606\n        /* \"#utility.yul\":4990:4997   */\n      dup7\n        /* \"#utility.yul\":4981:4987   */\n      dup3\n        /* \"#utility.yul\":4970:4979   */\n      dup8\n        /* \"#utility.yul\":4966:4988   */\n      add\n        /* \"#utility.yul\":4945:4998   */\n      tag_558\n      jump\t// in\n    tag_606:\n        /* \"#utility.yul\":4935:4998   */\n      swap3\n      pop\n        /* \"#utility.yul\":4890:5008   */\n      pop\n        /* \"#utility.yul\":5047:5049   */\n      0x40\n        /* \"#utility.yul\":5073:5123   */\n      tag_607\n        /* \"#utility.yul\":5115:5122   */\n      dup7\n        /* \"#utility.yul\":5106:5112   */\n      dup3\n        /* \"#utility.yul\":5095:5104   */\n      dup8\n        /* \"#utility.yul\":5091:5113   */\n      add\n        /* \"#utility.yul\":5073:5123   */\n      tag_551\n      jump\t// in\n    tag_607:\n        /* \"#utility.yul\":5063:5123   */\n      swap2\n      pop\n        /* \"#utility.yul\":5018:5133   */\n      pop\n        /* \"#utility.yul\":4691:5140   */\n      swap3\n      pop\n      swap3\n      pop\n      swap3\n      jump\t// out\n        /* \"#utility.yul\":5146:5264   */\n    tag_608:\n        /* \"#utility.yul\":5233:5257   */\n      tag_610\n        /* \"#utility.yul\":5251:5256   */\n      dup2\n        /* \"#utility.yul\":5233:5257   */\n      tag_611\n      jump\t// in\n    tag_610:\n        /* \"#utility.yul\":5228:5231   */\n      dup3\n        /* \"#utility.yul\":5221:5258   */\n      mstore\n        /* \"#utility.yul\":5211:5264   */\n      pop\n      pop\n      jump\t// out\n        /* \"#utility.yul\":5270:5379   */\n    tag_612:\n        /* \"#utility.yul\":5351:5372   */\n      tag_614\n        /* \"#utility.yul\":5366:5371   */\n      dup2\n        /* \"#utility.yul\":5351:5372   */\n      tag_615\n      jump\t// in\n    tag_614:\n        /* \"#utility.yul\":5346:5349   */\n      dup3\n        /* \"#utility.yul\":5339:5373   */\n      mstore\n        /* \"#utility.yul\":5329:5379   */\n      pop\n      pop\n      jump\t// out\n        /* \"#utility.yul\":5385:5758   */\n    tag_616:\n      0x00\n        /* \"#utility.yul\":5517:5555   */\n      tag_618\n        /* \"#utility.yul\":5549:5554   */\n      dup3\n        /* \"#utility.yul\":5517:5555   */\n      tag_619\n      jump\t// in\n    tag_618:\n        /* \"#utility.yul\":5571:5659   */\n      tag_620\n        /* \"#utility.yul\":5652:5658   */\n      dup2\n        /* \"#utility.yul\":5647:5650   */\n      dup6\n        /* \"#utility.yul\":5571:5659   */\n      tag_621\n      jump\t// in\n    tag_620:\n        /* \"#utility.yul\":5564:5659   */\n      swap4\n      pop\n        /* \"#utility.yul\":5668:5720   */\n      tag_622\n        /* \"#utility.yul\":5713:5719   */\n      dup2\n        /* \"#utility.yul\":5708:5711   */\n      dup6\n        /* \"#utility.yul\":5701:5705   */\n      0x20\n        /* \"#utility.yul\":5694:5699   */\n      dup7\n        /* \"#utility.yul\":5690:5706   */\n      add\n        /* \"#utility.yul\":5668:5720   */\n      tag_623\n      jump\t// in\n    tag_622:\n        /* \"#utility.yul\":5745:5751   */\n      dup1\n        /* \"#utility.yul\":5740:5743   */\n      dup5\n        /* \"#utility.yul\":5736:5752   */\n      add\n        /* \"#utility.yul\":5729:5752   */\n      swap2\n      pop\n        /* \"#utility.yul\":5493:5758   */\n      pop\n      swap3\n      swap2\n      pop\n      pop\n      jump\t// out\n        /* \"#utility.yul\":5764:6128   */\n    tag_624:\n      0x00\n        /* \"#utility.yul\":5880:5919   */\n      tag_626\n        /* \"#utility.yul\":5913:5918   */\n      dup3\n        /* \"#utility.yul\":5880:5919   */\n      tag_627\n      jump\t// in\n    tag_626:\n        /* \"#utility.yul\":5935:6006   */\n      tag_628\n        /* \"#utility.yul\":5999:6005   */\n      dup2\n        /* \"#utility.yul\":5994:5997   */\n      dup6\n        /* \"#utility.yul\":5935:6006   */\n      tag_629\n      jump\t// in\n    tag_628:\n        /* \"#utility.yul\":5928:6006   */\n      swap4\n      pop\n        /* \"#utility.yul\":6015:6067   */\n      tag_630\n        /* \"#utility.yul\":6060:6066   */\n      dup2\n        /* \"#utility.yul\":6055:6058   */\n      dup6\n        /* \"#utility.yul\":6048:6052   */\n      0x20\n        /* \"#utility.yul\":6041:6046   */\n      dup7\n        /* \"#utility.yul\":6037:6053   */\n      add\n        /* \"#utility.yul\":6015:6067   */\n      tag_623\n      jump\t// in\n    tag_630:\n        /* \"#utility.yul\":6092:6121   */\n      tag_631\n        /* \"#utility.yul\":6114:6120   */\n      dup2\n        /* \"#utility.yul\":6092:6121   */\n      tag_632\n      jump\t// in\n    tag_631:\n        /* \"#utility.yul\":6087:6090   */\n      dup5\n        /* \"#utility.yul\":6083:6122   */\n      add\n        /* \"#utility.yul\":6076:6122   */\n      swap2\n      pop\n        /* \"#utility.yul\":5856:6128   */\n      pop\n      swap3\n      swap2\n      pop\n      pop\n      jump\t// out\n        /* \"#utility.yul\":6134:6504   */\n    tag_633:\n      0x00\n        /* \"#utility.yul\":6297:6364   */\n      tag_635\n        /* \"#utility.yul\":6361:6363   */\n      0x26\n        /* \"#utility.yul\":6356:6359   */\n      dup4\n        /* \"#utility.yul\":6297:6364   */\n      tag_629\n      jump\t// in\n    tag_635:\n        /* \"#utility.yul\":6290:6364   */\n      swap2\n      pop\n        /* \"#utility.yul\":6394:6428   */\n      0x4f776e61626c653a206e6577206f776e657220697320746865207a65726f2061\n        /* \"#utility.yul\":6390:6391   */\n      0x00\n        /* \"#utility.yul\":6385:6388   */\n      dup4\n        /* \"#utility.yul\":6381:6392   */\n      add\n        /* \"#utility.yul\":6374:6429   */\n      mstore\n        /* \"#utility.yul\":6460:6468   */\n      0x6464726573730000000000000000000000000000000000000000000000000000\n        /* \"#utility.yul\":6455:6457   */\n      0x20\n        /* \"#utility.yul\":6450:6453   */\n      dup4\n        /* \"#utility.yul\":6446:6458   */\n      add\n        /* \"#utility.yul\":6439:6469   */\n      mstore\n        /* \"#utility.yul\":6495:6497   */\n      0x40\n        /* \"#utility.yul\":6490:6493   */\n      dup3\n        /* \"#utility.yul\":6486:6498   */\n      add\n        /* \"#utility.yul\":6479:6498   */\n      swap1\n      pop\n        /* \"#utility.yul\":6280:6504   */\n      swap2\n      swap1\n      pop\n      jump\t// out\n        /* \"#utility.yul\":6510:6835   */\n    tag_636:\n      0x00\n        /* \"#utility.yul\":6673:6740   */\n      tag_638\n        /* \"#utility.yul\":6737:6739   */\n      0x1b\n        /* \"#utility.yul\":6732:6735   */\n      dup4\n        /* \"#utility.yul\":6673:6740   */\n      tag_629\n      jump\t// in\n    tag_638:\n        /* \"#utility.yul\":6666:6740   */\n      swap2\n      pop\n        /* \"#utility.yul\":6770:6799   */\n      0x736574426f6e75733a2062616420626f6e7573456e64426c6f636b0000000000\n        /* \"#utility.yul\":6766:6767   */\n      0x00\n        /* \"#utility.yul\":6761:6764   */\n      dup4\n        /* \"#utility.yul\":6757:6768   */\n      add\n        /* \"#utility.yul\":6750:6800   */\n      mstore\n        /* \"#utility.yul\":6826:6828   */\n      0x20\n        /* \"#utility.yul\":6821:6824   */\n      dup3\n        /* \"#utility.yul\":6817:6829   */\n      add\n        /* \"#utility.yul\":6810:6829   */\n      swap1\n      pop\n        /* \"#utility.yul\":6656:6835   */\n      swap2\n      swap1\n      pop\n      jump\t// out\n        /* \"#utility.yul\":6841:7166   */\n    tag_639:\n      0x00\n        /* \"#utility.yul\":7004:7071   */\n      tag_641\n        /* \"#utility.yul\":7068:7070   */\n      0x1b\n        /* \"#utility.yul\":7063:7066   */\n      dup4\n        /* \"#utility.yul\":7004:7071   */\n      tag_629\n      jump\t// in\n    tag_641:\n        /* \"#utility.yul\":6997:7071   */\n      swap2\n      pop\n        /* \"#utility.yul\":7101:7130   */\n      0x536166654d6174683a206164646974696f6e206f766572666c6f770000000000\n        /* \"#utility.yul\":7097:7098   */\n      0x00\n        /* \"#utility.yul\":7092:7095   */\n      dup4\n        /* \"#utility.yul\":7088:7099   */\n      add\n        /* \"#utility.yul\":7081:7131   */\n      mstore\n        /* \"#utility.yul\":7157:7159   */\n      0x20\n        /* \"#utility.yul\":7152:7155   */\n      dup3\n        /* \"#utility.yul\":7148:7160   */\n      add\n        /* \"#utility.yul\":7141:7160   */\n      swap1\n      pop\n        /* \"#utility.yul\":6987:7166   */\n      swap2\n      swap1\n      pop\n      jump\t// out\n        /* \"#utility.yul\":7172:7540   */\n    tag_642:\n      0x00\n        /* \"#utility.yul\":7335:7402   */\n      tag_644\n        /* \"#utility.yul\":7399:7401   */\n      0x24\n        /* \"#utility.yul\":7394:7397   */\n      dup4\n        /* \"#utility.yul\":7335:7402   */\n      tag_629\n      jump\t// in\n    tag_644:\n        /* \"#utility.yul\":7328:7402   */\n      swap2\n      pop\n        /* \"#utility.yul\":7432:7466   */\n      0x6578656375746f723a2063616c6c6572206973206e6f74207468652065786563\n        /* \"#utility.yul\":7428:7429   */\n      0x00\n        /* \"#utility.yul\":7423:7426   */\n      dup4\n        /* \"#utility.yul\":7419:7430   */\n      add\n        /* \"#utility.yul\":7412:7467   */\n      mstore\n        /* \"#utility.yul\":7498:7504   */\n      0x75746f7200000000000000000000000000000000000000000000000000000000\n        /* \"#utility.yul\":7493:7495   */\n      0x20\n        /* \"#utility.yul\":7488:7491   */\n      dup4\n        /* \"#utility.yul\":7484:7496   */\n      add\n        /* \"#utility.yul\":7477:7505   */\n      mstore\n        /* \"#utility.yul\":7531:7533   */\n      0x40\n        /* \"#utility.yul\":7526:7529   */\n      dup3\n        /* \"#utility.yul\":7522:7534   */\n      add\n        /* \"#utility.yul\":7515:7534   */\n      swap1\n      pop\n        /* \"#utility.yul\":7318:7540   */\n      swap2\n      swap1\n      pop\n      jump\t// out\n        /* \"#utility.yul\":7546:7855   */\n    tag_645:\n      0x00\n        /* \"#utility.yul\":7709:7776   */\n      tag_647\n        /* \"#utility.yul\":7773:7775   */\n      0x0b\n        /* \"#utility.yul\":7768:7771   */\n      dup4\n        /* \"#utility.yul\":7709:7776   */\n      tag_629\n      jump\t// in\n    tag_647:\n        /* \"#utility.yul\":7702:7776   */\n      swap2\n      pop\n        /* \"#utility.yul\":7806:7819   */\n      0x6f6e6c792066756e646572000000000000000000000000000000000000000000\n        /* \"#utility.yul\":7802:7803   */\n      0x00\n        /* \"#utility.yul\":7797:7800   */\n      dup4\n        /* \"#utility.yul\":7793:7804   */\n      add\n        /* \"#utility.yul\":7786:7820   */\n      mstore\n        /* \"#utility.yul\":7846:7848   */\n      0x20\n        /* \"#utility.yul\":7841:7844   */\n      dup3\n        /* \"#utility.yul\":7837:7849   */\n      add\n        /* \"#utility.yul\":7830:7849   */\n      swap1\n      pop\n        /* \"#utility.yul\":7692:7855   */\n      swap2\n      swap1\n      pop\n      jump\t// out\n        /* \"#utility.yul\":7861:8183   */\n    tag_648:\n      0x00\n        /* \"#utility.yul\":8024:8091   */\n      tag_650\n        /* \"#utility.yul\":8088:8090   */\n      0x18\n        /* \"#utility.yul\":8083:8086   */\n      dup4\n        /* \"#utility.yul\":8024:8091   */\n      tag_629\n      jump\t// in\n    tag_650:\n        /* \"#utility.yul\":8017:8091   */\n      swap2\n      pop\n        /* \"#utility.yul\":8121:8147   */\n      0x6164643a206e6f74207374616b65546f6b656e20616464720000000000000000\n        /* \"#utility.yul\":8117:8118   */\n      0x00\n        /* \"#utility.yul\":8112:8115   */\n      dup4\n        /* \"#utility.yul\":8108:8119   */\n      add\n        /* \"#utility.yul\":8101:8148   */\n      mstore\n        /* \"#utility.yul\":8174:8176   */\n      0x20\n        /* \"#utility.yul\":8169:8172   */\n      dup3\n        /* \"#utility.yul\":8165:8177   */\n      add\n        /* \"#utility.yul\":8158:8177   */\n      swap1\n      pop\n        /* \"#utility.yul\":8007:8183   */\n      swap2\n      swap1\n      pop\n      jump\t// out\n        /* \"#utility.yul\":8189:8517   */\n    tag_651:\n      0x00\n        /* \"#utility.yul\":8352:8419   */\n      tag_653\n        /* \"#utility.yul\":8416:8418   */\n      0x1e\n        /* \"#utility.yul\":8411:8414   */\n      dup4\n        /* \"#utility.yul\":8352:8419   */\n      tag_629\n      jump\t// in\n    tag_653:\n        /* \"#utility.yul\":8345:8419   */\n      swap2\n      pop\n        /* \"#utility.yul\":8449:8481   */\n      0x536166654d6174683a207375627472616374696f6e206f766572666c6f770000\n        /* \"#utility.yul\":8445:8446   */\n      0x00\n        /* \"#utility.yul\":8440:8443   */\n      dup4\n        /* \"#utility.yul\":8436:8447   */\n      add\n        /* \"#utility.yul\":8429:8482   */\n      mstore\n        /* \"#utility.yul\":8508:8510   */\n      0x20\n        /* \"#utility.yul\":8503:8506   */\n      dup3\n        /* \"#utility.yul\":8499:8511   */\n      add\n        /* \"#utility.yul\":8492:8511   */\n      swap1\n      pop\n        /* \"#utility.yul\":8335:8517   */\n      swap2\n      swap1\n      pop\n      jump\t// out\n        /* \"#utility.yul\":8523:8893   */\n    tag_654:\n      0x00\n        /* \"#utility.yul\":8686:8753   */\n      tag_656\n        /* \"#utility.yul\":8750:8752   */\n      0x26\n        /* \"#utility.yul\":8745:8748   */\n      dup4\n        /* \"#utility.yul\":8686:8753   */\n      tag_629\n      jump\t// in\n    tag_656:\n        /* \"#utility.yul\":8679:8753   */\n      swap2\n      pop\n        /* \"#utility.yul\":8783:8817   */\n      0x416464726573733a20696e73756666696369656e742062616c616e636520666f\n        /* \"#utility.yul\":8779:8780   */\n      0x00\n        /* \"#utility.yul\":8774:8777   */\n      dup4\n        /* \"#utility.yul\":8770:8781   */\n      add\n        /* \"#utility.yul\":8763:8818   */\n      mstore\n        /* \"#utility.yul\":8849:8857   */\n      0x722063616c6c0000000000000000000000000000000000000000000000000000\n        /* \"#utility.yul\":8844:8846   */\n      0x20\n        /* \"#utility.yul\":8839:8842   */\n      dup4\n        /* \"#utility.yul\":8835:8847   */\n      add\n        /* \"#utility.yul\":8828:8858   */\n      mstore\n        /* \"#utility.yul\":8884:8886   */\n      0x40\n        /* \"#utility.yul\":8879:8882   */\n      dup3\n        /* \"#utility.yul\":8875:8887   */\n      add\n        /* \"#utility.yul\":8868:8887   */\n      swap1\n      pop\n        /* \"#utility.yul\":8669:8893   */\n      swap2\n      swap1\n      pop\n      jump\t// out\n        /* \"#utility.yul\":8899:9223   */\n    tag_657:\n      0x00\n        /* \"#utility.yul\":9062:9129   */\n      tag_659\n        /* \"#utility.yul\":9126:9128   */\n      0x1a\n        /* \"#utility.yul\":9121:9124   */\n      dup4\n        /* \"#utility.yul\":9062:9129   */\n      tag_629\n      jump\t// in\n    tag_659:\n        /* \"#utility.yul\":9055:9129   */\n      swap2\n      pop\n        /* \"#utility.yul\":9159:9187   */\n      0x536166654d6174683a206469766973696f6e206279207a65726f000000000000\n        /* \"#utility.yul\":9155:9156   */\n      0x00\n        /* \"#utility.yul\":9150:9153   */\n      dup4\n        /* \"#utility.yul\":9146:9157   */\n      add\n        /* \"#utility.yul\":9139:9188   */\n      mstore\n        /* \"#utility.yul\":9214:9216   */\n      0x20\n        /* \"#utility.yul\":9209:9212   */\n      dup3\n        /* \"#utility.yul\":9205:9217   */\n      add\n        /* \"#utility.yul\":9198:9217   */\n      swap1\n      pop\n        /* \"#utility.yul\":9045:9223   */\n      swap2\n      swap1\n      pop\n      jump\t// out\n        /* \"#utility.yul\":9229:9556   */\n    tag_660:\n      0x00\n        /* \"#utility.yul\":9392:9459   */\n      tag_662\n        /* \"#utility.yul\":9456:9458   */\n      0x1d\n        /* \"#utility.yul\":9451:9454   */\n      dup4\n        /* \"#utility.yul\":9392:9459   */\n      tag_629\n      jump\t// in\n    tag_662:\n        /* \"#utility.yul\":9385:9459   */\n      swap2\n      pop\n        /* \"#utility.yul\":9489:9520   */\n      0x736574426f6e75733a2062616420626f6e75734d756c7469706c696572000000\n        /* \"#utility.yul\":9485:9486   */\n      0x00\n        /* \"#utility.yul\":9480:9483   */\n      dup4\n        /* \"#utility.yul\":9476:9487   */\n      add\n        /* \"#utility.yul\":9469:9521   */\n      mstore\n        /* \"#utility.yul\":9547:9549   */\n      0x20\n        /* \"#utility.yul\":9542:9545   */\n      dup3\n        /* \"#utility.yul\":9538:9550   */\n      add\n        /* \"#utility.yul\":9531:9550   */\n      swap1\n      pop\n        /* \"#utility.yul\":9375:9556   */\n      swap2\n      swap1\n      pop\n      jump\t// out\n        /* \"#utility.yul\":9562:9927   */\n    tag_663:\n      0x00\n        /* \"#utility.yul\":9725:9792   */\n      tag_665\n        /* \"#utility.yul\":9789:9791   */\n      0x21\n        /* \"#utility.yul\":9784:9787   */\n      dup4\n        /* \"#utility.yul\":9725:9792   */\n      tag_629\n      jump\t// in\n    tag_665:\n        /* \"#utility.yul\":9718:9792   */\n      swap2\n      pop\n        /* \"#utility.yul\":9822:9856   */\n      0x536166654d6174683a206d756c7469706c69636174696f6e206f766572666c6f\n        /* \"#utility.yul\":9818:9819   */\n      0x00\n        /* \"#utility.yul\":9813:9816   */\n      dup4\n        /* \"#utility.yul\":9809:9820   */\n      add\n        /* \"#utility.yul\":9802:9857   */\n      mstore\n        /* \"#utility.yul\":9888:9891   */\n      0x7700000000000000000000000000000000000000000000000000000000000000\n        /* \"#utility.yul\":9883:9885   */\n      0x20\n        /* \"#utility.yul\":9878:9881   */\n      dup4\n        /* \"#utility.yul\":9874:9886   */\n      add\n        /* \"#utility.yul\":9867:9892   */\n      mstore\n        /* \"#utility.yul\":9918:9920   */\n      0x40\n        /* \"#utility.yul\":9913:9916   */\n      dup3\n        /* \"#utility.yul\":9909:9921   */\n      add\n        /* \"#utility.yul\":9902:9921   */\n      swap1\n      pop\n        /* \"#utility.yul\":9708:9927   */\n      swap2\n      swap1\n      pop\n      jump\t// out\n        /* \"#utility.yul\":9933:10263   */\n    tag_666:\n      0x00\n        /* \"#utility.yul\":10096:10163   */\n      tag_668\n        /* \"#utility.yul\":10160:10162   */\n      0x20\n        /* \"#utility.yul\":10155:10158   */\n      dup4\n        /* \"#utility.yul\":10096:10163   */\n      tag_629\n      jump\t// in\n    tag_668:\n        /* \"#utility.yul\":10089:10163   */\n      swap2\n      pop\n        /* \"#utility.yul\":10193:10227   */\n      0x4f776e61626c653a2063616c6c6572206973206e6f7420746865206f776e6572\n        /* \"#utility.yul\":10189:10190   */\n      0x00\n        /* \"#utility.yul\":10184:10187   */\n      dup4\n        /* \"#utility.yul\":10180:10191   */\n      add\n        /* \"#utility.yul\":10173:10228   */\n      mstore\n        /* \"#utility.yul\":10254:10256   */\n      0x20\n        /* \"#utility.yul\":10249:10252   */\n      dup3\n        /* \"#utility.yul\":10245:10257   */\n      add\n        /* \"#utility.yul\":10238:10257   */\n      swap1\n      pop\n        /* \"#utility.yul\":10079:10263   */\n      swap2\n      swap1\n      pop\n      jump\t// out\n        /* \"#utility.yul\":10269:10585   */\n    tag_669:\n      0x00\n        /* \"#utility.yul\":10432:10499   */\n      tag_671\n        /* \"#utility.yul\":10496:10498   */\n      0x12\n        /* \"#utility.yul\":10491:10494   */\n      dup4\n        /* \"#utility.yul\":10432:10499   */\n      tag_629\n      jump\t// in\n    tag_671:\n        /* \"#utility.yul\":10425:10499   */\n      swap2\n      pop\n        /* \"#utility.yul\":10529:10549   */\n      0x777466206e6f7420656e6f756768205365610000000000000000000000000000\n        /* \"#utility.yul\":10525:10526   */\n      0x00\n        /* \"#utility.yul\":10520:10523   */\n      dup4\n        /* \"#utility.yul\":10516:10527   */\n      add\n        /* \"#utility.yul\":10509:10550   */\n      mstore\n        /* \"#utility.yul\":10576:10578   */\n      0x20\n        /* \"#utility.yul\":10571:10574   */\n      dup3\n        /* \"#utility.yul\":10567:10579   */\n      add\n        /* \"#utility.yul\":10560:10579   */\n      swap1\n      pop\n        /* \"#utility.yul\":10415:10585   */\n      swap2\n      swap1\n      pop\n      jump\t// out\n        /* \"#utility.yul\":10591:10909   */\n    tag_672:\n      0x00\n        /* \"#utility.yul\":10754:10821   */\n      tag_674\n        /* \"#utility.yul\":10818:10820   */\n      0x14\n        /* \"#utility.yul\":10813:10816   */\n      dup4\n        /* \"#utility.yul\":10754:10821   */\n      tag_629\n      jump\t// in\n    tag_674:\n        /* \"#utility.yul\":10747:10821   */\n      swap2\n      pop\n        /* \"#utility.yul\":10851:10873   */\n      0x426c6f636b2072616e6765206578636565646564000000000000000000000000\n        /* \"#utility.yul\":10847:10848   */\n      0x00\n        /* \"#utility.yul\":10842:10845   */\n      dup4\n        /* \"#utility.yul\":10838:10849   */\n      add\n        /* \"#utility.yul\":10831:10874   */\n      mstore\n        /* \"#utility.yul\":10900:10902   */\n      0x20\n        /* \"#utility.yul\":10895:10898   */\n      dup3\n        /* \"#utility.yul\":10891:10903   */\n      add\n        /* \"#utility.yul\":10884:10903   */\n      swap1\n      pop\n        /* \"#utility.yul\":10737:10909   */\n      swap2\n      swap1\n      pop\n      jump\t// out\n        /* \"#utility.yul\":10915:11219   */\n    tag_675:\n      0x00\n        /* \"#utility.yul\":11078:11144   */\n      tag_677\n        /* \"#utility.yul\":11142:11143   */\n      0x07\n        /* \"#utility.yul\":11137:11140   */\n      dup4\n        /* \"#utility.yul\":11078:11144   */\n      tag_629\n      jump\t// in\n    tag_677:\n        /* \"#utility.yul\":11071:11144   */\n      swap2\n      pop\n        /* \"#utility.yul\":11174:11183   */\n      0x62616420736f6600000000000000000000000000000000000000000000000000\n        /* \"#utility.yul\":11170:11171   */\n      0x00\n        /* \"#utility.yul\":11165:11168   */\n      dup4\n        /* \"#utility.yul\":11161:11172   */\n      add\n        /* \"#utility.yul\":11154:11184   */\n      mstore\n        /* \"#utility.yul\":11210:11212   */\n      0x20\n        /* \"#utility.yul\":11205:11208   */\n      dup3\n        /* \"#utility.yul\":11201:11213   */\n      add\n        /* \"#utility.yul\":11194:11213   */\n      swap1\n      pop\n        /* \"#utility.yul\":11061:11219   */\n      swap2\n      swap1\n      pop\n      jump\t// out\n        /* \"#utility.yul\":11225:11552   */\n    tag_678:\n      0x00\n        /* \"#utility.yul\":11388:11455   */\n      tag_680\n        /* \"#utility.yul\":11452:11454   */\n      0x1d\n        /* \"#utility.yul\":11447:11450   */\n      dup4\n        /* \"#utility.yul\":11388:11455   */\n      tag_629\n      jump\t// in\n    tag_680:\n        /* \"#utility.yul\":11381:11455   */\n      swap2\n      pop\n        /* \"#utility.yul\":11485:11516   */\n      0x416464726573733a2063616c6c20746f206e6f6e2d636f6e7472616374000000\n        /* \"#utility.yul\":11481:11482   */\n      0x00\n        /* \"#utility.yul\":11476:11479   */\n      dup4\n        /* \"#utility.yul\":11472:11483   */\n      add\n        /* \"#utility.yul\":11465:11517   */\n      mstore\n        /* \"#utility.yul\":11543:11545   */\n      0x20\n        /* \"#utility.yul\":11538:11541   */\n      dup3\n        /* \"#utility.yul\":11534:11546   */\n      add\n        /* \"#utility.yul\":11527:11546   */\n      swap1\n      pop\n        /* \"#utility.yul\":11371:11552   */\n      swap2\n      swap1\n      pop\n      jump\t// out\n        /* \"#utility.yul\":11558:11874   */\n    tag_681:\n      0x00\n        /* \"#utility.yul\":11721:11788   */\n      tag_683\n        /* \"#utility.yul\":11785:11787   */\n      0x12\n        /* \"#utility.yul\":11780:11783   */\n      dup4\n        /* \"#utility.yul\":11721:11788   */\n      tag_629\n      jump\t// in\n    tag_683:\n        /* \"#utility.yul\":11714:11788   */\n      swap2\n      pop\n        /* \"#utility.yul\":11818:11838   */\n      0x77697468647261773a206e6f7420676f6f640000000000000000000000000000\n        /* \"#utility.yul\":11814:11815   */\n      0x00\n        /* \"#utility.yul\":11809:11812   */\n      dup4\n        /* \"#utility.yul\":11805:11816   */\n      add\n        /* \"#utility.yul\":11798:11839   */\n      mstore\n        /* \"#utility.yul\":11865:11867   */\n      0x20\n        /* \"#utility.yul\":11860:11863   */\n      dup3\n        /* \"#utility.yul\":11856:11868   */\n      add\n        /* \"#utility.yul\":11849:11868   */\n      swap1\n      pop\n        /* \"#utility.yul\":11704:11874   */\n      swap2\n      swap1\n      pop\n      jump\t// out\n        /* \"#utility.yul\":11880:12205   */\n    tag_684:\n      0x00\n        /* \"#utility.yul\":12043:12110   */\n      tag_686\n        /* \"#utility.yul\":12107:12109   */\n      0x1b\n        /* \"#utility.yul\":12102:12105   */\n      dup4\n        /* \"#utility.yul\":12043:12110   */\n      tag_629\n      jump\t// in\n    tag_686:\n        /* \"#utility.yul\":12036:12110   */\n      swap2\n      pop\n        /* \"#utility.yul\":12140:12169   */\n      0x6465706f7369743a206e6f7420616363657074206465706f7369740000000000\n        /* \"#utility.yul\":12136:12137   */\n      0x00\n        /* \"#utility.yul\":12131:12134   */\n      dup4\n        /* \"#utility.yul\":12127:12138   */\n      add\n        /* \"#utility.yul\":12120:12170   */\n      mstore\n        /* \"#utility.yul\":12196:12198   */\n      0x20\n        /* \"#utility.yul\":12191:12194   */\n      dup3\n        /* \"#utility.yul\":12187:12199   */\n      add\n        /* \"#utility.yul\":12180:12199   */\n      swap1\n      pop\n        /* \"#utility.yul\":12026:12205   */\n      swap2\n      swap1\n      pop\n      jump\t// out\n        /* \"#utility.yul\":12211:12585   */\n    tag_687:\n      0x00\n        /* \"#utility.yul\":12374:12441   */\n      tag_689\n        /* \"#utility.yul\":12438:12440   */\n      0x2a\n        /* \"#utility.yul\":12433:12436   */\n      dup4\n        /* \"#utility.yul\":12374:12441   */\n      tag_629\n      jump\t// in\n    tag_689:\n        /* \"#utility.yul\":12367:12441   */\n      swap2\n      pop\n        /* \"#utility.yul\":12471:12505   */\n      0x5361666545524332303a204552433230206f7065726174696f6e20646964206e\n        /* \"#utility.yul\":12467:12468   */\n      0x00\n        /* \"#utility.yul\":12462:12465   */\n      dup4\n        /* \"#utility.yul\":12458:12469   */\n      add\n        /* \"#utility.yul\":12451:12506   */\n      mstore\n        /* \"#utility.yul\":12537:12549   */\n      0x6f74207375636365656400000000000000000000000000000000000000000000\n        /* \"#utility.yul\":12532:12534   */\n      0x20\n        /* \"#utility.yul\":12527:12530   */\n      dup4\n        /* \"#utility.yul\":12523:12535   */\n      add\n        /* \"#utility.yul\":12516:12550   */\n      mstore\n        /* \"#utility.yul\":12576:12578   */\n      0x40\n        /* \"#utility.yul\":12571:12574   */\n      dup3\n        /* \"#utility.yul\":12567:12579   */\n      add\n        /* \"#utility.yul\":12560:12579   */\n      swap1\n      pop\n        /* \"#utility.yul\":12357:12585   */\n      swap2\n      swap1\n      pop\n      jump\t// out\n        /* \"#utility.yul\":12591:12920   */\n    tag_690:\n      0x00\n        /* \"#utility.yul\":12754:12821   */\n      tag_692\n        /* \"#utility.yul\":12818:12820   */\n      0x1f\n        /* \"#utility.yul\":12813:12816   */\n      dup4\n        /* \"#utility.yul\":12754:12821   */\n      tag_629\n      jump\t// in\n    tag_692:\n        /* \"#utility.yul\":12747:12821   */\n      swap2\n      pop\n        /* \"#utility.yul\":12851:12884   */\n      0x5265656e7472616e637947756172643a207265656e7472616e742063616c6c00\n        /* \"#utility.yul\":12847:12848   */\n      0x00\n        /* \"#utility.yul\":12842:12845   */\n      dup4\n        /* \"#utility.yul\":12838:12849   */\n      add\n        /* \"#utility.yul\":12831:12885   */\n      mstore\n        /* \"#utility.yul\":12911:12913   */\n      0x20\n        /* \"#utility.yul\":12906:12909   */\n      dup3\n        /* \"#utility.yul\":12902:12914   */\n      add\n        /* \"#utility.yul\":12895:12914   */\n      swap1\n      pop\n        /* \"#utility.yul\":12737:12920   */\n      swap2\n      swap1\n      pop\n      jump\t// out\n        /* \"#utility.yul\":12926:13242   */\n    tag_693:\n      0x00\n        /* \"#utility.yul\":13089:13156   */\n      tag_695\n        /* \"#utility.yul\":13153:13155   */\n      0x12\n        /* \"#utility.yul\":13148:13151   */\n      dup4\n        /* \"#utility.yul\":13089:13156   */\n      tag_629\n      jump\t// in\n    tag_695:\n        /* \"#utility.yul\":13082:13156   */\n      swap2\n      pop\n        /* \"#utility.yul\":13186:13206   */\n      0x6e6f7468696e6720746f20686172766573740000000000000000000000000000\n        /* \"#utility.yul\":13182:13183   */\n      0x00\n        /* \"#utility.yul\":13177:13180   */\n      dup4\n        /* \"#utility.yul\":13173:13184   */\n      add\n        /* \"#utility.yul\":13166:13207   */\n      mstore\n        /* \"#utility.yul\":13233:13235   */\n      0x20\n        /* \"#utility.yul\":13228:13231   */\n      dup3\n        /* \"#utility.yul\":13224:13236   */\n      add\n        /* \"#utility.yul\":13217:13236   */\n      swap1\n      pop\n        /* \"#utility.yul\":13072:13242   */\n      swap2\n      swap1\n      pop\n      jump\t// out\n        /* \"#utility.yul\":13248:13565   */\n    tag_696:\n      0x00\n        /* \"#utility.yul\":13411:13478   */\n      tag_698\n        /* \"#utility.yul\":13475:13477   */\n      0x13\n        /* \"#utility.yul\":13470:13473   */\n      dup4\n        /* \"#utility.yul\":13411:13478   */\n      tag_629\n      jump\t// in\n    tag_698:\n        /* \"#utility.yul\":13404:13478   */\n      swap2\n      pop\n        /* \"#utility.yul\":13508:13529   */\n      0x6164643a207374616b65546f6b656e2064757000000000000000000000000000\n        /* \"#utility.yul\":13504:13505   */\n      0x00\n        /* \"#utility.yul\":13499:13502   */\n      dup4\n        /* \"#utility.yul\":13495:13506   */\n      add\n        /* \"#utility.yul\":13488:13530   */\n      mstore\n        /* \"#utility.yul\":13556:13558   */\n      0x20\n        /* \"#utility.yul\":13551:13554   */\n      dup3\n        /* \"#utility.yul\":13547:13559   */\n      add\n        /* \"#utility.yul\":13540:13559   */\n      swap1\n      pop\n        /* \"#utility.yul\":13394:13565   */\n      swap2\n      swap1\n      pop\n      jump\t// out\n        /* \"#utility.yul\":13571:13689   */\n    tag_699:\n        /* \"#utility.yul\":13658:13682   */\n      tag_701\n        /* \"#utility.yul\":13676:13681   */\n      dup2\n        /* \"#utility.yul\":13658:13682   */\n      tag_702\n      jump\t// in\n    tag_701:\n        /* \"#utility.yul\":13653:13656   */\n      dup3\n        /* \"#utility.yul\":13646:13683   */\n      mstore\n        /* \"#utility.yul\":13636:13689   */\n      pop\n      pop\n      jump\t// out\n        /* \"#utility.yul\":13695:13966   */\n    tag_532:\n      0x00\n        /* \"#utility.yul\":13847:13940   */\n      tag_704\n        /* \"#utility.yul\":13936:13939   */\n      dup3\n        /* \"#utility.yul\":13927:13933   */\n      dup5\n        /* \"#utility.yul\":13847:13940   */\n      tag_616\n      jump\t// in\n    tag_704:\n        /* \"#utility.yul\":13840:13940   */\n      swap2\n      pop\n        /* \"#utility.yul\":13957:13960   */\n      dup2\n        /* \"#utility.yul\":13950:13960   */\n      swap1\n      pop\n        /* \"#utility.yul\":13829:13966   */\n      swap3\n      swap2\n      pop\n      pop\n      jump\t// out\n        /* \"#utility.yul\":13972:14194   */\n    tag_96:\n      0x00\n        /* \"#utility.yul\":14103:14105   */\n      0x20\n        /* \"#utility.yul\":14092:14101   */\n      dup3\n        /* \"#utility.yul\":14088:14106   */\n      add\n        /* \"#utility.yul\":14080:14106   */\n      swap1\n      pop\n        /* \"#utility.yul\":14116:14187   */\n      tag_706\n        /* \"#utility.yul\":14184:14185   */\n      0x00\n        /* \"#utility.yul\":14173:14182   */\n      dup4\n        /* \"#utility.yul\":14169:14186   */\n      add\n        /* \"#utility.yul\":14160:14166   */\n      dup5\n        /* \"#utility.yul\":14116:14187   */\n      tag_608\n      jump\t// in\n    tag_706:\n        /* \"#utility.yul\":14070:14194   */\n      swap3\n      swap2\n      pop\n      pop\n      jump\t// out\n        /* \"#utility.yul\":14200:14642   */\n    tag_443:\n      0x00\n        /* \"#utility.yul\":14387:14389   */\n      0x60\n        /* \"#utility.yul\":14376:14385   */\n      dup3\n        /* \"#utility.yul\":14372:14390   */\n      add\n        /* \"#utility.yul\":14364:14390   */\n      swap1\n      pop\n        /* \"#utility.yul\":14400:14471   */\n      tag_708\n        /* \"#utility.yul\":14468:14469   */\n      0x00\n        /* \"#utility.yul\":14457:14466   */\n      dup4\n        /* \"#utility.yul\":14453:14470   */\n      add\n        /* \"#utility.yul\":14444:14450   */\n      dup7\n        /* \"#utility.yul\":14400:14471   */\n      tag_608\n      jump\t// in\n    tag_708:\n        /* \"#utility.yul\":14481:14553   */\n      tag_709\n        /* \"#utility.yul\":14549:14551   */\n      0x20\n        /* \"#utility.yul\":14538:14547   */\n      dup4\n        /* \"#utility.yul\":14534:14552   */\n      add\n        /* \"#utility.yul\":14525:14531   */\n      dup6\n        /* \"#utility.yul\":14481:14553   */\n      tag_608\n      jump\t// in\n    tag_709:\n        /* \"#utility.yul\":14563:14635   */\n      tag_710\n        /* \"#utility.yul\":14631:14633   */\n      0x40\n        /* \"#utility.yul\":14620:14629   */\n      dup4\n        /* \"#utility.yul\":14616:14634   */\n      add\n        /* \"#utility.yul\":14607:14613   */\n      dup5\n        /* \"#utility.yul\":14563:14635   */\n      tag_699\n      jump\t// in\n    tag_710:\n        /* \"#utility.yul\":14354:14642   */\n      swap5\n      swap4\n      pop\n      pop\n      pop\n      pop\n      jump\t// out\n        /* \"#utility.yul\":14648:14980   */\n    tag_270:\n      0x00\n        /* \"#utility.yul\":14807:14809   */\n      0x40\n        /* \"#utility.yul\":14796:14805   */\n      dup3\n        /* \"#utility.yul\":14792:14810   */\n      add\n        /* \"#utility.yul\":14784:14810   */\n      swap1\n      pop\n        /* \"#utility.yul\":14820:14891   */\n      tag_712\n        /* \"#utility.yul\":14888:14889   */\n      0x00\n        /* \"#utility.yul\":14877:14886   */\n      dup4\n        /* \"#utility.yul\":14873:14890   */\n      add\n        /* \"#utility.yul\":14864:14870   */\n      dup6\n        /* \"#utility.yul\":14820:14891   */\n      tag_608\n      jump\t// in\n    tag_712:\n        /* \"#utility.yul\":14901:14973   */\n      tag_713\n        /* \"#utility.yul\":14969:14971   */\n      0x20\n        /* \"#utility.yul\":14958:14967   */\n      dup4\n        /* \"#utility.yul\":14954:14972   */\n      add\n        /* \"#utility.yul\":14945:14951   */\n      dup5\n        /* \"#utility.yul\":14901:14973   */\n      tag_699\n      jump\t// in\n    tag_713:\n        /* \"#utility.yul\":14774:14980   */\n      swap4\n      swap3\n      pop\n      pop\n      pop\n      jump\t// out\n        /* \"#utility.yul\":14986:15650   */\n    tag_60:\n      0x00\n        /* \"#utility.yul\":15229:15232   */\n      0xa0\n        /* \"#utility.yul\":15218:15227   */\n      dup3\n        /* \"#utility.yul\":15214:15233   */\n      add\n        /* \"#utility.yul\":15206:15233   */\n      swap1\n      pop\n        /* \"#utility.yul\":15243:15314   */\n      tag_715\n        /* \"#utility.yul\":15311:15312   */\n      0x00\n        /* \"#utility.yul\":15300:15309   */\n      dup4\n        /* \"#utility.yul\":15296:15313   */\n      add\n        /* \"#utility.yul\":15287:15293   */\n      dup9\n        /* \"#utility.yul\":15243:15314   */\n      tag_608\n      jump\t// in\n    tag_715:\n        /* \"#utility.yul\":15324:15396   */\n      tag_716\n        /* \"#utility.yul\":15392:15394   */\n      0x20\n        /* \"#utility.yul\":15381:15390   */\n      dup4\n        /* \"#utility.yul\":15377:15395   */\n      add\n        /* \"#utility.yul\":15368:15374   */\n      dup8\n        /* \"#utility.yul\":15324:15396   */\n      tag_699\n      jump\t// in\n    tag_716:\n        /* \"#utility.yul\":15406:15478   */\n      tag_717\n        /* \"#utility.yul\":15474:15476   */\n      0x40\n        /* \"#utility.yul\":15463:15472   */\n      dup4\n        /* \"#utility.yul\":15459:15477   */\n      add\n        /* \"#utility.yul\":15450:15456   */\n      dup7\n        /* \"#utility.yul\":15406:15478   */\n      tag_699\n      jump\t// in\n    tag_717:\n        /* \"#utility.yul\":15488:15560   */\n      tag_718\n        /* \"#utility.yul\":15556:15558   */\n      0x60\n        /* \"#utility.yul\":15545:15554   */\n      dup4\n        /* \"#utility.yul\":15541:15559   */\n      add\n        /* \"#utility.yul\":15532:15538   */\n      dup6\n        /* \"#utility.yul\":15488:15560   */\n      tag_699\n      jump\t// in\n    tag_718:\n        /* \"#utility.yul\":15570:15643   */\n      tag_719\n        /* \"#utility.yul\":15638:15641   */\n      0x80\n        /* \"#utility.yul\":15627:15636   */\n      dup4\n        /* \"#utility.yul\":15623:15642   */\n      add\n        /* \"#utility.yul\":15614:15620   */\n      dup5\n        /* \"#utility.yul\":15570:15643   */\n      tag_699\n      jump\t// in\n    tag_719:\n        /* \"#utility.yul\":15196:15650   */\n      swap7\n      swap6\n      pop\n      pop\n      pop\n      pop\n      pop\n      pop\n      jump\t// out\n        /* \"#utility.yul\":15656:15866   */\n    tag_72:\n      0x00\n        /* \"#utility.yul\":15781:15783   */\n      0x20\n        /* \"#utility.yul\":15770:15779   */\n      dup3\n        /* \"#utility.yul\":15766:15784   */\n      add\n        /* \"#utility.yul\":15758:15784   */\n      swap1\n      pop\n        /* \"#utility.yul\":15794:15859   */\n      tag_721\n        /* \"#utility.yul\":15856:15857   */\n      0x00\n        /* \"#utility.yul\":15845:15854   */\n      dup4\n        /* \"#utility.yul\":15841:15858   */\n      add\n        /* \"#utility.yul\":15832:15838   */\n      dup5\n        /* \"#utility.yul\":15794:15859   */\n      tag_612\n      jump\t// in\n    tag_721:\n        /* \"#utility.yul\":15748:15866   */\n      swap3\n      swap2\n      pop\n      pop\n      jump\t// out\n        /* \"#utility.yul\":15872:16185   */\n    tag_545:\n      0x00\n        /* \"#utility.yul\":16023:16025   */\n      0x20\n        /* \"#utility.yul\":16012:16021   */\n      dup3\n        /* \"#utility.yul\":16008:16026   */\n      add\n        /* \"#utility.yul\":16000:16026   */\n      swap1\n      pop\n        /* \"#utility.yul\":16072:16081   */\n      dup2\n        /* \"#utility.yul\":16066:16070   */\n      dup2\n        /* \"#utility.yul\":16062:16082   */\n      sub\n        /* \"#utility.yul\":16058:16059   */\n      0x00\n        /* \"#utility.yul\":16047:16056   */\n      dup4\n        /* \"#utility.yul\":16043:16060   */\n      add\n        /* \"#utility.yul\":16036:16083   */\n      mstore\n        /* \"#utility.yul\":16100:16178   */\n      tag_723\n        /* \"#utility.yul\":16173:16177   */\n      dup2\n        /* \"#utility.yul\":16164:16170   */\n      dup5\n        /* \"#utility.yul\":16100:16178   */\n      tag_624\n      jump\t// in\n    tag_723:\n        /* \"#utility.yul\":16092:16178   */\n      swap1\n      pop\n        /* \"#utility.yul\":15990:16185   */\n      swap3\n      swap2\n      pop\n      pop\n      jump\t// out\n        /* \"#utility.yul\":16191:16610   */\n    tag_418:\n      0x00\n        /* \"#utility.yul\":16395:16397   */\n      0x20\n        /* \"#utility.yul\":16384:16393   */\n      dup3\n        /* \"#utility.yul\":16380:16398   */\n      add\n        /* \"#utility.yul\":16372:16398   */\n      swap1\n      pop\n        /* \"#utility.yul\":16444:16453   */\n      dup2\n        /* \"#utility.yul\":16438:16442   */\n      dup2\n        /* \"#utility.yul\":16434:16454   */\n      sub\n        /* \"#utility.yul\":16430:16431   */\n      0x00\n        /* \"#utility.yul\":16419:16428   */\n      dup4\n        /* \"#utility.yul\":16415:16432   */\n      add\n        /* \"#utility.yul\":16408:16455   */\n      mstore\n        /* \"#utility.yul\":16472:16603   */\n      tag_725\n        /* \"#utility.yul\":16598:16602   */\n      dup2\n        /* \"#utility.yul\":16472:16603   */\n      tag_633\n      jump\t// in\n    tag_725:\n        /* \"#utility.yul\":16464:16603   */\n      swap1\n      pop\n        /* \"#utility.yul\":16362:16610   */\n      swap2\n      swap1\n      pop\n      jump\t// out\n        /* \"#utility.yul\":16616:17035   */\n    tag_172:\n      0x00\n        /* \"#utility.yul\":16820:16822   */\n      0x20\n        /* \"#utility.yul\":16809:16818   */\n      dup3\n        /* \"#utility.yul\":16805:16823   */\n      add\n        /* \"#utility.yul\":16797:16823   */\n      swap1\n      pop\n        /* \"#utility.yul\":16869:16878   */\n      dup2\n        /* \"#utility.yul\":16863:16867   */\n      dup2\n        /* \"#utility.yul\":16859:16879   */\n      sub\n        /* \"#utility.yul\":16855:16856   */\n      0x00\n        /* \"#utility.yul\":16844:16853   */\n      dup4\n        /* \"#utility.yul\":16840:16857   */\n      add\n        /* \"#utility.yul\":16833:16880   */\n      mstore\n        /* \"#utility.yul\":16897:17028   */\n      tag_727\n        /* \"#utility.yul\":17023:17027   */\n      dup2\n        /* \"#utility.yul\":16897:17028   */\n      tag_636\n      jump\t// in\n    tag_727:\n        /* \"#utility.yul\":16889:17028   */\n      swap1\n      pop\n        /* \"#utility.yul\":16787:17035   */\n      swap2\n      swap1\n      pop\n      jump\t// out\n        /* \"#utility.yul\":17041:17460   */\n    tag_449:\n      0x00\n        /* \"#utility.yul\":17245:17247   */\n      0x20\n        /* \"#utility.yul\":17234:17243   */\n      dup3\n        /* \"#utility.yul\":17230:17248   */\n      add\n        /* \"#utility.yul\":17222:17248   */\n      swap1\n      pop\n        /* \"#utility.yul\":17294:17303   */\n      dup2\n        /* \"#utility.yul\":17288:17292   */\n      dup2\n        /* \"#utility.yul\":17284:17304   */\n      sub\n        /* \"#utility.yul\":17280:17281   */\n      0x00\n        /* \"#utility.yul\":17269:17278   */\n      dup4\n        /* \"#utility.yul\":17265:17282   */\n      add\n        /* \"#utility.yul\":17258:17305   */\n      mstore\n        /* \"#utility.yul\":17322:17453   */\n      tag_729\n        /* \"#utility.yul\":17448:17452   */\n      dup2\n        /* \"#utility.yul\":17322:17453   */\n      tag_639\n      jump\t// in\n    tag_729:\n        /* \"#utility.yul\":17314:17453   */\n      swap1\n      pop\n        /* \"#utility.yul\":17212:17460   */\n      swap2\n      swap1\n      pop\n      jump\t// out\n        /* \"#utility.yul\":17466:17885   */\n    tag_243:\n      0x00\n        /* \"#utility.yul\":17670:17672   */\n      0x20\n        /* \"#utility.yul\":17659:17668   */\n      dup3\n        /* \"#utility.yul\":17655:17673   */\n      add\n        /* \"#utility.yul\":17647:17673   */\n      swap1\n      pop\n        /* \"#utility.yul\":17719:17728   */\n      dup2\n        /* \"#utility.yul\":17713:17717   */\n      dup2\n        /* \"#utility.yul\":17709:17729   */\n      sub\n        /* \"#utility.yul\":17705:17706   */\n      0x00\n        /* \"#utility.yul\":17694:17703   */\n      dup4\n        /* \"#utility.yul\":17690:17707   */\n      add\n        /* \"#utility.yul\":17683:17730   */\n      mstore\n        /* \"#utility.yul\":17747:17878   */\n      tag_731\n        /* \"#utility.yul\":17873:17877   */\n      dup2\n        /* \"#utility.yul\":17747:17878   */\n      tag_642\n      jump\t// in\n    tag_731:\n        /* \"#utility.yul\":17739:17878   */\n      swap1\n      pop\n        /* \"#utility.yul\":17637:17885   */\n      swap2\n      swap1\n      pop\n      jump\t// out\n        /* \"#utility.yul\":17891:18310   */\n    tag_479:\n      0x00\n        /* \"#utility.yul\":18095:18097   */\n      0x20\n        /* \"#utility.yul\":18084:18093   */\n      dup3\n        /* \"#utility.yul\":18080:18098   */\n      add\n        /* \"#utility.yul\":18072:18098   */\n      swap1\n      pop\n        /* \"#utility.yul\":18144:18153   */\n      dup2\n        /* \"#utility.yul\":18138:18142   */\n      dup2\n        /* \"#utility.yul\":18134:18154   */\n      sub\n        /* \"#utility.yul\":18130:18131   */\n      0x00\n        /* \"#utility.yul\":18119:18128   */\n      dup4\n        /* \"#utility.yul\":18115:18132   */\n      add\n        /* \"#utility.yul\":18108:18155   */\n      mstore\n        /* \"#utility.yul\":18172:18303   */\n      tag_733\n        /* \"#utility.yul\":18298:18302   */\n      dup2\n        /* \"#utility.yul\":18172:18303   */\n      tag_645\n      jump\t// in\n    tag_733:\n        /* \"#utility.yul\":18164:18303   */\n      swap1\n      pop\n        /* \"#utility.yul\":18062:18310   */\n      swap2\n      swap1\n      pop\n      jump\t// out\n        /* \"#utility.yul\":18316:18735   */\n    tag_326:\n      0x00\n        /* \"#utility.yul\":18520:18522   */\n      0x20\n        /* \"#utility.yul\":18509:18518   */\n      dup3\n        /* \"#utility.yul\":18505:18523   */\n      add\n        /* \"#utility.yul\":18497:18523   */\n      swap1\n      pop\n        /* \"#utility.yul\":18569:18578   */\n      dup2\n        /* \"#utility.yul\":18563:18567   */\n      dup2\n        /* \"#utility.yul\":18559:18579   */\n      sub\n        /* \"#utility.yul\":18555:18556   */\n      0x00\n        /* \"#utility.yul\":18544:18553   */\n      dup4\n        /* \"#utility.yul\":18540:18557   */\n      add\n        /* \"#utility.yul\":18533:18580   */\n      mstore\n        /* \"#utility.yul\":18597:18728   */\n      tag_735\n        /* \"#utility.yul\":18723:18727   */\n      dup2\n        /* \"#utility.yul\":18597:18728   */\n      tag_648\n      jump\t// in\n    tag_735:\n        /* \"#utility.yul\":18589:18728   */\n      swap1\n      pop\n        /* \"#utility.yul\":18487:18735   */\n      swap2\n      swap1\n      pop\n      jump\t// out\n        /* \"#utility.yul\":18741:19160   */\n    tag_467:\n      0x00\n        /* \"#utility.yul\":18945:18947   */\n      0x20\n        /* \"#utility.yul\":18934:18943   */\n      dup3\n        /* \"#utility.yul\":18930:18948   */\n      add\n        /* \"#utility.yul\":18922:18948   */\n      swap1\n      pop\n        /* \"#utility.yul\":18994:19003   */\n      dup2\n        /* \"#utility.yul\":18988:18992   */\n      dup2\n        /* \"#utility.yul\":18984:19004   */\n      sub\n        /* \"#utility.yul\":18980:18981   */\n      0x00\n        /* \"#utility.yul\":18969:18978   */\n      dup4\n        /* \"#utility.yul\":18965:18982   */\n      add\n        /* \"#utility.yul\":18958:19005   */\n      mstore\n        /* \"#utility.yul\":19022:19153   */\n      tag_737\n        /* \"#utility.yul\":19148:19152   */\n      dup2\n        /* \"#utility.yul\":19022:19153   */\n      tag_651\n      jump\t// in\n    tag_737:\n        /* \"#utility.yul\":19014:19153   */\n      swap1\n      pop\n        /* \"#utility.yul\":18912:19160   */\n      swap2\n      swap1\n      pop\n      jump\t// out\n        /* \"#utility.yul\":19166:19585   */\n    tag_525:\n      0x00\n        /* \"#utility.yul\":19370:19372   */\n      0x20\n        /* \"#utility.yul\":19359:19368   */\n      dup3\n        /* \"#utility.yul\":19355:19373   */\n      add\n        /* \"#utility.yul\":19347:19373   */\n      swap1\n      pop\n        /* \"#utility.yul\":19419:19428   */\n      dup2\n        /* \"#utility.yul\":19413:19417   */\n      dup2\n        /* \"#utility.yul\":19409:19429   */\n      sub\n        /* \"#utility.yul\":19405:19406   */\n      0x00\n        /* \"#utility.yul\":19394:19403   */\n      dup4\n        /* \"#utility.yul\":19390:19407   */\n      add\n        /* \"#utility.yul\":19383:19430   */\n      mstore\n        /* \"#utility.yul\":19447:19578   */\n      tag_739\n        /* \"#utility.yul\":19573:19577   */\n      dup2\n        /* \"#utility.yul\":19447:19578   */\n      tag_654\n      jump\t// in\n    tag_739:\n        /* \"#utility.yul\":19439:19578   */\n      swap1\n      pop\n        /* \"#utility.yul\":19337:19585   */\n      swap2\n      swap1\n      pop\n      jump\t// out\n        /* \"#utility.yul\":19591:20010   */\n    tag_462:\n      0x00\n        /* \"#utility.yul\":19795:19797   */\n      0x20\n        /* \"#utility.yul\":19784:19793   */\n      dup3\n        /* \"#utility.yul\":19780:19798   */\n      add\n        /* \"#utility.yul\":19772:19798   */\n      swap1\n      pop\n        /* \"#utility.yul\":19844:19853   */\n      dup2\n        /* \"#utility.yul\":19838:19842   */\n      dup2\n        /* \"#utility.yul\":19834:19854   */\n      sub\n        /* \"#utility.yul\":19830:19831   */\n      0x00\n        /* \"#utility.yul\":19819:19828   */\n      dup4\n        /* \"#utility.yul\":19815:19832   */\n      add\n        /* \"#utility.yul\":19808:19855   */\n      mstore\n        /* \"#utility.yul\":19872:20003   */\n      tag_741\n        /* \"#utility.yul\":19998:20002   */\n      dup2\n        /* \"#utility.yul\":19872:20003   */\n      tag_657\n      jump\t// in\n    tag_741:\n        /* \"#utility.yul\":19864:20003   */\n      swap1\n      pop\n        /* \"#utility.yul\":19762:20010   */\n      swap2\n      swap1\n      pop\n      jump\t// out\n        /* \"#utility.yul\":20016:20435   */\n    tag_175:\n      0x00\n        /* \"#utility.yul\":20220:20222   */\n      0x20\n        /* \"#utility.yul\":20209:20218   */\n      dup3\n        /* \"#utility.yul\":20205:20223   */\n      add\n        /* \"#utility.yul\":20197:20223   */\n      swap1\n      pop\n        /* \"#utility.yul\":20269:20278   */\n      dup2\n        /* \"#utility.yul\":20263:20267   */\n      dup2\n        /* \"#utility.yul\":20259:20279   */\n      sub\n        /* \"#utility.yul\":20255:20256   */\n      0x00\n        /* \"#utility.yul\":20244:20253   */\n      dup4\n        /* \"#utility.yul\":20240:20257   */\n      add\n        /* \"#utility.yul\":20233:20280   */\n      mstore\n        /* \"#utility.yul\":20297:20428   */\n      tag_743\n        /* \"#utility.yul\":20423:20427   */\n      dup2\n        /* \"#utility.yul\":20297:20428   */\n      tag_660\n      jump\t// in\n    tag_743:\n        /* \"#utility.yul\":20289:20428   */\n      swap1\n      pop\n        /* \"#utility.yul\":20187:20435   */\n      swap2\n      swap1\n      pop\n      jump\t// out\n        /* \"#utility.yul\":20441:20860   */\n    tag_458:\n      0x00\n        /* \"#utility.yul\":20645:20647   */\n      0x20\n        /* \"#utility.yul\":20634:20643   */\n      dup3\n        /* \"#utility.yul\":20630:20648   */\n      add\n        /* \"#utility.yul\":20622:20648   */\n      swap1\n      pop\n        /* \"#utility.yul\":20694:20703   */\n      dup2\n        /* \"#utility.yul\":20688:20692   */\n      dup2\n        /* \"#utility.yul\":20684:20704   */\n      sub\n        /* \"#utility.yul\":20680:20681   */\n      0x00\n        /* \"#utility.yul\":20669:20678   */\n      dup4\n        /* \"#utility.yul\":20665:20682   */\n      add\n        /* \"#utility.yul\":20658:20705   */\n      mstore\n        /* \"#utility.yul\":20722:20853   */\n      tag_745\n        /* \"#utility.yul\":20848:20852   */\n      dup2\n        /* \"#utility.yul\":20722:20853   */\n      tag_663\n      jump\t// in\n    tag_745:\n        /* \"#utility.yul\":20714:20853   */\n      swap1\n      pop\n        /* \"#utility.yul\":20612:20860   */\n      swap2\n      swap1\n      pop\n      jump\t// out\n        /* \"#utility.yul\":20866:21285   */\n    tag_168:\n      0x00\n        /* \"#utility.yul\":21070:21072   */\n      0x20\n        /* \"#utility.yul\":21059:21068   */\n      dup3\n        /* \"#utility.yul\":21055:21073   */\n      add\n        /* \"#utility.yul\":21047:21073   */\n      swap1\n      pop\n        /* \"#utility.yul\":21119:21128   */\n      dup2\n        /* \"#utility.yul\":21113:21117   */\n      dup2\n        /* \"#utility.yul\":21109:21129   */\n      sub\n        /* \"#utility.yul\":21105:21106   */\n      0x00\n        /* \"#utility.yul\":21094:21103   */\n      dup4\n        /* \"#utility.yul\":21090:21107   */\n      add\n        /* \"#utility.yul\":21083:21130   */\n      mstore\n        /* \"#utility.yul\":21147:21278   */\n      tag_747\n        /* \"#utility.yul\":21273:21277   */\n      dup2\n        /* \"#utility.yul\":21147:21278   */\n      tag_666\n      jump\t// in\n    tag_747:\n        /* \"#utility.yul\":21139:21278   */\n      swap1\n      pop\n        /* \"#utility.yul\":21037:21285   */\n      swap2\n      swap1\n      pop\n      jump\t// out\n        /* \"#utility.yul\":21291:21710   */\n    tag_437:\n      0x00\n        /* \"#utility.yul\":21495:21497   */\n      0x20\n        /* \"#utility.yul\":21484:21493   */\n      dup3\n        /* \"#utility.yul\":21480:21498   */\n      add\n        /* \"#utility.yul\":21472:21498   */\n      swap1\n      pop\n        /* \"#utility.yul\":21544:21553   */\n      dup2\n        /* \"#utility.yul\":21538:21542   */\n      dup2\n        /* \"#utility.yul\":21534:21554   */\n      sub\n        /* \"#utility.yul\":21530:21531   */\n      0x00\n        /* \"#utility.yul\":21519:21528   */\n      dup4\n        /* \"#utility.yul\":21515:21532   */\n      add\n        /* \"#utility.yul\":21508:21555   */\n      mstore\n        /* \"#utility.yul\":21572:21703   */\n      tag_749\n        /* \"#utility.yul\":21698:21702   */\n      dup2\n        /* \"#utility.yul\":21572:21703   */\n      tag_669\n      jump\t// in\n    tag_749:\n        /* \"#utility.yul\":21564:21703   */\n      swap1\n      pop\n        /* \"#utility.yul\":21462:21710   */\n      swap2\n      swap1\n      pop\n      jump\t// out\n        /* \"#utility.yul\":21716:22135   */\n    tag_339:\n      0x00\n        /* \"#utility.yul\":21920:21922   */\n      0x20\n        /* \"#utility.yul\":21909:21918   */\n      dup3\n        /* \"#utility.yul\":21905:21923   */\n      add\n        /* \"#utility.yul\":21897:21923   */\n      swap1\n      pop\n        /* \"#utility.yul\":21969:21978   */\n      dup2\n        /* \"#utility.yul\":21963:21967   */\n      dup2\n        /* \"#utility.yul\":21959:21979   */\n      sub\n        /* \"#utility.yul\":21955:21956   */\n      0x00\n        /* \"#utility.yul\":21944:21953   */\n      dup4\n        /* \"#utility.yul\":21940:21957   */\n      add\n        /* \"#utility.yul\":21933:21980   */\n      mstore\n        /* \"#utility.yul\":21997:22128   */\n      tag_751\n        /* \"#utility.yul\":22123:22127   */\n      dup2\n        /* \"#utility.yul\":21997:22128   */\n      tag_672\n      jump\t// in\n    tag_751:\n        /* \"#utility.yul\":21989:22128   */\n      swap1\n      pop\n        /* \"#utility.yul\":21887:22135   */\n      swap2\n      swap1\n      pop\n      jump\t// out\n        /* \"#utility.yul\":22141:22560   */\n    tag_186:\n      0x00\n        /* \"#utility.yul\":22345:22347   */\n      0x20\n        /* \"#utility.yul\":22334:22343   */\n      dup3\n        /* \"#utility.yul\":22330:22348   */\n      add\n        /* \"#utility.yul\":22322:22348   */\n      swap1\n      pop\n        /* \"#utility.yul\":22394:22403   */\n      dup2\n        /* \"#utility.yul\":22388:22392   */\n      dup2\n        /* \"#utility.yul\":22384:22404   */\n      sub\n        /* \"#utility.yul\":22380:22381   */\n      0x00\n        /* \"#utility.yul\":22369:22378   */\n      dup4\n        /* \"#utility.yul\":22365:22382   */\n      add\n        /* \"#utility.yul\":22358:22405   */\n      mstore\n        /* \"#utility.yul\":22422:22553   */\n      tag_753\n        /* \"#utility.yul\":22548:22552   */\n      dup2\n        /* \"#utility.yul\":22422:22553   */\n      tag_675\n      jump\t// in\n    tag_753:\n        /* \"#utility.yul\":22414:22553   */\n      swap1\n      pop\n        /* \"#utility.yul\":22312:22560   */\n      swap2\n      swap1\n      pop\n      jump\t// out\n        /* \"#utility.yul\":22566:22985   */\n    tag_530:\n      0x00\n        /* \"#utility.yul\":22770:22772   */\n      0x20\n        /* \"#utility.yul\":22759:22768   */\n      dup3\n        /* \"#utility.yul\":22755:22773   */\n      add\n        /* \"#utility.yul\":22747:22773   */\n      swap1\n      pop\n        /* \"#utility.yul\":22819:22828   */\n      dup2\n        /* \"#utility.yul\":22813:22817   */\n      dup2\n        /* \"#utility.yul\":22809:22829   */\n      sub\n        /* \"#utility.yul\":22805:22806   */\n      0x00\n        /* \"#utility.yul\":22794:22803   */\n      dup4\n        /* \"#utility.yul\":22790:22807   */\n      add\n        /* \"#utility.yul\":22783:22830   */\n      mstore\n        /* \"#utility.yul\":22847:22978   */\n      tag_755\n        /* \"#utility.yul\":22973:22977   */\n      dup2\n        /* \"#utility.yul\":22847:22978   */\n      tag_678\n      jump\t// in\n    tag_755:\n        /* \"#utility.yul\":22839:22978   */\n      swap1\n      pop\n        /* \"#utility.yul\":22737:22985   */\n      swap2\n      swap1\n      pop\n      jump\t// out\n        /* \"#utility.yul\":22991:23410   */\n    tag_482:\n      0x00\n        /* \"#utility.yul\":23195:23197   */\n      0x20\n        /* \"#utility.yul\":23184:23193   */\n      dup3\n        /* \"#utility.yul\":23180:23198   */\n      add\n        /* \"#utility.yul\":23172:23198   */\n      swap1\n      pop\n        /* \"#utility.yul\":23244:23253   */\n      dup2\n        /* \"#utility.yul\":23238:23242   */\n      dup2\n        /* \"#utility.yul\":23234:23254   */\n      sub\n        /* \"#utility.yul\":23230:23231   */\n      0x00\n        /* \"#utility.yul\":23219:23228   */\n      dup4\n        /* \"#utility.yul\":23215:23232   */\n      add\n        /* \"#utility.yul\":23208:23255   */\n      mstore\n        /* \"#utility.yul\":23272:23403   */\n      tag_757\n        /* \"#utility.yul\":23398:23402   */\n      dup2\n        /* \"#utility.yul\":23272:23403   */\n      tag_681\n      jump\t// in\n    tag_757:\n        /* \"#utility.yul\":23264:23403   */\n      swap1\n      pop\n        /* \"#utility.yul\":23162:23410   */\n      swap2\n      swap1\n      pop\n      jump\t// out\n        /* \"#utility.yul\":23416:23835   */\n    tag_189:\n      0x00\n        /* \"#utility.yul\":23620:23622   */\n      0x20\n        /* \"#utility.yul\":23609:23618   */\n      dup3\n        /* \"#utility.yul\":23605:23623   */\n      add\n        /* \"#utility.yul\":23597:23623   */\n      swap1\n      pop\n        /* \"#utility.yul\":23669:23678   */\n      dup2\n        /* \"#utility.yul\":23663:23667   */\n      dup2\n        /* \"#utility.yul\":23659:23679   */\n      sub\n        /* \"#utility.yul\":23655:23656   */\n      0x00\n        /* \"#utility.yul\":23644:23653   */\n      dup4\n        /* \"#utility.yul\":23640:23657   */\n      add\n        /* \"#utility.yul\":23633:23680   */\n      mstore\n        /* \"#utility.yul\":23697:23828   */\n      tag_759\n        /* \"#utility.yul\":23823:23827   */\n      dup2\n        /* \"#utility.yul\":23697:23828   */\n      tag_684\n      jump\t// in\n    tag_759:\n        /* \"#utility.yul\":23689:23828   */\n      swap1\n      pop\n        /* \"#utility.yul\":23587:23835   */\n      swap2\n      swap1\n      pop\n      jump\t// out\n        /* \"#utility.yul\":23841:24260   */\n    tag_518:\n      0x00\n        /* \"#utility.yul\":24045:24047   */\n      0x20\n        /* \"#utility.yul\":24034:24043   */\n      dup3\n        /* \"#utility.yul\":24030:24048   */\n      add\n        /* \"#utility.yul\":24022:24048   */\n      swap1\n      pop\n        /* \"#utility.yul\":24094:24103   */\n      dup2\n        /* \"#utility.yul\":24088:24092   */\n      dup2\n        /* \"#utility.yul\":24084:24104   */\n      sub\n        /* \"#utility.yul\":24080:24081   */\n      0x00\n        /* \"#utility.yul\":24069:24078   */\n      dup4\n        /* \"#utility.yul\":24065:24082   */\n      add\n        /* \"#utility.yul\":24058:24105   */\n      mstore\n        /* \"#utility.yul\":24122:24253   */\n      tag_761\n        /* \"#utility.yul\":24248:24252   */\n      dup2\n        /* \"#utility.yul\":24122:24253   */\n      tag_687\n      jump\t// in\n    tag_761:\n        /* \"#utility.yul\":24114:24253   */\n      swap1\n      pop\n        /* \"#utility.yul\":24012:24260   */\n      swap2\n      swap1\n      pop\n      jump\t// out\n        /* \"#utility.yul\":24266:24685   */\n    tag_208:\n      0x00\n        /* \"#utility.yul\":24470:24472   */\n      0x20\n        /* \"#utility.yul\":24459:24468   */\n      dup3\n        /* \"#utility.yul\":24455:24473   */\n      add\n        /* \"#utility.yul\":24447:24473   */\n      swap1\n      pop\n        /* \"#utility.yul\":24519:24528   */\n      dup2\n        /* \"#utility.yul\":24513:24517   */\n      dup2\n        /* \"#utility.yul\":24509:24529   */\n      sub\n        /* \"#utility.yul\":24505:24506   */\n      0x00\n        /* \"#utility.yul\":24494:24503   */\n      dup4\n        /* \"#utility.yul\":24490:24507   */\n      add\n        /* \"#utility.yul\":24483:24530   */\n      mstore\n        /* \"#utility.yul\":24547:24678   */\n      tag_763\n        /* \"#utility.yul\":24673:24677   */\n      dup2\n        /* \"#utility.yul\":24547:24678   */\n      tag_690\n      jump\t// in\n    tag_763:\n        /* \"#utility.yul\":24539:24678   */\n      swap1\n      pop\n        /* \"#utility.yul\":24437:24685   */\n      swap2\n      swap1\n      pop\n      jump\t// out\n        /* \"#utility.yul\":24691:25110   */\n    tag_426:\n      0x00\n        /* \"#utility.yul\":24895:24897   */\n      0x20\n        /* \"#utility.yul\":24884:24893   */\n      dup3\n        /* \"#utility.yul\":24880:24898   */\n      add\n        /* \"#utility.yul\":24872:24898   */\n      swap1\n      pop\n        /* \"#utility.yul\":24944:24953   */\n      dup2\n        /* \"#utility.yul\":24938:24942   */\n      dup2\n        /* \"#utility.yul\":24934:24954   */\n      sub\n        /* \"#utility.yul\":24930:24931   */\n      0x00\n        /* \"#utility.yul\":24919:24928   */\n      dup4\n        /* \"#utility.yul\":24915:24932   */\n      add\n        /* \"#utility.yul\":24908:24955   */\n      mstore\n        /* \"#utility.yul\":24972:25103   */\n      tag_765\n        /* \"#utility.yul\":25098:25102   */\n      dup2\n        /* \"#utility.yul\":24972:25103   */\n      tag_693\n      jump\t// in\n    tag_765:\n        /* \"#utility.yul\":24964:25103   */\n      swap1\n      pop\n        /* \"#utility.yul\":24862:25110   */\n      swap2\n      swap1\n      pop\n      jump\t// out\n        /* \"#utility.yul\":25116:25535   */\n    tag_330:\n      0x00\n        /* \"#utility.yul\":25320:25322   */\n      0x20\n        /* \"#utility.yul\":25309:25318   */\n      dup3\n        /* \"#utility.yul\":25305:25323   */\n      add\n        /* \"#utility.yul\":25297:25323   */\n      swap1\n      pop\n        /* \"#utility.yul\":25369:25378   */\n      dup2\n        /* \"#utility.yul\":25363:25367   */\n      dup2\n        /* \"#utility.yul\":25359:25379   */\n      sub\n        /* \"#utility.yul\":25355:25356   */\n      0x00\n        /* \"#utility.yul\":25344:25353   */\n      dup4\n        /* \"#utility.yul\":25340:25357   */\n      add\n        /* \"#utility.yul\":25333:25380   */\n      mstore\n        /* \"#utility.yul\":25397:25528   */\n      tag_767\n        /* \"#utility.yul\":25523:25527   */\n      dup2\n        /* \"#utility.yul\":25397:25528   */\n      tag_696\n      jump\t// in\n    tag_767:\n        /* \"#utility.yul\":25389:25528   */\n      swap1\n      pop\n        /* \"#utility.yul\":25287:25535   */\n      swap2\n      swap1\n      pop\n      jump\t// out\n        /* \"#utility.yul\":25541:25763   */\n    tag_50:\n      0x00\n        /* \"#utility.yul\":25672:25674   */\n      0x20\n        /* \"#utility.yul\":25661:25670   */\n      dup3\n        /* \"#utility.yul\":25657:25675   */\n      add\n        /* \"#utility.yul\":25649:25675   */\n      swap1\n      pop\n        /* \"#utility.yul\":25685:25756   */\n      tag_769\n        /* \"#utility.yul\":25753:25754   */\n      0x00\n        /* \"#utility.yul\":25742:25751   */\n      dup4\n        /* \"#utility.yul\":25738:25755   */\n      add\n        /* \"#utility.yul\":25729:25735   */\n      dup5\n        /* \"#utility.yul\":25685:25756   */\n      tag_699\n      jump\t// in\n    tag_769:\n        /* \"#utility.yul\":25639:25763   */\n      swap3\n      swap2\n      pop\n      pop\n      jump\t// out\n        /* \"#utility.yul\":25769:26322   */\n    tag_127:\n      0x00\n        /* \"#utility.yul\":25984:25987   */\n      0x80\n        /* \"#utility.yul\":25973:25982   */\n      dup3\n        /* \"#utility.yul\":25969:25988   */\n      add\n        /* \"#utility.yul\":25961:25988   */\n      swap1\n      pop\n        /* \"#utility.yul\":25998:26069   */\n      tag_771\n        /* \"#utility.yul\":26066:26067   */\n      0x00\n        /* \"#utility.yul\":26055:26064   */\n      dup4\n        /* \"#utility.yul\":26051:26068   */\n      add\n        /* \"#utility.yul\":26042:26048   */\n      dup8\n        /* \"#utility.yul\":25998:26069   */\n      tag_699\n      jump\t// in\n    tag_771:\n        /* \"#utility.yul\":26079:26151   */\n      tag_772\n        /* \"#utility.yul\":26147:26149   */\n      0x20\n        /* \"#utility.yul\":26136:26145   */\n      dup4\n        /* \"#utility.yul\":26132:26150   */\n      add\n        /* \"#utility.yul\":26123:26129   */\n      dup7\n        /* \"#utility.yul\":26079:26151   */\n      tag_699\n      jump\t// in\n    tag_772:\n        /* \"#utility.yul\":26161:26233   */\n      tag_773\n        /* \"#utility.yul\":26229:26231   */\n      0x40\n        /* \"#utility.yul\":26218:26227   */\n      dup4\n        /* \"#utility.yul\":26214:26232   */\n      add\n        /* \"#utility.yul\":26205:26211   */\n      dup6\n        /* \"#utility.yul\":26161:26233   */\n      tag_699\n      jump\t// in\n    tag_773:\n        /* \"#utility.yul\":26243:26315   */\n      tag_774\n        /* \"#utility.yul\":26311:26313   */\n      0x60\n        /* \"#utility.yul\":26300:26309   */\n      dup4\n        /* \"#utility.yul\":26296:26314   */\n      add\n        /* \"#utility.yul\":26287:26293   */\n      dup5\n        /* \"#utility.yul\":26243:26315   */\n      tag_608\n      jump\t// in\n    tag_774:\n        /* \"#utility.yul\":25951:26322   */\n      swap6\n      swap5\n      pop\n      pop\n      pop\n      pop\n      pop\n      jump\t// out\n        /* \"#utility.yul\":26328:26426   */\n    tag_619:\n      0x00\n        /* \"#utility.yul\":26413:26418   */\n      dup2\n        /* \"#utility.yul\":26407:26419   */\n      mload\n        /* \"#utility.yul\":26397:26419   */\n      swap1\n      pop\n        /* \"#utility.yul\":26386:26426   */\n      swap2\n      swap1\n      pop\n      jump\t// out\n        /* \"#utility.yul\":26432:26531   */\n    tag_627:\n      0x00\n        /* \"#utility.yul\":26518:26523   */\n      dup2\n        /* \"#utility.yul\":26512:26524   */\n      mload\n        /* \"#utility.yul\":26502:26524   */\n      swap1\n      pop\n        /* \"#utility.yul\":26491:26531   */\n      swap2\n      swap1\n      pop\n      jump\t// out\n        /* \"#utility.yul\":26537:26684   */\n    tag_621:\n      0x00\n        /* \"#utility.yul\":26675:26678   */\n      dup2\n        /* \"#utility.yul\":26660:26678   */\n      swap1\n      pop\n        /* \"#utility.yul\":26650:26684   */\n      swap3\n      swap2\n      pop\n      pop\n      jump\t// out\n        /* \"#utility.yul\":26690:26859   */\n    tag_629:\n      0x00\n        /* \"#utility.yul\":26808:26814   */\n      dup3\n        /* \"#utility.yul\":26803:26806   */\n      dup3\n        /* \"#utility.yul\":26796:26815   */\n      mstore\n        /* \"#utility.yul\":26848:26852   */\n      0x20\n        /* \"#utility.yul\":26843:26846   */\n      dup3\n        /* \"#utility.yul\":26839:26853   */\n      add\n        /* \"#utility.yul\":26824:26853   */\n      swap1\n      pop\n        /* \"#utility.yul\":26786:26859   */\n      swap3\n      swap2\n      pop\n      pop\n      jump\t// out\n        /* \"#utility.yul\":26865:27170   */\n    tag_179:\n      0x00\n        /* \"#utility.yul\":26924:26944   */\n      tag_780\n        /* \"#utility.yul\":26942:26943   */\n      dup3\n        /* \"#utility.yul\":26924:26944   */\n      tag_702\n      jump\t// in\n    tag_780:\n        /* \"#utility.yul\":26919:26944   */\n      swap2\n      pop\n        /* \"#utility.yul\":26958:26978   */\n      tag_781\n        /* \"#utility.yul\":26976:26977   */\n      dup4\n        /* \"#utility.yul\":26958:26978   */\n      tag_702\n      jump\t// in\n    tag_781:\n        /* \"#utility.yul\":26953:26978   */\n      swap3\n      pop\n        /* \"#utility.yul\":27112:27113   */\n      dup3\n        /* \"#utility.yul\":27044:27110   */\n      0xffffffffffffffffffffffffffffffffffffffffffffffffffffffffffffffff\n        /* \"#utility.yul\":27040:27114   */\n      sub\n        /* \"#utility.yul\":27037:27038   */\n      dup3\n        /* \"#utility.yul\":27034:27115   */\n      gt\n        /* \"#utility.yul\":27031:27033   */\n      iszero\n      tag_782\n      jumpi\n        /* \"#utility.yul\":27118:27136   */\n      tag_783\n      tag_784\n      jump\t// in\n    tag_783:\n        /* \"#utility.yul\":27031:27033   */\n    tag_782:\n        /* \"#utility.yul\":27162:27163   */\n      dup3\n        /* \"#utility.yul\":27159:27160   */\n      dup3\n        /* \"#utility.yul\":27155:27164   */\n      add\n        /* \"#utility.yul\":27148:27164   */\n      swap1\n      pop\n        /* \"#utility.yul\":26909:27170   */\n      swap3\n      swap2\n      pop\n      pop\n      jump\t// out\n        /* \"#utility.yul\":27176:27361   */\n    tag_455:\n      0x00\n        /* \"#utility.yul\":27233:27253   */\n      tag_786\n        /* \"#utility.yul\":27251:27252   */\n      dup3\n        /* \"#utility.yul\":27233:27253   */\n      tag_702\n      jump\t// in\n    tag_786:\n        /* \"#utility.yul\":27228:27253   */\n      swap2\n      pop\n        /* \"#utility.yul\":27267:27287   */\n      tag_787\n        /* \"#utility.yul\":27285:27286   */\n      dup4\n        /* \"#utility.yul\":27267:27287   */\n      tag_702\n      jump\t// in\n    tag_787:\n        /* \"#utility.yul\":27262:27287   */\n      swap3\n      pop\n        /* \"#utility.yul\":27306:27307   */\n      dup3\n        /* \"#utility.yul\":27296:27298   */\n      tag_788\n      jumpi\n        /* \"#utility.yul\":27311:27329   */\n      tag_789\n      tag_790\n      jump\t// in\n    tag_789:\n        /* \"#utility.yul\":27296:27298   */\n    tag_788:\n        /* \"#utility.yul\":27353:27354   */\n      dup3\n        /* \"#utility.yul\":27350:27351   */\n      dup3\n        /* \"#utility.yul\":27346:27355   */\n      div\n        /* \"#utility.yul\":27341:27355   */\n      swap1\n      pop\n        /* \"#utility.yul\":27218:27361   */\n      swap3\n      swap2\n      pop\n      pop\n      jump\t// out\n        /* \"#utility.yul\":27367:27715   */\n    tag_453:\n      0x00\n        /* \"#utility.yul\":27430:27450   */\n      tag_792\n        /* \"#utility.yul\":27448:27449   */\n      dup3\n        /* \"#utility.yul\":27430:27450   */\n      tag_702\n      jump\t// in\n    tag_792:\n        /* \"#utility.yul\":27425:27450   */\n      swap2\n      pop\n        /* \"#utility.yul\":27464:27484   */\n      tag_793\n        /* \"#utility.yul\":27482:27483   */\n      dup4\n        /* \"#utility.yul\":27464:27484   */\n      tag_702\n      jump\t// in\n    tag_793:\n        /* \"#utility.yul\":27459:27484   */\n      swap3\n      pop\n        /* \"#utility.yul\":27652:27653   */\n      dup2\n        /* \"#utility.yul\":27584:27650   */\n      0xffffffffffffffffffffffffffffffffffffffffffffffffffffffffffffffff\n        /* \"#utility.yul\":27580:27654   */\n      div\n        /* \"#utility.yul\":27577:27578   */\n      dup4\n        /* \"#utility.yul\":27574:27655   */\n      gt\n        /* \"#utility.yul\":27569:27570   */\n      dup3\n        /* \"#utility.yul\":27562:27571   */\n      iszero\n        /* \"#utility.yul\":27555:27572   */\n      iszero\n        /* \"#utility.yul\":27551:27656   */\n      and\n        /* \"#utility.yul\":27548:27550   */\n      iszero\n      tag_794\n      jumpi\n        /* \"#utility.yul\":27659:27677   */\n      tag_795\n      tag_784\n      jump\t// in\n    tag_795:\n        /* \"#utility.yul\":27548:27550   */\n    tag_794:\n        /* \"#utility.yul\":27707:27708   */\n      dup3\n        /* \"#utility.yul\":27704:27705   */\n      dup3\n        /* \"#utility.yul\":27700:27709   */\n      mul\n        /* \"#utility.yul\":27689:27709   */\n      swap1\n      pop\n        /* \"#utility.yul\":27415:27715   */\n      swap3\n      swap2\n      pop\n      pop\n      jump\t// out\n        /* \"#utility.yul\":27721:27912   */\n    tag_469:\n      0x00\n        /* \"#utility.yul\":27781:27801   */\n      tag_797\n        /* \"#utility.yul\":27799:27800   */\n      dup3\n        /* \"#utility.yul\":27781:27801   */\n      tag_702\n      jump\t// in\n    tag_797:\n        /* \"#utility.yul\":27776:27801   */\n      swap2\n      pop\n        /* \"#utility.yul\":27815:27835   */\n      tag_798\n        /* \"#utility.yul\":27833:27834   */\n      dup4\n        /* \"#utility.yul\":27815:27835   */\n      tag_702\n      jump\t// in\n    tag_798:\n        /* \"#utility.yul\":27810:27835   */\n      swap3\n      pop\n        /* \"#utility.yul\":27854:27855   */\n      dup3\n        /* \"#utility.yul\":27851:27852   */\n      dup3\n        /* \"#utility.yul\":27848:27856   */\n      lt\n        /* \"#utility.yul\":27845:27847   */\n      iszero\n      tag_799\n      jumpi\n        /* \"#utility.yul\":27859:27877   */\n      tag_800\n      tag_784\n      jump\t// in\n    tag_800:\n        /* \"#utility.yul\":27845:27847   */\n    tag_799:\n        /* \"#utility.yul\":27904:27905   */\n      dup3\n        /* \"#utility.yul\":27901:27902   */\n      dup3\n        /* \"#utility.yul\":27897:27906   */\n      sub\n        /* \"#utility.yul\":27889:27906   */\n      swap1\n      pop\n        /* \"#utility.yul\":27766:27912   */\n      swap3\n      swap2\n      pop\n      pop\n      jump\t// out\n        /* \"#utility.yul\":27918:28014   */\n    tag_611:\n      0x00\n        /* \"#utility.yul\":27984:28008   */\n      tag_802\n        /* \"#utility.yul\":28002:28007   */\n      dup3\n        /* \"#utility.yul\":27984:28008   */\n      tag_803\n      jump\t// in\n    tag_802:\n        /* \"#utility.yul\":27973:28008   */\n      swap1\n      pop\n        /* \"#utility.yul\":27963:28014   */\n      swap2\n      swap1\n      pop\n      jump\t// out\n        /* \"#utility.yul\":28020:28110   */\n    tag_615:\n      0x00\n        /* \"#utility.yul\":28097:28102   */\n      dup2\n        /* \"#utility.yul\":28090:28103   */\n      iszero\n        /* \"#utility.yul\":28083:28104   */\n      iszero\n        /* \"#utility.yul\":28072:28104   */\n      swap1\n      pop\n        /* \"#utility.yul\":28062:28110   */\n      swap2\n      swap1\n      pop\n      jump\t// out\n        /* \"#utility.yul\":28116:28242   */\n    tag_803:\n      0x00\n        /* \"#utility.yul\":28193:28235   */\n      0xffffffffffffffffffffffffffffffffffffffff\n        /* \"#utility.yul\":28186:28191   */\n      dup3\n        /* \"#utility.yul\":28182:28236   */\n      and\n        /* \"#utility.yul\":28171:28236   */\n      swap1\n      pop\n        /* \"#utility.yul\":28161:28242   */\n      swap2\n      swap1\n      pop\n      jump\t// out\n        /* \"#utility.yul\":28248:28325   */\n    tag_702:\n      0x00\n        /* \"#utility.yul\":28314:28319   */\n      dup2\n        /* \"#utility.yul\":28303:28319   */\n      swap1\n      pop\n        /* \"#utility.yul\":28293:28325   */\n      swap2\n      swap1\n      pop\n      jump\t// out\n        /* \"#utility.yul\":28331:28638   */\n    tag_623:\n        /* \"#utility.yul\":28399:28400   */\n      0x00\n        /* \"#utility.yul\":28409:28522   */\n    tag_808:\n        /* \"#utility.yul\":28423:28429   */\n      dup4\n        /* \"#utility.yul\":28420:28421   */\n      dup2\n        /* \"#utility.yul\":28417:28430   */\n      lt\n        /* \"#utility.yul\":28409:28522   */\n      iszero\n      tag_810\n      jumpi\n        /* \"#utility.yul\":28508:28509   */\n      dup1\n        /* \"#utility.yul\":28503:28506   */\n      dup3\n        /* \"#utility.yul\":28499:28510   */\n      add\n        /* \"#utility.yul\":28493:28511   */\n      mload\n        /* \"#utility.yul\":28489:28490   */\n      dup2\n        /* \"#utility.yul\":28484:28487   */\n      dup5\n        /* \"#utility.yul\":28480:28491   */\n      add\n        /* \"#utility.yul\":28473:28512   */\n      mstore\n        /* \"#utility.yul\":28445:28447   */\n      0x20\n        /* \"#utility.yul\":28442:28443   */\n      dup2\n        /* \"#utility.yul\":28438:28448   */\n      add\n        /* \"#utility.yul\":28433:28448   */\n      swap1\n      pop\n        /* \"#utility.yul\":28409:28522   */\n      jump(tag_808)\n    tag_810:\n        /* \"#utility.yul\":28540:28546   */\n      dup4\n        /* \"#utility.yul\":28537:28538   */\n      dup2\n        /* \"#utility.yul\":28534:28547   */\n      gt\n        /* \"#utility.yul\":28531:28533   */\n      iszero\n      tag_811\n      jumpi\n        /* \"#utility.yul\":28620:28621   */\n      0x00\n        /* \"#utility.yul\":28611:28617   */\n      dup5\n        /* \"#utility.yul\":28606:28609   */\n      dup5\n        /* \"#utility.yul\":28602:28618   */\n      add\n        /* \"#utility.yul\":28595:28622   */\n      mstore\n        /* \"#utility.yul\":28531:28533   */\n    tag_811:\n        /* \"#utility.yul\":28380:28638   */\n      pop\n      pop\n      pop\n      pop\n      jump\t// out\n        /* \"#utility.yul\":28644:28877   */\n    tag_307:\n      0x00\n        /* \"#utility.yul\":28706:28730   */\n      tag_813\n        /* \"#utility.yul\":28724:28729   */\n      dup3\n        /* \"#utility.yul\":28706:28730   */\n      tag_702\n      jump\t// in\n    tag_813:\n        /* \"#utility.yul\":28697:28730   */\n      swap2\n      pop\n        /* \"#utility.yul\":28752:28818   */\n      0xffffffffffffffffffffffffffffffffffffffffffffffffffffffffffffffff\n        /* \"#utility.yul\":28745:28750   */\n      dup3\n        /* \"#utility.yul\":28742:28819   */\n      eq\n        /* \"#utility.yul\":28739:28741   */\n      iszero\n      tag_814\n      jumpi\n        /* \"#utility.yul\":28822:28840   */\n      tag_815\n      tag_784\n      jump\t// in\n    tag_815:\n        /* \"#utility.yul\":28739:28741   */\n    tag_814:\n        /* \"#utility.yul\":28869:28870   */\n      0x01\n        /* \"#utility.yul\":28862:28867   */\n      dup3\n        /* \"#utility.yul\":28858:28871   */\n      add\n        /* \"#utility.yul\":28851:28871   */\n      swap1\n      pop\n        /* \"#utility.yul\":28687:28877   */\n      swap2\n      swap1\n      pop\n      jump\t// out\n        /* \"#utility.yul\":28883:29063   */\n    tag_784:\n        /* \"#utility.yul\":28931:29008   */\n      0x4e487b7100000000000000000000000000000000000000000000000000000000\n        /* \"#utility.yul\":28928:28929   */\n      0x00\n        /* \"#utility.yul\":28921:29009   */\n      mstore\n        /* \"#utility.yul\":29028:29032   */\n      0x11\n        /* \"#utility.yul\":29025:29026   */\n      0x04\n        /* \"#utility.yul\":29018:29033   */\n      mstore\n        /* \"#utility.yul\":29052:29056   */\n      0x24\n        /* \"#utility.yul\":29049:29050   */\n      0x00\n        /* \"#utility.yul\":29042:29057   */\n      revert\n        /* \"#utility.yul\":29069:29249   */\n    tag_790:\n        /* \"#utility.yul\":29117:29194   */\n      0x4e487b7100000000000000000000000000000000000000000000000000000000\n        /* \"#utility.yul\":29114:29115   */\n      0x00\n        /* \"#utility.yul\":29107:29195   */\n      mstore\n        /* \"#utility.yul\":29214:29218   */\n      0x12\n        /* \"#utility.yul\":29211:29212   */\n      0x04\n        /* \"#utility.yul\":29204:29219   */\n      mstore\n        /* \"#utility.yul\":29238:29242   */\n      0x24\n        /* \"#utility.yul\":29235:29236   */\n      0x00\n        /* \"#utility.yul\":29228:29243   */\n      revert\n        /* \"#utility.yul\":29255:29357   */\n    tag_632:\n      0x00\n        /* \"#utility.yul\":29347:29349   */\n      0x1f\n        /* \"#utility.yul\":29343:29350   */\n      not\n        /* \"#utility.yul\":29338:29340   */\n      0x1f\n        /* \"#utility.yul\":29331:29336   */\n      dup4\n        /* \"#utility.yul\":29327:29341   */\n      add\n        /* \"#utility.yul\":29323:29351   */\n      and\n        /* \"#utility.yul\":29313:29351   */\n      swap1\n      pop\n        /* \"#utility.yul\":29303:29357   */\n      swap2\n      swap1\n      pop\n      jump\t// out\n        /* \"#utility.yul\":29363:29485   */\n    tag_550:\n        /* \"#utility.yul\":29436:29460   */\n      tag_820\n        /* \"#utility.yul\":29454:29459   */\n      dup2\n        /* \"#utility.yul\":29436:29460   */\n      tag_611\n      jump\t// in\n    tag_820:\n        /* \"#utility.yul\":29429:29434   */\n      dup2\n        /* \"#utility.yul\":29426:29461   */\n      eq\n        /* \"#utility.yul\":29416:29418   */\n      tag_821\n      jumpi\n        /* \"#utility.yul\":29475:29476   */\n      0x00\n        /* \"#utility.yul\":29472:29473   */\n      dup1\n        /* \"#utility.yul\":29465:29477   */\n      revert\n        /* \"#utility.yul\":29416:29418   */\n    tag_821:\n        /* \"#utility.yul\":29406:29485   */\n      pop\n      jump\t// out\n        /* \"#utility.yul\":29491:29607   */\n    tag_554:\n        /* \"#utility.yul\":29561:29582   */\n      tag_823\n        /* \"#utility.yul\":29576:29581   */\n      dup2\n        /* \"#utility.yul\":29561:29582   */\n      tag_615\n      jump\t// in\n    tag_823:\n        /* \"#utility.yul\":29554:29559   */\n      dup2\n        /* \"#utility.yul\":29551:29583   */\n      eq\n        /* \"#utility.yul\":29541:29543   */\n      tag_824\n      jumpi\n        /* \"#utility.yul\":29597:29598   */\n      0x00\n        /* \"#utility.yul\":29594:29595   */\n      dup1\n        /* \"#utility.yul\":29587:29599   */\n      revert\n        /* \"#utility.yul\":29541:29543   */\n    tag_824:\n        /* \"#utility.yul\":29531:29607   */\n      pop\n      jump\t// out\n        /* \"#utility.yul\":29613:29735   */\n    tag_561:\n        /* \"#utility.yul\":29686:29710   */\n      tag_826\n        /* \"#utility.yul\":29704:29709   */\n      dup2\n        /* \"#utility.yul\":29686:29710   */\n      tag_702\n      jump\t// in\n    tag_826:\n        /* \"#utility.yul\":29679:29684   */\n      dup2\n        /* \"#utility.yul\":29676:29711   */\n      eq\n        /* \"#utility.yul\":29666:29668   */\n      tag_827\n      jumpi\n        /* \"#utility.yul\":29725:29726   */\n      0x00\n        /* \"#utility.yul\":29722:29723   */\n      dup1\n        /* \"#utility.yul\":29715:29727   */\n      revert\n        /* \"#utility.yul\":29666:29668   */\n    tag_827:\n        /* \"#utility.yul\":29656:29735   */\n      pop\n      jump\t// out\n\n    auxdata: 0xa2646970667358221220e5431a80284bfeb5ad8df8c315551e6e969e33c52116a3412fcec45fafea6b1064736f6c63430008000033\n}\n",
				"bytecode": {
					"linkReferences": {},
					"object": "60806040523480156200001157600080fd5b50604051620045bc380380620045bc833981810160405281019062000037919062000262565b620000576200004b6200016860201b60201c565b6200017060201b60201c565b600180819055506000600581905550600060098190555084600260006101000a81548173ffffffffffffffffffffffffffffffffffffffff021916908373ffffffffffffffffffffffffffffffffffffffff16021790555083600360006101000a81548173ffffffffffffffffffffffffffffffffffffffff021916908373ffffffffffffffffffffffffffffffffffffffff160217905550826004819055508060068190555081600a819055506001600b60003373ffffffffffffffffffffffffffffffffffffffff1673ffffffffffffffffffffffffffffffffffffffff16815260200190815260200160002060006101000a81548160ff021916908315150217905550505050505062000356565b600033905090565b60008060009054906101000a900473ffffffffffffffffffffffffffffffffffffffff169050816000806101000a81548173ffffffffffffffffffffffffffffffffffffffff021916908373ffffffffffffffffffffffffffffffffffffffff1602179055508173ffffffffffffffffffffffffffffffffffffffff168173ffffffffffffffffffffffffffffffffffffffff167f8be0079c531659141344cd1fd0a4f28419497f9722a3daafe3b4186f6b6457e060405160405180910390a35050565b600081519050620002458162000322565b92915050565b6000815190506200025c816200033c565b92915050565b600080600080600060a086880312156200027b57600080fd5b60006200028b8882890162000234565b95505060206200029e8882890162000234565b9450506040620002b1888289016200024b565b9350506060620002c4888289016200024b565b9250506080620002d7888289016200024b565b9150509295509295909350565b6000620002f182620002f8565b9050919050565b600073ffffffffffffffffffffffffffffffffffffffff82169050919050565b6000819050919050565b6200032d81620002e4565b81146200033957600080fd5b50565b620003478162000318565b81146200035357600080fd5b50565b61425680620003666000396000f3fe608060405234801561001057600080fd5b50600436106101fb5760003560e01c8063715018a61161011a578063b5c5f672116100ad578063d4a91e381161007c578063d4a91e38146105a5578063ddc63262146105c1578063e4c5ff46146105dd578063f1101804146105f9578063f2fde38b14610617576101fb565b8063b5c5f67214610533578063cc6dbc271461054f578063d477f05f1461056b578063d49e77cd14610587576101fb565b8063930ed033116100e9578063930ed0331461048257806393f1a40b146104b2578063a8b973a1146104e5578063b03df69d14610503576101fb565b8063715018a61461040e5780637abceffd146104185780638da5cb5b146104345780638dbb1e3a14610452576101fb565b80632e97766d116101925780634ecaac41116101615780634ecaac41146103ae57806351eb05a6146103cc5780635312ea8e146103e8578063630b5ba114610404576101fb565b80632e97766d1461032657806346ca6bea1461034457806348c7e5281461036057806348cd4cb114610390576101fb565b806317caf6f1116101ce57806317caf6f11461028a5780631aed6553146102a85780631e1bff3f146102c657806324cdee22146102f6576101fb565b8063037c99b014610200578063081e3eda1461021c5780630efe6a8b1461023a5780631526fe2714610256575b600080fd5b61021a600480360381019061021591906133bf565b610633565b005b610224610746565b6040516102319190613f01565b60405180910390f35b610254600480360381019061024f919061326a565b610753565b005b610270600480360381019061026b91906132e2565b610bcf565b604051610281959493929190613bb1565b60405180910390f35b610292610c35565b60405161029f9190613f01565b60405180910390f35b6102b0610c3b565b6040516102bd9190613f01565b60405180910390f35b6102e060048036038101906102db91906131f2565b610c41565b6040516102ed9190613c04565b60405180910390f35b610310600480360381019061030b9190613334565b610d20565b60405161031d9190613f01565b60405180910390f35b61032e610f7a565b60405161033b9190613f01565b60405180910390f35b61035e600480360381019061035991906133fb565b610f82565b005b61037a600480360381019061037591906131c9565b6110ea565b6040516103879190613c04565b60405180910390f35b61039861110a565b6040516103a59190613f01565b60405180910390f35b6103b6611110565b6040516103c39190613b36565b60405180910390f35b6103e660048036038101906103e191906132e2565b611136565b005b61040260048036038101906103fd91906132e2565b61159e565b005b61040c611703565b005b610416611736565b005b610432600480360381019061042d9190613370565b6117be565b005b61043c611a15565b6040516104499190613b36565b60405180910390f35b61046c600480360381019061046791906133bf565b611a3e565b6040516104799190613f01565b60405180910390f35b61049c6004803603810190610497919061322e565b611b35565b6040516104a99190613c04565b60405180910390f35b6104cc60048036038101906104c79190613334565b611be8565b6040516104dc9493929190613f1c565b60405180910390f35b6104ed611c45565b6040516104fa9190613f01565b60405180910390f35b61051d600480360381019061051891906131c9565b611c4b565b60405161052a9190613c04565b60405180910390f35b61054d6004803603810190610548919061326a565b611d2a565b005b6105696004803603810190610564919061322e565b611d9f565b005b610585600480360381019061058091906131c9565b611e66565b005b61058f611fa3565b60405161059c9190613b36565b60405180910390f35b6105bf60048036038101906105ba91906132e2565b611fc9565b005b6105db60048036038101906105d691906132e2565b61207c565b005b6105f760048036038101906105f2919061322e565b6121a8565b005b61060161231c565b60405161060e9190613f01565b60405180910390f35b610631600480360381019061062c91906131c9565b612322565b005b61063b61241a565b73ffffffffffffffffffffffffffffffffffffffff16610659611a15565b73ffffffffffffffffffffffffffffffffffffffff16146106af576040517f08c379a00000000000000000000000000000000000000000000000000000000081526004016106a690613da1565b60405180910390fd5b4381116106f1576040517f08c379a00000000000000000000000000000000000000000000000000000000081526004016106e890613c61565b60405180910390fd5b60018211610734576040517f08c379a000000000000000000000000000000000000000000000000000000000815260040161072b90613d61565b60405180910390fd5b81600581905550806006819055505050565b6000600780549050905090565b60018060008282546107659190613f93565b92505081905550600060015490506000600784815481106107af577f4e487b7100000000000000000000000000000000000000000000000000000000600052603260045260246000fd5b9060005260206000209060050201905060006008600086815260200190815260200160002060008773ffffffffffffffffffffffffffffffffffffffff1673ffffffffffffffffffffffffffffffffffffffff1681526020019081526020016000209050600073ffffffffffffffffffffffffffffffffffffffff168160030160009054906101000a900473ffffffffffffffffffffffffffffffffffffffff1673ffffffffffffffffffffffffffffffffffffffff16146108fe573373ffffffffffffffffffffffffffffffffffffffff168160030160009054906101000a900473ffffffffffffffffffffffffffffffffffffffff1673ffffffffffffffffffffffffffffffffffffffff16146108fd576040517f08c379a00000000000000000000000000000000000000000000000000000000081526004016108f490613e01565b60405180910390fd5b5b600073ffffffffffffffffffffffffffffffffffffffff168260000160009054906101000a900473ffffffffffffffffffffffffffffffffffffffff1673ffffffffffffffffffffffffffffffffffffffff161415610992576040517f08c379a000000000000000000000000000000000000000000000000000000000815260040161098990613e61565b60405180910390fd5b61099b85611136565b6000816000015411156109b3576109b28686612422565b5b600073ffffffffffffffffffffffffffffffffffffffff168160030160009054906101000a900473ffffffffffffffffffffffffffffffffffffffff1673ffffffffffffffffffffffffffffffffffffffff161415610a5057338160030160006101000a81548173ffffffffffffffffffffffffffffffffffffffff021916908373ffffffffffffffffffffffffffffffffffffffff1602179055505b610aa13330868560000160009054906101000a900473ffffffffffffffffffffffffffffffffffffffff1673ffffffffffffffffffffffffffffffffffffffff16612653909392919063ffffffff16565b610ab88482600001546126dc90919063ffffffff16565b8160000181905550610af264e8d4a51000610ae48460030154846000015461273a90919063ffffffff16565b6127b590919063ffffffff16565b8160010181905550610b2c64e8d4a51000610b1e8460040154846000015461273a90919063ffffffff16565b6127b590919063ffffffff16565b8160020181905550843373ffffffffffffffffffffffffffffffffffffffff167f90890809c654f11d6e72a28fa60149770a0d11ec6c92319d6ceb2bb0a4ea1a1586604051610b7b9190613f01565b60405180910390a350506001548114610bc9576040517f08c379a0000000000000000000000000000000000000000000000000000000008152600401610bc090613ea1565b60405180910390fd5b50505050565b60078181548110610bdf57600080fd5b90600052602060002090600502016000915090508060000160009054906101000a900473ffffffffffffffffffffffffffffffffffffffff16908060010154908060020154908060030154908060040154905085565b60095481565b60065481565b6000610c4b61241a565b73ffffffffffffffffffffffffffffffffffffffff16610c69611a15565b73ffffffffffffffffffffffffffffffffffffffff1614610cbf576040517f08c379a0000000000000000000000000000000000000000000000000000000008152600401610cb690613da1565b60405180910390fd5b81600b60008573ffffffffffffffffffffffffffffffffffffffff1673ffffffffffffffffffffffffffffffffffffffff16815260200190815260200160002060006101000a81548160ff0219169083151502179055506001905092915050565b60008060078481548110610d5d577f4e487b7100000000000000000000000000000000000000000000000000000000600052603260045260246000fd5b9060005260206000209060050201905060006008600086815260200190815260200160002060008573ffffffffffffffffffffffffffffffffffffffff1673ffffffffffffffffffffffffffffffffffffffff168152602001908152602001600020905060008260030154905060008360000160009054906101000a900473ffffffffffffffffffffffffffffffffffffffff1673ffffffffffffffffffffffffffffffffffffffff166370a08231306040518263ffffffff1660e01b8152600401610e299190613b36565b60206040518083038186803b158015610e4157600080fd5b505afa158015610e55573d6000803e3d6000fd5b505050506040513d601f19601f82011682018060405250810190610e79919061330b565b9050836002015443118015610e8f575060008114155b15610f2a576000610ea4856002015443611a3e565b90506000610ee7600954610ed98860010154610ecb6004548761273a90919063ffffffff16565b61273a90919063ffffffff16565b6127b590919063ffffffff16565b9050610f25610f1684610f0864e8d4a510008561273a90919063ffffffff16565b6127b590919063ffffffff16565b856126dc90919063ffffffff16565b935050505b610f6e8360010154610f6064e8d4a51000610f5286886000015461273a90919063ffffffff16565b6127b590919063ffffffff16565b61280d90919063ffffffff16565b94505050505092915050565b600043905090565b600b60003373ffffffffffffffffffffffffffffffffffffffff1673ffffffffffffffffffffffffffffffffffffffff16815260200190815260200160002060009054906101000a900460ff1661100e576040517f08c379a000000000000000000000000000000000000000000000000000000000815260040161100590613ca1565b60405180910390fd5b801561101d5761101c611703565b5b61108f826110816007868154811061105e577f4e487b7100000000000000000000000000000000000000000000000000000000600052603260045260246000fd5b90600052602060002090600502016001015460095461280d90919063ffffffff16565b6126dc90919063ffffffff16565b60098190555081600784815481106110d0577f4e487b7100000000000000000000000000000000000000000000000000000000600052603260045260246000fd5b906000526020600020906005020160010181905550505050565b600b6020528060005260406000206000915054906101000a900460ff1681565b600a5481565b600260009054906101000a900473ffffffffffffffffffffffffffffffffffffffff1681565b600060078281548110611172577f4e487b7100000000000000000000000000000000000000000000000000000000600052603260045260246000fd5b9060005260206000209060050201905080600201544311611193575061159b565b60008160000160009054906101000a900473ffffffffffffffffffffffffffffffffffffffff1673ffffffffffffffffffffffffffffffffffffffff166370a08231306040518263ffffffff1660e01b81526004016111f29190613b36565b60206040518083038186803b15801561120a57600080fd5b505afa15801561121e573d6000803e3d6000fd5b505050506040513d601f19601f82011682018060405250810190611242919061330b565b9050600081141561125d57438260020181905550505061159b565b600061126d836002015443611a3e565b905060006112b06009546112a286600101546112946004548761273a90919063ffffffff16565b61273a90919063ffffffff16565b6127b590919063ffffffff16565b9050600260009054906101000a900473ffffffffffffffffffffffffffffffffffffffff1673ffffffffffffffffffffffffffffffffffffffff166340c10f19600360009054906101000a900473ffffffffffffffffffffffffffffffffffffffff1661133a606461132c60148761273a90919063ffffffff16565b6127b590919063ffffffff16565b6040518363ffffffff1660e01b8152600401611357929190613b88565b602060405180830381600087803b15801561137157600080fd5b505af1158015611385573d6000803e3d6000fd5b505050506040513d601f19601f820116820180604052508101906113a991906132b9565b50600260009054906101000a900473ffffffffffffffffffffffffffffffffffffffff1673ffffffffffffffffffffffffffffffffffffffff166340c10f1930836040518363ffffffff1660e01b8152600401611407929190613b88565b602060405180830381600087803b15801561142157600080fd5b505af1158015611435573d6000803e3d6000fd5b505050506040513d601f19601f8201168201806040525081019061145991906132b9565b5061149a6114878461147964e8d4a510008561273a90919063ffffffff16565b6127b590919063ffffffff16565b85600301546126dc90919063ffffffff16565b846003018190555060065443116114b957836003015484600401819055505b600654431180156114cf57506006548460020154105b1561158d57600061154160095461153387600101546115256004546115176005546115098d6002015460065461280d90919063ffffffff16565b61273a90919063ffffffff16565b61273a90919063ffffffff16565b61273a90919063ffffffff16565b6127b590919063ffffffff16565b90506115836115708561156264e8d4a510008561273a90919063ffffffff16565b6127b590919063ffffffff16565b86600401546126dc90919063ffffffff16565b8560040181905550505b438460020181905550505050505b50565b6000600782815481106115da577f4e487b7100000000000000000000000000000000000000000000000000000000600052603260045260246000fd5b9060005260206000209060050201905060006008600084815260200190815260200160002060003373ffffffffffffffffffffffffffffffffffffffff1673ffffffffffffffffffffffffffffffffffffffff168152602001908152602001600020905060008160000154905060008260000181905550600082600101819055506116aa33828560000160009054906101000a900473ffffffffffffffffffffffffffffffffffffffff1673ffffffffffffffffffffffffffffffffffffffff166128669092919063ffffffff16565b833373ffffffffffffffffffffffffffffffffffffffff167fbb757047c2b5f3974fe26b7c10f732e7bce710b0952a71082702781e62ae059584600001546040516116f59190613f01565b60405180910390a350505050565b6000600780549050905060005b818110156117325761172181611136565b8061172b90614123565b9050611710565b5050565b61173e61241a565b73ffffffffffffffffffffffffffffffffffffffff1661175c611a15565b73ffffffffffffffffffffffffffffffffffffffff16146117b2576040517f08c379a00000000000000000000000000000000000000000000000000000000081526004016117a990613da1565b60405180910390fd5b6117bc60006128ec565b565b6117c661241a565b73ffffffffffffffffffffffffffffffffffffffff166117e4611a15565b73ffffffffffffffffffffffffffffffffffffffff161461183a576040517f08c379a000000000000000000000000000000000000000000000000000000000815260040161183190613da1565b60405180910390fd5b801561184957611848611703565b5b600073ffffffffffffffffffffffffffffffffffffffff168273ffffffffffffffffffffffffffffffffffffffff1614156118b9576040517f08c379a00000000000000000000000000000000000000000000000000000000081526004016118b090613ce1565b60405180910390fd5b6118c282611c4b565b15611902576040517f08c379a00000000000000000000000000000000000000000000000000000000081526004016118f990613ee1565b60405180910390fd5b6000600a54431161191557600a54611917565b435b905061192e846009546126dc90919063ffffffff16565b60098190555060076040518060a001604052808573ffffffffffffffffffffffffffffffffffffffff168152602001868152602001838152602001600081526020016000815250908060018154018082558091505060019003906000526020600020906005020160009091909190915060008201518160000160006101000a81548173ffffffffffffffffffffffffffffffffffffffff021916908373ffffffffffffffffffffffffffffffffffffffff16021790555060208201518160010155604082015181600201556060820151816003015560808201518160040155505050505050565b60008060009054906101000a900473ffffffffffffffffffffffffffffffffffffffff16905090565b600081831115611a83576040517f08c379a0000000000000000000000000000000000000000000000000000000008152600401611a7a90613de1565b60405180910390fd5b6006548211611aba57611ab3600554611aa5858561280d90919063ffffffff16565b61273a90919063ffffffff16565b9050611b2f565b6006548310611add57611ad6838361280d90919063ffffffff16565b9050611b2f565b611b2c611af56006548461280d90919063ffffffff16565b611b1e600554611b108760065461280d90919063ffffffff16565b61273a90919063ffffffff16565b6126dc90919063ffffffff16565b90505b92915050565b6000611b3f61241a565b73ffffffffffffffffffffffffffffffffffffffff16611b5d611a15565b73ffffffffffffffffffffffffffffffffffffffff1614611bb3576040517f08c379a0000000000000000000000000000000000000000000000000000000008152600401611baa90613da1565b60405180910390fd5b611bde33838573ffffffffffffffffffffffffffffffffffffffff166128669092919063ffffffff16565b6001905092915050565b6008602052816000526040600020602052806000526040600020600091509150508060000154908060010154908060020154908060030160009054906101000a900473ffffffffffffffffffffffffffffffffffffffff16905084565b60055481565b600080600780549050905060005b81811015611d1e578373ffffffffffffffffffffffffffffffffffffffff1660078281548110611cb2577f4e487b7100000000000000000000000000000000000000000000000000000000600052603260045260246000fd5b906000526020600020906005020160000160009054906101000a900473ffffffffffffffffffffffffffffffffffffffff1673ffffffffffffffffffffffffffffffffffffffff161415611d0b57600192505050611d25565b8080611d1690614123565b915050611c59565b5060009150505b919050565b6001806000828254611d3c9190613f93565b9250508190555060006001549050611d558484846129b0565b6001548114611d99576040517f08c379a0000000000000000000000000000000000000000000000000000000008152600401611d9090613ea1565b60405180910390fd5b50505050565b6001806000828254611db19190613f93565b9250508190555060006001549050611e1d83836008600086815260200190815260200160002060008773ffffffffffffffffffffffffffffffffffffffff1673ffffffffffffffffffffffffffffffffffffffff168152602001908152602001600020600001546129b0565b6001548114611e61576040517f08c379a0000000000000000000000000000000000000000000000000000000008152600401611e5890613ea1565b60405180910390fd5b505050565b611e6e61241a565b73ffffffffffffffffffffffffffffffffffffffff16611e8c611a15565b73ffffffffffffffffffffffffffffffffffffffff1614611ee2576040517f08c379a0000000000000000000000000000000000000000000000000000000008152600401611ed990613da1565b60405180910390fd5b600073ffffffffffffffffffffffffffffffffffffffff168173ffffffffffffffffffffffffffffffffffffffff161415611f1c57600080fd5b80600360006101000a81548173ffffffffffffffffffffffffffffffffffffffff021916908373ffffffffffffffffffffffffffffffffffffffff1602179055508073ffffffffffffffffffffffffffffffffffffffff167ff5721dfa6ddbf8e4a2cd38b2152fff4008050b9b37de59ae1e022dde4bd5df7360405160405180910390a250565b600360009054906101000a900473ffffffffffffffffffffffffffffffffffffffff1681565b611fd161241a565b73ffffffffffffffffffffffffffffffffffffffff16611fef611a15565b73ffffffffffffffffffffffffffffffffffffffff1614612045576040517f08c379a000000000000000000000000000000000000000000000000000000000815260040161203c90613da1565b60405180910390fd5b80600481905550807f045c280c0ee21a223bf57ba9b47035cda586d0472889fcf81d6ecf95a72fbf6460405160405180910390a250565b6000600782815481106120b8577f4e487b7100000000000000000000000000000000000000000000000000000000600052603260045260246000fd5b9060005260206000209060050201905060006008600084815260200190815260200160002060003373ffffffffffffffffffffffffffffffffffffffff1673ffffffffffffffffffffffffffffffffffffffff168152602001908152602001600020905061212583611136565b61212f3384612422565b61216164e8d4a510006121538460030154846000015461273a90919063ffffffff16565b6127b590919063ffffffff16565b816001018190555061219b64e8d4a5100061218d8460040154846000015461273a90919063ffffffff16565b6127b590919063ffffffff16565b8160020181905550505050565b6121b061241a565b73ffffffffffffffffffffffffffffffffffffffff166121ce611a15565b73ffffffffffffffffffffffffffffffffffffffff1614612224576040517f08c379a000000000000000000000000000000000000000000000000000000000815260040161221b90613da1565b60405180910390fd5b600260009054906101000a900473ffffffffffffffffffffffffffffffffffffffff1673ffffffffffffffffffffffffffffffffffffffff166340c10f1983836040518363ffffffff1660e01b8152600401612281929190613b88565b602060405180830381600087803b15801561229b57600080fd5b505af11580156122af573d6000803e3d6000fd5b505050506040513d601f19601f820116820180604052508101906122d391906132b9565b50808273ffffffffffffffffffffffffffffffffffffffff167f5a513126cbc10dde78a9844543bd609b2c5b0f4169cecb81f0378f00fa2bdbf060405160405180910390a35050565b60045481565b61232a61241a565b73ffffffffffffffffffffffffffffffffffffffff16612348611a15565b73ffffffffffffffffffffffffffffffffffffffff161461239e576040517f08c379a000000000000000000000000000000000000000000000000000000000815260040161239590613da1565b60405180910390fd5b600073ffffffffffffffffffffffffffffffffffffffff168173ffffffffffffffffffffffffffffffffffffffff16141561240e576040517f08c379a000000000000000000000000000000000000000000000000000000000815260040161240590613c41565b60405180910390fd5b612417816128ec565b50565b600033905090565b60006007828154811061245e577f4e487b7100000000000000000000000000000000000000000000000000000000600052603260045260246000fd5b9060005260206000209060050201905060006008600084815260200190815260200160002060008573ffffffffffffffffffffffffffffffffffffffff1673ffffffffffffffffffffffffffffffffffffffff16815260200190815260200160002090506000816000015411612509576040517f08c379a000000000000000000000000000000000000000000000000000000000815260040161250090613ec1565b60405180910390fd5b6000612553826001015461254564e8d4a510006125378760030154876000015461273a90919063ffffffff16565b6127b590919063ffffffff16565b61280d90919063ffffffff16565b9050600260009054906101000a900473ffffffffffffffffffffffffffffffffffffffff1673ffffffffffffffffffffffffffffffffffffffff166370a08231306040518263ffffffff1660e01b81526004016125b09190613b36565b60206040518083038186803b1580156125c857600080fd5b505afa1580156125dc573d6000803e3d6000fd5b505050506040513d601f19601f82011682018060405250810190612600919061330b565b811115612642576040517f08c379a000000000000000000000000000000000000000000000000000000000815260040161263990613dc1565b60405180910390fd5b61264c8582612cd1565b5050505050565b6126d6846323b872dd60e01b85858560405160240161267493929190613b51565b604051602081830303815290604052907bffffffffffffffffffffffffffffffffffffffffffffffffffffffff19166020820180517bffffffffffffffffffffffffffffffffffffffffffffffffffffffff8381831617835250505050612ef3565b50505050565b60008082846126eb9190613f93565b905083811015612730576040517f08c379a000000000000000000000000000000000000000000000000000000000815260040161272790613c81565b60405180910390fd5b8091505092915050565b60008083141561274d57600090506127af565b6000828461275b919061401a565b905082848261276a9190613fe9565b146127aa576040517f08c379a00000000000000000000000000000000000000000000000000000000081526004016127a190613d81565b60405180910390fd5b809150505b92915050565b60008082116127f9576040517f08c379a00000000000000000000000000000000000000000000000000000000081526004016127f090613d41565b60405180910390fd5b81836128059190613fe9565b905092915050565b600082821115612852576040517f08c379a000000000000000000000000000000000000000000000000000000000815260040161284990613d01565b60405180910390fd5b818361285e9190614074565b905092915050565b6128e78363a9059cbb60e01b8484604051602401612885929190613b88565b604051602081830303815290604052907bffffffffffffffffffffffffffffffffffffffffffffffffffffffff19166020820180517bffffffffffffffffffffffffffffffffffffffffffffffffffffffff8381831617835250505050612ef3565b505050565b60008060009054906101000a900473ffffffffffffffffffffffffffffffffffffffff169050816000806101000a81548173ffffffffffffffffffffffffffffffffffffffff021916908373ffffffffffffffffffffffffffffffffffffffff1602179055508173ffffffffffffffffffffffffffffffffffffffff168173ffffffffffffffffffffffffffffffffffffffff167f8be0079c531659141344cd1fd0a4f28419497f9722a3daafe3b4186f6b6457e060405160405180910390a35050565b6000600783815481106129ec577f4e487b7100000000000000000000000000000000000000000000000000000000600052603260045260246000fd5b9060005260206000209060050201905060006008600085815260200190815260200160002060008673ffffffffffffffffffffffffffffffffffffffff1673ffffffffffffffffffffffffffffffffffffffff16815260200190815260200160002090503373ffffffffffffffffffffffffffffffffffffffff168160030160009054906101000a900473ffffffffffffffffffffffffffffffffffffffff1673ffffffffffffffffffffffffffffffffffffffff1614612ae2576040517f08c379a0000000000000000000000000000000000000000000000000000000008152600401612ad990613cc1565b60405180910390fd5b8281600001541015612b29576040517f08c379a0000000000000000000000000000000000000000000000000000000008152600401612b2090613e41565b60405180910390fd5b612b3284611136565b612b3c8585612422565b612b5383826000015461280d90919063ffffffff16565b8160000181905550612b8d64e8d4a51000612b7f8460030154846000015461273a90919063ffffffff16565b6127b590919063ffffffff16565b8160010181905550612bc764e8d4a51000612bb98460040154846000015461273a90919063ffffffff16565b6127b590919063ffffffff16565b8160020181905550600073ffffffffffffffffffffffffffffffffffffffff168260000160009054906101000a900473ffffffffffffffffffffffffffffffffffffffff1673ffffffffffffffffffffffffffffffffffffffff1614612c7757612c7633848460000160009054906101000a900473ffffffffffffffffffffffffffffffffffffffff1673ffffffffffffffffffffffffffffffffffffffff166128669092919063ffffffff16565b5b833373ffffffffffffffffffffffffffffffffffffffff167ff279e6a1f5e320cca91135676d9cb6e44ca8a08c0b88342bcdb1144f6511b5688360000154604051612cc29190613f01565b60405180910390a35050505050565b6000600260009054906101000a900473ffffffffffffffffffffffffffffffffffffffff1673ffffffffffffffffffffffffffffffffffffffff166370a08231306040518263ffffffff1660e01b8152600401612d2e9190613b36565b60206040518083038186803b158015612d4657600080fd5b505afa158015612d5a573d6000803e3d6000fd5b505050506040513d601f19601f82011682018060405250810190612d7e919061330b565b905080821115612e3d57600260009054906101000a900473ffffffffffffffffffffffffffffffffffffffff1673ffffffffffffffffffffffffffffffffffffffff1663a9059cbb84836040518363ffffffff1660e01b8152600401612de5929190613b88565b602060405180830381600087803b158015612dff57600080fd5b505af1158015612e13573d6000803e3d6000fd5b505050506040513d601f19601f82011682018060405250810190612e3791906132b9565b50612eee565b600260009054906101000a900473ffffffffffffffffffffffffffffffffffffffff1673ffffffffffffffffffffffffffffffffffffffff1663a9059cbb84846040518363ffffffff1660e01b8152600401612e9a929190613b88565b602060405180830381600087803b158015612eb457600080fd5b505af1158015612ec8573d6000803e3d6000fd5b505050506040513d601f19601f82011682018060405250810190612eec91906132b9565b505b505050565b6000612f55826040518060400160405280602081526020017f5361666545524332303a206c6f772d6c6576656c2063616c6c206661696c65648152508573ffffffffffffffffffffffffffffffffffffffff16612fba9092919063ffffffff16565b9050600081511115612fb55780806020019051810190612f7591906132b9565b612fb4576040517f08c379a0000000000000000000000000000000000000000000000000000000008152600401612fab90613e81565b60405180910390fd5b5b505050565b6060612fc98484600085612fd2565b90509392505050565b606082471015613017576040517f08c379a000000000000000000000000000000000000000000000000000000000815260040161300e90613d21565b60405180910390fd5b613020856130e6565b61305f576040517f08c379a000000000000000000000000000000000000000000000000000000000815260040161305690613e21565b60405180910390fd5b6000808673ffffffffffffffffffffffffffffffffffffffff1685876040516130889190613b1f565b60006040518083038185875af1925050503d80600081146130c5576040519150601f19603f3d011682016040523d82523d6000602084013e6130ca565b606091505b50915091506130da8282866130f9565b92505050949350505050565b600080823b905060008111915050919050565b6060831561310957829050613159565b60008351111561311c5782518084602001fd5b816040517f08c379a00000000000000000000000000000000000000000000000000000000081526004016131509190613c1f565b60405180910390fd5b9392505050565b60008135905061316f816141db565b92915050565b600081359050613184816141f2565b92915050565b600081519050613199816141f2565b92915050565b6000813590506131ae81614209565b92915050565b6000815190506131c381614209565b92915050565b6000602082840312156131db57600080fd5b60006131e984828501613160565b91505092915050565b6000806040838503121561320557600080fd5b600061321385828601613160565b925050602061322485828601613175565b9150509250929050565b6000806040838503121561324157600080fd5b600061324f85828601613160565b92505060206132608582860161319f565b9150509250929050565b60008060006060848603121561327f57600080fd5b600061328d86828701613160565b935050602061329e8682870161319f565b92505060406132af8682870161319f565b9150509250925092565b6000602082840312156132cb57600080fd5b60006132d98482850161318a565b91505092915050565b6000602082840312156132f457600080fd5b60006133028482850161319f565b91505092915050565b60006020828403121561331d57600080fd5b600061332b848285016131b4565b91505092915050565b6000806040838503121561334757600080fd5b60006133558582860161319f565b925050602061336685828601613160565b9150509250929050565b60008060006060848603121561338557600080fd5b60006133938682870161319f565b93505060206133a486828701613160565b92505060406133b586828701613175565b9150509250925092565b600080604083850312156133d257600080fd5b60006133e08582860161319f565b92505060206133f18582860161319f565b9150509250929050565b60008060006060848603121561341057600080fd5b600061341e8682870161319f565b935050602061342f8682870161319f565b925050604061344086828701613175565b9150509250925092565b613453816140a8565b82525050565b613462816140ba565b82525050565b600061347382613f61565b61347d8185613f77565b935061348d8185602086016140f0565b80840191505092915050565b60006134a482613f6c565b6134ae8185613f82565b93506134be8185602086016140f0565b6134c7816141ca565b840191505092915050565b60006134df602683613f82565b91507f4f776e61626c653a206e6577206f776e657220697320746865207a65726f206160008301527f64647265737300000000000000000000000000000000000000000000000000006020830152604082019050919050565b6000613545601b83613f82565b91507f736574426f6e75733a2062616420626f6e7573456e64426c6f636b00000000006000830152602082019050919050565b6000613585601b83613f82565b91507f536166654d6174683a206164646974696f6e206f766572666c6f7700000000006000830152602082019050919050565b60006135c5602483613f82565b91507f6578656375746f723a2063616c6c6572206973206e6f7420746865206578656360008301527f75746f72000000000000000000000000000000000000000000000000000000006020830152604082019050919050565b600061362b600b83613f82565b91507f6f6e6c792066756e6465720000000000000000000000000000000000000000006000830152602082019050919050565b600061366b601883613f82565b91507f6164643a206e6f74207374616b65546f6b656e206164647200000000000000006000830152602082019050919050565b60006136ab601e83613f82565b91507f536166654d6174683a207375627472616374696f6e206f766572666c6f7700006000830152602082019050919050565b60006136eb602683613f82565b91507f416464726573733a20696e73756666696369656e742062616c616e636520666f60008301527f722063616c6c00000000000000000000000000000000000000000000000000006020830152604082019050919050565b6000613751601a83613f82565b91507f536166654d6174683a206469766973696f6e206279207a65726f0000000000006000830152602082019050919050565b6000613791601d83613f82565b91507f736574426f6e75733a2062616420626f6e75734d756c7469706c6965720000006000830152602082019050919050565b60006137d1602183613f82565b91507f536166654d6174683a206d756c7469706c69636174696f6e206f766572666c6f60008301527f77000000000000000000000000000000000000000000000000000000000000006020830152604082019050919050565b6000613837602083613f82565b91507f4f776e61626c653a2063616c6c6572206973206e6f7420746865206f776e65726000830152602082019050919050565b6000613877601283613f82565b91507f777466206e6f7420656e6f7567682053656100000000000000000000000000006000830152602082019050919050565b60006138b7601483613f82565b91507f426c6f636b2072616e67652065786365656465640000000000000000000000006000830152602082019050919050565b60006138f7600783613f82565b91507f62616420736f66000000000000000000000000000000000000000000000000006000830152602082019050919050565b6000613937601d83613f82565b91507f416464726573733a2063616c6c20746f206e6f6e2d636f6e74726163740000006000830152602082019050919050565b6000613977601283613f82565b91507f77697468647261773a206e6f7420676f6f6400000000000000000000000000006000830152602082019050919050565b60006139b7601b83613f82565b91507f6465706f7369743a206e6f7420616363657074206465706f73697400000000006000830152602082019050919050565b60006139f7602a83613f82565b91507f5361666545524332303a204552433230206f7065726174696f6e20646964206e60008301527f6f742073756363656564000000000000000000000000000000000000000000006020830152604082019050919050565b6000613a5d601f83613f82565b91507f5265656e7472616e637947756172643a207265656e7472616e742063616c6c006000830152602082019050919050565b6000613a9d601283613f82565b91507f6e6f7468696e6720746f206861727665737400000000000000000000000000006000830152602082019050919050565b6000613add601383613f82565b91507f6164643a207374616b65546f6b656e20647570000000000000000000000000006000830152602082019050919050565b613b19816140e6565b82525050565b6000613b2b8284613468565b915081905092915050565b6000602082019050613b4b600083018461344a565b92915050565b6000606082019050613b66600083018661344a565b613b73602083018561344a565b613b806040830184613b10565b949350505050565b6000604082019050613b9d600083018561344a565b613baa6020830184613b10565b9392505050565b600060a082019050613bc6600083018861344a565b613bd36020830187613b10565b613be06040830186613b10565b613bed6060830185613b10565b613bfa6080830184613b10565b9695505050505050565b6000602082019050613c196000830184613459565b92915050565b60006020820190508181036000830152613c398184613499565b905092915050565b60006020820190508181036000830152613c5a816134d2565b9050919050565b60006020820190508181036000830152613c7a81613538565b9050919050565b60006020820190508181036000830152613c9a81613578565b9050919050565b60006020820190508181036000830152613cba816135b8565b9050919050565b60006020820190508181036000830152613cda8161361e565b9050919050565b60006020820190508181036000830152613cfa8161365e565b9050919050565b60006020820190508181036000830152613d1a8161369e565b9050919050565b60006020820190508181036000830152613d3a816136de565b9050919050565b60006020820190508181036000830152613d5a81613744565b9050919050565b60006020820190508181036000830152613d7a81613784565b9050919050565b60006020820190508181036000830152613d9a816137c4565b9050919050565b60006020820190508181036000830152613dba8161382a565b9050919050565b60006020820190508181036000830152613dda8161386a565b9050919050565b60006020820190508181036000830152613dfa816138aa565b9050919050565b60006020820190508181036000830152613e1a816138ea565b9050919050565b60006020820190508181036000830152613e3a8161392a565b9050919050565b60006020820190508181036000830152613e5a8161396a565b9050919050565b60006020820190508181036000830152613e7a816139aa565b9050919050565b60006020820190508181036000830152613e9a816139ea565b9050919050565b60006020820190508181036000830152613eba81613a50565b9050919050565b60006020820190508181036000830152613eda81613a90565b9050919050565b60006020820190508181036000830152613efa81613ad0565b9050919050565b6000602082019050613f166000830184613b10565b92915050565b6000608082019050613f316000830187613b10565b613f3e6020830186613b10565b613f4b6040830185613b10565b613f58606083018461344a565b95945050505050565b600081519050919050565b600081519050919050565b600081905092915050565b600082825260208201905092915050565b6000613f9e826140e6565b9150613fa9836140e6565b9250827fffffffffffffffffffffffffffffffffffffffffffffffffffffffffffffffff03821115613fde57613fdd61416c565b5b828201905092915050565b6000613ff4826140e6565b9150613fff836140e6565b92508261400f5761400e61419b565b5b828204905092915050565b6000614025826140e6565b9150614030836140e6565b9250817fffffffffffffffffffffffffffffffffffffffffffffffffffffffffffffffff04831182151516156140695761406861416c565b5b828202905092915050565b600061407f826140e6565b915061408a836140e6565b92508282101561409d5761409c61416c565b5b828203905092915050565b60006140b3826140c6565b9050919050565b60008115159050919050565b600073ffffffffffffffffffffffffffffffffffffffff82169050919050565b6000819050919050565b60005b8381101561410e5780820151818401526020810190506140f3565b8381111561411d576000848401525b50505050565b600061412e826140e6565b91507fffffffffffffffffffffffffffffffffffffffffffffffffffffffffffffffff8214156141615761416061416c565b5b600182019050919050565b7f4e487b7100000000000000000000000000000000000000000000000000000000600052601160045260246000fd5b7f4e487b7100000000000000000000000000000000000000000000000000000000600052601260045260246000fd5b6000601f19601f8301169050919050565b6141e4816140a8565b81146141ef57600080fd5b50565b6141fb816140ba565b811461420657600080fd5b50565b614212816140e6565b811461421d57600080fd5b5056fea2646970667358221220e5431a80284bfeb5ad8df8c315551e6e969e33c52116a3412fcec45fafea6b1064736f6c63430008000033",
					"opcodes": "PUSH1 0x80 PUSH1 0x40 MSTORE CALLVALUE DUP1 ISZERO PUSH3 0x11 JUMPI PUSH1 0x0 DUP1 REVERT JUMPDEST POP PUSH1 0x40 MLOAD PUSH3 0x45BC CODESIZE SUB DUP1 PUSH3 0x45BC DUP4 CODECOPY DUP2 DUP2 ADD PUSH1 0x40 MSTORE DUP2 ADD SWAP1 PUSH3 0x37 SWAP2 SWAP1 PUSH3 0x262 JUMP JUMPDEST PUSH3 0x57 PUSH3 0x4B PUSH3 0x168 PUSH1 0x20 SHL PUSH1 0x20 SHR JUMP JUMPDEST PUSH3 0x170 PUSH1 0x20 SHL PUSH1 0x20 SHR JUMP JUMPDEST PUSH1 0x1 DUP1 DUP2 SWAP1 SSTORE POP PUSH1 0x0 PUSH1 0x5 DUP2 SWAP1 SSTORE POP PUSH1 0x0 PUSH1 0x9 DUP2 SWAP1 SSTORE POP DUP5 PUSH1 0x2 PUSH1 0x0 PUSH2 0x100 EXP DUP2 SLOAD DUP2 PUSH20 0xFFFFFFFFFFFFFFFFFFFFFFFFFFFFFFFFFFFFFFFF MUL NOT AND SWAP1 DUP4 PUSH20 0xFFFFFFFFFFFFFFFFFFFFFFFFFFFFFFFFFFFFFFFF AND MUL OR SWAP1 SSTORE POP DUP4 PUSH1 0x3 PUSH1 0x0 PUSH2 0x100 EXP DUP2 SLOAD DUP2 PUSH20 0xFFFFFFFFFFFFFFFFFFFFFFFFFFFFFFFFFFFFFFFF MUL NOT AND SWAP1 DUP4 PUSH20 0xFFFFFFFFFFFFFFFFFFFFFFFFFFFFFFFFFFFFFFFF AND MUL OR SWAP1 SSTORE POP DUP3 PUSH1 0x4 DUP2 SWAP1 SSTORE POP DUP1 PUSH1 0x6 DUP2 SWAP1 SSTORE POP DUP2 PUSH1 0xA DUP2 SWAP1 SSTORE POP PUSH1 0x1 PUSH1 0xB PUSH1 0x0 CALLER PUSH20 0xFFFFFFFFFFFFFFFFFFFFFFFFFFFFFFFFFFFFFFFF AND PUSH20 0xFFFFFFFFFFFFFFFFFFFFFFFFFFFFFFFFFFFFFFFF AND DUP2 MSTORE PUSH1 0x20 ADD SWAP1 DUP2 MSTORE PUSH1 0x20 ADD PUSH1 0x0 KECCAK256 PUSH1 0x0 PUSH2 0x100 EXP DUP2 SLOAD DUP2 PUSH1 0xFF MUL NOT AND SWAP1 DUP4 ISZERO ISZERO MUL OR SWAP1 SSTORE POP POP POP POP POP POP PUSH3 0x356 JUMP JUMPDEST PUSH1 0x0 CALLER SWAP1 POP SWAP1 JUMP JUMPDEST PUSH1 0x0 DUP1 PUSH1 0x0 SWAP1 SLOAD SWAP1 PUSH2 0x100 EXP SWAP1 DIV PUSH20 0xFFFFFFFFFFFFFFFFFFFFFFFFFFFFFFFFFFFFFFFF AND SWAP1 POP DUP2 PUSH1 0x0 DUP1 PUSH2 0x100 EXP DUP2 SLOAD DUP2 PUSH20 0xFFFFFFFFFFFFFFFFFFFFFFFFFFFFFFFFFFFFFFFF MUL NOT AND SWAP1 DUP4 PUSH20 0xFFFFFFFFFFFFFFFFFFFFFFFFFFFFFFFFFFFFFFFF AND MUL OR SWAP1 SSTORE POP DUP2 PUSH20 0xFFFFFFFFFFFFFFFFFFFFFFFFFFFFFFFFFFFFFFFF AND DUP2 PUSH20 0xFFFFFFFFFFFFFFFFFFFFFFFFFFFFFFFFFFFFFFFF AND PUSH32 0x8BE0079C531659141344CD1FD0A4F28419497F9722A3DAAFE3B4186F6B6457E0 PUSH1 0x40 MLOAD PUSH1 0x40 MLOAD DUP1 SWAP2 SUB SWAP1 LOG3 POP POP JUMP JUMPDEST PUSH1 0x0 DUP2 MLOAD SWAP1 POP PUSH3 0x245 DUP2 PUSH3 0x322 JUMP JUMPDEST SWAP3 SWAP2 POP POP JUMP JUMPDEST PUSH1 0x0 DUP2 MLOAD SWAP1 POP PUSH3 0x25C DUP2 PUSH3 0x33C JUMP JUMPDEST SWAP3 SWAP2 POP POP JUMP JUMPDEST PUSH1 0x0 DUP1 PUSH1 0x0 DUP1 PUSH1 0x0 PUSH1 0xA0 DUP7 DUP9 SUB SLT ISZERO PUSH3 0x27B JUMPI PUSH1 0x0 DUP1 REVERT JUMPDEST PUSH1 0x0 PUSH3 0x28B DUP9 DUP3 DUP10 ADD PUSH3 0x234 JUMP JUMPDEST SWAP6 POP POP PUSH1 0x20 PUSH3 0x29E DUP9 DUP3 DUP10 ADD PUSH3 0x234 JUMP JUMPDEST SWAP5 POP POP PUSH1 0x40 PUSH3 0x2B1 DUP9 DUP3 DUP10 ADD PUSH3 0x24B JUMP JUMPDEST SWAP4 POP POP PUSH1 0x60 PUSH3 0x2C4 DUP9 DUP3 DUP10 ADD PUSH3 0x24B JUMP JUMPDEST SWAP3 POP POP PUSH1 0x80 PUSH3 0x2D7 DUP9 DUP3 DUP10 ADD PUSH3 0x24B JUMP JUMPDEST SWAP2 POP POP SWAP3 SWAP6 POP SWAP3 SWAP6 SWAP1 SWAP4 POP JUMP JUMPDEST PUSH1 0x0 PUSH3 0x2F1 DUP3 PUSH3 0x2F8 JUMP JUMPDEST SWAP1 POP SWAP2 SWAP1 POP JUMP JUMPDEST PUSH1 0x0 PUSH20 0xFFFFFFFFFFFFFFFFFFFFFFFFFFFFFFFFFFFFFFFF DUP3 AND SWAP1 POP SWAP2 SWAP1 POP JUMP JUMPDEST PUSH1 0x0 DUP2 SWAP1 POP SWAP2 SWAP1 POP JUMP JUMPDEST PUSH3 0x32D DUP2 PUSH3 0x2E4 JUMP JUMPDEST DUP2 EQ PUSH3 0x339 JUMPI PUSH1 0x0 DUP1 REVERT JUMPDEST POP JUMP JUMPDEST PUSH3 0x347 DUP2 PUSH3 0x318 JUMP JUMPDEST DUP2 EQ PUSH3 0x353 JUMPI PUSH1 0x0 DUP1 REVERT JUMPDEST POP JUMP JUMPDEST PUSH2 0x4256 DUP1 PUSH3 0x366 PUSH1 0x0 CODECOPY PUSH1 0x0 RETURN INVALID PUSH1 0x80 PUSH1 0x40 MSTORE CALLVALUE DUP1 ISZERO PUSH2 0x10 JUMPI PUSH1 0x0 DUP1 REVERT JUMPDEST POP PUSH1 0x4 CALLDATASIZE LT PUSH2 0x1FB JUMPI PUSH1 0x0 CALLDATALOAD PUSH1 0xE0 SHR DUP1 PUSH4 0x715018A6 GT PUSH2 0x11A JUMPI DUP1 PUSH4 0xB5C5F672 GT PUSH2 0xAD JUMPI DUP1 PUSH4 0xD4A91E38 GT PUSH2 0x7C JUMPI DUP1 PUSH4 0xD4A91E38 EQ PUSH2 0x5A5 JUMPI DUP1 PUSH4 0xDDC63262 EQ PUSH2 0x5C1 JUMPI DUP1 PUSH4 0xE4C5FF46 EQ PUSH2 0x5DD JUMPI DUP1 PUSH4 0xF1101804 EQ PUSH2 0x5F9 JUMPI DUP1 PUSH4 0xF2FDE38B EQ PUSH2 0x617 JUMPI PUSH2 0x1FB JUMP JUMPDEST DUP1 PUSH4 0xB5C5F672 EQ PUSH2 0x533 JUMPI DUP1 PUSH4 0xCC6DBC27 EQ PUSH2 0x54F JUMPI DUP1 PUSH4 0xD477F05F EQ PUSH2 0x56B JUMPI DUP1 PUSH4 0xD49E77CD EQ PUSH2 0x587 JUMPI PUSH2 0x1FB JUMP JUMPDEST DUP1 PUSH4 0x930ED033 GT PUSH2 0xE9 JUMPI DUP1 PUSH4 0x930ED033 EQ PUSH2 0x482 JUMPI DUP1 PUSH4 0x93F1A40B EQ PUSH2 0x4B2 JUMPI DUP1 PUSH4 0xA8B973A1 EQ PUSH2 0x4E5 JUMPI DUP1 PUSH4 0xB03DF69D EQ PUSH2 0x503 JUMPI PUSH2 0x1FB JUMP JUMPDEST DUP1 PUSH4 0x715018A6 EQ PUSH2 0x40E JUMPI DUP1 PUSH4 0x7ABCEFFD EQ PUSH2 0x418 JUMPI DUP1 PUSH4 0x8DA5CB5B EQ PUSH2 0x434 JUMPI DUP1 PUSH4 0x8DBB1E3A EQ PUSH2 0x452 JUMPI PUSH2 0x1FB JUMP JUMPDEST DUP1 PUSH4 0x2E97766D GT PUSH2 0x192 JUMPI DUP1 PUSH4 0x4ECAAC41 GT PUSH2 0x161 JUMPI DUP1 PUSH4 0x4ECAAC41 EQ PUSH2 0x3AE JUMPI DUP1 PUSH4 0x51EB05A6 EQ PUSH2 0x3CC JUMPI DUP1 PUSH4 0x5312EA8E EQ PUSH2 0x3E8 JUMPI DUP1 PUSH4 0x630B5BA1 EQ PUSH2 0x404 JUMPI PUSH2 0x1FB JUMP JUMPDEST DUP1 PUSH4 0x2E97766D EQ PUSH2 0x326 JUMPI DUP1 PUSH4 0x46CA6BEA EQ PUSH2 0x344 JUMPI DUP1 PUSH4 0x48C7E528 EQ PUSH2 0x360 JUMPI DUP1 PUSH4 0x48CD4CB1 EQ PUSH2 0x390 JUMPI PUSH2 0x1FB JUMP JUMPDEST DUP1 PUSH4 0x17CAF6F1 GT PUSH2 0x1CE JUMPI DUP1 PUSH4 0x17CAF6F1 EQ PUSH2 0x28A JUMPI DUP1 PUSH4 0x1AED6553 EQ PUSH2 0x2A8 JUMPI DUP1 PUSH4 0x1E1BFF3F EQ PUSH2 0x2C6 JUMPI DUP1 PUSH4 0x24CDEE22 EQ PUSH2 0x2F6 JUMPI PUSH2 0x1FB JUMP JUMPDEST DUP1 PUSH4 0x37C99B0 EQ PUSH2 0x200 JUMPI DUP1 PUSH4 0x81E3EDA EQ PUSH2 0x21C JUMPI DUP1 PUSH4 0xEFE6A8B EQ PUSH2 0x23A JUMPI DUP1 PUSH4 0x1526FE27 EQ PUSH2 0x256 JUMPI JUMPDEST PUSH1 0x0 DUP1 REVERT JUMPDEST PUSH2 0x21A PUSH1 0x4 DUP1 CALLDATASIZE SUB DUP2 ADD SWAP1 PUSH2 0x215 SWAP2 SWAP1 PUSH2 0x33BF JUMP JUMPDEST PUSH2 0x633 JUMP JUMPDEST STOP JUMPDEST PUSH2 0x224 PUSH2 0x746 JUMP JUMPDEST PUSH1 0x40 MLOAD PUSH2 0x231 SWAP2 SWAP1 PUSH2 0x3F01 JUMP JUMPDEST PUSH1 0x40 MLOAD DUP1 SWAP2 SUB SWAP1 RETURN JUMPDEST PUSH2 0x254 PUSH1 0x4 DUP1 CALLDATASIZE SUB DUP2 ADD SWAP1 PUSH2 0x24F SWAP2 SWAP1 PUSH2 0x326A JUMP JUMPDEST PUSH2 0x753 JUMP JUMPDEST STOP JUMPDEST PUSH2 0x270 PUSH1 0x4 DUP1 CALLDATASIZE SUB DUP2 ADD SWAP1 PUSH2 0x26B SWAP2 SWAP1 PUSH2 0x32E2 JUMP JUMPDEST PUSH2 0xBCF JUMP JUMPDEST PUSH1 0x40 MLOAD PUSH2 0x281 SWAP6 SWAP5 SWAP4 SWAP3 SWAP2 SWAP1 PUSH2 0x3BB1 JUMP JUMPDEST PUSH1 0x40 MLOAD DUP1 SWAP2 SUB SWAP1 RETURN JUMPDEST PUSH2 0x292 PUSH2 0xC35 JUMP JUMPDEST PUSH1 0x40 MLOAD PUSH2 0x29F SWAP2 SWAP1 PUSH2 0x3F01 JUMP JUMPDEST PUSH1 0x40 MLOAD DUP1 SWAP2 SUB SWAP1 RETURN JUMPDEST PUSH2 0x2B0 PUSH2 0xC3B JUMP JUMPDEST PUSH1 0x40 MLOAD PUSH2 0x2BD SWAP2 SWAP1 PUSH2 0x3F01 JUMP JUMPDEST PUSH1 0x40 MLOAD DUP1 SWAP2 SUB SWAP1 RETURN JUMPDEST PUSH2 0x2E0 PUSH1 0x4 DUP1 CALLDATASIZE SUB DUP2 ADD SWAP1 PUSH2 0x2DB SWAP2 SWAP1 PUSH2 0x31F2 JUMP JUMPDEST PUSH2 0xC41 JUMP JUMPDEST PUSH1 0x40 MLOAD PUSH2 0x2ED SWAP2 SWAP1 PUSH2 0x3C04 JUMP JUMPDEST PUSH1 0x40 MLOAD DUP1 SWAP2 SUB SWAP1 RETURN JUMPDEST PUSH2 0x310 PUSH1 0x4 DUP1 CALLDATASIZE SUB DUP2 ADD SWAP1 PUSH2 0x30B SWAP2 SWAP1 PUSH2 0x3334 JUMP JUMPDEST PUSH2 0xD20 JUMP JUMPDEST PUSH1 0x40 MLOAD PUSH2 0x31D SWAP2 SWAP1 PUSH2 0x3F01 JUMP JUMPDEST PUSH1 0x40 MLOAD DUP1 SWAP2 SUB SWAP1 RETURN JUMPDEST PUSH2 0x32E PUSH2 0xF7A JUMP JUMPDEST PUSH1 0x40 MLOAD PUSH2 0x33B SWAP2 SWAP1 PUSH2 0x3F01 JUMP JUMPDEST PUSH1 0x40 MLOAD DUP1 SWAP2 SUB SWAP1 RETURN JUMPDEST PUSH2 0x35E PUSH1 0x4 DUP1 CALLDATASIZE SUB DUP2 ADD SWAP1 PUSH2 0x359 SWAP2 SWAP1 PUSH2 0x33FB JUMP JUMPDEST PUSH2 0xF82 JUMP JUMPDEST STOP JUMPDEST PUSH2 0x37A PUSH1 0x4 DUP1 CALLDATASIZE SUB DUP2 ADD SWAP1 PUSH2 0x375 SWAP2 SWAP1 PUSH2 0x31C9 JUMP JUMPDEST PUSH2 0x10EA JUMP JUMPDEST PUSH1 0x40 MLOAD PUSH2 0x387 SWAP2 SWAP1 PUSH2 0x3C04 JUMP JUMPDEST PUSH1 0x40 MLOAD DUP1 SWAP2 SUB SWAP1 RETURN JUMPDEST PUSH2 0x398 PUSH2 0x110A JUMP JUMPDEST PUSH1 0x40 MLOAD PUSH2 0x3A5 SWAP2 SWAP1 PUSH2 0x3F01 JUMP JUMPDEST PUSH1 0x40 MLOAD DUP1 SWAP2 SUB SWAP1 RETURN JUMPDEST PUSH2 0x3B6 PUSH2 0x1110 JUMP JUMPDEST PUSH1 0x40 MLOAD PUSH2 0x3C3 SWAP2 SWAP1 PUSH2 0x3B36 JUMP JUMPDEST PUSH1 0x40 MLOAD DUP1 SWAP2 SUB SWAP1 RETURN JUMPDEST PUSH2 0x3E6 PUSH1 0x4 DUP1 CALLDATASIZE SUB DUP2 ADD SWAP1 PUSH2 0x3E1 SWAP2 SWAP1 PUSH2 0x32E2 JUMP JUMPDEST PUSH2 0x1136 JUMP JUMPDEST STOP JUMPDEST PUSH2 0x402 PUSH1 0x4 DUP1 CALLDATASIZE SUB DUP2 ADD SWAP1 PUSH2 0x3FD SWAP2 SWAP1 PUSH2 0x32E2 JUMP JUMPDEST PUSH2 0x159E JUMP JUMPDEST STOP JUMPDEST PUSH2 0x40C PUSH2 0x1703 JUMP JUMPDEST STOP JUMPDEST PUSH2 0x416 PUSH2 0x1736 JUMP JUMPDEST STOP JUMPDEST PUSH2 0x432 PUSH1 0x4 DUP1 CALLDATASIZE SUB DUP2 ADD SWAP1 PUSH2 0x42D SWAP2 SWAP1 PUSH2 0x3370 JUMP JUMPDEST PUSH2 0x17BE JUMP JUMPDEST STOP JUMPDEST PUSH2 0x43C PUSH2 0x1A15 JUMP JUMPDEST PUSH1 0x40 MLOAD PUSH2 0x449 SWAP2 SWAP1 PUSH2 0x3B36 JUMP JUMPDEST PUSH1 0x40 MLOAD DUP1 SWAP2 SUB SWAP1 RETURN JUMPDEST PUSH2 0x46C PUSH1 0x4 DUP1 CALLDATASIZE SUB DUP2 ADD SWAP1 PUSH2 0x467 SWAP2 SWAP1 PUSH2 0x33BF JUMP JUMPDEST PUSH2 0x1A3E JUMP JUMPDEST PUSH1 0x40 MLOAD PUSH2 0x479 SWAP2 SWAP1 PUSH2 0x3F01 JUMP JUMPDEST PUSH1 0x40 MLOAD DUP1 SWAP2 SUB SWAP1 RETURN JUMPDEST PUSH2 0x49C PUSH1 0x4 DUP1 CALLDATASIZE SUB DUP2 ADD SWAP1 PUSH2 0x497 SWAP2 SWAP1 PUSH2 0x322E JUMP JUMPDEST PUSH2 0x1B35 JUMP JUMPDEST PUSH1 0x40 MLOAD PUSH2 0x4A9 SWAP2 SWAP1 PUSH2 0x3C04 JUMP JUMPDEST PUSH1 0x40 MLOAD DUP1 SWAP2 SUB SWAP1 RETURN JUMPDEST PUSH2 0x4CC PUSH1 0x4 DUP1 CALLDATASIZE SUB DUP2 ADD SWAP1 PUSH2 0x4C7 SWAP2 SWAP1 PUSH2 0x3334 JUMP JUMPDEST PUSH2 0x1BE8 JUMP JUMPDEST PUSH1 0x40 MLOAD PUSH2 0x4DC SWAP5 SWAP4 SWAP3 SWAP2 SWAP1 PUSH2 0x3F1C JUMP JUMPDEST PUSH1 0x40 MLOAD DUP1 SWAP2 SUB SWAP1 RETURN JUMPDEST PUSH2 0x4ED PUSH2 0x1C45 JUMP JUMPDEST PUSH1 0x40 MLOAD PUSH2 0x4FA SWAP2 SWAP1 PUSH2 0x3F01 JUMP JUMPDEST PUSH1 0x40 MLOAD DUP1 SWAP2 SUB SWAP1 RETURN JUMPDEST PUSH2 0x51D PUSH1 0x4 DUP1 CALLDATASIZE SUB DUP2 ADD SWAP1 PUSH2 0x518 SWAP2 SWAP1 PUSH2 0x31C9 JUMP JUMPDEST PUSH2 0x1C4B JUMP JUMPDEST PUSH1 0x40 MLOAD PUSH2 0x52A SWAP2 SWAP1 PUSH2 0x3C04 JUMP JUMPDEST PUSH1 0x40 MLOAD DUP1 SWAP2 SUB SWAP1 RETURN JUMPDEST PUSH2 0x54D PUSH1 0x4 DUP1 CALLDATASIZE SUB DUP2 ADD SWAP1 PUSH2 0x548 SWAP2 SWAP1 PUSH2 0x326A JUMP JUMPDEST PUSH2 0x1D2A JUMP JUMPDEST STOP JUMPDEST PUSH2 0x569 PUSH1 0x4 DUP1 CALLDATASIZE SUB DUP2 ADD SWAP1 PUSH2 0x564 SWAP2 SWAP1 PUSH2 0x322E JUMP JUMPDEST PUSH2 0x1D9F JUMP JUMPDEST STOP JUMPDEST PUSH2 0x585 PUSH1 0x4 DUP1 CALLDATASIZE SUB DUP2 ADD SWAP1 PUSH2 0x580 SWAP2 SWAP1 PUSH2 0x31C9 JUMP JUMPDEST PUSH2 0x1E66 JUMP JUMPDEST STOP JUMPDEST PUSH2 0x58F PUSH2 0x1FA3 JUMP JUMPDEST PUSH1 0x40 MLOAD PUSH2 0x59C SWAP2 SWAP1 PUSH2 0x3B36 JUMP JUMPDEST PUSH1 0x40 MLOAD DUP1 SWAP2 SUB SWAP1 RETURN JUMPDEST PUSH2 0x5BF PUSH1 0x4 DUP1 CALLDATASIZE SUB DUP2 ADD SWAP1 PUSH2 0x5BA SWAP2 SWAP1 PUSH2 0x32E2 JUMP JUMPDEST PUSH2 0x1FC9 JUMP JUMPDEST STOP JUMPDEST PUSH2 0x5DB PUSH1 0x4 DUP1 CALLDATASIZE SUB DUP2 ADD SWAP1 PUSH2 0x5D6 SWAP2 SWAP1 PUSH2 0x32E2 JUMP JUMPDEST PUSH2 0x207C JUMP JUMPDEST STOP JUMPDEST PUSH2 0x5F7 PUSH1 0x4 DUP1 CALLDATASIZE SUB DUP2 ADD SWAP1 PUSH2 0x5F2 SWAP2 SWAP1 PUSH2 0x322E JUMP JUMPDEST PUSH2 0x21A8 JUMP JUMPDEST STOP JUMPDEST PUSH2 0x601 PUSH2 0x231C JUMP JUMPDEST PUSH1 0x40 MLOAD PUSH2 0x60E SWAP2 SWAP1 PUSH2 0x3F01 JUMP JUMPDEST PUSH1 0x40 MLOAD DUP1 SWAP2 SUB SWAP1 RETURN JUMPDEST PUSH2 0x631 PUSH1 0x4 DUP1 CALLDATASIZE SUB DUP2 ADD SWAP1 PUSH2 0x62C SWAP2 SWAP1 PUSH2 0x31C9 JUMP JUMPDEST PUSH2 0x2322 JUMP JUMPDEST STOP JUMPDEST PUSH2 0x63B PUSH2 0x241A JUMP JUMPDEST PUSH20 0xFFFFFFFFFFFFFFFFFFFFFFFFFFFFFFFFFFFFFFFF AND PUSH2 0x659 PUSH2 0x1A15 JUMP JUMPDEST PUSH20 0xFFFFFFFFFFFFFFFFFFFFFFFFFFFFFFFFFFFFFFFF AND EQ PUSH2 0x6AF JUMPI PUSH1 0x40 MLOAD PUSH32 0x8C379A000000000000000000000000000000000000000000000000000000000 DUP2 MSTORE PUSH1 0x4 ADD PUSH2 0x6A6 SWAP1 PUSH2 0x3DA1 JUMP JUMPDEST PUSH1 0x40 MLOAD DUP1 SWAP2 SUB SWAP1 REVERT JUMPDEST NUMBER DUP2 GT PUSH2 0x6F1 JUMPI PUSH1 0x40 MLOAD PUSH32 0x8C379A000000000000000000000000000000000000000000000000000000000 DUP2 MSTORE PUSH1 0x4 ADD PUSH2 0x6E8 SWAP1 PUSH2 0x3C61 JUMP JUMPDEST PUSH1 0x40 MLOAD DUP1 SWAP2 SUB SWAP1 REVERT JUMPDEST PUSH1 0x1 DUP3 GT PUSH2 0x734 JUMPI PUSH1 0x40 MLOAD PUSH32 0x8C379A000000000000000000000000000000000000000000000000000000000 DUP2 MSTORE PUSH1 0x4 ADD PUSH2 0x72B SWAP1 PUSH2 0x3D61 JUMP JUMPDEST PUSH1 0x40 MLOAD DUP1 SWAP2 SUB SWAP1 REVERT JUMPDEST DUP2 PUSH1 0x5 DUP2 SWAP1 SSTORE POP DUP1 PUSH1 0x6 DUP2 SWAP1 SSTORE POP POP POP JUMP JUMPDEST PUSH1 0x0 PUSH1 0x7 DUP1 SLOAD SWAP1 POP SWAP1 POP SWAP1 JUMP JUMPDEST PUSH1 0x1 DUP1 PUSH1 0x0 DUP3 DUP3 SLOAD PUSH2 0x765 SWAP2 SWAP1 PUSH2 0x3F93 JUMP JUMPDEST SWAP3 POP POP DUP2 SWAP1 SSTORE POP PUSH1 0x0 PUSH1 0x1 SLOAD SWAP1 POP PUSH1 0x0 PUSH1 0x7 DUP5 DUP2 SLOAD DUP2 LT PUSH2 0x7AF JUMPI PUSH32 0x4E487B7100000000000000000000000000000000000000000000000000000000 PUSH1 0x0 MSTORE PUSH1 0x32 PUSH1 0x4 MSTORE PUSH1 0x24 PUSH1 0x0 REVERT JUMPDEST SWAP1 PUSH1 0x0 MSTORE PUSH1 0x20 PUSH1 0x0 KECCAK256 SWAP1 PUSH1 0x5 MUL ADD SWAP1 POP PUSH1 0x0 PUSH1 0x8 PUSH1 0x0 DUP7 DUP2 MSTORE PUSH1 0x20 ADD SWAP1 DUP2 MSTORE PUSH1 0x20 ADD PUSH1 0x0 KECCAK256 PUSH1 0x0 DUP8 PUSH20 0xFFFFFFFFFFFFFFFFFFFFFFFFFFFFFFFFFFFFFFFF AND PUSH20 0xFFFFFFFFFFFFFFFFFFFFFFFFFFFFFFFFFFFFFFFF AND DUP2 MSTORE PUSH1 0x20 ADD SWAP1 DUP2 MSTORE PUSH1 0x20 ADD PUSH1 0x0 KECCAK256 SWAP1 POP PUSH1 0x0 PUSH20 0xFFFFFFFFFFFFFFFFFFFFFFFFFFFFFFFFFFFFFFFF AND DUP2 PUSH1 0x3 ADD PUSH1 0x0 SWAP1 SLOAD SWAP1 PUSH2 0x100 EXP SWAP1 DIV PUSH20 0xFFFFFFFFFFFFFFFFFFFFFFFFFFFFFFFFFFFFFFFF AND PUSH20 0xFFFFFFFFFFFFFFFFFFFFFFFFFFFFFFFFFFFFFFFF AND EQ PUSH2 0x8FE JUMPI CALLER PUSH20 0xFFFFFFFFFFFFFFFFFFFFFFFFFFFFFFFFFFFFFFFF AND DUP2 PUSH1 0x3 ADD PUSH1 0x0 SWAP1 SLOAD SWAP1 PUSH2 0x100 EXP SWAP1 DIV PUSH20 0xFFFFFFFFFFFFFFFFFFFFFFFFFFFFFFFFFFFFFFFF AND PUSH20 0xFFFFFFFFFFFFFFFFFFFFFFFFFFFFFFFFFFFFFFFF AND EQ PUSH2 0x8FD JUMPI PUSH1 0x40 MLOAD PUSH32 0x8C379A000000000000000000000000000000000000000000000000000000000 DUP2 MSTORE PUSH1 0x4 ADD PUSH2 0x8F4 SWAP1 PUSH2 0x3E01 JUMP JUMPDEST PUSH1 0x40 MLOAD DUP1 SWAP2 SUB SWAP1 REVERT JUMPDEST JUMPDEST PUSH1 0x0 PUSH20 0xFFFFFFFFFFFFFFFFFFFFFFFFFFFFFFFFFFFFFFFF AND DUP3 PUSH1 0x0 ADD PUSH1 0x0 SWAP1 SLOAD SWAP1 PUSH2 0x100 EXP SWAP1 DIV PUSH20 0xFFFFFFFFFFFFFFFFFFFFFFFFFFFFFFFFFFFFFFFF AND PUSH20 0xFFFFFFFFFFFFFFFFFFFFFFFFFFFFFFFFFFFFFFFF AND EQ ISZERO PUSH2 0x992 JUMPI PUSH1 0x40 MLOAD PUSH32 0x8C379A000000000000000000000000000000000000000000000000000000000 DUP2 MSTORE PUSH1 0x4 ADD PUSH2 0x989 SWAP1 PUSH2 0x3E61 JUMP JUMPDEST PUSH1 0x40 MLOAD DUP1 SWAP2 SUB SWAP1 REVERT JUMPDEST PUSH2 0x99B DUP6 PUSH2 0x1136 JUMP JUMPDEST PUSH1 0x0 DUP2 PUSH1 0x0 ADD SLOAD GT ISZERO PUSH2 0x9B3 JUMPI PUSH2 0x9B2 DUP7 DUP7 PUSH2 0x2422 JUMP JUMPDEST JUMPDEST PUSH1 0x0 PUSH20 0xFFFFFFFFFFFFFFFFFFFFFFFFFFFFFFFFFFFFFFFF AND DUP2 PUSH1 0x3 ADD PUSH1 0x0 SWAP1 SLOAD SWAP1 PUSH2 0x100 EXP SWAP1 DIV PUSH20 0xFFFFFFFFFFFFFFFFFFFFFFFFFFFFFFFFFFFFFFFF AND PUSH20 0xFFFFFFFFFFFFFFFFFFFFFFFFFFFFFFFFFFFFFFFF AND EQ ISZERO PUSH2 0xA50 JUMPI CALLER DUP2 PUSH1 0x3 ADD PUSH1 0x0 PUSH2 0x100 EXP DUP2 SLOAD DUP2 PUSH20 0xFFFFFFFFFFFFFFFFFFFFFFFFFFFFFFFFFFFFFFFF MUL NOT AND SWAP1 DUP4 PUSH20 0xFFFFFFFFFFFFFFFFFFFFFFFFFFFFFFFFFFFFFFFF AND MUL OR SWAP1 SSTORE POP JUMPDEST PUSH2 0xAA1 CALLER ADDRESS DUP7 DUP6 PUSH1 0x0 ADD PUSH1 0x0 SWAP1 SLOAD SWAP1 PUSH2 0x100 EXP SWAP1 DIV PUSH20 0xFFFFFFFFFFFFFFFFFFFFFFFFFFFFFFFFFFFFFFFF AND PUSH20 0xFFFFFFFFFFFFFFFFFFFFFFFFFFFFFFFFFFFFFFFF AND PUSH2 0x2653 SWAP1 SWAP4 SWAP3 SWAP2 SWAP1 PUSH4 0xFFFFFFFF AND JUMP JUMPDEST PUSH2 0xAB8 DUP5 DUP3 PUSH1 0x0 ADD SLOAD PUSH2 0x26DC SWAP1 SWAP2 SWAP1 PUSH4 0xFFFFFFFF AND JUMP JUMPDEST DUP2 PUSH1 0x0 ADD DUP2 SWAP1 SSTORE POP PUSH2 0xAF2 PUSH5 0xE8D4A51000 PUSH2 0xAE4 DUP5 PUSH1 0x3 ADD SLOAD DUP5 PUSH1 0x0 ADD SLOAD PUSH2 0x273A SWAP1 SWAP2 SWAP1 PUSH4 0xFFFFFFFF AND JUMP JUMPDEST PUSH2 0x27B5 SWAP1 SWAP2 SWAP1 PUSH4 0xFFFFFFFF AND JUMP JUMPDEST DUP2 PUSH1 0x1 ADD DUP2 SWAP1 SSTORE POP PUSH2 0xB2C PUSH5 0xE8D4A51000 PUSH2 0xB1E DUP5 PUSH1 0x4 ADD SLOAD DUP5 PUSH1 0x0 ADD SLOAD PUSH2 0x273A SWAP1 SWAP2 SWAP1 PUSH4 0xFFFFFFFF AND JUMP JUMPDEST PUSH2 0x27B5 SWAP1 SWAP2 SWAP1 PUSH4 0xFFFFFFFF AND JUMP JUMPDEST DUP2 PUSH1 0x2 ADD DUP2 SWAP1 SSTORE POP DUP5 CALLER PUSH20 0xFFFFFFFFFFFFFFFFFFFFFFFFFFFFFFFFFFFFFFFF AND PUSH32 0x90890809C654F11D6E72A28FA60149770A0D11EC6C92319D6CEB2BB0A4EA1A15 DUP7 PUSH1 0x40 MLOAD PUSH2 0xB7B SWAP2 SWAP1 PUSH2 0x3F01 JUMP JUMPDEST PUSH1 0x40 MLOAD DUP1 SWAP2 SUB SWAP1 LOG3 POP POP PUSH1 0x1 SLOAD DUP2 EQ PUSH2 0xBC9 JUMPI PUSH1 0x40 MLOAD PUSH32 0x8C379A000000000000000000000000000000000000000000000000000000000 DUP2 MSTORE PUSH1 0x4 ADD PUSH2 0xBC0 SWAP1 PUSH2 0x3EA1 JUMP JUMPDEST PUSH1 0x40 MLOAD DUP1 SWAP2 SUB SWAP1 REVERT JUMPDEST POP POP POP POP JUMP JUMPDEST PUSH1 0x7 DUP2 DUP2 SLOAD DUP2 LT PUSH2 0xBDF JUMPI PUSH1 0x0 DUP1 REVERT JUMPDEST SWAP1 PUSH1 0x0 MSTORE PUSH1 0x20 PUSH1 0x0 KECCAK256 SWAP1 PUSH1 0x5 MUL ADD PUSH1 0x0 SWAP2 POP SWAP1 POP DUP1 PUSH1 0x0 ADD PUSH1 0x0 SWAP1 SLOAD SWAP1 PUSH2 0x100 EXP SWAP1 DIV PUSH20 0xFFFFFFFFFFFFFFFFFFFFFFFFFFFFFFFFFFFFFFFF AND SWAP1 DUP1 PUSH1 0x1 ADD SLOAD SWAP1 DUP1 PUSH1 0x2 ADD SLOAD SWAP1 DUP1 PUSH1 0x3 ADD SLOAD SWAP1 DUP1 PUSH1 0x4 ADD SLOAD SWAP1 POP DUP6 JUMP JUMPDEST PUSH1 0x9 SLOAD DUP2 JUMP JUMPDEST PUSH1 0x6 SLOAD DUP2 JUMP JUMPDEST PUSH1 0x0 PUSH2 0xC4B PUSH2 0x241A JUMP JUMPDEST PUSH20 0xFFFFFFFFFFFFFFFFFFFFFFFFFFFFFFFFFFFFFFFF AND PUSH2 0xC69 PUSH2 0x1A15 JUMP JUMPDEST PUSH20 0xFFFFFFFFFFFFFFFFFFFFFFFFFFFFFFFFFFFFFFFF AND EQ PUSH2 0xCBF JUMPI PUSH1 0x40 MLOAD PUSH32 0x8C379A000000000000000000000000000000000000000000000000000000000 DUP2 MSTORE PUSH1 0x4 ADD PUSH2 0xCB6 SWAP1 PUSH2 0x3DA1 JUMP JUMPDEST PUSH1 0x40 MLOAD DUP1 SWAP2 SUB SWAP1 REVERT JUMPDEST DUP2 PUSH1 0xB PUSH1 0x0 DUP6 PUSH20 0xFFFFFFFFFFFFFFFFFFFFFFFFFFFFFFFFFFFFFFFF AND PUSH20 0xFFFFFFFFFFFFFFFFFFFFFFFFFFFFFFFFFFFFFFFF AND DUP2 MSTORE PUSH1 0x20 ADD SWAP1 DUP2 MSTORE PUSH1 0x20 ADD PUSH1 0x0 KECCAK256 PUSH1 0x0 PUSH2 0x100 EXP DUP2 SLOAD DUP2 PUSH1 0xFF MUL NOT AND SWAP1 DUP4 ISZERO ISZERO MUL OR SWAP1 SSTORE POP PUSH1 0x1 SWAP1 POP SWAP3 SWAP2 POP POP JUMP JUMPDEST PUSH1 0x0 DUP1 PUSH1 0x7 DUP5 DUP2 SLOAD DUP2 LT PUSH2 0xD5D JUMPI PUSH32 0x4E487B7100000000000000000000000000000000000000000000000000000000 PUSH1 0x0 MSTORE PUSH1 0x32 PUSH1 0x4 MSTORE PUSH1 0x24 PUSH1 0x0 REVERT JUMPDEST SWAP1 PUSH1 0x0 MSTORE PUSH1 0x20 PUSH1 0x0 KECCAK256 SWAP1 PUSH1 0x5 MUL ADD SWAP1 POP PUSH1 0x0 PUSH1 0x8 PUSH1 0x0 DUP7 DUP2 MSTORE PUSH1 0x20 ADD SWAP1 DUP2 MSTORE PUSH1 0x20 ADD PUSH1 0x0 KECCAK256 PUSH1 0x0 DUP6 PUSH20 0xFFFFFFFFFFFFFFFFFFFFFFFFFFFFFFFFFFFFFFFF AND PUSH20 0xFFFFFFFFFFFFFFFFFFFFFFFFFFFFFFFFFFFFFFFF AND DUP2 MSTORE PUSH1 0x20 ADD SWAP1 DUP2 MSTORE PUSH1 0x20 ADD PUSH1 0x0 KECCAK256 SWAP1 POP PUSH1 0x0 DUP3 PUSH1 0x3 ADD SLOAD SWAP1 POP PUSH1 0x0 DUP4 PUSH1 0x0 ADD PUSH1 0x0 SWAP1 SLOAD SWAP1 PUSH2 0x100 EXP SWAP1 DIV PUSH20 0xFFFFFFFFFFFFFFFFFFFFFFFFFFFFFFFFFFFFFFFF AND PUSH20 0xFFFFFFFFFFFFFFFFFFFFFFFFFFFFFFFFFFFFFFFF AND PUSH4 0x70A08231 ADDRESS PUSH1 0x40 MLOAD DUP3 PUSH4 0xFFFFFFFF AND PUSH1 0xE0 SHL DUP2 MSTORE PUSH1 0x4 ADD PUSH2 0xE29 SWAP2 SWAP1 PUSH2 0x3B36 JUMP JUMPDEST PUSH1 0x20 PUSH1 0x40 MLOAD DUP1 DUP4 SUB DUP2 DUP7 DUP1 EXTCODESIZE ISZERO DUP1 ISZERO PUSH2 0xE41 JUMPI PUSH1 0x0 DUP1 REVERT JUMPDEST POP GAS STATICCALL ISZERO DUP1 ISZERO PUSH2 0xE55 JUMPI RETURNDATASIZE PUSH1 0x0 DUP1 RETURNDATACOPY RETURNDATASIZE PUSH1 0x0 REVERT JUMPDEST POP POP POP POP PUSH1 0x40 MLOAD RETURNDATASIZE PUSH1 0x1F NOT PUSH1 0x1F DUP3 ADD AND DUP3 ADD DUP1 PUSH1 0x40 MSTORE POP DUP2 ADD SWAP1 PUSH2 0xE79 SWAP2 SWAP1 PUSH2 0x330B JUMP JUMPDEST SWAP1 POP DUP4 PUSH1 0x2 ADD SLOAD NUMBER GT DUP1 ISZERO PUSH2 0xE8F JUMPI POP PUSH1 0x0 DUP2 EQ ISZERO JUMPDEST ISZERO PUSH2 0xF2A JUMPI PUSH1 0x0 PUSH2 0xEA4 DUP6 PUSH1 0x2 ADD SLOAD NUMBER PUSH2 0x1A3E JUMP JUMPDEST SWAP1 POP PUSH1 0x0 PUSH2 0xEE7 PUSH1 0x9 SLOAD PUSH2 0xED9 DUP9 PUSH1 0x1 ADD SLOAD PUSH2 0xECB PUSH1 0x4 SLOAD DUP8 PUSH2 0x273A SWAP1 SWAP2 SWAP1 PUSH4 0xFFFFFFFF AND JUMP JUMPDEST PUSH2 0x273A SWAP1 SWAP2 SWAP1 PUSH4 0xFFFFFFFF AND JUMP JUMPDEST PUSH2 0x27B5 SWAP1 SWAP2 SWAP1 PUSH4 0xFFFFFFFF AND JUMP JUMPDEST SWAP1 POP PUSH2 0xF25 PUSH2 0xF16 DUP5 PUSH2 0xF08 PUSH5 0xE8D4A51000 DUP6 PUSH2 0x273A SWAP1 SWAP2 SWAP1 PUSH4 0xFFFFFFFF AND JUMP JUMPDEST PUSH2 0x27B5 SWAP1 SWAP2 SWAP1 PUSH4 0xFFFFFFFF AND JUMP JUMPDEST DUP6 PUSH2 0x26DC SWAP1 SWAP2 SWAP1 PUSH4 0xFFFFFFFF AND JUMP JUMPDEST SWAP4 POP POP POP JUMPDEST PUSH2 0xF6E DUP4 PUSH1 0x1 ADD SLOAD PUSH2 0xF60 PUSH5 0xE8D4A51000 PUSH2 0xF52 DUP7 DUP9 PUSH1 0x0 ADD SLOAD PUSH2 0x273A SWAP1 SWAP2 SWAP1 PUSH4 0xFFFFFFFF AND JUMP JUMPDEST PUSH2 0x27B5 SWAP1 SWAP2 SWAP1 PUSH4 0xFFFFFFFF AND JUMP JUMPDEST PUSH2 0x280D SWAP1 SWAP2 SWAP1 PUSH4 0xFFFFFFFF AND JUMP JUMPDEST SWAP5 POP POP POP POP POP SWAP3 SWAP2 POP POP JUMP JUMPDEST PUSH1 0x0 NUMBER SWAP1 POP SWAP1 JUMP JUMPDEST PUSH1 0xB PUSH1 0x0 CALLER PUSH20 0xFFFFFFFFFFFFFFFFFFFFFFFFFFFFFFFFFFFFFFFF AND PUSH20 0xFFFFFFFFFFFFFFFFFFFFFFFFFFFFFFFFFFFFFFFF AND DUP2 MSTORE PUSH1 0x20 ADD SWAP1 DUP2 MSTORE PUSH1 0x20 ADD PUSH1 0x0 KECCAK256 PUSH1 0x0 SWAP1 SLOAD SWAP1 PUSH2 0x100 EXP SWAP1 DIV PUSH1 0xFF AND PUSH2 0x100E JUMPI PUSH1 0x40 MLOAD PUSH32 0x8C379A000000000000000000000000000000000000000000000000000000000 DUP2 MSTORE PUSH1 0x4 ADD PUSH2 0x1005 SWAP1 PUSH2 0x3CA1 JUMP JUMPDEST PUSH1 0x40 MLOAD DUP1 SWAP2 SUB SWAP1 REVERT JUMPDEST DUP1 ISZERO PUSH2 0x101D JUMPI PUSH2 0x101C PUSH2 0x1703 JUMP JUMPDEST JUMPDEST PUSH2 0x108F DUP3 PUSH2 0x1081 PUSH1 0x7 DUP7 DUP2 SLOAD DUP2 LT PUSH2 0x105E JUMPI PUSH32 0x4E487B7100000000000000000000000000000000000000000000000000000000 PUSH1 0x0 MSTORE PUSH1 0x32 PUSH1 0x4 MSTORE PUSH1 0x24 PUSH1 0x0 REVERT JUMPDEST SWAP1 PUSH1 0x0 MSTORE PUSH1 0x20 PUSH1 0x0 KECCAK256 SWAP1 PUSH1 0x5 MUL ADD PUSH1 0x1 ADD SLOAD PUSH1 0x9 SLOAD PUSH2 0x280D SWAP1 SWAP2 SWAP1 PUSH4 0xFFFFFFFF AND JUMP JUMPDEST PUSH2 0x26DC SWAP1 SWAP2 SWAP1 PUSH4 0xFFFFFFFF AND JUMP JUMPDEST PUSH1 0x9 DUP2 SWAP1 SSTORE POP DUP2 PUSH1 0x7 DUP5 DUP2 SLOAD DUP2 LT PUSH2 0x10D0 JUMPI PUSH32 0x4E487B7100000000000000000000000000000000000000000000000000000000 PUSH1 0x0 MSTORE PUSH1 0x32 PUSH1 0x4 MSTORE PUSH1 0x24 PUSH1 0x0 REVERT JUMPDEST SWAP1 PUSH1 0x0 MSTORE PUSH1 0x20 PUSH1 0x0 KECCAK256 SWAP1 PUSH1 0x5 MUL ADD PUSH1 0x1 ADD DUP2 SWAP1 SSTORE POP POP POP POP JUMP JUMPDEST PUSH1 0xB PUSH1 0x20 MSTORE DUP1 PUSH1 0x0 MSTORE PUSH1 0x40 PUSH1 0x0 KECCAK256 PUSH1 0x0 SWAP2 POP SLOAD SWAP1 PUSH2 0x100 EXP SWAP1 DIV PUSH1 0xFF AND DUP2 JUMP JUMPDEST PUSH1 0xA SLOAD DUP2 JUMP JUMPDEST PUSH1 0x2 PUSH1 0x0 SWAP1 SLOAD SWAP1 PUSH2 0x100 EXP SWAP1 DIV PUSH20 0xFFFFFFFFFFFFFFFFFFFFFFFFFFFFFFFFFFFFFFFF AND DUP2 JUMP JUMPDEST PUSH1 0x0 PUSH1 0x7 DUP3 DUP2 SLOAD DUP2 LT PUSH2 0x1172 JUMPI PUSH32 0x4E487B7100000000000000000000000000000000000000000000000000000000 PUSH1 0x0 MSTORE PUSH1 0x32 PUSH1 0x4 MSTORE PUSH1 0x24 PUSH1 0x0 REVERT JUMPDEST SWAP1 PUSH1 0x0 MSTORE PUSH1 0x20 PUSH1 0x0 KECCAK256 SWAP1 PUSH1 0x5 MUL ADD SWAP1 POP DUP1 PUSH1 0x2 ADD SLOAD NUMBER GT PUSH2 0x1193 JUMPI POP PUSH2 0x159B JUMP JUMPDEST PUSH1 0x0 DUP2 PUSH1 0x0 ADD PUSH1 0x0 SWAP1 SLOAD SWAP1 PUSH2 0x100 EXP SWAP1 DIV PUSH20 0xFFFFFFFFFFFFFFFFFFFFFFFFFFFFFFFFFFFFFFFF AND PUSH20 0xFFFFFFFFFFFFFFFFFFFFFFFFFFFFFFFFFFFFFFFF AND PUSH4 0x70A08231 ADDRESS PUSH1 0x40 MLOAD DUP3 PUSH4 0xFFFFFFFF AND PUSH1 0xE0 SHL DUP2 MSTORE PUSH1 0x4 ADD PUSH2 0x11F2 SWAP2 SWAP1 PUSH2 0x3B36 JUMP JUMPDEST PUSH1 0x20 PUSH1 0x40 MLOAD DUP1 DUP4 SUB DUP2 DUP7 DUP1 EXTCODESIZE ISZERO DUP1 ISZERO PUSH2 0x120A JUMPI PUSH1 0x0 DUP1 REVERT JUMPDEST POP GAS STATICCALL ISZERO DUP1 ISZERO PUSH2 0x121E JUMPI RETURNDATASIZE PUSH1 0x0 DUP1 RETURNDATACOPY RETURNDATASIZE PUSH1 0x0 REVERT JUMPDEST POP POP POP POP PUSH1 0x40 MLOAD RETURNDATASIZE PUSH1 0x1F NOT PUSH1 0x1F DUP3 ADD AND DUP3 ADD DUP1 PUSH1 0x40 MSTORE POP DUP2 ADD SWAP1 PUSH2 0x1242 SWAP2 SWAP1 PUSH2 0x330B JUMP JUMPDEST SWAP1 POP PUSH1 0x0 DUP2 EQ ISZERO PUSH2 0x125D JUMPI NUMBER DUP3 PUSH1 0x2 ADD DUP2 SWAP1 SSTORE POP POP POP PUSH2 0x159B JUMP JUMPDEST PUSH1 0x0 PUSH2 0x126D DUP4 PUSH1 0x2 ADD SLOAD NUMBER PUSH2 0x1A3E JUMP JUMPDEST SWAP1 POP PUSH1 0x0 PUSH2 0x12B0 PUSH1 0x9 SLOAD PUSH2 0x12A2 DUP7 PUSH1 0x1 ADD SLOAD PUSH2 0x1294 PUSH1 0x4 SLOAD DUP8 PUSH2 0x273A SWAP1 SWAP2 SWAP1 PUSH4 0xFFFFFFFF AND JUMP JUMPDEST PUSH2 0x273A SWAP1 SWAP2 SWAP1 PUSH4 0xFFFFFFFF AND JUMP JUMPDEST PUSH2 0x27B5 SWAP1 SWAP2 SWAP1 PUSH4 0xFFFFFFFF AND JUMP JUMPDEST SWAP1 POP PUSH1 0x2 PUSH1 0x0 SWAP1 SLOAD SWAP1 PUSH2 0x100 EXP SWAP1 DIV PUSH20 0xFFFFFFFFFFFFFFFFFFFFFFFFFFFFFFFFFFFFFFFF AND PUSH20 0xFFFFFFFFFFFFFFFFFFFFFFFFFFFFFFFFFFFFFFFF AND PUSH4 0x40C10F19 PUSH1 0x3 PUSH1 0x0 SWAP1 SLOAD SWAP1 PUSH2 0x100 EXP SWAP1 DIV PUSH20 0xFFFFFFFFFFFFFFFFFFFFFFFFFFFFFFFFFFFFFFFF AND PUSH2 0x133A PUSH1 0x64 PUSH2 0x132C PUSH1 0x14 DUP8 PUSH2 0x273A SWAP1 SWAP2 SWAP1 PUSH4 0xFFFFFFFF AND JUMP JUMPDEST PUSH2 0x27B5 SWAP1 SWAP2 SWAP1 PUSH4 0xFFFFFFFF AND JUMP JUMPDEST PUSH1 0x40 MLOAD DUP4 PUSH4 0xFFFFFFFF AND PUSH1 0xE0 SHL DUP2 MSTORE PUSH1 0x4 ADD PUSH2 0x1357 SWAP3 SWAP2 SWAP1 PUSH2 0x3B88 JUMP JUMPDEST PUSH1 0x20 PUSH1 0x40 MLOAD DUP1 DUP4 SUB DUP2 PUSH1 0x0 DUP8 DUP1 EXTCODESIZE ISZERO DUP1 ISZERO PUSH2 0x1371 JUMPI PUSH1 0x0 DUP1 REVERT JUMPDEST POP GAS CALL ISZERO DUP1 ISZERO PUSH2 0x1385 JUMPI RETURNDATASIZE PUSH1 0x0 DUP1 RETURNDATACOPY RETURNDATASIZE PUSH1 0x0 REVERT JUMPDEST POP POP POP POP PUSH1 0x40 MLOAD RETURNDATASIZE PUSH1 0x1F NOT PUSH1 0x1F DUP3 ADD AND DUP3 ADD DUP1 PUSH1 0x40 MSTORE POP DUP2 ADD SWAP1 PUSH2 0x13A9 SWAP2 SWAP1 PUSH2 0x32B9 JUMP JUMPDEST POP PUSH1 0x2 PUSH1 0x0 SWAP1 SLOAD SWAP1 PUSH2 0x100 EXP SWAP1 DIV PUSH20 0xFFFFFFFFFFFFFFFFFFFFFFFFFFFFFFFFFFFFFFFF AND PUSH20 0xFFFFFFFFFFFFFFFFFFFFFFFFFFFFFFFFFFFFFFFF AND PUSH4 0x40C10F19 ADDRESS DUP4 PUSH1 0x40 MLOAD DUP4 PUSH4 0xFFFFFFFF AND PUSH1 0xE0 SHL DUP2 MSTORE PUSH1 0x4 ADD PUSH2 0x1407 SWAP3 SWAP2 SWAP1 PUSH2 0x3B88 JUMP JUMPDEST PUSH1 0x20 PUSH1 0x40 MLOAD DUP1 DUP4 SUB DUP2 PUSH1 0x0 DUP8 DUP1 EXTCODESIZE ISZERO DUP1 ISZERO PUSH2 0x1421 JUMPI PUSH1 0x0 DUP1 REVERT JUMPDEST POP GAS CALL ISZERO DUP1 ISZERO PUSH2 0x1435 JUMPI RETURNDATASIZE PUSH1 0x0 DUP1 RETURNDATACOPY RETURNDATASIZE PUSH1 0x0 REVERT JUMPDEST POP POP POP POP PUSH1 0x40 MLOAD RETURNDATASIZE PUSH1 0x1F NOT PUSH1 0x1F DUP3 ADD AND DUP3 ADD DUP1 PUSH1 0x40 MSTORE POP DUP2 ADD SWAP1 PUSH2 0x1459 SWAP2 SWAP1 PUSH2 0x32B9 JUMP JUMPDEST POP PUSH2 0x149A PUSH2 0x1487 DUP5 PUSH2 0x1479 PUSH5 0xE8D4A51000 DUP6 PUSH2 0x273A SWAP1 SWAP2 SWAP1 PUSH4 0xFFFFFFFF AND JUMP JUMPDEST PUSH2 0x27B5 SWAP1 SWAP2 SWAP1 PUSH4 0xFFFFFFFF AND JUMP JUMPDEST DUP6 PUSH1 0x3 ADD SLOAD PUSH2 0x26DC SWAP1 SWAP2 SWAP1 PUSH4 0xFFFFFFFF AND JUMP JUMPDEST DUP5 PUSH1 0x3 ADD DUP2 SWAP1 SSTORE POP PUSH1 0x6 SLOAD NUMBER GT PUSH2 0x14B9 JUMPI DUP4 PUSH1 0x3 ADD SLOAD DUP5 PUSH1 0x4 ADD DUP2 SWAP1 SSTORE POP JUMPDEST PUSH1 0x6 SLOAD NUMBER GT DUP1 ISZERO PUSH2 0x14CF JUMPI POP PUSH1 0x6 SLOAD DUP5 PUSH1 0x2 ADD SLOAD LT JUMPDEST ISZERO PUSH2 0x158D JUMPI PUSH1 0x0 PUSH2 0x1541 PUSH1 0x9 SLOAD PUSH2 0x1533 DUP8 PUSH1 0x1 ADD SLOAD PUSH2 0x1525 PUSH1 0x4 SLOAD PUSH2 0x1517 PUSH1 0x5 SLOAD PUSH2 0x1509 DUP14 PUSH1 0x2 ADD SLOAD PUSH1 0x6 SLOAD PUSH2 0x280D SWAP1 SWAP2 SWAP1 PUSH4 0xFFFFFFFF AND JUMP JUMPDEST PUSH2 0x273A SWAP1 SWAP2 SWAP1 PUSH4 0xFFFFFFFF AND JUMP JUMPDEST PUSH2 0x273A SWAP1 SWAP2 SWAP1 PUSH4 0xFFFFFFFF AND JUMP JUMPDEST PUSH2 0x273A SWAP1 SWAP2 SWAP1 PUSH4 0xFFFFFFFF AND JUMP JUMPDEST PUSH2 0x27B5 SWAP1 SWAP2 SWAP1 PUSH4 0xFFFFFFFF AND JUMP JUMPDEST SWAP1 POP PUSH2 0x1583 PUSH2 0x1570 DUP6 PUSH2 0x1562 PUSH5 0xE8D4A51000 DUP6 PUSH2 0x273A SWAP1 SWAP2 SWAP1 PUSH4 0xFFFFFFFF AND JUMP JUMPDEST PUSH2 0x27B5 SWAP1 SWAP2 SWAP1 PUSH4 0xFFFFFFFF AND JUMP JUMPDEST DUP7 PUSH1 0x4 ADD SLOAD PUSH2 0x26DC SWAP1 SWAP2 SWAP1 PUSH4 0xFFFFFFFF AND JUMP JUMPDEST DUP6 PUSH1 0x4 ADD DUP2 SWAP1 SSTORE POP POP JUMPDEST NUMBER DUP5 PUSH1 0x2 ADD DUP2 SWAP1 SSTORE POP POP POP POP POP JUMPDEST POP JUMP JUMPDEST PUSH1 0x0 PUSH1 0x7 DUP3 DUP2 SLOAD DUP2 LT PUSH2 0x15DA JUMPI PUSH32 0x4E487B7100000000000000000000000000000000000000000000000000000000 PUSH1 0x0 MSTORE PUSH1 0x32 PUSH1 0x4 MSTORE PUSH1 0x24 PUSH1 0x0 REVERT JUMPDEST SWAP1 PUSH1 0x0 MSTORE PUSH1 0x20 PUSH1 0x0 KECCAK256 SWAP1 PUSH1 0x5 MUL ADD SWAP1 POP PUSH1 0x0 PUSH1 0x8 PUSH1 0x0 DUP5 DUP2 MSTORE PUSH1 0x20 ADD SWAP1 DUP2 MSTORE PUSH1 0x20 ADD PUSH1 0x0 KECCAK256 PUSH1 0x0 CALLER PUSH20 0xFFFFFFFFFFFFFFFFFFFFFFFFFFFFFFFFFFFFFFFF AND PUSH20 0xFFFFFFFFFFFFFFFFFFFFFFFFFFFFFFFFFFFFFFFF AND DUP2 MSTORE PUSH1 0x20 ADD SWAP1 DUP2 MSTORE PUSH1 0x20 ADD PUSH1 0x0 KECCAK256 SWAP1 POP PUSH1 0x0 DUP2 PUSH1 0x0 ADD SLOAD SWAP1 POP PUSH1 0x0 DUP3 PUSH1 0x0 ADD DUP2 SWAP1 SSTORE POP PUSH1 0x0 DUP3 PUSH1 0x1 ADD DUP2 SWAP1 SSTORE POP PUSH2 0x16AA CALLER DUP3 DUP6 PUSH1 0x0 ADD PUSH1 0x0 SWAP1 SLOAD SWAP1 PUSH2 0x100 EXP SWAP1 DIV PUSH20 0xFFFFFFFFFFFFFFFFFFFFFFFFFFFFFFFFFFFFFFFF AND PUSH20 0xFFFFFFFFFFFFFFFFFFFFFFFFFFFFFFFFFFFFFFFF AND PUSH2 0x2866 SWAP1 SWAP3 SWAP2 SWAP1 PUSH4 0xFFFFFFFF AND JUMP JUMPDEST DUP4 CALLER PUSH20 0xFFFFFFFFFFFFFFFFFFFFFFFFFFFFFFFFFFFFFFFF AND PUSH32 0xBB757047C2B5F3974FE26B7C10F732E7BCE710B0952A71082702781E62AE0595 DUP5 PUSH1 0x0 ADD SLOAD PUSH1 0x40 MLOAD PUSH2 0x16F5 SWAP2 SWAP1 PUSH2 0x3F01 JUMP JUMPDEST PUSH1 0x40 MLOAD DUP1 SWAP2 SUB SWAP1 LOG3 POP POP POP POP JUMP JUMPDEST PUSH1 0x0 PUSH1 0x7 DUP1 SLOAD SWAP1 POP SWAP1 POP PUSH1 0x0 JUMPDEST DUP2 DUP2 LT ISZERO PUSH2 0x1732 JUMPI PUSH2 0x1721 DUP2 PUSH2 0x1136 JUMP JUMPDEST DUP1 PUSH2 0x172B SWAP1 PUSH2 0x4123 JUMP JUMPDEST SWAP1 POP PUSH2 0x1710 JUMP JUMPDEST POP POP JUMP JUMPDEST PUSH2 0x173E PUSH2 0x241A JUMP JUMPDEST PUSH20 0xFFFFFFFFFFFFFFFFFFFFFFFFFFFFFFFFFFFFFFFF AND PUSH2 0x175C PUSH2 0x1A15 JUMP JUMPDEST PUSH20 0xFFFFFFFFFFFFFFFFFFFFFFFFFFFFFFFFFFFFFFFF AND EQ PUSH2 0x17B2 JUMPI PUSH1 0x40 MLOAD PUSH32 0x8C379A000000000000000000000000000000000000000000000000000000000 DUP2 MSTORE PUSH1 0x4 ADD PUSH2 0x17A9 SWAP1 PUSH2 0x3DA1 JUMP JUMPDEST PUSH1 0x40 MLOAD DUP1 SWAP2 SUB SWAP1 REVERT JUMPDEST PUSH2 0x17BC PUSH1 0x0 PUSH2 0x28EC JUMP JUMPDEST JUMP JUMPDEST PUSH2 0x17C6 PUSH2 0x241A JUMP JUMPDEST PUSH20 0xFFFFFFFFFFFFFFFFFFFFFFFFFFFFFFFFFFFFFFFF AND PUSH2 0x17E4 PUSH2 0x1A15 JUMP JUMPDEST PUSH20 0xFFFFFFFFFFFFFFFFFFFFFFFFFFFFFFFFFFFFFFFF AND EQ PUSH2 0x183A JUMPI PUSH1 0x40 MLOAD PUSH32 0x8C379A000000000000000000000000000000000000000000000000000000000 DUP2 MSTORE PUSH1 0x4 ADD PUSH2 0x1831 SWAP1 PUSH2 0x3DA1 JUMP JUMPDEST PUSH1 0x40 MLOAD DUP1 SWAP2 SUB SWAP1 REVERT JUMPDEST DUP1 ISZERO PUSH2 0x1849 JUMPI PUSH2 0x1848 PUSH2 0x1703 JUMP JUMPDEST JUMPDEST PUSH1 0x0 PUSH20 0xFFFFFFFFFFFFFFFFFFFFFFFFFFFFFFFFFFFFFFFF AND DUP3 PUSH20 0xFFFFFFFFFFFFFFFFFFFFFFFFFFFFFFFFFFFFFFFF AND EQ ISZERO PUSH2 0x18B9 JUMPI PUSH1 0x40 MLOAD PUSH32 0x8C379A000000000000000000000000000000000000000000000000000000000 DUP2 MSTORE PUSH1 0x4 ADD PUSH2 0x18B0 SWAP1 PUSH2 0x3CE1 JUMP JUMPDEST PUSH1 0x40 MLOAD DUP1 SWAP2 SUB SWAP1 REVERT JUMPDEST PUSH2 0x18C2 DUP3 PUSH2 0x1C4B JUMP JUMPDEST ISZERO PUSH2 0x1902 JUMPI PUSH1 0x40 MLOAD PUSH32 0x8C379A000000000000000000000000000000000000000000000000000000000 DUP2 MSTORE PUSH1 0x4 ADD PUSH2 0x18F9 SWAP1 PUSH2 0x3EE1 JUMP JUMPDEST PUSH1 0x40 MLOAD DUP1 SWAP2 SUB SWAP1 REVERT JUMPDEST PUSH1 0x0 PUSH1 0xA SLOAD NUMBER GT PUSH2 0x1915 JUMPI PUSH1 0xA SLOAD PUSH2 0x1917 JUMP JUMPDEST NUMBER JUMPDEST SWAP1 POP PUSH2 0x192E DUP5 PUSH1 0x9 SLOAD PUSH2 0x26DC SWAP1 SWAP2 SWAP1 PUSH4 0xFFFFFFFF AND JUMP JUMPDEST PUSH1 0x9 DUP2 SWAP1 SSTORE POP PUSH1 0x7 PUSH1 0x40 MLOAD DUP1 PUSH1 0xA0 ADD PUSH1 0x40 MSTORE DUP1 DUP6 PUSH20 0xFFFFFFFFFFFFFFFFFFFFFFFFFFFFFFFFFFFFFFFF AND DUP2 MSTORE PUSH1 0x20 ADD DUP7 DUP2 MSTORE PUSH1 0x20 ADD DUP4 DUP2 MSTORE PUSH1 0x20 ADD PUSH1 0x0 DUP2 MSTORE PUSH1 0x20 ADD PUSH1 0x0 DUP2 MSTORE POP SWAP1 DUP1 PUSH1 0x1 DUP2 SLOAD ADD DUP1 DUP3 SSTORE DUP1 SWAP2 POP POP PUSH1 0x1 SWAP1 SUB SWAP1 PUSH1 0x0 MSTORE PUSH1 0x20 PUSH1 0x0 KECCAK256 SWAP1 PUSH1 0x5 MUL ADD PUSH1 0x0 SWAP1 SWAP2 SWAP1 SWAP2 SWAP1 SWAP2 POP PUSH1 0x0 DUP3 ADD MLOAD DUP2 PUSH1 0x0 ADD PUSH1 0x0 PUSH2 0x100 EXP DUP2 SLOAD DUP2 PUSH20 0xFFFFFFFFFFFFFFFFFFFFFFFFFFFFFFFFFFFFFFFF MUL NOT AND SWAP1 DUP4 PUSH20 0xFFFFFFFFFFFFFFFFFFFFFFFFFFFFFFFFFFFFFFFF AND MUL OR SWAP1 SSTORE POP PUSH1 0x20 DUP3 ADD MLOAD DUP2 PUSH1 0x1 ADD SSTORE PUSH1 0x40 DUP3 ADD MLOAD DUP2 PUSH1 0x2 ADD SSTORE PUSH1 0x60 DUP3 ADD MLOAD DUP2 PUSH1 0x3 ADD SSTORE PUSH1 0x80 DUP3 ADD MLOAD DUP2 PUSH1 0x4 ADD SSTORE POP POP POP POP POP POP JUMP JUMPDEST PUSH1 0x0 DUP1 PUSH1 0x0 SWAP1 SLOAD SWAP1 PUSH2 0x100 EXP SWAP1 DIV PUSH20 0xFFFFFFFFFFFFFFFFFFFFFFFFFFFFFFFFFFFFFFFF AND SWAP1 POP SWAP1 JUMP JUMPDEST PUSH1 0x0 DUP2 DUP4 GT ISZERO PUSH2 0x1A83 JUMPI PUSH1 0x40 MLOAD PUSH32 0x8C379A000000000000000000000000000000000000000000000000000000000 DUP2 MSTORE PUSH1 0x4 ADD PUSH2 0x1A7A SWAP1 PUSH2 0x3DE1 JUMP JUMPDEST PUSH1 0x40 MLOAD DUP1 SWAP2 SUB SWAP1 REVERT JUMPDEST PUSH1 0x6 SLOAD DUP3 GT PUSH2 0x1ABA JUMPI PUSH2 0x1AB3 PUSH1 0x5 SLOAD PUSH2 0x1AA5 DUP6 DUP6 PUSH2 0x280D SWAP1 SWAP2 SWAP1 PUSH4 0xFFFFFFFF AND JUMP JUMPDEST PUSH2 0x273A SWAP1 SWAP2 SWAP1 PUSH4 0xFFFFFFFF AND JUMP JUMPDEST SWAP1 POP PUSH2 0x1B2F JUMP JUMPDEST PUSH1 0x6 SLOAD DUP4 LT PUSH2 0x1ADD JUMPI PUSH2 0x1AD6 DUP4 DUP4 PUSH2 0x280D SWAP1 SWAP2 SWAP1 PUSH4 0xFFFFFFFF AND JUMP JUMPDEST SWAP1 POP PUSH2 0x1B2F JUMP JUMPDEST PUSH2 0x1B2C PUSH2 0x1AF5 PUSH1 0x6 SLOAD DUP5 PUSH2 0x280D SWAP1 SWAP2 SWAP1 PUSH4 0xFFFFFFFF AND JUMP JUMPDEST PUSH2 0x1B1E PUSH1 0x5 SLOAD PUSH2 0x1B10 DUP8 PUSH1 0x6 SLOAD PUSH2 0x280D SWAP1 SWAP2 SWAP1 PUSH4 0xFFFFFFFF AND JUMP JUMPDEST PUSH2 0x273A SWAP1 SWAP2 SWAP1 PUSH4 0xFFFFFFFF AND JUMP JUMPDEST PUSH2 0x26DC SWAP1 SWAP2 SWAP1 PUSH4 0xFFFFFFFF AND JUMP JUMPDEST SWAP1 POP JUMPDEST SWAP3 SWAP2 POP POP JUMP JUMPDEST PUSH1 0x0 PUSH2 0x1B3F PUSH2 0x241A JUMP JUMPDEST PUSH20 0xFFFFFFFFFFFFFFFFFFFFFFFFFFFFFFFFFFFFFFFF AND PUSH2 0x1B5D PUSH2 0x1A15 JUMP JUMPDEST PUSH20 0xFFFFFFFFFFFFFFFFFFFFFFFFFFFFFFFFFFFFFFFF AND EQ PUSH2 0x1BB3 JUMPI PUSH1 0x40 MLOAD PUSH32 0x8C379A000000000000000000000000000000000000000000000000000000000 DUP2 MSTORE PUSH1 0x4 ADD PUSH2 0x1BAA SWAP1 PUSH2 0x3DA1 JUMP JUMPDEST PUSH1 0x40 MLOAD DUP1 SWAP2 SUB SWAP1 REVERT JUMPDEST PUSH2 0x1BDE CALLER DUP4 DUP6 PUSH20 0xFFFFFFFFFFFFFFFFFFFFFFFFFFFFFFFFFFFFFFFF AND PUSH2 0x2866 SWAP1 SWAP3 SWAP2 SWAP1 PUSH4 0xFFFFFFFF AND JUMP JUMPDEST PUSH1 0x1 SWAP1 POP SWAP3 SWAP2 POP POP JUMP JUMPDEST PUSH1 0x8 PUSH1 0x20 MSTORE DUP2 PUSH1 0x0 MSTORE PUSH1 0x40 PUSH1 0x0 KECCAK256 PUSH1 0x20 MSTORE DUP1 PUSH1 0x0 MSTORE PUSH1 0x40 PUSH1 0x0 KECCAK256 PUSH1 0x0 SWAP2 POP SWAP2 POP POP DUP1 PUSH1 0x0 ADD SLOAD SWAP1 DUP1 PUSH1 0x1 ADD SLOAD SWAP1 DUP1 PUSH1 0x2 ADD SLOAD SWAP1 DUP1 PUSH1 0x3 ADD PUSH1 0x0 SWAP1 SLOAD SWAP1 PUSH2 0x100 EXP SWAP1 DIV PUSH20 0xFFFFFFFFFFFFFFFFFFFFFFFFFFFFFFFFFFFFFFFF AND SWAP1 POP DUP5 JUMP JUMPDEST PUSH1 0x5 SLOAD DUP2 JUMP JUMPDEST PUSH1 0x0 DUP1 PUSH1 0x7 DUP1 SLOAD SWAP1 POP SWAP1 POP PUSH1 0x0 JUMPDEST DUP2 DUP2 LT ISZERO PUSH2 0x1D1E JUMPI DUP4 PUSH20 0xFFFFFFFFFFFFFFFFFFFFFFFFFFFFFFFFFFFFFFFF AND PUSH1 0x7 DUP3 DUP2 SLOAD DUP2 LT PUSH2 0x1CB2 JUMPI PUSH32 0x4E487B7100000000000000000000000000000000000000000000000000000000 PUSH1 0x0 MSTORE PUSH1 0x32 PUSH1 0x4 MSTORE PUSH1 0x24 PUSH1 0x0 REVERT JUMPDEST SWAP1 PUSH1 0x0 MSTORE PUSH1 0x20 PUSH1 0x0 KECCAK256 SWAP1 PUSH1 0x5 MUL ADD PUSH1 0x0 ADD PUSH1 0x0 SWAP1 SLOAD SWAP1 PUSH2 0x100 EXP SWAP1 DIV PUSH20 0xFFFFFFFFFFFFFFFFFFFFFFFFFFFFFFFFFFFFFFFF AND PUSH20 0xFFFFFFFFFFFFFFFFFFFFFFFFFFFFFFFFFFFFFFFF AND EQ ISZERO PUSH2 0x1D0B JUMPI PUSH1 0x1 SWAP3 POP POP POP PUSH2 0x1D25 JUMP JUMPDEST DUP1 DUP1 PUSH2 0x1D16 SWAP1 PUSH2 0x4123 JUMP JUMPDEST SWAP2 POP POP PUSH2 0x1C59 JUMP JUMPDEST POP PUSH1 0x0 SWAP2 POP POP JUMPDEST SWAP2 SWAP1 POP JUMP JUMPDEST PUSH1 0x1 DUP1 PUSH1 0x0 DUP3 DUP3 SLOAD PUSH2 0x1D3C SWAP2 SWAP1 PUSH2 0x3F93 JUMP JUMPDEST SWAP3 POP POP DUP2 SWAP1 SSTORE POP PUSH1 0x0 PUSH1 0x1 SLOAD SWAP1 POP PUSH2 0x1D55 DUP5 DUP5 DUP5 PUSH2 0x29B0 JUMP JUMPDEST PUSH1 0x1 SLOAD DUP2 EQ PUSH2 0x1D99 JUMPI PUSH1 0x40 MLOAD PUSH32 0x8C379A000000000000000000000000000000000000000000000000000000000 DUP2 MSTORE PUSH1 0x4 ADD PUSH2 0x1D90 SWAP1 PUSH2 0x3EA1 JUMP JUMPDEST PUSH1 0x40 MLOAD DUP1 SWAP2 SUB SWAP1 REVERT JUMPDEST POP POP POP POP JUMP JUMPDEST PUSH1 0x1 DUP1 PUSH1 0x0 DUP3 DUP3 SLOAD PUSH2 0x1DB1 SWAP2 SWAP1 PUSH2 0x3F93 JUMP JUMPDEST SWAP3 POP POP DUP2 SWAP1 SSTORE POP PUSH1 0x0 PUSH1 0x1 SLOAD SWAP1 POP PUSH2 0x1E1D DUP4 DUP4 PUSH1 0x8 PUSH1 0x0 DUP7 DUP2 MSTORE PUSH1 0x20 ADD SWAP1 DUP2 MSTORE PUSH1 0x20 ADD PUSH1 0x0 KECCAK256 PUSH1 0x0 DUP8 PUSH20 0xFFFFFFFFFFFFFFFFFFFFFFFFFFFFFFFFFFFFFFFF AND PUSH20 0xFFFFFFFFFFFFFFFFFFFFFFFFFFFFFFFFFFFFFFFF AND DUP2 MSTORE PUSH1 0x20 ADD SWAP1 DUP2 MSTORE PUSH1 0x20 ADD PUSH1 0x0 KECCAK256 PUSH1 0x0 ADD SLOAD PUSH2 0x29B0 JUMP JUMPDEST PUSH1 0x1 SLOAD DUP2 EQ PUSH2 0x1E61 JUMPI PUSH1 0x40 MLOAD PUSH32 0x8C379A000000000000000000000000000000000000000000000000000000000 DUP2 MSTORE PUSH1 0x4 ADD PUSH2 0x1E58 SWAP1 PUSH2 0x3EA1 JUMP JUMPDEST PUSH1 0x40 MLOAD DUP1 SWAP2 SUB SWAP1 REVERT JUMPDEST POP POP POP JUMP JUMPDEST PUSH2 0x1E6E PUSH2 0x241A JUMP JUMPDEST PUSH20 0xFFFFFFFFFFFFFFFFFFFFFFFFFFFFFFFFFFFFFFFF AND PUSH2 0x1E8C PUSH2 0x1A15 JUMP JUMPDEST PUSH20 0xFFFFFFFFFFFFFFFFFFFFFFFFFFFFFFFFFFFFFFFF AND EQ PUSH2 0x1EE2 JUMPI PUSH1 0x40 MLOAD PUSH32 0x8C379A000000000000000000000000000000000000000000000000000000000 DUP2 MSTORE PUSH1 0x4 ADD PUSH2 0x1ED9 SWAP1 PUSH2 0x3DA1 JUMP JUMPDEST PUSH1 0x40 MLOAD DUP1 SWAP2 SUB SWAP1 REVERT JUMPDEST PUSH1 0x0 PUSH20 0xFFFFFFFFFFFFFFFFFFFFFFFFFFFFFFFFFFFFFFFF AND DUP2 PUSH20 0xFFFFFFFFFFFFFFFFFFFFFFFFFFFFFFFFFFFFFFFF AND EQ ISZERO PUSH2 0x1F1C JUMPI PUSH1 0x0 DUP1 REVERT JUMPDEST DUP1 PUSH1 0x3 PUSH1 0x0 PUSH2 0x100 EXP DUP2 SLOAD DUP2 PUSH20 0xFFFFFFFFFFFFFFFFFFFFFFFFFFFFFFFFFFFFFFFF MUL NOT AND SWAP1 DUP4 PUSH20 0xFFFFFFFFFFFFFFFFFFFFFFFFFFFFFFFFFFFFFFFF AND MUL OR SWAP1 SSTORE POP DUP1 PUSH20 0xFFFFFFFFFFFFFFFFFFFFFFFFFFFFFFFFFFFFFFFF AND PUSH32 0xF5721DFA6DDBF8E4A2CD38B2152FFF4008050B9B37DE59AE1E022DDE4BD5DF73 PUSH1 0x40 MLOAD PUSH1 0x40 MLOAD DUP1 SWAP2 SUB SWAP1 LOG2 POP JUMP JUMPDEST PUSH1 0x3 PUSH1 0x0 SWAP1 SLOAD SWAP1 PUSH2 0x100 EXP SWAP1 DIV PUSH20 0xFFFFFFFFFFFFFFFFFFFFFFFFFFFFFFFFFFFFFFFF AND DUP2 JUMP JUMPDEST PUSH2 0x1FD1 PUSH2 0x241A JUMP JUMPDEST PUSH20 0xFFFFFFFFFFFFFFFFFFFFFFFFFFFFFFFFFFFFFFFF AND PUSH2 0x1FEF PUSH2 0x1A15 JUMP JUMPDEST PUSH20 0xFFFFFFFFFFFFFFFFFFFFFFFFFFFFFFFFFFFFFFFF AND EQ PUSH2 0x2045 JUMPI PUSH1 0x40 MLOAD PUSH32 0x8C379A000000000000000000000000000000000000000000000000000000000 DUP2 MSTORE PUSH1 0x4 ADD PUSH2 0x203C SWAP1 PUSH2 0x3DA1 JUMP JUMPDEST PUSH1 0x40 MLOAD DUP1 SWAP2 SUB SWAP1 REVERT JUMPDEST DUP1 PUSH1 0x4 DUP2 SWAP1 SSTORE POP DUP1 PUSH32 0x45C280C0EE21A223BF57BA9B47035CDA586D0472889FCF81D6ECF95A72FBF64 PUSH1 0x40 MLOAD PUSH1 0x40 MLOAD DUP1 SWAP2 SUB SWAP1 LOG2 POP JUMP JUMPDEST PUSH1 0x0 PUSH1 0x7 DUP3 DUP2 SLOAD DUP2 LT PUSH2 0x20B8 JUMPI PUSH32 0x4E487B7100000000000000000000000000000000000000000000000000000000 PUSH1 0x0 MSTORE PUSH1 0x32 PUSH1 0x4 MSTORE PUSH1 0x24 PUSH1 0x0 REVERT JUMPDEST SWAP1 PUSH1 0x0 MSTORE PUSH1 0x20 PUSH1 0x0 KECCAK256 SWAP1 PUSH1 0x5 MUL ADD SWAP1 POP PUSH1 0x0 PUSH1 0x8 PUSH1 0x0 DUP5 DUP2 MSTORE PUSH1 0x20 ADD SWAP1 DUP2 MSTORE PUSH1 0x20 ADD PUSH1 0x0 KECCAK256 PUSH1 0x0 CALLER PUSH20 0xFFFFFFFFFFFFFFFFFFFFFFFFFFFFFFFFFFFFFFFF AND PUSH20 0xFFFFFFFFFFFFFFFFFFFFFFFFFFFFFFFFFFFFFFFF AND DUP2 MSTORE PUSH1 0x20 ADD SWAP1 DUP2 MSTORE PUSH1 0x20 ADD PUSH1 0x0 KECCAK256 SWAP1 POP PUSH2 0x2125 DUP4 PUSH2 0x1136 JUMP JUMPDEST PUSH2 0x212F CALLER DUP5 PUSH2 0x2422 JUMP JUMPDEST PUSH2 0x2161 PUSH5 0xE8D4A51000 PUSH2 0x2153 DUP5 PUSH1 0x3 ADD SLOAD DUP5 PUSH1 0x0 ADD SLOAD PUSH2 0x273A SWAP1 SWAP2 SWAP1 PUSH4 0xFFFFFFFF AND JUMP JUMPDEST PUSH2 0x27B5 SWAP1 SWAP2 SWAP1 PUSH4 0xFFFFFFFF AND JUMP JUMPDEST DUP2 PUSH1 0x1 ADD DUP2 SWAP1 SSTORE POP PUSH2 0x219B PUSH5 0xE8D4A51000 PUSH2 0x218D DUP5 PUSH1 0x4 ADD SLOAD DUP5 PUSH1 0x0 ADD SLOAD PUSH2 0x273A SWAP1 SWAP2 SWAP1 PUSH4 0xFFFFFFFF AND JUMP JUMPDEST PUSH2 0x27B5 SWAP1 SWAP2 SWAP1 PUSH4 0xFFFFFFFF AND JUMP JUMPDEST DUP2 PUSH1 0x2 ADD DUP2 SWAP1 SSTORE POP POP POP POP JUMP JUMPDEST PUSH2 0x21B0 PUSH2 0x241A JUMP JUMPDEST PUSH20 0xFFFFFFFFFFFFFFFFFFFFFFFFFFFFFFFFFFFFFFFF AND PUSH2 0x21CE PUSH2 0x1A15 JUMP JUMPDEST PUSH20 0xFFFFFFFFFFFFFFFFFFFFFFFFFFFFFFFFFFFFFFFF AND EQ PUSH2 0x2224 JUMPI PUSH1 0x40 MLOAD PUSH32 0x8C379A000000000000000000000000000000000000000000000000000000000 DUP2 MSTORE PUSH1 0x4 ADD PUSH2 0x221B SWAP1 PUSH2 0x3DA1 JUMP JUMPDEST PUSH1 0x40 MLOAD DUP1 SWAP2 SUB SWAP1 REVERT JUMPDEST PUSH1 0x2 PUSH1 0x0 SWAP1 SLOAD SWAP1 PUSH2 0x100 EXP SWAP1 DIV PUSH20 0xFFFFFFFFFFFFFFFFFFFFFFFFFFFFFFFFFFFFFFFF AND PUSH20 0xFFFFFFFFFFFFFFFFFFFFFFFFFFFFFFFFFFFFFFFF AND PUSH4 0x40C10F19 DUP4 DUP4 PUSH1 0x40 MLOAD DUP4 PUSH4 0xFFFFFFFF AND PUSH1 0xE0 SHL DUP2 MSTORE PUSH1 0x4 ADD PUSH2 0x2281 SWAP3 SWAP2 SWAP1 PUSH2 0x3B88 JUMP JUMPDEST PUSH1 0x20 PUSH1 0x40 MLOAD DUP1 DUP4 SUB DUP2 PUSH1 0x0 DUP8 DUP1 EXTCODESIZE ISZERO DUP1 ISZERO PUSH2 0x229B JUMPI PUSH1 0x0 DUP1 REVERT JUMPDEST POP GAS CALL ISZERO DUP1 ISZERO PUSH2 0x22AF JUMPI RETURNDATASIZE PUSH1 0x0 DUP1 RETURNDATACOPY RETURNDATASIZE PUSH1 0x0 REVERT JUMPDEST POP POP POP POP PUSH1 0x40 MLOAD RETURNDATASIZE PUSH1 0x1F NOT PUSH1 0x1F DUP3 ADD AND DUP3 ADD DUP1 PUSH1 0x40 MSTORE POP DUP2 ADD SWAP1 PUSH2 0x22D3 SWAP2 SWAP1 PUSH2 0x32B9 JUMP JUMPDEST POP DUP1 DUP3 PUSH20 0xFFFFFFFFFFFFFFFFFFFFFFFFFFFFFFFFFFFFFFFF AND PUSH32 0x5A513126CBC10DDE78A9844543BD609B2C5B0F4169CECB81F0378F00FA2BDBF0 PUSH1 0x40 MLOAD PUSH1 0x40 MLOAD DUP1 SWAP2 SUB SWAP1 LOG3 POP POP JUMP JUMPDEST PUSH1 0x4 SLOAD DUP2 JUMP JUMPDEST PUSH2 0x232A PUSH2 0x241A JUMP JUMPDEST PUSH20 0xFFFFFFFFFFFFFFFFFFFFFFFFFFFFFFFFFFFFFFFF AND PUSH2 0x2348 PUSH2 0x1A15 JUMP JUMPDEST PUSH20 0xFFFFFFFFFFFFFFFFFFFFFFFFFFFFFFFFFFFFFFFF AND EQ PUSH2 0x239E JUMPI PUSH1 0x40 MLOAD PUSH32 0x8C379A000000000000000000000000000000000000000000000000000000000 DUP2 MSTORE PUSH1 0x4 ADD PUSH2 0x2395 SWAP1 PUSH2 0x3DA1 JUMP JUMPDEST PUSH1 0x40 MLOAD DUP1 SWAP2 SUB SWAP1 REVERT JUMPDEST PUSH1 0x0 PUSH20 0xFFFFFFFFFFFFFFFFFFFFFFFFFFFFFFFFFFFFFFFF AND DUP2 PUSH20 0xFFFFFFFFFFFFFFFFFFFFFFFFFFFFFFFFFFFFFFFF AND EQ ISZERO PUSH2 0x240E JUMPI PUSH1 0x40 MLOAD PUSH32 0x8C379A000000000000000000000000000000000000000000000000000000000 DUP2 MSTORE PUSH1 0x4 ADD PUSH2 0x2405 SWAP1 PUSH2 0x3C41 JUMP JUMPDEST PUSH1 0x40 MLOAD DUP1 SWAP2 SUB SWAP1 REVERT JUMPDEST PUSH2 0x2417 DUP2 PUSH2 0x28EC JUMP JUMPDEST POP JUMP JUMPDEST PUSH1 0x0 CALLER SWAP1 POP SWAP1 JUMP JUMPDEST PUSH1 0x0 PUSH1 0x7 DUP3 DUP2 SLOAD DUP2 LT PUSH2 0x245E JUMPI PUSH32 0x4E487B7100000000000000000000000000000000000000000000000000000000 PUSH1 0x0 MSTORE PUSH1 0x32 PUSH1 0x4 MSTORE PUSH1 0x24 PUSH1 0x0 REVERT JUMPDEST SWAP1 PUSH1 0x0 MSTORE PUSH1 0x20 PUSH1 0x0 KECCAK256 SWAP1 PUSH1 0x5 MUL ADD SWAP1 POP PUSH1 0x0 PUSH1 0x8 PUSH1 0x0 DUP5 DUP2 MSTORE PUSH1 0x20 ADD SWAP1 DUP2 MSTORE PUSH1 0x20 ADD PUSH1 0x0 KECCAK256 PUSH1 0x0 DUP6 PUSH20 0xFFFFFFFFFFFFFFFFFFFFFFFFFFFFFFFFFFFFFFFF AND PUSH20 0xFFFFFFFFFFFFFFFFFFFFFFFFFFFFFFFFFFFFFFFF AND DUP2 MSTORE PUSH1 0x20 ADD SWAP1 DUP2 MSTORE PUSH1 0x20 ADD PUSH1 0x0 KECCAK256 SWAP1 POP PUSH1 0x0 DUP2 PUSH1 0x0 ADD SLOAD GT PUSH2 0x2509 JUMPI PUSH1 0x40 MLOAD PUSH32 0x8C379A000000000000000000000000000000000000000000000000000000000 DUP2 MSTORE PUSH1 0x4 ADD PUSH2 0x2500 SWAP1 PUSH2 0x3EC1 JUMP JUMPDEST PUSH1 0x40 MLOAD DUP1 SWAP2 SUB SWAP1 REVERT JUMPDEST PUSH1 0x0 PUSH2 0x2553 DUP3 PUSH1 0x1 ADD SLOAD PUSH2 0x2545 PUSH5 0xE8D4A51000 PUSH2 0x2537 DUP8 PUSH1 0x3 ADD SLOAD DUP8 PUSH1 0x0 ADD SLOAD PUSH2 0x273A SWAP1 SWAP2 SWAP1 PUSH4 0xFFFFFFFF AND JUMP JUMPDEST PUSH2 0x27B5 SWAP1 SWAP2 SWAP1 PUSH4 0xFFFFFFFF AND JUMP JUMPDEST PUSH2 0x280D SWAP1 SWAP2 SWAP1 PUSH4 0xFFFFFFFF AND JUMP JUMPDEST SWAP1 POP PUSH1 0x2 PUSH1 0x0 SWAP1 SLOAD SWAP1 PUSH2 0x100 EXP SWAP1 DIV PUSH20 0xFFFFFFFFFFFFFFFFFFFFFFFFFFFFFFFFFFFFFFFF AND PUSH20 0xFFFFFFFFFFFFFFFFFFFFFFFFFFFFFFFFFFFFFFFF AND PUSH4 0x70A08231 ADDRESS PUSH1 0x40 MLOAD DUP3 PUSH4 0xFFFFFFFF AND PUSH1 0xE0 SHL DUP2 MSTORE PUSH1 0x4 ADD PUSH2 0x25B0 SWAP2 SWAP1 PUSH2 0x3B36 JUMP JUMPDEST PUSH1 0x20 PUSH1 0x40 MLOAD DUP1 DUP4 SUB DUP2 DUP7 DUP1 EXTCODESIZE ISZERO DUP1 ISZERO PUSH2 0x25C8 JUMPI PUSH1 0x0 DUP1 REVERT JUMPDEST POP GAS STATICCALL ISZERO DUP1 ISZERO PUSH2 0x25DC JUMPI RETURNDATASIZE PUSH1 0x0 DUP1 RETURNDATACOPY RETURNDATASIZE PUSH1 0x0 REVERT JUMPDEST POP POP POP POP PUSH1 0x40 MLOAD RETURNDATASIZE PUSH1 0x1F NOT PUSH1 0x1F DUP3 ADD AND DUP3 ADD DUP1 PUSH1 0x40 MSTORE POP DUP2 ADD SWAP1 PUSH2 0x2600 SWAP2 SWAP1 PUSH2 0x330B JUMP JUMPDEST DUP2 GT ISZERO PUSH2 0x2642 JUMPI PUSH1 0x40 MLOAD PUSH32 0x8C379A000000000000000000000000000000000000000000000000000000000 DUP2 MSTORE PUSH1 0x4 ADD PUSH2 0x2639 SWAP1 PUSH2 0x3DC1 JUMP JUMPDEST PUSH1 0x40 MLOAD DUP1 SWAP2 SUB SWAP1 REVERT JUMPDEST PUSH2 0x264C DUP6 DUP3 PUSH2 0x2CD1 JUMP JUMPDEST POP POP POP POP POP JUMP JUMPDEST PUSH2 0x26D6 DUP5 PUSH4 0x23B872DD PUSH1 0xE0 SHL DUP6 DUP6 DUP6 PUSH1 0x40 MLOAD PUSH1 0x24 ADD PUSH2 0x2674 SWAP4 SWAP3 SWAP2 SWAP1 PUSH2 0x3B51 JUMP JUMPDEST PUSH1 0x40 MLOAD PUSH1 0x20 DUP2 DUP4 SUB SUB DUP2 MSTORE SWAP1 PUSH1 0x40 MSTORE SWAP1 PUSH28 0xFFFFFFFFFFFFFFFFFFFFFFFFFFFFFFFFFFFFFFFFFFFFFFFFFFFFFFFF NOT AND PUSH1 0x20 DUP3 ADD DUP1 MLOAD PUSH28 0xFFFFFFFFFFFFFFFFFFFFFFFFFFFFFFFFFFFFFFFFFFFFFFFFFFFFFFFF DUP4 DUP2 DUP4 AND OR DUP4 MSTORE POP POP POP POP PUSH2 0x2EF3 JUMP JUMPDEST POP POP POP POP JUMP JUMPDEST PUSH1 0x0 DUP1 DUP3 DUP5 PUSH2 0x26EB SWAP2 SWAP1 PUSH2 0x3F93 JUMP JUMPDEST SWAP1 POP DUP4 DUP2 LT ISZERO PUSH2 0x2730 JUMPI PUSH1 0x40 MLOAD PUSH32 0x8C379A000000000000000000000000000000000000000000000000000000000 DUP2 MSTORE PUSH1 0x4 ADD PUSH2 0x2727 SWAP1 PUSH2 0x3C81 JUMP JUMPDEST PUSH1 0x40 MLOAD DUP1 SWAP2 SUB SWAP1 REVERT JUMPDEST DUP1 SWAP2 POP POP SWAP3 SWAP2 POP POP JUMP JUMPDEST PUSH1 0x0 DUP1 DUP4 EQ ISZERO PUSH2 0x274D JUMPI PUSH1 0x0 SWAP1 POP PUSH2 0x27AF JUMP JUMPDEST PUSH1 0x0 DUP3 DUP5 PUSH2 0x275B SWAP2 SWAP1 PUSH2 0x401A JUMP JUMPDEST SWAP1 POP DUP3 DUP5 DUP3 PUSH2 0x276A SWAP2 SWAP1 PUSH2 0x3FE9 JUMP JUMPDEST EQ PUSH2 0x27AA JUMPI PUSH1 0x40 MLOAD PUSH32 0x8C379A000000000000000000000000000000000000000000000000000000000 DUP2 MSTORE PUSH1 0x4 ADD PUSH2 0x27A1 SWAP1 PUSH2 0x3D81 JUMP JUMPDEST PUSH1 0x40 MLOAD DUP1 SWAP2 SUB SWAP1 REVERT JUMPDEST DUP1 SWAP2 POP POP JUMPDEST SWAP3 SWAP2 POP POP JUMP JUMPDEST PUSH1 0x0 DUP1 DUP3 GT PUSH2 0x27F9 JUMPI PUSH1 0x40 MLOAD PUSH32 0x8C379A000000000000000000000000000000000000000000000000000000000 DUP2 MSTORE PUSH1 0x4 ADD PUSH2 0x27F0 SWAP1 PUSH2 0x3D41 JUMP JUMPDEST PUSH1 0x40 MLOAD DUP1 SWAP2 SUB SWAP1 REVERT JUMPDEST DUP2 DUP4 PUSH2 0x2805 SWAP2 SWAP1 PUSH2 0x3FE9 JUMP JUMPDEST SWAP1 POP SWAP3 SWAP2 POP POP JUMP JUMPDEST PUSH1 0x0 DUP3 DUP3 GT ISZERO PUSH2 0x2852 JUMPI PUSH1 0x40 MLOAD PUSH32 0x8C379A000000000000000000000000000000000000000000000000000000000 DUP2 MSTORE PUSH1 0x4 ADD PUSH2 0x2849 SWAP1 PUSH2 0x3D01 JUMP JUMPDEST PUSH1 0x40 MLOAD DUP1 SWAP2 SUB SWAP1 REVERT JUMPDEST DUP2 DUP4 PUSH2 0x285E SWAP2 SWAP1 PUSH2 0x4074 JUMP JUMPDEST SWAP1 POP SWAP3 SWAP2 POP POP JUMP JUMPDEST PUSH2 0x28E7 DUP4 PUSH4 0xA9059CBB PUSH1 0xE0 SHL DUP5 DUP5 PUSH1 0x40 MLOAD PUSH1 0x24 ADD PUSH2 0x2885 SWAP3 SWAP2 SWAP1 PUSH2 0x3B88 JUMP JUMPDEST PUSH1 0x40 MLOAD PUSH1 0x20 DUP2 DUP4 SUB SUB DUP2 MSTORE SWAP1 PUSH1 0x40 MSTORE SWAP1 PUSH28 0xFFFFFFFFFFFFFFFFFFFFFFFFFFFFFFFFFFFFFFFFFFFFFFFFFFFFFFFF NOT AND PUSH1 0x20 DUP3 ADD DUP1 MLOAD PUSH28 0xFFFFFFFFFFFFFFFFFFFFFFFFFFFFFFFFFFFFFFFFFFFFFFFFFFFFFFFF DUP4 DUP2 DUP4 AND OR DUP4 MSTORE POP POP POP POP PUSH2 0x2EF3 JUMP JUMPDEST POP POP POP JUMP JUMPDEST PUSH1 0x0 DUP1 PUSH1 0x0 SWAP1 SLOAD SWAP1 PUSH2 0x100 EXP SWAP1 DIV PUSH20 0xFFFFFFFFFFFFFFFFFFFFFFFFFFFFFFFFFFFFFFFF AND SWAP1 POP DUP2 PUSH1 0x0 DUP1 PUSH2 0x100 EXP DUP2 SLOAD DUP2 PUSH20 0xFFFFFFFFFFFFFFFFFFFFFFFFFFFFFFFFFFFFFFFF MUL NOT AND SWAP1 DUP4 PUSH20 0xFFFFFFFFFFFFFFFFFFFFFFFFFFFFFFFFFFFFFFFF AND MUL OR SWAP1 SSTORE POP DUP2 PUSH20 0xFFFFFFFFFFFFFFFFFFFFFFFFFFFFFFFFFFFFFFFF AND DUP2 PUSH20 0xFFFFFFFFFFFFFFFFFFFFFFFFFFFFFFFFFFFFFFFF AND PUSH32 0x8BE0079C531659141344CD1FD0A4F28419497F9722A3DAAFE3B4186F6B6457E0 PUSH1 0x40 MLOAD PUSH1 0x40 MLOAD DUP1 SWAP2 SUB SWAP1 LOG3 POP POP JUMP JUMPDEST PUSH1 0x0 PUSH1 0x7 DUP4 DUP2 SLOAD DUP2 LT PUSH2 0x29EC JUMPI PUSH32 0x4E487B7100000000000000000000000000000000000000000000000000000000 PUSH1 0x0 MSTORE PUSH1 0x32 PUSH1 0x4 MSTORE PUSH1 0x24 PUSH1 0x0 REVERT JUMPDEST SWAP1 PUSH1 0x0 MSTORE PUSH1 0x20 PUSH1 0x0 KECCAK256 SWAP1 PUSH1 0x5 MUL ADD SWAP1 POP PUSH1 0x0 PUSH1 0x8 PUSH1 0x0 DUP6 DUP2 MSTORE PUSH1 0x20 ADD SWAP1 DUP2 MSTORE PUSH1 0x20 ADD PUSH1 0x0 KECCAK256 PUSH1 0x0 DUP7 PUSH20 0xFFFFFFFFFFFFFFFFFFFFFFFFFFFFFFFFFFFFFFFF AND PUSH20 0xFFFFFFFFFFFFFFFFFFFFFFFFFFFFFFFFFFFFFFFF AND DUP2 MSTORE PUSH1 0x20 ADD SWAP1 DUP2 MSTORE PUSH1 0x20 ADD PUSH1 0x0 KECCAK256 SWAP1 POP CALLER PUSH20 0xFFFFFFFFFFFFFFFFFFFFFFFFFFFFFFFFFFFFFFFF AND DUP2 PUSH1 0x3 ADD PUSH1 0x0 SWAP1 SLOAD SWAP1 PUSH2 0x100 EXP SWAP1 DIV PUSH20 0xFFFFFFFFFFFFFFFFFFFFFFFFFFFFFFFFFFFFFFFF AND PUSH20 0xFFFFFFFFFFFFFFFFFFFFFFFFFFFFFFFFFFFFFFFF AND EQ PUSH2 0x2AE2 JUMPI PUSH1 0x40 MLOAD PUSH32 0x8C379A000000000000000000000000000000000000000000000000000000000 DUP2 MSTORE PUSH1 0x4 ADD PUSH2 0x2AD9 SWAP1 PUSH2 0x3CC1 JUMP JUMPDEST PUSH1 0x40 MLOAD DUP1 SWAP2 SUB SWAP1 REVERT JUMPDEST DUP3 DUP2 PUSH1 0x0 ADD SLOAD LT ISZERO PUSH2 0x2B29 JUMPI PUSH1 0x40 MLOAD PUSH32 0x8C379A000000000000000000000000000000000000000000000000000000000 DUP2 MSTORE PUSH1 0x4 ADD PUSH2 0x2B20 SWAP1 PUSH2 0x3E41 JUMP JUMPDEST PUSH1 0x40 MLOAD DUP1 SWAP2 SUB SWAP1 REVERT JUMPDEST PUSH2 0x2B32 DUP5 PUSH2 0x1136 JUMP JUMPDEST PUSH2 0x2B3C DUP6 DUP6 PUSH2 0x2422 JUMP JUMPDEST PUSH2 0x2B53 DUP4 DUP3 PUSH1 0x0 ADD SLOAD PUSH2 0x280D SWAP1 SWAP2 SWAP1 PUSH4 0xFFFFFFFF AND JUMP JUMPDEST DUP2 PUSH1 0x0 ADD DUP2 SWAP1 SSTORE POP PUSH2 0x2B8D PUSH5 0xE8D4A51000 PUSH2 0x2B7F DUP5 PUSH1 0x3 ADD SLOAD DUP5 PUSH1 0x0 ADD SLOAD PUSH2 0x273A SWAP1 SWAP2 SWAP1 PUSH4 0xFFFFFFFF AND JUMP JUMPDEST PUSH2 0x27B5 SWAP1 SWAP2 SWAP1 PUSH4 0xFFFFFFFF AND JUMP JUMPDEST DUP2 PUSH1 0x1 ADD DUP2 SWAP1 SSTORE POP PUSH2 0x2BC7 PUSH5 0xE8D4A51000 PUSH2 0x2BB9 DUP5 PUSH1 0x4 ADD SLOAD DUP5 PUSH1 0x0 ADD SLOAD PUSH2 0x273A SWAP1 SWAP2 SWAP1 PUSH4 0xFFFFFFFF AND JUMP JUMPDEST PUSH2 0x27B5 SWAP1 SWAP2 SWAP1 PUSH4 0xFFFFFFFF AND JUMP JUMPDEST DUP2 PUSH1 0x2 ADD DUP2 SWAP1 SSTORE POP PUSH1 0x0 PUSH20 0xFFFFFFFFFFFFFFFFFFFFFFFFFFFFFFFFFFFFFFFF AND DUP3 PUSH1 0x0 ADD PUSH1 0x0 SWAP1 SLOAD SWAP1 PUSH2 0x100 EXP SWAP1 DIV PUSH20 0xFFFFFFFFFFFFFFFFFFFFFFFFFFFFFFFFFFFFFFFF AND PUSH20 0xFFFFFFFFFFFFFFFFFFFFFFFFFFFFFFFFFFFFFFFF AND EQ PUSH2 0x2C77 JUMPI PUSH2 0x2C76 CALLER DUP5 DUP5 PUSH1 0x0 ADD PUSH1 0x0 SWAP1 SLOAD SWAP1 PUSH2 0x100 EXP SWAP1 DIV PUSH20 0xFFFFFFFFFFFFFFFFFFFFFFFFFFFFFFFFFFFFFFFF AND PUSH20 0xFFFFFFFFFFFFFFFFFFFFFFFFFFFFFFFFFFFFFFFF AND PUSH2 0x2866 SWAP1 SWAP3 SWAP2 SWAP1 PUSH4 0xFFFFFFFF AND JUMP JUMPDEST JUMPDEST DUP4 CALLER PUSH20 0xFFFFFFFFFFFFFFFFFFFFFFFFFFFFFFFFFFFFFFFF AND PUSH32 0xF279E6A1F5E320CCA91135676D9CB6E44CA8A08C0B88342BCDB1144F6511B568 DUP4 PUSH1 0x0 ADD SLOAD PUSH1 0x40 MLOAD PUSH2 0x2CC2 SWAP2 SWAP1 PUSH2 0x3F01 JUMP JUMPDEST PUSH1 0x40 MLOAD DUP1 SWAP2 SUB SWAP1 LOG3 POP POP POP POP POP JUMP JUMPDEST PUSH1 0x0 PUSH1 0x2 PUSH1 0x0 SWAP1 SLOAD SWAP1 PUSH2 0x100 EXP SWAP1 DIV PUSH20 0xFFFFFFFFFFFFFFFFFFFFFFFFFFFFFFFFFFFFFFFF AND PUSH20 0xFFFFFFFFFFFFFFFFFFFFFFFFFFFFFFFFFFFFFFFF AND PUSH4 0x70A08231 ADDRESS PUSH1 0x40 MLOAD DUP3 PUSH4 0xFFFFFFFF AND PUSH1 0xE0 SHL DUP2 MSTORE PUSH1 0x4 ADD PUSH2 0x2D2E SWAP2 SWAP1 PUSH2 0x3B36 JUMP JUMPDEST PUSH1 0x20 PUSH1 0x40 MLOAD DUP1 DUP4 SUB DUP2 DUP7 DUP1 EXTCODESIZE ISZERO DUP1 ISZERO PUSH2 0x2D46 JUMPI PUSH1 0x0 DUP1 REVERT JUMPDEST POP GAS STATICCALL ISZERO DUP1 ISZERO PUSH2 0x2D5A JUMPI RETURNDATASIZE PUSH1 0x0 DUP1 RETURNDATACOPY RETURNDATASIZE PUSH1 0x0 REVERT JUMPDEST POP POP POP POP PUSH1 0x40 MLOAD RETURNDATASIZE PUSH1 0x1F NOT PUSH1 0x1F DUP3 ADD AND DUP3 ADD DUP1 PUSH1 0x40 MSTORE POP DUP2 ADD SWAP1 PUSH2 0x2D7E SWAP2 SWAP1 PUSH2 0x330B JUMP JUMPDEST SWAP1 POP DUP1 DUP3 GT ISZERO PUSH2 0x2E3D JUMPI PUSH1 0x2 PUSH1 0x0 SWAP1 SLOAD SWAP1 PUSH2 0x100 EXP SWAP1 DIV PUSH20 0xFFFFFFFFFFFFFFFFFFFFFFFFFFFFFFFFFFFFFFFF AND PUSH20 0xFFFFFFFFFFFFFFFFFFFFFFFFFFFFFFFFFFFFFFFF AND PUSH4 0xA9059CBB DUP5 DUP4 PUSH1 0x40 MLOAD DUP4 PUSH4 0xFFFFFFFF AND PUSH1 0xE0 SHL DUP2 MSTORE PUSH1 0x4 ADD PUSH2 0x2DE5 SWAP3 SWAP2 SWAP1 PUSH2 0x3B88 JUMP JUMPDEST PUSH1 0x20 PUSH1 0x40 MLOAD DUP1 DUP4 SUB DUP2 PUSH1 0x0 DUP8 DUP1 EXTCODESIZE ISZERO DUP1 ISZERO PUSH2 0x2DFF JUMPI PUSH1 0x0 DUP1 REVERT JUMPDEST POP GAS CALL ISZERO DUP1 ISZERO PUSH2 0x2E13 JUMPI RETURNDATASIZE PUSH1 0x0 DUP1 RETURNDATACOPY RETURNDATASIZE PUSH1 0x0 REVERT JUMPDEST POP POP POP POP PUSH1 0x40 MLOAD RETURNDATASIZE PUSH1 0x1F NOT PUSH1 0x1F DUP3 ADD AND DUP3 ADD DUP1 PUSH1 0x40 MSTORE POP DUP2 ADD SWAP1 PUSH2 0x2E37 SWAP2 SWAP1 PUSH2 0x32B9 JUMP JUMPDEST POP PUSH2 0x2EEE JUMP JUMPDEST PUSH1 0x2 PUSH1 0x0 SWAP1 SLOAD SWAP1 PUSH2 0x100 EXP SWAP1 DIV PUSH20 0xFFFFFFFFFFFFFFFFFFFFFFFFFFFFFFFFFFFFFFFF AND PUSH20 0xFFFFFFFFFFFFFFFFFFFFFFFFFFFFFFFFFFFFFFFF AND PUSH4 0xA9059CBB DUP5 DUP5 PUSH1 0x40 MLOAD DUP4 PUSH4 0xFFFFFFFF AND PUSH1 0xE0 SHL DUP2 MSTORE PUSH1 0x4 ADD PUSH2 0x2E9A SWAP3 SWAP2 SWAP1 PUSH2 0x3B88 JUMP JUMPDEST PUSH1 0x20 PUSH1 0x40 MLOAD DUP1 DUP4 SUB DUP2 PUSH1 0x0 DUP8 DUP1 EXTCODESIZE ISZERO DUP1 ISZERO PUSH2 0x2EB4 JUMPI PUSH1 0x0 DUP1 REVERT JUMPDEST POP GAS CALL ISZERO DUP1 ISZERO PUSH2 0x2EC8 JUMPI RETURNDATASIZE PUSH1 0x0 DUP1 RETURNDATACOPY RETURNDATASIZE PUSH1 0x0 REVERT JUMPDEST POP POP POP POP PUSH1 0x40 MLOAD RETURNDATASIZE PUSH1 0x1F NOT PUSH1 0x1F DUP3 ADD AND DUP3 ADD DUP1 PUSH1 0x40 MSTORE POP DUP2 ADD SWAP1 PUSH2 0x2EEC SWAP2 SWAP1 PUSH2 0x32B9 JUMP JUMPDEST POP JUMPDEST POP POP POP JUMP JUMPDEST PUSH1 0x0 PUSH2 0x2F55 DUP3 PUSH1 0x40 MLOAD DUP1 PUSH1 0x40 ADD PUSH1 0x40 MSTORE DUP1 PUSH1 0x20 DUP2 MSTORE PUSH1 0x20 ADD PUSH32 0x5361666545524332303A206C6F772D6C6576656C2063616C6C206661696C6564 DUP2 MSTORE POP DUP6 PUSH20 0xFFFFFFFFFFFFFFFFFFFFFFFFFFFFFFFFFFFFFFFF AND PUSH2 0x2FBA SWAP1 SWAP3 SWAP2 SWAP1 PUSH4 0xFFFFFFFF AND JUMP JUMPDEST SWAP1 POP PUSH1 0x0 DUP2 MLOAD GT ISZERO PUSH2 0x2FB5 JUMPI DUP1 DUP1 PUSH1 0x20 ADD SWAP1 MLOAD DUP2 ADD SWAP1 PUSH2 0x2F75 SWAP2 SWAP1 PUSH2 0x32B9 JUMP JUMPDEST PUSH2 0x2FB4 JUMPI PUSH1 0x40 MLOAD PUSH32 0x8C379A000000000000000000000000000000000000000000000000000000000 DUP2 MSTORE PUSH1 0x4 ADD PUSH2 0x2FAB SWAP1 PUSH2 0x3E81 JUMP JUMPDEST PUSH1 0x40 MLOAD DUP1 SWAP2 SUB SWAP1 REVERT JUMPDEST JUMPDEST POP POP POP JUMP JUMPDEST PUSH1 0x60 PUSH2 0x2FC9 DUP5 DUP5 PUSH1 0x0 DUP6 PUSH2 0x2FD2 JUMP JUMPDEST SWAP1 POP SWAP4 SWAP3 POP POP POP JUMP JUMPDEST PUSH1 0x60 DUP3 SELFBALANCE LT ISZERO PUSH2 0x3017 JUMPI PUSH1 0x40 MLOAD PUSH32 0x8C379A000000000000000000000000000000000000000000000000000000000 DUP2 MSTORE PUSH1 0x4 ADD PUSH2 0x300E SWAP1 PUSH2 0x3D21 JUMP JUMPDEST PUSH1 0x40 MLOAD DUP1 SWAP2 SUB SWAP1 REVERT JUMPDEST PUSH2 0x3020 DUP6 PUSH2 0x30E6 JUMP JUMPDEST PUSH2 0x305F JUMPI PUSH1 0x40 MLOAD PUSH32 0x8C379A000000000000000000000000000000000000000000000000000000000 DUP2 MSTORE PUSH1 0x4 ADD PUSH2 0x3056 SWAP1 PUSH2 0x3E21 JUMP JUMPDEST PUSH1 0x40 MLOAD DUP1 SWAP2 SUB SWAP1 REVERT JUMPDEST PUSH1 0x0 DUP1 DUP7 PUSH20 0xFFFFFFFFFFFFFFFFFFFFFFFFFFFFFFFFFFFFFFFF AND DUP6 DUP8 PUSH1 0x40 MLOAD PUSH2 0x3088 SWAP2 SWAP1 PUSH2 0x3B1F JUMP JUMPDEST PUSH1 0x0 PUSH1 0x40 MLOAD DUP1 DUP4 SUB DUP2 DUP6 DUP8 GAS CALL SWAP3 POP POP POP RETURNDATASIZE DUP1 PUSH1 0x0 DUP2 EQ PUSH2 0x30C5 JUMPI PUSH1 0x40 MLOAD SWAP2 POP PUSH1 0x1F NOT PUSH1 0x3F RETURNDATASIZE ADD AND DUP3 ADD PUSH1 0x40 MSTORE RETURNDATASIZE DUP3 MSTORE RETURNDATASIZE PUSH1 0x0 PUSH1 0x20 DUP5 ADD RETURNDATACOPY PUSH2 0x30CA JUMP JUMPDEST PUSH1 0x60 SWAP2 POP JUMPDEST POP SWAP2 POP SWAP2 POP PUSH2 0x30DA DUP3 DUP3 DUP7 PUSH2 0x30F9 JUMP JUMPDEST SWAP3 POP POP POP SWAP5 SWAP4 POP POP POP POP JUMP JUMPDEST PUSH1 0x0 DUP1 DUP3 EXTCODESIZE SWAP1 POP PUSH1 0x0 DUP2 GT SWAP2 POP POP SWAP2 SWAP1 POP JUMP JUMPDEST PUSH1 0x60 DUP4 ISZERO PUSH2 0x3109 JUMPI DUP3 SWAP1 POP PUSH2 0x3159 JUMP JUMPDEST PUSH1 0x0 DUP4 MLOAD GT ISZERO PUSH2 0x311C JUMPI DUP3 MLOAD DUP1 DUP5 PUSH1 0x20 ADD REVERT JUMPDEST DUP2 PUSH1 0x40 MLOAD PUSH32 0x8C379A000000000000000000000000000000000000000000000000000000000 DUP2 MSTORE PUSH1 0x4 ADD PUSH2 0x3150 SWAP2 SWAP1 PUSH2 0x3C1F JUMP JUMPDEST PUSH1 0x40 MLOAD DUP1 SWAP2 SUB SWAP1 REVERT JUMPDEST SWAP4 SWAP3 POP POP POP JUMP JUMPDEST PUSH1 0x0 DUP2 CALLDATALOAD SWAP1 POP PUSH2 0x316F DUP2 PUSH2 0x41DB JUMP JUMPDEST SWAP3 SWAP2 POP POP JUMP JUMPDEST PUSH1 0x0 DUP2 CALLDATALOAD SWAP1 POP PUSH2 0x3184 DUP2 PUSH2 0x41F2 JUMP JUMPDEST SWAP3 SWAP2 POP POP JUMP JUMPDEST PUSH1 0x0 DUP2 MLOAD SWAP1 POP PUSH2 0x3199 DUP2 PUSH2 0x41F2 JUMP JUMPDEST SWAP3 SWAP2 POP POP JUMP JUMPDEST PUSH1 0x0 DUP2 CALLDATALOAD SWAP1 POP PUSH2 0x31AE DUP2 PUSH2 0x4209 JUMP JUMPDEST SWAP3 SWAP2 POP POP JUMP JUMPDEST PUSH1 0x0 DUP2 MLOAD SWAP1 POP PUSH2 0x31C3 DUP2 PUSH2 0x4209 JUMP JUMPDEST SWAP3 SWAP2 POP POP JUMP JUMPDEST PUSH1 0x0 PUSH1 0x20 DUP3 DUP5 SUB SLT ISZERO PUSH2 0x31DB JUMPI PUSH1 0x0 DUP1 REVERT JUMPDEST PUSH1 0x0 PUSH2 0x31E9 DUP5 DUP3 DUP6 ADD PUSH2 0x3160 JUMP JUMPDEST SWAP2 POP POP SWAP3 SWAP2 POP POP JUMP JUMPDEST PUSH1 0x0 DUP1 PUSH1 0x40 DUP4 DUP6 SUB SLT ISZERO PUSH2 0x3205 JUMPI PUSH1 0x0 DUP1 REVERT JUMPDEST PUSH1 0x0 PUSH2 0x3213 DUP6 DUP3 DUP7 ADD PUSH2 0x3160 JUMP JUMPDEST SWAP3 POP POP PUSH1 0x20 PUSH2 0x3224 DUP6 DUP3 DUP7 ADD PUSH2 0x3175 JUMP JUMPDEST SWAP2 POP POP SWAP3 POP SWAP3 SWAP1 POP JUMP JUMPDEST PUSH1 0x0 DUP1 PUSH1 0x40 DUP4 DUP6 SUB SLT ISZERO PUSH2 0x3241 JUMPI PUSH1 0x0 DUP1 REVERT JUMPDEST PUSH1 0x0 PUSH2 0x324F DUP6 DUP3 DUP7 ADD PUSH2 0x3160 JUMP JUMPDEST SWAP3 POP POP PUSH1 0x20 PUSH2 0x3260 DUP6 DUP3 DUP7 ADD PUSH2 0x319F JUMP JUMPDEST SWAP2 POP POP SWAP3 POP SWAP3 SWAP1 POP JUMP JUMPDEST PUSH1 0x0 DUP1 PUSH1 0x0 PUSH1 0x60 DUP5 DUP7 SUB SLT ISZERO PUSH2 0x327F JUMPI PUSH1 0x0 DUP1 REVERT JUMPDEST PUSH1 0x0 PUSH2 0x328D DUP7 DUP3 DUP8 ADD PUSH2 0x3160 JUMP JUMPDEST SWAP4 POP POP PUSH1 0x20 PUSH2 0x329E DUP7 DUP3 DUP8 ADD PUSH2 0x319F JUMP JUMPDEST SWAP3 POP POP PUSH1 0x40 PUSH2 0x32AF DUP7 DUP3 DUP8 ADD PUSH2 0x319F JUMP JUMPDEST SWAP2 POP POP SWAP3 POP SWAP3 POP SWAP3 JUMP JUMPDEST PUSH1 0x0 PUSH1 0x20 DUP3 DUP5 SUB SLT ISZERO PUSH2 0x32CB JUMPI PUSH1 0x0 DUP1 REVERT JUMPDEST PUSH1 0x0 PUSH2 0x32D9 DUP5 DUP3 DUP6 ADD PUSH2 0x318A JUMP JUMPDEST SWAP2 POP POP SWAP3 SWAP2 POP POP JUMP JUMPDEST PUSH1 0x0 PUSH1 0x20 DUP3 DUP5 SUB SLT ISZERO PUSH2 0x32F4 JUMPI PUSH1 0x0 DUP1 REVERT JUMPDEST PUSH1 0x0 PUSH2 0x3302 DUP5 DUP3 DUP6 ADD PUSH2 0x319F JUMP JUMPDEST SWAP2 POP POP SWAP3 SWAP2 POP POP JUMP JUMPDEST PUSH1 0x0 PUSH1 0x20 DUP3 DUP5 SUB SLT ISZERO PUSH2 0x331D JUMPI PUSH1 0x0 DUP1 REVERT JUMPDEST PUSH1 0x0 PUSH2 0x332B DUP5 DUP3 DUP6 ADD PUSH2 0x31B4 JUMP JUMPDEST SWAP2 POP POP SWAP3 SWAP2 POP POP JUMP JUMPDEST PUSH1 0x0 DUP1 PUSH1 0x40 DUP4 DUP6 SUB SLT ISZERO PUSH2 0x3347 JUMPI PUSH1 0x0 DUP1 REVERT JUMPDEST PUSH1 0x0 PUSH2 0x3355 DUP6 DUP3 DUP7 ADD PUSH2 0x319F JUMP JUMPDEST SWAP3 POP POP PUSH1 0x20 PUSH2 0x3366 DUP6 DUP3 DUP7 ADD PUSH2 0x3160 JUMP JUMPDEST SWAP2 POP POP SWAP3 POP SWAP3 SWAP1 POP JUMP JUMPDEST PUSH1 0x0 DUP1 PUSH1 0x0 PUSH1 0x60 DUP5 DUP7 SUB SLT ISZERO PUSH2 0x3385 JUMPI PUSH1 0x0 DUP1 REVERT JUMPDEST PUSH1 0x0 PUSH2 0x3393 DUP7 DUP3 DUP8 ADD PUSH2 0x319F JUMP JUMPDEST SWAP4 POP POP PUSH1 0x20 PUSH2 0x33A4 DUP7 DUP3 DUP8 ADD PUSH2 0x3160 JUMP JUMPDEST SWAP3 POP POP PUSH1 0x40 PUSH2 0x33B5 DUP7 DUP3 DUP8 ADD PUSH2 0x3175 JUMP JUMPDEST SWAP2 POP POP SWAP3 POP SWAP3 POP SWAP3 JUMP JUMPDEST PUSH1 0x0 DUP1 PUSH1 0x40 DUP4 DUP6 SUB SLT ISZERO PUSH2 0x33D2 JUMPI PUSH1 0x0 DUP1 REVERT JUMPDEST PUSH1 0x0 PUSH2 0x33E0 DUP6 DUP3 DUP7 ADD PUSH2 0x319F JUMP JUMPDEST SWAP3 POP POP PUSH1 0x20 PUSH2 0x33F1 DUP6 DUP3 DUP7 ADD PUSH2 0x319F JUMP JUMPDEST SWAP2 POP POP SWAP3 POP SWAP3 SWAP1 POP JUMP JUMPDEST PUSH1 0x0 DUP1 PUSH1 0x0 PUSH1 0x60 DUP5 DUP7 SUB SLT ISZERO PUSH2 0x3410 JUMPI PUSH1 0x0 DUP1 REVERT JUMPDEST PUSH1 0x0 PUSH2 0x341E DUP7 DUP3 DUP8 ADD PUSH2 0x319F JUMP JUMPDEST SWAP4 POP POP PUSH1 0x20 PUSH2 0x342F DUP7 DUP3 DUP8 ADD PUSH2 0x319F JUMP JUMPDEST SWAP3 POP POP PUSH1 0x40 PUSH2 0x3440 DUP7 DUP3 DUP8 ADD PUSH2 0x3175 JUMP JUMPDEST SWAP2 POP POP SWAP3 POP SWAP3 POP SWAP3 JUMP JUMPDEST PUSH2 0x3453 DUP2 PUSH2 0x40A8 JUMP JUMPDEST DUP3 MSTORE POP POP JUMP JUMPDEST PUSH2 0x3462 DUP2 PUSH2 0x40BA JUMP JUMPDEST DUP3 MSTORE POP POP JUMP JUMPDEST PUSH1 0x0 PUSH2 0x3473 DUP3 PUSH2 0x3F61 JUMP JUMPDEST PUSH2 0x347D DUP2 DUP6 PUSH2 0x3F77 JUMP JUMPDEST SWAP4 POP PUSH2 0x348D DUP2 DUP6 PUSH1 0x20 DUP7 ADD PUSH2 0x40F0 JUMP JUMPDEST DUP1 DUP5 ADD SWAP2 POP POP SWAP3 SWAP2 POP POP JUMP JUMPDEST PUSH1 0x0 PUSH2 0x34A4 DUP3 PUSH2 0x3F6C JUMP JUMPDEST PUSH2 0x34AE DUP2 DUP6 PUSH2 0x3F82 JUMP JUMPDEST SWAP4 POP PUSH2 0x34BE DUP2 DUP6 PUSH1 0x20 DUP7 ADD PUSH2 0x40F0 JUMP JUMPDEST PUSH2 0x34C7 DUP2 PUSH2 0x41CA JUMP JUMPDEST DUP5 ADD SWAP2 POP POP SWAP3 SWAP2 POP POP JUMP JUMPDEST PUSH1 0x0 PUSH2 0x34DF PUSH1 0x26 DUP4 PUSH2 0x3F82 JUMP JUMPDEST SWAP2 POP PUSH32 0x4F776E61626C653A206E6577206F776E657220697320746865207A65726F2061 PUSH1 0x0 DUP4 ADD MSTORE PUSH32 0x6464726573730000000000000000000000000000000000000000000000000000 PUSH1 0x20 DUP4 ADD MSTORE PUSH1 0x40 DUP3 ADD SWAP1 POP SWAP2 SWAP1 POP JUMP JUMPDEST PUSH1 0x0 PUSH2 0x3545 PUSH1 0x1B DUP4 PUSH2 0x3F82 JUMP JUMPDEST SWAP2 POP PUSH32 0x736574426F6E75733A2062616420626F6E7573456E64426C6F636B0000000000 PUSH1 0x0 DUP4 ADD MSTORE PUSH1 0x20 DUP3 ADD SWAP1 POP SWAP2 SWAP1 POP JUMP JUMPDEST PUSH1 0x0 PUSH2 0x3585 PUSH1 0x1B DUP4 PUSH2 0x3F82 JUMP JUMPDEST SWAP2 POP PUSH32 0x536166654D6174683A206164646974696F6E206F766572666C6F770000000000 PUSH1 0x0 DUP4 ADD MSTORE PUSH1 0x20 DUP3 ADD SWAP1 POP SWAP2 SWAP1 POP JUMP JUMPDEST PUSH1 0x0 PUSH2 0x35C5 PUSH1 0x24 DUP4 PUSH2 0x3F82 JUMP JUMPDEST SWAP2 POP PUSH32 0x6578656375746F723A2063616C6C6572206973206E6F74207468652065786563 PUSH1 0x0 DUP4 ADD MSTORE PUSH32 0x75746F7200000000000000000000000000000000000000000000000000000000 PUSH1 0x20 DUP4 ADD MSTORE PUSH1 0x40 DUP3 ADD SWAP1 POP SWAP2 SWAP1 POP JUMP JUMPDEST PUSH1 0x0 PUSH2 0x362B PUSH1 0xB DUP4 PUSH2 0x3F82 JUMP JUMPDEST SWAP2 POP PUSH32 0x6F6E6C792066756E646572000000000000000000000000000000000000000000 PUSH1 0x0 DUP4 ADD MSTORE PUSH1 0x20 DUP3 ADD SWAP1 POP SWAP2 SWAP1 POP JUMP JUMPDEST PUSH1 0x0 PUSH2 0x366B PUSH1 0x18 DUP4 PUSH2 0x3F82 JUMP JUMPDEST SWAP2 POP PUSH32 0x6164643A206E6F74207374616B65546F6B656E20616464720000000000000000 PUSH1 0x0 DUP4 ADD MSTORE PUSH1 0x20 DUP3 ADD SWAP1 POP SWAP2 SWAP1 POP JUMP JUMPDEST PUSH1 0x0 PUSH2 0x36AB PUSH1 0x1E DUP4 PUSH2 0x3F82 JUMP JUMPDEST SWAP2 POP PUSH32 0x536166654D6174683A207375627472616374696F6E206F766572666C6F770000 PUSH1 0x0 DUP4 ADD MSTORE PUSH1 0x20 DUP3 ADD SWAP1 POP SWAP2 SWAP1 POP JUMP JUMPDEST PUSH1 0x0 PUSH2 0x36EB PUSH1 0x26 DUP4 PUSH2 0x3F82 JUMP JUMPDEST SWAP2 POP PUSH32 0x416464726573733A20696E73756666696369656E742062616C616E636520666F PUSH1 0x0 DUP4 ADD MSTORE PUSH32 0x722063616C6C0000000000000000000000000000000000000000000000000000 PUSH1 0x20 DUP4 ADD MSTORE PUSH1 0x40 DUP3 ADD SWAP1 POP SWAP2 SWAP1 POP JUMP JUMPDEST PUSH1 0x0 PUSH2 0x3751 PUSH1 0x1A DUP4 PUSH2 0x3F82 JUMP JUMPDEST SWAP2 POP PUSH32 0x536166654D6174683A206469766973696F6E206279207A65726F000000000000 PUSH1 0x0 DUP4 ADD MSTORE PUSH1 0x20 DUP3 ADD SWAP1 POP SWAP2 SWAP1 POP JUMP JUMPDEST PUSH1 0x0 PUSH2 0x3791 PUSH1 0x1D DUP4 PUSH2 0x3F82 JUMP JUMPDEST SWAP2 POP PUSH32 0x736574426F6E75733A2062616420626F6E75734D756C7469706C696572000000 PUSH1 0x0 DUP4 ADD MSTORE PUSH1 0x20 DUP3 ADD SWAP1 POP SWAP2 SWAP1 POP JUMP JUMPDEST PUSH1 0x0 PUSH2 0x37D1 PUSH1 0x21 DUP4 PUSH2 0x3F82 JUMP JUMPDEST SWAP2 POP PUSH32 0x536166654D6174683A206D756C7469706C69636174696F6E206F766572666C6F PUSH1 0x0 DUP4 ADD MSTORE PUSH32 0x7700000000000000000000000000000000000000000000000000000000000000 PUSH1 0x20 DUP4 ADD MSTORE PUSH1 0x40 DUP3 ADD SWAP1 POP SWAP2 SWAP1 POP JUMP JUMPDEST PUSH1 0x0 PUSH2 0x3837 PUSH1 0x20 DUP4 PUSH2 0x3F82 JUMP JUMPDEST SWAP2 POP PUSH32 0x4F776E61626C653A2063616C6C6572206973206E6F7420746865206F776E6572 PUSH1 0x0 DUP4 ADD MSTORE PUSH1 0x20 DUP3 ADD SWAP1 POP SWAP2 SWAP1 POP JUMP JUMPDEST PUSH1 0x0 PUSH2 0x3877 PUSH1 0x12 DUP4 PUSH2 0x3F82 JUMP JUMPDEST SWAP2 POP PUSH32 0x777466206E6F7420656E6F756768205365610000000000000000000000000000 PUSH1 0x0 DUP4 ADD MSTORE PUSH1 0x20 DUP3 ADD SWAP1 POP SWAP2 SWAP1 POP JUMP JUMPDEST PUSH1 0x0 PUSH2 0x38B7 PUSH1 0x14 DUP4 PUSH2 0x3F82 JUMP JUMPDEST SWAP2 POP PUSH32 0x426C6F636B2072616E6765206578636565646564000000000000000000000000 PUSH1 0x0 DUP4 ADD MSTORE PUSH1 0x20 DUP3 ADD SWAP1 POP SWAP2 SWAP1 POP JUMP JUMPDEST PUSH1 0x0 PUSH2 0x38F7 PUSH1 0x7 DUP4 PUSH2 0x3F82 JUMP JUMPDEST SWAP2 POP PUSH32 0x62616420736F6600000000000000000000000000000000000000000000000000 PUSH1 0x0 DUP4 ADD MSTORE PUSH1 0x20 DUP3 ADD SWAP1 POP SWAP2 SWAP1 POP JUMP JUMPDEST PUSH1 0x0 PUSH2 0x3937 PUSH1 0x1D DUP4 PUSH2 0x3F82 JUMP JUMPDEST SWAP2 POP PUSH32 0x416464726573733A2063616C6C20746F206E6F6E2D636F6E7472616374000000 PUSH1 0x0 DUP4 ADD MSTORE PUSH1 0x20 DUP3 ADD SWAP1 POP SWAP2 SWAP1 POP JUMP JUMPDEST PUSH1 0x0 PUSH2 0x3977 PUSH1 0x12 DUP4 PUSH2 0x3F82 JUMP JUMPDEST SWAP2 POP PUSH32 0x77697468647261773A206E6F7420676F6F640000000000000000000000000000 PUSH1 0x0 DUP4 ADD MSTORE PUSH1 0x20 DUP3 ADD SWAP1 POP SWAP2 SWAP1 POP JUMP JUMPDEST PUSH1 0x0 PUSH2 0x39B7 PUSH1 0x1B DUP4 PUSH2 0x3F82 JUMP JUMPDEST SWAP2 POP PUSH32 0x6465706F7369743A206E6F7420616363657074206465706F7369740000000000 PUSH1 0x0 DUP4 ADD MSTORE PUSH1 0x20 DUP3 ADD SWAP1 POP SWAP2 SWAP1 POP JUMP JUMPDEST PUSH1 0x0 PUSH2 0x39F7 PUSH1 0x2A DUP4 PUSH2 0x3F82 JUMP JUMPDEST SWAP2 POP PUSH32 0x5361666545524332303A204552433230206F7065726174696F6E20646964206E PUSH1 0x0 DUP4 ADD MSTORE PUSH32 0x6F74207375636365656400000000000000000000000000000000000000000000 PUSH1 0x20 DUP4 ADD MSTORE PUSH1 0x40 DUP3 ADD SWAP1 POP SWAP2 SWAP1 POP JUMP JUMPDEST PUSH1 0x0 PUSH2 0x3A5D PUSH1 0x1F DUP4 PUSH2 0x3F82 JUMP JUMPDEST SWAP2 POP PUSH32 0x5265656E7472616E637947756172643A207265656E7472616E742063616C6C00 PUSH1 0x0 DUP4 ADD MSTORE PUSH1 0x20 DUP3 ADD SWAP1 POP SWAP2 SWAP1 POP JUMP JUMPDEST PUSH1 0x0 PUSH2 0x3A9D PUSH1 0x12 DUP4 PUSH2 0x3F82 JUMP JUMPDEST SWAP2 POP PUSH32 0x6E6F7468696E6720746F20686172766573740000000000000000000000000000 PUSH1 0x0 DUP4 ADD MSTORE PUSH1 0x20 DUP3 ADD SWAP1 POP SWAP2 SWAP1 POP JUMP JUMPDEST PUSH1 0x0 PUSH2 0x3ADD PUSH1 0x13 DUP4 PUSH2 0x3F82 JUMP JUMPDEST SWAP2 POP PUSH32 0x6164643A207374616B65546F6B656E2064757000000000000000000000000000 PUSH1 0x0 DUP4 ADD MSTORE PUSH1 0x20 DUP3 ADD SWAP1 POP SWAP2 SWAP1 POP JUMP JUMPDEST PUSH2 0x3B19 DUP2 PUSH2 0x40E6 JUMP JUMPDEST DUP3 MSTORE POP POP JUMP JUMPDEST PUSH1 0x0 PUSH2 0x3B2B DUP3 DUP5 PUSH2 0x3468 JUMP JUMPDEST SWAP2 POP DUP2 SWAP1 POP SWAP3 SWAP2 POP POP JUMP JUMPDEST PUSH1 0x0 PUSH1 0x20 DUP3 ADD SWAP1 POP PUSH2 0x3B4B PUSH1 0x0 DUP4 ADD DUP5 PUSH2 0x344A JUMP JUMPDEST SWAP3 SWAP2 POP POP JUMP JUMPDEST PUSH1 0x0 PUSH1 0x60 DUP3 ADD SWAP1 POP PUSH2 0x3B66 PUSH1 0x0 DUP4 ADD DUP7 PUSH2 0x344A JUMP JUMPDEST PUSH2 0x3B73 PUSH1 0x20 DUP4 ADD DUP6 PUSH2 0x344A JUMP JUMPDEST PUSH2 0x3B80 PUSH1 0x40 DUP4 ADD DUP5 PUSH2 0x3B10 JUMP JUMPDEST SWAP5 SWAP4 POP POP POP POP JUMP JUMPDEST PUSH1 0x0 PUSH1 0x40 DUP3 ADD SWAP1 POP PUSH2 0x3B9D PUSH1 0x0 DUP4 ADD DUP6 PUSH2 0x344A JUMP JUMPDEST PUSH2 0x3BAA PUSH1 0x20 DUP4 ADD DUP5 PUSH2 0x3B10 JUMP JUMPDEST SWAP4 SWAP3 POP POP POP JUMP JUMPDEST PUSH1 0x0 PUSH1 0xA0 DUP3 ADD SWAP1 POP PUSH2 0x3BC6 PUSH1 0x0 DUP4 ADD DUP9 PUSH2 0x344A JUMP JUMPDEST PUSH2 0x3BD3 PUSH1 0x20 DUP4 ADD DUP8 PUSH2 0x3B10 JUMP JUMPDEST PUSH2 0x3BE0 PUSH1 0x40 DUP4 ADD DUP7 PUSH2 0x3B10 JUMP JUMPDEST PUSH2 0x3BED PUSH1 0x60 DUP4 ADD DUP6 PUSH2 0x3B10 JUMP JUMPDEST PUSH2 0x3BFA PUSH1 0x80 DUP4 ADD DUP5 PUSH2 0x3B10 JUMP JUMPDEST SWAP7 SWAP6 POP POP POP POP POP POP JUMP JUMPDEST PUSH1 0x0 PUSH1 0x20 DUP3 ADD SWAP1 POP PUSH2 0x3C19 PUSH1 0x0 DUP4 ADD DUP5 PUSH2 0x3459 JUMP JUMPDEST SWAP3 SWAP2 POP POP JUMP JUMPDEST PUSH1 0x0 PUSH1 0x20 DUP3 ADD SWAP1 POP DUP2 DUP2 SUB PUSH1 0x0 DUP4 ADD MSTORE PUSH2 0x3C39 DUP2 DUP5 PUSH2 0x3499 JUMP JUMPDEST SWAP1 POP SWAP3 SWAP2 POP POP JUMP JUMPDEST PUSH1 0x0 PUSH1 0x20 DUP3 ADD SWAP1 POP DUP2 DUP2 SUB PUSH1 0x0 DUP4 ADD MSTORE PUSH2 0x3C5A DUP2 PUSH2 0x34D2 JUMP JUMPDEST SWAP1 POP SWAP2 SWAP1 POP JUMP JUMPDEST PUSH1 0x0 PUSH1 0x20 DUP3 ADD SWAP1 POP DUP2 DUP2 SUB PUSH1 0x0 DUP4 ADD MSTORE PUSH2 0x3C7A DUP2 PUSH2 0x3538 JUMP JUMPDEST SWAP1 POP SWAP2 SWAP1 POP JUMP JUMPDEST PUSH1 0x0 PUSH1 0x20 DUP3 ADD SWAP1 POP DUP2 DUP2 SUB PUSH1 0x0 DUP4 ADD MSTORE PUSH2 0x3C9A DUP2 PUSH2 0x3578 JUMP JUMPDEST SWAP1 POP SWAP2 SWAP1 POP JUMP JUMPDEST PUSH1 0x0 PUSH1 0x20 DUP3 ADD SWAP1 POP DUP2 DUP2 SUB PUSH1 0x0 DUP4 ADD MSTORE PUSH2 0x3CBA DUP2 PUSH2 0x35B8 JUMP JUMPDEST SWAP1 POP SWAP2 SWAP1 POP JUMP JUMPDEST PUSH1 0x0 PUSH1 0x20 DUP3 ADD SWAP1 POP DUP2 DUP2 SUB PUSH1 0x0 DUP4 ADD MSTORE PUSH2 0x3CDA DUP2 PUSH2 0x361E JUMP JUMPDEST SWAP1 POP SWAP2 SWAP1 POP JUMP JUMPDEST PUSH1 0x0 PUSH1 0x20 DUP3 ADD SWAP1 POP DUP2 DUP2 SUB PUSH1 0x0 DUP4 ADD MSTORE PUSH2 0x3CFA DUP2 PUSH2 0x365E JUMP JUMPDEST SWAP1 POP SWAP2 SWAP1 POP JUMP JUMPDEST PUSH1 0x0 PUSH1 0x20 DUP3 ADD SWAP1 POP DUP2 DUP2 SUB PUSH1 0x0 DUP4 ADD MSTORE PUSH2 0x3D1A DUP2 PUSH2 0x369E JUMP JUMPDEST SWAP1 POP SWAP2 SWAP1 POP JUMP JUMPDEST PUSH1 0x0 PUSH1 0x20 DUP3 ADD SWAP1 POP DUP2 DUP2 SUB PUSH1 0x0 DUP4 ADD MSTORE PUSH2 0x3D3A DUP2 PUSH2 0x36DE JUMP JUMPDEST SWAP1 POP SWAP2 SWAP1 POP JUMP JUMPDEST PUSH1 0x0 PUSH1 0x20 DUP3 ADD SWAP1 POP DUP2 DUP2 SUB PUSH1 0x0 DUP4 ADD MSTORE PUSH2 0x3D5A DUP2 PUSH2 0x3744 JUMP JUMPDEST SWAP1 POP SWAP2 SWAP1 POP JUMP JUMPDEST PUSH1 0x0 PUSH1 0x20 DUP3 ADD SWAP1 POP DUP2 DUP2 SUB PUSH1 0x0 DUP4 ADD MSTORE PUSH2 0x3D7A DUP2 PUSH2 0x3784 JUMP JUMPDEST SWAP1 POP SWAP2 SWAP1 POP JUMP JUMPDEST PUSH1 0x0 PUSH1 0x20 DUP3 ADD SWAP1 POP DUP2 DUP2 SUB PUSH1 0x0 DUP4 ADD MSTORE PUSH2 0x3D9A DUP2 PUSH2 0x37C4 JUMP JUMPDEST SWAP1 POP SWAP2 SWAP1 POP JUMP JUMPDEST PUSH1 0x0 PUSH1 0x20 DUP3 ADD SWAP1 POP DUP2 DUP2 SUB PUSH1 0x0 DUP4 ADD MSTORE PUSH2 0x3DBA DUP2 PUSH2 0x382A JUMP JUMPDEST SWAP1 POP SWAP2 SWAP1 POP JUMP JUMPDEST PUSH1 0x0 PUSH1 0x20 DUP3 ADD SWAP1 POP DUP2 DUP2 SUB PUSH1 0x0 DUP4 ADD MSTORE PUSH2 0x3DDA DUP2 PUSH2 0x386A JUMP JUMPDEST SWAP1 POP SWAP2 SWAP1 POP JUMP JUMPDEST PUSH1 0x0 PUSH1 0x20 DUP3 ADD SWAP1 POP DUP2 DUP2 SUB PUSH1 0x0 DUP4 ADD MSTORE PUSH2 0x3DFA DUP2 PUSH2 0x38AA JUMP JUMPDEST SWAP1 POP SWAP2 SWAP1 POP JUMP JUMPDEST PUSH1 0x0 PUSH1 0x20 DUP3 ADD SWAP1 POP DUP2 DUP2 SUB PUSH1 0x0 DUP4 ADD MSTORE PUSH2 0x3E1A DUP2 PUSH2 0x38EA JUMP JUMPDEST SWAP1 POP SWAP2 SWAP1 POP JUMP JUMPDEST PUSH1 0x0 PUSH1 0x20 DUP3 ADD SWAP1 POP DUP2 DUP2 SUB PUSH1 0x0 DUP4 ADD MSTORE PUSH2 0x3E3A DUP2 PUSH2 0x392A JUMP JUMPDEST SWAP1 POP SWAP2 SWAP1 POP JUMP JUMPDEST PUSH1 0x0 PUSH1 0x20 DUP3 ADD SWAP1 POP DUP2 DUP2 SUB PUSH1 0x0 DUP4 ADD MSTORE PUSH2 0x3E5A DUP2 PUSH2 0x396A JUMP JUMPDEST SWAP1 POP SWAP2 SWAP1 POP JUMP JUMPDEST PUSH1 0x0 PUSH1 0x20 DUP3 ADD SWAP1 POP DUP2 DUP2 SUB PUSH1 0x0 DUP4 ADD MSTORE PUSH2 0x3E7A DUP2 PUSH2 0x39AA JUMP JUMPDEST SWAP1 POP SWAP2 SWAP1 POP JUMP JUMPDEST PUSH1 0x0 PUSH1 0x20 DUP3 ADD SWAP1 POP DUP2 DUP2 SUB PUSH1 0x0 DUP4 ADD MSTORE PUSH2 0x3E9A DUP2 PUSH2 0x39EA JUMP JUMPDEST SWAP1 POP SWAP2 SWAP1 POP JUMP JUMPDEST PUSH1 0x0 PUSH1 0x20 DUP3 ADD SWAP1 POP DUP2 DUP2 SUB PUSH1 0x0 DUP4 ADD MSTORE PUSH2 0x3EBA DUP2 PUSH2 0x3A50 JUMP JUMPDEST SWAP1 POP SWAP2 SWAP1 POP JUMP JUMPDEST PUSH1 0x0 PUSH1 0x20 DUP3 ADD SWAP1 POP DUP2 DUP2 SUB PUSH1 0x0 DUP4 ADD MSTORE PUSH2 0x3EDA DUP2 PUSH2 0x3A90 JUMP JUMPDEST SWAP1 POP SWAP2 SWAP1 POP JUMP JUMPDEST PUSH1 0x0 PUSH1 0x20 DUP3 ADD SWAP1 POP DUP2 DUP2 SUB PUSH1 0x0 DUP4 ADD MSTORE PUSH2 0x3EFA DUP2 PUSH2 0x3AD0 JUMP JUMPDEST SWAP1 POP SWAP2 SWAP1 POP JUMP JUMPDEST PUSH1 0x0 PUSH1 0x20 DUP3 ADD SWAP1 POP PUSH2 0x3F16 PUSH1 0x0 DUP4 ADD DUP5 PUSH2 0x3B10 JUMP JUMPDEST SWAP3 SWAP2 POP POP JUMP JUMPDEST PUSH1 0x0 PUSH1 0x80 DUP3 ADD SWAP1 POP PUSH2 0x3F31 PUSH1 0x0 DUP4 ADD DUP8 PUSH2 0x3B10 JUMP JUMPDEST PUSH2 0x3F3E PUSH1 0x20 DUP4 ADD DUP7 PUSH2 0x3B10 JUMP JUMPDEST PUSH2 0x3F4B PUSH1 0x40 DUP4 ADD DUP6 PUSH2 0x3B10 JUMP JUMPDEST PUSH2 0x3F58 PUSH1 0x60 DUP4 ADD DUP5 PUSH2 0x344A JUMP JUMPDEST SWAP6 SWAP5 POP POP POP POP POP JUMP JUMPDEST PUSH1 0x0 DUP2 MLOAD SWAP1 POP SWAP2 SWAP1 POP JUMP JUMPDEST PUSH1 0x0 DUP2 MLOAD SWAP1 POP SWAP2 SWAP1 POP JUMP JUMPDEST PUSH1 0x0 DUP2 SWAP1 POP SWAP3 SWAP2 POP POP JUMP JUMPDEST PUSH1 0x0 DUP3 DUP3 MSTORE PUSH1 0x20 DUP3 ADD SWAP1 POP SWAP3 SWAP2 POP POP JUMP JUMPDEST PUSH1 0x0 PUSH2 0x3F9E DUP3 PUSH2 0x40E6 JUMP JUMPDEST SWAP2 POP PUSH2 0x3FA9 DUP4 PUSH2 0x40E6 JUMP JUMPDEST SWAP3 POP DUP3 PUSH32 0xFFFFFFFFFFFFFFFFFFFFFFFFFFFFFFFFFFFFFFFFFFFFFFFFFFFFFFFFFFFFFFFF SUB DUP3 GT ISZERO PUSH2 0x3FDE JUMPI PUSH2 0x3FDD PUSH2 0x416C JUMP JUMPDEST JUMPDEST DUP3 DUP3 ADD SWAP1 POP SWAP3 SWAP2 POP POP JUMP JUMPDEST PUSH1 0x0 PUSH2 0x3FF4 DUP3 PUSH2 0x40E6 JUMP JUMPDEST SWAP2 POP PUSH2 0x3FFF DUP4 PUSH2 0x40E6 JUMP JUMPDEST SWAP3 POP DUP3 PUSH2 0x400F JUMPI PUSH2 0x400E PUSH2 0x419B JUMP JUMPDEST JUMPDEST DUP3 DUP3 DIV SWAP1 POP SWAP3 SWAP2 POP POP JUMP JUMPDEST PUSH1 0x0 PUSH2 0x4025 DUP3 PUSH2 0x40E6 JUMP JUMPDEST SWAP2 POP PUSH2 0x4030 DUP4 PUSH2 0x40E6 JUMP JUMPDEST SWAP3 POP DUP2 PUSH32 0xFFFFFFFFFFFFFFFFFFFFFFFFFFFFFFFFFFFFFFFFFFFFFFFFFFFFFFFFFFFFFFFF DIV DUP4 GT DUP3 ISZERO ISZERO AND ISZERO PUSH2 0x4069 JUMPI PUSH2 0x4068 PUSH2 0x416C JUMP JUMPDEST JUMPDEST DUP3 DUP3 MUL SWAP1 POP SWAP3 SWAP2 POP POP JUMP JUMPDEST PUSH1 0x0 PUSH2 0x407F DUP3 PUSH2 0x40E6 JUMP JUMPDEST SWAP2 POP PUSH2 0x408A DUP4 PUSH2 0x40E6 JUMP JUMPDEST SWAP3 POP DUP3 DUP3 LT ISZERO PUSH2 0x409D JUMPI PUSH2 0x409C PUSH2 0x416C JUMP JUMPDEST JUMPDEST DUP3 DUP3 SUB SWAP1 POP SWAP3 SWAP2 POP POP JUMP JUMPDEST PUSH1 0x0 PUSH2 0x40B3 DUP3 PUSH2 0x40C6 JUMP JUMPDEST SWAP1 POP SWAP2 SWAP1 POP JUMP JUMPDEST PUSH1 0x0 DUP2 ISZERO ISZERO SWAP1 POP SWAP2 SWAP1 POP JUMP JUMPDEST PUSH1 0x0 PUSH20 0xFFFFFFFFFFFFFFFFFFFFFFFFFFFFFFFFFFFFFFFF DUP3 AND SWAP1 POP SWAP2 SWAP1 POP JUMP JUMPDEST PUSH1 0x0 DUP2 SWAP1 POP SWAP2 SWAP1 POP JUMP JUMPDEST PUSH1 0x0 JUMPDEST DUP4 DUP2 LT ISZERO PUSH2 0x410E JUMPI DUP1 DUP3 ADD MLOAD DUP2 DUP5 ADD MSTORE PUSH1 0x20 DUP2 ADD SWAP1 POP PUSH2 0x40F3 JUMP JUMPDEST DUP4 DUP2 GT ISZERO PUSH2 0x411D JUMPI PUSH1 0x0 DUP5 DUP5 ADD MSTORE JUMPDEST POP POP POP POP JUMP JUMPDEST PUSH1 0x0 PUSH2 0x412E DUP3 PUSH2 0x40E6 JUMP JUMPDEST SWAP2 POP PUSH32 0xFFFFFFFFFFFFFFFFFFFFFFFFFFFFFFFFFFFFFFFFFFFFFFFFFFFFFFFFFFFFFFFF DUP3 EQ ISZERO PUSH2 0x4161 JUMPI PUSH2 0x4160 PUSH2 0x416C JUMP JUMPDEST JUMPDEST PUSH1 0x1 DUP3 ADD SWAP1 POP SWAP2 SWAP1 POP JUMP JUMPDEST PUSH32 0x4E487B7100000000000000000000000000000000000000000000000000000000 PUSH1 0x0 MSTORE PUSH1 0x11 PUSH1 0x4 MSTORE PUSH1 0x24 PUSH1 0x0 REVERT JUMPDEST PUSH32 0x4E487B7100000000000000000000000000000000000000000000000000000000 PUSH1 0x0 MSTORE PUSH1 0x12 PUSH1 0x4 MSTORE PUSH1 0x24 PUSH1 0x0 REVERT JUMPDEST PUSH1 0x0 PUSH1 0x1F NOT PUSH1 0x1F DUP4 ADD AND SWAP1 POP SWAP2 SWAP1 POP JUMP JUMPDEST PUSH2 0x41E4 DUP2 PUSH2 0x40A8 JUMP JUMPDEST DUP2 EQ PUSH2 0x41EF JUMPI PUSH1 0x0 DUP1 REVERT JUMPDEST POP JUMP JUMPDEST PUSH2 0x41FB DUP2 PUSH2 0x40BA JUMP JUMPDEST DUP2 EQ PUSH2 0x4206 JUMPI PUSH1 0x0 DUP1 REVERT JUMPDEST POP JUMP JUMPDEST PUSH2 0x4212 DUP2 PUSH2 0x40E6 JUMP JUMPDEST DUP2 EQ PUSH2 0x421D JUMPI PUSH1 0x0 DUP1 REVERT JUMPDEST POP JUMP INVALID LOG2 PUSH5 0x6970667358 0x22 SLT KECCAK256 0xE5 NUMBER BYTE DUP1 0x28 0x4B INVALID 0xB5 0xAD DUP14 0xF8 0xC3 ISZERO SSTORE 0x1E PUSH15 0x969E33C52116A3412FCEC45FAFEA6B LT PUSH5 0x736F6C6343 STOP ADDMOD STOP STOP CALLER "
				},
				"gasEstimates": {
					"creation": {
						"codeDepositCost": "3396400",
						"executionCost": "infinite",
						"totalCost": "infinite"
					},
					"external": {
						"addPool(uint256,address,bool)": "infinite",
						"bonusEndBlock()": "1197",
						"bonusMultiplier()": "1218",
						"deposit(address,uint256,uint256)": "infinite",
						"devaddr()": "1325",
						"emergencyWithdraw(uint256)": "infinite",
						"executor(address)": "1635",
						"getBlock()": "382",
						"getMultiplier(uint256,uint256)": "infinite",
						"harvest(uint256)": "infinite",
						"isDuplicatedPool(address)": "infinite",
						"manualMint(address,uint256)": "infinite",
						"massUpdatePools()": "infinite",
						"owner()": "1312",
						"pendingSea(uint256,address)": "infinite",
						"poolInfo(uint256)": "infinite",
						"poolLength()": "1214",
						"renounceOwnership()": "24420",
						"sea()": "1259",
						"seaPerBlock()": "1239",
						"setBonus(uint256,uint256)": "infinite",
						"setDev(address)": "23550",
						"setExecutor(address,bool)": "infinite",
						"setPool(uint256,uint256,bool)": "infinite",
						"setSeaPerBlock(uint256)": "22559",
						"startBlock()": "1241",
						"totalAllocPoint()": "1175",
						"transferOwnership(address)": "24855",
						"updatePool(uint256)": "infinite",
						"userInfo(uint256,address)": "infinite",
						"withdraw(address,uint256,uint256)": "infinite",
						"withdrawAll(address,uint256)": "infinite",
						"withdrawalERC20(address,uint256)": "infinite"
					},
					"internal": {
						"_harvest(address,uint256)": "infinite",
						"_withdraw(address,uint256,uint256)": "infinite",
						"safeSeaTransfer(address,uint256)": "infinite"
					}
				},
				"methodIdentifiers": {
					"addPool(uint256,address,bool)": "7abceffd",
					"bonusEndBlock()": "1aed6553",
					"bonusMultiplier()": "a8b973a1",
					"deposit(address,uint256,uint256)": "0efe6a8b",
					"devaddr()": "d49e77cd",
					"emergencyWithdraw(uint256)": "5312ea8e",
					"executor(address)": "48c7e528",
					"getBlock()": "2e97766d",
					"getMultiplier(uint256,uint256)": "8dbb1e3a",
					"harvest(uint256)": "ddc63262",
					"isDuplicatedPool(address)": "b03df69d",
					"manualMint(address,uint256)": "e4c5ff46",
					"massUpdatePools()": "630b5ba1",
					"owner()": "8da5cb5b",
					"pendingSea(uint256,address)": "24cdee22",
					"poolInfo(uint256)": "1526fe27",
					"poolLength()": "081e3eda",
					"renounceOwnership()": "715018a6",
					"sea()": "4ecaac41",
					"seaPerBlock()": "f1101804",
					"setBonus(uint256,uint256)": "037c99b0",
					"setDev(address)": "d477f05f",
					"setExecutor(address,bool)": "1e1bff3f",
					"setPool(uint256,uint256,bool)": "46ca6bea",
					"setSeaPerBlock(uint256)": "d4a91e38",
					"startBlock()": "48cd4cb1",
					"totalAllocPoint()": "17caf6f1",
					"transferOwnership(address)": "f2fde38b",
					"updatePool(uint256)": "51eb05a6",
					"userInfo(uint256,address)": "93f1a40b",
					"withdraw(address,uint256,uint256)": "b5c5f672",
					"withdrawAll(address,uint256)": "cc6dbc27",
					"withdrawalERC20(address,uint256)": "930ed033"
				}
			},
			"storageLayout": {
				"storage": [
					{
						"astId": 7,
						"contract": "contracts/farm.sol:FairLaunch",
						"label": "_owner",
						"offset": 0,
						"slot": "0",
						"type": "t_address"
					},
					{
						"astId": 1069,
						"contract": "contracts/farm.sol:FairLaunch",
						"label": "_guardCounter",
						"offset": 0,
						"slot": "1",
						"type": "t_uint256"
					},
					{
						"astId": 1214,
						"contract": "contracts/farm.sol:FairLaunch",
						"label": "sea",
						"offset": 0,
						"slot": "2",
						"type": "t_address"
					},
					{
						"astId": 1216,
						"contract": "contracts/farm.sol:FairLaunch",
						"label": "devaddr",
						"offset": 0,
						"slot": "3",
						"type": "t_address"
					},
					{
						"astId": 1218,
						"contract": "contracts/farm.sol:FairLaunch",
						"label": "seaPerBlock",
						"offset": 0,
						"slot": "4",
						"type": "t_uint256"
					},
					{
						"astId": 1220,
						"contract": "contracts/farm.sol:FairLaunch",
						"label": "bonusMultiplier",
						"offset": 0,
						"slot": "5",
						"type": "t_uint256"
					},
					{
						"astId": 1222,
						"contract": "contracts/farm.sol:FairLaunch",
						"label": "bonusEndBlock",
						"offset": 0,
						"slot": "6",
						"type": "t_uint256"
					},
					{
						"astId": 1226,
						"contract": "contracts/farm.sol:FairLaunch",
						"label": "poolInfo",
						"offset": 0,
						"slot": "7",
						"type": "t_array(t_struct(PoolInfo)1212_storage)dyn_storage"
					},
					{
						"astId": 1233,
						"contract": "contracts/farm.sol:FairLaunch",
						"label": "userInfo",
						"offset": 0,
						"slot": "8",
						"type": "t_mapping(t_uint256,t_mapping(t_address,t_struct(UserInfo)1201_storage))"
					},
					{
						"astId": 1235,
						"contract": "contracts/farm.sol:FairLaunch",
						"label": "totalAllocPoint",
						"offset": 0,
						"slot": "9",
						"type": "t_uint256"
					},
					{
						"astId": 1237,
						"contract": "contracts/farm.sol:FairLaunch",
						"label": "startBlock",
						"offset": 0,
						"slot": "10",
						"type": "t_uint256"
					},
					{
						"astId": 1241,
						"contract": "contracts/farm.sol:FairLaunch",
						"label": "executor",
						"offset": 0,
						"slot": "11",
						"type": "t_mapping(t_address,t_bool)"
					}
				],
				"types": {
					"t_address": {
						"encoding": "inplace",
						"label": "address",
						"numberOfBytes": "20"
					},
					"t_array(t_struct(PoolInfo)1212_storage)dyn_storage": {
						"base": "t_struct(PoolInfo)1212_storage",
						"encoding": "dynamic_array",
						"label": "struct FairLaunch.PoolInfo[]",
						"numberOfBytes": "32"
					},
					"t_bool": {
						"encoding": "inplace",
						"label": "bool",
						"numberOfBytes": "1"
					},
					"t_mapping(t_address,t_bool)": {
						"encoding": "mapping",
						"key": "t_address",
						"label": "mapping(address => bool)",
						"numberOfBytes": "32",
						"value": "t_bool"
					},
					"t_mapping(t_address,t_struct(UserInfo)1201_storage)": {
						"encoding": "mapping",
						"key": "t_address",
						"label": "mapping(address => struct FairLaunch.UserInfo)",
						"numberOfBytes": "32",
						"value": "t_struct(UserInfo)1201_storage"
					},
					"t_mapping(t_uint256,t_mapping(t_address,t_struct(UserInfo)1201_storage))": {
						"encoding": "mapping",
						"key": "t_uint256",
						"label": "mapping(uint256 => mapping(address => struct FairLaunch.UserInfo))",
						"numberOfBytes": "32",
						"value": "t_mapping(t_address,t_struct(UserInfo)1201_storage)"
					},
					"t_struct(PoolInfo)1212_storage": {
						"encoding": "inplace",
						"label": "struct FairLaunch.PoolInfo",
						"members": [
							{
								"astId": 1203,
								"contract": "contracts/farm.sol:FairLaunch",
								"label": "stakeToken",
								"offset": 0,
								"slot": "0",
								"type": "t_address"
							},
							{
								"astId": 1205,
								"contract": "contracts/farm.sol:FairLaunch",
								"label": "allocPoint",
								"offset": 0,
								"slot": "1",
								"type": "t_uint256"
							},
							{
								"astId": 1207,
								"contract": "contracts/farm.sol:FairLaunch",
								"label": "lastRewardBlock",
								"offset": 0,
								"slot": "2",
								"type": "t_uint256"
							},
							{
								"astId": 1209,
								"contract": "contracts/farm.sol:FairLaunch",
								"label": "accSeaPerShare",
								"offset": 0,
								"slot": "3",
								"type": "t_uint256"
							},
							{
								"astId": 1211,
								"contract": "contracts/farm.sol:FairLaunch",
								"label": "accSeaPerShareTilBonusEnd",
								"offset": 0,
								"slot": "4",
								"type": "t_uint256"
							}
						],
						"numberOfBytes": "160"
					},
					"t_struct(UserInfo)1201_storage": {
						"encoding": "inplace",
						"label": "struct FairLaunch.UserInfo",
						"members": [
							{
								"astId": 1194,
								"contract": "contracts/farm.sol:FairLaunch",
								"label": "amount",
								"offset": 0,
								"slot": "0",
								"type": "t_uint256"
							},
							{
								"astId": 1196,
								"contract": "contracts/farm.sol:FairLaunch",
								"label": "rewardDebt",
								"offset": 0,
								"slot": "1",
								"type": "t_uint256"
							},
							{
								"astId": 1198,
								"contract": "contracts/farm.sol:FairLaunch",
								"label": "bonusDebt",
								"offset": 0,
								"slot": "2",
								"type": "t_uint256"
							},
							{
								"astId": 1200,
								"contract": "contracts/farm.sol:FairLaunch",
								"label": "fundedBy",
								"offset": 0,
								"slot": "3",
								"type": "t_address"
							}
						],
						"numberOfBytes": "128"
					},
					"t_uint256": {
						"encoding": "inplace",
						"label": "uint256",
						"numberOfBytes": "32"
					}
				}
			},
			"userdoc": {
				"kind": "user",
				"methods": {},
				"version": 1
			}
		}
	}
}