{
	"contracts/mirrorseaMain.sol": {
		"mirrorseaMain": {
			"abi": [
				{
					"anonymous": false,
					"inputs": [
						{
							"indexed": true,
							"internalType": "address",
							"name": "previousOwner",
							"type": "address"
						},
						{
							"indexed": true,
							"internalType": "address",
							"name": "newOwner",
							"type": "address"
						}
					],
					"name": "OwnershipTransferred",
					"type": "event"
				},
				{
					"inputs": [],
					"name": "OrderIndex",
					"outputs": [
						{
							"internalType": "uint256",
							"name": "",
							"type": "uint256"
						}
					],
					"stateMutability": "view",
					"type": "function"
				},
				{
					"inputs": [],
					"name": "PRECISION",
					"outputs": [
						{
							"internalType": "uint256",
							"name": "",
							"type": "uint256"
						}
					],
					"stateMutability": "view",
					"type": "function"
				},
				{
					"inputs": [
						{
							"internalType": "uint256",
							"name": "_id",
							"type": "uint256"
						},
						{
							"internalType": "uint256",
							"name": "_timestamp",
							"type": "uint256"
						},
						{
							"internalType": "string",
							"name": "_symbols",
							"type": "string"
						},
						{
							"internalType": "uint256",
							"name": "_price18",
							"type": "uint256"
						},
						{
							"internalType": "bytes",
							"name": "_signature",
							"type": "bytes"
						},
						{
							"internalType": "uint256",
							"name": "_adjustMargin",
							"type": "uint256"
						}
					],
					"name": "adjustPosition",
					"outputs": [
						{
							"internalType": "bool",
							"name": "",
							"type": "bool"
						}
					],
					"stateMutability": "nonpayable",
					"type": "function"
				},
				{
					"inputs": [
						{
							"internalType": "uint256",
							"name": "_id",
							"type": "uint256"
						},
						{
							"internalType": "uint256",
							"name": "_timestamp",
							"type": "uint256"
						},
						{
							"internalType": "string",
							"name": "_symbols",
							"type": "string"
						},
						{
							"internalType": "uint256",
							"name": "_price18",
							"type": "uint256"
						},
						{
							"internalType": "bytes",
							"name": "_signature",
							"type": "bytes"
						}
					],
					"name": "closePosition",
					"outputs": [
						{
							"internalType": "bool",
							"name": "",
							"type": "bool"
						}
					],
					"stateMutability": "nonpayable",
					"type": "function"
				},
				{
					"inputs": [
						{
							"internalType": "address",
							"name": "",
							"type": "address"
						}
					],
					"name": "executor",
					"outputs": [
						{
							"internalType": "bool",
							"name": "",
							"type": "bool"
						}
					],
					"stateMutability": "view",
					"type": "function"
				},
				{
					"inputs": [],
					"name": "feePercent",
					"outputs": [
						{
							"internalType": "uint256",
							"name": "",
							"type": "uint256"
						}
					],
					"stateMutability": "view",
					"type": "function"
				},
				{
					"inputs": [
						{
							"internalType": "uint256",
							"name": "_id",
							"type": "uint256"
						},
						{
							"internalType": "uint256",
							"name": "_timestamp",
							"type": "uint256"
						},
						{
							"internalType": "string",
							"name": "_symbols",
							"type": "string"
						},
						{
							"internalType": "uint256",
							"name": "_price18",
							"type": "uint256"
						},
						{
							"internalType": "bytes",
							"name": "_signature",
							"type": "bytes"
						}
					],
					"name": "forcedLiquidation",
					"outputs": [
						{
							"internalType": "bool",
							"name": "",
							"type": "bool"
						}
					],
					"stateMutability": "nonpayable",
					"type": "function"
				},
				{
					"inputs": [],
					"name": "helperLogic",
					"outputs": [
						{
							"internalType": "contract IhelperLogic",
							"name": "",
							"type": "address"
						}
					],
					"stateMutability": "view",
					"type": "function"
				},
				{
					"inputs": [
						{
							"internalType": "address",
							"name": "_signer",
							"type": "address"
						},
						{
							"internalType": "contract IhelperLogic",
							"name": "_helperLogic",
							"type": "address"
						},
						{
							"internalType": "contract IERC20Upgradeable",
							"name": "_usc",
							"type": "address"
						},
						{
							"internalType": "contract IOracle",
							"name": "_oracle",
							"type": "address"
						}
					],
					"name": "initialize",
					"outputs": [],
					"stateMutability": "nonpayable",
					"type": "function"
				},
				{
					"inputs": [
						{
							"internalType": "uint256[]",
							"name": "_id",
							"type": "uint256[]"
						},
						{
							"internalType": "uint256[]",
							"name": "_timestamp",
							"type": "uint256[]"
						},
						{
							"internalType": "string[]",
							"name": "_symbols",
							"type": "string[]"
						},
						{
							"internalType": "uint256[]",
							"name": "_price18",
							"type": "uint256[]"
						},
						{
							"internalType": "bytes[]",
							"name": "_signature",
							"type": "bytes[]"
						}
					],
					"name": "liquidation",
					"outputs": [
						{
							"internalType": "bool",
							"name": "",
							"type": "bool"
						}
					],
					"stateMutability": "nonpayable",
					"type": "function"
				},
				{
					"inputs": [],
					"name": "minVal",
					"outputs": [
						{
							"internalType": "uint256",
							"name": "",
							"type": "uint256"
						}
					],
					"stateMutability": "view",
					"type": "function"
				},
				{
					"inputs": [
						{
							"internalType": "address",
							"name": "",
							"type": "address"
						},
						{
							"internalType": "uint256",
							"name": "",
							"type": "uint256"
						}
					],
					"name": "myCloseOrderIdList",
					"outputs": [
						{
							"internalType": "uint256",
							"name": "",
							"type": "uint256"
						}
					],
					"stateMutability": "view",
					"type": "function"
				},
				{
					"inputs": [
						{
							"internalType": "address",
							"name": "_user",
							"type": "address"
						}
					],
					"name": "myCloseOrderIdListLength",
					"outputs": [
						{
							"internalType": "uint256[]",
							"name": "",
							"type": "uint256[]"
						}
					],
					"stateMutability": "view",
					"type": "function"
				},
				{
					"inputs": [
						{
							"internalType": "address",
							"name": "",
							"type": "address"
						},
						{
							"internalType": "uint256",
							"name": "",
							"type": "uint256"
						}
					],
					"name": "myCloseOrderIdList_index",
					"outputs": [
						{
							"internalType": "uint256",
							"name": "",
							"type": "uint256"
						}
					],
					"stateMutability": "view",
					"type": "function"
				},
				{
					"inputs": [
						{
							"internalType": "address",
							"name": "",
							"type": "address"
						},
						{
							"internalType": "uint256",
							"name": "",
							"type": "uint256"
						}
					],
					"name": "myOpenOrderIdList",
					"outputs": [
						{
							"internalType": "uint256",
							"name": "",
							"type": "uint256"
						}
					],
					"stateMutability": "view",
					"type": "function"
				},
				{
					"inputs": [
						{
							"internalType": "address",
							"name": "_user",
							"type": "address"
						}
					],
					"name": "myOpenOrderIdListLength",
					"outputs": [
						{
							"internalType": "uint256[]",
							"name": "",
							"type": "uint256[]"
						}
					],
					"stateMutability": "view",
					"type": "function"
				},
				{
					"inputs": [
						{
							"internalType": "address",
							"name": "",
							"type": "address"
						},
						{
							"internalType": "uint256",
							"name": "",
							"type": "uint256"
						}
					],
					"name": "myOpenOrderIdList_index",
					"outputs": [
						{
							"internalType": "uint256",
							"name": "",
							"type": "uint256"
						}
					],
					"stateMutability": "view",
					"type": "function"
				},
				{
					"inputs": [
						{
							"internalType": "uint256",
							"name": "",
							"type": "uint256"
						}
					],
					"name": "openOrderIdList",
					"outputs": [
						{
							"internalType": "uint256",
							"name": "",
							"type": "uint256"
						}
					],
					"stateMutability": "view",
					"type": "function"
				},
				{
					"inputs": [
						{
							"internalType": "uint256",
							"name": "",
							"type": "uint256"
						}
					],
					"name": "openOrderIdList_index",
					"outputs": [
						{
							"internalType": "uint256",
							"name": "",
							"type": "uint256"
						}
					],
					"stateMutability": "view",
					"type": "function"
				},
				{
					"inputs": [
						{
							"internalType": "uint256",
							"name": "_timestamp",
							"type": "uint256"
						},
						{
							"internalType": "uint256",
							"name": "_direction",
							"type": "uint256"
						},
						{
							"internalType": "uint256",
							"name": "_type",
							"type": "uint256"
						},
						{
							"internalType": "string",
							"name": "_symbols",
							"type": "string"
						},
						{
							"internalType": "uint256",
							"name": "_price18",
							"type": "uint256"
						},
						{
							"internalType": "uint256",
							"name": "_amt",
							"type": "uint256"
						},
						{
							"internalType": "bytes",
							"name": "_signature",
							"type": "bytes"
						}
					],
					"name": "openPosition",
					"outputs": [
						{
							"internalType": "bool",
							"name": "",
							"type": "bool"
						}
					],
					"stateMutability": "nonpayable",
					"type": "function"
				},
				{
					"inputs": [],
					"name": "oracle",
					"outputs": [
						{
							"internalType": "contract IOracle",
							"name": "",
							"type": "address"
						}
					],
					"stateMutability": "view",
					"type": "function"
				},
				{
					"inputs": [
						{
							"internalType": "uint256",
							"name": "_id",
							"type": "uint256"
						}
					],
					"name": "orderInfo",
					"outputs": [
						{
							"components": [
								{
									"internalType": "address",
									"name": "user",
									"type": "address"
								},
								{
									"internalType": "uint256",
									"name": "_type",
									"type": "uint256"
								},
								{
									"internalType": "string",
									"name": "symbols",
									"type": "string"
								},
								{
									"internalType": "uint256",
									"name": "state",
									"type": "uint256"
								},
								{
									"internalType": "uint256",
									"name": "direction",
									"type": "uint256"
								},
								{
									"internalType": "uint256",
									"name": "openPrice18",
									"type": "uint256"
								},
								{
									"internalType": "uint256",
									"name": "openTime",
									"type": "uint256"
								},
								{
									"internalType": "uint256",
									"name": "closePrice18",
									"type": "uint256"
								},
								{
									"internalType": "uint256",
									"name": "closeTime",
									"type": "uint256"
								},
								{
									"internalType": "uint256",
									"name": "amt",
									"type": "uint256"
								},
								{
									"internalType": "uint256",
									"name": "margin",
									"type": "uint256"
								}
							],
							"internalType": "struct mirrorseaMain.OrderInfo",
							"name": "",
							"type": "tuple"
						}
					],
					"stateMutability": "view",
					"type": "function"
				},
				{
					"inputs": [],
					"name": "owner",
					"outputs": [
						{
							"internalType": "address",
							"name": "",
							"type": "address"
						}
					],
					"stateMutability": "view",
					"type": "function"
				},
				{
					"inputs": [
						{
							"internalType": "address",
							"name": "_user",
							"type": "address"
						},
						{
							"internalType": "uint256",
							"name": "_type",
							"type": "uint256"
						},
						{
							"internalType": "uint256",
							"name": "_row",
							"type": "uint256"
						},
						{
							"internalType": "uint256",
							"name": "_page",
							"type": "uint256"
						}
					],
					"name": "pagination",
					"outputs": [
						{
							"internalType": "uint256[]",
							"name": "",
							"type": "uint256[]"
						}
					],
					"stateMutability": "view",
					"type": "function"
				},
				{
					"inputs": [],
					"name": "renounceOwnership",
					"outputs": [],
					"stateMutability": "nonpayable",
					"type": "function"
				},
				{
					"inputs": [
						{
							"internalType": "address",
							"name": "_address",
							"type": "address"
						},
						{
							"internalType": "bool",
							"name": "_type",
							"type": "bool"
						}
					],
					"name": "setExecutor",
					"outputs": [
						{
							"internalType": "bool",
							"name": "",
							"type": "bool"
						}
					],
					"stateMutability": "nonpayable",
					"type": "function"
				},
				{
					"inputs": [
						{
							"internalType": "uint256",
							"name": "id",
							"type": "uint256"
						},
						{
							"internalType": "address",
							"name": "user",
							"type": "address"
						},
						{
							"internalType": "uint256",
							"name": "_type",
							"type": "uint256"
						},
						{
							"internalType": "string",
							"name": "symbols",
							"type": "string"
						},
						{
							"internalType": "uint256",
							"name": "state",
							"type": "uint256"
						},
						{
							"internalType": "uint256",
							"name": "direction",
							"type": "uint256"
						},
						{
							"internalType": "uint256",
							"name": "openPrice18",
							"type": "uint256"
						},
						{
							"internalType": "uint256",
							"name": "openTime",
							"type": "uint256"
						},
						{
							"internalType": "uint256",
							"name": "closePrice18",
							"type": "uint256"
						},
						{
							"internalType": "uint256",
							"name": "closeTime",
							"type": "uint256"
						},
						{
							"internalType": "uint256",
							"name": "amt",
							"type": "uint256"
						},
						{
							"internalType": "uint256",
							"name": "margin",
							"type": "uint256"
						}
					],
					"name": "setOrderInfo",
					"outputs": [
						{
							"internalType": "bool",
							"name": "",
							"type": "bool"
						}
					],
					"stateMutability": "nonpayable",
					"type": "function"
				},
				{
					"inputs": [
						{
							"internalType": "address",
							"name": "_address",
							"type": "address"
						}
					],
					"name": "setSigner",
					"outputs": [
						{
							"internalType": "bool",
							"name": "",
							"type": "bool"
						}
					],
					"stateMutability": "nonpayable",
					"type": "function"
				},
				{
					"inputs": [],
					"name": "signer",
					"outputs": [
						{
							"internalType": "address",
							"name": "",
							"type": "address"
						}
					],
					"stateMutability": "view",
					"type": "function"
				},
				{
					"inputs": [
						{
							"internalType": "address",
							"name": "newOwner",
							"type": "address"
						}
					],
					"name": "transferOwnership",
					"outputs": [],
					"stateMutability": "nonpayable",
					"type": "function"
				},
				{
					"inputs": [],
					"name": "usc",
					"outputs": [
						{
							"internalType": "contract IERC20Upgradeable",
							"name": "",
							"type": "address"
						}
					],
					"stateMutability": "view",
					"type": "function"
				}
			],
			"devdoc": {
				"kind": "dev",
				"methods": {
					"owner()": {
						"details": "Returns the address of the current owner."
					},
					"renounceOwnership()": {
						"details": "Leaves the contract without owner. It will not be possible to call `onlyOwner` functions anymore. Can only be called by the current owner. NOTE: Renouncing ownership will leave the contract without an owner, thereby removing any functionality that is only available to the owner."
					},
					"transferOwnership(address)": {
						"details": "Transfers ownership of the contract to a new account (`newOwner`). Can only be called by the current owner."
					}
				},
				"version": 1
			},
			"evm": {
				"assembly": "    /* \"contracts/mirrorseaMain.sol\":883:14423  contract mirrorseaMain is Initializable, OwnableUpgradeable {... */\n  mstore(0x40, 0x80)\n  callvalue\n  dup1\n  iszero\n  tag_1\n  jumpi\n  0x00\n  dup1\n  revert\ntag_1:\n  pop\n  dataSize(sub_0)\n  dup1\n  dataOffset(sub_0)\n  0x00\n  codecopy\n  0x00\n  return\nstop\n\nsub_0: assembly {\n        /* \"contracts/mirrorseaMain.sol\":883:14423  contract mirrorseaMain is Initializable, OwnableUpgradeable {... */\n      mstore(0x40, 0x80)\n      callvalue\n      dup1\n      iszero\n      tag_1\n      jumpi\n      0x00\n      dup1\n      revert\n    tag_1:\n      pop\n      jumpi(tag_2, lt(calldatasize, 0x04))\n      shr(0xe0, calldataload(0x00))\n      dup1\n      0x7fd6f15c\n      gt\n      tag_34\n      jumpi\n      dup1\n      0xe4e95520\n      gt\n      tag_35\n      jumpi\n      dup1\n      0xf2fde38b\n      gt\n      tag_36\n      jumpi\n      dup1\n      0xf2fde38b\n      eq\n      tag_30\n      jumpi\n      dup1\n      0xf7ab69fd\n      eq\n      tag_31\n      jumpi\n      dup1\n      0xf8c8765e\n      eq\n      tag_32\n      jumpi\n      dup1\n      0xfc234d06\n      eq\n      tag_33\n      jumpi\n      jump(tag_2)\n    tag_36:\n      dup1\n      0xe4e95520\n      eq\n      tag_26\n      jumpi\n      dup1\n      0xec4c4f34\n      eq\n      tag_27\n      jumpi\n      dup1\n      0xf0c765e4\n      eq\n      tag_28\n      jumpi\n      dup1\n      0xf14053ad\n      eq\n      tag_29\n      jumpi\n      jump(tag_2)\n    tag_35:\n      dup1\n      0xa80c3cd3\n      gt\n      tag_37\n      jumpi\n      dup1\n      0xa80c3cd3\n      eq\n      tag_22\n      jumpi\n      dup1\n      0xaaf5eb68\n      eq\n      tag_23\n      jumpi\n      dup1\n      0xaecf77b1\n      eq\n      tag_24\n      jumpi\n      dup1\n      0xc2ec527d\n      eq\n      tag_25\n      jumpi\n      jump(tag_2)\n    tag_37:\n      dup1\n      0x7fd6f15c\n      eq\n      tag_18\n      jumpi\n      dup1\n      0x8da5cb5b\n      eq\n      tag_19\n      jumpi\n      dup1\n      0x99315ccf\n      eq\n      tag_20\n      jumpi\n      dup1\n      0xa17397db\n      eq\n      tag_21\n      jumpi\n      jump(tag_2)\n    tag_34:\n      dup1\n      0x475b4fd3\n      gt\n      tag_38\n      jumpi\n      dup1\n      0x6dbe9624\n      gt\n      tag_39\n      jumpi\n      dup1\n      0x6dbe9624\n      eq\n      tag_14\n      jumpi\n      dup1\n      0x715018a6\n      eq\n      tag_15\n      jumpi\n      dup1\n      0x7be3a1a1\n      eq\n      tag_16\n      jumpi\n      dup1\n      0x7dc0d1d0\n      eq\n      tag_17\n      jumpi\n      jump(tag_2)\n    tag_39:\n      dup1\n      0x475b4fd3\n      eq\n      tag_10\n      jumpi\n      dup1\n      0x48c7e528\n      eq\n      tag_11\n      jumpi\n      dup1\n      0x6ab34a4a\n      eq\n      tag_12\n      jumpi\n      dup1\n      0x6c19e783\n      eq\n      tag_13\n      jumpi\n      jump(tag_2)\n    tag_38:\n      dup1\n      0x1e64610c\n      gt\n      tag_40\n      jumpi\n      dup1\n      0x1e64610c\n      eq\n      tag_6\n      jumpi\n      dup1\n      0x238ac933\n      eq\n      tag_7\n      jumpi\n      dup1\n      0x3011d3d5\n      eq\n      tag_8\n      jumpi\n      dup1\n      0x43b1f3cb\n      eq\n      tag_9\n      jumpi\n      jump(tag_2)\n    tag_40:\n      dup1\n      0x080270a8\n      eq\n      tag_3\n      jumpi\n      dup1\n      0x0f58d242\n      eq\n      tag_4\n      jumpi\n      dup1\n      0x1e1bff3f\n      eq\n      tag_5\n      jumpi\n    tag_2:\n      0x00\n      dup1\n      revert\n        /* \"contracts/mirrorseaMain.sol\":4305:5056  function pagination(... */\n    tag_3:\n      tag_41\n      tag_42\n      calldatasize\n      0x04\n      tag_43\n      jump\t// in\n    tag_42:\n      tag_44\n      jump\t// in\n    tag_41:\n      mload(0x40)\n      tag_45\n      swap2\n      swap1\n      tag_46\n      jump\t// in\n    tag_45:\n      mload(0x40)\n      dup1\n      swap2\n      sub\n      swap1\n      return\n        /* \"contracts/mirrorseaMain.sol\":1320:1352  uint256[] public openOrderIdList */\n    tag_4:\n      tag_47\n      tag_48\n      calldatasize\n      0x04\n      tag_49\n      jump\t// in\n    tag_48:\n      tag_50\n      jump\t// in\n    tag_47:\n      mload(0x40)\n      tag_45\n      swap2\n      swap1\n      tag_52\n      jump\t// in\n        /* \"contracts/mirrorseaMain.sol\":2951:3128  function setExecutor(address _address, bool _type)... */\n    tag_5:\n      tag_53\n      tag_54\n      calldatasize\n      0x04\n      tag_55\n      jump\t// in\n    tag_54:\n      tag_56\n      jump\t// in\n    tag_53:\n      mload(0x40)\n      tag_45\n      swap2\n      swap1\n      tag_58\n      jump\t// in\n        /* \"contracts/mirrorseaMain.sol\":1169:1200  IhelperLogic public helperLogic */\n    tag_6:\n      tag_59\n      tag_60\n      jump\t// in\n    tag_59:\n      mload(0x40)\n      tag_45\n      swap2\n      swap1\n      tag_66\n      jump\t// in\n        /* \"contracts/mirrorseaMain.sol\":1108:1129  address public signer */\n    tag_7:\n      tag_59\n      tag_64\n      jump\t// in\n        /* \"contracts/mirrorseaMain.sol\":1135:1163  IERC20Upgradeable public usc */\n    tag_8:\n      tag_59\n      tag_68\n      jump\t// in\n        /* \"contracts/mirrorseaMain.sol\":1358:1414  mapping(uint256 => uint256) public openOrderIdList_index */\n    tag_9:\n      tag_47\n      tag_72\n      calldatasize\n      0x04\n      tag_49\n      jump\t// in\n    tag_72:\n      tag_73\n      jump\t// in\n        /* \"contracts/mirrorseaMain.sol\":5062:6760  function openPosition(... */\n    tag_10:\n      tag_53\n      tag_76\n      calldatasize\n      0x04\n      tag_77\n      jump\t// in\n    tag_76:\n      tag_78\n      jump\t// in\n        /* \"contracts/mirrorseaMain.sol\":1062:1102  mapping(address => bool) public executor */\n    tag_11:\n      tag_53\n      tag_81\n      calldatasize\n      0x04\n      tag_82\n      jump\t// in\n    tag_81:\n      tag_83\n      jump\t// in\n        /* \"contracts/mirrorseaMain.sol\":3406:3518  function orderInfo(uint256 _id) external view returns (OrderInfo memory) {... */\n    tag_12:\n      tag_85\n      tag_86\n      calldatasize\n      0x04\n      tag_49\n      jump\t// in\n    tag_86:\n      tag_87\n      jump\t// in\n    tag_85:\n      mload(0x40)\n      tag_45\n      swap2\n      swap1\n      tag_89\n      jump\t// in\n        /* \"contracts/mirrorseaMain.sol\":3274:3400  function setSigner(address _address) external onlyOwner returns (bool) {... */\n    tag_13:\n      tag_53\n      tag_91\n      calldatasize\n      0x04\n      tag_82\n      jump\t// in\n    tag_91:\n      tag_92\n      jump\t// in\n        /* \"contracts/mirrorseaMain.sol\":11391:12177  function liquidation(... */\n    tag_14:\n      tag_53\n      tag_95\n      calldatasize\n      0x04\n      tag_96\n      jump\t// in\n    tag_95:\n      tag_97\n      jump\t// in\n        /* \"@openzeppelin/contracts-upgradeable/access/OwnableUpgradeable.sol\":1934:2035  function renounceOwnership() public virtual onlyOwner {... */\n    tag_15:\n      tag_99\n      tag_100\n      jump\t// in\n    tag_99:\n      stop\n        /* \"contracts/mirrorseaMain.sol\":1481:1567  mapping(address => mapping(uint256 => uint256))... */\n    tag_16:\n      tag_47\n      tag_102\n      calldatasize\n      0x04\n      tag_103\n      jump\t// in\n    tag_102:\n      tag_104\n      jump\t// in\n        /* \"contracts/mirrorseaMain.sol\":1206:1227  IOracle public oracle */\n    tag_17:\n      tag_59\n      tag_107\n      jump\t// in\n        /* \"contracts/mirrorseaMain.sol\":1729:1754  uint256 public feePercent */\n    tag_18:\n      tag_47\n      tag_111\n      jump\t// in\n        /* \"@openzeppelin/contracts-upgradeable/access/OwnableUpgradeable.sol\":1302:1387  function owner() public view virtual returns (address) {... */\n    tag_19:\n      tag_59\n      tag_114\n      jump\t// in\n        /* \"contracts/mirrorseaMain.sol\":13762:14421  function adjustPosition(... */\n    tag_20:\n      tag_53\n      tag_117\n      calldatasize\n      0x04\n      tag_118\n      jump\t// in\n    tag_117:\n      tag_119\n      jump\t// in\n        /* \"contracts/mirrorseaMain.sol\":10418:10953  function closePosition(... */\n    tag_21:\n      tag_53\n      tag_122\n      calldatasize\n      0x04\n      tag_123\n      jump\t// in\n    tag_122:\n      tag_124\n      jump\t// in\n        /* \"contracts/mirrorseaMain.sol\":12183:12679  function forcedLiquidation(... */\n    tag_22:\n      tag_53\n      tag_127\n      calldatasize\n      0x04\n      tag_123\n      jump\t// in\n    tag_127:\n      tag_128\n      jump\t// in\n        /* \"contracts/mirrorseaMain.sol\":1760:1784  uint256 public PRECISION */\n    tag_23:\n      tag_47\n      tag_131\n      jump\t// in\n        /* \"contracts/mirrorseaMain.sol\":2780:2945  function myCloseOrderIdListLength(address _user)... */\n    tag_24:\n      tag_41\n      tag_134\n      calldatasize\n      0x04\n      tag_82\n      jump\t// in\n    tag_134:\n      tag_135\n      jump\t// in\n        /* \"contracts/mirrorseaMain.sol\":1421:1475  mapping(address => uint256[]) public myOpenOrderIdList */\n    tag_25:\n      tag_47\n      tag_138\n      calldatasize\n      0x04\n      tag_103\n      jump\t// in\n    tag_138:\n      tag_139\n      jump\t// in\n        /* \"contracts/mirrorseaMain.sol\":2611:2774  function myOpenOrderIdListLength(address _user)... */\n    tag_26:\n      tag_41\n      tag_142\n      calldatasize\n      0x04\n      tag_82\n      jump\t// in\n    tag_142:\n      tag_143\n      jump\t// in\n        /* \"contracts/mirrorseaMain.sol\":1574:1629  mapping(address => uint256[]) public myCloseOrderIdList */\n    tag_27:\n      tag_47\n      tag_146\n      calldatasize\n      0x04\n      tag_103\n      jump\t// in\n    tag_146:\n      tag_147\n      jump\t// in\n        /* \"contracts/mirrorseaMain.sol\":1635:1722  mapping(address => mapping(uint256 => uint256))... */\n    tag_28:\n      tag_47\n      tag_150\n      calldatasize\n      0x04\n      tag_103\n      jump\t// in\n    tag_150:\n      tag_151\n      jump\t// in\n        /* \"contracts/mirrorseaMain.sol\":1791:1812  uint256 public minVal */\n    tag_29:\n      tag_47\n      tag_154\n      jump\t// in\n        /* \"@openzeppelin/contracts-upgradeable/access/OwnableUpgradeable.sol\":2184:2382  function transferOwnership(address newOwner) public virtual onlyOwner {... */\n    tag_30:\n      tag_99\n      tag_157\n      calldatasize\n      0x04\n      tag_82\n      jump\t// in\n    tag_157:\n      tag_158\n      jump\t// in\n        /* \"contracts/mirrorseaMain.sol\":1288:1313  uint256 public OrderIndex */\n    tag_31:\n      tag_47\n      tag_160\n      jump\t// in\n        /* \"contracts/mirrorseaMain.sol\":2250:2605  function initialize(... */\n    tag_32:\n      tag_99\n      tag_163\n      calldatasize\n      0x04\n      tag_164\n      jump\t// in\n    tag_163:\n      tag_165\n      jump\t// in\n        /* \"contracts/mirrorseaMain.sol\":3524:4299  function setOrderInfo(... */\n    tag_33:\n      tag_53\n      tag_167\n      calldatasize\n      0x04\n      tag_168\n      jump\t// in\n    tag_167:\n      tag_169\n      jump\t// in\n        /* \"contracts/mirrorseaMain.sol\":4305:5056  function pagination(... */\n    tag_44:\n        /* \"contracts/mirrorseaMain.sol\":4445:4461  uint256[] memory */\n      0x60\n        /* \"contracts/mirrorseaMain.sol\":4473:4497  uint256[] memory newList */\n      0x00\n        /* \"contracts/mirrorseaMain.sol\":4514:4519  _page */\n      dup3\n        /* \"contracts/mirrorseaMain.sol\":4500:4520  new uint256[](_page) */\n      0xffffffffffffffff\n      dup2\n      gt\n      iszero\n      tag_172\n      jumpi\n      mstore(0x00, shl(0xe0, 0x4e487b71))\n      mstore(0x04, 0x41)\n      revert(0x00, 0x24)\n    tag_172:\n      mload(0x40)\n      swap1\n      dup1\n      dup3\n      mstore\n      dup1\n      0x20\n      mul\n      0x20\n      add\n      dup3\n      add\n      0x40\n      mstore\n      dup1\n      iszero\n      tag_173\n      jumpi\n      dup2\n      0x20\n      add\n      0x20\n      dup3\n      mul\n      dup1\n      calldatasize\n      dup4\n      calldatacopy\n      add\n      swap1\n      pop\n    tag_173:\n      pop\n        /* \"contracts/mirrorseaMain.sol\":4473:4520  uint256[] memory newList = new uint256[](_page) */\n      swap1\n      pop\n        /* \"contracts/mirrorseaMain.sol\":4530:4543  uint256 index */\n      0x00\n        /* \"contracts/mirrorseaMain.sol\":4557:4579  uint256[] memory _list */\n      0x60\n        /* \"contracts/mirrorseaMain.sol\":4593:4603  _type == 0 */\n      dup7\n        /* \"contracts/mirrorseaMain.sol\":4589:4812  if (_type == 0) {... */\n      tag_174\n      jumpi\n        /* \"contracts/mirrorseaMain.sol\":4627:4642  openOrderIdList */\n      0x6c\n        /* \"contracts/mirrorseaMain.sol\":4619:4642  _list = openOrderIdList */\n      dup1\n      sload\n      dup1\n      0x20\n      mul\n      0x20\n      add\n      mload(0x40)\n      swap1\n      dup2\n      add\n      0x40\n      mstore\n      dup1\n      swap3\n      swap2\n      swap1\n      dup2\n      dup2\n      mstore\n      0x20\n      add\n      dup3\n      dup1\n      sload\n      dup1\n      iszero\n      tag_175\n      jumpi\n      0x20\n      mul\n      dup3\n      add\n      swap2\n      swap1\n      0x00\n      mstore\n      keccak256(0x00, 0x20)\n      swap1\n    tag_176:\n      dup2\n      sload\n      dup2\n      mstore\n      0x20\n      add\n      swap1\n      0x01\n      add\n      swap1\n      dup1\n      dup4\n      gt\n      tag_176\n      jumpi\n    tag_175:\n      pop\n      pop\n      pop\n      pop\n      pop\n      swap1\n      pop\n        /* \"contracts/mirrorseaMain.sol\":4589:4812  if (_type == 0) {... */\n      jump(tag_182)\n    tag_174:\n        /* \"contracts/mirrorseaMain.sol\":4663:4668  _type */\n      dup7\n        /* \"contracts/mirrorseaMain.sol\":4672:4673  1 */\n      0x01\n        /* \"contracts/mirrorseaMain.sol\":4663:4673  _type == 1 */\n      eq\n        /* \"contracts/mirrorseaMain.sol\":4659:4812  if (_type == 1) {... */\n      iszero\n      tag_178\n      jumpi\n      sub(shl(0xa0, 0x01), 0x01)\n        /* \"contracts/mirrorseaMain.sol\":4697:4721  myOpenOrderIdList[_user] */\n      dup9\n      and\n      0x00\n      swap1\n      dup2\n      mstore\n        /* \"contracts/mirrorseaMain.sol\":4697:4714  myOpenOrderIdList */\n      0x6e\n        /* \"contracts/mirrorseaMain.sol\":4697:4721  myOpenOrderIdList[_user] */\n      0x20\n      swap1\n      dup2\n      mstore\n      0x40\n      swap2\n      dup3\n      swap1\n      keccak256\n        /* \"contracts/mirrorseaMain.sol\":4689:4721  _list = myOpenOrderIdList[_user] */\n      dup1\n      sload\n      dup4\n      mload\n      dup2\n      dup5\n      mul\n      dup2\n      add\n      dup5\n      add\n      swap1\n      swap5\n      mstore\n      dup1\n      dup5\n      mstore\n        /* \"contracts/mirrorseaMain.sol\":4697:4721  myOpenOrderIdList[_user] */\n      swap1\n      swap2\n        /* \"contracts/mirrorseaMain.sol\":4689:4721  _list = myOpenOrderIdList[_user] */\n      dup4\n      add\n        /* \"contracts/mirrorseaMain.sol\":4697:4721  myOpenOrderIdList[_user] */\n      dup3\n        /* \"contracts/mirrorseaMain.sol\":4689:4721  _list = myOpenOrderIdList[_user] */\n      dup3\n      dup1\n      iszero\n      tag_175\n      jumpi\n      0x20\n      mul\n      dup3\n      add\n      swap2\n      swap1\n      0x00\n      mstore\n      keccak256(0x00, 0x20)\n      swap1\n      dup2\n      sload\n      dup2\n      mstore\n      0x20\n      add\n      swap1\n      0x01\n      add\n      swap1\n      dup1\n      dup4\n      gt\n      tag_176\n      jumpi\n      pop\n      pop\n      pop\n      pop\n      pop\n      swap1\n      pop\n        /* \"contracts/mirrorseaMain.sol\":4659:4812  if (_type == 1) {... */\n      jump(tag_182)\n    tag_178:\n        /* \"contracts/mirrorseaMain.sol\":4742:4747  _type */\n      dup7\n        /* \"contracts/mirrorseaMain.sol\":4751:4752  2 */\n      0x02\n        /* \"contracts/mirrorseaMain.sol\":4742:4752  _type == 2 */\n      eq\n        /* \"contracts/mirrorseaMain.sol\":4738:4812  if (_type == 2) {... */\n      iszero\n      tag_182\n      jumpi\n      sub(shl(0xa0, 0x01), 0x01)\n        /* \"contracts/mirrorseaMain.sol\":4776:4801  myCloseOrderIdList[_user] */\n      dup9\n      and\n      0x00\n      swap1\n      dup2\n      mstore\n        /* \"contracts/mirrorseaMain.sol\":4776:4794  myCloseOrderIdList */\n      0x70\n        /* \"contracts/mirrorseaMain.sol\":4776:4801  myCloseOrderIdList[_user] */\n      0x20\n      swap1\n      dup2\n      mstore\n      0x40\n      swap2\n      dup3\n      swap1\n      keccak256\n        /* \"contracts/mirrorseaMain.sol\":4768:4801  _list = myCloseOrderIdList[_user] */\n      dup1\n      sload\n      dup4\n      mload\n      dup2\n      dup5\n      mul\n      dup2\n      add\n      dup5\n      add\n      swap1\n      swap5\n      mstore\n      dup1\n      dup5\n      mstore\n        /* \"contracts/mirrorseaMain.sol\":4776:4801  myCloseOrderIdList[_user] */\n      swap1\n      swap2\n        /* \"contracts/mirrorseaMain.sol\":4768:4801  _list = myCloseOrderIdList[_user] */\n      dup4\n      add\n        /* \"contracts/mirrorseaMain.sol\":4776:4801  myCloseOrderIdList[_user] */\n      dup3\n        /* \"contracts/mirrorseaMain.sol\":4768:4801  _list = myCloseOrderIdList[_user] */\n      dup3\n      dup1\n      iszero\n      tag_183\n      jumpi\n      0x20\n      mul\n      dup3\n      add\n      swap2\n      swap1\n      0x00\n      mstore\n      keccak256(0x00, 0x20)\n      swap1\n    tag_184:\n      dup2\n      sload\n      dup2\n      mstore\n      0x20\n      add\n      swap1\n      0x01\n      add\n      swap1\n      dup1\n      dup4\n      gt\n      tag_184\n      jumpi\n    tag_183:\n      pop\n      pop\n      pop\n      pop\n      pop\n      swap1\n      pop\n        /* \"contracts/mirrorseaMain.sol\":4738:4812  if (_type == 2) {... */\n    tag_182:\n        /* \"contracts/mirrorseaMain.sol\":4844:4856  _list.length */\n      dup1\n      mload\n        /* \"contracts/mirrorseaMain.sol\":4829:4841  _row * _page */\n      tag_185\n        /* \"contracts/mirrorseaMain.sol\":4836:4841  _page */\n      dup7\n        /* \"contracts/mirrorseaMain.sol\":4829:4833  _row */\n      dup9\n        /* \"contracts/mirrorseaMain.sol\":4829:4841  _row * _page */\n      tag_186\n      jump\t// in\n    tag_185:\n        /* \"contracts/mirrorseaMain.sol\":4829:4856  _row * _page > _list.length */\n      gt\n        /* \"contracts/mirrorseaMain.sol\":4821:4871  require(_row * _page > _list.length, \"length err\") */\n      tag_187\n      jumpi\n      mload(0x40)\n      shl(0xe5, 0x461bcd)\n      dup2\n      mstore\n      0x04\n      add\n      tag_188\n      swap1\n      tag_189\n      jump\t// in\n    tag_188:\n      mload(0x40)\n      dup1\n      swap2\n      sub\n      swap1\n      revert\n    tag_187:\n        /* \"contracts/mirrorseaMain.sol\":4886:4895  uint256 i */\n      0x00\n        /* \"contracts/mirrorseaMain.sol\":4915:4920  _page */\n      dup6\n        /* \"contracts/mirrorseaMain.sol\":4899:4911  _row * _page */\n      tag_193\n        /* \"contracts/mirrorseaMain.sol\":4915:4920  _page */\n      dup2\n        /* \"contracts/mirrorseaMain.sol\":4899:4903  _row */\n      dup10\n        /* \"contracts/mirrorseaMain.sol\":4899:4911  _row * _page */\n      tag_186\n      jump\t// in\n    tag_193:\n        /* \"contracts/mirrorseaMain.sol\":4898:4920  (_row * _page) - _page */\n      tag_194\n      swap2\n      swap1\n      tag_195\n      jump\t// in\n    tag_194:\n        /* \"contracts/mirrorseaMain.sol\":4886:4920  uint256 i = (_row * _page) - _page */\n      swap1\n      pop\n        /* \"contracts/mirrorseaMain.sol\":4881:5026  for (uint256 i = (_row * _page) - _page; i < _row * _page; i++) {... */\n    tag_190:\n        /* \"contracts/mirrorseaMain.sol\":4926:4938  _row * _page */\n      tag_196\n        /* \"contracts/mirrorseaMain.sol\":4933:4938  _page */\n      dup7\n        /* \"contracts/mirrorseaMain.sol\":4926:4930  _row */\n      dup9\n        /* \"contracts/mirrorseaMain.sol\":4926:4938  _row * _page */\n      tag_186\n      jump\t// in\n    tag_196:\n        /* \"contracts/mirrorseaMain.sol\":4922:4923  i */\n      dup2\n        /* \"contracts/mirrorseaMain.sol\":4922:4938  i < _row * _page */\n      lt\n        /* \"contracts/mirrorseaMain.sol\":4881:5026  for (uint256 i = (_row * _page) - _page; i < _row * _page; i++) {... */\n      iszero\n      tag_191\n      jumpi\n        /* \"contracts/mirrorseaMain.sol\":4976:4981  _list */\n      dup2\n        /* \"contracts/mirrorseaMain.sol\":4982:4983  i */\n      dup2\n        /* \"contracts/mirrorseaMain.sol\":4976:4984  _list[i] */\n      dup2\n      mload\n      dup2\n      lt\n      tag_197\n      jumpi\n      mstore(0x00, shl(0xe0, 0x4e487b71))\n      mstore(0x04, 0x32)\n      revert(0x00, 0x24)\n    tag_197:\n      0x20\n      mul\n      0x20\n      add\n      add\n      mload\n        /* \"contracts/mirrorseaMain.sol\":4959:4966  newList */\n      dup5\n        /* \"contracts/mirrorseaMain.sol\":4967:4972  index */\n      dup5\n        /* \"contracts/mirrorseaMain.sol\":4959:4973  newList[index] */\n      dup2\n      mload\n      dup2\n      lt\n      tag_198\n      jumpi\n      mstore(0x00, shl(0xe0, 0x4e487b71))\n      mstore(0x04, 0x32)\n      revert(0x00, 0x24)\n    tag_198:\n      0x20\n      swap1\n      dup2\n      mul\n      swap2\n      swap1\n      swap2\n      add\n      add\n        /* \"contracts/mirrorseaMain.sol\":4959:4984  newList[index] = _list[i] */\n      mstore\n        /* \"contracts/mirrorseaMain.sol\":5006:5015  index + 1 */\n      tag_199\n        /* \"contracts/mirrorseaMain.sol\":5006:5011  index */\n      dup4\n        /* \"contracts/mirrorseaMain.sol\":5014:5015  1 */\n      0x01\n        /* \"contracts/mirrorseaMain.sol\":5006:5015  index + 1 */\n      tag_200\n      jump\t// in\n    tag_199:\n        /* \"contracts/mirrorseaMain.sol\":4998:5015  index = index + 1 */\n      swap3\n      pop\n        /* \"contracts/mirrorseaMain.sol\":4940:4943  i++ */\n      dup1\n      tag_201\n      dup2\n      tag_202\n      jump\t// in\n    tag_201:\n      swap2\n      pop\n      pop\n        /* \"contracts/mirrorseaMain.sol\":4881:5026  for (uint256 i = (_row * _page) - _page; i < _row * _page; i++) {... */\n      jump(tag_190)\n    tag_191:\n      pop\n        /* \"contracts/mirrorseaMain.sol\":5042:5049  newList */\n      swap2\n      swap8\n        /* \"contracts/mirrorseaMain.sol\":4305:5056  function pagination(... */\n      swap7\n      pop\n      pop\n      pop\n      pop\n      pop\n      pop\n      pop\n      jump\t// out\n        /* \"contracts/mirrorseaMain.sol\":1320:1352  uint256[] public openOrderIdList */\n    tag_50:\n      0x6c\n      dup2\n      dup2\n      sload\n      dup2\n      lt\n      tag_203\n      jumpi\n      0x00\n      dup1\n      revert\n    tag_203:\n      0x00\n      swap2\n      dup3\n      mstore\n      0x20\n      swap1\n      swap2\n      keccak256\n      add\n      sload\n      swap1\n      pop\n      dup2\n      jump\t// out\n        /* \"contracts/mirrorseaMain.sol\":2951:3128  function setExecutor(address _address, bool _type)... */\n    tag_56:\n        /* \"contracts/mirrorseaMain.sol\":3054:3058  bool */\n      0x00\n        /* \"@openzeppelin/contracts-upgradeable/access/OwnableUpgradeable.sol\":1525:1537  _msgSender() */\n      tag_206\n        /* \"@openzeppelin/contracts-upgradeable/access/OwnableUpgradeable.sol\":1525:1535  _msgSender */\n      tag_207\n        /* \"@openzeppelin/contracts-upgradeable/access/OwnableUpgradeable.sol\":1525:1537  _msgSender() */\n      jump\t// in\n    tag_206:\n      sub(shl(0xa0, 0x01), 0x01)\n        /* \"@openzeppelin/contracts-upgradeable/access/OwnableUpgradeable.sol\":1514:1537  owner() == _msgSender() */\n      and\n        /* \"@openzeppelin/contracts-upgradeable/access/OwnableUpgradeable.sol\":1514:1521  owner() */\n      tag_208\n        /* \"@openzeppelin/contracts-upgradeable/access/OwnableUpgradeable.sol\":1514:1519  owner */\n      tag_114\n        /* \"@openzeppelin/contracts-upgradeable/access/OwnableUpgradeable.sol\":1514:1521  owner() */\n      jump\t// in\n    tag_208:\n      sub(shl(0xa0, 0x01), 0x01)\n        /* \"@openzeppelin/contracts-upgradeable/access/OwnableUpgradeable.sol\":1514:1537  owner() == _msgSender() */\n      and\n      eq\n        /* \"@openzeppelin/contracts-upgradeable/access/OwnableUpgradeable.sol\":1506:1574  require(owner() == _msgSender(), \"Ownable: caller is not the owner\") */\n      tag_209\n      jumpi\n      mload(0x40)\n      shl(0xe5, 0x461bcd)\n      dup2\n      mstore\n      0x04\n      add\n      tag_188\n      swap1\n      tag_211\n      jump\t// in\n    tag_209:\n      pop\n      sub(shl(0xa0, 0x01), 0x01)\n        /* \"contracts/mirrorseaMain.sol\":3074:3092  executor[_address] */\n      dup3\n      and\n      0x00\n      swap1\n      dup2\n      mstore\n        /* \"contracts/mirrorseaMain.sol\":3074:3082  executor */\n      0x65\n        /* \"contracts/mirrorseaMain.sol\":3074:3092  executor[_address] */\n      0x20\n      mstore\n      0x40\n      swap1\n      keccak256\n        /* \"contracts/mirrorseaMain.sol\":3074:3100  executor[_address] = _type */\n      dup1\n      sload\n      dup3\n      iszero\n      iszero\n      not(0xff)\n      swap1\n      swap2\n      and\n      or\n      swap1\n      sstore\n      0x01\n        /* \"contracts/mirrorseaMain.sol\":2951:3128  function setExecutor(address _address, bool _type)... */\n      swap3\n      swap2\n      pop\n      pop\n      jump\t// out\n        /* \"contracts/mirrorseaMain.sol\":1169:1200  IhelperLogic public helperLogic */\n    tag_60:\n      and(sub(shl(0xa0, 0x01), 0x01), sload(0x68))\n      dup2\n      jump\t// out\n        /* \"contracts/mirrorseaMain.sol\":1108:1129  address public signer */\n    tag_64:\n      and(sub(shl(0xa0, 0x01), 0x01), sload(0x66))\n      dup2\n      jump\t// out\n        /* \"contracts/mirrorseaMain.sol\":1135:1163  IERC20Upgradeable public usc */\n    tag_68:\n      and(sub(shl(0xa0, 0x01), 0x01), sload(0x67))\n      dup2\n      jump\t// out\n        /* \"contracts/mirrorseaMain.sol\":1358:1414  mapping(uint256 => uint256) public openOrderIdList_index */\n    tag_73:\n      mstore(0x20, 0x6d)\n      0x00\n      swap1\n      dup2\n      mstore\n      0x40\n      swap1\n      keccak256\n      sload\n      dup2\n      jump\t// out\n        /* \"contracts/mirrorseaMain.sol\":5062:6760  function openPosition(... */\n    tag_78:\n        /* \"contracts/mirrorseaMain.sol\":5353:5363  OrderIndex */\n      sload(0x6b)\n        /* \"contracts/mirrorseaMain.sol\":5300:5304  bool */\n      0x00\n        /* \"contracts/mirrorseaMain.sol\":5342:5364  _orderInfo[OrderIndex] */\n      swap1\n      dup2\n      mstore\n        /* \"contracts/mirrorseaMain.sol\":5342:5352  _orderInfo */\n      0x6a\n        /* \"contracts/mirrorseaMain.sol\":5342:5364  _orderInfo[OrderIndex] */\n      0x20\n      mstore\n      0x40\n      dup2\n      keccak256\n        /* \"contracts/mirrorseaMain.sol\":5382:5393  order.state */\n      0x03\n      dup2\n      add\n      sload\n        /* \"contracts/mirrorseaMain.sol\":5382:5398  order.state == 0 */\n      iszero\n        /* \"contracts/mirrorseaMain.sol\":5374:5412  require(order.state == 0, \"state err\") */\n      tag_214\n      jumpi\n      mload(0x40)\n      shl(0xe5, 0x461bcd)\n      dup2\n      mstore\n      0x04\n      add\n      tag_188\n      swap1\n      tag_216\n      jump\t// in\n    tag_214:\n        /* \"contracts/mirrorseaMain.sol\":5443:5449  oracle */\n      sload(0x69)\n        /* \"contracts/mirrorseaMain.sol\":5443:5500  oracle.getkey(_price18, _timestamp, _symbols, _signature) */\n      mload(0x40)\n      shl(0xe0, 0x81952f3b)\n      dup2\n      mstore\n      sub(shl(0xa0, 0x01), 0x01)\n        /* \"contracts/mirrorseaMain.sol\":5443:5449  oracle */\n      swap1\n      swap2\n      and\n      swap1\n        /* \"contracts/mirrorseaMain.sol\":5443:5456  oracle.getkey */\n      0x81952f3b\n      swap1\n        /* \"contracts/mirrorseaMain.sol\":5443:5500  oracle.getkey(_price18, _timestamp, _symbols, _signature) */\n      tag_217\n      swap1\n        /* \"contracts/mirrorseaMain.sol\":5457:5465  _price18 */\n      dup9\n      swap1\n        /* \"contracts/mirrorseaMain.sol\":5467:5477  _timestamp */\n      dup14\n      swap1\n        /* \"contracts/mirrorseaMain.sol\":5479:5487  _symbols */\n      dup12\n      swap1\n        /* \"contracts/mirrorseaMain.sol\":5489:5499  _signature */\n      dup10\n      swap1\n        /* \"contracts/mirrorseaMain.sol\":5443:5500  oracle.getkey(_price18, _timestamp, _symbols, _signature) */\n      0x04\n      add\n      tag_218\n      jump\t// in\n    tag_217:\n      0x20\n      mload(0x40)\n      dup1\n      dup4\n      sub\n      dup2\n      dup7\n      dup1\n      extcodesize\n      iszero\n      dup1\n      iszero\n      tag_219\n      jumpi\n      0x00\n      dup1\n      revert\n    tag_219:\n      pop\n      gas\n      staticcall\n      iszero\n      dup1\n      iszero\n      tag_221\n      jumpi\n      returndatasize\n      0x00\n      dup1\n      returndatacopy\n      revert(0x00, returndatasize)\n    tag_221:\n      pop\n      pop\n      pop\n      pop\n      mload(0x40)\n      returndatasize\n      not(0x1f)\n      0x1f\n      dup3\n      add\n      and\n      dup3\n      add\n      dup1\n      0x40\n      mstore\n      pop\n      dup2\n      add\n      swap1\n      tag_222\n      swap2\n      swap1\n      tag_223\n      jump\t// in\n    tag_222:\n        /* \"contracts/mirrorseaMain.sol\":5422:5536  require(... */\n      tag_224\n      jumpi\n      mload(0x40)\n      shl(0xe5, 0x461bcd)\n      dup2\n      mstore\n      0x04\n      add\n      tag_188\n      swap1\n      tag_226\n      jump\t// in\n    tag_224:\n        /* \"contracts/mirrorseaMain.sol\":5588:5594  minVal */\n      sload(0x74)\n        /* \"contracts/mirrorseaMain.sol\":5567:5585  _amt.mul(_price18) */\n      tag_227\n        /* \"contracts/mirrorseaMain.sol\":5567:5571  _amt */\n      dup6\n        /* \"contracts/mirrorseaMain.sol\":5576:5584  _price18 */\n      dup8\n        /* \"contracts/mirrorseaMain.sol\":5567:5575  _amt.mul */\n      tag_228\n        /* \"contracts/mirrorseaMain.sol\":5567:5585  _amt.mul(_price18) */\n      jump\t// in\n    tag_227:\n        /* \"contracts/mirrorseaMain.sol\":5567:5594  _amt.mul(_price18) > minVal */\n      gt\n        /* \"contracts/mirrorseaMain.sol\":5546:5655  require(... */\n      tag_229\n      jumpi\n      mload(0x40)\n      shl(0xe5, 0x461bcd)\n      dup2\n      mstore\n      0x04\n      add\n      tag_188\n      swap1\n      tag_231\n      jump\t// in\n    tag_229:\n        /* \"contracts/mirrorseaMain.sol\":5666:5733  usc.safeTransferFrom(msg.sender, address(this), _amt.mul(_price18)) */\n      tag_232\n        /* \"contracts/mirrorseaMain.sol\":5687:5697  msg.sender */\n      caller\n        /* \"contracts/mirrorseaMain.sol\":5707:5711  this */\n      address\n        /* \"contracts/mirrorseaMain.sol\":5714:5732  _amt.mul(_price18) */\n      tag_233\n        /* \"contracts/mirrorseaMain.sol\":5714:5718  _amt */\n      dup8\n        /* \"contracts/mirrorseaMain.sol\":5723:5731  _price18 */\n      dup10\n        /* \"contracts/mirrorseaMain.sol\":5714:5722  _amt.mul */\n      tag_228\n        /* \"contracts/mirrorseaMain.sol\":5714:5732  _amt.mul(_price18) */\n      jump\t// in\n    tag_233:\n        /* \"contracts/mirrorseaMain.sol\":5666:5669  usc */\n      and(sub(shl(0xa0, 0x01), 0x01), sload(0x67))\n      swap3\n        /* \"contracts/mirrorseaMain.sol\":5666:5733  usc.safeTransferFrom(msg.sender, address(this), _amt.mul(_price18)) */\n      swap2\n      swap1\n        /* \"contracts/mirrorseaMain.sol\":5666:5686  usc.safeTransferFrom */\n      tag_234\n        /* \"contracts/mirrorseaMain.sol\":5666:5733  usc.safeTransferFrom(msg.sender, address(this), _amt.mul(_price18)) */\n      jump\t// in\n    tag_232:\n        /* \"contracts/mirrorseaMain.sol\":5766:5769  usc */\n      sload(0x67)\n        /* \"contracts/mirrorseaMain.sol\":5766:5794  usc.balanceOf(address(this)) */\n      mload(0x40)\n      shl(0xe0, 0x70a08231)\n      dup2\n      mstore\n        /* \"contracts/mirrorseaMain.sol\":5743:5763  uint256 uscBalanceOf */\n      0x00\n      swap2\n      sub(shl(0xa0, 0x01), 0x01)\n        /* \"contracts/mirrorseaMain.sol\":5766:5769  usc */\n      and\n      swap1\n        /* \"contracts/mirrorseaMain.sol\":5766:5779  usc.balanceOf */\n      0x70a08231\n      swap1\n        /* \"contracts/mirrorseaMain.sol\":5766:5794  usc.balanceOf(address(this)) */\n      tag_235\n      swap1\n        /* \"contracts/mirrorseaMain.sol\":5788:5792  this */\n      address\n      swap1\n        /* \"contracts/mirrorseaMain.sol\":5766:5794  usc.balanceOf(address(this)) */\n      0x04\n      add\n      tag_66\n      jump\t// in\n    tag_235:\n      0x20\n      mload(0x40)\n      dup1\n      dup4\n      sub\n      dup2\n      dup7\n      dup1\n      extcodesize\n      iszero\n      dup1\n      iszero\n      tag_236\n      jumpi\n      0x00\n      dup1\n      revert\n    tag_236:\n      pop\n      gas\n      staticcall\n      iszero\n      dup1\n      iszero\n      tag_238\n      jumpi\n      returndatasize\n      0x00\n      dup1\n      returndatacopy\n      revert(0x00, returndatasize)\n    tag_238:\n      pop\n      pop\n      pop\n      pop\n      mload(0x40)\n      returndatasize\n      not(0x1f)\n      0x1f\n      dup3\n      add\n      and\n      dup3\n      add\n      dup1\n      0x40\n      mstore\n      pop\n      dup2\n      add\n      swap1\n      tag_239\n      swap2\n      swap1\n      tag_240\n      jump\t// in\n    tag_239:\n        /* \"contracts/mirrorseaMain.sol\":5743:5794  uint256 uscBalanceOf = usc.balanceOf(address(this)) */\n      swap1\n      pop\n        /* \"contracts/mirrorseaMain.sol\":5804:5815  uint256 fee */\n      0x00\n        /* \"contracts/mirrorseaMain.sol\":5818:5861  uscBalanceOf.mul(feePercent).div(PRECISION) */\n      tag_241\n        /* \"contracts/mirrorseaMain.sol\":5851:5860  PRECISION */\n      sload(0x73)\n        /* \"contracts/mirrorseaMain.sol\":5818:5846  uscBalanceOf.mul(feePercent) */\n      tag_242\n        /* \"contracts/mirrorseaMain.sol\":5835:5845  feePercent */\n      sload(0x72)\n        /* \"contracts/mirrorseaMain.sol\":5818:5830  uscBalanceOf */\n      dup6\n        /* \"contracts/mirrorseaMain.sol\":5818:5834  uscBalanceOf.mul */\n      tag_228\n      swap1\n        /* \"contracts/mirrorseaMain.sol\":5818:5846  uscBalanceOf.mul(feePercent) */\n      swap2\n      swap1\n      0xffffffff\n      and\n      jump\t// in\n    tag_242:\n        /* \"contracts/mirrorseaMain.sol\":5818:5850  uscBalanceOf.mul(feePercent).div */\n      swap1\n      tag_243\n        /* \"contracts/mirrorseaMain.sol\":5818:5861  uscBalanceOf.mul(feePercent).div(PRECISION) */\n      jump\t// in\n    tag_241:\n        /* \"contracts/mirrorseaMain.sol\":5896:5907  helperLogic */\n      sload(0x68)\n        /* \"contracts/mirrorseaMain.sol\":5871:5874  usc */\n      sload(0x67)\n        /* \"contracts/mirrorseaMain.sol\":5804:5861  uint256 fee = uscBalanceOf.mul(feePercent).div(PRECISION) */\n      swap2\n      swap3\n      pop\n        /* \"contracts/mirrorseaMain.sol\":5871:5914  usc.safeTransfer(address(helperLogic), fee) */\n      tag_244\n      swap2\n      sub(shl(0xa0, 0x01), 0x01)\n        /* \"contracts/mirrorseaMain.sol\":5871:5874  usc */\n      swap1\n      dup2\n      and\n      swap2\n        /* \"contracts/mirrorseaMain.sol\":5896:5907  helperLogic */\n      and\n        /* \"contracts/mirrorseaMain.sol\":5804:5861  uint256 fee = uscBalanceOf.mul(feePercent).div(PRECISION) */\n      dup4\n        /* \"contracts/mirrorseaMain.sol\":5871:5887  usc.safeTransfer */\n      tag_245\n        /* \"contracts/mirrorseaMain.sol\":5871:5914  usc.safeTransfer(address(helperLogic), fee) */\n      jump\t// in\n    tag_244:\n        /* \"contracts/mirrorseaMain.sol\":5924:5935  helperLogic */\n      0x68\n      0x00\n      swap1\n      sload\n      swap1\n      0x0100\n      exp\n      swap1\n      div\n      sub(shl(0xa0, 0x01), 0x01)\n      and\n      sub(shl(0xa0, 0x01), 0x01)\n        /* \"contracts/mirrorseaMain.sol\":5924:5950  helperLogic.jointExecution */\n      and\n      0xd10c06a2\n        /* \"contracts/mirrorseaMain.sol\":5924:5952  helperLogic.jointExecution() */\n      mload(0x40)\n      dup2\n      0xffffffff\n      and\n      0xe0\n      shl\n      dup2\n      mstore\n      0x04\n      add\n      0x20\n      mload(0x40)\n      dup1\n      dup4\n      sub\n      dup2\n      0x00\n      dup8\n      dup1\n      extcodesize\n      iszero\n      dup1\n      iszero\n      tag_246\n      jumpi\n      0x00\n      dup1\n      revert\n    tag_246:\n      pop\n      gas\n      call\n      iszero\n      dup1\n      iszero\n      tag_248\n      jumpi\n      returndatasize\n      0x00\n      dup1\n      returndatacopy\n      revert(0x00, returndatasize)\n    tag_248:\n      pop\n      pop\n      pop\n      pop\n      mload(0x40)\n      returndatasize\n      not(0x1f)\n      0x1f\n      dup3\n      add\n      and\n      dup3\n      add\n      dup1\n      0x40\n      mstore\n      pop\n      dup2\n      add\n      swap1\n      tag_249\n      swap2\n      swap1\n      tag_223\n      jump\t// in\n    tag_249:\n      pop\n        /* \"contracts/mirrorseaMain.sol\":5975:5978  usc */\n      and(sub(shl(0xa0, 0x01), 0x01), sload(0x67))\n        /* \"contracts/mirrorseaMain.sol\":5962:5985  IUSC(address(usc)).burn */\n      0x42966c68\n        /* \"contracts/mirrorseaMain.sol\":5986:6007  uscBalanceOf.sub(fee) */\n      tag_250\n        /* \"contracts/mirrorseaMain.sol\":5986:5998  uscBalanceOf */\n      dup5\n        /* \"contracts/mirrorseaMain.sol\":6003:6006  fee */\n      dup5\n        /* \"contracts/mirrorseaMain.sol\":5986:6002  uscBalanceOf.sub */\n      tag_251\n        /* \"contracts/mirrorseaMain.sol\":5986:6007  uscBalanceOf.sub(fee) */\n      jump\t// in\n    tag_250:\n        /* \"contracts/mirrorseaMain.sol\":5962:6008  IUSC(address(usc)).burn(uscBalanceOf.sub(fee)) */\n      mload(0x40)\n      dup3\n      0xffffffff\n      and\n      0xe0\n      shl\n      dup2\n      mstore\n      0x04\n      add\n      tag_252\n      swap2\n      swap1\n      tag_52\n      jump\t// in\n    tag_252:\n      0x00\n      mload(0x40)\n      dup1\n      dup4\n      sub\n      dup2\n      0x00\n      dup8\n      dup1\n      extcodesize\n      iszero\n      dup1\n      iszero\n      tag_253\n      jumpi\n      0x00\n      dup1\n      revert\n    tag_253:\n      pop\n      gas\n      call\n      iszero\n      dup1\n      iszero\n      tag_255\n      jumpi\n      returndatasize\n      0x00\n      dup1\n      returndatacopy\n      revert(0x00, returndatasize)\n    tag_255:\n      pop\n      pop\n        /* \"contracts/mirrorseaMain.sol\":6040:6050  OrderIndex */\n      sload(0x6b)\n        /* \"contracts/mirrorseaMain.sol\":6019:6034  openOrderIdList */\n      0x6c\n        /* \"contracts/mirrorseaMain.sol\":6019:6051  openOrderIdList.push(OrderIndex) */\n      dup1\n      sload\n      0x01\n      dup2\n      dup2\n      add\n      dup4\n      sstore\n      0x00\n      dup4\n      swap1\n      mstore\n      0x2b4a51ab505fc96a0952efda2ba61bcd3078d4c02c39a186ec16f21883fbe016\n      swap1\n      swap2\n      add\n      swap3\n      swap1\n      swap3\n      sstore\n        /* \"contracts/mirrorseaMain.sol\":6097:6119  openOrderIdList.length */\n      sload\n        /* \"contracts/mirrorseaMain.sol\":6097:6126  openOrderIdList.length.sub(1) */\n      tag_257\n      swap4\n      pop\n        /* \"contracts/mirrorseaMain.sol\":6097:6119  openOrderIdList.length */\n      swap2\n      pop\n        /* \"contracts/mirrorseaMain.sol\":6097:6123  openOrderIdList.length.sub */\n      tag_251\n        /* \"contracts/mirrorseaMain.sol\":6097:6126  openOrderIdList.length.sub(1) */\n      jump\t// in\n    tag_257:\n        /* \"contracts/mirrorseaMain.sol\":6083:6093  OrderIndex */\n      0x6b\n      dup1\n      sload\n        /* \"contracts/mirrorseaMain.sol\":6061:6094  openOrderIdList_index[OrderIndex] */\n      0x00\n      swap1\n      dup2\n      mstore\n        /* \"contracts/mirrorseaMain.sol\":6061:6082  openOrderIdList_index */\n      0x6d\n        /* \"contracts/mirrorseaMain.sol\":6061:6094  openOrderIdList_index[OrderIndex] */\n      0x20\n      swap1\n      dup2\n      mstore\n      0x40\n      dup1\n      dup4\n      keccak256\n        /* \"contracts/mirrorseaMain.sol\":6061:6126  openOrderIdList_index[OrderIndex] = openOrderIdList.length.sub(1) */\n      swap5\n      swap1\n      swap5\n      sstore\n        /* \"contracts/mirrorseaMain.sol\":6155:6165  msg.sender */\n      caller\n        /* \"contracts/mirrorseaMain.sol\":6137:6166  myOpenOrderIdList[msg.sender] */\n      dup1\n      dup4\n      mstore\n        /* \"contracts/mirrorseaMain.sol\":6137:6154  myOpenOrderIdList */\n      0x6e\n        /* \"contracts/mirrorseaMain.sol\":6137:6166  myOpenOrderIdList[msg.sender] */\n      dup1\n      dup4\n      mstore\n      dup6\n      dup5\n      keccak256\n        /* \"contracts/mirrorseaMain.sol\":6172:6182  OrderIndex */\n      dup6\n      sload\n        /* \"contracts/mirrorseaMain.sol\":6137:6183  myOpenOrderIdList[msg.sender].push(OrderIndex) */\n      dup2\n      sload\n      0x01\n      dup2\n      dup2\n      add\n      dup5\n      sstore\n      dup4\n      dup9\n      mstore\n      dup7\n      dup9\n      keccak256\n      swap1\n      swap2\n      add\n      swap2\n      swap1\n      swap2\n      sstore\n        /* \"contracts/mirrorseaMain.sol\":6298:6308  OrderIndex */\n      swap6\n      sload\n        /* \"contracts/mirrorseaMain.sol\":6193:6228  myOpenOrderIdList_index[msg.sender] */\n      swap3\n      dup6\n      mstore\n        /* \"contracts/mirrorseaMain.sol\":6193:6216  myOpenOrderIdList_index */\n      0x6f\n        /* \"contracts/mirrorseaMain.sol\":6193:6228  myOpenOrderIdList_index[msg.sender] */\n      dup5\n      mstore\n      swap6\n      dup5\n      keccak256\n        /* \"contracts/mirrorseaMain.sol\":6242:6271  myOpenOrderIdList[msg.sender] */\n      swap3\n      mstore\n        /* \"contracts/mirrorseaMain.sol\":6242:6278  myOpenOrderIdList[msg.sender].length */\n      swap4\n      sload\n        /* \"contracts/mirrorseaMain.sol\":6193:6228  myOpenOrderIdList_index[msg.sender] */\n      swap1\n      swap3\n        /* \"contracts/mirrorseaMain.sol\":6242:6285  myOpenOrderIdList[msg.sender].length.sub(1) */\n      tag_259\n      swap2\n        /* \"contracts/mirrorseaMain.sol\":6242:6278  myOpenOrderIdList[msg.sender].length */\n      swap1\n        /* \"contracts/mirrorseaMain.sol\":6242:6282  myOpenOrderIdList[msg.sender].length.sub */\n      tag_251\n        /* \"contracts/mirrorseaMain.sol\":6242:6285  myOpenOrderIdList[msg.sender].length.sub(1) */\n      jump\t// in\n    tag_259:\n        /* \"contracts/mirrorseaMain.sol\":6193:6295  myOpenOrderIdList_index[msg.sender][... */\n      dup2\n      mstore\n      0x20\n      add\n      swap1\n      dup2\n      mstore\n      0x20\n      add\n      0x00\n      keccak256\n        /* \"contracts/mirrorseaMain.sol\":6193:6308  myOpenOrderIdList_index[msg.sender][... */\n      dup2\n      swap1\n      sstore\n      pop\n        /* \"contracts/mirrorseaMain.sol\":6319:6329  OrderIndex */\n      0x6b\n      0x00\n        /* \"contracts/mirrorseaMain.sol\":6319:6331  OrderIndex++ */\n      dup2\n      sload\n      dup1\n      swap3\n      swap2\n      swap1\n      tag_260\n      swap1\n      tag_202\n      jump\t// in\n    tag_260:\n      swap1\n      swap2\n      sstore\n      pop\n      pop\n        /* \"contracts/mirrorseaMain.sol\":6342:6365  order.user = msg.sender */\n      dup3\n      sload\n      not(sub(shl(0xa0, 0x01), 0x01))\n      and\n        /* \"contracts/mirrorseaMain.sol\":6355:6365  msg.sender */\n      caller\n        /* \"contracts/mirrorseaMain.sol\":6342:6365  order.user = msg.sender */\n      or\n      dup4\n      sstore\n      0x01\n        /* \"contracts/mirrorseaMain.sol\":6375:6386  order._type */\n      dup4\n      add\n        /* \"contracts/mirrorseaMain.sol\":6375:6394  order._type = _type */\n      dup10\n      swap1\n      sstore\n        /* \"contracts/mirrorseaMain.sol\":6404:6428  order.symbols = _symbols */\n      dup8\n      mload\n      tag_261\n      swap1\n        /* \"contracts/mirrorseaMain.sol\":6404:6417  order.symbols */\n      0x02\n      dup6\n      add\n      swap1\n        /* \"contracts/mirrorseaMain.sol\":6404:6428  order.symbols = _symbols */\n      0x20\n      dup12\n      add\n      swap1\n      tag_262\n      jump\t// in\n    tag_261:\n      pop\n        /* \"contracts/mirrorseaMain.sol\":6452:6453  1 */\n      0x01\n        /* \"contracts/mirrorseaMain.sol\":6438:6449  order.state */\n      0x03\n      dup5\n      add\n        /* \"contracts/mirrorseaMain.sol\":6438:6453  order.state = 1 */\n      sstore\n        /* \"contracts/mirrorseaMain.sol\":6539:6554  order.direction */\n      0x04\n      dup4\n      add\n        /* \"contracts/mirrorseaMain.sol\":6539:6567  order.direction = _direction */\n      dup11\n      swap1\n      sstore\n        /* \"contracts/mirrorseaMain.sol\":6594:6611  order.openPrice18 */\n      0x05\n      dup4\n      add\n        /* \"contracts/mirrorseaMain.sol\":6594:6622  order.openPrice18 = _price18 */\n      dup8\n      swap1\n      sstore\n        /* \"contracts/mirrorseaMain.sol\":6632:6646  order.openTime */\n      0x06\n      dup4\n      add\n        /* \"contracts/mirrorseaMain.sol\":6632:6659  order.openTime = _timestamp */\n      dup12\n      swap1\n      sstore\n        /* \"contracts/mirrorseaMain.sol\":6669:6678  order.amt */\n      0x09\n      dup4\n      add\n        /* \"contracts/mirrorseaMain.sol\":6669:6685  order.amt = _amt */\n      dup7\n      swap1\n      sstore\n        /* \"contracts/mirrorseaMain.sol\":6710:6731  uscBalanceOf.sub(fee) */\n      tag_263\n        /* \"contracts/mirrorseaMain.sol\":6710:6722  uscBalanceOf */\n      dup3\n        /* \"contracts/mirrorseaMain.sol\":6727:6730  fee */\n      dup3\n        /* \"contracts/mirrorseaMain.sol\":6710:6726  uscBalanceOf.sub */\n      tag_251\n        /* \"contracts/mirrorseaMain.sol\":6710:6731  uscBalanceOf.sub(fee) */\n      jump\t// in\n    tag_263:\n        /* \"contracts/mirrorseaMain.sol\":6695:6707  order.margin */\n      0x0a\n      swap1\n      swap4\n      add\n        /* \"contracts/mirrorseaMain.sol\":6695:6731  order.margin = uscBalanceOf.sub(fee) */\n      swap3\n      swap1\n      swap3\n      sstore\n      pop\n        /* \"contracts/mirrorseaMain.sol\":6749:6753  true */\n      0x01\n      swap10\n        /* \"contracts/mirrorseaMain.sol\":5062:6760  function openPosition(... */\n      swap9\n      pop\n      pop\n      pop\n      pop\n      pop\n      pop\n      pop\n      pop\n      pop\n      jump\t// out\n        /* \"contracts/mirrorseaMain.sol\":1062:1102  mapping(address => bool) public executor */\n    tag_83:\n      mstore(0x20, 0x65)\n      0x00\n      swap1\n      dup2\n      mstore\n      0x40\n      swap1\n      keccak256\n      sload\n      0xff\n      and\n      dup2\n      jump\t// out\n        /* \"contracts/mirrorseaMain.sol\":3406:3518  function orderInfo(uint256 _id) external view returns (OrderInfo memory) {... */\n    tag_87:\n        /* \"contracts/mirrorseaMain.sol\":3461:3477  OrderInfo memory */\n      tag_264\n      tag_265\n      jump\t// in\n    tag_264:\n        /* \"contracts/mirrorseaMain.sol\":3496:3511  _orderInfo[_id] */\n      0x00\n      dup3\n      dup2\n      mstore\n        /* \"contracts/mirrorseaMain.sol\":3496:3506  _orderInfo */\n      0x6a\n        /* \"contracts/mirrorseaMain.sol\":3496:3511  _orderInfo[_id] */\n      0x20\n      swap1\n      dup2\n      mstore\n      0x40\n      swap2\n      dup3\n      swap1\n      keccak256\n        /* \"contracts/mirrorseaMain.sol\":3489:3511  return _orderInfo[_id] */\n      dup3\n      mload\n      0x0160\n      dup2\n      add\n      dup5\n      mstore\n      dup2\n      sload\n      sub(shl(0xa0, 0x01), 0x01)\n      and\n      dup2\n      mstore\n      0x01\n      dup3\n      add\n      sload\n      swap3\n      dup2\n      add\n      swap3\n      swap1\n      swap3\n      mstore\n      0x02\n      dup2\n      add\n      dup1\n      sload\n      swap3\n      swap4\n        /* \"contracts/mirrorseaMain.sol\":3496:3511  _orderInfo[_id] */\n      swap2\n      swap3\n        /* \"contracts/mirrorseaMain.sol\":3489:3511  return _orderInfo[_id] */\n      swap2\n      dup5\n      add\n      swap2\n      tag_267\n      swap1\n      tag_268\n      jump\t// in\n    tag_267:\n      dup1\n      0x1f\n      add\n      0x20\n      dup1\n      swap2\n      div\n      mul\n      0x20\n      add\n      mload(0x40)\n      swap1\n      dup2\n      add\n      0x40\n      mstore\n      dup1\n      swap3\n      swap2\n      swap1\n      dup2\n      dup2\n      mstore\n      0x20\n      add\n      dup3\n      dup1\n      sload\n      tag_269\n      swap1\n      tag_268\n      jump\t// in\n    tag_269:\n      dup1\n      iszero\n      tag_270\n      jumpi\n      dup1\n      0x1f\n      lt\n      tag_271\n      jumpi\n      0x0100\n      dup1\n      dup4\n      sload\n      div\n      mul\n      dup4\n      mstore\n      swap2\n      0x20\n      add\n      swap2\n      jump(tag_270)\n    tag_271:\n      dup3\n      add\n      swap2\n      swap1\n      0x00\n      mstore\n      keccak256(0x00, 0x20)\n      swap1\n    tag_272:\n      dup2\n      sload\n      dup2\n      mstore\n      swap1\n      0x01\n      add\n      swap1\n      0x20\n      add\n      dup1\n      dup4\n      gt\n      tag_272\n      jumpi\n      dup3\n      swap1\n      sub\n      0x1f\n      and\n      dup3\n      add\n      swap2\n    tag_270:\n      pop\n      pop\n      pop\n      pop\n      pop\n      dup2\n      mstore\n      0x20\n      add\n      0x03\n      dup3\n      add\n      sload\n      dup2\n      mstore\n      0x20\n      add\n      0x04\n      dup3\n      add\n      sload\n      dup2\n      mstore\n      0x20\n      add\n      0x05\n      dup3\n      add\n      sload\n      dup2\n      mstore\n      0x20\n      add\n      0x06\n      dup3\n      add\n      sload\n      dup2\n      mstore\n      0x20\n      add\n      0x07\n      dup3\n      add\n      sload\n      dup2\n      mstore\n      0x20\n      add\n      0x08\n      dup3\n      add\n      sload\n      dup2\n      mstore\n      0x20\n      add\n      0x09\n      dup3\n      add\n      sload\n      dup2\n      mstore\n      0x20\n      add\n      0x0a\n      dup3\n      add\n      sload\n      dup2\n      mstore\n      pop\n      pop\n      swap1\n      pop\n        /* \"contracts/mirrorseaMain.sol\":3406:3518  function orderInfo(uint256 _id) external view returns (OrderInfo memory) {... */\n    tag_266:\n      swap2\n      swap1\n      pop\n      jump\t// out\n        /* \"contracts/mirrorseaMain.sol\":3274:3400  function setSigner(address _address) external onlyOwner returns (bool) {... */\n    tag_92:\n        /* \"contracts/mirrorseaMain.sol\":3339:3343  bool */\n      0x00\n        /* \"@openzeppelin/contracts-upgradeable/access/OwnableUpgradeable.sol\":1525:1537  _msgSender() */\n      tag_274\n        /* \"@openzeppelin/contracts-upgradeable/access/OwnableUpgradeable.sol\":1525:1535  _msgSender */\n      tag_207\n        /* \"@openzeppelin/contracts-upgradeable/access/OwnableUpgradeable.sol\":1525:1537  _msgSender() */\n      jump\t// in\n    tag_274:\n      sub(shl(0xa0, 0x01), 0x01)\n        /* \"@openzeppelin/contracts-upgradeable/access/OwnableUpgradeable.sol\":1514:1537  owner() == _msgSender() */\n      and\n        /* \"@openzeppelin/contracts-upgradeable/access/OwnableUpgradeable.sol\":1514:1521  owner() */\n      tag_275\n        /* \"@openzeppelin/contracts-upgradeable/access/OwnableUpgradeable.sol\":1514:1519  owner */\n      tag_114\n        /* \"@openzeppelin/contracts-upgradeable/access/OwnableUpgradeable.sol\":1514:1521  owner() */\n      jump\t// in\n    tag_275:\n      sub(shl(0xa0, 0x01), 0x01)\n        /* \"@openzeppelin/contracts-upgradeable/access/OwnableUpgradeable.sol\":1514:1537  owner() == _msgSender() */\n      and\n      eq\n        /* \"@openzeppelin/contracts-upgradeable/access/OwnableUpgradeable.sol\":1506:1574  require(owner() == _msgSender(), \"Ownable: caller is not the owner\") */\n      tag_276\n      jumpi\n      mload(0x40)\n      shl(0xe5, 0x461bcd)\n      dup2\n      mstore\n      0x04\n      add\n      tag_188\n      swap1\n      tag_211\n      jump\t// in\n    tag_276:\n      pop\n        /* \"contracts/mirrorseaMain.sol\":3355:3361  signer */\n      0x66\n        /* \"contracts/mirrorseaMain.sol\":3355:3372  signer = _address */\n      dup1\n      sload\n      sub(shl(0xa0, 0x01), 0x01)\n      dup4\n      and\n      not(sub(shl(0xa0, 0x01), 0x01))\n      swap1\n      swap2\n      and\n      or\n      swap1\n      sstore\n      0x01\n        /* \"contracts/mirrorseaMain.sol\":3274:3400  function setSigner(address _address) external onlyOwner returns (bool) {... */\n      swap2\n      swap1\n      pop\n      jump\t// out\n        /* \"contracts/mirrorseaMain.sol\":11391:12177  function liquidation(... */\n    tag_97:\n        /* \"contracts/mirrorseaMain.sol\":3185:3195  msg.sender */\n      caller\n        /* \"contracts/mirrorseaMain.sol\":11620:11624  bool */\n      0x00\n        /* \"contracts/mirrorseaMain.sol\":3176:3196  executor[msg.sender] */\n      swap1\n      dup2\n      mstore\n        /* \"contracts/mirrorseaMain.sol\":3176:3184  executor */\n      0x65\n        /* \"contracts/mirrorseaMain.sol\":3176:3196  executor[msg.sender] */\n      0x20\n      mstore\n      0x40\n      dup2\n      keccak256\n      sload\n      0xff\n      and\n        /* \"contracts/mirrorseaMain.sol\":3168:3237  require(executor[msg.sender], \"executor: caller is not the executor\") */\n      tag_280\n      jumpi\n      mload(0x40)\n      shl(0xe5, 0x461bcd)\n      dup2\n      mstore\n      0x04\n      add\n      tag_188\n      swap1\n      tag_282\n      jump\t// in\n    tag_280:\n        /* \"contracts/mirrorseaMain.sol\":11641:11650  uint256 i */\n      0x00\n        /* \"contracts/mirrorseaMain.sol\":11636:12149  for (uint256 i = 0; i < _id.length; i++) {... */\n    tag_284:\n        /* \"contracts/mirrorseaMain.sol\":11660:11663  _id */\n      dup7\n        /* \"contracts/mirrorseaMain.sol\":11660:11670  _id.length */\n      mload\n        /* \"contracts/mirrorseaMain.sol\":11656:11657  i */\n      dup2\n        /* \"contracts/mirrorseaMain.sol\":11656:11670  i < _id.length */\n      lt\n        /* \"contracts/mirrorseaMain.sol\":11636:12149  for (uint256 i = 0; i < _id.length; i++) {... */\n      iszero\n      tag_285\n      jumpi\n        /* \"contracts/mirrorseaMain.sol\":11691:11714  OrderInfo storage order */\n      0x00\n        /* \"contracts/mirrorseaMain.sol\":11717:11727  _orderInfo */\n      0x6a\n        /* \"contracts/mirrorseaMain.sol\":11717:11735  _orderInfo[_id[i]] */\n      0x00\n        /* \"contracts/mirrorseaMain.sol\":11728:11731  _id */\n      dup10\n        /* \"contracts/mirrorseaMain.sol\":11732:11733  i */\n      dup5\n        /* \"contracts/mirrorseaMain.sol\":11728:11734  _id[i] */\n      dup2\n      mload\n      dup2\n      lt\n      tag_287\n      jumpi\n      mstore(0x00, shl(0xe0, 0x4e487b71))\n      mstore(0x04, 0x32)\n      revert(0x00, 0x24)\n    tag_287:\n      0x20\n      mul\n      0x20\n      add\n      add\n      mload\n        /* \"contracts/mirrorseaMain.sol\":11717:11735  _orderInfo[_id[i]] */\n      dup2\n      mstore\n      0x20\n      add\n      swap1\n      dup2\n      mstore\n      0x20\n      add\n      0x00\n      keccak256\n        /* \"contracts/mirrorseaMain.sol\":11691:11735  OrderInfo storage order = _orderInfo[_id[i]] */\n      swap1\n      pop\n        /* \"contracts/mirrorseaMain.sol\":11754:11799  _isSolvent(_id[i], _price18[i], order.margin) */\n      tag_288\n        /* \"contracts/mirrorseaMain.sol\":11765:11768  _id */\n      dup9\n        /* \"contracts/mirrorseaMain.sol\":11769:11770  i */\n      dup4\n        /* \"contracts/mirrorseaMain.sol\":11765:11771  _id[i] */\n      dup2\n      mload\n      dup2\n      lt\n      tag_289\n      jumpi\n      mstore(0x00, shl(0xe0, 0x4e487b71))\n      mstore(0x04, 0x32)\n      revert(0x00, 0x24)\n    tag_289:\n      0x20\n      mul\n      0x20\n      add\n      add\n      mload\n        /* \"contracts/mirrorseaMain.sol\":11773:11781  _price18 */\n      dup7\n        /* \"contracts/mirrorseaMain.sol\":11782:11783  i */\n      dup5\n        /* \"contracts/mirrorseaMain.sol\":11773:11784  _price18[i] */\n      dup2\n      mload\n      dup2\n      lt\n      tag_290\n      jumpi\n      mstore(0x00, shl(0xe0, 0x4e487b71))\n      mstore(0x04, 0x32)\n      revert(0x00, 0x24)\n    tag_290:\n      0x20\n      mul\n      0x20\n      add\n      add\n      mload\n        /* \"contracts/mirrorseaMain.sol\":11786:11791  order */\n      dup4\n        /* \"contracts/mirrorseaMain.sol\":11786:11798  order.margin */\n      0x0a\n      add\n      sload\n        /* \"contracts/mirrorseaMain.sol\":11754:11764  _isSolvent */\n      tag_291\n        /* \"contracts/mirrorseaMain.sol\":11754:11799  _isSolvent(_id[i], _price18[i], order.margin) */\n      jump\t// in\n    tag_288:\n        /* \"contracts/mirrorseaMain.sol\":11749:12139  if (!_isSolvent(_id[i], _price18[i], order.margin)) {... */\n      tag_292\n      jumpi\n        /* \"contracts/mirrorseaMain.sol\":11846:12124  _closePosition(... */\n      tag_293\n        /* \"contracts/mirrorseaMain.sol\":11886:11891  order */\n      dup2\n        /* \"contracts/mirrorseaMain.sol\":11917:11918  3 */\n      0x03\n        /* \"contracts/mirrorseaMain.sol\":11944:11947  _id */\n      dup11\n        /* \"contracts/mirrorseaMain.sol\":11948:11949  i */\n      dup6\n        /* \"contracts/mirrorseaMain.sol\":11944:11950  _id[i] */\n      dup2\n      mload\n      dup2\n      lt\n      tag_294\n      jumpi\n      mstore(0x00, shl(0xe0, 0x4e487b71))\n      mstore(0x04, 0x32)\n      revert(0x00, 0x24)\n    tag_294:\n      0x20\n      mul\n      0x20\n      add\n      add\n      mload\n        /* \"contracts/mirrorseaMain.sol\":11976:11986  _timestamp */\n      dup11\n        /* \"contracts/mirrorseaMain.sol\":11987:11988  i */\n      dup7\n        /* \"contracts/mirrorseaMain.sol\":11976:11989  _timestamp[i] */\n      dup2\n      mload\n      dup2\n      lt\n      tag_295\n      jumpi\n      mstore(0x00, shl(0xe0, 0x4e487b71))\n      mstore(0x04, 0x32)\n      revert(0x00, 0x24)\n    tag_295:\n      0x20\n      mul\n      0x20\n      add\n      add\n      mload\n        /* \"contracts/mirrorseaMain.sol\":12015:12023  _symbols */\n      dup11\n        /* \"contracts/mirrorseaMain.sol\":12024:12025  i */\n      dup8\n        /* \"contracts/mirrorseaMain.sol\":12015:12026  _symbols[i] */\n      dup2\n      mload\n      dup2\n      lt\n      tag_296\n      jumpi\n      mstore(0x00, shl(0xe0, 0x4e487b71))\n      mstore(0x04, 0x32)\n      revert(0x00, 0x24)\n    tag_296:\n      0x20\n      mul\n      0x20\n      add\n      add\n      mload\n        /* \"contracts/mirrorseaMain.sol\":12052:12060  _price18 */\n      dup11\n        /* \"contracts/mirrorseaMain.sol\":12061:12062  i */\n      dup9\n        /* \"contracts/mirrorseaMain.sol\":12052:12063  _price18[i] */\n      dup2\n      mload\n      dup2\n      lt\n      tag_297\n      jumpi\n      mstore(0x00, shl(0xe0, 0x4e487b71))\n      mstore(0x04, 0x32)\n      revert(0x00, 0x24)\n    tag_297:\n      0x20\n      mul\n      0x20\n      add\n      add\n      mload\n        /* \"contracts/mirrorseaMain.sol\":12089:12099  _signature */\n      dup11\n        /* \"contracts/mirrorseaMain.sol\":12100:12101  i */\n      dup10\n        /* \"contracts/mirrorseaMain.sol\":12089:12102  _signature[i] */\n      dup2\n      mload\n      dup2\n      lt\n      tag_298\n      jumpi\n      mstore(0x00, shl(0xe0, 0x4e487b71))\n      mstore(0x04, 0x32)\n      revert(0x00, 0x24)\n    tag_298:\n      0x20\n      mul\n      0x20\n      add\n      add\n      mload\n        /* \"contracts/mirrorseaMain.sol\":11846:11860  _closePosition */\n      tag_299\n        /* \"contracts/mirrorseaMain.sol\":11846:12124  _closePosition(... */\n      jump\t// in\n    tag_293:\n        /* \"contracts/mirrorseaMain.sol\":11819:12124  return... */\n      swap3\n      pop\n      pop\n      pop\n      jump(tag_283)\n        /* \"contracts/mirrorseaMain.sol\":11749:12139  if (!_isSolvent(_id[i], _price18[i], order.margin)) {... */\n    tag_292:\n      pop\n        /* \"contracts/mirrorseaMain.sol\":11672:11675  i++ */\n      dup1\n      tag_300\n      dup2\n      tag_202\n      jump\t// in\n    tag_300:\n      swap2\n      pop\n      pop\n        /* \"contracts/mirrorseaMain.sol\":11636:12149  for (uint256 i = 0; i < _id.length; i++) {... */\n      jump(tag_284)\n    tag_285:\n      pop\n        /* \"contracts/mirrorseaMain.sol\":12166:12170  true */\n      0x01\n        /* \"contracts/mirrorseaMain.sol\":12159:12170  return true */\n      swap1\n      pop\n        /* \"contracts/mirrorseaMain.sol\":3247:3248  _ */\n    tag_283:\n        /* \"contracts/mirrorseaMain.sol\":11391:12177  function liquidation(... */\n      swap6\n      swap5\n      pop\n      pop\n      pop\n      pop\n      pop\n      jump\t// out\n        /* \"@openzeppelin/contracts-upgradeable/access/OwnableUpgradeable.sol\":1934:2035  function renounceOwnership() public virtual onlyOwner {... */\n    tag_100:\n        /* \"@openzeppelin/contracts-upgradeable/access/OwnableUpgradeable.sol\":1525:1537  _msgSender() */\n      tag_302\n        /* \"@openzeppelin/contracts-upgradeable/access/OwnableUpgradeable.sol\":1525:1535  _msgSender */\n      tag_207\n        /* \"@openzeppelin/contracts-upgradeable/access/OwnableUpgradeable.sol\":1525:1537  _msgSender() */\n      jump\t// in\n    tag_302:\n      sub(shl(0xa0, 0x01), 0x01)\n        /* \"@openzeppelin/contracts-upgradeable/access/OwnableUpgradeable.sol\":1514:1537  owner() == _msgSender() */\n      and\n        /* \"@openzeppelin/contracts-upgradeable/access/OwnableUpgradeable.sol\":1514:1521  owner() */\n      tag_303\n        /* \"@openzeppelin/contracts-upgradeable/access/OwnableUpgradeable.sol\":1514:1519  owner */\n      tag_114\n        /* \"@openzeppelin/contracts-upgradeable/access/OwnableUpgradeable.sol\":1514:1521  owner() */\n      jump\t// in\n    tag_303:\n      sub(shl(0xa0, 0x01), 0x01)\n        /* \"@openzeppelin/contracts-upgradeable/access/OwnableUpgradeable.sol\":1514:1537  owner() == _msgSender() */\n      and\n      eq\n        /* \"@openzeppelin/contracts-upgradeable/access/OwnableUpgradeable.sol\":1506:1574  require(owner() == _msgSender(), \"Ownable: caller is not the owner\") */\n      tag_304\n      jumpi\n      mload(0x40)\n      shl(0xe5, 0x461bcd)\n      dup2\n      mstore\n      0x04\n      add\n      tag_188\n      swap1\n      tag_211\n      jump\t// in\n    tag_304:\n        /* \"@openzeppelin/contracts-upgradeable/access/OwnableUpgradeable.sol\":1998:2028  _transferOwnership(address(0)) */\n      tag_307\n        /* \"@openzeppelin/contracts-upgradeable/access/OwnableUpgradeable.sol\":2025:2026  0 */\n      0x00\n        /* \"@openzeppelin/contracts-upgradeable/access/OwnableUpgradeable.sol\":1998:2016  _transferOwnership */\n      tag_308\n        /* \"@openzeppelin/contracts-upgradeable/access/OwnableUpgradeable.sol\":1998:2028  _transferOwnership(address(0)) */\n      jump\t// in\n    tag_307:\n        /* \"@openzeppelin/contracts-upgradeable/access/OwnableUpgradeable.sol\":1934:2035  function renounceOwnership() public virtual onlyOwner {... */\n      jump\t// out\n        /* \"contracts/mirrorseaMain.sol\":1481:1567  mapping(address => mapping(uint256 => uint256))... */\n    tag_104:\n      0x6f\n      0x20\n      swap1\n      dup2\n      mstore\n      0x00\n      swap3\n      dup4\n      mstore\n      0x40\n      dup1\n      dup5\n      keccak256\n      swap1\n      swap2\n      mstore\n      swap1\n      dup3\n      mstore\n      swap1\n      keccak256\n      sload\n      dup2\n      jump\t// out\n        /* \"contracts/mirrorseaMain.sol\":1206:1227  IOracle public oracle */\n    tag_107:\n      and(sub(shl(0xa0, 0x01), 0x01), sload(0x69))\n      dup2\n      jump\t// out\n        /* \"contracts/mirrorseaMain.sol\":1729:1754  uint256 public feePercent */\n    tag_111:\n      sload(0x72)\n      dup2\n      jump\t// out\n        /* \"@openzeppelin/contracts-upgradeable/access/OwnableUpgradeable.sol\":1302:1387  function owner() public view virtual returns (address) {... */\n    tag_114:\n        /* \"@openzeppelin/contracts-upgradeable/access/OwnableUpgradeable.sol\":1374:1380  _owner */\n      and(sub(shl(0xa0, 0x01), 0x01), sload(0x33))\n        /* \"@openzeppelin/contracts-upgradeable/access/OwnableUpgradeable.sol\":1302:1387  function owner() public view virtual returns (address) {... */\n      swap1\n      jump\t// out\n        /* \"contracts/mirrorseaMain.sol\":13762:14421  function adjustPosition(... */\n    tag_119:\n        /* \"contracts/mirrorseaMain.sol\":13981:13985  bool */\n      0x00\n        /* \"contracts/mirrorseaMain.sol\":14023:14038  _orderInfo[_id] */\n      dup7\n      dup2\n      mstore\n        /* \"contracts/mirrorseaMain.sol\":14023:14033  _orderInfo */\n      0x6a\n        /* \"contracts/mirrorseaMain.sol\":14023:14038  _orderInfo[_id] */\n      0x20\n      mstore\n      0x40\n      dup2\n      keccak256\n        /* \"contracts/mirrorseaMain.sol\":14056:14066  order.user */\n      dup1\n      sload\n      sub(shl(0xa0, 0x01), 0x01)\n      and\n        /* \"contracts/mirrorseaMain.sol\":14048:14105  require(order.user != address(0), \"order does not exist\") */\n      tag_311\n      jumpi\n      mload(0x40)\n      shl(0xe5, 0x461bcd)\n      dup2\n      mstore\n      0x04\n      add\n      tag_188\n      swap1\n      tag_313\n      jump\t// in\n    tag_311:\n        /* \"contracts/mirrorseaMain.sol\":14137:14138  2 */\n      0x02\n        /* \"contracts/mirrorseaMain.sol\":14123:14128  order */\n      dup2\n        /* \"contracts/mirrorseaMain.sol\":14123:14134  order.state */\n      0x03\n      add\n      sload\n        /* \"contracts/mirrorseaMain.sol\":14123:14138  order.state < 2 */\n      lt\n        /* \"contracts/mirrorseaMain.sol\":14115:14152  require(order.state < 2, \"state err\") */\n      tag_314\n      jumpi\n      mload(0x40)\n      shl(0xe5, 0x461bcd)\n      dup2\n      mstore\n      0x04\n      add\n      tag_188\n      swap1\n      tag_216\n      jump\t// in\n    tag_314:\n        /* \"contracts/mirrorseaMain.sol\":14183:14189  oracle */\n      sload(0x69)\n        /* \"contracts/mirrorseaMain.sol\":14183:14240  oracle.getkey(_price18, _timestamp, _symbols, _signature) */\n      mload(0x40)\n      shl(0xe0, 0x81952f3b)\n      dup2\n      mstore\n      sub(shl(0xa0, 0x01), 0x01)\n        /* \"contracts/mirrorseaMain.sol\":14183:14189  oracle */\n      swap1\n      swap2\n      and\n      swap1\n        /* \"contracts/mirrorseaMain.sol\":14183:14196  oracle.getkey */\n      0x81952f3b\n      swap1\n        /* \"contracts/mirrorseaMain.sol\":14183:14240  oracle.getkey(_price18, _timestamp, _symbols, _signature) */\n      tag_316\n      swap1\n        /* \"contracts/mirrorseaMain.sol\":14197:14205  _price18 */\n      dup9\n      swap1\n        /* \"contracts/mirrorseaMain.sol\":14207:14217  _timestamp */\n      dup12\n      swap1\n        /* \"contracts/mirrorseaMain.sol\":14219:14227  _symbols */\n      dup12\n      swap1\n        /* \"contracts/mirrorseaMain.sol\":14229:14239  _signature */\n      dup11\n      swap1\n        /* \"contracts/mirrorseaMain.sol\":14183:14240  oracle.getkey(_price18, _timestamp, _symbols, _signature) */\n      0x04\n      add\n      tag_218\n      jump\t// in\n    tag_316:\n      0x20\n      mload(0x40)\n      dup1\n      dup4\n      sub\n      dup2\n      dup7\n      dup1\n      extcodesize\n      iszero\n      dup1\n      iszero\n      tag_317\n      jumpi\n      0x00\n      dup1\n      revert\n    tag_317:\n      pop\n      gas\n      staticcall\n      iszero\n      dup1\n      iszero\n      tag_319\n      jumpi\n      returndatasize\n      0x00\n      dup1\n      returndatacopy\n      revert(0x00, returndatasize)\n    tag_319:\n      pop\n      pop\n      pop\n      pop\n      mload(0x40)\n      returndatasize\n      not(0x1f)\n      0x1f\n      dup3\n      add\n      and\n      dup3\n      add\n      dup1\n      0x40\n      mstore\n      pop\n      dup2\n      add\n      swap1\n      tag_320\n      swap2\n      swap1\n      tag_223\n      jump\t// in\n    tag_320:\n        /* \"contracts/mirrorseaMain.sol\":14162:14276  require(... */\n      tag_321\n      jumpi\n      mload(0x40)\n      shl(0xe5, 0x461bcd)\n      dup2\n      mstore\n      0x04\n      add\n      tag_188\n      swap1\n      tag_226\n      jump\t// in\n    tag_321:\n        /* \"contracts/mirrorseaMain.sol\":14294:14334  _isSolvent(_id, _price18, _adjustMargin) */\n      tag_323\n        /* \"contracts/mirrorseaMain.sol\":14305:14308  _id */\n      dup9\n        /* \"contracts/mirrorseaMain.sol\":14310:14318  _price18 */\n      dup7\n        /* \"contracts/mirrorseaMain.sol\":14320:14333  _adjustMargin */\n      dup6\n        /* \"contracts/mirrorseaMain.sol\":14294:14304  _isSolvent */\n      tag_291\n        /* \"contracts/mirrorseaMain.sol\":14294:14334  _isSolvent(_id, _price18, _adjustMargin) */\n      jump\t// in\n    tag_323:\n        /* \"contracts/mirrorseaMain.sol\":14286:14355  require(_isSolvent(_id, _price18, _adjustMargin), \"User is bankrupt\") */\n      tag_324\n      jumpi\n      mload(0x40)\n      shl(0xe5, 0x461bcd)\n      dup2\n      mstore\n      0x04\n      add\n      tag_188\n      swap1\n      tag_326\n      jump\t// in\n    tag_324:\n        /* \"contracts/mirrorseaMain.sol\":14365:14377  order.margin */\n      0x0a\n      add\n        /* \"contracts/mirrorseaMain.sol\":14365:14393  order.margin = _adjustMargin */\n      dup3\n      swap1\n      sstore\n      pop\n        /* \"contracts/mirrorseaMain.sol\":14410:14414  true */\n      0x01\n        /* \"contracts/mirrorseaMain.sol\":13762:14421  function adjustPosition(... */\n      swap7\n      swap6\n      pop\n      pop\n      pop\n      pop\n      pop\n      pop\n      jump\t// out\n        /* \"contracts/mirrorseaMain.sol\":10418:10953  function closePosition(... */\n    tag_124:\n        /* \"contracts/mirrorseaMain.sol\":10605:10609  bool */\n      0x00\n        /* \"contracts/mirrorseaMain.sol\":10647:10662  _orderInfo[_id] */\n      dup6\n      dup2\n      mstore\n        /* \"contracts/mirrorseaMain.sol\":10647:10657  _orderInfo */\n      0x6a\n        /* \"contracts/mirrorseaMain.sol\":10647:10662  _orderInfo[_id] */\n      0x20\n      mstore\n      0x40\n      dup2\n      keccak256\n        /* \"contracts/mirrorseaMain.sol\":10680:10690  order.user */\n      dup1\n      sload\n      sub(shl(0xa0, 0x01), 0x01)\n      and\n        /* \"contracts/mirrorseaMain.sol\":10694:10704  msg.sender */\n      caller\n        /* \"contracts/mirrorseaMain.sol\":10680:10704  order.user == msg.sender */\n      eq\n        /* \"contracts/mirrorseaMain.sol\":10672:10717  require(order.user == msg.sender, \"user err\") */\n      tag_328\n      jumpi\n      mload(0x40)\n      shl(0xe5, 0x461bcd)\n      dup2\n      mstore\n      0x04\n      add\n      tag_188\n      swap1\n      tag_330\n      jump\t// in\n    tag_328:\n        /* \"contracts/mirrorseaMain.sol\":10747:10946  _closePosition(... */\n      tag_331\n        /* \"contracts/mirrorseaMain.sol\":10779:10784  order */\n      dup2\n        /* \"contracts/mirrorseaMain.sol\":10802:10803  2 */\n      0x02\n        /* \"contracts/mirrorseaMain.sol\":10821:10824  _id */\n      dup10\n        /* \"contracts/mirrorseaMain.sol\":10842:10852  _timestamp */\n      dup10\n        /* \"contracts/mirrorseaMain.sol\":10870:10878  _symbols */\n      dup10\n        /* \"contracts/mirrorseaMain.sol\":10896:10904  _price18 */\n      dup10\n        /* \"contracts/mirrorseaMain.sol\":10922:10932  _signature */\n      dup10\n        /* \"contracts/mirrorseaMain.sol\":10747:10761  _closePosition */\n      tag_299\n        /* \"contracts/mirrorseaMain.sol\":10747:10946  _closePosition(... */\n      jump\t// in\n    tag_331:\n        /* \"contracts/mirrorseaMain.sol\":10728:10946  return... */\n      swap8\n        /* \"contracts/mirrorseaMain.sol\":10418:10953  function closePosition(... */\n      swap7\n      pop\n      pop\n      pop\n      pop\n      pop\n      pop\n      pop\n      jump\t// out\n        /* \"contracts/mirrorseaMain.sol\":12183:12679  function forcedLiquidation(... */\n    tag_128:\n        /* \"contracts/mirrorseaMain.sol\":3185:3195  msg.sender */\n      caller\n        /* \"contracts/mirrorseaMain.sol\":12387:12391  bool */\n      0x00\n        /* \"contracts/mirrorseaMain.sol\":3176:3196  executor[msg.sender] */\n      swap1\n      dup2\n      mstore\n        /* \"contracts/mirrorseaMain.sol\":3176:3184  executor */\n      0x65\n        /* \"contracts/mirrorseaMain.sol\":3176:3196  executor[msg.sender] */\n      0x20\n      mstore\n      0x40\n      dup2\n      keccak256\n      sload\n      0xff\n      and\n        /* \"contracts/mirrorseaMain.sol\":3168:3237  require(executor[msg.sender], \"executor: caller is not the executor\") */\n      tag_333\n      jumpi\n      mload(0x40)\n      shl(0xe5, 0x461bcd)\n      dup2\n      mstore\n      0x04\n      add\n      tag_188\n      swap1\n      tag_282\n      jump\t// in\n    tag_333:\n        /* \"contracts/mirrorseaMain.sol\":12403:12426  OrderInfo storage order */\n      0x00\n        /* \"contracts/mirrorseaMain.sol\":12429:12444  _orderInfo[_id] */\n      dup7\n      dup2\n      mstore\n        /* \"contracts/mirrorseaMain.sol\":12429:12439  _orderInfo */\n      0x6a\n        /* \"contracts/mirrorseaMain.sol\":12429:12444  _orderInfo[_id] */\n      0x20\n      mstore\n      0x40\n      swap1\n      keccak256\n        /* \"contracts/mirrorseaMain.sol\":12473:12672  _closePosition(... */\n      tag_331\n        /* \"contracts/mirrorseaMain.sol\":12429:12444  _orderInfo[_id] */\n      dup2\n        /* \"contracts/mirrorseaMain.sol\":12528:12529  4 */\n      0x04\n        /* \"contracts/mirrorseaMain.sol\":12440:12443  _id */\n      dup10\n        /* \"contracts/mirrorseaMain.sol\":12568:12578  _timestamp */\n      dup10\n        /* \"contracts/mirrorseaMain.sol\":12596:12604  _symbols */\n      dup10\n        /* \"contracts/mirrorseaMain.sol\":12622:12630  _price18 */\n      dup10\n        /* \"contracts/mirrorseaMain.sol\":12648:12658  _signature */\n      dup10\n        /* \"contracts/mirrorseaMain.sol\":12473:12487  _closePosition */\n      tag_299\n        /* \"contracts/mirrorseaMain.sol\":12473:12672  _closePosition(... */\n      jump\t// in\n        /* \"contracts/mirrorseaMain.sol\":1760:1784  uint256 public PRECISION */\n    tag_131:\n      sload(0x73)\n      dup2\n      jump\t// out\n        /* \"contracts/mirrorseaMain.sol\":2780:2945  function myCloseOrderIdListLength(address _user)... */\n    tag_135:\n      sub(shl(0xa0, 0x01), 0x01)\n        /* \"contracts/mirrorseaMain.sol\":2913:2938  myCloseOrderIdList[_user] */\n      dup2\n      and\n      0x00\n      swap1\n      dup2\n      mstore\n        /* \"contracts/mirrorseaMain.sol\":2913:2931  myCloseOrderIdList */\n      0x70\n        /* \"contracts/mirrorseaMain.sol\":2913:2938  myCloseOrderIdList[_user] */\n      0x20\n      swap1\n      dup2\n      mstore\n      0x40\n      swap2\n      dup3\n      swap1\n      keccak256\n        /* \"contracts/mirrorseaMain.sol\":2906:2938  return myCloseOrderIdList[_user] */\n      dup1\n      sload\n      dup4\n      mload\n      dup2\n      dup5\n      mul\n      dup2\n      add\n      dup5\n      add\n      swap1\n      swap5\n      mstore\n      dup1\n      dup5\n      mstore\n        /* \"contracts/mirrorseaMain.sol\":2874:2890  uint256[] memory */\n      0x60\n      swap4\n        /* \"contracts/mirrorseaMain.sol\":2906:2938  return myCloseOrderIdList[_user] */\n      swap3\n      dup4\n      add\n        /* \"contracts/mirrorseaMain.sol\":2913:2938  myCloseOrderIdList[_user] */\n      dup3\n        /* \"contracts/mirrorseaMain.sol\":2906:2938  return myCloseOrderIdList[_user] */\n      dup3\n      dup1\n      iszero\n      tag_338\n      jumpi\n      0x20\n      mul\n      dup3\n      add\n      swap2\n      swap1\n      0x00\n      mstore\n      keccak256(0x00, 0x20)\n      swap1\n    tag_339:\n      dup2\n      sload\n      dup2\n      mstore\n      0x20\n      add\n      swap1\n      0x01\n      add\n      swap1\n      dup1\n      dup4\n      gt\n      tag_339\n      jumpi\n    tag_338:\n      pop\n      pop\n      pop\n      pop\n      pop\n      swap1\n      pop\n        /* \"contracts/mirrorseaMain.sol\":2780:2945  function myCloseOrderIdListLength(address _user)... */\n      swap2\n      swap1\n      pop\n      jump\t// out\n        /* \"contracts/mirrorseaMain.sol\":1421:1475  mapping(address => uint256[]) public myOpenOrderIdList */\n    tag_139:\n      mstore(0x20, 0x6e)\n      dup2\n      0x00\n      mstore\n      keccak256(0x00, 0x40)\n      dup2\n      dup2\n      sload\n      dup2\n      lt\n      tag_340\n      jumpi\n      0x00\n      dup1\n      revert\n    tag_340:\n      swap1\n      0x00\n      mstore\n      keccak256(0x00, 0x20)\n      add\n      0x00\n      swap2\n      pop\n      swap2\n      pop\n      pop\n      sload\n      dup2\n      jump\t// out\n        /* \"contracts/mirrorseaMain.sol\":2611:2774  function myOpenOrderIdListLength(address _user)... */\n    tag_143:\n      sub(shl(0xa0, 0x01), 0x01)\n        /* \"contracts/mirrorseaMain.sol\":2743:2767  myOpenOrderIdList[_user] */\n      dup2\n      and\n      0x00\n      swap1\n      dup2\n      mstore\n        /* \"contracts/mirrorseaMain.sol\":2743:2760  myOpenOrderIdList */\n      0x6e\n        /* \"contracts/mirrorseaMain.sol\":2743:2767  myOpenOrderIdList[_user] */\n      0x20\n      swap1\n      dup2\n      mstore\n      0x40\n      swap2\n      dup3\n      swap1\n      keccak256\n        /* \"contracts/mirrorseaMain.sol\":2736:2767  return myOpenOrderIdList[_user] */\n      dup1\n      sload\n      dup4\n      mload\n      dup2\n      dup5\n      mul\n      dup2\n      add\n      dup5\n      add\n      swap1\n      swap5\n      mstore\n      dup1\n      dup5\n      mstore\n        /* \"contracts/mirrorseaMain.sol\":2704:2720  uint256[] memory */\n      0x60\n      swap4\n        /* \"contracts/mirrorseaMain.sol\":2736:2767  return myOpenOrderIdList[_user] */\n      swap3\n      dup4\n      add\n        /* \"contracts/mirrorseaMain.sol\":2743:2767  myOpenOrderIdList[_user] */\n      dup3\n        /* \"contracts/mirrorseaMain.sol\":2736:2767  return myOpenOrderIdList[_user] */\n      dup3\n      dup1\n      iszero\n      tag_338\n      jumpi\n      0x20\n      mul\n      dup3\n      add\n      swap2\n      swap1\n      0x00\n      mstore\n      keccak256(0x00, 0x20)\n      swap1\n      dup2\n      sload\n      dup2\n      mstore\n      0x20\n      add\n      swap1\n      0x01\n      add\n      swap1\n      dup1\n      dup4\n      gt\n      tag_339\n      jumpi\n      pop\n      pop\n      pop\n      pop\n      pop\n      swap1\n      pop\n        /* \"contracts/mirrorseaMain.sol\":2611:2774  function myOpenOrderIdListLength(address _user)... */\n      swap2\n      swap1\n      pop\n      jump\t// out\n        /* \"contracts/mirrorseaMain.sol\":1574:1629  mapping(address => uint256[]) public myCloseOrderIdList */\n    tag_147:\n      mstore(0x20, 0x70)\n      dup2\n      0x00\n      mstore\n      keccak256(0x00, 0x40)\n      dup2\n      dup2\n      sload\n      dup2\n      lt\n      tag_340\n      jumpi\n      0x00\n      dup1\n      revert\n        /* \"contracts/mirrorseaMain.sol\":1635:1722  mapping(address => mapping(uint256 => uint256))... */\n    tag_151:\n      0x71\n      0x20\n      swap1\n      dup2\n      mstore\n      0x00\n      swap3\n      dup4\n      mstore\n      0x40\n      dup1\n      dup5\n      keccak256\n      swap1\n      swap2\n      mstore\n      swap1\n      dup3\n      mstore\n      swap1\n      keccak256\n      sload\n      dup2\n      jump\t// out\n        /* \"contracts/mirrorseaMain.sol\":1791:1812  uint256 public minVal */\n    tag_154:\n      sload(0x74)\n      dup2\n      jump\t// out\n        /* \"@openzeppelin/contracts-upgradeable/access/OwnableUpgradeable.sol\":2184:2382  function transferOwnership(address newOwner) public virtual onlyOwner {... */\n    tag_158:\n        /* \"@openzeppelin/contracts-upgradeable/access/OwnableUpgradeable.sol\":1525:1537  _msgSender() */\n      tag_348\n        /* \"@openzeppelin/contracts-upgradeable/access/OwnableUpgradeable.sol\":1525:1535  _msgSender */\n      tag_207\n        /* \"@openzeppelin/contracts-upgradeable/access/OwnableUpgradeable.sol\":1525:1537  _msgSender() */\n      jump\t// in\n    tag_348:\n      sub(shl(0xa0, 0x01), 0x01)\n        /* \"@openzeppelin/contracts-upgradeable/access/OwnableUpgradeable.sol\":1514:1537  owner() == _msgSender() */\n      and\n        /* \"@openzeppelin/contracts-upgradeable/access/OwnableUpgradeable.sol\":1514:1521  owner() */\n      tag_349\n        /* \"@openzeppelin/contracts-upgradeable/access/OwnableUpgradeable.sol\":1514:1519  owner */\n      tag_114\n        /* \"@openzeppelin/contracts-upgradeable/access/OwnableUpgradeable.sol\":1514:1521  owner() */\n      jump\t// in\n    tag_349:\n      sub(shl(0xa0, 0x01), 0x01)\n        /* \"@openzeppelin/contracts-upgradeable/access/OwnableUpgradeable.sol\":1514:1537  owner() == _msgSender() */\n      and\n      eq\n        /* \"@openzeppelin/contracts-upgradeable/access/OwnableUpgradeable.sol\":1506:1574  require(owner() == _msgSender(), \"Ownable: caller is not the owner\") */\n      tag_350\n      jumpi\n      mload(0x40)\n      shl(0xe5, 0x461bcd)\n      dup2\n      mstore\n      0x04\n      add\n      tag_188\n      swap1\n      tag_211\n      jump\t// in\n    tag_350:\n      sub(shl(0xa0, 0x01), 0x01)\n        /* \"@openzeppelin/contracts-upgradeable/access/OwnableUpgradeable.sol\":2272:2294  newOwner != address(0) */\n      dup2\n      and\n        /* \"@openzeppelin/contracts-upgradeable/access/OwnableUpgradeable.sol\":2264:2337  require(newOwner != address(0), \"Ownable: new owner is the zero address\") */\n      tag_353\n      jumpi\n      mload(0x40)\n      shl(0xe5, 0x461bcd)\n      dup2\n      mstore\n      0x04\n      add\n      tag_188\n      swap1\n      tag_355\n      jump\t// in\n    tag_353:\n        /* \"@openzeppelin/contracts-upgradeable/access/OwnableUpgradeable.sol\":2347:2375  _transferOwnership(newOwner) */\n      tag_356\n        /* \"@openzeppelin/contracts-upgradeable/access/OwnableUpgradeable.sol\":2366:2374  newOwner */\n      dup2\n        /* \"@openzeppelin/contracts-upgradeable/access/OwnableUpgradeable.sol\":2347:2365  _transferOwnership */\n      tag_308\n        /* \"@openzeppelin/contracts-upgradeable/access/OwnableUpgradeable.sol\":2347:2375  _transferOwnership(newOwner) */\n      jump\t// in\n    tag_356:\n        /* \"@openzeppelin/contracts-upgradeable/access/OwnableUpgradeable.sol\":2184:2382  function transferOwnership(address newOwner) public virtual onlyOwner {... */\n      pop\n      jump\t// out\n        /* \"contracts/mirrorseaMain.sol\":1288:1313  uint256 public OrderIndex */\n    tag_160:\n      sload(0x6b)\n      dup2\n      jump\t// out\n        /* \"contracts/mirrorseaMain.sol\":2250:2605  function initialize(... */\n    tag_165:\n        /* \"@openzeppelin/contracts-upgradeable/proxy/utils/Initializable.sol\":539:552  _initializing */\n      sload(0x00)\n      0x0100\n      swap1\n      div\n      0xff\n      and\n      dup1\n        /* \"@openzeppelin/contracts-upgradeable/proxy/utils/Initializable.sol\":539:569  _initializing || !_initialized */\n      tag_358\n      jumpi\n      pop\n        /* \"@openzeppelin/contracts-upgradeable/proxy/utils/Initializable.sol\":557:569  _initialized */\n      and(0xff, sload(0x00))\n        /* \"@openzeppelin/contracts-upgradeable/proxy/utils/Initializable.sol\":556:569  !_initialized */\n      iszero\n        /* \"@openzeppelin/contracts-upgradeable/proxy/utils/Initializable.sol\":539:569  _initializing || !_initialized */\n    tag_358:\n        /* \"@openzeppelin/contracts-upgradeable/proxy/utils/Initializable.sol\":531:620  require(_initializing || !_initialized, \"Initializable: contract is already initialized\") */\n      tag_359\n      jumpi\n      mload(0x40)\n      shl(0xe5, 0x461bcd)\n      dup2\n      mstore\n      0x04\n      add\n      tag_188\n      swap1\n      tag_361\n      jump\t// in\n    tag_359:\n        /* \"@openzeppelin/contracts-upgradeable/proxy/utils/Initializable.sol\":631:650  bool isTopLevelCall */\n      0x00\n        /* \"@openzeppelin/contracts-upgradeable/proxy/utils/Initializable.sol\":654:667  _initializing */\n      sload\n      0x0100\n      swap1\n      div\n      0xff\n      and\n        /* \"@openzeppelin/contracts-upgradeable/proxy/utils/Initializable.sol\":653:667  !_initializing */\n      iszero\n        /* \"@openzeppelin/contracts-upgradeable/proxy/utils/Initializable.sol\":677:775  if (isTopLevelCall) {... */\n      dup1\n      iszero\n      tag_362\n      jumpi\n        /* \"@openzeppelin/contracts-upgradeable/proxy/utils/Initializable.sol\":711:724  _initializing */\n      0x00\n        /* \"@openzeppelin/contracts-upgradeable/proxy/utils/Initializable.sol\":711:731  _initializing = true */\n      dup1\n      sload\n      not(0xff)\n      not(0xff00)\n      swap1\n      swap2\n      and\n      0x0100\n      or\n        /* \"@openzeppelin/contracts-upgradeable/proxy/utils/Initializable.sol\":745:764  _initialized = true */\n      and\n        /* \"@openzeppelin/contracts-upgradeable/proxy/utils/Initializable.sol\":727:731  true */\n      0x01\n        /* \"@openzeppelin/contracts-upgradeable/proxy/utils/Initializable.sol\":745:764  _initialized = true */\n      or\n      swap1\n      sstore\n        /* \"@openzeppelin/contracts-upgradeable/proxy/utils/Initializable.sol\":677:775  if (isTopLevelCall) {... */\n    tag_362:\n        /* \"contracts/mirrorseaMain.sol\":2424:2440  __Ownable_init() */\n      tag_364\n        /* \"contracts/mirrorseaMain.sol\":2424:2438  __Ownable_init */\n      tag_365\n        /* \"contracts/mirrorseaMain.sol\":2424:2440  __Ownable_init() */\n      jump\t// in\n    tag_364:\n        /* \"contracts/mirrorseaMain.sol\":2450:2456  signer */\n      0x66\n        /* \"contracts/mirrorseaMain.sol\":2450:2466  signer = _signer */\n      dup1\n      sload\n      sub(shl(0xa0, 0x01), 0x01)\n      dup1\n      dup9\n      and\n      not(sub(shl(0xa0, 0x01), 0x01))\n      swap3\n      dup4\n      and\n      or\n      swap1\n      swap3\n      sstore\n        /* \"contracts/mirrorseaMain.sol\":2476:2487  helperLogic */\n      0x68\n        /* \"contracts/mirrorseaMain.sol\":2476:2502  helperLogic = _helperLogic */\n      dup1\n      sload\n      dup8\n      dup5\n      and\n      swap1\n      dup4\n      and\n      or\n      swap1\n      sstore\n        /* \"contracts/mirrorseaMain.sol\":2512:2515  usc */\n      0x67\n        /* \"contracts/mirrorseaMain.sol\":2512:2522  usc = _usc */\n      dup1\n      sload\n      dup7\n      dup5\n      and\n      swap1\n      dup4\n      and\n      or\n      swap1\n      sstore\n        /* \"contracts/mirrorseaMain.sol\":2544:2549  10000 */\n      0x2710\n        /* \"contracts/mirrorseaMain.sol\":2532:2541  PRECISION */\n      0x73\n        /* \"contracts/mirrorseaMain.sol\":2532:2549  PRECISION = 10000 */\n      sstore\n        /* \"contracts/mirrorseaMain.sol\":2559:2565  oracle */\n      0x69\n        /* \"contracts/mirrorseaMain.sol\":2559:2575  oracle = _oracle */\n      dup1\n      sload\n      swap3\n      dup6\n      and\n      swap3\n      swap1\n      swap2\n      and\n      swap2\n      swap1\n      swap2\n      or\n      swap1\n      sstore\n        /* \"contracts/mirrorseaMain.sol\":2594:2598  1e18 */\n      0x0de0b6b3a7640000\n        /* \"contracts/mirrorseaMain.sol\":2585:2591  minVal */\n      0x74\n        /* \"contracts/mirrorseaMain.sol\":2585:2598  minVal = 1e18 */\n      sstore\n        /* \"@openzeppelin/contracts-upgradeable/proxy/utils/Initializable.sol\":797:863  if (isTopLevelCall) {... */\n      dup1\n      iszero\n      tag_366\n      jumpi\n        /* \"@openzeppelin/contracts-upgradeable/proxy/utils/Initializable.sol\":847:852  false */\n      0x00\n        /* \"@openzeppelin/contracts-upgradeable/proxy/utils/Initializable.sol\":831:852  _initializing = false */\n      dup1\n      sload\n      not(0xff00)\n      and\n      swap1\n      sstore\n        /* \"@openzeppelin/contracts-upgradeable/proxy/utils/Initializable.sol\":797:863  if (isTopLevelCall) {... */\n    tag_366:\n        /* \"contracts/mirrorseaMain.sol\":2250:2605  function initialize(... */\n      pop\n      pop\n      pop\n      pop\n      pop\n      jump\t// out\n        /* \"contracts/mirrorseaMain.sol\":3524:4299  function setOrderInfo(... */\n    tag_169:\n        /* \"contracts/mirrorseaMain.sol\":3883:3887  bool */\n      0x00\n        /* \"@openzeppelin/contracts-upgradeable/access/OwnableUpgradeable.sol\":1525:1537  _msgSender() */\n      tag_368\n        /* \"@openzeppelin/contracts-upgradeable/access/OwnableUpgradeable.sol\":1525:1535  _msgSender */\n      tag_207\n        /* \"@openzeppelin/contracts-upgradeable/access/OwnableUpgradeable.sol\":1525:1537  _msgSender() */\n      jump\t// in\n    tag_368:\n      sub(shl(0xa0, 0x01), 0x01)\n        /* \"@openzeppelin/contracts-upgradeable/access/OwnableUpgradeable.sol\":1514:1537  owner() == _msgSender() */\n      and\n        /* \"@openzeppelin/contracts-upgradeable/access/OwnableUpgradeable.sol\":1514:1521  owner() */\n      tag_369\n        /* \"@openzeppelin/contracts-upgradeable/access/OwnableUpgradeable.sol\":1514:1519  owner */\n      tag_114\n        /* \"@openzeppelin/contracts-upgradeable/access/OwnableUpgradeable.sol\":1514:1521  owner() */\n      jump\t// in\n    tag_369:\n      sub(shl(0xa0, 0x01), 0x01)\n        /* \"@openzeppelin/contracts-upgradeable/access/OwnableUpgradeable.sol\":1514:1537  owner() == _msgSender() */\n      and\n      eq\n        /* \"@openzeppelin/contracts-upgradeable/access/OwnableUpgradeable.sol\":1506:1574  require(owner() == _msgSender(), \"Ownable: caller is not the owner\") */\n      tag_370\n      jumpi\n      mload(0x40)\n      shl(0xe5, 0x461bcd)\n      dup2\n      mstore\n      0x04\n      add\n      tag_188\n      swap1\n      tag_211\n      jump\t// in\n    tag_370:\n        /* \"contracts/mirrorseaMain.sol\":3916:4271  OrderInfo({... */\n      mload(0x40)\n      dup1\n      0x0160\n      add\n      0x40\n      mstore\n      dup1\n        /* \"contracts/mirrorseaMain.sol\":3946:3950  user */\n      dup14\n      sub(shl(0xa0, 0x01), 0x01)\n        /* \"contracts/mirrorseaMain.sol\":3916:4271  OrderInfo({... */\n      and\n      dup2\n      mstore\n      0x20\n      add\n        /* \"contracts/mirrorseaMain.sol\":3971:3976  _type */\n      dup13\n        /* \"contracts/mirrorseaMain.sol\":3916:4271  OrderInfo({... */\n      dup2\n      mstore\n      0x20\n      add\n        /* \"contracts/mirrorseaMain.sol\":3999:4006  symbols */\n      dup12\n        /* \"contracts/mirrorseaMain.sol\":3916:4271  OrderInfo({... */\n      dup2\n      mstore\n      0x20\n      add\n        /* \"contracts/mirrorseaMain.sol\":4027:4032  state */\n      dup11\n        /* \"contracts/mirrorseaMain.sol\":3916:4271  OrderInfo({... */\n      dup2\n      mstore\n      0x20\n      add\n        /* \"contracts/mirrorseaMain.sol\":4057:4066  direction */\n      dup10\n        /* \"contracts/mirrorseaMain.sol\":3916:4271  OrderInfo({... */\n      dup2\n      mstore\n      0x20\n      add\n        /* \"contracts/mirrorseaMain.sol\":4093:4104  openPrice18 */\n      dup9\n        /* \"contracts/mirrorseaMain.sol\":3916:4271  OrderInfo({... */\n      dup2\n      mstore\n      0x20\n      add\n        /* \"contracts/mirrorseaMain.sol\":4128:4136  openTime */\n      dup8\n        /* \"contracts/mirrorseaMain.sol\":3916:4271  OrderInfo({... */\n      dup2\n      mstore\n      0x20\n      add\n        /* \"contracts/mirrorseaMain.sol\":4164:4176  closePrice18 */\n      dup7\n        /* \"contracts/mirrorseaMain.sol\":3916:4271  OrderInfo({... */\n      dup2\n      mstore\n      0x20\n      add\n        /* \"contracts/mirrorseaMain.sol\":4201:4210  closeTime */\n      dup6\n        /* \"contracts/mirrorseaMain.sol\":3916:4271  OrderInfo({... */\n      dup2\n      mstore\n      0x20\n      add\n        /* \"contracts/mirrorseaMain.sol\":4229:4232  amt */\n      dup5\n        /* \"contracts/mirrorseaMain.sol\":3916:4271  OrderInfo({... */\n      dup2\n      mstore\n      0x20\n      add\n        /* \"contracts/mirrorseaMain.sol\":4254:4260  margin */\n      dup4\n        /* \"contracts/mirrorseaMain.sol\":3916:4271  OrderInfo({... */\n      dup2\n      mstore\n      pop\n        /* \"contracts/mirrorseaMain.sol\":3899:3909  _orderInfo */\n      0x6a\n        /* \"contracts/mirrorseaMain.sol\":3899:3913  _orderInfo[id] */\n      0x00\n        /* \"contracts/mirrorseaMain.sol\":3910:3912  id */\n      dup16\n        /* \"contracts/mirrorseaMain.sol\":3899:3913  _orderInfo[id] */\n      dup2\n      mstore\n      0x20\n      add\n      swap1\n      dup2\n      mstore\n      0x20\n      add\n      0x00\n      keccak256\n        /* \"contracts/mirrorseaMain.sol\":3899:4271  _orderInfo[id] = OrderInfo({... */\n      0x00\n      dup3\n      add\n      mload\n      dup2\n      0x00\n      add\n      exp(0x0100, 0x00)\n      dup2\n      sload\n      dup2\n      sub(shl(0xa0, 0x01), 0x01)\n      mul\n      not\n      and\n      swap1\n      dup4\n      sub(shl(0xa0, 0x01), 0x01)\n      and\n      mul\n      or\n      swap1\n      sstore\n      pop\n      0x20\n      dup3\n      add\n      mload\n      dup2\n      0x01\n      add\n      sstore\n      0x40\n      dup3\n      add\n      mload\n      dup2\n      0x02\n      add\n      swap1\n      dup1\n      mload\n      swap1\n      0x20\n      add\n      swap1\n      tag_373\n      swap3\n      swap2\n      swap1\n      tag_262\n      jump\t// in\n    tag_373:\n      pop\n      0x60\n      dup3\n      add\n      mload\n      0x03\n      dup3\n      add\n      sstore\n      0x80\n      dup3\n      add\n      mload\n      0x04\n      dup3\n      add\n      sstore\n      0xa0\n      dup3\n      add\n      mload\n      0x05\n      dup3\n      add\n      sstore\n      0xc0\n      dup3\n      add\n      mload\n      0x06\n      dup3\n      add\n      sstore\n      0xe0\n      dup3\n      add\n      mload\n      0x07\n      dup3\n      add\n      sstore\n      0x0100\n      dup3\n      add\n      mload\n      0x08\n      dup3\n      add\n      sstore\n      0x0120\n      dup3\n      add\n      mload\n      0x09\n      dup3\n      add\n      sstore\n      0x0140\n      swap1\n      swap2\n      add\n      mload\n      0x0a\n      swap1\n      swap2\n      add\n      sstore\n      pop\n        /* \"contracts/mirrorseaMain.sol\":4288:4292  true */\n      0x01\n        /* \"contracts/mirrorseaMain.sol\":3524:4299  function setOrderInfo(... */\n      swap13\n      swap12\n      pop\n      pop\n      pop\n      pop\n      pop\n      pop\n      pop\n      pop\n      pop\n      pop\n      pop\n      pop\n      jump\t// out\n        /* \"@openzeppelin/contracts-upgradeable/utils/ContextUpgradeable.sol\":876:972  function _msgSender() internal view virtual returns (address) {... */\n    tag_207:\n        /* \"@openzeppelin/contracts-upgradeable/utils/ContextUpgradeable.sol\":955:965  msg.sender */\n      caller\n        /* \"@openzeppelin/contracts-upgradeable/utils/ContextUpgradeable.sol\":876:972  function _msgSender() internal view virtual returns (address) {... */\n      swap1\n      jump\t// out\n        /* \"@openzeppelin/contracts-upgradeable/utils/math/SafeMathUpgradeable.sol\":3462:3558  function mul(uint256 a, uint256 b) internal pure returns (uint256) {... */\n    tag_228:\n        /* \"@openzeppelin/contracts-upgradeable/utils/math/SafeMathUpgradeable.sol\":3520:3527  uint256 */\n      0x00\n        /* \"@openzeppelin/contracts-upgradeable/utils/math/SafeMathUpgradeable.sol\":3546:3551  a * b */\n      tag_376\n        /* \"@openzeppelin/contracts-upgradeable/utils/math/SafeMathUpgradeable.sol\":3550:3551  b */\n      dup3\n        /* \"@openzeppelin/contracts-upgradeable/utils/math/SafeMathUpgradeable.sol\":3546:3547  a */\n      dup5\n        /* \"@openzeppelin/contracts-upgradeable/utils/math/SafeMathUpgradeable.sol\":3546:3551  a * b */\n      tag_186\n      jump\t// in\n    tag_376:\n        /* \"@openzeppelin/contracts-upgradeable/utils/math/SafeMathUpgradeable.sol\":3539:3551  return a * b */\n      swap4\n        /* \"@openzeppelin/contracts-upgradeable/utils/math/SafeMathUpgradeable.sol\":3462:3558  function mul(uint256 a, uint256 b) internal pure returns (uint256) {... */\n      swap3\n      pop\n      pop\n      pop\n      jump\t// out\n        /* \"@openzeppelin/contracts-upgradeable/token/ERC20/utils/SafeERC20Upgradeable.sol\":967:1219  function safeTransferFrom(... */\n    tag_234:\n        /* \"@openzeppelin/contracts-upgradeable/token/ERC20/utils/SafeERC20Upgradeable.sol\":1116:1212  _callOptionalReturn(token, abi.encodeWithSelector(token.transferFrom.selector, from, to, value)) */\n      tag_378\n        /* \"@openzeppelin/contracts-upgradeable/token/ERC20/utils/SafeERC20Upgradeable.sol\":1136:1141  token */\n      dup5\n        /* \"@openzeppelin/contracts-upgradeable/token/ERC20/utils/SafeERC20Upgradeable.sol\":1166:1193  token.transferFrom.selector */\n      shl(0xe0, 0x23b872dd)\n        /* \"@openzeppelin/contracts-upgradeable/token/ERC20/utils/SafeERC20Upgradeable.sol\":1195:1199  from */\n      dup6\n        /* \"@openzeppelin/contracts-upgradeable/token/ERC20/utils/SafeERC20Upgradeable.sol\":1201:1203  to */\n      dup6\n        /* \"@openzeppelin/contracts-upgradeable/token/ERC20/utils/SafeERC20Upgradeable.sol\":1205:1210  value */\n      dup6\n        /* \"@openzeppelin/contracts-upgradeable/token/ERC20/utils/SafeERC20Upgradeable.sol\":1143:1211  abi.encodeWithSelector(token.transferFrom.selector, from, to, value) */\n      add(0x24, mload(0x40))\n      tag_379\n      swap4\n      swap3\n      swap2\n      swap1\n      tag_380\n      jump\t// in\n    tag_379:\n      0x40\n      dup1\n      mload\n      not(0x1f)\n      dup2\n      dup5\n      sub\n      add\n      dup2\n      mstore\n      swap2\n      swap1\n      mstore\n      0x20\n      dup2\n      add\n      dup1\n      mload\n      sub(shl(0xe0, 0x01), 0x01)\n      and\n      not(sub(shl(0xe0, 0x01), 0x01))\n      swap1\n      swap4\n      and\n      swap3\n      swap1\n      swap3\n      or\n      swap1\n      swap2\n      mstore\n        /* \"@openzeppelin/contracts-upgradeable/token/ERC20/utils/SafeERC20Upgradeable.sol\":1116:1135  _callOptionalReturn */\n      tag_381\n        /* \"@openzeppelin/contracts-upgradeable/token/ERC20/utils/SafeERC20Upgradeable.sol\":1116:1212  _callOptionalReturn(token, abi.encodeWithSelector(token.transferFrom.selector, from, to, value)) */\n      jump\t// in\n    tag_378:\n        /* \"@openzeppelin/contracts-upgradeable/token/ERC20/utils/SafeERC20Upgradeable.sol\":967:1219  function safeTransferFrom(... */\n      pop\n      pop\n      pop\n      pop\n      jump\t// out\n        /* \"@openzeppelin/contracts-upgradeable/utils/math/SafeMathUpgradeable.sol\":3847:3943  function div(uint256 a, uint256 b) internal pure returns (uint256) {... */\n    tag_243:\n        /* \"@openzeppelin/contracts-upgradeable/utils/math/SafeMathUpgradeable.sol\":3905:3912  uint256 */\n      0x00\n        /* \"@openzeppelin/contracts-upgradeable/utils/math/SafeMathUpgradeable.sol\":3931:3936  a / b */\n      tag_376\n        /* \"@openzeppelin/contracts-upgradeable/utils/math/SafeMathUpgradeable.sol\":3935:3936  b */\n      dup3\n        /* \"@openzeppelin/contracts-upgradeable/utils/math/SafeMathUpgradeable.sol\":3931:3932  a */\n      dup5\n        /* \"@openzeppelin/contracts-upgradeable/utils/math/SafeMathUpgradeable.sol\":3931:3936  a / b */\n      tag_384\n      jump\t// in\n        /* \"@openzeppelin/contracts-upgradeable/token/ERC20/utils/SafeERC20Upgradeable.sol\":745:961  function safeTransfer(... */\n    tag_245:\n        /* \"@openzeppelin/contracts-upgradeable/token/ERC20/utils/SafeERC20Upgradeable.sol\":868:954  _callOptionalReturn(token, abi.encodeWithSelector(token.transfer.selector, to, value)) */\n      tag_386\n        /* \"@openzeppelin/contracts-upgradeable/token/ERC20/utils/SafeERC20Upgradeable.sol\":888:893  token */\n      dup4\n        /* \"@openzeppelin/contracts-upgradeable/token/ERC20/utils/SafeERC20Upgradeable.sol\":918:941  token.transfer.selector */\n      shl(0xe0, 0xa9059cbb)\n        /* \"@openzeppelin/contracts-upgradeable/token/ERC20/utils/SafeERC20Upgradeable.sol\":943:945  to */\n      dup5\n        /* \"@openzeppelin/contracts-upgradeable/token/ERC20/utils/SafeERC20Upgradeable.sol\":947:952  value */\n      dup5\n        /* \"@openzeppelin/contracts-upgradeable/token/ERC20/utils/SafeERC20Upgradeable.sol\":895:953  abi.encodeWithSelector(token.transfer.selector, to, value) */\n      add(0x24, mload(0x40))\n      tag_379\n      swap3\n      swap2\n      swap1\n      tag_388\n      jump\t// in\n        /* \"@openzeppelin/contracts-upgradeable/token/ERC20/utils/SafeERC20Upgradeable.sol\":868:954  _callOptionalReturn(token, abi.encodeWithSelector(token.transfer.selector, to, value)) */\n    tag_386:\n        /* \"@openzeppelin/contracts-upgradeable/token/ERC20/utils/SafeERC20Upgradeable.sol\":745:961  function safeTransfer(... */\n      pop\n      pop\n      pop\n      jump\t// out\n        /* \"@openzeppelin/contracts-upgradeable/utils/math/SafeMathUpgradeable.sol\":3119:3215  function sub(uint256 a, uint256 b) internal pure returns (uint256) {... */\n    tag_251:\n        /* \"@openzeppelin/contracts-upgradeable/utils/math/SafeMathUpgradeable.sol\":3177:3184  uint256 */\n      0x00\n        /* \"@openzeppelin/contracts-upgradeable/utils/math/SafeMathUpgradeable.sol\":3203:3208  a - b */\n      tag_376\n        /* \"@openzeppelin/contracts-upgradeable/utils/math/SafeMathUpgradeable.sol\":3207:3208  b */\n      dup3\n        /* \"@openzeppelin/contracts-upgradeable/utils/math/SafeMathUpgradeable.sol\":3203:3204  a */\n      dup5\n        /* \"@openzeppelin/contracts-upgradeable/utils/math/SafeMathUpgradeable.sol\":3203:3208  a - b */\n      tag_195\n      jump\t// in\n        /* \"contracts/mirrorseaMain.sol\":12685:13756  function _isSolvent(... */\n    tag_291:\n        /* \"contracts/mirrorseaMain.sol\":12806:12810  bool */\n      0x00\n        /* \"contracts/mirrorseaMain.sol\":12848:12863  _orderInfo[_id] */\n      dup4\n      dup2\n      mstore\n        /* \"contracts/mirrorseaMain.sol\":12848:12858  _orderInfo */\n      0x6a\n        /* \"contracts/mirrorseaMain.sol\":12848:12863  _orderInfo[_id] */\n      0x20\n      mstore\n      0x40\n      dup2\n      keccak256\n        /* \"contracts/mirrorseaMain.sol\":12955:12970  order.direction */\n      0x04\n      dup2\n      add\n      sload\n        /* \"contracts/mirrorseaMain.sol\":12806:12810  bool */\n      dup3\n      swap1\n      dup2\n      swap1\n      dup2\n      swap1\n        /* \"contracts/mirrorseaMain.sol\":12974:12975  1 */\n      0x01\n        /* \"contracts/mirrorseaMain.sol\":12955:12975  order.direction == 1 */\n      eq\n        /* \"contracts/mirrorseaMain.sol\":12951:13729  if (order.direction == 1) {... */\n      iszero\n      tag_392\n      jumpi\n        /* \"contracts/mirrorseaMain.sol\":13006:13011  order */\n      dup4\n        /* \"contracts/mirrorseaMain.sol\":13006:13023  order.openPrice18 */\n      0x05\n      add\n      sload\n        /* \"contracts/mirrorseaMain.sol\":12995:13003  _price18 */\n      dup8\n        /* \"contracts/mirrorseaMain.sol\":12995:13023  _price18 < order.openPrice18 */\n      lt\n        /* \"contracts/mirrorseaMain.sol\":12991:13340  if (_price18 < order.openPrice18) {... */\n      iszero\n      tag_400\n      jumpi\n        /* \"contracts/mirrorseaMain.sol\":13057:13074  order.openPrice18 */\n      0x05\n      dup5\n      add\n      sload\n        /* \"contracts/mirrorseaMain.sol\":13057:13088  order.openPrice18.sub(_price18) */\n      tag_394\n      swap1\n        /* \"contracts/mirrorseaMain.sol\":13079:13087  _price18 */\n      dup9\n        /* \"contracts/mirrorseaMain.sol\":13057:13078  order.openPrice18.sub */\n      tag_251\n        /* \"contracts/mirrorseaMain.sol\":13057:13088  order.openPrice18.sub(_price18) */\n      jump\t// in\n    tag_394:\n        /* \"contracts/mirrorseaMain.sol\":13043:13088  diffPrice18 = order.openPrice18.sub(_price18) */\n      swap3\n      pop\n        /* \"contracts/mirrorseaMain.sol\":13119:13145  diffPrice18.mul(order.amt) */\n      tag_395\n        /* \"contracts/mirrorseaMain.sol\":13135:13140  order */\n      dup5\n        /* \"contracts/mirrorseaMain.sol\":13135:13144  order.amt */\n      0x09\n      add\n      sload\n        /* \"contracts/mirrorseaMain.sol\":13119:13130  diffPrice18 */\n      dup5\n        /* \"contracts/mirrorseaMain.sol\":13119:13134  diffPrice18.mul */\n      tag_228\n      swap1\n        /* \"contracts/mirrorseaMain.sol\":13119:13145  diffPrice18.mul(order.amt) */\n      swap2\n      swap1\n      0xffffffff\n      and\n      jump\t// in\n    tag_395:\n        /* \"contracts/mirrorseaMain.sol\":13106:13145  diffMargin = diffPrice18.mul(order.amt) */\n      swap2\n      pop\n        /* \"contracts/mirrorseaMain.sol\":13169:13223  order.amt.mul(_price18).mul(feePercent).div(PRECISION) */\n      tag_396\n        /* \"contracts/mirrorseaMain.sol\":13213:13222  PRECISION */\n      sload(0x73)\n        /* \"contracts/mirrorseaMain.sol\":13169:13208  order.amt.mul(_price18).mul(feePercent) */\n      tag_242\n        /* \"contracts/mirrorseaMain.sol\":13197:13207  feePercent */\n      sload(0x72)\n        /* \"contracts/mirrorseaMain.sol\":13169:13192  order.amt.mul(_price18) */\n      tag_398\n        /* \"contracts/mirrorseaMain.sol\":13183:13191  _price18 */\n      dup12\n        /* \"contracts/mirrorseaMain.sol\":13169:13174  order */\n      dup10\n        /* \"contracts/mirrorseaMain.sol\":13169:13178  order.amt */\n      0x09\n      add\n      sload\n        /* \"contracts/mirrorseaMain.sol\":13169:13182  order.amt.mul */\n      tag_228\n      swap1\n        /* \"contracts/mirrorseaMain.sol\":13169:13192  order.amt.mul(_price18) */\n      swap2\n      swap1\n      0xffffffff\n      and\n      jump\t// in\n    tag_398:\n        /* \"contracts/mirrorseaMain.sol\":13169:13196  order.amt.mul(_price18).mul */\n      swap1\n      tag_228\n        /* \"contracts/mirrorseaMain.sol\":13169:13208  order.amt.mul(_price18).mul(feePercent) */\n      jump\t// in\n        /* \"contracts/mirrorseaMain.sol\":13169:13223  order.amt.mul(_price18).mul(feePercent).div(PRECISION) */\n    tag_396:\n        /* \"contracts/mirrorseaMain.sol\":13163:13223  fee = order.amt.mul(_price18).mul(feePercent).div(PRECISION) */\n      swap1\n      pop\n        /* \"contracts/mirrorseaMain.sol\":13255:13271  diffMargin + fee */\n      tag_399\n        /* \"contracts/mirrorseaMain.sol\":13163:13223  fee = order.amt.mul(_price18).mul(feePercent).div(PRECISION) */\n      dup2\n        /* \"contracts/mirrorseaMain.sol\":13255:13265  diffMargin */\n      dup4\n        /* \"contracts/mirrorseaMain.sol\":13255:13271  diffMargin + fee */\n      tag_200\n      jump\t// in\n    tag_399:\n        /* \"contracts/mirrorseaMain.sol\":13245:13252  _margin */\n      dup7\n        /* \"contracts/mirrorseaMain.sol\":13245:13271  _margin < diffMargin + fee */\n      lt\n        /* \"contracts/mirrorseaMain.sol\":13241:13326  if (_margin < diffMargin + fee) {... */\n      iszero\n      tag_400\n      jumpi\n        /* \"contracts/mirrorseaMain.sol\":13302:13307  false */\n      0x00\n        /* \"contracts/mirrorseaMain.sol\":13295:13307  return false */\n      swap5\n      pop\n      pop\n      pop\n      pop\n      pop\n      jump(tag_376)\n        /* \"contracts/mirrorseaMain.sol\":13241:13326  if (_margin < diffMargin + fee) {... */\n    tag_400:\n        /* \"contracts/mirrorseaMain.sol\":12951:13729  if (order.direction == 1) {... */\n      jump(tag_409)\n    tag_392:\n        /* \"contracts/mirrorseaMain.sol\":13385:13390  order */\n      dup4\n        /* \"contracts/mirrorseaMain.sol\":13385:13402  order.openPrice18 */\n      0x05\n      add\n      sload\n        /* \"contracts/mirrorseaMain.sol\":13374:13382  _price18 */\n      dup8\n        /* \"contracts/mirrorseaMain.sol\":13374:13402  _price18 > order.openPrice18 */\n      gt\n        /* \"contracts/mirrorseaMain.sol\":13370:13719  if (_price18 > order.openPrice18) {... */\n      iszero\n      tag_409\n      jumpi\n        /* \"contracts/mirrorseaMain.sol\":13449:13466  order.openPrice18 */\n      0x05\n      dup5\n      add\n      sload\n        /* \"contracts/mirrorseaMain.sol\":13436:13467  _price18.sub(order.openPrice18) */\n      tag_403\n      swap1\n        /* \"contracts/mirrorseaMain.sol\":13436:13444  _price18 */\n      dup9\n      swap1\n        /* \"contracts/mirrorseaMain.sol\":13436:13448  _price18.sub */\n      tag_251\n        /* \"contracts/mirrorseaMain.sol\":13436:13467  _price18.sub(order.openPrice18) */\n      jump\t// in\n    tag_403:\n        /* \"contracts/mirrorseaMain.sol\":13422:13467  diffPrice18 = _price18.sub(order.openPrice18) */\n      swap3\n      pop\n        /* \"contracts/mirrorseaMain.sol\":13498:13524  diffPrice18.mul(order.amt) */\n      tag_404\n        /* \"contracts/mirrorseaMain.sol\":13514:13519  order */\n      dup5\n        /* \"contracts/mirrorseaMain.sol\":13514:13523  order.amt */\n      0x09\n      add\n      sload\n        /* \"contracts/mirrorseaMain.sol\":13498:13509  diffPrice18 */\n      dup5\n        /* \"contracts/mirrorseaMain.sol\":13498:13513  diffPrice18.mul */\n      tag_228\n      swap1\n        /* \"contracts/mirrorseaMain.sol\":13498:13524  diffPrice18.mul(order.amt) */\n      swap2\n      swap1\n      0xffffffff\n      and\n      jump\t// in\n    tag_404:\n        /* \"contracts/mirrorseaMain.sol\":13485:13524  diffMargin = diffPrice18.mul(order.amt) */\n      swap2\n      pop\n        /* \"contracts/mirrorseaMain.sol\":13548:13602  order.amt.mul(_price18).mul(feePercent).div(PRECISION) */\n      tag_405\n        /* \"contracts/mirrorseaMain.sol\":13592:13601  PRECISION */\n      sload(0x73)\n        /* \"contracts/mirrorseaMain.sol\":13548:13587  order.amt.mul(_price18).mul(feePercent) */\n      tag_242\n        /* \"contracts/mirrorseaMain.sol\":13576:13586  feePercent */\n      sload(0x72)\n        /* \"contracts/mirrorseaMain.sol\":13548:13571  order.amt.mul(_price18) */\n      tag_398\n        /* \"contracts/mirrorseaMain.sol\":13562:13570  _price18 */\n      dup12\n        /* \"contracts/mirrorseaMain.sol\":13548:13553  order */\n      dup10\n        /* \"contracts/mirrorseaMain.sol\":13548:13557  order.amt */\n      0x09\n      add\n      sload\n        /* \"contracts/mirrorseaMain.sol\":13548:13561  order.amt.mul */\n      tag_228\n      swap1\n        /* \"contracts/mirrorseaMain.sol\":13548:13571  order.amt.mul(_price18) */\n      swap2\n      swap1\n      0xffffffff\n      and\n      jump\t// in\n        /* \"contracts/mirrorseaMain.sol\":13548:13602  order.amt.mul(_price18).mul(feePercent).div(PRECISION) */\n    tag_405:\n        /* \"contracts/mirrorseaMain.sol\":13542:13602  fee = order.amt.mul(_price18).mul(feePercent).div(PRECISION) */\n      swap1\n      pop\n        /* \"contracts/mirrorseaMain.sol\":13634:13650  diffMargin + fee */\n      tag_408\n        /* \"contracts/mirrorseaMain.sol\":13542:13602  fee = order.amt.mul(_price18).mul(feePercent).div(PRECISION) */\n      dup2\n        /* \"contracts/mirrorseaMain.sol\":13634:13644  diffMargin */\n      dup4\n        /* \"contracts/mirrorseaMain.sol\":13634:13650  diffMargin + fee */\n      tag_200\n      jump\t// in\n    tag_408:\n        /* \"contracts/mirrorseaMain.sol\":13624:13631  _margin */\n      dup7\n        /* \"contracts/mirrorseaMain.sol\":13624:13650  _margin < diffMargin + fee */\n      lt\n        /* \"contracts/mirrorseaMain.sol\":13620:13705  if (_margin < diffMargin + fee) {... */\n      iszero\n      tag_409\n      jumpi\n        /* \"contracts/mirrorseaMain.sol\":13681:13686  false */\n      0x00\n        /* \"contracts/mirrorseaMain.sol\":13674:13686  return false */\n      swap5\n      pop\n      pop\n      pop\n      pop\n      pop\n      jump(tag_376)\n        /* \"contracts/mirrorseaMain.sol\":13620:13705  if (_margin < diffMargin + fee) {... */\n    tag_409:\n      pop\n        /* \"contracts/mirrorseaMain.sol\":13745:13749  true */\n      0x01\n      swap8\n        /* \"contracts/mirrorseaMain.sol\":12685:13756  function _isSolvent(... */\n      swap7\n      pop\n      pop\n      pop\n      pop\n      pop\n      pop\n      pop\n      jump\t// out\n        /* \"contracts/mirrorseaMain.sol\":6766:10412  function _closePosition(... */\n    tag_299:\n        /* \"contracts/mirrorseaMain.sol\":7035:7045  order.user */\n      dup7\n      sload\n        /* \"contracts/mirrorseaMain.sol\":7011:7015  bool */\n      0x00\n      swap1\n      sub(shl(0xa0, 0x01), 0x01)\n        /* \"contracts/mirrorseaMain.sol\":7035:7045  order.user */\n      and\n        /* \"contracts/mirrorseaMain.sol\":7027:7084  require(order.user != address(0), \"order does not exist\") */\n      tag_411\n      jumpi\n      mload(0x40)\n      shl(0xe5, 0x461bcd)\n      dup2\n      mstore\n      0x04\n      add\n      tag_188\n      swap1\n      tag_313\n      jump\t// in\n    tag_411:\n        /* \"contracts/mirrorseaMain.sol\":7116:7117  2 */\n      0x02\n        /* \"contracts/mirrorseaMain.sol\":7102:7107  order */\n      dup9\n        /* \"contracts/mirrorseaMain.sol\":7102:7113  order.state */\n      0x03\n      add\n      sload\n        /* \"contracts/mirrorseaMain.sol\":7102:7117  order.state < 2 */\n      lt\n        /* \"contracts/mirrorseaMain.sol\":7094:7131  require(order.state < 2, \"state err\") */\n      tag_413\n      jumpi\n      mload(0x40)\n      shl(0xe5, 0x461bcd)\n      dup2\n      mstore\n      0x04\n      add\n      tag_188\n      swap1\n      tag_216\n      jump\t// in\n    tag_413:\n        /* \"contracts/mirrorseaMain.sol\":7162:7168  oracle */\n      sload(0x69)\n        /* \"contracts/mirrorseaMain.sol\":7162:7219  oracle.getkey(_price18, _timestamp, _symbols, _signature) */\n      mload(0x40)\n      shl(0xe0, 0x81952f3b)\n      dup2\n      mstore\n      sub(shl(0xa0, 0x01), 0x01)\n        /* \"contracts/mirrorseaMain.sol\":7162:7168  oracle */\n      swap1\n      swap2\n      and\n      swap1\n        /* \"contracts/mirrorseaMain.sol\":7162:7175  oracle.getkey */\n      0x81952f3b\n      swap1\n        /* \"contracts/mirrorseaMain.sol\":7162:7219  oracle.getkey(_price18, _timestamp, _symbols, _signature) */\n      tag_415\n      swap1\n        /* \"contracts/mirrorseaMain.sol\":7176:7184  _price18 */\n      dup7\n      swap1\n        /* \"contracts/mirrorseaMain.sol\":7186:7196  _timestamp */\n      dup10\n      swap1\n        /* \"contracts/mirrorseaMain.sol\":7198:7206  _symbols */\n      dup10\n      swap1\n        /* \"contracts/mirrorseaMain.sol\":7208:7218  _signature */\n      dup9\n      swap1\n        /* \"contracts/mirrorseaMain.sol\":7162:7219  oracle.getkey(_price18, _timestamp, _symbols, _signature) */\n      0x04\n      add\n      tag_218\n      jump\t// in\n    tag_415:\n      0x20\n      mload(0x40)\n      dup1\n      dup4\n      sub\n      dup2\n      dup7\n      dup1\n      extcodesize\n      iszero\n      dup1\n      iszero\n      tag_416\n      jumpi\n      0x00\n      dup1\n      revert\n    tag_416:\n      pop\n      gas\n      staticcall\n      iszero\n      dup1\n      iszero\n      tag_418\n      jumpi\n      returndatasize\n      0x00\n      dup1\n      returndatacopy\n      revert(0x00, returndatasize)\n    tag_418:\n      pop\n      pop\n      pop\n      pop\n      mload(0x40)\n      returndatasize\n      not(0x1f)\n      0x1f\n      dup3\n      add\n      and\n      dup3\n      add\n      dup1\n      0x40\n      mstore\n      pop\n      dup2\n      add\n      swap1\n      tag_419\n      swap2\n      swap1\n      tag_223\n      jump\t// in\n    tag_419:\n        /* \"contracts/mirrorseaMain.sol\":7141:7255  require(... */\n      tag_420\n      jumpi\n      mload(0x40)\n      shl(0xe5, 0x461bcd)\n      dup2\n      mstore\n      0x04\n      add\n      tag_188\n      swap1\n      tag_226\n      jump\t// in\n    tag_420:\n        /* \"contracts/mirrorseaMain.sol\":7287:7295  _price18 */\n      dup3\n        /* \"contracts/mirrorseaMain.sol\":7266:7271  order */\n      dup9\n        /* \"contracts/mirrorseaMain.sol\":7266:7284  order.closePrice18 */\n      0x07\n      add\n        /* \"contracts/mirrorseaMain.sol\":7266:7295  order.closePrice18 = _price18 */\n      dup2\n      swap1\n      sstore\n      pop\n        /* \"contracts/mirrorseaMain.sol\":7305:7324  uint256 diffPrice18 */\n      0x00\n        /* \"contracts/mirrorseaMain.sol\":7334:7352  uint256 diffMargin */\n      dup1\n        /* \"contracts/mirrorseaMain.sol\":7362:7377  uint256 mintAmt */\n      0x00\n        /* \"contracts/mirrorseaMain.sol\":7391:7396  order */\n      dup11\n        /* \"contracts/mirrorseaMain.sol\":7391:7406  order.direction */\n      0x04\n      add\n      sload\n        /* \"contracts/mirrorseaMain.sol\":7410:7411  1 */\n      0x01\n        /* \"contracts/mirrorseaMain.sol\":7391:7411  order.direction == 1 */\n      eq\n        /* \"contracts/mirrorseaMain.sol\":7387:9490  if (order.direction == 1) {... */\n      iszero\n      tag_422\n      jumpi\n        /* \"contracts/mirrorseaMain.sol\":7452:7457  order */\n      dup11\n        /* \"contracts/mirrorseaMain.sol\":7452:7469  order.openPrice18 */\n      0x05\n      add\n      sload\n        /* \"contracts/mirrorseaMain.sol\":7431:7436  order */\n      dup12\n        /* \"contracts/mirrorseaMain.sol\":7431:7449  order.closePrice18 */\n      0x07\n      add\n      sload\n        /* \"contracts/mirrorseaMain.sol\":7431:7469  order.closePrice18 > order.openPrice18 */\n      gt\n        /* \"contracts/mirrorseaMain.sol\":7427:8439  if (order.closePrice18 > order.openPrice18) {... */\n      iszero\n      tag_423\n      jumpi\n        /* \"contracts/mirrorseaMain.sol\":7526:7543  order.openPrice18 */\n      0x05\n      dup12\n      add\n      sload\n        /* \"contracts/mirrorseaMain.sol\":7503:7521  order.closePrice18 */\n      0x07\n      dup13\n      add\n      sload\n        /* \"contracts/mirrorseaMain.sol\":7503:7544  order.closePrice18.sub(order.openPrice18) */\n      tag_424\n      swap2\n        /* \"contracts/mirrorseaMain.sol\":7503:7525  order.closePrice18.sub */\n      tag_251\n        /* \"contracts/mirrorseaMain.sol\":7503:7544  order.closePrice18.sub(order.openPrice18) */\n      jump\t// in\n    tag_424:\n        /* \"contracts/mirrorseaMain.sol\":7489:7544  diffPrice18 = order.closePrice18.sub(order.openPrice18) */\n      swap3\n      pop\n        /* \"contracts/mirrorseaMain.sol\":7575:7601  diffPrice18.mul(order.amt) */\n      tag_425\n        /* \"contracts/mirrorseaMain.sol\":7591:7596  order */\n      dup12\n        /* \"contracts/mirrorseaMain.sol\":7591:7600  order.amt */\n      0x09\n      add\n      sload\n        /* \"contracts/mirrorseaMain.sol\":7575:7586  diffPrice18 */\n      dup5\n        /* \"contracts/mirrorseaMain.sol\":7575:7590  diffPrice18.mul */\n      tag_228\n      swap1\n        /* \"contracts/mirrorseaMain.sol\":7575:7601  diffPrice18.mul(order.amt) */\n      swap2\n      swap1\n      0xffffffff\n      and\n      jump\t// in\n    tag_425:\n        /* \"contracts/mirrorseaMain.sol\":7629:7641  order.margin */\n      0x0a\n      dup13\n      add\n      sload\n        /* \"contracts/mirrorseaMain.sol\":7562:7601  diffMargin = diffPrice18.mul(order.amt) */\n      swap1\n      swap3\n      pop\n        /* \"contracts/mirrorseaMain.sol\":7629:7657  order.margin.add(diffMargin) */\n      tag_426\n      swap1\n        /* \"contracts/mirrorseaMain.sol\":7562:7601  diffMargin = diffPrice18.mul(order.amt) */\n      dup4\n        /* \"contracts/mirrorseaMain.sol\":7629:7645  order.margin.add */\n      tag_427\n        /* \"contracts/mirrorseaMain.sol\":7629:7657  order.margin.add(diffMargin) */\n      jump\t// in\n    tag_426:\n        /* \"contracts/mirrorseaMain.sol\":7619:7657  mintAmt = order.margin.add(diffMargin) */\n      swap1\n      pop\n        /* \"contracts/mirrorseaMain.sol\":7675:7686  uint256 fee */\n      0x00\n        /* \"contracts/mirrorseaMain.sol\":7689:7727  mintAmt.mul(feePercent).div(PRECISION) */\n      tag_428\n        /* \"contracts/mirrorseaMain.sol\":7717:7726  PRECISION */\n      sload(0x73)\n        /* \"contracts/mirrorseaMain.sol\":7689:7712  mintAmt.mul(feePercent) */\n      tag_242\n        /* \"contracts/mirrorseaMain.sol\":7701:7711  feePercent */\n      sload(0x72)\n        /* \"contracts/mirrorseaMain.sol\":7689:7696  mintAmt */\n      dup6\n        /* \"contracts/mirrorseaMain.sol\":7689:7700  mintAmt.mul */\n      tag_228\n      swap1\n        /* \"contracts/mirrorseaMain.sol\":7689:7712  mintAmt.mul(feePercent) */\n      swap2\n      swap1\n      0xffffffff\n      and\n      jump\t// in\n        /* \"contracts/mirrorseaMain.sol\":7689:7727  mintAmt.mul(feePercent).div(PRECISION) */\n    tag_428:\n        /* \"contracts/mirrorseaMain.sol\":7758:7761  usc */\n      sload(0x67)\n        /* \"contracts/mirrorseaMain.sol\":7777:7788  helperLogic */\n      sload(0x68)\n        /* \"contracts/mirrorseaMain.sol\":7745:7795  IUSC(address(usc)).mint(address(helperLogic), fee) */\n      mload(0x40)\n      shl(0xe0, 0x40c10f19)\n      dup2\n      mstore\n        /* \"contracts/mirrorseaMain.sol\":7675:7727  uint256 fee = mintAmt.mul(feePercent).div(PRECISION) */\n      swap3\n      swap4\n      pop\n      sub(shl(0xa0, 0x01), 0x01)\n        /* \"contracts/mirrorseaMain.sol\":7758:7761  usc */\n      swap2\n      dup3\n      and\n      swap3\n        /* \"contracts/mirrorseaMain.sol\":7745:7768  IUSC(address(usc)).mint */\n      0x40c10f19\n      swap3\n        /* \"contracts/mirrorseaMain.sol\":7745:7795  IUSC(address(usc)).mint(address(helperLogic), fee) */\n      tag_430\n      swap3\n        /* \"contracts/mirrorseaMain.sol\":7777:7788  helperLogic */\n      and\n      swap1\n        /* \"contracts/mirrorseaMain.sol\":7675:7727  uint256 fee = mintAmt.mul(feePercent).div(PRECISION) */\n      dup6\n      swap1\n        /* \"contracts/mirrorseaMain.sol\":7745:7795  IUSC(address(usc)).mint(address(helperLogic), fee) */\n      0x04\n      add\n      tag_388\n      jump\t// in\n    tag_430:\n      0x20\n      mload(0x40)\n      dup1\n      dup4\n      sub\n      dup2\n      0x00\n      dup8\n      dup1\n      extcodesize\n      iszero\n      dup1\n      iszero\n      tag_431\n      jumpi\n      0x00\n      dup1\n      revert\n    tag_431:\n      pop\n      gas\n      call\n      iszero\n      dup1\n      iszero\n      tag_433\n      jumpi\n      returndatasize\n      0x00\n      dup1\n      returndatacopy\n      revert(0x00, returndatasize)\n    tag_433:\n      pop\n      pop\n      pop\n      pop\n      mload(0x40)\n      returndatasize\n      not(0x1f)\n      0x1f\n      dup3\n      add\n      and\n      dup3\n      add\n      dup1\n      0x40\n      mstore\n      pop\n      dup2\n      add\n      swap1\n      tag_434\n      swap2\n      swap1\n      tag_223\n      jump\t// in\n    tag_434:\n      pop\n        /* \"contracts/mirrorseaMain.sol\":7826:7829  usc */\n      sload(0x67)\n        /* \"contracts/mirrorseaMain.sol\":7837:7847  order.user */\n      dup13\n      sload\n      sub(shl(0xa0, 0x01), 0x01)\n        /* \"contracts/mirrorseaMain.sol\":7826:7829  usc */\n      swap2\n      dup3\n      and\n      swap2\n        /* \"contracts/mirrorseaMain.sol\":7813:7836  IUSC(address(usc)).mint */\n      0x40c10f19\n      swap2\n        /* \"contracts/mirrorseaMain.sol\":7837:7847  order.user */\n      and\n        /* \"contracts/mirrorseaMain.sol\":7849:7865  mintAmt.sub(fee) */\n      tag_435\n        /* \"contracts/mirrorseaMain.sol\":7849:7856  mintAmt */\n      dup6\n        /* \"contracts/mirrorseaMain.sol\":7861:7864  fee */\n      dup6\n        /* \"contracts/mirrorseaMain.sol\":7849:7860  mintAmt.sub */\n      tag_251\n        /* \"contracts/mirrorseaMain.sol\":7849:7865  mintAmt.sub(fee) */\n      jump\t// in\n    tag_435:\n        /* \"contracts/mirrorseaMain.sol\":7813:7866  IUSC(address(usc)).mint(order.user, mintAmt.sub(fee)) */\n      mload(0x40)\n      dup4\n      0xffffffff\n      and\n      0xe0\n      shl\n      dup2\n      mstore\n      0x04\n      add\n      tag_436\n      swap3\n      swap2\n      swap1\n      tag_388\n      jump\t// in\n    tag_436:\n      0x20\n      mload(0x40)\n      dup1\n      dup4\n      sub\n      dup2\n      0x00\n      dup8\n      dup1\n      extcodesize\n      iszero\n      dup1\n      iszero\n      tag_437\n      jumpi\n      0x00\n      dup1\n      revert\n    tag_437:\n      pop\n      gas\n      call\n      iszero\n      dup1\n      iszero\n      tag_439\n      jumpi\n      returndatasize\n      0x00\n      dup1\n      returndatacopy\n      revert(0x00, returndatasize)\n    tag_439:\n      pop\n      pop\n      pop\n      pop\n      mload(0x40)\n      returndatasize\n      not(0x1f)\n      0x1f\n      dup3\n      add\n      and\n      dup3\n      add\n      dup1\n      0x40\n      mstore\n      pop\n      dup2\n      add\n      swap1\n      tag_440\n      swap2\n      swap1\n      tag_223\n      jump\t// in\n    tag_440:\n      pop\n        /* \"contracts/mirrorseaMain.sol\":7427:8439  if (order.closePrice18 > order.openPrice18) {... */\n      pop\n      jump(tag_445)\n    tag_423:\n        /* \"contracts/mirrorseaMain.sol\":7941:7959  order.closePrice18 */\n      0x07\n      dup12\n      add\n      sload\n        /* \"contracts/mirrorseaMain.sol\":7919:7936  order.openPrice18 */\n      0x05\n      dup13\n      add\n      sload\n        /* \"contracts/mirrorseaMain.sol\":7919:7960  order.openPrice18.sub(order.closePrice18) */\n      tag_442\n      swap2\n        /* \"contracts/mirrorseaMain.sol\":7919:7940  order.openPrice18.sub */\n      tag_251\n        /* \"contracts/mirrorseaMain.sol\":7919:7960  order.openPrice18.sub(order.closePrice18) */\n      jump\t// in\n    tag_442:\n        /* \"contracts/mirrorseaMain.sol\":7905:7960  diffPrice18 = order.openPrice18.sub(order.closePrice18) */\n      swap3\n      pop\n        /* \"contracts/mirrorseaMain.sol\":7991:8017  diffPrice18.mul(order.amt) */\n      tag_443\n        /* \"contracts/mirrorseaMain.sol\":8007:8012  order */\n      dup12\n        /* \"contracts/mirrorseaMain.sol\":8007:8016  order.amt */\n      0x09\n      add\n      sload\n        /* \"contracts/mirrorseaMain.sol\":7991:8002  diffPrice18 */\n      dup5\n        /* \"contracts/mirrorseaMain.sol\":7991:8006  diffPrice18.mul */\n      tag_228\n      swap1\n        /* \"contracts/mirrorseaMain.sol\":7991:8017  diffPrice18.mul(order.amt) */\n      swap2\n      swap1\n      0xffffffff\n      and\n      jump\t// in\n    tag_443:\n        /* \"contracts/mirrorseaMain.sol\":7978:8017  diffMargin = diffPrice18.mul(order.amt) */\n      swap2\n      pop\n        /* \"contracts/mirrorseaMain.sol\":8053:8058  order */\n      dup11\n        /* \"contracts/mirrorseaMain.sol\":8053:8065  order.margin */\n      0x0a\n      add\n      sload\n        /* \"contracts/mirrorseaMain.sol\":8040:8050  diffMargin */\n      dup3\n        /* \"contracts/mirrorseaMain.sol\":8040:8065  diffMargin > order.margin */\n      gt\n        /* \"contracts/mirrorseaMain.sol\":8036:8425  if (diffMargin > order.margin) {... */\n      iszero\n      tag_444\n      jumpi\n      pop\n        /* \"contracts/mirrorseaMain.sol\":8099:8100  0 */\n      0x00\n        /* \"contracts/mirrorseaMain.sol\":8036:8425  if (diffMargin > order.margin) {... */\n      jump(tag_445)\n    tag_444:\n        /* \"contracts/mirrorseaMain.sol\":8157:8169  order.margin */\n      0x0a\n      dup12\n      add\n      sload\n        /* \"contracts/mirrorseaMain.sol\":8157:8185  order.margin.sub(diffMargin) */\n      tag_446\n      swap1\n        /* \"contracts/mirrorseaMain.sol\":8174:8184  diffMargin */\n      dup4\n        /* \"contracts/mirrorseaMain.sol\":8157:8173  order.margin.sub */\n      tag_251\n        /* \"contracts/mirrorseaMain.sol\":8157:8185  order.margin.sub(diffMargin) */\n      jump\t// in\n    tag_446:\n        /* \"contracts/mirrorseaMain.sol\":8147:8185  mintAmt = order.margin.sub(diffMargin) */\n      swap1\n      pop\n        /* \"contracts/mirrorseaMain.sol\":8207:8218  uint256 fee */\n      0x00\n        /* \"contracts/mirrorseaMain.sol\":8221:8259  mintAmt.mul(feePercent).div(PRECISION) */\n      tag_447\n        /* \"contracts/mirrorseaMain.sol\":8249:8258  PRECISION */\n      sload(0x73)\n        /* \"contracts/mirrorseaMain.sol\":8221:8244  mintAmt.mul(feePercent) */\n      tag_242\n        /* \"contracts/mirrorseaMain.sol\":8233:8243  feePercent */\n      sload(0x72)\n        /* \"contracts/mirrorseaMain.sol\":8221:8228  mintAmt */\n      dup6\n        /* \"contracts/mirrorseaMain.sol\":8221:8232  mintAmt.mul */\n      tag_228\n      swap1\n        /* \"contracts/mirrorseaMain.sol\":8221:8244  mintAmt.mul(feePercent) */\n      swap2\n      swap1\n      0xffffffff\n      and\n      jump\t// in\n        /* \"contracts/mirrorseaMain.sol\":8221:8259  mintAmt.mul(feePercent).div(PRECISION) */\n    tag_447:\n        /* \"contracts/mirrorseaMain.sol\":8294:8297  usc */\n      sload(0x67)\n        /* \"contracts/mirrorseaMain.sol\":8313:8324  helperLogic */\n      sload(0x68)\n        /* \"contracts/mirrorseaMain.sol\":8281:8331  IUSC(address(usc)).mint(address(helperLogic), fee) */\n      mload(0x40)\n      shl(0xe0, 0x40c10f19)\n      dup2\n      mstore\n        /* \"contracts/mirrorseaMain.sol\":8207:8259  uint256 fee = mintAmt.mul(feePercent).div(PRECISION) */\n      swap3\n      swap4\n      pop\n      sub(shl(0xa0, 0x01), 0x01)\n        /* \"contracts/mirrorseaMain.sol\":8294:8297  usc */\n      swap2\n      dup3\n      and\n      swap3\n        /* \"contracts/mirrorseaMain.sol\":8281:8304  IUSC(address(usc)).mint */\n      0x40c10f19\n      swap3\n        /* \"contracts/mirrorseaMain.sol\":8281:8331  IUSC(address(usc)).mint(address(helperLogic), fee) */\n      tag_449\n      swap3\n        /* \"contracts/mirrorseaMain.sol\":8313:8324  helperLogic */\n      and\n      swap1\n        /* \"contracts/mirrorseaMain.sol\":8207:8259  uint256 fee = mintAmt.mul(feePercent).div(PRECISION) */\n      dup6\n      swap1\n        /* \"contracts/mirrorseaMain.sol\":8281:8331  IUSC(address(usc)).mint(address(helperLogic), fee) */\n      0x04\n      add\n      tag_388\n      jump\t// in\n    tag_449:\n      0x20\n      mload(0x40)\n      dup1\n      dup4\n      sub\n      dup2\n      0x00\n      dup8\n      dup1\n      extcodesize\n      iszero\n      dup1\n      iszero\n      tag_450\n      jumpi\n      0x00\n      dup1\n      revert\n    tag_450:\n      pop\n      gas\n      call\n      iszero\n      dup1\n      iszero\n      tag_452\n      jumpi\n      returndatasize\n      0x00\n      dup1\n      returndatacopy\n      revert(0x00, returndatasize)\n    tag_452:\n      pop\n      pop\n      pop\n      pop\n      mload(0x40)\n      returndatasize\n      not(0x1f)\n      0x1f\n      dup3\n      add\n      and\n      dup3\n      add\n      dup1\n      0x40\n      mstore\n      pop\n      dup2\n      add\n      swap1\n      tag_453\n      swap2\n      swap1\n      tag_223\n      jump\t// in\n    tag_453:\n      pop\n        /* \"contracts/mirrorseaMain.sol\":8366:8369  usc */\n      sload(0x67)\n        /* \"contracts/mirrorseaMain.sol\":8377:8387  order.user */\n      dup13\n      sload\n      sub(shl(0xa0, 0x01), 0x01)\n        /* \"contracts/mirrorseaMain.sol\":8366:8369  usc */\n      swap2\n      dup3\n      and\n      swap2\n        /* \"contracts/mirrorseaMain.sol\":8353:8376  IUSC(address(usc)).mint */\n      0x40c10f19\n      swap2\n        /* \"contracts/mirrorseaMain.sol\":8377:8387  order.user */\n      and\n        /* \"contracts/mirrorseaMain.sol\":8389:8405  mintAmt.sub(fee) */\n      tag_454\n        /* \"contracts/mirrorseaMain.sol\":8389:8396  mintAmt */\n      dup6\n        /* \"contracts/mirrorseaMain.sol\":8401:8404  fee */\n      dup6\n        /* \"contracts/mirrorseaMain.sol\":8389:8400  mintAmt.sub */\n      tag_251\n        /* \"contracts/mirrorseaMain.sol\":8389:8405  mintAmt.sub(fee) */\n      jump\t// in\n    tag_454:\n        /* \"contracts/mirrorseaMain.sol\":8353:8406  IUSC(address(usc)).mint(order.user, mintAmt.sub(fee)) */\n      mload(0x40)\n      dup4\n      0xffffffff\n      and\n      0xe0\n      shl\n      dup2\n      mstore\n      0x04\n      add\n      tag_455\n      swap3\n      swap2\n      swap1\n      tag_388\n      jump\t// in\n    tag_455:\n      0x20\n      mload(0x40)\n      dup1\n      dup4\n      sub\n      dup2\n      0x00\n      dup8\n      dup1\n      extcodesize\n      iszero\n      dup1\n      iszero\n      tag_456\n      jumpi\n      0x00\n      dup1\n      revert\n    tag_456:\n      pop\n      gas\n      call\n      iszero\n      dup1\n      iszero\n      tag_458\n      jumpi\n      returndatasize\n      0x00\n      dup1\n      returndatacopy\n      revert(0x00, returndatasize)\n    tag_458:\n      pop\n      pop\n      pop\n      pop\n      mload(0x40)\n      returndatasize\n      not(0x1f)\n      0x1f\n      dup3\n      add\n      and\n      dup3\n      add\n      dup1\n      0x40\n      mstore\n      pop\n      dup2\n      add\n      swap1\n      tag_459\n      swap2\n      swap1\n      tag_223\n      jump\t// in\n    tag_459:\n      pop\n        /* \"contracts/mirrorseaMain.sol\":8036:8425  if (diffMargin > order.margin) {... */\n      pop\n    tag_445:\n        /* \"contracts/mirrorseaMain.sol\":7387:9490  if (order.direction == 1) {... */\n      jump(tag_482)\n    tag_422:\n        /* \"contracts/mirrorseaMain.sol\":8494:8499  order */\n      dup11\n        /* \"contracts/mirrorseaMain.sol\":8494:8511  order.openPrice18 */\n      0x05\n      add\n      sload\n        /* \"contracts/mirrorseaMain.sol\":8473:8478  order */\n      dup12\n        /* \"contracts/mirrorseaMain.sol\":8473:8491  order.closePrice18 */\n      0x07\n      add\n      sload\n        /* \"contracts/mirrorseaMain.sol\":8473:8511  order.closePrice18 < order.openPrice18 */\n      lt\n        /* \"contracts/mirrorseaMain.sol\":8469:9480  if (order.closePrice18 < order.openPrice18) {... */\n      iszero\n      tag_461\n      jumpi\n        /* \"contracts/mirrorseaMain.sol\":8567:8585  order.closePrice18 */\n      0x07\n      dup12\n      add\n      sload\n        /* \"contracts/mirrorseaMain.sol\":8545:8562  order.openPrice18 */\n      0x05\n      dup13\n      add\n      sload\n        /* \"contracts/mirrorseaMain.sol\":8545:8586  order.openPrice18.sub(order.closePrice18) */\n      tag_462\n      swap2\n        /* \"contracts/mirrorseaMain.sol\":8545:8566  order.openPrice18.sub */\n      tag_251\n        /* \"contracts/mirrorseaMain.sol\":8545:8586  order.openPrice18.sub(order.closePrice18) */\n      jump\t// in\n    tag_462:\n        /* \"contracts/mirrorseaMain.sol\":8531:8586  diffPrice18 = order.openPrice18.sub(order.closePrice18) */\n      swap3\n      pop\n        /* \"contracts/mirrorseaMain.sol\":8617:8643  diffPrice18.mul(order.amt) */\n      tag_463\n        /* \"contracts/mirrorseaMain.sol\":8633:8638  order */\n      dup12\n        /* \"contracts/mirrorseaMain.sol\":8633:8642  order.amt */\n      0x09\n      add\n      sload\n        /* \"contracts/mirrorseaMain.sol\":8617:8628  diffPrice18 */\n      dup5\n        /* \"contracts/mirrorseaMain.sol\":8617:8632  diffPrice18.mul */\n      tag_228\n      swap1\n        /* \"contracts/mirrorseaMain.sol\":8617:8643  diffPrice18.mul(order.amt) */\n      swap2\n      swap1\n      0xffffffff\n      and\n      jump\t// in\n    tag_463:\n        /* \"contracts/mirrorseaMain.sol\":8671:8683  order.margin */\n      0x0a\n      dup13\n      add\n      sload\n        /* \"contracts/mirrorseaMain.sol\":8604:8643  diffMargin = diffPrice18.mul(order.amt) */\n      swap1\n      swap3\n      pop\n        /* \"contracts/mirrorseaMain.sol\":8671:8699  order.margin.add(diffMargin) */\n      tag_446\n      swap1\n        /* \"contracts/mirrorseaMain.sol\":8604:8643  diffMargin = diffPrice18.mul(order.amt) */\n      dup4\n        /* \"contracts/mirrorseaMain.sol\":8671:8687  order.margin.add */\n      tag_427\n        /* \"contracts/mirrorseaMain.sol\":8671:8699  order.margin.add(diffMargin) */\n      jump\t// in\n        /* \"contracts/mirrorseaMain.sol\":8469:9480  if (order.closePrice18 < order.openPrice18) {... */\n    tag_461:\n        /* \"contracts/mirrorseaMain.sol\":8984:9001  order.openPrice18 */\n      0x05\n      dup12\n      add\n      sload\n        /* \"contracts/mirrorseaMain.sol\":8961:8979  order.closePrice18 */\n      0x07\n      dup13\n      add\n      sload\n        /* \"contracts/mirrorseaMain.sol\":8961:9002  order.closePrice18.sub(order.openPrice18) */\n      tag_479\n      swap2\n        /* \"contracts/mirrorseaMain.sol\":8961:8983  order.closePrice18.sub */\n      tag_251\n        /* \"contracts/mirrorseaMain.sol\":8961:9002  order.closePrice18.sub(order.openPrice18) */\n      jump\t// in\n    tag_479:\n        /* \"contracts/mirrorseaMain.sol\":8947:9002  diffPrice18 = order.closePrice18.sub(order.openPrice18) */\n      swap3\n      pop\n        /* \"contracts/mirrorseaMain.sol\":9033:9059  diffPrice18.mul(order.amt) */\n      tag_480\n        /* \"contracts/mirrorseaMain.sol\":9049:9054  order */\n      dup12\n        /* \"contracts/mirrorseaMain.sol\":9049:9058  order.amt */\n      0x09\n      add\n      sload\n        /* \"contracts/mirrorseaMain.sol\":9033:9044  diffPrice18 */\n      dup5\n        /* \"contracts/mirrorseaMain.sol\":9033:9048  diffPrice18.mul */\n      tag_228\n      swap1\n        /* \"contracts/mirrorseaMain.sol\":9033:9059  diffPrice18.mul(order.amt) */\n      swap2\n      swap1\n      0xffffffff\n      and\n      jump\t// in\n    tag_480:\n        /* \"contracts/mirrorseaMain.sol\":9020:9059  diffMargin = diffPrice18.mul(order.amt) */\n      swap2\n      pop\n        /* \"contracts/mirrorseaMain.sol\":9094:9099  order */\n      dup11\n        /* \"contracts/mirrorseaMain.sol\":9094:9106  order.margin */\n      0x0a\n      add\n      sload\n        /* \"contracts/mirrorseaMain.sol\":9081:9091  diffMargin */\n      dup3\n        /* \"contracts/mirrorseaMain.sol\":9081:9106  diffMargin > order.margin */\n      gt\n        /* \"contracts/mirrorseaMain.sol\":9077:9466  if (diffMargin > order.margin) {... */\n      iszero\n      tag_481\n      jumpi\n      pop\n        /* \"contracts/mirrorseaMain.sol\":9140:9141  0 */\n      0x00\n        /* \"contracts/mirrorseaMain.sol\":9077:9466  if (diffMargin > order.margin) {... */\n      jump(tag_482)\n    tag_481:\n        /* \"contracts/mirrorseaMain.sol\":9198:9210  order.margin */\n      0x0a\n      dup12\n      add\n      sload\n        /* \"contracts/mirrorseaMain.sol\":9198:9226  order.margin.sub(diffMargin) */\n      tag_483\n      swap1\n        /* \"contracts/mirrorseaMain.sol\":9215:9225  diffMargin */\n      dup4\n        /* \"contracts/mirrorseaMain.sol\":9198:9214  order.margin.sub */\n      tag_251\n        /* \"contracts/mirrorseaMain.sol\":9198:9226  order.margin.sub(diffMargin) */\n      jump\t// in\n    tag_483:\n        /* \"contracts/mirrorseaMain.sol\":9188:9226  mintAmt = order.margin.sub(diffMargin) */\n      swap1\n      pop\n        /* \"contracts/mirrorseaMain.sol\":9248:9259  uint256 fee */\n      0x00\n        /* \"contracts/mirrorseaMain.sol\":9262:9300  mintAmt.mul(feePercent).div(PRECISION) */\n      tag_484\n        /* \"contracts/mirrorseaMain.sol\":9290:9299  PRECISION */\n      sload(0x73)\n        /* \"contracts/mirrorseaMain.sol\":9262:9285  mintAmt.mul(feePercent) */\n      tag_242\n        /* \"contracts/mirrorseaMain.sol\":9274:9284  feePercent */\n      sload(0x72)\n        /* \"contracts/mirrorseaMain.sol\":9262:9269  mintAmt */\n      dup6\n        /* \"contracts/mirrorseaMain.sol\":9262:9273  mintAmt.mul */\n      tag_228\n      swap1\n        /* \"contracts/mirrorseaMain.sol\":9262:9285  mintAmt.mul(feePercent) */\n      swap2\n      swap1\n      0xffffffff\n      and\n      jump\t// in\n        /* \"contracts/mirrorseaMain.sol\":9262:9300  mintAmt.mul(feePercent).div(PRECISION) */\n    tag_484:\n        /* \"contracts/mirrorseaMain.sol\":9335:9338  usc */\n      sload(0x67)\n        /* \"contracts/mirrorseaMain.sol\":9354:9365  helperLogic */\n      sload(0x68)\n        /* \"contracts/mirrorseaMain.sol\":9322:9372  IUSC(address(usc)).mint(address(helperLogic), fee) */\n      mload(0x40)\n      shl(0xe0, 0x40c10f19)\n      dup2\n      mstore\n        /* \"contracts/mirrorseaMain.sol\":9248:9300  uint256 fee = mintAmt.mul(feePercent).div(PRECISION) */\n      swap3\n      swap4\n      pop\n      sub(shl(0xa0, 0x01), 0x01)\n        /* \"contracts/mirrorseaMain.sol\":9335:9338  usc */\n      swap2\n      dup3\n      and\n      swap3\n        /* \"contracts/mirrorseaMain.sol\":9322:9345  IUSC(address(usc)).mint */\n      0x40c10f19\n      swap3\n        /* \"contracts/mirrorseaMain.sol\":9322:9372  IUSC(address(usc)).mint(address(helperLogic), fee) */\n      tag_486\n      swap3\n        /* \"contracts/mirrorseaMain.sol\":9354:9365  helperLogic */\n      and\n      swap1\n        /* \"contracts/mirrorseaMain.sol\":9248:9300  uint256 fee = mintAmt.mul(feePercent).div(PRECISION) */\n      dup6\n      swap1\n        /* \"contracts/mirrorseaMain.sol\":9322:9372  IUSC(address(usc)).mint(address(helperLogic), fee) */\n      0x04\n      add\n      tag_388\n      jump\t// in\n    tag_486:\n      0x20\n      mload(0x40)\n      dup1\n      dup4\n      sub\n      dup2\n      0x00\n      dup8\n      dup1\n      extcodesize\n      iszero\n      dup1\n      iszero\n      tag_487\n      jumpi\n      0x00\n      dup1\n      revert\n    tag_487:\n      pop\n      gas\n      call\n      iszero\n      dup1\n      iszero\n      tag_489\n      jumpi\n      returndatasize\n      0x00\n      dup1\n      returndatacopy\n      revert(0x00, returndatasize)\n    tag_489:\n      pop\n      pop\n      pop\n      pop\n      mload(0x40)\n      returndatasize\n      not(0x1f)\n      0x1f\n      dup3\n      add\n      and\n      dup3\n      add\n      dup1\n      0x40\n      mstore\n      pop\n      dup2\n      add\n      swap1\n      tag_490\n      swap2\n      swap1\n      tag_223\n      jump\t// in\n    tag_490:\n      pop\n        /* \"contracts/mirrorseaMain.sol\":9407:9410  usc */\n      sload(0x67)\n        /* \"contracts/mirrorseaMain.sol\":9418:9428  order.user */\n      dup13\n      sload\n      sub(shl(0xa0, 0x01), 0x01)\n        /* \"contracts/mirrorseaMain.sol\":9407:9410  usc */\n      swap2\n      dup3\n      and\n      swap2\n        /* \"contracts/mirrorseaMain.sol\":9394:9417  IUSC(address(usc)).mint */\n      0x40c10f19\n      swap2\n        /* \"contracts/mirrorseaMain.sol\":9418:9428  order.user */\n      and\n        /* \"contracts/mirrorseaMain.sol\":9430:9446  mintAmt.sub(fee) */\n      tag_491\n        /* \"contracts/mirrorseaMain.sol\":9430:9437  mintAmt */\n      dup6\n        /* \"contracts/mirrorseaMain.sol\":9442:9445  fee */\n      dup6\n        /* \"contracts/mirrorseaMain.sol\":9430:9441  mintAmt.sub */\n      tag_251\n        /* \"contracts/mirrorseaMain.sol\":9430:9446  mintAmt.sub(fee) */\n      jump\t// in\n    tag_491:\n        /* \"contracts/mirrorseaMain.sol\":9394:9447  IUSC(address(usc)).mint(order.user, mintAmt.sub(fee)) */\n      mload(0x40)\n      dup4\n      0xffffffff\n      and\n      0xe0\n      shl\n      dup2\n      mstore\n      0x04\n      add\n      tag_492\n      swap3\n      swap2\n      swap1\n      tag_388\n      jump\t// in\n    tag_492:\n      0x20\n      mload(0x40)\n      dup1\n      dup4\n      sub\n      dup2\n      0x00\n      dup8\n      dup1\n      extcodesize\n      iszero\n      dup1\n      iszero\n      tag_493\n      jumpi\n      0x00\n      dup1\n      revert\n    tag_493:\n      pop\n      gas\n      call\n      iszero\n      dup1\n      iszero\n      tag_495\n      jumpi\n      returndatasize\n      0x00\n      dup1\n      returndatacopy\n      revert(0x00, returndatasize)\n    tag_495:\n      pop\n      pop\n      pop\n      pop\n      mload(0x40)\n      returndatasize\n      not(0x1f)\n      0x1f\n      dup3\n      add\n      and\n      dup3\n      add\n      dup1\n      0x40\n      mstore\n      pop\n      dup2\n      add\n      swap1\n      tag_496\n      swap2\n      swap1\n      tag_223\n      jump\t// in\n    tag_496:\n      pop\n        /* \"contracts/mirrorseaMain.sol\":9077:9466  if (diffMargin > order.margin) {... */\n      pop\n    tag_482:\n        /* \"contracts/mirrorseaMain.sol\":9499:9510  helperLogic */\n      0x68\n      0x00\n      swap1\n      sload\n      swap1\n      0x0100\n      exp\n      swap1\n      div\n      sub(shl(0xa0, 0x01), 0x01)\n      and\n      sub(shl(0xa0, 0x01), 0x01)\n        /* \"contracts/mirrorseaMain.sol\":9499:9525  helperLogic.jointExecution */\n      and\n      0xd10c06a2\n        /* \"contracts/mirrorseaMain.sol\":9499:9527  helperLogic.jointExecution() */\n      mload(0x40)\n      dup2\n      0xffffffff\n      and\n      0xe0\n      shl\n      dup2\n      mstore\n      0x04\n      add\n      0x20\n      mload(0x40)\n      dup1\n      dup4\n      sub\n      dup2\n      0x00\n      dup8\n      dup1\n      extcodesize\n      iszero\n      dup1\n      iszero\n      tag_497\n      jumpi\n      0x00\n      dup1\n      revert\n    tag_497:\n      pop\n      gas\n      call\n      iszero\n      dup1\n      iszero\n      tag_499\n      jumpi\n      returndatasize\n      0x00\n      dup1\n      returndatacopy\n      revert(0x00, returndatasize)\n    tag_499:\n      pop\n      pop\n      pop\n      pop\n      mload(0x40)\n      returndatasize\n      not(0x1f)\n      0x1f\n      dup3\n      add\n      and\n      dup3\n      add\n      dup1\n      0x40\n      mstore\n      pop\n      dup2\n      add\n      swap1\n      tag_500\n      swap2\n      swap1\n      tag_223\n      jump\t// in\n    tag_500:\n      pop\n        /* \"contracts/mirrorseaMain.sol\":9538:9549  order.state */\n      0x03\n      dup12\n      add\n        /* \"contracts/mirrorseaMain.sol\":9538:9558  order.state = _state */\n      dup11\n      swap1\n      sstore\n        /* \"contracts/mirrorseaMain.sol\":9568:9586  order.closePrice18 */\n      0x07\n      dup12\n      add\n        /* \"contracts/mirrorseaMain.sol\":9568:9597  order.closePrice18 = _price18 */\n      dup7\n      swap1\n      sstore\n        /* \"contracts/mirrorseaMain.sol\":9607:9622  order.closeTime */\n      0x08\n      dup12\n      add\n        /* \"contracts/mirrorseaMain.sol\":9607:9635  order.closeTime = _timestamp */\n      dup9\n      swap1\n      sstore\n        /* \"contracts/mirrorseaMain.sol\":9646:9702  cutListItem(_id, openOrderIdList_index, openOrderIdList) */\n      tag_501\n        /* \"contracts/mirrorseaMain.sol\":9658:9661  _id */\n      dup10\n        /* \"contracts/mirrorseaMain.sol\":9663:9684  openOrderIdList_index */\n      0x6d\n        /* \"contracts/mirrorseaMain.sol\":9686:9701  openOrderIdList */\n      0x6c\n        /* \"contracts/mirrorseaMain.sol\":9646:9657  cutListItem */\n      tag_502\n        /* \"contracts/mirrorseaMain.sol\":9646:9702  cutListItem(_id, openOrderIdList_index, openOrderIdList) */\n      jump\t// in\n    tag_501:\n        /* \"contracts/mirrorseaMain.sol\":9778:9788  msg.sender */\n      caller\n        /* \"contracts/mirrorseaMain.sol\":9754:9789  myOpenOrderIdList_index[msg.sender] */\n      0x00\n      swap1\n      dup2\n      mstore\n        /* \"contracts/mirrorseaMain.sol\":9754:9777  myOpenOrderIdList_index */\n      0x6f\n        /* \"contracts/mirrorseaMain.sol\":9754:9789  myOpenOrderIdList_index[msg.sender] */\n      0x20\n      swap1\n      dup2\n      mstore\n      0x40\n      dup1\n      dup4\n      keccak256\n        /* \"contracts/mirrorseaMain.sol\":9803:9820  myOpenOrderIdList */\n      0x6e\n        /* \"contracts/mirrorseaMain.sol\":9803:9832  myOpenOrderIdList[msg.sender] */\n      swap1\n      swap3\n      mstore\n      swap1\n      swap2\n      keccak256\n        /* \"contracts/mirrorseaMain.sol\":9712:9842  cutListItem(... */\n      tag_503\n      swap2\n        /* \"contracts/mirrorseaMain.sol\":9737:9740  _id */\n      dup12\n      swap2\n        /* \"contracts/mirrorseaMain.sol\":9712:9723  cutListItem */\n      tag_502\n        /* \"contracts/mirrorseaMain.sol\":9712:9842  cutListItem(... */\n      jump\t// in\n    tag_503:\n        /* \"contracts/mirrorseaMain.sol\":9872:9882  msg.sender */\n      caller\n        /* \"contracts/mirrorseaMain.sol\":9853:9883  myCloseOrderIdList[msg.sender] */\n      0x00\n      dup2\n      dup2\n      mstore\n        /* \"contracts/mirrorseaMain.sol\":9853:9871  myCloseOrderIdList */\n      0x70\n        /* \"contracts/mirrorseaMain.sol\":9853:9883  myCloseOrderIdList[msg.sender] */\n      0x20\n      swap1\n      dup2\n      mstore\n      0x40\n      dup3\n      keccak256\n        /* \"contracts/mirrorseaMain.sol\":9853:9893  myCloseOrderIdList[msg.sender].push(_id) */\n      dup1\n      sload\n      0x01\n      dup2\n      dup2\n      add\n      dup4\n      sstore\n      dup3\n      dup6\n      mstore\n      swap3\n      dup5\n      keccak256\n      add\n      dup14\n      swap1\n      sstore\n        /* \"contracts/mirrorseaMain.sol\":9947:9999  myCloseOrderIdList[... */\n      swap3\n      swap1\n      swap2\n      mstore\n        /* \"contracts/mirrorseaMain.sol\":9947:10006  myCloseOrderIdList[... */\n      swap1\n      sload\n        /* \"contracts/mirrorseaMain.sol\":9947:10013  myCloseOrderIdList[... */\n      tag_505\n      swap2\n        /* \"contracts/mirrorseaMain.sol\":9947:10010  myCloseOrderIdList[... */\n      tag_251\n        /* \"contracts/mirrorseaMain.sol\":9947:10013  myCloseOrderIdList[... */\n      jump\t// in\n    tag_505:\n        /* \"contracts/mirrorseaMain.sol\":9928:9938  msg.sender */\n      caller\n        /* \"contracts/mirrorseaMain.sol\":9903:9939  myCloseOrderIdList_index[msg.sender] */\n      0x00\n      swap1\n      dup2\n      mstore\n        /* \"contracts/mirrorseaMain.sol\":9903:9927  myCloseOrderIdList_index */\n      0x71\n        /* \"contracts/mirrorseaMain.sol\":9903:9939  myCloseOrderIdList_index[msg.sender] */\n      0x20\n      swap1\n      dup2\n      mstore\n      0x40\n      dup1\n      dup4\n      keccak256\n        /* \"contracts/mirrorseaMain.sol\":9903:9944  myCloseOrderIdList_index[msg.sender][_id] */\n      dup14\n      dup5\n      mstore\n      swap1\n      swap2\n      mstore\n      swap1\n      keccak256\n        /* \"contracts/mirrorseaMain.sol\":9903:10013  myCloseOrderIdList_index[msg.sender][_id] = myCloseOrderIdList[... */\n      sstore\n      pop\n        /* \"contracts/mirrorseaMain.sol\":10401:10405  true */\n      0x01\n      swap3\n      pop\n      pop\n      pop\n        /* \"contracts/mirrorseaMain.sol\":6766:10412  function _closePosition(... */\n      swap8\n      swap7\n      pop\n      pop\n      pop\n      pop\n      pop\n      pop\n      pop\n      jump\t// out\n        /* \"@openzeppelin/contracts-upgradeable/access/OwnableUpgradeable.sol\":2536:2723  function _transferOwnership(address newOwner) internal virtual {... */\n    tag_308:\n        /* \"@openzeppelin/contracts-upgradeable/access/OwnableUpgradeable.sol\":2628:2634  _owner */\n      0x33\n      dup1\n      sload\n      sub(shl(0xa0, 0x01), 0x01)\n        /* \"@openzeppelin/contracts-upgradeable/access/OwnableUpgradeable.sol\":2644:2661  _owner = newOwner */\n      dup4\n      dup2\n      and\n      not(sub(shl(0xa0, 0x01), 0x01))\n      dup4\n      and\n      dup2\n      or\n      swap1\n      swap4\n      sstore\n        /* \"@openzeppelin/contracts-upgradeable/access/OwnableUpgradeable.sol\":2676:2716  OwnershipTransferred(oldOwner, newOwner) */\n      mload(0x40)\n        /* \"@openzeppelin/contracts-upgradeable/access/OwnableUpgradeable.sol\":2628:2634  _owner */\n      swap2\n      and\n      swap2\n        /* \"@openzeppelin/contracts-upgradeable/access/OwnableUpgradeable.sol\":2644:2661  _owner = newOwner */\n      swap1\n        /* \"@openzeppelin/contracts-upgradeable/access/OwnableUpgradeable.sol\":2628:2634  _owner */\n      dup3\n      swap1\n        /* \"@openzeppelin/contracts-upgradeable/access/OwnableUpgradeable.sol\":2676:2716  OwnershipTransferred(oldOwner, newOwner) */\n      0x8be0079c531659141344cd1fd0a4f28419497f9722a3daafe3b4186f6b6457e0\n      swap1\n        /* \"@openzeppelin/contracts-upgradeable/access/OwnableUpgradeable.sol\":2609:2625  address oldOwner */\n      0x00\n      swap1\n        /* \"@openzeppelin/contracts-upgradeable/access/OwnableUpgradeable.sol\":2676:2716  OwnershipTransferred(oldOwner, newOwner) */\n      log3\n        /* \"@openzeppelin/contracts-upgradeable/access/OwnableUpgradeable.sol\":2536:2723  function _transferOwnership(address newOwner) internal virtual {... */\n      pop\n      pop\n      jump\t// out\n        /* \"@openzeppelin/contracts-upgradeable/access/OwnableUpgradeable.sol\":988:1114  function __Ownable_init() internal initializer {... */\n    tag_365:\n        /* \"@openzeppelin/contracts-upgradeable/proxy/utils/Initializable.sol\":539:552  _initializing */\n      sload(0x00)\n      0x0100\n      swap1\n      div\n      0xff\n      and\n      dup1\n        /* \"@openzeppelin/contracts-upgradeable/proxy/utils/Initializable.sol\":539:569  _initializing || !_initialized */\n      tag_508\n      jumpi\n      pop\n        /* \"@openzeppelin/contracts-upgradeable/proxy/utils/Initializable.sol\":557:569  _initialized */\n      and(0xff, sload(0x00))\n        /* \"@openzeppelin/contracts-upgradeable/proxy/utils/Initializable.sol\":556:569  !_initialized */\n      iszero\n        /* \"@openzeppelin/contracts-upgradeable/proxy/utils/Initializable.sol\":539:569  _initializing || !_initialized */\n    tag_508:\n        /* \"@openzeppelin/contracts-upgradeable/proxy/utils/Initializable.sol\":531:620  require(_initializing || !_initialized, \"Initializable: contract is already initialized\") */\n      tag_509\n      jumpi\n      mload(0x40)\n      shl(0xe5, 0x461bcd)\n      dup2\n      mstore\n      0x04\n      add\n      tag_188\n      swap1\n      tag_361\n      jump\t// in\n    tag_509:\n        /* \"@openzeppelin/contracts-upgradeable/proxy/utils/Initializable.sol\":631:650  bool isTopLevelCall */\n      0x00\n        /* \"@openzeppelin/contracts-upgradeable/proxy/utils/Initializable.sol\":654:667  _initializing */\n      sload\n      0x0100\n      swap1\n      div\n      0xff\n      and\n        /* \"@openzeppelin/contracts-upgradeable/proxy/utils/Initializable.sol\":653:667  !_initializing */\n      iszero\n        /* \"@openzeppelin/contracts-upgradeable/proxy/utils/Initializable.sol\":677:775  if (isTopLevelCall) {... */\n      dup1\n      iszero\n      tag_511\n      jumpi\n        /* \"@openzeppelin/contracts-upgradeable/proxy/utils/Initializable.sol\":711:724  _initializing */\n      0x00\n        /* \"@openzeppelin/contracts-upgradeable/proxy/utils/Initializable.sol\":711:731  _initializing = true */\n      dup1\n      sload\n      not(0xff)\n      not(0xff00)\n      swap1\n      swap2\n      and\n      0x0100\n      or\n        /* \"@openzeppelin/contracts-upgradeable/proxy/utils/Initializable.sol\":745:764  _initialized = true */\n      and\n        /* \"@openzeppelin/contracts-upgradeable/proxy/utils/Initializable.sol\":727:731  true */\n      0x01\n        /* \"@openzeppelin/contracts-upgradeable/proxy/utils/Initializable.sol\":745:764  _initialized = true */\n      or\n      swap1\n      sstore\n        /* \"@openzeppelin/contracts-upgradeable/proxy/utils/Initializable.sol\":677:775  if (isTopLevelCall) {... */\n    tag_511:\n        /* \"@openzeppelin/contracts-upgradeable/access/OwnableUpgradeable.sol\":1045:1071  __Context_init_unchained() */\n      tag_513\n        /* \"@openzeppelin/contracts-upgradeable/access/OwnableUpgradeable.sol\":1045:1069  __Context_init_unchained */\n      tag_514\n        /* \"@openzeppelin/contracts-upgradeable/access/OwnableUpgradeable.sol\":1045:1071  __Context_init_unchained() */\n      jump\t// in\n    tag_513:\n        /* \"@openzeppelin/contracts-upgradeable/access/OwnableUpgradeable.sol\":1081:1107  __Ownable_init_unchained() */\n      tag_515\n        /* \"@openzeppelin/contracts-upgradeable/access/OwnableUpgradeable.sol\":1081:1105  __Ownable_init_unchained */\n      tag_516\n        /* \"@openzeppelin/contracts-upgradeable/access/OwnableUpgradeable.sol\":1081:1107  __Ownable_init_unchained() */\n      jump\t// in\n    tag_515:\n        /* \"@openzeppelin/contracts-upgradeable/proxy/utils/Initializable.sol\":801:815  isTopLevelCall */\n      dup1\n        /* \"@openzeppelin/contracts-upgradeable/proxy/utils/Initializable.sol\":797:863  if (isTopLevelCall) {... */\n      iszero\n      tag_356\n      jumpi\n        /* \"@openzeppelin/contracts-upgradeable/proxy/utils/Initializable.sol\":847:852  false */\n      0x00\n        /* \"@openzeppelin/contracts-upgradeable/proxy/utils/Initializable.sol\":831:852  _initializing = false */\n      dup1\n      sload\n      not(0xff00)\n      and\n      swap1\n      sstore\n        /* \"@openzeppelin/contracts-upgradeable/access/OwnableUpgradeable.sol\":988:1114  function __Ownable_init() internal initializer {... */\n      pop\n      jump\t// out\n        /* \"@openzeppelin/contracts-upgradeable/token/ERC20/utils/SafeERC20Upgradeable.sol\":3306:4023  function _callOptionalReturn(IERC20Upgradeable token, bytes memory data) private {... */\n    tag_381:\n        /* \"@openzeppelin/contracts-upgradeable/token/ERC20/utils/SafeERC20Upgradeable.sol\":3736:3759  bytes memory returndata */\n      0x00\n        /* \"@openzeppelin/contracts-upgradeable/token/ERC20/utils/SafeERC20Upgradeable.sol\":3762:3831  address(token).functionCall(data, \"SafeERC20: low-level call failed\") */\n      tag_519\n        /* \"@openzeppelin/contracts-upgradeable/token/ERC20/utils/SafeERC20Upgradeable.sol\":3790:3794  data */\n      dup3\n        /* \"@openzeppelin/contracts-upgradeable/token/ERC20/utils/SafeERC20Upgradeable.sol\":3762:3831  address(token).functionCall(data, \"SafeERC20: low-level call failed\") */\n      mload(0x40)\n      dup1\n      0x40\n      add\n      0x40\n      mstore\n      dup1\n      0x20\n      dup2\n      mstore\n      0x20\n      add\n      0x5361666545524332303a206c6f772d6c6576656c2063616c6c206661696c6564\n      dup2\n      mstore\n      pop\n        /* \"@openzeppelin/contracts-upgradeable/token/ERC20/utils/SafeERC20Upgradeable.sol\":3770:3775  token */\n      dup6\n      sub(shl(0xa0, 0x01), 0x01)\n        /* \"@openzeppelin/contracts-upgradeable/token/ERC20/utils/SafeERC20Upgradeable.sol\":3762:3789  address(token).functionCall */\n      and\n      tag_520\n      swap1\n        /* \"@openzeppelin/contracts-upgradeable/token/ERC20/utils/SafeERC20Upgradeable.sol\":3762:3831  address(token).functionCall(data, \"SafeERC20: low-level call failed\") */\n      swap3\n      swap2\n      swap1\n      0xffffffff\n      and\n      jump\t// in\n    tag_519:\n        /* \"@openzeppelin/contracts-upgradeable/token/ERC20/utils/SafeERC20Upgradeable.sol\":3845:3862  returndata.length */\n      dup1\n      mload\n        /* \"@openzeppelin/contracts-upgradeable/token/ERC20/utils/SafeERC20Upgradeable.sol\":3736:3831  bytes memory returndata = address(token).functionCall(data, \"SafeERC20: low-level call failed\") */\n      swap1\n      swap2\n      pop\n        /* \"@openzeppelin/contracts-upgradeable/token/ERC20/utils/SafeERC20Upgradeable.sol\":3845:3866  returndata.length > 0 */\n      iszero\n        /* \"@openzeppelin/contracts-upgradeable/token/ERC20/utils/SafeERC20Upgradeable.sol\":3841:4017  if (returndata.length > 0) {... */\n      tag_386\n      jumpi\n        /* \"@openzeppelin/contracts-upgradeable/token/ERC20/utils/SafeERC20Upgradeable.sol\":3940:3950  returndata */\n      dup1\n        /* \"@openzeppelin/contracts-upgradeable/token/ERC20/utils/SafeERC20Upgradeable.sol\":3929:3959  abi.decode(returndata, (bool)) */\n      dup1\n      0x20\n      add\n      swap1\n      mload\n      dup2\n      add\n      swap1\n      tag_522\n      swap2\n      swap1\n      tag_223\n      jump\t// in\n    tag_522:\n        /* \"@openzeppelin/contracts-upgradeable/token/ERC20/utils/SafeERC20Upgradeable.sol\":3921:4006  require(abi.decode(returndata, (bool)), \"SafeERC20: ERC20 operation did not succeed\") */\n      tag_386\n      jumpi\n      mload(0x40)\n      shl(0xe5, 0x461bcd)\n      dup2\n      mstore\n      0x04\n      add\n      tag_188\n      swap1\n      tag_525\n      jump\t// in\n        /* \"@openzeppelin/contracts-upgradeable/utils/math/SafeMathUpgradeable.sol\":2752:2848  function add(uint256 a, uint256 b) internal pure returns (uint256) {... */\n    tag_427:\n        /* \"@openzeppelin/contracts-upgradeable/utils/math/SafeMathUpgradeable.sol\":2810:2817  uint256 */\n      0x00\n        /* \"@openzeppelin/contracts-upgradeable/utils/math/SafeMathUpgradeable.sol\":2836:2841  a + b */\n      tag_376\n        /* \"@openzeppelin/contracts-upgradeable/utils/math/SafeMathUpgradeable.sol\":2840:2841  b */\n      dup3\n        /* \"@openzeppelin/contracts-upgradeable/utils/math/SafeMathUpgradeable.sol\":2836:2837  a */\n      dup5\n        /* \"@openzeppelin/contracts-upgradeable/utils/math/SafeMathUpgradeable.sol\":2836:2841  a + b */\n      tag_200\n      jump\t// in\n        /* \"contracts/mirrorseaMain.sol\":10959:11385  function cutListItem(... */\n    tag_502:\n        /* \"contracts/mirrorseaMain.sol\":11116:11132  uint256 delIndex */\n      0x00\n        /* \"contracts/mirrorseaMain.sol\":11135:11151  _List_index[_id] */\n      dup4\n      dup2\n      mstore\n      0x20\n      dup4\n      swap1\n      mstore\n      0x40\n      dup2\n      keccak256\n      sload\n        /* \"contracts/mirrorseaMain.sol\":11187:11199  _List.length */\n      dup3\n      sload\n        /* \"contracts/mirrorseaMain.sol\":11135:11151  _List_index[_id] */\n      swap1\n      swap2\n        /* \"contracts/mirrorseaMain.sol\":11116:11132  uint256 delIndex */\n      swap1\n        /* \"contracts/mirrorseaMain.sol\":11181:11186  _List */\n      dup4\n      swap1\n        /* \"contracts/mirrorseaMain.sol\":11187:11206  _List.length.sub(1) */\n      tag_529\n      swap1\n        /* \"contracts/mirrorseaMain.sol\":11204:11205  1 */\n      0x01\n        /* \"contracts/mirrorseaMain.sol\":11187:11203  _List.length.sub */\n      tag_251\n        /* \"contracts/mirrorseaMain.sol\":11187:11206  _List.length.sub(1) */\n      jump\t// in\n    tag_529:\n        /* \"contracts/mirrorseaMain.sol\":11181:11207  _List[_List.length.sub(1)] */\n      dup2\n      sload\n      dup2\n      lt\n      tag_530\n      jumpi\n      mstore(0x00, shl(0xe0, 0x4e487b71))\n      mstore(0x04, 0x32)\n      revert(0x00, 0x24)\n    tag_530:\n      swap1\n      0x00\n      mstore\n      keccak256(0x00, 0x20)\n      add\n      sload\n        /* \"contracts/mirrorseaMain.sol\":11161:11207  uint256 lastIndex = _List[_List.length.sub(1)] */\n      swap1\n      pop\n        /* \"contracts/mirrorseaMain.sol\":11217:11231  uint256 lastID */\n      0x00\n        /* \"contracts/mirrorseaMain.sol\":11234:11239  _List */\n      dup4\n        /* \"contracts/mirrorseaMain.sol\":11240:11249  lastIndex */\n      dup3\n        /* \"contracts/mirrorseaMain.sol\":11234:11250  _List[lastIndex] */\n      dup2\n      sload\n      dup2\n      lt\n      tag_532\n      jumpi\n      mstore(0x00, shl(0xe0, 0x4e487b71))\n      mstore(0x04, 0x32)\n      revert(0x00, 0x24)\n    tag_532:\n      swap1\n      0x00\n      mstore\n      keccak256(0x00, 0x20)\n      add\n      sload\n        /* \"contracts/mirrorseaMain.sol\":11217:11250  uint256 lastID = _List[lastIndex] */\n      swap1\n      pop\n        /* \"contracts/mirrorseaMain.sol\":11282:11290  delIndex */\n      dup3\n        /* \"contracts/mirrorseaMain.sol\":11260:11271  _List_index */\n      dup6\n        /* \"contracts/mirrorseaMain.sol\":11260:11279  _List_index[lastID] */\n      0x00\n        /* \"contracts/mirrorseaMain.sol\":11272:11278  lastID */\n      dup4\n        /* \"contracts/mirrorseaMain.sol\":11260:11279  _List_index[lastID] */\n      dup2\n      mstore\n      0x20\n      add\n      swap1\n      dup2\n      mstore\n      0x20\n      add\n      0x00\n      keccak256\n        /* \"contracts/mirrorseaMain.sol\":11260:11290  _List_index[lastID] = delIndex */\n      dup2\n      swap1\n      sstore\n      pop\n        /* \"contracts/mirrorseaMain.sol\":11318:11324  lastID */\n      dup1\n        /* \"contracts/mirrorseaMain.sol\":11300:11305  _List */\n      dup5\n        /* \"contracts/mirrorseaMain.sol\":11306:11314  delIndex */\n      dup5\n        /* \"contracts/mirrorseaMain.sol\":11300:11315  _List[delIndex] */\n      dup2\n      sload\n      dup2\n      lt\n      tag_534\n      jumpi\n      mstore(0x00, shl(0xe0, 0x4e487b71))\n      mstore(0x04, 0x32)\n      revert(0x00, 0x24)\n    tag_534:\n      0x00\n      swap2\n      dup3\n      mstore\n      0x20\n      dup1\n      dup4\n      keccak256\n      swap1\n      swap2\n      add\n        /* \"contracts/mirrorseaMain.sol\":11300:11324  _List[delIndex] = lastID */\n      swap3\n      swap1\n      swap3\n      sstore\n        /* \"contracts/mirrorseaMain.sol\":11341:11357  _List_index[_id] */\n      dup8\n      dup2\n      mstore\n      swap1\n      dup7\n      swap1\n      mstore\n      0x40\n      dup2\n      keccak256\n        /* \"contracts/mirrorseaMain.sol\":11334:11357  delete _List_index[_id] */\n      sstore\n        /* \"contracts/mirrorseaMain.sol\":11367:11378  _List.pop() */\n      dup4\n      sload\n        /* \"contracts/mirrorseaMain.sol\":11367:11372  _List */\n      dup5\n      swap1\n        /* \"contracts/mirrorseaMain.sol\":11367:11378  _List.pop() */\n      dup1\n      tag_536\n      jumpi\n      mstore(0x00, shl(0xe0, 0x4e487b71))\n      mstore(0x04, 0x31)\n      revert(0x00, 0x24)\n    tag_536:\n      0x01\n      swap1\n      sub\n      dup2\n      dup2\n      swap1\n      0x00\n      mstore\n      keccak256(0x00, 0x20)\n      add\n      0x00\n      swap1\n      sstore\n      swap1\n      sstore\n        /* \"contracts/mirrorseaMain.sol\":10959:11385  function cutListItem(... */\n      pop\n      pop\n      pop\n      pop\n      pop\n      pop\n      jump\t// out\n        /* \"@openzeppelin/contracts-upgradeable/utils/ContextUpgradeable.sol\":807:871  function __Context_init_unchained() internal initializer {... */\n    tag_514:\n        /* \"@openzeppelin/contracts-upgradeable/proxy/utils/Initializable.sol\":539:552  _initializing */\n      sload(0x00)\n      0x0100\n      swap1\n      div\n      0xff\n      and\n      dup1\n        /* \"@openzeppelin/contracts-upgradeable/proxy/utils/Initializable.sol\":539:569  _initializing || !_initialized */\n      tag_539\n      jumpi\n      pop\n        /* \"@openzeppelin/contracts-upgradeable/proxy/utils/Initializable.sol\":557:569  _initialized */\n      and(0xff, sload(0x00))\n        /* \"@openzeppelin/contracts-upgradeable/proxy/utils/Initializable.sol\":556:569  !_initialized */\n      iszero\n        /* \"@openzeppelin/contracts-upgradeable/proxy/utils/Initializable.sol\":539:569  _initializing || !_initialized */\n    tag_539:\n        /* \"@openzeppelin/contracts-upgradeable/proxy/utils/Initializable.sol\":531:620  require(_initializing || !_initialized, \"Initializable: contract is already initialized\") */\n      tag_540\n      jumpi\n      mload(0x40)\n      shl(0xe5, 0x461bcd)\n      dup2\n      mstore\n      0x04\n      add\n      tag_188\n      swap1\n      tag_361\n      jump\t// in\n    tag_540:\n        /* \"@openzeppelin/contracts-upgradeable/proxy/utils/Initializable.sol\":631:650  bool isTopLevelCall */\n      0x00\n        /* \"@openzeppelin/contracts-upgradeable/proxy/utils/Initializable.sol\":654:667  _initializing */\n      sload\n      0x0100\n      swap1\n      div\n      0xff\n      and\n        /* \"@openzeppelin/contracts-upgradeable/proxy/utils/Initializable.sol\":653:667  !_initializing */\n      iszero\n        /* \"@openzeppelin/contracts-upgradeable/proxy/utils/Initializable.sol\":677:775  if (isTopLevelCall) {... */\n      dup1\n      iszero\n      tag_515\n      jumpi\n        /* \"@openzeppelin/contracts-upgradeable/proxy/utils/Initializable.sol\":711:724  _initializing */\n      0x00\n        /* \"@openzeppelin/contracts-upgradeable/proxy/utils/Initializable.sol\":711:731  _initializing = true */\n      dup1\n      sload\n      not(0xff)\n      not(0xff00)\n      swap1\n      swap2\n      and\n      0x0100\n      or\n        /* \"@openzeppelin/contracts-upgradeable/proxy/utils/Initializable.sol\":745:764  _initialized = true */\n      and\n        /* \"@openzeppelin/contracts-upgradeable/proxy/utils/Initializable.sol\":727:731  true */\n      0x01\n        /* \"@openzeppelin/contracts-upgradeable/proxy/utils/Initializable.sol\":745:764  _initialized = true */\n      or\n      swap1\n      sstore\n        /* \"@openzeppelin/contracts-upgradeable/proxy/utils/Initializable.sol\":801:815  isTopLevelCall */\n      dup1\n        /* \"@openzeppelin/contracts-upgradeable/proxy/utils/Initializable.sol\":797:863  if (isTopLevelCall) {... */\n      iszero\n      tag_356\n      jumpi\n        /* \"@openzeppelin/contracts-upgradeable/proxy/utils/Initializable.sol\":847:852  false */\n      0x00\n        /* \"@openzeppelin/contracts-upgradeable/proxy/utils/Initializable.sol\":831:852  _initializing = false */\n      dup1\n      sload\n      not(0xff00)\n      and\n      swap1\n      sstore\n        /* \"@openzeppelin/contracts-upgradeable/utils/ContextUpgradeable.sol\":807:871  function __Context_init_unchained() internal initializer {... */\n      pop\n      jump\t// out\n        /* \"@openzeppelin/contracts-upgradeable/access/OwnableUpgradeable.sol\":1120:1226  function __Ownable_init_unchained() internal initializer {... */\n    tag_516:\n        /* \"@openzeppelin/contracts-upgradeable/proxy/utils/Initializable.sol\":539:552  _initializing */\n      sload(0x00)\n      0x0100\n      swap1\n      div\n      0xff\n      and\n      dup1\n        /* \"@openzeppelin/contracts-upgradeable/proxy/utils/Initializable.sol\":539:569  _initializing || !_initialized */\n      tag_546\n      jumpi\n      pop\n        /* \"@openzeppelin/contracts-upgradeable/proxy/utils/Initializable.sol\":557:569  _initialized */\n      and(0xff, sload(0x00))\n        /* \"@openzeppelin/contracts-upgradeable/proxy/utils/Initializable.sol\":556:569  !_initialized */\n      iszero\n        /* \"@openzeppelin/contracts-upgradeable/proxy/utils/Initializable.sol\":539:569  _initializing || !_initialized */\n    tag_546:\n        /* \"@openzeppelin/contracts-upgradeable/proxy/utils/Initializable.sol\":531:620  require(_initializing || !_initialized, \"Initializable: contract is already initialized\") */\n      tag_547\n      jumpi\n      mload(0x40)\n      shl(0xe5, 0x461bcd)\n      dup2\n      mstore\n      0x04\n      add\n      tag_188\n      swap1\n      tag_361\n      jump\t// in\n    tag_547:\n        /* \"@openzeppelin/contracts-upgradeable/proxy/utils/Initializable.sol\":631:650  bool isTopLevelCall */\n      0x00\n        /* \"@openzeppelin/contracts-upgradeable/proxy/utils/Initializable.sol\":654:667  _initializing */\n      sload\n      0x0100\n      swap1\n      div\n      0xff\n      and\n        /* \"@openzeppelin/contracts-upgradeable/proxy/utils/Initializable.sol\":653:667  !_initializing */\n      iszero\n        /* \"@openzeppelin/contracts-upgradeable/proxy/utils/Initializable.sol\":677:775  if (isTopLevelCall) {... */\n      dup1\n      iszero\n      tag_549\n      jumpi\n        /* \"@openzeppelin/contracts-upgradeable/proxy/utils/Initializable.sol\":711:724  _initializing */\n      0x00\n        /* \"@openzeppelin/contracts-upgradeable/proxy/utils/Initializable.sol\":711:731  _initializing = true */\n      dup1\n      sload\n      not(0xff)\n      not(0xff00)\n      swap1\n      swap2\n      and\n      0x0100\n      or\n        /* \"@openzeppelin/contracts-upgradeable/proxy/utils/Initializable.sol\":745:764  _initialized = true */\n      and\n        /* \"@openzeppelin/contracts-upgradeable/proxy/utils/Initializable.sol\":727:731  true */\n      0x01\n        /* \"@openzeppelin/contracts-upgradeable/proxy/utils/Initializable.sol\":745:764  _initialized = true */\n      or\n      swap1\n      sstore\n        /* \"@openzeppelin/contracts-upgradeable/proxy/utils/Initializable.sol\":677:775  if (isTopLevelCall) {... */\n    tag_549:\n        /* \"@openzeppelin/contracts-upgradeable/access/OwnableUpgradeable.sol\":1187:1219  _transferOwnership(_msgSender()) */\n      tag_515\n        /* \"@openzeppelin/contracts-upgradeable/access/OwnableUpgradeable.sol\":1206:1218  _msgSender() */\n      tag_552\n        /* \"@openzeppelin/contracts-upgradeable/access/OwnableUpgradeable.sol\":1206:1216  _msgSender */\n      tag_207\n        /* \"@openzeppelin/contracts-upgradeable/access/OwnableUpgradeable.sol\":1206:1218  _msgSender() */\n      jump\t// in\n    tag_552:\n        /* \"@openzeppelin/contracts-upgradeable/access/OwnableUpgradeable.sol\":1187:1205  _transferOwnership */\n      tag_308\n        /* \"@openzeppelin/contracts-upgradeable/access/OwnableUpgradeable.sol\":1187:1219  _transferOwnership(_msgSender()) */\n      jump\t// in\n        /* \"@openzeppelin/contracts-upgradeable/utils/AddressUpgradeable.sol\":3525:3748  function functionCall(... */\n    tag_520:\n        /* \"@openzeppelin/contracts-upgradeable/utils/AddressUpgradeable.sol\":3658:3670  bytes memory */\n      0x60\n        /* \"@openzeppelin/contracts-upgradeable/utils/AddressUpgradeable.sol\":3689:3741  functionCallWithValue(target, data, 0, errorMessage) */\n      tag_555\n        /* \"@openzeppelin/contracts-upgradeable/utils/AddressUpgradeable.sol\":3711:3717  target */\n      dup5\n        /* \"@openzeppelin/contracts-upgradeable/utils/AddressUpgradeable.sol\":3719:3723  data */\n      dup5\n        /* \"@openzeppelin/contracts-upgradeable/utils/AddressUpgradeable.sol\":3725:3726  0 */\n      0x00\n        /* \"@openzeppelin/contracts-upgradeable/utils/AddressUpgradeable.sol\":3728:3740  errorMessage */\n      dup6\n        /* \"@openzeppelin/contracts-upgradeable/utils/AddressUpgradeable.sol\":3689:3710  functionCallWithValue */\n      tag_556\n        /* \"@openzeppelin/contracts-upgradeable/utils/AddressUpgradeable.sol\":3689:3741  functionCallWithValue(target, data, 0, errorMessage) */\n      jump\t// in\n    tag_555:\n        /* \"@openzeppelin/contracts-upgradeable/utils/AddressUpgradeable.sol\":3682:3741  return functionCallWithValue(target, data, 0, errorMessage) */\n      swap5\n        /* \"@openzeppelin/contracts-upgradeable/utils/AddressUpgradeable.sol\":3525:3748  function functionCall(... */\n      swap4\n      pop\n      pop\n      pop\n      pop\n      jump\t// out\n        /* \"@openzeppelin/contracts-upgradeable/utils/AddressUpgradeable.sol\":4612:5111  function functionCallWithValue(... */\n    tag_556:\n        /* \"@openzeppelin/contracts-upgradeable/utils/AddressUpgradeable.sol\":4777:4789  bytes memory */\n      0x60\n        /* \"@openzeppelin/contracts-upgradeable/utils/AddressUpgradeable.sol\":4834:4839  value */\n      dup3\n        /* \"@openzeppelin/contracts-upgradeable/utils/AddressUpgradeable.sol\":4809:4830  address(this).balance */\n      selfbalance\n        /* \"@openzeppelin/contracts-upgradeable/utils/AddressUpgradeable.sol\":4809:4839  address(this).balance >= value */\n      lt\n      iszero\n        /* \"@openzeppelin/contracts-upgradeable/utils/AddressUpgradeable.sol\":4801:4882  require(address(this).balance >= value, \"Address: insufficient balance for call\") */\n      tag_558\n      jumpi\n      mload(0x40)\n      shl(0xe5, 0x461bcd)\n      dup2\n      mstore\n      0x04\n      add\n      tag_188\n      swap1\n      tag_560\n      jump\t// in\n    tag_558:\n        /* \"@openzeppelin/contracts-upgradeable/utils/AddressUpgradeable.sol\":4900:4918  isContract(target) */\n      tag_561\n        /* \"@openzeppelin/contracts-upgradeable/utils/AddressUpgradeable.sol\":4911:4917  target */\n      dup6\n        /* \"@openzeppelin/contracts-upgradeable/utils/AddressUpgradeable.sol\":4900:4910  isContract */\n      tag_562\n        /* \"@openzeppelin/contracts-upgradeable/utils/AddressUpgradeable.sol\":4900:4918  isContract(target) */\n      jump\t// in\n    tag_561:\n        /* \"@openzeppelin/contracts-upgradeable/utils/AddressUpgradeable.sol\":4892:4952  require(isContract(target), \"Address: call to non-contract\") */\n      tag_563\n      jumpi\n      mload(0x40)\n      shl(0xe5, 0x461bcd)\n      dup2\n      mstore\n      0x04\n      add\n      tag_188\n      swap1\n      tag_565\n      jump\t// in\n    tag_563:\n        /* \"@openzeppelin/contracts-upgradeable/utils/AddressUpgradeable.sol\":4964:4976  bool success */\n      0x00\n        /* \"@openzeppelin/contracts-upgradeable/utils/AddressUpgradeable.sol\":4978:5001  bytes memory returndata */\n      dup1\n        /* \"@openzeppelin/contracts-upgradeable/utils/AddressUpgradeable.sol\":5005:5011  target */\n      dup7\n      sub(shl(0xa0, 0x01), 0x01)\n        /* \"@openzeppelin/contracts-upgradeable/utils/AddressUpgradeable.sol\":5005:5016  target.call */\n      and\n        /* \"@openzeppelin/contracts-upgradeable/utils/AddressUpgradeable.sol\":5024:5029  value */\n      dup6\n        /* \"@openzeppelin/contracts-upgradeable/utils/AddressUpgradeable.sol\":5031:5035  data */\n      dup8\n        /* \"@openzeppelin/contracts-upgradeable/utils/AddressUpgradeable.sol\":5005:5036  target.call{value: value}(data) */\n      mload(0x40)\n      tag_566\n      swap2\n      swap1\n      tag_567\n      jump\t// in\n    tag_566:\n      0x00\n      mload(0x40)\n      dup1\n      dup4\n      sub\n      dup2\n      dup6\n      dup8\n      gas\n      call\n      swap3\n      pop\n      pop\n      pop\n      returndatasize\n      dup1\n      0x00\n      dup2\n      eq\n      tag_570\n      jumpi\n      mload(0x40)\n      swap2\n      pop\n      and(add(returndatasize, 0x3f), not(0x1f))\n      dup3\n      add\n      0x40\n      mstore\n      returndatasize\n      dup3\n      mstore\n      returndatasize\n      0x00\n      0x20\n      dup5\n      add\n      returndatacopy\n      jump(tag_569)\n    tag_570:\n      0x60\n      swap2\n      pop\n    tag_569:\n      pop\n        /* \"@openzeppelin/contracts-upgradeable/utils/AddressUpgradeable.sol\":4963:5036  (bool success, bytes memory returndata) = target.call{value: value}(data) */\n      swap2\n      pop\n      swap2\n      pop\n        /* \"@openzeppelin/contracts-upgradeable/utils/AddressUpgradeable.sol\":5053:5104  verifyCallResult(success, returndata, errorMessage) */\n      tag_331\n        /* \"@openzeppelin/contracts-upgradeable/utils/AddressUpgradeable.sol\":5070:5077  success */\n      dup3\n        /* \"@openzeppelin/contracts-upgradeable/utils/AddressUpgradeable.sol\":5079:5089  returndata */\n      dup3\n        /* \"@openzeppelin/contracts-upgradeable/utils/AddressUpgradeable.sol\":5091:5103  errorMessage */\n      dup7\n        /* \"@openzeppelin/contracts-upgradeable/utils/AddressUpgradeable.sol\":5053:5069  verifyCallResult */\n      tag_572\n        /* \"@openzeppelin/contracts-upgradeable/utils/AddressUpgradeable.sol\":5053:5104  verifyCallResult(success, returndata, errorMessage) */\n      jump\t// in\n        /* \"@openzeppelin/contracts-upgradeable/utils/AddressUpgradeable.sol\":782:1159  function isContract(address account) internal view returns (bool) {... */\n    tag_562:\n        /* \"@openzeppelin/contracts-upgradeable/utils/AddressUpgradeable.sol\":1098:1118  extcodesize(account) */\n      extcodesize\n        /* \"@openzeppelin/contracts-upgradeable/utils/AddressUpgradeable.sol\":1144:1152  size > 0 */\n      iszero\n      iszero\n      swap1\n        /* \"@openzeppelin/contracts-upgradeable/utils/AddressUpgradeable.sol\":782:1159  function isContract(address account) internal view returns (bool) {... */\n      jump\t// out\n        /* \"@openzeppelin/contracts-upgradeable/utils/AddressUpgradeable.sol\":6275:6967  function verifyCallResult(... */\n    tag_572:\n        /* \"@openzeppelin/contracts-upgradeable/utils/AddressUpgradeable.sol\":6421:6433  bytes memory */\n      0x60\n        /* \"@openzeppelin/contracts-upgradeable/utils/AddressUpgradeable.sol\":6449:6456  success */\n      dup4\n        /* \"@openzeppelin/contracts-upgradeable/utils/AddressUpgradeable.sol\":6445:6961  if (success) {... */\n      iszero\n      tag_575\n      jumpi\n      pop\n        /* \"@openzeppelin/contracts-upgradeable/utils/AddressUpgradeable.sol\":6479:6489  returndata */\n      dup2\n        /* \"@openzeppelin/contracts-upgradeable/utils/AddressUpgradeable.sol\":6472:6489  return returndata */\n      jump(tag_376)\n        /* \"@openzeppelin/contracts-upgradeable/utils/AddressUpgradeable.sol\":6445:6961  if (success) {... */\n    tag_575:\n        /* \"@openzeppelin/contracts-upgradeable/utils/AddressUpgradeable.sol\":6590:6607  returndata.length */\n      dup3\n      mload\n        /* \"@openzeppelin/contracts-upgradeable/utils/AddressUpgradeable.sol\":6590:6611  returndata.length > 0 */\n      iszero\n        /* \"@openzeppelin/contracts-upgradeable/utils/AddressUpgradeable.sol\":6586:6951  if (returndata.length > 0) {... */\n      tag_577\n      jumpi\n        /* \"@openzeppelin/contracts-upgradeable/utils/AddressUpgradeable.sol\":6784:6794  returndata */\n      dup3\n        /* \"@openzeppelin/contracts-upgradeable/utils/AddressUpgradeable.sol\":6778:6795  mload(returndata) */\n      mload\n        /* \"@openzeppelin/contracts-upgradeable/utils/AddressUpgradeable.sol\":6844:6859  returndata_size */\n      dup1\n        /* \"@openzeppelin/contracts-upgradeable/utils/AddressUpgradeable.sol\":6831:6841  returndata */\n      dup5\n        /* \"@openzeppelin/contracts-upgradeable/utils/AddressUpgradeable.sol\":6827:6829  32 */\n      0x20\n        /* \"@openzeppelin/contracts-upgradeable/utils/AddressUpgradeable.sol\":6823:6842  add(32, returndata) */\n      add\n        /* \"@openzeppelin/contracts-upgradeable/utils/AddressUpgradeable.sol\":6816:6860  revert(add(32, returndata), returndata_size) */\n      revert\n        /* \"@openzeppelin/contracts-upgradeable/utils/AddressUpgradeable.sol\":6733:6878  {... */\n    tag_577:\n        /* \"@openzeppelin/contracts-upgradeable/utils/AddressUpgradeable.sol\":6923:6935  errorMessage */\n      dup2\n        /* \"@openzeppelin/contracts-upgradeable/utils/AddressUpgradeable.sol\":6916:6936  revert(errorMessage) */\n      mload(0x40)\n      shl(0xe5, 0x461bcd)\n      dup2\n      mstore\n      0x04\n      add\n      tag_188\n      swap2\n      swap1\n      tag_580\n      jump\t// in\n    tag_262:\n      dup3\n      dup1\n      sload\n      tag_581\n      swap1\n      tag_268\n      jump\t// in\n    tag_581:\n      swap1\n      0x00\n      mstore\n      keccak256(0x00, 0x20)\n      swap1\n      0x1f\n      add\n      0x20\n      swap1\n      div\n      dup2\n      add\n      swap3\n      dup3\n      tag_583\n      jumpi\n      0x00\n      dup6\n      sstore\n      jump(tag_586)\n    tag_583:\n      dup3\n      0x1f\n      lt\n      tag_584\n      jumpi\n      dup1\n      mload\n      not(0xff)\n      and\n      dup4\n      dup1\n      add\n      or\n      dup6\n      sstore\n      jump(tag_586)\n    tag_584:\n      dup3\n      dup1\n      add\n      0x01\n      add\n      dup6\n      sstore\n      dup3\n      iszero\n      tag_586\n      jumpi\n      swap2\n      dup3\n      add\n    tag_585:\n      dup3\n      dup2\n      gt\n      iszero\n      tag_586\n      jumpi\n      dup3\n      mload\n      dup3\n      sstore\n      swap2\n      0x20\n      add\n      swap2\n      swap1\n      0x01\n      add\n      swap1\n      jump(tag_585)\n    tag_586:\n      pop\n      tag_587\n      swap3\n      swap2\n      pop\n      tag_588\n      jump\t// in\n    tag_587:\n      pop\n      swap1\n      jump\t// out\n    tag_265:\n      mload(0x40)\n      dup1\n      0x0160\n      add\n      0x40\n      mstore\n      dup1\n      and(sub(shl(0xa0, 0x01), 0x01), 0x00)\n      dup2\n      mstore\n      0x20\n      add\n      0x00\n      dup2\n      mstore\n      0x20\n      add\n      0x60\n      dup2\n      mstore\n      0x20\n      add\n      0x00\n      dup2\n      mstore\n      0x20\n      add\n      0x00\n      dup2\n      mstore\n      0x20\n      add\n      0x00\n      dup2\n      mstore\n      0x20\n      add\n      0x00\n      dup2\n      mstore\n      0x20\n      add\n      0x00\n      dup2\n      mstore\n      0x20\n      add\n      0x00\n      dup2\n      mstore\n      0x20\n      add\n      0x00\n      dup2\n      mstore\n      0x20\n      add\n      0x00\n      dup2\n      mstore\n      pop\n      swap1\n      jump\t// out\n    tag_588:\n    tag_589:\n      dup1\n      dup3\n      gt\n      iszero\n      tag_587\n      jumpi\n      0x00\n      dup2\n      sstore\n      0x01\n      add\n      jump(tag_589)\n        /* \"#utility.yul\":14:152   */\n    tag_592:\n        /* \"#utility.yul\":84:104   */\n      dup1\n      calldataload\n        /* \"#utility.yul\":113:146   */\n      tag_266\n        /* \"#utility.yul\":84:104   */\n      dup2\n        /* \"#utility.yul\":113:146   */\n      tag_595\n      jump\t// in\n        /* \"#utility.yul\":157:826   */\n    tag_596:\n      0x00\n        /* \"#utility.yul\":268:271   */\n      dup3\n        /* \"#utility.yul\":261:265   */\n      0x1f\n        /* \"#utility.yul\":253:259   */\n      dup4\n        /* \"#utility.yul\":249:266   */\n      add\n        /* \"#utility.yul\":245:272   */\n      slt\n        /* \"#utility.yul\":235:237   */\n      tag_598\n      jumpi\n        /* \"#utility.yul\":290:295   */\n      dup1\n        /* \"#utility.yul\":283:288   */\n      dup2\n        /* \"#utility.yul\":276:296   */\n      revert\n        /* \"#utility.yul\":235:237   */\n    tag_598:\n        /* \"#utility.yul\":330:336   */\n      dup2\n        /* \"#utility.yul\":317:337   */\n      calldataload\n        /* \"#utility.yul\":356:360   */\n      0x20\n        /* \"#utility.yul\":380:443   */\n      tag_599\n        /* \"#utility.yul\":395:442   */\n      tag_600\n        /* \"#utility.yul\":439:441   */\n      dup4\n        /* \"#utility.yul\":395:442   */\n      tag_601\n      jump\t// in\n    tag_600:\n        /* \"#utility.yul\":380:443   */\n      tag_602\n      jump\t// in\n    tag_599:\n        /* \"#utility.yul\":477:492   */\n      dup3\n      dup2\n      mstore\n        /* \"#utility.yul\":508:520   */\n      dup2\n      dup2\n      add\n      swap1\n        /* \"#utility.yul\":540:555   */\n      dup6\n      dup4\n      add\n        /* \"#utility.yul\":573:578   */\n      dup6\n        /* \"#utility.yul\":587:797   */\n    tag_603:\n        /* \"#utility.yul\":601:603   */\n      dup6\n        /* \"#utility.yul\":598:599   */\n      dup2\n        /* \"#utility.yul\":595:604   */\n      lt\n        /* \"#utility.yul\":587:797   */\n      iszero\n      tag_605\n      jumpi\n        /* \"#utility.yul\":658:722   */\n      tag_606\n        /* \"#utility.yul\":718:721   */\n      dup10\n        /* \"#utility.yul\":713:715   */\n      dup7\n        /* \"#utility.yul\":706:709   */\n      dup5\n        /* \"#utility.yul\":693:710   */\n      calldataload\n        /* \"#utility.yul\":685:691   */\n      dup12\n        /* \"#utility.yul\":681:711   */\n      add\n        /* \"#utility.yul\":677:716   */\n      add\n        /* \"#utility.yul\":658:722   */\n      tag_607\n      jump\t// in\n    tag_606:\n        /* \"#utility.yul\":646:723   */\n      dup5\n      mstore\n        /* \"#utility.yul\":743:755   */\n      swap3\n      dup5\n      add\n      swap3\n        /* \"#utility.yul\":775:787   */\n      swap1\n      dup5\n      add\n      swap1\n        /* \"#utility.yul\":619:620   */\n      0x01\n        /* \"#utility.yul\":612:621   */\n      add\n        /* \"#utility.yul\":587:797   */\n      jump(tag_603)\n    tag_605:\n      pop\n        /* \"#utility.yul\":815:820   */\n      swap1\n      swap8\n        /* \"#utility.yul\":225:826   */\n      swap7\n      pop\n      pop\n      pop\n      pop\n      pop\n      pop\n      pop\n      jump\t// out\n        /* \"#utility.yul\":831:1534   */\n    tag_608:\n      0x00\n        /* \"#utility.yul\":944:947   */\n      dup3\n        /* \"#utility.yul\":937:941   */\n      0x1f\n        /* \"#utility.yul\":929:935   */\n      dup4\n        /* \"#utility.yul\":925:942   */\n      add\n        /* \"#utility.yul\":921:948   */\n      slt\n        /* \"#utility.yul\":911:913   */\n      tag_610\n      jumpi\n        /* \"#utility.yul\":966:971   */\n      dup1\n        /* \"#utility.yul\":959:964   */\n      dup2\n        /* \"#utility.yul\":952:972   */\n      revert\n        /* \"#utility.yul\":911:913   */\n    tag_610:\n        /* \"#utility.yul\":1006:1012   */\n      dup2\n        /* \"#utility.yul\":993:1013   */\n      calldataload\n        /* \"#utility.yul\":1032:1036   */\n      0x20\n        /* \"#utility.yul\":1056:1119   */\n      tag_611\n        /* \"#utility.yul\":1071:1118   */\n      tag_600\n        /* \"#utility.yul\":1115:1117   */\n      dup4\n        /* \"#utility.yul\":1071:1118   */\n      tag_601\n      jump\t// in\n        /* \"#utility.yul\":1056:1119   */\n    tag_611:\n        /* \"#utility.yul\":1153:1168   */\n      dup3\n      dup2\n      mstore\n        /* \"#utility.yul\":1184:1196   */\n      dup2\n      dup2\n      add\n      swap1\n        /* \"#utility.yul\":1216:1231   */\n      dup6\n      dup4\n      add\n        /* \"#utility.yul\":1262:1273   */\n      dup4\n      dup6\n      mul\n        /* \"#utility.yul\":1250:1274   */\n      dup8\n      add\n        /* \"#utility.yul\":1246:1279   */\n      dup5\n      add\n        /* \"#utility.yul\":1243:1285   */\n      dup9\n      lt\n        /* \"#utility.yul\":1240:1242   */\n      iszero\n      tag_613\n      jumpi\n        /* \"#utility.yul\":1302:1307   */\n      dup6\n        /* \"#utility.yul\":1295:1300   */\n      dup7\n        /* \"#utility.yul\":1288:1308   */\n      revert\n        /* \"#utility.yul\":1240:1242   */\n    tag_613:\n        /* \"#utility.yul\":1328:1333   */\n      dup6\n        /* \"#utility.yul\":1342:1505   */\n    tag_614:\n        /* \"#utility.yul\":1356:1358   */\n      dup6\n        /* \"#utility.yul\":1353:1354   */\n      dup2\n        /* \"#utility.yul\":1350:1359   */\n      lt\n        /* \"#utility.yul\":1342:1505   */\n      iszero\n      tag_605\n      jumpi\n        /* \"#utility.yul\":1413:1430   */\n      dup2\n      calldataload\n        /* \"#utility.yul\":1401:1431   */\n      dup5\n      mstore\n        /* \"#utility.yul\":1451:1463   */\n      swap3\n      dup5\n      add\n      swap3\n        /* \"#utility.yul\":1483:1495   */\n      swap1\n      dup5\n      add\n      swap1\n        /* \"#utility.yul\":1374:1375   */\n      0x01\n        /* \"#utility.yul\":1367:1376   */\n      add\n        /* \"#utility.yul\":1342:1505   */\n      jump(tag_614)\n        /* \"#utility.yul\":1539:2090   */\n    tag_607:\n      0x00\n        /* \"#utility.yul\":1636:1639   */\n      dup3\n        /* \"#utility.yul\":1629:1633   */\n      0x1f\n        /* \"#utility.yul\":1621:1627   */\n      dup4\n        /* \"#utility.yul\":1617:1634   */\n      add\n        /* \"#utility.yul\":1613:1640   */\n      slt\n        /* \"#utility.yul\":1603:1605   */\n      tag_618\n      jumpi\n        /* \"#utility.yul\":1658:1663   */\n      dup1\n        /* \"#utility.yul\":1651:1656   */\n      dup2\n        /* \"#utility.yul\":1644:1664   */\n      revert\n        /* \"#utility.yul\":1603:1605   */\n    tag_618:\n        /* \"#utility.yul\":1698:1704   */\n      dup2\n        /* \"#utility.yul\":1685:1705   */\n      calldataload\n        /* \"#utility.yul\":1724:1742   */\n      0xffffffffffffffff\n        /* \"#utility.yul\":1720:1722   */\n      dup2\n        /* \"#utility.yul\":1717:1743   */\n      gt\n        /* \"#utility.yul\":1714:1716   */\n      iszero\n      tag_620\n      jumpi\n        /* \"#utility.yul\":1746:1764   */\n      tag_620\n      tag_621\n      jump\t// in\n    tag_620:\n        /* \"#utility.yul\":1790:1844   */\n      tag_622\n        /* \"#utility.yul\":1832:1834   */\n      0x1f\n        /* \"#utility.yul\":1813:1826   */\n      dup3\n      add\n      not(0x1f)\n        /* \"#utility.yul\":1809:1836   */\n      and\n        /* \"#utility.yul\":1838:1842   */\n      0x20\n        /* \"#utility.yul\":1805:1843   */\n      add\n        /* \"#utility.yul\":1790:1844   */\n      tag_602\n      jump\t// in\n    tag_622:\n        /* \"#utility.yul\":1869:1871   */\n      dup2\n        /* \"#utility.yul\":1860:1867   */\n      dup2\n        /* \"#utility.yul\":1853:1872   */\n      mstore\n        /* \"#utility.yul\":1915:1918   */\n      dup5\n        /* \"#utility.yul\":1908:1912   */\n      0x20\n        /* \"#utility.yul\":1903:1905   */\n      dup4\n        /* \"#utility.yul\":1895:1901   */\n      dup7\n        /* \"#utility.yul\":1891:1906   */\n      add\n        /* \"#utility.yul\":1887:1913   */\n      add\n        /* \"#utility.yul\":1884:1919   */\n      gt\n        /* \"#utility.yul\":1881:1883   */\n      iszero\n      tag_623\n      jumpi\n        /* \"#utility.yul\":1936:1941   */\n      dup3\n        /* \"#utility.yul\":1929:1934   */\n      dup4\n        /* \"#utility.yul\":1922:1942   */\n      revert\n        /* \"#utility.yul\":1881:1883   */\n    tag_623:\n        /* \"#utility.yul\":2005:2007   */\n      dup2\n        /* \"#utility.yul\":1998:2002   */\n      0x20\n        /* \"#utility.yul\":1990:1996   */\n      dup6\n        /* \"#utility.yul\":1986:2003   */\n      add\n        /* \"#utility.yul\":1979:1983   */\n      0x20\n        /* \"#utility.yul\":1970:1977   */\n      dup4\n        /* \"#utility.yul\":1966:1984   */\n      add\n        /* \"#utility.yul\":1953:2008   */\n      calldatacopy\n        /* \"#utility.yul\":2028:2044   */\n      swap1\n      dup2\n      add\n        /* \"#utility.yul\":2046:2050   */\n      0x20\n        /* \"#utility.yul\":2024:2051   */\n      add\n        /* \"#utility.yul\":2017:2059   */\n      swap2\n      swap1\n      swap2\n      mstore\n        /* \"#utility.yul\":2032:2039   */\n      swap3\n        /* \"#utility.yul\":1593:2090   */\n      swap2\n      pop\n      pop\n      jump\t// out\n        /* \"#utility.yul\":2095:2354   */\n    tag_82:\n      0x00\n        /* \"#utility.yul\":2207:2209   */\n      0x20\n        /* \"#utility.yul\":2195:2204   */\n      dup3\n        /* \"#utility.yul\":2186:2193   */\n      dup5\n        /* \"#utility.yul\":2182:2205   */\n      sub\n        /* \"#utility.yul\":2178:2210   */\n      slt\n        /* \"#utility.yul\":2175:2177   */\n      iszero\n      tag_625\n      jumpi\n        /* \"#utility.yul\":2228:2234   */\n      dup1\n        /* \"#utility.yul\":2220:2226   */\n      dup2\n        /* \"#utility.yul\":2213:2235   */\n      revert\n        /* \"#utility.yul\":2175:2177   */\n    tag_625:\n        /* \"#utility.yul\":2272:2281   */\n      dup2\n        /* \"#utility.yul\":2259:2282   */\n      calldataload\n        /* \"#utility.yul\":2291:2324   */\n      tag_376\n        /* \"#utility.yul\":2318:2323   */\n      dup2\n        /* \"#utility.yul\":2291:2324   */\n      tag_595\n      jump\t// in\n        /* \"#utility.yul\":2359:2755   */\n    tag_55:\n      0x00\n      dup1\n        /* \"#utility.yul\":2485:2487   */\n      0x40\n        /* \"#utility.yul\":2473:2482   */\n      dup4\n        /* \"#utility.yul\":2464:2471   */\n      dup6\n        /* \"#utility.yul\":2460:2483   */\n      sub\n        /* \"#utility.yul\":2456:2488   */\n      slt\n        /* \"#utility.yul\":2453:2455   */\n      iszero\n      tag_628\n      jumpi\n        /* \"#utility.yul\":2506:2512   */\n      dup1\n        /* \"#utility.yul\":2498:2504   */\n      dup2\n        /* \"#utility.yul\":2491:2513   */\n      revert\n        /* \"#utility.yul\":2453:2455   */\n    tag_628:\n        /* \"#utility.yul\":2550:2559   */\n      dup3\n        /* \"#utility.yul\":2537:2560   */\n      calldataload\n        /* \"#utility.yul\":2569:2602   */\n      tag_629\n        /* \"#utility.yul\":2596:2601   */\n      dup2\n        /* \"#utility.yul\":2569:2602   */\n      tag_595\n      jump\t// in\n    tag_629:\n        /* \"#utility.yul\":2621:2626   */\n      swap2\n      pop\n        /* \"#utility.yul\":2678:2680   */\n      0x20\n        /* \"#utility.yul\":2663:2681   */\n      dup4\n      add\n        /* \"#utility.yul\":2650:2682   */\n      calldataload\n        /* \"#utility.yul\":2691:2723   */\n      tag_630\n        /* \"#utility.yul\":2650:2682   */\n      dup2\n        /* \"#utility.yul\":2691:2723   */\n      tag_631\n      jump\t// in\n    tag_630:\n        /* \"#utility.yul\":2742:2749   */\n      dup1\n        /* \"#utility.yul\":2732:2749   */\n      swap2\n      pop\n      pop\n        /* \"#utility.yul\":2443:2755   */\n      swap3\n      pop\n      swap3\n      swap1\n      pop\n      jump\t// out\n        /* \"#utility.yul\":2760:3511   */\n    tag_164:\n      0x00\n      dup1\n      0x00\n      dup1\n        /* \"#utility.yul\":2985:2988   */\n      0x80\n        /* \"#utility.yul\":2973:2982   */\n      dup6\n        /* \"#utility.yul\":2964:2971   */\n      dup8\n        /* \"#utility.yul\":2960:2983   */\n      sub\n        /* \"#utility.yul\":2956:2989   */\n      slt\n        /* \"#utility.yul\":2953:2955   */\n      iszero\n      tag_633\n      jumpi\n        /* \"#utility.yul\":3007:3013   */\n      dup2\n        /* \"#utility.yul\":2999:3005   */\n      dup3\n        /* \"#utility.yul\":2992:3014   */\n      revert\n        /* \"#utility.yul\":2953:2955   */\n    tag_633:\n        /* \"#utility.yul\":3051:3060   */\n      dup5\n        /* \"#utility.yul\":3038:3061   */\n      calldataload\n        /* \"#utility.yul\":3070:3103   */\n      tag_634\n        /* \"#utility.yul\":3097:3102   */\n      dup2\n        /* \"#utility.yul\":3070:3103   */\n      tag_595\n      jump\t// in\n    tag_634:\n        /* \"#utility.yul\":3122:3127   */\n      swap4\n      pop\n        /* \"#utility.yul\":3179:3181   */\n      0x20\n        /* \"#utility.yul\":3164:3182   */\n      dup6\n      add\n        /* \"#utility.yul\":3151:3183   */\n      calldataload\n        /* \"#utility.yul\":3192:3227   */\n      tag_635\n        /* \"#utility.yul\":3151:3183   */\n      dup2\n        /* \"#utility.yul\":3192:3227   */\n      tag_595\n      jump\t// in\n    tag_635:\n        /* \"#utility.yul\":3246:3253   */\n      swap3\n      pop\n        /* \"#utility.yul\":3305:3307   */\n      0x40\n        /* \"#utility.yul\":3290:3308   */\n      dup6\n      add\n        /* \"#utility.yul\":3277:3309   */\n      calldataload\n        /* \"#utility.yul\":3318:3353   */\n      tag_636\n        /* \"#utility.yul\":3277:3309   */\n      dup2\n        /* \"#utility.yul\":3318:3353   */\n      tag_595\n      jump\t// in\n    tag_636:\n        /* \"#utility.yul\":3372:3379   */\n      swap2\n      pop\n        /* \"#utility.yul\":3431:3433   */\n      0x60\n        /* \"#utility.yul\":3416:3434   */\n      dup6\n      add\n        /* \"#utility.yul\":3403:3435   */\n      calldataload\n        /* \"#utility.yul\":3444:3479   */\n      tag_637\n        /* \"#utility.yul\":3403:3435   */\n      dup2\n        /* \"#utility.yul\":3444:3479   */\n      tag_595\n      jump\t// in\n    tag_637:\n        /* \"#utility.yul\":2943:3511   */\n      swap4\n      swap7\n      swap3\n      swap6\n      pop\n      swap1\n      swap4\n      pop\n      pop\n      jump\t// out\n        /* \"#utility.yul\":3516:3843   */\n    tag_103:\n      0x00\n      dup1\n        /* \"#utility.yul\":3645:3647   */\n      0x40\n        /* \"#utility.yul\":3633:3642   */\n      dup4\n        /* \"#utility.yul\":3624:3631   */\n      dup6\n        /* \"#utility.yul\":3620:3643   */\n      sub\n        /* \"#utility.yul\":3616:3648   */\n      slt\n        /* \"#utility.yul\":3613:3615   */\n      iszero\n      tag_639\n      jumpi\n        /* \"#utility.yul\":3666:3672   */\n      dup2\n        /* \"#utility.yul\":3658:3664   */\n      dup3\n        /* \"#utility.yul\":3651:3673   */\n      revert\n        /* \"#utility.yul\":3613:3615   */\n    tag_639:\n        /* \"#utility.yul\":3710:3719   */\n      dup3\n        /* \"#utility.yul\":3697:3720   */\n      calldataload\n        /* \"#utility.yul\":3729:3762   */\n      tag_640\n        /* \"#utility.yul\":3756:3761   */\n      dup2\n        /* \"#utility.yul\":3729:3762   */\n      tag_595\n      jump\t// in\n    tag_640:\n        /* \"#utility.yul\":3781:3786   */\n      swap5\n        /* \"#utility.yul\":3833:3835   */\n      0x20\n        /* \"#utility.yul\":3818:3836   */\n      swap4\n      swap1\n      swap4\n      add\n        /* \"#utility.yul\":3805:3837   */\n      calldataload\n      swap4\n      pop\n      pop\n      pop\n        /* \"#utility.yul\":3603:3843   */\n      jump\t// out\n        /* \"#utility.yul\":3848:4312   */\n    tag_43:\n      0x00\n      dup1\n      0x00\n      dup1\n        /* \"#utility.yul\":4011:4014   */\n      0x80\n        /* \"#utility.yul\":3999:4008   */\n      dup6\n        /* \"#utility.yul\":3990:3997   */\n      dup8\n        /* \"#utility.yul\":3986:4009   */\n      sub\n        /* \"#utility.yul\":3982:4015   */\n      slt\n        /* \"#utility.yul\":3979:3981   */\n      iszero\n      tag_642\n      jumpi\n        /* \"#utility.yul\":4033:4039   */\n      dup4\n        /* \"#utility.yul\":4025:4031   */\n      dup5\n        /* \"#utility.yul\":4018:4040   */\n      revert\n        /* \"#utility.yul\":3979:3981   */\n    tag_642:\n        /* \"#utility.yul\":4077:4086   */\n      dup5\n        /* \"#utility.yul\":4064:4087   */\n      calldataload\n        /* \"#utility.yul\":4096:4129   */\n      tag_643\n        /* \"#utility.yul\":4123:4128   */\n      dup2\n        /* \"#utility.yul\":4096:4129   */\n      tag_595\n      jump\t// in\n    tag_643:\n        /* \"#utility.yul\":4148:4153   */\n      swap7\n        /* \"#utility.yul\":4200:4202   */\n      0x20\n        /* \"#utility.yul\":4185:4203   */\n      dup7\n      add\n        /* \"#utility.yul\":4172:4204   */\n      calldataload\n      swap7\n      pop\n        /* \"#utility.yul\":4251:4253   */\n      0x40\n        /* \"#utility.yul\":4236:4254   */\n      dup7\n      add\n        /* \"#utility.yul\":4223:4255   */\n      calldataload\n      swap6\n        /* \"#utility.yul\":4302:4304   */\n      0x60\n        /* \"#utility.yul\":4287:4305   */\n      add\n        /* \"#utility.yul\":4274:4306   */\n      calldataload\n      swap5\n      pop\n        /* \"#utility.yul\":3969:4312   */\n      swap3\n      pop\n      pop\n      pop\n      jump\t// out\n        /* \"#utility.yul\":4317:5697   */\n    tag_96:\n      0x00\n      dup1\n      0x00\n      dup1\n      0x00\n        /* \"#utility.yul\":4641:4644   */\n      0xa0\n        /* \"#utility.yul\":4629:4638   */\n      dup7\n        /* \"#utility.yul\":4620:4627   */\n      dup9\n        /* \"#utility.yul\":4616:4639   */\n      sub\n        /* \"#utility.yul\":4612:4645   */\n      slt\n        /* \"#utility.yul\":4609:4611   */\n      iszero\n      tag_645\n      jumpi\n        /* \"#utility.yul\":4663:4669   */\n      dup3\n        /* \"#utility.yul\":4655:4661   */\n      dup4\n        /* \"#utility.yul\":4648:4670   */\n      revert\n        /* \"#utility.yul\":4609:4611   */\n    tag_645:\n        /* \"#utility.yul\":4708:4717   */\n      dup6\n        /* \"#utility.yul\":4695:4718   */\n      calldataload\n        /* \"#utility.yul\":4737:4755   */\n      0xffffffffffffffff\n        /* \"#utility.yul\":4778:4780   */\n      dup1\n        /* \"#utility.yul\":4770:4776   */\n      dup3\n        /* \"#utility.yul\":4767:4781   */\n      gt\n        /* \"#utility.yul\":4764:4766   */\n      iszero\n      tag_646\n      jumpi\n        /* \"#utility.yul\":4799:4805   */\n      dup5\n        /* \"#utility.yul\":4791:4797   */\n      dup6\n        /* \"#utility.yul\":4784:4806   */\n      revert\n        /* \"#utility.yul\":4764:4766   */\n    tag_646:\n        /* \"#utility.yul\":4827:4894   */\n      tag_647\n        /* \"#utility.yul\":4886:4893   */\n      dup10\n        /* \"#utility.yul\":4877:4883   */\n      dup4\n        /* \"#utility.yul\":4866:4875   */\n      dup11\n        /* \"#utility.yul\":4862:4884   */\n      add\n        /* \"#utility.yul\":4827:4894   */\n      tag_608\n      jump\t// in\n    tag_647:\n        /* \"#utility.yul\":4817:4894   */\n      swap7\n      pop\n        /* \"#utility.yul\":4947:4949   */\n      0x20\n        /* \"#utility.yul\":4936:4945   */\n      dup9\n        /* \"#utility.yul\":4932:4950   */\n      add\n        /* \"#utility.yul\":4919:4951   */\n      calldataload\n        /* \"#utility.yul\":4903:4951   */\n      swap2\n      pop\n        /* \"#utility.yul\":4976:4978   */\n      dup1\n        /* \"#utility.yul\":4966:4974   */\n      dup3\n        /* \"#utility.yul\":4963:4979   */\n      gt\n        /* \"#utility.yul\":4960:4962   */\n      iszero\n      tag_648\n      jumpi\n        /* \"#utility.yul\":4997:5003   */\n      dup5\n        /* \"#utility.yul\":4989:4995   */\n      dup6\n        /* \"#utility.yul\":4982:5004   */\n      revert\n        /* \"#utility.yul\":4960:4962   */\n    tag_648:\n        /* \"#utility.yul\":5025:5094   */\n      tag_649\n        /* \"#utility.yul\":5086:5093   */\n      dup10\n        /* \"#utility.yul\":5075:5083   */\n      dup4\n        /* \"#utility.yul\":5064:5073   */\n      dup11\n        /* \"#utility.yul\":5060:5084   */\n      add\n        /* \"#utility.yul\":5025:5094   */\n      tag_608\n      jump\t// in\n    tag_649:\n        /* \"#utility.yul\":5015:5094   */\n      swap6\n      pop\n        /* \"#utility.yul\":5147:5149   */\n      0x40\n        /* \"#utility.yul\":5136:5145   */\n      dup9\n        /* \"#utility.yul\":5132:5150   */\n      add\n        /* \"#utility.yul\":5119:5151   */\n      calldataload\n        /* \"#utility.yul\":5103:5151   */\n      swap2\n      pop\n        /* \"#utility.yul\":5176:5178   */\n      dup1\n        /* \"#utility.yul\":5166:5174   */\n      dup3\n        /* \"#utility.yul\":5163:5179   */\n      gt\n        /* \"#utility.yul\":5160:5162   */\n      iszero\n      tag_650\n      jumpi\n        /* \"#utility.yul\":5197:5203   */\n      dup5\n        /* \"#utility.yul\":5189:5195   */\n      dup6\n        /* \"#utility.yul\":5182:5204   */\n      revert\n        /* \"#utility.yul\":5160:5162   */\n    tag_650:\n        /* \"#utility.yul\":5225:5292   */\n      tag_651\n        /* \"#utility.yul\":5284:5291   */\n      dup10\n        /* \"#utility.yul\":5273:5281   */\n      dup4\n        /* \"#utility.yul\":5262:5271   */\n      dup11\n        /* \"#utility.yul\":5258:5282   */\n      add\n        /* \"#utility.yul\":5225:5292   */\n      tag_596\n      jump\t// in\n    tag_651:\n        /* \"#utility.yul\":5215:5292   */\n      swap5\n      pop\n        /* \"#utility.yul\":5345:5347   */\n      0x60\n        /* \"#utility.yul\":5334:5343   */\n      dup9\n        /* \"#utility.yul\":5330:5348   */\n      add\n        /* \"#utility.yul\":5317:5349   */\n      calldataload\n        /* \"#utility.yul\":5301:5349   */\n      swap2\n      pop\n        /* \"#utility.yul\":5374:5376   */\n      dup1\n        /* \"#utility.yul\":5364:5372   */\n      dup3\n        /* \"#utility.yul\":5361:5377   */\n      gt\n        /* \"#utility.yul\":5358:5360   */\n      iszero\n      tag_652\n      jumpi\n        /* \"#utility.yul\":5395:5401   */\n      dup3\n        /* \"#utility.yul\":5387:5393   */\n      dup4\n        /* \"#utility.yul\":5380:5402   */\n      revert\n        /* \"#utility.yul\":5358:5360   */\n    tag_652:\n        /* \"#utility.yul\":5423:5492   */\n      tag_653\n        /* \"#utility.yul\":5484:5491   */\n      dup10\n        /* \"#utility.yul\":5473:5481   */\n      dup4\n        /* \"#utility.yul\":5462:5471   */\n      dup11\n        /* \"#utility.yul\":5458:5482   */\n      add\n        /* \"#utility.yul\":5423:5492   */\n      tag_608\n      jump\t// in\n    tag_653:\n        /* \"#utility.yul\":5413:5492   */\n      swap4\n      pop\n        /* \"#utility.yul\":5545:5548   */\n      0x80\n        /* \"#utility.yul\":5534:5543   */\n      dup9\n        /* \"#utility.yul\":5530:5549   */\n      add\n        /* \"#utility.yul\":5517:5550   */\n      calldataload\n        /* \"#utility.yul\":5501:5550   */\n      swap2\n      pop\n        /* \"#utility.yul\":5575:5577   */\n      dup1\n        /* \"#utility.yul\":5565:5573   */\n      dup3\n        /* \"#utility.yul\":5562:5578   */\n      gt\n        /* \"#utility.yul\":5559:5561   */\n      iszero\n      tag_654\n      jumpi\n        /* \"#utility.yul\":5596:5602   */\n      dup3\n        /* \"#utility.yul\":5588:5594   */\n      dup4\n        /* \"#utility.yul\":5581:5603   */\n      revert\n        /* \"#utility.yul\":5559:5561   */\n    tag_654:\n      pop\n        /* \"#utility.yul\":5624:5691   */\n      tag_655\n        /* \"#utility.yul\":5683:5690   */\n      dup9\n        /* \"#utility.yul\":5672:5680   */\n      dup3\n        /* \"#utility.yul\":5661:5670   */\n      dup10\n        /* \"#utility.yul\":5657:5681   */\n      add\n        /* \"#utility.yul\":5624:5691   */\n      tag_596\n      jump\t// in\n    tag_655:\n        /* \"#utility.yul\":5614:5691   */\n      swap2\n      pop\n      pop\n        /* \"#utility.yul\":4599:5697   */\n      swap3\n      swap6\n      pop\n      swap3\n      swap6\n      swap1\n      swap4\n      pop\n      jump\t// out\n        /* \"#utility.yul\":5702:5959   */\n    tag_223:\n      0x00\n        /* \"#utility.yul\":5822:5824   */\n      0x20\n        /* \"#utility.yul\":5810:5819   */\n      dup3\n        /* \"#utility.yul\":5801:5808   */\n      dup5\n        /* \"#utility.yul\":5797:5820   */\n      sub\n        /* \"#utility.yul\":5793:5825   */\n      slt\n        /* \"#utility.yul\":5790:5792   */\n      iszero\n      tag_657\n      jumpi\n        /* \"#utility.yul\":5843:5849   */\n      dup1\n        /* \"#utility.yul\":5835:5841   */\n      dup2\n        /* \"#utility.yul\":5828:5850   */\n      revert\n        /* \"#utility.yul\":5790:5792   */\n    tag_657:\n        /* \"#utility.yul\":5880:5889   */\n      dup2\n        /* \"#utility.yul\":5874:5890   */\n      mload\n        /* \"#utility.yul\":5899:5929   */\n      tag_376\n        /* \"#utility.yul\":5923:5928   */\n      dup2\n        /* \"#utility.yul\":5899:5929   */\n      tag_631\n      jump\t// in\n        /* \"#utility.yul\":5964:6154   */\n    tag_49:\n      0x00\n        /* \"#utility.yul\":6076:6078   */\n      0x20\n        /* \"#utility.yul\":6064:6073   */\n      dup3\n        /* \"#utility.yul\":6055:6062   */\n      dup5\n        /* \"#utility.yul\":6051:6074   */\n      sub\n        /* \"#utility.yul\":6047:6079   */\n      slt\n        /* \"#utility.yul\":6044:6046   */\n      iszero\n      tag_660\n      jumpi\n        /* \"#utility.yul\":6097:6103   */\n      dup1\n        /* \"#utility.yul\":6089:6095   */\n      dup2\n        /* \"#utility.yul\":6082:6104   */\n      revert\n        /* \"#utility.yul\":6044:6046   */\n    tag_660:\n      pop\n        /* \"#utility.yul\":6125:6148   */\n      calldataload\n      swap2\n        /* \"#utility.yul\":6034:6154   */\n      swap1\n      pop\n      jump\t// out\n        /* \"#utility.yul\":6159:6353   */\n    tag_240:\n      0x00\n        /* \"#utility.yul\":6282:6284   */\n      0x20\n        /* \"#utility.yul\":6270:6279   */\n      dup3\n        /* \"#utility.yul\":6261:6268   */\n      dup5\n        /* \"#utility.yul\":6257:6280   */\n      sub\n        /* \"#utility.yul\":6253:6285   */\n      slt\n        /* \"#utility.yul\":6250:6252   */\n      iszero\n      tag_662\n      jumpi\n        /* \"#utility.yul\":6303:6309   */\n      dup1\n        /* \"#utility.yul\":6295:6301   */\n      dup2\n        /* \"#utility.yul\":6288:6310   */\n      revert\n        /* \"#utility.yul\":6250:6252   */\n    tag_662:\n      pop\n        /* \"#utility.yul\":6331:6347   */\n      mload\n      swap2\n        /* \"#utility.yul\":6240:6353   */\n      swap1\n      pop\n      jump\t// out\n        /* \"#utility.yul\":6358:7467   */\n    tag_168:\n      0x00\n      dup1\n      0x00\n      dup1\n      0x00\n      dup1\n      0x00\n      dup1\n      0x00\n      dup1\n      0x00\n      dup1\n        /* \"#utility.yul\":6669:6672   */\n      0x0180\n        /* \"#utility.yul\":6657:6666   */\n      dup14\n        /* \"#utility.yul\":6648:6655   */\n      dup16\n        /* \"#utility.yul\":6644:6667   */\n      sub\n        /* \"#utility.yul\":6640:6673   */\n      slt\n        /* \"#utility.yul\":6637:6639   */\n      iszero\n      tag_664\n      jumpi\n        /* \"#utility.yul\":6691:6697   */\n      dup10\n        /* \"#utility.yul\":6683:6689   */\n      dup11\n        /* \"#utility.yul\":6676:6698   */\n      revert\n        /* \"#utility.yul\":6637:6639   */\n    tag_664:\n        /* \"#utility.yul\":6732:6741   */\n      dup13\n        /* \"#utility.yul\":6719:6742   */\n      calldataload\n        /* \"#utility.yul\":6709:6742   */\n      swap12\n      pop\n        /* \"#utility.yul\":6761:6801   */\n      tag_665\n        /* \"#utility.yul\":6797:6799   */\n      0x20\n        /* \"#utility.yul\":6786:6795   */\n      dup15\n        /* \"#utility.yul\":6782:6800   */\n      add\n        /* \"#utility.yul\":6761:6801   */\n      tag_592\n      jump\t// in\n    tag_665:\n        /* \"#utility.yul\":6751:6801   */\n      swap11\n      pop\n        /* \"#utility.yul\":6848:6850   */\n      0x40\n        /* \"#utility.yul\":6837:6846   */\n      dup14\n        /* \"#utility.yul\":6833:6851   */\n      add\n        /* \"#utility.yul\":6820:6852   */\n      calldataload\n        /* \"#utility.yul\":6810:6852   */\n      swap10\n      pop\n        /* \"#utility.yul\":6901:6919   */\n      0xffffffffffffffff\n        /* \"#utility.yul\":6895:6897   */\n      0x60\n        /* \"#utility.yul\":6884:6893   */\n      dup15\n        /* \"#utility.yul\":6880:6898   */\n      add\n        /* \"#utility.yul\":6867:6899   */\n      calldataload\n        /* \"#utility.yul\":6864:6920   */\n      gt\n        /* \"#utility.yul\":6861:6863   */\n      iszero\n      tag_666\n      jumpi\n        /* \"#utility.yul\":6938:6944   */\n      dup7\n        /* \"#utility.yul\":6930:6936   */\n      dup8\n        /* \"#utility.yul\":6923:6945   */\n      revert\n        /* \"#utility.yul\":6861:6863   */\n    tag_666:\n        /* \"#utility.yul\":6966:7043   */\n      tag_667\n        /* \"#utility.yul\":7035:7042   */\n      dup15\n        /* \"#utility.yul\":7028:7030   */\n      0x60\n        /* \"#utility.yul\":7017:7026   */\n      dup16\n        /* \"#utility.yul\":7013:7031   */\n      add\n        /* \"#utility.yul\":7000:7032   */\n      calldataload\n        /* \"#utility.yul\":6989:6998   */\n      dup16\n        /* \"#utility.yul\":6985:7033   */\n      add\n        /* \"#utility.yul\":6966:7043   */\n      tag_607\n      jump\t// in\n    tag_667:\n        /* \"#utility.yul\":6627:7467   */\n      swap12\n      swap15\n      swap11\n      swap14\n      pop\n      swap9\n      swap12\n        /* \"#utility.yul\":7090:7093   */\n      0x80\n        /* \"#utility.yul\":7075:7094   */\n      dup2\n      add\n        /* \"#utility.yul\":7062:7095   */\n      calldataload\n      swap11\n        /* \"#utility.yul\":7142:7145   */\n      0xa0\n        /* \"#utility.yul\":7127:7146   */\n      dup3\n      add\n        /* \"#utility.yul\":7114:7147   */\n      calldataload\n      swap11\n      pop\n        /* \"#utility.yul\":7194:7197   */\n      0xc0\n        /* \"#utility.yul\":7179:7198   */\n      dup3\n      add\n        /* \"#utility.yul\":7166:7199   */\n      calldataload\n      swap10\n      pop\n        /* \"#utility.yul\":7246:7249   */\n      0xe0\n        /* \"#utility.yul\":7231:7250   */\n      dup3\n      add\n        /* \"#utility.yul\":7218:7251   */\n      calldataload\n      swap9\n      pop\n        /* \"#utility.yul\":7298:7301   */\n      0x0100\n        /* \"#utility.yul\":7283:7302   */\n      dup3\n      add\n        /* \"#utility.yul\":7270:7303   */\n      calldataload\n      swap8\n      pop\n        /* \"#utility.yul\":7350:7353   */\n      0x0120\n        /* \"#utility.yul\":7335:7354   */\n      dup3\n      add\n        /* \"#utility.yul\":7322:7355   */\n      calldataload\n      swap7\n      pop\n        /* \"#utility.yul\":7403:7406   */\n      0x0140\n        /* \"#utility.yul\":7388:7407   */\n      dup3\n      add\n        /* \"#utility.yul\":7375:7408   */\n      calldataload\n      swap6\n      pop\n        /* \"#utility.yul\":7456:7459   */\n      0x0160\n        /* \"#utility.yul\":7441:7460   */\n      swap1\n      swap2\n      add\n        /* \"#utility.yul\":7428:7461   */\n      calldataload\n      swap4\n      pop\n        /* \"#utility.yul\":6627:7467   */\n      swap2\n      pop\n      pop\n      jump\t// out\n        /* \"#utility.yul\":7472:8252   */\n    tag_123:\n      0x00\n      dup1\n      0x00\n      dup1\n      0x00\n        /* \"#utility.yul\":7671:7674   */\n      0xa0\n        /* \"#utility.yul\":7659:7668   */\n      dup7\n        /* \"#utility.yul\":7650:7657   */\n      dup9\n        /* \"#utility.yul\":7646:7669   */\n      sub\n        /* \"#utility.yul\":7642:7675   */\n      slt\n        /* \"#utility.yul\":7639:7641   */\n      iszero\n      tag_669\n      jumpi\n        /* \"#utility.yul\":7693:7699   */\n      dup3\n        /* \"#utility.yul\":7685:7691   */\n      dup4\n        /* \"#utility.yul\":7678:7700   */\n      revert\n        /* \"#utility.yul\":7639:7641   */\n    tag_669:\n        /* \"#utility.yul\":7734:7743   */\n      dup6\n        /* \"#utility.yul\":7721:7744   */\n      calldataload\n        /* \"#utility.yul\":7711:7744   */\n      swap5\n      pop\n        /* \"#utility.yul\":7791:7793   */\n      0x20\n        /* \"#utility.yul\":7780:7789   */\n      dup7\n        /* \"#utility.yul\":7776:7794   */\n      add\n        /* \"#utility.yul\":7763:7795   */\n      calldataload\n        /* \"#utility.yul\":7753:7795   */\n      swap4\n      pop\n        /* \"#utility.yul\":7846:7848   */\n      0x40\n        /* \"#utility.yul\":7835:7844   */\n      dup7\n        /* \"#utility.yul\":7831:7849   */\n      add\n        /* \"#utility.yul\":7818:7850   */\n      calldataload\n        /* \"#utility.yul\":7869:7887   */\n      0xffffffffffffffff\n        /* \"#utility.yul\":7910:7912   */\n      dup1\n        /* \"#utility.yul\":7902:7908   */\n      dup3\n        /* \"#utility.yul\":7899:7913   */\n      gt\n        /* \"#utility.yul\":7896:7898   */\n      iszero\n      tag_670\n      jumpi\n        /* \"#utility.yul\":7931:7937   */\n      dup5\n        /* \"#utility.yul\":7923:7929   */\n      dup6\n        /* \"#utility.yul\":7916:7938   */\n      revert\n        /* \"#utility.yul\":7896:7898   */\n    tag_670:\n        /* \"#utility.yul\":7959:8010   */\n      tag_671\n        /* \"#utility.yul\":8002:8009   */\n      dup10\n        /* \"#utility.yul\":7993:7999   */\n      dup4\n        /* \"#utility.yul\":7982:7991   */\n      dup11\n        /* \"#utility.yul\":7978:8000   */\n      add\n        /* \"#utility.yul\":7959:8010   */\n      tag_607\n      jump\t// in\n    tag_671:\n        /* \"#utility.yul\":7949:8010   */\n      swap5\n      pop\n        /* \"#utility.yul\":8057:8059   */\n      0x60\n        /* \"#utility.yul\":8046:8055   */\n      dup9\n        /* \"#utility.yul\":8042:8060   */\n      add\n        /* \"#utility.yul\":8029:8061   */\n      calldataload\n        /* \"#utility.yul\":8019:8061   */\n      swap4\n      pop\n        /* \"#utility.yul\":8114:8117   */\n      0x80\n        /* \"#utility.yul\":8103:8112   */\n      dup9\n        /* \"#utility.yul\":8099:8118   */\n      add\n        /* \"#utility.yul\":8086:8119   */\n      calldataload\n        /* \"#utility.yul\":8070:8119   */\n      swap2\n      pop\n        /* \"#utility.yul\":8144:8146   */\n      dup1\n        /* \"#utility.yul\":8134:8142   */\n      dup3\n        /* \"#utility.yul\":8131:8147   */\n      gt\n        /* \"#utility.yul\":8128:8130   */\n      iszero\n      tag_672\n      jumpi\n        /* \"#utility.yul\":8165:8171   */\n      dup3\n        /* \"#utility.yul\":8157:8163   */\n      dup4\n        /* \"#utility.yul\":8150:8172   */\n      revert\n        /* \"#utility.yul\":8128:8130   */\n    tag_672:\n      pop\n        /* \"#utility.yul\":8193:8246   */\n      tag_655\n        /* \"#utility.yul\":8238:8245   */\n      dup9\n        /* \"#utility.yul\":8227:8235   */\n      dup3\n        /* \"#utility.yul\":8216:8225   */\n      dup10\n        /* \"#utility.yul\":8212:8236   */\n      add\n        /* \"#utility.yul\":8193:8246   */\n      tag_607\n      jump\t// in\n        /* \"#utility.yul\":8257:9106   */\n    tag_118:\n      0x00\n      dup1\n      0x00\n      dup1\n      0x00\n      dup1\n        /* \"#utility.yul\":8473:8476   */\n      0xc0\n        /* \"#utility.yul\":8461:8470   */\n      dup8\n        /* \"#utility.yul\":8452:8459   */\n      dup10\n        /* \"#utility.yul\":8448:8471   */\n      sub\n        /* \"#utility.yul\":8444:8477   */\n      slt\n        /* \"#utility.yul\":8441:8443   */\n      iszero\n      tag_675\n      jumpi\n        /* \"#utility.yul\":8495:8501   */\n      dup4\n        /* \"#utility.yul\":8487:8493   */\n      dup5\n        /* \"#utility.yul\":8480:8502   */\n      revert\n        /* \"#utility.yul\":8441:8443   */\n    tag_675:\n        /* \"#utility.yul\":8536:8545   */\n      dup7\n        /* \"#utility.yul\":8523:8546   */\n      calldataload\n        /* \"#utility.yul\":8513:8546   */\n      swap6\n      pop\n        /* \"#utility.yul\":8593:8595   */\n      0x20\n        /* \"#utility.yul\":8582:8591   */\n      dup8\n        /* \"#utility.yul\":8578:8596   */\n      add\n        /* \"#utility.yul\":8565:8597   */\n      calldataload\n        /* \"#utility.yul\":8555:8597   */\n      swap5\n      pop\n        /* \"#utility.yul\":8648:8650   */\n      0x40\n        /* \"#utility.yul\":8637:8646   */\n      dup8\n        /* \"#utility.yul\":8633:8651   */\n      add\n        /* \"#utility.yul\":8620:8652   */\n      calldataload\n        /* \"#utility.yul\":8671:8689   */\n      0xffffffffffffffff\n        /* \"#utility.yul\":8712:8714   */\n      dup1\n        /* \"#utility.yul\":8704:8710   */\n      dup3\n        /* \"#utility.yul\":8701:8715   */\n      gt\n        /* \"#utility.yul\":8698:8700   */\n      iszero\n      tag_676\n      jumpi\n        /* \"#utility.yul\":8733:8739   */\n      dup6\n        /* \"#utility.yul\":8725:8731   */\n      dup7\n        /* \"#utility.yul\":8718:8740   */\n      revert\n        /* \"#utility.yul\":8698:8700   */\n    tag_676:\n        /* \"#utility.yul\":8761:8812   */\n      tag_677\n        /* \"#utility.yul\":8804:8811   */\n      dup11\n        /* \"#utility.yul\":8795:8801   */\n      dup4\n        /* \"#utility.yul\":8784:8793   */\n      dup12\n        /* \"#utility.yul\":8780:8802   */\n      add\n        /* \"#utility.yul\":8761:8812   */\n      tag_607\n      jump\t// in\n    tag_677:\n        /* \"#utility.yul\":8751:8812   */\n      swap6\n      pop\n        /* \"#utility.yul\":8859:8861   */\n      0x60\n        /* \"#utility.yul\":8848:8857   */\n      dup10\n        /* \"#utility.yul\":8844:8862   */\n      add\n        /* \"#utility.yul\":8831:8863   */\n      calldataload\n        /* \"#utility.yul\":8821:8863   */\n      swap5\n      pop\n        /* \"#utility.yul\":8916:8919   */\n      0x80\n        /* \"#utility.yul\":8905:8914   */\n      dup10\n        /* \"#utility.yul\":8901:8920   */\n      add\n        /* \"#utility.yul\":8888:8921   */\n      calldataload\n        /* \"#utility.yul\":8872:8921   */\n      swap2\n      pop\n        /* \"#utility.yul\":8946:8948   */\n      dup1\n        /* \"#utility.yul\":8936:8944   */\n      dup3\n        /* \"#utility.yul\":8933:8949   */\n      gt\n        /* \"#utility.yul\":8930:8932   */\n      iszero\n      tag_678\n      jumpi\n        /* \"#utility.yul\":8967:8973   */\n      dup4\n        /* \"#utility.yul\":8959:8965   */\n      dup5\n        /* \"#utility.yul\":8952:8974   */\n      revert\n        /* \"#utility.yul\":8930:8932   */\n    tag_678:\n      pop\n        /* \"#utility.yul\":8995:9048   */\n      tag_679\n        /* \"#utility.yul\":9040:9047   */\n      dup10\n        /* \"#utility.yul\":9029:9037   */\n      dup3\n        /* \"#utility.yul\":9018:9027   */\n      dup11\n        /* \"#utility.yul\":9014:9038   */\n      add\n        /* \"#utility.yul\":8995:9048   */\n      tag_607\n      jump\t// in\n    tag_679:\n        /* \"#utility.yul\":8985:9048   */\n      swap3\n      pop\n      pop\n        /* \"#utility.yul\":9095:9098   */\n      0xa0\n        /* \"#utility.yul\":9084:9093   */\n      dup8\n        /* \"#utility.yul\":9080:9099   */\n      add\n        /* \"#utility.yul\":9067:9100   */\n      calldataload\n        /* \"#utility.yul\":9057:9100   */\n      swap1\n      pop\n        /* \"#utility.yul\":8431:9106   */\n      swap3\n      swap6\n      pop\n      swap3\n      swap6\n      pop\n      swap3\n      swap6\n      jump\t// out\n        /* \"#utility.yul\":9111:10029   */\n    tag_77:\n      0x00\n      dup1\n      0x00\n      dup1\n      0x00\n      dup1\n      0x00\n        /* \"#utility.yul\":9344:9347   */\n      0xe0\n        /* \"#utility.yul\":9332:9341   */\n      dup9\n        /* \"#utility.yul\":9323:9330   */\n      dup11\n        /* \"#utility.yul\":9319:9342   */\n      sub\n        /* \"#utility.yul\":9315:9348   */\n      slt\n        /* \"#utility.yul\":9312:9314   */\n      iszero\n      tag_681\n      jumpi\n        /* \"#utility.yul\":9366:9372   */\n      dup1\n        /* \"#utility.yul\":9358:9364   */\n      dup2\n        /* \"#utility.yul\":9351:9373   */\n      revert\n        /* \"#utility.yul\":9312:9314   */\n    tag_681:\n        /* \"#utility.yul\":9407:9416   */\n      dup8\n        /* \"#utility.yul\":9394:9417   */\n      calldataload\n        /* \"#utility.yul\":9384:9417   */\n      swap7\n      pop\n        /* \"#utility.yul\":9464:9466   */\n      0x20\n        /* \"#utility.yul\":9453:9462   */\n      dup9\n        /* \"#utility.yul\":9449:9467   */\n      add\n        /* \"#utility.yul\":9436:9468   */\n      calldataload\n        /* \"#utility.yul\":9426:9468   */\n      swap6\n      pop\n        /* \"#utility.yul\":9515:9517   */\n      0x40\n        /* \"#utility.yul\":9504:9513   */\n      dup9\n        /* \"#utility.yul\":9500:9518   */\n      add\n        /* \"#utility.yul\":9487:9519   */\n      calldataload\n        /* \"#utility.yul\":9477:9519   */\n      swap5\n      pop\n        /* \"#utility.yul\":9570:9572   */\n      0x60\n        /* \"#utility.yul\":9559:9568   */\n      dup9\n        /* \"#utility.yul\":9555:9573   */\n      add\n        /* \"#utility.yul\":9542:9574   */\n      calldataload\n        /* \"#utility.yul\":9593:9611   */\n      0xffffffffffffffff\n        /* \"#utility.yul\":9634:9636   */\n      dup1\n        /* \"#utility.yul\":9626:9632   */\n      dup3\n        /* \"#utility.yul\":9623:9637   */\n      gt\n        /* \"#utility.yul\":9620:9622   */\n      iszero\n      tag_682\n      jumpi\n        /* \"#utility.yul\":9655:9661   */\n      dup3\n        /* \"#utility.yul\":9647:9653   */\n      dup4\n        /* \"#utility.yul\":9640:9662   */\n      revert\n        /* \"#utility.yul\":9620:9622   */\n    tag_682:\n        /* \"#utility.yul\":9683:9734   */\n      tag_683\n        /* \"#utility.yul\":9726:9733   */\n      dup12\n        /* \"#utility.yul\":9717:9723   */\n      dup4\n        /* \"#utility.yul\":9706:9715   */\n      dup13\n        /* \"#utility.yul\":9702:9724   */\n      add\n        /* \"#utility.yul\":9683:9734   */\n      tag_607\n      jump\t// in\n    tag_683:\n        /* \"#utility.yul\":9673:9734   */\n      swap6\n      pop\n        /* \"#utility.yul\":9781:9784   */\n      0x80\n        /* \"#utility.yul\":9770:9779   */\n      dup11\n        /* \"#utility.yul\":9766:9785   */\n      add\n        /* \"#utility.yul\":9753:9786   */\n      calldataload\n        /* \"#utility.yul\":9743:9786   */\n      swap5\n      pop\n        /* \"#utility.yul\":9833:9836   */\n      0xa0\n        /* \"#utility.yul\":9822:9831   */\n      dup11\n        /* \"#utility.yul\":9818:9837   */\n      add\n        /* \"#utility.yul\":9805:9838   */\n      calldataload\n        /* \"#utility.yul\":9795:9838   */\n      swap4\n      pop\n        /* \"#utility.yul\":9891:9894   */\n      0xc0\n        /* \"#utility.yul\":9880:9889   */\n      dup11\n        /* \"#utility.yul\":9876:9895   */\n      add\n        /* \"#utility.yul\":9863:9896   */\n      calldataload\n        /* \"#utility.yul\":9847:9896   */\n      swap2\n      pop\n        /* \"#utility.yul\":9921:9923   */\n      dup1\n        /* \"#utility.yul\":9911:9919   */\n      dup3\n        /* \"#utility.yul\":9908:9924   */\n      gt\n        /* \"#utility.yul\":9905:9907   */\n      iszero\n      tag_684\n      jumpi\n        /* \"#utility.yul\":9942:9948   */\n      dup3\n        /* \"#utility.yul\":9934:9940   */\n      dup4\n        /* \"#utility.yul\":9927:9949   */\n      revert\n        /* \"#utility.yul\":9905:9907   */\n    tag_684:\n      pop\n        /* \"#utility.yul\":9970:10023   */\n      tag_685\n        /* \"#utility.yul\":10015:10022   */\n      dup11\n        /* \"#utility.yul\":10004:10012   */\n      dup3\n        /* \"#utility.yul\":9993:10002   */\n      dup12\n        /* \"#utility.yul\":9989:10013   */\n      add\n        /* \"#utility.yul\":9970:10023   */\n      tag_607\n      jump\t// in\n    tag_685:\n        /* \"#utility.yul\":9960:10023   */\n      swap2\n      pop\n      pop\n        /* \"#utility.yul\":9302:10029   */\n      swap3\n      swap6\n      swap9\n      swap2\n      swap5\n      swap8\n      pop\n      swap3\n      swap6\n      pop\n      jump\t// out\n        /* \"#utility.yul\":10034:10140   */\n    tag_686:\n      sub(shl(0xa0, 0x01), 0x01)\n        /* \"#utility.yul\":10102:10133   */\n      and\n        /* \"#utility.yul\":10090:10134   */\n      swap1\n      mstore\n        /* \"#utility.yul\":10080:10140   */\n      jump\t// out\n        /* \"#utility.yul\":10145:10404   */\n    tag_688:\n      0x00\n        /* \"#utility.yul\":10226:10231   */\n      dup2\n        /* \"#utility.yul\":10220:10232   */\n      mload\n        /* \"#utility.yul\":10253:10259   */\n      dup1\n        /* \"#utility.yul\":10248:10251   */\n      dup5\n        /* \"#utility.yul\":10241:10260   */\n      mstore\n        /* \"#utility.yul\":10269:10332   */\n      tag_690\n        /* \"#utility.yul\":10325:10331   */\n      dup2\n        /* \"#utility.yul\":10318:10322   */\n      0x20\n        /* \"#utility.yul\":10313:10316   */\n      dup7\n        /* \"#utility.yul\":10309:10323   */\n      add\n        /* \"#utility.yul\":10302:10306   */\n      0x20\n        /* \"#utility.yul\":10295:10300   */\n      dup7\n        /* \"#utility.yul\":10291:10307   */\n      add\n        /* \"#utility.yul\":10269:10332   */\n      tag_691\n      jump\t// in\n    tag_690:\n        /* \"#utility.yul\":10386:10388   */\n      0x1f\n        /* \"#utility.yul\":10365:10380   */\n      add\n      not(0x1f)\n        /* \"#utility.yul\":10361:10390   */\n      and\n        /* \"#utility.yul\":10352:10391   */\n      swap3\n      swap1\n      swap3\n      add\n        /* \"#utility.yul\":10393:10397   */\n      0x20\n        /* \"#utility.yul\":10348:10398   */\n      add\n      swap3\n        /* \"#utility.yul\":10196:10404   */\n      swap2\n      pop\n      pop\n      jump\t// out\n        /* \"#utility.yul\":10409:10683   */\n    tag_567:\n      0x00\n        /* \"#utility.yul\":10576:10582   */\n      dup3\n        /* \"#utility.yul\":10570:10583   */\n      mload\n        /* \"#utility.yul\":10592:10645   */\n      tag_693\n        /* \"#utility.yul\":10638:10644   */\n      dup2\n        /* \"#utility.yul\":10633:10636   */\n      dup5\n        /* \"#utility.yul\":10626:10630   */\n      0x20\n        /* \"#utility.yul\":10618:10624   */\n      dup8\n        /* \"#utility.yul\":10614:10631   */\n      add\n        /* \"#utility.yul\":10592:10645   */\n      tag_691\n      jump\t// in\n    tag_693:\n        /* \"#utility.yul\":10661:10677   */\n      swap2\n      swap1\n      swap2\n      add\n      swap3\n        /* \"#utility.yul\":10546:10683   */\n      swap2\n      pop\n      pop\n      jump\t// out\n        /* \"#utility.yul\":10688:10891   */\n    tag_66:\n      sub(shl(0xa0, 0x01), 0x01)\n        /* \"#utility.yul\":10852:10884   */\n      swap2\n      swap1\n      swap2\n      and\n        /* \"#utility.yul\":10834:10885   */\n      dup2\n      mstore\n        /* \"#utility.yul\":10822:10824   */\n      0x20\n        /* \"#utility.yul\":10807:10825   */\n      add\n      swap1\n        /* \"#utility.yul\":10789:10891   */\n      jump\t// out\n        /* \"#utility.yul\":10896:11271   */\n    tag_380:\n      sub(shl(0xa0, 0x01), 0x01)\n        /* \"#utility.yul\":11154:11169   */\n      swap4\n      dup5\n      and\n        /* \"#utility.yul\":11136:11170   */\n      dup2\n      mstore\n        /* \"#utility.yul\":11206:11221   */\n      swap2\n      swap1\n      swap3\n      and\n        /* \"#utility.yul\":11201:11203   */\n      0x20\n        /* \"#utility.yul\":11186:11204   */\n      dup3\n      add\n        /* \"#utility.yul\":11179:11222   */\n      mstore\n        /* \"#utility.yul\":11253:11255   */\n      0x40\n        /* \"#utility.yul\":11238:11256   */\n      dup2\n      add\n        /* \"#utility.yul\":11231:11265   */\n      swap2\n      swap1\n      swap2\n      mstore\n        /* \"#utility.yul\":11086:11088   */\n      0x60\n        /* \"#utility.yul\":11071:11089   */\n      add\n      swap1\n        /* \"#utility.yul\":11053:11271   */\n      jump\t// out\n        /* \"#utility.yul\":11276:11550   */\n    tag_388:\n      sub(shl(0xa0, 0x01), 0x01)\n        /* \"#utility.yul\":11468:11500   */\n      swap3\n      swap1\n      swap3\n      and\n        /* \"#utility.yul\":11450:11501   */\n      dup3\n      mstore\n        /* \"#utility.yul\":11532:11534   */\n      0x20\n        /* \"#utility.yul\":11517:11535   */\n      dup3\n      add\n        /* \"#utility.yul\":11510:11544   */\n      mstore\n        /* \"#utility.yul\":11438:11440   */\n      0x40\n        /* \"#utility.yul\":11423:11441   */\n      add\n      swap1\n        /* \"#utility.yul\":11405:11550   */\n      jump\t// out\n        /* \"#utility.yul\":11555:12190   */\n    tag_46:\n        /* \"#utility.yul\":11726:11728   */\n      0x20\n        /* \"#utility.yul\":11778:11799   */\n      dup1\n      dup3\n      mstore\n        /* \"#utility.yul\":11848:11861   */\n      dup3\n      mload\n        /* \"#utility.yul\":11751:11769   */\n      dup3\n      dup3\n      add\n        /* \"#utility.yul\":11870:11892   */\n      dup2\n      swap1\n      mstore\n        /* \"#utility.yul\":11555:12190   */\n      0x00\n      swap2\n        /* \"#utility.yul\":11726:11728   */\n      swap1\n        /* \"#utility.yul\":11949:11964   */\n      dup5\n      dup3\n      add\n      swap1\n        /* \"#utility.yul\":11923:11925   */\n      0x40\n        /* \"#utility.yul\":11908:11926   */\n      dup6\n      add\n      swap1\n        /* \"#utility.yul\":11555:12190   */\n      dup5\n        /* \"#utility.yul\":11995:12164   */\n    tag_698:\n        /* \"#utility.yul\":12009:12015   */\n      dup2\n        /* \"#utility.yul\":12006:12007   */\n      dup2\n        /* \"#utility.yul\":12003:12016   */\n      lt\n        /* \"#utility.yul\":11995:12164   */\n      iszero\n      tag_700\n      jumpi\n        /* \"#utility.yul\":12070:12083   */\n      dup4\n      mload\n        /* \"#utility.yul\":12058:12084   */\n      dup4\n      mstore\n        /* \"#utility.yul\":12139:12154   */\n      swap3\n      dup5\n      add\n      swap3\n        /* \"#utility.yul\":12104:12116   */\n      swap2\n      dup5\n      add\n      swap2\n        /* \"#utility.yul\":12031:12032   */\n      0x01\n        /* \"#utility.yul\":12024:12033   */\n      add\n        /* \"#utility.yul\":11995:12164   */\n      jump(tag_698)\n    tag_700:\n      pop\n        /* \"#utility.yul\":12181:12184   */\n      swap1\n      swap7\n        /* \"#utility.yul\":11706:12190   */\n      swap6\n      pop\n      pop\n      pop\n      pop\n      pop\n      pop\n      jump\t// out\n        /* \"#utility.yul\":12195:12382   */\n    tag_58:\n        /* \"#utility.yul\":12360:12374   */\n      swap1\n      iszero\n        /* \"#utility.yul\":12353:12375   */\n      iszero\n        /* \"#utility.yul\":12335:12376   */\n      dup2\n      mstore\n        /* \"#utility.yul\":12323:12325   */\n      0x20\n        /* \"#utility.yul\":12308:12326   */\n      add\n      swap1\n        /* \"#utility.yul\":12290:12382   */\n      jump\t// out\n        /* \"#utility.yul\":13073:13294   */\n    tag_580:\n      0x00\n        /* \"#utility.yul\":13222:13224   */\n      0x20\n        /* \"#utility.yul\":13211:13220   */\n      dup3\n        /* \"#utility.yul\":13204:13225   */\n      mstore\n        /* \"#utility.yul\":13242:13288   */\n      tag_376\n        /* \"#utility.yul\":13284:13286   */\n      0x20\n        /* \"#utility.yul\":13273:13282   */\n      dup4\n        /* \"#utility.yul\":13269:13287   */\n      add\n        /* \"#utility.yul\":13261:13267   */\n      dup5\n        /* \"#utility.yul\":13242:13288   */\n      tag_688\n      jump\t// in\n        /* \"#utility.yul\":13299:13643   */\n    tag_313:\n        /* \"#utility.yul\":13501:13503   */\n      0x20\n        /* \"#utility.yul\":13483:13504   */\n      dup1\n      dup3\n      mstore\n        /* \"#utility.yul\":13540:13542   */\n      0x14\n        /* \"#utility.yul\":13520:13538   */\n      swap1\n      dup3\n      add\n        /* \"#utility.yul\":13513:13543   */\n      mstore\n      shl(0x62, 0x1bdc99195c88191bd95cc81b9bdd08195e1a5cdd)\n        /* \"#utility.yul\":13574:13576   */\n      0x40\n        /* \"#utility.yul\":13559:13577   */\n      dup3\n      add\n        /* \"#utility.yul\":13552:13602   */\n      mstore\n        /* \"#utility.yul\":13634:13636   */\n      0x60\n        /* \"#utility.yul\":13619:13637   */\n      add\n      swap1\n        /* \"#utility.yul\":13473:13643   */\n      jump\t// out\n        /* \"#utility.yul\":13648:14050   */\n    tag_355:\n        /* \"#utility.yul\":13850:13852   */\n      0x20\n        /* \"#utility.yul\":13832:13853   */\n      dup1\n      dup3\n      mstore\n        /* \"#utility.yul\":13889:13891   */\n      0x26\n        /* \"#utility.yul\":13869:13887   */\n      swap1\n      dup3\n      add\n        /* \"#utility.yul\":13862:13892   */\n      mstore\n        /* \"#utility.yul\":13928:13962   */\n      0x4f776e61626c653a206e6577206f776e657220697320746865207a65726f2061\n        /* \"#utility.yul\":13923:13925   */\n      0x40\n        /* \"#utility.yul\":13908:13926   */\n      dup3\n      add\n        /* \"#utility.yul\":13901:13963   */\n      mstore\n      shl(0xd0, 0x646472657373)\n        /* \"#utility.yul\":13994:13996   */\n      0x60\n        /* \"#utility.yul\":13979:13997   */\n      dup3\n      add\n        /* \"#utility.yul\":13972:14008   */\n      mstore\n        /* \"#utility.yul\":14040:14043   */\n      0x80\n        /* \"#utility.yul\":14025:14044   */\n      add\n      swap1\n        /* \"#utility.yul\":13822:14050   */\n      jump\t// out\n        /* \"#utility.yul\":14055:14389   */\n    tag_226:\n        /* \"#utility.yul\":14257:14259   */\n      0x20\n        /* \"#utility.yul\":14239:14260   */\n      dup1\n      dup3\n      mstore\n        /* \"#utility.yul\":14296:14298   */\n      0x0a\n        /* \"#utility.yul\":14276:14294   */\n      swap1\n      dup3\n      add\n        /* \"#utility.yul\":14269:14299   */\n      mstore\n      shl(0xb1, 0x37b930b1b6329032b939)\n        /* \"#utility.yul\":14330:14332   */\n      0x40\n        /* \"#utility.yul\":14315:14333   */\n      dup3\n      add\n        /* \"#utility.yul\":14308:14348   */\n      mstore\n        /* \"#utility.yul\":14380:14382   */\n      0x60\n        /* \"#utility.yul\":14365:14383   */\n      add\n      swap1\n        /* \"#utility.yul\":14229:14389   */\n      jump\t// out\n        /* \"#utility.yul\":14394:14794   */\n    tag_282:\n        /* \"#utility.yul\":14596:14598   */\n      0x20\n        /* \"#utility.yul\":14578:14599   */\n      dup1\n      dup3\n      mstore\n        /* \"#utility.yul\":14635:14637   */\n      0x24\n        /* \"#utility.yul\":14615:14633   */\n      swap1\n      dup3\n      add\n        /* \"#utility.yul\":14608:14638   */\n      mstore\n        /* \"#utility.yul\":14674:14708   */\n      0x6578656375746f723a2063616c6c6572206973206e6f74207468652065786563\n        /* \"#utility.yul\":14669:14671   */\n      0x40\n        /* \"#utility.yul\":14654:14672   */\n      dup3\n      add\n        /* \"#utility.yul\":14647:14709   */\n      mstore\n      shl(0xe1, 0x3aba37b9)\n        /* \"#utility.yul\":14740:14742   */\n      0x60\n        /* \"#utility.yul\":14725:14743   */\n      dup3\n      add\n        /* \"#utility.yul\":14718:14752   */\n      mstore\n        /* \"#utility.yul\":14784:14787   */\n      0x80\n        /* \"#utility.yul\":14769:14788   */\n      add\n      swap1\n        /* \"#utility.yul\":14568:14794   */\n      jump\t// out\n        /* \"#utility.yul\":14799:15201   */\n    tag_560:\n        /* \"#utility.yul\":15001:15003   */\n      0x20\n        /* \"#utility.yul\":14983:15004   */\n      dup1\n      dup3\n      mstore\n        /* \"#utility.yul\":15040:15042   */\n      0x26\n        /* \"#utility.yul\":15020:15038   */\n      swap1\n      dup3\n      add\n        /* \"#utility.yul\":15013:15043   */\n      mstore\n        /* \"#utility.yul\":15079:15113   */\n      0x416464726573733a20696e73756666696369656e742062616c616e636520666f\n        /* \"#utility.yul\":15074:15076   */\n      0x40\n        /* \"#utility.yul\":15059:15077   */\n      dup3\n      add\n        /* \"#utility.yul\":15052:15114   */\n      mstore\n      shl(0xd2, 0x1c8818d85b1b)\n        /* \"#utility.yul\":15145:15147   */\n      0x60\n        /* \"#utility.yul\":15130:15148   */\n      dup3\n      add\n        /* \"#utility.yul\":15123:15159   */\n      mstore\n        /* \"#utility.yul\":15191:15194   */\n      0x80\n        /* \"#utility.yul\":15176:15195   */\n      add\n      swap1\n        /* \"#utility.yul\":14973:15201   */\n      jump\t// out\n        /* \"#utility.yul\":15206:15616   */\n    tag_361:\n        /* \"#utility.yul\":15408:15410   */\n      0x20\n        /* \"#utility.yul\":15390:15411   */\n      dup1\n      dup3\n      mstore\n        /* \"#utility.yul\":15447:15449   */\n      0x2e\n        /* \"#utility.yul\":15427:15445   */\n      swap1\n      dup3\n      add\n        /* \"#utility.yul\":15420:15450   */\n      mstore\n        /* \"#utility.yul\":15486:15520   */\n      0x496e697469616c697a61626c653a20636f6e747261637420697320616c726561\n        /* \"#utility.yul\":15481:15483   */\n      0x40\n        /* \"#utility.yul\":15466:15484   */\n      dup3\n      add\n        /* \"#utility.yul\":15459:15521   */\n      mstore\n      shl(0x92, 0x191e481a5b9a5d1a585b1a5e9959)\n        /* \"#utility.yul\":15552:15554   */\n      0x60\n        /* \"#utility.yul\":15537:15555   */\n      dup3\n      add\n        /* \"#utility.yul\":15530:15574   */\n      mstore\n        /* \"#utility.yul\":15606:15609   */\n      0x80\n        /* \"#utility.yul\":15591:15610   */\n      add\n      swap1\n        /* \"#utility.yul\":15380:15616   */\n      jump\t// out\n        /* \"#utility.yul\":15621:16020   */\n    tag_231:\n        /* \"#utility.yul\":15823:15825   */\n      0x20\n        /* \"#utility.yul\":15805:15826   */\n      dup1\n      dup3\n      mstore\n        /* \"#utility.yul\":15862:15864   */\n      0x23\n        /* \"#utility.yul\":15842:15860   */\n      swap1\n      dup3\n      add\n        /* \"#utility.yul\":15835:15865   */\n      mstore\n        /* \"#utility.yul\":15901:15935   */\n      0x546865207472616e73616374696f6e20616d6f756e7420697320746f6f20736d\n        /* \"#utility.yul\":15896:15898   */\n      0x40\n        /* \"#utility.yul\":15881:15899   */\n      dup3\n      add\n        /* \"#utility.yul\":15874:15936   */\n      mstore\n      shl(0xea, 0x185b1b)\n        /* \"#utility.yul\":15967:15969   */\n      0x60\n        /* \"#utility.yul\":15952:15970   */\n      dup3\n      add\n        /* \"#utility.yul\":15945:15978   */\n      mstore\n        /* \"#utility.yul\":16010:16013   */\n      0x80\n        /* \"#utility.yul\":15995:16014   */\n      add\n      swap1\n        /* \"#utility.yul\":15795:16020   */\n      jump\t// out\n        /* \"#utility.yul\":16025:16365   */\n    tag_326:\n        /* \"#utility.yul\":16227:16229   */\n      0x20\n        /* \"#utility.yul\":16209:16230   */\n      dup1\n      dup3\n      mstore\n        /* \"#utility.yul\":16266:16268   */\n      0x10\n        /* \"#utility.yul\":16246:16264   */\n      swap1\n      dup3\n      add\n        /* \"#utility.yul\":16239:16269   */\n      mstore\n      shl(0x82, 0x155cd95c881a5cc818985b9adc9d5c1d)\n        /* \"#utility.yul\":16300:16302   */\n      0x40\n        /* \"#utility.yul\":16285:16303   */\n      dup3\n      add\n        /* \"#utility.yul\":16278:16324   */\n      mstore\n        /* \"#utility.yul\":16356:16358   */\n      0x60\n        /* \"#utility.yul\":16341:16359   */\n      add\n      swap1\n        /* \"#utility.yul\":16199:16365   */\n      jump\t// out\n        /* \"#utility.yul\":16370:16726   */\n    tag_211:\n        /* \"#utility.yul\":16572:16574   */\n      0x20\n        /* \"#utility.yul\":16554:16575   */\n      dup1\n      dup3\n      mstore\n        /* \"#utility.yul\":16591:16609   */\n      dup2\n      dup2\n      add\n        /* \"#utility.yul\":16584:16614   */\n      mstore\n        /* \"#utility.yul\":16650:16684   */\n      0x4f776e61626c653a2063616c6c6572206973206e6f7420746865206f776e6572\n        /* \"#utility.yul\":16645:16647   */\n      0x40\n        /* \"#utility.yul\":16630:16648   */\n      dup3\n      add\n        /* \"#utility.yul\":16623:16685   */\n      mstore\n        /* \"#utility.yul\":16717:16719   */\n      0x60\n        /* \"#utility.yul\":16702:16720   */\n      add\n      swap1\n        /* \"#utility.yul\":16544:16726   */\n      jump\t// out\n        /* \"#utility.yul\":16731:17084   */\n    tag_565:\n        /* \"#utility.yul\":16933:16935   */\n      0x20\n        /* \"#utility.yul\":16915:16936   */\n      dup1\n      dup3\n      mstore\n        /* \"#utility.yul\":16972:16974   */\n      0x1d\n        /* \"#utility.yul\":16952:16970   */\n      swap1\n      dup3\n      add\n        /* \"#utility.yul\":16945:16975   */\n      mstore\n        /* \"#utility.yul\":17011:17042   */\n      0x416464726573733a2063616c6c20746f206e6f6e2d636f6e7472616374000000\n        /* \"#utility.yul\":17006:17008   */\n      0x40\n        /* \"#utility.yul\":16991:17009   */\n      dup3\n      add\n        /* \"#utility.yul\":16984:17043   */\n      mstore\n        /* \"#utility.yul\":17075:17077   */\n      0x60\n        /* \"#utility.yul\":17060:17078   */\n      add\n      swap1\n        /* \"#utility.yul\":16905:17084   */\n      jump\t// out\n        /* \"#utility.yul\":17089:17423   */\n    tag_189:\n        /* \"#utility.yul\":17291:17293   */\n      0x20\n        /* \"#utility.yul\":17273:17294   */\n      dup1\n      dup3\n      mstore\n        /* \"#utility.yul\":17330:17332   */\n      0x0a\n        /* \"#utility.yul\":17310:17328   */\n      swap1\n      dup3\n      add\n        /* \"#utility.yul\":17303:17333   */\n      mstore\n      shl(0xb1, 0x3632b733ba341032b939)\n        /* \"#utility.yul\":17364:17366   */\n      0x40\n        /* \"#utility.yul\":17349:17367   */\n      dup3\n      add\n        /* \"#utility.yul\":17342:17382   */\n      mstore\n        /* \"#utility.yul\":17414:17416   */\n      0x60\n        /* \"#utility.yul\":17399:17417   */\n      add\n      swap1\n        /* \"#utility.yul\":17263:17423   */\n      jump\t// out\n        /* \"#utility.yul\":17428:17759   */\n    tag_330:\n        /* \"#utility.yul\":17630:17632   */\n      0x20\n        /* \"#utility.yul\":17612:17633   */\n      dup1\n      dup3\n      mstore\n        /* \"#utility.yul\":17669:17670   */\n      0x08\n        /* \"#utility.yul\":17649:17667   */\n      swap1\n      dup3\n      add\n        /* \"#utility.yul\":17642:17671   */\n      mstore\n      shl(0xc1, 0x3ab9b2b91032b939)\n        /* \"#utility.yul\":17702:17704   */\n      0x40\n        /* \"#utility.yul\":17687:17705   */\n      dup3\n      add\n        /* \"#utility.yul\":17680:17718   */\n      mstore\n        /* \"#utility.yul\":17750:17752   */\n      0x60\n        /* \"#utility.yul\":17735:17753   */\n      add\n      swap1\n        /* \"#utility.yul\":17602:17759   */\n      jump\t// out\n        /* \"#utility.yul\":17764:18096   */\n    tag_216:\n        /* \"#utility.yul\":17966:17968   */\n      0x20\n        /* \"#utility.yul\":17948:17969   */\n      dup1\n      dup3\n      mstore\n        /* \"#utility.yul\":18005:18006   */\n      0x09\n        /* \"#utility.yul\":17985:18003   */\n      swap1\n      dup3\n      add\n        /* \"#utility.yul\":17978:18007   */\n      mstore\n      shl(0xb9, 0x39ba30ba329032b939)\n        /* \"#utility.yul\":18038:18040   */\n      0x40\n        /* \"#utility.yul\":18023:18041   */\n      dup3\n      add\n        /* \"#utility.yul\":18016:18055   */\n      mstore\n        /* \"#utility.yul\":18087:18089   */\n      0x60\n        /* \"#utility.yul\":18072:18090   */\n      add\n      swap1\n        /* \"#utility.yul\":17938:18096   */\n      jump\t// out\n        /* \"#utility.yul\":18101:18507   */\n    tag_525:\n        /* \"#utility.yul\":18303:18305   */\n      0x20\n        /* \"#utility.yul\":18285:18306   */\n      dup1\n      dup3\n      mstore\n        /* \"#utility.yul\":18342:18344   */\n      0x2a\n        /* \"#utility.yul\":18322:18340   */\n      swap1\n      dup3\n      add\n        /* \"#utility.yul\":18315:18345   */\n      mstore\n        /* \"#utility.yul\":18381:18415   */\n      0x5361666545524332303a204552433230206f7065726174696f6e20646964206e\n        /* \"#utility.yul\":18376:18378   */\n      0x40\n        /* \"#utility.yul\":18361:18379   */\n      dup3\n      add\n        /* \"#utility.yul\":18354:18416   */\n      mstore\n      shl(0xb2, 0x1bdd081cdd58d8d95959)\n        /* \"#utility.yul\":18447:18449   */\n      0x60\n        /* \"#utility.yul\":18432:18450   */\n      dup3\n      add\n        /* \"#utility.yul\":18425:18465   */\n      mstore\n        /* \"#utility.yul\":18497:18500   */\n      0x80\n        /* \"#utility.yul\":18482:18501   */\n      add\n      swap1\n        /* \"#utility.yul\":18275:18507   */\n      jump\t// out\n        /* \"#utility.yul\":18512:19650   */\n    tag_89:\n      0x00\n        /* \"#utility.yul\":18695:18697   */\n      0x20\n        /* \"#utility.yul\":18684:18693   */\n      dup3\n        /* \"#utility.yul\":18677:18698   */\n      mstore\n        /* \"#utility.yul\":18707:18762   */\n      tag_722\n        /* \"#utility.yul\":18758:18760   */\n      0x20\n        /* \"#utility.yul\":18747:18756   */\n      dup4\n        /* \"#utility.yul\":18743:18761   */\n      add\n        /* \"#utility.yul\":18734:18740   */\n      dup5\n        /* \"#utility.yul\":18728:18741   */\n      mload\n        /* \"#utility.yul\":18707:18762   */\n      tag_686\n      jump\t// in\n    tag_722:\n        /* \"#utility.yul\":18816:18818   */\n      0x20\n        /* \"#utility.yul\":18808:18814   */\n      dup4\n        /* \"#utility.yul\":18804:18819   */\n      add\n        /* \"#utility.yul\":18798:18820   */\n      mload\n        /* \"#utility.yul\":18793:18795   */\n      0x40\n        /* \"#utility.yul\":18782:18791   */\n      dup4\n        /* \"#utility.yul\":18778:18796   */\n      add\n        /* \"#utility.yul\":18771:18821   */\n      mstore\n        /* \"#utility.yul\":18868:18870   */\n      0x40\n        /* \"#utility.yul\":18860:18866   */\n      dup4\n        /* \"#utility.yul\":18856:18871   */\n      add\n        /* \"#utility.yul\":18850:18872   */\n      mload\n        /* \"#utility.yul\":18891:18897   */\n      0x0160\n        /* \"#utility.yul\":18933:18935   */\n      dup1\n        /* \"#utility.yul\":18928:18930   */\n      0x60\n        /* \"#utility.yul\":18917:18926   */\n      dup6\n        /* \"#utility.yul\":18913:18931   */\n      add\n        /* \"#utility.yul\":18906:18936   */\n      mstore\n        /* \"#utility.yul\":18959:19012   */\n      tag_723\n        /* \"#utility.yul\":19007:19010   */\n      0x0180\n        /* \"#utility.yul\":18996:19005   */\n      dup6\n        /* \"#utility.yul\":18992:19011   */\n      add\n        /* \"#utility.yul\":18978:18990   */\n      dup4\n        /* \"#utility.yul\":18959:19012   */\n      tag_688\n      jump\t// in\n    tag_723:\n        /* \"#utility.yul\":18945:19012   */\n      swap2\n      pop\n        /* \"#utility.yul\":19067:19069   */\n      0x60\n        /* \"#utility.yul\":19059:19065   */\n      dup6\n        /* \"#utility.yul\":19055:19070   */\n      add\n        /* \"#utility.yul\":19049:19071   */\n      mload\n        /* \"#utility.yul\":19043:19046   */\n      0x80\n        /* \"#utility.yul\":19032:19041   */\n      dup6\n        /* \"#utility.yul\":19028:19047   */\n      add\n        /* \"#utility.yul\":19021:19072   */\n      mstore\n        /* \"#utility.yul\":19127:19130   */\n      0x80\n        /* \"#utility.yul\":19119:19125   */\n      dup6\n        /* \"#utility.yul\":19115:19131   */\n      add\n        /* \"#utility.yul\":19109:19132   */\n      mload\n        /* \"#utility.yul\":19103:19106   */\n      0xa0\n        /* \"#utility.yul\":19092:19101   */\n      dup6\n        /* \"#utility.yul\":19088:19107   */\n      add\n        /* \"#utility.yul\":19081:19133   */\n      mstore\n        /* \"#utility.yul\":19188:19191   */\n      0xa0\n        /* \"#utility.yul\":19180:19186   */\n      dup6\n        /* \"#utility.yul\":19176:19192   */\n      add\n        /* \"#utility.yul\":19170:19193   */\n      mload\n        /* \"#utility.yul\":19164:19167   */\n      0xc0\n        /* \"#utility.yul\":19153:19162   */\n      dup6\n        /* \"#utility.yul\":19149:19168   */\n      add\n        /* \"#utility.yul\":19142:19194   */\n      mstore\n        /* \"#utility.yul\":19249:19252   */\n      0xc0\n        /* \"#utility.yul\":19241:19247   */\n      dup6\n        /* \"#utility.yul\":19237:19253   */\n      add\n        /* \"#utility.yul\":19231:19254   */\n      mload\n        /* \"#utility.yul\":19225:19228   */\n      0xe0\n        /* \"#utility.yul\":19214:19223   */\n      dup6\n        /* \"#utility.yul\":19210:19229   */\n      add\n        /* \"#utility.yul\":19203:19255   */\n      mstore\n        /* \"#utility.yul\":19292:19295   */\n      0xe0\n        /* \"#utility.yul\":19284:19290   */\n      dup6\n        /* \"#utility.yul\":19280:19296   */\n      add\n        /* \"#utility.yul\":19274:19297   */\n      mload\n        /* \"#utility.yul\":19316:19319   */\n      0x0100\n        /* \"#utility.yul\":19355:19357   */\n      dup2\n        /* \"#utility.yul\":19350:19352   */\n      dup2\n        /* \"#utility.yul\":19339:19348   */\n      dup8\n        /* \"#utility.yul\":19335:19353   */\n      add\n        /* \"#utility.yul\":19328:19358   */\n      mstore\n        /* \"#utility.yul\":19395:19397   */\n      dup1\n        /* \"#utility.yul\":19387:19393   */\n      dup8\n        /* \"#utility.yul\":19383:19398   */\n      add\n        /* \"#utility.yul\":19377:19399   */\n      mload\n        /* \"#utility.yul\":19367:19399   */\n      swap2\n      pop\n      pop\n        /* \"#utility.yul\":19418:19421   */\n      0x0120\n        /* \"#utility.yul\":19457:19459   */\n      dup2\n        /* \"#utility.yul\":19452:19454   */\n      dup2\n        /* \"#utility.yul\":19441:19450   */\n      dup8\n        /* \"#utility.yul\":19437:19455   */\n      add\n        /* \"#utility.yul\":19430:19460   */\n      mstore\n        /* \"#utility.yul\":19497:19499   */\n      dup1\n        /* \"#utility.yul\":19489:19495   */\n      dup8\n        /* \"#utility.yul\":19485:19500   */\n      add\n        /* \"#utility.yul\":19479:19501   */\n      mload\n        /* \"#utility.yul\":19469:19501   */\n      swap2\n      pop\n      pop\n        /* \"#utility.yul\":19520:19523   */\n      0x0140\n        /* \"#utility.yul\":19559:19561   */\n      dup2\n        /* \"#utility.yul\":19554:19556   */\n      dup2\n        /* \"#utility.yul\":19543:19552   */\n      dup8\n        /* \"#utility.yul\":19539:19557   */\n      add\n        /* \"#utility.yul\":19532:19562   */\n      mstore\n        /* \"#utility.yul\":19616:19618   */\n      dup1\n        /* \"#utility.yul\":19608:19614   */\n      dup8\n        /* \"#utility.yul\":19604:19619   */\n      add\n        /* \"#utility.yul\":19598:19620   */\n      mload\n        /* \"#utility.yul\":19593:19595   */\n      dup4\n        /* \"#utility.yul\":19582:19591   */\n      dup8\n        /* \"#utility.yul\":19578:19596   */\n      add\n        /* \"#utility.yul\":19571:19621   */\n      mstore\n      pop\n      pop\n      pop\n        /* \"#utility.yul\":19638:19644   */\n      dup1\n        /* \"#utility.yul\":19630:19644   */\n      swap2\n      pop\n      pop\n        /* \"#utility.yul\":18667:19650   */\n      swap3\n      swap2\n      pop\n      pop\n      jump\t// out\n        /* \"#utility.yul\":19655:19832   */\n    tag_52:\n        /* \"#utility.yul\":19801:19826   */\n      swap1\n      dup2\n      mstore\n        /* \"#utility.yul\":19789:19791   */\n      0x20\n        /* \"#utility.yul\":19774:19792   */\n      add\n      swap1\n        /* \"#utility.yul\":19756:19832   */\n      jump\t// out\n        /* \"#utility.yul\":19837:20364   */\n    tag_218:\n      0x00\n        /* \"#utility.yul\":20088:20094   */\n      dup6\n        /* \"#utility.yul\":20077:20086   */\n      dup3\n        /* \"#utility.yul\":20070:20095   */\n      mstore\n        /* \"#utility.yul\":20131:20137   */\n      dup5\n        /* \"#utility.yul\":20126:20128   */\n      0x20\n        /* \"#utility.yul\":20115:20124   */\n      dup4\n        /* \"#utility.yul\":20111:20129   */\n      add\n        /* \"#utility.yul\":20104:20138   */\n      mstore\n        /* \"#utility.yul\":20174:20177   */\n      0x80\n        /* \"#utility.yul\":20169:20171   */\n      0x40\n        /* \"#utility.yul\":20158:20167   */\n      dup4\n        /* \"#utility.yul\":20154:20172   */\n      add\n        /* \"#utility.yul\":20147:20178   */\n      mstore\n        /* \"#utility.yul\":20201:20248   */\n      tag_726\n        /* \"#utility.yul\":20243:20246   */\n      0x80\n        /* \"#utility.yul\":20232:20241   */\n      dup4\n        /* \"#utility.yul\":20228:20247   */\n      add\n        /* \"#utility.yul\":20220:20226   */\n      dup6\n        /* \"#utility.yul\":20201:20248   */\n      tag_688\n      jump\t// in\n    tag_726:\n        /* \"#utility.yul\":20296:20305   */\n      dup3\n        /* \"#utility.yul\":20288:20294   */\n      dup2\n        /* \"#utility.yul\":20284:20306   */\n      sub\n        /* \"#utility.yul\":20279:20281   */\n      0x60\n        /* \"#utility.yul\":20268:20277   */\n      dup5\n        /* \"#utility.yul\":20264:20282   */\n      add\n        /* \"#utility.yul\":20257:20307   */\n      mstore\n        /* \"#utility.yul\":20324:20358   */\n      tag_331\n        /* \"#utility.yul\":20351:20357   */\n      dup2\n        /* \"#utility.yul\":20343:20349   */\n      dup6\n        /* \"#utility.yul\":20324:20358   */\n      tag_688\n      jump\t// in\n        /* \"#utility.yul\":20369:20620   */\n    tag_602:\n        /* \"#utility.yul\":20439:20441   */\n      0x40\n        /* \"#utility.yul\":20433:20442   */\n      mload\n        /* \"#utility.yul\":20469:20486   */\n      dup2\n      dup2\n      add\n        /* \"#utility.yul\":20516:20534   */\n      0xffffffffffffffff\n        /* \"#utility.yul\":20501:20535   */\n      dup2\n      gt\n        /* \"#utility.yul\":20537:20559   */\n      dup3\n      dup3\n      lt\n        /* \"#utility.yul\":20498:20560   */\n      or\n        /* \"#utility.yul\":20495:20497   */\n      iszero\n      tag_730\n      jumpi\n        /* \"#utility.yul\":20563:20581   */\n      tag_730\n      tag_621\n      jump\t// in\n    tag_730:\n        /* \"#utility.yul\":20599:20601   */\n      0x40\n        /* \"#utility.yul\":20592:20614   */\n      mstore\n        /* \"#utility.yul\":20413:20620   */\n      swap2\n      swap1\n      pop\n      jump\t// out\n        /* \"#utility.yul\":20625:20815   */\n    tag_601:\n      0x00\n        /* \"#utility.yul\":20722:20740   */\n      0xffffffffffffffff\n        /* \"#utility.yul\":20714:20720   */\n      dup3\n        /* \"#utility.yul\":20711:20741   */\n      gt\n        /* \"#utility.yul\":20708:20710   */\n      iszero\n      tag_733\n      jumpi\n        /* \"#utility.yul\":20744:20762   */\n      tag_733\n      tag_621\n      jump\t// in\n    tag_733:\n      pop\n        /* \"#utility.yul\":20804:20808   */\n      0x20\n        /* \"#utility.yul\":20785:20802   */\n      swap1\n      dup2\n      mul\n        /* \"#utility.yul\":20781:20809   */\n      add\n      swap1\n        /* \"#utility.yul\":20698:20815   */\n      jump\t// out\n        /* \"#utility.yul\":20820:20948   */\n    tag_200:\n      0x00\n        /* \"#utility.yul\":20891:20892   */\n      dup3\n        /* \"#utility.yul\":20887:20893   */\n      not\n        /* \"#utility.yul\":20884:20885   */\n      dup3\n        /* \"#utility.yul\":20881:20894   */\n      gt\n        /* \"#utility.yul\":20878:20880   */\n      iszero\n      tag_736\n      jumpi\n        /* \"#utility.yul\":20897:20915   */\n      tag_736\n      tag_737\n      jump\t// in\n    tag_736:\n      pop\n        /* \"#utility.yul\":20933:20942   */\n      add\n      swap1\n        /* \"#utility.yul\":20868:20948   */\n      jump\t// out\n        /* \"#utility.yul\":20953:21170   */\n    tag_384:\n      0x00\n        /* \"#utility.yul\":21019:21020   */\n      dup3\n        /* \"#utility.yul\":21009:21011   */\n      tag_739\n      jumpi\n      shl(0xe0, 0x4e487b71)\n        /* \"#utility.yul\":21044:21075   */\n      dup2\n      mstore\n        /* \"#utility.yul\":21098:21102   */\n      0x12\n        /* \"#utility.yul\":21095:21096   */\n      0x04\n        /* \"#utility.yul\":21088:21103   */\n      mstore\n        /* \"#utility.yul\":21126:21130   */\n      0x24\n        /* \"#utility.yul\":21051:21052   */\n      dup2\n        /* \"#utility.yul\":21116:21131   */\n      revert\n        /* \"#utility.yul\":21009:21011   */\n    tag_739:\n      pop\n        /* \"#utility.yul\":21155:21164   */\n      div\n      swap1\n        /* \"#utility.yul\":20999:21170   */\n      jump\t// out\n        /* \"#utility.yul\":21175:21343   */\n    tag_186:\n      0x00\n        /* \"#utility.yul\":21281:21282   */\n      dup2\n        /* \"#utility.yul\":21277:21278   */\n      0x00\n        /* \"#utility.yul\":21273:21279   */\n      not\n        /* \"#utility.yul\":21269:21283   */\n      div\n        /* \"#utility.yul\":21266:21267   */\n      dup4\n        /* \"#utility.yul\":21263:21284   */\n      gt\n        /* \"#utility.yul\":21258:21259   */\n      dup3\n        /* \"#utility.yul\":21251:21260   */\n      iszero\n        /* \"#utility.yul\":21244:21261   */\n      iszero\n        /* \"#utility.yul\":21240:21285   */\n      and\n        /* \"#utility.yul\":21237:21239   */\n      iszero\n      tag_742\n      jumpi\n        /* \"#utility.yul\":21288:21306   */\n      tag_742\n      tag_737\n      jump\t// in\n    tag_742:\n      pop\n        /* \"#utility.yul\":21328:21337   */\n      mul\n      swap1\n        /* \"#utility.yul\":21227:21343   */\n      jump\t// out\n        /* \"#utility.yul\":21348:21473   */\n    tag_195:\n      0x00\n        /* \"#utility.yul\":21416:21417   */\n      dup3\n        /* \"#utility.yul\":21413:21414   */\n      dup3\n        /* \"#utility.yul\":21410:21418   */\n      lt\n        /* \"#utility.yul\":21407:21409   */\n      iszero\n      tag_745\n      jumpi\n        /* \"#utility.yul\":21421:21439   */\n      tag_745\n      tag_737\n      jump\t// in\n    tag_745:\n      pop\n        /* \"#utility.yul\":21458:21467   */\n      sub\n      swap1\n        /* \"#utility.yul\":21397:21473   */\n      jump\t// out\n        /* \"#utility.yul\":21478:21736   */\n    tag_691:\n        /* \"#utility.yul\":21550:21551   */\n      0x00\n        /* \"#utility.yul\":21560:21673   */\n    tag_747:\n        /* \"#utility.yul\":21574:21580   */\n      dup4\n        /* \"#utility.yul\":21571:21572   */\n      dup2\n        /* \"#utility.yul\":21568:21581   */\n      lt\n        /* \"#utility.yul\":21560:21673   */\n      iszero\n      tag_749\n      jumpi\n        /* \"#utility.yul\":21650:21661   */\n      dup2\n      dup2\n      add\n        /* \"#utility.yul\":21644:21662   */\n      mload\n        /* \"#utility.yul\":21631:21642   */\n      dup4\n      dup3\n      add\n        /* \"#utility.yul\":21624:21663   */\n      mstore\n        /* \"#utility.yul\":21596:21598   */\n      0x20\n        /* \"#utility.yul\":21589:21599   */\n      add\n        /* \"#utility.yul\":21560:21673   */\n      jump(tag_747)\n    tag_749:\n        /* \"#utility.yul\":21691:21697   */\n      dup4\n        /* \"#utility.yul\":21688:21689   */\n      dup2\n        /* \"#utility.yul\":21685:21698   */\n      gt\n        /* \"#utility.yul\":21682:21684   */\n      iszero\n      tag_378\n      jumpi\n      pop\n      pop\n        /* \"#utility.yul\":21726:21727   */\n      0x00\n        /* \"#utility.yul\":21708:21724   */\n      swap2\n      add\n        /* \"#utility.yul\":21701:21728   */\n      mstore\n        /* \"#utility.yul\":21531:21736   */\n      jump\t// out\n        /* \"#utility.yul\":21741:22121   */\n    tag_268:\n        /* \"#utility.yul\":21826:21827   */\n      0x02\n        /* \"#utility.yul\":21816:21828   */\n      dup2\n      div\n        /* \"#utility.yul\":21873:21874   */\n      0x01\n        /* \"#utility.yul\":21863:21875   */\n      dup3\n      and\n      dup1\n        /* \"#utility.yul\":21884:21886   */\n      tag_752\n      jumpi\n        /* \"#utility.yul\":21938:21942   */\n      0x7f\n        /* \"#utility.yul\":21930:21936   */\n      dup3\n        /* \"#utility.yul\":21926:21943   */\n      and\n        /* \"#utility.yul\":21916:21943   */\n      swap2\n      pop\n        /* \"#utility.yul\":21884:21886   */\n    tag_752:\n        /* \"#utility.yul\":21991:21993   */\n      0x20\n        /* \"#utility.yul\":21983:21989   */\n      dup3\n        /* \"#utility.yul\":21980:21994   */\n      lt\n        /* \"#utility.yul\":21960:21978   */\n      dup2\n        /* \"#utility.yul\":21957:21995   */\n      eq\n        /* \"#utility.yul\":21954:21956   */\n      iszero\n      tag_753\n      jumpi\n        /* \"#utility.yul\":22037:22047   */\n      0x4e487b71\n        /* \"#utility.yul\":22032:22035   */\n      0xe0\n        /* \"#utility.yul\":22028:22048   */\n      shl\n        /* \"#utility.yul\":22025:22026   */\n      0x00\n        /* \"#utility.yul\":22018:22049   */\n      mstore\n        /* \"#utility.yul\":22072:22076   */\n      0x22\n        /* \"#utility.yul\":22069:22070   */\n      0x04\n        /* \"#utility.yul\":22062:22077   */\n      mstore\n        /* \"#utility.yul\":22100:22104   */\n      0x24\n        /* \"#utility.yul\":22097:22098   */\n      0x00\n        /* \"#utility.yul\":22090:22105   */\n      revert\n        /* \"#utility.yul\":21954:21956   */\n    tag_753:\n      pop\n        /* \"#utility.yul\":21796:22121   */\n      swap2\n      swap1\n      pop\n      jump\t// out\n        /* \"#utility.yul\":22126:22261   */\n    tag_202:\n      0x00\n      not(0x00)\n        /* \"#utility.yul\":22186:22203   */\n      dup3\n      eq\n        /* \"#utility.yul\":22183:22185   */\n      iszero\n      tag_756\n      jumpi\n        /* \"#utility.yul\":22206:22224   */\n      tag_756\n      tag_737\n      jump\t// in\n    tag_756:\n      pop\n        /* \"#utility.yul\":22253:22254   */\n      0x01\n        /* \"#utility.yul\":22242:22255   */\n      add\n      swap1\n        /* \"#utility.yul\":22173:22261   */\n      jump\t// out\n        /* \"#utility.yul\":22266:22393   */\n    tag_737:\n        /* \"#utility.yul\":22327:22337   */\n      0x4e487b71\n        /* \"#utility.yul\":22322:22325   */\n      0xe0\n        /* \"#utility.yul\":22318:22338   */\n      shl\n        /* \"#utility.yul\":22315:22316   */\n      0x00\n        /* \"#utility.yul\":22308:22339   */\n      mstore\n        /* \"#utility.yul\":22358:22362   */\n      0x11\n        /* \"#utility.yul\":22355:22356   */\n      0x04\n        /* \"#utility.yul\":22348:22363   */\n      mstore\n        /* \"#utility.yul\":22382:22386   */\n      0x24\n        /* \"#utility.yul\":22379:22380   */\n      0x00\n        /* \"#utility.yul\":22372:22387   */\n      revert\n        /* \"#utility.yul\":22398:22525   */\n    tag_621:\n        /* \"#utility.yul\":22459:22469   */\n      0x4e487b71\n        /* \"#utility.yul\":22454:22457   */\n      0xe0\n        /* \"#utility.yul\":22450:22470   */\n      shl\n        /* \"#utility.yul\":22447:22448   */\n      0x00\n        /* \"#utility.yul\":22440:22471   */\n      mstore\n        /* \"#utility.yul\":22490:22494   */\n      0x41\n        /* \"#utility.yul\":22487:22488   */\n      0x04\n        /* \"#utility.yul\":22480:22495   */\n      mstore\n        /* \"#utility.yul\":22514:22518   */\n      0x24\n        /* \"#utility.yul\":22511:22512   */\n      0x00\n        /* \"#utility.yul\":22504:22519   */\n      revert\n        /* \"#utility.yul\":22530:22663   */\n    tag_595:\n      sub(shl(0xa0, 0x01), 0x01)\n        /* \"#utility.yul\":22607:22638   */\n      dup2\n      and\n        /* \"#utility.yul\":22597:22639   */\n      dup2\n      eq\n        /* \"#utility.yul\":22587:22589   */\n      tag_356\n      jumpi\n        /* \"#utility.yul\":22653:22654   */\n      0x00\n        /* \"#utility.yul\":22650:22651   */\n      dup1\n        /* \"#utility.yul\":22643:22655   */\n      revert\n        /* \"#utility.yul\":22668:22788   */\n    tag_631:\n        /* \"#utility.yul\":22756:22761   */\n      dup1\n        /* \"#utility.yul\":22749:22762   */\n      iszero\n        /* \"#utility.yul\":22742:22763   */\n      iszero\n        /* \"#utility.yul\":22735:22740   */\n      dup2\n        /* \"#utility.yul\":22732:22764   */\n      eq\n        /* \"#utility.yul\":22722:22724   */\n      tag_356\n      jumpi\n        /* \"#utility.yul\":22778:22779   */\n      0x00\n        /* \"#utility.yul\":22775:22776   */\n      dup1\n        /* \"#utility.yul\":22768:22780   */\n      revert\n\n    auxdata: 0xa2646970667358221220d1f4aa8194a499e9a2564d36e113c72868582d5da8d020dee14d6620871319d864736f6c63430008000033\n}\n",
				"bytecode": {
					"linkReferences": {},
					"object": "608060405234801561001057600080fd5b50613011806100206000396000f3fe608060405234801561001057600080fd5b50600436106101e55760003560e01c80637fd6f15c1161010f578063e4e95520116100a2578063f2fde38b11610071578063f2fde38b146103d4578063f7ab69fd146103e7578063f8c8765e146103ef578063fc234d0614610402576101e5565b8063e4e9552014610393578063ec4c4f34146103a6578063f0c765e4146103b9578063f14053ad146103cc576101e5565b8063a80c3cd3116100de578063a80c3cd314610352578063aaf5eb6814610365578063aecf77b11461036d578063c2ec527d14610380576101e5565b80637fd6f15c1461031c5780638da5cb5b1461032457806399315ccf1461032c578063a17397db1461033f576101e5565b8063475b4fd3116101875780636dbe9624116101565780636dbe9624146102e4578063715018a6146102f75780637be3a1a1146103015780637dc0d1d014610314576101e5565b8063475b4fd31461028b57806348c7e5281461029e5780636ab34a4a146102b15780636c19e783146102d1576101e5565b80631e64610c116101c35780631e64610c14610253578063238ac933146102685780633011d3d51461027057806343b1f3cb14610278576101e5565b8063080270a8146101ea5780630f58d242146102135780631e1bff3f14610233575b600080fd5b6101fd6101f83660046125e7565b610415565b60405161020a9190612a12565b60405180910390f35b610226610221366004612709565b610689565b60405161020a9190612e14565b610246610241366004612529565b6106aa565b60405161020a9190612a56565b61025b61071a565b60405161020a91906129c1565b61025b610729565b61025b610738565b610226610286366004612709565b610747565b6102466102993660046128db565b610759565b6102466102ac36600461250d565b610b6f565b6102c46102bf366004612709565b610b84565b60405161020a9190612d70565b6102466102df36600461250d565b610cb1565b6102466102f2366004612621565b610d17565b6102ff610eef565b005b61022661030f3660046125bc565b610f3a565b61025b610f57565b610226610f66565b61025b610f6c565b61024661033a366004612855565b610f7b565b61024661034d3660046127e4565b6110b0565b6102466103603660046127e4565b611102565b61022661114f565b6101fd61037b36600461250d565b611155565b61022661038e3660046125bc565b6111c1565b6101fd6103a136600461250d565b6111f2565b6102266103b43660046125bc565b61125c565b6102266103c73660046125bc565b611278565b610226611295565b6102ff6103e236600461250d565b61129b565b61022661130c565b6102ff6103fd366004612561565b611312565b610246610410366004612739565b6113ef565b606060008267ffffffffffffffff81111561044057634e487b7160e01b600052604160045260246000fd5b604051908082528060200260200182016040528015610469578160200160208202803683370190505b50905060006060866104cd57606c8054806020026020016040519081016040528092919081815260200182805480156104c157602002820191906000526020600020905b8154815260200190600101908083116104ad575b505050505090506105ad565b866001141561053e576001600160a01b0388166000908152606e6020908152604091829020805483518184028101840190945280845290918301828280156104c157602002820191906000526020600020908154815260200190600101908083116104ad57505050505090506105ad565b86600214156105ad576001600160a01b038816600090815260706020908152604091829020805483518184028101840190945280845290918301828280156105a557602002820191906000526020600020905b815481526020019060010190808311610591575b505050505090505b80516105b98688612ed4565b116105df5760405162461bcd60e51b81526004016105d690612cbd565b60405180910390fd5b6000856105ec8189612ed4565b6105f69190612ef3565b90505b6106038688612ed4565b81101561067c5781818151811061062a57634e487b7160e01b600052603260045260246000fd5b602002602001015184848151811061065257634e487b7160e01b600052603260045260246000fd5b6020908102919091010152610668836001612e9c565b92508061067481612f71565b9150506105f9565b5091979650505050505050565b606c818154811061069957600080fd5b600091825260209091200154905081565b60006106b4611554565b6001600160a01b03166106c5610f6c565b6001600160a01b0316146106eb5760405162461bcd60e51b81526004016105d690612c51565b506001600160a01b0382166000908152606560205260409020805482151560ff19909116179055600192915050565b6068546001600160a01b031681565b6066546001600160a01b031681565b6067546001600160a01b031681565b606d6020526000908152604090205481565b606b546000908152606a6020526040812060038101541561078c5760405162461bcd60e51b81526004016105d690612d03565b6069546040516381952f3b60e01b81526001600160a01b03909116906381952f3b906107c29088908d908b908990600401612e1d565b60206040518083038186803b1580156107da57600080fd5b505afa1580156107ee573d6000803e3d6000fd5b505050506040513d601f19601f8201168201806040525081019061081291906126ed565b61082e5760405162461bcd60e51b81526004016105d690612ae8565b60745461083b8587611558565b116108585760405162461bcd60e51b81526004016105d690612be4565b61087b33306108678789611558565b6067546001600160a01b031692919061156b565b6067546040516370a0823160e01b81526000916001600160a01b0316906370a08231906108ac9030906004016129c1565b60206040518083038186803b1580156108c457600080fd5b505afa1580156108d8573d6000803e3d6000fd5b505050506040513d601f19601f820116820180604052508101906108fc9190612721565b9050600061092160735461091b6072548561155890919063ffffffff16565b906115c9565b606854606754919250610941916001600160a01b039081169116836115d5565b606860009054906101000a90046001600160a01b03166001600160a01b031663d10c06a26040518163ffffffff1660e01b8152600401602060405180830381600087803b15801561099157600080fd5b505af11580156109a5573d6000803e3d6000fd5b505050506040513d601f19601f820116820180604052508101906109c991906126ed565b506067546001600160a01b03166342966c686109e584846115f9565b6040518263ffffffff1660e01b8152600401610a019190612e14565b600060405180830381600087803b158015610a1b57600080fd5b505af1158015610a2f573d6000803e3d6000fd5b5050606b54606c80546001818101835560008390527f2b4a51ab505fc96a0952efda2ba61bcd3078d4c02c39a186ec16f21883fbe0169091019290925554610a79935091506115f9565b606b80546000908152606d602090815260408083209490945533808352606e8083528584208554815460018181018455838852868820909101919091559554928552606f8452958420925293549092610ad291906115f9565b815260200190815260200160002081905550606b6000815480929190610af790612f71565b909155505082546001600160a01b03191633178355600183018990558751610b2890600285019060208b01906122da565b5060016003840155600483018a905560058301879055600683018b905560098301869055610b5682826115f9565b600a909301929092555060019998505050505050505050565b60656020526000908152604090205460ff1681565b610b8c61235e565b6000828152606a602090815260409182902082516101608101845281546001600160a01b031681526001820154928101929092526002810180549293919291840191610bd790612f36565b80601f0160208091040260200160405190810160405280929190818152602001828054610c0390612f36565b8015610c505780601f10610c2557610100808354040283529160200191610c50565b820191906000526020600020905b815481529060010190602001808311610c3357829003601f168201915b5050505050815260200160038201548152602001600482015481526020016005820154815260200160068201548152602001600782015481526020016008820154815260200160098201548152602001600a8201548152505090505b919050565b6000610cbb611554565b6001600160a01b0316610ccc610f6c565b6001600160a01b031614610cf25760405162461bcd60e51b81526004016105d690612c51565b50606680546001600160a01b0383166001600160a01b03199091161790556001919050565b3360009081526065602052604081205460ff16610d465760405162461bcd60e51b81526004016105d690612b0c565b60005b8651811015610ee0576000606a6000898481518110610d7857634e487b7160e01b600052603260045260246000fd5b602002602001015181526020019081526020016000209050610ded888381518110610db357634e487b7160e01b600052603260045260246000fd5b6020026020010151868481518110610ddb57634e487b7160e01b600052603260045260246000fd5b602002602001015183600a0154611605565b610ecd57610ec48160038a8581518110610e1757634e487b7160e01b600052603260045260246000fd5b60200260200101518a8681518110610e3f57634e487b7160e01b600052603260045260246000fd5b60200260200101518a8781518110610e6757634e487b7160e01b600052603260045260246000fd5b60200260200101518a8881518110610e8f57634e487b7160e01b600052603260045260246000fd5b60200260200101518a8981518110610eb757634e487b7160e01b600052603260045260246000fd5b6020026020010151611732565b92505050610ee6565b5080610ed881612f71565b915050610d49565b50600190505b95945050505050565b610ef7611554565b6001600160a01b0316610f08610f6c565b6001600160a01b031614610f2e5760405162461bcd60e51b81526004016105d690612c51565b610f386000611e6e565b565b606f60209081526000928352604080842090915290825290205481565b6069546001600160a01b031681565b60725481565b6033546001600160a01b031690565b6000868152606a6020526040812080546001600160a01b0316610fb05760405162461bcd60e51b81526004016105d690612a74565b6002816003015410610fd45760405162461bcd60e51b81526004016105d690612d03565b6069546040516381952f3b60e01b81526001600160a01b03909116906381952f3b9061100a9088908b908b908a90600401612e1d565b60206040518083038186803b15801561102257600080fd5b505afa158015611036573d6000803e3d6000fd5b505050506040513d601f19601f8201168201806040525081019061105a91906126ed565b6110765760405162461bcd60e51b81526004016105d690612ae8565b611081888685611605565b61109d5760405162461bcd60e51b81526004016105d690612c27565b600a018290555060019695505050505050565b6000858152606a6020526040812080546001600160a01b031633146110e75760405162461bcd60e51b81526004016105d690612ce1565b6110f78160028989898989611732565b979650505050505050565b3360009081526065602052604081205460ff166111315760405162461bcd60e51b81526004016105d690612b0c565b6000868152606a602052604090206110f78160048989898989611732565b60735481565b6001600160a01b0381166000908152607060209081526040918290208054835181840281018401909452808452606093928301828280156111b557602002820191906000526020600020905b8154815260200190600101908083116111a1575b50505050509050919050565b606e60205281600052604060002081815481106111dd57600080fd5b90600052602060002001600091509150505481565b6001600160a01b0381166000908152606e60209081526040918290208054835181840281018401909452808452606093928301828280156111b557602002820191906000526020600020908154815260200190600101908083116111a15750505050509050919050565b607060205281600052604060002081815481106111dd57600080fd5b607160209081526000928352604080842090915290825290205481565b60745481565b6112a3611554565b6001600160a01b03166112b4610f6c565b6001600160a01b0316146112da5760405162461bcd60e51b81526004016105d690612c51565b6001600160a01b0381166113005760405162461bcd60e51b81526004016105d690612aa2565b61130981611e6e565b50565b606b5481565b600054610100900460ff168061132b575060005460ff16155b6113475760405162461bcd60e51b81526004016105d690612b96565b600054610100900460ff16158015611372576000805460ff1961ff0019909116610100171660011790555b61137a611ec0565b606680546001600160a01b038088166001600160a01b03199283161790925560688054878416908316179055606780548684169083161790556127106073556069805492851692909116919091179055670de0b6b3a764000060745580156113e8576000805461ff00191690555b5050505050565b60006113f9611554565b6001600160a01b031661140a610f6c565b6001600160a01b0316146114305760405162461bcd60e51b81526004016105d690612c51565b6040518061016001604052808d6001600160a01b031681526020018c81526020018b81526020018a815260200189815260200188815260200187815260200186815260200185815260200184815260200183815250606a60008f815260200190815260200160002060008201518160000160006101000a8154816001600160a01b0302191690836001600160a01b031602179055506020820151816001015560408201518160020190805190602001906114eb9291906122da565b50606082015160038201556080820151600482015560a0820151600582015560c0820151600682015560e082015160078201556101008201516008820155610120820151600982015561014090910151600a909101555060019c9b505050505050505050505050565b3390565b60006115648284612ed4565b9392505050565b6115c3846323b872dd60e01b85858560405160240161158c939291906129d5565b60408051601f198184030181529190526020810180516001600160e01b03166001600160e01b031990931692909217909152611f44565b50505050565b60006115648284612eb4565b6115f48363a9059cbb60e01b848460405160240161158c9291906129f9565b505050565b60006115648284612ef3565b6000838152606a602052604081206004810154829081908190600114156116aa5783600501548710156116a557600584015461164190886115f9565b925061165a84600901548461155890919063ffffffff16565b915061168560735461091b60725461167f8b896009015461155890919063ffffffff16565b90611558565b90506116918183612e9c565b8610156116a5576000945050505050611564565b611724565b83600501548711156117245760058401546116c69088906115f9565b92506116df84600901548461155890919063ffffffff16565b915061170460735461091b60725461167f8b896009015461155890919063ffffffff16565b90506117108183612e9c565b861015611724576000945050505050611564565b506001979650505050505050565b86546000906001600160a01b031661175c5760405162461bcd60e51b81526004016105d690612a74565b60028860030154106117805760405162461bcd60e51b81526004016105d690612d03565b6069546040516381952f3b60e01b81526001600160a01b03909116906381952f3b906117b6908690899089908890600401612e1d565b60206040518083038186803b1580156117ce57600080fd5b505afa1580156117e2573d6000803e3d6000fd5b505050506040513d601f19601f8201168201806040525081019061180691906126ed565b6118225760405162461bcd60e51b81526004016105d690612ae8565b82886007018190555060008060008a6004015460011415611b61578a600501548b6007015411156119cd5760058b015460078c0154611860916115f9565b92506118798b600901548461155890919063ffffffff16565b600a8c015490925061188b9083611fd3565b905060006118aa60735461091b6072548561155890919063ffffffff16565b6067546068546040516340c10f1960e01b81529293506001600160a01b03918216926340c10f19926118e292169085906004016129f9565b602060405180830381600087803b1580156118fc57600080fd5b505af1158015611910573d6000803e3d6000fd5b505050506040513d601f19601f8201168201806040525081019061193491906126ed565b506067548c546001600160a01b03918216916340c10f19911661195785856115f9565b6040518363ffffffff1660e01b81526004016119749291906129f9565b602060405180830381600087803b15801561198e57600080fd5b505af11580156119a2573d6000803e3d6000fd5b505050506040513d601f19601f820116820180604052508101906119c691906126ed565b5050611b5c565b60078b015460058c01546119e0916115f9565b92506119f98b600901548461155890919063ffffffff16565b91508a600a0154821115611a0f57506000611b5c565b600a8b0154611a1e90836115f9565b90506000611a3d60735461091b6072548561155890919063ffffffff16565b6067546068546040516340c10f1960e01b81529293506001600160a01b03918216926340c10f1992611a7592169085906004016129f9565b602060405180830381600087803b158015611a8f57600080fd5b505af1158015611aa3573d6000803e3d6000fd5b505050506040513d601f19601f82011682018060405250810190611ac791906126ed565b506067548c546001600160a01b03918216916340c10f199116611aea85856115f9565b6040518363ffffffff1660e01b8152600401611b079291906129f9565b602060405180830381600087803b158015611b2157600080fd5b505af1158015611b35573d6000803e3d6000fd5b505050506040513d601f19601f82011682018060405250810190611b5991906126ed565b50505b611d3e565b8a600501548b600701541015611baf5760078b015460058c0154611b84916115f9565b9250611b9d8b600901548461155890919063ffffffff16565b600a8c0154909250611a1e9083611fd3565b60058b015460078c0154611bc2916115f9565b9250611bdb8b600901548461155890919063ffffffff16565b91508a600a0154821115611bf157506000611d3e565b600a8b0154611c0090836115f9565b90506000611c1f60735461091b6072548561155890919063ffffffff16565b6067546068546040516340c10f1960e01b81529293506001600160a01b03918216926340c10f1992611c5792169085906004016129f9565b602060405180830381600087803b158015611c7157600080fd5b505af1158015611c85573d6000803e3d6000fd5b505050506040513d601f19601f82011682018060405250810190611ca991906126ed565b506067548c546001600160a01b03918216916340c10f199116611ccc85856115f9565b6040518363ffffffff1660e01b8152600401611ce99291906129f9565b602060405180830381600087803b158015611d0357600080fd5b505af1158015611d17573d6000803e3d6000fd5b505050506040513d601f19601f82011682018060405250810190611d3b91906126ed565b50505b606860009054906101000a90046001600160a01b03166001600160a01b031663d10c06a26040518163ffffffff1660e01b8152600401602060405180830381600087803b158015611d8e57600080fd5b505af1158015611da2573d6000803e3d6000fd5b505050506040513d601f19601f82011682018060405250810190611dc691906126ed565b5060038b018a905560078b0186905560088b01889055611de989606d606c611fdf565b336000908152606f60209081526040808320606e909252909120611e0e918b91611fdf565b3360008181526070602090815260408220805460018181018355828552928420018d9055929091529054611e41916115f9565b3360009081526071602090815260408083208d845290915290205550600192505050979650505050505050565b603380546001600160a01b038381166001600160a01b0319831681179093556040519116919082907f8be0079c531659141344cd1fd0a4f28419497f9722a3daafe3b4186f6b6457e090600090a35050565b600054610100900460ff1680611ed9575060005460ff16155b611ef55760405162461bcd60e51b81526004016105d690612b96565b600054610100900460ff16158015611f20576000805460ff1961ff0019909116610100171660011790555b611f286120ec565b611f3061215f565b8015611309576000805461ff001916905550565b6000611f99826040518060400160405280602081526020017f5361666545524332303a206c6f772d6c6576656c2063616c6c206661696c6564815250856001600160a01b03166121cf9092919063ffffffff16565b8051909150156115f45780806020019051810190611fb791906126ed565b6115f45760405162461bcd60e51b81526004016105d690612d26565b60006115648284612e9c565b600083815260208390526040812054825490919083906120009060016115f9565b8154811061201e57634e487b7160e01b600052603260045260246000fd5b90600052602060002001549050600083828154811061204d57634e487b7160e01b600052603260045260246000fd5b9060005260206000200154905082856000838152602001908152602001600020819055508084848154811061209257634e487b7160e01b600052603260045260246000fd5b600091825260208083209091019290925587815290869052604081205583548490806120ce57634e487b7160e01b600052603160045260246000fd5b60019003818190600052602060002001600090559055505050505050565b600054610100900460ff1680612105575060005460ff16155b6121215760405162461bcd60e51b81526004016105d690612b96565b600054610100900460ff16158015611f30576000805460ff1961ff0019909116610100171660011790558015611309576000805461ff001916905550565b600054610100900460ff1680612178575060005460ff16155b6121945760405162461bcd60e51b81526004016105d690612b96565b600054610100900460ff161580156121bf576000805460ff1961ff0019909116610100171660011790555b611f306121ca611554565b611e6e565b60606121de84846000856121e6565b949350505050565b6060824710156122085760405162461bcd60e51b81526004016105d690612b50565b6122118561229b565b61222d5760405162461bcd60e51b81526004016105d690612c86565b600080866001600160a01b0316858760405161224991906129a5565b60006040518083038185875af1925050503d8060008114612286576040519150601f19603f3d011682016040523d82523d6000602084013e61228b565b606091505b50915091506110f78282866122a1565b3b151590565b606083156122b0575081611564565b8251156122c05782518084602001fd5b8160405162461bcd60e51b81526004016105d69190612a61565b8280546122e690612f36565b90600052602060002090601f016020900481019282612308576000855561234e565b82601f1061232157805160ff191683800117855561234e565b8280016001018555821561234e579182015b8281111561234e578251825591602001919060010190612333565b5061235a9291506123c1565b5090565b60405180610160016040528060006001600160a01b03168152602001600081526020016060815260200160008152602001600081526020016000815260200160008152602001600081526020016000815260200160008152602001600081525090565b5b8082111561235a57600081556001016123c2565b8035610cac81612fb8565b600082601f8301126123f1578081fd5b8135602061240661240183612e78565b612e4e565b82815281810190858301855b8581101561243b57612429898684358b01016124a2565b84529284019290840190600101612412565b5090979650505050505050565b600082601f830112612458578081fd5b8135602061246861240183612e78565b8281528181019085830183850287018401881015612484578586fd5b855b8581101561243b57813584529284019290840190600101612486565b600082601f8301126124b2578081fd5b813567ffffffffffffffff8111156124cc576124cc612fa2565b6124df601f8201601f1916602001612e4e565b8181528460208386010111156124f3578283fd5b816020850160208301379081016020019190915292915050565b60006020828403121561251e578081fd5b813561156481612fb8565b6000806040838503121561253b578081fd5b823561254681612fb8565b9150602083013561255681612fcd565b809150509250929050565b60008060008060808587031215612576578182fd5b843561258181612fb8565b9350602085013561259181612fb8565b925060408501356125a181612fb8565b915060608501356125b181612fb8565b939692955090935050565b600080604083850312156125ce578182fd5b82356125d981612fb8565b946020939093013593505050565b600080600080608085870312156125fc578384fd5b843561260781612fb8565b966020860135965060408601359560600135945092505050565b600080600080600060a08688031215612638578283fd5b853567ffffffffffffffff8082111561264f578485fd5b61265b89838a01612448565b96506020880135915080821115612670578485fd5b61267c89838a01612448565b95506040880135915080821115612691578485fd5b61269d89838a016123e1565b945060608801359150808211156126b2578283fd5b6126be89838a01612448565b935060808801359150808211156126d3578283fd5b506126e0888289016123e1565b9150509295509295909350565b6000602082840312156126fe578081fd5b815161156481612fcd565b60006020828403121561271a578081fd5b5035919050565b600060208284031215612732578081fd5b5051919050565b6000806000806000806000806000806000806101808d8f03121561275b57898afd5b8c359b5061276b60208e016123d6565b9a5060408d0135995067ffffffffffffffff60608e0135111561278c578687fd5b61279c8e60608f01358f016124a2565b9b9e9a9d50989b60808101359a60a08201359a5060c0820135995060e08201359850610100820135975061012082013596506101408201359550610160909101359350915050565b600080600080600060a086880312156127fb578283fd5b8535945060208601359350604086013567ffffffffffffffff80821115612820578485fd5b61282c89838a016124a2565b9450606088013593506080880135915080821115612848578283fd5b506126e0888289016124a2565b60008060008060008060c0878903121561286d578384fd5b8635955060208701359450604087013567ffffffffffffffff80821115612892578586fd5b61289e8a838b016124a2565b95506060890135945060808901359150808211156128ba578384fd5b506128c789828a016124a2565b92505060a087013590509295509295509295565b600080600080600080600060e0888a0312156128f5578081fd5b873596506020880135955060408801359450606088013567ffffffffffffffff80821115612921578283fd5b61292d8b838c016124a2565b955060808a0135945060a08a0135935060c08a0135915080821115612950578283fd5b5061295d8a828b016124a2565b91505092959891949750929550565b6001600160a01b03169052565b60008151808452612991816020860160208601612f0a565b601f01601f19169290920160200192915050565b600082516129b7818460208701612f0a565b9190910192915050565b6001600160a01b0391909116815260200190565b6001600160a01b039384168152919092166020820152604081019190915260600190565b6001600160a01b03929092168252602082015260400190565b6020808252825182820181905260009190848201906040850190845b81811015612a4a57835183529284019291840191600101612a2e565b50909695505050505050565b901515815260200190565b6000602082526115646020830184612979565b6020808252601490820152731bdc99195c88191bd95cc81b9bdd08195e1a5cdd60621b604082015260600190565b60208082526026908201527f4f776e61626c653a206e6577206f776e657220697320746865207a65726f206160408201526564647265737360d01b606082015260800190565b6020808252600a908201526937b930b1b6329032b93960b11b604082015260600190565b60208082526024908201527f6578656375746f723a2063616c6c6572206973206e6f742074686520657865636040820152633aba37b960e11b606082015260800190565b60208082526026908201527f416464726573733a20696e73756666696369656e742062616c616e636520666f6040820152651c8818d85b1b60d21b606082015260800190565b6020808252602e908201527f496e697469616c697a61626c653a20636f6e747261637420697320616c72656160408201526d191e481a5b9a5d1a585b1a5e995960921b606082015260800190565b60208082526023908201527f546865207472616e73616374696f6e20616d6f756e7420697320746f6f20736d604082015262185b1b60ea1b606082015260800190565b60208082526010908201526f155cd95c881a5cc818985b9adc9d5c1d60821b604082015260600190565b6020808252818101527f4f776e61626c653a2063616c6c6572206973206e6f7420746865206f776e6572604082015260600190565b6020808252601d908201527f416464726573733a2063616c6c20746f206e6f6e2d636f6e7472616374000000604082015260600190565b6020808252600a90820152693632b733ba341032b93960b11b604082015260600190565b6020808252600890820152673ab9b2b91032b93960c11b604082015260600190565b60208082526009908201526839ba30ba329032b93960b91b604082015260600190565b6020808252602a908201527f5361666545524332303a204552433230206f7065726174696f6e20646964206e6040820152691bdd081cdd58d8d9595960b21b606082015260800190565b600060208252612d8460208301845161296c565b602083015160408301526040830151610160806060850152612daa610180850183612979565b915060608501516080850152608085015160a085015260a085015160c085015260c085015160e085015260e0850151610100818187015280870151915050610120818187015280870151915050610140818187015280870151838701525050508091505092915050565b90815260200190565b600085825284602083015260806040830152612e3c6080830185612979565b82810360608401526110f78185612979565b60405181810167ffffffffffffffff81118282101715612e7057612e70612fa2565b604052919050565b600067ffffffffffffffff821115612e9257612e92612fa2565b5060209081020190565b60008219821115612eaf57612eaf612f8c565b500190565b600082612ecf57634e487b7160e01b81526012600452602481fd5b500490565b6000816000190483118215151615612eee57612eee612f8c565b500290565b600082821015612f0557612f05612f8c565b500390565b60005b83811015612f25578181015183820152602001612f0d565b838111156115c35750506000910152565b600281046001821680612f4a57607f821691505b60208210811415612f6b57634e487b7160e01b600052602260045260246000fd5b50919050565b6000600019821415612f8557612f85612f8c565b5060010190565b634e487b7160e01b600052601160045260246000fd5b634e487b7160e01b600052604160045260246000fd5b6001600160a01b038116811461130957600080fd5b801515811461130957600080fdfea2646970667358221220d1f4aa8194a499e9a2564d36e113c72868582d5da8d020dee14d6620871319d864736f6c63430008000033",
					"opcodes": "PUSH1 0x80 PUSH1 0x40 MSTORE CALLVALUE DUP1 ISZERO PUSH2 0x10 JUMPI PUSH1 0x0 DUP1 REVERT JUMPDEST POP PUSH2 0x3011 DUP1 PUSH2 0x20 PUSH1 0x0 CODECOPY PUSH1 0x0 RETURN INVALID PUSH1 0x80 PUSH1 0x40 MSTORE CALLVALUE DUP1 ISZERO PUSH2 0x10 JUMPI PUSH1 0x0 DUP1 REVERT JUMPDEST POP PUSH1 0x4 CALLDATASIZE LT PUSH2 0x1E5 JUMPI PUSH1 0x0 CALLDATALOAD PUSH1 0xE0 SHR DUP1 PUSH4 0x7FD6F15C GT PUSH2 0x10F JUMPI DUP1 PUSH4 0xE4E95520 GT PUSH2 0xA2 JUMPI DUP1 PUSH4 0xF2FDE38B GT PUSH2 0x71 JUMPI DUP1 PUSH4 0xF2FDE38B EQ PUSH2 0x3D4 JUMPI DUP1 PUSH4 0xF7AB69FD EQ PUSH2 0x3E7 JUMPI DUP1 PUSH4 0xF8C8765E EQ PUSH2 0x3EF JUMPI DUP1 PUSH4 0xFC234D06 EQ PUSH2 0x402 JUMPI PUSH2 0x1E5 JUMP JUMPDEST DUP1 PUSH4 0xE4E95520 EQ PUSH2 0x393 JUMPI DUP1 PUSH4 0xEC4C4F34 EQ PUSH2 0x3A6 JUMPI DUP1 PUSH4 0xF0C765E4 EQ PUSH2 0x3B9 JUMPI DUP1 PUSH4 0xF14053AD EQ PUSH2 0x3CC JUMPI PUSH2 0x1E5 JUMP JUMPDEST DUP1 PUSH4 0xA80C3CD3 GT PUSH2 0xDE JUMPI DUP1 PUSH4 0xA80C3CD3 EQ PUSH2 0x352 JUMPI DUP1 PUSH4 0xAAF5EB68 EQ PUSH2 0x365 JUMPI DUP1 PUSH4 0xAECF77B1 EQ PUSH2 0x36D JUMPI DUP1 PUSH4 0xC2EC527D EQ PUSH2 0x380 JUMPI PUSH2 0x1E5 JUMP JUMPDEST DUP1 PUSH4 0x7FD6F15C EQ PUSH2 0x31C JUMPI DUP1 PUSH4 0x8DA5CB5B EQ PUSH2 0x324 JUMPI DUP1 PUSH4 0x99315CCF EQ PUSH2 0x32C JUMPI DUP1 PUSH4 0xA17397DB EQ PUSH2 0x33F JUMPI PUSH2 0x1E5 JUMP JUMPDEST DUP1 PUSH4 0x475B4FD3 GT PUSH2 0x187 JUMPI DUP1 PUSH4 0x6DBE9624 GT PUSH2 0x156 JUMPI DUP1 PUSH4 0x6DBE9624 EQ PUSH2 0x2E4 JUMPI DUP1 PUSH4 0x715018A6 EQ PUSH2 0x2F7 JUMPI DUP1 PUSH4 0x7BE3A1A1 EQ PUSH2 0x301 JUMPI DUP1 PUSH4 0x7DC0D1D0 EQ PUSH2 0x314 JUMPI PUSH2 0x1E5 JUMP JUMPDEST DUP1 PUSH4 0x475B4FD3 EQ PUSH2 0x28B JUMPI DUP1 PUSH4 0x48C7E528 EQ PUSH2 0x29E JUMPI DUP1 PUSH4 0x6AB34A4A EQ PUSH2 0x2B1 JUMPI DUP1 PUSH4 0x6C19E783 EQ PUSH2 0x2D1 JUMPI PUSH2 0x1E5 JUMP JUMPDEST DUP1 PUSH4 0x1E64610C GT PUSH2 0x1C3 JUMPI DUP1 PUSH4 0x1E64610C EQ PUSH2 0x253 JUMPI DUP1 PUSH4 0x238AC933 EQ PUSH2 0x268 JUMPI DUP1 PUSH4 0x3011D3D5 EQ PUSH2 0x270 JUMPI DUP1 PUSH4 0x43B1F3CB EQ PUSH2 0x278 JUMPI PUSH2 0x1E5 JUMP JUMPDEST DUP1 PUSH4 0x80270A8 EQ PUSH2 0x1EA JUMPI DUP1 PUSH4 0xF58D242 EQ PUSH2 0x213 JUMPI DUP1 PUSH4 0x1E1BFF3F EQ PUSH2 0x233 JUMPI JUMPDEST PUSH1 0x0 DUP1 REVERT JUMPDEST PUSH2 0x1FD PUSH2 0x1F8 CALLDATASIZE PUSH1 0x4 PUSH2 0x25E7 JUMP JUMPDEST PUSH2 0x415 JUMP JUMPDEST PUSH1 0x40 MLOAD PUSH2 0x20A SWAP2 SWAP1 PUSH2 0x2A12 JUMP JUMPDEST PUSH1 0x40 MLOAD DUP1 SWAP2 SUB SWAP1 RETURN JUMPDEST PUSH2 0x226 PUSH2 0x221 CALLDATASIZE PUSH1 0x4 PUSH2 0x2709 JUMP JUMPDEST PUSH2 0x689 JUMP JUMPDEST PUSH1 0x40 MLOAD PUSH2 0x20A SWAP2 SWAP1 PUSH2 0x2E14 JUMP JUMPDEST PUSH2 0x246 PUSH2 0x241 CALLDATASIZE PUSH1 0x4 PUSH2 0x2529 JUMP JUMPDEST PUSH2 0x6AA JUMP JUMPDEST PUSH1 0x40 MLOAD PUSH2 0x20A SWAP2 SWAP1 PUSH2 0x2A56 JUMP JUMPDEST PUSH2 0x25B PUSH2 0x71A JUMP JUMPDEST PUSH1 0x40 MLOAD PUSH2 0x20A SWAP2 SWAP1 PUSH2 0x29C1 JUMP JUMPDEST PUSH2 0x25B PUSH2 0x729 JUMP JUMPDEST PUSH2 0x25B PUSH2 0x738 JUMP JUMPDEST PUSH2 0x226 PUSH2 0x286 CALLDATASIZE PUSH1 0x4 PUSH2 0x2709 JUMP JUMPDEST PUSH2 0x747 JUMP JUMPDEST PUSH2 0x246 PUSH2 0x299 CALLDATASIZE PUSH1 0x4 PUSH2 0x28DB JUMP JUMPDEST PUSH2 0x759 JUMP JUMPDEST PUSH2 0x246 PUSH2 0x2AC CALLDATASIZE PUSH1 0x4 PUSH2 0x250D JUMP JUMPDEST PUSH2 0xB6F JUMP JUMPDEST PUSH2 0x2C4 PUSH2 0x2BF CALLDATASIZE PUSH1 0x4 PUSH2 0x2709 JUMP JUMPDEST PUSH2 0xB84 JUMP JUMPDEST PUSH1 0x40 MLOAD PUSH2 0x20A SWAP2 SWAP1 PUSH2 0x2D70 JUMP JUMPDEST PUSH2 0x246 PUSH2 0x2DF CALLDATASIZE PUSH1 0x4 PUSH2 0x250D JUMP JUMPDEST PUSH2 0xCB1 JUMP JUMPDEST PUSH2 0x246 PUSH2 0x2F2 CALLDATASIZE PUSH1 0x4 PUSH2 0x2621 JUMP JUMPDEST PUSH2 0xD17 JUMP JUMPDEST PUSH2 0x2FF PUSH2 0xEEF JUMP JUMPDEST STOP JUMPDEST PUSH2 0x226 PUSH2 0x30F CALLDATASIZE PUSH1 0x4 PUSH2 0x25BC JUMP JUMPDEST PUSH2 0xF3A JUMP JUMPDEST PUSH2 0x25B PUSH2 0xF57 JUMP JUMPDEST PUSH2 0x226 PUSH2 0xF66 JUMP JUMPDEST PUSH2 0x25B PUSH2 0xF6C JUMP JUMPDEST PUSH2 0x246 PUSH2 0x33A CALLDATASIZE PUSH1 0x4 PUSH2 0x2855 JUMP JUMPDEST PUSH2 0xF7B JUMP JUMPDEST PUSH2 0x246 PUSH2 0x34D CALLDATASIZE PUSH1 0x4 PUSH2 0x27E4 JUMP JUMPDEST PUSH2 0x10B0 JUMP JUMPDEST PUSH2 0x246 PUSH2 0x360 CALLDATASIZE PUSH1 0x4 PUSH2 0x27E4 JUMP JUMPDEST PUSH2 0x1102 JUMP JUMPDEST PUSH2 0x226 PUSH2 0x114F JUMP JUMPDEST PUSH2 0x1FD PUSH2 0x37B CALLDATASIZE PUSH1 0x4 PUSH2 0x250D JUMP JUMPDEST PUSH2 0x1155 JUMP JUMPDEST PUSH2 0x226 PUSH2 0x38E CALLDATASIZE PUSH1 0x4 PUSH2 0x25BC JUMP JUMPDEST PUSH2 0x11C1 JUMP JUMPDEST PUSH2 0x1FD PUSH2 0x3A1 CALLDATASIZE PUSH1 0x4 PUSH2 0x250D JUMP JUMPDEST PUSH2 0x11F2 JUMP JUMPDEST PUSH2 0x226 PUSH2 0x3B4 CALLDATASIZE PUSH1 0x4 PUSH2 0x25BC JUMP JUMPDEST PUSH2 0x125C JUMP JUMPDEST PUSH2 0x226 PUSH2 0x3C7 CALLDATASIZE PUSH1 0x4 PUSH2 0x25BC JUMP JUMPDEST PUSH2 0x1278 JUMP JUMPDEST PUSH2 0x226 PUSH2 0x1295 JUMP JUMPDEST PUSH2 0x2FF PUSH2 0x3E2 CALLDATASIZE PUSH1 0x4 PUSH2 0x250D JUMP JUMPDEST PUSH2 0x129B JUMP JUMPDEST PUSH2 0x226 PUSH2 0x130C JUMP JUMPDEST PUSH2 0x2FF PUSH2 0x3FD CALLDATASIZE PUSH1 0x4 PUSH2 0x2561 JUMP JUMPDEST PUSH2 0x1312 JUMP JUMPDEST PUSH2 0x246 PUSH2 0x410 CALLDATASIZE PUSH1 0x4 PUSH2 0x2739 JUMP JUMPDEST PUSH2 0x13EF JUMP JUMPDEST PUSH1 0x60 PUSH1 0x0 DUP3 PUSH8 0xFFFFFFFFFFFFFFFF DUP2 GT ISZERO PUSH2 0x440 JUMPI PUSH4 0x4E487B71 PUSH1 0xE0 SHL PUSH1 0x0 MSTORE PUSH1 0x41 PUSH1 0x4 MSTORE PUSH1 0x24 PUSH1 0x0 REVERT JUMPDEST PUSH1 0x40 MLOAD SWAP1 DUP1 DUP3 MSTORE DUP1 PUSH1 0x20 MUL PUSH1 0x20 ADD DUP3 ADD PUSH1 0x40 MSTORE DUP1 ISZERO PUSH2 0x469 JUMPI DUP2 PUSH1 0x20 ADD PUSH1 0x20 DUP3 MUL DUP1 CALLDATASIZE DUP4 CALLDATACOPY ADD SWAP1 POP JUMPDEST POP SWAP1 POP PUSH1 0x0 PUSH1 0x60 DUP7 PUSH2 0x4CD JUMPI PUSH1 0x6C DUP1 SLOAD DUP1 PUSH1 0x20 MUL PUSH1 0x20 ADD PUSH1 0x40 MLOAD SWAP1 DUP2 ADD PUSH1 0x40 MSTORE DUP1 SWAP3 SWAP2 SWAP1 DUP2 DUP2 MSTORE PUSH1 0x20 ADD DUP3 DUP1 SLOAD DUP1 ISZERO PUSH2 0x4C1 JUMPI PUSH1 0x20 MUL DUP3 ADD SWAP2 SWAP1 PUSH1 0x0 MSTORE PUSH1 0x20 PUSH1 0x0 KECCAK256 SWAP1 JUMPDEST DUP2 SLOAD DUP2 MSTORE PUSH1 0x20 ADD SWAP1 PUSH1 0x1 ADD SWAP1 DUP1 DUP4 GT PUSH2 0x4AD JUMPI JUMPDEST POP POP POP POP POP SWAP1 POP PUSH2 0x5AD JUMP JUMPDEST DUP7 PUSH1 0x1 EQ ISZERO PUSH2 0x53E JUMPI PUSH1 0x1 PUSH1 0x1 PUSH1 0xA0 SHL SUB DUP9 AND PUSH1 0x0 SWAP1 DUP2 MSTORE PUSH1 0x6E PUSH1 0x20 SWAP1 DUP2 MSTORE PUSH1 0x40 SWAP2 DUP3 SWAP1 KECCAK256 DUP1 SLOAD DUP4 MLOAD DUP2 DUP5 MUL DUP2 ADD DUP5 ADD SWAP1 SWAP5 MSTORE DUP1 DUP5 MSTORE SWAP1 SWAP2 DUP4 ADD DUP3 DUP3 DUP1 ISZERO PUSH2 0x4C1 JUMPI PUSH1 0x20 MUL DUP3 ADD SWAP2 SWAP1 PUSH1 0x0 MSTORE PUSH1 0x20 PUSH1 0x0 KECCAK256 SWAP1 DUP2 SLOAD DUP2 MSTORE PUSH1 0x20 ADD SWAP1 PUSH1 0x1 ADD SWAP1 DUP1 DUP4 GT PUSH2 0x4AD JUMPI POP POP POP POP POP SWAP1 POP PUSH2 0x5AD JUMP JUMPDEST DUP7 PUSH1 0x2 EQ ISZERO PUSH2 0x5AD JUMPI PUSH1 0x1 PUSH1 0x1 PUSH1 0xA0 SHL SUB DUP9 AND PUSH1 0x0 SWAP1 DUP2 MSTORE PUSH1 0x70 PUSH1 0x20 SWAP1 DUP2 MSTORE PUSH1 0x40 SWAP2 DUP3 SWAP1 KECCAK256 DUP1 SLOAD DUP4 MLOAD DUP2 DUP5 MUL DUP2 ADD DUP5 ADD SWAP1 SWAP5 MSTORE DUP1 DUP5 MSTORE SWAP1 SWAP2 DUP4 ADD DUP3 DUP3 DUP1 ISZERO PUSH2 0x5A5 JUMPI PUSH1 0x20 MUL DUP3 ADD SWAP2 SWAP1 PUSH1 0x0 MSTORE PUSH1 0x20 PUSH1 0x0 KECCAK256 SWAP1 JUMPDEST DUP2 SLOAD DUP2 MSTORE PUSH1 0x20 ADD SWAP1 PUSH1 0x1 ADD SWAP1 DUP1 DUP4 GT PUSH2 0x591 JUMPI JUMPDEST POP POP POP POP POP SWAP1 POP JUMPDEST DUP1 MLOAD PUSH2 0x5B9 DUP7 DUP9 PUSH2 0x2ED4 JUMP JUMPDEST GT PUSH2 0x5DF JUMPI PUSH1 0x40 MLOAD PUSH3 0x461BCD PUSH1 0xE5 SHL DUP2 MSTORE PUSH1 0x4 ADD PUSH2 0x5D6 SWAP1 PUSH2 0x2CBD JUMP JUMPDEST PUSH1 0x40 MLOAD DUP1 SWAP2 SUB SWAP1 REVERT JUMPDEST PUSH1 0x0 DUP6 PUSH2 0x5EC DUP2 DUP10 PUSH2 0x2ED4 JUMP JUMPDEST PUSH2 0x5F6 SWAP2 SWAP1 PUSH2 0x2EF3 JUMP JUMPDEST SWAP1 POP JUMPDEST PUSH2 0x603 DUP7 DUP9 PUSH2 0x2ED4 JUMP JUMPDEST DUP2 LT ISZERO PUSH2 0x67C JUMPI DUP2 DUP2 DUP2 MLOAD DUP2 LT PUSH2 0x62A JUMPI PUSH4 0x4E487B71 PUSH1 0xE0 SHL PUSH1 0x0 MSTORE PUSH1 0x32 PUSH1 0x4 MSTORE PUSH1 0x24 PUSH1 0x0 REVERT JUMPDEST PUSH1 0x20 MUL PUSH1 0x20 ADD ADD MLOAD DUP5 DUP5 DUP2 MLOAD DUP2 LT PUSH2 0x652 JUMPI PUSH4 0x4E487B71 PUSH1 0xE0 SHL PUSH1 0x0 MSTORE PUSH1 0x32 PUSH1 0x4 MSTORE PUSH1 0x24 PUSH1 0x0 REVERT JUMPDEST PUSH1 0x20 SWAP1 DUP2 MUL SWAP2 SWAP1 SWAP2 ADD ADD MSTORE PUSH2 0x668 DUP4 PUSH1 0x1 PUSH2 0x2E9C JUMP JUMPDEST SWAP3 POP DUP1 PUSH2 0x674 DUP2 PUSH2 0x2F71 JUMP JUMPDEST SWAP2 POP POP PUSH2 0x5F9 JUMP JUMPDEST POP SWAP2 SWAP8 SWAP7 POP POP POP POP POP POP POP JUMP JUMPDEST PUSH1 0x6C DUP2 DUP2 SLOAD DUP2 LT PUSH2 0x699 JUMPI PUSH1 0x0 DUP1 REVERT JUMPDEST PUSH1 0x0 SWAP2 DUP3 MSTORE PUSH1 0x20 SWAP1 SWAP2 KECCAK256 ADD SLOAD SWAP1 POP DUP2 JUMP JUMPDEST PUSH1 0x0 PUSH2 0x6B4 PUSH2 0x1554 JUMP JUMPDEST PUSH1 0x1 PUSH1 0x1 PUSH1 0xA0 SHL SUB AND PUSH2 0x6C5 PUSH2 0xF6C JUMP JUMPDEST PUSH1 0x1 PUSH1 0x1 PUSH1 0xA0 SHL SUB AND EQ PUSH2 0x6EB JUMPI PUSH1 0x40 MLOAD PUSH3 0x461BCD PUSH1 0xE5 SHL DUP2 MSTORE PUSH1 0x4 ADD PUSH2 0x5D6 SWAP1 PUSH2 0x2C51 JUMP JUMPDEST POP PUSH1 0x1 PUSH1 0x1 PUSH1 0xA0 SHL SUB DUP3 AND PUSH1 0x0 SWAP1 DUP2 MSTORE PUSH1 0x65 PUSH1 0x20 MSTORE PUSH1 0x40 SWAP1 KECCAK256 DUP1 SLOAD DUP3 ISZERO ISZERO PUSH1 0xFF NOT SWAP1 SWAP2 AND OR SWAP1 SSTORE PUSH1 0x1 SWAP3 SWAP2 POP POP JUMP JUMPDEST PUSH1 0x68 SLOAD PUSH1 0x1 PUSH1 0x1 PUSH1 0xA0 SHL SUB AND DUP2 JUMP JUMPDEST PUSH1 0x66 SLOAD PUSH1 0x1 PUSH1 0x1 PUSH1 0xA0 SHL SUB AND DUP2 JUMP JUMPDEST PUSH1 0x67 SLOAD PUSH1 0x1 PUSH1 0x1 PUSH1 0xA0 SHL SUB AND DUP2 JUMP JUMPDEST PUSH1 0x6D PUSH1 0x20 MSTORE PUSH1 0x0 SWAP1 DUP2 MSTORE PUSH1 0x40 SWAP1 KECCAK256 SLOAD DUP2 JUMP JUMPDEST PUSH1 0x6B SLOAD PUSH1 0x0 SWAP1 DUP2 MSTORE PUSH1 0x6A PUSH1 0x20 MSTORE PUSH1 0x40 DUP2 KECCAK256 PUSH1 0x3 DUP2 ADD SLOAD ISZERO PUSH2 0x78C JUMPI PUSH1 0x40 MLOAD PUSH3 0x461BCD PUSH1 0xE5 SHL DUP2 MSTORE PUSH1 0x4 ADD PUSH2 0x5D6 SWAP1 PUSH2 0x2D03 JUMP JUMPDEST PUSH1 0x69 SLOAD PUSH1 0x40 MLOAD PUSH4 0x81952F3B PUSH1 0xE0 SHL DUP2 MSTORE PUSH1 0x1 PUSH1 0x1 PUSH1 0xA0 SHL SUB SWAP1 SWAP2 AND SWAP1 PUSH4 0x81952F3B SWAP1 PUSH2 0x7C2 SWAP1 DUP9 SWAP1 DUP14 SWAP1 DUP12 SWAP1 DUP10 SWAP1 PUSH1 0x4 ADD PUSH2 0x2E1D JUMP JUMPDEST PUSH1 0x20 PUSH1 0x40 MLOAD DUP1 DUP4 SUB DUP2 DUP7 DUP1 EXTCODESIZE ISZERO DUP1 ISZERO PUSH2 0x7DA JUMPI PUSH1 0x0 DUP1 REVERT JUMPDEST POP GAS STATICCALL ISZERO DUP1 ISZERO PUSH2 0x7EE JUMPI RETURNDATASIZE PUSH1 0x0 DUP1 RETURNDATACOPY RETURNDATASIZE PUSH1 0x0 REVERT JUMPDEST POP POP POP POP PUSH1 0x40 MLOAD RETURNDATASIZE PUSH1 0x1F NOT PUSH1 0x1F DUP3 ADD AND DUP3 ADD DUP1 PUSH1 0x40 MSTORE POP DUP2 ADD SWAP1 PUSH2 0x812 SWAP2 SWAP1 PUSH2 0x26ED JUMP JUMPDEST PUSH2 0x82E JUMPI PUSH1 0x40 MLOAD PUSH3 0x461BCD PUSH1 0xE5 SHL DUP2 MSTORE PUSH1 0x4 ADD PUSH2 0x5D6 SWAP1 PUSH2 0x2AE8 JUMP JUMPDEST PUSH1 0x74 SLOAD PUSH2 0x83B DUP6 DUP8 PUSH2 0x1558 JUMP JUMPDEST GT PUSH2 0x858 JUMPI PUSH1 0x40 MLOAD PUSH3 0x461BCD PUSH1 0xE5 SHL DUP2 MSTORE PUSH1 0x4 ADD PUSH2 0x5D6 SWAP1 PUSH2 0x2BE4 JUMP JUMPDEST PUSH2 0x87B CALLER ADDRESS PUSH2 0x867 DUP8 DUP10 PUSH2 0x1558 JUMP JUMPDEST PUSH1 0x67 SLOAD PUSH1 0x1 PUSH1 0x1 PUSH1 0xA0 SHL SUB AND SWAP3 SWAP2 SWAP1 PUSH2 0x156B JUMP JUMPDEST PUSH1 0x67 SLOAD PUSH1 0x40 MLOAD PUSH4 0x70A08231 PUSH1 0xE0 SHL DUP2 MSTORE PUSH1 0x0 SWAP2 PUSH1 0x1 PUSH1 0x1 PUSH1 0xA0 SHL SUB AND SWAP1 PUSH4 0x70A08231 SWAP1 PUSH2 0x8AC SWAP1 ADDRESS SWAP1 PUSH1 0x4 ADD PUSH2 0x29C1 JUMP JUMPDEST PUSH1 0x20 PUSH1 0x40 MLOAD DUP1 DUP4 SUB DUP2 DUP7 DUP1 EXTCODESIZE ISZERO DUP1 ISZERO PUSH2 0x8C4 JUMPI PUSH1 0x0 DUP1 REVERT JUMPDEST POP GAS STATICCALL ISZERO DUP1 ISZERO PUSH2 0x8D8 JUMPI RETURNDATASIZE PUSH1 0x0 DUP1 RETURNDATACOPY RETURNDATASIZE PUSH1 0x0 REVERT JUMPDEST POP POP POP POP PUSH1 0x40 MLOAD RETURNDATASIZE PUSH1 0x1F NOT PUSH1 0x1F DUP3 ADD AND DUP3 ADD DUP1 PUSH1 0x40 MSTORE POP DUP2 ADD SWAP1 PUSH2 0x8FC SWAP2 SWAP1 PUSH2 0x2721 JUMP JUMPDEST SWAP1 POP PUSH1 0x0 PUSH2 0x921 PUSH1 0x73 SLOAD PUSH2 0x91B PUSH1 0x72 SLOAD DUP6 PUSH2 0x1558 SWAP1 SWAP2 SWAP1 PUSH4 0xFFFFFFFF AND JUMP JUMPDEST SWAP1 PUSH2 0x15C9 JUMP JUMPDEST PUSH1 0x68 SLOAD PUSH1 0x67 SLOAD SWAP2 SWAP3 POP PUSH2 0x941 SWAP2 PUSH1 0x1 PUSH1 0x1 PUSH1 0xA0 SHL SUB SWAP1 DUP2 AND SWAP2 AND DUP4 PUSH2 0x15D5 JUMP JUMPDEST PUSH1 0x68 PUSH1 0x0 SWAP1 SLOAD SWAP1 PUSH2 0x100 EXP SWAP1 DIV PUSH1 0x1 PUSH1 0x1 PUSH1 0xA0 SHL SUB AND PUSH1 0x1 PUSH1 0x1 PUSH1 0xA0 SHL SUB AND PUSH4 0xD10C06A2 PUSH1 0x40 MLOAD DUP2 PUSH4 0xFFFFFFFF AND PUSH1 0xE0 SHL DUP2 MSTORE PUSH1 0x4 ADD PUSH1 0x20 PUSH1 0x40 MLOAD DUP1 DUP4 SUB DUP2 PUSH1 0x0 DUP8 DUP1 EXTCODESIZE ISZERO DUP1 ISZERO PUSH2 0x991 JUMPI PUSH1 0x0 DUP1 REVERT JUMPDEST POP GAS CALL ISZERO DUP1 ISZERO PUSH2 0x9A5 JUMPI RETURNDATASIZE PUSH1 0x0 DUP1 RETURNDATACOPY RETURNDATASIZE PUSH1 0x0 REVERT JUMPDEST POP POP POP POP PUSH1 0x40 MLOAD RETURNDATASIZE PUSH1 0x1F NOT PUSH1 0x1F DUP3 ADD AND DUP3 ADD DUP1 PUSH1 0x40 MSTORE POP DUP2 ADD SWAP1 PUSH2 0x9C9 SWAP2 SWAP1 PUSH2 0x26ED JUMP JUMPDEST POP PUSH1 0x67 SLOAD PUSH1 0x1 PUSH1 0x1 PUSH1 0xA0 SHL SUB AND PUSH4 0x42966C68 PUSH2 0x9E5 DUP5 DUP5 PUSH2 0x15F9 JUMP JUMPDEST PUSH1 0x40 MLOAD DUP3 PUSH4 0xFFFFFFFF AND PUSH1 0xE0 SHL DUP2 MSTORE PUSH1 0x4 ADD PUSH2 0xA01 SWAP2 SWAP1 PUSH2 0x2E14 JUMP JUMPDEST PUSH1 0x0 PUSH1 0x40 MLOAD DUP1 DUP4 SUB DUP2 PUSH1 0x0 DUP8 DUP1 EXTCODESIZE ISZERO DUP1 ISZERO PUSH2 0xA1B JUMPI PUSH1 0x0 DUP1 REVERT JUMPDEST POP GAS CALL ISZERO DUP1 ISZERO PUSH2 0xA2F JUMPI RETURNDATASIZE PUSH1 0x0 DUP1 RETURNDATACOPY RETURNDATASIZE PUSH1 0x0 REVERT JUMPDEST POP POP PUSH1 0x6B SLOAD PUSH1 0x6C DUP1 SLOAD PUSH1 0x1 DUP2 DUP2 ADD DUP4 SSTORE PUSH1 0x0 DUP4 SWAP1 MSTORE PUSH32 0x2B4A51AB505FC96A0952EFDA2BA61BCD3078D4C02C39A186EC16F21883FBE016 SWAP1 SWAP2 ADD SWAP3 SWAP1 SWAP3 SSTORE SLOAD PUSH2 0xA79 SWAP4 POP SWAP2 POP PUSH2 0x15F9 JUMP JUMPDEST PUSH1 0x6B DUP1 SLOAD PUSH1 0x0 SWAP1 DUP2 MSTORE PUSH1 0x6D PUSH1 0x20 SWAP1 DUP2 MSTORE PUSH1 0x40 DUP1 DUP4 KECCAK256 SWAP5 SWAP1 SWAP5 SSTORE CALLER DUP1 DUP4 MSTORE PUSH1 0x6E DUP1 DUP4 MSTORE DUP6 DUP5 KECCAK256 DUP6 SLOAD DUP2 SLOAD PUSH1 0x1 DUP2 DUP2 ADD DUP5 SSTORE DUP4 DUP9 MSTORE DUP7 DUP9 KECCAK256 SWAP1 SWAP2 ADD SWAP2 SWAP1 SWAP2 SSTORE SWAP6 SLOAD SWAP3 DUP6 MSTORE PUSH1 0x6F DUP5 MSTORE SWAP6 DUP5 KECCAK256 SWAP3 MSTORE SWAP4 SLOAD SWAP1 SWAP3 PUSH2 0xAD2 SWAP2 SWAP1 PUSH2 0x15F9 JUMP JUMPDEST DUP2 MSTORE PUSH1 0x20 ADD SWAP1 DUP2 MSTORE PUSH1 0x20 ADD PUSH1 0x0 KECCAK256 DUP2 SWAP1 SSTORE POP PUSH1 0x6B PUSH1 0x0 DUP2 SLOAD DUP1 SWAP3 SWAP2 SWAP1 PUSH2 0xAF7 SWAP1 PUSH2 0x2F71 JUMP JUMPDEST SWAP1 SWAP2 SSTORE POP POP DUP3 SLOAD PUSH1 0x1 PUSH1 0x1 PUSH1 0xA0 SHL SUB NOT AND CALLER OR DUP4 SSTORE PUSH1 0x1 DUP4 ADD DUP10 SWAP1 SSTORE DUP8 MLOAD PUSH2 0xB28 SWAP1 PUSH1 0x2 DUP6 ADD SWAP1 PUSH1 0x20 DUP12 ADD SWAP1 PUSH2 0x22DA JUMP JUMPDEST POP PUSH1 0x1 PUSH1 0x3 DUP5 ADD SSTORE PUSH1 0x4 DUP4 ADD DUP11 SWAP1 SSTORE PUSH1 0x5 DUP4 ADD DUP8 SWAP1 SSTORE PUSH1 0x6 DUP4 ADD DUP12 SWAP1 SSTORE PUSH1 0x9 DUP4 ADD DUP7 SWAP1 SSTORE PUSH2 0xB56 DUP3 DUP3 PUSH2 0x15F9 JUMP JUMPDEST PUSH1 0xA SWAP1 SWAP4 ADD SWAP3 SWAP1 SWAP3 SSTORE POP PUSH1 0x1 SWAP10 SWAP9 POP POP POP POP POP POP POP POP POP JUMP JUMPDEST PUSH1 0x65 PUSH1 0x20 MSTORE PUSH1 0x0 SWAP1 DUP2 MSTORE PUSH1 0x40 SWAP1 KECCAK256 SLOAD PUSH1 0xFF AND DUP2 JUMP JUMPDEST PUSH2 0xB8C PUSH2 0x235E JUMP JUMPDEST PUSH1 0x0 DUP3 DUP2 MSTORE PUSH1 0x6A PUSH1 0x20 SWAP1 DUP2 MSTORE PUSH1 0x40 SWAP2 DUP3 SWAP1 KECCAK256 DUP3 MLOAD PUSH2 0x160 DUP2 ADD DUP5 MSTORE DUP2 SLOAD PUSH1 0x1 PUSH1 0x1 PUSH1 0xA0 SHL SUB AND DUP2 MSTORE PUSH1 0x1 DUP3 ADD SLOAD SWAP3 DUP2 ADD SWAP3 SWAP1 SWAP3 MSTORE PUSH1 0x2 DUP2 ADD DUP1 SLOAD SWAP3 SWAP4 SWAP2 SWAP3 SWAP2 DUP5 ADD SWAP2 PUSH2 0xBD7 SWAP1 PUSH2 0x2F36 JUMP JUMPDEST DUP1 PUSH1 0x1F ADD PUSH1 0x20 DUP1 SWAP2 DIV MUL PUSH1 0x20 ADD PUSH1 0x40 MLOAD SWAP1 DUP2 ADD PUSH1 0x40 MSTORE DUP1 SWAP3 SWAP2 SWAP1 DUP2 DUP2 MSTORE PUSH1 0x20 ADD DUP3 DUP1 SLOAD PUSH2 0xC03 SWAP1 PUSH2 0x2F36 JUMP JUMPDEST DUP1 ISZERO PUSH2 0xC50 JUMPI DUP1 PUSH1 0x1F LT PUSH2 0xC25 JUMPI PUSH2 0x100 DUP1 DUP4 SLOAD DIV MUL DUP4 MSTORE SWAP2 PUSH1 0x20 ADD SWAP2 PUSH2 0xC50 JUMP JUMPDEST DUP3 ADD SWAP2 SWAP1 PUSH1 0x0 MSTORE PUSH1 0x20 PUSH1 0x0 KECCAK256 SWAP1 JUMPDEST DUP2 SLOAD DUP2 MSTORE SWAP1 PUSH1 0x1 ADD SWAP1 PUSH1 0x20 ADD DUP1 DUP4 GT PUSH2 0xC33 JUMPI DUP3 SWAP1 SUB PUSH1 0x1F AND DUP3 ADD SWAP2 JUMPDEST POP POP POP POP POP DUP2 MSTORE PUSH1 0x20 ADD PUSH1 0x3 DUP3 ADD SLOAD DUP2 MSTORE PUSH1 0x20 ADD PUSH1 0x4 DUP3 ADD SLOAD DUP2 MSTORE PUSH1 0x20 ADD PUSH1 0x5 DUP3 ADD SLOAD DUP2 MSTORE PUSH1 0x20 ADD PUSH1 0x6 DUP3 ADD SLOAD DUP2 MSTORE PUSH1 0x20 ADD PUSH1 0x7 DUP3 ADD SLOAD DUP2 MSTORE PUSH1 0x20 ADD PUSH1 0x8 DUP3 ADD SLOAD DUP2 MSTORE PUSH1 0x20 ADD PUSH1 0x9 DUP3 ADD SLOAD DUP2 MSTORE PUSH1 0x20 ADD PUSH1 0xA DUP3 ADD SLOAD DUP2 MSTORE POP POP SWAP1 POP JUMPDEST SWAP2 SWAP1 POP JUMP JUMPDEST PUSH1 0x0 PUSH2 0xCBB PUSH2 0x1554 JUMP JUMPDEST PUSH1 0x1 PUSH1 0x1 PUSH1 0xA0 SHL SUB AND PUSH2 0xCCC PUSH2 0xF6C JUMP JUMPDEST PUSH1 0x1 PUSH1 0x1 PUSH1 0xA0 SHL SUB AND EQ PUSH2 0xCF2 JUMPI PUSH1 0x40 MLOAD PUSH3 0x461BCD PUSH1 0xE5 SHL DUP2 MSTORE PUSH1 0x4 ADD PUSH2 0x5D6 SWAP1 PUSH2 0x2C51 JUMP JUMPDEST POP PUSH1 0x66 DUP1 SLOAD PUSH1 0x1 PUSH1 0x1 PUSH1 0xA0 SHL SUB DUP4 AND PUSH1 0x1 PUSH1 0x1 PUSH1 0xA0 SHL SUB NOT SWAP1 SWAP2 AND OR SWAP1 SSTORE PUSH1 0x1 SWAP2 SWAP1 POP JUMP JUMPDEST CALLER PUSH1 0x0 SWAP1 DUP2 MSTORE PUSH1 0x65 PUSH1 0x20 MSTORE PUSH1 0x40 DUP2 KECCAK256 SLOAD PUSH1 0xFF AND PUSH2 0xD46 JUMPI PUSH1 0x40 MLOAD PUSH3 0x461BCD PUSH1 0xE5 SHL DUP2 MSTORE PUSH1 0x4 ADD PUSH2 0x5D6 SWAP1 PUSH2 0x2B0C JUMP JUMPDEST PUSH1 0x0 JUMPDEST DUP7 MLOAD DUP2 LT ISZERO PUSH2 0xEE0 JUMPI PUSH1 0x0 PUSH1 0x6A PUSH1 0x0 DUP10 DUP5 DUP2 MLOAD DUP2 LT PUSH2 0xD78 JUMPI PUSH4 0x4E487B71 PUSH1 0xE0 SHL PUSH1 0x0 MSTORE PUSH1 0x32 PUSH1 0x4 MSTORE PUSH1 0x24 PUSH1 0x0 REVERT JUMPDEST PUSH1 0x20 MUL PUSH1 0x20 ADD ADD MLOAD DUP2 MSTORE PUSH1 0x20 ADD SWAP1 DUP2 MSTORE PUSH1 0x20 ADD PUSH1 0x0 KECCAK256 SWAP1 POP PUSH2 0xDED DUP9 DUP4 DUP2 MLOAD DUP2 LT PUSH2 0xDB3 JUMPI PUSH4 0x4E487B71 PUSH1 0xE0 SHL PUSH1 0x0 MSTORE PUSH1 0x32 PUSH1 0x4 MSTORE PUSH1 0x24 PUSH1 0x0 REVERT JUMPDEST PUSH1 0x20 MUL PUSH1 0x20 ADD ADD MLOAD DUP7 DUP5 DUP2 MLOAD DUP2 LT PUSH2 0xDDB JUMPI PUSH4 0x4E487B71 PUSH1 0xE0 SHL PUSH1 0x0 MSTORE PUSH1 0x32 PUSH1 0x4 MSTORE PUSH1 0x24 PUSH1 0x0 REVERT JUMPDEST PUSH1 0x20 MUL PUSH1 0x20 ADD ADD MLOAD DUP4 PUSH1 0xA ADD SLOAD PUSH2 0x1605 JUMP JUMPDEST PUSH2 0xECD JUMPI PUSH2 0xEC4 DUP2 PUSH1 0x3 DUP11 DUP6 DUP2 MLOAD DUP2 LT PUSH2 0xE17 JUMPI PUSH4 0x4E487B71 PUSH1 0xE0 SHL PUSH1 0x0 MSTORE PUSH1 0x32 PUSH1 0x4 MSTORE PUSH1 0x24 PUSH1 0x0 REVERT JUMPDEST PUSH1 0x20 MUL PUSH1 0x20 ADD ADD MLOAD DUP11 DUP7 DUP2 MLOAD DUP2 LT PUSH2 0xE3F JUMPI PUSH4 0x4E487B71 PUSH1 0xE0 SHL PUSH1 0x0 MSTORE PUSH1 0x32 PUSH1 0x4 MSTORE PUSH1 0x24 PUSH1 0x0 REVERT JUMPDEST PUSH1 0x20 MUL PUSH1 0x20 ADD ADD MLOAD DUP11 DUP8 DUP2 MLOAD DUP2 LT PUSH2 0xE67 JUMPI PUSH4 0x4E487B71 PUSH1 0xE0 SHL PUSH1 0x0 MSTORE PUSH1 0x32 PUSH1 0x4 MSTORE PUSH1 0x24 PUSH1 0x0 REVERT JUMPDEST PUSH1 0x20 MUL PUSH1 0x20 ADD ADD MLOAD DUP11 DUP9 DUP2 MLOAD DUP2 LT PUSH2 0xE8F JUMPI PUSH4 0x4E487B71 PUSH1 0xE0 SHL PUSH1 0x0 MSTORE PUSH1 0x32 PUSH1 0x4 MSTORE PUSH1 0x24 PUSH1 0x0 REVERT JUMPDEST PUSH1 0x20 MUL PUSH1 0x20 ADD ADD MLOAD DUP11 DUP10 DUP2 MLOAD DUP2 LT PUSH2 0xEB7 JUMPI PUSH4 0x4E487B71 PUSH1 0xE0 SHL PUSH1 0x0 MSTORE PUSH1 0x32 PUSH1 0x4 MSTORE PUSH1 0x24 PUSH1 0x0 REVERT JUMPDEST PUSH1 0x20 MUL PUSH1 0x20 ADD ADD MLOAD PUSH2 0x1732 JUMP JUMPDEST SWAP3 POP POP POP PUSH2 0xEE6 JUMP JUMPDEST POP DUP1 PUSH2 0xED8 DUP2 PUSH2 0x2F71 JUMP JUMPDEST SWAP2 POP POP PUSH2 0xD49 JUMP JUMPDEST POP PUSH1 0x1 SWAP1 POP JUMPDEST SWAP6 SWAP5 POP POP POP POP POP JUMP JUMPDEST PUSH2 0xEF7 PUSH2 0x1554 JUMP JUMPDEST PUSH1 0x1 PUSH1 0x1 PUSH1 0xA0 SHL SUB AND PUSH2 0xF08 PUSH2 0xF6C JUMP JUMPDEST PUSH1 0x1 PUSH1 0x1 PUSH1 0xA0 SHL SUB AND EQ PUSH2 0xF2E JUMPI PUSH1 0x40 MLOAD PUSH3 0x461BCD PUSH1 0xE5 SHL DUP2 MSTORE PUSH1 0x4 ADD PUSH2 0x5D6 SWAP1 PUSH2 0x2C51 JUMP JUMPDEST PUSH2 0xF38 PUSH1 0x0 PUSH2 0x1E6E JUMP JUMPDEST JUMP JUMPDEST PUSH1 0x6F PUSH1 0x20 SWAP1 DUP2 MSTORE PUSH1 0x0 SWAP3 DUP4 MSTORE PUSH1 0x40 DUP1 DUP5 KECCAK256 SWAP1 SWAP2 MSTORE SWAP1 DUP3 MSTORE SWAP1 KECCAK256 SLOAD DUP2 JUMP JUMPDEST PUSH1 0x69 SLOAD PUSH1 0x1 PUSH1 0x1 PUSH1 0xA0 SHL SUB AND DUP2 JUMP JUMPDEST PUSH1 0x72 SLOAD DUP2 JUMP JUMPDEST PUSH1 0x33 SLOAD PUSH1 0x1 PUSH1 0x1 PUSH1 0xA0 SHL SUB AND SWAP1 JUMP JUMPDEST PUSH1 0x0 DUP7 DUP2 MSTORE PUSH1 0x6A PUSH1 0x20 MSTORE PUSH1 0x40 DUP2 KECCAK256 DUP1 SLOAD PUSH1 0x1 PUSH1 0x1 PUSH1 0xA0 SHL SUB AND PUSH2 0xFB0 JUMPI PUSH1 0x40 MLOAD PUSH3 0x461BCD PUSH1 0xE5 SHL DUP2 MSTORE PUSH1 0x4 ADD PUSH2 0x5D6 SWAP1 PUSH2 0x2A74 JUMP JUMPDEST PUSH1 0x2 DUP2 PUSH1 0x3 ADD SLOAD LT PUSH2 0xFD4 JUMPI PUSH1 0x40 MLOAD PUSH3 0x461BCD PUSH1 0xE5 SHL DUP2 MSTORE PUSH1 0x4 ADD PUSH2 0x5D6 SWAP1 PUSH2 0x2D03 JUMP JUMPDEST PUSH1 0x69 SLOAD PUSH1 0x40 MLOAD PUSH4 0x81952F3B PUSH1 0xE0 SHL DUP2 MSTORE PUSH1 0x1 PUSH1 0x1 PUSH1 0xA0 SHL SUB SWAP1 SWAP2 AND SWAP1 PUSH4 0x81952F3B SWAP1 PUSH2 0x100A SWAP1 DUP9 SWAP1 DUP12 SWAP1 DUP12 SWAP1 DUP11 SWAP1 PUSH1 0x4 ADD PUSH2 0x2E1D JUMP JUMPDEST PUSH1 0x20 PUSH1 0x40 MLOAD DUP1 DUP4 SUB DUP2 DUP7 DUP1 EXTCODESIZE ISZERO DUP1 ISZERO PUSH2 0x1022 JUMPI PUSH1 0x0 DUP1 REVERT JUMPDEST POP GAS STATICCALL ISZERO DUP1 ISZERO PUSH2 0x1036 JUMPI RETURNDATASIZE PUSH1 0x0 DUP1 RETURNDATACOPY RETURNDATASIZE PUSH1 0x0 REVERT JUMPDEST POP POP POP POP PUSH1 0x40 MLOAD RETURNDATASIZE PUSH1 0x1F NOT PUSH1 0x1F DUP3 ADD AND DUP3 ADD DUP1 PUSH1 0x40 MSTORE POP DUP2 ADD SWAP1 PUSH2 0x105A SWAP2 SWAP1 PUSH2 0x26ED JUMP JUMPDEST PUSH2 0x1076 JUMPI PUSH1 0x40 MLOAD PUSH3 0x461BCD PUSH1 0xE5 SHL DUP2 MSTORE PUSH1 0x4 ADD PUSH2 0x5D6 SWAP1 PUSH2 0x2AE8 JUMP JUMPDEST PUSH2 0x1081 DUP9 DUP7 DUP6 PUSH2 0x1605 JUMP JUMPDEST PUSH2 0x109D JUMPI PUSH1 0x40 MLOAD PUSH3 0x461BCD PUSH1 0xE5 SHL DUP2 MSTORE PUSH1 0x4 ADD PUSH2 0x5D6 SWAP1 PUSH2 0x2C27 JUMP JUMPDEST PUSH1 0xA ADD DUP3 SWAP1 SSTORE POP PUSH1 0x1 SWAP7 SWAP6 POP POP POP POP POP POP JUMP JUMPDEST PUSH1 0x0 DUP6 DUP2 MSTORE PUSH1 0x6A PUSH1 0x20 MSTORE PUSH1 0x40 DUP2 KECCAK256 DUP1 SLOAD PUSH1 0x1 PUSH1 0x1 PUSH1 0xA0 SHL SUB AND CALLER EQ PUSH2 0x10E7 JUMPI PUSH1 0x40 MLOAD PUSH3 0x461BCD PUSH1 0xE5 SHL DUP2 MSTORE PUSH1 0x4 ADD PUSH2 0x5D6 SWAP1 PUSH2 0x2CE1 JUMP JUMPDEST PUSH2 0x10F7 DUP2 PUSH1 0x2 DUP10 DUP10 DUP10 DUP10 DUP10 PUSH2 0x1732 JUMP JUMPDEST SWAP8 SWAP7 POP POP POP POP POP POP POP JUMP JUMPDEST CALLER PUSH1 0x0 SWAP1 DUP2 MSTORE PUSH1 0x65 PUSH1 0x20 MSTORE PUSH1 0x40 DUP2 KECCAK256 SLOAD PUSH1 0xFF AND PUSH2 0x1131 JUMPI PUSH1 0x40 MLOAD PUSH3 0x461BCD PUSH1 0xE5 SHL DUP2 MSTORE PUSH1 0x4 ADD PUSH2 0x5D6 SWAP1 PUSH2 0x2B0C JUMP JUMPDEST PUSH1 0x0 DUP7 DUP2 MSTORE PUSH1 0x6A PUSH1 0x20 MSTORE PUSH1 0x40 SWAP1 KECCAK256 PUSH2 0x10F7 DUP2 PUSH1 0x4 DUP10 DUP10 DUP10 DUP10 DUP10 PUSH2 0x1732 JUMP JUMPDEST PUSH1 0x73 SLOAD DUP2 JUMP JUMPDEST PUSH1 0x1 PUSH1 0x1 PUSH1 0xA0 SHL SUB DUP2 AND PUSH1 0x0 SWAP1 DUP2 MSTORE PUSH1 0x70 PUSH1 0x20 SWAP1 DUP2 MSTORE PUSH1 0x40 SWAP2 DUP3 SWAP1 KECCAK256 DUP1 SLOAD DUP4 MLOAD DUP2 DUP5 MUL DUP2 ADD DUP5 ADD SWAP1 SWAP5 MSTORE DUP1 DUP5 MSTORE PUSH1 0x60 SWAP4 SWAP3 DUP4 ADD DUP3 DUP3 DUP1 ISZERO PUSH2 0x11B5 JUMPI PUSH1 0x20 MUL DUP3 ADD SWAP2 SWAP1 PUSH1 0x0 MSTORE PUSH1 0x20 PUSH1 0x0 KECCAK256 SWAP1 JUMPDEST DUP2 SLOAD DUP2 MSTORE PUSH1 0x20 ADD SWAP1 PUSH1 0x1 ADD SWAP1 DUP1 DUP4 GT PUSH2 0x11A1 JUMPI JUMPDEST POP POP POP POP POP SWAP1 POP SWAP2 SWAP1 POP JUMP JUMPDEST PUSH1 0x6E PUSH1 0x20 MSTORE DUP2 PUSH1 0x0 MSTORE PUSH1 0x40 PUSH1 0x0 KECCAK256 DUP2 DUP2 SLOAD DUP2 LT PUSH2 0x11DD JUMPI PUSH1 0x0 DUP1 REVERT JUMPDEST SWAP1 PUSH1 0x0 MSTORE PUSH1 0x20 PUSH1 0x0 KECCAK256 ADD PUSH1 0x0 SWAP2 POP SWAP2 POP POP SLOAD DUP2 JUMP JUMPDEST PUSH1 0x1 PUSH1 0x1 PUSH1 0xA0 SHL SUB DUP2 AND PUSH1 0x0 SWAP1 DUP2 MSTORE PUSH1 0x6E PUSH1 0x20 SWAP1 DUP2 MSTORE PUSH1 0x40 SWAP2 DUP3 SWAP1 KECCAK256 DUP1 SLOAD DUP4 MLOAD DUP2 DUP5 MUL DUP2 ADD DUP5 ADD SWAP1 SWAP5 MSTORE DUP1 DUP5 MSTORE PUSH1 0x60 SWAP4 SWAP3 DUP4 ADD DUP3 DUP3 DUP1 ISZERO PUSH2 0x11B5 JUMPI PUSH1 0x20 MUL DUP3 ADD SWAP2 SWAP1 PUSH1 0x0 MSTORE PUSH1 0x20 PUSH1 0x0 KECCAK256 SWAP1 DUP2 SLOAD DUP2 MSTORE PUSH1 0x20 ADD SWAP1 PUSH1 0x1 ADD SWAP1 DUP1 DUP4 GT PUSH2 0x11A1 JUMPI POP POP POP POP POP SWAP1 POP SWAP2 SWAP1 POP JUMP JUMPDEST PUSH1 0x70 PUSH1 0x20 MSTORE DUP2 PUSH1 0x0 MSTORE PUSH1 0x40 PUSH1 0x0 KECCAK256 DUP2 DUP2 SLOAD DUP2 LT PUSH2 0x11DD JUMPI PUSH1 0x0 DUP1 REVERT JUMPDEST PUSH1 0x71 PUSH1 0x20 SWAP1 DUP2 MSTORE PUSH1 0x0 SWAP3 DUP4 MSTORE PUSH1 0x40 DUP1 DUP5 KECCAK256 SWAP1 SWAP2 MSTORE SWAP1 DUP3 MSTORE SWAP1 KECCAK256 SLOAD DUP2 JUMP JUMPDEST PUSH1 0x74 SLOAD DUP2 JUMP JUMPDEST PUSH2 0x12A3 PUSH2 0x1554 JUMP JUMPDEST PUSH1 0x1 PUSH1 0x1 PUSH1 0xA0 SHL SUB AND PUSH2 0x12B4 PUSH2 0xF6C JUMP JUMPDEST PUSH1 0x1 PUSH1 0x1 PUSH1 0xA0 SHL SUB AND EQ PUSH2 0x12DA JUMPI PUSH1 0x40 MLOAD PUSH3 0x461BCD PUSH1 0xE5 SHL DUP2 MSTORE PUSH1 0x4 ADD PUSH2 0x5D6 SWAP1 PUSH2 0x2C51 JUMP JUMPDEST PUSH1 0x1 PUSH1 0x1 PUSH1 0xA0 SHL SUB DUP2 AND PUSH2 0x1300 JUMPI PUSH1 0x40 MLOAD PUSH3 0x461BCD PUSH1 0xE5 SHL DUP2 MSTORE PUSH1 0x4 ADD PUSH2 0x5D6 SWAP1 PUSH2 0x2AA2 JUMP JUMPDEST PUSH2 0x1309 DUP2 PUSH2 0x1E6E JUMP JUMPDEST POP JUMP JUMPDEST PUSH1 0x6B SLOAD DUP2 JUMP JUMPDEST PUSH1 0x0 SLOAD PUSH2 0x100 SWAP1 DIV PUSH1 0xFF AND DUP1 PUSH2 0x132B JUMPI POP PUSH1 0x0 SLOAD PUSH1 0xFF AND ISZERO JUMPDEST PUSH2 0x1347 JUMPI PUSH1 0x40 MLOAD PUSH3 0x461BCD PUSH1 0xE5 SHL DUP2 MSTORE PUSH1 0x4 ADD PUSH2 0x5D6 SWAP1 PUSH2 0x2B96 JUMP JUMPDEST PUSH1 0x0 SLOAD PUSH2 0x100 SWAP1 DIV PUSH1 0xFF AND ISZERO DUP1 ISZERO PUSH2 0x1372 JUMPI PUSH1 0x0 DUP1 SLOAD PUSH1 0xFF NOT PUSH2 0xFF00 NOT SWAP1 SWAP2 AND PUSH2 0x100 OR AND PUSH1 0x1 OR SWAP1 SSTORE JUMPDEST PUSH2 0x137A PUSH2 0x1EC0 JUMP JUMPDEST PUSH1 0x66 DUP1 SLOAD PUSH1 0x1 PUSH1 0x1 PUSH1 0xA0 SHL SUB DUP1 DUP9 AND PUSH1 0x1 PUSH1 0x1 PUSH1 0xA0 SHL SUB NOT SWAP3 DUP4 AND OR SWAP1 SWAP3 SSTORE PUSH1 0x68 DUP1 SLOAD DUP8 DUP5 AND SWAP1 DUP4 AND OR SWAP1 SSTORE PUSH1 0x67 DUP1 SLOAD DUP7 DUP5 AND SWAP1 DUP4 AND OR SWAP1 SSTORE PUSH2 0x2710 PUSH1 0x73 SSTORE PUSH1 0x69 DUP1 SLOAD SWAP3 DUP6 AND SWAP3 SWAP1 SWAP2 AND SWAP2 SWAP1 SWAP2 OR SWAP1 SSTORE PUSH8 0xDE0B6B3A7640000 PUSH1 0x74 SSTORE DUP1 ISZERO PUSH2 0x13E8 JUMPI PUSH1 0x0 DUP1 SLOAD PUSH2 0xFF00 NOT AND SWAP1 SSTORE JUMPDEST POP POP POP POP POP JUMP JUMPDEST PUSH1 0x0 PUSH2 0x13F9 PUSH2 0x1554 JUMP JUMPDEST PUSH1 0x1 PUSH1 0x1 PUSH1 0xA0 SHL SUB AND PUSH2 0x140A PUSH2 0xF6C JUMP JUMPDEST PUSH1 0x1 PUSH1 0x1 PUSH1 0xA0 SHL SUB AND EQ PUSH2 0x1430 JUMPI PUSH1 0x40 MLOAD PUSH3 0x461BCD PUSH1 0xE5 SHL DUP2 MSTORE PUSH1 0x4 ADD PUSH2 0x5D6 SWAP1 PUSH2 0x2C51 JUMP JUMPDEST PUSH1 0x40 MLOAD DUP1 PUSH2 0x160 ADD PUSH1 0x40 MSTORE DUP1 DUP14 PUSH1 0x1 PUSH1 0x1 PUSH1 0xA0 SHL SUB AND DUP2 MSTORE PUSH1 0x20 ADD DUP13 DUP2 MSTORE PUSH1 0x20 ADD DUP12 DUP2 MSTORE PUSH1 0x20 ADD DUP11 DUP2 MSTORE PUSH1 0x20 ADD DUP10 DUP2 MSTORE PUSH1 0x20 ADD DUP9 DUP2 MSTORE PUSH1 0x20 ADD DUP8 DUP2 MSTORE PUSH1 0x20 ADD DUP7 DUP2 MSTORE PUSH1 0x20 ADD DUP6 DUP2 MSTORE PUSH1 0x20 ADD DUP5 DUP2 MSTORE PUSH1 0x20 ADD DUP4 DUP2 MSTORE POP PUSH1 0x6A PUSH1 0x0 DUP16 DUP2 MSTORE PUSH1 0x20 ADD SWAP1 DUP2 MSTORE PUSH1 0x20 ADD PUSH1 0x0 KECCAK256 PUSH1 0x0 DUP3 ADD MLOAD DUP2 PUSH1 0x0 ADD PUSH1 0x0 PUSH2 0x100 EXP DUP2 SLOAD DUP2 PUSH1 0x1 PUSH1 0x1 PUSH1 0xA0 SHL SUB MUL NOT AND SWAP1 DUP4 PUSH1 0x1 PUSH1 0x1 PUSH1 0xA0 SHL SUB AND MUL OR SWAP1 SSTORE POP PUSH1 0x20 DUP3 ADD MLOAD DUP2 PUSH1 0x1 ADD SSTORE PUSH1 0x40 DUP3 ADD MLOAD DUP2 PUSH1 0x2 ADD SWAP1 DUP1 MLOAD SWAP1 PUSH1 0x20 ADD SWAP1 PUSH2 0x14EB SWAP3 SWAP2 SWAP1 PUSH2 0x22DA JUMP JUMPDEST POP PUSH1 0x60 DUP3 ADD MLOAD PUSH1 0x3 DUP3 ADD SSTORE PUSH1 0x80 DUP3 ADD MLOAD PUSH1 0x4 DUP3 ADD SSTORE PUSH1 0xA0 DUP3 ADD MLOAD PUSH1 0x5 DUP3 ADD SSTORE PUSH1 0xC0 DUP3 ADD MLOAD PUSH1 0x6 DUP3 ADD SSTORE PUSH1 0xE0 DUP3 ADD MLOAD PUSH1 0x7 DUP3 ADD SSTORE PUSH2 0x100 DUP3 ADD MLOAD PUSH1 0x8 DUP3 ADD SSTORE PUSH2 0x120 DUP3 ADD MLOAD PUSH1 0x9 DUP3 ADD SSTORE PUSH2 0x140 SWAP1 SWAP2 ADD MLOAD PUSH1 0xA SWAP1 SWAP2 ADD SSTORE POP PUSH1 0x1 SWAP13 SWAP12 POP POP POP POP POP POP POP POP POP POP POP POP JUMP JUMPDEST CALLER SWAP1 JUMP JUMPDEST PUSH1 0x0 PUSH2 0x1564 DUP3 DUP5 PUSH2 0x2ED4 JUMP JUMPDEST SWAP4 SWAP3 POP POP POP JUMP JUMPDEST PUSH2 0x15C3 DUP5 PUSH4 0x23B872DD PUSH1 0xE0 SHL DUP6 DUP6 DUP6 PUSH1 0x40 MLOAD PUSH1 0x24 ADD PUSH2 0x158C SWAP4 SWAP3 SWAP2 SWAP1 PUSH2 0x29D5 JUMP JUMPDEST PUSH1 0x40 DUP1 MLOAD PUSH1 0x1F NOT DUP2 DUP5 SUB ADD DUP2 MSTORE SWAP2 SWAP1 MSTORE PUSH1 0x20 DUP2 ADD DUP1 MLOAD PUSH1 0x1 PUSH1 0x1 PUSH1 0xE0 SHL SUB AND PUSH1 0x1 PUSH1 0x1 PUSH1 0xE0 SHL SUB NOT SWAP1 SWAP4 AND SWAP3 SWAP1 SWAP3 OR SWAP1 SWAP2 MSTORE PUSH2 0x1F44 JUMP JUMPDEST POP POP POP POP JUMP JUMPDEST PUSH1 0x0 PUSH2 0x1564 DUP3 DUP5 PUSH2 0x2EB4 JUMP JUMPDEST PUSH2 0x15F4 DUP4 PUSH4 0xA9059CBB PUSH1 0xE0 SHL DUP5 DUP5 PUSH1 0x40 MLOAD PUSH1 0x24 ADD PUSH2 0x158C SWAP3 SWAP2 SWAP1 PUSH2 0x29F9 JUMP JUMPDEST POP POP POP JUMP JUMPDEST PUSH1 0x0 PUSH2 0x1564 DUP3 DUP5 PUSH2 0x2EF3 JUMP JUMPDEST PUSH1 0x0 DUP4 DUP2 MSTORE PUSH1 0x6A PUSH1 0x20 MSTORE PUSH1 0x40 DUP2 KECCAK256 PUSH1 0x4 DUP2 ADD SLOAD DUP3 SWAP1 DUP2 SWAP1 DUP2 SWAP1 PUSH1 0x1 EQ ISZERO PUSH2 0x16AA JUMPI DUP4 PUSH1 0x5 ADD SLOAD DUP8 LT ISZERO PUSH2 0x16A5 JUMPI PUSH1 0x5 DUP5 ADD SLOAD PUSH2 0x1641 SWAP1 DUP9 PUSH2 0x15F9 JUMP JUMPDEST SWAP3 POP PUSH2 0x165A DUP5 PUSH1 0x9 ADD SLOAD DUP5 PUSH2 0x1558 SWAP1 SWAP2 SWAP1 PUSH4 0xFFFFFFFF AND JUMP JUMPDEST SWAP2 POP PUSH2 0x1685 PUSH1 0x73 SLOAD PUSH2 0x91B PUSH1 0x72 SLOAD PUSH2 0x167F DUP12 DUP10 PUSH1 0x9 ADD SLOAD PUSH2 0x1558 SWAP1 SWAP2 SWAP1 PUSH4 0xFFFFFFFF AND JUMP JUMPDEST SWAP1 PUSH2 0x1558 JUMP JUMPDEST SWAP1 POP PUSH2 0x1691 DUP2 DUP4 PUSH2 0x2E9C JUMP JUMPDEST DUP7 LT ISZERO PUSH2 0x16A5 JUMPI PUSH1 0x0 SWAP5 POP POP POP POP POP PUSH2 0x1564 JUMP JUMPDEST PUSH2 0x1724 JUMP JUMPDEST DUP4 PUSH1 0x5 ADD SLOAD DUP8 GT ISZERO PUSH2 0x1724 JUMPI PUSH1 0x5 DUP5 ADD SLOAD PUSH2 0x16C6 SWAP1 DUP9 SWAP1 PUSH2 0x15F9 JUMP JUMPDEST SWAP3 POP PUSH2 0x16DF DUP5 PUSH1 0x9 ADD SLOAD DUP5 PUSH2 0x1558 SWAP1 SWAP2 SWAP1 PUSH4 0xFFFFFFFF AND JUMP JUMPDEST SWAP2 POP PUSH2 0x1704 PUSH1 0x73 SLOAD PUSH2 0x91B PUSH1 0x72 SLOAD PUSH2 0x167F DUP12 DUP10 PUSH1 0x9 ADD SLOAD PUSH2 0x1558 SWAP1 SWAP2 SWAP1 PUSH4 0xFFFFFFFF AND JUMP JUMPDEST SWAP1 POP PUSH2 0x1710 DUP2 DUP4 PUSH2 0x2E9C JUMP JUMPDEST DUP7 LT ISZERO PUSH2 0x1724 JUMPI PUSH1 0x0 SWAP5 POP POP POP POP POP PUSH2 0x1564 JUMP JUMPDEST POP PUSH1 0x1 SWAP8 SWAP7 POP POP POP POP POP POP POP JUMP JUMPDEST DUP7 SLOAD PUSH1 0x0 SWAP1 PUSH1 0x1 PUSH1 0x1 PUSH1 0xA0 SHL SUB AND PUSH2 0x175C JUMPI PUSH1 0x40 MLOAD PUSH3 0x461BCD PUSH1 0xE5 SHL DUP2 MSTORE PUSH1 0x4 ADD PUSH2 0x5D6 SWAP1 PUSH2 0x2A74 JUMP JUMPDEST PUSH1 0x2 DUP9 PUSH1 0x3 ADD SLOAD LT PUSH2 0x1780 JUMPI PUSH1 0x40 MLOAD PUSH3 0x461BCD PUSH1 0xE5 SHL DUP2 MSTORE PUSH1 0x4 ADD PUSH2 0x5D6 SWAP1 PUSH2 0x2D03 JUMP JUMPDEST PUSH1 0x69 SLOAD PUSH1 0x40 MLOAD PUSH4 0x81952F3B PUSH1 0xE0 SHL DUP2 MSTORE PUSH1 0x1 PUSH1 0x1 PUSH1 0xA0 SHL SUB SWAP1 SWAP2 AND SWAP1 PUSH4 0x81952F3B SWAP1 PUSH2 0x17B6 SWAP1 DUP7 SWAP1 DUP10 SWAP1 DUP10 SWAP1 DUP9 SWAP1 PUSH1 0x4 ADD PUSH2 0x2E1D JUMP JUMPDEST PUSH1 0x20 PUSH1 0x40 MLOAD DUP1 DUP4 SUB DUP2 DUP7 DUP1 EXTCODESIZE ISZERO DUP1 ISZERO PUSH2 0x17CE JUMPI PUSH1 0x0 DUP1 REVERT JUMPDEST POP GAS STATICCALL ISZERO DUP1 ISZERO PUSH2 0x17E2 JUMPI RETURNDATASIZE PUSH1 0x0 DUP1 RETURNDATACOPY RETURNDATASIZE PUSH1 0x0 REVERT JUMPDEST POP POP POP POP PUSH1 0x40 MLOAD RETURNDATASIZE PUSH1 0x1F NOT PUSH1 0x1F DUP3 ADD AND DUP3 ADD DUP1 PUSH1 0x40 MSTORE POP DUP2 ADD SWAP1 PUSH2 0x1806 SWAP2 SWAP1 PUSH2 0x26ED JUMP JUMPDEST PUSH2 0x1822 JUMPI PUSH1 0x40 MLOAD PUSH3 0x461BCD PUSH1 0xE5 SHL DUP2 MSTORE PUSH1 0x4 ADD PUSH2 0x5D6 SWAP1 PUSH2 0x2AE8 JUMP JUMPDEST DUP3 DUP9 PUSH1 0x7 ADD DUP2 SWAP1 SSTORE POP PUSH1 0x0 DUP1 PUSH1 0x0 DUP11 PUSH1 0x4 ADD SLOAD PUSH1 0x1 EQ ISZERO PUSH2 0x1B61 JUMPI DUP11 PUSH1 0x5 ADD SLOAD DUP12 PUSH1 0x7 ADD SLOAD GT ISZERO PUSH2 0x19CD JUMPI PUSH1 0x5 DUP12 ADD SLOAD PUSH1 0x7 DUP13 ADD SLOAD PUSH2 0x1860 SWAP2 PUSH2 0x15F9 JUMP JUMPDEST SWAP3 POP PUSH2 0x1879 DUP12 PUSH1 0x9 ADD SLOAD DUP5 PUSH2 0x1558 SWAP1 SWAP2 SWAP1 PUSH4 0xFFFFFFFF AND JUMP JUMPDEST PUSH1 0xA DUP13 ADD SLOAD SWAP1 SWAP3 POP PUSH2 0x188B SWAP1 DUP4 PUSH2 0x1FD3 JUMP JUMPDEST SWAP1 POP PUSH1 0x0 PUSH2 0x18AA PUSH1 0x73 SLOAD PUSH2 0x91B PUSH1 0x72 SLOAD DUP6 PUSH2 0x1558 SWAP1 SWAP2 SWAP1 PUSH4 0xFFFFFFFF AND JUMP JUMPDEST PUSH1 0x67 SLOAD PUSH1 0x68 SLOAD PUSH1 0x40 MLOAD PUSH4 0x40C10F19 PUSH1 0xE0 SHL DUP2 MSTORE SWAP3 SWAP4 POP PUSH1 0x1 PUSH1 0x1 PUSH1 0xA0 SHL SUB SWAP2 DUP3 AND SWAP3 PUSH4 0x40C10F19 SWAP3 PUSH2 0x18E2 SWAP3 AND SWAP1 DUP6 SWAP1 PUSH1 0x4 ADD PUSH2 0x29F9 JUMP JUMPDEST PUSH1 0x20 PUSH1 0x40 MLOAD DUP1 DUP4 SUB DUP2 PUSH1 0x0 DUP8 DUP1 EXTCODESIZE ISZERO DUP1 ISZERO PUSH2 0x18FC JUMPI PUSH1 0x0 DUP1 REVERT JUMPDEST POP GAS CALL ISZERO DUP1 ISZERO PUSH2 0x1910 JUMPI RETURNDATASIZE PUSH1 0x0 DUP1 RETURNDATACOPY RETURNDATASIZE PUSH1 0x0 REVERT JUMPDEST POP POP POP POP PUSH1 0x40 MLOAD RETURNDATASIZE PUSH1 0x1F NOT PUSH1 0x1F DUP3 ADD AND DUP3 ADD DUP1 PUSH1 0x40 MSTORE POP DUP2 ADD SWAP1 PUSH2 0x1934 SWAP2 SWAP1 PUSH2 0x26ED JUMP JUMPDEST POP PUSH1 0x67 SLOAD DUP13 SLOAD PUSH1 0x1 PUSH1 0x1 PUSH1 0xA0 SHL SUB SWAP2 DUP3 AND SWAP2 PUSH4 0x40C10F19 SWAP2 AND PUSH2 0x1957 DUP6 DUP6 PUSH2 0x15F9 JUMP JUMPDEST PUSH1 0x40 MLOAD DUP4 PUSH4 0xFFFFFFFF AND PUSH1 0xE0 SHL DUP2 MSTORE PUSH1 0x4 ADD PUSH2 0x1974 SWAP3 SWAP2 SWAP1 PUSH2 0x29F9 JUMP JUMPDEST PUSH1 0x20 PUSH1 0x40 MLOAD DUP1 DUP4 SUB DUP2 PUSH1 0x0 DUP8 DUP1 EXTCODESIZE ISZERO DUP1 ISZERO PUSH2 0x198E JUMPI PUSH1 0x0 DUP1 REVERT JUMPDEST POP GAS CALL ISZERO DUP1 ISZERO PUSH2 0x19A2 JUMPI RETURNDATASIZE PUSH1 0x0 DUP1 RETURNDATACOPY RETURNDATASIZE PUSH1 0x0 REVERT JUMPDEST POP POP POP POP PUSH1 0x40 MLOAD RETURNDATASIZE PUSH1 0x1F NOT PUSH1 0x1F DUP3 ADD AND DUP3 ADD DUP1 PUSH1 0x40 MSTORE POP DUP2 ADD SWAP1 PUSH2 0x19C6 SWAP2 SWAP1 PUSH2 0x26ED JUMP JUMPDEST POP POP PUSH2 0x1B5C JUMP JUMPDEST PUSH1 0x7 DUP12 ADD SLOAD PUSH1 0x5 DUP13 ADD SLOAD PUSH2 0x19E0 SWAP2 PUSH2 0x15F9 JUMP JUMPDEST SWAP3 POP PUSH2 0x19F9 DUP12 PUSH1 0x9 ADD SLOAD DUP5 PUSH2 0x1558 SWAP1 SWAP2 SWAP1 PUSH4 0xFFFFFFFF AND JUMP JUMPDEST SWAP2 POP DUP11 PUSH1 0xA ADD SLOAD DUP3 GT ISZERO PUSH2 0x1A0F JUMPI POP PUSH1 0x0 PUSH2 0x1B5C JUMP JUMPDEST PUSH1 0xA DUP12 ADD SLOAD PUSH2 0x1A1E SWAP1 DUP4 PUSH2 0x15F9 JUMP JUMPDEST SWAP1 POP PUSH1 0x0 PUSH2 0x1A3D PUSH1 0x73 SLOAD PUSH2 0x91B PUSH1 0x72 SLOAD DUP6 PUSH2 0x1558 SWAP1 SWAP2 SWAP1 PUSH4 0xFFFFFFFF AND JUMP JUMPDEST PUSH1 0x67 SLOAD PUSH1 0x68 SLOAD PUSH1 0x40 MLOAD PUSH4 0x40C10F19 PUSH1 0xE0 SHL DUP2 MSTORE SWAP3 SWAP4 POP PUSH1 0x1 PUSH1 0x1 PUSH1 0xA0 SHL SUB SWAP2 DUP3 AND SWAP3 PUSH4 0x40C10F19 SWAP3 PUSH2 0x1A75 SWAP3 AND SWAP1 DUP6 SWAP1 PUSH1 0x4 ADD PUSH2 0x29F9 JUMP JUMPDEST PUSH1 0x20 PUSH1 0x40 MLOAD DUP1 DUP4 SUB DUP2 PUSH1 0x0 DUP8 DUP1 EXTCODESIZE ISZERO DUP1 ISZERO PUSH2 0x1A8F JUMPI PUSH1 0x0 DUP1 REVERT JUMPDEST POP GAS CALL ISZERO DUP1 ISZERO PUSH2 0x1AA3 JUMPI RETURNDATASIZE PUSH1 0x0 DUP1 RETURNDATACOPY RETURNDATASIZE PUSH1 0x0 REVERT JUMPDEST POP POP POP POP PUSH1 0x40 MLOAD RETURNDATASIZE PUSH1 0x1F NOT PUSH1 0x1F DUP3 ADD AND DUP3 ADD DUP1 PUSH1 0x40 MSTORE POP DUP2 ADD SWAP1 PUSH2 0x1AC7 SWAP2 SWAP1 PUSH2 0x26ED JUMP JUMPDEST POP PUSH1 0x67 SLOAD DUP13 SLOAD PUSH1 0x1 PUSH1 0x1 PUSH1 0xA0 SHL SUB SWAP2 DUP3 AND SWAP2 PUSH4 0x40C10F19 SWAP2 AND PUSH2 0x1AEA DUP6 DUP6 PUSH2 0x15F9 JUMP JUMPDEST PUSH1 0x40 MLOAD DUP4 PUSH4 0xFFFFFFFF AND PUSH1 0xE0 SHL DUP2 MSTORE PUSH1 0x4 ADD PUSH2 0x1B07 SWAP3 SWAP2 SWAP1 PUSH2 0x29F9 JUMP JUMPDEST PUSH1 0x20 PUSH1 0x40 MLOAD DUP1 DUP4 SUB DUP2 PUSH1 0x0 DUP8 DUP1 EXTCODESIZE ISZERO DUP1 ISZERO PUSH2 0x1B21 JUMPI PUSH1 0x0 DUP1 REVERT JUMPDEST POP GAS CALL ISZERO DUP1 ISZERO PUSH2 0x1B35 JUMPI RETURNDATASIZE PUSH1 0x0 DUP1 RETURNDATACOPY RETURNDATASIZE PUSH1 0x0 REVERT JUMPDEST POP POP POP POP PUSH1 0x40 MLOAD RETURNDATASIZE PUSH1 0x1F NOT PUSH1 0x1F DUP3 ADD AND DUP3 ADD DUP1 PUSH1 0x40 MSTORE POP DUP2 ADD SWAP1 PUSH2 0x1B59 SWAP2 SWAP1 PUSH2 0x26ED JUMP JUMPDEST POP POP JUMPDEST PUSH2 0x1D3E JUMP JUMPDEST DUP11 PUSH1 0x5 ADD SLOAD DUP12 PUSH1 0x7 ADD SLOAD LT ISZERO PUSH2 0x1BAF JUMPI PUSH1 0x7 DUP12 ADD SLOAD PUSH1 0x5 DUP13 ADD SLOAD PUSH2 0x1B84 SWAP2 PUSH2 0x15F9 JUMP JUMPDEST SWAP3 POP PUSH2 0x1B9D DUP12 PUSH1 0x9 ADD SLOAD DUP5 PUSH2 0x1558 SWAP1 SWAP2 SWAP1 PUSH4 0xFFFFFFFF AND JUMP JUMPDEST PUSH1 0xA DUP13 ADD SLOAD SWAP1 SWAP3 POP PUSH2 0x1A1E SWAP1 DUP4 PUSH2 0x1FD3 JUMP JUMPDEST PUSH1 0x5 DUP12 ADD SLOAD PUSH1 0x7 DUP13 ADD SLOAD PUSH2 0x1BC2 SWAP2 PUSH2 0x15F9 JUMP JUMPDEST SWAP3 POP PUSH2 0x1BDB DUP12 PUSH1 0x9 ADD SLOAD DUP5 PUSH2 0x1558 SWAP1 SWAP2 SWAP1 PUSH4 0xFFFFFFFF AND JUMP JUMPDEST SWAP2 POP DUP11 PUSH1 0xA ADD SLOAD DUP3 GT ISZERO PUSH2 0x1BF1 JUMPI POP PUSH1 0x0 PUSH2 0x1D3E JUMP JUMPDEST PUSH1 0xA DUP12 ADD SLOAD PUSH2 0x1C00 SWAP1 DUP4 PUSH2 0x15F9 JUMP JUMPDEST SWAP1 POP PUSH1 0x0 PUSH2 0x1C1F PUSH1 0x73 SLOAD PUSH2 0x91B PUSH1 0x72 SLOAD DUP6 PUSH2 0x1558 SWAP1 SWAP2 SWAP1 PUSH4 0xFFFFFFFF AND JUMP JUMPDEST PUSH1 0x67 SLOAD PUSH1 0x68 SLOAD PUSH1 0x40 MLOAD PUSH4 0x40C10F19 PUSH1 0xE0 SHL DUP2 MSTORE SWAP3 SWAP4 POP PUSH1 0x1 PUSH1 0x1 PUSH1 0xA0 SHL SUB SWAP2 DUP3 AND SWAP3 PUSH4 0x40C10F19 SWAP3 PUSH2 0x1C57 SWAP3 AND SWAP1 DUP6 SWAP1 PUSH1 0x4 ADD PUSH2 0x29F9 JUMP JUMPDEST PUSH1 0x20 PUSH1 0x40 MLOAD DUP1 DUP4 SUB DUP2 PUSH1 0x0 DUP8 DUP1 EXTCODESIZE ISZERO DUP1 ISZERO PUSH2 0x1C71 JUMPI PUSH1 0x0 DUP1 REVERT JUMPDEST POP GAS CALL ISZERO DUP1 ISZERO PUSH2 0x1C85 JUMPI RETURNDATASIZE PUSH1 0x0 DUP1 RETURNDATACOPY RETURNDATASIZE PUSH1 0x0 REVERT JUMPDEST POP POP POP POP PUSH1 0x40 MLOAD RETURNDATASIZE PUSH1 0x1F NOT PUSH1 0x1F DUP3 ADD AND DUP3 ADD DUP1 PUSH1 0x40 MSTORE POP DUP2 ADD SWAP1 PUSH2 0x1CA9 SWAP2 SWAP1 PUSH2 0x26ED JUMP JUMPDEST POP PUSH1 0x67 SLOAD DUP13 SLOAD PUSH1 0x1 PUSH1 0x1 PUSH1 0xA0 SHL SUB SWAP2 DUP3 AND SWAP2 PUSH4 0x40C10F19 SWAP2 AND PUSH2 0x1CCC DUP6 DUP6 PUSH2 0x15F9 JUMP JUMPDEST PUSH1 0x40 MLOAD DUP4 PUSH4 0xFFFFFFFF AND PUSH1 0xE0 SHL DUP2 MSTORE PUSH1 0x4 ADD PUSH2 0x1CE9 SWAP3 SWAP2 SWAP1 PUSH2 0x29F9 JUMP JUMPDEST PUSH1 0x20 PUSH1 0x40 MLOAD DUP1 DUP4 SUB DUP2 PUSH1 0x0 DUP8 DUP1 EXTCODESIZE ISZERO DUP1 ISZERO PUSH2 0x1D03 JUMPI PUSH1 0x0 DUP1 REVERT JUMPDEST POP GAS CALL ISZERO DUP1 ISZERO PUSH2 0x1D17 JUMPI RETURNDATASIZE PUSH1 0x0 DUP1 RETURNDATACOPY RETURNDATASIZE PUSH1 0x0 REVERT JUMPDEST POP POP POP POP PUSH1 0x40 MLOAD RETURNDATASIZE PUSH1 0x1F NOT PUSH1 0x1F DUP3 ADD AND DUP3 ADD DUP1 PUSH1 0x40 MSTORE POP DUP2 ADD SWAP1 PUSH2 0x1D3B SWAP2 SWAP1 PUSH2 0x26ED JUMP JUMPDEST POP POP JUMPDEST PUSH1 0x68 PUSH1 0x0 SWAP1 SLOAD SWAP1 PUSH2 0x100 EXP SWAP1 DIV PUSH1 0x1 PUSH1 0x1 PUSH1 0xA0 SHL SUB AND PUSH1 0x1 PUSH1 0x1 PUSH1 0xA0 SHL SUB AND PUSH4 0xD10C06A2 PUSH1 0x40 MLOAD DUP2 PUSH4 0xFFFFFFFF AND PUSH1 0xE0 SHL DUP2 MSTORE PUSH1 0x4 ADD PUSH1 0x20 PUSH1 0x40 MLOAD DUP1 DUP4 SUB DUP2 PUSH1 0x0 DUP8 DUP1 EXTCODESIZE ISZERO DUP1 ISZERO PUSH2 0x1D8E JUMPI PUSH1 0x0 DUP1 REVERT JUMPDEST POP GAS CALL ISZERO DUP1 ISZERO PUSH2 0x1DA2 JUMPI RETURNDATASIZE PUSH1 0x0 DUP1 RETURNDATACOPY RETURNDATASIZE PUSH1 0x0 REVERT JUMPDEST POP POP POP POP PUSH1 0x40 MLOAD RETURNDATASIZE PUSH1 0x1F NOT PUSH1 0x1F DUP3 ADD AND DUP3 ADD DUP1 PUSH1 0x40 MSTORE POP DUP2 ADD SWAP1 PUSH2 0x1DC6 SWAP2 SWAP1 PUSH2 0x26ED JUMP JUMPDEST POP PUSH1 0x3 DUP12 ADD DUP11 SWAP1 SSTORE PUSH1 0x7 DUP12 ADD DUP7 SWAP1 SSTORE PUSH1 0x8 DUP12 ADD DUP9 SWAP1 SSTORE PUSH2 0x1DE9 DUP10 PUSH1 0x6D PUSH1 0x6C PUSH2 0x1FDF JUMP JUMPDEST CALLER PUSH1 0x0 SWAP1 DUP2 MSTORE PUSH1 0x6F PUSH1 0x20 SWAP1 DUP2 MSTORE PUSH1 0x40 DUP1 DUP4 KECCAK256 PUSH1 0x6E SWAP1 SWAP3 MSTORE SWAP1 SWAP2 KECCAK256 PUSH2 0x1E0E SWAP2 DUP12 SWAP2 PUSH2 0x1FDF JUMP JUMPDEST CALLER PUSH1 0x0 DUP2 DUP2 MSTORE PUSH1 0x70 PUSH1 0x20 SWAP1 DUP2 MSTORE PUSH1 0x40 DUP3 KECCAK256 DUP1 SLOAD PUSH1 0x1 DUP2 DUP2 ADD DUP4 SSTORE DUP3 DUP6 MSTORE SWAP3 DUP5 KECCAK256 ADD DUP14 SWAP1 SSTORE SWAP3 SWAP1 SWAP2 MSTORE SWAP1 SLOAD PUSH2 0x1E41 SWAP2 PUSH2 0x15F9 JUMP JUMPDEST CALLER PUSH1 0x0 SWAP1 DUP2 MSTORE PUSH1 0x71 PUSH1 0x20 SWAP1 DUP2 MSTORE PUSH1 0x40 DUP1 DUP4 KECCAK256 DUP14 DUP5 MSTORE SWAP1 SWAP2 MSTORE SWAP1 KECCAK256 SSTORE POP PUSH1 0x1 SWAP3 POP POP POP SWAP8 SWAP7 POP POP POP POP POP POP POP JUMP JUMPDEST PUSH1 0x33 DUP1 SLOAD PUSH1 0x1 PUSH1 0x1 PUSH1 0xA0 SHL SUB DUP4 DUP2 AND PUSH1 0x1 PUSH1 0x1 PUSH1 0xA0 SHL SUB NOT DUP4 AND DUP2 OR SWAP1 SWAP4 SSTORE PUSH1 0x40 MLOAD SWAP2 AND SWAP2 SWAP1 DUP3 SWAP1 PUSH32 0x8BE0079C531659141344CD1FD0A4F28419497F9722A3DAAFE3B4186F6B6457E0 SWAP1 PUSH1 0x0 SWAP1 LOG3 POP POP JUMP JUMPDEST PUSH1 0x0 SLOAD PUSH2 0x100 SWAP1 DIV PUSH1 0xFF AND DUP1 PUSH2 0x1ED9 JUMPI POP PUSH1 0x0 SLOAD PUSH1 0xFF AND ISZERO JUMPDEST PUSH2 0x1EF5 JUMPI PUSH1 0x40 MLOAD PUSH3 0x461BCD PUSH1 0xE5 SHL DUP2 MSTORE PUSH1 0x4 ADD PUSH2 0x5D6 SWAP1 PUSH2 0x2B96 JUMP JUMPDEST PUSH1 0x0 SLOAD PUSH2 0x100 SWAP1 DIV PUSH1 0xFF AND ISZERO DUP1 ISZERO PUSH2 0x1F20 JUMPI PUSH1 0x0 DUP1 SLOAD PUSH1 0xFF NOT PUSH2 0xFF00 NOT SWAP1 SWAP2 AND PUSH2 0x100 OR AND PUSH1 0x1 OR SWAP1 SSTORE JUMPDEST PUSH2 0x1F28 PUSH2 0x20EC JUMP JUMPDEST PUSH2 0x1F30 PUSH2 0x215F JUMP JUMPDEST DUP1 ISZERO PUSH2 0x1309 JUMPI PUSH1 0x0 DUP1 SLOAD PUSH2 0xFF00 NOT AND SWAP1 SSTORE POP JUMP JUMPDEST PUSH1 0x0 PUSH2 0x1F99 DUP3 PUSH1 0x40 MLOAD DUP1 PUSH1 0x40 ADD PUSH1 0x40 MSTORE DUP1 PUSH1 0x20 DUP2 MSTORE PUSH1 0x20 ADD PUSH32 0x5361666545524332303A206C6F772D6C6576656C2063616C6C206661696C6564 DUP2 MSTORE POP DUP6 PUSH1 0x1 PUSH1 0x1 PUSH1 0xA0 SHL SUB AND PUSH2 0x21CF SWAP1 SWAP3 SWAP2 SWAP1 PUSH4 0xFFFFFFFF AND JUMP JUMPDEST DUP1 MLOAD SWAP1 SWAP2 POP ISZERO PUSH2 0x15F4 JUMPI DUP1 DUP1 PUSH1 0x20 ADD SWAP1 MLOAD DUP2 ADD SWAP1 PUSH2 0x1FB7 SWAP2 SWAP1 PUSH2 0x26ED JUMP JUMPDEST PUSH2 0x15F4 JUMPI PUSH1 0x40 MLOAD PUSH3 0x461BCD PUSH1 0xE5 SHL DUP2 MSTORE PUSH1 0x4 ADD PUSH2 0x5D6 SWAP1 PUSH2 0x2D26 JUMP JUMPDEST PUSH1 0x0 PUSH2 0x1564 DUP3 DUP5 PUSH2 0x2E9C JUMP JUMPDEST PUSH1 0x0 DUP4 DUP2 MSTORE PUSH1 0x20 DUP4 SWAP1 MSTORE PUSH1 0x40 DUP2 KECCAK256 SLOAD DUP3 SLOAD SWAP1 SWAP2 SWAP1 DUP4 SWAP1 PUSH2 0x2000 SWAP1 PUSH1 0x1 PUSH2 0x15F9 JUMP JUMPDEST DUP2 SLOAD DUP2 LT PUSH2 0x201E JUMPI PUSH4 0x4E487B71 PUSH1 0xE0 SHL PUSH1 0x0 MSTORE PUSH1 0x32 PUSH1 0x4 MSTORE PUSH1 0x24 PUSH1 0x0 REVERT JUMPDEST SWAP1 PUSH1 0x0 MSTORE PUSH1 0x20 PUSH1 0x0 KECCAK256 ADD SLOAD SWAP1 POP PUSH1 0x0 DUP4 DUP3 DUP2 SLOAD DUP2 LT PUSH2 0x204D JUMPI PUSH4 0x4E487B71 PUSH1 0xE0 SHL PUSH1 0x0 MSTORE PUSH1 0x32 PUSH1 0x4 MSTORE PUSH1 0x24 PUSH1 0x0 REVERT JUMPDEST SWAP1 PUSH1 0x0 MSTORE PUSH1 0x20 PUSH1 0x0 KECCAK256 ADD SLOAD SWAP1 POP DUP3 DUP6 PUSH1 0x0 DUP4 DUP2 MSTORE PUSH1 0x20 ADD SWAP1 DUP2 MSTORE PUSH1 0x20 ADD PUSH1 0x0 KECCAK256 DUP2 SWAP1 SSTORE POP DUP1 DUP5 DUP5 DUP2 SLOAD DUP2 LT PUSH2 0x2092 JUMPI PUSH4 0x4E487B71 PUSH1 0xE0 SHL PUSH1 0x0 MSTORE PUSH1 0x32 PUSH1 0x4 MSTORE PUSH1 0x24 PUSH1 0x0 REVERT JUMPDEST PUSH1 0x0 SWAP2 DUP3 MSTORE PUSH1 0x20 DUP1 DUP4 KECCAK256 SWAP1 SWAP2 ADD SWAP3 SWAP1 SWAP3 SSTORE DUP8 DUP2 MSTORE SWAP1 DUP7 SWAP1 MSTORE PUSH1 0x40 DUP2 KECCAK256 SSTORE DUP4 SLOAD DUP5 SWAP1 DUP1 PUSH2 0x20CE JUMPI PUSH4 0x4E487B71 PUSH1 0xE0 SHL PUSH1 0x0 MSTORE PUSH1 0x31 PUSH1 0x4 MSTORE PUSH1 0x24 PUSH1 0x0 REVERT JUMPDEST PUSH1 0x1 SWAP1 SUB DUP2 DUP2 SWAP1 PUSH1 0x0 MSTORE PUSH1 0x20 PUSH1 0x0 KECCAK256 ADD PUSH1 0x0 SWAP1 SSTORE SWAP1 SSTORE POP POP POP POP POP POP JUMP JUMPDEST PUSH1 0x0 SLOAD PUSH2 0x100 SWAP1 DIV PUSH1 0xFF AND DUP1 PUSH2 0x2105 JUMPI POP PUSH1 0x0 SLOAD PUSH1 0xFF AND ISZERO JUMPDEST PUSH2 0x2121 JUMPI PUSH1 0x40 MLOAD PUSH3 0x461BCD PUSH1 0xE5 SHL DUP2 MSTORE PUSH1 0x4 ADD PUSH2 0x5D6 SWAP1 PUSH2 0x2B96 JUMP JUMPDEST PUSH1 0x0 SLOAD PUSH2 0x100 SWAP1 DIV PUSH1 0xFF AND ISZERO DUP1 ISZERO PUSH2 0x1F30 JUMPI PUSH1 0x0 DUP1 SLOAD PUSH1 0xFF NOT PUSH2 0xFF00 NOT SWAP1 SWAP2 AND PUSH2 0x100 OR AND PUSH1 0x1 OR SWAP1 SSTORE DUP1 ISZERO PUSH2 0x1309 JUMPI PUSH1 0x0 DUP1 SLOAD PUSH2 0xFF00 NOT AND SWAP1 SSTORE POP JUMP JUMPDEST PUSH1 0x0 SLOAD PUSH2 0x100 SWAP1 DIV PUSH1 0xFF AND DUP1 PUSH2 0x2178 JUMPI POP PUSH1 0x0 SLOAD PUSH1 0xFF AND ISZERO JUMPDEST PUSH2 0x2194 JUMPI PUSH1 0x40 MLOAD PUSH3 0x461BCD PUSH1 0xE5 SHL DUP2 MSTORE PUSH1 0x4 ADD PUSH2 0x5D6 SWAP1 PUSH2 0x2B96 JUMP JUMPDEST PUSH1 0x0 SLOAD PUSH2 0x100 SWAP1 DIV PUSH1 0xFF AND ISZERO DUP1 ISZERO PUSH2 0x21BF JUMPI PUSH1 0x0 DUP1 SLOAD PUSH1 0xFF NOT PUSH2 0xFF00 NOT SWAP1 SWAP2 AND PUSH2 0x100 OR AND PUSH1 0x1 OR SWAP1 SSTORE JUMPDEST PUSH2 0x1F30 PUSH2 0x21CA PUSH2 0x1554 JUMP JUMPDEST PUSH2 0x1E6E JUMP JUMPDEST PUSH1 0x60 PUSH2 0x21DE DUP5 DUP5 PUSH1 0x0 DUP6 PUSH2 0x21E6 JUMP JUMPDEST SWAP5 SWAP4 POP POP POP POP JUMP JUMPDEST PUSH1 0x60 DUP3 SELFBALANCE LT ISZERO PUSH2 0x2208 JUMPI PUSH1 0x40 MLOAD PUSH3 0x461BCD PUSH1 0xE5 SHL DUP2 MSTORE PUSH1 0x4 ADD PUSH2 0x5D6 SWAP1 PUSH2 0x2B50 JUMP JUMPDEST PUSH2 0x2211 DUP6 PUSH2 0x229B JUMP JUMPDEST PUSH2 0x222D JUMPI PUSH1 0x40 MLOAD PUSH3 0x461BCD PUSH1 0xE5 SHL DUP2 MSTORE PUSH1 0x4 ADD PUSH2 0x5D6 SWAP1 PUSH2 0x2C86 JUMP JUMPDEST PUSH1 0x0 DUP1 DUP7 PUSH1 0x1 PUSH1 0x1 PUSH1 0xA0 SHL SUB AND DUP6 DUP8 PUSH1 0x40 MLOAD PUSH2 0x2249 SWAP2 SWAP1 PUSH2 0x29A5 JUMP JUMPDEST PUSH1 0x0 PUSH1 0x40 MLOAD DUP1 DUP4 SUB DUP2 DUP6 DUP8 GAS CALL SWAP3 POP POP POP RETURNDATASIZE DUP1 PUSH1 0x0 DUP2 EQ PUSH2 0x2286 JUMPI PUSH1 0x40 MLOAD SWAP2 POP PUSH1 0x1F NOT PUSH1 0x3F RETURNDATASIZE ADD AND DUP3 ADD PUSH1 0x40 MSTORE RETURNDATASIZE DUP3 MSTORE RETURNDATASIZE PUSH1 0x0 PUSH1 0x20 DUP5 ADD RETURNDATACOPY PUSH2 0x228B JUMP JUMPDEST PUSH1 0x60 SWAP2 POP JUMPDEST POP SWAP2 POP SWAP2 POP PUSH2 0x10F7 DUP3 DUP3 DUP7 PUSH2 0x22A1 JUMP JUMPDEST EXTCODESIZE ISZERO ISZERO SWAP1 JUMP JUMPDEST PUSH1 0x60 DUP4 ISZERO PUSH2 0x22B0 JUMPI POP DUP2 PUSH2 0x1564 JUMP JUMPDEST DUP3 MLOAD ISZERO PUSH2 0x22C0 JUMPI DUP3 MLOAD DUP1 DUP5 PUSH1 0x20 ADD REVERT JUMPDEST DUP2 PUSH1 0x40 MLOAD PUSH3 0x461BCD PUSH1 0xE5 SHL DUP2 MSTORE PUSH1 0x4 ADD PUSH2 0x5D6 SWAP2 SWAP1 PUSH2 0x2A61 JUMP JUMPDEST DUP3 DUP1 SLOAD PUSH2 0x22E6 SWAP1 PUSH2 0x2F36 JUMP JUMPDEST SWAP1 PUSH1 0x0 MSTORE PUSH1 0x20 PUSH1 0x0 KECCAK256 SWAP1 PUSH1 0x1F ADD PUSH1 0x20 SWAP1 DIV DUP2 ADD SWAP3 DUP3 PUSH2 0x2308 JUMPI PUSH1 0x0 DUP6 SSTORE PUSH2 0x234E JUMP JUMPDEST DUP3 PUSH1 0x1F LT PUSH2 0x2321 JUMPI DUP1 MLOAD PUSH1 0xFF NOT AND DUP4 DUP1 ADD OR DUP6 SSTORE PUSH2 0x234E JUMP JUMPDEST DUP3 DUP1 ADD PUSH1 0x1 ADD DUP6 SSTORE DUP3 ISZERO PUSH2 0x234E JUMPI SWAP2 DUP3 ADD JUMPDEST DUP3 DUP2 GT ISZERO PUSH2 0x234E JUMPI DUP3 MLOAD DUP3 SSTORE SWAP2 PUSH1 0x20 ADD SWAP2 SWAP1 PUSH1 0x1 ADD SWAP1 PUSH2 0x2333 JUMP JUMPDEST POP PUSH2 0x235A SWAP3 SWAP2 POP PUSH2 0x23C1 JUMP JUMPDEST POP SWAP1 JUMP JUMPDEST PUSH1 0x40 MLOAD DUP1 PUSH2 0x160 ADD PUSH1 0x40 MSTORE DUP1 PUSH1 0x0 PUSH1 0x1 PUSH1 0x1 PUSH1 0xA0 SHL SUB AND DUP2 MSTORE PUSH1 0x20 ADD PUSH1 0x0 DUP2 MSTORE PUSH1 0x20 ADD PUSH1 0x60 DUP2 MSTORE PUSH1 0x20 ADD PUSH1 0x0 DUP2 MSTORE PUSH1 0x20 ADD PUSH1 0x0 DUP2 MSTORE PUSH1 0x20 ADD PUSH1 0x0 DUP2 MSTORE PUSH1 0x20 ADD PUSH1 0x0 DUP2 MSTORE PUSH1 0x20 ADD PUSH1 0x0 DUP2 MSTORE PUSH1 0x20 ADD PUSH1 0x0 DUP2 MSTORE PUSH1 0x20 ADD PUSH1 0x0 DUP2 MSTORE PUSH1 0x20 ADD PUSH1 0x0 DUP2 MSTORE POP SWAP1 JUMP JUMPDEST JUMPDEST DUP1 DUP3 GT ISZERO PUSH2 0x235A JUMPI PUSH1 0x0 DUP2 SSTORE PUSH1 0x1 ADD PUSH2 0x23C2 JUMP JUMPDEST DUP1 CALLDATALOAD PUSH2 0xCAC DUP2 PUSH2 0x2FB8 JUMP JUMPDEST PUSH1 0x0 DUP3 PUSH1 0x1F DUP4 ADD SLT PUSH2 0x23F1 JUMPI DUP1 DUP2 REVERT JUMPDEST DUP2 CALLDATALOAD PUSH1 0x20 PUSH2 0x2406 PUSH2 0x2401 DUP4 PUSH2 0x2E78 JUMP JUMPDEST PUSH2 0x2E4E JUMP JUMPDEST DUP3 DUP2 MSTORE DUP2 DUP2 ADD SWAP1 DUP6 DUP4 ADD DUP6 JUMPDEST DUP6 DUP2 LT ISZERO PUSH2 0x243B JUMPI PUSH2 0x2429 DUP10 DUP7 DUP5 CALLDATALOAD DUP12 ADD ADD PUSH2 0x24A2 JUMP JUMPDEST DUP5 MSTORE SWAP3 DUP5 ADD SWAP3 SWAP1 DUP5 ADD SWAP1 PUSH1 0x1 ADD PUSH2 0x2412 JUMP JUMPDEST POP SWAP1 SWAP8 SWAP7 POP POP POP POP POP POP POP JUMP JUMPDEST PUSH1 0x0 DUP3 PUSH1 0x1F DUP4 ADD SLT PUSH2 0x2458 JUMPI DUP1 DUP2 REVERT JUMPDEST DUP2 CALLDATALOAD PUSH1 0x20 PUSH2 0x2468 PUSH2 0x2401 DUP4 PUSH2 0x2E78 JUMP JUMPDEST DUP3 DUP2 MSTORE DUP2 DUP2 ADD SWAP1 DUP6 DUP4 ADD DUP4 DUP6 MUL DUP8 ADD DUP5 ADD DUP9 LT ISZERO PUSH2 0x2484 JUMPI DUP6 DUP7 REVERT JUMPDEST DUP6 JUMPDEST DUP6 DUP2 LT ISZERO PUSH2 0x243B JUMPI DUP2 CALLDATALOAD DUP5 MSTORE SWAP3 DUP5 ADD SWAP3 SWAP1 DUP5 ADD SWAP1 PUSH1 0x1 ADD PUSH2 0x2486 JUMP JUMPDEST PUSH1 0x0 DUP3 PUSH1 0x1F DUP4 ADD SLT PUSH2 0x24B2 JUMPI DUP1 DUP2 REVERT JUMPDEST DUP2 CALLDATALOAD PUSH8 0xFFFFFFFFFFFFFFFF DUP2 GT ISZERO PUSH2 0x24CC JUMPI PUSH2 0x24CC PUSH2 0x2FA2 JUMP JUMPDEST PUSH2 0x24DF PUSH1 0x1F DUP3 ADD PUSH1 0x1F NOT AND PUSH1 0x20 ADD PUSH2 0x2E4E JUMP JUMPDEST DUP2 DUP2 MSTORE DUP5 PUSH1 0x20 DUP4 DUP7 ADD ADD GT ISZERO PUSH2 0x24F3 JUMPI DUP3 DUP4 REVERT JUMPDEST DUP2 PUSH1 0x20 DUP6 ADD PUSH1 0x20 DUP4 ADD CALLDATACOPY SWAP1 DUP2 ADD PUSH1 0x20 ADD SWAP2 SWAP1 SWAP2 MSTORE SWAP3 SWAP2 POP POP JUMP JUMPDEST PUSH1 0x0 PUSH1 0x20 DUP3 DUP5 SUB SLT ISZERO PUSH2 0x251E JUMPI DUP1 DUP2 REVERT JUMPDEST DUP2 CALLDATALOAD PUSH2 0x1564 DUP2 PUSH2 0x2FB8 JUMP JUMPDEST PUSH1 0x0 DUP1 PUSH1 0x40 DUP4 DUP6 SUB SLT ISZERO PUSH2 0x253B JUMPI DUP1 DUP2 REVERT JUMPDEST DUP3 CALLDATALOAD PUSH2 0x2546 DUP2 PUSH2 0x2FB8 JUMP JUMPDEST SWAP2 POP PUSH1 0x20 DUP4 ADD CALLDATALOAD PUSH2 0x2556 DUP2 PUSH2 0x2FCD JUMP JUMPDEST DUP1 SWAP2 POP POP SWAP3 POP SWAP3 SWAP1 POP JUMP JUMPDEST PUSH1 0x0 DUP1 PUSH1 0x0 DUP1 PUSH1 0x80 DUP6 DUP8 SUB SLT ISZERO PUSH2 0x2576 JUMPI DUP2 DUP3 REVERT JUMPDEST DUP5 CALLDATALOAD PUSH2 0x2581 DUP2 PUSH2 0x2FB8 JUMP JUMPDEST SWAP4 POP PUSH1 0x20 DUP6 ADD CALLDATALOAD PUSH2 0x2591 DUP2 PUSH2 0x2FB8 JUMP JUMPDEST SWAP3 POP PUSH1 0x40 DUP6 ADD CALLDATALOAD PUSH2 0x25A1 DUP2 PUSH2 0x2FB8 JUMP JUMPDEST SWAP2 POP PUSH1 0x60 DUP6 ADD CALLDATALOAD PUSH2 0x25B1 DUP2 PUSH2 0x2FB8 JUMP JUMPDEST SWAP4 SWAP7 SWAP3 SWAP6 POP SWAP1 SWAP4 POP POP JUMP JUMPDEST PUSH1 0x0 DUP1 PUSH1 0x40 DUP4 DUP6 SUB SLT ISZERO PUSH2 0x25CE JUMPI DUP2 DUP3 REVERT JUMPDEST DUP3 CALLDATALOAD PUSH2 0x25D9 DUP2 PUSH2 0x2FB8 JUMP JUMPDEST SWAP5 PUSH1 0x20 SWAP4 SWAP1 SWAP4 ADD CALLDATALOAD SWAP4 POP POP POP JUMP JUMPDEST PUSH1 0x0 DUP1 PUSH1 0x0 DUP1 PUSH1 0x80 DUP6 DUP8 SUB SLT ISZERO PUSH2 0x25FC JUMPI DUP4 DUP5 REVERT JUMPDEST DUP5 CALLDATALOAD PUSH2 0x2607 DUP2 PUSH2 0x2FB8 JUMP JUMPDEST SWAP7 PUSH1 0x20 DUP7 ADD CALLDATALOAD SWAP7 POP PUSH1 0x40 DUP7 ADD CALLDATALOAD SWAP6 PUSH1 0x60 ADD CALLDATALOAD SWAP5 POP SWAP3 POP POP POP JUMP JUMPDEST PUSH1 0x0 DUP1 PUSH1 0x0 DUP1 PUSH1 0x0 PUSH1 0xA0 DUP7 DUP9 SUB SLT ISZERO PUSH2 0x2638 JUMPI DUP3 DUP4 REVERT JUMPDEST DUP6 CALLDATALOAD PUSH8 0xFFFFFFFFFFFFFFFF DUP1 DUP3 GT ISZERO PUSH2 0x264F JUMPI DUP5 DUP6 REVERT JUMPDEST PUSH2 0x265B DUP10 DUP4 DUP11 ADD PUSH2 0x2448 JUMP JUMPDEST SWAP7 POP PUSH1 0x20 DUP9 ADD CALLDATALOAD SWAP2 POP DUP1 DUP3 GT ISZERO PUSH2 0x2670 JUMPI DUP5 DUP6 REVERT JUMPDEST PUSH2 0x267C DUP10 DUP4 DUP11 ADD PUSH2 0x2448 JUMP JUMPDEST SWAP6 POP PUSH1 0x40 DUP9 ADD CALLDATALOAD SWAP2 POP DUP1 DUP3 GT ISZERO PUSH2 0x2691 JUMPI DUP5 DUP6 REVERT JUMPDEST PUSH2 0x269D DUP10 DUP4 DUP11 ADD PUSH2 0x23E1 JUMP JUMPDEST SWAP5 POP PUSH1 0x60 DUP9 ADD CALLDATALOAD SWAP2 POP DUP1 DUP3 GT ISZERO PUSH2 0x26B2 JUMPI DUP3 DUP4 REVERT JUMPDEST PUSH2 0x26BE DUP10 DUP4 DUP11 ADD PUSH2 0x2448 JUMP JUMPDEST SWAP4 POP PUSH1 0x80 DUP9 ADD CALLDATALOAD SWAP2 POP DUP1 DUP3 GT ISZERO PUSH2 0x26D3 JUMPI DUP3 DUP4 REVERT JUMPDEST POP PUSH2 0x26E0 DUP9 DUP3 DUP10 ADD PUSH2 0x23E1 JUMP JUMPDEST SWAP2 POP POP SWAP3 SWAP6 POP SWAP3 SWAP6 SWAP1 SWAP4 POP JUMP JUMPDEST PUSH1 0x0 PUSH1 0x20 DUP3 DUP5 SUB SLT ISZERO PUSH2 0x26FE JUMPI DUP1 DUP2 REVERT JUMPDEST DUP2 MLOAD PUSH2 0x1564 DUP2 PUSH2 0x2FCD JUMP JUMPDEST PUSH1 0x0 PUSH1 0x20 DUP3 DUP5 SUB SLT ISZERO PUSH2 0x271A JUMPI DUP1 DUP2 REVERT JUMPDEST POP CALLDATALOAD SWAP2 SWAP1 POP JUMP JUMPDEST PUSH1 0x0 PUSH1 0x20 DUP3 DUP5 SUB SLT ISZERO PUSH2 0x2732 JUMPI DUP1 DUP2 REVERT JUMPDEST POP MLOAD SWAP2 SWAP1 POP JUMP JUMPDEST PUSH1 0x0 DUP1 PUSH1 0x0 DUP1 PUSH1 0x0 DUP1 PUSH1 0x0 DUP1 PUSH1 0x0 DUP1 PUSH1 0x0 DUP1 PUSH2 0x180 DUP14 DUP16 SUB SLT ISZERO PUSH2 0x275B JUMPI DUP10 DUP11 REVERT JUMPDEST DUP13 CALLDATALOAD SWAP12 POP PUSH2 0x276B PUSH1 0x20 DUP15 ADD PUSH2 0x23D6 JUMP JUMPDEST SWAP11 POP PUSH1 0x40 DUP14 ADD CALLDATALOAD SWAP10 POP PUSH8 0xFFFFFFFFFFFFFFFF PUSH1 0x60 DUP15 ADD CALLDATALOAD GT ISZERO PUSH2 0x278C JUMPI DUP7 DUP8 REVERT JUMPDEST PUSH2 0x279C DUP15 PUSH1 0x60 DUP16 ADD CALLDATALOAD DUP16 ADD PUSH2 0x24A2 JUMP JUMPDEST SWAP12 SWAP15 SWAP11 SWAP14 POP SWAP9 SWAP12 PUSH1 0x80 DUP2 ADD CALLDATALOAD SWAP11 PUSH1 0xA0 DUP3 ADD CALLDATALOAD SWAP11 POP PUSH1 0xC0 DUP3 ADD CALLDATALOAD SWAP10 POP PUSH1 0xE0 DUP3 ADD CALLDATALOAD SWAP9 POP PUSH2 0x100 DUP3 ADD CALLDATALOAD SWAP8 POP PUSH2 0x120 DUP3 ADD CALLDATALOAD SWAP7 POP PUSH2 0x140 DUP3 ADD CALLDATALOAD SWAP6 POP PUSH2 0x160 SWAP1 SWAP2 ADD CALLDATALOAD SWAP4 POP SWAP2 POP POP JUMP JUMPDEST PUSH1 0x0 DUP1 PUSH1 0x0 DUP1 PUSH1 0x0 PUSH1 0xA0 DUP7 DUP9 SUB SLT ISZERO PUSH2 0x27FB JUMPI DUP3 DUP4 REVERT JUMPDEST DUP6 CALLDATALOAD SWAP5 POP PUSH1 0x20 DUP7 ADD CALLDATALOAD SWAP4 POP PUSH1 0x40 DUP7 ADD CALLDATALOAD PUSH8 0xFFFFFFFFFFFFFFFF DUP1 DUP3 GT ISZERO PUSH2 0x2820 JUMPI DUP5 DUP6 REVERT JUMPDEST PUSH2 0x282C DUP10 DUP4 DUP11 ADD PUSH2 0x24A2 JUMP JUMPDEST SWAP5 POP PUSH1 0x60 DUP9 ADD CALLDATALOAD SWAP4 POP PUSH1 0x80 DUP9 ADD CALLDATALOAD SWAP2 POP DUP1 DUP3 GT ISZERO PUSH2 0x2848 JUMPI DUP3 DUP4 REVERT JUMPDEST POP PUSH2 0x26E0 DUP9 DUP3 DUP10 ADD PUSH2 0x24A2 JUMP JUMPDEST PUSH1 0x0 DUP1 PUSH1 0x0 DUP1 PUSH1 0x0 DUP1 PUSH1 0xC0 DUP8 DUP10 SUB SLT ISZERO PUSH2 0x286D JUMPI DUP4 DUP5 REVERT JUMPDEST DUP7 CALLDATALOAD SWAP6 POP PUSH1 0x20 DUP8 ADD CALLDATALOAD SWAP5 POP PUSH1 0x40 DUP8 ADD CALLDATALOAD PUSH8 0xFFFFFFFFFFFFFFFF DUP1 DUP3 GT ISZERO PUSH2 0x2892 JUMPI DUP6 DUP7 REVERT JUMPDEST PUSH2 0x289E DUP11 DUP4 DUP12 ADD PUSH2 0x24A2 JUMP JUMPDEST SWAP6 POP PUSH1 0x60 DUP10 ADD CALLDATALOAD SWAP5 POP PUSH1 0x80 DUP10 ADD CALLDATALOAD SWAP2 POP DUP1 DUP3 GT ISZERO PUSH2 0x28BA JUMPI DUP4 DUP5 REVERT JUMPDEST POP PUSH2 0x28C7 DUP10 DUP3 DUP11 ADD PUSH2 0x24A2 JUMP JUMPDEST SWAP3 POP POP PUSH1 0xA0 DUP8 ADD CALLDATALOAD SWAP1 POP SWAP3 SWAP6 POP SWAP3 SWAP6 POP SWAP3 SWAP6 JUMP JUMPDEST PUSH1 0x0 DUP1 PUSH1 0x0 DUP1 PUSH1 0x0 DUP1 PUSH1 0x0 PUSH1 0xE0 DUP9 DUP11 SUB SLT ISZERO PUSH2 0x28F5 JUMPI DUP1 DUP2 REVERT JUMPDEST DUP8 CALLDATALOAD SWAP7 POP PUSH1 0x20 DUP9 ADD CALLDATALOAD SWAP6 POP PUSH1 0x40 DUP9 ADD CALLDATALOAD SWAP5 POP PUSH1 0x60 DUP9 ADD CALLDATALOAD PUSH8 0xFFFFFFFFFFFFFFFF DUP1 DUP3 GT ISZERO PUSH2 0x2921 JUMPI DUP3 DUP4 REVERT JUMPDEST PUSH2 0x292D DUP12 DUP4 DUP13 ADD PUSH2 0x24A2 JUMP JUMPDEST SWAP6 POP PUSH1 0x80 DUP11 ADD CALLDATALOAD SWAP5 POP PUSH1 0xA0 DUP11 ADD CALLDATALOAD SWAP4 POP PUSH1 0xC0 DUP11 ADD CALLDATALOAD SWAP2 POP DUP1 DUP3 GT ISZERO PUSH2 0x2950 JUMPI DUP3 DUP4 REVERT JUMPDEST POP PUSH2 0x295D DUP11 DUP3 DUP12 ADD PUSH2 0x24A2 JUMP JUMPDEST SWAP2 POP POP SWAP3 SWAP6 SWAP9 SWAP2 SWAP5 SWAP8 POP SWAP3 SWAP6 POP JUMP JUMPDEST PUSH1 0x1 PUSH1 0x1 PUSH1 0xA0 SHL SUB AND SWAP1 MSTORE JUMP JUMPDEST PUSH1 0x0 DUP2 MLOAD DUP1 DUP5 MSTORE PUSH2 0x2991 DUP2 PUSH1 0x20 DUP7 ADD PUSH1 0x20 DUP7 ADD PUSH2 0x2F0A JUMP JUMPDEST PUSH1 0x1F ADD PUSH1 0x1F NOT AND SWAP3 SWAP1 SWAP3 ADD PUSH1 0x20 ADD SWAP3 SWAP2 POP POP JUMP JUMPDEST PUSH1 0x0 DUP3 MLOAD PUSH2 0x29B7 DUP2 DUP5 PUSH1 0x20 DUP8 ADD PUSH2 0x2F0A JUMP JUMPDEST SWAP2 SWAP1 SWAP2 ADD SWAP3 SWAP2 POP POP JUMP JUMPDEST PUSH1 0x1 PUSH1 0x1 PUSH1 0xA0 SHL SUB SWAP2 SWAP1 SWAP2 AND DUP2 MSTORE PUSH1 0x20 ADD SWAP1 JUMP JUMPDEST PUSH1 0x1 PUSH1 0x1 PUSH1 0xA0 SHL SUB SWAP4 DUP5 AND DUP2 MSTORE SWAP2 SWAP1 SWAP3 AND PUSH1 0x20 DUP3 ADD MSTORE PUSH1 0x40 DUP2 ADD SWAP2 SWAP1 SWAP2 MSTORE PUSH1 0x60 ADD SWAP1 JUMP JUMPDEST PUSH1 0x1 PUSH1 0x1 PUSH1 0xA0 SHL SUB SWAP3 SWAP1 SWAP3 AND DUP3 MSTORE PUSH1 0x20 DUP3 ADD MSTORE PUSH1 0x40 ADD SWAP1 JUMP JUMPDEST PUSH1 0x20 DUP1 DUP3 MSTORE DUP3 MLOAD DUP3 DUP3 ADD DUP2 SWAP1 MSTORE PUSH1 0x0 SWAP2 SWAP1 DUP5 DUP3 ADD SWAP1 PUSH1 0x40 DUP6 ADD SWAP1 DUP5 JUMPDEST DUP2 DUP2 LT ISZERO PUSH2 0x2A4A JUMPI DUP4 MLOAD DUP4 MSTORE SWAP3 DUP5 ADD SWAP3 SWAP2 DUP5 ADD SWAP2 PUSH1 0x1 ADD PUSH2 0x2A2E JUMP JUMPDEST POP SWAP1 SWAP7 SWAP6 POP POP POP POP POP POP JUMP JUMPDEST SWAP1 ISZERO ISZERO DUP2 MSTORE PUSH1 0x20 ADD SWAP1 JUMP JUMPDEST PUSH1 0x0 PUSH1 0x20 DUP3 MSTORE PUSH2 0x1564 PUSH1 0x20 DUP4 ADD DUP5 PUSH2 0x2979 JUMP JUMPDEST PUSH1 0x20 DUP1 DUP3 MSTORE PUSH1 0x14 SWAP1 DUP3 ADD MSTORE PUSH20 0x1BDC99195C88191BD95CC81B9BDD08195E1A5CDD PUSH1 0x62 SHL PUSH1 0x40 DUP3 ADD MSTORE PUSH1 0x60 ADD SWAP1 JUMP JUMPDEST PUSH1 0x20 DUP1 DUP3 MSTORE PUSH1 0x26 SWAP1 DUP3 ADD MSTORE PUSH32 0x4F776E61626C653A206E6577206F776E657220697320746865207A65726F2061 PUSH1 0x40 DUP3 ADD MSTORE PUSH6 0x646472657373 PUSH1 0xD0 SHL PUSH1 0x60 DUP3 ADD MSTORE PUSH1 0x80 ADD SWAP1 JUMP JUMPDEST PUSH1 0x20 DUP1 DUP3 MSTORE PUSH1 0xA SWAP1 DUP3 ADD MSTORE PUSH10 0x37B930B1B6329032B939 PUSH1 0xB1 SHL PUSH1 0x40 DUP3 ADD MSTORE PUSH1 0x60 ADD SWAP1 JUMP JUMPDEST PUSH1 0x20 DUP1 DUP3 MSTORE PUSH1 0x24 SWAP1 DUP3 ADD MSTORE PUSH32 0x6578656375746F723A2063616C6C6572206973206E6F74207468652065786563 PUSH1 0x40 DUP3 ADD MSTORE PUSH4 0x3ABA37B9 PUSH1 0xE1 SHL PUSH1 0x60 DUP3 ADD MSTORE PUSH1 0x80 ADD SWAP1 JUMP JUMPDEST PUSH1 0x20 DUP1 DUP3 MSTORE PUSH1 0x26 SWAP1 DUP3 ADD MSTORE PUSH32 0x416464726573733A20696E73756666696369656E742062616C616E636520666F PUSH1 0x40 DUP3 ADD MSTORE PUSH6 0x1C8818D85B1B PUSH1 0xD2 SHL PUSH1 0x60 DUP3 ADD MSTORE PUSH1 0x80 ADD SWAP1 JUMP JUMPDEST PUSH1 0x20 DUP1 DUP3 MSTORE PUSH1 0x2E SWAP1 DUP3 ADD MSTORE PUSH32 0x496E697469616C697A61626C653A20636F6E747261637420697320616C726561 PUSH1 0x40 DUP3 ADD MSTORE PUSH14 0x191E481A5B9A5D1A585B1A5E9959 PUSH1 0x92 SHL PUSH1 0x60 DUP3 ADD MSTORE PUSH1 0x80 ADD SWAP1 JUMP JUMPDEST PUSH1 0x20 DUP1 DUP3 MSTORE PUSH1 0x23 SWAP1 DUP3 ADD MSTORE PUSH32 0x546865207472616E73616374696F6E20616D6F756E7420697320746F6F20736D PUSH1 0x40 DUP3 ADD MSTORE PUSH3 0x185B1B PUSH1 0xEA SHL PUSH1 0x60 DUP3 ADD MSTORE PUSH1 0x80 ADD SWAP1 JUMP JUMPDEST PUSH1 0x20 DUP1 DUP3 MSTORE PUSH1 0x10 SWAP1 DUP3 ADD MSTORE PUSH16 0x155CD95C881A5CC818985B9ADC9D5C1D PUSH1 0x82 SHL PUSH1 0x40 DUP3 ADD MSTORE PUSH1 0x60 ADD SWAP1 JUMP JUMPDEST PUSH1 0x20 DUP1 DUP3 MSTORE DUP2 DUP2 ADD MSTORE PUSH32 0x4F776E61626C653A2063616C6C6572206973206E6F7420746865206F776E6572 PUSH1 0x40 DUP3 ADD MSTORE PUSH1 0x60 ADD SWAP1 JUMP JUMPDEST PUSH1 0x20 DUP1 DUP3 MSTORE PUSH1 0x1D SWAP1 DUP3 ADD MSTORE PUSH32 0x416464726573733A2063616C6C20746F206E6F6E2D636F6E7472616374000000 PUSH1 0x40 DUP3 ADD MSTORE PUSH1 0x60 ADD SWAP1 JUMP JUMPDEST PUSH1 0x20 DUP1 DUP3 MSTORE PUSH1 0xA SWAP1 DUP3 ADD MSTORE PUSH10 0x3632B733BA341032B939 PUSH1 0xB1 SHL PUSH1 0x40 DUP3 ADD MSTORE PUSH1 0x60 ADD SWAP1 JUMP JUMPDEST PUSH1 0x20 DUP1 DUP3 MSTORE PUSH1 0x8 SWAP1 DUP3 ADD MSTORE PUSH8 0x3AB9B2B91032B939 PUSH1 0xC1 SHL PUSH1 0x40 DUP3 ADD MSTORE PUSH1 0x60 ADD SWAP1 JUMP JUMPDEST PUSH1 0x20 DUP1 DUP3 MSTORE PUSH1 0x9 SWAP1 DUP3 ADD MSTORE PUSH9 0x39BA30BA329032B939 PUSH1 0xB9 SHL PUSH1 0x40 DUP3 ADD MSTORE PUSH1 0x60 ADD SWAP1 JUMP JUMPDEST PUSH1 0x20 DUP1 DUP3 MSTORE PUSH1 0x2A SWAP1 DUP3 ADD MSTORE PUSH32 0x5361666545524332303A204552433230206F7065726174696F6E20646964206E PUSH1 0x40 DUP3 ADD MSTORE PUSH10 0x1BDD081CDD58D8D95959 PUSH1 0xB2 SHL PUSH1 0x60 DUP3 ADD MSTORE PUSH1 0x80 ADD SWAP1 JUMP JUMPDEST PUSH1 0x0 PUSH1 0x20 DUP3 MSTORE PUSH2 0x2D84 PUSH1 0x20 DUP4 ADD DUP5 MLOAD PUSH2 0x296C JUMP JUMPDEST PUSH1 0x20 DUP4 ADD MLOAD PUSH1 0x40 DUP4 ADD MSTORE PUSH1 0x40 DUP4 ADD MLOAD PUSH2 0x160 DUP1 PUSH1 0x60 DUP6 ADD MSTORE PUSH2 0x2DAA PUSH2 0x180 DUP6 ADD DUP4 PUSH2 0x2979 JUMP JUMPDEST SWAP2 POP PUSH1 0x60 DUP6 ADD MLOAD PUSH1 0x80 DUP6 ADD MSTORE PUSH1 0x80 DUP6 ADD MLOAD PUSH1 0xA0 DUP6 ADD MSTORE PUSH1 0xA0 DUP6 ADD MLOAD PUSH1 0xC0 DUP6 ADD MSTORE PUSH1 0xC0 DUP6 ADD MLOAD PUSH1 0xE0 DUP6 ADD MSTORE PUSH1 0xE0 DUP6 ADD MLOAD PUSH2 0x100 DUP2 DUP2 DUP8 ADD MSTORE DUP1 DUP8 ADD MLOAD SWAP2 POP POP PUSH2 0x120 DUP2 DUP2 DUP8 ADD MSTORE DUP1 DUP8 ADD MLOAD SWAP2 POP POP PUSH2 0x140 DUP2 DUP2 DUP8 ADD MSTORE DUP1 DUP8 ADD MLOAD DUP4 DUP8 ADD MSTORE POP POP POP DUP1 SWAP2 POP POP SWAP3 SWAP2 POP POP JUMP JUMPDEST SWAP1 DUP2 MSTORE PUSH1 0x20 ADD SWAP1 JUMP JUMPDEST PUSH1 0x0 DUP6 DUP3 MSTORE DUP5 PUSH1 0x20 DUP4 ADD MSTORE PUSH1 0x80 PUSH1 0x40 DUP4 ADD MSTORE PUSH2 0x2E3C PUSH1 0x80 DUP4 ADD DUP6 PUSH2 0x2979 JUMP JUMPDEST DUP3 DUP2 SUB PUSH1 0x60 DUP5 ADD MSTORE PUSH2 0x10F7 DUP2 DUP6 PUSH2 0x2979 JUMP JUMPDEST PUSH1 0x40 MLOAD DUP2 DUP2 ADD PUSH8 0xFFFFFFFFFFFFFFFF DUP2 GT DUP3 DUP3 LT OR ISZERO PUSH2 0x2E70 JUMPI PUSH2 0x2E70 PUSH2 0x2FA2 JUMP JUMPDEST PUSH1 0x40 MSTORE SWAP2 SWAP1 POP JUMP JUMPDEST PUSH1 0x0 PUSH8 0xFFFFFFFFFFFFFFFF DUP3 GT ISZERO PUSH2 0x2E92 JUMPI PUSH2 0x2E92 PUSH2 0x2FA2 JUMP JUMPDEST POP PUSH1 0x20 SWAP1 DUP2 MUL ADD SWAP1 JUMP JUMPDEST PUSH1 0x0 DUP3 NOT DUP3 GT ISZERO PUSH2 0x2EAF JUMPI PUSH2 0x2EAF PUSH2 0x2F8C JUMP JUMPDEST POP ADD SWAP1 JUMP JUMPDEST PUSH1 0x0 DUP3 PUSH2 0x2ECF JUMPI PUSH4 0x4E487B71 PUSH1 0xE0 SHL DUP2 MSTORE PUSH1 0x12 PUSH1 0x4 MSTORE PUSH1 0x24 DUP2 REVERT JUMPDEST POP DIV SWAP1 JUMP JUMPDEST PUSH1 0x0 DUP2 PUSH1 0x0 NOT DIV DUP4 GT DUP3 ISZERO ISZERO AND ISZERO PUSH2 0x2EEE JUMPI PUSH2 0x2EEE PUSH2 0x2F8C JUMP JUMPDEST POP MUL SWAP1 JUMP JUMPDEST PUSH1 0x0 DUP3 DUP3 LT ISZERO PUSH2 0x2F05 JUMPI PUSH2 0x2F05 PUSH2 0x2F8C JUMP JUMPDEST POP SUB SWAP1 JUMP JUMPDEST PUSH1 0x0 JUMPDEST DUP4 DUP2 LT ISZERO PUSH2 0x2F25 JUMPI DUP2 DUP2 ADD MLOAD DUP4 DUP3 ADD MSTORE PUSH1 0x20 ADD PUSH2 0x2F0D JUMP JUMPDEST DUP4 DUP2 GT ISZERO PUSH2 0x15C3 JUMPI POP POP PUSH1 0x0 SWAP2 ADD MSTORE JUMP JUMPDEST PUSH1 0x2 DUP2 DIV PUSH1 0x1 DUP3 AND DUP1 PUSH2 0x2F4A JUMPI PUSH1 0x7F DUP3 AND SWAP2 POP JUMPDEST PUSH1 0x20 DUP3 LT DUP2 EQ ISZERO PUSH2 0x2F6B JUMPI PUSH4 0x4E487B71 PUSH1 0xE0 SHL PUSH1 0x0 MSTORE PUSH1 0x22 PUSH1 0x4 MSTORE PUSH1 0x24 PUSH1 0x0 REVERT JUMPDEST POP SWAP2 SWAP1 POP JUMP JUMPDEST PUSH1 0x0 PUSH1 0x0 NOT DUP3 EQ ISZERO PUSH2 0x2F85 JUMPI PUSH2 0x2F85 PUSH2 0x2F8C JUMP JUMPDEST POP PUSH1 0x1 ADD SWAP1 JUMP JUMPDEST PUSH4 0x4E487B71 PUSH1 0xE0 SHL PUSH1 0x0 MSTORE PUSH1 0x11 PUSH1 0x4 MSTORE PUSH1 0x24 PUSH1 0x0 REVERT JUMPDEST PUSH4 0x4E487B71 PUSH1 0xE0 SHL PUSH1 0x0 MSTORE PUSH1 0x41 PUSH1 0x4 MSTORE PUSH1 0x24 PUSH1 0x0 REVERT JUMPDEST PUSH1 0x1 PUSH1 0x1 PUSH1 0xA0 SHL SUB DUP2 AND DUP2 EQ PUSH2 0x1309 JUMPI PUSH1 0x0 DUP1 REVERT JUMPDEST DUP1 ISZERO ISZERO DUP2 EQ PUSH2 0x1309 JUMPI PUSH1 0x0 DUP1 REVERT INVALID LOG2 PUSH5 0x6970667358 0x22 SLT KECCAK256 0xD1 DELEGATECALL 0xAA DUP2 SWAP5 LOG4 SWAP10 0xE9 LOG2 JUMP 0x4D CALLDATASIZE 0xE1 SGT 0xC7 0x28 PUSH9 0x582D5DA8D020DEE14D PUSH7 0x20871319D86473 PUSH16 0x6C634300080000330000000000000000 "
				},
				"gasEstimates": {
					"creation": {
						"codeDepositCost": "2461000",
						"executionCost": "2650",
						"totalCost": "2463650"
					},
					"external": {
						"OrderIndex()": "1094",
						"PRECISION()": "1095",
						"adjustPosition(uint256,uint256,string,uint256,bytes,uint256)": "infinite",
						"closePosition(uint256,uint256,string,uint256,bytes)": "infinite",
						"executor(address)": "1326",
						"feePercent()": "1074",
						"forcedLiquidation(uint256,uint256,string,uint256,bytes)": "infinite",
						"helperLogic()": "1116",
						"initialize(address,address,address,address)": "infinite",
						"liquidation(uint256[],uint256[],string[],uint256[],bytes[])": "infinite",
						"minVal()": "1139",
						"myCloseOrderIdList(address,uint256)": "2226",
						"myCloseOrderIdListLength(address)": "infinite",
						"myCloseOrderIdList_index(address,uint256)": "1428",
						"myOpenOrderIdList(address,uint256)": "2270",
						"myOpenOrderIdListLength(address)": "infinite",
						"myOpenOrderIdList_index(address,uint256)": "1428",
						"openOrderIdList(uint256)": "2065",
						"openOrderIdList_index(uint256)": "1283",
						"openPosition(uint256,uint256,uint256,string,uint256,uint256,bytes)": "infinite",
						"oracle()": "1181",
						"orderInfo(uint256)": "infinite",
						"owner()": "1138",
						"pagination(address,uint256,uint256,uint256)": "infinite",
						"renounceOwnership()": "23574",
						"setExecutor(address,bool)": "infinite",
						"setOrderInfo(uint256,address,uint256,string,uint256,uint256,uint256,uint256,uint256,uint256,uint256,uint256)": "infinite",
						"setSigner(address)": "22298",
						"signer()": "1138",
						"transferOwnership(address)": "infinite",
						"usc()": "1160"
					},
					"internal": {
						"_closePosition(struct mirrorseaMain.OrderInfo storage pointer,uint256,uint256,uint256,string memory,uint256,bytes memory)": "infinite",
						"_isSolvent(uint256,uint256,uint256)": "infinite",
						"cutListItem(uint256,mapping(uint256 => uint256),uint256[] storage pointer)": "77174"
					}
				},
				"methodIdentifiers": {
					"OrderIndex()": "f7ab69fd",
					"PRECISION()": "aaf5eb68",
					"adjustPosition(uint256,uint256,string,uint256,bytes,uint256)": "99315ccf",
					"closePosition(uint256,uint256,string,uint256,bytes)": "a17397db",
					"executor(address)": "48c7e528",
					"feePercent()": "7fd6f15c",
					"forcedLiquidation(uint256,uint256,string,uint256,bytes)": "a80c3cd3",
					"helperLogic()": "1e64610c",
					"initialize(address,address,address,address)": "f8c8765e",
					"liquidation(uint256[],uint256[],string[],uint256[],bytes[])": "6dbe9624",
					"minVal()": "f14053ad",
					"myCloseOrderIdList(address,uint256)": "ec4c4f34",
					"myCloseOrderIdListLength(address)": "aecf77b1",
					"myCloseOrderIdList_index(address,uint256)": "f0c765e4",
					"myOpenOrderIdList(address,uint256)": "c2ec527d",
					"myOpenOrderIdListLength(address)": "e4e95520",
					"myOpenOrderIdList_index(address,uint256)": "7be3a1a1",
					"openOrderIdList(uint256)": "0f58d242",
					"openOrderIdList_index(uint256)": "43b1f3cb",
					"openPosition(uint256,uint256,uint256,string,uint256,uint256,bytes)": "475b4fd3",
					"oracle()": "7dc0d1d0",
					"orderInfo(uint256)": "6ab34a4a",
					"owner()": "8da5cb5b",
					"pagination(address,uint256,uint256,uint256)": "080270a8",
					"renounceOwnership()": "715018a6",
					"setExecutor(address,bool)": "1e1bff3f",
					"setOrderInfo(uint256,address,uint256,string,uint256,uint256,uint256,uint256,uint256,uint256,uint256,uint256)": "fc234d06",
					"setSigner(address)": "6c19e783",
					"signer()": "238ac933",
					"transferOwnership(address)": "f2fde38b",
					"usc()": "3011d3d5"
				}
			},
			"storageLayout": {
				"storage": [
					{
						"astId": 130,
						"contract": "contracts/mirrorseaMain.sol:mirrorseaMain",
						"label": "_initialized",
						"offset": 0,
						"slot": "0",
						"type": "t_bool"
					},
					{
						"astId": 133,
						"contract": "contracts/mirrorseaMain.sol:mirrorseaMain",
						"label": "_initializing",
						"offset": 1,
						"slot": "0",
						"type": "t_bool"
					},
					{
						"astId": 760,
						"contract": "contracts/mirrorseaMain.sol:mirrorseaMain",
						"label": "__gap",
						"offset": 0,
						"slot": "1",
						"type": "t_array(t_uint256)50_storage"
					},
					{
						"astId": 10,
						"contract": "contracts/mirrorseaMain.sol:mirrorseaMain",
						"label": "_owner",
						"offset": 0,
						"slot": "51",
						"type": "t_address"
					},
					{
						"astId": 124,
						"contract": "contracts/mirrorseaMain.sol:mirrorseaMain",
						"label": "__gap",
						"offset": 0,
						"slot": "52",
						"type": "t_array(t_uint256)49_storage"
					},
					{
						"astId": 1130,
						"contract": "contracts/mirrorseaMain.sol:mirrorseaMain",
						"label": "executor",
						"offset": 0,
						"slot": "101",
						"type": "t_mapping(t_address,t_bool)"
					},
					{
						"astId": 1132,
						"contract": "contracts/mirrorseaMain.sol:mirrorseaMain",
						"label": "signer",
						"offset": 0,
						"slot": "102",
						"type": "t_address"
					},
					{
						"astId": 1135,
						"contract": "contracts/mirrorseaMain.sol:mirrorseaMain",
						"label": "usc",
						"offset": 0,
						"slot": "103",
						"type": "t_contract(IERC20Upgradeable)248"
					},
					{
						"astId": 1138,
						"contract": "contracts/mirrorseaMain.sol:mirrorseaMain",
						"label": "helperLogic",
						"offset": 0,
						"slot": "104",
						"type": "t_contract(IhelperLogic)1086"
					},
					{
						"astId": 1141,
						"contract": "contracts/mirrorseaMain.sol:mirrorseaMain",
						"label": "oracle",
						"offset": 0,
						"slot": "105",
						"type": "t_contract(IOracle)1100"
					},
					{
						"astId": 1146,
						"contract": "contracts/mirrorseaMain.sol:mirrorseaMain",
						"label": "_orderInfo",
						"offset": 0,
						"slot": "106",
						"type": "t_mapping(t_uint256,t_struct(OrderInfo)1206_storage)"
					},
					{
						"astId": 1148,
						"contract": "contracts/mirrorseaMain.sol:mirrorseaMain",
						"label": "OrderIndex",
						"offset": 0,
						"slot": "107",
						"type": "t_uint256"
					},
					{
						"astId": 1151,
						"contract": "contracts/mirrorseaMain.sol:mirrorseaMain",
						"label": "openOrderIdList",
						"offset": 0,
						"slot": "108",
						"type": "t_array(t_uint256)dyn_storage"
					},
					{
						"astId": 1155,
						"contract": "contracts/mirrorseaMain.sol:mirrorseaMain",
						"label": "openOrderIdList_index",
						"offset": 0,
						"slot": "109",
						"type": "t_mapping(t_uint256,t_uint256)"
					},
					{
						"astId": 1160,
						"contract": "contracts/mirrorseaMain.sol:mirrorseaMain",
						"label": "myOpenOrderIdList",
						"offset": 0,
						"slot": "110",
						"type": "t_mapping(t_address,t_array(t_uint256)dyn_storage)"
					},
					{
						"astId": 1166,
						"contract": "contracts/mirrorseaMain.sol:mirrorseaMain",
						"label": "myOpenOrderIdList_index",
						"offset": 0,
						"slot": "111",
						"type": "t_mapping(t_address,t_mapping(t_uint256,t_uint256))"
					},
					{
						"astId": 1171,
						"contract": "contracts/mirrorseaMain.sol:mirrorseaMain",
						"label": "myCloseOrderIdList",
						"offset": 0,
						"slot": "112",
						"type": "t_mapping(t_address,t_array(t_uint256)dyn_storage)"
					},
					{
						"astId": 1177,
						"contract": "contracts/mirrorseaMain.sol:mirrorseaMain",
						"label": "myCloseOrderIdList_index",
						"offset": 0,
						"slot": "113",
						"type": "t_mapping(t_address,t_mapping(t_uint256,t_uint256))"
					},
					{
						"astId": 1179,
						"contract": "contracts/mirrorseaMain.sol:mirrorseaMain",
						"label": "feePercent",
						"offset": 0,
						"slot": "114",
						"type": "t_uint256"
					},
					{
						"astId": 1181,
						"contract": "contracts/mirrorseaMain.sol:mirrorseaMain",
						"label": "PRECISION",
						"offset": 0,
						"slot": "115",
						"type": "t_uint256"
					},
					{
						"astId": 1183,
						"contract": "contracts/mirrorseaMain.sol:mirrorseaMain",
						"label": "minVal",
						"offset": 0,
						"slot": "116",
						"type": "t_uint256"
					}
				],
				"types": {
					"t_address": {
						"encoding": "inplace",
						"label": "address",
						"numberOfBytes": "20"
					},
					"t_array(t_uint256)49_storage": {
						"base": "t_uint256",
						"encoding": "inplace",
						"label": "uint256[49]",
						"numberOfBytes": "1568"
					},
					"t_array(t_uint256)50_storage": {
						"base": "t_uint256",
						"encoding": "inplace",
						"label": "uint256[50]",
						"numberOfBytes": "1600"
					},
					"t_array(t_uint256)dyn_storage": {
						"base": "t_uint256",
						"encoding": "dynamic_array",
						"label": "uint256[]",
						"numberOfBytes": "32"
					},
					"t_bool": {
						"encoding": "inplace",
						"label": "bool",
						"numberOfBytes": "1"
					},
					"t_contract(IERC20Upgradeable)248": {
						"encoding": "inplace",
						"label": "contract IERC20Upgradeable",
						"numberOfBytes": "20"
					},
					"t_contract(IOracle)1100": {
						"encoding": "inplace",
						"label": "contract IOracle",
						"numberOfBytes": "20"
					},
					"t_contract(IhelperLogic)1086": {
						"encoding": "inplace",
						"label": "contract IhelperLogic",
						"numberOfBytes": "20"
					},
					"t_mapping(t_address,t_array(t_uint256)dyn_storage)": {
						"encoding": "mapping",
						"key": "t_address",
						"label": "mapping(address => uint256[])",
						"numberOfBytes": "32",
						"value": "t_array(t_uint256)dyn_storage"
					},
					"t_mapping(t_address,t_bool)": {
						"encoding": "mapping",
						"key": "t_address",
						"label": "mapping(address => bool)",
						"numberOfBytes": "32",
						"value": "t_bool"
					},
					"t_mapping(t_address,t_mapping(t_uint256,t_uint256))": {
						"encoding": "mapping",
						"key": "t_address",
						"label": "mapping(address => mapping(uint256 => uint256))",
						"numberOfBytes": "32",
						"value": "t_mapping(t_uint256,t_uint256)"
					},
					"t_mapping(t_uint256,t_struct(OrderInfo)1206_storage)": {
						"encoding": "mapping",
						"key": "t_uint256",
						"label": "mapping(uint256 => struct mirrorseaMain.OrderInfo)",
						"numberOfBytes": "32",
						"value": "t_struct(OrderInfo)1206_storage"
					},
					"t_mapping(t_uint256,t_uint256)": {
						"encoding": "mapping",
						"key": "t_uint256",
						"label": "mapping(uint256 => uint256)",
						"numberOfBytes": "32",
						"value": "t_uint256"
					},
					"t_string_storage": {
						"encoding": "bytes",
						"label": "string",
						"numberOfBytes": "32"
					},
					"t_struct(OrderInfo)1206_storage": {
						"encoding": "inplace",
						"label": "struct mirrorseaMain.OrderInfo",
						"members": [
							{
								"astId": 1185,
								"contract": "contracts/mirrorseaMain.sol:mirrorseaMain",
								"label": "user",
								"offset": 0,
								"slot": "0",
								"type": "t_address"
							},
							{
								"astId": 1187,
								"contract": "contracts/mirrorseaMain.sol:mirrorseaMain",
								"label": "_type",
								"offset": 0,
								"slot": "1",
								"type": "t_uint256"
							},
							{
								"astId": 1189,
								"contract": "contracts/mirrorseaMain.sol:mirrorseaMain",
								"label": "symbols",
								"offset": 0,
								"slot": "2",
								"type": "t_string_storage"
							},
							{
								"astId": 1191,
								"contract": "contracts/mirrorseaMain.sol:mirrorseaMain",
								"label": "state",
								"offset": 0,
								"slot": "3",
								"type": "t_uint256"
							},
							{
								"astId": 1193,
								"contract": "contracts/mirrorseaMain.sol:mirrorseaMain",
								"label": "direction",
								"offset": 0,
								"slot": "4",
								"type": "t_uint256"
							},
							{
								"astId": 1195,
								"contract": "contracts/mirrorseaMain.sol:mirrorseaMain",
								"label": "openPrice18",
								"offset": 0,
								"slot": "5",
								"type": "t_uint256"
							},
							{
								"astId": 1197,
								"contract": "contracts/mirrorseaMain.sol:mirrorseaMain",
								"label": "openTime",
								"offset": 0,
								"slot": "6",
								"type": "t_uint256"
							},
							{
								"astId": 1199,
								"contract": "contracts/mirrorseaMain.sol:mirrorseaMain",
								"label": "closePrice18",
								"offset": 0,
								"slot": "7",
								"type": "t_uint256"
							},
							{
								"astId": 1201,
								"contract": "contracts/mirrorseaMain.sol:mirrorseaMain",
								"label": "closeTime",
								"offset": 0,
								"slot": "8",
								"type": "t_uint256"
							},
							{
								"astId": 1203,
								"contract": "contracts/mirrorseaMain.sol:mirrorseaMain",
								"label": "amt",
								"offset": 0,
								"slot": "9",
								"type": "t_uint256"
							},
							{
								"astId": 1205,
								"contract": "contracts/mirrorseaMain.sol:mirrorseaMain",
								"label": "margin",
								"offset": 0,
								"slot": "10",
								"type": "t_uint256"
							}
						],
						"numberOfBytes": "352"
					},
					"t_uint256": {
						"encoding": "inplace",
						"label": "uint256",
						"numberOfBytes": "32"
					}
				}
			},
			"userdoc": {
				"kind": "user",
				"methods": {},
				"version": 1
			}
		}
	}
}