{
	"contracts/helperLogic.sol": {
		"helperLogic": {
			"abi": [
				{
					"anonymous": false,
					"inputs": [
						{
							"indexed": true,
							"internalType": "address",
							"name": "previousOwner",
							"type": "address"
						},
						{
							"indexed": true,
							"internalType": "address",
							"name": "newOwner",
							"type": "address"
						}
					],
					"name": "OwnershipTransferred",
					"type": "event"
				},
				{
					"inputs": [],
					"name": "Factory",
					"outputs": [
						{
							"internalType": "contract IUniswapV2Factory",
							"name": "",
							"type": "address"
						}
					],
					"stateMutability": "view",
					"type": "function"
				},
				{
					"inputs": [],
					"name": "PRECISION",
					"outputs": [
						{
							"internalType": "uint256",
							"name": "",
							"type": "uint256"
						}
					],
					"stateMutability": "view",
					"type": "function"
				},
				{
					"inputs": [],
					"name": "Router",
					"outputs": [
						{
							"internalType": "contract IUniswapV2Router02",
							"name": "",
							"type": "address"
						}
					],
					"stateMutability": "view",
					"type": "function"
				},
				{
					"inputs": [],
					"name": "autoAdjustFarm",
					"outputs": [
						{
							"internalType": "bool",
							"name": "",
							"type": "bool"
						}
					],
					"stateMutability": "view",
					"type": "function"
				},
				{
					"inputs": [],
					"name": "basePoint",
					"outputs": [
						{
							"internalType": "uint256",
							"name": "",
							"type": "uint256"
						}
					],
					"stateMutability": "view",
					"type": "function"
				},
				{
					"inputs": [],
					"name": "dev",
					"outputs": [
						{
							"internalType": "address",
							"name": "",
							"type": "address"
						}
					],
					"stateMutability": "view",
					"type": "function"
				},
				{
					"inputs": [
						{
							"internalType": "address",
							"name": "",
							"type": "address"
						}
					],
					"name": "executor",
					"outputs": [
						{
							"internalType": "bool",
							"name": "",
							"type": "bool"
						}
					],
					"stateMutability": "view",
					"type": "function"
				},
				{
					"inputs": [],
					"name": "farm",
					"outputs": [
						{
							"internalType": "contract IFarm",
							"name": "",
							"type": "address"
						}
					],
					"stateMutability": "view",
					"type": "function"
				},
				{
					"inputs": [
						{
							"internalType": "contract IUniswapV2Factory",
							"name": "_Factory",
							"type": "address"
						},
						{
							"internalType": "contract IUniswapV2Router02",
							"name": "_Router",
							"type": "address"
						},
						{
							"internalType": "contract IERC20Upgradeable",
							"name": "_usc",
							"type": "address"
						},
						{
							"internalType": "contract IERC20Upgradeable",
							"name": "_sea",
							"type": "address"
						},
						{
							"internalType": "contract IERC20Upgradeable",
							"name": "_ssea",
							"type": "address"
						},
						{
							"internalType": "contract IFarm",
							"name": "_farm",
							"type": "address"
						}
					],
					"name": "initialize",
					"outputs": [],
					"stateMutability": "nonpayable",
					"type": "function"
				},
				{
					"inputs": [],
					"name": "jointExecution",
					"outputs": [
						{
							"internalType": "bool",
							"name": "",
							"type": "bool"
						}
					],
					"stateMutability": "nonpayable",
					"type": "function"
				},
				{
					"inputs": [],
					"name": "op",
					"outputs": [
						{
							"internalType": "address",
							"name": "",
							"type": "address"
						}
					],
					"stateMutability": "view",
					"type": "function"
				},
				{
					"inputs": [],
					"name": "openStabilizer",
					"outputs": [
						{
							"internalType": "bool",
							"name": "",
							"type": "bool"
						}
					],
					"stateMutability": "view",
					"type": "function"
				},
				{
					"inputs": [],
					"name": "owner",
					"outputs": [
						{
							"internalType": "address",
							"name": "",
							"type": "address"
						}
					],
					"stateMutability": "view",
					"type": "function"
				},
				{
					"inputs": [],
					"name": "pid",
					"outputs": [
						{
							"internalType": "uint256",
							"name": "",
							"type": "uint256"
						}
					],
					"stateMutability": "view",
					"type": "function"
				},
				{
					"inputs": [],
					"name": "renounceOwnership",
					"outputs": [],
					"stateMutability": "nonpayable",
					"type": "function"
				},
				{
					"inputs": [],
					"name": "sea",
					"outputs": [
						{
							"internalType": "contract IERC20Upgradeable",
							"name": "",
							"type": "address"
						}
					],
					"stateMutability": "view",
					"type": "function"
				},
				{
					"inputs": [
						{
							"internalType": "bool",
							"name": "_bool",
							"type": "bool"
						}
					],
					"name": "setAutoAdjustFarm",
					"outputs": [
						{
							"internalType": "bool",
							"name": "",
							"type": "bool"
						}
					],
					"stateMutability": "nonpayable",
					"type": "function"
				},
				{
					"inputs": [
						{
							"internalType": "address",
							"name": "_address",
							"type": "address"
						}
					],
					"name": "setDev",
					"outputs": [
						{
							"internalType": "bool",
							"name": "",
							"type": "bool"
						}
					],
					"stateMutability": "nonpayable",
					"type": "function"
				},
				{
					"inputs": [
						{
							"internalType": "address",
							"name": "_address",
							"type": "address"
						},
						{
							"internalType": "bool",
							"name": "_type",
							"type": "bool"
						}
					],
					"name": "setExecutor",
					"outputs": [
						{
							"internalType": "bool",
							"name": "",
							"type": "bool"
						}
					],
					"stateMutability": "nonpayable",
					"type": "function"
				},
				{
					"inputs": [
						{
							"internalType": "address",
							"name": "_address",
							"type": "address"
						}
					],
					"name": "setOp",
					"outputs": [
						{
							"internalType": "bool",
							"name": "",
							"type": "bool"
						}
					],
					"stateMutability": "nonpayable",
					"type": "function"
				},
				{
					"inputs": [
						{
							"internalType": "bool",
							"name": "_bool",
							"type": "bool"
						}
					],
					"name": "setOpenStabilizer",
					"outputs": [
						{
							"internalType": "bool",
							"name": "",
							"type": "bool"
						}
					],
					"stateMutability": "nonpayable",
					"type": "function"
				},
				{
					"inputs": [
						{
							"internalType": "address",
							"name": "_address",
							"type": "address"
						}
					],
					"name": "setStabilizer",
					"outputs": [
						{
							"internalType": "bool",
							"name": "",
							"type": "bool"
						}
					],
					"stateMutability": "nonpayable",
					"type": "function"
				},
				{
					"inputs": [
						{
							"internalType": "uint256",
							"name": "_val",
							"type": "uint256"
						}
					],
					"name": "setToDevPercent",
					"outputs": [
						{
							"internalType": "bool",
							"name": "",
							"type": "bool"
						}
					],
					"stateMutability": "nonpayable",
					"type": "function"
				},
				{
					"inputs": [
						{
							"internalType": "uint256",
							"name": "_val",
							"type": "uint256"
						}
					],
					"name": "setToOpPercent",
					"outputs": [
						{
							"internalType": "bool",
							"name": "",
							"type": "bool"
						}
					],
					"stateMutability": "nonpayable",
					"type": "function"
				},
				{
					"inputs": [
						{
							"internalType": "uint256",
							"name": "_val",
							"type": "uint256"
						}
					],
					"name": "setToSseaPercent",
					"outputs": [
						{
							"internalType": "bool",
							"name": "",
							"type": "bool"
						}
					],
					"stateMutability": "nonpayable",
					"type": "function"
				},
				{
					"inputs": [],
					"name": "ssea",
					"outputs": [
						{
							"internalType": "contract IERC20Upgradeable",
							"name": "",
							"type": "address"
						}
					],
					"stateMutability": "view",
					"type": "function"
				},
				{
					"inputs": [],
					"name": "stabilizer",
					"outputs": [
						{
							"internalType": "address",
							"name": "",
							"type": "address"
						}
					],
					"stateMutability": "view",
					"type": "function"
				},
				{
					"inputs": [],
					"name": "toDevPercent",
					"outputs": [
						{
							"internalType": "uint256",
							"name": "",
							"type": "uint256"
						}
					],
					"stateMutability": "view",
					"type": "function"
				},
				{
					"inputs": [],
					"name": "toOpPercent",
					"outputs": [
						{
							"internalType": "uint256",
							"name": "",
							"type": "uint256"
						}
					],
					"stateMutability": "view",
					"type": "function"
				},
				{
					"inputs": [],
					"name": "toSseaPercent",
					"outputs": [
						{
							"internalType": "uint256",
							"name": "",
							"type": "uint256"
						}
					],
					"stateMutability": "view",
					"type": "function"
				},
				{
					"inputs": [
						{
							"internalType": "address",
							"name": "newOwner",
							"type": "address"
						}
					],
					"name": "transferOwnership",
					"outputs": [],
					"stateMutability": "nonpayable",
					"type": "function"
				},
				{
					"inputs": [],
					"name": "usc",
					"outputs": [
						{
							"internalType": "contract IERC20Upgradeable",
							"name": "",
							"type": "address"
						}
					],
					"stateMutability": "view",
					"type": "function"
				},
				{
					"inputs": [],
					"name": "usdc",
					"outputs": [
						{
							"internalType": "contract IERC20Upgradeable",
							"name": "",
							"type": "address"
						}
					],
					"stateMutability": "view",
					"type": "function"
				},
				{
					"inputs": [
						{
							"internalType": "address",
							"name": "_address",
							"type": "address"
						},
						{
							"internalType": "uint256",
							"name": "_amt",
							"type": "uint256"
						}
					],
					"name": "withdrawalERC20",
					"outputs": [
						{
							"internalType": "bool",
							"name": "",
							"type": "bool"
						}
					],
					"stateMutability": "nonpayable",
					"type": "function"
				}
			],
			"devdoc": {
				"kind": "dev",
				"methods": {
					"owner()": {
						"details": "Returns the address of the current owner."
					},
					"renounceOwnership()": {
						"details": "Leaves the contract without owner. It will not be possible to call `onlyOwner` functions anymore. Can only be called by the current owner. NOTE: Renouncing ownership will leave the contract without an owner, thereby removing any functionality that is only available to the owner."
					},
					"transferOwnership(address)": {
						"details": "Transfers ownership of the contract to a new account (`newOwner`). Can only be called by the current owner."
					}
				},
				"version": 1
			},
			"evm": {
				"assembly": "    /* \"contracts/helperLogic.sol\":909:5689  contract helperLogic is Initializable, OwnableUpgradeable {... */\n  mstore(0x40, 0x80)\n  callvalue\n  dup1\n  iszero\n  tag_1\n  jumpi\n  0x00\n  dup1\n  revert\ntag_1:\n  pop\n  dataSize(sub_0)\n  dup1\n  dataOffset(sub_0)\n  0x00\n  codecopy\n  0x00\n  return\nstop\n\nsub_0: assembly {\n        /* \"contracts/helperLogic.sol\":909:5689  contract helperLogic is Initializable, OwnableUpgradeable {... */\n      mstore(0x40, 0x80)\n      callvalue\n      dup1\n      iszero\n      tag_1\n      jumpi\n      0x00\n      dup1\n      revert\n    tag_1:\n      pop\n      jumpi(tag_2, lt(calldatasize, 0x04))\n      shr(0xe0, calldataload(0x00))\n      dup1\n      0x91cca3db\n      gt\n      tag_37\n      jumpi\n      dup1\n      0xc83dd231\n      gt\n      tag_38\n      jumpi\n      dup1\n      0xdb7f521a\n      gt\n      tag_39\n      jumpi\n      dup1\n      0xdb7f521a\n      eq\n      tag_32\n      jumpi\n      dup1\n      0xec1f1f69\n      eq\n      tag_33\n      jumpi\n      dup1\n      0xf1068454\n      eq\n      tag_34\n      jumpi\n      dup1\n      0xf2fde38b\n      eq\n      tag_35\n      jumpi\n      dup1\n      0xf6d7eade\n      eq\n      tag_36\n      jumpi\n      jump(tag_2)\n    tag_39:\n      dup1\n      0xc83dd231\n      eq\n      tag_28\n      jumpi\n      dup1\n      0xcc2a9a5b\n      eq\n      tag_29\n      jumpi\n      dup1\n      0xd10c06a2\n      eq\n      tag_30\n      jumpi\n      dup1\n      0xd477f05f\n      eq\n      tag_31\n      jumpi\n      jump(tag_2)\n    tag_38:\n      dup1\n      0xaaf5eb68\n      gt\n      tag_40\n      jumpi\n      dup1\n      0xaaf5eb68\n      eq\n      tag_24\n      jumpi\n      dup1\n      0xaf5518c4\n      eq\n      tag_25\n      jumpi\n      dup1\n      0xb8bb97a1\n      eq\n      tag_26\n      jumpi\n      dup1\n      0xbd0b1f44\n      eq\n      tag_27\n      jumpi\n      jump(tag_2)\n    tag_40:\n      dup1\n      0x91cca3db\n      eq\n      tag_20\n      jumpi\n      dup1\n      0x930ed033\n      eq\n      tag_21\n      jumpi\n      dup1\n      0x9da5b0d5\n      eq\n      tag_22\n      jumpi\n      dup1\n      0xa36a7526\n      eq\n      tag_23\n      jumpi\n      jump(tag_2)\n    tag_37:\n      dup1\n      0x4591db50\n      gt\n      tag_41\n      jumpi\n      dup1\n      0x55c746d1\n      gt\n      tag_42\n      jumpi\n      dup1\n      0x55c746d1\n      eq\n      tag_15\n      jumpi\n      dup1\n      0x58de5de8\n      eq\n      tag_16\n      jumpi\n      dup1\n      0x715018a6\n      eq\n      tag_17\n      jumpi\n      dup1\n      0x7e47961c\n      eq\n      tag_18\n      jumpi\n      dup1\n      0x8da5cb5b\n      eq\n      tag_19\n      jumpi\n      jump(tag_2)\n    tag_42:\n      dup1\n      0x4591db50\n      eq\n      tag_11\n      jumpi\n      dup1\n      0x48c7e528\n      eq\n      tag_12\n      jumpi\n      dup1\n      0x4ae6a027\n      eq\n      tag_13\n      jumpi\n      dup1\n      0x4ecaac41\n      eq\n      tag_14\n      jumpi\n      jump(tag_2)\n    tag_41:\n      dup1\n      0x3011d3d5\n      gt\n      tag_43\n      jumpi\n      dup1\n      0x3011d3d5\n      eq\n      tag_7\n      jumpi\n      dup1\n      0x36e9332d\n      eq\n      tag_8\n      jumpi\n      dup1\n      0x3c850e1e\n      eq\n      tag_9\n      jumpi\n      dup1\n      0x3e413bee\n      eq\n      tag_10\n      jumpi\n      jump(tag_2)\n    tag_43:\n      dup1\n      0x16d03993\n      eq\n      tag_3\n      jumpi\n      dup1\n      0x1e1bff3f\n      eq\n      tag_4\n      jumpi\n      dup1\n      0x27c42a50\n      eq\n      tag_5\n      jumpi\n      dup1\n      0x2c535a52\n      eq\n      tag_6\n      jumpi\n    tag_2:\n      0x00\n      dup1\n      revert\n        /* \"contracts/helperLogic.sol\":1525:1549  uint256 public basePoint */\n    tag_3:\n      tag_44\n      tag_45\n      jump\t// in\n    tag_44:\n      mload(0x40)\n      tag_46\n      swap2\n      swap1\n      tag_47\n      jump\t// in\n    tag_46:\n      mload(0x40)\n      dup1\n      swap2\n      sub\n      swap1\n      return\n        /* \"contracts/helperLogic.sol\":2536:2713  function setExecutor(address _address, bool _type)... */\n    tag_4:\n      tag_48\n      tag_49\n      calldatasize\n      0x04\n      tag_50\n      jump\t// in\n    tag_49:\n      tag_51\n      jump\t// in\n    tag_48:\n      mload(0x40)\n      tag_46\n      swap2\n      swap1\n      tag_53\n      jump\t// in\n        /* \"contracts/helperLogic.sol\":4867:4999  function setToSseaPercent(uint256 _val) external onlyOwner returns (bool) {... */\n    tag_5:\n      tag_48\n      tag_55\n      calldatasize\n      0x04\n      tag_56\n      jump\t// in\n    tag_55:\n      tag_57\n      jump\t// in\n        /* \"contracts/helperLogic.sol\":1429:1455  uint256 public toOpPercent */\n    tag_6:\n      tag_44\n      tag_60\n      jump\t// in\n        /* \"contracts/helperLogic.sol\":1132:1160  IERC20Upgradeable public usc */\n    tag_7:\n      tag_62\n      tag_63\n      jump\t// in\n    tag_62:\n      mload(0x40)\n      tag_46\n      swap2\n      swap1\n      tag_105\n      jump\t// in\n        /* \"contracts/helperLogic.sol\":1580:1597  IFarm public farm */\n    tag_8:\n      tag_62\n      tag_67\n      jump\t// in\n        /* \"contracts/helperLogic.sol\":5139:5269  function setToDevPercent(uint256 _val) external onlyOwner returns (bool) {... */\n    tag_9:\n      tag_48\n      tag_71\n      calldatasize\n      0x04\n      tag_56\n      jump\t// in\n    tag_71:\n      tag_72\n      jump\t// in\n        /* \"contracts/helperLogic.sol\":1166:1195  IERC20Upgradeable public usdc */\n    tag_10:\n      tag_62\n      tag_75\n      jump\t// in\n        /* \"contracts/helperLogic.sol\":5275:5408  function setAutoAdjustFarm(bool _bool) external onlyOwner returns (bool) {... */\n    tag_11:\n      tag_48\n      tag_78\n      calldatasize\n      0x04\n      tag_79\n      jump\t// in\n    tag_78:\n      tag_80\n      jump\t// in\n        /* \"contracts/helperLogic.sol\":1086:1126  mapping(address => bool) public executor */\n    tag_12:\n      tag_48\n      tag_83\n      calldatasize\n      0x04\n      tag_84\n      jump\t// in\n    tag_83:\n      tag_85\n      jump\t// in\n        /* \"contracts/helperLogic.sol\":1461:1488  uint256 public toDevPercent */\n    tag_13:\n      tag_44\n      tag_88\n      jump\t// in\n        /* \"contracts/helperLogic.sol\":1201:1229  IERC20Upgradeable public sea */\n    tag_14:\n      tag_62\n      tag_91\n      jump\t// in\n        /* \"contracts/helperLogic.sol\":5414:5547  function setOpenStabilizer(bool _bool) external onlyOwner returns (bool) {... */\n    tag_15:\n      tag_48\n      tag_94\n      calldatasize\n      0x04\n      tag_79\n      jump\t// in\n    tag_94:\n      tag_95\n      jump\t// in\n        /* \"contracts/helperLogic.sol\":1636:1662  bool public openStabilizer */\n    tag_16:\n      tag_48\n      tag_98\n      jump\t// in\n        /* \"@openzeppelin/contracts-upgradeable/access/OwnableUpgradeable.sol\":1934:2035  function renounceOwnership() public virtual onlyOwner {... */\n    tag_17:\n      tag_100\n      tag_101\n      jump\t// in\n    tag_100:\n      stop\n        /* \"contracts/helperLogic.sol\":1669:1694  address public stabilizer */\n    tag_18:\n      tag_62\n      tag_103\n      jump\t// in\n        /* \"@openzeppelin/contracts-upgradeable/access/OwnableUpgradeable.sol\":1302:1387  function owner() public view virtual returns (address) {... */\n    tag_19:\n      tag_62\n      tag_107\n      jump\t// in\n        /* \"contracts/helperLogic.sol\":1293:1311  address public dev */\n    tag_20:\n      tag_62\n      tag_110\n      jump\t// in\n        /* \"contracts/helperLogic.sol\":4396:4611  function withdrawalERC20(address _address, uint256 _amt)... */\n    tag_21:\n      tag_48\n      tag_113\n      calldatasize\n      0x04\n      tag_114\n      jump\t// in\n    tag_113:\n      tag_115\n      jump\t// in\n        /* \"contracts/helperLogic.sol\":1604:1630  bool public autoAdjustFarm */\n    tag_22:\n      tag_48\n      tag_118\n      jump\t// in\n        /* \"contracts/helperLogic.sol\":4617:4735  function setOp(address _address) external onlyOwner returns (bool) {... */\n    tag_23:\n      tag_48\n      tag_121\n      calldatasize\n      0x04\n      tag_84\n      jump\t// in\n    tag_121:\n      tag_122\n      jump\t// in\n        /* \"contracts/helperLogic.sol\":1494:1518  uint256 public PRECISION */\n    tag_24:\n      tag_44\n      tag_125\n      jump\t// in\n        /* \"contracts/helperLogic.sol\":5005:5133  function setToOpPercent(uint256 _val) external onlyOwner returns (bool) {... */\n    tag_25:\n      tag_48\n      tag_128\n      calldatasize\n      0x04\n      tag_56\n      jump\t// in\n    tag_128:\n      tag_129\n      jump\t// in\n        /* \"contracts/helperLogic.sol\":1235:1264  IERC20Upgradeable public ssea */\n    tag_26:\n      tag_62\n      tag_132\n      jump\t// in\n        /* \"contracts/helperLogic.sol\":1395:1423  uint256 public toSseaPercent */\n    tag_27:\n      tag_44\n      tag_135\n      jump\t// in\n        /* \"contracts/helperLogic.sol\":1356:1388  IUniswapV2Factory public Factory */\n    tag_28:\n      tag_62\n      tag_138\n      jump\t// in\n        /* \"contracts/helperLogic.sol\":1701:2530  function initialize(... */\n    tag_29:\n      tag_100\n      tag_142\n      calldatasize\n      0x04\n      tag_143\n      jump\t// in\n    tag_142:\n      tag_144\n      jump\t// in\n        /* \"contracts/helperLogic.sol\":2846:3503  function jointExecution() external onlyExecutor returns (bool) {... */\n    tag_30:\n      tag_48\n      tag_146\n      jump\t// in\n        /* \"contracts/helperLogic.sol\":4741:4861  function setDev(address _address) external onlyOwner returns (bool) {... */\n    tag_31:\n      tag_48\n      tag_149\n      calldatasize\n      0x04\n      tag_84\n      jump\t// in\n    tag_149:\n      tag_150\n      jump\t// in\n        /* \"contracts/helperLogic.sol\":5553:5687  function setStabilizer(address _address) external onlyOwner returns (bool) {... */\n    tag_32:\n      tag_48\n      tag_153\n      calldatasize\n      0x04\n      tag_84\n      jump\t// in\n    tag_153:\n      tag_154\n      jump\t// in\n        /* \"contracts/helperLogic.sol\":1270:1287  address public op */\n    tag_33:\n      tag_62\n      tag_157\n      jump\t// in\n        /* \"contracts/helperLogic.sol\":1555:1573  uint256 public pid */\n    tag_34:\n      tag_44\n      tag_160\n      jump\t// in\n        /* \"@openzeppelin/contracts-upgradeable/access/OwnableUpgradeable.sol\":2184:2382  function transferOwnership(address newOwner) public virtual onlyOwner {... */\n    tag_35:\n      tag_100\n      tag_163\n      calldatasize\n      0x04\n      tag_84\n      jump\t// in\n    tag_163:\n      tag_164\n      jump\t// in\n        /* \"contracts/helperLogic.sol\":1318:1350  IUniswapV2Router02 public Router */\n    tag_36:\n      tag_62\n      tag_166\n      jump\t// in\n        /* \"contracts/helperLogic.sol\":1525:1549  uint256 public basePoint */\n    tag_45:\n      sload(0x72)\n      dup2\n      jump\t// out\n        /* \"contracts/helperLogic.sol\":2536:2713  function setExecutor(address _address, bool _type)... */\n    tag_51:\n        /* \"contracts/helperLogic.sol\":2639:2643  bool */\n      0x00\n        /* \"@openzeppelin/contracts-upgradeable/access/OwnableUpgradeable.sol\":1525:1537  _msgSender() */\n      tag_170\n        /* \"@openzeppelin/contracts-upgradeable/access/OwnableUpgradeable.sol\":1525:1535  _msgSender */\n      tag_171\n        /* \"@openzeppelin/contracts-upgradeable/access/OwnableUpgradeable.sol\":1525:1537  _msgSender() */\n      jump\t// in\n    tag_170:\n      sub(shl(0xa0, 0x01), 0x01)\n        /* \"@openzeppelin/contracts-upgradeable/access/OwnableUpgradeable.sol\":1514:1537  owner() == _msgSender() */\n      and\n        /* \"@openzeppelin/contracts-upgradeable/access/OwnableUpgradeable.sol\":1514:1521  owner() */\n      tag_172\n        /* \"@openzeppelin/contracts-upgradeable/access/OwnableUpgradeable.sol\":1514:1519  owner */\n      tag_107\n        /* \"@openzeppelin/contracts-upgradeable/access/OwnableUpgradeable.sol\":1514:1521  owner() */\n      jump\t// in\n    tag_172:\n      sub(shl(0xa0, 0x01), 0x01)\n        /* \"@openzeppelin/contracts-upgradeable/access/OwnableUpgradeable.sol\":1514:1537  owner() == _msgSender() */\n      and\n      eq\n        /* \"@openzeppelin/contracts-upgradeable/access/OwnableUpgradeable.sol\":1506:1574  require(owner() == _msgSender(), \"Ownable: caller is not the owner\") */\n      tag_173\n      jumpi\n      mload(0x40)\n      shl(0xe5, 0x461bcd)\n      dup2\n      mstore\n      0x04\n      add\n      tag_174\n      swap1\n      tag_175\n      jump\t// in\n    tag_174:\n      mload(0x40)\n      dup1\n      swap2\n      sub\n      swap1\n      revert\n    tag_173:\n      pop\n      sub(shl(0xa0, 0x01), 0x01)\n        /* \"contracts/helperLogic.sol\":2659:2677  executor[_address] */\n      dup3\n      and\n      0x00\n      swap1\n      dup2\n      mstore\n        /* \"contracts/helperLogic.sol\":2659:2667  executor */\n      0x65\n        /* \"contracts/helperLogic.sol\":2659:2677  executor[_address] */\n      0x20\n      mstore\n      0x40\n      swap1\n      keccak256\n        /* \"contracts/helperLogic.sol\":2659:2685  executor[_address] = _type */\n      dup1\n      sload\n      dup3\n      iszero\n      iszero\n      not(0xff)\n      swap1\n      swap2\n      and\n      or\n      swap1\n      sstore\n      0x01\n        /* \"contracts/helperLogic.sol\":2536:2713  function setExecutor(address _address, bool _type)... */\n      swap3\n      swap2\n      pop\n      pop\n      jump\t// out\n        /* \"contracts/helperLogic.sol\":4867:4999  function setToSseaPercent(uint256 _val) external onlyOwner returns (bool) {... */\n    tag_57:\n        /* \"contracts/helperLogic.sol\":4935:4939  bool */\n      0x00\n        /* \"@openzeppelin/contracts-upgradeable/access/OwnableUpgradeable.sol\":1525:1537  _msgSender() */\n      tag_178\n        /* \"@openzeppelin/contracts-upgradeable/access/OwnableUpgradeable.sol\":1525:1535  _msgSender */\n      tag_171\n        /* \"@openzeppelin/contracts-upgradeable/access/OwnableUpgradeable.sol\":1525:1537  _msgSender() */\n      jump\t// in\n    tag_178:\n      sub(shl(0xa0, 0x01), 0x01)\n        /* \"@openzeppelin/contracts-upgradeable/access/OwnableUpgradeable.sol\":1514:1537  owner() == _msgSender() */\n      and\n        /* \"@openzeppelin/contracts-upgradeable/access/OwnableUpgradeable.sol\":1514:1521  owner() */\n      tag_179\n        /* \"@openzeppelin/contracts-upgradeable/access/OwnableUpgradeable.sol\":1514:1519  owner */\n      tag_107\n        /* \"@openzeppelin/contracts-upgradeable/access/OwnableUpgradeable.sol\":1514:1521  owner() */\n      jump\t// in\n    tag_179:\n      sub(shl(0xa0, 0x01), 0x01)\n        /* \"@openzeppelin/contracts-upgradeable/access/OwnableUpgradeable.sol\":1514:1537  owner() == _msgSender() */\n      and\n      eq\n        /* \"@openzeppelin/contracts-upgradeable/access/OwnableUpgradeable.sol\":1506:1574  require(owner() == _msgSender(), \"Ownable: caller is not the owner\") */\n      tag_180\n      jumpi\n      mload(0x40)\n      shl(0xe5, 0x461bcd)\n      dup2\n      mstore\n      0x04\n      add\n      tag_174\n      swap1\n      tag_175\n      jump\t// in\n    tag_180:\n      pop\n        /* \"contracts/helperLogic.sol\":4951:4964  toSseaPercent */\n      0x6e\n        /* \"contracts/helperLogic.sol\":4951:4971  toSseaPercent = _val */\n      sstore\n        /* \"contracts/helperLogic.sol\":4988:4992  true */\n      0x01\n      swap1\n        /* \"contracts/helperLogic.sol\":4867:4999  function setToSseaPercent(uint256 _val) external onlyOwner returns (bool) {... */\n      jump\t// out\n        /* \"contracts/helperLogic.sol\":1429:1455  uint256 public toOpPercent */\n    tag_60:\n      sload(0x6f)\n      dup2\n      jump\t// out\n        /* \"contracts/helperLogic.sol\":1132:1160  IERC20Upgradeable public usc */\n    tag_63:\n      and(sub(shl(0xa0, 0x01), 0x01), sload(0x66))\n      dup2\n      jump\t// out\n        /* \"contracts/helperLogic.sol\":1580:1597  IFarm public farm */\n    tag_67:\n      and(sub(shl(0xa0, 0x01), 0x01), sload(0x74))\n      dup2\n      jump\t// out\n        /* \"contracts/helperLogic.sol\":5139:5269  function setToDevPercent(uint256 _val) external onlyOwner returns (bool) {... */\n    tag_72:\n        /* \"contracts/helperLogic.sol\":5206:5210  bool */\n      0x00\n        /* \"@openzeppelin/contracts-upgradeable/access/OwnableUpgradeable.sol\":1525:1537  _msgSender() */\n      tag_184\n        /* \"@openzeppelin/contracts-upgradeable/access/OwnableUpgradeable.sol\":1525:1535  _msgSender */\n      tag_171\n        /* \"@openzeppelin/contracts-upgradeable/access/OwnableUpgradeable.sol\":1525:1537  _msgSender() */\n      jump\t// in\n    tag_184:\n      sub(shl(0xa0, 0x01), 0x01)\n        /* \"@openzeppelin/contracts-upgradeable/access/OwnableUpgradeable.sol\":1514:1537  owner() == _msgSender() */\n      and\n        /* \"@openzeppelin/contracts-upgradeable/access/OwnableUpgradeable.sol\":1514:1521  owner() */\n      tag_185\n        /* \"@openzeppelin/contracts-upgradeable/access/OwnableUpgradeable.sol\":1514:1519  owner */\n      tag_107\n        /* \"@openzeppelin/contracts-upgradeable/access/OwnableUpgradeable.sol\":1514:1521  owner() */\n      jump\t// in\n    tag_185:\n      sub(shl(0xa0, 0x01), 0x01)\n        /* \"@openzeppelin/contracts-upgradeable/access/OwnableUpgradeable.sol\":1514:1537  owner() == _msgSender() */\n      and\n      eq\n        /* \"@openzeppelin/contracts-upgradeable/access/OwnableUpgradeable.sol\":1506:1574  require(owner() == _msgSender(), \"Ownable: caller is not the owner\") */\n      tag_186\n      jumpi\n      mload(0x40)\n      shl(0xe5, 0x461bcd)\n      dup2\n      mstore\n      0x04\n      add\n      tag_174\n      swap1\n      tag_175\n      jump\t// in\n    tag_186:\n      pop\n        /* \"contracts/helperLogic.sol\":5222:5234  toDevPercent */\n      0x70\n        /* \"contracts/helperLogic.sol\":5222:5241  toDevPercent = _val */\n      sstore\n        /* \"contracts/helperLogic.sol\":5258:5262  true */\n      0x01\n      swap1\n        /* \"contracts/helperLogic.sol\":5139:5269  function setToDevPercent(uint256 _val) external onlyOwner returns (bool) {... */\n      jump\t// out\n        /* \"contracts/helperLogic.sol\":1166:1195  IERC20Upgradeable public usdc */\n    tag_75:\n      and(sub(shl(0xa0, 0x01), 0x01), sload(0x67))\n      dup2\n      jump\t// out\n        /* \"contracts/helperLogic.sol\":5275:5408  function setAutoAdjustFarm(bool _bool) external onlyOwner returns (bool) {... */\n    tag_80:\n        /* \"contracts/helperLogic.sol\":5342:5346  bool */\n      0x00\n        /* \"@openzeppelin/contracts-upgradeable/access/OwnableUpgradeable.sol\":1525:1537  _msgSender() */\n      tag_190\n        /* \"@openzeppelin/contracts-upgradeable/access/OwnableUpgradeable.sol\":1525:1535  _msgSender */\n      tag_171\n        /* \"@openzeppelin/contracts-upgradeable/access/OwnableUpgradeable.sol\":1525:1537  _msgSender() */\n      jump\t// in\n    tag_190:\n      sub(shl(0xa0, 0x01), 0x01)\n        /* \"@openzeppelin/contracts-upgradeable/access/OwnableUpgradeable.sol\":1514:1537  owner() == _msgSender() */\n      and\n        /* \"@openzeppelin/contracts-upgradeable/access/OwnableUpgradeable.sol\":1514:1521  owner() */\n      tag_191\n        /* \"@openzeppelin/contracts-upgradeable/access/OwnableUpgradeable.sol\":1514:1519  owner */\n      tag_107\n        /* \"@openzeppelin/contracts-upgradeable/access/OwnableUpgradeable.sol\":1514:1521  owner() */\n      jump\t// in\n    tag_191:\n      sub(shl(0xa0, 0x01), 0x01)\n        /* \"@openzeppelin/contracts-upgradeable/access/OwnableUpgradeable.sol\":1514:1537  owner() == _msgSender() */\n      and\n      eq\n        /* \"@openzeppelin/contracts-upgradeable/access/OwnableUpgradeable.sol\":1506:1574  require(owner() == _msgSender(), \"Ownable: caller is not the owner\") */\n      tag_192\n      jumpi\n      mload(0x40)\n      shl(0xe5, 0x461bcd)\n      dup2\n      mstore\n      0x04\n      add\n      tag_174\n      swap1\n      tag_175\n      jump\t// in\n    tag_192:\n      pop\n        /* \"contracts/helperLogic.sol\":5358:5372  autoAdjustFarm */\n      0x74\n        /* \"contracts/helperLogic.sol\":5358:5380  autoAdjustFarm = _bool */\n      dup1\n      sload\n      dup3\n      iszero\n      iszero\n      shl(0xa0, 0x01)\n      mul\n      not(shl(0xa0, 0xff))\n      swap1\n      swap2\n      and\n      or\n      swap1\n      sstore\n      0x01\n        /* \"contracts/helperLogic.sol\":5275:5408  function setAutoAdjustFarm(bool _bool) external onlyOwner returns (bool) {... */\n      swap2\n      swap1\n      pop\n      jump\t// out\n        /* \"contracts/helperLogic.sol\":1086:1126  mapping(address => bool) public executor */\n    tag_85:\n      mstore(0x20, 0x65)\n      0x00\n      swap1\n      dup2\n      mstore\n      0x40\n      swap1\n      keccak256\n      sload\n      0xff\n      and\n      dup2\n      jump\t// out\n        /* \"contracts/helperLogic.sol\":1461:1488  uint256 public toDevPercent */\n    tag_88:\n      sload(0x70)\n      dup2\n      jump\t// out\n        /* \"contracts/helperLogic.sol\":1201:1229  IERC20Upgradeable public sea */\n    tag_91:\n      and(sub(shl(0xa0, 0x01), 0x01), sload(0x68))\n      dup2\n      jump\t// out\n        /* \"contracts/helperLogic.sol\":5414:5547  function setOpenStabilizer(bool _bool) external onlyOwner returns (bool) {... */\n    tag_95:\n        /* \"contracts/helperLogic.sol\":5481:5485  bool */\n      0x00\n        /* \"@openzeppelin/contracts-upgradeable/access/OwnableUpgradeable.sol\":1525:1537  _msgSender() */\n      tag_196\n        /* \"@openzeppelin/contracts-upgradeable/access/OwnableUpgradeable.sol\":1525:1535  _msgSender */\n      tag_171\n        /* \"@openzeppelin/contracts-upgradeable/access/OwnableUpgradeable.sol\":1525:1537  _msgSender() */\n      jump\t// in\n    tag_196:\n      sub(shl(0xa0, 0x01), 0x01)\n        /* \"@openzeppelin/contracts-upgradeable/access/OwnableUpgradeable.sol\":1514:1537  owner() == _msgSender() */\n      and\n        /* \"@openzeppelin/contracts-upgradeable/access/OwnableUpgradeable.sol\":1514:1521  owner() */\n      tag_197\n        /* \"@openzeppelin/contracts-upgradeable/access/OwnableUpgradeable.sol\":1514:1519  owner */\n      tag_107\n        /* \"@openzeppelin/contracts-upgradeable/access/OwnableUpgradeable.sol\":1514:1521  owner() */\n      jump\t// in\n    tag_197:\n      sub(shl(0xa0, 0x01), 0x01)\n        /* \"@openzeppelin/contracts-upgradeable/access/OwnableUpgradeable.sol\":1514:1537  owner() == _msgSender() */\n      and\n      eq\n        /* \"@openzeppelin/contracts-upgradeable/access/OwnableUpgradeable.sol\":1506:1574  require(owner() == _msgSender(), \"Ownable: caller is not the owner\") */\n      tag_198\n      jumpi\n      mload(0x40)\n      shl(0xe5, 0x461bcd)\n      dup2\n      mstore\n      0x04\n      add\n      tag_174\n      swap1\n      tag_175\n      jump\t// in\n    tag_198:\n      pop\n        /* \"contracts/helperLogic.sol\":5497:5511  openStabilizer */\n      0x74\n        /* \"contracts/helperLogic.sol\":5497:5519  openStabilizer = _bool */\n      dup1\n      sload\n      dup3\n      iszero\n      iszero\n      shl(0xa8, 0x01)\n      mul\n      not(shl(0xa8, 0xff))\n      swap1\n      swap2\n      and\n      or\n      swap1\n      sstore\n      0x01\n        /* \"contracts/helperLogic.sol\":5414:5547  function setOpenStabilizer(bool _bool) external onlyOwner returns (bool) {... */\n      swap2\n      swap1\n      pop\n      jump\t// out\n        /* \"contracts/helperLogic.sol\":1636:1662  bool public openStabilizer */\n    tag_98:\n      sload(0x74)\n      shl(0xa8, 0x01)\n      swap1\n      div\n      0xff\n      and\n      dup2\n      jump\t// out\n        /* \"@openzeppelin/contracts-upgradeable/access/OwnableUpgradeable.sol\":1934:2035  function renounceOwnership() public virtual onlyOwner {... */\n    tag_101:\n        /* \"@openzeppelin/contracts-upgradeable/access/OwnableUpgradeable.sol\":1525:1537  _msgSender() */\n      tag_202\n        /* \"@openzeppelin/contracts-upgradeable/access/OwnableUpgradeable.sol\":1525:1535  _msgSender */\n      tag_171\n        /* \"@openzeppelin/contracts-upgradeable/access/OwnableUpgradeable.sol\":1525:1537  _msgSender() */\n      jump\t// in\n    tag_202:\n      sub(shl(0xa0, 0x01), 0x01)\n        /* \"@openzeppelin/contracts-upgradeable/access/OwnableUpgradeable.sol\":1514:1537  owner() == _msgSender() */\n      and\n        /* \"@openzeppelin/contracts-upgradeable/access/OwnableUpgradeable.sol\":1514:1521  owner() */\n      tag_203\n        /* \"@openzeppelin/contracts-upgradeable/access/OwnableUpgradeable.sol\":1514:1519  owner */\n      tag_107\n        /* \"@openzeppelin/contracts-upgradeable/access/OwnableUpgradeable.sol\":1514:1521  owner() */\n      jump\t// in\n    tag_203:\n      sub(shl(0xa0, 0x01), 0x01)\n        /* \"@openzeppelin/contracts-upgradeable/access/OwnableUpgradeable.sol\":1514:1537  owner() == _msgSender() */\n      and\n      eq\n        /* \"@openzeppelin/contracts-upgradeable/access/OwnableUpgradeable.sol\":1506:1574  require(owner() == _msgSender(), \"Ownable: caller is not the owner\") */\n      tag_204\n      jumpi\n      mload(0x40)\n      shl(0xe5, 0x461bcd)\n      dup2\n      mstore\n      0x04\n      add\n      tag_174\n      swap1\n      tag_175\n      jump\t// in\n    tag_204:\n        /* \"@openzeppelin/contracts-upgradeable/access/OwnableUpgradeable.sol\":1998:2028  _transferOwnership(address(0)) */\n      tag_207\n        /* \"@openzeppelin/contracts-upgradeable/access/OwnableUpgradeable.sol\":2025:2026  0 */\n      0x00\n        /* \"@openzeppelin/contracts-upgradeable/access/OwnableUpgradeable.sol\":1998:2016  _transferOwnership */\n      tag_208\n        /* \"@openzeppelin/contracts-upgradeable/access/OwnableUpgradeable.sol\":1998:2028  _transferOwnership(address(0)) */\n      jump\t// in\n    tag_207:\n        /* \"@openzeppelin/contracts-upgradeable/access/OwnableUpgradeable.sol\":1934:2035  function renounceOwnership() public virtual onlyOwner {... */\n      jump\t// out\n        /* \"contracts/helperLogic.sol\":1669:1694  address public stabilizer */\n    tag_103:\n      and(sub(shl(0xa0, 0x01), 0x01), sload(0x75))\n      dup2\n      jump\t// out\n        /* \"@openzeppelin/contracts-upgradeable/access/OwnableUpgradeable.sol\":1302:1387  function owner() public view virtual returns (address) {... */\n    tag_107:\n        /* \"@openzeppelin/contracts-upgradeable/access/OwnableUpgradeable.sol\":1374:1380  _owner */\n      and(sub(shl(0xa0, 0x01), 0x01), sload(0x33))\n        /* \"@openzeppelin/contracts-upgradeable/access/OwnableUpgradeable.sol\":1302:1387  function owner() public view virtual returns (address) {... */\n      swap1\n      jump\t// out\n        /* \"contracts/helperLogic.sol\":1293:1311  address public dev */\n    tag_110:\n      and(sub(shl(0xa0, 0x01), 0x01), sload(0x6b))\n      dup2\n      jump\t// out\n        /* \"contracts/helperLogic.sol\":4396:4611  function withdrawalERC20(address _address, uint256 _amt)... */\n    tag_115:\n        /* \"contracts/helperLogic.sol\":4505:4509  bool */\n      0x00\n        /* \"@openzeppelin/contracts-upgradeable/access/OwnableUpgradeable.sol\":1525:1537  _msgSender() */\n      tag_211\n        /* \"@openzeppelin/contracts-upgradeable/access/OwnableUpgradeable.sol\":1525:1535  _msgSender */\n      tag_171\n        /* \"@openzeppelin/contracts-upgradeable/access/OwnableUpgradeable.sol\":1525:1537  _msgSender() */\n      jump\t// in\n    tag_211:\n      sub(shl(0xa0, 0x01), 0x01)\n        /* \"@openzeppelin/contracts-upgradeable/access/OwnableUpgradeable.sol\":1514:1537  owner() == _msgSender() */\n      and\n        /* \"@openzeppelin/contracts-upgradeable/access/OwnableUpgradeable.sol\":1514:1521  owner() */\n      tag_212\n        /* \"@openzeppelin/contracts-upgradeable/access/OwnableUpgradeable.sol\":1514:1519  owner */\n      tag_107\n        /* \"@openzeppelin/contracts-upgradeable/access/OwnableUpgradeable.sol\":1514:1521  owner() */\n      jump\t// in\n    tag_212:\n      sub(shl(0xa0, 0x01), 0x01)\n        /* \"@openzeppelin/contracts-upgradeable/access/OwnableUpgradeable.sol\":1514:1537  owner() == _msgSender() */\n      and\n      eq\n        /* \"@openzeppelin/contracts-upgradeable/access/OwnableUpgradeable.sol\":1506:1574  require(owner() == _msgSender(), \"Ownable: caller is not the owner\") */\n      tag_213\n      jumpi\n      mload(0x40)\n      shl(0xe5, 0x461bcd)\n      dup2\n      mstore\n      0x04\n      add\n      tag_174\n      swap1\n      tag_175\n      jump\t// in\n    tag_213:\n        /* \"contracts/helperLogic.sol\":4525:4583  IERC20Upgradeable(_address).safeTransfer(msg.sender, _amt) */\n      tag_216\n      sub(shl(0xa0, 0x01), 0x01)\n        /* \"contracts/helperLogic.sol\":4525:4565  IERC20Upgradeable(_address).safeTransfer */\n      dup5\n      and\n        /* \"contracts/helperLogic.sol\":4566:4576  msg.sender */\n      caller\n        /* \"contracts/helperLogic.sol\":4578:4582  _amt */\n      dup5\n        /* \"contracts/helperLogic.sol\":4525:4565  IERC20Upgradeable(_address).safeTransfer */\n      tag_217\n        /* \"contracts/helperLogic.sol\":4525:4583  IERC20Upgradeable(_address).safeTransfer(msg.sender, _amt) */\n      jump\t// in\n    tag_216:\n      pop\n        /* \"contracts/helperLogic.sol\":4600:4604  true */\n      0x01\n        /* \"contracts/helperLogic.sol\":4396:4611  function withdrawalERC20(address _address, uint256 _amt)... */\n      swap3\n      swap2\n      pop\n      pop\n      jump\t// out\n        /* \"contracts/helperLogic.sol\":1604:1630  bool public autoAdjustFarm */\n    tag_118:\n      sload(0x74)\n      shl(0xa0, 0x01)\n      swap1\n      div\n      0xff\n      and\n      dup2\n      jump\t// out\n        /* \"contracts/helperLogic.sol\":4617:4735  function setOp(address _address) external onlyOwner returns (bool) {... */\n    tag_122:\n        /* \"contracts/helperLogic.sol\":4678:4682  bool */\n      0x00\n        /* \"@openzeppelin/contracts-upgradeable/access/OwnableUpgradeable.sol\":1525:1537  _msgSender() */\n      tag_219\n        /* \"@openzeppelin/contracts-upgradeable/access/OwnableUpgradeable.sol\":1525:1535  _msgSender */\n      tag_171\n        /* \"@openzeppelin/contracts-upgradeable/access/OwnableUpgradeable.sol\":1525:1537  _msgSender() */\n      jump\t// in\n    tag_219:\n      sub(shl(0xa0, 0x01), 0x01)\n        /* \"@openzeppelin/contracts-upgradeable/access/OwnableUpgradeable.sol\":1514:1537  owner() == _msgSender() */\n      and\n        /* \"@openzeppelin/contracts-upgradeable/access/OwnableUpgradeable.sol\":1514:1521  owner() */\n      tag_220\n        /* \"@openzeppelin/contracts-upgradeable/access/OwnableUpgradeable.sol\":1514:1519  owner */\n      tag_107\n        /* \"@openzeppelin/contracts-upgradeable/access/OwnableUpgradeable.sol\":1514:1521  owner() */\n      jump\t// in\n    tag_220:\n      sub(shl(0xa0, 0x01), 0x01)\n        /* \"@openzeppelin/contracts-upgradeable/access/OwnableUpgradeable.sol\":1514:1537  owner() == _msgSender() */\n      and\n      eq\n        /* \"@openzeppelin/contracts-upgradeable/access/OwnableUpgradeable.sol\":1506:1574  require(owner() == _msgSender(), \"Ownable: caller is not the owner\") */\n      tag_221\n      jumpi\n      mload(0x40)\n      shl(0xe5, 0x461bcd)\n      dup2\n      mstore\n      0x04\n      add\n      tag_174\n      swap1\n      tag_175\n      jump\t// in\n    tag_221:\n      pop\n        /* \"contracts/helperLogic.sol\":4694:4696  op */\n      0x6a\n        /* \"contracts/helperLogic.sol\":4694:4707  op = _address */\n      dup1\n      sload\n      sub(shl(0xa0, 0x01), 0x01)\n      dup4\n      and\n      not(sub(shl(0xa0, 0x01), 0x01))\n      swap1\n      swap2\n      and\n      or\n      swap1\n      sstore\n      0x01\n        /* \"contracts/helperLogic.sol\":4617:4735  function setOp(address _address) external onlyOwner returns (bool) {... */\n      swap2\n      swap1\n      pop\n      jump\t// out\n        /* \"contracts/helperLogic.sol\":1494:1518  uint256 public PRECISION */\n    tag_125:\n      sload(0x71)\n      dup2\n      jump\t// out\n        /* \"contracts/helperLogic.sol\":5005:5133  function setToOpPercent(uint256 _val) external onlyOwner returns (bool) {... */\n    tag_129:\n        /* \"contracts/helperLogic.sol\":5071:5075  bool */\n      0x00\n        /* \"@openzeppelin/contracts-upgradeable/access/OwnableUpgradeable.sol\":1525:1537  _msgSender() */\n      tag_225\n        /* \"@openzeppelin/contracts-upgradeable/access/OwnableUpgradeable.sol\":1525:1535  _msgSender */\n      tag_171\n        /* \"@openzeppelin/contracts-upgradeable/access/OwnableUpgradeable.sol\":1525:1537  _msgSender() */\n      jump\t// in\n    tag_225:\n      sub(shl(0xa0, 0x01), 0x01)\n        /* \"@openzeppelin/contracts-upgradeable/access/OwnableUpgradeable.sol\":1514:1537  owner() == _msgSender() */\n      and\n        /* \"@openzeppelin/contracts-upgradeable/access/OwnableUpgradeable.sol\":1514:1521  owner() */\n      tag_226\n        /* \"@openzeppelin/contracts-upgradeable/access/OwnableUpgradeable.sol\":1514:1519  owner */\n      tag_107\n        /* \"@openzeppelin/contracts-upgradeable/access/OwnableUpgradeable.sol\":1514:1521  owner() */\n      jump\t// in\n    tag_226:\n      sub(shl(0xa0, 0x01), 0x01)\n        /* \"@openzeppelin/contracts-upgradeable/access/OwnableUpgradeable.sol\":1514:1537  owner() == _msgSender() */\n      and\n      eq\n        /* \"@openzeppelin/contracts-upgradeable/access/OwnableUpgradeable.sol\":1506:1574  require(owner() == _msgSender(), \"Ownable: caller is not the owner\") */\n      tag_227\n      jumpi\n      mload(0x40)\n      shl(0xe5, 0x461bcd)\n      dup2\n      mstore\n      0x04\n      add\n      tag_174\n      swap1\n      tag_175\n      jump\t// in\n    tag_227:\n      pop\n        /* \"contracts/helperLogic.sol\":5087:5098  toOpPercent */\n      0x6f\n        /* \"contracts/helperLogic.sol\":5087:5105  toOpPercent = _val */\n      sstore\n        /* \"contracts/helperLogic.sol\":5122:5126  true */\n      0x01\n      swap1\n        /* \"contracts/helperLogic.sol\":5005:5133  function setToOpPercent(uint256 _val) external onlyOwner returns (bool) {... */\n      jump\t// out\n        /* \"contracts/helperLogic.sol\":1235:1264  IERC20Upgradeable public ssea */\n    tag_132:\n      and(sub(shl(0xa0, 0x01), 0x01), sload(0x69))\n      dup2\n      jump\t// out\n        /* \"contracts/helperLogic.sol\":1395:1423  uint256 public toSseaPercent */\n    tag_135:\n      sload(0x6e)\n      dup2\n      jump\t// out\n        /* \"contracts/helperLogic.sol\":1356:1388  IUniswapV2Factory public Factory */\n    tag_138:\n      and(sub(shl(0xa0, 0x01), 0x01), sload(0x6d))\n      dup2\n      jump\t// out\n        /* \"contracts/helperLogic.sol\":1701:2530  function initialize(... */\n    tag_144:\n        /* \"@openzeppelin/contracts-upgradeable/proxy/utils/Initializable.sol\":539:552  _initializing */\n      sload(0x00)\n      0x0100\n      swap1\n      div\n      0xff\n      and\n      dup1\n        /* \"@openzeppelin/contracts-upgradeable/proxy/utils/Initializable.sol\":539:569  _initializing || !_initialized */\n      tag_231\n      jumpi\n      pop\n        /* \"@openzeppelin/contracts-upgradeable/proxy/utils/Initializable.sol\":557:569  _initialized */\n      and(0xff, sload(0x00))\n        /* \"@openzeppelin/contracts-upgradeable/proxy/utils/Initializable.sol\":556:569  !_initialized */\n      iszero\n        /* \"@openzeppelin/contracts-upgradeable/proxy/utils/Initializable.sol\":539:569  _initializing || !_initialized */\n    tag_231:\n        /* \"@openzeppelin/contracts-upgradeable/proxy/utils/Initializable.sol\":531:620  require(_initializing || !_initialized, \"Initializable: contract is already initialized\") */\n      tag_232\n      jumpi\n      mload(0x40)\n      shl(0xe5, 0x461bcd)\n      dup2\n      mstore\n      0x04\n      add\n      tag_174\n      swap1\n      tag_234\n      jump\t// in\n    tag_232:\n        /* \"@openzeppelin/contracts-upgradeable/proxy/utils/Initializable.sol\":631:650  bool isTopLevelCall */\n      0x00\n        /* \"@openzeppelin/contracts-upgradeable/proxy/utils/Initializable.sol\":654:667  _initializing */\n      sload\n      0x0100\n      swap1\n      div\n      0xff\n      and\n        /* \"@openzeppelin/contracts-upgradeable/proxy/utils/Initializable.sol\":653:667  !_initializing */\n      iszero\n        /* \"@openzeppelin/contracts-upgradeable/proxy/utils/Initializable.sol\":677:775  if (isTopLevelCall) {... */\n      dup1\n      iszero\n      tag_235\n      jumpi\n        /* \"@openzeppelin/contracts-upgradeable/proxy/utils/Initializable.sol\":711:724  _initializing */\n      0x00\n        /* \"@openzeppelin/contracts-upgradeable/proxy/utils/Initializable.sol\":711:731  _initializing = true */\n      dup1\n      sload\n      not(0xff)\n      not(0xff00)\n      swap1\n      swap2\n      and\n      0x0100\n      or\n        /* \"@openzeppelin/contracts-upgradeable/proxy/utils/Initializable.sol\":745:764  _initialized = true */\n      and\n        /* \"@openzeppelin/contracts-upgradeable/proxy/utils/Initializable.sol\":727:731  true */\n      0x01\n        /* \"@openzeppelin/contracts-upgradeable/proxy/utils/Initializable.sol\":745:764  _initialized = true */\n      or\n      swap1\n      sstore\n        /* \"@openzeppelin/contracts-upgradeable/proxy/utils/Initializable.sol\":677:775  if (isTopLevelCall) {... */\n    tag_235:\n        /* \"contracts/helperLogic.sol\":2034:2050  __Ownable_init() */\n      tag_237\n        /* \"contracts/helperLogic.sol\":2034:2048  __Ownable_init */\n      tag_238\n        /* \"contracts/helperLogic.sol\":2034:2050  __Ownable_init() */\n      jump\t// in\n    tag_237:\n        /* \"contracts/helperLogic.sol\":2104:2110  Router */\n      0x6c\n        /* \"contracts/helperLogic.sol\":2104:2120  Router = _Router */\n      dup1\n      sload\n      not(sub(shl(0xa0, 0x01), 0x01))\n      swap1\n      dup2\n      and\n      sub(shl(0xa0, 0x01), 0x01)\n      dup10\n      dup2\n      and\n      swap2\n      swap1\n      swap2\n      or\n      swap1\n      swap3\n      sstore\n        /* \"contracts/helperLogic.sol\":2130:2137  Factory */\n      0x6d\n        /* \"contracts/helperLogic.sol\":2130:2148  Factory = _Factory */\n      dup1\n      sload\n      dup3\n      and\n      dup11\n      dup5\n      and\n      or\n      swap1\n      sstore\n        /* \"contracts/helperLogic.sol\":2158:2161  usc */\n      0x66\n        /* \"contracts/helperLogic.sol\":2158:2168  usc = _usc */\n      dup1\n      sload\n      dup3\n      and\n      dup9\n      dup5\n      and\n      or\n      swap1\n      sstore\n        /* \"contracts/helperLogic.sol\":2178:2181  sea */\n      0x68\n        /* \"contracts/helperLogic.sol\":2178:2188  sea = _sea */\n      dup1\n      sload\n      dup3\n      and\n      dup8\n      dup5\n      and\n      or\n      swap1\n      sstore\n        /* \"contracts/helperLogic.sol\":2198:2202  ssea */\n      0x69\n        /* \"contracts/helperLogic.sol\":2198:2210  ssea = _ssea */\n      dup1\n      sload\n      dup3\n      and\n      dup7\n      dup5\n      and\n      or\n      swap1\n      sstore\n        /* \"contracts/helperLogic.sol\":2220:2222  op */\n      0x6a\n        /* \"contracts/helperLogic.sol\":2220:2235  op = msg.sender */\n      dup1\n      sload\n        /* \"contracts/helperLogic.sol\":2225:2235  msg.sender */\n      caller\n        /* \"contracts/helperLogic.sol\":2220:2235  op = msg.sender */\n      swap1\n      dup4\n      and\n      dup2\n      or\n      swap1\n      swap2\n      sstore\n        /* \"contracts/helperLogic.sol\":2245:2248  dev */\n      0x6b\n        /* \"contracts/helperLogic.sol\":2245:2261  dev = msg.sender */\n      dup1\n      sload\n      swap1\n      swap3\n      and\n      or\n      swap1\n      sstore\n        /* \"contracts/helperLogic.sol\":2287:2291  5000 */\n      0x1388\n        /* \"contracts/helperLogic.sol\":2271:2284  toSseaPercent */\n      0x6e\n        /* \"contracts/helperLogic.sol\":2271:2291  toSseaPercent = 5000 */\n      sstore\n        /* \"contracts/helperLogic.sol\":2315:2319  2500 */\n      0x09c4\n        /* \"contracts/helperLogic.sol\":2301:2312  toOpPercent */\n      0x6f\n        /* \"contracts/helperLogic.sol\":2301:2319  toOpPercent = 2500 */\n      dup2\n      swap1\n      sstore\n        /* \"contracts/helperLogic.sol\":2329:2341  toDevPercent */\n      0x70\n        /* \"contracts/helperLogic.sol\":2329:2348  toDevPercent = 2500 */\n      sstore\n        /* \"contracts/helperLogic.sol\":2370:2375  10000 */\n      0x2710\n        /* \"contracts/helperLogic.sol\":2358:2367  PRECISION */\n      0x71\n        /* \"contracts/helperLogic.sol\":2358:2375  PRECISION = 10000 */\n      sstore\n        /* \"contracts/helperLogic.sol\":2397:2401  1000 */\n      0x03e8\n        /* \"contracts/helperLogic.sol\":2385:2394  basePoint */\n      0x72\n        /* \"contracts/helperLogic.sol\":2385:2401  basePoint = 1000 */\n      sstore\n        /* \"contracts/helperLogic.sol\":2411:2425  autoAdjustFarm */\n      0x74\n        /* \"contracts/helperLogic.sol\":2411:2432  autoAdjustFarm = true */\n      dup1\n      sload\n      shl(0xa0, 0x01)\n      not(shl(0xa0, 0xff))\n      swap1\n      swap2\n      and\n      or\n      not(sub(shl(0xa0, 0xff01), 0x01))\n        /* \"contracts/helperLogic.sol\":2474:2486  farm = _farm */\n      and\n      swap2\n      dup5\n      and\n      swap2\n      swap1\n      swap2\n      or\n      swap1\n      sstore\n        /* \"@openzeppelin/contracts-upgradeable/proxy/utils/Initializable.sol\":797:863  if (isTopLevelCall) {... */\n      dup1\n      iszero\n      tag_239\n      jumpi\n        /* \"@openzeppelin/contracts-upgradeable/proxy/utils/Initializable.sol\":847:852  false */\n      0x00\n        /* \"@openzeppelin/contracts-upgradeable/proxy/utils/Initializable.sol\":831:852  _initializing = false */\n      dup1\n      sload\n      not(0xff00)\n      and\n      swap1\n      sstore\n        /* \"@openzeppelin/contracts-upgradeable/proxy/utils/Initializable.sol\":797:863  if (isTopLevelCall) {... */\n    tag_239:\n        /* \"contracts/helperLogic.sol\":1701:2530  function initialize(... */\n      pop\n      pop\n      pop\n      pop\n      pop\n      pop\n      pop\n      jump\t// out\n        /* \"contracts/helperLogic.sol\":2846:3503  function jointExecution() external onlyExecutor returns (bool) {... */\n    tag_146:\n        /* \"contracts/helperLogic.sol\":2770:2780  msg.sender */\n      caller\n        /* \"contracts/helperLogic.sol\":2903:2907  bool */\n      0x00\n        /* \"contracts/helperLogic.sol\":2761:2781  executor[msg.sender] */\n      swap1\n      dup2\n      mstore\n        /* \"contracts/helperLogic.sol\":2761:2769  executor */\n      0x65\n        /* \"contracts/helperLogic.sol\":2761:2781  executor[msg.sender] */\n      0x20\n      mstore\n      0x40\n      dup2\n      keccak256\n      sload\n      0xff\n      and\n        /* \"contracts/helperLogic.sol\":2753:2822  require(executor[msg.sender], \"executor: caller is not the executor\") */\n      tag_241\n      jumpi\n      mload(0x40)\n      shl(0xe5, 0x461bcd)\n      dup2\n      mstore\n      0x04\n      add\n      tag_174\n      swap1\n      tag_243\n      jump\t// in\n    tag_241:\n        /* \"contracts/helperLogic.sol\":2942:2945  usc */\n      sload(0x66)\n        /* \"contracts/helperLogic.sol\":2942:2970  usc.balanceOf(address(this)) */\n      mload(0x40)\n      shl(0xe0, 0x70a08231)\n      dup2\n      mstore\n        /* \"contracts/helperLogic.sol\":2919:2939  uint256 uscBalanceOf */\n      0x00\n      swap2\n      sub(shl(0xa0, 0x01), 0x01)\n        /* \"contracts/helperLogic.sol\":2942:2945  usc */\n      and\n      swap1\n        /* \"contracts/helperLogic.sol\":2942:2955  usc.balanceOf */\n      0x70a08231\n      swap1\n        /* \"contracts/helperLogic.sol\":2942:2970  usc.balanceOf(address(this)) */\n      tag_245\n      swap1\n        /* \"contracts/helperLogic.sol\":2964:2968  this */\n      address\n      swap1\n        /* \"contracts/helperLogic.sol\":2942:2970  usc.balanceOf(address(this)) */\n      0x04\n      add\n      tag_105\n      jump\t// in\n    tag_245:\n      0x20\n      mload(0x40)\n      dup1\n      dup4\n      sub\n      dup2\n      dup7\n      dup1\n      extcodesize\n      iszero\n      dup1\n      iszero\n      tag_246\n      jumpi\n      0x00\n      dup1\n      revert\n    tag_246:\n      pop\n      gas\n      staticcall\n      iszero\n      dup1\n      iszero\n      tag_248\n      jumpi\n      returndatasize\n      0x00\n      dup1\n      returndatacopy\n      revert(0x00, returndatasize)\n    tag_248:\n      pop\n      pop\n      pop\n      pop\n      mload(0x40)\n      returndatasize\n      not(0x1f)\n      0x1f\n      dup3\n      add\n      and\n      dup3\n      add\n      dup1\n      0x40\n      mstore\n      pop\n      dup2\n      add\n      swap1\n      tag_249\n      swap2\n      swap1\n      tag_250\n      jump\t// in\n    tag_249:\n        /* \"contracts/helperLogic.sol\":2919:2970  uint256 uscBalanceOf = usc.balanceOf(address(this)) */\n      swap1\n      pop\n        /* \"contracts/helperLogic.sol\":2980:2994  uint256 toSsea */\n      0x00\n        /* \"contracts/helperLogic.sol\":2997:3043  uscBalanceOf.mul(toSseaPercent).div(PRECISION) */\n      tag_251\n        /* \"contracts/helperLogic.sol\":3033:3042  PRECISION */\n      sload(0x71)\n        /* \"contracts/helperLogic.sol\":2997:3028  uscBalanceOf.mul(toSseaPercent) */\n      tag_252\n        /* \"contracts/helperLogic.sol\":3014:3027  toSseaPercent */\n      sload(0x6e)\n        /* \"contracts/helperLogic.sol\":2997:3009  uscBalanceOf */\n      dup6\n        /* \"contracts/helperLogic.sol\":2997:3013  uscBalanceOf.mul */\n      tag_253\n      swap1\n        /* \"contracts/helperLogic.sol\":2997:3028  uscBalanceOf.mul(toSseaPercent) */\n      swap2\n      swap1\n      0xffffffff\n      and\n      jump\t// in\n    tag_252:\n        /* \"contracts/helperLogic.sol\":2997:3032  uscBalanceOf.mul(toSseaPercent).div */\n      swap1\n      tag_254\n        /* \"contracts/helperLogic.sol\":2997:3043  uscBalanceOf.mul(toSseaPercent).div(PRECISION) */\n      jump\t// in\n    tag_251:\n        /* \"contracts/helperLogic.sol\":2980:3043  uint256 toSsea = uscBalanceOf.mul(toSseaPercent).div(PRECISION) */\n      swap1\n      pop\n        /* \"contracts/helperLogic.sol\":3053:3065  uint256 toOp */\n      0x00\n        /* \"contracts/helperLogic.sol\":3068:3112  uscBalanceOf.mul(toOpPercent).div(PRECISION) */\n      tag_255\n        /* \"contracts/helperLogic.sol\":3102:3111  PRECISION */\n      sload(0x71)\n        /* \"contracts/helperLogic.sol\":3068:3097  uscBalanceOf.mul(toOpPercent) */\n      tag_252\n        /* \"contracts/helperLogic.sol\":3085:3096  toOpPercent */\n      sload(0x6f)\n        /* \"contracts/helperLogic.sol\":3068:3080  uscBalanceOf */\n      dup7\n        /* \"contracts/helperLogic.sol\":3068:3084  uscBalanceOf.mul */\n      tag_253\n      swap1\n        /* \"contracts/helperLogic.sol\":3068:3097  uscBalanceOf.mul(toOpPercent) */\n      swap2\n      swap1\n      0xffffffff\n      and\n      jump\t// in\n        /* \"contracts/helperLogic.sol\":3068:3112  uscBalanceOf.mul(toOpPercent).div(PRECISION) */\n    tag_255:\n        /* \"contracts/helperLogic.sol\":3053:3112  uint256 toOp = uscBalanceOf.mul(toOpPercent).div(PRECISION) */\n      swap1\n      pop\n        /* \"contracts/helperLogic.sol\":3122:3135  uint256 toDev */\n      0x00\n        /* \"contracts/helperLogic.sol\":3138:3172  uscBalanceOf.sub(toSsea).sub(toOp) */\n      tag_257\n        /* \"contracts/helperLogic.sol\":3053:3112  uint256 toOp = uscBalanceOf.mul(toOpPercent).div(PRECISION) */\n      dup3\n        /* \"contracts/helperLogic.sol\":3138:3162  uscBalanceOf.sub(toSsea) */\n      tag_258\n        /* \"contracts/helperLogic.sol\":3138:3150  uscBalanceOf */\n      dup7\n        /* \"contracts/helperLogic.sol\":3155:3161  toSsea */\n      dup7\n        /* \"contracts/helperLogic.sol\":3138:3154  uscBalanceOf.sub */\n      tag_259\n        /* \"contracts/helperLogic.sol\":3138:3162  uscBalanceOf.sub(toSsea) */\n      jump\t// in\n    tag_258:\n        /* \"contracts/helperLogic.sol\":3138:3166  uscBalanceOf.sub(toSsea).sub */\n      swap1\n      tag_259\n        /* \"contracts/helperLogic.sol\":3138:3172  uscBalanceOf.sub(toSsea).sub(toOp) */\n      jump\t// in\n    tag_257:\n        /* \"contracts/helperLogic.sol\":3208:3212  ssea */\n      sload(0x69)\n        /* \"contracts/helperLogic.sol\":3183:3186  usc */\n      sload(0x66)\n        /* \"contracts/helperLogic.sol\":3122:3172  uint256 toDev = uscBalanceOf.sub(toSsea).sub(toOp) */\n      swap2\n      swap3\n      pop\n        /* \"contracts/helperLogic.sol\":3183:3222  usc.safeTransfer(address(ssea), toSsea) */\n      tag_260\n      swap2\n      sub(shl(0xa0, 0x01), 0x01)\n        /* \"contracts/helperLogic.sol\":3183:3186  usc */\n      swap1\n      dup2\n      and\n      swap2\n        /* \"contracts/helperLogic.sol\":3208:3212  ssea */\n      and\n        /* \"contracts/helperLogic.sol\":3215:3221  toSsea */\n      dup6\n        /* \"contracts/helperLogic.sol\":3183:3199  usc.safeTransfer */\n      tag_217\n        /* \"contracts/helperLogic.sol\":3183:3222  usc.safeTransfer(address(ssea), toSsea) */\n      jump\t// in\n    tag_260:\n        /* \"contracts/helperLogic.sol\":3257:3259  op */\n      sload(0x6a)\n        /* \"contracts/helperLogic.sol\":3232:3235  usc */\n      sload(0x66)\n        /* \"contracts/helperLogic.sol\":3232:3267  usc.safeTransfer(address(op), toOp) */\n      tag_261\n      swap2\n      sub(shl(0xa0, 0x01), 0x01)\n        /* \"contracts/helperLogic.sol\":3232:3235  usc */\n      swap2\n      dup3\n      and\n      swap2\n        /* \"contracts/helperLogic.sol\":3257:3259  op */\n      and\n        /* \"contracts/helperLogic.sol\":3262:3266  toOp */\n      dup5\n        /* \"contracts/helperLogic.sol\":3232:3248  usc.safeTransfer */\n      tag_217\n        /* \"contracts/helperLogic.sol\":3232:3267  usc.safeTransfer(address(op), toOp) */\n      jump\t// in\n    tag_261:\n        /* \"contracts/helperLogic.sol\":3302:3305  dev */\n      sload(0x6b)\n        /* \"contracts/helperLogic.sol\":3277:3280  usc */\n      sload(0x66)\n        /* \"contracts/helperLogic.sol\":3277:3314  usc.safeTransfer(address(dev), toDev) */\n      tag_262\n      swap2\n      sub(shl(0xa0, 0x01), 0x01)\n        /* \"contracts/helperLogic.sol\":3277:3280  usc */\n      swap2\n      dup3\n      and\n      swap2\n        /* \"contracts/helperLogic.sol\":3302:3305  dev */\n      and\n        /* \"contracts/helperLogic.sol\":3308:3313  toDev */\n      dup4\n        /* \"contracts/helperLogic.sol\":3277:3293  usc.safeTransfer */\n      tag_217\n        /* \"contracts/helperLogic.sol\":3277:3314  usc.safeTransfer(address(dev), toDev) */\n      jump\t// in\n    tag_262:\n        /* \"contracts/helperLogic.sol\":3329:3343  autoAdjustFarm */\n      sload(0x74)\n      shl(0xa0, 0x01)\n      swap1\n      div\n      0xff\n      and\n        /* \"contracts/helperLogic.sol\":3325:3382  if (autoAdjustFarm) {... */\n      iszero\n      tag_264\n      jumpi\n        /* \"contracts/helperLogic.sol\":3359:3371  adjustFarm() */\n      tag_264\n        /* \"contracts/helperLogic.sol\":3359:3369  adjustFarm */\n      tag_265\n        /* \"contracts/helperLogic.sol\":3359:3371  adjustFarm() */\n      jump\t// in\n    tag_264:\n        /* \"contracts/helperLogic.sol\":3396:3410  openStabilizer */\n      sload(0x74)\n      shl(0xa8, 0x01)\n      swap1\n      div\n      0xff\n      and\n        /* \"contracts/helperLogic.sol\":3392:3475  if (openStabilizer) {... */\n      iszero\n      tag_266\n      jumpi\n        /* \"contracts/helperLogic.sol\":3438:3448  stabilizer */\n      0x75\n      0x00\n      swap1\n      sload\n      swap1\n      0x0100\n      exp\n      swap1\n      div\n      sub(shl(0xa0, 0x01), 0x01)\n      and\n      sub(shl(0xa0, 0x01), 0x01)\n        /* \"contracts/helperLogic.sol\":3426:3462  IStabilizer(stabilizer).goStabilizer */\n      and\n      0x796c7be7\n        /* \"contracts/helperLogic.sol\":3426:3464  IStabilizer(stabilizer).goStabilizer() */\n      mload(0x40)\n      dup2\n      0xffffffff\n      and\n      0xe0\n      shl\n      dup2\n      mstore\n      0x04\n      add\n      0x20\n      mload(0x40)\n      dup1\n      dup4\n      sub\n      dup2\n      0x00\n      dup8\n      dup1\n      extcodesize\n      iszero\n      dup1\n      iszero\n      tag_267\n      jumpi\n      0x00\n      dup1\n      revert\n    tag_267:\n      pop\n      gas\n      call\n      iszero\n      dup1\n      iszero\n      tag_269\n      jumpi\n      returndatasize\n      0x00\n      dup1\n      returndatacopy\n      revert(0x00, returndatasize)\n    tag_269:\n      pop\n      pop\n      pop\n      pop\n      mload(0x40)\n      returndatasize\n      not(0x1f)\n      0x1f\n      dup3\n      add\n      and\n      dup3\n      add\n      dup1\n      0x40\n      mstore\n      pop\n      dup2\n      add\n      swap1\n      tag_270\n      swap2\n      swap1\n      tag_271\n      jump\t// in\n    tag_270:\n      pop\n        /* \"contracts/helperLogic.sol\":3392:3475  if (openStabilizer) {... */\n    tag_266:\n        /* \"contracts/helperLogic.sol\":3492:3496  true */\n      0x01\n        /* \"contracts/helperLogic.sol\":3485:3496  return true */\n      swap5\n      pop\n      pop\n      pop\n      pop\n      pop\n        /* \"contracts/helperLogic.sol\":2846:3503  function jointExecution() external onlyExecutor returns (bool) {... */\n      swap1\n      jump\t// out\n        /* \"contracts/helperLogic.sol\":4741:4861  function setDev(address _address) external onlyOwner returns (bool) {... */\n    tag_150:\n        /* \"contracts/helperLogic.sol\":4803:4807  bool */\n      0x00\n        /* \"@openzeppelin/contracts-upgradeable/access/OwnableUpgradeable.sol\":1525:1537  _msgSender() */\n      tag_273\n        /* \"@openzeppelin/contracts-upgradeable/access/OwnableUpgradeable.sol\":1525:1535  _msgSender */\n      tag_171\n        /* \"@openzeppelin/contracts-upgradeable/access/OwnableUpgradeable.sol\":1525:1537  _msgSender() */\n      jump\t// in\n    tag_273:\n      sub(shl(0xa0, 0x01), 0x01)\n        /* \"@openzeppelin/contracts-upgradeable/access/OwnableUpgradeable.sol\":1514:1537  owner() == _msgSender() */\n      and\n        /* \"@openzeppelin/contracts-upgradeable/access/OwnableUpgradeable.sol\":1514:1521  owner() */\n      tag_274\n        /* \"@openzeppelin/contracts-upgradeable/access/OwnableUpgradeable.sol\":1514:1519  owner */\n      tag_107\n        /* \"@openzeppelin/contracts-upgradeable/access/OwnableUpgradeable.sol\":1514:1521  owner() */\n      jump\t// in\n    tag_274:\n      sub(shl(0xa0, 0x01), 0x01)\n        /* \"@openzeppelin/contracts-upgradeable/access/OwnableUpgradeable.sol\":1514:1537  owner() == _msgSender() */\n      and\n      eq\n        /* \"@openzeppelin/contracts-upgradeable/access/OwnableUpgradeable.sol\":1506:1574  require(owner() == _msgSender(), \"Ownable: caller is not the owner\") */\n      tag_275\n      jumpi\n      mload(0x40)\n      shl(0xe5, 0x461bcd)\n      dup2\n      mstore\n      0x04\n      add\n      tag_174\n      swap1\n      tag_175\n      jump\t// in\n    tag_275:\n      pop\n        /* \"contracts/helperLogic.sol\":4819:4822  dev */\n      0x6b\n        /* \"contracts/helperLogic.sol\":4819:4833  dev = _address */\n      dup1\n      sload\n      sub(shl(0xa0, 0x01), 0x01)\n      dup4\n      and\n      not(sub(shl(0xa0, 0x01), 0x01))\n      swap1\n      swap2\n      and\n      or\n      swap1\n      sstore\n      0x01\n        /* \"contracts/helperLogic.sol\":4741:4861  function setDev(address _address) external onlyOwner returns (bool) {... */\n      swap2\n      swap1\n      pop\n      jump\t// out\n        /* \"contracts/helperLogic.sol\":5553:5687  function setStabilizer(address _address) external onlyOwner returns (bool) {... */\n    tag_154:\n        /* \"contracts/helperLogic.sol\":5622:5626  bool */\n      0x00\n        /* \"@openzeppelin/contracts-upgradeable/access/OwnableUpgradeable.sol\":1525:1537  _msgSender() */\n      tag_279\n        /* \"@openzeppelin/contracts-upgradeable/access/OwnableUpgradeable.sol\":1525:1535  _msgSender */\n      tag_171\n        /* \"@openzeppelin/contracts-upgradeable/access/OwnableUpgradeable.sol\":1525:1537  _msgSender() */\n      jump\t// in\n    tag_279:\n      sub(shl(0xa0, 0x01), 0x01)\n        /* \"@openzeppelin/contracts-upgradeable/access/OwnableUpgradeable.sol\":1514:1537  owner() == _msgSender() */\n      and\n        /* \"@openzeppelin/contracts-upgradeable/access/OwnableUpgradeable.sol\":1514:1521  owner() */\n      tag_280\n        /* \"@openzeppelin/contracts-upgradeable/access/OwnableUpgradeable.sol\":1514:1519  owner */\n      tag_107\n        /* \"@openzeppelin/contracts-upgradeable/access/OwnableUpgradeable.sol\":1514:1521  owner() */\n      jump\t// in\n    tag_280:\n      sub(shl(0xa0, 0x01), 0x01)\n        /* \"@openzeppelin/contracts-upgradeable/access/OwnableUpgradeable.sol\":1514:1537  owner() == _msgSender() */\n      and\n      eq\n        /* \"@openzeppelin/contracts-upgradeable/access/OwnableUpgradeable.sol\":1506:1574  require(owner() == _msgSender(), \"Ownable: caller is not the owner\") */\n      tag_281\n      jumpi\n      mload(0x40)\n      shl(0xe5, 0x461bcd)\n      dup2\n      mstore\n      0x04\n      add\n      tag_174\n      swap1\n      tag_175\n      jump\t// in\n    tag_281:\n      pop\n        /* \"contracts/helperLogic.sol\":5638:5648  stabilizer */\n      0x75\n        /* \"contracts/helperLogic.sol\":5638:5659  stabilizer = _address */\n      dup1\n      sload\n      sub(shl(0xa0, 0x01), 0x01)\n      dup4\n      and\n      not(sub(shl(0xa0, 0x01), 0x01))\n      swap1\n      swap2\n      and\n      or\n      swap1\n      sstore\n      0x01\n        /* \"contracts/helperLogic.sol\":5553:5687  function setStabilizer(address _address) external onlyOwner returns (bool) {... */\n      swap2\n      swap1\n      pop\n      jump\t// out\n        /* \"contracts/helperLogic.sol\":1270:1287  address public op */\n    tag_157:\n      and(sub(shl(0xa0, 0x01), 0x01), sload(0x6a))\n      dup2\n      jump\t// out\n        /* \"contracts/helperLogic.sol\":1555:1573  uint256 public pid */\n    tag_160:\n      sload(0x73)\n      dup2\n      jump\t// out\n        /* \"@openzeppelin/contracts-upgradeable/access/OwnableUpgradeable.sol\":2184:2382  function transferOwnership(address newOwner) public virtual onlyOwner {... */\n    tag_164:\n        /* \"@openzeppelin/contracts-upgradeable/access/OwnableUpgradeable.sol\":1525:1537  _msgSender() */\n      tag_285\n        /* \"@openzeppelin/contracts-upgradeable/access/OwnableUpgradeable.sol\":1525:1535  _msgSender */\n      tag_171\n        /* \"@openzeppelin/contracts-upgradeable/access/OwnableUpgradeable.sol\":1525:1537  _msgSender() */\n      jump\t// in\n    tag_285:\n      sub(shl(0xa0, 0x01), 0x01)\n        /* \"@openzeppelin/contracts-upgradeable/access/OwnableUpgradeable.sol\":1514:1537  owner() == _msgSender() */\n      and\n        /* \"@openzeppelin/contracts-upgradeable/access/OwnableUpgradeable.sol\":1514:1521  owner() */\n      tag_286\n        /* \"@openzeppelin/contracts-upgradeable/access/OwnableUpgradeable.sol\":1514:1519  owner */\n      tag_107\n        /* \"@openzeppelin/contracts-upgradeable/access/OwnableUpgradeable.sol\":1514:1521  owner() */\n      jump\t// in\n    tag_286:\n      sub(shl(0xa0, 0x01), 0x01)\n        /* \"@openzeppelin/contracts-upgradeable/access/OwnableUpgradeable.sol\":1514:1537  owner() == _msgSender() */\n      and\n      eq\n        /* \"@openzeppelin/contracts-upgradeable/access/OwnableUpgradeable.sol\":1506:1574  require(owner() == _msgSender(), \"Ownable: caller is not the owner\") */\n      tag_287\n      jumpi\n      mload(0x40)\n      shl(0xe5, 0x461bcd)\n      dup2\n      mstore\n      0x04\n      add\n      tag_174\n      swap1\n      tag_175\n      jump\t// in\n    tag_287:\n      sub(shl(0xa0, 0x01), 0x01)\n        /* \"@openzeppelin/contracts-upgradeable/access/OwnableUpgradeable.sol\":2272:2294  newOwner != address(0) */\n      dup2\n      and\n        /* \"@openzeppelin/contracts-upgradeable/access/OwnableUpgradeable.sol\":2264:2337  require(newOwner != address(0), \"Ownable: new owner is the zero address\") */\n      tag_290\n      jumpi\n      mload(0x40)\n      shl(0xe5, 0x461bcd)\n      dup2\n      mstore\n      0x04\n      add\n      tag_174\n      swap1\n      tag_292\n      jump\t// in\n    tag_290:\n        /* \"@openzeppelin/contracts-upgradeable/access/OwnableUpgradeable.sol\":2347:2375  _transferOwnership(newOwner) */\n      tag_293\n        /* \"@openzeppelin/contracts-upgradeable/access/OwnableUpgradeable.sol\":2366:2374  newOwner */\n      dup2\n        /* \"@openzeppelin/contracts-upgradeable/access/OwnableUpgradeable.sol\":2347:2365  _transferOwnership */\n      tag_208\n        /* \"@openzeppelin/contracts-upgradeable/access/OwnableUpgradeable.sol\":2347:2375  _transferOwnership(newOwner) */\n      jump\t// in\n    tag_293:\n        /* \"@openzeppelin/contracts-upgradeable/access/OwnableUpgradeable.sol\":2184:2382  function transferOwnership(address newOwner) public virtual onlyOwner {... */\n      pop\n      jump\t// out\n        /* \"contracts/helperLogic.sol\":1318:1350  IUniswapV2Router02 public Router */\n    tag_166:\n      and(sub(shl(0xa0, 0x01), 0x01), sload(0x6c))\n      dup2\n      jump\t// out\n        /* \"@openzeppelin/contracts-upgradeable/utils/ContextUpgradeable.sol\":876:972  function _msgSender() internal view virtual returns (address) {... */\n    tag_171:\n        /* \"@openzeppelin/contracts-upgradeable/utils/ContextUpgradeable.sol\":955:965  msg.sender */\n      caller\n        /* \"@openzeppelin/contracts-upgradeable/utils/ContextUpgradeable.sol\":876:972  function _msgSender() internal view virtual returns (address) {... */\n      swap1\n      jump\t// out\n        /* \"@openzeppelin/contracts-upgradeable/access/OwnableUpgradeable.sol\":2536:2723  function _transferOwnership(address newOwner) internal virtual {... */\n    tag_208:\n        /* \"@openzeppelin/contracts-upgradeable/access/OwnableUpgradeable.sol\":2628:2634  _owner */\n      0x33\n      dup1\n      sload\n      sub(shl(0xa0, 0x01), 0x01)\n        /* \"@openzeppelin/contracts-upgradeable/access/OwnableUpgradeable.sol\":2644:2661  _owner = newOwner */\n      dup4\n      dup2\n      and\n      not(sub(shl(0xa0, 0x01), 0x01))\n      dup4\n      and\n      dup2\n      or\n      swap1\n      swap4\n      sstore\n        /* \"@openzeppelin/contracts-upgradeable/access/OwnableUpgradeable.sol\":2676:2716  OwnershipTransferred(oldOwner, newOwner) */\n      mload(0x40)\n        /* \"@openzeppelin/contracts-upgradeable/access/OwnableUpgradeable.sol\":2628:2634  _owner */\n      swap2\n      and\n      swap2\n        /* \"@openzeppelin/contracts-upgradeable/access/OwnableUpgradeable.sol\":2644:2661  _owner = newOwner */\n      swap1\n        /* \"@openzeppelin/contracts-upgradeable/access/OwnableUpgradeable.sol\":2628:2634  _owner */\n      dup3\n      swap1\n        /* \"@openzeppelin/contracts-upgradeable/access/OwnableUpgradeable.sol\":2676:2716  OwnershipTransferred(oldOwner, newOwner) */\n      0x8be0079c531659141344cd1fd0a4f28419497f9722a3daafe3b4186f6b6457e0\n      swap1\n        /* \"@openzeppelin/contracts-upgradeable/access/OwnableUpgradeable.sol\":2609:2625  address oldOwner */\n      0x00\n      swap1\n        /* \"@openzeppelin/contracts-upgradeable/access/OwnableUpgradeable.sol\":2676:2716  OwnershipTransferred(oldOwner, newOwner) */\n      log3\n        /* \"@openzeppelin/contracts-upgradeable/access/OwnableUpgradeable.sol\":2536:2723  function _transferOwnership(address newOwner) internal virtual {... */\n      pop\n      pop\n      jump\t// out\n        /* \"@openzeppelin/contracts-upgradeable/token/ERC20/utils/SafeERC20Upgradeable.sol\":745:961  function safeTransfer(... */\n    tag_217:\n        /* \"@openzeppelin/contracts-upgradeable/token/ERC20/utils/SafeERC20Upgradeable.sol\":868:954  _callOptionalReturn(token, abi.encodeWithSelector(token.transfer.selector, to, value)) */\n      tag_297\n        /* \"@openzeppelin/contracts-upgradeable/token/ERC20/utils/SafeERC20Upgradeable.sol\":888:893  token */\n      dup4\n        /* \"@openzeppelin/contracts-upgradeable/token/ERC20/utils/SafeERC20Upgradeable.sol\":918:941  token.transfer.selector */\n      shl(0xe0, 0xa9059cbb)\n        /* \"@openzeppelin/contracts-upgradeable/token/ERC20/utils/SafeERC20Upgradeable.sol\":943:945  to */\n      dup5\n        /* \"@openzeppelin/contracts-upgradeable/token/ERC20/utils/SafeERC20Upgradeable.sol\":947:952  value */\n      dup5\n        /* \"@openzeppelin/contracts-upgradeable/token/ERC20/utils/SafeERC20Upgradeable.sol\":895:953  abi.encodeWithSelector(token.transfer.selector, to, value) */\n      add(0x24, mload(0x40))\n      tag_298\n      swap3\n      swap2\n      swap1\n      tag_299\n      jump\t// in\n    tag_298:\n      0x40\n      dup1\n      mload\n      not(0x1f)\n      dup2\n      dup5\n      sub\n      add\n      dup2\n      mstore\n      swap2\n      swap1\n      mstore\n      0x20\n      dup2\n      add\n      dup1\n      mload\n      sub(shl(0xe0, 0x01), 0x01)\n      and\n      not(sub(shl(0xe0, 0x01), 0x01))\n      swap1\n      swap4\n      and\n      swap3\n      swap1\n      swap3\n      or\n      swap1\n      swap2\n      mstore\n        /* \"@openzeppelin/contracts-upgradeable/token/ERC20/utils/SafeERC20Upgradeable.sol\":868:887  _callOptionalReturn */\n      tag_300\n        /* \"@openzeppelin/contracts-upgradeable/token/ERC20/utils/SafeERC20Upgradeable.sol\":868:954  _callOptionalReturn(token, abi.encodeWithSelector(token.transfer.selector, to, value)) */\n      jump\t// in\n    tag_297:\n        /* \"@openzeppelin/contracts-upgradeable/token/ERC20/utils/SafeERC20Upgradeable.sol\":745:961  function safeTransfer(... */\n      pop\n      pop\n      pop\n      jump\t// out\n        /* \"@openzeppelin/contracts-upgradeable/access/OwnableUpgradeable.sol\":988:1114  function __Ownable_init() internal initializer {... */\n    tag_238:\n        /* \"@openzeppelin/contracts-upgradeable/proxy/utils/Initializable.sol\":539:552  _initializing */\n      sload(0x00)\n      0x0100\n      swap1\n      div\n      0xff\n      and\n      dup1\n        /* \"@openzeppelin/contracts-upgradeable/proxy/utils/Initializable.sol\":539:569  _initializing || !_initialized */\n      tag_302\n      jumpi\n      pop\n        /* \"@openzeppelin/contracts-upgradeable/proxy/utils/Initializable.sol\":557:569  _initialized */\n      and(0xff, sload(0x00))\n        /* \"@openzeppelin/contracts-upgradeable/proxy/utils/Initializable.sol\":556:569  !_initialized */\n      iszero\n        /* \"@openzeppelin/contracts-upgradeable/proxy/utils/Initializable.sol\":539:569  _initializing || !_initialized */\n    tag_302:\n        /* \"@openzeppelin/contracts-upgradeable/proxy/utils/Initializable.sol\":531:620  require(_initializing || !_initialized, \"Initializable: contract is already initialized\") */\n      tag_303\n      jumpi\n      mload(0x40)\n      shl(0xe5, 0x461bcd)\n      dup2\n      mstore\n      0x04\n      add\n      tag_174\n      swap1\n      tag_234\n      jump\t// in\n    tag_303:\n        /* \"@openzeppelin/contracts-upgradeable/proxy/utils/Initializable.sol\":631:650  bool isTopLevelCall */\n      0x00\n        /* \"@openzeppelin/contracts-upgradeable/proxy/utils/Initializable.sol\":654:667  _initializing */\n      sload\n      0x0100\n      swap1\n      div\n      0xff\n      and\n        /* \"@openzeppelin/contracts-upgradeable/proxy/utils/Initializable.sol\":653:667  !_initializing */\n      iszero\n        /* \"@openzeppelin/contracts-upgradeable/proxy/utils/Initializable.sol\":677:775  if (isTopLevelCall) {... */\n      dup1\n      iszero\n      tag_305\n      jumpi\n        /* \"@openzeppelin/contracts-upgradeable/proxy/utils/Initializable.sol\":711:724  _initializing */\n      0x00\n        /* \"@openzeppelin/contracts-upgradeable/proxy/utils/Initializable.sol\":711:731  _initializing = true */\n      dup1\n      sload\n      not(0xff)\n      not(0xff00)\n      swap1\n      swap2\n      and\n      0x0100\n      or\n        /* \"@openzeppelin/contracts-upgradeable/proxy/utils/Initializable.sol\":745:764  _initialized = true */\n      and\n        /* \"@openzeppelin/contracts-upgradeable/proxy/utils/Initializable.sol\":727:731  true */\n      0x01\n        /* \"@openzeppelin/contracts-upgradeable/proxy/utils/Initializable.sol\":745:764  _initialized = true */\n      or\n      swap1\n      sstore\n        /* \"@openzeppelin/contracts-upgradeable/proxy/utils/Initializable.sol\":677:775  if (isTopLevelCall) {... */\n    tag_305:\n        /* \"@openzeppelin/contracts-upgradeable/access/OwnableUpgradeable.sol\":1045:1071  __Context_init_unchained() */\n      tag_307\n        /* \"@openzeppelin/contracts-upgradeable/access/OwnableUpgradeable.sol\":1045:1069  __Context_init_unchained */\n      tag_308\n        /* \"@openzeppelin/contracts-upgradeable/access/OwnableUpgradeable.sol\":1045:1071  __Context_init_unchained() */\n      jump\t// in\n    tag_307:\n        /* \"@openzeppelin/contracts-upgradeable/access/OwnableUpgradeable.sol\":1081:1107  __Ownable_init_unchained() */\n      tag_309\n        /* \"@openzeppelin/contracts-upgradeable/access/OwnableUpgradeable.sol\":1081:1105  __Ownable_init_unchained */\n      tag_310\n        /* \"@openzeppelin/contracts-upgradeable/access/OwnableUpgradeable.sol\":1081:1107  __Ownable_init_unchained() */\n      jump\t// in\n    tag_309:\n        /* \"@openzeppelin/contracts-upgradeable/proxy/utils/Initializable.sol\":801:815  isTopLevelCall */\n      dup1\n        /* \"@openzeppelin/contracts-upgradeable/proxy/utils/Initializable.sol\":797:863  if (isTopLevelCall) {... */\n      iszero\n      tag_293\n      jumpi\n        /* \"@openzeppelin/contracts-upgradeable/proxy/utils/Initializable.sol\":847:852  false */\n      0x00\n        /* \"@openzeppelin/contracts-upgradeable/proxy/utils/Initializable.sol\":831:852  _initializing = false */\n      dup1\n      sload\n      not(0xff00)\n      and\n      swap1\n      sstore\n        /* \"@openzeppelin/contracts-upgradeable/access/OwnableUpgradeable.sol\":988:1114  function __Ownable_init() internal initializer {... */\n      pop\n      jump\t// out\n        /* \"@openzeppelin/contracts-upgradeable/utils/math/SafeMathUpgradeable.sol\":3462:3558  function mul(uint256 a, uint256 b) internal pure returns (uint256) {... */\n    tag_253:\n        /* \"@openzeppelin/contracts-upgradeable/utils/math/SafeMathUpgradeable.sol\":3520:3527  uint256 */\n      0x00\n        /* \"@openzeppelin/contracts-upgradeable/utils/math/SafeMathUpgradeable.sol\":3546:3551  a * b */\n      tag_313\n        /* \"@openzeppelin/contracts-upgradeable/utils/math/SafeMathUpgradeable.sol\":3550:3551  b */\n      dup3\n        /* \"@openzeppelin/contracts-upgradeable/utils/math/SafeMathUpgradeable.sol\":3546:3547  a */\n      dup5\n        /* \"@openzeppelin/contracts-upgradeable/utils/math/SafeMathUpgradeable.sol\":3546:3551  a * b */\n      tag_314\n      jump\t// in\n    tag_313:\n        /* \"@openzeppelin/contracts-upgradeable/utils/math/SafeMathUpgradeable.sol\":3539:3551  return a * b */\n      swap4\n        /* \"@openzeppelin/contracts-upgradeable/utils/math/SafeMathUpgradeable.sol\":3462:3558  function mul(uint256 a, uint256 b) internal pure returns (uint256) {... */\n      swap3\n      pop\n      pop\n      pop\n      jump\t// out\n        /* \"@openzeppelin/contracts-upgradeable/utils/math/SafeMathUpgradeable.sol\":3847:3943  function div(uint256 a, uint256 b) internal pure returns (uint256) {... */\n    tag_254:\n        /* \"@openzeppelin/contracts-upgradeable/utils/math/SafeMathUpgradeable.sol\":3905:3912  uint256 */\n      0x00\n        /* \"@openzeppelin/contracts-upgradeable/utils/math/SafeMathUpgradeable.sol\":3931:3936  a / b */\n      tag_313\n        /* \"@openzeppelin/contracts-upgradeable/utils/math/SafeMathUpgradeable.sol\":3935:3936  b */\n      dup3\n        /* \"@openzeppelin/contracts-upgradeable/utils/math/SafeMathUpgradeable.sol\":3931:3932  a */\n      dup5\n        /* \"@openzeppelin/contracts-upgradeable/utils/math/SafeMathUpgradeable.sol\":3931:3936  a / b */\n      tag_317\n      jump\t// in\n        /* \"@openzeppelin/contracts-upgradeable/utils/math/SafeMathUpgradeable.sol\":3119:3215  function sub(uint256 a, uint256 b) internal pure returns (uint256) {... */\n    tag_259:\n        /* \"@openzeppelin/contracts-upgradeable/utils/math/SafeMathUpgradeable.sol\":3177:3184  uint256 */\n      0x00\n        /* \"@openzeppelin/contracts-upgradeable/utils/math/SafeMathUpgradeable.sol\":3203:3208  a - b */\n      tag_313\n        /* \"@openzeppelin/contracts-upgradeable/utils/math/SafeMathUpgradeable.sol\":3207:3208  b */\n      dup3\n        /* \"@openzeppelin/contracts-upgradeable/utils/math/SafeMathUpgradeable.sol\":3203:3204  a */\n      dup5\n        /* \"@openzeppelin/contracts-upgradeable/utils/math/SafeMathUpgradeable.sol\":3203:3208  a - b */\n      tag_320\n      jump\t// in\n        /* \"contracts/helperLogic.sol\":3509:4390  function adjustFarm() internal {... */\n    tag_265:\n        /* \"contracts/helperLogic.sol\":3572:3579  Factory */\n      sload(0x6d)\n        /* \"contracts/helperLogic.sol\":3596:3600  usdc */\n      sload(0x67)\n        /* \"contracts/helperLogic.sol\":3611:3614  usc */\n      sload(0x66)\n        /* \"contracts/helperLogic.sol\":3572:3616  Factory.getPair(address(usdc), address(usc)) */\n      mload(0x40)\n      shl(0xe0, 0xe6a43905)\n      dup2\n      mstore\n        /* \"contracts/helperLogic.sol\":3550:3569  address pairAddress */\n      0x00\n      swap4\n      sub(shl(0xa0, 0x01), 0x01)\n        /* \"contracts/helperLogic.sol\":3572:3579  Factory */\n      swap1\n      dup2\n      and\n      swap4\n        /* \"contracts/helperLogic.sol\":3572:3587  Factory.getPair */\n      0xe6a43905\n      swap4\n        /* \"contracts/helperLogic.sol\":3572:3616  Factory.getPair(address(usdc), address(usc)) */\n      tag_322\n      swap4\n        /* \"contracts/helperLogic.sol\":3596:3600  usdc */\n      swap2\n      dup4\n      and\n      swap3\n        /* \"contracts/helperLogic.sol\":3611:3614  usc */\n      and\n      swap1\n        /* \"contracts/helperLogic.sol\":3572:3616  Factory.getPair(address(usdc), address(usc)) */\n      0x04\n      add\n      tag_323\n      jump\t// in\n    tag_322:\n      0x20\n      mload(0x40)\n      dup1\n      dup4\n      sub\n      dup2\n      dup7\n      dup1\n      extcodesize\n      iszero\n      dup1\n      iszero\n      tag_324\n      jumpi\n      0x00\n      dup1\n      revert\n    tag_324:\n      pop\n      gas\n      staticcall\n      iszero\n      dup1\n      iszero\n      tag_326\n      jumpi\n      returndatasize\n      0x00\n      dup1\n      returndatacopy\n      revert(0x00, returndatasize)\n    tag_326:\n      pop\n      pop\n      pop\n      pop\n      mload(0x40)\n      returndatasize\n      not(0x1f)\n      0x1f\n      dup3\n      add\n      and\n      dup3\n      add\n      dup1\n      0x40\n      mstore\n      pop\n      dup2\n      add\n      swap1\n      tag_327\n      swap2\n      swap1\n      tag_328\n      jump\t// in\n    tag_327:\n        /* \"contracts/helperLogic.sol\":3649:3652  usc */\n      sload(0x66)\n        /* \"contracts/helperLogic.sol\":3649:3675  usc.balanceOf(pairAddress) */\n      mload(0x40)\n      shl(0xe0, 0x70a08231)\n      dup2\n      mstore\n        /* \"contracts/helperLogic.sol\":3550:3616  address pairAddress = Factory.getPair(address(usdc), address(usc)) */\n      swap2\n      swap3\n      pop\n        /* \"contracts/helperLogic.sol\":3626:3646  uint256 uscBalanceOf */\n      0x00\n      swap2\n      sub(shl(0xa0, 0x01), 0x01)\n        /* \"contracts/helperLogic.sol\":3649:3652  usc */\n      swap1\n      swap2\n      and\n      swap1\n        /* \"contracts/helperLogic.sol\":3649:3662  usc.balanceOf */\n      0x70a08231\n      swap1\n        /* \"contracts/helperLogic.sol\":3649:3675  usc.balanceOf(pairAddress) */\n      tag_329\n      swap1\n        /* \"contracts/helperLogic.sol\":3550:3616  address pairAddress = Factory.getPair(address(usdc), address(usc)) */\n      dup6\n      swap1\n        /* \"contracts/helperLogic.sol\":3649:3675  usc.balanceOf(pairAddress) */\n      0x04\n      add\n      tag_105\n      jump\t// in\n    tag_329:\n      0x20\n      mload(0x40)\n      dup1\n      dup4\n      sub\n      dup2\n      dup7\n      dup1\n      extcodesize\n      iszero\n      dup1\n      iszero\n      tag_330\n      jumpi\n      0x00\n      dup1\n      revert\n    tag_330:\n      pop\n      gas\n      staticcall\n      iszero\n      dup1\n      iszero\n      tag_332\n      jumpi\n      returndatasize\n      0x00\n      dup1\n      returndatacopy\n      revert(0x00, returndatasize)\n    tag_332:\n      pop\n      pop\n      pop\n      pop\n      mload(0x40)\n      returndatasize\n      not(0x1f)\n      0x1f\n      dup3\n      add\n      and\n      dup3\n      add\n      dup1\n      0x40\n      mstore\n      pop\n      dup2\n      add\n      swap1\n      tag_333\n      swap2\n      swap1\n      tag_250\n      jump\t// in\n    tag_333:\n        /* \"contracts/helperLogic.sol\":3709:3713  usdc */\n      sload(0x67)\n        /* \"contracts/helperLogic.sol\":3709:3736  usdc.balanceOf(pairAddress) */\n      mload(0x40)\n      shl(0xe0, 0x70a08231)\n      dup2\n      mstore\n        /* \"contracts/helperLogic.sol\":3626:3675  uint256 uscBalanceOf = usc.balanceOf(pairAddress) */\n      swap2\n      swap3\n      pop\n        /* \"contracts/helperLogic.sol\":3685:3706  uint256 usdcBalanceOf */\n      0x00\n      swap2\n      sub(shl(0xa0, 0x01), 0x01)\n        /* \"contracts/helperLogic.sol\":3709:3713  usdc */\n      swap1\n      swap2\n      and\n      swap1\n        /* \"contracts/helperLogic.sol\":3709:3723  usdc.balanceOf */\n      0x70a08231\n      swap1\n        /* \"contracts/helperLogic.sol\":3709:3736  usdc.balanceOf(pairAddress) */\n      tag_334\n      swap1\n        /* \"contracts/helperLogic.sol\":3724:3735  pairAddress */\n      dup7\n      swap1\n        /* \"contracts/helperLogic.sol\":3709:3736  usdc.balanceOf(pairAddress) */\n      0x04\n      add\n      tag_105\n      jump\t// in\n    tag_334:\n      0x20\n      mload(0x40)\n      dup1\n      dup4\n      sub\n      dup2\n      dup7\n      dup1\n      extcodesize\n      iszero\n      dup1\n      iszero\n      tag_335\n      jumpi\n      0x00\n      dup1\n      revert\n    tag_335:\n      pop\n      gas\n      staticcall\n      iszero\n      dup1\n      iszero\n      tag_337\n      jumpi\n      returndatasize\n      0x00\n      dup1\n      returndatacopy\n      revert(0x00, returndatasize)\n    tag_337:\n      pop\n      pop\n      pop\n      pop\n      mload(0x40)\n      returndatasize\n      not(0x1f)\n      0x1f\n      dup3\n      add\n      and\n      dup3\n      add\n      dup1\n      0x40\n      mstore\n      pop\n      dup2\n      add\n      swap1\n      tag_338\n      swap2\n      swap1\n      tag_250\n      jump\t// in\n    tag_338:\n        /* \"contracts/helperLogic.sol\":3685:3736  uint256 usdcBalanceOf = usdc.balanceOf(pairAddress) */\n      swap1\n      pop\n        /* \"contracts/helperLogic.sol\":3746:3762  uint256 uscPrice */\n      0x00\n        /* \"contracts/helperLogic.sol\":3765:3806  usdcBalanceOf.mul(1e18).div(uscBalanceOf) */\n      tag_339\n        /* \"contracts/helperLogic.sol\":3793:3805  uscBalanceOf */\n      dup4\n        /* \"contracts/helperLogic.sol\":3765:3788  usdcBalanceOf.mul(1e18) */\n      tag_252\n        /* \"contracts/helperLogic.sol\":3685:3736  uint256 usdcBalanceOf = usdc.balanceOf(pairAddress) */\n      dup5\n        /* \"contracts/helperLogic.sol\":3783:3787  1e18 */\n      0x0de0b6b3a7640000\n        /* \"contracts/helperLogic.sol\":3765:3782  usdcBalanceOf.mul */\n      tag_253\n        /* \"contracts/helperLogic.sol\":3765:3788  usdcBalanceOf.mul(1e18) */\n      jump\t// in\n        /* \"contracts/helperLogic.sol\":3765:3806  usdcBalanceOf.mul(1e18).div(uscBalanceOf) */\n    tag_339:\n        /* \"contracts/helperLogic.sol\":3746:3806  uint256 uscPrice = usdcBalanceOf.mul(1e18).div(uscBalanceOf) */\n      swap1\n      pop\n        /* \"contracts/helperLogic.sol\":3816:3845  uint256 USDC_USC_LP_farmPoint */\n      0x00\n        /* \"contracts/helperLogic.sol\":3855:3872  uint256 diffPoint */\n      dup1\n        /* \"contracts/helperLogic.sol\":3897:3901  1e18 */\n      0x0de0b6b3a7640000\n        /* \"contracts/helperLogic.sol\":3886:3894  uscPrice */\n      dup4\n        /* \"contracts/helperLogic.sol\":3886:3901  uscPrice > 1e18 */\n      gt\n        /* \"contracts/helperLogic.sol\":3882:4328  if (uscPrice > 1e18) {... */\n      iszero\n      tag_341\n      jumpi\n        /* \"contracts/helperLogic.sol\":3950:3980  (uscPrice.sub(1e18)).div(1e14) */\n      tag_342\n        /* \"contracts/helperLogic.sol\":3975:3979  1e14 */\n      0x5af3107a4000\n        /* \"contracts/helperLogic.sol\":3951:3969  uscPrice.sub(1e18) */\n      tag_252\n        /* \"contracts/helperLogic.sol\":3951:3959  uscPrice */\n      dup6\n        /* \"contracts/helperLogic.sol\":3964:3968  1e18 */\n      0x0de0b6b3a7640000\n        /* \"contracts/helperLogic.sol\":3951:3963  uscPrice.sub */\n      tag_259\n        /* \"contracts/helperLogic.sol\":3951:3969  uscPrice.sub(1e18) */\n      jump\t// in\n        /* \"contracts/helperLogic.sol\":3950:3980  (uscPrice.sub(1e18)).div(1e14) */\n    tag_342:\n        /* \"contracts/helperLogic.sol\":3938:3980  diffPoint = (uscPrice.sub(1e18)).div(1e14) */\n      swap1\n      pop\n        /* \"contracts/helperLogic.sol\":4010:4019  basePoint */\n      sload(0x72)\n        /* \"contracts/helperLogic.sol\":3998:4007  diffPoint */\n      dup2\n        /* \"contracts/helperLogic.sol\":3998:4019  diffPoint > basePoint */\n      gt\n        /* \"contracts/helperLogic.sol\":3994:4166  if (diffPoint > basePoint) {... */\n      iszero\n      tag_344\n      jumpi\n        /* \"contracts/helperLogic.sol\":4063:4064  0 */\n      0x00\n        /* \"contracts/helperLogic.sol\":4039:4064  USDC_USC_LP_farmPoint = 0 */\n      swap2\n      pop\n        /* \"contracts/helperLogic.sol\":3994:4166  if (diffPoint > basePoint) {... */\n      jump(tag_345)\n    tag_344:\n        /* \"contracts/helperLogic.sol\":4127:4136  basePoint */\n      sload(0x72)\n        /* \"contracts/helperLogic.sol\":4127:4151  basePoint.sub(diffPoint) */\n      tag_346\n      swap1\n        /* \"contracts/helperLogic.sol\":4141:4150  diffPoint */\n      dup3\n        /* \"contracts/helperLogic.sol\":4127:4140  basePoint.sub */\n      tag_259\n        /* \"contracts/helperLogic.sol\":4127:4151  basePoint.sub(diffPoint) */\n      jump\t// in\n    tag_346:\n        /* \"contracts/helperLogic.sol\":4103:4151  USDC_USC_LP_farmPoint = basePoint.sub(diffPoint) */\n      swap2\n      pop\n        /* \"contracts/helperLogic.sol\":3994:4166  if (diffPoint > basePoint) {... */\n    tag_345:\n        /* \"contracts/helperLogic.sol\":3882:4328  if (uscPrice > 1e18) {... */\n      jump(tag_347)\n    tag_341:\n        /* \"contracts/helperLogic.sol\":4228:4255  (1e18 - uscPrice).div(1e14) */\n      tag_348\n        /* \"contracts/helperLogic.sol\":4250:4254  1e14 */\n      0x5af3107a4000\n        /* \"contracts/helperLogic.sol\":4229:4244  1e18 - uscPrice */\n      tag_252\n        /* \"contracts/helperLogic.sol\":4236:4244  uscPrice */\n      dup6\n        /* \"contracts/helperLogic.sol\":4229:4233  1e18 */\n      0x0de0b6b3a7640000\n        /* \"contracts/helperLogic.sol\":4229:4244  1e18 - uscPrice */\n      tag_320\n      jump\t// in\n        /* \"contracts/helperLogic.sol\":4228:4255  (1e18 - uscPrice).div(1e14) */\n    tag_348:\n        /* \"contracts/helperLogic.sol\":4293:4302  basePoint */\n      sload(0x72)\n        /* \"contracts/helperLogic.sol\":4216:4255  diffPoint = (1e18 - uscPrice).div(1e14) */\n      swap1\n      swap2\n      pop\n        /* \"contracts/helperLogic.sol\":4293:4317  basePoint.add(diffPoint) */\n      tag_350\n      swap1\n        /* \"contracts/helperLogic.sol\":4216:4255  diffPoint = (1e18 - uscPrice).div(1e14) */\n      dup3\n        /* \"contracts/helperLogic.sol\":4293:4306  basePoint.add */\n      tag_351\n        /* \"contracts/helperLogic.sol\":4293:4317  basePoint.add(diffPoint) */\n      jump\t// in\n    tag_350:\n        /* \"contracts/helperLogic.sol\":4269:4317  USDC_USC_LP_farmPoint = basePoint.add(diffPoint) */\n      swap2\n      pop\n        /* \"contracts/helperLogic.sol\":3882:4328  if (uscPrice > 1e18) {... */\n    tag_347:\n        /* \"contracts/helperLogic.sol\":4337:4341  farm */\n      sload(0x74)\n        /* \"contracts/helperLogic.sol\":4350:4353  pid */\n      sload(0x73)\n        /* \"contracts/helperLogic.sol\":4337:4383  farm.setPool(pid, USDC_USC_LP_farmPoint, true) */\n      mload(0x40)\n      shl(0xe1, 0x236535f5)\n      dup2\n      mstore\n      sub(shl(0xa0, 0x01), 0x01)\n        /* \"contracts/helperLogic.sol\":4337:4341  farm */\n      swap1\n      swap3\n      and\n      swap2\n        /* \"contracts/helperLogic.sol\":4337:4349  farm.setPool */\n      0x46ca6bea\n      swap2\n        /* \"contracts/helperLogic.sol\":4337:4383  farm.setPool(pid, USDC_USC_LP_farmPoint, true) */\n      tag_352\n      swap2\n        /* \"contracts/helperLogic.sol\":4355:4376  USDC_USC_LP_farmPoint */\n      dup7\n      swap1\n        /* \"contracts/helperLogic.sol\":4337:4341  farm */\n      0x01\n      swap1\n        /* \"contracts/helperLogic.sol\":4337:4383  farm.setPool(pid, USDC_USC_LP_farmPoint, true) */\n      0x04\n      add\n      tag_353\n      jump\t// in\n    tag_352:\n      0x00\n      mload(0x40)\n      dup1\n      dup4\n      sub\n      dup2\n      0x00\n      dup8\n      dup1\n      extcodesize\n      iszero\n      dup1\n      iszero\n      tag_354\n      jumpi\n      0x00\n      dup1\n      revert\n    tag_354:\n      pop\n      gas\n      call\n      iszero\n      dup1\n      iszero\n      tag_356\n      jumpi\n      returndatasize\n      0x00\n      dup1\n      returndatacopy\n      revert(0x00, returndatasize)\n    tag_356:\n      pop\n      pop\n      pop\n      pop\n        /* \"contracts/helperLogic.sol\":3509:4390  function adjustFarm() internal {... */\n      pop\n      pop\n      pop\n      pop\n      pop\n      pop\n      jump\t// out\n        /* \"@openzeppelin/contracts-upgradeable/token/ERC20/utils/SafeERC20Upgradeable.sol\":3306:4023  function _callOptionalReturn(IERC20Upgradeable token, bytes memory data) private {... */\n    tag_300:\n        /* \"@openzeppelin/contracts-upgradeable/token/ERC20/utils/SafeERC20Upgradeable.sol\":3736:3759  bytes memory returndata */\n      0x00\n        /* \"@openzeppelin/contracts-upgradeable/token/ERC20/utils/SafeERC20Upgradeable.sol\":3762:3831  address(token).functionCall(data, \"SafeERC20: low-level call failed\") */\n      tag_358\n        /* \"@openzeppelin/contracts-upgradeable/token/ERC20/utils/SafeERC20Upgradeable.sol\":3790:3794  data */\n      dup3\n        /* \"@openzeppelin/contracts-upgradeable/token/ERC20/utils/SafeERC20Upgradeable.sol\":3762:3831  address(token).functionCall(data, \"SafeERC20: low-level call failed\") */\n      mload(0x40)\n      dup1\n      0x40\n      add\n      0x40\n      mstore\n      dup1\n      0x20\n      dup2\n      mstore\n      0x20\n      add\n      0x5361666545524332303a206c6f772d6c6576656c2063616c6c206661696c6564\n      dup2\n      mstore\n      pop\n        /* \"@openzeppelin/contracts-upgradeable/token/ERC20/utils/SafeERC20Upgradeable.sol\":3770:3775  token */\n      dup6\n      sub(shl(0xa0, 0x01), 0x01)\n        /* \"@openzeppelin/contracts-upgradeable/token/ERC20/utils/SafeERC20Upgradeable.sol\":3762:3789  address(token).functionCall */\n      and\n      tag_359\n      swap1\n        /* \"@openzeppelin/contracts-upgradeable/token/ERC20/utils/SafeERC20Upgradeable.sol\":3762:3831  address(token).functionCall(data, \"SafeERC20: low-level call failed\") */\n      swap3\n      swap2\n      swap1\n      0xffffffff\n      and\n      jump\t// in\n    tag_358:\n        /* \"@openzeppelin/contracts-upgradeable/token/ERC20/utils/SafeERC20Upgradeable.sol\":3845:3862  returndata.length */\n      dup1\n      mload\n        /* \"@openzeppelin/contracts-upgradeable/token/ERC20/utils/SafeERC20Upgradeable.sol\":3736:3831  bytes memory returndata = address(token).functionCall(data, \"SafeERC20: low-level call failed\") */\n      swap1\n      swap2\n      pop\n        /* \"@openzeppelin/contracts-upgradeable/token/ERC20/utils/SafeERC20Upgradeable.sol\":3845:3866  returndata.length > 0 */\n      iszero\n        /* \"@openzeppelin/contracts-upgradeable/token/ERC20/utils/SafeERC20Upgradeable.sol\":3841:4017  if (returndata.length > 0) {... */\n      tag_297\n      jumpi\n        /* \"@openzeppelin/contracts-upgradeable/token/ERC20/utils/SafeERC20Upgradeable.sol\":3940:3950  returndata */\n      dup1\n        /* \"@openzeppelin/contracts-upgradeable/token/ERC20/utils/SafeERC20Upgradeable.sol\":3929:3959  abi.decode(returndata, (bool)) */\n      dup1\n      0x20\n      add\n      swap1\n      mload\n      dup2\n      add\n      swap1\n      tag_361\n      swap2\n      swap1\n      tag_271\n      jump\t// in\n    tag_361:\n        /* \"@openzeppelin/contracts-upgradeable/token/ERC20/utils/SafeERC20Upgradeable.sol\":3921:4006  require(abi.decode(returndata, (bool)), \"SafeERC20: ERC20 operation did not succeed\") */\n      tag_297\n      jumpi\n      mload(0x40)\n      shl(0xe5, 0x461bcd)\n      dup2\n      mstore\n      0x04\n      add\n      tag_174\n      swap1\n      tag_364\n      jump\t// in\n        /* \"@openzeppelin/contracts-upgradeable/utils/ContextUpgradeable.sol\":807:871  function __Context_init_unchained() internal initializer {... */\n    tag_308:\n        /* \"@openzeppelin/contracts-upgradeable/proxy/utils/Initializable.sol\":539:552  _initializing */\n      sload(0x00)\n      0x0100\n      swap1\n      div\n      0xff\n      and\n      dup1\n        /* \"@openzeppelin/contracts-upgradeable/proxy/utils/Initializable.sol\":539:569  _initializing || !_initialized */\n      tag_366\n      jumpi\n      pop\n        /* \"@openzeppelin/contracts-upgradeable/proxy/utils/Initializable.sol\":557:569  _initialized */\n      and(0xff, sload(0x00))\n        /* \"@openzeppelin/contracts-upgradeable/proxy/utils/Initializable.sol\":556:569  !_initialized */\n      iszero\n        /* \"@openzeppelin/contracts-upgradeable/proxy/utils/Initializable.sol\":539:569  _initializing || !_initialized */\n    tag_366:\n        /* \"@openzeppelin/contracts-upgradeable/proxy/utils/Initializable.sol\":531:620  require(_initializing || !_initialized, \"Initializable: contract is already initialized\") */\n      tag_367\n      jumpi\n      mload(0x40)\n      shl(0xe5, 0x461bcd)\n      dup2\n      mstore\n      0x04\n      add\n      tag_174\n      swap1\n      tag_234\n      jump\t// in\n    tag_367:\n        /* \"@openzeppelin/contracts-upgradeable/proxy/utils/Initializable.sol\":631:650  bool isTopLevelCall */\n      0x00\n        /* \"@openzeppelin/contracts-upgradeable/proxy/utils/Initializable.sol\":654:667  _initializing */\n      sload\n      0x0100\n      swap1\n      div\n      0xff\n      and\n        /* \"@openzeppelin/contracts-upgradeable/proxy/utils/Initializable.sol\":653:667  !_initializing */\n      iszero\n        /* \"@openzeppelin/contracts-upgradeable/proxy/utils/Initializable.sol\":677:775  if (isTopLevelCall) {... */\n      dup1\n      iszero\n      tag_309\n      jumpi\n        /* \"@openzeppelin/contracts-upgradeable/proxy/utils/Initializable.sol\":711:724  _initializing */\n      0x00\n        /* \"@openzeppelin/contracts-upgradeable/proxy/utils/Initializable.sol\":711:731  _initializing = true */\n      dup1\n      sload\n      not(0xff)\n      not(0xff00)\n      swap1\n      swap2\n      and\n      0x0100\n      or\n        /* \"@openzeppelin/contracts-upgradeable/proxy/utils/Initializable.sol\":745:764  _initialized = true */\n      and\n        /* \"@openzeppelin/contracts-upgradeable/proxy/utils/Initializable.sol\":727:731  true */\n      0x01\n        /* \"@openzeppelin/contracts-upgradeable/proxy/utils/Initializable.sol\":745:764  _initialized = true */\n      or\n      swap1\n      sstore\n        /* \"@openzeppelin/contracts-upgradeable/proxy/utils/Initializable.sol\":801:815  isTopLevelCall */\n      dup1\n        /* \"@openzeppelin/contracts-upgradeable/proxy/utils/Initializable.sol\":797:863  if (isTopLevelCall) {... */\n      iszero\n      tag_293\n      jumpi\n        /* \"@openzeppelin/contracts-upgradeable/proxy/utils/Initializable.sol\":847:852  false */\n      0x00\n        /* \"@openzeppelin/contracts-upgradeable/proxy/utils/Initializable.sol\":831:852  _initializing = false */\n      dup1\n      sload\n      not(0xff00)\n      and\n      swap1\n      sstore\n        /* \"@openzeppelin/contracts-upgradeable/utils/ContextUpgradeable.sol\":807:871  function __Context_init_unchained() internal initializer {... */\n      pop\n      jump\t// out\n        /* \"@openzeppelin/contracts-upgradeable/access/OwnableUpgradeable.sol\":1120:1226  function __Ownable_init_unchained() internal initializer {... */\n    tag_310:\n        /* \"@openzeppelin/contracts-upgradeable/proxy/utils/Initializable.sol\":539:552  _initializing */\n      sload(0x00)\n      0x0100\n      swap1\n      div\n      0xff\n      and\n      dup1\n        /* \"@openzeppelin/contracts-upgradeable/proxy/utils/Initializable.sol\":539:569  _initializing || !_initialized */\n      tag_373\n      jumpi\n      pop\n        /* \"@openzeppelin/contracts-upgradeable/proxy/utils/Initializable.sol\":557:569  _initialized */\n      and(0xff, sload(0x00))\n        /* \"@openzeppelin/contracts-upgradeable/proxy/utils/Initializable.sol\":556:569  !_initialized */\n      iszero\n        /* \"@openzeppelin/contracts-upgradeable/proxy/utils/Initializable.sol\":539:569  _initializing || !_initialized */\n    tag_373:\n        /* \"@openzeppelin/contracts-upgradeable/proxy/utils/Initializable.sol\":531:620  require(_initializing || !_initialized, \"Initializable: contract is already initialized\") */\n      tag_374\n      jumpi\n      mload(0x40)\n      shl(0xe5, 0x461bcd)\n      dup2\n      mstore\n      0x04\n      add\n      tag_174\n      swap1\n      tag_234\n      jump\t// in\n    tag_374:\n        /* \"@openzeppelin/contracts-upgradeable/proxy/utils/Initializable.sol\":631:650  bool isTopLevelCall */\n      0x00\n        /* \"@openzeppelin/contracts-upgradeable/proxy/utils/Initializable.sol\":654:667  _initializing */\n      sload\n      0x0100\n      swap1\n      div\n      0xff\n      and\n        /* \"@openzeppelin/contracts-upgradeable/proxy/utils/Initializable.sol\":653:667  !_initializing */\n      iszero\n        /* \"@openzeppelin/contracts-upgradeable/proxy/utils/Initializable.sol\":677:775  if (isTopLevelCall) {... */\n      dup1\n      iszero\n      tag_376\n      jumpi\n        /* \"@openzeppelin/contracts-upgradeable/proxy/utils/Initializable.sol\":711:724  _initializing */\n      0x00\n        /* \"@openzeppelin/contracts-upgradeable/proxy/utils/Initializable.sol\":711:731  _initializing = true */\n      dup1\n      sload\n      not(0xff)\n      not(0xff00)\n      swap1\n      swap2\n      and\n      0x0100\n      or\n        /* \"@openzeppelin/contracts-upgradeable/proxy/utils/Initializable.sol\":745:764  _initialized = true */\n      and\n        /* \"@openzeppelin/contracts-upgradeable/proxy/utils/Initializable.sol\":727:731  true */\n      0x01\n        /* \"@openzeppelin/contracts-upgradeable/proxy/utils/Initializable.sol\":745:764  _initialized = true */\n      or\n      swap1\n      sstore\n        /* \"@openzeppelin/contracts-upgradeable/proxy/utils/Initializable.sol\":677:775  if (isTopLevelCall) {... */\n    tag_376:\n        /* \"@openzeppelin/contracts-upgradeable/access/OwnableUpgradeable.sol\":1187:1219  _transferOwnership(_msgSender()) */\n      tag_309\n        /* \"@openzeppelin/contracts-upgradeable/access/OwnableUpgradeable.sol\":1206:1218  _msgSender() */\n      tag_379\n        /* \"@openzeppelin/contracts-upgradeable/access/OwnableUpgradeable.sol\":1206:1216  _msgSender */\n      tag_171\n        /* \"@openzeppelin/contracts-upgradeable/access/OwnableUpgradeable.sol\":1206:1218  _msgSender() */\n      jump\t// in\n    tag_379:\n        /* \"@openzeppelin/contracts-upgradeable/access/OwnableUpgradeable.sol\":1187:1205  _transferOwnership */\n      tag_208\n        /* \"@openzeppelin/contracts-upgradeable/access/OwnableUpgradeable.sol\":1187:1219  _transferOwnership(_msgSender()) */\n      jump\t// in\n        /* \"@openzeppelin/contracts-upgradeable/utils/math/SafeMathUpgradeable.sol\":2752:2848  function add(uint256 a, uint256 b) internal pure returns (uint256) {... */\n    tag_351:\n        /* \"@openzeppelin/contracts-upgradeable/utils/math/SafeMathUpgradeable.sol\":2810:2817  uint256 */\n      0x00\n        /* \"@openzeppelin/contracts-upgradeable/utils/math/SafeMathUpgradeable.sol\":2836:2841  a + b */\n      tag_313\n        /* \"@openzeppelin/contracts-upgradeable/utils/math/SafeMathUpgradeable.sol\":2840:2841  b */\n      dup3\n        /* \"@openzeppelin/contracts-upgradeable/utils/math/SafeMathUpgradeable.sol\":2836:2837  a */\n      dup5\n        /* \"@openzeppelin/contracts-upgradeable/utils/math/SafeMathUpgradeable.sol\":2836:2841  a + b */\n      tag_383\n      jump\t// in\n        /* \"@openzeppelin/contracts-upgradeable/utils/AddressUpgradeable.sol\":3525:3748  function functionCall(... */\n    tag_359:\n        /* \"@openzeppelin/contracts-upgradeable/utils/AddressUpgradeable.sol\":3658:3670  bytes memory */\n      0x60\n        /* \"@openzeppelin/contracts-upgradeable/utils/AddressUpgradeable.sol\":3689:3741  functionCallWithValue(target, data, 0, errorMessage) */\n      tag_385\n        /* \"@openzeppelin/contracts-upgradeable/utils/AddressUpgradeable.sol\":3711:3717  target */\n      dup5\n        /* \"@openzeppelin/contracts-upgradeable/utils/AddressUpgradeable.sol\":3719:3723  data */\n      dup5\n        /* \"@openzeppelin/contracts-upgradeable/utils/AddressUpgradeable.sol\":3725:3726  0 */\n      0x00\n        /* \"@openzeppelin/contracts-upgradeable/utils/AddressUpgradeable.sol\":3728:3740  errorMessage */\n      dup6\n        /* \"@openzeppelin/contracts-upgradeable/utils/AddressUpgradeable.sol\":3689:3710  functionCallWithValue */\n      tag_386\n        /* \"@openzeppelin/contracts-upgradeable/utils/AddressUpgradeable.sol\":3689:3741  functionCallWithValue(target, data, 0, errorMessage) */\n      jump\t// in\n    tag_385:\n        /* \"@openzeppelin/contracts-upgradeable/utils/AddressUpgradeable.sol\":3682:3741  return functionCallWithValue(target, data, 0, errorMessage) */\n      swap5\n        /* \"@openzeppelin/contracts-upgradeable/utils/AddressUpgradeable.sol\":3525:3748  function functionCall(... */\n      swap4\n      pop\n      pop\n      pop\n      pop\n      jump\t// out\n        /* \"@openzeppelin/contracts-upgradeable/utils/AddressUpgradeable.sol\":4612:5111  function functionCallWithValue(... */\n    tag_386:\n        /* \"@openzeppelin/contracts-upgradeable/utils/AddressUpgradeable.sol\":4777:4789  bytes memory */\n      0x60\n        /* \"@openzeppelin/contracts-upgradeable/utils/AddressUpgradeable.sol\":4834:4839  value */\n      dup3\n        /* \"@openzeppelin/contracts-upgradeable/utils/AddressUpgradeable.sol\":4809:4830  address(this).balance */\n      selfbalance\n        /* \"@openzeppelin/contracts-upgradeable/utils/AddressUpgradeable.sol\":4809:4839  address(this).balance >= value */\n      lt\n      iszero\n        /* \"@openzeppelin/contracts-upgradeable/utils/AddressUpgradeable.sol\":4801:4882  require(address(this).balance >= value, \"Address: insufficient balance for call\") */\n      tag_388\n      jumpi\n      mload(0x40)\n      shl(0xe5, 0x461bcd)\n      dup2\n      mstore\n      0x04\n      add\n      tag_174\n      swap1\n      tag_390\n      jump\t// in\n    tag_388:\n        /* \"@openzeppelin/contracts-upgradeable/utils/AddressUpgradeable.sol\":4900:4918  isContract(target) */\n      tag_391\n        /* \"@openzeppelin/contracts-upgradeable/utils/AddressUpgradeable.sol\":4911:4917  target */\n      dup6\n        /* \"@openzeppelin/contracts-upgradeable/utils/AddressUpgradeable.sol\":4900:4910  isContract */\n      tag_392\n        /* \"@openzeppelin/contracts-upgradeable/utils/AddressUpgradeable.sol\":4900:4918  isContract(target) */\n      jump\t// in\n    tag_391:\n        /* \"@openzeppelin/contracts-upgradeable/utils/AddressUpgradeable.sol\":4892:4952  require(isContract(target), \"Address: call to non-contract\") */\n      tag_393\n      jumpi\n      mload(0x40)\n      shl(0xe5, 0x461bcd)\n      dup2\n      mstore\n      0x04\n      add\n      tag_174\n      swap1\n      tag_395\n      jump\t// in\n    tag_393:\n        /* \"@openzeppelin/contracts-upgradeable/utils/AddressUpgradeable.sol\":4964:4976  bool success */\n      0x00\n        /* \"@openzeppelin/contracts-upgradeable/utils/AddressUpgradeable.sol\":4978:5001  bytes memory returndata */\n      dup1\n        /* \"@openzeppelin/contracts-upgradeable/utils/AddressUpgradeable.sol\":5005:5011  target */\n      dup7\n      sub(shl(0xa0, 0x01), 0x01)\n        /* \"@openzeppelin/contracts-upgradeable/utils/AddressUpgradeable.sol\":5005:5016  target.call */\n      and\n        /* \"@openzeppelin/contracts-upgradeable/utils/AddressUpgradeable.sol\":5024:5029  value */\n      dup6\n        /* \"@openzeppelin/contracts-upgradeable/utils/AddressUpgradeable.sol\":5031:5035  data */\n      dup8\n        /* \"@openzeppelin/contracts-upgradeable/utils/AddressUpgradeable.sol\":5005:5036  target.call{value: value}(data) */\n      mload(0x40)\n      tag_396\n      swap2\n      swap1\n      tag_397\n      jump\t// in\n    tag_396:\n      0x00\n      mload(0x40)\n      dup1\n      dup4\n      sub\n      dup2\n      dup6\n      dup8\n      gas\n      call\n      swap3\n      pop\n      pop\n      pop\n      returndatasize\n      dup1\n      0x00\n      dup2\n      eq\n      tag_400\n      jumpi\n      mload(0x40)\n      swap2\n      pop\n      and(add(returndatasize, 0x3f), not(0x1f))\n      dup3\n      add\n      0x40\n      mstore\n      returndatasize\n      dup3\n      mstore\n      returndatasize\n      0x00\n      0x20\n      dup5\n      add\n      returndatacopy\n      jump(tag_399)\n    tag_400:\n      0x60\n      swap2\n      pop\n    tag_399:\n      pop\n        /* \"@openzeppelin/contracts-upgradeable/utils/AddressUpgradeable.sol\":4963:5036  (bool success, bytes memory returndata) = target.call{value: value}(data) */\n      swap2\n      pop\n      swap2\n      pop\n        /* \"@openzeppelin/contracts-upgradeable/utils/AddressUpgradeable.sol\":5053:5104  verifyCallResult(success, returndata, errorMessage) */\n      tag_401\n        /* \"@openzeppelin/contracts-upgradeable/utils/AddressUpgradeable.sol\":5070:5077  success */\n      dup3\n        /* \"@openzeppelin/contracts-upgradeable/utils/AddressUpgradeable.sol\":5079:5089  returndata */\n      dup3\n        /* \"@openzeppelin/contracts-upgradeable/utils/AddressUpgradeable.sol\":5091:5103  errorMessage */\n      dup7\n        /* \"@openzeppelin/contracts-upgradeable/utils/AddressUpgradeable.sol\":5053:5069  verifyCallResult */\n      tag_402\n        /* \"@openzeppelin/contracts-upgradeable/utils/AddressUpgradeable.sol\":5053:5104  verifyCallResult(success, returndata, errorMessage) */\n      jump\t// in\n    tag_401:\n        /* \"@openzeppelin/contracts-upgradeable/utils/AddressUpgradeable.sol\":5046:5104  return verifyCallResult(success, returndata, errorMessage) */\n      swap8\n        /* \"@openzeppelin/contracts-upgradeable/utils/AddressUpgradeable.sol\":4612:5111  function functionCallWithValue(... */\n      swap7\n      pop\n      pop\n      pop\n      pop\n      pop\n      pop\n      pop\n      jump\t// out\n        /* \"@openzeppelin/contracts-upgradeable/utils/AddressUpgradeable.sol\":782:1159  function isContract(address account) internal view returns (bool) {... */\n    tag_392:\n        /* \"@openzeppelin/contracts-upgradeable/utils/AddressUpgradeable.sol\":1098:1118  extcodesize(account) */\n      extcodesize\n        /* \"@openzeppelin/contracts-upgradeable/utils/AddressUpgradeable.sol\":1144:1152  size > 0 */\n      iszero\n      iszero\n      swap1\n        /* \"@openzeppelin/contracts-upgradeable/utils/AddressUpgradeable.sol\":782:1159  function isContract(address account) internal view returns (bool) {... */\n      jump\t// out\n        /* \"@openzeppelin/contracts-upgradeable/utils/AddressUpgradeable.sol\":6275:6967  function verifyCallResult(... */\n    tag_402:\n        /* \"@openzeppelin/contracts-upgradeable/utils/AddressUpgradeable.sol\":6421:6433  bytes memory */\n      0x60\n        /* \"@openzeppelin/contracts-upgradeable/utils/AddressUpgradeable.sol\":6449:6456  success */\n      dup4\n        /* \"@openzeppelin/contracts-upgradeable/utils/AddressUpgradeable.sol\":6445:6961  if (success) {... */\n      iszero\n      tag_405\n      jumpi\n      pop\n        /* \"@openzeppelin/contracts-upgradeable/utils/AddressUpgradeable.sol\":6479:6489  returndata */\n      dup2\n        /* \"@openzeppelin/contracts-upgradeable/utils/AddressUpgradeable.sol\":6472:6489  return returndata */\n      jump(tag_313)\n        /* \"@openzeppelin/contracts-upgradeable/utils/AddressUpgradeable.sol\":6445:6961  if (success) {... */\n    tag_405:\n        /* \"@openzeppelin/contracts-upgradeable/utils/AddressUpgradeable.sol\":6590:6607  returndata.length */\n      dup3\n      mload\n        /* \"@openzeppelin/contracts-upgradeable/utils/AddressUpgradeable.sol\":6590:6611  returndata.length > 0 */\n      iszero\n        /* \"@openzeppelin/contracts-upgradeable/utils/AddressUpgradeable.sol\":6586:6951  if (returndata.length > 0) {... */\n      tag_407\n      jumpi\n        /* \"@openzeppelin/contracts-upgradeable/utils/AddressUpgradeable.sol\":6784:6794  returndata */\n      dup3\n        /* \"@openzeppelin/contracts-upgradeable/utils/AddressUpgradeable.sol\":6778:6795  mload(returndata) */\n      mload\n        /* \"@openzeppelin/contracts-upgradeable/utils/AddressUpgradeable.sol\":6844:6859  returndata_size */\n      dup1\n        /* \"@openzeppelin/contracts-upgradeable/utils/AddressUpgradeable.sol\":6831:6841  returndata */\n      dup5\n        /* \"@openzeppelin/contracts-upgradeable/utils/AddressUpgradeable.sol\":6827:6829  32 */\n      0x20\n        /* \"@openzeppelin/contracts-upgradeable/utils/AddressUpgradeable.sol\":6823:6842  add(32, returndata) */\n      add\n        /* \"@openzeppelin/contracts-upgradeable/utils/AddressUpgradeable.sol\":6816:6860  revert(add(32, returndata), returndata_size) */\n      revert\n        /* \"@openzeppelin/contracts-upgradeable/utils/AddressUpgradeable.sol\":6733:6878  {... */\n    tag_407:\n        /* \"@openzeppelin/contracts-upgradeable/utils/AddressUpgradeable.sol\":6923:6935  errorMessage */\n      dup2\n        /* \"@openzeppelin/contracts-upgradeable/utils/AddressUpgradeable.sol\":6916:6936  revert(errorMessage) */\n      mload(0x40)\n      shl(0xe5, 0x461bcd)\n      dup2\n      mstore\n      0x04\n      add\n      tag_174\n      swap2\n      swap1\n      tag_410\n      jump\t// in\n        /* \"#utility.yul\":14:273   */\n    tag_84:\n      0x00\n        /* \"#utility.yul\":126:128   */\n      0x20\n        /* \"#utility.yul\":114:123   */\n      dup3\n        /* \"#utility.yul\":105:112   */\n      dup5\n        /* \"#utility.yul\":101:124   */\n      sub\n        /* \"#utility.yul\":97:129   */\n      slt\n        /* \"#utility.yul\":94:96   */\n      iszero\n      tag_413\n      jumpi\n        /* \"#utility.yul\":147:153   */\n      dup1\n        /* \"#utility.yul\":139:145   */\n      dup2\n        /* \"#utility.yul\":132:154   */\n      revert\n        /* \"#utility.yul\":94:96   */\n    tag_413:\n        /* \"#utility.yul\":191:200   */\n      dup2\n        /* \"#utility.yul\":178:201   */\n      calldataload\n        /* \"#utility.yul\":210:243   */\n      tag_313\n        /* \"#utility.yul\":237:242   */\n      dup2\n        /* \"#utility.yul\":210:243   */\n      tag_415\n      jump\t// in\n        /* \"#utility.yul\":278:541   */\n    tag_328:\n      0x00\n        /* \"#utility.yul\":401:403   */\n      0x20\n        /* \"#utility.yul\":389:398   */\n      dup3\n        /* \"#utility.yul\":380:387   */\n      dup5\n        /* \"#utility.yul\":376:399   */\n      sub\n        /* \"#utility.yul\":372:404   */\n      slt\n        /* \"#utility.yul\":369:371   */\n      iszero\n      tag_417\n      jumpi\n        /* \"#utility.yul\":422:428   */\n      dup1\n        /* \"#utility.yul\":414:420   */\n      dup2\n        /* \"#utility.yul\":407:429   */\n      revert\n        /* \"#utility.yul\":369:371   */\n    tag_417:\n        /* \"#utility.yul\":459:468   */\n      dup2\n        /* \"#utility.yul\":453:469   */\n      mload\n        /* \"#utility.yul\":478:511   */\n      tag_313\n        /* \"#utility.yul\":505:510   */\n      dup2\n        /* \"#utility.yul\":478:511   */\n      tag_415\n      jump\t// in\n        /* \"#utility.yul\":546:942   */\n    tag_50:\n      0x00\n      dup1\n        /* \"#utility.yul\":672:674   */\n      0x40\n        /* \"#utility.yul\":660:669   */\n      dup4\n        /* \"#utility.yul\":651:658   */\n      dup6\n        /* \"#utility.yul\":647:670   */\n      sub\n        /* \"#utility.yul\":643:675   */\n      slt\n        /* \"#utility.yul\":640:642   */\n      iszero\n      tag_420\n      jumpi\n        /* \"#utility.yul\":693:699   */\n      dup1\n        /* \"#utility.yul\":685:691   */\n      dup2\n        /* \"#utility.yul\":678:700   */\n      revert\n        /* \"#utility.yul\":640:642   */\n    tag_420:\n        /* \"#utility.yul\":737:746   */\n      dup3\n        /* \"#utility.yul\":724:747   */\n      calldataload\n        /* \"#utility.yul\":756:789   */\n      tag_421\n        /* \"#utility.yul\":783:788   */\n      dup2\n        /* \"#utility.yul\":756:789   */\n      tag_415\n      jump\t// in\n    tag_421:\n        /* \"#utility.yul\":808:813   */\n      swap2\n      pop\n        /* \"#utility.yul\":865:867   */\n      0x20\n        /* \"#utility.yul\":850:868   */\n      dup4\n      add\n        /* \"#utility.yul\":837:869   */\n      calldataload\n        /* \"#utility.yul\":878:910   */\n      tag_422\n        /* \"#utility.yul\":837:869   */\n      dup2\n        /* \"#utility.yul\":878:910   */\n      tag_423\n      jump\t// in\n    tag_422:\n        /* \"#utility.yul\":929:936   */\n      dup1\n        /* \"#utility.yul\":919:936   */\n      swap2\n      pop\n      pop\n        /* \"#utility.yul\":630:942   */\n      swap3\n      pop\n      swap3\n      swap1\n      pop\n      jump\t// out\n        /* \"#utility.yul\":947:1274   */\n    tag_114:\n      0x00\n      dup1\n        /* \"#utility.yul\":1076:1078   */\n      0x40\n        /* \"#utility.yul\":1064:1073   */\n      dup4\n        /* \"#utility.yul\":1055:1062   */\n      dup6\n        /* \"#utility.yul\":1051:1074   */\n      sub\n        /* \"#utility.yul\":1047:1079   */\n      slt\n        /* \"#utility.yul\":1044:1046   */\n      iszero\n      tag_425\n      jumpi\n        /* \"#utility.yul\":1097:1103   */\n      dup2\n        /* \"#utility.yul\":1089:1095   */\n      dup3\n        /* \"#utility.yul\":1082:1104   */\n      revert\n        /* \"#utility.yul\":1044:1046   */\n    tag_425:\n        /* \"#utility.yul\":1141:1150   */\n      dup3\n        /* \"#utility.yul\":1128:1151   */\n      calldataload\n        /* \"#utility.yul\":1160:1193   */\n      tag_426\n        /* \"#utility.yul\":1187:1192   */\n      dup2\n        /* \"#utility.yul\":1160:1193   */\n      tag_415\n      jump\t// in\n    tag_426:\n        /* \"#utility.yul\":1212:1217   */\n      swap5\n        /* \"#utility.yul\":1264:1266   */\n      0x20\n        /* \"#utility.yul\":1249:1267   */\n      swap4\n      swap1\n      swap4\n      add\n        /* \"#utility.yul\":1236:1268   */\n      calldataload\n      swap4\n      pop\n      pop\n      pop\n        /* \"#utility.yul\":1034:1274   */\n      jump\t// out\n        /* \"#utility.yul\":1279:1532   */\n    tag_79:\n      0x00\n        /* \"#utility.yul\":1388:1390   */\n      0x20\n        /* \"#utility.yul\":1376:1385   */\n      dup3\n        /* \"#utility.yul\":1367:1374   */\n      dup5\n        /* \"#utility.yul\":1363:1386   */\n      sub\n        /* \"#utility.yul\":1359:1391   */\n      slt\n        /* \"#utility.yul\":1356:1358   */\n      iszero\n      tag_428\n      jumpi\n        /* \"#utility.yul\":1409:1415   */\n      dup1\n        /* \"#utility.yul\":1401:1407   */\n      dup2\n        /* \"#utility.yul\":1394:1416   */\n      revert\n        /* \"#utility.yul\":1356:1358   */\n    tag_428:\n        /* \"#utility.yul\":1453:1462   */\n      dup2\n        /* \"#utility.yul\":1440:1463   */\n      calldataload\n        /* \"#utility.yul\":1472:1502   */\n      tag_313\n        /* \"#utility.yul\":1496:1501   */\n      dup2\n        /* \"#utility.yul\":1472:1502   */\n      tag_423\n      jump\t// in\n        /* \"#utility.yul\":1537:1794   */\n    tag_271:\n      0x00\n        /* \"#utility.yul\":1657:1659   */\n      0x20\n        /* \"#utility.yul\":1645:1654   */\n      dup3\n        /* \"#utility.yul\":1636:1643   */\n      dup5\n        /* \"#utility.yul\":1632:1655   */\n      sub\n        /* \"#utility.yul\":1628:1660   */\n      slt\n        /* \"#utility.yul\":1625:1627   */\n      iszero\n      tag_431\n      jumpi\n        /* \"#utility.yul\":1678:1684   */\n      dup1\n        /* \"#utility.yul\":1670:1676   */\n      dup2\n        /* \"#utility.yul\":1663:1685   */\n      revert\n        /* \"#utility.yul\":1625:1627   */\n    tag_431:\n        /* \"#utility.yul\":1715:1724   */\n      dup2\n        /* \"#utility.yul\":1709:1725   */\n      mload\n        /* \"#utility.yul\":1734:1764   */\n      tag_313\n        /* \"#utility.yul\":1758:1763   */\n      dup2\n        /* \"#utility.yul\":1734:1764   */\n      tag_423\n      jump\t// in\n        /* \"#utility.yul\":1799:2918   */\n    tag_143:\n      0x00\n      dup1\n      0x00\n      dup1\n      0x00\n      dup1\n        /* \"#utility.yul\":2138:2141   */\n      0xc0\n        /* \"#utility.yul\":2126:2135   */\n      dup8\n        /* \"#utility.yul\":2117:2124   */\n      dup10\n        /* \"#utility.yul\":2113:2136   */\n      sub\n        /* \"#utility.yul\":2109:2142   */\n      slt\n        /* \"#utility.yul\":2106:2108   */\n      iszero\n      tag_434\n      jumpi\n        /* \"#utility.yul\":2160:2166   */\n      dup2\n        /* \"#utility.yul\":2152:2158   */\n      dup3\n        /* \"#utility.yul\":2145:2167   */\n      revert\n        /* \"#utility.yul\":2106:2108   */\n    tag_434:\n        /* \"#utility.yul\":2204:2213   */\n      dup7\n        /* \"#utility.yul\":2191:2214   */\n      calldataload\n        /* \"#utility.yul\":2223:2256   */\n      tag_435\n        /* \"#utility.yul\":2250:2255   */\n      dup2\n        /* \"#utility.yul\":2223:2256   */\n      tag_415\n      jump\t// in\n    tag_435:\n        /* \"#utility.yul\":2275:2280   */\n      swap6\n      pop\n        /* \"#utility.yul\":2332:2334   */\n      0x20\n        /* \"#utility.yul\":2317:2335   */\n      dup8\n      add\n        /* \"#utility.yul\":2304:2336   */\n      calldataload\n        /* \"#utility.yul\":2345:2380   */\n      tag_436\n        /* \"#utility.yul\":2304:2336   */\n      dup2\n        /* \"#utility.yul\":2345:2380   */\n      tag_415\n      jump\t// in\n    tag_436:\n        /* \"#utility.yul\":2399:2406   */\n      swap5\n      pop\n        /* \"#utility.yul\":2458:2460   */\n      0x40\n        /* \"#utility.yul\":2443:2461   */\n      dup8\n      add\n        /* \"#utility.yul\":2430:2462   */\n      calldataload\n        /* \"#utility.yul\":2471:2506   */\n      tag_437\n        /* \"#utility.yul\":2430:2462   */\n      dup2\n        /* \"#utility.yul\":2471:2506   */\n      tag_415\n      jump\t// in\n    tag_437:\n        /* \"#utility.yul\":2525:2532   */\n      swap4\n      pop\n        /* \"#utility.yul\":2584:2586   */\n      0x60\n        /* \"#utility.yul\":2569:2587   */\n      dup8\n      add\n        /* \"#utility.yul\":2556:2588   */\n      calldataload\n        /* \"#utility.yul\":2597:2632   */\n      tag_438\n        /* \"#utility.yul\":2556:2588   */\n      dup2\n        /* \"#utility.yul\":2597:2632   */\n      tag_415\n      jump\t// in\n    tag_438:\n        /* \"#utility.yul\":2651:2658   */\n      swap3\n      pop\n        /* \"#utility.yul\":2710:2713   */\n      0x80\n        /* \"#utility.yul\":2695:2714   */\n      dup8\n      add\n        /* \"#utility.yul\":2682:2715   */\n      calldataload\n        /* \"#utility.yul\":2724:2759   */\n      tag_439\n        /* \"#utility.yul\":2682:2715   */\n      dup2\n        /* \"#utility.yul\":2724:2759   */\n      tag_415\n      jump\t// in\n    tag_439:\n        /* \"#utility.yul\":2778:2785   */\n      swap2\n      pop\n        /* \"#utility.yul\":2837:2840   */\n      0xa0\n        /* \"#utility.yul\":2822:2841   */\n      dup8\n      add\n        /* \"#utility.yul\":2809:2842   */\n      calldataload\n        /* \"#utility.yul\":2851:2886   */\n      tag_440\n        /* \"#utility.yul\":2809:2842   */\n      dup2\n        /* \"#utility.yul\":2851:2886   */\n      tag_415\n      jump\t// in\n    tag_440:\n        /* \"#utility.yul\":2905:2912   */\n      dup1\n        /* \"#utility.yul\":2895:2912   */\n      swap2\n      pop\n      pop\n        /* \"#utility.yul\":2096:2918   */\n      swap3\n      swap6\n      pop\n      swap3\n      swap6\n      pop\n      swap3\n      swap6\n      jump\t// out\n        /* \"#utility.yul\":2923:3113   */\n    tag_56:\n      0x00\n        /* \"#utility.yul\":3035:3037   */\n      0x20\n        /* \"#utility.yul\":3023:3032   */\n      dup3\n        /* \"#utility.yul\":3014:3021   */\n      dup5\n        /* \"#utility.yul\":3010:3033   */\n      sub\n        /* \"#utility.yul\":3006:3038   */\n      slt\n        /* \"#utility.yul\":3003:3005   */\n      iszero\n      tag_442\n      jumpi\n        /* \"#utility.yul\":3056:3062   */\n      dup1\n        /* \"#utility.yul\":3048:3054   */\n      dup2\n        /* \"#utility.yul\":3041:3063   */\n      revert\n        /* \"#utility.yul\":3003:3005   */\n    tag_442:\n      pop\n        /* \"#utility.yul\":3084:3107   */\n      calldataload\n      swap2\n        /* \"#utility.yul\":2993:3113   */\n      swap1\n      pop\n      jump\t// out\n        /* \"#utility.yul\":3118:3312   */\n    tag_250:\n      0x00\n        /* \"#utility.yul\":3241:3243   */\n      0x20\n        /* \"#utility.yul\":3229:3238   */\n      dup3\n        /* \"#utility.yul\":3220:3227   */\n      dup5\n        /* \"#utility.yul\":3216:3239   */\n      sub\n        /* \"#utility.yul\":3212:3244   */\n      slt\n        /* \"#utility.yul\":3209:3211   */\n      iszero\n      tag_444\n      jumpi\n        /* \"#utility.yul\":3262:3268   */\n      dup1\n        /* \"#utility.yul\":3254:3260   */\n      dup2\n        /* \"#utility.yul\":3247:3269   */\n      revert\n        /* \"#utility.yul\":3209:3211   */\n    tag_444:\n      pop\n        /* \"#utility.yul\":3290:3306   */\n      mload\n      swap2\n        /* \"#utility.yul\":3199:3312   */\n      swap1\n      pop\n      jump\t// out\n        /* \"#utility.yul\":3317:3591   */\n    tag_397:\n      0x00\n        /* \"#utility.yul\":3484:3490   */\n      dup3\n        /* \"#utility.yul\":3478:3491   */\n      mload\n        /* \"#utility.yul\":3500:3553   */\n      tag_446\n        /* \"#utility.yul\":3546:3552   */\n      dup2\n        /* \"#utility.yul\":3541:3544   */\n      dup5\n        /* \"#utility.yul\":3534:3538   */\n      0x20\n        /* \"#utility.yul\":3526:3532   */\n      dup8\n        /* \"#utility.yul\":3522:3539   */\n      add\n        /* \"#utility.yul\":3500:3553   */\n      tag_447\n      jump\t// in\n    tag_446:\n        /* \"#utility.yul\":3569:3585   */\n      swap2\n      swap1\n      swap2\n      add\n      swap3\n        /* \"#utility.yul\":3454:3591   */\n      swap2\n      pop\n      pop\n      jump\t// out\n        /* \"#utility.yul\":3596:3799   */\n    tag_105:\n      sub(shl(0xa0, 0x01), 0x01)\n        /* \"#utility.yul\":3760:3792   */\n      swap2\n      swap1\n      swap2\n      and\n        /* \"#utility.yul\":3742:3793   */\n      dup2\n      mstore\n        /* \"#utility.yul\":3730:3732   */\n      0x20\n        /* \"#utility.yul\":3715:3733   */\n      add\n      swap1\n        /* \"#utility.yul\":3697:3799   */\n      jump\t// out\n        /* \"#utility.yul\":3804:4108   */\n    tag_323:\n      sub(shl(0xa0, 0x01), 0x01)\n        /* \"#utility.yul\":4034:4049   */\n      swap3\n      dup4\n      and\n        /* \"#utility.yul\":4016:4050   */\n      dup2\n      mstore\n        /* \"#utility.yul\":4086:4101   */\n      swap2\n      and\n        /* \"#utility.yul\":4081:4083   */\n      0x20\n        /* \"#utility.yul\":4066:4084   */\n      dup3\n      add\n        /* \"#utility.yul\":4059:4102   */\n      mstore\n        /* \"#utility.yul\":3966:3968   */\n      0x40\n        /* \"#utility.yul\":3951:3969   */\n      add\n      swap1\n        /* \"#utility.yul\":3933:4108   */\n      jump\t// out\n        /* \"#utility.yul\":4113:4387   */\n    tag_299:\n      sub(shl(0xa0, 0x01), 0x01)\n        /* \"#utility.yul\":4305:4337   */\n      swap3\n      swap1\n      swap3\n      and\n        /* \"#utility.yul\":4287:4338   */\n      dup3\n      mstore\n        /* \"#utility.yul\":4369:4371   */\n      0x20\n        /* \"#utility.yul\":4354:4372   */\n      dup3\n      add\n        /* \"#utility.yul\":4347:4381   */\n      mstore\n        /* \"#utility.yul\":4275:4277   */\n      0x40\n        /* \"#utility.yul\":4260:4278   */\n      add\n      swap1\n        /* \"#utility.yul\":4242:4387   */\n      jump\t// out\n        /* \"#utility.yul\":4392:4579   */\n    tag_53:\n        /* \"#utility.yul\":4557:4571   */\n      swap1\n      iszero\n        /* \"#utility.yul\":4550:4572   */\n      iszero\n        /* \"#utility.yul\":4532:4573   */\n      dup2\n      mstore\n        /* \"#utility.yul\":4520:4522   */\n      0x20\n        /* \"#utility.yul\":4505:4523   */\n      add\n      swap1\n        /* \"#utility.yul\":4487:4579   */\n      jump\t// out\n        /* \"#utility.yul\":5508:5891   */\n    tag_410:\n      0x00\n        /* \"#utility.yul\":5657:5659   */\n      0x20\n        /* \"#utility.yul\":5646:5655   */\n      dup3\n        /* \"#utility.yul\":5639:5660   */\n      mstore\n        /* \"#utility.yul\":5689:5695   */\n      dup3\n        /* \"#utility.yul\":5683:5696   */\n      mload\n        /* \"#utility.yul\":5732:5738   */\n      dup1\n        /* \"#utility.yul\":5727:5729   */\n      0x20\n        /* \"#utility.yul\":5716:5725   */\n      dup5\n        /* \"#utility.yul\":5712:5730   */\n      add\n        /* \"#utility.yul\":5705:5739   */\n      mstore\n        /* \"#utility.yul\":5748:5814   */\n      tag_457\n        /* \"#utility.yul\":5807:5813   */\n      dup2\n        /* \"#utility.yul\":5802:5804   */\n      0x40\n        /* \"#utility.yul\":5791:5800   */\n      dup6\n        /* \"#utility.yul\":5787:5805   */\n      add\n        /* \"#utility.yul\":5782:5784   */\n      0x20\n        /* \"#utility.yul\":5774:5780   */\n      dup8\n        /* \"#utility.yul\":5770:5785   */\n      add\n        /* \"#utility.yul\":5748:5814   */\n      tag_447\n      jump\t// in\n    tag_457:\n        /* \"#utility.yul\":5875:5877   */\n      0x1f\n        /* \"#utility.yul\":5854:5869   */\n      add\n      not(0x1f)\n        /* \"#utility.yul\":5850:5879   */\n      and\n        /* \"#utility.yul\":5835:5880   */\n      swap2\n      swap1\n      swap2\n      add\n        /* \"#utility.yul\":5882:5884   */\n      0x40\n        /* \"#utility.yul\":5831:5885   */\n      add\n      swap3\n        /* \"#utility.yul\":5629:5891   */\n      swap2\n      pop\n      pop\n      jump\t// out\n        /* \"#utility.yul\":5896:6298   */\n    tag_292:\n        /* \"#utility.yul\":6098:6100   */\n      0x20\n        /* \"#utility.yul\":6080:6101   */\n      dup1\n      dup3\n      mstore\n        /* \"#utility.yul\":6137:6139   */\n      0x26\n        /* \"#utility.yul\":6117:6135   */\n      swap1\n      dup3\n      add\n        /* \"#utility.yul\":6110:6140   */\n      mstore\n        /* \"#utility.yul\":6176:6210   */\n      0x4f776e61626c653a206e6577206f776e657220697320746865207a65726f2061\n        /* \"#utility.yul\":6171:6173   */\n      0x40\n        /* \"#utility.yul\":6156:6174   */\n      dup3\n      add\n        /* \"#utility.yul\":6149:6211   */\n      mstore\n      shl(0xd0, 0x646472657373)\n        /* \"#utility.yul\":6242:6244   */\n      0x60\n        /* \"#utility.yul\":6227:6245   */\n      dup3\n      add\n        /* \"#utility.yul\":6220:6256   */\n      mstore\n        /* \"#utility.yul\":6288:6291   */\n      0x80\n        /* \"#utility.yul\":6273:6292   */\n      add\n      swap1\n        /* \"#utility.yul\":6070:6298   */\n      jump\t// out\n        /* \"#utility.yul\":6303:6703   */\n    tag_243:\n        /* \"#utility.yul\":6505:6507   */\n      0x20\n        /* \"#utility.yul\":6487:6508   */\n      dup1\n      dup3\n      mstore\n        /* \"#utility.yul\":6544:6546   */\n      0x24\n        /* \"#utility.yul\":6524:6542   */\n      swap1\n      dup3\n      add\n        /* \"#utility.yul\":6517:6547   */\n      mstore\n        /* \"#utility.yul\":6583:6617   */\n      0x6578656375746f723a2063616c6c6572206973206e6f74207468652065786563\n        /* \"#utility.yul\":6578:6580   */\n      0x40\n        /* \"#utility.yul\":6563:6581   */\n      dup3\n      add\n        /* \"#utility.yul\":6556:6618   */\n      mstore\n      shl(0xe1, 0x3aba37b9)\n        /* \"#utility.yul\":6649:6651   */\n      0x60\n        /* \"#utility.yul\":6634:6652   */\n      dup3\n      add\n        /* \"#utility.yul\":6627:6661   */\n      mstore\n        /* \"#utility.yul\":6693:6696   */\n      0x80\n        /* \"#utility.yul\":6678:6697   */\n      add\n      swap1\n        /* \"#utility.yul\":6477:6703   */\n      jump\t// out\n        /* \"#utility.yul\":6708:7110   */\n    tag_390:\n        /* \"#utility.yul\":6910:6912   */\n      0x20\n        /* \"#utility.yul\":6892:6913   */\n      dup1\n      dup3\n      mstore\n        /* \"#utility.yul\":6949:6951   */\n      0x26\n        /* \"#utility.yul\":6929:6947   */\n      swap1\n      dup3\n      add\n        /* \"#utility.yul\":6922:6952   */\n      mstore\n        /* \"#utility.yul\":6988:7022   */\n      0x416464726573733a20696e73756666696369656e742062616c616e636520666f\n        /* \"#utility.yul\":6983:6985   */\n      0x40\n        /* \"#utility.yul\":6968:6986   */\n      dup3\n      add\n        /* \"#utility.yul\":6961:7023   */\n      mstore\n      shl(0xd2, 0x1c8818d85b1b)\n        /* \"#utility.yul\":7054:7056   */\n      0x60\n        /* \"#utility.yul\":7039:7057   */\n      dup3\n      add\n        /* \"#utility.yul\":7032:7068   */\n      mstore\n        /* \"#utility.yul\":7100:7103   */\n      0x80\n        /* \"#utility.yul\":7085:7104   */\n      add\n      swap1\n        /* \"#utility.yul\":6882:7110   */\n      jump\t// out\n        /* \"#utility.yul\":7115:7525   */\n    tag_234:\n        /* \"#utility.yul\":7317:7319   */\n      0x20\n        /* \"#utility.yul\":7299:7320   */\n      dup1\n      dup3\n      mstore\n        /* \"#utility.yul\":7356:7358   */\n      0x2e\n        /* \"#utility.yul\":7336:7354   */\n      swap1\n      dup3\n      add\n        /* \"#utility.yul\":7329:7359   */\n      mstore\n        /* \"#utility.yul\":7395:7429   */\n      0x496e697469616c697a61626c653a20636f6e747261637420697320616c726561\n        /* \"#utility.yul\":7390:7392   */\n      0x40\n        /* \"#utility.yul\":7375:7393   */\n      dup3\n      add\n        /* \"#utility.yul\":7368:7430   */\n      mstore\n      shl(0x92, 0x191e481a5b9a5d1a585b1a5e9959)\n        /* \"#utility.yul\":7461:7463   */\n      0x60\n        /* \"#utility.yul\":7446:7464   */\n      dup3\n      add\n        /* \"#utility.yul\":7439:7483   */\n      mstore\n        /* \"#utility.yul\":7515:7518   */\n      0x80\n        /* \"#utility.yul\":7500:7519   */\n      add\n      swap1\n        /* \"#utility.yul\":7289:7525   */\n      jump\t// out\n        /* \"#utility.yul\":7530:7886   */\n    tag_175:\n        /* \"#utility.yul\":7732:7734   */\n      0x20\n        /* \"#utility.yul\":7714:7735   */\n      dup1\n      dup3\n      mstore\n        /* \"#utility.yul\":7751:7769   */\n      dup2\n      dup2\n      add\n        /* \"#utility.yul\":7744:7774   */\n      mstore\n        /* \"#utility.yul\":7810:7844   */\n      0x4f776e61626c653a2063616c6c6572206973206e6f7420746865206f776e6572\n        /* \"#utility.yul\":7805:7807   */\n      0x40\n        /* \"#utility.yul\":7790:7808   */\n      dup3\n      add\n        /* \"#utility.yul\":7783:7845   */\n      mstore\n        /* \"#utility.yul\":7877:7879   */\n      0x60\n        /* \"#utility.yul\":7862:7880   */\n      add\n      swap1\n        /* \"#utility.yul\":7704:7886   */\n      jump\t// out\n        /* \"#utility.yul\":7891:8244   */\n    tag_395:\n        /* \"#utility.yul\":8093:8095   */\n      0x20\n        /* \"#utility.yul\":8075:8096   */\n      dup1\n      dup3\n      mstore\n        /* \"#utility.yul\":8132:8134   */\n      0x1d\n        /* \"#utility.yul\":8112:8130   */\n      swap1\n      dup3\n      add\n        /* \"#utility.yul\":8105:8135   */\n      mstore\n        /* \"#utility.yul\":8171:8202   */\n      0x416464726573733a2063616c6c20746f206e6f6e2d636f6e7472616374000000\n        /* \"#utility.yul\":8166:8168   */\n      0x40\n        /* \"#utility.yul\":8151:8169   */\n      dup3\n      add\n        /* \"#utility.yul\":8144:8203   */\n      mstore\n        /* \"#utility.yul\":8235:8237   */\n      0x60\n        /* \"#utility.yul\":8220:8238   */\n      add\n      swap1\n        /* \"#utility.yul\":8065:8244   */\n      jump\t// out\n        /* \"#utility.yul\":8249:8655   */\n    tag_364:\n        /* \"#utility.yul\":8451:8453   */\n      0x20\n        /* \"#utility.yul\":8433:8454   */\n      dup1\n      dup3\n      mstore\n        /* \"#utility.yul\":8490:8492   */\n      0x2a\n        /* \"#utility.yul\":8470:8488   */\n      swap1\n      dup3\n      add\n        /* \"#utility.yul\":8463:8493   */\n      mstore\n        /* \"#utility.yul\":8529:8563   */\n      0x5361666545524332303a204552433230206f7065726174696f6e20646964206e\n        /* \"#utility.yul\":8524:8526   */\n      0x40\n        /* \"#utility.yul\":8509:8527   */\n      dup3\n      add\n        /* \"#utility.yul\":8502:8564   */\n      mstore\n      shl(0xb2, 0x1bdd081cdd58d8d95959)\n        /* \"#utility.yul\":8595:8597   */\n      0x60\n        /* \"#utility.yul\":8580:8598   */\n      dup3\n      add\n        /* \"#utility.yul\":8573:8613   */\n      mstore\n        /* \"#utility.yul\":8645:8648   */\n      0x80\n        /* \"#utility.yul\":8630:8649   */\n      add\n      swap1\n        /* \"#utility.yul\":8423:8655   */\n      jump\t// out\n        /* \"#utility.yul\":8660:8837   */\n    tag_47:\n        /* \"#utility.yul\":8806:8831   */\n      swap1\n      dup2\n      mstore\n        /* \"#utility.yul\":8794:8796   */\n      0x20\n        /* \"#utility.yul\":8779:8797   */\n      add\n      swap1\n        /* \"#utility.yul\":8761:8837   */\n      jump\t// out\n        /* \"#utility.yul\":8842:9171   */\n    tag_353:\n        /* \"#utility.yul\":9038:9063   */\n      swap3\n      dup4\n      mstore\n        /* \"#utility.yul\":9094:9096   */\n      0x20\n        /* \"#utility.yul\":9079:9097   */\n      dup4\n      add\n        /* \"#utility.yul\":9072:9106   */\n      swap2\n      swap1\n      swap2\n      mstore\n        /* \"#utility.yul\":9149:9163   */\n      iszero\n        /* \"#utility.yul\":9142:9164   */\n      iszero\n        /* \"#utility.yul\":9137:9139   */\n      0x40\n        /* \"#utility.yul\":9122:9140   */\n      dup3\n      add\n        /* \"#utility.yul\":9115:9165   */\n      mstore\n        /* \"#utility.yul\":9026:9028   */\n      0x60\n        /* \"#utility.yul\":9011:9029   */\n      add\n      swap1\n        /* \"#utility.yul\":8993:9171   */\n      jump\t// out\n        /* \"#utility.yul\":9176:9304   */\n    tag_383:\n      0x00\n        /* \"#utility.yul\":9247:9248   */\n      dup3\n        /* \"#utility.yul\":9243:9249   */\n      not\n        /* \"#utility.yul\":9240:9241   */\n      dup3\n        /* \"#utility.yul\":9237:9250   */\n      gt\n        /* \"#utility.yul\":9234:9236   */\n      iszero\n      tag_469\n      jumpi\n        /* \"#utility.yul\":9253:9271   */\n      tag_469\n      tag_470\n      jump\t// in\n    tag_469:\n      pop\n        /* \"#utility.yul\":9289:9298   */\n      add\n      swap1\n        /* \"#utility.yul\":9224:9304   */\n      jump\t// out\n        /* \"#utility.yul\":9309:9526   */\n    tag_317:\n      0x00\n        /* \"#utility.yul\":9375:9376   */\n      dup3\n        /* \"#utility.yul\":9365:9367   */\n      tag_472\n      jumpi\n      shl(0xe0, 0x4e487b71)\n        /* \"#utility.yul\":9400:9431   */\n      dup2\n      mstore\n        /* \"#utility.yul\":9454:9458   */\n      0x12\n        /* \"#utility.yul\":9451:9452   */\n      0x04\n        /* \"#utility.yul\":9444:9459   */\n      mstore\n        /* \"#utility.yul\":9482:9486   */\n      0x24\n        /* \"#utility.yul\":9407:9408   */\n      dup2\n        /* \"#utility.yul\":9472:9487   */\n      revert\n        /* \"#utility.yul\":9365:9367   */\n    tag_472:\n      pop\n        /* \"#utility.yul\":9511:9520   */\n      div\n      swap1\n        /* \"#utility.yul\":9355:9526   */\n      jump\t// out\n        /* \"#utility.yul\":9531:9699   */\n    tag_314:\n      0x00\n        /* \"#utility.yul\":9637:9638   */\n      dup2\n        /* \"#utility.yul\":9633:9634   */\n      0x00\n        /* \"#utility.yul\":9629:9635   */\n      not\n        /* \"#utility.yul\":9625:9639   */\n      div\n        /* \"#utility.yul\":9622:9623   */\n      dup4\n        /* \"#utility.yul\":9619:9640   */\n      gt\n        /* \"#utility.yul\":9614:9615   */\n      dup3\n        /* \"#utility.yul\":9607:9616   */\n      iszero\n        /* \"#utility.yul\":9600:9617   */\n      iszero\n        /* \"#utility.yul\":9596:9641   */\n      and\n        /* \"#utility.yul\":9593:9595   */\n      iszero\n      tag_475\n      jumpi\n        /* \"#utility.yul\":9644:9662   */\n      tag_475\n      tag_470\n      jump\t// in\n    tag_475:\n      pop\n        /* \"#utility.yul\":9684:9693   */\n      mul\n      swap1\n        /* \"#utility.yul\":9583:9699   */\n      jump\t// out\n        /* \"#utility.yul\":9704:9829   */\n    tag_320:\n      0x00\n        /* \"#utility.yul\":9772:9773   */\n      dup3\n        /* \"#utility.yul\":9769:9770   */\n      dup3\n        /* \"#utility.yul\":9766:9774   */\n      lt\n        /* \"#utility.yul\":9763:9765   */\n      iszero\n      tag_478\n      jumpi\n        /* \"#utility.yul\":9777:9795   */\n      tag_478\n      tag_470\n      jump\t// in\n    tag_478:\n      pop\n        /* \"#utility.yul\":9814:9823   */\n      sub\n      swap1\n        /* \"#utility.yul\":9753:9829   */\n      jump\t// out\n        /* \"#utility.yul\":9834:10092   */\n    tag_447:\n        /* \"#utility.yul\":9906:9907   */\n      0x00\n        /* \"#utility.yul\":9916:10029   */\n    tag_480:\n        /* \"#utility.yul\":9930:9936   */\n      dup4\n        /* \"#utility.yul\":9927:9928   */\n      dup2\n        /* \"#utility.yul\":9924:9937   */\n      lt\n        /* \"#utility.yul\":9916:10029   */\n      iszero\n      tag_482\n      jumpi\n        /* \"#utility.yul\":10006:10017   */\n      dup2\n      dup2\n      add\n        /* \"#utility.yul\":10000:10018   */\n      mload\n        /* \"#utility.yul\":9987:9998   */\n      dup4\n      dup3\n      add\n        /* \"#utility.yul\":9980:10019   */\n      mstore\n        /* \"#utility.yul\":9952:9954   */\n      0x20\n        /* \"#utility.yul\":9945:9955   */\n      add\n        /* \"#utility.yul\":9916:10029   */\n      jump(tag_480)\n    tag_482:\n        /* \"#utility.yul\":10047:10053   */\n      dup4\n        /* \"#utility.yul\":10044:10045   */\n      dup2\n        /* \"#utility.yul\":10041:10054   */\n      gt\n        /* \"#utility.yul\":10038:10040   */\n      iszero\n      tag_483\n      jumpi\n        /* \"#utility.yul\":10082:10083   */\n      0x00\n        /* \"#utility.yul\":10073:10079   */\n      dup5\n        /* \"#utility.yul\":10068:10071   */\n      dup5\n        /* \"#utility.yul\":10064:10080   */\n      add\n        /* \"#utility.yul\":10057:10084   */\n      mstore\n        /* \"#utility.yul\":10038:10040   */\n    tag_483:\n      pop\n        /* \"#utility.yul\":9887:10092   */\n      pop\n      pop\n      pop\n      jump\t// out\n        /* \"#utility.yul\":10097:10224   */\n    tag_470:\n        /* \"#utility.yul\":10158:10168   */\n      0x4e487b71\n        /* \"#utility.yul\":10153:10156   */\n      0xe0\n        /* \"#utility.yul\":10149:10169   */\n      shl\n        /* \"#utility.yul\":10146:10147   */\n      0x00\n        /* \"#utility.yul\":10139:10170   */\n      mstore\n        /* \"#utility.yul\":10189:10193   */\n      0x11\n        /* \"#utility.yul\":10186:10187   */\n      0x04\n        /* \"#utility.yul\":10179:10194   */\n      mstore\n        /* \"#utility.yul\":10213:10217   */\n      0x24\n        /* \"#utility.yul\":10210:10211   */\n      0x00\n        /* \"#utility.yul\":10203:10218   */\n      revert\n        /* \"#utility.yul\":10229:10362   */\n    tag_415:\n      sub(shl(0xa0, 0x01), 0x01)\n        /* \"#utility.yul\":10306:10337   */\n      dup2\n      and\n        /* \"#utility.yul\":10296:10338   */\n      dup2\n      eq\n        /* \"#utility.yul\":10286:10288   */\n      tag_293\n      jumpi\n        /* \"#utility.yul\":10352:10353   */\n      0x00\n        /* \"#utility.yul\":10349:10350   */\n      dup1\n        /* \"#utility.yul\":10342:10354   */\n      revert\n        /* \"#utility.yul\":10367:10487   */\n    tag_423:\n        /* \"#utility.yul\":10455:10460   */\n      dup1\n        /* \"#utility.yul\":10448:10461   */\n      iszero\n        /* \"#utility.yul\":10441:10462   */\n      iszero\n        /* \"#utility.yul\":10434:10439   */\n      dup2\n        /* \"#utility.yul\":10431:10463   */\n      eq\n        /* \"#utility.yul\":10421:10423   */\n      tag_293\n      jumpi\n        /* \"#utility.yul\":10477:10478   */\n      0x00\n        /* \"#utility.yul\":10474:10475   */\n      dup1\n        /* \"#utility.yul\":10467:10479   */\n      revert\n\n    auxdata: 0xa2646970667358221220980dde3c6cfab161846c59c098f4cf13d00b8289e5c18c643b9009601c7b59c364736f6c63430008000033\n}\n",
				"bytecode": {
					"linkReferences": {},
					"object": "608060405234801561001057600080fd5b50611860806100206000396000f3fe608060405234801561001057600080fd5b50600436106102065760003560e01c806391cca3db1161011a578063c83dd231116100ad578063db7f521a1161007c578063db7f521a1461039e578063ec1f1f69146103b1578063f1068454146103b9578063f2fde38b146103c1578063f6d7eade146103d457610206565b8063c83dd23114610368578063cc2a9a5b14610370578063d10c06a214610383578063d477f05f1461038b57610206565b8063aaf5eb68116100e9578063aaf5eb681461033d578063af5518c414610345578063b8bb97a114610358578063bd0b1f441461036057610206565b806391cca3db14610307578063930ed0331461030f5780639da5b0d514610322578063a36a75261461032a57610206565b80634591db501161019d57806355c746d11161016c57806355c746d1146102d257806358de5de8146102e5578063715018a6146102ed5780637e47961c146102f75780638da5cb5b146102ff57610206565b80634591db501461029c57806348c7e528146102af5780634ae6a027146102c25780634ecaac41146102ca57610206565b80633011d3d5116101d95780633011d3d51461026457806336e9332d146102795780633c850e1e146102815780633e413bee1461029457610206565b806316d039931461020b5780631e1bff3f1461022957806327c42a50146102495780632c535a521461025c575b600080fd5b6102136103dc565b6040516102209190611732565b60405180910390f35b61023c610237366004611371565b6103e2565b6040516102209190611520565b61023c61025736600461148d565b61045b565b6102136104a5565b61026c6104ab565b60405161022091906114d9565b61026c6104ba565b61023c61028f36600461148d565b6104c9565b61026c610513565b61023c6102aa3660046113d4565b610522565b61023c6102bd366004611339565b610584565b610213610599565b61026c61059f565b61023c6102e03660046113d4565b6105ae565b61023c610610565b6102f5610620565b005b61026c61066b565b61026c61067a565b61026c610689565b61023c61031d3660046113a9565b610698565b61023c6106f6565b61023c610338366004611339565b610706565b61021361076c565b61023c61035336600461148d565b610772565b61026c6107bc565b6102136107cb565b61026c6107d1565b6102f561037e36600461140c565b6107e0565b61023c610910565b61023c610399366004611339565b610b37565b61023c6103ac366004611339565b610b9d565b61026c610c03565b610213610c12565b6102f56103cf366004611339565b610c18565b61026c610c89565b60725481565b60006103ec610c98565b6001600160a01b03166103fd61067a565b6001600160a01b03161461042c5760405162461bcd60e51b81526004016104239061167c565b60405180910390fd5b506001600160a01b0382166000908152606560205260409020805482151560ff19909116179055600192915050565b6000610465610c98565b6001600160a01b031661047661067a565b6001600160a01b03161461049c5760405162461bcd60e51b81526004016104239061167c565b50606e55600190565b606f5481565b6066546001600160a01b031681565b6074546001600160a01b031681565b60006104d3610c98565b6001600160a01b03166104e461067a565b6001600160a01b03161461050a5760405162461bcd60e51b81526004016104239061167c565b50607055600190565b6067546001600160a01b031681565b600061052c610c98565b6001600160a01b031661053d61067a565b6001600160a01b0316146105635760405162461bcd60e51b81526004016104239061167c565b5060748054821515600160a01b0260ff60a01b199091161790556001919050565b60656020526000908152604090205460ff1681565b60705481565b6068546001600160a01b031681565b60006105b8610c98565b6001600160a01b03166105c961067a565b6001600160a01b0316146105ef5760405162461bcd60e51b81526004016104239061167c565b5060748054821515600160a81b0260ff60a81b199091161790556001919050565b607454600160a81b900460ff1681565b610628610c98565b6001600160a01b031661063961067a565b6001600160a01b03161461065f5760405162461bcd60e51b81526004016104239061167c565b6106696000610c9c565b565b6075546001600160a01b031681565b6033546001600160a01b031690565b606b546001600160a01b031681565b60006106a2610c98565b6001600160a01b03166106b361067a565b6001600160a01b0316146106d95760405162461bcd60e51b81526004016104239061167c565b6106ed6001600160a01b0384163384610cee565b50600192915050565b607454600160a01b900460ff1681565b6000610710610c98565b6001600160a01b031661072161067a565b6001600160a01b0316146107475760405162461bcd60e51b81526004016104239061167c565b50606a80546001600160a01b0383166001600160a01b03199091161790556001919050565b60715481565b600061077c610c98565b6001600160a01b031661078d61067a565b6001600160a01b0316146107b35760405162461bcd60e51b81526004016104239061167c565b50606f55600190565b6069546001600160a01b031681565b606e5481565b606d546001600160a01b031681565b600054610100900460ff16806107f9575060005460ff16155b6108155760405162461bcd60e51b81526004016104239061162e565b600054610100900460ff16158015610840576000805460ff1961ff0019909116610100171660011790555b610848610d49565b606c80546001600160a01b03199081166001600160a01b0389811691909117909255606d805482168a8416179055606680548216888416179055606880548216878416179055606980548216868416179055606a8054339083168117909155606b8054909216179055611388606e556109c4606f8190556070556127106071556103e860725560748054600160a01b60ff60a01b1990911617600161ff0160a01b0319169184169190911790558015610907576000805461ff00191690555b50505050505050565b3360009081526065602052604081205460ff1661093f5760405162461bcd60e51b8152600401610423906115a4565b6066546040516370a0823160e01b81526000916001600160a01b0316906370a08231906109709030906004016114d9565b60206040518083038186803b15801561098857600080fd5b505afa15801561099c573d6000803e3d6000fd5b505050506040513d601f19601f820116820180604052508101906109c091906114a5565b905060006109e56071546109df606e5485610dcd90919063ffffffff16565b90610de0565b90506000610a046071546109df606f5486610dcd90919063ffffffff16565b90506000610a1c82610a168686610dec565b90610dec565b606954606654919250610a3c916001600160a01b03908116911685610cee565b606a54606654610a59916001600160a01b03918216911684610cee565b606b54606654610a76916001600160a01b03918216911683610cee565b607454600160a01b900460ff1615610a9057610a90610df8565b607454600160a81b900460ff1615610b2c57607560009054906101000a90046001600160a01b03166001600160a01b031663796c7be76040518163ffffffff1660e01b8152600401602060405180830381600087803b158015610af257600080fd5b505af1158015610b06573d6000803e3d6000fd5b505050506040513d601f19601f82011682018060405250810190610b2a91906113f0565b505b600194505050505090565b6000610b41610c98565b6001600160a01b0316610b5261067a565b6001600160a01b031614610b785760405162461bcd60e51b81526004016104239061167c565b50606b80546001600160a01b0383166001600160a01b03199091161790556001919050565b6000610ba7610c98565b6001600160a01b0316610bb861067a565b6001600160a01b031614610bde5760405162461bcd60e51b81526004016104239061167c565b50607580546001600160a01b0383166001600160a01b03199091161790556001919050565b606a546001600160a01b031681565b60735481565b610c20610c98565b6001600160a01b0316610c3161067a565b6001600160a01b031614610c575760405162461bcd60e51b81526004016104239061167c565b6001600160a01b038116610c7d5760405162461bcd60e51b81526004016104239061155e565b610c8681610c9c565b50565b606c546001600160a01b031681565b3390565b603380546001600160a01b038381166001600160a01b0319831681179093556040519116919082907f8be0079c531659141344cd1fd0a4f28419497f9722a3daafe3b4186f6b6457e090600090a35050565b610d448363a9059cbb60e01b8484604051602401610d0d929190611507565b60408051601f198184030181529190526020810180516001600160e01b03166001600160e01b0319909316929092179091526110a5565b505050565b600054610100900460ff1680610d62575060005460ff16155b610d7e5760405162461bcd60e51b81526004016104239061162e565b600054610100900460ff16158015610da9576000805460ff1961ff0019909116610100171660011790555b610db1611134565b610db96111a7565b8015610c86576000805461ff001916905550565b6000610dd9828461178b565b9392505050565b6000610dd9828461176b565b6000610dd982846117aa565b606d5460675460665460405163e6a4390560e01b81526000936001600160a01b039081169363e6a4390593610e35939183169216906004016114ed565b60206040518083038186803b158015610e4d57600080fd5b505afa158015610e61573d6000803e3d6000fd5b505050506040513d601f19601f82011682018060405250810190610e859190611355565b6066546040516370a0823160e01b81529192506000916001600160a01b03909116906370a0823190610ebb9085906004016114d9565b60206040518083038186803b158015610ed357600080fd5b505afa158015610ee7573d6000803e3d6000fd5b505050506040513d601f19601f82011682018060405250810190610f0b91906114a5565b6067546040516370a0823160e01b81529192506000916001600160a01b03909116906370a0823190610f419086906004016114d9565b60206040518083038186803b158015610f5957600080fd5b505afa158015610f6d573d6000803e3d6000fd5b505050506040513d601f19601f82011682018060405250810190610f9191906114a5565b90506000610fab836109df84670de0b6b3a7640000610dcd565b9050600080670de0b6b3a764000083111561100657610fdc655af3107a40006109df85670de0b6b3a7640000610dec565b9050607254811115610ff15760009150611001565b607254610ffe9082610dec565b91505b611035565b611022655af3107a40006109df85670de0b6b3a76400006117aa565b6072549091506110329082611217565b91505b60745460735460405163236535f560e11b81526001600160a01b03909216916346ca6bea9161106b91869060019060040161173b565b600060405180830381600087803b15801561108557600080fd5b505af1158015611099573d6000803e3d6000fd5b50505050505050505050565b60006110fa826040518060400160405280602081526020017f5361666545524332303a206c6f772d6c6576656c2063616c6c206661696c6564815250856001600160a01b03166112239092919063ffffffff16565b805190915015610d44578080602001905181019061111891906113f0565b610d445760405162461bcd60e51b8152600401610423906116e8565b600054610100900460ff168061114d575060005460ff16155b6111695760405162461bcd60e51b81526004016104239061162e565b600054610100900460ff16158015610db9576000805460ff1961ff0019909116610100171660011790558015610c86576000805461ff001916905550565b600054610100900460ff16806111c0575060005460ff16155b6111dc5760405162461bcd60e51b81526004016104239061162e565b600054610100900460ff16158015611207576000805460ff1961ff0019909116610100171660011790555b610db9611212610c98565b610c9c565b6000610dd98284611753565b6060611232848460008561123a565b949350505050565b60608247101561125c5760405162461bcd60e51b8152600401610423906115e8565b611265856112fa565b6112815760405162461bcd60e51b8152600401610423906116b1565b600080866001600160a01b0316858760405161129d91906114bd565b60006040518083038185875af1925050503d80600081146112da576040519150601f19603f3d011682016040523d82523d6000602084013e6112df565b606091505b50915091506112ef828286611300565b979650505050505050565b3b151590565b6060831561130f575081610dd9565b82511561131f5782518084602001fd5b8160405162461bcd60e51b8152600401610423919061152b565b60006020828403121561134a578081fd5b8135610dd981611807565b600060208284031215611366578081fd5b8151610dd981611807565b60008060408385031215611383578081fd5b823561138e81611807565b9150602083013561139e8161181c565b809150509250929050565b600080604083850312156113bb578182fd5b82356113c681611807565b946020939093013593505050565b6000602082840312156113e5578081fd5b8135610dd98161181c565b600060208284031215611401578081fd5b8151610dd98161181c565b60008060008060008060c08789031215611424578182fd5b863561142f81611807565b9550602087013561143f81611807565b9450604087013561144f81611807565b9350606087013561145f81611807565b9250608087013561146f81611807565b915060a087013561147f81611807565b809150509295509295509295565b60006020828403121561149e578081fd5b5035919050565b6000602082840312156114b6578081fd5b5051919050565b600082516114cf8184602087016117c1565b9190910192915050565b6001600160a01b0391909116815260200190565b6001600160a01b0392831681529116602082015260400190565b6001600160a01b03929092168252602082015260400190565b901515815260200190565b600060208252825180602084015261154a8160408501602087016117c1565b601f01601f19169190910160400192915050565b60208082526026908201527f4f776e61626c653a206e6577206f776e657220697320746865207a65726f206160408201526564647265737360d01b606082015260800190565b60208082526024908201527f6578656375746f723a2063616c6c6572206973206e6f742074686520657865636040820152633aba37b960e11b606082015260800190565b60208082526026908201527f416464726573733a20696e73756666696369656e742062616c616e636520666f6040820152651c8818d85b1b60d21b606082015260800190565b6020808252602e908201527f496e697469616c697a61626c653a20636f6e747261637420697320616c72656160408201526d191e481a5b9a5d1a585b1a5e995960921b606082015260800190565b6020808252818101527f4f776e61626c653a2063616c6c6572206973206e6f7420746865206f776e6572604082015260600190565b6020808252601d908201527f416464726573733a2063616c6c20746f206e6f6e2d636f6e7472616374000000604082015260600190565b6020808252602a908201527f5361666545524332303a204552433230206f7065726174696f6e20646964206e6040820152691bdd081cdd58d8d9595960b21b606082015260800190565b90815260200190565b92835260208301919091521515604082015260600190565b60008219821115611766576117666117f1565b500190565b60008261178657634e487b7160e01b81526012600452602481fd5b500490565b60008160001904831182151516156117a5576117a56117f1565b500290565b6000828210156117bc576117bc6117f1565b500390565b60005b838110156117dc5781810151838201526020016117c4565b838111156117eb576000848401525b50505050565b634e487b7160e01b600052601160045260246000fd5b6001600160a01b0381168114610c8657600080fd5b8015158114610c8657600080fdfea2646970667358221220980dde3c6cfab161846c59c098f4cf13d00b8289e5c18c643b9009601c7b59c364736f6c63430008000033",
					"opcodes": "PUSH1 0x80 PUSH1 0x40 MSTORE CALLVALUE DUP1 ISZERO PUSH2 0x10 JUMPI PUSH1 0x0 DUP1 REVERT JUMPDEST POP PUSH2 0x1860 DUP1 PUSH2 0x20 PUSH1 0x0 CODECOPY PUSH1 0x0 RETURN INVALID PUSH1 0x80 PUSH1 0x40 MSTORE CALLVALUE DUP1 ISZERO PUSH2 0x10 JUMPI PUSH1 0x0 DUP1 REVERT JUMPDEST POP PUSH1 0x4 CALLDATASIZE LT PUSH2 0x206 JUMPI PUSH1 0x0 CALLDATALOAD PUSH1 0xE0 SHR DUP1 PUSH4 0x91CCA3DB GT PUSH2 0x11A JUMPI DUP1 PUSH4 0xC83DD231 GT PUSH2 0xAD JUMPI DUP1 PUSH4 0xDB7F521A GT PUSH2 0x7C JUMPI DUP1 PUSH4 0xDB7F521A EQ PUSH2 0x39E JUMPI DUP1 PUSH4 0xEC1F1F69 EQ PUSH2 0x3B1 JUMPI DUP1 PUSH4 0xF1068454 EQ PUSH2 0x3B9 JUMPI DUP1 PUSH4 0xF2FDE38B EQ PUSH2 0x3C1 JUMPI DUP1 PUSH4 0xF6D7EADE EQ PUSH2 0x3D4 JUMPI PUSH2 0x206 JUMP JUMPDEST DUP1 PUSH4 0xC83DD231 EQ PUSH2 0x368 JUMPI DUP1 PUSH4 0xCC2A9A5B EQ PUSH2 0x370 JUMPI DUP1 PUSH4 0xD10C06A2 EQ PUSH2 0x383 JUMPI DUP1 PUSH4 0xD477F05F EQ PUSH2 0x38B JUMPI PUSH2 0x206 JUMP JUMPDEST DUP1 PUSH4 0xAAF5EB68 GT PUSH2 0xE9 JUMPI DUP1 PUSH4 0xAAF5EB68 EQ PUSH2 0x33D JUMPI DUP1 PUSH4 0xAF5518C4 EQ PUSH2 0x345 JUMPI DUP1 PUSH4 0xB8BB97A1 EQ PUSH2 0x358 JUMPI DUP1 PUSH4 0xBD0B1F44 EQ PUSH2 0x360 JUMPI PUSH2 0x206 JUMP JUMPDEST DUP1 PUSH4 0x91CCA3DB EQ PUSH2 0x307 JUMPI DUP1 PUSH4 0x930ED033 EQ PUSH2 0x30F JUMPI DUP1 PUSH4 0x9DA5B0D5 EQ PUSH2 0x322 JUMPI DUP1 PUSH4 0xA36A7526 EQ PUSH2 0x32A JUMPI PUSH2 0x206 JUMP JUMPDEST DUP1 PUSH4 0x4591DB50 GT PUSH2 0x19D JUMPI DUP1 PUSH4 0x55C746D1 GT PUSH2 0x16C JUMPI DUP1 PUSH4 0x55C746D1 EQ PUSH2 0x2D2 JUMPI DUP1 PUSH4 0x58DE5DE8 EQ PUSH2 0x2E5 JUMPI DUP1 PUSH4 0x715018A6 EQ PUSH2 0x2ED JUMPI DUP1 PUSH4 0x7E47961C EQ PUSH2 0x2F7 JUMPI DUP1 PUSH4 0x8DA5CB5B EQ PUSH2 0x2FF JUMPI PUSH2 0x206 JUMP JUMPDEST DUP1 PUSH4 0x4591DB50 EQ PUSH2 0x29C JUMPI DUP1 PUSH4 0x48C7E528 EQ PUSH2 0x2AF JUMPI DUP1 PUSH4 0x4AE6A027 EQ PUSH2 0x2C2 JUMPI DUP1 PUSH4 0x4ECAAC41 EQ PUSH2 0x2CA JUMPI PUSH2 0x206 JUMP JUMPDEST DUP1 PUSH4 0x3011D3D5 GT PUSH2 0x1D9 JUMPI DUP1 PUSH4 0x3011D3D5 EQ PUSH2 0x264 JUMPI DUP1 PUSH4 0x36E9332D EQ PUSH2 0x279 JUMPI DUP1 PUSH4 0x3C850E1E EQ PUSH2 0x281 JUMPI DUP1 PUSH4 0x3E413BEE EQ PUSH2 0x294 JUMPI PUSH2 0x206 JUMP JUMPDEST DUP1 PUSH4 0x16D03993 EQ PUSH2 0x20B JUMPI DUP1 PUSH4 0x1E1BFF3F EQ PUSH2 0x229 JUMPI DUP1 PUSH4 0x27C42A50 EQ PUSH2 0x249 JUMPI DUP1 PUSH4 0x2C535A52 EQ PUSH2 0x25C JUMPI JUMPDEST PUSH1 0x0 DUP1 REVERT JUMPDEST PUSH2 0x213 PUSH2 0x3DC JUMP JUMPDEST PUSH1 0x40 MLOAD PUSH2 0x220 SWAP2 SWAP1 PUSH2 0x1732 JUMP JUMPDEST PUSH1 0x40 MLOAD DUP1 SWAP2 SUB SWAP1 RETURN JUMPDEST PUSH2 0x23C PUSH2 0x237 CALLDATASIZE PUSH1 0x4 PUSH2 0x1371 JUMP JUMPDEST PUSH2 0x3E2 JUMP JUMPDEST PUSH1 0x40 MLOAD PUSH2 0x220 SWAP2 SWAP1 PUSH2 0x1520 JUMP JUMPDEST PUSH2 0x23C PUSH2 0x257 CALLDATASIZE PUSH1 0x4 PUSH2 0x148D JUMP JUMPDEST PUSH2 0x45B JUMP JUMPDEST PUSH2 0x213 PUSH2 0x4A5 JUMP JUMPDEST PUSH2 0x26C PUSH2 0x4AB JUMP JUMPDEST PUSH1 0x40 MLOAD PUSH2 0x220 SWAP2 SWAP1 PUSH2 0x14D9 JUMP JUMPDEST PUSH2 0x26C PUSH2 0x4BA JUMP JUMPDEST PUSH2 0x23C PUSH2 0x28F CALLDATASIZE PUSH1 0x4 PUSH2 0x148D JUMP JUMPDEST PUSH2 0x4C9 JUMP JUMPDEST PUSH2 0x26C PUSH2 0x513 JUMP JUMPDEST PUSH2 0x23C PUSH2 0x2AA CALLDATASIZE PUSH1 0x4 PUSH2 0x13D4 JUMP JUMPDEST PUSH2 0x522 JUMP JUMPDEST PUSH2 0x23C PUSH2 0x2BD CALLDATASIZE PUSH1 0x4 PUSH2 0x1339 JUMP JUMPDEST PUSH2 0x584 JUMP JUMPDEST PUSH2 0x213 PUSH2 0x599 JUMP JUMPDEST PUSH2 0x26C PUSH2 0x59F JUMP JUMPDEST PUSH2 0x23C PUSH2 0x2E0 CALLDATASIZE PUSH1 0x4 PUSH2 0x13D4 JUMP JUMPDEST PUSH2 0x5AE JUMP JUMPDEST PUSH2 0x23C PUSH2 0x610 JUMP JUMPDEST PUSH2 0x2F5 PUSH2 0x620 JUMP JUMPDEST STOP JUMPDEST PUSH2 0x26C PUSH2 0x66B JUMP JUMPDEST PUSH2 0x26C PUSH2 0x67A JUMP JUMPDEST PUSH2 0x26C PUSH2 0x689 JUMP JUMPDEST PUSH2 0x23C PUSH2 0x31D CALLDATASIZE PUSH1 0x4 PUSH2 0x13A9 JUMP JUMPDEST PUSH2 0x698 JUMP JUMPDEST PUSH2 0x23C PUSH2 0x6F6 JUMP JUMPDEST PUSH2 0x23C PUSH2 0x338 CALLDATASIZE PUSH1 0x4 PUSH2 0x1339 JUMP JUMPDEST PUSH2 0x706 JUMP JUMPDEST PUSH2 0x213 PUSH2 0x76C JUMP JUMPDEST PUSH2 0x23C PUSH2 0x353 CALLDATASIZE PUSH1 0x4 PUSH2 0x148D JUMP JUMPDEST PUSH2 0x772 JUMP JUMPDEST PUSH2 0x26C PUSH2 0x7BC JUMP JUMPDEST PUSH2 0x213 PUSH2 0x7CB JUMP JUMPDEST PUSH2 0x26C PUSH2 0x7D1 JUMP JUMPDEST PUSH2 0x2F5 PUSH2 0x37E CALLDATASIZE PUSH1 0x4 PUSH2 0x140C JUMP JUMPDEST PUSH2 0x7E0 JUMP JUMPDEST PUSH2 0x23C PUSH2 0x910 JUMP JUMPDEST PUSH2 0x23C PUSH2 0x399 CALLDATASIZE PUSH1 0x4 PUSH2 0x1339 JUMP JUMPDEST PUSH2 0xB37 JUMP JUMPDEST PUSH2 0x23C PUSH2 0x3AC CALLDATASIZE PUSH1 0x4 PUSH2 0x1339 JUMP JUMPDEST PUSH2 0xB9D JUMP JUMPDEST PUSH2 0x26C PUSH2 0xC03 JUMP JUMPDEST PUSH2 0x213 PUSH2 0xC12 JUMP JUMPDEST PUSH2 0x2F5 PUSH2 0x3CF CALLDATASIZE PUSH1 0x4 PUSH2 0x1339 JUMP JUMPDEST PUSH2 0xC18 JUMP JUMPDEST PUSH2 0x26C PUSH2 0xC89 JUMP JUMPDEST PUSH1 0x72 SLOAD DUP2 JUMP JUMPDEST PUSH1 0x0 PUSH2 0x3EC PUSH2 0xC98 JUMP JUMPDEST PUSH1 0x1 PUSH1 0x1 PUSH1 0xA0 SHL SUB AND PUSH2 0x3FD PUSH2 0x67A JUMP JUMPDEST PUSH1 0x1 PUSH1 0x1 PUSH1 0xA0 SHL SUB AND EQ PUSH2 0x42C JUMPI PUSH1 0x40 MLOAD PUSH3 0x461BCD PUSH1 0xE5 SHL DUP2 MSTORE PUSH1 0x4 ADD PUSH2 0x423 SWAP1 PUSH2 0x167C JUMP JUMPDEST PUSH1 0x40 MLOAD DUP1 SWAP2 SUB SWAP1 REVERT JUMPDEST POP PUSH1 0x1 PUSH1 0x1 PUSH1 0xA0 SHL SUB DUP3 AND PUSH1 0x0 SWAP1 DUP2 MSTORE PUSH1 0x65 PUSH1 0x20 MSTORE PUSH1 0x40 SWAP1 KECCAK256 DUP1 SLOAD DUP3 ISZERO ISZERO PUSH1 0xFF NOT SWAP1 SWAP2 AND OR SWAP1 SSTORE PUSH1 0x1 SWAP3 SWAP2 POP POP JUMP JUMPDEST PUSH1 0x0 PUSH2 0x465 PUSH2 0xC98 JUMP JUMPDEST PUSH1 0x1 PUSH1 0x1 PUSH1 0xA0 SHL SUB AND PUSH2 0x476 PUSH2 0x67A JUMP JUMPDEST PUSH1 0x1 PUSH1 0x1 PUSH1 0xA0 SHL SUB AND EQ PUSH2 0x49C JUMPI PUSH1 0x40 MLOAD PUSH3 0x461BCD PUSH1 0xE5 SHL DUP2 MSTORE PUSH1 0x4 ADD PUSH2 0x423 SWAP1 PUSH2 0x167C JUMP JUMPDEST POP PUSH1 0x6E SSTORE PUSH1 0x1 SWAP1 JUMP JUMPDEST PUSH1 0x6F SLOAD DUP2 JUMP JUMPDEST PUSH1 0x66 SLOAD PUSH1 0x1 PUSH1 0x1 PUSH1 0xA0 SHL SUB AND DUP2 JUMP JUMPDEST PUSH1 0x74 SLOAD PUSH1 0x1 PUSH1 0x1 PUSH1 0xA0 SHL SUB AND DUP2 JUMP JUMPDEST PUSH1 0x0 PUSH2 0x4D3 PUSH2 0xC98 JUMP JUMPDEST PUSH1 0x1 PUSH1 0x1 PUSH1 0xA0 SHL SUB AND PUSH2 0x4E4 PUSH2 0x67A JUMP JUMPDEST PUSH1 0x1 PUSH1 0x1 PUSH1 0xA0 SHL SUB AND EQ PUSH2 0x50A JUMPI PUSH1 0x40 MLOAD PUSH3 0x461BCD PUSH1 0xE5 SHL DUP2 MSTORE PUSH1 0x4 ADD PUSH2 0x423 SWAP1 PUSH2 0x167C JUMP JUMPDEST POP PUSH1 0x70 SSTORE PUSH1 0x1 SWAP1 JUMP JUMPDEST PUSH1 0x67 SLOAD PUSH1 0x1 PUSH1 0x1 PUSH1 0xA0 SHL SUB AND DUP2 JUMP JUMPDEST PUSH1 0x0 PUSH2 0x52C PUSH2 0xC98 JUMP JUMPDEST PUSH1 0x1 PUSH1 0x1 PUSH1 0xA0 SHL SUB AND PUSH2 0x53D PUSH2 0x67A JUMP JUMPDEST PUSH1 0x1 PUSH1 0x1 PUSH1 0xA0 SHL SUB AND EQ PUSH2 0x563 JUMPI PUSH1 0x40 MLOAD PUSH3 0x461BCD PUSH1 0xE5 SHL DUP2 MSTORE PUSH1 0x4 ADD PUSH2 0x423 SWAP1 PUSH2 0x167C JUMP JUMPDEST POP PUSH1 0x74 DUP1 SLOAD DUP3 ISZERO ISZERO PUSH1 0x1 PUSH1 0xA0 SHL MUL PUSH1 0xFF PUSH1 0xA0 SHL NOT SWAP1 SWAP2 AND OR SWAP1 SSTORE PUSH1 0x1 SWAP2 SWAP1 POP JUMP JUMPDEST PUSH1 0x65 PUSH1 0x20 MSTORE PUSH1 0x0 SWAP1 DUP2 MSTORE PUSH1 0x40 SWAP1 KECCAK256 SLOAD PUSH1 0xFF AND DUP2 JUMP JUMPDEST PUSH1 0x70 SLOAD DUP2 JUMP JUMPDEST PUSH1 0x68 SLOAD PUSH1 0x1 PUSH1 0x1 PUSH1 0xA0 SHL SUB AND DUP2 JUMP JUMPDEST PUSH1 0x0 PUSH2 0x5B8 PUSH2 0xC98 JUMP JUMPDEST PUSH1 0x1 PUSH1 0x1 PUSH1 0xA0 SHL SUB AND PUSH2 0x5C9 PUSH2 0x67A JUMP JUMPDEST PUSH1 0x1 PUSH1 0x1 PUSH1 0xA0 SHL SUB AND EQ PUSH2 0x5EF JUMPI PUSH1 0x40 MLOAD PUSH3 0x461BCD PUSH1 0xE5 SHL DUP2 MSTORE PUSH1 0x4 ADD PUSH2 0x423 SWAP1 PUSH2 0x167C JUMP JUMPDEST POP PUSH1 0x74 DUP1 SLOAD DUP3 ISZERO ISZERO PUSH1 0x1 PUSH1 0xA8 SHL MUL PUSH1 0xFF PUSH1 0xA8 SHL NOT SWAP1 SWAP2 AND OR SWAP1 SSTORE PUSH1 0x1 SWAP2 SWAP1 POP JUMP JUMPDEST PUSH1 0x74 SLOAD PUSH1 0x1 PUSH1 0xA8 SHL SWAP1 DIV PUSH1 0xFF AND DUP2 JUMP JUMPDEST PUSH2 0x628 PUSH2 0xC98 JUMP JUMPDEST PUSH1 0x1 PUSH1 0x1 PUSH1 0xA0 SHL SUB AND PUSH2 0x639 PUSH2 0x67A JUMP JUMPDEST PUSH1 0x1 PUSH1 0x1 PUSH1 0xA0 SHL SUB AND EQ PUSH2 0x65F JUMPI PUSH1 0x40 MLOAD PUSH3 0x461BCD PUSH1 0xE5 SHL DUP2 MSTORE PUSH1 0x4 ADD PUSH2 0x423 SWAP1 PUSH2 0x167C JUMP JUMPDEST PUSH2 0x669 PUSH1 0x0 PUSH2 0xC9C JUMP JUMPDEST JUMP JUMPDEST PUSH1 0x75 SLOAD PUSH1 0x1 PUSH1 0x1 PUSH1 0xA0 SHL SUB AND DUP2 JUMP JUMPDEST PUSH1 0x33 SLOAD PUSH1 0x1 PUSH1 0x1 PUSH1 0xA0 SHL SUB AND SWAP1 JUMP JUMPDEST PUSH1 0x6B SLOAD PUSH1 0x1 PUSH1 0x1 PUSH1 0xA0 SHL SUB AND DUP2 JUMP JUMPDEST PUSH1 0x0 PUSH2 0x6A2 PUSH2 0xC98 JUMP JUMPDEST PUSH1 0x1 PUSH1 0x1 PUSH1 0xA0 SHL SUB AND PUSH2 0x6B3 PUSH2 0x67A JUMP JUMPDEST PUSH1 0x1 PUSH1 0x1 PUSH1 0xA0 SHL SUB AND EQ PUSH2 0x6D9 JUMPI PUSH1 0x40 MLOAD PUSH3 0x461BCD PUSH1 0xE5 SHL DUP2 MSTORE PUSH1 0x4 ADD PUSH2 0x423 SWAP1 PUSH2 0x167C JUMP JUMPDEST PUSH2 0x6ED PUSH1 0x1 PUSH1 0x1 PUSH1 0xA0 SHL SUB DUP5 AND CALLER DUP5 PUSH2 0xCEE JUMP JUMPDEST POP PUSH1 0x1 SWAP3 SWAP2 POP POP JUMP JUMPDEST PUSH1 0x74 SLOAD PUSH1 0x1 PUSH1 0xA0 SHL SWAP1 DIV PUSH1 0xFF AND DUP2 JUMP JUMPDEST PUSH1 0x0 PUSH2 0x710 PUSH2 0xC98 JUMP JUMPDEST PUSH1 0x1 PUSH1 0x1 PUSH1 0xA0 SHL SUB AND PUSH2 0x721 PUSH2 0x67A JUMP JUMPDEST PUSH1 0x1 PUSH1 0x1 PUSH1 0xA0 SHL SUB AND EQ PUSH2 0x747 JUMPI PUSH1 0x40 MLOAD PUSH3 0x461BCD PUSH1 0xE5 SHL DUP2 MSTORE PUSH1 0x4 ADD PUSH2 0x423 SWAP1 PUSH2 0x167C JUMP JUMPDEST POP PUSH1 0x6A DUP1 SLOAD PUSH1 0x1 PUSH1 0x1 PUSH1 0xA0 SHL SUB DUP4 AND PUSH1 0x1 PUSH1 0x1 PUSH1 0xA0 SHL SUB NOT SWAP1 SWAP2 AND OR SWAP1 SSTORE PUSH1 0x1 SWAP2 SWAP1 POP JUMP JUMPDEST PUSH1 0x71 SLOAD DUP2 JUMP JUMPDEST PUSH1 0x0 PUSH2 0x77C PUSH2 0xC98 JUMP JUMPDEST PUSH1 0x1 PUSH1 0x1 PUSH1 0xA0 SHL SUB AND PUSH2 0x78D PUSH2 0x67A JUMP JUMPDEST PUSH1 0x1 PUSH1 0x1 PUSH1 0xA0 SHL SUB AND EQ PUSH2 0x7B3 JUMPI PUSH1 0x40 MLOAD PUSH3 0x461BCD PUSH1 0xE5 SHL DUP2 MSTORE PUSH1 0x4 ADD PUSH2 0x423 SWAP1 PUSH2 0x167C JUMP JUMPDEST POP PUSH1 0x6F SSTORE PUSH1 0x1 SWAP1 JUMP JUMPDEST PUSH1 0x69 SLOAD PUSH1 0x1 PUSH1 0x1 PUSH1 0xA0 SHL SUB AND DUP2 JUMP JUMPDEST PUSH1 0x6E SLOAD DUP2 JUMP JUMPDEST PUSH1 0x6D SLOAD PUSH1 0x1 PUSH1 0x1 PUSH1 0xA0 SHL SUB AND DUP2 JUMP JUMPDEST PUSH1 0x0 SLOAD PUSH2 0x100 SWAP1 DIV PUSH1 0xFF AND DUP1 PUSH2 0x7F9 JUMPI POP PUSH1 0x0 SLOAD PUSH1 0xFF AND ISZERO JUMPDEST PUSH2 0x815 JUMPI PUSH1 0x40 MLOAD PUSH3 0x461BCD PUSH1 0xE5 SHL DUP2 MSTORE PUSH1 0x4 ADD PUSH2 0x423 SWAP1 PUSH2 0x162E JUMP JUMPDEST PUSH1 0x0 SLOAD PUSH2 0x100 SWAP1 DIV PUSH1 0xFF AND ISZERO DUP1 ISZERO PUSH2 0x840 JUMPI PUSH1 0x0 DUP1 SLOAD PUSH1 0xFF NOT PUSH2 0xFF00 NOT SWAP1 SWAP2 AND PUSH2 0x100 OR AND PUSH1 0x1 OR SWAP1 SSTORE JUMPDEST PUSH2 0x848 PUSH2 0xD49 JUMP JUMPDEST PUSH1 0x6C DUP1 SLOAD PUSH1 0x1 PUSH1 0x1 PUSH1 0xA0 SHL SUB NOT SWAP1 DUP2 AND PUSH1 0x1 PUSH1 0x1 PUSH1 0xA0 SHL SUB DUP10 DUP2 AND SWAP2 SWAP1 SWAP2 OR SWAP1 SWAP3 SSTORE PUSH1 0x6D DUP1 SLOAD DUP3 AND DUP11 DUP5 AND OR SWAP1 SSTORE PUSH1 0x66 DUP1 SLOAD DUP3 AND DUP9 DUP5 AND OR SWAP1 SSTORE PUSH1 0x68 DUP1 SLOAD DUP3 AND DUP8 DUP5 AND OR SWAP1 SSTORE PUSH1 0x69 DUP1 SLOAD DUP3 AND DUP7 DUP5 AND OR SWAP1 SSTORE PUSH1 0x6A DUP1 SLOAD CALLER SWAP1 DUP4 AND DUP2 OR SWAP1 SWAP2 SSTORE PUSH1 0x6B DUP1 SLOAD SWAP1 SWAP3 AND OR SWAP1 SSTORE PUSH2 0x1388 PUSH1 0x6E SSTORE PUSH2 0x9C4 PUSH1 0x6F DUP2 SWAP1 SSTORE PUSH1 0x70 SSTORE PUSH2 0x2710 PUSH1 0x71 SSTORE PUSH2 0x3E8 PUSH1 0x72 SSTORE PUSH1 0x74 DUP1 SLOAD PUSH1 0x1 PUSH1 0xA0 SHL PUSH1 0xFF PUSH1 0xA0 SHL NOT SWAP1 SWAP2 AND OR PUSH1 0x1 PUSH2 0xFF01 PUSH1 0xA0 SHL SUB NOT AND SWAP2 DUP5 AND SWAP2 SWAP1 SWAP2 OR SWAP1 SSTORE DUP1 ISZERO PUSH2 0x907 JUMPI PUSH1 0x0 DUP1 SLOAD PUSH2 0xFF00 NOT AND SWAP1 SSTORE JUMPDEST POP POP POP POP POP POP POP JUMP JUMPDEST CALLER PUSH1 0x0 SWAP1 DUP2 MSTORE PUSH1 0x65 PUSH1 0x20 MSTORE PUSH1 0x40 DUP2 KECCAK256 SLOAD PUSH1 0xFF AND PUSH2 0x93F JUMPI PUSH1 0x40 MLOAD PUSH3 0x461BCD PUSH1 0xE5 SHL DUP2 MSTORE PUSH1 0x4 ADD PUSH2 0x423 SWAP1 PUSH2 0x15A4 JUMP JUMPDEST PUSH1 0x66 SLOAD PUSH1 0x40 MLOAD PUSH4 0x70A08231 PUSH1 0xE0 SHL DUP2 MSTORE PUSH1 0x0 SWAP2 PUSH1 0x1 PUSH1 0x1 PUSH1 0xA0 SHL SUB AND SWAP1 PUSH4 0x70A08231 SWAP1 PUSH2 0x970 SWAP1 ADDRESS SWAP1 PUSH1 0x4 ADD PUSH2 0x14D9 JUMP JUMPDEST PUSH1 0x20 PUSH1 0x40 MLOAD DUP1 DUP4 SUB DUP2 DUP7 DUP1 EXTCODESIZE ISZERO DUP1 ISZERO PUSH2 0x988 JUMPI PUSH1 0x0 DUP1 REVERT JUMPDEST POP GAS STATICCALL ISZERO DUP1 ISZERO PUSH2 0x99C JUMPI RETURNDATASIZE PUSH1 0x0 DUP1 RETURNDATACOPY RETURNDATASIZE PUSH1 0x0 REVERT JUMPDEST POP POP POP POP PUSH1 0x40 MLOAD RETURNDATASIZE PUSH1 0x1F NOT PUSH1 0x1F DUP3 ADD AND DUP3 ADD DUP1 PUSH1 0x40 MSTORE POP DUP2 ADD SWAP1 PUSH2 0x9C0 SWAP2 SWAP1 PUSH2 0x14A5 JUMP JUMPDEST SWAP1 POP PUSH1 0x0 PUSH2 0x9E5 PUSH1 0x71 SLOAD PUSH2 0x9DF PUSH1 0x6E SLOAD DUP6 PUSH2 0xDCD SWAP1 SWAP2 SWAP1 PUSH4 0xFFFFFFFF AND JUMP JUMPDEST SWAP1 PUSH2 0xDE0 JUMP JUMPDEST SWAP1 POP PUSH1 0x0 PUSH2 0xA04 PUSH1 0x71 SLOAD PUSH2 0x9DF PUSH1 0x6F SLOAD DUP7 PUSH2 0xDCD SWAP1 SWAP2 SWAP1 PUSH4 0xFFFFFFFF AND JUMP JUMPDEST SWAP1 POP PUSH1 0x0 PUSH2 0xA1C DUP3 PUSH2 0xA16 DUP7 DUP7 PUSH2 0xDEC JUMP JUMPDEST SWAP1 PUSH2 0xDEC JUMP JUMPDEST PUSH1 0x69 SLOAD PUSH1 0x66 SLOAD SWAP2 SWAP3 POP PUSH2 0xA3C SWAP2 PUSH1 0x1 PUSH1 0x1 PUSH1 0xA0 SHL SUB SWAP1 DUP2 AND SWAP2 AND DUP6 PUSH2 0xCEE JUMP JUMPDEST PUSH1 0x6A SLOAD PUSH1 0x66 SLOAD PUSH2 0xA59 SWAP2 PUSH1 0x1 PUSH1 0x1 PUSH1 0xA0 SHL SUB SWAP2 DUP3 AND SWAP2 AND DUP5 PUSH2 0xCEE JUMP JUMPDEST PUSH1 0x6B SLOAD PUSH1 0x66 SLOAD PUSH2 0xA76 SWAP2 PUSH1 0x1 PUSH1 0x1 PUSH1 0xA0 SHL SUB SWAP2 DUP3 AND SWAP2 AND DUP4 PUSH2 0xCEE JUMP JUMPDEST PUSH1 0x74 SLOAD PUSH1 0x1 PUSH1 0xA0 SHL SWAP1 DIV PUSH1 0xFF AND ISZERO PUSH2 0xA90 JUMPI PUSH2 0xA90 PUSH2 0xDF8 JUMP JUMPDEST PUSH1 0x74 SLOAD PUSH1 0x1 PUSH1 0xA8 SHL SWAP1 DIV PUSH1 0xFF AND ISZERO PUSH2 0xB2C JUMPI PUSH1 0x75 PUSH1 0x0 SWAP1 SLOAD SWAP1 PUSH2 0x100 EXP SWAP1 DIV PUSH1 0x1 PUSH1 0x1 PUSH1 0xA0 SHL SUB AND PUSH1 0x1 PUSH1 0x1 PUSH1 0xA0 SHL SUB AND PUSH4 0x796C7BE7 PUSH1 0x40 MLOAD DUP2 PUSH4 0xFFFFFFFF AND PUSH1 0xE0 SHL DUP2 MSTORE PUSH1 0x4 ADD PUSH1 0x20 PUSH1 0x40 MLOAD DUP1 DUP4 SUB DUP2 PUSH1 0x0 DUP8 DUP1 EXTCODESIZE ISZERO DUP1 ISZERO PUSH2 0xAF2 JUMPI PUSH1 0x0 DUP1 REVERT JUMPDEST POP GAS CALL ISZERO DUP1 ISZERO PUSH2 0xB06 JUMPI RETURNDATASIZE PUSH1 0x0 DUP1 RETURNDATACOPY RETURNDATASIZE PUSH1 0x0 REVERT JUMPDEST POP POP POP POP PUSH1 0x40 MLOAD RETURNDATASIZE PUSH1 0x1F NOT PUSH1 0x1F DUP3 ADD AND DUP3 ADD DUP1 PUSH1 0x40 MSTORE POP DUP2 ADD SWAP1 PUSH2 0xB2A SWAP2 SWAP1 PUSH2 0x13F0 JUMP JUMPDEST POP JUMPDEST PUSH1 0x1 SWAP5 POP POP POP POP POP SWAP1 JUMP JUMPDEST PUSH1 0x0 PUSH2 0xB41 PUSH2 0xC98 JUMP JUMPDEST PUSH1 0x1 PUSH1 0x1 PUSH1 0xA0 SHL SUB AND PUSH2 0xB52 PUSH2 0x67A JUMP JUMPDEST PUSH1 0x1 PUSH1 0x1 PUSH1 0xA0 SHL SUB AND EQ PUSH2 0xB78 JUMPI PUSH1 0x40 MLOAD PUSH3 0x461BCD PUSH1 0xE5 SHL DUP2 MSTORE PUSH1 0x4 ADD PUSH2 0x423 SWAP1 PUSH2 0x167C JUMP JUMPDEST POP PUSH1 0x6B DUP1 SLOAD PUSH1 0x1 PUSH1 0x1 PUSH1 0xA0 SHL SUB DUP4 AND PUSH1 0x1 PUSH1 0x1 PUSH1 0xA0 SHL SUB NOT SWAP1 SWAP2 AND OR SWAP1 SSTORE PUSH1 0x1 SWAP2 SWAP1 POP JUMP JUMPDEST PUSH1 0x0 PUSH2 0xBA7 PUSH2 0xC98 JUMP JUMPDEST PUSH1 0x1 PUSH1 0x1 PUSH1 0xA0 SHL SUB AND PUSH2 0xBB8 PUSH2 0x67A JUMP JUMPDEST PUSH1 0x1 PUSH1 0x1 PUSH1 0xA0 SHL SUB AND EQ PUSH2 0xBDE JUMPI PUSH1 0x40 MLOAD PUSH3 0x461BCD PUSH1 0xE5 SHL DUP2 MSTORE PUSH1 0x4 ADD PUSH2 0x423 SWAP1 PUSH2 0x167C JUMP JUMPDEST POP PUSH1 0x75 DUP1 SLOAD PUSH1 0x1 PUSH1 0x1 PUSH1 0xA0 SHL SUB DUP4 AND PUSH1 0x1 PUSH1 0x1 PUSH1 0xA0 SHL SUB NOT SWAP1 SWAP2 AND OR SWAP1 SSTORE PUSH1 0x1 SWAP2 SWAP1 POP JUMP JUMPDEST PUSH1 0x6A SLOAD PUSH1 0x1 PUSH1 0x1 PUSH1 0xA0 SHL SUB AND DUP2 JUMP JUMPDEST PUSH1 0x73 SLOAD DUP2 JUMP JUMPDEST PUSH2 0xC20 PUSH2 0xC98 JUMP JUMPDEST PUSH1 0x1 PUSH1 0x1 PUSH1 0xA0 SHL SUB AND PUSH2 0xC31 PUSH2 0x67A JUMP JUMPDEST PUSH1 0x1 PUSH1 0x1 PUSH1 0xA0 SHL SUB AND EQ PUSH2 0xC57 JUMPI PUSH1 0x40 MLOAD PUSH3 0x461BCD PUSH1 0xE5 SHL DUP2 MSTORE PUSH1 0x4 ADD PUSH2 0x423 SWAP1 PUSH2 0x167C JUMP JUMPDEST PUSH1 0x1 PUSH1 0x1 PUSH1 0xA0 SHL SUB DUP2 AND PUSH2 0xC7D JUMPI PUSH1 0x40 MLOAD PUSH3 0x461BCD PUSH1 0xE5 SHL DUP2 MSTORE PUSH1 0x4 ADD PUSH2 0x423 SWAP1 PUSH2 0x155E JUMP JUMPDEST PUSH2 0xC86 DUP2 PUSH2 0xC9C JUMP JUMPDEST POP JUMP JUMPDEST PUSH1 0x6C SLOAD PUSH1 0x1 PUSH1 0x1 PUSH1 0xA0 SHL SUB AND DUP2 JUMP JUMPDEST CALLER SWAP1 JUMP JUMPDEST PUSH1 0x33 DUP1 SLOAD PUSH1 0x1 PUSH1 0x1 PUSH1 0xA0 SHL SUB DUP4 DUP2 AND PUSH1 0x1 PUSH1 0x1 PUSH1 0xA0 SHL SUB NOT DUP4 AND DUP2 OR SWAP1 SWAP4 SSTORE PUSH1 0x40 MLOAD SWAP2 AND SWAP2 SWAP1 DUP3 SWAP1 PUSH32 0x8BE0079C531659141344CD1FD0A4F28419497F9722A3DAAFE3B4186F6B6457E0 SWAP1 PUSH1 0x0 SWAP1 LOG3 POP POP JUMP JUMPDEST PUSH2 0xD44 DUP4 PUSH4 0xA9059CBB PUSH1 0xE0 SHL DUP5 DUP5 PUSH1 0x40 MLOAD PUSH1 0x24 ADD PUSH2 0xD0D SWAP3 SWAP2 SWAP1 PUSH2 0x1507 JUMP JUMPDEST PUSH1 0x40 DUP1 MLOAD PUSH1 0x1F NOT DUP2 DUP5 SUB ADD DUP2 MSTORE SWAP2 SWAP1 MSTORE PUSH1 0x20 DUP2 ADD DUP1 MLOAD PUSH1 0x1 PUSH1 0x1 PUSH1 0xE0 SHL SUB AND PUSH1 0x1 PUSH1 0x1 PUSH1 0xE0 SHL SUB NOT SWAP1 SWAP4 AND SWAP3 SWAP1 SWAP3 OR SWAP1 SWAP2 MSTORE PUSH2 0x10A5 JUMP JUMPDEST POP POP POP JUMP JUMPDEST PUSH1 0x0 SLOAD PUSH2 0x100 SWAP1 DIV PUSH1 0xFF AND DUP1 PUSH2 0xD62 JUMPI POP PUSH1 0x0 SLOAD PUSH1 0xFF AND ISZERO JUMPDEST PUSH2 0xD7E JUMPI PUSH1 0x40 MLOAD PUSH3 0x461BCD PUSH1 0xE5 SHL DUP2 MSTORE PUSH1 0x4 ADD PUSH2 0x423 SWAP1 PUSH2 0x162E JUMP JUMPDEST PUSH1 0x0 SLOAD PUSH2 0x100 SWAP1 DIV PUSH1 0xFF AND ISZERO DUP1 ISZERO PUSH2 0xDA9 JUMPI PUSH1 0x0 DUP1 SLOAD PUSH1 0xFF NOT PUSH2 0xFF00 NOT SWAP1 SWAP2 AND PUSH2 0x100 OR AND PUSH1 0x1 OR SWAP1 SSTORE JUMPDEST PUSH2 0xDB1 PUSH2 0x1134 JUMP JUMPDEST PUSH2 0xDB9 PUSH2 0x11A7 JUMP JUMPDEST DUP1 ISZERO PUSH2 0xC86 JUMPI PUSH1 0x0 DUP1 SLOAD PUSH2 0xFF00 NOT AND SWAP1 SSTORE POP JUMP JUMPDEST PUSH1 0x0 PUSH2 0xDD9 DUP3 DUP5 PUSH2 0x178B JUMP JUMPDEST SWAP4 SWAP3 POP POP POP JUMP JUMPDEST PUSH1 0x0 PUSH2 0xDD9 DUP3 DUP5 PUSH2 0x176B JUMP JUMPDEST PUSH1 0x0 PUSH2 0xDD9 DUP3 DUP5 PUSH2 0x17AA JUMP JUMPDEST PUSH1 0x6D SLOAD PUSH1 0x67 SLOAD PUSH1 0x66 SLOAD PUSH1 0x40 MLOAD PUSH4 0xE6A43905 PUSH1 0xE0 SHL DUP2 MSTORE PUSH1 0x0 SWAP4 PUSH1 0x1 PUSH1 0x1 PUSH1 0xA0 SHL SUB SWAP1 DUP2 AND SWAP4 PUSH4 0xE6A43905 SWAP4 PUSH2 0xE35 SWAP4 SWAP2 DUP4 AND SWAP3 AND SWAP1 PUSH1 0x4 ADD PUSH2 0x14ED JUMP JUMPDEST PUSH1 0x20 PUSH1 0x40 MLOAD DUP1 DUP4 SUB DUP2 DUP7 DUP1 EXTCODESIZE ISZERO DUP1 ISZERO PUSH2 0xE4D JUMPI PUSH1 0x0 DUP1 REVERT JUMPDEST POP GAS STATICCALL ISZERO DUP1 ISZERO PUSH2 0xE61 JUMPI RETURNDATASIZE PUSH1 0x0 DUP1 RETURNDATACOPY RETURNDATASIZE PUSH1 0x0 REVERT JUMPDEST POP POP POP POP PUSH1 0x40 MLOAD RETURNDATASIZE PUSH1 0x1F NOT PUSH1 0x1F DUP3 ADD AND DUP3 ADD DUP1 PUSH1 0x40 MSTORE POP DUP2 ADD SWAP1 PUSH2 0xE85 SWAP2 SWAP1 PUSH2 0x1355 JUMP JUMPDEST PUSH1 0x66 SLOAD PUSH1 0x40 MLOAD PUSH4 0x70A08231 PUSH1 0xE0 SHL DUP2 MSTORE SWAP2 SWAP3 POP PUSH1 0x0 SWAP2 PUSH1 0x1 PUSH1 0x1 PUSH1 0xA0 SHL SUB SWAP1 SWAP2 AND SWAP1 PUSH4 0x70A08231 SWAP1 PUSH2 0xEBB SWAP1 DUP6 SWAP1 PUSH1 0x4 ADD PUSH2 0x14D9 JUMP JUMPDEST PUSH1 0x20 PUSH1 0x40 MLOAD DUP1 DUP4 SUB DUP2 DUP7 DUP1 EXTCODESIZE ISZERO DUP1 ISZERO PUSH2 0xED3 JUMPI PUSH1 0x0 DUP1 REVERT JUMPDEST POP GAS STATICCALL ISZERO DUP1 ISZERO PUSH2 0xEE7 JUMPI RETURNDATASIZE PUSH1 0x0 DUP1 RETURNDATACOPY RETURNDATASIZE PUSH1 0x0 REVERT JUMPDEST POP POP POP POP PUSH1 0x40 MLOAD RETURNDATASIZE PUSH1 0x1F NOT PUSH1 0x1F DUP3 ADD AND DUP3 ADD DUP1 PUSH1 0x40 MSTORE POP DUP2 ADD SWAP1 PUSH2 0xF0B SWAP2 SWAP1 PUSH2 0x14A5 JUMP JUMPDEST PUSH1 0x67 SLOAD PUSH1 0x40 MLOAD PUSH4 0x70A08231 PUSH1 0xE0 SHL DUP2 MSTORE SWAP2 SWAP3 POP PUSH1 0x0 SWAP2 PUSH1 0x1 PUSH1 0x1 PUSH1 0xA0 SHL SUB SWAP1 SWAP2 AND SWAP1 PUSH4 0x70A08231 SWAP1 PUSH2 0xF41 SWAP1 DUP7 SWAP1 PUSH1 0x4 ADD PUSH2 0x14D9 JUMP JUMPDEST PUSH1 0x20 PUSH1 0x40 MLOAD DUP1 DUP4 SUB DUP2 DUP7 DUP1 EXTCODESIZE ISZERO DUP1 ISZERO PUSH2 0xF59 JUMPI PUSH1 0x0 DUP1 REVERT JUMPDEST POP GAS STATICCALL ISZERO DUP1 ISZERO PUSH2 0xF6D JUMPI RETURNDATASIZE PUSH1 0x0 DUP1 RETURNDATACOPY RETURNDATASIZE PUSH1 0x0 REVERT JUMPDEST POP POP POP POP PUSH1 0x40 MLOAD RETURNDATASIZE PUSH1 0x1F NOT PUSH1 0x1F DUP3 ADD AND DUP3 ADD DUP1 PUSH1 0x40 MSTORE POP DUP2 ADD SWAP1 PUSH2 0xF91 SWAP2 SWAP1 PUSH2 0x14A5 JUMP JUMPDEST SWAP1 POP PUSH1 0x0 PUSH2 0xFAB DUP4 PUSH2 0x9DF DUP5 PUSH8 0xDE0B6B3A7640000 PUSH2 0xDCD JUMP JUMPDEST SWAP1 POP PUSH1 0x0 DUP1 PUSH8 0xDE0B6B3A7640000 DUP4 GT ISZERO PUSH2 0x1006 JUMPI PUSH2 0xFDC PUSH6 0x5AF3107A4000 PUSH2 0x9DF DUP6 PUSH8 0xDE0B6B3A7640000 PUSH2 0xDEC JUMP JUMPDEST SWAP1 POP PUSH1 0x72 SLOAD DUP2 GT ISZERO PUSH2 0xFF1 JUMPI PUSH1 0x0 SWAP2 POP PUSH2 0x1001 JUMP JUMPDEST PUSH1 0x72 SLOAD PUSH2 0xFFE SWAP1 DUP3 PUSH2 0xDEC JUMP JUMPDEST SWAP2 POP JUMPDEST PUSH2 0x1035 JUMP JUMPDEST PUSH2 0x1022 PUSH6 0x5AF3107A4000 PUSH2 0x9DF DUP6 PUSH8 0xDE0B6B3A7640000 PUSH2 0x17AA JUMP JUMPDEST PUSH1 0x72 SLOAD SWAP1 SWAP2 POP PUSH2 0x1032 SWAP1 DUP3 PUSH2 0x1217 JUMP JUMPDEST SWAP2 POP JUMPDEST PUSH1 0x74 SLOAD PUSH1 0x73 SLOAD PUSH1 0x40 MLOAD PUSH4 0x236535F5 PUSH1 0xE1 SHL DUP2 MSTORE PUSH1 0x1 PUSH1 0x1 PUSH1 0xA0 SHL SUB SWAP1 SWAP3 AND SWAP2 PUSH4 0x46CA6BEA SWAP2 PUSH2 0x106B SWAP2 DUP7 SWAP1 PUSH1 0x1 SWAP1 PUSH1 0x4 ADD PUSH2 0x173B JUMP JUMPDEST PUSH1 0x0 PUSH1 0x40 MLOAD DUP1 DUP4 SUB DUP2 PUSH1 0x0 DUP8 DUP1 EXTCODESIZE ISZERO DUP1 ISZERO PUSH2 0x1085 JUMPI PUSH1 0x0 DUP1 REVERT JUMPDEST POP GAS CALL ISZERO DUP1 ISZERO PUSH2 0x1099 JUMPI RETURNDATASIZE PUSH1 0x0 DUP1 RETURNDATACOPY RETURNDATASIZE PUSH1 0x0 REVERT JUMPDEST POP POP POP POP POP POP POP POP POP POP JUMP JUMPDEST PUSH1 0x0 PUSH2 0x10FA DUP3 PUSH1 0x40 MLOAD DUP1 PUSH1 0x40 ADD PUSH1 0x40 MSTORE DUP1 PUSH1 0x20 DUP2 MSTORE PUSH1 0x20 ADD PUSH32 0x5361666545524332303A206C6F772D6C6576656C2063616C6C206661696C6564 DUP2 MSTORE POP DUP6 PUSH1 0x1 PUSH1 0x1 PUSH1 0xA0 SHL SUB AND PUSH2 0x1223 SWAP1 SWAP3 SWAP2 SWAP1 PUSH4 0xFFFFFFFF AND JUMP JUMPDEST DUP1 MLOAD SWAP1 SWAP2 POP ISZERO PUSH2 0xD44 JUMPI DUP1 DUP1 PUSH1 0x20 ADD SWAP1 MLOAD DUP2 ADD SWAP1 PUSH2 0x1118 SWAP2 SWAP1 PUSH2 0x13F0 JUMP JUMPDEST PUSH2 0xD44 JUMPI PUSH1 0x40 MLOAD PUSH3 0x461BCD PUSH1 0xE5 SHL DUP2 MSTORE PUSH1 0x4 ADD PUSH2 0x423 SWAP1 PUSH2 0x16E8 JUMP JUMPDEST PUSH1 0x0 SLOAD PUSH2 0x100 SWAP1 DIV PUSH1 0xFF AND DUP1 PUSH2 0x114D JUMPI POP PUSH1 0x0 SLOAD PUSH1 0xFF AND ISZERO JUMPDEST PUSH2 0x1169 JUMPI PUSH1 0x40 MLOAD PUSH3 0x461BCD PUSH1 0xE5 SHL DUP2 MSTORE PUSH1 0x4 ADD PUSH2 0x423 SWAP1 PUSH2 0x162E JUMP JUMPDEST PUSH1 0x0 SLOAD PUSH2 0x100 SWAP1 DIV PUSH1 0xFF AND ISZERO DUP1 ISZERO PUSH2 0xDB9 JUMPI PUSH1 0x0 DUP1 SLOAD PUSH1 0xFF NOT PUSH2 0xFF00 NOT SWAP1 SWAP2 AND PUSH2 0x100 OR AND PUSH1 0x1 OR SWAP1 SSTORE DUP1 ISZERO PUSH2 0xC86 JUMPI PUSH1 0x0 DUP1 SLOAD PUSH2 0xFF00 NOT AND SWAP1 SSTORE POP JUMP JUMPDEST PUSH1 0x0 SLOAD PUSH2 0x100 SWAP1 DIV PUSH1 0xFF AND DUP1 PUSH2 0x11C0 JUMPI POP PUSH1 0x0 SLOAD PUSH1 0xFF AND ISZERO JUMPDEST PUSH2 0x11DC JUMPI PUSH1 0x40 MLOAD PUSH3 0x461BCD PUSH1 0xE5 SHL DUP2 MSTORE PUSH1 0x4 ADD PUSH2 0x423 SWAP1 PUSH2 0x162E JUMP JUMPDEST PUSH1 0x0 SLOAD PUSH2 0x100 SWAP1 DIV PUSH1 0xFF AND ISZERO DUP1 ISZERO PUSH2 0x1207 JUMPI PUSH1 0x0 DUP1 SLOAD PUSH1 0xFF NOT PUSH2 0xFF00 NOT SWAP1 SWAP2 AND PUSH2 0x100 OR AND PUSH1 0x1 OR SWAP1 SSTORE JUMPDEST PUSH2 0xDB9 PUSH2 0x1212 PUSH2 0xC98 JUMP JUMPDEST PUSH2 0xC9C JUMP JUMPDEST PUSH1 0x0 PUSH2 0xDD9 DUP3 DUP5 PUSH2 0x1753 JUMP JUMPDEST PUSH1 0x60 PUSH2 0x1232 DUP5 DUP5 PUSH1 0x0 DUP6 PUSH2 0x123A JUMP JUMPDEST SWAP5 SWAP4 POP POP POP POP JUMP JUMPDEST PUSH1 0x60 DUP3 SELFBALANCE LT ISZERO PUSH2 0x125C JUMPI PUSH1 0x40 MLOAD PUSH3 0x461BCD PUSH1 0xE5 SHL DUP2 MSTORE PUSH1 0x4 ADD PUSH2 0x423 SWAP1 PUSH2 0x15E8 JUMP JUMPDEST PUSH2 0x1265 DUP6 PUSH2 0x12FA JUMP JUMPDEST PUSH2 0x1281 JUMPI PUSH1 0x40 MLOAD PUSH3 0x461BCD PUSH1 0xE5 SHL DUP2 MSTORE PUSH1 0x4 ADD PUSH2 0x423 SWAP1 PUSH2 0x16B1 JUMP JUMPDEST PUSH1 0x0 DUP1 DUP7 PUSH1 0x1 PUSH1 0x1 PUSH1 0xA0 SHL SUB AND DUP6 DUP8 PUSH1 0x40 MLOAD PUSH2 0x129D SWAP2 SWAP1 PUSH2 0x14BD JUMP JUMPDEST PUSH1 0x0 PUSH1 0x40 MLOAD DUP1 DUP4 SUB DUP2 DUP6 DUP8 GAS CALL SWAP3 POP POP POP RETURNDATASIZE DUP1 PUSH1 0x0 DUP2 EQ PUSH2 0x12DA JUMPI PUSH1 0x40 MLOAD SWAP2 POP PUSH1 0x1F NOT PUSH1 0x3F RETURNDATASIZE ADD AND DUP3 ADD PUSH1 0x40 MSTORE RETURNDATASIZE DUP3 MSTORE RETURNDATASIZE PUSH1 0x0 PUSH1 0x20 DUP5 ADD RETURNDATACOPY PUSH2 0x12DF JUMP JUMPDEST PUSH1 0x60 SWAP2 POP JUMPDEST POP SWAP2 POP SWAP2 POP PUSH2 0x12EF DUP3 DUP3 DUP7 PUSH2 0x1300 JUMP JUMPDEST SWAP8 SWAP7 POP POP POP POP POP POP POP JUMP JUMPDEST EXTCODESIZE ISZERO ISZERO SWAP1 JUMP JUMPDEST PUSH1 0x60 DUP4 ISZERO PUSH2 0x130F JUMPI POP DUP2 PUSH2 0xDD9 JUMP JUMPDEST DUP3 MLOAD ISZERO PUSH2 0x131F JUMPI DUP3 MLOAD DUP1 DUP5 PUSH1 0x20 ADD REVERT JUMPDEST DUP2 PUSH1 0x40 MLOAD PUSH3 0x461BCD PUSH1 0xE5 SHL DUP2 MSTORE PUSH1 0x4 ADD PUSH2 0x423 SWAP2 SWAP1 PUSH2 0x152B JUMP JUMPDEST PUSH1 0x0 PUSH1 0x20 DUP3 DUP5 SUB SLT ISZERO PUSH2 0x134A JUMPI DUP1 DUP2 REVERT JUMPDEST DUP2 CALLDATALOAD PUSH2 0xDD9 DUP2 PUSH2 0x1807 JUMP JUMPDEST PUSH1 0x0 PUSH1 0x20 DUP3 DUP5 SUB SLT ISZERO PUSH2 0x1366 JUMPI DUP1 DUP2 REVERT JUMPDEST DUP2 MLOAD PUSH2 0xDD9 DUP2 PUSH2 0x1807 JUMP JUMPDEST PUSH1 0x0 DUP1 PUSH1 0x40 DUP4 DUP6 SUB SLT ISZERO PUSH2 0x1383 JUMPI DUP1 DUP2 REVERT JUMPDEST DUP3 CALLDATALOAD PUSH2 0x138E DUP2 PUSH2 0x1807 JUMP JUMPDEST SWAP2 POP PUSH1 0x20 DUP4 ADD CALLDATALOAD PUSH2 0x139E DUP2 PUSH2 0x181C JUMP JUMPDEST DUP1 SWAP2 POP POP SWAP3 POP SWAP3 SWAP1 POP JUMP JUMPDEST PUSH1 0x0 DUP1 PUSH1 0x40 DUP4 DUP6 SUB SLT ISZERO PUSH2 0x13BB JUMPI DUP2 DUP3 REVERT JUMPDEST DUP3 CALLDATALOAD PUSH2 0x13C6 DUP2 PUSH2 0x1807 JUMP JUMPDEST SWAP5 PUSH1 0x20 SWAP4 SWAP1 SWAP4 ADD CALLDATALOAD SWAP4 POP POP POP JUMP JUMPDEST PUSH1 0x0 PUSH1 0x20 DUP3 DUP5 SUB SLT ISZERO PUSH2 0x13E5 JUMPI DUP1 DUP2 REVERT JUMPDEST DUP2 CALLDATALOAD PUSH2 0xDD9 DUP2 PUSH2 0x181C JUMP JUMPDEST PUSH1 0x0 PUSH1 0x20 DUP3 DUP5 SUB SLT ISZERO PUSH2 0x1401 JUMPI DUP1 DUP2 REVERT JUMPDEST DUP2 MLOAD PUSH2 0xDD9 DUP2 PUSH2 0x181C JUMP JUMPDEST PUSH1 0x0 DUP1 PUSH1 0x0 DUP1 PUSH1 0x0 DUP1 PUSH1 0xC0 DUP8 DUP10 SUB SLT ISZERO PUSH2 0x1424 JUMPI DUP2 DUP3 REVERT JUMPDEST DUP7 CALLDATALOAD PUSH2 0x142F DUP2 PUSH2 0x1807 JUMP JUMPDEST SWAP6 POP PUSH1 0x20 DUP8 ADD CALLDATALOAD PUSH2 0x143F DUP2 PUSH2 0x1807 JUMP JUMPDEST SWAP5 POP PUSH1 0x40 DUP8 ADD CALLDATALOAD PUSH2 0x144F DUP2 PUSH2 0x1807 JUMP JUMPDEST SWAP4 POP PUSH1 0x60 DUP8 ADD CALLDATALOAD PUSH2 0x145F DUP2 PUSH2 0x1807 JUMP JUMPDEST SWAP3 POP PUSH1 0x80 DUP8 ADD CALLDATALOAD PUSH2 0x146F DUP2 PUSH2 0x1807 JUMP JUMPDEST SWAP2 POP PUSH1 0xA0 DUP8 ADD CALLDATALOAD PUSH2 0x147F DUP2 PUSH2 0x1807 JUMP JUMPDEST DUP1 SWAP2 POP POP SWAP3 SWAP6 POP SWAP3 SWAP6 POP SWAP3 SWAP6 JUMP JUMPDEST PUSH1 0x0 PUSH1 0x20 DUP3 DUP5 SUB SLT ISZERO PUSH2 0x149E JUMPI DUP1 DUP2 REVERT JUMPDEST POP CALLDATALOAD SWAP2 SWAP1 POP JUMP JUMPDEST PUSH1 0x0 PUSH1 0x20 DUP3 DUP5 SUB SLT ISZERO PUSH2 0x14B6 JUMPI DUP1 DUP2 REVERT JUMPDEST POP MLOAD SWAP2 SWAP1 POP JUMP JUMPDEST PUSH1 0x0 DUP3 MLOAD PUSH2 0x14CF DUP2 DUP5 PUSH1 0x20 DUP8 ADD PUSH2 0x17C1 JUMP JUMPDEST SWAP2 SWAP1 SWAP2 ADD SWAP3 SWAP2 POP POP JUMP JUMPDEST PUSH1 0x1 PUSH1 0x1 PUSH1 0xA0 SHL SUB SWAP2 SWAP1 SWAP2 AND DUP2 MSTORE PUSH1 0x20 ADD SWAP1 JUMP JUMPDEST PUSH1 0x1 PUSH1 0x1 PUSH1 0xA0 SHL SUB SWAP3 DUP4 AND DUP2 MSTORE SWAP2 AND PUSH1 0x20 DUP3 ADD MSTORE PUSH1 0x40 ADD SWAP1 JUMP JUMPDEST PUSH1 0x1 PUSH1 0x1 PUSH1 0xA0 SHL SUB SWAP3 SWAP1 SWAP3 AND DUP3 MSTORE PUSH1 0x20 DUP3 ADD MSTORE PUSH1 0x40 ADD SWAP1 JUMP JUMPDEST SWAP1 ISZERO ISZERO DUP2 MSTORE PUSH1 0x20 ADD SWAP1 JUMP JUMPDEST PUSH1 0x0 PUSH1 0x20 DUP3 MSTORE DUP3 MLOAD DUP1 PUSH1 0x20 DUP5 ADD MSTORE PUSH2 0x154A DUP2 PUSH1 0x40 DUP6 ADD PUSH1 0x20 DUP8 ADD PUSH2 0x17C1 JUMP JUMPDEST PUSH1 0x1F ADD PUSH1 0x1F NOT AND SWAP2 SWAP1 SWAP2 ADD PUSH1 0x40 ADD SWAP3 SWAP2 POP POP JUMP JUMPDEST PUSH1 0x20 DUP1 DUP3 MSTORE PUSH1 0x26 SWAP1 DUP3 ADD MSTORE PUSH32 0x4F776E61626C653A206E6577206F776E657220697320746865207A65726F2061 PUSH1 0x40 DUP3 ADD MSTORE PUSH6 0x646472657373 PUSH1 0xD0 SHL PUSH1 0x60 DUP3 ADD MSTORE PUSH1 0x80 ADD SWAP1 JUMP JUMPDEST PUSH1 0x20 DUP1 DUP3 MSTORE PUSH1 0x24 SWAP1 DUP3 ADD MSTORE PUSH32 0x6578656375746F723A2063616C6C6572206973206E6F74207468652065786563 PUSH1 0x40 DUP3 ADD MSTORE PUSH4 0x3ABA37B9 PUSH1 0xE1 SHL PUSH1 0x60 DUP3 ADD MSTORE PUSH1 0x80 ADD SWAP1 JUMP JUMPDEST PUSH1 0x20 DUP1 DUP3 MSTORE PUSH1 0x26 SWAP1 DUP3 ADD MSTORE PUSH32 0x416464726573733A20696E73756666696369656E742062616C616E636520666F PUSH1 0x40 DUP3 ADD MSTORE PUSH6 0x1C8818D85B1B PUSH1 0xD2 SHL PUSH1 0x60 DUP3 ADD MSTORE PUSH1 0x80 ADD SWAP1 JUMP JUMPDEST PUSH1 0x20 DUP1 DUP3 MSTORE PUSH1 0x2E SWAP1 DUP3 ADD MSTORE PUSH32 0x496E697469616C697A61626C653A20636F6E747261637420697320616C726561 PUSH1 0x40 DUP3 ADD MSTORE PUSH14 0x191E481A5B9A5D1A585B1A5E9959 PUSH1 0x92 SHL PUSH1 0x60 DUP3 ADD MSTORE PUSH1 0x80 ADD SWAP1 JUMP JUMPDEST PUSH1 0x20 DUP1 DUP3 MSTORE DUP2 DUP2 ADD MSTORE PUSH32 0x4F776E61626C653A2063616C6C6572206973206E6F7420746865206F776E6572 PUSH1 0x40 DUP3 ADD MSTORE PUSH1 0x60 ADD SWAP1 JUMP JUMPDEST PUSH1 0x20 DUP1 DUP3 MSTORE PUSH1 0x1D SWAP1 DUP3 ADD MSTORE PUSH32 0x416464726573733A2063616C6C20746F206E6F6E2D636F6E7472616374000000 PUSH1 0x40 DUP3 ADD MSTORE PUSH1 0x60 ADD SWAP1 JUMP JUMPDEST PUSH1 0x20 DUP1 DUP3 MSTORE PUSH1 0x2A SWAP1 DUP3 ADD MSTORE PUSH32 0x5361666545524332303A204552433230206F7065726174696F6E20646964206E PUSH1 0x40 DUP3 ADD MSTORE PUSH10 0x1BDD081CDD58D8D95959 PUSH1 0xB2 SHL PUSH1 0x60 DUP3 ADD MSTORE PUSH1 0x80 ADD SWAP1 JUMP JUMPDEST SWAP1 DUP2 MSTORE PUSH1 0x20 ADD SWAP1 JUMP JUMPDEST SWAP3 DUP4 MSTORE PUSH1 0x20 DUP4 ADD SWAP2 SWAP1 SWAP2 MSTORE ISZERO ISZERO PUSH1 0x40 DUP3 ADD MSTORE PUSH1 0x60 ADD SWAP1 JUMP JUMPDEST PUSH1 0x0 DUP3 NOT DUP3 GT ISZERO PUSH2 0x1766 JUMPI PUSH2 0x1766 PUSH2 0x17F1 JUMP JUMPDEST POP ADD SWAP1 JUMP JUMPDEST PUSH1 0x0 DUP3 PUSH2 0x1786 JUMPI PUSH4 0x4E487B71 PUSH1 0xE0 SHL DUP2 MSTORE PUSH1 0x12 PUSH1 0x4 MSTORE PUSH1 0x24 DUP2 REVERT JUMPDEST POP DIV SWAP1 JUMP JUMPDEST PUSH1 0x0 DUP2 PUSH1 0x0 NOT DIV DUP4 GT DUP3 ISZERO ISZERO AND ISZERO PUSH2 0x17A5 JUMPI PUSH2 0x17A5 PUSH2 0x17F1 JUMP JUMPDEST POP MUL SWAP1 JUMP JUMPDEST PUSH1 0x0 DUP3 DUP3 LT ISZERO PUSH2 0x17BC JUMPI PUSH2 0x17BC PUSH2 0x17F1 JUMP JUMPDEST POP SUB SWAP1 JUMP JUMPDEST PUSH1 0x0 JUMPDEST DUP4 DUP2 LT ISZERO PUSH2 0x17DC JUMPI DUP2 DUP2 ADD MLOAD DUP4 DUP3 ADD MSTORE PUSH1 0x20 ADD PUSH2 0x17C4 JUMP JUMPDEST DUP4 DUP2 GT ISZERO PUSH2 0x17EB JUMPI PUSH1 0x0 DUP5 DUP5 ADD MSTORE JUMPDEST POP POP POP POP JUMP JUMPDEST PUSH4 0x4E487B71 PUSH1 0xE0 SHL PUSH1 0x0 MSTORE PUSH1 0x11 PUSH1 0x4 MSTORE PUSH1 0x24 PUSH1 0x0 REVERT JUMPDEST PUSH1 0x1 PUSH1 0x1 PUSH1 0xA0 SHL SUB DUP2 AND DUP2 EQ PUSH2 0xC86 JUMPI PUSH1 0x0 DUP1 REVERT JUMPDEST DUP1 ISZERO ISZERO DUP2 EQ PUSH2 0xC86 JUMPI PUSH1 0x0 DUP1 REVERT INVALID LOG2 PUSH5 0x6970667358 0x22 SLT KECCAK256 SWAP9 0xD 0xDE EXTCODECOPY PUSH13 0xFAB161846C59C098F4CF13D00B DUP3 DUP10 0xE5 0xC1 DUP13 PUSH5 0x3B9009601C PUSH28 0x59C364736F6C63430008000033000000000000000000000000000000 "
				},
				"gasEstimates": {
					"creation": {
						"codeDepositCost": "1248000",
						"executionCost": "1295",
						"totalCost": "1249295"
					},
					"external": {
						"Factory()": "1115",
						"PRECISION()": "1073",
						"Router()": "1202",
						"autoAdjustFarm()": "1147",
						"basePoint()": "1075",
						"dev()": "1116",
						"executor(address)": "1326",
						"farm()": "1138",
						"initialize(address,address,address,address,address,address)": "infinite",
						"jointExecution()": "infinite",
						"op()": "1136",
						"openStabilizer()": "1124",
						"owner()": "1203",
						"pid()": "1116",
						"renounceOwnership()": "23596",
						"sea()": "1182",
						"setAutoAdjustFarm(bool)": "22216",
						"setDev(address)": "22297",
						"setExecutor(address,bool)": "infinite",
						"setOp(address)": "22298",
						"setOpenStabilizer(bool)": "22215",
						"setStabilizer(address)": "22230",
						"setToDevPercent(uint256)": "21339",
						"setToOpPercent(uint256)": "21316",
						"setToSseaPercent(uint256)": "21340",
						"ssea()": "1159",
						"stabilizer()": "1181",
						"toDevPercent()": "1118",
						"toOpPercent()": "1141",
						"toSseaPercent()": "1139",
						"transferOwnership(address)": "infinite",
						"usc()": "1116",
						"usdc()": "1182",
						"withdrawalERC20(address,uint256)": "infinite"
					},
					"internal": {
						"adjustFarm()": "infinite"
					}
				},
				"methodIdentifiers": {
					"Factory()": "c83dd231",
					"PRECISION()": "aaf5eb68",
					"Router()": "f6d7eade",
					"autoAdjustFarm()": "9da5b0d5",
					"basePoint()": "16d03993",
					"dev()": "91cca3db",
					"executor(address)": "48c7e528",
					"farm()": "36e9332d",
					"initialize(address,address,address,address,address,address)": "cc2a9a5b",
					"jointExecution()": "d10c06a2",
					"op()": "ec1f1f69",
					"openStabilizer()": "58de5de8",
					"owner()": "8da5cb5b",
					"pid()": "f1068454",
					"renounceOwnership()": "715018a6",
					"sea()": "4ecaac41",
					"setAutoAdjustFarm(bool)": "4591db50",
					"setDev(address)": "d477f05f",
					"setExecutor(address,bool)": "1e1bff3f",
					"setOp(address)": "a36a7526",
					"setOpenStabilizer(bool)": "55c746d1",
					"setStabilizer(address)": "db7f521a",
					"setToDevPercent(uint256)": "3c850e1e",
					"setToOpPercent(uint256)": "af5518c4",
					"setToSseaPercent(uint256)": "27c42a50",
					"ssea()": "b8bb97a1",
					"stabilizer()": "7e47961c",
					"toDevPercent()": "4ae6a027",
					"toOpPercent()": "2c535a52",
					"toSseaPercent()": "bd0b1f44",
					"transferOwnership(address)": "f2fde38b",
					"usc()": "3011d3d5",
					"usdc()": "3e413bee",
					"withdrawalERC20(address,uint256)": "930ed033"
				}
			},
			"storageLayout": {
				"storage": [
					{
						"astId": 130,
						"contract": "contracts/helperLogic.sol:helperLogic",
						"label": "_initialized",
						"offset": 0,
						"slot": "0",
						"type": "t_bool"
					},
					{
						"astId": 133,
						"contract": "contracts/helperLogic.sol:helperLogic",
						"label": "_initializing",
						"offset": 1,
						"slot": "0",
						"type": "t_bool"
					},
					{
						"astId": 760,
						"contract": "contracts/helperLogic.sol:helperLogic",
						"label": "__gap",
						"offset": 0,
						"slot": "1",
						"type": "t_array(t_uint256)50_storage"
					},
					{
						"astId": 10,
						"contract": "contracts/helperLogic.sol:helperLogic",
						"label": "_owner",
						"offset": 0,
						"slot": "51",
						"type": "t_address"
					},
					{
						"astId": 124,
						"contract": "contracts/helperLogic.sol:helperLogic",
						"label": "__gap",
						"offset": 0,
						"slot": "52",
						"type": "t_array(t_uint256)49_storage"
					},
					{
						"astId": 1825,
						"contract": "contracts/helperLogic.sol:helperLogic",
						"label": "executor",
						"offset": 0,
						"slot": "101",
						"type": "t_mapping(t_address,t_bool)"
					},
					{
						"astId": 1828,
						"contract": "contracts/helperLogic.sol:helperLogic",
						"label": "usc",
						"offset": 0,
						"slot": "102",
						"type": "t_contract(IERC20Upgradeable)248"
					},
					{
						"astId": 1831,
						"contract": "contracts/helperLogic.sol:helperLogic",
						"label": "usdc",
						"offset": 0,
						"slot": "103",
						"type": "t_contract(IERC20Upgradeable)248"
					},
					{
						"astId": 1834,
						"contract": "contracts/helperLogic.sol:helperLogic",
						"label": "sea",
						"offset": 0,
						"slot": "104",
						"type": "t_contract(IERC20Upgradeable)248"
					},
					{
						"astId": 1837,
						"contract": "contracts/helperLogic.sol:helperLogic",
						"label": "ssea",
						"offset": 0,
						"slot": "105",
						"type": "t_contract(IERC20Upgradeable)248"
					},
					{
						"astId": 1839,
						"contract": "contracts/helperLogic.sol:helperLogic",
						"label": "op",
						"offset": 0,
						"slot": "106",
						"type": "t_address"
					},
					{
						"astId": 1841,
						"contract": "contracts/helperLogic.sol:helperLogic",
						"label": "dev",
						"offset": 0,
						"slot": "107",
						"type": "t_address"
					},
					{
						"astId": 1844,
						"contract": "contracts/helperLogic.sol:helperLogic",
						"label": "Router",
						"offset": 0,
						"slot": "108",
						"type": "t_contract(IUniswapV2Router02)1784"
					},
					{
						"astId": 1847,
						"contract": "contracts/helperLogic.sol:helperLogic",
						"label": "Factory",
						"offset": 0,
						"slot": "109",
						"type": "t_contract(IUniswapV2Factory)1146"
					},
					{
						"astId": 1849,
						"contract": "contracts/helperLogic.sol:helperLogic",
						"label": "toSseaPercent",
						"offset": 0,
						"slot": "110",
						"type": "t_uint256"
					},
					{
						"astId": 1851,
						"contract": "contracts/helperLogic.sol:helperLogic",
						"label": "toOpPercent",
						"offset": 0,
						"slot": "111",
						"type": "t_uint256"
					},
					{
						"astId": 1853,
						"contract": "contracts/helperLogic.sol:helperLogic",
						"label": "toDevPercent",
						"offset": 0,
						"slot": "112",
						"type": "t_uint256"
					},
					{
						"astId": 1855,
						"contract": "contracts/helperLogic.sol:helperLogic",
						"label": "PRECISION",
						"offset": 0,
						"slot": "113",
						"type": "t_uint256"
					},
					{
						"astId": 1857,
						"contract": "contracts/helperLogic.sol:helperLogic",
						"label": "basePoint",
						"offset": 0,
						"slot": "114",
						"type": "t_uint256"
					},
					{
						"astId": 1859,
						"contract": "contracts/helperLogic.sol:helperLogic",
						"label": "pid",
						"offset": 0,
						"slot": "115",
						"type": "t_uint256"
					},
					{
						"astId": 1862,
						"contract": "contracts/helperLogic.sol:helperLogic",
						"label": "farm",
						"offset": 0,
						"slot": "116",
						"type": "t_contract(IFarm)1804"
					},
					{
						"astId": 1864,
						"contract": "contracts/helperLogic.sol:helperLogic",
						"label": "autoAdjustFarm",
						"offset": 20,
						"slot": "116",
						"type": "t_bool"
					},
					{
						"astId": 1866,
						"contract": "contracts/helperLogic.sol:helperLogic",
						"label": "openStabilizer",
						"offset": 21,
						"slot": "116",
						"type": "t_bool"
					},
					{
						"astId": 1868,
						"contract": "contracts/helperLogic.sol:helperLogic",
						"label": "stabilizer",
						"offset": 0,
						"slot": "117",
						"type": "t_address"
					}
				],
				"types": {
					"t_address": {
						"encoding": "inplace",
						"label": "address",
						"numberOfBytes": "20"
					},
					"t_array(t_uint256)49_storage": {
						"base": "t_uint256",
						"encoding": "inplace",
						"label": "uint256[49]",
						"numberOfBytes": "1568"
					},
					"t_array(t_uint256)50_storage": {
						"base": "t_uint256",
						"encoding": "inplace",
						"label": "uint256[50]",
						"numberOfBytes": "1600"
					},
					"t_bool": {
						"encoding": "inplace",
						"label": "bool",
						"numberOfBytes": "1"
					},
					"t_contract(IERC20Upgradeable)248": {
						"encoding": "inplace",
						"label": "contract IERC20Upgradeable",
						"numberOfBytes": "20"
					},
					"t_contract(IFarm)1804": {
						"encoding": "inplace",
						"label": "contract IFarm",
						"numberOfBytes": "20"
					},
					"t_contract(IUniswapV2Factory)1146": {
						"encoding": "inplace",
						"label": "contract IUniswapV2Factory",
						"numberOfBytes": "20"
					},
					"t_contract(IUniswapV2Router02)1784": {
						"encoding": "inplace",
						"label": "contract IUniswapV2Router02",
						"numberOfBytes": "20"
					},
					"t_mapping(t_address,t_bool)": {
						"encoding": "mapping",
						"key": "t_address",
						"label": "mapping(address => bool)",
						"numberOfBytes": "32",
						"value": "t_bool"
					},
					"t_uint256": {
						"encoding": "inplace",
						"label": "uint256",
						"numberOfBytes": "32"
					}
				}
			},
			"userdoc": {
				"kind": "user",
				"methods": {},
				"version": 1
			}
		}
	}
}