{
	"contracts/mirrorseaMain.sol": {
		"mirrorseaMain": {
			"abi": [
				{
					"anonymous": false,
					"inputs": [
						{
							"indexed": true,
							"internalType": "address",
							"name": "previousOwner",
							"type": "address"
						},
						{
							"indexed": true,
							"internalType": "address",
							"name": "newOwner",
							"type": "address"
						}
					],
					"name": "OwnershipTransferred",
					"type": "event"
				},
				{
					"inputs": [],
					"name": "OrderIndex",
					"outputs": [
						{
							"internalType": "uint256",
							"name": "",
							"type": "uint256"
						}
					],
					"stateMutability": "view",
					"type": "function"
				},
				{
					"inputs": [],
					"name": "PRECISION",
					"outputs": [
						{
							"internalType": "uint256",
							"name": "",
							"type": "uint256"
						}
					],
					"stateMutability": "view",
					"type": "function"
				},
				{
					"inputs": [
						{
							"internalType": "uint256",
							"name": "_id",
							"type": "uint256"
						},
						{
							"internalType": "uint256",
							"name": "_price18",
							"type": "uint256"
						},
						{
							"internalType": "uint256",
							"name": "_margin",
							"type": "uint256"
						}
					],
					"name": "_isSolvent",
					"outputs": [
						{
							"internalType": "bool",
							"name": "",
							"type": "bool"
						}
					],
					"stateMutability": "view",
					"type": "function"
				},
				{
					"inputs": [
						{
							"internalType": "bool",
							"name": "_marketState",
							"type": "bool"
						},
						{
							"internalType": "uint256",
							"name": "_id",
							"type": "uint256"
						},
						{
							"internalType": "uint256",
							"name": "_timestamp",
							"type": "uint256"
						},
						{
							"internalType": "string",
							"name": "_symbols",
							"type": "string"
						},
						{
							"internalType": "uint256",
							"name": "_price18",
							"type": "uint256"
						},
						{
							"internalType": "bytes",
							"name": "_signature",
							"type": "bytes"
						},
						{
							"internalType": "uint256",
							"name": "_adjustMargin",
							"type": "uint256"
						}
					],
					"name": "adjustPosition",
					"outputs": [
						{
							"internalType": "bool",
							"name": "",
							"type": "bool"
						}
					],
					"stateMutability": "nonpayable",
					"type": "function"
				},
				{
					"inputs": [
						{
							"internalType": "bool",
							"name": "_marketState",
							"type": "bool"
						},
						{
							"internalType": "uint256",
							"name": "_id",
							"type": "uint256"
						},
						{
							"internalType": "uint256",
							"name": "_timestamp",
							"type": "uint256"
						},
						{
							"internalType": "string",
							"name": "_symbols",
							"type": "string"
						},
						{
							"internalType": "uint256",
							"name": "_price18",
							"type": "uint256"
						},
						{
							"internalType": "bytes",
							"name": "_signature",
							"type": "bytes"
						}
					],
					"name": "closePosition",
					"outputs": [
						{
							"internalType": "bool",
							"name": "",
							"type": "bool"
						}
					],
					"stateMutability": "nonpayable",
					"type": "function"
				},
				{
					"inputs": [
						{
							"internalType": "address",
							"name": "",
							"type": "address"
						}
					],
					"name": "executor",
					"outputs": [
						{
							"internalType": "bool",
							"name": "",
							"type": "bool"
						}
					],
					"stateMutability": "view",
					"type": "function"
				},
				{
					"inputs": [],
					"name": "feePercent",
					"outputs": [
						{
							"internalType": "uint256",
							"name": "",
							"type": "uint256"
						}
					],
					"stateMutability": "view",
					"type": "function"
				},
				{
					"inputs": [
						{
							"internalType": "bool",
							"name": "_marketState",
							"type": "bool"
						},
						{
							"internalType": "uint256",
							"name": "_id",
							"type": "uint256"
						},
						{
							"internalType": "uint256",
							"name": "_timestamp",
							"type": "uint256"
						},
						{
							"internalType": "string",
							"name": "_symbols",
							"type": "string"
						},
						{
							"internalType": "uint256",
							"name": "_price18",
							"type": "uint256"
						},
						{
							"internalType": "bytes",
							"name": "_signature",
							"type": "bytes"
						}
					],
					"name": "forcedLiquidation",
					"outputs": [
						{
							"internalType": "bool",
							"name": "",
							"type": "bool"
						}
					],
					"stateMutability": "nonpayable",
					"type": "function"
				},
				{
					"inputs": [],
					"name": "helperLogic",
					"outputs": [
						{
							"internalType": "contract IhelperLogic",
							"name": "",
							"type": "address"
						}
					],
					"stateMutability": "view",
					"type": "function"
				},
				{
					"inputs": [
						{
							"internalType": "address",
							"name": "_signer",
							"type": "address"
						},
						{
							"internalType": "contract IhelperLogic",
							"name": "_helperLogic",
							"type": "address"
						},
						{
							"internalType": "contract IERC20Upgradeable",
							"name": "_usc",
							"type": "address"
						},
						{
							"internalType": "contract IOracle",
							"name": "_oracle",
							"type": "address"
						}
					],
					"name": "initialize",
					"outputs": [],
					"stateMutability": "nonpayable",
					"type": "function"
				},
				{
					"inputs": [
						{
							"internalType": "bool",
							"name": "_marketState",
							"type": "bool"
						},
						{
							"internalType": "uint256[]",
							"name": "_id",
							"type": "uint256[]"
						},
						{
							"internalType": "uint256[]",
							"name": "_timestamp",
							"type": "uint256[]"
						},
						{
							"internalType": "string[]",
							"name": "_symbols",
							"type": "string[]"
						},
						{
							"internalType": "uint256[]",
							"name": "_price18",
							"type": "uint256[]"
						},
						{
							"internalType": "bytes[]",
							"name": "_signature",
							"type": "bytes[]"
						}
					],
					"name": "liquidation",
					"outputs": [
						{
							"internalType": "bool",
							"name": "",
							"type": "bool"
						}
					],
					"stateMutability": "nonpayable",
					"type": "function"
				},
				{
					"inputs": [],
					"name": "minVal",
					"outputs": [
						{
							"internalType": "uint256",
							"name": "",
							"type": "uint256"
						}
					],
					"stateMutability": "view",
					"type": "function"
				},
				{
					"inputs": [
						{
							"internalType": "address",
							"name": "",
							"type": "address"
						},
						{
							"internalType": "uint256",
							"name": "",
							"type": "uint256"
						}
					],
					"name": "myCloseOrderIdList",
					"outputs": [
						{
							"internalType": "uint256",
							"name": "",
							"type": "uint256"
						}
					],
					"stateMutability": "view",
					"type": "function"
				},
				{
					"inputs": [
						{
							"internalType": "address",
							"name": "_user",
							"type": "address"
						}
					],
					"name": "myCloseOrderIdListLength",
					"outputs": [
						{
							"internalType": "uint256",
							"name": "",
							"type": "uint256"
						}
					],
					"stateMutability": "view",
					"type": "function"
				},
				{
					"inputs": [
						{
							"internalType": "address",
							"name": "",
							"type": "address"
						},
						{
							"internalType": "uint256",
							"name": "",
							"type": "uint256"
						}
					],
					"name": "myCloseOrderIdList_index",
					"outputs": [
						{
							"internalType": "uint256",
							"name": "",
							"type": "uint256"
						}
					],
					"stateMutability": "view",
					"type": "function"
				},
				{
					"inputs": [
						{
							"internalType": "address",
							"name": "",
							"type": "address"
						},
						{
							"internalType": "uint256",
							"name": "",
							"type": "uint256"
						}
					],
					"name": "myOpenOrderIdList",
					"outputs": [
						{
							"internalType": "uint256",
							"name": "",
							"type": "uint256"
						}
					],
					"stateMutability": "view",
					"type": "function"
				},
				{
					"inputs": [
						{
							"internalType": "address",
							"name": "_user",
							"type": "address"
						}
					],
					"name": "myOpenOrderIdListLength",
					"outputs": [
						{
							"internalType": "uint256",
							"name": "",
							"type": "uint256"
						}
					],
					"stateMutability": "view",
					"type": "function"
				},
				{
					"inputs": [
						{
							"internalType": "address",
							"name": "",
							"type": "address"
						},
						{
							"internalType": "uint256",
							"name": "",
							"type": "uint256"
						}
					],
					"name": "myOpenOrderIdList_index",
					"outputs": [
						{
							"internalType": "uint256",
							"name": "",
							"type": "uint256"
						}
					],
					"stateMutability": "view",
					"type": "function"
				},
				{
					"inputs": [
						{
							"internalType": "uint256",
							"name": "",
							"type": "uint256"
						}
					],
					"name": "openOrderIdList",
					"outputs": [
						{
							"internalType": "uint256",
							"name": "",
							"type": "uint256"
						}
					],
					"stateMutability": "view",
					"type": "function"
				},
				{
					"inputs": [],
					"name": "openOrderIdListLength",
					"outputs": [
						{
							"internalType": "uint256",
							"name": "",
							"type": "uint256"
						}
					],
					"stateMutability": "view",
					"type": "function"
				},
				{
					"inputs": [
						{
							"internalType": "uint256",
							"name": "",
							"type": "uint256"
						}
					],
					"name": "openOrderIdList_index",
					"outputs": [
						{
							"internalType": "uint256",
							"name": "",
							"type": "uint256"
						}
					],
					"stateMutability": "view",
					"type": "function"
				},
				{
					"inputs": [
						{
							"internalType": "bool",
							"name": "_marketState",
							"type": "bool"
						},
						{
							"internalType": "uint256",
							"name": "_margin",
							"type": "uint256"
						},
						{
							"internalType": "uint256",
							"name": "_timestamp",
							"type": "uint256"
						},
						{
							"internalType": "uint256",
							"name": "_direction",
							"type": "uint256"
						},
						{
							"internalType": "uint256",
							"name": "_type",
							"type": "uint256"
						},
						{
							"internalType": "string",
							"name": "_symbols",
							"type": "string"
						},
						{
							"internalType": "uint256",
							"name": "_price18",
							"type": "uint256"
						},
						{
							"internalType": "uint256",
							"name": "_amt",
							"type": "uint256"
						},
						{
							"internalType": "bytes",
							"name": "_signature",
							"type": "bytes"
						}
					],
					"name": "openPosition",
					"outputs": [
						{
							"internalType": "bool",
							"name": "",
							"type": "bool"
						}
					],
					"stateMutability": "nonpayable",
					"type": "function"
				},
				{
					"inputs": [],
					"name": "oracle",
					"outputs": [
						{
							"internalType": "contract IOracle",
							"name": "",
							"type": "address"
						}
					],
					"stateMutability": "view",
					"type": "function"
				},
				{
					"inputs": [
						{
							"internalType": "uint256",
							"name": "_id",
							"type": "uint256"
						}
					],
					"name": "orderInfo",
					"outputs": [
						{
							"components": [
								{
									"internalType": "address",
									"name": "user",
									"type": "address"
								},
								{
									"internalType": "uint256",
									"name": "_type",
									"type": "uint256"
								},
								{
									"internalType": "string",
									"name": "symbols",
									"type": "string"
								},
								{
									"internalType": "uint256",
									"name": "state",
									"type": "uint256"
								},
								{
									"internalType": "uint256",
									"name": "direction",
									"type": "uint256"
								},
								{
									"internalType": "uint256",
									"name": "openPrice18",
									"type": "uint256"
								},
								{
									"internalType": "uint256",
									"name": "openTime",
									"type": "uint256"
								},
								{
									"internalType": "uint256",
									"name": "closePrice18",
									"type": "uint256"
								},
								{
									"internalType": "uint256",
									"name": "closeTime",
									"type": "uint256"
								},
								{
									"internalType": "uint256",
									"name": "amt",
									"type": "uint256"
								},
								{
									"internalType": "uint256",
									"name": "margin",
									"type": "uint256"
								}
							],
							"internalType": "struct mirrorseaMain.OrderInfo",
							"name": "",
							"type": "tuple"
						}
					],
					"stateMutability": "view",
					"type": "function"
				},
				{
					"inputs": [],
					"name": "owner",
					"outputs": [
						{
							"internalType": "address",
							"name": "",
							"type": "address"
						}
					],
					"stateMutability": "view",
					"type": "function"
				},
				{
					"inputs": [
						{
							"internalType": "address",
							"name": "_user",
							"type": "address"
						},
						{
							"internalType": "uint256",
							"name": "_type",
							"type": "uint256"
						},
						{
							"internalType": "uint256",
							"name": "_row",
							"type": "uint256"
						},
						{
							"internalType": "uint256",
							"name": "_page",
							"type": "uint256"
						}
					],
					"name": "pagination",
					"outputs": [
						{
							"internalType": "uint256[]",
							"name": "",
							"type": "uint256[]"
						}
					],
					"stateMutability": "view",
					"type": "function"
				},
				{
					"inputs": [],
					"name": "renounceOwnership",
					"outputs": [],
					"stateMutability": "nonpayable",
					"type": "function"
				},
				{
					"inputs": [
						{
							"internalType": "address",
							"name": "_address",
							"type": "address"
						},
						{
							"internalType": "bool",
							"name": "_type",
							"type": "bool"
						}
					],
					"name": "setExecutor",
					"outputs": [
						{
							"internalType": "bool",
							"name": "",
							"type": "bool"
						}
					],
					"stateMutability": "nonpayable",
					"type": "function"
				},
				{
					"inputs": [
						{
							"internalType": "uint256",
							"name": "_val",
							"type": "uint256"
						}
					],
					"name": "setFeePercent",
					"outputs": [
						{
							"internalType": "bool",
							"name": "",
							"type": "bool"
						}
					],
					"stateMutability": "nonpayable",
					"type": "function"
				},
				{
					"inputs": [
						{
							"internalType": "uint256",
							"name": "id",
							"type": "uint256"
						},
						{
							"internalType": "address",
							"name": "user",
							"type": "address"
						},
						{
							"internalType": "uint256",
							"name": "_type",
							"type": "uint256"
						},
						{
							"internalType": "string",
							"name": "symbols",
							"type": "string"
						},
						{
							"internalType": "uint256",
							"name": "state",
							"type": "uint256"
						},
						{
							"internalType": "uint256",
							"name": "direction",
							"type": "uint256"
						},
						{
							"internalType": "uint256",
							"name": "openPrice18",
							"type": "uint256"
						},
						{
							"internalType": "uint256",
							"name": "openTime",
							"type": "uint256"
						},
						{
							"internalType": "uint256",
							"name": "closePrice18",
							"type": "uint256"
						},
						{
							"internalType": "uint256",
							"name": "closeTime",
							"type": "uint256"
						},
						{
							"internalType": "uint256",
							"name": "amt",
							"type": "uint256"
						},
						{
							"internalType": "uint256",
							"name": "margin",
							"type": "uint256"
						}
					],
					"name": "setOrderInfo",
					"outputs": [
						{
							"internalType": "bool",
							"name": "",
							"type": "bool"
						}
					],
					"stateMutability": "nonpayable",
					"type": "function"
				},
				{
					"inputs": [
						{
							"internalType": "address",
							"name": "_address",
							"type": "address"
						}
					],
					"name": "setSigner",
					"outputs": [
						{
							"internalType": "bool",
							"name": "",
							"type": "bool"
						}
					],
					"stateMutability": "nonpayable",
					"type": "function"
				},
				{
					"inputs": [
						{
							"internalType": "address",
							"name": "user",
							"type": "address"
						},
						{
							"internalType": "uint256",
							"name": "number",
							"type": "uint256"
						},
						{
							"internalType": "uint256",
							"name": "val",
							"type": "uint256"
						}
					],
					"name": "setmyOpenOrderIdList",
					"outputs": [],
					"stateMutability": "nonpayable",
					"type": "function"
				},
				{
					"inputs": [],
					"name": "signer",
					"outputs": [
						{
							"internalType": "address",
							"name": "",
							"type": "address"
						}
					],
					"stateMutability": "view",
					"type": "function"
				},
				{
					"inputs": [
						{
							"internalType": "address",
							"name": "newOwner",
							"type": "address"
						}
					],
					"name": "transferOwnership",
					"outputs": [],
					"stateMutability": "nonpayable",
					"type": "function"
				},
				{
					"inputs": [],
					"name": "usc",
					"outputs": [
						{
							"internalType": "contract IERC20Upgradeable",
							"name": "",
							"type": "address"
						}
					],
					"stateMutability": "view",
					"type": "function"
				}
			],
			"devdoc": {
				"kind": "dev",
				"methods": {
					"owner()": {
						"details": "Returns the address of the current owner."
					},
					"renounceOwnership()": {
						"details": "Leaves the contract without owner. It will not be possible to call `onlyOwner` functions anymore. Can only be called by the current owner. NOTE: Renouncing ownership will leave the contract without an owner, thereby removing any functionality that is only available to the owner."
					},
					"transferOwnership(address)": {
						"details": "Transfers ownership of the contract to a new account (`newOwner`). Can only be called by the current owner."
					}
				},
				"version": 1
			},
			"evm": {
				"assembly": "    /* \"contracts/mirrorseaMain.sol\":910:17224  contract mirrorseaMain is Initializable, OwnableUpgradeable {... */\n  mstore(0x40, 0x80)\n  callvalue\n  dup1\n  iszero\n  tag_1\n  jumpi\n  0x00\n  dup1\n  revert\ntag_1:\n  pop\n  dataSize(sub_0)\n  dup1\n  dataOffset(sub_0)\n  0x00\n  codecopy\n  0x00\n  return\nstop\n\nsub_0: assembly {\n        /* \"contracts/mirrorseaMain.sol\":910:17224  contract mirrorseaMain is Initializable, OwnableUpgradeable {... */\n      mstore(0x40, 0x80)\n      callvalue\n      dup1\n      iszero\n      tag_1\n      jumpi\n      0x00\n      dup1\n      revert\n    tag_1:\n      pop\n      jumpi(tag_2, lt(calldatasize, 0x04))\n      shr(0xe0, calldataload(0x00))\n      dup1\n      0x7dc0d1d0\n      gt\n      tag_38\n      jumpi\n      dup1\n      0xdb4a5aa9\n      gt\n      tag_39\n      jumpi\n      dup1\n      0xf14053ad\n      gt\n      tag_40\n      jumpi\n      dup1\n      0xf14053ad\n      eq\n      tag_33\n      jumpi\n      dup1\n      0xf2fde38b\n      eq\n      tag_34\n      jumpi\n      dup1\n      0xf7ab69fd\n      eq\n      tag_35\n      jumpi\n      dup1\n      0xf8c8765e\n      eq\n      tag_36\n      jumpi\n      dup1\n      0xfc234d06\n      eq\n      tag_37\n      jumpi\n      jump(tag_2)\n    tag_40:\n      dup1\n      0xdb4a5aa9\n      eq\n      tag_29\n      jumpi\n      dup1\n      0xe4e95520\n      eq\n      tag_30\n      jumpi\n      dup1\n      0xec4c4f34\n      eq\n      tag_31\n      jumpi\n      dup1\n      0xf0c765e4\n      eq\n      tag_32\n      jumpi\n      jump(tag_2)\n    tag_39:\n      dup1\n      0xa8ecb028\n      gt\n      tag_41\n      jumpi\n      dup1\n      0xa8ecb028\n      eq\n      tag_24\n      jumpi\n      dup1\n      0xaaf5eb68\n      eq\n      tag_25\n      jumpi\n      dup1\n      0xaecf77b1\n      eq\n      tag_26\n      jumpi\n      dup1\n      0xc2ec527d\n      eq\n      tag_27\n      jumpi\n      dup1\n      0xd8c5db4f\n      eq\n      tag_28\n      jumpi\n      jump(tag_2)\n    tag_41:\n      dup1\n      0x7dc0d1d0\n      eq\n      tag_20\n      jumpi\n      dup1\n      0x7fd6f15c\n      eq\n      tag_21\n      jumpi\n      dup1\n      0x8da5cb5b\n      eq\n      tag_22\n      jumpi\n      dup1\n      0xa0ad12e2\n      eq\n      tag_23\n      jumpi\n      jump(tag_2)\n    tag_38:\n      dup1\n      0x43b1f3cb\n      gt\n      tag_42\n      jumpi\n      dup1\n      0x6c19e783\n      gt\n      tag_43\n      jumpi\n      dup1\n      0x6c19e783\n      eq\n      tag_15\n      jumpi\n      dup1\n      0x6e812437\n      eq\n      tag_16\n      jumpi\n      dup1\n      0x715018a6\n      eq\n      tag_17\n      jumpi\n      dup1\n      0x7be3a1a1\n      eq\n      tag_18\n      jumpi\n      dup1\n      0x7ce3489b\n      eq\n      tag_19\n      jumpi\n      jump(tag_2)\n    tag_43:\n      dup1\n      0x43b1f3cb\n      eq\n      tag_11\n      jumpi\n      dup1\n      0x48c7e528\n      eq\n      tag_12\n      jumpi\n      dup1\n      0x4b989ce3\n      eq\n      tag_13\n      jumpi\n      dup1\n      0x6ab34a4a\n      eq\n      tag_14\n      jumpi\n      jump(tag_2)\n    tag_42:\n      dup1\n      0x238ac933\n      gt\n      tag_44\n      jumpi\n      dup1\n      0x238ac933\n      eq\n      tag_7\n      jumpi\n      dup1\n      0x2705c55b\n      eq\n      tag_8\n      jumpi\n      dup1\n      0x3011d3d5\n      eq\n      tag_9\n      jumpi\n      dup1\n      0x323b9b2b\n      eq\n      tag_10\n      jumpi\n      jump(tag_2)\n    tag_44:\n      dup1\n      0x080270a8\n      eq\n      tag_3\n      jumpi\n      dup1\n      0x0f58d242\n      eq\n      tag_4\n      jumpi\n      dup1\n      0x1e1bff3f\n      eq\n      tag_5\n      jumpi\n      dup1\n      0x1e64610c\n      eq\n      tag_6\n      jumpi\n    tag_2:\n      0x00\n      dup1\n      revert\n        /* \"contracts/mirrorseaMain.sol\":4639:5912  function pagination(... */\n    tag_3:\n      tag_45\n      tag_46\n      calldatasize\n      0x04\n      tag_47\n      jump\t// in\n    tag_46:\n      tag_48\n      jump\t// in\n    tag_45:\n      mload(0x40)\n      tag_49\n      swap2\n      swap1\n      tag_50\n      jump\t// in\n    tag_49:\n      mload(0x40)\n      dup1\n      swap2\n      sub\n      swap1\n      return\n        /* \"contracts/mirrorseaMain.sol\":1347:1379  uint256[] public openOrderIdList */\n    tag_4:\n      tag_51\n      tag_52\n      calldatasize\n      0x04\n      tag_53\n      jump\t// in\n    tag_52:\n      tag_54\n      jump\t// in\n    tag_51:\n      mload(0x40)\n      tag_49\n      swap2\n      swap1\n      tag_56\n      jump\t// in\n        /* \"contracts/mirrorseaMain.sol\":3136:3313  function setExecutor(address _address, bool _type)... */\n    tag_5:\n      tag_57\n      tag_58\n      calldatasize\n      0x04\n      tag_59\n      jump\t// in\n    tag_58:\n      tag_60\n      jump\t// in\n    tag_57:\n      mload(0x40)\n      tag_49\n      swap2\n      swap1\n      tag_62\n      jump\t// in\n        /* \"contracts/mirrorseaMain.sol\":1196:1227  IhelperLogic public helperLogic */\n    tag_6:\n      tag_63\n      tag_64\n      jump\t// in\n    tag_63:\n      mload(0x40)\n      tag_49\n      swap2\n      swap1\n      tag_70\n      jump\t// in\n        /* \"contracts/mirrorseaMain.sol\":1135:1156  address public signer */\n    tag_7:\n      tag_63\n      tag_68\n      jump\t// in\n        /* \"contracts/mirrorseaMain.sol\":13968:15253  function _isSolvent(... */\n    tag_8:\n      tag_57\n      tag_72\n      calldatasize\n      0x04\n      tag_73\n      jump\t// in\n    tag_72:\n      tag_74\n      jump\t// in\n        /* \"contracts/mirrorseaMain.sol\":1162:1190  IERC20Upgradeable public usc */\n    tag_9:\n      tag_63\n      tag_77\n      jump\t// in\n        /* \"contracts/mirrorseaMain.sol\":2685:2794  function openOrderIdListLength() public view returns (uint256) {... */\n    tag_10:\n      tag_51\n      tag_81\n      jump\t// in\n        /* \"contracts/mirrorseaMain.sol\":1385:1441  mapping(uint256 => uint256) public openOrderIdList_index */\n    tag_11:\n      tag_51\n      tag_84\n      calldatasize\n      0x04\n      tag_53\n      jump\t// in\n    tag_84:\n      tag_85\n      jump\t// in\n        /* \"contracts/mirrorseaMain.sol\":1089:1129  mapping(address => bool) public executor */\n    tag_12:\n      tag_57\n      tag_88\n      calldatasize\n      0x04\n      tag_89\n      jump\t// in\n    tag_88:\n      tag_90\n      jump\t// in\n        /* \"contracts/mirrorseaMain.sol\":12514:13403  function liquidation(... */\n    tag_13:\n      tag_57\n      tag_93\n      calldatasize\n      0x04\n      tag_94\n      jump\t// in\n    tag_93:\n      tag_95\n      jump\t// in\n        /* \"contracts/mirrorseaMain.sol\":3740:3852  function orderInfo(uint256 _id) external view returns (OrderInfo memory) {... */\n    tag_14:\n      tag_97\n      tag_98\n      calldatasize\n      0x04\n      tag_53\n      jump\t// in\n    tag_98:\n      tag_99\n      jump\t// in\n    tag_97:\n      mload(0x40)\n      tag_49\n      swap2\n      swap1\n      tag_101\n      jump\t// in\n        /* \"contracts/mirrorseaMain.sol\":3608:3734  function setSigner(address _address) external onlyOwner returns (bool) {... */\n    tag_15:\n      tag_57\n      tag_103\n      calldatasize\n      0x04\n      tag_89\n      jump\t// in\n    tag_103:\n      tag_104\n      jump\t// in\n        /* \"contracts/mirrorseaMain.sol\":11530:12122  function closePosition(... */\n    tag_16:\n      tag_57\n      tag_107\n      calldatasize\n      0x04\n      tag_108\n      jump\t// in\n    tag_107:\n      tag_109\n      jump\t// in\n        /* \"@openzeppelin/contracts-upgradeable/access/OwnableUpgradeable.sol\":1934:2035  function renounceOwnership() public virtual onlyOwner {... */\n    tag_17:\n      tag_111\n      tag_112\n      jump\t// in\n    tag_111:\n      stop\n        /* \"contracts/mirrorseaMain.sol\":1508:1594  mapping(address => mapping(uint256 => uint256))... */\n    tag_18:\n      tag_51\n      tag_114\n      calldatasize\n      0x04\n      tag_115\n      jump\t// in\n    tag_114:\n      tag_116\n      jump\t// in\n        /* \"contracts/mirrorseaMain.sol\":3463:3589  function setFeePercent(uint256 _val) external onlyOwner returns (bool) {... */\n    tag_19:\n      tag_57\n      tag_119\n      calldatasize\n      0x04\n      tag_53\n      jump\t// in\n    tag_119:\n      tag_120\n      jump\t// in\n        /* \"contracts/mirrorseaMain.sol\":1233:1254  IOracle public oracle */\n    tag_20:\n      tag_63\n      tag_123\n      jump\t// in\n        /* \"contracts/mirrorseaMain.sol\":1756:1781  uint256 public feePercent */\n    tag_21:\n      tag_51\n      tag_127\n      jump\t// in\n        /* \"@openzeppelin/contracts-upgradeable/access/OwnableUpgradeable.sol\":1302:1387  function owner() public view virtual returns (address) {... */\n    tag_22:\n      tag_63\n      tag_130\n      jump\t// in\n        /* \"contracts/mirrorseaMain.sol\":13409:13962  function forcedLiquidation(... */\n    tag_23:\n      tag_57\n      tag_133\n      calldatasize\n      0x04\n      tag_108\n      jump\t// in\n    tag_133:\n      tag_134\n      jump\t// in\n        /* \"contracts/mirrorseaMain.sol\":15259:16997  function adjustPosition(... */\n    tag_24:\n      tag_57\n      tag_137\n      calldatasize\n      0x04\n      tag_138\n      jump\t// in\n    tag_137:\n      tag_139\n      jump\t// in\n        /* \"contracts/mirrorseaMain.sol\":1787:1811  uint256 public PRECISION */\n    tag_25:\n      tag_51\n      tag_142\n      jump\t// in\n        /* \"contracts/mirrorseaMain.sol\":2967:3130  function myCloseOrderIdListLength(address _user)... */\n    tag_26:\n      tag_51\n      tag_145\n      calldatasize\n      0x04\n      tag_89\n      jump\t// in\n    tag_145:\n      tag_146\n      jump\t// in\n        /* \"contracts/mirrorseaMain.sol\":1448:1502  mapping(address => uint256[]) public myOpenOrderIdList */\n    tag_27:\n      tag_51\n      tag_149\n      calldatasize\n      0x04\n      tag_115\n      jump\t// in\n    tag_149:\n      tag_150\n      jump\t// in\n        /* \"contracts/mirrorseaMain.sol\":17003:17222  function setmyOpenOrderIdList(... */\n    tag_28:\n      tag_111\n      tag_153\n      calldatasize\n      0x04\n      tag_154\n      jump\t// in\n    tag_153:\n      tag_155\n      jump\t// in\n        /* \"contracts/mirrorseaMain.sol\":5918:7807  function openPosition(... */\n    tag_29:\n      tag_57\n      tag_157\n      calldatasize\n      0x04\n      tag_158\n      jump\t// in\n    tag_157:\n      tag_159\n      jump\t// in\n        /* \"contracts/mirrorseaMain.sol\":2800:2961  function myOpenOrderIdListLength(address _user)... */\n    tag_30:\n      tag_51\n      tag_162\n      calldatasize\n      0x04\n      tag_89\n      jump\t// in\n    tag_162:\n      tag_163\n      jump\t// in\n        /* \"contracts/mirrorseaMain.sol\":1601:1656  mapping(address => uint256[]) public myCloseOrderIdList */\n    tag_31:\n      tag_51\n      tag_166\n      calldatasize\n      0x04\n      tag_115\n      jump\t// in\n    tag_166:\n      tag_167\n      jump\t// in\n        /* \"contracts/mirrorseaMain.sol\":1662:1749  mapping(address => mapping(uint256 => uint256))... */\n    tag_32:\n      tag_51\n      tag_170\n      calldatasize\n      0x04\n      tag_115\n      jump\t// in\n    tag_170:\n      tag_171\n      jump\t// in\n        /* \"contracts/mirrorseaMain.sol\":1818:1839  uint256 public minVal */\n    tag_33:\n      tag_51\n      tag_174\n      jump\t// in\n        /* \"@openzeppelin/contracts-upgradeable/access/OwnableUpgradeable.sol\":2184:2382  function transferOwnership(address newOwner) public virtual onlyOwner {... */\n    tag_34:\n      tag_111\n      tag_177\n      calldatasize\n      0x04\n      tag_89\n      jump\t// in\n    tag_177:\n      tag_178\n      jump\t// in\n        /* \"contracts/mirrorseaMain.sol\":1315:1340  uint256 public OrderIndex */\n    tag_35:\n      tag_51\n      tag_180\n      jump\t// in\n        /* \"contracts/mirrorseaMain.sol\":2277:2657  function initialize(... */\n    tag_36:\n      tag_111\n      tag_183\n      calldatasize\n      0x04\n      tag_184\n      jump\t// in\n    tag_183:\n      tag_185\n      jump\t// in\n        /* \"contracts/mirrorseaMain.sol\":3858:4633  function setOrderInfo(... */\n    tag_37:\n      tag_57\n      tag_187\n      calldatasize\n      0x04\n      tag_188\n      jump\t// in\n    tag_187:\n      tag_189\n      jump\t// in\n        /* \"contracts/mirrorseaMain.sol\":4639:5912  function pagination(... */\n    tag_48:\n        /* \"contracts/mirrorseaMain.sol\":4779:4795  uint256[] memory */\n      0x60\n        /* \"contracts/mirrorseaMain.sol\":4807:4820  uint256 index */\n      0x00\n      dup1\n        /* \"contracts/mirrorseaMain.sol\":4779:4795  uint256[] memory */\n      dup3\n        /* \"contracts/mirrorseaMain.sol\":4887:4897  _type == 0 */\n      dup7\n        /* \"contracts/mirrorseaMain.sol\":4883:5106  if (_type == 0) {... */\n      tag_192\n      jumpi\n        /* \"contracts/mirrorseaMain.sol\":4921:4936  openOrderIdList */\n      0x6c\n        /* \"contracts/mirrorseaMain.sol\":4913:4936  _list = openOrderIdList */\n      dup1\n      sload\n      dup1\n      0x20\n      mul\n      0x20\n      add\n      mload(0x40)\n      swap1\n      dup2\n      add\n      0x40\n      mstore\n      dup1\n      swap3\n      swap2\n      swap1\n      dup2\n      dup2\n      mstore\n      0x20\n      add\n      dup3\n      dup1\n      sload\n      dup1\n      iszero\n      tag_193\n      jumpi\n      0x20\n      mul\n      dup3\n      add\n      swap2\n      swap1\n      0x00\n      mstore\n      keccak256(0x00, 0x20)\n      swap1\n    tag_194:\n      dup2\n      sload\n      dup2\n      mstore\n      0x20\n      add\n      swap1\n      0x01\n      add\n      swap1\n      dup1\n      dup4\n      gt\n      tag_194\n      jumpi\n    tag_193:\n      pop\n      pop\n      pop\n      pop\n      pop\n      swap1\n      pop\n        /* \"contracts/mirrorseaMain.sol\":4883:5106  if (_type == 0) {... */\n      jump(tag_200)\n    tag_192:\n        /* \"contracts/mirrorseaMain.sol\":4957:4962  _type */\n      dup7\n        /* \"contracts/mirrorseaMain.sol\":4966:4967  1 */\n      0x01\n        /* \"contracts/mirrorseaMain.sol\":4957:4967  _type == 1 */\n      eq\n        /* \"contracts/mirrorseaMain.sol\":4953:5106  if (_type == 1) {... */\n      iszero\n      tag_196\n      jumpi\n      sub(shl(0xa0, 0x01), 0x01)\n        /* \"contracts/mirrorseaMain.sol\":4991:5015  myOpenOrderIdList[_user] */\n      dup9\n      and\n      0x00\n      swap1\n      dup2\n      mstore\n        /* \"contracts/mirrorseaMain.sol\":4991:5008  myOpenOrderIdList */\n      0x6e\n        /* \"contracts/mirrorseaMain.sol\":4991:5015  myOpenOrderIdList[_user] */\n      0x20\n      swap1\n      dup2\n      mstore\n      0x40\n      swap2\n      dup3\n      swap1\n      keccak256\n        /* \"contracts/mirrorseaMain.sol\":4983:5015  _list = myOpenOrderIdList[_user] */\n      dup1\n      sload\n      dup4\n      mload\n      dup2\n      dup5\n      mul\n      dup2\n      add\n      dup5\n      add\n      swap1\n      swap5\n      mstore\n      dup1\n      dup5\n      mstore\n        /* \"contracts/mirrorseaMain.sol\":4991:5015  myOpenOrderIdList[_user] */\n      swap1\n      swap2\n        /* \"contracts/mirrorseaMain.sol\":4983:5015  _list = myOpenOrderIdList[_user] */\n      dup4\n      add\n        /* \"contracts/mirrorseaMain.sol\":4991:5015  myOpenOrderIdList[_user] */\n      dup3\n        /* \"contracts/mirrorseaMain.sol\":4983:5015  _list = myOpenOrderIdList[_user] */\n      dup3\n      dup1\n      iszero\n      tag_193\n      jumpi\n      0x20\n      mul\n      dup3\n      add\n      swap2\n      swap1\n      0x00\n      mstore\n      keccak256(0x00, 0x20)\n      swap1\n      dup2\n      sload\n      dup2\n      mstore\n      0x20\n      add\n      swap1\n      0x01\n      add\n      swap1\n      dup1\n      dup4\n      gt\n      tag_194\n      jumpi\n      pop\n      pop\n      pop\n      pop\n      pop\n      swap1\n      pop\n        /* \"contracts/mirrorseaMain.sol\":4953:5106  if (_type == 1) {... */\n      jump(tag_200)\n    tag_196:\n        /* \"contracts/mirrorseaMain.sol\":5036:5041  _type */\n      dup7\n        /* \"contracts/mirrorseaMain.sol\":5045:5046  2 */\n      0x02\n        /* \"contracts/mirrorseaMain.sol\":5036:5046  _type == 2 */\n      eq\n        /* \"contracts/mirrorseaMain.sol\":5032:5106  if (_type == 2) {... */\n      iszero\n      tag_200\n      jumpi\n      sub(shl(0xa0, 0x01), 0x01)\n        /* \"contracts/mirrorseaMain.sol\":5070:5095  myCloseOrderIdList[_user] */\n      dup9\n      and\n      0x00\n      swap1\n      dup2\n      mstore\n        /* \"contracts/mirrorseaMain.sol\":5070:5088  myCloseOrderIdList */\n      0x70\n        /* \"contracts/mirrorseaMain.sol\":5070:5095  myCloseOrderIdList[_user] */\n      0x20\n      swap1\n      dup2\n      mstore\n      0x40\n      swap2\n      dup3\n      swap1\n      keccak256\n        /* \"contracts/mirrorseaMain.sol\":5062:5095  _list = myCloseOrderIdList[_user] */\n      dup1\n      sload\n      dup4\n      mload\n      dup2\n      dup5\n      mul\n      dup2\n      add\n      dup5\n      add\n      swap1\n      swap5\n      mstore\n      dup1\n      dup5\n      mstore\n        /* \"contracts/mirrorseaMain.sol\":5070:5095  myCloseOrderIdList[_user] */\n      swap1\n      swap2\n        /* \"contracts/mirrorseaMain.sol\":5062:5095  _list = myCloseOrderIdList[_user] */\n      dup4\n      add\n        /* \"contracts/mirrorseaMain.sol\":5070:5095  myCloseOrderIdList[_user] */\n      dup3\n        /* \"contracts/mirrorseaMain.sol\":5062:5095  _list = myCloseOrderIdList[_user] */\n      dup3\n      dup1\n      iszero\n      tag_201\n      jumpi\n      0x20\n      mul\n      dup3\n      add\n      swap2\n      swap1\n      0x00\n      mstore\n      keccak256(0x00, 0x20)\n      swap1\n    tag_202:\n      dup2\n      sload\n      dup2\n      mstore\n      0x20\n      add\n      swap1\n      0x01\n      add\n      swap1\n      dup1\n      dup4\n      gt\n      tag_202\n      jumpi\n    tag_201:\n      pop\n      pop\n      pop\n      pop\n      pop\n      swap1\n      pop\n        /* \"contracts/mirrorseaMain.sol\":5032:5106  if (_type == 2) {... */\n    tag_200:\n        /* \"contracts/mirrorseaMain.sol\":5115:5129  uint256 remAmt */\n      0x00\n        /* \"contracts/mirrorseaMain.sol\":5132:5175  _list.length.sub(_row.mul(_page).sub(_row)) */\n      tag_203\n        /* \"contracts/mirrorseaMain.sol\":5149:5174  _row.mul(_page).sub(_row) */\n      tag_204\n        /* \"contracts/mirrorseaMain.sol\":5169:5173  _row */\n      dup9\n        /* \"contracts/mirrorseaMain.sol\":5149:5164  _row.mul(_page) */\n      tag_205\n        /* \"contracts/mirrorseaMain.sol\":5169:5173  _row */\n      dup2\n        /* \"contracts/mirrorseaMain.sol\":5158:5163  _page */\n      dup11\n        /* \"contracts/mirrorseaMain.sol\":5149:5157  _row.mul */\n      tag_206\n        /* \"contracts/mirrorseaMain.sol\":5149:5164  _row.mul(_page) */\n      jump\t// in\n    tag_205:\n        /* \"contracts/mirrorseaMain.sol\":5149:5168  _row.mul(_page).sub */\n      swap1\n      tag_207\n        /* \"contracts/mirrorseaMain.sol\":5149:5174  _row.mul(_page).sub(_row) */\n      jump\t// in\n    tag_204:\n        /* \"contracts/mirrorseaMain.sol\":5132:5144  _list.length */\n      dup4\n      mload\n      swap1\n        /* \"contracts/mirrorseaMain.sol\":5132:5148  _list.length.sub */\n      tag_207\n        /* \"contracts/mirrorseaMain.sol\":5132:5175  _list.length.sub(_row.mul(_page).sub(_row)) */\n      jump\t// in\n    tag_203:\n        /* \"contracts/mirrorseaMain.sol\":5115:5175  uint256 remAmt = _list.length.sub(_row.mul(_page).sub(_row)) */\n      swap1\n      pop\n        /* \"contracts/mirrorseaMain.sol\":5199:5203  _row */\n      dup7\n        /* \"contracts/mirrorseaMain.sol\":5189:5195  remAmt */\n      dup2\n        /* \"contracts/mirrorseaMain.sol\":5189:5203  remAmt >= _row */\n      lt\n        /* \"contracts/mirrorseaMain.sol\":5185:5283  if (remAmt >= _row) {... */\n      tag_208\n      jumpi\n        /* \"contracts/mirrorseaMain.sol\":5225:5229  _row */\n      dup7\n        /* \"contracts/mirrorseaMain.sol\":5219:5229  arr = _row */\n      swap3\n      pop\n        /* \"contracts/mirrorseaMain.sol\":5185:5283  if (remAmt >= _row) {... */\n      jump(tag_209)\n    tag_208:\n        /* \"contracts/mirrorseaMain.sol\":5266:5272  remAmt */\n      dup1\n        /* \"contracts/mirrorseaMain.sol\":5260:5272  arr = remAmt */\n      swap3\n      pop\n        /* \"contracts/mirrorseaMain.sol\":5185:5283  if (remAmt >= _row) {... */\n    tag_209:\n        /* \"contracts/mirrorseaMain.sol\":5329:5341  _list.length */\n      dup2\n      mload\n        /* \"contracts/mirrorseaMain.sol\":5301:5326  _row.mul(_page).sub(_row) */\n      tag_210\n        /* \"contracts/mirrorseaMain.sol\":5321:5325  _row */\n      dup9\n        /* \"contracts/mirrorseaMain.sol\":5301:5316  _row.mul(_page) */\n      tag_205\n        /* \"contracts/mirrorseaMain.sol\":5321:5325  _row */\n      dup2\n        /* \"contracts/mirrorseaMain.sol\":5310:5315  _page */\n      dup11\n        /* \"contracts/mirrorseaMain.sol\":5301:5309  _row.mul */\n      tag_206\n        /* \"contracts/mirrorseaMain.sol\":5301:5316  _row.mul(_page) */\n      jump\t// in\n        /* \"contracts/mirrorseaMain.sol\":5301:5326  _row.mul(_page).sub(_row) */\n    tag_210:\n        /* \"contracts/mirrorseaMain.sol\":5301:5341  _row.mul(_page).sub(_row) < _list.length */\n      lt\n        /* \"contracts/mirrorseaMain.sol\":5293:5356  require(_row.mul(_page).sub(_row) < _list.length, \"length err\") */\n      tag_212\n      jumpi\n      mload(0x40)\n      shl(0xe5, 0x461bcd)\n      dup2\n      mstore\n      0x04\n      add\n      tag_213\n      swap1\n      tag_214\n      jump\t// in\n    tag_213:\n      mload(0x40)\n      dup1\n      swap2\n      sub\n      swap1\n      revert\n    tag_212:\n        /* \"contracts/mirrorseaMain.sol\":5374:5382  arr != 0 */\n      dup3\n        /* \"contracts/mirrorseaMain.sol\":5366:5398  require(arr != 0, \"arr no good\") */\n      tag_215\n      jumpi\n      mload(0x40)\n      shl(0xe5, 0x461bcd)\n      dup2\n      mstore\n      0x04\n      add\n      tag_213\n      swap1\n      tag_217\n      jump\t// in\n    tag_215:\n        /* \"contracts/mirrorseaMain.sol\":5409:5433  uint256[] memory newList */\n      0x00\n        /* \"contracts/mirrorseaMain.sol\":5450:5453  arr */\n      dup4\n        /* \"contracts/mirrorseaMain.sol\":5436:5454  new uint256[](arr) */\n      0xffffffffffffffff\n      dup2\n      gt\n      iszero\n      tag_218\n      jumpi\n      mstore(0x00, shl(0xe0, 0x4e487b71))\n      mstore(0x04, 0x41)\n      revert(0x00, 0x24)\n    tag_218:\n      mload(0x40)\n      swap1\n      dup1\n      dup3\n      mstore\n      dup1\n      0x20\n      mul\n      0x20\n      add\n      dup3\n      add\n      0x40\n      mstore\n      dup1\n      iszero\n      tag_219\n      jumpi\n      dup2\n      0x20\n      add\n      0x20\n      dup3\n      mul\n      dup1\n      calldatasize\n      dup4\n      calldatacopy\n      add\n      swap1\n      pop\n    tag_219:\n      pop\n        /* \"contracts/mirrorseaMain.sol\":5409:5454  uint256[] memory newList = new uint256[](arr) */\n      swap1\n      pop\n        /* \"contracts/mirrorseaMain.sol\":5470:5479  uint256 i */\n      0x00\n        /* \"contracts/mirrorseaMain.sol\":5482:5495  remAmt.sub(1) */\n      tag_223\n        /* \"contracts/mirrorseaMain.sol\":5482:5488  remAmt */\n      dup4\n        /* \"contracts/mirrorseaMain.sol\":5493:5494  1 */\n      0x01\n        /* \"contracts/mirrorseaMain.sol\":5482:5492  remAmt.sub */\n      tag_207\n        /* \"contracts/mirrorseaMain.sol\":5482:5495  remAmt.sub(1) */\n      jump\t// in\n    tag_223:\n        /* \"contracts/mirrorseaMain.sol\":5470:5495  uint256 i = remAmt.sub(1) */\n      swap1\n      pop\n        /* \"contracts/mirrorseaMain.sol\":5465:5649  for (uint256 i = remAmt.sub(1); index < arr; i--) {... */\n    tag_220:\n        /* \"contracts/mirrorseaMain.sol\":5505:5508  arr */\n      dup5\n        /* \"contracts/mirrorseaMain.sol\":5497:5502  index */\n      dup7\n        /* \"contracts/mirrorseaMain.sol\":5497:5508  index < arr */\n      lt\n        /* \"contracts/mirrorseaMain.sol\":5465:5649  for (uint256 i = remAmt.sub(1); index < arr; i--) {... */\n      iszero\n      tag_221\n      jumpi\n        /* \"contracts/mirrorseaMain.sol\":5546:5551  _list */\n      dup4\n        /* \"contracts/mirrorseaMain.sol\":5552:5553  i */\n      dup2\n        /* \"contracts/mirrorseaMain.sol\":5546:5554  _list[i] */\n      dup2\n      mload\n      dup2\n      lt\n      tag_224\n      jumpi\n      mstore(0x00, shl(0xe0, 0x4e487b71))\n      mstore(0x04, 0x32)\n      revert(0x00, 0x24)\n    tag_224:\n      0x20\n      mul\n      0x20\n      add\n      add\n      mload\n        /* \"contracts/mirrorseaMain.sol\":5529:5536  newList */\n      dup3\n        /* \"contracts/mirrorseaMain.sol\":5537:5542  index */\n      dup8\n        /* \"contracts/mirrorseaMain.sol\":5529:5543  newList[index] */\n      dup2\n      mload\n      dup2\n      lt\n      tag_225\n      jumpi\n      mstore(0x00, shl(0xe0, 0x4e487b71))\n      mstore(0x04, 0x32)\n      revert(0x00, 0x24)\n    tag_225:\n      0x20\n      swap1\n      dup2\n      mul\n      swap2\n      swap1\n      swap2\n      add\n      add\n        /* \"contracts/mirrorseaMain.sol\":5529:5554  newList[index] = _list[i] */\n      mstore\n        /* \"contracts/mirrorseaMain.sol\":5572:5578  i == 0 */\n      dup1\n        /* \"contracts/mirrorseaMain.sol\":5568:5618  if (i == 0) {... */\n      tag_226\n      jumpi\n        /* \"contracts/mirrorseaMain.sol\":5598:5603  break */\n      jump(tag_221)\n        /* \"contracts/mirrorseaMain.sol\":5568:5618  if (i == 0) {... */\n    tag_226:\n        /* \"contracts/mirrorseaMain.sol\":5631:5638  index++ */\n      dup6\n      tag_227\n      dup2\n      tag_228\n      jump\t// in\n    tag_227:\n      swap7\n      pop\n      pop\n        /* \"contracts/mirrorseaMain.sol\":5510:5513  i-- */\n      dup1\n      dup1\n      tag_229\n      swap1\n      tag_230\n      jump\t// in\n    tag_229:\n      swap2\n      pop\n      pop\n        /* \"contracts/mirrorseaMain.sol\":5465:5649  for (uint256 i = remAmt.sub(1); index < arr; i--) {... */\n      jump(tag_220)\n    tag_221:\n      pop\n        /* \"contracts/mirrorseaMain.sol\":5898:5905  newList */\n      swap10\n        /* \"contracts/mirrorseaMain.sol\":4639:5912  function pagination(... */\n      swap9\n      pop\n      pop\n      pop\n      pop\n      pop\n      pop\n      pop\n      pop\n      pop\n      jump\t// out\n        /* \"contracts/mirrorseaMain.sol\":1347:1379  uint256[] public openOrderIdList */\n    tag_54:\n      0x6c\n      dup2\n      dup2\n      sload\n      dup2\n      lt\n      tag_231\n      jumpi\n      0x00\n      dup1\n      revert\n    tag_231:\n      0x00\n      swap2\n      dup3\n      mstore\n      0x20\n      swap1\n      swap2\n      keccak256\n      add\n      sload\n      swap1\n      pop\n      dup2\n      jump\t// out\n        /* \"contracts/mirrorseaMain.sol\":3136:3313  function setExecutor(address _address, bool _type)... */\n    tag_60:\n        /* \"contracts/mirrorseaMain.sol\":3239:3243  bool */\n      0x00\n        /* \"@openzeppelin/contracts-upgradeable/access/OwnableUpgradeable.sol\":1525:1537  _msgSender() */\n      tag_234\n        /* \"@openzeppelin/contracts-upgradeable/access/OwnableUpgradeable.sol\":1525:1535  _msgSender */\n      tag_235\n        /* \"@openzeppelin/contracts-upgradeable/access/OwnableUpgradeable.sol\":1525:1537  _msgSender() */\n      jump\t// in\n    tag_234:\n      sub(shl(0xa0, 0x01), 0x01)\n        /* \"@openzeppelin/contracts-upgradeable/access/OwnableUpgradeable.sol\":1514:1537  owner() == _msgSender() */\n      and\n        /* \"@openzeppelin/contracts-upgradeable/access/OwnableUpgradeable.sol\":1514:1521  owner() */\n      tag_236\n        /* \"@openzeppelin/contracts-upgradeable/access/OwnableUpgradeable.sol\":1514:1519  owner */\n      tag_130\n        /* \"@openzeppelin/contracts-upgradeable/access/OwnableUpgradeable.sol\":1514:1521  owner() */\n      jump\t// in\n    tag_236:\n      sub(shl(0xa0, 0x01), 0x01)\n        /* \"@openzeppelin/contracts-upgradeable/access/OwnableUpgradeable.sol\":1514:1537  owner() == _msgSender() */\n      and\n      eq\n        /* \"@openzeppelin/contracts-upgradeable/access/OwnableUpgradeable.sol\":1506:1574  require(owner() == _msgSender(), \"Ownable: caller is not the owner\") */\n      tag_237\n      jumpi\n      mload(0x40)\n      shl(0xe5, 0x461bcd)\n      dup2\n      mstore\n      0x04\n      add\n      tag_213\n      swap1\n      tag_239\n      jump\t// in\n    tag_237:\n      pop\n      sub(shl(0xa0, 0x01), 0x01)\n        /* \"contracts/mirrorseaMain.sol\":3259:3277  executor[_address] */\n      dup3\n      and\n      0x00\n      swap1\n      dup2\n      mstore\n        /* \"contracts/mirrorseaMain.sol\":3259:3267  executor */\n      0x65\n        /* \"contracts/mirrorseaMain.sol\":3259:3277  executor[_address] */\n      0x20\n      mstore\n      0x40\n      swap1\n      keccak256\n        /* \"contracts/mirrorseaMain.sol\":3259:3285  executor[_address] = _type */\n      dup1\n      sload\n      dup3\n      iszero\n      iszero\n      not(0xff)\n      swap1\n      swap2\n      and\n      or\n      swap1\n      sstore\n      0x01\n        /* \"contracts/mirrorseaMain.sol\":3136:3313  function setExecutor(address _address, bool _type)... */\n      swap3\n      swap2\n      pop\n      pop\n      jump\t// out\n        /* \"contracts/mirrorseaMain.sol\":1196:1227  IhelperLogic public helperLogic */\n    tag_64:\n      and(sub(shl(0xa0, 0x01), 0x01), sload(0x68))\n      dup2\n      jump\t// out\n        /* \"contracts/mirrorseaMain.sol\":1135:1156  address public signer */\n    tag_68:\n      and(sub(shl(0xa0, 0x01), 0x01), sload(0x66))\n      dup2\n      jump\t// out\n        /* \"contracts/mirrorseaMain.sol\":13968:15253  function _isSolvent(... */\n    tag_74:\n        /* \"contracts/mirrorseaMain.sol\":14087:14091  bool */\n      0x00\n        /* \"contracts/mirrorseaMain.sol\":14129:14144  _orderInfo[_id] */\n      dup4\n      dup2\n      mstore\n        /* \"contracts/mirrorseaMain.sol\":14129:14139  _orderInfo */\n      0x6a\n        /* \"contracts/mirrorseaMain.sol\":14129:14144  _orderInfo[_id] */\n      0x20\n      mstore\n      0x40\n      dup2\n      keccak256\n        /* \"contracts/mirrorseaMain.sol\":14246:14255  order.amt */\n      0x09\n      dup2\n      add\n      sload\n        /* \"contracts/mirrorseaMain.sol\":14305:14320  order.direction */\n      0x04\n      dup3\n      add\n      sload\n        /* \"contracts/mirrorseaMain.sol\":14087:14091  bool */\n      dup4\n      swap2\n      dup3\n      swap2\n      dup3\n      swap2\n        /* \"contracts/mirrorseaMain.sol\":14246:14255  order.amt */\n      swap1\n        /* \"contracts/mirrorseaMain.sol\":14283:14291  _price18 */\n      dup9\n      swap1\n        /* \"contracts/mirrorseaMain.sol\":14324:14325  1 */\n      0x01\n        /* \"contracts/mirrorseaMain.sol\":14305:14325  order.direction == 1 */\n      eq\n        /* \"contracts/mirrorseaMain.sol\":14301:15226  if (order.direction == 1) {... */\n      iszero\n      tag_242\n      jumpi\n        /* \"contracts/mirrorseaMain.sol\":14355:14360  order */\n      dup6\n        /* \"contracts/mirrorseaMain.sol\":14355:14372  order.openPrice18 */\n      0x05\n      add\n      sload\n        /* \"contracts/mirrorseaMain.sol\":14345:14352  price18 */\n      dup2\n        /* \"contracts/mirrorseaMain.sol\":14345:14372  price18 < order.openPrice18 */\n      lt\n        /* \"contracts/mirrorseaMain.sol\":14341:14832  if (price18 < order.openPrice18) {... */\n      iszero\n      tag_254\n      jumpi\n        /* \"contracts/mirrorseaMain.sol\":14406:14423  order.openPrice18 */\n      0x05\n      dup7\n      add\n      sload\n        /* \"contracts/mirrorseaMain.sol\":14406:14436  order.openPrice18.sub(price18) */\n      tag_244\n      swap1\n        /* \"contracts/mirrorseaMain.sol\":14428:14435  price18 */\n      dup3\n        /* \"contracts/mirrorseaMain.sol\":14406:14427  order.openPrice18.sub */\n      tag_207\n        /* \"contracts/mirrorseaMain.sol\":14406:14436  order.openPrice18.sub(price18) */\n      jump\t// in\n    tag_244:\n        /* \"contracts/mirrorseaMain.sol\":14392:14436  diffPrice18 = order.openPrice18.sub(price18) */\n      swap5\n      pop\n        /* \"contracts/mirrorseaMain.sol\":14517:14547  diffPrice18.mul(amt).div(1e18) */\n      tag_245\n        /* \"contracts/mirrorseaMain.sol\":14542:14546  1e18 */\n      0x0de0b6b3a7640000\n        /* \"contracts/mirrorseaMain.sol\":14517:14537  diffPrice18.mul(amt) */\n      tag_246\n        /* \"contracts/mirrorseaMain.sol\":14392:14436  diffPrice18 = order.openPrice18.sub(price18) */\n      dup8\n        /* \"contracts/mirrorseaMain.sol\":14533:14536  amt */\n      dup6\n        /* \"contracts/mirrorseaMain.sol\":14517:14532  diffPrice18.mul */\n      tag_206\n        /* \"contracts/mirrorseaMain.sol\":14517:14537  diffPrice18.mul(amt) */\n      jump\t// in\n    tag_246:\n        /* \"contracts/mirrorseaMain.sol\":14517:14541  diffPrice18.mul(amt).div */\n      swap1\n      tag_247\n        /* \"contracts/mirrorseaMain.sol\":14517:14547  diffPrice18.mul(amt).div(1e18) */\n      jump\t// in\n    tag_245:\n        /* \"contracts/mirrorseaMain.sol\":14504:14547  diffMargin = diffPrice18.mul(amt).div(1e18) */\n      swap4\n      pop\n        /* \"contracts/mirrorseaMain.sol\":14571:14628  amt.mul(price18).mul(feePercent).div(PRECISION).div(1e18) */\n      tag_248\n        /* \"contracts/mirrorseaMain.sol\":14623:14627  1e18 */\n      0x0de0b6b3a7640000\n        /* \"contracts/mirrorseaMain.sol\":14571:14618  amt.mul(price18).mul(feePercent).div(PRECISION) */\n      tag_246\n        /* \"contracts/mirrorseaMain.sol\":14608:14617  PRECISION */\n      sload(0x73)\n        /* \"contracts/mirrorseaMain.sol\":14571:14603  amt.mul(price18).mul(feePercent) */\n      tag_246\n        /* \"contracts/mirrorseaMain.sol\":14592:14602  feePercent */\n      sload(0x72)\n        /* \"contracts/mirrorseaMain.sol\":14571:14587  amt.mul(price18) */\n      tag_251\n        /* \"contracts/mirrorseaMain.sol\":14579:14586  price18 */\n      dup8\n        /* \"contracts/mirrorseaMain.sol\":14571:14574  amt */\n      dup10\n        /* \"contracts/mirrorseaMain.sol\":14571:14578  amt.mul */\n      tag_206\n      swap1\n        /* \"contracts/mirrorseaMain.sol\":14571:14587  amt.mul(price18) */\n      swap2\n      swap1\n      0xffffffff\n      and\n      jump\t// in\n    tag_251:\n        /* \"contracts/mirrorseaMain.sol\":14571:14591  amt.mul(price18).mul */\n      swap1\n      tag_206\n        /* \"contracts/mirrorseaMain.sol\":14571:14603  amt.mul(price18).mul(feePercent) */\n      jump\t// in\n        /* \"contracts/mirrorseaMain.sol\":14571:14628  amt.mul(price18).mul(feePercent).div(PRECISION).div(1e18) */\n    tag_248:\n        /* \"contracts/mirrorseaMain.sol\":14565:14628  fee = amt.mul(price18).mul(feePercent).div(PRECISION).div(1e18) */\n      swap3\n      pop\n        /* \"contracts/mirrorseaMain.sol\":14660:14676  diffMargin + fee */\n      tag_252\n        /* \"contracts/mirrorseaMain.sol\":14565:14628  fee = amt.mul(price18).mul(feePercent).div(PRECISION).div(1e18) */\n      dup4\n        /* \"contracts/mirrorseaMain.sol\":14660:14670  diffMargin */\n      dup6\n        /* \"contracts/mirrorseaMain.sol\":14660:14676  diffMargin + fee */\n      tag_253\n      jump\t// in\n    tag_252:\n        /* \"contracts/mirrorseaMain.sol\":14650:14657  _margin */\n      dup9\n        /* \"contracts/mirrorseaMain.sol\":14650:14676  _margin < diffMargin + fee */\n      lt\n        /* \"contracts/mirrorseaMain.sol\":14646:14818  if (_margin < diffMargin + fee) {... */\n      iszero\n      tag_254\n      jumpi\n        /* \"contracts/mirrorseaMain.sol\":14794:14799  false */\n      0x00\n        /* \"contracts/mirrorseaMain.sol\":14787:14799  return false */\n      swap7\n      pop\n      pop\n      pop\n      pop\n      pop\n      pop\n      pop\n      jump(tag_241)\n        /* \"contracts/mirrorseaMain.sol\":14646:14818  if (_margin < diffMargin + fee) {... */\n    tag_254:\n        /* \"contracts/mirrorseaMain.sol\":14301:15226  if (order.direction == 1) {... */\n      jump(tag_265)\n    tag_242:\n        /* \"contracts/mirrorseaMain.sol\":14876:14881  order */\n      dup6\n        /* \"contracts/mirrorseaMain.sol\":14876:14893  order.openPrice18 */\n      0x05\n      add\n      sload\n        /* \"contracts/mirrorseaMain.sol\":14866:14873  price18 */\n      dup2\n        /* \"contracts/mirrorseaMain.sol\":14866:14893  price18 > order.openPrice18 */\n      gt\n        /* \"contracts/mirrorseaMain.sol\":14862:15216  if (price18 > order.openPrice18) {... */\n      iszero\n      tag_265\n      jumpi\n        /* \"contracts/mirrorseaMain.sol\":14939:14956  order.openPrice18 */\n      0x05\n      dup7\n      add\n      sload\n        /* \"contracts/mirrorseaMain.sol\":14927:14957  price18.sub(order.openPrice18) */\n      tag_257\n      swap1\n        /* \"contracts/mirrorseaMain.sol\":14927:14934  price18 */\n      dup3\n      swap1\n        /* \"contracts/mirrorseaMain.sol\":14927:14938  price18.sub */\n      tag_207\n        /* \"contracts/mirrorseaMain.sol\":14927:14957  price18.sub(order.openPrice18) */\n      jump\t// in\n    tag_257:\n        /* \"contracts/mirrorseaMain.sol\":14913:14957  diffPrice18 = price18.sub(order.openPrice18) */\n      swap5\n      pop\n        /* \"contracts/mirrorseaMain.sol\":14988:15018  diffPrice18.mul(amt).div(1e18) */\n      tag_258\n        /* \"contracts/mirrorseaMain.sol\":15013:15017  1e18 */\n      0x0de0b6b3a7640000\n        /* \"contracts/mirrorseaMain.sol\":14988:15008  diffPrice18.mul(amt) */\n      tag_246\n        /* \"contracts/mirrorseaMain.sol\":14913:14957  diffPrice18 = price18.sub(order.openPrice18) */\n      dup8\n        /* \"contracts/mirrorseaMain.sol\":15004:15007  amt */\n      dup6\n        /* \"contracts/mirrorseaMain.sol\":14988:15003  diffPrice18.mul */\n      tag_206\n        /* \"contracts/mirrorseaMain.sol\":14988:15008  diffPrice18.mul(amt) */\n      jump\t// in\n        /* \"contracts/mirrorseaMain.sol\":14988:15018  diffPrice18.mul(amt).div(1e18) */\n    tag_258:\n        /* \"contracts/mirrorseaMain.sol\":14975:15018  diffMargin = diffPrice18.mul(amt).div(1e18) */\n      swap4\n      pop\n        /* \"contracts/mirrorseaMain.sol\":15042:15099  amt.mul(price18).mul(feePercent).div(PRECISION).div(1e18) */\n      tag_260\n        /* \"contracts/mirrorseaMain.sol\":15094:15098  1e18 */\n      0x0de0b6b3a7640000\n        /* \"contracts/mirrorseaMain.sol\":15042:15089  amt.mul(price18).mul(feePercent).div(PRECISION) */\n      tag_246\n        /* \"contracts/mirrorseaMain.sol\":15079:15088  PRECISION */\n      sload(0x73)\n        /* \"contracts/mirrorseaMain.sol\":15042:15074  amt.mul(price18).mul(feePercent) */\n      tag_246\n        /* \"contracts/mirrorseaMain.sol\":15063:15073  feePercent */\n      sload(0x72)\n        /* \"contracts/mirrorseaMain.sol\":15042:15058  amt.mul(price18) */\n      tag_251\n        /* \"contracts/mirrorseaMain.sol\":15050:15057  price18 */\n      dup8\n        /* \"contracts/mirrorseaMain.sol\":15042:15045  amt */\n      dup10\n        /* \"contracts/mirrorseaMain.sol\":15042:15049  amt.mul */\n      tag_206\n      swap1\n        /* \"contracts/mirrorseaMain.sol\":15042:15058  amt.mul(price18) */\n      swap2\n      swap1\n      0xffffffff\n      and\n      jump\t// in\n        /* \"contracts/mirrorseaMain.sol\":15042:15099  amt.mul(price18).mul(feePercent).div(PRECISION).div(1e18) */\n    tag_260:\n        /* \"contracts/mirrorseaMain.sol\":15036:15099  fee = amt.mul(price18).mul(feePercent).div(PRECISION).div(1e18) */\n      swap3\n      pop\n        /* \"contracts/mirrorseaMain.sol\":15131:15147  diffMargin + fee */\n      tag_264\n        /* \"contracts/mirrorseaMain.sol\":15036:15099  fee = amt.mul(price18).mul(feePercent).div(PRECISION).div(1e18) */\n      dup4\n        /* \"contracts/mirrorseaMain.sol\":15131:15141  diffMargin */\n      dup6\n        /* \"contracts/mirrorseaMain.sol\":15131:15147  diffMargin + fee */\n      tag_253\n      jump\t// in\n    tag_264:\n        /* \"contracts/mirrorseaMain.sol\":15121:15128  _margin */\n      dup9\n        /* \"contracts/mirrorseaMain.sol\":15121:15147  _margin < diffMargin + fee */\n      lt\n        /* \"contracts/mirrorseaMain.sol\":15117:15202  if (_margin < diffMargin + fee) {... */\n      iszero\n      tag_265\n      jumpi\n        /* \"contracts/mirrorseaMain.sol\":15178:15183  false */\n      0x00\n        /* \"contracts/mirrorseaMain.sol\":15171:15183  return false */\n      swap7\n      pop\n      pop\n      pop\n      pop\n      pop\n      pop\n      pop\n      jump(tag_241)\n        /* \"contracts/mirrorseaMain.sol\":15117:15202  if (_margin < diffMargin + fee) {... */\n    tag_265:\n        /* \"contracts/mirrorseaMain.sol\":15242:15246  true */\n      0x01\n        /* \"contracts/mirrorseaMain.sol\":15235:15246  return true */\n      swap7\n      pop\n      pop\n      pop\n      pop\n      pop\n      pop\n      pop\n        /* \"contracts/mirrorseaMain.sol\":13968:15253  function _isSolvent(... */\n    tag_241:\n      swap4\n      swap3\n      pop\n      pop\n      pop\n      jump\t// out\n        /* \"contracts/mirrorseaMain.sol\":1162:1190  IERC20Upgradeable public usc */\n    tag_77:\n      and(sub(shl(0xa0, 0x01), 0x01), sload(0x67))\n      dup2\n      jump\t// out\n        /* \"contracts/mirrorseaMain.sol\":2685:2794  function openOrderIdListLength() public view returns (uint256) {... */\n    tag_81:\n        /* \"contracts/mirrorseaMain.sol\":2765:2780  openOrderIdList */\n      0x6c\n        /* \"contracts/mirrorseaMain.sol\":2765:2787  openOrderIdList.length */\n      sload\n        /* \"contracts/mirrorseaMain.sol\":2685:2794  function openOrderIdListLength() public view returns (uint256) {... */\n      swap1\n      jump\t// out\n        /* \"contracts/mirrorseaMain.sol\":1385:1441  mapping(uint256 => uint256) public openOrderIdList_index */\n    tag_85:\n      mstore(0x20, 0x6d)\n      0x00\n      swap1\n      dup2\n      mstore\n      0x40\n      swap1\n      keccak256\n      sload\n      dup2\n      jump\t// out\n        /* \"contracts/mirrorseaMain.sol\":1089:1129  mapping(address => bool) public executor */\n    tag_90:\n      mstore(0x20, 0x65)\n      0x00\n      swap1\n      dup2\n      mstore\n      0x40\n      swap1\n      keccak256\n      sload\n      0xff\n      and\n      dup2\n      jump\t// out\n        /* \"contracts/mirrorseaMain.sol\":12514:13403  function liquidation(... */\n    tag_95:\n        /* \"contracts/mirrorseaMain.sol\":3370:3380  msg.sender */\n      caller\n        /* \"contracts/mirrorseaMain.sol\":12770:12774  bool */\n      0x00\n        /* \"contracts/mirrorseaMain.sol\":3361:3381  executor[msg.sender] */\n      swap1\n      dup2\n      mstore\n        /* \"contracts/mirrorseaMain.sol\":3361:3369  executor */\n      0x65\n        /* \"contracts/mirrorseaMain.sol\":3361:3381  executor[msg.sender] */\n      0x20\n      mstore\n      0x40\n      dup2\n      keccak256\n      sload\n      0xff\n      and\n        /* \"contracts/mirrorseaMain.sol\":3353:3422  require(executor[msg.sender], \"executor: caller is not the executor\") */\n      tag_268\n      jumpi\n      mload(0x40)\n      shl(0xe5, 0x461bcd)\n      dup2\n      mstore\n      0x04\n      add\n      tag_213\n      swap1\n      tag_270\n      jump\t// in\n    tag_268:\n        /* \"contracts/mirrorseaMain.sol\":12786:12800  uint256 number */\n      0x00\n        /* \"contracts/mirrorseaMain.sol\":12819:12828  uint256 i */\n      dup1\n        /* \"contracts/mirrorseaMain.sol\":12814:13328  for (uint256 i = 0; i < _id.length; i++) {... */\n    tag_272:\n        /* \"contracts/mirrorseaMain.sol\":12838:12841  _id */\n      dup8\n        /* \"contracts/mirrorseaMain.sol\":12838:12848  _id.length */\n      mload\n        /* \"contracts/mirrorseaMain.sol\":12834:12835  i */\n      dup2\n        /* \"contracts/mirrorseaMain.sol\":12834:12848  i < _id.length */\n      lt\n        /* \"contracts/mirrorseaMain.sol\":12814:13328  for (uint256 i = 0; i < _id.length; i++) {... */\n      iszero\n      tag_273\n      jumpi\n        /* \"contracts/mirrorseaMain.sol\":12869:12892  OrderInfo storage order */\n      0x00\n        /* \"contracts/mirrorseaMain.sol\":12895:12905  _orderInfo */\n      0x6a\n        /* \"contracts/mirrorseaMain.sol\":12895:12913  _orderInfo[_id[i]] */\n      0x00\n        /* \"contracts/mirrorseaMain.sol\":12906:12909  _id */\n      dup11\n        /* \"contracts/mirrorseaMain.sol\":12910:12911  i */\n      dup5\n        /* \"contracts/mirrorseaMain.sol\":12906:12912  _id[i] */\n      dup2\n      mload\n      dup2\n      lt\n      tag_275\n      jumpi\n      mstore(0x00, shl(0xe0, 0x4e487b71))\n      mstore(0x04, 0x32)\n      revert(0x00, 0x24)\n    tag_275:\n      0x20\n      mul\n      0x20\n      add\n      add\n      mload\n        /* \"contracts/mirrorseaMain.sol\":12895:12913  _orderInfo[_id[i]] */\n      dup2\n      mstore\n      0x20\n      add\n      swap1\n      dup2\n      mstore\n      0x20\n      add\n      0x00\n      keccak256\n        /* \"contracts/mirrorseaMain.sol\":12869:12913  OrderInfo storage order = _orderInfo[_id[i]] */\n      swap1\n      pop\n        /* \"contracts/mirrorseaMain.sol\":12932:12977  _isSolvent(_id[i], _price18[i], order.margin) */\n      tag_276\n        /* \"contracts/mirrorseaMain.sol\":12943:12946  _id */\n      dup10\n        /* \"contracts/mirrorseaMain.sol\":12947:12948  i */\n      dup4\n        /* \"contracts/mirrorseaMain.sol\":12943:12949  _id[i] */\n      dup2\n      mload\n      dup2\n      lt\n      tag_277\n      jumpi\n      mstore(0x00, shl(0xe0, 0x4e487b71))\n      mstore(0x04, 0x32)\n      revert(0x00, 0x24)\n    tag_277:\n      0x20\n      mul\n      0x20\n      add\n      add\n      mload\n        /* \"contracts/mirrorseaMain.sol\":12951:12959  _price18 */\n      dup8\n        /* \"contracts/mirrorseaMain.sol\":12960:12961  i */\n      dup5\n        /* \"contracts/mirrorseaMain.sol\":12951:12962  _price18[i] */\n      dup2\n      mload\n      dup2\n      lt\n      tag_278\n      jumpi\n      mstore(0x00, shl(0xe0, 0x4e487b71))\n      mstore(0x04, 0x32)\n      revert(0x00, 0x24)\n    tag_278:\n      0x20\n      mul\n      0x20\n      add\n      add\n      mload\n        /* \"contracts/mirrorseaMain.sol\":12964:12969  order */\n      dup4\n        /* \"contracts/mirrorseaMain.sol\":12964:12976  order.margin */\n      0x0a\n      add\n      sload\n        /* \"contracts/mirrorseaMain.sol\":12932:12942  _isSolvent */\n      tag_74\n        /* \"contracts/mirrorseaMain.sol\":12932:12977  _isSolvent(_id[i], _price18[i], order.margin) */\n      jump\t// in\n    tag_276:\n        /* \"contracts/mirrorseaMain.sol\":12927:13318  if (!_isSolvent(_id[i], _price18[i], order.margin)) {... */\n      tag_279\n      jumpi\n        /* \"contracts/mirrorseaMain.sol\":12997:13005  number++ */\n      dup3\n      tag_280\n      dup2\n      tag_228\n      jump\t// in\n    tag_280:\n      swap4\n      pop\n      pop\n        /* \"contracts/mirrorseaMain.sol\":13023:13303  _closePosition(... */\n      tag_281\n        /* \"contracts/mirrorseaMain.sol\":13059:13071  _marketState */\n      dup11\n        /* \"contracts/mirrorseaMain.sol\":13093:13098  order */\n      dup3\n        /* \"contracts/mirrorseaMain.sol\":13120:13121  3 */\n      0x03\n        /* \"contracts/mirrorseaMain.sol\":13143:13146  _id */\n      dup13\n        /* \"contracts/mirrorseaMain.sol\":13147:13148  i */\n      dup7\n        /* \"contracts/mirrorseaMain.sol\":13143:13149  _id[i] */\n      dup2\n      mload\n      dup2\n      lt\n      tag_282\n      jumpi\n      mstore(0x00, shl(0xe0, 0x4e487b71))\n      mstore(0x04, 0x32)\n      revert(0x00, 0x24)\n    tag_282:\n      0x20\n      mul\n      0x20\n      add\n      add\n      mload\n        /* \"contracts/mirrorseaMain.sol\":13171:13181  _timestamp */\n      dup13\n        /* \"contracts/mirrorseaMain.sol\":13182:13183  i */\n      dup8\n        /* \"contracts/mirrorseaMain.sol\":13171:13184  _timestamp[i] */\n      dup2\n      mload\n      dup2\n      lt\n      tag_283\n      jumpi\n      mstore(0x00, shl(0xe0, 0x4e487b71))\n      mstore(0x04, 0x32)\n      revert(0x00, 0x24)\n    tag_283:\n      0x20\n      mul\n      0x20\n      add\n      add\n      mload\n        /* \"contracts/mirrorseaMain.sol\":13206:13214  _symbols */\n      dup13\n        /* \"contracts/mirrorseaMain.sol\":13215:13216  i */\n      dup9\n        /* \"contracts/mirrorseaMain.sol\":13206:13217  _symbols[i] */\n      dup2\n      mload\n      dup2\n      lt\n      tag_284\n      jumpi\n      mstore(0x00, shl(0xe0, 0x4e487b71))\n      mstore(0x04, 0x32)\n      revert(0x00, 0x24)\n    tag_284:\n      0x20\n      mul\n      0x20\n      add\n      add\n      mload\n        /* \"contracts/mirrorseaMain.sol\":13239:13247  _price18 */\n      dup13\n        /* \"contracts/mirrorseaMain.sol\":13248:13249  i */\n      dup10\n        /* \"contracts/mirrorseaMain.sol\":13239:13250  _price18[i] */\n      dup2\n      mload\n      dup2\n      lt\n      tag_285\n      jumpi\n      mstore(0x00, shl(0xe0, 0x4e487b71))\n      mstore(0x04, 0x32)\n      revert(0x00, 0x24)\n    tag_285:\n      0x20\n      mul\n      0x20\n      add\n      add\n      mload\n        /* \"contracts/mirrorseaMain.sol\":13272:13282  _signature */\n      dup13\n        /* \"contracts/mirrorseaMain.sol\":13283:13284  i */\n      dup11\n        /* \"contracts/mirrorseaMain.sol\":13272:13285  _signature[i] */\n      dup2\n      mload\n      dup2\n      lt\n      tag_286\n      jumpi\n      mstore(0x00, shl(0xe0, 0x4e487b71))\n      mstore(0x04, 0x32)\n      revert(0x00, 0x24)\n    tag_286:\n      0x20\n      mul\n      0x20\n      add\n      add\n      mload\n        /* \"contracts/mirrorseaMain.sol\":13023:13037  _closePosition */\n      tag_287\n        /* \"contracts/mirrorseaMain.sol\":13023:13303  _closePosition(... */\n      jump\t// in\n    tag_281:\n      pop\n        /* \"contracts/mirrorseaMain.sol\":12927:13318  if (!_isSolvent(_id[i], _price18[i], order.margin)) {... */\n    tag_279:\n      pop\n        /* \"contracts/mirrorseaMain.sol\":12850:12853  i++ */\n      dup1\n      tag_288\n      dup2\n      tag_228\n      jump\t// in\n    tag_288:\n      swap2\n      pop\n      pop\n        /* \"contracts/mirrorseaMain.sol\":12814:13328  for (uint256 i = 0; i < _id.length; i++) {... */\n      jump(tag_272)\n    tag_273:\n      pop\n        /* \"contracts/mirrorseaMain.sol\":13345:13356  number != 0 */\n      dup1\n        /* \"contracts/mirrorseaMain.sol\":13337:13375  require(number != 0, \"No liquidation\") */\n      tag_289\n      jumpi\n      mload(0x40)\n      shl(0xe5, 0x461bcd)\n      dup2\n      mstore\n      0x04\n      add\n      tag_213\n      swap1\n      tag_291\n      jump\t// in\n    tag_289:\n      pop\n        /* \"contracts/mirrorseaMain.sol\":13392:13396  true */\n      0x01\n      swap8\n        /* \"contracts/mirrorseaMain.sol\":12514:13403  function liquidation(... */\n      swap7\n      pop\n      pop\n      pop\n      pop\n      pop\n      pop\n      pop\n      jump\t// out\n        /* \"contracts/mirrorseaMain.sol\":3740:3852  function orderInfo(uint256 _id) external view returns (OrderInfo memory) {... */\n    tag_99:\n        /* \"contracts/mirrorseaMain.sol\":3795:3811  OrderInfo memory */\n      tag_292\n      tag_293\n      jump\t// in\n    tag_292:\n        /* \"contracts/mirrorseaMain.sol\":3830:3845  _orderInfo[_id] */\n      0x00\n      dup3\n      dup2\n      mstore\n        /* \"contracts/mirrorseaMain.sol\":3830:3840  _orderInfo */\n      0x6a\n        /* \"contracts/mirrorseaMain.sol\":3830:3845  _orderInfo[_id] */\n      0x20\n      swap1\n      dup2\n      mstore\n      0x40\n      swap2\n      dup3\n      swap1\n      keccak256\n        /* \"contracts/mirrorseaMain.sol\":3823:3845  return _orderInfo[_id] */\n      dup3\n      mload\n      0x0160\n      dup2\n      add\n      dup5\n      mstore\n      dup2\n      sload\n      sub(shl(0xa0, 0x01), 0x01)\n      and\n      dup2\n      mstore\n      0x01\n      dup3\n      add\n      sload\n      swap3\n      dup2\n      add\n      swap3\n      swap1\n      swap3\n      mstore\n      0x02\n      dup2\n      add\n      dup1\n      sload\n      swap3\n      swap4\n        /* \"contracts/mirrorseaMain.sol\":3830:3845  _orderInfo[_id] */\n      swap2\n      swap3\n        /* \"contracts/mirrorseaMain.sol\":3823:3845  return _orderInfo[_id] */\n      swap2\n      dup5\n      add\n      swap2\n      tag_295\n      swap1\n      tag_296\n      jump\t// in\n    tag_295:\n      dup1\n      0x1f\n      add\n      0x20\n      dup1\n      swap2\n      div\n      mul\n      0x20\n      add\n      mload(0x40)\n      swap1\n      dup2\n      add\n      0x40\n      mstore\n      dup1\n      swap3\n      swap2\n      swap1\n      dup2\n      dup2\n      mstore\n      0x20\n      add\n      dup3\n      dup1\n      sload\n      tag_297\n      swap1\n      tag_296\n      jump\t// in\n    tag_297:\n      dup1\n      iszero\n      tag_298\n      jumpi\n      dup1\n      0x1f\n      lt\n      tag_299\n      jumpi\n      0x0100\n      dup1\n      dup4\n      sload\n      div\n      mul\n      dup4\n      mstore\n      swap2\n      0x20\n      add\n      swap2\n      jump(tag_298)\n    tag_299:\n      dup3\n      add\n      swap2\n      swap1\n      0x00\n      mstore\n      keccak256(0x00, 0x20)\n      swap1\n    tag_300:\n      dup2\n      sload\n      dup2\n      mstore\n      swap1\n      0x01\n      add\n      swap1\n      0x20\n      add\n      dup1\n      dup4\n      gt\n      tag_300\n      jumpi\n      dup3\n      swap1\n      sub\n      0x1f\n      and\n      dup3\n      add\n      swap2\n    tag_298:\n      pop\n      pop\n      pop\n      pop\n      pop\n      dup2\n      mstore\n      0x20\n      add\n      0x03\n      dup3\n      add\n      sload\n      dup2\n      mstore\n      0x20\n      add\n      0x04\n      dup3\n      add\n      sload\n      dup2\n      mstore\n      0x20\n      add\n      0x05\n      dup3\n      add\n      sload\n      dup2\n      mstore\n      0x20\n      add\n      0x06\n      dup3\n      add\n      sload\n      dup2\n      mstore\n      0x20\n      add\n      0x07\n      dup3\n      add\n      sload\n      dup2\n      mstore\n      0x20\n      add\n      0x08\n      dup3\n      add\n      sload\n      dup2\n      mstore\n      0x20\n      add\n      0x09\n      dup3\n      add\n      sload\n      dup2\n      mstore\n      0x20\n      add\n      0x0a\n      dup3\n      add\n      sload\n      dup2\n      mstore\n      pop\n      pop\n      swap1\n      pop\n        /* \"contracts/mirrorseaMain.sol\":3740:3852  function orderInfo(uint256 _id) external view returns (OrderInfo memory) {... */\n    tag_294:\n      swap2\n      swap1\n      pop\n      jump\t// out\n        /* \"contracts/mirrorseaMain.sol\":3608:3734  function setSigner(address _address) external onlyOwner returns (bool) {... */\n    tag_104:\n        /* \"contracts/mirrorseaMain.sol\":3673:3677  bool */\n      0x00\n        /* \"@openzeppelin/contracts-upgradeable/access/OwnableUpgradeable.sol\":1525:1537  _msgSender() */\n      tag_302\n        /* \"@openzeppelin/contracts-upgradeable/access/OwnableUpgradeable.sol\":1525:1535  _msgSender */\n      tag_235\n        /* \"@openzeppelin/contracts-upgradeable/access/OwnableUpgradeable.sol\":1525:1537  _msgSender() */\n      jump\t// in\n    tag_302:\n      sub(shl(0xa0, 0x01), 0x01)\n        /* \"@openzeppelin/contracts-upgradeable/access/OwnableUpgradeable.sol\":1514:1537  owner() == _msgSender() */\n      and\n        /* \"@openzeppelin/contracts-upgradeable/access/OwnableUpgradeable.sol\":1514:1521  owner() */\n      tag_303\n        /* \"@openzeppelin/contracts-upgradeable/access/OwnableUpgradeable.sol\":1514:1519  owner */\n      tag_130\n        /* \"@openzeppelin/contracts-upgradeable/access/OwnableUpgradeable.sol\":1514:1521  owner() */\n      jump\t// in\n    tag_303:\n      sub(shl(0xa0, 0x01), 0x01)\n        /* \"@openzeppelin/contracts-upgradeable/access/OwnableUpgradeable.sol\":1514:1537  owner() == _msgSender() */\n      and\n      eq\n        /* \"@openzeppelin/contracts-upgradeable/access/OwnableUpgradeable.sol\":1506:1574  require(owner() == _msgSender(), \"Ownable: caller is not the owner\") */\n      tag_304\n      jumpi\n      mload(0x40)\n      shl(0xe5, 0x461bcd)\n      dup2\n      mstore\n      0x04\n      add\n      tag_213\n      swap1\n      tag_239\n      jump\t// in\n    tag_304:\n      pop\n        /* \"contracts/mirrorseaMain.sol\":3689:3695  signer */\n      0x66\n        /* \"contracts/mirrorseaMain.sol\":3689:3706  signer = _address */\n      dup1\n      sload\n      sub(shl(0xa0, 0x01), 0x01)\n      dup4\n      and\n      not(sub(shl(0xa0, 0x01), 0x01))\n      swap1\n      swap2\n      and\n      or\n      swap1\n      sstore\n      0x01\n        /* \"contracts/mirrorseaMain.sol\":3608:3734  function setSigner(address _address) external onlyOwner returns (bool) {... */\n      swap2\n      swap1\n      pop\n      jump\t// out\n        /* \"contracts/mirrorseaMain.sol\":11530:12122  function closePosition(... */\n    tag_109:\n        /* \"contracts/mirrorseaMain.sol\":11744:11748  bool */\n      0x00\n        /* \"contracts/mirrorseaMain.sol\":11786:11801  _orderInfo[_id] */\n      dup6\n      dup2\n      mstore\n        /* \"contracts/mirrorseaMain.sol\":11786:11796  _orderInfo */\n      0x6a\n        /* \"contracts/mirrorseaMain.sol\":11786:11801  _orderInfo[_id] */\n      0x20\n      mstore\n      0x40\n      dup2\n      keccak256\n        /* \"contracts/mirrorseaMain.sol\":11819:11829  order.user */\n      dup1\n      sload\n      sub(shl(0xa0, 0x01), 0x01)\n      and\n        /* \"contracts/mirrorseaMain.sol\":11833:11843  msg.sender */\n      caller\n        /* \"contracts/mirrorseaMain.sol\":11819:11843  order.user == msg.sender */\n      eq\n        /* \"contracts/mirrorseaMain.sol\":11811:11856  require(order.user == msg.sender, \"user err\") */\n      tag_308\n      jumpi\n      mload(0x40)\n      shl(0xe5, 0x461bcd)\n      dup2\n      mstore\n      0x04\n      add\n      tag_213\n      swap1\n      tag_310\n      jump\t// in\n    tag_308:\n        /* \"contracts/mirrorseaMain.sol\":11886:12115  _closePosition(... */\n      tag_311\n        /* \"contracts/mirrorseaMain.sol\":11918:11930  _marketState */\n      dup9\n        /* \"contracts/mirrorseaMain.sol\":11948:11953  order */\n      dup3\n        /* \"contracts/mirrorseaMain.sol\":11971:11972  2 */\n      0x02\n        /* \"contracts/mirrorseaMain.sol\":11990:11993  _id */\n      dup11\n        /* \"contracts/mirrorseaMain.sol\":12011:12021  _timestamp */\n      dup11\n        /* \"contracts/mirrorseaMain.sol\":12039:12047  _symbols */\n      dup11\n        /* \"contracts/mirrorseaMain.sol\":12065:12073  _price18 */\n      dup11\n        /* \"contracts/mirrorseaMain.sol\":12091:12101  _signature */\n      dup11\n        /* \"contracts/mirrorseaMain.sol\":11886:11900  _closePosition */\n      tag_287\n        /* \"contracts/mirrorseaMain.sol\":11886:12115  _closePosition(... */\n      jump\t// in\n    tag_311:\n        /* \"contracts/mirrorseaMain.sol\":11867:12115  return... */\n      swap9\n        /* \"contracts/mirrorseaMain.sol\":11530:12122  function closePosition(... */\n      swap8\n      pop\n      pop\n      pop\n      pop\n      pop\n      pop\n      pop\n      pop\n      jump\t// out\n        /* \"@openzeppelin/contracts-upgradeable/access/OwnableUpgradeable.sol\":1934:2035  function renounceOwnership() public virtual onlyOwner {... */\n    tag_112:\n        /* \"@openzeppelin/contracts-upgradeable/access/OwnableUpgradeable.sol\":1525:1537  _msgSender() */\n      tag_313\n        /* \"@openzeppelin/contracts-upgradeable/access/OwnableUpgradeable.sol\":1525:1535  _msgSender */\n      tag_235\n        /* \"@openzeppelin/contracts-upgradeable/access/OwnableUpgradeable.sol\":1525:1537  _msgSender() */\n      jump\t// in\n    tag_313:\n      sub(shl(0xa0, 0x01), 0x01)\n        /* \"@openzeppelin/contracts-upgradeable/access/OwnableUpgradeable.sol\":1514:1537  owner() == _msgSender() */\n      and\n        /* \"@openzeppelin/contracts-upgradeable/access/OwnableUpgradeable.sol\":1514:1521  owner() */\n      tag_314\n        /* \"@openzeppelin/contracts-upgradeable/access/OwnableUpgradeable.sol\":1514:1519  owner */\n      tag_130\n        /* \"@openzeppelin/contracts-upgradeable/access/OwnableUpgradeable.sol\":1514:1521  owner() */\n      jump\t// in\n    tag_314:\n      sub(shl(0xa0, 0x01), 0x01)\n        /* \"@openzeppelin/contracts-upgradeable/access/OwnableUpgradeable.sol\":1514:1537  owner() == _msgSender() */\n      and\n      eq\n        /* \"@openzeppelin/contracts-upgradeable/access/OwnableUpgradeable.sol\":1506:1574  require(owner() == _msgSender(), \"Ownable: caller is not the owner\") */\n      tag_315\n      jumpi\n      mload(0x40)\n      shl(0xe5, 0x461bcd)\n      dup2\n      mstore\n      0x04\n      add\n      tag_213\n      swap1\n      tag_239\n      jump\t// in\n    tag_315:\n        /* \"@openzeppelin/contracts-upgradeable/access/OwnableUpgradeable.sol\":1998:2028  _transferOwnership(address(0)) */\n      tag_318\n        /* \"@openzeppelin/contracts-upgradeable/access/OwnableUpgradeable.sol\":2025:2026  0 */\n      0x00\n        /* \"@openzeppelin/contracts-upgradeable/access/OwnableUpgradeable.sol\":1998:2016  _transferOwnership */\n      tag_319\n        /* \"@openzeppelin/contracts-upgradeable/access/OwnableUpgradeable.sol\":1998:2028  _transferOwnership(address(0)) */\n      jump\t// in\n    tag_318:\n        /* \"@openzeppelin/contracts-upgradeable/access/OwnableUpgradeable.sol\":1934:2035  function renounceOwnership() public virtual onlyOwner {... */\n      jump\t// out\n        /* \"contracts/mirrorseaMain.sol\":1508:1594  mapping(address => mapping(uint256 => uint256))... */\n    tag_116:\n      0x6f\n      0x20\n      swap1\n      dup2\n      mstore\n      0x00\n      swap3\n      dup4\n      mstore\n      0x40\n      dup1\n      dup5\n      keccak256\n      swap1\n      swap2\n      mstore\n      swap1\n      dup3\n      mstore\n      swap1\n      keccak256\n      sload\n      dup2\n      jump\t// out\n        /* \"contracts/mirrorseaMain.sol\":3463:3589  function setFeePercent(uint256 _val) external onlyOwner returns (bool) {... */\n    tag_120:\n        /* \"contracts/mirrorseaMain.sol\":3528:3532  bool */\n      0x00\n        /* \"@openzeppelin/contracts-upgradeable/access/OwnableUpgradeable.sol\":1525:1537  _msgSender() */\n      tag_321\n        /* \"@openzeppelin/contracts-upgradeable/access/OwnableUpgradeable.sol\":1525:1535  _msgSender */\n      tag_235\n        /* \"@openzeppelin/contracts-upgradeable/access/OwnableUpgradeable.sol\":1525:1537  _msgSender() */\n      jump\t// in\n    tag_321:\n      sub(shl(0xa0, 0x01), 0x01)\n        /* \"@openzeppelin/contracts-upgradeable/access/OwnableUpgradeable.sol\":1514:1537  owner() == _msgSender() */\n      and\n        /* \"@openzeppelin/contracts-upgradeable/access/OwnableUpgradeable.sol\":1514:1521  owner() */\n      tag_322\n        /* \"@openzeppelin/contracts-upgradeable/access/OwnableUpgradeable.sol\":1514:1519  owner */\n      tag_130\n        /* \"@openzeppelin/contracts-upgradeable/access/OwnableUpgradeable.sol\":1514:1521  owner() */\n      jump\t// in\n    tag_322:\n      sub(shl(0xa0, 0x01), 0x01)\n        /* \"@openzeppelin/contracts-upgradeable/access/OwnableUpgradeable.sol\":1514:1537  owner() == _msgSender() */\n      and\n      eq\n        /* \"@openzeppelin/contracts-upgradeable/access/OwnableUpgradeable.sol\":1506:1574  require(owner() == _msgSender(), \"Ownable: caller is not the owner\") */\n      tag_323\n      jumpi\n      mload(0x40)\n      shl(0xe5, 0x461bcd)\n      dup2\n      mstore\n      0x04\n      add\n      tag_213\n      swap1\n      tag_239\n      jump\t// in\n    tag_323:\n      pop\n        /* \"contracts/mirrorseaMain.sol\":3544:3554  feePercent */\n      0x72\n        /* \"contracts/mirrorseaMain.sol\":3544:3561  feePercent = _val */\n      sstore\n        /* \"contracts/mirrorseaMain.sol\":3578:3582  true */\n      0x01\n      swap1\n        /* \"contracts/mirrorseaMain.sol\":3463:3589  function setFeePercent(uint256 _val) external onlyOwner returns (bool) {... */\n      jump\t// out\n        /* \"contracts/mirrorseaMain.sol\":1233:1254  IOracle public oracle */\n    tag_123:\n      and(sub(shl(0xa0, 0x01), 0x01), sload(0x69))\n      dup2\n      jump\t// out\n        /* \"contracts/mirrorseaMain.sol\":1756:1781  uint256 public feePercent */\n    tag_127:\n      sload(0x72)\n      dup2\n      jump\t// out\n        /* \"@openzeppelin/contracts-upgradeable/access/OwnableUpgradeable.sol\":1302:1387  function owner() public view virtual returns (address) {... */\n    tag_130:\n        /* \"@openzeppelin/contracts-upgradeable/access/OwnableUpgradeable.sol\":1374:1380  _owner */\n      and(sub(shl(0xa0, 0x01), 0x01), sload(0x33))\n        /* \"@openzeppelin/contracts-upgradeable/access/OwnableUpgradeable.sol\":1302:1387  function owner() public view virtual returns (address) {... */\n      swap1\n      jump\t// out\n        /* \"contracts/mirrorseaMain.sol\":13409:13962  function forcedLiquidation(... */\n    tag_134:\n        /* \"contracts/mirrorseaMain.sol\":3370:3380  msg.sender */\n      caller\n        /* \"contracts/mirrorseaMain.sol\":13640:13644  bool */\n      0x00\n        /* \"contracts/mirrorseaMain.sol\":3361:3381  executor[msg.sender] */\n      swap1\n      dup2\n      mstore\n        /* \"contracts/mirrorseaMain.sol\":3361:3369  executor */\n      0x65\n        /* \"contracts/mirrorseaMain.sol\":3361:3381  executor[msg.sender] */\n      0x20\n      mstore\n      0x40\n      dup2\n      keccak256\n      sload\n      0xff\n      and\n        /* \"contracts/mirrorseaMain.sol\":3353:3422  require(executor[msg.sender], \"executor: caller is not the executor\") */\n      tag_328\n      jumpi\n      mload(0x40)\n      shl(0xe5, 0x461bcd)\n      dup2\n      mstore\n      0x04\n      add\n      tag_213\n      swap1\n      tag_270\n      jump\t// in\n    tag_328:\n        /* \"contracts/mirrorseaMain.sol\":13656:13679  OrderInfo storage order */\n      0x00\n        /* \"contracts/mirrorseaMain.sol\":13682:13697  _orderInfo[_id] */\n      dup7\n      dup2\n      mstore\n        /* \"contracts/mirrorseaMain.sol\":13682:13692  _orderInfo */\n      0x6a\n        /* \"contracts/mirrorseaMain.sol\":13682:13697  _orderInfo[_id] */\n      0x20\n      mstore\n      0x40\n      swap1\n      keccak256\n        /* \"contracts/mirrorseaMain.sol\":13726:13955  _closePosition(... */\n      tag_311\n        /* \"contracts/mirrorseaMain.sol\":13758:13770  _marketState */\n      dup9\n        /* \"contracts/mirrorseaMain.sol\":13682:13697  _orderInfo[_id] */\n      dup3\n        /* \"contracts/mirrorseaMain.sol\":13811:13812  4 */\n      0x04\n        /* \"contracts/mirrorseaMain.sol\":13693:13696  _id */\n      dup11\n        /* \"contracts/mirrorseaMain.sol\":13851:13861  _timestamp */\n      dup11\n        /* \"contracts/mirrorseaMain.sol\":13879:13887  _symbols */\n      dup11\n        /* \"contracts/mirrorseaMain.sol\":13905:13913  _price18 */\n      dup11\n        /* \"contracts/mirrorseaMain.sol\":13931:13941  _signature */\n      dup11\n        /* \"contracts/mirrorseaMain.sol\":13726:13740  _closePosition */\n      tag_287\n        /* \"contracts/mirrorseaMain.sol\":13726:13955  _closePosition(... */\n      jump\t// in\n        /* \"contracts/mirrorseaMain.sol\":15259:16997  function adjustPosition(... */\n    tag_139:\n        /* \"contracts/mirrorseaMain.sol\":15505:15509  bool */\n      0x00\n        /* \"contracts/mirrorseaMain.sol\":15547:15562  _orderInfo[_id] */\n      dup7\n      dup2\n      mstore\n        /* \"contracts/mirrorseaMain.sol\":15547:15557  _orderInfo */\n      0x6a\n        /* \"contracts/mirrorseaMain.sol\":15547:15562  _orderInfo[_id] */\n      0x20\n      mstore\n      0x40\n      dup2\n      keccak256\n        /* \"contracts/mirrorseaMain.sol\":15580:15590  order.user */\n      dup1\n      sload\n      sub(shl(0xa0, 0x01), 0x01)\n      and\n        /* \"contracts/mirrorseaMain.sol\":15572:15629  require(order.user != address(0), \"order does not exist\") */\n      tag_333\n      jumpi\n      mload(0x40)\n      shl(0xe5, 0x461bcd)\n      dup2\n      mstore\n      0x04\n      add\n      tag_213\n      swap1\n      tag_335\n      jump\t// in\n    tag_333:\n        /* \"contracts/mirrorseaMain.sol\":15661:15662  2 */\n      0x02\n        /* \"contracts/mirrorseaMain.sol\":15647:15652  order */\n      dup2\n        /* \"contracts/mirrorseaMain.sol\":15647:15658  order.state */\n      0x03\n      add\n      sload\n        /* \"contracts/mirrorseaMain.sol\":15647:15662  order.state < 2 */\n      lt\n        /* \"contracts/mirrorseaMain.sol\":15639:15676  require(order.state < 2, \"state err\") */\n      tag_336\n      jumpi\n      mload(0x40)\n      shl(0xe5, 0x461bcd)\n      dup2\n      mstore\n      0x04\n      add\n      tag_213\n      swap1\n      tag_338\n      jump\t// in\n    tag_336:\n        /* \"contracts/mirrorseaMain.sol\":15707:15713  oracle */\n      sload(0x69)\n        /* \"contracts/mirrorseaMain.sol\":15707:15872  oracle.getkey(... */\n      mload(0x40)\n      shl(0xe1, 0x11cdc9d9)\n      dup2\n      mstore\n      sub(shl(0xa0, 0x01), 0x01)\n        /* \"contracts/mirrorseaMain.sol\":15707:15713  oracle */\n      swap1\n      swap2\n      and\n      swap1\n        /* \"contracts/mirrorseaMain.sol\":15707:15720  oracle.getkey */\n      0x239b93b2\n      swap1\n        /* \"contracts/mirrorseaMain.sol\":15707:15872  oracle.getkey(... */\n      tag_339\n      swap1\n        /* \"contracts/mirrorseaMain.sol\":15738:15750  _marketState */\n      dup13\n      swap1\n        /* \"contracts/mirrorseaMain.sol\":15768:15776  _price18 */\n      dup10\n      swap1\n        /* \"contracts/mirrorseaMain.sol\":15794:15804  _timestamp */\n      dup13\n      swap1\n        /* \"contracts/mirrorseaMain.sol\":15822:15830  _symbols */\n      dup13\n      swap1\n        /* \"contracts/mirrorseaMain.sol\":15848:15858  _signature */\n      dup12\n      swap1\n        /* \"contracts/mirrorseaMain.sol\":15707:15872  oracle.getkey(... */\n      0x04\n      add\n      tag_340\n      jump\t// in\n    tag_339:\n      0x20\n      mload(0x40)\n      dup1\n      dup4\n      sub\n      dup2\n      dup7\n      dup1\n      extcodesize\n      iszero\n      dup1\n      iszero\n      tag_341\n      jumpi\n      0x00\n      dup1\n      revert\n    tag_341:\n      pop\n      gas\n      staticcall\n      iszero\n      dup1\n      iszero\n      tag_343\n      jumpi\n      returndatasize\n      0x00\n      dup1\n      returndatacopy\n      revert(0x00, returndatasize)\n    tag_343:\n      pop\n      pop\n      pop\n      pop\n      mload(0x40)\n      returndatasize\n      not(0x1f)\n      0x1f\n      dup3\n      add\n      and\n      dup3\n      add\n      dup1\n      0x40\n      mstore\n      pop\n      dup2\n      add\n      swap1\n      tag_344\n      swap2\n      swap1\n      tag_345\n      jump\t// in\n    tag_344:\n        /* \"contracts/mirrorseaMain.sol\":15686:15908  require(... */\n      tag_346\n      jumpi\n      mload(0x40)\n      shl(0xe5, 0x461bcd)\n      dup2\n      mstore\n      0x04\n      add\n      tag_213\n      swap1\n      tag_348\n      jump\t// in\n    tag_346:\n        /* \"contracts/mirrorseaMain.sol\":15926:15966  _isSolvent(_id, _price18, _adjustMargin) */\n      tag_349\n        /* \"contracts/mirrorseaMain.sol\":15937:15940  _id */\n      dup9\n        /* \"contracts/mirrorseaMain.sol\":15942:15950  _price18 */\n      dup7\n        /* \"contracts/mirrorseaMain.sol\":15952:15965  _adjustMargin */\n      dup6\n        /* \"contracts/mirrorseaMain.sol\":15926:15936  _isSolvent */\n      tag_74\n        /* \"contracts/mirrorseaMain.sol\":15926:15966  _isSolvent(_id, _price18, _adjustMargin) */\n      jump\t// in\n    tag_349:\n        /* \"contracts/mirrorseaMain.sol\":15918:15987  require(_isSolvent(_id, _price18, _adjustMargin), \"User is bankrupt\") */\n      tag_350\n      jumpi\n      mload(0x40)\n      shl(0xe5, 0x461bcd)\n      dup2\n      mstore\n      0x04\n      add\n      tag_213\n      swap1\n      tag_352\n      jump\t// in\n    tag_350:\n        /* \"contracts/mirrorseaMain.sol\":15998:16009  uint256 fee */\n      0x00\n        /* \"contracts/mirrorseaMain.sol\":16012:16141  order... */\n      tag_353\n        /* \"contracts/mirrorseaMain.sol\":16136:16140  1e18 */\n      0x0de0b6b3a7640000\n        /* \"contracts/mirrorseaMain.sol\":16012:16118  order... */\n      tag_246\n        /* \"contracts/mirrorseaMain.sol\":16108:16117  PRECISION */\n      sload(0x73)\n        /* \"contracts/mirrorseaMain.sol\":16012:16090  order... */\n      tag_246\n        /* \"contracts/mirrorseaMain.sol\":16079:16089  feePercent */\n      sload(0x72)\n        /* \"contracts/mirrorseaMain.sol\":16012:16061  order... */\n      tag_251\n        /* \"contracts/mirrorseaMain.sol\":16052:16060  _price18 */\n      dup13\n        /* \"contracts/mirrorseaMain.sol\":16012:16017  order */\n      dup10\n        /* \"contracts/mirrorseaMain.sol\":16012:16034  order... */\n      0x09\n      add\n      sload\n        /* \"contracts/mirrorseaMain.sol\":16012:16051  order... */\n      tag_206\n      swap1\n        /* \"contracts/mirrorseaMain.sol\":16012:16061  order... */\n      swap2\n      swap1\n      0xffffffff\n      and\n      jump\t// in\n        /* \"contracts/mirrorseaMain.sol\":16012:16141  order... */\n    tag_353:\n        /* \"contracts/mirrorseaMain.sol\":15998:16141  uint256 fee = order... */\n      swap1\n      pop\n        /* \"contracts/mirrorseaMain.sol\":16151:16163  uint256 earn */\n      0x00\n        /* \"contracts/mirrorseaMain.sol\":16166:16271  (_price18.mul(order.amt).div(1e18)).sub(... */\n      tag_357\n        /* \"contracts/mirrorseaMain.sol\":16219:16261  order.openPrice18.mul(order.amt).div(1e18) */\n      tag_358\n        /* \"contracts/mirrorseaMain.sol\":16256:16260  1e18 */\n      0x0de0b6b3a7640000\n        /* \"contracts/mirrorseaMain.sol\":16219:16251  order.openPrice18.mul(order.amt) */\n      tag_246\n        /* \"contracts/mirrorseaMain.sol\":16241:16246  order */\n      dup7\n        /* \"contracts/mirrorseaMain.sol\":16241:16250  order.amt */\n      0x09\n      add\n      sload\n        /* \"contracts/mirrorseaMain.sol\":16219:16224  order */\n      dup8\n        /* \"contracts/mirrorseaMain.sol\":16219:16236  order.openPrice18 */\n      0x05\n      add\n      sload\n        /* \"contracts/mirrorseaMain.sol\":16219:16240  order.openPrice18.mul */\n      tag_206\n      swap1\n        /* \"contracts/mirrorseaMain.sol\":16219:16251  order.openPrice18.mul(order.amt) */\n      swap2\n      swap1\n      0xffffffff\n      and\n      jump\t// in\n        /* \"contracts/mirrorseaMain.sol\":16219:16261  order.openPrice18.mul(order.amt).div(1e18) */\n    tag_358:\n        /* \"contracts/mirrorseaMain.sol\":16167:16200  _price18.mul(order.amt).div(1e18) */\n      tag_205\n        /* \"contracts/mirrorseaMain.sol\":16195:16199  1e18 */\n      0x0de0b6b3a7640000\n        /* \"contracts/mirrorseaMain.sol\":16167:16190  _price18.mul(order.amt) */\n      tag_246\n        /* \"contracts/mirrorseaMain.sol\":16180:16185  order */\n      dup8\n        /* \"contracts/mirrorseaMain.sol\":16180:16189  order.amt */\n      0x09\n      add\n      sload\n        /* \"contracts/mirrorseaMain.sol\":16167:16175  _price18 */\n      dup13\n        /* \"contracts/mirrorseaMain.sol\":16167:16179  _price18.mul */\n      tag_206\n      swap1\n        /* \"contracts/mirrorseaMain.sol\":16167:16190  _price18.mul(order.amt) */\n      swap2\n      swap1\n      0xffffffff\n      and\n      jump\t// in\n        /* \"contracts/mirrorseaMain.sol\":16166:16271  (_price18.mul(order.amt).div(1e18)).sub(... */\n    tag_357:\n        /* \"contracts/mirrorseaMain.sol\":16151:16271  uint256 earn = (_price18.mul(order.amt).div(1e18)).sub(... */\n      swap1\n      pop\n        /* \"contracts/mirrorseaMain.sol\":16281:16298  uint256 nowMargin */\n      0x00\n        /* \"contracts/mirrorseaMain.sol\":16301:16323  order.margin.add(earn) */\n      tag_362\n        /* \"contracts/mirrorseaMain.sol\":16318:16322  earn */\n      dup3\n        /* \"contracts/mirrorseaMain.sol\":16301:16306  order */\n      dup6\n        /* \"contracts/mirrorseaMain.sol\":16301:16313  order.margin */\n      0x0a\n      add\n      sload\n        /* \"contracts/mirrorseaMain.sol\":16301:16317  order.margin.add */\n      tag_363\n      swap1\n        /* \"contracts/mirrorseaMain.sol\":16301:16323  order.margin.add(earn) */\n      swap2\n      swap1\n      0xffffffff\n      and\n      jump\t// in\n    tag_362:\n        /* \"contracts/mirrorseaMain.sol\":16281:16323  uint256 nowMargin = order.margin.add(earn) */\n      swap1\n      pop\n        /* \"contracts/mirrorseaMain.sol\":16333:16351  uint256 diffMargin */\n      0x00\n        /* \"contracts/mirrorseaMain.sol\":16281:16323  uint256 nowMargin = order.margin.add(earn) */\n      dup2\n        /* \"contracts/mirrorseaMain.sol\":16365:16387  _adjustMargin.sub(fee) */\n      tag_364\n        /* \"contracts/mirrorseaMain.sol\":16365:16378  _adjustMargin */\n      dup9\n        /* \"contracts/mirrorseaMain.sol\":16383:16386  fee */\n      dup7\n        /* \"contracts/mirrorseaMain.sol\":16365:16382  _adjustMargin.sub */\n      tag_207\n        /* \"contracts/mirrorseaMain.sol\":16365:16387  _adjustMargin.sub(fee) */\n      jump\t// in\n    tag_364:\n        /* \"contracts/mirrorseaMain.sol\":16365:16399  _adjustMargin.sub(fee) > nowMargin */\n      gt\n        /* \"contracts/mirrorseaMain.sol\":16361:16740  if (_adjustMargin.sub(fee) > nowMargin) {... */\n      iszero\n      tag_365\n      jumpi\n        /* \"contracts/mirrorseaMain.sol\":16428:16465  _adjustMargin.sub(fee).sub(nowMargin) */\n      tag_366\n        /* \"contracts/mirrorseaMain.sol\":16455:16464  nowMargin */\n      dup3\n        /* \"contracts/mirrorseaMain.sol\":16428:16450  _adjustMargin.sub(fee) */\n      tag_205\n        /* \"contracts/mirrorseaMain.sol\":16428:16441  _adjustMargin */\n      dup10\n        /* \"contracts/mirrorseaMain.sol\":16446:16449  fee */\n      dup8\n        /* \"contracts/mirrorseaMain.sol\":16428:16445  _adjustMargin.sub */\n      tag_207\n        /* \"contracts/mirrorseaMain.sol\":16428:16450  _adjustMargin.sub(fee) */\n      jump\t// in\n        /* \"contracts/mirrorseaMain.sol\":16428:16465  _adjustMargin.sub(fee).sub(nowMargin) */\n    tag_366:\n        /* \"contracts/mirrorseaMain.sol\":16479:16482  usc */\n      sload(0x67)\n        /* \"contracts/mirrorseaMain.sol\":16415:16465  diffMargin = _adjustMargin.sub(fee).sub(nowMargin) */\n      swap1\n      swap2\n      pop\n        /* \"contracts/mirrorseaMain.sol\":16479:16538  usc.safeTransferFrom(msg.sender, address(this), diffMargin) */\n      tag_368\n      swap1\n      sub(shl(0xa0, 0x01), 0x01)\n        /* \"contracts/mirrorseaMain.sol\":16479:16482  usc */\n      and\n        /* \"contracts/mirrorseaMain.sol\":16500:16510  msg.sender */\n      caller\n        /* \"contracts/mirrorseaMain.sol\":16520:16524  this */\n      address\n        /* \"contracts/mirrorseaMain.sol\":16415:16465  diffMargin = _adjustMargin.sub(fee).sub(nowMargin) */\n      dup5\n        /* \"contracts/mirrorseaMain.sol\":16479:16499  usc.safeTransferFrom */\n      tag_369\n        /* \"contracts/mirrorseaMain.sol\":16479:16538  usc.safeTransferFrom(msg.sender, address(this), diffMargin) */\n      jump\t// in\n    tag_368:\n        /* \"contracts/mirrorseaMain.sol\":16565:16568  usc */\n      sload(0x67)\n        /* \"contracts/mirrorseaMain.sol\":16552:16587  IUSC(address(usc)).burn(diffMargin) */\n      mload(0x40)\n      shl(0xe3, 0x0852cd8d)\n      dup2\n      mstore\n      sub(shl(0xa0, 0x01), 0x01)\n        /* \"contracts/mirrorseaMain.sol\":16565:16568  usc */\n      swap1\n      swap2\n      and\n      swap1\n        /* \"contracts/mirrorseaMain.sol\":16552:16575  IUSC(address(usc)).burn */\n      0x42966c68\n      swap1\n        /* \"contracts/mirrorseaMain.sol\":16552:16587  IUSC(address(usc)).burn(diffMargin) */\n      tag_370\n      swap1\n        /* \"contracts/mirrorseaMain.sol\":16576:16586  diffMargin */\n      dup5\n      swap1\n        /* \"contracts/mirrorseaMain.sol\":16552:16587  IUSC(address(usc)).burn(diffMargin) */\n      0x04\n      add\n      tag_56\n      jump\t// in\n    tag_370:\n      0x00\n      mload(0x40)\n      dup1\n      dup4\n      sub\n      dup2\n      0x00\n      dup8\n      dup1\n      extcodesize\n      iszero\n      dup1\n      iszero\n      tag_371\n      jumpi\n      0x00\n      dup1\n      revert\n    tag_371:\n      pop\n      gas\n      call\n      iszero\n      dup1\n      iszero\n      tag_373\n      jumpi\n      returndatasize\n      0x00\n      dup1\n      returndatacopy\n      revert(0x00, returndatasize)\n    tag_373:\n      pop\n      pop\n      pop\n      pop\n        /* \"contracts/mirrorseaMain.sol\":16361:16740  if (_adjustMargin.sub(fee) > nowMargin) {... */\n      jump(tag_374)\n    tag_365:\n        /* \"contracts/mirrorseaMain.sol\":16631:16668  nowMargin.sub(_adjustMargin.sub(fee)) */\n      tag_375\n        /* \"contracts/mirrorseaMain.sol\":16645:16667  _adjustMargin.sub(fee) */\n      tag_376\n        /* \"contracts/mirrorseaMain.sol\":16645:16658  _adjustMargin */\n      dup9\n        /* \"contracts/mirrorseaMain.sol\":16663:16666  fee */\n      dup7\n        /* \"contracts/mirrorseaMain.sol\":16645:16662  _adjustMargin.sub */\n      tag_207\n        /* \"contracts/mirrorseaMain.sol\":16645:16667  _adjustMargin.sub(fee) */\n      jump\t// in\n    tag_376:\n        /* \"contracts/mirrorseaMain.sol\":16631:16640  nowMargin */\n      dup4\n      swap1\n        /* \"contracts/mirrorseaMain.sol\":16631:16644  nowMargin.sub */\n      tag_207\n        /* \"contracts/mirrorseaMain.sol\":16631:16668  nowMargin.sub(_adjustMargin.sub(fee)) */\n      jump\t// in\n    tag_375:\n        /* \"contracts/mirrorseaMain.sol\":16695:16698  usc */\n      sload(0x67)\n        /* \"contracts/mirrorseaMain.sol\":16706:16716  order.user */\n      dup7\n      sload\n        /* \"contracts/mirrorseaMain.sol\":16682:16729  IUSC(address(usc)).mint(order.user, diffMargin) */\n      mload(0x40)\n      shl(0xe0, 0x40c10f19)\n      dup2\n      mstore\n        /* \"contracts/mirrorseaMain.sol\":16618:16668  diffMargin = nowMargin.sub(_adjustMargin.sub(fee)) */\n      swap3\n      swap4\n      pop\n      sub(shl(0xa0, 0x01), 0x01)\n        /* \"contracts/mirrorseaMain.sol\":16695:16698  usc */\n      swap2\n      dup3\n      and\n      swap3\n        /* \"contracts/mirrorseaMain.sol\":16682:16705  IUSC(address(usc)).mint */\n      0x40c10f19\n      swap3\n        /* \"contracts/mirrorseaMain.sol\":16682:16729  IUSC(address(usc)).mint(order.user, diffMargin) */\n      tag_377\n      swap3\n        /* \"contracts/mirrorseaMain.sol\":16706:16716  order.user */\n      and\n      swap1\n        /* \"contracts/mirrorseaMain.sol\":16618:16668  diffMargin = nowMargin.sub(_adjustMargin.sub(fee)) */\n      dup6\n      swap1\n        /* \"contracts/mirrorseaMain.sol\":16682:16729  IUSC(address(usc)).mint(order.user, diffMargin) */\n      0x04\n      add\n      tag_378\n      jump\t// in\n    tag_377:\n      0x20\n      mload(0x40)\n      dup1\n      dup4\n      sub\n      dup2\n      0x00\n      dup8\n      dup1\n      extcodesize\n      iszero\n      dup1\n      iszero\n      tag_379\n      jumpi\n      0x00\n      dup1\n      revert\n    tag_379:\n      pop\n      gas\n      call\n      iszero\n      dup1\n      iszero\n      tag_381\n      jumpi\n      returndatasize\n      0x00\n      dup1\n      returndatacopy\n      revert(0x00, returndatasize)\n    tag_381:\n      pop\n      pop\n      pop\n      pop\n      mload(0x40)\n      returndatasize\n      not(0x1f)\n      0x1f\n      dup3\n      add\n      and\n      dup3\n      add\n      dup1\n      0x40\n      mstore\n      pop\n      dup2\n      add\n      swap1\n      tag_382\n      swap2\n      swap1\n      tag_345\n      jump\t// in\n    tag_382:\n      pop\n        /* \"contracts/mirrorseaMain.sol\":16361:16740  if (_adjustMargin.sub(fee) > nowMargin) {... */\n    tag_374:\n        /* \"contracts/mirrorseaMain.sol\":16762:16765  usc */\n      sload(0x67)\n        /* \"contracts/mirrorseaMain.sol\":16749:16792  IUSC(address(usc)).mint(address(this), fee) */\n      mload(0x40)\n      shl(0xe0, 0x40c10f19)\n      dup2\n      mstore\n      sub(shl(0xa0, 0x01), 0x01)\n        /* \"contracts/mirrorseaMain.sol\":16762:16765  usc */\n      swap1\n      swap2\n      and\n      swap1\n        /* \"contracts/mirrorseaMain.sol\":16749:16772  IUSC(address(usc)).mint */\n      0x40c10f19\n      swap1\n        /* \"contracts/mirrorseaMain.sol\":16749:16792  IUSC(address(usc)).mint(address(this), fee) */\n      tag_383\n      swap1\n        /* \"contracts/mirrorseaMain.sol\":16781:16785  this */\n      address\n      swap1\n        /* \"contracts/mirrorseaMain.sol\":16788:16791  fee */\n      dup9\n      swap1\n        /* \"contracts/mirrorseaMain.sol\":16749:16792  IUSC(address(usc)).mint(address(this), fee) */\n      0x04\n      add\n      tag_378\n      jump\t// in\n    tag_383:\n      0x20\n      mload(0x40)\n      dup1\n      dup4\n      sub\n      dup2\n      0x00\n      dup8\n      dup1\n      extcodesize\n      iszero\n      dup1\n      iszero\n      tag_384\n      jumpi\n      0x00\n      dup1\n      revert\n    tag_384:\n      pop\n      gas\n      call\n      iszero\n      dup1\n      iszero\n      tag_386\n      jumpi\n      returndatasize\n      0x00\n      dup1\n      returndatacopy\n      revert(0x00, returndatasize)\n    tag_386:\n      pop\n      pop\n      pop\n      pop\n      mload(0x40)\n      returndatasize\n      not(0x1f)\n      0x1f\n      dup3\n      add\n      and\n      dup3\n      add\n      dup1\n      0x40\n      mstore\n      pop\n      dup2\n      add\n      swap1\n      tag_387\n      swap2\n      swap1\n      tag_345\n      jump\t// in\n    tag_387:\n      pop\n        /* \"contracts/mirrorseaMain.sol\":16827:16838  helperLogic */\n      sload(0x68)\n        /* \"contracts/mirrorseaMain.sol\":16802:16805  usc */\n      sload(0x67)\n        /* \"contracts/mirrorseaMain.sol\":16802:16845  usc.safeTransfer(address(helperLogic), fee) */\n      tag_388\n      swap2\n      sub(shl(0xa0, 0x01), 0x01)\n        /* \"contracts/mirrorseaMain.sol\":16802:16805  usc */\n      swap2\n      dup3\n      and\n      swap2\n        /* \"contracts/mirrorseaMain.sol\":16827:16838  helperLogic */\n      and\n        /* \"contracts/mirrorseaMain.sol\":16841:16844  fee */\n      dup7\n        /* \"contracts/mirrorseaMain.sol\":16802:16818  usc.safeTransfer */\n      tag_389\n        /* \"contracts/mirrorseaMain.sol\":16802:16845  usc.safeTransfer(address(helperLogic), fee) */\n      jump\t// in\n    tag_388:\n        /* \"contracts/mirrorseaMain.sol\":16855:16866  helperLogic */\n      0x68\n      0x00\n      swap1\n      sload\n      swap1\n      0x0100\n      exp\n      swap1\n      div\n      sub(shl(0xa0, 0x01), 0x01)\n      and\n      sub(shl(0xa0, 0x01), 0x01)\n        /* \"contracts/mirrorseaMain.sol\":16855:16881  helperLogic.jointExecution */\n      and\n      0xd10c06a2\n        /* \"contracts/mirrorseaMain.sol\":16855:16883  helperLogic.jointExecution() */\n      mload(0x40)\n      dup2\n      0xffffffff\n      and\n      0xe0\n      shl\n      dup2\n      mstore\n      0x04\n      add\n      0x20\n      mload(0x40)\n      dup1\n      dup4\n      sub\n      dup2\n      0x00\n      dup8\n      dup1\n      extcodesize\n      iszero\n      dup1\n      iszero\n      tag_390\n      jumpi\n      0x00\n      dup1\n      revert\n    tag_390:\n      pop\n      gas\n      call\n      iszero\n      dup1\n      iszero\n      tag_392\n      jumpi\n      returndatasize\n      0x00\n      dup1\n      returndatacopy\n      revert(0x00, returndatasize)\n    tag_392:\n      pop\n      pop\n      pop\n      pop\n      mload(0x40)\n      returndatasize\n      not(0x1f)\n      0x1f\n      dup3\n      add\n      and\n      dup3\n      add\n      dup1\n      0x40\n      mstore\n      pop\n      dup2\n      add\n      swap1\n      tag_393\n      swap2\n      swap1\n      tag_345\n      jump\t// in\n    tag_393:\n      pop\n        /* \"contracts/mirrorseaMain.sol\":16909:16931  _adjustMargin.sub(fee) */\n      tag_394\n        /* \"contracts/mirrorseaMain.sol\":16909:16922  _adjustMargin */\n      dup8\n        /* \"contracts/mirrorseaMain.sol\":16927:16930  fee */\n      dup6\n        /* \"contracts/mirrorseaMain.sol\":16909:16926  _adjustMargin.sub */\n      tag_207\n        /* \"contracts/mirrorseaMain.sol\":16909:16931  _adjustMargin.sub(fee) */\n      jump\t// in\n    tag_394:\n        /* \"contracts/mirrorseaMain.sol\":16894:16906  order.margin */\n      0x0a\n      dup7\n      add\n        /* \"contracts/mirrorseaMain.sol\":16894:16931  order.margin = _adjustMargin.sub(fee) */\n      sstore\n      pop\n      pop\n      pop\n      pop\n        /* \"contracts/mirrorseaMain.sol\":16941:16958  order.openPrice18 */\n      0x05\n      add\n        /* \"contracts/mirrorseaMain.sol\":16941:16969  order.openPrice18 = _price18 */\n      dup5\n      swap1\n      sstore\n      pop\n        /* \"contracts/mirrorseaMain.sol\":16986:16990  true */\n      0x01\n        /* \"contracts/mirrorseaMain.sol\":15259:16997  function adjustPosition(... */\n      swap8\n      swap7\n      pop\n      pop\n      pop\n      pop\n      pop\n      pop\n      pop\n      jump\t// out\n        /* \"contracts/mirrorseaMain.sol\":1787:1811  uint256 public PRECISION */\n    tag_142:\n      sload(0x73)\n      dup2\n      jump\t// out\n        /* \"contracts/mirrorseaMain.sol\":2967:3130  function myCloseOrderIdListLength(address _user)... */\n    tag_146:\n      sub(shl(0xa0, 0x01), 0x01)\n        /* \"contracts/mirrorseaMain.sol\":3091:3116  myCloseOrderIdList[_user] */\n      and\n        /* \"contracts/mirrorseaMain.sol\":3061:3068  uint256 */\n      0x00\n        /* \"contracts/mirrorseaMain.sol\":3091:3116  myCloseOrderIdList[_user] */\n      swap1\n      dup2\n      mstore\n        /* \"contracts/mirrorseaMain.sol\":3091:3109  myCloseOrderIdList */\n      0x70\n        /* \"contracts/mirrorseaMain.sol\":3091:3116  myCloseOrderIdList[_user] */\n      0x20\n      mstore\n      0x40\n      swap1\n      keccak256\n        /* \"contracts/mirrorseaMain.sol\":3091:3123  myCloseOrderIdList[_user].length */\n      sload\n      swap1\n        /* \"contracts/mirrorseaMain.sol\":2967:3130  function myCloseOrderIdListLength(address _user)... */\n      jump\t// out\n        /* \"contracts/mirrorseaMain.sol\":1448:1502  mapping(address => uint256[]) public myOpenOrderIdList */\n    tag_150:\n      mstore(0x20, 0x6e)\n      dup2\n      0x00\n      mstore\n      keccak256(0x00, 0x40)\n      dup2\n      dup2\n      sload\n      dup2\n      lt\n      tag_396\n      jumpi\n      0x00\n      dup1\n      revert\n    tag_396:\n      swap1\n      0x00\n      mstore\n      keccak256(0x00, 0x20)\n      add\n      0x00\n      swap2\n      pop\n      swap2\n      pop\n      pop\n      sload\n      dup2\n      jump\t// out\n        /* \"contracts/mirrorseaMain.sol\":17003:17222  function setmyOpenOrderIdList(... */\n    tag_155:\n      sub(shl(0xa0, 0x01), 0x01)\n        /* \"contracts/mirrorseaMain.sol\":17125:17148  myOpenOrderIdList[user] */\n      dup4\n      and\n      0x00\n      swap1\n      dup2\n      mstore\n        /* \"contracts/mirrorseaMain.sol\":17125:17142  myOpenOrderIdList */\n      0x6e\n        /* \"contracts/mirrorseaMain.sol\":17125:17148  myOpenOrderIdList[user] */\n      0x20\n      mstore\n      0x40\n      swap1\n      keccak256\n        /* \"contracts/mirrorseaMain.sol\":17125:17156  myOpenOrderIdList[user][number] */\n      dup1\n      sload\n        /* \"contracts/mirrorseaMain.sol\":17159:17162  val */\n      dup3\n      swap2\n        /* \"contracts/mirrorseaMain.sol\":17125:17148  myOpenOrderIdList[user] */\n      swap1\n        /* \"contracts/mirrorseaMain.sol\":17149:17155  number */\n      dup5\n      swap1\n        /* \"contracts/mirrorseaMain.sol\":17125:17156  myOpenOrderIdList[user][number] */\n      dup2\n      lt\n      tag_399\n      jumpi\n      mstore(0x00, shl(0xe0, 0x4e487b71))\n      mstore(0x04, 0x32)\n      revert(0x00, 0x24)\n    tag_399:\n      0x00\n      swap2\n      dup3\n      mstore\n      0x20\n      dup1\n      dup4\n      keccak256\n      swap1\n      swap2\n      add\n        /* \"contracts/mirrorseaMain.sol\":17125:17162  myOpenOrderIdList[user][number] = val */\n      swap3\n      swap1\n      swap3\n      sstore\n      sub(shl(0xa0, 0x01), 0x01)\n        /* \"contracts/mirrorseaMain.sol\":17172:17201  myOpenOrderIdList_index[user] */\n      swap1\n      swap5\n      and\n      dup5\n      mstore\n        /* \"contracts/mirrorseaMain.sol\":17172:17195  myOpenOrderIdList_index */\n      0x6f\n        /* \"contracts/mirrorseaMain.sol\":17172:17201  myOpenOrderIdList_index[user] */\n      dup2\n      mstore\n      0x40\n      dup1\n      dup6\n      keccak256\n        /* \"contracts/mirrorseaMain.sol\":17172:17206  myOpenOrderIdList_index[user][val] */\n      swap3\n      dup6\n      mstore\n      swap2\n      swap1\n      mstore\n      swap1\n      swap2\n      keccak256\n        /* \"contracts/mirrorseaMain.sol\":17172:17215  myOpenOrderIdList_index[user][val] = number */\n      sstore\n        /* \"contracts/mirrorseaMain.sol\":17003:17222  function setmyOpenOrderIdList(... */\n      jump\t// out\n        /* \"contracts/mirrorseaMain.sol\":5918:7807  function openPosition(... */\n    tag_159:\n        /* \"contracts/mirrorseaMain.sol\":6261:6271  OrderIndex */\n      sload(0x6b)\n        /* \"contracts/mirrorseaMain.sol\":6208:6212  bool */\n      0x00\n        /* \"contracts/mirrorseaMain.sol\":6250:6272  _orderInfo[OrderIndex] */\n      swap1\n      dup2\n      mstore\n        /* \"contracts/mirrorseaMain.sol\":6250:6260  _orderInfo */\n      0x6a\n        /* \"contracts/mirrorseaMain.sol\":6250:6272  _orderInfo[OrderIndex] */\n      0x20\n      mstore\n      0x40\n      dup2\n      keccak256\n        /* \"contracts/mirrorseaMain.sol\":6290:6302  _margin != 0 */\n      dup10\n        /* \"contracts/mirrorseaMain.sol\":6282:6321  require(_margin != 0, \"margin no good\") */\n      tag_402\n      jumpi\n      mload(0x40)\n      shl(0xe5, 0x461bcd)\n      dup2\n      mstore\n      0x04\n      add\n      tag_213\n      swap1\n      tag_404\n      jump\t// in\n    tag_402:\n        /* \"contracts/mirrorseaMain.sol\":6339:6350  order.state */\n      0x03\n      dup2\n      add\n      sload\n        /* \"contracts/mirrorseaMain.sol\":6339:6355  order.state == 0 */\n      iszero\n        /* \"contracts/mirrorseaMain.sol\":6331:6369  require(order.state == 0, \"state err\") */\n      tag_405\n      jumpi\n      mload(0x40)\n      shl(0xe5, 0x461bcd)\n      dup2\n      mstore\n      0x04\n      add\n      tag_213\n      swap1\n      tag_338\n      jump\t// in\n    tag_405:\n        /* \"contracts/mirrorseaMain.sol\":6400:6406  oracle */\n      sload(0x69)\n        /* \"contracts/mirrorseaMain.sol\":6400:6565  oracle.getkey(... */\n      mload(0x40)\n      shl(0xe1, 0x11cdc9d9)\n      dup2\n      mstore\n      sub(shl(0xa0, 0x01), 0x01)\n        /* \"contracts/mirrorseaMain.sol\":6400:6406  oracle */\n      swap1\n      swap2\n      and\n      swap1\n        /* \"contracts/mirrorseaMain.sol\":6400:6413  oracle.getkey */\n      0x239b93b2\n      swap1\n        /* \"contracts/mirrorseaMain.sol\":6400:6565  oracle.getkey(... */\n      tag_407\n      swap1\n        /* \"contracts/mirrorseaMain.sol\":6431:6443  _marketState */\n      dup15\n      swap1\n        /* \"contracts/mirrorseaMain.sol\":6461:6469  _price18 */\n      dup10\n      swap1\n        /* \"contracts/mirrorseaMain.sol\":6487:6497  _timestamp */\n      dup15\n      swap1\n        /* \"contracts/mirrorseaMain.sol\":6515:6523  _symbols */\n      dup13\n      swap1\n        /* \"contracts/mirrorseaMain.sol\":6541:6551  _signature */\n      dup11\n      swap1\n        /* \"contracts/mirrorseaMain.sol\":6400:6565  oracle.getkey(... */\n      0x04\n      add\n      tag_340\n      jump\t// in\n    tag_407:\n      0x20\n      mload(0x40)\n      dup1\n      dup4\n      sub\n      dup2\n      dup7\n      dup1\n      extcodesize\n      iszero\n      dup1\n      iszero\n      tag_408\n      jumpi\n      0x00\n      dup1\n      revert\n    tag_408:\n      pop\n      gas\n      staticcall\n      iszero\n      dup1\n      iszero\n      tag_410\n      jumpi\n      returndatasize\n      0x00\n      dup1\n      returndatacopy\n      revert(0x00, returndatasize)\n    tag_410:\n      pop\n      pop\n      pop\n      pop\n      mload(0x40)\n      returndatasize\n      not(0x1f)\n      0x1f\n      dup3\n      add\n      and\n      dup3\n      add\n      dup1\n      0x40\n      mstore\n      pop\n      dup2\n      add\n      swap1\n      tag_411\n      swap2\n      swap1\n      tag_345\n      jump\t// in\n    tag_411:\n        /* \"contracts/mirrorseaMain.sol\":6379:6601  require(... */\n      tag_412\n      jumpi\n      mload(0x40)\n      shl(0xe5, 0x461bcd)\n      dup2\n      mstore\n      0x04\n      add\n      tag_213\n      swap1\n      tag_348\n      jump\t// in\n    tag_412:\n        /* \"contracts/mirrorseaMain.sol\":6629:6635  minVal */\n      sload(0x74)\n        /* \"contracts/mirrorseaMain.sol\":6619:6626  _margin */\n      dup11\n        /* \"contracts/mirrorseaMain.sol\":6619:6635  _margin > minVal */\n      gt\n        /* \"contracts/mirrorseaMain.sol\":6611:6675  require(_margin > minVal, \"The transaction amount is too small\") */\n      tag_414\n      jumpi\n      mload(0x40)\n      shl(0xe5, 0x461bcd)\n      dup2\n      mstore\n      0x04\n      add\n      tag_213\n      swap1\n      tag_416\n      jump\t// in\n    tag_414:\n        /* \"contracts/mirrorseaMain.sol\":6686:6689  usc */\n      sload(0x67)\n        /* \"contracts/mirrorseaMain.sol\":6686:6742  usc.safeTransferFrom(msg.sender, address(this), _margin) */\n      tag_417\n      swap1\n      sub(shl(0xa0, 0x01), 0x01)\n        /* \"contracts/mirrorseaMain.sol\":6686:6689  usc */\n      and\n        /* \"contracts/mirrorseaMain.sol\":6707:6717  msg.sender */\n      caller\n        /* \"contracts/mirrorseaMain.sol\":6727:6731  this */\n      address\n        /* \"contracts/mirrorseaMain.sol\":6734:6741  _margin */\n      dup14\n        /* \"contracts/mirrorseaMain.sol\":6686:6706  usc.safeTransferFrom */\n      tag_369\n        /* \"contracts/mirrorseaMain.sol\":6686:6742  usc.safeTransferFrom(msg.sender, address(this), _margin) */\n      jump\t// in\n    tag_417:\n        /* \"contracts/mirrorseaMain.sol\":6775:6778  usc */\n      sload(0x67)\n        /* \"contracts/mirrorseaMain.sol\":6775:6803  usc.balanceOf(address(this)) */\n      mload(0x40)\n      shl(0xe0, 0x70a08231)\n      dup2\n      mstore\n        /* \"contracts/mirrorseaMain.sol\":6752:6772  uint256 uscBalanceOf */\n      0x00\n      swap2\n      sub(shl(0xa0, 0x01), 0x01)\n        /* \"contracts/mirrorseaMain.sol\":6775:6778  usc */\n      and\n      swap1\n        /* \"contracts/mirrorseaMain.sol\":6775:6788  usc.balanceOf */\n      0x70a08231\n      swap1\n        /* \"contracts/mirrorseaMain.sol\":6775:6803  usc.balanceOf(address(this)) */\n      tag_418\n      swap1\n        /* \"contracts/mirrorseaMain.sol\":6797:6801  this */\n      address\n      swap1\n        /* \"contracts/mirrorseaMain.sol\":6775:6803  usc.balanceOf(address(this)) */\n      0x04\n      add\n      tag_70\n      jump\t// in\n    tag_418:\n      0x20\n      mload(0x40)\n      dup1\n      dup4\n      sub\n      dup2\n      dup7\n      dup1\n      extcodesize\n      iszero\n      dup1\n      iszero\n      tag_419\n      jumpi\n      0x00\n      dup1\n      revert\n    tag_419:\n      pop\n      gas\n      staticcall\n      iszero\n      dup1\n      iszero\n      tag_421\n      jumpi\n      returndatasize\n      0x00\n      dup1\n      returndatacopy\n      revert(0x00, returndatasize)\n    tag_421:\n      pop\n      pop\n      pop\n      pop\n      mload(0x40)\n      returndatasize\n      not(0x1f)\n      0x1f\n      dup3\n      add\n      and\n      dup3\n      add\n      dup1\n      0x40\n      mstore\n      pop\n      dup2\n      add\n      swap1\n      tag_422\n      swap2\n      swap1\n      tag_423\n      jump\t// in\n    tag_422:\n        /* \"contracts/mirrorseaMain.sol\":6752:6803  uint256 uscBalanceOf = usc.balanceOf(address(this)) */\n      swap1\n      pop\n        /* \"contracts/mirrorseaMain.sol\":6813:6824  uint256 fee */\n      0x00\n        /* \"contracts/mirrorseaMain.sol\":6827:6908  _price18.mul(_amt).mul(feePercent).div(PRECISION).div(... */\n      tag_424\n        /* \"contracts/mirrorseaMain.sol\":6894:6898  1e18 */\n      0x0de0b6b3a7640000\n        /* \"contracts/mirrorseaMain.sol\":6827:6876  _price18.mul(_amt).mul(feePercent).div(PRECISION) */\n      tag_246\n        /* \"contracts/mirrorseaMain.sol\":6866:6875  PRECISION */\n      sload(0x73)\n        /* \"contracts/mirrorseaMain.sol\":6827:6861  _price18.mul(_amt).mul(feePercent) */\n      tag_246\n        /* \"contracts/mirrorseaMain.sol\":6850:6860  feePercent */\n      sload(0x72)\n        /* \"contracts/mirrorseaMain.sol\":6827:6845  _price18.mul(_amt) */\n      tag_251\n        /* \"contracts/mirrorseaMain.sol\":6840:6844  _amt */\n      dup13\n        /* \"contracts/mirrorseaMain.sol\":6827:6835  _price18 */\n      dup15\n        /* \"contracts/mirrorseaMain.sol\":6827:6839  _price18.mul */\n      tag_206\n      swap1\n        /* \"contracts/mirrorseaMain.sol\":6827:6845  _price18.mul(_amt) */\n      swap2\n      swap1\n      0xffffffff\n      and\n      jump\t// in\n        /* \"contracts/mirrorseaMain.sol\":6827:6908  _price18.mul(_amt).mul(feePercent).div(PRECISION).div(... */\n    tag_424:\n        /* \"contracts/mirrorseaMain.sol\":6943:6954  helperLogic */\n      sload(0x68)\n        /* \"contracts/mirrorseaMain.sol\":6918:6921  usc */\n      sload(0x67)\n        /* \"contracts/mirrorseaMain.sol\":6813:6908  uint256 fee = _price18.mul(_amt).mul(feePercent).div(PRECISION).div(... */\n      swap2\n      swap3\n      pop\n        /* \"contracts/mirrorseaMain.sol\":6918:6961  usc.safeTransfer(address(helperLogic), fee) */\n      tag_428\n      swap2\n      sub(shl(0xa0, 0x01), 0x01)\n        /* \"contracts/mirrorseaMain.sol\":6918:6921  usc */\n      swap1\n      dup2\n      and\n      swap2\n        /* \"contracts/mirrorseaMain.sol\":6943:6954  helperLogic */\n      and\n        /* \"contracts/mirrorseaMain.sol\":6813:6908  uint256 fee = _price18.mul(_amt).mul(feePercent).div(PRECISION).div(... */\n      dup4\n        /* \"contracts/mirrorseaMain.sol\":6918:6934  usc.safeTransfer */\n      tag_389\n        /* \"contracts/mirrorseaMain.sol\":6918:6961  usc.safeTransfer(address(helperLogic), fee) */\n      jump\t// in\n    tag_428:\n        /* \"contracts/mirrorseaMain.sol\":6971:6982  helperLogic */\n      0x68\n      0x00\n      swap1\n      sload\n      swap1\n      0x0100\n      exp\n      swap1\n      div\n      sub(shl(0xa0, 0x01), 0x01)\n      and\n      sub(shl(0xa0, 0x01), 0x01)\n        /* \"contracts/mirrorseaMain.sol\":6971:6997  helperLogic.jointExecution */\n      and\n      0xd10c06a2\n        /* \"contracts/mirrorseaMain.sol\":6971:6999  helperLogic.jointExecution() */\n      mload(0x40)\n      dup2\n      0xffffffff\n      and\n      0xe0\n      shl\n      dup2\n      mstore\n      0x04\n      add\n      0x20\n      mload(0x40)\n      dup1\n      dup4\n      sub\n      dup2\n      0x00\n      dup8\n      dup1\n      extcodesize\n      iszero\n      dup1\n      iszero\n      tag_429\n      jumpi\n      0x00\n      dup1\n      revert\n    tag_429:\n      pop\n      gas\n      call\n      iszero\n      dup1\n      iszero\n      tag_431\n      jumpi\n      returndatasize\n      0x00\n      dup1\n      returndatacopy\n      revert(0x00, returndatasize)\n    tag_431:\n      pop\n      pop\n      pop\n      pop\n      mload(0x40)\n      returndatasize\n      not(0x1f)\n      0x1f\n      dup3\n      add\n      and\n      dup3\n      add\n      dup1\n      0x40\n      mstore\n      pop\n      dup2\n      add\n      swap1\n      tag_432\n      swap2\n      swap1\n      tag_345\n      jump\t// in\n    tag_432:\n      pop\n        /* \"contracts/mirrorseaMain.sol\":7022:7025  usc */\n      and(sub(shl(0xa0, 0x01), 0x01), sload(0x67))\n        /* \"contracts/mirrorseaMain.sol\":7009:7032  IUSC(address(usc)).burn */\n      0x42966c68\n        /* \"contracts/mirrorseaMain.sol\":7033:7054  uscBalanceOf.sub(fee) */\n      tag_433\n        /* \"contracts/mirrorseaMain.sol\":7033:7045  uscBalanceOf */\n      dup5\n        /* \"contracts/mirrorseaMain.sol\":7050:7053  fee */\n      dup5\n        /* \"contracts/mirrorseaMain.sol\":7033:7049  uscBalanceOf.sub */\n      tag_207\n        /* \"contracts/mirrorseaMain.sol\":7033:7054  uscBalanceOf.sub(fee) */\n      jump\t// in\n    tag_433:\n        /* \"contracts/mirrorseaMain.sol\":7009:7055  IUSC(address(usc)).burn(uscBalanceOf.sub(fee)) */\n      mload(0x40)\n      dup3\n      0xffffffff\n      and\n      0xe0\n      shl\n      dup2\n      mstore\n      0x04\n      add\n      tag_434\n      swap2\n      swap1\n      tag_56\n      jump\t// in\n    tag_434:\n      0x00\n      mload(0x40)\n      dup1\n      dup4\n      sub\n      dup2\n      0x00\n      dup8\n      dup1\n      extcodesize\n      iszero\n      dup1\n      iszero\n      tag_435\n      jumpi\n      0x00\n      dup1\n      revert\n    tag_435:\n      pop\n      gas\n      call\n      iszero\n      dup1\n      iszero\n      tag_437\n      jumpi\n      returndatasize\n      0x00\n      dup1\n      returndatacopy\n      revert(0x00, returndatasize)\n    tag_437:\n      pop\n      pop\n        /* \"contracts/mirrorseaMain.sol\":7087:7097  OrderIndex */\n      sload(0x6b)\n        /* \"contracts/mirrorseaMain.sol\":7066:7081  openOrderIdList */\n      0x6c\n        /* \"contracts/mirrorseaMain.sol\":7066:7098  openOrderIdList.push(OrderIndex) */\n      dup1\n      sload\n      0x01\n      dup2\n      dup2\n      add\n      dup4\n      sstore\n      0x00\n      dup4\n      swap1\n      mstore\n      0x2b4a51ab505fc96a0952efda2ba61bcd3078d4c02c39a186ec16f21883fbe016\n      swap1\n      swap2\n      add\n      swap3\n      swap1\n      swap3\n      sstore\n        /* \"contracts/mirrorseaMain.sol\":7144:7166  openOrderIdList.length */\n      sload\n        /* \"contracts/mirrorseaMain.sol\":7144:7173  openOrderIdList.length.sub(1) */\n      tag_439\n      swap4\n      pop\n        /* \"contracts/mirrorseaMain.sol\":7144:7166  openOrderIdList.length */\n      swap2\n      pop\n        /* \"contracts/mirrorseaMain.sol\":7144:7170  openOrderIdList.length.sub */\n      tag_207\n        /* \"contracts/mirrorseaMain.sol\":7144:7173  openOrderIdList.length.sub(1) */\n      jump\t// in\n    tag_439:\n        /* \"contracts/mirrorseaMain.sol\":7130:7140  OrderIndex */\n      0x6b\n      dup1\n      sload\n        /* \"contracts/mirrorseaMain.sol\":7108:7141  openOrderIdList_index[OrderIndex] */\n      0x00\n      swap1\n      dup2\n      mstore\n        /* \"contracts/mirrorseaMain.sol\":7108:7129  openOrderIdList_index */\n      0x6d\n        /* \"contracts/mirrorseaMain.sol\":7108:7141  openOrderIdList_index[OrderIndex] */\n      0x20\n      swap1\n      dup2\n      mstore\n      0x40\n      dup1\n      dup4\n      keccak256\n        /* \"contracts/mirrorseaMain.sol\":7108:7173  openOrderIdList_index[OrderIndex] = openOrderIdList.length.sub(1) */\n      swap5\n      swap1\n      swap5\n      sstore\n        /* \"contracts/mirrorseaMain.sol\":7202:7212  msg.sender */\n      caller\n        /* \"contracts/mirrorseaMain.sol\":7184:7213  myOpenOrderIdList[msg.sender] */\n      dup1\n      dup4\n      mstore\n        /* \"contracts/mirrorseaMain.sol\":7184:7201  myOpenOrderIdList */\n      0x6e\n        /* \"contracts/mirrorseaMain.sol\":7184:7213  myOpenOrderIdList[msg.sender] */\n      dup3\n      mstore\n      swap4\n      dup3\n      keccak256\n        /* \"contracts/mirrorseaMain.sol\":7219:7229  OrderIndex */\n      swap3\n      sload\n        /* \"contracts/mirrorseaMain.sol\":7184:7230  myOpenOrderIdList[msg.sender].push(OrderIndex) */\n      dup4\n      sload\n      0x01\n      dup2\n      dup2\n      add\n      dup7\n      sstore\n      dup6\n      dup6\n      mstore\n      swap3\n      dup5\n      keccak256\n      add\n      sstore\n        /* \"contracts/mirrorseaMain.sol\":7290:7341  myOpenOrderIdList[... */\n      swap3\n      swap1\n      mstore\n        /* \"contracts/mirrorseaMain.sol\":7290:7348  myOpenOrderIdList[... */\n      sload\n        /* \"contracts/mirrorseaMain.sol\":7290:7355  myOpenOrderIdList[... */\n      tag_441\n      swap2\n        /* \"contracts/mirrorseaMain.sol\":7290:7352  myOpenOrderIdList[... */\n      tag_207\n        /* \"contracts/mirrorseaMain.sol\":7290:7355  myOpenOrderIdList[... */\n      jump\t// in\n    tag_441:\n        /* \"contracts/mirrorseaMain.sol\":7264:7274  msg.sender */\n      caller\n        /* \"contracts/mirrorseaMain.sol\":7240:7275  myOpenOrderIdList_index[msg.sender] */\n      0x00\n      swap1\n      dup2\n      mstore\n        /* \"contracts/mirrorseaMain.sol\":7240:7263  myOpenOrderIdList_index */\n      0x6f\n        /* \"contracts/mirrorseaMain.sol\":7240:7275  myOpenOrderIdList_index[msg.sender] */\n      0x20\n      swap1\n      dup2\n      mstore\n      0x40\n      dup1\n      dup4\n      keccak256\n        /* \"contracts/mirrorseaMain.sol\":7276:7286  OrderIndex */\n      0x6b\n      dup1\n      sload\n        /* \"contracts/mirrorseaMain.sol\":7240:7287  myOpenOrderIdList_index[msg.sender][OrderIndex] */\n      dup6\n      mstore\n      swap3\n      mstore\n      dup3\n      keccak256\n        /* \"contracts/mirrorseaMain.sol\":7240:7355  myOpenOrderIdList_index[msg.sender][OrderIndex] = myOpenOrderIdList[... */\n      swap3\n      swap1\n      swap3\n      sstore\n        /* \"contracts/mirrorseaMain.sol\":7366:7378  OrderIndex++ */\n      dup2\n      sload\n      swap2\n        /* \"contracts/mirrorseaMain.sol\":7276:7286  OrderIndex */\n      swap1\n        /* \"contracts/mirrorseaMain.sol\":7366:7378  OrderIndex++ */\n      tag_442\n      dup4\n      tag_228\n      jump\t// in\n    tag_442:\n      swap1\n      swap2\n      sstore\n      pop\n      pop\n        /* \"contracts/mirrorseaMain.sol\":7389:7412  order.user = msg.sender */\n      dup3\n      sload\n      not(sub(shl(0xa0, 0x01), 0x01))\n      and\n        /* \"contracts/mirrorseaMain.sol\":7402:7412  msg.sender */\n      caller\n        /* \"contracts/mirrorseaMain.sol\":7389:7412  order.user = msg.sender */\n      or\n      dup4\n      sstore\n      0x01\n        /* \"contracts/mirrorseaMain.sol\":7422:7433  order._type */\n      dup4\n      add\n        /* \"contracts/mirrorseaMain.sol\":7422:7441  order._type = _type */\n      dup10\n      swap1\n      sstore\n        /* \"contracts/mirrorseaMain.sol\":7451:7475  order.symbols = _symbols */\n      dup8\n      mload\n      tag_443\n      swap1\n        /* \"contracts/mirrorseaMain.sol\":7451:7464  order.symbols */\n      0x02\n      dup6\n      add\n      swap1\n        /* \"contracts/mirrorseaMain.sol\":7451:7475  order.symbols = _symbols */\n      0x20\n      dup12\n      add\n      swap1\n      tag_444\n      jump\t// in\n    tag_443:\n      pop\n        /* \"contracts/mirrorseaMain.sol\":7499:7500  1 */\n      0x01\n        /* \"contracts/mirrorseaMain.sol\":7485:7496  order.state */\n      0x03\n      dup5\n      add\n        /* \"contracts/mirrorseaMain.sol\":7485:7500  order.state = 1 */\n      sstore\n        /* \"contracts/mirrorseaMain.sol\":7586:7601  order.direction */\n      0x04\n      dup4\n      add\n        /* \"contracts/mirrorseaMain.sol\":7586:7614  order.direction = _direction */\n      dup11\n      swap1\n      sstore\n        /* \"contracts/mirrorseaMain.sol\":7641:7658  order.openPrice18 */\n      0x05\n      dup4\n      add\n        /* \"contracts/mirrorseaMain.sol\":7641:7669  order.openPrice18 = _price18 */\n      dup8\n      swap1\n      sstore\n        /* \"contracts/mirrorseaMain.sol\":7679:7693  order.openTime */\n      0x06\n      dup4\n      add\n        /* \"contracts/mirrorseaMain.sol\":7679:7706  order.openTime = _timestamp */\n      dup12\n      swap1\n      sstore\n        /* \"contracts/mirrorseaMain.sol\":7716:7725  order.amt */\n      0x09\n      dup4\n      add\n        /* \"contracts/mirrorseaMain.sol\":7716:7732  order.amt = _amt */\n      dup7\n      swap1\n      sstore\n        /* \"contracts/mirrorseaMain.sol\":7757:7778  uscBalanceOf.sub(fee) */\n      tag_445\n        /* \"contracts/mirrorseaMain.sol\":7757:7769  uscBalanceOf */\n      dup3\n        /* \"contracts/mirrorseaMain.sol\":7774:7777  fee */\n      dup3\n        /* \"contracts/mirrorseaMain.sol\":7757:7773  uscBalanceOf.sub */\n      tag_207\n        /* \"contracts/mirrorseaMain.sol\":7757:7778  uscBalanceOf.sub(fee) */\n      jump\t// in\n    tag_445:\n        /* \"contracts/mirrorseaMain.sol\":7742:7754  order.margin */\n      0x0a\n      swap1\n      swap4\n      add\n        /* \"contracts/mirrorseaMain.sol\":7742:7778  order.margin = uscBalanceOf.sub(fee) */\n      swap3\n      swap1\n      swap3\n      sstore\n      pop\n        /* \"contracts/mirrorseaMain.sol\":7796:7800  true */\n      0x01\n      swap12\n        /* \"contracts/mirrorseaMain.sol\":5918:7807  function openPosition(... */\n      swap11\n      pop\n      pop\n      pop\n      pop\n      pop\n      pop\n      pop\n      pop\n      pop\n      pop\n      pop\n      jump\t// out\n        /* \"contracts/mirrorseaMain.sol\":2800:2961  function myOpenOrderIdListLength(address _user)... */\n    tag_163:\n      sub(shl(0xa0, 0x01), 0x01)\n        /* \"contracts/mirrorseaMain.sol\":2923:2947  myOpenOrderIdList[_user] */\n      and\n        /* \"contracts/mirrorseaMain.sol\":2893:2900  uint256 */\n      0x00\n        /* \"contracts/mirrorseaMain.sol\":2923:2947  myOpenOrderIdList[_user] */\n      swap1\n      dup2\n      mstore\n        /* \"contracts/mirrorseaMain.sol\":2923:2940  myOpenOrderIdList */\n      0x6e\n        /* \"contracts/mirrorseaMain.sol\":2923:2947  myOpenOrderIdList[_user] */\n      0x20\n      mstore\n      0x40\n      swap1\n      keccak256\n        /* \"contracts/mirrorseaMain.sol\":2923:2954  myOpenOrderIdList[_user].length */\n      sload\n      swap1\n        /* \"contracts/mirrorseaMain.sol\":2800:2961  function myOpenOrderIdListLength(address _user)... */\n      jump\t// out\n        /* \"contracts/mirrorseaMain.sol\":1601:1656  mapping(address => uint256[]) public myCloseOrderIdList */\n    tag_167:\n      mstore(0x20, 0x70)\n      dup2\n      0x00\n      mstore\n      keccak256(0x00, 0x40)\n      dup2\n      dup2\n      sload\n      dup2\n      lt\n      tag_396\n      jumpi\n      0x00\n      dup1\n      revert\n        /* \"contracts/mirrorseaMain.sol\":1662:1749  mapping(address => mapping(uint256 => uint256))... */\n    tag_171:\n      0x71\n      0x20\n      swap1\n      dup2\n      mstore\n      0x00\n      swap3\n      dup4\n      mstore\n      0x40\n      dup1\n      dup5\n      keccak256\n      swap1\n      swap2\n      mstore\n      swap1\n      dup3\n      mstore\n      swap1\n      keccak256\n      sload\n      dup2\n      jump\t// out\n        /* \"contracts/mirrorseaMain.sol\":1818:1839  uint256 public minVal */\n    tag_174:\n      sload(0x74)\n      dup2\n      jump\t// out\n        /* \"@openzeppelin/contracts-upgradeable/access/OwnableUpgradeable.sol\":2184:2382  function transferOwnership(address newOwner) public virtual onlyOwner {... */\n    tag_178:\n        /* \"@openzeppelin/contracts-upgradeable/access/OwnableUpgradeable.sol\":1525:1537  _msgSender() */\n      tag_450\n        /* \"@openzeppelin/contracts-upgradeable/access/OwnableUpgradeable.sol\":1525:1535  _msgSender */\n      tag_235\n        /* \"@openzeppelin/contracts-upgradeable/access/OwnableUpgradeable.sol\":1525:1537  _msgSender() */\n      jump\t// in\n    tag_450:\n      sub(shl(0xa0, 0x01), 0x01)\n        /* \"@openzeppelin/contracts-upgradeable/access/OwnableUpgradeable.sol\":1514:1537  owner() == _msgSender() */\n      and\n        /* \"@openzeppelin/contracts-upgradeable/access/OwnableUpgradeable.sol\":1514:1521  owner() */\n      tag_451\n        /* \"@openzeppelin/contracts-upgradeable/access/OwnableUpgradeable.sol\":1514:1519  owner */\n      tag_130\n        /* \"@openzeppelin/contracts-upgradeable/access/OwnableUpgradeable.sol\":1514:1521  owner() */\n      jump\t// in\n    tag_451:\n      sub(shl(0xa0, 0x01), 0x01)\n        /* \"@openzeppelin/contracts-upgradeable/access/OwnableUpgradeable.sol\":1514:1537  owner() == _msgSender() */\n      and\n      eq\n        /* \"@openzeppelin/contracts-upgradeable/access/OwnableUpgradeable.sol\":1506:1574  require(owner() == _msgSender(), \"Ownable: caller is not the owner\") */\n      tag_452\n      jumpi\n      mload(0x40)\n      shl(0xe5, 0x461bcd)\n      dup2\n      mstore\n      0x04\n      add\n      tag_213\n      swap1\n      tag_239\n      jump\t// in\n    tag_452:\n      sub(shl(0xa0, 0x01), 0x01)\n        /* \"@openzeppelin/contracts-upgradeable/access/OwnableUpgradeable.sol\":2272:2294  newOwner != address(0) */\n      dup2\n      and\n        /* \"@openzeppelin/contracts-upgradeable/access/OwnableUpgradeable.sol\":2264:2337  require(newOwner != address(0), \"Ownable: new owner is the zero address\") */\n      tag_455\n      jumpi\n      mload(0x40)\n      shl(0xe5, 0x461bcd)\n      dup2\n      mstore\n      0x04\n      add\n      tag_213\n      swap1\n      tag_457\n      jump\t// in\n    tag_455:\n        /* \"@openzeppelin/contracts-upgradeable/access/OwnableUpgradeable.sol\":2347:2375  _transferOwnership(newOwner) */\n      tag_458\n        /* \"@openzeppelin/contracts-upgradeable/access/OwnableUpgradeable.sol\":2366:2374  newOwner */\n      dup2\n        /* \"@openzeppelin/contracts-upgradeable/access/OwnableUpgradeable.sol\":2347:2365  _transferOwnership */\n      tag_319\n        /* \"@openzeppelin/contracts-upgradeable/access/OwnableUpgradeable.sol\":2347:2375  _transferOwnership(newOwner) */\n      jump\t// in\n    tag_458:\n        /* \"@openzeppelin/contracts-upgradeable/access/OwnableUpgradeable.sol\":2184:2382  function transferOwnership(address newOwner) public virtual onlyOwner {... */\n      pop\n      jump\t// out\n        /* \"contracts/mirrorseaMain.sol\":1315:1340  uint256 public OrderIndex */\n    tag_180:\n      sload(0x6b)\n      dup2\n      jump\t// out\n        /* \"contracts/mirrorseaMain.sol\":2277:2657  function initialize(... */\n    tag_185:\n        /* \"@openzeppelin/contracts-upgradeable/proxy/utils/Initializable.sol\":539:552  _initializing */\n      sload(0x00)\n      0x0100\n      swap1\n      div\n      0xff\n      and\n      dup1\n        /* \"@openzeppelin/contracts-upgradeable/proxy/utils/Initializable.sol\":539:569  _initializing || !_initialized */\n      tag_460\n      jumpi\n      pop\n        /* \"@openzeppelin/contracts-upgradeable/proxy/utils/Initializable.sol\":557:569  _initialized */\n      and(0xff, sload(0x00))\n        /* \"@openzeppelin/contracts-upgradeable/proxy/utils/Initializable.sol\":556:569  !_initialized */\n      iszero\n        /* \"@openzeppelin/contracts-upgradeable/proxy/utils/Initializable.sol\":539:569  _initializing || !_initialized */\n    tag_460:\n        /* \"@openzeppelin/contracts-upgradeable/proxy/utils/Initializable.sol\":531:620  require(_initializing || !_initialized, \"Initializable: contract is already initialized\") */\n      tag_461\n      jumpi\n      mload(0x40)\n      shl(0xe5, 0x461bcd)\n      dup2\n      mstore\n      0x04\n      add\n      tag_213\n      swap1\n      tag_463\n      jump\t// in\n    tag_461:\n        /* \"@openzeppelin/contracts-upgradeable/proxy/utils/Initializable.sol\":631:650  bool isTopLevelCall */\n      0x00\n        /* \"@openzeppelin/contracts-upgradeable/proxy/utils/Initializable.sol\":654:667  _initializing */\n      sload\n      0x0100\n      swap1\n      div\n      0xff\n      and\n        /* \"@openzeppelin/contracts-upgradeable/proxy/utils/Initializable.sol\":653:667  !_initializing */\n      iszero\n        /* \"@openzeppelin/contracts-upgradeable/proxy/utils/Initializable.sol\":677:775  if (isTopLevelCall) {... */\n      dup1\n      iszero\n      tag_464\n      jumpi\n        /* \"@openzeppelin/contracts-upgradeable/proxy/utils/Initializable.sol\":711:724  _initializing */\n      0x00\n        /* \"@openzeppelin/contracts-upgradeable/proxy/utils/Initializable.sol\":711:731  _initializing = true */\n      dup1\n      sload\n      not(0xff)\n      not(0xff00)\n      swap1\n      swap2\n      and\n      0x0100\n      or\n        /* \"@openzeppelin/contracts-upgradeable/proxy/utils/Initializable.sol\":745:764  _initialized = true */\n      and\n        /* \"@openzeppelin/contracts-upgradeable/proxy/utils/Initializable.sol\":727:731  true */\n      0x01\n        /* \"@openzeppelin/contracts-upgradeable/proxy/utils/Initializable.sol\":745:764  _initialized = true */\n      or\n      swap1\n      sstore\n        /* \"@openzeppelin/contracts-upgradeable/proxy/utils/Initializable.sol\":677:775  if (isTopLevelCall) {... */\n    tag_464:\n        /* \"contracts/mirrorseaMain.sol\":2451:2467  __Ownable_init() */\n      tag_466\n        /* \"contracts/mirrorseaMain.sol\":2451:2465  __Ownable_init */\n      tag_467\n        /* \"contracts/mirrorseaMain.sol\":2451:2467  __Ownable_init() */\n      jump\t// in\n    tag_466:\n        /* \"contracts/mirrorseaMain.sol\":2477:2483  signer */\n      0x66\n        /* \"contracts/mirrorseaMain.sol\":2477:2493  signer = _signer */\n      dup1\n      sload\n      sub(shl(0xa0, 0x01), 0x01)\n      dup1\n      dup9\n      and\n      not(sub(shl(0xa0, 0x01), 0x01))\n      swap3\n      dup4\n      and\n      or\n      swap1\n      swap3\n      sstore\n        /* \"contracts/mirrorseaMain.sol\":2503:2514  helperLogic */\n      0x68\n        /* \"contracts/mirrorseaMain.sol\":2503:2529  helperLogic = _helperLogic */\n      dup1\n      sload\n      dup8\n      dup5\n      and\n      swap1\n      dup4\n      and\n      or\n      swap1\n      sstore\n        /* \"contracts/mirrorseaMain.sol\":2539:2542  usc */\n      0x67\n        /* \"contracts/mirrorseaMain.sol\":2539:2549  usc = _usc */\n      dup1\n      sload\n      dup7\n      dup5\n      and\n      swap1\n      dup4\n      and\n      or\n      swap1\n      sstore\n        /* \"contracts/mirrorseaMain.sol\":2571:2576  10000 */\n      0x2710\n        /* \"contracts/mirrorseaMain.sol\":2559:2568  PRECISION */\n      0x73\n        /* \"contracts/mirrorseaMain.sol\":2559:2576  PRECISION = 10000 */\n      sstore\n        /* \"contracts/mirrorseaMain.sol\":2586:2592  oracle */\n      0x69\n        /* \"contracts/mirrorseaMain.sol\":2586:2602  oracle = _oracle */\n      dup1\n      sload\n      swap3\n      dup6\n      and\n      swap3\n      swap1\n      swap2\n      and\n      swap2\n      swap1\n      swap2\n      or\n      swap1\n      sstore\n        /* \"contracts/mirrorseaMain.sol\":2621:2625  1e18 */\n      0x0de0b6b3a7640000\n        /* \"contracts/mirrorseaMain.sol\":2612:2618  minVal */\n      0x74\n        /* \"contracts/mirrorseaMain.sol\":2612:2625  minVal = 1e18 */\n      sstore\n        /* \"contracts/mirrorseaMain.sol\":2648:2650  50 */\n      0x32\n        /* \"contracts/mirrorseaMain.sol\":2635:2645  feePercent */\n      0x72\n        /* \"contracts/mirrorseaMain.sol\":2635:2650  feePercent = 50 */\n      sstore\n        /* \"@openzeppelin/contracts-upgradeable/proxy/utils/Initializable.sol\":797:863  if (isTopLevelCall) {... */\n      dup1\n      iszero\n      tag_468\n      jumpi\n        /* \"@openzeppelin/contracts-upgradeable/proxy/utils/Initializable.sol\":847:852  false */\n      0x00\n        /* \"@openzeppelin/contracts-upgradeable/proxy/utils/Initializable.sol\":831:852  _initializing = false */\n      dup1\n      sload\n      not(0xff00)\n      and\n      swap1\n      sstore\n        /* \"@openzeppelin/contracts-upgradeable/proxy/utils/Initializable.sol\":797:863  if (isTopLevelCall) {... */\n    tag_468:\n        /* \"contracts/mirrorseaMain.sol\":2277:2657  function initialize(... */\n      pop\n      pop\n      pop\n      pop\n      pop\n      jump\t// out\n        /* \"contracts/mirrorseaMain.sol\":3858:4633  function setOrderInfo(... */\n    tag_189:\n        /* \"contracts/mirrorseaMain.sol\":4217:4221  bool */\n      0x00\n        /* \"@openzeppelin/contracts-upgradeable/access/OwnableUpgradeable.sol\":1525:1537  _msgSender() */\n      tag_470\n        /* \"@openzeppelin/contracts-upgradeable/access/OwnableUpgradeable.sol\":1525:1535  _msgSender */\n      tag_235\n        /* \"@openzeppelin/contracts-upgradeable/access/OwnableUpgradeable.sol\":1525:1537  _msgSender() */\n      jump\t// in\n    tag_470:\n      sub(shl(0xa0, 0x01), 0x01)\n        /* \"@openzeppelin/contracts-upgradeable/access/OwnableUpgradeable.sol\":1514:1537  owner() == _msgSender() */\n      and\n        /* \"@openzeppelin/contracts-upgradeable/access/OwnableUpgradeable.sol\":1514:1521  owner() */\n      tag_471\n        /* \"@openzeppelin/contracts-upgradeable/access/OwnableUpgradeable.sol\":1514:1519  owner */\n      tag_130\n        /* \"@openzeppelin/contracts-upgradeable/access/OwnableUpgradeable.sol\":1514:1521  owner() */\n      jump\t// in\n    tag_471:\n      sub(shl(0xa0, 0x01), 0x01)\n        /* \"@openzeppelin/contracts-upgradeable/access/OwnableUpgradeable.sol\":1514:1537  owner() == _msgSender() */\n      and\n      eq\n        /* \"@openzeppelin/contracts-upgradeable/access/OwnableUpgradeable.sol\":1506:1574  require(owner() == _msgSender(), \"Ownable: caller is not the owner\") */\n      tag_472\n      jumpi\n      mload(0x40)\n      shl(0xe5, 0x461bcd)\n      dup2\n      mstore\n      0x04\n      add\n      tag_213\n      swap1\n      tag_239\n      jump\t// in\n    tag_472:\n        /* \"contracts/mirrorseaMain.sol\":4250:4605  OrderInfo({... */\n      mload(0x40)\n      dup1\n      0x0160\n      add\n      0x40\n      mstore\n      dup1\n        /* \"contracts/mirrorseaMain.sol\":4280:4284  user */\n      dup14\n      sub(shl(0xa0, 0x01), 0x01)\n        /* \"contracts/mirrorseaMain.sol\":4250:4605  OrderInfo({... */\n      and\n      dup2\n      mstore\n      0x20\n      add\n        /* \"contracts/mirrorseaMain.sol\":4305:4310  _type */\n      dup13\n        /* \"contracts/mirrorseaMain.sol\":4250:4605  OrderInfo({... */\n      dup2\n      mstore\n      0x20\n      add\n        /* \"contracts/mirrorseaMain.sol\":4333:4340  symbols */\n      dup12\n        /* \"contracts/mirrorseaMain.sol\":4250:4605  OrderInfo({... */\n      dup2\n      mstore\n      0x20\n      add\n        /* \"contracts/mirrorseaMain.sol\":4361:4366  state */\n      dup11\n        /* \"contracts/mirrorseaMain.sol\":4250:4605  OrderInfo({... */\n      dup2\n      mstore\n      0x20\n      add\n        /* \"contracts/mirrorseaMain.sol\":4391:4400  direction */\n      dup10\n        /* \"contracts/mirrorseaMain.sol\":4250:4605  OrderInfo({... */\n      dup2\n      mstore\n      0x20\n      add\n        /* \"contracts/mirrorseaMain.sol\":4427:4438  openPrice18 */\n      dup9\n        /* \"contracts/mirrorseaMain.sol\":4250:4605  OrderInfo({... */\n      dup2\n      mstore\n      0x20\n      add\n        /* \"contracts/mirrorseaMain.sol\":4462:4470  openTime */\n      dup8\n        /* \"contracts/mirrorseaMain.sol\":4250:4605  OrderInfo({... */\n      dup2\n      mstore\n      0x20\n      add\n        /* \"contracts/mirrorseaMain.sol\":4498:4510  closePrice18 */\n      dup7\n        /* \"contracts/mirrorseaMain.sol\":4250:4605  OrderInfo({... */\n      dup2\n      mstore\n      0x20\n      add\n        /* \"contracts/mirrorseaMain.sol\":4535:4544  closeTime */\n      dup6\n        /* \"contracts/mirrorseaMain.sol\":4250:4605  OrderInfo({... */\n      dup2\n      mstore\n      0x20\n      add\n        /* \"contracts/mirrorseaMain.sol\":4563:4566  amt */\n      dup5\n        /* \"contracts/mirrorseaMain.sol\":4250:4605  OrderInfo({... */\n      dup2\n      mstore\n      0x20\n      add\n        /* \"contracts/mirrorseaMain.sol\":4588:4594  margin */\n      dup4\n        /* \"contracts/mirrorseaMain.sol\":4250:4605  OrderInfo({... */\n      dup2\n      mstore\n      pop\n        /* \"contracts/mirrorseaMain.sol\":4233:4243  _orderInfo */\n      0x6a\n        /* \"contracts/mirrorseaMain.sol\":4233:4247  _orderInfo[id] */\n      0x00\n        /* \"contracts/mirrorseaMain.sol\":4244:4246  id */\n      dup16\n        /* \"contracts/mirrorseaMain.sol\":4233:4247  _orderInfo[id] */\n      dup2\n      mstore\n      0x20\n      add\n      swap1\n      dup2\n      mstore\n      0x20\n      add\n      0x00\n      keccak256\n        /* \"contracts/mirrorseaMain.sol\":4233:4605  _orderInfo[id] = OrderInfo({... */\n      0x00\n      dup3\n      add\n      mload\n      dup2\n      0x00\n      add\n      exp(0x0100, 0x00)\n      dup2\n      sload\n      dup2\n      sub(shl(0xa0, 0x01), 0x01)\n      mul\n      not\n      and\n      swap1\n      dup4\n      sub(shl(0xa0, 0x01), 0x01)\n      and\n      mul\n      or\n      swap1\n      sstore\n      pop\n      0x20\n      dup3\n      add\n      mload\n      dup2\n      0x01\n      add\n      sstore\n      0x40\n      dup3\n      add\n      mload\n      dup2\n      0x02\n      add\n      swap1\n      dup1\n      mload\n      swap1\n      0x20\n      add\n      swap1\n      tag_475\n      swap3\n      swap2\n      swap1\n      tag_444\n      jump\t// in\n    tag_475:\n      pop\n      0x60\n      dup3\n      add\n      mload\n      0x03\n      dup3\n      add\n      sstore\n      0x80\n      dup3\n      add\n      mload\n      0x04\n      dup3\n      add\n      sstore\n      0xa0\n      dup3\n      add\n      mload\n      0x05\n      dup3\n      add\n      sstore\n      0xc0\n      dup3\n      add\n      mload\n      0x06\n      dup3\n      add\n      sstore\n      0xe0\n      dup3\n      add\n      mload\n      0x07\n      dup3\n      add\n      sstore\n      0x0100\n      dup3\n      add\n      mload\n      0x08\n      dup3\n      add\n      sstore\n      0x0120\n      dup3\n      add\n      mload\n      0x09\n      dup3\n      add\n      sstore\n      0x0140\n      swap1\n      swap2\n      add\n      mload\n      0x0a\n      swap1\n      swap2\n      add\n      sstore\n      pop\n        /* \"contracts/mirrorseaMain.sol\":4622:4626  true */\n      0x01\n        /* \"contracts/mirrorseaMain.sol\":3858:4633  function setOrderInfo(... */\n      swap13\n      swap12\n      pop\n      pop\n      pop\n      pop\n      pop\n      pop\n      pop\n      pop\n      pop\n      pop\n      pop\n      pop\n      jump\t// out\n        /* \"@openzeppelin/contracts-upgradeable/utils/math/SafeMathUpgradeable.sol\":3462:3558  function mul(uint256 a, uint256 b) internal pure returns (uint256) {... */\n    tag_206:\n        /* \"@openzeppelin/contracts-upgradeable/utils/math/SafeMathUpgradeable.sol\":3520:3527  uint256 */\n      0x00\n        /* \"@openzeppelin/contracts-upgradeable/utils/math/SafeMathUpgradeable.sol\":3546:3551  a * b */\n      tag_241\n        /* \"@openzeppelin/contracts-upgradeable/utils/math/SafeMathUpgradeable.sol\":3550:3551  b */\n      dup3\n        /* \"@openzeppelin/contracts-upgradeable/utils/math/SafeMathUpgradeable.sol\":3546:3547  a */\n      dup5\n        /* \"@openzeppelin/contracts-upgradeable/utils/math/SafeMathUpgradeable.sol\":3546:3551  a * b */\n      tag_478\n      jump\t// in\n        /* \"@openzeppelin/contracts-upgradeable/utils/math/SafeMathUpgradeable.sol\":3119:3215  function sub(uint256 a, uint256 b) internal pure returns (uint256) {... */\n    tag_207:\n        /* \"@openzeppelin/contracts-upgradeable/utils/math/SafeMathUpgradeable.sol\":3177:3184  uint256 */\n      0x00\n        /* \"@openzeppelin/contracts-upgradeable/utils/math/SafeMathUpgradeable.sol\":3203:3208  a - b */\n      tag_241\n        /* \"@openzeppelin/contracts-upgradeable/utils/math/SafeMathUpgradeable.sol\":3207:3208  b */\n      dup3\n        /* \"@openzeppelin/contracts-upgradeable/utils/math/SafeMathUpgradeable.sol\":3203:3204  a */\n      dup5\n        /* \"@openzeppelin/contracts-upgradeable/utils/math/SafeMathUpgradeable.sol\":3203:3208  a - b */\n      tag_481\n      jump\t// in\n        /* \"@openzeppelin/contracts-upgradeable/utils/ContextUpgradeable.sol\":876:972  function _msgSender() internal view virtual returns (address) {... */\n    tag_235:\n        /* \"@openzeppelin/contracts-upgradeable/utils/ContextUpgradeable.sol\":955:965  msg.sender */\n      caller\n        /* \"@openzeppelin/contracts-upgradeable/utils/ContextUpgradeable.sol\":876:972  function _msgSender() internal view virtual returns (address) {... */\n      swap1\n      jump\t// out\n        /* \"@openzeppelin/contracts-upgradeable/utils/math/SafeMathUpgradeable.sol\":3847:3943  function div(uint256 a, uint256 b) internal pure returns (uint256) {... */\n    tag_247:\n        /* \"@openzeppelin/contracts-upgradeable/utils/math/SafeMathUpgradeable.sol\":3905:3912  uint256 */\n      0x00\n        /* \"@openzeppelin/contracts-upgradeable/utils/math/SafeMathUpgradeable.sol\":3931:3936  a / b */\n      tag_241\n        /* \"@openzeppelin/contracts-upgradeable/utils/math/SafeMathUpgradeable.sol\":3935:3936  b */\n      dup3\n        /* \"@openzeppelin/contracts-upgradeable/utils/math/SafeMathUpgradeable.sol\":3931:3932  a */\n      dup5\n        /* \"@openzeppelin/contracts-upgradeable/utils/math/SafeMathUpgradeable.sol\":3931:3936  a / b */\n      tag_485\n      jump\t// in\n        /* \"contracts/mirrorseaMain.sol\":7813:11524  function _closePosition(... */\n    tag_287:\n        /* \"contracts/mirrorseaMain.sol\":8109:8119  order.user */\n      dup7\n      sload\n        /* \"contracts/mirrorseaMain.sol\":8085:8089  bool */\n      0x00\n      swap1\n      sub(shl(0xa0, 0x01), 0x01)\n        /* \"contracts/mirrorseaMain.sol\":8109:8119  order.user */\n      and\n        /* \"contracts/mirrorseaMain.sol\":8101:8158  require(order.user != address(0), \"order does not exist\") */\n      tag_487\n      jumpi\n      mload(0x40)\n      shl(0xe5, 0x461bcd)\n      dup2\n      mstore\n      0x04\n      add\n      tag_213\n      swap1\n      tag_335\n      jump\t// in\n    tag_487:\n        /* \"contracts/mirrorseaMain.sol\":8190:8191  2 */\n      0x02\n        /* \"contracts/mirrorseaMain.sol\":8176:8181  order */\n      dup9\n        /* \"contracts/mirrorseaMain.sol\":8176:8187  order.state */\n      0x03\n      add\n      sload\n        /* \"contracts/mirrorseaMain.sol\":8176:8191  order.state < 2 */\n      lt\n        /* \"contracts/mirrorseaMain.sol\":8168:8205  require(order.state < 2, \"state err\") */\n      tag_489\n      jumpi\n      mload(0x40)\n      shl(0xe5, 0x461bcd)\n      dup2\n      mstore\n      0x04\n      add\n      tag_213\n      swap1\n      tag_338\n      jump\t// in\n    tag_489:\n        /* \"contracts/mirrorseaMain.sol\":8236:8242  oracle */\n      sload(0x69)\n        /* \"contracts/mirrorseaMain.sol\":8236:8401  oracle.getkey(... */\n      mload(0x40)\n      shl(0xe1, 0x11cdc9d9)\n      dup2\n      mstore\n      sub(shl(0xa0, 0x01), 0x01)\n        /* \"contracts/mirrorseaMain.sol\":8236:8242  oracle */\n      swap1\n      swap2\n      and\n      swap1\n        /* \"contracts/mirrorseaMain.sol\":8236:8249  oracle.getkey */\n      0x239b93b2\n      swap1\n        /* \"contracts/mirrorseaMain.sol\":8236:8401  oracle.getkey(... */\n      tag_491\n      swap1\n        /* \"contracts/mirrorseaMain.sol\":8267:8279  _marketState */\n      dup13\n      swap1\n        /* \"contracts/mirrorseaMain.sol\":8297:8305  _price18 */\n      dup8\n      swap1\n        /* \"contracts/mirrorseaMain.sol\":8323:8333  _timestamp */\n      dup11\n      swap1\n        /* \"contracts/mirrorseaMain.sol\":8351:8359  _symbols */\n      dup11\n      swap1\n        /* \"contracts/mirrorseaMain.sol\":8377:8387  _signature */\n      dup10\n      swap1\n        /* \"contracts/mirrorseaMain.sol\":8236:8401  oracle.getkey(... */\n      0x04\n      add\n      tag_340\n      jump\t// in\n    tag_491:\n      0x20\n      mload(0x40)\n      dup1\n      dup4\n      sub\n      dup2\n      dup7\n      dup1\n      extcodesize\n      iszero\n      dup1\n      iszero\n      tag_492\n      jumpi\n      0x00\n      dup1\n      revert\n    tag_492:\n      pop\n      gas\n      staticcall\n      iszero\n      dup1\n      iszero\n      tag_494\n      jumpi\n      returndatasize\n      0x00\n      dup1\n      returndatacopy\n      revert(0x00, returndatasize)\n    tag_494:\n      pop\n      pop\n      pop\n      pop\n      mload(0x40)\n      returndatasize\n      not(0x1f)\n      0x1f\n      dup3\n      add\n      and\n      dup3\n      add\n      dup1\n      0x40\n      mstore\n      pop\n      dup2\n      add\n      swap1\n      tag_495\n      swap2\n      swap1\n      tag_345\n      jump\t// in\n    tag_495:\n        /* \"contracts/mirrorseaMain.sol\":8215:8437  require(... */\n      tag_496\n      jumpi\n      mload(0x40)\n      shl(0xe5, 0x461bcd)\n      dup2\n      mstore\n      0x04\n      add\n      tag_213\n      swap1\n      tag_348\n      jump\t// in\n    tag_496:\n        /* \"contracts/mirrorseaMain.sol\":8448:8466  order.closePrice18 */\n      0x07\n      dup9\n      add\n        /* \"contracts/mirrorseaMain.sol\":8448:8477  order.closePrice18 = _price18 */\n      dup4\n      swap1\n      sstore\n        /* \"contracts/mirrorseaMain.sol\":8589:8598  order.amt */\n      0x09\n      dup9\n      add\n      sload\n        /* \"contracts/mirrorseaMain.sol\":8772:8781  PRECISION */\n      sload(0x73)\n        /* \"contracts/mirrorseaMain.sol\":8743:8753  feePercent */\n      sload(0x72)\n        /* \"contracts/mirrorseaMain.sol\":8487:8506  uint256 diffPrice18 */\n      0x00\n      swap3\n      dup4\n      swap3\n      dup4\n      swap3\n        /* \"contracts/mirrorseaMain.sol\":8469:8477  _price18 */\n      dup9\n      swap2\n        /* \"contracts/mirrorseaMain.sol\":8487:8506  uint256 diffPrice18 */\n      dup5\n      swap2\n        /* \"contracts/mirrorseaMain.sol\":8679:8805  order_closePrice18... */\n      tag_498\n      swap2\n        /* \"contracts/mirrorseaMain.sol\":8800:8804  1e18 */\n      0x0de0b6b3a7640000\n      swap2\n        /* \"contracts/mirrorseaMain.sol\":8679:8782  order_closePrice18... */\n      tag_246\n      swap2\n        /* \"contracts/mirrorseaMain.sol\":8772:8781  PRECISION */\n      swap1\n        /* \"contracts/mirrorseaMain.sol\":8679:8782  order_closePrice18... */\n      dup3\n      swap1\n        /* \"contracts/mirrorseaMain.sol\":8679:8725  order_closePrice18... */\n      tag_251\n        /* \"contracts/mirrorseaMain.sol\":8469:8477  _price18 */\n      dup9\n        /* \"contracts/mirrorseaMain.sol\":8589:8598  order.amt */\n      dup11\n        /* \"contracts/mirrorseaMain.sol\":8679:8714  order_closePrice18... */\n      tag_206\n        /* \"contracts/mirrorseaMain.sol\":8679:8725  order_closePrice18... */\n      jump\t// in\n        /* \"contracts/mirrorseaMain.sol\":8679:8805  order_closePrice18... */\n    tag_498:\n        /* \"contracts/mirrorseaMain.sol\":8665:8805  uint256 fee = order_closePrice18... */\n      swap1\n      pop\n        /* \"contracts/mirrorseaMain.sol\":8819:8824  order */\n      dup14\n        /* \"contracts/mirrorseaMain.sol\":8819:8834  order.direction */\n      0x04\n      add\n      sload\n        /* \"contracts/mirrorseaMain.sol\":8838:8839  1 */\n      0x01\n        /* \"contracts/mirrorseaMain.sol\":8819:8839  order.direction == 1 */\n      eq\n        /* \"contracts/mirrorseaMain.sol\":8815:10661  if (order.direction == 1) {... */\n      iszero\n      tag_502\n      jumpi\n        /* \"contracts/mirrorseaMain.sol\":8880:8885  order */\n      dup14\n        /* \"contracts/mirrorseaMain.sol\":8880:8897  order.openPrice18 */\n      0x05\n      add\n      sload\n        /* \"contracts/mirrorseaMain.sol\":8859:8864  order */\n      dup15\n        /* \"contracts/mirrorseaMain.sol\":8859:8877  order.closePrice18 */\n      0x07\n      add\n      sload\n        /* \"contracts/mirrorseaMain.sol\":8859:8897  order.closePrice18 > order.openPrice18 */\n      gt\n        /* \"contracts/mirrorseaMain.sol\":8855:9734  if (order.closePrice18 > order.openPrice18) {... */\n      iszero\n      tag_503\n      jumpi\n        /* \"contracts/mirrorseaMain.sol\":8954:8971  order.openPrice18 */\n      0x05\n      dup15\n      add\n      sload\n        /* \"contracts/mirrorseaMain.sol\":8931:8949  order.closePrice18 */\n      0x07\n      dup16\n      add\n      sload\n        /* \"contracts/mirrorseaMain.sol\":8931:8972  order.closePrice18.sub(order.openPrice18) */\n      tag_504\n      swap2\n        /* \"contracts/mirrorseaMain.sol\":8931:8953  order.closePrice18.sub */\n      tag_207\n        /* \"contracts/mirrorseaMain.sol\":8931:8972  order.closePrice18.sub(order.openPrice18) */\n      jump\t// in\n    tag_504:\n        /* \"contracts/mirrorseaMain.sol\":8917:8972  diffPrice18 = order.closePrice18.sub(order.openPrice18) */\n      swap6\n      pop\n        /* \"contracts/mirrorseaMain.sol\":9003:9039  diffPrice18.mul(order_amt).div(1e18) */\n      tag_505\n        /* \"contracts/mirrorseaMain.sol\":9034:9038  1e18 */\n      0x0de0b6b3a7640000\n        /* \"contracts/mirrorseaMain.sol\":9003:9029  diffPrice18.mul(order_amt) */\n      tag_246\n        /* \"contracts/mirrorseaMain.sol\":8917:8972  diffPrice18 = order.closePrice18.sub(order.openPrice18) */\n      dup9\n        /* \"contracts/mirrorseaMain.sol\":9019:9028  order_amt */\n      dup7\n        /* \"contracts/mirrorseaMain.sol\":9003:9018  diffPrice18.mul */\n      tag_206\n        /* \"contracts/mirrorseaMain.sol\":9003:9029  diffPrice18.mul(order_amt) */\n      jump\t// in\n        /* \"contracts/mirrorseaMain.sol\":9003:9039  diffPrice18.mul(order_amt).div(1e18) */\n    tag_505:\n        /* \"contracts/mirrorseaMain.sol\":9067:9079  order.margin */\n      0x0a\n      dup16\n      add\n      sload\n        /* \"contracts/mirrorseaMain.sol\":8990:9039  diffMargin = diffPrice18.mul(order_amt).div(1e18) */\n      swap1\n      swap6\n      pop\n        /* \"contracts/mirrorseaMain.sol\":9067:9095  order.margin.add(diffMargin) */\n      tag_507\n      swap1\n        /* \"contracts/mirrorseaMain.sol\":8990:9039  diffMargin = diffPrice18.mul(order_amt).div(1e18) */\n      dup7\n        /* \"contracts/mirrorseaMain.sol\":9067:9083  order.margin.add */\n      tag_363\n        /* \"contracts/mirrorseaMain.sol\":9067:9095  order.margin.add(diffMargin) */\n      jump\t// in\n    tag_507:\n        /* \"contracts/mirrorseaMain.sol\":9127:9130  usc */\n      sload(0x67)\n        /* \"contracts/mirrorseaMain.sol\":9146:9157  helperLogic */\n      sload(0x68)\n        /* \"contracts/mirrorseaMain.sol\":9114:9164  IUSC(address(usc)).mint(address(helperLogic), fee) */\n      mload(0x40)\n      shl(0xe0, 0x40c10f19)\n      dup2\n      mstore\n        /* \"contracts/mirrorseaMain.sol\":9057:9095  mintAmt = order.margin.add(diffMargin) */\n      swap3\n      swap7\n      pop\n      sub(shl(0xa0, 0x01), 0x01)\n        /* \"contracts/mirrorseaMain.sol\":9127:9130  usc */\n      swap2\n      dup3\n      and\n      swap3\n        /* \"contracts/mirrorseaMain.sol\":9114:9137  IUSC(address(usc)).mint */\n      0x40c10f19\n      swap3\n        /* \"contracts/mirrorseaMain.sol\":9114:9164  IUSC(address(usc)).mint(address(helperLogic), fee) */\n      tag_508\n      swap3\n        /* \"contracts/mirrorseaMain.sol\":9146:9157  helperLogic */\n      and\n      swap1\n        /* \"contracts/mirrorseaMain.sol\":9160:9163  fee */\n      dup6\n      swap1\n        /* \"contracts/mirrorseaMain.sol\":9114:9164  IUSC(address(usc)).mint(address(helperLogic), fee) */\n      0x04\n      add\n      tag_378\n      jump\t// in\n    tag_508:\n      0x20\n      mload(0x40)\n      dup1\n      dup4\n      sub\n      dup2\n      0x00\n      dup8\n      dup1\n      extcodesize\n      iszero\n      dup1\n      iszero\n      tag_509\n      jumpi\n      0x00\n      dup1\n      revert\n    tag_509:\n      pop\n      gas\n      call\n      iszero\n      dup1\n      iszero\n      tag_511\n      jumpi\n      returndatasize\n      0x00\n      dup1\n      returndatacopy\n      revert(0x00, returndatasize)\n    tag_511:\n      pop\n      pop\n      pop\n      pop\n      mload(0x40)\n      returndatasize\n      not(0x1f)\n      0x1f\n      dup3\n      add\n      and\n      dup3\n      add\n      dup1\n      0x40\n      mstore\n      pop\n      dup2\n      add\n      swap1\n      tag_512\n      swap2\n      swap1\n      tag_345\n      jump\t// in\n    tag_512:\n      pop\n        /* \"contracts/mirrorseaMain.sol\":9195:9198  usc */\n      sload(0x67)\n        /* \"contracts/mirrorseaMain.sol\":9206:9216  order.user */\n      dup15\n      sload\n      sub(shl(0xa0, 0x01), 0x01)\n        /* \"contracts/mirrorseaMain.sol\":9195:9198  usc */\n      swap2\n      dup3\n      and\n      swap2\n        /* \"contracts/mirrorseaMain.sol\":9182:9205  IUSC(address(usc)).mint */\n      0x40c10f19\n      swap2\n        /* \"contracts/mirrorseaMain.sol\":9206:9216  order.user */\n      and\n        /* \"contracts/mirrorseaMain.sol\":9218:9234  mintAmt.sub(fee) */\n      tag_513\n        /* \"contracts/mirrorseaMain.sol\":9218:9225  mintAmt */\n      dup8\n        /* \"contracts/mirrorseaMain.sol\":9230:9233  fee */\n      dup6\n        /* \"contracts/mirrorseaMain.sol\":9218:9229  mintAmt.sub */\n      tag_207\n        /* \"contracts/mirrorseaMain.sol\":9218:9234  mintAmt.sub(fee) */\n      jump\t// in\n    tag_513:\n        /* \"contracts/mirrorseaMain.sol\":9182:9235  IUSC(address(usc)).mint(order.user, mintAmt.sub(fee)) */\n      mload(0x40)\n      dup4\n      0xffffffff\n      and\n      0xe0\n      shl\n      dup2\n      mstore\n      0x04\n      add\n      tag_514\n      swap3\n      swap2\n      swap1\n      tag_378\n      jump\t// in\n    tag_514:\n      0x20\n      mload(0x40)\n      dup1\n      dup4\n      sub\n      dup2\n      0x00\n      dup8\n      dup1\n      extcodesize\n      iszero\n      dup1\n      iszero\n      tag_515\n      jumpi\n      0x00\n      dup1\n      revert\n    tag_515:\n      pop\n      gas\n      call\n      iszero\n      dup1\n      iszero\n      tag_517\n      jumpi\n      returndatasize\n      0x00\n      dup1\n      returndatacopy\n      revert(0x00, returndatasize)\n    tag_517:\n      pop\n      pop\n      pop\n      pop\n      mload(0x40)\n      returndatasize\n      not(0x1f)\n      0x1f\n      dup3\n      add\n      and\n      dup3\n      add\n      dup1\n      0x40\n      mstore\n      pop\n      dup2\n      add\n      swap1\n      tag_518\n      swap2\n      swap1\n      tag_345\n      jump\t// in\n    tag_518:\n      pop\n        /* \"contracts/mirrorseaMain.sol\":8855:9734  if (order.closePrice18 > order.openPrice18) {... */\n      jump(tag_523)\n    tag_503:\n        /* \"contracts/mirrorseaMain.sol\":9310:9328  order.closePrice18 */\n      0x07\n      dup15\n      add\n      sload\n        /* \"contracts/mirrorseaMain.sol\":9288:9305  order.openPrice18 */\n      0x05\n      dup16\n      add\n      sload\n        /* \"contracts/mirrorseaMain.sol\":9288:9329  order.openPrice18.sub(order.closePrice18) */\n      tag_520\n      swap2\n        /* \"contracts/mirrorseaMain.sol\":9288:9309  order.openPrice18.sub */\n      tag_207\n        /* \"contracts/mirrorseaMain.sol\":9288:9329  order.openPrice18.sub(order.closePrice18) */\n      jump\t// in\n    tag_520:\n        /* \"contracts/mirrorseaMain.sol\":9274:9329  diffPrice18 = order.openPrice18.sub(order.closePrice18) */\n      swap6\n      pop\n        /* \"contracts/mirrorseaMain.sol\":9360:9386  diffPrice18.mul(order_amt) */\n      tag_521\n        /* \"contracts/mirrorseaMain.sol\":9274:9329  diffPrice18 = order.openPrice18.sub(order.closePrice18) */\n      dup7\n        /* \"contracts/mirrorseaMain.sol\":9376:9385  order_amt */\n      dup5\n        /* \"contracts/mirrorseaMain.sol\":9360:9375  diffPrice18.mul */\n      tag_206\n        /* \"contracts/mirrorseaMain.sol\":9360:9386  diffPrice18.mul(order_amt) */\n      jump\t// in\n    tag_521:\n        /* \"contracts/mirrorseaMain.sol\":9347:9386  diffMargin = diffPrice18.mul(order_amt) */\n      swap5\n      pop\n        /* \"contracts/mirrorseaMain.sol\":9422:9427  order */\n      dup14\n        /* \"contracts/mirrorseaMain.sol\":9422:9434  order.margin */\n      0x0a\n      add\n      sload\n        /* \"contracts/mirrorseaMain.sol\":9409:9419  diffMargin */\n      dup6\n        /* \"contracts/mirrorseaMain.sol\":9409:9434  diffMargin > order.margin */\n      gt\n        /* \"contracts/mirrorseaMain.sol\":9405:9720  if (diffMargin > order.margin) {... */\n      iszero\n      tag_522\n      jumpi\n        /* \"contracts/mirrorseaMain.sol\":9468:9469  0 */\n      0x00\n        /* \"contracts/mirrorseaMain.sol\":9458:9469  mintAmt = 0 */\n      swap4\n      pop\n        /* \"contracts/mirrorseaMain.sol\":9405:9720  if (diffMargin > order.margin) {... */\n      jump(tag_523)\n    tag_522:\n        /* \"contracts/mirrorseaMain.sol\":9526:9538  order.margin */\n      0x0a\n      dup15\n      add\n      sload\n        /* \"contracts/mirrorseaMain.sol\":9526:9554  order.margin.sub(diffMargin) */\n      tag_524\n      swap1\n        /* \"contracts/mirrorseaMain.sol\":9543:9553  diffMargin */\n      dup7\n        /* \"contracts/mirrorseaMain.sol\":9526:9542  order.margin.sub */\n      tag_207\n        /* \"contracts/mirrorseaMain.sol\":9526:9554  order.margin.sub(diffMargin) */\n      jump\t// in\n    tag_524:\n        /* \"contracts/mirrorseaMain.sol\":9589:9592  usc */\n      sload(0x67)\n        /* \"contracts/mirrorseaMain.sol\":9608:9619  helperLogic */\n      sload(0x68)\n        /* \"contracts/mirrorseaMain.sol\":9576:9626  IUSC(address(usc)).mint(address(helperLogic), fee) */\n      mload(0x40)\n      shl(0xe0, 0x40c10f19)\n      dup2\n      mstore\n        /* \"contracts/mirrorseaMain.sol\":9516:9554  mintAmt = order.margin.sub(diffMargin) */\n      swap3\n      swap7\n      pop\n      sub(shl(0xa0, 0x01), 0x01)\n        /* \"contracts/mirrorseaMain.sol\":9589:9592  usc */\n      swap2\n      dup3\n      and\n      swap3\n        /* \"contracts/mirrorseaMain.sol\":9576:9599  IUSC(address(usc)).mint */\n      0x40c10f19\n      swap3\n        /* \"contracts/mirrorseaMain.sol\":9576:9626  IUSC(address(usc)).mint(address(helperLogic), fee) */\n      tag_525\n      swap3\n        /* \"contracts/mirrorseaMain.sol\":9608:9619  helperLogic */\n      and\n      swap1\n        /* \"contracts/mirrorseaMain.sol\":9622:9625  fee */\n      dup6\n      swap1\n        /* \"contracts/mirrorseaMain.sol\":9576:9626  IUSC(address(usc)).mint(address(helperLogic), fee) */\n      0x04\n      add\n      tag_378\n      jump\t// in\n    tag_525:\n      0x20\n      mload(0x40)\n      dup1\n      dup4\n      sub\n      dup2\n      0x00\n      dup8\n      dup1\n      extcodesize\n      iszero\n      dup1\n      iszero\n      tag_526\n      jumpi\n      0x00\n      dup1\n      revert\n    tag_526:\n      pop\n      gas\n      call\n      iszero\n      dup1\n      iszero\n      tag_528\n      jumpi\n      returndatasize\n      0x00\n      dup1\n      returndatacopy\n      revert(0x00, returndatasize)\n    tag_528:\n      pop\n      pop\n      pop\n      pop\n      mload(0x40)\n      returndatasize\n      not(0x1f)\n      0x1f\n      dup3\n      add\n      and\n      dup3\n      add\n      dup1\n      0x40\n      mstore\n      pop\n      dup2\n      add\n      swap1\n      tag_529\n      swap2\n      swap1\n      tag_345\n      jump\t// in\n    tag_529:\n      pop\n        /* \"contracts/mirrorseaMain.sol\":9661:9664  usc */\n      sload(0x67)\n        /* \"contracts/mirrorseaMain.sol\":9672:9682  order.user */\n      dup15\n      sload\n      sub(shl(0xa0, 0x01), 0x01)\n        /* \"contracts/mirrorseaMain.sol\":9661:9664  usc */\n      swap2\n      dup3\n      and\n      swap2\n        /* \"contracts/mirrorseaMain.sol\":9648:9671  IUSC(address(usc)).mint */\n      0x40c10f19\n      swap2\n        /* \"contracts/mirrorseaMain.sol\":9672:9682  order.user */\n      and\n        /* \"contracts/mirrorseaMain.sol\":9684:9700  mintAmt.sub(fee) */\n      tag_530\n        /* \"contracts/mirrorseaMain.sol\":9684:9691  mintAmt */\n      dup8\n        /* \"contracts/mirrorseaMain.sol\":9696:9699  fee */\n      dup6\n        /* \"contracts/mirrorseaMain.sol\":9684:9695  mintAmt.sub */\n      tag_207\n        /* \"contracts/mirrorseaMain.sol\":9684:9700  mintAmt.sub(fee) */\n      jump\t// in\n    tag_530:\n        /* \"contracts/mirrorseaMain.sol\":9648:9701  IUSC(address(usc)).mint(order.user, mintAmt.sub(fee)) */\n      mload(0x40)\n      dup4\n      0xffffffff\n      and\n      0xe0\n      shl\n      dup2\n      mstore\n      0x04\n      add\n      tag_531\n      swap3\n      swap2\n      swap1\n      tag_378\n      jump\t// in\n    tag_531:\n      0x20\n      mload(0x40)\n      dup1\n      dup4\n      sub\n      dup2\n      0x00\n      dup8\n      dup1\n      extcodesize\n      iszero\n      dup1\n      iszero\n      tag_532\n      jumpi\n      0x00\n      dup1\n      revert\n    tag_532:\n      pop\n      gas\n      call\n      iszero\n      dup1\n      iszero\n      tag_534\n      jumpi\n      returndatasize\n      0x00\n      dup1\n      returndatacopy\n      revert(0x00, returndatasize)\n    tag_534:\n      pop\n      pop\n      pop\n      pop\n      mload(0x40)\n      returndatasize\n      not(0x1f)\n      0x1f\n      dup3\n      add\n      and\n      dup3\n      add\n      dup1\n      0x40\n      mstore\n      pop\n      dup2\n      add\n      swap1\n      tag_535\n      swap2\n      swap1\n      tag_345\n      jump\t// in\n    tag_535:\n      pop\n        /* \"contracts/mirrorseaMain.sol\":9405:9720  if (diffMargin > order.margin) {... */\n    tag_523:\n        /* \"contracts/mirrorseaMain.sol\":8815:10661  if (order.direction == 1) {... */\n      jump(tag_558)\n    tag_502:\n        /* \"contracts/mirrorseaMain.sol\":9789:9794  order */\n      dup14\n        /* \"contracts/mirrorseaMain.sol\":9789:9806  order.openPrice18 */\n      0x05\n      add\n      sload\n        /* \"contracts/mirrorseaMain.sol\":9768:9773  order */\n      dup15\n        /* \"contracts/mirrorseaMain.sol\":9768:9786  order.closePrice18 */\n      0x07\n      add\n      sload\n        /* \"contracts/mirrorseaMain.sol\":9768:9806  order.closePrice18 < order.openPrice18 */\n      lt\n        /* \"contracts/mirrorseaMain.sol\":9764:10651  if (order.closePrice18 < order.openPrice18) {... */\n      iszero\n      tag_537\n      jumpi\n        /* \"contracts/mirrorseaMain.sol\":9862:9880  order.closePrice18 */\n      0x07\n      dup15\n      add\n      sload\n        /* \"contracts/mirrorseaMain.sol\":9840:9857  order.openPrice18 */\n      0x05\n      dup16\n      add\n      sload\n        /* \"contracts/mirrorseaMain.sol\":9840:9881  order.openPrice18.sub(order.closePrice18) */\n      tag_538\n      swap2\n        /* \"contracts/mirrorseaMain.sol\":9840:9861  order.openPrice18.sub */\n      tag_207\n        /* \"contracts/mirrorseaMain.sol\":9840:9881  order.openPrice18.sub(order.closePrice18) */\n      jump\t// in\n    tag_538:\n        /* \"contracts/mirrorseaMain.sol\":9826:9881  diffPrice18 = order.openPrice18.sub(order.closePrice18) */\n      swap6\n      pop\n        /* \"contracts/mirrorseaMain.sol\":9912:9948  diffPrice18.mul(order_amt).div(1e18) */\n      tag_539\n        /* \"contracts/mirrorseaMain.sol\":9943:9947  1e18 */\n      0x0de0b6b3a7640000\n        /* \"contracts/mirrorseaMain.sol\":9912:9938  diffPrice18.mul(order_amt) */\n      tag_246\n        /* \"contracts/mirrorseaMain.sol\":9826:9881  diffPrice18 = order.openPrice18.sub(order.closePrice18) */\n      dup9\n        /* \"contracts/mirrorseaMain.sol\":9928:9937  order_amt */\n      dup7\n        /* \"contracts/mirrorseaMain.sol\":9912:9927  diffPrice18.mul */\n      tag_206\n        /* \"contracts/mirrorseaMain.sol\":9912:9938  diffPrice18.mul(order_amt) */\n      jump\t// in\n        /* \"contracts/mirrorseaMain.sol\":9912:9948  diffPrice18.mul(order_amt).div(1e18) */\n    tag_539:\n        /* \"contracts/mirrorseaMain.sol\":9976:9988  order.margin */\n      0x0a\n      dup16\n      add\n      sload\n        /* \"contracts/mirrorseaMain.sol\":9899:9948  diffMargin = diffPrice18.mul(order_amt).div(1e18) */\n      swap1\n      swap6\n      pop\n        /* \"contracts/mirrorseaMain.sol\":9976:10004  order.margin.add(diffMargin) */\n      tag_524\n      swap1\n        /* \"contracts/mirrorseaMain.sol\":9899:9948  diffMargin = diffPrice18.mul(order_amt).div(1e18) */\n      dup7\n        /* \"contracts/mirrorseaMain.sol\":9976:9992  order.margin.add */\n      tag_363\n        /* \"contracts/mirrorseaMain.sol\":9976:10004  order.margin.add(diffMargin) */\n      jump\t// in\n        /* \"contracts/mirrorseaMain.sol\":9764:10651  if (order.closePrice18 < order.openPrice18) {... */\n    tag_537:\n        /* \"contracts/mirrorseaMain.sol\":10219:10236  order.openPrice18 */\n      0x05\n      dup15\n      add\n      sload\n        /* \"contracts/mirrorseaMain.sol\":10196:10214  order.closePrice18 */\n      0x07\n      dup16\n      add\n      sload\n        /* \"contracts/mirrorseaMain.sol\":10196:10237  order.closePrice18.sub(order.openPrice18) */\n      tag_554\n      swap2\n        /* \"contracts/mirrorseaMain.sol\":10196:10218  order.closePrice18.sub */\n      tag_207\n        /* \"contracts/mirrorseaMain.sol\":10196:10237  order.closePrice18.sub(order.openPrice18) */\n      jump\t// in\n    tag_554:\n        /* \"contracts/mirrorseaMain.sol\":10182:10237  diffPrice18 = order.closePrice18.sub(order.openPrice18) */\n      swap6\n      pop\n        /* \"contracts/mirrorseaMain.sol\":10268:10304  diffPrice18.mul(order_amt).div(1e18) */\n      tag_555\n        /* \"contracts/mirrorseaMain.sol\":10299:10303  1e18 */\n      0x0de0b6b3a7640000\n        /* \"contracts/mirrorseaMain.sol\":10268:10294  diffPrice18.mul(order_amt) */\n      tag_246\n        /* \"contracts/mirrorseaMain.sol\":10182:10237  diffPrice18 = order.closePrice18.sub(order.openPrice18) */\n      dup9\n        /* \"contracts/mirrorseaMain.sol\":10284:10293  order_amt */\n      dup7\n        /* \"contracts/mirrorseaMain.sol\":10268:10283  diffPrice18.mul */\n      tag_206\n        /* \"contracts/mirrorseaMain.sol\":10268:10294  diffPrice18.mul(order_amt) */\n      jump\t// in\n        /* \"contracts/mirrorseaMain.sol\":10268:10304  diffPrice18.mul(order_amt).div(1e18) */\n    tag_555:\n        /* \"contracts/mirrorseaMain.sol\":10255:10304  diffMargin = diffPrice18.mul(order_amt).div(1e18) */\n      swap5\n      pop\n        /* \"contracts/mirrorseaMain.sol\":10339:10344  order */\n      dup14\n        /* \"contracts/mirrorseaMain.sol\":10339:10351  order.margin */\n      0x0a\n      add\n      sload\n        /* \"contracts/mirrorseaMain.sol\":10326:10336  diffMargin */\n      dup6\n        /* \"contracts/mirrorseaMain.sol\":10326:10351  diffMargin > order.margin */\n      gt\n        /* \"contracts/mirrorseaMain.sol\":10322:10637  if (diffMargin > order.margin) {... */\n      iszero\n      tag_557\n      jumpi\n        /* \"contracts/mirrorseaMain.sol\":10385:10386  0 */\n      0x00\n        /* \"contracts/mirrorseaMain.sol\":10375:10386  mintAmt = 0 */\n      swap4\n      pop\n        /* \"contracts/mirrorseaMain.sol\":10322:10637  if (diffMargin > order.margin) {... */\n      jump(tag_558)\n    tag_557:\n        /* \"contracts/mirrorseaMain.sol\":10443:10455  order.margin */\n      0x0a\n      dup15\n      add\n      sload\n        /* \"contracts/mirrorseaMain.sol\":10443:10471  order.margin.sub(diffMargin) */\n      tag_559\n      swap1\n        /* \"contracts/mirrorseaMain.sol\":10460:10470  diffMargin */\n      dup7\n        /* \"contracts/mirrorseaMain.sol\":10443:10459  order.margin.sub */\n      tag_207\n        /* \"contracts/mirrorseaMain.sol\":10443:10471  order.margin.sub(diffMargin) */\n      jump\t// in\n    tag_559:\n        /* \"contracts/mirrorseaMain.sol\":10506:10509  usc */\n      sload(0x67)\n        /* \"contracts/mirrorseaMain.sol\":10525:10536  helperLogic */\n      sload(0x68)\n        /* \"contracts/mirrorseaMain.sol\":10493:10543  IUSC(address(usc)).mint(address(helperLogic), fee) */\n      mload(0x40)\n      shl(0xe0, 0x40c10f19)\n      dup2\n      mstore\n        /* \"contracts/mirrorseaMain.sol\":10433:10471  mintAmt = order.margin.sub(diffMargin) */\n      swap3\n      swap7\n      pop\n      sub(shl(0xa0, 0x01), 0x01)\n        /* \"contracts/mirrorseaMain.sol\":10506:10509  usc */\n      swap2\n      dup3\n      and\n      swap3\n        /* \"contracts/mirrorseaMain.sol\":10493:10516  IUSC(address(usc)).mint */\n      0x40c10f19\n      swap3\n        /* \"contracts/mirrorseaMain.sol\":10493:10543  IUSC(address(usc)).mint(address(helperLogic), fee) */\n      tag_560\n      swap3\n        /* \"contracts/mirrorseaMain.sol\":10525:10536  helperLogic */\n      and\n      swap1\n        /* \"contracts/mirrorseaMain.sol\":10539:10542  fee */\n      dup6\n      swap1\n        /* \"contracts/mirrorseaMain.sol\":10493:10543  IUSC(address(usc)).mint(address(helperLogic), fee) */\n      0x04\n      add\n      tag_378\n      jump\t// in\n    tag_560:\n      0x20\n      mload(0x40)\n      dup1\n      dup4\n      sub\n      dup2\n      0x00\n      dup8\n      dup1\n      extcodesize\n      iszero\n      dup1\n      iszero\n      tag_561\n      jumpi\n      0x00\n      dup1\n      revert\n    tag_561:\n      pop\n      gas\n      call\n      iszero\n      dup1\n      iszero\n      tag_563\n      jumpi\n      returndatasize\n      0x00\n      dup1\n      returndatacopy\n      revert(0x00, returndatasize)\n    tag_563:\n      pop\n      pop\n      pop\n      pop\n      mload(0x40)\n      returndatasize\n      not(0x1f)\n      0x1f\n      dup3\n      add\n      and\n      dup3\n      add\n      dup1\n      0x40\n      mstore\n      pop\n      dup2\n      add\n      swap1\n      tag_564\n      swap2\n      swap1\n      tag_345\n      jump\t// in\n    tag_564:\n      pop\n        /* \"contracts/mirrorseaMain.sol\":10578:10581  usc */\n      sload(0x67)\n        /* \"contracts/mirrorseaMain.sol\":10589:10599  order.user */\n      dup15\n      sload\n      sub(shl(0xa0, 0x01), 0x01)\n        /* \"contracts/mirrorseaMain.sol\":10578:10581  usc */\n      swap2\n      dup3\n      and\n      swap2\n        /* \"contracts/mirrorseaMain.sol\":10565:10588  IUSC(address(usc)).mint */\n      0x40c10f19\n      swap2\n        /* \"contracts/mirrorseaMain.sol\":10589:10599  order.user */\n      and\n        /* \"contracts/mirrorseaMain.sol\":10601:10617  mintAmt.sub(fee) */\n      tag_565\n        /* \"contracts/mirrorseaMain.sol\":10601:10608  mintAmt */\n      dup8\n        /* \"contracts/mirrorseaMain.sol\":10613:10616  fee */\n      dup6\n        /* \"contracts/mirrorseaMain.sol\":10601:10612  mintAmt.sub */\n      tag_207\n        /* \"contracts/mirrorseaMain.sol\":10601:10617  mintAmt.sub(fee) */\n      jump\t// in\n    tag_565:\n        /* \"contracts/mirrorseaMain.sol\":10565:10618  IUSC(address(usc)).mint(order.user, mintAmt.sub(fee)) */\n      mload(0x40)\n      dup4\n      0xffffffff\n      and\n      0xe0\n      shl\n      dup2\n      mstore\n      0x04\n      add\n      tag_566\n      swap3\n      swap2\n      swap1\n      tag_378\n      jump\t// in\n    tag_566:\n      0x20\n      mload(0x40)\n      dup1\n      dup4\n      sub\n      dup2\n      0x00\n      dup8\n      dup1\n      extcodesize\n      iszero\n      dup1\n      iszero\n      tag_567\n      jumpi\n      0x00\n      dup1\n      revert\n    tag_567:\n      pop\n      gas\n      call\n      iszero\n      dup1\n      iszero\n      tag_569\n      jumpi\n      returndatasize\n      0x00\n      dup1\n      returndatacopy\n      revert(0x00, returndatasize)\n    tag_569:\n      pop\n      pop\n      pop\n      pop\n      mload(0x40)\n      returndatasize\n      not(0x1f)\n      0x1f\n      dup3\n      add\n      and\n      dup3\n      add\n      dup1\n      0x40\n      mstore\n      pop\n      dup2\n      add\n      swap1\n      tag_570\n      swap2\n      swap1\n      tag_345\n      jump\t// in\n    tag_570:\n      pop\n        /* \"contracts/mirrorseaMain.sol\":10322:10637  if (diffMargin > order.margin) {... */\n    tag_558:\n        /* \"contracts/mirrorseaMain.sol\":10671:10682  helperLogic */\n      0x68\n      0x00\n      swap1\n      sload\n      swap1\n      0x0100\n      exp\n      swap1\n      div\n      sub(shl(0xa0, 0x01), 0x01)\n      and\n      sub(shl(0xa0, 0x01), 0x01)\n        /* \"contracts/mirrorseaMain.sol\":10671:10697  helperLogic.jointExecution */\n      and\n      0xd10c06a2\n        /* \"contracts/mirrorseaMain.sol\":10671:10699  helperLogic.jointExecution() */\n      mload(0x40)\n      dup2\n      0xffffffff\n      and\n      0xe0\n      shl\n      dup2\n      mstore\n      0x04\n      add\n      0x20\n      mload(0x40)\n      dup1\n      dup4\n      sub\n      dup2\n      0x00\n      dup8\n      dup1\n      extcodesize\n      iszero\n      dup1\n      iszero\n      tag_571\n      jumpi\n      0x00\n      dup1\n      revert\n    tag_571:\n      pop\n      gas\n      call\n      iszero\n      dup1\n      iszero\n      tag_573\n      jumpi\n      returndatasize\n      0x00\n      dup1\n      returndatacopy\n      revert(0x00, returndatasize)\n    tag_573:\n      pop\n      pop\n      pop\n      pop\n      mload(0x40)\n      returndatasize\n      not(0x1f)\n      0x1f\n      dup3\n      add\n      and\n      dup3\n      add\n      dup1\n      0x40\n      mstore\n      pop\n      dup2\n      add\n      swap1\n      tag_574\n      swap2\n      swap1\n      tag_345\n      jump\t// in\n    tag_574:\n      pop\n        /* \"contracts/mirrorseaMain.sol\":10710:10721  order.state */\n      0x03\n      dup15\n      add\n        /* \"contracts/mirrorseaMain.sol\":10710:10730  order.state = _state */\n      dup14\n      swap1\n      sstore\n        /* \"contracts/mirrorseaMain.sol\":10740:10758  order.closePrice18 */\n      0x07\n      dup15\n      add\n        /* \"contracts/mirrorseaMain.sol\":10740:10769  order.closePrice18 = _price18 */\n      dup10\n      swap1\n      sstore\n        /* \"contracts/mirrorseaMain.sol\":10779:10794  order.closeTime */\n      0x08\n      dup15\n      add\n        /* \"contracts/mirrorseaMain.sol\":10779:10807  order.closeTime = _timestamp */\n      dup12\n      swap1\n      sstore\n        /* \"contracts/mirrorseaMain.sol\":10818:10874  cutListItem(_id, openOrderIdList_index, openOrderIdList) */\n      tag_575\n        /* \"contracts/mirrorseaMain.sol\":10830:10833  _id */\n      dup13\n        /* \"contracts/mirrorseaMain.sol\":10835:10856  openOrderIdList_index */\n      0x6d\n        /* \"contracts/mirrorseaMain.sol\":10858:10873  openOrderIdList */\n      0x6c\n        /* \"contracts/mirrorseaMain.sol\":10818:10829  cutListItem */\n      tag_576\n        /* \"contracts/mirrorseaMain.sol\":10818:10874  cutListItem(_id, openOrderIdList_index, openOrderIdList) */\n      jump\t// in\n    tag_575:\n        /* \"contracts/mirrorseaMain.sol\":10950:10960  msg.sender */\n      caller\n        /* \"contracts/mirrorseaMain.sol\":10926:10961  myOpenOrderIdList_index[msg.sender] */\n      0x00\n      swap1\n      dup2\n      mstore\n        /* \"contracts/mirrorseaMain.sol\":10926:10949  myOpenOrderIdList_index */\n      0x6f\n        /* \"contracts/mirrorseaMain.sol\":10926:10961  myOpenOrderIdList_index[msg.sender] */\n      0x20\n      swap1\n      dup2\n      mstore\n      0x40\n      dup1\n      dup4\n      keccak256\n        /* \"contracts/mirrorseaMain.sol\":10975:10992  myOpenOrderIdList */\n      0x6e\n        /* \"contracts/mirrorseaMain.sol\":10975:11004  myOpenOrderIdList[msg.sender] */\n      swap1\n      swap3\n      mstore\n      swap1\n      swap2\n      keccak256\n        /* \"contracts/mirrorseaMain.sol\":10884:11014  cutListItem(... */\n      tag_577\n      swap2\n        /* \"contracts/mirrorseaMain.sol\":10909:10912  _id */\n      dup15\n      swap2\n        /* \"contracts/mirrorseaMain.sol\":10884:10895  cutListItem */\n      tag_576\n        /* \"contracts/mirrorseaMain.sol\":10884:11014  cutListItem(... */\n      jump\t// in\n    tag_577:\n        /* \"contracts/mirrorseaMain.sol\":11044:11054  msg.sender */\n      caller\n        /* \"contracts/mirrorseaMain.sol\":11025:11055  myCloseOrderIdList[msg.sender] */\n      0x00\n      dup2\n      dup2\n      mstore\n        /* \"contracts/mirrorseaMain.sol\":11025:11043  myCloseOrderIdList */\n      0x70\n        /* \"contracts/mirrorseaMain.sol\":11025:11055  myCloseOrderIdList[msg.sender] */\n      0x20\n      swap1\n      dup2\n      mstore\n      0x40\n      dup3\n      keccak256\n        /* \"contracts/mirrorseaMain.sol\":11025:11065  myCloseOrderIdList[msg.sender].push(_id) */\n      dup1\n      sload\n      0x01\n      dup2\n      dup2\n      add\n      dup4\n      sstore\n      swap2\n      dup5\n      mstore\n      swap2\n      swap1\n      swap3\n      keccak256\n      add\n      dup15\n      swap1\n      sstore\n        /* \"contracts/mirrorseaMain.sol\":11120:11185  myCloseOrderIdListLength(... */\n      tag_579\n      swap2\n        /* \"contracts/mirrorseaMain.sol\":11120:11178  myCloseOrderIdListLength(... */\n      tag_205\n      swap1\n        /* \"contracts/mirrorseaMain.sol\":11120:11144  myCloseOrderIdListLength */\n      tag_146\n        /* \"contracts/mirrorseaMain.sol\":11120:11178  myCloseOrderIdListLength(... */\n      jump\t// in\n        /* \"contracts/mirrorseaMain.sol\":11120:11185  myCloseOrderIdListLength(... */\n    tag_579:\n        /* \"contracts/mirrorseaMain.sol\":11101:11111  msg.sender */\n      caller\n        /* \"contracts/mirrorseaMain.sol\":11076:11112  myCloseOrderIdList_index[msg.sender] */\n      0x00\n      swap1\n      dup2\n      mstore\n        /* \"contracts/mirrorseaMain.sol\":11076:11100  myCloseOrderIdList_index */\n      0x71\n        /* \"contracts/mirrorseaMain.sol\":11076:11112  myCloseOrderIdList_index[msg.sender] */\n      0x20\n      swap1\n      dup2\n      mstore\n      0x40\n      dup1\n      dup4\n      keccak256\n        /* \"contracts/mirrorseaMain.sol\":11076:11117  myCloseOrderIdList_index[msg.sender][_id] */\n      swap16\n      dup4\n      mstore\n      swap15\n      swap1\n      mstore\n      swap13\n      swap1\n      swap13\n      keccak256\n        /* \"contracts/mirrorseaMain.sol\":11076:11185  myCloseOrderIdList_index[msg.sender][_id] = myCloseOrderIdListLength(... */\n      swap12\n      swap1\n      swap12\n      sstore\n      pop\n        /* \"contracts/mirrorseaMain.sol\":11513:11517  true */\n      0x01\n      swap14\n        /* \"contracts/mirrorseaMain.sol\":7813:11524  function _closePosition(... */\n      swap13\n      pop\n      pop\n      pop\n      pop\n      pop\n      pop\n      pop\n      pop\n      pop\n      pop\n      pop\n      pop\n      pop\n      jump\t// out\n        /* \"@openzeppelin/contracts-upgradeable/access/OwnableUpgradeable.sol\":2536:2723  function _transferOwnership(address newOwner) internal virtual {... */\n    tag_319:\n        /* \"@openzeppelin/contracts-upgradeable/access/OwnableUpgradeable.sol\":2628:2634  _owner */\n      0x33\n      dup1\n      sload\n      sub(shl(0xa0, 0x01), 0x01)\n        /* \"@openzeppelin/contracts-upgradeable/access/OwnableUpgradeable.sol\":2644:2661  _owner = newOwner */\n      dup4\n      dup2\n      and\n      not(sub(shl(0xa0, 0x01), 0x01))\n      dup4\n      and\n      dup2\n      or\n      swap1\n      swap4\n      sstore\n        /* \"@openzeppelin/contracts-upgradeable/access/OwnableUpgradeable.sol\":2676:2716  OwnershipTransferred(oldOwner, newOwner) */\n      mload(0x40)\n        /* \"@openzeppelin/contracts-upgradeable/access/OwnableUpgradeable.sol\":2628:2634  _owner */\n      swap2\n      and\n      swap2\n        /* \"@openzeppelin/contracts-upgradeable/access/OwnableUpgradeable.sol\":2644:2661  _owner = newOwner */\n      swap1\n        /* \"@openzeppelin/contracts-upgradeable/access/OwnableUpgradeable.sol\":2628:2634  _owner */\n      dup3\n      swap1\n        /* \"@openzeppelin/contracts-upgradeable/access/OwnableUpgradeable.sol\":2676:2716  OwnershipTransferred(oldOwner, newOwner) */\n      0x8be0079c531659141344cd1fd0a4f28419497f9722a3daafe3b4186f6b6457e0\n      swap1\n        /* \"@openzeppelin/contracts-upgradeable/access/OwnableUpgradeable.sol\":2609:2625  address oldOwner */\n      0x00\n      swap1\n        /* \"@openzeppelin/contracts-upgradeable/access/OwnableUpgradeable.sol\":2676:2716  OwnershipTransferred(oldOwner, newOwner) */\n      log3\n        /* \"@openzeppelin/contracts-upgradeable/access/OwnableUpgradeable.sol\":2536:2723  function _transferOwnership(address newOwner) internal virtual {... */\n      pop\n      pop\n      jump\t// out\n        /* \"@openzeppelin/contracts-upgradeable/utils/math/SafeMathUpgradeable.sol\":2752:2848  function add(uint256 a, uint256 b) internal pure returns (uint256) {... */\n    tag_363:\n        /* \"@openzeppelin/contracts-upgradeable/utils/math/SafeMathUpgradeable.sol\":2810:2817  uint256 */\n      0x00\n        /* \"@openzeppelin/contracts-upgradeable/utils/math/SafeMathUpgradeable.sol\":2836:2841  a + b */\n      tag_241\n        /* \"@openzeppelin/contracts-upgradeable/utils/math/SafeMathUpgradeable.sol\":2840:2841  b */\n      dup3\n        /* \"@openzeppelin/contracts-upgradeable/utils/math/SafeMathUpgradeable.sol\":2836:2837  a */\n      dup5\n        /* \"@openzeppelin/contracts-upgradeable/utils/math/SafeMathUpgradeable.sol\":2836:2841  a + b */\n      tag_253\n      jump\t// in\n        /* \"@openzeppelin/contracts-upgradeable/token/ERC20/utils/SafeERC20Upgradeable.sol\":967:1219  function safeTransferFrom(... */\n    tag_369:\n        /* \"@openzeppelin/contracts-upgradeable/token/ERC20/utils/SafeERC20Upgradeable.sol\":1116:1212  _callOptionalReturn(token, abi.encodeWithSelector(token.transferFrom.selector, from, to, value)) */\n      tag_585\n        /* \"@openzeppelin/contracts-upgradeable/token/ERC20/utils/SafeERC20Upgradeable.sol\":1136:1141  token */\n      dup5\n        /* \"@openzeppelin/contracts-upgradeable/token/ERC20/utils/SafeERC20Upgradeable.sol\":1166:1193  token.transferFrom.selector */\n      shl(0xe0, 0x23b872dd)\n        /* \"@openzeppelin/contracts-upgradeable/token/ERC20/utils/SafeERC20Upgradeable.sol\":1195:1199  from */\n      dup6\n        /* \"@openzeppelin/contracts-upgradeable/token/ERC20/utils/SafeERC20Upgradeable.sol\":1201:1203  to */\n      dup6\n        /* \"@openzeppelin/contracts-upgradeable/token/ERC20/utils/SafeERC20Upgradeable.sol\":1205:1210  value */\n      dup6\n        /* \"@openzeppelin/contracts-upgradeable/token/ERC20/utils/SafeERC20Upgradeable.sol\":1143:1211  abi.encodeWithSelector(token.transferFrom.selector, from, to, value) */\n      add(0x24, mload(0x40))\n      tag_586\n      swap4\n      swap3\n      swap2\n      swap1\n      tag_587\n      jump\t// in\n    tag_586:\n      0x40\n      dup1\n      mload\n      not(0x1f)\n      dup2\n      dup5\n      sub\n      add\n      dup2\n      mstore\n      swap2\n      swap1\n      mstore\n      0x20\n      dup2\n      add\n      dup1\n      mload\n      sub(shl(0xe0, 0x01), 0x01)\n      and\n      not(sub(shl(0xe0, 0x01), 0x01))\n      swap1\n      swap4\n      and\n      swap3\n      swap1\n      swap3\n      or\n      swap1\n      swap2\n      mstore\n        /* \"@openzeppelin/contracts-upgradeable/token/ERC20/utils/SafeERC20Upgradeable.sol\":1116:1135  _callOptionalReturn */\n      tag_588\n        /* \"@openzeppelin/contracts-upgradeable/token/ERC20/utils/SafeERC20Upgradeable.sol\":1116:1212  _callOptionalReturn(token, abi.encodeWithSelector(token.transferFrom.selector, from, to, value)) */\n      jump\t// in\n    tag_585:\n        /* \"@openzeppelin/contracts-upgradeable/token/ERC20/utils/SafeERC20Upgradeable.sol\":967:1219  function safeTransferFrom(... */\n      pop\n      pop\n      pop\n      pop\n      jump\t// out\n        /* \"@openzeppelin/contracts-upgradeable/token/ERC20/utils/SafeERC20Upgradeable.sol\":745:961  function safeTransfer(... */\n    tag_389:\n        /* \"@openzeppelin/contracts-upgradeable/token/ERC20/utils/SafeERC20Upgradeable.sol\":868:954  _callOptionalReturn(token, abi.encodeWithSelector(token.transfer.selector, to, value)) */\n      tag_590\n        /* \"@openzeppelin/contracts-upgradeable/token/ERC20/utils/SafeERC20Upgradeable.sol\":888:893  token */\n      dup4\n        /* \"@openzeppelin/contracts-upgradeable/token/ERC20/utils/SafeERC20Upgradeable.sol\":918:941  token.transfer.selector */\n      shl(0xe0, 0xa9059cbb)\n        /* \"@openzeppelin/contracts-upgradeable/token/ERC20/utils/SafeERC20Upgradeable.sol\":943:945  to */\n      dup5\n        /* \"@openzeppelin/contracts-upgradeable/token/ERC20/utils/SafeERC20Upgradeable.sol\":947:952  value */\n      dup5\n        /* \"@openzeppelin/contracts-upgradeable/token/ERC20/utils/SafeERC20Upgradeable.sol\":895:953  abi.encodeWithSelector(token.transfer.selector, to, value) */\n      add(0x24, mload(0x40))\n      tag_586\n      swap3\n      swap2\n      swap1\n      tag_378\n      jump\t// in\n        /* \"@openzeppelin/contracts-upgradeable/token/ERC20/utils/SafeERC20Upgradeable.sol\":868:954  _callOptionalReturn(token, abi.encodeWithSelector(token.transfer.selector, to, value)) */\n    tag_590:\n        /* \"@openzeppelin/contracts-upgradeable/token/ERC20/utils/SafeERC20Upgradeable.sol\":745:961  function safeTransfer(... */\n      pop\n      pop\n      pop\n      jump\t// out\n        /* \"@openzeppelin/contracts-upgradeable/access/OwnableUpgradeable.sol\":988:1114  function __Ownable_init() internal initializer {... */\n    tag_467:\n        /* \"@openzeppelin/contracts-upgradeable/proxy/utils/Initializable.sol\":539:552  _initializing */\n      sload(0x00)\n      0x0100\n      swap1\n      div\n      0xff\n      and\n      dup1\n        /* \"@openzeppelin/contracts-upgradeable/proxy/utils/Initializable.sol\":539:569  _initializing || !_initialized */\n      tag_593\n      jumpi\n      pop\n        /* \"@openzeppelin/contracts-upgradeable/proxy/utils/Initializable.sol\":557:569  _initialized */\n      and(0xff, sload(0x00))\n        /* \"@openzeppelin/contracts-upgradeable/proxy/utils/Initializable.sol\":556:569  !_initialized */\n      iszero\n        /* \"@openzeppelin/contracts-upgradeable/proxy/utils/Initializable.sol\":539:569  _initializing || !_initialized */\n    tag_593:\n        /* \"@openzeppelin/contracts-upgradeable/proxy/utils/Initializable.sol\":531:620  require(_initializing || !_initialized, \"Initializable: contract is already initialized\") */\n      tag_594\n      jumpi\n      mload(0x40)\n      shl(0xe5, 0x461bcd)\n      dup2\n      mstore\n      0x04\n      add\n      tag_213\n      swap1\n      tag_463\n      jump\t// in\n    tag_594:\n        /* \"@openzeppelin/contracts-upgradeable/proxy/utils/Initializable.sol\":631:650  bool isTopLevelCall */\n      0x00\n        /* \"@openzeppelin/contracts-upgradeable/proxy/utils/Initializable.sol\":654:667  _initializing */\n      sload\n      0x0100\n      swap1\n      div\n      0xff\n      and\n        /* \"@openzeppelin/contracts-upgradeable/proxy/utils/Initializable.sol\":653:667  !_initializing */\n      iszero\n        /* \"@openzeppelin/contracts-upgradeable/proxy/utils/Initializable.sol\":677:775  if (isTopLevelCall) {... */\n      dup1\n      iszero\n      tag_596\n      jumpi\n        /* \"@openzeppelin/contracts-upgradeable/proxy/utils/Initializable.sol\":711:724  _initializing */\n      0x00\n        /* \"@openzeppelin/contracts-upgradeable/proxy/utils/Initializable.sol\":711:731  _initializing = true */\n      dup1\n      sload\n      not(0xff)\n      not(0xff00)\n      swap1\n      swap2\n      and\n      0x0100\n      or\n        /* \"@openzeppelin/contracts-upgradeable/proxy/utils/Initializable.sol\":745:764  _initialized = true */\n      and\n        /* \"@openzeppelin/contracts-upgradeable/proxy/utils/Initializable.sol\":727:731  true */\n      0x01\n        /* \"@openzeppelin/contracts-upgradeable/proxy/utils/Initializable.sol\":745:764  _initialized = true */\n      or\n      swap1\n      sstore\n        /* \"@openzeppelin/contracts-upgradeable/proxy/utils/Initializable.sol\":677:775  if (isTopLevelCall) {... */\n    tag_596:\n        /* \"@openzeppelin/contracts-upgradeable/access/OwnableUpgradeable.sol\":1045:1071  __Context_init_unchained() */\n      tag_598\n        /* \"@openzeppelin/contracts-upgradeable/access/OwnableUpgradeable.sol\":1045:1069  __Context_init_unchained */\n      tag_599\n        /* \"@openzeppelin/contracts-upgradeable/access/OwnableUpgradeable.sol\":1045:1071  __Context_init_unchained() */\n      jump\t// in\n    tag_598:\n        /* \"@openzeppelin/contracts-upgradeable/access/OwnableUpgradeable.sol\":1081:1107  __Ownable_init_unchained() */\n      tag_600\n        /* \"@openzeppelin/contracts-upgradeable/access/OwnableUpgradeable.sol\":1081:1105  __Ownable_init_unchained */\n      tag_601\n        /* \"@openzeppelin/contracts-upgradeable/access/OwnableUpgradeable.sol\":1081:1107  __Ownable_init_unchained() */\n      jump\t// in\n    tag_600:\n        /* \"@openzeppelin/contracts-upgradeable/proxy/utils/Initializable.sol\":801:815  isTopLevelCall */\n      dup1\n        /* \"@openzeppelin/contracts-upgradeable/proxy/utils/Initializable.sol\":797:863  if (isTopLevelCall) {... */\n      iszero\n      tag_458\n      jumpi\n        /* \"@openzeppelin/contracts-upgradeable/proxy/utils/Initializable.sol\":847:852  false */\n      0x00\n        /* \"@openzeppelin/contracts-upgradeable/proxy/utils/Initializable.sol\":831:852  _initializing = false */\n      dup1\n      sload\n      not(0xff00)\n      and\n      swap1\n      sstore\n        /* \"@openzeppelin/contracts-upgradeable/access/OwnableUpgradeable.sol\":988:1114  function __Ownable_init() internal initializer {... */\n      pop\n      jump\t// out\n        /* \"contracts/mirrorseaMain.sol\":12128:12508  function cutListItem(... */\n    tag_576:\n        /* \"contracts/mirrorseaMain.sol\":12285:12301  uint256 delIndex */\n      0x00\n        /* \"contracts/mirrorseaMain.sol\":12304:12320  _List_index[_id] */\n      dup4\n      dup2\n      mstore\n      0x20\n      dup4\n      swap1\n      mstore\n      0x40\n      dup2\n      keccak256\n      sload\n        /* \"contracts/mirrorseaMain.sol\":12353:12365  _List.length */\n      dup3\n      sload\n        /* \"contracts/mirrorseaMain.sol\":12304:12320  _List_index[_id] */\n      swap1\n      swap2\n        /* \"contracts/mirrorseaMain.sol\":12285:12301  uint256 delIndex */\n      swap1\n        /* \"contracts/mirrorseaMain.sol\":12347:12352  _List */\n      dup4\n      swap1\n        /* \"contracts/mirrorseaMain.sol\":12353:12372  _List.length.sub(1) */\n      tag_604\n      swap1\n        /* \"contracts/mirrorseaMain.sol\":12370:12371  1 */\n      0x01\n        /* \"contracts/mirrorseaMain.sol\":12353:12369  _List.length.sub */\n      tag_207\n        /* \"contracts/mirrorseaMain.sol\":12353:12372  _List.length.sub(1) */\n      jump\t// in\n    tag_604:\n        /* \"contracts/mirrorseaMain.sol\":12347:12373  _List[_List.length.sub(1)] */\n      dup2\n      sload\n      dup2\n      lt\n      tag_605\n      jumpi\n      mstore(0x00, shl(0xe0, 0x4e487b71))\n      mstore(0x04, 0x32)\n      revert(0x00, 0x24)\n    tag_605:\n      swap1\n      0x00\n      mstore\n      keccak256(0x00, 0x20)\n      add\n      sload\n        /* \"contracts/mirrorseaMain.sol\":12330:12373  uint256 lastID = _List[_List.length.sub(1)] */\n      swap1\n      pop\n        /* \"contracts/mirrorseaMain.sol\":12405:12413  delIndex */\n      dup2\n        /* \"contracts/mirrorseaMain.sol\":12383:12394  _List_index */\n      dup5\n        /* \"contracts/mirrorseaMain.sol\":12383:12402  _List_index[lastID] */\n      0x00\n        /* \"contracts/mirrorseaMain.sol\":12395:12401  lastID */\n      dup4\n        /* \"contracts/mirrorseaMain.sol\":12383:12402  _List_index[lastID] */\n      dup2\n      mstore\n      0x20\n      add\n      swap1\n      dup2\n      mstore\n      0x20\n      add\n      0x00\n      keccak256\n        /* \"contracts/mirrorseaMain.sol\":12383:12413  _List_index[lastID] = delIndex */\n      dup2\n      swap1\n      sstore\n      pop\n        /* \"contracts/mirrorseaMain.sol\":12441:12447  lastID */\n      dup1\n        /* \"contracts/mirrorseaMain.sol\":12423:12428  _List */\n      dup4\n        /* \"contracts/mirrorseaMain.sol\":12429:12437  delIndex */\n      dup4\n        /* \"contracts/mirrorseaMain.sol\":12423:12438  _List[delIndex] */\n      dup2\n      sload\n      dup2\n      lt\n      tag_607\n      jumpi\n      mstore(0x00, shl(0xe0, 0x4e487b71))\n      mstore(0x04, 0x32)\n      revert(0x00, 0x24)\n    tag_607:\n      0x00\n      swap2\n      dup3\n      mstore\n      0x20\n      dup1\n      dup4\n      keccak256\n      swap1\n      swap2\n      add\n        /* \"contracts/mirrorseaMain.sol\":12423:12447  _List[delIndex] = lastID */\n      swap3\n      swap1\n      swap3\n      sstore\n        /* \"contracts/mirrorseaMain.sol\":12464:12480  _List_index[_id] */\n      dup7\n      dup2\n      mstore\n      swap1\n      dup6\n      swap1\n      mstore\n      0x40\n      dup2\n      keccak256\n        /* \"contracts/mirrorseaMain.sol\":12457:12480  delete _List_index[_id] */\n      sstore\n        /* \"contracts/mirrorseaMain.sol\":12490:12501  _List.pop() */\n      dup3\n      sload\n        /* \"contracts/mirrorseaMain.sol\":12490:12495  _List */\n      dup4\n      swap1\n        /* \"contracts/mirrorseaMain.sol\":12490:12501  _List.pop() */\n      dup1\n      tag_609\n      jumpi\n      mstore(0x00, shl(0xe0, 0x4e487b71))\n      mstore(0x04, 0x31)\n      revert(0x00, 0x24)\n    tag_609:\n      0x01\n      swap1\n      sub\n      dup2\n      dup2\n      swap1\n      0x00\n      mstore\n      keccak256(0x00, 0x20)\n      add\n      0x00\n      swap1\n      sstore\n      swap1\n      sstore\n        /* \"contracts/mirrorseaMain.sol\":12128:12508  function cutListItem(... */\n      pop\n      pop\n      pop\n      pop\n      pop\n      jump\t// out\n        /* \"@openzeppelin/contracts-upgradeable/token/ERC20/utils/SafeERC20Upgradeable.sol\":3306:4023  function _callOptionalReturn(IERC20Upgradeable token, bytes memory data) private {... */\n    tag_588:\n        /* \"@openzeppelin/contracts-upgradeable/token/ERC20/utils/SafeERC20Upgradeable.sol\":3736:3759  bytes memory returndata */\n      0x00\n        /* \"@openzeppelin/contracts-upgradeable/token/ERC20/utils/SafeERC20Upgradeable.sol\":3762:3831  address(token).functionCall(data, \"SafeERC20: low-level call failed\") */\n      tag_612\n        /* \"@openzeppelin/contracts-upgradeable/token/ERC20/utils/SafeERC20Upgradeable.sol\":3790:3794  data */\n      dup3\n        /* \"@openzeppelin/contracts-upgradeable/token/ERC20/utils/SafeERC20Upgradeable.sol\":3762:3831  address(token).functionCall(data, \"SafeERC20: low-level call failed\") */\n      mload(0x40)\n      dup1\n      0x40\n      add\n      0x40\n      mstore\n      dup1\n      0x20\n      dup2\n      mstore\n      0x20\n      add\n      0x5361666545524332303a206c6f772d6c6576656c2063616c6c206661696c6564\n      dup2\n      mstore\n      pop\n        /* \"@openzeppelin/contracts-upgradeable/token/ERC20/utils/SafeERC20Upgradeable.sol\":3770:3775  token */\n      dup6\n      sub(shl(0xa0, 0x01), 0x01)\n        /* \"@openzeppelin/contracts-upgradeable/token/ERC20/utils/SafeERC20Upgradeable.sol\":3762:3789  address(token).functionCall */\n      and\n      tag_613\n      swap1\n        /* \"@openzeppelin/contracts-upgradeable/token/ERC20/utils/SafeERC20Upgradeable.sol\":3762:3831  address(token).functionCall(data, \"SafeERC20: low-level call failed\") */\n      swap3\n      swap2\n      swap1\n      0xffffffff\n      and\n      jump\t// in\n    tag_612:\n        /* \"@openzeppelin/contracts-upgradeable/token/ERC20/utils/SafeERC20Upgradeable.sol\":3845:3862  returndata.length */\n      dup1\n      mload\n        /* \"@openzeppelin/contracts-upgradeable/token/ERC20/utils/SafeERC20Upgradeable.sol\":3736:3831  bytes memory returndata = address(token).functionCall(data, \"SafeERC20: low-level call failed\") */\n      swap1\n      swap2\n      pop\n        /* \"@openzeppelin/contracts-upgradeable/token/ERC20/utils/SafeERC20Upgradeable.sol\":3845:3866  returndata.length > 0 */\n      iszero\n        /* \"@openzeppelin/contracts-upgradeable/token/ERC20/utils/SafeERC20Upgradeable.sol\":3841:4017  if (returndata.length > 0) {... */\n      tag_590\n      jumpi\n        /* \"@openzeppelin/contracts-upgradeable/token/ERC20/utils/SafeERC20Upgradeable.sol\":3940:3950  returndata */\n      dup1\n        /* \"@openzeppelin/contracts-upgradeable/token/ERC20/utils/SafeERC20Upgradeable.sol\":3929:3959  abi.decode(returndata, (bool)) */\n      dup1\n      0x20\n      add\n      swap1\n      mload\n      dup2\n      add\n      swap1\n      tag_615\n      swap2\n      swap1\n      tag_345\n      jump\t// in\n    tag_615:\n        /* \"@openzeppelin/contracts-upgradeable/token/ERC20/utils/SafeERC20Upgradeable.sol\":3921:4006  require(abi.decode(returndata, (bool)), \"SafeERC20: ERC20 operation did not succeed\") */\n      tag_590\n      jumpi\n      mload(0x40)\n      shl(0xe5, 0x461bcd)\n      dup2\n      mstore\n      0x04\n      add\n      tag_213\n      swap1\n      tag_618\n      jump\t// in\n        /* \"@openzeppelin/contracts-upgradeable/utils/ContextUpgradeable.sol\":807:871  function __Context_init_unchained() internal initializer {... */\n    tag_599:\n        /* \"@openzeppelin/contracts-upgradeable/proxy/utils/Initializable.sol\":539:552  _initializing */\n      sload(0x00)\n      0x0100\n      swap1\n      div\n      0xff\n      and\n      dup1\n        /* \"@openzeppelin/contracts-upgradeable/proxy/utils/Initializable.sol\":539:569  _initializing || !_initialized */\n      tag_620\n      jumpi\n      pop\n        /* \"@openzeppelin/contracts-upgradeable/proxy/utils/Initializable.sol\":557:569  _initialized */\n      and(0xff, sload(0x00))\n        /* \"@openzeppelin/contracts-upgradeable/proxy/utils/Initializable.sol\":556:569  !_initialized */\n      iszero\n        /* \"@openzeppelin/contracts-upgradeable/proxy/utils/Initializable.sol\":539:569  _initializing || !_initialized */\n    tag_620:\n        /* \"@openzeppelin/contracts-upgradeable/proxy/utils/Initializable.sol\":531:620  require(_initializing || !_initialized, \"Initializable: contract is already initialized\") */\n      tag_621\n      jumpi\n      mload(0x40)\n      shl(0xe5, 0x461bcd)\n      dup2\n      mstore\n      0x04\n      add\n      tag_213\n      swap1\n      tag_463\n      jump\t// in\n    tag_621:\n        /* \"@openzeppelin/contracts-upgradeable/proxy/utils/Initializable.sol\":631:650  bool isTopLevelCall */\n      0x00\n        /* \"@openzeppelin/contracts-upgradeable/proxy/utils/Initializable.sol\":654:667  _initializing */\n      sload\n      0x0100\n      swap1\n      div\n      0xff\n      and\n        /* \"@openzeppelin/contracts-upgradeable/proxy/utils/Initializable.sol\":653:667  !_initializing */\n      iszero\n        /* \"@openzeppelin/contracts-upgradeable/proxy/utils/Initializable.sol\":677:775  if (isTopLevelCall) {... */\n      dup1\n      iszero\n      tag_600\n      jumpi\n        /* \"@openzeppelin/contracts-upgradeable/proxy/utils/Initializable.sol\":711:724  _initializing */\n      0x00\n        /* \"@openzeppelin/contracts-upgradeable/proxy/utils/Initializable.sol\":711:731  _initializing = true */\n      dup1\n      sload\n      not(0xff)\n      not(0xff00)\n      swap1\n      swap2\n      and\n      0x0100\n      or\n        /* \"@openzeppelin/contracts-upgradeable/proxy/utils/Initializable.sol\":745:764  _initialized = true */\n      and\n        /* \"@openzeppelin/contracts-upgradeable/proxy/utils/Initializable.sol\":727:731  true */\n      0x01\n        /* \"@openzeppelin/contracts-upgradeable/proxy/utils/Initializable.sol\":745:764  _initialized = true */\n      or\n      swap1\n      sstore\n        /* \"@openzeppelin/contracts-upgradeable/proxy/utils/Initializable.sol\":801:815  isTopLevelCall */\n      dup1\n        /* \"@openzeppelin/contracts-upgradeable/proxy/utils/Initializable.sol\":797:863  if (isTopLevelCall) {... */\n      iszero\n      tag_458\n      jumpi\n        /* \"@openzeppelin/contracts-upgradeable/proxy/utils/Initializable.sol\":847:852  false */\n      0x00\n        /* \"@openzeppelin/contracts-upgradeable/proxy/utils/Initializable.sol\":831:852  _initializing = false */\n      dup1\n      sload\n      not(0xff00)\n      and\n      swap1\n      sstore\n        /* \"@openzeppelin/contracts-upgradeable/utils/ContextUpgradeable.sol\":807:871  function __Context_init_unchained() internal initializer {... */\n      pop\n      jump\t// out\n        /* \"@openzeppelin/contracts-upgradeable/access/OwnableUpgradeable.sol\":1120:1226  function __Ownable_init_unchained() internal initializer {... */\n    tag_601:\n        /* \"@openzeppelin/contracts-upgradeable/proxy/utils/Initializable.sol\":539:552  _initializing */\n      sload(0x00)\n      0x0100\n      swap1\n      div\n      0xff\n      and\n      dup1\n        /* \"@openzeppelin/contracts-upgradeable/proxy/utils/Initializable.sol\":539:569  _initializing || !_initialized */\n      tag_627\n      jumpi\n      pop\n        /* \"@openzeppelin/contracts-upgradeable/proxy/utils/Initializable.sol\":557:569  _initialized */\n      and(0xff, sload(0x00))\n        /* \"@openzeppelin/contracts-upgradeable/proxy/utils/Initializable.sol\":556:569  !_initialized */\n      iszero\n        /* \"@openzeppelin/contracts-upgradeable/proxy/utils/Initializable.sol\":539:569  _initializing || !_initialized */\n    tag_627:\n        /* \"@openzeppelin/contracts-upgradeable/proxy/utils/Initializable.sol\":531:620  require(_initializing || !_initialized, \"Initializable: contract is already initialized\") */\n      tag_628\n      jumpi\n      mload(0x40)\n      shl(0xe5, 0x461bcd)\n      dup2\n      mstore\n      0x04\n      add\n      tag_213\n      swap1\n      tag_463\n      jump\t// in\n    tag_628:\n        /* \"@openzeppelin/contracts-upgradeable/proxy/utils/Initializable.sol\":631:650  bool isTopLevelCall */\n      0x00\n        /* \"@openzeppelin/contracts-upgradeable/proxy/utils/Initializable.sol\":654:667  _initializing */\n      sload\n      0x0100\n      swap1\n      div\n      0xff\n      and\n        /* \"@openzeppelin/contracts-upgradeable/proxy/utils/Initializable.sol\":653:667  !_initializing */\n      iszero\n        /* \"@openzeppelin/contracts-upgradeable/proxy/utils/Initializable.sol\":677:775  if (isTopLevelCall) {... */\n      dup1\n      iszero\n      tag_630\n      jumpi\n        /* \"@openzeppelin/contracts-upgradeable/proxy/utils/Initializable.sol\":711:724  _initializing */\n      0x00\n        /* \"@openzeppelin/contracts-upgradeable/proxy/utils/Initializable.sol\":711:731  _initializing = true */\n      dup1\n      sload\n      not(0xff)\n      not(0xff00)\n      swap1\n      swap2\n      and\n      0x0100\n      or\n        /* \"@openzeppelin/contracts-upgradeable/proxy/utils/Initializable.sol\":745:764  _initialized = true */\n      and\n        /* \"@openzeppelin/contracts-upgradeable/proxy/utils/Initializable.sol\":727:731  true */\n      0x01\n        /* \"@openzeppelin/contracts-upgradeable/proxy/utils/Initializable.sol\":745:764  _initialized = true */\n      or\n      swap1\n      sstore\n        /* \"@openzeppelin/contracts-upgradeable/proxy/utils/Initializable.sol\":677:775  if (isTopLevelCall) {... */\n    tag_630:\n        /* \"@openzeppelin/contracts-upgradeable/access/OwnableUpgradeable.sol\":1187:1219  _transferOwnership(_msgSender()) */\n      tag_600\n        /* \"@openzeppelin/contracts-upgradeable/access/OwnableUpgradeable.sol\":1206:1218  _msgSender() */\n      tag_633\n        /* \"@openzeppelin/contracts-upgradeable/access/OwnableUpgradeable.sol\":1206:1216  _msgSender */\n      tag_235\n        /* \"@openzeppelin/contracts-upgradeable/access/OwnableUpgradeable.sol\":1206:1218  _msgSender() */\n      jump\t// in\n    tag_633:\n        /* \"@openzeppelin/contracts-upgradeable/access/OwnableUpgradeable.sol\":1187:1205  _transferOwnership */\n      tag_319\n        /* \"@openzeppelin/contracts-upgradeable/access/OwnableUpgradeable.sol\":1187:1219  _transferOwnership(_msgSender()) */\n      jump\t// in\n        /* \"@openzeppelin/contracts-upgradeable/utils/AddressUpgradeable.sol\":3525:3748  function functionCall(... */\n    tag_613:\n        /* \"@openzeppelin/contracts-upgradeable/utils/AddressUpgradeable.sol\":3658:3670  bytes memory */\n      0x60\n        /* \"@openzeppelin/contracts-upgradeable/utils/AddressUpgradeable.sol\":3689:3741  functionCallWithValue(target, data, 0, errorMessage) */\n      tag_636\n        /* \"@openzeppelin/contracts-upgradeable/utils/AddressUpgradeable.sol\":3711:3717  target */\n      dup5\n        /* \"@openzeppelin/contracts-upgradeable/utils/AddressUpgradeable.sol\":3719:3723  data */\n      dup5\n        /* \"@openzeppelin/contracts-upgradeable/utils/AddressUpgradeable.sol\":3725:3726  0 */\n      0x00\n        /* \"@openzeppelin/contracts-upgradeable/utils/AddressUpgradeable.sol\":3728:3740  errorMessage */\n      dup6\n        /* \"@openzeppelin/contracts-upgradeable/utils/AddressUpgradeable.sol\":3689:3710  functionCallWithValue */\n      tag_637\n        /* \"@openzeppelin/contracts-upgradeable/utils/AddressUpgradeable.sol\":3689:3741  functionCallWithValue(target, data, 0, errorMessage) */\n      jump\t// in\n    tag_636:\n        /* \"@openzeppelin/contracts-upgradeable/utils/AddressUpgradeable.sol\":3682:3741  return functionCallWithValue(target, data, 0, errorMessage) */\n      swap5\n        /* \"@openzeppelin/contracts-upgradeable/utils/AddressUpgradeable.sol\":3525:3748  function functionCall(... */\n      swap4\n      pop\n      pop\n      pop\n      pop\n      jump\t// out\n        /* \"@openzeppelin/contracts-upgradeable/utils/AddressUpgradeable.sol\":4612:5111  function functionCallWithValue(... */\n    tag_637:\n        /* \"@openzeppelin/contracts-upgradeable/utils/AddressUpgradeable.sol\":4777:4789  bytes memory */\n      0x60\n        /* \"@openzeppelin/contracts-upgradeable/utils/AddressUpgradeable.sol\":4834:4839  value */\n      dup3\n        /* \"@openzeppelin/contracts-upgradeable/utils/AddressUpgradeable.sol\":4809:4830  address(this).balance */\n      selfbalance\n        /* \"@openzeppelin/contracts-upgradeable/utils/AddressUpgradeable.sol\":4809:4839  address(this).balance >= value */\n      lt\n      iszero\n        /* \"@openzeppelin/contracts-upgradeable/utils/AddressUpgradeable.sol\":4801:4882  require(address(this).balance >= value, \"Address: insufficient balance for call\") */\n      tag_639\n      jumpi\n      mload(0x40)\n      shl(0xe5, 0x461bcd)\n      dup2\n      mstore\n      0x04\n      add\n      tag_213\n      swap1\n      tag_641\n      jump\t// in\n    tag_639:\n        /* \"@openzeppelin/contracts-upgradeable/utils/AddressUpgradeable.sol\":4900:4918  isContract(target) */\n      tag_642\n        /* \"@openzeppelin/contracts-upgradeable/utils/AddressUpgradeable.sol\":4911:4917  target */\n      dup6\n        /* \"@openzeppelin/contracts-upgradeable/utils/AddressUpgradeable.sol\":4900:4910  isContract */\n      tag_643\n        /* \"@openzeppelin/contracts-upgradeable/utils/AddressUpgradeable.sol\":4900:4918  isContract(target) */\n      jump\t// in\n    tag_642:\n        /* \"@openzeppelin/contracts-upgradeable/utils/AddressUpgradeable.sol\":4892:4952  require(isContract(target), \"Address: call to non-contract\") */\n      tag_644\n      jumpi\n      mload(0x40)\n      shl(0xe5, 0x461bcd)\n      dup2\n      mstore\n      0x04\n      add\n      tag_213\n      swap1\n      tag_646\n      jump\t// in\n    tag_644:\n        /* \"@openzeppelin/contracts-upgradeable/utils/AddressUpgradeable.sol\":4964:4976  bool success */\n      0x00\n        /* \"@openzeppelin/contracts-upgradeable/utils/AddressUpgradeable.sol\":4978:5001  bytes memory returndata */\n      dup1\n        /* \"@openzeppelin/contracts-upgradeable/utils/AddressUpgradeable.sol\":5005:5011  target */\n      dup7\n      sub(shl(0xa0, 0x01), 0x01)\n        /* \"@openzeppelin/contracts-upgradeable/utils/AddressUpgradeable.sol\":5005:5016  target.call */\n      and\n        /* \"@openzeppelin/contracts-upgradeable/utils/AddressUpgradeable.sol\":5024:5029  value */\n      dup6\n        /* \"@openzeppelin/contracts-upgradeable/utils/AddressUpgradeable.sol\":5031:5035  data */\n      dup8\n        /* \"@openzeppelin/contracts-upgradeable/utils/AddressUpgradeable.sol\":5005:5036  target.call{value: value}(data) */\n      mload(0x40)\n      tag_647\n      swap2\n      swap1\n      tag_648\n      jump\t// in\n    tag_647:\n      0x00\n      mload(0x40)\n      dup1\n      dup4\n      sub\n      dup2\n      dup6\n      dup8\n      gas\n      call\n      swap3\n      pop\n      pop\n      pop\n      returndatasize\n      dup1\n      0x00\n      dup2\n      eq\n      tag_651\n      jumpi\n      mload(0x40)\n      swap2\n      pop\n      and(add(returndatasize, 0x3f), not(0x1f))\n      dup3\n      add\n      0x40\n      mstore\n      returndatasize\n      dup3\n      mstore\n      returndatasize\n      0x00\n      0x20\n      dup5\n      add\n      returndatacopy\n      jump(tag_650)\n    tag_651:\n      0x60\n      swap2\n      pop\n    tag_650:\n      pop\n        /* \"@openzeppelin/contracts-upgradeable/utils/AddressUpgradeable.sol\":4963:5036  (bool success, bytes memory returndata) = target.call{value: value}(data) */\n      swap2\n      pop\n      swap2\n      pop\n        /* \"@openzeppelin/contracts-upgradeable/utils/AddressUpgradeable.sol\":5053:5104  verifyCallResult(success, returndata, errorMessage) */\n      tag_652\n        /* \"@openzeppelin/contracts-upgradeable/utils/AddressUpgradeable.sol\":5070:5077  success */\n      dup3\n        /* \"@openzeppelin/contracts-upgradeable/utils/AddressUpgradeable.sol\":5079:5089  returndata */\n      dup3\n        /* \"@openzeppelin/contracts-upgradeable/utils/AddressUpgradeable.sol\":5091:5103  errorMessage */\n      dup7\n        /* \"@openzeppelin/contracts-upgradeable/utils/AddressUpgradeable.sol\":5053:5069  verifyCallResult */\n      tag_653\n        /* \"@openzeppelin/contracts-upgradeable/utils/AddressUpgradeable.sol\":5053:5104  verifyCallResult(success, returndata, errorMessage) */\n      jump\t// in\n    tag_652:\n        /* \"@openzeppelin/contracts-upgradeable/utils/AddressUpgradeable.sol\":5046:5104  return verifyCallResult(success, returndata, errorMessage) */\n      swap8\n        /* \"@openzeppelin/contracts-upgradeable/utils/AddressUpgradeable.sol\":4612:5111  function functionCallWithValue(... */\n      swap7\n      pop\n      pop\n      pop\n      pop\n      pop\n      pop\n      pop\n      jump\t// out\n        /* \"@openzeppelin/contracts-upgradeable/utils/AddressUpgradeable.sol\":782:1159  function isContract(address account) internal view returns (bool) {... */\n    tag_643:\n        /* \"@openzeppelin/contracts-upgradeable/utils/AddressUpgradeable.sol\":1098:1118  extcodesize(account) */\n      extcodesize\n        /* \"@openzeppelin/contracts-upgradeable/utils/AddressUpgradeable.sol\":1144:1152  size > 0 */\n      iszero\n      iszero\n      swap1\n        /* \"@openzeppelin/contracts-upgradeable/utils/AddressUpgradeable.sol\":782:1159  function isContract(address account) internal view returns (bool) {... */\n      jump\t// out\n        /* \"@openzeppelin/contracts-upgradeable/utils/AddressUpgradeable.sol\":6275:6967  function verifyCallResult(... */\n    tag_653:\n        /* \"@openzeppelin/contracts-upgradeable/utils/AddressUpgradeable.sol\":6421:6433  bytes memory */\n      0x60\n        /* \"@openzeppelin/contracts-upgradeable/utils/AddressUpgradeable.sol\":6449:6456  success */\n      dup4\n        /* \"@openzeppelin/contracts-upgradeable/utils/AddressUpgradeable.sol\":6445:6961  if (success) {... */\n      iszero\n      tag_656\n      jumpi\n      pop\n        /* \"@openzeppelin/contracts-upgradeable/utils/AddressUpgradeable.sol\":6479:6489  returndata */\n      dup2\n        /* \"@openzeppelin/contracts-upgradeable/utils/AddressUpgradeable.sol\":6472:6489  return returndata */\n      jump(tag_241)\n        /* \"@openzeppelin/contracts-upgradeable/utils/AddressUpgradeable.sol\":6445:6961  if (success) {... */\n    tag_656:\n        /* \"@openzeppelin/contracts-upgradeable/utils/AddressUpgradeable.sol\":6590:6607  returndata.length */\n      dup3\n      mload\n        /* \"@openzeppelin/contracts-upgradeable/utils/AddressUpgradeable.sol\":6590:6611  returndata.length > 0 */\n      iszero\n        /* \"@openzeppelin/contracts-upgradeable/utils/AddressUpgradeable.sol\":6586:6951  if (returndata.length > 0) {... */\n      tag_658\n      jumpi\n        /* \"@openzeppelin/contracts-upgradeable/utils/AddressUpgradeable.sol\":6784:6794  returndata */\n      dup3\n        /* \"@openzeppelin/contracts-upgradeable/utils/AddressUpgradeable.sol\":6778:6795  mload(returndata) */\n      mload\n        /* \"@openzeppelin/contracts-upgradeable/utils/AddressUpgradeable.sol\":6844:6859  returndata_size */\n      dup1\n        /* \"@openzeppelin/contracts-upgradeable/utils/AddressUpgradeable.sol\":6831:6841  returndata */\n      dup5\n        /* \"@openzeppelin/contracts-upgradeable/utils/AddressUpgradeable.sol\":6827:6829  32 */\n      0x20\n        /* \"@openzeppelin/contracts-upgradeable/utils/AddressUpgradeable.sol\":6823:6842  add(32, returndata) */\n      add\n        /* \"@openzeppelin/contracts-upgradeable/utils/AddressUpgradeable.sol\":6816:6860  revert(add(32, returndata), returndata_size) */\n      revert\n        /* \"@openzeppelin/contracts-upgradeable/utils/AddressUpgradeable.sol\":6733:6878  {... */\n    tag_658:\n        /* \"@openzeppelin/contracts-upgradeable/utils/AddressUpgradeable.sol\":6923:6935  errorMessage */\n      dup2\n        /* \"@openzeppelin/contracts-upgradeable/utils/AddressUpgradeable.sol\":6916:6936  revert(errorMessage) */\n      mload(0x40)\n      shl(0xe5, 0x461bcd)\n      dup2\n      mstore\n      0x04\n      add\n      tag_213\n      swap2\n      swap1\n      tag_661\n      jump\t// in\n    tag_293:\n      mload(0x40)\n      dup1\n      0x0160\n      add\n      0x40\n      mstore\n      dup1\n      and(sub(shl(0xa0, 0x01), 0x01), 0x00)\n      dup2\n      mstore\n      0x20\n      add\n      0x00\n      dup2\n      mstore\n      0x20\n      add\n      0x60\n      dup2\n      mstore\n      0x20\n      add\n      0x00\n      dup2\n      mstore\n      0x20\n      add\n      0x00\n      dup2\n      mstore\n      0x20\n      add\n      0x00\n      dup2\n      mstore\n      0x20\n      add\n      0x00\n      dup2\n      mstore\n      0x20\n      add\n      0x00\n      dup2\n      mstore\n      0x20\n      add\n      0x00\n      dup2\n      mstore\n      0x20\n      add\n      0x00\n      dup2\n      mstore\n      0x20\n      add\n      0x00\n      dup2\n      mstore\n      pop\n      swap1\n      jump\t// out\n    tag_444:\n      dup3\n      dup1\n      sload\n      tag_662\n      swap1\n      tag_296\n      jump\t// in\n    tag_662:\n      swap1\n      0x00\n      mstore\n      keccak256(0x00, 0x20)\n      swap1\n      0x1f\n      add\n      0x20\n      swap1\n      div\n      dup2\n      add\n      swap3\n      dup3\n      tag_664\n      jumpi\n      0x00\n      dup6\n      sstore\n      jump(tag_667)\n    tag_664:\n      dup3\n      0x1f\n      lt\n      tag_665\n      jumpi\n      dup1\n      mload\n      not(0xff)\n      and\n      dup4\n      dup1\n      add\n      or\n      dup6\n      sstore\n      jump(tag_667)\n    tag_665:\n      dup3\n      dup1\n      add\n      0x01\n      add\n      dup6\n      sstore\n      dup3\n      iszero\n      tag_667\n      jumpi\n      swap2\n      dup3\n      add\n    tag_666:\n      dup3\n      dup2\n      gt\n      iszero\n      tag_667\n      jumpi\n      dup3\n      mload\n      dup3\n      sstore\n      swap2\n      0x20\n      add\n      swap2\n      swap1\n      0x01\n      add\n      swap1\n      jump(tag_666)\n    tag_667:\n      pop\n      tag_668\n      swap3\n      swap2\n      pop\n      tag_669\n      jump\t// in\n    tag_668:\n      pop\n      swap1\n      jump\t// out\n    tag_669:\n    tag_670:\n      dup1\n      dup3\n      gt\n      iszero\n      tag_668\n      jumpi\n      0x00\n      dup2\n      sstore\n      0x01\n      add\n      jump(tag_670)\n        /* \"#utility.yul\":14:152   */\n    tag_673:\n        /* \"#utility.yul\":84:104   */\n      dup1\n      calldataload\n        /* \"#utility.yul\":113:146   */\n      tag_294\n        /* \"#utility.yul\":84:104   */\n      dup2\n        /* \"#utility.yul\":113:146   */\n      tag_676\n      jump\t// in\n        /* \"#utility.yul\":157:826   */\n    tag_677:\n      0x00\n        /* \"#utility.yul\":268:271   */\n      dup3\n        /* \"#utility.yul\":261:265   */\n      0x1f\n        /* \"#utility.yul\":253:259   */\n      dup4\n        /* \"#utility.yul\":249:266   */\n      add\n        /* \"#utility.yul\":245:272   */\n      slt\n        /* \"#utility.yul\":235:237   */\n      tag_679\n      jumpi\n        /* \"#utility.yul\":290:295   */\n      dup1\n        /* \"#utility.yul\":283:288   */\n      dup2\n        /* \"#utility.yul\":276:296   */\n      revert\n        /* \"#utility.yul\":235:237   */\n    tag_679:\n        /* \"#utility.yul\":330:336   */\n      dup2\n        /* \"#utility.yul\":317:337   */\n      calldataload\n        /* \"#utility.yul\":356:360   */\n      0x20\n        /* \"#utility.yul\":380:443   */\n      tag_680\n        /* \"#utility.yul\":395:442   */\n      tag_681\n        /* \"#utility.yul\":439:441   */\n      dup4\n        /* \"#utility.yul\":395:442   */\n      tag_682\n      jump\t// in\n    tag_681:\n        /* \"#utility.yul\":380:443   */\n      tag_683\n      jump\t// in\n    tag_680:\n        /* \"#utility.yul\":477:492   */\n      dup3\n      dup2\n      mstore\n        /* \"#utility.yul\":508:520   */\n      dup2\n      dup2\n      add\n      swap1\n        /* \"#utility.yul\":540:555   */\n      dup6\n      dup4\n      add\n        /* \"#utility.yul\":573:578   */\n      dup6\n        /* \"#utility.yul\":587:797   */\n    tag_684:\n        /* \"#utility.yul\":601:603   */\n      dup6\n        /* \"#utility.yul\":598:599   */\n      dup2\n        /* \"#utility.yul\":595:604   */\n      lt\n        /* \"#utility.yul\":587:797   */\n      iszero\n      tag_686\n      jumpi\n        /* \"#utility.yul\":658:722   */\n      tag_687\n        /* \"#utility.yul\":718:721   */\n      dup10\n        /* \"#utility.yul\":713:715   */\n      dup7\n        /* \"#utility.yul\":706:709   */\n      dup5\n        /* \"#utility.yul\":693:710   */\n      calldataload\n        /* \"#utility.yul\":685:691   */\n      dup12\n        /* \"#utility.yul\":681:711   */\n      add\n        /* \"#utility.yul\":677:716   */\n      add\n        /* \"#utility.yul\":658:722   */\n      tag_688\n      jump\t// in\n    tag_687:\n        /* \"#utility.yul\":646:723   */\n      dup5\n      mstore\n        /* \"#utility.yul\":743:755   */\n      swap3\n      dup5\n      add\n      swap3\n        /* \"#utility.yul\":775:787   */\n      swap1\n      dup5\n      add\n      swap1\n        /* \"#utility.yul\":619:620   */\n      0x01\n        /* \"#utility.yul\":612:621   */\n      add\n        /* \"#utility.yul\":587:797   */\n      jump(tag_684)\n    tag_686:\n      pop\n        /* \"#utility.yul\":815:820   */\n      swap1\n      swap8\n        /* \"#utility.yul\":225:826   */\n      swap7\n      pop\n      pop\n      pop\n      pop\n      pop\n      pop\n      pop\n      jump\t// out\n        /* \"#utility.yul\":831:1501   */\n    tag_689:\n      0x00\n        /* \"#utility.yul\":943:946   */\n      dup3\n        /* \"#utility.yul\":936:940   */\n      0x1f\n        /* \"#utility.yul\":928:934   */\n      dup4\n        /* \"#utility.yul\":924:941   */\n      add\n        /* \"#utility.yul\":920:947   */\n      slt\n        /* \"#utility.yul\":910:912   */\n      tag_691\n      jumpi\n        /* \"#utility.yul\":965:970   */\n      dup1\n        /* \"#utility.yul\":958:963   */\n      dup2\n        /* \"#utility.yul\":951:971   */\n      revert\n        /* \"#utility.yul\":910:912   */\n    tag_691:\n        /* \"#utility.yul\":1005:1011   */\n      dup2\n        /* \"#utility.yul\":992:1012   */\n      calldataload\n        /* \"#utility.yul\":1031:1035   */\n      0x20\n        /* \"#utility.yul\":1055:1118   */\n      tag_692\n        /* \"#utility.yul\":1070:1117   */\n      tag_681\n        /* \"#utility.yul\":1114:1116   */\n      dup4\n        /* \"#utility.yul\":1070:1117   */\n      tag_682\n      jump\t// in\n        /* \"#utility.yul\":1055:1118   */\n    tag_692:\n        /* \"#utility.yul\":1152:1167   */\n      dup3\n      dup2\n      mstore\n        /* \"#utility.yul\":1183:1195   */\n      dup2\n      dup2\n      add\n      swap1\n        /* \"#utility.yul\":1215:1230   */\n      dup6\n      dup4\n      add\n        /* \"#utility.yul\":1248:1253   */\n      dup6\n        /* \"#utility.yul\":1262:1472   */\n    tag_694:\n        /* \"#utility.yul\":1276:1278   */\n      dup6\n        /* \"#utility.yul\":1273:1274   */\n      dup2\n        /* \"#utility.yul\":1270:1279   */\n      lt\n        /* \"#utility.yul\":1262:1472   */\n      iszero\n      tag_686\n      jumpi\n        /* \"#utility.yul\":1333:1397   */\n      tag_697\n        /* \"#utility.yul\":1393:1396   */\n      dup10\n        /* \"#utility.yul\":1388:1390   */\n      dup7\n        /* \"#utility.yul\":1381:1384   */\n      dup5\n        /* \"#utility.yul\":1368:1385   */\n      calldataload\n        /* \"#utility.yul\":1360:1366   */\n      dup12\n        /* \"#utility.yul\":1356:1386   */\n      add\n        /* \"#utility.yul\":1352:1391   */\n      add\n        /* \"#utility.yul\":1333:1397   */\n      tag_688\n      jump\t// in\n    tag_697:\n        /* \"#utility.yul\":1321:1398   */\n      dup5\n      mstore\n        /* \"#utility.yul\":1418:1430   */\n      swap3\n      dup5\n      add\n      swap3\n        /* \"#utility.yul\":1450:1462   */\n      swap1\n      dup5\n      add\n      swap1\n        /* \"#utility.yul\":1294:1295   */\n      0x01\n        /* \"#utility.yul\":1287:1296   */\n      add\n        /* \"#utility.yul\":1262:1472   */\n      jump(tag_694)\n        /* \"#utility.yul\":1506:2209   */\n    tag_698:\n      0x00\n        /* \"#utility.yul\":1619:1622   */\n      dup3\n        /* \"#utility.yul\":1612:1616   */\n      0x1f\n        /* \"#utility.yul\":1604:1610   */\n      dup4\n        /* \"#utility.yul\":1600:1617   */\n      add\n        /* \"#utility.yul\":1596:1623   */\n      slt\n        /* \"#utility.yul\":1586:1588   */\n      tag_700\n      jumpi\n        /* \"#utility.yul\":1641:1646   */\n      dup1\n        /* \"#utility.yul\":1634:1639   */\n      dup2\n        /* \"#utility.yul\":1627:1647   */\n      revert\n        /* \"#utility.yul\":1586:1588   */\n    tag_700:\n        /* \"#utility.yul\":1681:1687   */\n      dup2\n        /* \"#utility.yul\":1668:1688   */\n      calldataload\n        /* \"#utility.yul\":1707:1711   */\n      0x20\n        /* \"#utility.yul\":1731:1794   */\n      tag_701\n        /* \"#utility.yul\":1746:1793   */\n      tag_681\n        /* \"#utility.yul\":1790:1792   */\n      dup4\n        /* \"#utility.yul\":1746:1793   */\n      tag_682\n      jump\t// in\n        /* \"#utility.yul\":1731:1794   */\n    tag_701:\n        /* \"#utility.yul\":1828:1843   */\n      dup3\n      dup2\n      mstore\n        /* \"#utility.yul\":1859:1871   */\n      dup2\n      dup2\n      add\n      swap1\n        /* \"#utility.yul\":1891:1906   */\n      dup6\n      dup4\n      add\n        /* \"#utility.yul\":1937:1948   */\n      dup4\n      dup6\n      mul\n        /* \"#utility.yul\":1925:1949   */\n      dup8\n      add\n        /* \"#utility.yul\":1921:1954   */\n      dup5\n      add\n        /* \"#utility.yul\":1918:1960   */\n      dup9\n      lt\n        /* \"#utility.yul\":1915:1917   */\n      iszero\n      tag_703\n      jumpi\n        /* \"#utility.yul\":1977:1982   */\n      dup6\n        /* \"#utility.yul\":1970:1975   */\n      dup7\n        /* \"#utility.yul\":1963:1983   */\n      revert\n        /* \"#utility.yul\":1915:1917   */\n    tag_703:\n        /* \"#utility.yul\":2003:2008   */\n      dup6\n        /* \"#utility.yul\":2017:2180   */\n    tag_704:\n        /* \"#utility.yul\":2031:2033   */\n      dup6\n        /* \"#utility.yul\":2028:2029   */\n      dup2\n        /* \"#utility.yul\":2025:2034   */\n      lt\n        /* \"#utility.yul\":2017:2180   */\n      iszero\n      tag_686\n      jumpi\n        /* \"#utility.yul\":2088:2105   */\n      dup2\n      calldataload\n        /* \"#utility.yul\":2076:2106   */\n      dup5\n      mstore\n        /* \"#utility.yul\":2126:2138   */\n      swap3\n      dup5\n      add\n      swap3\n        /* \"#utility.yul\":2158:2170   */\n      swap1\n      dup5\n      add\n      swap1\n        /* \"#utility.yul\":2049:2050   */\n      0x01\n        /* \"#utility.yul\":2042:2051   */\n      add\n        /* \"#utility.yul\":2017:2180   */\n      jump(tag_704)\n        /* \"#utility.yul\":2214:2346   */\n    tag_707:\n        /* \"#utility.yul\":2281:2301   */\n      dup1\n      calldataload\n        /* \"#utility.yul\":2310:2340   */\n      tag_294\n        /* \"#utility.yul\":2281:2301   */\n      dup2\n        /* \"#utility.yul\":2310:2340   */\n      tag_710\n      jump\t// in\n        /* \"#utility.yul\":2351:2902   */\n    tag_688:\n      0x00\n        /* \"#utility.yul\":2448:2451   */\n      dup3\n        /* \"#utility.yul\":2441:2445   */\n      0x1f\n        /* \"#utility.yul\":2433:2439   */\n      dup4\n        /* \"#utility.yul\":2429:2446   */\n      add\n        /* \"#utility.yul\":2425:2452   */\n      slt\n        /* \"#utility.yul\":2415:2417   */\n      tag_712\n      jumpi\n        /* \"#utility.yul\":2470:2475   */\n      dup1\n        /* \"#utility.yul\":2463:2468   */\n      dup2\n        /* \"#utility.yul\":2456:2476   */\n      revert\n        /* \"#utility.yul\":2415:2417   */\n    tag_712:\n        /* \"#utility.yul\":2510:2516   */\n      dup2\n        /* \"#utility.yul\":2497:2517   */\n      calldataload\n        /* \"#utility.yul\":2536:2554   */\n      0xffffffffffffffff\n        /* \"#utility.yul\":2532:2534   */\n      dup2\n        /* \"#utility.yul\":2529:2555   */\n      gt\n        /* \"#utility.yul\":2526:2528   */\n      iszero\n      tag_714\n      jumpi\n        /* \"#utility.yul\":2558:2576   */\n      tag_714\n      tag_715\n      jump\t// in\n    tag_714:\n        /* \"#utility.yul\":2602:2656   */\n      tag_716\n        /* \"#utility.yul\":2644:2646   */\n      0x1f\n        /* \"#utility.yul\":2625:2638   */\n      dup3\n      add\n      not(0x1f)\n        /* \"#utility.yul\":2621:2648   */\n      and\n        /* \"#utility.yul\":2650:2654   */\n      0x20\n        /* \"#utility.yul\":2617:2655   */\n      add\n        /* \"#utility.yul\":2602:2656   */\n      tag_683\n      jump\t// in\n    tag_716:\n        /* \"#utility.yul\":2681:2683   */\n      dup2\n        /* \"#utility.yul\":2672:2679   */\n      dup2\n        /* \"#utility.yul\":2665:2684   */\n      mstore\n        /* \"#utility.yul\":2727:2730   */\n      dup5\n        /* \"#utility.yul\":2720:2724   */\n      0x20\n        /* \"#utility.yul\":2715:2717   */\n      dup4\n        /* \"#utility.yul\":2707:2713   */\n      dup7\n        /* \"#utility.yul\":2703:2718   */\n      add\n        /* \"#utility.yul\":2699:2725   */\n      add\n        /* \"#utility.yul\":2696:2731   */\n      gt\n        /* \"#utility.yul\":2693:2695   */\n      iszero\n      tag_717\n      jumpi\n        /* \"#utility.yul\":2748:2753   */\n      dup3\n        /* \"#utility.yul\":2741:2746   */\n      dup4\n        /* \"#utility.yul\":2734:2754   */\n      revert\n        /* \"#utility.yul\":2693:2695   */\n    tag_717:\n        /* \"#utility.yul\":2817:2819   */\n      dup2\n        /* \"#utility.yul\":2810:2814   */\n      0x20\n        /* \"#utility.yul\":2802:2808   */\n      dup6\n        /* \"#utility.yul\":2798:2815   */\n      add\n        /* \"#utility.yul\":2791:2795   */\n      0x20\n        /* \"#utility.yul\":2782:2789   */\n      dup4\n        /* \"#utility.yul\":2778:2796   */\n      add\n        /* \"#utility.yul\":2765:2820   */\n      calldatacopy\n        /* \"#utility.yul\":2840:2856   */\n      swap1\n      dup2\n      add\n        /* \"#utility.yul\":2858:2862   */\n      0x20\n        /* \"#utility.yul\":2836:2863   */\n      add\n        /* \"#utility.yul\":2829:2871   */\n      swap2\n      swap1\n      swap2\n      mstore\n        /* \"#utility.yul\":2844:2851   */\n      swap3\n        /* \"#utility.yul\":2405:2902   */\n      swap2\n      pop\n      pop\n      jump\t// out\n        /* \"#utility.yul\":2907:3166   */\n    tag_89:\n      0x00\n        /* \"#utility.yul\":3019:3021   */\n      0x20\n        /* \"#utility.yul\":3007:3016   */\n      dup3\n        /* \"#utility.yul\":2998:3005   */\n      dup5\n        /* \"#utility.yul\":2994:3017   */\n      sub\n        /* \"#utility.yul\":2990:3022   */\n      slt\n        /* \"#utility.yul\":2987:2989   */\n      iszero\n      tag_719\n      jumpi\n        /* \"#utility.yul\":3040:3046   */\n      dup1\n        /* \"#utility.yul\":3032:3038   */\n      dup2\n        /* \"#utility.yul\":3025:3047   */\n      revert\n        /* \"#utility.yul\":2987:2989   */\n    tag_719:\n        /* \"#utility.yul\":3084:3093   */\n      dup2\n        /* \"#utility.yul\":3071:3094   */\n      calldataload\n        /* \"#utility.yul\":3103:3136   */\n      tag_241\n        /* \"#utility.yul\":3130:3135   */\n      dup2\n        /* \"#utility.yul\":3103:3136   */\n      tag_676\n      jump\t// in\n        /* \"#utility.yul\":3171:3567   */\n    tag_59:\n      0x00\n      dup1\n        /* \"#utility.yul\":3297:3299   */\n      0x40\n        /* \"#utility.yul\":3285:3294   */\n      dup4\n        /* \"#utility.yul\":3276:3283   */\n      dup6\n        /* \"#utility.yul\":3272:3295   */\n      sub\n        /* \"#utility.yul\":3268:3300   */\n      slt\n        /* \"#utility.yul\":3265:3267   */\n      iszero\n      tag_722\n      jumpi\n        /* \"#utility.yul\":3318:3324   */\n      dup1\n        /* \"#utility.yul\":3310:3316   */\n      dup2\n        /* \"#utility.yul\":3303:3325   */\n      revert\n        /* \"#utility.yul\":3265:3267   */\n    tag_722:\n        /* \"#utility.yul\":3362:3371   */\n      dup3\n        /* \"#utility.yul\":3349:3372   */\n      calldataload\n        /* \"#utility.yul\":3381:3414   */\n      tag_723\n        /* \"#utility.yul\":3408:3413   */\n      dup2\n        /* \"#utility.yul\":3381:3414   */\n      tag_676\n      jump\t// in\n    tag_723:\n        /* \"#utility.yul\":3433:3438   */\n      swap2\n      pop\n        /* \"#utility.yul\":3490:3492   */\n      0x20\n        /* \"#utility.yul\":3475:3493   */\n      dup4\n      add\n        /* \"#utility.yul\":3462:3494   */\n      calldataload\n        /* \"#utility.yul\":3503:3535   */\n      tag_724\n        /* \"#utility.yul\":3462:3494   */\n      dup2\n        /* \"#utility.yul\":3503:3535   */\n      tag_710\n      jump\t// in\n    tag_724:\n        /* \"#utility.yul\":3554:3561   */\n      dup1\n        /* \"#utility.yul\":3544:3561   */\n      swap2\n      pop\n      pop\n        /* \"#utility.yul\":3255:3567   */\n      swap3\n      pop\n      swap3\n      swap1\n      pop\n      jump\t// out\n        /* \"#utility.yul\":3572:4323   */\n    tag_184:\n      0x00\n      dup1\n      0x00\n      dup1\n        /* \"#utility.yul\":3797:3800   */\n      0x80\n        /* \"#utility.yul\":3785:3794   */\n      dup6\n        /* \"#utility.yul\":3776:3783   */\n      dup8\n        /* \"#utility.yul\":3772:3795   */\n      sub\n        /* \"#utility.yul\":3768:3801   */\n      slt\n        /* \"#utility.yul\":3765:3767   */\n      iszero\n      tag_726\n      jumpi\n        /* \"#utility.yul\":3819:3825   */\n      dup2\n        /* \"#utility.yul\":3811:3817   */\n      dup3\n        /* \"#utility.yul\":3804:3826   */\n      revert\n        /* \"#utility.yul\":3765:3767   */\n    tag_726:\n        /* \"#utility.yul\":3863:3872   */\n      dup5\n        /* \"#utility.yul\":3850:3873   */\n      calldataload\n        /* \"#utility.yul\":3882:3915   */\n      tag_727\n        /* \"#utility.yul\":3909:3914   */\n      dup2\n        /* \"#utility.yul\":3882:3915   */\n      tag_676\n      jump\t// in\n    tag_727:\n        /* \"#utility.yul\":3934:3939   */\n      swap4\n      pop\n        /* \"#utility.yul\":3991:3993   */\n      0x20\n        /* \"#utility.yul\":3976:3994   */\n      dup6\n      add\n        /* \"#utility.yul\":3963:3995   */\n      calldataload\n        /* \"#utility.yul\":4004:4039   */\n      tag_728\n        /* \"#utility.yul\":3963:3995   */\n      dup2\n        /* \"#utility.yul\":4004:4039   */\n      tag_676\n      jump\t// in\n    tag_728:\n        /* \"#utility.yul\":4058:4065   */\n      swap3\n      pop\n        /* \"#utility.yul\":4117:4119   */\n      0x40\n        /* \"#utility.yul\":4102:4120   */\n      dup6\n      add\n        /* \"#utility.yul\":4089:4121   */\n      calldataload\n        /* \"#utility.yul\":4130:4165   */\n      tag_729\n        /* \"#utility.yul\":4089:4121   */\n      dup2\n        /* \"#utility.yul\":4130:4165   */\n      tag_676\n      jump\t// in\n    tag_729:\n        /* \"#utility.yul\":4184:4191   */\n      swap2\n      pop\n        /* \"#utility.yul\":4243:4245   */\n      0x60\n        /* \"#utility.yul\":4228:4246   */\n      dup6\n      add\n        /* \"#utility.yul\":4215:4247   */\n      calldataload\n        /* \"#utility.yul\":4256:4291   */\n      tag_730\n        /* \"#utility.yul\":4215:4247   */\n      dup2\n        /* \"#utility.yul\":4256:4291   */\n      tag_676\n      jump\t// in\n    tag_730:\n        /* \"#utility.yul\":3755:4323   */\n      swap4\n      swap7\n      swap3\n      swap6\n      pop\n      swap1\n      swap4\n      pop\n      pop\n      jump\t// out\n        /* \"#utility.yul\":4328:4655   */\n    tag_115:\n      0x00\n      dup1\n        /* \"#utility.yul\":4457:4459   */\n      0x40\n        /* \"#utility.yul\":4445:4454   */\n      dup4\n        /* \"#utility.yul\":4436:4443   */\n      dup6\n        /* \"#utility.yul\":4432:4455   */\n      sub\n        /* \"#utility.yul\":4428:4460   */\n      slt\n        /* \"#utility.yul\":4425:4427   */\n      iszero\n      tag_732\n      jumpi\n        /* \"#utility.yul\":4478:4484   */\n      dup2\n        /* \"#utility.yul\":4470:4476   */\n      dup3\n        /* \"#utility.yul\":4463:4485   */\n      revert\n        /* \"#utility.yul\":4425:4427   */\n    tag_732:\n        /* \"#utility.yul\":4522:4531   */\n      dup3\n        /* \"#utility.yul\":4509:4532   */\n      calldataload\n        /* \"#utility.yul\":4541:4574   */\n      tag_733\n        /* \"#utility.yul\":4568:4573   */\n      dup2\n        /* \"#utility.yul\":4541:4574   */\n      tag_676\n      jump\t// in\n    tag_733:\n        /* \"#utility.yul\":4593:4598   */\n      swap5\n        /* \"#utility.yul\":4645:4647   */\n      0x20\n        /* \"#utility.yul\":4630:4648   */\n      swap4\n      swap1\n      swap4\n      add\n        /* \"#utility.yul\":4617:4649   */\n      calldataload\n      swap4\n      pop\n      pop\n      pop\n        /* \"#utility.yul\":4415:4655   */\n      jump\t// out\n        /* \"#utility.yul\":4660:5055   */\n    tag_154:\n      0x00\n      dup1\n      0x00\n        /* \"#utility.yul\":4806:4808   */\n      0x60\n        /* \"#utility.yul\":4794:4803   */\n      dup5\n        /* \"#utility.yul\":4785:4792   */\n      dup7\n        /* \"#utility.yul\":4781:4804   */\n      sub\n        /* \"#utility.yul\":4777:4809   */\n      slt\n        /* \"#utility.yul\":4774:4776   */\n      iszero\n      tag_735\n      jumpi\n        /* \"#utility.yul\":4827:4833   */\n      dup3\n        /* \"#utility.yul\":4819:4825   */\n      dup4\n        /* \"#utility.yul\":4812:4834   */\n      revert\n        /* \"#utility.yul\":4774:4776   */\n    tag_735:\n        /* \"#utility.yul\":4871:4880   */\n      dup4\n        /* \"#utility.yul\":4858:4881   */\n      calldataload\n        /* \"#utility.yul\":4890:4923   */\n      tag_736\n        /* \"#utility.yul\":4917:4922   */\n      dup2\n        /* \"#utility.yul\":4890:4923   */\n      tag_676\n      jump\t// in\n    tag_736:\n        /* \"#utility.yul\":4942:4947   */\n      swap6\n        /* \"#utility.yul\":4994:4996   */\n      0x20\n        /* \"#utility.yul\":4979:4997   */\n      dup6\n      add\n        /* \"#utility.yul\":4966:4998   */\n      calldataload\n      swap6\n      pop\n        /* \"#utility.yul\":5045:5047   */\n      0x40\n        /* \"#utility.yul\":5030:5048   */\n      swap1\n      swap5\n      add\n        /* \"#utility.yul\":5017:5049   */\n      calldataload\n      swap4\n        /* \"#utility.yul\":4764:5055   */\n      swap3\n      pop\n      pop\n      pop\n      jump\t// out\n        /* \"#utility.yul\":5060:5524   */\n    tag_47:\n      0x00\n      dup1\n      0x00\n      dup1\n        /* \"#utility.yul\":5223:5226   */\n      0x80\n        /* \"#utility.yul\":5211:5220   */\n      dup6\n        /* \"#utility.yul\":5202:5209   */\n      dup8\n        /* \"#utility.yul\":5198:5221   */\n      sub\n        /* \"#utility.yul\":5194:5227   */\n      slt\n        /* \"#utility.yul\":5191:5193   */\n      iszero\n      tag_738\n      jumpi\n        /* \"#utility.yul\":5245:5251   */\n      dup2\n        /* \"#utility.yul\":5237:5243   */\n      dup3\n        /* \"#utility.yul\":5230:5252   */\n      revert\n        /* \"#utility.yul\":5191:5193   */\n    tag_738:\n        /* \"#utility.yul\":5289:5298   */\n      dup5\n        /* \"#utility.yul\":5276:5299   */\n      calldataload\n        /* \"#utility.yul\":5308:5341   */\n      tag_739\n        /* \"#utility.yul\":5335:5340   */\n      dup2\n        /* \"#utility.yul\":5308:5341   */\n      tag_676\n      jump\t// in\n    tag_739:\n        /* \"#utility.yul\":5360:5365   */\n      swap7\n        /* \"#utility.yul\":5412:5414   */\n      0x20\n        /* \"#utility.yul\":5397:5415   */\n      dup7\n      add\n        /* \"#utility.yul\":5384:5416   */\n      calldataload\n      swap7\n      pop\n        /* \"#utility.yul\":5463:5465   */\n      0x40\n        /* \"#utility.yul\":5448:5466   */\n      dup7\n      add\n        /* \"#utility.yul\":5435:5467   */\n      calldataload\n      swap6\n        /* \"#utility.yul\":5514:5516   */\n      0x60\n        /* \"#utility.yul\":5499:5517   */\n      add\n        /* \"#utility.yul\":5486:5518   */\n      calldataload\n      swap5\n      pop\n        /* \"#utility.yul\":5181:5524   */\n      swap3\n      pop\n      pop\n      pop\n      jump\t// out\n        /* \"#utility.yul\":5529:5786   */\n    tag_345:\n      0x00\n        /* \"#utility.yul\":5649:5651   */\n      0x20\n        /* \"#utility.yul\":5637:5646   */\n      dup3\n        /* \"#utility.yul\":5628:5635   */\n      dup5\n        /* \"#utility.yul\":5624:5647   */\n      sub\n        /* \"#utility.yul\":5620:5652   */\n      slt\n        /* \"#utility.yul\":5617:5619   */\n      iszero\n      tag_741\n      jumpi\n        /* \"#utility.yul\":5670:5676   */\n      dup1\n        /* \"#utility.yul\":5662:5668   */\n      dup2\n        /* \"#utility.yul\":5655:5677   */\n      revert\n        /* \"#utility.yul\":5617:5619   */\n    tag_741:\n        /* \"#utility.yul\":5707:5716   */\n      dup2\n        /* \"#utility.yul\":5701:5717   */\n      mload\n        /* \"#utility.yul\":5726:5756   */\n      tag_241\n        /* \"#utility.yul\":5750:5755   */\n      dup2\n        /* \"#utility.yul\":5726:5756   */\n      tag_710\n      jump\t// in\n        /* \"#utility.yul\":5791:7243   */\n    tag_94:\n      0x00\n      dup1\n      0x00\n      dup1\n      0x00\n      dup1\n        /* \"#utility.yul\":6129:6132   */\n      0xc0\n        /* \"#utility.yul\":6117:6126   */\n      dup8\n        /* \"#utility.yul\":6108:6115   */\n      dup10\n        /* \"#utility.yul\":6104:6127   */\n      sub\n        /* \"#utility.yul\":6100:6133   */\n      slt\n        /* \"#utility.yul\":6097:6099   */\n      iszero\n      tag_744\n      jumpi\n        /* \"#utility.yul\":6151:6157   */\n      dup4\n        /* \"#utility.yul\":6143:6149   */\n      dup5\n        /* \"#utility.yul\":6136:6158   */\n      revert\n        /* \"#utility.yul\":6097:6099   */\n    tag_744:\n        /* \"#utility.yul\":6179:6207   */\n      tag_745\n        /* \"#utility.yul\":6197:6206   */\n      dup8\n        /* \"#utility.yul\":6179:6207   */\n      tag_707\n      jump\t// in\n    tag_745:\n        /* \"#utility.yul\":6169:6207   */\n      swap6\n      pop\n        /* \"#utility.yul\":6258:6260   */\n      0x20\n        /* \"#utility.yul\":6247:6256   */\n      dup8\n        /* \"#utility.yul\":6243:6261   */\n      add\n        /* \"#utility.yul\":6230:6262   */\n      calldataload\n        /* \"#utility.yul\":6281:6299   */\n      0xffffffffffffffff\n        /* \"#utility.yul\":6322:6324   */\n      dup1\n        /* \"#utility.yul\":6314:6320   */\n      dup3\n        /* \"#utility.yul\":6311:6325   */\n      gt\n        /* \"#utility.yul\":6308:6310   */\n      iszero\n      tag_746\n      jumpi\n        /* \"#utility.yul\":6343:6349   */\n      dup6\n        /* \"#utility.yul\":6335:6341   */\n      dup7\n        /* \"#utility.yul\":6328:6350   */\n      revert\n        /* \"#utility.yul\":6308:6310   */\n    tag_746:\n        /* \"#utility.yul\":6371:6438   */\n      tag_747\n        /* \"#utility.yul\":6430:6437   */\n      dup11\n        /* \"#utility.yul\":6421:6427   */\n      dup4\n        /* \"#utility.yul\":6410:6419   */\n      dup12\n        /* \"#utility.yul\":6406:6428   */\n      add\n        /* \"#utility.yul\":6371:6438   */\n      tag_698\n      jump\t// in\n    tag_747:\n        /* \"#utility.yul\":6361:6438   */\n      swap7\n      pop\n        /* \"#utility.yul\":6491:6493   */\n      0x40\n        /* \"#utility.yul\":6480:6489   */\n      dup10\n        /* \"#utility.yul\":6476:6494   */\n      add\n        /* \"#utility.yul\":6463:6495   */\n      calldataload\n        /* \"#utility.yul\":6447:6495   */\n      swap2\n      pop\n        /* \"#utility.yul\":6520:6522   */\n      dup1\n        /* \"#utility.yul\":6510:6518   */\n      dup3\n        /* \"#utility.yul\":6507:6523   */\n      gt\n        /* \"#utility.yul\":6504:6506   */\n      iszero\n      tag_748\n      jumpi\n        /* \"#utility.yul\":6541:6547   */\n      dup6\n        /* \"#utility.yul\":6533:6539   */\n      dup7\n        /* \"#utility.yul\":6526:6548   */\n      revert\n        /* \"#utility.yul\":6504:6506   */\n    tag_748:\n        /* \"#utility.yul\":6569:6638   */\n      tag_749\n        /* \"#utility.yul\":6630:6637   */\n      dup11\n        /* \"#utility.yul\":6619:6627   */\n      dup4\n        /* \"#utility.yul\":6608:6617   */\n      dup12\n        /* \"#utility.yul\":6604:6628   */\n      add\n        /* \"#utility.yul\":6569:6638   */\n      tag_698\n      jump\t// in\n    tag_749:\n        /* \"#utility.yul\":6559:6638   */\n      swap6\n      pop\n        /* \"#utility.yul\":6691:6693   */\n      0x60\n        /* \"#utility.yul\":6680:6689   */\n      dup10\n        /* \"#utility.yul\":6676:6694   */\n      add\n        /* \"#utility.yul\":6663:6695   */\n      calldataload\n        /* \"#utility.yul\":6647:6695   */\n      swap2\n      pop\n        /* \"#utility.yul\":6720:6722   */\n      dup1\n        /* \"#utility.yul\":6710:6718   */\n      dup3\n        /* \"#utility.yul\":6707:6723   */\n      gt\n        /* \"#utility.yul\":6704:6706   */\n      iszero\n      tag_750\n      jumpi\n        /* \"#utility.yul\":6741:6747   */\n      dup4\n        /* \"#utility.yul\":6733:6739   */\n      dup5\n        /* \"#utility.yul\":6726:6748   */\n      revert\n        /* \"#utility.yul\":6704:6706   */\n    tag_750:\n        /* \"#utility.yul\":6769:6837   */\n      tag_751\n        /* \"#utility.yul\":6829:6836   */\n      dup11\n        /* \"#utility.yul\":6818:6826   */\n      dup4\n        /* \"#utility.yul\":6807:6816   */\n      dup12\n        /* \"#utility.yul\":6803:6827   */\n      add\n        /* \"#utility.yul\":6769:6837   */\n      tag_689\n      jump\t// in\n    tag_751:\n        /* \"#utility.yul\":6759:6837   */\n      swap5\n      pop\n        /* \"#utility.yul\":6890:6893   */\n      0x80\n        /* \"#utility.yul\":6879:6888   */\n      dup10\n        /* \"#utility.yul\":6875:6894   */\n      add\n        /* \"#utility.yul\":6862:6895   */\n      calldataload\n        /* \"#utility.yul\":6846:6895   */\n      swap2\n      pop\n        /* \"#utility.yul\":6920:6922   */\n      dup1\n        /* \"#utility.yul\":6910:6918   */\n      dup3\n        /* \"#utility.yul\":6907:6923   */\n      gt\n        /* \"#utility.yul\":6904:6906   */\n      iszero\n      tag_752\n      jumpi\n        /* \"#utility.yul\":6941:6947   */\n      dup4\n        /* \"#utility.yul\":6933:6939   */\n      dup5\n        /* \"#utility.yul\":6926:6948   */\n      revert\n        /* \"#utility.yul\":6904:6906   */\n    tag_752:\n        /* \"#utility.yul\":6969:7038   */\n      tag_753\n        /* \"#utility.yul\":7030:7037   */\n      dup11\n        /* \"#utility.yul\":7019:7027   */\n      dup4\n        /* \"#utility.yul\":7008:7017   */\n      dup12\n        /* \"#utility.yul\":7004:7028   */\n      add\n        /* \"#utility.yul\":6969:7038   */\n      tag_698\n      jump\t// in\n    tag_753:\n        /* \"#utility.yul\":6959:7038   */\n      swap4\n      pop\n        /* \"#utility.yul\":7091:7094   */\n      0xa0\n        /* \"#utility.yul\":7080:7089   */\n      dup10\n        /* \"#utility.yul\":7076:7095   */\n      add\n        /* \"#utility.yul\":7063:7096   */\n      calldataload\n        /* \"#utility.yul\":7047:7096   */\n      swap2\n      pop\n        /* \"#utility.yul\":7121:7123   */\n      dup1\n        /* \"#utility.yul\":7111:7119   */\n      dup3\n        /* \"#utility.yul\":7108:7124   */\n      gt\n        /* \"#utility.yul\":7105:7107   */\n      iszero\n      tag_754\n      jumpi\n        /* \"#utility.yul\":7142:7148   */\n      dup3\n        /* \"#utility.yul\":7134:7140   */\n      dup4\n        /* \"#utility.yul\":7127:7149   */\n      revert\n        /* \"#utility.yul\":7105:7107   */\n    tag_754:\n      pop\n        /* \"#utility.yul\":7170:7237   */\n      tag_755\n        /* \"#utility.yul\":7229:7236   */\n      dup10\n        /* \"#utility.yul\":7218:7226   */\n      dup3\n        /* \"#utility.yul\":7207:7216   */\n      dup11\n        /* \"#utility.yul\":7203:7227   */\n      add\n        /* \"#utility.yul\":7170:7237   */\n      tag_677\n      jump\t// in\n    tag_755:\n        /* \"#utility.yul\":7160:7237   */\n      swap2\n      pop\n      pop\n        /* \"#utility.yul\":6087:7243   */\n      swap3\n      swap6\n      pop\n      swap3\n      swap6\n      pop\n      swap3\n      swap6\n      jump\t// out\n        /* \"#utility.yul\":7248:8160   */\n    tag_108:\n      0x00\n      dup1\n      0x00\n      dup1\n      0x00\n      dup1\n        /* \"#utility.yul\":7461:7464   */\n      0xc0\n        /* \"#utility.yul\":7449:7458   */\n      dup8\n        /* \"#utility.yul\":7440:7447   */\n      dup10\n        /* \"#utility.yul\":7436:7459   */\n      sub\n        /* \"#utility.yul\":7432:7465   */\n      slt\n        /* \"#utility.yul\":7429:7431   */\n      iszero\n      tag_757\n      jumpi\n        /* \"#utility.yul\":7483:7489   */\n      dup4\n        /* \"#utility.yul\":7475:7481   */\n      dup5\n        /* \"#utility.yul\":7468:7490   */\n      revert\n        /* \"#utility.yul\":7429:7431   */\n    tag_757:\n        /* \"#utility.yul\":7527:7536   */\n      dup7\n        /* \"#utility.yul\":7514:7537   */\n      calldataload\n        /* \"#utility.yul\":7546:7576   */\n      tag_758\n        /* \"#utility.yul\":7570:7575   */\n      dup2\n        /* \"#utility.yul\":7546:7576   */\n      tag_710\n      jump\t// in\n    tag_758:\n        /* \"#utility.yul\":7595:7600   */\n      swap6\n      pop\n        /* \"#utility.yul\":7647:7649   */\n      0x20\n        /* \"#utility.yul\":7632:7650   */\n      dup8\n      add\n        /* \"#utility.yul\":7619:7651   */\n      calldataload\n      swap5\n      pop\n        /* \"#utility.yul\":7698:7700   */\n      0x40\n        /* \"#utility.yul\":7683:7701   */\n      dup8\n      add\n        /* \"#utility.yul\":7670:7702   */\n      calldataload\n      swap4\n      pop\n        /* \"#utility.yul\":7753:7755   */\n      0x60\n        /* \"#utility.yul\":7738:7756   */\n      dup8\n      add\n        /* \"#utility.yul\":7725:7757   */\n      calldataload\n        /* \"#utility.yul\":7776:7794   */\n      0xffffffffffffffff\n        /* \"#utility.yul\":7806:7820   */\n      dup1\n      dup3\n      gt\n        /* \"#utility.yul\":7803:7805   */\n      iszero\n      tag_759\n      jumpi\n        /* \"#utility.yul\":7838:7844   */\n      dup4\n        /* \"#utility.yul\":7830:7836   */\n      dup5\n        /* \"#utility.yul\":7823:7845   */\n      revert\n        /* \"#utility.yul\":7803:7805   */\n    tag_759:\n        /* \"#utility.yul\":7866:7917   */\n      tag_760\n        /* \"#utility.yul\":7909:7916   */\n      dup11\n        /* \"#utility.yul\":7900:7906   */\n      dup4\n        /* \"#utility.yul\":7889:7898   */\n      dup12\n        /* \"#utility.yul\":7885:7907   */\n      add\n        /* \"#utility.yul\":7866:7917   */\n      tag_688\n      jump\t// in\n    tag_760:\n        /* \"#utility.yul\":7856:7917   */\n      swap5\n      pop\n        /* \"#utility.yul\":7964:7967   */\n      0x80\n        /* \"#utility.yul\":7953:7962   */\n      dup10\n        /* \"#utility.yul\":7949:7968   */\n      add\n        /* \"#utility.yul\":7936:7969   */\n      calldataload\n        /* \"#utility.yul\":7926:7969   */\n      swap4\n      pop\n        /* \"#utility.yul\":8022:8025   */\n      0xa0\n        /* \"#utility.yul\":8011:8020   */\n      dup10\n        /* \"#utility.yul\":8007:8026   */\n      add\n        /* \"#utility.yul\":7994:8027   */\n      calldataload\n        /* \"#utility.yul\":7978:8027   */\n      swap2\n      pop\n        /* \"#utility.yul\":8052:8054   */\n      dup1\n        /* \"#utility.yul\":8042:8050   */\n      dup3\n        /* \"#utility.yul\":8039:8055   */\n      gt\n        /* \"#utility.yul\":8036:8038   */\n      iszero\n      tag_761\n      jumpi\n        /* \"#utility.yul\":8073:8079   */\n      dup3\n        /* \"#utility.yul\":8065:8071   */\n      dup4\n        /* \"#utility.yul\":8058:8080   */\n      revert\n        /* \"#utility.yul\":8036:8038   */\n    tag_761:\n      pop\n        /* \"#utility.yul\":8101:8154   */\n      tag_755\n        /* \"#utility.yul\":8146:8153   */\n      dup10\n        /* \"#utility.yul\":8135:8143   */\n      dup3\n        /* \"#utility.yul\":8124:8133   */\n      dup11\n        /* \"#utility.yul\":8120:8144   */\n      add\n        /* \"#utility.yul\":8101:8154   */\n      tag_688\n      jump\t// in\n        /* \"#utility.yul\":8165:9146   */\n    tag_138:\n      0x00\n      dup1\n      0x00\n      dup1\n      0x00\n      dup1\n      0x00\n        /* \"#utility.yul\":8395:8398   */\n      0xe0\n        /* \"#utility.yul\":8383:8392   */\n      dup9\n        /* \"#utility.yul\":8374:8381   */\n      dup11\n        /* \"#utility.yul\":8370:8393   */\n      sub\n        /* \"#utility.yul\":8366:8399   */\n      slt\n        /* \"#utility.yul\":8363:8365   */\n      iszero\n      tag_764\n      jumpi\n        /* \"#utility.yul\":8417:8423   */\n      dup5\n        /* \"#utility.yul\":8409:8415   */\n      dup6\n        /* \"#utility.yul\":8402:8424   */\n      revert\n        /* \"#utility.yul\":8363:8365   */\n    tag_764:\n        /* \"#utility.yul\":8461:8470   */\n      dup8\n        /* \"#utility.yul\":8448:8471   */\n      calldataload\n        /* \"#utility.yul\":8480:8510   */\n      tag_765\n        /* \"#utility.yul\":8504:8509   */\n      dup2\n        /* \"#utility.yul\":8480:8510   */\n      tag_710\n      jump\t// in\n    tag_765:\n        /* \"#utility.yul\":8529:8534   */\n      swap7\n      pop\n        /* \"#utility.yul\":8581:8583   */\n      0x20\n        /* \"#utility.yul\":8566:8584   */\n      dup9\n      add\n        /* \"#utility.yul\":8553:8585   */\n      calldataload\n      swap6\n      pop\n        /* \"#utility.yul\":8632:8634   */\n      0x40\n        /* \"#utility.yul\":8617:8635   */\n      dup9\n      add\n        /* \"#utility.yul\":8604:8636   */\n      calldataload\n      swap5\n      pop\n        /* \"#utility.yul\":8687:8689   */\n      0x60\n        /* \"#utility.yul\":8672:8690   */\n      dup9\n      add\n        /* \"#utility.yul\":8659:8691   */\n      calldataload\n        /* \"#utility.yul\":8710:8728   */\n      0xffffffffffffffff\n        /* \"#utility.yul\":8740:8754   */\n      dup1\n      dup3\n      gt\n        /* \"#utility.yul\":8737:8739   */\n      iszero\n      tag_766\n      jumpi\n        /* \"#utility.yul\":8772:8778   */\n      dup3\n        /* \"#utility.yul\":8764:8770   */\n      dup4\n        /* \"#utility.yul\":8757:8779   */\n      revert\n        /* \"#utility.yul\":8737:8739   */\n    tag_766:\n        /* \"#utility.yul\":8800:8851   */\n      tag_767\n        /* \"#utility.yul\":8843:8850   */\n      dup12\n        /* \"#utility.yul\":8834:8840   */\n      dup4\n        /* \"#utility.yul\":8823:8832   */\n      dup13\n        /* \"#utility.yul\":8819:8841   */\n      add\n        /* \"#utility.yul\":8800:8851   */\n      tag_688\n      jump\t// in\n    tag_767:\n        /* \"#utility.yul\":8790:8851   */\n      swap6\n      pop\n        /* \"#utility.yul\":8898:8901   */\n      0x80\n        /* \"#utility.yul\":8887:8896   */\n      dup11\n        /* \"#utility.yul\":8883:8902   */\n      add\n        /* \"#utility.yul\":8870:8903   */\n      calldataload\n        /* \"#utility.yul\":8860:8903   */\n      swap5\n      pop\n        /* \"#utility.yul\":8956:8959   */\n      0xa0\n        /* \"#utility.yul\":8945:8954   */\n      dup11\n        /* \"#utility.yul\":8941:8960   */\n      add\n        /* \"#utility.yul\":8928:8961   */\n      calldataload\n        /* \"#utility.yul\":8912:8961   */\n      swap2\n      pop\n        /* \"#utility.yul\":8986:8988   */\n      dup1\n        /* \"#utility.yul\":8976:8984   */\n      dup3\n        /* \"#utility.yul\":8973:8989   */\n      gt\n        /* \"#utility.yul\":8970:8972   */\n      iszero\n      tag_768\n      jumpi\n        /* \"#utility.yul\":9007:9013   */\n      dup3\n        /* \"#utility.yul\":8999:9005   */\n      dup4\n        /* \"#utility.yul\":8992:9014   */\n      revert\n        /* \"#utility.yul\":8970:8972   */\n    tag_768:\n      pop\n        /* \"#utility.yul\":9035:9088   */\n      tag_769\n        /* \"#utility.yul\":9080:9087   */\n      dup11\n        /* \"#utility.yul\":9069:9077   */\n      dup3\n        /* \"#utility.yul\":9058:9067   */\n      dup12\n        /* \"#utility.yul\":9054:9078   */\n      add\n        /* \"#utility.yul\":9035:9088   */\n      tag_688\n      jump\t// in\n    tag_769:\n        /* \"#utility.yul\":9025:9088   */\n      swap3\n      pop\n      pop\n        /* \"#utility.yul\":9135:9138   */\n      0xc0\n        /* \"#utility.yul\":9124:9133   */\n      dup9\n        /* \"#utility.yul\":9120:9139   */\n      add\n        /* \"#utility.yul\":9107:9140   */\n      calldataload\n        /* \"#utility.yul\":9097:9140   */\n      swap1\n      pop\n        /* \"#utility.yul\":8353:9146   */\n      swap3\n      swap6\n      swap9\n      swap2\n      swap5\n      swap8\n      pop\n      swap3\n      swap6\n      pop\n      jump\t// out\n        /* \"#utility.yul\":9151:10270   */\n    tag_158:\n      0x00\n      dup1\n      0x00\n      dup1\n      0x00\n      dup1\n      0x00\n      dup1\n      0x00\n        /* \"#utility.yul\":9415:9418   */\n      0x0120\n        /* \"#utility.yul\":9403:9412   */\n      dup11\n        /* \"#utility.yul\":9394:9401   */\n      dup13\n        /* \"#utility.yul\":9390:9413   */\n      sub\n        /* \"#utility.yul\":9386:9419   */\n      slt\n        /* \"#utility.yul\":9383:9385   */\n      iszero\n      tag_771\n      jumpi\n        /* \"#utility.yul\":9437:9443   */\n      dup3\n        /* \"#utility.yul\":9429:9435   */\n      dup4\n        /* \"#utility.yul\":9422:9444   */\n      revert\n        /* \"#utility.yul\":9383:9385   */\n    tag_771:\n        /* \"#utility.yul\":9481:9490   */\n      dup10\n        /* \"#utility.yul\":9468:9491   */\n      calldataload\n        /* \"#utility.yul\":9500:9530   */\n      tag_772\n        /* \"#utility.yul\":9524:9529   */\n      dup2\n        /* \"#utility.yul\":9500:9530   */\n      tag_710\n      jump\t// in\n    tag_772:\n        /* \"#utility.yul\":9549:9554   */\n      swap9\n      pop\n        /* \"#utility.yul\":9601:9603   */\n      0x20\n        /* \"#utility.yul\":9586:9604   */\n      dup11\n      add\n        /* \"#utility.yul\":9573:9605   */\n      calldataload\n      swap8\n      pop\n        /* \"#utility.yul\":9652:9654   */\n      0x40\n        /* \"#utility.yul\":9637:9655   */\n      dup11\n      add\n        /* \"#utility.yul\":9624:9656   */\n      calldataload\n      swap7\n      pop\n        /* \"#utility.yul\":9703:9705   */\n      0x60\n        /* \"#utility.yul\":9688:9706   */\n      dup11\n      add\n        /* \"#utility.yul\":9675:9707   */\n      calldataload\n      swap6\n      pop\n        /* \"#utility.yul\":9754:9757   */\n      0x80\n        /* \"#utility.yul\":9739:9758   */\n      dup11\n      add\n        /* \"#utility.yul\":9726:9759   */\n      calldataload\n      swap5\n      pop\n        /* \"#utility.yul\":9810:9813   */\n      0xa0\n        /* \"#utility.yul\":9795:9814   */\n      dup11\n      add\n        /* \"#utility.yul\":9782:9815   */\n      calldataload\n        /* \"#utility.yul\":9834:9852   */\n      0xffffffffffffffff\n        /* \"#utility.yul\":9864:9878   */\n      dup1\n      dup3\n      gt\n        /* \"#utility.yul\":9861:9863   */\n      iszero\n      tag_773\n      jumpi\n        /* \"#utility.yul\":9896:9902   */\n      dup5\n        /* \"#utility.yul\":9888:9894   */\n      dup6\n        /* \"#utility.yul\":9881:9903   */\n      revert\n        /* \"#utility.yul\":9861:9863   */\n    tag_773:\n        /* \"#utility.yul\":9924:9975   */\n      tag_774\n        /* \"#utility.yul\":9967:9974   */\n      dup14\n        /* \"#utility.yul\":9958:9964   */\n      dup4\n        /* \"#utility.yul\":9947:9956   */\n      dup15\n        /* \"#utility.yul\":9943:9965   */\n      add\n        /* \"#utility.yul\":9924:9975   */\n      tag_688\n      jump\t// in\n    tag_774:\n        /* \"#utility.yul\":9914:9975   */\n      swap6\n      pop\n        /* \"#utility.yul\":10022:10025   */\n      0xc0\n        /* \"#utility.yul\":10011:10020   */\n      dup13\n        /* \"#utility.yul\":10007:10026   */\n      add\n        /* \"#utility.yul\":9994:10027   */\n      calldataload\n        /* \"#utility.yul\":9984:10027   */\n      swap5\n      pop\n        /* \"#utility.yul\":10074:10077   */\n      0xe0\n        /* \"#utility.yul\":10063:10072   */\n      dup13\n        /* \"#utility.yul\":10059:10078   */\n      add\n        /* \"#utility.yul\":10046:10079   */\n      calldataload\n        /* \"#utility.yul\":10036:10079   */\n      swap4\n      pop\n        /* \"#utility.yul\":10132:10135   */\n      0x0100\n        /* \"#utility.yul\":10121:10130   */\n      dup13\n        /* \"#utility.yul\":10117:10136   */\n      add\n        /* \"#utility.yul\":10104:10137   */\n      calldataload\n        /* \"#utility.yul\":10088:10137   */\n      swap2\n      pop\n        /* \"#utility.yul\":10162:10164   */\n      dup1\n        /* \"#utility.yul\":10152:10160   */\n      dup3\n        /* \"#utility.yul\":10149:10165   */\n      gt\n        /* \"#utility.yul\":10146:10148   */\n      iszero\n      tag_775\n      jumpi\n        /* \"#utility.yul\":10183:10189   */\n      dup3\n        /* \"#utility.yul\":10175:10181   */\n      dup4\n        /* \"#utility.yul\":10168:10190   */\n      revert\n        /* \"#utility.yul\":10146:10148   */\n    tag_775:\n      pop\n        /* \"#utility.yul\":10211:10264   */\n      tag_776\n        /* \"#utility.yul\":10256:10263   */\n      dup13\n        /* \"#utility.yul\":10245:10253   */\n      dup3\n        /* \"#utility.yul\":10234:10243   */\n      dup14\n        /* \"#utility.yul\":10230:10254   */\n      add\n        /* \"#utility.yul\":10211:10264   */\n      tag_688\n      jump\t// in\n    tag_776:\n        /* \"#utility.yul\":10201:10264   */\n      swap2\n      pop\n      pop\n        /* \"#utility.yul\":9373:10270   */\n      swap3\n      swap6\n      swap9\n      pop\n      swap3\n      swap6\n      swap9\n      pop\n      swap3\n      swap6\n      swap9\n      jump\t// out\n        /* \"#utility.yul\":10275:10465   */\n    tag_53:\n      0x00\n        /* \"#utility.yul\":10387:10389   */\n      0x20\n        /* \"#utility.yul\":10375:10384   */\n      dup3\n        /* \"#utility.yul\":10366:10373   */\n      dup5\n        /* \"#utility.yul\":10362:10385   */\n      sub\n        /* \"#utility.yul\":10358:10390   */\n      slt\n        /* \"#utility.yul\":10355:10357   */\n      iszero\n      tag_778\n      jumpi\n        /* \"#utility.yul\":10408:10414   */\n      dup1\n        /* \"#utility.yul\":10400:10406   */\n      dup2\n        /* \"#utility.yul\":10393:10415   */\n      revert\n        /* \"#utility.yul\":10355:10357   */\n    tag_778:\n      pop\n        /* \"#utility.yul\":10436:10459   */\n      calldataload\n      swap2\n        /* \"#utility.yul\":10345:10465   */\n      swap1\n      pop\n      jump\t// out\n        /* \"#utility.yul\":10470:10664   */\n    tag_423:\n      0x00\n        /* \"#utility.yul\":10593:10595   */\n      0x20\n        /* \"#utility.yul\":10581:10590   */\n      dup3\n        /* \"#utility.yul\":10572:10579   */\n      dup5\n        /* \"#utility.yul\":10568:10591   */\n      sub\n        /* \"#utility.yul\":10564:10596   */\n      slt\n        /* \"#utility.yul\":10561:10563   */\n      iszero\n      tag_780\n      jumpi\n        /* \"#utility.yul\":10614:10620   */\n      dup1\n        /* \"#utility.yul\":10606:10612   */\n      dup2\n        /* \"#utility.yul\":10599:10621   */\n      revert\n        /* \"#utility.yul\":10561:10563   */\n    tag_780:\n      pop\n        /* \"#utility.yul\":10642:10658   */\n      mload\n      swap2\n        /* \"#utility.yul\":10551:10664   */\n      swap1\n      pop\n      jump\t// out\n        /* \"#utility.yul\":10669:11778   */\n    tag_188:\n      0x00\n      dup1\n      0x00\n      dup1\n      0x00\n      dup1\n      0x00\n      dup1\n      0x00\n      dup1\n      0x00\n      dup1\n        /* \"#utility.yul\":10980:10983   */\n      0x0180\n        /* \"#utility.yul\":10968:10977   */\n      dup14\n        /* \"#utility.yul\":10959:10966   */\n      dup16\n        /* \"#utility.yul\":10955:10978   */\n      sub\n        /* \"#utility.yul\":10951:10984   */\n      slt\n        /* \"#utility.yul\":10948:10950   */\n      iszero\n      tag_782\n      jumpi\n        /* \"#utility.yul\":11002:11008   */\n      dup6\n        /* \"#utility.yul\":10994:11000   */\n      dup7\n        /* \"#utility.yul\":10987:11009   */\n      revert\n        /* \"#utility.yul\":10948:10950   */\n    tag_782:\n        /* \"#utility.yul\":11043:11052   */\n      dup13\n        /* \"#utility.yul\":11030:11053   */\n      calldataload\n        /* \"#utility.yul\":11020:11053   */\n      swap12\n      pop\n        /* \"#utility.yul\":11072:11112   */\n      tag_783\n        /* \"#utility.yul\":11108:11110   */\n      0x20\n        /* \"#utility.yul\":11097:11106   */\n      dup15\n        /* \"#utility.yul\":11093:11111   */\n      add\n        /* \"#utility.yul\":11072:11112   */\n      tag_673\n      jump\t// in\n    tag_783:\n        /* \"#utility.yul\":11062:11112   */\n      swap11\n      pop\n        /* \"#utility.yul\":11159:11161   */\n      0x40\n        /* \"#utility.yul\":11148:11157   */\n      dup14\n        /* \"#utility.yul\":11144:11162   */\n      add\n        /* \"#utility.yul\":11131:11163   */\n      calldataload\n        /* \"#utility.yul\":11121:11163   */\n      swap10\n      pop\n        /* \"#utility.yul\":11212:11230   */\n      0xffffffffffffffff\n        /* \"#utility.yul\":11206:11208   */\n      0x60\n        /* \"#utility.yul\":11195:11204   */\n      dup15\n        /* \"#utility.yul\":11191:11209   */\n      add\n        /* \"#utility.yul\":11178:11210   */\n      calldataload\n        /* \"#utility.yul\":11175:11231   */\n      gt\n        /* \"#utility.yul\":11172:11174   */\n      iszero\n      tag_784\n      jumpi\n        /* \"#utility.yul\":11249:11255   */\n      dup6\n        /* \"#utility.yul\":11241:11247   */\n      dup7\n        /* \"#utility.yul\":11234:11256   */\n      revert\n        /* \"#utility.yul\":11172:11174   */\n    tag_784:\n        /* \"#utility.yul\":11277:11354   */\n      tag_785\n        /* \"#utility.yul\":11346:11353   */\n      dup15\n        /* \"#utility.yul\":11339:11341   */\n      0x60\n        /* \"#utility.yul\":11328:11337   */\n      dup16\n        /* \"#utility.yul\":11324:11342   */\n      add\n        /* \"#utility.yul\":11311:11343   */\n      calldataload\n        /* \"#utility.yul\":11300:11309   */\n      dup16\n        /* \"#utility.yul\":11296:11344   */\n      add\n        /* \"#utility.yul\":11277:11354   */\n      tag_688\n      jump\t// in\n    tag_785:\n        /* \"#utility.yul\":10938:11778   */\n      swap12\n      swap15\n      swap11\n      swap14\n      pop\n      swap9\n      swap12\n        /* \"#utility.yul\":11401:11404   */\n      0x80\n        /* \"#utility.yul\":11386:11405   */\n      dup2\n      add\n        /* \"#utility.yul\":11373:11406   */\n      calldataload\n      swap11\n        /* \"#utility.yul\":11453:11456   */\n      0xa0\n        /* \"#utility.yul\":11438:11457   */\n      dup3\n      add\n        /* \"#utility.yul\":11425:11458   */\n      calldataload\n      swap11\n      pop\n        /* \"#utility.yul\":11505:11508   */\n      0xc0\n        /* \"#utility.yul\":11490:11509   */\n      dup3\n      add\n        /* \"#utility.yul\":11477:11510   */\n      calldataload\n      swap10\n      pop\n        /* \"#utility.yul\":11557:11560   */\n      0xe0\n        /* \"#utility.yul\":11542:11561   */\n      dup3\n      add\n        /* \"#utility.yul\":11529:11562   */\n      calldataload\n      swap9\n      pop\n        /* \"#utility.yul\":11609:11612   */\n      0x0100\n        /* \"#utility.yul\":11594:11613   */\n      dup3\n      add\n        /* \"#utility.yul\":11581:11614   */\n      calldataload\n      swap8\n      pop\n        /* \"#utility.yul\":11661:11664   */\n      0x0120\n        /* \"#utility.yul\":11646:11665   */\n      dup3\n      add\n        /* \"#utility.yul\":11633:11666   */\n      calldataload\n      swap7\n      pop\n        /* \"#utility.yul\":11714:11717   */\n      0x0140\n        /* \"#utility.yul\":11699:11718   */\n      dup3\n      add\n        /* \"#utility.yul\":11686:11719   */\n      calldataload\n      swap6\n      pop\n        /* \"#utility.yul\":11767:11770   */\n      0x0160\n        /* \"#utility.yul\":11752:11771   */\n      swap1\n      swap2\n      add\n        /* \"#utility.yul\":11739:11772   */\n      calldataload\n      swap4\n      pop\n        /* \"#utility.yul\":10938:11778   */\n      swap2\n      pop\n      pop\n      jump\t// out\n        /* \"#utility.yul\":11783:12109   */\n    tag_73:\n      0x00\n      dup1\n      0x00\n        /* \"#utility.yul\":11929:11931   */\n      0x60\n        /* \"#utility.yul\":11917:11926   */\n      dup5\n        /* \"#utility.yul\":11908:11915   */\n      dup7\n        /* \"#utility.yul\":11904:11927   */\n      sub\n        /* \"#utility.yul\":11900:11932   */\n      slt\n        /* \"#utility.yul\":11897:11899   */\n      iszero\n      tag_787\n      jumpi\n        /* \"#utility.yul\":11950:11956   */\n      dup1\n        /* \"#utility.yul\":11942:11948   */\n      dup2\n        /* \"#utility.yul\":11935:11957   */\n      revert\n        /* \"#utility.yul\":11897:11899   */\n    tag_787:\n      pop\n      pop\n        /* \"#utility.yul\":11978:12001   */\n      dup2\n      calldataload\n      swap4\n        /* \"#utility.yul\":12048:12050   */\n      0x20\n        /* \"#utility.yul\":12033:12051   */\n      dup4\n      add\n        /* \"#utility.yul\":12020:12052   */\n      calldataload\n      swap4\n      pop\n        /* \"#utility.yul\":12099:12101   */\n      0x40\n        /* \"#utility.yul\":12084:12102   */\n      swap1\n      swap3\n      add\n        /* \"#utility.yul\":12071:12103   */\n      calldataload\n      swap2\n        /* \"#utility.yul\":11887:12109   */\n      swap1\n      pop\n      jump\t// out\n        /* \"#utility.yul\":12114:12220   */\n    tag_788:\n      sub(shl(0xa0, 0x01), 0x01)\n        /* \"#utility.yul\":12182:12213   */\n      and\n        /* \"#utility.yul\":12170:12214   */\n      swap1\n      mstore\n        /* \"#utility.yul\":12160:12220   */\n      jump\t// out\n        /* \"#utility.yul\":12225:12484   */\n    tag_790:\n      0x00\n        /* \"#utility.yul\":12306:12311   */\n      dup2\n        /* \"#utility.yul\":12300:12312   */\n      mload\n        /* \"#utility.yul\":12333:12339   */\n      dup1\n        /* \"#utility.yul\":12328:12331   */\n      dup5\n        /* \"#utility.yul\":12321:12340   */\n      mstore\n        /* \"#utility.yul\":12349:12412   */\n      tag_792\n        /* \"#utility.yul\":12405:12411   */\n      dup2\n        /* \"#utility.yul\":12398:12402   */\n      0x20\n        /* \"#utility.yul\":12393:12396   */\n      dup7\n        /* \"#utility.yul\":12389:12403   */\n      add\n        /* \"#utility.yul\":12382:12386   */\n      0x20\n        /* \"#utility.yul\":12375:12380   */\n      dup7\n        /* \"#utility.yul\":12371:12387   */\n      add\n        /* \"#utility.yul\":12349:12412   */\n      tag_793\n      jump\t// in\n    tag_792:\n        /* \"#utility.yul\":12466:12468   */\n      0x1f\n        /* \"#utility.yul\":12445:12460   */\n      add\n      not(0x1f)\n        /* \"#utility.yul\":12441:12470   */\n      and\n        /* \"#utility.yul\":12432:12471   */\n      swap3\n      swap1\n      swap3\n      add\n        /* \"#utility.yul\":12473:12477   */\n      0x20\n        /* \"#utility.yul\":12428:12478   */\n      add\n      swap3\n        /* \"#utility.yul\":12276:12484   */\n      swap2\n      pop\n      pop\n      jump\t// out\n        /* \"#utility.yul\":12489:12763   */\n    tag_648:\n      0x00\n        /* \"#utility.yul\":12656:12662   */\n      dup3\n        /* \"#utility.yul\":12650:12663   */\n      mload\n        /* \"#utility.yul\":12672:12725   */\n      tag_795\n        /* \"#utility.yul\":12718:12724   */\n      dup2\n        /* \"#utility.yul\":12713:12716   */\n      dup5\n        /* \"#utility.yul\":12706:12710   */\n      0x20\n        /* \"#utility.yul\":12698:12704   */\n      dup8\n        /* \"#utility.yul\":12694:12711   */\n      add\n        /* \"#utility.yul\":12672:12725   */\n      tag_793\n      jump\t// in\n    tag_795:\n        /* \"#utility.yul\":12741:12757   */\n      swap2\n      swap1\n      swap2\n      add\n      swap3\n        /* \"#utility.yul\":12626:12763   */\n      swap2\n      pop\n      pop\n      jump\t// out\n        /* \"#utility.yul\":12768:12971   */\n    tag_70:\n      sub(shl(0xa0, 0x01), 0x01)\n        /* \"#utility.yul\":12932:12964   */\n      swap2\n      swap1\n      swap2\n      and\n        /* \"#utility.yul\":12914:12965   */\n      dup2\n      mstore\n        /* \"#utility.yul\":12902:12904   */\n      0x20\n        /* \"#utility.yul\":12887:12905   */\n      add\n      swap1\n        /* \"#utility.yul\":12869:12971   */\n      jump\t// out\n        /* \"#utility.yul\":12976:13351   */\n    tag_587:\n      sub(shl(0xa0, 0x01), 0x01)\n        /* \"#utility.yul\":13234:13249   */\n      swap4\n      dup5\n      and\n        /* \"#utility.yul\":13216:13250   */\n      dup2\n      mstore\n        /* \"#utility.yul\":13286:13301   */\n      swap2\n      swap1\n      swap3\n      and\n        /* \"#utility.yul\":13281:13283   */\n      0x20\n        /* \"#utility.yul\":13266:13284   */\n      dup3\n      add\n        /* \"#utility.yul\":13259:13302   */\n      mstore\n        /* \"#utility.yul\":13333:13335   */\n      0x40\n        /* \"#utility.yul\":13318:13336   */\n      dup2\n      add\n        /* \"#utility.yul\":13311:13345   */\n      swap2\n      swap1\n      swap2\n      mstore\n        /* \"#utility.yul\":13166:13168   */\n      0x60\n        /* \"#utility.yul\":13151:13169   */\n      add\n      swap1\n        /* \"#utility.yul\":13133:13351   */\n      jump\t// out\n        /* \"#utility.yul\":13356:13630   */\n    tag_378:\n      sub(shl(0xa0, 0x01), 0x01)\n        /* \"#utility.yul\":13548:13580   */\n      swap3\n      swap1\n      swap3\n      and\n        /* \"#utility.yul\":13530:13581   */\n      dup3\n      mstore\n        /* \"#utility.yul\":13612:13614   */\n      0x20\n        /* \"#utility.yul\":13597:13615   */\n      dup3\n      add\n        /* \"#utility.yul\":13590:13624   */\n      mstore\n        /* \"#utility.yul\":13518:13520   */\n      0x40\n        /* \"#utility.yul\":13503:13521   */\n      add\n      swap1\n        /* \"#utility.yul\":13485:13630   */\n      jump\t// out\n        /* \"#utility.yul\":13635:14270   */\n    tag_50:\n        /* \"#utility.yul\":13806:13808   */\n      0x20\n        /* \"#utility.yul\":13858:13879   */\n      dup1\n      dup3\n      mstore\n        /* \"#utility.yul\":13928:13941   */\n      dup3\n      mload\n        /* \"#utility.yul\":13831:13849   */\n      dup3\n      dup3\n      add\n        /* \"#utility.yul\":13950:13972   */\n      dup2\n      swap1\n      mstore\n        /* \"#utility.yul\":13635:14270   */\n      0x00\n      swap2\n        /* \"#utility.yul\":13806:13808   */\n      swap1\n        /* \"#utility.yul\":14029:14044   */\n      dup5\n      dup3\n      add\n      swap1\n        /* \"#utility.yul\":14003:14005   */\n      0x40\n        /* \"#utility.yul\":13988:14006   */\n      dup6\n      add\n      swap1\n        /* \"#utility.yul\":13635:14270   */\n      dup5\n        /* \"#utility.yul\":14075:14244   */\n    tag_800:\n        /* \"#utility.yul\":14089:14095   */\n      dup2\n        /* \"#utility.yul\":14086:14087   */\n      dup2\n        /* \"#utility.yul\":14083:14096   */\n      lt\n        /* \"#utility.yul\":14075:14244   */\n      iszero\n      tag_802\n      jumpi\n        /* \"#utility.yul\":14150:14163   */\n      dup4\n      mload\n        /* \"#utility.yul\":14138:14164   */\n      dup4\n      mstore\n        /* \"#utility.yul\":14219:14234   */\n      swap3\n      dup5\n      add\n      swap3\n        /* \"#utility.yul\":14184:14196   */\n      swap2\n      dup5\n      add\n      swap2\n        /* \"#utility.yul\":14111:14112   */\n      0x01\n        /* \"#utility.yul\":14104:14113   */\n      add\n        /* \"#utility.yul\":14075:14244   */\n      jump(tag_800)\n    tag_802:\n      pop\n        /* \"#utility.yul\":14261:14264   */\n      swap1\n      swap7\n        /* \"#utility.yul\":13786:14270   */\n      swap6\n      pop\n      pop\n      pop\n      pop\n      pop\n      pop\n      jump\t// out\n        /* \"#utility.yul\":14275:14462   */\n    tag_62:\n        /* \"#utility.yul\":14440:14454   */\n      swap1\n      iszero\n        /* \"#utility.yul\":14433:14455   */\n      iszero\n        /* \"#utility.yul\":14415:14456   */\n      dup2\n      mstore\n        /* \"#utility.yul\":14403:14405   */\n      0x20\n        /* \"#utility.yul\":14388:14406   */\n      add\n      swap1\n        /* \"#utility.yul\":14370:14462   */\n      jump\t// out\n        /* \"#utility.yul\":14467:15076   */\n    tag_340:\n      0x00\n        /* \"#utility.yul\":14754:14760   */\n      dup7\n        /* \"#utility.yul\":14747:14761   */\n      iszero\n        /* \"#utility.yul\":14740:14762   */\n      iszero\n        /* \"#utility.yul\":14729:14738   */\n      dup3\n        /* \"#utility.yul\":14722:14763   */\n      mstore\n        /* \"#utility.yul\":14799:14805   */\n      dup6\n        /* \"#utility.yul\":14794:14796   */\n      0x20\n        /* \"#utility.yul\":14783:14792   */\n      dup4\n        /* \"#utility.yul\":14779:14797   */\n      add\n        /* \"#utility.yul\":14772:14806   */\n      mstore\n        /* \"#utility.yul\":14842:14848   */\n      dup5\n        /* \"#utility.yul\":14837:14839   */\n      0x40\n        /* \"#utility.yul\":14826:14835   */\n      dup4\n        /* \"#utility.yul\":14822:14840   */\n      add\n        /* \"#utility.yul\":14815:14849   */\n      mstore\n        /* \"#utility.yul\":14885:14888   */\n      0xa0\n        /* \"#utility.yul\":14880:14882   */\n      0x60\n        /* \"#utility.yul\":14869:14878   */\n      dup4\n        /* \"#utility.yul\":14865:14883   */\n      add\n        /* \"#utility.yul\":14858:14889   */\n      mstore\n        /* \"#utility.yul\":14912:14959   */\n      tag_805\n        /* \"#utility.yul\":14954:14957   */\n      0xa0\n        /* \"#utility.yul\":14943:14952   */\n      dup4\n        /* \"#utility.yul\":14939:14958   */\n      add\n        /* \"#utility.yul\":14931:14937   */\n      dup6\n        /* \"#utility.yul\":14912:14959   */\n      tag_790\n      jump\t// in\n    tag_805:\n        /* \"#utility.yul\":15008:15017   */\n      dup3\n        /* \"#utility.yul\":15000:15006   */\n      dup2\n        /* \"#utility.yul\":14996:15018   */\n      sub\n        /* \"#utility.yul\":14990:14993   */\n      0x80\n        /* \"#utility.yul\":14979:14988   */\n      dup5\n        /* \"#utility.yul\":14975:14994   */\n      add\n        /* \"#utility.yul\":14968:15019   */\n      mstore\n        /* \"#utility.yul\":15036:15070   */\n      tag_311\n        /* \"#utility.yul\":15063:15069   */\n      dup2\n        /* \"#utility.yul\":15055:15061   */\n      dup6\n        /* \"#utility.yul\":15036:15070   */\n      tag_790\n      jump\t// in\n        /* \"#utility.yul\":15767:15988   */\n    tag_661:\n      0x00\n        /* \"#utility.yul\":15916:15918   */\n      0x20\n        /* \"#utility.yul\":15905:15914   */\n      dup3\n        /* \"#utility.yul\":15898:15919   */\n      mstore\n        /* \"#utility.yul\":15936:15982   */\n      tag_241\n        /* \"#utility.yul\":15978:15980   */\n      0x20\n        /* \"#utility.yul\":15967:15976   */\n      dup4\n        /* \"#utility.yul\":15963:15981   */\n      add\n        /* \"#utility.yul\":15955:15961   */\n      dup5\n        /* \"#utility.yul\":15936:15982   */\n      tag_790\n      jump\t// in\n        /* \"#utility.yul\":15993:16337   */\n    tag_335:\n        /* \"#utility.yul\":16195:16197   */\n      0x20\n        /* \"#utility.yul\":16177:16198   */\n      dup1\n      dup3\n      mstore\n        /* \"#utility.yul\":16234:16236   */\n      0x14\n        /* \"#utility.yul\":16214:16232   */\n      swap1\n      dup3\n      add\n        /* \"#utility.yul\":16207:16237   */\n      mstore\n      shl(0x62, 0x1bdc99195c88191bd95cc81b9bdd08195e1a5cdd)\n        /* \"#utility.yul\":16268:16270   */\n      0x40\n        /* \"#utility.yul\":16253:16271   */\n      dup3\n      add\n        /* \"#utility.yul\":16246:16296   */\n      mstore\n        /* \"#utility.yul\":16328:16330   */\n      0x60\n        /* \"#utility.yul\":16313:16331   */\n      add\n      swap1\n        /* \"#utility.yul\":16167:16337   */\n      jump\t// out\n        /* \"#utility.yul\":16342:16680   */\n    tag_404:\n        /* \"#utility.yul\":16544:16546   */\n      0x20\n        /* \"#utility.yul\":16526:16547   */\n      dup1\n      dup3\n      mstore\n        /* \"#utility.yul\":16583:16585   */\n      0x0e\n        /* \"#utility.yul\":16563:16581   */\n      swap1\n      dup3\n      add\n        /* \"#utility.yul\":16556:16586   */\n      mstore\n      shl(0x92, 0x1b585c99da5b881b9bc819dbdbd9)\n        /* \"#utility.yul\":16617:16619   */\n      0x40\n        /* \"#utility.yul\":16602:16620   */\n      dup3\n      add\n        /* \"#utility.yul\":16595:16639   */\n      mstore\n        /* \"#utility.yul\":16671:16673   */\n      0x60\n        /* \"#utility.yul\":16656:16674   */\n      add\n      swap1\n        /* \"#utility.yul\":16516:16680   */\n      jump\t// out\n        /* \"#utility.yul\":16685:17087   */\n    tag_457:\n        /* \"#utility.yul\":16887:16889   */\n      0x20\n        /* \"#utility.yul\":16869:16890   */\n      dup1\n      dup3\n      mstore\n        /* \"#utility.yul\":16926:16928   */\n      0x26\n        /* \"#utility.yul\":16906:16924   */\n      swap1\n      dup3\n      add\n        /* \"#utility.yul\":16899:16929   */\n      mstore\n        /* \"#utility.yul\":16965:16999   */\n      0x4f776e61626c653a206e6577206f776e657220697320746865207a65726f2061\n        /* \"#utility.yul\":16960:16962   */\n      0x40\n        /* \"#utility.yul\":16945:16963   */\n      dup3\n      add\n        /* \"#utility.yul\":16938:17000   */\n      mstore\n      shl(0xd0, 0x646472657373)\n        /* \"#utility.yul\":17031:17033   */\n      0x60\n        /* \"#utility.yul\":17016:17034   */\n      dup3\n      add\n        /* \"#utility.yul\":17009:17045   */\n      mstore\n        /* \"#utility.yul\":17077:17080   */\n      0x80\n        /* \"#utility.yul\":17062:17081   */\n      add\n      swap1\n        /* \"#utility.yul\":16859:17087   */\n      jump\t// out\n        /* \"#utility.yul\":17092:17426   */\n    tag_348:\n        /* \"#utility.yul\":17294:17296   */\n      0x20\n        /* \"#utility.yul\":17276:17297   */\n      dup1\n      dup3\n      mstore\n        /* \"#utility.yul\":17333:17335   */\n      0x0a\n        /* \"#utility.yul\":17313:17331   */\n      swap1\n      dup3\n      add\n        /* \"#utility.yul\":17306:17336   */\n      mstore\n      shl(0xb1, 0x37b930b1b6329032b939)\n        /* \"#utility.yul\":17367:17369   */\n      0x40\n        /* \"#utility.yul\":17352:17370   */\n      dup3\n      add\n        /* \"#utility.yul\":17345:17385   */\n      mstore\n        /* \"#utility.yul\":17417:17419   */\n      0x60\n        /* \"#utility.yul\":17402:17420   */\n      add\n      swap1\n        /* \"#utility.yul\":17266:17426   */\n      jump\t// out\n        /* \"#utility.yul\":17431:17831   */\n    tag_270:\n        /* \"#utility.yul\":17633:17635   */\n      0x20\n        /* \"#utility.yul\":17615:17636   */\n      dup1\n      dup3\n      mstore\n        /* \"#utility.yul\":17672:17674   */\n      0x24\n        /* \"#utility.yul\":17652:17670   */\n      swap1\n      dup3\n      add\n        /* \"#utility.yul\":17645:17675   */\n      mstore\n        /* \"#utility.yul\":17711:17745   */\n      0x6578656375746f723a2063616c6c6572206973206e6f74207468652065786563\n        /* \"#utility.yul\":17706:17708   */\n      0x40\n        /* \"#utility.yul\":17691:17709   */\n      dup3\n      add\n        /* \"#utility.yul\":17684:17746   */\n      mstore\n      shl(0xe1, 0x3aba37b9)\n        /* \"#utility.yul\":17777:17779   */\n      0x60\n        /* \"#utility.yul\":17762:17780   */\n      dup3\n      add\n        /* \"#utility.yul\":17755:17789   */\n      mstore\n        /* \"#utility.yul\":17821:17824   */\n      0x80\n        /* \"#utility.yul\":17806:17825   */\n      add\n      swap1\n        /* \"#utility.yul\":17605:17831   */\n      jump\t// out\n        /* \"#utility.yul\":17836:18174   */\n    tag_291:\n        /* \"#utility.yul\":18038:18040   */\n      0x20\n        /* \"#utility.yul\":18020:18041   */\n      dup1\n      dup3\n      mstore\n        /* \"#utility.yul\":18077:18079   */\n      0x0e\n        /* \"#utility.yul\":18057:18075   */\n      swap1\n      dup3\n      add\n        /* \"#utility.yul\":18050:18080   */\n      mstore\n      shl(0x91, 0x2737903634b8bab4b230ba34b7b7)\n        /* \"#utility.yul\":18111:18113   */\n      0x40\n        /* \"#utility.yul\":18096:18114   */\n      dup3\n      add\n        /* \"#utility.yul\":18089:18133   */\n      mstore\n        /* \"#utility.yul\":18165:18167   */\n      0x60\n        /* \"#utility.yul\":18150:18168   */\n      add\n      swap1\n        /* \"#utility.yul\":18010:18174   */\n      jump\t// out\n        /* \"#utility.yul\":18179:18581   */\n    tag_641:\n        /* \"#utility.yul\":18381:18383   */\n      0x20\n        /* \"#utility.yul\":18363:18384   */\n      dup1\n      dup3\n      mstore\n        /* \"#utility.yul\":18420:18422   */\n      0x26\n        /* \"#utility.yul\":18400:18418   */\n      swap1\n      dup3\n      add\n        /* \"#utility.yul\":18393:18423   */\n      mstore\n        /* \"#utility.yul\":18459:18493   */\n      0x416464726573733a20696e73756666696369656e742062616c616e636520666f\n        /* \"#utility.yul\":18454:18456   */\n      0x40\n        /* \"#utility.yul\":18439:18457   */\n      dup3\n      add\n        /* \"#utility.yul\":18432:18494   */\n      mstore\n      shl(0xd2, 0x1c8818d85b1b)\n        /* \"#utility.yul\":18525:18527   */\n      0x60\n        /* \"#utility.yul\":18510:18528   */\n      dup3\n      add\n        /* \"#utility.yul\":18503:18539   */\n      mstore\n        /* \"#utility.yul\":18571:18574   */\n      0x80\n        /* \"#utility.yul\":18556:18575   */\n      add\n      swap1\n        /* \"#utility.yul\":18353:18581   */\n      jump\t// out\n        /* \"#utility.yul\":18586:18996   */\n    tag_463:\n        /* \"#utility.yul\":18788:18790   */\n      0x20\n        /* \"#utility.yul\":18770:18791   */\n      dup1\n      dup3\n      mstore\n        /* \"#utility.yul\":18827:18829   */\n      0x2e\n        /* \"#utility.yul\":18807:18825   */\n      swap1\n      dup3\n      add\n        /* \"#utility.yul\":18800:18830   */\n      mstore\n        /* \"#utility.yul\":18866:18900   */\n      0x496e697469616c697a61626c653a20636f6e747261637420697320616c726561\n        /* \"#utility.yul\":18861:18863   */\n      0x40\n        /* \"#utility.yul\":18846:18864   */\n      dup3\n      add\n        /* \"#utility.yul\":18839:18901   */\n      mstore\n      shl(0x92, 0x191e481a5b9a5d1a585b1a5e9959)\n        /* \"#utility.yul\":18932:18934   */\n      0x60\n        /* \"#utility.yul\":18917:18935   */\n      dup3\n      add\n        /* \"#utility.yul\":18910:18954   */\n      mstore\n        /* \"#utility.yul\":18986:18989   */\n      0x80\n        /* \"#utility.yul\":18971:18990   */\n      add\n      swap1\n        /* \"#utility.yul\":18760:18996   */\n      jump\t// out\n        /* \"#utility.yul\":19001:19400   */\n    tag_416:\n        /* \"#utility.yul\":19203:19205   */\n      0x20\n        /* \"#utility.yul\":19185:19206   */\n      dup1\n      dup3\n      mstore\n        /* \"#utility.yul\":19242:19244   */\n      0x23\n        /* \"#utility.yul\":19222:19240   */\n      swap1\n      dup3\n      add\n        /* \"#utility.yul\":19215:19245   */\n      mstore\n        /* \"#utility.yul\":19281:19315   */\n      0x546865207472616e73616374696f6e20616d6f756e7420697320746f6f20736d\n        /* \"#utility.yul\":19276:19278   */\n      0x40\n        /* \"#utility.yul\":19261:19279   */\n      dup3\n      add\n        /* \"#utility.yul\":19254:19316   */\n      mstore\n      shl(0xea, 0x185b1b)\n        /* \"#utility.yul\":19347:19349   */\n      0x60\n        /* \"#utility.yul\":19332:19350   */\n      dup3\n      add\n        /* \"#utility.yul\":19325:19358   */\n      mstore\n        /* \"#utility.yul\":19390:19393   */\n      0x80\n        /* \"#utility.yul\":19375:19394   */\n      add\n      swap1\n        /* \"#utility.yul\":19175:19400   */\n      jump\t// out\n        /* \"#utility.yul\":19405:19745   */\n    tag_352:\n        /* \"#utility.yul\":19607:19609   */\n      0x20\n        /* \"#utility.yul\":19589:19610   */\n      dup1\n      dup3\n      mstore\n        /* \"#utility.yul\":19646:19648   */\n      0x10\n        /* \"#utility.yul\":19626:19644   */\n      swap1\n      dup3\n      add\n        /* \"#utility.yul\":19619:19649   */\n      mstore\n      shl(0x82, 0x155cd95c881a5cc818985b9adc9d5c1d)\n        /* \"#utility.yul\":19680:19682   */\n      0x40\n        /* \"#utility.yul\":19665:19683   */\n      dup3\n      add\n        /* \"#utility.yul\":19658:19704   */\n      mstore\n        /* \"#utility.yul\":19736:19738   */\n      0x60\n        /* \"#utility.yul\":19721:19739   */\n      add\n      swap1\n        /* \"#utility.yul\":19579:19745   */\n      jump\t// out\n        /* \"#utility.yul\":19750:20106   */\n    tag_239:\n        /* \"#utility.yul\":19952:19954   */\n      0x20\n        /* \"#utility.yul\":19934:19955   */\n      dup1\n      dup3\n      mstore\n        /* \"#utility.yul\":19971:19989   */\n      dup2\n      dup2\n      add\n        /* \"#utility.yul\":19964:19994   */\n      mstore\n        /* \"#utility.yul\":20030:20064   */\n      0x4f776e61626c653a2063616c6c6572206973206e6f7420746865206f776e6572\n        /* \"#utility.yul\":20025:20027   */\n      0x40\n        /* \"#utility.yul\":20010:20028   */\n      dup3\n      add\n        /* \"#utility.yul\":20003:20065   */\n      mstore\n        /* \"#utility.yul\":20097:20099   */\n      0x60\n        /* \"#utility.yul\":20082:20100   */\n      add\n      swap1\n        /* \"#utility.yul\":19924:20106   */\n      jump\t// out\n        /* \"#utility.yul\":20111:20464   */\n    tag_646:\n        /* \"#utility.yul\":20313:20315   */\n      0x20\n        /* \"#utility.yul\":20295:20316   */\n      dup1\n      dup3\n      mstore\n        /* \"#utility.yul\":20352:20354   */\n      0x1d\n        /* \"#utility.yul\":20332:20350   */\n      swap1\n      dup3\n      add\n        /* \"#utility.yul\":20325:20355   */\n      mstore\n        /* \"#utility.yul\":20391:20422   */\n      0x416464726573733a2063616c6c20746f206e6f6e2d636f6e7472616374000000\n        /* \"#utility.yul\":20386:20388   */\n      0x40\n        /* \"#utility.yul\":20371:20389   */\n      dup3\n      add\n        /* \"#utility.yul\":20364:20423   */\n      mstore\n        /* \"#utility.yul\":20455:20457   */\n      0x60\n        /* \"#utility.yul\":20440:20458   */\n      add\n      swap1\n        /* \"#utility.yul\":20285:20464   */\n      jump\t// out\n        /* \"#utility.yul\":20469:20803   */\n    tag_214:\n        /* \"#utility.yul\":20671:20673   */\n      0x20\n        /* \"#utility.yul\":20653:20674   */\n      dup1\n      dup3\n      mstore\n        /* \"#utility.yul\":20710:20712   */\n      0x0a\n        /* \"#utility.yul\":20690:20708   */\n      swap1\n      dup3\n      add\n        /* \"#utility.yul\":20683:20713   */\n      mstore\n      shl(0xb1, 0x3632b733ba341032b939)\n        /* \"#utility.yul\":20744:20746   */\n      0x40\n        /* \"#utility.yul\":20729:20747   */\n      dup3\n      add\n        /* \"#utility.yul\":20722:20762   */\n      mstore\n        /* \"#utility.yul\":20794:20796   */\n      0x60\n        /* \"#utility.yul\":20779:20797   */\n      add\n      swap1\n        /* \"#utility.yul\":20643:20803   */\n      jump\t// out\n        /* \"#utility.yul\":20808:21139   */\n    tag_310:\n        /* \"#utility.yul\":21010:21012   */\n      0x20\n        /* \"#utility.yul\":20992:21013   */\n      dup1\n      dup3\n      mstore\n        /* \"#utility.yul\":21049:21050   */\n      0x08\n        /* \"#utility.yul\":21029:21047   */\n      swap1\n      dup3\n      add\n        /* \"#utility.yul\":21022:21051   */\n      mstore\n      shl(0xc1, 0x3ab9b2b91032b939)\n        /* \"#utility.yul\":21082:21084   */\n      0x40\n        /* \"#utility.yul\":21067:21085   */\n      dup3\n      add\n        /* \"#utility.yul\":21060:21098   */\n      mstore\n        /* \"#utility.yul\":21130:21132   */\n      0x60\n        /* \"#utility.yul\":21115:21133   */\n      add\n      swap1\n        /* \"#utility.yul\":20982:21139   */\n      jump\t// out\n        /* \"#utility.yul\":21144:21476   */\n    tag_338:\n        /* \"#utility.yul\":21346:21348   */\n      0x20\n        /* \"#utility.yul\":21328:21349   */\n      dup1\n      dup3\n      mstore\n        /* \"#utility.yul\":21385:21386   */\n      0x09\n        /* \"#utility.yul\":21365:21383   */\n      swap1\n      dup3\n      add\n        /* \"#utility.yul\":21358:21387   */\n      mstore\n      shl(0xb9, 0x39ba30ba329032b939)\n        /* \"#utility.yul\":21418:21420   */\n      0x40\n        /* \"#utility.yul\":21403:21421   */\n      dup3\n      add\n        /* \"#utility.yul\":21396:21435   */\n      mstore\n        /* \"#utility.yul\":21467:21469   */\n      0x60\n        /* \"#utility.yul\":21452:21470   */\n      add\n      swap1\n        /* \"#utility.yul\":21318:21476   */\n      jump\t// out\n        /* \"#utility.yul\":21481:21887   */\n    tag_618:\n        /* \"#utility.yul\":21683:21685   */\n      0x20\n        /* \"#utility.yul\":21665:21686   */\n      dup1\n      dup3\n      mstore\n        /* \"#utility.yul\":21722:21724   */\n      0x2a\n        /* \"#utility.yul\":21702:21720   */\n      swap1\n      dup3\n      add\n        /* \"#utility.yul\":21695:21725   */\n      mstore\n        /* \"#utility.yul\":21761:21795   */\n      0x5361666545524332303a204552433230206f7065726174696f6e20646964206e\n        /* \"#utility.yul\":21756:21758   */\n      0x40\n        /* \"#utility.yul\":21741:21759   */\n      dup3\n      add\n        /* \"#utility.yul\":21734:21796   */\n      mstore\n      shl(0xb2, 0x1bdd081cdd58d8d95959)\n        /* \"#utility.yul\":21827:21829   */\n      0x60\n        /* \"#utility.yul\":21812:21830   */\n      dup3\n      add\n        /* \"#utility.yul\":21805:21845   */\n      mstore\n        /* \"#utility.yul\":21877:21880   */\n      0x80\n        /* \"#utility.yul\":21862:21881   */\n      add\n      swap1\n        /* \"#utility.yul\":21655:21887   */\n      jump\t// out\n        /* \"#utility.yul\":21892:22227   */\n    tag_217:\n        /* \"#utility.yul\":22094:22096   */\n      0x20\n        /* \"#utility.yul\":22076:22097   */\n      dup1\n      dup3\n      mstore\n        /* \"#utility.yul\":22133:22135   */\n      0x0b\n        /* \"#utility.yul\":22113:22131   */\n      swap1\n      dup3\n      add\n        /* \"#utility.yul\":22106:22136   */\n      mstore\n      shl(0xaa, 0x185c9c881b9bc819dbdbd9)\n        /* \"#utility.yul\":22167:22169   */\n      0x40\n        /* \"#utility.yul\":22152:22170   */\n      dup3\n      add\n        /* \"#utility.yul\":22145:22186   */\n      mstore\n        /* \"#utility.yul\":22218:22220   */\n      0x60\n        /* \"#utility.yul\":22203:22221   */\n      add\n      swap1\n        /* \"#utility.yul\":22066:22227   */\n      jump\t// out\n        /* \"#utility.yul\":22232:23370   */\n    tag_101:\n      0x00\n        /* \"#utility.yul\":22415:22417   */\n      0x20\n        /* \"#utility.yul\":22404:22413   */\n      dup3\n        /* \"#utility.yul\":22397:22418   */\n      mstore\n        /* \"#utility.yul\":22427:22482   */\n      tag_830\n        /* \"#utility.yul\":22478:22480   */\n      0x20\n        /* \"#utility.yul\":22467:22476   */\n      dup4\n        /* \"#utility.yul\":22463:22481   */\n      add\n        /* \"#utility.yul\":22454:22460   */\n      dup5\n        /* \"#utility.yul\":22448:22461   */\n      mload\n        /* \"#utility.yul\":22427:22482   */\n      tag_788\n      jump\t// in\n    tag_830:\n        /* \"#utility.yul\":22536:22538   */\n      0x20\n        /* \"#utility.yul\":22528:22534   */\n      dup4\n        /* \"#utility.yul\":22524:22539   */\n      add\n        /* \"#utility.yul\":22518:22540   */\n      mload\n        /* \"#utility.yul\":22513:22515   */\n      0x40\n        /* \"#utility.yul\":22502:22511   */\n      dup4\n        /* \"#utility.yul\":22498:22516   */\n      add\n        /* \"#utility.yul\":22491:22541   */\n      mstore\n        /* \"#utility.yul\":22588:22590   */\n      0x40\n        /* \"#utility.yul\":22580:22586   */\n      dup4\n        /* \"#utility.yul\":22576:22591   */\n      add\n        /* \"#utility.yul\":22570:22592   */\n      mload\n        /* \"#utility.yul\":22611:22617   */\n      0x0160\n        /* \"#utility.yul\":22653:22655   */\n      dup1\n        /* \"#utility.yul\":22648:22650   */\n      0x60\n        /* \"#utility.yul\":22637:22646   */\n      dup6\n        /* \"#utility.yul\":22633:22651   */\n      add\n        /* \"#utility.yul\":22626:22656   */\n      mstore\n        /* \"#utility.yul\":22679:22732   */\n      tag_831\n        /* \"#utility.yul\":22727:22730   */\n      0x0180\n        /* \"#utility.yul\":22716:22725   */\n      dup6\n        /* \"#utility.yul\":22712:22731   */\n      add\n        /* \"#utility.yul\":22698:22710   */\n      dup4\n        /* \"#utility.yul\":22679:22732   */\n      tag_790\n      jump\t// in\n    tag_831:\n        /* \"#utility.yul\":22665:22732   */\n      swap2\n      pop\n        /* \"#utility.yul\":22787:22789   */\n      0x60\n        /* \"#utility.yul\":22779:22785   */\n      dup6\n        /* \"#utility.yul\":22775:22790   */\n      add\n        /* \"#utility.yul\":22769:22791   */\n      mload\n        /* \"#utility.yul\":22763:22766   */\n      0x80\n        /* \"#utility.yul\":22752:22761   */\n      dup6\n        /* \"#utility.yul\":22748:22767   */\n      add\n        /* \"#utility.yul\":22741:22792   */\n      mstore\n        /* \"#utility.yul\":22847:22850   */\n      0x80\n        /* \"#utility.yul\":22839:22845   */\n      dup6\n        /* \"#utility.yul\":22835:22851   */\n      add\n        /* \"#utility.yul\":22829:22852   */\n      mload\n        /* \"#utility.yul\":22823:22826   */\n      0xa0\n        /* \"#utility.yul\":22812:22821   */\n      dup6\n        /* \"#utility.yul\":22808:22827   */\n      add\n        /* \"#utility.yul\":22801:22853   */\n      mstore\n        /* \"#utility.yul\":22908:22911   */\n      0xa0\n        /* \"#utility.yul\":22900:22906   */\n      dup6\n        /* \"#utility.yul\":22896:22912   */\n      add\n        /* \"#utility.yul\":22890:22913   */\n      mload\n        /* \"#utility.yul\":22884:22887   */\n      0xc0\n        /* \"#utility.yul\":22873:22882   */\n      dup6\n        /* \"#utility.yul\":22869:22888   */\n      add\n        /* \"#utility.yul\":22862:22914   */\n      mstore\n        /* \"#utility.yul\":22969:22972   */\n      0xc0\n        /* \"#utility.yul\":22961:22967   */\n      dup6\n        /* \"#utility.yul\":22957:22973   */\n      add\n        /* \"#utility.yul\":22951:22974   */\n      mload\n        /* \"#utility.yul\":22945:22948   */\n      0xe0\n        /* \"#utility.yul\":22934:22943   */\n      dup6\n        /* \"#utility.yul\":22930:22949   */\n      add\n        /* \"#utility.yul\":22923:22975   */\n      mstore\n        /* \"#utility.yul\":23012:23015   */\n      0xe0\n        /* \"#utility.yul\":23004:23010   */\n      dup6\n        /* \"#utility.yul\":23000:23016   */\n      add\n        /* \"#utility.yul\":22994:23017   */\n      mload\n        /* \"#utility.yul\":23036:23039   */\n      0x0100\n        /* \"#utility.yul\":23075:23077   */\n      dup2\n        /* \"#utility.yul\":23070:23072   */\n      dup2\n        /* \"#utility.yul\":23059:23068   */\n      dup8\n        /* \"#utility.yul\":23055:23073   */\n      add\n        /* \"#utility.yul\":23048:23078   */\n      mstore\n        /* \"#utility.yul\":23115:23117   */\n      dup1\n        /* \"#utility.yul\":23107:23113   */\n      dup8\n        /* \"#utility.yul\":23103:23118   */\n      add\n        /* \"#utility.yul\":23097:23119   */\n      mload\n        /* \"#utility.yul\":23087:23119   */\n      swap2\n      pop\n      pop\n        /* \"#utility.yul\":23138:23141   */\n      0x0120\n        /* \"#utility.yul\":23177:23179   */\n      dup2\n        /* \"#utility.yul\":23172:23174   */\n      dup2\n        /* \"#utility.yul\":23161:23170   */\n      dup8\n        /* \"#utility.yul\":23157:23175   */\n      add\n        /* \"#utility.yul\":23150:23180   */\n      mstore\n        /* \"#utility.yul\":23217:23219   */\n      dup1\n        /* \"#utility.yul\":23209:23215   */\n      dup8\n        /* \"#utility.yul\":23205:23220   */\n      add\n        /* \"#utility.yul\":23199:23221   */\n      mload\n        /* \"#utility.yul\":23189:23221   */\n      swap2\n      pop\n      pop\n        /* \"#utility.yul\":23240:23243   */\n      0x0140\n        /* \"#utility.yul\":23279:23281   */\n      dup2\n        /* \"#utility.yul\":23274:23276   */\n      dup2\n        /* \"#utility.yul\":23263:23272   */\n      dup8\n        /* \"#utility.yul\":23259:23277   */\n      add\n        /* \"#utility.yul\":23252:23282   */\n      mstore\n        /* \"#utility.yul\":23336:23338   */\n      dup1\n        /* \"#utility.yul\":23328:23334   */\n      dup8\n        /* \"#utility.yul\":23324:23339   */\n      add\n        /* \"#utility.yul\":23318:23340   */\n      mload\n        /* \"#utility.yul\":23313:23315   */\n      dup4\n        /* \"#utility.yul\":23302:23311   */\n      dup8\n        /* \"#utility.yul\":23298:23316   */\n      add\n        /* \"#utility.yul\":23291:23341   */\n      mstore\n      pop\n      pop\n      pop\n        /* \"#utility.yul\":23358:23364   */\n      dup1\n        /* \"#utility.yul\":23350:23364   */\n      swap2\n      pop\n      pop\n        /* \"#utility.yul\":22387:23370   */\n      swap3\n      swap2\n      pop\n      pop\n      jump\t// out\n        /* \"#utility.yul\":23375:23552   */\n    tag_56:\n        /* \"#utility.yul\":23521:23546   */\n      swap1\n      dup2\n      mstore\n        /* \"#utility.yul\":23509:23511   */\n      0x20\n        /* \"#utility.yul\":23494:23512   */\n      add\n      swap1\n        /* \"#utility.yul\":23476:23552   */\n      jump\t// out\n        /* \"#utility.yul\":23557:23808   */\n    tag_683:\n        /* \"#utility.yul\":23627:23629   */\n      0x40\n        /* \"#utility.yul\":23621:23630   */\n      mload\n        /* \"#utility.yul\":23657:23674   */\n      dup2\n      dup2\n      add\n        /* \"#utility.yul\":23704:23722   */\n      0xffffffffffffffff\n        /* \"#utility.yul\":23689:23723   */\n      dup2\n      gt\n        /* \"#utility.yul\":23725:23747   */\n      dup3\n      dup3\n      lt\n        /* \"#utility.yul\":23686:23748   */\n      or\n        /* \"#utility.yul\":23683:23685   */\n      iszero\n      tag_835\n      jumpi\n        /* \"#utility.yul\":23751:23769   */\n      tag_835\n      tag_715\n      jump\t// in\n    tag_835:\n        /* \"#utility.yul\":23787:23789   */\n      0x40\n        /* \"#utility.yul\":23780:23802   */\n      mstore\n        /* \"#utility.yul\":23601:23808   */\n      swap2\n      swap1\n      pop\n      jump\t// out\n        /* \"#utility.yul\":23813:24003   */\n    tag_682:\n      0x00\n        /* \"#utility.yul\":23910:23928   */\n      0xffffffffffffffff\n        /* \"#utility.yul\":23902:23908   */\n      dup3\n        /* \"#utility.yul\":23899:23929   */\n      gt\n        /* \"#utility.yul\":23896:23898   */\n      iszero\n      tag_838\n      jumpi\n        /* \"#utility.yul\":23932:23950   */\n      tag_838\n      tag_715\n      jump\t// in\n    tag_838:\n      pop\n        /* \"#utility.yul\":23992:23996   */\n      0x20\n        /* \"#utility.yul\":23973:23990   */\n      swap1\n      dup2\n      mul\n        /* \"#utility.yul\":23969:23997   */\n      add\n      swap1\n        /* \"#utility.yul\":23886:24003   */\n      jump\t// out\n        /* \"#utility.yul\":24008:24136   */\n    tag_253:\n      0x00\n        /* \"#utility.yul\":24079:24080   */\n      dup3\n        /* \"#utility.yul\":24075:24081   */\n      not\n        /* \"#utility.yul\":24072:24073   */\n      dup3\n        /* \"#utility.yul\":24069:24082   */\n      gt\n        /* \"#utility.yul\":24066:24068   */\n      iszero\n      tag_841\n      jumpi\n        /* \"#utility.yul\":24085:24103   */\n      tag_841\n      tag_842\n      jump\t// in\n    tag_841:\n      pop\n        /* \"#utility.yul\":24121:24130   */\n      add\n      swap1\n        /* \"#utility.yul\":24056:24136   */\n      jump\t// out\n        /* \"#utility.yul\":24141:24358   */\n    tag_485:\n      0x00\n        /* \"#utility.yul\":24207:24208   */\n      dup3\n        /* \"#utility.yul\":24197:24199   */\n      tag_844\n      jumpi\n      shl(0xe0, 0x4e487b71)\n        /* \"#utility.yul\":24232:24263   */\n      dup2\n      mstore\n        /* \"#utility.yul\":24286:24290   */\n      0x12\n        /* \"#utility.yul\":24283:24284   */\n      0x04\n        /* \"#utility.yul\":24276:24291   */\n      mstore\n        /* \"#utility.yul\":24314:24318   */\n      0x24\n        /* \"#utility.yul\":24239:24240   */\n      dup2\n        /* \"#utility.yul\":24304:24319   */\n      revert\n        /* \"#utility.yul\":24197:24199   */\n    tag_844:\n      pop\n        /* \"#utility.yul\":24343:24352   */\n      div\n      swap1\n        /* \"#utility.yul\":24187:24358   */\n      jump\t// out\n        /* \"#utility.yul\":24363:24531   */\n    tag_478:\n      0x00\n        /* \"#utility.yul\":24469:24470   */\n      dup2\n        /* \"#utility.yul\":24465:24466   */\n      0x00\n        /* \"#utility.yul\":24461:24467   */\n      not\n        /* \"#utility.yul\":24457:24471   */\n      div\n        /* \"#utility.yul\":24454:24455   */\n      dup4\n        /* \"#utility.yul\":24451:24472   */\n      gt\n        /* \"#utility.yul\":24446:24447   */\n      dup3\n        /* \"#utility.yul\":24439:24448   */\n      iszero\n        /* \"#utility.yul\":24432:24449   */\n      iszero\n        /* \"#utility.yul\":24428:24473   */\n      and\n        /* \"#utility.yul\":24425:24427   */\n      iszero\n      tag_847\n      jumpi\n        /* \"#utility.yul\":24476:24494   */\n      tag_847\n      tag_842\n      jump\t// in\n    tag_847:\n      pop\n        /* \"#utility.yul\":24516:24525   */\n      mul\n      swap1\n        /* \"#utility.yul\":24415:24531   */\n      jump\t// out\n        /* \"#utility.yul\":24536:24661   */\n    tag_481:\n      0x00\n        /* \"#utility.yul\":24604:24605   */\n      dup3\n        /* \"#utility.yul\":24601:24602   */\n      dup3\n        /* \"#utility.yul\":24598:24606   */\n      lt\n        /* \"#utility.yul\":24595:24597   */\n      iszero\n      tag_850\n      jumpi\n        /* \"#utility.yul\":24609:24627   */\n      tag_850\n      tag_842\n      jump\t// in\n    tag_850:\n      pop\n        /* \"#utility.yul\":24646:24655   */\n      sub\n      swap1\n        /* \"#utility.yul\":24585:24661   */\n      jump\t// out\n        /* \"#utility.yul\":24666:24924   */\n    tag_793:\n        /* \"#utility.yul\":24738:24739   */\n      0x00\n        /* \"#utility.yul\":24748:24861   */\n    tag_852:\n        /* \"#utility.yul\":24762:24768   */\n      dup4\n        /* \"#utility.yul\":24759:24760   */\n      dup2\n        /* \"#utility.yul\":24756:24769   */\n      lt\n        /* \"#utility.yul\":24748:24861   */\n      iszero\n      tag_854\n      jumpi\n        /* \"#utility.yul\":24838:24849   */\n      dup2\n      dup2\n      add\n        /* \"#utility.yul\":24832:24850   */\n      mload\n        /* \"#utility.yul\":24819:24830   */\n      dup4\n      dup3\n      add\n        /* \"#utility.yul\":24812:24851   */\n      mstore\n        /* \"#utility.yul\":24784:24786   */\n      0x20\n        /* \"#utility.yul\":24777:24787   */\n      add\n        /* \"#utility.yul\":24748:24861   */\n      jump(tag_852)\n    tag_854:\n        /* \"#utility.yul\":24879:24885   */\n      dup4\n        /* \"#utility.yul\":24876:24877   */\n      dup2\n        /* \"#utility.yul\":24873:24886   */\n      gt\n        /* \"#utility.yul\":24870:24872   */\n      iszero\n      tag_585\n      jumpi\n      pop\n      pop\n        /* \"#utility.yul\":24914:24915   */\n      0x00\n        /* \"#utility.yul\":24896:24912   */\n      swap2\n      add\n        /* \"#utility.yul\":24889:24916   */\n      mstore\n        /* \"#utility.yul\":24719:24924   */\n      jump\t// out\n        /* \"#utility.yul\":24929:25065   */\n    tag_230:\n      0x00\n        /* \"#utility.yul\":24996:25001   */\n      dup2\n        /* \"#utility.yul\":24986:24988   */\n      tag_858\n      jumpi\n        /* \"#utility.yul\":25005:25023   */\n      tag_858\n      tag_842\n      jump\t// in\n    tag_858:\n      pop\n      not(0x00)\n        /* \"#utility.yul\":25041:25059   */\n      add\n      swap1\n        /* \"#utility.yul\":24976:25065   */\n      jump\t// out\n        /* \"#utility.yul\":25070:25450   */\n    tag_296:\n        /* \"#utility.yul\":25155:25156   */\n      0x02\n        /* \"#utility.yul\":25145:25157   */\n      dup2\n      div\n        /* \"#utility.yul\":25202:25203   */\n      0x01\n        /* \"#utility.yul\":25192:25204   */\n      dup3\n      and\n      dup1\n        /* \"#utility.yul\":25213:25215   */\n      tag_860\n      jumpi\n        /* \"#utility.yul\":25267:25271   */\n      0x7f\n        /* \"#utility.yul\":25259:25265   */\n      dup3\n        /* \"#utility.yul\":25255:25272   */\n      and\n        /* \"#utility.yul\":25245:25272   */\n      swap2\n      pop\n        /* \"#utility.yul\":25213:25215   */\n    tag_860:\n        /* \"#utility.yul\":25320:25322   */\n      0x20\n        /* \"#utility.yul\":25312:25318   */\n      dup3\n        /* \"#utility.yul\":25309:25323   */\n      lt\n        /* \"#utility.yul\":25289:25307   */\n      dup2\n        /* \"#utility.yul\":25286:25324   */\n      eq\n        /* \"#utility.yul\":25283:25285   */\n      iszero\n      tag_861\n      jumpi\n        /* \"#utility.yul\":25366:25376   */\n      0x4e487b71\n        /* \"#utility.yul\":25361:25364   */\n      0xe0\n        /* \"#utility.yul\":25357:25377   */\n      shl\n        /* \"#utility.yul\":25354:25355   */\n      0x00\n        /* \"#utility.yul\":25347:25378   */\n      mstore\n        /* \"#utility.yul\":25401:25405   */\n      0x22\n        /* \"#utility.yul\":25398:25399   */\n      0x04\n        /* \"#utility.yul\":25391:25406   */\n      mstore\n        /* \"#utility.yul\":25429:25433   */\n      0x24\n        /* \"#utility.yul\":25426:25427   */\n      0x00\n        /* \"#utility.yul\":25419:25434   */\n      revert\n        /* \"#utility.yul\":25283:25285   */\n    tag_861:\n      pop\n        /* \"#utility.yul\":25125:25450   */\n      swap2\n      swap1\n      pop\n      jump\t// out\n        /* \"#utility.yul\":25455:25590   */\n    tag_228:\n      0x00\n      not(0x00)\n        /* \"#utility.yul\":25515:25532   */\n      dup3\n      eq\n        /* \"#utility.yul\":25512:25514   */\n      iszero\n      tag_864\n      jumpi\n        /* \"#utility.yul\":25535:25553   */\n      tag_864\n      tag_842\n      jump\t// in\n    tag_864:\n      pop\n        /* \"#utility.yul\":25582:25583   */\n      0x01\n        /* \"#utility.yul\":25571:25584   */\n      add\n      swap1\n        /* \"#utility.yul\":25502:25590   */\n      jump\t// out\n        /* \"#utility.yul\":25595:25722   */\n    tag_842:\n        /* \"#utility.yul\":25656:25666   */\n      0x4e487b71\n        /* \"#utility.yul\":25651:25654   */\n      0xe0\n        /* \"#utility.yul\":25647:25667   */\n      shl\n        /* \"#utility.yul\":25644:25645   */\n      0x00\n        /* \"#utility.yul\":25637:25668   */\n      mstore\n        /* \"#utility.yul\":25687:25691   */\n      0x11\n        /* \"#utility.yul\":25684:25685   */\n      0x04\n        /* \"#utility.yul\":25677:25692   */\n      mstore\n        /* \"#utility.yul\":25711:25715   */\n      0x24\n        /* \"#utility.yul\":25708:25709   */\n      0x00\n        /* \"#utility.yul\":25701:25716   */\n      revert\n        /* \"#utility.yul\":25727:25854   */\n    tag_715:\n        /* \"#utility.yul\":25788:25798   */\n      0x4e487b71\n        /* \"#utility.yul\":25783:25786   */\n      0xe0\n        /* \"#utility.yul\":25779:25799   */\n      shl\n        /* \"#utility.yul\":25776:25777   */\n      0x00\n        /* \"#utility.yul\":25769:25800   */\n      mstore\n        /* \"#utility.yul\":25819:25823   */\n      0x41\n        /* \"#utility.yul\":25816:25817   */\n      0x04\n        /* \"#utility.yul\":25809:25824   */\n      mstore\n        /* \"#utility.yul\":25843:25847   */\n      0x24\n        /* \"#utility.yul\":25840:25841   */\n      0x00\n        /* \"#utility.yul\":25833:25848   */\n      revert\n        /* \"#utility.yul\":25859:25992   */\n    tag_676:\n      sub(shl(0xa0, 0x01), 0x01)\n        /* \"#utility.yul\":25936:25967   */\n      dup2\n      and\n        /* \"#utility.yul\":25926:25968   */\n      dup2\n      eq\n        /* \"#utility.yul\":25916:25918   */\n      tag_458\n      jumpi\n        /* \"#utility.yul\":25982:25983   */\n      0x00\n        /* \"#utility.yul\":25979:25980   */\n      dup1\n        /* \"#utility.yul\":25972:25984   */\n      revert\n        /* \"#utility.yul\":25997:26117   */\n    tag_710:\n        /* \"#utility.yul\":26085:26090   */\n      dup1\n        /* \"#utility.yul\":26078:26091   */\n      iszero\n        /* \"#utility.yul\":26071:26092   */\n      iszero\n        /* \"#utility.yul\":26064:26069   */\n      dup2\n        /* \"#utility.yul\":26061:26093   */\n      eq\n        /* \"#utility.yul\":26051:26053   */\n      tag_458\n      jumpi\n        /* \"#utility.yul\":26107:26108   */\n      0x00\n        /* \"#utility.yul\":26104:26105   */\n      dup1\n        /* \"#utility.yul\":26097:26109   */\n      revert\n\n    auxdata: 0xa2646970667358221220f93dc0d6a7ec32a4400181d269754e9ce11baad597efc76b8594b468f71a4e5764736f6c63430008000033\n}\n",
				"bytecode": {
					"linkReferences": {},
					"object": "608060405234801561001057600080fd5b506135ab806100206000396000f3fe608060405234801561001057600080fd5b50600436106102115760003560e01c80637dc0d1d011610125578063db4a5aa9116100ad578063f14053ad1161007c578063f14053ad14610439578063f2fde38b14610441578063f7ab69fd14610454578063f8c8765e1461045c578063fc234d061461046f57610211565b8063db4a5aa9146103ed578063e4e9552014610400578063ec4c4f3414610413578063f0c765e41461042657610211565b8063a8ecb028116100f4578063a8ecb02814610399578063aaf5eb68146103ac578063aecf77b1146103b4578063c2ec527d146103c7578063d8c5db4f146103da57610211565b80637dc0d1d01461036e5780637fd6f15c146103765780638da5cb5b1461037e578063a0ad12e21461038657610211565b806343b1f3cb116101a85780636c19e783116101775780636c19e783146103185780636e8124371461032b578063715018a61461033e5780637be3a1a1146103485780637ce3489b1461035b57610211565b806343b1f3cb146102bf57806348c7e528146102d25780634b989ce3146102e55780636ab34a4a146102f857610211565b8063238ac933116101e4578063238ac933146102945780632705c55b1461029c5780633011d3d5146102af578063323b9b2b146102b757610211565b8063080270a8146102165780630f58d2421461023f5780631e1bff3f1461025f5780631e64610c1461027f575b600080fd5b610229610224366004612a71565b610482565b6040516102369190612f18565b60405180910390f35b61025261024d366004612d6c565b610746565b60405161023691906133c8565b61027261026d36600461297f565b610767565b6040516102369190612f5c565b6102876107d7565b6040516102369190612ec7565b6102876107e6565b6102726102aa366004612e47565b6107f5565b610287610946565b610252610955565b6102526102cd366004612d6c565b61095b565b6102726102e0366004612963565b61096d565b6102726102f3366004612ac7565b610982565b61030b610306366004612d6c565b610b7f565b6040516102369190613324565b610272610326366004612963565b610cac565b610272610339366004612ba2565b610d12565b610346610d66565b005b610252610356366004612a12565b610db1565b610272610369366004612d6c565b610dce565b610287610e18565b610252610e27565b610287610e2d565b610272610394366004612ba2565b610e3c565b6102726103a7366004612c24565b610e8a565b6102526112e1565b6102526103c2366004612963565b6112e7565b6102526103d5366004612a12565b611302565b6103466103e8366004612a3d565b611333565b6102726103fb366004612cbe565b6113a1565b61025261040e366004612963565b6117c1565b610252610421366004612a12565b6117dc565b610252610434366004612a12565b6117f8565b610252611815565b61034661044f366004612963565b61181b565b61025261188c565b61034661046a3660046129b7565b611892565b61027261047d366004612d9c565b611974565b606060008082866104e557606c8054806020026020016040519081016040528092919081815260200182805480156104d957602002820191906000526020600020905b8154815260200190600101908083116104c5575b505050505090506105c5565b8660011415610556576001600160a01b0388166000908152606e6020908152604091829020805483518184028101840190945280845290918301828280156104d957602002820191906000526020600020908154815260200190600101908083116104c557505050505090506105c5565b86600214156105c5576001600160a01b038816600090815260706020908152604091829020805483518184028101840190945280845290918301828280156105bd57602002820191906000526020600020905b8154815260200190600101908083116105a9575b505050505090505b60006105e66105de886105d8818a611ad9565b90611ae5565b835190611ae5565b90508681106105f7578692506105fb565b8092505b815161060b886105d8818a611ad9565b106106315760405162461bcd60e51b81526004016106289061324c565b60405180910390fd5b8261064e5760405162461bcd60e51b8152600401610628906132ff565b60008367ffffffffffffffff81111561067757634e487b7160e01b600052604160045260246000fd5b6040519080825280602002602001820160405280156106a0578160200160208202803683370190505b50905060006106b0836001611ae5565b90505b84861015610738578381815181106106db57634e487b7160e01b600052603260045260246000fd5b602002602001015182878151811061070357634e487b7160e01b600052603260045260246000fd5b60209081029190910101528061071857610738565b856107228161350b565b9650508080610730906134b9565b9150506106b3565b509998505050505050505050565b606c818154811061075657600080fd5b600091825260209091200154905081565b6000610771611af1565b6001600160a01b0316610782610e2d565b6001600160a01b0316146107a85760405162461bcd60e51b8152600401610628906131e0565b506001600160a01b0382166000908152606560205260409020805482151560ff19909116179055600192915050565b6068546001600160a01b031681565b6066546001600160a01b031681565b6000838152606a6020526040812060098101546004820154839182918291908890600114156108b15785600501548110156108ac5760058601546108399082611ae5565b9450610857670de0b6b3a76400006108518785611ad9565b90611af5565b935061088a670de0b6b3a76400006108516073546108516072546108848789611ad990919063ffffffff16565b90611ad9565b9250610896838561341f565b8810156108ac576000965050505050505061093f565b610934565b85600501548111156109345760058601546108cd908290611ae5565b94506108e5670de0b6b3a76400006108518785611ad9565b9350610912670de0b6b3a76400006108516073546108516072546108848789611ad990919063ffffffff16565b925061091e838561341f565b881015610934576000965050505050505061093f565b600196505050505050505b9392505050565b6067546001600160a01b031681565b606c5490565b606d6020526000908152604090205481565b60656020526000908152604090205460ff1681565b3360009081526065602052604081205460ff166109b15760405162461bcd60e51b815260040161062890613073565b6000805b8751811015610b53576000606a60008a84815181106109e457634e487b7160e01b600052603260045260246000fd5b602002602001015181526020019081526020016000209050610a59898381518110610a1f57634e487b7160e01b600052603260045260246000fd5b6020026020010151878481518110610a4757634e487b7160e01b600052603260045260246000fd5b602002602001015183600a01546107f5565b610b405782610a678161350b565b935050610b3e8a8260038c8681518110610a9157634e487b7160e01b600052603260045260246000fd5b60200260200101518c8781518110610ab957634e487b7160e01b600052603260045260246000fd5b60200260200101518c8881518110610ae157634e487b7160e01b600052603260045260246000fd5b60200260200101518c8981518110610b0957634e487b7160e01b600052603260045260246000fd5b60200260200101518c8a81518110610b3157634e487b7160e01b600052603260045260246000fd5b6020026020010151611b01565b505b5080610b4b8161350b565b9150506109b5565b5080610b715760405162461bcd60e51b8152600401610628906130b7565b506001979650505050505050565b610b876126d0565b6000828152606a602090815260409182902082516101608101845281546001600160a01b031681526001820154928101929092526002810180549293919291840191610bd2906134d0565b80601f0160208091040260200160405190810160405280929190818152602001828054610bfe906134d0565b8015610c4b5780601f10610c2057610100808354040283529160200191610c4b565b820191906000526020600020905b815481529060010190602001808311610c2e57829003601f168201915b5050505050815260200160038201548152602001600482015481526020016005820154815260200160068201548152602001600782015481526020016008820154815260200160098201548152602001600a8201548152505090505b919050565b6000610cb6611af1565b6001600160a01b0316610cc7610e2d565b6001600160a01b031614610ced5760405162461bcd60e51b8152600401610628906131e0565b50606680546001600160a01b0383166001600160a01b03199091161790556001919050565b6000858152606a6020526040812080546001600160a01b03163314610d495760405162461bcd60e51b815260040161062890613270565b610d5a888260028a8a8a8a8a611b01565b98975050505050505050565b610d6e611af1565b6001600160a01b0316610d7f610e2d565b6001600160a01b031614610da55760405162461bcd60e51b8152600401610628906131e0565b610daf6000612207565b565b606f60209081526000928352604080842090915290825290205481565b6000610dd8611af1565b6001600160a01b0316610de9610e2d565b6001600160a01b031614610e0f5760405162461bcd60e51b8152600401610628906131e0565b50607255600190565b6069546001600160a01b031681565b60725481565b6033546001600160a01b031690565b3360009081526065602052604081205460ff16610e6b5760405162461bcd60e51b815260040161062890613073565b6000868152606a60205260409020610d5a888260048a8a8a8a8a611b01565b6000868152606a6020526040812080546001600160a01b0316610ebf5760405162461bcd60e51b815260040161062890612fb3565b6002816003015410610ee35760405162461bcd60e51b815260040161062890613292565b6069546040516311cdc9d960e11b81526001600160a01b039091169063239b93b290610f1b908c9089908c908c908b90600401612f67565b60206040518083038186803b158015610f3357600080fd5b505afa158015610f47573d6000803e3d6000fd5b505050506040513d601f19601f82011682018060405250810190610f6b9190612aab565b610f875760405162461bcd60e51b81526004016106289061304f565b610f928886856107f5565b610fae5760405162461bcd60e51b8152600401610628906131b6565b6000610fdf670de0b6b3a76400006108516073546108516072546108848c8960090154611ad990919063ffffffff16565b9050600061103061100d670de0b6b3a764000061085186600901548760050154611ad990919063ffffffff16565b6105d8670de0b6b3a764000061085187600901548c611ad990919063ffffffff16565b9050600061104b8285600a015461225990919063ffffffff16565b905060008161105a8886611ae5565b11156110f05761106e826105d88987611ae5565b606754909150611089906001600160a01b0316333084612265565b606754604051630852cd8d60e31b81526001600160a01b03909116906342966c68906110b99084906004016133c8565b600060405180830381600087803b1580156110d357600080fd5b505af11580156110e7573d6000803e3d6000fd5b5050505061118f565b6111046110fd8886611ae5565b8390611ae5565b60675486546040516340c10f1960e01b81529293506001600160a01b03918216926340c10f199261113b9216908590600401612eff565b602060405180830381600087803b15801561115557600080fd5b505af1158015611169573d6000803e3d6000fd5b505050506040513d601f19601f8201168201806040525081019061118d9190612aab565b505b6067546040516340c10f1960e01b81526001600160a01b03909116906340c10f19906111c19030908890600401612eff565b602060405180830381600087803b1580156111db57600080fd5b505af11580156111ef573d6000803e3d6000fd5b505050506040513d601f19601f820116820180604052508101906112139190612aab565b50606854606754611231916001600160a01b039182169116866122c3565b606860009054906101000a90046001600160a01b03166001600160a01b031663d10c06a26040518163ffffffff1660e01b8152600401602060405180830381600087803b15801561128157600080fd5b505af1158015611295573d6000803e3d6000fd5b505050506040513d601f19601f820116820180604052508101906112b99190612aab565b506112c48785611ae5565b600a86015550505050600501849055506001979650505050505050565b60735481565b6001600160a01b031660009081526070602052604090205490565b606e602052816000526040600020818154811061131e57600080fd5b90600052602060002001600091509150505481565b6001600160a01b0383166000908152606e6020526040902080548291908490811061136e57634e487b7160e01b600052603260045260246000fd5b60009182526020808320909101929092556001600160a01b039094168452606f8152604080852092855291905290912055565b606b546000908152606a60205260408120896113cf5760405162461bcd60e51b815260040161062890612fe1565b6003810154156113f15760405162461bcd60e51b815260040161062890613292565b6069546040516311cdc9d960e11b81526001600160a01b039091169063239b93b290611429908e9089908e908c908a90600401612f67565b60206040518083038186803b15801561144157600080fd5b505afa158015611455573d6000803e3d6000fd5b505050506040513d601f19601f820116820180604052508101906114799190612aab565b6114955760405162461bcd60e51b81526004016106289061304f565b6074548a116114b65760405162461bcd60e51b815260040161062890613173565b6067546114ce906001600160a01b031633308d612265565b6067546040516370a0823160e01b81526000916001600160a01b0316906370a08231906114ff903090600401612ec7565b60206040518083038186803b15801561151757600080fd5b505afa15801561152b573d6000803e3d6000fd5b505050506040513d601f19601f8201168201806040525081019061154f9190612d84565b9050600061157e670de0b6b3a76400006108516073546108516072546108848c8e611ad990919063ffffffff16565b60685460675491925061159e916001600160a01b039081169116836122c3565b606860009054906101000a90046001600160a01b03166001600160a01b031663d10c06a26040518163ffffffff1660e01b8152600401602060405180830381600087803b1580156115ee57600080fd5b505af1158015611602573d6000803e3d6000fd5b505050506040513d601f19601f820116820180604052508101906116269190612aab565b506067546001600160a01b03166342966c686116428484611ae5565b6040518263ffffffff1660e01b815260040161165e91906133c8565b600060405180830381600087803b15801561167857600080fd5b505af115801561168c573d6000803e3d6000fd5b5050606b54606c80546001818101835560008390527f2b4a51ab505fc96a0952efda2ba61bcd3078d4c02c39a186ec16f21883fbe01690910192909255546116d693509150611ae5565b606b80546000908152606d602090815260408083209490945533808352606e8252938220925483546001818101865585855292842001559290525461171a91611ae5565b336000908152606f60209081526040808320606b805485529252822092909255815491906117478361350b565b909155505082546001600160a01b0319163317835560018301899055875161177890600285019060208b0190612733565b5060016003840155600483018a905560058301879055600683018b9055600983018690556117a68282611ae5565b600a909301929092555060019b9a5050505050505050505050565b6001600160a01b03166000908152606e602052604090205490565b6070602052816000526040600020818154811061131e57600080fd5b607160209081526000928352604080842090915290825290205481565b60745481565b611823611af1565b6001600160a01b0316611834610e2d565b6001600160a01b03161461185a5760405162461bcd60e51b8152600401610628906131e0565b6001600160a01b0381166118805760405162461bcd60e51b815260040161062890613009565b61188981612207565b50565b606b5481565b600054610100900460ff16806118ab575060005460ff16155b6118c75760405162461bcd60e51b815260040161062890613125565b600054610100900460ff161580156118f2576000805460ff1961ff0019909116610100171660011790555b6118fa6122e7565b606680546001600160a01b038088166001600160a01b03199283161790925560688054878416908316179055606780548684169083161790556127106073556069805492851692909116919091179055670de0b6b3a76400006074556032607255801561196d576000805461ff00191690555b5050505050565b600061197e611af1565b6001600160a01b031661198f610e2d565b6001600160a01b0316146119b55760405162461bcd60e51b8152600401610628906131e0565b6040518061016001604052808d6001600160a01b031681526020018c81526020018b81526020018a815260200189815260200188815260200187815260200186815260200185815260200184815260200183815250606a60008f815260200190815260200160002060008201518160000160006101000a8154816001600160a01b0302191690836001600160a01b03160217905550602082015181600101556040820151816002019080519060200190611a70929190612733565b50606082015160038201556080820151600482015560a0820151600582015560c0820151600682015560e082015160078201556101008201516008820155610120820151600982015561014090910151600a909101555060019c9b505050505050505050505050565b600061093f8284613457565b600061093f8284613476565b3390565b600061093f8284613437565b86546000906001600160a01b0316611b2b5760405162461bcd60e51b815260040161062890612fb3565b6002886003015410611b4f5760405162461bcd60e51b815260040161062890613292565b6069546040516311cdc9d960e11b81526001600160a01b039091169063239b93b290611b87908c9087908a908a908990600401612f67565b60206040518083038186803b158015611b9f57600080fd5b505afa158015611bb3573d6000803e3d6000fd5b505050506040513d601f19601f82011682018060405250810190611bd79190612aab565b611bf35760405162461bcd60e51b81526004016106289061304f565b6007880183905560098801546073546072546000928392839288918491611c2f91670de0b6b3a76400009161085191908290610884888a611ad9565b90508d6004015460011415611f15578d600501548e600701541115611dad5760058e015460078f0154611c6191611ae5565b9550611c79670de0b6b3a76400006108518886611ad9565b600a8f0154909550611c8b9086612259565b6067546068546040516340c10f1960e01b81529296506001600160a01b03918216926340c10f1992611cc39216908590600401612eff565b602060405180830381600087803b158015611cdd57600080fd5b505af1158015611cf1573d6000803e3d6000fd5b505050506040513d601f19601f82011682018060405250810190611d159190612aab565b506067548e546001600160a01b03918216916340c10f199116611d388785611ae5565b6040518363ffffffff1660e01b8152600401611d55929190612eff565b602060405180830381600087803b158015611d6f57600080fd5b505af1158015611d83573d6000803e3d6000fd5b505050506040513d601f19601f82011682018060405250810190611da79190612aab565b50611f10565b60078e015460058f0154611dc091611ae5565b9550611dcc8684611ad9565b94508d600a0154851115611de35760009350611f10565b600a8e0154611df29086611ae5565b6067546068546040516340c10f1960e01b81529296506001600160a01b03918216926340c10f1992611e2a9216908590600401612eff565b602060405180830381600087803b158015611e4457600080fd5b505af1158015611e58573d6000803e3d6000fd5b505050506040513d601f19601f82011682018060405250810190611e7c9190612aab565b506067548e546001600160a01b03918216916340c10f199116611e9f8785611ae5565b6040518363ffffffff1660e01b8152600401611ebc929190612eff565b602060405180830381600087803b158015611ed657600080fd5b505af1158015611eea573d6000803e3d6000fd5b505050506040513d601f19601f82011682018060405250810190611f0e9190612aab565b505b6120d1565b8d600501548e600701541015611f625760078e015460058f0154611f3891611ae5565b9550611f50670de0b6b3a76400006108518886611ad9565b600a8f0154909550611df29086612259565b60058e015460078f0154611f7591611ae5565b9550611f8d670de0b6b3a76400006108518886611ad9565b94508d600a0154851115611fa457600093506120d1565b600a8e0154611fb39086611ae5565b6067546068546040516340c10f1960e01b81529296506001600160a01b03918216926340c10f1992611feb9216908590600401612eff565b602060405180830381600087803b15801561200557600080fd5b505af1158015612019573d6000803e3d6000fd5b505050506040513d601f19601f8201168201806040525081019061203d9190612aab565b506067548e546001600160a01b03918216916340c10f1991166120608785611ae5565b6040518363ffffffff1660e01b815260040161207d929190612eff565b602060405180830381600087803b15801561209757600080fd5b505af11580156120ab573d6000803e3d6000fd5b505050506040513d601f19601f820116820180604052508101906120cf9190612aab565b505b606860009054906101000a90046001600160a01b03166001600160a01b031663d10c06a26040518163ffffffff1660e01b8152600401602060405180830381600087803b15801561212157600080fd5b505af1158015612135573d6000803e3d6000fd5b505050506040513d601f19601f820116820180604052508101906121599190612aab565b5060038e018d905560078e0189905560088e018b905561217c8c606d606c61236b565b336000908152606f60209081526040808320606e9092529091206121a1918e9161236b565b336000818152607060209081526040822080546001818101835591845291909220018e90556121d3916105d8906112e7565b3360009081526071602090815260408083209f83529e90529c909c209b909b555060019d9c50505050505050505050505050565b603380546001600160a01b038381166001600160a01b0319831681179093556040519116919082907f8be0079c531659141344cd1fd0a4f28419497f9722a3daafe3b4186f6b6457e090600090a35050565b600061093f828461341f565b6122bd846323b872dd60e01b85858560405160240161228693929190612edb565b60408051601f198184030181529190526020810180516001600160e01b03166001600160e01b031990931692909217909152612448565b50505050565b6122e28363a9059cbb60e01b8484604051602401612286929190612eff565b505050565b600054610100900460ff1680612300575060005460ff16155b61231c5760405162461bcd60e51b815260040161062890613125565b600054610100900460ff16158015612347576000805460ff1961ff0019909116610100171660011790555b61234f6124d7565b61235761254a565b8015611889576000805461ff001916905550565b6000838152602083905260408120548254909190839061238c906001611ae5565b815481106123aa57634e487b7160e01b600052603260045260246000fd5b906000526020600020015490508184600083815260200190815260200160002081905550808383815481106123ef57634e487b7160e01b600052603260045260246000fd5b6000918252602080832090910192909255868152908590526040812055825483908061242b57634e487b7160e01b600052603160045260246000fd5b600190038181906000526020600020016000905590555050505050565b600061249d826040518060400160405280602081526020017f5361666545524332303a206c6f772d6c6576656c2063616c6c206661696c6564815250856001600160a01b03166125ba9092919063ffffffff16565b8051909150156122e257808060200190518101906124bb9190612aab565b6122e25760405162461bcd60e51b8152600401610628906132b5565b600054610100900460ff16806124f0575060005460ff16155b61250c5760405162461bcd60e51b815260040161062890613125565b600054610100900460ff16158015612357576000805460ff1961ff0019909116610100171660011790558015611889576000805461ff001916905550565b600054610100900460ff1680612563575060005460ff16155b61257f5760405162461bcd60e51b815260040161062890613125565b600054610100900460ff161580156125aa576000805460ff1961ff0019909116610100171660011790555b6123576125b5611af1565b612207565b60606125c984846000856125d1565b949350505050565b6060824710156125f35760405162461bcd60e51b8152600401610628906130df565b6125fc85612691565b6126185760405162461bcd60e51b815260040161062890613215565b600080866001600160a01b031685876040516126349190612eab565b60006040518083038185875af1925050503d8060008114612671576040519150601f19603f3d011682016040523d82523d6000602084013e612676565b606091505b5091509150612686828286612697565b979650505050505050565b3b151590565b606083156126a657508161093f565b8251156126b65782518084602001fd5b8160405162461bcd60e51b81526004016106289190612fa0565b60405180610160016040528060006001600160a01b03168152602001600081526020016060815260200160008152602001600081526020016000815260200160008152602001600081526020016000815260200160008152602001600081525090565b82805461273f906134d0565b90600052602060002090601f01602090048101928261276157600085556127a7565b82601f1061277a57805160ff19168380011785556127a7565b828001600101855582156127a7579182015b828111156127a757825182559160200191906001019061278c565b506127b39291506127b7565b5090565b5b808211156127b357600081556001016127b8565b8035610ca781613552565b600082601f8301126127e7578081fd5b813560206127fc6127f7836133fb565b6133d1565b82815281810190858301855b858110156128315761281f898684358b01016128f8565b84529284019290840190600101612808565b5090979650505050505050565b600082601f83011261284e578081fd5b8135602061285e6127f7836133fb565b82815281810190858301855b8581101561283157612881898684358b01016128f8565b8452928401929084019060010161286a565b600082601f8301126128a3578081fd5b813560206128b36127f7836133fb565b82815281810190858301838502870184018810156128cf578586fd5b855b85811015612831578135845292840192908401906001016128d1565b8035610ca781613567565b600082601f830112612908578081fd5b813567ffffffffffffffff8111156129225761292261353c565b612935601f8201601f19166020016133d1565b818152846020838601011115612949578283fd5b816020850160208301379081016020019190915292915050565b600060208284031215612974578081fd5b813561093f81613552565b60008060408385031215612991578081fd5b823561299c81613552565b915060208301356129ac81613567565b809150509250929050565b600080600080608085870312156129cc578182fd5b84356129d781613552565b935060208501356129e781613552565b925060408501356129f781613552565b91506060850135612a0781613552565b939692955090935050565b60008060408385031215612a24578182fd5b8235612a2f81613552565b946020939093013593505050565b600080600060608486031215612a51578283fd5b8335612a5c81613552565b95602085013595506040909401359392505050565b60008060008060808587031215612a86578182fd5b8435612a9181613552565b966020860135965060408601359560600135945092505050565b600060208284031215612abc578081fd5b815161093f81613567565b60008060008060008060c08789031215612adf578384fd5b612ae8876128ed565b9550602087013567ffffffffffffffff80821115612b04578586fd5b612b108a838b01612893565b96506040890135915080821115612b25578586fd5b612b318a838b01612893565b95506060890135915080821115612b46578384fd5b612b528a838b0161283e565b94506080890135915080821115612b67578384fd5b612b738a838b01612893565b935060a0890135915080821115612b88578283fd5b50612b9589828a016127d7565b9150509295509295509295565b60008060008060008060c08789031215612bba578384fd5b8635612bc581613567565b95506020870135945060408701359350606087013567ffffffffffffffff80821115612bef578384fd5b612bfb8a838b016128f8565b94506080890135935060a0890135915080821115612c17578283fd5b50612b9589828a016128f8565b600080600080600080600060e0888a031215612c3e578485fd5b8735612c4981613567565b96506020880135955060408801359450606088013567ffffffffffffffff80821115612c73578283fd5b612c7f8b838c016128f8565b955060808a0135945060a08a0135915080821115612c9b578283fd5b50612ca88a828b016128f8565b92505060c0880135905092959891949750929550565b60008060008060008060008060006101208a8c031215612cdc578283fd5b8935612ce781613567565b985060208a0135975060408a0135965060608a0135955060808a0135945060a08a013567ffffffffffffffff80821115612d1f578485fd5b612d2b8d838e016128f8565b955060c08c0135945060e08c013593506101008c0135915080821115612d4f578283fd5b50612d5c8c828d016128f8565b9150509295985092959850929598565b600060208284031215612d7d578081fd5b5035919050565b600060208284031215612d95578081fd5b5051919050565b6000806000806000806000806000806000806101808d8f031215612dbe578586fd5b8c359b50612dce60208e016127cc565b9a5060408d0135995067ffffffffffffffff60608e01351115612def578586fd5b612dff8e60608f01358f016128f8565b9b9e9a9d50989b60808101359a60a08201359a5060c0820135995060e08201359850610100820135975061012082013596506101408201359550610160909101359350915050565b600080600060608486031215612e5b578081fd5b505081359360208301359350604090920135919050565b6001600160a01b03169052565b60008151808452612e9781602086016020860161348d565b601f01601f19169290920160200192915050565b60008251612ebd81846020870161348d565b9190910192915050565b6001600160a01b0391909116815260200190565b6001600160a01b039384168152919092166020820152604081019190915260600190565b6001600160a01b03929092168252602082015260400190565b6020808252825182820181905260009190848201906040850190845b81811015612f5057835183529284019291840191600101612f34565b50909695505050505050565b901515815260200190565b6000861515825285602083015284604083015260a06060830152612f8e60a0830185612e7f565b8281036080840152610d5a8185612e7f565b60006020825261093f6020830184612e7f565b6020808252601490820152731bdc99195c88191bd95cc81b9bdd08195e1a5cdd60621b604082015260600190565b6020808252600e908201526d1b585c99da5b881b9bc819dbdbd960921b604082015260600190565b60208082526026908201527f4f776e61626c653a206e6577206f776e657220697320746865207a65726f206160408201526564647265737360d01b606082015260800190565b6020808252600a908201526937b930b1b6329032b93960b11b604082015260600190565b60208082526024908201527f6578656375746f723a2063616c6c6572206973206e6f742074686520657865636040820152633aba37b960e11b606082015260800190565b6020808252600e908201526d2737903634b8bab4b230ba34b7b760911b604082015260600190565b60208082526026908201527f416464726573733a20696e73756666696369656e742062616c616e636520666f6040820152651c8818d85b1b60d21b606082015260800190565b6020808252602e908201527f496e697469616c697a61626c653a20636f6e747261637420697320616c72656160408201526d191e481a5b9a5d1a585b1a5e995960921b606082015260800190565b60208082526023908201527f546865207472616e73616374696f6e20616d6f756e7420697320746f6f20736d604082015262185b1b60ea1b606082015260800190565b60208082526010908201526f155cd95c881a5cc818985b9adc9d5c1d60821b604082015260600190565b6020808252818101527f4f776e61626c653a2063616c6c6572206973206e6f7420746865206f776e6572604082015260600190565b6020808252601d908201527f416464726573733a2063616c6c20746f206e6f6e2d636f6e7472616374000000604082015260600190565b6020808252600a90820152693632b733ba341032b93960b11b604082015260600190565b6020808252600890820152673ab9b2b91032b93960c11b604082015260600190565b60208082526009908201526839ba30ba329032b93960b91b604082015260600190565b6020808252602a908201527f5361666545524332303a204552433230206f7065726174696f6e20646964206e6040820152691bdd081cdd58d8d9595960b21b606082015260800190565b6020808252600b908201526a185c9c881b9bc819dbdbd960aa1b604082015260600190565b600060208252613338602083018451612e72565b60208301516040830152604083015161016080606085015261335e610180850183612e7f565b915060608501516080850152608085015160a085015260a085015160c085015260c085015160e085015260e0850151610100818187015280870151915050610120818187015280870151915050610140818187015280870151838701525050508091505092915050565b90815260200190565b60405181810167ffffffffffffffff811182821017156133f3576133f361353c565b604052919050565b600067ffffffffffffffff8211156134155761341561353c565b5060209081020190565b6000821982111561343257613432613526565b500190565b60008261345257634e487b7160e01b81526012600452602481fd5b500490565b600081600019048311821515161561347157613471613526565b500290565b60008282101561348857613488613526565b500390565b60005b838110156134a8578181015183820152602001613490565b838111156122bd5750506000910152565b6000816134c8576134c8613526565b506000190190565b6002810460018216806134e457607f821691505b6020821081141561350557634e487b7160e01b600052602260045260246000fd5b50919050565b600060001982141561351f5761351f613526565b5060010190565b634e487b7160e01b600052601160045260246000fd5b634e487b7160e01b600052604160045260246000fd5b6001600160a01b038116811461188957600080fd5b801515811461188957600080fdfea2646970667358221220f93dc0d6a7ec32a4400181d269754e9ce11baad597efc76b8594b468f71a4e5764736f6c63430008000033",
					"opcodes": "PUSH1 0x80 PUSH1 0x40 MSTORE CALLVALUE DUP1 ISZERO PUSH2 0x10 JUMPI PUSH1 0x0 DUP1 REVERT JUMPDEST POP PUSH2 0x35AB DUP1 PUSH2 0x20 PUSH1 0x0 CODECOPY PUSH1 0x0 RETURN INVALID PUSH1 0x80 PUSH1 0x40 MSTORE CALLVALUE DUP1 ISZERO PUSH2 0x10 JUMPI PUSH1 0x0 DUP1 REVERT JUMPDEST POP PUSH1 0x4 CALLDATASIZE LT PUSH2 0x211 JUMPI PUSH1 0x0 CALLDATALOAD PUSH1 0xE0 SHR DUP1 PUSH4 0x7DC0D1D0 GT PUSH2 0x125 JUMPI DUP1 PUSH4 0xDB4A5AA9 GT PUSH2 0xAD JUMPI DUP1 PUSH4 0xF14053AD GT PUSH2 0x7C JUMPI DUP1 PUSH4 0xF14053AD EQ PUSH2 0x439 JUMPI DUP1 PUSH4 0xF2FDE38B EQ PUSH2 0x441 JUMPI DUP1 PUSH4 0xF7AB69FD EQ PUSH2 0x454 JUMPI DUP1 PUSH4 0xF8C8765E EQ PUSH2 0x45C JUMPI DUP1 PUSH4 0xFC234D06 EQ PUSH2 0x46F JUMPI PUSH2 0x211 JUMP JUMPDEST DUP1 PUSH4 0xDB4A5AA9 EQ PUSH2 0x3ED JUMPI DUP1 PUSH4 0xE4E95520 EQ PUSH2 0x400 JUMPI DUP1 PUSH4 0xEC4C4F34 EQ PUSH2 0x413 JUMPI DUP1 PUSH4 0xF0C765E4 EQ PUSH2 0x426 JUMPI PUSH2 0x211 JUMP JUMPDEST DUP1 PUSH4 0xA8ECB028 GT PUSH2 0xF4 JUMPI DUP1 PUSH4 0xA8ECB028 EQ PUSH2 0x399 JUMPI DUP1 PUSH4 0xAAF5EB68 EQ PUSH2 0x3AC JUMPI DUP1 PUSH4 0xAECF77B1 EQ PUSH2 0x3B4 JUMPI DUP1 PUSH4 0xC2EC527D EQ PUSH2 0x3C7 JUMPI DUP1 PUSH4 0xD8C5DB4F EQ PUSH2 0x3DA JUMPI PUSH2 0x211 JUMP JUMPDEST DUP1 PUSH4 0x7DC0D1D0 EQ PUSH2 0x36E JUMPI DUP1 PUSH4 0x7FD6F15C EQ PUSH2 0x376 JUMPI DUP1 PUSH4 0x8DA5CB5B EQ PUSH2 0x37E JUMPI DUP1 PUSH4 0xA0AD12E2 EQ PUSH2 0x386 JUMPI PUSH2 0x211 JUMP JUMPDEST DUP1 PUSH4 0x43B1F3CB GT PUSH2 0x1A8 JUMPI DUP1 PUSH4 0x6C19E783 GT PUSH2 0x177 JUMPI DUP1 PUSH4 0x6C19E783 EQ PUSH2 0x318 JUMPI DUP1 PUSH4 0x6E812437 EQ PUSH2 0x32B JUMPI DUP1 PUSH4 0x715018A6 EQ PUSH2 0x33E JUMPI DUP1 PUSH4 0x7BE3A1A1 EQ PUSH2 0x348 JUMPI DUP1 PUSH4 0x7CE3489B EQ PUSH2 0x35B JUMPI PUSH2 0x211 JUMP JUMPDEST DUP1 PUSH4 0x43B1F3CB EQ PUSH2 0x2BF JUMPI DUP1 PUSH4 0x48C7E528 EQ PUSH2 0x2D2 JUMPI DUP1 PUSH4 0x4B989CE3 EQ PUSH2 0x2E5 JUMPI DUP1 PUSH4 0x6AB34A4A EQ PUSH2 0x2F8 JUMPI PUSH2 0x211 JUMP JUMPDEST DUP1 PUSH4 0x238AC933 GT PUSH2 0x1E4 JUMPI DUP1 PUSH4 0x238AC933 EQ PUSH2 0x294 JUMPI DUP1 PUSH4 0x2705C55B EQ PUSH2 0x29C JUMPI DUP1 PUSH4 0x3011D3D5 EQ PUSH2 0x2AF JUMPI DUP1 PUSH4 0x323B9B2B EQ PUSH2 0x2B7 JUMPI PUSH2 0x211 JUMP JUMPDEST DUP1 PUSH4 0x80270A8 EQ PUSH2 0x216 JUMPI DUP1 PUSH4 0xF58D242 EQ PUSH2 0x23F JUMPI DUP1 PUSH4 0x1E1BFF3F EQ PUSH2 0x25F JUMPI DUP1 PUSH4 0x1E64610C EQ PUSH2 0x27F JUMPI JUMPDEST PUSH1 0x0 DUP1 REVERT JUMPDEST PUSH2 0x229 PUSH2 0x224 CALLDATASIZE PUSH1 0x4 PUSH2 0x2A71 JUMP JUMPDEST PUSH2 0x482 JUMP JUMPDEST PUSH1 0x40 MLOAD PUSH2 0x236 SWAP2 SWAP1 PUSH2 0x2F18 JUMP JUMPDEST PUSH1 0x40 MLOAD DUP1 SWAP2 SUB SWAP1 RETURN JUMPDEST PUSH2 0x252 PUSH2 0x24D CALLDATASIZE PUSH1 0x4 PUSH2 0x2D6C JUMP JUMPDEST PUSH2 0x746 JUMP JUMPDEST PUSH1 0x40 MLOAD PUSH2 0x236 SWAP2 SWAP1 PUSH2 0x33C8 JUMP JUMPDEST PUSH2 0x272 PUSH2 0x26D CALLDATASIZE PUSH1 0x4 PUSH2 0x297F JUMP JUMPDEST PUSH2 0x767 JUMP JUMPDEST PUSH1 0x40 MLOAD PUSH2 0x236 SWAP2 SWAP1 PUSH2 0x2F5C JUMP JUMPDEST PUSH2 0x287 PUSH2 0x7D7 JUMP JUMPDEST PUSH1 0x40 MLOAD PUSH2 0x236 SWAP2 SWAP1 PUSH2 0x2EC7 JUMP JUMPDEST PUSH2 0x287 PUSH2 0x7E6 JUMP JUMPDEST PUSH2 0x272 PUSH2 0x2AA CALLDATASIZE PUSH1 0x4 PUSH2 0x2E47 JUMP JUMPDEST PUSH2 0x7F5 JUMP JUMPDEST PUSH2 0x287 PUSH2 0x946 JUMP JUMPDEST PUSH2 0x252 PUSH2 0x955 JUMP JUMPDEST PUSH2 0x252 PUSH2 0x2CD CALLDATASIZE PUSH1 0x4 PUSH2 0x2D6C JUMP JUMPDEST PUSH2 0x95B JUMP JUMPDEST PUSH2 0x272 PUSH2 0x2E0 CALLDATASIZE PUSH1 0x4 PUSH2 0x2963 JUMP JUMPDEST PUSH2 0x96D JUMP JUMPDEST PUSH2 0x272 PUSH2 0x2F3 CALLDATASIZE PUSH1 0x4 PUSH2 0x2AC7 JUMP JUMPDEST PUSH2 0x982 JUMP JUMPDEST PUSH2 0x30B PUSH2 0x306 CALLDATASIZE PUSH1 0x4 PUSH2 0x2D6C JUMP JUMPDEST PUSH2 0xB7F JUMP JUMPDEST PUSH1 0x40 MLOAD PUSH2 0x236 SWAP2 SWAP1 PUSH2 0x3324 JUMP JUMPDEST PUSH2 0x272 PUSH2 0x326 CALLDATASIZE PUSH1 0x4 PUSH2 0x2963 JUMP JUMPDEST PUSH2 0xCAC JUMP JUMPDEST PUSH2 0x272 PUSH2 0x339 CALLDATASIZE PUSH1 0x4 PUSH2 0x2BA2 JUMP JUMPDEST PUSH2 0xD12 JUMP JUMPDEST PUSH2 0x346 PUSH2 0xD66 JUMP JUMPDEST STOP JUMPDEST PUSH2 0x252 PUSH2 0x356 CALLDATASIZE PUSH1 0x4 PUSH2 0x2A12 JUMP JUMPDEST PUSH2 0xDB1 JUMP JUMPDEST PUSH2 0x272 PUSH2 0x369 CALLDATASIZE PUSH1 0x4 PUSH2 0x2D6C JUMP JUMPDEST PUSH2 0xDCE JUMP JUMPDEST PUSH2 0x287 PUSH2 0xE18 JUMP JUMPDEST PUSH2 0x252 PUSH2 0xE27 JUMP JUMPDEST PUSH2 0x287 PUSH2 0xE2D JUMP JUMPDEST PUSH2 0x272 PUSH2 0x394 CALLDATASIZE PUSH1 0x4 PUSH2 0x2BA2 JUMP JUMPDEST PUSH2 0xE3C JUMP JUMPDEST PUSH2 0x272 PUSH2 0x3A7 CALLDATASIZE PUSH1 0x4 PUSH2 0x2C24 JUMP JUMPDEST PUSH2 0xE8A JUMP JUMPDEST PUSH2 0x252 PUSH2 0x12E1 JUMP JUMPDEST PUSH2 0x252 PUSH2 0x3C2 CALLDATASIZE PUSH1 0x4 PUSH2 0x2963 JUMP JUMPDEST PUSH2 0x12E7 JUMP JUMPDEST PUSH2 0x252 PUSH2 0x3D5 CALLDATASIZE PUSH1 0x4 PUSH2 0x2A12 JUMP JUMPDEST PUSH2 0x1302 JUMP JUMPDEST PUSH2 0x346 PUSH2 0x3E8 CALLDATASIZE PUSH1 0x4 PUSH2 0x2A3D JUMP JUMPDEST PUSH2 0x1333 JUMP JUMPDEST PUSH2 0x272 PUSH2 0x3FB CALLDATASIZE PUSH1 0x4 PUSH2 0x2CBE JUMP JUMPDEST PUSH2 0x13A1 JUMP JUMPDEST PUSH2 0x252 PUSH2 0x40E CALLDATASIZE PUSH1 0x4 PUSH2 0x2963 JUMP JUMPDEST PUSH2 0x17C1 JUMP JUMPDEST PUSH2 0x252 PUSH2 0x421 CALLDATASIZE PUSH1 0x4 PUSH2 0x2A12 JUMP JUMPDEST PUSH2 0x17DC JUMP JUMPDEST PUSH2 0x252 PUSH2 0x434 CALLDATASIZE PUSH1 0x4 PUSH2 0x2A12 JUMP JUMPDEST PUSH2 0x17F8 JUMP JUMPDEST PUSH2 0x252 PUSH2 0x1815 JUMP JUMPDEST PUSH2 0x346 PUSH2 0x44F CALLDATASIZE PUSH1 0x4 PUSH2 0x2963 JUMP JUMPDEST PUSH2 0x181B JUMP JUMPDEST PUSH2 0x252 PUSH2 0x188C JUMP JUMPDEST PUSH2 0x346 PUSH2 0x46A CALLDATASIZE PUSH1 0x4 PUSH2 0x29B7 JUMP JUMPDEST PUSH2 0x1892 JUMP JUMPDEST PUSH2 0x272 PUSH2 0x47D CALLDATASIZE PUSH1 0x4 PUSH2 0x2D9C JUMP JUMPDEST PUSH2 0x1974 JUMP JUMPDEST PUSH1 0x60 PUSH1 0x0 DUP1 DUP3 DUP7 PUSH2 0x4E5 JUMPI PUSH1 0x6C DUP1 SLOAD DUP1 PUSH1 0x20 MUL PUSH1 0x20 ADD PUSH1 0x40 MLOAD SWAP1 DUP2 ADD PUSH1 0x40 MSTORE DUP1 SWAP3 SWAP2 SWAP1 DUP2 DUP2 MSTORE PUSH1 0x20 ADD DUP3 DUP1 SLOAD DUP1 ISZERO PUSH2 0x4D9 JUMPI PUSH1 0x20 MUL DUP3 ADD SWAP2 SWAP1 PUSH1 0x0 MSTORE PUSH1 0x20 PUSH1 0x0 KECCAK256 SWAP1 JUMPDEST DUP2 SLOAD DUP2 MSTORE PUSH1 0x20 ADD SWAP1 PUSH1 0x1 ADD SWAP1 DUP1 DUP4 GT PUSH2 0x4C5 JUMPI JUMPDEST POP POP POP POP POP SWAP1 POP PUSH2 0x5C5 JUMP JUMPDEST DUP7 PUSH1 0x1 EQ ISZERO PUSH2 0x556 JUMPI PUSH1 0x1 PUSH1 0x1 PUSH1 0xA0 SHL SUB DUP9 AND PUSH1 0x0 SWAP1 DUP2 MSTORE PUSH1 0x6E PUSH1 0x20 SWAP1 DUP2 MSTORE PUSH1 0x40 SWAP2 DUP3 SWAP1 KECCAK256 DUP1 SLOAD DUP4 MLOAD DUP2 DUP5 MUL DUP2 ADD DUP5 ADD SWAP1 SWAP5 MSTORE DUP1 DUP5 MSTORE SWAP1 SWAP2 DUP4 ADD DUP3 DUP3 DUP1 ISZERO PUSH2 0x4D9 JUMPI PUSH1 0x20 MUL DUP3 ADD SWAP2 SWAP1 PUSH1 0x0 MSTORE PUSH1 0x20 PUSH1 0x0 KECCAK256 SWAP1 DUP2 SLOAD DUP2 MSTORE PUSH1 0x20 ADD SWAP1 PUSH1 0x1 ADD SWAP1 DUP1 DUP4 GT PUSH2 0x4C5 JUMPI POP POP POP POP POP SWAP1 POP PUSH2 0x5C5 JUMP JUMPDEST DUP7 PUSH1 0x2 EQ ISZERO PUSH2 0x5C5 JUMPI PUSH1 0x1 PUSH1 0x1 PUSH1 0xA0 SHL SUB DUP9 AND PUSH1 0x0 SWAP1 DUP2 MSTORE PUSH1 0x70 PUSH1 0x20 SWAP1 DUP2 MSTORE PUSH1 0x40 SWAP2 DUP3 SWAP1 KECCAK256 DUP1 SLOAD DUP4 MLOAD DUP2 DUP5 MUL DUP2 ADD DUP5 ADD SWAP1 SWAP5 MSTORE DUP1 DUP5 MSTORE SWAP1 SWAP2 DUP4 ADD DUP3 DUP3 DUP1 ISZERO PUSH2 0x5BD JUMPI PUSH1 0x20 MUL DUP3 ADD SWAP2 SWAP1 PUSH1 0x0 MSTORE PUSH1 0x20 PUSH1 0x0 KECCAK256 SWAP1 JUMPDEST DUP2 SLOAD DUP2 MSTORE PUSH1 0x20 ADD SWAP1 PUSH1 0x1 ADD SWAP1 DUP1 DUP4 GT PUSH2 0x5A9 JUMPI JUMPDEST POP POP POP POP POP SWAP1 POP JUMPDEST PUSH1 0x0 PUSH2 0x5E6 PUSH2 0x5DE DUP9 PUSH2 0x5D8 DUP2 DUP11 PUSH2 0x1AD9 JUMP JUMPDEST SWAP1 PUSH2 0x1AE5 JUMP JUMPDEST DUP4 MLOAD SWAP1 PUSH2 0x1AE5 JUMP JUMPDEST SWAP1 POP DUP7 DUP2 LT PUSH2 0x5F7 JUMPI DUP7 SWAP3 POP PUSH2 0x5FB JUMP JUMPDEST DUP1 SWAP3 POP JUMPDEST DUP2 MLOAD PUSH2 0x60B DUP9 PUSH2 0x5D8 DUP2 DUP11 PUSH2 0x1AD9 JUMP JUMPDEST LT PUSH2 0x631 JUMPI PUSH1 0x40 MLOAD PUSH3 0x461BCD PUSH1 0xE5 SHL DUP2 MSTORE PUSH1 0x4 ADD PUSH2 0x628 SWAP1 PUSH2 0x324C JUMP JUMPDEST PUSH1 0x40 MLOAD DUP1 SWAP2 SUB SWAP1 REVERT JUMPDEST DUP3 PUSH2 0x64E JUMPI PUSH1 0x40 MLOAD PUSH3 0x461BCD PUSH1 0xE5 SHL DUP2 MSTORE PUSH1 0x4 ADD PUSH2 0x628 SWAP1 PUSH2 0x32FF JUMP JUMPDEST PUSH1 0x0 DUP4 PUSH8 0xFFFFFFFFFFFFFFFF DUP2 GT ISZERO PUSH2 0x677 JUMPI PUSH4 0x4E487B71 PUSH1 0xE0 SHL PUSH1 0x0 MSTORE PUSH1 0x41 PUSH1 0x4 MSTORE PUSH1 0x24 PUSH1 0x0 REVERT JUMPDEST PUSH1 0x40 MLOAD SWAP1 DUP1 DUP3 MSTORE DUP1 PUSH1 0x20 MUL PUSH1 0x20 ADD DUP3 ADD PUSH1 0x40 MSTORE DUP1 ISZERO PUSH2 0x6A0 JUMPI DUP2 PUSH1 0x20 ADD PUSH1 0x20 DUP3 MUL DUP1 CALLDATASIZE DUP4 CALLDATACOPY ADD SWAP1 POP JUMPDEST POP SWAP1 POP PUSH1 0x0 PUSH2 0x6B0 DUP4 PUSH1 0x1 PUSH2 0x1AE5 JUMP JUMPDEST SWAP1 POP JUMPDEST DUP5 DUP7 LT ISZERO PUSH2 0x738 JUMPI DUP4 DUP2 DUP2 MLOAD DUP2 LT PUSH2 0x6DB JUMPI PUSH4 0x4E487B71 PUSH1 0xE0 SHL PUSH1 0x0 MSTORE PUSH1 0x32 PUSH1 0x4 MSTORE PUSH1 0x24 PUSH1 0x0 REVERT JUMPDEST PUSH1 0x20 MUL PUSH1 0x20 ADD ADD MLOAD DUP3 DUP8 DUP2 MLOAD DUP2 LT PUSH2 0x703 JUMPI PUSH4 0x4E487B71 PUSH1 0xE0 SHL PUSH1 0x0 MSTORE PUSH1 0x32 PUSH1 0x4 MSTORE PUSH1 0x24 PUSH1 0x0 REVERT JUMPDEST PUSH1 0x20 SWAP1 DUP2 MUL SWAP2 SWAP1 SWAP2 ADD ADD MSTORE DUP1 PUSH2 0x718 JUMPI PUSH2 0x738 JUMP JUMPDEST DUP6 PUSH2 0x722 DUP2 PUSH2 0x350B JUMP JUMPDEST SWAP7 POP POP DUP1 DUP1 PUSH2 0x730 SWAP1 PUSH2 0x34B9 JUMP JUMPDEST SWAP2 POP POP PUSH2 0x6B3 JUMP JUMPDEST POP SWAP10 SWAP9 POP POP POP POP POP POP POP POP POP JUMP JUMPDEST PUSH1 0x6C DUP2 DUP2 SLOAD DUP2 LT PUSH2 0x756 JUMPI PUSH1 0x0 DUP1 REVERT JUMPDEST PUSH1 0x0 SWAP2 DUP3 MSTORE PUSH1 0x20 SWAP1 SWAP2 KECCAK256 ADD SLOAD SWAP1 POP DUP2 JUMP JUMPDEST PUSH1 0x0 PUSH2 0x771 PUSH2 0x1AF1 JUMP JUMPDEST PUSH1 0x1 PUSH1 0x1 PUSH1 0xA0 SHL SUB AND PUSH2 0x782 PUSH2 0xE2D JUMP JUMPDEST PUSH1 0x1 PUSH1 0x1 PUSH1 0xA0 SHL SUB AND EQ PUSH2 0x7A8 JUMPI PUSH1 0x40 MLOAD PUSH3 0x461BCD PUSH1 0xE5 SHL DUP2 MSTORE PUSH1 0x4 ADD PUSH2 0x628 SWAP1 PUSH2 0x31E0 JUMP JUMPDEST POP PUSH1 0x1 PUSH1 0x1 PUSH1 0xA0 SHL SUB DUP3 AND PUSH1 0x0 SWAP1 DUP2 MSTORE PUSH1 0x65 PUSH1 0x20 MSTORE PUSH1 0x40 SWAP1 KECCAK256 DUP1 SLOAD DUP3 ISZERO ISZERO PUSH1 0xFF NOT SWAP1 SWAP2 AND OR SWAP1 SSTORE PUSH1 0x1 SWAP3 SWAP2 POP POP JUMP JUMPDEST PUSH1 0x68 SLOAD PUSH1 0x1 PUSH1 0x1 PUSH1 0xA0 SHL SUB AND DUP2 JUMP JUMPDEST PUSH1 0x66 SLOAD PUSH1 0x1 PUSH1 0x1 PUSH1 0xA0 SHL SUB AND DUP2 JUMP JUMPDEST PUSH1 0x0 DUP4 DUP2 MSTORE PUSH1 0x6A PUSH1 0x20 MSTORE PUSH1 0x40 DUP2 KECCAK256 PUSH1 0x9 DUP2 ADD SLOAD PUSH1 0x4 DUP3 ADD SLOAD DUP4 SWAP2 DUP3 SWAP2 DUP3 SWAP2 SWAP1 DUP9 SWAP1 PUSH1 0x1 EQ ISZERO PUSH2 0x8B1 JUMPI DUP6 PUSH1 0x5 ADD SLOAD DUP2 LT ISZERO PUSH2 0x8AC JUMPI PUSH1 0x5 DUP7 ADD SLOAD PUSH2 0x839 SWAP1 DUP3 PUSH2 0x1AE5 JUMP JUMPDEST SWAP5 POP PUSH2 0x857 PUSH8 0xDE0B6B3A7640000 PUSH2 0x851 DUP8 DUP6 PUSH2 0x1AD9 JUMP JUMPDEST SWAP1 PUSH2 0x1AF5 JUMP JUMPDEST SWAP4 POP PUSH2 0x88A PUSH8 0xDE0B6B3A7640000 PUSH2 0x851 PUSH1 0x73 SLOAD PUSH2 0x851 PUSH1 0x72 SLOAD PUSH2 0x884 DUP8 DUP10 PUSH2 0x1AD9 SWAP1 SWAP2 SWAP1 PUSH4 0xFFFFFFFF AND JUMP JUMPDEST SWAP1 PUSH2 0x1AD9 JUMP JUMPDEST SWAP3 POP PUSH2 0x896 DUP4 DUP6 PUSH2 0x341F JUMP JUMPDEST DUP9 LT ISZERO PUSH2 0x8AC JUMPI PUSH1 0x0 SWAP7 POP POP POP POP POP POP POP PUSH2 0x93F JUMP JUMPDEST PUSH2 0x934 JUMP JUMPDEST DUP6 PUSH1 0x5 ADD SLOAD DUP2 GT ISZERO PUSH2 0x934 JUMPI PUSH1 0x5 DUP7 ADD SLOAD PUSH2 0x8CD SWAP1 DUP3 SWAP1 PUSH2 0x1AE5 JUMP JUMPDEST SWAP5 POP PUSH2 0x8E5 PUSH8 0xDE0B6B3A7640000 PUSH2 0x851 DUP8 DUP6 PUSH2 0x1AD9 JUMP JUMPDEST SWAP4 POP PUSH2 0x912 PUSH8 0xDE0B6B3A7640000 PUSH2 0x851 PUSH1 0x73 SLOAD PUSH2 0x851 PUSH1 0x72 SLOAD PUSH2 0x884 DUP8 DUP10 PUSH2 0x1AD9 SWAP1 SWAP2 SWAP1 PUSH4 0xFFFFFFFF AND JUMP JUMPDEST SWAP3 POP PUSH2 0x91E DUP4 DUP6 PUSH2 0x341F JUMP JUMPDEST DUP9 LT ISZERO PUSH2 0x934 JUMPI PUSH1 0x0 SWAP7 POP POP POP POP POP POP POP PUSH2 0x93F JUMP JUMPDEST PUSH1 0x1 SWAP7 POP POP POP POP POP POP POP JUMPDEST SWAP4 SWAP3 POP POP POP JUMP JUMPDEST PUSH1 0x67 SLOAD PUSH1 0x1 PUSH1 0x1 PUSH1 0xA0 SHL SUB AND DUP2 JUMP JUMPDEST PUSH1 0x6C SLOAD SWAP1 JUMP JUMPDEST PUSH1 0x6D PUSH1 0x20 MSTORE PUSH1 0x0 SWAP1 DUP2 MSTORE PUSH1 0x40 SWAP1 KECCAK256 SLOAD DUP2 JUMP JUMPDEST PUSH1 0x65 PUSH1 0x20 MSTORE PUSH1 0x0 SWAP1 DUP2 MSTORE PUSH1 0x40 SWAP1 KECCAK256 SLOAD PUSH1 0xFF AND DUP2 JUMP JUMPDEST CALLER PUSH1 0x0 SWAP1 DUP2 MSTORE PUSH1 0x65 PUSH1 0x20 MSTORE PUSH1 0x40 DUP2 KECCAK256 SLOAD PUSH1 0xFF AND PUSH2 0x9B1 JUMPI PUSH1 0x40 MLOAD PUSH3 0x461BCD PUSH1 0xE5 SHL DUP2 MSTORE PUSH1 0x4 ADD PUSH2 0x628 SWAP1 PUSH2 0x3073 JUMP JUMPDEST PUSH1 0x0 DUP1 JUMPDEST DUP8 MLOAD DUP2 LT ISZERO PUSH2 0xB53 JUMPI PUSH1 0x0 PUSH1 0x6A PUSH1 0x0 DUP11 DUP5 DUP2 MLOAD DUP2 LT PUSH2 0x9E4 JUMPI PUSH4 0x4E487B71 PUSH1 0xE0 SHL PUSH1 0x0 MSTORE PUSH1 0x32 PUSH1 0x4 MSTORE PUSH1 0x24 PUSH1 0x0 REVERT JUMPDEST PUSH1 0x20 MUL PUSH1 0x20 ADD ADD MLOAD DUP2 MSTORE PUSH1 0x20 ADD SWAP1 DUP2 MSTORE PUSH1 0x20 ADD PUSH1 0x0 KECCAK256 SWAP1 POP PUSH2 0xA59 DUP10 DUP4 DUP2 MLOAD DUP2 LT PUSH2 0xA1F JUMPI PUSH4 0x4E487B71 PUSH1 0xE0 SHL PUSH1 0x0 MSTORE PUSH1 0x32 PUSH1 0x4 MSTORE PUSH1 0x24 PUSH1 0x0 REVERT JUMPDEST PUSH1 0x20 MUL PUSH1 0x20 ADD ADD MLOAD DUP8 DUP5 DUP2 MLOAD DUP2 LT PUSH2 0xA47 JUMPI PUSH4 0x4E487B71 PUSH1 0xE0 SHL PUSH1 0x0 MSTORE PUSH1 0x32 PUSH1 0x4 MSTORE PUSH1 0x24 PUSH1 0x0 REVERT JUMPDEST PUSH1 0x20 MUL PUSH1 0x20 ADD ADD MLOAD DUP4 PUSH1 0xA ADD SLOAD PUSH2 0x7F5 JUMP JUMPDEST PUSH2 0xB40 JUMPI DUP3 PUSH2 0xA67 DUP2 PUSH2 0x350B JUMP JUMPDEST SWAP4 POP POP PUSH2 0xB3E DUP11 DUP3 PUSH1 0x3 DUP13 DUP7 DUP2 MLOAD DUP2 LT PUSH2 0xA91 JUMPI PUSH4 0x4E487B71 PUSH1 0xE0 SHL PUSH1 0x0 MSTORE PUSH1 0x32 PUSH1 0x4 MSTORE PUSH1 0x24 PUSH1 0x0 REVERT JUMPDEST PUSH1 0x20 MUL PUSH1 0x20 ADD ADD MLOAD DUP13 DUP8 DUP2 MLOAD DUP2 LT PUSH2 0xAB9 JUMPI PUSH4 0x4E487B71 PUSH1 0xE0 SHL PUSH1 0x0 MSTORE PUSH1 0x32 PUSH1 0x4 MSTORE PUSH1 0x24 PUSH1 0x0 REVERT JUMPDEST PUSH1 0x20 MUL PUSH1 0x20 ADD ADD MLOAD DUP13 DUP9 DUP2 MLOAD DUP2 LT PUSH2 0xAE1 JUMPI PUSH4 0x4E487B71 PUSH1 0xE0 SHL PUSH1 0x0 MSTORE PUSH1 0x32 PUSH1 0x4 MSTORE PUSH1 0x24 PUSH1 0x0 REVERT JUMPDEST PUSH1 0x20 MUL PUSH1 0x20 ADD ADD MLOAD DUP13 DUP10 DUP2 MLOAD DUP2 LT PUSH2 0xB09 JUMPI PUSH4 0x4E487B71 PUSH1 0xE0 SHL PUSH1 0x0 MSTORE PUSH1 0x32 PUSH1 0x4 MSTORE PUSH1 0x24 PUSH1 0x0 REVERT JUMPDEST PUSH1 0x20 MUL PUSH1 0x20 ADD ADD MLOAD DUP13 DUP11 DUP2 MLOAD DUP2 LT PUSH2 0xB31 JUMPI PUSH4 0x4E487B71 PUSH1 0xE0 SHL PUSH1 0x0 MSTORE PUSH1 0x32 PUSH1 0x4 MSTORE PUSH1 0x24 PUSH1 0x0 REVERT JUMPDEST PUSH1 0x20 MUL PUSH1 0x20 ADD ADD MLOAD PUSH2 0x1B01 JUMP JUMPDEST POP JUMPDEST POP DUP1 PUSH2 0xB4B DUP2 PUSH2 0x350B JUMP JUMPDEST SWAP2 POP POP PUSH2 0x9B5 JUMP JUMPDEST POP DUP1 PUSH2 0xB71 JUMPI PUSH1 0x40 MLOAD PUSH3 0x461BCD PUSH1 0xE5 SHL DUP2 MSTORE PUSH1 0x4 ADD PUSH2 0x628 SWAP1 PUSH2 0x30B7 JUMP JUMPDEST POP PUSH1 0x1 SWAP8 SWAP7 POP POP POP POP POP POP POP JUMP JUMPDEST PUSH2 0xB87 PUSH2 0x26D0 JUMP JUMPDEST PUSH1 0x0 DUP3 DUP2 MSTORE PUSH1 0x6A PUSH1 0x20 SWAP1 DUP2 MSTORE PUSH1 0x40 SWAP2 DUP3 SWAP1 KECCAK256 DUP3 MLOAD PUSH2 0x160 DUP2 ADD DUP5 MSTORE DUP2 SLOAD PUSH1 0x1 PUSH1 0x1 PUSH1 0xA0 SHL SUB AND DUP2 MSTORE PUSH1 0x1 DUP3 ADD SLOAD SWAP3 DUP2 ADD SWAP3 SWAP1 SWAP3 MSTORE PUSH1 0x2 DUP2 ADD DUP1 SLOAD SWAP3 SWAP4 SWAP2 SWAP3 SWAP2 DUP5 ADD SWAP2 PUSH2 0xBD2 SWAP1 PUSH2 0x34D0 JUMP JUMPDEST DUP1 PUSH1 0x1F ADD PUSH1 0x20 DUP1 SWAP2 DIV MUL PUSH1 0x20 ADD PUSH1 0x40 MLOAD SWAP1 DUP2 ADD PUSH1 0x40 MSTORE DUP1 SWAP3 SWAP2 SWAP1 DUP2 DUP2 MSTORE PUSH1 0x20 ADD DUP3 DUP1 SLOAD PUSH2 0xBFE SWAP1 PUSH2 0x34D0 JUMP JUMPDEST DUP1 ISZERO PUSH2 0xC4B JUMPI DUP1 PUSH1 0x1F LT PUSH2 0xC20 JUMPI PUSH2 0x100 DUP1 DUP4 SLOAD DIV MUL DUP4 MSTORE SWAP2 PUSH1 0x20 ADD SWAP2 PUSH2 0xC4B JUMP JUMPDEST DUP3 ADD SWAP2 SWAP1 PUSH1 0x0 MSTORE PUSH1 0x20 PUSH1 0x0 KECCAK256 SWAP1 JUMPDEST DUP2 SLOAD DUP2 MSTORE SWAP1 PUSH1 0x1 ADD SWAP1 PUSH1 0x20 ADD DUP1 DUP4 GT PUSH2 0xC2E JUMPI DUP3 SWAP1 SUB PUSH1 0x1F AND DUP3 ADD SWAP2 JUMPDEST POP POP POP POP POP DUP2 MSTORE PUSH1 0x20 ADD PUSH1 0x3 DUP3 ADD SLOAD DUP2 MSTORE PUSH1 0x20 ADD PUSH1 0x4 DUP3 ADD SLOAD DUP2 MSTORE PUSH1 0x20 ADD PUSH1 0x5 DUP3 ADD SLOAD DUP2 MSTORE PUSH1 0x20 ADD PUSH1 0x6 DUP3 ADD SLOAD DUP2 MSTORE PUSH1 0x20 ADD PUSH1 0x7 DUP3 ADD SLOAD DUP2 MSTORE PUSH1 0x20 ADD PUSH1 0x8 DUP3 ADD SLOAD DUP2 MSTORE PUSH1 0x20 ADD PUSH1 0x9 DUP3 ADD SLOAD DUP2 MSTORE PUSH1 0x20 ADD PUSH1 0xA DUP3 ADD SLOAD DUP2 MSTORE POP POP SWAP1 POP JUMPDEST SWAP2 SWAP1 POP JUMP JUMPDEST PUSH1 0x0 PUSH2 0xCB6 PUSH2 0x1AF1 JUMP JUMPDEST PUSH1 0x1 PUSH1 0x1 PUSH1 0xA0 SHL SUB AND PUSH2 0xCC7 PUSH2 0xE2D JUMP JUMPDEST PUSH1 0x1 PUSH1 0x1 PUSH1 0xA0 SHL SUB AND EQ PUSH2 0xCED JUMPI PUSH1 0x40 MLOAD PUSH3 0x461BCD PUSH1 0xE5 SHL DUP2 MSTORE PUSH1 0x4 ADD PUSH2 0x628 SWAP1 PUSH2 0x31E0 JUMP JUMPDEST POP PUSH1 0x66 DUP1 SLOAD PUSH1 0x1 PUSH1 0x1 PUSH1 0xA0 SHL SUB DUP4 AND PUSH1 0x1 PUSH1 0x1 PUSH1 0xA0 SHL SUB NOT SWAP1 SWAP2 AND OR SWAP1 SSTORE PUSH1 0x1 SWAP2 SWAP1 POP JUMP JUMPDEST PUSH1 0x0 DUP6 DUP2 MSTORE PUSH1 0x6A PUSH1 0x20 MSTORE PUSH1 0x40 DUP2 KECCAK256 DUP1 SLOAD PUSH1 0x1 PUSH1 0x1 PUSH1 0xA0 SHL SUB AND CALLER EQ PUSH2 0xD49 JUMPI PUSH1 0x40 MLOAD PUSH3 0x461BCD PUSH1 0xE5 SHL DUP2 MSTORE PUSH1 0x4 ADD PUSH2 0x628 SWAP1 PUSH2 0x3270 JUMP JUMPDEST PUSH2 0xD5A DUP9 DUP3 PUSH1 0x2 DUP11 DUP11 DUP11 DUP11 DUP11 PUSH2 0x1B01 JUMP JUMPDEST SWAP9 SWAP8 POP POP POP POP POP POP POP POP JUMP JUMPDEST PUSH2 0xD6E PUSH2 0x1AF1 JUMP JUMPDEST PUSH1 0x1 PUSH1 0x1 PUSH1 0xA0 SHL SUB AND PUSH2 0xD7F PUSH2 0xE2D JUMP JUMPDEST PUSH1 0x1 PUSH1 0x1 PUSH1 0xA0 SHL SUB AND EQ PUSH2 0xDA5 JUMPI PUSH1 0x40 MLOAD PUSH3 0x461BCD PUSH1 0xE5 SHL DUP2 MSTORE PUSH1 0x4 ADD PUSH2 0x628 SWAP1 PUSH2 0x31E0 JUMP JUMPDEST PUSH2 0xDAF PUSH1 0x0 PUSH2 0x2207 JUMP JUMPDEST JUMP JUMPDEST PUSH1 0x6F PUSH1 0x20 SWAP1 DUP2 MSTORE PUSH1 0x0 SWAP3 DUP4 MSTORE PUSH1 0x40 DUP1 DUP5 KECCAK256 SWAP1 SWAP2 MSTORE SWAP1 DUP3 MSTORE SWAP1 KECCAK256 SLOAD DUP2 JUMP JUMPDEST PUSH1 0x0 PUSH2 0xDD8 PUSH2 0x1AF1 JUMP JUMPDEST PUSH1 0x1 PUSH1 0x1 PUSH1 0xA0 SHL SUB AND PUSH2 0xDE9 PUSH2 0xE2D JUMP JUMPDEST PUSH1 0x1 PUSH1 0x1 PUSH1 0xA0 SHL SUB AND EQ PUSH2 0xE0F JUMPI PUSH1 0x40 MLOAD PUSH3 0x461BCD PUSH1 0xE5 SHL DUP2 MSTORE PUSH1 0x4 ADD PUSH2 0x628 SWAP1 PUSH2 0x31E0 JUMP JUMPDEST POP PUSH1 0x72 SSTORE PUSH1 0x1 SWAP1 JUMP JUMPDEST PUSH1 0x69 SLOAD PUSH1 0x1 PUSH1 0x1 PUSH1 0xA0 SHL SUB AND DUP2 JUMP JUMPDEST PUSH1 0x72 SLOAD DUP2 JUMP JUMPDEST PUSH1 0x33 SLOAD PUSH1 0x1 PUSH1 0x1 PUSH1 0xA0 SHL SUB AND SWAP1 JUMP JUMPDEST CALLER PUSH1 0x0 SWAP1 DUP2 MSTORE PUSH1 0x65 PUSH1 0x20 MSTORE PUSH1 0x40 DUP2 KECCAK256 SLOAD PUSH1 0xFF AND PUSH2 0xE6B JUMPI PUSH1 0x40 MLOAD PUSH3 0x461BCD PUSH1 0xE5 SHL DUP2 MSTORE PUSH1 0x4 ADD PUSH2 0x628 SWAP1 PUSH2 0x3073 JUMP JUMPDEST PUSH1 0x0 DUP7 DUP2 MSTORE PUSH1 0x6A PUSH1 0x20 MSTORE PUSH1 0x40 SWAP1 KECCAK256 PUSH2 0xD5A DUP9 DUP3 PUSH1 0x4 DUP11 DUP11 DUP11 DUP11 DUP11 PUSH2 0x1B01 JUMP JUMPDEST PUSH1 0x0 DUP7 DUP2 MSTORE PUSH1 0x6A PUSH1 0x20 MSTORE PUSH1 0x40 DUP2 KECCAK256 DUP1 SLOAD PUSH1 0x1 PUSH1 0x1 PUSH1 0xA0 SHL SUB AND PUSH2 0xEBF JUMPI PUSH1 0x40 MLOAD PUSH3 0x461BCD PUSH1 0xE5 SHL DUP2 MSTORE PUSH1 0x4 ADD PUSH2 0x628 SWAP1 PUSH2 0x2FB3 JUMP JUMPDEST PUSH1 0x2 DUP2 PUSH1 0x3 ADD SLOAD LT PUSH2 0xEE3 JUMPI PUSH1 0x40 MLOAD PUSH3 0x461BCD PUSH1 0xE5 SHL DUP2 MSTORE PUSH1 0x4 ADD PUSH2 0x628 SWAP1 PUSH2 0x3292 JUMP JUMPDEST PUSH1 0x69 SLOAD PUSH1 0x40 MLOAD PUSH4 0x11CDC9D9 PUSH1 0xE1 SHL DUP2 MSTORE PUSH1 0x1 PUSH1 0x1 PUSH1 0xA0 SHL SUB SWAP1 SWAP2 AND SWAP1 PUSH4 0x239B93B2 SWAP1 PUSH2 0xF1B SWAP1 DUP13 SWAP1 DUP10 SWAP1 DUP13 SWAP1 DUP13 SWAP1 DUP12 SWAP1 PUSH1 0x4 ADD PUSH2 0x2F67 JUMP JUMPDEST PUSH1 0x20 PUSH1 0x40 MLOAD DUP1 DUP4 SUB DUP2 DUP7 DUP1 EXTCODESIZE ISZERO DUP1 ISZERO PUSH2 0xF33 JUMPI PUSH1 0x0 DUP1 REVERT JUMPDEST POP GAS STATICCALL ISZERO DUP1 ISZERO PUSH2 0xF47 JUMPI RETURNDATASIZE PUSH1 0x0 DUP1 RETURNDATACOPY RETURNDATASIZE PUSH1 0x0 REVERT JUMPDEST POP POP POP POP PUSH1 0x40 MLOAD RETURNDATASIZE PUSH1 0x1F NOT PUSH1 0x1F DUP3 ADD AND DUP3 ADD DUP1 PUSH1 0x40 MSTORE POP DUP2 ADD SWAP1 PUSH2 0xF6B SWAP2 SWAP1 PUSH2 0x2AAB JUMP JUMPDEST PUSH2 0xF87 JUMPI PUSH1 0x40 MLOAD PUSH3 0x461BCD PUSH1 0xE5 SHL DUP2 MSTORE PUSH1 0x4 ADD PUSH2 0x628 SWAP1 PUSH2 0x304F JUMP JUMPDEST PUSH2 0xF92 DUP9 DUP7 DUP6 PUSH2 0x7F5 JUMP JUMPDEST PUSH2 0xFAE JUMPI PUSH1 0x40 MLOAD PUSH3 0x461BCD PUSH1 0xE5 SHL DUP2 MSTORE PUSH1 0x4 ADD PUSH2 0x628 SWAP1 PUSH2 0x31B6 JUMP JUMPDEST PUSH1 0x0 PUSH2 0xFDF PUSH8 0xDE0B6B3A7640000 PUSH2 0x851 PUSH1 0x73 SLOAD PUSH2 0x851 PUSH1 0x72 SLOAD PUSH2 0x884 DUP13 DUP10 PUSH1 0x9 ADD SLOAD PUSH2 0x1AD9 SWAP1 SWAP2 SWAP1 PUSH4 0xFFFFFFFF AND JUMP JUMPDEST SWAP1 POP PUSH1 0x0 PUSH2 0x1030 PUSH2 0x100D PUSH8 0xDE0B6B3A7640000 PUSH2 0x851 DUP7 PUSH1 0x9 ADD SLOAD DUP8 PUSH1 0x5 ADD SLOAD PUSH2 0x1AD9 SWAP1 SWAP2 SWAP1 PUSH4 0xFFFFFFFF AND JUMP JUMPDEST PUSH2 0x5D8 PUSH8 0xDE0B6B3A7640000 PUSH2 0x851 DUP8 PUSH1 0x9 ADD SLOAD DUP13 PUSH2 0x1AD9 SWAP1 SWAP2 SWAP1 PUSH4 0xFFFFFFFF AND JUMP JUMPDEST SWAP1 POP PUSH1 0x0 PUSH2 0x104B DUP3 DUP6 PUSH1 0xA ADD SLOAD PUSH2 0x2259 SWAP1 SWAP2 SWAP1 PUSH4 0xFFFFFFFF AND JUMP JUMPDEST SWAP1 POP PUSH1 0x0 DUP2 PUSH2 0x105A DUP9 DUP7 PUSH2 0x1AE5 JUMP JUMPDEST GT ISZERO PUSH2 0x10F0 JUMPI PUSH2 0x106E DUP3 PUSH2 0x5D8 DUP10 DUP8 PUSH2 0x1AE5 JUMP JUMPDEST PUSH1 0x67 SLOAD SWAP1 SWAP2 POP PUSH2 0x1089 SWAP1 PUSH1 0x1 PUSH1 0x1 PUSH1 0xA0 SHL SUB AND CALLER ADDRESS DUP5 PUSH2 0x2265 JUMP JUMPDEST PUSH1 0x67 SLOAD PUSH1 0x40 MLOAD PUSH4 0x852CD8D PUSH1 0xE3 SHL DUP2 MSTORE PUSH1 0x1 PUSH1 0x1 PUSH1 0xA0 SHL SUB SWAP1 SWAP2 AND SWAP1 PUSH4 0x42966C68 SWAP1 PUSH2 0x10B9 SWAP1 DUP5 SWAP1 PUSH1 0x4 ADD PUSH2 0x33C8 JUMP JUMPDEST PUSH1 0x0 PUSH1 0x40 MLOAD DUP1 DUP4 SUB DUP2 PUSH1 0x0 DUP8 DUP1 EXTCODESIZE ISZERO DUP1 ISZERO PUSH2 0x10D3 JUMPI PUSH1 0x0 DUP1 REVERT JUMPDEST POP GAS CALL ISZERO DUP1 ISZERO PUSH2 0x10E7 JUMPI RETURNDATASIZE PUSH1 0x0 DUP1 RETURNDATACOPY RETURNDATASIZE PUSH1 0x0 REVERT JUMPDEST POP POP POP POP PUSH2 0x118F JUMP JUMPDEST PUSH2 0x1104 PUSH2 0x10FD DUP9 DUP7 PUSH2 0x1AE5 JUMP JUMPDEST DUP4 SWAP1 PUSH2 0x1AE5 JUMP JUMPDEST PUSH1 0x67 SLOAD DUP7 SLOAD PUSH1 0x40 MLOAD PUSH4 0x40C10F19 PUSH1 0xE0 SHL DUP2 MSTORE SWAP3 SWAP4 POP PUSH1 0x1 PUSH1 0x1 PUSH1 0xA0 SHL SUB SWAP2 DUP3 AND SWAP3 PUSH4 0x40C10F19 SWAP3 PUSH2 0x113B SWAP3 AND SWAP1 DUP6 SWAP1 PUSH1 0x4 ADD PUSH2 0x2EFF JUMP JUMPDEST PUSH1 0x20 PUSH1 0x40 MLOAD DUP1 DUP4 SUB DUP2 PUSH1 0x0 DUP8 DUP1 EXTCODESIZE ISZERO DUP1 ISZERO PUSH2 0x1155 JUMPI PUSH1 0x0 DUP1 REVERT JUMPDEST POP GAS CALL ISZERO DUP1 ISZERO PUSH2 0x1169 JUMPI RETURNDATASIZE PUSH1 0x0 DUP1 RETURNDATACOPY RETURNDATASIZE PUSH1 0x0 REVERT JUMPDEST POP POP POP POP PUSH1 0x40 MLOAD RETURNDATASIZE PUSH1 0x1F NOT PUSH1 0x1F DUP3 ADD AND DUP3 ADD DUP1 PUSH1 0x40 MSTORE POP DUP2 ADD SWAP1 PUSH2 0x118D SWAP2 SWAP1 PUSH2 0x2AAB JUMP JUMPDEST POP JUMPDEST PUSH1 0x67 SLOAD PUSH1 0x40 MLOAD PUSH4 0x40C10F19 PUSH1 0xE0 SHL DUP2 MSTORE PUSH1 0x1 PUSH1 0x1 PUSH1 0xA0 SHL SUB SWAP1 SWAP2 AND SWAP1 PUSH4 0x40C10F19 SWAP1 PUSH2 0x11C1 SWAP1 ADDRESS SWAP1 DUP9 SWAP1 PUSH1 0x4 ADD PUSH2 0x2EFF JUMP JUMPDEST PUSH1 0x20 PUSH1 0x40 MLOAD DUP1 DUP4 SUB DUP2 PUSH1 0x0 DUP8 DUP1 EXTCODESIZE ISZERO DUP1 ISZERO PUSH2 0x11DB JUMPI PUSH1 0x0 DUP1 REVERT JUMPDEST POP GAS CALL ISZERO DUP1 ISZERO PUSH2 0x11EF JUMPI RETURNDATASIZE PUSH1 0x0 DUP1 RETURNDATACOPY RETURNDATASIZE PUSH1 0x0 REVERT JUMPDEST POP POP POP POP PUSH1 0x40 MLOAD RETURNDATASIZE PUSH1 0x1F NOT PUSH1 0x1F DUP3 ADD AND DUP3 ADD DUP1 PUSH1 0x40 MSTORE POP DUP2 ADD SWAP1 PUSH2 0x1213 SWAP2 SWAP1 PUSH2 0x2AAB JUMP JUMPDEST POP PUSH1 0x68 SLOAD PUSH1 0x67 SLOAD PUSH2 0x1231 SWAP2 PUSH1 0x1 PUSH1 0x1 PUSH1 0xA0 SHL SUB SWAP2 DUP3 AND SWAP2 AND DUP7 PUSH2 0x22C3 JUMP JUMPDEST PUSH1 0x68 PUSH1 0x0 SWAP1 SLOAD SWAP1 PUSH2 0x100 EXP SWAP1 DIV PUSH1 0x1 PUSH1 0x1 PUSH1 0xA0 SHL SUB AND PUSH1 0x1 PUSH1 0x1 PUSH1 0xA0 SHL SUB AND PUSH4 0xD10C06A2 PUSH1 0x40 MLOAD DUP2 PUSH4 0xFFFFFFFF AND PUSH1 0xE0 SHL DUP2 MSTORE PUSH1 0x4 ADD PUSH1 0x20 PUSH1 0x40 MLOAD DUP1 DUP4 SUB DUP2 PUSH1 0x0 DUP8 DUP1 EXTCODESIZE ISZERO DUP1 ISZERO PUSH2 0x1281 JUMPI PUSH1 0x0 DUP1 REVERT JUMPDEST POP GAS CALL ISZERO DUP1 ISZERO PUSH2 0x1295 JUMPI RETURNDATASIZE PUSH1 0x0 DUP1 RETURNDATACOPY RETURNDATASIZE PUSH1 0x0 REVERT JUMPDEST POP POP POP POP PUSH1 0x40 MLOAD RETURNDATASIZE PUSH1 0x1F NOT PUSH1 0x1F DUP3 ADD AND DUP3 ADD DUP1 PUSH1 0x40 MSTORE POP DUP2 ADD SWAP1 PUSH2 0x12B9 SWAP2 SWAP1 PUSH2 0x2AAB JUMP JUMPDEST POP PUSH2 0x12C4 DUP8 DUP6 PUSH2 0x1AE5 JUMP JUMPDEST PUSH1 0xA DUP7 ADD SSTORE POP POP POP POP PUSH1 0x5 ADD DUP5 SWAP1 SSTORE POP PUSH1 0x1 SWAP8 SWAP7 POP POP POP POP POP POP POP JUMP JUMPDEST PUSH1 0x73 SLOAD DUP2 JUMP JUMPDEST PUSH1 0x1 PUSH1 0x1 PUSH1 0xA0 SHL SUB AND PUSH1 0x0 SWAP1 DUP2 MSTORE PUSH1 0x70 PUSH1 0x20 MSTORE PUSH1 0x40 SWAP1 KECCAK256 SLOAD SWAP1 JUMP JUMPDEST PUSH1 0x6E PUSH1 0x20 MSTORE DUP2 PUSH1 0x0 MSTORE PUSH1 0x40 PUSH1 0x0 KECCAK256 DUP2 DUP2 SLOAD DUP2 LT PUSH2 0x131E JUMPI PUSH1 0x0 DUP1 REVERT JUMPDEST SWAP1 PUSH1 0x0 MSTORE PUSH1 0x20 PUSH1 0x0 KECCAK256 ADD PUSH1 0x0 SWAP2 POP SWAP2 POP POP SLOAD DUP2 JUMP JUMPDEST PUSH1 0x1 PUSH1 0x1 PUSH1 0xA0 SHL SUB DUP4 AND PUSH1 0x0 SWAP1 DUP2 MSTORE PUSH1 0x6E PUSH1 0x20 MSTORE PUSH1 0x40 SWAP1 KECCAK256 DUP1 SLOAD DUP3 SWAP2 SWAP1 DUP5 SWAP1 DUP2 LT PUSH2 0x136E JUMPI PUSH4 0x4E487B71 PUSH1 0xE0 SHL PUSH1 0x0 MSTORE PUSH1 0x32 PUSH1 0x4 MSTORE PUSH1 0x24 PUSH1 0x0 REVERT JUMPDEST PUSH1 0x0 SWAP2 DUP3 MSTORE PUSH1 0x20 DUP1 DUP4 KECCAK256 SWAP1 SWAP2 ADD SWAP3 SWAP1 SWAP3 SSTORE PUSH1 0x1 PUSH1 0x1 PUSH1 0xA0 SHL SUB SWAP1 SWAP5 AND DUP5 MSTORE PUSH1 0x6F DUP2 MSTORE PUSH1 0x40 DUP1 DUP6 KECCAK256 SWAP3 DUP6 MSTORE SWAP2 SWAP1 MSTORE SWAP1 SWAP2 KECCAK256 SSTORE JUMP JUMPDEST PUSH1 0x6B SLOAD PUSH1 0x0 SWAP1 DUP2 MSTORE PUSH1 0x6A PUSH1 0x20 MSTORE PUSH1 0x40 DUP2 KECCAK256 DUP10 PUSH2 0x13CF JUMPI PUSH1 0x40 MLOAD PUSH3 0x461BCD PUSH1 0xE5 SHL DUP2 MSTORE PUSH1 0x4 ADD PUSH2 0x628 SWAP1 PUSH2 0x2FE1 JUMP JUMPDEST PUSH1 0x3 DUP2 ADD SLOAD ISZERO PUSH2 0x13F1 JUMPI PUSH1 0x40 MLOAD PUSH3 0x461BCD PUSH1 0xE5 SHL DUP2 MSTORE PUSH1 0x4 ADD PUSH2 0x628 SWAP1 PUSH2 0x3292 JUMP JUMPDEST PUSH1 0x69 SLOAD PUSH1 0x40 MLOAD PUSH4 0x11CDC9D9 PUSH1 0xE1 SHL DUP2 MSTORE PUSH1 0x1 PUSH1 0x1 PUSH1 0xA0 SHL SUB SWAP1 SWAP2 AND SWAP1 PUSH4 0x239B93B2 SWAP1 PUSH2 0x1429 SWAP1 DUP15 SWAP1 DUP10 SWAP1 DUP15 SWAP1 DUP13 SWAP1 DUP11 SWAP1 PUSH1 0x4 ADD PUSH2 0x2F67 JUMP JUMPDEST PUSH1 0x20 PUSH1 0x40 MLOAD DUP1 DUP4 SUB DUP2 DUP7 DUP1 EXTCODESIZE ISZERO DUP1 ISZERO PUSH2 0x1441 JUMPI PUSH1 0x0 DUP1 REVERT JUMPDEST POP GAS STATICCALL ISZERO DUP1 ISZERO PUSH2 0x1455 JUMPI RETURNDATASIZE PUSH1 0x0 DUP1 RETURNDATACOPY RETURNDATASIZE PUSH1 0x0 REVERT JUMPDEST POP POP POP POP PUSH1 0x40 MLOAD RETURNDATASIZE PUSH1 0x1F NOT PUSH1 0x1F DUP3 ADD AND DUP3 ADD DUP1 PUSH1 0x40 MSTORE POP DUP2 ADD SWAP1 PUSH2 0x1479 SWAP2 SWAP1 PUSH2 0x2AAB JUMP JUMPDEST PUSH2 0x1495 JUMPI PUSH1 0x40 MLOAD PUSH3 0x461BCD PUSH1 0xE5 SHL DUP2 MSTORE PUSH1 0x4 ADD PUSH2 0x628 SWAP1 PUSH2 0x304F JUMP JUMPDEST PUSH1 0x74 SLOAD DUP11 GT PUSH2 0x14B6 JUMPI PUSH1 0x40 MLOAD PUSH3 0x461BCD PUSH1 0xE5 SHL DUP2 MSTORE PUSH1 0x4 ADD PUSH2 0x628 SWAP1 PUSH2 0x3173 JUMP JUMPDEST PUSH1 0x67 SLOAD PUSH2 0x14CE SWAP1 PUSH1 0x1 PUSH1 0x1 PUSH1 0xA0 SHL SUB AND CALLER ADDRESS DUP14 PUSH2 0x2265 JUMP JUMPDEST PUSH1 0x67 SLOAD PUSH1 0x40 MLOAD PUSH4 0x70A08231 PUSH1 0xE0 SHL DUP2 MSTORE PUSH1 0x0 SWAP2 PUSH1 0x1 PUSH1 0x1 PUSH1 0xA0 SHL SUB AND SWAP1 PUSH4 0x70A08231 SWAP1 PUSH2 0x14FF SWAP1 ADDRESS SWAP1 PUSH1 0x4 ADD PUSH2 0x2EC7 JUMP JUMPDEST PUSH1 0x20 PUSH1 0x40 MLOAD DUP1 DUP4 SUB DUP2 DUP7 DUP1 EXTCODESIZE ISZERO DUP1 ISZERO PUSH2 0x1517 JUMPI PUSH1 0x0 DUP1 REVERT JUMPDEST POP GAS STATICCALL ISZERO DUP1 ISZERO PUSH2 0x152B JUMPI RETURNDATASIZE PUSH1 0x0 DUP1 RETURNDATACOPY RETURNDATASIZE PUSH1 0x0 REVERT JUMPDEST POP POP POP POP PUSH1 0x40 MLOAD RETURNDATASIZE PUSH1 0x1F NOT PUSH1 0x1F DUP3 ADD AND DUP3 ADD DUP1 PUSH1 0x40 MSTORE POP DUP2 ADD SWAP1 PUSH2 0x154F SWAP2 SWAP1 PUSH2 0x2D84 JUMP JUMPDEST SWAP1 POP PUSH1 0x0 PUSH2 0x157E PUSH8 0xDE0B6B3A7640000 PUSH2 0x851 PUSH1 0x73 SLOAD PUSH2 0x851 PUSH1 0x72 SLOAD PUSH2 0x884 DUP13 DUP15 PUSH2 0x1AD9 SWAP1 SWAP2 SWAP1 PUSH4 0xFFFFFFFF AND JUMP JUMPDEST PUSH1 0x68 SLOAD PUSH1 0x67 SLOAD SWAP2 SWAP3 POP PUSH2 0x159E SWAP2 PUSH1 0x1 PUSH1 0x1 PUSH1 0xA0 SHL SUB SWAP1 DUP2 AND SWAP2 AND DUP4 PUSH2 0x22C3 JUMP JUMPDEST PUSH1 0x68 PUSH1 0x0 SWAP1 SLOAD SWAP1 PUSH2 0x100 EXP SWAP1 DIV PUSH1 0x1 PUSH1 0x1 PUSH1 0xA0 SHL SUB AND PUSH1 0x1 PUSH1 0x1 PUSH1 0xA0 SHL SUB AND PUSH4 0xD10C06A2 PUSH1 0x40 MLOAD DUP2 PUSH4 0xFFFFFFFF AND PUSH1 0xE0 SHL DUP2 MSTORE PUSH1 0x4 ADD PUSH1 0x20 PUSH1 0x40 MLOAD DUP1 DUP4 SUB DUP2 PUSH1 0x0 DUP8 DUP1 EXTCODESIZE ISZERO DUP1 ISZERO PUSH2 0x15EE JUMPI PUSH1 0x0 DUP1 REVERT JUMPDEST POP GAS CALL ISZERO DUP1 ISZERO PUSH2 0x1602 JUMPI RETURNDATASIZE PUSH1 0x0 DUP1 RETURNDATACOPY RETURNDATASIZE PUSH1 0x0 REVERT JUMPDEST POP POP POP POP PUSH1 0x40 MLOAD RETURNDATASIZE PUSH1 0x1F NOT PUSH1 0x1F DUP3 ADD AND DUP3 ADD DUP1 PUSH1 0x40 MSTORE POP DUP2 ADD SWAP1 PUSH2 0x1626 SWAP2 SWAP1 PUSH2 0x2AAB JUMP JUMPDEST POP PUSH1 0x67 SLOAD PUSH1 0x1 PUSH1 0x1 PUSH1 0xA0 SHL SUB AND PUSH4 0x42966C68 PUSH2 0x1642 DUP5 DUP5 PUSH2 0x1AE5 JUMP JUMPDEST PUSH1 0x40 MLOAD DUP3 PUSH4 0xFFFFFFFF AND PUSH1 0xE0 SHL DUP2 MSTORE PUSH1 0x4 ADD PUSH2 0x165E SWAP2 SWAP1 PUSH2 0x33C8 JUMP JUMPDEST PUSH1 0x0 PUSH1 0x40 MLOAD DUP1 DUP4 SUB DUP2 PUSH1 0x0 DUP8 DUP1 EXTCODESIZE ISZERO DUP1 ISZERO PUSH2 0x1678 JUMPI PUSH1 0x0 DUP1 REVERT JUMPDEST POP GAS CALL ISZERO DUP1 ISZERO PUSH2 0x168C JUMPI RETURNDATASIZE PUSH1 0x0 DUP1 RETURNDATACOPY RETURNDATASIZE PUSH1 0x0 REVERT JUMPDEST POP POP PUSH1 0x6B SLOAD PUSH1 0x6C DUP1 SLOAD PUSH1 0x1 DUP2 DUP2 ADD DUP4 SSTORE PUSH1 0x0 DUP4 SWAP1 MSTORE PUSH32 0x2B4A51AB505FC96A0952EFDA2BA61BCD3078D4C02C39A186EC16F21883FBE016 SWAP1 SWAP2 ADD SWAP3 SWAP1 SWAP3 SSTORE SLOAD PUSH2 0x16D6 SWAP4 POP SWAP2 POP PUSH2 0x1AE5 JUMP JUMPDEST PUSH1 0x6B DUP1 SLOAD PUSH1 0x0 SWAP1 DUP2 MSTORE PUSH1 0x6D PUSH1 0x20 SWAP1 DUP2 MSTORE PUSH1 0x40 DUP1 DUP4 KECCAK256 SWAP5 SWAP1 SWAP5 SSTORE CALLER DUP1 DUP4 MSTORE PUSH1 0x6E DUP3 MSTORE SWAP4 DUP3 KECCAK256 SWAP3 SLOAD DUP4 SLOAD PUSH1 0x1 DUP2 DUP2 ADD DUP7 SSTORE DUP6 DUP6 MSTORE SWAP3 DUP5 KECCAK256 ADD SSTORE SWAP3 SWAP1 MSTORE SLOAD PUSH2 0x171A SWAP2 PUSH2 0x1AE5 JUMP JUMPDEST CALLER PUSH1 0x0 SWAP1 DUP2 MSTORE PUSH1 0x6F PUSH1 0x20 SWAP1 DUP2 MSTORE PUSH1 0x40 DUP1 DUP4 KECCAK256 PUSH1 0x6B DUP1 SLOAD DUP6 MSTORE SWAP3 MSTORE DUP3 KECCAK256 SWAP3 SWAP1 SWAP3 SSTORE DUP2 SLOAD SWAP2 SWAP1 PUSH2 0x1747 DUP4 PUSH2 0x350B JUMP JUMPDEST SWAP1 SWAP2 SSTORE POP POP DUP3 SLOAD PUSH1 0x1 PUSH1 0x1 PUSH1 0xA0 SHL SUB NOT AND CALLER OR DUP4 SSTORE PUSH1 0x1 DUP4 ADD DUP10 SWAP1 SSTORE DUP8 MLOAD PUSH2 0x1778 SWAP1 PUSH1 0x2 DUP6 ADD SWAP1 PUSH1 0x20 DUP12 ADD SWAP1 PUSH2 0x2733 JUMP JUMPDEST POP PUSH1 0x1 PUSH1 0x3 DUP5 ADD SSTORE PUSH1 0x4 DUP4 ADD DUP11 SWAP1 SSTORE PUSH1 0x5 DUP4 ADD DUP8 SWAP1 SSTORE PUSH1 0x6 DUP4 ADD DUP12 SWAP1 SSTORE PUSH1 0x9 DUP4 ADD DUP7 SWAP1 SSTORE PUSH2 0x17A6 DUP3 DUP3 PUSH2 0x1AE5 JUMP JUMPDEST PUSH1 0xA SWAP1 SWAP4 ADD SWAP3 SWAP1 SWAP3 SSTORE POP PUSH1 0x1 SWAP12 SWAP11 POP POP POP POP POP POP POP POP POP POP POP JUMP JUMPDEST PUSH1 0x1 PUSH1 0x1 PUSH1 0xA0 SHL SUB AND PUSH1 0x0 SWAP1 DUP2 MSTORE PUSH1 0x6E PUSH1 0x20 MSTORE PUSH1 0x40 SWAP1 KECCAK256 SLOAD SWAP1 JUMP JUMPDEST PUSH1 0x70 PUSH1 0x20 MSTORE DUP2 PUSH1 0x0 MSTORE PUSH1 0x40 PUSH1 0x0 KECCAK256 DUP2 DUP2 SLOAD DUP2 LT PUSH2 0x131E JUMPI PUSH1 0x0 DUP1 REVERT JUMPDEST PUSH1 0x71 PUSH1 0x20 SWAP1 DUP2 MSTORE PUSH1 0x0 SWAP3 DUP4 MSTORE PUSH1 0x40 DUP1 DUP5 KECCAK256 SWAP1 SWAP2 MSTORE SWAP1 DUP3 MSTORE SWAP1 KECCAK256 SLOAD DUP2 JUMP JUMPDEST PUSH1 0x74 SLOAD DUP2 JUMP JUMPDEST PUSH2 0x1823 PUSH2 0x1AF1 JUMP JUMPDEST PUSH1 0x1 PUSH1 0x1 PUSH1 0xA0 SHL SUB AND PUSH2 0x1834 PUSH2 0xE2D JUMP JUMPDEST PUSH1 0x1 PUSH1 0x1 PUSH1 0xA0 SHL SUB AND EQ PUSH2 0x185A JUMPI PUSH1 0x40 MLOAD PUSH3 0x461BCD PUSH1 0xE5 SHL DUP2 MSTORE PUSH1 0x4 ADD PUSH2 0x628 SWAP1 PUSH2 0x31E0 JUMP JUMPDEST PUSH1 0x1 PUSH1 0x1 PUSH1 0xA0 SHL SUB DUP2 AND PUSH2 0x1880 JUMPI PUSH1 0x40 MLOAD PUSH3 0x461BCD PUSH1 0xE5 SHL DUP2 MSTORE PUSH1 0x4 ADD PUSH2 0x628 SWAP1 PUSH2 0x3009 JUMP JUMPDEST PUSH2 0x1889 DUP2 PUSH2 0x2207 JUMP JUMPDEST POP JUMP JUMPDEST PUSH1 0x6B SLOAD DUP2 JUMP JUMPDEST PUSH1 0x0 SLOAD PUSH2 0x100 SWAP1 DIV PUSH1 0xFF AND DUP1 PUSH2 0x18AB JUMPI POP PUSH1 0x0 SLOAD PUSH1 0xFF AND ISZERO JUMPDEST PUSH2 0x18C7 JUMPI PUSH1 0x40 MLOAD PUSH3 0x461BCD PUSH1 0xE5 SHL DUP2 MSTORE PUSH1 0x4 ADD PUSH2 0x628 SWAP1 PUSH2 0x3125 JUMP JUMPDEST PUSH1 0x0 SLOAD PUSH2 0x100 SWAP1 DIV PUSH1 0xFF AND ISZERO DUP1 ISZERO PUSH2 0x18F2 JUMPI PUSH1 0x0 DUP1 SLOAD PUSH1 0xFF NOT PUSH2 0xFF00 NOT SWAP1 SWAP2 AND PUSH2 0x100 OR AND PUSH1 0x1 OR SWAP1 SSTORE JUMPDEST PUSH2 0x18FA PUSH2 0x22E7 JUMP JUMPDEST PUSH1 0x66 DUP1 SLOAD PUSH1 0x1 PUSH1 0x1 PUSH1 0xA0 SHL SUB DUP1 DUP9 AND PUSH1 0x1 PUSH1 0x1 PUSH1 0xA0 SHL SUB NOT SWAP3 DUP4 AND OR SWAP1 SWAP3 SSTORE PUSH1 0x68 DUP1 SLOAD DUP8 DUP5 AND SWAP1 DUP4 AND OR SWAP1 SSTORE PUSH1 0x67 DUP1 SLOAD DUP7 DUP5 AND SWAP1 DUP4 AND OR SWAP1 SSTORE PUSH2 0x2710 PUSH1 0x73 SSTORE PUSH1 0x69 DUP1 SLOAD SWAP3 DUP6 AND SWAP3 SWAP1 SWAP2 AND SWAP2 SWAP1 SWAP2 OR SWAP1 SSTORE PUSH8 0xDE0B6B3A7640000 PUSH1 0x74 SSTORE PUSH1 0x32 PUSH1 0x72 SSTORE DUP1 ISZERO PUSH2 0x196D JUMPI PUSH1 0x0 DUP1 SLOAD PUSH2 0xFF00 NOT AND SWAP1 SSTORE JUMPDEST POP POP POP POP POP JUMP JUMPDEST PUSH1 0x0 PUSH2 0x197E PUSH2 0x1AF1 JUMP JUMPDEST PUSH1 0x1 PUSH1 0x1 PUSH1 0xA0 SHL SUB AND PUSH2 0x198F PUSH2 0xE2D JUMP JUMPDEST PUSH1 0x1 PUSH1 0x1 PUSH1 0xA0 SHL SUB AND EQ PUSH2 0x19B5 JUMPI PUSH1 0x40 MLOAD PUSH3 0x461BCD PUSH1 0xE5 SHL DUP2 MSTORE PUSH1 0x4 ADD PUSH2 0x628 SWAP1 PUSH2 0x31E0 JUMP JUMPDEST PUSH1 0x40 MLOAD DUP1 PUSH2 0x160 ADD PUSH1 0x40 MSTORE DUP1 DUP14 PUSH1 0x1 PUSH1 0x1 PUSH1 0xA0 SHL SUB AND DUP2 MSTORE PUSH1 0x20 ADD DUP13 DUP2 MSTORE PUSH1 0x20 ADD DUP12 DUP2 MSTORE PUSH1 0x20 ADD DUP11 DUP2 MSTORE PUSH1 0x20 ADD DUP10 DUP2 MSTORE PUSH1 0x20 ADD DUP9 DUP2 MSTORE PUSH1 0x20 ADD DUP8 DUP2 MSTORE PUSH1 0x20 ADD DUP7 DUP2 MSTORE PUSH1 0x20 ADD DUP6 DUP2 MSTORE PUSH1 0x20 ADD DUP5 DUP2 MSTORE PUSH1 0x20 ADD DUP4 DUP2 MSTORE POP PUSH1 0x6A PUSH1 0x0 DUP16 DUP2 MSTORE PUSH1 0x20 ADD SWAP1 DUP2 MSTORE PUSH1 0x20 ADD PUSH1 0x0 KECCAK256 PUSH1 0x0 DUP3 ADD MLOAD DUP2 PUSH1 0x0 ADD PUSH1 0x0 PUSH2 0x100 EXP DUP2 SLOAD DUP2 PUSH1 0x1 PUSH1 0x1 PUSH1 0xA0 SHL SUB MUL NOT AND SWAP1 DUP4 PUSH1 0x1 PUSH1 0x1 PUSH1 0xA0 SHL SUB AND MUL OR SWAP1 SSTORE POP PUSH1 0x20 DUP3 ADD MLOAD DUP2 PUSH1 0x1 ADD SSTORE PUSH1 0x40 DUP3 ADD MLOAD DUP2 PUSH1 0x2 ADD SWAP1 DUP1 MLOAD SWAP1 PUSH1 0x20 ADD SWAP1 PUSH2 0x1A70 SWAP3 SWAP2 SWAP1 PUSH2 0x2733 JUMP JUMPDEST POP PUSH1 0x60 DUP3 ADD MLOAD PUSH1 0x3 DUP3 ADD SSTORE PUSH1 0x80 DUP3 ADD MLOAD PUSH1 0x4 DUP3 ADD SSTORE PUSH1 0xA0 DUP3 ADD MLOAD PUSH1 0x5 DUP3 ADD SSTORE PUSH1 0xC0 DUP3 ADD MLOAD PUSH1 0x6 DUP3 ADD SSTORE PUSH1 0xE0 DUP3 ADD MLOAD PUSH1 0x7 DUP3 ADD SSTORE PUSH2 0x100 DUP3 ADD MLOAD PUSH1 0x8 DUP3 ADD SSTORE PUSH2 0x120 DUP3 ADD MLOAD PUSH1 0x9 DUP3 ADD SSTORE PUSH2 0x140 SWAP1 SWAP2 ADD MLOAD PUSH1 0xA SWAP1 SWAP2 ADD SSTORE POP PUSH1 0x1 SWAP13 SWAP12 POP POP POP POP POP POP POP POP POP POP POP POP JUMP JUMPDEST PUSH1 0x0 PUSH2 0x93F DUP3 DUP5 PUSH2 0x3457 JUMP JUMPDEST PUSH1 0x0 PUSH2 0x93F DUP3 DUP5 PUSH2 0x3476 JUMP JUMPDEST CALLER SWAP1 JUMP JUMPDEST PUSH1 0x0 PUSH2 0x93F DUP3 DUP5 PUSH2 0x3437 JUMP JUMPDEST DUP7 SLOAD PUSH1 0x0 SWAP1 PUSH1 0x1 PUSH1 0x1 PUSH1 0xA0 SHL SUB AND PUSH2 0x1B2B JUMPI PUSH1 0x40 MLOAD PUSH3 0x461BCD PUSH1 0xE5 SHL DUP2 MSTORE PUSH1 0x4 ADD PUSH2 0x628 SWAP1 PUSH2 0x2FB3 JUMP JUMPDEST PUSH1 0x2 DUP9 PUSH1 0x3 ADD SLOAD LT PUSH2 0x1B4F JUMPI PUSH1 0x40 MLOAD PUSH3 0x461BCD PUSH1 0xE5 SHL DUP2 MSTORE PUSH1 0x4 ADD PUSH2 0x628 SWAP1 PUSH2 0x3292 JUMP JUMPDEST PUSH1 0x69 SLOAD PUSH1 0x40 MLOAD PUSH4 0x11CDC9D9 PUSH1 0xE1 SHL DUP2 MSTORE PUSH1 0x1 PUSH1 0x1 PUSH1 0xA0 SHL SUB SWAP1 SWAP2 AND SWAP1 PUSH4 0x239B93B2 SWAP1 PUSH2 0x1B87 SWAP1 DUP13 SWAP1 DUP8 SWAP1 DUP11 SWAP1 DUP11 SWAP1 DUP10 SWAP1 PUSH1 0x4 ADD PUSH2 0x2F67 JUMP JUMPDEST PUSH1 0x20 PUSH1 0x40 MLOAD DUP1 DUP4 SUB DUP2 DUP7 DUP1 EXTCODESIZE ISZERO DUP1 ISZERO PUSH2 0x1B9F JUMPI PUSH1 0x0 DUP1 REVERT JUMPDEST POP GAS STATICCALL ISZERO DUP1 ISZERO PUSH2 0x1BB3 JUMPI RETURNDATASIZE PUSH1 0x0 DUP1 RETURNDATACOPY RETURNDATASIZE PUSH1 0x0 REVERT JUMPDEST POP POP POP POP PUSH1 0x40 MLOAD RETURNDATASIZE PUSH1 0x1F NOT PUSH1 0x1F DUP3 ADD AND DUP3 ADD DUP1 PUSH1 0x40 MSTORE POP DUP2 ADD SWAP1 PUSH2 0x1BD7 SWAP2 SWAP1 PUSH2 0x2AAB JUMP JUMPDEST PUSH2 0x1BF3 JUMPI PUSH1 0x40 MLOAD PUSH3 0x461BCD PUSH1 0xE5 SHL DUP2 MSTORE PUSH1 0x4 ADD PUSH2 0x628 SWAP1 PUSH2 0x304F JUMP JUMPDEST PUSH1 0x7 DUP9 ADD DUP4 SWAP1 SSTORE PUSH1 0x9 DUP9 ADD SLOAD PUSH1 0x73 SLOAD PUSH1 0x72 SLOAD PUSH1 0x0 SWAP3 DUP4 SWAP3 DUP4 SWAP3 DUP9 SWAP2 DUP5 SWAP2 PUSH2 0x1C2F SWAP2 PUSH8 0xDE0B6B3A7640000 SWAP2 PUSH2 0x851 SWAP2 SWAP1 DUP3 SWAP1 PUSH2 0x884 DUP9 DUP11 PUSH2 0x1AD9 JUMP JUMPDEST SWAP1 POP DUP14 PUSH1 0x4 ADD SLOAD PUSH1 0x1 EQ ISZERO PUSH2 0x1F15 JUMPI DUP14 PUSH1 0x5 ADD SLOAD DUP15 PUSH1 0x7 ADD SLOAD GT ISZERO PUSH2 0x1DAD JUMPI PUSH1 0x5 DUP15 ADD SLOAD PUSH1 0x7 DUP16 ADD SLOAD PUSH2 0x1C61 SWAP2 PUSH2 0x1AE5 JUMP JUMPDEST SWAP6 POP PUSH2 0x1C79 PUSH8 0xDE0B6B3A7640000 PUSH2 0x851 DUP9 DUP7 PUSH2 0x1AD9 JUMP JUMPDEST PUSH1 0xA DUP16 ADD SLOAD SWAP1 SWAP6 POP PUSH2 0x1C8B SWAP1 DUP7 PUSH2 0x2259 JUMP JUMPDEST PUSH1 0x67 SLOAD PUSH1 0x68 SLOAD PUSH1 0x40 MLOAD PUSH4 0x40C10F19 PUSH1 0xE0 SHL DUP2 MSTORE SWAP3 SWAP7 POP PUSH1 0x1 PUSH1 0x1 PUSH1 0xA0 SHL SUB SWAP2 DUP3 AND SWAP3 PUSH4 0x40C10F19 SWAP3 PUSH2 0x1CC3 SWAP3 AND SWAP1 DUP6 SWAP1 PUSH1 0x4 ADD PUSH2 0x2EFF JUMP JUMPDEST PUSH1 0x20 PUSH1 0x40 MLOAD DUP1 DUP4 SUB DUP2 PUSH1 0x0 DUP8 DUP1 EXTCODESIZE ISZERO DUP1 ISZERO PUSH2 0x1CDD JUMPI PUSH1 0x0 DUP1 REVERT JUMPDEST POP GAS CALL ISZERO DUP1 ISZERO PUSH2 0x1CF1 JUMPI RETURNDATASIZE PUSH1 0x0 DUP1 RETURNDATACOPY RETURNDATASIZE PUSH1 0x0 REVERT JUMPDEST POP POP POP POP PUSH1 0x40 MLOAD RETURNDATASIZE PUSH1 0x1F NOT PUSH1 0x1F DUP3 ADD AND DUP3 ADD DUP1 PUSH1 0x40 MSTORE POP DUP2 ADD SWAP1 PUSH2 0x1D15 SWAP2 SWAP1 PUSH2 0x2AAB JUMP JUMPDEST POP PUSH1 0x67 SLOAD DUP15 SLOAD PUSH1 0x1 PUSH1 0x1 PUSH1 0xA0 SHL SUB SWAP2 DUP3 AND SWAP2 PUSH4 0x40C10F19 SWAP2 AND PUSH2 0x1D38 DUP8 DUP6 PUSH2 0x1AE5 JUMP JUMPDEST PUSH1 0x40 MLOAD DUP4 PUSH4 0xFFFFFFFF AND PUSH1 0xE0 SHL DUP2 MSTORE PUSH1 0x4 ADD PUSH2 0x1D55 SWAP3 SWAP2 SWAP1 PUSH2 0x2EFF JUMP JUMPDEST PUSH1 0x20 PUSH1 0x40 MLOAD DUP1 DUP4 SUB DUP2 PUSH1 0x0 DUP8 DUP1 EXTCODESIZE ISZERO DUP1 ISZERO PUSH2 0x1D6F JUMPI PUSH1 0x0 DUP1 REVERT JUMPDEST POP GAS CALL ISZERO DUP1 ISZERO PUSH2 0x1D83 JUMPI RETURNDATASIZE PUSH1 0x0 DUP1 RETURNDATACOPY RETURNDATASIZE PUSH1 0x0 REVERT JUMPDEST POP POP POP POP PUSH1 0x40 MLOAD RETURNDATASIZE PUSH1 0x1F NOT PUSH1 0x1F DUP3 ADD AND DUP3 ADD DUP1 PUSH1 0x40 MSTORE POP DUP2 ADD SWAP1 PUSH2 0x1DA7 SWAP2 SWAP1 PUSH2 0x2AAB JUMP JUMPDEST POP PUSH2 0x1F10 JUMP JUMPDEST PUSH1 0x7 DUP15 ADD SLOAD PUSH1 0x5 DUP16 ADD SLOAD PUSH2 0x1DC0 SWAP2 PUSH2 0x1AE5 JUMP JUMPDEST SWAP6 POP PUSH2 0x1DCC DUP7 DUP5 PUSH2 0x1AD9 JUMP JUMPDEST SWAP5 POP DUP14 PUSH1 0xA ADD SLOAD DUP6 GT ISZERO PUSH2 0x1DE3 JUMPI PUSH1 0x0 SWAP4 POP PUSH2 0x1F10 JUMP JUMPDEST PUSH1 0xA DUP15 ADD SLOAD PUSH2 0x1DF2 SWAP1 DUP7 PUSH2 0x1AE5 JUMP JUMPDEST PUSH1 0x67 SLOAD PUSH1 0x68 SLOAD PUSH1 0x40 MLOAD PUSH4 0x40C10F19 PUSH1 0xE0 SHL DUP2 MSTORE SWAP3 SWAP7 POP PUSH1 0x1 PUSH1 0x1 PUSH1 0xA0 SHL SUB SWAP2 DUP3 AND SWAP3 PUSH4 0x40C10F19 SWAP3 PUSH2 0x1E2A SWAP3 AND SWAP1 DUP6 SWAP1 PUSH1 0x4 ADD PUSH2 0x2EFF JUMP JUMPDEST PUSH1 0x20 PUSH1 0x40 MLOAD DUP1 DUP4 SUB DUP2 PUSH1 0x0 DUP8 DUP1 EXTCODESIZE ISZERO DUP1 ISZERO PUSH2 0x1E44 JUMPI PUSH1 0x0 DUP1 REVERT JUMPDEST POP GAS CALL ISZERO DUP1 ISZERO PUSH2 0x1E58 JUMPI RETURNDATASIZE PUSH1 0x0 DUP1 RETURNDATACOPY RETURNDATASIZE PUSH1 0x0 REVERT JUMPDEST POP POP POP POP PUSH1 0x40 MLOAD RETURNDATASIZE PUSH1 0x1F NOT PUSH1 0x1F DUP3 ADD AND DUP3 ADD DUP1 PUSH1 0x40 MSTORE POP DUP2 ADD SWAP1 PUSH2 0x1E7C SWAP2 SWAP1 PUSH2 0x2AAB JUMP JUMPDEST POP PUSH1 0x67 SLOAD DUP15 SLOAD PUSH1 0x1 PUSH1 0x1 PUSH1 0xA0 SHL SUB SWAP2 DUP3 AND SWAP2 PUSH4 0x40C10F19 SWAP2 AND PUSH2 0x1E9F DUP8 DUP6 PUSH2 0x1AE5 JUMP JUMPDEST PUSH1 0x40 MLOAD DUP4 PUSH4 0xFFFFFFFF AND PUSH1 0xE0 SHL DUP2 MSTORE PUSH1 0x4 ADD PUSH2 0x1EBC SWAP3 SWAP2 SWAP1 PUSH2 0x2EFF JUMP JUMPDEST PUSH1 0x20 PUSH1 0x40 MLOAD DUP1 DUP4 SUB DUP2 PUSH1 0x0 DUP8 DUP1 EXTCODESIZE ISZERO DUP1 ISZERO PUSH2 0x1ED6 JUMPI PUSH1 0x0 DUP1 REVERT JUMPDEST POP GAS CALL ISZERO DUP1 ISZERO PUSH2 0x1EEA JUMPI RETURNDATASIZE PUSH1 0x0 DUP1 RETURNDATACOPY RETURNDATASIZE PUSH1 0x0 REVERT JUMPDEST POP POP POP POP PUSH1 0x40 MLOAD RETURNDATASIZE PUSH1 0x1F NOT PUSH1 0x1F DUP3 ADD AND DUP3 ADD DUP1 PUSH1 0x40 MSTORE POP DUP2 ADD SWAP1 PUSH2 0x1F0E SWAP2 SWAP1 PUSH2 0x2AAB JUMP JUMPDEST POP JUMPDEST PUSH2 0x20D1 JUMP JUMPDEST DUP14 PUSH1 0x5 ADD SLOAD DUP15 PUSH1 0x7 ADD SLOAD LT ISZERO PUSH2 0x1F62 JUMPI PUSH1 0x7 DUP15 ADD SLOAD PUSH1 0x5 DUP16 ADD SLOAD PUSH2 0x1F38 SWAP2 PUSH2 0x1AE5 JUMP JUMPDEST SWAP6 POP PUSH2 0x1F50 PUSH8 0xDE0B6B3A7640000 PUSH2 0x851 DUP9 DUP7 PUSH2 0x1AD9 JUMP JUMPDEST PUSH1 0xA DUP16 ADD SLOAD SWAP1 SWAP6 POP PUSH2 0x1DF2 SWAP1 DUP7 PUSH2 0x2259 JUMP JUMPDEST PUSH1 0x5 DUP15 ADD SLOAD PUSH1 0x7 DUP16 ADD SLOAD PUSH2 0x1F75 SWAP2 PUSH2 0x1AE5 JUMP JUMPDEST SWAP6 POP PUSH2 0x1F8D PUSH8 0xDE0B6B3A7640000 PUSH2 0x851 DUP9 DUP7 PUSH2 0x1AD9 JUMP JUMPDEST SWAP5 POP DUP14 PUSH1 0xA ADD SLOAD DUP6 GT ISZERO PUSH2 0x1FA4 JUMPI PUSH1 0x0 SWAP4 POP PUSH2 0x20D1 JUMP JUMPDEST PUSH1 0xA DUP15 ADD SLOAD PUSH2 0x1FB3 SWAP1 DUP7 PUSH2 0x1AE5 JUMP JUMPDEST PUSH1 0x67 SLOAD PUSH1 0x68 SLOAD PUSH1 0x40 MLOAD PUSH4 0x40C10F19 PUSH1 0xE0 SHL DUP2 MSTORE SWAP3 SWAP7 POP PUSH1 0x1 PUSH1 0x1 PUSH1 0xA0 SHL SUB SWAP2 DUP3 AND SWAP3 PUSH4 0x40C10F19 SWAP3 PUSH2 0x1FEB SWAP3 AND SWAP1 DUP6 SWAP1 PUSH1 0x4 ADD PUSH2 0x2EFF JUMP JUMPDEST PUSH1 0x20 PUSH1 0x40 MLOAD DUP1 DUP4 SUB DUP2 PUSH1 0x0 DUP8 DUP1 EXTCODESIZE ISZERO DUP1 ISZERO PUSH2 0x2005 JUMPI PUSH1 0x0 DUP1 REVERT JUMPDEST POP GAS CALL ISZERO DUP1 ISZERO PUSH2 0x2019 JUMPI RETURNDATASIZE PUSH1 0x0 DUP1 RETURNDATACOPY RETURNDATASIZE PUSH1 0x0 REVERT JUMPDEST POP POP POP POP PUSH1 0x40 MLOAD RETURNDATASIZE PUSH1 0x1F NOT PUSH1 0x1F DUP3 ADD AND DUP3 ADD DUP1 PUSH1 0x40 MSTORE POP DUP2 ADD SWAP1 PUSH2 0x203D SWAP2 SWAP1 PUSH2 0x2AAB JUMP JUMPDEST POP PUSH1 0x67 SLOAD DUP15 SLOAD PUSH1 0x1 PUSH1 0x1 PUSH1 0xA0 SHL SUB SWAP2 DUP3 AND SWAP2 PUSH4 0x40C10F19 SWAP2 AND PUSH2 0x2060 DUP8 DUP6 PUSH2 0x1AE5 JUMP JUMPDEST PUSH1 0x40 MLOAD DUP4 PUSH4 0xFFFFFFFF AND PUSH1 0xE0 SHL DUP2 MSTORE PUSH1 0x4 ADD PUSH2 0x207D SWAP3 SWAP2 SWAP1 PUSH2 0x2EFF JUMP JUMPDEST PUSH1 0x20 PUSH1 0x40 MLOAD DUP1 DUP4 SUB DUP2 PUSH1 0x0 DUP8 DUP1 EXTCODESIZE ISZERO DUP1 ISZERO PUSH2 0x2097 JUMPI PUSH1 0x0 DUP1 REVERT JUMPDEST POP GAS CALL ISZERO DUP1 ISZERO PUSH2 0x20AB JUMPI RETURNDATASIZE PUSH1 0x0 DUP1 RETURNDATACOPY RETURNDATASIZE PUSH1 0x0 REVERT JUMPDEST POP POP POP POP PUSH1 0x40 MLOAD RETURNDATASIZE PUSH1 0x1F NOT PUSH1 0x1F DUP3 ADD AND DUP3 ADD DUP1 PUSH1 0x40 MSTORE POP DUP2 ADD SWAP1 PUSH2 0x20CF SWAP2 SWAP1 PUSH2 0x2AAB JUMP JUMPDEST POP JUMPDEST PUSH1 0x68 PUSH1 0x0 SWAP1 SLOAD SWAP1 PUSH2 0x100 EXP SWAP1 DIV PUSH1 0x1 PUSH1 0x1 PUSH1 0xA0 SHL SUB AND PUSH1 0x1 PUSH1 0x1 PUSH1 0xA0 SHL SUB AND PUSH4 0xD10C06A2 PUSH1 0x40 MLOAD DUP2 PUSH4 0xFFFFFFFF AND PUSH1 0xE0 SHL DUP2 MSTORE PUSH1 0x4 ADD PUSH1 0x20 PUSH1 0x40 MLOAD DUP1 DUP4 SUB DUP2 PUSH1 0x0 DUP8 DUP1 EXTCODESIZE ISZERO DUP1 ISZERO PUSH2 0x2121 JUMPI PUSH1 0x0 DUP1 REVERT JUMPDEST POP GAS CALL ISZERO DUP1 ISZERO PUSH2 0x2135 JUMPI RETURNDATASIZE PUSH1 0x0 DUP1 RETURNDATACOPY RETURNDATASIZE PUSH1 0x0 REVERT JUMPDEST POP POP POP POP PUSH1 0x40 MLOAD RETURNDATASIZE PUSH1 0x1F NOT PUSH1 0x1F DUP3 ADD AND DUP3 ADD DUP1 PUSH1 0x40 MSTORE POP DUP2 ADD SWAP1 PUSH2 0x2159 SWAP2 SWAP1 PUSH2 0x2AAB JUMP JUMPDEST POP PUSH1 0x3 DUP15 ADD DUP14 SWAP1 SSTORE PUSH1 0x7 DUP15 ADD DUP10 SWAP1 SSTORE PUSH1 0x8 DUP15 ADD DUP12 SWAP1 SSTORE PUSH2 0x217C DUP13 PUSH1 0x6D PUSH1 0x6C PUSH2 0x236B JUMP JUMPDEST CALLER PUSH1 0x0 SWAP1 DUP2 MSTORE PUSH1 0x6F PUSH1 0x20 SWAP1 DUP2 MSTORE PUSH1 0x40 DUP1 DUP4 KECCAK256 PUSH1 0x6E SWAP1 SWAP3 MSTORE SWAP1 SWAP2 KECCAK256 PUSH2 0x21A1 SWAP2 DUP15 SWAP2 PUSH2 0x236B JUMP JUMPDEST CALLER PUSH1 0x0 DUP2 DUP2 MSTORE PUSH1 0x70 PUSH1 0x20 SWAP1 DUP2 MSTORE PUSH1 0x40 DUP3 KECCAK256 DUP1 SLOAD PUSH1 0x1 DUP2 DUP2 ADD DUP4 SSTORE SWAP2 DUP5 MSTORE SWAP2 SWAP1 SWAP3 KECCAK256 ADD DUP15 SWAP1 SSTORE PUSH2 0x21D3 SWAP2 PUSH2 0x5D8 SWAP1 PUSH2 0x12E7 JUMP JUMPDEST CALLER PUSH1 0x0 SWAP1 DUP2 MSTORE PUSH1 0x71 PUSH1 0x20 SWAP1 DUP2 MSTORE PUSH1 0x40 DUP1 DUP4 KECCAK256 SWAP16 DUP4 MSTORE SWAP15 SWAP1 MSTORE SWAP13 SWAP1 SWAP13 KECCAK256 SWAP12 SWAP1 SWAP12 SSTORE POP PUSH1 0x1 SWAP14 SWAP13 POP POP POP POP POP POP POP POP POP POP POP POP POP JUMP JUMPDEST PUSH1 0x33 DUP1 SLOAD PUSH1 0x1 PUSH1 0x1 PUSH1 0xA0 SHL SUB DUP4 DUP2 AND PUSH1 0x1 PUSH1 0x1 PUSH1 0xA0 SHL SUB NOT DUP4 AND DUP2 OR SWAP1 SWAP4 SSTORE PUSH1 0x40 MLOAD SWAP2 AND SWAP2 SWAP1 DUP3 SWAP1 PUSH32 0x8BE0079C531659141344CD1FD0A4F28419497F9722A3DAAFE3B4186F6B6457E0 SWAP1 PUSH1 0x0 SWAP1 LOG3 POP POP JUMP JUMPDEST PUSH1 0x0 PUSH2 0x93F DUP3 DUP5 PUSH2 0x341F JUMP JUMPDEST PUSH2 0x22BD DUP5 PUSH4 0x23B872DD PUSH1 0xE0 SHL DUP6 DUP6 DUP6 PUSH1 0x40 MLOAD PUSH1 0x24 ADD PUSH2 0x2286 SWAP4 SWAP3 SWAP2 SWAP1 PUSH2 0x2EDB JUMP JUMPDEST PUSH1 0x40 DUP1 MLOAD PUSH1 0x1F NOT DUP2 DUP5 SUB ADD DUP2 MSTORE SWAP2 SWAP1 MSTORE PUSH1 0x20 DUP2 ADD DUP1 MLOAD PUSH1 0x1 PUSH1 0x1 PUSH1 0xE0 SHL SUB AND PUSH1 0x1 PUSH1 0x1 PUSH1 0xE0 SHL SUB NOT SWAP1 SWAP4 AND SWAP3 SWAP1 SWAP3 OR SWAP1 SWAP2 MSTORE PUSH2 0x2448 JUMP JUMPDEST POP POP POP POP JUMP JUMPDEST PUSH2 0x22E2 DUP4 PUSH4 0xA9059CBB PUSH1 0xE0 SHL DUP5 DUP5 PUSH1 0x40 MLOAD PUSH1 0x24 ADD PUSH2 0x2286 SWAP3 SWAP2 SWAP1 PUSH2 0x2EFF JUMP JUMPDEST POP POP POP JUMP JUMPDEST PUSH1 0x0 SLOAD PUSH2 0x100 SWAP1 DIV PUSH1 0xFF AND DUP1 PUSH2 0x2300 JUMPI POP PUSH1 0x0 SLOAD PUSH1 0xFF AND ISZERO JUMPDEST PUSH2 0x231C JUMPI PUSH1 0x40 MLOAD PUSH3 0x461BCD PUSH1 0xE5 SHL DUP2 MSTORE PUSH1 0x4 ADD PUSH2 0x628 SWAP1 PUSH2 0x3125 JUMP JUMPDEST PUSH1 0x0 SLOAD PUSH2 0x100 SWAP1 DIV PUSH1 0xFF AND ISZERO DUP1 ISZERO PUSH2 0x2347 JUMPI PUSH1 0x0 DUP1 SLOAD PUSH1 0xFF NOT PUSH2 0xFF00 NOT SWAP1 SWAP2 AND PUSH2 0x100 OR AND PUSH1 0x1 OR SWAP1 SSTORE JUMPDEST PUSH2 0x234F PUSH2 0x24D7 JUMP JUMPDEST PUSH2 0x2357 PUSH2 0x254A JUMP JUMPDEST DUP1 ISZERO PUSH2 0x1889 JUMPI PUSH1 0x0 DUP1 SLOAD PUSH2 0xFF00 NOT AND SWAP1 SSTORE POP JUMP JUMPDEST PUSH1 0x0 DUP4 DUP2 MSTORE PUSH1 0x20 DUP4 SWAP1 MSTORE PUSH1 0x40 DUP2 KECCAK256 SLOAD DUP3 SLOAD SWAP1 SWAP2 SWAP1 DUP4 SWAP1 PUSH2 0x238C SWAP1 PUSH1 0x1 PUSH2 0x1AE5 JUMP JUMPDEST DUP2 SLOAD DUP2 LT PUSH2 0x23AA JUMPI PUSH4 0x4E487B71 PUSH1 0xE0 SHL PUSH1 0x0 MSTORE PUSH1 0x32 PUSH1 0x4 MSTORE PUSH1 0x24 PUSH1 0x0 REVERT JUMPDEST SWAP1 PUSH1 0x0 MSTORE PUSH1 0x20 PUSH1 0x0 KECCAK256 ADD SLOAD SWAP1 POP DUP2 DUP5 PUSH1 0x0 DUP4 DUP2 MSTORE PUSH1 0x20 ADD SWAP1 DUP2 MSTORE PUSH1 0x20 ADD PUSH1 0x0 KECCAK256 DUP2 SWAP1 SSTORE POP DUP1 DUP4 DUP4 DUP2 SLOAD DUP2 LT PUSH2 0x23EF JUMPI PUSH4 0x4E487B71 PUSH1 0xE0 SHL PUSH1 0x0 MSTORE PUSH1 0x32 PUSH1 0x4 MSTORE PUSH1 0x24 PUSH1 0x0 REVERT JUMPDEST PUSH1 0x0 SWAP2 DUP3 MSTORE PUSH1 0x20 DUP1 DUP4 KECCAK256 SWAP1 SWAP2 ADD SWAP3 SWAP1 SWAP3 SSTORE DUP7 DUP2 MSTORE SWAP1 DUP6 SWAP1 MSTORE PUSH1 0x40 DUP2 KECCAK256 SSTORE DUP3 SLOAD DUP4 SWAP1 DUP1 PUSH2 0x242B JUMPI PUSH4 0x4E487B71 PUSH1 0xE0 SHL PUSH1 0x0 MSTORE PUSH1 0x31 PUSH1 0x4 MSTORE PUSH1 0x24 PUSH1 0x0 REVERT JUMPDEST PUSH1 0x1 SWAP1 SUB DUP2 DUP2 SWAP1 PUSH1 0x0 MSTORE PUSH1 0x20 PUSH1 0x0 KECCAK256 ADD PUSH1 0x0 SWAP1 SSTORE SWAP1 SSTORE POP POP POP POP POP JUMP JUMPDEST PUSH1 0x0 PUSH2 0x249D DUP3 PUSH1 0x40 MLOAD DUP1 PUSH1 0x40 ADD PUSH1 0x40 MSTORE DUP1 PUSH1 0x20 DUP2 MSTORE PUSH1 0x20 ADD PUSH32 0x5361666545524332303A206C6F772D6C6576656C2063616C6C206661696C6564 DUP2 MSTORE POP DUP6 PUSH1 0x1 PUSH1 0x1 PUSH1 0xA0 SHL SUB AND PUSH2 0x25BA SWAP1 SWAP3 SWAP2 SWAP1 PUSH4 0xFFFFFFFF AND JUMP JUMPDEST DUP1 MLOAD SWAP1 SWAP2 POP ISZERO PUSH2 0x22E2 JUMPI DUP1 DUP1 PUSH1 0x20 ADD SWAP1 MLOAD DUP2 ADD SWAP1 PUSH2 0x24BB SWAP2 SWAP1 PUSH2 0x2AAB JUMP JUMPDEST PUSH2 0x22E2 JUMPI PUSH1 0x40 MLOAD PUSH3 0x461BCD PUSH1 0xE5 SHL DUP2 MSTORE PUSH1 0x4 ADD PUSH2 0x628 SWAP1 PUSH2 0x32B5 JUMP JUMPDEST PUSH1 0x0 SLOAD PUSH2 0x100 SWAP1 DIV PUSH1 0xFF AND DUP1 PUSH2 0x24F0 JUMPI POP PUSH1 0x0 SLOAD PUSH1 0xFF AND ISZERO JUMPDEST PUSH2 0x250C JUMPI PUSH1 0x40 MLOAD PUSH3 0x461BCD PUSH1 0xE5 SHL DUP2 MSTORE PUSH1 0x4 ADD PUSH2 0x628 SWAP1 PUSH2 0x3125 JUMP JUMPDEST PUSH1 0x0 SLOAD PUSH2 0x100 SWAP1 DIV PUSH1 0xFF AND ISZERO DUP1 ISZERO PUSH2 0x2357 JUMPI PUSH1 0x0 DUP1 SLOAD PUSH1 0xFF NOT PUSH2 0xFF00 NOT SWAP1 SWAP2 AND PUSH2 0x100 OR AND PUSH1 0x1 OR SWAP1 SSTORE DUP1 ISZERO PUSH2 0x1889 JUMPI PUSH1 0x0 DUP1 SLOAD PUSH2 0xFF00 NOT AND SWAP1 SSTORE POP JUMP JUMPDEST PUSH1 0x0 SLOAD PUSH2 0x100 SWAP1 DIV PUSH1 0xFF AND DUP1 PUSH2 0x2563 JUMPI POP PUSH1 0x0 SLOAD PUSH1 0xFF AND ISZERO JUMPDEST PUSH2 0x257F JUMPI PUSH1 0x40 MLOAD PUSH3 0x461BCD PUSH1 0xE5 SHL DUP2 MSTORE PUSH1 0x4 ADD PUSH2 0x628 SWAP1 PUSH2 0x3125 JUMP JUMPDEST PUSH1 0x0 SLOAD PUSH2 0x100 SWAP1 DIV PUSH1 0xFF AND ISZERO DUP1 ISZERO PUSH2 0x25AA JUMPI PUSH1 0x0 DUP1 SLOAD PUSH1 0xFF NOT PUSH2 0xFF00 NOT SWAP1 SWAP2 AND PUSH2 0x100 OR AND PUSH1 0x1 OR SWAP1 SSTORE JUMPDEST PUSH2 0x2357 PUSH2 0x25B5 PUSH2 0x1AF1 JUMP JUMPDEST PUSH2 0x2207 JUMP JUMPDEST PUSH1 0x60 PUSH2 0x25C9 DUP5 DUP5 PUSH1 0x0 DUP6 PUSH2 0x25D1 JUMP JUMPDEST SWAP5 SWAP4 POP POP POP POP JUMP JUMPDEST PUSH1 0x60 DUP3 SELFBALANCE LT ISZERO PUSH2 0x25F3 JUMPI PUSH1 0x40 MLOAD PUSH3 0x461BCD PUSH1 0xE5 SHL DUP2 MSTORE PUSH1 0x4 ADD PUSH2 0x628 SWAP1 PUSH2 0x30DF JUMP JUMPDEST PUSH2 0x25FC DUP6 PUSH2 0x2691 JUMP JUMPDEST PUSH2 0x2618 JUMPI PUSH1 0x40 MLOAD PUSH3 0x461BCD PUSH1 0xE5 SHL DUP2 MSTORE PUSH1 0x4 ADD PUSH2 0x628 SWAP1 PUSH2 0x3215 JUMP JUMPDEST PUSH1 0x0 DUP1 DUP7 PUSH1 0x1 PUSH1 0x1 PUSH1 0xA0 SHL SUB AND DUP6 DUP8 PUSH1 0x40 MLOAD PUSH2 0x2634 SWAP2 SWAP1 PUSH2 0x2EAB JUMP JUMPDEST PUSH1 0x0 PUSH1 0x40 MLOAD DUP1 DUP4 SUB DUP2 DUP6 DUP8 GAS CALL SWAP3 POP POP POP RETURNDATASIZE DUP1 PUSH1 0x0 DUP2 EQ PUSH2 0x2671 JUMPI PUSH1 0x40 MLOAD SWAP2 POP PUSH1 0x1F NOT PUSH1 0x3F RETURNDATASIZE ADD AND DUP3 ADD PUSH1 0x40 MSTORE RETURNDATASIZE DUP3 MSTORE RETURNDATASIZE PUSH1 0x0 PUSH1 0x20 DUP5 ADD RETURNDATACOPY PUSH2 0x2676 JUMP JUMPDEST PUSH1 0x60 SWAP2 POP JUMPDEST POP SWAP2 POP SWAP2 POP PUSH2 0x2686 DUP3 DUP3 DUP7 PUSH2 0x2697 JUMP JUMPDEST SWAP8 SWAP7 POP POP POP POP POP POP POP JUMP JUMPDEST EXTCODESIZE ISZERO ISZERO SWAP1 JUMP JUMPDEST PUSH1 0x60 DUP4 ISZERO PUSH2 0x26A6 JUMPI POP DUP2 PUSH2 0x93F JUMP JUMPDEST DUP3 MLOAD ISZERO PUSH2 0x26B6 JUMPI DUP3 MLOAD DUP1 DUP5 PUSH1 0x20 ADD REVERT JUMPDEST DUP2 PUSH1 0x40 MLOAD PUSH3 0x461BCD PUSH1 0xE5 SHL DUP2 MSTORE PUSH1 0x4 ADD PUSH2 0x628 SWAP2 SWAP1 PUSH2 0x2FA0 JUMP JUMPDEST PUSH1 0x40 MLOAD DUP1 PUSH2 0x160 ADD PUSH1 0x40 MSTORE DUP1 PUSH1 0x0 PUSH1 0x1 PUSH1 0x1 PUSH1 0xA0 SHL SUB AND DUP2 MSTORE PUSH1 0x20 ADD PUSH1 0x0 DUP2 MSTORE PUSH1 0x20 ADD PUSH1 0x60 DUP2 MSTORE PUSH1 0x20 ADD PUSH1 0x0 DUP2 MSTORE PUSH1 0x20 ADD PUSH1 0x0 DUP2 MSTORE PUSH1 0x20 ADD PUSH1 0x0 DUP2 MSTORE PUSH1 0x20 ADD PUSH1 0x0 DUP2 MSTORE PUSH1 0x20 ADD PUSH1 0x0 DUP2 MSTORE PUSH1 0x20 ADD PUSH1 0x0 DUP2 MSTORE PUSH1 0x20 ADD PUSH1 0x0 DUP2 MSTORE PUSH1 0x20 ADD PUSH1 0x0 DUP2 MSTORE POP SWAP1 JUMP JUMPDEST DUP3 DUP1 SLOAD PUSH2 0x273F SWAP1 PUSH2 0x34D0 JUMP JUMPDEST SWAP1 PUSH1 0x0 MSTORE PUSH1 0x20 PUSH1 0x0 KECCAK256 SWAP1 PUSH1 0x1F ADD PUSH1 0x20 SWAP1 DIV DUP2 ADD SWAP3 DUP3 PUSH2 0x2761 JUMPI PUSH1 0x0 DUP6 SSTORE PUSH2 0x27A7 JUMP JUMPDEST DUP3 PUSH1 0x1F LT PUSH2 0x277A JUMPI DUP1 MLOAD PUSH1 0xFF NOT AND DUP4 DUP1 ADD OR DUP6 SSTORE PUSH2 0x27A7 JUMP JUMPDEST DUP3 DUP1 ADD PUSH1 0x1 ADD DUP6 SSTORE DUP3 ISZERO PUSH2 0x27A7 JUMPI SWAP2 DUP3 ADD JUMPDEST DUP3 DUP2 GT ISZERO PUSH2 0x27A7 JUMPI DUP3 MLOAD DUP3 SSTORE SWAP2 PUSH1 0x20 ADD SWAP2 SWAP1 PUSH1 0x1 ADD SWAP1 PUSH2 0x278C JUMP JUMPDEST POP PUSH2 0x27B3 SWAP3 SWAP2 POP PUSH2 0x27B7 JUMP JUMPDEST POP SWAP1 JUMP JUMPDEST JUMPDEST DUP1 DUP3 GT ISZERO PUSH2 0x27B3 JUMPI PUSH1 0x0 DUP2 SSTORE PUSH1 0x1 ADD PUSH2 0x27B8 JUMP JUMPDEST DUP1 CALLDATALOAD PUSH2 0xCA7 DUP2 PUSH2 0x3552 JUMP JUMPDEST PUSH1 0x0 DUP3 PUSH1 0x1F DUP4 ADD SLT PUSH2 0x27E7 JUMPI DUP1 DUP2 REVERT JUMPDEST DUP2 CALLDATALOAD PUSH1 0x20 PUSH2 0x27FC PUSH2 0x27F7 DUP4 PUSH2 0x33FB JUMP JUMPDEST PUSH2 0x33D1 JUMP JUMPDEST DUP3 DUP2 MSTORE DUP2 DUP2 ADD SWAP1 DUP6 DUP4 ADD DUP6 JUMPDEST DUP6 DUP2 LT ISZERO PUSH2 0x2831 JUMPI PUSH2 0x281F DUP10 DUP7 DUP5 CALLDATALOAD DUP12 ADD ADD PUSH2 0x28F8 JUMP JUMPDEST DUP5 MSTORE SWAP3 DUP5 ADD SWAP3 SWAP1 DUP5 ADD SWAP1 PUSH1 0x1 ADD PUSH2 0x2808 JUMP JUMPDEST POP SWAP1 SWAP8 SWAP7 POP POP POP POP POP POP POP JUMP JUMPDEST PUSH1 0x0 DUP3 PUSH1 0x1F DUP4 ADD SLT PUSH2 0x284E JUMPI DUP1 DUP2 REVERT JUMPDEST DUP2 CALLDATALOAD PUSH1 0x20 PUSH2 0x285E PUSH2 0x27F7 DUP4 PUSH2 0x33FB JUMP JUMPDEST DUP3 DUP2 MSTORE DUP2 DUP2 ADD SWAP1 DUP6 DUP4 ADD DUP6 JUMPDEST DUP6 DUP2 LT ISZERO PUSH2 0x2831 JUMPI PUSH2 0x2881 DUP10 DUP7 DUP5 CALLDATALOAD DUP12 ADD ADD PUSH2 0x28F8 JUMP JUMPDEST DUP5 MSTORE SWAP3 DUP5 ADD SWAP3 SWAP1 DUP5 ADD SWAP1 PUSH1 0x1 ADD PUSH2 0x286A JUMP JUMPDEST PUSH1 0x0 DUP3 PUSH1 0x1F DUP4 ADD SLT PUSH2 0x28A3 JUMPI DUP1 DUP2 REVERT JUMPDEST DUP2 CALLDATALOAD PUSH1 0x20 PUSH2 0x28B3 PUSH2 0x27F7 DUP4 PUSH2 0x33FB JUMP JUMPDEST DUP3 DUP2 MSTORE DUP2 DUP2 ADD SWAP1 DUP6 DUP4 ADD DUP4 DUP6 MUL DUP8 ADD DUP5 ADD DUP9 LT ISZERO PUSH2 0x28CF JUMPI DUP6 DUP7 REVERT JUMPDEST DUP6 JUMPDEST DUP6 DUP2 LT ISZERO PUSH2 0x2831 JUMPI DUP2 CALLDATALOAD DUP5 MSTORE SWAP3 DUP5 ADD SWAP3 SWAP1 DUP5 ADD SWAP1 PUSH1 0x1 ADD PUSH2 0x28D1 JUMP JUMPDEST DUP1 CALLDATALOAD PUSH2 0xCA7 DUP2 PUSH2 0x3567 JUMP JUMPDEST PUSH1 0x0 DUP3 PUSH1 0x1F DUP4 ADD SLT PUSH2 0x2908 JUMPI DUP1 DUP2 REVERT JUMPDEST DUP2 CALLDATALOAD PUSH8 0xFFFFFFFFFFFFFFFF DUP2 GT ISZERO PUSH2 0x2922 JUMPI PUSH2 0x2922 PUSH2 0x353C JUMP JUMPDEST PUSH2 0x2935 PUSH1 0x1F DUP3 ADD PUSH1 0x1F NOT AND PUSH1 0x20 ADD PUSH2 0x33D1 JUMP JUMPDEST DUP2 DUP2 MSTORE DUP5 PUSH1 0x20 DUP4 DUP7 ADD ADD GT ISZERO PUSH2 0x2949 JUMPI DUP3 DUP4 REVERT JUMPDEST DUP2 PUSH1 0x20 DUP6 ADD PUSH1 0x20 DUP4 ADD CALLDATACOPY SWAP1 DUP2 ADD PUSH1 0x20 ADD SWAP2 SWAP1 SWAP2 MSTORE SWAP3 SWAP2 POP POP JUMP JUMPDEST PUSH1 0x0 PUSH1 0x20 DUP3 DUP5 SUB SLT ISZERO PUSH2 0x2974 JUMPI DUP1 DUP2 REVERT JUMPDEST DUP2 CALLDATALOAD PUSH2 0x93F DUP2 PUSH2 0x3552 JUMP JUMPDEST PUSH1 0x0 DUP1 PUSH1 0x40 DUP4 DUP6 SUB SLT ISZERO PUSH2 0x2991 JUMPI DUP1 DUP2 REVERT JUMPDEST DUP3 CALLDATALOAD PUSH2 0x299C DUP2 PUSH2 0x3552 JUMP JUMPDEST SWAP2 POP PUSH1 0x20 DUP4 ADD CALLDATALOAD PUSH2 0x29AC DUP2 PUSH2 0x3567 JUMP JUMPDEST DUP1 SWAP2 POP POP SWAP3 POP SWAP3 SWAP1 POP JUMP JUMPDEST PUSH1 0x0 DUP1 PUSH1 0x0 DUP1 PUSH1 0x80 DUP6 DUP8 SUB SLT ISZERO PUSH2 0x29CC JUMPI DUP2 DUP3 REVERT JUMPDEST DUP5 CALLDATALOAD PUSH2 0x29D7 DUP2 PUSH2 0x3552 JUMP JUMPDEST SWAP4 POP PUSH1 0x20 DUP6 ADD CALLDATALOAD PUSH2 0x29E7 DUP2 PUSH2 0x3552 JUMP JUMPDEST SWAP3 POP PUSH1 0x40 DUP6 ADD CALLDATALOAD PUSH2 0x29F7 DUP2 PUSH2 0x3552 JUMP JUMPDEST SWAP2 POP PUSH1 0x60 DUP6 ADD CALLDATALOAD PUSH2 0x2A07 DUP2 PUSH2 0x3552 JUMP JUMPDEST SWAP4 SWAP7 SWAP3 SWAP6 POP SWAP1 SWAP4 POP POP JUMP JUMPDEST PUSH1 0x0 DUP1 PUSH1 0x40 DUP4 DUP6 SUB SLT ISZERO PUSH2 0x2A24 JUMPI DUP2 DUP3 REVERT JUMPDEST DUP3 CALLDATALOAD PUSH2 0x2A2F DUP2 PUSH2 0x3552 JUMP JUMPDEST SWAP5 PUSH1 0x20 SWAP4 SWAP1 SWAP4 ADD CALLDATALOAD SWAP4 POP POP POP JUMP JUMPDEST PUSH1 0x0 DUP1 PUSH1 0x0 PUSH1 0x60 DUP5 DUP7 SUB SLT ISZERO PUSH2 0x2A51 JUMPI DUP3 DUP4 REVERT JUMPDEST DUP4 CALLDATALOAD PUSH2 0x2A5C DUP2 PUSH2 0x3552 JUMP JUMPDEST SWAP6 PUSH1 0x20 DUP6 ADD CALLDATALOAD SWAP6 POP PUSH1 0x40 SWAP1 SWAP5 ADD CALLDATALOAD SWAP4 SWAP3 POP POP POP JUMP JUMPDEST PUSH1 0x0 DUP1 PUSH1 0x0 DUP1 PUSH1 0x80 DUP6 DUP8 SUB SLT ISZERO PUSH2 0x2A86 JUMPI DUP2 DUP3 REVERT JUMPDEST DUP5 CALLDATALOAD PUSH2 0x2A91 DUP2 PUSH2 0x3552 JUMP JUMPDEST SWAP7 PUSH1 0x20 DUP7 ADD CALLDATALOAD SWAP7 POP PUSH1 0x40 DUP7 ADD CALLDATALOAD SWAP6 PUSH1 0x60 ADD CALLDATALOAD SWAP5 POP SWAP3 POP POP POP JUMP JUMPDEST PUSH1 0x0 PUSH1 0x20 DUP3 DUP5 SUB SLT ISZERO PUSH2 0x2ABC JUMPI DUP1 DUP2 REVERT JUMPDEST DUP2 MLOAD PUSH2 0x93F DUP2 PUSH2 0x3567 JUMP JUMPDEST PUSH1 0x0 DUP1 PUSH1 0x0 DUP1 PUSH1 0x0 DUP1 PUSH1 0xC0 DUP8 DUP10 SUB SLT ISZERO PUSH2 0x2ADF JUMPI DUP4 DUP5 REVERT JUMPDEST PUSH2 0x2AE8 DUP8 PUSH2 0x28ED JUMP JUMPDEST SWAP6 POP PUSH1 0x20 DUP8 ADD CALLDATALOAD PUSH8 0xFFFFFFFFFFFFFFFF DUP1 DUP3 GT ISZERO PUSH2 0x2B04 JUMPI DUP6 DUP7 REVERT JUMPDEST PUSH2 0x2B10 DUP11 DUP4 DUP12 ADD PUSH2 0x2893 JUMP JUMPDEST SWAP7 POP PUSH1 0x40 DUP10 ADD CALLDATALOAD SWAP2 POP DUP1 DUP3 GT ISZERO PUSH2 0x2B25 JUMPI DUP6 DUP7 REVERT JUMPDEST PUSH2 0x2B31 DUP11 DUP4 DUP12 ADD PUSH2 0x2893 JUMP JUMPDEST SWAP6 POP PUSH1 0x60 DUP10 ADD CALLDATALOAD SWAP2 POP DUP1 DUP3 GT ISZERO PUSH2 0x2B46 JUMPI DUP4 DUP5 REVERT JUMPDEST PUSH2 0x2B52 DUP11 DUP4 DUP12 ADD PUSH2 0x283E JUMP JUMPDEST SWAP5 POP PUSH1 0x80 DUP10 ADD CALLDATALOAD SWAP2 POP DUP1 DUP3 GT ISZERO PUSH2 0x2B67 JUMPI DUP4 DUP5 REVERT JUMPDEST PUSH2 0x2B73 DUP11 DUP4 DUP12 ADD PUSH2 0x2893 JUMP JUMPDEST SWAP4 POP PUSH1 0xA0 DUP10 ADD CALLDATALOAD SWAP2 POP DUP1 DUP3 GT ISZERO PUSH2 0x2B88 JUMPI DUP3 DUP4 REVERT JUMPDEST POP PUSH2 0x2B95 DUP10 DUP3 DUP11 ADD PUSH2 0x27D7 JUMP JUMPDEST SWAP2 POP POP SWAP3 SWAP6 POP SWAP3 SWAP6 POP SWAP3 SWAP6 JUMP JUMPDEST PUSH1 0x0 DUP1 PUSH1 0x0 DUP1 PUSH1 0x0 DUP1 PUSH1 0xC0 DUP8 DUP10 SUB SLT ISZERO PUSH2 0x2BBA JUMPI DUP4 DUP5 REVERT JUMPDEST DUP7 CALLDATALOAD PUSH2 0x2BC5 DUP2 PUSH2 0x3567 JUMP JUMPDEST SWAP6 POP PUSH1 0x20 DUP8 ADD CALLDATALOAD SWAP5 POP PUSH1 0x40 DUP8 ADD CALLDATALOAD SWAP4 POP PUSH1 0x60 DUP8 ADD CALLDATALOAD PUSH8 0xFFFFFFFFFFFFFFFF DUP1 DUP3 GT ISZERO PUSH2 0x2BEF JUMPI DUP4 DUP5 REVERT JUMPDEST PUSH2 0x2BFB DUP11 DUP4 DUP12 ADD PUSH2 0x28F8 JUMP JUMPDEST SWAP5 POP PUSH1 0x80 DUP10 ADD CALLDATALOAD SWAP4 POP PUSH1 0xA0 DUP10 ADD CALLDATALOAD SWAP2 POP DUP1 DUP3 GT ISZERO PUSH2 0x2C17 JUMPI DUP3 DUP4 REVERT JUMPDEST POP PUSH2 0x2B95 DUP10 DUP3 DUP11 ADD PUSH2 0x28F8 JUMP JUMPDEST PUSH1 0x0 DUP1 PUSH1 0x0 DUP1 PUSH1 0x0 DUP1 PUSH1 0x0 PUSH1 0xE0 DUP9 DUP11 SUB SLT ISZERO PUSH2 0x2C3E JUMPI DUP5 DUP6 REVERT JUMPDEST DUP8 CALLDATALOAD PUSH2 0x2C49 DUP2 PUSH2 0x3567 JUMP JUMPDEST SWAP7 POP PUSH1 0x20 DUP9 ADD CALLDATALOAD SWAP6 POP PUSH1 0x40 DUP9 ADD CALLDATALOAD SWAP5 POP PUSH1 0x60 DUP9 ADD CALLDATALOAD PUSH8 0xFFFFFFFFFFFFFFFF DUP1 DUP3 GT ISZERO PUSH2 0x2C73 JUMPI DUP3 DUP4 REVERT JUMPDEST PUSH2 0x2C7F DUP12 DUP4 DUP13 ADD PUSH2 0x28F8 JUMP JUMPDEST SWAP6 POP PUSH1 0x80 DUP11 ADD CALLDATALOAD SWAP5 POP PUSH1 0xA0 DUP11 ADD CALLDATALOAD SWAP2 POP DUP1 DUP3 GT ISZERO PUSH2 0x2C9B JUMPI DUP3 DUP4 REVERT JUMPDEST POP PUSH2 0x2CA8 DUP11 DUP3 DUP12 ADD PUSH2 0x28F8 JUMP JUMPDEST SWAP3 POP POP PUSH1 0xC0 DUP9 ADD CALLDATALOAD SWAP1 POP SWAP3 SWAP6 SWAP9 SWAP2 SWAP5 SWAP8 POP SWAP3 SWAP6 POP JUMP JUMPDEST PUSH1 0x0 DUP1 PUSH1 0x0 DUP1 PUSH1 0x0 DUP1 PUSH1 0x0 DUP1 PUSH1 0x0 PUSH2 0x120 DUP11 DUP13 SUB SLT ISZERO PUSH2 0x2CDC JUMPI DUP3 DUP4 REVERT JUMPDEST DUP10 CALLDATALOAD PUSH2 0x2CE7 DUP2 PUSH2 0x3567 JUMP JUMPDEST SWAP9 POP PUSH1 0x20 DUP11 ADD CALLDATALOAD SWAP8 POP PUSH1 0x40 DUP11 ADD CALLDATALOAD SWAP7 POP PUSH1 0x60 DUP11 ADD CALLDATALOAD SWAP6 POP PUSH1 0x80 DUP11 ADD CALLDATALOAD SWAP5 POP PUSH1 0xA0 DUP11 ADD CALLDATALOAD PUSH8 0xFFFFFFFFFFFFFFFF DUP1 DUP3 GT ISZERO PUSH2 0x2D1F JUMPI DUP5 DUP6 REVERT JUMPDEST PUSH2 0x2D2B DUP14 DUP4 DUP15 ADD PUSH2 0x28F8 JUMP JUMPDEST SWAP6 POP PUSH1 0xC0 DUP13 ADD CALLDATALOAD SWAP5 POP PUSH1 0xE0 DUP13 ADD CALLDATALOAD SWAP4 POP PUSH2 0x100 DUP13 ADD CALLDATALOAD SWAP2 POP DUP1 DUP3 GT ISZERO PUSH2 0x2D4F JUMPI DUP3 DUP4 REVERT JUMPDEST POP PUSH2 0x2D5C DUP13 DUP3 DUP14 ADD PUSH2 0x28F8 JUMP JUMPDEST SWAP2 POP POP SWAP3 SWAP6 SWAP9 POP SWAP3 SWAP6 SWAP9 POP SWAP3 SWAP6 SWAP9 JUMP JUMPDEST PUSH1 0x0 PUSH1 0x20 DUP3 DUP5 SUB SLT ISZERO PUSH2 0x2D7D JUMPI DUP1 DUP2 REVERT JUMPDEST POP CALLDATALOAD SWAP2 SWAP1 POP JUMP JUMPDEST PUSH1 0x0 PUSH1 0x20 DUP3 DUP5 SUB SLT ISZERO PUSH2 0x2D95 JUMPI DUP1 DUP2 REVERT JUMPDEST POP MLOAD SWAP2 SWAP1 POP JUMP JUMPDEST PUSH1 0x0 DUP1 PUSH1 0x0 DUP1 PUSH1 0x0 DUP1 PUSH1 0x0 DUP1 PUSH1 0x0 DUP1 PUSH1 0x0 DUP1 PUSH2 0x180 DUP14 DUP16 SUB SLT ISZERO PUSH2 0x2DBE JUMPI DUP6 DUP7 REVERT JUMPDEST DUP13 CALLDATALOAD SWAP12 POP PUSH2 0x2DCE PUSH1 0x20 DUP15 ADD PUSH2 0x27CC JUMP JUMPDEST SWAP11 POP PUSH1 0x40 DUP14 ADD CALLDATALOAD SWAP10 POP PUSH8 0xFFFFFFFFFFFFFFFF PUSH1 0x60 DUP15 ADD CALLDATALOAD GT ISZERO PUSH2 0x2DEF JUMPI DUP6 DUP7 REVERT JUMPDEST PUSH2 0x2DFF DUP15 PUSH1 0x60 DUP16 ADD CALLDATALOAD DUP16 ADD PUSH2 0x28F8 JUMP JUMPDEST SWAP12 SWAP15 SWAP11 SWAP14 POP SWAP9 SWAP12 PUSH1 0x80 DUP2 ADD CALLDATALOAD SWAP11 PUSH1 0xA0 DUP3 ADD CALLDATALOAD SWAP11 POP PUSH1 0xC0 DUP3 ADD CALLDATALOAD SWAP10 POP PUSH1 0xE0 DUP3 ADD CALLDATALOAD SWAP9 POP PUSH2 0x100 DUP3 ADD CALLDATALOAD SWAP8 POP PUSH2 0x120 DUP3 ADD CALLDATALOAD SWAP7 POP PUSH2 0x140 DUP3 ADD CALLDATALOAD SWAP6 POP PUSH2 0x160 SWAP1 SWAP2 ADD CALLDATALOAD SWAP4 POP SWAP2 POP POP JUMP JUMPDEST PUSH1 0x0 DUP1 PUSH1 0x0 PUSH1 0x60 DUP5 DUP7 SUB SLT ISZERO PUSH2 0x2E5B JUMPI DUP1 DUP2 REVERT JUMPDEST POP POP DUP2 CALLDATALOAD SWAP4 PUSH1 0x20 DUP4 ADD CALLDATALOAD SWAP4 POP PUSH1 0x40 SWAP1 SWAP3 ADD CALLDATALOAD SWAP2 SWAP1 POP JUMP JUMPDEST PUSH1 0x1 PUSH1 0x1 PUSH1 0xA0 SHL SUB AND SWAP1 MSTORE JUMP JUMPDEST PUSH1 0x0 DUP2 MLOAD DUP1 DUP5 MSTORE PUSH2 0x2E97 DUP2 PUSH1 0x20 DUP7 ADD PUSH1 0x20 DUP7 ADD PUSH2 0x348D JUMP JUMPDEST PUSH1 0x1F ADD PUSH1 0x1F NOT AND SWAP3 SWAP1 SWAP3 ADD PUSH1 0x20 ADD SWAP3 SWAP2 POP POP JUMP JUMPDEST PUSH1 0x0 DUP3 MLOAD PUSH2 0x2EBD DUP2 DUP5 PUSH1 0x20 DUP8 ADD PUSH2 0x348D JUMP JUMPDEST SWAP2 SWAP1 SWAP2 ADD SWAP3 SWAP2 POP POP JUMP JUMPDEST PUSH1 0x1 PUSH1 0x1 PUSH1 0xA0 SHL SUB SWAP2 SWAP1 SWAP2 AND DUP2 MSTORE PUSH1 0x20 ADD SWAP1 JUMP JUMPDEST PUSH1 0x1 PUSH1 0x1 PUSH1 0xA0 SHL SUB SWAP4 DUP5 AND DUP2 MSTORE SWAP2 SWAP1 SWAP3 AND PUSH1 0x20 DUP3 ADD MSTORE PUSH1 0x40 DUP2 ADD SWAP2 SWAP1 SWAP2 MSTORE PUSH1 0x60 ADD SWAP1 JUMP JUMPDEST PUSH1 0x1 PUSH1 0x1 PUSH1 0xA0 SHL SUB SWAP3 SWAP1 SWAP3 AND DUP3 MSTORE PUSH1 0x20 DUP3 ADD MSTORE PUSH1 0x40 ADD SWAP1 JUMP JUMPDEST PUSH1 0x20 DUP1 DUP3 MSTORE DUP3 MLOAD DUP3 DUP3 ADD DUP2 SWAP1 MSTORE PUSH1 0x0 SWAP2 SWAP1 DUP5 DUP3 ADD SWAP1 PUSH1 0x40 DUP6 ADD SWAP1 DUP5 JUMPDEST DUP2 DUP2 LT ISZERO PUSH2 0x2F50 JUMPI DUP4 MLOAD DUP4 MSTORE SWAP3 DUP5 ADD SWAP3 SWAP2 DUP5 ADD SWAP2 PUSH1 0x1 ADD PUSH2 0x2F34 JUMP JUMPDEST POP SWAP1 SWAP7 SWAP6 POP POP POP POP POP POP JUMP JUMPDEST SWAP1 ISZERO ISZERO DUP2 MSTORE PUSH1 0x20 ADD SWAP1 JUMP JUMPDEST PUSH1 0x0 DUP7 ISZERO ISZERO DUP3 MSTORE DUP6 PUSH1 0x20 DUP4 ADD MSTORE DUP5 PUSH1 0x40 DUP4 ADD MSTORE PUSH1 0xA0 PUSH1 0x60 DUP4 ADD MSTORE PUSH2 0x2F8E PUSH1 0xA0 DUP4 ADD DUP6 PUSH2 0x2E7F JUMP JUMPDEST DUP3 DUP2 SUB PUSH1 0x80 DUP5 ADD MSTORE PUSH2 0xD5A DUP2 DUP6 PUSH2 0x2E7F JUMP JUMPDEST PUSH1 0x0 PUSH1 0x20 DUP3 MSTORE PUSH2 0x93F PUSH1 0x20 DUP4 ADD DUP5 PUSH2 0x2E7F JUMP JUMPDEST PUSH1 0x20 DUP1 DUP3 MSTORE PUSH1 0x14 SWAP1 DUP3 ADD MSTORE PUSH20 0x1BDC99195C88191BD95CC81B9BDD08195E1A5CDD PUSH1 0x62 SHL PUSH1 0x40 DUP3 ADD MSTORE PUSH1 0x60 ADD SWAP1 JUMP JUMPDEST PUSH1 0x20 DUP1 DUP3 MSTORE PUSH1 0xE SWAP1 DUP3 ADD MSTORE PUSH14 0x1B585C99DA5B881B9BC819DBDBD9 PUSH1 0x92 SHL PUSH1 0x40 DUP3 ADD MSTORE PUSH1 0x60 ADD SWAP1 JUMP JUMPDEST PUSH1 0x20 DUP1 DUP3 MSTORE PUSH1 0x26 SWAP1 DUP3 ADD MSTORE PUSH32 0x4F776E61626C653A206E6577206F776E657220697320746865207A65726F2061 PUSH1 0x40 DUP3 ADD MSTORE PUSH6 0x646472657373 PUSH1 0xD0 SHL PUSH1 0x60 DUP3 ADD MSTORE PUSH1 0x80 ADD SWAP1 JUMP JUMPDEST PUSH1 0x20 DUP1 DUP3 MSTORE PUSH1 0xA SWAP1 DUP3 ADD MSTORE PUSH10 0x37B930B1B6329032B939 PUSH1 0xB1 SHL PUSH1 0x40 DUP3 ADD MSTORE PUSH1 0x60 ADD SWAP1 JUMP JUMPDEST PUSH1 0x20 DUP1 DUP3 MSTORE PUSH1 0x24 SWAP1 DUP3 ADD MSTORE PUSH32 0x6578656375746F723A2063616C6C6572206973206E6F74207468652065786563 PUSH1 0x40 DUP3 ADD MSTORE PUSH4 0x3ABA37B9 PUSH1 0xE1 SHL PUSH1 0x60 DUP3 ADD MSTORE PUSH1 0x80 ADD SWAP1 JUMP JUMPDEST PUSH1 0x20 DUP1 DUP3 MSTORE PUSH1 0xE SWAP1 DUP3 ADD MSTORE PUSH14 0x2737903634B8BAB4B230BA34B7B7 PUSH1 0x91 SHL PUSH1 0x40 DUP3 ADD MSTORE PUSH1 0x60 ADD SWAP1 JUMP JUMPDEST PUSH1 0x20 DUP1 DUP3 MSTORE PUSH1 0x26 SWAP1 DUP3 ADD MSTORE PUSH32 0x416464726573733A20696E73756666696369656E742062616C616E636520666F PUSH1 0x40 DUP3 ADD MSTORE PUSH6 0x1C8818D85B1B PUSH1 0xD2 SHL PUSH1 0x60 DUP3 ADD MSTORE PUSH1 0x80 ADD SWAP1 JUMP JUMPDEST PUSH1 0x20 DUP1 DUP3 MSTORE PUSH1 0x2E SWAP1 DUP3 ADD MSTORE PUSH32 0x496E697469616C697A61626C653A20636F6E747261637420697320616C726561 PUSH1 0x40 DUP3 ADD MSTORE PUSH14 0x191E481A5B9A5D1A585B1A5E9959 PUSH1 0x92 SHL PUSH1 0x60 DUP3 ADD MSTORE PUSH1 0x80 ADD SWAP1 JUMP JUMPDEST PUSH1 0x20 DUP1 DUP3 MSTORE PUSH1 0x23 SWAP1 DUP3 ADD MSTORE PUSH32 0x546865207472616E73616374696F6E20616D6F756E7420697320746F6F20736D PUSH1 0x40 DUP3 ADD MSTORE PUSH3 0x185B1B PUSH1 0xEA SHL PUSH1 0x60 DUP3 ADD MSTORE PUSH1 0x80 ADD SWAP1 JUMP JUMPDEST PUSH1 0x20 DUP1 DUP3 MSTORE PUSH1 0x10 SWAP1 DUP3 ADD MSTORE PUSH16 0x155CD95C881A5CC818985B9ADC9D5C1D PUSH1 0x82 SHL PUSH1 0x40 DUP3 ADD MSTORE PUSH1 0x60 ADD SWAP1 JUMP JUMPDEST PUSH1 0x20 DUP1 DUP3 MSTORE DUP2 DUP2 ADD MSTORE PUSH32 0x4F776E61626C653A2063616C6C6572206973206E6F7420746865206F776E6572 PUSH1 0x40 DUP3 ADD MSTORE PUSH1 0x60 ADD SWAP1 JUMP JUMPDEST PUSH1 0x20 DUP1 DUP3 MSTORE PUSH1 0x1D SWAP1 DUP3 ADD MSTORE PUSH32 0x416464726573733A2063616C6C20746F206E6F6E2D636F6E7472616374000000 PUSH1 0x40 DUP3 ADD MSTORE PUSH1 0x60 ADD SWAP1 JUMP JUMPDEST PUSH1 0x20 DUP1 DUP3 MSTORE PUSH1 0xA SWAP1 DUP3 ADD MSTORE PUSH10 0x3632B733BA341032B939 PUSH1 0xB1 SHL PUSH1 0x40 DUP3 ADD MSTORE PUSH1 0x60 ADD SWAP1 JUMP JUMPDEST PUSH1 0x20 DUP1 DUP3 MSTORE PUSH1 0x8 SWAP1 DUP3 ADD MSTORE PUSH8 0x3AB9B2B91032B939 PUSH1 0xC1 SHL PUSH1 0x40 DUP3 ADD MSTORE PUSH1 0x60 ADD SWAP1 JUMP JUMPDEST PUSH1 0x20 DUP1 DUP3 MSTORE PUSH1 0x9 SWAP1 DUP3 ADD MSTORE PUSH9 0x39BA30BA329032B939 PUSH1 0xB9 SHL PUSH1 0x40 DUP3 ADD MSTORE PUSH1 0x60 ADD SWAP1 JUMP JUMPDEST PUSH1 0x20 DUP1 DUP3 MSTORE PUSH1 0x2A SWAP1 DUP3 ADD MSTORE PUSH32 0x5361666545524332303A204552433230206F7065726174696F6E20646964206E PUSH1 0x40 DUP3 ADD MSTORE PUSH10 0x1BDD081CDD58D8D95959 PUSH1 0xB2 SHL PUSH1 0x60 DUP3 ADD MSTORE PUSH1 0x80 ADD SWAP1 JUMP JUMPDEST PUSH1 0x20 DUP1 DUP3 MSTORE PUSH1 0xB SWAP1 DUP3 ADD MSTORE PUSH11 0x185C9C881B9BC819DBDBD9 PUSH1 0xAA SHL PUSH1 0x40 DUP3 ADD MSTORE PUSH1 0x60 ADD SWAP1 JUMP JUMPDEST PUSH1 0x0 PUSH1 0x20 DUP3 MSTORE PUSH2 0x3338 PUSH1 0x20 DUP4 ADD DUP5 MLOAD PUSH2 0x2E72 JUMP JUMPDEST PUSH1 0x20 DUP4 ADD MLOAD PUSH1 0x40 DUP4 ADD MSTORE PUSH1 0x40 DUP4 ADD MLOAD PUSH2 0x160 DUP1 PUSH1 0x60 DUP6 ADD MSTORE PUSH2 0x335E PUSH2 0x180 DUP6 ADD DUP4 PUSH2 0x2E7F JUMP JUMPDEST SWAP2 POP PUSH1 0x60 DUP6 ADD MLOAD PUSH1 0x80 DUP6 ADD MSTORE PUSH1 0x80 DUP6 ADD MLOAD PUSH1 0xA0 DUP6 ADD MSTORE PUSH1 0xA0 DUP6 ADD MLOAD PUSH1 0xC0 DUP6 ADD MSTORE PUSH1 0xC0 DUP6 ADD MLOAD PUSH1 0xE0 DUP6 ADD MSTORE PUSH1 0xE0 DUP6 ADD MLOAD PUSH2 0x100 DUP2 DUP2 DUP8 ADD MSTORE DUP1 DUP8 ADD MLOAD SWAP2 POP POP PUSH2 0x120 DUP2 DUP2 DUP8 ADD MSTORE DUP1 DUP8 ADD MLOAD SWAP2 POP POP PUSH2 0x140 DUP2 DUP2 DUP8 ADD MSTORE DUP1 DUP8 ADD MLOAD DUP4 DUP8 ADD MSTORE POP POP POP DUP1 SWAP2 POP POP SWAP3 SWAP2 POP POP JUMP JUMPDEST SWAP1 DUP2 MSTORE PUSH1 0x20 ADD SWAP1 JUMP JUMPDEST PUSH1 0x40 MLOAD DUP2 DUP2 ADD PUSH8 0xFFFFFFFFFFFFFFFF DUP2 GT DUP3 DUP3 LT OR ISZERO PUSH2 0x33F3 JUMPI PUSH2 0x33F3 PUSH2 0x353C JUMP JUMPDEST PUSH1 0x40 MSTORE SWAP2 SWAP1 POP JUMP JUMPDEST PUSH1 0x0 PUSH8 0xFFFFFFFFFFFFFFFF DUP3 GT ISZERO PUSH2 0x3415 JUMPI PUSH2 0x3415 PUSH2 0x353C JUMP JUMPDEST POP PUSH1 0x20 SWAP1 DUP2 MUL ADD SWAP1 JUMP JUMPDEST PUSH1 0x0 DUP3 NOT DUP3 GT ISZERO PUSH2 0x3432 JUMPI PUSH2 0x3432 PUSH2 0x3526 JUMP JUMPDEST POP ADD SWAP1 JUMP JUMPDEST PUSH1 0x0 DUP3 PUSH2 0x3452 JUMPI PUSH4 0x4E487B71 PUSH1 0xE0 SHL DUP2 MSTORE PUSH1 0x12 PUSH1 0x4 MSTORE PUSH1 0x24 DUP2 REVERT JUMPDEST POP DIV SWAP1 JUMP JUMPDEST PUSH1 0x0 DUP2 PUSH1 0x0 NOT DIV DUP4 GT DUP3 ISZERO ISZERO AND ISZERO PUSH2 0x3471 JUMPI PUSH2 0x3471 PUSH2 0x3526 JUMP JUMPDEST POP MUL SWAP1 JUMP JUMPDEST PUSH1 0x0 DUP3 DUP3 LT ISZERO PUSH2 0x3488 JUMPI PUSH2 0x3488 PUSH2 0x3526 JUMP JUMPDEST POP SUB SWAP1 JUMP JUMPDEST PUSH1 0x0 JUMPDEST DUP4 DUP2 LT ISZERO PUSH2 0x34A8 JUMPI DUP2 DUP2 ADD MLOAD DUP4 DUP3 ADD MSTORE PUSH1 0x20 ADD PUSH2 0x3490 JUMP JUMPDEST DUP4 DUP2 GT ISZERO PUSH2 0x22BD JUMPI POP POP PUSH1 0x0 SWAP2 ADD MSTORE JUMP JUMPDEST PUSH1 0x0 DUP2 PUSH2 0x34C8 JUMPI PUSH2 0x34C8 PUSH2 0x3526 JUMP JUMPDEST POP PUSH1 0x0 NOT ADD SWAP1 JUMP JUMPDEST PUSH1 0x2 DUP2 DIV PUSH1 0x1 DUP3 AND DUP1 PUSH2 0x34E4 JUMPI PUSH1 0x7F DUP3 AND SWAP2 POP JUMPDEST PUSH1 0x20 DUP3 LT DUP2 EQ ISZERO PUSH2 0x3505 JUMPI PUSH4 0x4E487B71 PUSH1 0xE0 SHL PUSH1 0x0 MSTORE PUSH1 0x22 PUSH1 0x4 MSTORE PUSH1 0x24 PUSH1 0x0 REVERT JUMPDEST POP SWAP2 SWAP1 POP JUMP JUMPDEST PUSH1 0x0 PUSH1 0x0 NOT DUP3 EQ ISZERO PUSH2 0x351F JUMPI PUSH2 0x351F PUSH2 0x3526 JUMP JUMPDEST POP PUSH1 0x1 ADD SWAP1 JUMP JUMPDEST PUSH4 0x4E487B71 PUSH1 0xE0 SHL PUSH1 0x0 MSTORE PUSH1 0x11 PUSH1 0x4 MSTORE PUSH1 0x24 PUSH1 0x0 REVERT JUMPDEST PUSH4 0x4E487B71 PUSH1 0xE0 SHL PUSH1 0x0 MSTORE PUSH1 0x41 PUSH1 0x4 MSTORE PUSH1 0x24 PUSH1 0x0 REVERT JUMPDEST PUSH1 0x1 PUSH1 0x1 PUSH1 0xA0 SHL SUB DUP2 AND DUP2 EQ PUSH2 0x1889 JUMPI PUSH1 0x0 DUP1 REVERT JUMPDEST DUP1 ISZERO ISZERO DUP2 EQ PUSH2 0x1889 JUMPI PUSH1 0x0 DUP1 REVERT INVALID LOG2 PUSH5 0x6970667358 0x22 SLT KECCAK256 0xF9 RETURNDATASIZE 0xC0 0xD6 0xA7 0xEC ORIGIN LOG4 BLOCKHASH ADD DUP2 0xD2 PUSH10 0x754E9CE11BAAD597EFC7 PUSH12 0x8594B468F71A4E5764736F6C PUSH4 0x43000800 STOP CALLER "
				},
				"gasEstimates": {
					"creation": {
						"codeDepositCost": "2747800",
						"executionCost": "2992",
						"totalCost": "2750792"
					},
					"external": {
						"OrderIndex()": "1116",
						"PRECISION()": "1095",
						"_isSolvent(uint256,uint256,uint256)": "infinite",
						"adjustPosition(bool,uint256,uint256,string,uint256,bytes,uint256)": "infinite",
						"closePosition(bool,uint256,uint256,string,uint256,bytes)": "infinite",
						"executor(address)": "1326",
						"feePercent()": "1096",
						"forcedLiquidation(bool,uint256,uint256,string,uint256,bytes)": "infinite",
						"helperLogic()": "1183",
						"initialize(address,address,address,address)": "infinite",
						"liquidation(bool,uint256[],uint256[],string[],uint256[],bytes[])": "infinite",
						"minVal()": "1072",
						"myCloseOrderIdList(address,uint256)": "2248",
						"myCloseOrderIdListLength(address)": "1353",
						"myCloseOrderIdList_index(address,uint256)": "1450",
						"myOpenOrderIdList(address,uint256)": "2270",
						"myOpenOrderIdListLength(address)": "1331",
						"myOpenOrderIdList_index(address,uint256)": "1450",
						"openOrderIdList(uint256)": "2065",
						"openOrderIdListLength()": "1140",
						"openOrderIdList_index(uint256)": "1217",
						"openPosition(bool,uint256,uint256,uint256,uint256,string,uint256,uint256,bytes)": "infinite",
						"oracle()": "1116",
						"orderInfo(uint256)": "infinite",
						"owner()": "1160",
						"pagination(address,uint256,uint256,uint256)": "infinite",
						"renounceOwnership()": "23596",
						"setExecutor(address,bool)": "infinite",
						"setFeePercent(uint256)": "21382",
						"setOrderInfo(uint256,address,uint256,string,uint256,uint256,uint256,uint256,uint256,uint256,uint256,uint256)": "infinite",
						"setSigner(address)": "22231",
						"setmyOpenOrderIdList(address,uint256,uint256)": "41629",
						"signer()": "1116",
						"transferOwnership(address)": "infinite",
						"usc()": "1160"
					},
					"internal": {
						"_closePosition(bool,struct mirrorseaMain.OrderInfo storage pointer,uint256,uint256,uint256,string memory,uint256,bytes memory)": "infinite",
						"cutListItem(uint256,mapping(uint256 => uint256),uint256[] storage pointer)": "75481"
					}
				},
				"methodIdentifiers": {
					"OrderIndex()": "f7ab69fd",
					"PRECISION()": "aaf5eb68",
					"_isSolvent(uint256,uint256,uint256)": "2705c55b",
					"adjustPosition(bool,uint256,uint256,string,uint256,bytes,uint256)": "a8ecb028",
					"closePosition(bool,uint256,uint256,string,uint256,bytes)": "6e812437",
					"executor(address)": "48c7e528",
					"feePercent()": "7fd6f15c",
					"forcedLiquidation(bool,uint256,uint256,string,uint256,bytes)": "a0ad12e2",
					"helperLogic()": "1e64610c",
					"initialize(address,address,address,address)": "f8c8765e",
					"liquidation(bool,uint256[],uint256[],string[],uint256[],bytes[])": "4b989ce3",
					"minVal()": "f14053ad",
					"myCloseOrderIdList(address,uint256)": "ec4c4f34",
					"myCloseOrderIdListLength(address)": "aecf77b1",
					"myCloseOrderIdList_index(address,uint256)": "f0c765e4",
					"myOpenOrderIdList(address,uint256)": "c2ec527d",
					"myOpenOrderIdListLength(address)": "e4e95520",
					"myOpenOrderIdList_index(address,uint256)": "7be3a1a1",
					"openOrderIdList(uint256)": "0f58d242",
					"openOrderIdListLength()": "323b9b2b",
					"openOrderIdList_index(uint256)": "43b1f3cb",
					"openPosition(bool,uint256,uint256,uint256,uint256,string,uint256,uint256,bytes)": "db4a5aa9",
					"oracle()": "7dc0d1d0",
					"orderInfo(uint256)": "6ab34a4a",
					"owner()": "8da5cb5b",
					"pagination(address,uint256,uint256,uint256)": "080270a8",
					"renounceOwnership()": "715018a6",
					"setExecutor(address,bool)": "1e1bff3f",
					"setFeePercent(uint256)": "7ce3489b",
					"setOrderInfo(uint256,address,uint256,string,uint256,uint256,uint256,uint256,uint256,uint256,uint256,uint256)": "fc234d06",
					"setSigner(address)": "6c19e783",
					"setmyOpenOrderIdList(address,uint256,uint256)": "d8c5db4f",
					"signer()": "238ac933",
					"transferOwnership(address)": "f2fde38b",
					"usc()": "3011d3d5"
				}
			},
			"storageLayout": {
				"storage": [
					{
						"astId": 130,
						"contract": "contracts/mirrorseaMain.sol:mirrorseaMain",
						"label": "_initialized",
						"offset": 0,
						"slot": "0",
						"type": "t_bool"
					},
					{
						"astId": 133,
						"contract": "contracts/mirrorseaMain.sol:mirrorseaMain",
						"label": "_initializing",
						"offset": 1,
						"slot": "0",
						"type": "t_bool"
					},
					{
						"astId": 760,
						"contract": "contracts/mirrorseaMain.sol:mirrorseaMain",
						"label": "__gap",
						"offset": 0,
						"slot": "1",
						"type": "t_array(t_uint256)50_storage"
					},
					{
						"astId": 10,
						"contract": "contracts/mirrorseaMain.sol:mirrorseaMain",
						"label": "_owner",
						"offset": 0,
						"slot": "51",
						"type": "t_address"
					},
					{
						"astId": 124,
						"contract": "contracts/mirrorseaMain.sol:mirrorseaMain",
						"label": "__gap",
						"offset": 0,
						"slot": "52",
						"type": "t_array(t_uint256)49_storage"
					},
					{
						"astId": 1132,
						"contract": "contracts/mirrorseaMain.sol:mirrorseaMain",
						"label": "executor",
						"offset": 0,
						"slot": "101",
						"type": "t_mapping(t_address,t_bool)"
					},
					{
						"astId": 1134,
						"contract": "contracts/mirrorseaMain.sol:mirrorseaMain",
						"label": "signer",
						"offset": 0,
						"slot": "102",
						"type": "t_address"
					},
					{
						"astId": 1137,
						"contract": "contracts/mirrorseaMain.sol:mirrorseaMain",
						"label": "usc",
						"offset": 0,
						"slot": "103",
						"type": "t_contract(IERC20Upgradeable)248"
					},
					{
						"astId": 1140,
						"contract": "contracts/mirrorseaMain.sol:mirrorseaMain",
						"label": "helperLogic",
						"offset": 0,
						"slot": "104",
						"type": "t_contract(IhelperLogic)1086"
					},
					{
						"astId": 1143,
						"contract": "contracts/mirrorseaMain.sol:mirrorseaMain",
						"label": "oracle",
						"offset": 0,
						"slot": "105",
						"type": "t_contract(IOracle)1102"
					},
					{
						"astId": 1148,
						"contract": "contracts/mirrorseaMain.sol:mirrorseaMain",
						"label": "_orderInfo",
						"offset": 0,
						"slot": "106",
						"type": "t_mapping(t_uint256,t_struct(OrderInfo)1208_storage)"
					},
					{
						"astId": 1150,
						"contract": "contracts/mirrorseaMain.sol:mirrorseaMain",
						"label": "OrderIndex",
						"offset": 0,
						"slot": "107",
						"type": "t_uint256"
					},
					{
						"astId": 1153,
						"contract": "contracts/mirrorseaMain.sol:mirrorseaMain",
						"label": "openOrderIdList",
						"offset": 0,
						"slot": "108",
						"type": "t_array(t_uint256)dyn_storage"
					},
					{
						"astId": 1157,
						"contract": "contracts/mirrorseaMain.sol:mirrorseaMain",
						"label": "openOrderIdList_index",
						"offset": 0,
						"slot": "109",
						"type": "t_mapping(t_uint256,t_uint256)"
					},
					{
						"astId": 1162,
						"contract": "contracts/mirrorseaMain.sol:mirrorseaMain",
						"label": "myOpenOrderIdList",
						"offset": 0,
						"slot": "110",
						"type": "t_mapping(t_address,t_array(t_uint256)dyn_storage)"
					},
					{
						"astId": 1168,
						"contract": "contracts/mirrorseaMain.sol:mirrorseaMain",
						"label": "myOpenOrderIdList_index",
						"offset": 0,
						"slot": "111",
						"type": "t_mapping(t_address,t_mapping(t_uint256,t_uint256))"
					},
					{
						"astId": 1173,
						"contract": "contracts/mirrorseaMain.sol:mirrorseaMain",
						"label": "myCloseOrderIdList",
						"offset": 0,
						"slot": "112",
						"type": "t_mapping(t_address,t_array(t_uint256)dyn_storage)"
					},
					{
						"astId": 1179,
						"contract": "contracts/mirrorseaMain.sol:mirrorseaMain",
						"label": "myCloseOrderIdList_index",
						"offset": 0,
						"slot": "113",
						"type": "t_mapping(t_address,t_mapping(t_uint256,t_uint256))"
					},
					{
						"astId": 1181,
						"contract": "contracts/mirrorseaMain.sol:mirrorseaMain",
						"label": "feePercent",
						"offset": 0,
						"slot": "114",
						"type": "t_uint256"
					},
					{
						"astId": 1183,
						"contract": "contracts/mirrorseaMain.sol:mirrorseaMain",
						"label": "PRECISION",
						"offset": 0,
						"slot": "115",
						"type": "t_uint256"
					},
					{
						"astId": 1185,
						"contract": "contracts/mirrorseaMain.sol:mirrorseaMain",
						"label": "minVal",
						"offset": 0,
						"slot": "116",
						"type": "t_uint256"
					}
				],
				"types": {
					"t_address": {
						"encoding": "inplace",
						"label": "address",
						"numberOfBytes": "20"
					},
					"t_array(t_uint256)49_storage": {
						"base": "t_uint256",
						"encoding": "inplace",
						"label": "uint256[49]",
						"numberOfBytes": "1568"
					},
					"t_array(t_uint256)50_storage": {
						"base": "t_uint256",
						"encoding": "inplace",
						"label": "uint256[50]",
						"numberOfBytes": "1600"
					},
					"t_array(t_uint256)dyn_storage": {
						"base": "t_uint256",
						"encoding": "dynamic_array",
						"label": "uint256[]",
						"numberOfBytes": "32"
					},
					"t_bool": {
						"encoding": "inplace",
						"label": "bool",
						"numberOfBytes": "1"
					},
					"t_contract(IERC20Upgradeable)248": {
						"encoding": "inplace",
						"label": "contract IERC20Upgradeable",
						"numberOfBytes": "20"
					},
					"t_contract(IOracle)1102": {
						"encoding": "inplace",
						"label": "contract IOracle",
						"numberOfBytes": "20"
					},
					"t_contract(IhelperLogic)1086": {
						"encoding": "inplace",
						"label": "contract IhelperLogic",
						"numberOfBytes": "20"
					},
					"t_mapping(t_address,t_array(t_uint256)dyn_storage)": {
						"encoding": "mapping",
						"key": "t_address",
						"label": "mapping(address => uint256[])",
						"numberOfBytes": "32",
						"value": "t_array(t_uint256)dyn_storage"
					},
					"t_mapping(t_address,t_bool)": {
						"encoding": "mapping",
						"key": "t_address",
						"label": "mapping(address => bool)",
						"numberOfBytes": "32",
						"value": "t_bool"
					},
					"t_mapping(t_address,t_mapping(t_uint256,t_uint256))": {
						"encoding": "mapping",
						"key": "t_address",
						"label": "mapping(address => mapping(uint256 => uint256))",
						"numberOfBytes": "32",
						"value": "t_mapping(t_uint256,t_uint256)"
					},
					"t_mapping(t_uint256,t_struct(OrderInfo)1208_storage)": {
						"encoding": "mapping",
						"key": "t_uint256",
						"label": "mapping(uint256 => struct mirrorseaMain.OrderInfo)",
						"numberOfBytes": "32",
						"value": "t_struct(OrderInfo)1208_storage"
					},
					"t_mapping(t_uint256,t_uint256)": {
						"encoding": "mapping",
						"key": "t_uint256",
						"label": "mapping(uint256 => uint256)",
						"numberOfBytes": "32",
						"value": "t_uint256"
					},
					"t_string_storage": {
						"encoding": "bytes",
						"label": "string",
						"numberOfBytes": "32"
					},
					"t_struct(OrderInfo)1208_storage": {
						"encoding": "inplace",
						"label": "struct mirrorseaMain.OrderInfo",
						"members": [
							{
								"astId": 1187,
								"contract": "contracts/mirrorseaMain.sol:mirrorseaMain",
								"label": "user",
								"offset": 0,
								"slot": "0",
								"type": "t_address"
							},
							{
								"astId": 1189,
								"contract": "contracts/mirrorseaMain.sol:mirrorseaMain",
								"label": "_type",
								"offset": 0,
								"slot": "1",
								"type": "t_uint256"
							},
							{
								"astId": 1191,
								"contract": "contracts/mirrorseaMain.sol:mirrorseaMain",
								"label": "symbols",
								"offset": 0,
								"slot": "2",
								"type": "t_string_storage"
							},
							{
								"astId": 1193,
								"contract": "contracts/mirrorseaMain.sol:mirrorseaMain",
								"label": "state",
								"offset": 0,
								"slot": "3",
								"type": "t_uint256"
							},
							{
								"astId": 1195,
								"contract": "contracts/mirrorseaMain.sol:mirrorseaMain",
								"label": "direction",
								"offset": 0,
								"slot": "4",
								"type": "t_uint256"
							},
							{
								"astId": 1197,
								"contract": "contracts/mirrorseaMain.sol:mirrorseaMain",
								"label": "openPrice18",
								"offset": 0,
								"slot": "5",
								"type": "t_uint256"
							},
							{
								"astId": 1199,
								"contract": "contracts/mirrorseaMain.sol:mirrorseaMain",
								"label": "openTime",
								"offset": 0,
								"slot": "6",
								"type": "t_uint256"
							},
							{
								"astId": 1201,
								"contract": "contracts/mirrorseaMain.sol:mirrorseaMain",
								"label": "closePrice18",
								"offset": 0,
								"slot": "7",
								"type": "t_uint256"
							},
							{
								"astId": 1203,
								"contract": "contracts/mirrorseaMain.sol:mirrorseaMain",
								"label": "closeTime",
								"offset": 0,
								"slot": "8",
								"type": "t_uint256"
							},
							{
								"astId": 1205,
								"contract": "contracts/mirrorseaMain.sol:mirrorseaMain",
								"label": "amt",
								"offset": 0,
								"slot": "9",
								"type": "t_uint256"
							},
							{
								"astId": 1207,
								"contract": "contracts/mirrorseaMain.sol:mirrorseaMain",
								"label": "margin",
								"offset": 0,
								"slot": "10",
								"type": "t_uint256"
							}
						],
						"numberOfBytes": "352"
					},
					"t_uint256": {
						"encoding": "inplace",
						"label": "uint256",
						"numberOfBytes": "32"
					}
				}
			},
			"userdoc": {
				"kind": "user",
				"methods": {},
				"version": 1
			}
		}
	}
}