{
	"contracts/helperLogic.sol": {
		"helperLogic": {
			"abi": [
				{
					"anonymous": false,
					"inputs": [
						{
							"indexed": true,
							"internalType": "address",
							"name": "previousOwner",
							"type": "address"
						},
						{
							"indexed": true,
							"internalType": "address",
							"name": "newOwner",
							"type": "address"
						}
					],
					"name": "OwnershipTransferred",
					"type": "event"
				},
				{
					"inputs": [],
					"name": "Factory",
					"outputs": [
						{
							"internalType": "contract IUniswapV2Factory",
							"name": "",
							"type": "address"
						}
					],
					"stateMutability": "view",
					"type": "function"
				},
				{
					"inputs": [],
					"name": "PRECISION",
					"outputs": [
						{
							"internalType": "uint256",
							"name": "",
							"type": "uint256"
						}
					],
					"stateMutability": "view",
					"type": "function"
				},
				{
					"inputs": [],
					"name": "Router",
					"outputs": [
						{
							"internalType": "contract IUniswapV2Router02",
							"name": "",
							"type": "address"
						}
					],
					"stateMutability": "view",
					"type": "function"
				},
				{
					"inputs": [],
					"name": "autoAdjustFarm",
					"outputs": [
						{
							"internalType": "bool",
							"name": "",
							"type": "bool"
						}
					],
					"stateMutability": "view",
					"type": "function"
				},
				{
					"inputs": [],
					"name": "basePoint",
					"outputs": [
						{
							"internalType": "uint256",
							"name": "",
							"type": "uint256"
						}
					],
					"stateMutability": "view",
					"type": "function"
				},
				{
					"inputs": [],
					"name": "dev",
					"outputs": [
						{
							"internalType": "address",
							"name": "",
							"type": "address"
						}
					],
					"stateMutability": "view",
					"type": "function"
				},
				{
					"inputs": [
						{
							"internalType": "address",
							"name": "",
							"type": "address"
						}
					],
					"name": "executor",
					"outputs": [
						{
							"internalType": "bool",
							"name": "",
							"type": "bool"
						}
					],
					"stateMutability": "view",
					"type": "function"
				},
				{
					"inputs": [],
					"name": "farm",
					"outputs": [
						{
							"internalType": "contract IFarm",
							"name": "",
							"type": "address"
						}
					],
					"stateMutability": "view",
					"type": "function"
				},
				{
					"inputs": [
						{
							"internalType": "contract IUniswapV2Factory",
							"name": "_Factory",
							"type": "address"
						},
						{
							"internalType": "contract IUniswapV2Router02",
							"name": "_Router",
							"type": "address"
						},
						{
							"internalType": "contract IERC20Upgradeable",
							"name": "_usc",
							"type": "address"
						},
						{
							"internalType": "contract IERC20Upgradeable",
							"name": "_sea",
							"type": "address"
						},
						{
							"internalType": "contract IERC20Upgradeable",
							"name": "_ssea",
							"type": "address"
						},
						{
							"internalType": "contract IFarm",
							"name": "_farm",
							"type": "address"
						}
					],
					"name": "initialize",
					"outputs": [],
					"stateMutability": "nonpayable",
					"type": "function"
				},
				{
					"inputs": [],
					"name": "jointExecution",
					"outputs": [
						{
							"internalType": "bool",
							"name": "",
							"type": "bool"
						}
					],
					"stateMutability": "nonpayable",
					"type": "function"
				},
				{
					"inputs": [],
					"name": "op",
					"outputs": [
						{
							"internalType": "address",
							"name": "",
							"type": "address"
						}
					],
					"stateMutability": "view",
					"type": "function"
				},
				{
					"inputs": [],
					"name": "openStabilizer",
					"outputs": [
						{
							"internalType": "bool",
							"name": "",
							"type": "bool"
						}
					],
					"stateMutability": "view",
					"type": "function"
				},
				{
					"inputs": [],
					"name": "owner",
					"outputs": [
						{
							"internalType": "address",
							"name": "",
							"type": "address"
						}
					],
					"stateMutability": "view",
					"type": "function"
				},
				{
					"inputs": [],
					"name": "pid",
					"outputs": [
						{
							"internalType": "uint256",
							"name": "",
							"type": "uint256"
						}
					],
					"stateMutability": "view",
					"type": "function"
				},
				{
					"inputs": [],
					"name": "renounceOwnership",
					"outputs": [],
					"stateMutability": "nonpayable",
					"type": "function"
				},
				{
					"inputs": [],
					"name": "sea",
					"outputs": [
						{
							"internalType": "contract IERC20Upgradeable",
							"name": "",
							"type": "address"
						}
					],
					"stateMutability": "view",
					"type": "function"
				},
				{
					"inputs": [
						{
							"internalType": "bool",
							"name": "_bool",
							"type": "bool"
						}
					],
					"name": "setAutoAdjustFarm",
					"outputs": [
						{
							"internalType": "bool",
							"name": "",
							"type": "bool"
						}
					],
					"stateMutability": "nonpayable",
					"type": "function"
				},
				{
					"inputs": [
						{
							"internalType": "address",
							"name": "_address",
							"type": "address"
						}
					],
					"name": "setDev",
					"outputs": [
						{
							"internalType": "bool",
							"name": "",
							"type": "bool"
						}
					],
					"stateMutability": "nonpayable",
					"type": "function"
				},
				{
					"inputs": [
						{
							"internalType": "address",
							"name": "_address",
							"type": "address"
						},
						{
							"internalType": "bool",
							"name": "_type",
							"type": "bool"
						}
					],
					"name": "setExecutor",
					"outputs": [
						{
							"internalType": "bool",
							"name": "",
							"type": "bool"
						}
					],
					"stateMutability": "nonpayable",
					"type": "function"
				},
				{
					"inputs": [
						{
							"internalType": "address",
							"name": "_address",
							"type": "address"
						}
					],
					"name": "setOp",
					"outputs": [
						{
							"internalType": "bool",
							"name": "",
							"type": "bool"
						}
					],
					"stateMutability": "nonpayable",
					"type": "function"
				},
				{
					"inputs": [
						{
							"internalType": "bool",
							"name": "_bool",
							"type": "bool"
						}
					],
					"name": "setOpenStabilizer",
					"outputs": [
						{
							"internalType": "bool",
							"name": "",
							"type": "bool"
						}
					],
					"stateMutability": "nonpayable",
					"type": "function"
				},
				{
					"inputs": [
						{
							"internalType": "uint256",
							"name": "_val",
							"type": "uint256"
						}
					],
					"name": "setPid",
					"outputs": [
						{
							"internalType": "bool",
							"name": "",
							"type": "bool"
						}
					],
					"stateMutability": "nonpayable",
					"type": "function"
				},
				{
					"inputs": [
						{
							"internalType": "address",
							"name": "_address",
							"type": "address"
						}
					],
					"name": "setStabilizer",
					"outputs": [
						{
							"internalType": "bool",
							"name": "",
							"type": "bool"
						}
					],
					"stateMutability": "nonpayable",
					"type": "function"
				},
				{
					"inputs": [
						{
							"internalType": "uint256",
							"name": "_val",
							"type": "uint256"
						}
					],
					"name": "setToDevPercent",
					"outputs": [
						{
							"internalType": "bool",
							"name": "",
							"type": "bool"
						}
					],
					"stateMutability": "nonpayable",
					"type": "function"
				},
				{
					"inputs": [
						{
							"internalType": "uint256",
							"name": "_val",
							"type": "uint256"
						}
					],
					"name": "setToOpPercent",
					"outputs": [
						{
							"internalType": "bool",
							"name": "",
							"type": "bool"
						}
					],
					"stateMutability": "nonpayable",
					"type": "function"
				},
				{
					"inputs": [
						{
							"internalType": "uint256",
							"name": "_val",
							"type": "uint256"
						}
					],
					"name": "setToSseaPercent",
					"outputs": [
						{
							"internalType": "bool",
							"name": "",
							"type": "bool"
						}
					],
					"stateMutability": "nonpayable",
					"type": "function"
				},
				{
					"inputs": [],
					"name": "ssea",
					"outputs": [
						{
							"internalType": "contract IERC20Upgradeable",
							"name": "",
							"type": "address"
						}
					],
					"stateMutability": "view",
					"type": "function"
				},
				{
					"inputs": [],
					"name": "stabilizer",
					"outputs": [
						{
							"internalType": "address",
							"name": "",
							"type": "address"
						}
					],
					"stateMutability": "view",
					"type": "function"
				},
				{
					"inputs": [],
					"name": "toDevPercent",
					"outputs": [
						{
							"internalType": "uint256",
							"name": "",
							"type": "uint256"
						}
					],
					"stateMutability": "view",
					"type": "function"
				},
				{
					"inputs": [],
					"name": "toOpPercent",
					"outputs": [
						{
							"internalType": "uint256",
							"name": "",
							"type": "uint256"
						}
					],
					"stateMutability": "view",
					"type": "function"
				},
				{
					"inputs": [],
					"name": "toSseaPercent",
					"outputs": [
						{
							"internalType": "uint256",
							"name": "",
							"type": "uint256"
						}
					],
					"stateMutability": "view",
					"type": "function"
				},
				{
					"inputs": [
						{
							"internalType": "address",
							"name": "newOwner",
							"type": "address"
						}
					],
					"name": "transferOwnership",
					"outputs": [],
					"stateMutability": "nonpayable",
					"type": "function"
				},
				{
					"inputs": [],
					"name": "usc",
					"outputs": [
						{
							"internalType": "contract IERC20Upgradeable",
							"name": "",
							"type": "address"
						}
					],
					"stateMutability": "view",
					"type": "function"
				},
				{
					"inputs": [],
					"name": "usdc",
					"outputs": [
						{
							"internalType": "contract IERC20Upgradeable",
							"name": "",
							"type": "address"
						}
					],
					"stateMutability": "view",
					"type": "function"
				},
				{
					"inputs": [
						{
							"internalType": "address",
							"name": "_address",
							"type": "address"
						},
						{
							"internalType": "uint256",
							"name": "_amt",
							"type": "uint256"
						}
					],
					"name": "withdrawalERC20",
					"outputs": [
						{
							"internalType": "bool",
							"name": "",
							"type": "bool"
						}
					],
					"stateMutability": "nonpayable",
					"type": "function"
				}
			],
			"devdoc": {
				"kind": "dev",
				"methods": {
					"owner()": {
						"details": "Returns the address of the current owner."
					},
					"renounceOwnership()": {
						"details": "Leaves the contract without owner. It will not be possible to call `onlyOwner` functions anymore. Can only be called by the current owner. NOTE: Renouncing ownership will leave the contract without an owner, thereby removing any functionality that is only available to the owner."
					},
					"transferOwnership(address)": {
						"details": "Transfers ownership of the contract to a new account (`newOwner`). Can only be called by the current owner."
					}
				},
				"version": 1
			},
			"evm": {
				"assembly": "    /* \"contracts/helperLogic.sol\":909:5810  contract helperLogic is Initializable, OwnableUpgradeable {... */\n  mstore(0x40, 0x80)\n  callvalue\n  dup1\n  iszero\n  tag_1\n  jumpi\n  0x00\n  dup1\n  revert\ntag_1:\n  pop\n  dataSize(sub_0)\n  dup1\n  dataOffset(sub_0)\n  0x00\n  codecopy\n  0x00\n  return\nstop\n\nsub_0: assembly {\n        /* \"contracts/helperLogic.sol\":909:5810  contract helperLogic is Initializable, OwnableUpgradeable {... */\n      mstore(0x40, 0x80)\n      callvalue\n      dup1\n      iszero\n      tag_1\n      jumpi\n      0x00\n      dup1\n      revert\n    tag_1:\n      pop\n      jumpi(tag_2, lt(calldatasize, 0x04))\n      shr(0xe0, calldataload(0x00))\n      dup1\n      0x8da5cb5b\n      gt\n      tag_38\n      jumpi\n      dup1\n      0xc83dd231\n      gt\n      tag_39\n      jumpi\n      dup1\n      0xdb7f521a\n      gt\n      tag_40\n      jumpi\n      dup1\n      0xdb7f521a\n      eq\n      tag_33\n      jumpi\n      dup1\n      0xec1f1f69\n      eq\n      tag_34\n      jumpi\n      dup1\n      0xf1068454\n      eq\n      tag_35\n      jumpi\n      dup1\n      0xf2fde38b\n      eq\n      tag_36\n      jumpi\n      dup1\n      0xf6d7eade\n      eq\n      tag_37\n      jumpi\n      jump(tag_2)\n    tag_40:\n      dup1\n      0xc83dd231\n      eq\n      tag_29\n      jumpi\n      dup1\n      0xcc2a9a5b\n      eq\n      tag_30\n      jumpi\n      dup1\n      0xd10c06a2\n      eq\n      tag_31\n      jumpi\n      dup1\n      0xd477f05f\n      eq\n      tag_32\n      jumpi\n      jump(tag_2)\n    tag_39:\n      dup1\n      0xa36a7526\n      gt\n      tag_41\n      jumpi\n      dup1\n      0xa36a7526\n      eq\n      tag_24\n      jumpi\n      dup1\n      0xaaf5eb68\n      eq\n      tag_25\n      jumpi\n      dup1\n      0xaf5518c4\n      eq\n      tag_26\n      jumpi\n      dup1\n      0xb8bb97a1\n      eq\n      tag_27\n      jumpi\n      dup1\n      0xbd0b1f44\n      eq\n      tag_28\n      jumpi\n      jump(tag_2)\n    tag_41:\n      dup1\n      0x8da5cb5b\n      eq\n      tag_20\n      jumpi\n      dup1\n      0x91cca3db\n      eq\n      tag_21\n      jumpi\n      dup1\n      0x930ed033\n      eq\n      tag_22\n      jumpi\n      dup1\n      0x9da5b0d5\n      eq\n      tag_23\n      jumpi\n      jump(tag_2)\n    tag_38:\n      dup1\n      0x3e413bee\n      gt\n      tag_42\n      jumpi\n      dup1\n      0x4ecaac41\n      gt\n      tag_43\n      jumpi\n      dup1\n      0x4ecaac41\n      eq\n      tag_15\n      jumpi\n      dup1\n      0x55c746d1\n      eq\n      tag_16\n      jumpi\n      dup1\n      0x58de5de8\n      eq\n      tag_17\n      jumpi\n      dup1\n      0x715018a6\n      eq\n      tag_18\n      jumpi\n      dup1\n      0x7e47961c\n      eq\n      tag_19\n      jumpi\n      jump(tag_2)\n    tag_43:\n      dup1\n      0x3e413bee\n      eq\n      tag_11\n      jumpi\n      dup1\n      0x4591db50\n      eq\n      tag_12\n      jumpi\n      dup1\n      0x48c7e528\n      eq\n      tag_13\n      jumpi\n      dup1\n      0x4ae6a027\n      eq\n      tag_14\n      jumpi\n      jump(tag_2)\n    tag_42:\n      dup1\n      0x2c535a52\n      gt\n      tag_44\n      jumpi\n      dup1\n      0x2c535a52\n      eq\n      tag_7\n      jumpi\n      dup1\n      0x3011d3d5\n      eq\n      tag_8\n      jumpi\n      dup1\n      0x36e9332d\n      eq\n      tag_9\n      jumpi\n      dup1\n      0x3c850e1e\n      eq\n      tag_10\n      jumpi\n      jump(tag_2)\n    tag_44:\n      dup1\n      0x16d03993\n      eq\n      tag_3\n      jumpi\n      dup1\n      0x1b0d8aab\n      eq\n      tag_4\n      jumpi\n      dup1\n      0x1e1bff3f\n      eq\n      tag_5\n      jumpi\n      dup1\n      0x27c42a50\n      eq\n      tag_6\n      jumpi\n    tag_2:\n      0x00\n      dup1\n      revert\n        /* \"contracts/helperLogic.sol\":1525:1549  uint256 public basePoint */\n    tag_3:\n      tag_45\n      tag_46\n      jump\t// in\n    tag_45:\n      mload(0x40)\n      tag_47\n      swap2\n      swap1\n      tag_48\n      jump\t// in\n    tag_47:\n      mload(0x40)\n      dup1\n      swap2\n      sub\n      swap1\n      return\n        /* \"contracts/helperLogic.sol\":5696:5808  function setPid(uint256 _val) external onlyOwner returns (bool) {... */\n    tag_4:\n      tag_49\n      tag_50\n      calldatasize\n      0x04\n      tag_51\n      jump\t// in\n    tag_50:\n      tag_52\n      jump\t// in\n    tag_49:\n      mload(0x40)\n      tag_47\n      swap2\n      swap1\n      tag_54\n      jump\t// in\n        /* \"contracts/helperLogic.sol\":2536:2713  function setExecutor(address _address, bool _type)... */\n    tag_5:\n      tag_49\n      tag_56\n      calldatasize\n      0x04\n      tag_57\n      jump\t// in\n    tag_56:\n      tag_58\n      jump\t// in\n        /* \"contracts/helperLogic.sol\":4870:5002  function setToSseaPercent(uint256 _val) external onlyOwner returns (bool) {... */\n    tag_6:\n      tag_49\n      tag_61\n      calldatasize\n      0x04\n      tag_51\n      jump\t// in\n    tag_61:\n      tag_62\n      jump\t// in\n        /* \"contracts/helperLogic.sol\":1429:1455  uint256 public toOpPercent */\n    tag_7:\n      tag_45\n      tag_65\n      jump\t// in\n        /* \"contracts/helperLogic.sol\":1132:1160  IERC20Upgradeable public usc */\n    tag_8:\n      tag_67\n      tag_68\n      jump\t// in\n    tag_67:\n      mload(0x40)\n      tag_47\n      swap2\n      swap1\n      tag_110\n      jump\t// in\n        /* \"contracts/helperLogic.sol\":1580:1597  IFarm public farm */\n    tag_9:\n      tag_67\n      tag_72\n      jump\t// in\n        /* \"contracts/helperLogic.sol\":5142:5272  function setToDevPercent(uint256 _val) external onlyOwner returns (bool) {... */\n    tag_10:\n      tag_49\n      tag_76\n      calldatasize\n      0x04\n      tag_51\n      jump\t// in\n    tag_76:\n      tag_77\n      jump\t// in\n        /* \"contracts/helperLogic.sol\":1166:1195  IERC20Upgradeable public usdc */\n    tag_11:\n      tag_67\n      tag_80\n      jump\t// in\n        /* \"contracts/helperLogic.sol\":5278:5411  function setAutoAdjustFarm(bool _bool) external onlyOwner returns (bool) {... */\n    tag_12:\n      tag_49\n      tag_83\n      calldatasize\n      0x04\n      tag_84\n      jump\t// in\n    tag_83:\n      tag_85\n      jump\t// in\n        /* \"contracts/helperLogic.sol\":1086:1126  mapping(address => bool) public executor */\n    tag_13:\n      tag_49\n      tag_88\n      calldatasize\n      0x04\n      tag_89\n      jump\t// in\n    tag_88:\n      tag_90\n      jump\t// in\n        /* \"contracts/helperLogic.sol\":1461:1488  uint256 public toDevPercent */\n    tag_14:\n      tag_45\n      tag_93\n      jump\t// in\n        /* \"contracts/helperLogic.sol\":1201:1229  IERC20Upgradeable public sea */\n    tag_15:\n      tag_67\n      tag_96\n      jump\t// in\n        /* \"contracts/helperLogic.sol\":5417:5550  function setOpenStabilizer(bool _bool) external onlyOwner returns (bool) {... */\n    tag_16:\n      tag_49\n      tag_99\n      calldatasize\n      0x04\n      tag_84\n      jump\t// in\n    tag_99:\n      tag_100\n      jump\t// in\n        /* \"contracts/helperLogic.sol\":1636:1662  bool public openStabilizer */\n    tag_17:\n      tag_49\n      tag_103\n      jump\t// in\n        /* \"@openzeppelin/contracts-upgradeable/access/OwnableUpgradeable.sol\":1934:2035  function renounceOwnership() public virtual onlyOwner {... */\n    tag_18:\n      tag_105\n      tag_106\n      jump\t// in\n    tag_105:\n      stop\n        /* \"contracts/helperLogic.sol\":1669:1694  address public stabilizer */\n    tag_19:\n      tag_67\n      tag_108\n      jump\t// in\n        /* \"@openzeppelin/contracts-upgradeable/access/OwnableUpgradeable.sol\":1302:1387  function owner() public view virtual returns (address) {... */\n    tag_20:\n      tag_67\n      tag_112\n      jump\t// in\n        /* \"contracts/helperLogic.sol\":1293:1311  address public dev */\n    tag_21:\n      tag_67\n      tag_115\n      jump\t// in\n        /* \"contracts/helperLogic.sol\":4399:4614  function withdrawalERC20(address _address, uint256 _amt)... */\n    tag_22:\n      tag_49\n      tag_118\n      calldatasize\n      0x04\n      tag_119\n      jump\t// in\n    tag_118:\n      tag_120\n      jump\t// in\n        /* \"contracts/helperLogic.sol\":1604:1630  bool public autoAdjustFarm */\n    tag_23:\n      tag_49\n      tag_123\n      jump\t// in\n        /* \"contracts/helperLogic.sol\":4620:4738  function setOp(address _address) external onlyOwner returns (bool) {... */\n    tag_24:\n      tag_49\n      tag_126\n      calldatasize\n      0x04\n      tag_89\n      jump\t// in\n    tag_126:\n      tag_127\n      jump\t// in\n        /* \"contracts/helperLogic.sol\":1494:1518  uint256 public PRECISION */\n    tag_25:\n      tag_45\n      tag_130\n      jump\t// in\n        /* \"contracts/helperLogic.sol\":5008:5136  function setToOpPercent(uint256 _val) external onlyOwner returns (bool) {... */\n    tag_26:\n      tag_49\n      tag_133\n      calldatasize\n      0x04\n      tag_51\n      jump\t// in\n    tag_133:\n      tag_134\n      jump\t// in\n        /* \"contracts/helperLogic.sol\":1235:1264  IERC20Upgradeable public ssea */\n    tag_27:\n      tag_67\n      tag_137\n      jump\t// in\n        /* \"contracts/helperLogic.sol\":1395:1423  uint256 public toSseaPercent */\n    tag_28:\n      tag_45\n      tag_140\n      jump\t// in\n        /* \"contracts/helperLogic.sol\":1356:1388  IUniswapV2Factory public Factory */\n    tag_29:\n      tag_67\n      tag_143\n      jump\t// in\n        /* \"contracts/helperLogic.sol\":1701:2530  function initialize(... */\n    tag_30:\n      tag_105\n      tag_147\n      calldatasize\n      0x04\n      tag_148\n      jump\t// in\n    tag_147:\n      tag_149\n      jump\t// in\n        /* \"contracts/helperLogic.sol\":2846:3503  function jointExecution() external onlyExecutor returns (bool) {... */\n    tag_31:\n      tag_49\n      tag_151\n      jump\t// in\n        /* \"contracts/helperLogic.sol\":4744:4864  function setDev(address _address) external onlyOwner returns (bool) {... */\n    tag_32:\n      tag_49\n      tag_154\n      calldatasize\n      0x04\n      tag_89\n      jump\t// in\n    tag_154:\n      tag_155\n      jump\t// in\n        /* \"contracts/helperLogic.sol\":5556:5690  function setStabilizer(address _address) external onlyOwner returns (bool) {... */\n    tag_33:\n      tag_49\n      tag_158\n      calldatasize\n      0x04\n      tag_89\n      jump\t// in\n    tag_158:\n      tag_159\n      jump\t// in\n        /* \"contracts/helperLogic.sol\":1270:1287  address public op */\n    tag_34:\n      tag_67\n      tag_162\n      jump\t// in\n        /* \"contracts/helperLogic.sol\":1555:1573  uint256 public pid */\n    tag_35:\n      tag_45\n      tag_165\n      jump\t// in\n        /* \"@openzeppelin/contracts-upgradeable/access/OwnableUpgradeable.sol\":2184:2382  function transferOwnership(address newOwner) public virtual onlyOwner {... */\n    tag_36:\n      tag_105\n      tag_168\n      calldatasize\n      0x04\n      tag_89\n      jump\t// in\n    tag_168:\n      tag_169\n      jump\t// in\n        /* \"contracts/helperLogic.sol\":1318:1350  IUniswapV2Router02 public Router */\n    tag_37:\n      tag_67\n      tag_171\n      jump\t// in\n        /* \"contracts/helperLogic.sol\":1525:1549  uint256 public basePoint */\n    tag_46:\n      sload(0x72)\n      dup2\n      jump\t// out\n        /* \"contracts/helperLogic.sol\":5696:5808  function setPid(uint256 _val) external onlyOwner returns (bool) {... */\n    tag_52:\n        /* \"contracts/helperLogic.sol\":5754:5758  bool */\n      0x00\n        /* \"@openzeppelin/contracts-upgradeable/access/OwnableUpgradeable.sol\":1525:1537  _msgSender() */\n      tag_175\n        /* \"@openzeppelin/contracts-upgradeable/access/OwnableUpgradeable.sol\":1525:1535  _msgSender */\n      tag_176\n        /* \"@openzeppelin/contracts-upgradeable/access/OwnableUpgradeable.sol\":1525:1537  _msgSender() */\n      jump\t// in\n    tag_175:\n      sub(shl(0xa0, 0x01), 0x01)\n        /* \"@openzeppelin/contracts-upgradeable/access/OwnableUpgradeable.sol\":1514:1537  owner() == _msgSender() */\n      and\n        /* \"@openzeppelin/contracts-upgradeable/access/OwnableUpgradeable.sol\":1514:1521  owner() */\n      tag_177\n        /* \"@openzeppelin/contracts-upgradeable/access/OwnableUpgradeable.sol\":1514:1519  owner */\n      tag_112\n        /* \"@openzeppelin/contracts-upgradeable/access/OwnableUpgradeable.sol\":1514:1521  owner() */\n      jump\t// in\n    tag_177:\n      sub(shl(0xa0, 0x01), 0x01)\n        /* \"@openzeppelin/contracts-upgradeable/access/OwnableUpgradeable.sol\":1514:1537  owner() == _msgSender() */\n      and\n      eq\n        /* \"@openzeppelin/contracts-upgradeable/access/OwnableUpgradeable.sol\":1506:1574  require(owner() == _msgSender(), \"Ownable: caller is not the owner\") */\n      tag_178\n      jumpi\n      mload(0x40)\n      shl(0xe5, 0x461bcd)\n      dup2\n      mstore\n      0x04\n      add\n      tag_179\n      swap1\n      tag_180\n      jump\t// in\n    tag_179:\n      mload(0x40)\n      dup1\n      swap2\n      sub\n      swap1\n      revert\n    tag_178:\n      pop\n        /* \"contracts/helperLogic.sol\":5770:5773  pid */\n      0x73\n        /* \"contracts/helperLogic.sol\":5770:5780  pid = _val */\n      sstore\n        /* \"contracts/helperLogic.sol\":5797:5801  true */\n      0x01\n      swap1\n        /* \"contracts/helperLogic.sol\":5696:5808  function setPid(uint256 _val) external onlyOwner returns (bool) {... */\n      jump\t// out\n        /* \"contracts/helperLogic.sol\":2536:2713  function setExecutor(address _address, bool _type)... */\n    tag_58:\n        /* \"contracts/helperLogic.sol\":2639:2643  bool */\n      0x00\n        /* \"@openzeppelin/contracts-upgradeable/access/OwnableUpgradeable.sol\":1525:1537  _msgSender() */\n      tag_183\n        /* \"@openzeppelin/contracts-upgradeable/access/OwnableUpgradeable.sol\":1525:1535  _msgSender */\n      tag_176\n        /* \"@openzeppelin/contracts-upgradeable/access/OwnableUpgradeable.sol\":1525:1537  _msgSender() */\n      jump\t// in\n    tag_183:\n      sub(shl(0xa0, 0x01), 0x01)\n        /* \"@openzeppelin/contracts-upgradeable/access/OwnableUpgradeable.sol\":1514:1537  owner() == _msgSender() */\n      and\n        /* \"@openzeppelin/contracts-upgradeable/access/OwnableUpgradeable.sol\":1514:1521  owner() */\n      tag_184\n        /* \"@openzeppelin/contracts-upgradeable/access/OwnableUpgradeable.sol\":1514:1519  owner */\n      tag_112\n        /* \"@openzeppelin/contracts-upgradeable/access/OwnableUpgradeable.sol\":1514:1521  owner() */\n      jump\t// in\n    tag_184:\n      sub(shl(0xa0, 0x01), 0x01)\n        /* \"@openzeppelin/contracts-upgradeable/access/OwnableUpgradeable.sol\":1514:1537  owner() == _msgSender() */\n      and\n      eq\n        /* \"@openzeppelin/contracts-upgradeable/access/OwnableUpgradeable.sol\":1506:1574  require(owner() == _msgSender(), \"Ownable: caller is not the owner\") */\n      tag_185\n      jumpi\n      mload(0x40)\n      shl(0xe5, 0x461bcd)\n      dup2\n      mstore\n      0x04\n      add\n      tag_179\n      swap1\n      tag_180\n      jump\t// in\n    tag_185:\n      pop\n      sub(shl(0xa0, 0x01), 0x01)\n        /* \"contracts/helperLogic.sol\":2659:2677  executor[_address] */\n      dup3\n      and\n      0x00\n      swap1\n      dup2\n      mstore\n        /* \"contracts/helperLogic.sol\":2659:2667  executor */\n      0x65\n        /* \"contracts/helperLogic.sol\":2659:2677  executor[_address] */\n      0x20\n      mstore\n      0x40\n      swap1\n      keccak256\n        /* \"contracts/helperLogic.sol\":2659:2685  executor[_address] = _type */\n      dup1\n      sload\n      dup3\n      iszero\n      iszero\n      not(0xff)\n      swap1\n      swap2\n      and\n      or\n      swap1\n      sstore\n      0x01\n        /* \"contracts/helperLogic.sol\":2536:2713  function setExecutor(address _address, bool _type)... */\n      swap3\n      swap2\n      pop\n      pop\n      jump\t// out\n        /* \"contracts/helperLogic.sol\":4870:5002  function setToSseaPercent(uint256 _val) external onlyOwner returns (bool) {... */\n    tag_62:\n        /* \"contracts/helperLogic.sol\":4938:4942  bool */\n      0x00\n        /* \"@openzeppelin/contracts-upgradeable/access/OwnableUpgradeable.sol\":1525:1537  _msgSender() */\n      tag_189\n        /* \"@openzeppelin/contracts-upgradeable/access/OwnableUpgradeable.sol\":1525:1535  _msgSender */\n      tag_176\n        /* \"@openzeppelin/contracts-upgradeable/access/OwnableUpgradeable.sol\":1525:1537  _msgSender() */\n      jump\t// in\n    tag_189:\n      sub(shl(0xa0, 0x01), 0x01)\n        /* \"@openzeppelin/contracts-upgradeable/access/OwnableUpgradeable.sol\":1514:1537  owner() == _msgSender() */\n      and\n        /* \"@openzeppelin/contracts-upgradeable/access/OwnableUpgradeable.sol\":1514:1521  owner() */\n      tag_190\n        /* \"@openzeppelin/contracts-upgradeable/access/OwnableUpgradeable.sol\":1514:1519  owner */\n      tag_112\n        /* \"@openzeppelin/contracts-upgradeable/access/OwnableUpgradeable.sol\":1514:1521  owner() */\n      jump\t// in\n    tag_190:\n      sub(shl(0xa0, 0x01), 0x01)\n        /* \"@openzeppelin/contracts-upgradeable/access/OwnableUpgradeable.sol\":1514:1537  owner() == _msgSender() */\n      and\n      eq\n        /* \"@openzeppelin/contracts-upgradeable/access/OwnableUpgradeable.sol\":1506:1574  require(owner() == _msgSender(), \"Ownable: caller is not the owner\") */\n      tag_191\n      jumpi\n      mload(0x40)\n      shl(0xe5, 0x461bcd)\n      dup2\n      mstore\n      0x04\n      add\n      tag_179\n      swap1\n      tag_180\n      jump\t// in\n    tag_191:\n      pop\n        /* \"contracts/helperLogic.sol\":4954:4967  toSseaPercent */\n      0x6e\n        /* \"contracts/helperLogic.sol\":4954:4974  toSseaPercent = _val */\n      sstore\n        /* \"contracts/helperLogic.sol\":4991:4995  true */\n      0x01\n      swap1\n        /* \"contracts/helperLogic.sol\":4870:5002  function setToSseaPercent(uint256 _val) external onlyOwner returns (bool) {... */\n      jump\t// out\n        /* \"contracts/helperLogic.sol\":1429:1455  uint256 public toOpPercent */\n    tag_65:\n      sload(0x6f)\n      dup2\n      jump\t// out\n        /* \"contracts/helperLogic.sol\":1132:1160  IERC20Upgradeable public usc */\n    tag_68:\n      and(sub(shl(0xa0, 0x01), 0x01), sload(0x66))\n      dup2\n      jump\t// out\n        /* \"contracts/helperLogic.sol\":1580:1597  IFarm public farm */\n    tag_72:\n      and(sub(shl(0xa0, 0x01), 0x01), sload(0x74))\n      dup2\n      jump\t// out\n        /* \"contracts/helperLogic.sol\":5142:5272  function setToDevPercent(uint256 _val) external onlyOwner returns (bool) {... */\n    tag_77:\n        /* \"contracts/helperLogic.sol\":5209:5213  bool */\n      0x00\n        /* \"@openzeppelin/contracts-upgradeable/access/OwnableUpgradeable.sol\":1525:1537  _msgSender() */\n      tag_195\n        /* \"@openzeppelin/contracts-upgradeable/access/OwnableUpgradeable.sol\":1525:1535  _msgSender */\n      tag_176\n        /* \"@openzeppelin/contracts-upgradeable/access/OwnableUpgradeable.sol\":1525:1537  _msgSender() */\n      jump\t// in\n    tag_195:\n      sub(shl(0xa0, 0x01), 0x01)\n        /* \"@openzeppelin/contracts-upgradeable/access/OwnableUpgradeable.sol\":1514:1537  owner() == _msgSender() */\n      and\n        /* \"@openzeppelin/contracts-upgradeable/access/OwnableUpgradeable.sol\":1514:1521  owner() */\n      tag_196\n        /* \"@openzeppelin/contracts-upgradeable/access/OwnableUpgradeable.sol\":1514:1519  owner */\n      tag_112\n        /* \"@openzeppelin/contracts-upgradeable/access/OwnableUpgradeable.sol\":1514:1521  owner() */\n      jump\t// in\n    tag_196:\n      sub(shl(0xa0, 0x01), 0x01)\n        /* \"@openzeppelin/contracts-upgradeable/access/OwnableUpgradeable.sol\":1514:1537  owner() == _msgSender() */\n      and\n      eq\n        /* \"@openzeppelin/contracts-upgradeable/access/OwnableUpgradeable.sol\":1506:1574  require(owner() == _msgSender(), \"Ownable: caller is not the owner\") */\n      tag_197\n      jumpi\n      mload(0x40)\n      shl(0xe5, 0x461bcd)\n      dup2\n      mstore\n      0x04\n      add\n      tag_179\n      swap1\n      tag_180\n      jump\t// in\n    tag_197:\n      pop\n        /* \"contracts/helperLogic.sol\":5225:5237  toDevPercent */\n      0x70\n        /* \"contracts/helperLogic.sol\":5225:5244  toDevPercent = _val */\n      sstore\n        /* \"contracts/helperLogic.sol\":5261:5265  true */\n      0x01\n      swap1\n        /* \"contracts/helperLogic.sol\":5142:5272  function setToDevPercent(uint256 _val) external onlyOwner returns (bool) {... */\n      jump\t// out\n        /* \"contracts/helperLogic.sol\":1166:1195  IERC20Upgradeable public usdc */\n    tag_80:\n      and(sub(shl(0xa0, 0x01), 0x01), sload(0x67))\n      dup2\n      jump\t// out\n        /* \"contracts/helperLogic.sol\":5278:5411  function setAutoAdjustFarm(bool _bool) external onlyOwner returns (bool) {... */\n    tag_85:\n        /* \"contracts/helperLogic.sol\":5345:5349  bool */\n      0x00\n        /* \"@openzeppelin/contracts-upgradeable/access/OwnableUpgradeable.sol\":1525:1537  _msgSender() */\n      tag_201\n        /* \"@openzeppelin/contracts-upgradeable/access/OwnableUpgradeable.sol\":1525:1535  _msgSender */\n      tag_176\n        /* \"@openzeppelin/contracts-upgradeable/access/OwnableUpgradeable.sol\":1525:1537  _msgSender() */\n      jump\t// in\n    tag_201:\n      sub(shl(0xa0, 0x01), 0x01)\n        /* \"@openzeppelin/contracts-upgradeable/access/OwnableUpgradeable.sol\":1514:1537  owner() == _msgSender() */\n      and\n        /* \"@openzeppelin/contracts-upgradeable/access/OwnableUpgradeable.sol\":1514:1521  owner() */\n      tag_202\n        /* \"@openzeppelin/contracts-upgradeable/access/OwnableUpgradeable.sol\":1514:1519  owner */\n      tag_112\n        /* \"@openzeppelin/contracts-upgradeable/access/OwnableUpgradeable.sol\":1514:1521  owner() */\n      jump\t// in\n    tag_202:\n      sub(shl(0xa0, 0x01), 0x01)\n        /* \"@openzeppelin/contracts-upgradeable/access/OwnableUpgradeable.sol\":1514:1537  owner() == _msgSender() */\n      and\n      eq\n        /* \"@openzeppelin/contracts-upgradeable/access/OwnableUpgradeable.sol\":1506:1574  require(owner() == _msgSender(), \"Ownable: caller is not the owner\") */\n      tag_203\n      jumpi\n      mload(0x40)\n      shl(0xe5, 0x461bcd)\n      dup2\n      mstore\n      0x04\n      add\n      tag_179\n      swap1\n      tag_180\n      jump\t// in\n    tag_203:\n      pop\n        /* \"contracts/helperLogic.sol\":5361:5375  autoAdjustFarm */\n      0x74\n        /* \"contracts/helperLogic.sol\":5361:5383  autoAdjustFarm = _bool */\n      dup1\n      sload\n      dup3\n      iszero\n      iszero\n      shl(0xa0, 0x01)\n      mul\n      not(shl(0xa0, 0xff))\n      swap1\n      swap2\n      and\n      or\n      swap1\n      sstore\n      0x01\n        /* \"contracts/helperLogic.sol\":5278:5411  function setAutoAdjustFarm(bool _bool) external onlyOwner returns (bool) {... */\n      swap2\n      swap1\n      pop\n      jump\t// out\n        /* \"contracts/helperLogic.sol\":1086:1126  mapping(address => bool) public executor */\n    tag_90:\n      mstore(0x20, 0x65)\n      0x00\n      swap1\n      dup2\n      mstore\n      0x40\n      swap1\n      keccak256\n      sload\n      0xff\n      and\n      dup2\n      jump\t// out\n        /* \"contracts/helperLogic.sol\":1461:1488  uint256 public toDevPercent */\n    tag_93:\n      sload(0x70)\n      dup2\n      jump\t// out\n        /* \"contracts/helperLogic.sol\":1201:1229  IERC20Upgradeable public sea */\n    tag_96:\n      and(sub(shl(0xa0, 0x01), 0x01), sload(0x68))\n      dup2\n      jump\t// out\n        /* \"contracts/helperLogic.sol\":5417:5550  function setOpenStabilizer(bool _bool) external onlyOwner returns (bool) {... */\n    tag_100:\n        /* \"contracts/helperLogic.sol\":5484:5488  bool */\n      0x00\n        /* \"@openzeppelin/contracts-upgradeable/access/OwnableUpgradeable.sol\":1525:1537  _msgSender() */\n      tag_207\n        /* \"@openzeppelin/contracts-upgradeable/access/OwnableUpgradeable.sol\":1525:1535  _msgSender */\n      tag_176\n        /* \"@openzeppelin/contracts-upgradeable/access/OwnableUpgradeable.sol\":1525:1537  _msgSender() */\n      jump\t// in\n    tag_207:\n      sub(shl(0xa0, 0x01), 0x01)\n        /* \"@openzeppelin/contracts-upgradeable/access/OwnableUpgradeable.sol\":1514:1537  owner() == _msgSender() */\n      and\n        /* \"@openzeppelin/contracts-upgradeable/access/OwnableUpgradeable.sol\":1514:1521  owner() */\n      tag_208\n        /* \"@openzeppelin/contracts-upgradeable/access/OwnableUpgradeable.sol\":1514:1519  owner */\n      tag_112\n        /* \"@openzeppelin/contracts-upgradeable/access/OwnableUpgradeable.sol\":1514:1521  owner() */\n      jump\t// in\n    tag_208:\n      sub(shl(0xa0, 0x01), 0x01)\n        /* \"@openzeppelin/contracts-upgradeable/access/OwnableUpgradeable.sol\":1514:1537  owner() == _msgSender() */\n      and\n      eq\n        /* \"@openzeppelin/contracts-upgradeable/access/OwnableUpgradeable.sol\":1506:1574  require(owner() == _msgSender(), \"Ownable: caller is not the owner\") */\n      tag_209\n      jumpi\n      mload(0x40)\n      shl(0xe5, 0x461bcd)\n      dup2\n      mstore\n      0x04\n      add\n      tag_179\n      swap1\n      tag_180\n      jump\t// in\n    tag_209:\n      pop\n        /* \"contracts/helperLogic.sol\":5500:5514  openStabilizer */\n      0x74\n        /* \"contracts/helperLogic.sol\":5500:5522  openStabilizer = _bool */\n      dup1\n      sload\n      dup3\n      iszero\n      iszero\n      shl(0xa8, 0x01)\n      mul\n      not(shl(0xa8, 0xff))\n      swap1\n      swap2\n      and\n      or\n      swap1\n      sstore\n      0x01\n        /* \"contracts/helperLogic.sol\":5417:5550  function setOpenStabilizer(bool _bool) external onlyOwner returns (bool) {... */\n      swap2\n      swap1\n      pop\n      jump\t// out\n        /* \"contracts/helperLogic.sol\":1636:1662  bool public openStabilizer */\n    tag_103:\n      sload(0x74)\n      shl(0xa8, 0x01)\n      swap1\n      div\n      0xff\n      and\n      dup2\n      jump\t// out\n        /* \"@openzeppelin/contracts-upgradeable/access/OwnableUpgradeable.sol\":1934:2035  function renounceOwnership() public virtual onlyOwner {... */\n    tag_106:\n        /* \"@openzeppelin/contracts-upgradeable/access/OwnableUpgradeable.sol\":1525:1537  _msgSender() */\n      tag_213\n        /* \"@openzeppelin/contracts-upgradeable/access/OwnableUpgradeable.sol\":1525:1535  _msgSender */\n      tag_176\n        /* \"@openzeppelin/contracts-upgradeable/access/OwnableUpgradeable.sol\":1525:1537  _msgSender() */\n      jump\t// in\n    tag_213:\n      sub(shl(0xa0, 0x01), 0x01)\n        /* \"@openzeppelin/contracts-upgradeable/access/OwnableUpgradeable.sol\":1514:1537  owner() == _msgSender() */\n      and\n        /* \"@openzeppelin/contracts-upgradeable/access/OwnableUpgradeable.sol\":1514:1521  owner() */\n      tag_214\n        /* \"@openzeppelin/contracts-upgradeable/access/OwnableUpgradeable.sol\":1514:1519  owner */\n      tag_112\n        /* \"@openzeppelin/contracts-upgradeable/access/OwnableUpgradeable.sol\":1514:1521  owner() */\n      jump\t// in\n    tag_214:\n      sub(shl(0xa0, 0x01), 0x01)\n        /* \"@openzeppelin/contracts-upgradeable/access/OwnableUpgradeable.sol\":1514:1537  owner() == _msgSender() */\n      and\n      eq\n        /* \"@openzeppelin/contracts-upgradeable/access/OwnableUpgradeable.sol\":1506:1574  require(owner() == _msgSender(), \"Ownable: caller is not the owner\") */\n      tag_215\n      jumpi\n      mload(0x40)\n      shl(0xe5, 0x461bcd)\n      dup2\n      mstore\n      0x04\n      add\n      tag_179\n      swap1\n      tag_180\n      jump\t// in\n    tag_215:\n        /* \"@openzeppelin/contracts-upgradeable/access/OwnableUpgradeable.sol\":1998:2028  _transferOwnership(address(0)) */\n      tag_218\n        /* \"@openzeppelin/contracts-upgradeable/access/OwnableUpgradeable.sol\":2025:2026  0 */\n      0x00\n        /* \"@openzeppelin/contracts-upgradeable/access/OwnableUpgradeable.sol\":1998:2016  _transferOwnership */\n      tag_219\n        /* \"@openzeppelin/contracts-upgradeable/access/OwnableUpgradeable.sol\":1998:2028  _transferOwnership(address(0)) */\n      jump\t// in\n    tag_218:\n        /* \"@openzeppelin/contracts-upgradeable/access/OwnableUpgradeable.sol\":1934:2035  function renounceOwnership() public virtual onlyOwner {... */\n      jump\t// out\n        /* \"contracts/helperLogic.sol\":1669:1694  address public stabilizer */\n    tag_108:\n      and(sub(shl(0xa0, 0x01), 0x01), sload(0x75))\n      dup2\n      jump\t// out\n        /* \"@openzeppelin/contracts-upgradeable/access/OwnableUpgradeable.sol\":1302:1387  function owner() public view virtual returns (address) {... */\n    tag_112:\n        /* \"@openzeppelin/contracts-upgradeable/access/OwnableUpgradeable.sol\":1374:1380  _owner */\n      and(sub(shl(0xa0, 0x01), 0x01), sload(0x33))\n        /* \"@openzeppelin/contracts-upgradeable/access/OwnableUpgradeable.sol\":1302:1387  function owner() public view virtual returns (address) {... */\n      swap1\n      jump\t// out\n        /* \"contracts/helperLogic.sol\":1293:1311  address public dev */\n    tag_115:\n      and(sub(shl(0xa0, 0x01), 0x01), sload(0x6b))\n      dup2\n      jump\t// out\n        /* \"contracts/helperLogic.sol\":4399:4614  function withdrawalERC20(address _address, uint256 _amt)... */\n    tag_120:\n        /* \"contracts/helperLogic.sol\":4508:4512  bool */\n      0x00\n        /* \"@openzeppelin/contracts-upgradeable/access/OwnableUpgradeable.sol\":1525:1537  _msgSender() */\n      tag_222\n        /* \"@openzeppelin/contracts-upgradeable/access/OwnableUpgradeable.sol\":1525:1535  _msgSender */\n      tag_176\n        /* \"@openzeppelin/contracts-upgradeable/access/OwnableUpgradeable.sol\":1525:1537  _msgSender() */\n      jump\t// in\n    tag_222:\n      sub(shl(0xa0, 0x01), 0x01)\n        /* \"@openzeppelin/contracts-upgradeable/access/OwnableUpgradeable.sol\":1514:1537  owner() == _msgSender() */\n      and\n        /* \"@openzeppelin/contracts-upgradeable/access/OwnableUpgradeable.sol\":1514:1521  owner() */\n      tag_223\n        /* \"@openzeppelin/contracts-upgradeable/access/OwnableUpgradeable.sol\":1514:1519  owner */\n      tag_112\n        /* \"@openzeppelin/contracts-upgradeable/access/OwnableUpgradeable.sol\":1514:1521  owner() */\n      jump\t// in\n    tag_223:\n      sub(shl(0xa0, 0x01), 0x01)\n        /* \"@openzeppelin/contracts-upgradeable/access/OwnableUpgradeable.sol\":1514:1537  owner() == _msgSender() */\n      and\n      eq\n        /* \"@openzeppelin/contracts-upgradeable/access/OwnableUpgradeable.sol\":1506:1574  require(owner() == _msgSender(), \"Ownable: caller is not the owner\") */\n      tag_224\n      jumpi\n      mload(0x40)\n      shl(0xe5, 0x461bcd)\n      dup2\n      mstore\n      0x04\n      add\n      tag_179\n      swap1\n      tag_180\n      jump\t// in\n    tag_224:\n        /* \"contracts/helperLogic.sol\":4528:4586  IERC20Upgradeable(_address).safeTransfer(msg.sender, _amt) */\n      tag_227\n      sub(shl(0xa0, 0x01), 0x01)\n        /* \"contracts/helperLogic.sol\":4528:4568  IERC20Upgradeable(_address).safeTransfer */\n      dup5\n      and\n        /* \"contracts/helperLogic.sol\":4569:4579  msg.sender */\n      caller\n        /* \"contracts/helperLogic.sol\":4581:4585  _amt */\n      dup5\n        /* \"contracts/helperLogic.sol\":4528:4568  IERC20Upgradeable(_address).safeTransfer */\n      tag_228\n        /* \"contracts/helperLogic.sol\":4528:4586  IERC20Upgradeable(_address).safeTransfer(msg.sender, _amt) */\n      jump\t// in\n    tag_227:\n      pop\n        /* \"contracts/helperLogic.sol\":4603:4607  true */\n      0x01\n        /* \"contracts/helperLogic.sol\":4399:4614  function withdrawalERC20(address _address, uint256 _amt)... */\n      swap3\n      swap2\n      pop\n      pop\n      jump\t// out\n        /* \"contracts/helperLogic.sol\":1604:1630  bool public autoAdjustFarm */\n    tag_123:\n      sload(0x74)\n      shl(0xa0, 0x01)\n      swap1\n      div\n      0xff\n      and\n      dup2\n      jump\t// out\n        /* \"contracts/helperLogic.sol\":4620:4738  function setOp(address _address) external onlyOwner returns (bool) {... */\n    tag_127:\n        /* \"contracts/helperLogic.sol\":4681:4685  bool */\n      0x00\n        /* \"@openzeppelin/contracts-upgradeable/access/OwnableUpgradeable.sol\":1525:1537  _msgSender() */\n      tag_230\n        /* \"@openzeppelin/contracts-upgradeable/access/OwnableUpgradeable.sol\":1525:1535  _msgSender */\n      tag_176\n        /* \"@openzeppelin/contracts-upgradeable/access/OwnableUpgradeable.sol\":1525:1537  _msgSender() */\n      jump\t// in\n    tag_230:\n      sub(shl(0xa0, 0x01), 0x01)\n        /* \"@openzeppelin/contracts-upgradeable/access/OwnableUpgradeable.sol\":1514:1537  owner() == _msgSender() */\n      and\n        /* \"@openzeppelin/contracts-upgradeable/access/OwnableUpgradeable.sol\":1514:1521  owner() */\n      tag_231\n        /* \"@openzeppelin/contracts-upgradeable/access/OwnableUpgradeable.sol\":1514:1519  owner */\n      tag_112\n        /* \"@openzeppelin/contracts-upgradeable/access/OwnableUpgradeable.sol\":1514:1521  owner() */\n      jump\t// in\n    tag_231:\n      sub(shl(0xa0, 0x01), 0x01)\n        /* \"@openzeppelin/contracts-upgradeable/access/OwnableUpgradeable.sol\":1514:1537  owner() == _msgSender() */\n      and\n      eq\n        /* \"@openzeppelin/contracts-upgradeable/access/OwnableUpgradeable.sol\":1506:1574  require(owner() == _msgSender(), \"Ownable: caller is not the owner\") */\n      tag_232\n      jumpi\n      mload(0x40)\n      shl(0xe5, 0x461bcd)\n      dup2\n      mstore\n      0x04\n      add\n      tag_179\n      swap1\n      tag_180\n      jump\t// in\n    tag_232:\n      pop\n        /* \"contracts/helperLogic.sol\":4697:4699  op */\n      0x6a\n        /* \"contracts/helperLogic.sol\":4697:4710  op = _address */\n      dup1\n      sload\n      sub(shl(0xa0, 0x01), 0x01)\n      dup4\n      and\n      not(sub(shl(0xa0, 0x01), 0x01))\n      swap1\n      swap2\n      and\n      or\n      swap1\n      sstore\n      0x01\n        /* \"contracts/helperLogic.sol\":4620:4738  function setOp(address _address) external onlyOwner returns (bool) {... */\n      swap2\n      swap1\n      pop\n      jump\t// out\n        /* \"contracts/helperLogic.sol\":1494:1518  uint256 public PRECISION */\n    tag_130:\n      sload(0x71)\n      dup2\n      jump\t// out\n        /* \"contracts/helperLogic.sol\":5008:5136  function setToOpPercent(uint256 _val) external onlyOwner returns (bool) {... */\n    tag_134:\n        /* \"contracts/helperLogic.sol\":5074:5078  bool */\n      0x00\n        /* \"@openzeppelin/contracts-upgradeable/access/OwnableUpgradeable.sol\":1525:1537  _msgSender() */\n      tag_236\n        /* \"@openzeppelin/contracts-upgradeable/access/OwnableUpgradeable.sol\":1525:1535  _msgSender */\n      tag_176\n        /* \"@openzeppelin/contracts-upgradeable/access/OwnableUpgradeable.sol\":1525:1537  _msgSender() */\n      jump\t// in\n    tag_236:\n      sub(shl(0xa0, 0x01), 0x01)\n        /* \"@openzeppelin/contracts-upgradeable/access/OwnableUpgradeable.sol\":1514:1537  owner() == _msgSender() */\n      and\n        /* \"@openzeppelin/contracts-upgradeable/access/OwnableUpgradeable.sol\":1514:1521  owner() */\n      tag_237\n        /* \"@openzeppelin/contracts-upgradeable/access/OwnableUpgradeable.sol\":1514:1519  owner */\n      tag_112\n        /* \"@openzeppelin/contracts-upgradeable/access/OwnableUpgradeable.sol\":1514:1521  owner() */\n      jump\t// in\n    tag_237:\n      sub(shl(0xa0, 0x01), 0x01)\n        /* \"@openzeppelin/contracts-upgradeable/access/OwnableUpgradeable.sol\":1514:1537  owner() == _msgSender() */\n      and\n      eq\n        /* \"@openzeppelin/contracts-upgradeable/access/OwnableUpgradeable.sol\":1506:1574  require(owner() == _msgSender(), \"Ownable: caller is not the owner\") */\n      tag_238\n      jumpi\n      mload(0x40)\n      shl(0xe5, 0x461bcd)\n      dup2\n      mstore\n      0x04\n      add\n      tag_179\n      swap1\n      tag_180\n      jump\t// in\n    tag_238:\n      pop\n        /* \"contracts/helperLogic.sol\":5090:5101  toOpPercent */\n      0x6f\n        /* \"contracts/helperLogic.sol\":5090:5108  toOpPercent = _val */\n      sstore\n        /* \"contracts/helperLogic.sol\":5125:5129  true */\n      0x01\n      swap1\n        /* \"contracts/helperLogic.sol\":5008:5136  function setToOpPercent(uint256 _val) external onlyOwner returns (bool) {... */\n      jump\t// out\n        /* \"contracts/helperLogic.sol\":1235:1264  IERC20Upgradeable public ssea */\n    tag_137:\n      and(sub(shl(0xa0, 0x01), 0x01), sload(0x69))\n      dup2\n      jump\t// out\n        /* \"contracts/helperLogic.sol\":1395:1423  uint256 public toSseaPercent */\n    tag_140:\n      sload(0x6e)\n      dup2\n      jump\t// out\n        /* \"contracts/helperLogic.sol\":1356:1388  IUniswapV2Factory public Factory */\n    tag_143:\n      and(sub(shl(0xa0, 0x01), 0x01), sload(0x6d))\n      dup2\n      jump\t// out\n        /* \"contracts/helperLogic.sol\":1701:2530  function initialize(... */\n    tag_149:\n        /* \"@openzeppelin/contracts-upgradeable/proxy/utils/Initializable.sol\":539:552  _initializing */\n      sload(0x00)\n      0x0100\n      swap1\n      div\n      0xff\n      and\n      dup1\n        /* \"@openzeppelin/contracts-upgradeable/proxy/utils/Initializable.sol\":539:569  _initializing || !_initialized */\n      tag_242\n      jumpi\n      pop\n        /* \"@openzeppelin/contracts-upgradeable/proxy/utils/Initializable.sol\":557:569  _initialized */\n      and(0xff, sload(0x00))\n        /* \"@openzeppelin/contracts-upgradeable/proxy/utils/Initializable.sol\":556:569  !_initialized */\n      iszero\n        /* \"@openzeppelin/contracts-upgradeable/proxy/utils/Initializable.sol\":539:569  _initializing || !_initialized */\n    tag_242:\n        /* \"@openzeppelin/contracts-upgradeable/proxy/utils/Initializable.sol\":531:620  require(_initializing || !_initialized, \"Initializable: contract is already initialized\") */\n      tag_243\n      jumpi\n      mload(0x40)\n      shl(0xe5, 0x461bcd)\n      dup2\n      mstore\n      0x04\n      add\n      tag_179\n      swap1\n      tag_245\n      jump\t// in\n    tag_243:\n        /* \"@openzeppelin/contracts-upgradeable/proxy/utils/Initializable.sol\":631:650  bool isTopLevelCall */\n      0x00\n        /* \"@openzeppelin/contracts-upgradeable/proxy/utils/Initializable.sol\":654:667  _initializing */\n      sload\n      0x0100\n      swap1\n      div\n      0xff\n      and\n        /* \"@openzeppelin/contracts-upgradeable/proxy/utils/Initializable.sol\":653:667  !_initializing */\n      iszero\n        /* \"@openzeppelin/contracts-upgradeable/proxy/utils/Initializable.sol\":677:775  if (isTopLevelCall) {... */\n      dup1\n      iszero\n      tag_246\n      jumpi\n        /* \"@openzeppelin/contracts-upgradeable/proxy/utils/Initializable.sol\":711:724  _initializing */\n      0x00\n        /* \"@openzeppelin/contracts-upgradeable/proxy/utils/Initializable.sol\":711:731  _initializing = true */\n      dup1\n      sload\n      not(0xff)\n      not(0xff00)\n      swap1\n      swap2\n      and\n      0x0100\n      or\n        /* \"@openzeppelin/contracts-upgradeable/proxy/utils/Initializable.sol\":745:764  _initialized = true */\n      and\n        /* \"@openzeppelin/contracts-upgradeable/proxy/utils/Initializable.sol\":727:731  true */\n      0x01\n        /* \"@openzeppelin/contracts-upgradeable/proxy/utils/Initializable.sol\":745:764  _initialized = true */\n      or\n      swap1\n      sstore\n        /* \"@openzeppelin/contracts-upgradeable/proxy/utils/Initializable.sol\":677:775  if (isTopLevelCall) {... */\n    tag_246:\n        /* \"contracts/helperLogic.sol\":2034:2050  __Ownable_init() */\n      tag_248\n        /* \"contracts/helperLogic.sol\":2034:2048  __Ownable_init */\n      tag_249\n        /* \"contracts/helperLogic.sol\":2034:2050  __Ownable_init() */\n      jump\t// in\n    tag_248:\n        /* \"contracts/helperLogic.sol\":2104:2110  Router */\n      0x6c\n        /* \"contracts/helperLogic.sol\":2104:2120  Router = _Router */\n      dup1\n      sload\n      not(sub(shl(0xa0, 0x01), 0x01))\n      swap1\n      dup2\n      and\n      sub(shl(0xa0, 0x01), 0x01)\n      dup10\n      dup2\n      and\n      swap2\n      swap1\n      swap2\n      or\n      swap1\n      swap3\n      sstore\n        /* \"contracts/helperLogic.sol\":2130:2137  Factory */\n      0x6d\n        /* \"contracts/helperLogic.sol\":2130:2148  Factory = _Factory */\n      dup1\n      sload\n      dup3\n      and\n      dup11\n      dup5\n      and\n      or\n      swap1\n      sstore\n        /* \"contracts/helperLogic.sol\":2158:2161  usc */\n      0x66\n        /* \"contracts/helperLogic.sol\":2158:2168  usc = _usc */\n      dup1\n      sload\n      dup3\n      and\n      dup9\n      dup5\n      and\n      or\n      swap1\n      sstore\n        /* \"contracts/helperLogic.sol\":2178:2181  sea */\n      0x68\n        /* \"contracts/helperLogic.sol\":2178:2188  sea = _sea */\n      dup1\n      sload\n      dup3\n      and\n      dup8\n      dup5\n      and\n      or\n      swap1\n      sstore\n        /* \"contracts/helperLogic.sol\":2198:2202  ssea */\n      0x69\n        /* \"contracts/helperLogic.sol\":2198:2210  ssea = _ssea */\n      dup1\n      sload\n      dup3\n      and\n      dup7\n      dup5\n      and\n      or\n      swap1\n      sstore\n        /* \"contracts/helperLogic.sol\":2220:2222  op */\n      0x6a\n        /* \"contracts/helperLogic.sol\":2220:2235  op = msg.sender */\n      dup1\n      sload\n        /* \"contracts/helperLogic.sol\":2225:2235  msg.sender */\n      caller\n        /* \"contracts/helperLogic.sol\":2220:2235  op = msg.sender */\n      swap1\n      dup4\n      and\n      dup2\n      or\n      swap1\n      swap2\n      sstore\n        /* \"contracts/helperLogic.sol\":2245:2248  dev */\n      0x6b\n        /* \"contracts/helperLogic.sol\":2245:2261  dev = msg.sender */\n      dup1\n      sload\n      swap1\n      swap3\n      and\n      or\n      swap1\n      sstore\n        /* \"contracts/helperLogic.sol\":2287:2291  5000 */\n      0x1388\n        /* \"contracts/helperLogic.sol\":2271:2284  toSseaPercent */\n      0x6e\n        /* \"contracts/helperLogic.sol\":2271:2291  toSseaPercent = 5000 */\n      sstore\n        /* \"contracts/helperLogic.sol\":2315:2319  2500 */\n      0x09c4\n        /* \"contracts/helperLogic.sol\":2301:2312  toOpPercent */\n      0x6f\n        /* \"contracts/helperLogic.sol\":2301:2319  toOpPercent = 2500 */\n      dup2\n      swap1\n      sstore\n        /* \"contracts/helperLogic.sol\":2329:2341  toDevPercent */\n      0x70\n        /* \"contracts/helperLogic.sol\":2329:2348  toDevPercent = 2500 */\n      sstore\n        /* \"contracts/helperLogic.sol\":2370:2375  10000 */\n      0x2710\n        /* \"contracts/helperLogic.sol\":2358:2367  PRECISION */\n      0x71\n        /* \"contracts/helperLogic.sol\":2358:2375  PRECISION = 10000 */\n      sstore\n        /* \"contracts/helperLogic.sol\":2397:2401  1000 */\n      0x03e8\n        /* \"contracts/helperLogic.sol\":2385:2394  basePoint */\n      0x72\n        /* \"contracts/helperLogic.sol\":2385:2401  basePoint = 1000 */\n      sstore\n        /* \"contracts/helperLogic.sol\":2411:2425  autoAdjustFarm */\n      0x74\n        /* \"contracts/helperLogic.sol\":2411:2432  autoAdjustFarm = true */\n      dup1\n      sload\n      shl(0xa0, 0x01)\n      not(shl(0xa0, 0xff))\n      swap1\n      swap2\n      and\n      or\n      not(sub(shl(0xa0, 0xff01), 0x01))\n        /* \"contracts/helperLogic.sol\":2474:2486  farm = _farm */\n      and\n      swap2\n      dup5\n      and\n      swap2\n      swap1\n      swap2\n      or\n      swap1\n      sstore\n        /* \"@openzeppelin/contracts-upgradeable/proxy/utils/Initializable.sol\":797:863  if (isTopLevelCall) {... */\n      dup1\n      iszero\n      tag_250\n      jumpi\n        /* \"@openzeppelin/contracts-upgradeable/proxy/utils/Initializable.sol\":847:852  false */\n      0x00\n        /* \"@openzeppelin/contracts-upgradeable/proxy/utils/Initializable.sol\":831:852  _initializing = false */\n      dup1\n      sload\n      not(0xff00)\n      and\n      swap1\n      sstore\n        /* \"@openzeppelin/contracts-upgradeable/proxy/utils/Initializable.sol\":797:863  if (isTopLevelCall) {... */\n    tag_250:\n        /* \"contracts/helperLogic.sol\":1701:2530  function initialize(... */\n      pop\n      pop\n      pop\n      pop\n      pop\n      pop\n      pop\n      jump\t// out\n        /* \"contracts/helperLogic.sol\":2846:3503  function jointExecution() external onlyExecutor returns (bool) {... */\n    tag_151:\n        /* \"contracts/helperLogic.sol\":2770:2780  msg.sender */\n      caller\n        /* \"contracts/helperLogic.sol\":2903:2907  bool */\n      0x00\n        /* \"contracts/helperLogic.sol\":2761:2781  executor[msg.sender] */\n      swap1\n      dup2\n      mstore\n        /* \"contracts/helperLogic.sol\":2761:2769  executor */\n      0x65\n        /* \"contracts/helperLogic.sol\":2761:2781  executor[msg.sender] */\n      0x20\n      mstore\n      0x40\n      dup2\n      keccak256\n      sload\n      0xff\n      and\n        /* \"contracts/helperLogic.sol\":2753:2822  require(executor[msg.sender], \"executor: caller is not the executor\") */\n      tag_252\n      jumpi\n      mload(0x40)\n      shl(0xe5, 0x461bcd)\n      dup2\n      mstore\n      0x04\n      add\n      tag_179\n      swap1\n      tag_254\n      jump\t// in\n    tag_252:\n        /* \"contracts/helperLogic.sol\":2942:2945  usc */\n      sload(0x66)\n        /* \"contracts/helperLogic.sol\":2942:2970  usc.balanceOf(address(this)) */\n      mload(0x40)\n      shl(0xe0, 0x70a08231)\n      dup2\n      mstore\n        /* \"contracts/helperLogic.sol\":2919:2939  uint256 uscBalanceOf */\n      0x00\n      swap2\n      sub(shl(0xa0, 0x01), 0x01)\n        /* \"contracts/helperLogic.sol\":2942:2945  usc */\n      and\n      swap1\n        /* \"contracts/helperLogic.sol\":2942:2955  usc.balanceOf */\n      0x70a08231\n      swap1\n        /* \"contracts/helperLogic.sol\":2942:2970  usc.balanceOf(address(this)) */\n      tag_256\n      swap1\n        /* \"contracts/helperLogic.sol\":2964:2968  this */\n      address\n      swap1\n        /* \"contracts/helperLogic.sol\":2942:2970  usc.balanceOf(address(this)) */\n      0x04\n      add\n      tag_110\n      jump\t// in\n    tag_256:\n      0x20\n      mload(0x40)\n      dup1\n      dup4\n      sub\n      dup2\n      dup7\n      dup1\n      extcodesize\n      iszero\n      dup1\n      iszero\n      tag_257\n      jumpi\n      0x00\n      dup1\n      revert\n    tag_257:\n      pop\n      gas\n      staticcall\n      iszero\n      dup1\n      iszero\n      tag_259\n      jumpi\n      returndatasize\n      0x00\n      dup1\n      returndatacopy\n      revert(0x00, returndatasize)\n    tag_259:\n      pop\n      pop\n      pop\n      pop\n      mload(0x40)\n      returndatasize\n      not(0x1f)\n      0x1f\n      dup3\n      add\n      and\n      dup3\n      add\n      dup1\n      0x40\n      mstore\n      pop\n      dup2\n      add\n      swap1\n      tag_260\n      swap2\n      swap1\n      tag_261\n      jump\t// in\n    tag_260:\n        /* \"contracts/helperLogic.sol\":2919:2970  uint256 uscBalanceOf = usc.balanceOf(address(this)) */\n      swap1\n      pop\n        /* \"contracts/helperLogic.sol\":2980:2994  uint256 toSsea */\n      0x00\n        /* \"contracts/helperLogic.sol\":2997:3043  uscBalanceOf.mul(toSseaPercent).div(PRECISION) */\n      tag_262\n        /* \"contracts/helperLogic.sol\":3033:3042  PRECISION */\n      sload(0x71)\n        /* \"contracts/helperLogic.sol\":2997:3028  uscBalanceOf.mul(toSseaPercent) */\n      tag_263\n        /* \"contracts/helperLogic.sol\":3014:3027  toSseaPercent */\n      sload(0x6e)\n        /* \"contracts/helperLogic.sol\":2997:3009  uscBalanceOf */\n      dup6\n        /* \"contracts/helperLogic.sol\":2997:3013  uscBalanceOf.mul */\n      tag_264\n      swap1\n        /* \"contracts/helperLogic.sol\":2997:3028  uscBalanceOf.mul(toSseaPercent) */\n      swap2\n      swap1\n      0xffffffff\n      and\n      jump\t// in\n    tag_263:\n        /* \"contracts/helperLogic.sol\":2997:3032  uscBalanceOf.mul(toSseaPercent).div */\n      swap1\n      tag_265\n        /* \"contracts/helperLogic.sol\":2997:3043  uscBalanceOf.mul(toSseaPercent).div(PRECISION) */\n      jump\t// in\n    tag_262:\n        /* \"contracts/helperLogic.sol\":2980:3043  uint256 toSsea = uscBalanceOf.mul(toSseaPercent).div(PRECISION) */\n      swap1\n      pop\n        /* \"contracts/helperLogic.sol\":3053:3065  uint256 toOp */\n      0x00\n        /* \"contracts/helperLogic.sol\":3068:3112  uscBalanceOf.mul(toOpPercent).div(PRECISION) */\n      tag_266\n        /* \"contracts/helperLogic.sol\":3102:3111  PRECISION */\n      sload(0x71)\n        /* \"contracts/helperLogic.sol\":3068:3097  uscBalanceOf.mul(toOpPercent) */\n      tag_263\n        /* \"contracts/helperLogic.sol\":3085:3096  toOpPercent */\n      sload(0x6f)\n        /* \"contracts/helperLogic.sol\":3068:3080  uscBalanceOf */\n      dup7\n        /* \"contracts/helperLogic.sol\":3068:3084  uscBalanceOf.mul */\n      tag_264\n      swap1\n        /* \"contracts/helperLogic.sol\":3068:3097  uscBalanceOf.mul(toOpPercent) */\n      swap2\n      swap1\n      0xffffffff\n      and\n      jump\t// in\n        /* \"contracts/helperLogic.sol\":3068:3112  uscBalanceOf.mul(toOpPercent).div(PRECISION) */\n    tag_266:\n        /* \"contracts/helperLogic.sol\":3053:3112  uint256 toOp = uscBalanceOf.mul(toOpPercent).div(PRECISION) */\n      swap1\n      pop\n        /* \"contracts/helperLogic.sol\":3122:3135  uint256 toDev */\n      0x00\n        /* \"contracts/helperLogic.sol\":3138:3172  uscBalanceOf.sub(toSsea).sub(toOp) */\n      tag_268\n        /* \"contracts/helperLogic.sol\":3053:3112  uint256 toOp = uscBalanceOf.mul(toOpPercent).div(PRECISION) */\n      dup3\n        /* \"contracts/helperLogic.sol\":3138:3162  uscBalanceOf.sub(toSsea) */\n      tag_269\n        /* \"contracts/helperLogic.sol\":3138:3150  uscBalanceOf */\n      dup7\n        /* \"contracts/helperLogic.sol\":3155:3161  toSsea */\n      dup7\n        /* \"contracts/helperLogic.sol\":3138:3154  uscBalanceOf.sub */\n      tag_270\n        /* \"contracts/helperLogic.sol\":3138:3162  uscBalanceOf.sub(toSsea) */\n      jump\t// in\n    tag_269:\n        /* \"contracts/helperLogic.sol\":3138:3166  uscBalanceOf.sub(toSsea).sub */\n      swap1\n      tag_270\n        /* \"contracts/helperLogic.sol\":3138:3172  uscBalanceOf.sub(toSsea).sub(toOp) */\n      jump\t// in\n    tag_268:\n        /* \"contracts/helperLogic.sol\":3208:3212  ssea */\n      sload(0x69)\n        /* \"contracts/helperLogic.sol\":3183:3186  usc */\n      sload(0x66)\n        /* \"contracts/helperLogic.sol\":3122:3172  uint256 toDev = uscBalanceOf.sub(toSsea).sub(toOp) */\n      swap2\n      swap3\n      pop\n        /* \"contracts/helperLogic.sol\":3183:3222  usc.safeTransfer(address(ssea), toSsea) */\n      tag_271\n      swap2\n      sub(shl(0xa0, 0x01), 0x01)\n        /* \"contracts/helperLogic.sol\":3183:3186  usc */\n      swap1\n      dup2\n      and\n      swap2\n        /* \"contracts/helperLogic.sol\":3208:3212  ssea */\n      and\n        /* \"contracts/helperLogic.sol\":3215:3221  toSsea */\n      dup6\n        /* \"contracts/helperLogic.sol\":3183:3199  usc.safeTransfer */\n      tag_228\n        /* \"contracts/helperLogic.sol\":3183:3222  usc.safeTransfer(address(ssea), toSsea) */\n      jump\t// in\n    tag_271:\n        /* \"contracts/helperLogic.sol\":3257:3259  op */\n      sload(0x6a)\n        /* \"contracts/helperLogic.sol\":3232:3235  usc */\n      sload(0x66)\n        /* \"contracts/helperLogic.sol\":3232:3267  usc.safeTransfer(address(op), toOp) */\n      tag_272\n      swap2\n      sub(shl(0xa0, 0x01), 0x01)\n        /* \"contracts/helperLogic.sol\":3232:3235  usc */\n      swap2\n      dup3\n      and\n      swap2\n        /* \"contracts/helperLogic.sol\":3257:3259  op */\n      and\n        /* \"contracts/helperLogic.sol\":3262:3266  toOp */\n      dup5\n        /* \"contracts/helperLogic.sol\":3232:3248  usc.safeTransfer */\n      tag_228\n        /* \"contracts/helperLogic.sol\":3232:3267  usc.safeTransfer(address(op), toOp) */\n      jump\t// in\n    tag_272:\n        /* \"contracts/helperLogic.sol\":3302:3305  dev */\n      sload(0x6b)\n        /* \"contracts/helperLogic.sol\":3277:3280  usc */\n      sload(0x66)\n        /* \"contracts/helperLogic.sol\":3277:3314  usc.safeTransfer(address(dev), toDev) */\n      tag_273\n      swap2\n      sub(shl(0xa0, 0x01), 0x01)\n        /* \"contracts/helperLogic.sol\":3277:3280  usc */\n      swap2\n      dup3\n      and\n      swap2\n        /* \"contracts/helperLogic.sol\":3302:3305  dev */\n      and\n        /* \"contracts/helperLogic.sol\":3308:3313  toDev */\n      dup4\n        /* \"contracts/helperLogic.sol\":3277:3293  usc.safeTransfer */\n      tag_228\n        /* \"contracts/helperLogic.sol\":3277:3314  usc.safeTransfer(address(dev), toDev) */\n      jump\t// in\n    tag_273:\n        /* \"contracts/helperLogic.sol\":3329:3343  autoAdjustFarm */\n      sload(0x74)\n      shl(0xa0, 0x01)\n      swap1\n      div\n      0xff\n      and\n        /* \"contracts/helperLogic.sol\":3325:3382  if (autoAdjustFarm) {... */\n      iszero\n      tag_275\n      jumpi\n        /* \"contracts/helperLogic.sol\":3359:3371  adjustFarm() */\n      tag_275\n        /* \"contracts/helperLogic.sol\":3359:3369  adjustFarm */\n      tag_276\n        /* \"contracts/helperLogic.sol\":3359:3371  adjustFarm() */\n      jump\t// in\n    tag_275:\n        /* \"contracts/helperLogic.sol\":3396:3410  openStabilizer */\n      sload(0x74)\n      shl(0xa8, 0x01)\n      swap1\n      div\n      0xff\n      and\n        /* \"contracts/helperLogic.sol\":3392:3475  if (openStabilizer) {... */\n      iszero\n      tag_277\n      jumpi\n        /* \"contracts/helperLogic.sol\":3438:3448  stabilizer */\n      0x75\n      0x00\n      swap1\n      sload\n      swap1\n      0x0100\n      exp\n      swap1\n      div\n      sub(shl(0xa0, 0x01), 0x01)\n      and\n      sub(shl(0xa0, 0x01), 0x01)\n        /* \"contracts/helperLogic.sol\":3426:3462  IStabilizer(stabilizer).goStabilizer */\n      and\n      0x796c7be7\n        /* \"contracts/helperLogic.sol\":3426:3464  IStabilizer(stabilizer).goStabilizer() */\n      mload(0x40)\n      dup2\n      0xffffffff\n      and\n      0xe0\n      shl\n      dup2\n      mstore\n      0x04\n      add\n      0x20\n      mload(0x40)\n      dup1\n      dup4\n      sub\n      dup2\n      0x00\n      dup8\n      dup1\n      extcodesize\n      iszero\n      dup1\n      iszero\n      tag_278\n      jumpi\n      0x00\n      dup1\n      revert\n    tag_278:\n      pop\n      gas\n      call\n      iszero\n      dup1\n      iszero\n      tag_280\n      jumpi\n      returndatasize\n      0x00\n      dup1\n      returndatacopy\n      revert(0x00, returndatasize)\n    tag_280:\n      pop\n      pop\n      pop\n      pop\n      mload(0x40)\n      returndatasize\n      not(0x1f)\n      0x1f\n      dup3\n      add\n      and\n      dup3\n      add\n      dup1\n      0x40\n      mstore\n      pop\n      dup2\n      add\n      swap1\n      tag_281\n      swap2\n      swap1\n      tag_282\n      jump\t// in\n    tag_281:\n      pop\n        /* \"contracts/helperLogic.sol\":3392:3475  if (openStabilizer) {... */\n    tag_277:\n        /* \"contracts/helperLogic.sol\":3492:3496  true */\n      0x01\n        /* \"contracts/helperLogic.sol\":3485:3496  return true */\n      swap5\n      pop\n      pop\n      pop\n      pop\n      pop\n        /* \"contracts/helperLogic.sol\":2846:3503  function jointExecution() external onlyExecutor returns (bool) {... */\n      swap1\n      jump\t// out\n        /* \"contracts/helperLogic.sol\":4744:4864  function setDev(address _address) external onlyOwner returns (bool) {... */\n    tag_155:\n        /* \"contracts/helperLogic.sol\":4806:4810  bool */\n      0x00\n        /* \"@openzeppelin/contracts-upgradeable/access/OwnableUpgradeable.sol\":1525:1537  _msgSender() */\n      tag_284\n        /* \"@openzeppelin/contracts-upgradeable/access/OwnableUpgradeable.sol\":1525:1535  _msgSender */\n      tag_176\n        /* \"@openzeppelin/contracts-upgradeable/access/OwnableUpgradeable.sol\":1525:1537  _msgSender() */\n      jump\t// in\n    tag_284:\n      sub(shl(0xa0, 0x01), 0x01)\n        /* \"@openzeppelin/contracts-upgradeable/access/OwnableUpgradeable.sol\":1514:1537  owner() == _msgSender() */\n      and\n        /* \"@openzeppelin/contracts-upgradeable/access/OwnableUpgradeable.sol\":1514:1521  owner() */\n      tag_285\n        /* \"@openzeppelin/contracts-upgradeable/access/OwnableUpgradeable.sol\":1514:1519  owner */\n      tag_112\n        /* \"@openzeppelin/contracts-upgradeable/access/OwnableUpgradeable.sol\":1514:1521  owner() */\n      jump\t// in\n    tag_285:\n      sub(shl(0xa0, 0x01), 0x01)\n        /* \"@openzeppelin/contracts-upgradeable/access/OwnableUpgradeable.sol\":1514:1537  owner() == _msgSender() */\n      and\n      eq\n        /* \"@openzeppelin/contracts-upgradeable/access/OwnableUpgradeable.sol\":1506:1574  require(owner() == _msgSender(), \"Ownable: caller is not the owner\") */\n      tag_286\n      jumpi\n      mload(0x40)\n      shl(0xe5, 0x461bcd)\n      dup2\n      mstore\n      0x04\n      add\n      tag_179\n      swap1\n      tag_180\n      jump\t// in\n    tag_286:\n      pop\n        /* \"contracts/helperLogic.sol\":4822:4825  dev */\n      0x6b\n        /* \"contracts/helperLogic.sol\":4822:4836  dev = _address */\n      dup1\n      sload\n      sub(shl(0xa0, 0x01), 0x01)\n      dup4\n      and\n      not(sub(shl(0xa0, 0x01), 0x01))\n      swap1\n      swap2\n      and\n      or\n      swap1\n      sstore\n      0x01\n        /* \"contracts/helperLogic.sol\":4744:4864  function setDev(address _address) external onlyOwner returns (bool) {... */\n      swap2\n      swap1\n      pop\n      jump\t// out\n        /* \"contracts/helperLogic.sol\":5556:5690  function setStabilizer(address _address) external onlyOwner returns (bool) {... */\n    tag_159:\n        /* \"contracts/helperLogic.sol\":5625:5629  bool */\n      0x00\n        /* \"@openzeppelin/contracts-upgradeable/access/OwnableUpgradeable.sol\":1525:1537  _msgSender() */\n      tag_290\n        /* \"@openzeppelin/contracts-upgradeable/access/OwnableUpgradeable.sol\":1525:1535  _msgSender */\n      tag_176\n        /* \"@openzeppelin/contracts-upgradeable/access/OwnableUpgradeable.sol\":1525:1537  _msgSender() */\n      jump\t// in\n    tag_290:\n      sub(shl(0xa0, 0x01), 0x01)\n        /* \"@openzeppelin/contracts-upgradeable/access/OwnableUpgradeable.sol\":1514:1537  owner() == _msgSender() */\n      and\n        /* \"@openzeppelin/contracts-upgradeable/access/OwnableUpgradeable.sol\":1514:1521  owner() */\n      tag_291\n        /* \"@openzeppelin/contracts-upgradeable/access/OwnableUpgradeable.sol\":1514:1519  owner */\n      tag_112\n        /* \"@openzeppelin/contracts-upgradeable/access/OwnableUpgradeable.sol\":1514:1521  owner() */\n      jump\t// in\n    tag_291:\n      sub(shl(0xa0, 0x01), 0x01)\n        /* \"@openzeppelin/contracts-upgradeable/access/OwnableUpgradeable.sol\":1514:1537  owner() == _msgSender() */\n      and\n      eq\n        /* \"@openzeppelin/contracts-upgradeable/access/OwnableUpgradeable.sol\":1506:1574  require(owner() == _msgSender(), \"Ownable: caller is not the owner\") */\n      tag_292\n      jumpi\n      mload(0x40)\n      shl(0xe5, 0x461bcd)\n      dup2\n      mstore\n      0x04\n      add\n      tag_179\n      swap1\n      tag_180\n      jump\t// in\n    tag_292:\n      pop\n        /* \"contracts/helperLogic.sol\":5641:5651  stabilizer */\n      0x75\n        /* \"contracts/helperLogic.sol\":5641:5662  stabilizer = _address */\n      dup1\n      sload\n      sub(shl(0xa0, 0x01), 0x01)\n      dup4\n      and\n      not(sub(shl(0xa0, 0x01), 0x01))\n      swap1\n      swap2\n      and\n      or\n      swap1\n      sstore\n      0x01\n        /* \"contracts/helperLogic.sol\":5556:5690  function setStabilizer(address _address) external onlyOwner returns (bool) {... */\n      swap2\n      swap1\n      pop\n      jump\t// out\n        /* \"contracts/helperLogic.sol\":1270:1287  address public op */\n    tag_162:\n      and(sub(shl(0xa0, 0x01), 0x01), sload(0x6a))\n      dup2\n      jump\t// out\n        /* \"contracts/helperLogic.sol\":1555:1573  uint256 public pid */\n    tag_165:\n      sload(0x73)\n      dup2\n      jump\t// out\n        /* \"@openzeppelin/contracts-upgradeable/access/OwnableUpgradeable.sol\":2184:2382  function transferOwnership(address newOwner) public virtual onlyOwner {... */\n    tag_169:\n        /* \"@openzeppelin/contracts-upgradeable/access/OwnableUpgradeable.sol\":1525:1537  _msgSender() */\n      tag_296\n        /* \"@openzeppelin/contracts-upgradeable/access/OwnableUpgradeable.sol\":1525:1535  _msgSender */\n      tag_176\n        /* \"@openzeppelin/contracts-upgradeable/access/OwnableUpgradeable.sol\":1525:1537  _msgSender() */\n      jump\t// in\n    tag_296:\n      sub(shl(0xa0, 0x01), 0x01)\n        /* \"@openzeppelin/contracts-upgradeable/access/OwnableUpgradeable.sol\":1514:1537  owner() == _msgSender() */\n      and\n        /* \"@openzeppelin/contracts-upgradeable/access/OwnableUpgradeable.sol\":1514:1521  owner() */\n      tag_297\n        /* \"@openzeppelin/contracts-upgradeable/access/OwnableUpgradeable.sol\":1514:1519  owner */\n      tag_112\n        /* \"@openzeppelin/contracts-upgradeable/access/OwnableUpgradeable.sol\":1514:1521  owner() */\n      jump\t// in\n    tag_297:\n      sub(shl(0xa0, 0x01), 0x01)\n        /* \"@openzeppelin/contracts-upgradeable/access/OwnableUpgradeable.sol\":1514:1537  owner() == _msgSender() */\n      and\n      eq\n        /* \"@openzeppelin/contracts-upgradeable/access/OwnableUpgradeable.sol\":1506:1574  require(owner() == _msgSender(), \"Ownable: caller is not the owner\") */\n      tag_298\n      jumpi\n      mload(0x40)\n      shl(0xe5, 0x461bcd)\n      dup2\n      mstore\n      0x04\n      add\n      tag_179\n      swap1\n      tag_180\n      jump\t// in\n    tag_298:\n      sub(shl(0xa0, 0x01), 0x01)\n        /* \"@openzeppelin/contracts-upgradeable/access/OwnableUpgradeable.sol\":2272:2294  newOwner != address(0) */\n      dup2\n      and\n        /* \"@openzeppelin/contracts-upgradeable/access/OwnableUpgradeable.sol\":2264:2337  require(newOwner != address(0), \"Ownable: new owner is the zero address\") */\n      tag_301\n      jumpi\n      mload(0x40)\n      shl(0xe5, 0x461bcd)\n      dup2\n      mstore\n      0x04\n      add\n      tag_179\n      swap1\n      tag_303\n      jump\t// in\n    tag_301:\n        /* \"@openzeppelin/contracts-upgradeable/access/OwnableUpgradeable.sol\":2347:2375  _transferOwnership(newOwner) */\n      tag_304\n        /* \"@openzeppelin/contracts-upgradeable/access/OwnableUpgradeable.sol\":2366:2374  newOwner */\n      dup2\n        /* \"@openzeppelin/contracts-upgradeable/access/OwnableUpgradeable.sol\":2347:2365  _transferOwnership */\n      tag_219\n        /* \"@openzeppelin/contracts-upgradeable/access/OwnableUpgradeable.sol\":2347:2375  _transferOwnership(newOwner) */\n      jump\t// in\n    tag_304:\n        /* \"@openzeppelin/contracts-upgradeable/access/OwnableUpgradeable.sol\":2184:2382  function transferOwnership(address newOwner) public virtual onlyOwner {... */\n      pop\n      jump\t// out\n        /* \"contracts/helperLogic.sol\":1318:1350  IUniswapV2Router02 public Router */\n    tag_171:\n      and(sub(shl(0xa0, 0x01), 0x01), sload(0x6c))\n      dup2\n      jump\t// out\n        /* \"@openzeppelin/contracts-upgradeable/utils/ContextUpgradeable.sol\":876:972  function _msgSender() internal view virtual returns (address) {... */\n    tag_176:\n        /* \"@openzeppelin/contracts-upgradeable/utils/ContextUpgradeable.sol\":955:965  msg.sender */\n      caller\n        /* \"@openzeppelin/contracts-upgradeable/utils/ContextUpgradeable.sol\":876:972  function _msgSender() internal view virtual returns (address) {... */\n      swap1\n      jump\t// out\n        /* \"@openzeppelin/contracts-upgradeable/access/OwnableUpgradeable.sol\":2536:2723  function _transferOwnership(address newOwner) internal virtual {... */\n    tag_219:\n        /* \"@openzeppelin/contracts-upgradeable/access/OwnableUpgradeable.sol\":2628:2634  _owner */\n      0x33\n      dup1\n      sload\n      sub(shl(0xa0, 0x01), 0x01)\n        /* \"@openzeppelin/contracts-upgradeable/access/OwnableUpgradeable.sol\":2644:2661  _owner = newOwner */\n      dup4\n      dup2\n      and\n      not(sub(shl(0xa0, 0x01), 0x01))\n      dup4\n      and\n      dup2\n      or\n      swap1\n      swap4\n      sstore\n        /* \"@openzeppelin/contracts-upgradeable/access/OwnableUpgradeable.sol\":2676:2716  OwnershipTransferred(oldOwner, newOwner) */\n      mload(0x40)\n        /* \"@openzeppelin/contracts-upgradeable/access/OwnableUpgradeable.sol\":2628:2634  _owner */\n      swap2\n      and\n      swap2\n        /* \"@openzeppelin/contracts-upgradeable/access/OwnableUpgradeable.sol\":2644:2661  _owner = newOwner */\n      swap1\n        /* \"@openzeppelin/contracts-upgradeable/access/OwnableUpgradeable.sol\":2628:2634  _owner */\n      dup3\n      swap1\n        /* \"@openzeppelin/contracts-upgradeable/access/OwnableUpgradeable.sol\":2676:2716  OwnershipTransferred(oldOwner, newOwner) */\n      0x8be0079c531659141344cd1fd0a4f28419497f9722a3daafe3b4186f6b6457e0\n      swap1\n        /* \"@openzeppelin/contracts-upgradeable/access/OwnableUpgradeable.sol\":2609:2625  address oldOwner */\n      0x00\n      swap1\n        /* \"@openzeppelin/contracts-upgradeable/access/OwnableUpgradeable.sol\":2676:2716  OwnershipTransferred(oldOwner, newOwner) */\n      log3\n        /* \"@openzeppelin/contracts-upgradeable/access/OwnableUpgradeable.sol\":2536:2723  function _transferOwnership(address newOwner) internal virtual {... */\n      pop\n      pop\n      jump\t// out\n        /* \"@openzeppelin/contracts-upgradeable/token/ERC20/utils/SafeERC20Upgradeable.sol\":745:961  function safeTransfer(... */\n    tag_228:\n        /* \"@openzeppelin/contracts-upgradeable/token/ERC20/utils/SafeERC20Upgradeable.sol\":868:954  _callOptionalReturn(token, abi.encodeWithSelector(token.transfer.selector, to, value)) */\n      tag_308\n        /* \"@openzeppelin/contracts-upgradeable/token/ERC20/utils/SafeERC20Upgradeable.sol\":888:893  token */\n      dup4\n        /* \"@openzeppelin/contracts-upgradeable/token/ERC20/utils/SafeERC20Upgradeable.sol\":918:941  token.transfer.selector */\n      shl(0xe0, 0xa9059cbb)\n        /* \"@openzeppelin/contracts-upgradeable/token/ERC20/utils/SafeERC20Upgradeable.sol\":943:945  to */\n      dup5\n        /* \"@openzeppelin/contracts-upgradeable/token/ERC20/utils/SafeERC20Upgradeable.sol\":947:952  value */\n      dup5\n        /* \"@openzeppelin/contracts-upgradeable/token/ERC20/utils/SafeERC20Upgradeable.sol\":895:953  abi.encodeWithSelector(token.transfer.selector, to, value) */\n      add(0x24, mload(0x40))\n      tag_309\n      swap3\n      swap2\n      swap1\n      tag_310\n      jump\t// in\n    tag_309:\n      0x40\n      dup1\n      mload\n      not(0x1f)\n      dup2\n      dup5\n      sub\n      add\n      dup2\n      mstore\n      swap2\n      swap1\n      mstore\n      0x20\n      dup2\n      add\n      dup1\n      mload\n      sub(shl(0xe0, 0x01), 0x01)\n      and\n      not(sub(shl(0xe0, 0x01), 0x01))\n      swap1\n      swap4\n      and\n      swap3\n      swap1\n      swap3\n      or\n      swap1\n      swap2\n      mstore\n        /* \"@openzeppelin/contracts-upgradeable/token/ERC20/utils/SafeERC20Upgradeable.sol\":868:887  _callOptionalReturn */\n      tag_311\n        /* \"@openzeppelin/contracts-upgradeable/token/ERC20/utils/SafeERC20Upgradeable.sol\":868:954  _callOptionalReturn(token, abi.encodeWithSelector(token.transfer.selector, to, value)) */\n      jump\t// in\n    tag_308:\n        /* \"@openzeppelin/contracts-upgradeable/token/ERC20/utils/SafeERC20Upgradeable.sol\":745:961  function safeTransfer(... */\n      pop\n      pop\n      pop\n      jump\t// out\n        /* \"@openzeppelin/contracts-upgradeable/access/OwnableUpgradeable.sol\":988:1114  function __Ownable_init() internal initializer {... */\n    tag_249:\n        /* \"@openzeppelin/contracts-upgradeable/proxy/utils/Initializable.sol\":539:552  _initializing */\n      sload(0x00)\n      0x0100\n      swap1\n      div\n      0xff\n      and\n      dup1\n        /* \"@openzeppelin/contracts-upgradeable/proxy/utils/Initializable.sol\":539:569  _initializing || !_initialized */\n      tag_313\n      jumpi\n      pop\n        /* \"@openzeppelin/contracts-upgradeable/proxy/utils/Initializable.sol\":557:569  _initialized */\n      and(0xff, sload(0x00))\n        /* \"@openzeppelin/contracts-upgradeable/proxy/utils/Initializable.sol\":556:569  !_initialized */\n      iszero\n        /* \"@openzeppelin/contracts-upgradeable/proxy/utils/Initializable.sol\":539:569  _initializing || !_initialized */\n    tag_313:\n        /* \"@openzeppelin/contracts-upgradeable/proxy/utils/Initializable.sol\":531:620  require(_initializing || !_initialized, \"Initializable: contract is already initialized\") */\n      tag_314\n      jumpi\n      mload(0x40)\n      shl(0xe5, 0x461bcd)\n      dup2\n      mstore\n      0x04\n      add\n      tag_179\n      swap1\n      tag_245\n      jump\t// in\n    tag_314:\n        /* \"@openzeppelin/contracts-upgradeable/proxy/utils/Initializable.sol\":631:650  bool isTopLevelCall */\n      0x00\n        /* \"@openzeppelin/contracts-upgradeable/proxy/utils/Initializable.sol\":654:667  _initializing */\n      sload\n      0x0100\n      swap1\n      div\n      0xff\n      and\n        /* \"@openzeppelin/contracts-upgradeable/proxy/utils/Initializable.sol\":653:667  !_initializing */\n      iszero\n        /* \"@openzeppelin/contracts-upgradeable/proxy/utils/Initializable.sol\":677:775  if (isTopLevelCall) {... */\n      dup1\n      iszero\n      tag_316\n      jumpi\n        /* \"@openzeppelin/contracts-upgradeable/proxy/utils/Initializable.sol\":711:724  _initializing */\n      0x00\n        /* \"@openzeppelin/contracts-upgradeable/proxy/utils/Initializable.sol\":711:731  _initializing = true */\n      dup1\n      sload\n      not(0xff)\n      not(0xff00)\n      swap1\n      swap2\n      and\n      0x0100\n      or\n        /* \"@openzeppelin/contracts-upgradeable/proxy/utils/Initializable.sol\":745:764  _initialized = true */\n      and\n        /* \"@openzeppelin/contracts-upgradeable/proxy/utils/Initializable.sol\":727:731  true */\n      0x01\n        /* \"@openzeppelin/contracts-upgradeable/proxy/utils/Initializable.sol\":745:764  _initialized = true */\n      or\n      swap1\n      sstore\n        /* \"@openzeppelin/contracts-upgradeable/proxy/utils/Initializable.sol\":677:775  if (isTopLevelCall) {... */\n    tag_316:\n        /* \"@openzeppelin/contracts-upgradeable/access/OwnableUpgradeable.sol\":1045:1071  __Context_init_unchained() */\n      tag_318\n        /* \"@openzeppelin/contracts-upgradeable/access/OwnableUpgradeable.sol\":1045:1069  __Context_init_unchained */\n      tag_319\n        /* \"@openzeppelin/contracts-upgradeable/access/OwnableUpgradeable.sol\":1045:1071  __Context_init_unchained() */\n      jump\t// in\n    tag_318:\n        /* \"@openzeppelin/contracts-upgradeable/access/OwnableUpgradeable.sol\":1081:1107  __Ownable_init_unchained() */\n      tag_320\n        /* \"@openzeppelin/contracts-upgradeable/access/OwnableUpgradeable.sol\":1081:1105  __Ownable_init_unchained */\n      tag_321\n        /* \"@openzeppelin/contracts-upgradeable/access/OwnableUpgradeable.sol\":1081:1107  __Ownable_init_unchained() */\n      jump\t// in\n    tag_320:\n        /* \"@openzeppelin/contracts-upgradeable/proxy/utils/Initializable.sol\":801:815  isTopLevelCall */\n      dup1\n        /* \"@openzeppelin/contracts-upgradeable/proxy/utils/Initializable.sol\":797:863  if (isTopLevelCall) {... */\n      iszero\n      tag_304\n      jumpi\n        /* \"@openzeppelin/contracts-upgradeable/proxy/utils/Initializable.sol\":847:852  false */\n      0x00\n        /* \"@openzeppelin/contracts-upgradeable/proxy/utils/Initializable.sol\":831:852  _initializing = false */\n      dup1\n      sload\n      not(0xff00)\n      and\n      swap1\n      sstore\n        /* \"@openzeppelin/contracts-upgradeable/access/OwnableUpgradeable.sol\":988:1114  function __Ownable_init() internal initializer {... */\n      pop\n      jump\t// out\n        /* \"@openzeppelin/contracts-upgradeable/utils/math/SafeMathUpgradeable.sol\":3462:3558  function mul(uint256 a, uint256 b) internal pure returns (uint256) {... */\n    tag_264:\n        /* \"@openzeppelin/contracts-upgradeable/utils/math/SafeMathUpgradeable.sol\":3520:3527  uint256 */\n      0x00\n        /* \"@openzeppelin/contracts-upgradeable/utils/math/SafeMathUpgradeable.sol\":3546:3551  a * b */\n      tag_324\n        /* \"@openzeppelin/contracts-upgradeable/utils/math/SafeMathUpgradeable.sol\":3550:3551  b */\n      dup3\n        /* \"@openzeppelin/contracts-upgradeable/utils/math/SafeMathUpgradeable.sol\":3546:3547  a */\n      dup5\n        /* \"@openzeppelin/contracts-upgradeable/utils/math/SafeMathUpgradeable.sol\":3546:3551  a * b */\n      tag_325\n      jump\t// in\n    tag_324:\n        /* \"@openzeppelin/contracts-upgradeable/utils/math/SafeMathUpgradeable.sol\":3539:3551  return a * b */\n      swap4\n        /* \"@openzeppelin/contracts-upgradeable/utils/math/SafeMathUpgradeable.sol\":3462:3558  function mul(uint256 a, uint256 b) internal pure returns (uint256) {... */\n      swap3\n      pop\n      pop\n      pop\n      jump\t// out\n        /* \"@openzeppelin/contracts-upgradeable/utils/math/SafeMathUpgradeable.sol\":3847:3943  function div(uint256 a, uint256 b) internal pure returns (uint256) {... */\n    tag_265:\n        /* \"@openzeppelin/contracts-upgradeable/utils/math/SafeMathUpgradeable.sol\":3905:3912  uint256 */\n      0x00\n        /* \"@openzeppelin/contracts-upgradeable/utils/math/SafeMathUpgradeable.sol\":3931:3936  a / b */\n      tag_324\n        /* \"@openzeppelin/contracts-upgradeable/utils/math/SafeMathUpgradeable.sol\":3935:3936  b */\n      dup3\n        /* \"@openzeppelin/contracts-upgradeable/utils/math/SafeMathUpgradeable.sol\":3931:3932  a */\n      dup5\n        /* \"@openzeppelin/contracts-upgradeable/utils/math/SafeMathUpgradeable.sol\":3931:3936  a / b */\n      tag_328\n      jump\t// in\n        /* \"@openzeppelin/contracts-upgradeable/utils/math/SafeMathUpgradeable.sol\":3119:3215  function sub(uint256 a, uint256 b) internal pure returns (uint256) {... */\n    tag_270:\n        /* \"@openzeppelin/contracts-upgradeable/utils/math/SafeMathUpgradeable.sol\":3177:3184  uint256 */\n      0x00\n        /* \"@openzeppelin/contracts-upgradeable/utils/math/SafeMathUpgradeable.sol\":3203:3208  a - b */\n      tag_324\n        /* \"@openzeppelin/contracts-upgradeable/utils/math/SafeMathUpgradeable.sol\":3207:3208  b */\n      dup3\n        /* \"@openzeppelin/contracts-upgradeable/utils/math/SafeMathUpgradeable.sol\":3203:3204  a */\n      dup5\n        /* \"@openzeppelin/contracts-upgradeable/utils/math/SafeMathUpgradeable.sol\":3203:3208  a - b */\n      tag_331\n      jump\t// in\n        /* \"contracts/helperLogic.sol\":3509:4393  function adjustFarm() internal {... */\n    tag_276:\n        /* \"contracts/helperLogic.sol\":3572:3579  Factory */\n      sload(0x6d)\n        /* \"contracts/helperLogic.sol\":3596:3600  usdc */\n      sload(0x67)\n        /* \"contracts/helperLogic.sol\":3611:3614  usc */\n      sload(0x66)\n        /* \"contracts/helperLogic.sol\":3572:3616  Factory.getPair(address(usdc), address(usc)) */\n      mload(0x40)\n      shl(0xe0, 0xe6a43905)\n      dup2\n      mstore\n        /* \"contracts/helperLogic.sol\":3550:3569  address pairAddress */\n      0x00\n      swap4\n      sub(shl(0xa0, 0x01), 0x01)\n        /* \"contracts/helperLogic.sol\":3572:3579  Factory */\n      swap1\n      dup2\n      and\n      swap4\n        /* \"contracts/helperLogic.sol\":3572:3587  Factory.getPair */\n      0xe6a43905\n      swap4\n        /* \"contracts/helperLogic.sol\":3572:3616  Factory.getPair(address(usdc), address(usc)) */\n      tag_333\n      swap4\n        /* \"contracts/helperLogic.sol\":3596:3600  usdc */\n      swap2\n      dup4\n      and\n      swap3\n        /* \"contracts/helperLogic.sol\":3611:3614  usc */\n      and\n      swap1\n        /* \"contracts/helperLogic.sol\":3572:3616  Factory.getPair(address(usdc), address(usc)) */\n      0x04\n      add\n      tag_334\n      jump\t// in\n    tag_333:\n      0x20\n      mload(0x40)\n      dup1\n      dup4\n      sub\n      dup2\n      dup7\n      dup1\n      extcodesize\n      iszero\n      dup1\n      iszero\n      tag_335\n      jumpi\n      0x00\n      dup1\n      revert\n    tag_335:\n      pop\n      gas\n      staticcall\n      iszero\n      dup1\n      iszero\n      tag_337\n      jumpi\n      returndatasize\n      0x00\n      dup1\n      returndatacopy\n      revert(0x00, returndatasize)\n    tag_337:\n      pop\n      pop\n      pop\n      pop\n      mload(0x40)\n      returndatasize\n      not(0x1f)\n      0x1f\n      dup3\n      add\n      and\n      dup3\n      add\n      dup1\n      0x40\n      mstore\n      pop\n      dup2\n      add\n      swap1\n      tag_338\n      swap2\n      swap1\n      tag_339\n      jump\t// in\n    tag_338:\n        /* \"contracts/helperLogic.sol\":3649:3652  usc */\n      sload(0x66)\n        /* \"contracts/helperLogic.sol\":3649:3675  usc.balanceOf(pairAddress) */\n      mload(0x40)\n      shl(0xe0, 0x70a08231)\n      dup2\n      mstore\n        /* \"contracts/helperLogic.sol\":3550:3616  address pairAddress = Factory.getPair(address(usdc), address(usc)) */\n      swap2\n      swap3\n      pop\n        /* \"contracts/helperLogic.sol\":3626:3646  uint256 uscBalanceOf */\n      0x00\n      swap2\n      sub(shl(0xa0, 0x01), 0x01)\n        /* \"contracts/helperLogic.sol\":3649:3652  usc */\n      swap1\n      swap2\n      and\n      swap1\n        /* \"contracts/helperLogic.sol\":3649:3662  usc.balanceOf */\n      0x70a08231\n      swap1\n        /* \"contracts/helperLogic.sol\":3649:3675  usc.balanceOf(pairAddress) */\n      tag_340\n      swap1\n        /* \"contracts/helperLogic.sol\":3550:3616  address pairAddress = Factory.getPair(address(usdc), address(usc)) */\n      dup6\n      swap1\n        /* \"contracts/helperLogic.sol\":3649:3675  usc.balanceOf(pairAddress) */\n      0x04\n      add\n      tag_110\n      jump\t// in\n    tag_340:\n      0x20\n      mload(0x40)\n      dup1\n      dup4\n      sub\n      dup2\n      dup7\n      dup1\n      extcodesize\n      iszero\n      dup1\n      iszero\n      tag_341\n      jumpi\n      0x00\n      dup1\n      revert\n    tag_341:\n      pop\n      gas\n      staticcall\n      iszero\n      dup1\n      iszero\n      tag_343\n      jumpi\n      returndatasize\n      0x00\n      dup1\n      returndatacopy\n      revert(0x00, returndatasize)\n    tag_343:\n      pop\n      pop\n      pop\n      pop\n      mload(0x40)\n      returndatasize\n      not(0x1f)\n      0x1f\n      dup3\n      add\n      and\n      dup3\n      add\n      dup1\n      0x40\n      mstore\n      pop\n      dup2\n      add\n      swap1\n      tag_344\n      swap2\n      swap1\n      tag_261\n      jump\t// in\n    tag_344:\n        /* \"contracts/helperLogic.sol\":3709:3713  usdc */\n      sload(0x67)\n        /* \"contracts/helperLogic.sol\":3709:3736  usdc.balanceOf(pairAddress) */\n      mload(0x40)\n      shl(0xe0, 0x70a08231)\n      dup2\n      mstore\n        /* \"contracts/helperLogic.sol\":3626:3675  uint256 uscBalanceOf = usc.balanceOf(pairAddress) */\n      swap2\n      swap3\n      pop\n        /* \"contracts/helperLogic.sol\":3685:3706  uint256 usdcBalanceOf */\n      0x00\n      swap2\n      sub(shl(0xa0, 0x01), 0x01)\n        /* \"contracts/helperLogic.sol\":3709:3713  usdc */\n      swap1\n      swap2\n      and\n      swap1\n        /* \"contracts/helperLogic.sol\":3709:3723  usdc.balanceOf */\n      0x70a08231\n      swap1\n        /* \"contracts/helperLogic.sol\":3709:3736  usdc.balanceOf(pairAddress) */\n      tag_345\n      swap1\n        /* \"contracts/helperLogic.sol\":3724:3735  pairAddress */\n      dup7\n      swap1\n        /* \"contracts/helperLogic.sol\":3709:3736  usdc.balanceOf(pairAddress) */\n      0x04\n      add\n      tag_110\n      jump\t// in\n    tag_345:\n      0x20\n      mload(0x40)\n      dup1\n      dup4\n      sub\n      dup2\n      dup7\n      dup1\n      extcodesize\n      iszero\n      dup1\n      iszero\n      tag_346\n      jumpi\n      0x00\n      dup1\n      revert\n    tag_346:\n      pop\n      gas\n      staticcall\n      iszero\n      dup1\n      iszero\n      tag_348\n      jumpi\n      returndatasize\n      0x00\n      dup1\n      returndatacopy\n      revert(0x00, returndatasize)\n    tag_348:\n      pop\n      pop\n      pop\n      pop\n      mload(0x40)\n      returndatasize\n      not(0x1f)\n      0x1f\n      dup3\n      add\n      and\n      dup3\n      add\n      dup1\n      0x40\n      mstore\n      pop\n      dup2\n      add\n      swap1\n      tag_349\n      swap2\n      swap1\n      tag_261\n      jump\t// in\n    tag_349:\n        /* \"contracts/helperLogic.sol\":3685:3736  uint256 usdcBalanceOf = usdc.balanceOf(pairAddress) */\n      swap1\n      pop\n        /* \"contracts/helperLogic.sol\":3746:3762  uint256 uscPrice */\n      0x00\n        /* \"contracts/helperLogic.sol\":3765:3806  usdcBalanceOf.mul(1e18).div(uscBalanceOf) */\n      tag_350\n        /* \"contracts/helperLogic.sol\":3793:3805  uscBalanceOf */\n      dup4\n        /* \"contracts/helperLogic.sol\":3765:3788  usdcBalanceOf.mul(1e18) */\n      tag_263\n        /* \"contracts/helperLogic.sol\":3685:3736  uint256 usdcBalanceOf = usdc.balanceOf(pairAddress) */\n      dup5\n        /* \"contracts/helperLogic.sol\":3783:3787  1e18 */\n      0x0de0b6b3a7640000\n        /* \"contracts/helperLogic.sol\":3765:3782  usdcBalanceOf.mul */\n      tag_264\n        /* \"contracts/helperLogic.sol\":3765:3788  usdcBalanceOf.mul(1e18) */\n      jump\t// in\n        /* \"contracts/helperLogic.sol\":3765:3806  usdcBalanceOf.mul(1e18).div(uscBalanceOf) */\n    tag_350:\n        /* \"contracts/helperLogic.sol\":3746:3806  uint256 uscPrice = usdcBalanceOf.mul(1e18).div(uscBalanceOf) */\n      swap1\n      pop\n        /* \"contracts/helperLogic.sol\":3816:3845  uint256 USDC_USC_LP_farmPoint */\n      0x00\n        /* \"contracts/helperLogic.sol\":3855:3872  uint256 diffPoint */\n      dup1\n        /* \"contracts/helperLogic.sol\":3897:3901  1e18 */\n      0x0de0b6b3a7640000\n        /* \"contracts/helperLogic.sol\":3886:3894  uscPrice */\n      dup4\n        /* \"contracts/helperLogic.sol\":3886:3901  uscPrice > 1e18 */\n      gt\n        /* \"contracts/helperLogic.sol\":3882:4328  if (uscPrice > 1e18) {... */\n      iszero\n      tag_352\n      jumpi\n        /* \"contracts/helperLogic.sol\":3950:3980  (uscPrice.sub(1e18)).div(1e14) */\n      tag_353\n        /* \"contracts/helperLogic.sol\":3975:3979  1e14 */\n      0x5af3107a4000\n        /* \"contracts/helperLogic.sol\":3951:3969  uscPrice.sub(1e18) */\n      tag_263\n        /* \"contracts/helperLogic.sol\":3951:3959  uscPrice */\n      dup6\n        /* \"contracts/helperLogic.sol\":3964:3968  1e18 */\n      0x0de0b6b3a7640000\n        /* \"contracts/helperLogic.sol\":3951:3963  uscPrice.sub */\n      tag_270\n        /* \"contracts/helperLogic.sol\":3951:3969  uscPrice.sub(1e18) */\n      jump\t// in\n        /* \"contracts/helperLogic.sol\":3950:3980  (uscPrice.sub(1e18)).div(1e14) */\n    tag_353:\n        /* \"contracts/helperLogic.sol\":3938:3980  diffPoint = (uscPrice.sub(1e18)).div(1e14) */\n      swap1\n      pop\n        /* \"contracts/helperLogic.sol\":4010:4019  basePoint */\n      sload(0x72)\n        /* \"contracts/helperLogic.sol\":3998:4007  diffPoint */\n      dup2\n        /* \"contracts/helperLogic.sol\":3998:4019  diffPoint > basePoint */\n      gt\n        /* \"contracts/helperLogic.sol\":3994:4166  if (diffPoint > basePoint) {... */\n      iszero\n      tag_355\n      jumpi\n        /* \"contracts/helperLogic.sol\":4063:4064  0 */\n      0x00\n        /* \"contracts/helperLogic.sol\":4039:4064  USDC_USC_LP_farmPoint = 0 */\n      swap2\n      pop\n        /* \"contracts/helperLogic.sol\":3994:4166  if (diffPoint > basePoint) {... */\n      jump(tag_356)\n    tag_355:\n        /* \"contracts/helperLogic.sol\":4127:4136  basePoint */\n      sload(0x72)\n        /* \"contracts/helperLogic.sol\":4127:4151  basePoint.sub(diffPoint) */\n      tag_357\n      swap1\n        /* \"contracts/helperLogic.sol\":4141:4150  diffPoint */\n      dup3\n        /* \"contracts/helperLogic.sol\":4127:4140  basePoint.sub */\n      tag_270\n        /* \"contracts/helperLogic.sol\":4127:4151  basePoint.sub(diffPoint) */\n      jump\t// in\n    tag_357:\n        /* \"contracts/helperLogic.sol\":4103:4151  USDC_USC_LP_farmPoint = basePoint.sub(diffPoint) */\n      swap2\n      pop\n        /* \"contracts/helperLogic.sol\":3994:4166  if (diffPoint > basePoint) {... */\n    tag_356:\n        /* \"contracts/helperLogic.sol\":3882:4328  if (uscPrice > 1e18) {... */\n      jump(tag_358)\n    tag_352:\n        /* \"contracts/helperLogic.sol\":4228:4255  (1e18 - uscPrice).div(1e14) */\n      tag_359\n        /* \"contracts/helperLogic.sol\":4250:4254  1e14 */\n      0x5af3107a4000\n        /* \"contracts/helperLogic.sol\":4229:4244  1e18 - uscPrice */\n      tag_263\n        /* \"contracts/helperLogic.sol\":4236:4244  uscPrice */\n      dup6\n        /* \"contracts/helperLogic.sol\":4229:4233  1e18 */\n      0x0de0b6b3a7640000\n        /* \"contracts/helperLogic.sol\":4229:4244  1e18 - uscPrice */\n      tag_331\n      jump\t// in\n        /* \"contracts/helperLogic.sol\":4228:4255  (1e18 - uscPrice).div(1e14) */\n    tag_359:\n        /* \"contracts/helperLogic.sol\":4293:4302  basePoint */\n      sload(0x72)\n        /* \"contracts/helperLogic.sol\":4216:4255  diffPoint = (1e18 - uscPrice).div(1e14) */\n      swap1\n      swap2\n      pop\n        /* \"contracts/helperLogic.sol\":4293:4317  basePoint.add(diffPoint) */\n      tag_361\n      swap1\n        /* \"contracts/helperLogic.sol\":4216:4255  diffPoint = (1e18 - uscPrice).div(1e14) */\n      dup3\n        /* \"contracts/helperLogic.sol\":4293:4306  basePoint.add */\n      tag_362\n        /* \"contracts/helperLogic.sol\":4293:4317  basePoint.add(diffPoint) */\n      jump\t// in\n    tag_361:\n        /* \"contracts/helperLogic.sol\":4269:4317  USDC_USC_LP_farmPoint = basePoint.add(diffPoint) */\n      swap2\n      pop\n        /* \"contracts/helperLogic.sol\":3882:4328  if (uscPrice > 1e18) {... */\n    tag_358:\n        /* \"contracts/helperLogic.sol\":3509:4393  function adjustFarm() internal {... */\n      pop\n      pop\n      pop\n      pop\n      pop\n      pop\n      jump\t// out\n        /* \"@openzeppelin/contracts-upgradeable/token/ERC20/utils/SafeERC20Upgradeable.sol\":3306:4023  function _callOptionalReturn(IERC20Upgradeable token, bytes memory data) private {... */\n    tag_311:\n        /* \"@openzeppelin/contracts-upgradeable/token/ERC20/utils/SafeERC20Upgradeable.sol\":3736:3759  bytes memory returndata */\n      0x00\n        /* \"@openzeppelin/contracts-upgradeable/token/ERC20/utils/SafeERC20Upgradeable.sol\":3762:3831  address(token).functionCall(data, \"SafeERC20: low-level call failed\") */\n      tag_364\n        /* \"@openzeppelin/contracts-upgradeable/token/ERC20/utils/SafeERC20Upgradeable.sol\":3790:3794  data */\n      dup3\n        /* \"@openzeppelin/contracts-upgradeable/token/ERC20/utils/SafeERC20Upgradeable.sol\":3762:3831  address(token).functionCall(data, \"SafeERC20: low-level call failed\") */\n      mload(0x40)\n      dup1\n      0x40\n      add\n      0x40\n      mstore\n      dup1\n      0x20\n      dup2\n      mstore\n      0x20\n      add\n      0x5361666545524332303a206c6f772d6c6576656c2063616c6c206661696c6564\n      dup2\n      mstore\n      pop\n        /* \"@openzeppelin/contracts-upgradeable/token/ERC20/utils/SafeERC20Upgradeable.sol\":3770:3775  token */\n      dup6\n      sub(shl(0xa0, 0x01), 0x01)\n        /* \"@openzeppelin/contracts-upgradeable/token/ERC20/utils/SafeERC20Upgradeable.sol\":3762:3789  address(token).functionCall */\n      and\n      tag_365\n      swap1\n        /* \"@openzeppelin/contracts-upgradeable/token/ERC20/utils/SafeERC20Upgradeable.sol\":3762:3831  address(token).functionCall(data, \"SafeERC20: low-level call failed\") */\n      swap3\n      swap2\n      swap1\n      0xffffffff\n      and\n      jump\t// in\n    tag_364:\n        /* \"@openzeppelin/contracts-upgradeable/token/ERC20/utils/SafeERC20Upgradeable.sol\":3845:3862  returndata.length */\n      dup1\n      mload\n        /* \"@openzeppelin/contracts-upgradeable/token/ERC20/utils/SafeERC20Upgradeable.sol\":3736:3831  bytes memory returndata = address(token).functionCall(data, \"SafeERC20: low-level call failed\") */\n      swap1\n      swap2\n      pop\n        /* \"@openzeppelin/contracts-upgradeable/token/ERC20/utils/SafeERC20Upgradeable.sol\":3845:3866  returndata.length > 0 */\n      iszero\n        /* \"@openzeppelin/contracts-upgradeable/token/ERC20/utils/SafeERC20Upgradeable.sol\":3841:4017  if (returndata.length > 0) {... */\n      tag_308\n      jumpi\n        /* \"@openzeppelin/contracts-upgradeable/token/ERC20/utils/SafeERC20Upgradeable.sol\":3940:3950  returndata */\n      dup1\n        /* \"@openzeppelin/contracts-upgradeable/token/ERC20/utils/SafeERC20Upgradeable.sol\":3929:3959  abi.decode(returndata, (bool)) */\n      dup1\n      0x20\n      add\n      swap1\n      mload\n      dup2\n      add\n      swap1\n      tag_367\n      swap2\n      swap1\n      tag_282\n      jump\t// in\n    tag_367:\n        /* \"@openzeppelin/contracts-upgradeable/token/ERC20/utils/SafeERC20Upgradeable.sol\":3921:4006  require(abi.decode(returndata, (bool)), \"SafeERC20: ERC20 operation did not succeed\") */\n      tag_308\n      jumpi\n      mload(0x40)\n      shl(0xe5, 0x461bcd)\n      dup2\n      mstore\n      0x04\n      add\n      tag_179\n      swap1\n      tag_370\n      jump\t// in\n        /* \"@openzeppelin/contracts-upgradeable/utils/ContextUpgradeable.sol\":807:871  function __Context_init_unchained() internal initializer {... */\n    tag_319:\n        /* \"@openzeppelin/contracts-upgradeable/proxy/utils/Initializable.sol\":539:552  _initializing */\n      sload(0x00)\n      0x0100\n      swap1\n      div\n      0xff\n      and\n      dup1\n        /* \"@openzeppelin/contracts-upgradeable/proxy/utils/Initializable.sol\":539:569  _initializing || !_initialized */\n      tag_372\n      jumpi\n      pop\n        /* \"@openzeppelin/contracts-upgradeable/proxy/utils/Initializable.sol\":557:569  _initialized */\n      and(0xff, sload(0x00))\n        /* \"@openzeppelin/contracts-upgradeable/proxy/utils/Initializable.sol\":556:569  !_initialized */\n      iszero\n        /* \"@openzeppelin/contracts-upgradeable/proxy/utils/Initializable.sol\":539:569  _initializing || !_initialized */\n    tag_372:\n        /* \"@openzeppelin/contracts-upgradeable/proxy/utils/Initializable.sol\":531:620  require(_initializing || !_initialized, \"Initializable: contract is already initialized\") */\n      tag_373\n      jumpi\n      mload(0x40)\n      shl(0xe5, 0x461bcd)\n      dup2\n      mstore\n      0x04\n      add\n      tag_179\n      swap1\n      tag_245\n      jump\t// in\n    tag_373:\n        /* \"@openzeppelin/contracts-upgradeable/proxy/utils/Initializable.sol\":631:650  bool isTopLevelCall */\n      0x00\n        /* \"@openzeppelin/contracts-upgradeable/proxy/utils/Initializable.sol\":654:667  _initializing */\n      sload\n      0x0100\n      swap1\n      div\n      0xff\n      and\n        /* \"@openzeppelin/contracts-upgradeable/proxy/utils/Initializable.sol\":653:667  !_initializing */\n      iszero\n        /* \"@openzeppelin/contracts-upgradeable/proxy/utils/Initializable.sol\":677:775  if (isTopLevelCall) {... */\n      dup1\n      iszero\n      tag_320\n      jumpi\n        /* \"@openzeppelin/contracts-upgradeable/proxy/utils/Initializable.sol\":711:724  _initializing */\n      0x00\n        /* \"@openzeppelin/contracts-upgradeable/proxy/utils/Initializable.sol\":711:731  _initializing = true */\n      dup1\n      sload\n      not(0xff)\n      not(0xff00)\n      swap1\n      swap2\n      and\n      0x0100\n      or\n        /* \"@openzeppelin/contracts-upgradeable/proxy/utils/Initializable.sol\":745:764  _initialized = true */\n      and\n        /* \"@openzeppelin/contracts-upgradeable/proxy/utils/Initializable.sol\":727:731  true */\n      0x01\n        /* \"@openzeppelin/contracts-upgradeable/proxy/utils/Initializable.sol\":745:764  _initialized = true */\n      or\n      swap1\n      sstore\n        /* \"@openzeppelin/contracts-upgradeable/proxy/utils/Initializable.sol\":801:815  isTopLevelCall */\n      dup1\n        /* \"@openzeppelin/contracts-upgradeable/proxy/utils/Initializable.sol\":797:863  if (isTopLevelCall) {... */\n      iszero\n      tag_304\n      jumpi\n        /* \"@openzeppelin/contracts-upgradeable/proxy/utils/Initializable.sol\":847:852  false */\n      0x00\n        /* \"@openzeppelin/contracts-upgradeable/proxy/utils/Initializable.sol\":831:852  _initializing = false */\n      dup1\n      sload\n      not(0xff00)\n      and\n      swap1\n      sstore\n        /* \"@openzeppelin/contracts-upgradeable/utils/ContextUpgradeable.sol\":807:871  function __Context_init_unchained() internal initializer {... */\n      pop\n      jump\t// out\n        /* \"@openzeppelin/contracts-upgradeable/access/OwnableUpgradeable.sol\":1120:1226  function __Ownable_init_unchained() internal initializer {... */\n    tag_321:\n        /* \"@openzeppelin/contracts-upgradeable/proxy/utils/Initializable.sol\":539:552  _initializing */\n      sload(0x00)\n      0x0100\n      swap1\n      div\n      0xff\n      and\n      dup1\n        /* \"@openzeppelin/contracts-upgradeable/proxy/utils/Initializable.sol\":539:569  _initializing || !_initialized */\n      tag_379\n      jumpi\n      pop\n        /* \"@openzeppelin/contracts-upgradeable/proxy/utils/Initializable.sol\":557:569  _initialized */\n      and(0xff, sload(0x00))\n        /* \"@openzeppelin/contracts-upgradeable/proxy/utils/Initializable.sol\":556:569  !_initialized */\n      iszero\n        /* \"@openzeppelin/contracts-upgradeable/proxy/utils/Initializable.sol\":539:569  _initializing || !_initialized */\n    tag_379:\n        /* \"@openzeppelin/contracts-upgradeable/proxy/utils/Initializable.sol\":531:620  require(_initializing || !_initialized, \"Initializable: contract is already initialized\") */\n      tag_380\n      jumpi\n      mload(0x40)\n      shl(0xe5, 0x461bcd)\n      dup2\n      mstore\n      0x04\n      add\n      tag_179\n      swap1\n      tag_245\n      jump\t// in\n    tag_380:\n        /* \"@openzeppelin/contracts-upgradeable/proxy/utils/Initializable.sol\":631:650  bool isTopLevelCall */\n      0x00\n        /* \"@openzeppelin/contracts-upgradeable/proxy/utils/Initializable.sol\":654:667  _initializing */\n      sload\n      0x0100\n      swap1\n      div\n      0xff\n      and\n        /* \"@openzeppelin/contracts-upgradeable/proxy/utils/Initializable.sol\":653:667  !_initializing */\n      iszero\n        /* \"@openzeppelin/contracts-upgradeable/proxy/utils/Initializable.sol\":677:775  if (isTopLevelCall) {... */\n      dup1\n      iszero\n      tag_382\n      jumpi\n        /* \"@openzeppelin/contracts-upgradeable/proxy/utils/Initializable.sol\":711:724  _initializing */\n      0x00\n        /* \"@openzeppelin/contracts-upgradeable/proxy/utils/Initializable.sol\":711:731  _initializing = true */\n      dup1\n      sload\n      not(0xff)\n      not(0xff00)\n      swap1\n      swap2\n      and\n      0x0100\n      or\n        /* \"@openzeppelin/contracts-upgradeable/proxy/utils/Initializable.sol\":745:764  _initialized = true */\n      and\n        /* \"@openzeppelin/contracts-upgradeable/proxy/utils/Initializable.sol\":727:731  true */\n      0x01\n        /* \"@openzeppelin/contracts-upgradeable/proxy/utils/Initializable.sol\":745:764  _initialized = true */\n      or\n      swap1\n      sstore\n        /* \"@openzeppelin/contracts-upgradeable/proxy/utils/Initializable.sol\":677:775  if (isTopLevelCall) {... */\n    tag_382:\n        /* \"@openzeppelin/contracts-upgradeable/access/OwnableUpgradeable.sol\":1187:1219  _transferOwnership(_msgSender()) */\n      tag_320\n        /* \"@openzeppelin/contracts-upgradeable/access/OwnableUpgradeable.sol\":1206:1218  _msgSender() */\n      tag_385\n        /* \"@openzeppelin/contracts-upgradeable/access/OwnableUpgradeable.sol\":1206:1216  _msgSender */\n      tag_176\n        /* \"@openzeppelin/contracts-upgradeable/access/OwnableUpgradeable.sol\":1206:1218  _msgSender() */\n      jump\t// in\n    tag_385:\n        /* \"@openzeppelin/contracts-upgradeable/access/OwnableUpgradeable.sol\":1187:1205  _transferOwnership */\n      tag_219\n        /* \"@openzeppelin/contracts-upgradeable/access/OwnableUpgradeable.sol\":1187:1219  _transferOwnership(_msgSender()) */\n      jump\t// in\n        /* \"@openzeppelin/contracts-upgradeable/utils/math/SafeMathUpgradeable.sol\":2752:2848  function add(uint256 a, uint256 b) internal pure returns (uint256) {... */\n    tag_362:\n        /* \"@openzeppelin/contracts-upgradeable/utils/math/SafeMathUpgradeable.sol\":2810:2817  uint256 */\n      0x00\n        /* \"@openzeppelin/contracts-upgradeable/utils/math/SafeMathUpgradeable.sol\":2836:2841  a + b */\n      tag_324\n        /* \"@openzeppelin/contracts-upgradeable/utils/math/SafeMathUpgradeable.sol\":2840:2841  b */\n      dup3\n        /* \"@openzeppelin/contracts-upgradeable/utils/math/SafeMathUpgradeable.sol\":2836:2837  a */\n      dup5\n        /* \"@openzeppelin/contracts-upgradeable/utils/math/SafeMathUpgradeable.sol\":2836:2841  a + b */\n      tag_389\n      jump\t// in\n        /* \"@openzeppelin/contracts-upgradeable/utils/AddressUpgradeable.sol\":3525:3748  function functionCall(... */\n    tag_365:\n        /* \"@openzeppelin/contracts-upgradeable/utils/AddressUpgradeable.sol\":3658:3670  bytes memory */\n      0x60\n        /* \"@openzeppelin/contracts-upgradeable/utils/AddressUpgradeable.sol\":3689:3741  functionCallWithValue(target, data, 0, errorMessage) */\n      tag_391\n        /* \"@openzeppelin/contracts-upgradeable/utils/AddressUpgradeable.sol\":3711:3717  target */\n      dup5\n        /* \"@openzeppelin/contracts-upgradeable/utils/AddressUpgradeable.sol\":3719:3723  data */\n      dup5\n        /* \"@openzeppelin/contracts-upgradeable/utils/AddressUpgradeable.sol\":3725:3726  0 */\n      0x00\n        /* \"@openzeppelin/contracts-upgradeable/utils/AddressUpgradeable.sol\":3728:3740  errorMessage */\n      dup6\n        /* \"@openzeppelin/contracts-upgradeable/utils/AddressUpgradeable.sol\":3689:3710  functionCallWithValue */\n      tag_392\n        /* \"@openzeppelin/contracts-upgradeable/utils/AddressUpgradeable.sol\":3689:3741  functionCallWithValue(target, data, 0, errorMessage) */\n      jump\t// in\n    tag_391:\n        /* \"@openzeppelin/contracts-upgradeable/utils/AddressUpgradeable.sol\":3682:3741  return functionCallWithValue(target, data, 0, errorMessage) */\n      swap5\n        /* \"@openzeppelin/contracts-upgradeable/utils/AddressUpgradeable.sol\":3525:3748  function functionCall(... */\n      swap4\n      pop\n      pop\n      pop\n      pop\n      jump\t// out\n        /* \"@openzeppelin/contracts-upgradeable/utils/AddressUpgradeable.sol\":4612:5111  function functionCallWithValue(... */\n    tag_392:\n        /* \"@openzeppelin/contracts-upgradeable/utils/AddressUpgradeable.sol\":4777:4789  bytes memory */\n      0x60\n        /* \"@openzeppelin/contracts-upgradeable/utils/AddressUpgradeable.sol\":4834:4839  value */\n      dup3\n        /* \"@openzeppelin/contracts-upgradeable/utils/AddressUpgradeable.sol\":4809:4830  address(this).balance */\n      selfbalance\n        /* \"@openzeppelin/contracts-upgradeable/utils/AddressUpgradeable.sol\":4809:4839  address(this).balance >= value */\n      lt\n      iszero\n        /* \"@openzeppelin/contracts-upgradeable/utils/AddressUpgradeable.sol\":4801:4882  require(address(this).balance >= value, \"Address: insufficient balance for call\") */\n      tag_394\n      jumpi\n      mload(0x40)\n      shl(0xe5, 0x461bcd)\n      dup2\n      mstore\n      0x04\n      add\n      tag_179\n      swap1\n      tag_396\n      jump\t// in\n    tag_394:\n        /* \"@openzeppelin/contracts-upgradeable/utils/AddressUpgradeable.sol\":4900:4918  isContract(target) */\n      tag_397\n        /* \"@openzeppelin/contracts-upgradeable/utils/AddressUpgradeable.sol\":4911:4917  target */\n      dup6\n        /* \"@openzeppelin/contracts-upgradeable/utils/AddressUpgradeable.sol\":4900:4910  isContract */\n      tag_398\n        /* \"@openzeppelin/contracts-upgradeable/utils/AddressUpgradeable.sol\":4900:4918  isContract(target) */\n      jump\t// in\n    tag_397:\n        /* \"@openzeppelin/contracts-upgradeable/utils/AddressUpgradeable.sol\":4892:4952  require(isContract(target), \"Address: call to non-contract\") */\n      tag_399\n      jumpi\n      mload(0x40)\n      shl(0xe5, 0x461bcd)\n      dup2\n      mstore\n      0x04\n      add\n      tag_179\n      swap1\n      tag_401\n      jump\t// in\n    tag_399:\n        /* \"@openzeppelin/contracts-upgradeable/utils/AddressUpgradeable.sol\":4964:4976  bool success */\n      0x00\n        /* \"@openzeppelin/contracts-upgradeable/utils/AddressUpgradeable.sol\":4978:5001  bytes memory returndata */\n      dup1\n        /* \"@openzeppelin/contracts-upgradeable/utils/AddressUpgradeable.sol\":5005:5011  target */\n      dup7\n      sub(shl(0xa0, 0x01), 0x01)\n        /* \"@openzeppelin/contracts-upgradeable/utils/AddressUpgradeable.sol\":5005:5016  target.call */\n      and\n        /* \"@openzeppelin/contracts-upgradeable/utils/AddressUpgradeable.sol\":5024:5029  value */\n      dup6\n        /* \"@openzeppelin/contracts-upgradeable/utils/AddressUpgradeable.sol\":5031:5035  data */\n      dup8\n        /* \"@openzeppelin/contracts-upgradeable/utils/AddressUpgradeable.sol\":5005:5036  target.call{value: value}(data) */\n      mload(0x40)\n      tag_402\n      swap2\n      swap1\n      tag_403\n      jump\t// in\n    tag_402:\n      0x00\n      mload(0x40)\n      dup1\n      dup4\n      sub\n      dup2\n      dup6\n      dup8\n      gas\n      call\n      swap3\n      pop\n      pop\n      pop\n      returndatasize\n      dup1\n      0x00\n      dup2\n      eq\n      tag_406\n      jumpi\n      mload(0x40)\n      swap2\n      pop\n      and(add(returndatasize, 0x3f), not(0x1f))\n      dup3\n      add\n      0x40\n      mstore\n      returndatasize\n      dup3\n      mstore\n      returndatasize\n      0x00\n      0x20\n      dup5\n      add\n      returndatacopy\n      jump(tag_405)\n    tag_406:\n      0x60\n      swap2\n      pop\n    tag_405:\n      pop\n        /* \"@openzeppelin/contracts-upgradeable/utils/AddressUpgradeable.sol\":4963:5036  (bool success, bytes memory returndata) = target.call{value: value}(data) */\n      swap2\n      pop\n      swap2\n      pop\n        /* \"@openzeppelin/contracts-upgradeable/utils/AddressUpgradeable.sol\":5053:5104  verifyCallResult(success, returndata, errorMessage) */\n      tag_407\n        /* \"@openzeppelin/contracts-upgradeable/utils/AddressUpgradeable.sol\":5070:5077  success */\n      dup3\n        /* \"@openzeppelin/contracts-upgradeable/utils/AddressUpgradeable.sol\":5079:5089  returndata */\n      dup3\n        /* \"@openzeppelin/contracts-upgradeable/utils/AddressUpgradeable.sol\":5091:5103  errorMessage */\n      dup7\n        /* \"@openzeppelin/contracts-upgradeable/utils/AddressUpgradeable.sol\":5053:5069  verifyCallResult */\n      tag_408\n        /* \"@openzeppelin/contracts-upgradeable/utils/AddressUpgradeable.sol\":5053:5104  verifyCallResult(success, returndata, errorMessage) */\n      jump\t// in\n    tag_407:\n        /* \"@openzeppelin/contracts-upgradeable/utils/AddressUpgradeable.sol\":5046:5104  return verifyCallResult(success, returndata, errorMessage) */\n      swap8\n        /* \"@openzeppelin/contracts-upgradeable/utils/AddressUpgradeable.sol\":4612:5111  function functionCallWithValue(... */\n      swap7\n      pop\n      pop\n      pop\n      pop\n      pop\n      pop\n      pop\n      jump\t// out\n        /* \"@openzeppelin/contracts-upgradeable/utils/AddressUpgradeable.sol\":782:1159  function isContract(address account) internal view returns (bool) {... */\n    tag_398:\n        /* \"@openzeppelin/contracts-upgradeable/utils/AddressUpgradeable.sol\":1098:1118  extcodesize(account) */\n      extcodesize\n        /* \"@openzeppelin/contracts-upgradeable/utils/AddressUpgradeable.sol\":1144:1152  size > 0 */\n      iszero\n      iszero\n      swap1\n        /* \"@openzeppelin/contracts-upgradeable/utils/AddressUpgradeable.sol\":782:1159  function isContract(address account) internal view returns (bool) {... */\n      jump\t// out\n        /* \"@openzeppelin/contracts-upgradeable/utils/AddressUpgradeable.sol\":6275:6967  function verifyCallResult(... */\n    tag_408:\n        /* \"@openzeppelin/contracts-upgradeable/utils/AddressUpgradeable.sol\":6421:6433  bytes memory */\n      0x60\n        /* \"@openzeppelin/contracts-upgradeable/utils/AddressUpgradeable.sol\":6449:6456  success */\n      dup4\n        /* \"@openzeppelin/contracts-upgradeable/utils/AddressUpgradeable.sol\":6445:6961  if (success) {... */\n      iszero\n      tag_411\n      jumpi\n      pop\n        /* \"@openzeppelin/contracts-upgradeable/utils/AddressUpgradeable.sol\":6479:6489  returndata */\n      dup2\n        /* \"@openzeppelin/contracts-upgradeable/utils/AddressUpgradeable.sol\":6472:6489  return returndata */\n      jump(tag_324)\n        /* \"@openzeppelin/contracts-upgradeable/utils/AddressUpgradeable.sol\":6445:6961  if (success) {... */\n    tag_411:\n        /* \"@openzeppelin/contracts-upgradeable/utils/AddressUpgradeable.sol\":6590:6607  returndata.length */\n      dup3\n      mload\n        /* \"@openzeppelin/contracts-upgradeable/utils/AddressUpgradeable.sol\":6590:6611  returndata.length > 0 */\n      iszero\n        /* \"@openzeppelin/contracts-upgradeable/utils/AddressUpgradeable.sol\":6586:6951  if (returndata.length > 0) {... */\n      tag_413\n      jumpi\n        /* \"@openzeppelin/contracts-upgradeable/utils/AddressUpgradeable.sol\":6784:6794  returndata */\n      dup3\n        /* \"@openzeppelin/contracts-upgradeable/utils/AddressUpgradeable.sol\":6778:6795  mload(returndata) */\n      mload\n        /* \"@openzeppelin/contracts-upgradeable/utils/AddressUpgradeable.sol\":6844:6859  returndata_size */\n      dup1\n        /* \"@openzeppelin/contracts-upgradeable/utils/AddressUpgradeable.sol\":6831:6841  returndata */\n      dup5\n        /* \"@openzeppelin/contracts-upgradeable/utils/AddressUpgradeable.sol\":6827:6829  32 */\n      0x20\n        /* \"@openzeppelin/contracts-upgradeable/utils/AddressUpgradeable.sol\":6823:6842  add(32, returndata) */\n      add\n        /* \"@openzeppelin/contracts-upgradeable/utils/AddressUpgradeable.sol\":6816:6860  revert(add(32, returndata), returndata_size) */\n      revert\n        /* \"@openzeppelin/contracts-upgradeable/utils/AddressUpgradeable.sol\":6733:6878  {... */\n    tag_413:\n        /* \"@openzeppelin/contracts-upgradeable/utils/AddressUpgradeable.sol\":6923:6935  errorMessage */\n      dup2\n        /* \"@openzeppelin/contracts-upgradeable/utils/AddressUpgradeable.sol\":6916:6936  revert(errorMessage) */\n      mload(0x40)\n      shl(0xe5, 0x461bcd)\n      dup2\n      mstore\n      0x04\n      add\n      tag_179\n      swap2\n      swap1\n      tag_416\n      jump\t// in\n        /* \"#utility.yul\":14:273   */\n    tag_89:\n      0x00\n        /* \"#utility.yul\":126:128   */\n      0x20\n        /* \"#utility.yul\":114:123   */\n      dup3\n        /* \"#utility.yul\":105:112   */\n      dup5\n        /* \"#utility.yul\":101:124   */\n      sub\n        /* \"#utility.yul\":97:129   */\n      slt\n        /* \"#utility.yul\":94:96   */\n      iszero\n      tag_419\n      jumpi\n        /* \"#utility.yul\":147:153   */\n      dup1\n        /* \"#utility.yul\":139:145   */\n      dup2\n        /* \"#utility.yul\":132:154   */\n      revert\n        /* \"#utility.yul\":94:96   */\n    tag_419:\n        /* \"#utility.yul\":191:200   */\n      dup2\n        /* \"#utility.yul\":178:201   */\n      calldataload\n        /* \"#utility.yul\":210:243   */\n      tag_324\n        /* \"#utility.yul\":237:242   */\n      dup2\n        /* \"#utility.yul\":210:243   */\n      tag_421\n      jump\t// in\n        /* \"#utility.yul\":278:541   */\n    tag_339:\n      0x00\n        /* \"#utility.yul\":401:403   */\n      0x20\n        /* \"#utility.yul\":389:398   */\n      dup3\n        /* \"#utility.yul\":380:387   */\n      dup5\n        /* \"#utility.yul\":376:399   */\n      sub\n        /* \"#utility.yul\":372:404   */\n      slt\n        /* \"#utility.yul\":369:371   */\n      iszero\n      tag_423\n      jumpi\n        /* \"#utility.yul\":422:428   */\n      dup1\n        /* \"#utility.yul\":414:420   */\n      dup2\n        /* \"#utility.yul\":407:429   */\n      revert\n        /* \"#utility.yul\":369:371   */\n    tag_423:\n        /* \"#utility.yul\":459:468   */\n      dup2\n        /* \"#utility.yul\":453:469   */\n      mload\n        /* \"#utility.yul\":478:511   */\n      tag_324\n        /* \"#utility.yul\":505:510   */\n      dup2\n        /* \"#utility.yul\":478:511   */\n      tag_421\n      jump\t// in\n        /* \"#utility.yul\":546:942   */\n    tag_57:\n      0x00\n      dup1\n        /* \"#utility.yul\":672:674   */\n      0x40\n        /* \"#utility.yul\":660:669   */\n      dup4\n        /* \"#utility.yul\":651:658   */\n      dup6\n        /* \"#utility.yul\":647:670   */\n      sub\n        /* \"#utility.yul\":643:675   */\n      slt\n        /* \"#utility.yul\":640:642   */\n      iszero\n      tag_426\n      jumpi\n        /* \"#utility.yul\":693:699   */\n      dup1\n        /* \"#utility.yul\":685:691   */\n      dup2\n        /* \"#utility.yul\":678:700   */\n      revert\n        /* \"#utility.yul\":640:642   */\n    tag_426:\n        /* \"#utility.yul\":737:746   */\n      dup3\n        /* \"#utility.yul\":724:747   */\n      calldataload\n        /* \"#utility.yul\":756:789   */\n      tag_427\n        /* \"#utility.yul\":783:788   */\n      dup2\n        /* \"#utility.yul\":756:789   */\n      tag_421\n      jump\t// in\n    tag_427:\n        /* \"#utility.yul\":808:813   */\n      swap2\n      pop\n        /* \"#utility.yul\":865:867   */\n      0x20\n        /* \"#utility.yul\":850:868   */\n      dup4\n      add\n        /* \"#utility.yul\":837:869   */\n      calldataload\n        /* \"#utility.yul\":878:910   */\n      tag_428\n        /* \"#utility.yul\":837:869   */\n      dup2\n        /* \"#utility.yul\":878:910   */\n      tag_429\n      jump\t// in\n    tag_428:\n        /* \"#utility.yul\":929:936   */\n      dup1\n        /* \"#utility.yul\":919:936   */\n      swap2\n      pop\n      pop\n        /* \"#utility.yul\":630:942   */\n      swap3\n      pop\n      swap3\n      swap1\n      pop\n      jump\t// out\n        /* \"#utility.yul\":947:1274   */\n    tag_119:\n      0x00\n      dup1\n        /* \"#utility.yul\":1076:1078   */\n      0x40\n        /* \"#utility.yul\":1064:1073   */\n      dup4\n        /* \"#utility.yul\":1055:1062   */\n      dup6\n        /* \"#utility.yul\":1051:1074   */\n      sub\n        /* \"#utility.yul\":1047:1079   */\n      slt\n        /* \"#utility.yul\":1044:1046   */\n      iszero\n      tag_431\n      jumpi\n        /* \"#utility.yul\":1097:1103   */\n      dup2\n        /* \"#utility.yul\":1089:1095   */\n      dup3\n        /* \"#utility.yul\":1082:1104   */\n      revert\n        /* \"#utility.yul\":1044:1046   */\n    tag_431:\n        /* \"#utility.yul\":1141:1150   */\n      dup3\n        /* \"#utility.yul\":1128:1151   */\n      calldataload\n        /* \"#utility.yul\":1160:1193   */\n      tag_432\n        /* \"#utility.yul\":1187:1192   */\n      dup2\n        /* \"#utility.yul\":1160:1193   */\n      tag_421\n      jump\t// in\n    tag_432:\n        /* \"#utility.yul\":1212:1217   */\n      swap5\n        /* \"#utility.yul\":1264:1266   */\n      0x20\n        /* \"#utility.yul\":1249:1267   */\n      swap4\n      swap1\n      swap4\n      add\n        /* \"#utility.yul\":1236:1268   */\n      calldataload\n      swap4\n      pop\n      pop\n      pop\n        /* \"#utility.yul\":1034:1274   */\n      jump\t// out\n        /* \"#utility.yul\":1279:1532   */\n    tag_84:\n      0x00\n        /* \"#utility.yul\":1388:1390   */\n      0x20\n        /* \"#utility.yul\":1376:1385   */\n      dup3\n        /* \"#utility.yul\":1367:1374   */\n      dup5\n        /* \"#utility.yul\":1363:1386   */\n      sub\n        /* \"#utility.yul\":1359:1391   */\n      slt\n        /* \"#utility.yul\":1356:1358   */\n      iszero\n      tag_434\n      jumpi\n        /* \"#utility.yul\":1409:1415   */\n      dup1\n        /* \"#utility.yul\":1401:1407   */\n      dup2\n        /* \"#utility.yul\":1394:1416   */\n      revert\n        /* \"#utility.yul\":1356:1358   */\n    tag_434:\n        /* \"#utility.yul\":1453:1462   */\n      dup2\n        /* \"#utility.yul\":1440:1463   */\n      calldataload\n        /* \"#utility.yul\":1472:1502   */\n      tag_324\n        /* \"#utility.yul\":1496:1501   */\n      dup2\n        /* \"#utility.yul\":1472:1502   */\n      tag_429\n      jump\t// in\n        /* \"#utility.yul\":1537:1794   */\n    tag_282:\n      0x00\n        /* \"#utility.yul\":1657:1659   */\n      0x20\n        /* \"#utility.yul\":1645:1654   */\n      dup3\n        /* \"#utility.yul\":1636:1643   */\n      dup5\n        /* \"#utility.yul\":1632:1655   */\n      sub\n        /* \"#utility.yul\":1628:1660   */\n      slt\n        /* \"#utility.yul\":1625:1627   */\n      iszero\n      tag_437\n      jumpi\n        /* \"#utility.yul\":1678:1684   */\n      dup1\n        /* \"#utility.yul\":1670:1676   */\n      dup2\n        /* \"#utility.yul\":1663:1685   */\n      revert\n        /* \"#utility.yul\":1625:1627   */\n    tag_437:\n        /* \"#utility.yul\":1715:1724   */\n      dup2\n        /* \"#utility.yul\":1709:1725   */\n      mload\n        /* \"#utility.yul\":1734:1764   */\n      tag_324\n        /* \"#utility.yul\":1758:1763   */\n      dup2\n        /* \"#utility.yul\":1734:1764   */\n      tag_429\n      jump\t// in\n        /* \"#utility.yul\":1799:2918   */\n    tag_148:\n      0x00\n      dup1\n      0x00\n      dup1\n      0x00\n      dup1\n        /* \"#utility.yul\":2138:2141   */\n      0xc0\n        /* \"#utility.yul\":2126:2135   */\n      dup8\n        /* \"#utility.yul\":2117:2124   */\n      dup10\n        /* \"#utility.yul\":2113:2136   */\n      sub\n        /* \"#utility.yul\":2109:2142   */\n      slt\n        /* \"#utility.yul\":2106:2108   */\n      iszero\n      tag_440\n      jumpi\n        /* \"#utility.yul\":2160:2166   */\n      dup2\n        /* \"#utility.yul\":2152:2158   */\n      dup3\n        /* \"#utility.yul\":2145:2167   */\n      revert\n        /* \"#utility.yul\":2106:2108   */\n    tag_440:\n        /* \"#utility.yul\":2204:2213   */\n      dup7\n        /* \"#utility.yul\":2191:2214   */\n      calldataload\n        /* \"#utility.yul\":2223:2256   */\n      tag_441\n        /* \"#utility.yul\":2250:2255   */\n      dup2\n        /* \"#utility.yul\":2223:2256   */\n      tag_421\n      jump\t// in\n    tag_441:\n        /* \"#utility.yul\":2275:2280   */\n      swap6\n      pop\n        /* \"#utility.yul\":2332:2334   */\n      0x20\n        /* \"#utility.yul\":2317:2335   */\n      dup8\n      add\n        /* \"#utility.yul\":2304:2336   */\n      calldataload\n        /* \"#utility.yul\":2345:2380   */\n      tag_442\n        /* \"#utility.yul\":2304:2336   */\n      dup2\n        /* \"#utility.yul\":2345:2380   */\n      tag_421\n      jump\t// in\n    tag_442:\n        /* \"#utility.yul\":2399:2406   */\n      swap5\n      pop\n        /* \"#utility.yul\":2458:2460   */\n      0x40\n        /* \"#utility.yul\":2443:2461   */\n      dup8\n      add\n        /* \"#utility.yul\":2430:2462   */\n      calldataload\n        /* \"#utility.yul\":2471:2506   */\n      tag_443\n        /* \"#utility.yul\":2430:2462   */\n      dup2\n        /* \"#utility.yul\":2471:2506   */\n      tag_421\n      jump\t// in\n    tag_443:\n        /* \"#utility.yul\":2525:2532   */\n      swap4\n      pop\n        /* \"#utility.yul\":2584:2586   */\n      0x60\n        /* \"#utility.yul\":2569:2587   */\n      dup8\n      add\n        /* \"#utility.yul\":2556:2588   */\n      calldataload\n        /* \"#utility.yul\":2597:2632   */\n      tag_444\n        /* \"#utility.yul\":2556:2588   */\n      dup2\n        /* \"#utility.yul\":2597:2632   */\n      tag_421\n      jump\t// in\n    tag_444:\n        /* \"#utility.yul\":2651:2658   */\n      swap3\n      pop\n        /* \"#utility.yul\":2710:2713   */\n      0x80\n        /* \"#utility.yul\":2695:2714   */\n      dup8\n      add\n        /* \"#utility.yul\":2682:2715   */\n      calldataload\n        /* \"#utility.yul\":2724:2759   */\n      tag_445\n        /* \"#utility.yul\":2682:2715   */\n      dup2\n        /* \"#utility.yul\":2724:2759   */\n      tag_421\n      jump\t// in\n    tag_445:\n        /* \"#utility.yul\":2778:2785   */\n      swap2\n      pop\n        /* \"#utility.yul\":2837:2840   */\n      0xa0\n        /* \"#utility.yul\":2822:2841   */\n      dup8\n      add\n        /* \"#utility.yul\":2809:2842   */\n      calldataload\n        /* \"#utility.yul\":2851:2886   */\n      tag_446\n        /* \"#utility.yul\":2809:2842   */\n      dup2\n        /* \"#utility.yul\":2851:2886   */\n      tag_421\n      jump\t// in\n    tag_446:\n        /* \"#utility.yul\":2905:2912   */\n      dup1\n        /* \"#utility.yul\":2895:2912   */\n      swap2\n      pop\n      pop\n        /* \"#utility.yul\":2096:2918   */\n      swap3\n      swap6\n      pop\n      swap3\n      swap6\n      pop\n      swap3\n      swap6\n      jump\t// out\n        /* \"#utility.yul\":2923:3113   */\n    tag_51:\n      0x00\n        /* \"#utility.yul\":3035:3037   */\n      0x20\n        /* \"#utility.yul\":3023:3032   */\n      dup3\n        /* \"#utility.yul\":3014:3021   */\n      dup5\n        /* \"#utility.yul\":3010:3033   */\n      sub\n        /* \"#utility.yul\":3006:3038   */\n      slt\n        /* \"#utility.yul\":3003:3005   */\n      iszero\n      tag_448\n      jumpi\n        /* \"#utility.yul\":3056:3062   */\n      dup1\n        /* \"#utility.yul\":3048:3054   */\n      dup2\n        /* \"#utility.yul\":3041:3063   */\n      revert\n        /* \"#utility.yul\":3003:3005   */\n    tag_448:\n      pop\n        /* \"#utility.yul\":3084:3107   */\n      calldataload\n      swap2\n        /* \"#utility.yul\":2993:3113   */\n      swap1\n      pop\n      jump\t// out\n        /* \"#utility.yul\":3118:3312   */\n    tag_261:\n      0x00\n        /* \"#utility.yul\":3241:3243   */\n      0x20\n        /* \"#utility.yul\":3229:3238   */\n      dup3\n        /* \"#utility.yul\":3220:3227   */\n      dup5\n        /* \"#utility.yul\":3216:3239   */\n      sub\n        /* \"#utility.yul\":3212:3244   */\n      slt\n        /* \"#utility.yul\":3209:3211   */\n      iszero\n      tag_450\n      jumpi\n        /* \"#utility.yul\":3262:3268   */\n      dup1\n        /* \"#utility.yul\":3254:3260   */\n      dup2\n        /* \"#utility.yul\":3247:3269   */\n      revert\n        /* \"#utility.yul\":3209:3211   */\n    tag_450:\n      pop\n        /* \"#utility.yul\":3290:3306   */\n      mload\n      swap2\n        /* \"#utility.yul\":3199:3312   */\n      swap1\n      pop\n      jump\t// out\n        /* \"#utility.yul\":3317:3591   */\n    tag_403:\n      0x00\n        /* \"#utility.yul\":3484:3490   */\n      dup3\n        /* \"#utility.yul\":3478:3491   */\n      mload\n        /* \"#utility.yul\":3500:3553   */\n      tag_452\n        /* \"#utility.yul\":3546:3552   */\n      dup2\n        /* \"#utility.yul\":3541:3544   */\n      dup5\n        /* \"#utility.yul\":3534:3538   */\n      0x20\n        /* \"#utility.yul\":3526:3532   */\n      dup8\n        /* \"#utility.yul\":3522:3539   */\n      add\n        /* \"#utility.yul\":3500:3553   */\n      tag_453\n      jump\t// in\n    tag_452:\n        /* \"#utility.yul\":3569:3585   */\n      swap2\n      swap1\n      swap2\n      add\n      swap3\n        /* \"#utility.yul\":3454:3591   */\n      swap2\n      pop\n      pop\n      jump\t// out\n        /* \"#utility.yul\":3596:3799   */\n    tag_110:\n      sub(shl(0xa0, 0x01), 0x01)\n        /* \"#utility.yul\":3760:3792   */\n      swap2\n      swap1\n      swap2\n      and\n        /* \"#utility.yul\":3742:3793   */\n      dup2\n      mstore\n        /* \"#utility.yul\":3730:3732   */\n      0x20\n        /* \"#utility.yul\":3715:3733   */\n      add\n      swap1\n        /* \"#utility.yul\":3697:3799   */\n      jump\t// out\n        /* \"#utility.yul\":3804:4108   */\n    tag_334:\n      sub(shl(0xa0, 0x01), 0x01)\n        /* \"#utility.yul\":4034:4049   */\n      swap3\n      dup4\n      and\n        /* \"#utility.yul\":4016:4050   */\n      dup2\n      mstore\n        /* \"#utility.yul\":4086:4101   */\n      swap2\n      and\n        /* \"#utility.yul\":4081:4083   */\n      0x20\n        /* \"#utility.yul\":4066:4084   */\n      dup3\n      add\n        /* \"#utility.yul\":4059:4102   */\n      mstore\n        /* \"#utility.yul\":3966:3968   */\n      0x40\n        /* \"#utility.yul\":3951:3969   */\n      add\n      swap1\n        /* \"#utility.yul\":3933:4108   */\n      jump\t// out\n        /* \"#utility.yul\":4113:4387   */\n    tag_310:\n      sub(shl(0xa0, 0x01), 0x01)\n        /* \"#utility.yul\":4305:4337   */\n      swap3\n      swap1\n      swap3\n      and\n        /* \"#utility.yul\":4287:4338   */\n      dup3\n      mstore\n        /* \"#utility.yul\":4369:4371   */\n      0x20\n        /* \"#utility.yul\":4354:4372   */\n      dup3\n      add\n        /* \"#utility.yul\":4347:4381   */\n      mstore\n        /* \"#utility.yul\":4275:4277   */\n      0x40\n        /* \"#utility.yul\":4260:4278   */\n      add\n      swap1\n        /* \"#utility.yul\":4242:4387   */\n      jump\t// out\n        /* \"#utility.yul\":4392:4579   */\n    tag_54:\n        /* \"#utility.yul\":4557:4571   */\n      swap1\n      iszero\n        /* \"#utility.yul\":4550:4572   */\n      iszero\n        /* \"#utility.yul\":4532:4573   */\n      dup2\n      mstore\n        /* \"#utility.yul\":4520:4522   */\n      0x20\n        /* \"#utility.yul\":4505:4523   */\n      add\n      swap1\n        /* \"#utility.yul\":4487:4579   */\n      jump\t// out\n        /* \"#utility.yul\":5508:5891   */\n    tag_416:\n      0x00\n        /* \"#utility.yul\":5657:5659   */\n      0x20\n        /* \"#utility.yul\":5646:5655   */\n      dup3\n        /* \"#utility.yul\":5639:5660   */\n      mstore\n        /* \"#utility.yul\":5689:5695   */\n      dup3\n        /* \"#utility.yul\":5683:5696   */\n      mload\n        /* \"#utility.yul\":5732:5738   */\n      dup1\n        /* \"#utility.yul\":5727:5729   */\n      0x20\n        /* \"#utility.yul\":5716:5725   */\n      dup5\n        /* \"#utility.yul\":5712:5730   */\n      add\n        /* \"#utility.yul\":5705:5739   */\n      mstore\n        /* \"#utility.yul\":5748:5814   */\n      tag_463\n        /* \"#utility.yul\":5807:5813   */\n      dup2\n        /* \"#utility.yul\":5802:5804   */\n      0x40\n        /* \"#utility.yul\":5791:5800   */\n      dup6\n        /* \"#utility.yul\":5787:5805   */\n      add\n        /* \"#utility.yul\":5782:5784   */\n      0x20\n        /* \"#utility.yul\":5774:5780   */\n      dup8\n        /* \"#utility.yul\":5770:5785   */\n      add\n        /* \"#utility.yul\":5748:5814   */\n      tag_453\n      jump\t// in\n    tag_463:\n        /* \"#utility.yul\":5875:5877   */\n      0x1f\n        /* \"#utility.yul\":5854:5869   */\n      add\n      not(0x1f)\n        /* \"#utility.yul\":5850:5879   */\n      and\n        /* \"#utility.yul\":5835:5880   */\n      swap2\n      swap1\n      swap2\n      add\n        /* \"#utility.yul\":5882:5884   */\n      0x40\n        /* \"#utility.yul\":5831:5885   */\n      add\n      swap3\n        /* \"#utility.yul\":5629:5891   */\n      swap2\n      pop\n      pop\n      jump\t// out\n        /* \"#utility.yul\":5896:6298   */\n    tag_303:\n        /* \"#utility.yul\":6098:6100   */\n      0x20\n        /* \"#utility.yul\":6080:6101   */\n      dup1\n      dup3\n      mstore\n        /* \"#utility.yul\":6137:6139   */\n      0x26\n        /* \"#utility.yul\":6117:6135   */\n      swap1\n      dup3\n      add\n        /* \"#utility.yul\":6110:6140   */\n      mstore\n        /* \"#utility.yul\":6176:6210   */\n      0x4f776e61626c653a206e6577206f776e657220697320746865207a65726f2061\n        /* \"#utility.yul\":6171:6173   */\n      0x40\n        /* \"#utility.yul\":6156:6174   */\n      dup3\n      add\n        /* \"#utility.yul\":6149:6211   */\n      mstore\n      shl(0xd0, 0x646472657373)\n        /* \"#utility.yul\":6242:6244   */\n      0x60\n        /* \"#utility.yul\":6227:6245   */\n      dup3\n      add\n        /* \"#utility.yul\":6220:6256   */\n      mstore\n        /* \"#utility.yul\":6288:6291   */\n      0x80\n        /* \"#utility.yul\":6273:6292   */\n      add\n      swap1\n        /* \"#utility.yul\":6070:6298   */\n      jump\t// out\n        /* \"#utility.yul\":6303:6703   */\n    tag_254:\n        /* \"#utility.yul\":6505:6507   */\n      0x20\n        /* \"#utility.yul\":6487:6508   */\n      dup1\n      dup3\n      mstore\n        /* \"#utility.yul\":6544:6546   */\n      0x24\n        /* \"#utility.yul\":6524:6542   */\n      swap1\n      dup3\n      add\n        /* \"#utility.yul\":6517:6547   */\n      mstore\n        /* \"#utility.yul\":6583:6617   */\n      0x6578656375746f723a2063616c6c6572206973206e6f74207468652065786563\n        /* \"#utility.yul\":6578:6580   */\n      0x40\n        /* \"#utility.yul\":6563:6581   */\n      dup3\n      add\n        /* \"#utility.yul\":6556:6618   */\n      mstore\n      shl(0xe1, 0x3aba37b9)\n        /* \"#utility.yul\":6649:6651   */\n      0x60\n        /* \"#utility.yul\":6634:6652   */\n      dup3\n      add\n        /* \"#utility.yul\":6627:6661   */\n      mstore\n        /* \"#utility.yul\":6693:6696   */\n      0x80\n        /* \"#utility.yul\":6678:6697   */\n      add\n      swap1\n        /* \"#utility.yul\":6477:6703   */\n      jump\t// out\n        /* \"#utility.yul\":6708:7110   */\n    tag_396:\n        /* \"#utility.yul\":6910:6912   */\n      0x20\n        /* \"#utility.yul\":6892:6913   */\n      dup1\n      dup3\n      mstore\n        /* \"#utility.yul\":6949:6951   */\n      0x26\n        /* \"#utility.yul\":6929:6947   */\n      swap1\n      dup3\n      add\n        /* \"#utility.yul\":6922:6952   */\n      mstore\n        /* \"#utility.yul\":6988:7022   */\n      0x416464726573733a20696e73756666696369656e742062616c616e636520666f\n        /* \"#utility.yul\":6983:6985   */\n      0x40\n        /* \"#utility.yul\":6968:6986   */\n      dup3\n      add\n        /* \"#utility.yul\":6961:7023   */\n      mstore\n      shl(0xd2, 0x1c8818d85b1b)\n        /* \"#utility.yul\":7054:7056   */\n      0x60\n        /* \"#utility.yul\":7039:7057   */\n      dup3\n      add\n        /* \"#utility.yul\":7032:7068   */\n      mstore\n        /* \"#utility.yul\":7100:7103   */\n      0x80\n        /* \"#utility.yul\":7085:7104   */\n      add\n      swap1\n        /* \"#utility.yul\":6882:7110   */\n      jump\t// out\n        /* \"#utility.yul\":7115:7525   */\n    tag_245:\n        /* \"#utility.yul\":7317:7319   */\n      0x20\n        /* \"#utility.yul\":7299:7320   */\n      dup1\n      dup3\n      mstore\n        /* \"#utility.yul\":7356:7358   */\n      0x2e\n        /* \"#utility.yul\":7336:7354   */\n      swap1\n      dup3\n      add\n        /* \"#utility.yul\":7329:7359   */\n      mstore\n        /* \"#utility.yul\":7395:7429   */\n      0x496e697469616c697a61626c653a20636f6e747261637420697320616c726561\n        /* \"#utility.yul\":7390:7392   */\n      0x40\n        /* \"#utility.yul\":7375:7393   */\n      dup3\n      add\n        /* \"#utility.yul\":7368:7430   */\n      mstore\n      shl(0x92, 0x191e481a5b9a5d1a585b1a5e9959)\n        /* \"#utility.yul\":7461:7463   */\n      0x60\n        /* \"#utility.yul\":7446:7464   */\n      dup3\n      add\n        /* \"#utility.yul\":7439:7483   */\n      mstore\n        /* \"#utility.yul\":7515:7518   */\n      0x80\n        /* \"#utility.yul\":7500:7519   */\n      add\n      swap1\n        /* \"#utility.yul\":7289:7525   */\n      jump\t// out\n        /* \"#utility.yul\":7530:7886   */\n    tag_180:\n        /* \"#utility.yul\":7732:7734   */\n      0x20\n        /* \"#utility.yul\":7714:7735   */\n      dup1\n      dup3\n      mstore\n        /* \"#utility.yul\":7751:7769   */\n      dup2\n      dup2\n      add\n        /* \"#utility.yul\":7744:7774   */\n      mstore\n        /* \"#utility.yul\":7810:7844   */\n      0x4f776e61626c653a2063616c6c6572206973206e6f7420746865206f776e6572\n        /* \"#utility.yul\":7805:7807   */\n      0x40\n        /* \"#utility.yul\":7790:7808   */\n      dup3\n      add\n        /* \"#utility.yul\":7783:7845   */\n      mstore\n        /* \"#utility.yul\":7877:7879   */\n      0x60\n        /* \"#utility.yul\":7862:7880   */\n      add\n      swap1\n        /* \"#utility.yul\":7704:7886   */\n      jump\t// out\n        /* \"#utility.yul\":7891:8244   */\n    tag_401:\n        /* \"#utility.yul\":8093:8095   */\n      0x20\n        /* \"#utility.yul\":8075:8096   */\n      dup1\n      dup3\n      mstore\n        /* \"#utility.yul\":8132:8134   */\n      0x1d\n        /* \"#utility.yul\":8112:8130   */\n      swap1\n      dup3\n      add\n        /* \"#utility.yul\":8105:8135   */\n      mstore\n        /* \"#utility.yul\":8171:8202   */\n      0x416464726573733a2063616c6c20746f206e6f6e2d636f6e7472616374000000\n        /* \"#utility.yul\":8166:8168   */\n      0x40\n        /* \"#utility.yul\":8151:8169   */\n      dup3\n      add\n        /* \"#utility.yul\":8144:8203   */\n      mstore\n        /* \"#utility.yul\":8235:8237   */\n      0x60\n        /* \"#utility.yul\":8220:8238   */\n      add\n      swap1\n        /* \"#utility.yul\":8065:8244   */\n      jump\t// out\n        /* \"#utility.yul\":8249:8655   */\n    tag_370:\n        /* \"#utility.yul\":8451:8453   */\n      0x20\n        /* \"#utility.yul\":8433:8454   */\n      dup1\n      dup3\n      mstore\n        /* \"#utility.yul\":8490:8492   */\n      0x2a\n        /* \"#utility.yul\":8470:8488   */\n      swap1\n      dup3\n      add\n        /* \"#utility.yul\":8463:8493   */\n      mstore\n        /* \"#utility.yul\":8529:8563   */\n      0x5361666545524332303a204552433230206f7065726174696f6e20646964206e\n        /* \"#utility.yul\":8524:8526   */\n      0x40\n        /* \"#utility.yul\":8509:8527   */\n      dup3\n      add\n        /* \"#utility.yul\":8502:8564   */\n      mstore\n      shl(0xb2, 0x1bdd081cdd58d8d95959)\n        /* \"#utility.yul\":8595:8597   */\n      0x60\n        /* \"#utility.yul\":8580:8598   */\n      dup3\n      add\n        /* \"#utility.yul\":8573:8613   */\n      mstore\n        /* \"#utility.yul\":8645:8648   */\n      0x80\n        /* \"#utility.yul\":8630:8649   */\n      add\n      swap1\n        /* \"#utility.yul\":8423:8655   */\n      jump\t// out\n        /* \"#utility.yul\":8660:8837   */\n    tag_48:\n        /* \"#utility.yul\":8806:8831   */\n      swap1\n      dup2\n      mstore\n        /* \"#utility.yul\":8794:8796   */\n      0x20\n        /* \"#utility.yul\":8779:8797   */\n      add\n      swap1\n        /* \"#utility.yul\":8761:8837   */\n      jump\t// out\n        /* \"#utility.yul\":8842:8970   */\n    tag_389:\n      0x00\n        /* \"#utility.yul\":8913:8914   */\n      dup3\n        /* \"#utility.yul\":8909:8915   */\n      not\n        /* \"#utility.yul\":8906:8907   */\n      dup3\n        /* \"#utility.yul\":8903:8916   */\n      gt\n        /* \"#utility.yul\":8900:8902   */\n      iszero\n      tag_474\n      jumpi\n        /* \"#utility.yul\":8919:8937   */\n      tag_474\n      tag_475\n      jump\t// in\n    tag_474:\n      pop\n        /* \"#utility.yul\":8955:8964   */\n      add\n      swap1\n        /* \"#utility.yul\":8890:8970   */\n      jump\t// out\n        /* \"#utility.yul\":8975:9192   */\n    tag_328:\n      0x00\n        /* \"#utility.yul\":9041:9042   */\n      dup3\n        /* \"#utility.yul\":9031:9033   */\n      tag_477\n      jumpi\n      shl(0xe0, 0x4e487b71)\n        /* \"#utility.yul\":9066:9097   */\n      dup2\n      mstore\n        /* \"#utility.yul\":9120:9124   */\n      0x12\n        /* \"#utility.yul\":9117:9118   */\n      0x04\n        /* \"#utility.yul\":9110:9125   */\n      mstore\n        /* \"#utility.yul\":9148:9152   */\n      0x24\n        /* \"#utility.yul\":9073:9074   */\n      dup2\n        /* \"#utility.yul\":9138:9153   */\n      revert\n        /* \"#utility.yul\":9031:9033   */\n    tag_477:\n      pop\n        /* \"#utility.yul\":9177:9186   */\n      div\n      swap1\n        /* \"#utility.yul\":9021:9192   */\n      jump\t// out\n        /* \"#utility.yul\":9197:9365   */\n    tag_325:\n      0x00\n        /* \"#utility.yul\":9303:9304   */\n      dup2\n        /* \"#utility.yul\":9299:9300   */\n      0x00\n        /* \"#utility.yul\":9295:9301   */\n      not\n        /* \"#utility.yul\":9291:9305   */\n      div\n        /* \"#utility.yul\":9288:9289   */\n      dup4\n        /* \"#utility.yul\":9285:9306   */\n      gt\n        /* \"#utility.yul\":9280:9281   */\n      dup3\n        /* \"#utility.yul\":9273:9282   */\n      iszero\n        /* \"#utility.yul\":9266:9283   */\n      iszero\n        /* \"#utility.yul\":9262:9307   */\n      and\n        /* \"#utility.yul\":9259:9261   */\n      iszero\n      tag_480\n      jumpi\n        /* \"#utility.yul\":9310:9328   */\n      tag_480\n      tag_475\n      jump\t// in\n    tag_480:\n      pop\n        /* \"#utility.yul\":9350:9359   */\n      mul\n      swap1\n        /* \"#utility.yul\":9249:9365   */\n      jump\t// out\n        /* \"#utility.yul\":9370:9495   */\n    tag_331:\n      0x00\n        /* \"#utility.yul\":9438:9439   */\n      dup3\n        /* \"#utility.yul\":9435:9436   */\n      dup3\n        /* \"#utility.yul\":9432:9440   */\n      lt\n        /* \"#utility.yul\":9429:9431   */\n      iszero\n      tag_483\n      jumpi\n        /* \"#utility.yul\":9443:9461   */\n      tag_483\n      tag_475\n      jump\t// in\n    tag_483:\n      pop\n        /* \"#utility.yul\":9480:9489   */\n      sub\n      swap1\n        /* \"#utility.yul\":9419:9495   */\n      jump\t// out\n        /* \"#utility.yul\":9500:9758   */\n    tag_453:\n        /* \"#utility.yul\":9572:9573   */\n      0x00\n        /* \"#utility.yul\":9582:9695   */\n    tag_485:\n        /* \"#utility.yul\":9596:9602   */\n      dup4\n        /* \"#utility.yul\":9593:9594   */\n      dup2\n        /* \"#utility.yul\":9590:9603   */\n      lt\n        /* \"#utility.yul\":9582:9695   */\n      iszero\n      tag_487\n      jumpi\n        /* \"#utility.yul\":9672:9683   */\n      dup2\n      dup2\n      add\n        /* \"#utility.yul\":9666:9684   */\n      mload\n        /* \"#utility.yul\":9653:9664   */\n      dup4\n      dup3\n      add\n        /* \"#utility.yul\":9646:9685   */\n      mstore\n        /* \"#utility.yul\":9618:9620   */\n      0x20\n        /* \"#utility.yul\":9611:9621   */\n      add\n        /* \"#utility.yul\":9582:9695   */\n      jump(tag_485)\n    tag_487:\n        /* \"#utility.yul\":9713:9719   */\n      dup4\n        /* \"#utility.yul\":9710:9711   */\n      dup2\n        /* \"#utility.yul\":9707:9720   */\n      gt\n        /* \"#utility.yul\":9704:9706   */\n      iszero\n      tag_488\n      jumpi\n        /* \"#utility.yul\":9748:9749   */\n      0x00\n        /* \"#utility.yul\":9739:9745   */\n      dup5\n        /* \"#utility.yul\":9734:9737   */\n      dup5\n        /* \"#utility.yul\":9730:9746   */\n      add\n        /* \"#utility.yul\":9723:9750   */\n      mstore\n        /* \"#utility.yul\":9704:9706   */\n    tag_488:\n      pop\n        /* \"#utility.yul\":9553:9758   */\n      pop\n      pop\n      pop\n      jump\t// out\n        /* \"#utility.yul\":9763:9890   */\n    tag_475:\n        /* \"#utility.yul\":9824:9834   */\n      0x4e487b71\n        /* \"#utility.yul\":9819:9822   */\n      0xe0\n        /* \"#utility.yul\":9815:9835   */\n      shl\n        /* \"#utility.yul\":9812:9813   */\n      0x00\n        /* \"#utility.yul\":9805:9836   */\n      mstore\n        /* \"#utility.yul\":9855:9859   */\n      0x11\n        /* \"#utility.yul\":9852:9853   */\n      0x04\n        /* \"#utility.yul\":9845:9860   */\n      mstore\n        /* \"#utility.yul\":9879:9883   */\n      0x24\n        /* \"#utility.yul\":9876:9877   */\n      0x00\n        /* \"#utility.yul\":9869:9884   */\n      revert\n        /* \"#utility.yul\":9895:10028   */\n    tag_421:\n      sub(shl(0xa0, 0x01), 0x01)\n        /* \"#utility.yul\":9972:10003   */\n      dup2\n      and\n        /* \"#utility.yul\":9962:10004   */\n      dup2\n      eq\n        /* \"#utility.yul\":9952:9954   */\n      tag_304\n      jumpi\n        /* \"#utility.yul\":10018:10019   */\n      0x00\n        /* \"#utility.yul\":10015:10016   */\n      dup1\n        /* \"#utility.yul\":10008:10020   */\n      revert\n        /* \"#utility.yul\":10033:10153   */\n    tag_429:\n        /* \"#utility.yul\":10121:10126   */\n      dup1\n        /* \"#utility.yul\":10114:10127   */\n      iszero\n        /* \"#utility.yul\":10107:10128   */\n      iszero\n        /* \"#utility.yul\":10100:10105   */\n      dup2\n        /* \"#utility.yul\":10097:10129   */\n      eq\n        /* \"#utility.yul\":10087:10089   */\n      tag_304\n      jumpi\n        /* \"#utility.yul\":10143:10144   */\n      0x00\n        /* \"#utility.yul\":10140:10141   */\n      dup1\n        /* \"#utility.yul\":10133:10145   */\n      revert\n\n    auxdata: 0xa26469706673582212209674a326081681ffc493c25dc2a10c0662430ae8e8ff290e60ec3b6f6db296b364736f6c63430008000033\n}\n",
				"bytecode": {
					"linkReferences": {},
					"object": "608060405234801561001057600080fd5b50611848806100206000396000f3fe608060405234801561001057600080fd5b50600436106102115760003560e01c80638da5cb5b11610125578063c83dd231116100ad578063db7f521a1161007c578063db7f521a146103bc578063ec1f1f69146103cf578063f1068454146103d7578063f2fde38b146103df578063f6d7eade146103f257610211565b8063c83dd23114610386578063cc2a9a5b1461038e578063d10c06a2146103a1578063d477f05f146103a957610211565b8063a36a7526116100f4578063a36a752614610348578063aaf5eb681461035b578063af5518c414610363578063b8bb97a114610376578063bd0b1f441461037e57610211565b80638da5cb5b1461031d57806391cca3db14610325578063930ed0331461032d5780639da5b0d51461034057610211565b80633e413bee116101a85780634ecaac41116101775780634ecaac41146102e857806355c746d1146102f057806358de5de814610303578063715018a61461030b5780637e47961c1461031557610211565b80633e413bee146102b25780634591db50146102ba57806348c7e528146102cd5780634ae6a027146102e057610211565b80632c535a52116101e45780632c535a521461027a5780633011d3d51461028257806336e9332d146102975780633c850e1e1461029f57610211565b806316d03993146102165780631b0d8aab146102345780631e1bff3f1461025457806327c42a5014610267575b600080fd5b61021e6103fa565b60405161022b9190611732565b60405180910390f35b61024761024236600461148d565b610400565b60405161022b9190611520565b610247610262366004611371565b610453565b61024761027536600461148d565b6104c3565b61021e61050d565b61028a610513565b60405161022b91906114d9565b61028a610522565b6102476102ad36600461148d565b610531565b61028a61057b565b6102476102c83660046113d4565b61058a565b6102476102db366004611339565b6105ec565b61021e610601565b61028a610607565b6102476102fe3660046113d4565b610616565b610247610678565b610313610688565b005b61028a6106d3565b61028a6106e2565b61028a6106f1565b61024761033b3660046113a9565b610700565b61024761075e565b610247610356366004611339565b61076e565b61021e6107d4565b61024761037136600461148d565b6107da565b61028a610824565b61021e610833565b61028a610839565b61031361039c36600461140c565b610848565b610247610978565b6102476103b7366004611339565b610b9f565b6102476103ca366004611339565b610c05565b61028a610c6b565b61021e610c7a565b6103136103ed366004611339565b610c80565b61028a610cf1565b60725481565b600061040a610d00565b6001600160a01b031661041b6106e2565b6001600160a01b03161461044a5760405162461bcd60e51b81526004016104419061167c565b60405180910390fd5b50607355600190565b600061045d610d00565b6001600160a01b031661046e6106e2565b6001600160a01b0316146104945760405162461bcd60e51b81526004016104419061167c565b506001600160a01b0382166000908152606560205260409020805482151560ff19909116179055600192915050565b60006104cd610d00565b6001600160a01b03166104de6106e2565b6001600160a01b0316146105045760405162461bcd60e51b81526004016104419061167c565b50606e55600190565b606f5481565b6066546001600160a01b031681565b6074546001600160a01b031681565b600061053b610d00565b6001600160a01b031661054c6106e2565b6001600160a01b0316146105725760405162461bcd60e51b81526004016104419061167c565b50607055600190565b6067546001600160a01b031681565b6000610594610d00565b6001600160a01b03166105a56106e2565b6001600160a01b0316146105cb5760405162461bcd60e51b81526004016104419061167c565b5060748054821515600160a01b0260ff60a01b199091161790556001919050565b60656020526000908152604090205460ff1681565b60705481565b6068546001600160a01b031681565b6000610620610d00565b6001600160a01b03166106316106e2565b6001600160a01b0316146106575760405162461bcd60e51b81526004016104419061167c565b5060748054821515600160a81b0260ff60a81b199091161790556001919050565b607454600160a81b900460ff1681565b610690610d00565b6001600160a01b03166106a16106e2565b6001600160a01b0316146106c75760405162461bcd60e51b81526004016104419061167c565b6106d16000610d04565b565b6075546001600160a01b031681565b6033546001600160a01b031690565b606b546001600160a01b031681565b600061070a610d00565b6001600160a01b031661071b6106e2565b6001600160a01b0316146107415760405162461bcd60e51b81526004016104419061167c565b6107556001600160a01b0384163384610d56565b50600192915050565b607454600160a01b900460ff1681565b6000610778610d00565b6001600160a01b03166107896106e2565b6001600160a01b0316146107af5760405162461bcd60e51b81526004016104419061167c565b50606a80546001600160a01b0383166001600160a01b03199091161790556001919050565b60715481565b60006107e4610d00565b6001600160a01b03166107f56106e2565b6001600160a01b03161461081b5760405162461bcd60e51b81526004016104419061167c565b50606f55600190565b6069546001600160a01b031681565b606e5481565b606d546001600160a01b031681565b600054610100900460ff1680610861575060005460ff16155b61087d5760405162461bcd60e51b81526004016104419061162e565b600054610100900460ff161580156108a8576000805460ff1961ff0019909116610100171660011790555b6108b0610db1565b606c80546001600160a01b03199081166001600160a01b0389811691909117909255606d805482168a8416179055606680548216888416179055606880548216878416179055606980548216868416179055606a8054339083168117909155606b8054909216179055611388606e556109c4606f8190556070556127106071556103e860725560748054600160a01b60ff60a01b1990911617600161ff0160a01b031916918416919091179055801561096f576000805461ff00191690555b50505050505050565b3360009081526065602052604081205460ff166109a75760405162461bcd60e51b8152600401610441906115a4565b6066546040516370a0823160e01b81526000916001600160a01b0316906370a08231906109d89030906004016114d9565b60206040518083038186803b1580156109f057600080fd5b505afa158015610a04573d6000803e3d6000fd5b505050506040513d601f19601f82011682018060405250810190610a2891906114a5565b90506000610a4d607154610a47606e5485610e3590919063ffffffff16565b90610e48565b90506000610a6c607154610a47606f5486610e3590919063ffffffff16565b90506000610a8482610a7e8686610e54565b90610e54565b606954606654919250610aa4916001600160a01b03908116911685610d56565b606a54606654610ac1916001600160a01b03918216911684610d56565b606b54606654610ade916001600160a01b03918216911683610d56565b607454600160a01b900460ff1615610af857610af8610e60565b607454600160a81b900460ff1615610b9457607560009054906101000a90046001600160a01b03166001600160a01b031663796c7be76040518163ffffffff1660e01b8152600401602060405180830381600087803b158015610b5a57600080fd5b505af1158015610b6e573d6000803e3d6000fd5b505050506040513d601f19601f82011682018060405250810190610b9291906113f0565b505b600194505050505090565b6000610ba9610d00565b6001600160a01b0316610bba6106e2565b6001600160a01b031614610be05760405162461bcd60e51b81526004016104419061167c565b50606b80546001600160a01b0383166001600160a01b03199091161790556001919050565b6000610c0f610d00565b6001600160a01b0316610c206106e2565b6001600160a01b031614610c465760405162461bcd60e51b81526004016104419061167c565b50607580546001600160a01b0383166001600160a01b03199091161790556001919050565b606a546001600160a01b031681565b60735481565b610c88610d00565b6001600160a01b0316610c996106e2565b6001600160a01b031614610cbf5760405162461bcd60e51b81526004016104419061167c565b6001600160a01b038116610ce55760405162461bcd60e51b81526004016104419061155e565b610cee81610d04565b50565b606c546001600160a01b031681565b3390565b603380546001600160a01b038381166001600160a01b0319831681179093556040519116919082907f8be0079c531659141344cd1fd0a4f28419497f9722a3daafe3b4186f6b6457e090600090a35050565b610dac8363a9059cbb60e01b8484604051602401610d75929190611507565b60408051601f198184030181529190526020810180516001600160e01b03166001600160e01b0319909316929092179091526110a5565b505050565b600054610100900460ff1680610dca575060005460ff16155b610de65760405162461bcd60e51b81526004016104419061162e565b600054610100900460ff16158015610e11576000805460ff1961ff0019909116610100171660011790555b610e19611134565b610e216111a7565b8015610cee576000805461ff001916905550565b6000610e418284611773565b9392505050565b6000610e418284611753565b6000610e418284611792565b606d5460675460665460405163e6a4390560e01b81526000936001600160a01b039081169363e6a4390593610e9d939183169216906004016114ed565b60206040518083038186803b158015610eb557600080fd5b505afa158015610ec9573d6000803e3d6000fd5b505050506040513d601f19601f82011682018060405250810190610eed9190611355565b6066546040516370a0823160e01b81529192506000916001600160a01b03909116906370a0823190610f239085906004016114d9565b60206040518083038186803b158015610f3b57600080fd5b505afa158015610f4f573d6000803e3d6000fd5b505050506040513d601f19601f82011682018060405250810190610f7391906114a5565b6067546040516370a0823160e01b81529192506000916001600160a01b03909116906370a0823190610fa99086906004016114d9565b60206040518083038186803b158015610fc157600080fd5b505afa158015610fd5573d6000803e3d6000fd5b505050506040513d601f19601f82011682018060405250810190610ff991906114a5565b9050600061101383610a4784670de0b6b3a7640000610e35565b9050600080670de0b6b3a764000083111561106e57611044655af3107a4000610a4785670de0b6b3a7640000610e54565b90506072548111156110595760009150611069565b6072546110669082610e54565b91505b61109d565b61108a655af3107a4000610a4785670de0b6b3a7640000611792565b60725490915061109a9082611217565b91505b505050505050565b60006110fa826040518060400160405280602081526020017f5361666545524332303a206c6f772d6c6576656c2063616c6c206661696c6564815250856001600160a01b03166112239092919063ffffffff16565b805190915015610dac578080602001905181019061111891906113f0565b610dac5760405162461bcd60e51b8152600401610441906116e8565b600054610100900460ff168061114d575060005460ff16155b6111695760405162461bcd60e51b81526004016104419061162e565b600054610100900460ff16158015610e21576000805460ff1961ff0019909116610100171660011790558015610cee576000805461ff001916905550565b600054610100900460ff16806111c0575060005460ff16155b6111dc5760405162461bcd60e51b81526004016104419061162e565b600054610100900460ff16158015611207576000805460ff1961ff0019909116610100171660011790555b610e21611212610d00565b610d04565b6000610e41828461173b565b6060611232848460008561123a565b949350505050565b60608247101561125c5760405162461bcd60e51b8152600401610441906115e8565b611265856112fa565b6112815760405162461bcd60e51b8152600401610441906116b1565b600080866001600160a01b0316858760405161129d91906114bd565b60006040518083038185875af1925050503d80600081146112da576040519150601f19603f3d011682016040523d82523d6000602084013e6112df565b606091505b50915091506112ef828286611300565b979650505050505050565b3b151590565b6060831561130f575081610e41565b82511561131f5782518084602001fd5b8160405162461bcd60e51b8152600401610441919061152b565b60006020828403121561134a578081fd5b8135610e41816117ef565b600060208284031215611366578081fd5b8151610e41816117ef565b60008060408385031215611383578081fd5b823561138e816117ef565b9150602083013561139e81611804565b809150509250929050565b600080604083850312156113bb578182fd5b82356113c6816117ef565b946020939093013593505050565b6000602082840312156113e5578081fd5b8135610e4181611804565b600060208284031215611401578081fd5b8151610e4181611804565b60008060008060008060c08789031215611424578182fd5b863561142f816117ef565b9550602087013561143f816117ef565b9450604087013561144f816117ef565b9350606087013561145f816117ef565b9250608087013561146f816117ef565b915060a087013561147f816117ef565b809150509295509295509295565b60006020828403121561149e578081fd5b5035919050565b6000602082840312156114b6578081fd5b5051919050565b600082516114cf8184602087016117a9565b9190910192915050565b6001600160a01b0391909116815260200190565b6001600160a01b0392831681529116602082015260400190565b6001600160a01b03929092168252602082015260400190565b901515815260200190565b600060208252825180602084015261154a8160408501602087016117a9565b601f01601f19169190910160400192915050565b60208082526026908201527f4f776e61626c653a206e6577206f776e657220697320746865207a65726f206160408201526564647265737360d01b606082015260800190565b60208082526024908201527f6578656375746f723a2063616c6c6572206973206e6f742074686520657865636040820152633aba37b960e11b606082015260800190565b60208082526026908201527f416464726573733a20696e73756666696369656e742062616c616e636520666f6040820152651c8818d85b1b60d21b606082015260800190565b6020808252602e908201527f496e697469616c697a61626c653a20636f6e747261637420697320616c72656160408201526d191e481a5b9a5d1a585b1a5e995960921b606082015260800190565b6020808252818101527f4f776e61626c653a2063616c6c6572206973206e6f7420746865206f776e6572604082015260600190565b6020808252601d908201527f416464726573733a2063616c6c20746f206e6f6e2d636f6e7472616374000000604082015260600190565b6020808252602a908201527f5361666545524332303a204552433230206f7065726174696f6e20646964206e6040820152691bdd081cdd58d8d9595960b21b606082015260800190565b90815260200190565b6000821982111561174e5761174e6117d9565b500190565b60008261176e57634e487b7160e01b81526012600452602481fd5b500490565b600081600019048311821515161561178d5761178d6117d9565b500290565b6000828210156117a4576117a46117d9565b500390565b60005b838110156117c45781810151838201526020016117ac565b838111156117d3576000848401525b50505050565b634e487b7160e01b600052601160045260246000fd5b6001600160a01b0381168114610cee57600080fd5b8015158114610cee57600080fdfea26469706673582212209674a326081681ffc493c25dc2a10c0662430ae8e8ff290e60ec3b6f6db296b364736f6c63430008000033",
					"opcodes": "PUSH1 0x80 PUSH1 0x40 MSTORE CALLVALUE DUP1 ISZERO PUSH2 0x10 JUMPI PUSH1 0x0 DUP1 REVERT JUMPDEST POP PUSH2 0x1848 DUP1 PUSH2 0x20 PUSH1 0x0 CODECOPY PUSH1 0x0 RETURN INVALID PUSH1 0x80 PUSH1 0x40 MSTORE CALLVALUE DUP1 ISZERO PUSH2 0x10 JUMPI PUSH1 0x0 DUP1 REVERT JUMPDEST POP PUSH1 0x4 CALLDATASIZE LT PUSH2 0x211 JUMPI PUSH1 0x0 CALLDATALOAD PUSH1 0xE0 SHR DUP1 PUSH4 0x8DA5CB5B GT PUSH2 0x125 JUMPI DUP1 PUSH4 0xC83DD231 GT PUSH2 0xAD JUMPI DUP1 PUSH4 0xDB7F521A GT PUSH2 0x7C JUMPI DUP1 PUSH4 0xDB7F521A EQ PUSH2 0x3BC JUMPI DUP1 PUSH4 0xEC1F1F69 EQ PUSH2 0x3CF JUMPI DUP1 PUSH4 0xF1068454 EQ PUSH2 0x3D7 JUMPI DUP1 PUSH4 0xF2FDE38B EQ PUSH2 0x3DF JUMPI DUP1 PUSH4 0xF6D7EADE EQ PUSH2 0x3F2 JUMPI PUSH2 0x211 JUMP JUMPDEST DUP1 PUSH4 0xC83DD231 EQ PUSH2 0x386 JUMPI DUP1 PUSH4 0xCC2A9A5B EQ PUSH2 0x38E JUMPI DUP1 PUSH4 0xD10C06A2 EQ PUSH2 0x3A1 JUMPI DUP1 PUSH4 0xD477F05F EQ PUSH2 0x3A9 JUMPI PUSH2 0x211 JUMP JUMPDEST DUP1 PUSH4 0xA36A7526 GT PUSH2 0xF4 JUMPI DUP1 PUSH4 0xA36A7526 EQ PUSH2 0x348 JUMPI DUP1 PUSH4 0xAAF5EB68 EQ PUSH2 0x35B JUMPI DUP1 PUSH4 0xAF5518C4 EQ PUSH2 0x363 JUMPI DUP1 PUSH4 0xB8BB97A1 EQ PUSH2 0x376 JUMPI DUP1 PUSH4 0xBD0B1F44 EQ PUSH2 0x37E JUMPI PUSH2 0x211 JUMP JUMPDEST DUP1 PUSH4 0x8DA5CB5B EQ PUSH2 0x31D JUMPI DUP1 PUSH4 0x91CCA3DB EQ PUSH2 0x325 JUMPI DUP1 PUSH4 0x930ED033 EQ PUSH2 0x32D JUMPI DUP1 PUSH4 0x9DA5B0D5 EQ PUSH2 0x340 JUMPI PUSH2 0x211 JUMP JUMPDEST DUP1 PUSH4 0x3E413BEE GT PUSH2 0x1A8 JUMPI DUP1 PUSH4 0x4ECAAC41 GT PUSH2 0x177 JUMPI DUP1 PUSH4 0x4ECAAC41 EQ PUSH2 0x2E8 JUMPI DUP1 PUSH4 0x55C746D1 EQ PUSH2 0x2F0 JUMPI DUP1 PUSH4 0x58DE5DE8 EQ PUSH2 0x303 JUMPI DUP1 PUSH4 0x715018A6 EQ PUSH2 0x30B JUMPI DUP1 PUSH4 0x7E47961C EQ PUSH2 0x315 JUMPI PUSH2 0x211 JUMP JUMPDEST DUP1 PUSH4 0x3E413BEE EQ PUSH2 0x2B2 JUMPI DUP1 PUSH4 0x4591DB50 EQ PUSH2 0x2BA JUMPI DUP1 PUSH4 0x48C7E528 EQ PUSH2 0x2CD JUMPI DUP1 PUSH4 0x4AE6A027 EQ PUSH2 0x2E0 JUMPI PUSH2 0x211 JUMP JUMPDEST DUP1 PUSH4 0x2C535A52 GT PUSH2 0x1E4 JUMPI DUP1 PUSH4 0x2C535A52 EQ PUSH2 0x27A JUMPI DUP1 PUSH4 0x3011D3D5 EQ PUSH2 0x282 JUMPI DUP1 PUSH4 0x36E9332D EQ PUSH2 0x297 JUMPI DUP1 PUSH4 0x3C850E1E EQ PUSH2 0x29F JUMPI PUSH2 0x211 JUMP JUMPDEST DUP1 PUSH4 0x16D03993 EQ PUSH2 0x216 JUMPI DUP1 PUSH4 0x1B0D8AAB EQ PUSH2 0x234 JUMPI DUP1 PUSH4 0x1E1BFF3F EQ PUSH2 0x254 JUMPI DUP1 PUSH4 0x27C42A50 EQ PUSH2 0x267 JUMPI JUMPDEST PUSH1 0x0 DUP1 REVERT JUMPDEST PUSH2 0x21E PUSH2 0x3FA JUMP JUMPDEST PUSH1 0x40 MLOAD PUSH2 0x22B SWAP2 SWAP1 PUSH2 0x1732 JUMP JUMPDEST PUSH1 0x40 MLOAD DUP1 SWAP2 SUB SWAP1 RETURN JUMPDEST PUSH2 0x247 PUSH2 0x242 CALLDATASIZE PUSH1 0x4 PUSH2 0x148D JUMP JUMPDEST PUSH2 0x400 JUMP JUMPDEST PUSH1 0x40 MLOAD PUSH2 0x22B SWAP2 SWAP1 PUSH2 0x1520 JUMP JUMPDEST PUSH2 0x247 PUSH2 0x262 CALLDATASIZE PUSH1 0x4 PUSH2 0x1371 JUMP JUMPDEST PUSH2 0x453 JUMP JUMPDEST PUSH2 0x247 PUSH2 0x275 CALLDATASIZE PUSH1 0x4 PUSH2 0x148D JUMP JUMPDEST PUSH2 0x4C3 JUMP JUMPDEST PUSH2 0x21E PUSH2 0x50D JUMP JUMPDEST PUSH2 0x28A PUSH2 0x513 JUMP JUMPDEST PUSH1 0x40 MLOAD PUSH2 0x22B SWAP2 SWAP1 PUSH2 0x14D9 JUMP JUMPDEST PUSH2 0x28A PUSH2 0x522 JUMP JUMPDEST PUSH2 0x247 PUSH2 0x2AD CALLDATASIZE PUSH1 0x4 PUSH2 0x148D JUMP JUMPDEST PUSH2 0x531 JUMP JUMPDEST PUSH2 0x28A PUSH2 0x57B JUMP JUMPDEST PUSH2 0x247 PUSH2 0x2C8 CALLDATASIZE PUSH1 0x4 PUSH2 0x13D4 JUMP JUMPDEST PUSH2 0x58A JUMP JUMPDEST PUSH2 0x247 PUSH2 0x2DB CALLDATASIZE PUSH1 0x4 PUSH2 0x1339 JUMP JUMPDEST PUSH2 0x5EC JUMP JUMPDEST PUSH2 0x21E PUSH2 0x601 JUMP JUMPDEST PUSH2 0x28A PUSH2 0x607 JUMP JUMPDEST PUSH2 0x247 PUSH2 0x2FE CALLDATASIZE PUSH1 0x4 PUSH2 0x13D4 JUMP JUMPDEST PUSH2 0x616 JUMP JUMPDEST PUSH2 0x247 PUSH2 0x678 JUMP JUMPDEST PUSH2 0x313 PUSH2 0x688 JUMP JUMPDEST STOP JUMPDEST PUSH2 0x28A PUSH2 0x6D3 JUMP JUMPDEST PUSH2 0x28A PUSH2 0x6E2 JUMP JUMPDEST PUSH2 0x28A PUSH2 0x6F1 JUMP JUMPDEST PUSH2 0x247 PUSH2 0x33B CALLDATASIZE PUSH1 0x4 PUSH2 0x13A9 JUMP JUMPDEST PUSH2 0x700 JUMP JUMPDEST PUSH2 0x247 PUSH2 0x75E JUMP JUMPDEST PUSH2 0x247 PUSH2 0x356 CALLDATASIZE PUSH1 0x4 PUSH2 0x1339 JUMP JUMPDEST PUSH2 0x76E JUMP JUMPDEST PUSH2 0x21E PUSH2 0x7D4 JUMP JUMPDEST PUSH2 0x247 PUSH2 0x371 CALLDATASIZE PUSH1 0x4 PUSH2 0x148D JUMP JUMPDEST PUSH2 0x7DA JUMP JUMPDEST PUSH2 0x28A PUSH2 0x824 JUMP JUMPDEST PUSH2 0x21E PUSH2 0x833 JUMP JUMPDEST PUSH2 0x28A PUSH2 0x839 JUMP JUMPDEST PUSH2 0x313 PUSH2 0x39C CALLDATASIZE PUSH1 0x4 PUSH2 0x140C JUMP JUMPDEST PUSH2 0x848 JUMP JUMPDEST PUSH2 0x247 PUSH2 0x978 JUMP JUMPDEST PUSH2 0x247 PUSH2 0x3B7 CALLDATASIZE PUSH1 0x4 PUSH2 0x1339 JUMP JUMPDEST PUSH2 0xB9F JUMP JUMPDEST PUSH2 0x247 PUSH2 0x3CA CALLDATASIZE PUSH1 0x4 PUSH2 0x1339 JUMP JUMPDEST PUSH2 0xC05 JUMP JUMPDEST PUSH2 0x28A PUSH2 0xC6B JUMP JUMPDEST PUSH2 0x21E PUSH2 0xC7A JUMP JUMPDEST PUSH2 0x313 PUSH2 0x3ED CALLDATASIZE PUSH1 0x4 PUSH2 0x1339 JUMP JUMPDEST PUSH2 0xC80 JUMP JUMPDEST PUSH2 0x28A PUSH2 0xCF1 JUMP JUMPDEST PUSH1 0x72 SLOAD DUP2 JUMP JUMPDEST PUSH1 0x0 PUSH2 0x40A PUSH2 0xD00 JUMP JUMPDEST PUSH1 0x1 PUSH1 0x1 PUSH1 0xA0 SHL SUB AND PUSH2 0x41B PUSH2 0x6E2 JUMP JUMPDEST PUSH1 0x1 PUSH1 0x1 PUSH1 0xA0 SHL SUB AND EQ PUSH2 0x44A JUMPI PUSH1 0x40 MLOAD PUSH3 0x461BCD PUSH1 0xE5 SHL DUP2 MSTORE PUSH1 0x4 ADD PUSH2 0x441 SWAP1 PUSH2 0x167C JUMP JUMPDEST PUSH1 0x40 MLOAD DUP1 SWAP2 SUB SWAP1 REVERT JUMPDEST POP PUSH1 0x73 SSTORE PUSH1 0x1 SWAP1 JUMP JUMPDEST PUSH1 0x0 PUSH2 0x45D PUSH2 0xD00 JUMP JUMPDEST PUSH1 0x1 PUSH1 0x1 PUSH1 0xA0 SHL SUB AND PUSH2 0x46E PUSH2 0x6E2 JUMP JUMPDEST PUSH1 0x1 PUSH1 0x1 PUSH1 0xA0 SHL SUB AND EQ PUSH2 0x494 JUMPI PUSH1 0x40 MLOAD PUSH3 0x461BCD PUSH1 0xE5 SHL DUP2 MSTORE PUSH1 0x4 ADD PUSH2 0x441 SWAP1 PUSH2 0x167C JUMP JUMPDEST POP PUSH1 0x1 PUSH1 0x1 PUSH1 0xA0 SHL SUB DUP3 AND PUSH1 0x0 SWAP1 DUP2 MSTORE PUSH1 0x65 PUSH1 0x20 MSTORE PUSH1 0x40 SWAP1 KECCAK256 DUP1 SLOAD DUP3 ISZERO ISZERO PUSH1 0xFF NOT SWAP1 SWAP2 AND OR SWAP1 SSTORE PUSH1 0x1 SWAP3 SWAP2 POP POP JUMP JUMPDEST PUSH1 0x0 PUSH2 0x4CD PUSH2 0xD00 JUMP JUMPDEST PUSH1 0x1 PUSH1 0x1 PUSH1 0xA0 SHL SUB AND PUSH2 0x4DE PUSH2 0x6E2 JUMP JUMPDEST PUSH1 0x1 PUSH1 0x1 PUSH1 0xA0 SHL SUB AND EQ PUSH2 0x504 JUMPI PUSH1 0x40 MLOAD PUSH3 0x461BCD PUSH1 0xE5 SHL DUP2 MSTORE PUSH1 0x4 ADD PUSH2 0x441 SWAP1 PUSH2 0x167C JUMP JUMPDEST POP PUSH1 0x6E SSTORE PUSH1 0x1 SWAP1 JUMP JUMPDEST PUSH1 0x6F SLOAD DUP2 JUMP JUMPDEST PUSH1 0x66 SLOAD PUSH1 0x1 PUSH1 0x1 PUSH1 0xA0 SHL SUB AND DUP2 JUMP JUMPDEST PUSH1 0x74 SLOAD PUSH1 0x1 PUSH1 0x1 PUSH1 0xA0 SHL SUB AND DUP2 JUMP JUMPDEST PUSH1 0x0 PUSH2 0x53B PUSH2 0xD00 JUMP JUMPDEST PUSH1 0x1 PUSH1 0x1 PUSH1 0xA0 SHL SUB AND PUSH2 0x54C PUSH2 0x6E2 JUMP JUMPDEST PUSH1 0x1 PUSH1 0x1 PUSH1 0xA0 SHL SUB AND EQ PUSH2 0x572 JUMPI PUSH1 0x40 MLOAD PUSH3 0x461BCD PUSH1 0xE5 SHL DUP2 MSTORE PUSH1 0x4 ADD PUSH2 0x441 SWAP1 PUSH2 0x167C JUMP JUMPDEST POP PUSH1 0x70 SSTORE PUSH1 0x1 SWAP1 JUMP JUMPDEST PUSH1 0x67 SLOAD PUSH1 0x1 PUSH1 0x1 PUSH1 0xA0 SHL SUB AND DUP2 JUMP JUMPDEST PUSH1 0x0 PUSH2 0x594 PUSH2 0xD00 JUMP JUMPDEST PUSH1 0x1 PUSH1 0x1 PUSH1 0xA0 SHL SUB AND PUSH2 0x5A5 PUSH2 0x6E2 JUMP JUMPDEST PUSH1 0x1 PUSH1 0x1 PUSH1 0xA0 SHL SUB AND EQ PUSH2 0x5CB JUMPI PUSH1 0x40 MLOAD PUSH3 0x461BCD PUSH1 0xE5 SHL DUP2 MSTORE PUSH1 0x4 ADD PUSH2 0x441 SWAP1 PUSH2 0x167C JUMP JUMPDEST POP PUSH1 0x74 DUP1 SLOAD DUP3 ISZERO ISZERO PUSH1 0x1 PUSH1 0xA0 SHL MUL PUSH1 0xFF PUSH1 0xA0 SHL NOT SWAP1 SWAP2 AND OR SWAP1 SSTORE PUSH1 0x1 SWAP2 SWAP1 POP JUMP JUMPDEST PUSH1 0x65 PUSH1 0x20 MSTORE PUSH1 0x0 SWAP1 DUP2 MSTORE PUSH1 0x40 SWAP1 KECCAK256 SLOAD PUSH1 0xFF AND DUP2 JUMP JUMPDEST PUSH1 0x70 SLOAD DUP2 JUMP JUMPDEST PUSH1 0x68 SLOAD PUSH1 0x1 PUSH1 0x1 PUSH1 0xA0 SHL SUB AND DUP2 JUMP JUMPDEST PUSH1 0x0 PUSH2 0x620 PUSH2 0xD00 JUMP JUMPDEST PUSH1 0x1 PUSH1 0x1 PUSH1 0xA0 SHL SUB AND PUSH2 0x631 PUSH2 0x6E2 JUMP JUMPDEST PUSH1 0x1 PUSH1 0x1 PUSH1 0xA0 SHL SUB AND EQ PUSH2 0x657 JUMPI PUSH1 0x40 MLOAD PUSH3 0x461BCD PUSH1 0xE5 SHL DUP2 MSTORE PUSH1 0x4 ADD PUSH2 0x441 SWAP1 PUSH2 0x167C JUMP JUMPDEST POP PUSH1 0x74 DUP1 SLOAD DUP3 ISZERO ISZERO PUSH1 0x1 PUSH1 0xA8 SHL MUL PUSH1 0xFF PUSH1 0xA8 SHL NOT SWAP1 SWAP2 AND OR SWAP1 SSTORE PUSH1 0x1 SWAP2 SWAP1 POP JUMP JUMPDEST PUSH1 0x74 SLOAD PUSH1 0x1 PUSH1 0xA8 SHL SWAP1 DIV PUSH1 0xFF AND DUP2 JUMP JUMPDEST PUSH2 0x690 PUSH2 0xD00 JUMP JUMPDEST PUSH1 0x1 PUSH1 0x1 PUSH1 0xA0 SHL SUB AND PUSH2 0x6A1 PUSH2 0x6E2 JUMP JUMPDEST PUSH1 0x1 PUSH1 0x1 PUSH1 0xA0 SHL SUB AND EQ PUSH2 0x6C7 JUMPI PUSH1 0x40 MLOAD PUSH3 0x461BCD PUSH1 0xE5 SHL DUP2 MSTORE PUSH1 0x4 ADD PUSH2 0x441 SWAP1 PUSH2 0x167C JUMP JUMPDEST PUSH2 0x6D1 PUSH1 0x0 PUSH2 0xD04 JUMP JUMPDEST JUMP JUMPDEST PUSH1 0x75 SLOAD PUSH1 0x1 PUSH1 0x1 PUSH1 0xA0 SHL SUB AND DUP2 JUMP JUMPDEST PUSH1 0x33 SLOAD PUSH1 0x1 PUSH1 0x1 PUSH1 0xA0 SHL SUB AND SWAP1 JUMP JUMPDEST PUSH1 0x6B SLOAD PUSH1 0x1 PUSH1 0x1 PUSH1 0xA0 SHL SUB AND DUP2 JUMP JUMPDEST PUSH1 0x0 PUSH2 0x70A PUSH2 0xD00 JUMP JUMPDEST PUSH1 0x1 PUSH1 0x1 PUSH1 0xA0 SHL SUB AND PUSH2 0x71B PUSH2 0x6E2 JUMP JUMPDEST PUSH1 0x1 PUSH1 0x1 PUSH1 0xA0 SHL SUB AND EQ PUSH2 0x741 JUMPI PUSH1 0x40 MLOAD PUSH3 0x461BCD PUSH1 0xE5 SHL DUP2 MSTORE PUSH1 0x4 ADD PUSH2 0x441 SWAP1 PUSH2 0x167C JUMP JUMPDEST PUSH2 0x755 PUSH1 0x1 PUSH1 0x1 PUSH1 0xA0 SHL SUB DUP5 AND CALLER DUP5 PUSH2 0xD56 JUMP JUMPDEST POP PUSH1 0x1 SWAP3 SWAP2 POP POP JUMP JUMPDEST PUSH1 0x74 SLOAD PUSH1 0x1 PUSH1 0xA0 SHL SWAP1 DIV PUSH1 0xFF AND DUP2 JUMP JUMPDEST PUSH1 0x0 PUSH2 0x778 PUSH2 0xD00 JUMP JUMPDEST PUSH1 0x1 PUSH1 0x1 PUSH1 0xA0 SHL SUB AND PUSH2 0x789 PUSH2 0x6E2 JUMP JUMPDEST PUSH1 0x1 PUSH1 0x1 PUSH1 0xA0 SHL SUB AND EQ PUSH2 0x7AF JUMPI PUSH1 0x40 MLOAD PUSH3 0x461BCD PUSH1 0xE5 SHL DUP2 MSTORE PUSH1 0x4 ADD PUSH2 0x441 SWAP1 PUSH2 0x167C JUMP JUMPDEST POP PUSH1 0x6A DUP1 SLOAD PUSH1 0x1 PUSH1 0x1 PUSH1 0xA0 SHL SUB DUP4 AND PUSH1 0x1 PUSH1 0x1 PUSH1 0xA0 SHL SUB NOT SWAP1 SWAP2 AND OR SWAP1 SSTORE PUSH1 0x1 SWAP2 SWAP1 POP JUMP JUMPDEST PUSH1 0x71 SLOAD DUP2 JUMP JUMPDEST PUSH1 0x0 PUSH2 0x7E4 PUSH2 0xD00 JUMP JUMPDEST PUSH1 0x1 PUSH1 0x1 PUSH1 0xA0 SHL SUB AND PUSH2 0x7F5 PUSH2 0x6E2 JUMP JUMPDEST PUSH1 0x1 PUSH1 0x1 PUSH1 0xA0 SHL SUB AND EQ PUSH2 0x81B JUMPI PUSH1 0x40 MLOAD PUSH3 0x461BCD PUSH1 0xE5 SHL DUP2 MSTORE PUSH1 0x4 ADD PUSH2 0x441 SWAP1 PUSH2 0x167C JUMP JUMPDEST POP PUSH1 0x6F SSTORE PUSH1 0x1 SWAP1 JUMP JUMPDEST PUSH1 0x69 SLOAD PUSH1 0x1 PUSH1 0x1 PUSH1 0xA0 SHL SUB AND DUP2 JUMP JUMPDEST PUSH1 0x6E SLOAD DUP2 JUMP JUMPDEST PUSH1 0x6D SLOAD PUSH1 0x1 PUSH1 0x1 PUSH1 0xA0 SHL SUB AND DUP2 JUMP JUMPDEST PUSH1 0x0 SLOAD PUSH2 0x100 SWAP1 DIV PUSH1 0xFF AND DUP1 PUSH2 0x861 JUMPI POP PUSH1 0x0 SLOAD PUSH1 0xFF AND ISZERO JUMPDEST PUSH2 0x87D JUMPI PUSH1 0x40 MLOAD PUSH3 0x461BCD PUSH1 0xE5 SHL DUP2 MSTORE PUSH1 0x4 ADD PUSH2 0x441 SWAP1 PUSH2 0x162E JUMP JUMPDEST PUSH1 0x0 SLOAD PUSH2 0x100 SWAP1 DIV PUSH1 0xFF AND ISZERO DUP1 ISZERO PUSH2 0x8A8 JUMPI PUSH1 0x0 DUP1 SLOAD PUSH1 0xFF NOT PUSH2 0xFF00 NOT SWAP1 SWAP2 AND PUSH2 0x100 OR AND PUSH1 0x1 OR SWAP1 SSTORE JUMPDEST PUSH2 0x8B0 PUSH2 0xDB1 JUMP JUMPDEST PUSH1 0x6C DUP1 SLOAD PUSH1 0x1 PUSH1 0x1 PUSH1 0xA0 SHL SUB NOT SWAP1 DUP2 AND PUSH1 0x1 PUSH1 0x1 PUSH1 0xA0 SHL SUB DUP10 DUP2 AND SWAP2 SWAP1 SWAP2 OR SWAP1 SWAP3 SSTORE PUSH1 0x6D DUP1 SLOAD DUP3 AND DUP11 DUP5 AND OR SWAP1 SSTORE PUSH1 0x66 DUP1 SLOAD DUP3 AND DUP9 DUP5 AND OR SWAP1 SSTORE PUSH1 0x68 DUP1 SLOAD DUP3 AND DUP8 DUP5 AND OR SWAP1 SSTORE PUSH1 0x69 DUP1 SLOAD DUP3 AND DUP7 DUP5 AND OR SWAP1 SSTORE PUSH1 0x6A DUP1 SLOAD CALLER SWAP1 DUP4 AND DUP2 OR SWAP1 SWAP2 SSTORE PUSH1 0x6B DUP1 SLOAD SWAP1 SWAP3 AND OR SWAP1 SSTORE PUSH2 0x1388 PUSH1 0x6E SSTORE PUSH2 0x9C4 PUSH1 0x6F DUP2 SWAP1 SSTORE PUSH1 0x70 SSTORE PUSH2 0x2710 PUSH1 0x71 SSTORE PUSH2 0x3E8 PUSH1 0x72 SSTORE PUSH1 0x74 DUP1 SLOAD PUSH1 0x1 PUSH1 0xA0 SHL PUSH1 0xFF PUSH1 0xA0 SHL NOT SWAP1 SWAP2 AND OR PUSH1 0x1 PUSH2 0xFF01 PUSH1 0xA0 SHL SUB NOT AND SWAP2 DUP5 AND SWAP2 SWAP1 SWAP2 OR SWAP1 SSTORE DUP1 ISZERO PUSH2 0x96F JUMPI PUSH1 0x0 DUP1 SLOAD PUSH2 0xFF00 NOT AND SWAP1 SSTORE JUMPDEST POP POP POP POP POP POP POP JUMP JUMPDEST CALLER PUSH1 0x0 SWAP1 DUP2 MSTORE PUSH1 0x65 PUSH1 0x20 MSTORE PUSH1 0x40 DUP2 KECCAK256 SLOAD PUSH1 0xFF AND PUSH2 0x9A7 JUMPI PUSH1 0x40 MLOAD PUSH3 0x461BCD PUSH1 0xE5 SHL DUP2 MSTORE PUSH1 0x4 ADD PUSH2 0x441 SWAP1 PUSH2 0x15A4 JUMP JUMPDEST PUSH1 0x66 SLOAD PUSH1 0x40 MLOAD PUSH4 0x70A08231 PUSH1 0xE0 SHL DUP2 MSTORE PUSH1 0x0 SWAP2 PUSH1 0x1 PUSH1 0x1 PUSH1 0xA0 SHL SUB AND SWAP1 PUSH4 0x70A08231 SWAP1 PUSH2 0x9D8 SWAP1 ADDRESS SWAP1 PUSH1 0x4 ADD PUSH2 0x14D9 JUMP JUMPDEST PUSH1 0x20 PUSH1 0x40 MLOAD DUP1 DUP4 SUB DUP2 DUP7 DUP1 EXTCODESIZE ISZERO DUP1 ISZERO PUSH2 0x9F0 JUMPI PUSH1 0x0 DUP1 REVERT JUMPDEST POP GAS STATICCALL ISZERO DUP1 ISZERO PUSH2 0xA04 JUMPI RETURNDATASIZE PUSH1 0x0 DUP1 RETURNDATACOPY RETURNDATASIZE PUSH1 0x0 REVERT JUMPDEST POP POP POP POP PUSH1 0x40 MLOAD RETURNDATASIZE PUSH1 0x1F NOT PUSH1 0x1F DUP3 ADD AND DUP3 ADD DUP1 PUSH1 0x40 MSTORE POP DUP2 ADD SWAP1 PUSH2 0xA28 SWAP2 SWAP1 PUSH2 0x14A5 JUMP JUMPDEST SWAP1 POP PUSH1 0x0 PUSH2 0xA4D PUSH1 0x71 SLOAD PUSH2 0xA47 PUSH1 0x6E SLOAD DUP6 PUSH2 0xE35 SWAP1 SWAP2 SWAP1 PUSH4 0xFFFFFFFF AND JUMP JUMPDEST SWAP1 PUSH2 0xE48 JUMP JUMPDEST SWAP1 POP PUSH1 0x0 PUSH2 0xA6C PUSH1 0x71 SLOAD PUSH2 0xA47 PUSH1 0x6F SLOAD DUP7 PUSH2 0xE35 SWAP1 SWAP2 SWAP1 PUSH4 0xFFFFFFFF AND JUMP JUMPDEST SWAP1 POP PUSH1 0x0 PUSH2 0xA84 DUP3 PUSH2 0xA7E DUP7 DUP7 PUSH2 0xE54 JUMP JUMPDEST SWAP1 PUSH2 0xE54 JUMP JUMPDEST PUSH1 0x69 SLOAD PUSH1 0x66 SLOAD SWAP2 SWAP3 POP PUSH2 0xAA4 SWAP2 PUSH1 0x1 PUSH1 0x1 PUSH1 0xA0 SHL SUB SWAP1 DUP2 AND SWAP2 AND DUP6 PUSH2 0xD56 JUMP JUMPDEST PUSH1 0x6A SLOAD PUSH1 0x66 SLOAD PUSH2 0xAC1 SWAP2 PUSH1 0x1 PUSH1 0x1 PUSH1 0xA0 SHL SUB SWAP2 DUP3 AND SWAP2 AND DUP5 PUSH2 0xD56 JUMP JUMPDEST PUSH1 0x6B SLOAD PUSH1 0x66 SLOAD PUSH2 0xADE SWAP2 PUSH1 0x1 PUSH1 0x1 PUSH1 0xA0 SHL SUB SWAP2 DUP3 AND SWAP2 AND DUP4 PUSH2 0xD56 JUMP JUMPDEST PUSH1 0x74 SLOAD PUSH1 0x1 PUSH1 0xA0 SHL SWAP1 DIV PUSH1 0xFF AND ISZERO PUSH2 0xAF8 JUMPI PUSH2 0xAF8 PUSH2 0xE60 JUMP JUMPDEST PUSH1 0x74 SLOAD PUSH1 0x1 PUSH1 0xA8 SHL SWAP1 DIV PUSH1 0xFF AND ISZERO PUSH2 0xB94 JUMPI PUSH1 0x75 PUSH1 0x0 SWAP1 SLOAD SWAP1 PUSH2 0x100 EXP SWAP1 DIV PUSH1 0x1 PUSH1 0x1 PUSH1 0xA0 SHL SUB AND PUSH1 0x1 PUSH1 0x1 PUSH1 0xA0 SHL SUB AND PUSH4 0x796C7BE7 PUSH1 0x40 MLOAD DUP2 PUSH4 0xFFFFFFFF AND PUSH1 0xE0 SHL DUP2 MSTORE PUSH1 0x4 ADD PUSH1 0x20 PUSH1 0x40 MLOAD DUP1 DUP4 SUB DUP2 PUSH1 0x0 DUP8 DUP1 EXTCODESIZE ISZERO DUP1 ISZERO PUSH2 0xB5A JUMPI PUSH1 0x0 DUP1 REVERT JUMPDEST POP GAS CALL ISZERO DUP1 ISZERO PUSH2 0xB6E JUMPI RETURNDATASIZE PUSH1 0x0 DUP1 RETURNDATACOPY RETURNDATASIZE PUSH1 0x0 REVERT JUMPDEST POP POP POP POP PUSH1 0x40 MLOAD RETURNDATASIZE PUSH1 0x1F NOT PUSH1 0x1F DUP3 ADD AND DUP3 ADD DUP1 PUSH1 0x40 MSTORE POP DUP2 ADD SWAP1 PUSH2 0xB92 SWAP2 SWAP1 PUSH2 0x13F0 JUMP JUMPDEST POP JUMPDEST PUSH1 0x1 SWAP5 POP POP POP POP POP SWAP1 JUMP JUMPDEST PUSH1 0x0 PUSH2 0xBA9 PUSH2 0xD00 JUMP JUMPDEST PUSH1 0x1 PUSH1 0x1 PUSH1 0xA0 SHL SUB AND PUSH2 0xBBA PUSH2 0x6E2 JUMP JUMPDEST PUSH1 0x1 PUSH1 0x1 PUSH1 0xA0 SHL SUB AND EQ PUSH2 0xBE0 JUMPI PUSH1 0x40 MLOAD PUSH3 0x461BCD PUSH1 0xE5 SHL DUP2 MSTORE PUSH1 0x4 ADD PUSH2 0x441 SWAP1 PUSH2 0x167C JUMP JUMPDEST POP PUSH1 0x6B DUP1 SLOAD PUSH1 0x1 PUSH1 0x1 PUSH1 0xA0 SHL SUB DUP4 AND PUSH1 0x1 PUSH1 0x1 PUSH1 0xA0 SHL SUB NOT SWAP1 SWAP2 AND OR SWAP1 SSTORE PUSH1 0x1 SWAP2 SWAP1 POP JUMP JUMPDEST PUSH1 0x0 PUSH2 0xC0F PUSH2 0xD00 JUMP JUMPDEST PUSH1 0x1 PUSH1 0x1 PUSH1 0xA0 SHL SUB AND PUSH2 0xC20 PUSH2 0x6E2 JUMP JUMPDEST PUSH1 0x1 PUSH1 0x1 PUSH1 0xA0 SHL SUB AND EQ PUSH2 0xC46 JUMPI PUSH1 0x40 MLOAD PUSH3 0x461BCD PUSH1 0xE5 SHL DUP2 MSTORE PUSH1 0x4 ADD PUSH2 0x441 SWAP1 PUSH2 0x167C JUMP JUMPDEST POP PUSH1 0x75 DUP1 SLOAD PUSH1 0x1 PUSH1 0x1 PUSH1 0xA0 SHL SUB DUP4 AND PUSH1 0x1 PUSH1 0x1 PUSH1 0xA0 SHL SUB NOT SWAP1 SWAP2 AND OR SWAP1 SSTORE PUSH1 0x1 SWAP2 SWAP1 POP JUMP JUMPDEST PUSH1 0x6A SLOAD PUSH1 0x1 PUSH1 0x1 PUSH1 0xA0 SHL SUB AND DUP2 JUMP JUMPDEST PUSH1 0x73 SLOAD DUP2 JUMP JUMPDEST PUSH2 0xC88 PUSH2 0xD00 JUMP JUMPDEST PUSH1 0x1 PUSH1 0x1 PUSH1 0xA0 SHL SUB AND PUSH2 0xC99 PUSH2 0x6E2 JUMP JUMPDEST PUSH1 0x1 PUSH1 0x1 PUSH1 0xA0 SHL SUB AND EQ PUSH2 0xCBF JUMPI PUSH1 0x40 MLOAD PUSH3 0x461BCD PUSH1 0xE5 SHL DUP2 MSTORE PUSH1 0x4 ADD PUSH2 0x441 SWAP1 PUSH2 0x167C JUMP JUMPDEST PUSH1 0x1 PUSH1 0x1 PUSH1 0xA0 SHL SUB DUP2 AND PUSH2 0xCE5 JUMPI PUSH1 0x40 MLOAD PUSH3 0x461BCD PUSH1 0xE5 SHL DUP2 MSTORE PUSH1 0x4 ADD PUSH2 0x441 SWAP1 PUSH2 0x155E JUMP JUMPDEST PUSH2 0xCEE DUP2 PUSH2 0xD04 JUMP JUMPDEST POP JUMP JUMPDEST PUSH1 0x6C SLOAD PUSH1 0x1 PUSH1 0x1 PUSH1 0xA0 SHL SUB AND DUP2 JUMP JUMPDEST CALLER SWAP1 JUMP JUMPDEST PUSH1 0x33 DUP1 SLOAD PUSH1 0x1 PUSH1 0x1 PUSH1 0xA0 SHL SUB DUP4 DUP2 AND PUSH1 0x1 PUSH1 0x1 PUSH1 0xA0 SHL SUB NOT DUP4 AND DUP2 OR SWAP1 SWAP4 SSTORE PUSH1 0x40 MLOAD SWAP2 AND SWAP2 SWAP1 DUP3 SWAP1 PUSH32 0x8BE0079C531659141344CD1FD0A4F28419497F9722A3DAAFE3B4186F6B6457E0 SWAP1 PUSH1 0x0 SWAP1 LOG3 POP POP JUMP JUMPDEST PUSH2 0xDAC DUP4 PUSH4 0xA9059CBB PUSH1 0xE0 SHL DUP5 DUP5 PUSH1 0x40 MLOAD PUSH1 0x24 ADD PUSH2 0xD75 SWAP3 SWAP2 SWAP1 PUSH2 0x1507 JUMP JUMPDEST PUSH1 0x40 DUP1 MLOAD PUSH1 0x1F NOT DUP2 DUP5 SUB ADD DUP2 MSTORE SWAP2 SWAP1 MSTORE PUSH1 0x20 DUP2 ADD DUP1 MLOAD PUSH1 0x1 PUSH1 0x1 PUSH1 0xE0 SHL SUB AND PUSH1 0x1 PUSH1 0x1 PUSH1 0xE0 SHL SUB NOT SWAP1 SWAP4 AND SWAP3 SWAP1 SWAP3 OR SWAP1 SWAP2 MSTORE PUSH2 0x10A5 JUMP JUMPDEST POP POP POP JUMP JUMPDEST PUSH1 0x0 SLOAD PUSH2 0x100 SWAP1 DIV PUSH1 0xFF AND DUP1 PUSH2 0xDCA JUMPI POP PUSH1 0x0 SLOAD PUSH1 0xFF AND ISZERO JUMPDEST PUSH2 0xDE6 JUMPI PUSH1 0x40 MLOAD PUSH3 0x461BCD PUSH1 0xE5 SHL DUP2 MSTORE PUSH1 0x4 ADD PUSH2 0x441 SWAP1 PUSH2 0x162E JUMP JUMPDEST PUSH1 0x0 SLOAD PUSH2 0x100 SWAP1 DIV PUSH1 0xFF AND ISZERO DUP1 ISZERO PUSH2 0xE11 JUMPI PUSH1 0x0 DUP1 SLOAD PUSH1 0xFF NOT PUSH2 0xFF00 NOT SWAP1 SWAP2 AND PUSH2 0x100 OR AND PUSH1 0x1 OR SWAP1 SSTORE JUMPDEST PUSH2 0xE19 PUSH2 0x1134 JUMP JUMPDEST PUSH2 0xE21 PUSH2 0x11A7 JUMP JUMPDEST DUP1 ISZERO PUSH2 0xCEE JUMPI PUSH1 0x0 DUP1 SLOAD PUSH2 0xFF00 NOT AND SWAP1 SSTORE POP JUMP JUMPDEST PUSH1 0x0 PUSH2 0xE41 DUP3 DUP5 PUSH2 0x1773 JUMP JUMPDEST SWAP4 SWAP3 POP POP POP JUMP JUMPDEST PUSH1 0x0 PUSH2 0xE41 DUP3 DUP5 PUSH2 0x1753 JUMP JUMPDEST PUSH1 0x0 PUSH2 0xE41 DUP3 DUP5 PUSH2 0x1792 JUMP JUMPDEST PUSH1 0x6D SLOAD PUSH1 0x67 SLOAD PUSH1 0x66 SLOAD PUSH1 0x40 MLOAD PUSH4 0xE6A43905 PUSH1 0xE0 SHL DUP2 MSTORE PUSH1 0x0 SWAP4 PUSH1 0x1 PUSH1 0x1 PUSH1 0xA0 SHL SUB SWAP1 DUP2 AND SWAP4 PUSH4 0xE6A43905 SWAP4 PUSH2 0xE9D SWAP4 SWAP2 DUP4 AND SWAP3 AND SWAP1 PUSH1 0x4 ADD PUSH2 0x14ED JUMP JUMPDEST PUSH1 0x20 PUSH1 0x40 MLOAD DUP1 DUP4 SUB DUP2 DUP7 DUP1 EXTCODESIZE ISZERO DUP1 ISZERO PUSH2 0xEB5 JUMPI PUSH1 0x0 DUP1 REVERT JUMPDEST POP GAS STATICCALL ISZERO DUP1 ISZERO PUSH2 0xEC9 JUMPI RETURNDATASIZE PUSH1 0x0 DUP1 RETURNDATACOPY RETURNDATASIZE PUSH1 0x0 REVERT JUMPDEST POP POP POP POP PUSH1 0x40 MLOAD RETURNDATASIZE PUSH1 0x1F NOT PUSH1 0x1F DUP3 ADD AND DUP3 ADD DUP1 PUSH1 0x40 MSTORE POP DUP2 ADD SWAP1 PUSH2 0xEED SWAP2 SWAP1 PUSH2 0x1355 JUMP JUMPDEST PUSH1 0x66 SLOAD PUSH1 0x40 MLOAD PUSH4 0x70A08231 PUSH1 0xE0 SHL DUP2 MSTORE SWAP2 SWAP3 POP PUSH1 0x0 SWAP2 PUSH1 0x1 PUSH1 0x1 PUSH1 0xA0 SHL SUB SWAP1 SWAP2 AND SWAP1 PUSH4 0x70A08231 SWAP1 PUSH2 0xF23 SWAP1 DUP6 SWAP1 PUSH1 0x4 ADD PUSH2 0x14D9 JUMP JUMPDEST PUSH1 0x20 PUSH1 0x40 MLOAD DUP1 DUP4 SUB DUP2 DUP7 DUP1 EXTCODESIZE ISZERO DUP1 ISZERO PUSH2 0xF3B JUMPI PUSH1 0x0 DUP1 REVERT JUMPDEST POP GAS STATICCALL ISZERO DUP1 ISZERO PUSH2 0xF4F JUMPI RETURNDATASIZE PUSH1 0x0 DUP1 RETURNDATACOPY RETURNDATASIZE PUSH1 0x0 REVERT JUMPDEST POP POP POP POP PUSH1 0x40 MLOAD RETURNDATASIZE PUSH1 0x1F NOT PUSH1 0x1F DUP3 ADD AND DUP3 ADD DUP1 PUSH1 0x40 MSTORE POP DUP2 ADD SWAP1 PUSH2 0xF73 SWAP2 SWAP1 PUSH2 0x14A5 JUMP JUMPDEST PUSH1 0x67 SLOAD PUSH1 0x40 MLOAD PUSH4 0x70A08231 PUSH1 0xE0 SHL DUP2 MSTORE SWAP2 SWAP3 POP PUSH1 0x0 SWAP2 PUSH1 0x1 PUSH1 0x1 PUSH1 0xA0 SHL SUB SWAP1 SWAP2 AND SWAP1 PUSH4 0x70A08231 SWAP1 PUSH2 0xFA9 SWAP1 DUP7 SWAP1 PUSH1 0x4 ADD PUSH2 0x14D9 JUMP JUMPDEST PUSH1 0x20 PUSH1 0x40 MLOAD DUP1 DUP4 SUB DUP2 DUP7 DUP1 EXTCODESIZE ISZERO DUP1 ISZERO PUSH2 0xFC1 JUMPI PUSH1 0x0 DUP1 REVERT JUMPDEST POP GAS STATICCALL ISZERO DUP1 ISZERO PUSH2 0xFD5 JUMPI RETURNDATASIZE PUSH1 0x0 DUP1 RETURNDATACOPY RETURNDATASIZE PUSH1 0x0 REVERT JUMPDEST POP POP POP POP PUSH1 0x40 MLOAD RETURNDATASIZE PUSH1 0x1F NOT PUSH1 0x1F DUP3 ADD AND DUP3 ADD DUP1 PUSH1 0x40 MSTORE POP DUP2 ADD SWAP1 PUSH2 0xFF9 SWAP2 SWAP1 PUSH2 0x14A5 JUMP JUMPDEST SWAP1 POP PUSH1 0x0 PUSH2 0x1013 DUP4 PUSH2 0xA47 DUP5 PUSH8 0xDE0B6B3A7640000 PUSH2 0xE35 JUMP JUMPDEST SWAP1 POP PUSH1 0x0 DUP1 PUSH8 0xDE0B6B3A7640000 DUP4 GT ISZERO PUSH2 0x106E JUMPI PUSH2 0x1044 PUSH6 0x5AF3107A4000 PUSH2 0xA47 DUP6 PUSH8 0xDE0B6B3A7640000 PUSH2 0xE54 JUMP JUMPDEST SWAP1 POP PUSH1 0x72 SLOAD DUP2 GT ISZERO PUSH2 0x1059 JUMPI PUSH1 0x0 SWAP2 POP PUSH2 0x1069 JUMP JUMPDEST PUSH1 0x72 SLOAD PUSH2 0x1066 SWAP1 DUP3 PUSH2 0xE54 JUMP JUMPDEST SWAP2 POP JUMPDEST PUSH2 0x109D JUMP JUMPDEST PUSH2 0x108A PUSH6 0x5AF3107A4000 PUSH2 0xA47 DUP6 PUSH8 0xDE0B6B3A7640000 PUSH2 0x1792 JUMP JUMPDEST PUSH1 0x72 SLOAD SWAP1 SWAP2 POP PUSH2 0x109A SWAP1 DUP3 PUSH2 0x1217 JUMP JUMPDEST SWAP2 POP JUMPDEST POP POP POP POP POP POP JUMP JUMPDEST PUSH1 0x0 PUSH2 0x10FA DUP3 PUSH1 0x40 MLOAD DUP1 PUSH1 0x40 ADD PUSH1 0x40 MSTORE DUP1 PUSH1 0x20 DUP2 MSTORE PUSH1 0x20 ADD PUSH32 0x5361666545524332303A206C6F772D6C6576656C2063616C6C206661696C6564 DUP2 MSTORE POP DUP6 PUSH1 0x1 PUSH1 0x1 PUSH1 0xA0 SHL SUB AND PUSH2 0x1223 SWAP1 SWAP3 SWAP2 SWAP1 PUSH4 0xFFFFFFFF AND JUMP JUMPDEST DUP1 MLOAD SWAP1 SWAP2 POP ISZERO PUSH2 0xDAC JUMPI DUP1 DUP1 PUSH1 0x20 ADD SWAP1 MLOAD DUP2 ADD SWAP1 PUSH2 0x1118 SWAP2 SWAP1 PUSH2 0x13F0 JUMP JUMPDEST PUSH2 0xDAC JUMPI PUSH1 0x40 MLOAD PUSH3 0x461BCD PUSH1 0xE5 SHL DUP2 MSTORE PUSH1 0x4 ADD PUSH2 0x441 SWAP1 PUSH2 0x16E8 JUMP JUMPDEST PUSH1 0x0 SLOAD PUSH2 0x100 SWAP1 DIV PUSH1 0xFF AND DUP1 PUSH2 0x114D JUMPI POP PUSH1 0x0 SLOAD PUSH1 0xFF AND ISZERO JUMPDEST PUSH2 0x1169 JUMPI PUSH1 0x40 MLOAD PUSH3 0x461BCD PUSH1 0xE5 SHL DUP2 MSTORE PUSH1 0x4 ADD PUSH2 0x441 SWAP1 PUSH2 0x162E JUMP JUMPDEST PUSH1 0x0 SLOAD PUSH2 0x100 SWAP1 DIV PUSH1 0xFF AND ISZERO DUP1 ISZERO PUSH2 0xE21 JUMPI PUSH1 0x0 DUP1 SLOAD PUSH1 0xFF NOT PUSH2 0xFF00 NOT SWAP1 SWAP2 AND PUSH2 0x100 OR AND PUSH1 0x1 OR SWAP1 SSTORE DUP1 ISZERO PUSH2 0xCEE JUMPI PUSH1 0x0 DUP1 SLOAD PUSH2 0xFF00 NOT AND SWAP1 SSTORE POP JUMP JUMPDEST PUSH1 0x0 SLOAD PUSH2 0x100 SWAP1 DIV PUSH1 0xFF AND DUP1 PUSH2 0x11C0 JUMPI POP PUSH1 0x0 SLOAD PUSH1 0xFF AND ISZERO JUMPDEST PUSH2 0x11DC JUMPI PUSH1 0x40 MLOAD PUSH3 0x461BCD PUSH1 0xE5 SHL DUP2 MSTORE PUSH1 0x4 ADD PUSH2 0x441 SWAP1 PUSH2 0x162E JUMP JUMPDEST PUSH1 0x0 SLOAD PUSH2 0x100 SWAP1 DIV PUSH1 0xFF AND ISZERO DUP1 ISZERO PUSH2 0x1207 JUMPI PUSH1 0x0 DUP1 SLOAD PUSH1 0xFF NOT PUSH2 0xFF00 NOT SWAP1 SWAP2 AND PUSH2 0x100 OR AND PUSH1 0x1 OR SWAP1 SSTORE JUMPDEST PUSH2 0xE21 PUSH2 0x1212 PUSH2 0xD00 JUMP JUMPDEST PUSH2 0xD04 JUMP JUMPDEST PUSH1 0x0 PUSH2 0xE41 DUP3 DUP5 PUSH2 0x173B JUMP JUMPDEST PUSH1 0x60 PUSH2 0x1232 DUP5 DUP5 PUSH1 0x0 DUP6 PUSH2 0x123A JUMP JUMPDEST SWAP5 SWAP4 POP POP POP POP JUMP JUMPDEST PUSH1 0x60 DUP3 SELFBALANCE LT ISZERO PUSH2 0x125C JUMPI PUSH1 0x40 MLOAD PUSH3 0x461BCD PUSH1 0xE5 SHL DUP2 MSTORE PUSH1 0x4 ADD PUSH2 0x441 SWAP1 PUSH2 0x15E8 JUMP JUMPDEST PUSH2 0x1265 DUP6 PUSH2 0x12FA JUMP JUMPDEST PUSH2 0x1281 JUMPI PUSH1 0x40 MLOAD PUSH3 0x461BCD PUSH1 0xE5 SHL DUP2 MSTORE PUSH1 0x4 ADD PUSH2 0x441 SWAP1 PUSH2 0x16B1 JUMP JUMPDEST PUSH1 0x0 DUP1 DUP7 PUSH1 0x1 PUSH1 0x1 PUSH1 0xA0 SHL SUB AND DUP6 DUP8 PUSH1 0x40 MLOAD PUSH2 0x129D SWAP2 SWAP1 PUSH2 0x14BD JUMP JUMPDEST PUSH1 0x0 PUSH1 0x40 MLOAD DUP1 DUP4 SUB DUP2 DUP6 DUP8 GAS CALL SWAP3 POP POP POP RETURNDATASIZE DUP1 PUSH1 0x0 DUP2 EQ PUSH2 0x12DA JUMPI PUSH1 0x40 MLOAD SWAP2 POP PUSH1 0x1F NOT PUSH1 0x3F RETURNDATASIZE ADD AND DUP3 ADD PUSH1 0x40 MSTORE RETURNDATASIZE DUP3 MSTORE RETURNDATASIZE PUSH1 0x0 PUSH1 0x20 DUP5 ADD RETURNDATACOPY PUSH2 0x12DF JUMP JUMPDEST PUSH1 0x60 SWAP2 POP JUMPDEST POP SWAP2 POP SWAP2 POP PUSH2 0x12EF DUP3 DUP3 DUP7 PUSH2 0x1300 JUMP JUMPDEST SWAP8 SWAP7 POP POP POP POP POP POP POP JUMP JUMPDEST EXTCODESIZE ISZERO ISZERO SWAP1 JUMP JUMPDEST PUSH1 0x60 DUP4 ISZERO PUSH2 0x130F JUMPI POP DUP2 PUSH2 0xE41 JUMP JUMPDEST DUP3 MLOAD ISZERO PUSH2 0x131F JUMPI DUP3 MLOAD DUP1 DUP5 PUSH1 0x20 ADD REVERT JUMPDEST DUP2 PUSH1 0x40 MLOAD PUSH3 0x461BCD PUSH1 0xE5 SHL DUP2 MSTORE PUSH1 0x4 ADD PUSH2 0x441 SWAP2 SWAP1 PUSH2 0x152B JUMP JUMPDEST PUSH1 0x0 PUSH1 0x20 DUP3 DUP5 SUB SLT ISZERO PUSH2 0x134A JUMPI DUP1 DUP2 REVERT JUMPDEST DUP2 CALLDATALOAD PUSH2 0xE41 DUP2 PUSH2 0x17EF JUMP JUMPDEST PUSH1 0x0 PUSH1 0x20 DUP3 DUP5 SUB SLT ISZERO PUSH2 0x1366 JUMPI DUP1 DUP2 REVERT JUMPDEST DUP2 MLOAD PUSH2 0xE41 DUP2 PUSH2 0x17EF JUMP JUMPDEST PUSH1 0x0 DUP1 PUSH1 0x40 DUP4 DUP6 SUB SLT ISZERO PUSH2 0x1383 JUMPI DUP1 DUP2 REVERT JUMPDEST DUP3 CALLDATALOAD PUSH2 0x138E DUP2 PUSH2 0x17EF JUMP JUMPDEST SWAP2 POP PUSH1 0x20 DUP4 ADD CALLDATALOAD PUSH2 0x139E DUP2 PUSH2 0x1804 JUMP JUMPDEST DUP1 SWAP2 POP POP SWAP3 POP SWAP3 SWAP1 POP JUMP JUMPDEST PUSH1 0x0 DUP1 PUSH1 0x40 DUP4 DUP6 SUB SLT ISZERO PUSH2 0x13BB JUMPI DUP2 DUP3 REVERT JUMPDEST DUP3 CALLDATALOAD PUSH2 0x13C6 DUP2 PUSH2 0x17EF JUMP JUMPDEST SWAP5 PUSH1 0x20 SWAP4 SWAP1 SWAP4 ADD CALLDATALOAD SWAP4 POP POP POP JUMP JUMPDEST PUSH1 0x0 PUSH1 0x20 DUP3 DUP5 SUB SLT ISZERO PUSH2 0x13E5 JUMPI DUP1 DUP2 REVERT JUMPDEST DUP2 CALLDATALOAD PUSH2 0xE41 DUP2 PUSH2 0x1804 JUMP JUMPDEST PUSH1 0x0 PUSH1 0x20 DUP3 DUP5 SUB SLT ISZERO PUSH2 0x1401 JUMPI DUP1 DUP2 REVERT JUMPDEST DUP2 MLOAD PUSH2 0xE41 DUP2 PUSH2 0x1804 JUMP JUMPDEST PUSH1 0x0 DUP1 PUSH1 0x0 DUP1 PUSH1 0x0 DUP1 PUSH1 0xC0 DUP8 DUP10 SUB SLT ISZERO PUSH2 0x1424 JUMPI DUP2 DUP3 REVERT JUMPDEST DUP7 CALLDATALOAD PUSH2 0x142F DUP2 PUSH2 0x17EF JUMP JUMPDEST SWAP6 POP PUSH1 0x20 DUP8 ADD CALLDATALOAD PUSH2 0x143F DUP2 PUSH2 0x17EF JUMP JUMPDEST SWAP5 POP PUSH1 0x40 DUP8 ADD CALLDATALOAD PUSH2 0x144F DUP2 PUSH2 0x17EF JUMP JUMPDEST SWAP4 POP PUSH1 0x60 DUP8 ADD CALLDATALOAD PUSH2 0x145F DUP2 PUSH2 0x17EF JUMP JUMPDEST SWAP3 POP PUSH1 0x80 DUP8 ADD CALLDATALOAD PUSH2 0x146F DUP2 PUSH2 0x17EF JUMP JUMPDEST SWAP2 POP PUSH1 0xA0 DUP8 ADD CALLDATALOAD PUSH2 0x147F DUP2 PUSH2 0x17EF JUMP JUMPDEST DUP1 SWAP2 POP POP SWAP3 SWAP6 POP SWAP3 SWAP6 POP SWAP3 SWAP6 JUMP JUMPDEST PUSH1 0x0 PUSH1 0x20 DUP3 DUP5 SUB SLT ISZERO PUSH2 0x149E JUMPI DUP1 DUP2 REVERT JUMPDEST POP CALLDATALOAD SWAP2 SWAP1 POP JUMP JUMPDEST PUSH1 0x0 PUSH1 0x20 DUP3 DUP5 SUB SLT ISZERO PUSH2 0x14B6 JUMPI DUP1 DUP2 REVERT JUMPDEST POP MLOAD SWAP2 SWAP1 POP JUMP JUMPDEST PUSH1 0x0 DUP3 MLOAD PUSH2 0x14CF DUP2 DUP5 PUSH1 0x20 DUP8 ADD PUSH2 0x17A9 JUMP JUMPDEST SWAP2 SWAP1 SWAP2 ADD SWAP3 SWAP2 POP POP JUMP JUMPDEST PUSH1 0x1 PUSH1 0x1 PUSH1 0xA0 SHL SUB SWAP2 SWAP1 SWAP2 AND DUP2 MSTORE PUSH1 0x20 ADD SWAP1 JUMP JUMPDEST PUSH1 0x1 PUSH1 0x1 PUSH1 0xA0 SHL SUB SWAP3 DUP4 AND DUP2 MSTORE SWAP2 AND PUSH1 0x20 DUP3 ADD MSTORE PUSH1 0x40 ADD SWAP1 JUMP JUMPDEST PUSH1 0x1 PUSH1 0x1 PUSH1 0xA0 SHL SUB SWAP3 SWAP1 SWAP3 AND DUP3 MSTORE PUSH1 0x20 DUP3 ADD MSTORE PUSH1 0x40 ADD SWAP1 JUMP JUMPDEST SWAP1 ISZERO ISZERO DUP2 MSTORE PUSH1 0x20 ADD SWAP1 JUMP JUMPDEST PUSH1 0x0 PUSH1 0x20 DUP3 MSTORE DUP3 MLOAD DUP1 PUSH1 0x20 DUP5 ADD MSTORE PUSH2 0x154A DUP2 PUSH1 0x40 DUP6 ADD PUSH1 0x20 DUP8 ADD PUSH2 0x17A9 JUMP JUMPDEST PUSH1 0x1F ADD PUSH1 0x1F NOT AND SWAP2 SWAP1 SWAP2 ADD PUSH1 0x40 ADD SWAP3 SWAP2 POP POP JUMP JUMPDEST PUSH1 0x20 DUP1 DUP3 MSTORE PUSH1 0x26 SWAP1 DUP3 ADD MSTORE PUSH32 0x4F776E61626C653A206E6577206F776E657220697320746865207A65726F2061 PUSH1 0x40 DUP3 ADD MSTORE PUSH6 0x646472657373 PUSH1 0xD0 SHL PUSH1 0x60 DUP3 ADD MSTORE PUSH1 0x80 ADD SWAP1 JUMP JUMPDEST PUSH1 0x20 DUP1 DUP3 MSTORE PUSH1 0x24 SWAP1 DUP3 ADD MSTORE PUSH32 0x6578656375746F723A2063616C6C6572206973206E6F74207468652065786563 PUSH1 0x40 DUP3 ADD MSTORE PUSH4 0x3ABA37B9 PUSH1 0xE1 SHL PUSH1 0x60 DUP3 ADD MSTORE PUSH1 0x80 ADD SWAP1 JUMP JUMPDEST PUSH1 0x20 DUP1 DUP3 MSTORE PUSH1 0x26 SWAP1 DUP3 ADD MSTORE PUSH32 0x416464726573733A20696E73756666696369656E742062616C616E636520666F PUSH1 0x40 DUP3 ADD MSTORE PUSH6 0x1C8818D85B1B PUSH1 0xD2 SHL PUSH1 0x60 DUP3 ADD MSTORE PUSH1 0x80 ADD SWAP1 JUMP JUMPDEST PUSH1 0x20 DUP1 DUP3 MSTORE PUSH1 0x2E SWAP1 DUP3 ADD MSTORE PUSH32 0x496E697469616C697A61626C653A20636F6E747261637420697320616C726561 PUSH1 0x40 DUP3 ADD MSTORE PUSH14 0x191E481A5B9A5D1A585B1A5E9959 PUSH1 0x92 SHL PUSH1 0x60 DUP3 ADD MSTORE PUSH1 0x80 ADD SWAP1 JUMP JUMPDEST PUSH1 0x20 DUP1 DUP3 MSTORE DUP2 DUP2 ADD MSTORE PUSH32 0x4F776E61626C653A2063616C6C6572206973206E6F7420746865206F776E6572 PUSH1 0x40 DUP3 ADD MSTORE PUSH1 0x60 ADD SWAP1 JUMP JUMPDEST PUSH1 0x20 DUP1 DUP3 MSTORE PUSH1 0x1D SWAP1 DUP3 ADD MSTORE PUSH32 0x416464726573733A2063616C6C20746F206E6F6E2D636F6E7472616374000000 PUSH1 0x40 DUP3 ADD MSTORE PUSH1 0x60 ADD SWAP1 JUMP JUMPDEST PUSH1 0x20 DUP1 DUP3 MSTORE PUSH1 0x2A SWAP1 DUP3 ADD MSTORE PUSH32 0x5361666545524332303A204552433230206F7065726174696F6E20646964206E PUSH1 0x40 DUP3 ADD MSTORE PUSH10 0x1BDD081CDD58D8D95959 PUSH1 0xB2 SHL PUSH1 0x60 DUP3 ADD MSTORE PUSH1 0x80 ADD SWAP1 JUMP JUMPDEST SWAP1 DUP2 MSTORE PUSH1 0x20 ADD SWAP1 JUMP JUMPDEST PUSH1 0x0 DUP3 NOT DUP3 GT ISZERO PUSH2 0x174E JUMPI PUSH2 0x174E PUSH2 0x17D9 JUMP JUMPDEST POP ADD SWAP1 JUMP JUMPDEST PUSH1 0x0 DUP3 PUSH2 0x176E JUMPI PUSH4 0x4E487B71 PUSH1 0xE0 SHL DUP2 MSTORE PUSH1 0x12 PUSH1 0x4 MSTORE PUSH1 0x24 DUP2 REVERT JUMPDEST POP DIV SWAP1 JUMP JUMPDEST PUSH1 0x0 DUP2 PUSH1 0x0 NOT DIV DUP4 GT DUP3 ISZERO ISZERO AND ISZERO PUSH2 0x178D JUMPI PUSH2 0x178D PUSH2 0x17D9 JUMP JUMPDEST POP MUL SWAP1 JUMP JUMPDEST PUSH1 0x0 DUP3 DUP3 LT ISZERO PUSH2 0x17A4 JUMPI PUSH2 0x17A4 PUSH2 0x17D9 JUMP JUMPDEST POP SUB SWAP1 JUMP JUMPDEST PUSH1 0x0 JUMPDEST DUP4 DUP2 LT ISZERO PUSH2 0x17C4 JUMPI DUP2 DUP2 ADD MLOAD DUP4 DUP3 ADD MSTORE PUSH1 0x20 ADD PUSH2 0x17AC JUMP JUMPDEST DUP4 DUP2 GT ISZERO PUSH2 0x17D3 JUMPI PUSH1 0x0 DUP5 DUP5 ADD MSTORE JUMPDEST POP POP POP POP JUMP JUMPDEST PUSH4 0x4E487B71 PUSH1 0xE0 SHL PUSH1 0x0 MSTORE PUSH1 0x11 PUSH1 0x4 MSTORE PUSH1 0x24 PUSH1 0x0 REVERT JUMPDEST PUSH1 0x1 PUSH1 0x1 PUSH1 0xA0 SHL SUB DUP2 AND DUP2 EQ PUSH2 0xCEE JUMPI PUSH1 0x0 DUP1 REVERT JUMPDEST DUP1 ISZERO ISZERO DUP2 EQ PUSH2 0xCEE JUMPI PUSH1 0x0 DUP1 REVERT INVALID LOG2 PUSH5 0x6970667358 0x22 SLT KECCAK256 SWAP7 PUSH21 0xA326081681FFC493C25DC2A10C0662430AE8E8FF29 0xE PUSH1 0xEC EXTCODESIZE PUSH16 0x6DB296B364736F6C6343000800003300 "
				},
				"gasEstimates": {
					"creation": {
						"codeDepositCost": "1243200",
						"executionCost": "1295",
						"totalCost": "1244495"
					},
					"external": {
						"Factory()": "1115",
						"PRECISION()": "1095",
						"Router()": "1202",
						"autoAdjustFarm()": "1169",
						"basePoint()": "1075",
						"dev()": "1138",
						"executor(address)": "1348",
						"farm()": "1160",
						"initialize(address,address,address,address,address,address)": "infinite",
						"jointExecution()": "infinite",
						"op()": "1136",
						"openStabilizer()": "1146",
						"owner()": "1116",
						"pid()": "1116",
						"renounceOwnership()": "23618",
						"sea()": "1115",
						"setAutoAdjustFarm(bool)": "22238",
						"setDev(address)": "22297",
						"setExecutor(address,bool)": "infinite",
						"setOp(address)": "22231",
						"setOpenStabilizer(bool)": "22237",
						"setPid(uint256)": "21318",
						"setStabilizer(address)": "22230",
						"setToDevPercent(uint256)": "21361",
						"setToOpPercent(uint256)": "21338",
						"setToSseaPercent(uint256)": "21362",
						"ssea()": "1181",
						"stabilizer()": "1203",
						"toDevPercent()": "1140",
						"toOpPercent()": "1074",
						"toSseaPercent()": "1161",
						"transferOwnership(address)": "infinite",
						"usc()": "1138",
						"usdc()": "1116",
						"withdrawalERC20(address,uint256)": "infinite"
					},
					"internal": {
						"adjustFarm()": "infinite"
					}
				},
				"methodIdentifiers": {
					"Factory()": "c83dd231",
					"PRECISION()": "aaf5eb68",
					"Router()": "f6d7eade",
					"autoAdjustFarm()": "9da5b0d5",
					"basePoint()": "16d03993",
					"dev()": "91cca3db",
					"executor(address)": "48c7e528",
					"farm()": "36e9332d",
					"initialize(address,address,address,address,address,address)": "cc2a9a5b",
					"jointExecution()": "d10c06a2",
					"op()": "ec1f1f69",
					"openStabilizer()": "58de5de8",
					"owner()": "8da5cb5b",
					"pid()": "f1068454",
					"renounceOwnership()": "715018a6",
					"sea()": "4ecaac41",
					"setAutoAdjustFarm(bool)": "4591db50",
					"setDev(address)": "d477f05f",
					"setExecutor(address,bool)": "1e1bff3f",
					"setOp(address)": "a36a7526",
					"setOpenStabilizer(bool)": "55c746d1",
					"setPid(uint256)": "1b0d8aab",
					"setStabilizer(address)": "db7f521a",
					"setToDevPercent(uint256)": "3c850e1e",
					"setToOpPercent(uint256)": "af5518c4",
					"setToSseaPercent(uint256)": "27c42a50",
					"ssea()": "b8bb97a1",
					"stabilizer()": "7e47961c",
					"toDevPercent()": "4ae6a027",
					"toOpPercent()": "2c535a52",
					"toSseaPercent()": "bd0b1f44",
					"transferOwnership(address)": "f2fde38b",
					"usc()": "3011d3d5",
					"usdc()": "3e413bee",
					"withdrawalERC20(address,uint256)": "930ed033"
				}
			},
			"storageLayout": {
				"storage": [
					{
						"astId": 130,
						"contract": "contracts/helperLogic.sol:helperLogic",
						"label": "_initialized",
						"offset": 0,
						"slot": "0",
						"type": "t_bool"
					},
					{
						"astId": 133,
						"contract": "contracts/helperLogic.sol:helperLogic",
						"label": "_initializing",
						"offset": 1,
						"slot": "0",
						"type": "t_bool"
					},
					{
						"astId": 760,
						"contract": "contracts/helperLogic.sol:helperLogic",
						"label": "__gap",
						"offset": 0,
						"slot": "1",
						"type": "t_array(t_uint256)50_storage"
					},
					{
						"astId": 10,
						"contract": "contracts/helperLogic.sol:helperLogic",
						"label": "_owner",
						"offset": 0,
						"slot": "51",
						"type": "t_address"
					},
					{
						"astId": 124,
						"contract": "contracts/helperLogic.sol:helperLogic",
						"label": "__gap",
						"offset": 0,
						"slot": "52",
						"type": "t_array(t_uint256)49_storage"
					},
					{
						"astId": 1825,
						"contract": "contracts/helperLogic.sol:helperLogic",
						"label": "executor",
						"offset": 0,
						"slot": "101",
						"type": "t_mapping(t_address,t_bool)"
					},
					{
						"astId": 1828,
						"contract": "contracts/helperLogic.sol:helperLogic",
						"label": "usc",
						"offset": 0,
						"slot": "102",
						"type": "t_contract(IERC20Upgradeable)248"
					},
					{
						"astId": 1831,
						"contract": "contracts/helperLogic.sol:helperLogic",
						"label": "usdc",
						"offset": 0,
						"slot": "103",
						"type": "t_contract(IERC20Upgradeable)248"
					},
					{
						"astId": 1834,
						"contract": "contracts/helperLogic.sol:helperLogic",
						"label": "sea",
						"offset": 0,
						"slot": "104",
						"type": "t_contract(IERC20Upgradeable)248"
					},
					{
						"astId": 1837,
						"contract": "contracts/helperLogic.sol:helperLogic",
						"label": "ssea",
						"offset": 0,
						"slot": "105",
						"type": "t_contract(IERC20Upgradeable)248"
					},
					{
						"astId": 1839,
						"contract": "contracts/helperLogic.sol:helperLogic",
						"label": "op",
						"offset": 0,
						"slot": "106",
						"type": "t_address"
					},
					{
						"astId": 1841,
						"contract": "contracts/helperLogic.sol:helperLogic",
						"label": "dev",
						"offset": 0,
						"slot": "107",
						"type": "t_address"
					},
					{
						"astId": 1844,
						"contract": "contracts/helperLogic.sol:helperLogic",
						"label": "Router",
						"offset": 0,
						"slot": "108",
						"type": "t_contract(IUniswapV2Router02)1784"
					},
					{
						"astId": 1847,
						"contract": "contracts/helperLogic.sol:helperLogic",
						"label": "Factory",
						"offset": 0,
						"slot": "109",
						"type": "t_contract(IUniswapV2Factory)1146"
					},
					{
						"astId": 1849,
						"contract": "contracts/helperLogic.sol:helperLogic",
						"label": "toSseaPercent",
						"offset": 0,
						"slot": "110",
						"type": "t_uint256"
					},
					{
						"astId": 1851,
						"contract": "contracts/helperLogic.sol:helperLogic",
						"label": "toOpPercent",
						"offset": 0,
						"slot": "111",
						"type": "t_uint256"
					},
					{
						"astId": 1853,
						"contract": "contracts/helperLogic.sol:helperLogic",
						"label": "toDevPercent",
						"offset": 0,
						"slot": "112",
						"type": "t_uint256"
					},
					{
						"astId": 1855,
						"contract": "contracts/helperLogic.sol:helperLogic",
						"label": "PRECISION",
						"offset": 0,
						"slot": "113",
						"type": "t_uint256"
					},
					{
						"astId": 1857,
						"contract": "contracts/helperLogic.sol:helperLogic",
						"label": "basePoint",
						"offset": 0,
						"slot": "114",
						"type": "t_uint256"
					},
					{
						"astId": 1859,
						"contract": "contracts/helperLogic.sol:helperLogic",
						"label": "pid",
						"offset": 0,
						"slot": "115",
						"type": "t_uint256"
					},
					{
						"astId": 1862,
						"contract": "contracts/helperLogic.sol:helperLogic",
						"label": "farm",
						"offset": 0,
						"slot": "116",
						"type": "t_contract(IFarm)1804"
					},
					{
						"astId": 1864,
						"contract": "contracts/helperLogic.sol:helperLogic",
						"label": "autoAdjustFarm",
						"offset": 20,
						"slot": "116",
						"type": "t_bool"
					},
					{
						"astId": 1866,
						"contract": "contracts/helperLogic.sol:helperLogic",
						"label": "openStabilizer",
						"offset": 21,
						"slot": "116",
						"type": "t_bool"
					},
					{
						"astId": 1868,
						"contract": "contracts/helperLogic.sol:helperLogic",
						"label": "stabilizer",
						"offset": 0,
						"slot": "117",
						"type": "t_address"
					}
				],
				"types": {
					"t_address": {
						"encoding": "inplace",
						"label": "address",
						"numberOfBytes": "20"
					},
					"t_array(t_uint256)49_storage": {
						"base": "t_uint256",
						"encoding": "inplace",
						"label": "uint256[49]",
						"numberOfBytes": "1568"
					},
					"t_array(t_uint256)50_storage": {
						"base": "t_uint256",
						"encoding": "inplace",
						"label": "uint256[50]",
						"numberOfBytes": "1600"
					},
					"t_bool": {
						"encoding": "inplace",
						"label": "bool",
						"numberOfBytes": "1"
					},
					"t_contract(IERC20Upgradeable)248": {
						"encoding": "inplace",
						"label": "contract IERC20Upgradeable",
						"numberOfBytes": "20"
					},
					"t_contract(IFarm)1804": {
						"encoding": "inplace",
						"label": "contract IFarm",
						"numberOfBytes": "20"
					},
					"t_contract(IUniswapV2Factory)1146": {
						"encoding": "inplace",
						"label": "contract IUniswapV2Factory",
						"numberOfBytes": "20"
					},
					"t_contract(IUniswapV2Router02)1784": {
						"encoding": "inplace",
						"label": "contract IUniswapV2Router02",
						"numberOfBytes": "20"
					},
					"t_mapping(t_address,t_bool)": {
						"encoding": "mapping",
						"key": "t_address",
						"label": "mapping(address => bool)",
						"numberOfBytes": "32",
						"value": "t_bool"
					},
					"t_uint256": {
						"encoding": "inplace",
						"label": "uint256",
						"numberOfBytes": "32"
					}
				}
			},
			"userdoc": {
				"kind": "user",
				"methods": {},
				"version": 1
			}
		}
	}
}