{
	"contracts/oracle.sol": {
		"Oracle": {
			"abi": [
				{
					"anonymous": false,
					"inputs": [
						{
							"indexed": true,
							"internalType": "address",
							"name": "previousOwner",
							"type": "address"
						},
						{
							"indexed": true,
							"internalType": "address",
							"name": "newOwner",
							"type": "address"
						}
					],
					"name": "OwnershipTransferred",
					"type": "event"
				},
				{
					"inputs": [
						{
							"internalType": "address",
							"name": "",
							"type": "address"
						}
					],
					"name": "executor",
					"outputs": [
						{
							"internalType": "bool",
							"name": "",
							"type": "bool"
						}
					],
					"stateMutability": "view",
					"type": "function"
				},
				{
					"inputs": [
						{
							"internalType": "uint256",
							"name": "_price18",
							"type": "uint256"
						},
						{
							"internalType": "uint256",
							"name": "_timestamp",
							"type": "uint256"
						},
						{
							"internalType": "string",
							"name": "_symbols",
							"type": "string"
						},
						{
							"internalType": "bytes",
							"name": "_signature",
							"type": "bytes"
						}
					],
					"name": "getkey",
					"outputs": [
						{
							"internalType": "bool",
							"name": "",
							"type": "bool"
						}
					],
					"stateMutability": "view",
					"type": "function"
				},
				{
					"inputs": [
						{
							"internalType": "address",
							"name": "_signer",
							"type": "address"
						}
					],
					"name": "initialize",
					"outputs": [],
					"stateMutability": "nonpayable",
					"type": "function"
				},
				{
					"inputs": [],
					"name": "owner",
					"outputs": [
						{
							"internalType": "address",
							"name": "",
							"type": "address"
						}
					],
					"stateMutability": "view",
					"type": "function"
				},
				{
					"inputs": [],
					"name": "renounceOwnership",
					"outputs": [],
					"stateMutability": "nonpayable",
					"type": "function"
				},
				{
					"inputs": [
						{
							"internalType": "address",
							"name": "_address",
							"type": "address"
						},
						{
							"internalType": "bool",
							"name": "_type",
							"type": "bool"
						}
					],
					"name": "setExecutor",
					"outputs": [
						{
							"internalType": "bool",
							"name": "",
							"type": "bool"
						}
					],
					"stateMutability": "nonpayable",
					"type": "function"
				},
				{
					"inputs": [
						{
							"internalType": "address",
							"name": "_address",
							"type": "address"
						}
					],
					"name": "setSigner",
					"outputs": [
						{
							"internalType": "bool",
							"name": "",
							"type": "bool"
						}
					],
					"stateMutability": "nonpayable",
					"type": "function"
				},
				{
					"inputs": [
						{
							"internalType": "uint256",
							"name": "_val",
							"type": "uint256"
						}
					],
					"name": "setTimeLimit",
					"outputs": [
						{
							"internalType": "bool",
							"name": "",
							"type": "bool"
						}
					],
					"stateMutability": "nonpayable",
					"type": "function"
				},
				{
					"inputs": [],
					"name": "signer",
					"outputs": [
						{
							"internalType": "address",
							"name": "",
							"type": "address"
						}
					],
					"stateMutability": "view",
					"type": "function"
				},
				{
					"inputs": [],
					"name": "timeLimit",
					"outputs": [
						{
							"internalType": "uint256",
							"name": "",
							"type": "uint256"
						}
					],
					"stateMutability": "view",
					"type": "function"
				},
				{
					"inputs": [
						{
							"internalType": "address",
							"name": "newOwner",
							"type": "address"
						}
					],
					"name": "transferOwnership",
					"outputs": [],
					"stateMutability": "nonpayable",
					"type": "function"
				}
			],
			"devdoc": {
				"kind": "dev",
				"methods": {
					"owner()": {
						"details": "Returns the address of the current owner."
					},
					"renounceOwnership()": {
						"details": "Leaves the contract without owner. It will not be possible to call `onlyOwner` functions anymore. Can only be called by the current owner. NOTE: Renouncing ownership will leave the contract without an owner, thereby removing any functionality that is only available to the owner."
					},
					"transferOwnership(address)": {
						"details": "Transfers ownership of the contract to a new account (`newOwner`). Can only be called by the current owner."
					}
				},
				"version": 1
			},
			"evm": {
				"assembly": "    /* \"contracts/oracle.sol\":436:2324  contract Oracle is Initializable, OwnableUpgradeable {... */\n  mstore(0x40, 0x80)\n  callvalue\n  dup1\n  iszero\n  tag_1\n  jumpi\n  0x00\n  dup1\n  revert\ntag_1:\n  pop\n  dataSize(sub_0)\n  dup1\n  dataOffset(sub_0)\n  0x00\n  codecopy\n  0x00\n  return\nstop\n\nsub_0: assembly {\n        /* \"contracts/oracle.sol\":436:2324  contract Oracle is Initializable, OwnableUpgradeable {... */\n      mstore(0x40, 0x80)\n      callvalue\n      dup1\n      iszero\n      tag_1\n      jumpi\n      0x00\n      dup1\n      revert\n    tag_1:\n      pop\n      jumpi(tag_2, lt(calldatasize, 0x04))\n      shr(0xe0, calldataload(0x00))\n      dup1\n      0x81952f3b\n      gt\n      tag_14\n      jumpi\n      dup1\n      0x81952f3b\n      eq\n      tag_8\n      jumpi\n      dup1\n      0x8da5cb5b\n      eq\n      tag_9\n      jumpi\n      dup1\n      0xc08d1fe5\n      eq\n      tag_10\n      jumpi\n      dup1\n      0xc4d66de8\n      eq\n      tag_11\n      jumpi\n      dup1\n      0xe2889c82\n      eq\n      tag_12\n      jumpi\n      dup1\n      0xf2fde38b\n      eq\n      tag_13\n      jumpi\n      jump(tag_2)\n    tag_14:\n      dup1\n      0x1e1bff3f\n      eq\n      tag_3\n      jumpi\n      dup1\n      0x238ac933\n      eq\n      tag_4\n      jumpi\n      dup1\n      0x48c7e528\n      eq\n      tag_5\n      jumpi\n      dup1\n      0x6c19e783\n      eq\n      tag_6\n      jumpi\n      dup1\n      0x715018a6\n      eq\n      tag_7\n      jumpi\n    tag_2:\n      0x00\n      dup1\n      revert\n        /* \"contracts/oracle.sol\":1024:1190  function setExecutor(address _address, bool _type)... */\n    tag_3:\n      tag_15\n      tag_16\n      calldatasize\n      0x04\n      tag_17\n      jump\t// in\n    tag_16:\n      tag_18\n      jump\t// in\n    tag_15:\n      mload(0x40)\n      tag_19\n      swap2\n      swap1\n      tag_20\n      jump\t// in\n    tag_19:\n      mload(0x40)\n      dup1\n      swap2\n      sub\n      swap1\n      return\n        /* \"contracts/oracle.sol\":557:578  address public signer */\n    tag_4:\n      tag_21\n      tag_22\n      jump\t// in\n    tag_21:\n      mload(0x40)\n      tag_19\n      swap2\n      swap1\n      tag_24\n      jump\t// in\n        /* \"contracts/oracle.sol\":629:669  mapping(address => bool) public executor */\n    tag_5:\n      tag_15\n      tag_26\n      calldatasize\n      0x04\n      tag_27\n      jump\t// in\n    tag_26:\n      tag_28\n      jump\t// in\n        /* \"contracts/oracle.sol\":1619:1745  function setSigner(address _address) external onlyOwner returns (bool) {... */\n    tag_6:\n      tag_15\n      tag_31\n      calldatasize\n      0x04\n      tag_27\n      jump\t// in\n    tag_31:\n      tag_32\n      jump\t// in\n        /* \"@openzeppelin/contracts-upgradeable/access/OwnableUpgradeable.sol\":1934:2035  function renounceOwnership() public virtual onlyOwner {... */\n    tag_7:\n      tag_34\n      tag_35\n      jump\t// in\n    tag_34:\n      stop\n        /* \"contracts/oracle.sol\":1751:2322  function getkey(... */\n    tag_8:\n      tag_15\n      tag_37\n      calldatasize\n      0x04\n      tag_38\n      jump\t// in\n    tag_37:\n      tag_39\n      jump\t// in\n        /* \"@openzeppelin/contracts-upgradeable/access/OwnableUpgradeable.sol\":1302:1387  function owner() public view virtual returns (address) {... */\n    tag_9:\n      tag_21\n      tag_42\n      jump\t// in\n        /* \"contracts/oracle.sol\":584:608  uint256 public timeLimit */\n    tag_10:\n      tag_44\n      tag_45\n      jump\t// in\n    tag_44:\n      mload(0x40)\n      tag_19\n      swap2\n      swap1\n      tag_47\n      jump\t// in\n        /* \"contracts/oracle.sol\":840:1018  function initialize(address _signer) external initializer {... */\n    tag_11:\n      tag_34\n      tag_49\n      calldatasize\n      0x04\n      tag_27\n      jump\t// in\n    tag_49:\n      tag_50\n      jump\t// in\n        /* \"contracts/oracle.sol\":1489:1613  function setTimeLimit(uint256 _val) external onlyOwner returns (bool) {... */\n    tag_12:\n      tag_15\n      tag_52\n      calldatasize\n      0x04\n      tag_53\n      jump\t// in\n    tag_52:\n      tag_54\n      jump\t// in\n        /* \"@openzeppelin/contracts-upgradeable/access/OwnableUpgradeable.sol\":2184:2382  function transferOwnership(address newOwner) public virtual onlyOwner {... */\n    tag_13:\n      tag_34\n      tag_57\n      calldatasize\n      0x04\n      tag_27\n      jump\t// in\n    tag_57:\n      tag_58\n      jump\t// in\n        /* \"contracts/oracle.sol\":1024:1190  function setExecutor(address _address, bool _type)... */\n    tag_18:\n        /* \"contracts/oracle.sol\":1127:1131  bool */\n      0x00\n        /* \"@openzeppelin/contracts-upgradeable/access/OwnableUpgradeable.sol\":1525:1537  _msgSender() */\n      tag_60\n        /* \"@openzeppelin/contracts-upgradeable/access/OwnableUpgradeable.sol\":1525:1535  _msgSender */\n      tag_61\n        /* \"@openzeppelin/contracts-upgradeable/access/OwnableUpgradeable.sol\":1525:1537  _msgSender() */\n      jump\t// in\n    tag_60:\n      sub(shl(0xa0, 0x01), 0x01)\n        /* \"@openzeppelin/contracts-upgradeable/access/OwnableUpgradeable.sol\":1514:1537  owner() == _msgSender() */\n      and\n        /* \"@openzeppelin/contracts-upgradeable/access/OwnableUpgradeable.sol\":1514:1521  owner() */\n      tag_62\n        /* \"@openzeppelin/contracts-upgradeable/access/OwnableUpgradeable.sol\":1514:1519  owner */\n      tag_42\n        /* \"@openzeppelin/contracts-upgradeable/access/OwnableUpgradeable.sol\":1514:1521  owner() */\n      jump\t// in\n    tag_62:\n      sub(shl(0xa0, 0x01), 0x01)\n        /* \"@openzeppelin/contracts-upgradeable/access/OwnableUpgradeable.sol\":1514:1537  owner() == _msgSender() */\n      and\n      eq\n        /* \"@openzeppelin/contracts-upgradeable/access/OwnableUpgradeable.sol\":1506:1574  require(owner() == _msgSender(), \"Ownable: caller is not the owner\") */\n      tag_63\n      jumpi\n      mload(0x40)\n      shl(0xe5, 0x461bcd)\n      dup2\n      mstore\n      0x04\n      add\n      tag_64\n      swap1\n      tag_65\n      jump\t// in\n    tag_64:\n      mload(0x40)\n      dup1\n      swap2\n      sub\n      swap1\n      revert\n    tag_63:\n        /* \"contracts/oracle.sol\":1154:1183  _setExecutor(_address, _type) */\n      tag_67\n        /* \"contracts/oracle.sol\":1167:1175  _address */\n      dup4\n        /* \"contracts/oracle.sol\":1177:1182  _type */\n      dup4\n        /* \"contracts/oracle.sol\":1154:1166  _setExecutor */\n      tag_68\n        /* \"contracts/oracle.sol\":1154:1183  _setExecutor(_address, _type) */\n      jump\t// in\n    tag_67:\n        /* \"contracts/oracle.sol\":1147:1183  return _setExecutor(_address, _type) */\n      swap4\n        /* \"contracts/oracle.sol\":1024:1190  function setExecutor(address _address, bool _type)... */\n      swap3\n      pop\n      pop\n      pop\n      jump\t// out\n        /* \"contracts/oracle.sol\":557:578  address public signer */\n    tag_22:\n      and(sub(shl(0xa0, 0x01), 0x01), sload(0x65))\n      dup2\n      jump\t// out\n        /* \"contracts/oracle.sol\":629:669  mapping(address => bool) public executor */\n    tag_28:\n      mstore(0x20, 0x67)\n      0x00\n      swap1\n      dup2\n      mstore\n      0x40\n      swap1\n      keccak256\n      sload\n      0xff\n      and\n      dup2\n      jump\t// out\n        /* \"contracts/oracle.sol\":1619:1745  function setSigner(address _address) external onlyOwner returns (bool) {... */\n    tag_32:\n        /* \"contracts/oracle.sol\":1684:1688  bool */\n      0x00\n        /* \"@openzeppelin/contracts-upgradeable/access/OwnableUpgradeable.sol\":1525:1537  _msgSender() */\n      tag_70\n        /* \"@openzeppelin/contracts-upgradeable/access/OwnableUpgradeable.sol\":1525:1535  _msgSender */\n      tag_61\n        /* \"@openzeppelin/contracts-upgradeable/access/OwnableUpgradeable.sol\":1525:1537  _msgSender() */\n      jump\t// in\n    tag_70:\n      sub(shl(0xa0, 0x01), 0x01)\n        /* \"@openzeppelin/contracts-upgradeable/access/OwnableUpgradeable.sol\":1514:1537  owner() == _msgSender() */\n      and\n        /* \"@openzeppelin/contracts-upgradeable/access/OwnableUpgradeable.sol\":1514:1521  owner() */\n      tag_71\n        /* \"@openzeppelin/contracts-upgradeable/access/OwnableUpgradeable.sol\":1514:1519  owner */\n      tag_42\n        /* \"@openzeppelin/contracts-upgradeable/access/OwnableUpgradeable.sol\":1514:1521  owner() */\n      jump\t// in\n    tag_71:\n      sub(shl(0xa0, 0x01), 0x01)\n        /* \"@openzeppelin/contracts-upgradeable/access/OwnableUpgradeable.sol\":1514:1537  owner() == _msgSender() */\n      and\n      eq\n        /* \"@openzeppelin/contracts-upgradeable/access/OwnableUpgradeable.sol\":1506:1574  require(owner() == _msgSender(), \"Ownable: caller is not the owner\") */\n      tag_72\n      jumpi\n      mload(0x40)\n      shl(0xe5, 0x461bcd)\n      dup2\n      mstore\n      0x04\n      add\n      tag_64\n      swap1\n      tag_65\n      jump\t// in\n    tag_72:\n      pop\n        /* \"contracts/oracle.sol\":1700:1706  signer */\n      0x65\n        /* \"contracts/oracle.sol\":1700:1717  signer = _address */\n      dup1\n      sload\n      not(sub(shl(0xa0, 0x01), 0x01))\n      and\n      sub(shl(0xa0, 0x01), 0x01)\n      dup4\n      and\n      or\n      swap1\n      sstore\n      0x01\n        /* \"@openzeppelin/contracts-upgradeable/access/OwnableUpgradeable.sol\":1584:1585  _ */\n    tag_74:\n        /* \"contracts/oracle.sol\":1619:1745  function setSigner(address _address) external onlyOwner returns (bool) {... */\n      swap2\n      swap1\n      pop\n      jump\t// out\n        /* \"@openzeppelin/contracts-upgradeable/access/OwnableUpgradeable.sol\":1934:2035  function renounceOwnership() public virtual onlyOwner {... */\n    tag_35:\n        /* \"@openzeppelin/contracts-upgradeable/access/OwnableUpgradeable.sol\":1525:1537  _msgSender() */\n      tag_76\n        /* \"@openzeppelin/contracts-upgradeable/access/OwnableUpgradeable.sol\":1525:1535  _msgSender */\n      tag_61\n        /* \"@openzeppelin/contracts-upgradeable/access/OwnableUpgradeable.sol\":1525:1537  _msgSender() */\n      jump\t// in\n    tag_76:\n      sub(shl(0xa0, 0x01), 0x01)\n        /* \"@openzeppelin/contracts-upgradeable/access/OwnableUpgradeable.sol\":1514:1537  owner() == _msgSender() */\n      and\n        /* \"@openzeppelin/contracts-upgradeable/access/OwnableUpgradeable.sol\":1514:1521  owner() */\n      tag_77\n        /* \"@openzeppelin/contracts-upgradeable/access/OwnableUpgradeable.sol\":1514:1519  owner */\n      tag_42\n        /* \"@openzeppelin/contracts-upgradeable/access/OwnableUpgradeable.sol\":1514:1521  owner() */\n      jump\t// in\n    tag_77:\n      sub(shl(0xa0, 0x01), 0x01)\n        /* \"@openzeppelin/contracts-upgradeable/access/OwnableUpgradeable.sol\":1514:1537  owner() == _msgSender() */\n      and\n      eq\n        /* \"@openzeppelin/contracts-upgradeable/access/OwnableUpgradeable.sol\":1506:1574  require(owner() == _msgSender(), \"Ownable: caller is not the owner\") */\n      tag_78\n      jumpi\n      mload(0x40)\n      shl(0xe5, 0x461bcd)\n      dup2\n      mstore\n      0x04\n      add\n      tag_64\n      swap1\n      tag_65\n      jump\t// in\n    tag_78:\n        /* \"@openzeppelin/contracts-upgradeable/access/OwnableUpgradeable.sol\":1998:2028  _transferOwnership(address(0)) */\n      tag_81\n        /* \"@openzeppelin/contracts-upgradeable/access/OwnableUpgradeable.sol\":2025:2026  0 */\n      0x00\n        /* \"@openzeppelin/contracts-upgradeable/access/OwnableUpgradeable.sol\":1998:2016  _transferOwnership */\n      tag_82\n        /* \"@openzeppelin/contracts-upgradeable/access/OwnableUpgradeable.sol\":1998:2028  _transferOwnership(address(0)) */\n      jump\t// in\n    tag_81:\n        /* \"@openzeppelin/contracts-upgradeable/access/OwnableUpgradeable.sol\":1934:2035  function renounceOwnership() public virtual onlyOwner {... */\n      jump\t// out\n        /* \"contracts/oracle.sol\":1751:2322  function getkey(... */\n    tag_39:\n        /* \"contracts/oracle.sol\":1946:1956  msg.sender */\n      caller\n        /* \"contracts/oracle.sol\":1913:1917  bool */\n      0x00\n        /* \"contracts/oracle.sol\":1937:1957  executor[msg.sender] */\n      swap1\n      dup2\n      mstore\n        /* \"contracts/oracle.sol\":1937:1945  executor */\n      0x67\n        /* \"contracts/oracle.sol\":1937:1957  executor[msg.sender] */\n      0x20\n      mstore\n      0x40\n      dup2\n      keccak256\n      sload\n      0xff\n      and\n        /* \"contracts/oracle.sol\":1929:1974  require(executor[msg.sender], \"executor err\") */\n      tag_84\n      jumpi\n      mload(0x40)\n      shl(0xe5, 0x461bcd)\n      dup2\n      mstore\n      0x04\n      add\n      tag_64\n      swap1\n      tag_86\n      jump\t// in\n    tag_84:\n        /* \"contracts/oracle.sol\":2022:2032  _timestamp */\n      dup4\n        /* \"contracts/oracle.sol\":2010:2019  timeLimit */\n      sload(0x66)\n        /* \"contracts/oracle.sol\":1992:2007  block.timestamp */\n      timestamp\n        /* \"contracts/oracle.sol\":1992:2019  block.timestamp - timeLimit */\n      tag_87\n      swap2\n      swap1\n      tag_88\n      jump\t// in\n    tag_87:\n        /* \"contracts/oracle.sol\":1992:2032  block.timestamp - timeLimit < _timestamp */\n      lt\n        /* \"contracts/oracle.sol\":1984:2050  require(block.timestamp - timeLimit < _timestamp, \"timestamp err\") */\n      tag_89\n      jumpi\n      mload(0x40)\n      shl(0xe5, 0x461bcd)\n      dup2\n      mstore\n      0x04\n      add\n      tag_64\n      swap1\n      tag_91\n      jump\t// in\n    tag_89:\n        /* \"contracts/oracle.sol\":2060:2072  bytes32 hash */\n      0x00\n        /* \"contracts/oracle.sol\":2115:2123  _price18 */\n      dup6\n        /* \"contracts/oracle.sol\":2125:2135  _timestamp */\n      dup6\n        /* \"contracts/oracle.sol\":2137:2145  _symbols */\n      dup6\n        /* \"contracts/oracle.sol\":2098:2146  abi.encodePacked(_price18, _timestamp, _symbols) */\n      add(0x20, mload(0x40))\n      tag_92\n      swap4\n      swap3\n      swap2\n      swap1\n      tag_93\n      jump\t// in\n    tag_92:\n      mload(0x40)\n      0x20\n      dup2\n      dup4\n      sub\n      sub\n      dup2\n      mstore\n      swap1\n      0x40\n      mstore\n        /* \"contracts/oracle.sol\":2075:2156  keccak256(... */\n      dup1\n      mload\n      swap1\n      0x20\n      add\n      keccak256\n        /* \"contracts/oracle.sol\":2060:2156  bytes32 hash = keccak256(... */\n      swap1\n      pop\n        /* \"contracts/oracle.sol\":2166:2181  address _signer */\n      0x00\n        /* \"contracts/oracle.sol\":2184:2279  ECDSA.recover(... */\n      tag_94\n        /* \"contracts/oracle.sol\":2211:2245  ECDSA.toEthSignedMessageHash(hash) */\n      tag_95\n        /* \"contracts/oracle.sol\":2240:2244  hash */\n      dup4\n        /* \"contracts/oracle.sol\":2211:2239  ECDSA.toEthSignedMessageHash */\n      tag_96\n        /* \"contracts/oracle.sol\":2211:2245  ECDSA.toEthSignedMessageHash(hash) */\n      jump\t// in\n    tag_95:\n        /* \"contracts/oracle.sol\":2259:2269  _signature */\n      dup6\n        /* \"contracts/oracle.sol\":2184:2197  ECDSA.recover */\n      tag_97\n        /* \"contracts/oracle.sol\":2184:2279  ECDSA.recover(... */\n      jump\t// in\n    tag_94:\n        /* \"contracts/oracle.sol\":2297:2303  signer */\n      sload(0x65)\n      sub(shl(0xa0, 0x01), 0x01)\n        /* \"contracts/oracle.sol\":2297:2314  signer == _signer */\n      swap2\n      dup3\n      and\n        /* \"contracts/oracle.sol\":2297:2303  signer */\n      swap2\n      and\n        /* \"contracts/oracle.sol\":2297:2314  signer == _signer */\n      eq\n      swap8\n        /* \"contracts/oracle.sol\":1751:2322  function getkey(... */\n      swap7\n      pop\n      pop\n      pop\n      pop\n      pop\n      pop\n      pop\n      jump\t// out\n        /* \"@openzeppelin/contracts-upgradeable/access/OwnableUpgradeable.sol\":1302:1387  function owner() public view virtual returns (address) {... */\n    tag_42:\n        /* \"@openzeppelin/contracts-upgradeable/access/OwnableUpgradeable.sol\":1374:1380  _owner */\n      and(sub(shl(0xa0, 0x01), 0x01), sload(0x33))\n        /* \"@openzeppelin/contracts-upgradeable/access/OwnableUpgradeable.sol\":1302:1387  function owner() public view virtual returns (address) {... */\n      swap1\n      jump\t// out\n        /* \"contracts/oracle.sol\":584:608  uint256 public timeLimit */\n    tag_45:\n      sload(0x66)\n      dup2\n      jump\t// out\n        /* \"contracts/oracle.sol\":840:1018  function initialize(address _signer) external initializer {... */\n    tag_50:\n        /* \"@openzeppelin/contracts-upgradeable/proxy/utils/Initializable.sol\":539:552  _initializing */\n      sload(0x00)\n      0x0100\n      swap1\n      div\n      0xff\n      and\n      dup1\n        /* \"@openzeppelin/contracts-upgradeable/proxy/utils/Initializable.sol\":539:569  _initializing || !_initialized */\n      tag_100\n      jumpi\n      pop\n        /* \"@openzeppelin/contracts-upgradeable/proxy/utils/Initializable.sol\":557:569  _initialized */\n      and(0xff, sload(0x00))\n        /* \"@openzeppelin/contracts-upgradeable/proxy/utils/Initializable.sol\":556:569  !_initialized */\n      iszero\n        /* \"@openzeppelin/contracts-upgradeable/proxy/utils/Initializable.sol\":539:569  _initializing || !_initialized */\n    tag_100:\n        /* \"@openzeppelin/contracts-upgradeable/proxy/utils/Initializable.sol\":531:620  require(_initializing || !_initialized, \"Initializable: contract is already initialized\") */\n      tag_101\n      jumpi\n      mload(0x40)\n      shl(0xe5, 0x461bcd)\n      dup2\n      mstore\n      0x04\n      add\n      tag_64\n      swap1\n      tag_103\n      jump\t// in\n    tag_101:\n        /* \"@openzeppelin/contracts-upgradeable/proxy/utils/Initializable.sol\":631:650  bool isTopLevelCall */\n      0x00\n        /* \"@openzeppelin/contracts-upgradeable/proxy/utils/Initializable.sol\":654:667  _initializing */\n      sload\n      0x0100\n      swap1\n      div\n      0xff\n      and\n        /* \"@openzeppelin/contracts-upgradeable/proxy/utils/Initializable.sol\":653:667  !_initializing */\n      iszero\n        /* \"@openzeppelin/contracts-upgradeable/proxy/utils/Initializable.sol\":677:775  if (isTopLevelCall) {... */\n      dup1\n      iszero\n      tag_104\n      jumpi\n        /* \"@openzeppelin/contracts-upgradeable/proxy/utils/Initializable.sol\":711:724  _initializing */\n      0x00\n        /* \"@openzeppelin/contracts-upgradeable/proxy/utils/Initializable.sol\":711:731  _initializing = true */\n      dup1\n      sload\n      not(0xff)\n      not(0xff00)\n      swap1\n      swap2\n      and\n      0x0100\n      or\n        /* \"@openzeppelin/contracts-upgradeable/proxy/utils/Initializable.sol\":745:764  _initialized = true */\n      and\n        /* \"@openzeppelin/contracts-upgradeable/proxy/utils/Initializable.sol\":727:731  true */\n      0x01\n        /* \"@openzeppelin/contracts-upgradeable/proxy/utils/Initializable.sol\":745:764  _initialized = true */\n      or\n      swap1\n      sstore\n        /* \"@openzeppelin/contracts-upgradeable/proxy/utils/Initializable.sol\":677:775  if (isTopLevelCall) {... */\n    tag_104:\n        /* \"contracts/oracle.sol\":908:924  __Ownable_init() */\n      tag_106\n        /* \"contracts/oracle.sol\":908:922  __Ownable_init */\n      tag_107\n        /* \"contracts/oracle.sol\":908:924  __Ownable_init() */\n      jump\t// in\n    tag_106:\n        /* \"contracts/oracle.sol\":934:961  _setExecutor(_signer, true) */\n      tag_108\n        /* \"contracts/oracle.sol\":947:954  _signer */\n      dup3\n        /* \"contracts/oracle.sol\":956:960  true */\n      0x01\n        /* \"contracts/oracle.sol\":934:946  _setExecutor */\n      tag_68\n        /* \"contracts/oracle.sol\":934:961  _setExecutor(_signer, true) */\n      jump\t// in\n    tag_108:\n      pop\n        /* \"contracts/oracle.sol\":971:977  signer */\n      0x65\n        /* \"contracts/oracle.sol\":971:987  signer = _signer */\n      dup1\n      sload\n      not(sub(shl(0xa0, 0x01), 0x01))\n      and\n      sub(shl(0xa0, 0x01), 0x01)\n      dup5\n      and\n      or\n      swap1\n      sstore\n        /* \"contracts/oracle.sol\":1009:1011  60 */\n      0x3c\n        /* \"contracts/oracle.sol\":997:1006  timeLimit */\n      0x66\n        /* \"contracts/oracle.sol\":997:1011  timeLimit = 60 */\n      sstore\n        /* \"@openzeppelin/contracts-upgradeable/proxy/utils/Initializable.sol\":797:863  if (isTopLevelCall) {... */\n      dup1\n      iszero\n      tag_109\n      jumpi\n        /* \"@openzeppelin/contracts-upgradeable/proxy/utils/Initializable.sol\":847:852  false */\n      0x00\n        /* \"@openzeppelin/contracts-upgradeable/proxy/utils/Initializable.sol\":831:852  _initializing = false */\n      dup1\n      sload\n      not(0xff00)\n      and\n      swap1\n      sstore\n        /* \"@openzeppelin/contracts-upgradeable/proxy/utils/Initializable.sol\":797:863  if (isTopLevelCall) {... */\n    tag_109:\n        /* \"contracts/oracle.sol\":840:1018  function initialize(address _signer) external initializer {... */\n      pop\n      pop\n      jump\t// out\n        /* \"contracts/oracle.sol\":1489:1613  function setTimeLimit(uint256 _val) external onlyOwner returns (bool) {... */\n    tag_54:\n        /* \"contracts/oracle.sol\":1553:1557  bool */\n      0x00\n        /* \"@openzeppelin/contracts-upgradeable/access/OwnableUpgradeable.sol\":1525:1537  _msgSender() */\n      tag_111\n        /* \"@openzeppelin/contracts-upgradeable/access/OwnableUpgradeable.sol\":1525:1535  _msgSender */\n      tag_61\n        /* \"@openzeppelin/contracts-upgradeable/access/OwnableUpgradeable.sol\":1525:1537  _msgSender() */\n      jump\t// in\n    tag_111:\n      sub(shl(0xa0, 0x01), 0x01)\n        /* \"@openzeppelin/contracts-upgradeable/access/OwnableUpgradeable.sol\":1514:1537  owner() == _msgSender() */\n      and\n        /* \"@openzeppelin/contracts-upgradeable/access/OwnableUpgradeable.sol\":1514:1521  owner() */\n      tag_112\n        /* \"@openzeppelin/contracts-upgradeable/access/OwnableUpgradeable.sol\":1514:1519  owner */\n      tag_42\n        /* \"@openzeppelin/contracts-upgradeable/access/OwnableUpgradeable.sol\":1514:1521  owner() */\n      jump\t// in\n    tag_112:\n      sub(shl(0xa0, 0x01), 0x01)\n        /* \"@openzeppelin/contracts-upgradeable/access/OwnableUpgradeable.sol\":1514:1537  owner() == _msgSender() */\n      and\n      eq\n        /* \"@openzeppelin/contracts-upgradeable/access/OwnableUpgradeable.sol\":1506:1574  require(owner() == _msgSender(), \"Ownable: caller is not the owner\") */\n      tag_113\n      jumpi\n      mload(0x40)\n      shl(0xe5, 0x461bcd)\n      dup2\n      mstore\n      0x04\n      add\n      tag_64\n      swap1\n      tag_65\n      jump\t// in\n    tag_113:\n      pop\n        /* \"contracts/oracle.sol\":1569:1578  timeLimit */\n      0x66\n        /* \"contracts/oracle.sol\":1569:1585  timeLimit = _val */\n      sstore\n        /* \"contracts/oracle.sol\":1602:1606  true */\n      0x01\n      swap1\n        /* \"contracts/oracle.sol\":1489:1613  function setTimeLimit(uint256 _val) external onlyOwner returns (bool) {... */\n      jump\t// out\n        /* \"@openzeppelin/contracts-upgradeable/access/OwnableUpgradeable.sol\":2184:2382  function transferOwnership(address newOwner) public virtual onlyOwner {... */\n    tag_58:\n        /* \"@openzeppelin/contracts-upgradeable/access/OwnableUpgradeable.sol\":1525:1537  _msgSender() */\n      tag_117\n        /* \"@openzeppelin/contracts-upgradeable/access/OwnableUpgradeable.sol\":1525:1535  _msgSender */\n      tag_61\n        /* \"@openzeppelin/contracts-upgradeable/access/OwnableUpgradeable.sol\":1525:1537  _msgSender() */\n      jump\t// in\n    tag_117:\n      sub(shl(0xa0, 0x01), 0x01)\n        /* \"@openzeppelin/contracts-upgradeable/access/OwnableUpgradeable.sol\":1514:1537  owner() == _msgSender() */\n      and\n        /* \"@openzeppelin/contracts-upgradeable/access/OwnableUpgradeable.sol\":1514:1521  owner() */\n      tag_118\n        /* \"@openzeppelin/contracts-upgradeable/access/OwnableUpgradeable.sol\":1514:1519  owner */\n      tag_42\n        /* \"@openzeppelin/contracts-upgradeable/access/OwnableUpgradeable.sol\":1514:1521  owner() */\n      jump\t// in\n    tag_118:\n      sub(shl(0xa0, 0x01), 0x01)\n        /* \"@openzeppelin/contracts-upgradeable/access/OwnableUpgradeable.sol\":1514:1537  owner() == _msgSender() */\n      and\n      eq\n        /* \"@openzeppelin/contracts-upgradeable/access/OwnableUpgradeable.sol\":1506:1574  require(owner() == _msgSender(), \"Ownable: caller is not the owner\") */\n      tag_119\n      jumpi\n      mload(0x40)\n      shl(0xe5, 0x461bcd)\n      dup2\n      mstore\n      0x04\n      add\n      tag_64\n      swap1\n      tag_65\n      jump\t// in\n    tag_119:\n      sub(shl(0xa0, 0x01), 0x01)\n        /* \"@openzeppelin/contracts-upgradeable/access/OwnableUpgradeable.sol\":2272:2294  newOwner != address(0) */\n      dup2\n      and\n        /* \"@openzeppelin/contracts-upgradeable/access/OwnableUpgradeable.sol\":2264:2337  require(newOwner != address(0), \"Ownable: new owner is the zero address\") */\n      tag_122\n      jumpi\n      mload(0x40)\n      shl(0xe5, 0x461bcd)\n      dup2\n      mstore\n      0x04\n      add\n      tag_64\n      swap1\n      tag_124\n      jump\t// in\n    tag_122:\n        /* \"@openzeppelin/contracts-upgradeable/access/OwnableUpgradeable.sol\":2347:2375  _transferOwnership(newOwner) */\n      tag_125\n        /* \"@openzeppelin/contracts-upgradeable/access/OwnableUpgradeable.sol\":2366:2374  newOwner */\n      dup2\n        /* \"@openzeppelin/contracts-upgradeable/access/OwnableUpgradeable.sol\":2347:2365  _transferOwnership */\n      tag_82\n        /* \"@openzeppelin/contracts-upgradeable/access/OwnableUpgradeable.sol\":2347:2375  _transferOwnership(newOwner) */\n      jump\t// in\n    tag_125:\n        /* \"@openzeppelin/contracts-upgradeable/access/OwnableUpgradeable.sol\":2184:2382  function transferOwnership(address newOwner) public virtual onlyOwner {... */\n      pop\n      jump\t// out\n        /* \"@openzeppelin/contracts-upgradeable/utils/ContextUpgradeable.sol\":876:972  function _msgSender() internal view virtual returns (address) {... */\n    tag_61:\n        /* \"@openzeppelin/contracts-upgradeable/utils/ContextUpgradeable.sol\":955:965  msg.sender */\n      caller\n        /* \"@openzeppelin/contracts-upgradeable/utils/ContextUpgradeable.sol\":876:972  function _msgSender() internal view virtual returns (address) {... */\n      swap1\n      jump\t// out\n        /* \"contracts/oracle.sol\":1196:1356  function _setExecutor(address _address, bool _type)... */\n    tag_68:\n      sub(shl(0xa0, 0x01), 0x01)\n        /* \"contracts/oracle.sol\":1302:1320  executor[_address] */\n      dup3\n      and\n        /* \"contracts/oracle.sol\":1282:1286  bool */\n      0x00\n        /* \"contracts/oracle.sol\":1302:1320  executor[_address] */\n      swap1\n      dup2\n      mstore\n        /* \"contracts/oracle.sol\":1302:1310  executor */\n      0x67\n        /* \"contracts/oracle.sol\":1302:1320  executor[_address] */\n      0x20\n      mstore\n      0x40\n      swap1\n      keccak256\n        /* \"contracts/oracle.sol\":1302:1328  executor[_address] = _type */\n      dup1\n      sload\n      dup3\n      iszero\n      iszero\n      not(0xff)\n      swap1\n      swap2\n      and\n      or\n      swap1\n      sstore\n      0x01\n        /* \"contracts/oracle.sol\":1196:1356  function _setExecutor(address _address, bool _type)... */\n      swap3\n      swap2\n      pop\n      pop\n      jump\t// out\n        /* \"@openzeppelin/contracts-upgradeable/access/OwnableUpgradeable.sol\":2536:2723  function _transferOwnership(address newOwner) internal virtual {... */\n    tag_82:\n        /* \"@openzeppelin/contracts-upgradeable/access/OwnableUpgradeable.sol\":2628:2634  _owner */\n      0x33\n      dup1\n      sload\n      sub(shl(0xa0, 0x01), 0x01)\n        /* \"@openzeppelin/contracts-upgradeable/access/OwnableUpgradeable.sol\":2644:2661  _owner = newOwner */\n      dup4\n      dup2\n      and\n      not(sub(shl(0xa0, 0x01), 0x01))\n      dup4\n      and\n      dup2\n      or\n      swap1\n      swap4\n      sstore\n        /* \"@openzeppelin/contracts-upgradeable/access/OwnableUpgradeable.sol\":2676:2716  OwnershipTransferred(oldOwner, newOwner) */\n      mload(0x40)\n        /* \"@openzeppelin/contracts-upgradeable/access/OwnableUpgradeable.sol\":2628:2634  _owner */\n      swap2\n      and\n      swap2\n        /* \"@openzeppelin/contracts-upgradeable/access/OwnableUpgradeable.sol\":2644:2661  _owner = newOwner */\n      swap1\n        /* \"@openzeppelin/contracts-upgradeable/access/OwnableUpgradeable.sol\":2628:2634  _owner */\n      dup3\n      swap1\n        /* \"@openzeppelin/contracts-upgradeable/access/OwnableUpgradeable.sol\":2676:2716  OwnershipTransferred(oldOwner, newOwner) */\n      0x8be0079c531659141344cd1fd0a4f28419497f9722a3daafe3b4186f6b6457e0\n      swap1\n        /* \"@openzeppelin/contracts-upgradeable/access/OwnableUpgradeable.sol\":2609:2625  address oldOwner */\n      0x00\n      swap1\n        /* \"@openzeppelin/contracts-upgradeable/access/OwnableUpgradeable.sol\":2676:2716  OwnershipTransferred(oldOwner, newOwner) */\n      log3\n        /* \"@openzeppelin/contracts-upgradeable/access/OwnableUpgradeable.sol\":2536:2723  function _transferOwnership(address newOwner) internal virtual {... */\n      pop\n      pop\n      jump\t// out\n        /* \"@openzeppelin/contracts/utils/cryptography/ECDSA.sol\":8040:8305  function toEthSignedMessageHash(bytes32 hash) internal pure returns (bytes32) {... */\n    tag_96:\n        /* \"@openzeppelin/contracts/utils/cryptography/ECDSA.sol\":8109:8116  bytes32 */\n      0x00\n        /* \"@openzeppelin/contracts/utils/cryptography/ECDSA.sol\":8292:8296  hash */\n      dup2\n        /* \"@openzeppelin/contracts/utils/cryptography/ECDSA.sol\":8239:8297  abi.encodePacked(\"\\x19Ethereum Signed Message:\\n32\", hash) */\n      add(0x20, mload(0x40))\n      tag_130\n      swap2\n      swap1\n      tag_131\n      jump\t// in\n    tag_130:\n      mload(0x40)\n      0x20\n      dup2\n      dup4\n      sub\n      sub\n      dup2\n      mstore\n      swap1\n      0x40\n      mstore\n        /* \"@openzeppelin/contracts/utils/cryptography/ECDSA.sol\":8229:8298  keccak256(abi.encodePacked(\"\\x19Ethereum Signed Message:\\n32\", hash)) */\n      dup1\n      mload\n      swap1\n      0x20\n      add\n      keccak256\n        /* \"@openzeppelin/contracts/utils/cryptography/ECDSA.sol\":8222:8298  return keccak256(abi.encodePacked(\"\\x19Ethereum Signed Message:\\n32\", hash)) */\n      swap1\n      pop\n        /* \"@openzeppelin/contracts/utils/cryptography/ECDSA.sol\":8040:8305  function toEthSignedMessageHash(bytes32 hash) internal pure returns (bytes32) {... */\n      swap2\n      swap1\n      pop\n      jump\t// out\n        /* \"@openzeppelin/contracts/utils/cryptography/ECDSA.sol\":4293:4520  function recover(bytes32 hash, bytes memory signature) internal pure returns (address) {... */\n    tag_97:\n        /* \"@openzeppelin/contracts/utils/cryptography/ECDSA.sol\":4371:4378  address */\n      0x00\n        /* \"@openzeppelin/contracts/utils/cryptography/ECDSA.sol\":4391:4408  address recovered */\n      dup1\n        /* \"@openzeppelin/contracts/utils/cryptography/ECDSA.sol\":4410:4428  RecoverError error */\n      0x00\n        /* \"@openzeppelin/contracts/utils/cryptography/ECDSA.sol\":4432:4459  tryRecover(hash, signature) */\n      tag_133\n        /* \"@openzeppelin/contracts/utils/cryptography/ECDSA.sol\":4443:4447  hash */\n      dup6\n        /* \"@openzeppelin/contracts/utils/cryptography/ECDSA.sol\":4449:4458  signature */\n      dup6\n        /* \"@openzeppelin/contracts/utils/cryptography/ECDSA.sol\":4432:4442  tryRecover */\n      tag_134\n        /* \"@openzeppelin/contracts/utils/cryptography/ECDSA.sol\":4432:4459  tryRecover(hash, signature) */\n      jump\t// in\n    tag_133:\n        /* \"@openzeppelin/contracts/utils/cryptography/ECDSA.sol\":4390:4459  (address recovered, RecoverError error) = tryRecover(hash, signature) */\n      swap2\n      pop\n      swap2\n      pop\n        /* \"@openzeppelin/contracts/utils/cryptography/ECDSA.sol\":4469:4487  _throwError(error) */\n      tag_135\n        /* \"@openzeppelin/contracts/utils/cryptography/ECDSA.sol\":4481:4486  error */\n      dup2\n        /* \"@openzeppelin/contracts/utils/cryptography/ECDSA.sol\":4469:4480  _throwError */\n      tag_136\n        /* \"@openzeppelin/contracts/utils/cryptography/ECDSA.sol\":4469:4487  _throwError(error) */\n      jump\t// in\n    tag_135:\n      pop\n        /* \"@openzeppelin/contracts/utils/cryptography/ECDSA.sol\":4504:4513  recovered */\n      swap4\n        /* \"@openzeppelin/contracts/utils/cryptography/ECDSA.sol\":4293:4520  function recover(bytes32 hash, bytes memory signature) internal pure returns (address) {... */\n      swap3\n      pop\n      pop\n      pop\n      jump\t// out\n        /* \"@openzeppelin/contracts-upgradeable/access/OwnableUpgradeable.sol\":988:1114  function __Ownable_init() internal initializer {... */\n    tag_107:\n        /* \"@openzeppelin/contracts-upgradeable/proxy/utils/Initializable.sol\":539:552  _initializing */\n      sload(0x00)\n      0x0100\n      swap1\n      div\n      0xff\n      and\n      dup1\n        /* \"@openzeppelin/contracts-upgradeable/proxy/utils/Initializable.sol\":539:569  _initializing || !_initialized */\n      tag_138\n      jumpi\n      pop\n        /* \"@openzeppelin/contracts-upgradeable/proxy/utils/Initializable.sol\":557:569  _initialized */\n      and(0xff, sload(0x00))\n        /* \"@openzeppelin/contracts-upgradeable/proxy/utils/Initializable.sol\":556:569  !_initialized */\n      iszero\n        /* \"@openzeppelin/contracts-upgradeable/proxy/utils/Initializable.sol\":539:569  _initializing || !_initialized */\n    tag_138:\n        /* \"@openzeppelin/contracts-upgradeable/proxy/utils/Initializable.sol\":531:620  require(_initializing || !_initialized, \"Initializable: contract is already initialized\") */\n      tag_139\n      jumpi\n      mload(0x40)\n      shl(0xe5, 0x461bcd)\n      dup2\n      mstore\n      0x04\n      add\n      tag_64\n      swap1\n      tag_103\n      jump\t// in\n    tag_139:\n        /* \"@openzeppelin/contracts-upgradeable/proxy/utils/Initializable.sol\":631:650  bool isTopLevelCall */\n      0x00\n        /* \"@openzeppelin/contracts-upgradeable/proxy/utils/Initializable.sol\":654:667  _initializing */\n      sload\n      0x0100\n      swap1\n      div\n      0xff\n      and\n        /* \"@openzeppelin/contracts-upgradeable/proxy/utils/Initializable.sol\":653:667  !_initializing */\n      iszero\n        /* \"@openzeppelin/contracts-upgradeable/proxy/utils/Initializable.sol\":677:775  if (isTopLevelCall) {... */\n      dup1\n      iszero\n      tag_141\n      jumpi\n        /* \"@openzeppelin/contracts-upgradeable/proxy/utils/Initializable.sol\":711:724  _initializing */\n      0x00\n        /* \"@openzeppelin/contracts-upgradeable/proxy/utils/Initializable.sol\":711:731  _initializing = true */\n      dup1\n      sload\n      not(0xff)\n      not(0xff00)\n      swap1\n      swap2\n      and\n      0x0100\n      or\n        /* \"@openzeppelin/contracts-upgradeable/proxy/utils/Initializable.sol\":745:764  _initialized = true */\n      and\n        /* \"@openzeppelin/contracts-upgradeable/proxy/utils/Initializable.sol\":727:731  true */\n      0x01\n        /* \"@openzeppelin/contracts-upgradeable/proxy/utils/Initializable.sol\":745:764  _initialized = true */\n      or\n      swap1\n      sstore\n        /* \"@openzeppelin/contracts-upgradeable/proxy/utils/Initializable.sol\":677:775  if (isTopLevelCall) {... */\n    tag_141:\n        /* \"@openzeppelin/contracts-upgradeable/access/OwnableUpgradeable.sol\":1045:1071  __Context_init_unchained() */\n      tag_143\n        /* \"@openzeppelin/contracts-upgradeable/access/OwnableUpgradeable.sol\":1045:1069  __Context_init_unchained */\n      tag_144\n        /* \"@openzeppelin/contracts-upgradeable/access/OwnableUpgradeable.sol\":1045:1071  __Context_init_unchained() */\n      jump\t// in\n    tag_143:\n        /* \"@openzeppelin/contracts-upgradeable/access/OwnableUpgradeable.sol\":1081:1107  __Ownable_init_unchained() */\n      tag_145\n        /* \"@openzeppelin/contracts-upgradeable/access/OwnableUpgradeable.sol\":1081:1105  __Ownable_init_unchained */\n      tag_146\n        /* \"@openzeppelin/contracts-upgradeable/access/OwnableUpgradeable.sol\":1081:1107  __Ownable_init_unchained() */\n      jump\t// in\n    tag_145:\n        /* \"@openzeppelin/contracts-upgradeable/proxy/utils/Initializable.sol\":801:815  isTopLevelCall */\n      dup1\n        /* \"@openzeppelin/contracts-upgradeable/proxy/utils/Initializable.sol\":797:863  if (isTopLevelCall) {... */\n      iszero\n      tag_125\n      jumpi\n        /* \"@openzeppelin/contracts-upgradeable/proxy/utils/Initializable.sol\":847:852  false */\n      0x00\n        /* \"@openzeppelin/contracts-upgradeable/proxy/utils/Initializable.sol\":831:852  _initializing = false */\n      dup1\n      sload\n      not(0xff00)\n      and\n      swap1\n      sstore\n        /* \"@openzeppelin/contracts-upgradeable/access/OwnableUpgradeable.sol\":988:1114  function __Ownable_init() internal initializer {... */\n      pop\n      jump\t// out\n        /* \"@openzeppelin/contracts/utils/cryptography/ECDSA.sol\":2228:3507  function tryRecover(bytes32 hash, bytes memory signature) internal pure returns (address, RecoverError) {... */\n    tag_134:\n        /* \"@openzeppelin/contracts/utils/cryptography/ECDSA.sol\":2309:2316  address */\n      0x00\n        /* \"@openzeppelin/contracts/utils/cryptography/ECDSA.sol\":2318:2330  RecoverError */\n      dup1\n        /* \"@openzeppelin/contracts/utils/cryptography/ECDSA.sol\":2539:2548  signature */\n      dup3\n        /* \"@openzeppelin/contracts/utils/cryptography/ECDSA.sol\":2539:2555  signature.length */\n      mload\n        /* \"@openzeppelin/contracts/utils/cryptography/ECDSA.sol\":2559:2561  65 */\n      0x41\n        /* \"@openzeppelin/contracts/utils/cryptography/ECDSA.sol\":2539:2561  signature.length == 65 */\n      eq\n        /* \"@openzeppelin/contracts/utils/cryptography/ECDSA.sol\":2535:3501  if (signature.length == 65) {... */\n      iszero\n      tag_149\n      jumpi\n        /* \"@openzeppelin/contracts/utils/cryptography/ECDSA.sol\":2828:2832  0x20 */\n      0x20\n        /* \"@openzeppelin/contracts/utils/cryptography/ECDSA.sol\":2813:2833  add(signature, 0x20) */\n      dup4\n      add\n        /* \"@openzeppelin/contracts/utils/cryptography/ECDSA.sol\":2807:2834  mload(add(signature, 0x20)) */\n      mload\n        /* \"@openzeppelin/contracts/utils/cryptography/ECDSA.sol\":2877:2881  0x40 */\n      0x40\n        /* \"@openzeppelin/contracts/utils/cryptography/ECDSA.sol\":2862:2882  add(signature, 0x40) */\n      dup5\n      add\n        /* \"@openzeppelin/contracts/utils/cryptography/ECDSA.sol\":2856:2883  mload(add(signature, 0x40)) */\n      mload\n        /* \"@openzeppelin/contracts/utils/cryptography/ECDSA.sol\":2934:2938  0x60 */\n      0x60\n        /* \"@openzeppelin/contracts/utils/cryptography/ECDSA.sol\":2919:2939  add(signature, 0x60) */\n      dup6\n      add\n        /* \"@openzeppelin/contracts/utils/cryptography/ECDSA.sol\":2913:2940  mload(add(signature, 0x60)) */\n      mload\n        /* \"@openzeppelin/contracts/utils/cryptography/ECDSA.sol\":2577:2586  bytes32 r */\n      0x00\n        /* \"@openzeppelin/contracts/utils/cryptography/ECDSA.sol\":2905:2941  byte(0, mload(add(signature, 0x60))) */\n      byte\n        /* \"@openzeppelin/contracts/utils/cryptography/ECDSA.sol\":2975:3000  tryRecover(hash, v, r, s) */\n      tag_150\n        /* \"@openzeppelin/contracts/utils/cryptography/ECDSA.sol\":2986:2990  hash */\n      dup8\n        /* \"@openzeppelin/contracts/utils/cryptography/ECDSA.sol\":2905:2941  byte(0, mload(add(signature, 0x60))) */\n      dup3\n        /* \"@openzeppelin/contracts/utils/cryptography/ECDSA.sol\":2807:2834  mload(add(signature, 0x20)) */\n      dup6\n        /* \"@openzeppelin/contracts/utils/cryptography/ECDSA.sol\":2856:2883  mload(add(signature, 0x40)) */\n      dup6\n        /* \"@openzeppelin/contracts/utils/cryptography/ECDSA.sol\":2975:2985  tryRecover */\n      tag_151\n        /* \"@openzeppelin/contracts/utils/cryptography/ECDSA.sol\":2975:3000  tryRecover(hash, v, r, s) */\n      jump\t// in\n    tag_150:\n        /* \"@openzeppelin/contracts/utils/cryptography/ECDSA.sol\":2968:3000  return tryRecover(hash, v, r, s) */\n      swap5\n      pop\n      swap5\n      pop\n      pop\n      pop\n      pop\n      jump(tag_156)\n        /* \"@openzeppelin/contracts/utils/cryptography/ECDSA.sol\":2535:3501  if (signature.length == 65) {... */\n    tag_149:\n        /* \"@openzeppelin/contracts/utils/cryptography/ECDSA.sol\":3021:3030  signature */\n      dup3\n        /* \"@openzeppelin/contracts/utils/cryptography/ECDSA.sol\":3021:3037  signature.length */\n      mload\n        /* \"@openzeppelin/contracts/utils/cryptography/ECDSA.sol\":3041:3043  64 */\n      0x40\n        /* \"@openzeppelin/contracts/utils/cryptography/ECDSA.sol\":3021:3043  signature.length == 64 */\n      eq\n        /* \"@openzeppelin/contracts/utils/cryptography/ECDSA.sol\":3017:3501  if (signature.length == 64) {... */\n      iszero\n      tag_153\n      jumpi\n        /* \"@openzeppelin/contracts/utils/cryptography/ECDSA.sol\":3290:3294  0x20 */\n      0x20\n        /* \"@openzeppelin/contracts/utils/cryptography/ECDSA.sol\":3275:3295  add(signature, 0x20) */\n      dup4\n      add\n        /* \"@openzeppelin/contracts/utils/cryptography/ECDSA.sol\":3269:3296  mload(add(signature, 0x20)) */\n      mload\n        /* \"@openzeppelin/contracts/utils/cryptography/ECDSA.sol\":3340:3344  0x40 */\n      0x40\n        /* \"@openzeppelin/contracts/utils/cryptography/ECDSA.sol\":3325:3345  add(signature, 0x40) */\n      dup5\n      add\n        /* \"@openzeppelin/contracts/utils/cryptography/ECDSA.sol\":3319:3346  mload(add(signature, 0x40)) */\n      mload\n        /* \"@openzeppelin/contracts/utils/cryptography/ECDSA.sol\":3380:3403  tryRecover(hash, r, vs) */\n      tag_154\n        /* \"@openzeppelin/contracts/utils/cryptography/ECDSA.sol\":3391:3395  hash */\n      dup7\n        /* \"@openzeppelin/contracts/utils/cryptography/ECDSA.sol\":3269:3296  mload(add(signature, 0x20)) */\n      dup4\n        /* \"@openzeppelin/contracts/utils/cryptography/ECDSA.sol\":3319:3346  mload(add(signature, 0x40)) */\n      dup4\n        /* \"@openzeppelin/contracts/utils/cryptography/ECDSA.sol\":3380:3390  tryRecover */\n      tag_155\n        /* \"@openzeppelin/contracts/utils/cryptography/ECDSA.sol\":3380:3403  tryRecover(hash, r, vs) */\n      jump\t// in\n    tag_154:\n        /* \"@openzeppelin/contracts/utils/cryptography/ECDSA.sol\":3373:3403  return tryRecover(hash, r, vs) */\n      swap4\n      pop\n      swap4\n      pop\n      pop\n      pop\n      jump(tag_156)\n        /* \"@openzeppelin/contracts/utils/cryptography/ECDSA.sol\":3017:3501  if (signature.length == 64) {... */\n    tag_153:\n      pop\n        /* \"@openzeppelin/contracts/utils/cryptography/ECDSA.sol\":3450:3451  0 */\n      0x00\n      swap1\n      pop\n        /* \"@openzeppelin/contracts/utils/cryptography/ECDSA.sol\":3454:3489  RecoverError.InvalidSignatureLength */\n      0x02\n        /* \"@openzeppelin/contracts/utils/cryptography/ECDSA.sol\":3017:3501  if (signature.length == 64) {... */\n    tag_156:\n        /* \"@openzeppelin/contracts/utils/cryptography/ECDSA.sol\":2228:3507  function tryRecover(bytes32 hash, bytes memory signature) internal pure returns (address, RecoverError) {... */\n      swap3\n      pop\n      swap3\n      swap1\n      pop\n      jump\t// out\n        /* \"@openzeppelin/contracts/utils/cryptography/ECDSA.sol\":533:1164  function _throwError(RecoverError error) private pure {... */\n    tag_136:\n        /* \"@openzeppelin/contracts/utils/cryptography/ECDSA.sol\":610:630  RecoverError.NoError */\n      0x00\n        /* \"@openzeppelin/contracts/utils/cryptography/ECDSA.sol\":601:606  error */\n      dup2\n        /* \"@openzeppelin/contracts/utils/cryptography/ECDSA.sol\":601:630  error == RecoverError.NoError */\n      0x04\n      dup2\n      gt\n      iszero\n      tag_159\n      jumpi\n      mstore(0x00, shl(0xe0, 0x4e487b71))\n      mstore(0x04, 0x21)\n      revert(0x00, 0x24)\n    tag_159:\n      eq\n        /* \"@openzeppelin/contracts/utils/cryptography/ECDSA.sol\":597:1158  if (error == RecoverError.NoError) {... */\n      iszero\n      tag_160\n      jumpi\n        /* \"@openzeppelin/contracts/utils/cryptography/ECDSA.sol\":646:653  return; */\n      jump(tag_125)\n        /* \"@openzeppelin/contracts/utils/cryptography/ECDSA.sol\":597:1158  if (error == RecoverError.NoError) {... */\n    tag_160:\n        /* \"@openzeppelin/contracts/utils/cryptography/ECDSA.sol\":706:735  RecoverError.InvalidSignature */\n      0x01\n        /* \"@openzeppelin/contracts/utils/cryptography/ECDSA.sol\":697:702  error */\n      dup2\n        /* \"@openzeppelin/contracts/utils/cryptography/ECDSA.sol\":697:735  error == RecoverError.InvalidSignature */\n      0x04\n      dup2\n      gt\n      iszero\n      tag_163\n      jumpi\n      mstore(0x00, shl(0xe0, 0x4e487b71))\n      mstore(0x04, 0x21)\n      revert(0x00, 0x24)\n    tag_163:\n      eq\n        /* \"@openzeppelin/contracts/utils/cryptography/ECDSA.sol\":693:1158  if (error == RecoverError.InvalidSignature) {... */\n      iszero\n      tag_164\n      jumpi\n        /* \"@openzeppelin/contracts/utils/cryptography/ECDSA.sol\":751:785  revert(\"ECDSA: invalid signature\") */\n      mload(0x40)\n      shl(0xe5, 0x461bcd)\n      dup2\n      mstore\n      0x04\n      add\n      tag_64\n      swap1\n      tag_166\n      jump\t// in\n        /* \"@openzeppelin/contracts/utils/cryptography/ECDSA.sol\":693:1158  if (error == RecoverError.InvalidSignature) {... */\n    tag_164:\n        /* \"@openzeppelin/contracts/utils/cryptography/ECDSA.sol\":815:850  RecoverError.InvalidSignatureLength */\n      0x02\n        /* \"@openzeppelin/contracts/utils/cryptography/ECDSA.sol\":806:811  error */\n      dup2\n        /* \"@openzeppelin/contracts/utils/cryptography/ECDSA.sol\":806:850  error == RecoverError.InvalidSignatureLength */\n      0x04\n      dup2\n      gt\n      iszero\n      tag_169\n      jumpi\n      mstore(0x00, shl(0xe0, 0x4e487b71))\n      mstore(0x04, 0x21)\n      revert(0x00, 0x24)\n    tag_169:\n      eq\n        /* \"@openzeppelin/contracts/utils/cryptography/ECDSA.sol\":802:1158  if (error == RecoverError.InvalidSignatureLength) {... */\n      iszero\n      tag_170\n      jumpi\n        /* \"@openzeppelin/contracts/utils/cryptography/ECDSA.sol\":866:907  revert(\"ECDSA: invalid signature length\") */\n      mload(0x40)\n      shl(0xe5, 0x461bcd)\n      dup2\n      mstore\n      0x04\n      add\n      tag_64\n      swap1\n      tag_172\n      jump\t// in\n        /* \"@openzeppelin/contracts/utils/cryptography/ECDSA.sol\":802:1158  if (error == RecoverError.InvalidSignatureLength) {... */\n    tag_170:\n        /* \"@openzeppelin/contracts/utils/cryptography/ECDSA.sol\":937:967  RecoverError.InvalidSignatureS */\n      0x03\n        /* \"@openzeppelin/contracts/utils/cryptography/ECDSA.sol\":928:933  error */\n      dup2\n        /* \"@openzeppelin/contracts/utils/cryptography/ECDSA.sol\":928:967  error == RecoverError.InvalidSignatureS */\n      0x04\n      dup2\n      gt\n      iszero\n      tag_175\n      jumpi\n      mstore(0x00, shl(0xe0, 0x4e487b71))\n      mstore(0x04, 0x21)\n      revert(0x00, 0x24)\n    tag_175:\n      eq\n        /* \"@openzeppelin/contracts/utils/cryptography/ECDSA.sol\":924:1158  if (error == RecoverError.InvalidSignatureS) {... */\n      iszero\n      tag_176\n      jumpi\n        /* \"@openzeppelin/contracts/utils/cryptography/ECDSA.sol\":983:1027  revert(\"ECDSA: invalid signature 's' value\") */\n      mload(0x40)\n      shl(0xe5, 0x461bcd)\n      dup2\n      mstore\n      0x04\n      add\n      tag_64\n      swap1\n      tag_178\n      jump\t// in\n        /* \"@openzeppelin/contracts/utils/cryptography/ECDSA.sol\":924:1158  if (error == RecoverError.InvalidSignatureS) {... */\n    tag_176:\n        /* \"@openzeppelin/contracts/utils/cryptography/ECDSA.sol\":1057:1087  RecoverError.InvalidSignatureV */\n      0x04\n        /* \"@openzeppelin/contracts/utils/cryptography/ECDSA.sol\":1048:1053  error */\n      dup2\n        /* \"@openzeppelin/contracts/utils/cryptography/ECDSA.sol\":1048:1087  error == RecoverError.InvalidSignatureV */\n      0x04\n      dup2\n      gt\n      iszero\n      tag_181\n      jumpi\n      mstore(0x00, shl(0xe0, 0x4e487b71))\n      mstore(0x04, 0x21)\n      revert(0x00, 0x24)\n    tag_181:\n      eq\n        /* \"@openzeppelin/contracts/utils/cryptography/ECDSA.sol\":1044:1158  if (error == RecoverError.InvalidSignatureV) {... */\n      iszero\n      tag_125\n      jumpi\n        /* \"@openzeppelin/contracts/utils/cryptography/ECDSA.sol\":1103:1147  revert(\"ECDSA: invalid signature 'v' value\") */\n      mload(0x40)\n      shl(0xe5, 0x461bcd)\n      dup2\n      mstore\n      0x04\n      add\n      tag_64\n      swap1\n      tag_184\n      jump\t// in\n        /* \"@openzeppelin/contracts-upgradeable/utils/ContextUpgradeable.sol\":807:871  function __Context_init_unchained() internal initializer {... */\n    tag_144:\n        /* \"@openzeppelin/contracts-upgradeable/proxy/utils/Initializable.sol\":539:552  _initializing */\n      sload(0x00)\n      0x0100\n      swap1\n      div\n      0xff\n      and\n      dup1\n        /* \"@openzeppelin/contracts-upgradeable/proxy/utils/Initializable.sol\":539:569  _initializing || !_initialized */\n      tag_186\n      jumpi\n      pop\n        /* \"@openzeppelin/contracts-upgradeable/proxy/utils/Initializable.sol\":557:569  _initialized */\n      and(0xff, sload(0x00))\n        /* \"@openzeppelin/contracts-upgradeable/proxy/utils/Initializable.sol\":556:569  !_initialized */\n      iszero\n        /* \"@openzeppelin/contracts-upgradeable/proxy/utils/Initializable.sol\":539:569  _initializing || !_initialized */\n    tag_186:\n        /* \"@openzeppelin/contracts-upgradeable/proxy/utils/Initializable.sol\":531:620  require(_initializing || !_initialized, \"Initializable: contract is already initialized\") */\n      tag_187\n      jumpi\n      mload(0x40)\n      shl(0xe5, 0x461bcd)\n      dup2\n      mstore\n      0x04\n      add\n      tag_64\n      swap1\n      tag_103\n      jump\t// in\n    tag_187:\n        /* \"@openzeppelin/contracts-upgradeable/proxy/utils/Initializable.sol\":631:650  bool isTopLevelCall */\n      0x00\n        /* \"@openzeppelin/contracts-upgradeable/proxy/utils/Initializable.sol\":654:667  _initializing */\n      sload\n      0x0100\n      swap1\n      div\n      0xff\n      and\n        /* \"@openzeppelin/contracts-upgradeable/proxy/utils/Initializable.sol\":653:667  !_initializing */\n      iszero\n        /* \"@openzeppelin/contracts-upgradeable/proxy/utils/Initializable.sol\":677:775  if (isTopLevelCall) {... */\n      dup1\n      iszero\n      tag_145\n      jumpi\n        /* \"@openzeppelin/contracts-upgradeable/proxy/utils/Initializable.sol\":711:724  _initializing */\n      0x00\n        /* \"@openzeppelin/contracts-upgradeable/proxy/utils/Initializable.sol\":711:731  _initializing = true */\n      dup1\n      sload\n      not(0xff)\n      not(0xff00)\n      swap1\n      swap2\n      and\n      0x0100\n      or\n        /* \"@openzeppelin/contracts-upgradeable/proxy/utils/Initializable.sol\":745:764  _initialized = true */\n      and\n        /* \"@openzeppelin/contracts-upgradeable/proxy/utils/Initializable.sol\":727:731  true */\n      0x01\n        /* \"@openzeppelin/contracts-upgradeable/proxy/utils/Initializable.sol\":745:764  _initialized = true */\n      or\n      swap1\n      sstore\n        /* \"@openzeppelin/contracts-upgradeable/proxy/utils/Initializable.sol\":801:815  isTopLevelCall */\n      dup1\n        /* \"@openzeppelin/contracts-upgradeable/proxy/utils/Initializable.sol\":797:863  if (isTopLevelCall) {... */\n      iszero\n      tag_125\n      jumpi\n        /* \"@openzeppelin/contracts-upgradeable/proxy/utils/Initializable.sol\":847:852  false */\n      0x00\n        /* \"@openzeppelin/contracts-upgradeable/proxy/utils/Initializable.sol\":831:852  _initializing = false */\n      dup1\n      sload\n      not(0xff00)\n      and\n      swap1\n      sstore\n        /* \"@openzeppelin/contracts-upgradeable/utils/ContextUpgradeable.sol\":807:871  function __Context_init_unchained() internal initializer {... */\n      pop\n      jump\t// out\n        /* \"@openzeppelin/contracts-upgradeable/access/OwnableUpgradeable.sol\":1120:1226  function __Ownable_init_unchained() internal initializer {... */\n    tag_146:\n        /* \"@openzeppelin/contracts-upgradeable/proxy/utils/Initializable.sol\":539:552  _initializing */\n      sload(0x00)\n      0x0100\n      swap1\n      div\n      0xff\n      and\n      dup1\n        /* \"@openzeppelin/contracts-upgradeable/proxy/utils/Initializable.sol\":539:569  _initializing || !_initialized */\n      tag_193\n      jumpi\n      pop\n        /* \"@openzeppelin/contracts-upgradeable/proxy/utils/Initializable.sol\":557:569  _initialized */\n      and(0xff, sload(0x00))\n        /* \"@openzeppelin/contracts-upgradeable/proxy/utils/Initializable.sol\":556:569  !_initialized */\n      iszero\n        /* \"@openzeppelin/contracts-upgradeable/proxy/utils/Initializable.sol\":539:569  _initializing || !_initialized */\n    tag_193:\n        /* \"@openzeppelin/contracts-upgradeable/proxy/utils/Initializable.sol\":531:620  require(_initializing || !_initialized, \"Initializable: contract is already initialized\") */\n      tag_194\n      jumpi\n      mload(0x40)\n      shl(0xe5, 0x461bcd)\n      dup2\n      mstore\n      0x04\n      add\n      tag_64\n      swap1\n      tag_103\n      jump\t// in\n    tag_194:\n        /* \"@openzeppelin/contracts-upgradeable/proxy/utils/Initializable.sol\":631:650  bool isTopLevelCall */\n      0x00\n        /* \"@openzeppelin/contracts-upgradeable/proxy/utils/Initializable.sol\":654:667  _initializing */\n      sload\n      0x0100\n      swap1\n      div\n      0xff\n      and\n        /* \"@openzeppelin/contracts-upgradeable/proxy/utils/Initializable.sol\":653:667  !_initializing */\n      iszero\n        /* \"@openzeppelin/contracts-upgradeable/proxy/utils/Initializable.sol\":677:775  if (isTopLevelCall) {... */\n      dup1\n      iszero\n      tag_196\n      jumpi\n        /* \"@openzeppelin/contracts-upgradeable/proxy/utils/Initializable.sol\":711:724  _initializing */\n      0x00\n        /* \"@openzeppelin/contracts-upgradeable/proxy/utils/Initializable.sol\":711:731  _initializing = true */\n      dup1\n      sload\n      not(0xff)\n      not(0xff00)\n      swap1\n      swap2\n      and\n      0x0100\n      or\n        /* \"@openzeppelin/contracts-upgradeable/proxy/utils/Initializable.sol\":745:764  _initialized = true */\n      and\n        /* \"@openzeppelin/contracts-upgradeable/proxy/utils/Initializable.sol\":727:731  true */\n      0x01\n        /* \"@openzeppelin/contracts-upgradeable/proxy/utils/Initializable.sol\":745:764  _initialized = true */\n      or\n      swap1\n      sstore\n        /* \"@openzeppelin/contracts-upgradeable/proxy/utils/Initializable.sol\":677:775  if (isTopLevelCall) {... */\n    tag_196:\n        /* \"@openzeppelin/contracts-upgradeable/access/OwnableUpgradeable.sol\":1187:1219  _transferOwnership(_msgSender()) */\n      tag_145\n        /* \"@openzeppelin/contracts-upgradeable/access/OwnableUpgradeable.sol\":1206:1218  _msgSender() */\n      tag_199\n        /* \"@openzeppelin/contracts-upgradeable/access/OwnableUpgradeable.sol\":1206:1216  _msgSender */\n      tag_61\n        /* \"@openzeppelin/contracts-upgradeable/access/OwnableUpgradeable.sol\":1206:1218  _msgSender() */\n      jump\t// in\n    tag_199:\n        /* \"@openzeppelin/contracts-upgradeable/access/OwnableUpgradeable.sol\":1187:1205  _transferOwnership */\n      tag_82\n        /* \"@openzeppelin/contracts-upgradeable/access/OwnableUpgradeable.sol\":1187:1219  _transferOwnership(_msgSender()) */\n      jump\t// in\n        /* \"@openzeppelin/contracts/utils/cryptography/ECDSA.sol\":5744:7347  function tryRecover(... */\n    tag_151:\n        /* \"@openzeppelin/contracts/utils/cryptography/ECDSA.sol\":5870:5877  address */\n      0x00\n      dup1\n        /* \"@openzeppelin/contracts/utils/cryptography/ECDSA.sol\":6794:6860  0x7FFFFFFFFFFFFFFFFFFFFFFFFFFFFFFF5D576E7357A4501DDFE92F46681B20A0 */\n      0x7fffffffffffffffffffffffffffffff5d576e7357a4501ddfe92f46681b20a0\n        /* \"@openzeppelin/contracts/utils/cryptography/ECDSA.sol\":6781:6860  uint256(s) > 0x7FFFFFFFFFFFFFFFFFFFFFFFFFFFFFFF5D576E7357A4501DDFE92F46681B20A0 */\n      dup4\n      gt\n        /* \"@openzeppelin/contracts/utils/cryptography/ECDSA.sol\":6777:6938  if (uint256(s) > 0x7FFFFFFFFFFFFFFFFFFFFFFFFFFFFFFF5D576E7357A4501DDFE92F46681B20A0) {... */\n      iszero\n      tag_202\n      jumpi\n      pop\n        /* \"@openzeppelin/contracts/utils/cryptography/ECDSA.sol\":6892:6893  0 */\n      0x00\n      swap1\n      pop\n        /* \"@openzeppelin/contracts/utils/cryptography/ECDSA.sol\":6896:6926  RecoverError.InvalidSignatureS */\n      0x03\n        /* \"@openzeppelin/contracts/utils/cryptography/ECDSA.sol\":6876:6927  return (address(0), RecoverError.InvalidSignatureS) */\n      jump(tag_201)\n        /* \"@openzeppelin/contracts/utils/cryptography/ECDSA.sol\":6777:6938  if (uint256(s) > 0x7FFFFFFFFFFFFFFFFFFFFFFFFFFFFFFF5D576E7357A4501DDFE92F46681B20A0) {... */\n    tag_202:\n        /* \"@openzeppelin/contracts/utils/cryptography/ECDSA.sol\":6951:6952  v */\n      dup5\n        /* \"@openzeppelin/contracts/utils/cryptography/ECDSA.sol\":6951:6958  v != 27 */\n      0xff\n      and\n        /* \"@openzeppelin/contracts/utils/cryptography/ECDSA.sol\":6956:6958  27 */\n      0x1b\n        /* \"@openzeppelin/contracts/utils/cryptography/ECDSA.sol\":6951:6958  v != 27 */\n      eq\n      iszero\n        /* \"@openzeppelin/contracts/utils/cryptography/ECDSA.sol\":6951:6969  v != 27 && v != 28 */\n      dup1\n      iszero\n      tag_203\n      jumpi\n      pop\n        /* \"@openzeppelin/contracts/utils/cryptography/ECDSA.sol\":6962:6963  v */\n      dup5\n        /* \"@openzeppelin/contracts/utils/cryptography/ECDSA.sol\":6962:6969  v != 28 */\n      0xff\n      and\n        /* \"@openzeppelin/contracts/utils/cryptography/ECDSA.sol\":6967:6969  28 */\n      0x1c\n        /* \"@openzeppelin/contracts/utils/cryptography/ECDSA.sol\":6962:6969  v != 28 */\n      eq\n      iszero\n        /* \"@openzeppelin/contracts/utils/cryptography/ECDSA.sol\":6951:6969  v != 27 && v != 28 */\n    tag_203:\n        /* \"@openzeppelin/contracts/utils/cryptography/ECDSA.sol\":6947:7047  if (v != 27 && v != 28) {... */\n      iszero\n      tag_204\n      jumpi\n      pop\n        /* \"@openzeppelin/contracts/utils/cryptography/ECDSA.sol\":7001:7002  0 */\n      0x00\n      swap1\n      pop\n        /* \"@openzeppelin/contracts/utils/cryptography/ECDSA.sol\":7005:7035  RecoverError.InvalidSignatureV */\n      0x04\n        /* \"@openzeppelin/contracts/utils/cryptography/ECDSA.sol\":6985:7036  return (address(0), RecoverError.InvalidSignatureV) */\n      jump(tag_201)\n        /* \"@openzeppelin/contracts/utils/cryptography/ECDSA.sol\":6947:7047  if (v != 27 && v != 28) {... */\n    tag_204:\n        /* \"@openzeppelin/contracts/utils/cryptography/ECDSA.sol\":7141:7155  address signer */\n      0x00\n        /* \"@openzeppelin/contracts/utils/cryptography/ECDSA.sol\":7158:7182  ecrecover(hash, v, r, s) */\n      0x01\n        /* \"@openzeppelin/contracts/utils/cryptography/ECDSA.sol\":7168:7172  hash */\n      dup8\n        /* \"@openzeppelin/contracts/utils/cryptography/ECDSA.sol\":7174:7175  v */\n      dup8\n        /* \"@openzeppelin/contracts/utils/cryptography/ECDSA.sol\":7177:7178  r */\n      dup8\n        /* \"@openzeppelin/contracts/utils/cryptography/ECDSA.sol\":7180:7181  s */\n      dup8\n        /* \"@openzeppelin/contracts/utils/cryptography/ECDSA.sol\":7158:7182  ecrecover(hash, v, r, s) */\n      mload(0x40)\n      0x00\n      dup2\n      mstore\n      0x20\n      add\n      0x40\n      mstore\n      mload(0x40)\n      tag_205\n      swap5\n      swap4\n      swap3\n      swap2\n      swap1\n      tag_206\n      jump\t// in\n    tag_205:\n      0x20\n      mload(0x40)\n      0x20\n      dup2\n      sub\n      swap1\n      dup1\n      dup5\n      sub\n      swap1\n      dup6\n      gas\n      staticcall\n      iszero\n      dup1\n      iszero\n      tag_208\n      jumpi\n      returndatasize\n      0x00\n      dup1\n      returndatacopy\n      revert(0x00, returndatasize)\n    tag_208:\n      pop\n      pop\n      mload(add(not(0x1f), mload(0x40)))\n      swap2\n      pop\n      pop\n      sub(shl(0xa0, 0x01), 0x01)\n        /* \"@openzeppelin/contracts/utils/cryptography/ECDSA.sol\":7196:7216  signer == address(0) */\n      dup2\n      and\n        /* \"@openzeppelin/contracts/utils/cryptography/ECDSA.sol\":7192:7293  if (signer == address(0)) {... */\n      tag_209\n      jumpi\n        /* \"@openzeppelin/contracts/utils/cryptography/ECDSA.sol\":7248:7249  0 */\n      0x00\n        /* \"@openzeppelin/contracts/utils/cryptography/ECDSA.sol\":7252:7281  RecoverError.InvalidSignature */\n      0x01\n        /* \"@openzeppelin/contracts/utils/cryptography/ECDSA.sol\":7232:7282  return (address(0), RecoverError.InvalidSignature) */\n      swap3\n      pop\n      swap3\n      pop\n      pop\n      jump(tag_201)\n        /* \"@openzeppelin/contracts/utils/cryptography/ECDSA.sol\":7192:7293  if (signer == address(0)) {... */\n    tag_209:\n        /* \"@openzeppelin/contracts/utils/cryptography/ECDSA.sol\":7311:7317  signer */\n      swap2\n      pop\n        /* \"@openzeppelin/contracts/utils/cryptography/ECDSA.sol\":7319:7339  RecoverError.NoError */\n      0x00\n      swap1\n      pop\n        /* \"@openzeppelin/contracts/utils/cryptography/ECDSA.sol\":5744:7347  function tryRecover(... */\n    tag_201:\n      swap5\n      pop\n      swap5\n      swap3\n      pop\n      pop\n      pop\n      jump\t// out\n        /* \"@openzeppelin/contracts/utils/cryptography/ECDSA.sol\":4774:5153  function tryRecover(... */\n    tag_155:\n        /* \"@openzeppelin/contracts/utils/cryptography/ECDSA.sol\":4884:4891  address */\n      0x00\n      dup1\n      sub(shl(0xff, 0x01), 0x01)\n        /* \"@openzeppelin/contracts/utils/cryptography/ECDSA.sol\":4981:5056  and(vs, 0x7fffffffffffffffffffffffffffffffffffffffffffffffffffffffffffffff) */\n      dup4\n      and\n        /* \"@openzeppelin/contracts/utils/cryptography/ECDSA.sol\":5082:5085  255 */\n      0xff\n        /* \"@openzeppelin/contracts/utils/cryptography/ECDSA.sol\":5078:5090  shr(255, vs) */\n      dup5\n      swap1\n      shr\n        /* \"@openzeppelin/contracts/utils/cryptography/ECDSA.sol\":5092:5094  27 */\n      0x1b\n        /* \"@openzeppelin/contracts/utils/cryptography/ECDSA.sol\":5074:5095  add(shr(255, vs), 27) */\n      add\n        /* \"@openzeppelin/contracts/utils/cryptography/ECDSA.sol\":5121:5146  tryRecover(hash, v, r, s) */\n      tag_211\n        /* \"@openzeppelin/contracts/utils/cryptography/ECDSA.sol\":5132:5136  hash */\n      dup8\n        /* \"@openzeppelin/contracts/utils/cryptography/ECDSA.sol\":5074:5095  add(shr(255, vs), 27) */\n      dup3\n        /* \"@openzeppelin/contracts/utils/cryptography/ECDSA.sol\":5141:5142  r */\n      dup9\n        /* \"@openzeppelin/contracts/utils/cryptography/ECDSA.sol\":4981:5056  and(vs, 0x7fffffffffffffffffffffffffffffffffffffffffffffffffffffffffffffff) */\n      dup6\n        /* \"@openzeppelin/contracts/utils/cryptography/ECDSA.sol\":5121:5131  tryRecover */\n      tag_151\n        /* \"@openzeppelin/contracts/utils/cryptography/ECDSA.sol\":5121:5146  tryRecover(hash, v, r, s) */\n      jump\t// in\n    tag_211:\n        /* \"@openzeppelin/contracts/utils/cryptography/ECDSA.sol\":5114:5146  return tryRecover(hash, v, r, s) */\n      swap4\n      pop\n      swap4\n      pop\n      pop\n      pop\n        /* \"@openzeppelin/contracts/utils/cryptography/ECDSA.sol\":4774:5153  function tryRecover(... */\n      swap4\n      pop\n      swap4\n      swap2\n      pop\n      pop\n      jump\t// out\n        /* \"#utility.yul\":14:621   */\n    tag_213:\n      0x00\n        /* \"#utility.yul\":110:128   */\n      0xffffffffffffffff\n        /* \"#utility.yul\":151:153   */\n      dup1\n        /* \"#utility.yul\":143:149   */\n      dup5\n        /* \"#utility.yul\":140:154   */\n      gt\n        /* \"#utility.yul\":137:139   */\n      iszero\n      tag_216\n      jumpi\n        /* \"#utility.yul\":157:175   */\n      tag_216\n      tag_217\n      jump\t// in\n    tag_216:\n        /* \"#utility.yul\":206:208   */\n      0x40\n        /* \"#utility.yul\":200:209   */\n      mload\n        /* \"#utility.yul\":279:281   */\n      0x1f\n        /* \"#utility.yul\":256:273   */\n      dup6\n      add\n      not(0x1f)\n        /* \"#utility.yul\":252:283   */\n      and\n        /* \"#utility.yul\":240:284   */\n      dup2\n      add\n        /* \"#utility.yul\":286:290   */\n      0x20\n        /* \"#utility.yul\":236:291   */\n      add\n        /* \"#utility.yul\":306:324   */\n      dup3\n      dup2\n      gt\n        /* \"#utility.yul\":326:348   */\n      dup3\n      dup3\n      lt\n        /* \"#utility.yul\":303:349   */\n      or\n        /* \"#utility.yul\":300:302   */\n      iszero\n      tag_219\n      jumpi\n        /* \"#utility.yul\":352:370   */\n      tag_219\n      tag_217\n      jump\t// in\n    tag_219:\n        /* \"#utility.yul\":388:390   */\n      0x40\n        /* \"#utility.yul\":381:403   */\n      mstore\n        /* \"#utility.yul\":436:458   */\n      dup5\n      dup2\n      mstore\n        /* \"#utility.yul\":421:427   */\n      swap2\n      pop\n      dup2\n        /* \"#utility.yul\":473:489   */\n      dup4\n      dup6\n      add\n        /* \"#utility.yul\":470:495   */\n      dup7\n      lt\n        /* \"#utility.yul\":467:469   */\n      iszero\n      tag_220\n      jumpi\n        /* \"#utility.yul\":508:509   */\n      0x00\n        /* \"#utility.yul\":505:506   */\n      dup1\n        /* \"#utility.yul\":498:510   */\n      revert\n        /* \"#utility.yul\":467:469   */\n    tag_220:\n        /* \"#utility.yul\":558:564   */\n      dup5\n        /* \"#utility.yul\":553:556   */\n      dup5\n        /* \"#utility.yul\":546:550   */\n      0x20\n        /* \"#utility.yul\":538:544   */\n      dup4\n        /* \"#utility.yul\":534:551   */\n      add\n        /* \"#utility.yul\":521:565   */\n      calldatacopy\n        /* \"#utility.yul\":613:614   */\n      0x00\n        /* \"#utility.yul\":606:610   */\n      0x20\n        /* \"#utility.yul\":597:603   */\n      dup7\n        /* \"#utility.yul\":589:595   */\n      dup4\n        /* \"#utility.yul\":585:604   */\n      add\n        /* \"#utility.yul\":581:611   */\n      add\n        /* \"#utility.yul\":574:615   */\n      mstore\n      pop\n      pop\n        /* \"#utility.yul\":90:621   */\n      swap4\n      swap3\n      pop\n      pop\n      pop\n      jump\t// out\n        /* \"#utility.yul\":626:801   */\n    tag_221:\n        /* \"#utility.yul\":696:716   */\n      dup1\n      calldataload\n      sub(shl(0xa0, 0x01), 0x01)\n        /* \"#utility.yul\":745:776   */\n      dup2\n      and\n        /* \"#utility.yul\":735:777   */\n      dup2\n      eq\n        /* \"#utility.yul\":725:727   */\n      tag_74\n      jumpi\n        /* \"#utility.yul\":791:792   */\n      0x00\n        /* \"#utility.yul\":788:789   */\n      dup1\n        /* \"#utility.yul\":781:793   */\n      revert\n        /* \"#utility.yul\":806:1004   */\n    tag_27:\n      0x00\n        /* \"#utility.yul\":918:920   */\n      0x20\n        /* \"#utility.yul\":906:915   */\n      dup3\n        /* \"#utility.yul\":897:904   */\n      dup5\n        /* \"#utility.yul\":893:916   */\n      sub\n        /* \"#utility.yul\":889:921   */\n      slt\n        /* \"#utility.yul\":886:888   */\n      iszero\n      tag_225\n      jumpi\n        /* \"#utility.yul\":939:945   */\n      dup1\n        /* \"#utility.yul\":931:937   */\n      dup2\n        /* \"#utility.yul\":924:946   */\n      revert\n        /* \"#utility.yul\":886:888   */\n    tag_225:\n        /* \"#utility.yul\":967:998   */\n      tag_67\n        /* \"#utility.yul\":988:997   */\n      dup3\n        /* \"#utility.yul\":967:998   */\n      tag_221\n      jump\t// in\n        /* \"#utility.yul\":1009:1378   */\n    tag_17:\n      0x00\n      dup1\n        /* \"#utility.yul\":1135:1137   */\n      0x40\n        /* \"#utility.yul\":1123:1132   */\n      dup4\n        /* \"#utility.yul\":1114:1121   */\n      dup6\n        /* \"#utility.yul\":1110:1133   */\n      sub\n        /* \"#utility.yul\":1106:1138   */\n      slt\n        /* \"#utility.yul\":1103:1105   */\n      iszero\n      tag_228\n      jumpi\n        /* \"#utility.yul\":1156:1162   */\n      dup1\n        /* \"#utility.yul\":1148:1154   */\n      dup2\n        /* \"#utility.yul\":1141:1163   */\n      revert\n        /* \"#utility.yul\":1103:1105   */\n    tag_228:\n        /* \"#utility.yul\":1184:1215   */\n      tag_229\n        /* \"#utility.yul\":1205:1214   */\n      dup4\n        /* \"#utility.yul\":1184:1215   */\n      tag_221\n      jump\t// in\n    tag_229:\n        /* \"#utility.yul\":1174:1215   */\n      swap2\n      pop\n        /* \"#utility.yul\":1265:1267   */\n      0x20\n        /* \"#utility.yul\":1254:1263   */\n      dup4\n        /* \"#utility.yul\":1250:1268   */\n      add\n        /* \"#utility.yul\":1237:1269   */\n      calldataload\n        /* \"#utility.yul\":1312:1317   */\n      dup1\n        /* \"#utility.yul\":1305:1318   */\n      iszero\n        /* \"#utility.yul\":1298:1319   */\n      iszero\n        /* \"#utility.yul\":1291:1296   */\n      dup2\n        /* \"#utility.yul\":1288:1320   */\n      eq\n        /* \"#utility.yul\":1278:1280   */\n      tag_230\n      jumpi\n        /* \"#utility.yul\":1339:1345   */\n      dup2\n        /* \"#utility.yul\":1331:1337   */\n      dup3\n        /* \"#utility.yul\":1324:1346   */\n      revert\n        /* \"#utility.yul\":1278:1280   */\n    tag_230:\n        /* \"#utility.yul\":1367:1372   */\n      dup1\n        /* \"#utility.yul\":1357:1372   */\n      swap2\n      pop\n      pop\n        /* \"#utility.yul\":1093:1378   */\n      swap3\n      pop\n      swap3\n      swap1\n      pop\n      jump\t// out\n        /* \"#utility.yul\":1383:1573   */\n    tag_53:\n      0x00\n        /* \"#utility.yul\":1495:1497   */\n      0x20\n        /* \"#utility.yul\":1483:1492   */\n      dup3\n        /* \"#utility.yul\":1474:1481   */\n      dup5\n        /* \"#utility.yul\":1470:1493   */\n      sub\n        /* \"#utility.yul\":1466:1498   */\n      slt\n        /* \"#utility.yul\":1463:1465   */\n      iszero\n      tag_232\n      jumpi\n        /* \"#utility.yul\":1516:1522   */\n      dup1\n        /* \"#utility.yul\":1508:1514   */\n      dup2\n        /* \"#utility.yul\":1501:1523   */\n      revert\n        /* \"#utility.yul\":1463:1465   */\n    tag_232:\n      pop\n        /* \"#utility.yul\":1544:1567   */\n      calldataload\n      swap2\n        /* \"#utility.yul\":1453:1573   */\n      swap1\n      pop\n      jump\t// out\n        /* \"#utility.yul\":1578:2567   */\n    tag_38:\n      0x00\n      dup1\n      0x00\n      dup1\n        /* \"#utility.yul\":1760:1763   */\n      0x80\n        /* \"#utility.yul\":1748:1757   */\n      dup6\n        /* \"#utility.yul\":1739:1746   */\n      dup8\n        /* \"#utility.yul\":1735:1758   */\n      sub\n        /* \"#utility.yul\":1731:1764   */\n      slt\n        /* \"#utility.yul\":1728:1730   */\n      iszero\n      tag_234\n      jumpi\n        /* \"#utility.yul\":1782:1788   */\n      dup2\n        /* \"#utility.yul\":1774:1780   */\n      dup3\n        /* \"#utility.yul\":1767:1789   */\n      revert\n        /* \"#utility.yul\":1728:1730   */\n    tag_234:\n        /* \"#utility.yul\":1823:1832   */\n      dup5\n        /* \"#utility.yul\":1810:1833   */\n      calldataload\n        /* \"#utility.yul\":1800:1833   */\n      swap4\n      pop\n        /* \"#utility.yul\":1880:1882   */\n      0x20\n        /* \"#utility.yul\":1869:1878   */\n      dup6\n        /* \"#utility.yul\":1865:1883   */\n      add\n        /* \"#utility.yul\":1852:1884   */\n      calldataload\n        /* \"#utility.yul\":1842:1884   */\n      swap3\n      pop\n        /* \"#utility.yul\":1935:1937   */\n      0x40\n        /* \"#utility.yul\":1924:1933   */\n      dup6\n        /* \"#utility.yul\":1920:1938   */\n      add\n        /* \"#utility.yul\":1907:1939   */\n      calldataload\n        /* \"#utility.yul\":1958:1976   */\n      0xffffffffffffffff\n        /* \"#utility.yul\":1999:2001   */\n      dup1\n        /* \"#utility.yul\":1991:1997   */\n      dup3\n        /* \"#utility.yul\":1988:2002   */\n      gt\n        /* \"#utility.yul\":1985:1987   */\n      iszero\n      tag_235\n      jumpi\n        /* \"#utility.yul\":2020:2026   */\n      dup4\n        /* \"#utility.yul\":2012:2018   */\n      dup5\n        /* \"#utility.yul\":2005:2027   */\n      revert\n        /* \"#utility.yul\":1985:1987   */\n    tag_235:\n        /* \"#utility.yul\":2063:2069   */\n      dup2\n        /* \"#utility.yul\":2052:2061   */\n      dup8\n        /* \"#utility.yul\":2048:2070   */\n      add\n        /* \"#utility.yul\":2038:2070   */\n      swap2\n      pop\n        /* \"#utility.yul\":2108:2115   */\n      dup8\n        /* \"#utility.yul\":2101:2105   */\n      0x1f\n        /* \"#utility.yul\":2097:2099   */\n      dup4\n        /* \"#utility.yul\":2093:2106   */\n      add\n        /* \"#utility.yul\":2089:2116   */\n      slt\n        /* \"#utility.yul\":2079:2081   */\n      tag_236\n      jumpi\n        /* \"#utility.yul\":2135:2141   */\n      dup4\n        /* \"#utility.yul\":2127:2133   */\n      dup5\n        /* \"#utility.yul\":2120:2142   */\n      revert\n        /* \"#utility.yul\":2079:2081   */\n    tag_236:\n        /* \"#utility.yul\":2163:2238   */\n      tag_237\n        /* \"#utility.yul\":2230:2237   */\n      dup9\n        /* \"#utility.yul\":2225:2227   */\n      dup4\n        /* \"#utility.yul\":2212:2228   */\n      calldataload\n        /* \"#utility.yul\":2207:2209   */\n      0x20\n        /* \"#utility.yul\":2203:2205   */\n      dup6\n        /* \"#utility.yul\":2199:2210   */\n      add\n        /* \"#utility.yul\":2163:2238   */\n      tag_213\n      jump\t// in\n    tag_237:\n        /* \"#utility.yul\":2153:2238   */\n      swap4\n      pop\n        /* \"#utility.yul\":2291:2293   */\n      0x60\n        /* \"#utility.yul\":2280:2289   */\n      dup8\n        /* \"#utility.yul\":2276:2294   */\n      add\n        /* \"#utility.yul\":2263:2295   */\n      calldataload\n        /* \"#utility.yul\":2247:2295   */\n      swap2\n      pop\n        /* \"#utility.yul\":2320:2322   */\n      dup1\n        /* \"#utility.yul\":2310:2318   */\n      dup3\n        /* \"#utility.yul\":2307:2323   */\n      gt\n        /* \"#utility.yul\":2304:2306   */\n      iszero\n      tag_238\n      jumpi\n        /* \"#utility.yul\":2341:2347   */\n      dup3\n        /* \"#utility.yul\":2333:2339   */\n      dup4\n        /* \"#utility.yul\":2326:2348   */\n      revert\n        /* \"#utility.yul\":2304:2306   */\n    tag_238:\n      pop\n        /* \"#utility.yul\":2369:2393   */\n      dup6\n      add\n        /* \"#utility.yul\":2424:2428   */\n      0x1f\n        /* \"#utility.yul\":2416:2429   */\n      dup2\n      add\n        /* \"#utility.yul\":2412:2439   */\n      dup8\n      sgt\n        /* \"#utility.yul\":2402:2404   */\n      tag_239\n      jumpi\n        /* \"#utility.yul\":2458:2464   */\n      dup2\n        /* \"#utility.yul\":2450:2456   */\n      dup3\n        /* \"#utility.yul\":2443:2465   */\n      revert\n        /* \"#utility.yul\":2402:2404   */\n    tag_239:\n        /* \"#utility.yul\":2486:2561   */\n      tag_240\n        /* \"#utility.yul\":2553:2560   */\n      dup8\n        /* \"#utility.yul\":2548:2550   */\n      dup3\n        /* \"#utility.yul\":2535:2551   */\n      calldataload\n        /* \"#utility.yul\":2530:2532   */\n      0x20\n        /* \"#utility.yul\":2526:2528   */\n      dup5\n        /* \"#utility.yul\":2522:2533   */\n      add\n        /* \"#utility.yul\":2486:2561   */\n      tag_213\n      jump\t// in\n    tag_240:\n        /* \"#utility.yul\":2476:2561   */\n      swap2\n      pop\n      pop\n        /* \"#utility.yul\":1718:2567   */\n      swap3\n      swap6\n      swap2\n      swap5\n      pop\n      swap3\n      pop\n      jump\t// out\n        /* \"#utility.yul\":2572:2952   */\n    tag_131:\n        /* \"#utility.yul\":2814:2880   */\n      0x19457468657265756d205369676e6564204d6573736167653a0a333200000000\n        /* \"#utility.yul\":2802:2881   */\n      dup2\n      mstore\n        /* \"#utility.yul\":2906:2908   */\n      0x1c\n        /* \"#utility.yul\":2897:2909   */\n      dup2\n      add\n        /* \"#utility.yul\":2890:2918   */\n      swap2\n      swap1\n      swap2\n      mstore\n        /* \"#utility.yul\":2943:2945   */\n      0x3c\n        /* \"#utility.yul\":2934:2946   */\n      add\n      swap1\n        /* \"#utility.yul\":2792:2952   */\n      jump\t// out\n        /* \"#utility.yul\":2957:3582   */\n    tag_93:\n      0x00\n        /* \"#utility.yul\":3174:3180   */\n      dup5\n        /* \"#utility.yul\":3169:3172   */\n      dup3\n        /* \"#utility.yul\":3162:3181   */\n      mstore\n        /* \"#utility.yul\":3200:3202   */\n      0x20\n        /* \"#utility.yul\":3232:3238   */\n      dup5\n        /* \"#utility.yul\":3227:3229   */\n      dup2\n        /* \"#utility.yul\":3222:3225   */\n      dup5\n        /* \"#utility.yul\":3218:3230   */\n      add\n        /* \"#utility.yul\":3211:3239   */\n      mstore\n        /* \"#utility.yul\":3268:3274   */\n      dup4\n        /* \"#utility.yul\":3262:3275   */\n      mload\n        /* \"#utility.yul\":3293:3296   */\n      dup3\n        /* \"#utility.yul\":3305:3439   */\n    tag_243:\n        /* \"#utility.yul\":3319:3325   */\n      dup2\n        /* \"#utility.yul\":3316:3317   */\n      dup2\n        /* \"#utility.yul\":3313:3326   */\n      lt\n        /* \"#utility.yul\":3305:3439   */\n      iszero\n      tag_245\n      jumpi\n        /* \"#utility.yul\":3408:3422   */\n      dup6\n      dup2\n      add\n        /* \"#utility.yul\":3404:3427   */\n      dup4\n      add\n        /* \"#utility.yul\":3398:3428   */\n      mload\n        /* \"#utility.yul\":3380:3391   */\n      dup6\n      dup3\n      add\n        /* \"#utility.yul\":3393:3395   */\n      0x40\n        /* \"#utility.yul\":3376:3396   */\n      add\n        /* \"#utility.yul\":3369:3429   */\n      mstore\n        /* \"#utility.yul\":3334:3344   */\n      dup3\n      add\n        /* \"#utility.yul\":3305:3439   */\n      jump(tag_243)\n    tag_245:\n        /* \"#utility.yul\":3457:3463   */\n      dup2\n        /* \"#utility.yul\":3454:3455   */\n      dup2\n        /* \"#utility.yul\":3451:3464   */\n      gt\n        /* \"#utility.yul\":3448:3450   */\n      iszero\n      tag_246\n      jumpi\n        /* \"#utility.yul\":3521:3524   */\n      dup4\n        /* \"#utility.yul\":3516:3518   */\n      0x40\n        /* \"#utility.yul\":3507:3513   */\n      dup4\n        /* \"#utility.yul\":3502:3505   */\n      dup8\n        /* \"#utility.yul\":3498:3514   */\n      add\n        /* \"#utility.yul\":3494:3519   */\n      add\n        /* \"#utility.yul\":3487:3525   */\n      mstore\n        /* \"#utility.yul\":3448:3450   */\n    tag_246:\n      pop\n        /* \"#utility.yul\":3555:3571   */\n      swap3\n      swap1\n      swap3\n      add\n        /* \"#utility.yul\":3573:3575   */\n      0x40\n        /* \"#utility.yul\":3551:3576   */\n      add\n      swap6\n        /* \"#utility.yul\":3152:3582   */\n      swap5\n      pop\n      pop\n      pop\n      pop\n      pop\n      jump\t// out\n        /* \"#utility.yul\":3587:3790   */\n    tag_24:\n      sub(shl(0xa0, 0x01), 0x01)\n        /* \"#utility.yul\":3751:3783   */\n      swap2\n      swap1\n      swap2\n      and\n        /* \"#utility.yul\":3733:3784   */\n      dup2\n      mstore\n        /* \"#utility.yul\":3721:3723   */\n      0x20\n        /* \"#utility.yul\":3706:3724   */\n      add\n      swap1\n        /* \"#utility.yul\":3688:3790   */\n      jump\t// out\n        /* \"#utility.yul\":3795:3982   */\n    tag_20:\n        /* \"#utility.yul\":3960:3974   */\n      swap1\n      iszero\n        /* \"#utility.yul\":3953:3975   */\n      iszero\n        /* \"#utility.yul\":3935:3976   */\n      dup2\n      mstore\n        /* \"#utility.yul\":3923:3925   */\n      0x20\n        /* \"#utility.yul\":3908:3926   */\n      add\n      swap1\n        /* \"#utility.yul\":3890:3982   */\n      jump\t// out\n        /* \"#utility.yul\":3987:4385   */\n    tag_206:\n        /* \"#utility.yul\":4214:4239   */\n      swap4\n      dup5\n      mstore\n        /* \"#utility.yul\":4287:4291   */\n      0xff\n        /* \"#utility.yul\":4275:4292   */\n      swap3\n      swap1\n      swap3\n      and\n        /* \"#utility.yul\":4270:4272   */\n      0x20\n        /* \"#utility.yul\":4255:4273   */\n      dup5\n      add\n        /* \"#utility.yul\":4248:4293   */\n      mstore\n        /* \"#utility.yul\":4324:4326   */\n      0x40\n        /* \"#utility.yul\":4309:4327   */\n      dup4\n      add\n        /* \"#utility.yul\":4302:4336   */\n      mstore\n        /* \"#utility.yul\":4367:4369   */\n      0x60\n        /* \"#utility.yul\":4352:4370   */\n      dup3\n      add\n        /* \"#utility.yul\":4345:4379   */\n      mstore\n        /* \"#utility.yul\":4201:4204   */\n      0x80\n        /* \"#utility.yul\":4186:4205   */\n      add\n      swap1\n        /* \"#utility.yul\":4168:4385   */\n      jump\t// out\n        /* \"#utility.yul\":4390:4738   */\n    tag_166:\n        /* \"#utility.yul\":4592:4594   */\n      0x20\n        /* \"#utility.yul\":4574:4595   */\n      dup1\n      dup3\n      mstore\n        /* \"#utility.yul\":4631:4633   */\n      0x18\n        /* \"#utility.yul\":4611:4629   */\n      swap1\n      dup3\n      add\n        /* \"#utility.yul\":4604:4634   */\n      mstore\n        /* \"#utility.yul\":4670:4696   */\n      0x45434453413a20696e76616c6964207369676e61747572650000000000000000\n        /* \"#utility.yul\":4665:4667   */\n      0x40\n        /* \"#utility.yul\":4650:4668   */\n      dup3\n      add\n        /* \"#utility.yul\":4643:4697   */\n      mstore\n        /* \"#utility.yul\":4729:4731   */\n      0x60\n        /* \"#utility.yul\":4714:4732   */\n      add\n      swap1\n        /* \"#utility.yul\":4564:4738   */\n      jump\t// out\n        /* \"#utility.yul\":4743:5080   */\n    tag_91:\n        /* \"#utility.yul\":4945:4947   */\n      0x20\n        /* \"#utility.yul\":4927:4948   */\n      dup1\n      dup3\n      mstore\n        /* \"#utility.yul\":4984:4986   */\n      0x0d\n        /* \"#utility.yul\":4964:4982   */\n      swap1\n      dup3\n      add\n        /* \"#utility.yul\":4957:4987   */\n      mstore\n      shl(0x99, 0x3a34b6b2b9ba30b6b81032b939)\n        /* \"#utility.yul\":5018:5020   */\n      0x40\n        /* \"#utility.yul\":5003:5021   */\n      dup3\n      add\n        /* \"#utility.yul\":4996:5039   */\n      mstore\n        /* \"#utility.yul\":5071:5073   */\n      0x60\n        /* \"#utility.yul\":5056:5074   */\n      add\n      swap1\n        /* \"#utility.yul\":4917:5080   */\n      jump\t// out\n        /* \"#utility.yul\":5085:5440   */\n    tag_172:\n        /* \"#utility.yul\":5287:5289   */\n      0x20\n        /* \"#utility.yul\":5269:5290   */\n      dup1\n      dup3\n      mstore\n        /* \"#utility.yul\":5326:5328   */\n      0x1f\n        /* \"#utility.yul\":5306:5324   */\n      swap1\n      dup3\n      add\n        /* \"#utility.yul\":5299:5329   */\n      mstore\n        /* \"#utility.yul\":5365:5398   */\n      0x45434453413a20696e76616c6964207369676e6174757265206c656e67746800\n        /* \"#utility.yul\":5360:5362   */\n      0x40\n        /* \"#utility.yul\":5345:5363   */\n      dup3\n      add\n        /* \"#utility.yul\":5338:5399   */\n      mstore\n        /* \"#utility.yul\":5431:5433   */\n      0x60\n        /* \"#utility.yul\":5416:5434   */\n      add\n      swap1\n        /* \"#utility.yul\":5259:5440   */\n      jump\t// out\n        /* \"#utility.yul\":5445:5847   */\n    tag_124:\n        /* \"#utility.yul\":5647:5649   */\n      0x20\n        /* \"#utility.yul\":5629:5650   */\n      dup1\n      dup3\n      mstore\n        /* \"#utility.yul\":5686:5688   */\n      0x26\n        /* \"#utility.yul\":5666:5684   */\n      swap1\n      dup3\n      add\n        /* \"#utility.yul\":5659:5689   */\n      mstore\n        /* \"#utility.yul\":5725:5759   */\n      0x4f776e61626c653a206e6577206f776e657220697320746865207a65726f2061\n        /* \"#utility.yul\":5720:5722   */\n      0x40\n        /* \"#utility.yul\":5705:5723   */\n      dup3\n      add\n        /* \"#utility.yul\":5698:5760   */\n      mstore\n      shl(0xd0, 0x646472657373)\n        /* \"#utility.yul\":5791:5793   */\n      0x60\n        /* \"#utility.yul\":5776:5794   */\n      dup3\n      add\n        /* \"#utility.yul\":5769:5805   */\n      mstore\n        /* \"#utility.yul\":5837:5840   */\n      0x80\n        /* \"#utility.yul\":5822:5841   */\n      add\n      swap1\n        /* \"#utility.yul\":5619:5847   */\n      jump\t// out\n        /* \"#utility.yul\":5852:6250   */\n    tag_178:\n        /* \"#utility.yul\":6054:6056   */\n      0x20\n        /* \"#utility.yul\":6036:6057   */\n      dup1\n      dup3\n      mstore\n        /* \"#utility.yul\":6093:6095   */\n      0x22\n        /* \"#utility.yul\":6073:6091   */\n      swap1\n      dup3\n      add\n        /* \"#utility.yul\":6066:6096   */\n      mstore\n        /* \"#utility.yul\":6132:6166   */\n      0x45434453413a20696e76616c6964207369676e6174757265202773272076616c\n        /* \"#utility.yul\":6127:6129   */\n      0x40\n        /* \"#utility.yul\":6112:6130   */\n      dup3\n      add\n        /* \"#utility.yul\":6105:6167   */\n      mstore\n      shl(0xf0, 0x7565)\n        /* \"#utility.yul\":6198:6200   */\n      0x60\n        /* \"#utility.yul\":6183:6201   */\n      dup3\n      add\n        /* \"#utility.yul\":6176:6208   */\n      mstore\n        /* \"#utility.yul\":6240:6243   */\n      0x80\n        /* \"#utility.yul\":6225:6244   */\n      add\n      swap1\n        /* \"#utility.yul\":6026:6250   */\n      jump\t// out\n        /* \"#utility.yul\":6255:6665   */\n    tag_103:\n        /* \"#utility.yul\":6457:6459   */\n      0x20\n        /* \"#utility.yul\":6439:6460   */\n      dup1\n      dup3\n      mstore\n        /* \"#utility.yul\":6496:6498   */\n      0x2e\n        /* \"#utility.yul\":6476:6494   */\n      swap1\n      dup3\n      add\n        /* \"#utility.yul\":6469:6499   */\n      mstore\n        /* \"#utility.yul\":6535:6569   */\n      0x496e697469616c697a61626c653a20636f6e747261637420697320616c726561\n        /* \"#utility.yul\":6530:6532   */\n      0x40\n        /* \"#utility.yul\":6515:6533   */\n      dup3\n      add\n        /* \"#utility.yul\":6508:6570   */\n      mstore\n      shl(0x92, 0x191e481a5b9a5d1a585b1a5e9959)\n        /* \"#utility.yul\":6601:6603   */\n      0x60\n        /* \"#utility.yul\":6586:6604   */\n      dup3\n      add\n        /* \"#utility.yul\":6579:6623   */\n      mstore\n        /* \"#utility.yul\":6655:6658   */\n      0x80\n        /* \"#utility.yul\":6640:6659   */\n      add\n      swap1\n        /* \"#utility.yul\":6429:6665   */\n      jump\t// out\n        /* \"#utility.yul\":6670:7006   */\n    tag_86:\n        /* \"#utility.yul\":6872:6874   */\n      0x20\n        /* \"#utility.yul\":6854:6875   */\n      dup1\n      dup3\n      mstore\n        /* \"#utility.yul\":6911:6913   */\n      0x0c\n        /* \"#utility.yul\":6891:6909   */\n      swap1\n      dup3\n      add\n        /* \"#utility.yul\":6884:6914   */\n      mstore\n      shl(0xa1, 0x32bc32b1baba37b91032b939)\n        /* \"#utility.yul\":6945:6947   */\n      0x40\n        /* \"#utility.yul\":6930:6948   */\n      dup3\n      add\n        /* \"#utility.yul\":6923:6965   */\n      mstore\n        /* \"#utility.yul\":6997:6999   */\n      0x60\n        /* \"#utility.yul\":6982:7000   */\n      add\n      swap1\n        /* \"#utility.yul\":6844:7006   */\n      jump\t// out\n        /* \"#utility.yul\":7011:7409   */\n    tag_184:\n        /* \"#utility.yul\":7213:7215   */\n      0x20\n        /* \"#utility.yul\":7195:7216   */\n      dup1\n      dup3\n      mstore\n        /* \"#utility.yul\":7252:7254   */\n      0x22\n        /* \"#utility.yul\":7232:7250   */\n      swap1\n      dup3\n      add\n        /* \"#utility.yul\":7225:7255   */\n      mstore\n        /* \"#utility.yul\":7291:7325   */\n      0x45434453413a20696e76616c6964207369676e6174757265202776272076616c\n        /* \"#utility.yul\":7286:7288   */\n      0x40\n        /* \"#utility.yul\":7271:7289   */\n      dup3\n      add\n        /* \"#utility.yul\":7264:7326   */\n      mstore\n      shl(0xf0, 0x7565)\n        /* \"#utility.yul\":7357:7359   */\n      0x60\n        /* \"#utility.yul\":7342:7360   */\n      dup3\n      add\n        /* \"#utility.yul\":7335:7367   */\n      mstore\n        /* \"#utility.yul\":7399:7402   */\n      0x80\n        /* \"#utility.yul\":7384:7403   */\n      add\n      swap1\n        /* \"#utility.yul\":7185:7409   */\n      jump\t// out\n        /* \"#utility.yul\":7414:7770   */\n    tag_65:\n        /* \"#utility.yul\":7616:7618   */\n      0x20\n        /* \"#utility.yul\":7598:7619   */\n      dup1\n      dup3\n      mstore\n        /* \"#utility.yul\":7635:7653   */\n      dup2\n      dup2\n      add\n        /* \"#utility.yul\":7628:7658   */\n      mstore\n        /* \"#utility.yul\":7694:7728   */\n      0x4f776e61626c653a2063616c6c6572206973206e6f7420746865206f776e6572\n        /* \"#utility.yul\":7689:7691   */\n      0x40\n        /* \"#utility.yul\":7674:7692   */\n      dup3\n      add\n        /* \"#utility.yul\":7667:7729   */\n      mstore\n        /* \"#utility.yul\":7761:7763   */\n      0x60\n        /* \"#utility.yul\":7746:7764   */\n      add\n      swap1\n        /* \"#utility.yul\":7588:7770   */\n      jump\t// out\n        /* \"#utility.yul\":7775:7952   */\n    tag_47:\n        /* \"#utility.yul\":7921:7946   */\n      swap1\n      dup2\n      mstore\n        /* \"#utility.yul\":7909:7911   */\n      0x20\n        /* \"#utility.yul\":7894:7912   */\n      add\n      swap1\n        /* \"#utility.yul\":7876:7952   */\n      jump\t// out\n        /* \"#utility.yul\":7957:8185   */\n    tag_88:\n      0x00\n        /* \"#utility.yul\":8025:8026   */\n      dup3\n        /* \"#utility.yul\":8022:8023   */\n      dup3\n        /* \"#utility.yul\":8019:8027   */\n      lt\n        /* \"#utility.yul\":8016:8018   */\n      iszero\n      tag_261\n      jumpi\n      shl(0xe0, 0x4e487b71)\n        /* \"#utility.yul\":8050:8084   */\n      dup2\n      mstore\n        /* \"#utility.yul\":8107:8111   */\n      0x11\n        /* \"#utility.yul\":8104:8105   */\n      0x04\n        /* \"#utility.yul\":8097:8112   */\n      mstore\n        /* \"#utility.yul\":8138:8142   */\n      0x24\n        /* \"#utility.yul\":8057:8061   */\n      dup2\n        /* \"#utility.yul\":8125:8143   */\n      revert\n        /* \"#utility.yul\":8016:8018   */\n    tag_261:\n      pop\n        /* \"#utility.yul\":8170:8179   */\n      sub\n      swap1\n        /* \"#utility.yul\":8006:8185   */\n      jump\t// out\n        /* \"#utility.yul\":8190:8317   */\n    tag_217:\n        /* \"#utility.yul\":8251:8261   */\n      0x4e487b71\n        /* \"#utility.yul\":8246:8249   */\n      0xe0\n        /* \"#utility.yul\":8242:8262   */\n      shl\n        /* \"#utility.yul\":8239:8240   */\n      0x00\n        /* \"#utility.yul\":8232:8263   */\n      mstore\n        /* \"#utility.yul\":8282:8286   */\n      0x41\n        /* \"#utility.yul\":8279:8280   */\n      0x04\n        /* \"#utility.yul\":8272:8287   */\n      mstore\n        /* \"#utility.yul\":8306:8310   */\n      0x24\n        /* \"#utility.yul\":8303:8304   */\n      0x00\n        /* \"#utility.yul\":8296:8311   */\n      revert\n\n    auxdata: 0xa26469706673582212200896823b03d4377136e898c0963a737805bf4d019615c919ac02355741604d9c64736f6c63430008000033\n}\n",
				"bytecode": {
					"linkReferences": {},
					"object": "608060405234801561001057600080fd5b50610e9f806100206000396000f3fe608060405234801561001057600080fd5b50600436106100a95760003560e01c806381952f3b1161007157806381952f3b1461011c5780638da5cb5b1461012f578063c08d1fe514610137578063c4d66de81461014c578063e2889c821461015f578063f2fde38b14610172576100a9565b80631e1bff3f146100ae578063238ac933146100d757806348c7e528146100ec5780636c19e783146100ff578063715018a614610112575b600080fd5b6100c16100bc366004610a74565b610185565b6040516100ce9190610bf6565b60405180910390f35b6100df6101e0565b6040516100ce9190610be2565b6100c16100fa366004610a5a565b6101ef565b6100c161010d366004610a5a565b610204565b61011a610269565b005b6100c161012a366004610ac6565b6102b4565b6100df61036e565b61013f61037d565b6040516100ce9190610e27565b61011a61015a366004610a5a565b610383565b6100c161016d366004610aae565b61042d565b61011a610180366004610a5a565b610477565b600061018f6104e8565b6001600160a01b03166101a061036e565b6001600160a01b0316146101cf5760405162461bcd60e51b81526004016101c690610df2565b60405180910390fd5b6101d983836104ec565b9392505050565b6065546001600160a01b031681565b60676020526000908152604090205460ff1681565b600061020e6104e8565b6001600160a01b031661021f61036e565b6001600160a01b0316146102455760405162461bcd60e51b81526004016101c690610df2565b50606580546001600160a01b0319166001600160a01b03831617905560015b919050565b6102716104e8565b6001600160a01b031661028261036e565b6001600160a01b0316146102a85760405162461bcd60e51b81526004016101c690610df2565b6102b2600061051a565b565b3360009081526067602052604081205460ff166102e35760405162461bcd60e51b81526004016101c690610d8a565b83606654426102f29190610e30565b1061030f5760405162461bcd60e51b81526004016101c690610c56565b600085858560405160200161032693929190610b94565b604051602081830303815290604052805190602001209050600061035261034c8361056c565b8561059c565b6065546001600160a01b03918216911614979650505050505050565b6033546001600160a01b031690565b60665481565b600054610100900460ff168061039c575060005460ff16155b6103b85760405162461bcd60e51b81526004016101c690610d3c565b600054610100900460ff161580156103e3576000805460ff1961ff0019909116610100171660011790555b6103eb6105c0565b6103f68260016104ec565b50606580546001600160a01b0319166001600160a01b038416179055603c6066558015610429576000805461ff00191690555b5050565b60006104376104e8565b6001600160a01b031661044861036e565b6001600160a01b03161461046e5760405162461bcd60e51b81526004016101c690610df2565b50606655600190565b61047f6104e8565b6001600160a01b031661049061036e565b6001600160a01b0316146104b65760405162461bcd60e51b81526004016101c690610df2565b6001600160a01b0381166104dc5760405162461bcd60e51b81526004016101c690610cb4565b6104e58161051a565b50565b3390565b6001600160a01b0382166000908152606760205260409020805482151560ff19909116179055600192915050565b603380546001600160a01b038381166001600160a01b0319831681179093556040519116919082907f8be0079c531659141344cd1fd0a4f28419497f9722a3daafe3b4186f6b6457e090600090a35050565b60008160405160200161057f9190610b63565b604051602081830303815290604052805190602001209050919050565b60008060006105ab8585610644565b915091506105b8816106b4565b509392505050565b600054610100900460ff16806105d9575060005460ff16155b6105f55760405162461bcd60e51b81526004016101c690610d3c565b600054610100900460ff16158015610620576000805460ff1961ff0019909116610100171660011790555b6106286107e1565b610630610854565b80156104e5576000805461ff001916905550565b60008082516041141561067b5760208301516040840151606085015160001a61066f878285856108c4565b945094505050506106ad565b8251604014156106a5576020830151604084015161069a8683836109a4565b9350935050506106ad565b506000905060025b9250929050565b60008160048111156106d657634e487b7160e01b600052602160045260246000fd5b14156106e1576104e5565b600181600481111561070357634e487b7160e01b600052602160045260246000fd5b14156107215760405162461bcd60e51b81526004016101c690610c1f565b600281600481111561074357634e487b7160e01b600052602160045260246000fd5b14156107615760405162461bcd60e51b81526004016101c690610c7d565b600381600481111561078357634e487b7160e01b600052602160045260246000fd5b14156107a15760405162461bcd60e51b81526004016101c690610cfa565b60048160048111156107c357634e487b7160e01b600052602160045260246000fd5b14156104e55760405162461bcd60e51b81526004016101c690610db0565b600054610100900460ff16806107fa575060005460ff16155b6108165760405162461bcd60e51b81526004016101c690610d3c565b600054610100900460ff16158015610630576000805460ff1961ff00199091166101001716600117905580156104e5576000805461ff001916905550565b600054610100900460ff168061086d575060005460ff16155b6108895760405162461bcd60e51b81526004016101c690610d3c565b600054610100900460ff161580156108b4576000805460ff1961ff0019909116610100171660011790555b6106306108bf6104e8565b61051a565b6000807f7fffffffffffffffffffffffffffffff5d576e7357a4501ddfe92f46681b20a08311156108fb575060009050600361099b565b8460ff16601b1415801561091357508460ff16601c14155b15610924575060009050600461099b565b6000600187878787604051600081526020016040526040516109499493929190610c01565b6020604051602081039080840390855afa15801561096b573d6000803e3d6000fd5b5050604051601f1901519150506001600160a01b0381166109945760006001925092505061099b565b9150600090505b94509492505050565b6000806001600160ff1b03831660ff84901c601b016109c5878288856108c4565b935093505050935093915050565b600067ffffffffffffffff808411156109ee576109ee610e53565b604051601f8501601f191681016020018281118282101715610a1257610a12610e53565b604052848152915081838501861015610a2a57600080fd5b8484602083013760006020868301015250509392505050565b80356001600160a01b038116811461026457600080fd5b600060208284031215610a6b578081fd5b6101d982610a43565b60008060408385031215610a86578081fd5b610a8f83610a43565b915060208301358015158114610aa3578182fd5b809150509250929050565b600060208284031215610abf578081fd5b5035919050565b60008060008060808587031215610adb578182fd5b8435935060208501359250604085013567ffffffffffffffff80821115610b00578384fd5b818701915087601f830112610b13578384fd5b610b22888335602085016109d3565b93506060870135915080821115610b37578283fd5b508501601f81018713610b48578182fd5b610b57878235602084016109d3565b91505092959194509250565b7f19457468657265756d205369676e6564204d6573736167653a0a3332000000008152601c810191909152603c0190565b6000848252602084818401528351825b81811015610bc057858101830151858201604001528201610ba4565b81811115610bd15783604083870101525b509290920160400195945050505050565b6001600160a01b0391909116815260200190565b901515815260200190565b93845260ff9290921660208401526040830152606082015260800190565b60208082526018908201527f45434453413a20696e76616c6964207369676e61747572650000000000000000604082015260600190565b6020808252600d908201526c3a34b6b2b9ba30b6b81032b93960991b604082015260600190565b6020808252601f908201527f45434453413a20696e76616c6964207369676e6174757265206c656e67746800604082015260600190565b60208082526026908201527f4f776e61626c653a206e6577206f776e657220697320746865207a65726f206160408201526564647265737360d01b606082015260800190565b60208082526022908201527f45434453413a20696e76616c6964207369676e6174757265202773272076616c604082015261756560f01b606082015260800190565b6020808252602e908201527f496e697469616c697a61626c653a20636f6e747261637420697320616c72656160408201526d191e481a5b9a5d1a585b1a5e995960921b606082015260800190565b6020808252600c908201526b32bc32b1baba37b91032b93960a11b604082015260600190565b60208082526022908201527f45434453413a20696e76616c6964207369676e6174757265202776272076616c604082015261756560f01b606082015260800190565b6020808252818101527f4f776e61626c653a2063616c6c6572206973206e6f7420746865206f776e6572604082015260600190565b90815260200190565b600082821015610e4e57634e487b7160e01b81526011600452602481fd5b500390565b634e487b7160e01b600052604160045260246000fdfea26469706673582212200896823b03d4377136e898c0963a737805bf4d019615c919ac02355741604d9c64736f6c63430008000033",
					"opcodes": "PUSH1 0x80 PUSH1 0x40 MSTORE CALLVALUE DUP1 ISZERO PUSH2 0x10 JUMPI PUSH1 0x0 DUP1 REVERT JUMPDEST POP PUSH2 0xE9F DUP1 PUSH2 0x20 PUSH1 0x0 CODECOPY PUSH1 0x0 RETURN INVALID PUSH1 0x80 PUSH1 0x40 MSTORE CALLVALUE DUP1 ISZERO PUSH2 0x10 JUMPI PUSH1 0x0 DUP1 REVERT JUMPDEST POP PUSH1 0x4 CALLDATASIZE LT PUSH2 0xA9 JUMPI PUSH1 0x0 CALLDATALOAD PUSH1 0xE0 SHR DUP1 PUSH4 0x81952F3B GT PUSH2 0x71 JUMPI DUP1 PUSH4 0x81952F3B EQ PUSH2 0x11C JUMPI DUP1 PUSH4 0x8DA5CB5B EQ PUSH2 0x12F JUMPI DUP1 PUSH4 0xC08D1FE5 EQ PUSH2 0x137 JUMPI DUP1 PUSH4 0xC4D66DE8 EQ PUSH2 0x14C JUMPI DUP1 PUSH4 0xE2889C82 EQ PUSH2 0x15F JUMPI DUP1 PUSH4 0xF2FDE38B EQ PUSH2 0x172 JUMPI PUSH2 0xA9 JUMP JUMPDEST DUP1 PUSH4 0x1E1BFF3F EQ PUSH2 0xAE JUMPI DUP1 PUSH4 0x238AC933 EQ PUSH2 0xD7 JUMPI DUP1 PUSH4 0x48C7E528 EQ PUSH2 0xEC JUMPI DUP1 PUSH4 0x6C19E783 EQ PUSH2 0xFF JUMPI DUP1 PUSH4 0x715018A6 EQ PUSH2 0x112 JUMPI JUMPDEST PUSH1 0x0 DUP1 REVERT JUMPDEST PUSH2 0xC1 PUSH2 0xBC CALLDATASIZE PUSH1 0x4 PUSH2 0xA74 JUMP JUMPDEST PUSH2 0x185 JUMP JUMPDEST PUSH1 0x40 MLOAD PUSH2 0xCE SWAP2 SWAP1 PUSH2 0xBF6 JUMP JUMPDEST PUSH1 0x40 MLOAD DUP1 SWAP2 SUB SWAP1 RETURN JUMPDEST PUSH2 0xDF PUSH2 0x1E0 JUMP JUMPDEST PUSH1 0x40 MLOAD PUSH2 0xCE SWAP2 SWAP1 PUSH2 0xBE2 JUMP JUMPDEST PUSH2 0xC1 PUSH2 0xFA CALLDATASIZE PUSH1 0x4 PUSH2 0xA5A JUMP JUMPDEST PUSH2 0x1EF JUMP JUMPDEST PUSH2 0xC1 PUSH2 0x10D CALLDATASIZE PUSH1 0x4 PUSH2 0xA5A JUMP JUMPDEST PUSH2 0x204 JUMP JUMPDEST PUSH2 0x11A PUSH2 0x269 JUMP JUMPDEST STOP JUMPDEST PUSH2 0xC1 PUSH2 0x12A CALLDATASIZE PUSH1 0x4 PUSH2 0xAC6 JUMP JUMPDEST PUSH2 0x2B4 JUMP JUMPDEST PUSH2 0xDF PUSH2 0x36E JUMP JUMPDEST PUSH2 0x13F PUSH2 0x37D JUMP JUMPDEST PUSH1 0x40 MLOAD PUSH2 0xCE SWAP2 SWAP1 PUSH2 0xE27 JUMP JUMPDEST PUSH2 0x11A PUSH2 0x15A CALLDATASIZE PUSH1 0x4 PUSH2 0xA5A JUMP JUMPDEST PUSH2 0x383 JUMP JUMPDEST PUSH2 0xC1 PUSH2 0x16D CALLDATASIZE PUSH1 0x4 PUSH2 0xAAE JUMP JUMPDEST PUSH2 0x42D JUMP JUMPDEST PUSH2 0x11A PUSH2 0x180 CALLDATASIZE PUSH1 0x4 PUSH2 0xA5A JUMP JUMPDEST PUSH2 0x477 JUMP JUMPDEST PUSH1 0x0 PUSH2 0x18F PUSH2 0x4E8 JUMP JUMPDEST PUSH1 0x1 PUSH1 0x1 PUSH1 0xA0 SHL SUB AND PUSH2 0x1A0 PUSH2 0x36E JUMP JUMPDEST PUSH1 0x1 PUSH1 0x1 PUSH1 0xA0 SHL SUB AND EQ PUSH2 0x1CF JUMPI PUSH1 0x40 MLOAD PUSH3 0x461BCD PUSH1 0xE5 SHL DUP2 MSTORE PUSH1 0x4 ADD PUSH2 0x1C6 SWAP1 PUSH2 0xDF2 JUMP JUMPDEST PUSH1 0x40 MLOAD DUP1 SWAP2 SUB SWAP1 REVERT JUMPDEST PUSH2 0x1D9 DUP4 DUP4 PUSH2 0x4EC JUMP JUMPDEST SWAP4 SWAP3 POP POP POP JUMP JUMPDEST PUSH1 0x65 SLOAD PUSH1 0x1 PUSH1 0x1 PUSH1 0xA0 SHL SUB AND DUP2 JUMP JUMPDEST PUSH1 0x67 PUSH1 0x20 MSTORE PUSH1 0x0 SWAP1 DUP2 MSTORE PUSH1 0x40 SWAP1 KECCAK256 SLOAD PUSH1 0xFF AND DUP2 JUMP JUMPDEST PUSH1 0x0 PUSH2 0x20E PUSH2 0x4E8 JUMP JUMPDEST PUSH1 0x1 PUSH1 0x1 PUSH1 0xA0 SHL SUB AND PUSH2 0x21F PUSH2 0x36E JUMP JUMPDEST PUSH1 0x1 PUSH1 0x1 PUSH1 0xA0 SHL SUB AND EQ PUSH2 0x245 JUMPI PUSH1 0x40 MLOAD PUSH3 0x461BCD PUSH1 0xE5 SHL DUP2 MSTORE PUSH1 0x4 ADD PUSH2 0x1C6 SWAP1 PUSH2 0xDF2 JUMP JUMPDEST POP PUSH1 0x65 DUP1 SLOAD PUSH1 0x1 PUSH1 0x1 PUSH1 0xA0 SHL SUB NOT AND PUSH1 0x1 PUSH1 0x1 PUSH1 0xA0 SHL SUB DUP4 AND OR SWAP1 SSTORE PUSH1 0x1 JUMPDEST SWAP2 SWAP1 POP JUMP JUMPDEST PUSH2 0x271 PUSH2 0x4E8 JUMP JUMPDEST PUSH1 0x1 PUSH1 0x1 PUSH1 0xA0 SHL SUB AND PUSH2 0x282 PUSH2 0x36E JUMP JUMPDEST PUSH1 0x1 PUSH1 0x1 PUSH1 0xA0 SHL SUB AND EQ PUSH2 0x2A8 JUMPI PUSH1 0x40 MLOAD PUSH3 0x461BCD PUSH1 0xE5 SHL DUP2 MSTORE PUSH1 0x4 ADD PUSH2 0x1C6 SWAP1 PUSH2 0xDF2 JUMP JUMPDEST PUSH2 0x2B2 PUSH1 0x0 PUSH2 0x51A JUMP JUMPDEST JUMP JUMPDEST CALLER PUSH1 0x0 SWAP1 DUP2 MSTORE PUSH1 0x67 PUSH1 0x20 MSTORE PUSH1 0x40 DUP2 KECCAK256 SLOAD PUSH1 0xFF AND PUSH2 0x2E3 JUMPI PUSH1 0x40 MLOAD PUSH3 0x461BCD PUSH1 0xE5 SHL DUP2 MSTORE PUSH1 0x4 ADD PUSH2 0x1C6 SWAP1 PUSH2 0xD8A JUMP JUMPDEST DUP4 PUSH1 0x66 SLOAD TIMESTAMP PUSH2 0x2F2 SWAP2 SWAP1 PUSH2 0xE30 JUMP JUMPDEST LT PUSH2 0x30F JUMPI PUSH1 0x40 MLOAD PUSH3 0x461BCD PUSH1 0xE5 SHL DUP2 MSTORE PUSH1 0x4 ADD PUSH2 0x1C6 SWAP1 PUSH2 0xC56 JUMP JUMPDEST PUSH1 0x0 DUP6 DUP6 DUP6 PUSH1 0x40 MLOAD PUSH1 0x20 ADD PUSH2 0x326 SWAP4 SWAP3 SWAP2 SWAP1 PUSH2 0xB94 JUMP JUMPDEST PUSH1 0x40 MLOAD PUSH1 0x20 DUP2 DUP4 SUB SUB DUP2 MSTORE SWAP1 PUSH1 0x40 MSTORE DUP1 MLOAD SWAP1 PUSH1 0x20 ADD KECCAK256 SWAP1 POP PUSH1 0x0 PUSH2 0x352 PUSH2 0x34C DUP4 PUSH2 0x56C JUMP JUMPDEST DUP6 PUSH2 0x59C JUMP JUMPDEST PUSH1 0x65 SLOAD PUSH1 0x1 PUSH1 0x1 PUSH1 0xA0 SHL SUB SWAP2 DUP3 AND SWAP2 AND EQ SWAP8 SWAP7 POP POP POP POP POP POP POP JUMP JUMPDEST PUSH1 0x33 SLOAD PUSH1 0x1 PUSH1 0x1 PUSH1 0xA0 SHL SUB AND SWAP1 JUMP JUMPDEST PUSH1 0x66 SLOAD DUP2 JUMP JUMPDEST PUSH1 0x0 SLOAD PUSH2 0x100 SWAP1 DIV PUSH1 0xFF AND DUP1 PUSH2 0x39C JUMPI POP PUSH1 0x0 SLOAD PUSH1 0xFF AND ISZERO JUMPDEST PUSH2 0x3B8 JUMPI PUSH1 0x40 MLOAD PUSH3 0x461BCD PUSH1 0xE5 SHL DUP2 MSTORE PUSH1 0x4 ADD PUSH2 0x1C6 SWAP1 PUSH2 0xD3C JUMP JUMPDEST PUSH1 0x0 SLOAD PUSH2 0x100 SWAP1 DIV PUSH1 0xFF AND ISZERO DUP1 ISZERO PUSH2 0x3E3 JUMPI PUSH1 0x0 DUP1 SLOAD PUSH1 0xFF NOT PUSH2 0xFF00 NOT SWAP1 SWAP2 AND PUSH2 0x100 OR AND PUSH1 0x1 OR SWAP1 SSTORE JUMPDEST PUSH2 0x3EB PUSH2 0x5C0 JUMP JUMPDEST PUSH2 0x3F6 DUP3 PUSH1 0x1 PUSH2 0x4EC JUMP JUMPDEST POP PUSH1 0x65 DUP1 SLOAD PUSH1 0x1 PUSH1 0x1 PUSH1 0xA0 SHL SUB NOT AND PUSH1 0x1 PUSH1 0x1 PUSH1 0xA0 SHL SUB DUP5 AND OR SWAP1 SSTORE PUSH1 0x3C PUSH1 0x66 SSTORE DUP1 ISZERO PUSH2 0x429 JUMPI PUSH1 0x0 DUP1 SLOAD PUSH2 0xFF00 NOT AND SWAP1 SSTORE JUMPDEST POP POP JUMP JUMPDEST PUSH1 0x0 PUSH2 0x437 PUSH2 0x4E8 JUMP JUMPDEST PUSH1 0x1 PUSH1 0x1 PUSH1 0xA0 SHL SUB AND PUSH2 0x448 PUSH2 0x36E JUMP JUMPDEST PUSH1 0x1 PUSH1 0x1 PUSH1 0xA0 SHL SUB AND EQ PUSH2 0x46E JUMPI PUSH1 0x40 MLOAD PUSH3 0x461BCD PUSH1 0xE5 SHL DUP2 MSTORE PUSH1 0x4 ADD PUSH2 0x1C6 SWAP1 PUSH2 0xDF2 JUMP JUMPDEST POP PUSH1 0x66 SSTORE PUSH1 0x1 SWAP1 JUMP JUMPDEST PUSH2 0x47F PUSH2 0x4E8 JUMP JUMPDEST PUSH1 0x1 PUSH1 0x1 PUSH1 0xA0 SHL SUB AND PUSH2 0x490 PUSH2 0x36E JUMP JUMPDEST PUSH1 0x1 PUSH1 0x1 PUSH1 0xA0 SHL SUB AND EQ PUSH2 0x4B6 JUMPI PUSH1 0x40 MLOAD PUSH3 0x461BCD PUSH1 0xE5 SHL DUP2 MSTORE PUSH1 0x4 ADD PUSH2 0x1C6 SWAP1 PUSH2 0xDF2 JUMP JUMPDEST PUSH1 0x1 PUSH1 0x1 PUSH1 0xA0 SHL SUB DUP2 AND PUSH2 0x4DC JUMPI PUSH1 0x40 MLOAD PUSH3 0x461BCD PUSH1 0xE5 SHL DUP2 MSTORE PUSH1 0x4 ADD PUSH2 0x1C6 SWAP1 PUSH2 0xCB4 JUMP JUMPDEST PUSH2 0x4E5 DUP2 PUSH2 0x51A JUMP JUMPDEST POP JUMP JUMPDEST CALLER SWAP1 JUMP JUMPDEST PUSH1 0x1 PUSH1 0x1 PUSH1 0xA0 SHL SUB DUP3 AND PUSH1 0x0 SWAP1 DUP2 MSTORE PUSH1 0x67 PUSH1 0x20 MSTORE PUSH1 0x40 SWAP1 KECCAK256 DUP1 SLOAD DUP3 ISZERO ISZERO PUSH1 0xFF NOT SWAP1 SWAP2 AND OR SWAP1 SSTORE PUSH1 0x1 SWAP3 SWAP2 POP POP JUMP JUMPDEST PUSH1 0x33 DUP1 SLOAD PUSH1 0x1 PUSH1 0x1 PUSH1 0xA0 SHL SUB DUP4 DUP2 AND PUSH1 0x1 PUSH1 0x1 PUSH1 0xA0 SHL SUB NOT DUP4 AND DUP2 OR SWAP1 SWAP4 SSTORE PUSH1 0x40 MLOAD SWAP2 AND SWAP2 SWAP1 DUP3 SWAP1 PUSH32 0x8BE0079C531659141344CD1FD0A4F28419497F9722A3DAAFE3B4186F6B6457E0 SWAP1 PUSH1 0x0 SWAP1 LOG3 POP POP JUMP JUMPDEST PUSH1 0x0 DUP2 PUSH1 0x40 MLOAD PUSH1 0x20 ADD PUSH2 0x57F SWAP2 SWAP1 PUSH2 0xB63 JUMP JUMPDEST PUSH1 0x40 MLOAD PUSH1 0x20 DUP2 DUP4 SUB SUB DUP2 MSTORE SWAP1 PUSH1 0x40 MSTORE DUP1 MLOAD SWAP1 PUSH1 0x20 ADD KECCAK256 SWAP1 POP SWAP2 SWAP1 POP JUMP JUMPDEST PUSH1 0x0 DUP1 PUSH1 0x0 PUSH2 0x5AB DUP6 DUP6 PUSH2 0x644 JUMP JUMPDEST SWAP2 POP SWAP2 POP PUSH2 0x5B8 DUP2 PUSH2 0x6B4 JUMP JUMPDEST POP SWAP4 SWAP3 POP POP POP JUMP JUMPDEST PUSH1 0x0 SLOAD PUSH2 0x100 SWAP1 DIV PUSH1 0xFF AND DUP1 PUSH2 0x5D9 JUMPI POP PUSH1 0x0 SLOAD PUSH1 0xFF AND ISZERO JUMPDEST PUSH2 0x5F5 JUMPI PUSH1 0x40 MLOAD PUSH3 0x461BCD PUSH1 0xE5 SHL DUP2 MSTORE PUSH1 0x4 ADD PUSH2 0x1C6 SWAP1 PUSH2 0xD3C JUMP JUMPDEST PUSH1 0x0 SLOAD PUSH2 0x100 SWAP1 DIV PUSH1 0xFF AND ISZERO DUP1 ISZERO PUSH2 0x620 JUMPI PUSH1 0x0 DUP1 SLOAD PUSH1 0xFF NOT PUSH2 0xFF00 NOT SWAP1 SWAP2 AND PUSH2 0x100 OR AND PUSH1 0x1 OR SWAP1 SSTORE JUMPDEST PUSH2 0x628 PUSH2 0x7E1 JUMP JUMPDEST PUSH2 0x630 PUSH2 0x854 JUMP JUMPDEST DUP1 ISZERO PUSH2 0x4E5 JUMPI PUSH1 0x0 DUP1 SLOAD PUSH2 0xFF00 NOT AND SWAP1 SSTORE POP JUMP JUMPDEST PUSH1 0x0 DUP1 DUP3 MLOAD PUSH1 0x41 EQ ISZERO PUSH2 0x67B JUMPI PUSH1 0x20 DUP4 ADD MLOAD PUSH1 0x40 DUP5 ADD MLOAD PUSH1 0x60 DUP6 ADD MLOAD PUSH1 0x0 BYTE PUSH2 0x66F DUP8 DUP3 DUP6 DUP6 PUSH2 0x8C4 JUMP JUMPDEST SWAP5 POP SWAP5 POP POP POP POP PUSH2 0x6AD JUMP JUMPDEST DUP3 MLOAD PUSH1 0x40 EQ ISZERO PUSH2 0x6A5 JUMPI PUSH1 0x20 DUP4 ADD MLOAD PUSH1 0x40 DUP5 ADD MLOAD PUSH2 0x69A DUP7 DUP4 DUP4 PUSH2 0x9A4 JUMP JUMPDEST SWAP4 POP SWAP4 POP POP POP PUSH2 0x6AD JUMP JUMPDEST POP PUSH1 0x0 SWAP1 POP PUSH1 0x2 JUMPDEST SWAP3 POP SWAP3 SWAP1 POP JUMP JUMPDEST PUSH1 0x0 DUP2 PUSH1 0x4 DUP2 GT ISZERO PUSH2 0x6D6 JUMPI PUSH4 0x4E487B71 PUSH1 0xE0 SHL PUSH1 0x0 MSTORE PUSH1 0x21 PUSH1 0x4 MSTORE PUSH1 0x24 PUSH1 0x0 REVERT JUMPDEST EQ ISZERO PUSH2 0x6E1 JUMPI PUSH2 0x4E5 JUMP JUMPDEST PUSH1 0x1 DUP2 PUSH1 0x4 DUP2 GT ISZERO PUSH2 0x703 JUMPI PUSH4 0x4E487B71 PUSH1 0xE0 SHL PUSH1 0x0 MSTORE PUSH1 0x21 PUSH1 0x4 MSTORE PUSH1 0x24 PUSH1 0x0 REVERT JUMPDEST EQ ISZERO PUSH2 0x721 JUMPI PUSH1 0x40 MLOAD PUSH3 0x461BCD PUSH1 0xE5 SHL DUP2 MSTORE PUSH1 0x4 ADD PUSH2 0x1C6 SWAP1 PUSH2 0xC1F JUMP JUMPDEST PUSH1 0x2 DUP2 PUSH1 0x4 DUP2 GT ISZERO PUSH2 0x743 JUMPI PUSH4 0x4E487B71 PUSH1 0xE0 SHL PUSH1 0x0 MSTORE PUSH1 0x21 PUSH1 0x4 MSTORE PUSH1 0x24 PUSH1 0x0 REVERT JUMPDEST EQ ISZERO PUSH2 0x761 JUMPI PUSH1 0x40 MLOAD PUSH3 0x461BCD PUSH1 0xE5 SHL DUP2 MSTORE PUSH1 0x4 ADD PUSH2 0x1C6 SWAP1 PUSH2 0xC7D JUMP JUMPDEST PUSH1 0x3 DUP2 PUSH1 0x4 DUP2 GT ISZERO PUSH2 0x783 JUMPI PUSH4 0x4E487B71 PUSH1 0xE0 SHL PUSH1 0x0 MSTORE PUSH1 0x21 PUSH1 0x4 MSTORE PUSH1 0x24 PUSH1 0x0 REVERT JUMPDEST EQ ISZERO PUSH2 0x7A1 JUMPI PUSH1 0x40 MLOAD PUSH3 0x461BCD PUSH1 0xE5 SHL DUP2 MSTORE PUSH1 0x4 ADD PUSH2 0x1C6 SWAP1 PUSH2 0xCFA JUMP JUMPDEST PUSH1 0x4 DUP2 PUSH1 0x4 DUP2 GT ISZERO PUSH2 0x7C3 JUMPI PUSH4 0x4E487B71 PUSH1 0xE0 SHL PUSH1 0x0 MSTORE PUSH1 0x21 PUSH1 0x4 MSTORE PUSH1 0x24 PUSH1 0x0 REVERT JUMPDEST EQ ISZERO PUSH2 0x4E5 JUMPI PUSH1 0x40 MLOAD PUSH3 0x461BCD PUSH1 0xE5 SHL DUP2 MSTORE PUSH1 0x4 ADD PUSH2 0x1C6 SWAP1 PUSH2 0xDB0 JUMP JUMPDEST PUSH1 0x0 SLOAD PUSH2 0x100 SWAP1 DIV PUSH1 0xFF AND DUP1 PUSH2 0x7FA JUMPI POP PUSH1 0x0 SLOAD PUSH1 0xFF AND ISZERO JUMPDEST PUSH2 0x816 JUMPI PUSH1 0x40 MLOAD PUSH3 0x461BCD PUSH1 0xE5 SHL DUP2 MSTORE PUSH1 0x4 ADD PUSH2 0x1C6 SWAP1 PUSH2 0xD3C JUMP JUMPDEST PUSH1 0x0 SLOAD PUSH2 0x100 SWAP1 DIV PUSH1 0xFF AND ISZERO DUP1 ISZERO PUSH2 0x630 JUMPI PUSH1 0x0 DUP1 SLOAD PUSH1 0xFF NOT PUSH2 0xFF00 NOT SWAP1 SWAP2 AND PUSH2 0x100 OR AND PUSH1 0x1 OR SWAP1 SSTORE DUP1 ISZERO PUSH2 0x4E5 JUMPI PUSH1 0x0 DUP1 SLOAD PUSH2 0xFF00 NOT AND SWAP1 SSTORE POP JUMP JUMPDEST PUSH1 0x0 SLOAD PUSH2 0x100 SWAP1 DIV PUSH1 0xFF AND DUP1 PUSH2 0x86D JUMPI POP PUSH1 0x0 SLOAD PUSH1 0xFF AND ISZERO JUMPDEST PUSH2 0x889 JUMPI PUSH1 0x40 MLOAD PUSH3 0x461BCD PUSH1 0xE5 SHL DUP2 MSTORE PUSH1 0x4 ADD PUSH2 0x1C6 SWAP1 PUSH2 0xD3C JUMP JUMPDEST PUSH1 0x0 SLOAD PUSH2 0x100 SWAP1 DIV PUSH1 0xFF AND ISZERO DUP1 ISZERO PUSH2 0x8B4 JUMPI PUSH1 0x0 DUP1 SLOAD PUSH1 0xFF NOT PUSH2 0xFF00 NOT SWAP1 SWAP2 AND PUSH2 0x100 OR AND PUSH1 0x1 OR SWAP1 SSTORE JUMPDEST PUSH2 0x630 PUSH2 0x8BF PUSH2 0x4E8 JUMP JUMPDEST PUSH2 0x51A JUMP JUMPDEST PUSH1 0x0 DUP1 PUSH32 0x7FFFFFFFFFFFFFFFFFFFFFFFFFFFFFFF5D576E7357A4501DDFE92F46681B20A0 DUP4 GT ISZERO PUSH2 0x8FB JUMPI POP PUSH1 0x0 SWAP1 POP PUSH1 0x3 PUSH2 0x99B JUMP JUMPDEST DUP5 PUSH1 0xFF AND PUSH1 0x1B EQ ISZERO DUP1 ISZERO PUSH2 0x913 JUMPI POP DUP5 PUSH1 0xFF AND PUSH1 0x1C EQ ISZERO JUMPDEST ISZERO PUSH2 0x924 JUMPI POP PUSH1 0x0 SWAP1 POP PUSH1 0x4 PUSH2 0x99B JUMP JUMPDEST PUSH1 0x0 PUSH1 0x1 DUP8 DUP8 DUP8 DUP8 PUSH1 0x40 MLOAD PUSH1 0x0 DUP2 MSTORE PUSH1 0x20 ADD PUSH1 0x40 MSTORE PUSH1 0x40 MLOAD PUSH2 0x949 SWAP5 SWAP4 SWAP3 SWAP2 SWAP1 PUSH2 0xC01 JUMP JUMPDEST PUSH1 0x20 PUSH1 0x40 MLOAD PUSH1 0x20 DUP2 SUB SWAP1 DUP1 DUP5 SUB SWAP1 DUP6 GAS STATICCALL ISZERO DUP1 ISZERO PUSH2 0x96B JUMPI RETURNDATASIZE PUSH1 0x0 DUP1 RETURNDATACOPY RETURNDATASIZE PUSH1 0x0 REVERT JUMPDEST POP POP PUSH1 0x40 MLOAD PUSH1 0x1F NOT ADD MLOAD SWAP2 POP POP PUSH1 0x1 PUSH1 0x1 PUSH1 0xA0 SHL SUB DUP2 AND PUSH2 0x994 JUMPI PUSH1 0x0 PUSH1 0x1 SWAP3 POP SWAP3 POP POP PUSH2 0x99B JUMP JUMPDEST SWAP2 POP PUSH1 0x0 SWAP1 POP JUMPDEST SWAP5 POP SWAP5 SWAP3 POP POP POP JUMP JUMPDEST PUSH1 0x0 DUP1 PUSH1 0x1 PUSH1 0x1 PUSH1 0xFF SHL SUB DUP4 AND PUSH1 0xFF DUP5 SWAP1 SHR PUSH1 0x1B ADD PUSH2 0x9C5 DUP8 DUP3 DUP9 DUP6 PUSH2 0x8C4 JUMP JUMPDEST SWAP4 POP SWAP4 POP POP POP SWAP4 POP SWAP4 SWAP2 POP POP JUMP JUMPDEST PUSH1 0x0 PUSH8 0xFFFFFFFFFFFFFFFF DUP1 DUP5 GT ISZERO PUSH2 0x9EE JUMPI PUSH2 0x9EE PUSH2 0xE53 JUMP JUMPDEST PUSH1 0x40 MLOAD PUSH1 0x1F DUP6 ADD PUSH1 0x1F NOT AND DUP2 ADD PUSH1 0x20 ADD DUP3 DUP2 GT DUP3 DUP3 LT OR ISZERO PUSH2 0xA12 JUMPI PUSH2 0xA12 PUSH2 0xE53 JUMP JUMPDEST PUSH1 0x40 MSTORE DUP5 DUP2 MSTORE SWAP2 POP DUP2 DUP4 DUP6 ADD DUP7 LT ISZERO PUSH2 0xA2A JUMPI PUSH1 0x0 DUP1 REVERT JUMPDEST DUP5 DUP5 PUSH1 0x20 DUP4 ADD CALLDATACOPY PUSH1 0x0 PUSH1 0x20 DUP7 DUP4 ADD ADD MSTORE POP POP SWAP4 SWAP3 POP POP POP JUMP JUMPDEST DUP1 CALLDATALOAD PUSH1 0x1 PUSH1 0x1 PUSH1 0xA0 SHL SUB DUP2 AND DUP2 EQ PUSH2 0x264 JUMPI PUSH1 0x0 DUP1 REVERT JUMPDEST PUSH1 0x0 PUSH1 0x20 DUP3 DUP5 SUB SLT ISZERO PUSH2 0xA6B JUMPI DUP1 DUP2 REVERT JUMPDEST PUSH2 0x1D9 DUP3 PUSH2 0xA43 JUMP JUMPDEST PUSH1 0x0 DUP1 PUSH1 0x40 DUP4 DUP6 SUB SLT ISZERO PUSH2 0xA86 JUMPI DUP1 DUP2 REVERT JUMPDEST PUSH2 0xA8F DUP4 PUSH2 0xA43 JUMP JUMPDEST SWAP2 POP PUSH1 0x20 DUP4 ADD CALLDATALOAD DUP1 ISZERO ISZERO DUP2 EQ PUSH2 0xAA3 JUMPI DUP2 DUP3 REVERT JUMPDEST DUP1 SWAP2 POP POP SWAP3 POP SWAP3 SWAP1 POP JUMP JUMPDEST PUSH1 0x0 PUSH1 0x20 DUP3 DUP5 SUB SLT ISZERO PUSH2 0xABF JUMPI DUP1 DUP2 REVERT JUMPDEST POP CALLDATALOAD SWAP2 SWAP1 POP JUMP JUMPDEST PUSH1 0x0 DUP1 PUSH1 0x0 DUP1 PUSH1 0x80 DUP6 DUP8 SUB SLT ISZERO PUSH2 0xADB JUMPI DUP2 DUP3 REVERT JUMPDEST DUP5 CALLDATALOAD SWAP4 POP PUSH1 0x20 DUP6 ADD CALLDATALOAD SWAP3 POP PUSH1 0x40 DUP6 ADD CALLDATALOAD PUSH8 0xFFFFFFFFFFFFFFFF DUP1 DUP3 GT ISZERO PUSH2 0xB00 JUMPI DUP4 DUP5 REVERT JUMPDEST DUP2 DUP8 ADD SWAP2 POP DUP8 PUSH1 0x1F DUP4 ADD SLT PUSH2 0xB13 JUMPI DUP4 DUP5 REVERT JUMPDEST PUSH2 0xB22 DUP9 DUP4 CALLDATALOAD PUSH1 0x20 DUP6 ADD PUSH2 0x9D3 JUMP JUMPDEST SWAP4 POP PUSH1 0x60 DUP8 ADD CALLDATALOAD SWAP2 POP DUP1 DUP3 GT ISZERO PUSH2 0xB37 JUMPI DUP3 DUP4 REVERT JUMPDEST POP DUP6 ADD PUSH1 0x1F DUP2 ADD DUP8 SGT PUSH2 0xB48 JUMPI DUP2 DUP3 REVERT JUMPDEST PUSH2 0xB57 DUP8 DUP3 CALLDATALOAD PUSH1 0x20 DUP5 ADD PUSH2 0x9D3 JUMP JUMPDEST SWAP2 POP POP SWAP3 SWAP6 SWAP2 SWAP5 POP SWAP3 POP JUMP JUMPDEST PUSH32 0x19457468657265756D205369676E6564204D6573736167653A0A333200000000 DUP2 MSTORE PUSH1 0x1C DUP2 ADD SWAP2 SWAP1 SWAP2 MSTORE PUSH1 0x3C ADD SWAP1 JUMP JUMPDEST PUSH1 0x0 DUP5 DUP3 MSTORE PUSH1 0x20 DUP5 DUP2 DUP5 ADD MSTORE DUP4 MLOAD DUP3 JUMPDEST DUP2 DUP2 LT ISZERO PUSH2 0xBC0 JUMPI DUP6 DUP2 ADD DUP4 ADD MLOAD DUP6 DUP3 ADD PUSH1 0x40 ADD MSTORE DUP3 ADD PUSH2 0xBA4 JUMP JUMPDEST DUP2 DUP2 GT ISZERO PUSH2 0xBD1 JUMPI DUP4 PUSH1 0x40 DUP4 DUP8 ADD ADD MSTORE JUMPDEST POP SWAP3 SWAP1 SWAP3 ADD PUSH1 0x40 ADD SWAP6 SWAP5 POP POP POP POP POP JUMP JUMPDEST PUSH1 0x1 PUSH1 0x1 PUSH1 0xA0 SHL SUB SWAP2 SWAP1 SWAP2 AND DUP2 MSTORE PUSH1 0x20 ADD SWAP1 JUMP JUMPDEST SWAP1 ISZERO ISZERO DUP2 MSTORE PUSH1 0x20 ADD SWAP1 JUMP JUMPDEST SWAP4 DUP5 MSTORE PUSH1 0xFF SWAP3 SWAP1 SWAP3 AND PUSH1 0x20 DUP5 ADD MSTORE PUSH1 0x40 DUP4 ADD MSTORE PUSH1 0x60 DUP3 ADD MSTORE PUSH1 0x80 ADD SWAP1 JUMP JUMPDEST PUSH1 0x20 DUP1 DUP3 MSTORE PUSH1 0x18 SWAP1 DUP3 ADD MSTORE PUSH32 0x45434453413A20696E76616C6964207369676E61747572650000000000000000 PUSH1 0x40 DUP3 ADD MSTORE PUSH1 0x60 ADD SWAP1 JUMP JUMPDEST PUSH1 0x20 DUP1 DUP3 MSTORE PUSH1 0xD SWAP1 DUP3 ADD MSTORE PUSH13 0x3A34B6B2B9BA30B6B81032B939 PUSH1 0x99 SHL PUSH1 0x40 DUP3 ADD MSTORE PUSH1 0x60 ADD SWAP1 JUMP JUMPDEST PUSH1 0x20 DUP1 DUP3 MSTORE PUSH1 0x1F SWAP1 DUP3 ADD MSTORE PUSH32 0x45434453413A20696E76616C6964207369676E6174757265206C656E67746800 PUSH1 0x40 DUP3 ADD MSTORE PUSH1 0x60 ADD SWAP1 JUMP JUMPDEST PUSH1 0x20 DUP1 DUP3 MSTORE PUSH1 0x26 SWAP1 DUP3 ADD MSTORE PUSH32 0x4F776E61626C653A206E6577206F776E657220697320746865207A65726F2061 PUSH1 0x40 DUP3 ADD MSTORE PUSH6 0x646472657373 PUSH1 0xD0 SHL PUSH1 0x60 DUP3 ADD MSTORE PUSH1 0x80 ADD SWAP1 JUMP JUMPDEST PUSH1 0x20 DUP1 DUP3 MSTORE PUSH1 0x22 SWAP1 DUP3 ADD MSTORE PUSH32 0x45434453413A20696E76616C6964207369676E6174757265202773272076616C PUSH1 0x40 DUP3 ADD MSTORE PUSH2 0x7565 PUSH1 0xF0 SHL PUSH1 0x60 DUP3 ADD MSTORE PUSH1 0x80 ADD SWAP1 JUMP JUMPDEST PUSH1 0x20 DUP1 DUP3 MSTORE PUSH1 0x2E SWAP1 DUP3 ADD MSTORE PUSH32 0x496E697469616C697A61626C653A20636F6E747261637420697320616C726561 PUSH1 0x40 DUP3 ADD MSTORE PUSH14 0x191E481A5B9A5D1A585B1A5E9959 PUSH1 0x92 SHL PUSH1 0x60 DUP3 ADD MSTORE PUSH1 0x80 ADD SWAP1 JUMP JUMPDEST PUSH1 0x20 DUP1 DUP3 MSTORE PUSH1 0xC SWAP1 DUP3 ADD MSTORE PUSH12 0x32BC32B1BABA37B91032B939 PUSH1 0xA1 SHL PUSH1 0x40 DUP3 ADD MSTORE PUSH1 0x60 ADD SWAP1 JUMP JUMPDEST PUSH1 0x20 DUP1 DUP3 MSTORE PUSH1 0x22 SWAP1 DUP3 ADD MSTORE PUSH32 0x45434453413A20696E76616C6964207369676E6174757265202776272076616C PUSH1 0x40 DUP3 ADD MSTORE PUSH2 0x7565 PUSH1 0xF0 SHL PUSH1 0x60 DUP3 ADD MSTORE PUSH1 0x80 ADD SWAP1 JUMP JUMPDEST PUSH1 0x20 DUP1 DUP3 MSTORE DUP2 DUP2 ADD MSTORE PUSH32 0x4F776E61626C653A2063616C6C6572206973206E6F7420746865206F776E6572 PUSH1 0x40 DUP3 ADD MSTORE PUSH1 0x60 ADD SWAP1 JUMP JUMPDEST SWAP1 DUP2 MSTORE PUSH1 0x20 ADD SWAP1 JUMP JUMPDEST PUSH1 0x0 DUP3 DUP3 LT ISZERO PUSH2 0xE4E JUMPI PUSH4 0x4E487B71 PUSH1 0xE0 SHL DUP2 MSTORE PUSH1 0x11 PUSH1 0x4 MSTORE PUSH1 0x24 DUP2 REVERT JUMPDEST POP SUB SWAP1 JUMP JUMPDEST PUSH4 0x4E487B71 PUSH1 0xE0 SHL PUSH1 0x0 MSTORE PUSH1 0x41 PUSH1 0x4 MSTORE PUSH1 0x24 PUSH1 0x0 REVERT INVALID LOG2 PUSH5 0x6970667358 0x22 SLT KECCAK256 ADDMOD SWAP7 DUP3 EXTCODESIZE SUB 0xD4 CALLDATACOPY PUSH18 0x36E898C0963A737805BF4D019615C919AC02 CALLDATALOAD JUMPI COINBASE PUSH1 0x4D SWAP13 PUSH5 0x736F6C6343 STOP ADDMOD STOP STOP CALLER "
				},
				"gasEstimates": {
					"creation": {
						"codeDepositCost": "748600",
						"executionCost": "779",
						"totalCost": "749379"
					},
					"external": {
						"executor(address)": "1309",
						"getkey(uint256,uint256,string,bytes)": "infinite",
						"initialize(address)": "infinite",
						"owner()": "1092",
						"renounceOwnership()": "23596",
						"setExecutor(address,bool)": "22358",
						"setSigner(address)": "infinite",
						"setTimeLimit(uint256)": "21337",
						"signer()": "1093",
						"timeLimit()": "1072",
						"transferOwnership(address)": "23812"
					},
					"internal": {
						"_setExecutor(address,bool)": "20951"
					}
				},
				"methodIdentifiers": {
					"executor(address)": "48c7e528",
					"getkey(uint256,uint256,string,bytes)": "81952f3b",
					"initialize(address)": "c4d66de8",
					"owner()": "8da5cb5b",
					"renounceOwnership()": "715018a6",
					"setExecutor(address,bool)": "1e1bff3f",
					"setSigner(address)": "6c19e783",
					"setTimeLimit(uint256)": "e2889c82",
					"signer()": "238ac933",
					"timeLimit()": "c08d1fe5",
					"transferOwnership(address)": "f2fde38b"
				}
			},
			"storageLayout": {
				"storage": [
					{
						"astId": 130,
						"contract": "contracts/oracle.sol:Oracle",
						"label": "_initialized",
						"offset": 0,
						"slot": "0",
						"type": "t_bool"
					},
					{
						"astId": 133,
						"contract": "contracts/oracle.sol:Oracle",
						"label": "_initializing",
						"offset": 1,
						"slot": "0",
						"type": "t_bool"
					},
					{
						"astId": 213,
						"contract": "contracts/oracle.sol:Oracle",
						"label": "__gap",
						"offset": 0,
						"slot": "1",
						"type": "t_array(t_uint256)50_storage"
					},
					{
						"astId": 10,
						"contract": "contracts/oracle.sol:Oracle",
						"label": "_owner",
						"offset": 0,
						"slot": "51",
						"type": "t_address"
					},
					{
						"astId": 124,
						"contract": "contracts/oracle.sol:Oracle",
						"label": "__gap",
						"offset": 0,
						"slot": "52",
						"type": "t_array(t_uint256)49_storage"
					},
					{
						"astId": 1528,
						"contract": "contracts/oracle.sol:Oracle",
						"label": "signer",
						"offset": 0,
						"slot": "101",
						"type": "t_address"
					},
					{
						"astId": 1530,
						"contract": "contracts/oracle.sol:Oracle",
						"label": "timeLimit",
						"offset": 0,
						"slot": "102",
						"type": "t_uint256"
					},
					{
						"astId": 1534,
						"contract": "contracts/oracle.sol:Oracle",
						"label": "executor",
						"offset": 0,
						"slot": "103",
						"type": "t_mapping(t_address,t_bool)"
					}
				],
				"types": {
					"t_address": {
						"encoding": "inplace",
						"label": "address",
						"numberOfBytes": "20"
					},
					"t_array(t_uint256)49_storage": {
						"base": "t_uint256",
						"encoding": "inplace",
						"label": "uint256[49]",
						"numberOfBytes": "1568"
					},
					"t_array(t_uint256)50_storage": {
						"base": "t_uint256",
						"encoding": "inplace",
						"label": "uint256[50]",
						"numberOfBytes": "1600"
					},
					"t_bool": {
						"encoding": "inplace",
						"label": "bool",
						"numberOfBytes": "1"
					},
					"t_mapping(t_address,t_bool)": {
						"encoding": "mapping",
						"key": "t_address",
						"label": "mapping(address => bool)",
						"numberOfBytes": "32",
						"value": "t_bool"
					},
					"t_uint256": {
						"encoding": "inplace",
						"label": "uint256",
						"numberOfBytes": "32"
					}
				}
			},
			"userdoc": {
				"kind": "user",
				"methods": {},
				"version": 1
			}
		}
	}
}