{
	"contracts/oracle.sol": {
		"Oracle": {
			"abi": [
				{
					"anonymous": false,
					"inputs": [
						{
							"indexed": true,
							"internalType": "address",
							"name": "previousOwner",
							"type": "address"
						},
						{
							"indexed": true,
							"internalType": "address",
							"name": "newOwner",
							"type": "address"
						}
					],
					"name": "OwnershipTransferred",
					"type": "event"
				},
				{
					"inputs": [
						{
							"internalType": "address",
							"name": "",
							"type": "address"
						}
					],
					"name": "executor",
					"outputs": [
						{
							"internalType": "bool",
							"name": "",
							"type": "bool"
						}
					],
					"stateMutability": "view",
					"type": "function"
				},
				{
					"inputs": [
						{
							"internalType": "bool",
							"name": "_marketState",
							"type": "bool"
						},
						{
							"internalType": "uint256",
							"name": "_price18",
							"type": "uint256"
						},
						{
							"internalType": "uint256",
							"name": "_timestamp",
							"type": "uint256"
						},
						{
							"internalType": "string",
							"name": "_symbols",
							"type": "string"
						},
						{
							"internalType": "bytes",
							"name": "_signature",
							"type": "bytes"
						}
					],
					"name": "getkey",
					"outputs": [
						{
							"internalType": "bool",
							"name": "",
							"type": "bool"
						}
					],
					"stateMutability": "view",
					"type": "function"
				},
				{
					"inputs": [
						{
							"internalType": "address",
							"name": "_signer",
							"type": "address"
						}
					],
					"name": "initialize",
					"outputs": [],
					"stateMutability": "nonpayable",
					"type": "function"
				},
				{
					"inputs": [],
					"name": "owner",
					"outputs": [
						{
							"internalType": "address",
							"name": "",
							"type": "address"
						}
					],
					"stateMutability": "view",
					"type": "function"
				},
				{
					"inputs": [],
					"name": "renounceOwnership",
					"outputs": [],
					"stateMutability": "nonpayable",
					"type": "function"
				},
				{
					"inputs": [
						{
							"internalType": "address",
							"name": "_address",
							"type": "address"
						},
						{
							"internalType": "bool",
							"name": "_type",
							"type": "bool"
						}
					],
					"name": "setExecutor",
					"outputs": [
						{
							"internalType": "bool",
							"name": "",
							"type": "bool"
						}
					],
					"stateMutability": "nonpayable",
					"type": "function"
				},
				{
					"inputs": [
						{
							"internalType": "address",
							"name": "_address",
							"type": "address"
						}
					],
					"name": "setSigner",
					"outputs": [
						{
							"internalType": "bool",
							"name": "",
							"type": "bool"
						}
					],
					"stateMutability": "nonpayable",
					"type": "function"
				},
				{
					"inputs": [
						{
							"internalType": "uint256",
							"name": "_val",
							"type": "uint256"
						}
					],
					"name": "setTimeLimit",
					"outputs": [
						{
							"internalType": "bool",
							"name": "",
							"type": "bool"
						}
					],
					"stateMutability": "nonpayable",
					"type": "function"
				},
				{
					"inputs": [],
					"name": "signer",
					"outputs": [
						{
							"internalType": "address",
							"name": "",
							"type": "address"
						}
					],
					"stateMutability": "view",
					"type": "function"
				},
				{
					"inputs": [],
					"name": "timeLimit",
					"outputs": [
						{
							"internalType": "uint256",
							"name": "",
							"type": "uint256"
						}
					],
					"stateMutability": "view",
					"type": "function"
				},
				{
					"inputs": [
						{
							"internalType": "address",
							"name": "newOwner",
							"type": "address"
						}
					],
					"name": "transferOwnership",
					"outputs": [],
					"stateMutability": "nonpayable",
					"type": "function"
				}
			],
			"devdoc": {
				"kind": "dev",
				"methods": {
					"owner()": {
						"details": "Returns the address of the current owner."
					},
					"renounceOwnership()": {
						"details": "Leaves the contract without owner. It will not be possible to call `onlyOwner` functions anymore. Can only be called by the current owner. NOTE: Renouncing ownership will leave the contract without an owner, thereby removing any functionality that is only available to the owner."
					},
					"transferOwnership(address)": {
						"details": "Transfers ownership of the contract to a new account (`newOwner`). Can only be called by the current owner."
					}
				},
				"version": 1
			},
			"evm": {
				"assembly": "    /* \"contracts/oracle.sol\":436:2415  contract Oracle is Initializable, OwnableUpgradeable {... */\n  mstore(0x40, 0x80)\n  callvalue\n  dup1\n  iszero\n  tag_1\n  jumpi\n  0x00\n  dup1\n  revert\ntag_1:\n  pop\n  dataSize(sub_0)\n  dup1\n  dataOffset(sub_0)\n  0x00\n  codecopy\n  0x00\n  return\nstop\n\nsub_0: assembly {\n        /* \"contracts/oracle.sol\":436:2415  contract Oracle is Initializable, OwnableUpgradeable {... */\n      mstore(0x40, 0x80)\n      callvalue\n      dup1\n      iszero\n      tag_1\n      jumpi\n      0x00\n      dup1\n      revert\n    tag_1:\n      pop\n      jumpi(tag_2, lt(calldatasize, 0x04))\n      shr(0xe0, calldataload(0x00))\n      dup1\n      0x715018a6\n      gt\n      tag_14\n      jumpi\n      dup1\n      0x715018a6\n      eq\n      tag_8\n      jumpi\n      dup1\n      0x8da5cb5b\n      eq\n      tag_9\n      jumpi\n      dup1\n      0xc08d1fe5\n      eq\n      tag_10\n      jumpi\n      dup1\n      0xc4d66de8\n      eq\n      tag_11\n      jumpi\n      dup1\n      0xe2889c82\n      eq\n      tag_12\n      jumpi\n      dup1\n      0xf2fde38b\n      eq\n      tag_13\n      jumpi\n      jump(tag_2)\n    tag_14:\n      dup1\n      0x1e1bff3f\n      eq\n      tag_3\n      jumpi\n      dup1\n      0x238ac933\n      eq\n      tag_4\n      jumpi\n      dup1\n      0x239b93b2\n      eq\n      tag_5\n      jumpi\n      dup1\n      0x48c7e528\n      eq\n      tag_6\n      jumpi\n      dup1\n      0x6c19e783\n      eq\n      tag_7\n      jumpi\n    tag_2:\n      0x00\n      dup1\n      revert\n        /* \"contracts/oracle.sol\":1024:1190  function setExecutor(address _address, bool _type)... */\n    tag_3:\n      tag_15\n      tag_16\n      calldatasize\n      0x04\n      tag_17\n      jump\t// in\n    tag_16:\n      tag_18\n      jump\t// in\n    tag_15:\n      mload(0x40)\n      tag_19\n      swap2\n      swap1\n      tag_20\n      jump\t// in\n    tag_19:\n      mload(0x40)\n      dup1\n      swap2\n      sub\n      swap1\n      return\n        /* \"contracts/oracle.sol\":557:578  address public signer */\n    tag_4:\n      tag_21\n      tag_22\n      jump\t// in\n    tag_21:\n      mload(0x40)\n      tag_19\n      swap2\n      swap1\n      tag_24\n      jump\t// in\n        /* \"contracts/oracle.sol\":1751:2413  function getkey(... */\n    tag_5:\n      tag_15\n      tag_26\n      calldatasize\n      0x04\n      tag_27\n      jump\t// in\n    tag_26:\n      tag_28\n      jump\t// in\n        /* \"contracts/oracle.sol\":629:669  mapping(address => bool) public executor */\n    tag_6:\n      tag_15\n      tag_31\n      calldatasize\n      0x04\n      tag_32\n      jump\t// in\n    tag_31:\n      tag_33\n      jump\t// in\n        /* \"contracts/oracle.sol\":1619:1745  function setSigner(address _address) external onlyOwner returns (bool) {... */\n    tag_7:\n      tag_15\n      tag_36\n      calldatasize\n      0x04\n      tag_32\n      jump\t// in\n    tag_36:\n      tag_37\n      jump\t// in\n        /* \"@openzeppelin/contracts-upgradeable/access/OwnableUpgradeable.sol\":1934:2035  function renounceOwnership() public virtual onlyOwner {... */\n    tag_8:\n      tag_39\n      tag_40\n      jump\t// in\n    tag_39:\n      stop\n        /* \"@openzeppelin/contracts-upgradeable/access/OwnableUpgradeable.sol\":1302:1387  function owner() public view virtual returns (address) {... */\n    tag_9:\n      tag_21\n      tag_42\n      jump\t// in\n        /* \"contracts/oracle.sol\":584:608  uint256 public timeLimit */\n    tag_10:\n      tag_44\n      tag_45\n      jump\t// in\n    tag_44:\n      mload(0x40)\n      tag_19\n      swap2\n      swap1\n      tag_47\n      jump\t// in\n        /* \"contracts/oracle.sol\":840:1018  function initialize(address _signer) external initializer {... */\n    tag_11:\n      tag_39\n      tag_49\n      calldatasize\n      0x04\n      tag_32\n      jump\t// in\n    tag_49:\n      tag_50\n      jump\t// in\n        /* \"contracts/oracle.sol\":1489:1613  function setTimeLimit(uint256 _val) external onlyOwner returns (bool) {... */\n    tag_12:\n      tag_15\n      tag_52\n      calldatasize\n      0x04\n      tag_53\n      jump\t// in\n    tag_52:\n      tag_54\n      jump\t// in\n        /* \"@openzeppelin/contracts-upgradeable/access/OwnableUpgradeable.sol\":2184:2382  function transferOwnership(address newOwner) public virtual onlyOwner {... */\n    tag_13:\n      tag_39\n      tag_57\n      calldatasize\n      0x04\n      tag_32\n      jump\t// in\n    tag_57:\n      tag_58\n      jump\t// in\n        /* \"contracts/oracle.sol\":1024:1190  function setExecutor(address _address, bool _type)... */\n    tag_18:\n        /* \"contracts/oracle.sol\":1127:1131  bool */\n      0x00\n        /* \"@openzeppelin/contracts-upgradeable/access/OwnableUpgradeable.sol\":1525:1537  _msgSender() */\n      tag_60\n        /* \"@openzeppelin/contracts-upgradeable/access/OwnableUpgradeable.sol\":1525:1535  _msgSender */\n      tag_61\n        /* \"@openzeppelin/contracts-upgradeable/access/OwnableUpgradeable.sol\":1525:1537  _msgSender() */\n      jump\t// in\n    tag_60:\n      sub(shl(0xa0, 0x01), 0x01)\n        /* \"@openzeppelin/contracts-upgradeable/access/OwnableUpgradeable.sol\":1514:1537  owner() == _msgSender() */\n      and\n        /* \"@openzeppelin/contracts-upgradeable/access/OwnableUpgradeable.sol\":1514:1521  owner() */\n      tag_62\n        /* \"@openzeppelin/contracts-upgradeable/access/OwnableUpgradeable.sol\":1514:1519  owner */\n      tag_42\n        /* \"@openzeppelin/contracts-upgradeable/access/OwnableUpgradeable.sol\":1514:1521  owner() */\n      jump\t// in\n    tag_62:\n      sub(shl(0xa0, 0x01), 0x01)\n        /* \"@openzeppelin/contracts-upgradeable/access/OwnableUpgradeable.sol\":1514:1537  owner() == _msgSender() */\n      and\n      eq\n        /* \"@openzeppelin/contracts-upgradeable/access/OwnableUpgradeable.sol\":1506:1574  require(owner() == _msgSender(), \"Ownable: caller is not the owner\") */\n      tag_63\n      jumpi\n      mload(0x40)\n      shl(0xe5, 0x461bcd)\n      dup2\n      mstore\n      0x04\n      add\n      tag_64\n      swap1\n      tag_65\n      jump\t// in\n    tag_64:\n      mload(0x40)\n      dup1\n      swap2\n      sub\n      swap1\n      revert\n    tag_63:\n        /* \"contracts/oracle.sol\":1154:1183  _setExecutor(_address, _type) */\n      tag_67\n        /* \"contracts/oracle.sol\":1167:1175  _address */\n      dup4\n        /* \"contracts/oracle.sol\":1177:1182  _type */\n      dup4\n        /* \"contracts/oracle.sol\":1154:1166  _setExecutor */\n      tag_68\n        /* \"contracts/oracle.sol\":1154:1183  _setExecutor(_address, _type) */\n      jump\t// in\n    tag_67:\n        /* \"contracts/oracle.sol\":1147:1183  return _setExecutor(_address, _type) */\n      swap4\n        /* \"contracts/oracle.sol\":1024:1190  function setExecutor(address _address, bool _type)... */\n      swap3\n      pop\n      pop\n      pop\n      jump\t// out\n        /* \"contracts/oracle.sol\":557:578  address public signer */\n    tag_22:\n      and(sub(shl(0xa0, 0x01), 0x01), sload(0x65))\n      dup2\n      jump\t// out\n        /* \"contracts/oracle.sol\":1751:2413  function getkey(... */\n    tag_28:\n        /* \"contracts/oracle.sol\":1973:1983  msg.sender */\n      caller\n        /* \"contracts/oracle.sol\":1940:1944  bool */\n      0x00\n        /* \"contracts/oracle.sol\":1964:1984  executor[msg.sender] */\n      swap1\n      dup2\n      mstore\n        /* \"contracts/oracle.sol\":1964:1972  executor */\n      0x67\n        /* \"contracts/oracle.sol\":1964:1984  executor[msg.sender] */\n      0x20\n      mstore\n      0x40\n      dup2\n      keccak256\n      sload\n      0xff\n      and\n        /* \"contracts/oracle.sol\":1956:2001  require(executor[msg.sender], \"executor err\") */\n      tag_70\n      jumpi\n      mload(0x40)\n      shl(0xe5, 0x461bcd)\n      dup2\n      mstore\n      0x04\n      add\n      tag_64\n      swap1\n      tag_72\n      jump\t// in\n    tag_70:\n        /* \"contracts/oracle.sol\":2049:2059  _timestamp */\n      dup4\n        /* \"contracts/oracle.sol\":2037:2046  timeLimit */\n      sload(0x66)\n        /* \"contracts/oracle.sol\":2019:2034  block.timestamp */\n      timestamp\n        /* \"contracts/oracle.sol\":2019:2046  block.timestamp - timeLimit */\n      tag_73\n      swap2\n      swap1\n      tag_74\n      jump\t// in\n    tag_73:\n        /* \"contracts/oracle.sol\":2019:2059  block.timestamp - timeLimit < _timestamp */\n      lt\n        /* \"contracts/oracle.sol\":2011:2077  require(block.timestamp - timeLimit < _timestamp, \"timestamp err\") */\n      tag_75\n      jumpi\n      mload(0x40)\n      shl(0xe5, 0x461bcd)\n      dup2\n      mstore\n      0x04\n      add\n      tag_64\n      swap1\n      tag_77\n      jump\t// in\n    tag_75:\n        /* \"contracts/oracle.sol\":2095:2107  _marketState */\n      dup6\n        /* \"contracts/oracle.sol\":2087:2127  require(_marketState, \"Market not open\") */\n      tag_78\n      jumpi\n      mload(0x40)\n      shl(0xe5, 0x461bcd)\n      dup2\n      mstore\n      0x04\n      add\n      tag_64\n      swap1\n      tag_80\n      jump\t// in\n    tag_78:\n        /* \"contracts/oracle.sol\":2137:2149  bytes32 hash */\n      0x00\n        /* \"contracts/oracle.sol\":2192:2204  _marketState */\n      dup7\n        /* \"contracts/oracle.sol\":2206:2214  _price18 */\n      dup7\n        /* \"contracts/oracle.sol\":2216:2226  _timestamp */\n      dup7\n        /* \"contracts/oracle.sol\":2228:2236  _symbols */\n      dup7\n        /* \"contracts/oracle.sol\":2175:2237  abi.encodePacked(_marketState, _price18, _timestamp, _symbols) */\n      add(0x20, mload(0x40))\n      tag_81\n      swap5\n      swap4\n      swap3\n      swap2\n      swap1\n      tag_82\n      jump\t// in\n    tag_81:\n      mload(0x40)\n      0x20\n      dup2\n      dup4\n      sub\n      sub\n      dup2\n      mstore\n      swap1\n      0x40\n      mstore\n        /* \"contracts/oracle.sol\":2152:2247  keccak256(... */\n      dup1\n      mload\n      swap1\n      0x20\n      add\n      keccak256\n        /* \"contracts/oracle.sol\":2137:2247  bytes32 hash = keccak256(... */\n      swap1\n      pop\n        /* \"contracts/oracle.sol\":2257:2272  address _signer */\n      0x00\n        /* \"contracts/oracle.sol\":2275:2370  ECDSA.recover(... */\n      tag_83\n        /* \"contracts/oracle.sol\":2302:2336  ECDSA.toEthSignedMessageHash(hash) */\n      tag_84\n        /* \"contracts/oracle.sol\":2331:2335  hash */\n      dup4\n        /* \"contracts/oracle.sol\":2302:2330  ECDSA.toEthSignedMessageHash */\n      tag_85\n        /* \"contracts/oracle.sol\":2302:2336  ECDSA.toEthSignedMessageHash(hash) */\n      jump\t// in\n    tag_84:\n        /* \"contracts/oracle.sol\":2350:2360  _signature */\n      dup6\n        /* \"contracts/oracle.sol\":2275:2288  ECDSA.recover */\n      tag_86\n        /* \"contracts/oracle.sol\":2275:2370  ECDSA.recover(... */\n      jump\t// in\n    tag_83:\n        /* \"contracts/oracle.sol\":2388:2394  signer */\n      sload(0x65)\n      sub(shl(0xa0, 0x01), 0x01)\n        /* \"contracts/oracle.sol\":2388:2405  signer == _signer */\n      swap2\n      dup3\n      and\n        /* \"contracts/oracle.sol\":2388:2394  signer */\n      swap2\n      and\n        /* \"contracts/oracle.sol\":2388:2405  signer == _signer */\n      eq\n      swap9\n        /* \"contracts/oracle.sol\":1751:2413  function getkey(... */\n      swap8\n      pop\n      pop\n      pop\n      pop\n      pop\n      pop\n      pop\n      pop\n      jump\t// out\n        /* \"contracts/oracle.sol\":629:669  mapping(address => bool) public executor */\n    tag_33:\n      mstore(0x20, 0x67)\n      0x00\n      swap1\n      dup2\n      mstore\n      0x40\n      swap1\n      keccak256\n      sload\n      0xff\n      and\n      dup2\n      jump\t// out\n        /* \"contracts/oracle.sol\":1619:1745  function setSigner(address _address) external onlyOwner returns (bool) {... */\n    tag_37:\n        /* \"contracts/oracle.sol\":1684:1688  bool */\n      0x00\n        /* \"@openzeppelin/contracts-upgradeable/access/OwnableUpgradeable.sol\":1525:1537  _msgSender() */\n      tag_88\n        /* \"@openzeppelin/contracts-upgradeable/access/OwnableUpgradeable.sol\":1525:1535  _msgSender */\n      tag_61\n        /* \"@openzeppelin/contracts-upgradeable/access/OwnableUpgradeable.sol\":1525:1537  _msgSender() */\n      jump\t// in\n    tag_88:\n      sub(shl(0xa0, 0x01), 0x01)\n        /* \"@openzeppelin/contracts-upgradeable/access/OwnableUpgradeable.sol\":1514:1537  owner() == _msgSender() */\n      and\n        /* \"@openzeppelin/contracts-upgradeable/access/OwnableUpgradeable.sol\":1514:1521  owner() */\n      tag_89\n        /* \"@openzeppelin/contracts-upgradeable/access/OwnableUpgradeable.sol\":1514:1519  owner */\n      tag_42\n        /* \"@openzeppelin/contracts-upgradeable/access/OwnableUpgradeable.sol\":1514:1521  owner() */\n      jump\t// in\n    tag_89:\n      sub(shl(0xa0, 0x01), 0x01)\n        /* \"@openzeppelin/contracts-upgradeable/access/OwnableUpgradeable.sol\":1514:1537  owner() == _msgSender() */\n      and\n      eq\n        /* \"@openzeppelin/contracts-upgradeable/access/OwnableUpgradeable.sol\":1506:1574  require(owner() == _msgSender(), \"Ownable: caller is not the owner\") */\n      tag_90\n      jumpi\n      mload(0x40)\n      shl(0xe5, 0x461bcd)\n      dup2\n      mstore\n      0x04\n      add\n      tag_64\n      swap1\n      tag_65\n      jump\t// in\n    tag_90:\n      pop\n        /* \"contracts/oracle.sol\":1700:1706  signer */\n      0x65\n        /* \"contracts/oracle.sol\":1700:1717  signer = _address */\n      dup1\n      sload\n      not(sub(shl(0xa0, 0x01), 0x01))\n      and\n      sub(shl(0xa0, 0x01), 0x01)\n      dup4\n      and\n      or\n      swap1\n      sstore\n      0x01\n        /* \"@openzeppelin/contracts-upgradeable/access/OwnableUpgradeable.sol\":1584:1585  _ */\n    tag_92:\n        /* \"contracts/oracle.sol\":1619:1745  function setSigner(address _address) external onlyOwner returns (bool) {... */\n      swap2\n      swap1\n      pop\n      jump\t// out\n        /* \"@openzeppelin/contracts-upgradeable/access/OwnableUpgradeable.sol\":1934:2035  function renounceOwnership() public virtual onlyOwner {... */\n    tag_40:\n        /* \"@openzeppelin/contracts-upgradeable/access/OwnableUpgradeable.sol\":1525:1537  _msgSender() */\n      tag_94\n        /* \"@openzeppelin/contracts-upgradeable/access/OwnableUpgradeable.sol\":1525:1535  _msgSender */\n      tag_61\n        /* \"@openzeppelin/contracts-upgradeable/access/OwnableUpgradeable.sol\":1525:1537  _msgSender() */\n      jump\t// in\n    tag_94:\n      sub(shl(0xa0, 0x01), 0x01)\n        /* \"@openzeppelin/contracts-upgradeable/access/OwnableUpgradeable.sol\":1514:1537  owner() == _msgSender() */\n      and\n        /* \"@openzeppelin/contracts-upgradeable/access/OwnableUpgradeable.sol\":1514:1521  owner() */\n      tag_95\n        /* \"@openzeppelin/contracts-upgradeable/access/OwnableUpgradeable.sol\":1514:1519  owner */\n      tag_42\n        /* \"@openzeppelin/contracts-upgradeable/access/OwnableUpgradeable.sol\":1514:1521  owner() */\n      jump\t// in\n    tag_95:\n      sub(shl(0xa0, 0x01), 0x01)\n        /* \"@openzeppelin/contracts-upgradeable/access/OwnableUpgradeable.sol\":1514:1537  owner() == _msgSender() */\n      and\n      eq\n        /* \"@openzeppelin/contracts-upgradeable/access/OwnableUpgradeable.sol\":1506:1574  require(owner() == _msgSender(), \"Ownable: caller is not the owner\") */\n      tag_96\n      jumpi\n      mload(0x40)\n      shl(0xe5, 0x461bcd)\n      dup2\n      mstore\n      0x04\n      add\n      tag_64\n      swap1\n      tag_65\n      jump\t// in\n    tag_96:\n        /* \"@openzeppelin/contracts-upgradeable/access/OwnableUpgradeable.sol\":1998:2028  _transferOwnership(address(0)) */\n      tag_99\n        /* \"@openzeppelin/contracts-upgradeable/access/OwnableUpgradeable.sol\":2025:2026  0 */\n      0x00\n        /* \"@openzeppelin/contracts-upgradeable/access/OwnableUpgradeable.sol\":1998:2016  _transferOwnership */\n      tag_100\n        /* \"@openzeppelin/contracts-upgradeable/access/OwnableUpgradeable.sol\":1998:2028  _transferOwnership(address(0)) */\n      jump\t// in\n    tag_99:\n        /* \"@openzeppelin/contracts-upgradeable/access/OwnableUpgradeable.sol\":1934:2035  function renounceOwnership() public virtual onlyOwner {... */\n      jump\t// out\n        /* \"@openzeppelin/contracts-upgradeable/access/OwnableUpgradeable.sol\":1302:1387  function owner() public view virtual returns (address) {... */\n    tag_42:\n        /* \"@openzeppelin/contracts-upgradeable/access/OwnableUpgradeable.sol\":1374:1380  _owner */\n      and(sub(shl(0xa0, 0x01), 0x01), sload(0x33))\n        /* \"@openzeppelin/contracts-upgradeable/access/OwnableUpgradeable.sol\":1302:1387  function owner() public view virtual returns (address) {... */\n      swap1\n      jump\t// out\n        /* \"contracts/oracle.sol\":584:608  uint256 public timeLimit */\n    tag_45:\n      sload(0x66)\n      dup2\n      jump\t// out\n        /* \"contracts/oracle.sol\":840:1018  function initialize(address _signer) external initializer {... */\n    tag_50:\n        /* \"@openzeppelin/contracts-upgradeable/proxy/utils/Initializable.sol\":539:552  _initializing */\n      sload(0x00)\n      0x0100\n      swap1\n      div\n      0xff\n      and\n      dup1\n        /* \"@openzeppelin/contracts-upgradeable/proxy/utils/Initializable.sol\":539:569  _initializing || !_initialized */\n      tag_103\n      jumpi\n      pop\n        /* \"@openzeppelin/contracts-upgradeable/proxy/utils/Initializable.sol\":557:569  _initialized */\n      and(0xff, sload(0x00))\n        /* \"@openzeppelin/contracts-upgradeable/proxy/utils/Initializable.sol\":556:569  !_initialized */\n      iszero\n        /* \"@openzeppelin/contracts-upgradeable/proxy/utils/Initializable.sol\":539:569  _initializing || !_initialized */\n    tag_103:\n        /* \"@openzeppelin/contracts-upgradeable/proxy/utils/Initializable.sol\":531:620  require(_initializing || !_initialized, \"Initializable: contract is already initialized\") */\n      tag_104\n      jumpi\n      mload(0x40)\n      shl(0xe5, 0x461bcd)\n      dup2\n      mstore\n      0x04\n      add\n      tag_64\n      swap1\n      tag_106\n      jump\t// in\n    tag_104:\n        /* \"@openzeppelin/contracts-upgradeable/proxy/utils/Initializable.sol\":631:650  bool isTopLevelCall */\n      0x00\n        /* \"@openzeppelin/contracts-upgradeable/proxy/utils/Initializable.sol\":654:667  _initializing */\n      sload\n      0x0100\n      swap1\n      div\n      0xff\n      and\n        /* \"@openzeppelin/contracts-upgradeable/proxy/utils/Initializable.sol\":653:667  !_initializing */\n      iszero\n        /* \"@openzeppelin/contracts-upgradeable/proxy/utils/Initializable.sol\":677:775  if (isTopLevelCall) {... */\n      dup1\n      iszero\n      tag_107\n      jumpi\n        /* \"@openzeppelin/contracts-upgradeable/proxy/utils/Initializable.sol\":711:724  _initializing */\n      0x00\n        /* \"@openzeppelin/contracts-upgradeable/proxy/utils/Initializable.sol\":711:731  _initializing = true */\n      dup1\n      sload\n      not(0xff)\n      not(0xff00)\n      swap1\n      swap2\n      and\n      0x0100\n      or\n        /* \"@openzeppelin/contracts-upgradeable/proxy/utils/Initializable.sol\":745:764  _initialized = true */\n      and\n        /* \"@openzeppelin/contracts-upgradeable/proxy/utils/Initializable.sol\":727:731  true */\n      0x01\n        /* \"@openzeppelin/contracts-upgradeable/proxy/utils/Initializable.sol\":745:764  _initialized = true */\n      or\n      swap1\n      sstore\n        /* \"@openzeppelin/contracts-upgradeable/proxy/utils/Initializable.sol\":677:775  if (isTopLevelCall) {... */\n    tag_107:\n        /* \"contracts/oracle.sol\":908:924  __Ownable_init() */\n      tag_109\n        /* \"contracts/oracle.sol\":908:922  __Ownable_init */\n      tag_110\n        /* \"contracts/oracle.sol\":908:924  __Ownable_init() */\n      jump\t// in\n    tag_109:\n        /* \"contracts/oracle.sol\":934:961  _setExecutor(_signer, true) */\n      tag_111\n        /* \"contracts/oracle.sol\":947:954  _signer */\n      dup3\n        /* \"contracts/oracle.sol\":956:960  true */\n      0x01\n        /* \"contracts/oracle.sol\":934:946  _setExecutor */\n      tag_68\n        /* \"contracts/oracle.sol\":934:961  _setExecutor(_signer, true) */\n      jump\t// in\n    tag_111:\n      pop\n        /* \"contracts/oracle.sol\":971:977  signer */\n      0x65\n        /* \"contracts/oracle.sol\":971:987  signer = _signer */\n      dup1\n      sload\n      not(sub(shl(0xa0, 0x01), 0x01))\n      and\n      sub(shl(0xa0, 0x01), 0x01)\n      dup5\n      and\n      or\n      swap1\n      sstore\n        /* \"contracts/oracle.sol\":1009:1011  60 */\n      0x3c\n        /* \"contracts/oracle.sol\":997:1006  timeLimit */\n      0x66\n        /* \"contracts/oracle.sol\":997:1011  timeLimit = 60 */\n      sstore\n        /* \"@openzeppelin/contracts-upgradeable/proxy/utils/Initializable.sol\":797:863  if (isTopLevelCall) {... */\n      dup1\n      iszero\n      tag_112\n      jumpi\n        /* \"@openzeppelin/contracts-upgradeable/proxy/utils/Initializable.sol\":847:852  false */\n      0x00\n        /* \"@openzeppelin/contracts-upgradeable/proxy/utils/Initializable.sol\":831:852  _initializing = false */\n      dup1\n      sload\n      not(0xff00)\n      and\n      swap1\n      sstore\n        /* \"@openzeppelin/contracts-upgradeable/proxy/utils/Initializable.sol\":797:863  if (isTopLevelCall) {... */\n    tag_112:\n        /* \"contracts/oracle.sol\":840:1018  function initialize(address _signer) external initializer {... */\n      pop\n      pop\n      jump\t// out\n        /* \"contracts/oracle.sol\":1489:1613  function setTimeLimit(uint256 _val) external onlyOwner returns (bool) {... */\n    tag_54:\n        /* \"contracts/oracle.sol\":1553:1557  bool */\n      0x00\n        /* \"@openzeppelin/contracts-upgradeable/access/OwnableUpgradeable.sol\":1525:1537  _msgSender() */\n      tag_114\n        /* \"@openzeppelin/contracts-upgradeable/access/OwnableUpgradeable.sol\":1525:1535  _msgSender */\n      tag_61\n        /* \"@openzeppelin/contracts-upgradeable/access/OwnableUpgradeable.sol\":1525:1537  _msgSender() */\n      jump\t// in\n    tag_114:\n      sub(shl(0xa0, 0x01), 0x01)\n        /* \"@openzeppelin/contracts-upgradeable/access/OwnableUpgradeable.sol\":1514:1537  owner() == _msgSender() */\n      and\n        /* \"@openzeppelin/contracts-upgradeable/access/OwnableUpgradeable.sol\":1514:1521  owner() */\n      tag_115\n        /* \"@openzeppelin/contracts-upgradeable/access/OwnableUpgradeable.sol\":1514:1519  owner */\n      tag_42\n        /* \"@openzeppelin/contracts-upgradeable/access/OwnableUpgradeable.sol\":1514:1521  owner() */\n      jump\t// in\n    tag_115:\n      sub(shl(0xa0, 0x01), 0x01)\n        /* \"@openzeppelin/contracts-upgradeable/access/OwnableUpgradeable.sol\":1514:1537  owner() == _msgSender() */\n      and\n      eq\n        /* \"@openzeppelin/contracts-upgradeable/access/OwnableUpgradeable.sol\":1506:1574  require(owner() == _msgSender(), \"Ownable: caller is not the owner\") */\n      tag_116\n      jumpi\n      mload(0x40)\n      shl(0xe5, 0x461bcd)\n      dup2\n      mstore\n      0x04\n      add\n      tag_64\n      swap1\n      tag_65\n      jump\t// in\n    tag_116:\n      pop\n        /* \"contracts/oracle.sol\":1569:1578  timeLimit */\n      0x66\n        /* \"contracts/oracle.sol\":1569:1585  timeLimit = _val */\n      sstore\n        /* \"contracts/oracle.sol\":1602:1606  true */\n      0x01\n      swap1\n        /* \"contracts/oracle.sol\":1489:1613  function setTimeLimit(uint256 _val) external onlyOwner returns (bool) {... */\n      jump\t// out\n        /* \"@openzeppelin/contracts-upgradeable/access/OwnableUpgradeable.sol\":2184:2382  function transferOwnership(address newOwner) public virtual onlyOwner {... */\n    tag_58:\n        /* \"@openzeppelin/contracts-upgradeable/access/OwnableUpgradeable.sol\":1525:1537  _msgSender() */\n      tag_120\n        /* \"@openzeppelin/contracts-upgradeable/access/OwnableUpgradeable.sol\":1525:1535  _msgSender */\n      tag_61\n        /* \"@openzeppelin/contracts-upgradeable/access/OwnableUpgradeable.sol\":1525:1537  _msgSender() */\n      jump\t// in\n    tag_120:\n      sub(shl(0xa0, 0x01), 0x01)\n        /* \"@openzeppelin/contracts-upgradeable/access/OwnableUpgradeable.sol\":1514:1537  owner() == _msgSender() */\n      and\n        /* \"@openzeppelin/contracts-upgradeable/access/OwnableUpgradeable.sol\":1514:1521  owner() */\n      tag_121\n        /* \"@openzeppelin/contracts-upgradeable/access/OwnableUpgradeable.sol\":1514:1519  owner */\n      tag_42\n        /* \"@openzeppelin/contracts-upgradeable/access/OwnableUpgradeable.sol\":1514:1521  owner() */\n      jump\t// in\n    tag_121:\n      sub(shl(0xa0, 0x01), 0x01)\n        /* \"@openzeppelin/contracts-upgradeable/access/OwnableUpgradeable.sol\":1514:1537  owner() == _msgSender() */\n      and\n      eq\n        /* \"@openzeppelin/contracts-upgradeable/access/OwnableUpgradeable.sol\":1506:1574  require(owner() == _msgSender(), \"Ownable: caller is not the owner\") */\n      tag_122\n      jumpi\n      mload(0x40)\n      shl(0xe5, 0x461bcd)\n      dup2\n      mstore\n      0x04\n      add\n      tag_64\n      swap1\n      tag_65\n      jump\t// in\n    tag_122:\n      sub(shl(0xa0, 0x01), 0x01)\n        /* \"@openzeppelin/contracts-upgradeable/access/OwnableUpgradeable.sol\":2272:2294  newOwner != address(0) */\n      dup2\n      and\n        /* \"@openzeppelin/contracts-upgradeable/access/OwnableUpgradeable.sol\":2264:2337  require(newOwner != address(0), \"Ownable: new owner is the zero address\") */\n      tag_125\n      jumpi\n      mload(0x40)\n      shl(0xe5, 0x461bcd)\n      dup2\n      mstore\n      0x04\n      add\n      tag_64\n      swap1\n      tag_127\n      jump\t// in\n    tag_125:\n        /* \"@openzeppelin/contracts-upgradeable/access/OwnableUpgradeable.sol\":2347:2375  _transferOwnership(newOwner) */\n      tag_128\n        /* \"@openzeppelin/contracts-upgradeable/access/OwnableUpgradeable.sol\":2366:2374  newOwner */\n      dup2\n        /* \"@openzeppelin/contracts-upgradeable/access/OwnableUpgradeable.sol\":2347:2365  _transferOwnership */\n      tag_100\n        /* \"@openzeppelin/contracts-upgradeable/access/OwnableUpgradeable.sol\":2347:2375  _transferOwnership(newOwner) */\n      jump\t// in\n    tag_128:\n        /* \"@openzeppelin/contracts-upgradeable/access/OwnableUpgradeable.sol\":2184:2382  function transferOwnership(address newOwner) public virtual onlyOwner {... */\n      pop\n      jump\t// out\n        /* \"@openzeppelin/contracts-upgradeable/utils/ContextUpgradeable.sol\":876:972  function _msgSender() internal view virtual returns (address) {... */\n    tag_61:\n        /* \"@openzeppelin/contracts-upgradeable/utils/ContextUpgradeable.sol\":955:965  msg.sender */\n      caller\n        /* \"@openzeppelin/contracts-upgradeable/utils/ContextUpgradeable.sol\":876:972  function _msgSender() internal view virtual returns (address) {... */\n      swap1\n      jump\t// out\n        /* \"contracts/oracle.sol\":1196:1356  function _setExecutor(address _address, bool _type)... */\n    tag_68:\n      sub(shl(0xa0, 0x01), 0x01)\n        /* \"contracts/oracle.sol\":1302:1320  executor[_address] */\n      dup3\n      and\n        /* \"contracts/oracle.sol\":1282:1286  bool */\n      0x00\n        /* \"contracts/oracle.sol\":1302:1320  executor[_address] */\n      swap1\n      dup2\n      mstore\n        /* \"contracts/oracle.sol\":1302:1310  executor */\n      0x67\n        /* \"contracts/oracle.sol\":1302:1320  executor[_address] */\n      0x20\n      mstore\n      0x40\n      swap1\n      keccak256\n        /* \"contracts/oracle.sol\":1302:1328  executor[_address] = _type */\n      dup1\n      sload\n      dup3\n      iszero\n      iszero\n      not(0xff)\n      swap1\n      swap2\n      and\n      or\n      swap1\n      sstore\n      0x01\n        /* \"contracts/oracle.sol\":1196:1356  function _setExecutor(address _address, bool _type)... */\n      swap3\n      swap2\n      pop\n      pop\n      jump\t// out\n        /* \"@openzeppelin/contracts/utils/cryptography/ECDSA.sol\":8040:8305  function toEthSignedMessageHash(bytes32 hash) internal pure returns (bytes32) {... */\n    tag_85:\n        /* \"@openzeppelin/contracts/utils/cryptography/ECDSA.sol\":8109:8116  bytes32 */\n      0x00\n        /* \"@openzeppelin/contracts/utils/cryptography/ECDSA.sol\":8292:8296  hash */\n      dup2\n        /* \"@openzeppelin/contracts/utils/cryptography/ECDSA.sol\":8239:8297  abi.encodePacked(\"\\x19Ethereum Signed Message:\\n32\", hash) */\n      add(0x20, mload(0x40))\n      tag_132\n      swap2\n      swap1\n      tag_133\n      jump\t// in\n    tag_132:\n      mload(0x40)\n      0x20\n      dup2\n      dup4\n      sub\n      sub\n      dup2\n      mstore\n      swap1\n      0x40\n      mstore\n        /* \"@openzeppelin/contracts/utils/cryptography/ECDSA.sol\":8229:8298  keccak256(abi.encodePacked(\"\\x19Ethereum Signed Message:\\n32\", hash)) */\n      dup1\n      mload\n      swap1\n      0x20\n      add\n      keccak256\n        /* \"@openzeppelin/contracts/utils/cryptography/ECDSA.sol\":8222:8298  return keccak256(abi.encodePacked(\"\\x19Ethereum Signed Message:\\n32\", hash)) */\n      swap1\n      pop\n        /* \"@openzeppelin/contracts/utils/cryptography/ECDSA.sol\":8040:8305  function toEthSignedMessageHash(bytes32 hash) internal pure returns (bytes32) {... */\n      swap2\n      swap1\n      pop\n      jump\t// out\n        /* \"@openzeppelin/contracts/utils/cryptography/ECDSA.sol\":4293:4520  function recover(bytes32 hash, bytes memory signature) internal pure returns (address) {... */\n    tag_86:\n        /* \"@openzeppelin/contracts/utils/cryptography/ECDSA.sol\":4371:4378  address */\n      0x00\n        /* \"@openzeppelin/contracts/utils/cryptography/ECDSA.sol\":4391:4408  address recovered */\n      dup1\n        /* \"@openzeppelin/contracts/utils/cryptography/ECDSA.sol\":4410:4428  RecoverError error */\n      0x00\n        /* \"@openzeppelin/contracts/utils/cryptography/ECDSA.sol\":4432:4459  tryRecover(hash, signature) */\n      tag_135\n        /* \"@openzeppelin/contracts/utils/cryptography/ECDSA.sol\":4443:4447  hash */\n      dup6\n        /* \"@openzeppelin/contracts/utils/cryptography/ECDSA.sol\":4449:4458  signature */\n      dup6\n        /* \"@openzeppelin/contracts/utils/cryptography/ECDSA.sol\":4432:4442  tryRecover */\n      tag_136\n        /* \"@openzeppelin/contracts/utils/cryptography/ECDSA.sol\":4432:4459  tryRecover(hash, signature) */\n      jump\t// in\n    tag_135:\n        /* \"@openzeppelin/contracts/utils/cryptography/ECDSA.sol\":4390:4459  (address recovered, RecoverError error) = tryRecover(hash, signature) */\n      swap2\n      pop\n      swap2\n      pop\n        /* \"@openzeppelin/contracts/utils/cryptography/ECDSA.sol\":4469:4487  _throwError(error) */\n      tag_137\n        /* \"@openzeppelin/contracts/utils/cryptography/ECDSA.sol\":4481:4486  error */\n      dup2\n        /* \"@openzeppelin/contracts/utils/cryptography/ECDSA.sol\":4469:4480  _throwError */\n      tag_138\n        /* \"@openzeppelin/contracts/utils/cryptography/ECDSA.sol\":4469:4487  _throwError(error) */\n      jump\t// in\n    tag_137:\n      pop\n        /* \"@openzeppelin/contracts/utils/cryptography/ECDSA.sol\":4504:4513  recovered */\n      swap4\n        /* \"@openzeppelin/contracts/utils/cryptography/ECDSA.sol\":4293:4520  function recover(bytes32 hash, bytes memory signature) internal pure returns (address) {... */\n      swap3\n      pop\n      pop\n      pop\n      jump\t// out\n        /* \"@openzeppelin/contracts-upgradeable/access/OwnableUpgradeable.sol\":2536:2723  function _transferOwnership(address newOwner) internal virtual {... */\n    tag_100:\n        /* \"@openzeppelin/contracts-upgradeable/access/OwnableUpgradeable.sol\":2628:2634  _owner */\n      0x33\n      dup1\n      sload\n      sub(shl(0xa0, 0x01), 0x01)\n        /* \"@openzeppelin/contracts-upgradeable/access/OwnableUpgradeable.sol\":2644:2661  _owner = newOwner */\n      dup4\n      dup2\n      and\n      not(sub(shl(0xa0, 0x01), 0x01))\n      dup4\n      and\n      dup2\n      or\n      swap1\n      swap4\n      sstore\n        /* \"@openzeppelin/contracts-upgradeable/access/OwnableUpgradeable.sol\":2676:2716  OwnershipTransferred(oldOwner, newOwner) */\n      mload(0x40)\n        /* \"@openzeppelin/contracts-upgradeable/access/OwnableUpgradeable.sol\":2628:2634  _owner */\n      swap2\n      and\n      swap2\n        /* \"@openzeppelin/contracts-upgradeable/access/OwnableUpgradeable.sol\":2644:2661  _owner = newOwner */\n      swap1\n        /* \"@openzeppelin/contracts-upgradeable/access/OwnableUpgradeable.sol\":2628:2634  _owner */\n      dup3\n      swap1\n        /* \"@openzeppelin/contracts-upgradeable/access/OwnableUpgradeable.sol\":2676:2716  OwnershipTransferred(oldOwner, newOwner) */\n      0x8be0079c531659141344cd1fd0a4f28419497f9722a3daafe3b4186f6b6457e0\n      swap1\n        /* \"@openzeppelin/contracts-upgradeable/access/OwnableUpgradeable.sol\":2609:2625  address oldOwner */\n      0x00\n      swap1\n        /* \"@openzeppelin/contracts-upgradeable/access/OwnableUpgradeable.sol\":2676:2716  OwnershipTransferred(oldOwner, newOwner) */\n      log3\n        /* \"@openzeppelin/contracts-upgradeable/access/OwnableUpgradeable.sol\":2536:2723  function _transferOwnership(address newOwner) internal virtual {... */\n      pop\n      pop\n      jump\t// out\n        /* \"@openzeppelin/contracts-upgradeable/access/OwnableUpgradeable.sol\":988:1114  function __Ownable_init() internal initializer {... */\n    tag_110:\n        /* \"@openzeppelin/contracts-upgradeable/proxy/utils/Initializable.sol\":539:552  _initializing */\n      sload(0x00)\n      0x0100\n      swap1\n      div\n      0xff\n      and\n      dup1\n        /* \"@openzeppelin/contracts-upgradeable/proxy/utils/Initializable.sol\":539:569  _initializing || !_initialized */\n      tag_141\n      jumpi\n      pop\n        /* \"@openzeppelin/contracts-upgradeable/proxy/utils/Initializable.sol\":557:569  _initialized */\n      and(0xff, sload(0x00))\n        /* \"@openzeppelin/contracts-upgradeable/proxy/utils/Initializable.sol\":556:569  !_initialized */\n      iszero\n        /* \"@openzeppelin/contracts-upgradeable/proxy/utils/Initializable.sol\":539:569  _initializing || !_initialized */\n    tag_141:\n        /* \"@openzeppelin/contracts-upgradeable/proxy/utils/Initializable.sol\":531:620  require(_initializing || !_initialized, \"Initializable: contract is already initialized\") */\n      tag_142\n      jumpi\n      mload(0x40)\n      shl(0xe5, 0x461bcd)\n      dup2\n      mstore\n      0x04\n      add\n      tag_64\n      swap1\n      tag_106\n      jump\t// in\n    tag_142:\n        /* \"@openzeppelin/contracts-upgradeable/proxy/utils/Initializable.sol\":631:650  bool isTopLevelCall */\n      0x00\n        /* \"@openzeppelin/contracts-upgradeable/proxy/utils/Initializable.sol\":654:667  _initializing */\n      sload\n      0x0100\n      swap1\n      div\n      0xff\n      and\n        /* \"@openzeppelin/contracts-upgradeable/proxy/utils/Initializable.sol\":653:667  !_initializing */\n      iszero\n        /* \"@openzeppelin/contracts-upgradeable/proxy/utils/Initializable.sol\":677:775  if (isTopLevelCall) {... */\n      dup1\n      iszero\n      tag_144\n      jumpi\n        /* \"@openzeppelin/contracts-upgradeable/proxy/utils/Initializable.sol\":711:724  _initializing */\n      0x00\n        /* \"@openzeppelin/contracts-upgradeable/proxy/utils/Initializable.sol\":711:731  _initializing = true */\n      dup1\n      sload\n      not(0xff)\n      not(0xff00)\n      swap1\n      swap2\n      and\n      0x0100\n      or\n        /* \"@openzeppelin/contracts-upgradeable/proxy/utils/Initializable.sol\":745:764  _initialized = true */\n      and\n        /* \"@openzeppelin/contracts-upgradeable/proxy/utils/Initializable.sol\":727:731  true */\n      0x01\n        /* \"@openzeppelin/contracts-upgradeable/proxy/utils/Initializable.sol\":745:764  _initialized = true */\n      or\n      swap1\n      sstore\n        /* \"@openzeppelin/contracts-upgradeable/proxy/utils/Initializable.sol\":677:775  if (isTopLevelCall) {... */\n    tag_144:\n        /* \"@openzeppelin/contracts-upgradeable/access/OwnableUpgradeable.sol\":1045:1071  __Context_init_unchained() */\n      tag_146\n        /* \"@openzeppelin/contracts-upgradeable/access/OwnableUpgradeable.sol\":1045:1069  __Context_init_unchained */\n      tag_147\n        /* \"@openzeppelin/contracts-upgradeable/access/OwnableUpgradeable.sol\":1045:1071  __Context_init_unchained() */\n      jump\t// in\n    tag_146:\n        /* \"@openzeppelin/contracts-upgradeable/access/OwnableUpgradeable.sol\":1081:1107  __Ownable_init_unchained() */\n      tag_148\n        /* \"@openzeppelin/contracts-upgradeable/access/OwnableUpgradeable.sol\":1081:1105  __Ownable_init_unchained */\n      tag_149\n        /* \"@openzeppelin/contracts-upgradeable/access/OwnableUpgradeable.sol\":1081:1107  __Ownable_init_unchained() */\n      jump\t// in\n    tag_148:\n        /* \"@openzeppelin/contracts-upgradeable/proxy/utils/Initializable.sol\":801:815  isTopLevelCall */\n      dup1\n        /* \"@openzeppelin/contracts-upgradeable/proxy/utils/Initializable.sol\":797:863  if (isTopLevelCall) {... */\n      iszero\n      tag_128\n      jumpi\n        /* \"@openzeppelin/contracts-upgradeable/proxy/utils/Initializable.sol\":847:852  false */\n      0x00\n        /* \"@openzeppelin/contracts-upgradeable/proxy/utils/Initializable.sol\":831:852  _initializing = false */\n      dup1\n      sload\n      not(0xff00)\n      and\n      swap1\n      sstore\n        /* \"@openzeppelin/contracts-upgradeable/access/OwnableUpgradeable.sol\":988:1114  function __Ownable_init() internal initializer {... */\n      pop\n      jump\t// out\n        /* \"@openzeppelin/contracts/utils/cryptography/ECDSA.sol\":2228:3507  function tryRecover(bytes32 hash, bytes memory signature) internal pure returns (address, RecoverError) {... */\n    tag_136:\n        /* \"@openzeppelin/contracts/utils/cryptography/ECDSA.sol\":2309:2316  address */\n      0x00\n        /* \"@openzeppelin/contracts/utils/cryptography/ECDSA.sol\":2318:2330  RecoverError */\n      dup1\n        /* \"@openzeppelin/contracts/utils/cryptography/ECDSA.sol\":2539:2548  signature */\n      dup3\n        /* \"@openzeppelin/contracts/utils/cryptography/ECDSA.sol\":2539:2555  signature.length */\n      mload\n        /* \"@openzeppelin/contracts/utils/cryptography/ECDSA.sol\":2559:2561  65 */\n      0x41\n        /* \"@openzeppelin/contracts/utils/cryptography/ECDSA.sol\":2539:2561  signature.length == 65 */\n      eq\n        /* \"@openzeppelin/contracts/utils/cryptography/ECDSA.sol\":2535:3501  if (signature.length == 65) {... */\n      iszero\n      tag_152\n      jumpi\n        /* \"@openzeppelin/contracts/utils/cryptography/ECDSA.sol\":2828:2832  0x20 */\n      0x20\n        /* \"@openzeppelin/contracts/utils/cryptography/ECDSA.sol\":2813:2833  add(signature, 0x20) */\n      dup4\n      add\n        /* \"@openzeppelin/contracts/utils/cryptography/ECDSA.sol\":2807:2834  mload(add(signature, 0x20)) */\n      mload\n        /* \"@openzeppelin/contracts/utils/cryptography/ECDSA.sol\":2877:2881  0x40 */\n      0x40\n        /* \"@openzeppelin/contracts/utils/cryptography/ECDSA.sol\":2862:2882  add(signature, 0x40) */\n      dup5\n      add\n        /* \"@openzeppelin/contracts/utils/cryptography/ECDSA.sol\":2856:2883  mload(add(signature, 0x40)) */\n      mload\n        /* \"@openzeppelin/contracts/utils/cryptography/ECDSA.sol\":2934:2938  0x60 */\n      0x60\n        /* \"@openzeppelin/contracts/utils/cryptography/ECDSA.sol\":2919:2939  add(signature, 0x60) */\n      dup6\n      add\n        /* \"@openzeppelin/contracts/utils/cryptography/ECDSA.sol\":2913:2940  mload(add(signature, 0x60)) */\n      mload\n        /* \"@openzeppelin/contracts/utils/cryptography/ECDSA.sol\":2577:2586  bytes32 r */\n      0x00\n        /* \"@openzeppelin/contracts/utils/cryptography/ECDSA.sol\":2905:2941  byte(0, mload(add(signature, 0x60))) */\n      byte\n        /* \"@openzeppelin/contracts/utils/cryptography/ECDSA.sol\":2975:3000  tryRecover(hash, v, r, s) */\n      tag_153\n        /* \"@openzeppelin/contracts/utils/cryptography/ECDSA.sol\":2986:2990  hash */\n      dup8\n        /* \"@openzeppelin/contracts/utils/cryptography/ECDSA.sol\":2905:2941  byte(0, mload(add(signature, 0x60))) */\n      dup3\n        /* \"@openzeppelin/contracts/utils/cryptography/ECDSA.sol\":2807:2834  mload(add(signature, 0x20)) */\n      dup6\n        /* \"@openzeppelin/contracts/utils/cryptography/ECDSA.sol\":2856:2883  mload(add(signature, 0x40)) */\n      dup6\n        /* \"@openzeppelin/contracts/utils/cryptography/ECDSA.sol\":2975:2985  tryRecover */\n      tag_154\n        /* \"@openzeppelin/contracts/utils/cryptography/ECDSA.sol\":2975:3000  tryRecover(hash, v, r, s) */\n      jump\t// in\n    tag_153:\n        /* \"@openzeppelin/contracts/utils/cryptography/ECDSA.sol\":2968:3000  return tryRecover(hash, v, r, s) */\n      swap5\n      pop\n      swap5\n      pop\n      pop\n      pop\n      pop\n      jump(tag_159)\n        /* \"@openzeppelin/contracts/utils/cryptography/ECDSA.sol\":2535:3501  if (signature.length == 65) {... */\n    tag_152:\n        /* \"@openzeppelin/contracts/utils/cryptography/ECDSA.sol\":3021:3030  signature */\n      dup3\n        /* \"@openzeppelin/contracts/utils/cryptography/ECDSA.sol\":3021:3037  signature.length */\n      mload\n        /* \"@openzeppelin/contracts/utils/cryptography/ECDSA.sol\":3041:3043  64 */\n      0x40\n        /* \"@openzeppelin/contracts/utils/cryptography/ECDSA.sol\":3021:3043  signature.length == 64 */\n      eq\n        /* \"@openzeppelin/contracts/utils/cryptography/ECDSA.sol\":3017:3501  if (signature.length == 64) {... */\n      iszero\n      tag_156\n      jumpi\n        /* \"@openzeppelin/contracts/utils/cryptography/ECDSA.sol\":3290:3294  0x20 */\n      0x20\n        /* \"@openzeppelin/contracts/utils/cryptography/ECDSA.sol\":3275:3295  add(signature, 0x20) */\n      dup4\n      add\n        /* \"@openzeppelin/contracts/utils/cryptography/ECDSA.sol\":3269:3296  mload(add(signature, 0x20)) */\n      mload\n        /* \"@openzeppelin/contracts/utils/cryptography/ECDSA.sol\":3340:3344  0x40 */\n      0x40\n        /* \"@openzeppelin/contracts/utils/cryptography/ECDSA.sol\":3325:3345  add(signature, 0x40) */\n      dup5\n      add\n        /* \"@openzeppelin/contracts/utils/cryptography/ECDSA.sol\":3319:3346  mload(add(signature, 0x40)) */\n      mload\n        /* \"@openzeppelin/contracts/utils/cryptography/ECDSA.sol\":3380:3403  tryRecover(hash, r, vs) */\n      tag_157\n        /* \"@openzeppelin/contracts/utils/cryptography/ECDSA.sol\":3391:3395  hash */\n      dup7\n        /* \"@openzeppelin/contracts/utils/cryptography/ECDSA.sol\":3269:3296  mload(add(signature, 0x20)) */\n      dup4\n        /* \"@openzeppelin/contracts/utils/cryptography/ECDSA.sol\":3319:3346  mload(add(signature, 0x40)) */\n      dup4\n        /* \"@openzeppelin/contracts/utils/cryptography/ECDSA.sol\":3380:3390  tryRecover */\n      tag_158\n        /* \"@openzeppelin/contracts/utils/cryptography/ECDSA.sol\":3380:3403  tryRecover(hash, r, vs) */\n      jump\t// in\n    tag_157:\n        /* \"@openzeppelin/contracts/utils/cryptography/ECDSA.sol\":3373:3403  return tryRecover(hash, r, vs) */\n      swap4\n      pop\n      swap4\n      pop\n      pop\n      pop\n      jump(tag_159)\n        /* \"@openzeppelin/contracts/utils/cryptography/ECDSA.sol\":3017:3501  if (signature.length == 64) {... */\n    tag_156:\n      pop\n        /* \"@openzeppelin/contracts/utils/cryptography/ECDSA.sol\":3450:3451  0 */\n      0x00\n      swap1\n      pop\n        /* \"@openzeppelin/contracts/utils/cryptography/ECDSA.sol\":3454:3489  RecoverError.InvalidSignatureLength */\n      0x02\n        /* \"@openzeppelin/contracts/utils/cryptography/ECDSA.sol\":3017:3501  if (signature.length == 64) {... */\n    tag_159:\n        /* \"@openzeppelin/contracts/utils/cryptography/ECDSA.sol\":2228:3507  function tryRecover(bytes32 hash, bytes memory signature) internal pure returns (address, RecoverError) {... */\n      swap3\n      pop\n      swap3\n      swap1\n      pop\n      jump\t// out\n        /* \"@openzeppelin/contracts/utils/cryptography/ECDSA.sol\":533:1164  function _throwError(RecoverError error) private pure {... */\n    tag_138:\n        /* \"@openzeppelin/contracts/utils/cryptography/ECDSA.sol\":610:630  RecoverError.NoError */\n      0x00\n        /* \"@openzeppelin/contracts/utils/cryptography/ECDSA.sol\":601:606  error */\n      dup2\n        /* \"@openzeppelin/contracts/utils/cryptography/ECDSA.sol\":601:630  error == RecoverError.NoError */\n      0x04\n      dup2\n      gt\n      iszero\n      tag_162\n      jumpi\n      mstore(0x00, shl(0xe0, 0x4e487b71))\n      mstore(0x04, 0x21)\n      revert(0x00, 0x24)\n    tag_162:\n      eq\n        /* \"@openzeppelin/contracts/utils/cryptography/ECDSA.sol\":597:1158  if (error == RecoverError.NoError) {... */\n      iszero\n      tag_163\n      jumpi\n        /* \"@openzeppelin/contracts/utils/cryptography/ECDSA.sol\":646:653  return; */\n      jump(tag_128)\n        /* \"@openzeppelin/contracts/utils/cryptography/ECDSA.sol\":597:1158  if (error == RecoverError.NoError) {... */\n    tag_163:\n        /* \"@openzeppelin/contracts/utils/cryptography/ECDSA.sol\":706:735  RecoverError.InvalidSignature */\n      0x01\n        /* \"@openzeppelin/contracts/utils/cryptography/ECDSA.sol\":697:702  error */\n      dup2\n        /* \"@openzeppelin/contracts/utils/cryptography/ECDSA.sol\":697:735  error == RecoverError.InvalidSignature */\n      0x04\n      dup2\n      gt\n      iszero\n      tag_166\n      jumpi\n      mstore(0x00, shl(0xe0, 0x4e487b71))\n      mstore(0x04, 0x21)\n      revert(0x00, 0x24)\n    tag_166:\n      eq\n        /* \"@openzeppelin/contracts/utils/cryptography/ECDSA.sol\":693:1158  if (error == RecoverError.InvalidSignature) {... */\n      iszero\n      tag_167\n      jumpi\n        /* \"@openzeppelin/contracts/utils/cryptography/ECDSA.sol\":751:785  revert(\"ECDSA: invalid signature\") */\n      mload(0x40)\n      shl(0xe5, 0x461bcd)\n      dup2\n      mstore\n      0x04\n      add\n      tag_64\n      swap1\n      tag_169\n      jump\t// in\n        /* \"@openzeppelin/contracts/utils/cryptography/ECDSA.sol\":693:1158  if (error == RecoverError.InvalidSignature) {... */\n    tag_167:\n        /* \"@openzeppelin/contracts/utils/cryptography/ECDSA.sol\":815:850  RecoverError.InvalidSignatureLength */\n      0x02\n        /* \"@openzeppelin/contracts/utils/cryptography/ECDSA.sol\":806:811  error */\n      dup2\n        /* \"@openzeppelin/contracts/utils/cryptography/ECDSA.sol\":806:850  error == RecoverError.InvalidSignatureLength */\n      0x04\n      dup2\n      gt\n      iszero\n      tag_172\n      jumpi\n      mstore(0x00, shl(0xe0, 0x4e487b71))\n      mstore(0x04, 0x21)\n      revert(0x00, 0x24)\n    tag_172:\n      eq\n        /* \"@openzeppelin/contracts/utils/cryptography/ECDSA.sol\":802:1158  if (error == RecoverError.InvalidSignatureLength) {... */\n      iszero\n      tag_173\n      jumpi\n        /* \"@openzeppelin/contracts/utils/cryptography/ECDSA.sol\":866:907  revert(\"ECDSA: invalid signature length\") */\n      mload(0x40)\n      shl(0xe5, 0x461bcd)\n      dup2\n      mstore\n      0x04\n      add\n      tag_64\n      swap1\n      tag_175\n      jump\t// in\n        /* \"@openzeppelin/contracts/utils/cryptography/ECDSA.sol\":802:1158  if (error == RecoverError.InvalidSignatureLength) {... */\n    tag_173:\n        /* \"@openzeppelin/contracts/utils/cryptography/ECDSA.sol\":937:967  RecoverError.InvalidSignatureS */\n      0x03\n        /* \"@openzeppelin/contracts/utils/cryptography/ECDSA.sol\":928:933  error */\n      dup2\n        /* \"@openzeppelin/contracts/utils/cryptography/ECDSA.sol\":928:967  error == RecoverError.InvalidSignatureS */\n      0x04\n      dup2\n      gt\n      iszero\n      tag_178\n      jumpi\n      mstore(0x00, shl(0xe0, 0x4e487b71))\n      mstore(0x04, 0x21)\n      revert(0x00, 0x24)\n    tag_178:\n      eq\n        /* \"@openzeppelin/contracts/utils/cryptography/ECDSA.sol\":924:1158  if (error == RecoverError.InvalidSignatureS) {... */\n      iszero\n      tag_179\n      jumpi\n        /* \"@openzeppelin/contracts/utils/cryptography/ECDSA.sol\":983:1027  revert(\"ECDSA: invalid signature 's' value\") */\n      mload(0x40)\n      shl(0xe5, 0x461bcd)\n      dup2\n      mstore\n      0x04\n      add\n      tag_64\n      swap1\n      tag_181\n      jump\t// in\n        /* \"@openzeppelin/contracts/utils/cryptography/ECDSA.sol\":924:1158  if (error == RecoverError.InvalidSignatureS) {... */\n    tag_179:\n        /* \"@openzeppelin/contracts/utils/cryptography/ECDSA.sol\":1057:1087  RecoverError.InvalidSignatureV */\n      0x04\n        /* \"@openzeppelin/contracts/utils/cryptography/ECDSA.sol\":1048:1053  error */\n      dup2\n        /* \"@openzeppelin/contracts/utils/cryptography/ECDSA.sol\":1048:1087  error == RecoverError.InvalidSignatureV */\n      0x04\n      dup2\n      gt\n      iszero\n      tag_184\n      jumpi\n      mstore(0x00, shl(0xe0, 0x4e487b71))\n      mstore(0x04, 0x21)\n      revert(0x00, 0x24)\n    tag_184:\n      eq\n        /* \"@openzeppelin/contracts/utils/cryptography/ECDSA.sol\":1044:1158  if (error == RecoverError.InvalidSignatureV) {... */\n      iszero\n      tag_128\n      jumpi\n        /* \"@openzeppelin/contracts/utils/cryptography/ECDSA.sol\":1103:1147  revert(\"ECDSA: invalid signature 'v' value\") */\n      mload(0x40)\n      shl(0xe5, 0x461bcd)\n      dup2\n      mstore\n      0x04\n      add\n      tag_64\n      swap1\n      tag_187\n      jump\t// in\n        /* \"@openzeppelin/contracts-upgradeable/utils/ContextUpgradeable.sol\":807:871  function __Context_init_unchained() internal initializer {... */\n    tag_147:\n        /* \"@openzeppelin/contracts-upgradeable/proxy/utils/Initializable.sol\":539:552  _initializing */\n      sload(0x00)\n      0x0100\n      swap1\n      div\n      0xff\n      and\n      dup1\n        /* \"@openzeppelin/contracts-upgradeable/proxy/utils/Initializable.sol\":539:569  _initializing || !_initialized */\n      tag_189\n      jumpi\n      pop\n        /* \"@openzeppelin/contracts-upgradeable/proxy/utils/Initializable.sol\":557:569  _initialized */\n      and(0xff, sload(0x00))\n        /* \"@openzeppelin/contracts-upgradeable/proxy/utils/Initializable.sol\":556:569  !_initialized */\n      iszero\n        /* \"@openzeppelin/contracts-upgradeable/proxy/utils/Initializable.sol\":539:569  _initializing || !_initialized */\n    tag_189:\n        /* \"@openzeppelin/contracts-upgradeable/proxy/utils/Initializable.sol\":531:620  require(_initializing || !_initialized, \"Initializable: contract is already initialized\") */\n      tag_190\n      jumpi\n      mload(0x40)\n      shl(0xe5, 0x461bcd)\n      dup2\n      mstore\n      0x04\n      add\n      tag_64\n      swap1\n      tag_106\n      jump\t// in\n    tag_190:\n        /* \"@openzeppelin/contracts-upgradeable/proxy/utils/Initializable.sol\":631:650  bool isTopLevelCall */\n      0x00\n        /* \"@openzeppelin/contracts-upgradeable/proxy/utils/Initializable.sol\":654:667  _initializing */\n      sload\n      0x0100\n      swap1\n      div\n      0xff\n      and\n        /* \"@openzeppelin/contracts-upgradeable/proxy/utils/Initializable.sol\":653:667  !_initializing */\n      iszero\n        /* \"@openzeppelin/contracts-upgradeable/proxy/utils/Initializable.sol\":677:775  if (isTopLevelCall) {... */\n      dup1\n      iszero\n      tag_148\n      jumpi\n        /* \"@openzeppelin/contracts-upgradeable/proxy/utils/Initializable.sol\":711:724  _initializing */\n      0x00\n        /* \"@openzeppelin/contracts-upgradeable/proxy/utils/Initializable.sol\":711:731  _initializing = true */\n      dup1\n      sload\n      not(0xff)\n      not(0xff00)\n      swap1\n      swap2\n      and\n      0x0100\n      or\n        /* \"@openzeppelin/contracts-upgradeable/proxy/utils/Initializable.sol\":745:764  _initialized = true */\n      and\n        /* \"@openzeppelin/contracts-upgradeable/proxy/utils/Initializable.sol\":727:731  true */\n      0x01\n        /* \"@openzeppelin/contracts-upgradeable/proxy/utils/Initializable.sol\":745:764  _initialized = true */\n      or\n      swap1\n      sstore\n        /* \"@openzeppelin/contracts-upgradeable/proxy/utils/Initializable.sol\":801:815  isTopLevelCall */\n      dup1\n        /* \"@openzeppelin/contracts-upgradeable/proxy/utils/Initializable.sol\":797:863  if (isTopLevelCall) {... */\n      iszero\n      tag_128\n      jumpi\n        /* \"@openzeppelin/contracts-upgradeable/proxy/utils/Initializable.sol\":847:852  false */\n      0x00\n        /* \"@openzeppelin/contracts-upgradeable/proxy/utils/Initializable.sol\":831:852  _initializing = false */\n      dup1\n      sload\n      not(0xff00)\n      and\n      swap1\n      sstore\n        /* \"@openzeppelin/contracts-upgradeable/utils/ContextUpgradeable.sol\":807:871  function __Context_init_unchained() internal initializer {... */\n      pop\n      jump\t// out\n        /* \"@openzeppelin/contracts-upgradeable/access/OwnableUpgradeable.sol\":1120:1226  function __Ownable_init_unchained() internal initializer {... */\n    tag_149:\n        /* \"@openzeppelin/contracts-upgradeable/proxy/utils/Initializable.sol\":539:552  _initializing */\n      sload(0x00)\n      0x0100\n      swap1\n      div\n      0xff\n      and\n      dup1\n        /* \"@openzeppelin/contracts-upgradeable/proxy/utils/Initializable.sol\":539:569  _initializing || !_initialized */\n      tag_196\n      jumpi\n      pop\n        /* \"@openzeppelin/contracts-upgradeable/proxy/utils/Initializable.sol\":557:569  _initialized */\n      and(0xff, sload(0x00))\n        /* \"@openzeppelin/contracts-upgradeable/proxy/utils/Initializable.sol\":556:569  !_initialized */\n      iszero\n        /* \"@openzeppelin/contracts-upgradeable/proxy/utils/Initializable.sol\":539:569  _initializing || !_initialized */\n    tag_196:\n        /* \"@openzeppelin/contracts-upgradeable/proxy/utils/Initializable.sol\":531:620  require(_initializing || !_initialized, \"Initializable: contract is already initialized\") */\n      tag_197\n      jumpi\n      mload(0x40)\n      shl(0xe5, 0x461bcd)\n      dup2\n      mstore\n      0x04\n      add\n      tag_64\n      swap1\n      tag_106\n      jump\t// in\n    tag_197:\n        /* \"@openzeppelin/contracts-upgradeable/proxy/utils/Initializable.sol\":631:650  bool isTopLevelCall */\n      0x00\n        /* \"@openzeppelin/contracts-upgradeable/proxy/utils/Initializable.sol\":654:667  _initializing */\n      sload\n      0x0100\n      swap1\n      div\n      0xff\n      and\n        /* \"@openzeppelin/contracts-upgradeable/proxy/utils/Initializable.sol\":653:667  !_initializing */\n      iszero\n        /* \"@openzeppelin/contracts-upgradeable/proxy/utils/Initializable.sol\":677:775  if (isTopLevelCall) {... */\n      dup1\n      iszero\n      tag_199\n      jumpi\n        /* \"@openzeppelin/contracts-upgradeable/proxy/utils/Initializable.sol\":711:724  _initializing */\n      0x00\n        /* \"@openzeppelin/contracts-upgradeable/proxy/utils/Initializable.sol\":711:731  _initializing = true */\n      dup1\n      sload\n      not(0xff)\n      not(0xff00)\n      swap1\n      swap2\n      and\n      0x0100\n      or\n        /* \"@openzeppelin/contracts-upgradeable/proxy/utils/Initializable.sol\":745:764  _initialized = true */\n      and\n        /* \"@openzeppelin/contracts-upgradeable/proxy/utils/Initializable.sol\":727:731  true */\n      0x01\n        /* \"@openzeppelin/contracts-upgradeable/proxy/utils/Initializable.sol\":745:764  _initialized = true */\n      or\n      swap1\n      sstore\n        /* \"@openzeppelin/contracts-upgradeable/proxy/utils/Initializable.sol\":677:775  if (isTopLevelCall) {... */\n    tag_199:\n        /* \"@openzeppelin/contracts-upgradeable/access/OwnableUpgradeable.sol\":1187:1219  _transferOwnership(_msgSender()) */\n      tag_148\n        /* \"@openzeppelin/contracts-upgradeable/access/OwnableUpgradeable.sol\":1206:1218  _msgSender() */\n      tag_202\n        /* \"@openzeppelin/contracts-upgradeable/access/OwnableUpgradeable.sol\":1206:1216  _msgSender */\n      tag_61\n        /* \"@openzeppelin/contracts-upgradeable/access/OwnableUpgradeable.sol\":1206:1218  _msgSender() */\n      jump\t// in\n    tag_202:\n        /* \"@openzeppelin/contracts-upgradeable/access/OwnableUpgradeable.sol\":1187:1205  _transferOwnership */\n      tag_100\n        /* \"@openzeppelin/contracts-upgradeable/access/OwnableUpgradeable.sol\":1187:1219  _transferOwnership(_msgSender()) */\n      jump\t// in\n        /* \"@openzeppelin/contracts/utils/cryptography/ECDSA.sol\":5744:7347  function tryRecover(... */\n    tag_154:\n        /* \"@openzeppelin/contracts/utils/cryptography/ECDSA.sol\":5870:5877  address */\n      0x00\n      dup1\n        /* \"@openzeppelin/contracts/utils/cryptography/ECDSA.sol\":6794:6860  0x7FFFFFFFFFFFFFFFFFFFFFFFFFFFFFFF5D576E7357A4501DDFE92F46681B20A0 */\n      0x7fffffffffffffffffffffffffffffff5d576e7357a4501ddfe92f46681b20a0\n        /* \"@openzeppelin/contracts/utils/cryptography/ECDSA.sol\":6781:6860  uint256(s) > 0x7FFFFFFFFFFFFFFFFFFFFFFFFFFFFFFF5D576E7357A4501DDFE92F46681B20A0 */\n      dup4\n      gt\n        /* \"@openzeppelin/contracts/utils/cryptography/ECDSA.sol\":6777:6938  if (uint256(s) > 0x7FFFFFFFFFFFFFFFFFFFFFFFFFFFFFFF5D576E7357A4501DDFE92F46681B20A0) {... */\n      iszero\n      tag_205\n      jumpi\n      pop\n        /* \"@openzeppelin/contracts/utils/cryptography/ECDSA.sol\":6892:6893  0 */\n      0x00\n      swap1\n      pop\n        /* \"@openzeppelin/contracts/utils/cryptography/ECDSA.sol\":6896:6926  RecoverError.InvalidSignatureS */\n      0x03\n        /* \"@openzeppelin/contracts/utils/cryptography/ECDSA.sol\":6876:6927  return (address(0), RecoverError.InvalidSignatureS) */\n      jump(tag_204)\n        /* \"@openzeppelin/contracts/utils/cryptography/ECDSA.sol\":6777:6938  if (uint256(s) > 0x7FFFFFFFFFFFFFFFFFFFFFFFFFFFFFFF5D576E7357A4501DDFE92F46681B20A0) {... */\n    tag_205:\n        /* \"@openzeppelin/contracts/utils/cryptography/ECDSA.sol\":6951:6952  v */\n      dup5\n        /* \"@openzeppelin/contracts/utils/cryptography/ECDSA.sol\":6951:6958  v != 27 */\n      0xff\n      and\n        /* \"@openzeppelin/contracts/utils/cryptography/ECDSA.sol\":6956:6958  27 */\n      0x1b\n        /* \"@openzeppelin/contracts/utils/cryptography/ECDSA.sol\":6951:6958  v != 27 */\n      eq\n      iszero\n        /* \"@openzeppelin/contracts/utils/cryptography/ECDSA.sol\":6951:6969  v != 27 && v != 28 */\n      dup1\n      iszero\n      tag_206\n      jumpi\n      pop\n        /* \"@openzeppelin/contracts/utils/cryptography/ECDSA.sol\":6962:6963  v */\n      dup5\n        /* \"@openzeppelin/contracts/utils/cryptography/ECDSA.sol\":6962:6969  v != 28 */\n      0xff\n      and\n        /* \"@openzeppelin/contracts/utils/cryptography/ECDSA.sol\":6967:6969  28 */\n      0x1c\n        /* \"@openzeppelin/contracts/utils/cryptography/ECDSA.sol\":6962:6969  v != 28 */\n      eq\n      iszero\n        /* \"@openzeppelin/contracts/utils/cryptography/ECDSA.sol\":6951:6969  v != 27 && v != 28 */\n    tag_206:\n        /* \"@openzeppelin/contracts/utils/cryptography/ECDSA.sol\":6947:7047  if (v != 27 && v != 28) {... */\n      iszero\n      tag_207\n      jumpi\n      pop\n        /* \"@openzeppelin/contracts/utils/cryptography/ECDSA.sol\":7001:7002  0 */\n      0x00\n      swap1\n      pop\n        /* \"@openzeppelin/contracts/utils/cryptography/ECDSA.sol\":7005:7035  RecoverError.InvalidSignatureV */\n      0x04\n        /* \"@openzeppelin/contracts/utils/cryptography/ECDSA.sol\":6985:7036  return (address(0), RecoverError.InvalidSignatureV) */\n      jump(tag_204)\n        /* \"@openzeppelin/contracts/utils/cryptography/ECDSA.sol\":6947:7047  if (v != 27 && v != 28) {... */\n    tag_207:\n        /* \"@openzeppelin/contracts/utils/cryptography/ECDSA.sol\":7141:7155  address signer */\n      0x00\n        /* \"@openzeppelin/contracts/utils/cryptography/ECDSA.sol\":7158:7182  ecrecover(hash, v, r, s) */\n      0x01\n        /* \"@openzeppelin/contracts/utils/cryptography/ECDSA.sol\":7168:7172  hash */\n      dup8\n        /* \"@openzeppelin/contracts/utils/cryptography/ECDSA.sol\":7174:7175  v */\n      dup8\n        /* \"@openzeppelin/contracts/utils/cryptography/ECDSA.sol\":7177:7178  r */\n      dup8\n        /* \"@openzeppelin/contracts/utils/cryptography/ECDSA.sol\":7180:7181  s */\n      dup8\n        /* \"@openzeppelin/contracts/utils/cryptography/ECDSA.sol\":7158:7182  ecrecover(hash, v, r, s) */\n      mload(0x40)\n      0x00\n      dup2\n      mstore\n      0x20\n      add\n      0x40\n      mstore\n      mload(0x40)\n      tag_208\n      swap5\n      swap4\n      swap3\n      swap2\n      swap1\n      tag_209\n      jump\t// in\n    tag_208:\n      0x20\n      mload(0x40)\n      0x20\n      dup2\n      sub\n      swap1\n      dup1\n      dup5\n      sub\n      swap1\n      dup6\n      gas\n      staticcall\n      iszero\n      dup1\n      iszero\n      tag_211\n      jumpi\n      returndatasize\n      0x00\n      dup1\n      returndatacopy\n      revert(0x00, returndatasize)\n    tag_211:\n      pop\n      pop\n      mload(add(not(0x1f), mload(0x40)))\n      swap2\n      pop\n      pop\n      sub(shl(0xa0, 0x01), 0x01)\n        /* \"@openzeppelin/contracts/utils/cryptography/ECDSA.sol\":7196:7216  signer == address(0) */\n      dup2\n      and\n        /* \"@openzeppelin/contracts/utils/cryptography/ECDSA.sol\":7192:7293  if (signer == address(0)) {... */\n      tag_212\n      jumpi\n        /* \"@openzeppelin/contracts/utils/cryptography/ECDSA.sol\":7248:7249  0 */\n      0x00\n        /* \"@openzeppelin/contracts/utils/cryptography/ECDSA.sol\":7252:7281  RecoverError.InvalidSignature */\n      0x01\n        /* \"@openzeppelin/contracts/utils/cryptography/ECDSA.sol\":7232:7282  return (address(0), RecoverError.InvalidSignature) */\n      swap3\n      pop\n      swap3\n      pop\n      pop\n      jump(tag_204)\n        /* \"@openzeppelin/contracts/utils/cryptography/ECDSA.sol\":7192:7293  if (signer == address(0)) {... */\n    tag_212:\n        /* \"@openzeppelin/contracts/utils/cryptography/ECDSA.sol\":7311:7317  signer */\n      swap2\n      pop\n        /* \"@openzeppelin/contracts/utils/cryptography/ECDSA.sol\":7319:7339  RecoverError.NoError */\n      0x00\n      swap1\n      pop\n        /* \"@openzeppelin/contracts/utils/cryptography/ECDSA.sol\":5744:7347  function tryRecover(... */\n    tag_204:\n      swap5\n      pop\n      swap5\n      swap3\n      pop\n      pop\n      pop\n      jump\t// out\n        /* \"@openzeppelin/contracts/utils/cryptography/ECDSA.sol\":4774:5153  function tryRecover(... */\n    tag_158:\n        /* \"@openzeppelin/contracts/utils/cryptography/ECDSA.sol\":4884:4891  address */\n      0x00\n      dup1\n      sub(shl(0xff, 0x01), 0x01)\n        /* \"@openzeppelin/contracts/utils/cryptography/ECDSA.sol\":4981:5056  and(vs, 0x7fffffffffffffffffffffffffffffffffffffffffffffffffffffffffffffff) */\n      dup4\n      and\n        /* \"@openzeppelin/contracts/utils/cryptography/ECDSA.sol\":5082:5085  255 */\n      0xff\n        /* \"@openzeppelin/contracts/utils/cryptography/ECDSA.sol\":5078:5090  shr(255, vs) */\n      dup5\n      swap1\n      shr\n        /* \"@openzeppelin/contracts/utils/cryptography/ECDSA.sol\":5092:5094  27 */\n      0x1b\n        /* \"@openzeppelin/contracts/utils/cryptography/ECDSA.sol\":5074:5095  add(shr(255, vs), 27) */\n      add\n        /* \"@openzeppelin/contracts/utils/cryptography/ECDSA.sol\":5121:5146  tryRecover(hash, v, r, s) */\n      tag_214\n        /* \"@openzeppelin/contracts/utils/cryptography/ECDSA.sol\":5132:5136  hash */\n      dup8\n        /* \"@openzeppelin/contracts/utils/cryptography/ECDSA.sol\":5074:5095  add(shr(255, vs), 27) */\n      dup3\n        /* \"@openzeppelin/contracts/utils/cryptography/ECDSA.sol\":5141:5142  r */\n      dup9\n        /* \"@openzeppelin/contracts/utils/cryptography/ECDSA.sol\":4981:5056  and(vs, 0x7fffffffffffffffffffffffffffffffffffffffffffffffffffffffffffffff) */\n      dup6\n        /* \"@openzeppelin/contracts/utils/cryptography/ECDSA.sol\":5121:5131  tryRecover */\n      tag_154\n        /* \"@openzeppelin/contracts/utils/cryptography/ECDSA.sol\":5121:5146  tryRecover(hash, v, r, s) */\n      jump\t// in\n    tag_214:\n        /* \"@openzeppelin/contracts/utils/cryptography/ECDSA.sol\":5114:5146  return tryRecover(hash, v, r, s) */\n      swap4\n      pop\n      swap4\n      pop\n      pop\n      pop\n        /* \"@openzeppelin/contracts/utils/cryptography/ECDSA.sol\":4774:5153  function tryRecover(... */\n      swap4\n      pop\n      swap4\n      swap2\n      pop\n      pop\n      jump\t// out\n        /* \"#utility.yul\":14:621   */\n    tag_216:\n      0x00\n        /* \"#utility.yul\":110:128   */\n      0xffffffffffffffff\n        /* \"#utility.yul\":151:153   */\n      dup1\n        /* \"#utility.yul\":143:149   */\n      dup5\n        /* \"#utility.yul\":140:154   */\n      gt\n        /* \"#utility.yul\":137:139   */\n      iszero\n      tag_219\n      jumpi\n        /* \"#utility.yul\":157:175   */\n      tag_219\n      tag_220\n      jump\t// in\n    tag_219:\n        /* \"#utility.yul\":206:208   */\n      0x40\n        /* \"#utility.yul\":200:209   */\n      mload\n        /* \"#utility.yul\":279:281   */\n      0x1f\n        /* \"#utility.yul\":256:273   */\n      dup6\n      add\n      not(0x1f)\n        /* \"#utility.yul\":252:283   */\n      and\n        /* \"#utility.yul\":240:284   */\n      dup2\n      add\n        /* \"#utility.yul\":286:290   */\n      0x20\n        /* \"#utility.yul\":236:291   */\n      add\n        /* \"#utility.yul\":306:324   */\n      dup3\n      dup2\n      gt\n        /* \"#utility.yul\":326:348   */\n      dup3\n      dup3\n      lt\n        /* \"#utility.yul\":303:349   */\n      or\n        /* \"#utility.yul\":300:302   */\n      iszero\n      tag_222\n      jumpi\n        /* \"#utility.yul\":352:370   */\n      tag_222\n      tag_220\n      jump\t// in\n    tag_222:\n        /* \"#utility.yul\":388:390   */\n      0x40\n        /* \"#utility.yul\":381:403   */\n      mstore\n        /* \"#utility.yul\":436:458   */\n      dup5\n      dup2\n      mstore\n        /* \"#utility.yul\":421:427   */\n      swap2\n      pop\n      dup2\n        /* \"#utility.yul\":473:489   */\n      dup4\n      dup6\n      add\n        /* \"#utility.yul\":470:495   */\n      dup7\n      lt\n        /* \"#utility.yul\":467:469   */\n      iszero\n      tag_223\n      jumpi\n        /* \"#utility.yul\":508:509   */\n      0x00\n        /* \"#utility.yul\":505:506   */\n      dup1\n        /* \"#utility.yul\":498:510   */\n      revert\n        /* \"#utility.yul\":467:469   */\n    tag_223:\n        /* \"#utility.yul\":558:564   */\n      dup5\n        /* \"#utility.yul\":553:556   */\n      dup5\n        /* \"#utility.yul\":546:550   */\n      0x20\n        /* \"#utility.yul\":538:544   */\n      dup4\n        /* \"#utility.yul\":534:551   */\n      add\n        /* \"#utility.yul\":521:565   */\n      calldatacopy\n        /* \"#utility.yul\":613:614   */\n      0x00\n        /* \"#utility.yul\":606:610   */\n      0x20\n        /* \"#utility.yul\":597:603   */\n      dup7\n        /* \"#utility.yul\":589:595   */\n      dup4\n        /* \"#utility.yul\":585:604   */\n      add\n        /* \"#utility.yul\":581:611   */\n      add\n        /* \"#utility.yul\":574:615   */\n      mstore\n      pop\n      pop\n        /* \"#utility.yul\":90:621   */\n      swap4\n      swap3\n      pop\n      pop\n      pop\n      jump\t// out\n        /* \"#utility.yul\":626:801   */\n    tag_224:\n        /* \"#utility.yul\":696:716   */\n      dup1\n      calldataload\n      sub(shl(0xa0, 0x01), 0x01)\n        /* \"#utility.yul\":745:776   */\n      dup2\n      and\n        /* \"#utility.yul\":735:777   */\n      dup2\n      eq\n        /* \"#utility.yul\":725:727   */\n      tag_92\n      jumpi\n        /* \"#utility.yul\":791:792   */\n      0x00\n        /* \"#utility.yul\":788:789   */\n      dup1\n        /* \"#utility.yul\":781:793   */\n      revert\n        /* \"#utility.yul\":806:968   */\n    tag_227:\n        /* \"#utility.yul\":873:893   */\n      dup1\n      calldataload\n        /* \"#utility.yul\":929:942   */\n      dup1\n      iszero\n        /* \"#utility.yul\":922:943   */\n      iszero\n        /* \"#utility.yul\":912:944   */\n      dup2\n      eq\n        /* \"#utility.yul\":902:904   */\n      tag_92\n      jumpi\n        /* \"#utility.yul\":958:959   */\n      0x00\n        /* \"#utility.yul\":955:956   */\n      dup1\n        /* \"#utility.yul\":948:960   */\n      revert\n        /* \"#utility.yul\":973:1171   */\n    tag_32:\n      0x00\n        /* \"#utility.yul\":1085:1087   */\n      0x20\n        /* \"#utility.yul\":1073:1082   */\n      dup3\n        /* \"#utility.yul\":1064:1071   */\n      dup5\n        /* \"#utility.yul\":1060:1083   */\n      sub\n        /* \"#utility.yul\":1056:1088   */\n      slt\n        /* \"#utility.yul\":1053:1055   */\n      iszero\n      tag_231\n      jumpi\n        /* \"#utility.yul\":1106:1112   */\n      dup1\n        /* \"#utility.yul\":1098:1104   */\n      dup2\n        /* \"#utility.yul\":1091:1113   */\n      revert\n        /* \"#utility.yul\":1053:1055   */\n    tag_231:\n        /* \"#utility.yul\":1134:1165   */\n      tag_67\n        /* \"#utility.yul\":1155:1164   */\n      dup3\n        /* \"#utility.yul\":1134:1165   */\n      tag_224\n      jump\t// in\n        /* \"#utility.yul\":1176:1444   */\n    tag_17:\n      0x00\n      dup1\n        /* \"#utility.yul\":1302:1304   */\n      0x40\n        /* \"#utility.yul\":1290:1299   */\n      dup4\n        /* \"#utility.yul\":1281:1288   */\n      dup6\n        /* \"#utility.yul\":1277:1300   */\n      sub\n        /* \"#utility.yul\":1273:1305   */\n      slt\n        /* \"#utility.yul\":1270:1272   */\n      iszero\n      tag_234\n      jumpi\n        /* \"#utility.yul\":1323:1329   */\n      dup1\n        /* \"#utility.yul\":1315:1321   */\n      dup2\n        /* \"#utility.yul\":1308:1330   */\n      revert\n        /* \"#utility.yul\":1270:1272   */\n    tag_234:\n        /* \"#utility.yul\":1351:1382   */\n      tag_235\n        /* \"#utility.yul\":1372:1381   */\n      dup4\n        /* \"#utility.yul\":1351:1382   */\n      tag_224\n      jump\t// in\n    tag_235:\n        /* \"#utility.yul\":1341:1382   */\n      swap2\n      pop\n        /* \"#utility.yul\":1401:1438   */\n      tag_236\n        /* \"#utility.yul\":1434:1436   */\n      0x20\n        /* \"#utility.yul\":1423:1432   */\n      dup5\n        /* \"#utility.yul\":1419:1437   */\n      add\n        /* \"#utility.yul\":1401:1438   */\n      tag_227\n      jump\t// in\n    tag_236:\n        /* \"#utility.yul\":1391:1438   */\n      swap1\n      pop\n        /* \"#utility.yul\":1260:1444   */\n      swap3\n      pop\n      swap3\n      swap1\n      pop\n      jump\t// out\n        /* \"#utility.yul\":1449:2509   */\n    tag_27:\n      0x00\n      dup1\n      0x00\n      dup1\n      0x00\n        /* \"#utility.yul\":1645:1648   */\n      0xa0\n        /* \"#utility.yul\":1633:1642   */\n      dup7\n        /* \"#utility.yul\":1624:1631   */\n      dup9\n        /* \"#utility.yul\":1620:1643   */\n      sub\n        /* \"#utility.yul\":1616:1649   */\n      slt\n        /* \"#utility.yul\":1613:1615   */\n      iszero\n      tag_238\n      jumpi\n        /* \"#utility.yul\":1667:1673   */\n      dup1\n        /* \"#utility.yul\":1659:1665   */\n      dup2\n        /* \"#utility.yul\":1652:1674   */\n      revert\n        /* \"#utility.yul\":1613:1615   */\n    tag_238:\n        /* \"#utility.yul\":1695:1723   */\n      tag_239\n        /* \"#utility.yul\":1713:1722   */\n      dup7\n        /* \"#utility.yul\":1695:1723   */\n      tag_227\n      jump\t// in\n    tag_239:\n        /* \"#utility.yul\":1685:1723   */\n      swap5\n      pop\n        /* \"#utility.yul\":1770:1772   */\n      0x20\n        /* \"#utility.yul\":1759:1768   */\n      dup7\n        /* \"#utility.yul\":1755:1773   */\n      add\n        /* \"#utility.yul\":1742:1774   */\n      calldataload\n        /* \"#utility.yul\":1732:1774   */\n      swap4\n      pop\n        /* \"#utility.yul\":1821:1823   */\n      0x40\n        /* \"#utility.yul\":1810:1819   */\n      dup7\n        /* \"#utility.yul\":1806:1824   */\n      add\n        /* \"#utility.yul\":1793:1825   */\n      calldataload\n        /* \"#utility.yul\":1783:1825   */\n      swap3\n      pop\n        /* \"#utility.yul\":1876:1878   */\n      0x60\n        /* \"#utility.yul\":1865:1874   */\n      dup7\n        /* \"#utility.yul\":1861:1879   */\n      add\n        /* \"#utility.yul\":1848:1880   */\n      calldataload\n        /* \"#utility.yul\":1899:1917   */\n      0xffffffffffffffff\n        /* \"#utility.yul\":1940:1942   */\n      dup1\n        /* \"#utility.yul\":1932:1938   */\n      dup3\n        /* \"#utility.yul\":1929:1943   */\n      gt\n        /* \"#utility.yul\":1926:1928   */\n      iszero\n      tag_240\n      jumpi\n        /* \"#utility.yul\":1961:1967   */\n      dup3\n        /* \"#utility.yul\":1953:1959   */\n      dup4\n        /* \"#utility.yul\":1946:1968   */\n      revert\n        /* \"#utility.yul\":1926:1928   */\n    tag_240:\n        /* \"#utility.yul\":2004:2010   */\n      dup2\n        /* \"#utility.yul\":1993:2002   */\n      dup9\n        /* \"#utility.yul\":1989:2011   */\n      add\n        /* \"#utility.yul\":1979:2011   */\n      swap2\n      pop\n        /* \"#utility.yul\":2049:2056   */\n      dup9\n        /* \"#utility.yul\":2042:2046   */\n      0x1f\n        /* \"#utility.yul\":2038:2040   */\n      dup4\n        /* \"#utility.yul\":2034:2047   */\n      add\n        /* \"#utility.yul\":2030:2057   */\n      slt\n        /* \"#utility.yul\":2020:2022   */\n      tag_241\n      jumpi\n        /* \"#utility.yul\":2076:2082   */\n      dup3\n        /* \"#utility.yul\":2068:2074   */\n      dup4\n        /* \"#utility.yul\":2061:2083   */\n      revert\n        /* \"#utility.yul\":2020:2022   */\n    tag_241:\n        /* \"#utility.yul\":2104:2179   */\n      tag_242\n        /* \"#utility.yul\":2171:2178   */\n      dup10\n        /* \"#utility.yul\":2166:2168   */\n      dup4\n        /* \"#utility.yul\":2153:2169   */\n      calldataload\n        /* \"#utility.yul\":2148:2150   */\n      0x20\n        /* \"#utility.yul\":2144:2146   */\n      dup6\n        /* \"#utility.yul\":2140:2151   */\n      add\n        /* \"#utility.yul\":2104:2179   */\n      tag_216\n      jump\t// in\n    tag_242:\n        /* \"#utility.yul\":2094:2179   */\n      swap4\n      pop\n        /* \"#utility.yul\":2232:2235   */\n      0x80\n        /* \"#utility.yul\":2221:2230   */\n      dup9\n        /* \"#utility.yul\":2217:2236   */\n      add\n        /* \"#utility.yul\":2204:2237   */\n      calldataload\n        /* \"#utility.yul\":2188:2237   */\n      swap2\n      pop\n        /* \"#utility.yul\":2262:2264   */\n      dup1\n        /* \"#utility.yul\":2252:2260   */\n      dup3\n        /* \"#utility.yul\":2249:2265   */\n      gt\n        /* \"#utility.yul\":2246:2248   */\n      iszero\n      tag_243\n      jumpi\n        /* \"#utility.yul\":2283:2289   */\n      dup3\n        /* \"#utility.yul\":2275:2281   */\n      dup4\n        /* \"#utility.yul\":2268:2290   */\n      revert\n        /* \"#utility.yul\":2246:2248   */\n    tag_243:\n      pop\n        /* \"#utility.yul\":2311:2335   */\n      dup7\n      add\n        /* \"#utility.yul\":2366:2370   */\n      0x1f\n        /* \"#utility.yul\":2358:2371   */\n      dup2\n      add\n        /* \"#utility.yul\":2354:2381   */\n      dup9\n      sgt\n        /* \"#utility.yul\":2344:2346   */\n      tag_244\n      jumpi\n        /* \"#utility.yul\":2400:2406   */\n      dup2\n        /* \"#utility.yul\":2392:2398   */\n      dup3\n        /* \"#utility.yul\":2385:2407   */\n      revert\n        /* \"#utility.yul\":2344:2346   */\n    tag_244:\n        /* \"#utility.yul\":2428:2503   */\n      tag_245\n        /* \"#utility.yul\":2495:2502   */\n      dup9\n        /* \"#utility.yul\":2490:2492   */\n      dup3\n        /* \"#utility.yul\":2477:2493   */\n      calldataload\n        /* \"#utility.yul\":2472:2474   */\n      0x20\n        /* \"#utility.yul\":2468:2470   */\n      dup5\n        /* \"#utility.yul\":2464:2475   */\n      add\n        /* \"#utility.yul\":2428:2503   */\n      tag_216\n      jump\t// in\n    tag_245:\n        /* \"#utility.yul\":2418:2503   */\n      swap2\n      pop\n      pop\n        /* \"#utility.yul\":1603:2509   */\n      swap3\n      swap6\n      pop\n      swap3\n      swap6\n      swap1\n      swap4\n      pop\n      jump\t// out\n        /* \"#utility.yul\":2514:2704   */\n    tag_53:\n      0x00\n        /* \"#utility.yul\":2626:2628   */\n      0x20\n        /* \"#utility.yul\":2614:2623   */\n      dup3\n        /* \"#utility.yul\":2605:2612   */\n      dup5\n        /* \"#utility.yul\":2601:2624   */\n      sub\n        /* \"#utility.yul\":2597:2629   */\n      slt\n        /* \"#utility.yul\":2594:2596   */\n      iszero\n      tag_247\n      jumpi\n        /* \"#utility.yul\":2647:2653   */\n      dup1\n        /* \"#utility.yul\":2639:2645   */\n      dup2\n        /* \"#utility.yul\":2632:2654   */\n      revert\n        /* \"#utility.yul\":2594:2596   */\n    tag_247:\n      pop\n        /* \"#utility.yul\":2675:2698   */\n      calldataload\n      swap2\n        /* \"#utility.yul\":2584:2704   */\n      swap1\n      pop\n      jump\t// out\n        /* \"#utility.yul\":2709:3401   */\n    tag_82:\n      0x00\n        /* \"#utility.yul\":2971:2977   */\n      dup6\n        /* \"#utility.yul\":2964:2978   */\n      iszero\n        /* \"#utility.yul\":2957:2979   */\n      iszero\n        /* \"#utility.yul\":2952:2955   */\n      0xf8\n        /* \"#utility.yul\":2948:2980   */\n      shl\n        /* \"#utility.yul\":2943:2946   */\n      dup3\n        /* \"#utility.yul\":2936:2981   */\n      mstore\n        /* \"#utility.yul\":3010:3016   */\n      dup5\n        /* \"#utility.yul\":3006:3007   */\n      0x01\n        /* \"#utility.yul\":3001:3004   */\n      dup4\n        /* \"#utility.yul\":2997:3008   */\n      add\n        /* \"#utility.yul\":2990:3017   */\n      mstore\n        /* \"#utility.yul\":3047:3053   */\n      dup4\n        /* \"#utility.yul\":3042:3044   */\n      0x21\n        /* \"#utility.yul\":3037:3040   */\n      dup4\n        /* \"#utility.yul\":3033:3045   */\n      add\n        /* \"#utility.yul\":3026:3054   */\n      mstore\n        /* \"#utility.yul\":3083:3089   */\n      dup3\n        /* \"#utility.yul\":3077:3090   */\n      mload\n        /* \"#utility.yul\":3108:3111   */\n      dup2\n        /* \"#utility.yul\":3120:3258   */\n    tag_249:\n        /* \"#utility.yul\":3134:3140   */\n      dup2\n        /* \"#utility.yul\":3131:3132   */\n      dup2\n        /* \"#utility.yul\":3128:3141   */\n      lt\n        /* \"#utility.yul\":3120:3258   */\n      iszero\n      tag_251\n      jumpi\n        /* \"#utility.yul\":3241:3245   */\n      0x20\n        /* \"#utility.yul\":3225:3239   */\n      dup2\n      dup7\n      add\n        /* \"#utility.yul\":3221:3246   */\n      dup2\n      add\n        /* \"#utility.yul\":3215:3247   */\n      mload\n        /* \"#utility.yul\":3210:3212   */\n      0x41\n        /* \"#utility.yul\":3197:3208   */\n      dup7\n      dup5\n      add\n        /* \"#utility.yul\":3193:3213   */\n      add\n        /* \"#utility.yul\":3186:3248   */\n      mstore\n        /* \"#utility.yul\":3149:3161   */\n      add\n        /* \"#utility.yul\":3120:3258   */\n      jump(tag_249)\n    tag_251:\n        /* \"#utility.yul\":3276:3282   */\n      dup2\n        /* \"#utility.yul\":3273:3274   */\n      dup2\n        /* \"#utility.yul\":3270:3283   */\n      gt\n        /* \"#utility.yul\":3267:3269   */\n      iszero\n      tag_252\n      jumpi\n        /* \"#utility.yul\":3340:3343   */\n      dup3\n        /* \"#utility.yul\":3335:3337   */\n      0x41\n        /* \"#utility.yul\":3326:3332   */\n      dup4\n        /* \"#utility.yul\":3321:3324   */\n      dup7\n        /* \"#utility.yul\":3317:3333   */\n      add\n        /* \"#utility.yul\":3313:3338   */\n      add\n        /* \"#utility.yul\":3306:3344   */\n      mstore\n        /* \"#utility.yul\":3267:3269   */\n    tag_252:\n      pop\n        /* \"#utility.yul\":3374:3390   */\n      swap2\n      swap1\n      swap2\n      add\n        /* \"#utility.yul\":3392:3394   */\n      0x41\n        /* \"#utility.yul\":3370:3395   */\n      add\n      swap6\n        /* \"#utility.yul\":2926:3401   */\n      swap5\n      pop\n      pop\n      pop\n      pop\n      pop\n      jump\t// out\n        /* \"#utility.yul\":3406:3786   */\n    tag_133:\n        /* \"#utility.yul\":3648:3714   */\n      0x19457468657265756d205369676e6564204d6573736167653a0a333200000000\n        /* \"#utility.yul\":3636:3715   */\n      dup2\n      mstore\n        /* \"#utility.yul\":3740:3742   */\n      0x1c\n        /* \"#utility.yul\":3731:3743   */\n      dup2\n      add\n        /* \"#utility.yul\":3724:3752   */\n      swap2\n      swap1\n      swap2\n      mstore\n        /* \"#utility.yul\":3777:3779   */\n      0x3c\n        /* \"#utility.yul\":3768:3780   */\n      add\n      swap1\n        /* \"#utility.yul\":3626:3786   */\n      jump\t// out\n        /* \"#utility.yul\":3791:3994   */\n    tag_24:\n      sub(shl(0xa0, 0x01), 0x01)\n        /* \"#utility.yul\":3955:3987   */\n      swap2\n      swap1\n      swap2\n      and\n        /* \"#utility.yul\":3937:3988   */\n      dup2\n      mstore\n        /* \"#utility.yul\":3925:3927   */\n      0x20\n        /* \"#utility.yul\":3910:3928   */\n      add\n      swap1\n        /* \"#utility.yul\":3892:3994   */\n      jump\t// out\n        /* \"#utility.yul\":3999:4186   */\n    tag_20:\n        /* \"#utility.yul\":4164:4178   */\n      swap1\n      iszero\n        /* \"#utility.yul\":4157:4179   */\n      iszero\n        /* \"#utility.yul\":4139:4180   */\n      dup2\n      mstore\n        /* \"#utility.yul\":4127:4129   */\n      0x20\n        /* \"#utility.yul\":4112:4130   */\n      add\n      swap1\n        /* \"#utility.yul\":4094:4186   */\n      jump\t// out\n        /* \"#utility.yul\":4191:4589   */\n    tag_209:\n        /* \"#utility.yul\":4418:4443   */\n      swap4\n      dup5\n      mstore\n        /* \"#utility.yul\":4491:4495   */\n      0xff\n        /* \"#utility.yul\":4479:4496   */\n      swap3\n      swap1\n      swap3\n      and\n        /* \"#utility.yul\":4474:4476   */\n      0x20\n        /* \"#utility.yul\":4459:4477   */\n      dup5\n      add\n        /* \"#utility.yul\":4452:4497   */\n      mstore\n        /* \"#utility.yul\":4528:4530   */\n      0x40\n        /* \"#utility.yul\":4513:4531   */\n      dup4\n      add\n        /* \"#utility.yul\":4506:4540   */\n      mstore\n        /* \"#utility.yul\":4571:4573   */\n      0x60\n        /* \"#utility.yul\":4556:4574   */\n      dup3\n      add\n        /* \"#utility.yul\":4549:4583   */\n      mstore\n        /* \"#utility.yul\":4405:4408   */\n      0x80\n        /* \"#utility.yul\":4390:4409   */\n      add\n      swap1\n        /* \"#utility.yul\":4372:4589   */\n      jump\t// out\n        /* \"#utility.yul\":4594:4942   */\n    tag_169:\n        /* \"#utility.yul\":4796:4798   */\n      0x20\n        /* \"#utility.yul\":4778:4799   */\n      dup1\n      dup3\n      mstore\n        /* \"#utility.yul\":4835:4837   */\n      0x18\n        /* \"#utility.yul\":4815:4833   */\n      swap1\n      dup3\n      add\n        /* \"#utility.yul\":4808:4838   */\n      mstore\n        /* \"#utility.yul\":4874:4900   */\n      0x45434453413a20696e76616c6964207369676e61747572650000000000000000\n        /* \"#utility.yul\":4869:4871   */\n      0x40\n        /* \"#utility.yul\":4854:4872   */\n      dup3\n      add\n        /* \"#utility.yul\":4847:4901   */\n      mstore\n        /* \"#utility.yul\":4933:4935   */\n      0x60\n        /* \"#utility.yul\":4918:4936   */\n      add\n      swap1\n        /* \"#utility.yul\":4768:4942   */\n      jump\t// out\n        /* \"#utility.yul\":4947:5284   */\n    tag_77:\n        /* \"#utility.yul\":5149:5151   */\n      0x20\n        /* \"#utility.yul\":5131:5152   */\n      dup1\n      dup3\n      mstore\n        /* \"#utility.yul\":5188:5190   */\n      0x0d\n        /* \"#utility.yul\":5168:5186   */\n      swap1\n      dup3\n      add\n        /* \"#utility.yul\":5161:5191   */\n      mstore\n      shl(0x99, 0x3a34b6b2b9ba30b6b81032b939)\n        /* \"#utility.yul\":5222:5224   */\n      0x40\n        /* \"#utility.yul\":5207:5225   */\n      dup3\n      add\n        /* \"#utility.yul\":5200:5243   */\n      mstore\n        /* \"#utility.yul\":5275:5277   */\n      0x60\n        /* \"#utility.yul\":5260:5278   */\n      add\n      swap1\n        /* \"#utility.yul\":5121:5284   */\n      jump\t// out\n        /* \"#utility.yul\":5289:5644   */\n    tag_175:\n        /* \"#utility.yul\":5491:5493   */\n      0x20\n        /* \"#utility.yul\":5473:5494   */\n      dup1\n      dup3\n      mstore\n        /* \"#utility.yul\":5530:5532   */\n      0x1f\n        /* \"#utility.yul\":5510:5528   */\n      swap1\n      dup3\n      add\n        /* \"#utility.yul\":5503:5533   */\n      mstore\n        /* \"#utility.yul\":5569:5602   */\n      0x45434453413a20696e76616c6964207369676e6174757265206c656e67746800\n        /* \"#utility.yul\":5564:5566   */\n      0x40\n        /* \"#utility.yul\":5549:5567   */\n      dup3\n      add\n        /* \"#utility.yul\":5542:5603   */\n      mstore\n        /* \"#utility.yul\":5635:5637   */\n      0x60\n        /* \"#utility.yul\":5620:5638   */\n      add\n      swap1\n        /* \"#utility.yul\":5463:5644   */\n      jump\t// out\n        /* \"#utility.yul\":5649:6051   */\n    tag_127:\n        /* \"#utility.yul\":5851:5853   */\n      0x20\n        /* \"#utility.yul\":5833:5854   */\n      dup1\n      dup3\n      mstore\n        /* \"#utility.yul\":5890:5892   */\n      0x26\n        /* \"#utility.yul\":5870:5888   */\n      swap1\n      dup3\n      add\n        /* \"#utility.yul\":5863:5893   */\n      mstore\n        /* \"#utility.yul\":5929:5963   */\n      0x4f776e61626c653a206e6577206f776e657220697320746865207a65726f2061\n        /* \"#utility.yul\":5924:5926   */\n      0x40\n        /* \"#utility.yul\":5909:5927   */\n      dup3\n      add\n        /* \"#utility.yul\":5902:5964   */\n      mstore\n      shl(0xd0, 0x646472657373)\n        /* \"#utility.yul\":5995:5997   */\n      0x60\n        /* \"#utility.yul\":5980:5998   */\n      dup3\n      add\n        /* \"#utility.yul\":5973:6009   */\n      mstore\n        /* \"#utility.yul\":6041:6044   */\n      0x80\n        /* \"#utility.yul\":6026:6045   */\n      add\n      swap1\n        /* \"#utility.yul\":5823:6051   */\n      jump\t// out\n        /* \"#utility.yul\":6056:6454   */\n    tag_181:\n        /* \"#utility.yul\":6258:6260   */\n      0x20\n        /* \"#utility.yul\":6240:6261   */\n      dup1\n      dup3\n      mstore\n        /* \"#utility.yul\":6297:6299   */\n      0x22\n        /* \"#utility.yul\":6277:6295   */\n      swap1\n      dup3\n      add\n        /* \"#utility.yul\":6270:6300   */\n      mstore\n        /* \"#utility.yul\":6336:6370   */\n      0x45434453413a20696e76616c6964207369676e6174757265202773272076616c\n        /* \"#utility.yul\":6331:6333   */\n      0x40\n        /* \"#utility.yul\":6316:6334   */\n      dup3\n      add\n        /* \"#utility.yul\":6309:6371   */\n      mstore\n      shl(0xf0, 0x7565)\n        /* \"#utility.yul\":6402:6404   */\n      0x60\n        /* \"#utility.yul\":6387:6405   */\n      dup3\n      add\n        /* \"#utility.yul\":6380:6412   */\n      mstore\n        /* \"#utility.yul\":6444:6447   */\n      0x80\n        /* \"#utility.yul\":6429:6448   */\n      add\n      swap1\n        /* \"#utility.yul\":6230:6454   */\n      jump\t// out\n        /* \"#utility.yul\":6459:6869   */\n    tag_106:\n        /* \"#utility.yul\":6661:6663   */\n      0x20\n        /* \"#utility.yul\":6643:6664   */\n      dup1\n      dup3\n      mstore\n        /* \"#utility.yul\":6700:6702   */\n      0x2e\n        /* \"#utility.yul\":6680:6698   */\n      swap1\n      dup3\n      add\n        /* \"#utility.yul\":6673:6703   */\n      mstore\n        /* \"#utility.yul\":6739:6773   */\n      0x496e697469616c697a61626c653a20636f6e747261637420697320616c726561\n        /* \"#utility.yul\":6734:6736   */\n      0x40\n        /* \"#utility.yul\":6719:6737   */\n      dup3\n      add\n        /* \"#utility.yul\":6712:6774   */\n      mstore\n      shl(0x92, 0x191e481a5b9a5d1a585b1a5e9959)\n        /* \"#utility.yul\":6805:6807   */\n      0x60\n        /* \"#utility.yul\":6790:6808   */\n      dup3\n      add\n        /* \"#utility.yul\":6783:6827   */\n      mstore\n        /* \"#utility.yul\":6859:6862   */\n      0x80\n        /* \"#utility.yul\":6844:6863   */\n      add\n      swap1\n        /* \"#utility.yul\":6633:6869   */\n      jump\t// out\n        /* \"#utility.yul\":6874:7210   */\n    tag_72:\n        /* \"#utility.yul\":7076:7078   */\n      0x20\n        /* \"#utility.yul\":7058:7079   */\n      dup1\n      dup3\n      mstore\n        /* \"#utility.yul\":7115:7117   */\n      0x0c\n        /* \"#utility.yul\":7095:7113   */\n      swap1\n      dup3\n      add\n        /* \"#utility.yul\":7088:7118   */\n      mstore\n      shl(0xa1, 0x32bc32b1baba37b91032b939)\n        /* \"#utility.yul\":7149:7151   */\n      0x40\n        /* \"#utility.yul\":7134:7152   */\n      dup3\n      add\n        /* \"#utility.yul\":7127:7169   */\n      mstore\n        /* \"#utility.yul\":7201:7203   */\n      0x60\n        /* \"#utility.yul\":7186:7204   */\n      add\n      swap1\n        /* \"#utility.yul\":7048:7210   */\n      jump\t// out\n        /* \"#utility.yul\":7215:7613   */\n    tag_187:\n        /* \"#utility.yul\":7417:7419   */\n      0x20\n        /* \"#utility.yul\":7399:7420   */\n      dup1\n      dup3\n      mstore\n        /* \"#utility.yul\":7456:7458   */\n      0x22\n        /* \"#utility.yul\":7436:7454   */\n      swap1\n      dup3\n      add\n        /* \"#utility.yul\":7429:7459   */\n      mstore\n        /* \"#utility.yul\":7495:7529   */\n      0x45434453413a20696e76616c6964207369676e6174757265202776272076616c\n        /* \"#utility.yul\":7490:7492   */\n      0x40\n        /* \"#utility.yul\":7475:7493   */\n      dup3\n      add\n        /* \"#utility.yul\":7468:7530   */\n      mstore\n      shl(0xf0, 0x7565)\n        /* \"#utility.yul\":7561:7563   */\n      0x60\n        /* \"#utility.yul\":7546:7564   */\n      dup3\n      add\n        /* \"#utility.yul\":7539:7571   */\n      mstore\n        /* \"#utility.yul\":7603:7606   */\n      0x80\n        /* \"#utility.yul\":7588:7607   */\n      add\n      swap1\n        /* \"#utility.yul\":7389:7613   */\n      jump\t// out\n        /* \"#utility.yul\":7618:7957   */\n    tag_80:\n        /* \"#utility.yul\":7820:7822   */\n      0x20\n        /* \"#utility.yul\":7802:7823   */\n      dup1\n      dup3\n      mstore\n        /* \"#utility.yul\":7859:7861   */\n      0x0f\n        /* \"#utility.yul\":7839:7857   */\n      swap1\n      dup3\n      add\n        /* \"#utility.yul\":7832:7862   */\n      mstore\n      shl(0x89, 0x26b0b935b2ba103737ba1037b832b7)\n        /* \"#utility.yul\":7893:7895   */\n      0x40\n        /* \"#utility.yul\":7878:7896   */\n      dup3\n      add\n        /* \"#utility.yul\":7871:7916   */\n      mstore\n        /* \"#utility.yul\":7948:7950   */\n      0x60\n        /* \"#utility.yul\":7933:7951   */\n      add\n      swap1\n        /* \"#utility.yul\":7792:7957   */\n      jump\t// out\n        /* \"#utility.yul\":7962:8318   */\n    tag_65:\n        /* \"#utility.yul\":8164:8166   */\n      0x20\n        /* \"#utility.yul\":8146:8167   */\n      dup1\n      dup3\n      mstore\n        /* \"#utility.yul\":8183:8201   */\n      dup2\n      dup2\n      add\n        /* \"#utility.yul\":8176:8206   */\n      mstore\n        /* \"#utility.yul\":8242:8276   */\n      0x4f776e61626c653a2063616c6c6572206973206e6f7420746865206f776e6572\n        /* \"#utility.yul\":8237:8239   */\n      0x40\n        /* \"#utility.yul\":8222:8240   */\n      dup3\n      add\n        /* \"#utility.yul\":8215:8277   */\n      mstore\n        /* \"#utility.yul\":8309:8311   */\n      0x60\n        /* \"#utility.yul\":8294:8312   */\n      add\n      swap1\n        /* \"#utility.yul\":8136:8318   */\n      jump\t// out\n        /* \"#utility.yul\":8323:8500   */\n    tag_47:\n        /* \"#utility.yul\":8469:8494   */\n      swap1\n      dup2\n      mstore\n        /* \"#utility.yul\":8457:8459   */\n      0x20\n        /* \"#utility.yul\":8442:8460   */\n      add\n      swap1\n        /* \"#utility.yul\":8424:8500   */\n      jump\t// out\n        /* \"#utility.yul\":8505:8733   */\n    tag_74:\n      0x00\n        /* \"#utility.yul\":8573:8574   */\n      dup3\n        /* \"#utility.yul\":8570:8571   */\n      dup3\n        /* \"#utility.yul\":8567:8575   */\n      lt\n        /* \"#utility.yul\":8564:8566   */\n      iszero\n      tag_269\n      jumpi\n      shl(0xe0, 0x4e487b71)\n        /* \"#utility.yul\":8598:8632   */\n      dup2\n      mstore\n        /* \"#utility.yul\":8655:8659   */\n      0x11\n        /* \"#utility.yul\":8652:8653   */\n      0x04\n        /* \"#utility.yul\":8645:8660   */\n      mstore\n        /* \"#utility.yul\":8686:8690   */\n      0x24\n        /* \"#utility.yul\":8605:8609   */\n      dup2\n        /* \"#utility.yul\":8673:8691   */\n      revert\n        /* \"#utility.yul\":8564:8566   */\n    tag_269:\n      pop\n        /* \"#utility.yul\":8718:8727   */\n      sub\n      swap1\n        /* \"#utility.yul\":8554:8733   */\n      jump\t// out\n        /* \"#utility.yul\":8738:8865   */\n    tag_220:\n        /* \"#utility.yul\":8799:8809   */\n      0x4e487b71\n        /* \"#utility.yul\":8794:8797   */\n      0xe0\n        /* \"#utility.yul\":8790:8810   */\n      shl\n        /* \"#utility.yul\":8787:8788   */\n      0x00\n        /* \"#utility.yul\":8780:8811   */\n      mstore\n        /* \"#utility.yul\":8830:8834   */\n      0x41\n        /* \"#utility.yul\":8827:8828   */\n      0x04\n        /* \"#utility.yul\":8820:8835   */\n      mstore\n        /* \"#utility.yul\":8854:8858   */\n      0x24\n        /* \"#utility.yul\":8851:8852   */\n      0x00\n        /* \"#utility.yul\":8844:8859   */\n      revert\n\n    auxdata: 0xa2646970667358221220e34dd53f30cb5b7bf905468027d4bad3b29dd4b8c9d146af2c0bae9092ffffcc64736f6c63430008000033\n}\n",
				"bytecode": {
					"linkReferences": {},
					"object": "608060405234801561001057600080fd5b50610f0c806100206000396000f3fe608060405234801561001057600080fd5b50600436106100a95760003560e01c8063715018a611610071578063715018a6146101255780638da5cb5b1461012f578063c08d1fe514610137578063c4d66de81461014c578063e2889c821461015f578063f2fde38b14610172576100a9565b80631e1bff3f146100ae578063238ac933146100d7578063239b93b2146100ec57806348c7e528146100ff5780636c19e78314610112575b600080fd5b6100c16100bc366004610aa4565b610185565b6040516100ce9190610c3a565b60405180910390f35b6100df6101e0565b6040516100ce9190610c26565b6100c16100fa366004610ad6565b6101ef565b6100c161010d366004610a8a565b6102c9565b6100c1610120366004610a8a565b6102de565b61012d610343565b005b6100df61038e565b61013f61039d565b6040516100ce9190610e94565b61012d61015a366004610a8a565b6103a3565b6100c161016d366004610b84565b61044d565b61012d610180366004610a8a565b610497565b600061018f610508565b6001600160a01b03166101a061038e565b6001600160a01b0316146101cf5760405162461bcd60e51b81526004016101c690610e5f565b60405180910390fd5b6101d9838361050c565b9392505050565b6065546001600160a01b031681565b3360009081526067602052604081205460ff1661021e5760405162461bcd60e51b81526004016101c690610dce565b836066544261022d9190610e9d565b1061024a5760405162461bcd60e51b81526004016101c690610c9a565b856102675760405162461bcd60e51b81526004016101c690610e36565b6000868686866040516020016102809493929190610b9c565b60405160208183030381529060405280519060200120905060006102ac6102a68361053a565b8561056a565b6065546001600160a01b0391821691161498975050505050505050565b60676020526000908152604090205460ff1681565b60006102e8610508565b6001600160a01b03166102f961038e565b6001600160a01b03161461031f5760405162461bcd60e51b81526004016101c690610e5f565b50606580546001600160a01b0319166001600160a01b03831617905560015b919050565b61034b610508565b6001600160a01b031661035c61038e565b6001600160a01b0316146103825760405162461bcd60e51b81526004016101c690610e5f565b61038c600061058e565b565b6033546001600160a01b031690565b60665481565b600054610100900460ff16806103bc575060005460ff16155b6103d85760405162461bcd60e51b81526004016101c690610d80565b600054610100900460ff16158015610403576000805460ff1961ff0019909116610100171660011790555b61040b6105e0565b61041682600161050c565b50606580546001600160a01b0319166001600160a01b038416179055603c6066558015610449576000805461ff00191690555b5050565b6000610457610508565b6001600160a01b031661046861038e565b6001600160a01b03161461048e5760405162461bcd60e51b81526004016101c690610e5f565b50606655600190565b61049f610508565b6001600160a01b03166104b061038e565b6001600160a01b0316146104d65760405162461bcd60e51b81526004016101c690610e5f565b6001600160a01b0381166104fc5760405162461bcd60e51b81526004016101c690610cf8565b6105058161058e565b50565b3390565b6001600160a01b0382166000908152606760205260409020805482151560ff19909116179055600192915050565b60008160405160200161054d9190610bf5565b604051602081830303815290604052805190602001209050919050565b60008060006105798585610664565b91509150610586816106d4565b509392505050565b603380546001600160a01b038381166001600160a01b0319831681179093556040519116919082907f8be0079c531659141344cd1fd0a4f28419497f9722a3daafe3b4186f6b6457e090600090a35050565b600054610100900460ff16806105f9575060005460ff16155b6106155760405162461bcd60e51b81526004016101c690610d80565b600054610100900460ff16158015610640576000805460ff1961ff0019909116610100171660011790555b610648610801565b610650610874565b8015610505576000805461ff001916905550565b60008082516041141561069b5760208301516040840151606085015160001a61068f878285856108e4565b945094505050506106cd565b8251604014156106c557602083015160408401516106ba8683836109c4565b9350935050506106cd565b506000905060025b9250929050565b60008160048111156106f657634e487b7160e01b600052602160045260246000fd5b141561070157610505565b600181600481111561072357634e487b7160e01b600052602160045260246000fd5b14156107415760405162461bcd60e51b81526004016101c690610c63565b600281600481111561076357634e487b7160e01b600052602160045260246000fd5b14156107815760405162461bcd60e51b81526004016101c690610cc1565b60038160048111156107a357634e487b7160e01b600052602160045260246000fd5b14156107c15760405162461bcd60e51b81526004016101c690610d3e565b60048160048111156107e357634e487b7160e01b600052602160045260246000fd5b14156105055760405162461bcd60e51b81526004016101c690610df4565b600054610100900460ff168061081a575060005460ff16155b6108365760405162461bcd60e51b81526004016101c690610d80565b600054610100900460ff16158015610650576000805460ff1961ff0019909116610100171660011790558015610505576000805461ff001916905550565b600054610100900460ff168061088d575060005460ff16155b6108a95760405162461bcd60e51b81526004016101c690610d80565b600054610100900460ff161580156108d4576000805460ff1961ff0019909116610100171660011790555b6106506108df610508565b61058e565b6000807f7fffffffffffffffffffffffffffffff5d576e7357a4501ddfe92f46681b20a083111561091b57506000905060036109bb565b8460ff16601b1415801561093357508460ff16601c14155b1561094457506000905060046109bb565b6000600187878787604051600081526020016040526040516109699493929190610c45565b6020604051602081039080840390855afa15801561098b573d6000803e3d6000fd5b5050604051601f1901519150506001600160a01b0381166109b4576000600192509250506109bb565b9150600090505b94509492505050565b6000806001600160ff1b03831660ff84901c601b016109e5878288856108e4565b935093505050935093915050565b600067ffffffffffffffff80841115610a0e57610a0e610ec0565b604051601f8501601f191681016020018281118282101715610a3257610a32610ec0565b604052848152915081838501861015610a4a57600080fd5b8484602083013760006020868301015250509392505050565b80356001600160a01b038116811461033e57600080fd5b8035801515811461033e57600080fd5b600060208284031215610a9b578081fd5b6101d982610a63565b60008060408385031215610ab6578081fd5b610abf83610a63565b9150610acd60208401610a7a565b90509250929050565b600080600080600060a08688031215610aed578081fd5b610af686610a7a565b94506020860135935060408601359250606086013567ffffffffffffffff80821115610b20578283fd5b818801915088601f830112610b33578283fd5b610b42898335602085016109f3565b93506080880135915080821115610b57578283fd5b508601601f81018813610b68578182fd5b610b77888235602084016109f3565b9150509295509295909350565b600060208284031215610b95578081fd5b5035919050565b600085151560f81b82528460018301528360218301528251815b81811015610bd35760208186018101516041868401015201610bb6565b81811115610be45782604183860101525b509190910160410195945050505050565b7f19457468657265756d205369676e6564204d6573736167653a0a3332000000008152601c810191909152603c0190565b6001600160a01b0391909116815260200190565b901515815260200190565b93845260ff9290921660208401526040830152606082015260800190565b60208082526018908201527f45434453413a20696e76616c6964207369676e61747572650000000000000000604082015260600190565b6020808252600d908201526c3a34b6b2b9ba30b6b81032b93960991b604082015260600190565b6020808252601f908201527f45434453413a20696e76616c6964207369676e6174757265206c656e67746800604082015260600190565b60208082526026908201527f4f776e61626c653a206e6577206f776e657220697320746865207a65726f206160408201526564647265737360d01b606082015260800190565b60208082526022908201527f45434453413a20696e76616c6964207369676e6174757265202773272076616c604082015261756560f01b606082015260800190565b6020808252602e908201527f496e697469616c697a61626c653a20636f6e747261637420697320616c72656160408201526d191e481a5b9a5d1a585b1a5e995960921b606082015260800190565b6020808252600c908201526b32bc32b1baba37b91032b93960a11b604082015260600190565b60208082526022908201527f45434453413a20696e76616c6964207369676e6174757265202776272076616c604082015261756560f01b606082015260800190565b6020808252600f908201526e26b0b935b2ba103737ba1037b832b760891b604082015260600190565b6020808252818101527f4f776e61626c653a2063616c6c6572206973206e6f7420746865206f776e6572604082015260600190565b90815260200190565b600082821015610ebb57634e487b7160e01b81526011600452602481fd5b500390565b634e487b7160e01b600052604160045260246000fdfea2646970667358221220e34dd53f30cb5b7bf905468027d4bad3b29dd4b8c9d146af2c0bae9092ffffcc64736f6c63430008000033",
					"opcodes": "PUSH1 0x80 PUSH1 0x40 MSTORE CALLVALUE DUP1 ISZERO PUSH2 0x10 JUMPI PUSH1 0x0 DUP1 REVERT JUMPDEST POP PUSH2 0xF0C DUP1 PUSH2 0x20 PUSH1 0x0 CODECOPY PUSH1 0x0 RETURN INVALID PUSH1 0x80 PUSH1 0x40 MSTORE CALLVALUE DUP1 ISZERO PUSH2 0x10 JUMPI PUSH1 0x0 DUP1 REVERT JUMPDEST POP PUSH1 0x4 CALLDATASIZE LT PUSH2 0xA9 JUMPI PUSH1 0x0 CALLDATALOAD PUSH1 0xE0 SHR DUP1 PUSH4 0x715018A6 GT PUSH2 0x71 JUMPI DUP1 PUSH4 0x715018A6 EQ PUSH2 0x125 JUMPI DUP1 PUSH4 0x8DA5CB5B EQ PUSH2 0x12F JUMPI DUP1 PUSH4 0xC08D1FE5 EQ PUSH2 0x137 JUMPI DUP1 PUSH4 0xC4D66DE8 EQ PUSH2 0x14C JUMPI DUP1 PUSH4 0xE2889C82 EQ PUSH2 0x15F JUMPI DUP1 PUSH4 0xF2FDE38B EQ PUSH2 0x172 JUMPI PUSH2 0xA9 JUMP JUMPDEST DUP1 PUSH4 0x1E1BFF3F EQ PUSH2 0xAE JUMPI DUP1 PUSH4 0x238AC933 EQ PUSH2 0xD7 JUMPI DUP1 PUSH4 0x239B93B2 EQ PUSH2 0xEC JUMPI DUP1 PUSH4 0x48C7E528 EQ PUSH2 0xFF JUMPI DUP1 PUSH4 0x6C19E783 EQ PUSH2 0x112 JUMPI JUMPDEST PUSH1 0x0 DUP1 REVERT JUMPDEST PUSH2 0xC1 PUSH2 0xBC CALLDATASIZE PUSH1 0x4 PUSH2 0xAA4 JUMP JUMPDEST PUSH2 0x185 JUMP JUMPDEST PUSH1 0x40 MLOAD PUSH2 0xCE SWAP2 SWAP1 PUSH2 0xC3A JUMP JUMPDEST PUSH1 0x40 MLOAD DUP1 SWAP2 SUB SWAP1 RETURN JUMPDEST PUSH2 0xDF PUSH2 0x1E0 JUMP JUMPDEST PUSH1 0x40 MLOAD PUSH2 0xCE SWAP2 SWAP1 PUSH2 0xC26 JUMP JUMPDEST PUSH2 0xC1 PUSH2 0xFA CALLDATASIZE PUSH1 0x4 PUSH2 0xAD6 JUMP JUMPDEST PUSH2 0x1EF JUMP JUMPDEST PUSH2 0xC1 PUSH2 0x10D CALLDATASIZE PUSH1 0x4 PUSH2 0xA8A JUMP JUMPDEST PUSH2 0x2C9 JUMP JUMPDEST PUSH2 0xC1 PUSH2 0x120 CALLDATASIZE PUSH1 0x4 PUSH2 0xA8A JUMP JUMPDEST PUSH2 0x2DE JUMP JUMPDEST PUSH2 0x12D PUSH2 0x343 JUMP JUMPDEST STOP JUMPDEST PUSH2 0xDF PUSH2 0x38E JUMP JUMPDEST PUSH2 0x13F PUSH2 0x39D JUMP JUMPDEST PUSH1 0x40 MLOAD PUSH2 0xCE SWAP2 SWAP1 PUSH2 0xE94 JUMP JUMPDEST PUSH2 0x12D PUSH2 0x15A CALLDATASIZE PUSH1 0x4 PUSH2 0xA8A JUMP JUMPDEST PUSH2 0x3A3 JUMP JUMPDEST PUSH2 0xC1 PUSH2 0x16D CALLDATASIZE PUSH1 0x4 PUSH2 0xB84 JUMP JUMPDEST PUSH2 0x44D JUMP JUMPDEST PUSH2 0x12D PUSH2 0x180 CALLDATASIZE PUSH1 0x4 PUSH2 0xA8A JUMP JUMPDEST PUSH2 0x497 JUMP JUMPDEST PUSH1 0x0 PUSH2 0x18F PUSH2 0x508 JUMP JUMPDEST PUSH1 0x1 PUSH1 0x1 PUSH1 0xA0 SHL SUB AND PUSH2 0x1A0 PUSH2 0x38E JUMP JUMPDEST PUSH1 0x1 PUSH1 0x1 PUSH1 0xA0 SHL SUB AND EQ PUSH2 0x1CF JUMPI PUSH1 0x40 MLOAD PUSH3 0x461BCD PUSH1 0xE5 SHL DUP2 MSTORE PUSH1 0x4 ADD PUSH2 0x1C6 SWAP1 PUSH2 0xE5F JUMP JUMPDEST PUSH1 0x40 MLOAD DUP1 SWAP2 SUB SWAP1 REVERT JUMPDEST PUSH2 0x1D9 DUP4 DUP4 PUSH2 0x50C JUMP JUMPDEST SWAP4 SWAP3 POP POP POP JUMP JUMPDEST PUSH1 0x65 SLOAD PUSH1 0x1 PUSH1 0x1 PUSH1 0xA0 SHL SUB AND DUP2 JUMP JUMPDEST CALLER PUSH1 0x0 SWAP1 DUP2 MSTORE PUSH1 0x67 PUSH1 0x20 MSTORE PUSH1 0x40 DUP2 KECCAK256 SLOAD PUSH1 0xFF AND PUSH2 0x21E JUMPI PUSH1 0x40 MLOAD PUSH3 0x461BCD PUSH1 0xE5 SHL DUP2 MSTORE PUSH1 0x4 ADD PUSH2 0x1C6 SWAP1 PUSH2 0xDCE JUMP JUMPDEST DUP4 PUSH1 0x66 SLOAD TIMESTAMP PUSH2 0x22D SWAP2 SWAP1 PUSH2 0xE9D JUMP JUMPDEST LT PUSH2 0x24A JUMPI PUSH1 0x40 MLOAD PUSH3 0x461BCD PUSH1 0xE5 SHL DUP2 MSTORE PUSH1 0x4 ADD PUSH2 0x1C6 SWAP1 PUSH2 0xC9A JUMP JUMPDEST DUP6 PUSH2 0x267 JUMPI PUSH1 0x40 MLOAD PUSH3 0x461BCD PUSH1 0xE5 SHL DUP2 MSTORE PUSH1 0x4 ADD PUSH2 0x1C6 SWAP1 PUSH2 0xE36 JUMP JUMPDEST PUSH1 0x0 DUP7 DUP7 DUP7 DUP7 PUSH1 0x40 MLOAD PUSH1 0x20 ADD PUSH2 0x280 SWAP5 SWAP4 SWAP3 SWAP2 SWAP1 PUSH2 0xB9C JUMP JUMPDEST PUSH1 0x40 MLOAD PUSH1 0x20 DUP2 DUP4 SUB SUB DUP2 MSTORE SWAP1 PUSH1 0x40 MSTORE DUP1 MLOAD SWAP1 PUSH1 0x20 ADD KECCAK256 SWAP1 POP PUSH1 0x0 PUSH2 0x2AC PUSH2 0x2A6 DUP4 PUSH2 0x53A JUMP JUMPDEST DUP6 PUSH2 0x56A JUMP JUMPDEST PUSH1 0x65 SLOAD PUSH1 0x1 PUSH1 0x1 PUSH1 0xA0 SHL SUB SWAP2 DUP3 AND SWAP2 AND EQ SWAP9 SWAP8 POP POP POP POP POP POP POP POP JUMP JUMPDEST PUSH1 0x67 PUSH1 0x20 MSTORE PUSH1 0x0 SWAP1 DUP2 MSTORE PUSH1 0x40 SWAP1 KECCAK256 SLOAD PUSH1 0xFF AND DUP2 JUMP JUMPDEST PUSH1 0x0 PUSH2 0x2E8 PUSH2 0x508 JUMP JUMPDEST PUSH1 0x1 PUSH1 0x1 PUSH1 0xA0 SHL SUB AND PUSH2 0x2F9 PUSH2 0x38E JUMP JUMPDEST PUSH1 0x1 PUSH1 0x1 PUSH1 0xA0 SHL SUB AND EQ PUSH2 0x31F JUMPI PUSH1 0x40 MLOAD PUSH3 0x461BCD PUSH1 0xE5 SHL DUP2 MSTORE PUSH1 0x4 ADD PUSH2 0x1C6 SWAP1 PUSH2 0xE5F JUMP JUMPDEST POP PUSH1 0x65 DUP1 SLOAD PUSH1 0x1 PUSH1 0x1 PUSH1 0xA0 SHL SUB NOT AND PUSH1 0x1 PUSH1 0x1 PUSH1 0xA0 SHL SUB DUP4 AND OR SWAP1 SSTORE PUSH1 0x1 JUMPDEST SWAP2 SWAP1 POP JUMP JUMPDEST PUSH2 0x34B PUSH2 0x508 JUMP JUMPDEST PUSH1 0x1 PUSH1 0x1 PUSH1 0xA0 SHL SUB AND PUSH2 0x35C PUSH2 0x38E JUMP JUMPDEST PUSH1 0x1 PUSH1 0x1 PUSH1 0xA0 SHL SUB AND EQ PUSH2 0x382 JUMPI PUSH1 0x40 MLOAD PUSH3 0x461BCD PUSH1 0xE5 SHL DUP2 MSTORE PUSH1 0x4 ADD PUSH2 0x1C6 SWAP1 PUSH2 0xE5F JUMP JUMPDEST PUSH2 0x38C PUSH1 0x0 PUSH2 0x58E JUMP JUMPDEST JUMP JUMPDEST PUSH1 0x33 SLOAD PUSH1 0x1 PUSH1 0x1 PUSH1 0xA0 SHL SUB AND SWAP1 JUMP JUMPDEST PUSH1 0x66 SLOAD DUP2 JUMP JUMPDEST PUSH1 0x0 SLOAD PUSH2 0x100 SWAP1 DIV PUSH1 0xFF AND DUP1 PUSH2 0x3BC JUMPI POP PUSH1 0x0 SLOAD PUSH1 0xFF AND ISZERO JUMPDEST PUSH2 0x3D8 JUMPI PUSH1 0x40 MLOAD PUSH3 0x461BCD PUSH1 0xE5 SHL DUP2 MSTORE PUSH1 0x4 ADD PUSH2 0x1C6 SWAP1 PUSH2 0xD80 JUMP JUMPDEST PUSH1 0x0 SLOAD PUSH2 0x100 SWAP1 DIV PUSH1 0xFF AND ISZERO DUP1 ISZERO PUSH2 0x403 JUMPI PUSH1 0x0 DUP1 SLOAD PUSH1 0xFF NOT PUSH2 0xFF00 NOT SWAP1 SWAP2 AND PUSH2 0x100 OR AND PUSH1 0x1 OR SWAP1 SSTORE JUMPDEST PUSH2 0x40B PUSH2 0x5E0 JUMP JUMPDEST PUSH2 0x416 DUP3 PUSH1 0x1 PUSH2 0x50C JUMP JUMPDEST POP PUSH1 0x65 DUP1 SLOAD PUSH1 0x1 PUSH1 0x1 PUSH1 0xA0 SHL SUB NOT AND PUSH1 0x1 PUSH1 0x1 PUSH1 0xA0 SHL SUB DUP5 AND OR SWAP1 SSTORE PUSH1 0x3C PUSH1 0x66 SSTORE DUP1 ISZERO PUSH2 0x449 JUMPI PUSH1 0x0 DUP1 SLOAD PUSH2 0xFF00 NOT AND SWAP1 SSTORE JUMPDEST POP POP JUMP JUMPDEST PUSH1 0x0 PUSH2 0x457 PUSH2 0x508 JUMP JUMPDEST PUSH1 0x1 PUSH1 0x1 PUSH1 0xA0 SHL SUB AND PUSH2 0x468 PUSH2 0x38E JUMP JUMPDEST PUSH1 0x1 PUSH1 0x1 PUSH1 0xA0 SHL SUB AND EQ PUSH2 0x48E JUMPI PUSH1 0x40 MLOAD PUSH3 0x461BCD PUSH1 0xE5 SHL DUP2 MSTORE PUSH1 0x4 ADD PUSH2 0x1C6 SWAP1 PUSH2 0xE5F JUMP JUMPDEST POP PUSH1 0x66 SSTORE PUSH1 0x1 SWAP1 JUMP JUMPDEST PUSH2 0x49F PUSH2 0x508 JUMP JUMPDEST PUSH1 0x1 PUSH1 0x1 PUSH1 0xA0 SHL SUB AND PUSH2 0x4B0 PUSH2 0x38E JUMP JUMPDEST PUSH1 0x1 PUSH1 0x1 PUSH1 0xA0 SHL SUB AND EQ PUSH2 0x4D6 JUMPI PUSH1 0x40 MLOAD PUSH3 0x461BCD PUSH1 0xE5 SHL DUP2 MSTORE PUSH1 0x4 ADD PUSH2 0x1C6 SWAP1 PUSH2 0xE5F JUMP JUMPDEST PUSH1 0x1 PUSH1 0x1 PUSH1 0xA0 SHL SUB DUP2 AND PUSH2 0x4FC JUMPI PUSH1 0x40 MLOAD PUSH3 0x461BCD PUSH1 0xE5 SHL DUP2 MSTORE PUSH1 0x4 ADD PUSH2 0x1C6 SWAP1 PUSH2 0xCF8 JUMP JUMPDEST PUSH2 0x505 DUP2 PUSH2 0x58E JUMP JUMPDEST POP JUMP JUMPDEST CALLER SWAP1 JUMP JUMPDEST PUSH1 0x1 PUSH1 0x1 PUSH1 0xA0 SHL SUB DUP3 AND PUSH1 0x0 SWAP1 DUP2 MSTORE PUSH1 0x67 PUSH1 0x20 MSTORE PUSH1 0x40 SWAP1 KECCAK256 DUP1 SLOAD DUP3 ISZERO ISZERO PUSH1 0xFF NOT SWAP1 SWAP2 AND OR SWAP1 SSTORE PUSH1 0x1 SWAP3 SWAP2 POP POP JUMP JUMPDEST PUSH1 0x0 DUP2 PUSH1 0x40 MLOAD PUSH1 0x20 ADD PUSH2 0x54D SWAP2 SWAP1 PUSH2 0xBF5 JUMP JUMPDEST PUSH1 0x40 MLOAD PUSH1 0x20 DUP2 DUP4 SUB SUB DUP2 MSTORE SWAP1 PUSH1 0x40 MSTORE DUP1 MLOAD SWAP1 PUSH1 0x20 ADD KECCAK256 SWAP1 POP SWAP2 SWAP1 POP JUMP JUMPDEST PUSH1 0x0 DUP1 PUSH1 0x0 PUSH2 0x579 DUP6 DUP6 PUSH2 0x664 JUMP JUMPDEST SWAP2 POP SWAP2 POP PUSH2 0x586 DUP2 PUSH2 0x6D4 JUMP JUMPDEST POP SWAP4 SWAP3 POP POP POP JUMP JUMPDEST PUSH1 0x33 DUP1 SLOAD PUSH1 0x1 PUSH1 0x1 PUSH1 0xA0 SHL SUB DUP4 DUP2 AND PUSH1 0x1 PUSH1 0x1 PUSH1 0xA0 SHL SUB NOT DUP4 AND DUP2 OR SWAP1 SWAP4 SSTORE PUSH1 0x40 MLOAD SWAP2 AND SWAP2 SWAP1 DUP3 SWAP1 PUSH32 0x8BE0079C531659141344CD1FD0A4F28419497F9722A3DAAFE3B4186F6B6457E0 SWAP1 PUSH1 0x0 SWAP1 LOG3 POP POP JUMP JUMPDEST PUSH1 0x0 SLOAD PUSH2 0x100 SWAP1 DIV PUSH1 0xFF AND DUP1 PUSH2 0x5F9 JUMPI POP PUSH1 0x0 SLOAD PUSH1 0xFF AND ISZERO JUMPDEST PUSH2 0x615 JUMPI PUSH1 0x40 MLOAD PUSH3 0x461BCD PUSH1 0xE5 SHL DUP2 MSTORE PUSH1 0x4 ADD PUSH2 0x1C6 SWAP1 PUSH2 0xD80 JUMP JUMPDEST PUSH1 0x0 SLOAD PUSH2 0x100 SWAP1 DIV PUSH1 0xFF AND ISZERO DUP1 ISZERO PUSH2 0x640 JUMPI PUSH1 0x0 DUP1 SLOAD PUSH1 0xFF NOT PUSH2 0xFF00 NOT SWAP1 SWAP2 AND PUSH2 0x100 OR AND PUSH1 0x1 OR SWAP1 SSTORE JUMPDEST PUSH2 0x648 PUSH2 0x801 JUMP JUMPDEST PUSH2 0x650 PUSH2 0x874 JUMP JUMPDEST DUP1 ISZERO PUSH2 0x505 JUMPI PUSH1 0x0 DUP1 SLOAD PUSH2 0xFF00 NOT AND SWAP1 SSTORE POP JUMP JUMPDEST PUSH1 0x0 DUP1 DUP3 MLOAD PUSH1 0x41 EQ ISZERO PUSH2 0x69B JUMPI PUSH1 0x20 DUP4 ADD MLOAD PUSH1 0x40 DUP5 ADD MLOAD PUSH1 0x60 DUP6 ADD MLOAD PUSH1 0x0 BYTE PUSH2 0x68F DUP8 DUP3 DUP6 DUP6 PUSH2 0x8E4 JUMP JUMPDEST SWAP5 POP SWAP5 POP POP POP POP PUSH2 0x6CD JUMP JUMPDEST DUP3 MLOAD PUSH1 0x40 EQ ISZERO PUSH2 0x6C5 JUMPI PUSH1 0x20 DUP4 ADD MLOAD PUSH1 0x40 DUP5 ADD MLOAD PUSH2 0x6BA DUP7 DUP4 DUP4 PUSH2 0x9C4 JUMP JUMPDEST SWAP4 POP SWAP4 POP POP POP PUSH2 0x6CD JUMP JUMPDEST POP PUSH1 0x0 SWAP1 POP PUSH1 0x2 JUMPDEST SWAP3 POP SWAP3 SWAP1 POP JUMP JUMPDEST PUSH1 0x0 DUP2 PUSH1 0x4 DUP2 GT ISZERO PUSH2 0x6F6 JUMPI PUSH4 0x4E487B71 PUSH1 0xE0 SHL PUSH1 0x0 MSTORE PUSH1 0x21 PUSH1 0x4 MSTORE PUSH1 0x24 PUSH1 0x0 REVERT JUMPDEST EQ ISZERO PUSH2 0x701 JUMPI PUSH2 0x505 JUMP JUMPDEST PUSH1 0x1 DUP2 PUSH1 0x4 DUP2 GT ISZERO PUSH2 0x723 JUMPI PUSH4 0x4E487B71 PUSH1 0xE0 SHL PUSH1 0x0 MSTORE PUSH1 0x21 PUSH1 0x4 MSTORE PUSH1 0x24 PUSH1 0x0 REVERT JUMPDEST EQ ISZERO PUSH2 0x741 JUMPI PUSH1 0x40 MLOAD PUSH3 0x461BCD PUSH1 0xE5 SHL DUP2 MSTORE PUSH1 0x4 ADD PUSH2 0x1C6 SWAP1 PUSH2 0xC63 JUMP JUMPDEST PUSH1 0x2 DUP2 PUSH1 0x4 DUP2 GT ISZERO PUSH2 0x763 JUMPI PUSH4 0x4E487B71 PUSH1 0xE0 SHL PUSH1 0x0 MSTORE PUSH1 0x21 PUSH1 0x4 MSTORE PUSH1 0x24 PUSH1 0x0 REVERT JUMPDEST EQ ISZERO PUSH2 0x781 JUMPI PUSH1 0x40 MLOAD PUSH3 0x461BCD PUSH1 0xE5 SHL DUP2 MSTORE PUSH1 0x4 ADD PUSH2 0x1C6 SWAP1 PUSH2 0xCC1 JUMP JUMPDEST PUSH1 0x3 DUP2 PUSH1 0x4 DUP2 GT ISZERO PUSH2 0x7A3 JUMPI PUSH4 0x4E487B71 PUSH1 0xE0 SHL PUSH1 0x0 MSTORE PUSH1 0x21 PUSH1 0x4 MSTORE PUSH1 0x24 PUSH1 0x0 REVERT JUMPDEST EQ ISZERO PUSH2 0x7C1 JUMPI PUSH1 0x40 MLOAD PUSH3 0x461BCD PUSH1 0xE5 SHL DUP2 MSTORE PUSH1 0x4 ADD PUSH2 0x1C6 SWAP1 PUSH2 0xD3E JUMP JUMPDEST PUSH1 0x4 DUP2 PUSH1 0x4 DUP2 GT ISZERO PUSH2 0x7E3 JUMPI PUSH4 0x4E487B71 PUSH1 0xE0 SHL PUSH1 0x0 MSTORE PUSH1 0x21 PUSH1 0x4 MSTORE PUSH1 0x24 PUSH1 0x0 REVERT JUMPDEST EQ ISZERO PUSH2 0x505 JUMPI PUSH1 0x40 MLOAD PUSH3 0x461BCD PUSH1 0xE5 SHL DUP2 MSTORE PUSH1 0x4 ADD PUSH2 0x1C6 SWAP1 PUSH2 0xDF4 JUMP JUMPDEST PUSH1 0x0 SLOAD PUSH2 0x100 SWAP1 DIV PUSH1 0xFF AND DUP1 PUSH2 0x81A JUMPI POP PUSH1 0x0 SLOAD PUSH1 0xFF AND ISZERO JUMPDEST PUSH2 0x836 JUMPI PUSH1 0x40 MLOAD PUSH3 0x461BCD PUSH1 0xE5 SHL DUP2 MSTORE PUSH1 0x4 ADD PUSH2 0x1C6 SWAP1 PUSH2 0xD80 JUMP JUMPDEST PUSH1 0x0 SLOAD PUSH2 0x100 SWAP1 DIV PUSH1 0xFF AND ISZERO DUP1 ISZERO PUSH2 0x650 JUMPI PUSH1 0x0 DUP1 SLOAD PUSH1 0xFF NOT PUSH2 0xFF00 NOT SWAP1 SWAP2 AND PUSH2 0x100 OR AND PUSH1 0x1 OR SWAP1 SSTORE DUP1 ISZERO PUSH2 0x505 JUMPI PUSH1 0x0 DUP1 SLOAD PUSH2 0xFF00 NOT AND SWAP1 SSTORE POP JUMP JUMPDEST PUSH1 0x0 SLOAD PUSH2 0x100 SWAP1 DIV PUSH1 0xFF AND DUP1 PUSH2 0x88D JUMPI POP PUSH1 0x0 SLOAD PUSH1 0xFF AND ISZERO JUMPDEST PUSH2 0x8A9 JUMPI PUSH1 0x40 MLOAD PUSH3 0x461BCD PUSH1 0xE5 SHL DUP2 MSTORE PUSH1 0x4 ADD PUSH2 0x1C6 SWAP1 PUSH2 0xD80 JUMP JUMPDEST PUSH1 0x0 SLOAD PUSH2 0x100 SWAP1 DIV PUSH1 0xFF AND ISZERO DUP1 ISZERO PUSH2 0x8D4 JUMPI PUSH1 0x0 DUP1 SLOAD PUSH1 0xFF NOT PUSH2 0xFF00 NOT SWAP1 SWAP2 AND PUSH2 0x100 OR AND PUSH1 0x1 OR SWAP1 SSTORE JUMPDEST PUSH2 0x650 PUSH2 0x8DF PUSH2 0x508 JUMP JUMPDEST PUSH2 0x58E JUMP JUMPDEST PUSH1 0x0 DUP1 PUSH32 0x7FFFFFFFFFFFFFFFFFFFFFFFFFFFFFFF5D576E7357A4501DDFE92F46681B20A0 DUP4 GT ISZERO PUSH2 0x91B JUMPI POP PUSH1 0x0 SWAP1 POP PUSH1 0x3 PUSH2 0x9BB JUMP JUMPDEST DUP5 PUSH1 0xFF AND PUSH1 0x1B EQ ISZERO DUP1 ISZERO PUSH2 0x933 JUMPI POP DUP5 PUSH1 0xFF AND PUSH1 0x1C EQ ISZERO JUMPDEST ISZERO PUSH2 0x944 JUMPI POP PUSH1 0x0 SWAP1 POP PUSH1 0x4 PUSH2 0x9BB JUMP JUMPDEST PUSH1 0x0 PUSH1 0x1 DUP8 DUP8 DUP8 DUP8 PUSH1 0x40 MLOAD PUSH1 0x0 DUP2 MSTORE PUSH1 0x20 ADD PUSH1 0x40 MSTORE PUSH1 0x40 MLOAD PUSH2 0x969 SWAP5 SWAP4 SWAP3 SWAP2 SWAP1 PUSH2 0xC45 JUMP JUMPDEST PUSH1 0x20 PUSH1 0x40 MLOAD PUSH1 0x20 DUP2 SUB SWAP1 DUP1 DUP5 SUB SWAP1 DUP6 GAS STATICCALL ISZERO DUP1 ISZERO PUSH2 0x98B JUMPI RETURNDATASIZE PUSH1 0x0 DUP1 RETURNDATACOPY RETURNDATASIZE PUSH1 0x0 REVERT JUMPDEST POP POP PUSH1 0x40 MLOAD PUSH1 0x1F NOT ADD MLOAD SWAP2 POP POP PUSH1 0x1 PUSH1 0x1 PUSH1 0xA0 SHL SUB DUP2 AND PUSH2 0x9B4 JUMPI PUSH1 0x0 PUSH1 0x1 SWAP3 POP SWAP3 POP POP PUSH2 0x9BB JUMP JUMPDEST SWAP2 POP PUSH1 0x0 SWAP1 POP JUMPDEST SWAP5 POP SWAP5 SWAP3 POP POP POP JUMP JUMPDEST PUSH1 0x0 DUP1 PUSH1 0x1 PUSH1 0x1 PUSH1 0xFF SHL SUB DUP4 AND PUSH1 0xFF DUP5 SWAP1 SHR PUSH1 0x1B ADD PUSH2 0x9E5 DUP8 DUP3 DUP9 DUP6 PUSH2 0x8E4 JUMP JUMPDEST SWAP4 POP SWAP4 POP POP POP SWAP4 POP SWAP4 SWAP2 POP POP JUMP JUMPDEST PUSH1 0x0 PUSH8 0xFFFFFFFFFFFFFFFF DUP1 DUP5 GT ISZERO PUSH2 0xA0E JUMPI PUSH2 0xA0E PUSH2 0xEC0 JUMP JUMPDEST PUSH1 0x40 MLOAD PUSH1 0x1F DUP6 ADD PUSH1 0x1F NOT AND DUP2 ADD PUSH1 0x20 ADD DUP3 DUP2 GT DUP3 DUP3 LT OR ISZERO PUSH2 0xA32 JUMPI PUSH2 0xA32 PUSH2 0xEC0 JUMP JUMPDEST PUSH1 0x40 MSTORE DUP5 DUP2 MSTORE SWAP2 POP DUP2 DUP4 DUP6 ADD DUP7 LT ISZERO PUSH2 0xA4A JUMPI PUSH1 0x0 DUP1 REVERT JUMPDEST DUP5 DUP5 PUSH1 0x20 DUP4 ADD CALLDATACOPY PUSH1 0x0 PUSH1 0x20 DUP7 DUP4 ADD ADD MSTORE POP POP SWAP4 SWAP3 POP POP POP JUMP JUMPDEST DUP1 CALLDATALOAD PUSH1 0x1 PUSH1 0x1 PUSH1 0xA0 SHL SUB DUP2 AND DUP2 EQ PUSH2 0x33E JUMPI PUSH1 0x0 DUP1 REVERT JUMPDEST DUP1 CALLDATALOAD DUP1 ISZERO ISZERO DUP2 EQ PUSH2 0x33E JUMPI PUSH1 0x0 DUP1 REVERT JUMPDEST PUSH1 0x0 PUSH1 0x20 DUP3 DUP5 SUB SLT ISZERO PUSH2 0xA9B JUMPI DUP1 DUP2 REVERT JUMPDEST PUSH2 0x1D9 DUP3 PUSH2 0xA63 JUMP JUMPDEST PUSH1 0x0 DUP1 PUSH1 0x40 DUP4 DUP6 SUB SLT ISZERO PUSH2 0xAB6 JUMPI DUP1 DUP2 REVERT JUMPDEST PUSH2 0xABF DUP4 PUSH2 0xA63 JUMP JUMPDEST SWAP2 POP PUSH2 0xACD PUSH1 0x20 DUP5 ADD PUSH2 0xA7A JUMP JUMPDEST SWAP1 POP SWAP3 POP SWAP3 SWAP1 POP JUMP JUMPDEST PUSH1 0x0 DUP1 PUSH1 0x0 DUP1 PUSH1 0x0 PUSH1 0xA0 DUP7 DUP9 SUB SLT ISZERO PUSH2 0xAED JUMPI DUP1 DUP2 REVERT JUMPDEST PUSH2 0xAF6 DUP7 PUSH2 0xA7A JUMP JUMPDEST SWAP5 POP PUSH1 0x20 DUP7 ADD CALLDATALOAD SWAP4 POP PUSH1 0x40 DUP7 ADD CALLDATALOAD SWAP3 POP PUSH1 0x60 DUP7 ADD CALLDATALOAD PUSH8 0xFFFFFFFFFFFFFFFF DUP1 DUP3 GT ISZERO PUSH2 0xB20 JUMPI DUP3 DUP4 REVERT JUMPDEST DUP2 DUP9 ADD SWAP2 POP DUP9 PUSH1 0x1F DUP4 ADD SLT PUSH2 0xB33 JUMPI DUP3 DUP4 REVERT JUMPDEST PUSH2 0xB42 DUP10 DUP4 CALLDATALOAD PUSH1 0x20 DUP6 ADD PUSH2 0x9F3 JUMP JUMPDEST SWAP4 POP PUSH1 0x80 DUP9 ADD CALLDATALOAD SWAP2 POP DUP1 DUP3 GT ISZERO PUSH2 0xB57 JUMPI DUP3 DUP4 REVERT JUMPDEST POP DUP7 ADD PUSH1 0x1F DUP2 ADD DUP9 SGT PUSH2 0xB68 JUMPI DUP2 DUP3 REVERT JUMPDEST PUSH2 0xB77 DUP9 DUP3 CALLDATALOAD PUSH1 0x20 DUP5 ADD PUSH2 0x9F3 JUMP JUMPDEST SWAP2 POP POP SWAP3 SWAP6 POP SWAP3 SWAP6 SWAP1 SWAP4 POP JUMP JUMPDEST PUSH1 0x0 PUSH1 0x20 DUP3 DUP5 SUB SLT ISZERO PUSH2 0xB95 JUMPI DUP1 DUP2 REVERT JUMPDEST POP CALLDATALOAD SWAP2 SWAP1 POP JUMP JUMPDEST PUSH1 0x0 DUP6 ISZERO ISZERO PUSH1 0xF8 SHL DUP3 MSTORE DUP5 PUSH1 0x1 DUP4 ADD MSTORE DUP4 PUSH1 0x21 DUP4 ADD MSTORE DUP3 MLOAD DUP2 JUMPDEST DUP2 DUP2 LT ISZERO PUSH2 0xBD3 JUMPI PUSH1 0x20 DUP2 DUP7 ADD DUP2 ADD MLOAD PUSH1 0x41 DUP7 DUP5 ADD ADD MSTORE ADD PUSH2 0xBB6 JUMP JUMPDEST DUP2 DUP2 GT ISZERO PUSH2 0xBE4 JUMPI DUP3 PUSH1 0x41 DUP4 DUP7 ADD ADD MSTORE JUMPDEST POP SWAP2 SWAP1 SWAP2 ADD PUSH1 0x41 ADD SWAP6 SWAP5 POP POP POP POP POP JUMP JUMPDEST PUSH32 0x19457468657265756D205369676E6564204D6573736167653A0A333200000000 DUP2 MSTORE PUSH1 0x1C DUP2 ADD SWAP2 SWAP1 SWAP2 MSTORE PUSH1 0x3C ADD SWAP1 JUMP JUMPDEST PUSH1 0x1 PUSH1 0x1 PUSH1 0xA0 SHL SUB SWAP2 SWAP1 SWAP2 AND DUP2 MSTORE PUSH1 0x20 ADD SWAP1 JUMP JUMPDEST SWAP1 ISZERO ISZERO DUP2 MSTORE PUSH1 0x20 ADD SWAP1 JUMP JUMPDEST SWAP4 DUP5 MSTORE PUSH1 0xFF SWAP3 SWAP1 SWAP3 AND PUSH1 0x20 DUP5 ADD MSTORE PUSH1 0x40 DUP4 ADD MSTORE PUSH1 0x60 DUP3 ADD MSTORE PUSH1 0x80 ADD SWAP1 JUMP JUMPDEST PUSH1 0x20 DUP1 DUP3 MSTORE PUSH1 0x18 SWAP1 DUP3 ADD MSTORE PUSH32 0x45434453413A20696E76616C6964207369676E61747572650000000000000000 PUSH1 0x40 DUP3 ADD MSTORE PUSH1 0x60 ADD SWAP1 JUMP JUMPDEST PUSH1 0x20 DUP1 DUP3 MSTORE PUSH1 0xD SWAP1 DUP3 ADD MSTORE PUSH13 0x3A34B6B2B9BA30B6B81032B939 PUSH1 0x99 SHL PUSH1 0x40 DUP3 ADD MSTORE PUSH1 0x60 ADD SWAP1 JUMP JUMPDEST PUSH1 0x20 DUP1 DUP3 MSTORE PUSH1 0x1F SWAP1 DUP3 ADD MSTORE PUSH32 0x45434453413A20696E76616C6964207369676E6174757265206C656E67746800 PUSH1 0x40 DUP3 ADD MSTORE PUSH1 0x60 ADD SWAP1 JUMP JUMPDEST PUSH1 0x20 DUP1 DUP3 MSTORE PUSH1 0x26 SWAP1 DUP3 ADD MSTORE PUSH32 0x4F776E61626C653A206E6577206F776E657220697320746865207A65726F2061 PUSH1 0x40 DUP3 ADD MSTORE PUSH6 0x646472657373 PUSH1 0xD0 SHL PUSH1 0x60 DUP3 ADD MSTORE PUSH1 0x80 ADD SWAP1 JUMP JUMPDEST PUSH1 0x20 DUP1 DUP3 MSTORE PUSH1 0x22 SWAP1 DUP3 ADD MSTORE PUSH32 0x45434453413A20696E76616C6964207369676E6174757265202773272076616C PUSH1 0x40 DUP3 ADD MSTORE PUSH2 0x7565 PUSH1 0xF0 SHL PUSH1 0x60 DUP3 ADD MSTORE PUSH1 0x80 ADD SWAP1 JUMP JUMPDEST PUSH1 0x20 DUP1 DUP3 MSTORE PUSH1 0x2E SWAP1 DUP3 ADD MSTORE PUSH32 0x496E697469616C697A61626C653A20636F6E747261637420697320616C726561 PUSH1 0x40 DUP3 ADD MSTORE PUSH14 0x191E481A5B9A5D1A585B1A5E9959 PUSH1 0x92 SHL PUSH1 0x60 DUP3 ADD MSTORE PUSH1 0x80 ADD SWAP1 JUMP JUMPDEST PUSH1 0x20 DUP1 DUP3 MSTORE PUSH1 0xC SWAP1 DUP3 ADD MSTORE PUSH12 0x32BC32B1BABA37B91032B939 PUSH1 0xA1 SHL PUSH1 0x40 DUP3 ADD MSTORE PUSH1 0x60 ADD SWAP1 JUMP JUMPDEST PUSH1 0x20 DUP1 DUP3 MSTORE PUSH1 0x22 SWAP1 DUP3 ADD MSTORE PUSH32 0x45434453413A20696E76616C6964207369676E6174757265202776272076616C PUSH1 0x40 DUP3 ADD MSTORE PUSH2 0x7565 PUSH1 0xF0 SHL PUSH1 0x60 DUP3 ADD MSTORE PUSH1 0x80 ADD SWAP1 JUMP JUMPDEST PUSH1 0x20 DUP1 DUP3 MSTORE PUSH1 0xF SWAP1 DUP3 ADD MSTORE PUSH15 0x26B0B935B2BA103737BA1037B832B7 PUSH1 0x89 SHL PUSH1 0x40 DUP3 ADD MSTORE PUSH1 0x60 ADD SWAP1 JUMP JUMPDEST PUSH1 0x20 DUP1 DUP3 MSTORE DUP2 DUP2 ADD MSTORE PUSH32 0x4F776E61626C653A2063616C6C6572206973206E6F7420746865206F776E6572 PUSH1 0x40 DUP3 ADD MSTORE PUSH1 0x60 ADD SWAP1 JUMP JUMPDEST SWAP1 DUP2 MSTORE PUSH1 0x20 ADD SWAP1 JUMP JUMPDEST PUSH1 0x0 DUP3 DUP3 LT ISZERO PUSH2 0xEBB JUMPI PUSH4 0x4E487B71 PUSH1 0xE0 SHL DUP2 MSTORE PUSH1 0x11 PUSH1 0x4 MSTORE PUSH1 0x24 DUP2 REVERT JUMPDEST POP SUB SWAP1 JUMP JUMPDEST PUSH4 0x4E487B71 PUSH1 0xE0 SHL PUSH1 0x0 MSTORE PUSH1 0x41 PUSH1 0x4 MSTORE PUSH1 0x24 PUSH1 0x0 REVERT INVALID LOG2 PUSH5 0x6970667358 0x22 SLT KECCAK256 0xE3 0x4D 0xD5 EXTCODEHASH ADDRESS 0xCB JUMPDEST PUSH28 0xF905468027D4BAD3B29DD4B8C9D146AF2C0BAE9092FFFFCC64736F6C PUSH4 0x43000800 STOP CALLER "
				},
				"gasEstimates": {
					"creation": {
						"codeDepositCost": "770400",
						"executionCost": "805",
						"totalCost": "771205"
					},
					"external": {
						"executor(address)": "1331",
						"getkey(bool,uint256,uint256,string,bytes)": "infinite",
						"initialize(address)": "infinite",
						"owner()": "1092",
						"renounceOwnership()": "23507",
						"setExecutor(address,bool)": "infinite",
						"setSigner(address)": "infinite",
						"setTimeLimit(uint256)": "21337",
						"signer()": "1093",
						"timeLimit()": "1072",
						"transferOwnership(address)": "23812"
					},
					"internal": {
						"_setExecutor(address,bool)": "20951"
					}
				},
				"methodIdentifiers": {
					"executor(address)": "48c7e528",
					"getkey(bool,uint256,uint256,string,bytes)": "239b93b2",
					"initialize(address)": "c4d66de8",
					"owner()": "8da5cb5b",
					"renounceOwnership()": "715018a6",
					"setExecutor(address,bool)": "1e1bff3f",
					"setSigner(address)": "6c19e783",
					"setTimeLimit(uint256)": "e2889c82",
					"signer()": "238ac933",
					"timeLimit()": "c08d1fe5",
					"transferOwnership(address)": "f2fde38b"
				}
			},
			"storageLayout": {
				"storage": [
					{
						"astId": 130,
						"contract": "contracts/oracle.sol:Oracle",
						"label": "_initialized",
						"offset": 0,
						"slot": "0",
						"type": "t_bool"
					},
					{
						"astId": 133,
						"contract": "contracts/oracle.sol:Oracle",
						"label": "_initializing",
						"offset": 1,
						"slot": "0",
						"type": "t_bool"
					},
					{
						"astId": 213,
						"contract": "contracts/oracle.sol:Oracle",
						"label": "__gap",
						"offset": 0,
						"slot": "1",
						"type": "t_array(t_uint256)50_storage"
					},
					{
						"astId": 10,
						"contract": "contracts/oracle.sol:Oracle",
						"label": "_owner",
						"offset": 0,
						"slot": "51",
						"type": "t_address"
					},
					{
						"astId": 124,
						"contract": "contracts/oracle.sol:Oracle",
						"label": "__gap",
						"offset": 0,
						"slot": "52",
						"type": "t_array(t_uint256)49_storage"
					},
					{
						"astId": 1528,
						"contract": "contracts/oracle.sol:Oracle",
						"label": "signer",
						"offset": 0,
						"slot": "101",
						"type": "t_address"
					},
					{
						"astId": 1530,
						"contract": "contracts/oracle.sol:Oracle",
						"label": "timeLimit",
						"offset": 0,
						"slot": "102",
						"type": "t_uint256"
					},
					{
						"astId": 1534,
						"contract": "contracts/oracle.sol:Oracle",
						"label": "executor",
						"offset": 0,
						"slot": "103",
						"type": "t_mapping(t_address,t_bool)"
					}
				],
				"types": {
					"t_address": {
						"encoding": "inplace",
						"label": "address",
						"numberOfBytes": "20"
					},
					"t_array(t_uint256)49_storage": {
						"base": "t_uint256",
						"encoding": "inplace",
						"label": "uint256[49]",
						"numberOfBytes": "1568"
					},
					"t_array(t_uint256)50_storage": {
						"base": "t_uint256",
						"encoding": "inplace",
						"label": "uint256[50]",
						"numberOfBytes": "1600"
					},
					"t_bool": {
						"encoding": "inplace",
						"label": "bool",
						"numberOfBytes": "1"
					},
					"t_mapping(t_address,t_bool)": {
						"encoding": "mapping",
						"key": "t_address",
						"label": "mapping(address => bool)",
						"numberOfBytes": "32",
						"value": "t_bool"
					},
					"t_uint256": {
						"encoding": "inplace",
						"label": "uint256",
						"numberOfBytes": "32"
					}
				}
			},
			"userdoc": {
				"kind": "user",
				"methods": {},
				"version": 1
			}
		}
	}
}