{
	"contracts/helperLogic.sol": {
		"helperLogic": {
			"abi": [
				{
					"anonymous": false,
					"inputs": [
						{
							"indexed": true,
							"internalType": "address",
							"name": "previousOwner",
							"type": "address"
						},
						{
							"indexed": true,
							"internalType": "address",
							"name": "newOwner",
							"type": "address"
						}
					],
					"name": "OwnershipTransferred",
					"type": "event"
				},
				{
					"inputs": [],
					"name": "Factory",
					"outputs": [
						{
							"internalType": "contract IUniswapV2Factory",
							"name": "",
							"type": "address"
						}
					],
					"stateMutability": "view",
					"type": "function"
				},
				{
					"inputs": [],
					"name": "PRECISION",
					"outputs": [
						{
							"internalType": "uint256",
							"name": "",
							"type": "uint256"
						}
					],
					"stateMutability": "view",
					"type": "function"
				},
				{
					"inputs": [],
					"name": "Router",
					"outputs": [
						{
							"internalType": "contract IUniswapV2Router02",
							"name": "",
							"type": "address"
						}
					],
					"stateMutability": "view",
					"type": "function"
				},
				{
					"inputs": [],
					"name": "autoAdjustFarm",
					"outputs": [
						{
							"internalType": "bool",
							"name": "",
							"type": "bool"
						}
					],
					"stateMutability": "view",
					"type": "function"
				},
				{
					"inputs": [],
					"name": "basePoint",
					"outputs": [
						{
							"internalType": "uint256",
							"name": "",
							"type": "uint256"
						}
					],
					"stateMutability": "view",
					"type": "function"
				},
				{
					"inputs": [],
					"name": "dev",
					"outputs": [
						{
							"internalType": "address",
							"name": "",
							"type": "address"
						}
					],
					"stateMutability": "view",
					"type": "function"
				},
				{
					"inputs": [
						{
							"internalType": "address",
							"name": "",
							"type": "address"
						}
					],
					"name": "executor",
					"outputs": [
						{
							"internalType": "bool",
							"name": "",
							"type": "bool"
						}
					],
					"stateMutability": "view",
					"type": "function"
				},
				{
					"inputs": [],
					"name": "farm",
					"outputs": [
						{
							"internalType": "contract IFarm",
							"name": "",
							"type": "address"
						}
					],
					"stateMutability": "view",
					"type": "function"
				},
				{
					"inputs": [
						{
							"internalType": "contract IUniswapV2Factory",
							"name": "_Factory",
							"type": "address"
						},
						{
							"internalType": "contract IUniswapV2Router02",
							"name": "_Router",
							"type": "address"
						},
						{
							"internalType": "contract IERC20Upgradeable",
							"name": "_usc",
							"type": "address"
						},
						{
							"internalType": "contract IERC20Upgradeable",
							"name": "_usdc",
							"type": "address"
						},
						{
							"internalType": "contract IERC20Upgradeable",
							"name": "_sea",
							"type": "address"
						},
						{
							"internalType": "contract IERC20Upgradeable",
							"name": "_ssea",
							"type": "address"
						},
						{
							"internalType": "contract IFarm",
							"name": "_farm",
							"type": "address"
						}
					],
					"name": "initialize",
					"outputs": [],
					"stateMutability": "nonpayable",
					"type": "function"
				},
				{
					"inputs": [],
					"name": "jointExecution",
					"outputs": [
						{
							"internalType": "bool",
							"name": "",
							"type": "bool"
						}
					],
					"stateMutability": "nonpayable",
					"type": "function"
				},
				{
					"inputs": [],
					"name": "op",
					"outputs": [
						{
							"internalType": "address",
							"name": "",
							"type": "address"
						}
					],
					"stateMutability": "view",
					"type": "function"
				},
				{
					"inputs": [],
					"name": "openStabilizer",
					"outputs": [
						{
							"internalType": "bool",
							"name": "",
							"type": "bool"
						}
					],
					"stateMutability": "view",
					"type": "function"
				},
				{
					"inputs": [],
					"name": "owner",
					"outputs": [
						{
							"internalType": "address",
							"name": "",
							"type": "address"
						}
					],
					"stateMutability": "view",
					"type": "function"
				},
				{
					"inputs": [],
					"name": "pid",
					"outputs": [
						{
							"internalType": "uint256",
							"name": "",
							"type": "uint256"
						}
					],
					"stateMutability": "view",
					"type": "function"
				},
				{
					"inputs": [],
					"name": "renounceOwnership",
					"outputs": [],
					"stateMutability": "nonpayable",
					"type": "function"
				},
				{
					"inputs": [],
					"name": "sea",
					"outputs": [
						{
							"internalType": "contract IERC20Upgradeable",
							"name": "",
							"type": "address"
						}
					],
					"stateMutability": "view",
					"type": "function"
				},
				{
					"inputs": [
						{
							"internalType": "bool",
							"name": "_bool",
							"type": "bool"
						}
					],
					"name": "setAutoAdjustFarm",
					"outputs": [
						{
							"internalType": "bool",
							"name": "",
							"type": "bool"
						}
					],
					"stateMutability": "nonpayable",
					"type": "function"
				},
				{
					"inputs": [
						{
							"internalType": "address",
							"name": "_address",
							"type": "address"
						}
					],
					"name": "setDev",
					"outputs": [
						{
							"internalType": "bool",
							"name": "",
							"type": "bool"
						}
					],
					"stateMutability": "nonpayable",
					"type": "function"
				},
				{
					"inputs": [
						{
							"internalType": "address",
							"name": "_address",
							"type": "address"
						},
						{
							"internalType": "bool",
							"name": "_type",
							"type": "bool"
						}
					],
					"name": "setExecutor",
					"outputs": [
						{
							"internalType": "bool",
							"name": "",
							"type": "bool"
						}
					],
					"stateMutability": "nonpayable",
					"type": "function"
				},
				{
					"inputs": [
						{
							"internalType": "contract IFarm",
							"name": "_farm",
							"type": "address"
						}
					],
					"name": "setFarm",
					"outputs": [
						{
							"internalType": "bool",
							"name": "",
							"type": "bool"
						}
					],
					"stateMutability": "nonpayable",
					"type": "function"
				},
				{
					"inputs": [
						{
							"internalType": "address",
							"name": "_address",
							"type": "address"
						}
					],
					"name": "setOp",
					"outputs": [
						{
							"internalType": "bool",
							"name": "",
							"type": "bool"
						}
					],
					"stateMutability": "nonpayable",
					"type": "function"
				},
				{
					"inputs": [
						{
							"internalType": "bool",
							"name": "_bool",
							"type": "bool"
						}
					],
					"name": "setOpenStabilizer",
					"outputs": [
						{
							"internalType": "bool",
							"name": "",
							"type": "bool"
						}
					],
					"stateMutability": "nonpayable",
					"type": "function"
				},
				{
					"inputs": [
						{
							"internalType": "uint256",
							"name": "_val",
							"type": "uint256"
						}
					],
					"name": "setPid",
					"outputs": [
						{
							"internalType": "bool",
							"name": "",
							"type": "bool"
						}
					],
					"stateMutability": "nonpayable",
					"type": "function"
				},
				{
					"inputs": [
						{
							"internalType": "address",
							"name": "_address",
							"type": "address"
						}
					],
					"name": "setStabilizer",
					"outputs": [
						{
							"internalType": "bool",
							"name": "",
							"type": "bool"
						}
					],
					"stateMutability": "nonpayable",
					"type": "function"
				},
				{
					"inputs": [
						{
							"internalType": "uint256",
							"name": "_val",
							"type": "uint256"
						}
					],
					"name": "setToDevPercent",
					"outputs": [
						{
							"internalType": "bool",
							"name": "",
							"type": "bool"
						}
					],
					"stateMutability": "nonpayable",
					"type": "function"
				},
				{
					"inputs": [
						{
							"internalType": "uint256",
							"name": "_val",
							"type": "uint256"
						}
					],
					"name": "setToOpPercent",
					"outputs": [
						{
							"internalType": "bool",
							"name": "",
							"type": "bool"
						}
					],
					"stateMutability": "nonpayable",
					"type": "function"
				},
				{
					"inputs": [
						{
							"internalType": "uint256",
							"name": "_val",
							"type": "uint256"
						}
					],
					"name": "setToSseaPercent",
					"outputs": [
						{
							"internalType": "bool",
							"name": "",
							"type": "bool"
						}
					],
					"stateMutability": "nonpayable",
					"type": "function"
				},
				{
					"inputs": [
						{
							"internalType": "contract IERC20Upgradeable",
							"name": "_usdc",
							"type": "address"
						}
					],
					"name": "setUSDCAddress",
					"outputs": [
						{
							"internalType": "bool",
							"name": "",
							"type": "bool"
						}
					],
					"stateMutability": "nonpayable",
					"type": "function"
				},
				{
					"inputs": [],
					"name": "ssea",
					"outputs": [
						{
							"internalType": "contract IERC20Upgradeable",
							"name": "",
							"type": "address"
						}
					],
					"stateMutability": "view",
					"type": "function"
				},
				{
					"inputs": [],
					"name": "stabilizer",
					"outputs": [
						{
							"internalType": "address",
							"name": "",
							"type": "address"
						}
					],
					"stateMutability": "view",
					"type": "function"
				},
				{
					"inputs": [],
					"name": "toDevPercent",
					"outputs": [
						{
							"internalType": "uint256",
							"name": "",
							"type": "uint256"
						}
					],
					"stateMutability": "view",
					"type": "function"
				},
				{
					"inputs": [],
					"name": "toOpPercent",
					"outputs": [
						{
							"internalType": "uint256",
							"name": "",
							"type": "uint256"
						}
					],
					"stateMutability": "view",
					"type": "function"
				},
				{
					"inputs": [],
					"name": "toSseaPercent",
					"outputs": [
						{
							"internalType": "uint256",
							"name": "",
							"type": "uint256"
						}
					],
					"stateMutability": "view",
					"type": "function"
				},
				{
					"inputs": [
						{
							"internalType": "address",
							"name": "newOwner",
							"type": "address"
						}
					],
					"name": "transferOwnership",
					"outputs": [],
					"stateMutability": "nonpayable",
					"type": "function"
				},
				{
					"inputs": [],
					"name": "usc",
					"outputs": [
						{
							"internalType": "contract IERC20Upgradeable",
							"name": "",
							"type": "address"
						}
					],
					"stateMutability": "view",
					"type": "function"
				},
				{
					"inputs": [],
					"name": "usdc",
					"outputs": [
						{
							"internalType": "contract IERC20Upgradeable",
							"name": "",
							"type": "address"
						}
					],
					"stateMutability": "view",
					"type": "function"
				},
				{
					"inputs": [
						{
							"internalType": "address",
							"name": "_address",
							"type": "address"
						},
						{
							"internalType": "uint256",
							"name": "_amt",
							"type": "uint256"
						}
					],
					"name": "withdrawalERC20",
					"outputs": [
						{
							"internalType": "bool",
							"name": "",
							"type": "bool"
						}
					],
					"stateMutability": "nonpayable",
					"type": "function"
				}
			],
			"devdoc": {
				"kind": "dev",
				"methods": {
					"owner()": {
						"details": "Returns the address of the current owner."
					},
					"renounceOwnership()": {
						"details": "Leaves the contract without owner. It will not be possible to call `onlyOwner` functions anymore. Can only be called by the current owner. NOTE: Renouncing ownership will leave the contract without an owner, thereby removing any functionality that is only available to the owner."
					},
					"transferOwnership(address)": {
						"details": "Transfers ownership of the contract to a new account (`newOwner`). Can only be called by the current owner."
					}
				},
				"version": 1
			},
			"evm": {
				"assembly": "    /* \"contracts/helperLogic.sol\":909:7509  contract helperLogic is Initializable, OwnableUpgradeable {... */\n  mstore(0x40, 0x80)\n  callvalue\n  dup1\n  iszero\n  tag_1\n  jumpi\n  0x00\n  dup1\n  revert\ntag_1:\n  pop\n  dataSize(sub_0)\n  dup1\n  dataOffset(sub_0)\n  0x00\n  codecopy\n  0x00\n  return\nstop\n\nsub_0: assembly {\n        /* \"contracts/helperLogic.sol\":909:7509  contract helperLogic is Initializable, OwnableUpgradeable {... */\n      mstore(0x40, 0x80)\n      callvalue\n      dup1\n      iszero\n      tag_1\n      jumpi\n      0x00\n      dup1\n      revert\n    tag_1:\n      pop\n      jumpi(tag_2, lt(calldatasize, 0x04))\n      shr(0xe0, calldataload(0x00))\n      dup1\n      0x8da5cb5b\n      gt\n      tag_40\n      jumpi\n      dup1\n      0xbd0b1f44\n      gt\n      tag_41\n      jumpi\n      dup1\n      0xdb7f521a\n      gt\n      tag_42\n      jumpi\n      dup1\n      0xdb7f521a\n      eq\n      tag_35\n      jumpi\n      dup1\n      0xec1f1f69\n      eq\n      tag_36\n      jumpi\n      dup1\n      0xf1068454\n      eq\n      tag_37\n      jumpi\n      dup1\n      0xf2fde38b\n      eq\n      tag_38\n      jumpi\n      dup1\n      0xf6d7eade\n      eq\n      tag_39\n      jumpi\n      jump(tag_2)\n    tag_42:\n      dup1\n      0xbd0b1f44\n      eq\n      tag_30\n      jumpi\n      dup1\n      0xc83dd231\n      eq\n      tag_31\n      jumpi\n      dup1\n      0xd10c06a2\n      eq\n      tag_32\n      jumpi\n      dup1\n      0xd477f05f\n      eq\n      tag_33\n      jumpi\n      dup1\n      0xd4f26c51\n      eq\n      tag_34\n      jumpi\n      jump(tag_2)\n    tag_41:\n      dup1\n      0xa36a7526\n      gt\n      tag_43\n      jumpi\n      dup1\n      0xa36a7526\n      eq\n      tag_25\n      jumpi\n      dup1\n      0xaaf5bfc3\n      eq\n      tag_26\n      jumpi\n      dup1\n      0xaaf5eb68\n      eq\n      tag_27\n      jumpi\n      dup1\n      0xaf5518c4\n      eq\n      tag_28\n      jumpi\n      dup1\n      0xb8bb97a1\n      eq\n      tag_29\n      jumpi\n      jump(tag_2)\n    tag_43:\n      dup1\n      0x8da5cb5b\n      eq\n      tag_21\n      jumpi\n      dup1\n      0x91cca3db\n      eq\n      tag_22\n      jumpi\n      dup1\n      0x930ed033\n      eq\n      tag_23\n      jumpi\n      dup1\n      0x9da5b0d5\n      eq\n      tag_24\n      jumpi\n      jump(tag_2)\n    tag_40:\n      dup1\n      0x3e413bee\n      gt\n      tag_44\n      jumpi\n      dup1\n      0x4ecaac41\n      gt\n      tag_45\n      jumpi\n      dup1\n      0x4ecaac41\n      eq\n      tag_16\n      jumpi\n      dup1\n      0x55c746d1\n      eq\n      tag_17\n      jumpi\n      dup1\n      0x58de5de8\n      eq\n      tag_18\n      jumpi\n      dup1\n      0x715018a6\n      eq\n      tag_19\n      jumpi\n      dup1\n      0x7e47961c\n      eq\n      tag_20\n      jumpi\n      jump(tag_2)\n    tag_45:\n      dup1\n      0x3e413bee\n      eq\n      tag_12\n      jumpi\n      dup1\n      0x4591db50\n      eq\n      tag_13\n      jumpi\n      dup1\n      0x48c7e528\n      eq\n      tag_14\n      jumpi\n      dup1\n      0x4ae6a027\n      eq\n      tag_15\n      jumpi\n      jump(tag_2)\n    tag_44:\n      dup1\n      0x2c535a52\n      gt\n      tag_46\n      jumpi\n      dup1\n      0x2c535a52\n      eq\n      tag_7\n      jumpi\n      dup1\n      0x3011d3d5\n      eq\n      tag_8\n      jumpi\n      dup1\n      0x35876476\n      eq\n      tag_9\n      jumpi\n      dup1\n      0x36e9332d\n      eq\n      tag_10\n      jumpi\n      dup1\n      0x3c850e1e\n      eq\n      tag_11\n      jumpi\n      jump(tag_2)\n    tag_46:\n      dup1\n      0x16d03993\n      eq\n      tag_3\n      jumpi\n      dup1\n      0x1b0d8aab\n      eq\n      tag_4\n      jumpi\n      dup1\n      0x1e1bff3f\n      eq\n      tag_5\n      jumpi\n      dup1\n      0x27c42a50\n      eq\n      tag_6\n      jumpi\n    tag_2:\n      0x00\n      dup1\n      revert\n        /* \"contracts/helperLogic.sol\":1525:1549  uint256 public basePoint */\n    tag_3:\n      tag_47\n      tag_48\n      jump\t// in\n    tag_47:\n      mload(0x40)\n      tag_49\n      swap2\n      swap1\n      tag_50\n      jump\t// in\n    tag_49:\n      mload(0x40)\n      dup1\n      swap2\n      sub\n      swap1\n      return\n        /* \"contracts/helperLogic.sol\":7108:7220  function setPid(uint256 _val) external onlyOwner returns (bool) {... */\n    tag_4:\n      tag_51\n      tag_52\n      calldatasize\n      0x04\n      tag_53\n      jump\t// in\n    tag_52:\n      tag_54\n      jump\t// in\n    tag_51:\n      mload(0x40)\n      tag_49\n      swap2\n      swap1\n      tag_56\n      jump\t// in\n        /* \"contracts/helperLogic.sol\":2591:2768  function setExecutor(address _address, bool _type)... */\n    tag_5:\n      tag_51\n      tag_58\n      calldatasize\n      0x04\n      tag_59\n      jump\t// in\n    tag_58:\n      tag_60\n      jump\t// in\n        /* \"contracts/helperLogic.sol\":6282:6414  function setToSseaPercent(uint256 _val) external onlyOwner returns (bool) {... */\n    tag_6:\n      tag_51\n      tag_63\n      calldatasize\n      0x04\n      tag_53\n      jump\t// in\n    tag_63:\n      tag_64\n      jump\t// in\n        /* \"contracts/helperLogic.sol\":1429:1455  uint256 public toOpPercent */\n    tag_7:\n      tag_47\n      tag_67\n      jump\t// in\n        /* \"contracts/helperLogic.sol\":1132:1160  IERC20Upgradeable public usc */\n    tag_8:\n      tag_69\n      tag_70\n      jump\t// in\n    tag_69:\n      mload(0x40)\n      tag_49\n      swap2\n      swap1\n      tag_116\n      jump\t// in\n        /* \"contracts/helperLogic.sol\":1701:2585  function initialize(... */\n    tag_9:\n      tag_73\n      tag_74\n      calldatasize\n      0x04\n      tag_75\n      jump\t// in\n    tag_74:\n      tag_76\n      jump\t// in\n    tag_73:\n      stop\n        /* \"contracts/helperLogic.sol\":1580:1597  IFarm public farm */\n    tag_10:\n      tag_69\n      tag_78\n      jump\t// in\n        /* \"contracts/helperLogic.sol\":6554:6684  function setToDevPercent(uint256 _val) external onlyOwner returns (bool) {... */\n    tag_11:\n      tag_51\n      tag_82\n      calldatasize\n      0x04\n      tag_53\n      jump\t// in\n    tag_82:\n      tag_83\n      jump\t// in\n        /* \"contracts/helperLogic.sol\":1166:1195  IERC20Upgradeable public usdc */\n    tag_12:\n      tag_69\n      tag_86\n      jump\t// in\n        /* \"contracts/helperLogic.sol\":6690:6823  function setAutoAdjustFarm(bool _bool) external onlyOwner returns (bool) {... */\n    tag_13:\n      tag_51\n      tag_89\n      calldatasize\n      0x04\n      tag_90\n      jump\t// in\n    tag_89:\n      tag_91\n      jump\t// in\n        /* \"contracts/helperLogic.sol\":1086:1126  mapping(address => bool) public executor */\n    tag_14:\n      tag_51\n      tag_94\n      calldatasize\n      0x04\n      tag_95\n      jump\t// in\n    tag_94:\n      tag_96\n      jump\t// in\n        /* \"contracts/helperLogic.sol\":1461:1488  uint256 public toDevPercent */\n    tag_15:\n      tag_47\n      tag_99\n      jump\t// in\n        /* \"contracts/helperLogic.sol\":1201:1229  IERC20Upgradeable public sea */\n    tag_16:\n      tag_69\n      tag_102\n      jump\t// in\n        /* \"contracts/helperLogic.sol\":6829:6962  function setOpenStabilizer(bool _bool) external onlyOwner returns (bool) {... */\n    tag_17:\n      tag_51\n      tag_105\n      calldatasize\n      0x04\n      tag_90\n      jump\t// in\n    tag_105:\n      tag_106\n      jump\t// in\n        /* \"contracts/helperLogic.sol\":1636:1662  bool public openStabilizer */\n    tag_18:\n      tag_51\n      tag_109\n      jump\t// in\n        /* \"@openzeppelin/contracts-upgradeable/access/OwnableUpgradeable.sol\":1934:2035  function renounceOwnership() public virtual onlyOwner {... */\n    tag_19:\n      tag_73\n      tag_112\n      jump\t// in\n        /* \"contracts/helperLogic.sol\":1669:1694  address public stabilizer */\n    tag_20:\n      tag_69\n      tag_114\n      jump\t// in\n        /* \"@openzeppelin/contracts-upgradeable/access/OwnableUpgradeable.sol\":1302:1387  function owner() public view virtual returns (address) {... */\n    tag_21:\n      tag_69\n      tag_118\n      jump\t// in\n        /* \"contracts/helperLogic.sol\":1293:1311  address public dev */\n    tag_22:\n      tag_69\n      tag_121\n      jump\t// in\n        /* \"contracts/helperLogic.sol\":5811:6026  function withdrawalERC20(address _address, uint256 _amt)... */\n    tag_23:\n      tag_51\n      tag_124\n      calldatasize\n      0x04\n      tag_125\n      jump\t// in\n    tag_124:\n      tag_126\n      jump\t// in\n        /* \"contracts/helperLogic.sol\":1604:1630  bool public autoAdjustFarm */\n    tag_24:\n      tag_51\n      tag_129\n      jump\t// in\n        /* \"contracts/helperLogic.sol\":6032:6150  function setOp(address _address) external onlyOwner returns (bool) {... */\n    tag_25:\n      tag_51\n      tag_132\n      calldatasize\n      0x04\n      tag_95\n      jump\t// in\n    tag_132:\n      tag_133\n      jump\t// in\n        /* \"contracts/helperLogic.sol\":7226:7387  function setUSDCAddress(IERC20Upgradeable _usdc)... */\n    tag_26:\n      tag_51\n      tag_136\n      calldatasize\n      0x04\n      tag_95\n      jump\t// in\n    tag_136:\n      tag_138\n      jump\t// in\n        /* \"contracts/helperLogic.sol\":1494:1518  uint256 public PRECISION */\n    tag_27:\n      tag_47\n      tag_141\n      jump\t// in\n        /* \"contracts/helperLogic.sol\":6420:6548  function setToOpPercent(uint256 _val) external onlyOwner returns (bool) {... */\n    tag_28:\n      tag_51\n      tag_144\n      calldatasize\n      0x04\n      tag_53\n      jump\t// in\n    tag_144:\n      tag_145\n      jump\t// in\n        /* \"contracts/helperLogic.sol\":1235:1264  IERC20Upgradeable public ssea */\n    tag_29:\n      tag_69\n      tag_148\n      jump\t// in\n        /* \"contracts/helperLogic.sol\":1395:1423  uint256 public toSseaPercent */\n    tag_30:\n      tag_47\n      tag_151\n      jump\t// in\n        /* \"contracts/helperLogic.sol\":1356:1388  IUniswapV2Factory public Factory */\n    tag_31:\n      tag_69\n      tag_154\n      jump\t// in\n        /* \"contracts/helperLogic.sol\":4193:4891  function jointExecution() external onlyExecutor returns (bool) {... */\n    tag_32:\n      tag_51\n      tag_158\n      jump\t// in\n        /* \"contracts/helperLogic.sol\":6156:6276  function setDev(address _address) external onlyOwner returns (bool) {... */\n    tag_33:\n      tag_51\n      tag_161\n      calldatasize\n      0x04\n      tag_95\n      jump\t// in\n    tag_161:\n      tag_162\n      jump\t// in\n        /* \"contracts/helperLogic.sol\":7393:7507  function setFarm(IFarm _farm) external onlyOwner returns (bool) {... */\n    tag_34:\n      tag_51\n      tag_165\n      calldatasize\n      0x04\n      tag_95\n      jump\t// in\n    tag_165:\n      tag_167\n      jump\t// in\n        /* \"contracts/helperLogic.sol\":6968:7102  function setStabilizer(address _address) external onlyOwner returns (bool) {... */\n    tag_35:\n      tag_51\n      tag_170\n      calldatasize\n      0x04\n      tag_95\n      jump\t// in\n    tag_170:\n      tag_171\n      jump\t// in\n        /* \"contracts/helperLogic.sol\":1270:1287  address public op */\n    tag_36:\n      tag_69\n      tag_174\n      jump\t// in\n        /* \"contracts/helperLogic.sol\":1555:1573  uint256 public pid */\n    tag_37:\n      tag_47\n      tag_177\n      jump\t// in\n        /* \"@openzeppelin/contracts-upgradeable/access/OwnableUpgradeable.sol\":2184:2382  function transferOwnership(address newOwner) public virtual onlyOwner {... */\n    tag_38:\n      tag_73\n      tag_180\n      calldatasize\n      0x04\n      tag_95\n      jump\t// in\n    tag_180:\n      tag_181\n      jump\t// in\n        /* \"contracts/helperLogic.sol\":1318:1350  IUniswapV2Router02 public Router */\n    tag_39:\n      tag_69\n      tag_183\n      jump\t// in\n        /* \"contracts/helperLogic.sol\":1525:1549  uint256 public basePoint */\n    tag_48:\n      sload(0x72)\n      dup2\n      jump\t// out\n        /* \"contracts/helperLogic.sol\":7108:7220  function setPid(uint256 _val) external onlyOwner returns (bool) {... */\n    tag_54:\n        /* \"contracts/helperLogic.sol\":7166:7170  bool */\n      0x00\n        /* \"@openzeppelin/contracts-upgradeable/access/OwnableUpgradeable.sol\":1525:1537  _msgSender() */\n      tag_187\n        /* \"@openzeppelin/contracts-upgradeable/access/OwnableUpgradeable.sol\":1525:1535  _msgSender */\n      tag_188\n        /* \"@openzeppelin/contracts-upgradeable/access/OwnableUpgradeable.sol\":1525:1537  _msgSender() */\n      jump\t// in\n    tag_187:\n      sub(shl(0xa0, 0x01), 0x01)\n        /* \"@openzeppelin/contracts-upgradeable/access/OwnableUpgradeable.sol\":1514:1537  owner() == _msgSender() */\n      and\n        /* \"@openzeppelin/contracts-upgradeable/access/OwnableUpgradeable.sol\":1514:1521  owner() */\n      tag_189\n        /* \"@openzeppelin/contracts-upgradeable/access/OwnableUpgradeable.sol\":1514:1519  owner */\n      tag_118\n        /* \"@openzeppelin/contracts-upgradeable/access/OwnableUpgradeable.sol\":1514:1521  owner() */\n      jump\t// in\n    tag_189:\n      sub(shl(0xa0, 0x01), 0x01)\n        /* \"@openzeppelin/contracts-upgradeable/access/OwnableUpgradeable.sol\":1514:1537  owner() == _msgSender() */\n      and\n      eq\n        /* \"@openzeppelin/contracts-upgradeable/access/OwnableUpgradeable.sol\":1506:1574  require(owner() == _msgSender(), \"Ownable: caller is not the owner\") */\n      tag_190\n      jumpi\n      mload(0x40)\n      shl(0xe5, 0x461bcd)\n      dup2\n      mstore\n      0x04\n      add\n      tag_191\n      swap1\n      tag_192\n      jump\t// in\n    tag_191:\n      mload(0x40)\n      dup1\n      swap2\n      sub\n      swap1\n      revert\n    tag_190:\n      pop\n        /* \"contracts/helperLogic.sol\":7182:7185  pid */\n      0x73\n        /* \"contracts/helperLogic.sol\":7182:7192  pid = _val */\n      dup2\n      swap1\n      sstore\n        /* \"contracts/helperLogic.sol\":7209:7213  true */\n      0x01\n        /* \"@openzeppelin/contracts-upgradeable/access/OwnableUpgradeable.sol\":1584:1585  _ */\n    tag_193:\n        /* \"contracts/helperLogic.sol\":7108:7220  function setPid(uint256 _val) external onlyOwner returns (bool) {... */\n      swap2\n      swap1\n      pop\n      jump\t// out\n        /* \"contracts/helperLogic.sol\":2591:2768  function setExecutor(address _address, bool _type)... */\n    tag_60:\n        /* \"contracts/helperLogic.sol\":2694:2698  bool */\n      0x00\n        /* \"@openzeppelin/contracts-upgradeable/access/OwnableUpgradeable.sol\":1525:1537  _msgSender() */\n      tag_195\n        /* \"@openzeppelin/contracts-upgradeable/access/OwnableUpgradeable.sol\":1525:1535  _msgSender */\n      tag_188\n        /* \"@openzeppelin/contracts-upgradeable/access/OwnableUpgradeable.sol\":1525:1537  _msgSender() */\n      jump\t// in\n    tag_195:\n      sub(shl(0xa0, 0x01), 0x01)\n        /* \"@openzeppelin/contracts-upgradeable/access/OwnableUpgradeable.sol\":1514:1537  owner() == _msgSender() */\n      and\n        /* \"@openzeppelin/contracts-upgradeable/access/OwnableUpgradeable.sol\":1514:1521  owner() */\n      tag_196\n        /* \"@openzeppelin/contracts-upgradeable/access/OwnableUpgradeable.sol\":1514:1519  owner */\n      tag_118\n        /* \"@openzeppelin/contracts-upgradeable/access/OwnableUpgradeable.sol\":1514:1521  owner() */\n      jump\t// in\n    tag_196:\n      sub(shl(0xa0, 0x01), 0x01)\n        /* \"@openzeppelin/contracts-upgradeable/access/OwnableUpgradeable.sol\":1514:1537  owner() == _msgSender() */\n      and\n      eq\n        /* \"@openzeppelin/contracts-upgradeable/access/OwnableUpgradeable.sol\":1506:1574  require(owner() == _msgSender(), \"Ownable: caller is not the owner\") */\n      tag_197\n      jumpi\n      mload(0x40)\n      shl(0xe5, 0x461bcd)\n      dup2\n      mstore\n      0x04\n      add\n      tag_191\n      swap1\n      tag_192\n      jump\t// in\n    tag_197:\n      pop\n      sub(shl(0xa0, 0x01), 0x01)\n        /* \"contracts/helperLogic.sol\":2714:2732  executor[_address] */\n      dup3\n      and\n      0x00\n      swap1\n      dup2\n      mstore\n        /* \"contracts/helperLogic.sol\":2714:2722  executor */\n      0x65\n        /* \"contracts/helperLogic.sol\":2714:2732  executor[_address] */\n      0x20\n      mstore\n      0x40\n      swap1\n      keccak256\n        /* \"contracts/helperLogic.sol\":2714:2740  executor[_address] = _type */\n      dup1\n      sload\n      dup3\n      iszero\n      iszero\n      not(0xff)\n      swap1\n      swap2\n      and\n      or\n      swap1\n      sstore\n      0x01\n        /* \"contracts/helperLogic.sol\":2591:2768  function setExecutor(address _address, bool _type)... */\n      swap3\n      swap2\n      pop\n      pop\n      jump\t// out\n        /* \"contracts/helperLogic.sol\":6282:6414  function setToSseaPercent(uint256 _val) external onlyOwner returns (bool) {... */\n    tag_64:\n        /* \"contracts/helperLogic.sol\":6350:6354  bool */\n      0x00\n        /* \"@openzeppelin/contracts-upgradeable/access/OwnableUpgradeable.sol\":1525:1537  _msgSender() */\n      tag_201\n        /* \"@openzeppelin/contracts-upgradeable/access/OwnableUpgradeable.sol\":1525:1535  _msgSender */\n      tag_188\n        /* \"@openzeppelin/contracts-upgradeable/access/OwnableUpgradeable.sol\":1525:1537  _msgSender() */\n      jump\t// in\n    tag_201:\n      sub(shl(0xa0, 0x01), 0x01)\n        /* \"@openzeppelin/contracts-upgradeable/access/OwnableUpgradeable.sol\":1514:1537  owner() == _msgSender() */\n      and\n        /* \"@openzeppelin/contracts-upgradeable/access/OwnableUpgradeable.sol\":1514:1521  owner() */\n      tag_202\n        /* \"@openzeppelin/contracts-upgradeable/access/OwnableUpgradeable.sol\":1514:1519  owner */\n      tag_118\n        /* \"@openzeppelin/contracts-upgradeable/access/OwnableUpgradeable.sol\":1514:1521  owner() */\n      jump\t// in\n    tag_202:\n      sub(shl(0xa0, 0x01), 0x01)\n        /* \"@openzeppelin/contracts-upgradeable/access/OwnableUpgradeable.sol\":1514:1537  owner() == _msgSender() */\n      and\n      eq\n        /* \"@openzeppelin/contracts-upgradeable/access/OwnableUpgradeable.sol\":1506:1574  require(owner() == _msgSender(), \"Ownable: caller is not the owner\") */\n      tag_203\n      jumpi\n      mload(0x40)\n      shl(0xe5, 0x461bcd)\n      dup2\n      mstore\n      0x04\n      add\n      tag_191\n      swap1\n      tag_192\n      jump\t// in\n    tag_203:\n      pop\n        /* \"contracts/helperLogic.sol\":6366:6379  toSseaPercent */\n      0x6e\n        /* \"contracts/helperLogic.sol\":6366:6386  toSseaPercent = _val */\n      sstore\n        /* \"contracts/helperLogic.sol\":6403:6407  true */\n      0x01\n      swap1\n        /* \"contracts/helperLogic.sol\":6282:6414  function setToSseaPercent(uint256 _val) external onlyOwner returns (bool) {... */\n      jump\t// out\n        /* \"contracts/helperLogic.sol\":1429:1455  uint256 public toOpPercent */\n    tag_67:\n      sload(0x6f)\n      dup2\n      jump\t// out\n        /* \"contracts/helperLogic.sol\":1132:1160  IERC20Upgradeable public usc */\n    tag_70:\n      and(sub(shl(0xa0, 0x01), 0x01), sload(0x66))\n      dup2\n      jump\t// out\n        /* \"contracts/helperLogic.sol\":1701:2585  function initialize(... */\n    tag_76:\n        /* \"@openzeppelin/contracts-upgradeable/proxy/utils/Initializable.sol\":539:552  _initializing */\n      sload(0x00)\n      0x0100\n      swap1\n      div\n      0xff\n      and\n      dup1\n        /* \"@openzeppelin/contracts-upgradeable/proxy/utils/Initializable.sol\":539:569  _initializing || !_initialized */\n      tag_207\n      jumpi\n      pop\n        /* \"@openzeppelin/contracts-upgradeable/proxy/utils/Initializable.sol\":557:569  _initialized */\n      and(0xff, sload(0x00))\n        /* \"@openzeppelin/contracts-upgradeable/proxy/utils/Initializable.sol\":556:569  !_initialized */\n      iszero\n        /* \"@openzeppelin/contracts-upgradeable/proxy/utils/Initializable.sol\":539:569  _initializing || !_initialized */\n    tag_207:\n        /* \"@openzeppelin/contracts-upgradeable/proxy/utils/Initializable.sol\":531:620  require(_initializing || !_initialized, \"Initializable: contract is already initialized\") */\n      tag_208\n      jumpi\n      mload(0x40)\n      shl(0xe5, 0x461bcd)\n      dup2\n      mstore\n      0x04\n      add\n      tag_191\n      swap1\n      tag_210\n      jump\t// in\n    tag_208:\n        /* \"@openzeppelin/contracts-upgradeable/proxy/utils/Initializable.sol\":631:650  bool isTopLevelCall */\n      0x00\n        /* \"@openzeppelin/contracts-upgradeable/proxy/utils/Initializable.sol\":654:667  _initializing */\n      sload\n      0x0100\n      swap1\n      div\n      0xff\n      and\n        /* \"@openzeppelin/contracts-upgradeable/proxy/utils/Initializable.sol\":653:667  !_initializing */\n      iszero\n        /* \"@openzeppelin/contracts-upgradeable/proxy/utils/Initializable.sol\":677:775  if (isTopLevelCall) {... */\n      dup1\n      iszero\n      tag_211\n      jumpi\n        /* \"@openzeppelin/contracts-upgradeable/proxy/utils/Initializable.sol\":711:724  _initializing */\n      0x00\n        /* \"@openzeppelin/contracts-upgradeable/proxy/utils/Initializable.sol\":711:731  _initializing = true */\n      dup1\n      sload\n      not(0xff)\n      not(0xff00)\n      swap1\n      swap2\n      and\n      0x0100\n      or\n        /* \"@openzeppelin/contracts-upgradeable/proxy/utils/Initializable.sol\":745:764  _initialized = true */\n      and\n        /* \"@openzeppelin/contracts-upgradeable/proxy/utils/Initializable.sol\":727:731  true */\n      0x01\n        /* \"@openzeppelin/contracts-upgradeable/proxy/utils/Initializable.sol\":745:764  _initialized = true */\n      or\n      swap1\n      sstore\n        /* \"@openzeppelin/contracts-upgradeable/proxy/utils/Initializable.sol\":677:775  if (isTopLevelCall) {... */\n    tag_211:\n        /* \"contracts/helperLogic.sol\":2067:2083  __Ownable_init() */\n      tag_213\n        /* \"contracts/helperLogic.sol\":2067:2081  __Ownable_init */\n      tag_214\n        /* \"contracts/helperLogic.sol\":2067:2083  __Ownable_init() */\n      jump\t// in\n    tag_213:\n        /* \"contracts/helperLogic.sol\":2137:2143  Router */\n      0x6c\n        /* \"contracts/helperLogic.sol\":2137:2153  Router = _Router */\n      dup1\n      sload\n      not(sub(shl(0xa0, 0x01), 0x01))\n      swap1\n      dup2\n      and\n      sub(shl(0xa0, 0x01), 0x01)\n      dup11\n      dup2\n      and\n      swap2\n      swap1\n      swap2\n      or\n      swap1\n      swap3\n      sstore\n        /* \"contracts/helperLogic.sol\":2163:2170  Factory */\n      0x6d\n        /* \"contracts/helperLogic.sol\":2163:2181  Factory = _Factory */\n      dup1\n      sload\n      dup3\n      and\n      dup12\n      dup5\n      and\n      or\n      swap1\n      sstore\n        /* \"contracts/helperLogic.sol\":2191:2194  usc */\n      0x66\n        /* \"contracts/helperLogic.sol\":2191:2201  usc = _usc */\n      dup1\n      sload\n      dup3\n      and\n      dup10\n      dup5\n      and\n      or\n      swap1\n      sstore\n        /* \"contracts/helperLogic.sol\":2211:2214  sea */\n      0x68\n        /* \"contracts/helperLogic.sol\":2211:2221  sea = _sea */\n      dup1\n      sload\n      dup3\n      and\n      dup8\n      dup5\n      and\n      or\n      swap1\n      sstore\n        /* \"contracts/helperLogic.sol\":2231:2235  ssea */\n      0x69\n        /* \"contracts/helperLogic.sol\":2231:2243  ssea = _ssea */\n      dup1\n      sload\n      dup3\n      and\n      dup7\n      dup5\n      and\n      or\n      swap1\n      sstore\n        /* \"contracts/helperLogic.sol\":2253:2255  op */\n      0x6a\n        /* \"contracts/helperLogic.sol\":2253:2268  op = msg.sender */\n      dup1\n      sload\n        /* \"contracts/helperLogic.sol\":2258:2268  msg.sender */\n      caller\n        /* \"contracts/helperLogic.sol\":2253:2268  op = msg.sender */\n      swap1\n      dup4\n      and\n      dup2\n      or\n      swap1\n      swap2\n      sstore\n        /* \"contracts/helperLogic.sol\":2278:2281  dev */\n      0x6b\n        /* \"contracts/helperLogic.sol\":2278:2294  dev = msg.sender */\n      dup1\n      sload\n      dup4\n      and\n      swap1\n      swap2\n      or\n      swap1\n      sstore\n        /* \"contracts/helperLogic.sol\":2320:2324  5000 */\n      0x1388\n        /* \"contracts/helperLogic.sol\":2304:2317  toSseaPercent */\n      0x6e\n        /* \"contracts/helperLogic.sol\":2304:2324  toSseaPercent = 5000 */\n      sstore\n        /* \"contracts/helperLogic.sol\":2348:2352  2500 */\n      0x09c4\n        /* \"contracts/helperLogic.sol\":2334:2345  toOpPercent */\n      0x6f\n        /* \"contracts/helperLogic.sol\":2334:2352  toOpPercent = 2500 */\n      dup2\n      swap1\n      sstore\n        /* \"contracts/helperLogic.sol\":2362:2374  toDevPercent */\n      0x70\n        /* \"contracts/helperLogic.sol\":2362:2381  toDevPercent = 2500 */\n      sstore\n        /* \"contracts/helperLogic.sol\":2403:2408  10000 */\n      0x2710\n        /* \"contracts/helperLogic.sol\":2391:2400  PRECISION */\n      0x71\n        /* \"contracts/helperLogic.sol\":2391:2408  PRECISION = 10000 */\n      sstore\n        /* \"contracts/helperLogic.sol\":2430:2434  1000 */\n      0x03e8\n        /* \"contracts/helperLogic.sol\":2418:2427  basePoint */\n      0x72\n        /* \"contracts/helperLogic.sol\":2418:2434  basePoint = 1000 */\n      sstore\n        /* \"contracts/helperLogic.sol\":2444:2458  autoAdjustFarm */\n      0x74\n        /* \"contracts/helperLogic.sol\":2444:2465  autoAdjustFarm = true */\n      dup1\n      sload\n      shl(0xa0, 0x01)\n      not(shl(0xa0, 0xff))\n      swap1\n      swap2\n      and\n      or\n      not(sub(shl(0xa0, 0xff01), 0x01))\n        /* \"contracts/helperLogic.sol\":2507:2519  farm = _farm */\n      and\n      dup6\n      dup5\n      and\n      or\n      swap1\n      sstore\n        /* \"contracts/helperLogic.sol\":2529:2533  usdc */\n      0x67\n        /* \"contracts/helperLogic.sol\":2529:2541  usdc = _usdc */\n      dup1\n      sload\n      swap1\n      swap2\n      and\n      swap2\n      dup8\n      and\n      swap2\n      swap1\n      swap2\n      or\n      swap1\n      sstore\n        /* \"@openzeppelin/contracts-upgradeable/proxy/utils/Initializable.sol\":797:863  if (isTopLevelCall) {... */\n      dup1\n      iszero\n      tag_215\n      jumpi\n        /* \"@openzeppelin/contracts-upgradeable/proxy/utils/Initializable.sol\":847:852  false */\n      0x00\n        /* \"@openzeppelin/contracts-upgradeable/proxy/utils/Initializable.sol\":831:852  _initializing = false */\n      dup1\n      sload\n      not(0xff00)\n      and\n      swap1\n      sstore\n        /* \"@openzeppelin/contracts-upgradeable/proxy/utils/Initializable.sol\":797:863  if (isTopLevelCall) {... */\n    tag_215:\n        /* \"contracts/helperLogic.sol\":1701:2585  function initialize(... */\n      pop\n      pop\n      pop\n      pop\n      pop\n      pop\n      pop\n      pop\n      jump\t// out\n        /* \"contracts/helperLogic.sol\":1580:1597  IFarm public farm */\n    tag_78:\n      and(sub(shl(0xa0, 0x01), 0x01), sload(0x74))\n      dup2\n      jump\t// out\n        /* \"contracts/helperLogic.sol\":6554:6684  function setToDevPercent(uint256 _val) external onlyOwner returns (bool) {... */\n    tag_83:\n        /* \"contracts/helperLogic.sol\":6621:6625  bool */\n      0x00\n        /* \"@openzeppelin/contracts-upgradeable/access/OwnableUpgradeable.sol\":1525:1537  _msgSender() */\n      tag_217\n        /* \"@openzeppelin/contracts-upgradeable/access/OwnableUpgradeable.sol\":1525:1535  _msgSender */\n      tag_188\n        /* \"@openzeppelin/contracts-upgradeable/access/OwnableUpgradeable.sol\":1525:1537  _msgSender() */\n      jump\t// in\n    tag_217:\n      sub(shl(0xa0, 0x01), 0x01)\n        /* \"@openzeppelin/contracts-upgradeable/access/OwnableUpgradeable.sol\":1514:1537  owner() == _msgSender() */\n      and\n        /* \"@openzeppelin/contracts-upgradeable/access/OwnableUpgradeable.sol\":1514:1521  owner() */\n      tag_218\n        /* \"@openzeppelin/contracts-upgradeable/access/OwnableUpgradeable.sol\":1514:1519  owner */\n      tag_118\n        /* \"@openzeppelin/contracts-upgradeable/access/OwnableUpgradeable.sol\":1514:1521  owner() */\n      jump\t// in\n    tag_218:\n      sub(shl(0xa0, 0x01), 0x01)\n        /* \"@openzeppelin/contracts-upgradeable/access/OwnableUpgradeable.sol\":1514:1537  owner() == _msgSender() */\n      and\n      eq\n        /* \"@openzeppelin/contracts-upgradeable/access/OwnableUpgradeable.sol\":1506:1574  require(owner() == _msgSender(), \"Ownable: caller is not the owner\") */\n      tag_219\n      jumpi\n      mload(0x40)\n      shl(0xe5, 0x461bcd)\n      dup2\n      mstore\n      0x04\n      add\n      tag_191\n      swap1\n      tag_192\n      jump\t// in\n    tag_219:\n      pop\n        /* \"contracts/helperLogic.sol\":6637:6649  toDevPercent */\n      0x70\n        /* \"contracts/helperLogic.sol\":6637:6656  toDevPercent = _val */\n      sstore\n        /* \"contracts/helperLogic.sol\":6673:6677  true */\n      0x01\n      swap1\n        /* \"contracts/helperLogic.sol\":6554:6684  function setToDevPercent(uint256 _val) external onlyOwner returns (bool) {... */\n      jump\t// out\n        /* \"contracts/helperLogic.sol\":1166:1195  IERC20Upgradeable public usdc */\n    tag_86:\n      and(sub(shl(0xa0, 0x01), 0x01), sload(0x67))\n      dup2\n      jump\t// out\n        /* \"contracts/helperLogic.sol\":6690:6823  function setAutoAdjustFarm(bool _bool) external onlyOwner returns (bool) {... */\n    tag_91:\n        /* \"contracts/helperLogic.sol\":6757:6761  bool */\n      0x00\n        /* \"@openzeppelin/contracts-upgradeable/access/OwnableUpgradeable.sol\":1525:1537  _msgSender() */\n      tag_223\n        /* \"@openzeppelin/contracts-upgradeable/access/OwnableUpgradeable.sol\":1525:1535  _msgSender */\n      tag_188\n        /* \"@openzeppelin/contracts-upgradeable/access/OwnableUpgradeable.sol\":1525:1537  _msgSender() */\n      jump\t// in\n    tag_223:\n      sub(shl(0xa0, 0x01), 0x01)\n        /* \"@openzeppelin/contracts-upgradeable/access/OwnableUpgradeable.sol\":1514:1537  owner() == _msgSender() */\n      and\n        /* \"@openzeppelin/contracts-upgradeable/access/OwnableUpgradeable.sol\":1514:1521  owner() */\n      tag_224\n        /* \"@openzeppelin/contracts-upgradeable/access/OwnableUpgradeable.sol\":1514:1519  owner */\n      tag_118\n        /* \"@openzeppelin/contracts-upgradeable/access/OwnableUpgradeable.sol\":1514:1521  owner() */\n      jump\t// in\n    tag_224:\n      sub(shl(0xa0, 0x01), 0x01)\n        /* \"@openzeppelin/contracts-upgradeable/access/OwnableUpgradeable.sol\":1514:1537  owner() == _msgSender() */\n      and\n      eq\n        /* \"@openzeppelin/contracts-upgradeable/access/OwnableUpgradeable.sol\":1506:1574  require(owner() == _msgSender(), \"Ownable: caller is not the owner\") */\n      tag_225\n      jumpi\n      mload(0x40)\n      shl(0xe5, 0x461bcd)\n      dup2\n      mstore\n      0x04\n      add\n      tag_191\n      swap1\n      tag_192\n      jump\t// in\n    tag_225:\n      pop\n        /* \"contracts/helperLogic.sol\":6773:6787  autoAdjustFarm */\n      0x74\n        /* \"contracts/helperLogic.sol\":6773:6795  autoAdjustFarm = _bool */\n      dup1\n      sload\n      dup3\n      iszero\n      iszero\n      shl(0xa0, 0x01)\n      mul\n      not(shl(0xa0, 0xff))\n      swap1\n      swap2\n      and\n      or\n      swap1\n      sstore\n      0x01\n        /* \"contracts/helperLogic.sol\":6690:6823  function setAutoAdjustFarm(bool _bool) external onlyOwner returns (bool) {... */\n      swap2\n      swap1\n      pop\n      jump\t// out\n        /* \"contracts/helperLogic.sol\":1086:1126  mapping(address => bool) public executor */\n    tag_96:\n      mstore(0x20, 0x65)\n      0x00\n      swap1\n      dup2\n      mstore\n      0x40\n      swap1\n      keccak256\n      sload\n      0xff\n      and\n      dup2\n      jump\t// out\n        /* \"contracts/helperLogic.sol\":1461:1488  uint256 public toDevPercent */\n    tag_99:\n      sload(0x70)\n      dup2\n      jump\t// out\n        /* \"contracts/helperLogic.sol\":1201:1229  IERC20Upgradeable public sea */\n    tag_102:\n      and(sub(shl(0xa0, 0x01), 0x01), sload(0x68))\n      dup2\n      jump\t// out\n        /* \"contracts/helperLogic.sol\":6829:6962  function setOpenStabilizer(bool _bool) external onlyOwner returns (bool) {... */\n    tag_106:\n        /* \"contracts/helperLogic.sol\":6896:6900  bool */\n      0x00\n        /* \"@openzeppelin/contracts-upgradeable/access/OwnableUpgradeable.sol\":1525:1537  _msgSender() */\n      tag_229\n        /* \"@openzeppelin/contracts-upgradeable/access/OwnableUpgradeable.sol\":1525:1535  _msgSender */\n      tag_188\n        /* \"@openzeppelin/contracts-upgradeable/access/OwnableUpgradeable.sol\":1525:1537  _msgSender() */\n      jump\t// in\n    tag_229:\n      sub(shl(0xa0, 0x01), 0x01)\n        /* \"@openzeppelin/contracts-upgradeable/access/OwnableUpgradeable.sol\":1514:1537  owner() == _msgSender() */\n      and\n        /* \"@openzeppelin/contracts-upgradeable/access/OwnableUpgradeable.sol\":1514:1521  owner() */\n      tag_230\n        /* \"@openzeppelin/contracts-upgradeable/access/OwnableUpgradeable.sol\":1514:1519  owner */\n      tag_118\n        /* \"@openzeppelin/contracts-upgradeable/access/OwnableUpgradeable.sol\":1514:1521  owner() */\n      jump\t// in\n    tag_230:\n      sub(shl(0xa0, 0x01), 0x01)\n        /* \"@openzeppelin/contracts-upgradeable/access/OwnableUpgradeable.sol\":1514:1537  owner() == _msgSender() */\n      and\n      eq\n        /* \"@openzeppelin/contracts-upgradeable/access/OwnableUpgradeable.sol\":1506:1574  require(owner() == _msgSender(), \"Ownable: caller is not the owner\") */\n      tag_231\n      jumpi\n      mload(0x40)\n      shl(0xe5, 0x461bcd)\n      dup2\n      mstore\n      0x04\n      add\n      tag_191\n      swap1\n      tag_192\n      jump\t// in\n    tag_231:\n      pop\n        /* \"contracts/helperLogic.sol\":6912:6926  openStabilizer */\n      0x74\n        /* \"contracts/helperLogic.sol\":6912:6934  openStabilizer = _bool */\n      dup1\n      sload\n      dup3\n      iszero\n      iszero\n      shl(0xa8, 0x01)\n      mul\n      not(shl(0xa8, 0xff))\n      swap1\n      swap2\n      and\n      or\n      swap1\n      sstore\n      0x01\n        /* \"contracts/helperLogic.sol\":6829:6962  function setOpenStabilizer(bool _bool) external onlyOwner returns (bool) {... */\n      swap2\n      swap1\n      pop\n      jump\t// out\n        /* \"contracts/helperLogic.sol\":1636:1662  bool public openStabilizer */\n    tag_109:\n      sload(0x74)\n      shl(0xa8, 0x01)\n      swap1\n      div\n      0xff\n      and\n      dup2\n      jump\t// out\n        /* \"@openzeppelin/contracts-upgradeable/access/OwnableUpgradeable.sol\":1934:2035  function renounceOwnership() public virtual onlyOwner {... */\n    tag_112:\n        /* \"@openzeppelin/contracts-upgradeable/access/OwnableUpgradeable.sol\":1525:1537  _msgSender() */\n      tag_235\n        /* \"@openzeppelin/contracts-upgradeable/access/OwnableUpgradeable.sol\":1525:1535  _msgSender */\n      tag_188\n        /* \"@openzeppelin/contracts-upgradeable/access/OwnableUpgradeable.sol\":1525:1537  _msgSender() */\n      jump\t// in\n    tag_235:\n      sub(shl(0xa0, 0x01), 0x01)\n        /* \"@openzeppelin/contracts-upgradeable/access/OwnableUpgradeable.sol\":1514:1537  owner() == _msgSender() */\n      and\n        /* \"@openzeppelin/contracts-upgradeable/access/OwnableUpgradeable.sol\":1514:1521  owner() */\n      tag_236\n        /* \"@openzeppelin/contracts-upgradeable/access/OwnableUpgradeable.sol\":1514:1519  owner */\n      tag_118\n        /* \"@openzeppelin/contracts-upgradeable/access/OwnableUpgradeable.sol\":1514:1521  owner() */\n      jump\t// in\n    tag_236:\n      sub(shl(0xa0, 0x01), 0x01)\n        /* \"@openzeppelin/contracts-upgradeable/access/OwnableUpgradeable.sol\":1514:1537  owner() == _msgSender() */\n      and\n      eq\n        /* \"@openzeppelin/contracts-upgradeable/access/OwnableUpgradeable.sol\":1506:1574  require(owner() == _msgSender(), \"Ownable: caller is not the owner\") */\n      tag_237\n      jumpi\n      mload(0x40)\n      shl(0xe5, 0x461bcd)\n      dup2\n      mstore\n      0x04\n      add\n      tag_191\n      swap1\n      tag_192\n      jump\t// in\n    tag_237:\n        /* \"@openzeppelin/contracts-upgradeable/access/OwnableUpgradeable.sol\":1998:2028  _transferOwnership(address(0)) */\n      tag_240\n        /* \"@openzeppelin/contracts-upgradeable/access/OwnableUpgradeable.sol\":2025:2026  0 */\n      0x00\n        /* \"@openzeppelin/contracts-upgradeable/access/OwnableUpgradeable.sol\":1998:2016  _transferOwnership */\n      tag_241\n        /* \"@openzeppelin/contracts-upgradeable/access/OwnableUpgradeable.sol\":1998:2028  _transferOwnership(address(0)) */\n      jump\t// in\n    tag_240:\n        /* \"@openzeppelin/contracts-upgradeable/access/OwnableUpgradeable.sol\":1934:2035  function renounceOwnership() public virtual onlyOwner {... */\n      jump\t// out\n        /* \"contracts/helperLogic.sol\":1669:1694  address public stabilizer */\n    tag_114:\n      and(sub(shl(0xa0, 0x01), 0x01), sload(0x75))\n      dup2\n      jump\t// out\n        /* \"@openzeppelin/contracts-upgradeable/access/OwnableUpgradeable.sol\":1302:1387  function owner() public view virtual returns (address) {... */\n    tag_118:\n        /* \"@openzeppelin/contracts-upgradeable/access/OwnableUpgradeable.sol\":1374:1380  _owner */\n      and(sub(shl(0xa0, 0x01), 0x01), sload(0x33))\n        /* \"@openzeppelin/contracts-upgradeable/access/OwnableUpgradeable.sol\":1302:1387  function owner() public view virtual returns (address) {... */\n      swap1\n      jump\t// out\n        /* \"contracts/helperLogic.sol\":1293:1311  address public dev */\n    tag_121:\n      and(sub(shl(0xa0, 0x01), 0x01), sload(0x6b))\n      dup2\n      jump\t// out\n        /* \"contracts/helperLogic.sol\":5811:6026  function withdrawalERC20(address _address, uint256 _amt)... */\n    tag_126:\n        /* \"contracts/helperLogic.sol\":5920:5924  bool */\n      0x00\n        /* \"@openzeppelin/contracts-upgradeable/access/OwnableUpgradeable.sol\":1525:1537  _msgSender() */\n      tag_244\n        /* \"@openzeppelin/contracts-upgradeable/access/OwnableUpgradeable.sol\":1525:1535  _msgSender */\n      tag_188\n        /* \"@openzeppelin/contracts-upgradeable/access/OwnableUpgradeable.sol\":1525:1537  _msgSender() */\n      jump\t// in\n    tag_244:\n      sub(shl(0xa0, 0x01), 0x01)\n        /* \"@openzeppelin/contracts-upgradeable/access/OwnableUpgradeable.sol\":1514:1537  owner() == _msgSender() */\n      and\n        /* \"@openzeppelin/contracts-upgradeable/access/OwnableUpgradeable.sol\":1514:1521  owner() */\n      tag_245\n        /* \"@openzeppelin/contracts-upgradeable/access/OwnableUpgradeable.sol\":1514:1519  owner */\n      tag_118\n        /* \"@openzeppelin/contracts-upgradeable/access/OwnableUpgradeable.sol\":1514:1521  owner() */\n      jump\t// in\n    tag_245:\n      sub(shl(0xa0, 0x01), 0x01)\n        /* \"@openzeppelin/contracts-upgradeable/access/OwnableUpgradeable.sol\":1514:1537  owner() == _msgSender() */\n      and\n      eq\n        /* \"@openzeppelin/contracts-upgradeable/access/OwnableUpgradeable.sol\":1506:1574  require(owner() == _msgSender(), \"Ownable: caller is not the owner\") */\n      tag_246\n      jumpi\n      mload(0x40)\n      shl(0xe5, 0x461bcd)\n      dup2\n      mstore\n      0x04\n      add\n      tag_191\n      swap1\n      tag_192\n      jump\t// in\n    tag_246:\n        /* \"contracts/helperLogic.sol\":5940:5998  IERC20Upgradeable(_address).safeTransfer(msg.sender, _amt) */\n      tag_249\n      sub(shl(0xa0, 0x01), 0x01)\n        /* \"contracts/helperLogic.sol\":5940:5980  IERC20Upgradeable(_address).safeTransfer */\n      dup5\n      and\n        /* \"contracts/helperLogic.sol\":5981:5991  msg.sender */\n      caller\n        /* \"contracts/helperLogic.sol\":5993:5997  _amt */\n      dup5\n        /* \"contracts/helperLogic.sol\":5940:5980  IERC20Upgradeable(_address).safeTransfer */\n      tag_250\n        /* \"contracts/helperLogic.sol\":5940:5998  IERC20Upgradeable(_address).safeTransfer(msg.sender, _amt) */\n      jump\t// in\n    tag_249:\n      pop\n        /* \"contracts/helperLogic.sol\":6015:6019  true */\n      0x01\n        /* \"contracts/helperLogic.sol\":5811:6026  function withdrawalERC20(address _address, uint256 _amt)... */\n      swap3\n      swap2\n      pop\n      pop\n      jump\t// out\n        /* \"contracts/helperLogic.sol\":1604:1630  bool public autoAdjustFarm */\n    tag_129:\n      sload(0x74)\n      shl(0xa0, 0x01)\n      swap1\n      div\n      0xff\n      and\n      dup2\n      jump\t// out\n        /* \"contracts/helperLogic.sol\":6032:6150  function setOp(address _address) external onlyOwner returns (bool) {... */\n    tag_133:\n        /* \"contracts/helperLogic.sol\":6093:6097  bool */\n      0x00\n        /* \"@openzeppelin/contracts-upgradeable/access/OwnableUpgradeable.sol\":1525:1537  _msgSender() */\n      tag_252\n        /* \"@openzeppelin/contracts-upgradeable/access/OwnableUpgradeable.sol\":1525:1535  _msgSender */\n      tag_188\n        /* \"@openzeppelin/contracts-upgradeable/access/OwnableUpgradeable.sol\":1525:1537  _msgSender() */\n      jump\t// in\n    tag_252:\n      sub(shl(0xa0, 0x01), 0x01)\n        /* \"@openzeppelin/contracts-upgradeable/access/OwnableUpgradeable.sol\":1514:1537  owner() == _msgSender() */\n      and\n        /* \"@openzeppelin/contracts-upgradeable/access/OwnableUpgradeable.sol\":1514:1521  owner() */\n      tag_253\n        /* \"@openzeppelin/contracts-upgradeable/access/OwnableUpgradeable.sol\":1514:1519  owner */\n      tag_118\n        /* \"@openzeppelin/contracts-upgradeable/access/OwnableUpgradeable.sol\":1514:1521  owner() */\n      jump\t// in\n    tag_253:\n      sub(shl(0xa0, 0x01), 0x01)\n        /* \"@openzeppelin/contracts-upgradeable/access/OwnableUpgradeable.sol\":1514:1537  owner() == _msgSender() */\n      and\n      eq\n        /* \"@openzeppelin/contracts-upgradeable/access/OwnableUpgradeable.sol\":1506:1574  require(owner() == _msgSender(), \"Ownable: caller is not the owner\") */\n      tag_254\n      jumpi\n      mload(0x40)\n      shl(0xe5, 0x461bcd)\n      dup2\n      mstore\n      0x04\n      add\n      tag_191\n      swap1\n      tag_192\n      jump\t// in\n    tag_254:\n      pop\n        /* \"contracts/helperLogic.sol\":6109:6111  op */\n      0x6a\n        /* \"contracts/helperLogic.sol\":6109:6122  op = _address */\n      dup1\n      sload\n      sub(shl(0xa0, 0x01), 0x01)\n      dup4\n      and\n      not(sub(shl(0xa0, 0x01), 0x01))\n      swap1\n      swap2\n      and\n      or\n      swap1\n      sstore\n      0x01\n        /* \"contracts/helperLogic.sol\":6032:6150  function setOp(address _address) external onlyOwner returns (bool) {... */\n      swap2\n      swap1\n      pop\n      jump\t// out\n        /* \"contracts/helperLogic.sol\":7226:7387  function setUSDCAddress(IERC20Upgradeable _usdc)... */\n    tag_138:\n        /* \"contracts/helperLogic.sol\":7327:7331  bool */\n      0x00\n        /* \"@openzeppelin/contracts-upgradeable/access/OwnableUpgradeable.sol\":1525:1537  _msgSender() */\n      tag_258\n        /* \"@openzeppelin/contracts-upgradeable/access/OwnableUpgradeable.sol\":1525:1535  _msgSender */\n      tag_188\n        /* \"@openzeppelin/contracts-upgradeable/access/OwnableUpgradeable.sol\":1525:1537  _msgSender() */\n      jump\t// in\n    tag_258:\n      sub(shl(0xa0, 0x01), 0x01)\n        /* \"@openzeppelin/contracts-upgradeable/access/OwnableUpgradeable.sol\":1514:1537  owner() == _msgSender() */\n      and\n        /* \"@openzeppelin/contracts-upgradeable/access/OwnableUpgradeable.sol\":1514:1521  owner() */\n      tag_259\n        /* \"@openzeppelin/contracts-upgradeable/access/OwnableUpgradeable.sol\":1514:1519  owner */\n      tag_118\n        /* \"@openzeppelin/contracts-upgradeable/access/OwnableUpgradeable.sol\":1514:1521  owner() */\n      jump\t// in\n    tag_259:\n      sub(shl(0xa0, 0x01), 0x01)\n        /* \"@openzeppelin/contracts-upgradeable/access/OwnableUpgradeable.sol\":1514:1537  owner() == _msgSender() */\n      and\n      eq\n        /* \"@openzeppelin/contracts-upgradeable/access/OwnableUpgradeable.sol\":1506:1574  require(owner() == _msgSender(), \"Ownable: caller is not the owner\") */\n      tag_260\n      jumpi\n      mload(0x40)\n      shl(0xe5, 0x461bcd)\n      dup2\n      mstore\n      0x04\n      add\n      tag_191\n      swap1\n      tag_192\n      jump\t// in\n    tag_260:\n      pop\n        /* \"contracts/helperLogic.sol\":7347:7351  usdc */\n      0x67\n        /* \"contracts/helperLogic.sol\":7347:7359  usdc = _usdc */\n      dup1\n      sload\n      sub(shl(0xa0, 0x01), 0x01)\n      dup4\n      and\n      not(sub(shl(0xa0, 0x01), 0x01))\n      swap1\n      swap2\n      and\n      or\n      swap1\n      sstore\n      0x01\n        /* \"contracts/helperLogic.sol\":7226:7387  function setUSDCAddress(IERC20Upgradeable _usdc)... */\n      swap2\n      swap1\n      pop\n      jump\t// out\n        /* \"contracts/helperLogic.sol\":1494:1518  uint256 public PRECISION */\n    tag_141:\n      sload(0x71)\n      dup2\n      jump\t// out\n        /* \"contracts/helperLogic.sol\":6420:6548  function setToOpPercent(uint256 _val) external onlyOwner returns (bool) {... */\n    tag_145:\n        /* \"contracts/helperLogic.sol\":6486:6490  bool */\n      0x00\n        /* \"@openzeppelin/contracts-upgradeable/access/OwnableUpgradeable.sol\":1525:1537  _msgSender() */\n      tag_264\n        /* \"@openzeppelin/contracts-upgradeable/access/OwnableUpgradeable.sol\":1525:1535  _msgSender */\n      tag_188\n        /* \"@openzeppelin/contracts-upgradeable/access/OwnableUpgradeable.sol\":1525:1537  _msgSender() */\n      jump\t// in\n    tag_264:\n      sub(shl(0xa0, 0x01), 0x01)\n        /* \"@openzeppelin/contracts-upgradeable/access/OwnableUpgradeable.sol\":1514:1537  owner() == _msgSender() */\n      and\n        /* \"@openzeppelin/contracts-upgradeable/access/OwnableUpgradeable.sol\":1514:1521  owner() */\n      tag_265\n        /* \"@openzeppelin/contracts-upgradeable/access/OwnableUpgradeable.sol\":1514:1519  owner */\n      tag_118\n        /* \"@openzeppelin/contracts-upgradeable/access/OwnableUpgradeable.sol\":1514:1521  owner() */\n      jump\t// in\n    tag_265:\n      sub(shl(0xa0, 0x01), 0x01)\n        /* \"@openzeppelin/contracts-upgradeable/access/OwnableUpgradeable.sol\":1514:1537  owner() == _msgSender() */\n      and\n      eq\n        /* \"@openzeppelin/contracts-upgradeable/access/OwnableUpgradeable.sol\":1506:1574  require(owner() == _msgSender(), \"Ownable: caller is not the owner\") */\n      tag_266\n      jumpi\n      mload(0x40)\n      shl(0xe5, 0x461bcd)\n      dup2\n      mstore\n      0x04\n      add\n      tag_191\n      swap1\n      tag_192\n      jump\t// in\n    tag_266:\n      pop\n        /* \"contracts/helperLogic.sol\":6502:6513  toOpPercent */\n      0x6f\n        /* \"contracts/helperLogic.sol\":6502:6520  toOpPercent = _val */\n      sstore\n        /* \"contracts/helperLogic.sol\":6537:6541  true */\n      0x01\n      swap1\n        /* \"contracts/helperLogic.sol\":6420:6548  function setToOpPercent(uint256 _val) external onlyOwner returns (bool) {... */\n      jump\t// out\n        /* \"contracts/helperLogic.sol\":1235:1264  IERC20Upgradeable public ssea */\n    tag_148:\n      and(sub(shl(0xa0, 0x01), 0x01), sload(0x69))\n      dup2\n      jump\t// out\n        /* \"contracts/helperLogic.sol\":1395:1423  uint256 public toSseaPercent */\n    tag_151:\n      sload(0x6e)\n      dup2\n      jump\t// out\n        /* \"contracts/helperLogic.sol\":1356:1388  IUniswapV2Factory public Factory */\n    tag_154:\n      and(sub(shl(0xa0, 0x01), 0x01), sload(0x6d))\n      dup2\n      jump\t// out\n        /* \"contracts/helperLogic.sol\":4193:4891  function jointExecution() external onlyExecutor returns (bool) {... */\n    tag_158:\n        /* \"contracts/helperLogic.sol\":2825:2835  msg.sender */\n      caller\n        /* \"contracts/helperLogic.sol\":4250:4254  bool */\n      0x00\n        /* \"contracts/helperLogic.sol\":2816:2836  executor[msg.sender] */\n      swap1\n      dup2\n      mstore\n        /* \"contracts/helperLogic.sol\":2816:2824  executor */\n      0x65\n        /* \"contracts/helperLogic.sol\":2816:2836  executor[msg.sender] */\n      0x20\n      mstore\n      0x40\n      dup2\n      keccak256\n      sload\n      0xff\n      and\n        /* \"contracts/helperLogic.sol\":2808:2877  require(executor[msg.sender], \"executor: caller is not the executor\") */\n      tag_270\n      jumpi\n      mload(0x40)\n      shl(0xe5, 0x461bcd)\n      dup2\n      mstore\n      0x04\n      add\n      tag_191\n      swap1\n      tag_272\n      jump\t// in\n    tag_270:\n        /* \"contracts/helperLogic.sol\":4289:4292  usc */\n      sload(0x66)\n        /* \"contracts/helperLogic.sol\":4289:4317  usc.balanceOf(address(this)) */\n      mload(0x40)\n      shl(0xe0, 0x70a08231)\n      dup2\n      mstore\n        /* \"contracts/helperLogic.sol\":4266:4286  uint256 uscBalanceOf */\n      0x00\n      swap2\n      sub(shl(0xa0, 0x01), 0x01)\n        /* \"contracts/helperLogic.sol\":4289:4292  usc */\n      and\n      swap1\n        /* \"contracts/helperLogic.sol\":4289:4302  usc.balanceOf */\n      0x70a08231\n      swap1\n        /* \"contracts/helperLogic.sol\":4289:4317  usc.balanceOf(address(this)) */\n      tag_274\n      swap1\n        /* \"contracts/helperLogic.sol\":4311:4315  this */\n      address\n      swap1\n        /* \"contracts/helperLogic.sol\":4289:4317  usc.balanceOf(address(this)) */\n      0x04\n      add\n      tag_116\n      jump\t// in\n    tag_274:\n      0x20\n      mload(0x40)\n      dup1\n      dup4\n      sub\n      dup2\n      dup7\n      dup1\n      extcodesize\n      iszero\n      dup1\n      iszero\n      tag_275\n      jumpi\n      0x00\n      dup1\n      revert\n    tag_275:\n      pop\n      gas\n      staticcall\n      iszero\n      dup1\n      iszero\n      tag_277\n      jumpi\n      returndatasize\n      0x00\n      dup1\n      returndatacopy\n      revert(0x00, returndatasize)\n    tag_277:\n      pop\n      pop\n      pop\n      pop\n      mload(0x40)\n      returndatasize\n      not(0x1f)\n      0x1f\n      dup3\n      add\n      and\n      dup3\n      add\n      dup1\n      0x40\n      mstore\n      pop\n      dup2\n      add\n      swap1\n      tag_278\n      swap2\n      swap1\n      tag_279\n      jump\t// in\n    tag_278:\n        /* \"contracts/helperLogic.sol\":4266:4317  uint256 uscBalanceOf = usc.balanceOf(address(this)) */\n      swap1\n      pop\n        /* \"contracts/helperLogic.sol\":4327:4341  uint256 toSsea */\n      0x00\n        /* \"contracts/helperLogic.sol\":4344:4390  uscBalanceOf.mul(toSseaPercent).div(PRECISION) */\n      tag_280\n        /* \"contracts/helperLogic.sol\":4380:4389  PRECISION */\n      sload(0x71)\n        /* \"contracts/helperLogic.sol\":4344:4375  uscBalanceOf.mul(toSseaPercent) */\n      tag_281\n        /* \"contracts/helperLogic.sol\":4361:4374  toSseaPercent */\n      sload(0x6e)\n        /* \"contracts/helperLogic.sol\":4344:4356  uscBalanceOf */\n      dup6\n        /* \"contracts/helperLogic.sol\":4344:4360  uscBalanceOf.mul */\n      tag_282\n      swap1\n        /* \"contracts/helperLogic.sol\":4344:4375  uscBalanceOf.mul(toSseaPercent) */\n      swap2\n      swap1\n      0xffffffff\n      and\n      jump\t// in\n    tag_281:\n        /* \"contracts/helperLogic.sol\":4344:4379  uscBalanceOf.mul(toSseaPercent).div */\n      swap1\n      tag_283\n        /* \"contracts/helperLogic.sol\":4344:4390  uscBalanceOf.mul(toSseaPercent).div(PRECISION) */\n      jump\t// in\n    tag_280:\n        /* \"contracts/helperLogic.sol\":4327:4390  uint256 toSsea = uscBalanceOf.mul(toSseaPercent).div(PRECISION) */\n      swap1\n      pop\n        /* \"contracts/helperLogic.sol\":4400:4412  uint256 toOp */\n      0x00\n        /* \"contracts/helperLogic.sol\":4415:4459  uscBalanceOf.mul(toOpPercent).div(PRECISION) */\n      tag_284\n        /* \"contracts/helperLogic.sol\":4449:4458  PRECISION */\n      sload(0x71)\n        /* \"contracts/helperLogic.sol\":4415:4444  uscBalanceOf.mul(toOpPercent) */\n      tag_281\n        /* \"contracts/helperLogic.sol\":4432:4443  toOpPercent */\n      sload(0x6f)\n        /* \"contracts/helperLogic.sol\":4415:4427  uscBalanceOf */\n      dup7\n        /* \"contracts/helperLogic.sol\":4415:4431  uscBalanceOf.mul */\n      tag_282\n      swap1\n        /* \"contracts/helperLogic.sol\":4415:4444  uscBalanceOf.mul(toOpPercent) */\n      swap2\n      swap1\n      0xffffffff\n      and\n      jump\t// in\n        /* \"contracts/helperLogic.sol\":4415:4459  uscBalanceOf.mul(toOpPercent).div(PRECISION) */\n    tag_284:\n        /* \"contracts/helperLogic.sol\":4400:4459  uint256 toOp = uscBalanceOf.mul(toOpPercent).div(PRECISION) */\n      swap1\n      pop\n        /* \"contracts/helperLogic.sol\":4469:4482  uint256 toDev */\n      0x00\n        /* \"contracts/helperLogic.sol\":4485:4519  uscBalanceOf.sub(toSsea).sub(toOp) */\n      tag_286\n        /* \"contracts/helperLogic.sol\":4400:4459  uint256 toOp = uscBalanceOf.mul(toOpPercent).div(PRECISION) */\n      dup3\n        /* \"contracts/helperLogic.sol\":4485:4509  uscBalanceOf.sub(toSsea) */\n      tag_287\n        /* \"contracts/helperLogic.sol\":4485:4497  uscBalanceOf */\n      dup7\n        /* \"contracts/helperLogic.sol\":4502:4508  toSsea */\n      dup7\n        /* \"contracts/helperLogic.sol\":4485:4501  uscBalanceOf.sub */\n      tag_288\n        /* \"contracts/helperLogic.sol\":4485:4509  uscBalanceOf.sub(toSsea) */\n      jump\t// in\n    tag_287:\n        /* \"contracts/helperLogic.sol\":4485:4513  uscBalanceOf.sub(toSsea).sub */\n      swap1\n      tag_288\n        /* \"contracts/helperLogic.sol\":4485:4519  uscBalanceOf.sub(toSsea).sub(toOp) */\n      jump\t// in\n    tag_286:\n        /* \"contracts/helperLogic.sol\":4469:4519  uint256 toDev = uscBalanceOf.sub(toSsea).sub(toOp) */\n      swap1\n      pop\n        /* \"contracts/helperLogic.sol\":4530:4544  uint256 seaAmt */\n      0x00\n        /* \"contracts/helperLogic.sol\":4547:4561  buySea(toSsea) */\n      tag_289\n        /* \"contracts/helperLogic.sol\":4554:4560  toSsea */\n      dup5\n        /* \"contracts/helperLogic.sol\":4547:4553  buySea */\n      tag_290\n        /* \"contracts/helperLogic.sol\":4547:4561  buySea(toSsea) */\n      jump\t// in\n    tag_289:\n        /* \"contracts/helperLogic.sol\":4596:4600  ssea */\n      sload(0x69)\n        /* \"contracts/helperLogic.sol\":4571:4574  sea */\n      sload(0x68)\n        /* \"contracts/helperLogic.sol\":4530:4561  uint256 seaAmt = buySea(toSsea) */\n      swap2\n      swap3\n      pop\n        /* \"contracts/helperLogic.sol\":4571:4610  sea.safeTransfer(address(ssea), seaAmt) */\n      tag_291\n      swap2\n      sub(shl(0xa0, 0x01), 0x01)\n        /* \"contracts/helperLogic.sol\":4571:4574  sea */\n      swap1\n      dup2\n      and\n      swap2\n        /* \"contracts/helperLogic.sol\":4596:4600  ssea */\n      and\n        /* \"contracts/helperLogic.sol\":4530:4561  uint256 seaAmt = buySea(toSsea) */\n      dup4\n        /* \"contracts/helperLogic.sol\":4571:4587  sea.safeTransfer */\n      tag_250\n        /* \"contracts/helperLogic.sol\":4571:4610  sea.safeTransfer(address(ssea), seaAmt) */\n      jump\t// in\n    tag_291:\n        /* \"contracts/helperLogic.sol\":4645:4647  op */\n      sload(0x6a)\n        /* \"contracts/helperLogic.sol\":4620:4623  usc */\n      sload(0x66)\n        /* \"contracts/helperLogic.sol\":4620:4655  usc.safeTransfer(address(op), toOp) */\n      tag_292\n      swap2\n      sub(shl(0xa0, 0x01), 0x01)\n        /* \"contracts/helperLogic.sol\":4620:4623  usc */\n      swap2\n      dup3\n      and\n      swap2\n        /* \"contracts/helperLogic.sol\":4645:4647  op */\n      and\n        /* \"contracts/helperLogic.sol\":4650:4654  toOp */\n      dup6\n        /* \"contracts/helperLogic.sol\":4620:4636  usc.safeTransfer */\n      tag_250\n        /* \"contracts/helperLogic.sol\":4620:4655  usc.safeTransfer(address(op), toOp) */\n      jump\t// in\n    tag_292:\n        /* \"contracts/helperLogic.sol\":4690:4693  dev */\n      sload(0x6b)\n        /* \"contracts/helperLogic.sol\":4665:4668  usc */\n      sload(0x66)\n        /* \"contracts/helperLogic.sol\":4665:4702  usc.safeTransfer(address(dev), toDev) */\n      tag_293\n      swap2\n      sub(shl(0xa0, 0x01), 0x01)\n        /* \"contracts/helperLogic.sol\":4665:4668  usc */\n      swap2\n      dup3\n      and\n      swap2\n        /* \"contracts/helperLogic.sol\":4690:4693  dev */\n      and\n        /* \"contracts/helperLogic.sol\":4696:4701  toDev */\n      dup5\n        /* \"contracts/helperLogic.sol\":4665:4681  usc.safeTransfer */\n      tag_250\n        /* \"contracts/helperLogic.sol\":4665:4702  usc.safeTransfer(address(dev), toDev) */\n      jump\t// in\n    tag_293:\n        /* \"contracts/helperLogic.sol\":4717:4731  autoAdjustFarm */\n      sload(0x74)\n      shl(0xa0, 0x01)\n      swap1\n      div\n      0xff\n      and\n        /* \"contracts/helperLogic.sol\":4713:4770  if (autoAdjustFarm) {... */\n      iszero\n      tag_295\n      jumpi\n        /* \"contracts/helperLogic.sol\":4747:4759  adjustFarm() */\n      tag_295\n        /* \"contracts/helperLogic.sol\":4747:4757  adjustFarm */\n      tag_296\n        /* \"contracts/helperLogic.sol\":4747:4759  adjustFarm() */\n      jump\t// in\n    tag_295:\n        /* \"contracts/helperLogic.sol\":4784:4798  openStabilizer */\n      sload(0x74)\n      shl(0xa8, 0x01)\n      swap1\n      div\n      0xff\n      and\n        /* \"contracts/helperLogic.sol\":4780:4863  if (openStabilizer) {... */\n      iszero\n      tag_297\n      jumpi\n        /* \"contracts/helperLogic.sol\":4826:4836  stabilizer */\n      0x75\n      0x00\n      swap1\n      sload\n      swap1\n      0x0100\n      exp\n      swap1\n      div\n      sub(shl(0xa0, 0x01), 0x01)\n      and\n      sub(shl(0xa0, 0x01), 0x01)\n        /* \"contracts/helperLogic.sol\":4814:4850  IStabilizer(stabilizer).goStabilizer */\n      and\n      0x796c7be7\n        /* \"contracts/helperLogic.sol\":4814:4852  IStabilizer(stabilizer).goStabilizer() */\n      mload(0x40)\n      dup2\n      0xffffffff\n      and\n      0xe0\n      shl\n      dup2\n      mstore\n      0x04\n      add\n      0x20\n      mload(0x40)\n      dup1\n      dup4\n      sub\n      dup2\n      0x00\n      dup8\n      dup1\n      extcodesize\n      iszero\n      dup1\n      iszero\n      tag_298\n      jumpi\n      0x00\n      dup1\n      revert\n    tag_298:\n      pop\n      gas\n      call\n      iszero\n      dup1\n      iszero\n      tag_300\n      jumpi\n      returndatasize\n      0x00\n      dup1\n      returndatacopy\n      revert(0x00, returndatasize)\n    tag_300:\n      pop\n      pop\n      pop\n      pop\n      mload(0x40)\n      returndatasize\n      not(0x1f)\n      0x1f\n      dup3\n      add\n      and\n      dup3\n      add\n      dup1\n      0x40\n      mstore\n      pop\n      dup2\n      add\n      swap1\n      tag_301\n      swap2\n      swap1\n      tag_302\n      jump\t// in\n    tag_301:\n      pop\n        /* \"contracts/helperLogic.sol\":4780:4863  if (openStabilizer) {... */\n    tag_297:\n        /* \"contracts/helperLogic.sol\":4880:4884  true */\n      0x01\n        /* \"contracts/helperLogic.sol\":4873:4884  return true */\n      swap6\n      pop\n      pop\n      pop\n      pop\n      pop\n      pop\n        /* \"contracts/helperLogic.sol\":4193:4891  function jointExecution() external onlyExecutor returns (bool) {... */\n      swap1\n      jump\t// out\n        /* \"contracts/helperLogic.sol\":6156:6276  function setDev(address _address) external onlyOwner returns (bool) {... */\n    tag_162:\n        /* \"contracts/helperLogic.sol\":6218:6222  bool */\n      0x00\n        /* \"@openzeppelin/contracts-upgradeable/access/OwnableUpgradeable.sol\":1525:1537  _msgSender() */\n      tag_304\n        /* \"@openzeppelin/contracts-upgradeable/access/OwnableUpgradeable.sol\":1525:1535  _msgSender */\n      tag_188\n        /* \"@openzeppelin/contracts-upgradeable/access/OwnableUpgradeable.sol\":1525:1537  _msgSender() */\n      jump\t// in\n    tag_304:\n      sub(shl(0xa0, 0x01), 0x01)\n        /* \"@openzeppelin/contracts-upgradeable/access/OwnableUpgradeable.sol\":1514:1537  owner() == _msgSender() */\n      and\n        /* \"@openzeppelin/contracts-upgradeable/access/OwnableUpgradeable.sol\":1514:1521  owner() */\n      tag_305\n        /* \"@openzeppelin/contracts-upgradeable/access/OwnableUpgradeable.sol\":1514:1519  owner */\n      tag_118\n        /* \"@openzeppelin/contracts-upgradeable/access/OwnableUpgradeable.sol\":1514:1521  owner() */\n      jump\t// in\n    tag_305:\n      sub(shl(0xa0, 0x01), 0x01)\n        /* \"@openzeppelin/contracts-upgradeable/access/OwnableUpgradeable.sol\":1514:1537  owner() == _msgSender() */\n      and\n      eq\n        /* \"@openzeppelin/contracts-upgradeable/access/OwnableUpgradeable.sol\":1506:1574  require(owner() == _msgSender(), \"Ownable: caller is not the owner\") */\n      tag_306\n      jumpi\n      mload(0x40)\n      shl(0xe5, 0x461bcd)\n      dup2\n      mstore\n      0x04\n      add\n      tag_191\n      swap1\n      tag_192\n      jump\t// in\n    tag_306:\n      pop\n        /* \"contracts/helperLogic.sol\":6234:6237  dev */\n      0x6b\n        /* \"contracts/helperLogic.sol\":6234:6248  dev = _address */\n      dup1\n      sload\n      sub(shl(0xa0, 0x01), 0x01)\n      dup4\n      and\n      not(sub(shl(0xa0, 0x01), 0x01))\n      swap1\n      swap2\n      and\n      or\n      swap1\n      sstore\n      0x01\n        /* \"contracts/helperLogic.sol\":6156:6276  function setDev(address _address) external onlyOwner returns (bool) {... */\n      swap2\n      swap1\n      pop\n      jump\t// out\n        /* \"contracts/helperLogic.sol\":7393:7507  function setFarm(IFarm _farm) external onlyOwner returns (bool) {... */\n    tag_167:\n        /* \"contracts/helperLogic.sol\":7451:7455  bool */\n      0x00\n        /* \"@openzeppelin/contracts-upgradeable/access/OwnableUpgradeable.sol\":1525:1537  _msgSender() */\n      tag_310\n        /* \"@openzeppelin/contracts-upgradeable/access/OwnableUpgradeable.sol\":1525:1535  _msgSender */\n      tag_188\n        /* \"@openzeppelin/contracts-upgradeable/access/OwnableUpgradeable.sol\":1525:1537  _msgSender() */\n      jump\t// in\n    tag_310:\n      sub(shl(0xa0, 0x01), 0x01)\n        /* \"@openzeppelin/contracts-upgradeable/access/OwnableUpgradeable.sol\":1514:1537  owner() == _msgSender() */\n      and\n        /* \"@openzeppelin/contracts-upgradeable/access/OwnableUpgradeable.sol\":1514:1521  owner() */\n      tag_311\n        /* \"@openzeppelin/contracts-upgradeable/access/OwnableUpgradeable.sol\":1514:1519  owner */\n      tag_118\n        /* \"@openzeppelin/contracts-upgradeable/access/OwnableUpgradeable.sol\":1514:1521  owner() */\n      jump\t// in\n    tag_311:\n      sub(shl(0xa0, 0x01), 0x01)\n        /* \"@openzeppelin/contracts-upgradeable/access/OwnableUpgradeable.sol\":1514:1537  owner() == _msgSender() */\n      and\n      eq\n        /* \"@openzeppelin/contracts-upgradeable/access/OwnableUpgradeable.sol\":1506:1574  require(owner() == _msgSender(), \"Ownable: caller is not the owner\") */\n      tag_312\n      jumpi\n      mload(0x40)\n      shl(0xe5, 0x461bcd)\n      dup2\n      mstore\n      0x04\n      add\n      tag_191\n      swap1\n      tag_192\n      jump\t// in\n    tag_312:\n      pop\n        /* \"contracts/helperLogic.sol\":7467:7471  farm */\n      0x74\n        /* \"contracts/helperLogic.sol\":7467:7479  farm = _farm */\n      dup1\n      sload\n      sub(shl(0xa0, 0x01), 0x01)\n      dup4\n      and\n      not(sub(shl(0xa0, 0x01), 0x01))\n      swap1\n      swap2\n      and\n      or\n      swap1\n      sstore\n      0x01\n        /* \"contracts/helperLogic.sol\":7393:7507  function setFarm(IFarm _farm) external onlyOwner returns (bool) {... */\n      swap2\n      swap1\n      pop\n      jump\t// out\n        /* \"contracts/helperLogic.sol\":6968:7102  function setStabilizer(address _address) external onlyOwner returns (bool) {... */\n    tag_171:\n        /* \"contracts/helperLogic.sol\":7037:7041  bool */\n      0x00\n        /* \"@openzeppelin/contracts-upgradeable/access/OwnableUpgradeable.sol\":1525:1537  _msgSender() */\n      tag_316\n        /* \"@openzeppelin/contracts-upgradeable/access/OwnableUpgradeable.sol\":1525:1535  _msgSender */\n      tag_188\n        /* \"@openzeppelin/contracts-upgradeable/access/OwnableUpgradeable.sol\":1525:1537  _msgSender() */\n      jump\t// in\n    tag_316:\n      sub(shl(0xa0, 0x01), 0x01)\n        /* \"@openzeppelin/contracts-upgradeable/access/OwnableUpgradeable.sol\":1514:1537  owner() == _msgSender() */\n      and\n        /* \"@openzeppelin/contracts-upgradeable/access/OwnableUpgradeable.sol\":1514:1521  owner() */\n      tag_317\n        /* \"@openzeppelin/contracts-upgradeable/access/OwnableUpgradeable.sol\":1514:1519  owner */\n      tag_118\n        /* \"@openzeppelin/contracts-upgradeable/access/OwnableUpgradeable.sol\":1514:1521  owner() */\n      jump\t// in\n    tag_317:\n      sub(shl(0xa0, 0x01), 0x01)\n        /* \"@openzeppelin/contracts-upgradeable/access/OwnableUpgradeable.sol\":1514:1537  owner() == _msgSender() */\n      and\n      eq\n        /* \"@openzeppelin/contracts-upgradeable/access/OwnableUpgradeable.sol\":1506:1574  require(owner() == _msgSender(), \"Ownable: caller is not the owner\") */\n      tag_318\n      jumpi\n      mload(0x40)\n      shl(0xe5, 0x461bcd)\n      dup2\n      mstore\n      0x04\n      add\n      tag_191\n      swap1\n      tag_192\n      jump\t// in\n    tag_318:\n      pop\n        /* \"contracts/helperLogic.sol\":7053:7063  stabilizer */\n      0x75\n        /* \"contracts/helperLogic.sol\":7053:7074  stabilizer = _address */\n      dup1\n      sload\n      sub(shl(0xa0, 0x01), 0x01)\n      dup4\n      and\n      not(sub(shl(0xa0, 0x01), 0x01))\n      swap1\n      swap2\n      and\n      or\n      swap1\n      sstore\n      0x01\n        /* \"contracts/helperLogic.sol\":6968:7102  function setStabilizer(address _address) external onlyOwner returns (bool) {... */\n      swap2\n      swap1\n      pop\n      jump\t// out\n        /* \"contracts/helperLogic.sol\":1270:1287  address public op */\n    tag_174:\n      and(sub(shl(0xa0, 0x01), 0x01), sload(0x6a))\n      dup2\n      jump\t// out\n        /* \"contracts/helperLogic.sol\":1555:1573  uint256 public pid */\n    tag_177:\n      sload(0x73)\n      dup2\n      jump\t// out\n        /* \"@openzeppelin/contracts-upgradeable/access/OwnableUpgradeable.sol\":2184:2382  function transferOwnership(address newOwner) public virtual onlyOwner {... */\n    tag_181:\n        /* \"@openzeppelin/contracts-upgradeable/access/OwnableUpgradeable.sol\":1525:1537  _msgSender() */\n      tag_322\n        /* \"@openzeppelin/contracts-upgradeable/access/OwnableUpgradeable.sol\":1525:1535  _msgSender */\n      tag_188\n        /* \"@openzeppelin/contracts-upgradeable/access/OwnableUpgradeable.sol\":1525:1537  _msgSender() */\n      jump\t// in\n    tag_322:\n      sub(shl(0xa0, 0x01), 0x01)\n        /* \"@openzeppelin/contracts-upgradeable/access/OwnableUpgradeable.sol\":1514:1537  owner() == _msgSender() */\n      and\n        /* \"@openzeppelin/contracts-upgradeable/access/OwnableUpgradeable.sol\":1514:1521  owner() */\n      tag_323\n        /* \"@openzeppelin/contracts-upgradeable/access/OwnableUpgradeable.sol\":1514:1519  owner */\n      tag_118\n        /* \"@openzeppelin/contracts-upgradeable/access/OwnableUpgradeable.sol\":1514:1521  owner() */\n      jump\t// in\n    tag_323:\n      sub(shl(0xa0, 0x01), 0x01)\n        /* \"@openzeppelin/contracts-upgradeable/access/OwnableUpgradeable.sol\":1514:1537  owner() == _msgSender() */\n      and\n      eq\n        /* \"@openzeppelin/contracts-upgradeable/access/OwnableUpgradeable.sol\":1506:1574  require(owner() == _msgSender(), \"Ownable: caller is not the owner\") */\n      tag_324\n      jumpi\n      mload(0x40)\n      shl(0xe5, 0x461bcd)\n      dup2\n      mstore\n      0x04\n      add\n      tag_191\n      swap1\n      tag_192\n      jump\t// in\n    tag_324:\n      sub(shl(0xa0, 0x01), 0x01)\n        /* \"@openzeppelin/contracts-upgradeable/access/OwnableUpgradeable.sol\":2272:2294  newOwner != address(0) */\n      dup2\n      and\n        /* \"@openzeppelin/contracts-upgradeable/access/OwnableUpgradeable.sol\":2264:2337  require(newOwner != address(0), \"Ownable: new owner is the zero address\") */\n      tag_327\n      jumpi\n      mload(0x40)\n      shl(0xe5, 0x461bcd)\n      dup2\n      mstore\n      0x04\n      add\n      tag_191\n      swap1\n      tag_329\n      jump\t// in\n    tag_327:\n        /* \"@openzeppelin/contracts-upgradeable/access/OwnableUpgradeable.sol\":2347:2375  _transferOwnership(newOwner) */\n      tag_330\n        /* \"@openzeppelin/contracts-upgradeable/access/OwnableUpgradeable.sol\":2366:2374  newOwner */\n      dup2\n        /* \"@openzeppelin/contracts-upgradeable/access/OwnableUpgradeable.sol\":2347:2365  _transferOwnership */\n      tag_241\n        /* \"@openzeppelin/contracts-upgradeable/access/OwnableUpgradeable.sol\":2347:2375  _transferOwnership(newOwner) */\n      jump\t// in\n    tag_330:\n        /* \"@openzeppelin/contracts-upgradeable/access/OwnableUpgradeable.sol\":2184:2382  function transferOwnership(address newOwner) public virtual onlyOwner {... */\n      pop\n      jump\t// out\n        /* \"contracts/helperLogic.sol\":1318:1350  IUniswapV2Router02 public Router */\n    tag_183:\n      and(sub(shl(0xa0, 0x01), 0x01), sload(0x6c))\n      dup2\n      jump\t// out\n        /* \"@openzeppelin/contracts-upgradeable/utils/ContextUpgradeable.sol\":876:972  function _msgSender() internal view virtual returns (address) {... */\n    tag_188:\n        /* \"@openzeppelin/contracts-upgradeable/utils/ContextUpgradeable.sol\":955:965  msg.sender */\n      caller\n        /* \"@openzeppelin/contracts-upgradeable/utils/ContextUpgradeable.sol\":876:972  function _msgSender() internal view virtual returns (address) {... */\n      swap1\n      jump\t// out\n        /* \"@openzeppelin/contracts-upgradeable/access/OwnableUpgradeable.sol\":988:1114  function __Ownable_init() internal initializer {... */\n    tag_214:\n        /* \"@openzeppelin/contracts-upgradeable/proxy/utils/Initializable.sol\":539:552  _initializing */\n      sload(0x00)\n      0x0100\n      swap1\n      div\n      0xff\n      and\n      dup1\n        /* \"@openzeppelin/contracts-upgradeable/proxy/utils/Initializable.sol\":539:569  _initializing || !_initialized */\n      tag_333\n      jumpi\n      pop\n        /* \"@openzeppelin/contracts-upgradeable/proxy/utils/Initializable.sol\":557:569  _initialized */\n      and(0xff, sload(0x00))\n        /* \"@openzeppelin/contracts-upgradeable/proxy/utils/Initializable.sol\":556:569  !_initialized */\n      iszero\n        /* \"@openzeppelin/contracts-upgradeable/proxy/utils/Initializable.sol\":539:569  _initializing || !_initialized */\n    tag_333:\n        /* \"@openzeppelin/contracts-upgradeable/proxy/utils/Initializable.sol\":531:620  require(_initializing || !_initialized, \"Initializable: contract is already initialized\") */\n      tag_334\n      jumpi\n      mload(0x40)\n      shl(0xe5, 0x461bcd)\n      dup2\n      mstore\n      0x04\n      add\n      tag_191\n      swap1\n      tag_210\n      jump\t// in\n    tag_334:\n        /* \"@openzeppelin/contracts-upgradeable/proxy/utils/Initializable.sol\":631:650  bool isTopLevelCall */\n      0x00\n        /* \"@openzeppelin/contracts-upgradeable/proxy/utils/Initializable.sol\":654:667  _initializing */\n      sload\n      0x0100\n      swap1\n      div\n      0xff\n      and\n        /* \"@openzeppelin/contracts-upgradeable/proxy/utils/Initializable.sol\":653:667  !_initializing */\n      iszero\n        /* \"@openzeppelin/contracts-upgradeable/proxy/utils/Initializable.sol\":677:775  if (isTopLevelCall) {... */\n      dup1\n      iszero\n      tag_336\n      jumpi\n        /* \"@openzeppelin/contracts-upgradeable/proxy/utils/Initializable.sol\":711:724  _initializing */\n      0x00\n        /* \"@openzeppelin/contracts-upgradeable/proxy/utils/Initializable.sol\":711:731  _initializing = true */\n      dup1\n      sload\n      not(0xff)\n      not(0xff00)\n      swap1\n      swap2\n      and\n      0x0100\n      or\n        /* \"@openzeppelin/contracts-upgradeable/proxy/utils/Initializable.sol\":745:764  _initialized = true */\n      and\n        /* \"@openzeppelin/contracts-upgradeable/proxy/utils/Initializable.sol\":727:731  true */\n      0x01\n        /* \"@openzeppelin/contracts-upgradeable/proxy/utils/Initializable.sol\":745:764  _initialized = true */\n      or\n      swap1\n      sstore\n        /* \"@openzeppelin/contracts-upgradeable/proxy/utils/Initializable.sol\":677:775  if (isTopLevelCall) {... */\n    tag_336:\n        /* \"@openzeppelin/contracts-upgradeable/access/OwnableUpgradeable.sol\":1045:1071  __Context_init_unchained() */\n      tag_338\n        /* \"@openzeppelin/contracts-upgradeable/access/OwnableUpgradeable.sol\":1045:1069  __Context_init_unchained */\n      tag_339\n        /* \"@openzeppelin/contracts-upgradeable/access/OwnableUpgradeable.sol\":1045:1071  __Context_init_unchained() */\n      jump\t// in\n    tag_338:\n        /* \"@openzeppelin/contracts-upgradeable/access/OwnableUpgradeable.sol\":1081:1107  __Ownable_init_unchained() */\n      tag_340\n        /* \"@openzeppelin/contracts-upgradeable/access/OwnableUpgradeable.sol\":1081:1105  __Ownable_init_unchained */\n      tag_341\n        /* \"@openzeppelin/contracts-upgradeable/access/OwnableUpgradeable.sol\":1081:1107  __Ownable_init_unchained() */\n      jump\t// in\n    tag_340:\n        /* \"@openzeppelin/contracts-upgradeable/proxy/utils/Initializable.sol\":801:815  isTopLevelCall */\n      dup1\n        /* \"@openzeppelin/contracts-upgradeable/proxy/utils/Initializable.sol\":797:863  if (isTopLevelCall) {... */\n      iszero\n      tag_330\n      jumpi\n        /* \"@openzeppelin/contracts-upgradeable/proxy/utils/Initializable.sol\":847:852  false */\n      0x00\n        /* \"@openzeppelin/contracts-upgradeable/proxy/utils/Initializable.sol\":831:852  _initializing = false */\n      dup1\n      sload\n      not(0xff00)\n      and\n      swap1\n      sstore\n        /* \"@openzeppelin/contracts-upgradeable/access/OwnableUpgradeable.sol\":988:1114  function __Ownable_init() internal initializer {... */\n      pop\n      jump\t// out\n        /* \"@openzeppelin/contracts-upgradeable/access/OwnableUpgradeable.sol\":2536:2723  function _transferOwnership(address newOwner) internal virtual {... */\n    tag_241:\n        /* \"@openzeppelin/contracts-upgradeable/access/OwnableUpgradeable.sol\":2628:2634  _owner */\n      0x33\n      dup1\n      sload\n      sub(shl(0xa0, 0x01), 0x01)\n        /* \"@openzeppelin/contracts-upgradeable/access/OwnableUpgradeable.sol\":2644:2661  _owner = newOwner */\n      dup4\n      dup2\n      and\n      not(sub(shl(0xa0, 0x01), 0x01))\n      dup4\n      and\n      dup2\n      or\n      swap1\n      swap4\n      sstore\n        /* \"@openzeppelin/contracts-upgradeable/access/OwnableUpgradeable.sol\":2676:2716  OwnershipTransferred(oldOwner, newOwner) */\n      mload(0x40)\n        /* \"@openzeppelin/contracts-upgradeable/access/OwnableUpgradeable.sol\":2628:2634  _owner */\n      swap2\n      and\n      swap2\n        /* \"@openzeppelin/contracts-upgradeable/access/OwnableUpgradeable.sol\":2644:2661  _owner = newOwner */\n      swap1\n        /* \"@openzeppelin/contracts-upgradeable/access/OwnableUpgradeable.sol\":2628:2634  _owner */\n      dup3\n      swap1\n        /* \"@openzeppelin/contracts-upgradeable/access/OwnableUpgradeable.sol\":2676:2716  OwnershipTransferred(oldOwner, newOwner) */\n      0x8be0079c531659141344cd1fd0a4f28419497f9722a3daafe3b4186f6b6457e0\n      swap1\n        /* \"@openzeppelin/contracts-upgradeable/access/OwnableUpgradeable.sol\":2609:2625  address oldOwner */\n      0x00\n      swap1\n        /* \"@openzeppelin/contracts-upgradeable/access/OwnableUpgradeable.sol\":2676:2716  OwnershipTransferred(oldOwner, newOwner) */\n      log3\n        /* \"@openzeppelin/contracts-upgradeable/access/OwnableUpgradeable.sol\":2536:2723  function _transferOwnership(address newOwner) internal virtual {... */\n      pop\n      pop\n      jump\t// out\n        /* \"@openzeppelin/contracts-upgradeable/token/ERC20/utils/SafeERC20Upgradeable.sol\":745:961  function safeTransfer(... */\n    tag_250:\n        /* \"@openzeppelin/contracts-upgradeable/token/ERC20/utils/SafeERC20Upgradeable.sol\":868:954  _callOptionalReturn(token, abi.encodeWithSelector(token.transfer.selector, to, value)) */\n      tag_345\n        /* \"@openzeppelin/contracts-upgradeable/token/ERC20/utils/SafeERC20Upgradeable.sol\":888:893  token */\n      dup4\n        /* \"@openzeppelin/contracts-upgradeable/token/ERC20/utils/SafeERC20Upgradeable.sol\":918:941  token.transfer.selector */\n      shl(0xe0, 0xa9059cbb)\n        /* \"@openzeppelin/contracts-upgradeable/token/ERC20/utils/SafeERC20Upgradeable.sol\":943:945  to */\n      dup5\n        /* \"@openzeppelin/contracts-upgradeable/token/ERC20/utils/SafeERC20Upgradeable.sol\":947:952  value */\n      dup5\n        /* \"@openzeppelin/contracts-upgradeable/token/ERC20/utils/SafeERC20Upgradeable.sol\":895:953  abi.encodeWithSelector(token.transfer.selector, to, value) */\n      add(0x24, mload(0x40))\n      tag_346\n      swap3\n      swap2\n      swap1\n      tag_347\n      jump\t// in\n    tag_346:\n      0x40\n      dup1\n      mload\n      not(0x1f)\n      dup2\n      dup5\n      sub\n      add\n      dup2\n      mstore\n      swap2\n      swap1\n      mstore\n      0x20\n      dup2\n      add\n      dup1\n      mload\n      sub(shl(0xe0, 0x01), 0x01)\n      and\n      not(sub(shl(0xe0, 0x01), 0x01))\n      swap1\n      swap4\n      and\n      swap3\n      swap1\n      swap3\n      or\n      swap1\n      swap2\n      mstore\n        /* \"@openzeppelin/contracts-upgradeable/token/ERC20/utils/SafeERC20Upgradeable.sol\":868:887  _callOptionalReturn */\n      tag_348\n        /* \"@openzeppelin/contracts-upgradeable/token/ERC20/utils/SafeERC20Upgradeable.sol\":868:954  _callOptionalReturn(token, abi.encodeWithSelector(token.transfer.selector, to, value)) */\n      jump\t// in\n    tag_345:\n        /* \"@openzeppelin/contracts-upgradeable/token/ERC20/utils/SafeERC20Upgradeable.sol\":745:961  function safeTransfer(... */\n      pop\n      pop\n      pop\n      jump\t// out\n        /* \"@openzeppelin/contracts-upgradeable/utils/math/SafeMathUpgradeable.sol\":3462:3558  function mul(uint256 a, uint256 b) internal pure returns (uint256) {... */\n    tag_282:\n        /* \"@openzeppelin/contracts-upgradeable/utils/math/SafeMathUpgradeable.sol\":3520:3527  uint256 */\n      0x00\n        /* \"@openzeppelin/contracts-upgradeable/utils/math/SafeMathUpgradeable.sol\":3546:3551  a * b */\n      tag_350\n        /* \"@openzeppelin/contracts-upgradeable/utils/math/SafeMathUpgradeable.sol\":3550:3551  b */\n      dup3\n        /* \"@openzeppelin/contracts-upgradeable/utils/math/SafeMathUpgradeable.sol\":3546:3547  a */\n      dup5\n        /* \"@openzeppelin/contracts-upgradeable/utils/math/SafeMathUpgradeable.sol\":3546:3551  a * b */\n      tag_351\n      jump\t// in\n    tag_350:\n        /* \"@openzeppelin/contracts-upgradeable/utils/math/SafeMathUpgradeable.sol\":3539:3551  return a * b */\n      swap4\n        /* \"@openzeppelin/contracts-upgradeable/utils/math/SafeMathUpgradeable.sol\":3462:3558  function mul(uint256 a, uint256 b) internal pure returns (uint256) {... */\n      swap3\n      pop\n      pop\n      pop\n      jump\t// out\n        /* \"@openzeppelin/contracts-upgradeable/utils/math/SafeMathUpgradeable.sol\":3847:3943  function div(uint256 a, uint256 b) internal pure returns (uint256) {... */\n    tag_283:\n        /* \"@openzeppelin/contracts-upgradeable/utils/math/SafeMathUpgradeable.sol\":3905:3912  uint256 */\n      0x00\n        /* \"@openzeppelin/contracts-upgradeable/utils/math/SafeMathUpgradeable.sol\":3931:3936  a / b */\n      tag_350\n        /* \"@openzeppelin/contracts-upgradeable/utils/math/SafeMathUpgradeable.sol\":3935:3936  b */\n      dup3\n        /* \"@openzeppelin/contracts-upgradeable/utils/math/SafeMathUpgradeable.sol\":3931:3932  a */\n      dup5\n        /* \"@openzeppelin/contracts-upgradeable/utils/math/SafeMathUpgradeable.sol\":3931:3936  a / b */\n      tag_354\n      jump\t// in\n        /* \"@openzeppelin/contracts-upgradeable/utils/math/SafeMathUpgradeable.sol\":3119:3215  function sub(uint256 a, uint256 b) internal pure returns (uint256) {... */\n    tag_288:\n        /* \"@openzeppelin/contracts-upgradeable/utils/math/SafeMathUpgradeable.sol\":3177:3184  uint256 */\n      0x00\n        /* \"@openzeppelin/contracts-upgradeable/utils/math/SafeMathUpgradeable.sol\":3203:3208  a - b */\n      tag_350\n        /* \"@openzeppelin/contracts-upgradeable/utils/math/SafeMathUpgradeable.sol\":3207:3208  b */\n      dup3\n        /* \"@openzeppelin/contracts-upgradeable/utils/math/SafeMathUpgradeable.sol\":3203:3204  a */\n      dup5\n        /* \"@openzeppelin/contracts-upgradeable/utils/math/SafeMathUpgradeable.sol\":3203:3208  a - b */\n      tag_357\n      jump\t// in\n        /* \"contracts/helperLogic.sol\":3298:4187  function buySea(uint256 uscAmt) internal returns (uint256) {... */\n    tag_290:\n        /* \"contracts/helperLogic.sol\":3395:3402  Factory */\n      sload(0x6d)\n        /* \"contracts/helperLogic.sol\":3419:3422  sea */\n      sload(0x68)\n        /* \"contracts/helperLogic.sol\":3433:3436  usc */\n      sload(0x66)\n        /* \"contracts/helperLogic.sol\":3395:3438  Factory.getPair(address(sea), address(usc)) */\n      mload(0x40)\n      shl(0xe0, 0xe6a43905)\n      dup2\n      mstore\n        /* \"contracts/helperLogic.sol\":3348:3355  uint256 */\n      0x00\n      swap4\n      dup5\n      swap4\n      sub(shl(0xa0, 0x01), 0x01)\n        /* \"contracts/helperLogic.sol\":3395:3402  Factory */\n      swap2\n      dup3\n      and\n      swap4\n        /* \"contracts/helperLogic.sol\":3395:3410  Factory.getPair */\n      0xe6a43905\n      swap4\n        /* \"contracts/helperLogic.sol\":3395:3438  Factory.getPair(address(sea), address(usc)) */\n      tag_359\n      swap4\n        /* \"contracts/helperLogic.sol\":3419:3422  sea */\n      swap3\n      dup4\n      and\n      swap3\n        /* \"contracts/helperLogic.sol\":3433:3436  usc */\n      swap1\n      swap2\n      and\n      swap1\n        /* \"contracts/helperLogic.sol\":3395:3438  Factory.getPair(address(sea), address(usc)) */\n      0x04\n      add\n      tag_360\n      jump\t// in\n    tag_359:\n      0x20\n      mload(0x40)\n      dup1\n      dup4\n      sub\n      dup2\n      dup7\n      dup1\n      extcodesize\n      iszero\n      dup1\n      iszero\n      tag_361\n      jumpi\n      0x00\n      dup1\n      revert\n    tag_361:\n      pop\n      gas\n      staticcall\n      iszero\n      dup1\n      iszero\n      tag_363\n      jumpi\n      returndatasize\n      0x00\n      dup1\n      returndatacopy\n      revert(0x00, returndatasize)\n    tag_363:\n      pop\n      pop\n      pop\n      pop\n      mload(0x40)\n      returndatasize\n      not(0x1f)\n      0x1f\n      dup3\n      add\n      and\n      dup3\n      add\n      dup1\n      0x40\n      mstore\n      pop\n      dup2\n      add\n      swap1\n      tag_364\n      swap2\n      swap1\n      tag_365\n      jump\t// in\n    tag_364:\n        /* \"contracts/helperLogic.sol\":3367:3438  address sea_usc_lpAddress = Factory.getPair(address(sea), address(usc)) */\n      swap1\n      pop\n        /* \"contracts/helperLogic.sol\":3449:3465  uint256 reserve0 */\n      0x00\n        /* \"contracts/helperLogic.sol\":3467:3483  uint256 reserve1 */\n      dup1\n        /* \"contracts/helperLogic.sol\":3517:3534  sea_usc_lpAddress */\n      dup3\n      sub(shl(0xa0, 0x01), 0x01)\n        /* \"contracts/helperLogic.sol\":3489:3556  IUniswapV2Pair(... */\n      and\n      0x0902f1ac\n        /* \"contracts/helperLogic.sol\":3489:3558  IUniswapV2Pair(... */\n      mload(0x40)\n      dup2\n      0xffffffff\n      and\n      0xe0\n      shl\n      dup2\n      mstore\n      0x04\n      add\n      0x60\n      mload(0x40)\n      dup1\n      dup4\n      sub\n      dup2\n      dup7\n      dup1\n      extcodesize\n      iszero\n      dup1\n      iszero\n      tag_366\n      jumpi\n      0x00\n      dup1\n      revert\n    tag_366:\n      pop\n      gas\n      staticcall\n      iszero\n      dup1\n      iszero\n      tag_368\n      jumpi\n      returndatasize\n      0x00\n      dup1\n      returndatacopy\n      revert(0x00, returndatasize)\n    tag_368:\n      pop\n      pop\n      pop\n      pop\n      mload(0x40)\n      returndatasize\n      not(0x1f)\n      0x1f\n      dup3\n      add\n      and\n      dup3\n      add\n      dup1\n      0x40\n      mstore\n      pop\n      dup2\n      add\n      swap1\n      tag_369\n      swap2\n      swap1\n      tag_370\n      jump\t// in\n    tag_369:\n        /* \"contracts/helperLogic.sol\":3448:3558  (uint256 reserve0, uint256 reserve1, ) = IUniswapV2Pair(... */\n      pop\n      sub(shl(0x70, 0x01), 0x01)\n      and\n      swap2\n      pop\n      sub(shl(0x70, 0x01), 0x01)\n      and\n      swap2\n      pop\n        /* \"contracts/helperLogic.sol\":3568:3582  address token0 */\n      0x00\n        /* \"contracts/helperLogic.sol\":3600:3617  sea_usc_lpAddress */\n      dup4\n      sub(shl(0xa0, 0x01), 0x01)\n        /* \"contracts/helperLogic.sol\":3585:3625  IUniswapV2Pair(sea_usc_lpAddress).token0 */\n      and\n      0x0dfe1681\n        /* \"contracts/helperLogic.sol\":3585:3627  IUniswapV2Pair(sea_usc_lpAddress).token0() */\n      mload(0x40)\n      dup2\n      0xffffffff\n      and\n      0xe0\n      shl\n      dup2\n      mstore\n      0x04\n      add\n      0x20\n      mload(0x40)\n      dup1\n      dup4\n      sub\n      dup2\n      dup7\n      dup1\n      extcodesize\n      iszero\n      dup1\n      iszero\n      tag_371\n      jumpi\n      0x00\n      dup1\n      revert\n    tag_371:\n      pop\n      gas\n      staticcall\n      iszero\n      dup1\n      iszero\n      tag_373\n      jumpi\n      returndatasize\n      0x00\n      dup1\n      returndatacopy\n      revert(0x00, returndatasize)\n    tag_373:\n      pop\n      pop\n      pop\n      pop\n      mload(0x40)\n      returndatasize\n      not(0x1f)\n      0x1f\n      dup3\n      add\n      and\n      dup3\n      add\n      dup1\n      0x40\n      mstore\n      pop\n      dup2\n      add\n      swap1\n      tag_374\n      swap2\n      swap1\n      tag_365\n      jump\t// in\n    tag_374:\n        /* \"contracts/helperLogic.sol\":3697:3700  usc */\n      sload(0x66)\n        /* \"contracts/helperLogic.sol\":3568:3627  address token0 = IUniswapV2Pair(sea_usc_lpAddress).token0() */\n      swap1\n      swap2\n      pop\n        /* \"contracts/helperLogic.sol\":3638:3655  uint256 reserveIn */\n      0x00\n      swap1\n      dup2\n      swap1\n      sub(shl(0xa0, 0x01), 0x01)\n        /* \"contracts/helperLogic.sol\":3679:3701  token0 == address(usc) */\n      dup1\n      dup6\n      and\n        /* \"contracts/helperLogic.sol\":3697:3700  usc */\n      swap2\n      and\n        /* \"contracts/helperLogic.sol\":3679:3701  token0 == address(usc) */\n      eq\n        /* \"contracts/helperLogic.sol\":3679:3771  token0 == address(usc)... */\n      tag_375\n      jumpi\n        /* \"contracts/helperLogic.sol\":3752:3760  reserve1 */\n      dup4\n        /* \"contracts/helperLogic.sol\":3762:3770  reserve0 */\n      dup6\n        /* \"contracts/helperLogic.sol\":3679:3771  token0 == address(usc)... */\n      jump(tag_376)\n    tag_375:\n        /* \"contracts/helperLogic.sol\":3717:3725  reserve0 */\n      dup5\n        /* \"contracts/helperLogic.sol\":3727:3735  reserve1 */\n      dup5\n        /* \"contracts/helperLogic.sol\":3679:3771  token0 == address(usc)... */\n    tag_376:\n        /* \"contracts/helperLogic.sol\":3637:3771  (uint256 reserveIn, uint256 reserveOut) = token0 == address(usc)... */\n      swap2\n      pop\n      swap2\n      pop\n        /* \"contracts/helperLogic.sol\":3781:3798  uint256 amountOut */\n      0x00\n        /* \"contracts/helperLogic.sol\":3801:3844  getAmountOut(uscAmt, reserveIn, reserveOut) */\n      tag_377\n        /* \"contracts/helperLogic.sol\":3814:3820  uscAmt */\n      dup10\n        /* \"contracts/helperLogic.sol\":3822:3831  reserveIn */\n      dup5\n        /* \"contracts/helperLogic.sol\":3833:3843  reserveOut */\n      dup5\n        /* \"contracts/helperLogic.sol\":3801:3813  getAmountOut */\n      tag_378\n        /* \"contracts/helperLogic.sol\":3801:3844  getAmountOut(uscAmt, reserveIn, reserveOut) */\n      jump\t// in\n    tag_377:\n        /* \"contracts/helperLogic.sol\":3915:3918  usc */\n      sload(0x66)\n        /* \"contracts/helperLogic.sol\":3781:3844  uint256 amountOut = getAmountOut(uscAmt, reserveIn, reserveOut) */\n      swap1\n      swap2\n      pop\n        /* \"contracts/helperLogic.sol\":3855:3873  uint256 amount0Out */\n      0x00\n      swap1\n      dup2\n      swap1\n      sub(shl(0xa0, 0x01), 0x01)\n        /* \"contracts/helperLogic.sol\":3897:3919  token0 == address(usc) */\n      dup8\n      dup2\n      and\n        /* \"contracts/helperLogic.sol\":3915:3918  usc */\n      swap2\n      and\n        /* \"contracts/helperLogic.sol\":3897:3919  token0 == address(usc) */\n      eq\n        /* \"contracts/helperLogic.sol\":3897:3995  token0 == address(usc)... */\n      tag_379\n      jumpi\n        /* \"contracts/helperLogic.sol\":3973:3982  amountOut */\n      dup3\n        /* \"contracts/helperLogic.sol\":3992:3993  0 */\n      0x00\n        /* \"contracts/helperLogic.sol\":3897:3995  token0 == address(usc)... */\n      jump(tag_380)\n    tag_379:\n        /* \"contracts/helperLogic.sol\":3943:3944  0 */\n      0x00\n        /* \"contracts/helperLogic.sol\":3947:3956  amountOut */\n      dup4\n        /* \"contracts/helperLogic.sol\":3897:3995  token0 == address(usc)... */\n    tag_380:\n        /* \"contracts/helperLogic.sol\":4132:4144  new bytes(0) */\n      0x40\n      dup1\n      mload\n        /* \"contracts/helperLogic.sol\":4142:4143  0 */\n      0x00\n        /* \"contracts/helperLogic.sol\":4132:4144  new bytes(0) */\n      dup2\n      mstore\n      0x20\n      dup2\n      add\n      swap2\n      dup3\n      swap1\n      mstore\n      shl(0xe0, 0x022c0d9f)\n        /* \"contracts/helperLogic.sol\":4005:4154  IUniswapV2Pair(sea_usc_lpAddress).swap(... */\n      swap1\n      swap2\n      mstore\n        /* \"contracts/helperLogic.sol\":3854:3995  (uint256 amount0Out, uint256 amount1Out) = token0 == address(usc)... */\n      swap2\n      swap4\n      pop\n      swap2\n      pop\n      sub(shl(0xa0, 0x01), 0x01)\n        /* \"contracts/helperLogic.sol\":4005:4043  IUniswapV2Pair(sea_usc_lpAddress).swap */\n      dup11\n      and\n      swap1\n      0x022c0d9f\n      swap1\n        /* \"contracts/helperLogic.sol\":4005:4154  IUniswapV2Pair(sea_usc_lpAddress).swap(... */\n      tag_383\n      swap1\n        /* \"contracts/helperLogic.sol\":3854:3995  (uint256 amount0Out, uint256 amount1Out) = token0 == address(usc)... */\n      dup6\n      swap1\n      dup6\n      swap1\n        /* \"contracts/helperLogic.sol\":4113:4117  this */\n      address\n      swap1\n        /* \"contracts/helperLogic.sol\":4005:4154  IUniswapV2Pair(sea_usc_lpAddress).swap(... */\n      0x24\n      dup2\n      add\n      tag_384\n      jump\t// in\n    tag_383:\n      0x00\n      mload(0x40)\n      dup1\n      dup4\n      sub\n      dup2\n      0x00\n      dup8\n      dup1\n      extcodesize\n      iszero\n      dup1\n      iszero\n      tag_385\n      jumpi\n      0x00\n      dup1\n      revert\n    tag_385:\n      pop\n      gas\n      call\n      iszero\n      dup1\n      iszero\n      tag_387\n      jumpi\n      returndatasize\n      0x00\n      dup1\n      returndatacopy\n      revert(0x00, returndatasize)\n    tag_387:\n      pop\n        /* \"contracts/helperLogic.sol\":4171:4180  amountOut */\n      swap5\n      swap14\n        /* \"contracts/helperLogic.sol\":3298:4187  function buySea(uint256 uscAmt) internal returns (uint256) {... */\n      swap13\n      pop\n      pop\n      pop\n      pop\n      pop\n      pop\n      pop\n      pop\n      pop\n      pop\n      pop\n      pop\n      pop\n      jump\t// out\n        /* \"contracts/helperLogic.sol\":4897:5805  function adjustFarm() internal {... */\n    tag_296:\n        /* \"contracts/helperLogic.sol\":4960:4967  Factory */\n      sload(0x6d)\n        /* \"contracts/helperLogic.sol\":4984:4988  usdc */\n      sload(0x67)\n        /* \"contracts/helperLogic.sol\":4999:5002  usc */\n      sload(0x66)\n        /* \"contracts/helperLogic.sol\":4960:5004  Factory.getPair(address(usdc), address(usc)) */\n      mload(0x40)\n      shl(0xe0, 0xe6a43905)\n      dup2\n      mstore\n        /* \"contracts/helperLogic.sol\":4938:4957  address pairAddress */\n      0x00\n      swap4\n      sub(shl(0xa0, 0x01), 0x01)\n        /* \"contracts/helperLogic.sol\":4960:4967  Factory */\n      swap1\n      dup2\n      and\n      swap4\n        /* \"contracts/helperLogic.sol\":4960:4975  Factory.getPair */\n      0xe6a43905\n      swap4\n        /* \"contracts/helperLogic.sol\":4960:5004  Factory.getPair(address(usdc), address(usc)) */\n      tag_389\n      swap4\n        /* \"contracts/helperLogic.sol\":4984:4988  usdc */\n      swap2\n      dup4\n      and\n      swap3\n        /* \"contracts/helperLogic.sol\":4999:5002  usc */\n      and\n      swap1\n        /* \"contracts/helperLogic.sol\":4960:5004  Factory.getPair(address(usdc), address(usc)) */\n      0x04\n      add\n      tag_360\n      jump\t// in\n    tag_389:\n      0x20\n      mload(0x40)\n      dup1\n      dup4\n      sub\n      dup2\n      dup7\n      dup1\n      extcodesize\n      iszero\n      dup1\n      iszero\n      tag_390\n      jumpi\n      0x00\n      dup1\n      revert\n    tag_390:\n      pop\n      gas\n      staticcall\n      iszero\n      dup1\n      iszero\n      tag_392\n      jumpi\n      returndatasize\n      0x00\n      dup1\n      returndatacopy\n      revert(0x00, returndatasize)\n    tag_392:\n      pop\n      pop\n      pop\n      pop\n      mload(0x40)\n      returndatasize\n      not(0x1f)\n      0x1f\n      dup3\n      add\n      and\n      dup3\n      add\n      dup1\n      0x40\n      mstore\n      pop\n      dup2\n      add\n      swap1\n      tag_393\n      swap2\n      swap1\n      tag_365\n      jump\t// in\n    tag_393:\n        /* \"contracts/helperLogic.sol\":5037:5040  usc */\n      sload(0x66)\n        /* \"contracts/helperLogic.sol\":5037:5063  usc.balanceOf(pairAddress) */\n      mload(0x40)\n      shl(0xe0, 0x70a08231)\n      dup2\n      mstore\n        /* \"contracts/helperLogic.sol\":4938:5004  address pairAddress = Factory.getPair(address(usdc), address(usc)) */\n      swap2\n      swap3\n      pop\n        /* \"contracts/helperLogic.sol\":5014:5034  uint256 uscBalanceOf */\n      0x00\n      swap2\n      sub(shl(0xa0, 0x01), 0x01)\n        /* \"contracts/helperLogic.sol\":5037:5040  usc */\n      swap1\n      swap2\n      and\n      swap1\n        /* \"contracts/helperLogic.sol\":5037:5050  usc.balanceOf */\n      0x70a08231\n      swap1\n        /* \"contracts/helperLogic.sol\":5037:5063  usc.balanceOf(pairAddress) */\n      tag_394\n      swap1\n        /* \"contracts/helperLogic.sol\":4938:5004  address pairAddress = Factory.getPair(address(usdc), address(usc)) */\n      dup6\n      swap1\n        /* \"contracts/helperLogic.sol\":5037:5063  usc.balanceOf(pairAddress) */\n      0x04\n      add\n      tag_116\n      jump\t// in\n    tag_394:\n      0x20\n      mload(0x40)\n      dup1\n      dup4\n      sub\n      dup2\n      dup7\n      dup1\n      extcodesize\n      iszero\n      dup1\n      iszero\n      tag_395\n      jumpi\n      0x00\n      dup1\n      revert\n    tag_395:\n      pop\n      gas\n      staticcall\n      iszero\n      dup1\n      iszero\n      tag_397\n      jumpi\n      returndatasize\n      0x00\n      dup1\n      returndatacopy\n      revert(0x00, returndatasize)\n    tag_397:\n      pop\n      pop\n      pop\n      pop\n      mload(0x40)\n      returndatasize\n      not(0x1f)\n      0x1f\n      dup3\n      add\n      and\n      dup3\n      add\n      dup1\n      0x40\n      mstore\n      pop\n      dup2\n      add\n      swap1\n      tag_398\n      swap2\n      swap1\n      tag_279\n      jump\t// in\n    tag_398:\n        /* \"contracts/helperLogic.sol\":5097:5101  usdc */\n      sload(0x67)\n        /* \"contracts/helperLogic.sol\":5097:5124  usdc.balanceOf(pairAddress) */\n      mload(0x40)\n      shl(0xe0, 0x70a08231)\n      dup2\n      mstore\n        /* \"contracts/helperLogic.sol\":5014:5063  uint256 uscBalanceOf = usc.balanceOf(pairAddress) */\n      swap2\n      swap3\n      pop\n        /* \"contracts/helperLogic.sol\":5073:5094  uint256 usdcBalanceOf */\n      0x00\n      swap2\n      sub(shl(0xa0, 0x01), 0x01)\n        /* \"contracts/helperLogic.sol\":5097:5101  usdc */\n      swap1\n      swap2\n      and\n      swap1\n        /* \"contracts/helperLogic.sol\":5097:5111  usdc.balanceOf */\n      0x70a08231\n      swap1\n        /* \"contracts/helperLogic.sol\":5097:5124  usdc.balanceOf(pairAddress) */\n      tag_399\n      swap1\n        /* \"contracts/helperLogic.sol\":5112:5123  pairAddress */\n      dup7\n      swap1\n        /* \"contracts/helperLogic.sol\":5097:5124  usdc.balanceOf(pairAddress) */\n      0x04\n      add\n      tag_116\n      jump\t// in\n    tag_399:\n      0x20\n      mload(0x40)\n      dup1\n      dup4\n      sub\n      dup2\n      dup7\n      dup1\n      extcodesize\n      iszero\n      dup1\n      iszero\n      tag_400\n      jumpi\n      0x00\n      dup1\n      revert\n    tag_400:\n      pop\n      gas\n      staticcall\n      iszero\n      dup1\n      iszero\n      tag_402\n      jumpi\n      returndatasize\n      0x00\n      dup1\n      returndatacopy\n      revert(0x00, returndatasize)\n    tag_402:\n      pop\n      pop\n      pop\n      pop\n      mload(0x40)\n      returndatasize\n      not(0x1f)\n      0x1f\n      dup3\n      add\n      and\n      dup3\n      add\n      dup1\n      0x40\n      mstore\n      pop\n      dup2\n      add\n      swap1\n      tag_403\n      swap2\n      swap1\n      tag_279\n      jump\t// in\n    tag_403:\n        /* \"contracts/helperLogic.sol\":5073:5124  uint256 usdcBalanceOf = usdc.balanceOf(pairAddress) */\n      swap1\n      pop\n        /* \"contracts/helperLogic.sol\":5148:5152  1e18 */\n      0x0de0b6b3a7640000\n        /* \"contracts/helperLogic.sol\":5134:5145  uint256 e18 */\n      0x00\n        /* \"contracts/helperLogic.sol\":5181:5221  usdcBalanceOf.mul(e18).div(uscBalanceOf) */\n      tag_404\n        /* \"contracts/helperLogic.sol\":5208:5220  uscBalanceOf */\n      dup5\n        /* \"contracts/helperLogic.sol\":5181:5203  usdcBalanceOf.mul(e18) */\n      tag_281\n        /* \"contracts/helperLogic.sol\":5073:5124  uint256 usdcBalanceOf = usdc.balanceOf(pairAddress) */\n      dup6\n        /* \"contracts/helperLogic.sol\":5148:5152  1e18 */\n      dup6\n        /* \"contracts/helperLogic.sol\":5181:5198  usdcBalanceOf.mul */\n      tag_282\n        /* \"contracts/helperLogic.sol\":5181:5203  usdcBalanceOf.mul(e18) */\n      jump\t// in\n        /* \"contracts/helperLogic.sol\":5181:5221  usdcBalanceOf.mul(e18).div(uscBalanceOf) */\n    tag_404:\n        /* \"contracts/helperLogic.sol\":5162:5221  uint256 uscPrice = usdcBalanceOf.mul(e18).div(uscBalanceOf) */\n      swap1\n      pop\n        /* \"contracts/helperLogic.sol\":5231:5260  uint256 USDC_USC_LP_farmPoint */\n      0x00\n        /* \"contracts/helperLogic.sol\":5270:5287  uint256 diffPoint */\n      dup1\n        /* \"contracts/helperLogic.sol\":5312:5316  1e18 */\n      0x0de0b6b3a7640000\n        /* \"contracts/helperLogic.sol\":5301:5309  uscPrice */\n      dup4\n        /* \"contracts/helperLogic.sol\":5301:5316  uscPrice > 1e18 */\n      gt\n        /* \"contracts/helperLogic.sol\":5297:5743  if (uscPrice > 1e18) {... */\n      iszero\n      tag_406\n      jumpi\n        /* \"contracts/helperLogic.sol\":5365:5395  (uscPrice.sub(1e18)).div(1e14) */\n      tag_407\n        /* \"contracts/helperLogic.sol\":5390:5394  1e14 */\n      0x5af3107a4000\n        /* \"contracts/helperLogic.sol\":5366:5384  uscPrice.sub(1e18) */\n      tag_281\n        /* \"contracts/helperLogic.sol\":5366:5374  uscPrice */\n      dup6\n        /* \"contracts/helperLogic.sol\":5379:5383  1e18 */\n      0x0de0b6b3a7640000\n        /* \"contracts/helperLogic.sol\":5366:5378  uscPrice.sub */\n      tag_288\n        /* \"contracts/helperLogic.sol\":5366:5384  uscPrice.sub(1e18) */\n      jump\t// in\n        /* \"contracts/helperLogic.sol\":5365:5395  (uscPrice.sub(1e18)).div(1e14) */\n    tag_407:\n        /* \"contracts/helperLogic.sol\":5353:5395  diffPoint = (uscPrice.sub(1e18)).div(1e14) */\n      swap1\n      pop\n        /* \"contracts/helperLogic.sol\":5425:5434  basePoint */\n      sload(0x72)\n        /* \"contracts/helperLogic.sol\":5413:5422  diffPoint */\n      dup2\n        /* \"contracts/helperLogic.sol\":5413:5434  diffPoint > basePoint */\n      gt\n        /* \"contracts/helperLogic.sol\":5409:5581  if (diffPoint > basePoint) {... */\n      iszero\n      tag_409\n      jumpi\n        /* \"contracts/helperLogic.sol\":5478:5479  0 */\n      0x00\n        /* \"contracts/helperLogic.sol\":5454:5479  USDC_USC_LP_farmPoint = 0 */\n      swap2\n      pop\n        /* \"contracts/helperLogic.sol\":5409:5581  if (diffPoint > basePoint) {... */\n      jump(tag_410)\n    tag_409:\n        /* \"contracts/helperLogic.sol\":5542:5551  basePoint */\n      sload(0x72)\n        /* \"contracts/helperLogic.sol\":5542:5566  basePoint.sub(diffPoint) */\n      tag_411\n      swap1\n        /* \"contracts/helperLogic.sol\":5556:5565  diffPoint */\n      dup3\n        /* \"contracts/helperLogic.sol\":5542:5555  basePoint.sub */\n      tag_288\n        /* \"contracts/helperLogic.sol\":5542:5566  basePoint.sub(diffPoint) */\n      jump\t// in\n    tag_411:\n        /* \"contracts/helperLogic.sol\":5518:5566  USDC_USC_LP_farmPoint = basePoint.sub(diffPoint) */\n      swap2\n      pop\n        /* \"contracts/helperLogic.sol\":5409:5581  if (diffPoint > basePoint) {... */\n    tag_410:\n        /* \"contracts/helperLogic.sol\":5297:5743  if (uscPrice > 1e18) {... */\n      jump(tag_412)\n    tag_406:\n        /* \"contracts/helperLogic.sol\":5643:5670  (1e18 - uscPrice).div(1e14) */\n      tag_413\n        /* \"contracts/helperLogic.sol\":5665:5669  1e14 */\n      0x5af3107a4000\n        /* \"contracts/helperLogic.sol\":5644:5659  1e18 - uscPrice */\n      tag_281\n        /* \"contracts/helperLogic.sol\":5651:5659  uscPrice */\n      dup6\n        /* \"contracts/helperLogic.sol\":5644:5648  1e18 */\n      0x0de0b6b3a7640000\n        /* \"contracts/helperLogic.sol\":5644:5659  1e18 - uscPrice */\n      tag_357\n      jump\t// in\n        /* \"contracts/helperLogic.sol\":5643:5670  (1e18 - uscPrice).div(1e14) */\n    tag_413:\n        /* \"contracts/helperLogic.sol\":5708:5717  basePoint */\n      sload(0x72)\n        /* \"contracts/helperLogic.sol\":5631:5670  diffPoint = (1e18 - uscPrice).div(1e14) */\n      swap1\n      swap2\n      pop\n        /* \"contracts/helperLogic.sol\":5708:5732  basePoint.add(diffPoint) */\n      tag_415\n      swap1\n        /* \"contracts/helperLogic.sol\":5631:5670  diffPoint = (1e18 - uscPrice).div(1e14) */\n      dup3\n        /* \"contracts/helperLogic.sol\":5708:5721  basePoint.add */\n      tag_416\n        /* \"contracts/helperLogic.sol\":5708:5732  basePoint.add(diffPoint) */\n      jump\t// in\n    tag_415:\n        /* \"contracts/helperLogic.sol\":5684:5732  USDC_USC_LP_farmPoint = basePoint.add(diffPoint) */\n      swap2\n      pop\n        /* \"contracts/helperLogic.sol\":5297:5743  if (uscPrice > 1e18) {... */\n    tag_412:\n        /* \"contracts/helperLogic.sol\":5752:5756  farm */\n      sload(0x74)\n        /* \"contracts/helperLogic.sol\":5765:5768  pid */\n      sload(0x73)\n        /* \"contracts/helperLogic.sol\":5752:5798  farm.setPool(pid, USDC_USC_LP_farmPoint, true) */\n      mload(0x40)\n      shl(0xe1, 0x236535f5)\n      dup2\n      mstore\n      sub(shl(0xa0, 0x01), 0x01)\n        /* \"contracts/helperLogic.sol\":5752:5756  farm */\n      swap1\n      swap3\n      and\n      swap2\n        /* \"contracts/helperLogic.sol\":5752:5764  farm.setPool */\n      0x46ca6bea\n      swap2\n        /* \"contracts/helperLogic.sol\":5752:5798  farm.setPool(pid, USDC_USC_LP_farmPoint, true) */\n      tag_417\n      swap2\n        /* \"contracts/helperLogic.sol\":5770:5791  USDC_USC_LP_farmPoint */\n      dup7\n      swap1\n        /* \"contracts/helperLogic.sol\":5752:5756  farm */\n      0x01\n      swap1\n        /* \"contracts/helperLogic.sol\":5752:5798  farm.setPool(pid, USDC_USC_LP_farmPoint, true) */\n      0x04\n      add\n      tag_418\n      jump\t// in\n    tag_417:\n      0x00\n      mload(0x40)\n      dup1\n      dup4\n      sub\n      dup2\n      0x00\n      dup8\n      dup1\n      extcodesize\n      iszero\n      dup1\n      iszero\n      tag_419\n      jumpi\n      0x00\n      dup1\n      revert\n    tag_419:\n      pop\n      gas\n      call\n      iszero\n      dup1\n      iszero\n      tag_421\n      jumpi\n      returndatasize\n      0x00\n      dup1\n      returndatacopy\n      revert(0x00, returndatasize)\n    tag_421:\n      pop\n      pop\n      pop\n      pop\n        /* \"contracts/helperLogic.sol\":4897:5805  function adjustFarm() internal {... */\n      pop\n      pop\n      pop\n      pop\n      pop\n      pop\n      pop\n      jump\t// out\n        /* \"@openzeppelin/contracts-upgradeable/utils/ContextUpgradeable.sol\":807:871  function __Context_init_unchained() internal initializer {... */\n    tag_339:\n        /* \"@openzeppelin/contracts-upgradeable/proxy/utils/Initializable.sol\":539:552  _initializing */\n      sload(0x00)\n      0x0100\n      swap1\n      div\n      0xff\n      and\n      dup1\n        /* \"@openzeppelin/contracts-upgradeable/proxy/utils/Initializable.sol\":539:569  _initializing || !_initialized */\n      tag_423\n      jumpi\n      pop\n        /* \"@openzeppelin/contracts-upgradeable/proxy/utils/Initializable.sol\":557:569  _initialized */\n      and(0xff, sload(0x00))\n        /* \"@openzeppelin/contracts-upgradeable/proxy/utils/Initializable.sol\":556:569  !_initialized */\n      iszero\n        /* \"@openzeppelin/contracts-upgradeable/proxy/utils/Initializable.sol\":539:569  _initializing || !_initialized */\n    tag_423:\n        /* \"@openzeppelin/contracts-upgradeable/proxy/utils/Initializable.sol\":531:620  require(_initializing || !_initialized, \"Initializable: contract is already initialized\") */\n      tag_424\n      jumpi\n      mload(0x40)\n      shl(0xe5, 0x461bcd)\n      dup2\n      mstore\n      0x04\n      add\n      tag_191\n      swap1\n      tag_210\n      jump\t// in\n    tag_424:\n        /* \"@openzeppelin/contracts-upgradeable/proxy/utils/Initializable.sol\":631:650  bool isTopLevelCall */\n      0x00\n        /* \"@openzeppelin/contracts-upgradeable/proxy/utils/Initializable.sol\":654:667  _initializing */\n      sload\n      0x0100\n      swap1\n      div\n      0xff\n      and\n        /* \"@openzeppelin/contracts-upgradeable/proxy/utils/Initializable.sol\":653:667  !_initializing */\n      iszero\n        /* \"@openzeppelin/contracts-upgradeable/proxy/utils/Initializable.sol\":677:775  if (isTopLevelCall) {... */\n      dup1\n      iszero\n      tag_340\n      jumpi\n        /* \"@openzeppelin/contracts-upgradeable/proxy/utils/Initializable.sol\":711:724  _initializing */\n      0x00\n        /* \"@openzeppelin/contracts-upgradeable/proxy/utils/Initializable.sol\":711:731  _initializing = true */\n      dup1\n      sload\n      not(0xff)\n      not(0xff00)\n      swap1\n      swap2\n      and\n      0x0100\n      or\n        /* \"@openzeppelin/contracts-upgradeable/proxy/utils/Initializable.sol\":745:764  _initialized = true */\n      and\n        /* \"@openzeppelin/contracts-upgradeable/proxy/utils/Initializable.sol\":727:731  true */\n      0x01\n        /* \"@openzeppelin/contracts-upgradeable/proxy/utils/Initializable.sol\":745:764  _initialized = true */\n      or\n      swap1\n      sstore\n        /* \"@openzeppelin/contracts-upgradeable/proxy/utils/Initializable.sol\":801:815  isTopLevelCall */\n      dup1\n        /* \"@openzeppelin/contracts-upgradeable/proxy/utils/Initializable.sol\":797:863  if (isTopLevelCall) {... */\n      iszero\n      tag_330\n      jumpi\n        /* \"@openzeppelin/contracts-upgradeable/proxy/utils/Initializable.sol\":847:852  false */\n      0x00\n        /* \"@openzeppelin/contracts-upgradeable/proxy/utils/Initializable.sol\":831:852  _initializing = false */\n      dup1\n      sload\n      not(0xff00)\n      and\n      swap1\n      sstore\n        /* \"@openzeppelin/contracts-upgradeable/utils/ContextUpgradeable.sol\":807:871  function __Context_init_unchained() internal initializer {... */\n      pop\n      jump\t// out\n        /* \"@openzeppelin/contracts-upgradeable/access/OwnableUpgradeable.sol\":1120:1226  function __Ownable_init_unchained() internal initializer {... */\n    tag_341:\n        /* \"@openzeppelin/contracts-upgradeable/proxy/utils/Initializable.sol\":539:552  _initializing */\n      sload(0x00)\n      0x0100\n      swap1\n      div\n      0xff\n      and\n      dup1\n        /* \"@openzeppelin/contracts-upgradeable/proxy/utils/Initializable.sol\":539:569  _initializing || !_initialized */\n      tag_430\n      jumpi\n      pop\n        /* \"@openzeppelin/contracts-upgradeable/proxy/utils/Initializable.sol\":557:569  _initialized */\n      and(0xff, sload(0x00))\n        /* \"@openzeppelin/contracts-upgradeable/proxy/utils/Initializable.sol\":556:569  !_initialized */\n      iszero\n        /* \"@openzeppelin/contracts-upgradeable/proxy/utils/Initializable.sol\":539:569  _initializing || !_initialized */\n    tag_430:\n        /* \"@openzeppelin/contracts-upgradeable/proxy/utils/Initializable.sol\":531:620  require(_initializing || !_initialized, \"Initializable: contract is already initialized\") */\n      tag_431\n      jumpi\n      mload(0x40)\n      shl(0xe5, 0x461bcd)\n      dup2\n      mstore\n      0x04\n      add\n      tag_191\n      swap1\n      tag_210\n      jump\t// in\n    tag_431:\n        /* \"@openzeppelin/contracts-upgradeable/proxy/utils/Initializable.sol\":631:650  bool isTopLevelCall */\n      0x00\n        /* \"@openzeppelin/contracts-upgradeable/proxy/utils/Initializable.sol\":654:667  _initializing */\n      sload\n      0x0100\n      swap1\n      div\n      0xff\n      and\n        /* \"@openzeppelin/contracts-upgradeable/proxy/utils/Initializable.sol\":653:667  !_initializing */\n      iszero\n        /* \"@openzeppelin/contracts-upgradeable/proxy/utils/Initializable.sol\":677:775  if (isTopLevelCall) {... */\n      dup1\n      iszero\n      tag_433\n      jumpi\n        /* \"@openzeppelin/contracts-upgradeable/proxy/utils/Initializable.sol\":711:724  _initializing */\n      0x00\n        /* \"@openzeppelin/contracts-upgradeable/proxy/utils/Initializable.sol\":711:731  _initializing = true */\n      dup1\n      sload\n      not(0xff)\n      not(0xff00)\n      swap1\n      swap2\n      and\n      0x0100\n      or\n        /* \"@openzeppelin/contracts-upgradeable/proxy/utils/Initializable.sol\":745:764  _initialized = true */\n      and\n        /* \"@openzeppelin/contracts-upgradeable/proxy/utils/Initializable.sol\":727:731  true */\n      0x01\n        /* \"@openzeppelin/contracts-upgradeable/proxy/utils/Initializable.sol\":745:764  _initialized = true */\n      or\n      swap1\n      sstore\n        /* \"@openzeppelin/contracts-upgradeable/proxy/utils/Initializable.sol\":677:775  if (isTopLevelCall) {... */\n    tag_433:\n        /* \"@openzeppelin/contracts-upgradeable/access/OwnableUpgradeable.sol\":1187:1219  _transferOwnership(_msgSender()) */\n      tag_340\n        /* \"@openzeppelin/contracts-upgradeable/access/OwnableUpgradeable.sol\":1206:1218  _msgSender() */\n      tag_436\n        /* \"@openzeppelin/contracts-upgradeable/access/OwnableUpgradeable.sol\":1206:1216  _msgSender */\n      tag_188\n        /* \"@openzeppelin/contracts-upgradeable/access/OwnableUpgradeable.sol\":1206:1218  _msgSender() */\n      jump\t// in\n    tag_436:\n        /* \"@openzeppelin/contracts-upgradeable/access/OwnableUpgradeable.sol\":1187:1205  _transferOwnership */\n      tag_241\n        /* \"@openzeppelin/contracts-upgradeable/access/OwnableUpgradeable.sol\":1187:1219  _transferOwnership(_msgSender()) */\n      jump\t// in\n        /* \"@openzeppelin/contracts-upgradeable/token/ERC20/utils/SafeERC20Upgradeable.sol\":3306:4023  function _callOptionalReturn(IERC20Upgradeable token, bytes memory data) private {... */\n    tag_348:\n        /* \"@openzeppelin/contracts-upgradeable/token/ERC20/utils/SafeERC20Upgradeable.sol\":3736:3759  bytes memory returndata */\n      0x00\n        /* \"@openzeppelin/contracts-upgradeable/token/ERC20/utils/SafeERC20Upgradeable.sol\":3762:3831  address(token).functionCall(data, \"SafeERC20: low-level call failed\") */\n      tag_439\n        /* \"@openzeppelin/contracts-upgradeable/token/ERC20/utils/SafeERC20Upgradeable.sol\":3790:3794  data */\n      dup3\n        /* \"@openzeppelin/contracts-upgradeable/token/ERC20/utils/SafeERC20Upgradeable.sol\":3762:3831  address(token).functionCall(data, \"SafeERC20: low-level call failed\") */\n      mload(0x40)\n      dup1\n      0x40\n      add\n      0x40\n      mstore\n      dup1\n      0x20\n      dup2\n      mstore\n      0x20\n      add\n      0x5361666545524332303a206c6f772d6c6576656c2063616c6c206661696c6564\n      dup2\n      mstore\n      pop\n        /* \"@openzeppelin/contracts-upgradeable/token/ERC20/utils/SafeERC20Upgradeable.sol\":3770:3775  token */\n      dup6\n      sub(shl(0xa0, 0x01), 0x01)\n        /* \"@openzeppelin/contracts-upgradeable/token/ERC20/utils/SafeERC20Upgradeable.sol\":3762:3789  address(token).functionCall */\n      and\n      tag_440\n      swap1\n        /* \"@openzeppelin/contracts-upgradeable/token/ERC20/utils/SafeERC20Upgradeable.sol\":3762:3831  address(token).functionCall(data, \"SafeERC20: low-level call failed\") */\n      swap3\n      swap2\n      swap1\n      0xffffffff\n      and\n      jump\t// in\n    tag_439:\n        /* \"@openzeppelin/contracts-upgradeable/token/ERC20/utils/SafeERC20Upgradeable.sol\":3845:3862  returndata.length */\n      dup1\n      mload\n        /* \"@openzeppelin/contracts-upgradeable/token/ERC20/utils/SafeERC20Upgradeable.sol\":3736:3831  bytes memory returndata = address(token).functionCall(data, \"SafeERC20: low-level call failed\") */\n      swap1\n      swap2\n      pop\n        /* \"@openzeppelin/contracts-upgradeable/token/ERC20/utils/SafeERC20Upgradeable.sol\":3845:3866  returndata.length > 0 */\n      iszero\n        /* \"@openzeppelin/contracts-upgradeable/token/ERC20/utils/SafeERC20Upgradeable.sol\":3841:4017  if (returndata.length > 0) {... */\n      tag_345\n      jumpi\n        /* \"@openzeppelin/contracts-upgradeable/token/ERC20/utils/SafeERC20Upgradeable.sol\":3940:3950  returndata */\n      dup1\n        /* \"@openzeppelin/contracts-upgradeable/token/ERC20/utils/SafeERC20Upgradeable.sol\":3929:3959  abi.decode(returndata, (bool)) */\n      dup1\n      0x20\n      add\n      swap1\n      mload\n      dup2\n      add\n      swap1\n      tag_442\n      swap2\n      swap1\n      tag_302\n      jump\t// in\n    tag_442:\n        /* \"@openzeppelin/contracts-upgradeable/token/ERC20/utils/SafeERC20Upgradeable.sol\":3921:4006  require(abi.decode(returndata, (bool)), \"SafeERC20: ERC20 operation did not succeed\") */\n      tag_345\n      jumpi\n      mload(0x40)\n      shl(0xe5, 0x461bcd)\n      dup2\n      mstore\n      0x04\n      add\n      tag_191\n      swap1\n      tag_445\n      jump\t// in\n        /* \"contracts/helperLogic.sol\":2901:3292  function getAmountOut(... */\n    tag_378:\n        /* \"contracts/helperLogic.sol\":3033:3050  uint256 amountOut */\n      0x00\n      dup1\n        /* \"contracts/helperLogic.sol\":3088:3106  amountIn.mul(9970) */\n      tag_447\n        /* \"contracts/helperLogic.sol\":3088:3096  amountIn */\n      dup6\n        /* \"contracts/helperLogic.sol\":3101:3105  9970 */\n      0x26f2\n        /* \"contracts/helperLogic.sol\":3088:3100  amountIn.mul */\n      tag_282\n        /* \"contracts/helperLogic.sol\":3088:3106  amountIn.mul(9970) */\n      jump\t// in\n    tag_447:\n        /* \"contracts/helperLogic.sol\":3062:3106  uint256 amountInWithFee = amountIn.mul(9970) */\n      swap1\n      pop\n        /* \"contracts/helperLogic.sol\":3116:3133  uint256 numerator */\n      0x00\n        /* \"contracts/helperLogic.sol\":3136:3167  amountInWithFee.mul(reserveOut) */\n      tag_448\n        /* \"contracts/helperLogic.sol\":3062:3106  uint256 amountInWithFee = amountIn.mul(9970) */\n      dup3\n        /* \"contracts/helperLogic.sol\":3156:3166  reserveOut */\n      dup6\n        /* \"contracts/helperLogic.sol\":3136:3155  amountInWithFee.mul */\n      tag_282\n        /* \"contracts/helperLogic.sol\":3136:3167  amountInWithFee.mul(reserveOut) */\n      jump\t// in\n    tag_448:\n        /* \"contracts/helperLogic.sol\":3116:3167  uint256 numerator = amountInWithFee.mul(reserveOut) */\n      swap1\n      pop\n        /* \"contracts/helperLogic.sol\":3177:3196  uint256 denominator */\n      0x00\n        /* \"contracts/helperLogic.sol\":3199:3240  reserveIn.mul(10000).add(amountInWithFee) */\n      tag_449\n        /* \"contracts/helperLogic.sol\":3224:3239  amountInWithFee */\n      dup4\n        /* \"contracts/helperLogic.sol\":3199:3219  reserveIn.mul(10000) */\n      tag_450\n        /* \"contracts/helperLogic.sol\":3199:3208  reserveIn */\n      dup9\n        /* \"contracts/helperLogic.sol\":3213:3218  10000 */\n      0x2710\n        /* \"contracts/helperLogic.sol\":3199:3212  reserveIn.mul */\n      tag_282\n        /* \"contracts/helperLogic.sol\":3199:3219  reserveIn.mul(10000) */\n      jump\t// in\n    tag_450:\n        /* \"contracts/helperLogic.sol\":3199:3223  reserveIn.mul(10000).add */\n      swap1\n      tag_416\n        /* \"contracts/helperLogic.sol\":3199:3240  reserveIn.mul(10000).add(amountInWithFee) */\n      jump\t// in\n    tag_449:\n        /* \"contracts/helperLogic.sol\":3177:3240  uint256 denominator = reserveIn.mul(10000).add(amountInWithFee) */\n      swap1\n      pop\n        /* \"contracts/helperLogic.sol\":3262:3285  numerator / denominator */\n      tag_451\n        /* \"contracts/helperLogic.sol\":3177:3240  uint256 denominator = reserveIn.mul(10000).add(amountInWithFee) */\n      dup2\n        /* \"contracts/helperLogic.sol\":3262:3271  numerator */\n      dup4\n        /* \"contracts/helperLogic.sol\":3262:3285  numerator / denominator */\n      tag_354\n      jump\t// in\n    tag_451:\n        /* \"contracts/helperLogic.sol\":3250:3285  amountOut = numerator / denominator */\n      swap8\n        /* \"contracts/helperLogic.sol\":2901:3292  function getAmountOut(... */\n      swap7\n      pop\n      pop\n      pop\n      pop\n      pop\n      pop\n      pop\n      jump\t// out\n        /* \"@openzeppelin/contracts-upgradeable/utils/math/SafeMathUpgradeable.sol\":2752:2848  function add(uint256 a, uint256 b) internal pure returns (uint256) {... */\n    tag_416:\n        /* \"@openzeppelin/contracts-upgradeable/utils/math/SafeMathUpgradeable.sol\":2810:2817  uint256 */\n      0x00\n        /* \"@openzeppelin/contracts-upgradeable/utils/math/SafeMathUpgradeable.sol\":2836:2841  a + b */\n      tag_350\n        /* \"@openzeppelin/contracts-upgradeable/utils/math/SafeMathUpgradeable.sol\":2840:2841  b */\n      dup3\n        /* \"@openzeppelin/contracts-upgradeable/utils/math/SafeMathUpgradeable.sol\":2836:2837  a */\n      dup5\n        /* \"@openzeppelin/contracts-upgradeable/utils/math/SafeMathUpgradeable.sol\":2836:2841  a + b */\n      tag_454\n      jump\t// in\n        /* \"@openzeppelin/contracts-upgradeable/utils/AddressUpgradeable.sol\":3525:3748  function functionCall(... */\n    tag_440:\n        /* \"@openzeppelin/contracts-upgradeable/utils/AddressUpgradeable.sol\":3658:3670  bytes memory */\n      0x60\n        /* \"@openzeppelin/contracts-upgradeable/utils/AddressUpgradeable.sol\":3689:3741  functionCallWithValue(target, data, 0, errorMessage) */\n      tag_456\n        /* \"@openzeppelin/contracts-upgradeable/utils/AddressUpgradeable.sol\":3711:3717  target */\n      dup5\n        /* \"@openzeppelin/contracts-upgradeable/utils/AddressUpgradeable.sol\":3719:3723  data */\n      dup5\n        /* \"@openzeppelin/contracts-upgradeable/utils/AddressUpgradeable.sol\":3725:3726  0 */\n      0x00\n        /* \"@openzeppelin/contracts-upgradeable/utils/AddressUpgradeable.sol\":3728:3740  errorMessage */\n      dup6\n        /* \"@openzeppelin/contracts-upgradeable/utils/AddressUpgradeable.sol\":3689:3710  functionCallWithValue */\n      tag_457\n        /* \"@openzeppelin/contracts-upgradeable/utils/AddressUpgradeable.sol\":3689:3741  functionCallWithValue(target, data, 0, errorMessage) */\n      jump\t// in\n    tag_456:\n        /* \"@openzeppelin/contracts-upgradeable/utils/AddressUpgradeable.sol\":3682:3741  return functionCallWithValue(target, data, 0, errorMessage) */\n      swap5\n        /* \"@openzeppelin/contracts-upgradeable/utils/AddressUpgradeable.sol\":3525:3748  function functionCall(... */\n      swap4\n      pop\n      pop\n      pop\n      pop\n      jump\t// out\n        /* \"@openzeppelin/contracts-upgradeable/utils/AddressUpgradeable.sol\":4612:5111  function functionCallWithValue(... */\n    tag_457:\n        /* \"@openzeppelin/contracts-upgradeable/utils/AddressUpgradeable.sol\":4777:4789  bytes memory */\n      0x60\n        /* \"@openzeppelin/contracts-upgradeable/utils/AddressUpgradeable.sol\":4834:4839  value */\n      dup3\n        /* \"@openzeppelin/contracts-upgradeable/utils/AddressUpgradeable.sol\":4809:4830  address(this).balance */\n      selfbalance\n        /* \"@openzeppelin/contracts-upgradeable/utils/AddressUpgradeable.sol\":4809:4839  address(this).balance >= value */\n      lt\n      iszero\n        /* \"@openzeppelin/contracts-upgradeable/utils/AddressUpgradeable.sol\":4801:4882  require(address(this).balance >= value, \"Address: insufficient balance for call\") */\n      tag_459\n      jumpi\n      mload(0x40)\n      shl(0xe5, 0x461bcd)\n      dup2\n      mstore\n      0x04\n      add\n      tag_191\n      swap1\n      tag_461\n      jump\t// in\n    tag_459:\n        /* \"@openzeppelin/contracts-upgradeable/utils/AddressUpgradeable.sol\":4900:4918  isContract(target) */\n      tag_462\n        /* \"@openzeppelin/contracts-upgradeable/utils/AddressUpgradeable.sol\":4911:4917  target */\n      dup6\n        /* \"@openzeppelin/contracts-upgradeable/utils/AddressUpgradeable.sol\":4900:4910  isContract */\n      tag_463\n        /* \"@openzeppelin/contracts-upgradeable/utils/AddressUpgradeable.sol\":4900:4918  isContract(target) */\n      jump\t// in\n    tag_462:\n        /* \"@openzeppelin/contracts-upgradeable/utils/AddressUpgradeable.sol\":4892:4952  require(isContract(target), \"Address: call to non-contract\") */\n      tag_464\n      jumpi\n      mload(0x40)\n      shl(0xe5, 0x461bcd)\n      dup2\n      mstore\n      0x04\n      add\n      tag_191\n      swap1\n      tag_466\n      jump\t// in\n    tag_464:\n        /* \"@openzeppelin/contracts-upgradeable/utils/AddressUpgradeable.sol\":4964:4976  bool success */\n      0x00\n        /* \"@openzeppelin/contracts-upgradeable/utils/AddressUpgradeable.sol\":4978:5001  bytes memory returndata */\n      dup1\n        /* \"@openzeppelin/contracts-upgradeable/utils/AddressUpgradeable.sol\":5005:5011  target */\n      dup7\n      sub(shl(0xa0, 0x01), 0x01)\n        /* \"@openzeppelin/contracts-upgradeable/utils/AddressUpgradeable.sol\":5005:5016  target.call */\n      and\n        /* \"@openzeppelin/contracts-upgradeable/utils/AddressUpgradeable.sol\":5024:5029  value */\n      dup6\n        /* \"@openzeppelin/contracts-upgradeable/utils/AddressUpgradeable.sol\":5031:5035  data */\n      dup8\n        /* \"@openzeppelin/contracts-upgradeable/utils/AddressUpgradeable.sol\":5005:5036  target.call{value: value}(data) */\n      mload(0x40)\n      tag_467\n      swap2\n      swap1\n      tag_468\n      jump\t// in\n    tag_467:\n      0x00\n      mload(0x40)\n      dup1\n      dup4\n      sub\n      dup2\n      dup6\n      dup8\n      gas\n      call\n      swap3\n      pop\n      pop\n      pop\n      returndatasize\n      dup1\n      0x00\n      dup2\n      eq\n      tag_471\n      jumpi\n      mload(0x40)\n      swap2\n      pop\n      and(add(returndatasize, 0x3f), not(0x1f))\n      dup3\n      add\n      0x40\n      mstore\n      returndatasize\n      dup3\n      mstore\n      returndatasize\n      0x00\n      0x20\n      dup5\n      add\n      returndatacopy\n      jump(tag_470)\n    tag_471:\n      0x60\n      swap2\n      pop\n    tag_470:\n      pop\n        /* \"@openzeppelin/contracts-upgradeable/utils/AddressUpgradeable.sol\":4963:5036  (bool success, bytes memory returndata) = target.call{value: value}(data) */\n      swap2\n      pop\n      swap2\n      pop\n        /* \"@openzeppelin/contracts-upgradeable/utils/AddressUpgradeable.sol\":5053:5104  verifyCallResult(success, returndata, errorMessage) */\n      tag_451\n        /* \"@openzeppelin/contracts-upgradeable/utils/AddressUpgradeable.sol\":5070:5077  success */\n      dup3\n        /* \"@openzeppelin/contracts-upgradeable/utils/AddressUpgradeable.sol\":5079:5089  returndata */\n      dup3\n        /* \"@openzeppelin/contracts-upgradeable/utils/AddressUpgradeable.sol\":5091:5103  errorMessage */\n      dup7\n        /* \"@openzeppelin/contracts-upgradeable/utils/AddressUpgradeable.sol\":5053:5069  verifyCallResult */\n      tag_473\n        /* \"@openzeppelin/contracts-upgradeable/utils/AddressUpgradeable.sol\":5053:5104  verifyCallResult(success, returndata, errorMessage) */\n      jump\t// in\n        /* \"@openzeppelin/contracts-upgradeable/utils/AddressUpgradeable.sol\":782:1159  function isContract(address account) internal view returns (bool) {... */\n    tag_463:\n        /* \"@openzeppelin/contracts-upgradeable/utils/AddressUpgradeable.sol\":1098:1118  extcodesize(account) */\n      extcodesize\n        /* \"@openzeppelin/contracts-upgradeable/utils/AddressUpgradeable.sol\":1144:1152  size > 0 */\n      iszero\n      iszero\n      swap1\n        /* \"@openzeppelin/contracts-upgradeable/utils/AddressUpgradeable.sol\":782:1159  function isContract(address account) internal view returns (bool) {... */\n      jump\t// out\n        /* \"@openzeppelin/contracts-upgradeable/utils/AddressUpgradeable.sol\":6275:6967  function verifyCallResult(... */\n    tag_473:\n        /* \"@openzeppelin/contracts-upgradeable/utils/AddressUpgradeable.sol\":6421:6433  bytes memory */\n      0x60\n        /* \"@openzeppelin/contracts-upgradeable/utils/AddressUpgradeable.sol\":6449:6456  success */\n      dup4\n        /* \"@openzeppelin/contracts-upgradeable/utils/AddressUpgradeable.sol\":6445:6961  if (success) {... */\n      iszero\n      tag_476\n      jumpi\n      pop\n        /* \"@openzeppelin/contracts-upgradeable/utils/AddressUpgradeable.sol\":6479:6489  returndata */\n      dup2\n        /* \"@openzeppelin/contracts-upgradeable/utils/AddressUpgradeable.sol\":6472:6489  return returndata */\n      jump(tag_350)\n        /* \"@openzeppelin/contracts-upgradeable/utils/AddressUpgradeable.sol\":6445:6961  if (success) {... */\n    tag_476:\n        /* \"@openzeppelin/contracts-upgradeable/utils/AddressUpgradeable.sol\":6590:6607  returndata.length */\n      dup3\n      mload\n        /* \"@openzeppelin/contracts-upgradeable/utils/AddressUpgradeable.sol\":6590:6611  returndata.length > 0 */\n      iszero\n        /* \"@openzeppelin/contracts-upgradeable/utils/AddressUpgradeable.sol\":6586:6951  if (returndata.length > 0) {... */\n      tag_478\n      jumpi\n        /* \"@openzeppelin/contracts-upgradeable/utils/AddressUpgradeable.sol\":6784:6794  returndata */\n      dup3\n        /* \"@openzeppelin/contracts-upgradeable/utils/AddressUpgradeable.sol\":6778:6795  mload(returndata) */\n      mload\n        /* \"@openzeppelin/contracts-upgradeable/utils/AddressUpgradeable.sol\":6844:6859  returndata_size */\n      dup1\n        /* \"@openzeppelin/contracts-upgradeable/utils/AddressUpgradeable.sol\":6831:6841  returndata */\n      dup5\n        /* \"@openzeppelin/contracts-upgradeable/utils/AddressUpgradeable.sol\":6827:6829  32 */\n      0x20\n        /* \"@openzeppelin/contracts-upgradeable/utils/AddressUpgradeable.sol\":6823:6842  add(32, returndata) */\n      add\n        /* \"@openzeppelin/contracts-upgradeable/utils/AddressUpgradeable.sol\":6816:6860  revert(add(32, returndata), returndata_size) */\n      revert\n        /* \"@openzeppelin/contracts-upgradeable/utils/AddressUpgradeable.sol\":6733:6878  {... */\n    tag_478:\n        /* \"@openzeppelin/contracts-upgradeable/utils/AddressUpgradeable.sol\":6923:6935  errorMessage */\n      dup2\n        /* \"@openzeppelin/contracts-upgradeable/utils/AddressUpgradeable.sol\":6916:6936  revert(errorMessage) */\n      mload(0x40)\n      shl(0xe5, 0x461bcd)\n      dup2\n      mstore\n      0x04\n      add\n      tag_191\n      swap2\n      swap1\n      tag_481\n      jump\t// in\n        /* \"#utility.yul\":14:204   */\n    tag_483:\n        /* \"#utility.yul\":95:108   */\n      dup1\n      mload\n      sub(shl(0x70, 0x01), 0x01)\n        /* \"#utility.yul\":137:179   */\n      dup2\n      and\n        /* \"#utility.yul\":127:180   */\n      dup2\n      eq\n        /* \"#utility.yul\":117:119   */\n      tag_193\n      jumpi\n        /* \"#utility.yul\":194:195   */\n      0x00\n        /* \"#utility.yul\":191:192   */\n      dup1\n        /* \"#utility.yul\":184:196   */\n      revert\n        /* \"#utility.yul\":209:468   */\n    tag_95:\n      0x00\n        /* \"#utility.yul\":321:323   */\n      0x20\n        /* \"#utility.yul\":309:318   */\n      dup3\n        /* \"#utility.yul\":300:307   */\n      dup5\n        /* \"#utility.yul\":296:319   */\n      sub\n        /* \"#utility.yul\":292:324   */\n      slt\n        /* \"#utility.yul\":289:291   */\n      iszero\n      tag_487\n      jumpi\n        /* \"#utility.yul\":342:348   */\n      dup1\n        /* \"#utility.yul\":334:340   */\n      dup2\n        /* \"#utility.yul\":327:349   */\n      revert\n        /* \"#utility.yul\":289:291   */\n    tag_487:\n        /* \"#utility.yul\":386:395   */\n      dup2\n        /* \"#utility.yul\":373:396   */\n      calldataload\n        /* \"#utility.yul\":405:438   */\n      tag_350\n        /* \"#utility.yul\":432:437   */\n      dup2\n        /* \"#utility.yul\":405:438   */\n      tag_489\n      jump\t// in\n        /* \"#utility.yul\":473:736   */\n    tag_365:\n      0x00\n        /* \"#utility.yul\":596:598   */\n      0x20\n        /* \"#utility.yul\":584:593   */\n      dup3\n        /* \"#utility.yul\":575:582   */\n      dup5\n        /* \"#utility.yul\":571:594   */\n      sub\n        /* \"#utility.yul\":567:599   */\n      slt\n        /* \"#utility.yul\":564:566   */\n      iszero\n      tag_491\n      jumpi\n        /* \"#utility.yul\":617:623   */\n      dup1\n        /* \"#utility.yul\":609:615   */\n      dup2\n        /* \"#utility.yul\":602:624   */\n      revert\n        /* \"#utility.yul\":564:566   */\n    tag_491:\n        /* \"#utility.yul\":654:663   */\n      dup2\n        /* \"#utility.yul\":648:664   */\n      mload\n        /* \"#utility.yul\":673:706   */\n      tag_350\n        /* \"#utility.yul\":700:705   */\n      dup2\n        /* \"#utility.yul\":673:706   */\n      tag_489\n      jump\t// in\n        /* \"#utility.yul\":741:1137   */\n    tag_59:\n      0x00\n      dup1\n        /* \"#utility.yul\":867:869   */\n      0x40\n        /* \"#utility.yul\":855:864   */\n      dup4\n        /* \"#utility.yul\":846:853   */\n      dup6\n        /* \"#utility.yul\":842:865   */\n      sub\n        /* \"#utility.yul\":838:870   */\n      slt\n        /* \"#utility.yul\":835:837   */\n      iszero\n      tag_494\n      jumpi\n        /* \"#utility.yul\":888:894   */\n      dup1\n        /* \"#utility.yul\":880:886   */\n      dup2\n        /* \"#utility.yul\":873:895   */\n      revert\n        /* \"#utility.yul\":835:837   */\n    tag_494:\n        /* \"#utility.yul\":932:941   */\n      dup3\n        /* \"#utility.yul\":919:942   */\n      calldataload\n        /* \"#utility.yul\":951:984   */\n      tag_495\n        /* \"#utility.yul\":978:983   */\n      dup2\n        /* \"#utility.yul\":951:984   */\n      tag_489\n      jump\t// in\n    tag_495:\n        /* \"#utility.yul\":1003:1008   */\n      swap2\n      pop\n        /* \"#utility.yul\":1060:1062   */\n      0x20\n        /* \"#utility.yul\":1045:1063   */\n      dup4\n      add\n        /* \"#utility.yul\":1032:1064   */\n      calldataload\n        /* \"#utility.yul\":1073:1105   */\n      tag_496\n        /* \"#utility.yul\":1032:1064   */\n      dup2\n        /* \"#utility.yul\":1073:1105   */\n      tag_497\n      jump\t// in\n    tag_496:\n        /* \"#utility.yul\":1124:1131   */\n      dup1\n        /* \"#utility.yul\":1114:1131   */\n      swap2\n      pop\n      pop\n        /* \"#utility.yul\":825:1137   */\n      swap3\n      pop\n      swap3\n      swap1\n      pop\n      jump\t// out\n        /* \"#utility.yul\":1142:1469   */\n    tag_125:\n      0x00\n      dup1\n        /* \"#utility.yul\":1271:1273   */\n      0x40\n        /* \"#utility.yul\":1259:1268   */\n      dup4\n        /* \"#utility.yul\":1250:1257   */\n      dup6\n        /* \"#utility.yul\":1246:1269   */\n      sub\n        /* \"#utility.yul\":1242:1274   */\n      slt\n        /* \"#utility.yul\":1239:1241   */\n      iszero\n      tag_499\n      jumpi\n        /* \"#utility.yul\":1292:1298   */\n      dup2\n        /* \"#utility.yul\":1284:1290   */\n      dup3\n        /* \"#utility.yul\":1277:1299   */\n      revert\n        /* \"#utility.yul\":1239:1241   */\n    tag_499:\n        /* \"#utility.yul\":1336:1345   */\n      dup3\n        /* \"#utility.yul\":1323:1346   */\n      calldataload\n        /* \"#utility.yul\":1355:1388   */\n      tag_500\n        /* \"#utility.yul\":1382:1387   */\n      dup2\n        /* \"#utility.yul\":1355:1388   */\n      tag_489\n      jump\t// in\n    tag_500:\n        /* \"#utility.yul\":1407:1412   */\n      swap5\n        /* \"#utility.yul\":1459:1461   */\n      0x20\n        /* \"#utility.yul\":1444:1462   */\n      swap4\n      swap1\n      swap4\n      add\n        /* \"#utility.yul\":1431:1463   */\n      calldataload\n      swap4\n      pop\n      pop\n      pop\n        /* \"#utility.yul\":1229:1469   */\n      jump\t// out\n        /* \"#utility.yul\":1474:1727   */\n    tag_90:\n      0x00\n        /* \"#utility.yul\":1583:1585   */\n      0x20\n        /* \"#utility.yul\":1571:1580   */\n      dup3\n        /* \"#utility.yul\":1562:1569   */\n      dup5\n        /* \"#utility.yul\":1558:1581   */\n      sub\n        /* \"#utility.yul\":1554:1586   */\n      slt\n        /* \"#utility.yul\":1551:1553   */\n      iszero\n      tag_502\n      jumpi\n        /* \"#utility.yul\":1604:1610   */\n      dup1\n        /* \"#utility.yul\":1596:1602   */\n      dup2\n        /* \"#utility.yul\":1589:1611   */\n      revert\n        /* \"#utility.yul\":1551:1553   */\n    tag_502:\n        /* \"#utility.yul\":1648:1657   */\n      dup2\n        /* \"#utility.yul\":1635:1658   */\n      calldataload\n        /* \"#utility.yul\":1667:1697   */\n      tag_350\n        /* \"#utility.yul\":1691:1696   */\n      dup2\n        /* \"#utility.yul\":1667:1697   */\n      tag_497\n      jump\t// in\n        /* \"#utility.yul\":1732:1989   */\n    tag_302:\n      0x00\n        /* \"#utility.yul\":1852:1854   */\n      0x20\n        /* \"#utility.yul\":1840:1849   */\n      dup3\n        /* \"#utility.yul\":1831:1838   */\n      dup5\n        /* \"#utility.yul\":1827:1850   */\n      sub\n        /* \"#utility.yul\":1823:1855   */\n      slt\n        /* \"#utility.yul\":1820:1822   */\n      iszero\n      tag_505\n      jumpi\n        /* \"#utility.yul\":1873:1879   */\n      dup1\n        /* \"#utility.yul\":1865:1871   */\n      dup2\n        /* \"#utility.yul\":1858:1880   */\n      revert\n        /* \"#utility.yul\":1820:1822   */\n    tag_505:\n        /* \"#utility.yul\":1910:1919   */\n      dup2\n        /* \"#utility.yul\":1904:1920   */\n      mload\n        /* \"#utility.yul\":1929:1959   */\n      tag_350\n        /* \"#utility.yul\":1953:1958   */\n      dup2\n        /* \"#utility.yul\":1929:1959   */\n      tag_497\n      jump\t// in\n        /* \"#utility.yul\":2561:3849   */\n    tag_75:\n      0x00\n      dup1\n      0x00\n      dup1\n      0x00\n      dup1\n      0x00\n        /* \"#utility.yul\":2942:2945   */\n      0xe0\n        /* \"#utility.yul\":2930:2939   */\n      dup9\n        /* \"#utility.yul\":2921:2928   */\n      dup11\n        /* \"#utility.yul\":2917:2940   */\n      sub\n        /* \"#utility.yul\":2913:2946   */\n      slt\n        /* \"#utility.yul\":2910:2912   */\n      iszero\n      tag_514\n      jumpi\n        /* \"#utility.yul\":2964:2970   */\n      dup3\n        /* \"#utility.yul\":2956:2962   */\n      dup4\n        /* \"#utility.yul\":2949:2971   */\n      revert\n        /* \"#utility.yul\":2910:2912   */\n    tag_514:\n        /* \"#utility.yul\":3008:3017   */\n      dup8\n        /* \"#utility.yul\":2995:3018   */\n      calldataload\n        /* \"#utility.yul\":3027:3060   */\n      tag_515\n        /* \"#utility.yul\":3054:3059   */\n      dup2\n        /* \"#utility.yul\":3027:3060   */\n      tag_489\n      jump\t// in\n    tag_515:\n        /* \"#utility.yul\":3079:3084   */\n      swap7\n      pop\n        /* \"#utility.yul\":3136:3138   */\n      0x20\n        /* \"#utility.yul\":3121:3139   */\n      dup9\n      add\n        /* \"#utility.yul\":3108:3140   */\n      calldataload\n        /* \"#utility.yul\":3149:3184   */\n      tag_516\n        /* \"#utility.yul\":3108:3140   */\n      dup2\n        /* \"#utility.yul\":3149:3184   */\n      tag_489\n      jump\t// in\n    tag_516:\n        /* \"#utility.yul\":3203:3210   */\n      swap6\n      pop\n        /* \"#utility.yul\":3262:3264   */\n      0x40\n        /* \"#utility.yul\":3247:3265   */\n      dup9\n      add\n        /* \"#utility.yul\":3234:3266   */\n      calldataload\n        /* \"#utility.yul\":3275:3310   */\n      tag_517\n        /* \"#utility.yul\":3234:3266   */\n      dup2\n        /* \"#utility.yul\":3275:3310   */\n      tag_489\n      jump\t// in\n    tag_517:\n        /* \"#utility.yul\":3329:3336   */\n      swap5\n      pop\n        /* \"#utility.yul\":3388:3390   */\n      0x60\n        /* \"#utility.yul\":3373:3391   */\n      dup9\n      add\n        /* \"#utility.yul\":3360:3392   */\n      calldataload\n        /* \"#utility.yul\":3401:3436   */\n      tag_518\n        /* \"#utility.yul\":3360:3392   */\n      dup2\n        /* \"#utility.yul\":3401:3436   */\n      tag_489\n      jump\t// in\n    tag_518:\n        /* \"#utility.yul\":3455:3462   */\n      swap4\n      pop\n        /* \"#utility.yul\":3514:3517   */\n      0x80\n        /* \"#utility.yul\":3499:3518   */\n      dup9\n      add\n        /* \"#utility.yul\":3486:3519   */\n      calldataload\n        /* \"#utility.yul\":3528:3563   */\n      tag_519\n        /* \"#utility.yul\":3486:3519   */\n      dup2\n        /* \"#utility.yul\":3528:3563   */\n      tag_489\n      jump\t// in\n    tag_519:\n        /* \"#utility.yul\":3582:3589   */\n      swap3\n      pop\n        /* \"#utility.yul\":3641:3644   */\n      0xa0\n        /* \"#utility.yul\":3626:3645   */\n      dup9\n      add\n        /* \"#utility.yul\":3613:3646   */\n      calldataload\n        /* \"#utility.yul\":3655:3690   */\n      tag_520\n        /* \"#utility.yul\":3613:3646   */\n      dup2\n        /* \"#utility.yul\":3655:3690   */\n      tag_489\n      jump\t// in\n    tag_520:\n        /* \"#utility.yul\":3709:3716   */\n      swap2\n      pop\n        /* \"#utility.yul\":3768:3771   */\n      0xc0\n        /* \"#utility.yul\":3753:3772   */\n      dup9\n      add\n        /* \"#utility.yul\":3740:3773   */\n      calldataload\n        /* \"#utility.yul\":3782:3817   */\n      tag_521\n        /* \"#utility.yul\":3740:3773   */\n      dup2\n        /* \"#utility.yul\":3782:3817   */\n      tag_489\n      jump\t// in\n    tag_521:\n        /* \"#utility.yul\":3836:3843   */\n      dup1\n        /* \"#utility.yul\":3826:3843   */\n      swap2\n      pop\n      pop\n        /* \"#utility.yul\":2900:3849   */\n      swap3\n      swap6\n      swap9\n      swap2\n      swap5\n      swap8\n      pop\n      swap3\n      swap6\n      pop\n      jump\t// out\n        /* \"#utility.yul\":3854:4328   */\n    tag_370:\n      0x00\n      dup1\n      0x00\n        /* \"#utility.yul\":4010:4012   */\n      0x60\n        /* \"#utility.yul\":3998:4007   */\n      dup5\n        /* \"#utility.yul\":3989:3996   */\n      dup7\n        /* \"#utility.yul\":3985:4008   */\n      sub\n        /* \"#utility.yul\":3981:4013   */\n      slt\n        /* \"#utility.yul\":3978:3980   */\n      iszero\n      tag_523\n      jumpi\n        /* \"#utility.yul\":4031:4037   */\n      dup3\n        /* \"#utility.yul\":4023:4029   */\n      dup4\n        /* \"#utility.yul\":4016:4038   */\n      revert\n        /* \"#utility.yul\":3978:3980   */\n    tag_523:\n        /* \"#utility.yul\":4059:4101   */\n      tag_524\n        /* \"#utility.yul\":4091:4100   */\n      dup5\n        /* \"#utility.yul\":4059:4101   */\n      tag_483\n      jump\t// in\n    tag_524:\n        /* \"#utility.yul\":4049:4101   */\n      swap3\n      pop\n        /* \"#utility.yul\":4120:4171   */\n      tag_525\n        /* \"#utility.yul\":4167:4169   */\n      0x20\n        /* \"#utility.yul\":4156:4165   */\n      dup6\n        /* \"#utility.yul\":4152:4170   */\n      add\n        /* \"#utility.yul\":4120:4171   */\n      tag_483\n      jump\t// in\n    tag_525:\n        /* \"#utility.yul\":4110:4171   */\n      swap2\n      pop\n        /* \"#utility.yul\":4214:4216   */\n      0x40\n        /* \"#utility.yul\":4203:4212   */\n      dup5\n        /* \"#utility.yul\":4199:4217   */\n      add\n        /* \"#utility.yul\":4193:4218   */\n      mload\n        /* \"#utility.yul\":4258:4268   */\n      0xffffffff\n        /* \"#utility.yul\":4251:4256   */\n      dup2\n        /* \"#utility.yul\":4247:4269   */\n      and\n        /* \"#utility.yul\":4240:4245   */\n      dup2\n        /* \"#utility.yul\":4237:4270   */\n      eq\n        /* \"#utility.yul\":4227:4229   */\n      tag_526\n      jumpi\n        /* \"#utility.yul\":4289:4295   */\n      dup2\n        /* \"#utility.yul\":4281:4287   */\n      dup3\n        /* \"#utility.yul\":4274:4296   */\n      revert\n        /* \"#utility.yul\":4227:4229   */\n    tag_526:\n        /* \"#utility.yul\":4317:4322   */\n      dup1\n        /* \"#utility.yul\":4307:4322   */\n      swap2\n      pop\n      pop\n        /* \"#utility.yul\":3968:4328   */\n      swap3\n      pop\n      swap3\n      pop\n      swap3\n      jump\t// out\n        /* \"#utility.yul\":4333:4523   */\n    tag_53:\n      0x00\n        /* \"#utility.yul\":4445:4447   */\n      0x20\n        /* \"#utility.yul\":4433:4442   */\n      dup3\n        /* \"#utility.yul\":4424:4431   */\n      dup5\n        /* \"#utility.yul\":4420:4443   */\n      sub\n        /* \"#utility.yul\":4416:4448   */\n      slt\n        /* \"#utility.yul\":4413:4415   */\n      iszero\n      tag_528\n      jumpi\n        /* \"#utility.yul\":4466:4472   */\n      dup1\n        /* \"#utility.yul\":4458:4464   */\n      dup2\n        /* \"#utility.yul\":4451:4473   */\n      revert\n        /* \"#utility.yul\":4413:4415   */\n    tag_528:\n      pop\n        /* \"#utility.yul\":4494:4517   */\n      calldataload\n      swap2\n        /* \"#utility.yul\":4403:4523   */\n      swap1\n      pop\n      jump\t// out\n        /* \"#utility.yul\":4528:4722   */\n    tag_279:\n      0x00\n        /* \"#utility.yul\":4651:4653   */\n      0x20\n        /* \"#utility.yul\":4639:4648   */\n      dup3\n        /* \"#utility.yul\":4630:4637   */\n      dup5\n        /* \"#utility.yul\":4626:4649   */\n      sub\n        /* \"#utility.yul\":4622:4654   */\n      slt\n        /* \"#utility.yul\":4619:4621   */\n      iszero\n      tag_530\n      jumpi\n        /* \"#utility.yul\":4672:4678   */\n      dup1\n        /* \"#utility.yul\":4664:4670   */\n      dup2\n        /* \"#utility.yul\":4657:4679   */\n      revert\n        /* \"#utility.yul\":4619:4621   */\n    tag_530:\n      pop\n        /* \"#utility.yul\":4700:4716   */\n      mload\n      swap2\n        /* \"#utility.yul\":4609:4722   */\n      swap1\n      pop\n      jump\t// out\n        /* \"#utility.yul\":4727:4986   */\n    tag_531:\n      0x00\n        /* \"#utility.yul\":4808:4813   */\n      dup2\n        /* \"#utility.yul\":4802:4814   */\n      mload\n        /* \"#utility.yul\":4835:4841   */\n      dup1\n        /* \"#utility.yul\":4830:4833   */\n      dup5\n        /* \"#utility.yul\":4823:4842   */\n      mstore\n        /* \"#utility.yul\":4851:4914   */\n      tag_533\n        /* \"#utility.yul\":4907:4913   */\n      dup2\n        /* \"#utility.yul\":4900:4904   */\n      0x20\n        /* \"#utility.yul\":4895:4898   */\n      dup7\n        /* \"#utility.yul\":4891:4905   */\n      add\n        /* \"#utility.yul\":4884:4888   */\n      0x20\n        /* \"#utility.yul\":4877:4882   */\n      dup7\n        /* \"#utility.yul\":4873:4889   */\n      add\n        /* \"#utility.yul\":4851:4914   */\n      tag_534\n      jump\t// in\n    tag_533:\n        /* \"#utility.yul\":4968:4970   */\n      0x1f\n        /* \"#utility.yul\":4947:4962   */\n      add\n      not(0x1f)\n        /* \"#utility.yul\":4943:4972   */\n      and\n        /* \"#utility.yul\":4934:4973   */\n      swap3\n      swap1\n      swap3\n      add\n        /* \"#utility.yul\":4975:4979   */\n      0x20\n        /* \"#utility.yul\":4930:4980   */\n      add\n      swap3\n        /* \"#utility.yul\":4778:4986   */\n      swap2\n      pop\n      pop\n      jump\t// out\n        /* \"#utility.yul\":4991:5265   */\n    tag_468:\n      0x00\n        /* \"#utility.yul\":5158:5164   */\n      dup3\n        /* \"#utility.yul\":5152:5165   */\n      mload\n        /* \"#utility.yul\":5174:5227   */\n      tag_536\n        /* \"#utility.yul\":5220:5226   */\n      dup2\n        /* \"#utility.yul\":5215:5218   */\n      dup5\n        /* \"#utility.yul\":5208:5212   */\n      0x20\n        /* \"#utility.yul\":5200:5206   */\n      dup8\n        /* \"#utility.yul\":5196:5213   */\n      add\n        /* \"#utility.yul\":5174:5227   */\n      tag_534\n      jump\t// in\n    tag_536:\n        /* \"#utility.yul\":5243:5259   */\n      swap2\n      swap1\n      swap2\n      add\n      swap3\n        /* \"#utility.yul\":5128:5265   */\n      swap2\n      pop\n      pop\n      jump\t// out\n        /* \"#utility.yul\":5270:5473   */\n    tag_116:\n      sub(shl(0xa0, 0x01), 0x01)\n        /* \"#utility.yul\":5434:5466   */\n      swap2\n      swap1\n      swap2\n      and\n        /* \"#utility.yul\":5416:5467   */\n      dup2\n      mstore\n        /* \"#utility.yul\":5404:5406   */\n      0x20\n        /* \"#utility.yul\":5389:5407   */\n      add\n      swap1\n        /* \"#utility.yul\":5371:5473   */\n      jump\t// out\n        /* \"#utility.yul\":5478:5782   */\n    tag_360:\n      sub(shl(0xa0, 0x01), 0x01)\n        /* \"#utility.yul\":5708:5723   */\n      swap3\n      dup4\n      and\n        /* \"#utility.yul\":5690:5724   */\n      dup2\n      mstore\n        /* \"#utility.yul\":5760:5775   */\n      swap2\n      and\n        /* \"#utility.yul\":5755:5757   */\n      0x20\n        /* \"#utility.yul\":5740:5758   */\n      dup3\n      add\n        /* \"#utility.yul\":5733:5776   */\n      mstore\n        /* \"#utility.yul\":5640:5642   */\n      0x40\n        /* \"#utility.yul\":5625:5643   */\n      add\n      swap1\n        /* \"#utility.yul\":5607:5782   */\n      jump\t// out\n        /* \"#utility.yul\":5787:6061   */\n    tag_347:\n      sub(shl(0xa0, 0x01), 0x01)\n        /* \"#utility.yul\":5979:6011   */\n      swap3\n      swap1\n      swap3\n      and\n        /* \"#utility.yul\":5961:6012   */\n      dup3\n      mstore\n        /* \"#utility.yul\":6043:6045   */\n      0x20\n        /* \"#utility.yul\":6028:6046   */\n      dup3\n      add\n        /* \"#utility.yul\":6021:6055   */\n      mstore\n        /* \"#utility.yul\":5949:5951   */\n      0x40\n        /* \"#utility.yul\":5934:5952   */\n      add\n      swap1\n        /* \"#utility.yul\":5916:6061   */\n      jump\t// out\n        /* \"#utility.yul\":6066:6253   */\n    tag_56:\n        /* \"#utility.yul\":6231:6245   */\n      swap1\n      iszero\n        /* \"#utility.yul\":6224:6246   */\n      iszero\n        /* \"#utility.yul\":6206:6247   */\n      dup2\n      mstore\n        /* \"#utility.yul\":6194:6196   */\n      0x20\n        /* \"#utility.yul\":6179:6197   */\n      add\n      swap1\n        /* \"#utility.yul\":6161:6253   */\n      jump\t// out\n        /* \"#utility.yul\":7182:7403   */\n    tag_481:\n      0x00\n        /* \"#utility.yul\":7331:7333   */\n      0x20\n        /* \"#utility.yul\":7320:7329   */\n      dup3\n        /* \"#utility.yul\":7313:7334   */\n      mstore\n        /* \"#utility.yul\":7351:7397   */\n      tag_350\n        /* \"#utility.yul\":7393:7395   */\n      0x20\n        /* \"#utility.yul\":7382:7391   */\n      dup4\n        /* \"#utility.yul\":7378:7396   */\n      add\n        /* \"#utility.yul\":7370:7376   */\n      dup5\n        /* \"#utility.yul\":7351:7397   */\n      tag_531\n      jump\t// in\n        /* \"#utility.yul\":7408:7810   */\n    tag_329:\n        /* \"#utility.yul\":7610:7612   */\n      0x20\n        /* \"#utility.yul\":7592:7613   */\n      dup1\n      dup3\n      mstore\n        /* \"#utility.yul\":7649:7651   */\n      0x26\n        /* \"#utility.yul\":7629:7647   */\n      swap1\n      dup3\n      add\n        /* \"#utility.yul\":7622:7652   */\n      mstore\n        /* \"#utility.yul\":7688:7722   */\n      0x4f776e61626c653a206e6577206f776e657220697320746865207a65726f2061\n        /* \"#utility.yul\":7683:7685   */\n      0x40\n        /* \"#utility.yul\":7668:7686   */\n      dup3\n      add\n        /* \"#utility.yul\":7661:7723   */\n      mstore\n      shl(0xd0, 0x646472657373)\n        /* \"#utility.yul\":7754:7756   */\n      0x60\n        /* \"#utility.yul\":7739:7757   */\n      dup3\n      add\n        /* \"#utility.yul\":7732:7768   */\n      mstore\n        /* \"#utility.yul\":7800:7803   */\n      0x80\n        /* \"#utility.yul\":7785:7804   */\n      add\n      swap1\n        /* \"#utility.yul\":7582:7810   */\n      jump\t// out\n        /* \"#utility.yul\":7815:8215   */\n    tag_272:\n        /* \"#utility.yul\":8017:8019   */\n      0x20\n        /* \"#utility.yul\":7999:8020   */\n      dup1\n      dup3\n      mstore\n        /* \"#utility.yul\":8056:8058   */\n      0x24\n        /* \"#utility.yul\":8036:8054   */\n      swap1\n      dup3\n      add\n        /* \"#utility.yul\":8029:8059   */\n      mstore\n        /* \"#utility.yul\":8095:8129   */\n      0x6578656375746f723a2063616c6c6572206973206e6f74207468652065786563\n        /* \"#utility.yul\":8090:8092   */\n      0x40\n        /* \"#utility.yul\":8075:8093   */\n      dup3\n      add\n        /* \"#utility.yul\":8068:8130   */\n      mstore\n      shl(0xe1, 0x3aba37b9)\n        /* \"#utility.yul\":8161:8163   */\n      0x60\n        /* \"#utility.yul\":8146:8164   */\n      dup3\n      add\n        /* \"#utility.yul\":8139:8173   */\n      mstore\n        /* \"#utility.yul\":8205:8208   */\n      0x80\n        /* \"#utility.yul\":8190:8209   */\n      add\n      swap1\n        /* \"#utility.yul\":7989:8215   */\n      jump\t// out\n        /* \"#utility.yul\":8220:8622   */\n    tag_461:\n        /* \"#utility.yul\":8422:8424   */\n      0x20\n        /* \"#utility.yul\":8404:8425   */\n      dup1\n      dup3\n      mstore\n        /* \"#utility.yul\":8461:8463   */\n      0x26\n        /* \"#utility.yul\":8441:8459   */\n      swap1\n      dup3\n      add\n        /* \"#utility.yul\":8434:8464   */\n      mstore\n        /* \"#utility.yul\":8500:8534   */\n      0x416464726573733a20696e73756666696369656e742062616c616e636520666f\n        /* \"#utility.yul\":8495:8497   */\n      0x40\n        /* \"#utility.yul\":8480:8498   */\n      dup3\n      add\n        /* \"#utility.yul\":8473:8535   */\n      mstore\n      shl(0xd2, 0x1c8818d85b1b)\n        /* \"#utility.yul\":8566:8568   */\n      0x60\n        /* \"#utility.yul\":8551:8569   */\n      dup3\n      add\n        /* \"#utility.yul\":8544:8580   */\n      mstore\n        /* \"#utility.yul\":8612:8615   */\n      0x80\n        /* \"#utility.yul\":8597:8616   */\n      add\n      swap1\n        /* \"#utility.yul\":8394:8622   */\n      jump\t// out\n        /* \"#utility.yul\":8627:9037   */\n    tag_210:\n        /* \"#utility.yul\":8829:8831   */\n      0x20\n        /* \"#utility.yul\":8811:8832   */\n      dup1\n      dup3\n      mstore\n        /* \"#utility.yul\":8868:8870   */\n      0x2e\n        /* \"#utility.yul\":8848:8866   */\n      swap1\n      dup3\n      add\n        /* \"#utility.yul\":8841:8871   */\n      mstore\n        /* \"#utility.yul\":8907:8941   */\n      0x496e697469616c697a61626c653a20636f6e747261637420697320616c726561\n        /* \"#utility.yul\":8902:8904   */\n      0x40\n        /* \"#utility.yul\":8887:8905   */\n      dup3\n      add\n        /* \"#utility.yul\":8880:8942   */\n      mstore\n      shl(0x92, 0x191e481a5b9a5d1a585b1a5e9959)\n        /* \"#utility.yul\":8973:8975   */\n      0x60\n        /* \"#utility.yul\":8958:8976   */\n      dup3\n      add\n        /* \"#utility.yul\":8951:8995   */\n      mstore\n        /* \"#utility.yul\":9027:9030   */\n      0x80\n        /* \"#utility.yul\":9012:9031   */\n      add\n      swap1\n        /* \"#utility.yul\":8801:9037   */\n      jump\t// out\n        /* \"#utility.yul\":9042:9398   */\n    tag_192:\n        /* \"#utility.yul\":9244:9246   */\n      0x20\n        /* \"#utility.yul\":9226:9247   */\n      dup1\n      dup3\n      mstore\n        /* \"#utility.yul\":9263:9281   */\n      dup2\n      dup2\n      add\n        /* \"#utility.yul\":9256:9286   */\n      mstore\n        /* \"#utility.yul\":9322:9356   */\n      0x4f776e61626c653a2063616c6c6572206973206e6f7420746865206f776e6572\n        /* \"#utility.yul\":9317:9319   */\n      0x40\n        /* \"#utility.yul\":9302:9320   */\n      dup3\n      add\n        /* \"#utility.yul\":9295:9357   */\n      mstore\n        /* \"#utility.yul\":9389:9391   */\n      0x60\n        /* \"#utility.yul\":9374:9392   */\n      add\n      swap1\n        /* \"#utility.yul\":9216:9398   */\n      jump\t// out\n        /* \"#utility.yul\":9403:9756   */\n    tag_466:\n        /* \"#utility.yul\":9605:9607   */\n      0x20\n        /* \"#utility.yul\":9587:9608   */\n      dup1\n      dup3\n      mstore\n        /* \"#utility.yul\":9644:9646   */\n      0x1d\n        /* \"#utility.yul\":9624:9642   */\n      swap1\n      dup3\n      add\n        /* \"#utility.yul\":9617:9647   */\n      mstore\n        /* \"#utility.yul\":9683:9714   */\n      0x416464726573733a2063616c6c20746f206e6f6e2d636f6e7472616374000000\n        /* \"#utility.yul\":9678:9680   */\n      0x40\n        /* \"#utility.yul\":9663:9681   */\n      dup3\n      add\n        /* \"#utility.yul\":9656:9715   */\n      mstore\n        /* \"#utility.yul\":9747:9749   */\n      0x60\n        /* \"#utility.yul\":9732:9750   */\n      add\n      swap1\n        /* \"#utility.yul\":9577:9756   */\n      jump\t// out\n        /* \"#utility.yul\":9761:10167   */\n    tag_445:\n        /* \"#utility.yul\":9963:9965   */\n      0x20\n        /* \"#utility.yul\":9945:9966   */\n      dup1\n      dup3\n      mstore\n        /* \"#utility.yul\":10002:10004   */\n      0x2a\n        /* \"#utility.yul\":9982:10000   */\n      swap1\n      dup3\n      add\n        /* \"#utility.yul\":9975:10005   */\n      mstore\n        /* \"#utility.yul\":10041:10075   */\n      0x5361666545524332303a204552433230206f7065726174696f6e20646964206e\n        /* \"#utility.yul\":10036:10038   */\n      0x40\n        /* \"#utility.yul\":10021:10039   */\n      dup3\n      add\n        /* \"#utility.yul\":10014:10076   */\n      mstore\n      shl(0xb2, 0x1bdd081cdd58d8d95959)\n        /* \"#utility.yul\":10107:10109   */\n      0x60\n        /* \"#utility.yul\":10092:10110   */\n      dup3\n      add\n        /* \"#utility.yul\":10085:10125   */\n      mstore\n        /* \"#utility.yul\":10157:10160   */\n      0x80\n        /* \"#utility.yul\":10142:10161   */\n      add\n      swap1\n        /* \"#utility.yul\":9935:10167   */\n      jump\t// out\n        /* \"#utility.yul\":10172:10349   */\n    tag_50:\n        /* \"#utility.yul\":10318:10343   */\n      swap1\n      dup2\n      mstore\n        /* \"#utility.yul\":10306:10308   */\n      0x20\n        /* \"#utility.yul\":10291:10309   */\n      add\n      swap1\n        /* \"#utility.yul\":10273:10349   */\n      jump\t// out\n        /* \"#utility.yul\":10354:10814   */\n    tag_384:\n      0x00\n        /* \"#utility.yul\":10585:10591   */\n      dup6\n        /* \"#utility.yul\":10574:10583   */\n      dup3\n        /* \"#utility.yul\":10567:10592   */\n      mstore\n        /* \"#utility.yul\":10628:10634   */\n      dup5\n        /* \"#utility.yul\":10623:10625   */\n      0x20\n        /* \"#utility.yul\":10612:10621   */\n      dup4\n        /* \"#utility.yul\":10608:10626   */\n      add\n        /* \"#utility.yul\":10601:10635   */\n      mstore\n        /* \"#utility.yul\":10700:10701   */\n      0x01\n        /* \"#utility.yul\":10696:10697   */\n      dup1\n        /* \"#utility.yul\":10691:10694   */\n      0xa0\n        /* \"#utility.yul\":10687:10698   */\n      shl\n        /* \"#utility.yul\":10683:10702   */\n      sub\n        /* \"#utility.yul\":10675:10681   */\n      dup5\n        /* \"#utility.yul\":10671:10703   */\n      and\n        /* \"#utility.yul\":10666:10668   */\n      0x40\n        /* \"#utility.yul\":10655:10664   */\n      dup4\n        /* \"#utility.yul\":10651:10669   */\n      add\n        /* \"#utility.yul\":10644:10704   */\n      mstore\n        /* \"#utility.yul\":10740:10743   */\n      0x80\n        /* \"#utility.yul\":10735:10737   */\n      0x60\n        /* \"#utility.yul\":10724:10733   */\n      dup4\n        /* \"#utility.yul\":10720:10738   */\n      add\n        /* \"#utility.yul\":10713:10744   */\n      mstore\n        /* \"#utility.yul\":10761:10808   */\n      tag_556\n        /* \"#utility.yul\":10803:10806   */\n      0x80\n        /* \"#utility.yul\":10792:10801   */\n      dup4\n        /* \"#utility.yul\":10788:10807   */\n      add\n        /* \"#utility.yul\":10780:10786   */\n      dup5\n        /* \"#utility.yul\":10761:10808   */\n      tag_531\n      jump\t// in\n    tag_556:\n        /* \"#utility.yul\":10753:10808   */\n      swap7\n        /* \"#utility.yul\":10557:10814   */\n      swap6\n      pop\n      pop\n      pop\n      pop\n      pop\n      pop\n      jump\t// out\n        /* \"#utility.yul\":10819:11148   */\n    tag_418:\n        /* \"#utility.yul\":11015:11040   */\n      swap3\n      dup4\n      mstore\n        /* \"#utility.yul\":11071:11073   */\n      0x20\n        /* \"#utility.yul\":11056:11074   */\n      dup4\n      add\n        /* \"#utility.yul\":11049:11083   */\n      swap2\n      swap1\n      swap2\n      mstore\n        /* \"#utility.yul\":11126:11140   */\n      iszero\n        /* \"#utility.yul\":11119:11141   */\n      iszero\n        /* \"#utility.yul\":11114:11116   */\n      0x40\n        /* \"#utility.yul\":11099:11117   */\n      dup3\n      add\n        /* \"#utility.yul\":11092:11142   */\n      mstore\n        /* \"#utility.yul\":11003:11005   */\n      0x60\n        /* \"#utility.yul\":10988:11006   */\n      add\n      swap1\n        /* \"#utility.yul\":10970:11148   */\n      jump\t// out\n        /* \"#utility.yul\":11153:11281   */\n    tag_454:\n      0x00\n        /* \"#utility.yul\":11224:11225   */\n      dup3\n        /* \"#utility.yul\":11220:11226   */\n      not\n        /* \"#utility.yul\":11217:11218   */\n      dup3\n        /* \"#utility.yul\":11214:11227   */\n      gt\n        /* \"#utility.yul\":11211:11213   */\n      iszero\n      tag_560\n      jumpi\n        /* \"#utility.yul\":11230:11248   */\n      tag_560\n      tag_561\n      jump\t// in\n    tag_560:\n      pop\n        /* \"#utility.yul\":11266:11275   */\n      add\n      swap1\n        /* \"#utility.yul\":11201:11281   */\n      jump\t// out\n        /* \"#utility.yul\":11286:11503   */\n    tag_354:\n      0x00\n        /* \"#utility.yul\":11352:11353   */\n      dup3\n        /* \"#utility.yul\":11342:11344   */\n      tag_563\n      jumpi\n      shl(0xe0, 0x4e487b71)\n        /* \"#utility.yul\":11377:11408   */\n      dup2\n      mstore\n        /* \"#utility.yul\":11431:11435   */\n      0x12\n        /* \"#utility.yul\":11428:11429   */\n      0x04\n        /* \"#utility.yul\":11421:11436   */\n      mstore\n        /* \"#utility.yul\":11459:11463   */\n      0x24\n        /* \"#utility.yul\":11384:11385   */\n      dup2\n        /* \"#utility.yul\":11449:11464   */\n      revert\n        /* \"#utility.yul\":11342:11344   */\n    tag_563:\n      pop\n        /* \"#utility.yul\":11488:11497   */\n      div\n      swap1\n        /* \"#utility.yul\":11332:11503   */\n      jump\t// out\n        /* \"#utility.yul\":11508:11676   */\n    tag_351:\n      0x00\n        /* \"#utility.yul\":11614:11615   */\n      dup2\n        /* \"#utility.yul\":11610:11611   */\n      0x00\n        /* \"#utility.yul\":11606:11612   */\n      not\n        /* \"#utility.yul\":11602:11616   */\n      div\n        /* \"#utility.yul\":11599:11600   */\n      dup4\n        /* \"#utility.yul\":11596:11617   */\n      gt\n        /* \"#utility.yul\":11591:11592   */\n      dup3\n        /* \"#utility.yul\":11584:11593   */\n      iszero\n        /* \"#utility.yul\":11577:11594   */\n      iszero\n        /* \"#utility.yul\":11573:11618   */\n      and\n        /* \"#utility.yul\":11570:11572   */\n      iszero\n      tag_566\n      jumpi\n        /* \"#utility.yul\":11621:11639   */\n      tag_566\n      tag_561\n      jump\t// in\n    tag_566:\n      pop\n        /* \"#utility.yul\":11661:11670   */\n      mul\n      swap1\n        /* \"#utility.yul\":11560:11676   */\n      jump\t// out\n        /* \"#utility.yul\":11681:11806   */\n    tag_357:\n      0x00\n        /* \"#utility.yul\":11749:11750   */\n      dup3\n        /* \"#utility.yul\":11746:11747   */\n      dup3\n        /* \"#utility.yul\":11743:11751   */\n      lt\n        /* \"#utility.yul\":11740:11742   */\n      iszero\n      tag_569\n      jumpi\n        /* \"#utility.yul\":11754:11772   */\n      tag_569\n      tag_561\n      jump\t// in\n    tag_569:\n      pop\n        /* \"#utility.yul\":11791:11800   */\n      sub\n      swap1\n        /* \"#utility.yul\":11730:11806   */\n      jump\t// out\n        /* \"#utility.yul\":11811:12069   */\n    tag_534:\n        /* \"#utility.yul\":11883:11884   */\n      0x00\n        /* \"#utility.yul\":11893:12006   */\n    tag_571:\n        /* \"#utility.yul\":11907:11913   */\n      dup4\n        /* \"#utility.yul\":11904:11905   */\n      dup2\n        /* \"#utility.yul\":11901:11914   */\n      lt\n        /* \"#utility.yul\":11893:12006   */\n      iszero\n      tag_573\n      jumpi\n        /* \"#utility.yul\":11983:11994   */\n      dup2\n      dup2\n      add\n        /* \"#utility.yul\":11977:11995   */\n      mload\n        /* \"#utility.yul\":11964:11975   */\n      dup4\n      dup3\n      add\n        /* \"#utility.yul\":11957:11996   */\n      mstore\n        /* \"#utility.yul\":11929:11931   */\n      0x20\n        /* \"#utility.yul\":11922:11932   */\n      add\n        /* \"#utility.yul\":11893:12006   */\n      jump(tag_571)\n    tag_573:\n        /* \"#utility.yul\":12024:12030   */\n      dup4\n        /* \"#utility.yul\":12021:12022   */\n      dup2\n        /* \"#utility.yul\":12018:12031   */\n      gt\n        /* \"#utility.yul\":12015:12017   */\n      iszero\n      tag_574\n      jumpi\n        /* \"#utility.yul\":12059:12060   */\n      0x00\n        /* \"#utility.yul\":12050:12056   */\n      dup5\n        /* \"#utility.yul\":12045:12048   */\n      dup5\n        /* \"#utility.yul\":12041:12057   */\n      add\n        /* \"#utility.yul\":12034:12061   */\n      mstore\n        /* \"#utility.yul\":12015:12017   */\n    tag_574:\n      pop\n        /* \"#utility.yul\":11864:12069   */\n      pop\n      pop\n      pop\n      jump\t// out\n        /* \"#utility.yul\":12074:12201   */\n    tag_561:\n        /* \"#utility.yul\":12135:12145   */\n      0x4e487b71\n        /* \"#utility.yul\":12130:12133   */\n      0xe0\n        /* \"#utility.yul\":12126:12146   */\n      shl\n        /* \"#utility.yul\":12123:12124   */\n      0x00\n        /* \"#utility.yul\":12116:12147   */\n      mstore\n        /* \"#utility.yul\":12166:12170   */\n      0x11\n        /* \"#utility.yul\":12163:12164   */\n      0x04\n        /* \"#utility.yul\":12156:12171   */\n      mstore\n        /* \"#utility.yul\":12190:12194   */\n      0x24\n        /* \"#utility.yul\":12187:12188   */\n      0x00\n        /* \"#utility.yul\":12180:12195   */\n      revert\n        /* \"#utility.yul\":12206:12339   */\n    tag_489:\n      sub(shl(0xa0, 0x01), 0x01)\n        /* \"#utility.yul\":12283:12314   */\n      dup2\n      and\n        /* \"#utility.yul\":12273:12315   */\n      dup2\n      eq\n        /* \"#utility.yul\":12263:12265   */\n      tag_330\n      jumpi\n        /* \"#utility.yul\":12329:12330   */\n      0x00\n        /* \"#utility.yul\":12326:12327   */\n      dup1\n        /* \"#utility.yul\":12319:12331   */\n      revert\n        /* \"#utility.yul\":12344:12464   */\n    tag_497:\n        /* \"#utility.yul\":12432:12437   */\n      dup1\n        /* \"#utility.yul\":12425:12438   */\n      iszero\n        /* \"#utility.yul\":12418:12439   */\n      iszero\n        /* \"#utility.yul\":12411:12416   */\n      dup2\n        /* \"#utility.yul\":12408:12440   */\n      eq\n        /* \"#utility.yul\":12398:12400   */\n      tag_330\n      jumpi\n        /* \"#utility.yul\":12454:12455   */\n      0x00\n        /* \"#utility.yul\":12451:12452   */\n      dup1\n        /* \"#utility.yul\":12444:12456   */\n      revert\n\n    auxdata: 0xa2646970667358221220fbc23560dd9cbae10de5bf96724ef02d2bc3d26b6fbc713203c9d35c81bc529164736f6c63430008000033\n}\n",
				"bytecode": {
					"linkReferences": {},
					"object": "608060405234801561001057600080fd5b50611d6a806100206000396000f3fe608060405234801561001057600080fd5b50600436106102275760003560e01c80638da5cb5b11610130578063bd0b1f44116100b8578063db7f521a1161007c578063db7f521a146103f8578063ec1f1f691461040b578063f106845414610413578063f2fde38b1461041b578063f6d7eade1461042e57610227565b8063bd0b1f44146103ba578063c83dd231146103c2578063d10c06a2146103ca578063d477f05f146103d2578063d4f26c51146103e557610227565b8063a36a7526116100ff578063a36a752614610371578063aaf5bfc314610384578063aaf5eb6814610397578063af5518c41461039f578063b8bb97a1146103b257610227565b80638da5cb5b1461034657806391cca3db1461034e578063930ed033146103565780639da5b0d51461036957610227565b80633e413bee116101b35780634ecaac41116101825780634ecaac411461031357806355c746d11461031b57806358de5de81461032e578063715018a6146103365780637e47961c1461033e57610227565b80633e413bee146102dd5780634591db50146102e557806348c7e528146102f85780634ae6a0271461030b57610227565b80632c535a52116101fa5780632c535a52146102905780633011d3d51461029857806335876476146102ad57806336e9332d146102c25780633c850e1e146102ca57610227565b806316d039931461022c5780631b0d8aab1461024a5780631e1bff3f1461026a57806327c42a501461027d575b600080fd5b610234610436565b6040516102419190611c05565b60405180910390f35b61025d610258366004611954565b61043c565b6040516102419190611a13565b61025d6102783660046117d6565b610494565b61025d61028b366004611954565b610504565b61023461054e565b6102a0610554565b60405161024191906119cc565b6102c06102bb366004611871565b610563565b005b6102a06106a2565b61025d6102d8366004611954565b6106b1565b6102a06106fb565b61025d6102f3366004611839565b61070a565b61025d61030636600461179e565b61076c565b610234610781565b6102a0610787565b61025d610329366004611839565b610796565b61025d6107f8565b6102c0610808565b6102a0610853565b6102a0610862565b6102a0610871565b61025d61036436600461180e565b610880565b61025d6108de565b61025d61037f36600461179e565b6108ee565b61025d61039236600461179e565b610954565b6102346109ba565b61025d6103ad366004611954565b6109c0565b6102a0610a0a565b610234610a19565b6102a0610a1f565b61025d610a2e565b61025d6103e036600461179e565b610c63565b61025d6103f336600461179e565b610cc9565b61025d61040636600461179e565b610d2f565b6102a0610d95565b610234610da4565b6102c061042936600461179e565b610daa565b6102a0610e1b565b60725481565b6000610446610e2a565b6001600160a01b0316610457610862565b6001600160a01b0316146104865760405162461bcd60e51b815260040161047d90611b4f565b60405180910390fd5b50607381905560015b919050565b600061049e610e2a565b6001600160a01b03166104af610862565b6001600160a01b0316146104d55760405162461bcd60e51b815260040161047d90611b4f565b506001600160a01b0382166000908152606560205260409020805482151560ff19909116179055600192915050565b600061050e610e2a565b6001600160a01b031661051f610862565b6001600160a01b0316146105455760405162461bcd60e51b815260040161047d90611b4f565b50606e55600190565b606f5481565b6066546001600160a01b031681565b600054610100900460ff168061057c575060005460ff16155b6105985760405162461bcd60e51b815260040161047d90611b01565b600054610100900460ff161580156105c3576000805460ff1961ff0019909116610100171660011790555b6105cb610e2e565b606c80546001600160a01b03199081166001600160a01b038a811691909117909255606d805482168b8416179055606680548216898416179055606880548216878416179055606980548216868416179055606a8054339083168117909155606b805483169091179055611388606e556109c4606f8190556070556127106071556103e860725560748054600160a01b60ff60a01b1990911617600161ff0160a01b031916858416179055606780549091169187169190911790558015610698576000805461ff00191690555b5050505050505050565b6074546001600160a01b031681565b60006106bb610e2a565b6001600160a01b03166106cc610862565b6001600160a01b0316146106f25760405162461bcd60e51b815260040161047d90611b4f565b50607055600190565b6067546001600160a01b031681565b6000610714610e2a565b6001600160a01b0316610725610862565b6001600160a01b03161461074b5760405162461bcd60e51b815260040161047d90611b4f565b5060748054821515600160a01b0260ff60a01b199091161790556001919050565b60656020526000908152604090205460ff1681565b60705481565b6068546001600160a01b031681565b60006107a0610e2a565b6001600160a01b03166107b1610862565b6001600160a01b0316146107d75760405162461bcd60e51b815260040161047d90611b4f565b5060748054821515600160a81b0260ff60a81b199091161790556001919050565b607454600160a81b900460ff1681565b610810610e2a565b6001600160a01b0316610821610862565b6001600160a01b0316146108475760405162461bcd60e51b815260040161047d90611b4f565b6108516000610eb2565b565b6075546001600160a01b031681565b6033546001600160a01b031690565b606b546001600160a01b031681565b600061088a610e2a565b6001600160a01b031661089b610862565b6001600160a01b0316146108c15760405162461bcd60e51b815260040161047d90611b4f565b6108d56001600160a01b0384163384610f04565b50600192915050565b607454600160a01b900460ff1681565b60006108f8610e2a565b6001600160a01b0316610909610862565b6001600160a01b03161461092f5760405162461bcd60e51b815260040161047d90611b4f565b50606a80546001600160a01b0383166001600160a01b03199091161790556001919050565b600061095e610e2a565b6001600160a01b031661096f610862565b6001600160a01b0316146109955760405162461bcd60e51b815260040161047d90611b4f565b50606780546001600160a01b0383166001600160a01b03199091161790556001919050565b60715481565b60006109ca610e2a565b6001600160a01b03166109db610862565b6001600160a01b031614610a015760405162461bcd60e51b815260040161047d90611b4f565b50606f55600190565b6069546001600160a01b031681565b606e5481565b606d546001600160a01b031681565b3360009081526065602052604081205460ff16610a5d5760405162461bcd60e51b815260040161047d90611a77565b6066546040516370a0823160e01b81526000916001600160a01b0316906370a0823190610a8e9030906004016119cc565b60206040518083038186803b158015610aa657600080fd5b505afa158015610aba573d6000803e3d6000fd5b505050506040513d601f19601f82011682018060405250810190610ade919061196c565b90506000610b03607154610afd606e5485610f5f90919063ffffffff16565b90610f72565b90506000610b22607154610afd606f5486610f5f90919063ffffffff16565b90506000610b3a82610b348686610f7e565b90610f7e565b90506000610b4784610f8a565b606954606854919250610b67916001600160a01b03908116911683610f04565b606a54606654610b84916001600160a01b03918216911685610f04565b606b54606654610ba1916001600160a01b03918216911684610f04565b607454600160a01b900460ff1615610bbb57610bbb611201565b607454600160a81b900460ff1615610c5757607560009054906101000a90046001600160a01b03166001600160a01b031663796c7be76040518163ffffffff1660e01b8152600401602060405180830381600087803b158015610c1d57600080fd5b505af1158015610c31573d6000803e3d6000fd5b505050506040513d601f19601f82011682018060405250810190610c559190611855565b505b60019550505050505090565b6000610c6d610e2a565b6001600160a01b0316610c7e610862565b6001600160a01b031614610ca45760405162461bcd60e51b815260040161047d90611b4f565b50606b80546001600160a01b0383166001600160a01b03199091161790556001919050565b6000610cd3610e2a565b6001600160a01b0316610ce4610862565b6001600160a01b031614610d0a5760405162461bcd60e51b815260040161047d90611b4f565b50607480546001600160a01b0383166001600160a01b03199091161790556001919050565b6000610d39610e2a565b6001600160a01b0316610d4a610862565b6001600160a01b031614610d705760405162461bcd60e51b815260040161047d90611b4f565b50607580546001600160a01b0383166001600160a01b03199091161790556001919050565b606a546001600160a01b031681565b60735481565b610db2610e2a565b6001600160a01b0316610dc3610862565b6001600160a01b031614610de95760405162461bcd60e51b815260040161047d90611b4f565b6001600160a01b038116610e0f5760405162461bcd60e51b815260040161047d90611a31565b610e1881610eb2565b50565b606c546001600160a01b031681565b3390565b600054610100900460ff1680610e47575060005460ff16155b610e635760405162461bcd60e51b815260040161047d90611b01565b600054610100900460ff16158015610e8e576000805460ff1961ff0019909116610100171660011790555b610e966114b0565b610e9e611523565b8015610e18576000805461ff001916905550565b603380546001600160a01b038381166001600160a01b0319831681179093556040519116919082907f8be0079c531659141344cd1fd0a4f28419497f9722a3daafe3b4186f6b6457e090600090a35050565b610f5a8363a9059cbb60e01b8484604051602401610f239291906119fa565b60408051601f198184030181529190526020810180516001600160e01b03166001600160e01b031990931692909217909152611593565b505050565b6000610f6b8284611c95565b9392505050565b6000610f6b8284611c75565b6000610f6b8284611cb4565b606d5460685460665460405163e6a4390560e01b815260009384936001600160a01b039182169363e6a4390593610fcb9392831692909116906004016119e0565b60206040518083038186803b158015610fe357600080fd5b505afa158015610ff7573d6000803e3d6000fd5b505050506040513d601f19601f8201168201806040525081019061101b91906117ba565b9050600080826001600160a01b0316630902f1ac6040518163ffffffff1660e01b815260040160606040518083038186803b15801561105957600080fd5b505afa15801561106d573d6000803e3d6000fd5b505050506040513d601f19601f820116820180604052508101906110919190611906565b506001600160701b031691506001600160701b031691506000836001600160a01b0316630dfe16816040518163ffffffff1660e01b815260040160206040518083038186803b1580156110e357600080fd5b505afa1580156110f7573d6000803e3d6000fd5b505050506040513d601f19601f8201168201806040525081019061111b91906117ba565b60665490915060009081906001600160a01b0380851691161461113f578385611142565b84845b915091506000611153898484611622565b60665490915060009081906001600160a01b038781169116146111785782600061117c565b6000835b6040805160008152602081019182905263022c0d9f60e01b90915291935091506001600160a01b038a169063022c0d9f906111c09085908590309060248101611c0e565b600060405180830381600087803b1580156111da57600080fd5b505af11580156111ee573d6000803e3d6000fd5b50949d9c50505050505050505050505050565b606d5460675460665460405163e6a4390560e01b81526000936001600160a01b039081169363e6a439059361123e939183169216906004016119e0565b60206040518083038186803b15801561125657600080fd5b505afa15801561126a573d6000803e3d6000fd5b505050506040513d601f19601f8201168201806040525081019061128e91906117ba565b6066546040516370a0823160e01b81529192506000916001600160a01b03909116906370a08231906112c49085906004016119cc565b60206040518083038186803b1580156112dc57600080fd5b505afa1580156112f0573d6000803e3d6000fd5b505050506040513d601f19601f82011682018060405250810190611314919061196c565b6067546040516370a0823160e01b81529192506000916001600160a01b03909116906370a082319061134a9086906004016119cc565b60206040518083038186803b15801561136257600080fd5b505afa158015611376573d6000803e3d6000fd5b505050506040513d601f19601f8201168201806040525081019061139a919061196c565b9050670de0b6b3a764000060006113b584610afd8585610f5f565b9050600080670de0b6b3a7640000831115611410576113e6655af3107a4000610afd85670de0b6b3a7640000610f7e565b90506072548111156113fb576000915061140b565b6072546114089082610f7e565b91505b61143f565b61142c655af3107a4000610afd85670de0b6b3a7640000611cb4565b60725490915061143c9082611670565b91505b60745460735460405163236535f560e11b81526001600160a01b03909216916346ca6bea91611475918690600190600401611c45565b600060405180830381600087803b15801561148f57600080fd5b505af11580156114a3573d6000803e3d6000fd5b5050505050505050505050565b600054610100900460ff16806114c9575060005460ff16155b6114e55760405162461bcd60e51b815260040161047d90611b01565b600054610100900460ff16158015610e9e576000805460ff1961ff0019909116610100171660011790558015610e18576000805461ff001916905550565b600054610100900460ff168061153c575060005460ff16155b6115585760405162461bcd60e51b815260040161047d90611b01565b600054610100900460ff16158015611583576000805460ff1961ff0019909116610100171660011790555b610e9e61158e610e2a565b610eb2565b60006115e8826040518060400160405280602081526020017f5361666545524332303a206c6f772d6c6576656c2063616c6c206661696c6564815250856001600160a01b031661167c9092919063ffffffff16565b805190915015610f5a57808060200190518101906116069190611855565b610f5a5760405162461bcd60e51b815260040161047d90611bbb565b600080611631856126f2610f5f565b9050600061163f8285610f5f565b905060006116598361165388612710610f5f565b90611670565b90506116658183611c75565b979650505050505050565b6000610f6b8284611c5d565b606061168b8484600085611693565b949350505050565b6060824710156116b55760405162461bcd60e51b815260040161047d90611abb565b6116be85611748565b6116da5760405162461bcd60e51b815260040161047d90611b84565b600080866001600160a01b031685876040516116f691906119b0565b60006040518083038185875af1925050503d8060008114611733576040519150601f19603f3d011682016040523d82523d6000602084013e611738565b606091505b509150915061166582828661174e565b3b151590565b6060831561175d575081610f6b565b82511561176d5782518084602001fd5b8160405162461bcd60e51b815260040161047d9190611a1e565b80516001600160701b038116811461048f57600080fd5b6000602082840312156117af578081fd5b8135610f6b81611d11565b6000602082840312156117cb578081fd5b8151610f6b81611d11565b600080604083850312156117e8578081fd5b82356117f381611d11565b9150602083013561180381611d26565b809150509250929050565b60008060408385031215611820578182fd5b823561182b81611d11565b946020939093013593505050565b60006020828403121561184a578081fd5b8135610f6b81611d26565b600060208284031215611866578081fd5b8151610f6b81611d26565b600080600080600080600060e0888a03121561188b578283fd5b873561189681611d11565b965060208801356118a681611d11565b955060408801356118b681611d11565b945060608801356118c681611d11565b935060808801356118d681611d11565b925060a08801356118e681611d11565b915060c08801356118f681611d11565b8091505092959891949750929550565b60008060006060848603121561191a578283fd5b61192384611787565b925061193160208501611787565b9150604084015163ffffffff81168114611949578182fd5b809150509250925092565b600060208284031215611965578081fd5b5035919050565b60006020828403121561197d578081fd5b5051919050565b6000815180845261199c816020860160208601611ccb565b601f01601f19169290920160200192915050565b600082516119c2818460208701611ccb565b9190910192915050565b6001600160a01b0391909116815260200190565b6001600160a01b0392831681529116602082015260400190565b6001600160a01b03929092168252602082015260400190565b901515815260200190565b600060208252610f6b6020830184611984565b60208082526026908201527f4f776e61626c653a206e6577206f776e657220697320746865207a65726f206160408201526564647265737360d01b606082015260800190565b60208082526024908201527f6578656375746f723a2063616c6c6572206973206e6f742074686520657865636040820152633aba37b960e11b606082015260800190565b60208082526026908201527f416464726573733a20696e73756666696369656e742062616c616e636520666f6040820152651c8818d85b1b60d21b606082015260800190565b6020808252602e908201527f496e697469616c697a61626c653a20636f6e747261637420697320616c72656160408201526d191e481a5b9a5d1a585b1a5e995960921b606082015260800190565b6020808252818101527f4f776e61626c653a2063616c6c6572206973206e6f7420746865206f776e6572604082015260600190565b6020808252601d908201527f416464726573733a2063616c6c20746f206e6f6e2d636f6e7472616374000000604082015260600190565b6020808252602a908201527f5361666545524332303a204552433230206f7065726174696f6e20646964206e6040820152691bdd081cdd58d8d9595960b21b606082015260800190565b90815260200190565b600085825284602083015260018060a01b038416604083015260806060830152611c3b6080830184611984565b9695505050505050565b92835260208301919091521515604082015260600190565b60008219821115611c7057611c70611cfb565b500190565b600082611c9057634e487b7160e01b81526012600452602481fd5b500490565b6000816000190483118215151615611caf57611caf611cfb565b500290565b600082821015611cc657611cc6611cfb565b500390565b60005b83811015611ce6578181015183820152602001611cce565b83811115611cf5576000848401525b50505050565b634e487b7160e01b600052601160045260246000fd5b6001600160a01b0381168114610e1857600080fd5b8015158114610e1857600080fdfea2646970667358221220fbc23560dd9cbae10de5bf96724ef02d2bc3d26b6fbc713203c9d35c81bc529164736f6c63430008000033",
					"opcodes": "PUSH1 0x80 PUSH1 0x40 MSTORE CALLVALUE DUP1 ISZERO PUSH2 0x10 JUMPI PUSH1 0x0 DUP1 REVERT JUMPDEST POP PUSH2 0x1D6A DUP1 PUSH2 0x20 PUSH1 0x0 CODECOPY PUSH1 0x0 RETURN INVALID PUSH1 0x80 PUSH1 0x40 MSTORE CALLVALUE DUP1 ISZERO PUSH2 0x10 JUMPI PUSH1 0x0 DUP1 REVERT JUMPDEST POP PUSH1 0x4 CALLDATASIZE LT PUSH2 0x227 JUMPI PUSH1 0x0 CALLDATALOAD PUSH1 0xE0 SHR DUP1 PUSH4 0x8DA5CB5B GT PUSH2 0x130 JUMPI DUP1 PUSH4 0xBD0B1F44 GT PUSH2 0xB8 JUMPI DUP1 PUSH4 0xDB7F521A GT PUSH2 0x7C JUMPI DUP1 PUSH4 0xDB7F521A EQ PUSH2 0x3F8 JUMPI DUP1 PUSH4 0xEC1F1F69 EQ PUSH2 0x40B JUMPI DUP1 PUSH4 0xF1068454 EQ PUSH2 0x413 JUMPI DUP1 PUSH4 0xF2FDE38B EQ PUSH2 0x41B JUMPI DUP1 PUSH4 0xF6D7EADE EQ PUSH2 0x42E JUMPI PUSH2 0x227 JUMP JUMPDEST DUP1 PUSH4 0xBD0B1F44 EQ PUSH2 0x3BA JUMPI DUP1 PUSH4 0xC83DD231 EQ PUSH2 0x3C2 JUMPI DUP1 PUSH4 0xD10C06A2 EQ PUSH2 0x3CA JUMPI DUP1 PUSH4 0xD477F05F EQ PUSH2 0x3D2 JUMPI DUP1 PUSH4 0xD4F26C51 EQ PUSH2 0x3E5 JUMPI PUSH2 0x227 JUMP JUMPDEST DUP1 PUSH4 0xA36A7526 GT PUSH2 0xFF JUMPI DUP1 PUSH4 0xA36A7526 EQ PUSH2 0x371 JUMPI DUP1 PUSH4 0xAAF5BFC3 EQ PUSH2 0x384 JUMPI DUP1 PUSH4 0xAAF5EB68 EQ PUSH2 0x397 JUMPI DUP1 PUSH4 0xAF5518C4 EQ PUSH2 0x39F JUMPI DUP1 PUSH4 0xB8BB97A1 EQ PUSH2 0x3B2 JUMPI PUSH2 0x227 JUMP JUMPDEST DUP1 PUSH4 0x8DA5CB5B EQ PUSH2 0x346 JUMPI DUP1 PUSH4 0x91CCA3DB EQ PUSH2 0x34E JUMPI DUP1 PUSH4 0x930ED033 EQ PUSH2 0x356 JUMPI DUP1 PUSH4 0x9DA5B0D5 EQ PUSH2 0x369 JUMPI PUSH2 0x227 JUMP JUMPDEST DUP1 PUSH4 0x3E413BEE GT PUSH2 0x1B3 JUMPI DUP1 PUSH4 0x4ECAAC41 GT PUSH2 0x182 JUMPI DUP1 PUSH4 0x4ECAAC41 EQ PUSH2 0x313 JUMPI DUP1 PUSH4 0x55C746D1 EQ PUSH2 0x31B JUMPI DUP1 PUSH4 0x58DE5DE8 EQ PUSH2 0x32E JUMPI DUP1 PUSH4 0x715018A6 EQ PUSH2 0x336 JUMPI DUP1 PUSH4 0x7E47961C EQ PUSH2 0x33E JUMPI PUSH2 0x227 JUMP JUMPDEST DUP1 PUSH4 0x3E413BEE EQ PUSH2 0x2DD JUMPI DUP1 PUSH4 0x4591DB50 EQ PUSH2 0x2E5 JUMPI DUP1 PUSH4 0x48C7E528 EQ PUSH2 0x2F8 JUMPI DUP1 PUSH4 0x4AE6A027 EQ PUSH2 0x30B JUMPI PUSH2 0x227 JUMP JUMPDEST DUP1 PUSH4 0x2C535A52 GT PUSH2 0x1FA JUMPI DUP1 PUSH4 0x2C535A52 EQ PUSH2 0x290 JUMPI DUP1 PUSH4 0x3011D3D5 EQ PUSH2 0x298 JUMPI DUP1 PUSH4 0x35876476 EQ PUSH2 0x2AD JUMPI DUP1 PUSH4 0x36E9332D EQ PUSH2 0x2C2 JUMPI DUP1 PUSH4 0x3C850E1E EQ PUSH2 0x2CA JUMPI PUSH2 0x227 JUMP JUMPDEST DUP1 PUSH4 0x16D03993 EQ PUSH2 0x22C JUMPI DUP1 PUSH4 0x1B0D8AAB EQ PUSH2 0x24A JUMPI DUP1 PUSH4 0x1E1BFF3F EQ PUSH2 0x26A JUMPI DUP1 PUSH4 0x27C42A50 EQ PUSH2 0x27D JUMPI JUMPDEST PUSH1 0x0 DUP1 REVERT JUMPDEST PUSH2 0x234 PUSH2 0x436 JUMP JUMPDEST PUSH1 0x40 MLOAD PUSH2 0x241 SWAP2 SWAP1 PUSH2 0x1C05 JUMP JUMPDEST PUSH1 0x40 MLOAD DUP1 SWAP2 SUB SWAP1 RETURN JUMPDEST PUSH2 0x25D PUSH2 0x258 CALLDATASIZE PUSH1 0x4 PUSH2 0x1954 JUMP JUMPDEST PUSH2 0x43C JUMP JUMPDEST PUSH1 0x40 MLOAD PUSH2 0x241 SWAP2 SWAP1 PUSH2 0x1A13 JUMP JUMPDEST PUSH2 0x25D PUSH2 0x278 CALLDATASIZE PUSH1 0x4 PUSH2 0x17D6 JUMP JUMPDEST PUSH2 0x494 JUMP JUMPDEST PUSH2 0x25D PUSH2 0x28B CALLDATASIZE PUSH1 0x4 PUSH2 0x1954 JUMP JUMPDEST PUSH2 0x504 JUMP JUMPDEST PUSH2 0x234 PUSH2 0x54E JUMP JUMPDEST PUSH2 0x2A0 PUSH2 0x554 JUMP JUMPDEST PUSH1 0x40 MLOAD PUSH2 0x241 SWAP2 SWAP1 PUSH2 0x19CC JUMP JUMPDEST PUSH2 0x2C0 PUSH2 0x2BB CALLDATASIZE PUSH1 0x4 PUSH2 0x1871 JUMP JUMPDEST PUSH2 0x563 JUMP JUMPDEST STOP JUMPDEST PUSH2 0x2A0 PUSH2 0x6A2 JUMP JUMPDEST PUSH2 0x25D PUSH2 0x2D8 CALLDATASIZE PUSH1 0x4 PUSH2 0x1954 JUMP JUMPDEST PUSH2 0x6B1 JUMP JUMPDEST PUSH2 0x2A0 PUSH2 0x6FB JUMP JUMPDEST PUSH2 0x25D PUSH2 0x2F3 CALLDATASIZE PUSH1 0x4 PUSH2 0x1839 JUMP JUMPDEST PUSH2 0x70A JUMP JUMPDEST PUSH2 0x25D PUSH2 0x306 CALLDATASIZE PUSH1 0x4 PUSH2 0x179E JUMP JUMPDEST PUSH2 0x76C JUMP JUMPDEST PUSH2 0x234 PUSH2 0x781 JUMP JUMPDEST PUSH2 0x2A0 PUSH2 0x787 JUMP JUMPDEST PUSH2 0x25D PUSH2 0x329 CALLDATASIZE PUSH1 0x4 PUSH2 0x1839 JUMP JUMPDEST PUSH2 0x796 JUMP JUMPDEST PUSH2 0x25D PUSH2 0x7F8 JUMP JUMPDEST PUSH2 0x2C0 PUSH2 0x808 JUMP JUMPDEST PUSH2 0x2A0 PUSH2 0x853 JUMP JUMPDEST PUSH2 0x2A0 PUSH2 0x862 JUMP JUMPDEST PUSH2 0x2A0 PUSH2 0x871 JUMP JUMPDEST PUSH2 0x25D PUSH2 0x364 CALLDATASIZE PUSH1 0x4 PUSH2 0x180E JUMP JUMPDEST PUSH2 0x880 JUMP JUMPDEST PUSH2 0x25D PUSH2 0x8DE JUMP JUMPDEST PUSH2 0x25D PUSH2 0x37F CALLDATASIZE PUSH1 0x4 PUSH2 0x179E JUMP JUMPDEST PUSH2 0x8EE JUMP JUMPDEST PUSH2 0x25D PUSH2 0x392 CALLDATASIZE PUSH1 0x4 PUSH2 0x179E JUMP JUMPDEST PUSH2 0x954 JUMP JUMPDEST PUSH2 0x234 PUSH2 0x9BA JUMP JUMPDEST PUSH2 0x25D PUSH2 0x3AD CALLDATASIZE PUSH1 0x4 PUSH2 0x1954 JUMP JUMPDEST PUSH2 0x9C0 JUMP JUMPDEST PUSH2 0x2A0 PUSH2 0xA0A JUMP JUMPDEST PUSH2 0x234 PUSH2 0xA19 JUMP JUMPDEST PUSH2 0x2A0 PUSH2 0xA1F JUMP JUMPDEST PUSH2 0x25D PUSH2 0xA2E JUMP JUMPDEST PUSH2 0x25D PUSH2 0x3E0 CALLDATASIZE PUSH1 0x4 PUSH2 0x179E JUMP JUMPDEST PUSH2 0xC63 JUMP JUMPDEST PUSH2 0x25D PUSH2 0x3F3 CALLDATASIZE PUSH1 0x4 PUSH2 0x179E JUMP JUMPDEST PUSH2 0xCC9 JUMP JUMPDEST PUSH2 0x25D PUSH2 0x406 CALLDATASIZE PUSH1 0x4 PUSH2 0x179E JUMP JUMPDEST PUSH2 0xD2F JUMP JUMPDEST PUSH2 0x2A0 PUSH2 0xD95 JUMP JUMPDEST PUSH2 0x234 PUSH2 0xDA4 JUMP JUMPDEST PUSH2 0x2C0 PUSH2 0x429 CALLDATASIZE PUSH1 0x4 PUSH2 0x179E JUMP JUMPDEST PUSH2 0xDAA JUMP JUMPDEST PUSH2 0x2A0 PUSH2 0xE1B JUMP JUMPDEST PUSH1 0x72 SLOAD DUP2 JUMP JUMPDEST PUSH1 0x0 PUSH2 0x446 PUSH2 0xE2A JUMP JUMPDEST PUSH1 0x1 PUSH1 0x1 PUSH1 0xA0 SHL SUB AND PUSH2 0x457 PUSH2 0x862 JUMP JUMPDEST PUSH1 0x1 PUSH1 0x1 PUSH1 0xA0 SHL SUB AND EQ PUSH2 0x486 JUMPI PUSH1 0x40 MLOAD PUSH3 0x461BCD PUSH1 0xE5 SHL DUP2 MSTORE PUSH1 0x4 ADD PUSH2 0x47D SWAP1 PUSH2 0x1B4F JUMP JUMPDEST PUSH1 0x40 MLOAD DUP1 SWAP2 SUB SWAP1 REVERT JUMPDEST POP PUSH1 0x73 DUP2 SWAP1 SSTORE PUSH1 0x1 JUMPDEST SWAP2 SWAP1 POP JUMP JUMPDEST PUSH1 0x0 PUSH2 0x49E PUSH2 0xE2A JUMP JUMPDEST PUSH1 0x1 PUSH1 0x1 PUSH1 0xA0 SHL SUB AND PUSH2 0x4AF PUSH2 0x862 JUMP JUMPDEST PUSH1 0x1 PUSH1 0x1 PUSH1 0xA0 SHL SUB AND EQ PUSH2 0x4D5 JUMPI PUSH1 0x40 MLOAD PUSH3 0x461BCD PUSH1 0xE5 SHL DUP2 MSTORE PUSH1 0x4 ADD PUSH2 0x47D SWAP1 PUSH2 0x1B4F JUMP JUMPDEST POP PUSH1 0x1 PUSH1 0x1 PUSH1 0xA0 SHL SUB DUP3 AND PUSH1 0x0 SWAP1 DUP2 MSTORE PUSH1 0x65 PUSH1 0x20 MSTORE PUSH1 0x40 SWAP1 KECCAK256 DUP1 SLOAD DUP3 ISZERO ISZERO PUSH1 0xFF NOT SWAP1 SWAP2 AND OR SWAP1 SSTORE PUSH1 0x1 SWAP3 SWAP2 POP POP JUMP JUMPDEST PUSH1 0x0 PUSH2 0x50E PUSH2 0xE2A JUMP JUMPDEST PUSH1 0x1 PUSH1 0x1 PUSH1 0xA0 SHL SUB AND PUSH2 0x51F PUSH2 0x862 JUMP JUMPDEST PUSH1 0x1 PUSH1 0x1 PUSH1 0xA0 SHL SUB AND EQ PUSH2 0x545 JUMPI PUSH1 0x40 MLOAD PUSH3 0x461BCD PUSH1 0xE5 SHL DUP2 MSTORE PUSH1 0x4 ADD PUSH2 0x47D SWAP1 PUSH2 0x1B4F JUMP JUMPDEST POP PUSH1 0x6E SSTORE PUSH1 0x1 SWAP1 JUMP JUMPDEST PUSH1 0x6F SLOAD DUP2 JUMP JUMPDEST PUSH1 0x66 SLOAD PUSH1 0x1 PUSH1 0x1 PUSH1 0xA0 SHL SUB AND DUP2 JUMP JUMPDEST PUSH1 0x0 SLOAD PUSH2 0x100 SWAP1 DIV PUSH1 0xFF AND DUP1 PUSH2 0x57C JUMPI POP PUSH1 0x0 SLOAD PUSH1 0xFF AND ISZERO JUMPDEST PUSH2 0x598 JUMPI PUSH1 0x40 MLOAD PUSH3 0x461BCD PUSH1 0xE5 SHL DUP2 MSTORE PUSH1 0x4 ADD PUSH2 0x47D SWAP1 PUSH2 0x1B01 JUMP JUMPDEST PUSH1 0x0 SLOAD PUSH2 0x100 SWAP1 DIV PUSH1 0xFF AND ISZERO DUP1 ISZERO PUSH2 0x5C3 JUMPI PUSH1 0x0 DUP1 SLOAD PUSH1 0xFF NOT PUSH2 0xFF00 NOT SWAP1 SWAP2 AND PUSH2 0x100 OR AND PUSH1 0x1 OR SWAP1 SSTORE JUMPDEST PUSH2 0x5CB PUSH2 0xE2E JUMP JUMPDEST PUSH1 0x6C DUP1 SLOAD PUSH1 0x1 PUSH1 0x1 PUSH1 0xA0 SHL SUB NOT SWAP1 DUP2 AND PUSH1 0x1 PUSH1 0x1 PUSH1 0xA0 SHL SUB DUP11 DUP2 AND SWAP2 SWAP1 SWAP2 OR SWAP1 SWAP3 SSTORE PUSH1 0x6D DUP1 SLOAD DUP3 AND DUP12 DUP5 AND OR SWAP1 SSTORE PUSH1 0x66 DUP1 SLOAD DUP3 AND DUP10 DUP5 AND OR SWAP1 SSTORE PUSH1 0x68 DUP1 SLOAD DUP3 AND DUP8 DUP5 AND OR SWAP1 SSTORE PUSH1 0x69 DUP1 SLOAD DUP3 AND DUP7 DUP5 AND OR SWAP1 SSTORE PUSH1 0x6A DUP1 SLOAD CALLER SWAP1 DUP4 AND DUP2 OR SWAP1 SWAP2 SSTORE PUSH1 0x6B DUP1 SLOAD DUP4 AND SWAP1 SWAP2 OR SWAP1 SSTORE PUSH2 0x1388 PUSH1 0x6E SSTORE PUSH2 0x9C4 PUSH1 0x6F DUP2 SWAP1 SSTORE PUSH1 0x70 SSTORE PUSH2 0x2710 PUSH1 0x71 SSTORE PUSH2 0x3E8 PUSH1 0x72 SSTORE PUSH1 0x74 DUP1 SLOAD PUSH1 0x1 PUSH1 0xA0 SHL PUSH1 0xFF PUSH1 0xA0 SHL NOT SWAP1 SWAP2 AND OR PUSH1 0x1 PUSH2 0xFF01 PUSH1 0xA0 SHL SUB NOT AND DUP6 DUP5 AND OR SWAP1 SSTORE PUSH1 0x67 DUP1 SLOAD SWAP1 SWAP2 AND SWAP2 DUP8 AND SWAP2 SWAP1 SWAP2 OR SWAP1 SSTORE DUP1 ISZERO PUSH2 0x698 JUMPI PUSH1 0x0 DUP1 SLOAD PUSH2 0xFF00 NOT AND SWAP1 SSTORE JUMPDEST POP POP POP POP POP POP POP POP JUMP JUMPDEST PUSH1 0x74 SLOAD PUSH1 0x1 PUSH1 0x1 PUSH1 0xA0 SHL SUB AND DUP2 JUMP JUMPDEST PUSH1 0x0 PUSH2 0x6BB PUSH2 0xE2A JUMP JUMPDEST PUSH1 0x1 PUSH1 0x1 PUSH1 0xA0 SHL SUB AND PUSH2 0x6CC PUSH2 0x862 JUMP JUMPDEST PUSH1 0x1 PUSH1 0x1 PUSH1 0xA0 SHL SUB AND EQ PUSH2 0x6F2 JUMPI PUSH1 0x40 MLOAD PUSH3 0x461BCD PUSH1 0xE5 SHL DUP2 MSTORE PUSH1 0x4 ADD PUSH2 0x47D SWAP1 PUSH2 0x1B4F JUMP JUMPDEST POP PUSH1 0x70 SSTORE PUSH1 0x1 SWAP1 JUMP JUMPDEST PUSH1 0x67 SLOAD PUSH1 0x1 PUSH1 0x1 PUSH1 0xA0 SHL SUB AND DUP2 JUMP JUMPDEST PUSH1 0x0 PUSH2 0x714 PUSH2 0xE2A JUMP JUMPDEST PUSH1 0x1 PUSH1 0x1 PUSH1 0xA0 SHL SUB AND PUSH2 0x725 PUSH2 0x862 JUMP JUMPDEST PUSH1 0x1 PUSH1 0x1 PUSH1 0xA0 SHL SUB AND EQ PUSH2 0x74B JUMPI PUSH1 0x40 MLOAD PUSH3 0x461BCD PUSH1 0xE5 SHL DUP2 MSTORE PUSH1 0x4 ADD PUSH2 0x47D SWAP1 PUSH2 0x1B4F JUMP JUMPDEST POP PUSH1 0x74 DUP1 SLOAD DUP3 ISZERO ISZERO PUSH1 0x1 PUSH1 0xA0 SHL MUL PUSH1 0xFF PUSH1 0xA0 SHL NOT SWAP1 SWAP2 AND OR SWAP1 SSTORE PUSH1 0x1 SWAP2 SWAP1 POP JUMP JUMPDEST PUSH1 0x65 PUSH1 0x20 MSTORE PUSH1 0x0 SWAP1 DUP2 MSTORE PUSH1 0x40 SWAP1 KECCAK256 SLOAD PUSH1 0xFF AND DUP2 JUMP JUMPDEST PUSH1 0x70 SLOAD DUP2 JUMP JUMPDEST PUSH1 0x68 SLOAD PUSH1 0x1 PUSH1 0x1 PUSH1 0xA0 SHL SUB AND DUP2 JUMP JUMPDEST PUSH1 0x0 PUSH2 0x7A0 PUSH2 0xE2A JUMP JUMPDEST PUSH1 0x1 PUSH1 0x1 PUSH1 0xA0 SHL SUB AND PUSH2 0x7B1 PUSH2 0x862 JUMP JUMPDEST PUSH1 0x1 PUSH1 0x1 PUSH1 0xA0 SHL SUB AND EQ PUSH2 0x7D7 JUMPI PUSH1 0x40 MLOAD PUSH3 0x461BCD PUSH1 0xE5 SHL DUP2 MSTORE PUSH1 0x4 ADD PUSH2 0x47D SWAP1 PUSH2 0x1B4F JUMP JUMPDEST POP PUSH1 0x74 DUP1 SLOAD DUP3 ISZERO ISZERO PUSH1 0x1 PUSH1 0xA8 SHL MUL PUSH1 0xFF PUSH1 0xA8 SHL NOT SWAP1 SWAP2 AND OR SWAP1 SSTORE PUSH1 0x1 SWAP2 SWAP1 POP JUMP JUMPDEST PUSH1 0x74 SLOAD PUSH1 0x1 PUSH1 0xA8 SHL SWAP1 DIV PUSH1 0xFF AND DUP2 JUMP JUMPDEST PUSH2 0x810 PUSH2 0xE2A JUMP JUMPDEST PUSH1 0x1 PUSH1 0x1 PUSH1 0xA0 SHL SUB AND PUSH2 0x821 PUSH2 0x862 JUMP JUMPDEST PUSH1 0x1 PUSH1 0x1 PUSH1 0xA0 SHL SUB AND EQ PUSH2 0x847 JUMPI PUSH1 0x40 MLOAD PUSH3 0x461BCD PUSH1 0xE5 SHL DUP2 MSTORE PUSH1 0x4 ADD PUSH2 0x47D SWAP1 PUSH2 0x1B4F JUMP JUMPDEST PUSH2 0x851 PUSH1 0x0 PUSH2 0xEB2 JUMP JUMPDEST JUMP JUMPDEST PUSH1 0x75 SLOAD PUSH1 0x1 PUSH1 0x1 PUSH1 0xA0 SHL SUB AND DUP2 JUMP JUMPDEST PUSH1 0x33 SLOAD PUSH1 0x1 PUSH1 0x1 PUSH1 0xA0 SHL SUB AND SWAP1 JUMP JUMPDEST PUSH1 0x6B SLOAD PUSH1 0x1 PUSH1 0x1 PUSH1 0xA0 SHL SUB AND DUP2 JUMP JUMPDEST PUSH1 0x0 PUSH2 0x88A PUSH2 0xE2A JUMP JUMPDEST PUSH1 0x1 PUSH1 0x1 PUSH1 0xA0 SHL SUB AND PUSH2 0x89B PUSH2 0x862 JUMP JUMPDEST PUSH1 0x1 PUSH1 0x1 PUSH1 0xA0 SHL SUB AND EQ PUSH2 0x8C1 JUMPI PUSH1 0x40 MLOAD PUSH3 0x461BCD PUSH1 0xE5 SHL DUP2 MSTORE PUSH1 0x4 ADD PUSH2 0x47D SWAP1 PUSH2 0x1B4F JUMP JUMPDEST PUSH2 0x8D5 PUSH1 0x1 PUSH1 0x1 PUSH1 0xA0 SHL SUB DUP5 AND CALLER DUP5 PUSH2 0xF04 JUMP JUMPDEST POP PUSH1 0x1 SWAP3 SWAP2 POP POP JUMP JUMPDEST PUSH1 0x74 SLOAD PUSH1 0x1 PUSH1 0xA0 SHL SWAP1 DIV PUSH1 0xFF AND DUP2 JUMP JUMPDEST PUSH1 0x0 PUSH2 0x8F8 PUSH2 0xE2A JUMP JUMPDEST PUSH1 0x1 PUSH1 0x1 PUSH1 0xA0 SHL SUB AND PUSH2 0x909 PUSH2 0x862 JUMP JUMPDEST PUSH1 0x1 PUSH1 0x1 PUSH1 0xA0 SHL SUB AND EQ PUSH2 0x92F JUMPI PUSH1 0x40 MLOAD PUSH3 0x461BCD PUSH1 0xE5 SHL DUP2 MSTORE PUSH1 0x4 ADD PUSH2 0x47D SWAP1 PUSH2 0x1B4F JUMP JUMPDEST POP PUSH1 0x6A DUP1 SLOAD PUSH1 0x1 PUSH1 0x1 PUSH1 0xA0 SHL SUB DUP4 AND PUSH1 0x1 PUSH1 0x1 PUSH1 0xA0 SHL SUB NOT SWAP1 SWAP2 AND OR SWAP1 SSTORE PUSH1 0x1 SWAP2 SWAP1 POP JUMP JUMPDEST PUSH1 0x0 PUSH2 0x95E PUSH2 0xE2A JUMP JUMPDEST PUSH1 0x1 PUSH1 0x1 PUSH1 0xA0 SHL SUB AND PUSH2 0x96F PUSH2 0x862 JUMP JUMPDEST PUSH1 0x1 PUSH1 0x1 PUSH1 0xA0 SHL SUB AND EQ PUSH2 0x995 JUMPI PUSH1 0x40 MLOAD PUSH3 0x461BCD PUSH1 0xE5 SHL DUP2 MSTORE PUSH1 0x4 ADD PUSH2 0x47D SWAP1 PUSH2 0x1B4F JUMP JUMPDEST POP PUSH1 0x67 DUP1 SLOAD PUSH1 0x1 PUSH1 0x1 PUSH1 0xA0 SHL SUB DUP4 AND PUSH1 0x1 PUSH1 0x1 PUSH1 0xA0 SHL SUB NOT SWAP1 SWAP2 AND OR SWAP1 SSTORE PUSH1 0x1 SWAP2 SWAP1 POP JUMP JUMPDEST PUSH1 0x71 SLOAD DUP2 JUMP JUMPDEST PUSH1 0x0 PUSH2 0x9CA PUSH2 0xE2A JUMP JUMPDEST PUSH1 0x1 PUSH1 0x1 PUSH1 0xA0 SHL SUB AND PUSH2 0x9DB PUSH2 0x862 JUMP JUMPDEST PUSH1 0x1 PUSH1 0x1 PUSH1 0xA0 SHL SUB AND EQ PUSH2 0xA01 JUMPI PUSH1 0x40 MLOAD PUSH3 0x461BCD PUSH1 0xE5 SHL DUP2 MSTORE PUSH1 0x4 ADD PUSH2 0x47D SWAP1 PUSH2 0x1B4F JUMP JUMPDEST POP PUSH1 0x6F SSTORE PUSH1 0x1 SWAP1 JUMP JUMPDEST PUSH1 0x69 SLOAD PUSH1 0x1 PUSH1 0x1 PUSH1 0xA0 SHL SUB AND DUP2 JUMP JUMPDEST PUSH1 0x6E SLOAD DUP2 JUMP JUMPDEST PUSH1 0x6D SLOAD PUSH1 0x1 PUSH1 0x1 PUSH1 0xA0 SHL SUB AND DUP2 JUMP JUMPDEST CALLER PUSH1 0x0 SWAP1 DUP2 MSTORE PUSH1 0x65 PUSH1 0x20 MSTORE PUSH1 0x40 DUP2 KECCAK256 SLOAD PUSH1 0xFF AND PUSH2 0xA5D JUMPI PUSH1 0x40 MLOAD PUSH3 0x461BCD PUSH1 0xE5 SHL DUP2 MSTORE PUSH1 0x4 ADD PUSH2 0x47D SWAP1 PUSH2 0x1A77 JUMP JUMPDEST PUSH1 0x66 SLOAD PUSH1 0x40 MLOAD PUSH4 0x70A08231 PUSH1 0xE0 SHL DUP2 MSTORE PUSH1 0x0 SWAP2 PUSH1 0x1 PUSH1 0x1 PUSH1 0xA0 SHL SUB AND SWAP1 PUSH4 0x70A08231 SWAP1 PUSH2 0xA8E SWAP1 ADDRESS SWAP1 PUSH1 0x4 ADD PUSH2 0x19CC JUMP JUMPDEST PUSH1 0x20 PUSH1 0x40 MLOAD DUP1 DUP4 SUB DUP2 DUP7 DUP1 EXTCODESIZE ISZERO DUP1 ISZERO PUSH2 0xAA6 JUMPI PUSH1 0x0 DUP1 REVERT JUMPDEST POP GAS STATICCALL ISZERO DUP1 ISZERO PUSH2 0xABA JUMPI RETURNDATASIZE PUSH1 0x0 DUP1 RETURNDATACOPY RETURNDATASIZE PUSH1 0x0 REVERT JUMPDEST POP POP POP POP PUSH1 0x40 MLOAD RETURNDATASIZE PUSH1 0x1F NOT PUSH1 0x1F DUP3 ADD AND DUP3 ADD DUP1 PUSH1 0x40 MSTORE POP DUP2 ADD SWAP1 PUSH2 0xADE SWAP2 SWAP1 PUSH2 0x196C JUMP JUMPDEST SWAP1 POP PUSH1 0x0 PUSH2 0xB03 PUSH1 0x71 SLOAD PUSH2 0xAFD PUSH1 0x6E SLOAD DUP6 PUSH2 0xF5F SWAP1 SWAP2 SWAP1 PUSH4 0xFFFFFFFF AND JUMP JUMPDEST SWAP1 PUSH2 0xF72 JUMP JUMPDEST SWAP1 POP PUSH1 0x0 PUSH2 0xB22 PUSH1 0x71 SLOAD PUSH2 0xAFD PUSH1 0x6F SLOAD DUP7 PUSH2 0xF5F SWAP1 SWAP2 SWAP1 PUSH4 0xFFFFFFFF AND JUMP JUMPDEST SWAP1 POP PUSH1 0x0 PUSH2 0xB3A DUP3 PUSH2 0xB34 DUP7 DUP7 PUSH2 0xF7E JUMP JUMPDEST SWAP1 PUSH2 0xF7E JUMP JUMPDEST SWAP1 POP PUSH1 0x0 PUSH2 0xB47 DUP5 PUSH2 0xF8A JUMP JUMPDEST PUSH1 0x69 SLOAD PUSH1 0x68 SLOAD SWAP2 SWAP3 POP PUSH2 0xB67 SWAP2 PUSH1 0x1 PUSH1 0x1 PUSH1 0xA0 SHL SUB SWAP1 DUP2 AND SWAP2 AND DUP4 PUSH2 0xF04 JUMP JUMPDEST PUSH1 0x6A SLOAD PUSH1 0x66 SLOAD PUSH2 0xB84 SWAP2 PUSH1 0x1 PUSH1 0x1 PUSH1 0xA0 SHL SUB SWAP2 DUP3 AND SWAP2 AND DUP6 PUSH2 0xF04 JUMP JUMPDEST PUSH1 0x6B SLOAD PUSH1 0x66 SLOAD PUSH2 0xBA1 SWAP2 PUSH1 0x1 PUSH1 0x1 PUSH1 0xA0 SHL SUB SWAP2 DUP3 AND SWAP2 AND DUP5 PUSH2 0xF04 JUMP JUMPDEST PUSH1 0x74 SLOAD PUSH1 0x1 PUSH1 0xA0 SHL SWAP1 DIV PUSH1 0xFF AND ISZERO PUSH2 0xBBB JUMPI PUSH2 0xBBB PUSH2 0x1201 JUMP JUMPDEST PUSH1 0x74 SLOAD PUSH1 0x1 PUSH1 0xA8 SHL SWAP1 DIV PUSH1 0xFF AND ISZERO PUSH2 0xC57 JUMPI PUSH1 0x75 PUSH1 0x0 SWAP1 SLOAD SWAP1 PUSH2 0x100 EXP SWAP1 DIV PUSH1 0x1 PUSH1 0x1 PUSH1 0xA0 SHL SUB AND PUSH1 0x1 PUSH1 0x1 PUSH1 0xA0 SHL SUB AND PUSH4 0x796C7BE7 PUSH1 0x40 MLOAD DUP2 PUSH4 0xFFFFFFFF AND PUSH1 0xE0 SHL DUP2 MSTORE PUSH1 0x4 ADD PUSH1 0x20 PUSH1 0x40 MLOAD DUP1 DUP4 SUB DUP2 PUSH1 0x0 DUP8 DUP1 EXTCODESIZE ISZERO DUP1 ISZERO PUSH2 0xC1D JUMPI PUSH1 0x0 DUP1 REVERT JUMPDEST POP GAS CALL ISZERO DUP1 ISZERO PUSH2 0xC31 JUMPI RETURNDATASIZE PUSH1 0x0 DUP1 RETURNDATACOPY RETURNDATASIZE PUSH1 0x0 REVERT JUMPDEST POP POP POP POP PUSH1 0x40 MLOAD RETURNDATASIZE PUSH1 0x1F NOT PUSH1 0x1F DUP3 ADD AND DUP3 ADD DUP1 PUSH1 0x40 MSTORE POP DUP2 ADD SWAP1 PUSH2 0xC55 SWAP2 SWAP1 PUSH2 0x1855 JUMP JUMPDEST POP JUMPDEST PUSH1 0x1 SWAP6 POP POP POP POP POP POP SWAP1 JUMP JUMPDEST PUSH1 0x0 PUSH2 0xC6D PUSH2 0xE2A JUMP JUMPDEST PUSH1 0x1 PUSH1 0x1 PUSH1 0xA0 SHL SUB AND PUSH2 0xC7E PUSH2 0x862 JUMP JUMPDEST PUSH1 0x1 PUSH1 0x1 PUSH1 0xA0 SHL SUB AND EQ PUSH2 0xCA4 JUMPI PUSH1 0x40 MLOAD PUSH3 0x461BCD PUSH1 0xE5 SHL DUP2 MSTORE PUSH1 0x4 ADD PUSH2 0x47D SWAP1 PUSH2 0x1B4F JUMP JUMPDEST POP PUSH1 0x6B DUP1 SLOAD PUSH1 0x1 PUSH1 0x1 PUSH1 0xA0 SHL SUB DUP4 AND PUSH1 0x1 PUSH1 0x1 PUSH1 0xA0 SHL SUB NOT SWAP1 SWAP2 AND OR SWAP1 SSTORE PUSH1 0x1 SWAP2 SWAP1 POP JUMP JUMPDEST PUSH1 0x0 PUSH2 0xCD3 PUSH2 0xE2A JUMP JUMPDEST PUSH1 0x1 PUSH1 0x1 PUSH1 0xA0 SHL SUB AND PUSH2 0xCE4 PUSH2 0x862 JUMP JUMPDEST PUSH1 0x1 PUSH1 0x1 PUSH1 0xA0 SHL SUB AND EQ PUSH2 0xD0A JUMPI PUSH1 0x40 MLOAD PUSH3 0x461BCD PUSH1 0xE5 SHL DUP2 MSTORE PUSH1 0x4 ADD PUSH2 0x47D SWAP1 PUSH2 0x1B4F JUMP JUMPDEST POP PUSH1 0x74 DUP1 SLOAD PUSH1 0x1 PUSH1 0x1 PUSH1 0xA0 SHL SUB DUP4 AND PUSH1 0x1 PUSH1 0x1 PUSH1 0xA0 SHL SUB NOT SWAP1 SWAP2 AND OR SWAP1 SSTORE PUSH1 0x1 SWAP2 SWAP1 POP JUMP JUMPDEST PUSH1 0x0 PUSH2 0xD39 PUSH2 0xE2A JUMP JUMPDEST PUSH1 0x1 PUSH1 0x1 PUSH1 0xA0 SHL SUB AND PUSH2 0xD4A PUSH2 0x862 JUMP JUMPDEST PUSH1 0x1 PUSH1 0x1 PUSH1 0xA0 SHL SUB AND EQ PUSH2 0xD70 JUMPI PUSH1 0x40 MLOAD PUSH3 0x461BCD PUSH1 0xE5 SHL DUP2 MSTORE PUSH1 0x4 ADD PUSH2 0x47D SWAP1 PUSH2 0x1B4F JUMP JUMPDEST POP PUSH1 0x75 DUP1 SLOAD PUSH1 0x1 PUSH1 0x1 PUSH1 0xA0 SHL SUB DUP4 AND PUSH1 0x1 PUSH1 0x1 PUSH1 0xA0 SHL SUB NOT SWAP1 SWAP2 AND OR SWAP1 SSTORE PUSH1 0x1 SWAP2 SWAP1 POP JUMP JUMPDEST PUSH1 0x6A SLOAD PUSH1 0x1 PUSH1 0x1 PUSH1 0xA0 SHL SUB AND DUP2 JUMP JUMPDEST PUSH1 0x73 SLOAD DUP2 JUMP JUMPDEST PUSH2 0xDB2 PUSH2 0xE2A JUMP JUMPDEST PUSH1 0x1 PUSH1 0x1 PUSH1 0xA0 SHL SUB AND PUSH2 0xDC3 PUSH2 0x862 JUMP JUMPDEST PUSH1 0x1 PUSH1 0x1 PUSH1 0xA0 SHL SUB AND EQ PUSH2 0xDE9 JUMPI PUSH1 0x40 MLOAD PUSH3 0x461BCD PUSH1 0xE5 SHL DUP2 MSTORE PUSH1 0x4 ADD PUSH2 0x47D SWAP1 PUSH2 0x1B4F JUMP JUMPDEST PUSH1 0x1 PUSH1 0x1 PUSH1 0xA0 SHL SUB DUP2 AND PUSH2 0xE0F JUMPI PUSH1 0x40 MLOAD PUSH3 0x461BCD PUSH1 0xE5 SHL DUP2 MSTORE PUSH1 0x4 ADD PUSH2 0x47D SWAP1 PUSH2 0x1A31 JUMP JUMPDEST PUSH2 0xE18 DUP2 PUSH2 0xEB2 JUMP JUMPDEST POP JUMP JUMPDEST PUSH1 0x6C SLOAD PUSH1 0x1 PUSH1 0x1 PUSH1 0xA0 SHL SUB AND DUP2 JUMP JUMPDEST CALLER SWAP1 JUMP JUMPDEST PUSH1 0x0 SLOAD PUSH2 0x100 SWAP1 DIV PUSH1 0xFF AND DUP1 PUSH2 0xE47 JUMPI POP PUSH1 0x0 SLOAD PUSH1 0xFF AND ISZERO JUMPDEST PUSH2 0xE63 JUMPI PUSH1 0x40 MLOAD PUSH3 0x461BCD PUSH1 0xE5 SHL DUP2 MSTORE PUSH1 0x4 ADD PUSH2 0x47D SWAP1 PUSH2 0x1B01 JUMP JUMPDEST PUSH1 0x0 SLOAD PUSH2 0x100 SWAP1 DIV PUSH1 0xFF AND ISZERO DUP1 ISZERO PUSH2 0xE8E JUMPI PUSH1 0x0 DUP1 SLOAD PUSH1 0xFF NOT PUSH2 0xFF00 NOT SWAP1 SWAP2 AND PUSH2 0x100 OR AND PUSH1 0x1 OR SWAP1 SSTORE JUMPDEST PUSH2 0xE96 PUSH2 0x14B0 JUMP JUMPDEST PUSH2 0xE9E PUSH2 0x1523 JUMP JUMPDEST DUP1 ISZERO PUSH2 0xE18 JUMPI PUSH1 0x0 DUP1 SLOAD PUSH2 0xFF00 NOT AND SWAP1 SSTORE POP JUMP JUMPDEST PUSH1 0x33 DUP1 SLOAD PUSH1 0x1 PUSH1 0x1 PUSH1 0xA0 SHL SUB DUP4 DUP2 AND PUSH1 0x1 PUSH1 0x1 PUSH1 0xA0 SHL SUB NOT DUP4 AND DUP2 OR SWAP1 SWAP4 SSTORE PUSH1 0x40 MLOAD SWAP2 AND SWAP2 SWAP1 DUP3 SWAP1 PUSH32 0x8BE0079C531659141344CD1FD0A4F28419497F9722A3DAAFE3B4186F6B6457E0 SWAP1 PUSH1 0x0 SWAP1 LOG3 POP POP JUMP JUMPDEST PUSH2 0xF5A DUP4 PUSH4 0xA9059CBB PUSH1 0xE0 SHL DUP5 DUP5 PUSH1 0x40 MLOAD PUSH1 0x24 ADD PUSH2 0xF23 SWAP3 SWAP2 SWAP1 PUSH2 0x19FA JUMP JUMPDEST PUSH1 0x40 DUP1 MLOAD PUSH1 0x1F NOT DUP2 DUP5 SUB ADD DUP2 MSTORE SWAP2 SWAP1 MSTORE PUSH1 0x20 DUP2 ADD DUP1 MLOAD PUSH1 0x1 PUSH1 0x1 PUSH1 0xE0 SHL SUB AND PUSH1 0x1 PUSH1 0x1 PUSH1 0xE0 SHL SUB NOT SWAP1 SWAP4 AND SWAP3 SWAP1 SWAP3 OR SWAP1 SWAP2 MSTORE PUSH2 0x1593 JUMP JUMPDEST POP POP POP JUMP JUMPDEST PUSH1 0x0 PUSH2 0xF6B DUP3 DUP5 PUSH2 0x1C95 JUMP JUMPDEST SWAP4 SWAP3 POP POP POP JUMP JUMPDEST PUSH1 0x0 PUSH2 0xF6B DUP3 DUP5 PUSH2 0x1C75 JUMP JUMPDEST PUSH1 0x0 PUSH2 0xF6B DUP3 DUP5 PUSH2 0x1CB4 JUMP JUMPDEST PUSH1 0x6D SLOAD PUSH1 0x68 SLOAD PUSH1 0x66 SLOAD PUSH1 0x40 MLOAD PUSH4 0xE6A43905 PUSH1 0xE0 SHL DUP2 MSTORE PUSH1 0x0 SWAP4 DUP5 SWAP4 PUSH1 0x1 PUSH1 0x1 PUSH1 0xA0 SHL SUB SWAP2 DUP3 AND SWAP4 PUSH4 0xE6A43905 SWAP4 PUSH2 0xFCB SWAP4 SWAP3 DUP4 AND SWAP3 SWAP1 SWAP2 AND SWAP1 PUSH1 0x4 ADD PUSH2 0x19E0 JUMP JUMPDEST PUSH1 0x20 PUSH1 0x40 MLOAD DUP1 DUP4 SUB DUP2 DUP7 DUP1 EXTCODESIZE ISZERO DUP1 ISZERO PUSH2 0xFE3 JUMPI PUSH1 0x0 DUP1 REVERT JUMPDEST POP GAS STATICCALL ISZERO DUP1 ISZERO PUSH2 0xFF7 JUMPI RETURNDATASIZE PUSH1 0x0 DUP1 RETURNDATACOPY RETURNDATASIZE PUSH1 0x0 REVERT JUMPDEST POP POP POP POP PUSH1 0x40 MLOAD RETURNDATASIZE PUSH1 0x1F NOT PUSH1 0x1F DUP3 ADD AND DUP3 ADD DUP1 PUSH1 0x40 MSTORE POP DUP2 ADD SWAP1 PUSH2 0x101B SWAP2 SWAP1 PUSH2 0x17BA JUMP JUMPDEST SWAP1 POP PUSH1 0x0 DUP1 DUP3 PUSH1 0x1 PUSH1 0x1 PUSH1 0xA0 SHL SUB AND PUSH4 0x902F1AC PUSH1 0x40 MLOAD DUP2 PUSH4 0xFFFFFFFF AND PUSH1 0xE0 SHL DUP2 MSTORE PUSH1 0x4 ADD PUSH1 0x60 PUSH1 0x40 MLOAD DUP1 DUP4 SUB DUP2 DUP7 DUP1 EXTCODESIZE ISZERO DUP1 ISZERO PUSH2 0x1059 JUMPI PUSH1 0x0 DUP1 REVERT JUMPDEST POP GAS STATICCALL ISZERO DUP1 ISZERO PUSH2 0x106D JUMPI RETURNDATASIZE PUSH1 0x0 DUP1 RETURNDATACOPY RETURNDATASIZE PUSH1 0x0 REVERT JUMPDEST POP POP POP POP PUSH1 0x40 MLOAD RETURNDATASIZE PUSH1 0x1F NOT PUSH1 0x1F DUP3 ADD AND DUP3 ADD DUP1 PUSH1 0x40 MSTORE POP DUP2 ADD SWAP1 PUSH2 0x1091 SWAP2 SWAP1 PUSH2 0x1906 JUMP JUMPDEST POP PUSH1 0x1 PUSH1 0x1 PUSH1 0x70 SHL SUB AND SWAP2 POP PUSH1 0x1 PUSH1 0x1 PUSH1 0x70 SHL SUB AND SWAP2 POP PUSH1 0x0 DUP4 PUSH1 0x1 PUSH1 0x1 PUSH1 0xA0 SHL SUB AND PUSH4 0xDFE1681 PUSH1 0x40 MLOAD DUP2 PUSH4 0xFFFFFFFF AND PUSH1 0xE0 SHL DUP2 MSTORE PUSH1 0x4 ADD PUSH1 0x20 PUSH1 0x40 MLOAD DUP1 DUP4 SUB DUP2 DUP7 DUP1 EXTCODESIZE ISZERO DUP1 ISZERO PUSH2 0x10E3 JUMPI PUSH1 0x0 DUP1 REVERT JUMPDEST POP GAS STATICCALL ISZERO DUP1 ISZERO PUSH2 0x10F7 JUMPI RETURNDATASIZE PUSH1 0x0 DUP1 RETURNDATACOPY RETURNDATASIZE PUSH1 0x0 REVERT JUMPDEST POP POP POP POP PUSH1 0x40 MLOAD RETURNDATASIZE PUSH1 0x1F NOT PUSH1 0x1F DUP3 ADD AND DUP3 ADD DUP1 PUSH1 0x40 MSTORE POP DUP2 ADD SWAP1 PUSH2 0x111B SWAP2 SWAP1 PUSH2 0x17BA JUMP JUMPDEST PUSH1 0x66 SLOAD SWAP1 SWAP2 POP PUSH1 0x0 SWAP1 DUP2 SWAP1 PUSH1 0x1 PUSH1 0x1 PUSH1 0xA0 SHL SUB DUP1 DUP6 AND SWAP2 AND EQ PUSH2 0x113F JUMPI DUP4 DUP6 PUSH2 0x1142 JUMP JUMPDEST DUP5 DUP5 JUMPDEST SWAP2 POP SWAP2 POP PUSH1 0x0 PUSH2 0x1153 DUP10 DUP5 DUP5 PUSH2 0x1622 JUMP JUMPDEST PUSH1 0x66 SLOAD SWAP1 SWAP2 POP PUSH1 0x0 SWAP1 DUP2 SWAP1 PUSH1 0x1 PUSH1 0x1 PUSH1 0xA0 SHL SUB DUP8 DUP2 AND SWAP2 AND EQ PUSH2 0x1178 JUMPI DUP3 PUSH1 0x0 PUSH2 0x117C JUMP JUMPDEST PUSH1 0x0 DUP4 JUMPDEST PUSH1 0x40 DUP1 MLOAD PUSH1 0x0 DUP2 MSTORE PUSH1 0x20 DUP2 ADD SWAP2 DUP3 SWAP1 MSTORE PUSH4 0x22C0D9F PUSH1 0xE0 SHL SWAP1 SWAP2 MSTORE SWAP2 SWAP4 POP SWAP2 POP PUSH1 0x1 PUSH1 0x1 PUSH1 0xA0 SHL SUB DUP11 AND SWAP1 PUSH4 0x22C0D9F SWAP1 PUSH2 0x11C0 SWAP1 DUP6 SWAP1 DUP6 SWAP1 ADDRESS SWAP1 PUSH1 0x24 DUP2 ADD PUSH2 0x1C0E JUMP JUMPDEST PUSH1 0x0 PUSH1 0x40 MLOAD DUP1 DUP4 SUB DUP2 PUSH1 0x0 DUP8 DUP1 EXTCODESIZE ISZERO DUP1 ISZERO PUSH2 0x11DA JUMPI PUSH1 0x0 DUP1 REVERT JUMPDEST POP GAS CALL ISZERO DUP1 ISZERO PUSH2 0x11EE JUMPI RETURNDATASIZE PUSH1 0x0 DUP1 RETURNDATACOPY RETURNDATASIZE PUSH1 0x0 REVERT JUMPDEST POP SWAP5 SWAP14 SWAP13 POP POP POP POP POP POP POP POP POP POP POP POP POP JUMP JUMPDEST PUSH1 0x6D SLOAD PUSH1 0x67 SLOAD PUSH1 0x66 SLOAD PUSH1 0x40 MLOAD PUSH4 0xE6A43905 PUSH1 0xE0 SHL DUP2 MSTORE PUSH1 0x0 SWAP4 PUSH1 0x1 PUSH1 0x1 PUSH1 0xA0 SHL SUB SWAP1 DUP2 AND SWAP4 PUSH4 0xE6A43905 SWAP4 PUSH2 0x123E SWAP4 SWAP2 DUP4 AND SWAP3 AND SWAP1 PUSH1 0x4 ADD PUSH2 0x19E0 JUMP JUMPDEST PUSH1 0x20 PUSH1 0x40 MLOAD DUP1 DUP4 SUB DUP2 DUP7 DUP1 EXTCODESIZE ISZERO DUP1 ISZERO PUSH2 0x1256 JUMPI PUSH1 0x0 DUP1 REVERT JUMPDEST POP GAS STATICCALL ISZERO DUP1 ISZERO PUSH2 0x126A JUMPI RETURNDATASIZE PUSH1 0x0 DUP1 RETURNDATACOPY RETURNDATASIZE PUSH1 0x0 REVERT JUMPDEST POP POP POP POP PUSH1 0x40 MLOAD RETURNDATASIZE PUSH1 0x1F NOT PUSH1 0x1F DUP3 ADD AND DUP3 ADD DUP1 PUSH1 0x40 MSTORE POP DUP2 ADD SWAP1 PUSH2 0x128E SWAP2 SWAP1 PUSH2 0x17BA JUMP JUMPDEST PUSH1 0x66 SLOAD PUSH1 0x40 MLOAD PUSH4 0x70A08231 PUSH1 0xE0 SHL DUP2 MSTORE SWAP2 SWAP3 POP PUSH1 0x0 SWAP2 PUSH1 0x1 PUSH1 0x1 PUSH1 0xA0 SHL SUB SWAP1 SWAP2 AND SWAP1 PUSH4 0x70A08231 SWAP1 PUSH2 0x12C4 SWAP1 DUP6 SWAP1 PUSH1 0x4 ADD PUSH2 0x19CC JUMP JUMPDEST PUSH1 0x20 PUSH1 0x40 MLOAD DUP1 DUP4 SUB DUP2 DUP7 DUP1 EXTCODESIZE ISZERO DUP1 ISZERO PUSH2 0x12DC JUMPI PUSH1 0x0 DUP1 REVERT JUMPDEST POP GAS STATICCALL ISZERO DUP1 ISZERO PUSH2 0x12F0 JUMPI RETURNDATASIZE PUSH1 0x0 DUP1 RETURNDATACOPY RETURNDATASIZE PUSH1 0x0 REVERT JUMPDEST POP POP POP POP PUSH1 0x40 MLOAD RETURNDATASIZE PUSH1 0x1F NOT PUSH1 0x1F DUP3 ADD AND DUP3 ADD DUP1 PUSH1 0x40 MSTORE POP DUP2 ADD SWAP1 PUSH2 0x1314 SWAP2 SWAP1 PUSH2 0x196C JUMP JUMPDEST PUSH1 0x67 SLOAD PUSH1 0x40 MLOAD PUSH4 0x70A08231 PUSH1 0xE0 SHL DUP2 MSTORE SWAP2 SWAP3 POP PUSH1 0x0 SWAP2 PUSH1 0x1 PUSH1 0x1 PUSH1 0xA0 SHL SUB SWAP1 SWAP2 AND SWAP1 PUSH4 0x70A08231 SWAP1 PUSH2 0x134A SWAP1 DUP7 SWAP1 PUSH1 0x4 ADD PUSH2 0x19CC JUMP JUMPDEST PUSH1 0x20 PUSH1 0x40 MLOAD DUP1 DUP4 SUB DUP2 DUP7 DUP1 EXTCODESIZE ISZERO DUP1 ISZERO PUSH2 0x1362 JUMPI PUSH1 0x0 DUP1 REVERT JUMPDEST POP GAS STATICCALL ISZERO DUP1 ISZERO PUSH2 0x1376 JUMPI RETURNDATASIZE PUSH1 0x0 DUP1 RETURNDATACOPY RETURNDATASIZE PUSH1 0x0 REVERT JUMPDEST POP POP POP POP PUSH1 0x40 MLOAD RETURNDATASIZE PUSH1 0x1F NOT PUSH1 0x1F DUP3 ADD AND DUP3 ADD DUP1 PUSH1 0x40 MSTORE POP DUP2 ADD SWAP1 PUSH2 0x139A SWAP2 SWAP1 PUSH2 0x196C JUMP JUMPDEST SWAP1 POP PUSH8 0xDE0B6B3A7640000 PUSH1 0x0 PUSH2 0x13B5 DUP5 PUSH2 0xAFD DUP6 DUP6 PUSH2 0xF5F JUMP JUMPDEST SWAP1 POP PUSH1 0x0 DUP1 PUSH8 0xDE0B6B3A7640000 DUP4 GT ISZERO PUSH2 0x1410 JUMPI PUSH2 0x13E6 PUSH6 0x5AF3107A4000 PUSH2 0xAFD DUP6 PUSH8 0xDE0B6B3A7640000 PUSH2 0xF7E JUMP JUMPDEST SWAP1 POP PUSH1 0x72 SLOAD DUP2 GT ISZERO PUSH2 0x13FB JUMPI PUSH1 0x0 SWAP2 POP PUSH2 0x140B JUMP JUMPDEST PUSH1 0x72 SLOAD PUSH2 0x1408 SWAP1 DUP3 PUSH2 0xF7E JUMP JUMPDEST SWAP2 POP JUMPDEST PUSH2 0x143F JUMP JUMPDEST PUSH2 0x142C PUSH6 0x5AF3107A4000 PUSH2 0xAFD DUP6 PUSH8 0xDE0B6B3A7640000 PUSH2 0x1CB4 JUMP JUMPDEST PUSH1 0x72 SLOAD SWAP1 SWAP2 POP PUSH2 0x143C SWAP1 DUP3 PUSH2 0x1670 JUMP JUMPDEST SWAP2 POP JUMPDEST PUSH1 0x74 SLOAD PUSH1 0x73 SLOAD PUSH1 0x40 MLOAD PUSH4 0x236535F5 PUSH1 0xE1 SHL DUP2 MSTORE PUSH1 0x1 PUSH1 0x1 PUSH1 0xA0 SHL SUB SWAP1 SWAP3 AND SWAP2 PUSH4 0x46CA6BEA SWAP2 PUSH2 0x1475 SWAP2 DUP7 SWAP1 PUSH1 0x1 SWAP1 PUSH1 0x4 ADD PUSH2 0x1C45 JUMP JUMPDEST PUSH1 0x0 PUSH1 0x40 MLOAD DUP1 DUP4 SUB DUP2 PUSH1 0x0 DUP8 DUP1 EXTCODESIZE ISZERO DUP1 ISZERO PUSH2 0x148F JUMPI PUSH1 0x0 DUP1 REVERT JUMPDEST POP GAS CALL ISZERO DUP1 ISZERO PUSH2 0x14A3 JUMPI RETURNDATASIZE PUSH1 0x0 DUP1 RETURNDATACOPY RETURNDATASIZE PUSH1 0x0 REVERT JUMPDEST POP POP POP POP POP POP POP POP POP POP POP JUMP JUMPDEST PUSH1 0x0 SLOAD PUSH2 0x100 SWAP1 DIV PUSH1 0xFF AND DUP1 PUSH2 0x14C9 JUMPI POP PUSH1 0x0 SLOAD PUSH1 0xFF AND ISZERO JUMPDEST PUSH2 0x14E5 JUMPI PUSH1 0x40 MLOAD PUSH3 0x461BCD PUSH1 0xE5 SHL DUP2 MSTORE PUSH1 0x4 ADD PUSH2 0x47D SWAP1 PUSH2 0x1B01 JUMP JUMPDEST PUSH1 0x0 SLOAD PUSH2 0x100 SWAP1 DIV PUSH1 0xFF AND ISZERO DUP1 ISZERO PUSH2 0xE9E JUMPI PUSH1 0x0 DUP1 SLOAD PUSH1 0xFF NOT PUSH2 0xFF00 NOT SWAP1 SWAP2 AND PUSH2 0x100 OR AND PUSH1 0x1 OR SWAP1 SSTORE DUP1 ISZERO PUSH2 0xE18 JUMPI PUSH1 0x0 DUP1 SLOAD PUSH2 0xFF00 NOT AND SWAP1 SSTORE POP JUMP JUMPDEST PUSH1 0x0 SLOAD PUSH2 0x100 SWAP1 DIV PUSH1 0xFF AND DUP1 PUSH2 0x153C JUMPI POP PUSH1 0x0 SLOAD PUSH1 0xFF AND ISZERO JUMPDEST PUSH2 0x1558 JUMPI PUSH1 0x40 MLOAD PUSH3 0x461BCD PUSH1 0xE5 SHL DUP2 MSTORE PUSH1 0x4 ADD PUSH2 0x47D SWAP1 PUSH2 0x1B01 JUMP JUMPDEST PUSH1 0x0 SLOAD PUSH2 0x100 SWAP1 DIV PUSH1 0xFF AND ISZERO DUP1 ISZERO PUSH2 0x1583 JUMPI PUSH1 0x0 DUP1 SLOAD PUSH1 0xFF NOT PUSH2 0xFF00 NOT SWAP1 SWAP2 AND PUSH2 0x100 OR AND PUSH1 0x1 OR SWAP1 SSTORE JUMPDEST PUSH2 0xE9E PUSH2 0x158E PUSH2 0xE2A JUMP JUMPDEST PUSH2 0xEB2 JUMP JUMPDEST PUSH1 0x0 PUSH2 0x15E8 DUP3 PUSH1 0x40 MLOAD DUP1 PUSH1 0x40 ADD PUSH1 0x40 MSTORE DUP1 PUSH1 0x20 DUP2 MSTORE PUSH1 0x20 ADD PUSH32 0x5361666545524332303A206C6F772D6C6576656C2063616C6C206661696C6564 DUP2 MSTORE POP DUP6 PUSH1 0x1 PUSH1 0x1 PUSH1 0xA0 SHL SUB AND PUSH2 0x167C SWAP1 SWAP3 SWAP2 SWAP1 PUSH4 0xFFFFFFFF AND JUMP JUMPDEST DUP1 MLOAD SWAP1 SWAP2 POP ISZERO PUSH2 0xF5A JUMPI DUP1 DUP1 PUSH1 0x20 ADD SWAP1 MLOAD DUP2 ADD SWAP1 PUSH2 0x1606 SWAP2 SWAP1 PUSH2 0x1855 JUMP JUMPDEST PUSH2 0xF5A JUMPI PUSH1 0x40 MLOAD PUSH3 0x461BCD PUSH1 0xE5 SHL DUP2 MSTORE PUSH1 0x4 ADD PUSH2 0x47D SWAP1 PUSH2 0x1BBB JUMP JUMPDEST PUSH1 0x0 DUP1 PUSH2 0x1631 DUP6 PUSH2 0x26F2 PUSH2 0xF5F JUMP JUMPDEST SWAP1 POP PUSH1 0x0 PUSH2 0x163F DUP3 DUP6 PUSH2 0xF5F JUMP JUMPDEST SWAP1 POP PUSH1 0x0 PUSH2 0x1659 DUP4 PUSH2 0x1653 DUP9 PUSH2 0x2710 PUSH2 0xF5F JUMP JUMPDEST SWAP1 PUSH2 0x1670 JUMP JUMPDEST SWAP1 POP PUSH2 0x1665 DUP2 DUP4 PUSH2 0x1C75 JUMP JUMPDEST SWAP8 SWAP7 POP POP POP POP POP POP POP JUMP JUMPDEST PUSH1 0x0 PUSH2 0xF6B DUP3 DUP5 PUSH2 0x1C5D JUMP JUMPDEST PUSH1 0x60 PUSH2 0x168B DUP5 DUP5 PUSH1 0x0 DUP6 PUSH2 0x1693 JUMP JUMPDEST SWAP5 SWAP4 POP POP POP POP JUMP JUMPDEST PUSH1 0x60 DUP3 SELFBALANCE LT ISZERO PUSH2 0x16B5 JUMPI PUSH1 0x40 MLOAD PUSH3 0x461BCD PUSH1 0xE5 SHL DUP2 MSTORE PUSH1 0x4 ADD PUSH2 0x47D SWAP1 PUSH2 0x1ABB JUMP JUMPDEST PUSH2 0x16BE DUP6 PUSH2 0x1748 JUMP JUMPDEST PUSH2 0x16DA JUMPI PUSH1 0x40 MLOAD PUSH3 0x461BCD PUSH1 0xE5 SHL DUP2 MSTORE PUSH1 0x4 ADD PUSH2 0x47D SWAP1 PUSH2 0x1B84 JUMP JUMPDEST PUSH1 0x0 DUP1 DUP7 PUSH1 0x1 PUSH1 0x1 PUSH1 0xA0 SHL SUB AND DUP6 DUP8 PUSH1 0x40 MLOAD PUSH2 0x16F6 SWAP2 SWAP1 PUSH2 0x19B0 JUMP JUMPDEST PUSH1 0x0 PUSH1 0x40 MLOAD DUP1 DUP4 SUB DUP2 DUP6 DUP8 GAS CALL SWAP3 POP POP POP RETURNDATASIZE DUP1 PUSH1 0x0 DUP2 EQ PUSH2 0x1733 JUMPI PUSH1 0x40 MLOAD SWAP2 POP PUSH1 0x1F NOT PUSH1 0x3F RETURNDATASIZE ADD AND DUP3 ADD PUSH1 0x40 MSTORE RETURNDATASIZE DUP3 MSTORE RETURNDATASIZE PUSH1 0x0 PUSH1 0x20 DUP5 ADD RETURNDATACOPY PUSH2 0x1738 JUMP JUMPDEST PUSH1 0x60 SWAP2 POP JUMPDEST POP SWAP2 POP SWAP2 POP PUSH2 0x1665 DUP3 DUP3 DUP7 PUSH2 0x174E JUMP JUMPDEST EXTCODESIZE ISZERO ISZERO SWAP1 JUMP JUMPDEST PUSH1 0x60 DUP4 ISZERO PUSH2 0x175D JUMPI POP DUP2 PUSH2 0xF6B JUMP JUMPDEST DUP3 MLOAD ISZERO PUSH2 0x176D JUMPI DUP3 MLOAD DUP1 DUP5 PUSH1 0x20 ADD REVERT JUMPDEST DUP2 PUSH1 0x40 MLOAD PUSH3 0x461BCD PUSH1 0xE5 SHL DUP2 MSTORE PUSH1 0x4 ADD PUSH2 0x47D SWAP2 SWAP1 PUSH2 0x1A1E JUMP JUMPDEST DUP1 MLOAD PUSH1 0x1 PUSH1 0x1 PUSH1 0x70 SHL SUB DUP2 AND DUP2 EQ PUSH2 0x48F JUMPI PUSH1 0x0 DUP1 REVERT JUMPDEST PUSH1 0x0 PUSH1 0x20 DUP3 DUP5 SUB SLT ISZERO PUSH2 0x17AF JUMPI DUP1 DUP2 REVERT JUMPDEST DUP2 CALLDATALOAD PUSH2 0xF6B DUP2 PUSH2 0x1D11 JUMP JUMPDEST PUSH1 0x0 PUSH1 0x20 DUP3 DUP5 SUB SLT ISZERO PUSH2 0x17CB JUMPI DUP1 DUP2 REVERT JUMPDEST DUP2 MLOAD PUSH2 0xF6B DUP2 PUSH2 0x1D11 JUMP JUMPDEST PUSH1 0x0 DUP1 PUSH1 0x40 DUP4 DUP6 SUB SLT ISZERO PUSH2 0x17E8 JUMPI DUP1 DUP2 REVERT JUMPDEST DUP3 CALLDATALOAD PUSH2 0x17F3 DUP2 PUSH2 0x1D11 JUMP JUMPDEST SWAP2 POP PUSH1 0x20 DUP4 ADD CALLDATALOAD PUSH2 0x1803 DUP2 PUSH2 0x1D26 JUMP JUMPDEST DUP1 SWAP2 POP POP SWAP3 POP SWAP3 SWAP1 POP JUMP JUMPDEST PUSH1 0x0 DUP1 PUSH1 0x40 DUP4 DUP6 SUB SLT ISZERO PUSH2 0x1820 JUMPI DUP2 DUP3 REVERT JUMPDEST DUP3 CALLDATALOAD PUSH2 0x182B DUP2 PUSH2 0x1D11 JUMP JUMPDEST SWAP5 PUSH1 0x20 SWAP4 SWAP1 SWAP4 ADD CALLDATALOAD SWAP4 POP POP POP JUMP JUMPDEST PUSH1 0x0 PUSH1 0x20 DUP3 DUP5 SUB SLT ISZERO PUSH2 0x184A JUMPI DUP1 DUP2 REVERT JUMPDEST DUP2 CALLDATALOAD PUSH2 0xF6B DUP2 PUSH2 0x1D26 JUMP JUMPDEST PUSH1 0x0 PUSH1 0x20 DUP3 DUP5 SUB SLT ISZERO PUSH2 0x1866 JUMPI DUP1 DUP2 REVERT JUMPDEST DUP2 MLOAD PUSH2 0xF6B DUP2 PUSH2 0x1D26 JUMP JUMPDEST PUSH1 0x0 DUP1 PUSH1 0x0 DUP1 PUSH1 0x0 DUP1 PUSH1 0x0 PUSH1 0xE0 DUP9 DUP11 SUB SLT ISZERO PUSH2 0x188B JUMPI DUP3 DUP4 REVERT JUMPDEST DUP8 CALLDATALOAD PUSH2 0x1896 DUP2 PUSH2 0x1D11 JUMP JUMPDEST SWAP7 POP PUSH1 0x20 DUP9 ADD CALLDATALOAD PUSH2 0x18A6 DUP2 PUSH2 0x1D11 JUMP JUMPDEST SWAP6 POP PUSH1 0x40 DUP9 ADD CALLDATALOAD PUSH2 0x18B6 DUP2 PUSH2 0x1D11 JUMP JUMPDEST SWAP5 POP PUSH1 0x60 DUP9 ADD CALLDATALOAD PUSH2 0x18C6 DUP2 PUSH2 0x1D11 JUMP JUMPDEST SWAP4 POP PUSH1 0x80 DUP9 ADD CALLDATALOAD PUSH2 0x18D6 DUP2 PUSH2 0x1D11 JUMP JUMPDEST SWAP3 POP PUSH1 0xA0 DUP9 ADD CALLDATALOAD PUSH2 0x18E6 DUP2 PUSH2 0x1D11 JUMP JUMPDEST SWAP2 POP PUSH1 0xC0 DUP9 ADD CALLDATALOAD PUSH2 0x18F6 DUP2 PUSH2 0x1D11 JUMP JUMPDEST DUP1 SWAP2 POP POP SWAP3 SWAP6 SWAP9 SWAP2 SWAP5 SWAP8 POP SWAP3 SWAP6 POP JUMP JUMPDEST PUSH1 0x0 DUP1 PUSH1 0x0 PUSH1 0x60 DUP5 DUP7 SUB SLT ISZERO PUSH2 0x191A JUMPI DUP3 DUP4 REVERT JUMPDEST PUSH2 0x1923 DUP5 PUSH2 0x1787 JUMP JUMPDEST SWAP3 POP PUSH2 0x1931 PUSH1 0x20 DUP6 ADD PUSH2 0x1787 JUMP JUMPDEST SWAP2 POP PUSH1 0x40 DUP5 ADD MLOAD PUSH4 0xFFFFFFFF DUP2 AND DUP2 EQ PUSH2 0x1949 JUMPI DUP2 DUP3 REVERT JUMPDEST DUP1 SWAP2 POP POP SWAP3 POP SWAP3 POP SWAP3 JUMP JUMPDEST PUSH1 0x0 PUSH1 0x20 DUP3 DUP5 SUB SLT ISZERO PUSH2 0x1965 JUMPI DUP1 DUP2 REVERT JUMPDEST POP CALLDATALOAD SWAP2 SWAP1 POP JUMP JUMPDEST PUSH1 0x0 PUSH1 0x20 DUP3 DUP5 SUB SLT ISZERO PUSH2 0x197D JUMPI DUP1 DUP2 REVERT JUMPDEST POP MLOAD SWAP2 SWAP1 POP JUMP JUMPDEST PUSH1 0x0 DUP2 MLOAD DUP1 DUP5 MSTORE PUSH2 0x199C DUP2 PUSH1 0x20 DUP7 ADD PUSH1 0x20 DUP7 ADD PUSH2 0x1CCB JUMP JUMPDEST PUSH1 0x1F ADD PUSH1 0x1F NOT AND SWAP3 SWAP1 SWAP3 ADD PUSH1 0x20 ADD SWAP3 SWAP2 POP POP JUMP JUMPDEST PUSH1 0x0 DUP3 MLOAD PUSH2 0x19C2 DUP2 DUP5 PUSH1 0x20 DUP8 ADD PUSH2 0x1CCB JUMP JUMPDEST SWAP2 SWAP1 SWAP2 ADD SWAP3 SWAP2 POP POP JUMP JUMPDEST PUSH1 0x1 PUSH1 0x1 PUSH1 0xA0 SHL SUB SWAP2 SWAP1 SWAP2 AND DUP2 MSTORE PUSH1 0x20 ADD SWAP1 JUMP JUMPDEST PUSH1 0x1 PUSH1 0x1 PUSH1 0xA0 SHL SUB SWAP3 DUP4 AND DUP2 MSTORE SWAP2 AND PUSH1 0x20 DUP3 ADD MSTORE PUSH1 0x40 ADD SWAP1 JUMP JUMPDEST PUSH1 0x1 PUSH1 0x1 PUSH1 0xA0 SHL SUB SWAP3 SWAP1 SWAP3 AND DUP3 MSTORE PUSH1 0x20 DUP3 ADD MSTORE PUSH1 0x40 ADD SWAP1 JUMP JUMPDEST SWAP1 ISZERO ISZERO DUP2 MSTORE PUSH1 0x20 ADD SWAP1 JUMP JUMPDEST PUSH1 0x0 PUSH1 0x20 DUP3 MSTORE PUSH2 0xF6B PUSH1 0x20 DUP4 ADD DUP5 PUSH2 0x1984 JUMP JUMPDEST PUSH1 0x20 DUP1 DUP3 MSTORE PUSH1 0x26 SWAP1 DUP3 ADD MSTORE PUSH32 0x4F776E61626C653A206E6577206F776E657220697320746865207A65726F2061 PUSH1 0x40 DUP3 ADD MSTORE PUSH6 0x646472657373 PUSH1 0xD0 SHL PUSH1 0x60 DUP3 ADD MSTORE PUSH1 0x80 ADD SWAP1 JUMP JUMPDEST PUSH1 0x20 DUP1 DUP3 MSTORE PUSH1 0x24 SWAP1 DUP3 ADD MSTORE PUSH32 0x6578656375746F723A2063616C6C6572206973206E6F74207468652065786563 PUSH1 0x40 DUP3 ADD MSTORE PUSH4 0x3ABA37B9 PUSH1 0xE1 SHL PUSH1 0x60 DUP3 ADD MSTORE PUSH1 0x80 ADD SWAP1 JUMP JUMPDEST PUSH1 0x20 DUP1 DUP3 MSTORE PUSH1 0x26 SWAP1 DUP3 ADD MSTORE PUSH32 0x416464726573733A20696E73756666696369656E742062616C616E636520666F PUSH1 0x40 DUP3 ADD MSTORE PUSH6 0x1C8818D85B1B PUSH1 0xD2 SHL PUSH1 0x60 DUP3 ADD MSTORE PUSH1 0x80 ADD SWAP1 JUMP JUMPDEST PUSH1 0x20 DUP1 DUP3 MSTORE PUSH1 0x2E SWAP1 DUP3 ADD MSTORE PUSH32 0x496E697469616C697A61626C653A20636F6E747261637420697320616C726561 PUSH1 0x40 DUP3 ADD MSTORE PUSH14 0x191E481A5B9A5D1A585B1A5E9959 PUSH1 0x92 SHL PUSH1 0x60 DUP3 ADD MSTORE PUSH1 0x80 ADD SWAP1 JUMP JUMPDEST PUSH1 0x20 DUP1 DUP3 MSTORE DUP2 DUP2 ADD MSTORE PUSH32 0x4F776E61626C653A2063616C6C6572206973206E6F7420746865206F776E6572 PUSH1 0x40 DUP3 ADD MSTORE PUSH1 0x60 ADD SWAP1 JUMP JUMPDEST PUSH1 0x20 DUP1 DUP3 MSTORE PUSH1 0x1D SWAP1 DUP3 ADD MSTORE PUSH32 0x416464726573733A2063616C6C20746F206E6F6E2D636F6E7472616374000000 PUSH1 0x40 DUP3 ADD MSTORE PUSH1 0x60 ADD SWAP1 JUMP JUMPDEST PUSH1 0x20 DUP1 DUP3 MSTORE PUSH1 0x2A SWAP1 DUP3 ADD MSTORE PUSH32 0x5361666545524332303A204552433230206F7065726174696F6E20646964206E PUSH1 0x40 DUP3 ADD MSTORE PUSH10 0x1BDD081CDD58D8D95959 PUSH1 0xB2 SHL PUSH1 0x60 DUP3 ADD MSTORE PUSH1 0x80 ADD SWAP1 JUMP JUMPDEST SWAP1 DUP2 MSTORE PUSH1 0x20 ADD SWAP1 JUMP JUMPDEST PUSH1 0x0 DUP6 DUP3 MSTORE DUP5 PUSH1 0x20 DUP4 ADD MSTORE PUSH1 0x1 DUP1 PUSH1 0xA0 SHL SUB DUP5 AND PUSH1 0x40 DUP4 ADD MSTORE PUSH1 0x80 PUSH1 0x60 DUP4 ADD MSTORE PUSH2 0x1C3B PUSH1 0x80 DUP4 ADD DUP5 PUSH2 0x1984 JUMP JUMPDEST SWAP7 SWAP6 POP POP POP POP POP POP JUMP JUMPDEST SWAP3 DUP4 MSTORE PUSH1 0x20 DUP4 ADD SWAP2 SWAP1 SWAP2 MSTORE ISZERO ISZERO PUSH1 0x40 DUP3 ADD MSTORE PUSH1 0x60 ADD SWAP1 JUMP JUMPDEST PUSH1 0x0 DUP3 NOT DUP3 GT ISZERO PUSH2 0x1C70 JUMPI PUSH2 0x1C70 PUSH2 0x1CFB JUMP JUMPDEST POP ADD SWAP1 JUMP JUMPDEST PUSH1 0x0 DUP3 PUSH2 0x1C90 JUMPI PUSH4 0x4E487B71 PUSH1 0xE0 SHL DUP2 MSTORE PUSH1 0x12 PUSH1 0x4 MSTORE PUSH1 0x24 DUP2 REVERT JUMPDEST POP DIV SWAP1 JUMP JUMPDEST PUSH1 0x0 DUP2 PUSH1 0x0 NOT DIV DUP4 GT DUP3 ISZERO ISZERO AND ISZERO PUSH2 0x1CAF JUMPI PUSH2 0x1CAF PUSH2 0x1CFB JUMP JUMPDEST POP MUL SWAP1 JUMP JUMPDEST PUSH1 0x0 DUP3 DUP3 LT ISZERO PUSH2 0x1CC6 JUMPI PUSH2 0x1CC6 PUSH2 0x1CFB JUMP JUMPDEST POP SUB SWAP1 JUMP JUMPDEST PUSH1 0x0 JUMPDEST DUP4 DUP2 LT ISZERO PUSH2 0x1CE6 JUMPI DUP2 DUP2 ADD MLOAD DUP4 DUP3 ADD MSTORE PUSH1 0x20 ADD PUSH2 0x1CCE JUMP JUMPDEST DUP4 DUP2 GT ISZERO PUSH2 0x1CF5 JUMPI PUSH1 0x0 DUP5 DUP5 ADD MSTORE JUMPDEST POP POP POP POP JUMP JUMPDEST PUSH4 0x4E487B71 PUSH1 0xE0 SHL PUSH1 0x0 MSTORE PUSH1 0x11 PUSH1 0x4 MSTORE PUSH1 0x24 PUSH1 0x0 REVERT JUMPDEST PUSH1 0x1 PUSH1 0x1 PUSH1 0xA0 SHL SUB DUP2 AND DUP2 EQ PUSH2 0xE18 JUMPI PUSH1 0x0 DUP1 REVERT JUMPDEST DUP1 ISZERO ISZERO DUP2 EQ PUSH2 0xE18 JUMPI PUSH1 0x0 DUP1 REVERT INVALID LOG2 PUSH5 0x6970667358 0x22 SLT KECCAK256 0xFB 0xC2 CALLDATALOAD PUSH1 0xDD SWAP13 0xBA 0xE1 0xD 0xE5 0xBF SWAP7 PUSH19 0x4EF02D2BC3D26B6FBC713203C9D35C81BC5291 PUSH5 0x736F6C6343 STOP ADDMOD STOP STOP CALLER "
				},
				"gasEstimates": {
					"creation": {
						"codeDepositCost": "1506000",
						"executionCost": "1575",
						"totalCost": "1507575"
					},
					"external": {
						"Factory()": "1137",
						"PRECISION()": "1117",
						"Router()": "1202",
						"autoAdjustFarm()": "1169",
						"basePoint()": "1075",
						"dev()": "1138",
						"executor(address)": "1348",
						"farm()": "1182",
						"initialize(address,address,address,address,address,address,address)": "infinite",
						"jointExecution()": "infinite",
						"op()": "1136",
						"openStabilizer()": "1146",
						"owner()": "1116",
						"pid()": "1116",
						"renounceOwnership()": "23618",
						"sea()": "1115",
						"setAutoAdjustFarm(bool)": "22238",
						"setDev(address)": "22297",
						"setExecutor(address,bool)": "infinite",
						"setFarm(address)": "22319",
						"setOp(address)": "22231",
						"setOpenStabilizer(bool)": "22237",
						"setPid(uint256)": "21330",
						"setStabilizer(address)": "22230",
						"setToDevPercent(uint256)": "21383",
						"setToOpPercent(uint256)": "21360",
						"setToSseaPercent(uint256)": "21362",
						"setUSDCAddress(address)": "22253",
						"ssea()": "1203",
						"stabilizer()": "1203",
						"toDevPercent()": "1140",
						"toOpPercent()": "1074",
						"toSseaPercent()": "1073",
						"transferOwnership(address)": "infinite",
						"usc()": "1138",
						"usdc()": "1116",
						"withdrawalERC20(address,uint256)": "infinite"
					},
					"internal": {
						"adjustFarm()": "infinite",
						"buySea(uint256)": "infinite",
						"getAmountOut(uint256,uint256,uint256)": "infinite"
					}
				},
				"methodIdentifiers": {
					"Factory()": "c83dd231",
					"PRECISION()": "aaf5eb68",
					"Router()": "f6d7eade",
					"autoAdjustFarm()": "9da5b0d5",
					"basePoint()": "16d03993",
					"dev()": "91cca3db",
					"executor(address)": "48c7e528",
					"farm()": "36e9332d",
					"initialize(address,address,address,address,address,address,address)": "35876476",
					"jointExecution()": "d10c06a2",
					"op()": "ec1f1f69",
					"openStabilizer()": "58de5de8",
					"owner()": "8da5cb5b",
					"pid()": "f1068454",
					"renounceOwnership()": "715018a6",
					"sea()": "4ecaac41",
					"setAutoAdjustFarm(bool)": "4591db50",
					"setDev(address)": "d477f05f",
					"setExecutor(address,bool)": "1e1bff3f",
					"setFarm(address)": "d4f26c51",
					"setOp(address)": "a36a7526",
					"setOpenStabilizer(bool)": "55c746d1",
					"setPid(uint256)": "1b0d8aab",
					"setStabilizer(address)": "db7f521a",
					"setToDevPercent(uint256)": "3c850e1e",
					"setToOpPercent(uint256)": "af5518c4",
					"setToSseaPercent(uint256)": "27c42a50",
					"setUSDCAddress(address)": "aaf5bfc3",
					"ssea()": "b8bb97a1",
					"stabilizer()": "7e47961c",
					"toDevPercent()": "4ae6a027",
					"toOpPercent()": "2c535a52",
					"toSseaPercent()": "bd0b1f44",
					"transferOwnership(address)": "f2fde38b",
					"usc()": "3011d3d5",
					"usdc()": "3e413bee",
					"withdrawalERC20(address,uint256)": "930ed033"
				}
			},
			"storageLayout": {
				"storage": [
					{
						"astId": 130,
						"contract": "contracts/helperLogic.sol:helperLogic",
						"label": "_initialized",
						"offset": 0,
						"slot": "0",
						"type": "t_bool"
					},
					{
						"astId": 133,
						"contract": "contracts/helperLogic.sol:helperLogic",
						"label": "_initializing",
						"offset": 1,
						"slot": "0",
						"type": "t_bool"
					},
					{
						"astId": 760,
						"contract": "contracts/helperLogic.sol:helperLogic",
						"label": "__gap",
						"offset": 0,
						"slot": "1",
						"type": "t_array(t_uint256)50_storage"
					},
					{
						"astId": 10,
						"contract": "contracts/helperLogic.sol:helperLogic",
						"label": "_owner",
						"offset": 0,
						"slot": "51",
						"type": "t_address"
					},
					{
						"astId": 124,
						"contract": "contracts/helperLogic.sol:helperLogic",
						"label": "__gap",
						"offset": 0,
						"slot": "52",
						"type": "t_array(t_uint256)49_storage"
					},
					{
						"astId": 1825,
						"contract": "contracts/helperLogic.sol:helperLogic",
						"label": "executor",
						"offset": 0,
						"slot": "101",
						"type": "t_mapping(t_address,t_bool)"
					},
					{
						"astId": 1828,
						"contract": "contracts/helperLogic.sol:helperLogic",
						"label": "usc",
						"offset": 0,
						"slot": "102",
						"type": "t_contract(IERC20Upgradeable)248"
					},
					{
						"astId": 1831,
						"contract": "contracts/helperLogic.sol:helperLogic",
						"label": "usdc",
						"offset": 0,
						"slot": "103",
						"type": "t_contract(IERC20Upgradeable)248"
					},
					{
						"astId": 1834,
						"contract": "contracts/helperLogic.sol:helperLogic",
						"label": "sea",
						"offset": 0,
						"slot": "104",
						"type": "t_contract(IERC20Upgradeable)248"
					},
					{
						"astId": 1837,
						"contract": "contracts/helperLogic.sol:helperLogic",
						"label": "ssea",
						"offset": 0,
						"slot": "105",
						"type": "t_contract(IERC20Upgradeable)248"
					},
					{
						"astId": 1839,
						"contract": "contracts/helperLogic.sol:helperLogic",
						"label": "op",
						"offset": 0,
						"slot": "106",
						"type": "t_address"
					},
					{
						"astId": 1841,
						"contract": "contracts/helperLogic.sol:helperLogic",
						"label": "dev",
						"offset": 0,
						"slot": "107",
						"type": "t_address"
					},
					{
						"astId": 1844,
						"contract": "contracts/helperLogic.sol:helperLogic",
						"label": "Router",
						"offset": 0,
						"slot": "108",
						"type": "t_contract(IUniswapV2Router02)1784"
					},
					{
						"astId": 1847,
						"contract": "contracts/helperLogic.sol:helperLogic",
						"label": "Factory",
						"offset": 0,
						"slot": "109",
						"type": "t_contract(IUniswapV2Factory)1146"
					},
					{
						"astId": 1849,
						"contract": "contracts/helperLogic.sol:helperLogic",
						"label": "toSseaPercent",
						"offset": 0,
						"slot": "110",
						"type": "t_uint256"
					},
					{
						"astId": 1851,
						"contract": "contracts/helperLogic.sol:helperLogic",
						"label": "toOpPercent",
						"offset": 0,
						"slot": "111",
						"type": "t_uint256"
					},
					{
						"astId": 1853,
						"contract": "contracts/helperLogic.sol:helperLogic",
						"label": "toDevPercent",
						"offset": 0,
						"slot": "112",
						"type": "t_uint256"
					},
					{
						"astId": 1855,
						"contract": "contracts/helperLogic.sol:helperLogic",
						"label": "PRECISION",
						"offset": 0,
						"slot": "113",
						"type": "t_uint256"
					},
					{
						"astId": 1857,
						"contract": "contracts/helperLogic.sol:helperLogic",
						"label": "basePoint",
						"offset": 0,
						"slot": "114",
						"type": "t_uint256"
					},
					{
						"astId": 1859,
						"contract": "contracts/helperLogic.sol:helperLogic",
						"label": "pid",
						"offset": 0,
						"slot": "115",
						"type": "t_uint256"
					},
					{
						"astId": 1862,
						"contract": "contracts/helperLogic.sol:helperLogic",
						"label": "farm",
						"offset": 0,
						"slot": "116",
						"type": "t_contract(IFarm)1804"
					},
					{
						"astId": 1864,
						"contract": "contracts/helperLogic.sol:helperLogic",
						"label": "autoAdjustFarm",
						"offset": 20,
						"slot": "116",
						"type": "t_bool"
					},
					{
						"astId": 1866,
						"contract": "contracts/helperLogic.sol:helperLogic",
						"label": "openStabilizer",
						"offset": 21,
						"slot": "116",
						"type": "t_bool"
					},
					{
						"astId": 1868,
						"contract": "contracts/helperLogic.sol:helperLogic",
						"label": "stabilizer",
						"offset": 0,
						"slot": "117",
						"type": "t_address"
					}
				],
				"types": {
					"t_address": {
						"encoding": "inplace",
						"label": "address",
						"numberOfBytes": "20"
					},
					"t_array(t_uint256)49_storage": {
						"base": "t_uint256",
						"encoding": "inplace",
						"label": "uint256[49]",
						"numberOfBytes": "1568"
					},
					"t_array(t_uint256)50_storage": {
						"base": "t_uint256",
						"encoding": "inplace",
						"label": "uint256[50]",
						"numberOfBytes": "1600"
					},
					"t_bool": {
						"encoding": "inplace",
						"label": "bool",
						"numberOfBytes": "1"
					},
					"t_contract(IERC20Upgradeable)248": {
						"encoding": "inplace",
						"label": "contract IERC20Upgradeable",
						"numberOfBytes": "20"
					},
					"t_contract(IFarm)1804": {
						"encoding": "inplace",
						"label": "contract IFarm",
						"numberOfBytes": "20"
					},
					"t_contract(IUniswapV2Factory)1146": {
						"encoding": "inplace",
						"label": "contract IUniswapV2Factory",
						"numberOfBytes": "20"
					},
					"t_contract(IUniswapV2Router02)1784": {
						"encoding": "inplace",
						"label": "contract IUniswapV2Router02",
						"numberOfBytes": "20"
					},
					"t_mapping(t_address,t_bool)": {
						"encoding": "mapping",
						"key": "t_address",
						"label": "mapping(address => bool)",
						"numberOfBytes": "32",
						"value": "t_bool"
					},
					"t_uint256": {
						"encoding": "inplace",
						"label": "uint256",
						"numberOfBytes": "32"
					}
				}
			},
			"userdoc": {
				"kind": "user",
				"methods": {},
				"version": 1
			}
		}
	}
}