{
	"contracts/mirrorseaMain.sol": {
		"mirrorseaMain": {
			"abi": [
				{
					"anonymous": false,
					"inputs": [
						{
							"indexed": true,
							"internalType": "address",
							"name": "previousOwner",
							"type": "address"
						},
						{
							"indexed": true,
							"internalType": "address",
							"name": "newOwner",
							"type": "address"
						}
					],
					"name": "OwnershipTransferred",
					"type": "event"
				},
				{
					"inputs": [],
					"name": "OrderIndex",
					"outputs": [
						{
							"internalType": "uint256",
							"name": "",
							"type": "uint256"
						}
					],
					"stateMutability": "view",
					"type": "function"
				},
				{
					"inputs": [],
					"name": "PRECISION",
					"outputs": [
						{
							"internalType": "uint256",
							"name": "",
							"type": "uint256"
						}
					],
					"stateMutability": "view",
					"type": "function"
				},
				{
					"inputs": [
						{
							"internalType": "uint256",
							"name": "_id",
							"type": "uint256"
						},
						{
							"internalType": "uint256",
							"name": "_price18",
							"type": "uint256"
						},
						{
							"internalType": "uint256",
							"name": "_margin",
							"type": "uint256"
						}
					],
					"name": "_isSolvent",
					"outputs": [
						{
							"internalType": "bool",
							"name": "",
							"type": "bool"
						}
					],
					"stateMutability": "view",
					"type": "function"
				},
				{
					"inputs": [
						{
							"internalType": "bool",
							"name": "_marketState",
							"type": "bool"
						},
						{
							"internalType": "uint256",
							"name": "_id",
							"type": "uint256"
						},
						{
							"internalType": "uint256",
							"name": "_timestamp",
							"type": "uint256"
						},
						{
							"internalType": "string",
							"name": "_symbols",
							"type": "string"
						},
						{
							"internalType": "uint256",
							"name": "_price18",
							"type": "uint256"
						},
						{
							"internalType": "bytes",
							"name": "_signature",
							"type": "bytes"
						},
						{
							"internalType": "uint256",
							"name": "_adjustMargin",
							"type": "uint256"
						}
					],
					"name": "adjustPosition",
					"outputs": [
						{
							"internalType": "bool",
							"name": "",
							"type": "bool"
						}
					],
					"stateMutability": "nonpayable",
					"type": "function"
				},
				{
					"inputs": [
						{
							"internalType": "bool",
							"name": "_marketState",
							"type": "bool"
						},
						{
							"internalType": "uint256",
							"name": "_id",
							"type": "uint256"
						},
						{
							"internalType": "uint256",
							"name": "_timestamp",
							"type": "uint256"
						},
						{
							"internalType": "string",
							"name": "_symbols",
							"type": "string"
						},
						{
							"internalType": "uint256",
							"name": "_price18",
							"type": "uint256"
						},
						{
							"internalType": "bytes",
							"name": "_signature",
							"type": "bytes"
						}
					],
					"name": "closePosition",
					"outputs": [
						{
							"internalType": "bool",
							"name": "",
							"type": "bool"
						}
					],
					"stateMutability": "nonpayable",
					"type": "function"
				},
				{
					"inputs": [
						{
							"internalType": "address",
							"name": "",
							"type": "address"
						}
					],
					"name": "executor",
					"outputs": [
						{
							"internalType": "bool",
							"name": "",
							"type": "bool"
						}
					],
					"stateMutability": "view",
					"type": "function"
				},
				{
					"inputs": [],
					"name": "feePercent",
					"outputs": [
						{
							"internalType": "uint256",
							"name": "",
							"type": "uint256"
						}
					],
					"stateMutability": "view",
					"type": "function"
				},
				{
					"inputs": [
						{
							"internalType": "bool",
							"name": "_marketState",
							"type": "bool"
						},
						{
							"internalType": "uint256",
							"name": "_id",
							"type": "uint256"
						},
						{
							"internalType": "uint256",
							"name": "_timestamp",
							"type": "uint256"
						},
						{
							"internalType": "string",
							"name": "_symbols",
							"type": "string"
						},
						{
							"internalType": "uint256",
							"name": "_price18",
							"type": "uint256"
						},
						{
							"internalType": "bytes",
							"name": "_signature",
							"type": "bytes"
						}
					],
					"name": "forcedLiquidation",
					"outputs": [
						{
							"internalType": "bool",
							"name": "",
							"type": "bool"
						}
					],
					"stateMutability": "nonpayable",
					"type": "function"
				},
				{
					"inputs": [],
					"name": "helperLogic",
					"outputs": [
						{
							"internalType": "contract IhelperLogic",
							"name": "",
							"type": "address"
						}
					],
					"stateMutability": "view",
					"type": "function"
				},
				{
					"inputs": [
						{
							"internalType": "address",
							"name": "_signer",
							"type": "address"
						},
						{
							"internalType": "contract IhelperLogic",
							"name": "_helperLogic",
							"type": "address"
						},
						{
							"internalType": "contract IERC20Upgradeable",
							"name": "_usc",
							"type": "address"
						},
						{
							"internalType": "contract IOracle",
							"name": "_oracle",
							"type": "address"
						}
					],
					"name": "initialize",
					"outputs": [],
					"stateMutability": "nonpayable",
					"type": "function"
				},
				{
					"inputs": [
						{
							"internalType": "bool",
							"name": "_marketState",
							"type": "bool"
						},
						{
							"internalType": "uint256[]",
							"name": "_id",
							"type": "uint256[]"
						},
						{
							"internalType": "uint256[]",
							"name": "_timestamp",
							"type": "uint256[]"
						},
						{
							"internalType": "string[]",
							"name": "_symbols",
							"type": "string[]"
						},
						{
							"internalType": "uint256[]",
							"name": "_price18",
							"type": "uint256[]"
						},
						{
							"internalType": "bytes[]",
							"name": "_signature",
							"type": "bytes[]"
						}
					],
					"name": "liquidation",
					"outputs": [
						{
							"internalType": "bool",
							"name": "",
							"type": "bool"
						}
					],
					"stateMutability": "nonpayable",
					"type": "function"
				},
				{
					"inputs": [],
					"name": "minVal",
					"outputs": [
						{
							"internalType": "uint256",
							"name": "",
							"type": "uint256"
						}
					],
					"stateMutability": "view",
					"type": "function"
				},
				{
					"inputs": [
						{
							"internalType": "address",
							"name": "",
							"type": "address"
						},
						{
							"internalType": "uint256",
							"name": "",
							"type": "uint256"
						}
					],
					"name": "myCloseOrderIdList",
					"outputs": [
						{
							"internalType": "uint256",
							"name": "",
							"type": "uint256"
						}
					],
					"stateMutability": "view",
					"type": "function"
				},
				{
					"inputs": [
						{
							"internalType": "address",
							"name": "_user",
							"type": "address"
						}
					],
					"name": "myCloseOrderIdListLength",
					"outputs": [
						{
							"internalType": "uint256",
							"name": "",
							"type": "uint256"
						}
					],
					"stateMutability": "view",
					"type": "function"
				},
				{
					"inputs": [
						{
							"internalType": "address",
							"name": "",
							"type": "address"
						},
						{
							"internalType": "uint256",
							"name": "",
							"type": "uint256"
						}
					],
					"name": "myCloseOrderIdList_index",
					"outputs": [
						{
							"internalType": "uint256",
							"name": "",
							"type": "uint256"
						}
					],
					"stateMutability": "view",
					"type": "function"
				},
				{
					"inputs": [
						{
							"internalType": "address",
							"name": "",
							"type": "address"
						},
						{
							"internalType": "uint256",
							"name": "",
							"type": "uint256"
						}
					],
					"name": "myOpenOrderIdList",
					"outputs": [
						{
							"internalType": "uint256",
							"name": "",
							"type": "uint256"
						}
					],
					"stateMutability": "view",
					"type": "function"
				},
				{
					"inputs": [
						{
							"internalType": "address",
							"name": "_user",
							"type": "address"
						}
					],
					"name": "myOpenOrderIdListLength",
					"outputs": [
						{
							"internalType": "uint256",
							"name": "",
							"type": "uint256"
						}
					],
					"stateMutability": "view",
					"type": "function"
				},
				{
					"inputs": [
						{
							"internalType": "address",
							"name": "",
							"type": "address"
						},
						{
							"internalType": "uint256",
							"name": "",
							"type": "uint256"
						}
					],
					"name": "myOpenOrderIdList_index",
					"outputs": [
						{
							"internalType": "uint256",
							"name": "",
							"type": "uint256"
						}
					],
					"stateMutability": "view",
					"type": "function"
				},
				{
					"inputs": [
						{
							"internalType": "uint256",
							"name": "",
							"type": "uint256"
						}
					],
					"name": "openOrderIdList",
					"outputs": [
						{
							"internalType": "uint256",
							"name": "",
							"type": "uint256"
						}
					],
					"stateMutability": "view",
					"type": "function"
				},
				{
					"inputs": [],
					"name": "openOrderIdListLength",
					"outputs": [
						{
							"internalType": "uint256",
							"name": "",
							"type": "uint256"
						}
					],
					"stateMutability": "view",
					"type": "function"
				},
				{
					"inputs": [
						{
							"internalType": "uint256",
							"name": "",
							"type": "uint256"
						}
					],
					"name": "openOrderIdList_index",
					"outputs": [
						{
							"internalType": "uint256",
							"name": "",
							"type": "uint256"
						}
					],
					"stateMutability": "view",
					"type": "function"
				},
				{
					"inputs": [
						{
							"internalType": "bool",
							"name": "_marketState",
							"type": "bool"
						},
						{
							"internalType": "uint256",
							"name": "_margin",
							"type": "uint256"
						},
						{
							"internalType": "uint256",
							"name": "_timestamp",
							"type": "uint256"
						},
						{
							"internalType": "uint256",
							"name": "_direction",
							"type": "uint256"
						},
						{
							"internalType": "uint256",
							"name": "_type",
							"type": "uint256"
						},
						{
							"internalType": "string",
							"name": "_symbols",
							"type": "string"
						},
						{
							"internalType": "uint256",
							"name": "_price18",
							"type": "uint256"
						},
						{
							"internalType": "uint256",
							"name": "_amt",
							"type": "uint256"
						},
						{
							"internalType": "bytes",
							"name": "_signature",
							"type": "bytes"
						}
					],
					"name": "openPosition",
					"outputs": [
						{
							"internalType": "bool",
							"name": "",
							"type": "bool"
						}
					],
					"stateMutability": "nonpayable",
					"type": "function"
				},
				{
					"inputs": [],
					"name": "oracle",
					"outputs": [
						{
							"internalType": "contract IOracle",
							"name": "",
							"type": "address"
						}
					],
					"stateMutability": "view",
					"type": "function"
				},
				{
					"inputs": [
						{
							"internalType": "uint256",
							"name": "_id",
							"type": "uint256"
						}
					],
					"name": "orderInfo",
					"outputs": [
						{
							"components": [
								{
									"internalType": "address",
									"name": "user",
									"type": "address"
								},
								{
									"internalType": "uint256",
									"name": "_type",
									"type": "uint256"
								},
								{
									"internalType": "string",
									"name": "symbols",
									"type": "string"
								},
								{
									"internalType": "uint256",
									"name": "state",
									"type": "uint256"
								},
								{
									"internalType": "uint256",
									"name": "direction",
									"type": "uint256"
								},
								{
									"internalType": "uint256",
									"name": "openPrice18",
									"type": "uint256"
								},
								{
									"internalType": "uint256",
									"name": "openTime",
									"type": "uint256"
								},
								{
									"internalType": "uint256",
									"name": "closePrice18",
									"type": "uint256"
								},
								{
									"internalType": "uint256",
									"name": "closeTime",
									"type": "uint256"
								},
								{
									"internalType": "uint256",
									"name": "amt",
									"type": "uint256"
								},
								{
									"internalType": "uint256",
									"name": "margin",
									"type": "uint256"
								}
							],
							"internalType": "struct mirrorseaMain.OrderInfo",
							"name": "",
							"type": "tuple"
						}
					],
					"stateMutability": "view",
					"type": "function"
				},
				{
					"inputs": [],
					"name": "owner",
					"outputs": [
						{
							"internalType": "address",
							"name": "",
							"type": "address"
						}
					],
					"stateMutability": "view",
					"type": "function"
				},
				{
					"inputs": [
						{
							"internalType": "address",
							"name": "_user",
							"type": "address"
						},
						{
							"internalType": "uint256",
							"name": "_type",
							"type": "uint256"
						},
						{
							"internalType": "uint256",
							"name": "_row",
							"type": "uint256"
						},
						{
							"internalType": "uint256",
							"name": "_page",
							"type": "uint256"
						}
					],
					"name": "pagination",
					"outputs": [
						{
							"internalType": "uint256[]",
							"name": "",
							"type": "uint256[]"
						}
					],
					"stateMutability": "view",
					"type": "function"
				},
				{
					"inputs": [],
					"name": "renounceOwnership",
					"outputs": [],
					"stateMutability": "nonpayable",
					"type": "function"
				},
				{
					"inputs": [
						{
							"internalType": "address",
							"name": "_address",
							"type": "address"
						},
						{
							"internalType": "bool",
							"name": "_type",
							"type": "bool"
						}
					],
					"name": "setExecutor",
					"outputs": [
						{
							"internalType": "bool",
							"name": "",
							"type": "bool"
						}
					],
					"stateMutability": "nonpayable",
					"type": "function"
				},
				{
					"inputs": [
						{
							"internalType": "uint256",
							"name": "_val",
							"type": "uint256"
						}
					],
					"name": "setFeePercent",
					"outputs": [
						{
							"internalType": "bool",
							"name": "",
							"type": "bool"
						}
					],
					"stateMutability": "nonpayable",
					"type": "function"
				},
				{
					"inputs": [
						{
							"internalType": "uint256",
							"name": "id",
							"type": "uint256"
						},
						{
							"internalType": "address",
							"name": "user",
							"type": "address"
						},
						{
							"internalType": "uint256",
							"name": "_type",
							"type": "uint256"
						},
						{
							"internalType": "string",
							"name": "symbols",
							"type": "string"
						},
						{
							"internalType": "uint256",
							"name": "state",
							"type": "uint256"
						},
						{
							"internalType": "uint256",
							"name": "direction",
							"type": "uint256"
						},
						{
							"internalType": "uint256",
							"name": "openPrice18",
							"type": "uint256"
						},
						{
							"internalType": "uint256",
							"name": "openTime",
							"type": "uint256"
						},
						{
							"internalType": "uint256",
							"name": "closePrice18",
							"type": "uint256"
						},
						{
							"internalType": "uint256",
							"name": "closeTime",
							"type": "uint256"
						},
						{
							"internalType": "uint256",
							"name": "amt",
							"type": "uint256"
						},
						{
							"internalType": "uint256",
							"name": "margin",
							"type": "uint256"
						}
					],
					"name": "setOrderInfo",
					"outputs": [
						{
							"internalType": "bool",
							"name": "",
							"type": "bool"
						}
					],
					"stateMutability": "nonpayable",
					"type": "function"
				},
				{
					"inputs": [
						{
							"internalType": "address",
							"name": "_address",
							"type": "address"
						}
					],
					"name": "setSigner",
					"outputs": [
						{
							"internalType": "bool",
							"name": "",
							"type": "bool"
						}
					],
					"stateMutability": "nonpayable",
					"type": "function"
				},
				{
					"inputs": [],
					"name": "signer",
					"outputs": [
						{
							"internalType": "address",
							"name": "",
							"type": "address"
						}
					],
					"stateMutability": "view",
					"type": "function"
				},
				{
					"inputs": [
						{
							"internalType": "address",
							"name": "newOwner",
							"type": "address"
						}
					],
					"name": "transferOwnership",
					"outputs": [],
					"stateMutability": "nonpayable",
					"type": "function"
				},
				{
					"inputs": [],
					"name": "usc",
					"outputs": [
						{
							"internalType": "contract IERC20Upgradeable",
							"name": "",
							"type": "address"
						}
					],
					"stateMutability": "view",
					"type": "function"
				}
			],
			"devdoc": {
				"kind": "dev",
				"methods": {
					"owner()": {
						"details": "Returns the address of the current owner."
					},
					"renounceOwnership()": {
						"details": "Leaves the contract without owner. It will not be possible to call `onlyOwner` functions anymore. Can only be called by the current owner. NOTE: Renouncing ownership will leave the contract without an owner, thereby removing any functionality that is only available to the owner."
					},
					"transferOwnership(address)": {
						"details": "Transfers ownership of the contract to a new account (`newOwner`). Can only be called by the current owner."
					}
				},
				"version": 1
			},
			"evm": {
				"assembly": "    /* \"contracts/mirrorseaMain.sol\":910:17483  contract mirrorseaMain is Initializable, OwnableUpgradeable {... */\n  mstore(0x40, 0x80)\n  callvalue\n  dup1\n  iszero\n  tag_1\n  jumpi\n  0x00\n  dup1\n  revert\ntag_1:\n  pop\n  dataSize(sub_0)\n  dup1\n  dataOffset(sub_0)\n  0x00\n  codecopy\n  0x00\n  return\nstop\n\nsub_0: assembly {\n        /* \"contracts/mirrorseaMain.sol\":910:17483  contract mirrorseaMain is Initializable, OwnableUpgradeable {... */\n      mstore(0x40, 0x80)\n      callvalue\n      dup1\n      iszero\n      tag_1\n      jumpi\n      0x00\n      dup1\n      revert\n    tag_1:\n      pop\n      jumpi(tag_2, lt(calldatasize, 0x04))\n      shr(0xe0, calldataload(0x00))\n      dup1\n      0x7dc0d1d0\n      gt\n      tag_37\n      jumpi\n      dup1\n      0xdb4a5aa9\n      gt\n      tag_38\n      jumpi\n      dup1\n      0xf14053ad\n      gt\n      tag_39\n      jumpi\n      dup1\n      0xf14053ad\n      eq\n      tag_32\n      jumpi\n      dup1\n      0xf2fde38b\n      eq\n      tag_33\n      jumpi\n      dup1\n      0xf7ab69fd\n      eq\n      tag_34\n      jumpi\n      dup1\n      0xf8c8765e\n      eq\n      tag_35\n      jumpi\n      dup1\n      0xfc234d06\n      eq\n      tag_36\n      jumpi\n      jump(tag_2)\n    tag_39:\n      dup1\n      0xdb4a5aa9\n      eq\n      tag_28\n      jumpi\n      dup1\n      0xe4e95520\n      eq\n      tag_29\n      jumpi\n      dup1\n      0xec4c4f34\n      eq\n      tag_30\n      jumpi\n      dup1\n      0xf0c765e4\n      eq\n      tag_31\n      jumpi\n      jump(tag_2)\n    tag_38:\n      dup1\n      0xa8ecb028\n      gt\n      tag_40\n      jumpi\n      dup1\n      0xa8ecb028\n      eq\n      tag_24\n      jumpi\n      dup1\n      0xaaf5eb68\n      eq\n      tag_25\n      jumpi\n      dup1\n      0xaecf77b1\n      eq\n      tag_26\n      jumpi\n      dup1\n      0xc2ec527d\n      eq\n      tag_27\n      jumpi\n      jump(tag_2)\n    tag_40:\n      dup1\n      0x7dc0d1d0\n      eq\n      tag_20\n      jumpi\n      dup1\n      0x7fd6f15c\n      eq\n      tag_21\n      jumpi\n      dup1\n      0x8da5cb5b\n      eq\n      tag_22\n      jumpi\n      dup1\n      0xa0ad12e2\n      eq\n      tag_23\n      jumpi\n      jump(tag_2)\n    tag_37:\n      dup1\n      0x43b1f3cb\n      gt\n      tag_41\n      jumpi\n      dup1\n      0x6c19e783\n      gt\n      tag_42\n      jumpi\n      dup1\n      0x6c19e783\n      eq\n      tag_15\n      jumpi\n      dup1\n      0x6e812437\n      eq\n      tag_16\n      jumpi\n      dup1\n      0x715018a6\n      eq\n      tag_17\n      jumpi\n      dup1\n      0x7be3a1a1\n      eq\n      tag_18\n      jumpi\n      dup1\n      0x7ce3489b\n      eq\n      tag_19\n      jumpi\n      jump(tag_2)\n    tag_42:\n      dup1\n      0x43b1f3cb\n      eq\n      tag_11\n      jumpi\n      dup1\n      0x48c7e528\n      eq\n      tag_12\n      jumpi\n      dup1\n      0x4b989ce3\n      eq\n      tag_13\n      jumpi\n      dup1\n      0x6ab34a4a\n      eq\n      tag_14\n      jumpi\n      jump(tag_2)\n    tag_41:\n      dup1\n      0x238ac933\n      gt\n      tag_43\n      jumpi\n      dup1\n      0x238ac933\n      eq\n      tag_7\n      jumpi\n      dup1\n      0x2705c55b\n      eq\n      tag_8\n      jumpi\n      dup1\n      0x3011d3d5\n      eq\n      tag_9\n      jumpi\n      dup1\n      0x323b9b2b\n      eq\n      tag_10\n      jumpi\n      jump(tag_2)\n    tag_43:\n      dup1\n      0x080270a8\n      eq\n      tag_3\n      jumpi\n      dup1\n      0x0f58d242\n      eq\n      tag_4\n      jumpi\n      dup1\n      0x1e1bff3f\n      eq\n      tag_5\n      jumpi\n      dup1\n      0x1e64610c\n      eq\n      tag_6\n      jumpi\n    tag_2:\n      0x00\n      dup1\n      revert\n        /* \"contracts/mirrorseaMain.sol\":4639:5912  function pagination(... */\n    tag_3:\n      tag_44\n      tag_45\n      calldatasize\n      0x04\n      tag_46\n      jump\t// in\n    tag_45:\n      tag_47\n      jump\t// in\n    tag_44:\n      mload(0x40)\n      tag_48\n      swap2\n      swap1\n      tag_49\n      jump\t// in\n    tag_48:\n      mload(0x40)\n      dup1\n      swap2\n      sub\n      swap1\n      return\n        /* \"contracts/mirrorseaMain.sol\":1347:1379  uint256[] public openOrderIdList */\n    tag_4:\n      tag_50\n      tag_51\n      calldatasize\n      0x04\n      tag_52\n      jump\t// in\n    tag_51:\n      tag_53\n      jump\t// in\n    tag_50:\n      mload(0x40)\n      tag_48\n      swap2\n      swap1\n      tag_55\n      jump\t// in\n        /* \"contracts/mirrorseaMain.sol\":3136:3313  function setExecutor(address _address, bool _type)... */\n    tag_5:\n      tag_56\n      tag_57\n      calldatasize\n      0x04\n      tag_58\n      jump\t// in\n    tag_57:\n      tag_59\n      jump\t// in\n    tag_56:\n      mload(0x40)\n      tag_48\n      swap2\n      swap1\n      tag_61\n      jump\t// in\n        /* \"contracts/mirrorseaMain.sol\":1196:1227  IhelperLogic public helperLogic */\n    tag_6:\n      tag_62\n      tag_63\n      jump\t// in\n    tag_62:\n      mload(0x40)\n      tag_48\n      swap2\n      swap1\n      tag_69\n      jump\t// in\n        /* \"contracts/mirrorseaMain.sol\":1135:1156  address public signer */\n    tag_7:\n      tag_62\n      tag_67\n      jump\t// in\n        /* \"contracts/mirrorseaMain.sol\":14693:15972  function _isSolvent(... */\n    tag_8:\n      tag_56\n      tag_71\n      calldatasize\n      0x04\n      tag_72\n      jump\t// in\n    tag_71:\n      tag_73\n      jump\t// in\n        /* \"contracts/mirrorseaMain.sol\":1162:1190  IERC20Upgradeable public usc */\n    tag_9:\n      tag_62\n      tag_76\n      jump\t// in\n        /* \"contracts/mirrorseaMain.sol\":2685:2794  function openOrderIdListLength() public view returns (uint256) {... */\n    tag_10:\n      tag_50\n      tag_80\n      jump\t// in\n        /* \"contracts/mirrorseaMain.sol\":1385:1441  mapping(uint256 => uint256) public openOrderIdList_index */\n    tag_11:\n      tag_50\n      tag_83\n      calldatasize\n      0x04\n      tag_52\n      jump\t// in\n    tag_83:\n      tag_84\n      jump\t// in\n        /* \"contracts/mirrorseaMain.sol\":1089:1129  mapping(address => bool) public executor */\n    tag_12:\n      tag_56\n      tag_87\n      calldatasize\n      0x04\n      tag_88\n      jump\t// in\n    tag_87:\n      tag_89\n      jump\t// in\n        /* \"contracts/mirrorseaMain.sol\":13239:14128  function liquidation(... */\n    tag_13:\n      tag_56\n      tag_92\n      calldatasize\n      0x04\n      tag_93\n      jump\t// in\n    tag_92:\n      tag_94\n      jump\t// in\n        /* \"contracts/mirrorseaMain.sol\":3740:3852  function orderInfo(uint256 _id) external view returns (OrderInfo memory) {... */\n    tag_14:\n      tag_96\n      tag_97\n      calldatasize\n      0x04\n      tag_52\n      jump\t// in\n    tag_97:\n      tag_98\n      jump\t// in\n    tag_96:\n      mload(0x40)\n      tag_48\n      swap2\n      swap1\n      tag_100\n      jump\t// in\n        /* \"contracts/mirrorseaMain.sol\":3608:3734  function setSigner(address _address) external onlyOwner returns (bool) {... */\n    tag_15:\n      tag_56\n      tag_102\n      calldatasize\n      0x04\n      tag_88\n      jump\t// in\n    tag_102:\n      tag_103\n      jump\t// in\n        /* \"contracts/mirrorseaMain.sol\":12255:12847  function closePosition(... */\n    tag_16:\n      tag_56\n      tag_106\n      calldatasize\n      0x04\n      tag_107\n      jump\t// in\n    tag_106:\n      tag_108\n      jump\t// in\n        /* \"@openzeppelin/contracts-upgradeable/access/OwnableUpgradeable.sol\":1934:2035  function renounceOwnership() public virtual onlyOwner {... */\n    tag_17:\n      tag_110\n      tag_111\n      jump\t// in\n    tag_110:\n      stop\n        /* \"contracts/mirrorseaMain.sol\":1508:1594  mapping(address => mapping(uint256 => uint256))... */\n    tag_18:\n      tag_50\n      tag_113\n      calldatasize\n      0x04\n      tag_114\n      jump\t// in\n    tag_113:\n      tag_115\n      jump\t// in\n        /* \"contracts/mirrorseaMain.sol\":3463:3589  function setFeePercent(uint256 _val) external onlyOwner returns (bool) {... */\n    tag_19:\n      tag_56\n      tag_118\n      calldatasize\n      0x04\n      tag_52\n      jump\t// in\n    tag_118:\n      tag_119\n      jump\t// in\n        /* \"contracts/mirrorseaMain.sol\":1233:1254  IOracle public oracle */\n    tag_20:\n      tag_62\n      tag_122\n      jump\t// in\n        /* \"contracts/mirrorseaMain.sol\":1756:1781  uint256 public feePercent */\n    tag_21:\n      tag_50\n      tag_126\n      jump\t// in\n        /* \"@openzeppelin/contracts-upgradeable/access/OwnableUpgradeable.sol\":1302:1387  function owner() public view virtual returns (address) {... */\n    tag_22:\n      tag_62\n      tag_129\n      jump\t// in\n        /* \"contracts/mirrorseaMain.sol\":14134:14687  function forcedLiquidation(... */\n    tag_23:\n      tag_56\n      tag_132\n      calldatasize\n      0x04\n      tag_107\n      jump\t// in\n    tag_132:\n      tag_133\n      jump\t// in\n        /* \"contracts/mirrorseaMain.sol\":15978:17481  function adjustPosition(... */\n    tag_24:\n      tag_56\n      tag_136\n      calldatasize\n      0x04\n      tag_137\n      jump\t// in\n    tag_136:\n      tag_138\n      jump\t// in\n        /* \"contracts/mirrorseaMain.sol\":1787:1811  uint256 public PRECISION */\n    tag_25:\n      tag_50\n      tag_141\n      jump\t// in\n        /* \"contracts/mirrorseaMain.sol\":2967:3130  function myCloseOrderIdListLength(address _user)... */\n    tag_26:\n      tag_50\n      tag_144\n      calldatasize\n      0x04\n      tag_88\n      jump\t// in\n    tag_144:\n      tag_145\n      jump\t// in\n        /* \"contracts/mirrorseaMain.sol\":1448:1502  mapping(address => uint256[]) public myOpenOrderIdList */\n    tag_27:\n      tag_50\n      tag_148\n      calldatasize\n      0x04\n      tag_114\n      jump\t// in\n    tag_148:\n      tag_149\n      jump\t// in\n        /* \"contracts/mirrorseaMain.sol\":5918:7816  function openPosition(... */\n    tag_28:\n      tag_56\n      tag_152\n      calldatasize\n      0x04\n      tag_153\n      jump\t// in\n    tag_152:\n      tag_154\n      jump\t// in\n        /* \"contracts/mirrorseaMain.sol\":2800:2961  function myOpenOrderIdListLength(address _user)... */\n    tag_29:\n      tag_50\n      tag_157\n      calldatasize\n      0x04\n      tag_88\n      jump\t// in\n    tag_157:\n      tag_158\n      jump\t// in\n        /* \"contracts/mirrorseaMain.sol\":1601:1656  mapping(address => uint256[]) public myCloseOrderIdList */\n    tag_30:\n      tag_50\n      tag_161\n      calldatasize\n      0x04\n      tag_114\n      jump\t// in\n    tag_161:\n      tag_162\n      jump\t// in\n        /* \"contracts/mirrorseaMain.sol\":1662:1749  mapping(address => mapping(uint256 => uint256))... */\n    tag_31:\n      tag_50\n      tag_165\n      calldatasize\n      0x04\n      tag_114\n      jump\t// in\n    tag_165:\n      tag_166\n      jump\t// in\n        /* \"contracts/mirrorseaMain.sol\":1818:1839  uint256 public minVal */\n    tag_32:\n      tag_50\n      tag_169\n      jump\t// in\n        /* \"@openzeppelin/contracts-upgradeable/access/OwnableUpgradeable.sol\":2184:2382  function transferOwnership(address newOwner) public virtual onlyOwner {... */\n    tag_33:\n      tag_110\n      tag_172\n      calldatasize\n      0x04\n      tag_88\n      jump\t// in\n    tag_172:\n      tag_173\n      jump\t// in\n        /* \"contracts/mirrorseaMain.sol\":1315:1340  uint256 public OrderIndex */\n    tag_34:\n      tag_50\n      tag_175\n      jump\t// in\n        /* \"contracts/mirrorseaMain.sol\":2277:2657  function initialize(... */\n    tag_35:\n      tag_110\n      tag_178\n      calldatasize\n      0x04\n      tag_179\n      jump\t// in\n    tag_178:\n      tag_180\n      jump\t// in\n        /* \"contracts/mirrorseaMain.sol\":3858:4633  function setOrderInfo(... */\n    tag_36:\n      tag_56\n      tag_182\n      calldatasize\n      0x04\n      tag_183\n      jump\t// in\n    tag_182:\n      tag_184\n      jump\t// in\n        /* \"contracts/mirrorseaMain.sol\":4639:5912  function pagination(... */\n    tag_47:\n        /* \"contracts/mirrorseaMain.sol\":4779:4795  uint256[] memory */\n      0x60\n        /* \"contracts/mirrorseaMain.sol\":4807:4820  uint256 index */\n      0x00\n      dup1\n        /* \"contracts/mirrorseaMain.sol\":4779:4795  uint256[] memory */\n      dup3\n        /* \"contracts/mirrorseaMain.sol\":4887:4897  _type == 0 */\n      dup7\n        /* \"contracts/mirrorseaMain.sol\":4883:5106  if (_type == 0) {... */\n      tag_187\n      jumpi\n        /* \"contracts/mirrorseaMain.sol\":4921:4936  openOrderIdList */\n      0x6c\n        /* \"contracts/mirrorseaMain.sol\":4913:4936  _list = openOrderIdList */\n      dup1\n      sload\n      dup1\n      0x20\n      mul\n      0x20\n      add\n      mload(0x40)\n      swap1\n      dup2\n      add\n      0x40\n      mstore\n      dup1\n      swap3\n      swap2\n      swap1\n      dup2\n      dup2\n      mstore\n      0x20\n      add\n      dup3\n      dup1\n      sload\n      dup1\n      iszero\n      tag_188\n      jumpi\n      0x20\n      mul\n      dup3\n      add\n      swap2\n      swap1\n      0x00\n      mstore\n      keccak256(0x00, 0x20)\n      swap1\n    tag_189:\n      dup2\n      sload\n      dup2\n      mstore\n      0x20\n      add\n      swap1\n      0x01\n      add\n      swap1\n      dup1\n      dup4\n      gt\n      tag_189\n      jumpi\n    tag_188:\n      pop\n      pop\n      pop\n      pop\n      pop\n      swap1\n      pop\n        /* \"contracts/mirrorseaMain.sol\":4883:5106  if (_type == 0) {... */\n      jump(tag_195)\n    tag_187:\n        /* \"contracts/mirrorseaMain.sol\":4957:4962  _type */\n      dup7\n        /* \"contracts/mirrorseaMain.sol\":4966:4967  1 */\n      0x01\n        /* \"contracts/mirrorseaMain.sol\":4957:4967  _type == 1 */\n      eq\n        /* \"contracts/mirrorseaMain.sol\":4953:5106  if (_type == 1) {... */\n      iszero\n      tag_191\n      jumpi\n      sub(shl(0xa0, 0x01), 0x01)\n        /* \"contracts/mirrorseaMain.sol\":4991:5015  myOpenOrderIdList[_user] */\n      dup9\n      and\n      0x00\n      swap1\n      dup2\n      mstore\n        /* \"contracts/mirrorseaMain.sol\":4991:5008  myOpenOrderIdList */\n      0x6e\n        /* \"contracts/mirrorseaMain.sol\":4991:5015  myOpenOrderIdList[_user] */\n      0x20\n      swap1\n      dup2\n      mstore\n      0x40\n      swap2\n      dup3\n      swap1\n      keccak256\n        /* \"contracts/mirrorseaMain.sol\":4983:5015  _list = myOpenOrderIdList[_user] */\n      dup1\n      sload\n      dup4\n      mload\n      dup2\n      dup5\n      mul\n      dup2\n      add\n      dup5\n      add\n      swap1\n      swap5\n      mstore\n      dup1\n      dup5\n      mstore\n        /* \"contracts/mirrorseaMain.sol\":4991:5015  myOpenOrderIdList[_user] */\n      swap1\n      swap2\n        /* \"contracts/mirrorseaMain.sol\":4983:5015  _list = myOpenOrderIdList[_user] */\n      dup4\n      add\n        /* \"contracts/mirrorseaMain.sol\":4991:5015  myOpenOrderIdList[_user] */\n      dup3\n        /* \"contracts/mirrorseaMain.sol\":4983:5015  _list = myOpenOrderIdList[_user] */\n      dup3\n      dup1\n      iszero\n      tag_188\n      jumpi\n      0x20\n      mul\n      dup3\n      add\n      swap2\n      swap1\n      0x00\n      mstore\n      keccak256(0x00, 0x20)\n      swap1\n      dup2\n      sload\n      dup2\n      mstore\n      0x20\n      add\n      swap1\n      0x01\n      add\n      swap1\n      dup1\n      dup4\n      gt\n      tag_189\n      jumpi\n      pop\n      pop\n      pop\n      pop\n      pop\n      swap1\n      pop\n        /* \"contracts/mirrorseaMain.sol\":4953:5106  if (_type == 1) {... */\n      jump(tag_195)\n    tag_191:\n        /* \"contracts/mirrorseaMain.sol\":5036:5041  _type */\n      dup7\n        /* \"contracts/mirrorseaMain.sol\":5045:5046  2 */\n      0x02\n        /* \"contracts/mirrorseaMain.sol\":5036:5046  _type == 2 */\n      eq\n        /* \"contracts/mirrorseaMain.sol\":5032:5106  if (_type == 2) {... */\n      iszero\n      tag_195\n      jumpi\n      sub(shl(0xa0, 0x01), 0x01)\n        /* \"contracts/mirrorseaMain.sol\":5070:5095  myCloseOrderIdList[_user] */\n      dup9\n      and\n      0x00\n      swap1\n      dup2\n      mstore\n        /* \"contracts/mirrorseaMain.sol\":5070:5088  myCloseOrderIdList */\n      0x70\n        /* \"contracts/mirrorseaMain.sol\":5070:5095  myCloseOrderIdList[_user] */\n      0x20\n      swap1\n      dup2\n      mstore\n      0x40\n      swap2\n      dup3\n      swap1\n      keccak256\n        /* \"contracts/mirrorseaMain.sol\":5062:5095  _list = myCloseOrderIdList[_user] */\n      dup1\n      sload\n      dup4\n      mload\n      dup2\n      dup5\n      mul\n      dup2\n      add\n      dup5\n      add\n      swap1\n      swap5\n      mstore\n      dup1\n      dup5\n      mstore\n        /* \"contracts/mirrorseaMain.sol\":5070:5095  myCloseOrderIdList[_user] */\n      swap1\n      swap2\n        /* \"contracts/mirrorseaMain.sol\":5062:5095  _list = myCloseOrderIdList[_user] */\n      dup4\n      add\n        /* \"contracts/mirrorseaMain.sol\":5070:5095  myCloseOrderIdList[_user] */\n      dup3\n        /* \"contracts/mirrorseaMain.sol\":5062:5095  _list = myCloseOrderIdList[_user] */\n      dup3\n      dup1\n      iszero\n      tag_196\n      jumpi\n      0x20\n      mul\n      dup3\n      add\n      swap2\n      swap1\n      0x00\n      mstore\n      keccak256(0x00, 0x20)\n      swap1\n    tag_197:\n      dup2\n      sload\n      dup2\n      mstore\n      0x20\n      add\n      swap1\n      0x01\n      add\n      swap1\n      dup1\n      dup4\n      gt\n      tag_197\n      jumpi\n    tag_196:\n      pop\n      pop\n      pop\n      pop\n      pop\n      swap1\n      pop\n        /* \"contracts/mirrorseaMain.sol\":5032:5106  if (_type == 2) {... */\n    tag_195:\n        /* \"contracts/mirrorseaMain.sol\":5115:5129  uint256 remAmt */\n      0x00\n        /* \"contracts/mirrorseaMain.sol\":5132:5175  _list.length.sub(_row.mul(_page).sub(_row)) */\n      tag_198\n        /* \"contracts/mirrorseaMain.sol\":5149:5174  _row.mul(_page).sub(_row) */\n      tag_199\n        /* \"contracts/mirrorseaMain.sol\":5169:5173  _row */\n      dup9\n        /* \"contracts/mirrorseaMain.sol\":5149:5164  _row.mul(_page) */\n      tag_200\n        /* \"contracts/mirrorseaMain.sol\":5169:5173  _row */\n      dup2\n        /* \"contracts/mirrorseaMain.sol\":5158:5163  _page */\n      dup11\n        /* \"contracts/mirrorseaMain.sol\":5149:5157  _row.mul */\n      tag_201\n        /* \"contracts/mirrorseaMain.sol\":5149:5164  _row.mul(_page) */\n      jump\t// in\n    tag_200:\n        /* \"contracts/mirrorseaMain.sol\":5149:5168  _row.mul(_page).sub */\n      swap1\n      tag_202\n        /* \"contracts/mirrorseaMain.sol\":5149:5174  _row.mul(_page).sub(_row) */\n      jump\t// in\n    tag_199:\n        /* \"contracts/mirrorseaMain.sol\":5132:5144  _list.length */\n      dup4\n      mload\n      swap1\n        /* \"contracts/mirrorseaMain.sol\":5132:5148  _list.length.sub */\n      tag_202\n        /* \"contracts/mirrorseaMain.sol\":5132:5175  _list.length.sub(_row.mul(_page).sub(_row)) */\n      jump\t// in\n    tag_198:\n        /* \"contracts/mirrorseaMain.sol\":5115:5175  uint256 remAmt = _list.length.sub(_row.mul(_page).sub(_row)) */\n      swap1\n      pop\n        /* \"contracts/mirrorseaMain.sol\":5199:5203  _row */\n      dup7\n        /* \"contracts/mirrorseaMain.sol\":5189:5195  remAmt */\n      dup2\n        /* \"contracts/mirrorseaMain.sol\":5189:5203  remAmt >= _row */\n      lt\n        /* \"contracts/mirrorseaMain.sol\":5185:5283  if (remAmt >= _row) {... */\n      tag_203\n      jumpi\n        /* \"contracts/mirrorseaMain.sol\":5225:5229  _row */\n      dup7\n        /* \"contracts/mirrorseaMain.sol\":5219:5229  arr = _row */\n      swap3\n      pop\n        /* \"contracts/mirrorseaMain.sol\":5185:5283  if (remAmt >= _row) {... */\n      jump(tag_204)\n    tag_203:\n        /* \"contracts/mirrorseaMain.sol\":5266:5272  remAmt */\n      dup1\n        /* \"contracts/mirrorseaMain.sol\":5260:5272  arr = remAmt */\n      swap3\n      pop\n        /* \"contracts/mirrorseaMain.sol\":5185:5283  if (remAmt >= _row) {... */\n    tag_204:\n        /* \"contracts/mirrorseaMain.sol\":5329:5341  _list.length */\n      dup2\n      mload\n        /* \"contracts/mirrorseaMain.sol\":5301:5326  _row.mul(_page).sub(_row) */\n      tag_205\n        /* \"contracts/mirrorseaMain.sol\":5321:5325  _row */\n      dup9\n        /* \"contracts/mirrorseaMain.sol\":5301:5316  _row.mul(_page) */\n      tag_200\n        /* \"contracts/mirrorseaMain.sol\":5321:5325  _row */\n      dup2\n        /* \"contracts/mirrorseaMain.sol\":5310:5315  _page */\n      dup11\n        /* \"contracts/mirrorseaMain.sol\":5301:5309  _row.mul */\n      tag_201\n        /* \"contracts/mirrorseaMain.sol\":5301:5316  _row.mul(_page) */\n      jump\t// in\n        /* \"contracts/mirrorseaMain.sol\":5301:5326  _row.mul(_page).sub(_row) */\n    tag_205:\n        /* \"contracts/mirrorseaMain.sol\":5301:5341  _row.mul(_page).sub(_row) < _list.length */\n      lt\n        /* \"contracts/mirrorseaMain.sol\":5293:5356  require(_row.mul(_page).sub(_row) < _list.length, \"length err\") */\n      tag_207\n      jumpi\n      mload(0x40)\n      shl(0xe5, 0x461bcd)\n      dup2\n      mstore\n      0x04\n      add\n      tag_208\n      swap1\n      tag_209\n      jump\t// in\n    tag_208:\n      mload(0x40)\n      dup1\n      swap2\n      sub\n      swap1\n      revert\n    tag_207:\n        /* \"contracts/mirrorseaMain.sol\":5374:5382  arr != 0 */\n      dup3\n        /* \"contracts/mirrorseaMain.sol\":5366:5398  require(arr != 0, \"arr no good\") */\n      tag_210\n      jumpi\n      mload(0x40)\n      shl(0xe5, 0x461bcd)\n      dup2\n      mstore\n      0x04\n      add\n      tag_208\n      swap1\n      tag_212\n      jump\t// in\n    tag_210:\n        /* \"contracts/mirrorseaMain.sol\":5409:5433  uint256[] memory newList */\n      0x00\n        /* \"contracts/mirrorseaMain.sol\":5450:5453  arr */\n      dup4\n        /* \"contracts/mirrorseaMain.sol\":5436:5454  new uint256[](arr) */\n      0xffffffffffffffff\n      dup2\n      gt\n      iszero\n      tag_213\n      jumpi\n      mstore(0x00, shl(0xe0, 0x4e487b71))\n      mstore(0x04, 0x41)\n      revert(0x00, 0x24)\n    tag_213:\n      mload(0x40)\n      swap1\n      dup1\n      dup3\n      mstore\n      dup1\n      0x20\n      mul\n      0x20\n      add\n      dup3\n      add\n      0x40\n      mstore\n      dup1\n      iszero\n      tag_214\n      jumpi\n      dup2\n      0x20\n      add\n      0x20\n      dup3\n      mul\n      dup1\n      calldatasize\n      dup4\n      calldatacopy\n      add\n      swap1\n      pop\n    tag_214:\n      pop\n        /* \"contracts/mirrorseaMain.sol\":5409:5454  uint256[] memory newList = new uint256[](arr) */\n      swap1\n      pop\n        /* \"contracts/mirrorseaMain.sol\":5470:5479  uint256 i */\n      0x00\n        /* \"contracts/mirrorseaMain.sol\":5482:5495  remAmt.sub(1) */\n      tag_218\n        /* \"contracts/mirrorseaMain.sol\":5482:5488  remAmt */\n      dup4\n        /* \"contracts/mirrorseaMain.sol\":5493:5494  1 */\n      0x01\n        /* \"contracts/mirrorseaMain.sol\":5482:5492  remAmt.sub */\n      tag_202\n        /* \"contracts/mirrorseaMain.sol\":5482:5495  remAmt.sub(1) */\n      jump\t// in\n    tag_218:\n        /* \"contracts/mirrorseaMain.sol\":5470:5495  uint256 i = remAmt.sub(1) */\n      swap1\n      pop\n        /* \"contracts/mirrorseaMain.sol\":5465:5649  for (uint256 i = remAmt.sub(1); index < arr; i--) {... */\n    tag_215:\n        /* \"contracts/mirrorseaMain.sol\":5505:5508  arr */\n      dup5\n        /* \"contracts/mirrorseaMain.sol\":5497:5502  index */\n      dup7\n        /* \"contracts/mirrorseaMain.sol\":5497:5508  index < arr */\n      lt\n        /* \"contracts/mirrorseaMain.sol\":5465:5649  for (uint256 i = remAmt.sub(1); index < arr; i--) {... */\n      iszero\n      tag_216\n      jumpi\n        /* \"contracts/mirrorseaMain.sol\":5546:5551  _list */\n      dup4\n        /* \"contracts/mirrorseaMain.sol\":5552:5553  i */\n      dup2\n        /* \"contracts/mirrorseaMain.sol\":5546:5554  _list[i] */\n      dup2\n      mload\n      dup2\n      lt\n      tag_219\n      jumpi\n      mstore(0x00, shl(0xe0, 0x4e487b71))\n      mstore(0x04, 0x32)\n      revert(0x00, 0x24)\n    tag_219:\n      0x20\n      mul\n      0x20\n      add\n      add\n      mload\n        /* \"contracts/mirrorseaMain.sol\":5529:5536  newList */\n      dup3\n        /* \"contracts/mirrorseaMain.sol\":5537:5542  index */\n      dup8\n        /* \"contracts/mirrorseaMain.sol\":5529:5543  newList[index] */\n      dup2\n      mload\n      dup2\n      lt\n      tag_220\n      jumpi\n      mstore(0x00, shl(0xe0, 0x4e487b71))\n      mstore(0x04, 0x32)\n      revert(0x00, 0x24)\n    tag_220:\n      0x20\n      swap1\n      dup2\n      mul\n      swap2\n      swap1\n      swap2\n      add\n      add\n        /* \"contracts/mirrorseaMain.sol\":5529:5554  newList[index] = _list[i] */\n      mstore\n        /* \"contracts/mirrorseaMain.sol\":5572:5578  i == 0 */\n      dup1\n        /* \"contracts/mirrorseaMain.sol\":5568:5618  if (i == 0) {... */\n      tag_221\n      jumpi\n        /* \"contracts/mirrorseaMain.sol\":5598:5603  break */\n      jump(tag_216)\n        /* \"contracts/mirrorseaMain.sol\":5568:5618  if (i == 0) {... */\n    tag_221:\n        /* \"contracts/mirrorseaMain.sol\":5631:5638  index++ */\n      dup6\n      tag_222\n      dup2\n      tag_223\n      jump\t// in\n    tag_222:\n      swap7\n      pop\n      pop\n        /* \"contracts/mirrorseaMain.sol\":5510:5513  i-- */\n      dup1\n      dup1\n      tag_224\n      swap1\n      tag_225\n      jump\t// in\n    tag_224:\n      swap2\n      pop\n      pop\n        /* \"contracts/mirrorseaMain.sol\":5465:5649  for (uint256 i = remAmt.sub(1); index < arr; i--) {... */\n      jump(tag_215)\n    tag_216:\n      pop\n        /* \"contracts/mirrorseaMain.sol\":5898:5905  newList */\n      swap10\n        /* \"contracts/mirrorseaMain.sol\":4639:5912  function pagination(... */\n      swap9\n      pop\n      pop\n      pop\n      pop\n      pop\n      pop\n      pop\n      pop\n      pop\n      jump\t// out\n        /* \"contracts/mirrorseaMain.sol\":1347:1379  uint256[] public openOrderIdList */\n    tag_53:\n      0x6c\n      dup2\n      dup2\n      sload\n      dup2\n      lt\n      tag_226\n      jumpi\n      0x00\n      dup1\n      revert\n    tag_226:\n      0x00\n      swap2\n      dup3\n      mstore\n      0x20\n      swap1\n      swap2\n      keccak256\n      add\n      sload\n      swap1\n      pop\n      dup2\n      jump\t// out\n        /* \"contracts/mirrorseaMain.sol\":3136:3313  function setExecutor(address _address, bool _type)... */\n    tag_59:\n        /* \"contracts/mirrorseaMain.sol\":3239:3243  bool */\n      0x00\n        /* \"@openzeppelin/contracts-upgradeable/access/OwnableUpgradeable.sol\":1525:1537  _msgSender() */\n      tag_229\n        /* \"@openzeppelin/contracts-upgradeable/access/OwnableUpgradeable.sol\":1525:1535  _msgSender */\n      tag_230\n        /* \"@openzeppelin/contracts-upgradeable/access/OwnableUpgradeable.sol\":1525:1537  _msgSender() */\n      jump\t// in\n    tag_229:\n      sub(shl(0xa0, 0x01), 0x01)\n        /* \"@openzeppelin/contracts-upgradeable/access/OwnableUpgradeable.sol\":1514:1537  owner() == _msgSender() */\n      and\n        /* \"@openzeppelin/contracts-upgradeable/access/OwnableUpgradeable.sol\":1514:1521  owner() */\n      tag_231\n        /* \"@openzeppelin/contracts-upgradeable/access/OwnableUpgradeable.sol\":1514:1519  owner */\n      tag_129\n        /* \"@openzeppelin/contracts-upgradeable/access/OwnableUpgradeable.sol\":1514:1521  owner() */\n      jump\t// in\n    tag_231:\n      sub(shl(0xa0, 0x01), 0x01)\n        /* \"@openzeppelin/contracts-upgradeable/access/OwnableUpgradeable.sol\":1514:1537  owner() == _msgSender() */\n      and\n      eq\n        /* \"@openzeppelin/contracts-upgradeable/access/OwnableUpgradeable.sol\":1506:1574  require(owner() == _msgSender(), \"Ownable: caller is not the owner\") */\n      tag_232\n      jumpi\n      mload(0x40)\n      shl(0xe5, 0x461bcd)\n      dup2\n      mstore\n      0x04\n      add\n      tag_208\n      swap1\n      tag_234\n      jump\t// in\n    tag_232:\n      pop\n      sub(shl(0xa0, 0x01), 0x01)\n        /* \"contracts/mirrorseaMain.sol\":3259:3277  executor[_address] */\n      dup3\n      and\n      0x00\n      swap1\n      dup2\n      mstore\n        /* \"contracts/mirrorseaMain.sol\":3259:3267  executor */\n      0x65\n        /* \"contracts/mirrorseaMain.sol\":3259:3277  executor[_address] */\n      0x20\n      mstore\n      0x40\n      swap1\n      keccak256\n        /* \"contracts/mirrorseaMain.sol\":3259:3285  executor[_address] = _type */\n      dup1\n      sload\n      dup3\n      iszero\n      iszero\n      not(0xff)\n      swap1\n      swap2\n      and\n      or\n      swap1\n      sstore\n      0x01\n        /* \"contracts/mirrorseaMain.sol\":3136:3313  function setExecutor(address _address, bool _type)... */\n      swap3\n      swap2\n      pop\n      pop\n      jump\t// out\n        /* \"contracts/mirrorseaMain.sol\":1196:1227  IhelperLogic public helperLogic */\n    tag_63:\n      and(sub(shl(0xa0, 0x01), 0x01), sload(0x68))\n      dup2\n      jump\t// out\n        /* \"contracts/mirrorseaMain.sol\":1135:1156  address public signer */\n    tag_67:\n      and(sub(shl(0xa0, 0x01), 0x01), sload(0x66))\n      dup2\n      jump\t// out\n        /* \"contracts/mirrorseaMain.sol\":14693:15972  function _isSolvent(... */\n    tag_73:\n        /* \"contracts/mirrorseaMain.sol\":14812:14816  bool */\n      0x00\n        /* \"contracts/mirrorseaMain.sol\":14854:14869  _orderInfo[_id] */\n      dup4\n      dup2\n      mstore\n        /* \"contracts/mirrorseaMain.sol\":14854:14864  _orderInfo */\n      0x6a\n        /* \"contracts/mirrorseaMain.sol\":14854:14869  _orderInfo[_id] */\n      0x20\n      mstore\n      0x40\n      dup2\n      keccak256\n        /* \"contracts/mirrorseaMain.sol\":14971:14980  order.amt */\n      0x09\n      dup2\n      add\n      sload\n        /* \"contracts/mirrorseaMain.sol\":15069:15078  PRECISION */\n      sload(0x73)\n        /* \"contracts/mirrorseaMain.sol\":15053:15063  feePercent */\n      sload(0x72)\n        /* \"contracts/mirrorseaMain.sol\":14812:14816  bool */\n      dup5\n      swap3\n      dup4\n      swap3\n      dup4\n      swap3\n        /* \"contracts/mirrorseaMain.sol\":15008:15016  _price18 */\n      dup10\n      swap2\n        /* \"contracts/mirrorseaMain.sol\":15032:15089  amt.mul(price18).mul(feePercent).div(PRECISION).div(1e18) */\n      tag_237\n      swap2\n        /* \"contracts/mirrorseaMain.sol\":15084:15088  1e18 */\n      0x0de0b6b3a7640000\n      swap2\n        /* \"contracts/mirrorseaMain.sol\":15032:15079  amt.mul(price18).mul(feePercent).div(PRECISION) */\n      tag_239\n      swap2\n      dup3\n      swap1\n        /* \"contracts/mirrorseaMain.sol\":15032:15048  amt.mul(price18) */\n      tag_240\n        /* \"contracts/mirrorseaMain.sol\":14971:14980  order.amt */\n      dup9\n        /* \"contracts/mirrorseaMain.sol\":15008:15016  _price18 */\n      dup9\n        /* \"contracts/mirrorseaMain.sol\":15032:15039  amt.mul */\n      tag_201\n        /* \"contracts/mirrorseaMain.sol\":15032:15048  amt.mul(price18) */\n      jump\t// in\n    tag_240:\n        /* \"contracts/mirrorseaMain.sol\":15032:15052  amt.mul(price18).mul */\n      swap1\n      tag_201\n        /* \"contracts/mirrorseaMain.sol\":15032:15064  amt.mul(price18).mul(feePercent) */\n      jump\t// in\n    tag_239:\n        /* \"contracts/mirrorseaMain.sol\":15032:15068  amt.mul(price18).mul(feePercent).div */\n      swap1\n      tag_241\n        /* \"contracts/mirrorseaMain.sol\":15032:15079  amt.mul(price18).mul(feePercent).div(PRECISION) */\n      jump\t// in\n        /* \"contracts/mirrorseaMain.sol\":15032:15089  amt.mul(price18).mul(feePercent).div(PRECISION).div(1e18) */\n    tag_237:\n        /* \"contracts/mirrorseaMain.sol\":15026:15089  fee = amt.mul(price18).mul(feePercent).div(PRECISION).div(1e18) */\n      swap3\n      pop\n        /* \"contracts/mirrorseaMain.sol\":15103:15108  order */\n      dup6\n        /* \"contracts/mirrorseaMain.sol\":15103:15118  order.direction */\n      0x04\n      add\n      sload\n        /* \"contracts/mirrorseaMain.sol\":15122:15123  1 */\n      0x01\n        /* \"contracts/mirrorseaMain.sol\":15103:15123  order.direction == 1 */\n      eq\n        /* \"contracts/mirrorseaMain.sol\":15099:15945  if (order.direction == 1) {... */\n      iszero\n      tag_242\n      jumpi\n        /* \"contracts/mirrorseaMain.sol\":15153:15158  order */\n      dup6\n        /* \"contracts/mirrorseaMain.sol\":15153:15170  order.openPrice18 */\n      0x05\n      add\n      sload\n        /* \"contracts/mirrorseaMain.sol\":15143:15150  price18 */\n      dup2\n        /* \"contracts/mirrorseaMain.sol\":15143:15170  price18 < order.openPrice18 */\n      lt\n        /* \"contracts/mirrorseaMain.sol\":15139:15522  if (price18 < order.openPrice18) {... */\n      iszero\n      tag_243\n      jumpi\n        /* \"contracts/mirrorseaMain.sol\":15204:15221  order.openPrice18 */\n      0x05\n      dup7\n      add\n      sload\n        /* \"contracts/mirrorseaMain.sol\":15204:15234  order.openPrice18.sub(price18) */\n      tag_244\n      swap1\n        /* \"contracts/mirrorseaMain.sol\":15226:15233  price18 */\n      dup3\n        /* \"contracts/mirrorseaMain.sol\":15204:15225  order.openPrice18.sub */\n      tag_202\n        /* \"contracts/mirrorseaMain.sol\":15204:15234  order.openPrice18.sub(price18) */\n      jump\t// in\n    tag_244:\n        /* \"contracts/mirrorseaMain.sol\":15190:15234  diffPrice18 = order.openPrice18.sub(price18) */\n      swap5\n      pop\n        /* \"contracts/mirrorseaMain.sol\":15265:15295  diffPrice18.mul(amt).div(1e18) */\n      tag_245\n        /* \"contracts/mirrorseaMain.sol\":15290:15294  1e18 */\n      0x0de0b6b3a7640000\n        /* \"contracts/mirrorseaMain.sol\":15265:15285  diffPrice18.mul(amt) */\n      tag_239\n        /* \"contracts/mirrorseaMain.sol\":15190:15234  diffPrice18 = order.openPrice18.sub(price18) */\n      dup8\n        /* \"contracts/mirrorseaMain.sol\":15281:15284  amt */\n      dup6\n        /* \"contracts/mirrorseaMain.sol\":15265:15280  diffPrice18.mul */\n      tag_201\n        /* \"contracts/mirrorseaMain.sol\":15265:15285  diffPrice18.mul(amt) */\n      jump\t// in\n        /* \"contracts/mirrorseaMain.sol\":15265:15295  diffPrice18.mul(amt).div(1e18) */\n    tag_245:\n        /* \"contracts/mirrorseaMain.sol\":15252:15295  diffMargin = diffPrice18.mul(amt).div(1e18) */\n      swap4\n      pop\n        /* \"contracts/mirrorseaMain.sol\":15327:15343  diffMargin + fee */\n      tag_247\n        /* \"contracts/mirrorseaMain.sol\":15340:15343  fee */\n      dup4\n        /* \"contracts/mirrorseaMain.sol\":15252:15295  diffMargin = diffPrice18.mul(amt).div(1e18) */\n      dup6\n        /* \"contracts/mirrorseaMain.sol\":15327:15343  diffMargin + fee */\n      tag_248\n      jump\t// in\n    tag_247:\n        /* \"contracts/mirrorseaMain.sol\":15317:15324  _margin */\n      dup9\n        /* \"contracts/mirrorseaMain.sol\":15317:15343  _margin < diffMargin + fee */\n      lt\n        /* \"contracts/mirrorseaMain.sol\":15313:15398  if (_margin < diffMargin + fee) {... */\n      iszero\n      tag_249\n      jumpi\n        /* \"contracts/mirrorseaMain.sol\":15374:15379  false */\n      0x00\n        /* \"contracts/mirrorseaMain.sol\":15367:15379  return false */\n      swap7\n      pop\n      pop\n      pop\n      pop\n      pop\n      pop\n      pop\n      jump(tag_236)\n        /* \"contracts/mirrorseaMain.sol\":15313:15398  if (_margin < diffMargin + fee) {... */\n    tag_249:\n        /* \"contracts/mirrorseaMain.sol\":15139:15522  if (price18 < order.openPrice18) {... */\n      jump(tag_251)\n    tag_243:\n        /* \"contracts/mirrorseaMain.sol\":15450:15453  fee */\n      dup3\n        /* \"contracts/mirrorseaMain.sol\":15440:15447  _margin */\n      dup9\n        /* \"contracts/mirrorseaMain.sol\":15440:15453  _margin < fee */\n      lt\n        /* \"contracts/mirrorseaMain.sol\":15436:15508  if (_margin < fee) {... */\n      iszero\n      tag_251\n      jumpi\n        /* \"contracts/mirrorseaMain.sol\":15484:15489  false */\n      0x00\n        /* \"contracts/mirrorseaMain.sol\":15477:15489  return false */\n      swap7\n      pop\n      pop\n      pop\n      pop\n      pop\n      pop\n      pop\n      jump(tag_236)\n        /* \"contracts/mirrorseaMain.sol\":15436:15508  if (_margin < fee) {... */\n    tag_251:\n        /* \"contracts/mirrorseaMain.sol\":15099:15945  if (order.direction == 1) {... */\n      jump(tag_260)\n    tag_242:\n        /* \"contracts/mirrorseaMain.sol\":15566:15571  order */\n      dup6\n        /* \"contracts/mirrorseaMain.sol\":15566:15583  order.openPrice18 */\n      0x05\n      add\n      sload\n        /* \"contracts/mirrorseaMain.sol\":15556:15563  price18 */\n      dup2\n        /* \"contracts/mirrorseaMain.sol\":15556:15583  price18 > order.openPrice18 */\n      gt\n        /* \"contracts/mirrorseaMain.sol\":15552:15935  if (price18 > order.openPrice18) {... */\n      iszero\n      tag_253\n      jumpi\n        /* \"contracts/mirrorseaMain.sol\":15629:15646  order.openPrice18 */\n      0x05\n      dup7\n      add\n      sload\n        /* \"contracts/mirrorseaMain.sol\":15617:15647  price18.sub(order.openPrice18) */\n      tag_254\n      swap1\n        /* \"contracts/mirrorseaMain.sol\":15617:15624  price18 */\n      dup3\n      swap1\n        /* \"contracts/mirrorseaMain.sol\":15617:15628  price18.sub */\n      tag_202\n        /* \"contracts/mirrorseaMain.sol\":15617:15647  price18.sub(order.openPrice18) */\n      jump\t// in\n    tag_254:\n        /* \"contracts/mirrorseaMain.sol\":15603:15647  diffPrice18 = price18.sub(order.openPrice18) */\n      swap5\n      pop\n        /* \"contracts/mirrorseaMain.sol\":15678:15708  diffPrice18.mul(amt).div(1e18) */\n      tag_255\n        /* \"contracts/mirrorseaMain.sol\":15703:15707  1e18 */\n      0x0de0b6b3a7640000\n        /* \"contracts/mirrorseaMain.sol\":15678:15698  diffPrice18.mul(amt) */\n      tag_239\n        /* \"contracts/mirrorseaMain.sol\":15603:15647  diffPrice18 = price18.sub(order.openPrice18) */\n      dup8\n        /* \"contracts/mirrorseaMain.sol\":15694:15697  amt */\n      dup6\n        /* \"contracts/mirrorseaMain.sol\":15678:15693  diffPrice18.mul */\n      tag_201\n        /* \"contracts/mirrorseaMain.sol\":15678:15698  diffPrice18.mul(amt) */\n      jump\t// in\n        /* \"contracts/mirrorseaMain.sol\":15678:15708  diffPrice18.mul(amt).div(1e18) */\n    tag_255:\n        /* \"contracts/mirrorseaMain.sol\":15665:15708  diffMargin = diffPrice18.mul(amt).div(1e18) */\n      swap4\n      pop\n        /* \"contracts/mirrorseaMain.sol\":15740:15756  diffMargin + fee */\n      tag_257\n        /* \"contracts/mirrorseaMain.sol\":15753:15756  fee */\n      dup4\n        /* \"contracts/mirrorseaMain.sol\":15665:15708  diffMargin = diffPrice18.mul(amt).div(1e18) */\n      dup6\n        /* \"contracts/mirrorseaMain.sol\":15740:15756  diffMargin + fee */\n      tag_248\n      jump\t// in\n    tag_257:\n        /* \"contracts/mirrorseaMain.sol\":15730:15737  _margin */\n      dup9\n        /* \"contracts/mirrorseaMain.sol\":15730:15756  _margin < diffMargin + fee */\n      lt\n        /* \"contracts/mirrorseaMain.sol\":15726:15811  if (_margin < diffMargin + fee) {... */\n      iszero\n      tag_251\n      jumpi\n        /* \"contracts/mirrorseaMain.sol\":15787:15792  false */\n      0x00\n        /* \"contracts/mirrorseaMain.sol\":15780:15792  return false */\n      swap7\n      pop\n      pop\n      pop\n      pop\n      pop\n      pop\n      pop\n      jump(tag_236)\n        /* \"contracts/mirrorseaMain.sol\":15552:15935  if (price18 > order.openPrice18) {... */\n    tag_253:\n        /* \"contracts/mirrorseaMain.sol\":15863:15866  fee */\n      dup3\n        /* \"contracts/mirrorseaMain.sol\":15853:15860  _margin */\n      dup9\n        /* \"contracts/mirrorseaMain.sol\":15853:15866  _margin < fee */\n      lt\n        /* \"contracts/mirrorseaMain.sol\":15849:15921  if (_margin < fee) {... */\n      iszero\n      tag_260\n      jumpi\n        /* \"contracts/mirrorseaMain.sol\":15897:15902  false */\n      0x00\n        /* \"contracts/mirrorseaMain.sol\":15890:15902  return false */\n      swap7\n      pop\n      pop\n      pop\n      pop\n      pop\n      pop\n      pop\n      jump(tag_236)\n        /* \"contracts/mirrorseaMain.sol\":15849:15921  if (_margin < fee) {... */\n    tag_260:\n        /* \"contracts/mirrorseaMain.sol\":15961:15965  true */\n      0x01\n        /* \"contracts/mirrorseaMain.sol\":15954:15965  return true */\n      swap7\n      pop\n      pop\n      pop\n      pop\n      pop\n      pop\n      pop\n        /* \"contracts/mirrorseaMain.sol\":14693:15972  function _isSolvent(... */\n    tag_236:\n      swap4\n      swap3\n      pop\n      pop\n      pop\n      jump\t// out\n        /* \"contracts/mirrorseaMain.sol\":1162:1190  IERC20Upgradeable public usc */\n    tag_76:\n      and(sub(shl(0xa0, 0x01), 0x01), sload(0x67))\n      dup2\n      jump\t// out\n        /* \"contracts/mirrorseaMain.sol\":2685:2794  function openOrderIdListLength() public view returns (uint256) {... */\n    tag_80:\n        /* \"contracts/mirrorseaMain.sol\":2765:2780  openOrderIdList */\n      0x6c\n        /* \"contracts/mirrorseaMain.sol\":2765:2787  openOrderIdList.length */\n      sload\n        /* \"contracts/mirrorseaMain.sol\":2685:2794  function openOrderIdListLength() public view returns (uint256) {... */\n      swap1\n      jump\t// out\n        /* \"contracts/mirrorseaMain.sol\":1385:1441  mapping(uint256 => uint256) public openOrderIdList_index */\n    tag_84:\n      mstore(0x20, 0x6d)\n      0x00\n      swap1\n      dup2\n      mstore\n      0x40\n      swap1\n      keccak256\n      sload\n      dup2\n      jump\t// out\n        /* \"contracts/mirrorseaMain.sol\":1089:1129  mapping(address => bool) public executor */\n    tag_89:\n      mstore(0x20, 0x65)\n      0x00\n      swap1\n      dup2\n      mstore\n      0x40\n      swap1\n      keccak256\n      sload\n      0xff\n      and\n      dup2\n      jump\t// out\n        /* \"contracts/mirrorseaMain.sol\":13239:14128  function liquidation(... */\n    tag_94:\n        /* \"contracts/mirrorseaMain.sol\":3370:3380  msg.sender */\n      caller\n        /* \"contracts/mirrorseaMain.sol\":13495:13499  bool */\n      0x00\n        /* \"contracts/mirrorseaMain.sol\":3361:3381  executor[msg.sender] */\n      swap1\n      dup2\n      mstore\n        /* \"contracts/mirrorseaMain.sol\":3361:3369  executor */\n      0x65\n        /* \"contracts/mirrorseaMain.sol\":3361:3381  executor[msg.sender] */\n      0x20\n      mstore\n      0x40\n      dup2\n      keccak256\n      sload\n      0xff\n      and\n        /* \"contracts/mirrorseaMain.sol\":3353:3422  require(executor[msg.sender], \"executor: caller is not the executor\") */\n      tag_263\n      jumpi\n      mload(0x40)\n      shl(0xe5, 0x461bcd)\n      dup2\n      mstore\n      0x04\n      add\n      tag_208\n      swap1\n      tag_265\n      jump\t// in\n    tag_263:\n        /* \"contracts/mirrorseaMain.sol\":13511:13525  uint256 number */\n      0x00\n        /* \"contracts/mirrorseaMain.sol\":13544:13553  uint256 i */\n      dup1\n        /* \"contracts/mirrorseaMain.sol\":13539:14053  for (uint256 i = 0; i < _id.length; i++) {... */\n    tag_267:\n        /* \"contracts/mirrorseaMain.sol\":13563:13566  _id */\n      dup8\n        /* \"contracts/mirrorseaMain.sol\":13563:13573  _id.length */\n      mload\n        /* \"contracts/mirrorseaMain.sol\":13559:13560  i */\n      dup2\n        /* \"contracts/mirrorseaMain.sol\":13559:13573  i < _id.length */\n      lt\n        /* \"contracts/mirrorseaMain.sol\":13539:14053  for (uint256 i = 0; i < _id.length; i++) {... */\n      iszero\n      tag_268\n      jumpi\n        /* \"contracts/mirrorseaMain.sol\":13594:13617  OrderInfo storage order */\n      0x00\n        /* \"contracts/mirrorseaMain.sol\":13620:13630  _orderInfo */\n      0x6a\n        /* \"contracts/mirrorseaMain.sol\":13620:13638  _orderInfo[_id[i]] */\n      0x00\n        /* \"contracts/mirrorseaMain.sol\":13631:13634  _id */\n      dup11\n        /* \"contracts/mirrorseaMain.sol\":13635:13636  i */\n      dup5\n        /* \"contracts/mirrorseaMain.sol\":13631:13637  _id[i] */\n      dup2\n      mload\n      dup2\n      lt\n      tag_270\n      jumpi\n      mstore(0x00, shl(0xe0, 0x4e487b71))\n      mstore(0x04, 0x32)\n      revert(0x00, 0x24)\n    tag_270:\n      0x20\n      mul\n      0x20\n      add\n      add\n      mload\n        /* \"contracts/mirrorseaMain.sol\":13620:13638  _orderInfo[_id[i]] */\n      dup2\n      mstore\n      0x20\n      add\n      swap1\n      dup2\n      mstore\n      0x20\n      add\n      0x00\n      keccak256\n        /* \"contracts/mirrorseaMain.sol\":13594:13638  OrderInfo storage order = _orderInfo[_id[i]] */\n      swap1\n      pop\n        /* \"contracts/mirrorseaMain.sol\":13657:13702  _isSolvent(_id[i], _price18[i], order.margin) */\n      tag_271\n        /* \"contracts/mirrorseaMain.sol\":13668:13671  _id */\n      dup10\n        /* \"contracts/mirrorseaMain.sol\":13672:13673  i */\n      dup4\n        /* \"contracts/mirrorseaMain.sol\":13668:13674  _id[i] */\n      dup2\n      mload\n      dup2\n      lt\n      tag_272\n      jumpi\n      mstore(0x00, shl(0xe0, 0x4e487b71))\n      mstore(0x04, 0x32)\n      revert(0x00, 0x24)\n    tag_272:\n      0x20\n      mul\n      0x20\n      add\n      add\n      mload\n        /* \"contracts/mirrorseaMain.sol\":13676:13684  _price18 */\n      dup8\n        /* \"contracts/mirrorseaMain.sol\":13685:13686  i */\n      dup5\n        /* \"contracts/mirrorseaMain.sol\":13676:13687  _price18[i] */\n      dup2\n      mload\n      dup2\n      lt\n      tag_273\n      jumpi\n      mstore(0x00, shl(0xe0, 0x4e487b71))\n      mstore(0x04, 0x32)\n      revert(0x00, 0x24)\n    tag_273:\n      0x20\n      mul\n      0x20\n      add\n      add\n      mload\n        /* \"contracts/mirrorseaMain.sol\":13689:13694  order */\n      dup4\n        /* \"contracts/mirrorseaMain.sol\":13689:13701  order.margin */\n      0x0a\n      add\n      sload\n        /* \"contracts/mirrorseaMain.sol\":13657:13667  _isSolvent */\n      tag_73\n        /* \"contracts/mirrorseaMain.sol\":13657:13702  _isSolvent(_id[i], _price18[i], order.margin) */\n      jump\t// in\n    tag_271:\n        /* \"contracts/mirrorseaMain.sol\":13652:14043  if (!_isSolvent(_id[i], _price18[i], order.margin)) {... */\n      tag_274\n      jumpi\n        /* \"contracts/mirrorseaMain.sol\":13722:13730  number++ */\n      dup3\n      tag_275\n      dup2\n      tag_223\n      jump\t// in\n    tag_275:\n      swap4\n      pop\n      pop\n        /* \"contracts/mirrorseaMain.sol\":13748:14028  _closePosition(... */\n      tag_276\n        /* \"contracts/mirrorseaMain.sol\":13784:13796  _marketState */\n      dup11\n        /* \"contracts/mirrorseaMain.sol\":13818:13823  order */\n      dup3\n        /* \"contracts/mirrorseaMain.sol\":13845:13846  3 */\n      0x03\n        /* \"contracts/mirrorseaMain.sol\":13868:13871  _id */\n      dup13\n        /* \"contracts/mirrorseaMain.sol\":13872:13873  i */\n      dup7\n        /* \"contracts/mirrorseaMain.sol\":13868:13874  _id[i] */\n      dup2\n      mload\n      dup2\n      lt\n      tag_277\n      jumpi\n      mstore(0x00, shl(0xe0, 0x4e487b71))\n      mstore(0x04, 0x32)\n      revert(0x00, 0x24)\n    tag_277:\n      0x20\n      mul\n      0x20\n      add\n      add\n      mload\n        /* \"contracts/mirrorseaMain.sol\":13896:13906  _timestamp */\n      dup13\n        /* \"contracts/mirrorseaMain.sol\":13907:13908  i */\n      dup8\n        /* \"contracts/mirrorseaMain.sol\":13896:13909  _timestamp[i] */\n      dup2\n      mload\n      dup2\n      lt\n      tag_278\n      jumpi\n      mstore(0x00, shl(0xe0, 0x4e487b71))\n      mstore(0x04, 0x32)\n      revert(0x00, 0x24)\n    tag_278:\n      0x20\n      mul\n      0x20\n      add\n      add\n      mload\n        /* \"contracts/mirrorseaMain.sol\":13931:13939  _symbols */\n      dup13\n        /* \"contracts/mirrorseaMain.sol\":13940:13941  i */\n      dup9\n        /* \"contracts/mirrorseaMain.sol\":13931:13942  _symbols[i] */\n      dup2\n      mload\n      dup2\n      lt\n      tag_279\n      jumpi\n      mstore(0x00, shl(0xe0, 0x4e487b71))\n      mstore(0x04, 0x32)\n      revert(0x00, 0x24)\n    tag_279:\n      0x20\n      mul\n      0x20\n      add\n      add\n      mload\n        /* \"contracts/mirrorseaMain.sol\":13964:13972  _price18 */\n      dup13\n        /* \"contracts/mirrorseaMain.sol\":13973:13974  i */\n      dup10\n        /* \"contracts/mirrorseaMain.sol\":13964:13975  _price18[i] */\n      dup2\n      mload\n      dup2\n      lt\n      tag_280\n      jumpi\n      mstore(0x00, shl(0xe0, 0x4e487b71))\n      mstore(0x04, 0x32)\n      revert(0x00, 0x24)\n    tag_280:\n      0x20\n      mul\n      0x20\n      add\n      add\n      mload\n        /* \"contracts/mirrorseaMain.sol\":13997:14007  _signature */\n      dup13\n        /* \"contracts/mirrorseaMain.sol\":14008:14009  i */\n      dup11\n        /* \"contracts/mirrorseaMain.sol\":13997:14010  _signature[i] */\n      dup2\n      mload\n      dup2\n      lt\n      tag_281\n      jumpi\n      mstore(0x00, shl(0xe0, 0x4e487b71))\n      mstore(0x04, 0x32)\n      revert(0x00, 0x24)\n    tag_281:\n      0x20\n      mul\n      0x20\n      add\n      add\n      mload\n        /* \"contracts/mirrorseaMain.sol\":13748:13762  _closePosition */\n      tag_282\n        /* \"contracts/mirrorseaMain.sol\":13748:14028  _closePosition(... */\n      jump\t// in\n    tag_276:\n      pop\n        /* \"contracts/mirrorseaMain.sol\":13652:14043  if (!_isSolvent(_id[i], _price18[i], order.margin)) {... */\n    tag_274:\n      pop\n        /* \"contracts/mirrorseaMain.sol\":13575:13578  i++ */\n      dup1\n      tag_283\n      dup2\n      tag_223\n      jump\t// in\n    tag_283:\n      swap2\n      pop\n      pop\n        /* \"contracts/mirrorseaMain.sol\":13539:14053  for (uint256 i = 0; i < _id.length; i++) {... */\n      jump(tag_267)\n    tag_268:\n      pop\n        /* \"contracts/mirrorseaMain.sol\":14070:14081  number != 0 */\n      dup1\n        /* \"contracts/mirrorseaMain.sol\":14062:14100  require(number != 0, \"No liquidation\") */\n      tag_284\n      jumpi\n      mload(0x40)\n      shl(0xe5, 0x461bcd)\n      dup2\n      mstore\n      0x04\n      add\n      tag_208\n      swap1\n      tag_286\n      jump\t// in\n    tag_284:\n      pop\n        /* \"contracts/mirrorseaMain.sol\":14117:14121  true */\n      0x01\n      swap8\n        /* \"contracts/mirrorseaMain.sol\":13239:14128  function liquidation(... */\n      swap7\n      pop\n      pop\n      pop\n      pop\n      pop\n      pop\n      pop\n      jump\t// out\n        /* \"contracts/mirrorseaMain.sol\":3740:3852  function orderInfo(uint256 _id) external view returns (OrderInfo memory) {... */\n    tag_98:\n        /* \"contracts/mirrorseaMain.sol\":3795:3811  OrderInfo memory */\n      tag_287\n      tag_288\n      jump\t// in\n    tag_287:\n        /* \"contracts/mirrorseaMain.sol\":3830:3845  _orderInfo[_id] */\n      0x00\n      dup3\n      dup2\n      mstore\n        /* \"contracts/mirrorseaMain.sol\":3830:3840  _orderInfo */\n      0x6a\n        /* \"contracts/mirrorseaMain.sol\":3830:3845  _orderInfo[_id] */\n      0x20\n      swap1\n      dup2\n      mstore\n      0x40\n      swap2\n      dup3\n      swap1\n      keccak256\n        /* \"contracts/mirrorseaMain.sol\":3823:3845  return _orderInfo[_id] */\n      dup3\n      mload\n      0x0160\n      dup2\n      add\n      dup5\n      mstore\n      dup2\n      sload\n      sub(shl(0xa0, 0x01), 0x01)\n      and\n      dup2\n      mstore\n      0x01\n      dup3\n      add\n      sload\n      swap3\n      dup2\n      add\n      swap3\n      swap1\n      swap3\n      mstore\n      0x02\n      dup2\n      add\n      dup1\n      sload\n      swap3\n      swap4\n        /* \"contracts/mirrorseaMain.sol\":3830:3845  _orderInfo[_id] */\n      swap2\n      swap3\n        /* \"contracts/mirrorseaMain.sol\":3823:3845  return _orderInfo[_id] */\n      swap2\n      dup5\n      add\n      swap2\n      tag_290\n      swap1\n      tag_291\n      jump\t// in\n    tag_290:\n      dup1\n      0x1f\n      add\n      0x20\n      dup1\n      swap2\n      div\n      mul\n      0x20\n      add\n      mload(0x40)\n      swap1\n      dup2\n      add\n      0x40\n      mstore\n      dup1\n      swap3\n      swap2\n      swap1\n      dup2\n      dup2\n      mstore\n      0x20\n      add\n      dup3\n      dup1\n      sload\n      tag_292\n      swap1\n      tag_291\n      jump\t// in\n    tag_292:\n      dup1\n      iszero\n      tag_293\n      jumpi\n      dup1\n      0x1f\n      lt\n      tag_294\n      jumpi\n      0x0100\n      dup1\n      dup4\n      sload\n      div\n      mul\n      dup4\n      mstore\n      swap2\n      0x20\n      add\n      swap2\n      jump(tag_293)\n    tag_294:\n      dup3\n      add\n      swap2\n      swap1\n      0x00\n      mstore\n      keccak256(0x00, 0x20)\n      swap1\n    tag_295:\n      dup2\n      sload\n      dup2\n      mstore\n      swap1\n      0x01\n      add\n      swap1\n      0x20\n      add\n      dup1\n      dup4\n      gt\n      tag_295\n      jumpi\n      dup3\n      swap1\n      sub\n      0x1f\n      and\n      dup3\n      add\n      swap2\n    tag_293:\n      pop\n      pop\n      pop\n      pop\n      pop\n      dup2\n      mstore\n      0x20\n      add\n      0x03\n      dup3\n      add\n      sload\n      dup2\n      mstore\n      0x20\n      add\n      0x04\n      dup3\n      add\n      sload\n      dup2\n      mstore\n      0x20\n      add\n      0x05\n      dup3\n      add\n      sload\n      dup2\n      mstore\n      0x20\n      add\n      0x06\n      dup3\n      add\n      sload\n      dup2\n      mstore\n      0x20\n      add\n      0x07\n      dup3\n      add\n      sload\n      dup2\n      mstore\n      0x20\n      add\n      0x08\n      dup3\n      add\n      sload\n      dup2\n      mstore\n      0x20\n      add\n      0x09\n      dup3\n      add\n      sload\n      dup2\n      mstore\n      0x20\n      add\n      0x0a\n      dup3\n      add\n      sload\n      dup2\n      mstore\n      pop\n      pop\n      swap1\n      pop\n        /* \"contracts/mirrorseaMain.sol\":3740:3852  function orderInfo(uint256 _id) external view returns (OrderInfo memory) {... */\n    tag_289:\n      swap2\n      swap1\n      pop\n      jump\t// out\n        /* \"contracts/mirrorseaMain.sol\":3608:3734  function setSigner(address _address) external onlyOwner returns (bool) {... */\n    tag_103:\n        /* \"contracts/mirrorseaMain.sol\":3673:3677  bool */\n      0x00\n        /* \"@openzeppelin/contracts-upgradeable/access/OwnableUpgradeable.sol\":1525:1537  _msgSender() */\n      tag_297\n        /* \"@openzeppelin/contracts-upgradeable/access/OwnableUpgradeable.sol\":1525:1535  _msgSender */\n      tag_230\n        /* \"@openzeppelin/contracts-upgradeable/access/OwnableUpgradeable.sol\":1525:1537  _msgSender() */\n      jump\t// in\n    tag_297:\n      sub(shl(0xa0, 0x01), 0x01)\n        /* \"@openzeppelin/contracts-upgradeable/access/OwnableUpgradeable.sol\":1514:1537  owner() == _msgSender() */\n      and\n        /* \"@openzeppelin/contracts-upgradeable/access/OwnableUpgradeable.sol\":1514:1521  owner() */\n      tag_298\n        /* \"@openzeppelin/contracts-upgradeable/access/OwnableUpgradeable.sol\":1514:1519  owner */\n      tag_129\n        /* \"@openzeppelin/contracts-upgradeable/access/OwnableUpgradeable.sol\":1514:1521  owner() */\n      jump\t// in\n    tag_298:\n      sub(shl(0xa0, 0x01), 0x01)\n        /* \"@openzeppelin/contracts-upgradeable/access/OwnableUpgradeable.sol\":1514:1537  owner() == _msgSender() */\n      and\n      eq\n        /* \"@openzeppelin/contracts-upgradeable/access/OwnableUpgradeable.sol\":1506:1574  require(owner() == _msgSender(), \"Ownable: caller is not the owner\") */\n      tag_299\n      jumpi\n      mload(0x40)\n      shl(0xe5, 0x461bcd)\n      dup2\n      mstore\n      0x04\n      add\n      tag_208\n      swap1\n      tag_234\n      jump\t// in\n    tag_299:\n      pop\n        /* \"contracts/mirrorseaMain.sol\":3689:3695  signer */\n      0x66\n        /* \"contracts/mirrorseaMain.sol\":3689:3706  signer = _address */\n      dup1\n      sload\n      sub(shl(0xa0, 0x01), 0x01)\n      dup4\n      and\n      not(sub(shl(0xa0, 0x01), 0x01))\n      swap1\n      swap2\n      and\n      or\n      swap1\n      sstore\n      0x01\n        /* \"contracts/mirrorseaMain.sol\":3608:3734  function setSigner(address _address) external onlyOwner returns (bool) {... */\n      swap2\n      swap1\n      pop\n      jump\t// out\n        /* \"contracts/mirrorseaMain.sol\":12255:12847  function closePosition(... */\n    tag_108:\n        /* \"contracts/mirrorseaMain.sol\":12469:12473  bool */\n      0x00\n        /* \"contracts/mirrorseaMain.sol\":12511:12526  _orderInfo[_id] */\n      dup6\n      dup2\n      mstore\n        /* \"contracts/mirrorseaMain.sol\":12511:12521  _orderInfo */\n      0x6a\n        /* \"contracts/mirrorseaMain.sol\":12511:12526  _orderInfo[_id] */\n      0x20\n      mstore\n      0x40\n      dup2\n      keccak256\n        /* \"contracts/mirrorseaMain.sol\":12544:12554  order.user */\n      dup1\n      sload\n      sub(shl(0xa0, 0x01), 0x01)\n      and\n        /* \"contracts/mirrorseaMain.sol\":12558:12568  msg.sender */\n      caller\n        /* \"contracts/mirrorseaMain.sol\":12544:12568  order.user == msg.sender */\n      eq\n        /* \"contracts/mirrorseaMain.sol\":12536:12581  require(order.user == msg.sender, \"user err\") */\n      tag_303\n      jumpi\n      mload(0x40)\n      shl(0xe5, 0x461bcd)\n      dup2\n      mstore\n      0x04\n      add\n      tag_208\n      swap1\n      tag_305\n      jump\t// in\n    tag_303:\n        /* \"contracts/mirrorseaMain.sol\":12611:12840  _closePosition(... */\n      tag_306\n        /* \"contracts/mirrorseaMain.sol\":12643:12655  _marketState */\n      dup9\n        /* \"contracts/mirrorseaMain.sol\":12673:12678  order */\n      dup3\n        /* \"contracts/mirrorseaMain.sol\":12696:12697  2 */\n      0x02\n        /* \"contracts/mirrorseaMain.sol\":12715:12718  _id */\n      dup11\n        /* \"contracts/mirrorseaMain.sol\":12736:12746  _timestamp */\n      dup11\n        /* \"contracts/mirrorseaMain.sol\":12764:12772  _symbols */\n      dup11\n        /* \"contracts/mirrorseaMain.sol\":12790:12798  _price18 */\n      dup11\n        /* \"contracts/mirrorseaMain.sol\":12816:12826  _signature */\n      dup11\n        /* \"contracts/mirrorseaMain.sol\":12611:12625  _closePosition */\n      tag_282\n        /* \"contracts/mirrorseaMain.sol\":12611:12840  _closePosition(... */\n      jump\t// in\n    tag_306:\n        /* \"contracts/mirrorseaMain.sol\":12592:12840  return... */\n      swap9\n        /* \"contracts/mirrorseaMain.sol\":12255:12847  function closePosition(... */\n      swap8\n      pop\n      pop\n      pop\n      pop\n      pop\n      pop\n      pop\n      pop\n      jump\t// out\n        /* \"@openzeppelin/contracts-upgradeable/access/OwnableUpgradeable.sol\":1934:2035  function renounceOwnership() public virtual onlyOwner {... */\n    tag_111:\n        /* \"@openzeppelin/contracts-upgradeable/access/OwnableUpgradeable.sol\":1525:1537  _msgSender() */\n      tag_308\n        /* \"@openzeppelin/contracts-upgradeable/access/OwnableUpgradeable.sol\":1525:1535  _msgSender */\n      tag_230\n        /* \"@openzeppelin/contracts-upgradeable/access/OwnableUpgradeable.sol\":1525:1537  _msgSender() */\n      jump\t// in\n    tag_308:\n      sub(shl(0xa0, 0x01), 0x01)\n        /* \"@openzeppelin/contracts-upgradeable/access/OwnableUpgradeable.sol\":1514:1537  owner() == _msgSender() */\n      and\n        /* \"@openzeppelin/contracts-upgradeable/access/OwnableUpgradeable.sol\":1514:1521  owner() */\n      tag_309\n        /* \"@openzeppelin/contracts-upgradeable/access/OwnableUpgradeable.sol\":1514:1519  owner */\n      tag_129\n        /* \"@openzeppelin/contracts-upgradeable/access/OwnableUpgradeable.sol\":1514:1521  owner() */\n      jump\t// in\n    tag_309:\n      sub(shl(0xa0, 0x01), 0x01)\n        /* \"@openzeppelin/contracts-upgradeable/access/OwnableUpgradeable.sol\":1514:1537  owner() == _msgSender() */\n      and\n      eq\n        /* \"@openzeppelin/contracts-upgradeable/access/OwnableUpgradeable.sol\":1506:1574  require(owner() == _msgSender(), \"Ownable: caller is not the owner\") */\n      tag_310\n      jumpi\n      mload(0x40)\n      shl(0xe5, 0x461bcd)\n      dup2\n      mstore\n      0x04\n      add\n      tag_208\n      swap1\n      tag_234\n      jump\t// in\n    tag_310:\n        /* \"@openzeppelin/contracts-upgradeable/access/OwnableUpgradeable.sol\":1998:2028  _transferOwnership(address(0)) */\n      tag_313\n        /* \"@openzeppelin/contracts-upgradeable/access/OwnableUpgradeable.sol\":2025:2026  0 */\n      0x00\n        /* \"@openzeppelin/contracts-upgradeable/access/OwnableUpgradeable.sol\":1998:2016  _transferOwnership */\n      tag_314\n        /* \"@openzeppelin/contracts-upgradeable/access/OwnableUpgradeable.sol\":1998:2028  _transferOwnership(address(0)) */\n      jump\t// in\n    tag_313:\n        /* \"@openzeppelin/contracts-upgradeable/access/OwnableUpgradeable.sol\":1934:2035  function renounceOwnership() public virtual onlyOwner {... */\n      jump\t// out\n        /* \"contracts/mirrorseaMain.sol\":1508:1594  mapping(address => mapping(uint256 => uint256))... */\n    tag_115:\n      0x6f\n      0x20\n      swap1\n      dup2\n      mstore\n      0x00\n      swap3\n      dup4\n      mstore\n      0x40\n      dup1\n      dup5\n      keccak256\n      swap1\n      swap2\n      mstore\n      swap1\n      dup3\n      mstore\n      swap1\n      keccak256\n      sload\n      dup2\n      jump\t// out\n        /* \"contracts/mirrorseaMain.sol\":3463:3589  function setFeePercent(uint256 _val) external onlyOwner returns (bool) {... */\n    tag_119:\n        /* \"contracts/mirrorseaMain.sol\":3528:3532  bool */\n      0x00\n        /* \"@openzeppelin/contracts-upgradeable/access/OwnableUpgradeable.sol\":1525:1537  _msgSender() */\n      tag_316\n        /* \"@openzeppelin/contracts-upgradeable/access/OwnableUpgradeable.sol\":1525:1535  _msgSender */\n      tag_230\n        /* \"@openzeppelin/contracts-upgradeable/access/OwnableUpgradeable.sol\":1525:1537  _msgSender() */\n      jump\t// in\n    tag_316:\n      sub(shl(0xa0, 0x01), 0x01)\n        /* \"@openzeppelin/contracts-upgradeable/access/OwnableUpgradeable.sol\":1514:1537  owner() == _msgSender() */\n      and\n        /* \"@openzeppelin/contracts-upgradeable/access/OwnableUpgradeable.sol\":1514:1521  owner() */\n      tag_317\n        /* \"@openzeppelin/contracts-upgradeable/access/OwnableUpgradeable.sol\":1514:1519  owner */\n      tag_129\n        /* \"@openzeppelin/contracts-upgradeable/access/OwnableUpgradeable.sol\":1514:1521  owner() */\n      jump\t// in\n    tag_317:\n      sub(shl(0xa0, 0x01), 0x01)\n        /* \"@openzeppelin/contracts-upgradeable/access/OwnableUpgradeable.sol\":1514:1537  owner() == _msgSender() */\n      and\n      eq\n        /* \"@openzeppelin/contracts-upgradeable/access/OwnableUpgradeable.sol\":1506:1574  require(owner() == _msgSender(), \"Ownable: caller is not the owner\") */\n      tag_318\n      jumpi\n      mload(0x40)\n      shl(0xe5, 0x461bcd)\n      dup2\n      mstore\n      0x04\n      add\n      tag_208\n      swap1\n      tag_234\n      jump\t// in\n    tag_318:\n      pop\n        /* \"contracts/mirrorseaMain.sol\":3544:3554  feePercent */\n      0x72\n        /* \"contracts/mirrorseaMain.sol\":3544:3561  feePercent = _val */\n      sstore\n        /* \"contracts/mirrorseaMain.sol\":3578:3582  true */\n      0x01\n      swap1\n        /* \"contracts/mirrorseaMain.sol\":3463:3589  function setFeePercent(uint256 _val) external onlyOwner returns (bool) {... */\n      jump\t// out\n        /* \"contracts/mirrorseaMain.sol\":1233:1254  IOracle public oracle */\n    tag_122:\n      and(sub(shl(0xa0, 0x01), 0x01), sload(0x69))\n      dup2\n      jump\t// out\n        /* \"contracts/mirrorseaMain.sol\":1756:1781  uint256 public feePercent */\n    tag_126:\n      sload(0x72)\n      dup2\n      jump\t// out\n        /* \"@openzeppelin/contracts-upgradeable/access/OwnableUpgradeable.sol\":1302:1387  function owner() public view virtual returns (address) {... */\n    tag_129:\n        /* \"@openzeppelin/contracts-upgradeable/access/OwnableUpgradeable.sol\":1374:1380  _owner */\n      and(sub(shl(0xa0, 0x01), 0x01), sload(0x33))\n        /* \"@openzeppelin/contracts-upgradeable/access/OwnableUpgradeable.sol\":1302:1387  function owner() public view virtual returns (address) {... */\n      swap1\n      jump\t// out\n        /* \"contracts/mirrorseaMain.sol\":14134:14687  function forcedLiquidation(... */\n    tag_133:\n        /* \"contracts/mirrorseaMain.sol\":3370:3380  msg.sender */\n      caller\n        /* \"contracts/mirrorseaMain.sol\":14365:14369  bool */\n      0x00\n        /* \"contracts/mirrorseaMain.sol\":3361:3381  executor[msg.sender] */\n      swap1\n      dup2\n      mstore\n        /* \"contracts/mirrorseaMain.sol\":3361:3369  executor */\n      0x65\n        /* \"contracts/mirrorseaMain.sol\":3361:3381  executor[msg.sender] */\n      0x20\n      mstore\n      0x40\n      dup2\n      keccak256\n      sload\n      0xff\n      and\n        /* \"contracts/mirrorseaMain.sol\":3353:3422  require(executor[msg.sender], \"executor: caller is not the executor\") */\n      tag_323\n      jumpi\n      mload(0x40)\n      shl(0xe5, 0x461bcd)\n      dup2\n      mstore\n      0x04\n      add\n      tag_208\n      swap1\n      tag_265\n      jump\t// in\n    tag_323:\n        /* \"contracts/mirrorseaMain.sol\":14381:14404  OrderInfo storage order */\n      0x00\n        /* \"contracts/mirrorseaMain.sol\":14407:14422  _orderInfo[_id] */\n      dup7\n      dup2\n      mstore\n        /* \"contracts/mirrorseaMain.sol\":14407:14417  _orderInfo */\n      0x6a\n        /* \"contracts/mirrorseaMain.sol\":14407:14422  _orderInfo[_id] */\n      0x20\n      mstore\n      0x40\n      swap1\n      keccak256\n        /* \"contracts/mirrorseaMain.sol\":14451:14680  _closePosition(... */\n      tag_306\n        /* \"contracts/mirrorseaMain.sol\":14483:14495  _marketState */\n      dup9\n        /* \"contracts/mirrorseaMain.sol\":14407:14422  _orderInfo[_id] */\n      dup3\n        /* \"contracts/mirrorseaMain.sol\":14536:14537  4 */\n      0x04\n        /* \"contracts/mirrorseaMain.sol\":14418:14421  _id */\n      dup11\n        /* \"contracts/mirrorseaMain.sol\":14576:14586  _timestamp */\n      dup11\n        /* \"contracts/mirrorseaMain.sol\":14604:14612  _symbols */\n      dup11\n        /* \"contracts/mirrorseaMain.sol\":14630:14638  _price18 */\n      dup11\n        /* \"contracts/mirrorseaMain.sol\":14656:14666  _signature */\n      dup11\n        /* \"contracts/mirrorseaMain.sol\":14451:14465  _closePosition */\n      tag_282\n        /* \"contracts/mirrorseaMain.sol\":14451:14680  _closePosition(... */\n      jump\t// in\n        /* \"contracts/mirrorseaMain.sol\":15978:17481  function adjustPosition(... */\n    tag_138:\n        /* \"contracts/mirrorseaMain.sol\":16224:16228  bool */\n      0x00\n        /* \"contracts/mirrorseaMain.sol\":16266:16281  _orderInfo[_id] */\n      dup7\n      dup2\n      mstore\n        /* \"contracts/mirrorseaMain.sol\":16266:16276  _orderInfo */\n      0x6a\n        /* \"contracts/mirrorseaMain.sol\":16266:16281  _orderInfo[_id] */\n      0x20\n      mstore\n      0x40\n      dup2\n      keccak256\n        /* \"contracts/mirrorseaMain.sol\":16299:16309  order.user */\n      dup1\n      sload\n      sub(shl(0xa0, 0x01), 0x01)\n      and\n        /* \"contracts/mirrorseaMain.sol\":16291:16348  require(order.user != address(0), \"order does not exist\") */\n      tag_328\n      jumpi\n      mload(0x40)\n      shl(0xe5, 0x461bcd)\n      dup2\n      mstore\n      0x04\n      add\n      tag_208\n      swap1\n      tag_330\n      jump\t// in\n    tag_328:\n        /* \"contracts/mirrorseaMain.sol\":16380:16381  2 */\n      0x02\n        /* \"contracts/mirrorseaMain.sol\":16366:16371  order */\n      dup2\n        /* \"contracts/mirrorseaMain.sol\":16366:16377  order.state */\n      0x03\n      add\n      sload\n        /* \"contracts/mirrorseaMain.sol\":16366:16381  order.state < 2 */\n      lt\n        /* \"contracts/mirrorseaMain.sol\":16358:16395  require(order.state < 2, \"state err\") */\n      tag_331\n      jumpi\n      mload(0x40)\n      shl(0xe5, 0x461bcd)\n      dup2\n      mstore\n      0x04\n      add\n      tag_208\n      swap1\n      tag_333\n      jump\t// in\n    tag_331:\n        /* \"contracts/mirrorseaMain.sol\":16426:16432  oracle */\n      sload(0x69)\n        /* \"contracts/mirrorseaMain.sol\":16426:16591  oracle.getkey(... */\n      mload(0x40)\n      shl(0xe1, 0x11cdc9d9)\n      dup2\n      mstore\n      sub(shl(0xa0, 0x01), 0x01)\n        /* \"contracts/mirrorseaMain.sol\":16426:16432  oracle */\n      swap1\n      swap2\n      and\n      swap1\n        /* \"contracts/mirrorseaMain.sol\":16426:16439  oracle.getkey */\n      0x239b93b2\n      swap1\n        /* \"contracts/mirrorseaMain.sol\":16426:16591  oracle.getkey(... */\n      tag_334\n      swap1\n        /* \"contracts/mirrorseaMain.sol\":16457:16469  _marketState */\n      dup13\n      swap1\n        /* \"contracts/mirrorseaMain.sol\":16487:16495  _price18 */\n      dup10\n      swap1\n        /* \"contracts/mirrorseaMain.sol\":16513:16523  _timestamp */\n      dup13\n      swap1\n        /* \"contracts/mirrorseaMain.sol\":16541:16549  _symbols */\n      dup13\n      swap1\n        /* \"contracts/mirrorseaMain.sol\":16567:16577  _signature */\n      dup12\n      swap1\n        /* \"contracts/mirrorseaMain.sol\":16426:16591  oracle.getkey(... */\n      0x04\n      add\n      tag_335\n      jump\t// in\n    tag_334:\n      0x20\n      mload(0x40)\n      dup1\n      dup4\n      sub\n      dup2\n      dup7\n      dup1\n      extcodesize\n      iszero\n      dup1\n      iszero\n      tag_336\n      jumpi\n      0x00\n      dup1\n      revert\n    tag_336:\n      pop\n      gas\n      staticcall\n      iszero\n      dup1\n      iszero\n      tag_338\n      jumpi\n      returndatasize\n      0x00\n      dup1\n      returndatacopy\n      revert(0x00, returndatasize)\n    tag_338:\n      pop\n      pop\n      pop\n      pop\n      mload(0x40)\n      returndatasize\n      not(0x1f)\n      0x1f\n      dup3\n      add\n      and\n      dup3\n      add\n      dup1\n      0x40\n      mstore\n      pop\n      dup2\n      add\n      swap1\n      tag_339\n      swap2\n      swap1\n      tag_340\n      jump\t// in\n    tag_339:\n        /* \"contracts/mirrorseaMain.sol\":16405:16627  require(... */\n      tag_341\n      jumpi\n      mload(0x40)\n      shl(0xe5, 0x461bcd)\n      dup2\n      mstore\n      0x04\n      add\n      tag_208\n      swap1\n      tag_343\n      jump\t// in\n    tag_341:\n        /* \"contracts/mirrorseaMain.sol\":16645:16685  _isSolvent(_id, _price18, _adjustMargin) */\n      tag_344\n        /* \"contracts/mirrorseaMain.sol\":16656:16659  _id */\n      dup9\n        /* \"contracts/mirrorseaMain.sol\":16661:16669  _price18 */\n      dup7\n        /* \"contracts/mirrorseaMain.sol\":16671:16684  _adjustMargin */\n      dup6\n        /* \"contracts/mirrorseaMain.sol\":16645:16655  _isSolvent */\n      tag_73\n        /* \"contracts/mirrorseaMain.sol\":16645:16685  _isSolvent(_id, _price18, _adjustMargin) */\n      jump\t// in\n    tag_344:\n        /* \"contracts/mirrorseaMain.sol\":16637:16706  require(_isSolvent(_id, _price18, _adjustMargin), \"User is bankrupt\") */\n      tag_345\n      jumpi\n      mload(0x40)\n      shl(0xe5, 0x461bcd)\n      dup2\n      mstore\n      0x04\n      add\n      tag_208\n      swap1\n      tag_347\n      jump\t// in\n    tag_345:\n        /* \"contracts/mirrorseaMain.sol\":16730:16739  order.amt */\n      0x09\n      dup2\n      add\n      sload\n        /* \"contracts/mirrorseaMain.sol\":16766:16778  order.margin */\n      0x0a\n      dup3\n      add\n      sload\n        /* \"contracts/mirrorseaMain.sol\":16840:16849  PRECISION */\n      sload(0x73)\n        /* \"contracts/mirrorseaMain.sol\":16824:16834  feePercent */\n      sload(0x72)\n        /* \"contracts/mirrorseaMain.sol\":16716:16727  uint256 amt */\n      0x00\n      swap2\n        /* \"contracts/mirrorseaMain.sol\":16802:16882  amt.mul(_price18).mul(feePercent).div(PRECISION).div(... */\n      tag_348\n      swap2\n        /* \"contracts/mirrorseaMain.sol\":16868:16872  1e18 */\n      0x0de0b6b3a7640000\n      swap2\n        /* \"contracts/mirrorseaMain.sol\":16802:16850  amt.mul(_price18).mul(feePercent).div(PRECISION) */\n      tag_239\n      swap2\n      dup3\n      swap1\n        /* \"contracts/mirrorseaMain.sol\":16802:16819  amt.mul(_price18) */\n      tag_240\n        /* \"contracts/mirrorseaMain.sol\":16730:16739  order.amt */\n      dup10\n        /* \"contracts/mirrorseaMain.sol\":16810:16818  _price18 */\n      dup16\n        /* \"contracts/mirrorseaMain.sol\":16802:16809  amt.mul */\n      tag_201\n        /* \"contracts/mirrorseaMain.sol\":16802:16819  amt.mul(_price18) */\n      jump\t// in\n        /* \"contracts/mirrorseaMain.sol\":16802:16882  amt.mul(_price18).mul(feePercent).div(PRECISION).div(... */\n    tag_348:\n        /* \"contracts/mirrorseaMain.sol\":16788:16882  uint256 fee = amt.mul(_price18).mul(feePercent).div(PRECISION).div(... */\n      swap1\n      pop\n        /* \"contracts/mirrorseaMain.sol\":16892:16910  uint256 diffMargin */\n      0x00\n        /* \"contracts/mirrorseaMain.sol\":16940:16946  margin */\n      dup3\n        /* \"contracts/mirrorseaMain.sol\":16924:16937  _adjustMargin */\n      dup8\n        /* \"contracts/mirrorseaMain.sol\":16924:16946  _adjustMargin > margin */\n      gt\n        /* \"contracts/mirrorseaMain.sol\":16920:17263  if (_adjustMargin > margin) {... */\n      iszero\n      tag_352\n      jumpi\n        /* \"contracts/mirrorseaMain.sol\":16975:17000  _adjustMargin.sub(margin) */\n      tag_353\n        /* \"contracts/mirrorseaMain.sol\":16975:16988  _adjustMargin */\n      dup8\n        /* \"contracts/mirrorseaMain.sol\":16993:16999  margin */\n      dup5\n        /* \"contracts/mirrorseaMain.sol\":16975:16992  _adjustMargin.sub */\n      tag_202\n        /* \"contracts/mirrorseaMain.sol\":16975:17000  _adjustMargin.sub(margin) */\n      jump\t// in\n    tag_353:\n        /* \"contracts/mirrorseaMain.sol\":17014:17017  usc */\n      sload(0x67)\n        /* \"contracts/mirrorseaMain.sol\":16962:17000  diffMargin = _adjustMargin.sub(margin) */\n      swap1\n      swap2\n      pop\n        /* \"contracts/mirrorseaMain.sol\":17014:17073  usc.safeTransferFrom(msg.sender, address(this), diffMargin) */\n      tag_354\n      swap1\n      sub(shl(0xa0, 0x01), 0x01)\n        /* \"contracts/mirrorseaMain.sol\":17014:17017  usc */\n      and\n        /* \"contracts/mirrorseaMain.sol\":17035:17045  msg.sender */\n      caller\n        /* \"contracts/mirrorseaMain.sol\":17055:17059  this */\n      address\n        /* \"contracts/mirrorseaMain.sol\":16962:17000  diffMargin = _adjustMargin.sub(margin) */\n      dup5\n        /* \"contracts/mirrorseaMain.sol\":17014:17034  usc.safeTransferFrom */\n      tag_355\n        /* \"contracts/mirrorseaMain.sol\":17014:17073  usc.safeTransferFrom(msg.sender, address(this), diffMargin) */\n      jump\t// in\n    tag_354:\n        /* \"contracts/mirrorseaMain.sol\":17100:17103  usc */\n      sload(0x67)\n        /* \"contracts/mirrorseaMain.sol\":17087:17122  IUSC(address(usc)).burn(diffMargin) */\n      mload(0x40)\n      shl(0xe3, 0x0852cd8d)\n      dup2\n      mstore\n      sub(shl(0xa0, 0x01), 0x01)\n        /* \"contracts/mirrorseaMain.sol\":17100:17103  usc */\n      swap1\n      swap2\n      and\n      swap1\n        /* \"contracts/mirrorseaMain.sol\":17087:17110  IUSC(address(usc)).burn */\n      0x42966c68\n      swap1\n        /* \"contracts/mirrorseaMain.sol\":17087:17122  IUSC(address(usc)).burn(diffMargin) */\n      tag_356\n      swap1\n        /* \"contracts/mirrorseaMain.sol\":17111:17121  diffMargin */\n      dup5\n      swap1\n        /* \"contracts/mirrorseaMain.sol\":17087:17122  IUSC(address(usc)).burn(diffMargin) */\n      0x04\n      add\n      tag_55\n      jump\t// in\n    tag_356:\n      0x00\n      mload(0x40)\n      dup1\n      dup4\n      sub\n      dup2\n      0x00\n      dup8\n      dup1\n      extcodesize\n      iszero\n      dup1\n      iszero\n      tag_357\n      jumpi\n      0x00\n      dup1\n      revert\n    tag_357:\n      pop\n      gas\n      call\n      iszero\n      dup1\n      iszero\n      tag_359\n      jumpi\n      returndatasize\n      0x00\n      dup1\n      returndatacopy\n      revert(0x00, returndatasize)\n    tag_359:\n      pop\n      pop\n      pop\n      pop\n        /* \"contracts/mirrorseaMain.sol\":16920:17263  if (_adjustMargin > margin) {... */\n      jump(tag_360)\n    tag_352:\n        /* \"contracts/mirrorseaMain.sol\":17166:17191  margin.sub(_adjustMargin) */\n      tag_361\n        /* \"contracts/mirrorseaMain.sol\":17166:17172  margin */\n      dup4\n        /* \"contracts/mirrorseaMain.sol\":17177:17190  _adjustMargin */\n      dup9\n        /* \"contracts/mirrorseaMain.sol\":17166:17176  margin.sub */\n      tag_202\n        /* \"contracts/mirrorseaMain.sol\":17166:17191  margin.sub(_adjustMargin) */\n      jump\t// in\n    tag_361:\n        /* \"contracts/mirrorseaMain.sol\":17218:17221  usc */\n      sload(0x67)\n        /* \"contracts/mirrorseaMain.sol\":17229:17239  order.user */\n      dup7\n      sload\n        /* \"contracts/mirrorseaMain.sol\":17205:17252  IUSC(address(usc)).mint(order.user, diffMargin) */\n      mload(0x40)\n      shl(0xe0, 0x40c10f19)\n      dup2\n      mstore\n        /* \"contracts/mirrorseaMain.sol\":17153:17191  diffMargin = margin.sub(_adjustMargin) */\n      swap3\n      swap4\n      pop\n      sub(shl(0xa0, 0x01), 0x01)\n        /* \"contracts/mirrorseaMain.sol\":17218:17221  usc */\n      swap2\n      dup3\n      and\n      swap3\n        /* \"contracts/mirrorseaMain.sol\":17205:17228  IUSC(address(usc)).mint */\n      0x40c10f19\n      swap3\n        /* \"contracts/mirrorseaMain.sol\":17205:17252  IUSC(address(usc)).mint(order.user, diffMargin) */\n      tag_362\n      swap3\n        /* \"contracts/mirrorseaMain.sol\":17229:17239  order.user */\n      and\n      swap1\n        /* \"contracts/mirrorseaMain.sol\":17153:17191  diffMargin = margin.sub(_adjustMargin) */\n      dup6\n      swap1\n        /* \"contracts/mirrorseaMain.sol\":17205:17252  IUSC(address(usc)).mint(order.user, diffMargin) */\n      0x04\n      add\n      tag_363\n      jump\t// in\n    tag_362:\n      0x20\n      mload(0x40)\n      dup1\n      dup4\n      sub\n      dup2\n      0x00\n      dup8\n      dup1\n      extcodesize\n      iszero\n      dup1\n      iszero\n      tag_364\n      jumpi\n      0x00\n      dup1\n      revert\n    tag_364:\n      pop\n      gas\n      call\n      iszero\n      dup1\n      iszero\n      tag_366\n      jumpi\n      returndatasize\n      0x00\n      dup1\n      returndatacopy\n      revert(0x00, returndatasize)\n    tag_366:\n      pop\n      pop\n      pop\n      pop\n      mload(0x40)\n      returndatasize\n      not(0x1f)\n      0x1f\n      dup3\n      add\n      and\n      dup3\n      add\n      dup1\n      0x40\n      mstore\n      pop\n      dup2\n      add\n      swap1\n      tag_367\n      swap2\n      swap1\n      tag_340\n      jump\t// in\n    tag_367:\n      pop\n        /* \"contracts/mirrorseaMain.sol\":16920:17263  if (_adjustMargin > margin) {... */\n    tag_360:\n        /* \"contracts/mirrorseaMain.sol\":17272:17275  usc */\n      sload(0x67)\n        /* \"contracts/mirrorseaMain.sol\":17272:17324  usc.safeTransferFrom(msg.sender, address(this), fee) */\n      tag_368\n      swap1\n      sub(shl(0xa0, 0x01), 0x01)\n        /* \"contracts/mirrorseaMain.sol\":17272:17275  usc */\n      and\n        /* \"contracts/mirrorseaMain.sol\":17293:17303  msg.sender */\n      caller\n        /* \"contracts/mirrorseaMain.sol\":17313:17317  this */\n      address\n        /* \"contracts/mirrorseaMain.sol\":17320:17323  fee */\n      dup6\n        /* \"contracts/mirrorseaMain.sol\":17272:17292  usc.safeTransferFrom */\n      tag_355\n        /* \"contracts/mirrorseaMain.sol\":17272:17324  usc.safeTransferFrom(msg.sender, address(this), fee) */\n      jump\t// in\n    tag_368:\n        /* \"contracts/mirrorseaMain.sol\":17359:17370  helperLogic */\n      sload(0x68)\n        /* \"contracts/mirrorseaMain.sol\":17334:17337  usc */\n      sload(0x67)\n        /* \"contracts/mirrorseaMain.sol\":17334:17377  usc.safeTransfer(address(helperLogic), fee) */\n      tag_369\n      swap2\n      sub(shl(0xa0, 0x01), 0x01)\n        /* \"contracts/mirrorseaMain.sol\":17334:17337  usc */\n      swap2\n      dup3\n      and\n      swap2\n        /* \"contracts/mirrorseaMain.sol\":17359:17370  helperLogic */\n      and\n        /* \"contracts/mirrorseaMain.sol\":17373:17376  fee */\n      dup5\n        /* \"contracts/mirrorseaMain.sol\":17334:17350  usc.safeTransfer */\n      tag_370\n        /* \"contracts/mirrorseaMain.sol\":17334:17377  usc.safeTransfer(address(helperLogic), fee) */\n      jump\t// in\n    tag_369:\n        /* \"contracts/mirrorseaMain.sol\":17387:17398  helperLogic */\n      0x68\n      0x00\n      swap1\n      sload\n      swap1\n      0x0100\n      exp\n      swap1\n      div\n      sub(shl(0xa0, 0x01), 0x01)\n      and\n      sub(shl(0xa0, 0x01), 0x01)\n        /* \"contracts/mirrorseaMain.sol\":17387:17413  helperLogic.jointExecution */\n      and\n      0xd10c06a2\n        /* \"contracts/mirrorseaMain.sol\":17387:17415  helperLogic.jointExecution() */\n      mload(0x40)\n      dup2\n      0xffffffff\n      and\n      0xe0\n      shl\n      dup2\n      mstore\n      0x04\n      add\n      0x20\n      mload(0x40)\n      dup1\n      dup4\n      sub\n      dup2\n      0x00\n      dup8\n      dup1\n      extcodesize\n      iszero\n      dup1\n      iszero\n      tag_371\n      jumpi\n      0x00\n      dup1\n      revert\n    tag_371:\n      pop\n      gas\n      call\n      iszero\n      dup1\n      iszero\n      tag_373\n      jumpi\n      returndatasize\n      0x00\n      dup1\n      returndatacopy\n      revert(0x00, returndatasize)\n    tag_373:\n      pop\n      pop\n      pop\n      pop\n      mload(0x40)\n      returndatasize\n      not(0x1f)\n      0x1f\n      dup3\n      add\n      and\n      dup3\n      add\n      dup1\n      0x40\n      mstore\n      pop\n      dup2\n      add\n      swap1\n      tag_374\n      swap2\n      swap1\n      tag_340\n      jump\t// in\n    tag_374:\n      pop\n      pop\n      pop\n      pop\n      pop\n        /* \"contracts/mirrorseaMain.sol\":17425:17437  order.margin */\n      0x0a\n      add\n        /* \"contracts/mirrorseaMain.sol\":17425:17453  order.margin = _adjustMargin */\n      swap2\n      swap1\n      swap2\n      sstore\n      pop\n        /* \"contracts/mirrorseaMain.sol\":17470:17474  true */\n      0x01\n      swap7\n        /* \"contracts/mirrorseaMain.sol\":15978:17481  function adjustPosition(... */\n      swap6\n      pop\n      pop\n      pop\n      pop\n      pop\n      pop\n      jump\t// out\n        /* \"contracts/mirrorseaMain.sol\":1787:1811  uint256 public PRECISION */\n    tag_141:\n      sload(0x73)\n      dup2\n      jump\t// out\n        /* \"contracts/mirrorseaMain.sol\":2967:3130  function myCloseOrderIdListLength(address _user)... */\n    tag_145:\n      sub(shl(0xa0, 0x01), 0x01)\n        /* \"contracts/mirrorseaMain.sol\":3091:3116  myCloseOrderIdList[_user] */\n      and\n        /* \"contracts/mirrorseaMain.sol\":3061:3068  uint256 */\n      0x00\n        /* \"contracts/mirrorseaMain.sol\":3091:3116  myCloseOrderIdList[_user] */\n      swap1\n      dup2\n      mstore\n        /* \"contracts/mirrorseaMain.sol\":3091:3109  myCloseOrderIdList */\n      0x70\n        /* \"contracts/mirrorseaMain.sol\":3091:3116  myCloseOrderIdList[_user] */\n      0x20\n      mstore\n      0x40\n      swap1\n      keccak256\n        /* \"contracts/mirrorseaMain.sol\":3091:3123  myCloseOrderIdList[_user].length */\n      sload\n      swap1\n        /* \"contracts/mirrorseaMain.sol\":2967:3130  function myCloseOrderIdListLength(address _user)... */\n      jump\t// out\n        /* \"contracts/mirrorseaMain.sol\":1448:1502  mapping(address => uint256[]) public myOpenOrderIdList */\n    tag_149:\n      mstore(0x20, 0x6e)\n      dup2\n      0x00\n      mstore\n      keccak256(0x00, 0x40)\n      dup2\n      dup2\n      sload\n      dup2\n      lt\n      tag_376\n      jumpi\n      0x00\n      dup1\n      revert\n    tag_376:\n      swap1\n      0x00\n      mstore\n      keccak256(0x00, 0x20)\n      add\n      0x00\n      swap2\n      pop\n      swap2\n      pop\n      pop\n      sload\n      dup2\n      jump\t// out\n        /* \"contracts/mirrorseaMain.sol\":5918:7816  function openPosition(... */\n    tag_154:\n        /* \"contracts/mirrorseaMain.sol\":6261:6271  OrderIndex */\n      sload(0x6b)\n        /* \"contracts/mirrorseaMain.sol\":6208:6212  bool */\n      0x00\n        /* \"contracts/mirrorseaMain.sol\":6250:6272  _orderInfo[OrderIndex] */\n      swap1\n      dup2\n      mstore\n        /* \"contracts/mirrorseaMain.sol\":6250:6260  _orderInfo */\n      0x6a\n        /* \"contracts/mirrorseaMain.sol\":6250:6272  _orderInfo[OrderIndex] */\n      0x20\n      mstore\n      0x40\n      dup2\n      keccak256\n        /* \"contracts/mirrorseaMain.sol\":6290:6302  _margin != 0 */\n      dup10\n        /* \"contracts/mirrorseaMain.sol\":6282:6321  require(_margin != 0, \"margin no good\") */\n      tag_379\n      jumpi\n      mload(0x40)\n      shl(0xe5, 0x461bcd)\n      dup2\n      mstore\n      0x04\n      add\n      tag_208\n      swap1\n      tag_381\n      jump\t// in\n    tag_379:\n        /* \"contracts/mirrorseaMain.sol\":6339:6350  order.state */\n      0x03\n      dup2\n      add\n      sload\n        /* \"contracts/mirrorseaMain.sol\":6339:6355  order.state == 0 */\n      iszero\n        /* \"contracts/mirrorseaMain.sol\":6331:6369  require(order.state == 0, \"state err\") */\n      tag_382\n      jumpi\n      mload(0x40)\n      shl(0xe5, 0x461bcd)\n      dup2\n      mstore\n      0x04\n      add\n      tag_208\n      swap1\n      tag_333\n      jump\t// in\n    tag_382:\n        /* \"contracts/mirrorseaMain.sol\":6400:6406  oracle */\n      sload(0x69)\n        /* \"contracts/mirrorseaMain.sol\":6400:6565  oracle.getkey(... */\n      mload(0x40)\n      shl(0xe1, 0x11cdc9d9)\n      dup2\n      mstore\n      sub(shl(0xa0, 0x01), 0x01)\n        /* \"contracts/mirrorseaMain.sol\":6400:6406  oracle */\n      swap1\n      swap2\n      and\n      swap1\n        /* \"contracts/mirrorseaMain.sol\":6400:6413  oracle.getkey */\n      0x239b93b2\n      swap1\n        /* \"contracts/mirrorseaMain.sol\":6400:6565  oracle.getkey(... */\n      tag_384\n      swap1\n        /* \"contracts/mirrorseaMain.sol\":6431:6443  _marketState */\n      dup15\n      swap1\n        /* \"contracts/mirrorseaMain.sol\":6461:6469  _price18 */\n      dup10\n      swap1\n        /* \"contracts/mirrorseaMain.sol\":6487:6497  _timestamp */\n      dup15\n      swap1\n        /* \"contracts/mirrorseaMain.sol\":6515:6523  _symbols */\n      dup13\n      swap1\n        /* \"contracts/mirrorseaMain.sol\":6541:6551  _signature */\n      dup11\n      swap1\n        /* \"contracts/mirrorseaMain.sol\":6400:6565  oracle.getkey(... */\n      0x04\n      add\n      tag_335\n      jump\t// in\n    tag_384:\n      0x20\n      mload(0x40)\n      dup1\n      dup4\n      sub\n      dup2\n      dup7\n      dup1\n      extcodesize\n      iszero\n      dup1\n      iszero\n      tag_385\n      jumpi\n      0x00\n      dup1\n      revert\n    tag_385:\n      pop\n      gas\n      staticcall\n      iszero\n      dup1\n      iszero\n      tag_387\n      jumpi\n      returndatasize\n      0x00\n      dup1\n      returndatacopy\n      revert(0x00, returndatasize)\n    tag_387:\n      pop\n      pop\n      pop\n      pop\n      mload(0x40)\n      returndatasize\n      not(0x1f)\n      0x1f\n      dup3\n      add\n      and\n      dup3\n      add\n      dup1\n      0x40\n      mstore\n      pop\n      dup2\n      add\n      swap1\n      tag_388\n      swap2\n      swap1\n      tag_340\n      jump\t// in\n    tag_388:\n        /* \"contracts/mirrorseaMain.sol\":6379:6601  require(... */\n      tag_389\n      jumpi\n      mload(0x40)\n      shl(0xe5, 0x461bcd)\n      dup2\n      mstore\n      0x04\n      add\n      tag_208\n      swap1\n      tag_343\n      jump\t// in\n    tag_389:\n        /* \"contracts/mirrorseaMain.sol\":6629:6635  minVal */\n      sload(0x74)\n        /* \"contracts/mirrorseaMain.sol\":6619:6626  _margin */\n      dup11\n        /* \"contracts/mirrorseaMain.sol\":6619:6635  _margin > minVal */\n      gt\n        /* \"contracts/mirrorseaMain.sol\":6611:6675  require(_margin > minVal, \"The transaction amount is too small\") */\n      tag_391\n      jumpi\n      mload(0x40)\n      shl(0xe5, 0x461bcd)\n      dup2\n      mstore\n      0x04\n      add\n      tag_208\n      swap1\n      tag_393\n      jump\t// in\n    tag_391:\n        /* \"contracts/mirrorseaMain.sol\":6685:6696  uint256 fee */\n      0x00\n        /* \"contracts/mirrorseaMain.sol\":6699:6780  _price18.mul(_amt).mul(feePercent).div(PRECISION).div(... */\n      tag_394\n        /* \"contracts/mirrorseaMain.sol\":6766:6770  1e18 */\n      0x0de0b6b3a7640000\n        /* \"contracts/mirrorseaMain.sol\":6699:6748  _price18.mul(_amt).mul(feePercent).div(PRECISION) */\n      tag_239\n        /* \"contracts/mirrorseaMain.sol\":6738:6747  PRECISION */\n      sload(0x73)\n        /* \"contracts/mirrorseaMain.sol\":6699:6733  _price18.mul(_amt).mul(feePercent) */\n      tag_239\n        /* \"contracts/mirrorseaMain.sol\":6722:6732  feePercent */\n      sload(0x72)\n        /* \"contracts/mirrorseaMain.sol\":6699:6717  _price18.mul(_amt) */\n      tag_240\n        /* \"contracts/mirrorseaMain.sol\":6712:6716  _amt */\n      dup12\n        /* \"contracts/mirrorseaMain.sol\":6699:6707  _price18 */\n      dup14\n        /* \"contracts/mirrorseaMain.sol\":6699:6711  _price18.mul */\n      tag_201\n      swap1\n        /* \"contracts/mirrorseaMain.sol\":6699:6717  _price18.mul(_amt) */\n      swap2\n      swap1\n      0xffffffff\n      and\n      jump\t// in\n        /* \"contracts/mirrorseaMain.sol\":6699:6780  _price18.mul(_amt).mul(feePercent).div(PRECISION).div(... */\n    tag_394:\n        /* \"contracts/mirrorseaMain.sol\":6685:6780  uint256 fee = _price18.mul(_amt).mul(feePercent).div(PRECISION).div(... */\n      swap1\n      pop\n        /* \"contracts/mirrorseaMain.sol\":6790:6855  usc.safeTransferFrom(msg.sender, address(this), _margin.add(fee)) */\n      tag_398\n        /* \"contracts/mirrorseaMain.sol\":6811:6821  msg.sender */\n      caller\n        /* \"contracts/mirrorseaMain.sol\":6831:6835  this */\n      address\n        /* \"contracts/mirrorseaMain.sol\":6838:6854  _margin.add(fee) */\n      tag_399\n        /* \"contracts/mirrorseaMain.sol\":6838:6845  _margin */\n      dup15\n        /* \"contracts/mirrorseaMain.sol\":6685:6780  uint256 fee = _price18.mul(_amt).mul(feePercent).div(PRECISION).div(... */\n      dup6\n        /* \"contracts/mirrorseaMain.sol\":6838:6849  _margin.add */\n      tag_400\n        /* \"contracts/mirrorseaMain.sol\":6838:6854  _margin.add(fee) */\n      jump\t// in\n    tag_399:\n        /* \"contracts/mirrorseaMain.sol\":6790:6793  usc */\n      and(sub(shl(0xa0, 0x01), 0x01), sload(0x67))\n      swap3\n        /* \"contracts/mirrorseaMain.sol\":6790:6855  usc.safeTransferFrom(msg.sender, address(this), _margin.add(fee)) */\n      swap2\n      swap1\n        /* \"contracts/mirrorseaMain.sol\":6790:6810  usc.safeTransferFrom */\n      tag_355\n        /* \"contracts/mirrorseaMain.sol\":6790:6855  usc.safeTransferFrom(msg.sender, address(this), _margin.add(fee)) */\n      jump\t// in\n    tag_398:\n        /* \"contracts/mirrorseaMain.sol\":6888:6891  usc */\n      sload(0x67)\n        /* \"contracts/mirrorseaMain.sol\":6888:6916  usc.balanceOf(address(this)) */\n      mload(0x40)\n      shl(0xe0, 0x70a08231)\n      dup2\n      mstore\n        /* \"contracts/mirrorseaMain.sol\":6865:6885  uint256 uscBalanceOf */\n      0x00\n      swap2\n      sub(shl(0xa0, 0x01), 0x01)\n        /* \"contracts/mirrorseaMain.sol\":6888:6891  usc */\n      and\n      swap1\n        /* \"contracts/mirrorseaMain.sol\":6888:6901  usc.balanceOf */\n      0x70a08231\n      swap1\n        /* \"contracts/mirrorseaMain.sol\":6888:6916  usc.balanceOf(address(this)) */\n      tag_401\n      swap1\n        /* \"contracts/mirrorseaMain.sol\":6910:6914  this */\n      address\n      swap1\n        /* \"contracts/mirrorseaMain.sol\":6888:6916  usc.balanceOf(address(this)) */\n      0x04\n      add\n      tag_69\n      jump\t// in\n    tag_401:\n      0x20\n      mload(0x40)\n      dup1\n      dup4\n      sub\n      dup2\n      dup7\n      dup1\n      extcodesize\n      iszero\n      dup1\n      iszero\n      tag_402\n      jumpi\n      0x00\n      dup1\n      revert\n    tag_402:\n      pop\n      gas\n      staticcall\n      iszero\n      dup1\n      iszero\n      tag_404\n      jumpi\n      returndatasize\n      0x00\n      dup1\n      returndatacopy\n      revert(0x00, returndatasize)\n    tag_404:\n      pop\n      pop\n      pop\n      pop\n      mload(0x40)\n      returndatasize\n      not(0x1f)\n      0x1f\n      dup3\n      add\n      and\n      dup3\n      add\n      dup1\n      0x40\n      mstore\n      pop\n      dup2\n      add\n      swap1\n      tag_405\n      swap2\n      swap1\n      tag_406\n      jump\t// in\n    tag_405:\n        /* \"contracts/mirrorseaMain.sol\":6952:6963  helperLogic */\n      sload(0x68)\n        /* \"contracts/mirrorseaMain.sol\":6927:6930  usc */\n      sload(0x67)\n        /* \"contracts/mirrorseaMain.sol\":6865:6916  uint256 uscBalanceOf = usc.balanceOf(address(this)) */\n      swap2\n      swap3\n      pop\n        /* \"contracts/mirrorseaMain.sol\":6927:6970  usc.safeTransfer(address(helperLogic), fee) */\n      tag_407\n      swap2\n      sub(shl(0xa0, 0x01), 0x01)\n        /* \"contracts/mirrorseaMain.sol\":6927:6930  usc */\n      swap1\n      dup2\n      and\n      swap2\n        /* \"contracts/mirrorseaMain.sol\":6952:6963  helperLogic */\n      and\n        /* \"contracts/mirrorseaMain.sol\":6966:6969  fee */\n      dup5\n        /* \"contracts/mirrorseaMain.sol\":6927:6943  usc.safeTransfer */\n      tag_370\n        /* \"contracts/mirrorseaMain.sol\":6927:6970  usc.safeTransfer(address(helperLogic), fee) */\n      jump\t// in\n    tag_407:\n        /* \"contracts/mirrorseaMain.sol\":6980:6991  helperLogic */\n      0x68\n      0x00\n      swap1\n      sload\n      swap1\n      0x0100\n      exp\n      swap1\n      div\n      sub(shl(0xa0, 0x01), 0x01)\n      and\n      sub(shl(0xa0, 0x01), 0x01)\n        /* \"contracts/mirrorseaMain.sol\":6980:7006  helperLogic.jointExecution */\n      and\n      0xd10c06a2\n        /* \"contracts/mirrorseaMain.sol\":6980:7008  helperLogic.jointExecution() */\n      mload(0x40)\n      dup2\n      0xffffffff\n      and\n      0xe0\n      shl\n      dup2\n      mstore\n      0x04\n      add\n      0x20\n      mload(0x40)\n      dup1\n      dup4\n      sub\n      dup2\n      0x00\n      dup8\n      dup1\n      extcodesize\n      iszero\n      dup1\n      iszero\n      tag_408\n      jumpi\n      0x00\n      dup1\n      revert\n    tag_408:\n      pop\n      gas\n      call\n      iszero\n      dup1\n      iszero\n      tag_410\n      jumpi\n      returndatasize\n      0x00\n      dup1\n      returndatacopy\n      revert(0x00, returndatasize)\n    tag_410:\n      pop\n      pop\n      pop\n      pop\n      mload(0x40)\n      returndatasize\n      not(0x1f)\n      0x1f\n      dup3\n      add\n      and\n      dup3\n      add\n      dup1\n      0x40\n      mstore\n      pop\n      dup2\n      add\n      swap1\n      tag_411\n      swap2\n      swap1\n      tag_340\n      jump\t// in\n    tag_411:\n      pop\n        /* \"contracts/mirrorseaMain.sol\":7031:7034  usc */\n      and(sub(shl(0xa0, 0x01), 0x01), sload(0x67))\n        /* \"contracts/mirrorseaMain.sol\":7018:7041  IUSC(address(usc)).burn */\n      0x42966c68\n        /* \"contracts/mirrorseaMain.sol\":7042:7063  uscBalanceOf.sub(fee) */\n      tag_412\n        /* \"contracts/mirrorseaMain.sol\":7042:7054  uscBalanceOf */\n      dup4\n        /* \"contracts/mirrorseaMain.sol\":7059:7062  fee */\n      dup6\n        /* \"contracts/mirrorseaMain.sol\":7042:7058  uscBalanceOf.sub */\n      tag_202\n        /* \"contracts/mirrorseaMain.sol\":7042:7063  uscBalanceOf.sub(fee) */\n      jump\t// in\n    tag_412:\n        /* \"contracts/mirrorseaMain.sol\":7018:7064  IUSC(address(usc)).burn(uscBalanceOf.sub(fee)) */\n      mload(0x40)\n      dup3\n      0xffffffff\n      and\n      0xe0\n      shl\n      dup2\n      mstore\n      0x04\n      add\n      tag_413\n      swap2\n      swap1\n      tag_55\n      jump\t// in\n    tag_413:\n      0x00\n      mload(0x40)\n      dup1\n      dup4\n      sub\n      dup2\n      0x00\n      dup8\n      dup1\n      extcodesize\n      iszero\n      dup1\n      iszero\n      tag_414\n      jumpi\n      0x00\n      dup1\n      revert\n    tag_414:\n      pop\n      gas\n      call\n      iszero\n      dup1\n      iszero\n      tag_416\n      jumpi\n      returndatasize\n      0x00\n      dup1\n      returndatacopy\n      revert(0x00, returndatasize)\n    tag_416:\n      pop\n      pop\n        /* \"contracts/mirrorseaMain.sol\":7096:7106  OrderIndex */\n      sload(0x6b)\n        /* \"contracts/mirrorseaMain.sol\":7075:7090  openOrderIdList */\n      0x6c\n        /* \"contracts/mirrorseaMain.sol\":7075:7107  openOrderIdList.push(OrderIndex) */\n      dup1\n      sload\n      0x01\n      dup2\n      dup2\n      add\n      dup4\n      sstore\n      0x00\n      dup4\n      swap1\n      mstore\n      0x2b4a51ab505fc96a0952efda2ba61bcd3078d4c02c39a186ec16f21883fbe016\n      swap1\n      swap2\n      add\n      swap3\n      swap1\n      swap3\n      sstore\n        /* \"contracts/mirrorseaMain.sol\":7153:7175  openOrderIdList.length */\n      sload\n        /* \"contracts/mirrorseaMain.sol\":7153:7182  openOrderIdList.length.sub(1) */\n      tag_418\n      swap4\n      pop\n        /* \"contracts/mirrorseaMain.sol\":7153:7175  openOrderIdList.length */\n      swap2\n      pop\n        /* \"contracts/mirrorseaMain.sol\":7153:7179  openOrderIdList.length.sub */\n      tag_202\n        /* \"contracts/mirrorseaMain.sol\":7153:7182  openOrderIdList.length.sub(1) */\n      jump\t// in\n    tag_418:\n        /* \"contracts/mirrorseaMain.sol\":7139:7149  OrderIndex */\n      0x6b\n      dup1\n      sload\n        /* \"contracts/mirrorseaMain.sol\":7117:7150  openOrderIdList_index[OrderIndex] */\n      0x00\n      swap1\n      dup2\n      mstore\n        /* \"contracts/mirrorseaMain.sol\":7117:7138  openOrderIdList_index */\n      0x6d\n        /* \"contracts/mirrorseaMain.sol\":7117:7150  openOrderIdList_index[OrderIndex] */\n      0x20\n      swap1\n      dup2\n      mstore\n      0x40\n      dup1\n      dup4\n      keccak256\n        /* \"contracts/mirrorseaMain.sol\":7117:7182  openOrderIdList_index[OrderIndex] = openOrderIdList.length.sub(1) */\n      swap5\n      swap1\n      swap5\n      sstore\n        /* \"contracts/mirrorseaMain.sol\":7211:7221  msg.sender */\n      caller\n        /* \"contracts/mirrorseaMain.sol\":7193:7222  myOpenOrderIdList[msg.sender] */\n      dup1\n      dup4\n      mstore\n        /* \"contracts/mirrorseaMain.sol\":7193:7210  myOpenOrderIdList */\n      0x6e\n        /* \"contracts/mirrorseaMain.sol\":7193:7222  myOpenOrderIdList[msg.sender] */\n      dup3\n      mstore\n      swap4\n      dup3\n      keccak256\n        /* \"contracts/mirrorseaMain.sol\":7228:7238  OrderIndex */\n      swap3\n      sload\n        /* \"contracts/mirrorseaMain.sol\":7193:7239  myOpenOrderIdList[msg.sender].push(OrderIndex) */\n      dup4\n      sload\n      0x01\n      dup2\n      dup2\n      add\n      dup7\n      sstore\n      dup6\n      dup6\n      mstore\n      swap3\n      dup5\n      keccak256\n      add\n      sstore\n        /* \"contracts/mirrorseaMain.sol\":7299:7350  myOpenOrderIdList[... */\n      swap3\n      swap1\n      mstore\n        /* \"contracts/mirrorseaMain.sol\":7299:7357  myOpenOrderIdList[... */\n      sload\n        /* \"contracts/mirrorseaMain.sol\":7299:7364  myOpenOrderIdList[... */\n      tag_420\n      swap2\n        /* \"contracts/mirrorseaMain.sol\":7299:7361  myOpenOrderIdList[... */\n      tag_202\n        /* \"contracts/mirrorseaMain.sol\":7299:7364  myOpenOrderIdList[... */\n      jump\t// in\n    tag_420:\n        /* \"contracts/mirrorseaMain.sol\":7273:7283  msg.sender */\n      caller\n        /* \"contracts/mirrorseaMain.sol\":7249:7284  myOpenOrderIdList_index[msg.sender] */\n      0x00\n      swap1\n      dup2\n      mstore\n        /* \"contracts/mirrorseaMain.sol\":7249:7272  myOpenOrderIdList_index */\n      0x6f\n        /* \"contracts/mirrorseaMain.sol\":7249:7284  myOpenOrderIdList_index[msg.sender] */\n      0x20\n      swap1\n      dup2\n      mstore\n      0x40\n      dup1\n      dup4\n      keccak256\n        /* \"contracts/mirrorseaMain.sol\":7285:7295  OrderIndex */\n      0x6b\n      dup1\n      sload\n        /* \"contracts/mirrorseaMain.sol\":7249:7296  myOpenOrderIdList_index[msg.sender][OrderIndex] */\n      dup6\n      mstore\n      swap3\n      mstore\n      dup3\n      keccak256\n        /* \"contracts/mirrorseaMain.sol\":7249:7364  myOpenOrderIdList_index[msg.sender][OrderIndex] = myOpenOrderIdList[... */\n      swap3\n      swap1\n      swap3\n      sstore\n        /* \"contracts/mirrorseaMain.sol\":7375:7387  OrderIndex++ */\n      dup2\n      sload\n      swap2\n        /* \"contracts/mirrorseaMain.sol\":7285:7295  OrderIndex */\n      swap1\n        /* \"contracts/mirrorseaMain.sol\":7375:7387  OrderIndex++ */\n      tag_421\n      dup4\n      tag_223\n      jump\t// in\n    tag_421:\n      swap1\n      swap2\n      sstore\n      pop\n      pop\n        /* \"contracts/mirrorseaMain.sol\":7398:7421  order.user = msg.sender */\n      dup3\n      sload\n      not(sub(shl(0xa0, 0x01), 0x01))\n      and\n        /* \"contracts/mirrorseaMain.sol\":7411:7421  msg.sender */\n      caller\n        /* \"contracts/mirrorseaMain.sol\":7398:7421  order.user = msg.sender */\n      or\n      dup4\n      sstore\n      0x01\n        /* \"contracts/mirrorseaMain.sol\":7431:7442  order._type */\n      dup4\n      add\n        /* \"contracts/mirrorseaMain.sol\":7431:7450  order._type = _type */\n      dup10\n      swap1\n      sstore\n        /* \"contracts/mirrorseaMain.sol\":7460:7484  order.symbols = _symbols */\n      dup8\n      mload\n      tag_422\n      swap1\n        /* \"contracts/mirrorseaMain.sol\":7460:7473  order.symbols */\n      0x02\n      dup6\n      add\n      swap1\n        /* \"contracts/mirrorseaMain.sol\":7460:7484  order.symbols = _symbols */\n      0x20\n      dup12\n      add\n      swap1\n      tag_423\n      jump\t// in\n    tag_422:\n      pop\n        /* \"contracts/mirrorseaMain.sol\":7508:7509  1 */\n      0x01\n        /* \"contracts/mirrorseaMain.sol\":7494:7505  order.state */\n      0x03\n      dup5\n      add\n        /* \"contracts/mirrorseaMain.sol\":7494:7509  order.state = 1 */\n      sstore\n        /* \"contracts/mirrorseaMain.sol\":7595:7610  order.direction */\n      0x04\n      dup4\n      add\n        /* \"contracts/mirrorseaMain.sol\":7595:7623  order.direction = _direction */\n      dup11\n      swap1\n      sstore\n        /* \"contracts/mirrorseaMain.sol\":7650:7667  order.openPrice18 */\n      0x05\n      dup4\n      add\n        /* \"contracts/mirrorseaMain.sol\":7650:7678  order.openPrice18 = _price18 */\n      dup8\n      swap1\n      sstore\n        /* \"contracts/mirrorseaMain.sol\":7688:7702  order.openTime */\n      0x06\n      dup4\n      add\n        /* \"contracts/mirrorseaMain.sol\":7688:7715  order.openTime = _timestamp */\n      dup12\n      swap1\n      sstore\n        /* \"contracts/mirrorseaMain.sol\":7725:7734  order.amt */\n      0x09\n      dup4\n      add\n        /* \"contracts/mirrorseaMain.sol\":7725:7741  order.amt = _amt */\n      dup7\n      swap1\n      sstore\n        /* \"contracts/mirrorseaMain.sol\":7766:7787  uscBalanceOf.sub(fee) */\n      tag_424\n        /* \"contracts/mirrorseaMain.sol\":7766:7778  uscBalanceOf */\n      dup2\n        /* \"contracts/mirrorseaMain.sol\":7783:7786  fee */\n      dup4\n        /* \"contracts/mirrorseaMain.sol\":7766:7782  uscBalanceOf.sub */\n      tag_202\n        /* \"contracts/mirrorseaMain.sol\":7766:7787  uscBalanceOf.sub(fee) */\n      jump\t// in\n    tag_424:\n        /* \"contracts/mirrorseaMain.sol\":7751:7763  order.margin */\n      0x0a\n      swap1\n      swap4\n      add\n        /* \"contracts/mirrorseaMain.sol\":7751:7787  order.margin = uscBalanceOf.sub(fee) */\n      swap3\n      swap1\n      swap3\n      sstore\n      pop\n        /* \"contracts/mirrorseaMain.sol\":7805:7809  true */\n      0x01\n      swap12\n        /* \"contracts/mirrorseaMain.sol\":5918:7816  function openPosition(... */\n      swap11\n      pop\n      pop\n      pop\n      pop\n      pop\n      pop\n      pop\n      pop\n      pop\n      pop\n      pop\n      jump\t// out\n        /* \"contracts/mirrorseaMain.sol\":2800:2961  function myOpenOrderIdListLength(address _user)... */\n    tag_158:\n      sub(shl(0xa0, 0x01), 0x01)\n        /* \"contracts/mirrorseaMain.sol\":2923:2947  myOpenOrderIdList[_user] */\n      and\n        /* \"contracts/mirrorseaMain.sol\":2893:2900  uint256 */\n      0x00\n        /* \"contracts/mirrorseaMain.sol\":2923:2947  myOpenOrderIdList[_user] */\n      swap1\n      dup2\n      mstore\n        /* \"contracts/mirrorseaMain.sol\":2923:2940  myOpenOrderIdList */\n      0x6e\n        /* \"contracts/mirrorseaMain.sol\":2923:2947  myOpenOrderIdList[_user] */\n      0x20\n      mstore\n      0x40\n      swap1\n      keccak256\n        /* \"contracts/mirrorseaMain.sol\":2923:2954  myOpenOrderIdList[_user].length */\n      sload\n      swap1\n        /* \"contracts/mirrorseaMain.sol\":2800:2961  function myOpenOrderIdListLength(address _user)... */\n      jump\t// out\n        /* \"contracts/mirrorseaMain.sol\":1601:1656  mapping(address => uint256[]) public myCloseOrderIdList */\n    tag_162:\n      mstore(0x20, 0x70)\n      dup2\n      0x00\n      mstore\n      keccak256(0x00, 0x40)\n      dup2\n      dup2\n      sload\n      dup2\n      lt\n      tag_376\n      jumpi\n      0x00\n      dup1\n      revert\n        /* \"contracts/mirrorseaMain.sol\":1662:1749  mapping(address => mapping(uint256 => uint256))... */\n    tag_166:\n      0x71\n      0x20\n      swap1\n      dup2\n      mstore\n      0x00\n      swap3\n      dup4\n      mstore\n      0x40\n      dup1\n      dup5\n      keccak256\n      swap1\n      swap2\n      mstore\n      swap1\n      dup3\n      mstore\n      swap1\n      keccak256\n      sload\n      dup2\n      jump\t// out\n        /* \"contracts/mirrorseaMain.sol\":1818:1839  uint256 public minVal */\n    tag_169:\n      sload(0x74)\n      dup2\n      jump\t// out\n        /* \"@openzeppelin/contracts-upgradeable/access/OwnableUpgradeable.sol\":2184:2382  function transferOwnership(address newOwner) public virtual onlyOwner {... */\n    tag_173:\n        /* \"@openzeppelin/contracts-upgradeable/access/OwnableUpgradeable.sol\":1525:1537  _msgSender() */\n      tag_429\n        /* \"@openzeppelin/contracts-upgradeable/access/OwnableUpgradeable.sol\":1525:1535  _msgSender */\n      tag_230\n        /* \"@openzeppelin/contracts-upgradeable/access/OwnableUpgradeable.sol\":1525:1537  _msgSender() */\n      jump\t// in\n    tag_429:\n      sub(shl(0xa0, 0x01), 0x01)\n        /* \"@openzeppelin/contracts-upgradeable/access/OwnableUpgradeable.sol\":1514:1537  owner() == _msgSender() */\n      and\n        /* \"@openzeppelin/contracts-upgradeable/access/OwnableUpgradeable.sol\":1514:1521  owner() */\n      tag_430\n        /* \"@openzeppelin/contracts-upgradeable/access/OwnableUpgradeable.sol\":1514:1519  owner */\n      tag_129\n        /* \"@openzeppelin/contracts-upgradeable/access/OwnableUpgradeable.sol\":1514:1521  owner() */\n      jump\t// in\n    tag_430:\n      sub(shl(0xa0, 0x01), 0x01)\n        /* \"@openzeppelin/contracts-upgradeable/access/OwnableUpgradeable.sol\":1514:1537  owner() == _msgSender() */\n      and\n      eq\n        /* \"@openzeppelin/contracts-upgradeable/access/OwnableUpgradeable.sol\":1506:1574  require(owner() == _msgSender(), \"Ownable: caller is not the owner\") */\n      tag_431\n      jumpi\n      mload(0x40)\n      shl(0xe5, 0x461bcd)\n      dup2\n      mstore\n      0x04\n      add\n      tag_208\n      swap1\n      tag_234\n      jump\t// in\n    tag_431:\n      sub(shl(0xa0, 0x01), 0x01)\n        /* \"@openzeppelin/contracts-upgradeable/access/OwnableUpgradeable.sol\":2272:2294  newOwner != address(0) */\n      dup2\n      and\n        /* \"@openzeppelin/contracts-upgradeable/access/OwnableUpgradeable.sol\":2264:2337  require(newOwner != address(0), \"Ownable: new owner is the zero address\") */\n      tag_434\n      jumpi\n      mload(0x40)\n      shl(0xe5, 0x461bcd)\n      dup2\n      mstore\n      0x04\n      add\n      tag_208\n      swap1\n      tag_436\n      jump\t// in\n    tag_434:\n        /* \"@openzeppelin/contracts-upgradeable/access/OwnableUpgradeable.sol\":2347:2375  _transferOwnership(newOwner) */\n      tag_437\n        /* \"@openzeppelin/contracts-upgradeable/access/OwnableUpgradeable.sol\":2366:2374  newOwner */\n      dup2\n        /* \"@openzeppelin/contracts-upgradeable/access/OwnableUpgradeable.sol\":2347:2365  _transferOwnership */\n      tag_314\n        /* \"@openzeppelin/contracts-upgradeable/access/OwnableUpgradeable.sol\":2347:2375  _transferOwnership(newOwner) */\n      jump\t// in\n    tag_437:\n        /* \"@openzeppelin/contracts-upgradeable/access/OwnableUpgradeable.sol\":2184:2382  function transferOwnership(address newOwner) public virtual onlyOwner {... */\n      pop\n      jump\t// out\n        /* \"contracts/mirrorseaMain.sol\":1315:1340  uint256 public OrderIndex */\n    tag_175:\n      sload(0x6b)\n      dup2\n      jump\t// out\n        /* \"contracts/mirrorseaMain.sol\":2277:2657  function initialize(... */\n    tag_180:\n        /* \"@openzeppelin/contracts-upgradeable/proxy/utils/Initializable.sol\":539:552  _initializing */\n      sload(0x00)\n      0x0100\n      swap1\n      div\n      0xff\n      and\n      dup1\n        /* \"@openzeppelin/contracts-upgradeable/proxy/utils/Initializable.sol\":539:569  _initializing || !_initialized */\n      tag_439\n      jumpi\n      pop\n        /* \"@openzeppelin/contracts-upgradeable/proxy/utils/Initializable.sol\":557:569  _initialized */\n      and(0xff, sload(0x00))\n        /* \"@openzeppelin/contracts-upgradeable/proxy/utils/Initializable.sol\":556:569  !_initialized */\n      iszero\n        /* \"@openzeppelin/contracts-upgradeable/proxy/utils/Initializable.sol\":539:569  _initializing || !_initialized */\n    tag_439:\n        /* \"@openzeppelin/contracts-upgradeable/proxy/utils/Initializable.sol\":531:620  require(_initializing || !_initialized, \"Initializable: contract is already initialized\") */\n      tag_440\n      jumpi\n      mload(0x40)\n      shl(0xe5, 0x461bcd)\n      dup2\n      mstore\n      0x04\n      add\n      tag_208\n      swap1\n      tag_442\n      jump\t// in\n    tag_440:\n        /* \"@openzeppelin/contracts-upgradeable/proxy/utils/Initializable.sol\":631:650  bool isTopLevelCall */\n      0x00\n        /* \"@openzeppelin/contracts-upgradeable/proxy/utils/Initializable.sol\":654:667  _initializing */\n      sload\n      0x0100\n      swap1\n      div\n      0xff\n      and\n        /* \"@openzeppelin/contracts-upgradeable/proxy/utils/Initializable.sol\":653:667  !_initializing */\n      iszero\n        /* \"@openzeppelin/contracts-upgradeable/proxy/utils/Initializable.sol\":677:775  if (isTopLevelCall) {... */\n      dup1\n      iszero\n      tag_443\n      jumpi\n        /* \"@openzeppelin/contracts-upgradeable/proxy/utils/Initializable.sol\":711:724  _initializing */\n      0x00\n        /* \"@openzeppelin/contracts-upgradeable/proxy/utils/Initializable.sol\":711:731  _initializing = true */\n      dup1\n      sload\n      not(0xff)\n      not(0xff00)\n      swap1\n      swap2\n      and\n      0x0100\n      or\n        /* \"@openzeppelin/contracts-upgradeable/proxy/utils/Initializable.sol\":745:764  _initialized = true */\n      and\n        /* \"@openzeppelin/contracts-upgradeable/proxy/utils/Initializable.sol\":727:731  true */\n      0x01\n        /* \"@openzeppelin/contracts-upgradeable/proxy/utils/Initializable.sol\":745:764  _initialized = true */\n      or\n      swap1\n      sstore\n        /* \"@openzeppelin/contracts-upgradeable/proxy/utils/Initializable.sol\":677:775  if (isTopLevelCall) {... */\n    tag_443:\n        /* \"contracts/mirrorseaMain.sol\":2451:2467  __Ownable_init() */\n      tag_445\n        /* \"contracts/mirrorseaMain.sol\":2451:2465  __Ownable_init */\n      tag_446\n        /* \"contracts/mirrorseaMain.sol\":2451:2467  __Ownable_init() */\n      jump\t// in\n    tag_445:\n        /* \"contracts/mirrorseaMain.sol\":2477:2483  signer */\n      0x66\n        /* \"contracts/mirrorseaMain.sol\":2477:2493  signer = _signer */\n      dup1\n      sload\n      sub(shl(0xa0, 0x01), 0x01)\n      dup1\n      dup9\n      and\n      not(sub(shl(0xa0, 0x01), 0x01))\n      swap3\n      dup4\n      and\n      or\n      swap1\n      swap3\n      sstore\n        /* \"contracts/mirrorseaMain.sol\":2503:2514  helperLogic */\n      0x68\n        /* \"contracts/mirrorseaMain.sol\":2503:2529  helperLogic = _helperLogic */\n      dup1\n      sload\n      dup8\n      dup5\n      and\n      swap1\n      dup4\n      and\n      or\n      swap1\n      sstore\n        /* \"contracts/mirrorseaMain.sol\":2539:2542  usc */\n      0x67\n        /* \"contracts/mirrorseaMain.sol\":2539:2549  usc = _usc */\n      dup1\n      sload\n      dup7\n      dup5\n      and\n      swap1\n      dup4\n      and\n      or\n      swap1\n      sstore\n        /* \"contracts/mirrorseaMain.sol\":2571:2576  10000 */\n      0x2710\n        /* \"contracts/mirrorseaMain.sol\":2559:2568  PRECISION */\n      0x73\n        /* \"contracts/mirrorseaMain.sol\":2559:2576  PRECISION = 10000 */\n      sstore\n        /* \"contracts/mirrorseaMain.sol\":2586:2592  oracle */\n      0x69\n        /* \"contracts/mirrorseaMain.sol\":2586:2602  oracle = _oracle */\n      dup1\n      sload\n      swap3\n      dup6\n      and\n      swap3\n      swap1\n      swap2\n      and\n      swap2\n      swap1\n      swap2\n      or\n      swap1\n      sstore\n        /* \"contracts/mirrorseaMain.sol\":2621:2625  1e18 */\n      0x0de0b6b3a7640000\n        /* \"contracts/mirrorseaMain.sol\":2612:2618  minVal */\n      0x74\n        /* \"contracts/mirrorseaMain.sol\":2612:2625  minVal = 1e18 */\n      sstore\n        /* \"contracts/mirrorseaMain.sol\":2648:2650  50 */\n      0x32\n        /* \"contracts/mirrorseaMain.sol\":2635:2645  feePercent */\n      0x72\n        /* \"contracts/mirrorseaMain.sol\":2635:2650  feePercent = 50 */\n      sstore\n        /* \"@openzeppelin/contracts-upgradeable/proxy/utils/Initializable.sol\":797:863  if (isTopLevelCall) {... */\n      dup1\n      iszero\n      tag_447\n      jumpi\n        /* \"@openzeppelin/contracts-upgradeable/proxy/utils/Initializable.sol\":847:852  false */\n      0x00\n        /* \"@openzeppelin/contracts-upgradeable/proxy/utils/Initializable.sol\":831:852  _initializing = false */\n      dup1\n      sload\n      not(0xff00)\n      and\n      swap1\n      sstore\n        /* \"@openzeppelin/contracts-upgradeable/proxy/utils/Initializable.sol\":797:863  if (isTopLevelCall) {... */\n    tag_447:\n        /* \"contracts/mirrorseaMain.sol\":2277:2657  function initialize(... */\n      pop\n      pop\n      pop\n      pop\n      pop\n      jump\t// out\n        /* \"contracts/mirrorseaMain.sol\":3858:4633  function setOrderInfo(... */\n    tag_184:\n        /* \"contracts/mirrorseaMain.sol\":4217:4221  bool */\n      0x00\n        /* \"@openzeppelin/contracts-upgradeable/access/OwnableUpgradeable.sol\":1525:1537  _msgSender() */\n      tag_449\n        /* \"@openzeppelin/contracts-upgradeable/access/OwnableUpgradeable.sol\":1525:1535  _msgSender */\n      tag_230\n        /* \"@openzeppelin/contracts-upgradeable/access/OwnableUpgradeable.sol\":1525:1537  _msgSender() */\n      jump\t// in\n    tag_449:\n      sub(shl(0xa0, 0x01), 0x01)\n        /* \"@openzeppelin/contracts-upgradeable/access/OwnableUpgradeable.sol\":1514:1537  owner() == _msgSender() */\n      and\n        /* \"@openzeppelin/contracts-upgradeable/access/OwnableUpgradeable.sol\":1514:1521  owner() */\n      tag_450\n        /* \"@openzeppelin/contracts-upgradeable/access/OwnableUpgradeable.sol\":1514:1519  owner */\n      tag_129\n        /* \"@openzeppelin/contracts-upgradeable/access/OwnableUpgradeable.sol\":1514:1521  owner() */\n      jump\t// in\n    tag_450:\n      sub(shl(0xa0, 0x01), 0x01)\n        /* \"@openzeppelin/contracts-upgradeable/access/OwnableUpgradeable.sol\":1514:1537  owner() == _msgSender() */\n      and\n      eq\n        /* \"@openzeppelin/contracts-upgradeable/access/OwnableUpgradeable.sol\":1506:1574  require(owner() == _msgSender(), \"Ownable: caller is not the owner\") */\n      tag_451\n      jumpi\n      mload(0x40)\n      shl(0xe5, 0x461bcd)\n      dup2\n      mstore\n      0x04\n      add\n      tag_208\n      swap1\n      tag_234\n      jump\t// in\n    tag_451:\n        /* \"contracts/mirrorseaMain.sol\":4250:4605  OrderInfo({... */\n      mload(0x40)\n      dup1\n      0x0160\n      add\n      0x40\n      mstore\n      dup1\n        /* \"contracts/mirrorseaMain.sol\":4280:4284  user */\n      dup14\n      sub(shl(0xa0, 0x01), 0x01)\n        /* \"contracts/mirrorseaMain.sol\":4250:4605  OrderInfo({... */\n      and\n      dup2\n      mstore\n      0x20\n      add\n        /* \"contracts/mirrorseaMain.sol\":4305:4310  _type */\n      dup13\n        /* \"contracts/mirrorseaMain.sol\":4250:4605  OrderInfo({... */\n      dup2\n      mstore\n      0x20\n      add\n        /* \"contracts/mirrorseaMain.sol\":4333:4340  symbols */\n      dup12\n        /* \"contracts/mirrorseaMain.sol\":4250:4605  OrderInfo({... */\n      dup2\n      mstore\n      0x20\n      add\n        /* \"contracts/mirrorseaMain.sol\":4361:4366  state */\n      dup11\n        /* \"contracts/mirrorseaMain.sol\":4250:4605  OrderInfo({... */\n      dup2\n      mstore\n      0x20\n      add\n        /* \"contracts/mirrorseaMain.sol\":4391:4400  direction */\n      dup10\n        /* \"contracts/mirrorseaMain.sol\":4250:4605  OrderInfo({... */\n      dup2\n      mstore\n      0x20\n      add\n        /* \"contracts/mirrorseaMain.sol\":4427:4438  openPrice18 */\n      dup9\n        /* \"contracts/mirrorseaMain.sol\":4250:4605  OrderInfo({... */\n      dup2\n      mstore\n      0x20\n      add\n        /* \"contracts/mirrorseaMain.sol\":4462:4470  openTime */\n      dup8\n        /* \"contracts/mirrorseaMain.sol\":4250:4605  OrderInfo({... */\n      dup2\n      mstore\n      0x20\n      add\n        /* \"contracts/mirrorseaMain.sol\":4498:4510  closePrice18 */\n      dup7\n        /* \"contracts/mirrorseaMain.sol\":4250:4605  OrderInfo({... */\n      dup2\n      mstore\n      0x20\n      add\n        /* \"contracts/mirrorseaMain.sol\":4535:4544  closeTime */\n      dup6\n        /* \"contracts/mirrorseaMain.sol\":4250:4605  OrderInfo({... */\n      dup2\n      mstore\n      0x20\n      add\n        /* \"contracts/mirrorseaMain.sol\":4563:4566  amt */\n      dup5\n        /* \"contracts/mirrorseaMain.sol\":4250:4605  OrderInfo({... */\n      dup2\n      mstore\n      0x20\n      add\n        /* \"contracts/mirrorseaMain.sol\":4588:4594  margin */\n      dup4\n        /* \"contracts/mirrorseaMain.sol\":4250:4605  OrderInfo({... */\n      dup2\n      mstore\n      pop\n        /* \"contracts/mirrorseaMain.sol\":4233:4243  _orderInfo */\n      0x6a\n        /* \"contracts/mirrorseaMain.sol\":4233:4247  _orderInfo[id] */\n      0x00\n        /* \"contracts/mirrorseaMain.sol\":4244:4246  id */\n      dup16\n        /* \"contracts/mirrorseaMain.sol\":4233:4247  _orderInfo[id] */\n      dup2\n      mstore\n      0x20\n      add\n      swap1\n      dup2\n      mstore\n      0x20\n      add\n      0x00\n      keccak256\n        /* \"contracts/mirrorseaMain.sol\":4233:4605  _orderInfo[id] = OrderInfo({... */\n      0x00\n      dup3\n      add\n      mload\n      dup2\n      0x00\n      add\n      exp(0x0100, 0x00)\n      dup2\n      sload\n      dup2\n      sub(shl(0xa0, 0x01), 0x01)\n      mul\n      not\n      and\n      swap1\n      dup4\n      sub(shl(0xa0, 0x01), 0x01)\n      and\n      mul\n      or\n      swap1\n      sstore\n      pop\n      0x20\n      dup3\n      add\n      mload\n      dup2\n      0x01\n      add\n      sstore\n      0x40\n      dup3\n      add\n      mload\n      dup2\n      0x02\n      add\n      swap1\n      dup1\n      mload\n      swap1\n      0x20\n      add\n      swap1\n      tag_454\n      swap3\n      swap2\n      swap1\n      tag_423\n      jump\t// in\n    tag_454:\n      pop\n      0x60\n      dup3\n      add\n      mload\n      0x03\n      dup3\n      add\n      sstore\n      0x80\n      dup3\n      add\n      mload\n      0x04\n      dup3\n      add\n      sstore\n      0xa0\n      dup3\n      add\n      mload\n      0x05\n      dup3\n      add\n      sstore\n      0xc0\n      dup3\n      add\n      mload\n      0x06\n      dup3\n      add\n      sstore\n      0xe0\n      dup3\n      add\n      mload\n      0x07\n      dup3\n      add\n      sstore\n      0x0100\n      dup3\n      add\n      mload\n      0x08\n      dup3\n      add\n      sstore\n      0x0120\n      dup3\n      add\n      mload\n      0x09\n      dup3\n      add\n      sstore\n      0x0140\n      swap1\n      swap2\n      add\n      mload\n      0x0a\n      swap1\n      swap2\n      add\n      sstore\n      pop\n        /* \"contracts/mirrorseaMain.sol\":4622:4626  true */\n      0x01\n        /* \"contracts/mirrorseaMain.sol\":3858:4633  function setOrderInfo(... */\n      swap13\n      swap12\n      pop\n      pop\n      pop\n      pop\n      pop\n      pop\n      pop\n      pop\n      pop\n      pop\n      pop\n      pop\n      jump\t// out\n        /* \"@openzeppelin/contracts-upgradeable/utils/math/SafeMathUpgradeable.sol\":3462:3558  function mul(uint256 a, uint256 b) internal pure returns (uint256) {... */\n    tag_201:\n        /* \"@openzeppelin/contracts-upgradeable/utils/math/SafeMathUpgradeable.sol\":3520:3527  uint256 */\n      0x00\n        /* \"@openzeppelin/contracts-upgradeable/utils/math/SafeMathUpgradeable.sol\":3546:3551  a * b */\n      tag_236\n        /* \"@openzeppelin/contracts-upgradeable/utils/math/SafeMathUpgradeable.sol\":3550:3551  b */\n      dup3\n        /* \"@openzeppelin/contracts-upgradeable/utils/math/SafeMathUpgradeable.sol\":3546:3547  a */\n      dup5\n        /* \"@openzeppelin/contracts-upgradeable/utils/math/SafeMathUpgradeable.sol\":3546:3551  a * b */\n      tag_457\n      jump\t// in\n        /* \"@openzeppelin/contracts-upgradeable/utils/math/SafeMathUpgradeable.sol\":3119:3215  function sub(uint256 a, uint256 b) internal pure returns (uint256) {... */\n    tag_202:\n        /* \"@openzeppelin/contracts-upgradeable/utils/math/SafeMathUpgradeable.sol\":3177:3184  uint256 */\n      0x00\n        /* \"@openzeppelin/contracts-upgradeable/utils/math/SafeMathUpgradeable.sol\":3203:3208  a - b */\n      tag_236\n        /* \"@openzeppelin/contracts-upgradeable/utils/math/SafeMathUpgradeable.sol\":3207:3208  b */\n      dup3\n        /* \"@openzeppelin/contracts-upgradeable/utils/math/SafeMathUpgradeable.sol\":3203:3204  a */\n      dup5\n        /* \"@openzeppelin/contracts-upgradeable/utils/math/SafeMathUpgradeable.sol\":3203:3208  a - b */\n      tag_460\n      jump\t// in\n        /* \"@openzeppelin/contracts-upgradeable/utils/ContextUpgradeable.sol\":876:972  function _msgSender() internal view virtual returns (address) {... */\n    tag_230:\n        /* \"@openzeppelin/contracts-upgradeable/utils/ContextUpgradeable.sol\":955:965  msg.sender */\n      caller\n        /* \"@openzeppelin/contracts-upgradeable/utils/ContextUpgradeable.sol\":876:972  function _msgSender() internal view virtual returns (address) {... */\n      swap1\n      jump\t// out\n        /* \"@openzeppelin/contracts-upgradeable/utils/math/SafeMathUpgradeable.sol\":3847:3943  function div(uint256 a, uint256 b) internal pure returns (uint256) {... */\n    tag_241:\n        /* \"@openzeppelin/contracts-upgradeable/utils/math/SafeMathUpgradeable.sol\":3905:3912  uint256 */\n      0x00\n        /* \"@openzeppelin/contracts-upgradeable/utils/math/SafeMathUpgradeable.sol\":3931:3936  a / b */\n      tag_236\n        /* \"@openzeppelin/contracts-upgradeable/utils/math/SafeMathUpgradeable.sol\":3935:3936  b */\n      dup3\n        /* \"@openzeppelin/contracts-upgradeable/utils/math/SafeMathUpgradeable.sol\":3931:3932  a */\n      dup5\n        /* \"@openzeppelin/contracts-upgradeable/utils/math/SafeMathUpgradeable.sol\":3931:3936  a / b */\n      tag_464\n      jump\t// in\n        /* \"contracts/mirrorseaMain.sol\":10535:12249  function _closePosition(... */\n    tag_282:\n        /* \"contracts/mirrorseaMain.sol\":10831:10841  order.user */\n      dup7\n      sload\n        /* \"contracts/mirrorseaMain.sol\":10807:10811  bool */\n      0x00\n      swap1\n      sub(shl(0xa0, 0x01), 0x01)\n        /* \"contracts/mirrorseaMain.sol\":10831:10841  order.user */\n      and\n        /* \"contracts/mirrorseaMain.sol\":10823:10880  require(order.user != address(0), \"order does not exist\") */\n      tag_466\n      jumpi\n      mload(0x40)\n      shl(0xe5, 0x461bcd)\n      dup2\n      mstore\n      0x04\n      add\n      tag_208\n      swap1\n      tag_330\n      jump\t// in\n    tag_466:\n        /* \"contracts/mirrorseaMain.sol\":10912:10913  2 */\n      0x02\n        /* \"contracts/mirrorseaMain.sol\":10898:10903  order */\n      dup9\n        /* \"contracts/mirrorseaMain.sol\":10898:10909  order.state */\n      0x03\n      add\n      sload\n        /* \"contracts/mirrorseaMain.sol\":10898:10913  order.state < 2 */\n      lt\n        /* \"contracts/mirrorseaMain.sol\":10890:10927  require(order.state < 2, \"state err\") */\n      tag_468\n      jumpi\n      mload(0x40)\n      shl(0xe5, 0x461bcd)\n      dup2\n      mstore\n      0x04\n      add\n      tag_208\n      swap1\n      tag_333\n      jump\t// in\n    tag_468:\n        /* \"contracts/mirrorseaMain.sol\":10958:10964  oracle */\n      sload(0x69)\n        /* \"contracts/mirrorseaMain.sol\":10958:11123  oracle.getkey(... */\n      mload(0x40)\n      shl(0xe1, 0x11cdc9d9)\n      dup2\n      mstore\n      sub(shl(0xa0, 0x01), 0x01)\n        /* \"contracts/mirrorseaMain.sol\":10958:10964  oracle */\n      swap1\n      swap2\n      and\n      swap1\n        /* \"contracts/mirrorseaMain.sol\":10958:10971  oracle.getkey */\n      0x239b93b2\n      swap1\n        /* \"contracts/mirrorseaMain.sol\":10958:11123  oracle.getkey(... */\n      tag_470\n      swap1\n        /* \"contracts/mirrorseaMain.sol\":10989:11001  _marketState */\n      dup13\n      swap1\n        /* \"contracts/mirrorseaMain.sol\":11019:11027  _price18 */\n      dup8\n      swap1\n        /* \"contracts/mirrorseaMain.sol\":11045:11055  _timestamp */\n      dup11\n      swap1\n        /* \"contracts/mirrorseaMain.sol\":11073:11081  _symbols */\n      dup11\n      swap1\n        /* \"contracts/mirrorseaMain.sol\":11099:11109  _signature */\n      dup10\n      swap1\n        /* \"contracts/mirrorseaMain.sol\":10958:11123  oracle.getkey(... */\n      0x04\n      add\n      tag_335\n      jump\t// in\n    tag_470:\n      0x20\n      mload(0x40)\n      dup1\n      dup4\n      sub\n      dup2\n      dup7\n      dup1\n      extcodesize\n      iszero\n      dup1\n      iszero\n      tag_471\n      jumpi\n      0x00\n      dup1\n      revert\n    tag_471:\n      pop\n      gas\n      staticcall\n      iszero\n      dup1\n      iszero\n      tag_473\n      jumpi\n      returndatasize\n      0x00\n      dup1\n      returndatacopy\n      revert(0x00, returndatasize)\n    tag_473:\n      pop\n      pop\n      pop\n      pop\n      mload(0x40)\n      returndatasize\n      not(0x1f)\n      0x1f\n      dup3\n      add\n      and\n      dup3\n      add\n      dup1\n      0x40\n      mstore\n      pop\n      dup2\n      add\n      swap1\n      tag_474\n      swap2\n      swap1\n      tag_340\n      jump\t// in\n    tag_474:\n        /* \"contracts/mirrorseaMain.sol\":10937:11159  require(... */\n      tag_475\n      jumpi\n      mload(0x40)\n      shl(0xe5, 0x461bcd)\n      dup2\n      mstore\n      0x04\n      add\n      tag_208\n      swap1\n      tag_343\n      jump\t// in\n    tag_475:\n        /* \"contracts/mirrorseaMain.sol\":11212:11222  order.user */\n      dup8\n      sload\n        /* \"contracts/mirrorseaMain.sol\":11259:11274  order.direction */\n      0x04\n      dup10\n      add\n      sload\n        /* \"contracts/mirrorseaMain.sol\":11183:11186  _id */\n      dup8\n      swap2\n      sub(shl(0xa0, 0x01), 0x01)\n        /* \"contracts/mirrorseaMain.sol\":11212:11222  order.user */\n      and\n      swap1\n      0x01\n        /* \"contracts/mirrorseaMain.sol\":11289:11309  order_direction == 1 */\n      dup2\n      eq\n        /* \"contracts/mirrorseaMain.sol\":11285:11420  if (order_direction == 1) {... */\n      iszero\n      tag_477\n      jumpi\n        /* \"contracts/mirrorseaMain.sol\":11325:11351  closeLong(order, _price18) */\n      tag_478\n        /* \"contracts/mirrorseaMain.sol\":11335:11340  order */\n      dup12\n        /* \"contracts/mirrorseaMain.sol\":11342:11350  _price18 */\n      dup8\n        /* \"contracts/mirrorseaMain.sol\":11325:11334  closeLong */\n      tag_479\n        /* \"contracts/mirrorseaMain.sol\":11325:11351  closeLong(order, _price18) */\n      jump\t// in\n    tag_478:\n        /* \"contracts/mirrorseaMain.sol\":11285:11420  if (order_direction == 1) {... */\n      jump(tag_481)\n    tag_477:\n        /* \"contracts/mirrorseaMain.sol\":11382:11409  closeShort(order, _price18) */\n      tag_481\n        /* \"contracts/mirrorseaMain.sol\":11393:11398  order */\n      dup12\n        /* \"contracts/mirrorseaMain.sol\":11400:11408  _price18 */\n      dup8\n        /* \"contracts/mirrorseaMain.sol\":11382:11392  closeShort */\n      tag_482\n        /* \"contracts/mirrorseaMain.sol\":11382:11409  closeShort(order, _price18) */\n      jump\t// in\n    tag_481:\n        /* \"contracts/mirrorseaMain.sol\":11430:11441  helperLogic */\n      0x68\n      0x00\n      swap1\n      sload\n      swap1\n      0x0100\n      exp\n      swap1\n      div\n      sub(shl(0xa0, 0x01), 0x01)\n      and\n      sub(shl(0xa0, 0x01), 0x01)\n        /* \"contracts/mirrorseaMain.sol\":11430:11456  helperLogic.jointExecution */\n      and\n      0xd10c06a2\n        /* \"contracts/mirrorseaMain.sol\":11430:11458  helperLogic.jointExecution() */\n      mload(0x40)\n      dup2\n      0xffffffff\n      and\n      0xe0\n      shl\n      dup2\n      mstore\n      0x04\n      add\n      0x20\n      mload(0x40)\n      dup1\n      dup4\n      sub\n      dup2\n      0x00\n      dup8\n      dup1\n      extcodesize\n      iszero\n      dup1\n      iszero\n      tag_483\n      jumpi\n      0x00\n      dup1\n      revert\n    tag_483:\n      pop\n      gas\n      call\n      iszero\n      dup1\n      iszero\n      tag_485\n      jumpi\n      returndatasize\n      0x00\n      dup1\n      returndatacopy\n      revert(0x00, returndatasize)\n    tag_485:\n      pop\n      pop\n      pop\n      pop\n      mload(0x40)\n      returndatasize\n      not(0x1f)\n      0x1f\n      dup3\n      add\n      and\n      dup3\n      add\n      dup1\n      0x40\n      mstore\n      pop\n      dup2\n      add\n      swap1\n      tag_486\n      swap2\n      swap1\n      tag_340\n      jump\t// in\n    tag_486:\n      pop\n        /* \"contracts/mirrorseaMain.sol\":11469:11480  order.state */\n      0x03\n      dup12\n      add\n        /* \"contracts/mirrorseaMain.sol\":11469:11489  order.state = _state */\n      dup11\n      swap1\n      sstore\n        /* \"contracts/mirrorseaMain.sol\":11499:11517  order.closePrice18 */\n      0x07\n      dup12\n      add\n        /* \"contracts/mirrorseaMain.sol\":11499:11528  order.closePrice18 = _price18 */\n      dup7\n      swap1\n      sstore\n        /* \"contracts/mirrorseaMain.sol\":11538:11553  order.closeTime */\n      0x08\n      dup12\n      add\n        /* \"contracts/mirrorseaMain.sol\":11538:11566  order.closeTime = _timestamp */\n      dup9\n      swap1\n      sstore\n        /* \"contracts/mirrorseaMain.sol\":11577:11633  cutListItem(id_, openOrderIdList_index, openOrderIdList) */\n      tag_487\n        /* \"contracts/mirrorseaMain.sol\":11589:11592  id_ */\n      dup4\n        /* \"contracts/mirrorseaMain.sol\":11594:11615  openOrderIdList_index */\n      0x6d\n        /* \"contracts/mirrorseaMain.sol\":11617:11632  openOrderIdList */\n      0x6c\n        /* \"contracts/mirrorseaMain.sol\":11577:11588  cutListItem */\n      tag_488\n        /* \"contracts/mirrorseaMain.sol\":11577:11633  cutListItem(id_, openOrderIdList_index, openOrderIdList) */\n      jump\t// in\n    tag_487:\n      sub(shl(0xa0, 0x01), 0x01)\n        /* \"contracts/mirrorseaMain.sol\":11685:11715  myOpenOrderIdList_index[_user] */\n      dup3\n      and\n      0x00\n      swap1\n      dup2\n      mstore\n        /* \"contracts/mirrorseaMain.sol\":11685:11708  myOpenOrderIdList_index */\n      0x6f\n        /* \"contracts/mirrorseaMain.sol\":11685:11715  myOpenOrderIdList_index[_user] */\n      0x20\n      swap1\n      dup2\n      mstore\n      0x40\n      dup1\n      dup4\n      keccak256\n        /* \"contracts/mirrorseaMain.sol\":11729:11746  myOpenOrderIdList */\n      0x6e\n        /* \"contracts/mirrorseaMain.sol\":11729:11753  myOpenOrderIdList[_user] */\n      swap1\n      swap3\n      mstore\n      swap1\n      swap2\n      keccak256\n        /* \"contracts/mirrorseaMain.sol\":11643:11763  cutListItem(... */\n      tag_489\n      swap2\n        /* \"contracts/mirrorseaMain.sol\":11668:11671  id_ */\n      dup6\n      swap2\n        /* \"contracts/mirrorseaMain.sol\":11643:11654  cutListItem */\n      tag_488\n        /* \"contracts/mirrorseaMain.sol\":11643:11763  cutListItem(... */\n      jump\t// in\n    tag_489:\n      sub(shl(0xa0, 0x01), 0x01)\n        /* \"contracts/mirrorseaMain.sol\":11774:11799  myCloseOrderIdList[_user] */\n      dup3\n      and\n      0x00\n      swap1\n      dup2\n      mstore\n        /* \"contracts/mirrorseaMain.sol\":11774:11792  myCloseOrderIdList */\n      0x70\n        /* \"contracts/mirrorseaMain.sol\":11774:11799  myCloseOrderIdList[_user] */\n      0x20\n      swap1\n      dup2\n      mstore\n      0x40\n      dup3\n      keccak256\n        /* \"contracts/mirrorseaMain.sol\":11774:11809  myCloseOrderIdList[_user].push(id_) */\n      dup1\n      sload\n      0x01\n      dup2\n      dup2\n      add\n      dup4\n      sstore\n      swap2\n      dup5\n      mstore\n      swap2\n      swap1\n      swap3\n      keccak256\n      add\n      dup5\n      swap1\n      sstore\n        /* \"contracts/mirrorseaMain.sol\":11859:11910  myCloseOrderIdListLength(_user)... */\n      tag_491\n      swap1\n        /* \"contracts/mirrorseaMain.sol\":11859:11890  myCloseOrderIdListLength(_user) */\n      tag_200\n        /* \"contracts/mirrorseaMain.sol\":11793:11798  _user */\n      dup5\n        /* \"contracts/mirrorseaMain.sol\":11859:11883  myCloseOrderIdListLength */\n      tag_145\n        /* \"contracts/mirrorseaMain.sol\":11859:11890  myCloseOrderIdListLength(_user) */\n      jump\t// in\n        /* \"contracts/mirrorseaMain.sol\":11859:11910  myCloseOrderIdListLength(_user)... */\n    tag_491:\n      sub(shl(0xa0, 0x01), 0x01)\n        /* \"contracts/mirrorseaMain.sol\":11820:11851  myCloseOrderIdList_index[_user] */\n      swap1\n      swap3\n      and\n      0x00\n      swap1\n      dup2\n      mstore\n        /* \"contracts/mirrorseaMain.sol\":11820:11844  myCloseOrderIdList_index */\n      0x71\n        /* \"contracts/mirrorseaMain.sol\":11820:11851  myCloseOrderIdList_index[_user] */\n      0x20\n      swap1\n      dup2\n      mstore\n      0x40\n      dup1\n      dup4\n      keccak256\n        /* \"contracts/mirrorseaMain.sol\":11820:11856  myCloseOrderIdList_index[_user][id_] */\n      swap6\n      dup4\n      mstore\n      swap5\n      swap1\n      mstore\n      swap3\n      swap1\n      swap3\n      keccak256\n        /* \"contracts/mirrorseaMain.sol\":11820:11910  myCloseOrderIdList_index[_user][id_] = myCloseOrderIdListLength(_user)... */\n      sstore\n      pop\n        /* \"contracts/mirrorseaMain.sol\":12238:12242  true */\n      0x01\n      swap1\n      pop\n        /* \"contracts/mirrorseaMain.sol\":10535:12249  function _closePosition(... */\n      swap9\n      swap8\n      pop\n      pop\n      pop\n      pop\n      pop\n      pop\n      pop\n      pop\n      jump\t// out\n        /* \"@openzeppelin/contracts-upgradeable/access/OwnableUpgradeable.sol\":2536:2723  function _transferOwnership(address newOwner) internal virtual {... */\n    tag_314:\n        /* \"@openzeppelin/contracts-upgradeable/access/OwnableUpgradeable.sol\":2628:2634  _owner */\n      0x33\n      dup1\n      sload\n      sub(shl(0xa0, 0x01), 0x01)\n        /* \"@openzeppelin/contracts-upgradeable/access/OwnableUpgradeable.sol\":2644:2661  _owner = newOwner */\n      dup4\n      dup2\n      and\n      not(sub(shl(0xa0, 0x01), 0x01))\n      dup4\n      and\n      dup2\n      or\n      swap1\n      swap4\n      sstore\n        /* \"@openzeppelin/contracts-upgradeable/access/OwnableUpgradeable.sol\":2676:2716  OwnershipTransferred(oldOwner, newOwner) */\n      mload(0x40)\n        /* \"@openzeppelin/contracts-upgradeable/access/OwnableUpgradeable.sol\":2628:2634  _owner */\n      swap2\n      and\n      swap2\n        /* \"@openzeppelin/contracts-upgradeable/access/OwnableUpgradeable.sol\":2644:2661  _owner = newOwner */\n      swap1\n        /* \"@openzeppelin/contracts-upgradeable/access/OwnableUpgradeable.sol\":2628:2634  _owner */\n      dup3\n      swap1\n        /* \"@openzeppelin/contracts-upgradeable/access/OwnableUpgradeable.sol\":2676:2716  OwnershipTransferred(oldOwner, newOwner) */\n      0x8be0079c531659141344cd1fd0a4f28419497f9722a3daafe3b4186f6b6457e0\n      swap1\n        /* \"@openzeppelin/contracts-upgradeable/access/OwnableUpgradeable.sol\":2609:2625  address oldOwner */\n      0x00\n      swap1\n        /* \"@openzeppelin/contracts-upgradeable/access/OwnableUpgradeable.sol\":2676:2716  OwnershipTransferred(oldOwner, newOwner) */\n      log3\n        /* \"@openzeppelin/contracts-upgradeable/access/OwnableUpgradeable.sol\":2536:2723  function _transferOwnership(address newOwner) internal virtual {... */\n      pop\n      pop\n      jump\t// out\n        /* \"@openzeppelin/contracts-upgradeable/token/ERC20/utils/SafeERC20Upgradeable.sol\":967:1219  function safeTransferFrom(... */\n    tag_355:\n        /* \"@openzeppelin/contracts-upgradeable/token/ERC20/utils/SafeERC20Upgradeable.sol\":1116:1212  _callOptionalReturn(token, abi.encodeWithSelector(token.transferFrom.selector, from, to, value)) */\n      tag_495\n        /* \"@openzeppelin/contracts-upgradeable/token/ERC20/utils/SafeERC20Upgradeable.sol\":1136:1141  token */\n      dup5\n        /* \"@openzeppelin/contracts-upgradeable/token/ERC20/utils/SafeERC20Upgradeable.sol\":1166:1193  token.transferFrom.selector */\n      shl(0xe0, 0x23b872dd)\n        /* \"@openzeppelin/contracts-upgradeable/token/ERC20/utils/SafeERC20Upgradeable.sol\":1195:1199  from */\n      dup6\n        /* \"@openzeppelin/contracts-upgradeable/token/ERC20/utils/SafeERC20Upgradeable.sol\":1201:1203  to */\n      dup6\n        /* \"@openzeppelin/contracts-upgradeable/token/ERC20/utils/SafeERC20Upgradeable.sol\":1205:1210  value */\n      dup6\n        /* \"@openzeppelin/contracts-upgradeable/token/ERC20/utils/SafeERC20Upgradeable.sol\":1143:1211  abi.encodeWithSelector(token.transferFrom.selector, from, to, value) */\n      add(0x24, mload(0x40))\n      tag_496\n      swap4\n      swap3\n      swap2\n      swap1\n      tag_497\n      jump\t// in\n    tag_496:\n      0x40\n      dup1\n      mload\n      not(0x1f)\n      dup2\n      dup5\n      sub\n      add\n      dup2\n      mstore\n      swap2\n      swap1\n      mstore\n      0x20\n      dup2\n      add\n      dup1\n      mload\n      sub(shl(0xe0, 0x01), 0x01)\n      and\n      not(sub(shl(0xe0, 0x01), 0x01))\n      swap1\n      swap4\n      and\n      swap3\n      swap1\n      swap3\n      or\n      swap1\n      swap2\n      mstore\n        /* \"@openzeppelin/contracts-upgradeable/token/ERC20/utils/SafeERC20Upgradeable.sol\":1116:1135  _callOptionalReturn */\n      tag_498\n        /* \"@openzeppelin/contracts-upgradeable/token/ERC20/utils/SafeERC20Upgradeable.sol\":1116:1212  _callOptionalReturn(token, abi.encodeWithSelector(token.transferFrom.selector, from, to, value)) */\n      jump\t// in\n    tag_495:\n        /* \"@openzeppelin/contracts-upgradeable/token/ERC20/utils/SafeERC20Upgradeable.sol\":967:1219  function safeTransferFrom(... */\n      pop\n      pop\n      pop\n      pop\n      jump\t// out\n        /* \"@openzeppelin/contracts-upgradeable/token/ERC20/utils/SafeERC20Upgradeable.sol\":745:961  function safeTransfer(... */\n    tag_370:\n        /* \"@openzeppelin/contracts-upgradeable/token/ERC20/utils/SafeERC20Upgradeable.sol\":868:954  _callOptionalReturn(token, abi.encodeWithSelector(token.transfer.selector, to, value)) */\n      tag_500\n        /* \"@openzeppelin/contracts-upgradeable/token/ERC20/utils/SafeERC20Upgradeable.sol\":888:893  token */\n      dup4\n        /* \"@openzeppelin/contracts-upgradeable/token/ERC20/utils/SafeERC20Upgradeable.sol\":918:941  token.transfer.selector */\n      shl(0xe0, 0xa9059cbb)\n        /* \"@openzeppelin/contracts-upgradeable/token/ERC20/utils/SafeERC20Upgradeable.sol\":943:945  to */\n      dup5\n        /* \"@openzeppelin/contracts-upgradeable/token/ERC20/utils/SafeERC20Upgradeable.sol\":947:952  value */\n      dup5\n        /* \"@openzeppelin/contracts-upgradeable/token/ERC20/utils/SafeERC20Upgradeable.sol\":895:953  abi.encodeWithSelector(token.transfer.selector, to, value) */\n      add(0x24, mload(0x40))\n      tag_496\n      swap3\n      swap2\n      swap1\n      tag_363\n      jump\t// in\n        /* \"@openzeppelin/contracts-upgradeable/token/ERC20/utils/SafeERC20Upgradeable.sol\":868:954  _callOptionalReturn(token, abi.encodeWithSelector(token.transfer.selector, to, value)) */\n    tag_500:\n        /* \"@openzeppelin/contracts-upgradeable/token/ERC20/utils/SafeERC20Upgradeable.sol\":745:961  function safeTransfer(... */\n      pop\n      pop\n      pop\n      jump\t// out\n        /* \"@openzeppelin/contracts-upgradeable/utils/math/SafeMathUpgradeable.sol\":2752:2848  function add(uint256 a, uint256 b) internal pure returns (uint256) {... */\n    tag_400:\n        /* \"@openzeppelin/contracts-upgradeable/utils/math/SafeMathUpgradeable.sol\":2810:2817  uint256 */\n      0x00\n        /* \"@openzeppelin/contracts-upgradeable/utils/math/SafeMathUpgradeable.sol\":2836:2841  a + b */\n      tag_236\n        /* \"@openzeppelin/contracts-upgradeable/utils/math/SafeMathUpgradeable.sol\":2840:2841  b */\n      dup3\n        /* \"@openzeppelin/contracts-upgradeable/utils/math/SafeMathUpgradeable.sol\":2836:2837  a */\n      dup5\n        /* \"@openzeppelin/contracts-upgradeable/utils/math/SafeMathUpgradeable.sol\":2836:2841  a + b */\n      tag_248\n      jump\t// in\n        /* \"@openzeppelin/contracts-upgradeable/access/OwnableUpgradeable.sol\":988:1114  function __Ownable_init() internal initializer {... */\n    tag_446:\n        /* \"@openzeppelin/contracts-upgradeable/proxy/utils/Initializable.sol\":539:552  _initializing */\n      sload(0x00)\n      0x0100\n      swap1\n      div\n      0xff\n      and\n      dup1\n        /* \"@openzeppelin/contracts-upgradeable/proxy/utils/Initializable.sol\":539:569  _initializing || !_initialized */\n      tag_505\n      jumpi\n      pop\n        /* \"@openzeppelin/contracts-upgradeable/proxy/utils/Initializable.sol\":557:569  _initialized */\n      and(0xff, sload(0x00))\n        /* \"@openzeppelin/contracts-upgradeable/proxy/utils/Initializable.sol\":556:569  !_initialized */\n      iszero\n        /* \"@openzeppelin/contracts-upgradeable/proxy/utils/Initializable.sol\":539:569  _initializing || !_initialized */\n    tag_505:\n        /* \"@openzeppelin/contracts-upgradeable/proxy/utils/Initializable.sol\":531:620  require(_initializing || !_initialized, \"Initializable: contract is already initialized\") */\n      tag_506\n      jumpi\n      mload(0x40)\n      shl(0xe5, 0x461bcd)\n      dup2\n      mstore\n      0x04\n      add\n      tag_208\n      swap1\n      tag_442\n      jump\t// in\n    tag_506:\n        /* \"@openzeppelin/contracts-upgradeable/proxy/utils/Initializable.sol\":631:650  bool isTopLevelCall */\n      0x00\n        /* \"@openzeppelin/contracts-upgradeable/proxy/utils/Initializable.sol\":654:667  _initializing */\n      sload\n      0x0100\n      swap1\n      div\n      0xff\n      and\n        /* \"@openzeppelin/contracts-upgradeable/proxy/utils/Initializable.sol\":653:667  !_initializing */\n      iszero\n        /* \"@openzeppelin/contracts-upgradeable/proxy/utils/Initializable.sol\":677:775  if (isTopLevelCall) {... */\n      dup1\n      iszero\n      tag_508\n      jumpi\n        /* \"@openzeppelin/contracts-upgradeable/proxy/utils/Initializable.sol\":711:724  _initializing */\n      0x00\n        /* \"@openzeppelin/contracts-upgradeable/proxy/utils/Initializable.sol\":711:731  _initializing = true */\n      dup1\n      sload\n      not(0xff)\n      not(0xff00)\n      swap1\n      swap2\n      and\n      0x0100\n      or\n        /* \"@openzeppelin/contracts-upgradeable/proxy/utils/Initializable.sol\":745:764  _initialized = true */\n      and\n        /* \"@openzeppelin/contracts-upgradeable/proxy/utils/Initializable.sol\":727:731  true */\n      0x01\n        /* \"@openzeppelin/contracts-upgradeable/proxy/utils/Initializable.sol\":745:764  _initialized = true */\n      or\n      swap1\n      sstore\n        /* \"@openzeppelin/contracts-upgradeable/proxy/utils/Initializable.sol\":677:775  if (isTopLevelCall) {... */\n    tag_508:\n        /* \"@openzeppelin/contracts-upgradeable/access/OwnableUpgradeable.sol\":1045:1071  __Context_init_unchained() */\n      tag_510\n        /* \"@openzeppelin/contracts-upgradeable/access/OwnableUpgradeable.sol\":1045:1069  __Context_init_unchained */\n      tag_511\n        /* \"@openzeppelin/contracts-upgradeable/access/OwnableUpgradeable.sol\":1045:1071  __Context_init_unchained() */\n      jump\t// in\n    tag_510:\n        /* \"@openzeppelin/contracts-upgradeable/access/OwnableUpgradeable.sol\":1081:1107  __Ownable_init_unchained() */\n      tag_512\n        /* \"@openzeppelin/contracts-upgradeable/access/OwnableUpgradeable.sol\":1081:1105  __Ownable_init_unchained */\n      tag_513\n        /* \"@openzeppelin/contracts-upgradeable/access/OwnableUpgradeable.sol\":1081:1107  __Ownable_init_unchained() */\n      jump\t// in\n    tag_512:\n        /* \"@openzeppelin/contracts-upgradeable/proxy/utils/Initializable.sol\":801:815  isTopLevelCall */\n      dup1\n        /* \"@openzeppelin/contracts-upgradeable/proxy/utils/Initializable.sol\":797:863  if (isTopLevelCall) {... */\n      iszero\n      tag_437\n      jumpi\n        /* \"@openzeppelin/contracts-upgradeable/proxy/utils/Initializable.sol\":847:852  false */\n      0x00\n        /* \"@openzeppelin/contracts-upgradeable/proxy/utils/Initializable.sol\":831:852  _initializing = false */\n      dup1\n      sload\n      not(0xff00)\n      and\n      swap1\n      sstore\n        /* \"@openzeppelin/contracts-upgradeable/access/OwnableUpgradeable.sol\":988:1114  function __Ownable_init() internal initializer {... */\n      pop\n      jump\t// out\n        /* \"contracts/mirrorseaMain.sol\":7822:9167  function closeLong(OrderInfo storage order, uint256 _price18) internal {... */\n    tag_479:\n        /* \"contracts/mirrorseaMain.sol\":7919:7929  order.user */\n      dup2\n      sload\n        /* \"contracts/mirrorseaMain.sol\":8041:8050  order.amt */\n      0x09\n      dup4\n      add\n      sload\n        /* \"contracts/mirrorseaMain.sol\":8130:8142  order.margin */\n      0x0a\n      dup5\n      add\n      sload\n        /* \"contracts/mirrorseaMain.sol\":8180:8197  order.openPrice18 */\n      0x05\n      dup6\n      add\n      sload\n        /* \"contracts/mirrorseaMain.sol\":8314:8323  PRECISION */\n      sload(0x73)\n        /* \"contracts/mirrorseaMain.sol\":8285:8295  feePercent */\n      sload(0x72)\n      sub(shl(0xa0, 0x01), 0x01)\n        /* \"contracts/mirrorseaMain.sol\":7919:7929  order.user */\n      swap1\n      swap6\n      and\n      swap5\n        /* \"contracts/mirrorseaMain.sol\":7903:7916  address _user */\n      0x00\n      swap5\n      dup6\n      swap5\n      dup6\n      swap5\n        /* \"contracts/mirrorseaMain.sol\":8041:8050  order.amt */\n      swap2\n      swap4\n        /* \"contracts/mirrorseaMain.sol\":8089:8097  _price18 */\n      dup10\n      swap4\n        /* \"contracts/mirrorseaMain.sol\":8130:8142  order.margin */\n      swap2\n      swap3\n        /* \"contracts/mirrorseaMain.sol\":8180:8197  order.openPrice18 */\n      swap2\n        /* \"contracts/mirrorseaMain.sol\":7903:7916  address _user */\n      dup7\n      swap2\n        /* \"contracts/mirrorseaMain.sol\":8221:8347  order_closePrice18... */\n      tag_516\n      swap2\n        /* \"contracts/mirrorseaMain.sol\":8342:8346  1e18 */\n      0x0de0b6b3a7640000\n      swap2\n        /* \"contracts/mirrorseaMain.sol\":8221:8324  order_closePrice18... */\n      tag_239\n      swap2\n      dup3\n      swap1\n        /* \"contracts/mirrorseaMain.sol\":8221:8267  order_closePrice18... */\n      tag_240\n        /* \"contracts/mirrorseaMain.sol\":8089:8097  _price18 */\n      dup11\n        /* \"contracts/mirrorseaMain.sol\":8041:8050  order.amt */\n      dup13\n        /* \"contracts/mirrorseaMain.sol\":8221:8256  order_closePrice18... */\n      tag_201\n        /* \"contracts/mirrorseaMain.sol\":8221:8267  order_closePrice18... */\n      jump\t// in\n        /* \"contracts/mirrorseaMain.sol\":8221:8347  order_closePrice18... */\n    tag_516:\n        /* \"contracts/mirrorseaMain.sol\":8207:8347  uint256 fee = order_closePrice18... */\n      swap1\n      pop\n        /* \"contracts/mirrorseaMain.sol\":8382:8399  order_openPrice18 */\n      dup2\n        /* \"contracts/mirrorseaMain.sol\":8361:8379  order_closePrice18 */\n      dup5\n        /* \"contracts/mirrorseaMain.sol\":8361:8399  order_closePrice18 > order_openPrice18 */\n      gt\n        /* \"contracts/mirrorseaMain.sol\":8357:9161  if (order_closePrice18 > order_openPrice18) {... */\n      iszero\n      tag_520\n      jumpi\n        /* \"contracts/mirrorseaMain.sol\":8429:8470  order_closePrice18.sub(order_openPrice18) */\n      tag_521\n        /* \"contracts/mirrorseaMain.sol\":8429:8447  order_closePrice18 */\n      dup5\n        /* \"contracts/mirrorseaMain.sol\":8452:8469  order_openPrice18 */\n      dup4\n        /* \"contracts/mirrorseaMain.sol\":8429:8451  order_closePrice18.sub */\n      tag_202\n        /* \"contracts/mirrorseaMain.sol\":8429:8470  order_closePrice18.sub(order_openPrice18) */\n      jump\t// in\n    tag_521:\n        /* \"contracts/mirrorseaMain.sol\":8415:8470  diffPrice18 = order_closePrice18.sub(order_openPrice18) */\n      swap8\n      pop\n        /* \"contracts/mirrorseaMain.sol\":8497:8533  diffPrice18.mul(order_amt).div(1e18) */\n      tag_522\n        /* \"contracts/mirrorseaMain.sol\":8528:8532  1e18 */\n      0x0de0b6b3a7640000\n        /* \"contracts/mirrorseaMain.sol\":8497:8523  diffPrice18.mul(order_amt) */\n      tag_239\n        /* \"contracts/mirrorseaMain.sol\":8415:8470  diffPrice18 = order_closePrice18.sub(order_openPrice18) */\n      dup11\n        /* \"contracts/mirrorseaMain.sol\":8513:8522  order_amt */\n      dup9\n        /* \"contracts/mirrorseaMain.sol\":8497:8512  diffPrice18.mul */\n      tag_201\n        /* \"contracts/mirrorseaMain.sol\":8497:8523  diffPrice18.mul(order_amt) */\n      jump\t// in\n        /* \"contracts/mirrorseaMain.sol\":8497:8533  diffPrice18.mul(order_amt).div(1e18) */\n    tag_522:\n        /* \"contracts/mirrorseaMain.sol\":8484:8533  diffMargin = diffPrice18.mul(order_amt).div(1e18) */\n      swap7\n      pop\n        /* \"contracts/mirrorseaMain.sol\":8557:8585  order_margin.add(diffMargin) */\n      tag_524\n        /* \"contracts/mirrorseaMain.sol\":8557:8569  order_margin */\n      dup4\n        /* \"contracts/mirrorseaMain.sol\":8484:8533  diffMargin = diffPrice18.mul(order_amt).div(1e18) */\n      dup9\n        /* \"contracts/mirrorseaMain.sol\":8557:8573  order_margin.add */\n      tag_400\n        /* \"contracts/mirrorseaMain.sol\":8557:8585  order_margin.add(diffMargin) */\n      jump\t// in\n    tag_524:\n        /* \"contracts/mirrorseaMain.sol\":8640:8651  helperLogic */\n      sload(0x68)\n        /* \"contracts/mirrorseaMain.sol\":8599:8602  usc */\n      sload(0x67)\n        /* \"contracts/mirrorseaMain.sol\":8547:8585  mintAmt = order_margin.add(diffMargin) */\n      swap2\n      swap8\n      pop\n        /* \"contracts/mirrorseaMain.sol\":8599:8658  usc.safeTransferFrom(msg.sender, address(helperLogic), fee) */\n      tag_525\n      swap2\n      sub(shl(0xa0, 0x01), 0x01)\n        /* \"contracts/mirrorseaMain.sol\":8599:8602  usc */\n      swap1\n      dup2\n      and\n      swap2\n        /* \"contracts/mirrorseaMain.sol\":8620:8630  msg.sender */\n      caller\n      swap2\n        /* \"contracts/mirrorseaMain.sol\":8640:8651  helperLogic */\n      and\n        /* \"contracts/mirrorseaMain.sol\":8654:8657  fee */\n      dup5\n        /* \"contracts/mirrorseaMain.sol\":8599:8619  usc.safeTransferFrom */\n      tag_355\n        /* \"contracts/mirrorseaMain.sol\":8599:8658  usc.safeTransferFrom(msg.sender, address(helperLogic), fee) */\n      jump\t// in\n    tag_525:\n        /* \"contracts/mirrorseaMain.sol\":8685:8688  usc */\n      sload(0x67)\n        /* \"contracts/mirrorseaMain.sol\":8672:8711  IUSC(address(usc)).mint(_user, mintAmt) */\n      mload(0x40)\n      shl(0xe0, 0x40c10f19)\n      dup2\n      mstore\n      sub(shl(0xa0, 0x01), 0x01)\n        /* \"contracts/mirrorseaMain.sol\":8685:8688  usc */\n      swap1\n      swap2\n      and\n      swap1\n        /* \"contracts/mirrorseaMain.sol\":8672:8695  IUSC(address(usc)).mint */\n      0x40c10f19\n      swap1\n        /* \"contracts/mirrorseaMain.sol\":8672:8711  IUSC(address(usc)).mint(_user, mintAmt) */\n      tag_526\n      swap1\n        /* \"contracts/mirrorseaMain.sol\":8696:8701  _user */\n      dup13\n      swap1\n        /* \"contracts/mirrorseaMain.sol\":8703:8710  mintAmt */\n      dup11\n      swap1\n        /* \"contracts/mirrorseaMain.sol\":8672:8711  IUSC(address(usc)).mint(_user, mintAmt) */\n      0x04\n      add\n      tag_363\n      jump\t// in\n    tag_526:\n      0x20\n      mload(0x40)\n      dup1\n      dup4\n      sub\n      dup2\n      0x00\n      dup8\n      dup1\n      extcodesize\n      iszero\n      dup1\n      iszero\n      tag_527\n      jumpi\n      0x00\n      dup1\n      revert\n    tag_527:\n      pop\n      gas\n      call\n      iszero\n      dup1\n      iszero\n      tag_529\n      jumpi\n      returndatasize\n      0x00\n      dup1\n      returndatacopy\n      revert(0x00, returndatasize)\n    tag_529:\n      pop\n      pop\n      pop\n      pop\n      mload(0x40)\n      returndatasize\n      not(0x1f)\n      0x1f\n      dup3\n      add\n      and\n      dup3\n      add\n      dup1\n      0x40\n      mstore\n      pop\n      dup2\n      add\n      swap1\n      tag_530\n      swap2\n      swap1\n      tag_340\n      jump\t// in\n    tag_530:\n      pop\n        /* \"contracts/mirrorseaMain.sol\":8357:9161  if (order_closePrice18 > order_openPrice18) {... */\n      jump(tag_535)\n    tag_520:\n        /* \"contracts/mirrorseaMain.sol\":8756:8797  order_openPrice18.sub(order_closePrice18) */\n      tag_532\n        /* \"contracts/mirrorseaMain.sol\":8756:8773  order_openPrice18 */\n      dup3\n        /* \"contracts/mirrorseaMain.sol\":8778:8796  order_closePrice18 */\n      dup6\n        /* \"contracts/mirrorseaMain.sol\":8756:8777  order_openPrice18.sub */\n      tag_202\n        /* \"contracts/mirrorseaMain.sol\":8756:8797  order_openPrice18.sub(order_closePrice18) */\n      jump\t// in\n    tag_532:\n        /* \"contracts/mirrorseaMain.sol\":8742:8797  diffPrice18 = order_openPrice18.sub(order_closePrice18) */\n      swap8\n      pop\n        /* \"contracts/mirrorseaMain.sol\":8824:8850  diffPrice18.mul(order_amt) */\n      tag_533\n        /* \"contracts/mirrorseaMain.sol\":8742:8797  diffPrice18 = order_openPrice18.sub(order_closePrice18) */\n      dup9\n        /* \"contracts/mirrorseaMain.sol\":8840:8849  order_amt */\n      dup7\n        /* \"contracts/mirrorseaMain.sol\":8824:8839  diffPrice18.mul */\n      tag_201\n        /* \"contracts/mirrorseaMain.sol\":8824:8850  diffPrice18.mul(order_amt) */\n      jump\t// in\n    tag_533:\n        /* \"contracts/mirrorseaMain.sol\":8811:8850  diffMargin = diffPrice18.mul(order_amt) */\n      swap7\n      pop\n        /* \"contracts/mirrorseaMain.sol\":8882:8894  order_margin */\n      dup3\n        /* \"contracts/mirrorseaMain.sol\":8869:8879  diffMargin */\n      dup8\n        /* \"contracts/mirrorseaMain.sol\":8869:8894  diffMargin > order_margin */\n      gt\n        /* \"contracts/mirrorseaMain.sol\":8865:9151  if (diffMargin > order_margin) {... */\n      iszero\n      tag_534\n      jumpi\n        /* \"contracts/mirrorseaMain.sol\":8924:8925  0 */\n      0x00\n        /* \"contracts/mirrorseaMain.sol\":8914:8925  mintAmt = 0 */\n      swap6\n      pop\n        /* \"contracts/mirrorseaMain.sol\":8865:9151  if (diffMargin > order_margin) {... */\n      jump(tag_535)\n    tag_534:\n        /* \"contracts/mirrorseaMain.sol\":8974:9002  order_margin.sub(diffMargin) */\n      tag_536\n        /* \"contracts/mirrorseaMain.sol\":8974:8986  order_margin */\n      dup4\n        /* \"contracts/mirrorseaMain.sol\":8991:9001  diffMargin */\n      dup9\n        /* \"contracts/mirrorseaMain.sol\":8974:8990  order_margin.sub */\n      tag_202\n        /* \"contracts/mirrorseaMain.sol\":8974:9002  order_margin.sub(diffMargin) */\n      jump\t// in\n    tag_536:\n        /* \"contracts/mirrorseaMain.sol\":9061:9072  helperLogic */\n      sload(0x68)\n        /* \"contracts/mirrorseaMain.sol\":9020:9023  usc */\n      sload(0x67)\n        /* \"contracts/mirrorseaMain.sol\":8964:9002  mintAmt = order_margin.sub(diffMargin) */\n      swap2\n      swap8\n      pop\n        /* \"contracts/mirrorseaMain.sol\":9020:9079  usc.safeTransferFrom(msg.sender, address(helperLogic), fee) */\n      tag_537\n      swap2\n      sub(shl(0xa0, 0x01), 0x01)\n        /* \"contracts/mirrorseaMain.sol\":9020:9023  usc */\n      swap1\n      dup2\n      and\n      swap2\n        /* \"contracts/mirrorseaMain.sol\":9041:9051  msg.sender */\n      caller\n      swap2\n        /* \"contracts/mirrorseaMain.sol\":9061:9072  helperLogic */\n      and\n        /* \"contracts/mirrorseaMain.sol\":9075:9078  fee */\n      dup5\n        /* \"contracts/mirrorseaMain.sol\":9020:9040  usc.safeTransferFrom */\n      tag_355\n        /* \"contracts/mirrorseaMain.sol\":9020:9079  usc.safeTransferFrom(msg.sender, address(helperLogic), fee) */\n      jump\t// in\n    tag_537:\n        /* \"contracts/mirrorseaMain.sol\":9110:9113  usc */\n      sload(0x67)\n        /* \"contracts/mirrorseaMain.sol\":9097:9136  IUSC(address(usc)).mint(_user, mintAmt) */\n      mload(0x40)\n      shl(0xe0, 0x40c10f19)\n      dup2\n      mstore\n      sub(shl(0xa0, 0x01), 0x01)\n        /* \"contracts/mirrorseaMain.sol\":9110:9113  usc */\n      swap1\n      swap2\n      and\n      swap1\n        /* \"contracts/mirrorseaMain.sol\":9097:9120  IUSC(address(usc)).mint */\n      0x40c10f19\n      swap1\n        /* \"contracts/mirrorseaMain.sol\":9097:9136  IUSC(address(usc)).mint(_user, mintAmt) */\n      tag_538\n      swap1\n        /* \"contracts/mirrorseaMain.sol\":9121:9126  _user */\n      dup13\n      swap1\n        /* \"contracts/mirrorseaMain.sol\":9128:9135  mintAmt */\n      dup11\n      swap1\n        /* \"contracts/mirrorseaMain.sol\":9097:9136  IUSC(address(usc)).mint(_user, mintAmt) */\n      0x04\n      add\n      tag_363\n      jump\t// in\n    tag_538:\n      0x20\n      mload(0x40)\n      dup1\n      dup4\n      sub\n      dup2\n      0x00\n      dup8\n      dup1\n      extcodesize\n      iszero\n      dup1\n      iszero\n      tag_539\n      jumpi\n      0x00\n      dup1\n      revert\n    tag_539:\n      pop\n      gas\n      call\n      iszero\n      dup1\n      iszero\n      tag_541\n      jumpi\n      returndatasize\n      0x00\n      dup1\n      returndatacopy\n      revert(0x00, returndatasize)\n    tag_541:\n      pop\n      pop\n      pop\n      pop\n      mload(0x40)\n      returndatasize\n      not(0x1f)\n      0x1f\n      dup3\n      add\n      and\n      dup3\n      add\n      dup1\n      0x40\n      mstore\n      pop\n      dup2\n      add\n      swap1\n      tag_542\n      swap2\n      swap1\n      tag_340\n      jump\t// in\n    tag_542:\n      pop\n        /* \"contracts/mirrorseaMain.sol\":8865:9151  if (diffMargin > order_margin) {... */\n    tag_535:\n        /* \"contracts/mirrorseaMain.sol\":7822:9167  function closeLong(OrderInfo storage order, uint256 _price18) internal {... */\n      pop\n      pop\n      pop\n      pop\n      pop\n      pop\n      pop\n      pop\n      pop\n      pop\n      pop\n      jump\t// out\n        /* \"contracts/mirrorseaMain.sol\":9173:10529  function closeShort(OrderInfo storage order, uint256 _price18) internal {... */\n    tag_482:\n        /* \"contracts/mirrorseaMain.sol\":9271:9281  order.user */\n      dup2\n      sload\n        /* \"contracts/mirrorseaMain.sol\":9393:9402  order.amt */\n      0x09\n      dup4\n      add\n      sload\n        /* \"contracts/mirrorseaMain.sol\":9482:9494  order.margin */\n      0x0a\n      dup5\n      add\n      sload\n        /* \"contracts/mirrorseaMain.sol\":9532:9549  order.openPrice18 */\n      0x05\n      dup6\n      add\n      sload\n        /* \"contracts/mirrorseaMain.sol\":9666:9675  PRECISION */\n      sload(0x73)\n        /* \"contracts/mirrorseaMain.sol\":9637:9647  feePercent */\n      sload(0x72)\n      sub(shl(0xa0, 0x01), 0x01)\n        /* \"contracts/mirrorseaMain.sol\":9271:9281  order.user */\n      swap1\n      swap6\n      and\n      swap5\n        /* \"contracts/mirrorseaMain.sol\":9255:9268  address _user */\n      0x00\n      swap5\n      dup6\n      swap5\n      dup6\n      swap5\n        /* \"contracts/mirrorseaMain.sol\":9393:9402  order.amt */\n      swap2\n      swap4\n        /* \"contracts/mirrorseaMain.sol\":9441:9449  _price18 */\n      dup10\n      swap4\n        /* \"contracts/mirrorseaMain.sol\":9482:9494  order.margin */\n      swap2\n      swap3\n        /* \"contracts/mirrorseaMain.sol\":9532:9549  order.openPrice18 */\n      swap2\n        /* \"contracts/mirrorseaMain.sol\":9255:9268  address _user */\n      dup7\n      swap2\n        /* \"contracts/mirrorseaMain.sol\":9573:9699  order_closePrice18... */\n      tag_544\n      swap2\n        /* \"contracts/mirrorseaMain.sol\":9694:9698  1e18 */\n      0x0de0b6b3a7640000\n      swap2\n        /* \"contracts/mirrorseaMain.sol\":9573:9676  order_closePrice18... */\n      tag_239\n      swap2\n      dup3\n      swap1\n        /* \"contracts/mirrorseaMain.sol\":9573:9619  order_closePrice18... */\n      tag_240\n        /* \"contracts/mirrorseaMain.sol\":9441:9449  _price18 */\n      dup11\n        /* \"contracts/mirrorseaMain.sol\":9393:9402  order.amt */\n      dup13\n        /* \"contracts/mirrorseaMain.sol\":9573:9608  order_closePrice18... */\n      tag_201\n        /* \"contracts/mirrorseaMain.sol\":9573:9619  order_closePrice18... */\n      jump\t// in\n        /* \"contracts/mirrorseaMain.sol\":9573:9699  order_closePrice18... */\n    tag_544:\n        /* \"contracts/mirrorseaMain.sol\":9559:9699  uint256 fee = order_closePrice18... */\n      swap1\n      pop\n        /* \"contracts/mirrorseaMain.sol\":9734:9751  order_openPrice18 */\n      dup2\n        /* \"contracts/mirrorseaMain.sol\":9713:9731  order_closePrice18 */\n      dup5\n        /* \"contracts/mirrorseaMain.sol\":9713:9751  order_closePrice18 < order_openPrice18 */\n      lt\n        /* \"contracts/mirrorseaMain.sol\":9709:10523  if (order_closePrice18 < order_openPrice18) {... */\n      iszero\n      tag_548\n      jumpi\n        /* \"contracts/mirrorseaMain.sol\":9781:9822  order_openPrice18.sub(order_closePrice18) */\n      tag_521\n        /* \"contracts/mirrorseaMain.sol\":9781:9798  order_openPrice18 */\n      dup3\n        /* \"contracts/mirrorseaMain.sol\":9803:9821  order_closePrice18 */\n      dup6\n        /* \"contracts/mirrorseaMain.sol\":9781:9802  order_openPrice18.sub */\n      tag_202\n        /* \"contracts/mirrorseaMain.sol\":9781:9822  order_openPrice18.sub(order_closePrice18) */\n      jump\t// in\n        /* \"contracts/mirrorseaMain.sol\":9709:10523  if (order_closePrice18 < order_openPrice18) {... */\n    tag_548:\n        /* \"contracts/mirrorseaMain.sol\":10108:10149  order_closePrice18.sub(order_openPrice18) */\n      tag_560\n        /* \"contracts/mirrorseaMain.sol\":10108:10126  order_closePrice18 */\n      dup5\n        /* \"contracts/mirrorseaMain.sol\":10131:10148  order_openPrice18 */\n      dup4\n        /* \"contracts/mirrorseaMain.sol\":10108:10130  order_closePrice18.sub */\n      tag_202\n        /* \"contracts/mirrorseaMain.sol\":10108:10149  order_closePrice18.sub(order_openPrice18) */\n      jump\t// in\n    tag_560:\n        /* \"contracts/mirrorseaMain.sol\":10094:10149  diffPrice18 = order_closePrice18.sub(order_openPrice18) */\n      swap8\n      pop\n        /* \"contracts/mirrorseaMain.sol\":10176:10212  diffPrice18.mul(order_amt).div(1e18) */\n      tag_533\n        /* \"contracts/mirrorseaMain.sol\":10207:10211  1e18 */\n      0x0de0b6b3a7640000\n        /* \"contracts/mirrorseaMain.sol\":10176:10202  diffPrice18.mul(order_amt) */\n      tag_239\n        /* \"contracts/mirrorseaMain.sol\":10094:10149  diffPrice18 = order_closePrice18.sub(order_openPrice18) */\n      dup11\n        /* \"contracts/mirrorseaMain.sol\":10192:10201  order_amt */\n      dup9\n        /* \"contracts/mirrorseaMain.sol\":10176:10191  diffPrice18.mul */\n      tag_201\n        /* \"contracts/mirrorseaMain.sol\":10176:10202  diffPrice18.mul(order_amt) */\n      jump\t// in\n        /* \"contracts/mirrorseaMain.sol\":12853:13233  function cutListItem(... */\n    tag_488:\n        /* \"contracts/mirrorseaMain.sol\":13010:13026  uint256 delIndex */\n      0x00\n        /* \"contracts/mirrorseaMain.sol\":13029:13045  _List_index[_id] */\n      dup4\n      dup2\n      mstore\n      0x20\n      dup4\n      swap1\n      mstore\n      0x40\n      dup2\n      keccak256\n      sload\n        /* \"contracts/mirrorseaMain.sol\":13078:13090  _List.length */\n      dup3\n      sload\n        /* \"contracts/mirrorseaMain.sol\":13029:13045  _List_index[_id] */\n      swap1\n      swap2\n        /* \"contracts/mirrorseaMain.sol\":13010:13026  uint256 delIndex */\n      swap1\n        /* \"contracts/mirrorseaMain.sol\":13072:13077  _List */\n      dup4\n      swap1\n        /* \"contracts/mirrorseaMain.sol\":13078:13097  _List.length.sub(1) */\n      tag_573\n      swap1\n        /* \"contracts/mirrorseaMain.sol\":13095:13096  1 */\n      0x01\n        /* \"contracts/mirrorseaMain.sol\":13078:13094  _List.length.sub */\n      tag_202\n        /* \"contracts/mirrorseaMain.sol\":13078:13097  _List.length.sub(1) */\n      jump\t// in\n    tag_573:\n        /* \"contracts/mirrorseaMain.sol\":13072:13098  _List[_List.length.sub(1)] */\n      dup2\n      sload\n      dup2\n      lt\n      tag_574\n      jumpi\n      mstore(0x00, shl(0xe0, 0x4e487b71))\n      mstore(0x04, 0x32)\n      revert(0x00, 0x24)\n    tag_574:\n      swap1\n      0x00\n      mstore\n      keccak256(0x00, 0x20)\n      add\n      sload\n        /* \"contracts/mirrorseaMain.sol\":13055:13098  uint256 lastID = _List[_List.length.sub(1)] */\n      swap1\n      pop\n        /* \"contracts/mirrorseaMain.sol\":13130:13138  delIndex */\n      dup2\n        /* \"contracts/mirrorseaMain.sol\":13108:13119  _List_index */\n      dup5\n        /* \"contracts/mirrorseaMain.sol\":13108:13127  _List_index[lastID] */\n      0x00\n        /* \"contracts/mirrorseaMain.sol\":13120:13126  lastID */\n      dup4\n        /* \"contracts/mirrorseaMain.sol\":13108:13127  _List_index[lastID] */\n      dup2\n      mstore\n      0x20\n      add\n      swap1\n      dup2\n      mstore\n      0x20\n      add\n      0x00\n      keccak256\n        /* \"contracts/mirrorseaMain.sol\":13108:13138  _List_index[lastID] = delIndex */\n      dup2\n      swap1\n      sstore\n      pop\n        /* \"contracts/mirrorseaMain.sol\":13166:13172  lastID */\n      dup1\n        /* \"contracts/mirrorseaMain.sol\":13148:13153  _List */\n      dup4\n        /* \"contracts/mirrorseaMain.sol\":13154:13162  delIndex */\n      dup4\n        /* \"contracts/mirrorseaMain.sol\":13148:13163  _List[delIndex] */\n      dup2\n      sload\n      dup2\n      lt\n      tag_576\n      jumpi\n      mstore(0x00, shl(0xe0, 0x4e487b71))\n      mstore(0x04, 0x32)\n      revert(0x00, 0x24)\n    tag_576:\n      0x00\n      swap2\n      dup3\n      mstore\n      0x20\n      dup1\n      dup4\n      keccak256\n      swap1\n      swap2\n      add\n        /* \"contracts/mirrorseaMain.sol\":13148:13172  _List[delIndex] = lastID */\n      swap3\n      swap1\n      swap3\n      sstore\n        /* \"contracts/mirrorseaMain.sol\":13189:13205  _List_index[_id] */\n      dup7\n      dup2\n      mstore\n      swap1\n      dup6\n      swap1\n      mstore\n      0x40\n      dup2\n      keccak256\n        /* \"contracts/mirrorseaMain.sol\":13182:13205  delete _List_index[_id] */\n      sstore\n        /* \"contracts/mirrorseaMain.sol\":13215:13226  _List.pop() */\n      dup3\n      sload\n        /* \"contracts/mirrorseaMain.sol\":13215:13220  _List */\n      dup4\n      swap1\n        /* \"contracts/mirrorseaMain.sol\":13215:13226  _List.pop() */\n      dup1\n      tag_578\n      jumpi\n      mstore(0x00, shl(0xe0, 0x4e487b71))\n      mstore(0x04, 0x31)\n      revert(0x00, 0x24)\n    tag_578:\n      0x01\n      swap1\n      sub\n      dup2\n      dup2\n      swap1\n      0x00\n      mstore\n      keccak256(0x00, 0x20)\n      add\n      0x00\n      swap1\n      sstore\n      swap1\n      sstore\n        /* \"contracts/mirrorseaMain.sol\":12853:13233  function cutListItem(... */\n      pop\n      pop\n      pop\n      pop\n      pop\n      jump\t// out\n        /* \"@openzeppelin/contracts-upgradeable/token/ERC20/utils/SafeERC20Upgradeable.sol\":3306:4023  function _callOptionalReturn(IERC20Upgradeable token, bytes memory data) private {... */\n    tag_498:\n        /* \"@openzeppelin/contracts-upgradeable/token/ERC20/utils/SafeERC20Upgradeable.sol\":3736:3759  bytes memory returndata */\n      0x00\n        /* \"@openzeppelin/contracts-upgradeable/token/ERC20/utils/SafeERC20Upgradeable.sol\":3762:3831  address(token).functionCall(data, \"SafeERC20: low-level call failed\") */\n      tag_581\n        /* \"@openzeppelin/contracts-upgradeable/token/ERC20/utils/SafeERC20Upgradeable.sol\":3790:3794  data */\n      dup3\n        /* \"@openzeppelin/contracts-upgradeable/token/ERC20/utils/SafeERC20Upgradeable.sol\":3762:3831  address(token).functionCall(data, \"SafeERC20: low-level call failed\") */\n      mload(0x40)\n      dup1\n      0x40\n      add\n      0x40\n      mstore\n      dup1\n      0x20\n      dup2\n      mstore\n      0x20\n      add\n      0x5361666545524332303a206c6f772d6c6576656c2063616c6c206661696c6564\n      dup2\n      mstore\n      pop\n        /* \"@openzeppelin/contracts-upgradeable/token/ERC20/utils/SafeERC20Upgradeable.sol\":3770:3775  token */\n      dup6\n      sub(shl(0xa0, 0x01), 0x01)\n        /* \"@openzeppelin/contracts-upgradeable/token/ERC20/utils/SafeERC20Upgradeable.sol\":3762:3789  address(token).functionCall */\n      and\n      tag_582\n      swap1\n        /* \"@openzeppelin/contracts-upgradeable/token/ERC20/utils/SafeERC20Upgradeable.sol\":3762:3831  address(token).functionCall(data, \"SafeERC20: low-level call failed\") */\n      swap3\n      swap2\n      swap1\n      0xffffffff\n      and\n      jump\t// in\n    tag_581:\n        /* \"@openzeppelin/contracts-upgradeable/token/ERC20/utils/SafeERC20Upgradeable.sol\":3845:3862  returndata.length */\n      dup1\n      mload\n        /* \"@openzeppelin/contracts-upgradeable/token/ERC20/utils/SafeERC20Upgradeable.sol\":3736:3831  bytes memory returndata = address(token).functionCall(data, \"SafeERC20: low-level call failed\") */\n      swap1\n      swap2\n      pop\n        /* \"@openzeppelin/contracts-upgradeable/token/ERC20/utils/SafeERC20Upgradeable.sol\":3845:3866  returndata.length > 0 */\n      iszero\n        /* \"@openzeppelin/contracts-upgradeable/token/ERC20/utils/SafeERC20Upgradeable.sol\":3841:4017  if (returndata.length > 0) {... */\n      tag_500\n      jumpi\n        /* \"@openzeppelin/contracts-upgradeable/token/ERC20/utils/SafeERC20Upgradeable.sol\":3940:3950  returndata */\n      dup1\n        /* \"@openzeppelin/contracts-upgradeable/token/ERC20/utils/SafeERC20Upgradeable.sol\":3929:3959  abi.decode(returndata, (bool)) */\n      dup1\n      0x20\n      add\n      swap1\n      mload\n      dup2\n      add\n      swap1\n      tag_584\n      swap2\n      swap1\n      tag_340\n      jump\t// in\n    tag_584:\n        /* \"@openzeppelin/contracts-upgradeable/token/ERC20/utils/SafeERC20Upgradeable.sol\":3921:4006  require(abi.decode(returndata, (bool)), \"SafeERC20: ERC20 operation did not succeed\") */\n      tag_500\n      jumpi\n      mload(0x40)\n      shl(0xe5, 0x461bcd)\n      dup2\n      mstore\n      0x04\n      add\n      tag_208\n      swap1\n      tag_587\n      jump\t// in\n        /* \"@openzeppelin/contracts-upgradeable/utils/ContextUpgradeable.sol\":807:871  function __Context_init_unchained() internal initializer {... */\n    tag_511:\n        /* \"@openzeppelin/contracts-upgradeable/proxy/utils/Initializable.sol\":539:552  _initializing */\n      sload(0x00)\n      0x0100\n      swap1\n      div\n      0xff\n      and\n      dup1\n        /* \"@openzeppelin/contracts-upgradeable/proxy/utils/Initializable.sol\":539:569  _initializing || !_initialized */\n      tag_589\n      jumpi\n      pop\n        /* \"@openzeppelin/contracts-upgradeable/proxy/utils/Initializable.sol\":557:569  _initialized */\n      and(0xff, sload(0x00))\n        /* \"@openzeppelin/contracts-upgradeable/proxy/utils/Initializable.sol\":556:569  !_initialized */\n      iszero\n        /* \"@openzeppelin/contracts-upgradeable/proxy/utils/Initializable.sol\":539:569  _initializing || !_initialized */\n    tag_589:\n        /* \"@openzeppelin/contracts-upgradeable/proxy/utils/Initializable.sol\":531:620  require(_initializing || !_initialized, \"Initializable: contract is already initialized\") */\n      tag_590\n      jumpi\n      mload(0x40)\n      shl(0xe5, 0x461bcd)\n      dup2\n      mstore\n      0x04\n      add\n      tag_208\n      swap1\n      tag_442\n      jump\t// in\n    tag_590:\n        /* \"@openzeppelin/contracts-upgradeable/proxy/utils/Initializable.sol\":631:650  bool isTopLevelCall */\n      0x00\n        /* \"@openzeppelin/contracts-upgradeable/proxy/utils/Initializable.sol\":654:667  _initializing */\n      sload\n      0x0100\n      swap1\n      div\n      0xff\n      and\n        /* \"@openzeppelin/contracts-upgradeable/proxy/utils/Initializable.sol\":653:667  !_initializing */\n      iszero\n        /* \"@openzeppelin/contracts-upgradeable/proxy/utils/Initializable.sol\":677:775  if (isTopLevelCall) {... */\n      dup1\n      iszero\n      tag_512\n      jumpi\n        /* \"@openzeppelin/contracts-upgradeable/proxy/utils/Initializable.sol\":711:724  _initializing */\n      0x00\n        /* \"@openzeppelin/contracts-upgradeable/proxy/utils/Initializable.sol\":711:731  _initializing = true */\n      dup1\n      sload\n      not(0xff)\n      not(0xff00)\n      swap1\n      swap2\n      and\n      0x0100\n      or\n        /* \"@openzeppelin/contracts-upgradeable/proxy/utils/Initializable.sol\":745:764  _initialized = true */\n      and\n        /* \"@openzeppelin/contracts-upgradeable/proxy/utils/Initializable.sol\":727:731  true */\n      0x01\n        /* \"@openzeppelin/contracts-upgradeable/proxy/utils/Initializable.sol\":745:764  _initialized = true */\n      or\n      swap1\n      sstore\n        /* \"@openzeppelin/contracts-upgradeable/proxy/utils/Initializable.sol\":801:815  isTopLevelCall */\n      dup1\n        /* \"@openzeppelin/contracts-upgradeable/proxy/utils/Initializable.sol\":797:863  if (isTopLevelCall) {... */\n      iszero\n      tag_437\n      jumpi\n        /* \"@openzeppelin/contracts-upgradeable/proxy/utils/Initializable.sol\":847:852  false */\n      0x00\n        /* \"@openzeppelin/contracts-upgradeable/proxy/utils/Initializable.sol\":831:852  _initializing = false */\n      dup1\n      sload\n      not(0xff00)\n      and\n      swap1\n      sstore\n        /* \"@openzeppelin/contracts-upgradeable/utils/ContextUpgradeable.sol\":807:871  function __Context_init_unchained() internal initializer {... */\n      pop\n      jump\t// out\n        /* \"@openzeppelin/contracts-upgradeable/access/OwnableUpgradeable.sol\":1120:1226  function __Ownable_init_unchained() internal initializer {... */\n    tag_513:\n        /* \"@openzeppelin/contracts-upgradeable/proxy/utils/Initializable.sol\":539:552  _initializing */\n      sload(0x00)\n      0x0100\n      swap1\n      div\n      0xff\n      and\n      dup1\n        /* \"@openzeppelin/contracts-upgradeable/proxy/utils/Initializable.sol\":539:569  _initializing || !_initialized */\n      tag_596\n      jumpi\n      pop\n        /* \"@openzeppelin/contracts-upgradeable/proxy/utils/Initializable.sol\":557:569  _initialized */\n      and(0xff, sload(0x00))\n        /* \"@openzeppelin/contracts-upgradeable/proxy/utils/Initializable.sol\":556:569  !_initialized */\n      iszero\n        /* \"@openzeppelin/contracts-upgradeable/proxy/utils/Initializable.sol\":539:569  _initializing || !_initialized */\n    tag_596:\n        /* \"@openzeppelin/contracts-upgradeable/proxy/utils/Initializable.sol\":531:620  require(_initializing || !_initialized, \"Initializable: contract is already initialized\") */\n      tag_597\n      jumpi\n      mload(0x40)\n      shl(0xe5, 0x461bcd)\n      dup2\n      mstore\n      0x04\n      add\n      tag_208\n      swap1\n      tag_442\n      jump\t// in\n    tag_597:\n        /* \"@openzeppelin/contracts-upgradeable/proxy/utils/Initializable.sol\":631:650  bool isTopLevelCall */\n      0x00\n        /* \"@openzeppelin/contracts-upgradeable/proxy/utils/Initializable.sol\":654:667  _initializing */\n      sload\n      0x0100\n      swap1\n      div\n      0xff\n      and\n        /* \"@openzeppelin/contracts-upgradeable/proxy/utils/Initializable.sol\":653:667  !_initializing */\n      iszero\n        /* \"@openzeppelin/contracts-upgradeable/proxy/utils/Initializable.sol\":677:775  if (isTopLevelCall) {... */\n      dup1\n      iszero\n      tag_599\n      jumpi\n        /* \"@openzeppelin/contracts-upgradeable/proxy/utils/Initializable.sol\":711:724  _initializing */\n      0x00\n        /* \"@openzeppelin/contracts-upgradeable/proxy/utils/Initializable.sol\":711:731  _initializing = true */\n      dup1\n      sload\n      not(0xff)\n      not(0xff00)\n      swap1\n      swap2\n      and\n      0x0100\n      or\n        /* \"@openzeppelin/contracts-upgradeable/proxy/utils/Initializable.sol\":745:764  _initialized = true */\n      and\n        /* \"@openzeppelin/contracts-upgradeable/proxy/utils/Initializable.sol\":727:731  true */\n      0x01\n        /* \"@openzeppelin/contracts-upgradeable/proxy/utils/Initializable.sol\":745:764  _initialized = true */\n      or\n      swap1\n      sstore\n        /* \"@openzeppelin/contracts-upgradeable/proxy/utils/Initializable.sol\":677:775  if (isTopLevelCall) {... */\n    tag_599:\n        /* \"@openzeppelin/contracts-upgradeable/access/OwnableUpgradeable.sol\":1187:1219  _transferOwnership(_msgSender()) */\n      tag_512\n        /* \"@openzeppelin/contracts-upgradeable/access/OwnableUpgradeable.sol\":1206:1218  _msgSender() */\n      tag_602\n        /* \"@openzeppelin/contracts-upgradeable/access/OwnableUpgradeable.sol\":1206:1216  _msgSender */\n      tag_230\n        /* \"@openzeppelin/contracts-upgradeable/access/OwnableUpgradeable.sol\":1206:1218  _msgSender() */\n      jump\t// in\n    tag_602:\n        /* \"@openzeppelin/contracts-upgradeable/access/OwnableUpgradeable.sol\":1187:1205  _transferOwnership */\n      tag_314\n        /* \"@openzeppelin/contracts-upgradeable/access/OwnableUpgradeable.sol\":1187:1219  _transferOwnership(_msgSender()) */\n      jump\t// in\n        /* \"@openzeppelin/contracts-upgradeable/utils/AddressUpgradeable.sol\":3525:3748  function functionCall(... */\n    tag_582:\n        /* \"@openzeppelin/contracts-upgradeable/utils/AddressUpgradeable.sol\":3658:3670  bytes memory */\n      0x60\n        /* \"@openzeppelin/contracts-upgradeable/utils/AddressUpgradeable.sol\":3689:3741  functionCallWithValue(target, data, 0, errorMessage) */\n      tag_605\n        /* \"@openzeppelin/contracts-upgradeable/utils/AddressUpgradeable.sol\":3711:3717  target */\n      dup5\n        /* \"@openzeppelin/contracts-upgradeable/utils/AddressUpgradeable.sol\":3719:3723  data */\n      dup5\n        /* \"@openzeppelin/contracts-upgradeable/utils/AddressUpgradeable.sol\":3725:3726  0 */\n      0x00\n        /* \"@openzeppelin/contracts-upgradeable/utils/AddressUpgradeable.sol\":3728:3740  errorMessage */\n      dup6\n        /* \"@openzeppelin/contracts-upgradeable/utils/AddressUpgradeable.sol\":3689:3710  functionCallWithValue */\n      tag_606\n        /* \"@openzeppelin/contracts-upgradeable/utils/AddressUpgradeable.sol\":3689:3741  functionCallWithValue(target, data, 0, errorMessage) */\n      jump\t// in\n    tag_605:\n        /* \"@openzeppelin/contracts-upgradeable/utils/AddressUpgradeable.sol\":3682:3741  return functionCallWithValue(target, data, 0, errorMessage) */\n      swap5\n        /* \"@openzeppelin/contracts-upgradeable/utils/AddressUpgradeable.sol\":3525:3748  function functionCall(... */\n      swap4\n      pop\n      pop\n      pop\n      pop\n      jump\t// out\n        /* \"@openzeppelin/contracts-upgradeable/utils/AddressUpgradeable.sol\":4612:5111  function functionCallWithValue(... */\n    tag_606:\n        /* \"@openzeppelin/contracts-upgradeable/utils/AddressUpgradeable.sol\":4777:4789  bytes memory */\n      0x60\n        /* \"@openzeppelin/contracts-upgradeable/utils/AddressUpgradeable.sol\":4834:4839  value */\n      dup3\n        /* \"@openzeppelin/contracts-upgradeable/utils/AddressUpgradeable.sol\":4809:4830  address(this).balance */\n      selfbalance\n        /* \"@openzeppelin/contracts-upgradeable/utils/AddressUpgradeable.sol\":4809:4839  address(this).balance >= value */\n      lt\n      iszero\n        /* \"@openzeppelin/contracts-upgradeable/utils/AddressUpgradeable.sol\":4801:4882  require(address(this).balance >= value, \"Address: insufficient balance for call\") */\n      tag_608\n      jumpi\n      mload(0x40)\n      shl(0xe5, 0x461bcd)\n      dup2\n      mstore\n      0x04\n      add\n      tag_208\n      swap1\n      tag_610\n      jump\t// in\n    tag_608:\n        /* \"@openzeppelin/contracts-upgradeable/utils/AddressUpgradeable.sol\":4900:4918  isContract(target) */\n      tag_611\n        /* \"@openzeppelin/contracts-upgradeable/utils/AddressUpgradeable.sol\":4911:4917  target */\n      dup6\n        /* \"@openzeppelin/contracts-upgradeable/utils/AddressUpgradeable.sol\":4900:4910  isContract */\n      tag_612\n        /* \"@openzeppelin/contracts-upgradeable/utils/AddressUpgradeable.sol\":4900:4918  isContract(target) */\n      jump\t// in\n    tag_611:\n        /* \"@openzeppelin/contracts-upgradeable/utils/AddressUpgradeable.sol\":4892:4952  require(isContract(target), \"Address: call to non-contract\") */\n      tag_613\n      jumpi\n      mload(0x40)\n      shl(0xe5, 0x461bcd)\n      dup2\n      mstore\n      0x04\n      add\n      tag_208\n      swap1\n      tag_615\n      jump\t// in\n    tag_613:\n        /* \"@openzeppelin/contracts-upgradeable/utils/AddressUpgradeable.sol\":4964:4976  bool success */\n      0x00\n        /* \"@openzeppelin/contracts-upgradeable/utils/AddressUpgradeable.sol\":4978:5001  bytes memory returndata */\n      dup1\n        /* \"@openzeppelin/contracts-upgradeable/utils/AddressUpgradeable.sol\":5005:5011  target */\n      dup7\n      sub(shl(0xa0, 0x01), 0x01)\n        /* \"@openzeppelin/contracts-upgradeable/utils/AddressUpgradeable.sol\":5005:5016  target.call */\n      and\n        /* \"@openzeppelin/contracts-upgradeable/utils/AddressUpgradeable.sol\":5024:5029  value */\n      dup6\n        /* \"@openzeppelin/contracts-upgradeable/utils/AddressUpgradeable.sol\":5031:5035  data */\n      dup8\n        /* \"@openzeppelin/contracts-upgradeable/utils/AddressUpgradeable.sol\":5005:5036  target.call{value: value}(data) */\n      mload(0x40)\n      tag_616\n      swap2\n      swap1\n      tag_617\n      jump\t// in\n    tag_616:\n      0x00\n      mload(0x40)\n      dup1\n      dup4\n      sub\n      dup2\n      dup6\n      dup8\n      gas\n      call\n      swap3\n      pop\n      pop\n      pop\n      returndatasize\n      dup1\n      0x00\n      dup2\n      eq\n      tag_620\n      jumpi\n      mload(0x40)\n      swap2\n      pop\n      and(add(returndatasize, 0x3f), not(0x1f))\n      dup3\n      add\n      0x40\n      mstore\n      returndatasize\n      dup3\n      mstore\n      returndatasize\n      0x00\n      0x20\n      dup5\n      add\n      returndatacopy\n      jump(tag_619)\n    tag_620:\n      0x60\n      swap2\n      pop\n    tag_619:\n      pop\n        /* \"@openzeppelin/contracts-upgradeable/utils/AddressUpgradeable.sol\":4963:5036  (bool success, bytes memory returndata) = target.call{value: value}(data) */\n      swap2\n      pop\n      swap2\n      pop\n        /* \"@openzeppelin/contracts-upgradeable/utils/AddressUpgradeable.sol\":5053:5104  verifyCallResult(success, returndata, errorMessage) */\n      tag_621\n        /* \"@openzeppelin/contracts-upgradeable/utils/AddressUpgradeable.sol\":5070:5077  success */\n      dup3\n        /* \"@openzeppelin/contracts-upgradeable/utils/AddressUpgradeable.sol\":5079:5089  returndata */\n      dup3\n        /* \"@openzeppelin/contracts-upgradeable/utils/AddressUpgradeable.sol\":5091:5103  errorMessage */\n      dup7\n        /* \"@openzeppelin/contracts-upgradeable/utils/AddressUpgradeable.sol\":5053:5069  verifyCallResult */\n      tag_622\n        /* \"@openzeppelin/contracts-upgradeable/utils/AddressUpgradeable.sol\":5053:5104  verifyCallResult(success, returndata, errorMessage) */\n      jump\t// in\n    tag_621:\n        /* \"@openzeppelin/contracts-upgradeable/utils/AddressUpgradeable.sol\":5046:5104  return verifyCallResult(success, returndata, errorMessage) */\n      swap8\n        /* \"@openzeppelin/contracts-upgradeable/utils/AddressUpgradeable.sol\":4612:5111  function functionCallWithValue(... */\n      swap7\n      pop\n      pop\n      pop\n      pop\n      pop\n      pop\n      pop\n      jump\t// out\n        /* \"@openzeppelin/contracts-upgradeable/utils/AddressUpgradeable.sol\":782:1159  function isContract(address account) internal view returns (bool) {... */\n    tag_612:\n        /* \"@openzeppelin/contracts-upgradeable/utils/AddressUpgradeable.sol\":1098:1118  extcodesize(account) */\n      extcodesize\n        /* \"@openzeppelin/contracts-upgradeable/utils/AddressUpgradeable.sol\":1144:1152  size > 0 */\n      iszero\n      iszero\n      swap1\n        /* \"@openzeppelin/contracts-upgradeable/utils/AddressUpgradeable.sol\":782:1159  function isContract(address account) internal view returns (bool) {... */\n      jump\t// out\n        /* \"@openzeppelin/contracts-upgradeable/utils/AddressUpgradeable.sol\":6275:6967  function verifyCallResult(... */\n    tag_622:\n        /* \"@openzeppelin/contracts-upgradeable/utils/AddressUpgradeable.sol\":6421:6433  bytes memory */\n      0x60\n        /* \"@openzeppelin/contracts-upgradeable/utils/AddressUpgradeable.sol\":6449:6456  success */\n      dup4\n        /* \"@openzeppelin/contracts-upgradeable/utils/AddressUpgradeable.sol\":6445:6961  if (success) {... */\n      iszero\n      tag_625\n      jumpi\n      pop\n        /* \"@openzeppelin/contracts-upgradeable/utils/AddressUpgradeable.sol\":6479:6489  returndata */\n      dup2\n        /* \"@openzeppelin/contracts-upgradeable/utils/AddressUpgradeable.sol\":6472:6489  return returndata */\n      jump(tag_236)\n        /* \"@openzeppelin/contracts-upgradeable/utils/AddressUpgradeable.sol\":6445:6961  if (success) {... */\n    tag_625:\n        /* \"@openzeppelin/contracts-upgradeable/utils/AddressUpgradeable.sol\":6590:6607  returndata.length */\n      dup3\n      mload\n        /* \"@openzeppelin/contracts-upgradeable/utils/AddressUpgradeable.sol\":6590:6611  returndata.length > 0 */\n      iszero\n        /* \"@openzeppelin/contracts-upgradeable/utils/AddressUpgradeable.sol\":6586:6951  if (returndata.length > 0) {... */\n      tag_627\n      jumpi\n        /* \"@openzeppelin/contracts-upgradeable/utils/AddressUpgradeable.sol\":6784:6794  returndata */\n      dup3\n        /* \"@openzeppelin/contracts-upgradeable/utils/AddressUpgradeable.sol\":6778:6795  mload(returndata) */\n      mload\n        /* \"@openzeppelin/contracts-upgradeable/utils/AddressUpgradeable.sol\":6844:6859  returndata_size */\n      dup1\n        /* \"@openzeppelin/contracts-upgradeable/utils/AddressUpgradeable.sol\":6831:6841  returndata */\n      dup5\n        /* \"@openzeppelin/contracts-upgradeable/utils/AddressUpgradeable.sol\":6827:6829  32 */\n      0x20\n        /* \"@openzeppelin/contracts-upgradeable/utils/AddressUpgradeable.sol\":6823:6842  add(32, returndata) */\n      add\n        /* \"@openzeppelin/contracts-upgradeable/utils/AddressUpgradeable.sol\":6816:6860  revert(add(32, returndata), returndata_size) */\n      revert\n        /* \"@openzeppelin/contracts-upgradeable/utils/AddressUpgradeable.sol\":6733:6878  {... */\n    tag_627:\n        /* \"@openzeppelin/contracts-upgradeable/utils/AddressUpgradeable.sol\":6923:6935  errorMessage */\n      dup2\n        /* \"@openzeppelin/contracts-upgradeable/utils/AddressUpgradeable.sol\":6916:6936  revert(errorMessage) */\n      mload(0x40)\n      shl(0xe5, 0x461bcd)\n      dup2\n      mstore\n      0x04\n      add\n      tag_208\n      swap2\n      swap1\n      tag_630\n      jump\t// in\n    tag_288:\n      mload(0x40)\n      dup1\n      0x0160\n      add\n      0x40\n      mstore\n      dup1\n      and(sub(shl(0xa0, 0x01), 0x01), 0x00)\n      dup2\n      mstore\n      0x20\n      add\n      0x00\n      dup2\n      mstore\n      0x20\n      add\n      0x60\n      dup2\n      mstore\n      0x20\n      add\n      0x00\n      dup2\n      mstore\n      0x20\n      add\n      0x00\n      dup2\n      mstore\n      0x20\n      add\n      0x00\n      dup2\n      mstore\n      0x20\n      add\n      0x00\n      dup2\n      mstore\n      0x20\n      add\n      0x00\n      dup2\n      mstore\n      0x20\n      add\n      0x00\n      dup2\n      mstore\n      0x20\n      add\n      0x00\n      dup2\n      mstore\n      0x20\n      add\n      0x00\n      dup2\n      mstore\n      pop\n      swap1\n      jump\t// out\n    tag_423:\n      dup3\n      dup1\n      sload\n      tag_631\n      swap1\n      tag_291\n      jump\t// in\n    tag_631:\n      swap1\n      0x00\n      mstore\n      keccak256(0x00, 0x20)\n      swap1\n      0x1f\n      add\n      0x20\n      swap1\n      div\n      dup2\n      add\n      swap3\n      dup3\n      tag_633\n      jumpi\n      0x00\n      dup6\n      sstore\n      jump(tag_636)\n    tag_633:\n      dup3\n      0x1f\n      lt\n      tag_634\n      jumpi\n      dup1\n      mload\n      not(0xff)\n      and\n      dup4\n      dup1\n      add\n      or\n      dup6\n      sstore\n      jump(tag_636)\n    tag_634:\n      dup3\n      dup1\n      add\n      0x01\n      add\n      dup6\n      sstore\n      dup3\n      iszero\n      tag_636\n      jumpi\n      swap2\n      dup3\n      add\n    tag_635:\n      dup3\n      dup2\n      gt\n      iszero\n      tag_636\n      jumpi\n      dup3\n      mload\n      dup3\n      sstore\n      swap2\n      0x20\n      add\n      swap2\n      swap1\n      0x01\n      add\n      swap1\n      jump(tag_635)\n    tag_636:\n      pop\n      tag_637\n      swap3\n      swap2\n      pop\n      tag_638\n      jump\t// in\n    tag_637:\n      pop\n      swap1\n      jump\t// out\n    tag_638:\n    tag_639:\n      dup1\n      dup3\n      gt\n      iszero\n      tag_637\n      jumpi\n      0x00\n      dup2\n      sstore\n      0x01\n      add\n      jump(tag_639)\n        /* \"#utility.yul\":14:152   */\n    tag_642:\n        /* \"#utility.yul\":84:104   */\n      dup1\n      calldataload\n        /* \"#utility.yul\":113:146   */\n      tag_289\n        /* \"#utility.yul\":84:104   */\n      dup2\n        /* \"#utility.yul\":113:146   */\n      tag_645\n      jump\t// in\n        /* \"#utility.yul\":157:826   */\n    tag_646:\n      0x00\n        /* \"#utility.yul\":268:271   */\n      dup3\n        /* \"#utility.yul\":261:265   */\n      0x1f\n        /* \"#utility.yul\":253:259   */\n      dup4\n        /* \"#utility.yul\":249:266   */\n      add\n        /* \"#utility.yul\":245:272   */\n      slt\n        /* \"#utility.yul\":235:237   */\n      tag_648\n      jumpi\n        /* \"#utility.yul\":290:295   */\n      dup1\n        /* \"#utility.yul\":283:288   */\n      dup2\n        /* \"#utility.yul\":276:296   */\n      revert\n        /* \"#utility.yul\":235:237   */\n    tag_648:\n        /* \"#utility.yul\":330:336   */\n      dup2\n        /* \"#utility.yul\":317:337   */\n      calldataload\n        /* \"#utility.yul\":356:360   */\n      0x20\n        /* \"#utility.yul\":380:443   */\n      tag_649\n        /* \"#utility.yul\":395:442   */\n      tag_650\n        /* \"#utility.yul\":439:441   */\n      dup4\n        /* \"#utility.yul\":395:442   */\n      tag_651\n      jump\t// in\n    tag_650:\n        /* \"#utility.yul\":380:443   */\n      tag_652\n      jump\t// in\n    tag_649:\n        /* \"#utility.yul\":477:492   */\n      dup3\n      dup2\n      mstore\n        /* \"#utility.yul\":508:520   */\n      dup2\n      dup2\n      add\n      swap1\n        /* \"#utility.yul\":540:555   */\n      dup6\n      dup4\n      add\n        /* \"#utility.yul\":573:578   */\n      dup6\n        /* \"#utility.yul\":587:797   */\n    tag_653:\n        /* \"#utility.yul\":601:603   */\n      dup6\n        /* \"#utility.yul\":598:599   */\n      dup2\n        /* \"#utility.yul\":595:604   */\n      lt\n        /* \"#utility.yul\":587:797   */\n      iszero\n      tag_655\n      jumpi\n        /* \"#utility.yul\":658:722   */\n      tag_656\n        /* \"#utility.yul\":718:721   */\n      dup10\n        /* \"#utility.yul\":713:715   */\n      dup7\n        /* \"#utility.yul\":706:709   */\n      dup5\n        /* \"#utility.yul\":693:710   */\n      calldataload\n        /* \"#utility.yul\":685:691   */\n      dup12\n        /* \"#utility.yul\":681:711   */\n      add\n        /* \"#utility.yul\":677:716   */\n      add\n        /* \"#utility.yul\":658:722   */\n      tag_657\n      jump\t// in\n    tag_656:\n        /* \"#utility.yul\":646:723   */\n      dup5\n      mstore\n        /* \"#utility.yul\":743:755   */\n      swap3\n      dup5\n      add\n      swap3\n        /* \"#utility.yul\":775:787   */\n      swap1\n      dup5\n      add\n      swap1\n        /* \"#utility.yul\":619:620   */\n      0x01\n        /* \"#utility.yul\":612:621   */\n      add\n        /* \"#utility.yul\":587:797   */\n      jump(tag_653)\n    tag_655:\n      pop\n        /* \"#utility.yul\":815:820   */\n      swap1\n      swap8\n        /* \"#utility.yul\":225:826   */\n      swap7\n      pop\n      pop\n      pop\n      pop\n      pop\n      pop\n      pop\n      jump\t// out\n        /* \"#utility.yul\":831:1501   */\n    tag_658:\n      0x00\n        /* \"#utility.yul\":943:946   */\n      dup3\n        /* \"#utility.yul\":936:940   */\n      0x1f\n        /* \"#utility.yul\":928:934   */\n      dup4\n        /* \"#utility.yul\":924:941   */\n      add\n        /* \"#utility.yul\":920:947   */\n      slt\n        /* \"#utility.yul\":910:912   */\n      tag_660\n      jumpi\n        /* \"#utility.yul\":965:970   */\n      dup1\n        /* \"#utility.yul\":958:963   */\n      dup2\n        /* \"#utility.yul\":951:971   */\n      revert\n        /* \"#utility.yul\":910:912   */\n    tag_660:\n        /* \"#utility.yul\":1005:1011   */\n      dup2\n        /* \"#utility.yul\":992:1012   */\n      calldataload\n        /* \"#utility.yul\":1031:1035   */\n      0x20\n        /* \"#utility.yul\":1055:1118   */\n      tag_661\n        /* \"#utility.yul\":1070:1117   */\n      tag_650\n        /* \"#utility.yul\":1114:1116   */\n      dup4\n        /* \"#utility.yul\":1070:1117   */\n      tag_651\n      jump\t// in\n        /* \"#utility.yul\":1055:1118   */\n    tag_661:\n        /* \"#utility.yul\":1152:1167   */\n      dup3\n      dup2\n      mstore\n        /* \"#utility.yul\":1183:1195   */\n      dup2\n      dup2\n      add\n      swap1\n        /* \"#utility.yul\":1215:1230   */\n      dup6\n      dup4\n      add\n        /* \"#utility.yul\":1248:1253   */\n      dup6\n        /* \"#utility.yul\":1262:1472   */\n    tag_663:\n        /* \"#utility.yul\":1276:1278   */\n      dup6\n        /* \"#utility.yul\":1273:1274   */\n      dup2\n        /* \"#utility.yul\":1270:1279   */\n      lt\n        /* \"#utility.yul\":1262:1472   */\n      iszero\n      tag_655\n      jumpi\n        /* \"#utility.yul\":1333:1397   */\n      tag_666\n        /* \"#utility.yul\":1393:1396   */\n      dup10\n        /* \"#utility.yul\":1388:1390   */\n      dup7\n        /* \"#utility.yul\":1381:1384   */\n      dup5\n        /* \"#utility.yul\":1368:1385   */\n      calldataload\n        /* \"#utility.yul\":1360:1366   */\n      dup12\n        /* \"#utility.yul\":1356:1386   */\n      add\n        /* \"#utility.yul\":1352:1391   */\n      add\n        /* \"#utility.yul\":1333:1397   */\n      tag_657\n      jump\t// in\n    tag_666:\n        /* \"#utility.yul\":1321:1398   */\n      dup5\n      mstore\n        /* \"#utility.yul\":1418:1430   */\n      swap3\n      dup5\n      add\n      swap3\n        /* \"#utility.yul\":1450:1462   */\n      swap1\n      dup5\n      add\n      swap1\n        /* \"#utility.yul\":1294:1295   */\n      0x01\n        /* \"#utility.yul\":1287:1296   */\n      add\n        /* \"#utility.yul\":1262:1472   */\n      jump(tag_663)\n        /* \"#utility.yul\":1506:2209   */\n    tag_667:\n      0x00\n        /* \"#utility.yul\":1619:1622   */\n      dup3\n        /* \"#utility.yul\":1612:1616   */\n      0x1f\n        /* \"#utility.yul\":1604:1610   */\n      dup4\n        /* \"#utility.yul\":1600:1617   */\n      add\n        /* \"#utility.yul\":1596:1623   */\n      slt\n        /* \"#utility.yul\":1586:1588   */\n      tag_669\n      jumpi\n        /* \"#utility.yul\":1641:1646   */\n      dup1\n        /* \"#utility.yul\":1634:1639   */\n      dup2\n        /* \"#utility.yul\":1627:1647   */\n      revert\n        /* \"#utility.yul\":1586:1588   */\n    tag_669:\n        /* \"#utility.yul\":1681:1687   */\n      dup2\n        /* \"#utility.yul\":1668:1688   */\n      calldataload\n        /* \"#utility.yul\":1707:1711   */\n      0x20\n        /* \"#utility.yul\":1731:1794   */\n      tag_670\n        /* \"#utility.yul\":1746:1793   */\n      tag_650\n        /* \"#utility.yul\":1790:1792   */\n      dup4\n        /* \"#utility.yul\":1746:1793   */\n      tag_651\n      jump\t// in\n        /* \"#utility.yul\":1731:1794   */\n    tag_670:\n        /* \"#utility.yul\":1828:1843   */\n      dup3\n      dup2\n      mstore\n        /* \"#utility.yul\":1859:1871   */\n      dup2\n      dup2\n      add\n      swap1\n        /* \"#utility.yul\":1891:1906   */\n      dup6\n      dup4\n      add\n        /* \"#utility.yul\":1937:1948   */\n      dup4\n      dup6\n      mul\n        /* \"#utility.yul\":1925:1949   */\n      dup8\n      add\n        /* \"#utility.yul\":1921:1954   */\n      dup5\n      add\n        /* \"#utility.yul\":1918:1960   */\n      dup9\n      lt\n        /* \"#utility.yul\":1915:1917   */\n      iszero\n      tag_672\n      jumpi\n        /* \"#utility.yul\":1977:1982   */\n      dup6\n        /* \"#utility.yul\":1970:1975   */\n      dup7\n        /* \"#utility.yul\":1963:1983   */\n      revert\n        /* \"#utility.yul\":1915:1917   */\n    tag_672:\n        /* \"#utility.yul\":2003:2008   */\n      dup6\n        /* \"#utility.yul\":2017:2180   */\n    tag_673:\n        /* \"#utility.yul\":2031:2033   */\n      dup6\n        /* \"#utility.yul\":2028:2029   */\n      dup2\n        /* \"#utility.yul\":2025:2034   */\n      lt\n        /* \"#utility.yul\":2017:2180   */\n      iszero\n      tag_655\n      jumpi\n        /* \"#utility.yul\":2088:2105   */\n      dup2\n      calldataload\n        /* \"#utility.yul\":2076:2106   */\n      dup5\n      mstore\n        /* \"#utility.yul\":2126:2138   */\n      swap3\n      dup5\n      add\n      swap3\n        /* \"#utility.yul\":2158:2170   */\n      swap1\n      dup5\n      add\n      swap1\n        /* \"#utility.yul\":2049:2050   */\n      0x01\n        /* \"#utility.yul\":2042:2051   */\n      add\n        /* \"#utility.yul\":2017:2180   */\n      jump(tag_673)\n        /* \"#utility.yul\":2214:2346   */\n    tag_676:\n        /* \"#utility.yul\":2281:2301   */\n      dup1\n      calldataload\n        /* \"#utility.yul\":2310:2340   */\n      tag_289\n        /* \"#utility.yul\":2281:2301   */\n      dup2\n        /* \"#utility.yul\":2310:2340   */\n      tag_679\n      jump\t// in\n        /* \"#utility.yul\":2351:2902   */\n    tag_657:\n      0x00\n        /* \"#utility.yul\":2448:2451   */\n      dup3\n        /* \"#utility.yul\":2441:2445   */\n      0x1f\n        /* \"#utility.yul\":2433:2439   */\n      dup4\n        /* \"#utility.yul\":2429:2446   */\n      add\n        /* \"#utility.yul\":2425:2452   */\n      slt\n        /* \"#utility.yul\":2415:2417   */\n      tag_681\n      jumpi\n        /* \"#utility.yul\":2470:2475   */\n      dup1\n        /* \"#utility.yul\":2463:2468   */\n      dup2\n        /* \"#utility.yul\":2456:2476   */\n      revert\n        /* \"#utility.yul\":2415:2417   */\n    tag_681:\n        /* \"#utility.yul\":2510:2516   */\n      dup2\n        /* \"#utility.yul\":2497:2517   */\n      calldataload\n        /* \"#utility.yul\":2536:2554   */\n      0xffffffffffffffff\n        /* \"#utility.yul\":2532:2534   */\n      dup2\n        /* \"#utility.yul\":2529:2555   */\n      gt\n        /* \"#utility.yul\":2526:2528   */\n      iszero\n      tag_683\n      jumpi\n        /* \"#utility.yul\":2558:2576   */\n      tag_683\n      tag_684\n      jump\t// in\n    tag_683:\n        /* \"#utility.yul\":2602:2656   */\n      tag_685\n        /* \"#utility.yul\":2644:2646   */\n      0x1f\n        /* \"#utility.yul\":2625:2638   */\n      dup3\n      add\n      not(0x1f)\n        /* \"#utility.yul\":2621:2648   */\n      and\n        /* \"#utility.yul\":2650:2654   */\n      0x20\n        /* \"#utility.yul\":2617:2655   */\n      add\n        /* \"#utility.yul\":2602:2656   */\n      tag_652\n      jump\t// in\n    tag_685:\n        /* \"#utility.yul\":2681:2683   */\n      dup2\n        /* \"#utility.yul\":2672:2679   */\n      dup2\n        /* \"#utility.yul\":2665:2684   */\n      mstore\n        /* \"#utility.yul\":2727:2730   */\n      dup5\n        /* \"#utility.yul\":2720:2724   */\n      0x20\n        /* \"#utility.yul\":2715:2717   */\n      dup4\n        /* \"#utility.yul\":2707:2713   */\n      dup7\n        /* \"#utility.yul\":2703:2718   */\n      add\n        /* \"#utility.yul\":2699:2725   */\n      add\n        /* \"#utility.yul\":2696:2731   */\n      gt\n        /* \"#utility.yul\":2693:2695   */\n      iszero\n      tag_686\n      jumpi\n        /* \"#utility.yul\":2748:2753   */\n      dup3\n        /* \"#utility.yul\":2741:2746   */\n      dup4\n        /* \"#utility.yul\":2734:2754   */\n      revert\n        /* \"#utility.yul\":2693:2695   */\n    tag_686:\n        /* \"#utility.yul\":2817:2819   */\n      dup2\n        /* \"#utility.yul\":2810:2814   */\n      0x20\n        /* \"#utility.yul\":2802:2808   */\n      dup6\n        /* \"#utility.yul\":2798:2815   */\n      add\n        /* \"#utility.yul\":2791:2795   */\n      0x20\n        /* \"#utility.yul\":2782:2789   */\n      dup4\n        /* \"#utility.yul\":2778:2796   */\n      add\n        /* \"#utility.yul\":2765:2820   */\n      calldatacopy\n        /* \"#utility.yul\":2840:2856   */\n      swap1\n      dup2\n      add\n        /* \"#utility.yul\":2858:2862   */\n      0x20\n        /* \"#utility.yul\":2836:2863   */\n      add\n        /* \"#utility.yul\":2829:2871   */\n      swap2\n      swap1\n      swap2\n      mstore\n        /* \"#utility.yul\":2844:2851   */\n      swap3\n        /* \"#utility.yul\":2405:2902   */\n      swap2\n      pop\n      pop\n      jump\t// out\n        /* \"#utility.yul\":2907:3166   */\n    tag_88:\n      0x00\n        /* \"#utility.yul\":3019:3021   */\n      0x20\n        /* \"#utility.yul\":3007:3016   */\n      dup3\n        /* \"#utility.yul\":2998:3005   */\n      dup5\n        /* \"#utility.yul\":2994:3017   */\n      sub\n        /* \"#utility.yul\":2990:3022   */\n      slt\n        /* \"#utility.yul\":2987:2989   */\n      iszero\n      tag_688\n      jumpi\n        /* \"#utility.yul\":3040:3046   */\n      dup1\n        /* \"#utility.yul\":3032:3038   */\n      dup2\n        /* \"#utility.yul\":3025:3047   */\n      revert\n        /* \"#utility.yul\":2987:2989   */\n    tag_688:\n        /* \"#utility.yul\":3084:3093   */\n      dup2\n        /* \"#utility.yul\":3071:3094   */\n      calldataload\n        /* \"#utility.yul\":3103:3136   */\n      tag_236\n        /* \"#utility.yul\":3130:3135   */\n      dup2\n        /* \"#utility.yul\":3103:3136   */\n      tag_645\n      jump\t// in\n        /* \"#utility.yul\":3171:3567   */\n    tag_58:\n      0x00\n      dup1\n        /* \"#utility.yul\":3297:3299   */\n      0x40\n        /* \"#utility.yul\":3285:3294   */\n      dup4\n        /* \"#utility.yul\":3276:3283   */\n      dup6\n        /* \"#utility.yul\":3272:3295   */\n      sub\n        /* \"#utility.yul\":3268:3300   */\n      slt\n        /* \"#utility.yul\":3265:3267   */\n      iszero\n      tag_691\n      jumpi\n        /* \"#utility.yul\":3318:3324   */\n      dup1\n        /* \"#utility.yul\":3310:3316   */\n      dup2\n        /* \"#utility.yul\":3303:3325   */\n      revert\n        /* \"#utility.yul\":3265:3267   */\n    tag_691:\n        /* \"#utility.yul\":3362:3371   */\n      dup3\n        /* \"#utility.yul\":3349:3372   */\n      calldataload\n        /* \"#utility.yul\":3381:3414   */\n      tag_692\n        /* \"#utility.yul\":3408:3413   */\n      dup2\n        /* \"#utility.yul\":3381:3414   */\n      tag_645\n      jump\t// in\n    tag_692:\n        /* \"#utility.yul\":3433:3438   */\n      swap2\n      pop\n        /* \"#utility.yul\":3490:3492   */\n      0x20\n        /* \"#utility.yul\":3475:3493   */\n      dup4\n      add\n        /* \"#utility.yul\":3462:3494   */\n      calldataload\n        /* \"#utility.yul\":3503:3535   */\n      tag_693\n        /* \"#utility.yul\":3462:3494   */\n      dup2\n        /* \"#utility.yul\":3503:3535   */\n      tag_679\n      jump\t// in\n    tag_693:\n        /* \"#utility.yul\":3554:3561   */\n      dup1\n        /* \"#utility.yul\":3544:3561   */\n      swap2\n      pop\n      pop\n        /* \"#utility.yul\":3255:3567   */\n      swap3\n      pop\n      swap3\n      swap1\n      pop\n      jump\t// out\n        /* \"#utility.yul\":3572:4323   */\n    tag_179:\n      0x00\n      dup1\n      0x00\n      dup1\n        /* \"#utility.yul\":3797:3800   */\n      0x80\n        /* \"#utility.yul\":3785:3794   */\n      dup6\n        /* \"#utility.yul\":3776:3783   */\n      dup8\n        /* \"#utility.yul\":3772:3795   */\n      sub\n        /* \"#utility.yul\":3768:3801   */\n      slt\n        /* \"#utility.yul\":3765:3767   */\n      iszero\n      tag_695\n      jumpi\n        /* \"#utility.yul\":3819:3825   */\n      dup2\n        /* \"#utility.yul\":3811:3817   */\n      dup3\n        /* \"#utility.yul\":3804:3826   */\n      revert\n        /* \"#utility.yul\":3765:3767   */\n    tag_695:\n        /* \"#utility.yul\":3863:3872   */\n      dup5\n        /* \"#utility.yul\":3850:3873   */\n      calldataload\n        /* \"#utility.yul\":3882:3915   */\n      tag_696\n        /* \"#utility.yul\":3909:3914   */\n      dup2\n        /* \"#utility.yul\":3882:3915   */\n      tag_645\n      jump\t// in\n    tag_696:\n        /* \"#utility.yul\":3934:3939   */\n      swap4\n      pop\n        /* \"#utility.yul\":3991:3993   */\n      0x20\n        /* \"#utility.yul\":3976:3994   */\n      dup6\n      add\n        /* \"#utility.yul\":3963:3995   */\n      calldataload\n        /* \"#utility.yul\":4004:4039   */\n      tag_697\n        /* \"#utility.yul\":3963:3995   */\n      dup2\n        /* \"#utility.yul\":4004:4039   */\n      tag_645\n      jump\t// in\n    tag_697:\n        /* \"#utility.yul\":4058:4065   */\n      swap3\n      pop\n        /* \"#utility.yul\":4117:4119   */\n      0x40\n        /* \"#utility.yul\":4102:4120   */\n      dup6\n      add\n        /* \"#utility.yul\":4089:4121   */\n      calldataload\n        /* \"#utility.yul\":4130:4165   */\n      tag_698\n        /* \"#utility.yul\":4089:4121   */\n      dup2\n        /* \"#utility.yul\":4130:4165   */\n      tag_645\n      jump\t// in\n    tag_698:\n        /* \"#utility.yul\":4184:4191   */\n      swap2\n      pop\n        /* \"#utility.yul\":4243:4245   */\n      0x60\n        /* \"#utility.yul\":4228:4246   */\n      dup6\n      add\n        /* \"#utility.yul\":4215:4247   */\n      calldataload\n        /* \"#utility.yul\":4256:4291   */\n      tag_699\n        /* \"#utility.yul\":4215:4247   */\n      dup2\n        /* \"#utility.yul\":4256:4291   */\n      tag_645\n      jump\t// in\n    tag_699:\n        /* \"#utility.yul\":3755:4323   */\n      swap4\n      swap7\n      swap3\n      swap6\n      pop\n      swap1\n      swap4\n      pop\n      pop\n      jump\t// out\n        /* \"#utility.yul\":4328:4655   */\n    tag_114:\n      0x00\n      dup1\n        /* \"#utility.yul\":4457:4459   */\n      0x40\n        /* \"#utility.yul\":4445:4454   */\n      dup4\n        /* \"#utility.yul\":4436:4443   */\n      dup6\n        /* \"#utility.yul\":4432:4455   */\n      sub\n        /* \"#utility.yul\":4428:4460   */\n      slt\n        /* \"#utility.yul\":4425:4427   */\n      iszero\n      tag_701\n      jumpi\n        /* \"#utility.yul\":4478:4484   */\n      dup2\n        /* \"#utility.yul\":4470:4476   */\n      dup3\n        /* \"#utility.yul\":4463:4485   */\n      revert\n        /* \"#utility.yul\":4425:4427   */\n    tag_701:\n        /* \"#utility.yul\":4522:4531   */\n      dup3\n        /* \"#utility.yul\":4509:4532   */\n      calldataload\n        /* \"#utility.yul\":4541:4574   */\n      tag_702\n        /* \"#utility.yul\":4568:4573   */\n      dup2\n        /* \"#utility.yul\":4541:4574   */\n      tag_645\n      jump\t// in\n    tag_702:\n        /* \"#utility.yul\":4593:4598   */\n      swap5\n        /* \"#utility.yul\":4645:4647   */\n      0x20\n        /* \"#utility.yul\":4630:4648   */\n      swap4\n      swap1\n      swap4\n      add\n        /* \"#utility.yul\":4617:4649   */\n      calldataload\n      swap4\n      pop\n      pop\n      pop\n        /* \"#utility.yul\":4415:4655   */\n      jump\t// out\n        /* \"#utility.yul\":4660:5124   */\n    tag_46:\n      0x00\n      dup1\n      0x00\n      dup1\n        /* \"#utility.yul\":4823:4826   */\n      0x80\n        /* \"#utility.yul\":4811:4820   */\n      dup6\n        /* \"#utility.yul\":4802:4809   */\n      dup8\n        /* \"#utility.yul\":4798:4821   */\n      sub\n        /* \"#utility.yul\":4794:4827   */\n      slt\n        /* \"#utility.yul\":4791:4793   */\n      iszero\n      tag_704\n      jumpi\n        /* \"#utility.yul\":4845:4851   */\n      dup4\n        /* \"#utility.yul\":4837:4843   */\n      dup5\n        /* \"#utility.yul\":4830:4852   */\n      revert\n        /* \"#utility.yul\":4791:4793   */\n    tag_704:\n        /* \"#utility.yul\":4889:4898   */\n      dup5\n        /* \"#utility.yul\":4876:4899   */\n      calldataload\n        /* \"#utility.yul\":4908:4941   */\n      tag_705\n        /* \"#utility.yul\":4935:4940   */\n      dup2\n        /* \"#utility.yul\":4908:4941   */\n      tag_645\n      jump\t// in\n    tag_705:\n        /* \"#utility.yul\":4960:4965   */\n      swap7\n        /* \"#utility.yul\":5012:5014   */\n      0x20\n        /* \"#utility.yul\":4997:5015   */\n      dup7\n      add\n        /* \"#utility.yul\":4984:5016   */\n      calldataload\n      swap7\n      pop\n        /* \"#utility.yul\":5063:5065   */\n      0x40\n        /* \"#utility.yul\":5048:5066   */\n      dup7\n      add\n        /* \"#utility.yul\":5035:5067   */\n      calldataload\n      swap6\n        /* \"#utility.yul\":5114:5116   */\n      0x60\n        /* \"#utility.yul\":5099:5117   */\n      add\n        /* \"#utility.yul\":5086:5118   */\n      calldataload\n      swap5\n      pop\n        /* \"#utility.yul\":4781:5124   */\n      swap3\n      pop\n      pop\n      pop\n      jump\t// out\n        /* \"#utility.yul\":5129:5386   */\n    tag_340:\n      0x00\n        /* \"#utility.yul\":5249:5251   */\n      0x20\n        /* \"#utility.yul\":5237:5246   */\n      dup3\n        /* \"#utility.yul\":5228:5235   */\n      dup5\n        /* \"#utility.yul\":5224:5247   */\n      sub\n        /* \"#utility.yul\":5220:5252   */\n      slt\n        /* \"#utility.yul\":5217:5219   */\n      iszero\n      tag_707\n      jumpi\n        /* \"#utility.yul\":5270:5276   */\n      dup1\n        /* \"#utility.yul\":5262:5268   */\n      dup2\n        /* \"#utility.yul\":5255:5277   */\n      revert\n        /* \"#utility.yul\":5217:5219   */\n    tag_707:\n        /* \"#utility.yul\":5307:5316   */\n      dup2\n        /* \"#utility.yul\":5301:5317   */\n      mload\n        /* \"#utility.yul\":5326:5356   */\n      tag_236\n        /* \"#utility.yul\":5350:5355   */\n      dup2\n        /* \"#utility.yul\":5326:5356   */\n      tag_679\n      jump\t// in\n        /* \"#utility.yul\":5391:6843   */\n    tag_93:\n      0x00\n      dup1\n      0x00\n      dup1\n      0x00\n      dup1\n        /* \"#utility.yul\":5729:5732   */\n      0xc0\n        /* \"#utility.yul\":5717:5726   */\n      dup8\n        /* \"#utility.yul\":5708:5715   */\n      dup10\n        /* \"#utility.yul\":5704:5727   */\n      sub\n        /* \"#utility.yul\":5700:5733   */\n      slt\n        /* \"#utility.yul\":5697:5699   */\n      iszero\n      tag_710\n      jumpi\n        /* \"#utility.yul\":5751:5757   */\n      dup4\n        /* \"#utility.yul\":5743:5749   */\n      dup5\n        /* \"#utility.yul\":5736:5758   */\n      revert\n        /* \"#utility.yul\":5697:5699   */\n    tag_710:\n        /* \"#utility.yul\":5779:5807   */\n      tag_711\n        /* \"#utility.yul\":5797:5806   */\n      dup8\n        /* \"#utility.yul\":5779:5807   */\n      tag_676\n      jump\t// in\n    tag_711:\n        /* \"#utility.yul\":5769:5807   */\n      swap6\n      pop\n        /* \"#utility.yul\":5858:5860   */\n      0x20\n        /* \"#utility.yul\":5847:5856   */\n      dup8\n        /* \"#utility.yul\":5843:5861   */\n      add\n        /* \"#utility.yul\":5830:5862   */\n      calldataload\n        /* \"#utility.yul\":5881:5899   */\n      0xffffffffffffffff\n        /* \"#utility.yul\":5922:5924   */\n      dup1\n        /* \"#utility.yul\":5914:5920   */\n      dup3\n        /* \"#utility.yul\":5911:5925   */\n      gt\n        /* \"#utility.yul\":5908:5910   */\n      iszero\n      tag_712\n      jumpi\n        /* \"#utility.yul\":5943:5949   */\n      dup6\n        /* \"#utility.yul\":5935:5941   */\n      dup7\n        /* \"#utility.yul\":5928:5950   */\n      revert\n        /* \"#utility.yul\":5908:5910   */\n    tag_712:\n        /* \"#utility.yul\":5971:6038   */\n      tag_713\n        /* \"#utility.yul\":6030:6037   */\n      dup11\n        /* \"#utility.yul\":6021:6027   */\n      dup4\n        /* \"#utility.yul\":6010:6019   */\n      dup12\n        /* \"#utility.yul\":6006:6028   */\n      add\n        /* \"#utility.yul\":5971:6038   */\n      tag_667\n      jump\t// in\n    tag_713:\n        /* \"#utility.yul\":5961:6038   */\n      swap7\n      pop\n        /* \"#utility.yul\":6091:6093   */\n      0x40\n        /* \"#utility.yul\":6080:6089   */\n      dup10\n        /* \"#utility.yul\":6076:6094   */\n      add\n        /* \"#utility.yul\":6063:6095   */\n      calldataload\n        /* \"#utility.yul\":6047:6095   */\n      swap2\n      pop\n        /* \"#utility.yul\":6120:6122   */\n      dup1\n        /* \"#utility.yul\":6110:6118   */\n      dup3\n        /* \"#utility.yul\":6107:6123   */\n      gt\n        /* \"#utility.yul\":6104:6106   */\n      iszero\n      tag_714\n      jumpi\n        /* \"#utility.yul\":6141:6147   */\n      dup6\n        /* \"#utility.yul\":6133:6139   */\n      dup7\n        /* \"#utility.yul\":6126:6148   */\n      revert\n        /* \"#utility.yul\":6104:6106   */\n    tag_714:\n        /* \"#utility.yul\":6169:6238   */\n      tag_715\n        /* \"#utility.yul\":6230:6237   */\n      dup11\n        /* \"#utility.yul\":6219:6227   */\n      dup4\n        /* \"#utility.yul\":6208:6217   */\n      dup12\n        /* \"#utility.yul\":6204:6228   */\n      add\n        /* \"#utility.yul\":6169:6238   */\n      tag_667\n      jump\t// in\n    tag_715:\n        /* \"#utility.yul\":6159:6238   */\n      swap6\n      pop\n        /* \"#utility.yul\":6291:6293   */\n      0x60\n        /* \"#utility.yul\":6280:6289   */\n      dup10\n        /* \"#utility.yul\":6276:6294   */\n      add\n        /* \"#utility.yul\":6263:6295   */\n      calldataload\n        /* \"#utility.yul\":6247:6295   */\n      swap2\n      pop\n        /* \"#utility.yul\":6320:6322   */\n      dup1\n        /* \"#utility.yul\":6310:6318   */\n      dup3\n        /* \"#utility.yul\":6307:6323   */\n      gt\n        /* \"#utility.yul\":6304:6306   */\n      iszero\n      tag_716\n      jumpi\n        /* \"#utility.yul\":6341:6347   */\n      dup4\n        /* \"#utility.yul\":6333:6339   */\n      dup5\n        /* \"#utility.yul\":6326:6348   */\n      revert\n        /* \"#utility.yul\":6304:6306   */\n    tag_716:\n        /* \"#utility.yul\":6369:6437   */\n      tag_717\n        /* \"#utility.yul\":6429:6436   */\n      dup11\n        /* \"#utility.yul\":6418:6426   */\n      dup4\n        /* \"#utility.yul\":6407:6416   */\n      dup12\n        /* \"#utility.yul\":6403:6427   */\n      add\n        /* \"#utility.yul\":6369:6437   */\n      tag_658\n      jump\t// in\n    tag_717:\n        /* \"#utility.yul\":6359:6437   */\n      swap5\n      pop\n        /* \"#utility.yul\":6490:6493   */\n      0x80\n        /* \"#utility.yul\":6479:6488   */\n      dup10\n        /* \"#utility.yul\":6475:6494   */\n      add\n        /* \"#utility.yul\":6462:6495   */\n      calldataload\n        /* \"#utility.yul\":6446:6495   */\n      swap2\n      pop\n        /* \"#utility.yul\":6520:6522   */\n      dup1\n        /* \"#utility.yul\":6510:6518   */\n      dup3\n        /* \"#utility.yul\":6507:6523   */\n      gt\n        /* \"#utility.yul\":6504:6506   */\n      iszero\n      tag_718\n      jumpi\n        /* \"#utility.yul\":6541:6547   */\n      dup4\n        /* \"#utility.yul\":6533:6539   */\n      dup5\n        /* \"#utility.yul\":6526:6548   */\n      revert\n        /* \"#utility.yul\":6504:6506   */\n    tag_718:\n        /* \"#utility.yul\":6569:6638   */\n      tag_719\n        /* \"#utility.yul\":6630:6637   */\n      dup11\n        /* \"#utility.yul\":6619:6627   */\n      dup4\n        /* \"#utility.yul\":6608:6617   */\n      dup12\n        /* \"#utility.yul\":6604:6628   */\n      add\n        /* \"#utility.yul\":6569:6638   */\n      tag_667\n      jump\t// in\n    tag_719:\n        /* \"#utility.yul\":6559:6638   */\n      swap4\n      pop\n        /* \"#utility.yul\":6691:6694   */\n      0xa0\n        /* \"#utility.yul\":6680:6689   */\n      dup10\n        /* \"#utility.yul\":6676:6695   */\n      add\n        /* \"#utility.yul\":6663:6696   */\n      calldataload\n        /* \"#utility.yul\":6647:6696   */\n      swap2\n      pop\n        /* \"#utility.yul\":6721:6723   */\n      dup1\n        /* \"#utility.yul\":6711:6719   */\n      dup3\n        /* \"#utility.yul\":6708:6724   */\n      gt\n        /* \"#utility.yul\":6705:6707   */\n      iszero\n      tag_720\n      jumpi\n        /* \"#utility.yul\":6742:6748   */\n      dup3\n        /* \"#utility.yul\":6734:6740   */\n      dup4\n        /* \"#utility.yul\":6727:6749   */\n      revert\n        /* \"#utility.yul\":6705:6707   */\n    tag_720:\n      pop\n        /* \"#utility.yul\":6770:6837   */\n      tag_721\n        /* \"#utility.yul\":6829:6836   */\n      dup10\n        /* \"#utility.yul\":6818:6826   */\n      dup3\n        /* \"#utility.yul\":6807:6816   */\n      dup11\n        /* \"#utility.yul\":6803:6827   */\n      add\n        /* \"#utility.yul\":6770:6837   */\n      tag_646\n      jump\t// in\n    tag_721:\n        /* \"#utility.yul\":6760:6837   */\n      swap2\n      pop\n      pop\n        /* \"#utility.yul\":5687:6843   */\n      swap3\n      swap6\n      pop\n      swap3\n      swap6\n      pop\n      swap3\n      swap6\n      jump\t// out\n        /* \"#utility.yul\":6848:7760   */\n    tag_107:\n      0x00\n      dup1\n      0x00\n      dup1\n      0x00\n      dup1\n        /* \"#utility.yul\":7061:7064   */\n      0xc0\n        /* \"#utility.yul\":7049:7058   */\n      dup8\n        /* \"#utility.yul\":7040:7047   */\n      dup10\n        /* \"#utility.yul\":7036:7059   */\n      sub\n        /* \"#utility.yul\":7032:7065   */\n      slt\n        /* \"#utility.yul\":7029:7031   */\n      iszero\n      tag_723\n      jumpi\n        /* \"#utility.yul\":7083:7089   */\n      dup4\n        /* \"#utility.yul\":7075:7081   */\n      dup5\n        /* \"#utility.yul\":7068:7090   */\n      revert\n        /* \"#utility.yul\":7029:7031   */\n    tag_723:\n        /* \"#utility.yul\":7127:7136   */\n      dup7\n        /* \"#utility.yul\":7114:7137   */\n      calldataload\n        /* \"#utility.yul\":7146:7176   */\n      tag_724\n        /* \"#utility.yul\":7170:7175   */\n      dup2\n        /* \"#utility.yul\":7146:7176   */\n      tag_679\n      jump\t// in\n    tag_724:\n        /* \"#utility.yul\":7195:7200   */\n      swap6\n      pop\n        /* \"#utility.yul\":7247:7249   */\n      0x20\n        /* \"#utility.yul\":7232:7250   */\n      dup8\n      add\n        /* \"#utility.yul\":7219:7251   */\n      calldataload\n      swap5\n      pop\n        /* \"#utility.yul\":7298:7300   */\n      0x40\n        /* \"#utility.yul\":7283:7301   */\n      dup8\n      add\n        /* \"#utility.yul\":7270:7302   */\n      calldataload\n      swap4\n      pop\n        /* \"#utility.yul\":7353:7355   */\n      0x60\n        /* \"#utility.yul\":7338:7356   */\n      dup8\n      add\n        /* \"#utility.yul\":7325:7357   */\n      calldataload\n        /* \"#utility.yul\":7376:7394   */\n      0xffffffffffffffff\n        /* \"#utility.yul\":7406:7420   */\n      dup1\n      dup3\n      gt\n        /* \"#utility.yul\":7403:7405   */\n      iszero\n      tag_725\n      jumpi\n        /* \"#utility.yul\":7438:7444   */\n      dup4\n        /* \"#utility.yul\":7430:7436   */\n      dup5\n        /* \"#utility.yul\":7423:7445   */\n      revert\n        /* \"#utility.yul\":7403:7405   */\n    tag_725:\n        /* \"#utility.yul\":7466:7517   */\n      tag_726\n        /* \"#utility.yul\":7509:7516   */\n      dup11\n        /* \"#utility.yul\":7500:7506   */\n      dup4\n        /* \"#utility.yul\":7489:7498   */\n      dup12\n        /* \"#utility.yul\":7485:7507   */\n      add\n        /* \"#utility.yul\":7466:7517   */\n      tag_657\n      jump\t// in\n    tag_726:\n        /* \"#utility.yul\":7456:7517   */\n      swap5\n      pop\n        /* \"#utility.yul\":7564:7567   */\n      0x80\n        /* \"#utility.yul\":7553:7562   */\n      dup10\n        /* \"#utility.yul\":7549:7568   */\n      add\n        /* \"#utility.yul\":7536:7569   */\n      calldataload\n        /* \"#utility.yul\":7526:7569   */\n      swap4\n      pop\n        /* \"#utility.yul\":7622:7625   */\n      0xa0\n        /* \"#utility.yul\":7611:7620   */\n      dup10\n        /* \"#utility.yul\":7607:7626   */\n      add\n        /* \"#utility.yul\":7594:7627   */\n      calldataload\n        /* \"#utility.yul\":7578:7627   */\n      swap2\n      pop\n        /* \"#utility.yul\":7652:7654   */\n      dup1\n        /* \"#utility.yul\":7642:7650   */\n      dup3\n        /* \"#utility.yul\":7639:7655   */\n      gt\n        /* \"#utility.yul\":7636:7638   */\n      iszero\n      tag_727\n      jumpi\n        /* \"#utility.yul\":7673:7679   */\n      dup3\n        /* \"#utility.yul\":7665:7671   */\n      dup4\n        /* \"#utility.yul\":7658:7680   */\n      revert\n        /* \"#utility.yul\":7636:7638   */\n    tag_727:\n      pop\n        /* \"#utility.yul\":7701:7754   */\n      tag_721\n        /* \"#utility.yul\":7746:7753   */\n      dup10\n        /* \"#utility.yul\":7735:7743   */\n      dup3\n        /* \"#utility.yul\":7724:7733   */\n      dup11\n        /* \"#utility.yul\":7720:7744   */\n      add\n        /* \"#utility.yul\":7701:7754   */\n      tag_657\n      jump\t// in\n        /* \"#utility.yul\":7765:8746   */\n    tag_137:\n      0x00\n      dup1\n      0x00\n      dup1\n      0x00\n      dup1\n      0x00\n        /* \"#utility.yul\":7995:7998   */\n      0xe0\n        /* \"#utility.yul\":7983:7992   */\n      dup9\n        /* \"#utility.yul\":7974:7981   */\n      dup11\n        /* \"#utility.yul\":7970:7993   */\n      sub\n        /* \"#utility.yul\":7966:7999   */\n      slt\n        /* \"#utility.yul\":7963:7965   */\n      iszero\n      tag_730\n      jumpi\n        /* \"#utility.yul\":8017:8023   */\n      dup5\n        /* \"#utility.yul\":8009:8015   */\n      dup6\n        /* \"#utility.yul\":8002:8024   */\n      revert\n        /* \"#utility.yul\":7963:7965   */\n    tag_730:\n        /* \"#utility.yul\":8061:8070   */\n      dup8\n        /* \"#utility.yul\":8048:8071   */\n      calldataload\n        /* \"#utility.yul\":8080:8110   */\n      tag_731\n        /* \"#utility.yul\":8104:8109   */\n      dup2\n        /* \"#utility.yul\":8080:8110   */\n      tag_679\n      jump\t// in\n    tag_731:\n        /* \"#utility.yul\":8129:8134   */\n      swap7\n      pop\n        /* \"#utility.yul\":8181:8183   */\n      0x20\n        /* \"#utility.yul\":8166:8184   */\n      dup9\n      add\n        /* \"#utility.yul\":8153:8185   */\n      calldataload\n      swap6\n      pop\n        /* \"#utility.yul\":8232:8234   */\n      0x40\n        /* \"#utility.yul\":8217:8235   */\n      dup9\n      add\n        /* \"#utility.yul\":8204:8236   */\n      calldataload\n      swap5\n      pop\n        /* \"#utility.yul\":8287:8289   */\n      0x60\n        /* \"#utility.yul\":8272:8290   */\n      dup9\n      add\n        /* \"#utility.yul\":8259:8291   */\n      calldataload\n        /* \"#utility.yul\":8310:8328   */\n      0xffffffffffffffff\n        /* \"#utility.yul\":8340:8354   */\n      dup1\n      dup3\n      gt\n        /* \"#utility.yul\":8337:8339   */\n      iszero\n      tag_732\n      jumpi\n        /* \"#utility.yul\":8372:8378   */\n      dup3\n        /* \"#utility.yul\":8364:8370   */\n      dup4\n        /* \"#utility.yul\":8357:8379   */\n      revert\n        /* \"#utility.yul\":8337:8339   */\n    tag_732:\n        /* \"#utility.yul\":8400:8451   */\n      tag_733\n        /* \"#utility.yul\":8443:8450   */\n      dup12\n        /* \"#utility.yul\":8434:8440   */\n      dup4\n        /* \"#utility.yul\":8423:8432   */\n      dup13\n        /* \"#utility.yul\":8419:8441   */\n      add\n        /* \"#utility.yul\":8400:8451   */\n      tag_657\n      jump\t// in\n    tag_733:\n        /* \"#utility.yul\":8390:8451   */\n      swap6\n      pop\n        /* \"#utility.yul\":8498:8501   */\n      0x80\n        /* \"#utility.yul\":8487:8496   */\n      dup11\n        /* \"#utility.yul\":8483:8502   */\n      add\n        /* \"#utility.yul\":8470:8503   */\n      calldataload\n        /* \"#utility.yul\":8460:8503   */\n      swap5\n      pop\n        /* \"#utility.yul\":8556:8559   */\n      0xa0\n        /* \"#utility.yul\":8545:8554   */\n      dup11\n        /* \"#utility.yul\":8541:8560   */\n      add\n        /* \"#utility.yul\":8528:8561   */\n      calldataload\n        /* \"#utility.yul\":8512:8561   */\n      swap2\n      pop\n        /* \"#utility.yul\":8586:8588   */\n      dup1\n        /* \"#utility.yul\":8576:8584   */\n      dup3\n        /* \"#utility.yul\":8573:8589   */\n      gt\n        /* \"#utility.yul\":8570:8572   */\n      iszero\n      tag_734\n      jumpi\n        /* \"#utility.yul\":8607:8613   */\n      dup3\n        /* \"#utility.yul\":8599:8605   */\n      dup4\n        /* \"#utility.yul\":8592:8614   */\n      revert\n        /* \"#utility.yul\":8570:8572   */\n    tag_734:\n      pop\n        /* \"#utility.yul\":8635:8688   */\n      tag_735\n        /* \"#utility.yul\":8680:8687   */\n      dup11\n        /* \"#utility.yul\":8669:8677   */\n      dup3\n        /* \"#utility.yul\":8658:8667   */\n      dup12\n        /* \"#utility.yul\":8654:8678   */\n      add\n        /* \"#utility.yul\":8635:8688   */\n      tag_657\n      jump\t// in\n    tag_735:\n        /* \"#utility.yul\":8625:8688   */\n      swap3\n      pop\n      pop\n        /* \"#utility.yul\":8735:8738   */\n      0xc0\n        /* \"#utility.yul\":8724:8733   */\n      dup9\n        /* \"#utility.yul\":8720:8739   */\n      add\n        /* \"#utility.yul\":8707:8740   */\n      calldataload\n        /* \"#utility.yul\":8697:8740   */\n      swap1\n      pop\n        /* \"#utility.yul\":7953:8746   */\n      swap3\n      swap6\n      swap9\n      swap2\n      swap5\n      swap8\n      pop\n      swap3\n      swap6\n      pop\n      jump\t// out\n        /* \"#utility.yul\":8751:9870   */\n    tag_153:\n      0x00\n      dup1\n      0x00\n      dup1\n      0x00\n      dup1\n      0x00\n      dup1\n      0x00\n        /* \"#utility.yul\":9015:9018   */\n      0x0120\n        /* \"#utility.yul\":9003:9012   */\n      dup11\n        /* \"#utility.yul\":8994:9001   */\n      dup13\n        /* \"#utility.yul\":8990:9013   */\n      sub\n        /* \"#utility.yul\":8986:9019   */\n      slt\n        /* \"#utility.yul\":8983:8985   */\n      iszero\n      tag_737\n      jumpi\n        /* \"#utility.yul\":9037:9043   */\n      dup3\n        /* \"#utility.yul\":9029:9035   */\n      dup4\n        /* \"#utility.yul\":9022:9044   */\n      revert\n        /* \"#utility.yul\":8983:8985   */\n    tag_737:\n        /* \"#utility.yul\":9081:9090   */\n      dup10\n        /* \"#utility.yul\":9068:9091   */\n      calldataload\n        /* \"#utility.yul\":9100:9130   */\n      tag_738\n        /* \"#utility.yul\":9124:9129   */\n      dup2\n        /* \"#utility.yul\":9100:9130   */\n      tag_679\n      jump\t// in\n    tag_738:\n        /* \"#utility.yul\":9149:9154   */\n      swap9\n      pop\n        /* \"#utility.yul\":9201:9203   */\n      0x20\n        /* \"#utility.yul\":9186:9204   */\n      dup11\n      add\n        /* \"#utility.yul\":9173:9205   */\n      calldataload\n      swap8\n      pop\n        /* \"#utility.yul\":9252:9254   */\n      0x40\n        /* \"#utility.yul\":9237:9255   */\n      dup11\n      add\n        /* \"#utility.yul\":9224:9256   */\n      calldataload\n      swap7\n      pop\n        /* \"#utility.yul\":9303:9305   */\n      0x60\n        /* \"#utility.yul\":9288:9306   */\n      dup11\n      add\n        /* \"#utility.yul\":9275:9307   */\n      calldataload\n      swap6\n      pop\n        /* \"#utility.yul\":9354:9357   */\n      0x80\n        /* \"#utility.yul\":9339:9358   */\n      dup11\n      add\n        /* \"#utility.yul\":9326:9359   */\n      calldataload\n      swap5\n      pop\n        /* \"#utility.yul\":9410:9413   */\n      0xa0\n        /* \"#utility.yul\":9395:9414   */\n      dup11\n      add\n        /* \"#utility.yul\":9382:9415   */\n      calldataload\n        /* \"#utility.yul\":9434:9452   */\n      0xffffffffffffffff\n        /* \"#utility.yul\":9464:9478   */\n      dup1\n      dup3\n      gt\n        /* \"#utility.yul\":9461:9463   */\n      iszero\n      tag_739\n      jumpi\n        /* \"#utility.yul\":9496:9502   */\n      dup5\n        /* \"#utility.yul\":9488:9494   */\n      dup6\n        /* \"#utility.yul\":9481:9503   */\n      revert\n        /* \"#utility.yul\":9461:9463   */\n    tag_739:\n        /* \"#utility.yul\":9524:9575   */\n      tag_740\n        /* \"#utility.yul\":9567:9574   */\n      dup14\n        /* \"#utility.yul\":9558:9564   */\n      dup4\n        /* \"#utility.yul\":9547:9556   */\n      dup15\n        /* \"#utility.yul\":9543:9565   */\n      add\n        /* \"#utility.yul\":9524:9575   */\n      tag_657\n      jump\t// in\n    tag_740:\n        /* \"#utility.yul\":9514:9575   */\n      swap6\n      pop\n        /* \"#utility.yul\":9622:9625   */\n      0xc0\n        /* \"#utility.yul\":9611:9620   */\n      dup13\n        /* \"#utility.yul\":9607:9626   */\n      add\n        /* \"#utility.yul\":9594:9627   */\n      calldataload\n        /* \"#utility.yul\":9584:9627   */\n      swap5\n      pop\n        /* \"#utility.yul\":9674:9677   */\n      0xe0\n        /* \"#utility.yul\":9663:9672   */\n      dup13\n        /* \"#utility.yul\":9659:9678   */\n      add\n        /* \"#utility.yul\":9646:9679   */\n      calldataload\n        /* \"#utility.yul\":9636:9679   */\n      swap4\n      pop\n        /* \"#utility.yul\":9732:9735   */\n      0x0100\n        /* \"#utility.yul\":9721:9730   */\n      dup13\n        /* \"#utility.yul\":9717:9736   */\n      add\n        /* \"#utility.yul\":9704:9737   */\n      calldataload\n        /* \"#utility.yul\":9688:9737   */\n      swap2\n      pop\n        /* \"#utility.yul\":9762:9764   */\n      dup1\n        /* \"#utility.yul\":9752:9760   */\n      dup3\n        /* \"#utility.yul\":9749:9765   */\n      gt\n        /* \"#utility.yul\":9746:9748   */\n      iszero\n      tag_741\n      jumpi\n        /* \"#utility.yul\":9783:9789   */\n      dup3\n        /* \"#utility.yul\":9775:9781   */\n      dup4\n        /* \"#utility.yul\":9768:9790   */\n      revert\n        /* \"#utility.yul\":9746:9748   */\n    tag_741:\n      pop\n        /* \"#utility.yul\":9811:9864   */\n      tag_742\n        /* \"#utility.yul\":9856:9863   */\n      dup13\n        /* \"#utility.yul\":9845:9853   */\n      dup3\n        /* \"#utility.yul\":9834:9843   */\n      dup14\n        /* \"#utility.yul\":9830:9854   */\n      add\n        /* \"#utility.yul\":9811:9864   */\n      tag_657\n      jump\t// in\n    tag_742:\n        /* \"#utility.yul\":9801:9864   */\n      swap2\n      pop\n      pop\n        /* \"#utility.yul\":8973:9870   */\n      swap3\n      swap6\n      swap9\n      pop\n      swap3\n      swap6\n      swap9\n      pop\n      swap3\n      swap6\n      swap9\n      jump\t// out\n        /* \"#utility.yul\":9875:10065   */\n    tag_52:\n      0x00\n        /* \"#utility.yul\":9987:9989   */\n      0x20\n        /* \"#utility.yul\":9975:9984   */\n      dup3\n        /* \"#utility.yul\":9966:9973   */\n      dup5\n        /* \"#utility.yul\":9962:9985   */\n      sub\n        /* \"#utility.yul\":9958:9990   */\n      slt\n        /* \"#utility.yul\":9955:9957   */\n      iszero\n      tag_744\n      jumpi\n        /* \"#utility.yul\":10008:10014   */\n      dup1\n        /* \"#utility.yul\":10000:10006   */\n      dup2\n        /* \"#utility.yul\":9993:10015   */\n      revert\n        /* \"#utility.yul\":9955:9957   */\n    tag_744:\n      pop\n        /* \"#utility.yul\":10036:10059   */\n      calldataload\n      swap2\n        /* \"#utility.yul\":9945:10065   */\n      swap1\n      pop\n      jump\t// out\n        /* \"#utility.yul\":10070:10264   */\n    tag_406:\n      0x00\n        /* \"#utility.yul\":10193:10195   */\n      0x20\n        /* \"#utility.yul\":10181:10190   */\n      dup3\n        /* \"#utility.yul\":10172:10179   */\n      dup5\n        /* \"#utility.yul\":10168:10191   */\n      sub\n        /* \"#utility.yul\":10164:10196   */\n      slt\n        /* \"#utility.yul\":10161:10163   */\n      iszero\n      tag_746\n      jumpi\n        /* \"#utility.yul\":10214:10220   */\n      dup1\n        /* \"#utility.yul\":10206:10212   */\n      dup2\n        /* \"#utility.yul\":10199:10221   */\n      revert\n        /* \"#utility.yul\":10161:10163   */\n    tag_746:\n      pop\n        /* \"#utility.yul\":10242:10258   */\n      mload\n      swap2\n        /* \"#utility.yul\":10151:10264   */\n      swap1\n      pop\n      jump\t// out\n        /* \"#utility.yul\":10269:11378   */\n    tag_183:\n      0x00\n      dup1\n      0x00\n      dup1\n      0x00\n      dup1\n      0x00\n      dup1\n      0x00\n      dup1\n      0x00\n      dup1\n        /* \"#utility.yul\":10580:10583   */\n      0x0180\n        /* \"#utility.yul\":10568:10577   */\n      dup14\n        /* \"#utility.yul\":10559:10566   */\n      dup16\n        /* \"#utility.yul\":10555:10578   */\n      sub\n        /* \"#utility.yul\":10551:10584   */\n      slt\n        /* \"#utility.yul\":10548:10550   */\n      iszero\n      tag_748\n      jumpi\n        /* \"#utility.yul\":10602:10608   */\n      dup6\n        /* \"#utility.yul\":10594:10600   */\n      dup7\n        /* \"#utility.yul\":10587:10609   */\n      revert\n        /* \"#utility.yul\":10548:10550   */\n    tag_748:\n        /* \"#utility.yul\":10643:10652   */\n      dup13\n        /* \"#utility.yul\":10630:10653   */\n      calldataload\n        /* \"#utility.yul\":10620:10653   */\n      swap12\n      pop\n        /* \"#utility.yul\":10672:10712   */\n      tag_749\n        /* \"#utility.yul\":10708:10710   */\n      0x20\n        /* \"#utility.yul\":10697:10706   */\n      dup15\n        /* \"#utility.yul\":10693:10711   */\n      add\n        /* \"#utility.yul\":10672:10712   */\n      tag_642\n      jump\t// in\n    tag_749:\n        /* \"#utility.yul\":10662:10712   */\n      swap11\n      pop\n        /* \"#utility.yul\":10759:10761   */\n      0x40\n        /* \"#utility.yul\":10748:10757   */\n      dup14\n        /* \"#utility.yul\":10744:10762   */\n      add\n        /* \"#utility.yul\":10731:10763   */\n      calldataload\n        /* \"#utility.yul\":10721:10763   */\n      swap10\n      pop\n        /* \"#utility.yul\":10812:10830   */\n      0xffffffffffffffff\n        /* \"#utility.yul\":10806:10808   */\n      0x60\n        /* \"#utility.yul\":10795:10804   */\n      dup15\n        /* \"#utility.yul\":10791:10809   */\n      add\n        /* \"#utility.yul\":10778:10810   */\n      calldataload\n        /* \"#utility.yul\":10775:10831   */\n      gt\n        /* \"#utility.yul\":10772:10774   */\n      iszero\n      tag_750\n      jumpi\n        /* \"#utility.yul\":10849:10855   */\n      dup6\n        /* \"#utility.yul\":10841:10847   */\n      dup7\n        /* \"#utility.yul\":10834:10856   */\n      revert\n        /* \"#utility.yul\":10772:10774   */\n    tag_750:\n        /* \"#utility.yul\":10877:10954   */\n      tag_751\n        /* \"#utility.yul\":10946:10953   */\n      dup15\n        /* \"#utility.yul\":10939:10941   */\n      0x60\n        /* \"#utility.yul\":10928:10937   */\n      dup16\n        /* \"#utility.yul\":10924:10942   */\n      add\n        /* \"#utility.yul\":10911:10943   */\n      calldataload\n        /* \"#utility.yul\":10900:10909   */\n      dup16\n        /* \"#utility.yul\":10896:10944   */\n      add\n        /* \"#utility.yul\":10877:10954   */\n      tag_657\n      jump\t// in\n    tag_751:\n        /* \"#utility.yul\":10538:11378   */\n      swap12\n      swap15\n      swap11\n      swap14\n      pop\n      swap9\n      swap12\n        /* \"#utility.yul\":11001:11004   */\n      0x80\n        /* \"#utility.yul\":10986:11005   */\n      dup2\n      add\n        /* \"#utility.yul\":10973:11006   */\n      calldataload\n      swap11\n        /* \"#utility.yul\":11053:11056   */\n      0xa0\n        /* \"#utility.yul\":11038:11057   */\n      dup3\n      add\n        /* \"#utility.yul\":11025:11058   */\n      calldataload\n      swap11\n      pop\n        /* \"#utility.yul\":11105:11108   */\n      0xc0\n        /* \"#utility.yul\":11090:11109   */\n      dup3\n      add\n        /* \"#utility.yul\":11077:11110   */\n      calldataload\n      swap10\n      pop\n        /* \"#utility.yul\":11157:11160   */\n      0xe0\n        /* \"#utility.yul\":11142:11161   */\n      dup3\n      add\n        /* \"#utility.yul\":11129:11162   */\n      calldataload\n      swap9\n      pop\n        /* \"#utility.yul\":11209:11212   */\n      0x0100\n        /* \"#utility.yul\":11194:11213   */\n      dup3\n      add\n        /* \"#utility.yul\":11181:11214   */\n      calldataload\n      swap8\n      pop\n        /* \"#utility.yul\":11261:11264   */\n      0x0120\n        /* \"#utility.yul\":11246:11265   */\n      dup3\n      add\n        /* \"#utility.yul\":11233:11266   */\n      calldataload\n      swap7\n      pop\n        /* \"#utility.yul\":11314:11317   */\n      0x0140\n        /* \"#utility.yul\":11299:11318   */\n      dup3\n      add\n        /* \"#utility.yul\":11286:11319   */\n      calldataload\n      swap6\n      pop\n        /* \"#utility.yul\":11367:11370   */\n      0x0160\n        /* \"#utility.yul\":11352:11371   */\n      swap1\n      swap2\n      add\n        /* \"#utility.yul\":11339:11372   */\n      calldataload\n      swap4\n      pop\n        /* \"#utility.yul\":10538:11378   */\n      swap2\n      pop\n      pop\n      jump\t// out\n        /* \"#utility.yul\":11383:11709   */\n    tag_72:\n      0x00\n      dup1\n      0x00\n        /* \"#utility.yul\":11529:11531   */\n      0x60\n        /* \"#utility.yul\":11517:11526   */\n      dup5\n        /* \"#utility.yul\":11508:11515   */\n      dup7\n        /* \"#utility.yul\":11504:11527   */\n      sub\n        /* \"#utility.yul\":11500:11532   */\n      slt\n        /* \"#utility.yul\":11497:11499   */\n      iszero\n      tag_753\n      jumpi\n        /* \"#utility.yul\":11550:11556   */\n      dup1\n        /* \"#utility.yul\":11542:11548   */\n      dup2\n        /* \"#utility.yul\":11535:11557   */\n      revert\n        /* \"#utility.yul\":11497:11499   */\n    tag_753:\n      pop\n      pop\n        /* \"#utility.yul\":11578:11601   */\n      dup2\n      calldataload\n      swap4\n        /* \"#utility.yul\":11648:11650   */\n      0x20\n        /* \"#utility.yul\":11633:11651   */\n      dup4\n      add\n        /* \"#utility.yul\":11620:11652   */\n      calldataload\n      swap4\n      pop\n        /* \"#utility.yul\":11699:11701   */\n      0x40\n        /* \"#utility.yul\":11684:11702   */\n      swap1\n      swap3\n      add\n        /* \"#utility.yul\":11671:11703   */\n      calldataload\n      swap2\n        /* \"#utility.yul\":11487:11709   */\n      swap1\n      pop\n      jump\t// out\n        /* \"#utility.yul\":11714:11820   */\n    tag_754:\n      sub(shl(0xa0, 0x01), 0x01)\n        /* \"#utility.yul\":11782:11813   */\n      and\n        /* \"#utility.yul\":11770:11814   */\n      swap1\n      mstore\n        /* \"#utility.yul\":11760:11820   */\n      jump\t// out\n        /* \"#utility.yul\":11825:12084   */\n    tag_756:\n      0x00\n        /* \"#utility.yul\":11906:11911   */\n      dup2\n        /* \"#utility.yul\":11900:11912   */\n      mload\n        /* \"#utility.yul\":11933:11939   */\n      dup1\n        /* \"#utility.yul\":11928:11931   */\n      dup5\n        /* \"#utility.yul\":11921:11940   */\n      mstore\n        /* \"#utility.yul\":11949:12012   */\n      tag_758\n        /* \"#utility.yul\":12005:12011   */\n      dup2\n        /* \"#utility.yul\":11998:12002   */\n      0x20\n        /* \"#utility.yul\":11993:11996   */\n      dup7\n        /* \"#utility.yul\":11989:12003   */\n      add\n        /* \"#utility.yul\":11982:11986   */\n      0x20\n        /* \"#utility.yul\":11975:11980   */\n      dup7\n        /* \"#utility.yul\":11971:11987   */\n      add\n        /* \"#utility.yul\":11949:12012   */\n      tag_759\n      jump\t// in\n    tag_758:\n        /* \"#utility.yul\":12066:12068   */\n      0x1f\n        /* \"#utility.yul\":12045:12060   */\n      add\n      not(0x1f)\n        /* \"#utility.yul\":12041:12070   */\n      and\n        /* \"#utility.yul\":12032:12071   */\n      swap3\n      swap1\n      swap3\n      add\n        /* \"#utility.yul\":12073:12077   */\n      0x20\n        /* \"#utility.yul\":12028:12078   */\n      add\n      swap3\n        /* \"#utility.yul\":11876:12084   */\n      swap2\n      pop\n      pop\n      jump\t// out\n        /* \"#utility.yul\":12089:12363   */\n    tag_617:\n      0x00\n        /* \"#utility.yul\":12256:12262   */\n      dup3\n        /* \"#utility.yul\":12250:12263   */\n      mload\n        /* \"#utility.yul\":12272:12325   */\n      tag_761\n        /* \"#utility.yul\":12318:12324   */\n      dup2\n        /* \"#utility.yul\":12313:12316   */\n      dup5\n        /* \"#utility.yul\":12306:12310   */\n      0x20\n        /* \"#utility.yul\":12298:12304   */\n      dup8\n        /* \"#utility.yul\":12294:12311   */\n      add\n        /* \"#utility.yul\":12272:12325   */\n      tag_759\n      jump\t// in\n    tag_761:\n        /* \"#utility.yul\":12341:12357   */\n      swap2\n      swap1\n      swap2\n      add\n      swap3\n        /* \"#utility.yul\":12226:12363   */\n      swap2\n      pop\n      pop\n      jump\t// out\n        /* \"#utility.yul\":12368:12571   */\n    tag_69:\n      sub(shl(0xa0, 0x01), 0x01)\n        /* \"#utility.yul\":12532:12564   */\n      swap2\n      swap1\n      swap2\n      and\n        /* \"#utility.yul\":12514:12565   */\n      dup2\n      mstore\n        /* \"#utility.yul\":12502:12504   */\n      0x20\n        /* \"#utility.yul\":12487:12505   */\n      add\n      swap1\n        /* \"#utility.yul\":12469:12571   */\n      jump\t// out\n        /* \"#utility.yul\":12576:12951   */\n    tag_497:\n      sub(shl(0xa0, 0x01), 0x01)\n        /* \"#utility.yul\":12834:12849   */\n      swap4\n      dup5\n      and\n        /* \"#utility.yul\":12816:12850   */\n      dup2\n      mstore\n        /* \"#utility.yul\":12886:12901   */\n      swap2\n      swap1\n      swap3\n      and\n        /* \"#utility.yul\":12881:12883   */\n      0x20\n        /* \"#utility.yul\":12866:12884   */\n      dup3\n      add\n        /* \"#utility.yul\":12859:12902   */\n      mstore\n        /* \"#utility.yul\":12933:12935   */\n      0x40\n        /* \"#utility.yul\":12918:12936   */\n      dup2\n      add\n        /* \"#utility.yul\":12911:12945   */\n      swap2\n      swap1\n      swap2\n      mstore\n        /* \"#utility.yul\":12766:12768   */\n      0x60\n        /* \"#utility.yul\":12751:12769   */\n      add\n      swap1\n        /* \"#utility.yul\":12733:12951   */\n      jump\t// out\n        /* \"#utility.yul\":12956:13230   */\n    tag_363:\n      sub(shl(0xa0, 0x01), 0x01)\n        /* \"#utility.yul\":13148:13180   */\n      swap3\n      swap1\n      swap3\n      and\n        /* \"#utility.yul\":13130:13181   */\n      dup3\n      mstore\n        /* \"#utility.yul\":13212:13214   */\n      0x20\n        /* \"#utility.yul\":13197:13215   */\n      dup3\n      add\n        /* \"#utility.yul\":13190:13224   */\n      mstore\n        /* \"#utility.yul\":13118:13120   */\n      0x40\n        /* \"#utility.yul\":13103:13121   */\n      add\n      swap1\n        /* \"#utility.yul\":13085:13230   */\n      jump\t// out\n        /* \"#utility.yul\":13235:13870   */\n    tag_49:\n        /* \"#utility.yul\":13406:13408   */\n      0x20\n        /* \"#utility.yul\":13458:13479   */\n      dup1\n      dup3\n      mstore\n        /* \"#utility.yul\":13528:13541   */\n      dup3\n      mload\n        /* \"#utility.yul\":13431:13449   */\n      dup3\n      dup3\n      add\n        /* \"#utility.yul\":13550:13572   */\n      dup2\n      swap1\n      mstore\n        /* \"#utility.yul\":13235:13870   */\n      0x00\n      swap2\n        /* \"#utility.yul\":13406:13408   */\n      swap1\n        /* \"#utility.yul\":13629:13644   */\n      dup5\n      dup3\n      add\n      swap1\n        /* \"#utility.yul\":13603:13605   */\n      0x40\n        /* \"#utility.yul\":13588:13606   */\n      dup6\n      add\n      swap1\n        /* \"#utility.yul\":13235:13870   */\n      dup5\n        /* \"#utility.yul\":13675:13844   */\n    tag_766:\n        /* \"#utility.yul\":13689:13695   */\n      dup2\n        /* \"#utility.yul\":13686:13687   */\n      dup2\n        /* \"#utility.yul\":13683:13696   */\n      lt\n        /* \"#utility.yul\":13675:13844   */\n      iszero\n      tag_768\n      jumpi\n        /* \"#utility.yul\":13750:13763   */\n      dup4\n      mload\n        /* \"#utility.yul\":13738:13764   */\n      dup4\n      mstore\n        /* \"#utility.yul\":13819:13834   */\n      swap3\n      dup5\n      add\n      swap3\n        /* \"#utility.yul\":13784:13796   */\n      swap2\n      dup5\n      add\n      swap2\n        /* \"#utility.yul\":13711:13712   */\n      0x01\n        /* \"#utility.yul\":13704:13713   */\n      add\n        /* \"#utility.yul\":13675:13844   */\n      jump(tag_766)\n    tag_768:\n      pop\n        /* \"#utility.yul\":13861:13864   */\n      swap1\n      swap7\n        /* \"#utility.yul\":13386:13870   */\n      swap6\n      pop\n      pop\n      pop\n      pop\n      pop\n      pop\n      jump\t// out\n        /* \"#utility.yul\":13875:14062   */\n    tag_61:\n        /* \"#utility.yul\":14040:14054   */\n      swap1\n      iszero\n        /* \"#utility.yul\":14033:14055   */\n      iszero\n        /* \"#utility.yul\":14015:14056   */\n      dup2\n      mstore\n        /* \"#utility.yul\":14003:14005   */\n      0x20\n        /* \"#utility.yul\":13988:14006   */\n      add\n      swap1\n        /* \"#utility.yul\":13970:14062   */\n      jump\t// out\n        /* \"#utility.yul\":14067:14676   */\n    tag_335:\n      0x00\n        /* \"#utility.yul\":14354:14360   */\n      dup7\n        /* \"#utility.yul\":14347:14361   */\n      iszero\n        /* \"#utility.yul\":14340:14362   */\n      iszero\n        /* \"#utility.yul\":14329:14338   */\n      dup3\n        /* \"#utility.yul\":14322:14363   */\n      mstore\n        /* \"#utility.yul\":14399:14405   */\n      dup6\n        /* \"#utility.yul\":14394:14396   */\n      0x20\n        /* \"#utility.yul\":14383:14392   */\n      dup4\n        /* \"#utility.yul\":14379:14397   */\n      add\n        /* \"#utility.yul\":14372:14406   */\n      mstore\n        /* \"#utility.yul\":14442:14448   */\n      dup5\n        /* \"#utility.yul\":14437:14439   */\n      0x40\n        /* \"#utility.yul\":14426:14435   */\n      dup4\n        /* \"#utility.yul\":14422:14440   */\n      add\n        /* \"#utility.yul\":14415:14449   */\n      mstore\n        /* \"#utility.yul\":14485:14488   */\n      0xa0\n        /* \"#utility.yul\":14480:14482   */\n      0x60\n        /* \"#utility.yul\":14469:14478   */\n      dup4\n        /* \"#utility.yul\":14465:14483   */\n      add\n        /* \"#utility.yul\":14458:14489   */\n      mstore\n        /* \"#utility.yul\":14512:14559   */\n      tag_771\n        /* \"#utility.yul\":14554:14557   */\n      0xa0\n        /* \"#utility.yul\":14543:14552   */\n      dup4\n        /* \"#utility.yul\":14539:14558   */\n      add\n        /* \"#utility.yul\":14531:14537   */\n      dup6\n        /* \"#utility.yul\":14512:14559   */\n      tag_756\n      jump\t// in\n    tag_771:\n        /* \"#utility.yul\":14608:14617   */\n      dup3\n        /* \"#utility.yul\":14600:14606   */\n      dup2\n        /* \"#utility.yul\":14596:14618   */\n      sub\n        /* \"#utility.yul\":14590:14593   */\n      0x80\n        /* \"#utility.yul\":14579:14588   */\n      dup5\n        /* \"#utility.yul\":14575:14594   */\n      add\n        /* \"#utility.yul\":14568:14619   */\n      mstore\n        /* \"#utility.yul\":14636:14670   */\n      tag_306\n        /* \"#utility.yul\":14663:14669   */\n      dup2\n        /* \"#utility.yul\":14655:14661   */\n      dup6\n        /* \"#utility.yul\":14636:14670   */\n      tag_756\n      jump\t// in\n        /* \"#utility.yul\":15367:15588   */\n    tag_630:\n      0x00\n        /* \"#utility.yul\":15516:15518   */\n      0x20\n        /* \"#utility.yul\":15505:15514   */\n      dup3\n        /* \"#utility.yul\":15498:15519   */\n      mstore\n        /* \"#utility.yul\":15536:15582   */\n      tag_236\n        /* \"#utility.yul\":15578:15580   */\n      0x20\n        /* \"#utility.yul\":15567:15576   */\n      dup4\n        /* \"#utility.yul\":15563:15581   */\n      add\n        /* \"#utility.yul\":15555:15561   */\n      dup5\n        /* \"#utility.yul\":15536:15582   */\n      tag_756\n      jump\t// in\n        /* \"#utility.yul\":15593:15937   */\n    tag_330:\n        /* \"#utility.yul\":15795:15797   */\n      0x20\n        /* \"#utility.yul\":15777:15798   */\n      dup1\n      dup3\n      mstore\n        /* \"#utility.yul\":15834:15836   */\n      0x14\n        /* \"#utility.yul\":15814:15832   */\n      swap1\n      dup3\n      add\n        /* \"#utility.yul\":15807:15837   */\n      mstore\n      shl(0x62, 0x1bdc99195c88191bd95cc81b9bdd08195e1a5cdd)\n        /* \"#utility.yul\":15868:15870   */\n      0x40\n        /* \"#utility.yul\":15853:15871   */\n      dup3\n      add\n        /* \"#utility.yul\":15846:15896   */\n      mstore\n        /* \"#utility.yul\":15928:15930   */\n      0x60\n        /* \"#utility.yul\":15913:15931   */\n      add\n      swap1\n        /* \"#utility.yul\":15767:15937   */\n      jump\t// out\n        /* \"#utility.yul\":15942:16280   */\n    tag_381:\n        /* \"#utility.yul\":16144:16146   */\n      0x20\n        /* \"#utility.yul\":16126:16147   */\n      dup1\n      dup3\n      mstore\n        /* \"#utility.yul\":16183:16185   */\n      0x0e\n        /* \"#utility.yul\":16163:16181   */\n      swap1\n      dup3\n      add\n        /* \"#utility.yul\":16156:16186   */\n      mstore\n      shl(0x92, 0x1b585c99da5b881b9bc819dbdbd9)\n        /* \"#utility.yul\":16217:16219   */\n      0x40\n        /* \"#utility.yul\":16202:16220   */\n      dup3\n      add\n        /* \"#utility.yul\":16195:16239   */\n      mstore\n        /* \"#utility.yul\":16271:16273   */\n      0x60\n        /* \"#utility.yul\":16256:16274   */\n      add\n      swap1\n        /* \"#utility.yul\":16116:16280   */\n      jump\t// out\n        /* \"#utility.yul\":16285:16687   */\n    tag_436:\n        /* \"#utility.yul\":16487:16489   */\n      0x20\n        /* \"#utility.yul\":16469:16490   */\n      dup1\n      dup3\n      mstore\n        /* \"#utility.yul\":16526:16528   */\n      0x26\n        /* \"#utility.yul\":16506:16524   */\n      swap1\n      dup3\n      add\n        /* \"#utility.yul\":16499:16529   */\n      mstore\n        /* \"#utility.yul\":16565:16599   */\n      0x4f776e61626c653a206e6577206f776e657220697320746865207a65726f2061\n        /* \"#utility.yul\":16560:16562   */\n      0x40\n        /* \"#utility.yul\":16545:16563   */\n      dup3\n      add\n        /* \"#utility.yul\":16538:16600   */\n      mstore\n      shl(0xd0, 0x646472657373)\n        /* \"#utility.yul\":16631:16633   */\n      0x60\n        /* \"#utility.yul\":16616:16634   */\n      dup3\n      add\n        /* \"#utility.yul\":16609:16645   */\n      mstore\n        /* \"#utility.yul\":16677:16680   */\n      0x80\n        /* \"#utility.yul\":16662:16681   */\n      add\n      swap1\n        /* \"#utility.yul\":16459:16687   */\n      jump\t// out\n        /* \"#utility.yul\":16692:17026   */\n    tag_343:\n        /* \"#utility.yul\":16894:16896   */\n      0x20\n        /* \"#utility.yul\":16876:16897   */\n      dup1\n      dup3\n      mstore\n        /* \"#utility.yul\":16933:16935   */\n      0x0a\n        /* \"#utility.yul\":16913:16931   */\n      swap1\n      dup3\n      add\n        /* \"#utility.yul\":16906:16936   */\n      mstore\n      shl(0xb1, 0x37b930b1b6329032b939)\n        /* \"#utility.yul\":16967:16969   */\n      0x40\n        /* \"#utility.yul\":16952:16970   */\n      dup3\n      add\n        /* \"#utility.yul\":16945:16985   */\n      mstore\n        /* \"#utility.yul\":17017:17019   */\n      0x60\n        /* \"#utility.yul\":17002:17020   */\n      add\n      swap1\n        /* \"#utility.yul\":16866:17026   */\n      jump\t// out\n        /* \"#utility.yul\":17031:17431   */\n    tag_265:\n        /* \"#utility.yul\":17233:17235   */\n      0x20\n        /* \"#utility.yul\":17215:17236   */\n      dup1\n      dup3\n      mstore\n        /* \"#utility.yul\":17272:17274   */\n      0x24\n        /* \"#utility.yul\":17252:17270   */\n      swap1\n      dup3\n      add\n        /* \"#utility.yul\":17245:17275   */\n      mstore\n        /* \"#utility.yul\":17311:17345   */\n      0x6578656375746f723a2063616c6c6572206973206e6f74207468652065786563\n        /* \"#utility.yul\":17306:17308   */\n      0x40\n        /* \"#utility.yul\":17291:17309   */\n      dup3\n      add\n        /* \"#utility.yul\":17284:17346   */\n      mstore\n      shl(0xe1, 0x3aba37b9)\n        /* \"#utility.yul\":17377:17379   */\n      0x60\n        /* \"#utility.yul\":17362:17380   */\n      dup3\n      add\n        /* \"#utility.yul\":17355:17389   */\n      mstore\n        /* \"#utility.yul\":17421:17424   */\n      0x80\n        /* \"#utility.yul\":17406:17425   */\n      add\n      swap1\n        /* \"#utility.yul\":17205:17431   */\n      jump\t// out\n        /* \"#utility.yul\":17436:17774   */\n    tag_286:\n        /* \"#utility.yul\":17638:17640   */\n      0x20\n        /* \"#utility.yul\":17620:17641   */\n      dup1\n      dup3\n      mstore\n        /* \"#utility.yul\":17677:17679   */\n      0x0e\n        /* \"#utility.yul\":17657:17675   */\n      swap1\n      dup3\n      add\n        /* \"#utility.yul\":17650:17680   */\n      mstore\n      shl(0x91, 0x2737903634b8bab4b230ba34b7b7)\n        /* \"#utility.yul\":17711:17713   */\n      0x40\n        /* \"#utility.yul\":17696:17714   */\n      dup3\n      add\n        /* \"#utility.yul\":17689:17733   */\n      mstore\n        /* \"#utility.yul\":17765:17767   */\n      0x60\n        /* \"#utility.yul\":17750:17768   */\n      add\n      swap1\n        /* \"#utility.yul\":17610:17774   */\n      jump\t// out\n        /* \"#utility.yul\":17779:18181   */\n    tag_610:\n        /* \"#utility.yul\":17981:17983   */\n      0x20\n        /* \"#utility.yul\":17963:17984   */\n      dup1\n      dup3\n      mstore\n        /* \"#utility.yul\":18020:18022   */\n      0x26\n        /* \"#utility.yul\":18000:18018   */\n      swap1\n      dup3\n      add\n        /* \"#utility.yul\":17993:18023   */\n      mstore\n        /* \"#utility.yul\":18059:18093   */\n      0x416464726573733a20696e73756666696369656e742062616c616e636520666f\n        /* \"#utility.yul\":18054:18056   */\n      0x40\n        /* \"#utility.yul\":18039:18057   */\n      dup3\n      add\n        /* \"#utility.yul\":18032:18094   */\n      mstore\n      shl(0xd2, 0x1c8818d85b1b)\n        /* \"#utility.yul\":18125:18127   */\n      0x60\n        /* \"#utility.yul\":18110:18128   */\n      dup3\n      add\n        /* \"#utility.yul\":18103:18139   */\n      mstore\n        /* \"#utility.yul\":18171:18174   */\n      0x80\n        /* \"#utility.yul\":18156:18175   */\n      add\n      swap1\n        /* \"#utility.yul\":17953:18181   */\n      jump\t// out\n        /* \"#utility.yul\":18186:18596   */\n    tag_442:\n        /* \"#utility.yul\":18388:18390   */\n      0x20\n        /* \"#utility.yul\":18370:18391   */\n      dup1\n      dup3\n      mstore\n        /* \"#utility.yul\":18427:18429   */\n      0x2e\n        /* \"#utility.yul\":18407:18425   */\n      swap1\n      dup3\n      add\n        /* \"#utility.yul\":18400:18430   */\n      mstore\n        /* \"#utility.yul\":18466:18500   */\n      0x496e697469616c697a61626c653a20636f6e747261637420697320616c726561\n        /* \"#utility.yul\":18461:18463   */\n      0x40\n        /* \"#utility.yul\":18446:18464   */\n      dup3\n      add\n        /* \"#utility.yul\":18439:18501   */\n      mstore\n      shl(0x92, 0x191e481a5b9a5d1a585b1a5e9959)\n        /* \"#utility.yul\":18532:18534   */\n      0x60\n        /* \"#utility.yul\":18517:18535   */\n      dup3\n      add\n        /* \"#utility.yul\":18510:18554   */\n      mstore\n        /* \"#utility.yul\":18586:18589   */\n      0x80\n        /* \"#utility.yul\":18571:18590   */\n      add\n      swap1\n        /* \"#utility.yul\":18360:18596   */\n      jump\t// out\n        /* \"#utility.yul\":18601:19000   */\n    tag_393:\n        /* \"#utility.yul\":18803:18805   */\n      0x20\n        /* \"#utility.yul\":18785:18806   */\n      dup1\n      dup3\n      mstore\n        /* \"#utility.yul\":18842:18844   */\n      0x23\n        /* \"#utility.yul\":18822:18840   */\n      swap1\n      dup3\n      add\n        /* \"#utility.yul\":18815:18845   */\n      mstore\n        /* \"#utility.yul\":18881:18915   */\n      0x546865207472616e73616374696f6e20616d6f756e7420697320746f6f20736d\n        /* \"#utility.yul\":18876:18878   */\n      0x40\n        /* \"#utility.yul\":18861:18879   */\n      dup3\n      add\n        /* \"#utility.yul\":18854:18916   */\n      mstore\n      shl(0xea, 0x185b1b)\n        /* \"#utility.yul\":18947:18949   */\n      0x60\n        /* \"#utility.yul\":18932:18950   */\n      dup3\n      add\n        /* \"#utility.yul\":18925:18958   */\n      mstore\n        /* \"#utility.yul\":18990:18993   */\n      0x80\n        /* \"#utility.yul\":18975:18994   */\n      add\n      swap1\n        /* \"#utility.yul\":18775:19000   */\n      jump\t// out\n        /* \"#utility.yul\":19005:19345   */\n    tag_347:\n        /* \"#utility.yul\":19207:19209   */\n      0x20\n        /* \"#utility.yul\":19189:19210   */\n      dup1\n      dup3\n      mstore\n        /* \"#utility.yul\":19246:19248   */\n      0x10\n        /* \"#utility.yul\":19226:19244   */\n      swap1\n      dup3\n      add\n        /* \"#utility.yul\":19219:19249   */\n      mstore\n      shl(0x82, 0x155cd95c881a5cc818985b9adc9d5c1d)\n        /* \"#utility.yul\":19280:19282   */\n      0x40\n        /* \"#utility.yul\":19265:19283   */\n      dup3\n      add\n        /* \"#utility.yul\":19258:19304   */\n      mstore\n        /* \"#utility.yul\":19336:19338   */\n      0x60\n        /* \"#utility.yul\":19321:19339   */\n      add\n      swap1\n        /* \"#utility.yul\":19179:19345   */\n      jump\t// out\n        /* \"#utility.yul\":19350:19706   */\n    tag_234:\n        /* \"#utility.yul\":19552:19554   */\n      0x20\n        /* \"#utility.yul\":19534:19555   */\n      dup1\n      dup3\n      mstore\n        /* \"#utility.yul\":19571:19589   */\n      dup2\n      dup2\n      add\n        /* \"#utility.yul\":19564:19594   */\n      mstore\n        /* \"#utility.yul\":19630:19664   */\n      0x4f776e61626c653a2063616c6c6572206973206e6f7420746865206f776e6572\n        /* \"#utility.yul\":19625:19627   */\n      0x40\n        /* \"#utility.yul\":19610:19628   */\n      dup3\n      add\n        /* \"#utility.yul\":19603:19665   */\n      mstore\n        /* \"#utility.yul\":19697:19699   */\n      0x60\n        /* \"#utility.yul\":19682:19700   */\n      add\n      swap1\n        /* \"#utility.yul\":19524:19706   */\n      jump\t// out\n        /* \"#utility.yul\":19711:20064   */\n    tag_615:\n        /* \"#utility.yul\":19913:19915   */\n      0x20\n        /* \"#utility.yul\":19895:19916   */\n      dup1\n      dup3\n      mstore\n        /* \"#utility.yul\":19952:19954   */\n      0x1d\n        /* \"#utility.yul\":19932:19950   */\n      swap1\n      dup3\n      add\n        /* \"#utility.yul\":19925:19955   */\n      mstore\n        /* \"#utility.yul\":19991:20022   */\n      0x416464726573733a2063616c6c20746f206e6f6e2d636f6e7472616374000000\n        /* \"#utility.yul\":19986:19988   */\n      0x40\n        /* \"#utility.yul\":19971:19989   */\n      dup3\n      add\n        /* \"#utility.yul\":19964:20023   */\n      mstore\n        /* \"#utility.yul\":20055:20057   */\n      0x60\n        /* \"#utility.yul\":20040:20058   */\n      add\n      swap1\n        /* \"#utility.yul\":19885:20064   */\n      jump\t// out\n        /* \"#utility.yul\":20069:20403   */\n    tag_209:\n        /* \"#utility.yul\":20271:20273   */\n      0x20\n        /* \"#utility.yul\":20253:20274   */\n      dup1\n      dup3\n      mstore\n        /* \"#utility.yul\":20310:20312   */\n      0x0a\n        /* \"#utility.yul\":20290:20308   */\n      swap1\n      dup3\n      add\n        /* \"#utility.yul\":20283:20313   */\n      mstore\n      shl(0xb1, 0x3632b733ba341032b939)\n        /* \"#utility.yul\":20344:20346   */\n      0x40\n        /* \"#utility.yul\":20329:20347   */\n      dup3\n      add\n        /* \"#utility.yul\":20322:20362   */\n      mstore\n        /* \"#utility.yul\":20394:20396   */\n      0x60\n        /* \"#utility.yul\":20379:20397   */\n      add\n      swap1\n        /* \"#utility.yul\":20243:20403   */\n      jump\t// out\n        /* \"#utility.yul\":20408:20739   */\n    tag_305:\n        /* \"#utility.yul\":20610:20612   */\n      0x20\n        /* \"#utility.yul\":20592:20613   */\n      dup1\n      dup3\n      mstore\n        /* \"#utility.yul\":20649:20650   */\n      0x08\n        /* \"#utility.yul\":20629:20647   */\n      swap1\n      dup3\n      add\n        /* \"#utility.yul\":20622:20651   */\n      mstore\n      shl(0xc1, 0x3ab9b2b91032b939)\n        /* \"#utility.yul\":20682:20684   */\n      0x40\n        /* \"#utility.yul\":20667:20685   */\n      dup3\n      add\n        /* \"#utility.yul\":20660:20698   */\n      mstore\n        /* \"#utility.yul\":20730:20732   */\n      0x60\n        /* \"#utility.yul\":20715:20733   */\n      add\n      swap1\n        /* \"#utility.yul\":20582:20739   */\n      jump\t// out\n        /* \"#utility.yul\":20744:21076   */\n    tag_333:\n        /* \"#utility.yul\":20946:20948   */\n      0x20\n        /* \"#utility.yul\":20928:20949   */\n      dup1\n      dup3\n      mstore\n        /* \"#utility.yul\":20985:20986   */\n      0x09\n        /* \"#utility.yul\":20965:20983   */\n      swap1\n      dup3\n      add\n        /* \"#utility.yul\":20958:20987   */\n      mstore\n      shl(0xb9, 0x39ba30ba329032b939)\n        /* \"#utility.yul\":21018:21020   */\n      0x40\n        /* \"#utility.yul\":21003:21021   */\n      dup3\n      add\n        /* \"#utility.yul\":20996:21035   */\n      mstore\n        /* \"#utility.yul\":21067:21069   */\n      0x60\n        /* \"#utility.yul\":21052:21070   */\n      add\n      swap1\n        /* \"#utility.yul\":20918:21076   */\n      jump\t// out\n        /* \"#utility.yul\":21081:21487   */\n    tag_587:\n        /* \"#utility.yul\":21283:21285   */\n      0x20\n        /* \"#utility.yul\":21265:21286   */\n      dup1\n      dup3\n      mstore\n        /* \"#utility.yul\":21322:21324   */\n      0x2a\n        /* \"#utility.yul\":21302:21320   */\n      swap1\n      dup3\n      add\n        /* \"#utility.yul\":21295:21325   */\n      mstore\n        /* \"#utility.yul\":21361:21395   */\n      0x5361666545524332303a204552433230206f7065726174696f6e20646964206e\n        /* \"#utility.yul\":21356:21358   */\n      0x40\n        /* \"#utility.yul\":21341:21359   */\n      dup3\n      add\n        /* \"#utility.yul\":21334:21396   */\n      mstore\n      shl(0xb2, 0x1bdd081cdd58d8d95959)\n        /* \"#utility.yul\":21427:21429   */\n      0x60\n        /* \"#utility.yul\":21412:21430   */\n      dup3\n      add\n        /* \"#utility.yul\":21405:21445   */\n      mstore\n        /* \"#utility.yul\":21477:21480   */\n      0x80\n        /* \"#utility.yul\":21462:21481   */\n      add\n      swap1\n        /* \"#utility.yul\":21255:21487   */\n      jump\t// out\n        /* \"#utility.yul\":21492:21827   */\n    tag_212:\n        /* \"#utility.yul\":21694:21696   */\n      0x20\n        /* \"#utility.yul\":21676:21697   */\n      dup1\n      dup3\n      mstore\n        /* \"#utility.yul\":21733:21735   */\n      0x0b\n        /* \"#utility.yul\":21713:21731   */\n      swap1\n      dup3\n      add\n        /* \"#utility.yul\":21706:21736   */\n      mstore\n      shl(0xaa, 0x185c9c881b9bc819dbdbd9)\n        /* \"#utility.yul\":21767:21769   */\n      0x40\n        /* \"#utility.yul\":21752:21770   */\n      dup3\n      add\n        /* \"#utility.yul\":21745:21786   */\n      mstore\n        /* \"#utility.yul\":21818:21820   */\n      0x60\n        /* \"#utility.yul\":21803:21821   */\n      add\n      swap1\n        /* \"#utility.yul\":21666:21827   */\n      jump\t// out\n        /* \"#utility.yul\":21832:22970   */\n    tag_100:\n      0x00\n        /* \"#utility.yul\":22015:22017   */\n      0x20\n        /* \"#utility.yul\":22004:22013   */\n      dup3\n        /* \"#utility.yul\":21997:22018   */\n      mstore\n        /* \"#utility.yul\":22027:22082   */\n      tag_796\n        /* \"#utility.yul\":22078:22080   */\n      0x20\n        /* \"#utility.yul\":22067:22076   */\n      dup4\n        /* \"#utility.yul\":22063:22081   */\n      add\n        /* \"#utility.yul\":22054:22060   */\n      dup5\n        /* \"#utility.yul\":22048:22061   */\n      mload\n        /* \"#utility.yul\":22027:22082   */\n      tag_754\n      jump\t// in\n    tag_796:\n        /* \"#utility.yul\":22136:22138   */\n      0x20\n        /* \"#utility.yul\":22128:22134   */\n      dup4\n        /* \"#utility.yul\":22124:22139   */\n      add\n        /* \"#utility.yul\":22118:22140   */\n      mload\n        /* \"#utility.yul\":22113:22115   */\n      0x40\n        /* \"#utility.yul\":22102:22111   */\n      dup4\n        /* \"#utility.yul\":22098:22116   */\n      add\n        /* \"#utility.yul\":22091:22141   */\n      mstore\n        /* \"#utility.yul\":22188:22190   */\n      0x40\n        /* \"#utility.yul\":22180:22186   */\n      dup4\n        /* \"#utility.yul\":22176:22191   */\n      add\n        /* \"#utility.yul\":22170:22192   */\n      mload\n        /* \"#utility.yul\":22211:22217   */\n      0x0160\n        /* \"#utility.yul\":22253:22255   */\n      dup1\n        /* \"#utility.yul\":22248:22250   */\n      0x60\n        /* \"#utility.yul\":22237:22246   */\n      dup6\n        /* \"#utility.yul\":22233:22251   */\n      add\n        /* \"#utility.yul\":22226:22256   */\n      mstore\n        /* \"#utility.yul\":22279:22332   */\n      tag_797\n        /* \"#utility.yul\":22327:22330   */\n      0x0180\n        /* \"#utility.yul\":22316:22325   */\n      dup6\n        /* \"#utility.yul\":22312:22331   */\n      add\n        /* \"#utility.yul\":22298:22310   */\n      dup4\n        /* \"#utility.yul\":22279:22332   */\n      tag_756\n      jump\t// in\n    tag_797:\n        /* \"#utility.yul\":22265:22332   */\n      swap2\n      pop\n        /* \"#utility.yul\":22387:22389   */\n      0x60\n        /* \"#utility.yul\":22379:22385   */\n      dup6\n        /* \"#utility.yul\":22375:22390   */\n      add\n        /* \"#utility.yul\":22369:22391   */\n      mload\n        /* \"#utility.yul\":22363:22366   */\n      0x80\n        /* \"#utility.yul\":22352:22361   */\n      dup6\n        /* \"#utility.yul\":22348:22367   */\n      add\n        /* \"#utility.yul\":22341:22392   */\n      mstore\n        /* \"#utility.yul\":22447:22450   */\n      0x80\n        /* \"#utility.yul\":22439:22445   */\n      dup6\n        /* \"#utility.yul\":22435:22451   */\n      add\n        /* \"#utility.yul\":22429:22452   */\n      mload\n        /* \"#utility.yul\":22423:22426   */\n      0xa0\n        /* \"#utility.yul\":22412:22421   */\n      dup6\n        /* \"#utility.yul\":22408:22427   */\n      add\n        /* \"#utility.yul\":22401:22453   */\n      mstore\n        /* \"#utility.yul\":22508:22511   */\n      0xa0\n        /* \"#utility.yul\":22500:22506   */\n      dup6\n        /* \"#utility.yul\":22496:22512   */\n      add\n        /* \"#utility.yul\":22490:22513   */\n      mload\n        /* \"#utility.yul\":22484:22487   */\n      0xc0\n        /* \"#utility.yul\":22473:22482   */\n      dup6\n        /* \"#utility.yul\":22469:22488   */\n      add\n        /* \"#utility.yul\":22462:22514   */\n      mstore\n        /* \"#utility.yul\":22569:22572   */\n      0xc0\n        /* \"#utility.yul\":22561:22567   */\n      dup6\n        /* \"#utility.yul\":22557:22573   */\n      add\n        /* \"#utility.yul\":22551:22574   */\n      mload\n        /* \"#utility.yul\":22545:22548   */\n      0xe0\n        /* \"#utility.yul\":22534:22543   */\n      dup6\n        /* \"#utility.yul\":22530:22549   */\n      add\n        /* \"#utility.yul\":22523:22575   */\n      mstore\n        /* \"#utility.yul\":22612:22615   */\n      0xe0\n        /* \"#utility.yul\":22604:22610   */\n      dup6\n        /* \"#utility.yul\":22600:22616   */\n      add\n        /* \"#utility.yul\":22594:22617   */\n      mload\n        /* \"#utility.yul\":22636:22639   */\n      0x0100\n        /* \"#utility.yul\":22675:22677   */\n      dup2\n        /* \"#utility.yul\":22670:22672   */\n      dup2\n        /* \"#utility.yul\":22659:22668   */\n      dup8\n        /* \"#utility.yul\":22655:22673   */\n      add\n        /* \"#utility.yul\":22648:22678   */\n      mstore\n        /* \"#utility.yul\":22715:22717   */\n      dup1\n        /* \"#utility.yul\":22707:22713   */\n      dup8\n        /* \"#utility.yul\":22703:22718   */\n      add\n        /* \"#utility.yul\":22697:22719   */\n      mload\n        /* \"#utility.yul\":22687:22719   */\n      swap2\n      pop\n      pop\n        /* \"#utility.yul\":22738:22741   */\n      0x0120\n        /* \"#utility.yul\":22777:22779   */\n      dup2\n        /* \"#utility.yul\":22772:22774   */\n      dup2\n        /* \"#utility.yul\":22761:22770   */\n      dup8\n        /* \"#utility.yul\":22757:22775   */\n      add\n        /* \"#utility.yul\":22750:22780   */\n      mstore\n        /* \"#utility.yul\":22817:22819   */\n      dup1\n        /* \"#utility.yul\":22809:22815   */\n      dup8\n        /* \"#utility.yul\":22805:22820   */\n      add\n        /* \"#utility.yul\":22799:22821   */\n      mload\n        /* \"#utility.yul\":22789:22821   */\n      swap2\n      pop\n      pop\n        /* \"#utility.yul\":22840:22843   */\n      0x0140\n        /* \"#utility.yul\":22879:22881   */\n      dup2\n        /* \"#utility.yul\":22874:22876   */\n      dup2\n        /* \"#utility.yul\":22863:22872   */\n      dup8\n        /* \"#utility.yul\":22859:22877   */\n      add\n        /* \"#utility.yul\":22852:22882   */\n      mstore\n        /* \"#utility.yul\":22936:22938   */\n      dup1\n        /* \"#utility.yul\":22928:22934   */\n      dup8\n        /* \"#utility.yul\":22924:22939   */\n      add\n        /* \"#utility.yul\":22918:22940   */\n      mload\n        /* \"#utility.yul\":22913:22915   */\n      dup4\n        /* \"#utility.yul\":22902:22911   */\n      dup8\n        /* \"#utility.yul\":22898:22916   */\n      add\n        /* \"#utility.yul\":22891:22941   */\n      mstore\n      pop\n      pop\n      pop\n        /* \"#utility.yul\":22958:22964   */\n      dup1\n        /* \"#utility.yul\":22950:22964   */\n      swap2\n      pop\n      pop\n        /* \"#utility.yul\":21987:22970   */\n      swap3\n      swap2\n      pop\n      pop\n      jump\t// out\n        /* \"#utility.yul\":22975:23152   */\n    tag_55:\n        /* \"#utility.yul\":23121:23146   */\n      swap1\n      dup2\n      mstore\n        /* \"#utility.yul\":23109:23111   */\n      0x20\n        /* \"#utility.yul\":23094:23112   */\n      add\n      swap1\n        /* \"#utility.yul\":23076:23152   */\n      jump\t// out\n        /* \"#utility.yul\":23157:23408   */\n    tag_652:\n        /* \"#utility.yul\":23227:23229   */\n      0x40\n        /* \"#utility.yul\":23221:23230   */\n      mload\n        /* \"#utility.yul\":23257:23274   */\n      dup2\n      dup2\n      add\n        /* \"#utility.yul\":23304:23322   */\n      0xffffffffffffffff\n        /* \"#utility.yul\":23289:23323   */\n      dup2\n      gt\n        /* \"#utility.yul\":23325:23347   */\n      dup3\n      dup3\n      lt\n        /* \"#utility.yul\":23286:23348   */\n      or\n        /* \"#utility.yul\":23283:23285   */\n      iszero\n      tag_801\n      jumpi\n        /* \"#utility.yul\":23351:23369   */\n      tag_801\n      tag_684\n      jump\t// in\n    tag_801:\n        /* \"#utility.yul\":23387:23389   */\n      0x40\n        /* \"#utility.yul\":23380:23402   */\n      mstore\n        /* \"#utility.yul\":23201:23408   */\n      swap2\n      swap1\n      pop\n      jump\t// out\n        /* \"#utility.yul\":23413:23603   */\n    tag_651:\n      0x00\n        /* \"#utility.yul\":23510:23528   */\n      0xffffffffffffffff\n        /* \"#utility.yul\":23502:23508   */\n      dup3\n        /* \"#utility.yul\":23499:23529   */\n      gt\n        /* \"#utility.yul\":23496:23498   */\n      iszero\n      tag_804\n      jumpi\n        /* \"#utility.yul\":23532:23550   */\n      tag_804\n      tag_684\n      jump\t// in\n    tag_804:\n      pop\n        /* \"#utility.yul\":23592:23596   */\n      0x20\n        /* \"#utility.yul\":23573:23590   */\n      swap1\n      dup2\n      mul\n        /* \"#utility.yul\":23569:23597   */\n      add\n      swap1\n        /* \"#utility.yul\":23486:23603   */\n      jump\t// out\n        /* \"#utility.yul\":23608:23736   */\n    tag_248:\n      0x00\n        /* \"#utility.yul\":23679:23680   */\n      dup3\n        /* \"#utility.yul\":23675:23681   */\n      not\n        /* \"#utility.yul\":23672:23673   */\n      dup3\n        /* \"#utility.yul\":23669:23682   */\n      gt\n        /* \"#utility.yul\":23666:23668   */\n      iszero\n      tag_807\n      jumpi\n        /* \"#utility.yul\":23685:23703   */\n      tag_807\n      tag_808\n      jump\t// in\n    tag_807:\n      pop\n        /* \"#utility.yul\":23721:23730   */\n      add\n      swap1\n        /* \"#utility.yul\":23656:23736   */\n      jump\t// out\n        /* \"#utility.yul\":23741:23958   */\n    tag_464:\n      0x00\n        /* \"#utility.yul\":23807:23808   */\n      dup3\n        /* \"#utility.yul\":23797:23799   */\n      tag_810\n      jumpi\n      shl(0xe0, 0x4e487b71)\n        /* \"#utility.yul\":23832:23863   */\n      dup2\n      mstore\n        /* \"#utility.yul\":23886:23890   */\n      0x12\n        /* \"#utility.yul\":23883:23884   */\n      0x04\n        /* \"#utility.yul\":23876:23891   */\n      mstore\n        /* \"#utility.yul\":23914:23918   */\n      0x24\n        /* \"#utility.yul\":23839:23840   */\n      dup2\n        /* \"#utility.yul\":23904:23919   */\n      revert\n        /* \"#utility.yul\":23797:23799   */\n    tag_810:\n      pop\n        /* \"#utility.yul\":23943:23952   */\n      div\n      swap1\n        /* \"#utility.yul\":23787:23958   */\n      jump\t// out\n        /* \"#utility.yul\":23963:24131   */\n    tag_457:\n      0x00\n        /* \"#utility.yul\":24069:24070   */\n      dup2\n        /* \"#utility.yul\":24065:24066   */\n      0x00\n        /* \"#utility.yul\":24061:24067   */\n      not\n        /* \"#utility.yul\":24057:24071   */\n      div\n        /* \"#utility.yul\":24054:24055   */\n      dup4\n        /* \"#utility.yul\":24051:24072   */\n      gt\n        /* \"#utility.yul\":24046:24047   */\n      dup3\n        /* \"#utility.yul\":24039:24048   */\n      iszero\n        /* \"#utility.yul\":24032:24049   */\n      iszero\n        /* \"#utility.yul\":24028:24073   */\n      and\n        /* \"#utility.yul\":24025:24027   */\n      iszero\n      tag_813\n      jumpi\n        /* \"#utility.yul\":24076:24094   */\n      tag_813\n      tag_808\n      jump\t// in\n    tag_813:\n      pop\n        /* \"#utility.yul\":24116:24125   */\n      mul\n      swap1\n        /* \"#utility.yul\":24015:24131   */\n      jump\t// out\n        /* \"#utility.yul\":24136:24261   */\n    tag_460:\n      0x00\n        /* \"#utility.yul\":24204:24205   */\n      dup3\n        /* \"#utility.yul\":24201:24202   */\n      dup3\n        /* \"#utility.yul\":24198:24206   */\n      lt\n        /* \"#utility.yul\":24195:24197   */\n      iszero\n      tag_816\n      jumpi\n        /* \"#utility.yul\":24209:24227   */\n      tag_816\n      tag_808\n      jump\t// in\n    tag_816:\n      pop\n        /* \"#utility.yul\":24246:24255   */\n      sub\n      swap1\n        /* \"#utility.yul\":24185:24261   */\n      jump\t// out\n        /* \"#utility.yul\":24266:24524   */\n    tag_759:\n        /* \"#utility.yul\":24338:24339   */\n      0x00\n        /* \"#utility.yul\":24348:24461   */\n    tag_818:\n        /* \"#utility.yul\":24362:24368   */\n      dup4\n        /* \"#utility.yul\":24359:24360   */\n      dup2\n        /* \"#utility.yul\":24356:24369   */\n      lt\n        /* \"#utility.yul\":24348:24461   */\n      iszero\n      tag_820\n      jumpi\n        /* \"#utility.yul\":24438:24449   */\n      dup2\n      dup2\n      add\n        /* \"#utility.yul\":24432:24450   */\n      mload\n        /* \"#utility.yul\":24419:24430   */\n      dup4\n      dup3\n      add\n        /* \"#utility.yul\":24412:24451   */\n      mstore\n        /* \"#utility.yul\":24384:24386   */\n      0x20\n        /* \"#utility.yul\":24377:24387   */\n      add\n        /* \"#utility.yul\":24348:24461   */\n      jump(tag_818)\n    tag_820:\n        /* \"#utility.yul\":24479:24485   */\n      dup4\n        /* \"#utility.yul\":24476:24477   */\n      dup2\n        /* \"#utility.yul\":24473:24486   */\n      gt\n        /* \"#utility.yul\":24470:24472   */\n      iszero\n      tag_495\n      jumpi\n      pop\n      pop\n        /* \"#utility.yul\":24514:24515   */\n      0x00\n        /* \"#utility.yul\":24496:24512   */\n      swap2\n      add\n        /* \"#utility.yul\":24489:24516   */\n      mstore\n        /* \"#utility.yul\":24319:24524   */\n      jump\t// out\n        /* \"#utility.yul\":24529:24665   */\n    tag_225:\n      0x00\n        /* \"#utility.yul\":24596:24601   */\n      dup2\n        /* \"#utility.yul\":24586:24588   */\n      tag_824\n      jumpi\n        /* \"#utility.yul\":24605:24623   */\n      tag_824\n      tag_808\n      jump\t// in\n    tag_824:\n      pop\n      not(0x00)\n        /* \"#utility.yul\":24641:24659   */\n      add\n      swap1\n        /* \"#utility.yul\":24576:24665   */\n      jump\t// out\n        /* \"#utility.yul\":24670:25050   */\n    tag_291:\n        /* \"#utility.yul\":24755:24756   */\n      0x02\n        /* \"#utility.yul\":24745:24757   */\n      dup2\n      div\n        /* \"#utility.yul\":24802:24803   */\n      0x01\n        /* \"#utility.yul\":24792:24804   */\n      dup3\n      and\n      dup1\n        /* \"#utility.yul\":24813:24815   */\n      tag_826\n      jumpi\n        /* \"#utility.yul\":24867:24871   */\n      0x7f\n        /* \"#utility.yul\":24859:24865   */\n      dup3\n        /* \"#utility.yul\":24855:24872   */\n      and\n        /* \"#utility.yul\":24845:24872   */\n      swap2\n      pop\n        /* \"#utility.yul\":24813:24815   */\n    tag_826:\n        /* \"#utility.yul\":24920:24922   */\n      0x20\n        /* \"#utility.yul\":24912:24918   */\n      dup3\n        /* \"#utility.yul\":24909:24923   */\n      lt\n        /* \"#utility.yul\":24889:24907   */\n      dup2\n        /* \"#utility.yul\":24886:24924   */\n      eq\n        /* \"#utility.yul\":24883:24885   */\n      iszero\n      tag_827\n      jumpi\n        /* \"#utility.yul\":24966:24976   */\n      0x4e487b71\n        /* \"#utility.yul\":24961:24964   */\n      0xe0\n        /* \"#utility.yul\":24957:24977   */\n      shl\n        /* \"#utility.yul\":24954:24955   */\n      0x00\n        /* \"#utility.yul\":24947:24978   */\n      mstore\n        /* \"#utility.yul\":25001:25005   */\n      0x22\n        /* \"#utility.yul\":24998:24999   */\n      0x04\n        /* \"#utility.yul\":24991:25006   */\n      mstore\n        /* \"#utility.yul\":25029:25033   */\n      0x24\n        /* \"#utility.yul\":25026:25027   */\n      0x00\n        /* \"#utility.yul\":25019:25034   */\n      revert\n        /* \"#utility.yul\":24883:24885   */\n    tag_827:\n      pop\n        /* \"#utility.yul\":24725:25050   */\n      swap2\n      swap1\n      pop\n      jump\t// out\n        /* \"#utility.yul\":25055:25190   */\n    tag_223:\n      0x00\n      not(0x00)\n        /* \"#utility.yul\":25115:25132   */\n      dup3\n      eq\n        /* \"#utility.yul\":25112:25114   */\n      iszero\n      tag_830\n      jumpi\n        /* \"#utility.yul\":25135:25153   */\n      tag_830\n      tag_808\n      jump\t// in\n    tag_830:\n      pop\n        /* \"#utility.yul\":25182:25183   */\n      0x01\n        /* \"#utility.yul\":25171:25184   */\n      add\n      swap1\n        /* \"#utility.yul\":25102:25190   */\n      jump\t// out\n        /* \"#utility.yul\":25195:25322   */\n    tag_808:\n        /* \"#utility.yul\":25256:25266   */\n      0x4e487b71\n        /* \"#utility.yul\":25251:25254   */\n      0xe0\n        /* \"#utility.yul\":25247:25267   */\n      shl\n        /* \"#utility.yul\":25244:25245   */\n      0x00\n        /* \"#utility.yul\":25237:25268   */\n      mstore\n        /* \"#utility.yul\":25287:25291   */\n      0x11\n        /* \"#utility.yul\":25284:25285   */\n      0x04\n        /* \"#utility.yul\":25277:25292   */\n      mstore\n        /* \"#utility.yul\":25311:25315   */\n      0x24\n        /* \"#utility.yul\":25308:25309   */\n      0x00\n        /* \"#utility.yul\":25301:25316   */\n      revert\n        /* \"#utility.yul\":25327:25454   */\n    tag_684:\n        /* \"#utility.yul\":25388:25398   */\n      0x4e487b71\n        /* \"#utility.yul\":25383:25386   */\n      0xe0\n        /* \"#utility.yul\":25379:25399   */\n      shl\n        /* \"#utility.yul\":25376:25377   */\n      0x00\n        /* \"#utility.yul\":25369:25400   */\n      mstore\n        /* \"#utility.yul\":25419:25423   */\n      0x41\n        /* \"#utility.yul\":25416:25417   */\n      0x04\n        /* \"#utility.yul\":25409:25424   */\n      mstore\n        /* \"#utility.yul\":25443:25447   */\n      0x24\n        /* \"#utility.yul\":25440:25441   */\n      0x00\n        /* \"#utility.yul\":25433:25448   */\n      revert\n        /* \"#utility.yul\":25459:25592   */\n    tag_645:\n      sub(shl(0xa0, 0x01), 0x01)\n        /* \"#utility.yul\":25536:25567   */\n      dup2\n      and\n        /* \"#utility.yul\":25526:25568   */\n      dup2\n      eq\n        /* \"#utility.yul\":25516:25518   */\n      tag_437\n      jumpi\n        /* \"#utility.yul\":25582:25583   */\n      0x00\n        /* \"#utility.yul\":25579:25580   */\n      dup1\n        /* \"#utility.yul\":25572:25584   */\n      revert\n        /* \"#utility.yul\":25597:25717   */\n    tag_679:\n        /* \"#utility.yul\":25685:25690   */\n      dup1\n        /* \"#utility.yul\":25678:25691   */\n      iszero\n        /* \"#utility.yul\":25671:25692   */\n      iszero\n        /* \"#utility.yul\":25664:25669   */\n      dup2\n        /* \"#utility.yul\":25661:25693   */\n      eq\n        /* \"#utility.yul\":25651:25653   */\n      tag_437\n      jumpi\n        /* \"#utility.yul\":25707:25708   */\n      0x00\n        /* \"#utility.yul\":25704:25705   */\n      dup1\n        /* \"#utility.yul\":25697:25709   */\n      revert\n\n    auxdata: 0xa26469706673582212205fa1620a9e42b4b7d4efdcb04e9c117dd3eba63fa425f547692289d6801e991e64736f6c63430008000033\n}\n",
				"bytecode": {
					"linkReferences": {},
					"object": "608060405234801561001057600080fd5b50613206806100206000396000f3fe608060405234801561001057600080fd5b50600436106102065760003560e01c80637dc0d1d01161011a578063db4a5aa9116100ad578063f14053ad1161007c578063f14053ad1461041b578063f2fde38b14610423578063f7ab69fd14610436578063f8c8765e1461043e578063fc234d061461045157610206565b8063db4a5aa9146103cf578063e4e95520146103e2578063ec4c4f34146103f5578063f0c765e41461040857610206565b8063a8ecb028116100e9578063a8ecb0281461038e578063aaf5eb68146103a1578063aecf77b1146103a9578063c2ec527d146103bc57610206565b80637dc0d1d0146103635780637fd6f15c1461036b5780638da5cb5b14610373578063a0ad12e21461037b57610206565b806343b1f3cb1161019d5780636c19e7831161016c5780636c19e7831461030d5780636e81243714610320578063715018a6146103335780637be3a1a11461033d5780637ce3489b1461035057610206565b806343b1f3cb146102b457806348c7e528146102c75780634b989ce3146102da5780636ab34a4a146102ed57610206565b8063238ac933116101d9578063238ac933146102895780632705c55b146102915780633011d3d5146102a4578063323b9b2b146102ac57610206565b8063080270a81461020b5780630f58d242146102345780631e1bff3f146102545780631e64610c14610274575b600080fd5b61021e6102193660046126cc565b610464565b60405161022b9190612b73565b60405180910390f35b6102476102423660046129c7565b610728565b60405161022b9190613023565b61026761026236600461260e565b610749565b60405161022b9190612bb7565b61027c6107b9565b60405161022b9190612b22565b61027c6107c8565b61026761029f366004612aa2565b6107d7565b61027c610926565b610247610935565b6102476102c23660046129c7565b61093b565b6102676102d53660046125f2565b61094d565b6102676102e8366004612722565b610962565b6103006102fb3660046129c7565b610b5f565b60405161022b9190612f7f565b61026761031b3660046125f2565b610c8c565b61026761032e3660046127fd565b610cf2565b61033b610d46565b005b61024761034b3660046126a1565b610d91565b61026761035e3660046129c7565b610dae565b61027c610df8565b610247610e07565b61027c610e0d565b6102676103893660046127fd565b610e1c565b61026761039c36600461287f565b610e6a565b6102476111c2565b6102476103b73660046125f2565b6111c8565b6102476103ca3660046126a1565b6111e3565b6102676103dd366004612919565b611214565b6102476103f03660046125f2565b61163f565b6102476104033660046126a1565b61165a565b6102476104163660046126a1565b611676565b610247611693565b61033b6104313660046125f2565b611699565b61024761170a565b61033b61044c366004612646565b611710565b61026761045f3660046129f7565b6117f2565b606060008082866104c757606c8054806020026020016040519081016040528092919081815260200182805480156104bb57602002820191906000526020600020905b8154815260200190600101908083116104a7575b505050505090506105a7565b8660011415610538576001600160a01b0388166000908152606e6020908152604091829020805483518184028101840190945280845290918301828280156104bb57602002820191906000526020600020908154815260200190600101908083116104a757505050505090506105a7565b86600214156105a7576001600160a01b0388166000908152607060209081526040918290208054835181840281018401909452808452909183018282801561059f57602002820191906000526020600020905b81548152602001906001019080831161058b575b505050505090505b60006105c86105c0886105ba818a611957565b90611963565b835190611963565b90508681106105d9578692506105dd565b8092505b81516105ed886105ba818a611957565b106106135760405162461bcd60e51b815260040161060a90612ea7565b60405180910390fd5b826106305760405162461bcd60e51b815260040161060a90612f5a565b60008367ffffffffffffffff81111561065957634e487b7160e01b600052604160045260246000fd5b604051908082528060200260200182016040528015610682578160200160208202803683370190505b5090506000610692836001611963565b90505b8486101561071a578381815181106106bd57634e487b7160e01b600052603260045260246000fd5b60200260200101518287815181106106e557634e487b7160e01b600052603260045260246000fd5b6020908102919091010152806106fa5761071a565b8561070481613166565b965050808061071290613114565b915050610695565b509998505050505050505050565b606c818154811061073857600080fd5b600091825260209091200154905081565b600061075361196f565b6001600160a01b0316610764610e0d565b6001600160a01b03161461078a5760405162461bcd60e51b815260040161060a90612e3b565b506001600160a01b0382166000908152606560205260409020805482151560ff19909116179055600192915050565b6068546001600160a01b031681565b6066546001600160a01b031681565b6000838152606a602052604081206009810154607354607254849283928392899161082291670de0b6b3a76400009161081c9182906108168888611957565b90611957565b90611973565b92508560040154600114156108a757856005015481101561088b57600586015461084c9082611963565b9450610864670de0b6b3a764000061081c8785611957565b9350610870838561307a565b881015610886576000965050505050505061091f565b6108a2565b828810156108a2576000965050505050505061091f565b610914565b85600501548111156108fd5760058601546108c3908290611963565b94506108db670de0b6b3a764000061081c8785611957565b93506108e7838561307a565b8810156108a2576000965050505050505061091f565b82881015610914576000965050505050505061091f565b600196505050505050505b9392505050565b6067546001600160a01b031681565b606c5490565b606d6020526000908152604090205481565b60656020526000908152604090205460ff1681565b3360009081526065602052604081205460ff166109915760405162461bcd60e51b815260040161060a90612cce565b6000805b8751811015610b33576000606a60008a84815181106109c457634e487b7160e01b600052603260045260246000fd5b602002602001015181526020019081526020016000209050610a398983815181106109ff57634e487b7160e01b600052603260045260246000fd5b6020026020010151878481518110610a2757634e487b7160e01b600052603260045260246000fd5b602002602001015183600a01546107d7565b610b205782610a4781613166565b935050610b1e8a8260038c8681518110610a7157634e487b7160e01b600052603260045260246000fd5b60200260200101518c8781518110610a9957634e487b7160e01b600052603260045260246000fd5b60200260200101518c8881518110610ac157634e487b7160e01b600052603260045260246000fd5b60200260200101518c8981518110610ae957634e487b7160e01b600052603260045260246000fd5b60200260200101518c8a81518110610b1157634e487b7160e01b600052603260045260246000fd5b602002602001015161197f565b505b5080610b2b81613166565b915050610995565b5080610b515760405162461bcd60e51b815260040161060a90612d12565b506001979650505050505050565b610b6761235f565b6000828152606a602090815260409182902082516101608101845281546001600160a01b031681526001820154928101929092526002810180549293919291840191610bb29061312b565b80601f0160208091040260200160405190810160405280929190818152602001828054610bde9061312b565b8015610c2b5780601f10610c0057610100808354040283529160200191610c2b565b820191906000526020600020905b815481529060010190602001808311610c0e57829003601f168201915b5050505050815260200160038201548152602001600482015481526020016005820154815260200160068201548152602001600782015481526020016008820154815260200160098201548152602001600a8201548152505090505b919050565b6000610c9661196f565b6001600160a01b0316610ca7610e0d565b6001600160a01b031614610ccd5760405162461bcd60e51b815260040161060a90612e3b565b50606680546001600160a01b0383166001600160a01b03199091161790556001919050565b6000858152606a6020526040812080546001600160a01b03163314610d295760405162461bcd60e51b815260040161060a90612ecb565b610d3a888260028a8a8a8a8a61197f565b98975050505050505050565b610d4e61196f565b6001600160a01b0316610d5f610e0d565b6001600160a01b031614610d855760405162461bcd60e51b815260040161060a90612e3b565b610d8f6000611bf2565b565b606f60209081526000928352604080842090915290825290205481565b6000610db861196f565b6001600160a01b0316610dc9610e0d565b6001600160a01b031614610def5760405162461bcd60e51b815260040161060a90612e3b565b50607255600190565b6069546001600160a01b031681565b60725481565b6033546001600160a01b031690565b3360009081526065602052604081205460ff16610e4b5760405162461bcd60e51b815260040161060a90612cce565b6000868152606a60205260409020610d3a888260048a8a8a8a8a61197f565b6000868152606a6020526040812080546001600160a01b0316610e9f5760405162461bcd60e51b815260040161060a90612c0e565b6002816003015410610ec35760405162461bcd60e51b815260040161060a90612eed565b6069546040516311cdc9d960e11b81526001600160a01b039091169063239b93b290610efb908c9089908c908c908b90600401612bc2565b60206040518083038186803b158015610f1357600080fd5b505afa158015610f27573d6000803e3d6000fd5b505050506040513d601f19601f82011682018060405250810190610f4b9190612706565b610f675760405162461bcd60e51b815260040161060a90612caa565b610f728886856107d7565b610f8e5760405162461bcd60e51b815260040161060a90612e11565b6009810154600a820154607354607254600091610fbf91670de0b6b3a76400009161081c918290610816898f611957565b905060008287111561105757610fd58784611963565b606754909150610ff0906001600160a01b0316333084611c44565b606754604051630852cd8d60e31b81526001600160a01b03909116906342966c6890611020908490600401613023565b600060405180830381600087803b15801561103a57600080fd5b505af115801561104e573d6000803e3d6000fd5b505050506110ec565b6110618388611963565b60675486546040516340c10f1960e01b81529293506001600160a01b03918216926340c10f19926110989216908590600401612b5a565b602060405180830381600087803b1580156110b257600080fd5b505af11580156110c6573d6000803e3d6000fd5b505050506040513d601f19601f820116820180604052508101906110ea9190612706565b505b606754611104906001600160a01b0316333085611c44565b606854606754611121916001600160a01b03918216911684611ca2565b606860009054906101000a90046001600160a01b03166001600160a01b031663d10c06a26040518163ffffffff1660e01b8152600401602060405180830381600087803b15801561117157600080fd5b505af1158015611185573d6000803e3d6000fd5b505050506040513d601f19601f820116820180604052508101906111a99190612706565b5050505050600a01919091555060019695505050505050565b60735481565b6001600160a01b031660009081526070602052604090205490565b606e60205281600052604060002081815481106111ff57600080fd5b90600052602060002001600091509150505481565b606b546000908152606a60205260408120896112425760405162461bcd60e51b815260040161060a90612c3c565b6003810154156112645760405162461bcd60e51b815260040161060a90612eed565b6069546040516311cdc9d960e11b81526001600160a01b039091169063239b93b29061129c908e9089908e908c908a90600401612bc2565b60206040518083038186803b1580156112b457600080fd5b505afa1580156112c8573d6000803e3d6000fd5b505050506040513d601f19601f820116820180604052508101906112ec9190612706565b6113085760405162461bcd60e51b815260040161060a90612caa565b6074548a116113295760405162461bcd60e51b815260040161060a90612dce565b6000611356670de0b6b3a764000061081c60735461081c6072546108168b8d61195790919063ffffffff16565b905061137b33306113678e85611cc6565b6067546001600160a01b0316929190611c44565b6067546040516370a0823160e01b81526000916001600160a01b0316906370a08231906113ac903090600401612b22565b60206040518083038186803b1580156113c457600080fd5b505afa1580156113d8573d6000803e3d6000fd5b505050506040513d601f19601f820116820180604052508101906113fc91906129df565b60685460675491925061141c916001600160a01b03908116911684611ca2565b606860009054906101000a90046001600160a01b03166001600160a01b031663d10c06a26040518163ffffffff1660e01b8152600401602060405180830381600087803b15801561146c57600080fd5b505af1158015611480573d6000803e3d6000fd5b505050506040513d601f19601f820116820180604052508101906114a49190612706565b506067546001600160a01b03166342966c686114c08385611963565b6040518263ffffffff1660e01b81526004016114dc9190613023565b600060405180830381600087803b1580156114f657600080fd5b505af115801561150a573d6000803e3d6000fd5b5050606b54606c80546001818101835560008390527f2b4a51ab505fc96a0952efda2ba61bcd3078d4c02c39a186ec16f21883fbe016909101929092555461155493509150611963565b606b80546000908152606d602090815260408083209490945533808352606e8252938220925483546001818101865585855292842001559290525461159891611963565b336000908152606f60209081526040808320606b805485529252822092909255815491906115c583613166565b909155505082546001600160a01b031916331783556001830189905587516115f690600285019060208b01906123c2565b5060016003840155600483018a905560058301879055600683018b9055600983018690556116248183611963565b600a909301929092555060019b9a5050505050505050505050565b6001600160a01b03166000908152606e602052604090205490565b607060205281600052604060002081815481106111ff57600080fd5b607160209081526000928352604080842090915290825290205481565b60745481565b6116a161196f565b6001600160a01b03166116b2610e0d565b6001600160a01b0316146116d85760405162461bcd60e51b815260040161060a90612e3b565b6001600160a01b0381166116fe5760405162461bcd60e51b815260040161060a90612c64565b61170781611bf2565b50565b606b5481565b600054610100900460ff1680611729575060005460ff16155b6117455760405162461bcd60e51b815260040161060a90612d80565b600054610100900460ff16158015611770576000805460ff1961ff0019909116610100171660011790555b611778611cd2565b606680546001600160a01b038088166001600160a01b03199283161790925560688054878416908316179055606780548684169083161790556127106073556069805492851692909116919091179055670de0b6b3a7640000607455603260725580156117eb576000805461ff00191690555b5050505050565b60006117fc61196f565b6001600160a01b031661180d610e0d565b6001600160a01b0316146118335760405162461bcd60e51b815260040161060a90612e3b565b6040518061016001604052808d6001600160a01b031681526020018c81526020018b81526020018a815260200189815260200188815260200187815260200186815260200185815260200184815260200183815250606a60008f815260200190815260200160002060008201518160000160006101000a8154816001600160a01b0302191690836001600160a01b031602179055506020820151816001015560408201518160020190805190602001906118ee9291906123c2565b50606082015160038201556080820151600482015560a0820151600582015560c0820151600682015560e082015160078201556101008201516008820155610120820151600982015561014090910151600a909101555060019c9b505050505050505050505050565b600061091f82846130b2565b600061091f82846130d1565b3390565b600061091f8284613092565b86546000906001600160a01b03166119a95760405162461bcd60e51b815260040161060a90612c0e565b60028860030154106119cd5760405162461bcd60e51b815260040161060a90612eed565b6069546040516311cdc9d960e11b81526001600160a01b039091169063239b93b290611a05908c9087908a908a908990600401612bc2565b60206040518083038186803b158015611a1d57600080fd5b505afa158015611a31573d6000803e3d6000fd5b505050506040513d601f19601f82011682018060405250810190611a559190612706565b611a715760405162461bcd60e51b815260040161060a90612caa565b8754600489015487916001600160a01b0316906001811415611a9c57611a978b87611d56565b611aa6565b611aa68b87611f73565b606860009054906101000a90046001600160a01b03166001600160a01b031663d10c06a26040518163ffffffff1660e01b8152600401602060405180830381600087803b158015611af657600080fd5b505af1158015611b0a573d6000803e3d6000fd5b505050506040513d601f19601f82011682018060405250810190611b2e9190612706565b5060038b018a905560078b0186905560088b01889055611b5183606d606c611ffa565b6001600160a01b0382166000908152606f60209081526040808320606e909252909120611b7f918591611ffa565b6001600160a01b038216600090815260706020908152604082208054600181810183559184529190922001849055611bba906105ba846111c8565b6001600160a01b0390921660009081526071602090815260408083209583529490529290922055506001905098975050505050505050565b603380546001600160a01b038381166001600160a01b0319831681179093556040519116919082907f8be0079c531659141344cd1fd0a4f28419497f9722a3daafe3b4186f6b6457e090600090a35050565b611c9c846323b872dd60e01b858585604051602401611c6593929190612b36565b60408051601f198184030181529190526020810180516001600160e01b03166001600160e01b0319909316929092179091526120d7565b50505050565b611cc18363a9059cbb60e01b8484604051602401611c65929190612b5a565b505050565b600061091f828461307a565b600054610100900460ff1680611ceb575060005460ff16155b611d075760405162461bcd60e51b815260040161060a90612d80565b600054610100900460ff16158015611d32576000805460ff1961ff0019909116610100171660011790555b611d3a612166565b611d426121d9565b8015611707576000805461ff001916905550565b81546009830154600a84015460058501546073546072546001600160a01b039095169460009485948594919389939192918691611da791670de0b6b3a76400009161081c9182906108168a8c611957565b905081841115611e8b57611dbb8483611963565b9750611dd3670de0b6b3a764000061081c8a88611957565b9650611ddf8388611cc6565b606854606754919750611e01916001600160a01b039081169133911684611c44565b6067546040516340c10f1960e01b81526001600160a01b03909116906340c10f1990611e33908c908a90600401612b5a565b602060405180830381600087803b158015611e4d57600080fd5b505af1158015611e61573d6000803e3d6000fd5b505050506040513d601f19601f82011682018060405250810190611e859190612706565b50611f66565b611e958285611963565b9750611ea18886611957565b965082871115611eb45760009550611f66565b611ebe8388611963565b606854606754919750611ee0916001600160a01b039081169133911684611c44565b6067546040516340c10f1960e01b81526001600160a01b03909116906340c10f1990611f12908c908a90600401612b5a565b602060405180830381600087803b158015611f2c57600080fd5b505af1158015611f40573d6000803e3d6000fd5b505050506040513d601f19601f82011682018060405250810190611f649190612706565b505b5050505050505050505050565b81546009830154600a84015460058501546073546072546001600160a01b039095169460009485948594919389939192918691611fc491670de0b6b3a76400009161081c9182906108168a8c611957565b905081841015611fd857611dbb8285611963565b611fe28483611963565b9750611ea1670de0b6b3a764000061081c8a88611957565b6000838152602083905260408120548254909190839061201b906001611963565b8154811061203957634e487b7160e01b600052603260045260246000fd5b9060005260206000200154905081846000838152602001908152602001600020819055508083838154811061207e57634e487b7160e01b600052603260045260246000fd5b600091825260208083209091019290925586815290859052604081205582548390806120ba57634e487b7160e01b600052603160045260246000fd5b600190038181906000526020600020016000905590555050505050565b600061212c826040518060400160405280602081526020017f5361666545524332303a206c6f772d6c6576656c2063616c6c206661696c6564815250856001600160a01b03166122499092919063ffffffff16565b805190915015611cc1578080602001905181019061214a9190612706565b611cc15760405162461bcd60e51b815260040161060a90612f10565b600054610100900460ff168061217f575060005460ff16155b61219b5760405162461bcd60e51b815260040161060a90612d80565b600054610100900460ff16158015611d42576000805460ff1961ff0019909116610100171660011790558015611707576000805461ff001916905550565b600054610100900460ff16806121f2575060005460ff16155b61220e5760405162461bcd60e51b815260040161060a90612d80565b600054610100900460ff16158015612239576000805460ff1961ff0019909116610100171660011790555b611d4261224461196f565b611bf2565b60606122588484600085612260565b949350505050565b6060824710156122825760405162461bcd60e51b815260040161060a90612d3a565b61228b85612320565b6122a75760405162461bcd60e51b815260040161060a90612e70565b600080866001600160a01b031685876040516122c39190612b06565b60006040518083038185875af1925050503d8060008114612300576040519150601f19603f3d011682016040523d82523d6000602084013e612305565b606091505b5091509150612315828286612326565b979650505050505050565b3b151590565b6060831561233557508161091f565b8251156123455782518084602001fd5b8160405162461bcd60e51b815260040161060a9190612bfb565b60405180610160016040528060006001600160a01b03168152602001600081526020016060815260200160008152602001600081526020016000815260200160008152602001600081526020016000815260200160008152602001600081525090565b8280546123ce9061312b565b90600052602060002090601f0160209004810192826123f05760008555612436565b82601f1061240957805160ff1916838001178555612436565b82800160010185558215612436579182015b8281111561243657825182559160200191906001019061241b565b50612442929150612446565b5090565b5b808211156124425760008155600101612447565b8035610c87816131ad565b600082601f830112612476578081fd5b8135602061248b61248683613056565b61302c565b82815281810190858301855b858110156124c0576124ae898684358b0101612587565b84529284019290840190600101612497565b5090979650505050505050565b600082601f8301126124dd578081fd5b813560206124ed61248683613056565b82815281810190858301855b858110156124c057612510898684358b0101612587565b845292840192908401906001016124f9565b600082601f830112612532578081fd5b8135602061254261248683613056565b828152818101908583018385028701840188101561255e578586fd5b855b858110156124c057813584529284019290840190600101612560565b8035610c87816131c2565b600082601f830112612597578081fd5b813567ffffffffffffffff8111156125b1576125b1613197565b6125c4601f8201601f191660200161302c565b8181528460208386010111156125d8578283fd5b816020850160208301379081016020019190915292915050565b600060208284031215612603578081fd5b813561091f816131ad565b60008060408385031215612620578081fd5b823561262b816131ad565b9150602083013561263b816131c2565b809150509250929050565b6000806000806080858703121561265b578182fd5b8435612666816131ad565b93506020850135612676816131ad565b92506040850135612686816131ad565b91506060850135612696816131ad565b939692955090935050565b600080604083850312156126b3578182fd5b82356126be816131ad565b946020939093013593505050565b600080600080608085870312156126e1578384fd5b84356126ec816131ad565b966020860135965060408601359560600135945092505050565b600060208284031215612717578081fd5b815161091f816131c2565b60008060008060008060c0878903121561273a578384fd5b6127438761257c565b9550602087013567ffffffffffffffff8082111561275f578586fd5b61276b8a838b01612522565b96506040890135915080821115612780578586fd5b61278c8a838b01612522565b955060608901359150808211156127a1578384fd5b6127ad8a838b016124cd565b945060808901359150808211156127c2578384fd5b6127ce8a838b01612522565b935060a08901359150808211156127e3578283fd5b506127f089828a01612466565b9150509295509295509295565b60008060008060008060c08789031215612815578384fd5b8635612820816131c2565b95506020870135945060408701359350606087013567ffffffffffffffff8082111561284a578384fd5b6128568a838b01612587565b94506080890135935060a0890135915080821115612872578283fd5b506127f089828a01612587565b600080600080600080600060e0888a031215612899578485fd5b87356128a4816131c2565b96506020880135955060408801359450606088013567ffffffffffffffff808211156128ce578283fd5b6128da8b838c01612587565b955060808a0135945060a08a01359150808211156128f6578283fd5b506129038a828b01612587565b92505060c0880135905092959891949750929550565b60008060008060008060008060006101208a8c031215612937578283fd5b8935612942816131c2565b985060208a0135975060408a0135965060608a0135955060808a0135945060a08a013567ffffffffffffffff8082111561297a578485fd5b6129868d838e01612587565b955060c08c0135945060e08c013593506101008c01359150808211156129aa578283fd5b506129b78c828d01612587565b9150509295985092959850929598565b6000602082840312156129d8578081fd5b5035919050565b6000602082840312156129f0578081fd5b5051919050565b6000806000806000806000806000806000806101808d8f031215612a19578586fd5b8c359b50612a2960208e0161245b565b9a5060408d0135995067ffffffffffffffff60608e01351115612a4a578586fd5b612a5a8e60608f01358f01612587565b9b9e9a9d50989b60808101359a60a08201359a5060c0820135995060e08201359850610100820135975061012082013596506101408201359550610160909101359350915050565b600080600060608486031215612ab6578081fd5b505081359360208301359350604090920135919050565b6001600160a01b03169052565b60008151808452612af28160208601602086016130e8565b601f01601f19169290920160200192915050565b60008251612b188184602087016130e8565b9190910192915050565b6001600160a01b0391909116815260200190565b6001600160a01b039384168152919092166020820152604081019190915260600190565b6001600160a01b03929092168252602082015260400190565b6020808252825182820181905260009190848201906040850190845b81811015612bab57835183529284019291840191600101612b8f565b50909695505050505050565b901515815260200190565b6000861515825285602083015284604083015260a06060830152612be960a0830185612ada565b8281036080840152610d3a8185612ada565b60006020825261091f6020830184612ada565b6020808252601490820152731bdc99195c88191bd95cc81b9bdd08195e1a5cdd60621b604082015260600190565b6020808252600e908201526d1b585c99da5b881b9bc819dbdbd960921b604082015260600190565b60208082526026908201527f4f776e61626c653a206e6577206f776e657220697320746865207a65726f206160408201526564647265737360d01b606082015260800190565b6020808252600a908201526937b930b1b6329032b93960b11b604082015260600190565b60208082526024908201527f6578656375746f723a2063616c6c6572206973206e6f742074686520657865636040820152633aba37b960e11b606082015260800190565b6020808252600e908201526d2737903634b8bab4b230ba34b7b760911b604082015260600190565b60208082526026908201527f416464726573733a20696e73756666696369656e742062616c616e636520666f6040820152651c8818d85b1b60d21b606082015260800190565b6020808252602e908201527f496e697469616c697a61626c653a20636f6e747261637420697320616c72656160408201526d191e481a5b9a5d1a585b1a5e995960921b606082015260800190565b60208082526023908201527f546865207472616e73616374696f6e20616d6f756e7420697320746f6f20736d604082015262185b1b60ea1b606082015260800190565b60208082526010908201526f155cd95c881a5cc818985b9adc9d5c1d60821b604082015260600190565b6020808252818101527f4f776e61626c653a2063616c6c6572206973206e6f7420746865206f776e6572604082015260600190565b6020808252601d908201527f416464726573733a2063616c6c20746f206e6f6e2d636f6e7472616374000000604082015260600190565b6020808252600a90820152693632b733ba341032b93960b11b604082015260600190565b6020808252600890820152673ab9b2b91032b93960c11b604082015260600190565b60208082526009908201526839ba30ba329032b93960b91b604082015260600190565b6020808252602a908201527f5361666545524332303a204552433230206f7065726174696f6e20646964206e6040820152691bdd081cdd58d8d9595960b21b606082015260800190565b6020808252600b908201526a185c9c881b9bc819dbdbd960aa1b604082015260600190565b600060208252612f93602083018451612acd565b602083015160408301526040830151610160806060850152612fb9610180850183612ada565b915060608501516080850152608085015160a085015260a085015160c085015260c085015160e085015260e0850151610100818187015280870151915050610120818187015280870151915050610140818187015280870151838701525050508091505092915050565b90815260200190565b60405181810167ffffffffffffffff8111828210171561304e5761304e613197565b604052919050565b600067ffffffffffffffff82111561307057613070613197565b5060209081020190565b6000821982111561308d5761308d613181565b500190565b6000826130ad57634e487b7160e01b81526012600452602481fd5b500490565b60008160001904831182151516156130cc576130cc613181565b500290565b6000828210156130e3576130e3613181565b500390565b60005b838110156131035781810151838201526020016130eb565b83811115611c9c5750506000910152565b60008161312357613123613181565b506000190190565b60028104600182168061313f57607f821691505b6020821081141561316057634e487b7160e01b600052602260045260246000fd5b50919050565b600060001982141561317a5761317a613181565b5060010190565b634e487b7160e01b600052601160045260246000fd5b634e487b7160e01b600052604160045260246000fd5b6001600160a01b038116811461170757600080fd5b801515811461170757600080fdfea26469706673582212205fa1620a9e42b4b7d4efdcb04e9c117dd3eba63fa425f547692289d6801e991e64736f6c63430008000033",
					"opcodes": "PUSH1 0x80 PUSH1 0x40 MSTORE CALLVALUE DUP1 ISZERO PUSH2 0x10 JUMPI PUSH1 0x0 DUP1 REVERT JUMPDEST POP PUSH2 0x3206 DUP1 PUSH2 0x20 PUSH1 0x0 CODECOPY PUSH1 0x0 RETURN INVALID PUSH1 0x80 PUSH1 0x40 MSTORE CALLVALUE DUP1 ISZERO PUSH2 0x10 JUMPI PUSH1 0x0 DUP1 REVERT JUMPDEST POP PUSH1 0x4 CALLDATASIZE LT PUSH2 0x206 JUMPI PUSH1 0x0 CALLDATALOAD PUSH1 0xE0 SHR DUP1 PUSH4 0x7DC0D1D0 GT PUSH2 0x11A JUMPI DUP1 PUSH4 0xDB4A5AA9 GT PUSH2 0xAD JUMPI DUP1 PUSH4 0xF14053AD GT PUSH2 0x7C JUMPI DUP1 PUSH4 0xF14053AD EQ PUSH2 0x41B JUMPI DUP1 PUSH4 0xF2FDE38B EQ PUSH2 0x423 JUMPI DUP1 PUSH4 0xF7AB69FD EQ PUSH2 0x436 JUMPI DUP1 PUSH4 0xF8C8765E EQ PUSH2 0x43E JUMPI DUP1 PUSH4 0xFC234D06 EQ PUSH2 0x451 JUMPI PUSH2 0x206 JUMP JUMPDEST DUP1 PUSH4 0xDB4A5AA9 EQ PUSH2 0x3CF JUMPI DUP1 PUSH4 0xE4E95520 EQ PUSH2 0x3E2 JUMPI DUP1 PUSH4 0xEC4C4F34 EQ PUSH2 0x3F5 JUMPI DUP1 PUSH4 0xF0C765E4 EQ PUSH2 0x408 JUMPI PUSH2 0x206 JUMP JUMPDEST DUP1 PUSH4 0xA8ECB028 GT PUSH2 0xE9 JUMPI DUP1 PUSH4 0xA8ECB028 EQ PUSH2 0x38E JUMPI DUP1 PUSH4 0xAAF5EB68 EQ PUSH2 0x3A1 JUMPI DUP1 PUSH4 0xAECF77B1 EQ PUSH2 0x3A9 JUMPI DUP1 PUSH4 0xC2EC527D EQ PUSH2 0x3BC JUMPI PUSH2 0x206 JUMP JUMPDEST DUP1 PUSH4 0x7DC0D1D0 EQ PUSH2 0x363 JUMPI DUP1 PUSH4 0x7FD6F15C EQ PUSH2 0x36B JUMPI DUP1 PUSH4 0x8DA5CB5B EQ PUSH2 0x373 JUMPI DUP1 PUSH4 0xA0AD12E2 EQ PUSH2 0x37B JUMPI PUSH2 0x206 JUMP JUMPDEST DUP1 PUSH4 0x43B1F3CB GT PUSH2 0x19D JUMPI DUP1 PUSH4 0x6C19E783 GT PUSH2 0x16C JUMPI DUP1 PUSH4 0x6C19E783 EQ PUSH2 0x30D JUMPI DUP1 PUSH4 0x6E812437 EQ PUSH2 0x320 JUMPI DUP1 PUSH4 0x715018A6 EQ PUSH2 0x333 JUMPI DUP1 PUSH4 0x7BE3A1A1 EQ PUSH2 0x33D JUMPI DUP1 PUSH4 0x7CE3489B EQ PUSH2 0x350 JUMPI PUSH2 0x206 JUMP JUMPDEST DUP1 PUSH4 0x43B1F3CB EQ PUSH2 0x2B4 JUMPI DUP1 PUSH4 0x48C7E528 EQ PUSH2 0x2C7 JUMPI DUP1 PUSH4 0x4B989CE3 EQ PUSH2 0x2DA JUMPI DUP1 PUSH4 0x6AB34A4A EQ PUSH2 0x2ED JUMPI PUSH2 0x206 JUMP JUMPDEST DUP1 PUSH4 0x238AC933 GT PUSH2 0x1D9 JUMPI DUP1 PUSH4 0x238AC933 EQ PUSH2 0x289 JUMPI DUP1 PUSH4 0x2705C55B EQ PUSH2 0x291 JUMPI DUP1 PUSH4 0x3011D3D5 EQ PUSH2 0x2A4 JUMPI DUP1 PUSH4 0x323B9B2B EQ PUSH2 0x2AC JUMPI PUSH2 0x206 JUMP JUMPDEST DUP1 PUSH4 0x80270A8 EQ PUSH2 0x20B JUMPI DUP1 PUSH4 0xF58D242 EQ PUSH2 0x234 JUMPI DUP1 PUSH4 0x1E1BFF3F EQ PUSH2 0x254 JUMPI DUP1 PUSH4 0x1E64610C EQ PUSH2 0x274 JUMPI JUMPDEST PUSH1 0x0 DUP1 REVERT JUMPDEST PUSH2 0x21E PUSH2 0x219 CALLDATASIZE PUSH1 0x4 PUSH2 0x26CC JUMP JUMPDEST PUSH2 0x464 JUMP JUMPDEST PUSH1 0x40 MLOAD PUSH2 0x22B SWAP2 SWAP1 PUSH2 0x2B73 JUMP JUMPDEST PUSH1 0x40 MLOAD DUP1 SWAP2 SUB SWAP1 RETURN JUMPDEST PUSH2 0x247 PUSH2 0x242 CALLDATASIZE PUSH1 0x4 PUSH2 0x29C7 JUMP JUMPDEST PUSH2 0x728 JUMP JUMPDEST PUSH1 0x40 MLOAD PUSH2 0x22B SWAP2 SWAP1 PUSH2 0x3023 JUMP JUMPDEST PUSH2 0x267 PUSH2 0x262 CALLDATASIZE PUSH1 0x4 PUSH2 0x260E JUMP JUMPDEST PUSH2 0x749 JUMP JUMPDEST PUSH1 0x40 MLOAD PUSH2 0x22B SWAP2 SWAP1 PUSH2 0x2BB7 JUMP JUMPDEST PUSH2 0x27C PUSH2 0x7B9 JUMP JUMPDEST PUSH1 0x40 MLOAD PUSH2 0x22B SWAP2 SWAP1 PUSH2 0x2B22 JUMP JUMPDEST PUSH2 0x27C PUSH2 0x7C8 JUMP JUMPDEST PUSH2 0x267 PUSH2 0x29F CALLDATASIZE PUSH1 0x4 PUSH2 0x2AA2 JUMP JUMPDEST PUSH2 0x7D7 JUMP JUMPDEST PUSH2 0x27C PUSH2 0x926 JUMP JUMPDEST PUSH2 0x247 PUSH2 0x935 JUMP JUMPDEST PUSH2 0x247 PUSH2 0x2C2 CALLDATASIZE PUSH1 0x4 PUSH2 0x29C7 JUMP JUMPDEST PUSH2 0x93B JUMP JUMPDEST PUSH2 0x267 PUSH2 0x2D5 CALLDATASIZE PUSH1 0x4 PUSH2 0x25F2 JUMP JUMPDEST PUSH2 0x94D JUMP JUMPDEST PUSH2 0x267 PUSH2 0x2E8 CALLDATASIZE PUSH1 0x4 PUSH2 0x2722 JUMP JUMPDEST PUSH2 0x962 JUMP JUMPDEST PUSH2 0x300 PUSH2 0x2FB CALLDATASIZE PUSH1 0x4 PUSH2 0x29C7 JUMP JUMPDEST PUSH2 0xB5F JUMP JUMPDEST PUSH1 0x40 MLOAD PUSH2 0x22B SWAP2 SWAP1 PUSH2 0x2F7F JUMP JUMPDEST PUSH2 0x267 PUSH2 0x31B CALLDATASIZE PUSH1 0x4 PUSH2 0x25F2 JUMP JUMPDEST PUSH2 0xC8C JUMP JUMPDEST PUSH2 0x267 PUSH2 0x32E CALLDATASIZE PUSH1 0x4 PUSH2 0x27FD JUMP JUMPDEST PUSH2 0xCF2 JUMP JUMPDEST PUSH2 0x33B PUSH2 0xD46 JUMP JUMPDEST STOP JUMPDEST PUSH2 0x247 PUSH2 0x34B CALLDATASIZE PUSH1 0x4 PUSH2 0x26A1 JUMP JUMPDEST PUSH2 0xD91 JUMP JUMPDEST PUSH2 0x267 PUSH2 0x35E CALLDATASIZE PUSH1 0x4 PUSH2 0x29C7 JUMP JUMPDEST PUSH2 0xDAE JUMP JUMPDEST PUSH2 0x27C PUSH2 0xDF8 JUMP JUMPDEST PUSH2 0x247 PUSH2 0xE07 JUMP JUMPDEST PUSH2 0x27C PUSH2 0xE0D JUMP JUMPDEST PUSH2 0x267 PUSH2 0x389 CALLDATASIZE PUSH1 0x4 PUSH2 0x27FD JUMP JUMPDEST PUSH2 0xE1C JUMP JUMPDEST PUSH2 0x267 PUSH2 0x39C CALLDATASIZE PUSH1 0x4 PUSH2 0x287F JUMP JUMPDEST PUSH2 0xE6A JUMP JUMPDEST PUSH2 0x247 PUSH2 0x11C2 JUMP JUMPDEST PUSH2 0x247 PUSH2 0x3B7 CALLDATASIZE PUSH1 0x4 PUSH2 0x25F2 JUMP JUMPDEST PUSH2 0x11C8 JUMP JUMPDEST PUSH2 0x247 PUSH2 0x3CA CALLDATASIZE PUSH1 0x4 PUSH2 0x26A1 JUMP JUMPDEST PUSH2 0x11E3 JUMP JUMPDEST PUSH2 0x267 PUSH2 0x3DD CALLDATASIZE PUSH1 0x4 PUSH2 0x2919 JUMP JUMPDEST PUSH2 0x1214 JUMP JUMPDEST PUSH2 0x247 PUSH2 0x3F0 CALLDATASIZE PUSH1 0x4 PUSH2 0x25F2 JUMP JUMPDEST PUSH2 0x163F JUMP JUMPDEST PUSH2 0x247 PUSH2 0x403 CALLDATASIZE PUSH1 0x4 PUSH2 0x26A1 JUMP JUMPDEST PUSH2 0x165A JUMP JUMPDEST PUSH2 0x247 PUSH2 0x416 CALLDATASIZE PUSH1 0x4 PUSH2 0x26A1 JUMP JUMPDEST PUSH2 0x1676 JUMP JUMPDEST PUSH2 0x247 PUSH2 0x1693 JUMP JUMPDEST PUSH2 0x33B PUSH2 0x431 CALLDATASIZE PUSH1 0x4 PUSH2 0x25F2 JUMP JUMPDEST PUSH2 0x1699 JUMP JUMPDEST PUSH2 0x247 PUSH2 0x170A JUMP JUMPDEST PUSH2 0x33B PUSH2 0x44C CALLDATASIZE PUSH1 0x4 PUSH2 0x2646 JUMP JUMPDEST PUSH2 0x1710 JUMP JUMPDEST PUSH2 0x267 PUSH2 0x45F CALLDATASIZE PUSH1 0x4 PUSH2 0x29F7 JUMP JUMPDEST PUSH2 0x17F2 JUMP JUMPDEST PUSH1 0x60 PUSH1 0x0 DUP1 DUP3 DUP7 PUSH2 0x4C7 JUMPI PUSH1 0x6C DUP1 SLOAD DUP1 PUSH1 0x20 MUL PUSH1 0x20 ADD PUSH1 0x40 MLOAD SWAP1 DUP2 ADD PUSH1 0x40 MSTORE DUP1 SWAP3 SWAP2 SWAP1 DUP2 DUP2 MSTORE PUSH1 0x20 ADD DUP3 DUP1 SLOAD DUP1 ISZERO PUSH2 0x4BB JUMPI PUSH1 0x20 MUL DUP3 ADD SWAP2 SWAP1 PUSH1 0x0 MSTORE PUSH1 0x20 PUSH1 0x0 KECCAK256 SWAP1 JUMPDEST DUP2 SLOAD DUP2 MSTORE PUSH1 0x20 ADD SWAP1 PUSH1 0x1 ADD SWAP1 DUP1 DUP4 GT PUSH2 0x4A7 JUMPI JUMPDEST POP POP POP POP POP SWAP1 POP PUSH2 0x5A7 JUMP JUMPDEST DUP7 PUSH1 0x1 EQ ISZERO PUSH2 0x538 JUMPI PUSH1 0x1 PUSH1 0x1 PUSH1 0xA0 SHL SUB DUP9 AND PUSH1 0x0 SWAP1 DUP2 MSTORE PUSH1 0x6E PUSH1 0x20 SWAP1 DUP2 MSTORE PUSH1 0x40 SWAP2 DUP3 SWAP1 KECCAK256 DUP1 SLOAD DUP4 MLOAD DUP2 DUP5 MUL DUP2 ADD DUP5 ADD SWAP1 SWAP5 MSTORE DUP1 DUP5 MSTORE SWAP1 SWAP2 DUP4 ADD DUP3 DUP3 DUP1 ISZERO PUSH2 0x4BB JUMPI PUSH1 0x20 MUL DUP3 ADD SWAP2 SWAP1 PUSH1 0x0 MSTORE PUSH1 0x20 PUSH1 0x0 KECCAK256 SWAP1 DUP2 SLOAD DUP2 MSTORE PUSH1 0x20 ADD SWAP1 PUSH1 0x1 ADD SWAP1 DUP1 DUP4 GT PUSH2 0x4A7 JUMPI POP POP POP POP POP SWAP1 POP PUSH2 0x5A7 JUMP JUMPDEST DUP7 PUSH1 0x2 EQ ISZERO PUSH2 0x5A7 JUMPI PUSH1 0x1 PUSH1 0x1 PUSH1 0xA0 SHL SUB DUP9 AND PUSH1 0x0 SWAP1 DUP2 MSTORE PUSH1 0x70 PUSH1 0x20 SWAP1 DUP2 MSTORE PUSH1 0x40 SWAP2 DUP3 SWAP1 KECCAK256 DUP1 SLOAD DUP4 MLOAD DUP2 DUP5 MUL DUP2 ADD DUP5 ADD SWAP1 SWAP5 MSTORE DUP1 DUP5 MSTORE SWAP1 SWAP2 DUP4 ADD DUP3 DUP3 DUP1 ISZERO PUSH2 0x59F JUMPI PUSH1 0x20 MUL DUP3 ADD SWAP2 SWAP1 PUSH1 0x0 MSTORE PUSH1 0x20 PUSH1 0x0 KECCAK256 SWAP1 JUMPDEST DUP2 SLOAD DUP2 MSTORE PUSH1 0x20 ADD SWAP1 PUSH1 0x1 ADD SWAP1 DUP1 DUP4 GT PUSH2 0x58B JUMPI JUMPDEST POP POP POP POP POP SWAP1 POP JUMPDEST PUSH1 0x0 PUSH2 0x5C8 PUSH2 0x5C0 DUP9 PUSH2 0x5BA DUP2 DUP11 PUSH2 0x1957 JUMP JUMPDEST SWAP1 PUSH2 0x1963 JUMP JUMPDEST DUP4 MLOAD SWAP1 PUSH2 0x1963 JUMP JUMPDEST SWAP1 POP DUP7 DUP2 LT PUSH2 0x5D9 JUMPI DUP7 SWAP3 POP PUSH2 0x5DD JUMP JUMPDEST DUP1 SWAP3 POP JUMPDEST DUP2 MLOAD PUSH2 0x5ED DUP9 PUSH2 0x5BA DUP2 DUP11 PUSH2 0x1957 JUMP JUMPDEST LT PUSH2 0x613 JUMPI PUSH1 0x40 MLOAD PUSH3 0x461BCD PUSH1 0xE5 SHL DUP2 MSTORE PUSH1 0x4 ADD PUSH2 0x60A SWAP1 PUSH2 0x2EA7 JUMP JUMPDEST PUSH1 0x40 MLOAD DUP1 SWAP2 SUB SWAP1 REVERT JUMPDEST DUP3 PUSH2 0x630 JUMPI PUSH1 0x40 MLOAD PUSH3 0x461BCD PUSH1 0xE5 SHL DUP2 MSTORE PUSH1 0x4 ADD PUSH2 0x60A SWAP1 PUSH2 0x2F5A JUMP JUMPDEST PUSH1 0x0 DUP4 PUSH8 0xFFFFFFFFFFFFFFFF DUP2 GT ISZERO PUSH2 0x659 JUMPI PUSH4 0x4E487B71 PUSH1 0xE0 SHL PUSH1 0x0 MSTORE PUSH1 0x41 PUSH1 0x4 MSTORE PUSH1 0x24 PUSH1 0x0 REVERT JUMPDEST PUSH1 0x40 MLOAD SWAP1 DUP1 DUP3 MSTORE DUP1 PUSH1 0x20 MUL PUSH1 0x20 ADD DUP3 ADD PUSH1 0x40 MSTORE DUP1 ISZERO PUSH2 0x682 JUMPI DUP2 PUSH1 0x20 ADD PUSH1 0x20 DUP3 MUL DUP1 CALLDATASIZE DUP4 CALLDATACOPY ADD SWAP1 POP JUMPDEST POP SWAP1 POP PUSH1 0x0 PUSH2 0x692 DUP4 PUSH1 0x1 PUSH2 0x1963 JUMP JUMPDEST SWAP1 POP JUMPDEST DUP5 DUP7 LT ISZERO PUSH2 0x71A JUMPI DUP4 DUP2 DUP2 MLOAD DUP2 LT PUSH2 0x6BD JUMPI PUSH4 0x4E487B71 PUSH1 0xE0 SHL PUSH1 0x0 MSTORE PUSH1 0x32 PUSH1 0x4 MSTORE PUSH1 0x24 PUSH1 0x0 REVERT JUMPDEST PUSH1 0x20 MUL PUSH1 0x20 ADD ADD MLOAD DUP3 DUP8 DUP2 MLOAD DUP2 LT PUSH2 0x6E5 JUMPI PUSH4 0x4E487B71 PUSH1 0xE0 SHL PUSH1 0x0 MSTORE PUSH1 0x32 PUSH1 0x4 MSTORE PUSH1 0x24 PUSH1 0x0 REVERT JUMPDEST PUSH1 0x20 SWAP1 DUP2 MUL SWAP2 SWAP1 SWAP2 ADD ADD MSTORE DUP1 PUSH2 0x6FA JUMPI PUSH2 0x71A JUMP JUMPDEST DUP6 PUSH2 0x704 DUP2 PUSH2 0x3166 JUMP JUMPDEST SWAP7 POP POP DUP1 DUP1 PUSH2 0x712 SWAP1 PUSH2 0x3114 JUMP JUMPDEST SWAP2 POP POP PUSH2 0x695 JUMP JUMPDEST POP SWAP10 SWAP9 POP POP POP POP POP POP POP POP POP JUMP JUMPDEST PUSH1 0x6C DUP2 DUP2 SLOAD DUP2 LT PUSH2 0x738 JUMPI PUSH1 0x0 DUP1 REVERT JUMPDEST PUSH1 0x0 SWAP2 DUP3 MSTORE PUSH1 0x20 SWAP1 SWAP2 KECCAK256 ADD SLOAD SWAP1 POP DUP2 JUMP JUMPDEST PUSH1 0x0 PUSH2 0x753 PUSH2 0x196F JUMP JUMPDEST PUSH1 0x1 PUSH1 0x1 PUSH1 0xA0 SHL SUB AND PUSH2 0x764 PUSH2 0xE0D JUMP JUMPDEST PUSH1 0x1 PUSH1 0x1 PUSH1 0xA0 SHL SUB AND EQ PUSH2 0x78A JUMPI PUSH1 0x40 MLOAD PUSH3 0x461BCD PUSH1 0xE5 SHL DUP2 MSTORE PUSH1 0x4 ADD PUSH2 0x60A SWAP1 PUSH2 0x2E3B JUMP JUMPDEST POP PUSH1 0x1 PUSH1 0x1 PUSH1 0xA0 SHL SUB DUP3 AND PUSH1 0x0 SWAP1 DUP2 MSTORE PUSH1 0x65 PUSH1 0x20 MSTORE PUSH1 0x40 SWAP1 KECCAK256 DUP1 SLOAD DUP3 ISZERO ISZERO PUSH1 0xFF NOT SWAP1 SWAP2 AND OR SWAP1 SSTORE PUSH1 0x1 SWAP3 SWAP2 POP POP JUMP JUMPDEST PUSH1 0x68 SLOAD PUSH1 0x1 PUSH1 0x1 PUSH1 0xA0 SHL SUB AND DUP2 JUMP JUMPDEST PUSH1 0x66 SLOAD PUSH1 0x1 PUSH1 0x1 PUSH1 0xA0 SHL SUB AND DUP2 JUMP JUMPDEST PUSH1 0x0 DUP4 DUP2 MSTORE PUSH1 0x6A PUSH1 0x20 MSTORE PUSH1 0x40 DUP2 KECCAK256 PUSH1 0x9 DUP2 ADD SLOAD PUSH1 0x73 SLOAD PUSH1 0x72 SLOAD DUP5 SWAP3 DUP4 SWAP3 DUP4 SWAP3 DUP10 SWAP2 PUSH2 0x822 SWAP2 PUSH8 0xDE0B6B3A7640000 SWAP2 PUSH2 0x81C SWAP2 DUP3 SWAP1 PUSH2 0x816 DUP9 DUP9 PUSH2 0x1957 JUMP JUMPDEST SWAP1 PUSH2 0x1957 JUMP JUMPDEST SWAP1 PUSH2 0x1973 JUMP JUMPDEST SWAP3 POP DUP6 PUSH1 0x4 ADD SLOAD PUSH1 0x1 EQ ISZERO PUSH2 0x8A7 JUMPI DUP6 PUSH1 0x5 ADD SLOAD DUP2 LT ISZERO PUSH2 0x88B JUMPI PUSH1 0x5 DUP7 ADD SLOAD PUSH2 0x84C SWAP1 DUP3 PUSH2 0x1963 JUMP JUMPDEST SWAP5 POP PUSH2 0x864 PUSH8 0xDE0B6B3A7640000 PUSH2 0x81C DUP8 DUP6 PUSH2 0x1957 JUMP JUMPDEST SWAP4 POP PUSH2 0x870 DUP4 DUP6 PUSH2 0x307A JUMP JUMPDEST DUP9 LT ISZERO PUSH2 0x886 JUMPI PUSH1 0x0 SWAP7 POP POP POP POP POP POP POP PUSH2 0x91F JUMP JUMPDEST PUSH2 0x8A2 JUMP JUMPDEST DUP3 DUP9 LT ISZERO PUSH2 0x8A2 JUMPI PUSH1 0x0 SWAP7 POP POP POP POP POP POP POP PUSH2 0x91F JUMP JUMPDEST PUSH2 0x914 JUMP JUMPDEST DUP6 PUSH1 0x5 ADD SLOAD DUP2 GT ISZERO PUSH2 0x8FD JUMPI PUSH1 0x5 DUP7 ADD SLOAD PUSH2 0x8C3 SWAP1 DUP3 SWAP1 PUSH2 0x1963 JUMP JUMPDEST SWAP5 POP PUSH2 0x8DB PUSH8 0xDE0B6B3A7640000 PUSH2 0x81C DUP8 DUP6 PUSH2 0x1957 JUMP JUMPDEST SWAP4 POP PUSH2 0x8E7 DUP4 DUP6 PUSH2 0x307A JUMP JUMPDEST DUP9 LT ISZERO PUSH2 0x8A2 JUMPI PUSH1 0x0 SWAP7 POP POP POP POP POP POP POP PUSH2 0x91F JUMP JUMPDEST DUP3 DUP9 LT ISZERO PUSH2 0x914 JUMPI PUSH1 0x0 SWAP7 POP POP POP POP POP POP POP PUSH2 0x91F JUMP JUMPDEST PUSH1 0x1 SWAP7 POP POP POP POP POP POP POP JUMPDEST SWAP4 SWAP3 POP POP POP JUMP JUMPDEST PUSH1 0x67 SLOAD PUSH1 0x1 PUSH1 0x1 PUSH1 0xA0 SHL SUB AND DUP2 JUMP JUMPDEST PUSH1 0x6C SLOAD SWAP1 JUMP JUMPDEST PUSH1 0x6D PUSH1 0x20 MSTORE PUSH1 0x0 SWAP1 DUP2 MSTORE PUSH1 0x40 SWAP1 KECCAK256 SLOAD DUP2 JUMP JUMPDEST PUSH1 0x65 PUSH1 0x20 MSTORE PUSH1 0x0 SWAP1 DUP2 MSTORE PUSH1 0x40 SWAP1 KECCAK256 SLOAD PUSH1 0xFF AND DUP2 JUMP JUMPDEST CALLER PUSH1 0x0 SWAP1 DUP2 MSTORE PUSH1 0x65 PUSH1 0x20 MSTORE PUSH1 0x40 DUP2 KECCAK256 SLOAD PUSH1 0xFF AND PUSH2 0x991 JUMPI PUSH1 0x40 MLOAD PUSH3 0x461BCD PUSH1 0xE5 SHL DUP2 MSTORE PUSH1 0x4 ADD PUSH2 0x60A SWAP1 PUSH2 0x2CCE JUMP JUMPDEST PUSH1 0x0 DUP1 JUMPDEST DUP8 MLOAD DUP2 LT ISZERO PUSH2 0xB33 JUMPI PUSH1 0x0 PUSH1 0x6A PUSH1 0x0 DUP11 DUP5 DUP2 MLOAD DUP2 LT PUSH2 0x9C4 JUMPI PUSH4 0x4E487B71 PUSH1 0xE0 SHL PUSH1 0x0 MSTORE PUSH1 0x32 PUSH1 0x4 MSTORE PUSH1 0x24 PUSH1 0x0 REVERT JUMPDEST PUSH1 0x20 MUL PUSH1 0x20 ADD ADD MLOAD DUP2 MSTORE PUSH1 0x20 ADD SWAP1 DUP2 MSTORE PUSH1 0x20 ADD PUSH1 0x0 KECCAK256 SWAP1 POP PUSH2 0xA39 DUP10 DUP4 DUP2 MLOAD DUP2 LT PUSH2 0x9FF JUMPI PUSH4 0x4E487B71 PUSH1 0xE0 SHL PUSH1 0x0 MSTORE PUSH1 0x32 PUSH1 0x4 MSTORE PUSH1 0x24 PUSH1 0x0 REVERT JUMPDEST PUSH1 0x20 MUL PUSH1 0x20 ADD ADD MLOAD DUP8 DUP5 DUP2 MLOAD DUP2 LT PUSH2 0xA27 JUMPI PUSH4 0x4E487B71 PUSH1 0xE0 SHL PUSH1 0x0 MSTORE PUSH1 0x32 PUSH1 0x4 MSTORE PUSH1 0x24 PUSH1 0x0 REVERT JUMPDEST PUSH1 0x20 MUL PUSH1 0x20 ADD ADD MLOAD DUP4 PUSH1 0xA ADD SLOAD PUSH2 0x7D7 JUMP JUMPDEST PUSH2 0xB20 JUMPI DUP3 PUSH2 0xA47 DUP2 PUSH2 0x3166 JUMP JUMPDEST SWAP4 POP POP PUSH2 0xB1E DUP11 DUP3 PUSH1 0x3 DUP13 DUP7 DUP2 MLOAD DUP2 LT PUSH2 0xA71 JUMPI PUSH4 0x4E487B71 PUSH1 0xE0 SHL PUSH1 0x0 MSTORE PUSH1 0x32 PUSH1 0x4 MSTORE PUSH1 0x24 PUSH1 0x0 REVERT JUMPDEST PUSH1 0x20 MUL PUSH1 0x20 ADD ADD MLOAD DUP13 DUP8 DUP2 MLOAD DUP2 LT PUSH2 0xA99 JUMPI PUSH4 0x4E487B71 PUSH1 0xE0 SHL PUSH1 0x0 MSTORE PUSH1 0x32 PUSH1 0x4 MSTORE PUSH1 0x24 PUSH1 0x0 REVERT JUMPDEST PUSH1 0x20 MUL PUSH1 0x20 ADD ADD MLOAD DUP13 DUP9 DUP2 MLOAD DUP2 LT PUSH2 0xAC1 JUMPI PUSH4 0x4E487B71 PUSH1 0xE0 SHL PUSH1 0x0 MSTORE PUSH1 0x32 PUSH1 0x4 MSTORE PUSH1 0x24 PUSH1 0x0 REVERT JUMPDEST PUSH1 0x20 MUL PUSH1 0x20 ADD ADD MLOAD DUP13 DUP10 DUP2 MLOAD DUP2 LT PUSH2 0xAE9 JUMPI PUSH4 0x4E487B71 PUSH1 0xE0 SHL PUSH1 0x0 MSTORE PUSH1 0x32 PUSH1 0x4 MSTORE PUSH1 0x24 PUSH1 0x0 REVERT JUMPDEST PUSH1 0x20 MUL PUSH1 0x20 ADD ADD MLOAD DUP13 DUP11 DUP2 MLOAD DUP2 LT PUSH2 0xB11 JUMPI PUSH4 0x4E487B71 PUSH1 0xE0 SHL PUSH1 0x0 MSTORE PUSH1 0x32 PUSH1 0x4 MSTORE PUSH1 0x24 PUSH1 0x0 REVERT JUMPDEST PUSH1 0x20 MUL PUSH1 0x20 ADD ADD MLOAD PUSH2 0x197F JUMP JUMPDEST POP JUMPDEST POP DUP1 PUSH2 0xB2B DUP2 PUSH2 0x3166 JUMP JUMPDEST SWAP2 POP POP PUSH2 0x995 JUMP JUMPDEST POP DUP1 PUSH2 0xB51 JUMPI PUSH1 0x40 MLOAD PUSH3 0x461BCD PUSH1 0xE5 SHL DUP2 MSTORE PUSH1 0x4 ADD PUSH2 0x60A SWAP1 PUSH2 0x2D12 JUMP JUMPDEST POP PUSH1 0x1 SWAP8 SWAP7 POP POP POP POP POP POP POP JUMP JUMPDEST PUSH2 0xB67 PUSH2 0x235F JUMP JUMPDEST PUSH1 0x0 DUP3 DUP2 MSTORE PUSH1 0x6A PUSH1 0x20 SWAP1 DUP2 MSTORE PUSH1 0x40 SWAP2 DUP3 SWAP1 KECCAK256 DUP3 MLOAD PUSH2 0x160 DUP2 ADD DUP5 MSTORE DUP2 SLOAD PUSH1 0x1 PUSH1 0x1 PUSH1 0xA0 SHL SUB AND DUP2 MSTORE PUSH1 0x1 DUP3 ADD SLOAD SWAP3 DUP2 ADD SWAP3 SWAP1 SWAP3 MSTORE PUSH1 0x2 DUP2 ADD DUP1 SLOAD SWAP3 SWAP4 SWAP2 SWAP3 SWAP2 DUP5 ADD SWAP2 PUSH2 0xBB2 SWAP1 PUSH2 0x312B JUMP JUMPDEST DUP1 PUSH1 0x1F ADD PUSH1 0x20 DUP1 SWAP2 DIV MUL PUSH1 0x20 ADD PUSH1 0x40 MLOAD SWAP1 DUP2 ADD PUSH1 0x40 MSTORE DUP1 SWAP3 SWAP2 SWAP1 DUP2 DUP2 MSTORE PUSH1 0x20 ADD DUP3 DUP1 SLOAD PUSH2 0xBDE SWAP1 PUSH2 0x312B JUMP JUMPDEST DUP1 ISZERO PUSH2 0xC2B JUMPI DUP1 PUSH1 0x1F LT PUSH2 0xC00 JUMPI PUSH2 0x100 DUP1 DUP4 SLOAD DIV MUL DUP4 MSTORE SWAP2 PUSH1 0x20 ADD SWAP2 PUSH2 0xC2B JUMP JUMPDEST DUP3 ADD SWAP2 SWAP1 PUSH1 0x0 MSTORE PUSH1 0x20 PUSH1 0x0 KECCAK256 SWAP1 JUMPDEST DUP2 SLOAD DUP2 MSTORE SWAP1 PUSH1 0x1 ADD SWAP1 PUSH1 0x20 ADD DUP1 DUP4 GT PUSH2 0xC0E JUMPI DUP3 SWAP1 SUB PUSH1 0x1F AND DUP3 ADD SWAP2 JUMPDEST POP POP POP POP POP DUP2 MSTORE PUSH1 0x20 ADD PUSH1 0x3 DUP3 ADD SLOAD DUP2 MSTORE PUSH1 0x20 ADD PUSH1 0x4 DUP3 ADD SLOAD DUP2 MSTORE PUSH1 0x20 ADD PUSH1 0x5 DUP3 ADD SLOAD DUP2 MSTORE PUSH1 0x20 ADD PUSH1 0x6 DUP3 ADD SLOAD DUP2 MSTORE PUSH1 0x20 ADD PUSH1 0x7 DUP3 ADD SLOAD DUP2 MSTORE PUSH1 0x20 ADD PUSH1 0x8 DUP3 ADD SLOAD DUP2 MSTORE PUSH1 0x20 ADD PUSH1 0x9 DUP3 ADD SLOAD DUP2 MSTORE PUSH1 0x20 ADD PUSH1 0xA DUP3 ADD SLOAD DUP2 MSTORE POP POP SWAP1 POP JUMPDEST SWAP2 SWAP1 POP JUMP JUMPDEST PUSH1 0x0 PUSH2 0xC96 PUSH2 0x196F JUMP JUMPDEST PUSH1 0x1 PUSH1 0x1 PUSH1 0xA0 SHL SUB AND PUSH2 0xCA7 PUSH2 0xE0D JUMP JUMPDEST PUSH1 0x1 PUSH1 0x1 PUSH1 0xA0 SHL SUB AND EQ PUSH2 0xCCD JUMPI PUSH1 0x40 MLOAD PUSH3 0x461BCD PUSH1 0xE5 SHL DUP2 MSTORE PUSH1 0x4 ADD PUSH2 0x60A SWAP1 PUSH2 0x2E3B JUMP JUMPDEST POP PUSH1 0x66 DUP1 SLOAD PUSH1 0x1 PUSH1 0x1 PUSH1 0xA0 SHL SUB DUP4 AND PUSH1 0x1 PUSH1 0x1 PUSH1 0xA0 SHL SUB NOT SWAP1 SWAP2 AND OR SWAP1 SSTORE PUSH1 0x1 SWAP2 SWAP1 POP JUMP JUMPDEST PUSH1 0x0 DUP6 DUP2 MSTORE PUSH1 0x6A PUSH1 0x20 MSTORE PUSH1 0x40 DUP2 KECCAK256 DUP1 SLOAD PUSH1 0x1 PUSH1 0x1 PUSH1 0xA0 SHL SUB AND CALLER EQ PUSH2 0xD29 JUMPI PUSH1 0x40 MLOAD PUSH3 0x461BCD PUSH1 0xE5 SHL DUP2 MSTORE PUSH1 0x4 ADD PUSH2 0x60A SWAP1 PUSH2 0x2ECB JUMP JUMPDEST PUSH2 0xD3A DUP9 DUP3 PUSH1 0x2 DUP11 DUP11 DUP11 DUP11 DUP11 PUSH2 0x197F JUMP JUMPDEST SWAP9 SWAP8 POP POP POP POP POP POP POP POP JUMP JUMPDEST PUSH2 0xD4E PUSH2 0x196F JUMP JUMPDEST PUSH1 0x1 PUSH1 0x1 PUSH1 0xA0 SHL SUB AND PUSH2 0xD5F PUSH2 0xE0D JUMP JUMPDEST PUSH1 0x1 PUSH1 0x1 PUSH1 0xA0 SHL SUB AND EQ PUSH2 0xD85 JUMPI PUSH1 0x40 MLOAD PUSH3 0x461BCD PUSH1 0xE5 SHL DUP2 MSTORE PUSH1 0x4 ADD PUSH2 0x60A SWAP1 PUSH2 0x2E3B JUMP JUMPDEST PUSH2 0xD8F PUSH1 0x0 PUSH2 0x1BF2 JUMP JUMPDEST JUMP JUMPDEST PUSH1 0x6F PUSH1 0x20 SWAP1 DUP2 MSTORE PUSH1 0x0 SWAP3 DUP4 MSTORE PUSH1 0x40 DUP1 DUP5 KECCAK256 SWAP1 SWAP2 MSTORE SWAP1 DUP3 MSTORE SWAP1 KECCAK256 SLOAD DUP2 JUMP JUMPDEST PUSH1 0x0 PUSH2 0xDB8 PUSH2 0x196F JUMP JUMPDEST PUSH1 0x1 PUSH1 0x1 PUSH1 0xA0 SHL SUB AND PUSH2 0xDC9 PUSH2 0xE0D JUMP JUMPDEST PUSH1 0x1 PUSH1 0x1 PUSH1 0xA0 SHL SUB AND EQ PUSH2 0xDEF JUMPI PUSH1 0x40 MLOAD PUSH3 0x461BCD PUSH1 0xE5 SHL DUP2 MSTORE PUSH1 0x4 ADD PUSH2 0x60A SWAP1 PUSH2 0x2E3B JUMP JUMPDEST POP PUSH1 0x72 SSTORE PUSH1 0x1 SWAP1 JUMP JUMPDEST PUSH1 0x69 SLOAD PUSH1 0x1 PUSH1 0x1 PUSH1 0xA0 SHL SUB AND DUP2 JUMP JUMPDEST PUSH1 0x72 SLOAD DUP2 JUMP JUMPDEST PUSH1 0x33 SLOAD PUSH1 0x1 PUSH1 0x1 PUSH1 0xA0 SHL SUB AND SWAP1 JUMP JUMPDEST CALLER PUSH1 0x0 SWAP1 DUP2 MSTORE PUSH1 0x65 PUSH1 0x20 MSTORE PUSH1 0x40 DUP2 KECCAK256 SLOAD PUSH1 0xFF AND PUSH2 0xE4B JUMPI PUSH1 0x40 MLOAD PUSH3 0x461BCD PUSH1 0xE5 SHL DUP2 MSTORE PUSH1 0x4 ADD PUSH2 0x60A SWAP1 PUSH2 0x2CCE JUMP JUMPDEST PUSH1 0x0 DUP7 DUP2 MSTORE PUSH1 0x6A PUSH1 0x20 MSTORE PUSH1 0x40 SWAP1 KECCAK256 PUSH2 0xD3A DUP9 DUP3 PUSH1 0x4 DUP11 DUP11 DUP11 DUP11 DUP11 PUSH2 0x197F JUMP JUMPDEST PUSH1 0x0 DUP7 DUP2 MSTORE PUSH1 0x6A PUSH1 0x20 MSTORE PUSH1 0x40 DUP2 KECCAK256 DUP1 SLOAD PUSH1 0x1 PUSH1 0x1 PUSH1 0xA0 SHL SUB AND PUSH2 0xE9F JUMPI PUSH1 0x40 MLOAD PUSH3 0x461BCD PUSH1 0xE5 SHL DUP2 MSTORE PUSH1 0x4 ADD PUSH2 0x60A SWAP1 PUSH2 0x2C0E JUMP JUMPDEST PUSH1 0x2 DUP2 PUSH1 0x3 ADD SLOAD LT PUSH2 0xEC3 JUMPI PUSH1 0x40 MLOAD PUSH3 0x461BCD PUSH1 0xE5 SHL DUP2 MSTORE PUSH1 0x4 ADD PUSH2 0x60A SWAP1 PUSH2 0x2EED JUMP JUMPDEST PUSH1 0x69 SLOAD PUSH1 0x40 MLOAD PUSH4 0x11CDC9D9 PUSH1 0xE1 SHL DUP2 MSTORE PUSH1 0x1 PUSH1 0x1 PUSH1 0xA0 SHL SUB SWAP1 SWAP2 AND SWAP1 PUSH4 0x239B93B2 SWAP1 PUSH2 0xEFB SWAP1 DUP13 SWAP1 DUP10 SWAP1 DUP13 SWAP1 DUP13 SWAP1 DUP12 SWAP1 PUSH1 0x4 ADD PUSH2 0x2BC2 JUMP JUMPDEST PUSH1 0x20 PUSH1 0x40 MLOAD DUP1 DUP4 SUB DUP2 DUP7 DUP1 EXTCODESIZE ISZERO DUP1 ISZERO PUSH2 0xF13 JUMPI PUSH1 0x0 DUP1 REVERT JUMPDEST POP GAS STATICCALL ISZERO DUP1 ISZERO PUSH2 0xF27 JUMPI RETURNDATASIZE PUSH1 0x0 DUP1 RETURNDATACOPY RETURNDATASIZE PUSH1 0x0 REVERT JUMPDEST POP POP POP POP PUSH1 0x40 MLOAD RETURNDATASIZE PUSH1 0x1F NOT PUSH1 0x1F DUP3 ADD AND DUP3 ADD DUP1 PUSH1 0x40 MSTORE POP DUP2 ADD SWAP1 PUSH2 0xF4B SWAP2 SWAP1 PUSH2 0x2706 JUMP JUMPDEST PUSH2 0xF67 JUMPI PUSH1 0x40 MLOAD PUSH3 0x461BCD PUSH1 0xE5 SHL DUP2 MSTORE PUSH1 0x4 ADD PUSH2 0x60A SWAP1 PUSH2 0x2CAA JUMP JUMPDEST PUSH2 0xF72 DUP9 DUP7 DUP6 PUSH2 0x7D7 JUMP JUMPDEST PUSH2 0xF8E JUMPI PUSH1 0x40 MLOAD PUSH3 0x461BCD PUSH1 0xE5 SHL DUP2 MSTORE PUSH1 0x4 ADD PUSH2 0x60A SWAP1 PUSH2 0x2E11 JUMP JUMPDEST PUSH1 0x9 DUP2 ADD SLOAD PUSH1 0xA DUP3 ADD SLOAD PUSH1 0x73 SLOAD PUSH1 0x72 SLOAD PUSH1 0x0 SWAP2 PUSH2 0xFBF SWAP2 PUSH8 0xDE0B6B3A7640000 SWAP2 PUSH2 0x81C SWAP2 DUP3 SWAP1 PUSH2 0x816 DUP10 DUP16 PUSH2 0x1957 JUMP JUMPDEST SWAP1 POP PUSH1 0x0 DUP3 DUP8 GT ISZERO PUSH2 0x1057 JUMPI PUSH2 0xFD5 DUP8 DUP5 PUSH2 0x1963 JUMP JUMPDEST PUSH1 0x67 SLOAD SWAP1 SWAP2 POP PUSH2 0xFF0 SWAP1 PUSH1 0x1 PUSH1 0x1 PUSH1 0xA0 SHL SUB AND CALLER ADDRESS DUP5 PUSH2 0x1C44 JUMP JUMPDEST PUSH1 0x67 SLOAD PUSH1 0x40 MLOAD PUSH4 0x852CD8D PUSH1 0xE3 SHL DUP2 MSTORE PUSH1 0x1 PUSH1 0x1 PUSH1 0xA0 SHL SUB SWAP1 SWAP2 AND SWAP1 PUSH4 0x42966C68 SWAP1 PUSH2 0x1020 SWAP1 DUP5 SWAP1 PUSH1 0x4 ADD PUSH2 0x3023 JUMP JUMPDEST PUSH1 0x0 PUSH1 0x40 MLOAD DUP1 DUP4 SUB DUP2 PUSH1 0x0 DUP8 DUP1 EXTCODESIZE ISZERO DUP1 ISZERO PUSH2 0x103A JUMPI PUSH1 0x0 DUP1 REVERT JUMPDEST POP GAS CALL ISZERO DUP1 ISZERO PUSH2 0x104E JUMPI RETURNDATASIZE PUSH1 0x0 DUP1 RETURNDATACOPY RETURNDATASIZE PUSH1 0x0 REVERT JUMPDEST POP POP POP POP PUSH2 0x10EC JUMP JUMPDEST PUSH2 0x1061 DUP4 DUP9 PUSH2 0x1963 JUMP JUMPDEST PUSH1 0x67 SLOAD DUP7 SLOAD PUSH1 0x40 MLOAD PUSH4 0x40C10F19 PUSH1 0xE0 SHL DUP2 MSTORE SWAP3 SWAP4 POP PUSH1 0x1 PUSH1 0x1 PUSH1 0xA0 SHL SUB SWAP2 DUP3 AND SWAP3 PUSH4 0x40C10F19 SWAP3 PUSH2 0x1098 SWAP3 AND SWAP1 DUP6 SWAP1 PUSH1 0x4 ADD PUSH2 0x2B5A JUMP JUMPDEST PUSH1 0x20 PUSH1 0x40 MLOAD DUP1 DUP4 SUB DUP2 PUSH1 0x0 DUP8 DUP1 EXTCODESIZE ISZERO DUP1 ISZERO PUSH2 0x10B2 JUMPI PUSH1 0x0 DUP1 REVERT JUMPDEST POP GAS CALL ISZERO DUP1 ISZERO PUSH2 0x10C6 JUMPI RETURNDATASIZE PUSH1 0x0 DUP1 RETURNDATACOPY RETURNDATASIZE PUSH1 0x0 REVERT JUMPDEST POP POP POP POP PUSH1 0x40 MLOAD RETURNDATASIZE PUSH1 0x1F NOT PUSH1 0x1F DUP3 ADD AND DUP3 ADD DUP1 PUSH1 0x40 MSTORE POP DUP2 ADD SWAP1 PUSH2 0x10EA SWAP2 SWAP1 PUSH2 0x2706 JUMP JUMPDEST POP JUMPDEST PUSH1 0x67 SLOAD PUSH2 0x1104 SWAP1 PUSH1 0x1 PUSH1 0x1 PUSH1 0xA0 SHL SUB AND CALLER ADDRESS DUP6 PUSH2 0x1C44 JUMP JUMPDEST PUSH1 0x68 SLOAD PUSH1 0x67 SLOAD PUSH2 0x1121 SWAP2 PUSH1 0x1 PUSH1 0x1 PUSH1 0xA0 SHL SUB SWAP2 DUP3 AND SWAP2 AND DUP5 PUSH2 0x1CA2 JUMP JUMPDEST PUSH1 0x68 PUSH1 0x0 SWAP1 SLOAD SWAP1 PUSH2 0x100 EXP SWAP1 DIV PUSH1 0x1 PUSH1 0x1 PUSH1 0xA0 SHL SUB AND PUSH1 0x1 PUSH1 0x1 PUSH1 0xA0 SHL SUB AND PUSH4 0xD10C06A2 PUSH1 0x40 MLOAD DUP2 PUSH4 0xFFFFFFFF AND PUSH1 0xE0 SHL DUP2 MSTORE PUSH1 0x4 ADD PUSH1 0x20 PUSH1 0x40 MLOAD DUP1 DUP4 SUB DUP2 PUSH1 0x0 DUP8 DUP1 EXTCODESIZE ISZERO DUP1 ISZERO PUSH2 0x1171 JUMPI PUSH1 0x0 DUP1 REVERT JUMPDEST POP GAS CALL ISZERO DUP1 ISZERO PUSH2 0x1185 JUMPI RETURNDATASIZE PUSH1 0x0 DUP1 RETURNDATACOPY RETURNDATASIZE PUSH1 0x0 REVERT JUMPDEST POP POP POP POP PUSH1 0x40 MLOAD RETURNDATASIZE PUSH1 0x1F NOT PUSH1 0x1F DUP3 ADD AND DUP3 ADD DUP1 PUSH1 0x40 MSTORE POP DUP2 ADD SWAP1 PUSH2 0x11A9 SWAP2 SWAP1 PUSH2 0x2706 JUMP JUMPDEST POP POP POP POP POP PUSH1 0xA ADD SWAP2 SWAP1 SWAP2 SSTORE POP PUSH1 0x1 SWAP7 SWAP6 POP POP POP POP POP POP JUMP JUMPDEST PUSH1 0x73 SLOAD DUP2 JUMP JUMPDEST PUSH1 0x1 PUSH1 0x1 PUSH1 0xA0 SHL SUB AND PUSH1 0x0 SWAP1 DUP2 MSTORE PUSH1 0x70 PUSH1 0x20 MSTORE PUSH1 0x40 SWAP1 KECCAK256 SLOAD SWAP1 JUMP JUMPDEST PUSH1 0x6E PUSH1 0x20 MSTORE DUP2 PUSH1 0x0 MSTORE PUSH1 0x40 PUSH1 0x0 KECCAK256 DUP2 DUP2 SLOAD DUP2 LT PUSH2 0x11FF JUMPI PUSH1 0x0 DUP1 REVERT JUMPDEST SWAP1 PUSH1 0x0 MSTORE PUSH1 0x20 PUSH1 0x0 KECCAK256 ADD PUSH1 0x0 SWAP2 POP SWAP2 POP POP SLOAD DUP2 JUMP JUMPDEST PUSH1 0x6B SLOAD PUSH1 0x0 SWAP1 DUP2 MSTORE PUSH1 0x6A PUSH1 0x20 MSTORE PUSH1 0x40 DUP2 KECCAK256 DUP10 PUSH2 0x1242 JUMPI PUSH1 0x40 MLOAD PUSH3 0x461BCD PUSH1 0xE5 SHL DUP2 MSTORE PUSH1 0x4 ADD PUSH2 0x60A SWAP1 PUSH2 0x2C3C JUMP JUMPDEST PUSH1 0x3 DUP2 ADD SLOAD ISZERO PUSH2 0x1264 JUMPI PUSH1 0x40 MLOAD PUSH3 0x461BCD PUSH1 0xE5 SHL DUP2 MSTORE PUSH1 0x4 ADD PUSH2 0x60A SWAP1 PUSH2 0x2EED JUMP JUMPDEST PUSH1 0x69 SLOAD PUSH1 0x40 MLOAD PUSH4 0x11CDC9D9 PUSH1 0xE1 SHL DUP2 MSTORE PUSH1 0x1 PUSH1 0x1 PUSH1 0xA0 SHL SUB SWAP1 SWAP2 AND SWAP1 PUSH4 0x239B93B2 SWAP1 PUSH2 0x129C SWAP1 DUP15 SWAP1 DUP10 SWAP1 DUP15 SWAP1 DUP13 SWAP1 DUP11 SWAP1 PUSH1 0x4 ADD PUSH2 0x2BC2 JUMP JUMPDEST PUSH1 0x20 PUSH1 0x40 MLOAD DUP1 DUP4 SUB DUP2 DUP7 DUP1 EXTCODESIZE ISZERO DUP1 ISZERO PUSH2 0x12B4 JUMPI PUSH1 0x0 DUP1 REVERT JUMPDEST POP GAS STATICCALL ISZERO DUP1 ISZERO PUSH2 0x12C8 JUMPI RETURNDATASIZE PUSH1 0x0 DUP1 RETURNDATACOPY RETURNDATASIZE PUSH1 0x0 REVERT JUMPDEST POP POP POP POP PUSH1 0x40 MLOAD RETURNDATASIZE PUSH1 0x1F NOT PUSH1 0x1F DUP3 ADD AND DUP3 ADD DUP1 PUSH1 0x40 MSTORE POP DUP2 ADD SWAP1 PUSH2 0x12EC SWAP2 SWAP1 PUSH2 0x2706 JUMP JUMPDEST PUSH2 0x1308 JUMPI PUSH1 0x40 MLOAD PUSH3 0x461BCD PUSH1 0xE5 SHL DUP2 MSTORE PUSH1 0x4 ADD PUSH2 0x60A SWAP1 PUSH2 0x2CAA JUMP JUMPDEST PUSH1 0x74 SLOAD DUP11 GT PUSH2 0x1329 JUMPI PUSH1 0x40 MLOAD PUSH3 0x461BCD PUSH1 0xE5 SHL DUP2 MSTORE PUSH1 0x4 ADD PUSH2 0x60A SWAP1 PUSH2 0x2DCE JUMP JUMPDEST PUSH1 0x0 PUSH2 0x1356 PUSH8 0xDE0B6B3A7640000 PUSH2 0x81C PUSH1 0x73 SLOAD PUSH2 0x81C PUSH1 0x72 SLOAD PUSH2 0x816 DUP12 DUP14 PUSH2 0x1957 SWAP1 SWAP2 SWAP1 PUSH4 0xFFFFFFFF AND JUMP JUMPDEST SWAP1 POP PUSH2 0x137B CALLER ADDRESS PUSH2 0x1367 DUP15 DUP6 PUSH2 0x1CC6 JUMP JUMPDEST PUSH1 0x67 SLOAD PUSH1 0x1 PUSH1 0x1 PUSH1 0xA0 SHL SUB AND SWAP3 SWAP2 SWAP1 PUSH2 0x1C44 JUMP JUMPDEST PUSH1 0x67 SLOAD PUSH1 0x40 MLOAD PUSH4 0x70A08231 PUSH1 0xE0 SHL DUP2 MSTORE PUSH1 0x0 SWAP2 PUSH1 0x1 PUSH1 0x1 PUSH1 0xA0 SHL SUB AND SWAP1 PUSH4 0x70A08231 SWAP1 PUSH2 0x13AC SWAP1 ADDRESS SWAP1 PUSH1 0x4 ADD PUSH2 0x2B22 JUMP JUMPDEST PUSH1 0x20 PUSH1 0x40 MLOAD DUP1 DUP4 SUB DUP2 DUP7 DUP1 EXTCODESIZE ISZERO DUP1 ISZERO PUSH2 0x13C4 JUMPI PUSH1 0x0 DUP1 REVERT JUMPDEST POP GAS STATICCALL ISZERO DUP1 ISZERO PUSH2 0x13D8 JUMPI RETURNDATASIZE PUSH1 0x0 DUP1 RETURNDATACOPY RETURNDATASIZE PUSH1 0x0 REVERT JUMPDEST POP POP POP POP PUSH1 0x40 MLOAD RETURNDATASIZE PUSH1 0x1F NOT PUSH1 0x1F DUP3 ADD AND DUP3 ADD DUP1 PUSH1 0x40 MSTORE POP DUP2 ADD SWAP1 PUSH2 0x13FC SWAP2 SWAP1 PUSH2 0x29DF JUMP JUMPDEST PUSH1 0x68 SLOAD PUSH1 0x67 SLOAD SWAP2 SWAP3 POP PUSH2 0x141C SWAP2 PUSH1 0x1 PUSH1 0x1 PUSH1 0xA0 SHL SUB SWAP1 DUP2 AND SWAP2 AND DUP5 PUSH2 0x1CA2 JUMP JUMPDEST PUSH1 0x68 PUSH1 0x0 SWAP1 SLOAD SWAP1 PUSH2 0x100 EXP SWAP1 DIV PUSH1 0x1 PUSH1 0x1 PUSH1 0xA0 SHL SUB AND PUSH1 0x1 PUSH1 0x1 PUSH1 0xA0 SHL SUB AND PUSH4 0xD10C06A2 PUSH1 0x40 MLOAD DUP2 PUSH4 0xFFFFFFFF AND PUSH1 0xE0 SHL DUP2 MSTORE PUSH1 0x4 ADD PUSH1 0x20 PUSH1 0x40 MLOAD DUP1 DUP4 SUB DUP2 PUSH1 0x0 DUP8 DUP1 EXTCODESIZE ISZERO DUP1 ISZERO PUSH2 0x146C JUMPI PUSH1 0x0 DUP1 REVERT JUMPDEST POP GAS CALL ISZERO DUP1 ISZERO PUSH2 0x1480 JUMPI RETURNDATASIZE PUSH1 0x0 DUP1 RETURNDATACOPY RETURNDATASIZE PUSH1 0x0 REVERT JUMPDEST POP POP POP POP PUSH1 0x40 MLOAD RETURNDATASIZE PUSH1 0x1F NOT PUSH1 0x1F DUP3 ADD AND DUP3 ADD DUP1 PUSH1 0x40 MSTORE POP DUP2 ADD SWAP1 PUSH2 0x14A4 SWAP2 SWAP1 PUSH2 0x2706 JUMP JUMPDEST POP PUSH1 0x67 SLOAD PUSH1 0x1 PUSH1 0x1 PUSH1 0xA0 SHL SUB AND PUSH4 0x42966C68 PUSH2 0x14C0 DUP4 DUP6 PUSH2 0x1963 JUMP JUMPDEST PUSH1 0x40 MLOAD DUP3 PUSH4 0xFFFFFFFF AND PUSH1 0xE0 SHL DUP2 MSTORE PUSH1 0x4 ADD PUSH2 0x14DC SWAP2 SWAP1 PUSH2 0x3023 JUMP JUMPDEST PUSH1 0x0 PUSH1 0x40 MLOAD DUP1 DUP4 SUB DUP2 PUSH1 0x0 DUP8 DUP1 EXTCODESIZE ISZERO DUP1 ISZERO PUSH2 0x14F6 JUMPI PUSH1 0x0 DUP1 REVERT JUMPDEST POP GAS CALL ISZERO DUP1 ISZERO PUSH2 0x150A JUMPI RETURNDATASIZE PUSH1 0x0 DUP1 RETURNDATACOPY RETURNDATASIZE PUSH1 0x0 REVERT JUMPDEST POP POP PUSH1 0x6B SLOAD PUSH1 0x6C DUP1 SLOAD PUSH1 0x1 DUP2 DUP2 ADD DUP4 SSTORE PUSH1 0x0 DUP4 SWAP1 MSTORE PUSH32 0x2B4A51AB505FC96A0952EFDA2BA61BCD3078D4C02C39A186EC16F21883FBE016 SWAP1 SWAP2 ADD SWAP3 SWAP1 SWAP3 SSTORE SLOAD PUSH2 0x1554 SWAP4 POP SWAP2 POP PUSH2 0x1963 JUMP JUMPDEST PUSH1 0x6B DUP1 SLOAD PUSH1 0x0 SWAP1 DUP2 MSTORE PUSH1 0x6D PUSH1 0x20 SWAP1 DUP2 MSTORE PUSH1 0x40 DUP1 DUP4 KECCAK256 SWAP5 SWAP1 SWAP5 SSTORE CALLER DUP1 DUP4 MSTORE PUSH1 0x6E DUP3 MSTORE SWAP4 DUP3 KECCAK256 SWAP3 SLOAD DUP4 SLOAD PUSH1 0x1 DUP2 DUP2 ADD DUP7 SSTORE DUP6 DUP6 MSTORE SWAP3 DUP5 KECCAK256 ADD SSTORE SWAP3 SWAP1 MSTORE SLOAD PUSH2 0x1598 SWAP2 PUSH2 0x1963 JUMP JUMPDEST CALLER PUSH1 0x0 SWAP1 DUP2 MSTORE PUSH1 0x6F PUSH1 0x20 SWAP1 DUP2 MSTORE PUSH1 0x40 DUP1 DUP4 KECCAK256 PUSH1 0x6B DUP1 SLOAD DUP6 MSTORE SWAP3 MSTORE DUP3 KECCAK256 SWAP3 SWAP1 SWAP3 SSTORE DUP2 SLOAD SWAP2 SWAP1 PUSH2 0x15C5 DUP4 PUSH2 0x3166 JUMP JUMPDEST SWAP1 SWAP2 SSTORE POP POP DUP3 SLOAD PUSH1 0x1 PUSH1 0x1 PUSH1 0xA0 SHL SUB NOT AND CALLER OR DUP4 SSTORE PUSH1 0x1 DUP4 ADD DUP10 SWAP1 SSTORE DUP8 MLOAD PUSH2 0x15F6 SWAP1 PUSH1 0x2 DUP6 ADD SWAP1 PUSH1 0x20 DUP12 ADD SWAP1 PUSH2 0x23C2 JUMP JUMPDEST POP PUSH1 0x1 PUSH1 0x3 DUP5 ADD SSTORE PUSH1 0x4 DUP4 ADD DUP11 SWAP1 SSTORE PUSH1 0x5 DUP4 ADD DUP8 SWAP1 SSTORE PUSH1 0x6 DUP4 ADD DUP12 SWAP1 SSTORE PUSH1 0x9 DUP4 ADD DUP7 SWAP1 SSTORE PUSH2 0x1624 DUP2 DUP4 PUSH2 0x1963 JUMP JUMPDEST PUSH1 0xA SWAP1 SWAP4 ADD SWAP3 SWAP1 SWAP3 SSTORE POP PUSH1 0x1 SWAP12 SWAP11 POP POP POP POP POP POP POP POP POP POP POP JUMP JUMPDEST PUSH1 0x1 PUSH1 0x1 PUSH1 0xA0 SHL SUB AND PUSH1 0x0 SWAP1 DUP2 MSTORE PUSH1 0x6E PUSH1 0x20 MSTORE PUSH1 0x40 SWAP1 KECCAK256 SLOAD SWAP1 JUMP JUMPDEST PUSH1 0x70 PUSH1 0x20 MSTORE DUP2 PUSH1 0x0 MSTORE PUSH1 0x40 PUSH1 0x0 KECCAK256 DUP2 DUP2 SLOAD DUP2 LT PUSH2 0x11FF JUMPI PUSH1 0x0 DUP1 REVERT JUMPDEST PUSH1 0x71 PUSH1 0x20 SWAP1 DUP2 MSTORE PUSH1 0x0 SWAP3 DUP4 MSTORE PUSH1 0x40 DUP1 DUP5 KECCAK256 SWAP1 SWAP2 MSTORE SWAP1 DUP3 MSTORE SWAP1 KECCAK256 SLOAD DUP2 JUMP JUMPDEST PUSH1 0x74 SLOAD DUP2 JUMP JUMPDEST PUSH2 0x16A1 PUSH2 0x196F JUMP JUMPDEST PUSH1 0x1 PUSH1 0x1 PUSH1 0xA0 SHL SUB AND PUSH2 0x16B2 PUSH2 0xE0D JUMP JUMPDEST PUSH1 0x1 PUSH1 0x1 PUSH1 0xA0 SHL SUB AND EQ PUSH2 0x16D8 JUMPI PUSH1 0x40 MLOAD PUSH3 0x461BCD PUSH1 0xE5 SHL DUP2 MSTORE PUSH1 0x4 ADD PUSH2 0x60A SWAP1 PUSH2 0x2E3B JUMP JUMPDEST PUSH1 0x1 PUSH1 0x1 PUSH1 0xA0 SHL SUB DUP2 AND PUSH2 0x16FE JUMPI PUSH1 0x40 MLOAD PUSH3 0x461BCD PUSH1 0xE5 SHL DUP2 MSTORE PUSH1 0x4 ADD PUSH2 0x60A SWAP1 PUSH2 0x2C64 JUMP JUMPDEST PUSH2 0x1707 DUP2 PUSH2 0x1BF2 JUMP JUMPDEST POP JUMP JUMPDEST PUSH1 0x6B SLOAD DUP2 JUMP JUMPDEST PUSH1 0x0 SLOAD PUSH2 0x100 SWAP1 DIV PUSH1 0xFF AND DUP1 PUSH2 0x1729 JUMPI POP PUSH1 0x0 SLOAD PUSH1 0xFF AND ISZERO JUMPDEST PUSH2 0x1745 JUMPI PUSH1 0x40 MLOAD PUSH3 0x461BCD PUSH1 0xE5 SHL DUP2 MSTORE PUSH1 0x4 ADD PUSH2 0x60A SWAP1 PUSH2 0x2D80 JUMP JUMPDEST PUSH1 0x0 SLOAD PUSH2 0x100 SWAP1 DIV PUSH1 0xFF AND ISZERO DUP1 ISZERO PUSH2 0x1770 JUMPI PUSH1 0x0 DUP1 SLOAD PUSH1 0xFF NOT PUSH2 0xFF00 NOT SWAP1 SWAP2 AND PUSH2 0x100 OR AND PUSH1 0x1 OR SWAP1 SSTORE JUMPDEST PUSH2 0x1778 PUSH2 0x1CD2 JUMP JUMPDEST PUSH1 0x66 DUP1 SLOAD PUSH1 0x1 PUSH1 0x1 PUSH1 0xA0 SHL SUB DUP1 DUP9 AND PUSH1 0x1 PUSH1 0x1 PUSH1 0xA0 SHL SUB NOT SWAP3 DUP4 AND OR SWAP1 SWAP3 SSTORE PUSH1 0x68 DUP1 SLOAD DUP8 DUP5 AND SWAP1 DUP4 AND OR SWAP1 SSTORE PUSH1 0x67 DUP1 SLOAD DUP7 DUP5 AND SWAP1 DUP4 AND OR SWAP1 SSTORE PUSH2 0x2710 PUSH1 0x73 SSTORE PUSH1 0x69 DUP1 SLOAD SWAP3 DUP6 AND SWAP3 SWAP1 SWAP2 AND SWAP2 SWAP1 SWAP2 OR SWAP1 SSTORE PUSH8 0xDE0B6B3A7640000 PUSH1 0x74 SSTORE PUSH1 0x32 PUSH1 0x72 SSTORE DUP1 ISZERO PUSH2 0x17EB JUMPI PUSH1 0x0 DUP1 SLOAD PUSH2 0xFF00 NOT AND SWAP1 SSTORE JUMPDEST POP POP POP POP POP JUMP JUMPDEST PUSH1 0x0 PUSH2 0x17FC PUSH2 0x196F JUMP JUMPDEST PUSH1 0x1 PUSH1 0x1 PUSH1 0xA0 SHL SUB AND PUSH2 0x180D PUSH2 0xE0D JUMP JUMPDEST PUSH1 0x1 PUSH1 0x1 PUSH1 0xA0 SHL SUB AND EQ PUSH2 0x1833 JUMPI PUSH1 0x40 MLOAD PUSH3 0x461BCD PUSH1 0xE5 SHL DUP2 MSTORE PUSH1 0x4 ADD PUSH2 0x60A SWAP1 PUSH2 0x2E3B JUMP JUMPDEST PUSH1 0x40 MLOAD DUP1 PUSH2 0x160 ADD PUSH1 0x40 MSTORE DUP1 DUP14 PUSH1 0x1 PUSH1 0x1 PUSH1 0xA0 SHL SUB AND DUP2 MSTORE PUSH1 0x20 ADD DUP13 DUP2 MSTORE PUSH1 0x20 ADD DUP12 DUP2 MSTORE PUSH1 0x20 ADD DUP11 DUP2 MSTORE PUSH1 0x20 ADD DUP10 DUP2 MSTORE PUSH1 0x20 ADD DUP9 DUP2 MSTORE PUSH1 0x20 ADD DUP8 DUP2 MSTORE PUSH1 0x20 ADD DUP7 DUP2 MSTORE PUSH1 0x20 ADD DUP6 DUP2 MSTORE PUSH1 0x20 ADD DUP5 DUP2 MSTORE PUSH1 0x20 ADD DUP4 DUP2 MSTORE POP PUSH1 0x6A PUSH1 0x0 DUP16 DUP2 MSTORE PUSH1 0x20 ADD SWAP1 DUP2 MSTORE PUSH1 0x20 ADD PUSH1 0x0 KECCAK256 PUSH1 0x0 DUP3 ADD MLOAD DUP2 PUSH1 0x0 ADD PUSH1 0x0 PUSH2 0x100 EXP DUP2 SLOAD DUP2 PUSH1 0x1 PUSH1 0x1 PUSH1 0xA0 SHL SUB MUL NOT AND SWAP1 DUP4 PUSH1 0x1 PUSH1 0x1 PUSH1 0xA0 SHL SUB AND MUL OR SWAP1 SSTORE POP PUSH1 0x20 DUP3 ADD MLOAD DUP2 PUSH1 0x1 ADD SSTORE PUSH1 0x40 DUP3 ADD MLOAD DUP2 PUSH1 0x2 ADD SWAP1 DUP1 MLOAD SWAP1 PUSH1 0x20 ADD SWAP1 PUSH2 0x18EE SWAP3 SWAP2 SWAP1 PUSH2 0x23C2 JUMP JUMPDEST POP PUSH1 0x60 DUP3 ADD MLOAD PUSH1 0x3 DUP3 ADD SSTORE PUSH1 0x80 DUP3 ADD MLOAD PUSH1 0x4 DUP3 ADD SSTORE PUSH1 0xA0 DUP3 ADD MLOAD PUSH1 0x5 DUP3 ADD SSTORE PUSH1 0xC0 DUP3 ADD MLOAD PUSH1 0x6 DUP3 ADD SSTORE PUSH1 0xE0 DUP3 ADD MLOAD PUSH1 0x7 DUP3 ADD SSTORE PUSH2 0x100 DUP3 ADD MLOAD PUSH1 0x8 DUP3 ADD SSTORE PUSH2 0x120 DUP3 ADD MLOAD PUSH1 0x9 DUP3 ADD SSTORE PUSH2 0x140 SWAP1 SWAP2 ADD MLOAD PUSH1 0xA SWAP1 SWAP2 ADD SSTORE POP PUSH1 0x1 SWAP13 SWAP12 POP POP POP POP POP POP POP POP POP POP POP POP JUMP JUMPDEST PUSH1 0x0 PUSH2 0x91F DUP3 DUP5 PUSH2 0x30B2 JUMP JUMPDEST PUSH1 0x0 PUSH2 0x91F DUP3 DUP5 PUSH2 0x30D1 JUMP JUMPDEST CALLER SWAP1 JUMP JUMPDEST PUSH1 0x0 PUSH2 0x91F DUP3 DUP5 PUSH2 0x3092 JUMP JUMPDEST DUP7 SLOAD PUSH1 0x0 SWAP1 PUSH1 0x1 PUSH1 0x1 PUSH1 0xA0 SHL SUB AND PUSH2 0x19A9 JUMPI PUSH1 0x40 MLOAD PUSH3 0x461BCD PUSH1 0xE5 SHL DUP2 MSTORE PUSH1 0x4 ADD PUSH2 0x60A SWAP1 PUSH2 0x2C0E JUMP JUMPDEST PUSH1 0x2 DUP9 PUSH1 0x3 ADD SLOAD LT PUSH2 0x19CD JUMPI PUSH1 0x40 MLOAD PUSH3 0x461BCD PUSH1 0xE5 SHL DUP2 MSTORE PUSH1 0x4 ADD PUSH2 0x60A SWAP1 PUSH2 0x2EED JUMP JUMPDEST PUSH1 0x69 SLOAD PUSH1 0x40 MLOAD PUSH4 0x11CDC9D9 PUSH1 0xE1 SHL DUP2 MSTORE PUSH1 0x1 PUSH1 0x1 PUSH1 0xA0 SHL SUB SWAP1 SWAP2 AND SWAP1 PUSH4 0x239B93B2 SWAP1 PUSH2 0x1A05 SWAP1 DUP13 SWAP1 DUP8 SWAP1 DUP11 SWAP1 DUP11 SWAP1 DUP10 SWAP1 PUSH1 0x4 ADD PUSH2 0x2BC2 JUMP JUMPDEST PUSH1 0x20 PUSH1 0x40 MLOAD DUP1 DUP4 SUB DUP2 DUP7 DUP1 EXTCODESIZE ISZERO DUP1 ISZERO PUSH2 0x1A1D JUMPI PUSH1 0x0 DUP1 REVERT JUMPDEST POP GAS STATICCALL ISZERO DUP1 ISZERO PUSH2 0x1A31 JUMPI RETURNDATASIZE PUSH1 0x0 DUP1 RETURNDATACOPY RETURNDATASIZE PUSH1 0x0 REVERT JUMPDEST POP POP POP POP PUSH1 0x40 MLOAD RETURNDATASIZE PUSH1 0x1F NOT PUSH1 0x1F DUP3 ADD AND DUP3 ADD DUP1 PUSH1 0x40 MSTORE POP DUP2 ADD SWAP1 PUSH2 0x1A55 SWAP2 SWAP1 PUSH2 0x2706 JUMP JUMPDEST PUSH2 0x1A71 JUMPI PUSH1 0x40 MLOAD PUSH3 0x461BCD PUSH1 0xE5 SHL DUP2 MSTORE PUSH1 0x4 ADD PUSH2 0x60A SWAP1 PUSH2 0x2CAA JUMP JUMPDEST DUP8 SLOAD PUSH1 0x4 DUP10 ADD SLOAD DUP8 SWAP2 PUSH1 0x1 PUSH1 0x1 PUSH1 0xA0 SHL SUB AND SWAP1 PUSH1 0x1 DUP2 EQ ISZERO PUSH2 0x1A9C JUMPI PUSH2 0x1A97 DUP12 DUP8 PUSH2 0x1D56 JUMP JUMPDEST PUSH2 0x1AA6 JUMP JUMPDEST PUSH2 0x1AA6 DUP12 DUP8 PUSH2 0x1F73 JUMP JUMPDEST PUSH1 0x68 PUSH1 0x0 SWAP1 SLOAD SWAP1 PUSH2 0x100 EXP SWAP1 DIV PUSH1 0x1 PUSH1 0x1 PUSH1 0xA0 SHL SUB AND PUSH1 0x1 PUSH1 0x1 PUSH1 0xA0 SHL SUB AND PUSH4 0xD10C06A2 PUSH1 0x40 MLOAD DUP2 PUSH4 0xFFFFFFFF AND PUSH1 0xE0 SHL DUP2 MSTORE PUSH1 0x4 ADD PUSH1 0x20 PUSH1 0x40 MLOAD DUP1 DUP4 SUB DUP2 PUSH1 0x0 DUP8 DUP1 EXTCODESIZE ISZERO DUP1 ISZERO PUSH2 0x1AF6 JUMPI PUSH1 0x0 DUP1 REVERT JUMPDEST POP GAS CALL ISZERO DUP1 ISZERO PUSH2 0x1B0A JUMPI RETURNDATASIZE PUSH1 0x0 DUP1 RETURNDATACOPY RETURNDATASIZE PUSH1 0x0 REVERT JUMPDEST POP POP POP POP PUSH1 0x40 MLOAD RETURNDATASIZE PUSH1 0x1F NOT PUSH1 0x1F DUP3 ADD AND DUP3 ADD DUP1 PUSH1 0x40 MSTORE POP DUP2 ADD SWAP1 PUSH2 0x1B2E SWAP2 SWAP1 PUSH2 0x2706 JUMP JUMPDEST POP PUSH1 0x3 DUP12 ADD DUP11 SWAP1 SSTORE PUSH1 0x7 DUP12 ADD DUP7 SWAP1 SSTORE PUSH1 0x8 DUP12 ADD DUP9 SWAP1 SSTORE PUSH2 0x1B51 DUP4 PUSH1 0x6D PUSH1 0x6C PUSH2 0x1FFA JUMP JUMPDEST PUSH1 0x1 PUSH1 0x1 PUSH1 0xA0 SHL SUB DUP3 AND PUSH1 0x0 SWAP1 DUP2 MSTORE PUSH1 0x6F PUSH1 0x20 SWAP1 DUP2 MSTORE PUSH1 0x40 DUP1 DUP4 KECCAK256 PUSH1 0x6E SWAP1 SWAP3 MSTORE SWAP1 SWAP2 KECCAK256 PUSH2 0x1B7F SWAP2 DUP6 SWAP2 PUSH2 0x1FFA JUMP JUMPDEST PUSH1 0x1 PUSH1 0x1 PUSH1 0xA0 SHL SUB DUP3 AND PUSH1 0x0 SWAP1 DUP2 MSTORE PUSH1 0x70 PUSH1 0x20 SWAP1 DUP2 MSTORE PUSH1 0x40 DUP3 KECCAK256 DUP1 SLOAD PUSH1 0x1 DUP2 DUP2 ADD DUP4 SSTORE SWAP2 DUP5 MSTORE SWAP2 SWAP1 SWAP3 KECCAK256 ADD DUP5 SWAP1 SSTORE PUSH2 0x1BBA SWAP1 PUSH2 0x5BA DUP5 PUSH2 0x11C8 JUMP JUMPDEST PUSH1 0x1 PUSH1 0x1 PUSH1 0xA0 SHL SUB SWAP1 SWAP3 AND PUSH1 0x0 SWAP1 DUP2 MSTORE PUSH1 0x71 PUSH1 0x20 SWAP1 DUP2 MSTORE PUSH1 0x40 DUP1 DUP4 KECCAK256 SWAP6 DUP4 MSTORE SWAP5 SWAP1 MSTORE SWAP3 SWAP1 SWAP3 KECCAK256 SSTORE POP PUSH1 0x1 SWAP1 POP SWAP9 SWAP8 POP POP POP POP POP POP POP POP JUMP JUMPDEST PUSH1 0x33 DUP1 SLOAD PUSH1 0x1 PUSH1 0x1 PUSH1 0xA0 SHL SUB DUP4 DUP2 AND PUSH1 0x1 PUSH1 0x1 PUSH1 0xA0 SHL SUB NOT DUP4 AND DUP2 OR SWAP1 SWAP4 SSTORE PUSH1 0x40 MLOAD SWAP2 AND SWAP2 SWAP1 DUP3 SWAP1 PUSH32 0x8BE0079C531659141344CD1FD0A4F28419497F9722A3DAAFE3B4186F6B6457E0 SWAP1 PUSH1 0x0 SWAP1 LOG3 POP POP JUMP JUMPDEST PUSH2 0x1C9C DUP5 PUSH4 0x23B872DD PUSH1 0xE0 SHL DUP6 DUP6 DUP6 PUSH1 0x40 MLOAD PUSH1 0x24 ADD PUSH2 0x1C65 SWAP4 SWAP3 SWAP2 SWAP1 PUSH2 0x2B36 JUMP JUMPDEST PUSH1 0x40 DUP1 MLOAD PUSH1 0x1F NOT DUP2 DUP5 SUB ADD DUP2 MSTORE SWAP2 SWAP1 MSTORE PUSH1 0x20 DUP2 ADD DUP1 MLOAD PUSH1 0x1 PUSH1 0x1 PUSH1 0xE0 SHL SUB AND PUSH1 0x1 PUSH1 0x1 PUSH1 0xE0 SHL SUB NOT SWAP1 SWAP4 AND SWAP3 SWAP1 SWAP3 OR SWAP1 SWAP2 MSTORE PUSH2 0x20D7 JUMP JUMPDEST POP POP POP POP JUMP JUMPDEST PUSH2 0x1CC1 DUP4 PUSH4 0xA9059CBB PUSH1 0xE0 SHL DUP5 DUP5 PUSH1 0x40 MLOAD PUSH1 0x24 ADD PUSH2 0x1C65 SWAP3 SWAP2 SWAP1 PUSH2 0x2B5A JUMP JUMPDEST POP POP POP JUMP JUMPDEST PUSH1 0x0 PUSH2 0x91F DUP3 DUP5 PUSH2 0x307A JUMP JUMPDEST PUSH1 0x0 SLOAD PUSH2 0x100 SWAP1 DIV PUSH1 0xFF AND DUP1 PUSH2 0x1CEB JUMPI POP PUSH1 0x0 SLOAD PUSH1 0xFF AND ISZERO JUMPDEST PUSH2 0x1D07 JUMPI PUSH1 0x40 MLOAD PUSH3 0x461BCD PUSH1 0xE5 SHL DUP2 MSTORE PUSH1 0x4 ADD PUSH2 0x60A SWAP1 PUSH2 0x2D80 JUMP JUMPDEST PUSH1 0x0 SLOAD PUSH2 0x100 SWAP1 DIV PUSH1 0xFF AND ISZERO DUP1 ISZERO PUSH2 0x1D32 JUMPI PUSH1 0x0 DUP1 SLOAD PUSH1 0xFF NOT PUSH2 0xFF00 NOT SWAP1 SWAP2 AND PUSH2 0x100 OR AND PUSH1 0x1 OR SWAP1 SSTORE JUMPDEST PUSH2 0x1D3A PUSH2 0x2166 JUMP JUMPDEST PUSH2 0x1D42 PUSH2 0x21D9 JUMP JUMPDEST DUP1 ISZERO PUSH2 0x1707 JUMPI PUSH1 0x0 DUP1 SLOAD PUSH2 0xFF00 NOT AND SWAP1 SSTORE POP JUMP JUMPDEST DUP2 SLOAD PUSH1 0x9 DUP4 ADD SLOAD PUSH1 0xA DUP5 ADD SLOAD PUSH1 0x5 DUP6 ADD SLOAD PUSH1 0x73 SLOAD PUSH1 0x72 SLOAD PUSH1 0x1 PUSH1 0x1 PUSH1 0xA0 SHL SUB SWAP1 SWAP6 AND SWAP5 PUSH1 0x0 SWAP5 DUP6 SWAP5 DUP6 SWAP5 SWAP2 SWAP4 DUP10 SWAP4 SWAP2 SWAP3 SWAP2 DUP7 SWAP2 PUSH2 0x1DA7 SWAP2 PUSH8 0xDE0B6B3A7640000 SWAP2 PUSH2 0x81C SWAP2 DUP3 SWAP1 PUSH2 0x816 DUP11 DUP13 PUSH2 0x1957 JUMP JUMPDEST SWAP1 POP DUP2 DUP5 GT ISZERO PUSH2 0x1E8B JUMPI PUSH2 0x1DBB DUP5 DUP4 PUSH2 0x1963 JUMP JUMPDEST SWAP8 POP PUSH2 0x1DD3 PUSH8 0xDE0B6B3A7640000 PUSH2 0x81C DUP11 DUP9 PUSH2 0x1957 JUMP JUMPDEST SWAP7 POP PUSH2 0x1DDF DUP4 DUP9 PUSH2 0x1CC6 JUMP JUMPDEST PUSH1 0x68 SLOAD PUSH1 0x67 SLOAD SWAP2 SWAP8 POP PUSH2 0x1E01 SWAP2 PUSH1 0x1 PUSH1 0x1 PUSH1 0xA0 SHL SUB SWAP1 DUP2 AND SWAP2 CALLER SWAP2 AND DUP5 PUSH2 0x1C44 JUMP JUMPDEST PUSH1 0x67 SLOAD PUSH1 0x40 MLOAD PUSH4 0x40C10F19 PUSH1 0xE0 SHL DUP2 MSTORE PUSH1 0x1 PUSH1 0x1 PUSH1 0xA0 SHL SUB SWAP1 SWAP2 AND SWAP1 PUSH4 0x40C10F19 SWAP1 PUSH2 0x1E33 SWAP1 DUP13 SWAP1 DUP11 SWAP1 PUSH1 0x4 ADD PUSH2 0x2B5A JUMP JUMPDEST PUSH1 0x20 PUSH1 0x40 MLOAD DUP1 DUP4 SUB DUP2 PUSH1 0x0 DUP8 DUP1 EXTCODESIZE ISZERO DUP1 ISZERO PUSH2 0x1E4D JUMPI PUSH1 0x0 DUP1 REVERT JUMPDEST POP GAS CALL ISZERO DUP1 ISZERO PUSH2 0x1E61 JUMPI RETURNDATASIZE PUSH1 0x0 DUP1 RETURNDATACOPY RETURNDATASIZE PUSH1 0x0 REVERT JUMPDEST POP POP POP POP PUSH1 0x40 MLOAD RETURNDATASIZE PUSH1 0x1F NOT PUSH1 0x1F DUP3 ADD AND DUP3 ADD DUP1 PUSH1 0x40 MSTORE POP DUP2 ADD SWAP1 PUSH2 0x1E85 SWAP2 SWAP1 PUSH2 0x2706 JUMP JUMPDEST POP PUSH2 0x1F66 JUMP JUMPDEST PUSH2 0x1E95 DUP3 DUP6 PUSH2 0x1963 JUMP JUMPDEST SWAP8 POP PUSH2 0x1EA1 DUP9 DUP7 PUSH2 0x1957 JUMP JUMPDEST SWAP7 POP DUP3 DUP8 GT ISZERO PUSH2 0x1EB4 JUMPI PUSH1 0x0 SWAP6 POP PUSH2 0x1F66 JUMP JUMPDEST PUSH2 0x1EBE DUP4 DUP9 PUSH2 0x1963 JUMP JUMPDEST PUSH1 0x68 SLOAD PUSH1 0x67 SLOAD SWAP2 SWAP8 POP PUSH2 0x1EE0 SWAP2 PUSH1 0x1 PUSH1 0x1 PUSH1 0xA0 SHL SUB SWAP1 DUP2 AND SWAP2 CALLER SWAP2 AND DUP5 PUSH2 0x1C44 JUMP JUMPDEST PUSH1 0x67 SLOAD PUSH1 0x40 MLOAD PUSH4 0x40C10F19 PUSH1 0xE0 SHL DUP2 MSTORE PUSH1 0x1 PUSH1 0x1 PUSH1 0xA0 SHL SUB SWAP1 SWAP2 AND SWAP1 PUSH4 0x40C10F19 SWAP1 PUSH2 0x1F12 SWAP1 DUP13 SWAP1 DUP11 SWAP1 PUSH1 0x4 ADD PUSH2 0x2B5A JUMP JUMPDEST PUSH1 0x20 PUSH1 0x40 MLOAD DUP1 DUP4 SUB DUP2 PUSH1 0x0 DUP8 DUP1 EXTCODESIZE ISZERO DUP1 ISZERO PUSH2 0x1F2C JUMPI PUSH1 0x0 DUP1 REVERT JUMPDEST POP GAS CALL ISZERO DUP1 ISZERO PUSH2 0x1F40 JUMPI RETURNDATASIZE PUSH1 0x0 DUP1 RETURNDATACOPY RETURNDATASIZE PUSH1 0x0 REVERT JUMPDEST POP POP POP POP PUSH1 0x40 MLOAD RETURNDATASIZE PUSH1 0x1F NOT PUSH1 0x1F DUP3 ADD AND DUP3 ADD DUP1 PUSH1 0x40 MSTORE POP DUP2 ADD SWAP1 PUSH2 0x1F64 SWAP2 SWAP1 PUSH2 0x2706 JUMP JUMPDEST POP JUMPDEST POP POP POP POP POP POP POP POP POP POP POP JUMP JUMPDEST DUP2 SLOAD PUSH1 0x9 DUP4 ADD SLOAD PUSH1 0xA DUP5 ADD SLOAD PUSH1 0x5 DUP6 ADD SLOAD PUSH1 0x73 SLOAD PUSH1 0x72 SLOAD PUSH1 0x1 PUSH1 0x1 PUSH1 0xA0 SHL SUB SWAP1 SWAP6 AND SWAP5 PUSH1 0x0 SWAP5 DUP6 SWAP5 DUP6 SWAP5 SWAP2 SWAP4 DUP10 SWAP4 SWAP2 SWAP3 SWAP2 DUP7 SWAP2 PUSH2 0x1FC4 SWAP2 PUSH8 0xDE0B6B3A7640000 SWAP2 PUSH2 0x81C SWAP2 DUP3 SWAP1 PUSH2 0x816 DUP11 DUP13 PUSH2 0x1957 JUMP JUMPDEST SWAP1 POP DUP2 DUP5 LT ISZERO PUSH2 0x1FD8 JUMPI PUSH2 0x1DBB DUP3 DUP6 PUSH2 0x1963 JUMP JUMPDEST PUSH2 0x1FE2 DUP5 DUP4 PUSH2 0x1963 JUMP JUMPDEST SWAP8 POP PUSH2 0x1EA1 PUSH8 0xDE0B6B3A7640000 PUSH2 0x81C DUP11 DUP9 PUSH2 0x1957 JUMP JUMPDEST PUSH1 0x0 DUP4 DUP2 MSTORE PUSH1 0x20 DUP4 SWAP1 MSTORE PUSH1 0x40 DUP2 KECCAK256 SLOAD DUP3 SLOAD SWAP1 SWAP2 SWAP1 DUP4 SWAP1 PUSH2 0x201B SWAP1 PUSH1 0x1 PUSH2 0x1963 JUMP JUMPDEST DUP2 SLOAD DUP2 LT PUSH2 0x2039 JUMPI PUSH4 0x4E487B71 PUSH1 0xE0 SHL PUSH1 0x0 MSTORE PUSH1 0x32 PUSH1 0x4 MSTORE PUSH1 0x24 PUSH1 0x0 REVERT JUMPDEST SWAP1 PUSH1 0x0 MSTORE PUSH1 0x20 PUSH1 0x0 KECCAK256 ADD SLOAD SWAP1 POP DUP2 DUP5 PUSH1 0x0 DUP4 DUP2 MSTORE PUSH1 0x20 ADD SWAP1 DUP2 MSTORE PUSH1 0x20 ADD PUSH1 0x0 KECCAK256 DUP2 SWAP1 SSTORE POP DUP1 DUP4 DUP4 DUP2 SLOAD DUP2 LT PUSH2 0x207E JUMPI PUSH4 0x4E487B71 PUSH1 0xE0 SHL PUSH1 0x0 MSTORE PUSH1 0x32 PUSH1 0x4 MSTORE PUSH1 0x24 PUSH1 0x0 REVERT JUMPDEST PUSH1 0x0 SWAP2 DUP3 MSTORE PUSH1 0x20 DUP1 DUP4 KECCAK256 SWAP1 SWAP2 ADD SWAP3 SWAP1 SWAP3 SSTORE DUP7 DUP2 MSTORE SWAP1 DUP6 SWAP1 MSTORE PUSH1 0x40 DUP2 KECCAK256 SSTORE DUP3 SLOAD DUP4 SWAP1 DUP1 PUSH2 0x20BA JUMPI PUSH4 0x4E487B71 PUSH1 0xE0 SHL PUSH1 0x0 MSTORE PUSH1 0x31 PUSH1 0x4 MSTORE PUSH1 0x24 PUSH1 0x0 REVERT JUMPDEST PUSH1 0x1 SWAP1 SUB DUP2 DUP2 SWAP1 PUSH1 0x0 MSTORE PUSH1 0x20 PUSH1 0x0 KECCAK256 ADD PUSH1 0x0 SWAP1 SSTORE SWAP1 SSTORE POP POP POP POP POP JUMP JUMPDEST PUSH1 0x0 PUSH2 0x212C DUP3 PUSH1 0x40 MLOAD DUP1 PUSH1 0x40 ADD PUSH1 0x40 MSTORE DUP1 PUSH1 0x20 DUP2 MSTORE PUSH1 0x20 ADD PUSH32 0x5361666545524332303A206C6F772D6C6576656C2063616C6C206661696C6564 DUP2 MSTORE POP DUP6 PUSH1 0x1 PUSH1 0x1 PUSH1 0xA0 SHL SUB AND PUSH2 0x2249 SWAP1 SWAP3 SWAP2 SWAP1 PUSH4 0xFFFFFFFF AND JUMP JUMPDEST DUP1 MLOAD SWAP1 SWAP2 POP ISZERO PUSH2 0x1CC1 JUMPI DUP1 DUP1 PUSH1 0x20 ADD SWAP1 MLOAD DUP2 ADD SWAP1 PUSH2 0x214A SWAP2 SWAP1 PUSH2 0x2706 JUMP JUMPDEST PUSH2 0x1CC1 JUMPI PUSH1 0x40 MLOAD PUSH3 0x461BCD PUSH1 0xE5 SHL DUP2 MSTORE PUSH1 0x4 ADD PUSH2 0x60A SWAP1 PUSH2 0x2F10 JUMP JUMPDEST PUSH1 0x0 SLOAD PUSH2 0x100 SWAP1 DIV PUSH1 0xFF AND DUP1 PUSH2 0x217F JUMPI POP PUSH1 0x0 SLOAD PUSH1 0xFF AND ISZERO JUMPDEST PUSH2 0x219B JUMPI PUSH1 0x40 MLOAD PUSH3 0x461BCD PUSH1 0xE5 SHL DUP2 MSTORE PUSH1 0x4 ADD PUSH2 0x60A SWAP1 PUSH2 0x2D80 JUMP JUMPDEST PUSH1 0x0 SLOAD PUSH2 0x100 SWAP1 DIV PUSH1 0xFF AND ISZERO DUP1 ISZERO PUSH2 0x1D42 JUMPI PUSH1 0x0 DUP1 SLOAD PUSH1 0xFF NOT PUSH2 0xFF00 NOT SWAP1 SWAP2 AND PUSH2 0x100 OR AND PUSH1 0x1 OR SWAP1 SSTORE DUP1 ISZERO PUSH2 0x1707 JUMPI PUSH1 0x0 DUP1 SLOAD PUSH2 0xFF00 NOT AND SWAP1 SSTORE POP JUMP JUMPDEST PUSH1 0x0 SLOAD PUSH2 0x100 SWAP1 DIV PUSH1 0xFF AND DUP1 PUSH2 0x21F2 JUMPI POP PUSH1 0x0 SLOAD PUSH1 0xFF AND ISZERO JUMPDEST PUSH2 0x220E JUMPI PUSH1 0x40 MLOAD PUSH3 0x461BCD PUSH1 0xE5 SHL DUP2 MSTORE PUSH1 0x4 ADD PUSH2 0x60A SWAP1 PUSH2 0x2D80 JUMP JUMPDEST PUSH1 0x0 SLOAD PUSH2 0x100 SWAP1 DIV PUSH1 0xFF AND ISZERO DUP1 ISZERO PUSH2 0x2239 JUMPI PUSH1 0x0 DUP1 SLOAD PUSH1 0xFF NOT PUSH2 0xFF00 NOT SWAP1 SWAP2 AND PUSH2 0x100 OR AND PUSH1 0x1 OR SWAP1 SSTORE JUMPDEST PUSH2 0x1D42 PUSH2 0x2244 PUSH2 0x196F JUMP JUMPDEST PUSH2 0x1BF2 JUMP JUMPDEST PUSH1 0x60 PUSH2 0x2258 DUP5 DUP5 PUSH1 0x0 DUP6 PUSH2 0x2260 JUMP JUMPDEST SWAP5 SWAP4 POP POP POP POP JUMP JUMPDEST PUSH1 0x60 DUP3 SELFBALANCE LT ISZERO PUSH2 0x2282 JUMPI PUSH1 0x40 MLOAD PUSH3 0x461BCD PUSH1 0xE5 SHL DUP2 MSTORE PUSH1 0x4 ADD PUSH2 0x60A SWAP1 PUSH2 0x2D3A JUMP JUMPDEST PUSH2 0x228B DUP6 PUSH2 0x2320 JUMP JUMPDEST PUSH2 0x22A7 JUMPI PUSH1 0x40 MLOAD PUSH3 0x461BCD PUSH1 0xE5 SHL DUP2 MSTORE PUSH1 0x4 ADD PUSH2 0x60A SWAP1 PUSH2 0x2E70 JUMP JUMPDEST PUSH1 0x0 DUP1 DUP7 PUSH1 0x1 PUSH1 0x1 PUSH1 0xA0 SHL SUB AND DUP6 DUP8 PUSH1 0x40 MLOAD PUSH2 0x22C3 SWAP2 SWAP1 PUSH2 0x2B06 JUMP JUMPDEST PUSH1 0x0 PUSH1 0x40 MLOAD DUP1 DUP4 SUB DUP2 DUP6 DUP8 GAS CALL SWAP3 POP POP POP RETURNDATASIZE DUP1 PUSH1 0x0 DUP2 EQ PUSH2 0x2300 JUMPI PUSH1 0x40 MLOAD SWAP2 POP PUSH1 0x1F NOT PUSH1 0x3F RETURNDATASIZE ADD AND DUP3 ADD PUSH1 0x40 MSTORE RETURNDATASIZE DUP3 MSTORE RETURNDATASIZE PUSH1 0x0 PUSH1 0x20 DUP5 ADD RETURNDATACOPY PUSH2 0x2305 JUMP JUMPDEST PUSH1 0x60 SWAP2 POP JUMPDEST POP SWAP2 POP SWAP2 POP PUSH2 0x2315 DUP3 DUP3 DUP7 PUSH2 0x2326 JUMP JUMPDEST SWAP8 SWAP7 POP POP POP POP POP POP POP JUMP JUMPDEST EXTCODESIZE ISZERO ISZERO SWAP1 JUMP JUMPDEST PUSH1 0x60 DUP4 ISZERO PUSH2 0x2335 JUMPI POP DUP2 PUSH2 0x91F JUMP JUMPDEST DUP3 MLOAD ISZERO PUSH2 0x2345 JUMPI DUP3 MLOAD DUP1 DUP5 PUSH1 0x20 ADD REVERT JUMPDEST DUP2 PUSH1 0x40 MLOAD PUSH3 0x461BCD PUSH1 0xE5 SHL DUP2 MSTORE PUSH1 0x4 ADD PUSH2 0x60A SWAP2 SWAP1 PUSH2 0x2BFB JUMP JUMPDEST PUSH1 0x40 MLOAD DUP1 PUSH2 0x160 ADD PUSH1 0x40 MSTORE DUP1 PUSH1 0x0 PUSH1 0x1 PUSH1 0x1 PUSH1 0xA0 SHL SUB AND DUP2 MSTORE PUSH1 0x20 ADD PUSH1 0x0 DUP2 MSTORE PUSH1 0x20 ADD PUSH1 0x60 DUP2 MSTORE PUSH1 0x20 ADD PUSH1 0x0 DUP2 MSTORE PUSH1 0x20 ADD PUSH1 0x0 DUP2 MSTORE PUSH1 0x20 ADD PUSH1 0x0 DUP2 MSTORE PUSH1 0x20 ADD PUSH1 0x0 DUP2 MSTORE PUSH1 0x20 ADD PUSH1 0x0 DUP2 MSTORE PUSH1 0x20 ADD PUSH1 0x0 DUP2 MSTORE PUSH1 0x20 ADD PUSH1 0x0 DUP2 MSTORE PUSH1 0x20 ADD PUSH1 0x0 DUP2 MSTORE POP SWAP1 JUMP JUMPDEST DUP3 DUP1 SLOAD PUSH2 0x23CE SWAP1 PUSH2 0x312B JUMP JUMPDEST SWAP1 PUSH1 0x0 MSTORE PUSH1 0x20 PUSH1 0x0 KECCAK256 SWAP1 PUSH1 0x1F ADD PUSH1 0x20 SWAP1 DIV DUP2 ADD SWAP3 DUP3 PUSH2 0x23F0 JUMPI PUSH1 0x0 DUP6 SSTORE PUSH2 0x2436 JUMP JUMPDEST DUP3 PUSH1 0x1F LT PUSH2 0x2409 JUMPI DUP1 MLOAD PUSH1 0xFF NOT AND DUP4 DUP1 ADD OR DUP6 SSTORE PUSH2 0x2436 JUMP JUMPDEST DUP3 DUP1 ADD PUSH1 0x1 ADD DUP6 SSTORE DUP3 ISZERO PUSH2 0x2436 JUMPI SWAP2 DUP3 ADD JUMPDEST DUP3 DUP2 GT ISZERO PUSH2 0x2436 JUMPI DUP3 MLOAD DUP3 SSTORE SWAP2 PUSH1 0x20 ADD SWAP2 SWAP1 PUSH1 0x1 ADD SWAP1 PUSH2 0x241B JUMP JUMPDEST POP PUSH2 0x2442 SWAP3 SWAP2 POP PUSH2 0x2446 JUMP JUMPDEST POP SWAP1 JUMP JUMPDEST JUMPDEST DUP1 DUP3 GT ISZERO PUSH2 0x2442 JUMPI PUSH1 0x0 DUP2 SSTORE PUSH1 0x1 ADD PUSH2 0x2447 JUMP JUMPDEST DUP1 CALLDATALOAD PUSH2 0xC87 DUP2 PUSH2 0x31AD JUMP JUMPDEST PUSH1 0x0 DUP3 PUSH1 0x1F DUP4 ADD SLT PUSH2 0x2476 JUMPI DUP1 DUP2 REVERT JUMPDEST DUP2 CALLDATALOAD PUSH1 0x20 PUSH2 0x248B PUSH2 0x2486 DUP4 PUSH2 0x3056 JUMP JUMPDEST PUSH2 0x302C JUMP JUMPDEST DUP3 DUP2 MSTORE DUP2 DUP2 ADD SWAP1 DUP6 DUP4 ADD DUP6 JUMPDEST DUP6 DUP2 LT ISZERO PUSH2 0x24C0 JUMPI PUSH2 0x24AE DUP10 DUP7 DUP5 CALLDATALOAD DUP12 ADD ADD PUSH2 0x2587 JUMP JUMPDEST DUP5 MSTORE SWAP3 DUP5 ADD SWAP3 SWAP1 DUP5 ADD SWAP1 PUSH1 0x1 ADD PUSH2 0x2497 JUMP JUMPDEST POP SWAP1 SWAP8 SWAP7 POP POP POP POP POP POP POP JUMP JUMPDEST PUSH1 0x0 DUP3 PUSH1 0x1F DUP4 ADD SLT PUSH2 0x24DD JUMPI DUP1 DUP2 REVERT JUMPDEST DUP2 CALLDATALOAD PUSH1 0x20 PUSH2 0x24ED PUSH2 0x2486 DUP4 PUSH2 0x3056 JUMP JUMPDEST DUP3 DUP2 MSTORE DUP2 DUP2 ADD SWAP1 DUP6 DUP4 ADD DUP6 JUMPDEST DUP6 DUP2 LT ISZERO PUSH2 0x24C0 JUMPI PUSH2 0x2510 DUP10 DUP7 DUP5 CALLDATALOAD DUP12 ADD ADD PUSH2 0x2587 JUMP JUMPDEST DUP5 MSTORE SWAP3 DUP5 ADD SWAP3 SWAP1 DUP5 ADD SWAP1 PUSH1 0x1 ADD PUSH2 0x24F9 JUMP JUMPDEST PUSH1 0x0 DUP3 PUSH1 0x1F DUP4 ADD SLT PUSH2 0x2532 JUMPI DUP1 DUP2 REVERT JUMPDEST DUP2 CALLDATALOAD PUSH1 0x20 PUSH2 0x2542 PUSH2 0x2486 DUP4 PUSH2 0x3056 JUMP JUMPDEST DUP3 DUP2 MSTORE DUP2 DUP2 ADD SWAP1 DUP6 DUP4 ADD DUP4 DUP6 MUL DUP8 ADD DUP5 ADD DUP9 LT ISZERO PUSH2 0x255E JUMPI DUP6 DUP7 REVERT JUMPDEST DUP6 JUMPDEST DUP6 DUP2 LT ISZERO PUSH2 0x24C0 JUMPI DUP2 CALLDATALOAD DUP5 MSTORE SWAP3 DUP5 ADD SWAP3 SWAP1 DUP5 ADD SWAP1 PUSH1 0x1 ADD PUSH2 0x2560 JUMP JUMPDEST DUP1 CALLDATALOAD PUSH2 0xC87 DUP2 PUSH2 0x31C2 JUMP JUMPDEST PUSH1 0x0 DUP3 PUSH1 0x1F DUP4 ADD SLT PUSH2 0x2597 JUMPI DUP1 DUP2 REVERT JUMPDEST DUP2 CALLDATALOAD PUSH8 0xFFFFFFFFFFFFFFFF DUP2 GT ISZERO PUSH2 0x25B1 JUMPI PUSH2 0x25B1 PUSH2 0x3197 JUMP JUMPDEST PUSH2 0x25C4 PUSH1 0x1F DUP3 ADD PUSH1 0x1F NOT AND PUSH1 0x20 ADD PUSH2 0x302C JUMP JUMPDEST DUP2 DUP2 MSTORE DUP5 PUSH1 0x20 DUP4 DUP7 ADD ADD GT ISZERO PUSH2 0x25D8 JUMPI DUP3 DUP4 REVERT JUMPDEST DUP2 PUSH1 0x20 DUP6 ADD PUSH1 0x20 DUP4 ADD CALLDATACOPY SWAP1 DUP2 ADD PUSH1 0x20 ADD SWAP2 SWAP1 SWAP2 MSTORE SWAP3 SWAP2 POP POP JUMP JUMPDEST PUSH1 0x0 PUSH1 0x20 DUP3 DUP5 SUB SLT ISZERO PUSH2 0x2603 JUMPI DUP1 DUP2 REVERT JUMPDEST DUP2 CALLDATALOAD PUSH2 0x91F DUP2 PUSH2 0x31AD JUMP JUMPDEST PUSH1 0x0 DUP1 PUSH1 0x40 DUP4 DUP6 SUB SLT ISZERO PUSH2 0x2620 JUMPI DUP1 DUP2 REVERT JUMPDEST DUP3 CALLDATALOAD PUSH2 0x262B DUP2 PUSH2 0x31AD JUMP JUMPDEST SWAP2 POP PUSH1 0x20 DUP4 ADD CALLDATALOAD PUSH2 0x263B DUP2 PUSH2 0x31C2 JUMP JUMPDEST DUP1 SWAP2 POP POP SWAP3 POP SWAP3 SWAP1 POP JUMP JUMPDEST PUSH1 0x0 DUP1 PUSH1 0x0 DUP1 PUSH1 0x80 DUP6 DUP8 SUB SLT ISZERO PUSH2 0x265B JUMPI DUP2 DUP3 REVERT JUMPDEST DUP5 CALLDATALOAD PUSH2 0x2666 DUP2 PUSH2 0x31AD JUMP JUMPDEST SWAP4 POP PUSH1 0x20 DUP6 ADD CALLDATALOAD PUSH2 0x2676 DUP2 PUSH2 0x31AD JUMP JUMPDEST SWAP3 POP PUSH1 0x40 DUP6 ADD CALLDATALOAD PUSH2 0x2686 DUP2 PUSH2 0x31AD JUMP JUMPDEST SWAP2 POP PUSH1 0x60 DUP6 ADD CALLDATALOAD PUSH2 0x2696 DUP2 PUSH2 0x31AD JUMP JUMPDEST SWAP4 SWAP7 SWAP3 SWAP6 POP SWAP1 SWAP4 POP POP JUMP JUMPDEST PUSH1 0x0 DUP1 PUSH1 0x40 DUP4 DUP6 SUB SLT ISZERO PUSH2 0x26B3 JUMPI DUP2 DUP3 REVERT JUMPDEST DUP3 CALLDATALOAD PUSH2 0x26BE DUP2 PUSH2 0x31AD JUMP JUMPDEST SWAP5 PUSH1 0x20 SWAP4 SWAP1 SWAP4 ADD CALLDATALOAD SWAP4 POP POP POP JUMP JUMPDEST PUSH1 0x0 DUP1 PUSH1 0x0 DUP1 PUSH1 0x80 DUP6 DUP8 SUB SLT ISZERO PUSH2 0x26E1 JUMPI DUP4 DUP5 REVERT JUMPDEST DUP5 CALLDATALOAD PUSH2 0x26EC DUP2 PUSH2 0x31AD JUMP JUMPDEST SWAP7 PUSH1 0x20 DUP7 ADD CALLDATALOAD SWAP7 POP PUSH1 0x40 DUP7 ADD CALLDATALOAD SWAP6 PUSH1 0x60 ADD CALLDATALOAD SWAP5 POP SWAP3 POP POP POP JUMP JUMPDEST PUSH1 0x0 PUSH1 0x20 DUP3 DUP5 SUB SLT ISZERO PUSH2 0x2717 JUMPI DUP1 DUP2 REVERT JUMPDEST DUP2 MLOAD PUSH2 0x91F DUP2 PUSH2 0x31C2 JUMP JUMPDEST PUSH1 0x0 DUP1 PUSH1 0x0 DUP1 PUSH1 0x0 DUP1 PUSH1 0xC0 DUP8 DUP10 SUB SLT ISZERO PUSH2 0x273A JUMPI DUP4 DUP5 REVERT JUMPDEST PUSH2 0x2743 DUP8 PUSH2 0x257C JUMP JUMPDEST SWAP6 POP PUSH1 0x20 DUP8 ADD CALLDATALOAD PUSH8 0xFFFFFFFFFFFFFFFF DUP1 DUP3 GT ISZERO PUSH2 0x275F JUMPI DUP6 DUP7 REVERT JUMPDEST PUSH2 0x276B DUP11 DUP4 DUP12 ADD PUSH2 0x2522 JUMP JUMPDEST SWAP7 POP PUSH1 0x40 DUP10 ADD CALLDATALOAD SWAP2 POP DUP1 DUP3 GT ISZERO PUSH2 0x2780 JUMPI DUP6 DUP7 REVERT JUMPDEST PUSH2 0x278C DUP11 DUP4 DUP12 ADD PUSH2 0x2522 JUMP JUMPDEST SWAP6 POP PUSH1 0x60 DUP10 ADD CALLDATALOAD SWAP2 POP DUP1 DUP3 GT ISZERO PUSH2 0x27A1 JUMPI DUP4 DUP5 REVERT JUMPDEST PUSH2 0x27AD DUP11 DUP4 DUP12 ADD PUSH2 0x24CD JUMP JUMPDEST SWAP5 POP PUSH1 0x80 DUP10 ADD CALLDATALOAD SWAP2 POP DUP1 DUP3 GT ISZERO PUSH2 0x27C2 JUMPI DUP4 DUP5 REVERT JUMPDEST PUSH2 0x27CE DUP11 DUP4 DUP12 ADD PUSH2 0x2522 JUMP JUMPDEST SWAP4 POP PUSH1 0xA0 DUP10 ADD CALLDATALOAD SWAP2 POP DUP1 DUP3 GT ISZERO PUSH2 0x27E3 JUMPI DUP3 DUP4 REVERT JUMPDEST POP PUSH2 0x27F0 DUP10 DUP3 DUP11 ADD PUSH2 0x2466 JUMP JUMPDEST SWAP2 POP POP SWAP3 SWAP6 POP SWAP3 SWAP6 POP SWAP3 SWAP6 JUMP JUMPDEST PUSH1 0x0 DUP1 PUSH1 0x0 DUP1 PUSH1 0x0 DUP1 PUSH1 0xC0 DUP8 DUP10 SUB SLT ISZERO PUSH2 0x2815 JUMPI DUP4 DUP5 REVERT JUMPDEST DUP7 CALLDATALOAD PUSH2 0x2820 DUP2 PUSH2 0x31C2 JUMP JUMPDEST SWAP6 POP PUSH1 0x20 DUP8 ADD CALLDATALOAD SWAP5 POP PUSH1 0x40 DUP8 ADD CALLDATALOAD SWAP4 POP PUSH1 0x60 DUP8 ADD CALLDATALOAD PUSH8 0xFFFFFFFFFFFFFFFF DUP1 DUP3 GT ISZERO PUSH2 0x284A JUMPI DUP4 DUP5 REVERT JUMPDEST PUSH2 0x2856 DUP11 DUP4 DUP12 ADD PUSH2 0x2587 JUMP JUMPDEST SWAP5 POP PUSH1 0x80 DUP10 ADD CALLDATALOAD SWAP4 POP PUSH1 0xA0 DUP10 ADD CALLDATALOAD SWAP2 POP DUP1 DUP3 GT ISZERO PUSH2 0x2872 JUMPI DUP3 DUP4 REVERT JUMPDEST POP PUSH2 0x27F0 DUP10 DUP3 DUP11 ADD PUSH2 0x2587 JUMP JUMPDEST PUSH1 0x0 DUP1 PUSH1 0x0 DUP1 PUSH1 0x0 DUP1 PUSH1 0x0 PUSH1 0xE0 DUP9 DUP11 SUB SLT ISZERO PUSH2 0x2899 JUMPI DUP5 DUP6 REVERT JUMPDEST DUP8 CALLDATALOAD PUSH2 0x28A4 DUP2 PUSH2 0x31C2 JUMP JUMPDEST SWAP7 POP PUSH1 0x20 DUP9 ADD CALLDATALOAD SWAP6 POP PUSH1 0x40 DUP9 ADD CALLDATALOAD SWAP5 POP PUSH1 0x60 DUP9 ADD CALLDATALOAD PUSH8 0xFFFFFFFFFFFFFFFF DUP1 DUP3 GT ISZERO PUSH2 0x28CE JUMPI DUP3 DUP4 REVERT JUMPDEST PUSH2 0x28DA DUP12 DUP4 DUP13 ADD PUSH2 0x2587 JUMP JUMPDEST SWAP6 POP PUSH1 0x80 DUP11 ADD CALLDATALOAD SWAP5 POP PUSH1 0xA0 DUP11 ADD CALLDATALOAD SWAP2 POP DUP1 DUP3 GT ISZERO PUSH2 0x28F6 JUMPI DUP3 DUP4 REVERT JUMPDEST POP PUSH2 0x2903 DUP11 DUP3 DUP12 ADD PUSH2 0x2587 JUMP JUMPDEST SWAP3 POP POP PUSH1 0xC0 DUP9 ADD CALLDATALOAD SWAP1 POP SWAP3 SWAP6 SWAP9 SWAP2 SWAP5 SWAP8 POP SWAP3 SWAP6 POP JUMP JUMPDEST PUSH1 0x0 DUP1 PUSH1 0x0 DUP1 PUSH1 0x0 DUP1 PUSH1 0x0 DUP1 PUSH1 0x0 PUSH2 0x120 DUP11 DUP13 SUB SLT ISZERO PUSH2 0x2937 JUMPI DUP3 DUP4 REVERT JUMPDEST DUP10 CALLDATALOAD PUSH2 0x2942 DUP2 PUSH2 0x31C2 JUMP JUMPDEST SWAP9 POP PUSH1 0x20 DUP11 ADD CALLDATALOAD SWAP8 POP PUSH1 0x40 DUP11 ADD CALLDATALOAD SWAP7 POP PUSH1 0x60 DUP11 ADD CALLDATALOAD SWAP6 POP PUSH1 0x80 DUP11 ADD CALLDATALOAD SWAP5 POP PUSH1 0xA0 DUP11 ADD CALLDATALOAD PUSH8 0xFFFFFFFFFFFFFFFF DUP1 DUP3 GT ISZERO PUSH2 0x297A JUMPI DUP5 DUP6 REVERT JUMPDEST PUSH2 0x2986 DUP14 DUP4 DUP15 ADD PUSH2 0x2587 JUMP JUMPDEST SWAP6 POP PUSH1 0xC0 DUP13 ADD CALLDATALOAD SWAP5 POP PUSH1 0xE0 DUP13 ADD CALLDATALOAD SWAP4 POP PUSH2 0x100 DUP13 ADD CALLDATALOAD SWAP2 POP DUP1 DUP3 GT ISZERO PUSH2 0x29AA JUMPI DUP3 DUP4 REVERT JUMPDEST POP PUSH2 0x29B7 DUP13 DUP3 DUP14 ADD PUSH2 0x2587 JUMP JUMPDEST SWAP2 POP POP SWAP3 SWAP6 SWAP9 POP SWAP3 SWAP6 SWAP9 POP SWAP3 SWAP6 SWAP9 JUMP JUMPDEST PUSH1 0x0 PUSH1 0x20 DUP3 DUP5 SUB SLT ISZERO PUSH2 0x29D8 JUMPI DUP1 DUP2 REVERT JUMPDEST POP CALLDATALOAD SWAP2 SWAP1 POP JUMP JUMPDEST PUSH1 0x0 PUSH1 0x20 DUP3 DUP5 SUB SLT ISZERO PUSH2 0x29F0 JUMPI DUP1 DUP2 REVERT JUMPDEST POP MLOAD SWAP2 SWAP1 POP JUMP JUMPDEST PUSH1 0x0 DUP1 PUSH1 0x0 DUP1 PUSH1 0x0 DUP1 PUSH1 0x0 DUP1 PUSH1 0x0 DUP1 PUSH1 0x0 DUP1 PUSH2 0x180 DUP14 DUP16 SUB SLT ISZERO PUSH2 0x2A19 JUMPI DUP6 DUP7 REVERT JUMPDEST DUP13 CALLDATALOAD SWAP12 POP PUSH2 0x2A29 PUSH1 0x20 DUP15 ADD PUSH2 0x245B JUMP JUMPDEST SWAP11 POP PUSH1 0x40 DUP14 ADD CALLDATALOAD SWAP10 POP PUSH8 0xFFFFFFFFFFFFFFFF PUSH1 0x60 DUP15 ADD CALLDATALOAD GT ISZERO PUSH2 0x2A4A JUMPI DUP6 DUP7 REVERT JUMPDEST PUSH2 0x2A5A DUP15 PUSH1 0x60 DUP16 ADD CALLDATALOAD DUP16 ADD PUSH2 0x2587 JUMP JUMPDEST SWAP12 SWAP15 SWAP11 SWAP14 POP SWAP9 SWAP12 PUSH1 0x80 DUP2 ADD CALLDATALOAD SWAP11 PUSH1 0xA0 DUP3 ADD CALLDATALOAD SWAP11 POP PUSH1 0xC0 DUP3 ADD CALLDATALOAD SWAP10 POP PUSH1 0xE0 DUP3 ADD CALLDATALOAD SWAP9 POP PUSH2 0x100 DUP3 ADD CALLDATALOAD SWAP8 POP PUSH2 0x120 DUP3 ADD CALLDATALOAD SWAP7 POP PUSH2 0x140 DUP3 ADD CALLDATALOAD SWAP6 POP PUSH2 0x160 SWAP1 SWAP2 ADD CALLDATALOAD SWAP4 POP SWAP2 POP POP JUMP JUMPDEST PUSH1 0x0 DUP1 PUSH1 0x0 PUSH1 0x60 DUP5 DUP7 SUB SLT ISZERO PUSH2 0x2AB6 JUMPI DUP1 DUP2 REVERT JUMPDEST POP POP DUP2 CALLDATALOAD SWAP4 PUSH1 0x20 DUP4 ADD CALLDATALOAD SWAP4 POP PUSH1 0x40 SWAP1 SWAP3 ADD CALLDATALOAD SWAP2 SWAP1 POP JUMP JUMPDEST PUSH1 0x1 PUSH1 0x1 PUSH1 0xA0 SHL SUB AND SWAP1 MSTORE JUMP JUMPDEST PUSH1 0x0 DUP2 MLOAD DUP1 DUP5 MSTORE PUSH2 0x2AF2 DUP2 PUSH1 0x20 DUP7 ADD PUSH1 0x20 DUP7 ADD PUSH2 0x30E8 JUMP JUMPDEST PUSH1 0x1F ADD PUSH1 0x1F NOT AND SWAP3 SWAP1 SWAP3 ADD PUSH1 0x20 ADD SWAP3 SWAP2 POP POP JUMP JUMPDEST PUSH1 0x0 DUP3 MLOAD PUSH2 0x2B18 DUP2 DUP5 PUSH1 0x20 DUP8 ADD PUSH2 0x30E8 JUMP JUMPDEST SWAP2 SWAP1 SWAP2 ADD SWAP3 SWAP2 POP POP JUMP JUMPDEST PUSH1 0x1 PUSH1 0x1 PUSH1 0xA0 SHL SUB SWAP2 SWAP1 SWAP2 AND DUP2 MSTORE PUSH1 0x20 ADD SWAP1 JUMP JUMPDEST PUSH1 0x1 PUSH1 0x1 PUSH1 0xA0 SHL SUB SWAP4 DUP5 AND DUP2 MSTORE SWAP2 SWAP1 SWAP3 AND PUSH1 0x20 DUP3 ADD MSTORE PUSH1 0x40 DUP2 ADD SWAP2 SWAP1 SWAP2 MSTORE PUSH1 0x60 ADD SWAP1 JUMP JUMPDEST PUSH1 0x1 PUSH1 0x1 PUSH1 0xA0 SHL SUB SWAP3 SWAP1 SWAP3 AND DUP3 MSTORE PUSH1 0x20 DUP3 ADD MSTORE PUSH1 0x40 ADD SWAP1 JUMP JUMPDEST PUSH1 0x20 DUP1 DUP3 MSTORE DUP3 MLOAD DUP3 DUP3 ADD DUP2 SWAP1 MSTORE PUSH1 0x0 SWAP2 SWAP1 DUP5 DUP3 ADD SWAP1 PUSH1 0x40 DUP6 ADD SWAP1 DUP5 JUMPDEST DUP2 DUP2 LT ISZERO PUSH2 0x2BAB JUMPI DUP4 MLOAD DUP4 MSTORE SWAP3 DUP5 ADD SWAP3 SWAP2 DUP5 ADD SWAP2 PUSH1 0x1 ADD PUSH2 0x2B8F JUMP JUMPDEST POP SWAP1 SWAP7 SWAP6 POP POP POP POP POP POP JUMP JUMPDEST SWAP1 ISZERO ISZERO DUP2 MSTORE PUSH1 0x20 ADD SWAP1 JUMP JUMPDEST PUSH1 0x0 DUP7 ISZERO ISZERO DUP3 MSTORE DUP6 PUSH1 0x20 DUP4 ADD MSTORE DUP5 PUSH1 0x40 DUP4 ADD MSTORE PUSH1 0xA0 PUSH1 0x60 DUP4 ADD MSTORE PUSH2 0x2BE9 PUSH1 0xA0 DUP4 ADD DUP6 PUSH2 0x2ADA JUMP JUMPDEST DUP3 DUP2 SUB PUSH1 0x80 DUP5 ADD MSTORE PUSH2 0xD3A DUP2 DUP6 PUSH2 0x2ADA JUMP JUMPDEST PUSH1 0x0 PUSH1 0x20 DUP3 MSTORE PUSH2 0x91F PUSH1 0x20 DUP4 ADD DUP5 PUSH2 0x2ADA JUMP JUMPDEST PUSH1 0x20 DUP1 DUP3 MSTORE PUSH1 0x14 SWAP1 DUP3 ADD MSTORE PUSH20 0x1BDC99195C88191BD95CC81B9BDD08195E1A5CDD PUSH1 0x62 SHL PUSH1 0x40 DUP3 ADD MSTORE PUSH1 0x60 ADD SWAP1 JUMP JUMPDEST PUSH1 0x20 DUP1 DUP3 MSTORE PUSH1 0xE SWAP1 DUP3 ADD MSTORE PUSH14 0x1B585C99DA5B881B9BC819DBDBD9 PUSH1 0x92 SHL PUSH1 0x40 DUP3 ADD MSTORE PUSH1 0x60 ADD SWAP1 JUMP JUMPDEST PUSH1 0x20 DUP1 DUP3 MSTORE PUSH1 0x26 SWAP1 DUP3 ADD MSTORE PUSH32 0x4F776E61626C653A206E6577206F776E657220697320746865207A65726F2061 PUSH1 0x40 DUP3 ADD MSTORE PUSH6 0x646472657373 PUSH1 0xD0 SHL PUSH1 0x60 DUP3 ADD MSTORE PUSH1 0x80 ADD SWAP1 JUMP JUMPDEST PUSH1 0x20 DUP1 DUP3 MSTORE PUSH1 0xA SWAP1 DUP3 ADD MSTORE PUSH10 0x37B930B1B6329032B939 PUSH1 0xB1 SHL PUSH1 0x40 DUP3 ADD MSTORE PUSH1 0x60 ADD SWAP1 JUMP JUMPDEST PUSH1 0x20 DUP1 DUP3 MSTORE PUSH1 0x24 SWAP1 DUP3 ADD MSTORE PUSH32 0x6578656375746F723A2063616C6C6572206973206E6F74207468652065786563 PUSH1 0x40 DUP3 ADD MSTORE PUSH4 0x3ABA37B9 PUSH1 0xE1 SHL PUSH1 0x60 DUP3 ADD MSTORE PUSH1 0x80 ADD SWAP1 JUMP JUMPDEST PUSH1 0x20 DUP1 DUP3 MSTORE PUSH1 0xE SWAP1 DUP3 ADD MSTORE PUSH14 0x2737903634B8BAB4B230BA34B7B7 PUSH1 0x91 SHL PUSH1 0x40 DUP3 ADD MSTORE PUSH1 0x60 ADD SWAP1 JUMP JUMPDEST PUSH1 0x20 DUP1 DUP3 MSTORE PUSH1 0x26 SWAP1 DUP3 ADD MSTORE PUSH32 0x416464726573733A20696E73756666696369656E742062616C616E636520666F PUSH1 0x40 DUP3 ADD MSTORE PUSH6 0x1C8818D85B1B PUSH1 0xD2 SHL PUSH1 0x60 DUP3 ADD MSTORE PUSH1 0x80 ADD SWAP1 JUMP JUMPDEST PUSH1 0x20 DUP1 DUP3 MSTORE PUSH1 0x2E SWAP1 DUP3 ADD MSTORE PUSH32 0x496E697469616C697A61626C653A20636F6E747261637420697320616C726561 PUSH1 0x40 DUP3 ADD MSTORE PUSH14 0x191E481A5B9A5D1A585B1A5E9959 PUSH1 0x92 SHL PUSH1 0x60 DUP3 ADD MSTORE PUSH1 0x80 ADD SWAP1 JUMP JUMPDEST PUSH1 0x20 DUP1 DUP3 MSTORE PUSH1 0x23 SWAP1 DUP3 ADD MSTORE PUSH32 0x546865207472616E73616374696F6E20616D6F756E7420697320746F6F20736D PUSH1 0x40 DUP3 ADD MSTORE PUSH3 0x185B1B PUSH1 0xEA SHL PUSH1 0x60 DUP3 ADD MSTORE PUSH1 0x80 ADD SWAP1 JUMP JUMPDEST PUSH1 0x20 DUP1 DUP3 MSTORE PUSH1 0x10 SWAP1 DUP3 ADD MSTORE PUSH16 0x155CD95C881A5CC818985B9ADC9D5C1D PUSH1 0x82 SHL PUSH1 0x40 DUP3 ADD MSTORE PUSH1 0x60 ADD SWAP1 JUMP JUMPDEST PUSH1 0x20 DUP1 DUP3 MSTORE DUP2 DUP2 ADD MSTORE PUSH32 0x4F776E61626C653A2063616C6C6572206973206E6F7420746865206F776E6572 PUSH1 0x40 DUP3 ADD MSTORE PUSH1 0x60 ADD SWAP1 JUMP JUMPDEST PUSH1 0x20 DUP1 DUP3 MSTORE PUSH1 0x1D SWAP1 DUP3 ADD MSTORE PUSH32 0x416464726573733A2063616C6C20746F206E6F6E2D636F6E7472616374000000 PUSH1 0x40 DUP3 ADD MSTORE PUSH1 0x60 ADD SWAP1 JUMP JUMPDEST PUSH1 0x20 DUP1 DUP3 MSTORE PUSH1 0xA SWAP1 DUP3 ADD MSTORE PUSH10 0x3632B733BA341032B939 PUSH1 0xB1 SHL PUSH1 0x40 DUP3 ADD MSTORE PUSH1 0x60 ADD SWAP1 JUMP JUMPDEST PUSH1 0x20 DUP1 DUP3 MSTORE PUSH1 0x8 SWAP1 DUP3 ADD MSTORE PUSH8 0x3AB9B2B91032B939 PUSH1 0xC1 SHL PUSH1 0x40 DUP3 ADD MSTORE PUSH1 0x60 ADD SWAP1 JUMP JUMPDEST PUSH1 0x20 DUP1 DUP3 MSTORE PUSH1 0x9 SWAP1 DUP3 ADD MSTORE PUSH9 0x39BA30BA329032B939 PUSH1 0xB9 SHL PUSH1 0x40 DUP3 ADD MSTORE PUSH1 0x60 ADD SWAP1 JUMP JUMPDEST PUSH1 0x20 DUP1 DUP3 MSTORE PUSH1 0x2A SWAP1 DUP3 ADD MSTORE PUSH32 0x5361666545524332303A204552433230206F7065726174696F6E20646964206E PUSH1 0x40 DUP3 ADD MSTORE PUSH10 0x1BDD081CDD58D8D95959 PUSH1 0xB2 SHL PUSH1 0x60 DUP3 ADD MSTORE PUSH1 0x80 ADD SWAP1 JUMP JUMPDEST PUSH1 0x20 DUP1 DUP3 MSTORE PUSH1 0xB SWAP1 DUP3 ADD MSTORE PUSH11 0x185C9C881B9BC819DBDBD9 PUSH1 0xAA SHL PUSH1 0x40 DUP3 ADD MSTORE PUSH1 0x60 ADD SWAP1 JUMP JUMPDEST PUSH1 0x0 PUSH1 0x20 DUP3 MSTORE PUSH2 0x2F93 PUSH1 0x20 DUP4 ADD DUP5 MLOAD PUSH2 0x2ACD JUMP JUMPDEST PUSH1 0x20 DUP4 ADD MLOAD PUSH1 0x40 DUP4 ADD MSTORE PUSH1 0x40 DUP4 ADD MLOAD PUSH2 0x160 DUP1 PUSH1 0x60 DUP6 ADD MSTORE PUSH2 0x2FB9 PUSH2 0x180 DUP6 ADD DUP4 PUSH2 0x2ADA JUMP JUMPDEST SWAP2 POP PUSH1 0x60 DUP6 ADD MLOAD PUSH1 0x80 DUP6 ADD MSTORE PUSH1 0x80 DUP6 ADD MLOAD PUSH1 0xA0 DUP6 ADD MSTORE PUSH1 0xA0 DUP6 ADD MLOAD PUSH1 0xC0 DUP6 ADD MSTORE PUSH1 0xC0 DUP6 ADD MLOAD PUSH1 0xE0 DUP6 ADD MSTORE PUSH1 0xE0 DUP6 ADD MLOAD PUSH2 0x100 DUP2 DUP2 DUP8 ADD MSTORE DUP1 DUP8 ADD MLOAD SWAP2 POP POP PUSH2 0x120 DUP2 DUP2 DUP8 ADD MSTORE DUP1 DUP8 ADD MLOAD SWAP2 POP POP PUSH2 0x140 DUP2 DUP2 DUP8 ADD MSTORE DUP1 DUP8 ADD MLOAD DUP4 DUP8 ADD MSTORE POP POP POP DUP1 SWAP2 POP POP SWAP3 SWAP2 POP POP JUMP JUMPDEST SWAP1 DUP2 MSTORE PUSH1 0x20 ADD SWAP1 JUMP JUMPDEST PUSH1 0x40 MLOAD DUP2 DUP2 ADD PUSH8 0xFFFFFFFFFFFFFFFF DUP2 GT DUP3 DUP3 LT OR ISZERO PUSH2 0x304E JUMPI PUSH2 0x304E PUSH2 0x3197 JUMP JUMPDEST PUSH1 0x40 MSTORE SWAP2 SWAP1 POP JUMP JUMPDEST PUSH1 0x0 PUSH8 0xFFFFFFFFFFFFFFFF DUP3 GT ISZERO PUSH2 0x3070 JUMPI PUSH2 0x3070 PUSH2 0x3197 JUMP JUMPDEST POP PUSH1 0x20 SWAP1 DUP2 MUL ADD SWAP1 JUMP JUMPDEST PUSH1 0x0 DUP3 NOT DUP3 GT ISZERO PUSH2 0x308D JUMPI PUSH2 0x308D PUSH2 0x3181 JUMP JUMPDEST POP ADD SWAP1 JUMP JUMPDEST PUSH1 0x0 DUP3 PUSH2 0x30AD JUMPI PUSH4 0x4E487B71 PUSH1 0xE0 SHL DUP2 MSTORE PUSH1 0x12 PUSH1 0x4 MSTORE PUSH1 0x24 DUP2 REVERT JUMPDEST POP DIV SWAP1 JUMP JUMPDEST PUSH1 0x0 DUP2 PUSH1 0x0 NOT DIV DUP4 GT DUP3 ISZERO ISZERO AND ISZERO PUSH2 0x30CC JUMPI PUSH2 0x30CC PUSH2 0x3181 JUMP JUMPDEST POP MUL SWAP1 JUMP JUMPDEST PUSH1 0x0 DUP3 DUP3 LT ISZERO PUSH2 0x30E3 JUMPI PUSH2 0x30E3 PUSH2 0x3181 JUMP JUMPDEST POP SUB SWAP1 JUMP JUMPDEST PUSH1 0x0 JUMPDEST DUP4 DUP2 LT ISZERO PUSH2 0x3103 JUMPI DUP2 DUP2 ADD MLOAD DUP4 DUP3 ADD MSTORE PUSH1 0x20 ADD PUSH2 0x30EB JUMP JUMPDEST DUP4 DUP2 GT ISZERO PUSH2 0x1C9C JUMPI POP POP PUSH1 0x0 SWAP2 ADD MSTORE JUMP JUMPDEST PUSH1 0x0 DUP2 PUSH2 0x3123 JUMPI PUSH2 0x3123 PUSH2 0x3181 JUMP JUMPDEST POP PUSH1 0x0 NOT ADD SWAP1 JUMP JUMPDEST PUSH1 0x2 DUP2 DIV PUSH1 0x1 DUP3 AND DUP1 PUSH2 0x313F JUMPI PUSH1 0x7F DUP3 AND SWAP2 POP JUMPDEST PUSH1 0x20 DUP3 LT DUP2 EQ ISZERO PUSH2 0x3160 JUMPI PUSH4 0x4E487B71 PUSH1 0xE0 SHL PUSH1 0x0 MSTORE PUSH1 0x22 PUSH1 0x4 MSTORE PUSH1 0x24 PUSH1 0x0 REVERT JUMPDEST POP SWAP2 SWAP1 POP JUMP JUMPDEST PUSH1 0x0 PUSH1 0x0 NOT DUP3 EQ ISZERO PUSH2 0x317A JUMPI PUSH2 0x317A PUSH2 0x3181 JUMP JUMPDEST POP PUSH1 0x1 ADD SWAP1 JUMP JUMPDEST PUSH4 0x4E487B71 PUSH1 0xE0 SHL PUSH1 0x0 MSTORE PUSH1 0x11 PUSH1 0x4 MSTORE PUSH1 0x24 PUSH1 0x0 REVERT JUMPDEST PUSH4 0x4E487B71 PUSH1 0xE0 SHL PUSH1 0x0 MSTORE PUSH1 0x41 PUSH1 0x4 MSTORE PUSH1 0x24 PUSH1 0x0 REVERT JUMPDEST PUSH1 0x1 PUSH1 0x1 PUSH1 0xA0 SHL SUB DUP2 AND DUP2 EQ PUSH2 0x1707 JUMPI PUSH1 0x0 DUP1 REVERT JUMPDEST DUP1 ISZERO ISZERO DUP2 EQ PUSH2 0x1707 JUMPI PUSH1 0x0 DUP1 REVERT INVALID LOG2 PUSH5 0x6970667358 0x22 SLT KECCAK256 0x5F LOG1 PUSH3 0xA9E42 0xB4 0xB7 0xD4 0xEF 0xDC 0xB0 0x4E SWAP13 GT PUSH30 0xD3EBA63FA425F547692289D6801E991E64736F6C63430008000033000000 "
				},
				"gasEstimates": {
					"creation": {
						"codeDepositCost": "2561200",
						"executionCost": "2771",
						"totalCost": "2563971"
					},
					"external": {
						"OrderIndex()": "1116",
						"PRECISION()": "1095",
						"_isSolvent(uint256,uint256,uint256)": "infinite",
						"adjustPosition(bool,uint256,uint256,string,uint256,bytes,uint256)": "infinite",
						"closePosition(bool,uint256,uint256,string,uint256,bytes)": "infinite",
						"executor(address)": "1326",
						"feePercent()": "1096",
						"forcedLiquidation(bool,uint256,uint256,string,uint256,bytes)": "infinite",
						"helperLogic()": "1183",
						"initialize(address,address,address,address)": "infinite",
						"liquidation(bool,uint256[],uint256[],string[],uint256[],bytes[])": "infinite",
						"minVal()": "1072",
						"myCloseOrderIdList(address,uint256)": "2248",
						"myCloseOrderIdListLength(address)": "1353",
						"myCloseOrderIdList_index(address,uint256)": "1450",
						"myOpenOrderIdList(address,uint256)": "2270",
						"myOpenOrderIdListLength(address)": "1331",
						"myOpenOrderIdList_index(address,uint256)": "1450",
						"openOrderIdList(uint256)": "2065",
						"openOrderIdListLength()": "1140",
						"openOrderIdList_index(uint256)": "1217",
						"openPosition(bool,uint256,uint256,uint256,uint256,string,uint256,uint256,bytes)": "infinite",
						"oracle()": "1116",
						"orderInfo(uint256)": "infinite",
						"owner()": "1160",
						"pagination(address,uint256,uint256,uint256)": "infinite",
						"renounceOwnership()": "23596",
						"setExecutor(address,bool)": "infinite",
						"setFeePercent(uint256)": "21382",
						"setOrderInfo(uint256,address,uint256,string,uint256,uint256,uint256,uint256,uint256,uint256,uint256,uint256)": "infinite",
						"setSigner(address)": "22231",
						"signer()": "1116",
						"transferOwnership(address)": "infinite",
						"usc()": "1160"
					},
					"internal": {
						"_closePosition(bool,struct mirrorseaMain.OrderInfo storage pointer,uint256,uint256,uint256,string memory,uint256,bytes memory)": "infinite",
						"closeLong(struct mirrorseaMain.OrderInfo storage pointer,uint256)": "infinite",
						"closeShort(struct mirrorseaMain.OrderInfo storage pointer,uint256)": "infinite",
						"cutListItem(uint256,mapping(uint256 => uint256),uint256[] storage pointer)": "75481"
					}
				},
				"methodIdentifiers": {
					"OrderIndex()": "f7ab69fd",
					"PRECISION()": "aaf5eb68",
					"_isSolvent(uint256,uint256,uint256)": "2705c55b",
					"adjustPosition(bool,uint256,uint256,string,uint256,bytes,uint256)": "a8ecb028",
					"closePosition(bool,uint256,uint256,string,uint256,bytes)": "6e812437",
					"executor(address)": "48c7e528",
					"feePercent()": "7fd6f15c",
					"forcedLiquidation(bool,uint256,uint256,string,uint256,bytes)": "a0ad12e2",
					"helperLogic()": "1e64610c",
					"initialize(address,address,address,address)": "f8c8765e",
					"liquidation(bool,uint256[],uint256[],string[],uint256[],bytes[])": "4b989ce3",
					"minVal()": "f14053ad",
					"myCloseOrderIdList(address,uint256)": "ec4c4f34",
					"myCloseOrderIdListLength(address)": "aecf77b1",
					"myCloseOrderIdList_index(address,uint256)": "f0c765e4",
					"myOpenOrderIdList(address,uint256)": "c2ec527d",
					"myOpenOrderIdListLength(address)": "e4e95520",
					"myOpenOrderIdList_index(address,uint256)": "7be3a1a1",
					"openOrderIdList(uint256)": "0f58d242",
					"openOrderIdListLength()": "323b9b2b",
					"openOrderIdList_index(uint256)": "43b1f3cb",
					"openPosition(bool,uint256,uint256,uint256,uint256,string,uint256,uint256,bytes)": "db4a5aa9",
					"oracle()": "7dc0d1d0",
					"orderInfo(uint256)": "6ab34a4a",
					"owner()": "8da5cb5b",
					"pagination(address,uint256,uint256,uint256)": "080270a8",
					"renounceOwnership()": "715018a6",
					"setExecutor(address,bool)": "1e1bff3f",
					"setFeePercent(uint256)": "7ce3489b",
					"setOrderInfo(uint256,address,uint256,string,uint256,uint256,uint256,uint256,uint256,uint256,uint256,uint256)": "fc234d06",
					"setSigner(address)": "6c19e783",
					"signer()": "238ac933",
					"transferOwnership(address)": "f2fde38b",
					"usc()": "3011d3d5"
				}
			},
			"storageLayout": {
				"storage": [
					{
						"astId": 130,
						"contract": "contracts/mirrorseaMain.sol:mirrorseaMain",
						"label": "_initialized",
						"offset": 0,
						"slot": "0",
						"type": "t_bool"
					},
					{
						"astId": 133,
						"contract": "contracts/mirrorseaMain.sol:mirrorseaMain",
						"label": "_initializing",
						"offset": 1,
						"slot": "0",
						"type": "t_bool"
					},
					{
						"astId": 760,
						"contract": "contracts/mirrorseaMain.sol:mirrorseaMain",
						"label": "__gap",
						"offset": 0,
						"slot": "1",
						"type": "t_array(t_uint256)50_storage"
					},
					{
						"astId": 10,
						"contract": "contracts/mirrorseaMain.sol:mirrorseaMain",
						"label": "_owner",
						"offset": 0,
						"slot": "51",
						"type": "t_address"
					},
					{
						"astId": 124,
						"contract": "contracts/mirrorseaMain.sol:mirrorseaMain",
						"label": "__gap",
						"offset": 0,
						"slot": "52",
						"type": "t_array(t_uint256)49_storage"
					},
					{
						"astId": 1132,
						"contract": "contracts/mirrorseaMain.sol:mirrorseaMain",
						"label": "executor",
						"offset": 0,
						"slot": "101",
						"type": "t_mapping(t_address,t_bool)"
					},
					{
						"astId": 1134,
						"contract": "contracts/mirrorseaMain.sol:mirrorseaMain",
						"label": "signer",
						"offset": 0,
						"slot": "102",
						"type": "t_address"
					},
					{
						"astId": 1137,
						"contract": "contracts/mirrorseaMain.sol:mirrorseaMain",
						"label": "usc",
						"offset": 0,
						"slot": "103",
						"type": "t_contract(IERC20Upgradeable)248"
					},
					{
						"astId": 1140,
						"contract": "contracts/mirrorseaMain.sol:mirrorseaMain",
						"label": "helperLogic",
						"offset": 0,
						"slot": "104",
						"type": "t_contract(IhelperLogic)1086"
					},
					{
						"astId": 1143,
						"contract": "contracts/mirrorseaMain.sol:mirrorseaMain",
						"label": "oracle",
						"offset": 0,
						"slot": "105",
						"type": "t_contract(IOracle)1102"
					},
					{
						"astId": 1148,
						"contract": "contracts/mirrorseaMain.sol:mirrorseaMain",
						"label": "_orderInfo",
						"offset": 0,
						"slot": "106",
						"type": "t_mapping(t_uint256,t_struct(OrderInfo)1208_storage)"
					},
					{
						"astId": 1150,
						"contract": "contracts/mirrorseaMain.sol:mirrorseaMain",
						"label": "OrderIndex",
						"offset": 0,
						"slot": "107",
						"type": "t_uint256"
					},
					{
						"astId": 1153,
						"contract": "contracts/mirrorseaMain.sol:mirrorseaMain",
						"label": "openOrderIdList",
						"offset": 0,
						"slot": "108",
						"type": "t_array(t_uint256)dyn_storage"
					},
					{
						"astId": 1157,
						"contract": "contracts/mirrorseaMain.sol:mirrorseaMain",
						"label": "openOrderIdList_index",
						"offset": 0,
						"slot": "109",
						"type": "t_mapping(t_uint256,t_uint256)"
					},
					{
						"astId": 1162,
						"contract": "contracts/mirrorseaMain.sol:mirrorseaMain",
						"label": "myOpenOrderIdList",
						"offset": 0,
						"slot": "110",
						"type": "t_mapping(t_address,t_array(t_uint256)dyn_storage)"
					},
					{
						"astId": 1168,
						"contract": "contracts/mirrorseaMain.sol:mirrorseaMain",
						"label": "myOpenOrderIdList_index",
						"offset": 0,
						"slot": "111",
						"type": "t_mapping(t_address,t_mapping(t_uint256,t_uint256))"
					},
					{
						"astId": 1173,
						"contract": "contracts/mirrorseaMain.sol:mirrorseaMain",
						"label": "myCloseOrderIdList",
						"offset": 0,
						"slot": "112",
						"type": "t_mapping(t_address,t_array(t_uint256)dyn_storage)"
					},
					{
						"astId": 1179,
						"contract": "contracts/mirrorseaMain.sol:mirrorseaMain",
						"label": "myCloseOrderIdList_index",
						"offset": 0,
						"slot": "113",
						"type": "t_mapping(t_address,t_mapping(t_uint256,t_uint256))"
					},
					{
						"astId": 1181,
						"contract": "contracts/mirrorseaMain.sol:mirrorseaMain",
						"label": "feePercent",
						"offset": 0,
						"slot": "114",
						"type": "t_uint256"
					},
					{
						"astId": 1183,
						"contract": "contracts/mirrorseaMain.sol:mirrorseaMain",
						"label": "PRECISION",
						"offset": 0,
						"slot": "115",
						"type": "t_uint256"
					},
					{
						"astId": 1185,
						"contract": "contracts/mirrorseaMain.sol:mirrorseaMain",
						"label": "minVal",
						"offset": 0,
						"slot": "116",
						"type": "t_uint256"
					}
				],
				"types": {
					"t_address": {
						"encoding": "inplace",
						"label": "address",
						"numberOfBytes": "20"
					},
					"t_array(t_uint256)49_storage": {
						"base": "t_uint256",
						"encoding": "inplace",
						"label": "uint256[49]",
						"numberOfBytes": "1568"
					},
					"t_array(t_uint256)50_storage": {
						"base": "t_uint256",
						"encoding": "inplace",
						"label": "uint256[50]",
						"numberOfBytes": "1600"
					},
					"t_array(t_uint256)dyn_storage": {
						"base": "t_uint256",
						"encoding": "dynamic_array",
						"label": "uint256[]",
						"numberOfBytes": "32"
					},
					"t_bool": {
						"encoding": "inplace",
						"label": "bool",
						"numberOfBytes": "1"
					},
					"t_contract(IERC20Upgradeable)248": {
						"encoding": "inplace",
						"label": "contract IERC20Upgradeable",
						"numberOfBytes": "20"
					},
					"t_contract(IOracle)1102": {
						"encoding": "inplace",
						"label": "contract IOracle",
						"numberOfBytes": "20"
					},
					"t_contract(IhelperLogic)1086": {
						"encoding": "inplace",
						"label": "contract IhelperLogic",
						"numberOfBytes": "20"
					},
					"t_mapping(t_address,t_array(t_uint256)dyn_storage)": {
						"encoding": "mapping",
						"key": "t_address",
						"label": "mapping(address => uint256[])",
						"numberOfBytes": "32",
						"value": "t_array(t_uint256)dyn_storage"
					},
					"t_mapping(t_address,t_bool)": {
						"encoding": "mapping",
						"key": "t_address",
						"label": "mapping(address => bool)",
						"numberOfBytes": "32",
						"value": "t_bool"
					},
					"t_mapping(t_address,t_mapping(t_uint256,t_uint256))": {
						"encoding": "mapping",
						"key": "t_address",
						"label": "mapping(address => mapping(uint256 => uint256))",
						"numberOfBytes": "32",
						"value": "t_mapping(t_uint256,t_uint256)"
					},
					"t_mapping(t_uint256,t_struct(OrderInfo)1208_storage)": {
						"encoding": "mapping",
						"key": "t_uint256",
						"label": "mapping(uint256 => struct mirrorseaMain.OrderInfo)",
						"numberOfBytes": "32",
						"value": "t_struct(OrderInfo)1208_storage"
					},
					"t_mapping(t_uint256,t_uint256)": {
						"encoding": "mapping",
						"key": "t_uint256",
						"label": "mapping(uint256 => uint256)",
						"numberOfBytes": "32",
						"value": "t_uint256"
					},
					"t_string_storage": {
						"encoding": "bytes",
						"label": "string",
						"numberOfBytes": "32"
					},
					"t_struct(OrderInfo)1208_storage": {
						"encoding": "inplace",
						"label": "struct mirrorseaMain.OrderInfo",
						"members": [
							{
								"astId": 1187,
								"contract": "contracts/mirrorseaMain.sol:mirrorseaMain",
								"label": "user",
								"offset": 0,
								"slot": "0",
								"type": "t_address"
							},
							{
								"astId": 1189,
								"contract": "contracts/mirrorseaMain.sol:mirrorseaMain",
								"label": "_type",
								"offset": 0,
								"slot": "1",
								"type": "t_uint256"
							},
							{
								"astId": 1191,
								"contract": "contracts/mirrorseaMain.sol:mirrorseaMain",
								"label": "symbols",
								"offset": 0,
								"slot": "2",
								"type": "t_string_storage"
							},
							{
								"astId": 1193,
								"contract": "contracts/mirrorseaMain.sol:mirrorseaMain",
								"label": "state",
								"offset": 0,
								"slot": "3",
								"type": "t_uint256"
							},
							{
								"astId": 1195,
								"contract": "contracts/mirrorseaMain.sol:mirrorseaMain",
								"label": "direction",
								"offset": 0,
								"slot": "4",
								"type": "t_uint256"
							},
							{
								"astId": 1197,
								"contract": "contracts/mirrorseaMain.sol:mirrorseaMain",
								"label": "openPrice18",
								"offset": 0,
								"slot": "5",
								"type": "t_uint256"
							},
							{
								"astId": 1199,
								"contract": "contracts/mirrorseaMain.sol:mirrorseaMain",
								"label": "openTime",
								"offset": 0,
								"slot": "6",
								"type": "t_uint256"
							},
							{
								"astId": 1201,
								"contract": "contracts/mirrorseaMain.sol:mirrorseaMain",
								"label": "closePrice18",
								"offset": 0,
								"slot": "7",
								"type": "t_uint256"
							},
							{
								"astId": 1203,
								"contract": "contracts/mirrorseaMain.sol:mirrorseaMain",
								"label": "closeTime",
								"offset": 0,
								"slot": "8",
								"type": "t_uint256"
							},
							{
								"astId": 1205,
								"contract": "contracts/mirrorseaMain.sol:mirrorseaMain",
								"label": "amt",
								"offset": 0,
								"slot": "9",
								"type": "t_uint256"
							},
							{
								"astId": 1207,
								"contract": "contracts/mirrorseaMain.sol:mirrorseaMain",
								"label": "margin",
								"offset": 0,
								"slot": "10",
								"type": "t_uint256"
							}
						],
						"numberOfBytes": "352"
					},
					"t_uint256": {
						"encoding": "inplace",
						"label": "uint256",
						"numberOfBytes": "32"
					}
				}
			},
			"userdoc": {
				"kind": "user",
				"methods": {},
				"version": 1
			}
		}
	}
}