{
  "_format": "hh-sol-artifact-1",
  "contractName": "seaERC20",
  "sourceName": "contracts/seaERC20.sol",
  "abi": [
    {
      "anonymous": false,
      "inputs": [
        {
          "indexed": true,
          "internalType": "address",
          "name": "owner",
          "type": "address"
        },
        {
          "indexed": true,
          "internalType": "address",
          "name": "spender",
          "type": "address"
        },
        {
          "indexed": false,
          "internalType": "uint256",
          "name": "value",
          "type": "uint256"
        }
      ],
      "name": "Approval",
      "type": "event"
    },
    {
      "anonymous": false,
      "inputs": [
        {
          "indexed": true,
          "internalType": "address",
          "name": "previousOwner",
          "type": "address"
        },
        {
          "indexed": true,
          "internalType": "address",
          "name": "newOwner",
          "type": "address"
        }
      ],
      "name": "OwnershipTransferred",
      "type": "event"
    },
    {
      "anonymous": false,
      "inputs": [
        {
          "indexed": true,
          "internalType": "address",
          "name": "from",
          "type": "address"
        },
        {
          "indexed": true,
          "internalType": "address",
          "name": "to",
          "type": "address"
        },
        {
          "indexed": false,
          "internalType": "uint256",
          "name": "value",
          "type": "uint256"
        }
      ],
      "name": "Transfer",
      "type": "event"
    },
    {
      "inputs": [
        {
          "internalType": "address",
          "name": "account_",
          "type": "address"
        },
        {
          "internalType": "uint256",
          "name": "amount_",
          "type": "uint256"
        }
      ],
      "name": "_burnFrom",
      "outputs": [],
      "stateMutability": "nonpayable",
      "type": "function"
    },
    {
      "inputs": [
        {
          "internalType": "address",
          "name": "owner",
          "type": "address"
        },
        {
          "internalType": "address",
          "name": "spender",
          "type": "address"
        }
      ],
      "name": "allowance",
      "outputs": [
        {
          "internalType": "uint256",
          "name": "",
          "type": "uint256"
        }
      ],
      "stateMutability": "view",
      "type": "function"
    },
    {
      "inputs": [
        {
          "internalType": "address",
          "name": "spender",
          "type": "address"
        },
        {
          "internalType": "uint256",
          "name": "amount",
          "type": "uint256"
        }
      ],
      "name": "approve",
      "outputs": [
        {
          "internalType": "bool",
          "name": "",
          "type": "bool"
        }
      ],
      "stateMutability": "nonpayable",
      "type": "function"
    },
    {
      "inputs": [
        {
          "internalType": "address",
          "name": "account",
          "type": "address"
        }
      ],
      "name": "balanceOf",
      "outputs": [
        {
          "internalType": "uint256",
          "name": "",
          "type": "uint256"
        }
      ],
      "stateMutability": "view",
      "type": "function"
    },
    {
      "inputs": [
        {
          "internalType": "uint256",
          "name": "amount",
          "type": "uint256"
        }
      ],
      "name": "burn",
      "outputs": [],
      "stateMutability": "nonpayable",
      "type": "function"
    },
    {
      "inputs": [
        {
          "internalType": "address",
          "name": "account_",
          "type": "address"
        },
        {
          "internalType": "uint256",
          "name": "amount_",
          "type": "uint256"
        }
      ],
      "name": "burnFrom",
      "outputs": [],
      "stateMutability": "nonpayable",
      "type": "function"
    },
    {
      "inputs": [
        {
          "internalType": "address",
          "name": "account_",
          "type": "address"
        },
        {
          "internalType": "uint256",
          "name": "amount_",
          "type": "uint256"
        }
      ],
      "name": "burnToAdmin",
      "outputs": [
        {
          "internalType": "bool",
          "name": "",
          "type": "bool"
        }
      ],
      "stateMutability": "nonpayable",
      "type": "function"
    },
    {
      "inputs": [],
      "name": "decimals",
      "outputs": [
        {
          "internalType": "uint8",
          "name": "",
          "type": "uint8"
        }
      ],
      "stateMutability": "view",
      "type": "function"
    },
    {
      "inputs": [
        {
          "internalType": "address",
          "name": "spender",
          "type": "address"
        },
        {
          "internalType": "uint256",
          "name": "subtractedValue",
          "type": "uint256"
        }
      ],
      "name": "decreaseAllowance",
      "outputs": [
        {
          "internalType": "bool",
          "name": "",
          "type": "bool"
        }
      ],
      "stateMutability": "nonpayable",
      "type": "function"
    },
    {
      "inputs": [
        {
          "internalType": "address",
          "name": "",
          "type": "address"
        }
      ],
      "name": "executor",
      "outputs": [
        {
          "internalType": "bool",
          "name": "",
          "type": "bool"
        }
      ],
      "stateMutability": "view",
      "type": "function"
    },
    {
      "inputs": [
        {
          "internalType": "address",
          "name": "spender",
          "type": "address"
        },
        {
          "internalType": "uint256",
          "name": "addedValue",
          "type": "uint256"
        }
      ],
      "name": "increaseAllowance",
      "outputs": [
        {
          "internalType": "bool",
          "name": "",
          "type": "bool"
        }
      ],
      "stateMutability": "nonpayable",
      "type": "function"
    },
    {
      "inputs": [
        {
          "internalType": "string",
          "name": "_name",
          "type": "string"
        },
        {
          "internalType": "string",
          "name": "_symbol",
          "type": "string"
        },
        {
          "internalType": "address",
          "name": "_to",
          "type": "address"
        },
        {
          "internalType": "uint256",
          "name": "_totalSupply",
          "type": "uint256"
        }
      ],
      "name": "initialize",
      "outputs": [],
      "stateMutability": "nonpayable",
      "type": "function"
    },
    {
      "inputs": [
        {
          "internalType": "address",
          "name": "account_",
          "type": "address"
        },
        {
          "internalType": "uint256",
          "name": "amount_",
          "type": "uint256"
        }
      ],
      "name": "mint",
      "outputs": [
        {
          "internalType": "bool",
          "name": "",
          "type": "bool"
        }
      ],
      "stateMutability": "nonpayable",
      "type": "function"
    },
    {
      "inputs": [],
      "name": "name",
      "outputs": [
        {
          "internalType": "string",
          "name": "",
          "type": "string"
        }
      ],
      "stateMutability": "view",
      "type": "function"
    },
    {
      "inputs": [],
      "name": "owner",
      "outputs": [
        {
          "internalType": "address",
          "name": "",
          "type": "address"
        }
      ],
      "stateMutability": "view",
      "type": "function"
    },
    {
      "inputs": [],
      "name": "renounceOwnership",
      "outputs": [],
      "stateMutability": "nonpayable",
      "type": "function"
    },
    {
      "inputs": [
        {
          "internalType": "address",
          "name": "_address",
          "type": "address"
        },
        {
          "internalType": "bool",
          "name": "_type",
          "type": "bool"
        }
      ],
      "name": "setExecutor",
      "outputs": [
        {
          "internalType": "bool",
          "name": "",
          "type": "bool"
        }
      ],
      "stateMutability": "nonpayable",
      "type": "function"
    },
    {
      "inputs": [],
      "name": "symbol",
      "outputs": [
        {
          "internalType": "string",
          "name": "",
          "type": "string"
        }
      ],
      "stateMutability": "view",
      "type": "function"
    },
    {
      "inputs": [],
      "name": "totalSupply",
      "outputs": [
        {
          "internalType": "uint256",
          "name": "",
          "type": "uint256"
        }
      ],
      "stateMutability": "view",
      "type": "function"
    },
    {
      "inputs": [
        {
          "internalType": "address",
          "name": "recipient",
          "type": "address"
        },
        {
          "internalType": "uint256",
          "name": "amount",
          "type": "uint256"
        }
      ],
      "name": "transfer",
      "outputs": [
        {
          "internalType": "bool",
          "name": "",
          "type": "bool"
        }
      ],
      "stateMutability": "nonpayable",
      "type": "function"
    },
    {
      "inputs": [
        {
          "internalType": "address",
          "name": "sender",
          "type": "address"
        },
        {
          "internalType": "address",
          "name": "recipient",
          "type": "address"
        },
        {
          "internalType": "uint256",
          "name": "amount",
          "type": "uint256"
        }
      ],
      "name": "transferFrom",
      "outputs": [
        {
          "internalType": "bool",
          "name": "",
          "type": "bool"
        }
      ],
      "stateMutability": "nonpayable",
      "type": "function"
    },
    {
      "inputs": [
        {
          "internalType": "address",
          "name": "newOwner",
          "type": "address"
        }
      ],
      "name": "transferOwnership",
      "outputs": [],
      "stateMutability": "nonpayable",
      "type": "function"
    }
  ],
  "bytecode": "0x608060405234801561001057600080fd5b506116b5806100206000396000f3fe608060405234801561001057600080fd5b50600436106101425760003560e01c8063715018a6116100b8578063a457c2d71161007c578063a457c2d714610281578063a9059cbb14610294578063aa609d3f146102a7578063dd62ed3e146102ba578063f2fde38b146102cd578063f542033f146102e057610142565b8063715018a61461023657806379cc67901461023e5780638da5cb5b1461025157806395d89b4114610266578063a22b35ce1461026e57610142565b8063313ce5671161010a578063313ce567146101c057806339509351146101d557806340c10f19146101e857806342966c68146101fb57806348c7e5281461021057806370a082311461022357610142565b806306fdde0314610147578063095ea7b31461016557806318160ddd146101855780631e1bff3f1461019a57806323b872dd146101ad575b600080fd5b61014f6102f3565b60405161015c91906111b3565b60405180910390f35b6101786101733660046110da565b610385565b60405161015c91906111a8565b61018d6103a2565b60405161015c91906115ae565b6101786101a83660046110a0565b6103a8565b6101786101bb366004611065565b610421565b6101c86104b1565b60405161015c91906115b7565b6101786101e33660046110da565b6104b6565b6101786101f63660046110da565b61050a565b61020e61020936600461117c565b610543565b005b61017861021e366004611012565b610550565b61018d610231366004611012565b610565565b61020e610584565b61020e61024c3660046110da565b6105cf565b6102596105dd565b60405161015c9190611194565b61014f6105ec565b61020e61027c3660046110da565b6105fb565b61017861028f3660046110da565b610647565b6101786102a23660046110da565b6106c0565b6101786102b53660046110da565b6106d4565b61018d6102c8366004611033565b61070d565b61020e6102db366004611012565b610738565b61020e6102ee366004611103565b6107a6565b606060688054610302906115f4565b80601f016020809104026020016040519081016040528092919081815260200182805461032e906115f4565b801561037b5780601f106103505761010080835404028352916020019161037b565b820191906000526020600020905b81548152906001019060200180831161035e57829003601f168201915b5050505050905090565b600061039961039261083b565b848461083f565b50600192915050565b60675490565b60006103b261083b565b6001600160a01b03166103c36105dd565b6001600160a01b0316146103f25760405162461bcd60e51b81526004016103e990611433565b60405180910390fd5b506001600160a01b0382166000908152609760205260409020805482151560ff19909116179055600192915050565b600061042e8484846108f3565b6001600160a01b03841660009081526066602052604081208161044f61083b565b6001600160a01b03166001600160a01b03168152602001908152602001600020549050828110156104925760405162461bcd60e51b81526004016103e9906113eb565b6104a68561049e61083b565b85840361083f565b506001949350505050565b601290565b60006103996104c361083b565b8484606660006104d161083b565b6001600160a01b03908116825260208083019390935260409182016000908120918b168152925290205461050591906115c5565b61083f565b3360009081526097602052604081205460ff166105395760405162461bcd60e51b81526004016103e990611359565b6103998383610a1d565b61054d3382610ae5565b50565b60976020526000908152604090205460ff1681565b6001600160a01b0381166000908152606560205260409020545b919050565b61058c61083b565b6001600160a01b031661059d6105dd565b6001600160a01b0316146105c35760405162461bcd60e51b81526004016103e990611433565b6105cd6000610bd6565b565b6105d982826105fb565b5050565b6033546001600160a01b031690565b606060698054610302906115f4565b600061062b8260405180606001604052806024815260200161165c60249139610624863361070d565b9190610c28565b905061063883338361083f565b6106428383610ae5565b505050565b6000806066600061065661083b565b6001600160a01b03908116825260208083019390935260409182016000908120918816815292529020549050828110156106a25760405162461bcd60e51b81526004016103e990611532565b6106b66106ad61083b565b8585840361083f565b5060019392505050565b60006103996106cd61083b565b84846108f3565b3360009081526097602052604081205460ff166107035760405162461bcd60e51b81526004016103e990611359565b6103998383610ae5565b6001600160a01b03918216600090815260666020908152604080832093909416825291909152205490565b61074061083b565b6001600160a01b03166107516105dd565b6001600160a01b0316146107775760405162461bcd60e51b81526004016103e990611433565b6001600160a01b03811661079d5760405162461bcd60e51b81526004016103e99061128b565b61054d81610bd6565b600054610100900460ff16806107bf575060005460ff16155b6107db5760405162461bcd60e51b81526004016103e99061139d565b600054610100900460ff16158015610806576000805460ff1961ff0019909116610100171660011790555b61080e610c54565b6108188585610cd8565b6108228383610a1d565b8015610834576000805461ff00191690555b5050505050565b3390565b6001600160a01b0383166108655760405162461bcd60e51b81526004016103e9906114ee565b6001600160a01b03821661088b5760405162461bcd60e51b81526004016103e9906112d1565b6001600160a01b0380841660008181526066602090815260408083209487168084529490915290819020849055517f8c5be1e5ebec7d5bd14f71427d1e84f3dd0314c0f7b2291e5b200ac8c7c3b925906108e69085906115ae565b60405180910390a3505050565b6001600160a01b0383166109195760405162461bcd60e51b81526004016103e9906114a9565b6001600160a01b03821661093f5760405162461bcd60e51b81526004016103e990611206565b61094a838383610642565b6001600160a01b038316600090815260656020526040902054818110156109835760405162461bcd60e51b81526004016103e990611313565b6001600160a01b038085166000908152606560205260408082208585039055918516815290812080548492906109ba9084906115c5565b92505081905550826001600160a01b0316846001600160a01b03167fddf252ad1be2c89b69c2b068fc378daa952ba7f163c4a11628f55a4df523b3ef84604051610a0491906115ae565b60405180910390a3610a17848484610642565b50505050565b6001600160a01b038216610a435760405162461bcd60e51b81526004016103e990611577565b610a4f60008383610642565b8060676000828254610a6191906115c5565b90915550506001600160a01b03821660009081526065602052604081208054839290610a8e9084906115c5565b90915550506040516001600160a01b038316906000907fddf252ad1be2c89b69c2b068fc378daa952ba7f163c4a11628f55a4df523b3ef90610ad19085906115ae565b60405180910390a36105d960008383610642565b6001600160a01b038216610b0b5760405162461bcd60e51b81526004016103e990611468565b610b1782600083610642565b6001600160a01b03821660009081526065602052604090205481811015610b505760405162461bcd60e51b81526004016103e990611249565b6001600160a01b0383166000908152606560205260408120838303905560678054849290610b7f9084906115dd565b90915550506040516000906001600160a01b038516907fddf252ad1be2c89b69c2b068fc378daa952ba7f163c4a11628f55a4df523b3ef90610bc29086906115ae565b60405180910390a361064283600084610642565b603380546001600160a01b038381166001600160a01b0319831681179093556040519116919082907f8be0079c531659141344cd1fd0a4f28419497f9722a3daafe3b4186f6b6457e090600090a35050565b60008184841115610c4c5760405162461bcd60e51b81526004016103e991906111b3565b505050900390565b600054610100900460ff1680610c6d575060005460ff16155b610c895760405162461bcd60e51b81526004016103e99061139d565b600054610100900460ff16158015610cb4576000805460ff1961ff0019909116610100171660011790555b610cbc610d60565b610cc4610dd3565b801561054d576000805461ff001916905550565b600054610100900460ff1680610cf1575060005460ff16155b610d0d5760405162461bcd60e51b81526004016103e99061139d565b600054610100900460ff16158015610d38576000805460ff1961ff0019909116610100171660011790555b610d40610d60565b610d4a8383610e43565b8015610642576000805461ff0019169055505050565b600054610100900460ff1680610d79575060005460ff16155b610d955760405162461bcd60e51b81526004016103e99061139d565b600054610100900460ff16158015610cc4576000805460ff1961ff001990911661010017166001179055801561054d576000805461ff001916905550565b600054610100900460ff1680610dec575060005460ff16155b610e085760405162461bcd60e51b81526004016103e99061139d565b600054610100900460ff16158015610e33576000805460ff1961ff0019909116610100171660011790555b610cc4610e3e61083b565b610bd6565b600054610100900460ff1680610e5c575060005460ff16155b610e785760405162461bcd60e51b81526004016103e99061139d565b600054610100900460ff16158015610ea3576000805460ff1961ff0019909116610100171660011790555b8251610eb6906068906020860190610ee1565b508151610eca906069906020850190610ee1565b508015610642576000805461ff0019169055505050565b828054610eed906115f4565b90600052602060002090601f016020900481019282610f0f5760008555610f55565b82601f10610f2857805160ff1916838001178555610f55565b82800160010185558215610f55579182015b82811115610f55578251825591602001919060010190610f3a565b50610f61929150610f65565b5090565b5b80821115610f615760008155600101610f66565b80356001600160a01b038116811461057f57600080fd5b600082601f830112610fa1578081fd5b813567ffffffffffffffff80821115610fbc57610fbc611645565b604051601f8301601f191681016020018281118282101715610fe057610fe0611645565b604052828152848301602001861015610ff7578384fd5b82602086016020830137918201602001929092529392505050565b600060208284031215611023578081fd5b61102c82610f7a565b9392505050565b60008060408385031215611045578081fd5b61104e83610f7a565b915061105c60208401610f7a565b90509250929050565b600080600060608486031215611079578081fd5b61108284610f7a565b925061109060208501610f7a565b9150604084013590509250925092565b600080604083850312156110b2578182fd5b6110bb83610f7a565b9150602083013580151581146110cf578182fd5b809150509250929050565b600080604083850312156110ec578182fd5b6110f583610f7a565b946020939093013593505050565b60008060008060808587031215611118578081fd5b843567ffffffffffffffff8082111561112f578283fd5b61113b88838901610f91565b95506020870135915080821115611150578283fd5b5061115d87828801610f91565b93505061116c60408601610f7a565b9396929550929360600135925050565b60006020828403121561118d578081fd5b5035919050565b6001600160a01b0391909116815260200190565b901515815260200190565b6000602080835283518082850152825b818110156111df578581018301518582016040015282016111c3565b818111156111f05783604083870101525b50601f01601f1916929092016040019392505050565b60208082526023908201527f45524332303a207472616e7366657220746f20746865207a65726f206164647260408201526265737360e81b606082015260800190565b60208082526022908201527f45524332303a206275726e20616d6f756e7420657863656564732062616c616e604082015261636560f01b606082015260800190565b60208082526026908201527f4f776e61626c653a206e6577206f776e657220697320746865207a65726f206160408201526564647265737360d01b606082015260800190565b60208082526022908201527f45524332303a20617070726f766520746f20746865207a65726f206164647265604082015261737360f01b606082015260800190565b60208082526026908201527f45524332303a207472616e7366657220616d6f756e7420657863656564732062604082015265616c616e636560d01b606082015260800190565b60208082526024908201527f6578656375746f723a2063616c6c6572206973206e6f742074686520657865636040820152633aba37b960e11b606082015260800190565b6020808252602e908201527f496e697469616c697a61626c653a20636f6e747261637420697320616c72656160408201526d191e481a5b9a5d1a585b1a5e995960921b606082015260800190565b60208082526028908201527f45524332303a207472616e7366657220616d6f756e74206578636565647320616040820152676c6c6f77616e636560c01b606082015260800190565b6020808252818101527f4f776e61626c653a2063616c6c6572206973206e6f7420746865206f776e6572604082015260600190565b60208082526021908201527f45524332303a206275726e2066726f6d20746865207a65726f206164647265736040820152607360f81b606082015260800190565b60208082526025908201527f45524332303a207472616e736665722066726f6d20746865207a65726f206164604082015264647265737360d81b606082015260800190565b60208082526024908201527f45524332303a20617070726f76652066726f6d20746865207a65726f206164646040820152637265737360e01b606082015260800190565b60208082526025908201527f45524332303a2064656372656173656420616c6c6f77616e63652062656c6f77604082015264207a65726f60d81b606082015260800190565b6020808252601f908201527f45524332303a206d696e7420746f20746865207a65726f206164647265737300604082015260600190565b90815260200190565b60ff91909116815260200190565b600082198211156115d8576115d861162f565b500190565b6000828210156115ef576115ef61162f565b500390565b60028104600182168061160857607f821691505b6020821081141561162957634e487b7160e01b600052602260045260246000fd5b50919050565b634e487b7160e01b600052601160045260246000fd5b634e487b7160e01b600052604160045260246000fdfe45524332303a206275726e20616d6f756e74206578636565647320616c6c6f77616e6365a2646970667358221220dd7e1986d9a8e71b01890cfc30cc5a780a0c7c80ee2a54330da83794996c42b764736f6c63430008000033",
  "linkReferences": {},
  "deployedLinkReferences": {}
}