{
	"data": {
		"bytecode": {
			"linkReferences": {},
			"object": "608060405234801561001057600080fd5b50611f87806100206000396000f3fe608060405234801561001057600080fd5b50600436106102275760003560e01c80638da5cb5b11610130578063bd0b1f44116100b8578063db7f521a1161007c578063db7f521a146103f8578063ec1f1f691461040b578063f106845414610413578063f2fde38b1461041b578063f6d7eade1461042e57610227565b8063bd0b1f44146103ba578063c83dd231146103c2578063d10c06a2146103ca578063d477f05f146103d2578063d4f26c51146103e557610227565b8063a36a7526116100ff578063a36a752614610371578063aaf5bfc314610384578063aaf5eb6814610397578063af5518c41461039f578063b8bb97a1146103b257610227565b80638da5cb5b1461034657806391cca3db1461034e578063930ed033146103565780639da5b0d51461036957610227565b80633e413bee116101b35780634ecaac41116101825780634ecaac411461031357806355c746d11461031b57806358de5de81461032e578063715018a6146103365780637e47961c1461033e57610227565b80633e413bee146102dd5780634591db50146102e557806348c7e528146102f85780634ae6a0271461030b57610227565b80632c535a52116101fa5780632c535a52146102905780633011d3d51461029857806335876476146102ad57806336e9332d146102c25780633c850e1e146102ca57610227565b806316d039931461022c5780631b0d8aab1461024a5780631e1bff3f1461026a57806327c42a501461027d575b600080fd5b610234610436565b6040516102419190611d0e565b60405180910390f35b61025d610258366004611a3c565b61043c565b6040516102419190611b1c565b61025d6102783660046118be565b610494565b61025d61028b366004611a3c565b610504565b61023461054e565b6102a0610554565b6040516102419190611ad5565b6102c06102bb366004611959565b610563565b005b6102a06106a2565b61025d6102d8366004611a3c565b6106b1565b6102a06106fb565b61025d6102f3366004611921565b61070a565b61025d610306366004611886565b61076c565b610234610781565b6102a0610787565b61025d610329366004611921565b610796565b61025d6107f8565b6102c0610808565b6102a0610853565b6102a0610862565b6102a0610872565b61025d6103643660046118f6565b610881565b61025d6108df565b61025d61037f366004611886565b6108ef565b61025d610392366004611886565b610955565b6102346109bb565b61025d6103ad366004611a3c565b6109c1565b6102a0610a0b565b610234610a1a565b6102a0610a20565b61025d610a2f565b61025d6103e0366004611886565b610c73565b61025d6103f3366004611886565b610cd9565b61025d610406366004611886565b610d3f565b6102a0610da5565b610234610db4565b6102c0610429366004611886565b610dba565b6102a0610e2b565b60725481565b6000610446610e3a565b6001600160a01b0316610457610862565b6001600160a01b0316146104865760405162461bcd60e51b815260040161047d90611c58565b60405180910390fd5b50607381905560015b919050565b600061049e610e3a565b6001600160a01b03166104af610862565b6001600160a01b0316146104d55760405162461bcd60e51b815260040161047d90611c58565b506001600160a01b0382166000908152606560205260409020805482151560ff19909116179055600192915050565b600061050e610e3a565b6001600160a01b031661051f610862565b6001600160a01b0316146105455760405162461bcd60e51b815260040161047d90611c58565b50606e55600190565b606f5481565b6066546001600160a01b031681565b600054610100900460ff168061057c575060005460ff16155b6105985760405162461bcd60e51b815260040161047d90611c0a565b600054610100900460ff161580156105c3576000805460ff1961ff0019909116610100171660011790555b6105cb610e3e565b606c80546001600160a01b03199081166001600160a01b038a811691909117909255606d805482168b8416179055606680548216898416179055606880548216878416179055606980548216868416179055606a8054339083168117909155606b805483169091179055611388606e556109c4606f8190556070556127106071556103e860725560748054600160a01b60ff60a01b1990911617600161ff0160a01b031916858416179055606780549091169187169190911790558015610698576000805461ff00191690555b5050505050505050565b6074546001600160a01b031681565b60006106bb610e3a565b6001600160a01b03166106cc610862565b6001600160a01b0316146106f25760405162461bcd60e51b815260040161047d90611c58565b50607055600190565b6067546001600160a01b031681565b6000610714610e3a565b6001600160a01b0316610725610862565b6001600160a01b03161461074b5760405162461bcd60e51b815260040161047d90611c58565b5060748054821515600160a01b0260ff60a01b199091161790556001919050565b60656020526000908152604090205460ff1681565b60705481565b6068546001600160a01b031681565b60006107a0610e3a565b6001600160a01b03166107b1610862565b6001600160a01b0316146107d75760405162461bcd60e51b815260040161047d90611c58565b5060748054821515600160a81b0260ff60a81b199091161790556001919050565b607454600160a81b900460ff1681565b610810610e3a565b6001600160a01b0316610821610862565b6001600160a01b0316146108475760405162461bcd60e51b815260040161047d90611c58565b6108516000610ec2565b565b6075546001600160a01b031681565b6033546001600160a01b03165b90565b606b546001600160a01b031681565b600061088b610e3a565b6001600160a01b031661089c610862565b6001600160a01b0316146108c25760405162461bcd60e51b815260040161047d90611c58565b6108d66001600160a01b0384163384610f14565b50600192915050565b607454600160a01b900460ff1681565b60006108f9610e3a565b6001600160a01b031661090a610862565b6001600160a01b0316146109305760405162461bcd60e51b815260040161047d90611c58565b50606a80546001600160a01b0383166001600160a01b03199091161790556001919050565b600061095f610e3a565b6001600160a01b0316610970610862565b6001600160a01b0316146109965760405162461bcd60e51b815260040161047d90611c58565b50606780546001600160a01b0383166001600160a01b03199091161790556001919050565b60715481565b60006109cb610e3a565b6001600160a01b03166109dc610862565b6001600160a01b031614610a025760405162461bcd60e51b815260040161047d90611c58565b50606f55600190565b6069546001600160a01b031681565b606e5481565b606d546001600160a01b031681565b3360009081526065602052604081205460ff16610a5e5760405162461bcd60e51b815260040161047d90611b80565b6066546040516370a0823160e01b81526000916001600160a01b0316906370a0823190610a8f903090600401611ad5565b60206040518083038186803b158015610aa757600080fd5b505afa158015610abb573d6000803e3d6000fd5b505050506040513d601f19601f82011682018060405250810190610adf9190611a54565b905080610af057600191505061086f565b6000610b13607154610b0d606e5485610f6f90919063ffffffff16565b90610f82565b90506000610b32607154610b0d606f5486610f6f90919063ffffffff16565b90506000610b4a82610b448686610f8e565b90610f8e565b90506000610b5784610f9a565b606954606854919250610b77916001600160a01b03908116911683610f14565b606a54606654610b94916001600160a01b03918216911685610f14565b606b54606654610bb1916001600160a01b03918216911684610f14565b607454600160a01b900460ff1615610bcb57610bcb611229565b607454600160a81b900460ff1615610c6757607560009054906101000a90046001600160a01b03166001600160a01b031663796c7be76040518163ffffffff1660e01b8152600401602060405180830381600087803b158015610c2d57600080fd5b505af1158015610c41573d6000803e3d6000fd5b505050506040513d601f19601f82011682018060405250810190610c65919061193d565b505b60019550505050505090565b6000610c7d610e3a565b6001600160a01b0316610c8e610862565b6001600160a01b031614610cb45760405162461bcd60e51b815260040161047d90611c58565b50606b80546001600160a01b0383166001600160a01b03199091161790556001919050565b6000610ce3610e3a565b6001600160a01b0316610cf4610862565b6001600160a01b031614610d1a5760405162461bcd60e51b815260040161047d90611c58565b50607480546001600160a01b0383166001600160a01b03199091161790556001919050565b6000610d49610e3a565b6001600160a01b0316610d5a610862565b6001600160a01b031614610d805760405162461bcd60e51b815260040161047d90611c58565b50607580546001600160a01b0383166001600160a01b03199091161790556001919050565b606a546001600160a01b031681565b60735481565b610dc2610e3a565b6001600160a01b0316610dd3610862565b6001600160a01b031614610df95760405162461bcd60e51b815260040161047d90611c58565b6001600160a01b038116610e1f5760405162461bcd60e51b815260040161047d90611b3a565b610e2881610ec2565b50565b606c546001600160a01b031681565b3390565b600054610100900460ff1680610e57575060005460ff16155b610e735760405162461bcd60e51b815260040161047d90611c0a565b600054610100900460ff16158015610e9e576000805460ff1961ff0019909116610100171660011790555b610ea6611598565b610eae61160b565b8015610e28576000805461ff001916905550565b603380546001600160a01b038381166001600160a01b0319831681179093556040519116919082907f8be0079c531659141344cd1fd0a4f28419497f9722a3daafe3b4186f6b6457e090600090a35050565b610f6a8363a9059cbb60e01b8484604051602401610f33929190611b03565b60408051601f198184030181529190526020810180516001600160e01b03166001600160e01b03199093169290921790915261167b565b505050565b6000610f7b8284611eb2565b9392505050565b6000610f7b8284611d7e565b6000610f7b8284611ed1565b606d5460685460665460405163e6a4390560e01b815260009384936001600160a01b039182169363e6a4390593610fdb939283169290911690600401611ae9565b60206040518083038186803b158015610ff357600080fd5b505afa158015611007573d6000803e3d6000fd5b505050506040513d601f19601f8201168201806040525081019061102b91906118a2565b606654909150611045906001600160a01b03168285610f14565b600080826001600160a01b0316630902f1ac6040518163ffffffff1660e01b815260040160606040518083038186803b15801561108157600080fd5b505afa158015611095573d6000803e3d6000fd5b505050506040513d601f19601f820116820180604052508101906110b991906119ee565b506001600160701b031691506001600160701b031691506000836001600160a01b0316630dfe16816040518163ffffffff1660e01b815260040160206040518083038186803b15801561110b57600080fd5b505afa15801561111f573d6000803e3d6000fd5b505050506040513d601f19601f8201168201806040525081019061114391906118a2565b60665490915060009081906001600160a01b0380851691161461116757838561116a565b84845b91509150600061117b89848461170a565b60665490915060009081906001600160a01b038781169116146111a0578260006111a4565b6000835b6040805160008152602081019182905263022c0d9f60e01b90915291935091506001600160a01b038a169063022c0d9f906111e89085908590309060248101611d17565b600060405180830381600087803b15801561120257600080fd5b505af1158015611216573d6000803e3d6000fd5b50949d9c50505050505050505050505050565b606d5460675460665460405163e6a4390560e01b81526000936001600160a01b039081169363e6a439059361126693918316921690600401611ae9565b60206040518083038186803b15801561127e57600080fd5b505afa158015611292573d6000803e3d6000fd5b505050506040513d601f19601f820116820180604052508101906112b691906118a2565b6066546040516370a0823160e01b81529192506000916001600160a01b03909116906370a08231906112ec908590600401611ad5565b60206040518083038186803b15801561130457600080fd5b505afa158015611318573d6000803e3d6000fd5b505050506040513d601f19601f8201168201806040525081019061133c9190611a54565b6067546040516370a0823160e01b81529192506000916001600160a01b03909116906370a0823190611372908690600401611ad5565b60206040518083038186803b15801561138a57600080fd5b505afa15801561139e573d6000803e3d6000fd5b505050506040513d601f19601f820116820180604052508101906113c29190611a54565b90506000606760009054906101000a90046001600160a01b03166001600160a01b031663313ce5676040518163ffffffff1660e01b815260040160206040518083038186803b15801561141457600080fd5b505afa158015611428573d6000803e3d6000fd5b505050506040513d601f19601f8201168201806040525081019061144c9190611a6c565b60ff1690506000601282101561146a57611467826012611ed1565b90505b600061147782600a611de4565b61148990670de0b6b3a7640000611eb2565b9050600061149b86610b0d8785610f6f565b9050600080670de0b6b3a76400008311156114f6576114cc655af3107a4000610b0d85670de0b6b3a7640000610f8e565b90506072548111156114e157600091506114f1565b6072546114ee9082610f8e565b91505b611525565b611512655af3107a4000610b0d85670de0b6b3a7640000611ed1565b6072549091506115229082611758565b91505b60745460735460405163236535f560e11b81526001600160a01b03909216916346ca6bea9161155b918690600190600401611d4e565b600060405180830381600087803b15801561157557600080fd5b505af1158015611589573d6000803e3d6000fd5b50505050505050505050505050565b600054610100900460ff16806115b1575060005460ff16155b6115cd5760405162461bcd60e51b815260040161047d90611c0a565b600054610100900460ff16158015610eae576000805460ff1961ff0019909116610100171660011790558015610e28576000805461ff001916905550565b600054610100900460ff1680611624575060005460ff16155b6116405760405162461bcd60e51b815260040161047d90611c0a565b600054610100900460ff1615801561166b576000805460ff1961ff0019909116610100171660011790555b610eae611676610e3a565b610ec2565b60006116d0826040518060400160405280602081526020017f5361666545524332303a206c6f772d6c6576656c2063616c6c206661696c6564815250856001600160a01b03166117649092919063ffffffff16565b805190915015610f6a57808060200190518101906116ee919061193d565b610f6a5760405162461bcd60e51b815260040161047d90611cc4565b600080611719856126f2610f6f565b905060006117278285610f6f565b905060006117418361173b88612710610f6f565b90611758565b905061174d8183611d7e565b979650505050505050565b6000610f7b8284611d66565b6060611773848460008561177b565b949350505050565b60608247101561179d5760405162461bcd60e51b815260040161047d90611bc4565b6117a685611830565b6117c25760405162461bcd60e51b815260040161047d90611c8d565b600080866001600160a01b031685876040516117de9190611ab9565b60006040518083038185875af1925050503d806000811461181b576040519150601f19603f3d011682016040523d82523d6000602084013e611820565b606091505b509150915061174d828286611836565b3b151590565b60608315611845575081610f7b565b8251156118555782518084602001fd5b8160405162461bcd60e51b815260040161047d9190611b27565b80516001600160701b038116811461048f57600080fd5b600060208284031215611897578081fd5b8135610f7b81611f2e565b6000602082840312156118b3578081fd5b8151610f7b81611f2e565b600080604083850312156118d0578081fd5b82356118db81611f2e565b915060208301356118eb81611f43565b809150509250929050565b60008060408385031215611908578182fd5b823561191381611f2e565b946020939093013593505050565b600060208284031215611932578081fd5b8135610f7b81611f43565b60006020828403121561194e578081fd5b8151610f7b81611f43565b600080600080600080600060e0888a031215611973578283fd5b873561197e81611f2e565b9650602088013561198e81611f2e565b9550604088013561199e81611f2e565b945060608801356119ae81611f2e565b935060808801356119be81611f2e565b925060a08801356119ce81611f2e565b915060c08801356119de81611f2e565b8091505092959891949750929550565b600080600060608486031215611a02578283fd5b611a0b8461186f565b9250611a196020850161186f565b9150604084015163ffffffff81168114611a31578182fd5b809150509250925092565b600060208284031215611a4d578081fd5b5035919050565b600060208284031215611a65578081fd5b5051919050565b600060208284031215611a7d578081fd5b815160ff81168114610f7b578182fd5b60008151808452611aa5816020860160208601611ee8565b601f01601f19169290920160200192915050565b60008251611acb818460208701611ee8565b9190910192915050565b6001600160a01b0391909116815260200190565b6001600160a01b0392831681529116602082015260400190565b6001600160a01b03929092168252602082015260400190565b901515815260200190565b600060208252610f7b6020830184611a8d565b60208082526026908201527f4f776e61626c653a206e6577206f776e657220697320746865207a65726f206160408201526564647265737360d01b606082015260800190565b60208082526024908201527f6578656375746f723a2063616c6c6572206973206e6f742074686520657865636040820152633aba37b960e11b606082015260800190565b60208082526026908201527f416464726573733a20696e73756666696369656e742062616c616e636520666f6040820152651c8818d85b1b60d21b606082015260800190565b6020808252602e908201527f496e697469616c697a61626c653a20636f6e747261637420697320616c72656160408201526d191e481a5b9a5d1a585b1a5e995960921b606082015260800190565b6020808252818101527f4f776e61626c653a2063616c6c6572206973206e6f7420746865206f776e6572604082015260600190565b6020808252601d908201527f416464726573733a2063616c6c20746f206e6f6e2d636f6e7472616374000000604082015260600190565b6020808252602a908201527f5361666545524332303a204552433230206f7065726174696f6e20646964206e6040820152691bdd081cdd58d8d9595960b21b606082015260800190565b90815260200190565b600085825284602083015260018060a01b038416604083015260806060830152611d446080830184611a8d565b9695505050505050565b92835260208301919091521515604082015260600190565b60008219821115611d7957611d79611f18565b500190565b600082611d9957634e487b7160e01b81526012600452602481fd5b500490565b80825b6001808611611db05750611ddb565b818704821115611dc257611dc2611f18565b80861615611dcf57918102915b9490941c938002611da1565b94509492505050565b6000610f7b6000198484600082611dfd57506001610f7b565b81611e0a57506000610f7b565b8160018114611e205760028114611e2a57611e57565b6001915050610f7b565b60ff841115611e3b57611e3b611f18565b6001841b915084821115611e5157611e51611f18565b50610f7b565b5060208310610133831016604e8410600b8410161715611e8a575081810a83811115611e8557611e85611f18565b610f7b565b611e978484846001611d9e565b808604821115611ea957611ea9611f18565b02949350505050565b6000816000190483118215151615611ecc57611ecc611f18565b500290565b600082821015611ee357611ee3611f18565b500390565b60005b83811015611f03578181015183820152602001611eeb565b83811115611f12576000848401525b50505050565b634e487b7160e01b600052601160045260246000fd5b6001600160a01b0381168114610e2857600080fd5b8015158114610e2857600080fdfea264697066735822122058a69dcd652b30ebe94125dc9311d523994ad71464a9485b6c18098341c1bfa364736f6c63430008000033",
			"opcodes": "PUSH1 0x80 PUSH1 0x40 MSTORE CALLVALUE DUP1 ISZERO PUSH2 0x10 JUMPI PUSH1 0x0 DUP1 REVERT JUMPDEST POP PUSH2 0x1F87 DUP1 PUSH2 0x20 PUSH1 0x0 CODECOPY PUSH1 0x0 RETURN INVALID PUSH1 0x80 PUSH1 0x40 MSTORE CALLVALUE DUP1 ISZERO PUSH2 0x10 JUMPI PUSH1 0x0 DUP1 REVERT JUMPDEST POP PUSH1 0x4 CALLDATASIZE LT PUSH2 0x227 JUMPI PUSH1 0x0 CALLDATALOAD PUSH1 0xE0 SHR DUP1 PUSH4 0x8DA5CB5B GT PUSH2 0x130 JUMPI DUP1 PUSH4 0xBD0B1F44 GT PUSH2 0xB8 JUMPI DUP1 PUSH4 0xDB7F521A GT PUSH2 0x7C JUMPI DUP1 PUSH4 0xDB7F521A EQ PUSH2 0x3F8 JUMPI DUP1 PUSH4 0xEC1F1F69 EQ PUSH2 0x40B JUMPI DUP1 PUSH4 0xF1068454 EQ PUSH2 0x413 JUMPI DUP1 PUSH4 0xF2FDE38B EQ PUSH2 0x41B JUMPI DUP1 PUSH4 0xF6D7EADE EQ PUSH2 0x42E JUMPI PUSH2 0x227 JUMP JUMPDEST DUP1 PUSH4 0xBD0B1F44 EQ PUSH2 0x3BA JUMPI DUP1 PUSH4 0xC83DD231 EQ PUSH2 0x3C2 JUMPI DUP1 PUSH4 0xD10C06A2 EQ PUSH2 0x3CA JUMPI DUP1 PUSH4 0xD477F05F EQ PUSH2 0x3D2 JUMPI DUP1 PUSH4 0xD4F26C51 EQ PUSH2 0x3E5 JUMPI PUSH2 0x227 JUMP JUMPDEST DUP1 PUSH4 0xA36A7526 GT PUSH2 0xFF JUMPI DUP1 PUSH4 0xA36A7526 EQ PUSH2 0x371 JUMPI DUP1 PUSH4 0xAAF5BFC3 EQ PUSH2 0x384 JUMPI DUP1 PUSH4 0xAAF5EB68 EQ PUSH2 0x397 JUMPI DUP1 PUSH4 0xAF5518C4 EQ PUSH2 0x39F JUMPI DUP1 PUSH4 0xB8BB97A1 EQ PUSH2 0x3B2 JUMPI PUSH2 0x227 JUMP JUMPDEST DUP1 PUSH4 0x8DA5CB5B EQ PUSH2 0x346 JUMPI DUP1 PUSH4 0x91CCA3DB EQ PUSH2 0x34E JUMPI DUP1 PUSH4 0x930ED033 EQ PUSH2 0x356 JUMPI DUP1 PUSH4 0x9DA5B0D5 EQ PUSH2 0x369 JUMPI PUSH2 0x227 JUMP JUMPDEST DUP1 PUSH4 0x3E413BEE GT PUSH2 0x1B3 JUMPI DUP1 PUSH4 0x4ECAAC41 GT PUSH2 0x182 JUMPI DUP1 PUSH4 0x4ECAAC41 EQ PUSH2 0x313 JUMPI DUP1 PUSH4 0x55C746D1 EQ PUSH2 0x31B JUMPI DUP1 PUSH4 0x58DE5DE8 EQ PUSH2 0x32E JUMPI DUP1 PUSH4 0x715018A6 EQ PUSH2 0x336 JUMPI DUP1 PUSH4 0x7E47961C EQ PUSH2 0x33E JUMPI PUSH2 0x227 JUMP JUMPDEST DUP1 PUSH4 0x3E413BEE EQ PUSH2 0x2DD JUMPI DUP1 PUSH4 0x4591DB50 EQ PUSH2 0x2E5 JUMPI DUP1 PUSH4 0x48C7E528 EQ PUSH2 0x2F8 JUMPI DUP1 PUSH4 0x4AE6A027 EQ PUSH2 0x30B JUMPI PUSH2 0x227 JUMP JUMPDEST DUP1 PUSH4 0x2C535A52 GT PUSH2 0x1FA JUMPI DUP1 PUSH4 0x2C535A52 EQ PUSH2 0x290 JUMPI DUP1 PUSH4 0x3011D3D5 EQ PUSH2 0x298 JUMPI DUP1 PUSH4 0x35876476 EQ PUSH2 0x2AD JUMPI DUP1 PUSH4 0x36E9332D EQ PUSH2 0x2C2 JUMPI DUP1 PUSH4 0x3C850E1E EQ PUSH2 0x2CA JUMPI PUSH2 0x227 JUMP JUMPDEST DUP1 PUSH4 0x16D03993 EQ PUSH2 0x22C JUMPI DUP1 PUSH4 0x1B0D8AAB EQ PUSH2 0x24A JUMPI DUP1 PUSH4 0x1E1BFF3F EQ PUSH2 0x26A JUMPI DUP1 PUSH4 0x27C42A50 EQ PUSH2 0x27D JUMPI JUMPDEST PUSH1 0x0 DUP1 REVERT JUMPDEST PUSH2 0x234 PUSH2 0x436 JUMP JUMPDEST PUSH1 0x40 MLOAD PUSH2 0x241 SWAP2 SWAP1 PUSH2 0x1D0E JUMP JUMPDEST PUSH1 0x40 MLOAD DUP1 SWAP2 SUB SWAP1 RETURN JUMPDEST PUSH2 0x25D PUSH2 0x258 CALLDATASIZE PUSH1 0x4 PUSH2 0x1A3C JUMP JUMPDEST PUSH2 0x43C JUMP JUMPDEST PUSH1 0x40 MLOAD PUSH2 0x241 SWAP2 SWAP1 PUSH2 0x1B1C JUMP JUMPDEST PUSH2 0x25D PUSH2 0x278 CALLDATASIZE PUSH1 0x4 PUSH2 0x18BE JUMP JUMPDEST PUSH2 0x494 JUMP JUMPDEST PUSH2 0x25D PUSH2 0x28B CALLDATASIZE PUSH1 0x4 PUSH2 0x1A3C JUMP JUMPDEST PUSH2 0x504 JUMP JUMPDEST PUSH2 0x234 PUSH2 0x54E JUMP JUMPDEST PUSH2 0x2A0 PUSH2 0x554 JUMP JUMPDEST PUSH1 0x40 MLOAD PUSH2 0x241 SWAP2 SWAP1 PUSH2 0x1AD5 JUMP JUMPDEST PUSH2 0x2C0 PUSH2 0x2BB CALLDATASIZE PUSH1 0x4 PUSH2 0x1959 JUMP JUMPDEST PUSH2 0x563 JUMP JUMPDEST STOP JUMPDEST PUSH2 0x2A0 PUSH2 0x6A2 JUMP JUMPDEST PUSH2 0x25D PUSH2 0x2D8 CALLDATASIZE PUSH1 0x4 PUSH2 0x1A3C JUMP JUMPDEST PUSH2 0x6B1 JUMP JUMPDEST PUSH2 0x2A0 PUSH2 0x6FB JUMP JUMPDEST PUSH2 0x25D PUSH2 0x2F3 CALLDATASIZE PUSH1 0x4 PUSH2 0x1921 JUMP JUMPDEST PUSH2 0x70A JUMP JUMPDEST PUSH2 0x25D PUSH2 0x306 CALLDATASIZE PUSH1 0x4 PUSH2 0x1886 JUMP JUMPDEST PUSH2 0x76C JUMP JUMPDEST PUSH2 0x234 PUSH2 0x781 JUMP JUMPDEST PUSH2 0x2A0 PUSH2 0x787 JUMP JUMPDEST PUSH2 0x25D PUSH2 0x329 CALLDATASIZE PUSH1 0x4 PUSH2 0x1921 JUMP JUMPDEST PUSH2 0x796 JUMP JUMPDEST PUSH2 0x25D PUSH2 0x7F8 JUMP JUMPDEST PUSH2 0x2C0 PUSH2 0x808 JUMP JUMPDEST PUSH2 0x2A0 PUSH2 0x853 JUMP JUMPDEST PUSH2 0x2A0 PUSH2 0x862 JUMP JUMPDEST PUSH2 0x2A0 PUSH2 0x872 JUMP JUMPDEST PUSH2 0x25D PUSH2 0x364 CALLDATASIZE PUSH1 0x4 PUSH2 0x18F6 JUMP JUMPDEST PUSH2 0x881 JUMP JUMPDEST PUSH2 0x25D PUSH2 0x8DF JUMP JUMPDEST PUSH2 0x25D PUSH2 0x37F CALLDATASIZE PUSH1 0x4 PUSH2 0x1886 JUMP JUMPDEST PUSH2 0x8EF JUMP JUMPDEST PUSH2 0x25D PUSH2 0x392 CALLDATASIZE PUSH1 0x4 PUSH2 0x1886 JUMP JUMPDEST PUSH2 0x955 JUMP JUMPDEST PUSH2 0x234 PUSH2 0x9BB JUMP JUMPDEST PUSH2 0x25D PUSH2 0x3AD CALLDATASIZE PUSH1 0x4 PUSH2 0x1A3C JUMP JUMPDEST PUSH2 0x9C1 JUMP JUMPDEST PUSH2 0x2A0 PUSH2 0xA0B JUMP JUMPDEST PUSH2 0x234 PUSH2 0xA1A JUMP JUMPDEST PUSH2 0x2A0 PUSH2 0xA20 JUMP JUMPDEST PUSH2 0x25D PUSH2 0xA2F JUMP JUMPDEST PUSH2 0x25D PUSH2 0x3E0 CALLDATASIZE PUSH1 0x4 PUSH2 0x1886 JUMP JUMPDEST PUSH2 0xC73 JUMP JUMPDEST PUSH2 0x25D PUSH2 0x3F3 CALLDATASIZE PUSH1 0x4 PUSH2 0x1886 JUMP JUMPDEST PUSH2 0xCD9 JUMP JUMPDEST PUSH2 0x25D PUSH2 0x406 CALLDATASIZE PUSH1 0x4 PUSH2 0x1886 JUMP JUMPDEST PUSH2 0xD3F JUMP JUMPDEST PUSH2 0x2A0 PUSH2 0xDA5 JUMP JUMPDEST PUSH2 0x234 PUSH2 0xDB4 JUMP JUMPDEST PUSH2 0x2C0 PUSH2 0x429 CALLDATASIZE PUSH1 0x4 PUSH2 0x1886 JUMP JUMPDEST PUSH2 0xDBA JUMP JUMPDEST PUSH2 0x2A0 PUSH2 0xE2B JUMP JUMPDEST PUSH1 0x72 SLOAD DUP2 JUMP JUMPDEST PUSH1 0x0 PUSH2 0x446 PUSH2 0xE3A JUMP JUMPDEST PUSH1 0x1 PUSH1 0x1 PUSH1 0xA0 SHL SUB AND PUSH2 0x457 PUSH2 0x862 JUMP JUMPDEST PUSH1 0x1 PUSH1 0x1 PUSH1 0xA0 SHL SUB AND EQ PUSH2 0x486 JUMPI PUSH1 0x40 MLOAD PUSH3 0x461BCD PUSH1 0xE5 SHL DUP2 MSTORE PUSH1 0x4 ADD PUSH2 0x47D SWAP1 PUSH2 0x1C58 JUMP JUMPDEST PUSH1 0x40 MLOAD DUP1 SWAP2 SUB SWAP1 REVERT JUMPDEST POP PUSH1 0x73 DUP2 SWAP1 SSTORE PUSH1 0x1 JUMPDEST SWAP2 SWAP1 POP JUMP JUMPDEST PUSH1 0x0 PUSH2 0x49E PUSH2 0xE3A JUMP JUMPDEST PUSH1 0x1 PUSH1 0x1 PUSH1 0xA0 SHL SUB AND PUSH2 0x4AF PUSH2 0x862 JUMP JUMPDEST PUSH1 0x1 PUSH1 0x1 PUSH1 0xA0 SHL SUB AND EQ PUSH2 0x4D5 JUMPI PUSH1 0x40 MLOAD PUSH3 0x461BCD PUSH1 0xE5 SHL DUP2 MSTORE PUSH1 0x4 ADD PUSH2 0x47D SWAP1 PUSH2 0x1C58 JUMP JUMPDEST POP PUSH1 0x1 PUSH1 0x1 PUSH1 0xA0 SHL SUB DUP3 AND PUSH1 0x0 SWAP1 DUP2 MSTORE PUSH1 0x65 PUSH1 0x20 MSTORE PUSH1 0x40 SWAP1 KECCAK256 DUP1 SLOAD DUP3 ISZERO ISZERO PUSH1 0xFF NOT SWAP1 SWAP2 AND OR SWAP1 SSTORE PUSH1 0x1 SWAP3 SWAP2 POP POP JUMP JUMPDEST PUSH1 0x0 PUSH2 0x50E PUSH2 0xE3A JUMP JUMPDEST PUSH1 0x1 PUSH1 0x1 PUSH1 0xA0 SHL SUB AND PUSH2 0x51F PUSH2 0x862 JUMP JUMPDEST PUSH1 0x1 PUSH1 0x1 PUSH1 0xA0 SHL SUB AND EQ PUSH2 0x545 JUMPI PUSH1 0x40 MLOAD PUSH3 0x461BCD PUSH1 0xE5 SHL DUP2 MSTORE PUSH1 0x4 ADD PUSH2 0x47D SWAP1 PUSH2 0x1C58 JUMP JUMPDEST POP PUSH1 0x6E SSTORE PUSH1 0x1 SWAP1 JUMP JUMPDEST PUSH1 0x6F SLOAD DUP2 JUMP JUMPDEST PUSH1 0x66 SLOAD PUSH1 0x1 PUSH1 0x1 PUSH1 0xA0 SHL SUB AND DUP2 JUMP JUMPDEST PUSH1 0x0 SLOAD PUSH2 0x100 SWAP1 DIV PUSH1 0xFF AND DUP1 PUSH2 0x57C JUMPI POP PUSH1 0x0 SLOAD PUSH1 0xFF AND ISZERO JUMPDEST PUSH2 0x598 JUMPI PUSH1 0x40 MLOAD PUSH3 0x461BCD PUSH1 0xE5 SHL DUP2 MSTORE PUSH1 0x4 ADD PUSH2 0x47D SWAP1 PUSH2 0x1C0A JUMP JUMPDEST PUSH1 0x0 SLOAD PUSH2 0x100 SWAP1 DIV PUSH1 0xFF AND ISZERO DUP1 ISZERO PUSH2 0x5C3 JUMPI PUSH1 0x0 DUP1 SLOAD PUSH1 0xFF NOT PUSH2 0xFF00 NOT SWAP1 SWAP2 AND PUSH2 0x100 OR AND PUSH1 0x1 OR SWAP1 SSTORE JUMPDEST PUSH2 0x5CB PUSH2 0xE3E JUMP JUMPDEST PUSH1 0x6C DUP1 SLOAD PUSH1 0x1 PUSH1 0x1 PUSH1 0xA0 SHL SUB NOT SWAP1 DUP2 AND PUSH1 0x1 PUSH1 0x1 PUSH1 0xA0 SHL SUB DUP11 DUP2 AND SWAP2 SWAP1 SWAP2 OR SWAP1 SWAP3 SSTORE PUSH1 0x6D DUP1 SLOAD DUP3 AND DUP12 DUP5 AND OR SWAP1 SSTORE PUSH1 0x66 DUP1 SLOAD DUP3 AND DUP10 DUP5 AND OR SWAP1 SSTORE PUSH1 0x68 DUP1 SLOAD DUP3 AND DUP8 DUP5 AND OR SWAP1 SSTORE PUSH1 0x69 DUP1 SLOAD DUP3 AND DUP7 DUP5 AND OR SWAP1 SSTORE PUSH1 0x6A DUP1 SLOAD CALLER SWAP1 DUP4 AND DUP2 OR SWAP1 SWAP2 SSTORE PUSH1 0x6B DUP1 SLOAD DUP4 AND SWAP1 SWAP2 OR SWAP1 SSTORE PUSH2 0x1388 PUSH1 0x6E SSTORE PUSH2 0x9C4 PUSH1 0x6F DUP2 SWAP1 SSTORE PUSH1 0x70 SSTORE PUSH2 0x2710 PUSH1 0x71 SSTORE PUSH2 0x3E8 PUSH1 0x72 SSTORE PUSH1 0x74 DUP1 SLOAD PUSH1 0x1 PUSH1 0xA0 SHL PUSH1 0xFF PUSH1 0xA0 SHL NOT SWAP1 SWAP2 AND OR PUSH1 0x1 PUSH2 0xFF01 PUSH1 0xA0 SHL SUB NOT AND DUP6 DUP5 AND OR SWAP1 SSTORE PUSH1 0x67 DUP1 SLOAD SWAP1 SWAP2 AND SWAP2 DUP8 AND SWAP2 SWAP1 SWAP2 OR SWAP1 SSTORE DUP1 ISZERO PUSH2 0x698 JUMPI PUSH1 0x0 DUP1 SLOAD PUSH2 0xFF00 NOT AND SWAP1 SSTORE JUMPDEST POP POP POP POP POP POP POP POP JUMP JUMPDEST PUSH1 0x74 SLOAD PUSH1 0x1 PUSH1 0x1 PUSH1 0xA0 SHL SUB AND DUP2 JUMP JUMPDEST PUSH1 0x0 PUSH2 0x6BB PUSH2 0xE3A JUMP JUMPDEST PUSH1 0x1 PUSH1 0x1 PUSH1 0xA0 SHL SUB AND PUSH2 0x6CC PUSH2 0x862 JUMP JUMPDEST PUSH1 0x1 PUSH1 0x1 PUSH1 0xA0 SHL SUB AND EQ PUSH2 0x6F2 JUMPI PUSH1 0x40 MLOAD PUSH3 0x461BCD PUSH1 0xE5 SHL DUP2 MSTORE PUSH1 0x4 ADD PUSH2 0x47D SWAP1 PUSH2 0x1C58 JUMP JUMPDEST POP PUSH1 0x70 SSTORE PUSH1 0x1 SWAP1 JUMP JUMPDEST PUSH1 0x67 SLOAD PUSH1 0x1 PUSH1 0x1 PUSH1 0xA0 SHL SUB AND DUP2 JUMP JUMPDEST PUSH1 0x0 PUSH2 0x714 PUSH2 0xE3A JUMP JUMPDEST PUSH1 0x1 PUSH1 0x1 PUSH1 0xA0 SHL SUB AND PUSH2 0x725 PUSH2 0x862 JUMP JUMPDEST PUSH1 0x1 PUSH1 0x1 PUSH1 0xA0 SHL SUB AND EQ PUSH2 0x74B JUMPI PUSH1 0x40 MLOAD PUSH3 0x461BCD PUSH1 0xE5 SHL DUP2 MSTORE PUSH1 0x4 ADD PUSH2 0x47D SWAP1 PUSH2 0x1C58 JUMP JUMPDEST POP PUSH1 0x74 DUP1 SLOAD DUP3 ISZERO ISZERO PUSH1 0x1 PUSH1 0xA0 SHL MUL PUSH1 0xFF PUSH1 0xA0 SHL NOT SWAP1 SWAP2 AND OR SWAP1 SSTORE PUSH1 0x1 SWAP2 SWAP1 POP JUMP JUMPDEST PUSH1 0x65 PUSH1 0x20 MSTORE PUSH1 0x0 SWAP1 DUP2 MSTORE PUSH1 0x40 SWAP1 KECCAK256 SLOAD PUSH1 0xFF AND DUP2 JUMP JUMPDEST PUSH1 0x70 SLOAD DUP2 JUMP JUMPDEST PUSH1 0x68 SLOAD PUSH1 0x1 PUSH1 0x1 PUSH1 0xA0 SHL SUB AND DUP2 JUMP JUMPDEST PUSH1 0x0 PUSH2 0x7A0 PUSH2 0xE3A JUMP JUMPDEST PUSH1 0x1 PUSH1 0x1 PUSH1 0xA0 SHL SUB AND PUSH2 0x7B1 PUSH2 0x862 JUMP JUMPDEST PUSH1 0x1 PUSH1 0x1 PUSH1 0xA0 SHL SUB AND EQ PUSH2 0x7D7 JUMPI PUSH1 0x40 MLOAD PUSH3 0x461BCD PUSH1 0xE5 SHL DUP2 MSTORE PUSH1 0x4 ADD PUSH2 0x47D SWAP1 PUSH2 0x1C58 JUMP JUMPDEST POP PUSH1 0x74 DUP1 SLOAD DUP3 ISZERO ISZERO PUSH1 0x1 PUSH1 0xA8 SHL MUL PUSH1 0xFF PUSH1 0xA8 SHL NOT SWAP1 SWAP2 AND OR SWAP1 SSTORE PUSH1 0x1 SWAP2 SWAP1 POP JUMP JUMPDEST PUSH1 0x74 SLOAD PUSH1 0x1 PUSH1 0xA8 SHL SWAP1 DIV PUSH1 0xFF AND DUP2 JUMP JUMPDEST PUSH2 0x810 PUSH2 0xE3A JUMP JUMPDEST PUSH1 0x1 PUSH1 0x1 PUSH1 0xA0 SHL SUB AND PUSH2 0x821 PUSH2 0x862 JUMP JUMPDEST PUSH1 0x1 PUSH1 0x1 PUSH1 0xA0 SHL SUB AND EQ PUSH2 0x847 JUMPI PUSH1 0x40 MLOAD PUSH3 0x461BCD PUSH1 0xE5 SHL DUP2 MSTORE PUSH1 0x4 ADD PUSH2 0x47D SWAP1 PUSH2 0x1C58 JUMP JUMPDEST PUSH2 0x851 PUSH1 0x0 PUSH2 0xEC2 JUMP JUMPDEST JUMP JUMPDEST PUSH1 0x75 SLOAD PUSH1 0x1 PUSH1 0x1 PUSH1 0xA0 SHL SUB AND DUP2 JUMP JUMPDEST PUSH1 0x33 SLOAD PUSH1 0x1 PUSH1 0x1 PUSH1 0xA0 SHL SUB AND JUMPDEST SWAP1 JUMP JUMPDEST PUSH1 0x6B SLOAD PUSH1 0x1 PUSH1 0x1 PUSH1 0xA0 SHL SUB AND DUP2 JUMP JUMPDEST PUSH1 0x0 PUSH2 0x88B PUSH2 0xE3A JUMP JUMPDEST PUSH1 0x1 PUSH1 0x1 PUSH1 0xA0 SHL SUB AND PUSH2 0x89C PUSH2 0x862 JUMP JUMPDEST PUSH1 0x1 PUSH1 0x1 PUSH1 0xA0 SHL SUB AND EQ PUSH2 0x8C2 JUMPI PUSH1 0x40 MLOAD PUSH3 0x461BCD PUSH1 0xE5 SHL DUP2 MSTORE PUSH1 0x4 ADD PUSH2 0x47D SWAP1 PUSH2 0x1C58 JUMP JUMPDEST PUSH2 0x8D6 PUSH1 0x1 PUSH1 0x1 PUSH1 0xA0 SHL SUB DUP5 AND CALLER DUP5 PUSH2 0xF14 JUMP JUMPDEST POP PUSH1 0x1 SWAP3 SWAP2 POP POP JUMP JUMPDEST PUSH1 0x74 SLOAD PUSH1 0x1 PUSH1 0xA0 SHL SWAP1 DIV PUSH1 0xFF AND DUP2 JUMP JUMPDEST PUSH1 0x0 PUSH2 0x8F9 PUSH2 0xE3A JUMP JUMPDEST PUSH1 0x1 PUSH1 0x1 PUSH1 0xA0 SHL SUB AND PUSH2 0x90A PUSH2 0x862 JUMP JUMPDEST PUSH1 0x1 PUSH1 0x1 PUSH1 0xA0 SHL SUB AND EQ PUSH2 0x930 JUMPI PUSH1 0x40 MLOAD PUSH3 0x461BCD PUSH1 0xE5 SHL DUP2 MSTORE PUSH1 0x4 ADD PUSH2 0x47D SWAP1 PUSH2 0x1C58 JUMP JUMPDEST POP PUSH1 0x6A DUP1 SLOAD PUSH1 0x1 PUSH1 0x1 PUSH1 0xA0 SHL SUB DUP4 AND PUSH1 0x1 PUSH1 0x1 PUSH1 0xA0 SHL SUB NOT SWAP1 SWAP2 AND OR SWAP1 SSTORE PUSH1 0x1 SWAP2 SWAP1 POP JUMP JUMPDEST PUSH1 0x0 PUSH2 0x95F PUSH2 0xE3A JUMP JUMPDEST PUSH1 0x1 PUSH1 0x1 PUSH1 0xA0 SHL SUB AND PUSH2 0x970 PUSH2 0x862 JUMP JUMPDEST PUSH1 0x1 PUSH1 0x1 PUSH1 0xA0 SHL SUB AND EQ PUSH2 0x996 JUMPI PUSH1 0x40 MLOAD PUSH3 0x461BCD PUSH1 0xE5 SHL DUP2 MSTORE PUSH1 0x4 ADD PUSH2 0x47D SWAP1 PUSH2 0x1C58 JUMP JUMPDEST POP PUSH1 0x67 DUP1 SLOAD PUSH1 0x1 PUSH1 0x1 PUSH1 0xA0 SHL SUB DUP4 AND PUSH1 0x1 PUSH1 0x1 PUSH1 0xA0 SHL SUB NOT SWAP1 SWAP2 AND OR SWAP1 SSTORE PUSH1 0x1 SWAP2 SWAP1 POP JUMP JUMPDEST PUSH1 0x71 SLOAD DUP2 JUMP JUMPDEST PUSH1 0x0 PUSH2 0x9CB PUSH2 0xE3A JUMP JUMPDEST PUSH1 0x1 PUSH1 0x1 PUSH1 0xA0 SHL SUB AND PUSH2 0x9DC PUSH2 0x862 JUMP JUMPDEST PUSH1 0x1 PUSH1 0x1 PUSH1 0xA0 SHL SUB AND EQ PUSH2 0xA02 JUMPI PUSH1 0x40 MLOAD PUSH3 0x461BCD PUSH1 0xE5 SHL DUP2 MSTORE PUSH1 0x4 ADD PUSH2 0x47D SWAP1 PUSH2 0x1C58 JUMP JUMPDEST POP PUSH1 0x6F SSTORE PUSH1 0x1 SWAP1 JUMP JUMPDEST PUSH1 0x69 SLOAD PUSH1 0x1 PUSH1 0x1 PUSH1 0xA0 SHL SUB AND DUP2 JUMP JUMPDEST PUSH1 0x6E SLOAD DUP2 JUMP JUMPDEST PUSH1 0x6D SLOAD PUSH1 0x1 PUSH1 0x1 PUSH1 0xA0 SHL SUB AND DUP2 JUMP JUMPDEST CALLER PUSH1 0x0 SWAP1 DUP2 MSTORE PUSH1 0x65 PUSH1 0x20 MSTORE PUSH1 0x40 DUP2 KECCAK256 SLOAD PUSH1 0xFF AND PUSH2 0xA5E JUMPI PUSH1 0x40 MLOAD PUSH3 0x461BCD PUSH1 0xE5 SHL DUP2 MSTORE PUSH1 0x4 ADD PUSH2 0x47D SWAP1 PUSH2 0x1B80 JUMP JUMPDEST PUSH1 0x66 SLOAD PUSH1 0x40 MLOAD PUSH4 0x70A08231 PUSH1 0xE0 SHL DUP2 MSTORE PUSH1 0x0 SWAP2 PUSH1 0x1 PUSH1 0x1 PUSH1 0xA0 SHL SUB AND SWAP1 PUSH4 0x70A08231 SWAP1 PUSH2 0xA8F SWAP1 ADDRESS SWAP1 PUSH1 0x4 ADD PUSH2 0x1AD5 JUMP JUMPDEST PUSH1 0x20 PUSH1 0x40 MLOAD DUP1 DUP4 SUB DUP2 DUP7 DUP1 EXTCODESIZE ISZERO DUP1 ISZERO PUSH2 0xAA7 JUMPI PUSH1 0x0 DUP1 REVERT JUMPDEST POP GAS STATICCALL ISZERO DUP1 ISZERO PUSH2 0xABB JUMPI RETURNDATASIZE PUSH1 0x0 DUP1 RETURNDATACOPY RETURNDATASIZE PUSH1 0x0 REVERT JUMPDEST POP POP POP POP PUSH1 0x40 MLOAD RETURNDATASIZE PUSH1 0x1F NOT PUSH1 0x1F DUP3 ADD AND DUP3 ADD DUP1 PUSH1 0x40 MSTORE POP DUP2 ADD SWAP1 PUSH2 0xADF SWAP2 SWAP1 PUSH2 0x1A54 JUMP JUMPDEST SWAP1 POP DUP1 PUSH2 0xAF0 JUMPI PUSH1 0x1 SWAP2 POP POP PUSH2 0x86F JUMP JUMPDEST PUSH1 0x0 PUSH2 0xB13 PUSH1 0x71 SLOAD PUSH2 0xB0D PUSH1 0x6E SLOAD DUP6 PUSH2 0xF6F SWAP1 SWAP2 SWAP1 PUSH4 0xFFFFFFFF AND JUMP JUMPDEST SWAP1 PUSH2 0xF82 JUMP JUMPDEST SWAP1 POP PUSH1 0x0 PUSH2 0xB32 PUSH1 0x71 SLOAD PUSH2 0xB0D PUSH1 0x6F SLOAD DUP7 PUSH2 0xF6F SWAP1 SWAP2 SWAP1 PUSH4 0xFFFFFFFF AND JUMP JUMPDEST SWAP1 POP PUSH1 0x0 PUSH2 0xB4A DUP3 PUSH2 0xB44 DUP7 DUP7 PUSH2 0xF8E JUMP JUMPDEST SWAP1 PUSH2 0xF8E JUMP JUMPDEST SWAP1 POP PUSH1 0x0 PUSH2 0xB57 DUP5 PUSH2 0xF9A JUMP JUMPDEST PUSH1 0x69 SLOAD PUSH1 0x68 SLOAD SWAP2 SWAP3 POP PUSH2 0xB77 SWAP2 PUSH1 0x1 PUSH1 0x1 PUSH1 0xA0 SHL SUB SWAP1 DUP2 AND SWAP2 AND DUP4 PUSH2 0xF14 JUMP JUMPDEST PUSH1 0x6A SLOAD PUSH1 0x66 SLOAD PUSH2 0xB94 SWAP2 PUSH1 0x1 PUSH1 0x1 PUSH1 0xA0 SHL SUB SWAP2 DUP3 AND SWAP2 AND DUP6 PUSH2 0xF14 JUMP JUMPDEST PUSH1 0x6B SLOAD PUSH1 0x66 SLOAD PUSH2 0xBB1 SWAP2 PUSH1 0x1 PUSH1 0x1 PUSH1 0xA0 SHL SUB SWAP2 DUP3 AND SWAP2 AND DUP5 PUSH2 0xF14 JUMP JUMPDEST PUSH1 0x74 SLOAD PUSH1 0x1 PUSH1 0xA0 SHL SWAP1 DIV PUSH1 0xFF AND ISZERO PUSH2 0xBCB JUMPI PUSH2 0xBCB PUSH2 0x1229 JUMP JUMPDEST PUSH1 0x74 SLOAD PUSH1 0x1 PUSH1 0xA8 SHL SWAP1 DIV PUSH1 0xFF AND ISZERO PUSH2 0xC67 JUMPI PUSH1 0x75 PUSH1 0x0 SWAP1 SLOAD SWAP1 PUSH2 0x100 EXP SWAP1 DIV PUSH1 0x1 PUSH1 0x1 PUSH1 0xA0 SHL SUB AND PUSH1 0x1 PUSH1 0x1 PUSH1 0xA0 SHL SUB AND PUSH4 0x796C7BE7 PUSH1 0x40 MLOAD DUP2 PUSH4 0xFFFFFFFF AND PUSH1 0xE0 SHL DUP2 MSTORE PUSH1 0x4 ADD PUSH1 0x20 PUSH1 0x40 MLOAD DUP1 DUP4 SUB DUP2 PUSH1 0x0 DUP8 DUP1 EXTCODESIZE ISZERO DUP1 ISZERO PUSH2 0xC2D JUMPI PUSH1 0x0 DUP1 REVERT JUMPDEST POP GAS CALL ISZERO DUP1 ISZERO PUSH2 0xC41 JUMPI RETURNDATASIZE PUSH1 0x0 DUP1 RETURNDATACOPY RETURNDATASIZE PUSH1 0x0 REVERT JUMPDEST POP POP POP POP PUSH1 0x40 MLOAD RETURNDATASIZE PUSH1 0x1F NOT PUSH1 0x1F DUP3 ADD AND DUP3 ADD DUP1 PUSH1 0x40 MSTORE POP DUP2 ADD SWAP1 PUSH2 0xC65 SWAP2 SWAP1 PUSH2 0x193D JUMP JUMPDEST POP JUMPDEST PUSH1 0x1 SWAP6 POP POP POP POP POP POP SWAP1 JUMP JUMPDEST PUSH1 0x0 PUSH2 0xC7D PUSH2 0xE3A JUMP JUMPDEST PUSH1 0x1 PUSH1 0x1 PUSH1 0xA0 SHL SUB AND PUSH2 0xC8E PUSH2 0x862 JUMP JUMPDEST PUSH1 0x1 PUSH1 0x1 PUSH1 0xA0 SHL SUB AND EQ PUSH2 0xCB4 JUMPI PUSH1 0x40 MLOAD PUSH3 0x461BCD PUSH1 0xE5 SHL DUP2 MSTORE PUSH1 0x4 ADD PUSH2 0x47D SWAP1 PUSH2 0x1C58 JUMP JUMPDEST POP PUSH1 0x6B DUP1 SLOAD PUSH1 0x1 PUSH1 0x1 PUSH1 0xA0 SHL SUB DUP4 AND PUSH1 0x1 PUSH1 0x1 PUSH1 0xA0 SHL SUB NOT SWAP1 SWAP2 AND OR SWAP1 SSTORE PUSH1 0x1 SWAP2 SWAP1 POP JUMP JUMPDEST PUSH1 0x0 PUSH2 0xCE3 PUSH2 0xE3A JUMP JUMPDEST PUSH1 0x1 PUSH1 0x1 PUSH1 0xA0 SHL SUB AND PUSH2 0xCF4 PUSH2 0x862 JUMP JUMPDEST PUSH1 0x1 PUSH1 0x1 PUSH1 0xA0 SHL SUB AND EQ PUSH2 0xD1A JUMPI PUSH1 0x40 MLOAD PUSH3 0x461BCD PUSH1 0xE5 SHL DUP2 MSTORE PUSH1 0x4 ADD PUSH2 0x47D SWAP1 PUSH2 0x1C58 JUMP JUMPDEST POP PUSH1 0x74 DUP1 SLOAD PUSH1 0x1 PUSH1 0x1 PUSH1 0xA0 SHL SUB DUP4 AND PUSH1 0x1 PUSH1 0x1 PUSH1 0xA0 SHL SUB NOT SWAP1 SWAP2 AND OR SWAP1 SSTORE PUSH1 0x1 SWAP2 SWAP1 POP JUMP JUMPDEST PUSH1 0x0 PUSH2 0xD49 PUSH2 0xE3A JUMP JUMPDEST PUSH1 0x1 PUSH1 0x1 PUSH1 0xA0 SHL SUB AND PUSH2 0xD5A PUSH2 0x862 JUMP JUMPDEST PUSH1 0x1 PUSH1 0x1 PUSH1 0xA0 SHL SUB AND EQ PUSH2 0xD80 JUMPI PUSH1 0x40 MLOAD PUSH3 0x461BCD PUSH1 0xE5 SHL DUP2 MSTORE PUSH1 0x4 ADD PUSH2 0x47D SWAP1 PUSH2 0x1C58 JUMP JUMPDEST POP PUSH1 0x75 DUP1 SLOAD PUSH1 0x1 PUSH1 0x1 PUSH1 0xA0 SHL SUB DUP4 AND PUSH1 0x1 PUSH1 0x1 PUSH1 0xA0 SHL SUB NOT SWAP1 SWAP2 AND OR SWAP1 SSTORE PUSH1 0x1 SWAP2 SWAP1 POP JUMP JUMPDEST PUSH1 0x6A SLOAD PUSH1 0x1 PUSH1 0x1 PUSH1 0xA0 SHL SUB AND DUP2 JUMP JUMPDEST PUSH1 0x73 SLOAD DUP2 JUMP JUMPDEST PUSH2 0xDC2 PUSH2 0xE3A JUMP JUMPDEST PUSH1 0x1 PUSH1 0x1 PUSH1 0xA0 SHL SUB AND PUSH2 0xDD3 PUSH2 0x862 JUMP JUMPDEST PUSH1 0x1 PUSH1 0x1 PUSH1 0xA0 SHL SUB AND EQ PUSH2 0xDF9 JUMPI PUSH1 0x40 MLOAD PUSH3 0x461BCD PUSH1 0xE5 SHL DUP2 MSTORE PUSH1 0x4 ADD PUSH2 0x47D SWAP1 PUSH2 0x1C58 JUMP JUMPDEST PUSH1 0x1 PUSH1 0x1 PUSH1 0xA0 SHL SUB DUP2 AND PUSH2 0xE1F JUMPI PUSH1 0x40 MLOAD PUSH3 0x461BCD PUSH1 0xE5 SHL DUP2 MSTORE PUSH1 0x4 ADD PUSH2 0x47D SWAP1 PUSH2 0x1B3A JUMP JUMPDEST PUSH2 0xE28 DUP2 PUSH2 0xEC2 JUMP JUMPDEST POP JUMP JUMPDEST PUSH1 0x6C SLOAD PUSH1 0x1 PUSH1 0x1 PUSH1 0xA0 SHL SUB AND DUP2 JUMP JUMPDEST CALLER SWAP1 JUMP JUMPDEST PUSH1 0x0 SLOAD PUSH2 0x100 SWAP1 DIV PUSH1 0xFF AND DUP1 PUSH2 0xE57 JUMPI POP PUSH1 0x0 SLOAD PUSH1 0xFF AND ISZERO JUMPDEST PUSH2 0xE73 JUMPI PUSH1 0x40 MLOAD PUSH3 0x461BCD PUSH1 0xE5 SHL DUP2 MSTORE PUSH1 0x4 ADD PUSH2 0x47D SWAP1 PUSH2 0x1C0A JUMP JUMPDEST PUSH1 0x0 SLOAD PUSH2 0x100 SWAP1 DIV PUSH1 0xFF AND ISZERO DUP1 ISZERO PUSH2 0xE9E JUMPI PUSH1 0x0 DUP1 SLOAD PUSH1 0xFF NOT PUSH2 0xFF00 NOT SWAP1 SWAP2 AND PUSH2 0x100 OR AND PUSH1 0x1 OR SWAP1 SSTORE JUMPDEST PUSH2 0xEA6 PUSH2 0x1598 JUMP JUMPDEST PUSH2 0xEAE PUSH2 0x160B JUMP JUMPDEST DUP1 ISZERO PUSH2 0xE28 JUMPI PUSH1 0x0 DUP1 SLOAD PUSH2 0xFF00 NOT AND SWAP1 SSTORE POP JUMP JUMPDEST PUSH1 0x33 DUP1 SLOAD PUSH1 0x1 PUSH1 0x1 PUSH1 0xA0 SHL SUB DUP4 DUP2 AND PUSH1 0x1 PUSH1 0x1 PUSH1 0xA0 SHL SUB NOT DUP4 AND DUP2 OR SWAP1 SWAP4 SSTORE PUSH1 0x40 MLOAD SWAP2 AND SWAP2 SWAP1 DUP3 SWAP1 PUSH32 0x8BE0079C531659141344CD1FD0A4F28419497F9722A3DAAFE3B4186F6B6457E0 SWAP1 PUSH1 0x0 SWAP1 LOG3 POP POP JUMP JUMPDEST PUSH2 0xF6A DUP4 PUSH4 0xA9059CBB PUSH1 0xE0 SHL DUP5 DUP5 PUSH1 0x40 MLOAD PUSH1 0x24 ADD PUSH2 0xF33 SWAP3 SWAP2 SWAP1 PUSH2 0x1B03 JUMP JUMPDEST PUSH1 0x40 DUP1 MLOAD PUSH1 0x1F NOT DUP2 DUP5 SUB ADD DUP2 MSTORE SWAP2 SWAP1 MSTORE PUSH1 0x20 DUP2 ADD DUP1 MLOAD PUSH1 0x1 PUSH1 0x1 PUSH1 0xE0 SHL SUB AND PUSH1 0x1 PUSH1 0x1 PUSH1 0xE0 SHL SUB NOT SWAP1 SWAP4 AND SWAP3 SWAP1 SWAP3 OR SWAP1 SWAP2 MSTORE PUSH2 0x167B JUMP JUMPDEST POP POP POP JUMP JUMPDEST PUSH1 0x0 PUSH2 0xF7B DUP3 DUP5 PUSH2 0x1EB2 JUMP JUMPDEST SWAP4 SWAP3 POP POP POP JUMP JUMPDEST PUSH1 0x0 PUSH2 0xF7B DUP3 DUP5 PUSH2 0x1D7E JUMP JUMPDEST PUSH1 0x0 PUSH2 0xF7B DUP3 DUP5 PUSH2 0x1ED1 JUMP JUMPDEST PUSH1 0x6D SLOAD PUSH1 0x68 SLOAD PUSH1 0x66 SLOAD PUSH1 0x40 MLOAD PUSH4 0xE6A43905 PUSH1 0xE0 SHL DUP2 MSTORE PUSH1 0x0 SWAP4 DUP5 SWAP4 PUSH1 0x1 PUSH1 0x1 PUSH1 0xA0 SHL SUB SWAP2 DUP3 AND SWAP4 PUSH4 0xE6A43905 SWAP4 PUSH2 0xFDB SWAP4 SWAP3 DUP4 AND SWAP3 SWAP1 SWAP2 AND SWAP1 PUSH1 0x4 ADD PUSH2 0x1AE9 JUMP JUMPDEST PUSH1 0x20 PUSH1 0x40 MLOAD DUP1 DUP4 SUB DUP2 DUP7 DUP1 EXTCODESIZE ISZERO DUP1 ISZERO PUSH2 0xFF3 JUMPI PUSH1 0x0 DUP1 REVERT JUMPDEST POP GAS STATICCALL ISZERO DUP1 ISZERO PUSH2 0x1007 JUMPI RETURNDATASIZE PUSH1 0x0 DUP1 RETURNDATACOPY RETURNDATASIZE PUSH1 0x0 REVERT JUMPDEST POP POP POP POP PUSH1 0x40 MLOAD RETURNDATASIZE PUSH1 0x1F NOT PUSH1 0x1F DUP3 ADD AND DUP3 ADD DUP1 PUSH1 0x40 MSTORE POP DUP2 ADD SWAP1 PUSH2 0x102B SWAP2 SWAP1 PUSH2 0x18A2 JUMP JUMPDEST PUSH1 0x66 SLOAD SWAP1 SWAP2 POP PUSH2 0x1045 SWAP1 PUSH1 0x1 PUSH1 0x1 PUSH1 0xA0 SHL SUB AND DUP3 DUP6 PUSH2 0xF14 JUMP JUMPDEST PUSH1 0x0 DUP1 DUP3 PUSH1 0x1 PUSH1 0x1 PUSH1 0xA0 SHL SUB AND PUSH4 0x902F1AC PUSH1 0x40 MLOAD DUP2 PUSH4 0xFFFFFFFF AND PUSH1 0xE0 SHL DUP2 MSTORE PUSH1 0x4 ADD PUSH1 0x60 PUSH1 0x40 MLOAD DUP1 DUP4 SUB DUP2 DUP7 DUP1 EXTCODESIZE ISZERO DUP1 ISZERO PUSH2 0x1081 JUMPI PUSH1 0x0 DUP1 REVERT JUMPDEST POP GAS STATICCALL ISZERO DUP1 ISZERO PUSH2 0x1095 JUMPI RETURNDATASIZE PUSH1 0x0 DUP1 RETURNDATACOPY RETURNDATASIZE PUSH1 0x0 REVERT JUMPDEST POP POP POP POP PUSH1 0x40 MLOAD RETURNDATASIZE PUSH1 0x1F NOT PUSH1 0x1F DUP3 ADD AND DUP3 ADD DUP1 PUSH1 0x40 MSTORE POP DUP2 ADD SWAP1 PUSH2 0x10B9 SWAP2 SWAP1 PUSH2 0x19EE JUMP JUMPDEST POP PUSH1 0x1 PUSH1 0x1 PUSH1 0x70 SHL SUB AND SWAP2 POP PUSH1 0x1 PUSH1 0x1 PUSH1 0x70 SHL SUB AND SWAP2 POP PUSH1 0x0 DUP4 PUSH1 0x1 PUSH1 0x1 PUSH1 0xA0 SHL SUB AND PUSH4 0xDFE1681 PUSH1 0x40 MLOAD DUP2 PUSH4 0xFFFFFFFF AND PUSH1 0xE0 SHL DUP2 MSTORE PUSH1 0x4 ADD PUSH1 0x20 PUSH1 0x40 MLOAD DUP1 DUP4 SUB DUP2 DUP7 DUP1 EXTCODESIZE ISZERO DUP1 ISZERO PUSH2 0x110B JUMPI PUSH1 0x0 DUP1 REVERT JUMPDEST POP GAS STATICCALL ISZERO DUP1 ISZERO PUSH2 0x111F JUMPI RETURNDATASIZE PUSH1 0x0 DUP1 RETURNDATACOPY RETURNDATASIZE PUSH1 0x0 REVERT JUMPDEST POP POP POP POP PUSH1 0x40 MLOAD RETURNDATASIZE PUSH1 0x1F NOT PUSH1 0x1F DUP3 ADD AND DUP3 ADD DUP1 PUSH1 0x40 MSTORE POP DUP2 ADD SWAP1 PUSH2 0x1143 SWAP2 SWAP1 PUSH2 0x18A2 JUMP JUMPDEST PUSH1 0x66 SLOAD SWAP1 SWAP2 POP PUSH1 0x0 SWAP1 DUP2 SWAP1 PUSH1 0x1 PUSH1 0x1 PUSH1 0xA0 SHL SUB DUP1 DUP6 AND SWAP2 AND EQ PUSH2 0x1167 JUMPI DUP4 DUP6 PUSH2 0x116A JUMP JUMPDEST DUP5 DUP5 JUMPDEST SWAP2 POP SWAP2 POP PUSH1 0x0 PUSH2 0x117B DUP10 DUP5 DUP5 PUSH2 0x170A JUMP JUMPDEST PUSH1 0x66 SLOAD SWAP1 SWAP2 POP PUSH1 0x0 SWAP1 DUP2 SWAP1 PUSH1 0x1 PUSH1 0x1 PUSH1 0xA0 SHL SUB DUP8 DUP2 AND SWAP2 AND EQ PUSH2 0x11A0 JUMPI DUP3 PUSH1 0x0 PUSH2 0x11A4 JUMP JUMPDEST PUSH1 0x0 DUP4 JUMPDEST PUSH1 0x40 DUP1 MLOAD PUSH1 0x0 DUP2 MSTORE PUSH1 0x20 DUP2 ADD SWAP2 DUP3 SWAP1 MSTORE PUSH4 0x22C0D9F PUSH1 0xE0 SHL SWAP1 SWAP2 MSTORE SWAP2 SWAP4 POP SWAP2 POP PUSH1 0x1 PUSH1 0x1 PUSH1 0xA0 SHL SUB DUP11 AND SWAP1 PUSH4 0x22C0D9F SWAP1 PUSH2 0x11E8 SWAP1 DUP6 SWAP1 DUP6 SWAP1 ADDRESS SWAP1 PUSH1 0x24 DUP2 ADD PUSH2 0x1D17 JUMP JUMPDEST PUSH1 0x0 PUSH1 0x40 MLOAD DUP1 DUP4 SUB DUP2 PUSH1 0x0 DUP8 DUP1 EXTCODESIZE ISZERO DUP1 ISZERO PUSH2 0x1202 JUMPI PUSH1 0x0 DUP1 REVERT JUMPDEST POP GAS CALL ISZERO DUP1 ISZERO PUSH2 0x1216 JUMPI RETURNDATASIZE PUSH1 0x0 DUP1 RETURNDATACOPY RETURNDATASIZE PUSH1 0x0 REVERT JUMPDEST POP SWAP5 SWAP14 SWAP13 POP POP POP POP POP POP POP POP POP POP POP POP POP JUMP JUMPDEST PUSH1 0x6D SLOAD PUSH1 0x67 SLOAD PUSH1 0x66 SLOAD PUSH1 0x40 MLOAD PUSH4 0xE6A43905 PUSH1 0xE0 SHL DUP2 MSTORE PUSH1 0x0 SWAP4 PUSH1 0x1 PUSH1 0x1 PUSH1 0xA0 SHL SUB SWAP1 DUP2 AND SWAP4 PUSH4 0xE6A43905 SWAP4 PUSH2 0x1266 SWAP4 SWAP2 DUP4 AND SWAP3 AND SWAP1 PUSH1 0x4 ADD PUSH2 0x1AE9 JUMP JUMPDEST PUSH1 0x20 PUSH1 0x40 MLOAD DUP1 DUP4 SUB DUP2 DUP7 DUP1 EXTCODESIZE ISZERO DUP1 ISZERO PUSH2 0x127E JUMPI PUSH1 0x0 DUP1 REVERT JUMPDEST POP GAS STATICCALL ISZERO DUP1 ISZERO PUSH2 0x1292 JUMPI RETURNDATASIZE PUSH1 0x0 DUP1 RETURNDATACOPY RETURNDATASIZE PUSH1 0x0 REVERT JUMPDEST POP POP POP POP PUSH1 0x40 MLOAD RETURNDATASIZE PUSH1 0x1F NOT PUSH1 0x1F DUP3 ADD AND DUP3 ADD DUP1 PUSH1 0x40 MSTORE POP DUP2 ADD SWAP1 PUSH2 0x12B6 SWAP2 SWAP1 PUSH2 0x18A2 JUMP JUMPDEST PUSH1 0x66 SLOAD PUSH1 0x40 MLOAD PUSH4 0x70A08231 PUSH1 0xE0 SHL DUP2 MSTORE SWAP2 SWAP3 POP PUSH1 0x0 SWAP2 PUSH1 0x1 PUSH1 0x1 PUSH1 0xA0 SHL SUB SWAP1 SWAP2 AND SWAP1 PUSH4 0x70A08231 SWAP1 PUSH2 0x12EC SWAP1 DUP6 SWAP1 PUSH1 0x4 ADD PUSH2 0x1AD5 JUMP JUMPDEST PUSH1 0x20 PUSH1 0x40 MLOAD DUP1 DUP4 SUB DUP2 DUP7 DUP1 EXTCODESIZE ISZERO DUP1 ISZERO PUSH2 0x1304 JUMPI PUSH1 0x0 DUP1 REVERT JUMPDEST POP GAS STATICCALL ISZERO DUP1 ISZERO PUSH2 0x1318 JUMPI RETURNDATASIZE PUSH1 0x0 DUP1 RETURNDATACOPY RETURNDATASIZE PUSH1 0x0 REVERT JUMPDEST POP POP POP POP PUSH1 0x40 MLOAD RETURNDATASIZE PUSH1 0x1F NOT PUSH1 0x1F DUP3 ADD AND DUP3 ADD DUP1 PUSH1 0x40 MSTORE POP DUP2 ADD SWAP1 PUSH2 0x133C SWAP2 SWAP1 PUSH2 0x1A54 JUMP JUMPDEST PUSH1 0x67 SLOAD PUSH1 0x40 MLOAD PUSH4 0x70A08231 PUSH1 0xE0 SHL DUP2 MSTORE SWAP2 SWAP3 POP PUSH1 0x0 SWAP2 PUSH1 0x1 PUSH1 0x1 PUSH1 0xA0 SHL SUB SWAP1 SWAP2 AND SWAP1 PUSH4 0x70A08231 SWAP1 PUSH2 0x1372 SWAP1 DUP7 SWAP1 PUSH1 0x4 ADD PUSH2 0x1AD5 JUMP JUMPDEST PUSH1 0x20 PUSH1 0x40 MLOAD DUP1 DUP4 SUB DUP2 DUP7 DUP1 EXTCODESIZE ISZERO DUP1 ISZERO PUSH2 0x138A JUMPI PUSH1 0x0 DUP1 REVERT JUMPDEST POP GAS STATICCALL ISZERO DUP1 ISZERO PUSH2 0x139E JUMPI RETURNDATASIZE PUSH1 0x0 DUP1 RETURNDATACOPY RETURNDATASIZE PUSH1 0x0 REVERT JUMPDEST POP POP POP POP PUSH1 0x40 MLOAD RETURNDATASIZE PUSH1 0x1F NOT PUSH1 0x1F DUP3 ADD AND DUP3 ADD DUP1 PUSH1 0x40 MSTORE POP DUP2 ADD SWAP1 PUSH2 0x13C2 SWAP2 SWAP1 PUSH2 0x1A54 JUMP JUMPDEST SWAP1 POP PUSH1 0x0 PUSH1 0x67 PUSH1 0x0 SWAP1 SLOAD SWAP1 PUSH2 0x100 EXP SWAP1 DIV PUSH1 0x1 PUSH1 0x1 PUSH1 0xA0 SHL SUB AND PUSH1 0x1 PUSH1 0x1 PUSH1 0xA0 SHL SUB AND PUSH4 0x313CE567 PUSH1 0x40 MLOAD DUP2 PUSH4 0xFFFFFFFF AND PUSH1 0xE0 SHL DUP2 MSTORE PUSH1 0x4 ADD PUSH1 0x20 PUSH1 0x40 MLOAD DUP1 DUP4 SUB DUP2 DUP7 DUP1 EXTCODESIZE ISZERO DUP1 ISZERO PUSH2 0x1414 JUMPI PUSH1 0x0 DUP1 REVERT JUMPDEST POP GAS STATICCALL ISZERO DUP1 ISZERO PUSH2 0x1428 JUMPI RETURNDATASIZE PUSH1 0x0 DUP1 RETURNDATACOPY RETURNDATASIZE PUSH1 0x0 REVERT JUMPDEST POP POP POP POP PUSH1 0x40 MLOAD RETURNDATASIZE PUSH1 0x1F NOT PUSH1 0x1F DUP3 ADD AND DUP3 ADD DUP1 PUSH1 0x40 MSTORE POP DUP2 ADD SWAP1 PUSH2 0x144C SWAP2 SWAP1 PUSH2 0x1A6C JUMP JUMPDEST PUSH1 0xFF AND SWAP1 POP PUSH1 0x0 PUSH1 0x12 DUP3 LT ISZERO PUSH2 0x146A JUMPI PUSH2 0x1467 DUP3 PUSH1 0x12 PUSH2 0x1ED1 JUMP JUMPDEST SWAP1 POP JUMPDEST PUSH1 0x0 PUSH2 0x1477 DUP3 PUSH1 0xA PUSH2 0x1DE4 JUMP JUMPDEST PUSH2 0x1489 SWAP1 PUSH8 0xDE0B6B3A7640000 PUSH2 0x1EB2 JUMP JUMPDEST SWAP1 POP PUSH1 0x0 PUSH2 0x149B DUP7 PUSH2 0xB0D DUP8 DUP6 PUSH2 0xF6F JUMP JUMPDEST SWAP1 POP PUSH1 0x0 DUP1 PUSH8 0xDE0B6B3A7640000 DUP4 GT ISZERO PUSH2 0x14F6 JUMPI PUSH2 0x14CC PUSH6 0x5AF3107A4000 PUSH2 0xB0D DUP6 PUSH8 0xDE0B6B3A7640000 PUSH2 0xF8E JUMP JUMPDEST SWAP1 POP PUSH1 0x72 SLOAD DUP2 GT ISZERO PUSH2 0x14E1 JUMPI PUSH1 0x0 SWAP2 POP PUSH2 0x14F1 JUMP JUMPDEST PUSH1 0x72 SLOAD PUSH2 0x14EE SWAP1 DUP3 PUSH2 0xF8E JUMP JUMPDEST SWAP2 POP JUMPDEST PUSH2 0x1525 JUMP JUMPDEST PUSH2 0x1512 PUSH6 0x5AF3107A4000 PUSH2 0xB0D DUP6 PUSH8 0xDE0B6B3A7640000 PUSH2 0x1ED1 JUMP JUMPDEST PUSH1 0x72 SLOAD SWAP1 SWAP2 POP PUSH2 0x1522 SWAP1 DUP3 PUSH2 0x1758 JUMP JUMPDEST SWAP2 POP JUMPDEST PUSH1 0x74 SLOAD PUSH1 0x73 SLOAD PUSH1 0x40 MLOAD PUSH4 0x236535F5 PUSH1 0xE1 SHL DUP2 MSTORE PUSH1 0x1 PUSH1 0x1 PUSH1 0xA0 SHL SUB SWAP1 SWAP3 AND SWAP2 PUSH4 0x46CA6BEA SWAP2 PUSH2 0x155B SWAP2 DUP7 SWAP1 PUSH1 0x1 SWAP1 PUSH1 0x4 ADD PUSH2 0x1D4E JUMP JUMPDEST PUSH1 0x0 PUSH1 0x40 MLOAD DUP1 DUP4 SUB DUP2 PUSH1 0x0 DUP8 DUP1 EXTCODESIZE ISZERO DUP1 ISZERO PUSH2 0x1575 JUMPI PUSH1 0x0 DUP1 REVERT JUMPDEST POP GAS CALL ISZERO DUP1 ISZERO PUSH2 0x1589 JUMPI RETURNDATASIZE PUSH1 0x0 DUP1 RETURNDATACOPY RETURNDATASIZE PUSH1 0x0 REVERT JUMPDEST POP POP POP POP POP POP POP POP POP POP POP POP POP JUMP JUMPDEST PUSH1 0x0 SLOAD PUSH2 0x100 SWAP1 DIV PUSH1 0xFF AND DUP1 PUSH2 0x15B1 JUMPI POP PUSH1 0x0 SLOAD PUSH1 0xFF AND ISZERO JUMPDEST PUSH2 0x15CD JUMPI PUSH1 0x40 MLOAD PUSH3 0x461BCD PUSH1 0xE5 SHL DUP2 MSTORE PUSH1 0x4 ADD PUSH2 0x47D SWAP1 PUSH2 0x1C0A JUMP JUMPDEST PUSH1 0x0 SLOAD PUSH2 0x100 SWAP1 DIV PUSH1 0xFF AND ISZERO DUP1 ISZERO PUSH2 0xEAE JUMPI PUSH1 0x0 DUP1 SLOAD PUSH1 0xFF NOT PUSH2 0xFF00 NOT SWAP1 SWAP2 AND PUSH2 0x100 OR AND PUSH1 0x1 OR SWAP1 SSTORE DUP1 ISZERO PUSH2 0xE28 JUMPI PUSH1 0x0 DUP1 SLOAD PUSH2 0xFF00 NOT AND SWAP1 SSTORE POP JUMP JUMPDEST PUSH1 0x0 SLOAD PUSH2 0x100 SWAP1 DIV PUSH1 0xFF AND DUP1 PUSH2 0x1624 JUMPI POP PUSH1 0x0 SLOAD PUSH1 0xFF AND ISZERO JUMPDEST PUSH2 0x1640 JUMPI PUSH1 0x40 MLOAD PUSH3 0x461BCD PUSH1 0xE5 SHL DUP2 MSTORE PUSH1 0x4 ADD PUSH2 0x47D SWAP1 PUSH2 0x1C0A JUMP JUMPDEST PUSH1 0x0 SLOAD PUSH2 0x100 SWAP1 DIV PUSH1 0xFF AND ISZERO DUP1 ISZERO PUSH2 0x166B JUMPI PUSH1 0x0 DUP1 SLOAD PUSH1 0xFF NOT PUSH2 0xFF00 NOT SWAP1 SWAP2 AND PUSH2 0x100 OR AND PUSH1 0x1 OR SWAP1 SSTORE JUMPDEST PUSH2 0xEAE PUSH2 0x1676 PUSH2 0xE3A JUMP JUMPDEST PUSH2 0xEC2 JUMP JUMPDEST PUSH1 0x0 PUSH2 0x16D0 DUP3 PUSH1 0x40 MLOAD DUP1 PUSH1 0x40 ADD PUSH1 0x40 MSTORE DUP1 PUSH1 0x20 DUP2 MSTORE PUSH1 0x20 ADD PUSH32 0x5361666545524332303A206C6F772D6C6576656C2063616C6C206661696C6564 DUP2 MSTORE POP DUP6 PUSH1 0x1 PUSH1 0x1 PUSH1 0xA0 SHL SUB AND PUSH2 0x1764 SWAP1 SWAP3 SWAP2 SWAP1 PUSH4 0xFFFFFFFF AND JUMP JUMPDEST DUP1 MLOAD SWAP1 SWAP2 POP ISZERO PUSH2 0xF6A JUMPI DUP1 DUP1 PUSH1 0x20 ADD SWAP1 MLOAD DUP2 ADD SWAP1 PUSH2 0x16EE SWAP2 SWAP1 PUSH2 0x193D JUMP JUMPDEST PUSH2 0xF6A JUMPI PUSH1 0x40 MLOAD PUSH3 0x461BCD PUSH1 0xE5 SHL DUP2 MSTORE PUSH1 0x4 ADD PUSH2 0x47D SWAP1 PUSH2 0x1CC4 JUMP JUMPDEST PUSH1 0x0 DUP1 PUSH2 0x1719 DUP6 PUSH2 0x26F2 PUSH2 0xF6F JUMP JUMPDEST SWAP1 POP PUSH1 0x0 PUSH2 0x1727 DUP3 DUP6 PUSH2 0xF6F JUMP JUMPDEST SWAP1 POP PUSH1 0x0 PUSH2 0x1741 DUP4 PUSH2 0x173B DUP9 PUSH2 0x2710 PUSH2 0xF6F JUMP JUMPDEST SWAP1 PUSH2 0x1758 JUMP JUMPDEST SWAP1 POP PUSH2 0x174D DUP2 DUP4 PUSH2 0x1D7E JUMP JUMPDEST SWAP8 SWAP7 POP POP POP POP POP POP POP JUMP JUMPDEST PUSH1 0x0 PUSH2 0xF7B DUP3 DUP5 PUSH2 0x1D66 JUMP JUMPDEST PUSH1 0x60 PUSH2 0x1773 DUP5 DUP5 PUSH1 0x0 DUP6 PUSH2 0x177B JUMP JUMPDEST SWAP5 SWAP4 POP POP POP POP JUMP JUMPDEST PUSH1 0x60 DUP3 SELFBALANCE LT ISZERO PUSH2 0x179D JUMPI PUSH1 0x40 MLOAD PUSH3 0x461BCD PUSH1 0xE5 SHL DUP2 MSTORE PUSH1 0x4 ADD PUSH2 0x47D SWAP1 PUSH2 0x1BC4 JUMP JUMPDEST PUSH2 0x17A6 DUP6 PUSH2 0x1830 JUMP JUMPDEST PUSH2 0x17C2 JUMPI PUSH1 0x40 MLOAD PUSH3 0x461BCD PUSH1 0xE5 SHL DUP2 MSTORE PUSH1 0x4 ADD PUSH2 0x47D SWAP1 PUSH2 0x1C8D JUMP JUMPDEST PUSH1 0x0 DUP1 DUP7 PUSH1 0x1 PUSH1 0x1 PUSH1 0xA0 SHL SUB AND DUP6 DUP8 PUSH1 0x40 MLOAD PUSH2 0x17DE SWAP2 SWAP1 PUSH2 0x1AB9 JUMP JUMPDEST PUSH1 0x0 PUSH1 0x40 MLOAD DUP1 DUP4 SUB DUP2 DUP6 DUP8 GAS CALL SWAP3 POP POP POP RETURNDATASIZE DUP1 PUSH1 0x0 DUP2 EQ PUSH2 0x181B JUMPI PUSH1 0x40 MLOAD SWAP2 POP PUSH1 0x1F NOT PUSH1 0x3F RETURNDATASIZE ADD AND DUP3 ADD PUSH1 0x40 MSTORE RETURNDATASIZE DUP3 MSTORE RETURNDATASIZE PUSH1 0x0 PUSH1 0x20 DUP5 ADD RETURNDATACOPY PUSH2 0x1820 JUMP JUMPDEST PUSH1 0x60 SWAP2 POP JUMPDEST POP SWAP2 POP SWAP2 POP PUSH2 0x174D DUP3 DUP3 DUP7 PUSH2 0x1836 JUMP JUMPDEST EXTCODESIZE ISZERO ISZERO SWAP1 JUMP JUMPDEST PUSH1 0x60 DUP4 ISZERO PUSH2 0x1845 JUMPI POP DUP2 PUSH2 0xF7B JUMP JUMPDEST DUP3 MLOAD ISZERO PUSH2 0x1855 JUMPI DUP3 MLOAD DUP1 DUP5 PUSH1 0x20 ADD REVERT JUMPDEST DUP2 PUSH1 0x40 MLOAD PUSH3 0x461BCD PUSH1 0xE5 SHL DUP2 MSTORE PUSH1 0x4 ADD PUSH2 0x47D SWAP2 SWAP1 PUSH2 0x1B27 JUMP JUMPDEST DUP1 MLOAD PUSH1 0x1 PUSH1 0x1 PUSH1 0x70 SHL SUB DUP2 AND DUP2 EQ PUSH2 0x48F JUMPI PUSH1 0x0 DUP1 REVERT JUMPDEST PUSH1 0x0 PUSH1 0x20 DUP3 DUP5 SUB SLT ISZERO PUSH2 0x1897 JUMPI DUP1 DUP2 REVERT JUMPDEST DUP2 CALLDATALOAD PUSH2 0xF7B DUP2 PUSH2 0x1F2E JUMP JUMPDEST PUSH1 0x0 PUSH1 0x20 DUP3 DUP5 SUB SLT ISZERO PUSH2 0x18B3 JUMPI DUP1 DUP2 REVERT JUMPDEST DUP2 MLOAD PUSH2 0xF7B DUP2 PUSH2 0x1F2E JUMP JUMPDEST PUSH1 0x0 DUP1 PUSH1 0x40 DUP4 DUP6 SUB SLT ISZERO PUSH2 0x18D0 JUMPI DUP1 DUP2 REVERT JUMPDEST DUP3 CALLDATALOAD PUSH2 0x18DB DUP2 PUSH2 0x1F2E JUMP JUMPDEST SWAP2 POP PUSH1 0x20 DUP4 ADD CALLDATALOAD PUSH2 0x18EB DUP2 PUSH2 0x1F43 JUMP JUMPDEST DUP1 SWAP2 POP POP SWAP3 POP SWAP3 SWAP1 POP JUMP JUMPDEST PUSH1 0x0 DUP1 PUSH1 0x40 DUP4 DUP6 SUB SLT ISZERO PUSH2 0x1908 JUMPI DUP2 DUP3 REVERT JUMPDEST DUP3 CALLDATALOAD PUSH2 0x1913 DUP2 PUSH2 0x1F2E JUMP JUMPDEST SWAP5 PUSH1 0x20 SWAP4 SWAP1 SWAP4 ADD CALLDATALOAD SWAP4 POP POP POP JUMP JUMPDEST PUSH1 0x0 PUSH1 0x20 DUP3 DUP5 SUB SLT ISZERO PUSH2 0x1932 JUMPI DUP1 DUP2 REVERT JUMPDEST DUP2 CALLDATALOAD PUSH2 0xF7B DUP2 PUSH2 0x1F43 JUMP JUMPDEST PUSH1 0x0 PUSH1 0x20 DUP3 DUP5 SUB SLT ISZERO PUSH2 0x194E JUMPI DUP1 DUP2 REVERT JUMPDEST DUP2 MLOAD PUSH2 0xF7B DUP2 PUSH2 0x1F43 JUMP JUMPDEST PUSH1 0x0 DUP1 PUSH1 0x0 DUP1 PUSH1 0x0 DUP1 PUSH1 0x0 PUSH1 0xE0 DUP9 DUP11 SUB SLT ISZERO PUSH2 0x1973 JUMPI DUP3 DUP4 REVERT JUMPDEST DUP8 CALLDATALOAD PUSH2 0x197E DUP2 PUSH2 0x1F2E JUMP JUMPDEST SWAP7 POP PUSH1 0x20 DUP9 ADD CALLDATALOAD PUSH2 0x198E DUP2 PUSH2 0x1F2E JUMP JUMPDEST SWAP6 POP PUSH1 0x40 DUP9 ADD CALLDATALOAD PUSH2 0x199E DUP2 PUSH2 0x1F2E JUMP JUMPDEST SWAP5 POP PUSH1 0x60 DUP9 ADD CALLDATALOAD PUSH2 0x19AE DUP2 PUSH2 0x1F2E JUMP JUMPDEST SWAP4 POP PUSH1 0x80 DUP9 ADD CALLDATALOAD PUSH2 0x19BE DUP2 PUSH2 0x1F2E JUMP JUMPDEST SWAP3 POP PUSH1 0xA0 DUP9 ADD CALLDATALOAD PUSH2 0x19CE DUP2 PUSH2 0x1F2E JUMP JUMPDEST SWAP2 POP PUSH1 0xC0 DUP9 ADD CALLDATALOAD PUSH2 0x19DE DUP2 PUSH2 0x1F2E JUMP JUMPDEST DUP1 SWAP2 POP POP SWAP3 SWAP6 SWAP9 SWAP2 SWAP5 SWAP8 POP SWAP3 SWAP6 POP JUMP JUMPDEST PUSH1 0x0 DUP1 PUSH1 0x0 PUSH1 0x60 DUP5 DUP7 SUB SLT ISZERO PUSH2 0x1A02 JUMPI DUP3 DUP4 REVERT JUMPDEST PUSH2 0x1A0B DUP5 PUSH2 0x186F JUMP JUMPDEST SWAP3 POP PUSH2 0x1A19 PUSH1 0x20 DUP6 ADD PUSH2 0x186F JUMP JUMPDEST SWAP2 POP PUSH1 0x40 DUP5 ADD MLOAD PUSH4 0xFFFFFFFF DUP2 AND DUP2 EQ PUSH2 0x1A31 JUMPI DUP2 DUP3 REVERT JUMPDEST DUP1 SWAP2 POP POP SWAP3 POP SWAP3 POP SWAP3 JUMP JUMPDEST PUSH1 0x0 PUSH1 0x20 DUP3 DUP5 SUB SLT ISZERO PUSH2 0x1A4D JUMPI DUP1 DUP2 REVERT JUMPDEST POP CALLDATALOAD SWAP2 SWAP1 POP JUMP JUMPDEST PUSH1 0x0 PUSH1 0x20 DUP3 DUP5 SUB SLT ISZERO PUSH2 0x1A65 JUMPI DUP1 DUP2 REVERT JUMPDEST POP MLOAD SWAP2 SWAP1 POP JUMP JUMPDEST PUSH1 0x0 PUSH1 0x20 DUP3 DUP5 SUB SLT ISZERO PUSH2 0x1A7D JUMPI DUP1 DUP2 REVERT JUMPDEST DUP2 MLOAD PUSH1 0xFF DUP2 AND DUP2 EQ PUSH2 0xF7B JUMPI DUP2 DUP3 REVERT JUMPDEST PUSH1 0x0 DUP2 MLOAD DUP1 DUP5 MSTORE PUSH2 0x1AA5 DUP2 PUSH1 0x20 DUP7 ADD PUSH1 0x20 DUP7 ADD PUSH2 0x1EE8 JUMP JUMPDEST PUSH1 0x1F ADD PUSH1 0x1F NOT AND SWAP3 SWAP1 SWAP3 ADD PUSH1 0x20 ADD SWAP3 SWAP2 POP POP JUMP JUMPDEST PUSH1 0x0 DUP3 MLOAD PUSH2 0x1ACB DUP2 DUP5 PUSH1 0x20 DUP8 ADD PUSH2 0x1EE8 JUMP JUMPDEST SWAP2 SWAP1 SWAP2 ADD SWAP3 SWAP2 POP POP JUMP JUMPDEST PUSH1 0x1 PUSH1 0x1 PUSH1 0xA0 SHL SUB SWAP2 SWAP1 SWAP2 AND DUP2 MSTORE PUSH1 0x20 ADD SWAP1 JUMP JUMPDEST PUSH1 0x1 PUSH1 0x1 PUSH1 0xA0 SHL SUB SWAP3 DUP4 AND DUP2 MSTORE SWAP2 AND PUSH1 0x20 DUP3 ADD MSTORE PUSH1 0x40 ADD SWAP1 JUMP JUMPDEST PUSH1 0x1 PUSH1 0x1 PUSH1 0xA0 SHL SUB SWAP3 SWAP1 SWAP3 AND DUP3 MSTORE PUSH1 0x20 DUP3 ADD MSTORE PUSH1 0x40 ADD SWAP1 JUMP JUMPDEST SWAP1 ISZERO ISZERO DUP2 MSTORE PUSH1 0x20 ADD SWAP1 JUMP JUMPDEST PUSH1 0x0 PUSH1 0x20 DUP3 MSTORE PUSH2 0xF7B PUSH1 0x20 DUP4 ADD DUP5 PUSH2 0x1A8D JUMP JUMPDEST PUSH1 0x20 DUP1 DUP3 MSTORE PUSH1 0x26 SWAP1 DUP3 ADD MSTORE PUSH32 0x4F776E61626C653A206E6577206F776E657220697320746865207A65726F2061 PUSH1 0x40 DUP3 ADD MSTORE PUSH6 0x646472657373 PUSH1 0xD0 SHL PUSH1 0x60 DUP3 ADD MSTORE PUSH1 0x80 ADD SWAP1 JUMP JUMPDEST PUSH1 0x20 DUP1 DUP3 MSTORE PUSH1 0x24 SWAP1 DUP3 ADD MSTORE PUSH32 0x6578656375746F723A2063616C6C6572206973206E6F74207468652065786563 PUSH1 0x40 DUP3 ADD MSTORE PUSH4 0x3ABA37B9 PUSH1 0xE1 SHL PUSH1 0x60 DUP3 ADD MSTORE PUSH1 0x80 ADD SWAP1 JUMP JUMPDEST PUSH1 0x20 DUP1 DUP3 MSTORE PUSH1 0x26 SWAP1 DUP3 ADD MSTORE PUSH32 0x416464726573733A20696E73756666696369656E742062616C616E636520666F PUSH1 0x40 DUP3 ADD MSTORE PUSH6 0x1C8818D85B1B PUSH1 0xD2 SHL PUSH1 0x60 DUP3 ADD MSTORE PUSH1 0x80 ADD SWAP1 JUMP JUMPDEST PUSH1 0x20 DUP1 DUP3 MSTORE PUSH1 0x2E SWAP1 DUP3 ADD MSTORE PUSH32 0x496E697469616C697A61626C653A20636F6E747261637420697320616C726561 PUSH1 0x40 DUP3 ADD MSTORE PUSH14 0x191E481A5B9A5D1A585B1A5E9959 PUSH1 0x92 SHL PUSH1 0x60 DUP3 ADD MSTORE PUSH1 0x80 ADD SWAP1 JUMP JUMPDEST PUSH1 0x20 DUP1 DUP3 MSTORE DUP2 DUP2 ADD MSTORE PUSH32 0x4F776E61626C653A2063616C6C6572206973206E6F7420746865206F776E6572 PUSH1 0x40 DUP3 ADD MSTORE PUSH1 0x60 ADD SWAP1 JUMP JUMPDEST PUSH1 0x20 DUP1 DUP3 MSTORE PUSH1 0x1D SWAP1 DUP3 ADD MSTORE PUSH32 0x416464726573733A2063616C6C20746F206E6F6E2D636F6E7472616374000000 PUSH1 0x40 DUP3 ADD MSTORE PUSH1 0x60 ADD SWAP1 JUMP JUMPDEST PUSH1 0x20 DUP1 DUP3 MSTORE PUSH1 0x2A SWAP1 DUP3 ADD MSTORE PUSH32 0x5361666545524332303A204552433230206F7065726174696F6E20646964206E PUSH1 0x40 DUP3 ADD MSTORE PUSH10 0x1BDD081CDD58D8D95959 PUSH1 0xB2 SHL PUSH1 0x60 DUP3 ADD MSTORE PUSH1 0x80 ADD SWAP1 JUMP JUMPDEST SWAP1 DUP2 MSTORE PUSH1 0x20 ADD SWAP1 JUMP JUMPDEST PUSH1 0x0 DUP6 DUP3 MSTORE DUP5 PUSH1 0x20 DUP4 ADD MSTORE PUSH1 0x1 DUP1 PUSH1 0xA0 SHL SUB DUP5 AND PUSH1 0x40 DUP4 ADD MSTORE PUSH1 0x80 PUSH1 0x60 DUP4 ADD MSTORE PUSH2 0x1D44 PUSH1 0x80 DUP4 ADD DUP5 PUSH2 0x1A8D JUMP JUMPDEST SWAP7 SWAP6 POP POP POP POP POP POP JUMP JUMPDEST SWAP3 DUP4 MSTORE PUSH1 0x20 DUP4 ADD SWAP2 SWAP1 SWAP2 MSTORE ISZERO ISZERO PUSH1 0x40 DUP3 ADD MSTORE PUSH1 0x60 ADD SWAP1 JUMP JUMPDEST PUSH1 0x0 DUP3 NOT DUP3 GT ISZERO PUSH2 0x1D79 JUMPI PUSH2 0x1D79 PUSH2 0x1F18 JUMP JUMPDEST POP ADD SWAP1 JUMP JUMPDEST PUSH1 0x0 DUP3 PUSH2 0x1D99 JUMPI PUSH4 0x4E487B71 PUSH1 0xE0 SHL DUP2 MSTORE PUSH1 0x12 PUSH1 0x4 MSTORE PUSH1 0x24 DUP2 REVERT JUMPDEST POP DIV SWAP1 JUMP JUMPDEST DUP1 DUP3 JUMPDEST PUSH1 0x1 DUP1 DUP7 GT PUSH2 0x1DB0 JUMPI POP PUSH2 0x1DDB JUMP JUMPDEST DUP2 DUP8 DIV DUP3 GT ISZERO PUSH2 0x1DC2 JUMPI PUSH2 0x1DC2 PUSH2 0x1F18 JUMP JUMPDEST DUP1 DUP7 AND ISZERO PUSH2 0x1DCF JUMPI SWAP2 DUP2 MUL SWAP2 JUMPDEST SWAP5 SWAP1 SWAP5 SHR SWAP4 DUP1 MUL PUSH2 0x1DA1 JUMP JUMPDEST SWAP5 POP SWAP5 SWAP3 POP POP POP JUMP JUMPDEST PUSH1 0x0 PUSH2 0xF7B PUSH1 0x0 NOT DUP5 DUP5 PUSH1 0x0 DUP3 PUSH2 0x1DFD JUMPI POP PUSH1 0x1 PUSH2 0xF7B JUMP JUMPDEST DUP2 PUSH2 0x1E0A JUMPI POP PUSH1 0x0 PUSH2 0xF7B JUMP JUMPDEST DUP2 PUSH1 0x1 DUP2 EQ PUSH2 0x1E20 JUMPI PUSH1 0x2 DUP2 EQ PUSH2 0x1E2A JUMPI PUSH2 0x1E57 JUMP JUMPDEST PUSH1 0x1 SWAP2 POP POP PUSH2 0xF7B JUMP JUMPDEST PUSH1 0xFF DUP5 GT ISZERO PUSH2 0x1E3B JUMPI PUSH2 0x1E3B PUSH2 0x1F18 JUMP JUMPDEST PUSH1 0x1 DUP5 SHL SWAP2 POP DUP5 DUP3 GT ISZERO PUSH2 0x1E51 JUMPI PUSH2 0x1E51 PUSH2 0x1F18 JUMP JUMPDEST POP PUSH2 0xF7B JUMP JUMPDEST POP PUSH1 0x20 DUP4 LT PUSH2 0x133 DUP4 LT AND PUSH1 0x4E DUP5 LT PUSH1 0xB DUP5 LT AND OR ISZERO PUSH2 0x1E8A JUMPI POP DUP2 DUP2 EXP DUP4 DUP2 GT ISZERO PUSH2 0x1E85 JUMPI PUSH2 0x1E85 PUSH2 0x1F18 JUMP JUMPDEST PUSH2 0xF7B JUMP JUMPDEST PUSH2 0x1E97 DUP5 DUP5 DUP5 PUSH1 0x1 PUSH2 0x1D9E JUMP JUMPDEST DUP1 DUP7 DIV DUP3 GT ISZERO PUSH2 0x1EA9 JUMPI PUSH2 0x1EA9 PUSH2 0x1F18 JUMP JUMPDEST MUL SWAP5 SWAP4 POP POP POP POP JUMP JUMPDEST PUSH1 0x0 DUP2 PUSH1 0x0 NOT DIV DUP4 GT DUP3 ISZERO ISZERO AND ISZERO PUSH2 0x1ECC JUMPI PUSH2 0x1ECC PUSH2 0x1F18 JUMP JUMPDEST POP MUL SWAP1 JUMP JUMPDEST PUSH1 0x0 DUP3 DUP3 LT ISZERO PUSH2 0x1EE3 JUMPI PUSH2 0x1EE3 PUSH2 0x1F18 JUMP JUMPDEST POP SUB SWAP1 JUMP JUMPDEST PUSH1 0x0 JUMPDEST DUP4 DUP2 LT ISZERO PUSH2 0x1F03 JUMPI DUP2 DUP2 ADD MLOAD DUP4 DUP3 ADD MSTORE PUSH1 0x20 ADD PUSH2 0x1EEB JUMP JUMPDEST DUP4 DUP2 GT ISZERO PUSH2 0x1F12 JUMPI PUSH1 0x0 DUP5 DUP5 ADD MSTORE JUMPDEST POP POP POP POP JUMP JUMPDEST PUSH4 0x4E487B71 PUSH1 0xE0 SHL PUSH1 0x0 MSTORE PUSH1 0x11 PUSH1 0x4 MSTORE PUSH1 0x24 PUSH1 0x0 REVERT JUMPDEST PUSH1 0x1 PUSH1 0x1 PUSH1 0xA0 SHL SUB DUP2 AND DUP2 EQ PUSH2 0xE28 JUMPI PUSH1 0x0 DUP1 REVERT JUMPDEST DUP1 ISZERO ISZERO DUP2 EQ PUSH2 0xE28 JUMPI PUSH1 0x0 DUP1 REVERT INVALID LOG2 PUSH5 0x6970667358 0x22 SLT KECCAK256 PC 0xA6 SWAP14 0xCD PUSH6 0x2B30EBE94125 0xDC SWAP4 GT 0xD5 0x23 SWAP10 0x4A 0xD7 EQ PUSH5 0xA9485B6C18 MULMOD DUP4 COINBASE 0xC1 0xBF LOG3 PUSH5 0x736F6C6343 STOP ADDMOD STOP STOP CALLER "
		},
		"gasEstimates": {
			"creation": {
				"codeDepositCost": "1614200",
				"executionCost": "1694",
				"totalCost": "1615894"
			},
			"external": {
				"Factory()": "1137",
				"PRECISION()": "1117",
				"Router()": "1202",
				"autoAdjustFarm()": "1169",
				"basePoint()": "1075",
				"dev()": "1138",
				"executor(address)": "1348",
				"farm()": "1182",
				"initialize(address,address,address,address,address,address,address)": "infinite",
				"jointExecution()": "infinite",
				"op()": "1136",
				"openStabilizer()": "1146",
				"owner()": "1117",
				"pid()": "1116",
				"renounceOwnership()": "23619",
				"sea()": "1115",
				"setAutoAdjustFarm(bool)": "22239",
				"setDev(address)": "22298",
				"setExecutor(address,bool)": "infinite",
				"setFarm(address)": "22320",
				"setOp(address)": "22232",
				"setOpenStabilizer(bool)": "22238",
				"setPid(uint256)": "21331",
				"setStabilizer(address)": "22231",
				"setToDevPercent(uint256)": "21384",
				"setToOpPercent(uint256)": "21361",
				"setToSseaPercent(uint256)": "21363",
				"setUSDCAddress(address)": "22254",
				"ssea()": "1203",
				"stabilizer()": "1203",
				"toDevPercent()": "1140",
				"toOpPercent()": "1074",
				"toSseaPercent()": "1073",
				"transferOwnership(address)": "infinite",
				"usc()": "1138",
				"usdc()": "1116",
				"withdrawalERC20(address,uint256)": "infinite"
			},
			"internal": {
				"adjustFarm()": "infinite",
				"buySea(uint256)": "infinite",
				"getAmountOut(uint256,uint256,uint256)": "infinite"
			}
		},
		"methodIdentifiers": {
			"Factory()": "c83dd231",
			"PRECISION()": "aaf5eb68",
			"Router()": "f6d7eade",
			"autoAdjustFarm()": "9da5b0d5",
			"basePoint()": "16d03993",
			"dev()": "91cca3db",
			"executor(address)": "48c7e528",
			"farm()": "36e9332d",
			"initialize(address,address,address,address,address,address,address)": "35876476",
			"jointExecution()": "d10c06a2",
			"op()": "ec1f1f69",
			"openStabilizer()": "58de5de8",
			"owner()": "8da5cb5b",
			"pid()": "f1068454",
			"renounceOwnership()": "715018a6",
			"sea()": "4ecaac41",
			"setAutoAdjustFarm(bool)": "4591db50",
			"setDev(address)": "d477f05f",
			"setExecutor(address,bool)": "1e1bff3f",
			"setFarm(address)": "d4f26c51",
			"setOp(address)": "a36a7526",
			"setOpenStabilizer(bool)": "55c746d1",
			"setPid(uint256)": "1b0d8aab",
			"setStabilizer(address)": "db7f521a",
			"setToDevPercent(uint256)": "3c850e1e",
			"setToOpPercent(uint256)": "af5518c4",
			"setToSseaPercent(uint256)": "27c42a50",
			"setUSDCAddress(address)": "aaf5bfc3",
			"ssea()": "b8bb97a1",
			"stabilizer()": "7e47961c",
			"toDevPercent()": "4ae6a027",
			"toOpPercent()": "2c535a52",
			"toSseaPercent()": "bd0b1f44",
			"transferOwnership(address)": "f2fde38b",
			"usc()": "3011d3d5",
			"usdc()": "3e413bee",
			"withdrawalERC20(address,uint256)": "930ed033"
		}
	},
	"abi": [
		{
			"anonymous": false,
			"inputs": [
				{
					"indexed": true,
					"internalType": "address",
					"name": "previousOwner",
					"type": "address"
				},
				{
					"indexed": true,
					"internalType": "address",
					"name": "newOwner",
					"type": "address"
				}
			],
			"name": "OwnershipTransferred",
			"type": "event"
		},
		{
			"inputs": [],
			"name": "Factory",
			"outputs": [
				{
					"internalType": "contract IUniswapV2Factory",
					"name": "",
					"type": "address"
				}
			],
			"stateMutability": "view",
			"type": "function"
		},
		{
			"inputs": [],
			"name": "PRECISION",
			"outputs": [
				{
					"internalType": "uint256",
					"name": "",
					"type": "uint256"
				}
			],
			"stateMutability": "view",
			"type": "function"
		},
		{
			"inputs": [],
			"name": "Router",
			"outputs": [
				{
					"internalType": "contract IUniswapV2Router02",
					"name": "",
					"type": "address"
				}
			],
			"stateMutability": "view",
			"type": "function"
		},
		{
			"inputs": [],
			"name": "autoAdjustFarm",
			"outputs": [
				{
					"internalType": "bool",
					"name": "",
					"type": "bool"
				}
			],
			"stateMutability": "view",
			"type": "function"
		},
		{
			"inputs": [],
			"name": "basePoint",
			"outputs": [
				{
					"internalType": "uint256",
					"name": "",
					"type": "uint256"
				}
			],
			"stateMutability": "view",
			"type": "function"
		},
		{
			"inputs": [],
			"name": "dev",
			"outputs": [
				{
					"internalType": "address",
					"name": "",
					"type": "address"
				}
			],
			"stateMutability": "view",
			"type": "function"
		},
		{
			"inputs": [
				{
					"internalType": "address",
					"name": "",
					"type": "address"
				}
			],
			"name": "executor",
			"outputs": [
				{
					"internalType": "bool",
					"name": "",
					"type": "bool"
				}
			],
			"stateMutability": "view",
			"type": "function"
		},
		{
			"inputs": [],
			"name": "farm",
			"outputs": [
				{
					"internalType": "contract IFarm",
					"name": "",
					"type": "address"
				}
			],
			"stateMutability": "view",
			"type": "function"
		},
		{
			"inputs": [
				{
					"internalType": "contract IUniswapV2Factory",
					"name": "_Factory",
					"type": "address"
				},
				{
					"internalType": "contract IUniswapV2Router02",
					"name": "_Router",
					"type": "address"
				},
				{
					"internalType": "contract IERC20Upgradeable",
					"name": "_usc",
					"type": "address"
				},
				{
					"internalType": "contract IERC20Upgradeable",
					"name": "_usdc",
					"type": "address"
				},
				{
					"internalType": "contract IERC20Upgradeable",
					"name": "_sea",
					"type": "address"
				},
				{
					"internalType": "contract IERC20Upgradeable",
					"name": "_ssea",
					"type": "address"
				},
				{
					"internalType": "contract IFarm",
					"name": "_farm",
					"type": "address"
				}
			],
			"name": "initialize",
			"outputs": [],
			"stateMutability": "nonpayable",
			"type": "function"
		},
		{
			"inputs": [],
			"name": "jointExecution",
			"outputs": [
				{
					"internalType": "bool",
					"name": "",
					"type": "bool"
				}
			],
			"stateMutability": "nonpayable",
			"type": "function"
		},
		{
			"inputs": [],
			"name": "op",
			"outputs": [
				{
					"internalType": "address",
					"name": "",
					"type": "address"
				}
			],
			"stateMutability": "view",
			"type": "function"
		},
		{
			"inputs": [],
			"name": "openStabilizer",
			"outputs": [
				{
					"internalType": "bool",
					"name": "",
					"type": "bool"
				}
			],
			"stateMutability": "view",
			"type": "function"
		},
		{
			"inputs": [],
			"name": "owner",
			"outputs": [
				{
					"internalType": "address",
					"name": "",
					"type": "address"
				}
			],
			"stateMutability": "view",
			"type": "function"
		},
		{
			"inputs": [],
			"name": "pid",
			"outputs": [
				{
					"internalType": "uint256",
					"name": "",
					"type": "uint256"
				}
			],
			"stateMutability": "view",
			"type": "function"
		},
		{
			"inputs": [],
			"name": "renounceOwnership",
			"outputs": [],
			"stateMutability": "nonpayable",
			"type": "function"
		},
		{
			"inputs": [],
			"name": "sea",
			"outputs": [
				{
					"internalType": "contract IERC20Upgradeable",
					"name": "",
					"type": "address"
				}
			],
			"stateMutability": "view",
			"type": "function"
		},
		{
			"inputs": [
				{
					"internalType": "bool",
					"name": "_bool",
					"type": "bool"
				}
			],
			"name": "setAutoAdjustFarm",
			"outputs": [
				{
					"internalType": "bool",
					"name": "",
					"type": "bool"
				}
			],
			"stateMutability": "nonpayable",
			"type": "function"
		},
		{
			"inputs": [
				{
					"internalType": "address",
					"name": "_address",
					"type": "address"
				}
			],
			"name": "setDev",
			"outputs": [
				{
					"internalType": "bool",
					"name": "",
					"type": "bool"
				}
			],
			"stateMutability": "nonpayable",
			"type": "function"
		},
		{
			"inputs": [
				{
					"internalType": "address",
					"name": "_address",
					"type": "address"
				},
				{
					"internalType": "bool",
					"name": "_type",
					"type": "bool"
				}
			],
			"name": "setExecutor",
			"outputs": [
				{
					"internalType": "bool",
					"name": "",
					"type": "bool"
				}
			],
			"stateMutability": "nonpayable",
			"type": "function"
		},
		{
			"inputs": [
				{
					"internalType": "contract IFarm",
					"name": "_farm",
					"type": "address"
				}
			],
			"name": "setFarm",
			"outputs": [
				{
					"internalType": "bool",
					"name": "",
					"type": "bool"
				}
			],
			"stateMutability": "nonpayable",
			"type": "function"
		},
		{
			"inputs": [
				{
					"internalType": "address",
					"name": "_address",
					"type": "address"
				}
			],
			"name": "setOp",
			"outputs": [
				{
					"internalType": "bool",
					"name": "",
					"type": "bool"
				}
			],
			"stateMutability": "nonpayable",
			"type": "function"
		},
		{
			"inputs": [
				{
					"internalType": "bool",
					"name": "_bool",
					"type": "bool"
				}
			],
			"name": "setOpenStabilizer",
			"outputs": [
				{
					"internalType": "bool",
					"name": "",
					"type": "bool"
				}
			],
			"stateMutability": "nonpayable",
			"type": "function"
		},
		{
			"inputs": [
				{
					"internalType": "uint256",
					"name": "_val",
					"type": "uint256"
				}
			],
			"name": "setPid",
			"outputs": [
				{
					"internalType": "bool",
					"name": "",
					"type": "bool"
				}
			],
			"stateMutability": "nonpayable",
			"type": "function"
		},
		{
			"inputs": [
				{
					"internalType": "address",
					"name": "_address",
					"type": "address"
				}
			],
			"name": "setStabilizer",
			"outputs": [
				{
					"internalType": "bool",
					"name": "",
					"type": "bool"
				}
			],
			"stateMutability": "nonpayable",
			"type": "function"
		},
		{
			"inputs": [
				{
					"internalType": "uint256",
					"name": "_val",
					"type": "uint256"
				}
			],
			"name": "setToDevPercent",
			"outputs": [
				{
					"internalType": "bool",
					"name": "",
					"type": "bool"
				}
			],
			"stateMutability": "nonpayable",
			"type": "function"
		},
		{
			"inputs": [
				{
					"internalType": "uint256",
					"name": "_val",
					"type": "uint256"
				}
			],
			"name": "setToOpPercent",
			"outputs": [
				{
					"internalType": "bool",
					"name": "",
					"type": "bool"
				}
			],
			"stateMutability": "nonpayable",
			"type": "function"
		},
		{
			"inputs": [
				{
					"internalType": "uint256",
					"name": "_val",
					"type": "uint256"
				}
			],
			"name": "setToSseaPercent",
			"outputs": [
				{
					"internalType": "bool",
					"name": "",
					"type": "bool"
				}
			],
			"stateMutability": "nonpayable",
			"type": "function"
		},
		{
			"inputs": [
				{
					"internalType": "contract IERC20Upgradeable",
					"name": "_usdc",
					"type": "address"
				}
			],
			"name": "setUSDCAddress",
			"outputs": [
				{
					"internalType": "bool",
					"name": "",
					"type": "bool"
				}
			],
			"stateMutability": "nonpayable",
			"type": "function"
		},
		{
			"inputs": [],
			"name": "ssea",
			"outputs": [
				{
					"internalType": "contract IERC20Upgradeable",
					"name": "",
					"type": "address"
				}
			],
			"stateMutability": "view",
			"type": "function"
		},
		{
			"inputs": [],
			"name": "stabilizer",
			"outputs": [
				{
					"internalType": "address",
					"name": "",
					"type": "address"
				}
			],
			"stateMutability": "view",
			"type": "function"
		},
		{
			"inputs": [],
			"name": "toDevPercent",
			"outputs": [
				{
					"internalType": "uint256",
					"name": "",
					"type": "uint256"
				}
			],
			"stateMutability": "view",
			"type": "function"
		},
		{
			"inputs": [],
			"name": "toOpPercent",
			"outputs": [
				{
					"internalType": "uint256",
					"name": "",
					"type": "uint256"
				}
			],
			"stateMutability": "view",
			"type": "function"
		},
		{
			"inputs": [],
			"name": "toSseaPercent",
			"outputs": [
				{
					"internalType": "uint256",
					"name": "",
					"type": "uint256"
				}
			],
			"stateMutability": "view",
			"type": "function"
		},
		{
			"inputs": [
				{
					"internalType": "address",
					"name": "newOwner",
					"type": "address"
				}
			],
			"name": "transferOwnership",
			"outputs": [],
			"stateMutability": "nonpayable",
			"type": "function"
		},
		{
			"inputs": [],
			"name": "usc",
			"outputs": [
				{
					"internalType": "contract IERC20Upgradeable",
					"name": "",
					"type": "address"
				}
			],
			"stateMutability": "view",
			"type": "function"
		},
		{
			"inputs": [],
			"name": "usdc",
			"outputs": [
				{
					"internalType": "contract IERC20Upgradeable",
					"name": "",
					"type": "address"
				}
			],
			"stateMutability": "view",
			"type": "function"
		},
		{
			"inputs": [
				{
					"internalType": "address",
					"name": "_address",
					"type": "address"
				},
				{
					"internalType": "uint256",
					"name": "_amt",
					"type": "uint256"
				}
			],
			"name": "withdrawalERC20",
			"outputs": [
				{
					"internalType": "bool",
					"name": "",
					"type": "bool"
				}
			],
			"stateMutability": "nonpayable",
			"type": "function"
		}
	]
}