{
	"data": {
		"bytecode": {
			"linkReferences": {},
			"object": "608060405234801561001057600080fd5b50613206806100206000396000f3fe608060405234801561001057600080fd5b50600436106102065760003560e01c80637dc0d1d01161011a578063db4a5aa9116100ad578063f14053ad1161007c578063f14053ad1461041b578063f2fde38b14610423578063f7ab69fd14610436578063f8c8765e1461043e578063fc234d061461045157610206565b8063db4a5aa9146103cf578063e4e95520146103e2578063ec4c4f34146103f5578063f0c765e41461040857610206565b8063a8ecb028116100e9578063a8ecb0281461038e578063aaf5eb68146103a1578063aecf77b1146103a9578063c2ec527d146103bc57610206565b80637dc0d1d0146103635780637fd6f15c1461036b5780638da5cb5b14610373578063a0ad12e21461037b57610206565b806343b1f3cb1161019d5780636c19e7831161016c5780636c19e7831461030d5780636e81243714610320578063715018a6146103335780637be3a1a11461033d5780637ce3489b1461035057610206565b806343b1f3cb146102b457806348c7e528146102c75780634b989ce3146102da5780636ab34a4a146102ed57610206565b8063238ac933116101d9578063238ac933146102895780632705c55b146102915780633011d3d5146102a4578063323b9b2b146102ac57610206565b8063080270a81461020b5780630f58d242146102345780631e1bff3f146102545780631e64610c14610274575b600080fd5b61021e6102193660046126cc565b610464565b60405161022b9190612b73565b60405180910390f35b6102476102423660046129c7565b610728565b60405161022b9190613023565b61026761026236600461260e565b610749565b60405161022b9190612bb7565b61027c6107b9565b60405161022b9190612b22565b61027c6107c8565b61026761029f366004612aa2565b6107d7565b61027c610926565b610247610935565b6102476102c23660046129c7565b61093b565b6102676102d53660046125f2565b61094d565b6102676102e8366004612722565b610962565b6103006102fb3660046129c7565b610b5f565b60405161022b9190612f7f565b61026761031b3660046125f2565b610c8c565b61026761032e3660046127fd565b610cf2565b61033b610d46565b005b61024761034b3660046126a1565b610d91565b61026761035e3660046129c7565b610dae565b61027c610df8565b610247610e07565b61027c610e0d565b6102676103893660046127fd565b610e1c565b61026761039c36600461287f565b610e6a565b6102476111c2565b6102476103b73660046125f2565b6111c8565b6102476103ca3660046126a1565b6111e3565b6102676103dd366004612919565b611214565b6102476103f03660046125f2565b61163f565b6102476104033660046126a1565b61165a565b6102476104163660046126a1565b611676565b610247611693565b61033b6104313660046125f2565b611699565b61024761170a565b61033b61044c366004612646565b611710565b61026761045f3660046129f7565b6117f2565b606060008082866104c757606c8054806020026020016040519081016040528092919081815260200182805480156104bb57602002820191906000526020600020905b8154815260200190600101908083116104a7575b505050505090506105a7565b8660011415610538576001600160a01b0388166000908152606e6020908152604091829020805483518184028101840190945280845290918301828280156104bb57602002820191906000526020600020908154815260200190600101908083116104a757505050505090506105a7565b86600214156105a7576001600160a01b0388166000908152607060209081526040918290208054835181840281018401909452808452909183018282801561059f57602002820191906000526020600020905b81548152602001906001019080831161058b575b505050505090505b60006105c86105c0886105ba818a611957565b90611963565b835190611963565b90508681106105d9578692506105dd565b8092505b81516105ed886105ba818a611957565b106106135760405162461bcd60e51b815260040161060a90612ea7565b60405180910390fd5b826106305760405162461bcd60e51b815260040161060a90612f5a565b60008367ffffffffffffffff81111561065957634e487b7160e01b600052604160045260246000fd5b604051908082528060200260200182016040528015610682578160200160208202803683370190505b5090506000610692836001611963565b90505b8486101561071a578381815181106106bd57634e487b7160e01b600052603260045260246000fd5b60200260200101518287815181106106e557634e487b7160e01b600052603260045260246000fd5b6020908102919091010152806106fa5761071a565b8561070481613166565b965050808061071290613114565b915050610695565b509998505050505050505050565b606c818154811061073857600080fd5b600091825260209091200154905081565b600061075361196f565b6001600160a01b0316610764610e0d565b6001600160a01b03161461078a5760405162461bcd60e51b815260040161060a90612e3b565b506001600160a01b0382166000908152606560205260409020805482151560ff19909116179055600192915050565b6068546001600160a01b031681565b6066546001600160a01b031681565b6000838152606a602052604081206009810154607354607254849283928392899161082291670de0b6b3a76400009161081c9182906108168888611957565b90611957565b90611973565b92508560040154600114156108a757856005015481101561088b57600586015461084c9082611963565b9450610864670de0b6b3a764000061081c8785611957565b9350610870838561307a565b881015610886576000965050505050505061091f565b6108a2565b828810156108a2576000965050505050505061091f565b610914565b85600501548111156108fd5760058601546108c3908290611963565b94506108db670de0b6b3a764000061081c8785611957565b93506108e7838561307a565b8810156108a2576000965050505050505061091f565b82881015610914576000965050505050505061091f565b600196505050505050505b9392505050565b6067546001600160a01b031681565b606c5490565b606d6020526000908152604090205481565b60656020526000908152604090205460ff1681565b3360009081526065602052604081205460ff166109915760405162461bcd60e51b815260040161060a90612cce565b6000805b8751811015610b33576000606a60008a84815181106109c457634e487b7160e01b600052603260045260246000fd5b602002602001015181526020019081526020016000209050610a398983815181106109ff57634e487b7160e01b600052603260045260246000fd5b6020026020010151878481518110610a2757634e487b7160e01b600052603260045260246000fd5b602002602001015183600a01546107d7565b610b205782610a4781613166565b935050610b1e8a8260038c8681518110610a7157634e487b7160e01b600052603260045260246000fd5b60200260200101518c8781518110610a9957634e487b7160e01b600052603260045260246000fd5b60200260200101518c8881518110610ac157634e487b7160e01b600052603260045260246000fd5b60200260200101518c8981518110610ae957634e487b7160e01b600052603260045260246000fd5b60200260200101518c8a81518110610b1157634e487b7160e01b600052603260045260246000fd5b602002602001015161197f565b505b5080610b2b81613166565b915050610995565b5080610b515760405162461bcd60e51b815260040161060a90612d12565b506001979650505050505050565b610b6761235f565b6000828152606a602090815260409182902082516101608101845281546001600160a01b031681526001820154928101929092526002810180549293919291840191610bb29061312b565b80601f0160208091040260200160405190810160405280929190818152602001828054610bde9061312b565b8015610c2b5780601f10610c0057610100808354040283529160200191610c2b565b820191906000526020600020905b815481529060010190602001808311610c0e57829003601f168201915b5050505050815260200160038201548152602001600482015481526020016005820154815260200160068201548152602001600782015481526020016008820154815260200160098201548152602001600a8201548152505090505b919050565b6000610c9661196f565b6001600160a01b0316610ca7610e0d565b6001600160a01b031614610ccd5760405162461bcd60e51b815260040161060a90612e3b565b50606680546001600160a01b0383166001600160a01b03199091161790556001919050565b6000858152606a6020526040812080546001600160a01b03163314610d295760405162461bcd60e51b815260040161060a90612ecb565b610d3a888260028a8a8a8a8a61197f565b98975050505050505050565b610d4e61196f565b6001600160a01b0316610d5f610e0d565b6001600160a01b031614610d855760405162461bcd60e51b815260040161060a90612e3b565b610d8f6000611bf2565b565b606f60209081526000928352604080842090915290825290205481565b6000610db861196f565b6001600160a01b0316610dc9610e0d565b6001600160a01b031614610def5760405162461bcd60e51b815260040161060a90612e3b565b50607255600190565b6069546001600160a01b031681565b60725481565b6033546001600160a01b031690565b3360009081526065602052604081205460ff16610e4b5760405162461bcd60e51b815260040161060a90612cce565b6000868152606a60205260409020610d3a888260048a8a8a8a8a61197f565b6000868152606a6020526040812080546001600160a01b0316610e9f5760405162461bcd60e51b815260040161060a90612c0e565b6002816003015410610ec35760405162461bcd60e51b815260040161060a90612eed565b6069546040516311cdc9d960e11b81526001600160a01b039091169063239b93b290610efb908c9089908c908c908b90600401612bc2565b60206040518083038186803b158015610f1357600080fd5b505afa158015610f27573d6000803e3d6000fd5b505050506040513d601f19601f82011682018060405250810190610f4b9190612706565b610f675760405162461bcd60e51b815260040161060a90612caa565b610f728886856107d7565b610f8e5760405162461bcd60e51b815260040161060a90612e11565b6009810154600a820154607354607254600091610fbf91670de0b6b3a76400009161081c918290610816898f611957565b905060008287111561105757610fd58784611963565b606754909150610ff0906001600160a01b0316333084611c44565b606754604051630852cd8d60e31b81526001600160a01b03909116906342966c6890611020908490600401613023565b600060405180830381600087803b15801561103a57600080fd5b505af115801561104e573d6000803e3d6000fd5b505050506110ec565b6110618388611963565b60675486546040516340c10f1960e01b81529293506001600160a01b03918216926340c10f19926110989216908590600401612b5a565b602060405180830381600087803b1580156110b257600080fd5b505af11580156110c6573d6000803e3d6000fd5b505050506040513d601f19601f820116820180604052508101906110ea9190612706565b505b606754611104906001600160a01b0316333085611c44565b606854606754611121916001600160a01b03918216911684611ca2565b606860009054906101000a90046001600160a01b03166001600160a01b031663d10c06a26040518163ffffffff1660e01b8152600401602060405180830381600087803b15801561117157600080fd5b505af1158015611185573d6000803e3d6000fd5b505050506040513d601f19601f820116820180604052508101906111a99190612706565b5050505050600a01919091555060019695505050505050565b60735481565b6001600160a01b031660009081526070602052604090205490565b606e60205281600052604060002081815481106111ff57600080fd5b90600052602060002001600091509150505481565b606b546000908152606a60205260408120896112425760405162461bcd60e51b815260040161060a90612c3c565b6003810154156112645760405162461bcd60e51b815260040161060a90612eed565b6069546040516311cdc9d960e11b81526001600160a01b039091169063239b93b29061129c908e9089908e908c908a90600401612bc2565b60206040518083038186803b1580156112b457600080fd5b505afa1580156112c8573d6000803e3d6000fd5b505050506040513d601f19601f820116820180604052508101906112ec9190612706565b6113085760405162461bcd60e51b815260040161060a90612caa565b6074548a116113295760405162461bcd60e51b815260040161060a90612dce565b6000611356670de0b6b3a764000061081c60735461081c6072546108168b8d61195790919063ffffffff16565b905061137b33306113678e85611cc6565b6067546001600160a01b0316929190611c44565b6067546040516370a0823160e01b81526000916001600160a01b0316906370a08231906113ac903090600401612b22565b60206040518083038186803b1580156113c457600080fd5b505afa1580156113d8573d6000803e3d6000fd5b505050506040513d601f19601f820116820180604052508101906113fc91906129df565b60685460675491925061141c916001600160a01b03908116911684611ca2565b606860009054906101000a90046001600160a01b03166001600160a01b031663d10c06a26040518163ffffffff1660e01b8152600401602060405180830381600087803b15801561146c57600080fd5b505af1158015611480573d6000803e3d6000fd5b505050506040513d601f19601f820116820180604052508101906114a49190612706565b506067546001600160a01b03166342966c686114c08385611963565b6040518263ffffffff1660e01b81526004016114dc9190613023565b600060405180830381600087803b1580156114f657600080fd5b505af115801561150a573d6000803e3d6000fd5b5050606b54606c80546001818101835560008390527f2b4a51ab505fc96a0952efda2ba61bcd3078d4c02c39a186ec16f21883fbe016909101929092555461155493509150611963565b606b80546000908152606d602090815260408083209490945533808352606e8252938220925483546001818101865585855292842001559290525461159891611963565b336000908152606f60209081526040808320606b805485529252822092909255815491906115c583613166565b909155505082546001600160a01b031916331783556001830189905587516115f690600285019060208b01906123c2565b5060016003840155600483018a905560058301879055600683018b9055600983018690556116248183611963565b600a909301929092555060019b9a5050505050505050505050565b6001600160a01b03166000908152606e602052604090205490565b607060205281600052604060002081815481106111ff57600080fd5b607160209081526000928352604080842090915290825290205481565b60745481565b6116a161196f565b6001600160a01b03166116b2610e0d565b6001600160a01b0316146116d85760405162461bcd60e51b815260040161060a90612e3b565b6001600160a01b0381166116fe5760405162461bcd60e51b815260040161060a90612c64565b61170781611bf2565b50565b606b5481565b600054610100900460ff1680611729575060005460ff16155b6117455760405162461bcd60e51b815260040161060a90612d80565b600054610100900460ff16158015611770576000805460ff1961ff0019909116610100171660011790555b611778611cd2565b606680546001600160a01b038088166001600160a01b03199283161790925560688054878416908316179055606780548684169083161790556127106073556069805492851692909116919091179055670de0b6b3a7640000607455603260725580156117eb576000805461ff00191690555b5050505050565b60006117fc61196f565b6001600160a01b031661180d610e0d565b6001600160a01b0316146118335760405162461bcd60e51b815260040161060a90612e3b565b6040518061016001604052808d6001600160a01b031681526020018c81526020018b81526020018a815260200189815260200188815260200187815260200186815260200185815260200184815260200183815250606a60008f815260200190815260200160002060008201518160000160006101000a8154816001600160a01b0302191690836001600160a01b031602179055506020820151816001015560408201518160020190805190602001906118ee9291906123c2565b50606082015160038201556080820151600482015560a0820151600582015560c0820151600682015560e082015160078201556101008201516008820155610120820151600982015561014090910151600a909101555060019c9b505050505050505050505050565b600061091f82846130b2565b600061091f82846130d1565b3390565b600061091f8284613092565b86546000906001600160a01b03166119a95760405162461bcd60e51b815260040161060a90612c0e565b60028860030154106119cd5760405162461bcd60e51b815260040161060a90612eed565b6069546040516311cdc9d960e11b81526001600160a01b039091169063239b93b290611a05908c9087908a908a908990600401612bc2565b60206040518083038186803b158015611a1d57600080fd5b505afa158015611a31573d6000803e3d6000fd5b505050506040513d601f19601f82011682018060405250810190611a559190612706565b611a715760405162461bcd60e51b815260040161060a90612caa565b8754600489015487916001600160a01b0316906001811415611a9c57611a978b87611d56565b611aa6565b611aa68b87611f73565b606860009054906101000a90046001600160a01b03166001600160a01b031663d10c06a26040518163ffffffff1660e01b8152600401602060405180830381600087803b158015611af657600080fd5b505af1158015611b0a573d6000803e3d6000fd5b505050506040513d601f19601f82011682018060405250810190611b2e9190612706565b5060038b018a905560078b0186905560088b01889055611b5183606d606c611ffa565b6001600160a01b0382166000908152606f60209081526040808320606e909252909120611b7f918591611ffa565b6001600160a01b038216600090815260706020908152604082208054600181810183559184529190922001849055611bba906105ba846111c8565b6001600160a01b0390921660009081526071602090815260408083209583529490529290922055506001905098975050505050505050565b603380546001600160a01b038381166001600160a01b0319831681179093556040519116919082907f8be0079c531659141344cd1fd0a4f28419497f9722a3daafe3b4186f6b6457e090600090a35050565b611c9c846323b872dd60e01b858585604051602401611c6593929190612b36565b60408051601f198184030181529190526020810180516001600160e01b03166001600160e01b0319909316929092179091526120d7565b50505050565b611cc18363a9059cbb60e01b8484604051602401611c65929190612b5a565b505050565b600061091f828461307a565b600054610100900460ff1680611ceb575060005460ff16155b611d075760405162461bcd60e51b815260040161060a90612d80565b600054610100900460ff16158015611d32576000805460ff1961ff0019909116610100171660011790555b611d3a612166565b611d426121d9565b8015611707576000805461ff001916905550565b81546009830154600a84015460058501546073546072546001600160a01b039095169460009485948594919389939192918691611da791670de0b6b3a76400009161081c9182906108168a8c611957565b905081841115611e8b57611dbb8483611963565b9750611dd3670de0b6b3a764000061081c8a88611957565b9650611ddf8388611cc6565b606854606754919750611e01916001600160a01b039081169133911684611c44565b6067546040516340c10f1960e01b81526001600160a01b03909116906340c10f1990611e33908c908a90600401612b5a565b602060405180830381600087803b158015611e4d57600080fd5b505af1158015611e61573d6000803e3d6000fd5b505050506040513d601f19601f82011682018060405250810190611e859190612706565b50611f66565b611e958285611963565b9750611ea18886611957565b965082871115611eb45760009550611f66565b611ebe8388611963565b606854606754919750611ee0916001600160a01b039081169133911684611c44565b6067546040516340c10f1960e01b81526001600160a01b03909116906340c10f1990611f12908c908a90600401612b5a565b602060405180830381600087803b158015611f2c57600080fd5b505af1158015611f40573d6000803e3d6000fd5b505050506040513d601f19601f82011682018060405250810190611f649190612706565b505b5050505050505050505050565b81546009830154600a84015460058501546073546072546001600160a01b039095169460009485948594919389939192918691611fc491670de0b6b3a76400009161081c9182906108168a8c611957565b905081841015611fd857611dbb8285611963565b611fe28483611963565b9750611ea1670de0b6b3a764000061081c8a88611957565b6000838152602083905260408120548254909190839061201b906001611963565b8154811061203957634e487b7160e01b600052603260045260246000fd5b9060005260206000200154905081846000838152602001908152602001600020819055508083838154811061207e57634e487b7160e01b600052603260045260246000fd5b600091825260208083209091019290925586815290859052604081205582548390806120ba57634e487b7160e01b600052603160045260246000fd5b600190038181906000526020600020016000905590555050505050565b600061212c826040518060400160405280602081526020017f5361666545524332303a206c6f772d6c6576656c2063616c6c206661696c6564815250856001600160a01b03166122499092919063ffffffff16565b805190915015611cc1578080602001905181019061214a9190612706565b611cc15760405162461bcd60e51b815260040161060a90612f10565b600054610100900460ff168061217f575060005460ff16155b61219b5760405162461bcd60e51b815260040161060a90612d80565b600054610100900460ff16158015611d42576000805460ff1961ff0019909116610100171660011790558015611707576000805461ff001916905550565b600054610100900460ff16806121f2575060005460ff16155b61220e5760405162461bcd60e51b815260040161060a90612d80565b600054610100900460ff16158015612239576000805460ff1961ff0019909116610100171660011790555b611d4261224461196f565b611bf2565b60606122588484600085612260565b949350505050565b6060824710156122825760405162461bcd60e51b815260040161060a90612d3a565b61228b85612320565b6122a75760405162461bcd60e51b815260040161060a90612e70565b600080866001600160a01b031685876040516122c39190612b06565b60006040518083038185875af1925050503d8060008114612300576040519150601f19603f3d011682016040523d82523d6000602084013e612305565b606091505b5091509150612315828286612326565b979650505050505050565b3b151590565b6060831561233557508161091f565b8251156123455782518084602001fd5b8160405162461bcd60e51b815260040161060a9190612bfb565b60405180610160016040528060006001600160a01b03168152602001600081526020016060815260200160008152602001600081526020016000815260200160008152602001600081526020016000815260200160008152602001600081525090565b8280546123ce9061312b565b90600052602060002090601f0160209004810192826123f05760008555612436565b82601f1061240957805160ff1916838001178555612436565b82800160010185558215612436579182015b8281111561243657825182559160200191906001019061241b565b50612442929150612446565b5090565b5b808211156124425760008155600101612447565b8035610c87816131ad565b600082601f830112612476578081fd5b8135602061248b61248683613056565b61302c565b82815281810190858301855b858110156124c0576124ae898684358b0101612587565b84529284019290840190600101612497565b5090979650505050505050565b600082601f8301126124dd578081fd5b813560206124ed61248683613056565b82815281810190858301855b858110156124c057612510898684358b0101612587565b845292840192908401906001016124f9565b600082601f830112612532578081fd5b8135602061254261248683613056565b828152818101908583018385028701840188101561255e578586fd5b855b858110156124c057813584529284019290840190600101612560565b8035610c87816131c2565b600082601f830112612597578081fd5b813567ffffffffffffffff8111156125b1576125b1613197565b6125c4601f8201601f191660200161302c565b8181528460208386010111156125d8578283fd5b816020850160208301379081016020019190915292915050565b600060208284031215612603578081fd5b813561091f816131ad565b60008060408385031215612620578081fd5b823561262b816131ad565b9150602083013561263b816131c2565b809150509250929050565b6000806000806080858703121561265b578182fd5b8435612666816131ad565b93506020850135612676816131ad565b92506040850135612686816131ad565b91506060850135612696816131ad565b939692955090935050565b600080604083850312156126b3578182fd5b82356126be816131ad565b946020939093013593505050565b600080600080608085870312156126e1578384fd5b84356126ec816131ad565b966020860135965060408601359560600135945092505050565b600060208284031215612717578081fd5b815161091f816131c2565b60008060008060008060c0878903121561273a578384fd5b6127438761257c565b9550602087013567ffffffffffffffff8082111561275f578586fd5b61276b8a838b01612522565b96506040890135915080821115612780578586fd5b61278c8a838b01612522565b955060608901359150808211156127a1578384fd5b6127ad8a838b016124cd565b945060808901359150808211156127c2578384fd5b6127ce8a838b01612522565b935060a08901359150808211156127e3578283fd5b506127f089828a01612466565b9150509295509295509295565b60008060008060008060c08789031215612815578384fd5b8635612820816131c2565b95506020870135945060408701359350606087013567ffffffffffffffff8082111561284a578384fd5b6128568a838b01612587565b94506080890135935060a0890135915080821115612872578283fd5b506127f089828a01612587565b600080600080600080600060e0888a031215612899578485fd5b87356128a4816131c2565b96506020880135955060408801359450606088013567ffffffffffffffff808211156128ce578283fd5b6128da8b838c01612587565b955060808a0135945060a08a01359150808211156128f6578283fd5b506129038a828b01612587565b92505060c0880135905092959891949750929550565b60008060008060008060008060006101208a8c031215612937578283fd5b8935612942816131c2565b985060208a0135975060408a0135965060608a0135955060808a0135945060a08a013567ffffffffffffffff8082111561297a578485fd5b6129868d838e01612587565b955060c08c0135945060e08c013593506101008c01359150808211156129aa578283fd5b506129b78c828d01612587565b9150509295985092959850929598565b6000602082840312156129d8578081fd5b5035919050565b6000602082840312156129f0578081fd5b5051919050565b6000806000806000806000806000806000806101808d8f031215612a19578586fd5b8c359b50612a2960208e0161245b565b9a5060408d0135995067ffffffffffffffff60608e01351115612a4a578586fd5b612a5a8e60608f01358f01612587565b9b9e9a9d50989b60808101359a60a08201359a5060c0820135995060e08201359850610100820135975061012082013596506101408201359550610160909101359350915050565b600080600060608486031215612ab6578081fd5b505081359360208301359350604090920135919050565b6001600160a01b03169052565b60008151808452612af28160208601602086016130e8565b601f01601f19169290920160200192915050565b60008251612b188184602087016130e8565b9190910192915050565b6001600160a01b0391909116815260200190565b6001600160a01b039384168152919092166020820152604081019190915260600190565b6001600160a01b03929092168252602082015260400190565b6020808252825182820181905260009190848201906040850190845b81811015612bab57835183529284019291840191600101612b8f565b50909695505050505050565b901515815260200190565b6000861515825285602083015284604083015260a06060830152612be960a0830185612ada565b8281036080840152610d3a8185612ada565b60006020825261091f6020830184612ada565b6020808252601490820152731bdc99195c88191bd95cc81b9bdd08195e1a5cdd60621b604082015260600190565b6020808252600e908201526d1b585c99da5b881b9bc819dbdbd960921b604082015260600190565b60208082526026908201527f4f776e61626c653a206e6577206f776e657220697320746865207a65726f206160408201526564647265737360d01b606082015260800190565b6020808252600a908201526937b930b1b6329032b93960b11b604082015260600190565b60208082526024908201527f6578656375746f723a2063616c6c6572206973206e6f742074686520657865636040820152633aba37b960e11b606082015260800190565b6020808252600e908201526d2737903634b8bab4b230ba34b7b760911b604082015260600190565b60208082526026908201527f416464726573733a20696e73756666696369656e742062616c616e636520666f6040820152651c8818d85b1b60d21b606082015260800190565b6020808252602e908201527f496e697469616c697a61626c653a20636f6e747261637420697320616c72656160408201526d191e481a5b9a5d1a585b1a5e995960921b606082015260800190565b60208082526023908201527f546865207472616e73616374696f6e20616d6f756e7420697320746f6f20736d604082015262185b1b60ea1b606082015260800190565b60208082526010908201526f155cd95c881a5cc818985b9adc9d5c1d60821b604082015260600190565b6020808252818101527f4f776e61626c653a2063616c6c6572206973206e6f7420746865206f776e6572604082015260600190565b6020808252601d908201527f416464726573733a2063616c6c20746f206e6f6e2d636f6e7472616374000000604082015260600190565b6020808252600a90820152693632b733ba341032b93960b11b604082015260600190565b6020808252600890820152673ab9b2b91032b93960c11b604082015260600190565b60208082526009908201526839ba30ba329032b93960b91b604082015260600190565b6020808252602a908201527f5361666545524332303a204552433230206f7065726174696f6e20646964206e6040820152691bdd081cdd58d8d9595960b21b606082015260800190565b6020808252600b908201526a185c9c881b9bc819dbdbd960aa1b604082015260600190565b600060208252612f93602083018451612acd565b602083015160408301526040830151610160806060850152612fb9610180850183612ada565b915060608501516080850152608085015160a085015260a085015160c085015260c085015160e085015260e0850151610100818187015280870151915050610120818187015280870151915050610140818187015280870151838701525050508091505092915050565b90815260200190565b60405181810167ffffffffffffffff8111828210171561304e5761304e613197565b604052919050565b600067ffffffffffffffff82111561307057613070613197565b5060209081020190565b6000821982111561308d5761308d613181565b500190565b6000826130ad57634e487b7160e01b81526012600452602481fd5b500490565b60008160001904831182151516156130cc576130cc613181565b500290565b6000828210156130e3576130e3613181565b500390565b60005b838110156131035781810151838201526020016130eb565b83811115611c9c5750506000910152565b60008161312357613123613181565b506000190190565b60028104600182168061313f57607f821691505b6020821081141561316057634e487b7160e01b600052602260045260246000fd5b50919050565b600060001982141561317a5761317a613181565b5060010190565b634e487b7160e01b600052601160045260246000fd5b634e487b7160e01b600052604160045260246000fd5b6001600160a01b038116811461170757600080fd5b801515811461170757600080fdfea26469706673582212205fa1620a9e42b4b7d4efdcb04e9c117dd3eba63fa425f547692289d6801e991e64736f6c63430008000033",
			"opcodes": "PUSH1 0x80 PUSH1 0x40 MSTORE CALLVALUE DUP1 ISZERO PUSH2 0x10 JUMPI PUSH1 0x0 DUP1 REVERT JUMPDEST POP PUSH2 0x3206 DUP1 PUSH2 0x20 PUSH1 0x0 CODECOPY PUSH1 0x0 RETURN INVALID PUSH1 0x80 PUSH1 0x40 MSTORE CALLVALUE DUP1 ISZERO PUSH2 0x10 JUMPI PUSH1 0x0 DUP1 REVERT JUMPDEST POP PUSH1 0x4 CALLDATASIZE LT PUSH2 0x206 JUMPI PUSH1 0x0 CALLDATALOAD PUSH1 0xE0 SHR DUP1 PUSH4 0x7DC0D1D0 GT PUSH2 0x11A JUMPI DUP1 PUSH4 0xDB4A5AA9 GT PUSH2 0xAD JUMPI DUP1 PUSH4 0xF14053AD GT PUSH2 0x7C JUMPI DUP1 PUSH4 0xF14053AD EQ PUSH2 0x41B JUMPI DUP1 PUSH4 0xF2FDE38B EQ PUSH2 0x423 JUMPI DUP1 PUSH4 0xF7AB69FD EQ PUSH2 0x436 JUMPI DUP1 PUSH4 0xF8C8765E EQ PUSH2 0x43E JUMPI DUP1 PUSH4 0xFC234D06 EQ PUSH2 0x451 JUMPI PUSH2 0x206 JUMP JUMPDEST DUP1 PUSH4 0xDB4A5AA9 EQ PUSH2 0x3CF JUMPI DUP1 PUSH4 0xE4E95520 EQ PUSH2 0x3E2 JUMPI DUP1 PUSH4 0xEC4C4F34 EQ PUSH2 0x3F5 JUMPI DUP1 PUSH4 0xF0C765E4 EQ PUSH2 0x408 JUMPI PUSH2 0x206 JUMP JUMPDEST DUP1 PUSH4 0xA8ECB028 GT PUSH2 0xE9 JUMPI DUP1 PUSH4 0xA8ECB028 EQ PUSH2 0x38E JUMPI DUP1 PUSH4 0xAAF5EB68 EQ PUSH2 0x3A1 JUMPI DUP1 PUSH4 0xAECF77B1 EQ PUSH2 0x3A9 JUMPI DUP1 PUSH4 0xC2EC527D EQ PUSH2 0x3BC JUMPI PUSH2 0x206 JUMP JUMPDEST DUP1 PUSH4 0x7DC0D1D0 EQ PUSH2 0x363 JUMPI DUP1 PUSH4 0x7FD6F15C EQ PUSH2 0x36B JUMPI DUP1 PUSH4 0x8DA5CB5B EQ PUSH2 0x373 JUMPI DUP1 PUSH4 0xA0AD12E2 EQ PUSH2 0x37B JUMPI PUSH2 0x206 JUMP JUMPDEST DUP1 PUSH4 0x43B1F3CB GT PUSH2 0x19D JUMPI DUP1 PUSH4 0x6C19E783 GT PUSH2 0x16C JUMPI DUP1 PUSH4 0x6C19E783 EQ PUSH2 0x30D JUMPI DUP1 PUSH4 0x6E812437 EQ PUSH2 0x320 JUMPI DUP1 PUSH4 0x715018A6 EQ PUSH2 0x333 JUMPI DUP1 PUSH4 0x7BE3A1A1 EQ PUSH2 0x33D JUMPI DUP1 PUSH4 0x7CE3489B EQ PUSH2 0x350 JUMPI PUSH2 0x206 JUMP JUMPDEST DUP1 PUSH4 0x43B1F3CB EQ PUSH2 0x2B4 JUMPI DUP1 PUSH4 0x48C7E528 EQ PUSH2 0x2C7 JUMPI DUP1 PUSH4 0x4B989CE3 EQ PUSH2 0x2DA JUMPI DUP1 PUSH4 0x6AB34A4A EQ PUSH2 0x2ED JUMPI PUSH2 0x206 JUMP JUMPDEST DUP1 PUSH4 0x238AC933 GT PUSH2 0x1D9 JUMPI DUP1 PUSH4 0x238AC933 EQ PUSH2 0x289 JUMPI DUP1 PUSH4 0x2705C55B EQ PUSH2 0x291 JUMPI DUP1 PUSH4 0x3011D3D5 EQ PUSH2 0x2A4 JUMPI DUP1 PUSH4 0x323B9B2B EQ PUSH2 0x2AC JUMPI PUSH2 0x206 JUMP JUMPDEST DUP1 PUSH4 0x80270A8 EQ PUSH2 0x20B JUMPI DUP1 PUSH4 0xF58D242 EQ PUSH2 0x234 JUMPI DUP1 PUSH4 0x1E1BFF3F EQ PUSH2 0x254 JUMPI DUP1 PUSH4 0x1E64610C EQ PUSH2 0x274 JUMPI JUMPDEST PUSH1 0x0 DUP1 REVERT JUMPDEST PUSH2 0x21E PUSH2 0x219 CALLDATASIZE PUSH1 0x4 PUSH2 0x26CC JUMP JUMPDEST PUSH2 0x464 JUMP JUMPDEST PUSH1 0x40 MLOAD PUSH2 0x22B SWAP2 SWAP1 PUSH2 0x2B73 JUMP JUMPDEST PUSH1 0x40 MLOAD DUP1 SWAP2 SUB SWAP1 RETURN JUMPDEST PUSH2 0x247 PUSH2 0x242 CALLDATASIZE PUSH1 0x4 PUSH2 0x29C7 JUMP JUMPDEST PUSH2 0x728 JUMP JUMPDEST PUSH1 0x40 MLOAD PUSH2 0x22B SWAP2 SWAP1 PUSH2 0x3023 JUMP JUMPDEST PUSH2 0x267 PUSH2 0x262 CALLDATASIZE PUSH1 0x4 PUSH2 0x260E JUMP JUMPDEST PUSH2 0x749 JUMP JUMPDEST PUSH1 0x40 MLOAD PUSH2 0x22B SWAP2 SWAP1 PUSH2 0x2BB7 JUMP JUMPDEST PUSH2 0x27C PUSH2 0x7B9 JUMP JUMPDEST PUSH1 0x40 MLOAD PUSH2 0x22B SWAP2 SWAP1 PUSH2 0x2B22 JUMP JUMPDEST PUSH2 0x27C PUSH2 0x7C8 JUMP JUMPDEST PUSH2 0x267 PUSH2 0x29F CALLDATASIZE PUSH1 0x4 PUSH2 0x2AA2 JUMP JUMPDEST PUSH2 0x7D7 JUMP JUMPDEST PUSH2 0x27C PUSH2 0x926 JUMP JUMPDEST PUSH2 0x247 PUSH2 0x935 JUMP JUMPDEST PUSH2 0x247 PUSH2 0x2C2 CALLDATASIZE PUSH1 0x4 PUSH2 0x29C7 JUMP JUMPDEST PUSH2 0x93B JUMP JUMPDEST PUSH2 0x267 PUSH2 0x2D5 CALLDATASIZE PUSH1 0x4 PUSH2 0x25F2 JUMP JUMPDEST PUSH2 0x94D JUMP JUMPDEST PUSH2 0x267 PUSH2 0x2E8 CALLDATASIZE PUSH1 0x4 PUSH2 0x2722 JUMP JUMPDEST PUSH2 0x962 JUMP JUMPDEST PUSH2 0x300 PUSH2 0x2FB CALLDATASIZE PUSH1 0x4 PUSH2 0x29C7 JUMP JUMPDEST PUSH2 0xB5F JUMP JUMPDEST PUSH1 0x40 MLOAD PUSH2 0x22B SWAP2 SWAP1 PUSH2 0x2F7F JUMP JUMPDEST PUSH2 0x267 PUSH2 0x31B CALLDATASIZE PUSH1 0x4 PUSH2 0x25F2 JUMP JUMPDEST PUSH2 0xC8C JUMP JUMPDEST PUSH2 0x267 PUSH2 0x32E CALLDATASIZE PUSH1 0x4 PUSH2 0x27FD JUMP JUMPDEST PUSH2 0xCF2 JUMP JUMPDEST PUSH2 0x33B PUSH2 0xD46 JUMP JUMPDEST STOP JUMPDEST PUSH2 0x247 PUSH2 0x34B CALLDATASIZE PUSH1 0x4 PUSH2 0x26A1 JUMP JUMPDEST PUSH2 0xD91 JUMP JUMPDEST PUSH2 0x267 PUSH2 0x35E CALLDATASIZE PUSH1 0x4 PUSH2 0x29C7 JUMP JUMPDEST PUSH2 0xDAE JUMP JUMPDEST PUSH2 0x27C PUSH2 0xDF8 JUMP JUMPDEST PUSH2 0x247 PUSH2 0xE07 JUMP JUMPDEST PUSH2 0x27C PUSH2 0xE0D JUMP JUMPDEST PUSH2 0x267 PUSH2 0x389 CALLDATASIZE PUSH1 0x4 PUSH2 0x27FD JUMP JUMPDEST PUSH2 0xE1C JUMP JUMPDEST PUSH2 0x267 PUSH2 0x39C CALLDATASIZE PUSH1 0x4 PUSH2 0x287F JUMP JUMPDEST PUSH2 0xE6A JUMP JUMPDEST PUSH2 0x247 PUSH2 0x11C2 JUMP JUMPDEST PUSH2 0x247 PUSH2 0x3B7 CALLDATASIZE PUSH1 0x4 PUSH2 0x25F2 JUMP JUMPDEST PUSH2 0x11C8 JUMP JUMPDEST PUSH2 0x247 PUSH2 0x3CA CALLDATASIZE PUSH1 0x4 PUSH2 0x26A1 JUMP JUMPDEST PUSH2 0x11E3 JUMP JUMPDEST PUSH2 0x267 PUSH2 0x3DD CALLDATASIZE PUSH1 0x4 PUSH2 0x2919 JUMP JUMPDEST PUSH2 0x1214 JUMP JUMPDEST PUSH2 0x247 PUSH2 0x3F0 CALLDATASIZE PUSH1 0x4 PUSH2 0x25F2 JUMP JUMPDEST PUSH2 0x163F JUMP JUMPDEST PUSH2 0x247 PUSH2 0x403 CALLDATASIZE PUSH1 0x4 PUSH2 0x26A1 JUMP JUMPDEST PUSH2 0x165A JUMP JUMPDEST PUSH2 0x247 PUSH2 0x416 CALLDATASIZE PUSH1 0x4 PUSH2 0x26A1 JUMP JUMPDEST PUSH2 0x1676 JUMP JUMPDEST PUSH2 0x247 PUSH2 0x1693 JUMP JUMPDEST PUSH2 0x33B PUSH2 0x431 CALLDATASIZE PUSH1 0x4 PUSH2 0x25F2 JUMP JUMPDEST PUSH2 0x1699 JUMP JUMPDEST PUSH2 0x247 PUSH2 0x170A JUMP JUMPDEST PUSH2 0x33B PUSH2 0x44C CALLDATASIZE PUSH1 0x4 PUSH2 0x2646 JUMP JUMPDEST PUSH2 0x1710 JUMP JUMPDEST PUSH2 0x267 PUSH2 0x45F CALLDATASIZE PUSH1 0x4 PUSH2 0x29F7 JUMP JUMPDEST PUSH2 0x17F2 JUMP JUMPDEST PUSH1 0x60 PUSH1 0x0 DUP1 DUP3 DUP7 PUSH2 0x4C7 JUMPI PUSH1 0x6C DUP1 SLOAD DUP1 PUSH1 0x20 MUL PUSH1 0x20 ADD PUSH1 0x40 MLOAD SWAP1 DUP2 ADD PUSH1 0x40 MSTORE DUP1 SWAP3 SWAP2 SWAP1 DUP2 DUP2 MSTORE PUSH1 0x20 ADD DUP3 DUP1 SLOAD DUP1 ISZERO PUSH2 0x4BB JUMPI PUSH1 0x20 MUL DUP3 ADD SWAP2 SWAP1 PUSH1 0x0 MSTORE PUSH1 0x20 PUSH1 0x0 KECCAK256 SWAP1 JUMPDEST DUP2 SLOAD DUP2 MSTORE PUSH1 0x20 ADD SWAP1 PUSH1 0x1 ADD SWAP1 DUP1 DUP4 GT PUSH2 0x4A7 JUMPI JUMPDEST POP POP POP POP POP SWAP1 POP PUSH2 0x5A7 JUMP JUMPDEST DUP7 PUSH1 0x1 EQ ISZERO PUSH2 0x538 JUMPI PUSH1 0x1 PUSH1 0x1 PUSH1 0xA0 SHL SUB DUP9 AND PUSH1 0x0 SWAP1 DUP2 MSTORE PUSH1 0x6E PUSH1 0x20 SWAP1 DUP2 MSTORE PUSH1 0x40 SWAP2 DUP3 SWAP1 KECCAK256 DUP1 SLOAD DUP4 MLOAD DUP2 DUP5 MUL DUP2 ADD DUP5 ADD SWAP1 SWAP5 MSTORE DUP1 DUP5 MSTORE SWAP1 SWAP2 DUP4 ADD DUP3 DUP3 DUP1 ISZERO PUSH2 0x4BB JUMPI PUSH1 0x20 MUL DUP3 ADD SWAP2 SWAP1 PUSH1 0x0 MSTORE PUSH1 0x20 PUSH1 0x0 KECCAK256 SWAP1 DUP2 SLOAD DUP2 MSTORE PUSH1 0x20 ADD SWAP1 PUSH1 0x1 ADD SWAP1 DUP1 DUP4 GT PUSH2 0x4A7 JUMPI POP POP POP POP POP SWAP1 POP PUSH2 0x5A7 JUMP JUMPDEST DUP7 PUSH1 0x2 EQ ISZERO PUSH2 0x5A7 JUMPI PUSH1 0x1 PUSH1 0x1 PUSH1 0xA0 SHL SUB DUP9 AND PUSH1 0x0 SWAP1 DUP2 MSTORE PUSH1 0x70 PUSH1 0x20 SWAP1 DUP2 MSTORE PUSH1 0x40 SWAP2 DUP3 SWAP1 KECCAK256 DUP1 SLOAD DUP4 MLOAD DUP2 DUP5 MUL DUP2 ADD DUP5 ADD SWAP1 SWAP5 MSTORE DUP1 DUP5 MSTORE SWAP1 SWAP2 DUP4 ADD DUP3 DUP3 DUP1 ISZERO PUSH2 0x59F JUMPI PUSH1 0x20 MUL DUP3 ADD SWAP2 SWAP1 PUSH1 0x0 MSTORE PUSH1 0x20 PUSH1 0x0 KECCAK256 SWAP1 JUMPDEST DUP2 SLOAD DUP2 MSTORE PUSH1 0x20 ADD SWAP1 PUSH1 0x1 ADD SWAP1 DUP1 DUP4 GT PUSH2 0x58B JUMPI JUMPDEST POP POP POP POP POP SWAP1 POP JUMPDEST PUSH1 0x0 PUSH2 0x5C8 PUSH2 0x5C0 DUP9 PUSH2 0x5BA DUP2 DUP11 PUSH2 0x1957 JUMP JUMPDEST SWAP1 PUSH2 0x1963 JUMP JUMPDEST DUP4 MLOAD SWAP1 PUSH2 0x1963 JUMP JUMPDEST SWAP1 POP DUP7 DUP2 LT PUSH2 0x5D9 JUMPI DUP7 SWAP3 POP PUSH2 0x5DD JUMP JUMPDEST DUP1 SWAP3 POP JUMPDEST DUP2 MLOAD PUSH2 0x5ED DUP9 PUSH2 0x5BA DUP2 DUP11 PUSH2 0x1957 JUMP JUMPDEST LT PUSH2 0x613 JUMPI PUSH1 0x40 MLOAD PUSH3 0x461BCD PUSH1 0xE5 SHL DUP2 MSTORE PUSH1 0x4 ADD PUSH2 0x60A SWAP1 PUSH2 0x2EA7 JUMP JUMPDEST PUSH1 0x40 MLOAD DUP1 SWAP2 SUB SWAP1 REVERT JUMPDEST DUP3 PUSH2 0x630 JUMPI PUSH1 0x40 MLOAD PUSH3 0x461BCD PUSH1 0xE5 SHL DUP2 MSTORE PUSH1 0x4 ADD PUSH2 0x60A SWAP1 PUSH2 0x2F5A JUMP JUMPDEST PUSH1 0x0 DUP4 PUSH8 0xFFFFFFFFFFFFFFFF DUP2 GT ISZERO PUSH2 0x659 JUMPI PUSH4 0x4E487B71 PUSH1 0xE0 SHL PUSH1 0x0 MSTORE PUSH1 0x41 PUSH1 0x4 MSTORE PUSH1 0x24 PUSH1 0x0 REVERT JUMPDEST PUSH1 0x40 MLOAD SWAP1 DUP1 DUP3 MSTORE DUP1 PUSH1 0x20 MUL PUSH1 0x20 ADD DUP3 ADD PUSH1 0x40 MSTORE DUP1 ISZERO PUSH2 0x682 JUMPI DUP2 PUSH1 0x20 ADD PUSH1 0x20 DUP3 MUL DUP1 CALLDATASIZE DUP4 CALLDATACOPY ADD SWAP1 POP JUMPDEST POP SWAP1 POP PUSH1 0x0 PUSH2 0x692 DUP4 PUSH1 0x1 PUSH2 0x1963 JUMP JUMPDEST SWAP1 POP JUMPDEST DUP5 DUP7 LT ISZERO PUSH2 0x71A JUMPI DUP4 DUP2 DUP2 MLOAD DUP2 LT PUSH2 0x6BD JUMPI PUSH4 0x4E487B71 PUSH1 0xE0 SHL PUSH1 0x0 MSTORE PUSH1 0x32 PUSH1 0x4 MSTORE PUSH1 0x24 PUSH1 0x0 REVERT JUMPDEST PUSH1 0x20 MUL PUSH1 0x20 ADD ADD MLOAD DUP3 DUP8 DUP2 MLOAD DUP2 LT PUSH2 0x6E5 JUMPI PUSH4 0x4E487B71 PUSH1 0xE0 SHL PUSH1 0x0 MSTORE PUSH1 0x32 PUSH1 0x4 MSTORE PUSH1 0x24 PUSH1 0x0 REVERT JUMPDEST PUSH1 0x20 SWAP1 DUP2 MUL SWAP2 SWAP1 SWAP2 ADD ADD MSTORE DUP1 PUSH2 0x6FA JUMPI PUSH2 0x71A JUMP JUMPDEST DUP6 PUSH2 0x704 DUP2 PUSH2 0x3166 JUMP JUMPDEST SWAP7 POP POP DUP1 DUP1 PUSH2 0x712 SWAP1 PUSH2 0x3114 JUMP JUMPDEST SWAP2 POP POP PUSH2 0x695 JUMP JUMPDEST POP SWAP10 SWAP9 POP POP POP POP POP POP POP POP POP JUMP JUMPDEST PUSH1 0x6C DUP2 DUP2 SLOAD DUP2 LT PUSH2 0x738 JUMPI PUSH1 0x0 DUP1 REVERT JUMPDEST PUSH1 0x0 SWAP2 DUP3 MSTORE PUSH1 0x20 SWAP1 SWAP2 KECCAK256 ADD SLOAD SWAP1 POP DUP2 JUMP JUMPDEST PUSH1 0x0 PUSH2 0x753 PUSH2 0x196F JUMP JUMPDEST PUSH1 0x1 PUSH1 0x1 PUSH1 0xA0 SHL SUB AND PUSH2 0x764 PUSH2 0xE0D JUMP JUMPDEST PUSH1 0x1 PUSH1 0x1 PUSH1 0xA0 SHL SUB AND EQ PUSH2 0x78A JUMPI PUSH1 0x40 MLOAD PUSH3 0x461BCD PUSH1 0xE5 SHL DUP2 MSTORE PUSH1 0x4 ADD PUSH2 0x60A SWAP1 PUSH2 0x2E3B JUMP JUMPDEST POP PUSH1 0x1 PUSH1 0x1 PUSH1 0xA0 SHL SUB DUP3 AND PUSH1 0x0 SWAP1 DUP2 MSTORE PUSH1 0x65 PUSH1 0x20 MSTORE PUSH1 0x40 SWAP1 KECCAK256 DUP1 SLOAD DUP3 ISZERO ISZERO PUSH1 0xFF NOT SWAP1 SWAP2 AND OR SWAP1 SSTORE PUSH1 0x1 SWAP3 SWAP2 POP POP JUMP JUMPDEST PUSH1 0x68 SLOAD PUSH1 0x1 PUSH1 0x1 PUSH1 0xA0 SHL SUB AND DUP2 JUMP JUMPDEST PUSH1 0x66 SLOAD PUSH1 0x1 PUSH1 0x1 PUSH1 0xA0 SHL SUB AND DUP2 JUMP JUMPDEST PUSH1 0x0 DUP4 DUP2 MSTORE PUSH1 0x6A PUSH1 0x20 MSTORE PUSH1 0x40 DUP2 KECCAK256 PUSH1 0x9 DUP2 ADD SLOAD PUSH1 0x73 SLOAD PUSH1 0x72 SLOAD DUP5 SWAP3 DUP4 SWAP3 DUP4 SWAP3 DUP10 SWAP2 PUSH2 0x822 SWAP2 PUSH8 0xDE0B6B3A7640000 SWAP2 PUSH2 0x81C SWAP2 DUP3 SWAP1 PUSH2 0x816 DUP9 DUP9 PUSH2 0x1957 JUMP JUMPDEST SWAP1 PUSH2 0x1957 JUMP JUMPDEST SWAP1 PUSH2 0x1973 JUMP JUMPDEST SWAP3 POP DUP6 PUSH1 0x4 ADD SLOAD PUSH1 0x1 EQ ISZERO PUSH2 0x8A7 JUMPI DUP6 PUSH1 0x5 ADD SLOAD DUP2 LT ISZERO PUSH2 0x88B JUMPI PUSH1 0x5 DUP7 ADD SLOAD PUSH2 0x84C SWAP1 DUP3 PUSH2 0x1963 JUMP JUMPDEST SWAP5 POP PUSH2 0x864 PUSH8 0xDE0B6B3A7640000 PUSH2 0x81C DUP8 DUP6 PUSH2 0x1957 JUMP JUMPDEST SWAP4 POP PUSH2 0x870 DUP4 DUP6 PUSH2 0x307A JUMP JUMPDEST DUP9 LT ISZERO PUSH2 0x886 JUMPI PUSH1 0x0 SWAP7 POP POP POP POP POP POP POP PUSH2 0x91F JUMP JUMPDEST PUSH2 0x8A2 JUMP JUMPDEST DUP3 DUP9 LT ISZERO PUSH2 0x8A2 JUMPI PUSH1 0x0 SWAP7 POP POP POP POP POP POP POP PUSH2 0x91F JUMP JUMPDEST PUSH2 0x914 JUMP JUMPDEST DUP6 PUSH1 0x5 ADD SLOAD DUP2 GT ISZERO PUSH2 0x8FD JUMPI PUSH1 0x5 DUP7 ADD SLOAD PUSH2 0x8C3 SWAP1 DUP3 SWAP1 PUSH2 0x1963 JUMP JUMPDEST SWAP5 POP PUSH2 0x8DB PUSH8 0xDE0B6B3A7640000 PUSH2 0x81C DUP8 DUP6 PUSH2 0x1957 JUMP JUMPDEST SWAP4 POP PUSH2 0x8E7 DUP4 DUP6 PUSH2 0x307A JUMP JUMPDEST DUP9 LT ISZERO PUSH2 0x8A2 JUMPI PUSH1 0x0 SWAP7 POP POP POP POP POP POP POP PUSH2 0x91F JUMP JUMPDEST DUP3 DUP9 LT ISZERO PUSH2 0x914 JUMPI PUSH1 0x0 SWAP7 POP POP POP POP POP POP POP PUSH2 0x91F JUMP JUMPDEST PUSH1 0x1 SWAP7 POP POP POP POP POP POP POP JUMPDEST SWAP4 SWAP3 POP POP POP JUMP JUMPDEST PUSH1 0x67 SLOAD PUSH1 0x1 PUSH1 0x1 PUSH1 0xA0 SHL SUB AND DUP2 JUMP JUMPDEST PUSH1 0x6C SLOAD SWAP1 JUMP JUMPDEST PUSH1 0x6D PUSH1 0x20 MSTORE PUSH1 0x0 SWAP1 DUP2 MSTORE PUSH1 0x40 SWAP1 KECCAK256 SLOAD DUP2 JUMP JUMPDEST PUSH1 0x65 PUSH1 0x20 MSTORE PUSH1 0x0 SWAP1 DUP2 MSTORE PUSH1 0x40 SWAP1 KECCAK256 SLOAD PUSH1 0xFF AND DUP2 JUMP JUMPDEST CALLER PUSH1 0x0 SWAP1 DUP2 MSTORE PUSH1 0x65 PUSH1 0x20 MSTORE PUSH1 0x40 DUP2 KECCAK256 SLOAD PUSH1 0xFF AND PUSH2 0x991 JUMPI PUSH1 0x40 MLOAD PUSH3 0x461BCD PUSH1 0xE5 SHL DUP2 MSTORE PUSH1 0x4 ADD PUSH2 0x60A SWAP1 PUSH2 0x2CCE JUMP JUMPDEST PUSH1 0x0 DUP1 JUMPDEST DUP8 MLOAD DUP2 LT ISZERO PUSH2 0xB33 JUMPI PUSH1 0x0 PUSH1 0x6A PUSH1 0x0 DUP11 DUP5 DUP2 MLOAD DUP2 LT PUSH2 0x9C4 JUMPI PUSH4 0x4E487B71 PUSH1 0xE0 SHL PUSH1 0x0 MSTORE PUSH1 0x32 PUSH1 0x4 MSTORE PUSH1 0x24 PUSH1 0x0 REVERT JUMPDEST PUSH1 0x20 MUL PUSH1 0x20 ADD ADD MLOAD DUP2 MSTORE PUSH1 0x20 ADD SWAP1 DUP2 MSTORE PUSH1 0x20 ADD PUSH1 0x0 KECCAK256 SWAP1 POP PUSH2 0xA39 DUP10 DUP4 DUP2 MLOAD DUP2 LT PUSH2 0x9FF JUMPI PUSH4 0x4E487B71 PUSH1 0xE0 SHL PUSH1 0x0 MSTORE PUSH1 0x32 PUSH1 0x4 MSTORE PUSH1 0x24 PUSH1 0x0 REVERT JUMPDEST PUSH1 0x20 MUL PUSH1 0x20 ADD ADD MLOAD DUP8 DUP5 DUP2 MLOAD DUP2 LT PUSH2 0xA27 JUMPI PUSH4 0x4E487B71 PUSH1 0xE0 SHL PUSH1 0x0 MSTORE PUSH1 0x32 PUSH1 0x4 MSTORE PUSH1 0x24 PUSH1 0x0 REVERT JUMPDEST PUSH1 0x20 MUL PUSH1 0x20 ADD ADD MLOAD DUP4 PUSH1 0xA ADD SLOAD PUSH2 0x7D7 JUMP JUMPDEST PUSH2 0xB20 JUMPI DUP3 PUSH2 0xA47 DUP2 PUSH2 0x3166 JUMP JUMPDEST SWAP4 POP POP PUSH2 0xB1E DUP11 DUP3 PUSH1 0x3 DUP13 DUP7 DUP2 MLOAD DUP2 LT PUSH2 0xA71 JUMPI PUSH4 0x4E487B71 PUSH1 0xE0 SHL PUSH1 0x0 MSTORE PUSH1 0x32 PUSH1 0x4 MSTORE PUSH1 0x24 PUSH1 0x0 REVERT JUMPDEST PUSH1 0x20 MUL PUSH1 0x20 ADD ADD MLOAD DUP13 DUP8 DUP2 MLOAD DUP2 LT PUSH2 0xA99 JUMPI PUSH4 0x4E487B71 PUSH1 0xE0 SHL PUSH1 0x0 MSTORE PUSH1 0x32 PUSH1 0x4 MSTORE PUSH1 0x24 PUSH1 0x0 REVERT JUMPDEST PUSH1 0x20 MUL PUSH1 0x20 ADD ADD MLOAD DUP13 DUP9 DUP2 MLOAD DUP2 LT PUSH2 0xAC1 JUMPI PUSH4 0x4E487B71 PUSH1 0xE0 SHL PUSH1 0x0 MSTORE PUSH1 0x32 PUSH1 0x4 MSTORE PUSH1 0x24 PUSH1 0x0 REVERT JUMPDEST PUSH1 0x20 MUL PUSH1 0x20 ADD ADD MLOAD DUP13 DUP10 DUP2 MLOAD DUP2 LT PUSH2 0xAE9 JUMPI PUSH4 0x4E487B71 PUSH1 0xE0 SHL PUSH1 0x0 MSTORE PUSH1 0x32 PUSH1 0x4 MSTORE PUSH1 0x24 PUSH1 0x0 REVERT JUMPDEST PUSH1 0x20 MUL PUSH1 0x20 ADD ADD MLOAD DUP13 DUP11 DUP2 MLOAD DUP2 LT PUSH2 0xB11 JUMPI PUSH4 0x4E487B71 PUSH1 0xE0 SHL PUSH1 0x0 MSTORE PUSH1 0x32 PUSH1 0x4 MSTORE PUSH1 0x24 PUSH1 0x0 REVERT JUMPDEST PUSH1 0x20 MUL PUSH1 0x20 ADD ADD MLOAD PUSH2 0x197F JUMP JUMPDEST POP JUMPDEST POP DUP1 PUSH2 0xB2B DUP2 PUSH2 0x3166 JUMP JUMPDEST SWAP2 POP POP PUSH2 0x995 JUMP JUMPDEST POP DUP1 PUSH2 0xB51 JUMPI PUSH1 0x40 MLOAD PUSH3 0x461BCD PUSH1 0xE5 SHL DUP2 MSTORE PUSH1 0x4 ADD PUSH2 0x60A SWAP1 PUSH2 0x2D12 JUMP JUMPDEST POP PUSH1 0x1 SWAP8 SWAP7 POP POP POP POP POP POP POP JUMP JUMPDEST PUSH2 0xB67 PUSH2 0x235F JUMP JUMPDEST PUSH1 0x0 DUP3 DUP2 MSTORE PUSH1 0x6A PUSH1 0x20 SWAP1 DUP2 MSTORE PUSH1 0x40 SWAP2 DUP3 SWAP1 KECCAK256 DUP3 MLOAD PUSH2 0x160 DUP2 ADD DUP5 MSTORE DUP2 SLOAD PUSH1 0x1 PUSH1 0x1 PUSH1 0xA0 SHL SUB AND DUP2 MSTORE PUSH1 0x1 DUP3 ADD SLOAD SWAP3 DUP2 ADD SWAP3 SWAP1 SWAP3 MSTORE PUSH1 0x2 DUP2 ADD DUP1 SLOAD SWAP3 SWAP4 SWAP2 SWAP3 SWAP2 DUP5 ADD SWAP2 PUSH2 0xBB2 SWAP1 PUSH2 0x312B JUMP JUMPDEST DUP1 PUSH1 0x1F ADD PUSH1 0x20 DUP1 SWAP2 DIV MUL PUSH1 0x20 ADD PUSH1 0x40 MLOAD SWAP1 DUP2 ADD PUSH1 0x40 MSTORE DUP1 SWAP3 SWAP2 SWAP1 DUP2 DUP2 MSTORE PUSH1 0x20 ADD DUP3 DUP1 SLOAD PUSH2 0xBDE SWAP1 PUSH2 0x312B JUMP JUMPDEST DUP1 ISZERO PUSH2 0xC2B JUMPI DUP1 PUSH1 0x1F LT PUSH2 0xC00 JUMPI PUSH2 0x100 DUP1 DUP4 SLOAD DIV MUL DUP4 MSTORE SWAP2 PUSH1 0x20 ADD SWAP2 PUSH2 0xC2B JUMP JUMPDEST DUP3 ADD SWAP2 SWAP1 PUSH1 0x0 MSTORE PUSH1 0x20 PUSH1 0x0 KECCAK256 SWAP1 JUMPDEST DUP2 SLOAD DUP2 MSTORE SWAP1 PUSH1 0x1 ADD SWAP1 PUSH1 0x20 ADD DUP1 DUP4 GT PUSH2 0xC0E JUMPI DUP3 SWAP1 SUB PUSH1 0x1F AND DUP3 ADD SWAP2 JUMPDEST POP POP POP POP POP DUP2 MSTORE PUSH1 0x20 ADD PUSH1 0x3 DUP3 ADD SLOAD DUP2 MSTORE PUSH1 0x20 ADD PUSH1 0x4 DUP3 ADD SLOAD DUP2 MSTORE PUSH1 0x20 ADD PUSH1 0x5 DUP3 ADD SLOAD DUP2 MSTORE PUSH1 0x20 ADD PUSH1 0x6 DUP3 ADD SLOAD DUP2 MSTORE PUSH1 0x20 ADD PUSH1 0x7 DUP3 ADD SLOAD DUP2 MSTORE PUSH1 0x20 ADD PUSH1 0x8 DUP3 ADD SLOAD DUP2 MSTORE PUSH1 0x20 ADD PUSH1 0x9 DUP3 ADD SLOAD DUP2 MSTORE PUSH1 0x20 ADD PUSH1 0xA DUP3 ADD SLOAD DUP2 MSTORE POP POP SWAP1 POP JUMPDEST SWAP2 SWAP1 POP JUMP JUMPDEST PUSH1 0x0 PUSH2 0xC96 PUSH2 0x196F JUMP JUMPDEST PUSH1 0x1 PUSH1 0x1 PUSH1 0xA0 SHL SUB AND PUSH2 0xCA7 PUSH2 0xE0D JUMP JUMPDEST PUSH1 0x1 PUSH1 0x1 PUSH1 0xA0 SHL SUB AND EQ PUSH2 0xCCD JUMPI PUSH1 0x40 MLOAD PUSH3 0x461BCD PUSH1 0xE5 SHL DUP2 MSTORE PUSH1 0x4 ADD PUSH2 0x60A SWAP1 PUSH2 0x2E3B JUMP JUMPDEST POP PUSH1 0x66 DUP1 SLOAD PUSH1 0x1 PUSH1 0x1 PUSH1 0xA0 SHL SUB DUP4 AND PUSH1 0x1 PUSH1 0x1 PUSH1 0xA0 SHL SUB NOT SWAP1 SWAP2 AND OR SWAP1 SSTORE PUSH1 0x1 SWAP2 SWAP1 POP JUMP JUMPDEST PUSH1 0x0 DUP6 DUP2 MSTORE PUSH1 0x6A PUSH1 0x20 MSTORE PUSH1 0x40 DUP2 KECCAK256 DUP1 SLOAD PUSH1 0x1 PUSH1 0x1 PUSH1 0xA0 SHL SUB AND CALLER EQ PUSH2 0xD29 JUMPI PUSH1 0x40 MLOAD PUSH3 0x461BCD PUSH1 0xE5 SHL DUP2 MSTORE PUSH1 0x4 ADD PUSH2 0x60A SWAP1 PUSH2 0x2ECB JUMP JUMPDEST PUSH2 0xD3A DUP9 DUP3 PUSH1 0x2 DUP11 DUP11 DUP11 DUP11 DUP11 PUSH2 0x197F JUMP JUMPDEST SWAP9 SWAP8 POP POP POP POP POP POP POP POP JUMP JUMPDEST PUSH2 0xD4E PUSH2 0x196F JUMP JUMPDEST PUSH1 0x1 PUSH1 0x1 PUSH1 0xA0 SHL SUB AND PUSH2 0xD5F PUSH2 0xE0D JUMP JUMPDEST PUSH1 0x1 PUSH1 0x1 PUSH1 0xA0 SHL SUB AND EQ PUSH2 0xD85 JUMPI PUSH1 0x40 MLOAD PUSH3 0x461BCD PUSH1 0xE5 SHL DUP2 MSTORE PUSH1 0x4 ADD PUSH2 0x60A SWAP1 PUSH2 0x2E3B JUMP JUMPDEST PUSH2 0xD8F PUSH1 0x0 PUSH2 0x1BF2 JUMP JUMPDEST JUMP JUMPDEST PUSH1 0x6F PUSH1 0x20 SWAP1 DUP2 MSTORE PUSH1 0x0 SWAP3 DUP4 MSTORE PUSH1 0x40 DUP1 DUP5 KECCAK256 SWAP1 SWAP2 MSTORE SWAP1 DUP3 MSTORE SWAP1 KECCAK256 SLOAD DUP2 JUMP JUMPDEST PUSH1 0x0 PUSH2 0xDB8 PUSH2 0x196F JUMP JUMPDEST PUSH1 0x1 PUSH1 0x1 PUSH1 0xA0 SHL SUB AND PUSH2 0xDC9 PUSH2 0xE0D JUMP JUMPDEST PUSH1 0x1 PUSH1 0x1 PUSH1 0xA0 SHL SUB AND EQ PUSH2 0xDEF JUMPI PUSH1 0x40 MLOAD PUSH3 0x461BCD PUSH1 0xE5 SHL DUP2 MSTORE PUSH1 0x4 ADD PUSH2 0x60A SWAP1 PUSH2 0x2E3B JUMP JUMPDEST POP PUSH1 0x72 SSTORE PUSH1 0x1 SWAP1 JUMP JUMPDEST PUSH1 0x69 SLOAD PUSH1 0x1 PUSH1 0x1 PUSH1 0xA0 SHL SUB AND DUP2 JUMP JUMPDEST PUSH1 0x72 SLOAD DUP2 JUMP JUMPDEST PUSH1 0x33 SLOAD PUSH1 0x1 PUSH1 0x1 PUSH1 0xA0 SHL SUB AND SWAP1 JUMP JUMPDEST CALLER PUSH1 0x0 SWAP1 DUP2 MSTORE PUSH1 0x65 PUSH1 0x20 MSTORE PUSH1 0x40 DUP2 KECCAK256 SLOAD PUSH1 0xFF AND PUSH2 0xE4B JUMPI PUSH1 0x40 MLOAD PUSH3 0x461BCD PUSH1 0xE5 SHL DUP2 MSTORE PUSH1 0x4 ADD PUSH2 0x60A SWAP1 PUSH2 0x2CCE JUMP JUMPDEST PUSH1 0x0 DUP7 DUP2 MSTORE PUSH1 0x6A PUSH1 0x20 MSTORE PUSH1 0x40 SWAP1 KECCAK256 PUSH2 0xD3A DUP9 DUP3 PUSH1 0x4 DUP11 DUP11 DUP11 DUP11 DUP11 PUSH2 0x197F JUMP JUMPDEST PUSH1 0x0 DUP7 DUP2 MSTORE PUSH1 0x6A PUSH1 0x20 MSTORE PUSH1 0x40 DUP2 KECCAK256 DUP1 SLOAD PUSH1 0x1 PUSH1 0x1 PUSH1 0xA0 SHL SUB AND PUSH2 0xE9F JUMPI PUSH1 0x40 MLOAD PUSH3 0x461BCD PUSH1 0xE5 SHL DUP2 MSTORE PUSH1 0x4 ADD PUSH2 0x60A SWAP1 PUSH2 0x2C0E JUMP JUMPDEST PUSH1 0x2 DUP2 PUSH1 0x3 ADD SLOAD LT PUSH2 0xEC3 JUMPI PUSH1 0x40 MLOAD PUSH3 0x461BCD PUSH1 0xE5 SHL DUP2 MSTORE PUSH1 0x4 ADD PUSH2 0x60A SWAP1 PUSH2 0x2EED JUMP JUMPDEST PUSH1 0x69 SLOAD PUSH1 0x40 MLOAD PUSH4 0x11CDC9D9 PUSH1 0xE1 SHL DUP2 MSTORE PUSH1 0x1 PUSH1 0x1 PUSH1 0xA0 SHL SUB SWAP1 SWAP2 AND SWAP1 PUSH4 0x239B93B2 SWAP1 PUSH2 0xEFB SWAP1 DUP13 SWAP1 DUP10 SWAP1 DUP13 SWAP1 DUP13 SWAP1 DUP12 SWAP1 PUSH1 0x4 ADD PUSH2 0x2BC2 JUMP JUMPDEST PUSH1 0x20 PUSH1 0x40 MLOAD DUP1 DUP4 SUB DUP2 DUP7 DUP1 EXTCODESIZE ISZERO DUP1 ISZERO PUSH2 0xF13 JUMPI PUSH1 0x0 DUP1 REVERT JUMPDEST POP GAS STATICCALL ISZERO DUP1 ISZERO PUSH2 0xF27 JUMPI RETURNDATASIZE PUSH1 0x0 DUP1 RETURNDATACOPY RETURNDATASIZE PUSH1 0x0 REVERT JUMPDEST POP POP POP POP PUSH1 0x40 MLOAD RETURNDATASIZE PUSH1 0x1F NOT PUSH1 0x1F DUP3 ADD AND DUP3 ADD DUP1 PUSH1 0x40 MSTORE POP DUP2 ADD SWAP1 PUSH2 0xF4B SWAP2 SWAP1 PUSH2 0x2706 JUMP JUMPDEST PUSH2 0xF67 JUMPI PUSH1 0x40 MLOAD PUSH3 0x461BCD PUSH1 0xE5 SHL DUP2 MSTORE PUSH1 0x4 ADD PUSH2 0x60A SWAP1 PUSH2 0x2CAA JUMP JUMPDEST PUSH2 0xF72 DUP9 DUP7 DUP6 PUSH2 0x7D7 JUMP JUMPDEST PUSH2 0xF8E JUMPI PUSH1 0x40 MLOAD PUSH3 0x461BCD PUSH1 0xE5 SHL DUP2 MSTORE PUSH1 0x4 ADD PUSH2 0x60A SWAP1 PUSH2 0x2E11 JUMP JUMPDEST PUSH1 0x9 DUP2 ADD SLOAD PUSH1 0xA DUP3 ADD SLOAD PUSH1 0x73 SLOAD PUSH1 0x72 SLOAD PUSH1 0x0 SWAP2 PUSH2 0xFBF SWAP2 PUSH8 0xDE0B6B3A7640000 SWAP2 PUSH2 0x81C SWAP2 DUP3 SWAP1 PUSH2 0x816 DUP10 DUP16 PUSH2 0x1957 JUMP JUMPDEST SWAP1 POP PUSH1 0x0 DUP3 DUP8 GT ISZERO PUSH2 0x1057 JUMPI PUSH2 0xFD5 DUP8 DUP5 PUSH2 0x1963 JUMP JUMPDEST PUSH1 0x67 SLOAD SWAP1 SWAP2 POP PUSH2 0xFF0 SWAP1 PUSH1 0x1 PUSH1 0x1 PUSH1 0xA0 SHL SUB AND CALLER ADDRESS DUP5 PUSH2 0x1C44 JUMP JUMPDEST PUSH1 0x67 SLOAD PUSH1 0x40 MLOAD PUSH4 0x852CD8D PUSH1 0xE3 SHL DUP2 MSTORE PUSH1 0x1 PUSH1 0x1 PUSH1 0xA0 SHL SUB SWAP1 SWAP2 AND SWAP1 PUSH4 0x42966C68 SWAP1 PUSH2 0x1020 SWAP1 DUP5 SWAP1 PUSH1 0x4 ADD PUSH2 0x3023 JUMP JUMPDEST PUSH1 0x0 PUSH1 0x40 MLOAD DUP1 DUP4 SUB DUP2 PUSH1 0x0 DUP8 DUP1 EXTCODESIZE ISZERO DUP1 ISZERO PUSH2 0x103A JUMPI PUSH1 0x0 DUP1 REVERT JUMPDEST POP GAS CALL ISZERO DUP1 ISZERO PUSH2 0x104E JUMPI RETURNDATASIZE PUSH1 0x0 DUP1 RETURNDATACOPY RETURNDATASIZE PUSH1 0x0 REVERT JUMPDEST POP POP POP POP PUSH2 0x10EC JUMP JUMPDEST PUSH2 0x1061 DUP4 DUP9 PUSH2 0x1963 JUMP JUMPDEST PUSH1 0x67 SLOAD DUP7 SLOAD PUSH1 0x40 MLOAD PUSH4 0x40C10F19 PUSH1 0xE0 SHL DUP2 MSTORE SWAP3 SWAP4 POP PUSH1 0x1 PUSH1 0x1 PUSH1 0xA0 SHL SUB SWAP2 DUP3 AND SWAP3 PUSH4 0x40C10F19 SWAP3 PUSH2 0x1098 SWAP3 AND SWAP1 DUP6 SWAP1 PUSH1 0x4 ADD PUSH2 0x2B5A JUMP JUMPDEST PUSH1 0x20 PUSH1 0x40 MLOAD DUP1 DUP4 SUB DUP2 PUSH1 0x0 DUP8 DUP1 EXTCODESIZE ISZERO DUP1 ISZERO PUSH2 0x10B2 JUMPI PUSH1 0x0 DUP1 REVERT JUMPDEST POP GAS CALL ISZERO DUP1 ISZERO PUSH2 0x10C6 JUMPI RETURNDATASIZE PUSH1 0x0 DUP1 RETURNDATACOPY RETURNDATASIZE PUSH1 0x0 REVERT JUMPDEST POP POP POP POP PUSH1 0x40 MLOAD RETURNDATASIZE PUSH1 0x1F NOT PUSH1 0x1F DUP3 ADD AND DUP3 ADD DUP1 PUSH1 0x40 MSTORE POP DUP2 ADD SWAP1 PUSH2 0x10EA SWAP2 SWAP1 PUSH2 0x2706 JUMP JUMPDEST POP JUMPDEST PUSH1 0x67 SLOAD PUSH2 0x1104 SWAP1 PUSH1 0x1 PUSH1 0x1 PUSH1 0xA0 SHL SUB AND CALLER ADDRESS DUP6 PUSH2 0x1C44 JUMP JUMPDEST PUSH1 0x68 SLOAD PUSH1 0x67 SLOAD PUSH2 0x1121 SWAP2 PUSH1 0x1 PUSH1 0x1 PUSH1 0xA0 SHL SUB SWAP2 DUP3 AND SWAP2 AND DUP5 PUSH2 0x1CA2 JUMP JUMPDEST PUSH1 0x68 PUSH1 0x0 SWAP1 SLOAD SWAP1 PUSH2 0x100 EXP SWAP1 DIV PUSH1 0x1 PUSH1 0x1 PUSH1 0xA0 SHL SUB AND PUSH1 0x1 PUSH1 0x1 PUSH1 0xA0 SHL SUB AND PUSH4 0xD10C06A2 PUSH1 0x40 MLOAD DUP2 PUSH4 0xFFFFFFFF AND PUSH1 0xE0 SHL DUP2 MSTORE PUSH1 0x4 ADD PUSH1 0x20 PUSH1 0x40 MLOAD DUP1 DUP4 SUB DUP2 PUSH1 0x0 DUP8 DUP1 EXTCODESIZE ISZERO DUP1 ISZERO PUSH2 0x1171 JUMPI PUSH1 0x0 DUP1 REVERT JUMPDEST POP GAS CALL ISZERO DUP1 ISZERO PUSH2 0x1185 JUMPI RETURNDATASIZE PUSH1 0x0 DUP1 RETURNDATACOPY RETURNDATASIZE PUSH1 0x0 REVERT JUMPDEST POP POP POP POP PUSH1 0x40 MLOAD RETURNDATASIZE PUSH1 0x1F NOT PUSH1 0x1F DUP3 ADD AND DUP3 ADD DUP1 PUSH1 0x40 MSTORE POP DUP2 ADD SWAP1 PUSH2 0x11A9 SWAP2 SWAP1 PUSH2 0x2706 JUMP JUMPDEST POP POP POP POP POP PUSH1 0xA ADD SWAP2 SWAP1 SWAP2 SSTORE POP PUSH1 0x1 SWAP7 SWAP6 POP POP POP POP POP POP JUMP JUMPDEST PUSH1 0x73 SLOAD DUP2 JUMP JUMPDEST PUSH1 0x1 PUSH1 0x1 PUSH1 0xA0 SHL SUB AND PUSH1 0x0 SWAP1 DUP2 MSTORE PUSH1 0x70 PUSH1 0x20 MSTORE PUSH1 0x40 SWAP1 KECCAK256 SLOAD SWAP1 JUMP JUMPDEST PUSH1 0x6E PUSH1 0x20 MSTORE DUP2 PUSH1 0x0 MSTORE PUSH1 0x40 PUSH1 0x0 KECCAK256 DUP2 DUP2 SLOAD DUP2 LT PUSH2 0x11FF JUMPI PUSH1 0x0 DUP1 REVERT JUMPDEST SWAP1 PUSH1 0x0 MSTORE PUSH1 0x20 PUSH1 0x0 KECCAK256 ADD PUSH1 0x0 SWAP2 POP SWAP2 POP POP SLOAD DUP2 JUMP JUMPDEST PUSH1 0x6B SLOAD PUSH1 0x0 SWAP1 DUP2 MSTORE PUSH1 0x6A PUSH1 0x20 MSTORE PUSH1 0x40 DUP2 KECCAK256 DUP10 PUSH2 0x1242 JUMPI PUSH1 0x40 MLOAD PUSH3 0x461BCD PUSH1 0xE5 SHL DUP2 MSTORE PUSH1 0x4 ADD PUSH2 0x60A SWAP1 PUSH2 0x2C3C JUMP JUMPDEST PUSH1 0x3 DUP2 ADD SLOAD ISZERO PUSH2 0x1264 JUMPI PUSH1 0x40 MLOAD PUSH3 0x461BCD PUSH1 0xE5 SHL DUP2 MSTORE PUSH1 0x4 ADD PUSH2 0x60A SWAP1 PUSH2 0x2EED JUMP JUMPDEST PUSH1 0x69 SLOAD PUSH1 0x40 MLOAD PUSH4 0x11CDC9D9 PUSH1 0xE1 SHL DUP2 MSTORE PUSH1 0x1 PUSH1 0x1 PUSH1 0xA0 SHL SUB SWAP1 SWAP2 AND SWAP1 PUSH4 0x239B93B2 SWAP1 PUSH2 0x129C SWAP1 DUP15 SWAP1 DUP10 SWAP1 DUP15 SWAP1 DUP13 SWAP1 DUP11 SWAP1 PUSH1 0x4 ADD PUSH2 0x2BC2 JUMP JUMPDEST PUSH1 0x20 PUSH1 0x40 MLOAD DUP1 DUP4 SUB DUP2 DUP7 DUP1 EXTCODESIZE ISZERO DUP1 ISZERO PUSH2 0x12B4 JUMPI PUSH1 0x0 DUP1 REVERT JUMPDEST POP GAS STATICCALL ISZERO DUP1 ISZERO PUSH2 0x12C8 JUMPI RETURNDATASIZE PUSH1 0x0 DUP1 RETURNDATACOPY RETURNDATASIZE PUSH1 0x0 REVERT JUMPDEST POP POP POP POP PUSH1 0x40 MLOAD RETURNDATASIZE PUSH1 0x1F NOT PUSH1 0x1F DUP3 ADD AND DUP3 ADD DUP1 PUSH1 0x40 MSTORE POP DUP2 ADD SWAP1 PUSH2 0x12EC SWAP2 SWAP1 PUSH2 0x2706 JUMP JUMPDEST PUSH2 0x1308 JUMPI PUSH1 0x40 MLOAD PUSH3 0x461BCD PUSH1 0xE5 SHL DUP2 MSTORE PUSH1 0x4 ADD PUSH2 0x60A SWAP1 PUSH2 0x2CAA JUMP JUMPDEST PUSH1 0x74 SLOAD DUP11 GT PUSH2 0x1329 JUMPI PUSH1 0x40 MLOAD PUSH3 0x461BCD PUSH1 0xE5 SHL DUP2 MSTORE PUSH1 0x4 ADD PUSH2 0x60A SWAP1 PUSH2 0x2DCE JUMP JUMPDEST PUSH1 0x0 PUSH2 0x1356 PUSH8 0xDE0B6B3A7640000 PUSH2 0x81C PUSH1 0x73 SLOAD PUSH2 0x81C PUSH1 0x72 SLOAD PUSH2 0x816 DUP12 DUP14 PUSH2 0x1957 SWAP1 SWAP2 SWAP1 PUSH4 0xFFFFFFFF AND JUMP JUMPDEST SWAP1 POP PUSH2 0x137B CALLER ADDRESS PUSH2 0x1367 DUP15 DUP6 PUSH2 0x1CC6 JUMP JUMPDEST PUSH1 0x67 SLOAD PUSH1 0x1 PUSH1 0x1 PUSH1 0xA0 SHL SUB AND SWAP3 SWAP2 SWAP1 PUSH2 0x1C44 JUMP JUMPDEST PUSH1 0x67 SLOAD PUSH1 0x40 MLOAD PUSH4 0x70A08231 PUSH1 0xE0 SHL DUP2 MSTORE PUSH1 0x0 SWAP2 PUSH1 0x1 PUSH1 0x1 PUSH1 0xA0 SHL SUB AND SWAP1 PUSH4 0x70A08231 SWAP1 PUSH2 0x13AC SWAP1 ADDRESS SWAP1 PUSH1 0x4 ADD PUSH2 0x2B22 JUMP JUMPDEST PUSH1 0x20 PUSH1 0x40 MLOAD DUP1 DUP4 SUB DUP2 DUP7 DUP1 EXTCODESIZE ISZERO DUP1 ISZERO PUSH2 0x13C4 JUMPI PUSH1 0x0 DUP1 REVERT JUMPDEST POP GAS STATICCALL ISZERO DUP1 ISZERO PUSH2 0x13D8 JUMPI RETURNDATASIZE PUSH1 0x0 DUP1 RETURNDATACOPY RETURNDATASIZE PUSH1 0x0 REVERT JUMPDEST POP POP POP POP PUSH1 0x40 MLOAD RETURNDATASIZE PUSH1 0x1F NOT PUSH1 0x1F DUP3 ADD AND DUP3 ADD DUP1 PUSH1 0x40 MSTORE POP DUP2 ADD SWAP1 PUSH2 0x13FC SWAP2 SWAP1 PUSH2 0x29DF JUMP JUMPDEST PUSH1 0x68 SLOAD PUSH1 0x67 SLOAD SWAP2 SWAP3 POP PUSH2 0x141C SWAP2 PUSH1 0x1 PUSH1 0x1 PUSH1 0xA0 SHL SUB SWAP1 DUP2 AND SWAP2 AND DUP5 PUSH2 0x1CA2 JUMP JUMPDEST PUSH1 0x68 PUSH1 0x0 SWAP1 SLOAD SWAP1 PUSH2 0x100 EXP SWAP1 DIV PUSH1 0x1 PUSH1 0x1 PUSH1 0xA0 SHL SUB AND PUSH1 0x1 PUSH1 0x1 PUSH1 0xA0 SHL SUB AND PUSH4 0xD10C06A2 PUSH1 0x40 MLOAD DUP2 PUSH4 0xFFFFFFFF AND PUSH1 0xE0 SHL DUP2 MSTORE PUSH1 0x4 ADD PUSH1 0x20 PUSH1 0x40 MLOAD DUP1 DUP4 SUB DUP2 PUSH1 0x0 DUP8 DUP1 EXTCODESIZE ISZERO DUP1 ISZERO PUSH2 0x146C JUMPI PUSH1 0x0 DUP1 REVERT JUMPDEST POP GAS CALL ISZERO DUP1 ISZERO PUSH2 0x1480 JUMPI RETURNDATASIZE PUSH1 0x0 DUP1 RETURNDATACOPY RETURNDATASIZE PUSH1 0x0 REVERT JUMPDEST POP POP POP POP PUSH1 0x40 MLOAD RETURNDATASIZE PUSH1 0x1F NOT PUSH1 0x1F DUP3 ADD AND DUP3 ADD DUP1 PUSH1 0x40 MSTORE POP DUP2 ADD SWAP1 PUSH2 0x14A4 SWAP2 SWAP1 PUSH2 0x2706 JUMP JUMPDEST POP PUSH1 0x67 SLOAD PUSH1 0x1 PUSH1 0x1 PUSH1 0xA0 SHL SUB AND PUSH4 0x42966C68 PUSH2 0x14C0 DUP4 DUP6 PUSH2 0x1963 JUMP JUMPDEST PUSH1 0x40 MLOAD DUP3 PUSH4 0xFFFFFFFF AND PUSH1 0xE0 SHL DUP2 MSTORE PUSH1 0x4 ADD PUSH2 0x14DC SWAP2 SWAP1 PUSH2 0x3023 JUMP JUMPDEST PUSH1 0x0 PUSH1 0x40 MLOAD DUP1 DUP4 SUB DUP2 PUSH1 0x0 DUP8 DUP1 EXTCODESIZE ISZERO DUP1 ISZERO PUSH2 0x14F6 JUMPI PUSH1 0x0 DUP1 REVERT JUMPDEST POP GAS CALL ISZERO DUP1 ISZERO PUSH2 0x150A JUMPI RETURNDATASIZE PUSH1 0x0 DUP1 RETURNDATACOPY RETURNDATASIZE PUSH1 0x0 REVERT JUMPDEST POP POP PUSH1 0x6B SLOAD PUSH1 0x6C DUP1 SLOAD PUSH1 0x1 DUP2 DUP2 ADD DUP4 SSTORE PUSH1 0x0 DUP4 SWAP1 MSTORE PUSH32 0x2B4A51AB505FC96A0952EFDA2BA61BCD3078D4C02C39A186EC16F21883FBE016 SWAP1 SWAP2 ADD SWAP3 SWAP1 SWAP3 SSTORE SLOAD PUSH2 0x1554 SWAP4 POP SWAP2 POP PUSH2 0x1963 JUMP JUMPDEST PUSH1 0x6B DUP1 SLOAD PUSH1 0x0 SWAP1 DUP2 MSTORE PUSH1 0x6D PUSH1 0x20 SWAP1 DUP2 MSTORE PUSH1 0x40 DUP1 DUP4 KECCAK256 SWAP5 SWAP1 SWAP5 SSTORE CALLER DUP1 DUP4 MSTORE PUSH1 0x6E DUP3 MSTORE SWAP4 DUP3 KECCAK256 SWAP3 SLOAD DUP4 SLOAD PUSH1 0x1 DUP2 DUP2 ADD DUP7 SSTORE DUP6 DUP6 MSTORE SWAP3 DUP5 KECCAK256 ADD SSTORE SWAP3 SWAP1 MSTORE SLOAD PUSH2 0x1598 SWAP2 PUSH2 0x1963 JUMP JUMPDEST CALLER PUSH1 0x0 SWAP1 DUP2 MSTORE PUSH1 0x6F PUSH1 0x20 SWAP1 DUP2 MSTORE PUSH1 0x40 DUP1 DUP4 KECCAK256 PUSH1 0x6B DUP1 SLOAD DUP6 MSTORE SWAP3 MSTORE DUP3 KECCAK256 SWAP3 SWAP1 SWAP3 SSTORE DUP2 SLOAD SWAP2 SWAP1 PUSH2 0x15C5 DUP4 PUSH2 0x3166 JUMP JUMPDEST SWAP1 SWAP2 SSTORE POP POP DUP3 SLOAD PUSH1 0x1 PUSH1 0x1 PUSH1 0xA0 SHL SUB NOT AND CALLER OR DUP4 SSTORE PUSH1 0x1 DUP4 ADD DUP10 SWAP1 SSTORE DUP8 MLOAD PUSH2 0x15F6 SWAP1 PUSH1 0x2 DUP6 ADD SWAP1 PUSH1 0x20 DUP12 ADD SWAP1 PUSH2 0x23C2 JUMP JUMPDEST POP PUSH1 0x1 PUSH1 0x3 DUP5 ADD SSTORE PUSH1 0x4 DUP4 ADD DUP11 SWAP1 SSTORE PUSH1 0x5 DUP4 ADD DUP8 SWAP1 SSTORE PUSH1 0x6 DUP4 ADD DUP12 SWAP1 SSTORE PUSH1 0x9 DUP4 ADD DUP7 SWAP1 SSTORE PUSH2 0x1624 DUP2 DUP4 PUSH2 0x1963 JUMP JUMPDEST PUSH1 0xA SWAP1 SWAP4 ADD SWAP3 SWAP1 SWAP3 SSTORE POP PUSH1 0x1 SWAP12 SWAP11 POP POP POP POP POP POP POP POP POP POP POP JUMP JUMPDEST PUSH1 0x1 PUSH1 0x1 PUSH1 0xA0 SHL SUB AND PUSH1 0x0 SWAP1 DUP2 MSTORE PUSH1 0x6E PUSH1 0x20 MSTORE PUSH1 0x40 SWAP1 KECCAK256 SLOAD SWAP1 JUMP JUMPDEST PUSH1 0x70 PUSH1 0x20 MSTORE DUP2 PUSH1 0x0 MSTORE PUSH1 0x40 PUSH1 0x0 KECCAK256 DUP2 DUP2 SLOAD DUP2 LT PUSH2 0x11FF JUMPI PUSH1 0x0 DUP1 REVERT JUMPDEST PUSH1 0x71 PUSH1 0x20 SWAP1 DUP2 MSTORE PUSH1 0x0 SWAP3 DUP4 MSTORE PUSH1 0x40 DUP1 DUP5 KECCAK256 SWAP1 SWAP2 MSTORE SWAP1 DUP3 MSTORE SWAP1 KECCAK256 SLOAD DUP2 JUMP JUMPDEST PUSH1 0x74 SLOAD DUP2 JUMP JUMPDEST PUSH2 0x16A1 PUSH2 0x196F JUMP JUMPDEST PUSH1 0x1 PUSH1 0x1 PUSH1 0xA0 SHL SUB AND PUSH2 0x16B2 PUSH2 0xE0D JUMP JUMPDEST PUSH1 0x1 PUSH1 0x1 PUSH1 0xA0 SHL SUB AND EQ PUSH2 0x16D8 JUMPI PUSH1 0x40 MLOAD PUSH3 0x461BCD PUSH1 0xE5 SHL DUP2 MSTORE PUSH1 0x4 ADD PUSH2 0x60A SWAP1 PUSH2 0x2E3B JUMP JUMPDEST PUSH1 0x1 PUSH1 0x1 PUSH1 0xA0 SHL SUB DUP2 AND PUSH2 0x16FE JUMPI PUSH1 0x40 MLOAD PUSH3 0x461BCD PUSH1 0xE5 SHL DUP2 MSTORE PUSH1 0x4 ADD PUSH2 0x60A SWAP1 PUSH2 0x2C64 JUMP JUMPDEST PUSH2 0x1707 DUP2 PUSH2 0x1BF2 JUMP JUMPDEST POP JUMP JUMPDEST PUSH1 0x6B SLOAD DUP2 JUMP JUMPDEST PUSH1 0x0 SLOAD PUSH2 0x100 SWAP1 DIV PUSH1 0xFF AND DUP1 PUSH2 0x1729 JUMPI POP PUSH1 0x0 SLOAD PUSH1 0xFF AND ISZERO JUMPDEST PUSH2 0x1745 JUMPI PUSH1 0x40 MLOAD PUSH3 0x461BCD PUSH1 0xE5 SHL DUP2 MSTORE PUSH1 0x4 ADD PUSH2 0x60A SWAP1 PUSH2 0x2D80 JUMP JUMPDEST PUSH1 0x0 SLOAD PUSH2 0x100 SWAP1 DIV PUSH1 0xFF AND ISZERO DUP1 ISZERO PUSH2 0x1770 JUMPI PUSH1 0x0 DUP1 SLOAD PUSH1 0xFF NOT PUSH2 0xFF00 NOT SWAP1 SWAP2 AND PUSH2 0x100 OR AND PUSH1 0x1 OR SWAP1 SSTORE JUMPDEST PUSH2 0x1778 PUSH2 0x1CD2 JUMP JUMPDEST PUSH1 0x66 DUP1 SLOAD PUSH1 0x1 PUSH1 0x1 PUSH1 0xA0 SHL SUB DUP1 DUP9 AND PUSH1 0x1 PUSH1 0x1 PUSH1 0xA0 SHL SUB NOT SWAP3 DUP4 AND OR SWAP1 SWAP3 SSTORE PUSH1 0x68 DUP1 SLOAD DUP8 DUP5 AND SWAP1 DUP4 AND OR SWAP1 SSTORE PUSH1 0x67 DUP1 SLOAD DUP7 DUP5 AND SWAP1 DUP4 AND OR SWAP1 SSTORE PUSH2 0x2710 PUSH1 0x73 SSTORE PUSH1 0x69 DUP1 SLOAD SWAP3 DUP6 AND SWAP3 SWAP1 SWAP2 AND SWAP2 SWAP1 SWAP2 OR SWAP1 SSTORE PUSH8 0xDE0B6B3A7640000 PUSH1 0x74 SSTORE PUSH1 0x32 PUSH1 0x72 SSTORE DUP1 ISZERO PUSH2 0x17EB JUMPI PUSH1 0x0 DUP1 SLOAD PUSH2 0xFF00 NOT AND SWAP1 SSTORE JUMPDEST POP POP POP POP POP JUMP JUMPDEST PUSH1 0x0 PUSH2 0x17FC PUSH2 0x196F JUMP JUMPDEST PUSH1 0x1 PUSH1 0x1 PUSH1 0xA0 SHL SUB AND PUSH2 0x180D PUSH2 0xE0D JUMP JUMPDEST PUSH1 0x1 PUSH1 0x1 PUSH1 0xA0 SHL SUB AND EQ PUSH2 0x1833 JUMPI PUSH1 0x40 MLOAD PUSH3 0x461BCD PUSH1 0xE5 SHL DUP2 MSTORE PUSH1 0x4 ADD PUSH2 0x60A SWAP1 PUSH2 0x2E3B JUMP JUMPDEST PUSH1 0x40 MLOAD DUP1 PUSH2 0x160 ADD PUSH1 0x40 MSTORE DUP1 DUP14 PUSH1 0x1 PUSH1 0x1 PUSH1 0xA0 SHL SUB AND DUP2 MSTORE PUSH1 0x20 ADD DUP13 DUP2 MSTORE PUSH1 0x20 ADD DUP12 DUP2 MSTORE PUSH1 0x20 ADD DUP11 DUP2 MSTORE PUSH1 0x20 ADD DUP10 DUP2 MSTORE PUSH1 0x20 ADD DUP9 DUP2 MSTORE PUSH1 0x20 ADD DUP8 DUP2 MSTORE PUSH1 0x20 ADD DUP7 DUP2 MSTORE PUSH1 0x20 ADD DUP6 DUP2 MSTORE PUSH1 0x20 ADD DUP5 DUP2 MSTORE PUSH1 0x20 ADD DUP4 DUP2 MSTORE POP PUSH1 0x6A PUSH1 0x0 DUP16 DUP2 MSTORE PUSH1 0x20 ADD SWAP1 DUP2 MSTORE PUSH1 0x20 ADD PUSH1 0x0 KECCAK256 PUSH1 0x0 DUP3 ADD MLOAD DUP2 PUSH1 0x0 ADD PUSH1 0x0 PUSH2 0x100 EXP DUP2 SLOAD DUP2 PUSH1 0x1 PUSH1 0x1 PUSH1 0xA0 SHL SUB MUL NOT AND SWAP1 DUP4 PUSH1 0x1 PUSH1 0x1 PUSH1 0xA0 SHL SUB AND MUL OR SWAP1 SSTORE POP PUSH1 0x20 DUP3 ADD MLOAD DUP2 PUSH1 0x1 ADD SSTORE PUSH1 0x40 DUP3 ADD MLOAD DUP2 PUSH1 0x2 ADD SWAP1 DUP1 MLOAD SWAP1 PUSH1 0x20 ADD SWAP1 PUSH2 0x18EE SWAP3 SWAP2 SWAP1 PUSH2 0x23C2 JUMP JUMPDEST POP PUSH1 0x60 DUP3 ADD MLOAD PUSH1 0x3 DUP3 ADD SSTORE PUSH1 0x80 DUP3 ADD MLOAD PUSH1 0x4 DUP3 ADD SSTORE PUSH1 0xA0 DUP3 ADD MLOAD PUSH1 0x5 DUP3 ADD SSTORE PUSH1 0xC0 DUP3 ADD MLOAD PUSH1 0x6 DUP3 ADD SSTORE PUSH1 0xE0 DUP3 ADD MLOAD PUSH1 0x7 DUP3 ADD SSTORE PUSH2 0x100 DUP3 ADD MLOAD PUSH1 0x8 DUP3 ADD SSTORE PUSH2 0x120 DUP3 ADD MLOAD PUSH1 0x9 DUP3 ADD SSTORE PUSH2 0x140 SWAP1 SWAP2 ADD MLOAD PUSH1 0xA SWAP1 SWAP2 ADD SSTORE POP PUSH1 0x1 SWAP13 SWAP12 POP POP POP POP POP POP POP POP POP POP POP POP JUMP JUMPDEST PUSH1 0x0 PUSH2 0x91F DUP3 DUP5 PUSH2 0x30B2 JUMP JUMPDEST PUSH1 0x0 PUSH2 0x91F DUP3 DUP5 PUSH2 0x30D1 JUMP JUMPDEST CALLER SWAP1 JUMP JUMPDEST PUSH1 0x0 PUSH2 0x91F DUP3 DUP5 PUSH2 0x3092 JUMP JUMPDEST DUP7 SLOAD PUSH1 0x0 SWAP1 PUSH1 0x1 PUSH1 0x1 PUSH1 0xA0 SHL SUB AND PUSH2 0x19A9 JUMPI PUSH1 0x40 MLOAD PUSH3 0x461BCD PUSH1 0xE5 SHL DUP2 MSTORE PUSH1 0x4 ADD PUSH2 0x60A SWAP1 PUSH2 0x2C0E JUMP JUMPDEST PUSH1 0x2 DUP9 PUSH1 0x3 ADD SLOAD LT PUSH2 0x19CD JUMPI PUSH1 0x40 MLOAD PUSH3 0x461BCD PUSH1 0xE5 SHL DUP2 MSTORE PUSH1 0x4 ADD PUSH2 0x60A SWAP1 PUSH2 0x2EED JUMP JUMPDEST PUSH1 0x69 SLOAD PUSH1 0x40 MLOAD PUSH4 0x11CDC9D9 PUSH1 0xE1 SHL DUP2 MSTORE PUSH1 0x1 PUSH1 0x1 PUSH1 0xA0 SHL SUB SWAP1 SWAP2 AND SWAP1 PUSH4 0x239B93B2 SWAP1 PUSH2 0x1A05 SWAP1 DUP13 SWAP1 DUP8 SWAP1 DUP11 SWAP1 DUP11 SWAP1 DUP10 SWAP1 PUSH1 0x4 ADD PUSH2 0x2BC2 JUMP JUMPDEST PUSH1 0x20 PUSH1 0x40 MLOAD DUP1 DUP4 SUB DUP2 DUP7 DUP1 EXTCODESIZE ISZERO DUP1 ISZERO PUSH2 0x1A1D JUMPI PUSH1 0x0 DUP1 REVERT JUMPDEST POP GAS STATICCALL ISZERO DUP1 ISZERO PUSH2 0x1A31 JUMPI RETURNDATASIZE PUSH1 0x0 DUP1 RETURNDATACOPY RETURNDATASIZE PUSH1 0x0 REVERT JUMPDEST POP POP POP POP PUSH1 0x40 MLOAD RETURNDATASIZE PUSH1 0x1F NOT PUSH1 0x1F DUP3 ADD AND DUP3 ADD DUP1 PUSH1 0x40 MSTORE POP DUP2 ADD SWAP1 PUSH2 0x1A55 SWAP2 SWAP1 PUSH2 0x2706 JUMP JUMPDEST PUSH2 0x1A71 JUMPI PUSH1 0x40 MLOAD PUSH3 0x461BCD PUSH1 0xE5 SHL DUP2 MSTORE PUSH1 0x4 ADD PUSH2 0x60A SWAP1 PUSH2 0x2CAA JUMP JUMPDEST DUP8 SLOAD PUSH1 0x4 DUP10 ADD SLOAD DUP8 SWAP2 PUSH1 0x1 PUSH1 0x1 PUSH1 0xA0 SHL SUB AND SWAP1 PUSH1 0x1 DUP2 EQ ISZERO PUSH2 0x1A9C JUMPI PUSH2 0x1A97 DUP12 DUP8 PUSH2 0x1D56 JUMP JUMPDEST PUSH2 0x1AA6 JUMP JUMPDEST PUSH2 0x1AA6 DUP12 DUP8 PUSH2 0x1F73 JUMP JUMPDEST PUSH1 0x68 PUSH1 0x0 SWAP1 SLOAD SWAP1 PUSH2 0x100 EXP SWAP1 DIV PUSH1 0x1 PUSH1 0x1 PUSH1 0xA0 SHL SUB AND PUSH1 0x1 PUSH1 0x1 PUSH1 0xA0 SHL SUB AND PUSH4 0xD10C06A2 PUSH1 0x40 MLOAD DUP2 PUSH4 0xFFFFFFFF AND PUSH1 0xE0 SHL DUP2 MSTORE PUSH1 0x4 ADD PUSH1 0x20 PUSH1 0x40 MLOAD DUP1 DUP4 SUB DUP2 PUSH1 0x0 DUP8 DUP1 EXTCODESIZE ISZERO DUP1 ISZERO PUSH2 0x1AF6 JUMPI PUSH1 0x0 DUP1 REVERT JUMPDEST POP GAS CALL ISZERO DUP1 ISZERO PUSH2 0x1B0A JUMPI RETURNDATASIZE PUSH1 0x0 DUP1 RETURNDATACOPY RETURNDATASIZE PUSH1 0x0 REVERT JUMPDEST POP POP POP POP PUSH1 0x40 MLOAD RETURNDATASIZE PUSH1 0x1F NOT PUSH1 0x1F DUP3 ADD AND DUP3 ADD DUP1 PUSH1 0x40 MSTORE POP DUP2 ADD SWAP1 PUSH2 0x1B2E SWAP2 SWAP1 PUSH2 0x2706 JUMP JUMPDEST POP PUSH1 0x3 DUP12 ADD DUP11 SWAP1 SSTORE PUSH1 0x7 DUP12 ADD DUP7 SWAP1 SSTORE PUSH1 0x8 DUP12 ADD DUP9 SWAP1 SSTORE PUSH2 0x1B51 DUP4 PUSH1 0x6D PUSH1 0x6C PUSH2 0x1FFA JUMP JUMPDEST PUSH1 0x1 PUSH1 0x1 PUSH1 0xA0 SHL SUB DUP3 AND PUSH1 0x0 SWAP1 DUP2 MSTORE PUSH1 0x6F PUSH1 0x20 SWAP1 DUP2 MSTORE PUSH1 0x40 DUP1 DUP4 KECCAK256 PUSH1 0x6E SWAP1 SWAP3 MSTORE SWAP1 SWAP2 KECCAK256 PUSH2 0x1B7F SWAP2 DUP6 SWAP2 PUSH2 0x1FFA JUMP JUMPDEST PUSH1 0x1 PUSH1 0x1 PUSH1 0xA0 SHL SUB DUP3 AND PUSH1 0x0 SWAP1 DUP2 MSTORE PUSH1 0x70 PUSH1 0x20 SWAP1 DUP2 MSTORE PUSH1 0x40 DUP3 KECCAK256 DUP1 SLOAD PUSH1 0x1 DUP2 DUP2 ADD DUP4 SSTORE SWAP2 DUP5 MSTORE SWAP2 SWAP1 SWAP3 KECCAK256 ADD DUP5 SWAP1 SSTORE PUSH2 0x1BBA SWAP1 PUSH2 0x5BA DUP5 PUSH2 0x11C8 JUMP JUMPDEST PUSH1 0x1 PUSH1 0x1 PUSH1 0xA0 SHL SUB SWAP1 SWAP3 AND PUSH1 0x0 SWAP1 DUP2 MSTORE PUSH1 0x71 PUSH1 0x20 SWAP1 DUP2 MSTORE PUSH1 0x40 DUP1 DUP4 KECCAK256 SWAP6 DUP4 MSTORE SWAP5 SWAP1 MSTORE SWAP3 SWAP1 SWAP3 KECCAK256 SSTORE POP PUSH1 0x1 SWAP1 POP SWAP9 SWAP8 POP POP POP POP POP POP POP POP JUMP JUMPDEST PUSH1 0x33 DUP1 SLOAD PUSH1 0x1 PUSH1 0x1 PUSH1 0xA0 SHL SUB DUP4 DUP2 AND PUSH1 0x1 PUSH1 0x1 PUSH1 0xA0 SHL SUB NOT DUP4 AND DUP2 OR SWAP1 SWAP4 SSTORE PUSH1 0x40 MLOAD SWAP2 AND SWAP2 SWAP1 DUP3 SWAP1 PUSH32 0x8BE0079C531659141344CD1FD0A4F28419497F9722A3DAAFE3B4186F6B6457E0 SWAP1 PUSH1 0x0 SWAP1 LOG3 POP POP JUMP JUMPDEST PUSH2 0x1C9C DUP5 PUSH4 0x23B872DD PUSH1 0xE0 SHL DUP6 DUP6 DUP6 PUSH1 0x40 MLOAD PUSH1 0x24 ADD PUSH2 0x1C65 SWAP4 SWAP3 SWAP2 SWAP1 PUSH2 0x2B36 JUMP JUMPDEST PUSH1 0x40 DUP1 MLOAD PUSH1 0x1F NOT DUP2 DUP5 SUB ADD DUP2 MSTORE SWAP2 SWAP1 MSTORE PUSH1 0x20 DUP2 ADD DUP1 MLOAD PUSH1 0x1 PUSH1 0x1 PUSH1 0xE0 SHL SUB AND PUSH1 0x1 PUSH1 0x1 PUSH1 0xE0 SHL SUB NOT SWAP1 SWAP4 AND SWAP3 SWAP1 SWAP3 OR SWAP1 SWAP2 MSTORE PUSH2 0x20D7 JUMP JUMPDEST POP POP POP POP JUMP JUMPDEST PUSH2 0x1CC1 DUP4 PUSH4 0xA9059CBB PUSH1 0xE0 SHL DUP5 DUP5 PUSH1 0x40 MLOAD PUSH1 0x24 ADD PUSH2 0x1C65 SWAP3 SWAP2 SWAP1 PUSH2 0x2B5A JUMP JUMPDEST POP POP POP JUMP JUMPDEST PUSH1 0x0 PUSH2 0x91F DUP3 DUP5 PUSH2 0x307A JUMP JUMPDEST PUSH1 0x0 SLOAD PUSH2 0x100 SWAP1 DIV PUSH1 0xFF AND DUP1 PUSH2 0x1CEB JUMPI POP PUSH1 0x0 SLOAD PUSH1 0xFF AND ISZERO JUMPDEST PUSH2 0x1D07 JUMPI PUSH1 0x40 MLOAD PUSH3 0x461BCD PUSH1 0xE5 SHL DUP2 MSTORE PUSH1 0x4 ADD PUSH2 0x60A SWAP1 PUSH2 0x2D80 JUMP JUMPDEST PUSH1 0x0 SLOAD PUSH2 0x100 SWAP1 DIV PUSH1 0xFF AND ISZERO DUP1 ISZERO PUSH2 0x1D32 JUMPI PUSH1 0x0 DUP1 SLOAD PUSH1 0xFF NOT PUSH2 0xFF00 NOT SWAP1 SWAP2 AND PUSH2 0x100 OR AND PUSH1 0x1 OR SWAP1 SSTORE JUMPDEST PUSH2 0x1D3A PUSH2 0x2166 JUMP JUMPDEST PUSH2 0x1D42 PUSH2 0x21D9 JUMP JUMPDEST DUP1 ISZERO PUSH2 0x1707 JUMPI PUSH1 0x0 DUP1 SLOAD PUSH2 0xFF00 NOT AND SWAP1 SSTORE POP JUMP JUMPDEST DUP2 SLOAD PUSH1 0x9 DUP4 ADD SLOAD PUSH1 0xA DUP5 ADD SLOAD PUSH1 0x5 DUP6 ADD SLOAD PUSH1 0x73 SLOAD PUSH1 0x72 SLOAD PUSH1 0x1 PUSH1 0x1 PUSH1 0xA0 SHL SUB SWAP1 SWAP6 AND SWAP5 PUSH1 0x0 SWAP5 DUP6 SWAP5 DUP6 SWAP5 SWAP2 SWAP4 DUP10 SWAP4 SWAP2 SWAP3 SWAP2 DUP7 SWAP2 PUSH2 0x1DA7 SWAP2 PUSH8 0xDE0B6B3A7640000 SWAP2 PUSH2 0x81C SWAP2 DUP3 SWAP1 PUSH2 0x816 DUP11 DUP13 PUSH2 0x1957 JUMP JUMPDEST SWAP1 POP DUP2 DUP5 GT ISZERO PUSH2 0x1E8B JUMPI PUSH2 0x1DBB DUP5 DUP4 PUSH2 0x1963 JUMP JUMPDEST SWAP8 POP PUSH2 0x1DD3 PUSH8 0xDE0B6B3A7640000 PUSH2 0x81C DUP11 DUP9 PUSH2 0x1957 JUMP JUMPDEST SWAP7 POP PUSH2 0x1DDF DUP4 DUP9 PUSH2 0x1CC6 JUMP JUMPDEST PUSH1 0x68 SLOAD PUSH1 0x67 SLOAD SWAP2 SWAP8 POP PUSH2 0x1E01 SWAP2 PUSH1 0x1 PUSH1 0x1 PUSH1 0xA0 SHL SUB SWAP1 DUP2 AND SWAP2 CALLER SWAP2 AND DUP5 PUSH2 0x1C44 JUMP JUMPDEST PUSH1 0x67 SLOAD PUSH1 0x40 MLOAD PUSH4 0x40C10F19 PUSH1 0xE0 SHL DUP2 MSTORE PUSH1 0x1 PUSH1 0x1 PUSH1 0xA0 SHL SUB SWAP1 SWAP2 AND SWAP1 PUSH4 0x40C10F19 SWAP1 PUSH2 0x1E33 SWAP1 DUP13 SWAP1 DUP11 SWAP1 PUSH1 0x4 ADD PUSH2 0x2B5A JUMP JUMPDEST PUSH1 0x20 PUSH1 0x40 MLOAD DUP1 DUP4 SUB DUP2 PUSH1 0x0 DUP8 DUP1 EXTCODESIZE ISZERO DUP1 ISZERO PUSH2 0x1E4D JUMPI PUSH1 0x0 DUP1 REVERT JUMPDEST POP GAS CALL ISZERO DUP1 ISZERO PUSH2 0x1E61 JUMPI RETURNDATASIZE PUSH1 0x0 DUP1 RETURNDATACOPY RETURNDATASIZE PUSH1 0x0 REVERT JUMPDEST POP POP POP POP PUSH1 0x40 MLOAD RETURNDATASIZE PUSH1 0x1F NOT PUSH1 0x1F DUP3 ADD AND DUP3 ADD DUP1 PUSH1 0x40 MSTORE POP DUP2 ADD SWAP1 PUSH2 0x1E85 SWAP2 SWAP1 PUSH2 0x2706 JUMP JUMPDEST POP PUSH2 0x1F66 JUMP JUMPDEST PUSH2 0x1E95 DUP3 DUP6 PUSH2 0x1963 JUMP JUMPDEST SWAP8 POP PUSH2 0x1EA1 DUP9 DUP7 PUSH2 0x1957 JUMP JUMPDEST SWAP7 POP DUP3 DUP8 GT ISZERO PUSH2 0x1EB4 JUMPI PUSH1 0x0 SWAP6 POP PUSH2 0x1F66 JUMP JUMPDEST PUSH2 0x1EBE DUP4 DUP9 PUSH2 0x1963 JUMP JUMPDEST PUSH1 0x68 SLOAD PUSH1 0x67 SLOAD SWAP2 SWAP8 POP PUSH2 0x1EE0 SWAP2 PUSH1 0x1 PUSH1 0x1 PUSH1 0xA0 SHL SUB SWAP1 DUP2 AND SWAP2 CALLER SWAP2 AND DUP5 PUSH2 0x1C44 JUMP JUMPDEST PUSH1 0x67 SLOAD PUSH1 0x40 MLOAD PUSH4 0x40C10F19 PUSH1 0xE0 SHL DUP2 MSTORE PUSH1 0x1 PUSH1 0x1 PUSH1 0xA0 SHL SUB SWAP1 SWAP2 AND SWAP1 PUSH4 0x40C10F19 SWAP1 PUSH2 0x1F12 SWAP1 DUP13 SWAP1 DUP11 SWAP1 PUSH1 0x4 ADD PUSH2 0x2B5A JUMP JUMPDEST PUSH1 0x20 PUSH1 0x40 MLOAD DUP1 DUP4 SUB DUP2 PUSH1 0x0 DUP8 DUP1 EXTCODESIZE ISZERO DUP1 ISZERO PUSH2 0x1F2C JUMPI PUSH1 0x0 DUP1 REVERT JUMPDEST POP GAS CALL ISZERO DUP1 ISZERO PUSH2 0x1F40 JUMPI RETURNDATASIZE PUSH1 0x0 DUP1 RETURNDATACOPY RETURNDATASIZE PUSH1 0x0 REVERT JUMPDEST POP POP POP POP PUSH1 0x40 MLOAD RETURNDATASIZE PUSH1 0x1F NOT PUSH1 0x1F DUP3 ADD AND DUP3 ADD DUP1 PUSH1 0x40 MSTORE POP DUP2 ADD SWAP1 PUSH2 0x1F64 SWAP2 SWAP1 PUSH2 0x2706 JUMP JUMPDEST POP JUMPDEST POP POP POP POP POP POP POP POP POP POP POP JUMP JUMPDEST DUP2 SLOAD PUSH1 0x9 DUP4 ADD SLOAD PUSH1 0xA DUP5 ADD SLOAD PUSH1 0x5 DUP6 ADD SLOAD PUSH1 0x73 SLOAD PUSH1 0x72 SLOAD PUSH1 0x1 PUSH1 0x1 PUSH1 0xA0 SHL SUB SWAP1 SWAP6 AND SWAP5 PUSH1 0x0 SWAP5 DUP6 SWAP5 DUP6 SWAP5 SWAP2 SWAP4 DUP10 SWAP4 SWAP2 SWAP3 SWAP2 DUP7 SWAP2 PUSH2 0x1FC4 SWAP2 PUSH8 0xDE0B6B3A7640000 SWAP2 PUSH2 0x81C SWAP2 DUP3 SWAP1 PUSH2 0x816 DUP11 DUP13 PUSH2 0x1957 JUMP JUMPDEST SWAP1 POP DUP2 DUP5 LT ISZERO PUSH2 0x1FD8 JUMPI PUSH2 0x1DBB DUP3 DUP6 PUSH2 0x1963 JUMP JUMPDEST PUSH2 0x1FE2 DUP5 DUP4 PUSH2 0x1963 JUMP JUMPDEST SWAP8 POP PUSH2 0x1EA1 PUSH8 0xDE0B6B3A7640000 PUSH2 0x81C DUP11 DUP9 PUSH2 0x1957 JUMP JUMPDEST PUSH1 0x0 DUP4 DUP2 MSTORE PUSH1 0x20 DUP4 SWAP1 MSTORE PUSH1 0x40 DUP2 KECCAK256 SLOAD DUP3 SLOAD SWAP1 SWAP2 SWAP1 DUP4 SWAP1 PUSH2 0x201B SWAP1 PUSH1 0x1 PUSH2 0x1963 JUMP JUMPDEST DUP2 SLOAD DUP2 LT PUSH2 0x2039 JUMPI PUSH4 0x4E487B71 PUSH1 0xE0 SHL PUSH1 0x0 MSTORE PUSH1 0x32 PUSH1 0x4 MSTORE PUSH1 0x24 PUSH1 0x0 REVERT JUMPDEST SWAP1 PUSH1 0x0 MSTORE PUSH1 0x20 PUSH1 0x0 KECCAK256 ADD SLOAD SWAP1 POP DUP2 DUP5 PUSH1 0x0 DUP4 DUP2 MSTORE PUSH1 0x20 ADD SWAP1 DUP2 MSTORE PUSH1 0x20 ADD PUSH1 0x0 KECCAK256 DUP2 SWAP1 SSTORE POP DUP1 DUP4 DUP4 DUP2 SLOAD DUP2 LT PUSH2 0x207E JUMPI PUSH4 0x4E487B71 PUSH1 0xE0 SHL PUSH1 0x0 MSTORE PUSH1 0x32 PUSH1 0x4 MSTORE PUSH1 0x24 PUSH1 0x0 REVERT JUMPDEST PUSH1 0x0 SWAP2 DUP3 MSTORE PUSH1 0x20 DUP1 DUP4 KECCAK256 SWAP1 SWAP2 ADD SWAP3 SWAP1 SWAP3 SSTORE DUP7 DUP2 MSTORE SWAP1 DUP6 SWAP1 MSTORE PUSH1 0x40 DUP2 KECCAK256 SSTORE DUP3 SLOAD DUP4 SWAP1 DUP1 PUSH2 0x20BA JUMPI PUSH4 0x4E487B71 PUSH1 0xE0 SHL PUSH1 0x0 MSTORE PUSH1 0x31 PUSH1 0x4 MSTORE PUSH1 0x24 PUSH1 0x0 REVERT JUMPDEST PUSH1 0x1 SWAP1 SUB DUP2 DUP2 SWAP1 PUSH1 0x0 MSTORE PUSH1 0x20 PUSH1 0x0 KECCAK256 ADD PUSH1 0x0 SWAP1 SSTORE SWAP1 SSTORE POP POP POP POP POP JUMP JUMPDEST PUSH1 0x0 PUSH2 0x212C DUP3 PUSH1 0x40 MLOAD DUP1 PUSH1 0x40 ADD PUSH1 0x40 MSTORE DUP1 PUSH1 0x20 DUP2 MSTORE PUSH1 0x20 ADD PUSH32 0x5361666545524332303A206C6F772D6C6576656C2063616C6C206661696C6564 DUP2 MSTORE POP DUP6 PUSH1 0x1 PUSH1 0x1 PUSH1 0xA0 SHL SUB AND PUSH2 0x2249 SWAP1 SWAP3 SWAP2 SWAP1 PUSH4 0xFFFFFFFF AND JUMP JUMPDEST DUP1 MLOAD SWAP1 SWAP2 POP ISZERO PUSH2 0x1CC1 JUMPI DUP1 DUP1 PUSH1 0x20 ADD SWAP1 MLOAD DUP2 ADD SWAP1 PUSH2 0x214A SWAP2 SWAP1 PUSH2 0x2706 JUMP JUMPDEST PUSH2 0x1CC1 JUMPI PUSH1 0x40 MLOAD PUSH3 0x461BCD PUSH1 0xE5 SHL DUP2 MSTORE PUSH1 0x4 ADD PUSH2 0x60A SWAP1 PUSH2 0x2F10 JUMP JUMPDEST PUSH1 0x0 SLOAD PUSH2 0x100 SWAP1 DIV PUSH1 0xFF AND DUP1 PUSH2 0x217F JUMPI POP PUSH1 0x0 SLOAD PUSH1 0xFF AND ISZERO JUMPDEST PUSH2 0x219B JUMPI PUSH1 0x40 MLOAD PUSH3 0x461BCD PUSH1 0xE5 SHL DUP2 MSTORE PUSH1 0x4 ADD PUSH2 0x60A SWAP1 PUSH2 0x2D80 JUMP JUMPDEST PUSH1 0x0 SLOAD PUSH2 0x100 SWAP1 DIV PUSH1 0xFF AND ISZERO DUP1 ISZERO PUSH2 0x1D42 JUMPI PUSH1 0x0 DUP1 SLOAD PUSH1 0xFF NOT PUSH2 0xFF00 NOT SWAP1 SWAP2 AND PUSH2 0x100 OR AND PUSH1 0x1 OR SWAP1 SSTORE DUP1 ISZERO PUSH2 0x1707 JUMPI PUSH1 0x0 DUP1 SLOAD PUSH2 0xFF00 NOT AND SWAP1 SSTORE POP JUMP JUMPDEST PUSH1 0x0 SLOAD PUSH2 0x100 SWAP1 DIV PUSH1 0xFF AND DUP1 PUSH2 0x21F2 JUMPI POP PUSH1 0x0 SLOAD PUSH1 0xFF AND ISZERO JUMPDEST PUSH2 0x220E JUMPI PUSH1 0x40 MLOAD PUSH3 0x461BCD PUSH1 0xE5 SHL DUP2 MSTORE PUSH1 0x4 ADD PUSH2 0x60A SWAP1 PUSH2 0x2D80 JUMP JUMPDEST PUSH1 0x0 SLOAD PUSH2 0x100 SWAP1 DIV PUSH1 0xFF AND ISZERO DUP1 ISZERO PUSH2 0x2239 JUMPI PUSH1 0x0 DUP1 SLOAD PUSH1 0xFF NOT PUSH2 0xFF00 NOT SWAP1 SWAP2 AND PUSH2 0x100 OR AND PUSH1 0x1 OR SWAP1 SSTORE JUMPDEST PUSH2 0x1D42 PUSH2 0x2244 PUSH2 0x196F JUMP JUMPDEST PUSH2 0x1BF2 JUMP JUMPDEST PUSH1 0x60 PUSH2 0x2258 DUP5 DUP5 PUSH1 0x0 DUP6 PUSH2 0x2260 JUMP JUMPDEST SWAP5 SWAP4 POP POP POP POP JUMP JUMPDEST PUSH1 0x60 DUP3 SELFBALANCE LT ISZERO PUSH2 0x2282 JUMPI PUSH1 0x40 MLOAD PUSH3 0x461BCD PUSH1 0xE5 SHL DUP2 MSTORE PUSH1 0x4 ADD PUSH2 0x60A SWAP1 PUSH2 0x2D3A JUMP JUMPDEST PUSH2 0x228B DUP6 PUSH2 0x2320 JUMP JUMPDEST PUSH2 0x22A7 JUMPI PUSH1 0x40 MLOAD PUSH3 0x461BCD PUSH1 0xE5 SHL DUP2 MSTORE PUSH1 0x4 ADD PUSH2 0x60A SWAP1 PUSH2 0x2E70 JUMP JUMPDEST PUSH1 0x0 DUP1 DUP7 PUSH1 0x1 PUSH1 0x1 PUSH1 0xA0 SHL SUB AND DUP6 DUP8 PUSH1 0x40 MLOAD PUSH2 0x22C3 SWAP2 SWAP1 PUSH2 0x2B06 JUMP JUMPDEST PUSH1 0x0 PUSH1 0x40 MLOAD DUP1 DUP4 SUB DUP2 DUP6 DUP8 GAS CALL SWAP3 POP POP POP RETURNDATASIZE DUP1 PUSH1 0x0 DUP2 EQ PUSH2 0x2300 JUMPI PUSH1 0x40 MLOAD SWAP2 POP PUSH1 0x1F NOT PUSH1 0x3F RETURNDATASIZE ADD AND DUP3 ADD PUSH1 0x40 MSTORE RETURNDATASIZE DUP3 MSTORE RETURNDATASIZE PUSH1 0x0 PUSH1 0x20 DUP5 ADD RETURNDATACOPY PUSH2 0x2305 JUMP JUMPDEST PUSH1 0x60 SWAP2 POP JUMPDEST POP SWAP2 POP SWAP2 POP PUSH2 0x2315 DUP3 DUP3 DUP7 PUSH2 0x2326 JUMP JUMPDEST SWAP8 SWAP7 POP POP POP POP POP POP POP JUMP JUMPDEST EXTCODESIZE ISZERO ISZERO SWAP1 JUMP JUMPDEST PUSH1 0x60 DUP4 ISZERO PUSH2 0x2335 JUMPI POP DUP2 PUSH2 0x91F JUMP JUMPDEST DUP3 MLOAD ISZERO PUSH2 0x2345 JUMPI DUP3 MLOAD DUP1 DUP5 PUSH1 0x20 ADD REVERT JUMPDEST DUP2 PUSH1 0x40 MLOAD PUSH3 0x461BCD PUSH1 0xE5 SHL DUP2 MSTORE PUSH1 0x4 ADD PUSH2 0x60A SWAP2 SWAP1 PUSH2 0x2BFB JUMP JUMPDEST PUSH1 0x40 MLOAD DUP1 PUSH2 0x160 ADD PUSH1 0x40 MSTORE DUP1 PUSH1 0x0 PUSH1 0x1 PUSH1 0x1 PUSH1 0xA0 SHL SUB AND DUP2 MSTORE PUSH1 0x20 ADD PUSH1 0x0 DUP2 MSTORE PUSH1 0x20 ADD PUSH1 0x60 DUP2 MSTORE PUSH1 0x20 ADD PUSH1 0x0 DUP2 MSTORE PUSH1 0x20 ADD PUSH1 0x0 DUP2 MSTORE PUSH1 0x20 ADD PUSH1 0x0 DUP2 MSTORE PUSH1 0x20 ADD PUSH1 0x0 DUP2 MSTORE PUSH1 0x20 ADD PUSH1 0x0 DUP2 MSTORE PUSH1 0x20 ADD PUSH1 0x0 DUP2 MSTORE PUSH1 0x20 ADD PUSH1 0x0 DUP2 MSTORE PUSH1 0x20 ADD PUSH1 0x0 DUP2 MSTORE POP SWAP1 JUMP JUMPDEST DUP3 DUP1 SLOAD PUSH2 0x23CE SWAP1 PUSH2 0x312B JUMP JUMPDEST SWAP1 PUSH1 0x0 MSTORE PUSH1 0x20 PUSH1 0x0 KECCAK256 SWAP1 PUSH1 0x1F ADD PUSH1 0x20 SWAP1 DIV DUP2 ADD SWAP3 DUP3 PUSH2 0x23F0 JUMPI PUSH1 0x0 DUP6 SSTORE PUSH2 0x2436 JUMP JUMPDEST DUP3 PUSH1 0x1F LT PUSH2 0x2409 JUMPI DUP1 MLOAD PUSH1 0xFF NOT AND DUP4 DUP1 ADD OR DUP6 SSTORE PUSH2 0x2436 JUMP JUMPDEST DUP3 DUP1 ADD PUSH1 0x1 ADD DUP6 SSTORE DUP3 ISZERO PUSH2 0x2436 JUMPI SWAP2 DUP3 ADD JUMPDEST DUP3 DUP2 GT ISZERO PUSH2 0x2436 JUMPI DUP3 MLOAD DUP3 SSTORE SWAP2 PUSH1 0x20 ADD SWAP2 SWAP1 PUSH1 0x1 ADD SWAP1 PUSH2 0x241B JUMP JUMPDEST POP PUSH2 0x2442 SWAP3 SWAP2 POP PUSH2 0x2446 JUMP JUMPDEST POP SWAP1 JUMP JUMPDEST JUMPDEST DUP1 DUP3 GT ISZERO PUSH2 0x2442 JUMPI PUSH1 0x0 DUP2 SSTORE PUSH1 0x1 ADD PUSH2 0x2447 JUMP JUMPDEST DUP1 CALLDATALOAD PUSH2 0xC87 DUP2 PUSH2 0x31AD JUMP JUMPDEST PUSH1 0x0 DUP3 PUSH1 0x1F DUP4 ADD SLT PUSH2 0x2476 JUMPI DUP1 DUP2 REVERT JUMPDEST DUP2 CALLDATALOAD PUSH1 0x20 PUSH2 0x248B PUSH2 0x2486 DUP4 PUSH2 0x3056 JUMP JUMPDEST PUSH2 0x302C JUMP JUMPDEST DUP3 DUP2 MSTORE DUP2 DUP2 ADD SWAP1 DUP6 DUP4 ADD DUP6 JUMPDEST DUP6 DUP2 LT ISZERO PUSH2 0x24C0 JUMPI PUSH2 0x24AE DUP10 DUP7 DUP5 CALLDATALOAD DUP12 ADD ADD PUSH2 0x2587 JUMP JUMPDEST DUP5 MSTORE SWAP3 DUP5 ADD SWAP3 SWAP1 DUP5 ADD SWAP1 PUSH1 0x1 ADD PUSH2 0x2497 JUMP JUMPDEST POP SWAP1 SWAP8 SWAP7 POP POP POP POP POP POP POP JUMP JUMPDEST PUSH1 0x0 DUP3 PUSH1 0x1F DUP4 ADD SLT PUSH2 0x24DD JUMPI DUP1 DUP2 REVERT JUMPDEST DUP2 CALLDATALOAD PUSH1 0x20 PUSH2 0x24ED PUSH2 0x2486 DUP4 PUSH2 0x3056 JUMP JUMPDEST DUP3 DUP2 MSTORE DUP2 DUP2 ADD SWAP1 DUP6 DUP4 ADD DUP6 JUMPDEST DUP6 DUP2 LT ISZERO PUSH2 0x24C0 JUMPI PUSH2 0x2510 DUP10 DUP7 DUP5 CALLDATALOAD DUP12 ADD ADD PUSH2 0x2587 JUMP JUMPDEST DUP5 MSTORE SWAP3 DUP5 ADD SWAP3 SWAP1 DUP5 ADD SWAP1 PUSH1 0x1 ADD PUSH2 0x24F9 JUMP JUMPDEST PUSH1 0x0 DUP3 PUSH1 0x1F DUP4 ADD SLT PUSH2 0x2532 JUMPI DUP1 DUP2 REVERT JUMPDEST DUP2 CALLDATALOAD PUSH1 0x20 PUSH2 0x2542 PUSH2 0x2486 DUP4 PUSH2 0x3056 JUMP JUMPDEST DUP3 DUP2 MSTORE DUP2 DUP2 ADD SWAP1 DUP6 DUP4 ADD DUP4 DUP6 MUL DUP8 ADD DUP5 ADD DUP9 LT ISZERO PUSH2 0x255E JUMPI DUP6 DUP7 REVERT JUMPDEST DUP6 JUMPDEST DUP6 DUP2 LT ISZERO PUSH2 0x24C0 JUMPI DUP2 CALLDATALOAD DUP5 MSTORE SWAP3 DUP5 ADD SWAP3 SWAP1 DUP5 ADD SWAP1 PUSH1 0x1 ADD PUSH2 0x2560 JUMP JUMPDEST DUP1 CALLDATALOAD PUSH2 0xC87 DUP2 PUSH2 0x31C2 JUMP JUMPDEST PUSH1 0x0 DUP3 PUSH1 0x1F DUP4 ADD SLT PUSH2 0x2597 JUMPI DUP1 DUP2 REVERT JUMPDEST DUP2 CALLDATALOAD PUSH8 0xFFFFFFFFFFFFFFFF DUP2 GT ISZERO PUSH2 0x25B1 JUMPI PUSH2 0x25B1 PUSH2 0x3197 JUMP JUMPDEST PUSH2 0x25C4 PUSH1 0x1F DUP3 ADD PUSH1 0x1F NOT AND PUSH1 0x20 ADD PUSH2 0x302C JUMP JUMPDEST DUP2 DUP2 MSTORE DUP5 PUSH1 0x20 DUP4 DUP7 ADD ADD GT ISZERO PUSH2 0x25D8 JUMPI DUP3 DUP4 REVERT JUMPDEST DUP2 PUSH1 0x20 DUP6 ADD PUSH1 0x20 DUP4 ADD CALLDATACOPY SWAP1 DUP2 ADD PUSH1 0x20 ADD SWAP2 SWAP1 SWAP2 MSTORE SWAP3 SWAP2 POP POP JUMP JUMPDEST PUSH1 0x0 PUSH1 0x20 DUP3 DUP5 SUB SLT ISZERO PUSH2 0x2603 JUMPI DUP1 DUP2 REVERT JUMPDEST DUP2 CALLDATALOAD PUSH2 0x91F DUP2 PUSH2 0x31AD JUMP JUMPDEST PUSH1 0x0 DUP1 PUSH1 0x40 DUP4 DUP6 SUB SLT ISZERO PUSH2 0x2620 JUMPI DUP1 DUP2 REVERT JUMPDEST DUP3 CALLDATALOAD PUSH2 0x262B DUP2 PUSH2 0x31AD JUMP JUMPDEST SWAP2 POP PUSH1 0x20 DUP4 ADD CALLDATALOAD PUSH2 0x263B DUP2 PUSH2 0x31C2 JUMP JUMPDEST DUP1 SWAP2 POP POP SWAP3 POP SWAP3 SWAP1 POP JUMP JUMPDEST PUSH1 0x0 DUP1 PUSH1 0x0 DUP1 PUSH1 0x80 DUP6 DUP8 SUB SLT ISZERO PUSH2 0x265B JUMPI DUP2 DUP3 REVERT JUMPDEST DUP5 CALLDATALOAD PUSH2 0x2666 DUP2 PUSH2 0x31AD JUMP JUMPDEST SWAP4 POP PUSH1 0x20 DUP6 ADD CALLDATALOAD PUSH2 0x2676 DUP2 PUSH2 0x31AD JUMP JUMPDEST SWAP3 POP PUSH1 0x40 DUP6 ADD CALLDATALOAD PUSH2 0x2686 DUP2 PUSH2 0x31AD JUMP JUMPDEST SWAP2 POP PUSH1 0x60 DUP6 ADD CALLDATALOAD PUSH2 0x2696 DUP2 PUSH2 0x31AD JUMP JUMPDEST SWAP4 SWAP7 SWAP3 SWAP6 POP SWAP1 SWAP4 POP POP JUMP JUMPDEST PUSH1 0x0 DUP1 PUSH1 0x40 DUP4 DUP6 SUB SLT ISZERO PUSH2 0x26B3 JUMPI DUP2 DUP3 REVERT JUMPDEST DUP3 CALLDATALOAD PUSH2 0x26BE DUP2 PUSH2 0x31AD JUMP JUMPDEST SWAP5 PUSH1 0x20 SWAP4 SWAP1 SWAP4 ADD CALLDATALOAD SWAP4 POP POP POP JUMP JUMPDEST PUSH1 0x0 DUP1 PUSH1 0x0 DUP1 PUSH1 0x80 DUP6 DUP8 SUB SLT ISZERO PUSH2 0x26E1 JUMPI DUP4 DUP5 REVERT JUMPDEST DUP5 CALLDATALOAD PUSH2 0x26EC DUP2 PUSH2 0x31AD JUMP JUMPDEST SWAP7 PUSH1 0x20 DUP7 ADD CALLDATALOAD SWAP7 POP PUSH1 0x40 DUP7 ADD CALLDATALOAD SWAP6 PUSH1 0x60 ADD CALLDATALOAD SWAP5 POP SWAP3 POP POP POP JUMP JUMPDEST PUSH1 0x0 PUSH1 0x20 DUP3 DUP5 SUB SLT ISZERO PUSH2 0x2717 JUMPI DUP1 DUP2 REVERT JUMPDEST DUP2 MLOAD PUSH2 0x91F DUP2 PUSH2 0x31C2 JUMP JUMPDEST PUSH1 0x0 DUP1 PUSH1 0x0 DUP1 PUSH1 0x0 DUP1 PUSH1 0xC0 DUP8 DUP10 SUB SLT ISZERO PUSH2 0x273A JUMPI DUP4 DUP5 REVERT JUMPDEST PUSH2 0x2743 DUP8 PUSH2 0x257C JUMP JUMPDEST SWAP6 POP PUSH1 0x20 DUP8 ADD CALLDATALOAD PUSH8 0xFFFFFFFFFFFFFFFF DUP1 DUP3 GT ISZERO PUSH2 0x275F JUMPI DUP6 DUP7 REVERT JUMPDEST PUSH2 0x276B DUP11 DUP4 DUP12 ADD PUSH2 0x2522 JUMP JUMPDEST SWAP7 POP PUSH1 0x40 DUP10 ADD CALLDATALOAD SWAP2 POP DUP1 DUP3 GT ISZERO PUSH2 0x2780 JUMPI DUP6 DUP7 REVERT JUMPDEST PUSH2 0x278C DUP11 DUP4 DUP12 ADD PUSH2 0x2522 JUMP JUMPDEST SWAP6 POP PUSH1 0x60 DUP10 ADD CALLDATALOAD SWAP2 POP DUP1 DUP3 GT ISZERO PUSH2 0x27A1 JUMPI DUP4 DUP5 REVERT JUMPDEST PUSH2 0x27AD DUP11 DUP4 DUP12 ADD PUSH2 0x24CD JUMP JUMPDEST SWAP5 POP PUSH1 0x80 DUP10 ADD CALLDATALOAD SWAP2 POP DUP1 DUP3 GT ISZERO PUSH2 0x27C2 JUMPI DUP4 DUP5 REVERT JUMPDEST PUSH2 0x27CE DUP11 DUP4 DUP12 ADD PUSH2 0x2522 JUMP JUMPDEST SWAP4 POP PUSH1 0xA0 DUP10 ADD CALLDATALOAD SWAP2 POP DUP1 DUP3 GT ISZERO PUSH2 0x27E3 JUMPI DUP3 DUP4 REVERT JUMPDEST POP PUSH2 0x27F0 DUP10 DUP3 DUP11 ADD PUSH2 0x2466 JUMP JUMPDEST SWAP2 POP POP SWAP3 SWAP6 POP SWAP3 SWAP6 POP SWAP3 SWAP6 JUMP JUMPDEST PUSH1 0x0 DUP1 PUSH1 0x0 DUP1 PUSH1 0x0 DUP1 PUSH1 0xC0 DUP8 DUP10 SUB SLT ISZERO PUSH2 0x2815 JUMPI DUP4 DUP5 REVERT JUMPDEST DUP7 CALLDATALOAD PUSH2 0x2820 DUP2 PUSH2 0x31C2 JUMP JUMPDEST SWAP6 POP PUSH1 0x20 DUP8 ADD CALLDATALOAD SWAP5 POP PUSH1 0x40 DUP8 ADD CALLDATALOAD SWAP4 POP PUSH1 0x60 DUP8 ADD CALLDATALOAD PUSH8 0xFFFFFFFFFFFFFFFF DUP1 DUP3 GT ISZERO PUSH2 0x284A JUMPI DUP4 DUP5 REVERT JUMPDEST PUSH2 0x2856 DUP11 DUP4 DUP12 ADD PUSH2 0x2587 JUMP JUMPDEST SWAP5 POP PUSH1 0x80 DUP10 ADD CALLDATALOAD SWAP4 POP PUSH1 0xA0 DUP10 ADD CALLDATALOAD SWAP2 POP DUP1 DUP3 GT ISZERO PUSH2 0x2872 JUMPI DUP3 DUP4 REVERT JUMPDEST POP PUSH2 0x27F0 DUP10 DUP3 DUP11 ADD PUSH2 0x2587 JUMP JUMPDEST PUSH1 0x0 DUP1 PUSH1 0x0 DUP1 PUSH1 0x0 DUP1 PUSH1 0x0 PUSH1 0xE0 DUP9 DUP11 SUB SLT ISZERO PUSH2 0x2899 JUMPI DUP5 DUP6 REVERT JUMPDEST DUP8 CALLDATALOAD PUSH2 0x28A4 DUP2 PUSH2 0x31C2 JUMP JUMPDEST SWAP7 POP PUSH1 0x20 DUP9 ADD CALLDATALOAD SWAP6 POP PUSH1 0x40 DUP9 ADD CALLDATALOAD SWAP5 POP PUSH1 0x60 DUP9 ADD CALLDATALOAD PUSH8 0xFFFFFFFFFFFFFFFF DUP1 DUP3 GT ISZERO PUSH2 0x28CE JUMPI DUP3 DUP4 REVERT JUMPDEST PUSH2 0x28DA DUP12 DUP4 DUP13 ADD PUSH2 0x2587 JUMP JUMPDEST SWAP6 POP PUSH1 0x80 DUP11 ADD CALLDATALOAD SWAP5 POP PUSH1 0xA0 DUP11 ADD CALLDATALOAD SWAP2 POP DUP1 DUP3 GT ISZERO PUSH2 0x28F6 JUMPI DUP3 DUP4 REVERT JUMPDEST POP PUSH2 0x2903 DUP11 DUP3 DUP12 ADD PUSH2 0x2587 JUMP JUMPDEST SWAP3 POP POP PUSH1 0xC0 DUP9 ADD CALLDATALOAD SWAP1 POP SWAP3 SWAP6 SWAP9 SWAP2 SWAP5 SWAP8 POP SWAP3 SWAP6 POP JUMP JUMPDEST PUSH1 0x0 DUP1 PUSH1 0x0 DUP1 PUSH1 0x0 DUP1 PUSH1 0x0 DUP1 PUSH1 0x0 PUSH2 0x120 DUP11 DUP13 SUB SLT ISZERO PUSH2 0x2937 JUMPI DUP3 DUP4 REVERT JUMPDEST DUP10 CALLDATALOAD PUSH2 0x2942 DUP2 PUSH2 0x31C2 JUMP JUMPDEST SWAP9 POP PUSH1 0x20 DUP11 ADD CALLDATALOAD SWAP8 POP PUSH1 0x40 DUP11 ADD CALLDATALOAD SWAP7 POP PUSH1 0x60 DUP11 ADD CALLDATALOAD SWAP6 POP PUSH1 0x80 DUP11 ADD CALLDATALOAD SWAP5 POP PUSH1 0xA0 DUP11 ADD CALLDATALOAD PUSH8 0xFFFFFFFFFFFFFFFF DUP1 DUP3 GT ISZERO PUSH2 0x297A JUMPI DUP5 DUP6 REVERT JUMPDEST PUSH2 0x2986 DUP14 DUP4 DUP15 ADD PUSH2 0x2587 JUMP JUMPDEST SWAP6 POP PUSH1 0xC0 DUP13 ADD CALLDATALOAD SWAP5 POP PUSH1 0xE0 DUP13 ADD CALLDATALOAD SWAP4 POP PUSH2 0x100 DUP13 ADD CALLDATALOAD SWAP2 POP DUP1 DUP3 GT ISZERO PUSH2 0x29AA JUMPI DUP3 DUP4 REVERT JUMPDEST POP PUSH2 0x29B7 DUP13 DUP3 DUP14 ADD PUSH2 0x2587 JUMP JUMPDEST SWAP2 POP POP SWAP3 SWAP6 SWAP9 POP SWAP3 SWAP6 SWAP9 POP SWAP3 SWAP6 SWAP9 JUMP JUMPDEST PUSH1 0x0 PUSH1 0x20 DUP3 DUP5 SUB SLT ISZERO PUSH2 0x29D8 JUMPI DUP1 DUP2 REVERT JUMPDEST POP CALLDATALOAD SWAP2 SWAP1 POP JUMP JUMPDEST PUSH1 0x0 PUSH1 0x20 DUP3 DUP5 SUB SLT ISZERO PUSH2 0x29F0 JUMPI DUP1 DUP2 REVERT JUMPDEST POP MLOAD SWAP2 SWAP1 POP JUMP JUMPDEST PUSH1 0x0 DUP1 PUSH1 0x0 DUP1 PUSH1 0x0 DUP1 PUSH1 0x0 DUP1 PUSH1 0x0 DUP1 PUSH1 0x0 DUP1 PUSH2 0x180 DUP14 DUP16 SUB SLT ISZERO PUSH2 0x2A19 JUMPI DUP6 DUP7 REVERT JUMPDEST DUP13 CALLDATALOAD SWAP12 POP PUSH2 0x2A29 PUSH1 0x20 DUP15 ADD PUSH2 0x245B JUMP JUMPDEST SWAP11 POP PUSH1 0x40 DUP14 ADD CALLDATALOAD SWAP10 POP PUSH8 0xFFFFFFFFFFFFFFFF PUSH1 0x60 DUP15 ADD CALLDATALOAD GT ISZERO PUSH2 0x2A4A JUMPI DUP6 DUP7 REVERT JUMPDEST PUSH2 0x2A5A DUP15 PUSH1 0x60 DUP16 ADD CALLDATALOAD DUP16 ADD PUSH2 0x2587 JUMP JUMPDEST SWAP12 SWAP15 SWAP11 SWAP14 POP SWAP9 SWAP12 PUSH1 0x80 DUP2 ADD CALLDATALOAD SWAP11 PUSH1 0xA0 DUP3 ADD CALLDATALOAD SWAP11 POP PUSH1 0xC0 DUP3 ADD CALLDATALOAD SWAP10 POP PUSH1 0xE0 DUP3 ADD CALLDATALOAD SWAP9 POP PUSH2 0x100 DUP3 ADD CALLDATALOAD SWAP8 POP PUSH2 0x120 DUP3 ADD CALLDATALOAD SWAP7 POP PUSH2 0x140 DUP3 ADD CALLDATALOAD SWAP6 POP PUSH2 0x160 SWAP1 SWAP2 ADD CALLDATALOAD SWAP4 POP SWAP2 POP POP JUMP JUMPDEST PUSH1 0x0 DUP1 PUSH1 0x0 PUSH1 0x60 DUP5 DUP7 SUB SLT ISZERO PUSH2 0x2AB6 JUMPI DUP1 DUP2 REVERT JUMPDEST POP POP DUP2 CALLDATALOAD SWAP4 PUSH1 0x20 DUP4 ADD CALLDATALOAD SWAP4 POP PUSH1 0x40 SWAP1 SWAP3 ADD CALLDATALOAD SWAP2 SWAP1 POP JUMP JUMPDEST PUSH1 0x1 PUSH1 0x1 PUSH1 0xA0 SHL SUB AND SWAP1 MSTORE JUMP JUMPDEST PUSH1 0x0 DUP2 MLOAD DUP1 DUP5 MSTORE PUSH2 0x2AF2 DUP2 PUSH1 0x20 DUP7 ADD PUSH1 0x20 DUP7 ADD PUSH2 0x30E8 JUMP JUMPDEST PUSH1 0x1F ADD PUSH1 0x1F NOT AND SWAP3 SWAP1 SWAP3 ADD PUSH1 0x20 ADD SWAP3 SWAP2 POP POP JUMP JUMPDEST PUSH1 0x0 DUP3 MLOAD PUSH2 0x2B18 DUP2 DUP5 PUSH1 0x20 DUP8 ADD PUSH2 0x30E8 JUMP JUMPDEST SWAP2 SWAP1 SWAP2 ADD SWAP3 SWAP2 POP POP JUMP JUMPDEST PUSH1 0x1 PUSH1 0x1 PUSH1 0xA0 SHL SUB SWAP2 SWAP1 SWAP2 AND DUP2 MSTORE PUSH1 0x20 ADD SWAP1 JUMP JUMPDEST PUSH1 0x1 PUSH1 0x1 PUSH1 0xA0 SHL SUB SWAP4 DUP5 AND DUP2 MSTORE SWAP2 SWAP1 SWAP3 AND PUSH1 0x20 DUP3 ADD MSTORE PUSH1 0x40 DUP2 ADD SWAP2 SWAP1 SWAP2 MSTORE PUSH1 0x60 ADD SWAP1 JUMP JUMPDEST PUSH1 0x1 PUSH1 0x1 PUSH1 0xA0 SHL SUB SWAP3 SWAP1 SWAP3 AND DUP3 MSTORE PUSH1 0x20 DUP3 ADD MSTORE PUSH1 0x40 ADD SWAP1 JUMP JUMPDEST PUSH1 0x20 DUP1 DUP3 MSTORE DUP3 MLOAD DUP3 DUP3 ADD DUP2 SWAP1 MSTORE PUSH1 0x0 SWAP2 SWAP1 DUP5 DUP3 ADD SWAP1 PUSH1 0x40 DUP6 ADD SWAP1 DUP5 JUMPDEST DUP2 DUP2 LT ISZERO PUSH2 0x2BAB JUMPI DUP4 MLOAD DUP4 MSTORE SWAP3 DUP5 ADD SWAP3 SWAP2 DUP5 ADD SWAP2 PUSH1 0x1 ADD PUSH2 0x2B8F JUMP JUMPDEST POP SWAP1 SWAP7 SWAP6 POP POP POP POP POP POP JUMP JUMPDEST SWAP1 ISZERO ISZERO DUP2 MSTORE PUSH1 0x20 ADD SWAP1 JUMP JUMPDEST PUSH1 0x0 DUP7 ISZERO ISZERO DUP3 MSTORE DUP6 PUSH1 0x20 DUP4 ADD MSTORE DUP5 PUSH1 0x40 DUP4 ADD MSTORE PUSH1 0xA0 PUSH1 0x60 DUP4 ADD MSTORE PUSH2 0x2BE9 PUSH1 0xA0 DUP4 ADD DUP6 PUSH2 0x2ADA JUMP JUMPDEST DUP3 DUP2 SUB PUSH1 0x80 DUP5 ADD MSTORE PUSH2 0xD3A DUP2 DUP6 PUSH2 0x2ADA JUMP JUMPDEST PUSH1 0x0 PUSH1 0x20 DUP3 MSTORE PUSH2 0x91F PUSH1 0x20 DUP4 ADD DUP5 PUSH2 0x2ADA JUMP JUMPDEST PUSH1 0x20 DUP1 DUP3 MSTORE PUSH1 0x14 SWAP1 DUP3 ADD MSTORE PUSH20 0x1BDC99195C88191BD95CC81B9BDD08195E1A5CDD PUSH1 0x62 SHL PUSH1 0x40 DUP3 ADD MSTORE PUSH1 0x60 ADD SWAP1 JUMP JUMPDEST PUSH1 0x20 DUP1 DUP3 MSTORE PUSH1 0xE SWAP1 DUP3 ADD MSTORE PUSH14 0x1B585C99DA5B881B9BC819DBDBD9 PUSH1 0x92 SHL PUSH1 0x40 DUP3 ADD MSTORE PUSH1 0x60 ADD SWAP1 JUMP JUMPDEST PUSH1 0x20 DUP1 DUP3 MSTORE PUSH1 0x26 SWAP1 DUP3 ADD MSTORE PUSH32 0x4F776E61626C653A206E6577206F776E657220697320746865207A65726F2061 PUSH1 0x40 DUP3 ADD MSTORE PUSH6 0x646472657373 PUSH1 0xD0 SHL PUSH1 0x60 DUP3 ADD MSTORE PUSH1 0x80 ADD SWAP1 JUMP JUMPDEST PUSH1 0x20 DUP1 DUP3 MSTORE PUSH1 0xA SWAP1 DUP3 ADD MSTORE PUSH10 0x37B930B1B6329032B939 PUSH1 0xB1 SHL PUSH1 0x40 DUP3 ADD MSTORE PUSH1 0x60 ADD SWAP1 JUMP JUMPDEST PUSH1 0x20 DUP1 DUP3 MSTORE PUSH1 0x24 SWAP1 DUP3 ADD MSTORE PUSH32 0x6578656375746F723A2063616C6C6572206973206E6F74207468652065786563 PUSH1 0x40 DUP3 ADD MSTORE PUSH4 0x3ABA37B9 PUSH1 0xE1 SHL PUSH1 0x60 DUP3 ADD MSTORE PUSH1 0x80 ADD SWAP1 JUMP JUMPDEST PUSH1 0x20 DUP1 DUP3 MSTORE PUSH1 0xE SWAP1 DUP3 ADD MSTORE PUSH14 0x2737903634B8BAB4B230BA34B7B7 PUSH1 0x91 SHL PUSH1 0x40 DUP3 ADD MSTORE PUSH1 0x60 ADD SWAP1 JUMP JUMPDEST PUSH1 0x20 DUP1 DUP3 MSTORE PUSH1 0x26 SWAP1 DUP3 ADD MSTORE PUSH32 0x416464726573733A20696E73756666696369656E742062616C616E636520666F PUSH1 0x40 DUP3 ADD MSTORE PUSH6 0x1C8818D85B1B PUSH1 0xD2 SHL PUSH1 0x60 DUP3 ADD MSTORE PUSH1 0x80 ADD SWAP1 JUMP JUMPDEST PUSH1 0x20 DUP1 DUP3 MSTORE PUSH1 0x2E SWAP1 DUP3 ADD MSTORE PUSH32 0x496E697469616C697A61626C653A20636F6E747261637420697320616C726561 PUSH1 0x40 DUP3 ADD MSTORE PUSH14 0x191E481A5B9A5D1A585B1A5E9959 PUSH1 0x92 SHL PUSH1 0x60 DUP3 ADD MSTORE PUSH1 0x80 ADD SWAP1 JUMP JUMPDEST PUSH1 0x20 DUP1 DUP3 MSTORE PUSH1 0x23 SWAP1 DUP3 ADD MSTORE PUSH32 0x546865207472616E73616374696F6E20616D6F756E7420697320746F6F20736D PUSH1 0x40 DUP3 ADD MSTORE PUSH3 0x185B1B PUSH1 0xEA SHL PUSH1 0x60 DUP3 ADD MSTORE PUSH1 0x80 ADD SWAP1 JUMP JUMPDEST PUSH1 0x20 DUP1 DUP3 MSTORE PUSH1 0x10 SWAP1 DUP3 ADD MSTORE PUSH16 0x155CD95C881A5CC818985B9ADC9D5C1D PUSH1 0x82 SHL PUSH1 0x40 DUP3 ADD MSTORE PUSH1 0x60 ADD SWAP1 JUMP JUMPDEST PUSH1 0x20 DUP1 DUP3 MSTORE DUP2 DUP2 ADD MSTORE PUSH32 0x4F776E61626C653A2063616C6C6572206973206E6F7420746865206F776E6572 PUSH1 0x40 DUP3 ADD MSTORE PUSH1 0x60 ADD SWAP1 JUMP JUMPDEST PUSH1 0x20 DUP1 DUP3 MSTORE PUSH1 0x1D SWAP1 DUP3 ADD MSTORE PUSH32 0x416464726573733A2063616C6C20746F206E6F6E2D636F6E7472616374000000 PUSH1 0x40 DUP3 ADD MSTORE PUSH1 0x60 ADD SWAP1 JUMP JUMPDEST PUSH1 0x20 DUP1 DUP3 MSTORE PUSH1 0xA SWAP1 DUP3 ADD MSTORE PUSH10 0x3632B733BA341032B939 PUSH1 0xB1 SHL PUSH1 0x40 DUP3 ADD MSTORE PUSH1 0x60 ADD SWAP1 JUMP JUMPDEST PUSH1 0x20 DUP1 DUP3 MSTORE PUSH1 0x8 SWAP1 DUP3 ADD MSTORE PUSH8 0x3AB9B2B91032B939 PUSH1 0xC1 SHL PUSH1 0x40 DUP3 ADD MSTORE PUSH1 0x60 ADD SWAP1 JUMP JUMPDEST PUSH1 0x20 DUP1 DUP3 MSTORE PUSH1 0x9 SWAP1 DUP3 ADD MSTORE PUSH9 0x39BA30BA329032B939 PUSH1 0xB9 SHL PUSH1 0x40 DUP3 ADD MSTORE PUSH1 0x60 ADD SWAP1 JUMP JUMPDEST PUSH1 0x20 DUP1 DUP3 MSTORE PUSH1 0x2A SWAP1 DUP3 ADD MSTORE PUSH32 0x5361666545524332303A204552433230206F7065726174696F6E20646964206E PUSH1 0x40 DUP3 ADD MSTORE PUSH10 0x1BDD081CDD58D8D95959 PUSH1 0xB2 SHL PUSH1 0x60 DUP3 ADD MSTORE PUSH1 0x80 ADD SWAP1 JUMP JUMPDEST PUSH1 0x20 DUP1 DUP3 MSTORE PUSH1 0xB SWAP1 DUP3 ADD MSTORE PUSH11 0x185C9C881B9BC819DBDBD9 PUSH1 0xAA SHL PUSH1 0x40 DUP3 ADD MSTORE PUSH1 0x60 ADD SWAP1 JUMP JUMPDEST PUSH1 0x0 PUSH1 0x20 DUP3 MSTORE PUSH2 0x2F93 PUSH1 0x20 DUP4 ADD DUP5 MLOAD PUSH2 0x2ACD JUMP JUMPDEST PUSH1 0x20 DUP4 ADD MLOAD PUSH1 0x40 DUP4 ADD MSTORE PUSH1 0x40 DUP4 ADD MLOAD PUSH2 0x160 DUP1 PUSH1 0x60 DUP6 ADD MSTORE PUSH2 0x2FB9 PUSH2 0x180 DUP6 ADD DUP4 PUSH2 0x2ADA JUMP JUMPDEST SWAP2 POP PUSH1 0x60 DUP6 ADD MLOAD PUSH1 0x80 DUP6 ADD MSTORE PUSH1 0x80 DUP6 ADD MLOAD PUSH1 0xA0 DUP6 ADD MSTORE PUSH1 0xA0 DUP6 ADD MLOAD PUSH1 0xC0 DUP6 ADD MSTORE PUSH1 0xC0 DUP6 ADD MLOAD PUSH1 0xE0 DUP6 ADD MSTORE PUSH1 0xE0 DUP6 ADD MLOAD PUSH2 0x100 DUP2 DUP2 DUP8 ADD MSTORE DUP1 DUP8 ADD MLOAD SWAP2 POP POP PUSH2 0x120 DUP2 DUP2 DUP8 ADD MSTORE DUP1 DUP8 ADD MLOAD SWAP2 POP POP PUSH2 0x140 DUP2 DUP2 DUP8 ADD MSTORE DUP1 DUP8 ADD MLOAD DUP4 DUP8 ADD MSTORE POP POP POP DUP1 SWAP2 POP POP SWAP3 SWAP2 POP POP JUMP JUMPDEST SWAP1 DUP2 MSTORE PUSH1 0x20 ADD SWAP1 JUMP JUMPDEST PUSH1 0x40 MLOAD DUP2 DUP2 ADD PUSH8 0xFFFFFFFFFFFFFFFF DUP2 GT DUP3 DUP3 LT OR ISZERO PUSH2 0x304E JUMPI PUSH2 0x304E PUSH2 0x3197 JUMP JUMPDEST PUSH1 0x40 MSTORE SWAP2 SWAP1 POP JUMP JUMPDEST PUSH1 0x0 PUSH8 0xFFFFFFFFFFFFFFFF DUP3 GT ISZERO PUSH2 0x3070 JUMPI PUSH2 0x3070 PUSH2 0x3197 JUMP JUMPDEST POP PUSH1 0x20 SWAP1 DUP2 MUL ADD SWAP1 JUMP JUMPDEST PUSH1 0x0 DUP3 NOT DUP3 GT ISZERO PUSH2 0x308D JUMPI PUSH2 0x308D PUSH2 0x3181 JUMP JUMPDEST POP ADD SWAP1 JUMP JUMPDEST PUSH1 0x0 DUP3 PUSH2 0x30AD JUMPI PUSH4 0x4E487B71 PUSH1 0xE0 SHL DUP2 MSTORE PUSH1 0x12 PUSH1 0x4 MSTORE PUSH1 0x24 DUP2 REVERT JUMPDEST POP DIV SWAP1 JUMP JUMPDEST PUSH1 0x0 DUP2 PUSH1 0x0 NOT DIV DUP4 GT DUP3 ISZERO ISZERO AND ISZERO PUSH2 0x30CC JUMPI PUSH2 0x30CC PUSH2 0x3181 JUMP JUMPDEST POP MUL SWAP1 JUMP JUMPDEST PUSH1 0x0 DUP3 DUP3 LT ISZERO PUSH2 0x30E3 JUMPI PUSH2 0x30E3 PUSH2 0x3181 JUMP JUMPDEST POP SUB SWAP1 JUMP JUMPDEST PUSH1 0x0 JUMPDEST DUP4 DUP2 LT ISZERO PUSH2 0x3103 JUMPI DUP2 DUP2 ADD MLOAD DUP4 DUP3 ADD MSTORE PUSH1 0x20 ADD PUSH2 0x30EB JUMP JUMPDEST DUP4 DUP2 GT ISZERO PUSH2 0x1C9C JUMPI POP POP PUSH1 0x0 SWAP2 ADD MSTORE JUMP JUMPDEST PUSH1 0x0 DUP2 PUSH2 0x3123 JUMPI PUSH2 0x3123 PUSH2 0x3181 JUMP JUMPDEST POP PUSH1 0x0 NOT ADD SWAP1 JUMP JUMPDEST PUSH1 0x2 DUP2 DIV PUSH1 0x1 DUP3 AND DUP1 PUSH2 0x313F JUMPI PUSH1 0x7F DUP3 AND SWAP2 POP JUMPDEST PUSH1 0x20 DUP3 LT DUP2 EQ ISZERO PUSH2 0x3160 JUMPI PUSH4 0x4E487B71 PUSH1 0xE0 SHL PUSH1 0x0 MSTORE PUSH1 0x22 PUSH1 0x4 MSTORE PUSH1 0x24 PUSH1 0x0 REVERT JUMPDEST POP SWAP2 SWAP1 POP JUMP JUMPDEST PUSH1 0x0 PUSH1 0x0 NOT DUP3 EQ ISZERO PUSH2 0x317A JUMPI PUSH2 0x317A PUSH2 0x3181 JUMP JUMPDEST POP PUSH1 0x1 ADD SWAP1 JUMP JUMPDEST PUSH4 0x4E487B71 PUSH1 0xE0 SHL PUSH1 0x0 MSTORE PUSH1 0x11 PUSH1 0x4 MSTORE PUSH1 0x24 PUSH1 0x0 REVERT JUMPDEST PUSH4 0x4E487B71 PUSH1 0xE0 SHL PUSH1 0x0 MSTORE PUSH1 0x41 PUSH1 0x4 MSTORE PUSH1 0x24 PUSH1 0x0 REVERT JUMPDEST PUSH1 0x1 PUSH1 0x1 PUSH1 0xA0 SHL SUB DUP2 AND DUP2 EQ PUSH2 0x1707 JUMPI PUSH1 0x0 DUP1 REVERT JUMPDEST DUP1 ISZERO ISZERO DUP2 EQ PUSH2 0x1707 JUMPI PUSH1 0x0 DUP1 REVERT INVALID LOG2 PUSH5 0x6970667358 0x22 SLT KECCAK256 0x5F LOG1 PUSH3 0xA9E42 0xB4 0xB7 0xD4 0xEF 0xDC 0xB0 0x4E SWAP13 GT PUSH30 0xD3EBA63FA425F547692289D6801E991E64736F6C63430008000033000000 "
		},
		"gasEstimates": {
			"creation": {
				"codeDepositCost": "2561200",
				"executionCost": "2771",
				"totalCost": "2563971"
			},
			"external": {
				"OrderIndex()": "1116",
				"PRECISION()": "1095",
				"_isSolvent(uint256,uint256,uint256)": "infinite",
				"adjustPosition(bool,uint256,uint256,string,uint256,bytes,uint256)": "infinite",
				"closePosition(bool,uint256,uint256,string,uint256,bytes)": "infinite",
				"executor(address)": "1326",
				"feePercent()": "1096",
				"forcedLiquidation(bool,uint256,uint256,string,uint256,bytes)": "infinite",
				"helperLogic()": "1183",
				"initialize(address,address,address,address)": "infinite",
				"liquidation(bool,uint256[],uint256[],string[],uint256[],bytes[])": "infinite",
				"minVal()": "1072",
				"myCloseOrderIdList(address,uint256)": "2248",
				"myCloseOrderIdListLength(address)": "1353",
				"myCloseOrderIdList_index(address,uint256)": "1450",
				"myOpenOrderIdList(address,uint256)": "2270",
				"myOpenOrderIdListLength(address)": "1331",
				"myOpenOrderIdList_index(address,uint256)": "1450",
				"openOrderIdList(uint256)": "2065",
				"openOrderIdListLength()": "1140",
				"openOrderIdList_index(uint256)": "1217",
				"openPosition(bool,uint256,uint256,uint256,uint256,string,uint256,uint256,bytes)": "infinite",
				"oracle()": "1116",
				"orderInfo(uint256)": "infinite",
				"owner()": "1160",
				"pagination(address,uint256,uint256,uint256)": "infinite",
				"renounceOwnership()": "23596",
				"setExecutor(address,bool)": "infinite",
				"setFeePercent(uint256)": "21382",
				"setOrderInfo(uint256,address,uint256,string,uint256,uint256,uint256,uint256,uint256,uint256,uint256,uint256)": "infinite",
				"setSigner(address)": "22231",
				"signer()": "1116",
				"transferOwnership(address)": "infinite",
				"usc()": "1160"
			},
			"internal": {
				"_closePosition(bool,struct mirrorseaMain.OrderInfo storage pointer,uint256,uint256,uint256,string memory,uint256,bytes memory)": "infinite",
				"closeLong(struct mirrorseaMain.OrderInfo storage pointer,uint256)": "infinite",
				"closeShort(struct mirrorseaMain.OrderInfo storage pointer,uint256)": "infinite",
				"cutListItem(uint256,mapping(uint256 => uint256),uint256[] storage pointer)": "75481"
			}
		},
		"methodIdentifiers": {
			"OrderIndex()": "f7ab69fd",
			"PRECISION()": "aaf5eb68",
			"_isSolvent(uint256,uint256,uint256)": "2705c55b",
			"adjustPosition(bool,uint256,uint256,string,uint256,bytes,uint256)": "a8ecb028",
			"closePosition(bool,uint256,uint256,string,uint256,bytes)": "6e812437",
			"executor(address)": "48c7e528",
			"feePercent()": "7fd6f15c",
			"forcedLiquidation(bool,uint256,uint256,string,uint256,bytes)": "a0ad12e2",
			"helperLogic()": "1e64610c",
			"initialize(address,address,address,address)": "f8c8765e",
			"liquidation(bool,uint256[],uint256[],string[],uint256[],bytes[])": "4b989ce3",
			"minVal()": "f14053ad",
			"myCloseOrderIdList(address,uint256)": "ec4c4f34",
			"myCloseOrderIdListLength(address)": "aecf77b1",
			"myCloseOrderIdList_index(address,uint256)": "f0c765e4",
			"myOpenOrderIdList(address,uint256)": "c2ec527d",
			"myOpenOrderIdListLength(address)": "e4e95520",
			"myOpenOrderIdList_index(address,uint256)": "7be3a1a1",
			"openOrderIdList(uint256)": "0f58d242",
			"openOrderIdListLength()": "323b9b2b",
			"openOrderIdList_index(uint256)": "43b1f3cb",
			"openPosition(bool,uint256,uint256,uint256,uint256,string,uint256,uint256,bytes)": "db4a5aa9",
			"oracle()": "7dc0d1d0",
			"orderInfo(uint256)": "6ab34a4a",
			"owner()": "8da5cb5b",
			"pagination(address,uint256,uint256,uint256)": "080270a8",
			"renounceOwnership()": "715018a6",
			"setExecutor(address,bool)": "1e1bff3f",
			"setFeePercent(uint256)": "7ce3489b",
			"setOrderInfo(uint256,address,uint256,string,uint256,uint256,uint256,uint256,uint256,uint256,uint256,uint256)": "fc234d06",
			"setSigner(address)": "6c19e783",
			"signer()": "238ac933",
			"transferOwnership(address)": "f2fde38b",
			"usc()": "3011d3d5"
		}
	},
	"abi": [
		{
			"anonymous": false,
			"inputs": [
				{
					"indexed": true,
					"internalType": "address",
					"name": "previousOwner",
					"type": "address"
				},
				{
					"indexed": true,
					"internalType": "address",
					"name": "newOwner",
					"type": "address"
				}
			],
			"name": "OwnershipTransferred",
			"type": "event"
		},
		{
			"inputs": [],
			"name": "OrderIndex",
			"outputs": [
				{
					"internalType": "uint256",
					"name": "",
					"type": "uint256"
				}
			],
			"stateMutability": "view",
			"type": "function"
		},
		{
			"inputs": [],
			"name": "PRECISION",
			"outputs": [
				{
					"internalType": "uint256",
					"name": "",
					"type": "uint256"
				}
			],
			"stateMutability": "view",
			"type": "function"
		},
		{
			"inputs": [
				{
					"internalType": "uint256",
					"name": "_id",
					"type": "uint256"
				},
				{
					"internalType": "uint256",
					"name": "_price18",
					"type": "uint256"
				},
				{
					"internalType": "uint256",
					"name": "_margin",
					"type": "uint256"
				}
			],
			"name": "_isSolvent",
			"outputs": [
				{
					"internalType": "bool",
					"name": "",
					"type": "bool"
				}
			],
			"stateMutability": "view",
			"type": "function"
		},
		{
			"inputs": [
				{
					"internalType": "bool",
					"name": "_marketState",
					"type": "bool"
				},
				{
					"internalType": "uint256",
					"name": "_id",
					"type": "uint256"
				},
				{
					"internalType": "uint256",
					"name": "_timestamp",
					"type": "uint256"
				},
				{
					"internalType": "string",
					"name": "_symbols",
					"type": "string"
				},
				{
					"internalType": "uint256",
					"name": "_price18",
					"type": "uint256"
				},
				{
					"internalType": "bytes",
					"name": "_signature",
					"type": "bytes"
				},
				{
					"internalType": "uint256",
					"name": "_adjustMargin",
					"type": "uint256"
				}
			],
			"name": "adjustPosition",
			"outputs": [
				{
					"internalType": "bool",
					"name": "",
					"type": "bool"
				}
			],
			"stateMutability": "nonpayable",
			"type": "function"
		},
		{
			"inputs": [
				{
					"internalType": "bool",
					"name": "_marketState",
					"type": "bool"
				},
				{
					"internalType": "uint256",
					"name": "_id",
					"type": "uint256"
				},
				{
					"internalType": "uint256",
					"name": "_timestamp",
					"type": "uint256"
				},
				{
					"internalType": "string",
					"name": "_symbols",
					"type": "string"
				},
				{
					"internalType": "uint256",
					"name": "_price18",
					"type": "uint256"
				},
				{
					"internalType": "bytes",
					"name": "_signature",
					"type": "bytes"
				}
			],
			"name": "closePosition",
			"outputs": [
				{
					"internalType": "bool",
					"name": "",
					"type": "bool"
				}
			],
			"stateMutability": "nonpayable",
			"type": "function"
		},
		{
			"inputs": [
				{
					"internalType": "address",
					"name": "",
					"type": "address"
				}
			],
			"name": "executor",
			"outputs": [
				{
					"internalType": "bool",
					"name": "",
					"type": "bool"
				}
			],
			"stateMutability": "view",
			"type": "function"
		},
		{
			"inputs": [],
			"name": "feePercent",
			"outputs": [
				{
					"internalType": "uint256",
					"name": "",
					"type": "uint256"
				}
			],
			"stateMutability": "view",
			"type": "function"
		},
		{
			"inputs": [
				{
					"internalType": "bool",
					"name": "_marketState",
					"type": "bool"
				},
				{
					"internalType": "uint256",
					"name": "_id",
					"type": "uint256"
				},
				{
					"internalType": "uint256",
					"name": "_timestamp",
					"type": "uint256"
				},
				{
					"internalType": "string",
					"name": "_symbols",
					"type": "string"
				},
				{
					"internalType": "uint256",
					"name": "_price18",
					"type": "uint256"
				},
				{
					"internalType": "bytes",
					"name": "_signature",
					"type": "bytes"
				}
			],
			"name": "forcedLiquidation",
			"outputs": [
				{
					"internalType": "bool",
					"name": "",
					"type": "bool"
				}
			],
			"stateMutability": "nonpayable",
			"type": "function"
		},
		{
			"inputs": [],
			"name": "helperLogic",
			"outputs": [
				{
					"internalType": "contract IhelperLogic",
					"name": "",
					"type": "address"
				}
			],
			"stateMutability": "view",
			"type": "function"
		},
		{
			"inputs": [
				{
					"internalType": "address",
					"name": "_signer",
					"type": "address"
				},
				{
					"internalType": "contract IhelperLogic",
					"name": "_helperLogic",
					"type": "address"
				},
				{
					"internalType": "contract IERC20Upgradeable",
					"name": "_usc",
					"type": "address"
				},
				{
					"internalType": "contract IOracle",
					"name": "_oracle",
					"type": "address"
				}
			],
			"name": "initialize",
			"outputs": [],
			"stateMutability": "nonpayable",
			"type": "function"
		},
		{
			"inputs": [
				{
					"internalType": "bool",
					"name": "_marketState",
					"type": "bool"
				},
				{
					"internalType": "uint256[]",
					"name": "_id",
					"type": "uint256[]"
				},
				{
					"internalType": "uint256[]",
					"name": "_timestamp",
					"type": "uint256[]"
				},
				{
					"internalType": "string[]",
					"name": "_symbols",
					"type": "string[]"
				},
				{
					"internalType": "uint256[]",
					"name": "_price18",
					"type": "uint256[]"
				},
				{
					"internalType": "bytes[]",
					"name": "_signature",
					"type": "bytes[]"
				}
			],
			"name": "liquidation",
			"outputs": [
				{
					"internalType": "bool",
					"name": "",
					"type": "bool"
				}
			],
			"stateMutability": "nonpayable",
			"type": "function"
		},
		{
			"inputs": [],
			"name": "minVal",
			"outputs": [
				{
					"internalType": "uint256",
					"name": "",
					"type": "uint256"
				}
			],
			"stateMutability": "view",
			"type": "function"
		},
		{
			"inputs": [
				{
					"internalType": "address",
					"name": "",
					"type": "address"
				},
				{
					"internalType": "uint256",
					"name": "",
					"type": "uint256"
				}
			],
			"name": "myCloseOrderIdList",
			"outputs": [
				{
					"internalType": "uint256",
					"name": "",
					"type": "uint256"
				}
			],
			"stateMutability": "view",
			"type": "function"
		},
		{
			"inputs": [
				{
					"internalType": "address",
					"name": "_user",
					"type": "address"
				}
			],
			"name": "myCloseOrderIdListLength",
			"outputs": [
				{
					"internalType": "uint256",
					"name": "",
					"type": "uint256"
				}
			],
			"stateMutability": "view",
			"type": "function"
		},
		{
			"inputs": [
				{
					"internalType": "address",
					"name": "",
					"type": "address"
				},
				{
					"internalType": "uint256",
					"name": "",
					"type": "uint256"
				}
			],
			"name": "myCloseOrderIdList_index",
			"outputs": [
				{
					"internalType": "uint256",
					"name": "",
					"type": "uint256"
				}
			],
			"stateMutability": "view",
			"type": "function"
		},
		{
			"inputs": [
				{
					"internalType": "address",
					"name": "",
					"type": "address"
				},
				{
					"internalType": "uint256",
					"name": "",
					"type": "uint256"
				}
			],
			"name": "myOpenOrderIdList",
			"outputs": [
				{
					"internalType": "uint256",
					"name": "",
					"type": "uint256"
				}
			],
			"stateMutability": "view",
			"type": "function"
		},
		{
			"inputs": [
				{
					"internalType": "address",
					"name": "_user",
					"type": "address"
				}
			],
			"name": "myOpenOrderIdListLength",
			"outputs": [
				{
					"internalType": "uint256",
					"name": "",
					"type": "uint256"
				}
			],
			"stateMutability": "view",
			"type": "function"
		},
		{
			"inputs": [
				{
					"internalType": "address",
					"name": "",
					"type": "address"
				},
				{
					"internalType": "uint256",
					"name": "",
					"type": "uint256"
				}
			],
			"name": "myOpenOrderIdList_index",
			"outputs": [
				{
					"internalType": "uint256",
					"name": "",
					"type": "uint256"
				}
			],
			"stateMutability": "view",
			"type": "function"
		},
		{
			"inputs": [
				{
					"internalType": "uint256",
					"name": "",
					"type": "uint256"
				}
			],
			"name": "openOrderIdList",
			"outputs": [
				{
					"internalType": "uint256",
					"name": "",
					"type": "uint256"
				}
			],
			"stateMutability": "view",
			"type": "function"
		},
		{
			"inputs": [],
			"name": "openOrderIdListLength",
			"outputs": [
				{
					"internalType": "uint256",
					"name": "",
					"type": "uint256"
				}
			],
			"stateMutability": "view",
			"type": "function"
		},
		{
			"inputs": [
				{
					"internalType": "uint256",
					"name": "",
					"type": "uint256"
				}
			],
			"name": "openOrderIdList_index",
			"outputs": [
				{
					"internalType": "uint256",
					"name": "",
					"type": "uint256"
				}
			],
			"stateMutability": "view",
			"type": "function"
		},
		{
			"inputs": [
				{
					"internalType": "bool",
					"name": "_marketState",
					"type": "bool"
				},
				{
					"internalType": "uint256",
					"name": "_margin",
					"type": "uint256"
				},
				{
					"internalType": "uint256",
					"name": "_timestamp",
					"type": "uint256"
				},
				{
					"internalType": "uint256",
					"name": "_direction",
					"type": "uint256"
				},
				{
					"internalType": "uint256",
					"name": "_type",
					"type": "uint256"
				},
				{
					"internalType": "string",
					"name": "_symbols",
					"type": "string"
				},
				{
					"internalType": "uint256",
					"name": "_price18",
					"type": "uint256"
				},
				{
					"internalType": "uint256",
					"name": "_amt",
					"type": "uint256"
				},
				{
					"internalType": "bytes",
					"name": "_signature",
					"type": "bytes"
				}
			],
			"name": "openPosition",
			"outputs": [
				{
					"internalType": "bool",
					"name": "",
					"type": "bool"
				}
			],
			"stateMutability": "nonpayable",
			"type": "function"
		},
		{
			"inputs": [],
			"name": "oracle",
			"outputs": [
				{
					"internalType": "contract IOracle",
					"name": "",
					"type": "address"
				}
			],
			"stateMutability": "view",
			"type": "function"
		},
		{
			"inputs": [
				{
					"internalType": "uint256",
					"name": "_id",
					"type": "uint256"
				}
			],
			"name": "orderInfo",
			"outputs": [
				{
					"components": [
						{
							"internalType": "address",
							"name": "user",
							"type": "address"
						},
						{
							"internalType": "uint256",
							"name": "_type",
							"type": "uint256"
						},
						{
							"internalType": "string",
							"name": "symbols",
							"type": "string"
						},
						{
							"internalType": "uint256",
							"name": "state",
							"type": "uint256"
						},
						{
							"internalType": "uint256",
							"name": "direction",
							"type": "uint256"
						},
						{
							"internalType": "uint256",
							"name": "openPrice18",
							"type": "uint256"
						},
						{
							"internalType": "uint256",
							"name": "openTime",
							"type": "uint256"
						},
						{
							"internalType": "uint256",
							"name": "closePrice18",
							"type": "uint256"
						},
						{
							"internalType": "uint256",
							"name": "closeTime",
							"type": "uint256"
						},
						{
							"internalType": "uint256",
							"name": "amt",
							"type": "uint256"
						},
						{
							"internalType": "uint256",
							"name": "margin",
							"type": "uint256"
						}
					],
					"internalType": "struct mirrorseaMain.OrderInfo",
					"name": "",
					"type": "tuple"
				}
			],
			"stateMutability": "view",
			"type": "function"
		},
		{
			"inputs": [],
			"name": "owner",
			"outputs": [
				{
					"internalType": "address",
					"name": "",
					"type": "address"
				}
			],
			"stateMutability": "view",
			"type": "function"
		},
		{
			"inputs": [
				{
					"internalType": "address",
					"name": "_user",
					"type": "address"
				},
				{
					"internalType": "uint256",
					"name": "_type",
					"type": "uint256"
				},
				{
					"internalType": "uint256",
					"name": "_row",
					"type": "uint256"
				},
				{
					"internalType": "uint256",
					"name": "_page",
					"type": "uint256"
				}
			],
			"name": "pagination",
			"outputs": [
				{
					"internalType": "uint256[]",
					"name": "",
					"type": "uint256[]"
				}
			],
			"stateMutability": "view",
			"type": "function"
		},
		{
			"inputs": [],
			"name": "renounceOwnership",
			"outputs": [],
			"stateMutability": "nonpayable",
			"type": "function"
		},
		{
			"inputs": [
				{
					"internalType": "address",
					"name": "_address",
					"type": "address"
				},
				{
					"internalType": "bool",
					"name": "_type",
					"type": "bool"
				}
			],
			"name": "setExecutor",
			"outputs": [
				{
					"internalType": "bool",
					"name": "",
					"type": "bool"
				}
			],
			"stateMutability": "nonpayable",
			"type": "function"
		},
		{
			"inputs": [
				{
					"internalType": "uint256",
					"name": "_val",
					"type": "uint256"
				}
			],
			"name": "setFeePercent",
			"outputs": [
				{
					"internalType": "bool",
					"name": "",
					"type": "bool"
				}
			],
			"stateMutability": "nonpayable",
			"type": "function"
		},
		{
			"inputs": [
				{
					"internalType": "uint256",
					"name": "id",
					"type": "uint256"
				},
				{
					"internalType": "address",
					"name": "user",
					"type": "address"
				},
				{
					"internalType": "uint256",
					"name": "_type",
					"type": "uint256"
				},
				{
					"internalType": "string",
					"name": "symbols",
					"type": "string"
				},
				{
					"internalType": "uint256",
					"name": "state",
					"type": "uint256"
				},
				{
					"internalType": "uint256",
					"name": "direction",
					"type": "uint256"
				},
				{
					"internalType": "uint256",
					"name": "openPrice18",
					"type": "uint256"
				},
				{
					"internalType": "uint256",
					"name": "openTime",
					"type": "uint256"
				},
				{
					"internalType": "uint256",
					"name": "closePrice18",
					"type": "uint256"
				},
				{
					"internalType": "uint256",
					"name": "closeTime",
					"type": "uint256"
				},
				{
					"internalType": "uint256",
					"name": "amt",
					"type": "uint256"
				},
				{
					"internalType": "uint256",
					"name": "margin",
					"type": "uint256"
				}
			],
			"name": "setOrderInfo",
			"outputs": [
				{
					"internalType": "bool",
					"name": "",
					"type": "bool"
				}
			],
			"stateMutability": "nonpayable",
			"type": "function"
		},
		{
			"inputs": [
				{
					"internalType": "address",
					"name": "_address",
					"type": "address"
				}
			],
			"name": "setSigner",
			"outputs": [
				{
					"internalType": "bool",
					"name": "",
					"type": "bool"
				}
			],
			"stateMutability": "nonpayable",
			"type": "function"
		},
		{
			"inputs": [],
			"name": "signer",
			"outputs": [
				{
					"internalType": "address",
					"name": "",
					"type": "address"
				}
			],
			"stateMutability": "view",
			"type": "function"
		},
		{
			"inputs": [
				{
					"internalType": "address",
					"name": "newOwner",
					"type": "address"
				}
			],
			"name": "transferOwnership",
			"outputs": [],
			"stateMutability": "nonpayable",
			"type": "function"
		},
		{
			"inputs": [],
			"name": "usc",
			"outputs": [
				{
					"internalType": "contract IERC20Upgradeable",
					"name": "",
					"type": "address"
				}
			],
			"stateMutability": "view",
			"type": "function"
		}
	]
}