{
  "_format": "hh-sol-artifact-1",
  "contractName": "mirrorseaMain",
  "sourceName": "contracts/mirrorseaMain.sol",
  "abi": [
    {
      "anonymous": false,
      "inputs": [
        {
          "indexed": true,
          "internalType": "address",
          "name": "previousOwner",
          "type": "address"
        },
        {
          "indexed": true,
          "internalType": "address",
          "name": "newOwner",
          "type": "address"
        }
      ],
      "name": "OwnershipTransferred",
      "type": "event"
    },
    {
      "inputs": [],
      "name": "OrderIndex",
      "outputs": [
        {
          "internalType": "uint256",
          "name": "",
          "type": "uint256"
        }
      ],
      "stateMutability": "view",
      "type": "function"
    },
    {
      "inputs": [],
      "name": "PRECISION",
      "outputs": [
        {
          "internalType": "uint256",
          "name": "",
          "type": "uint256"
        }
      ],
      "stateMutability": "view",
      "type": "function"
    },
    {
      "inputs": [
        {
          "internalType": "uint256",
          "name": "_id",
          "type": "uint256"
        },
        {
          "internalType": "uint256",
          "name": "_price18",
          "type": "uint256"
        },
        {
          "internalType": "uint256",
          "name": "_margin",
          "type": "uint256"
        }
      ],
      "name": "_isSolvent",
      "outputs": [
        {
          "internalType": "bool",
          "name": "",
          "type": "bool"
        }
      ],
      "stateMutability": "view",
      "type": "function"
    },
    {
      "inputs": [
        {
          "internalType": "bool",
          "name": "_marketState",
          "type": "bool"
        },
        {
          "internalType": "uint256",
          "name": "_id",
          "type": "uint256"
        },
        {
          "internalType": "uint256",
          "name": "_timestamp",
          "type": "uint256"
        },
        {
          "internalType": "string",
          "name": "_symbols",
          "type": "string"
        },
        {
          "internalType": "uint256",
          "name": "_price18",
          "type": "uint256"
        },
        {
          "internalType": "bytes",
          "name": "_signature",
          "type": "bytes"
        },
        {
          "internalType": "uint256",
          "name": "_adjustMargin",
          "type": "uint256"
        }
      ],
      "name": "adjustPosition",
      "outputs": [
        {
          "internalType": "bool",
          "name": "",
          "type": "bool"
        }
      ],
      "stateMutability": "nonpayable",
      "type": "function"
    },
    {
      "inputs": [
        {
          "internalType": "bool",
          "name": "_marketState",
          "type": "bool"
        },
        {
          "internalType": "uint256",
          "name": "_id",
          "type": "uint256"
        },
        {
          "internalType": "uint256",
          "name": "_timestamp",
          "type": "uint256"
        },
        {
          "internalType": "string",
          "name": "_symbols",
          "type": "string"
        },
        {
          "internalType": "uint256",
          "name": "_price18",
          "type": "uint256"
        },
        {
          "internalType": "bytes",
          "name": "_signature",
          "type": "bytes"
        }
      ],
      "name": "closePosition",
      "outputs": [
        {
          "internalType": "bool",
          "name": "",
          "type": "bool"
        }
      ],
      "stateMutability": "nonpayable",
      "type": "function"
    },
    {
      "inputs": [
        {
          "internalType": "address",
          "name": "",
          "type": "address"
        }
      ],
      "name": "executor",
      "outputs": [
        {
          "internalType": "bool",
          "name": "",
          "type": "bool"
        }
      ],
      "stateMutability": "view",
      "type": "function"
    },
    {
      "inputs": [],
      "name": "feePercent",
      "outputs": [
        {
          "internalType": "uint256",
          "name": "",
          "type": "uint256"
        }
      ],
      "stateMutability": "view",
      "type": "function"
    },
    {
      "inputs": [
        {
          "internalType": "bool",
          "name": "_marketState",
          "type": "bool"
        },
        {
          "internalType": "uint256",
          "name": "_id",
          "type": "uint256"
        },
        {
          "internalType": "uint256",
          "name": "_timestamp",
          "type": "uint256"
        },
        {
          "internalType": "string",
          "name": "_symbols",
          "type": "string"
        },
        {
          "internalType": "uint256",
          "name": "_price18",
          "type": "uint256"
        },
        {
          "internalType": "bytes",
          "name": "_signature",
          "type": "bytes"
        }
      ],
      "name": "forcedLiquidation",
      "outputs": [
        {
          "internalType": "bool",
          "name": "",
          "type": "bool"
        }
      ],
      "stateMutability": "nonpayable",
      "type": "function"
    },
    {
      "inputs": [],
      "name": "helperLogic",
      "outputs": [
        {
          "internalType": "contract IhelperLogic",
          "name": "",
          "type": "address"
        }
      ],
      "stateMutability": "view",
      "type": "function"
    },
    {
      "inputs": [
        {
          "internalType": "address",
          "name": "_signer",
          "type": "address"
        },
        {
          "internalType": "contract IhelperLogic",
          "name": "_helperLogic",
          "type": "address"
        },
        {
          "internalType": "contract IERC20Upgradeable",
          "name": "_usc",
          "type": "address"
        },
        {
          "internalType": "contract IOracle",
          "name": "_oracle",
          "type": "address"
        }
      ],
      "name": "initialize",
      "outputs": [],
      "stateMutability": "nonpayable",
      "type": "function"
    },
    {
      "inputs": [
        {
          "internalType": "bool",
          "name": "_marketState",
          "type": "bool"
        },
        {
          "internalType": "uint256[]",
          "name": "_id",
          "type": "uint256[]"
        },
        {
          "internalType": "uint256[]",
          "name": "_timestamp",
          "type": "uint256[]"
        },
        {
          "internalType": "string[]",
          "name": "_symbols",
          "type": "string[]"
        },
        {
          "internalType": "uint256[]",
          "name": "_price18",
          "type": "uint256[]"
        },
        {
          "internalType": "bytes[]",
          "name": "_signature",
          "type": "bytes[]"
        }
      ],
      "name": "liquidation",
      "outputs": [
        {
          "internalType": "bool",
          "name": "",
          "type": "bool"
        }
      ],
      "stateMutability": "nonpayable",
      "type": "function"
    },
    {
      "inputs": [],
      "name": "minVal",
      "outputs": [
        {
          "internalType": "uint256",
          "name": "",
          "type": "uint256"
        }
      ],
      "stateMutability": "view",
      "type": "function"
    },
    {
      "inputs": [
        {
          "internalType": "address",
          "name": "",
          "type": "address"
        },
        {
          "internalType": "uint256",
          "name": "",
          "type": "uint256"
        }
      ],
      "name": "myCloseOrderIdList",
      "outputs": [
        {
          "internalType": "uint256",
          "name": "",
          "type": "uint256"
        }
      ],
      "stateMutability": "view",
      "type": "function"
    },
    {
      "inputs": [
        {
          "internalType": "address",
          "name": "_user",
          "type": "address"
        }
      ],
      "name": "myCloseOrderIdListLength",
      "outputs": [
        {
          "internalType": "uint256",
          "name": "",
          "type": "uint256"
        }
      ],
      "stateMutability": "view",
      "type": "function"
    },
    {
      "inputs": [
        {
          "internalType": "address",
          "name": "",
          "type": "address"
        },
        {
          "internalType": "uint256",
          "name": "",
          "type": "uint256"
        }
      ],
      "name": "myCloseOrderIdList_index",
      "outputs": [
        {
          "internalType": "uint256",
          "name": "",
          "type": "uint256"
        }
      ],
      "stateMutability": "view",
      "type": "function"
    },
    {
      "inputs": [
        {
          "internalType": "address",
          "name": "",
          "type": "address"
        },
        {
          "internalType": "uint256",
          "name": "",
          "type": "uint256"
        }
      ],
      "name": "myOpenOrderIdList",
      "outputs": [
        {
          "internalType": "uint256",
          "name": "",
          "type": "uint256"
        }
      ],
      "stateMutability": "view",
      "type": "function"
    },
    {
      "inputs": [
        {
          "internalType": "address",
          "name": "_user",
          "type": "address"
        }
      ],
      "name": "myOpenOrderIdListLength",
      "outputs": [
        {
          "internalType": "uint256",
          "name": "",
          "type": "uint256"
        }
      ],
      "stateMutability": "view",
      "type": "function"
    },
    {
      "inputs": [
        {
          "internalType": "address",
          "name": "",
          "type": "address"
        },
        {
          "internalType": "uint256",
          "name": "",
          "type": "uint256"
        }
      ],
      "name": "myOpenOrderIdList_index",
      "outputs": [
        {
          "internalType": "uint256",
          "name": "",
          "type": "uint256"
        }
      ],
      "stateMutability": "view",
      "type": "function"
    },
    {
      "inputs": [
        {
          "internalType": "uint256",
          "name": "",
          "type": "uint256"
        }
      ],
      "name": "openOrderIdList",
      "outputs": [
        {
          "internalType": "uint256",
          "name": "",
          "type": "uint256"
        }
      ],
      "stateMutability": "view",
      "type": "function"
    },
    {
      "inputs": [],
      "name": "openOrderIdListLength",
      "outputs": [
        {
          "internalType": "uint256",
          "name": "",
          "type": "uint256"
        }
      ],
      "stateMutability": "view",
      "type": "function"
    },
    {
      "inputs": [
        {
          "internalType": "uint256",
          "name": "",
          "type": "uint256"
        }
      ],
      "name": "openOrderIdList_index",
      "outputs": [
        {
          "internalType": "uint256",
          "name": "",
          "type": "uint256"
        }
      ],
      "stateMutability": "view",
      "type": "function"
    },
    {
      "inputs": [
        {
          "internalType": "bool",
          "name": "_marketState",
          "type": "bool"
        },
        {
          "internalType": "uint256",
          "name": "_margin",
          "type": "uint256"
        },
        {
          "internalType": "uint256",
          "name": "_timestamp",
          "type": "uint256"
        },
        {
          "internalType": "uint256",
          "name": "_direction",
          "type": "uint256"
        },
        {
          "internalType": "uint256",
          "name": "_type",
          "type": "uint256"
        },
        {
          "internalType": "string",
          "name": "_symbols",
          "type": "string"
        },
        {
          "internalType": "uint256",
          "name": "_price18",
          "type": "uint256"
        },
        {
          "internalType": "uint256",
          "name": "_amt",
          "type": "uint256"
        },
        {
          "internalType": "bytes",
          "name": "_signature",
          "type": "bytes"
        }
      ],
      "name": "openPosition",
      "outputs": [
        {
          "internalType": "bool",
          "name": "",
          "type": "bool"
        }
      ],
      "stateMutability": "nonpayable",
      "type": "function"
    },
    {
      "inputs": [],
      "name": "oracle",
      "outputs": [
        {
          "internalType": "contract IOracle",
          "name": "",
          "type": "address"
        }
      ],
      "stateMutability": "view",
      "type": "function"
    },
    {
      "inputs": [
        {
          "internalType": "uint256",
          "name": "_id",
          "type": "uint256"
        }
      ],
      "name": "orderInfo",
      "outputs": [
        {
          "components": [
            {
              "internalType": "address",
              "name": "user",
              "type": "address"
            },
            {
              "internalType": "uint256",
              "name": "_type",
              "type": "uint256"
            },
            {
              "internalType": "string",
              "name": "symbols",
              "type": "string"
            },
            {
              "internalType": "uint256",
              "name": "state",
              "type": "uint256"
            },
            {
              "internalType": "uint256",
              "name": "direction",
              "type": "uint256"
            },
            {
              "internalType": "uint256",
              "name": "openPrice18",
              "type": "uint256"
            },
            {
              "internalType": "uint256",
              "name": "openTime",
              "type": "uint256"
            },
            {
              "internalType": "uint256",
              "name": "closePrice18",
              "type": "uint256"
            },
            {
              "internalType": "uint256",
              "name": "closeTime",
              "type": "uint256"
            },
            {
              "internalType": "uint256",
              "name": "amt",
              "type": "uint256"
            },
            {
              "internalType": "uint256",
              "name": "margin",
              "type": "uint256"
            }
          ],
          "internalType": "struct mirrorseaMain.OrderInfo",
          "name": "",
          "type": "tuple"
        }
      ],
      "stateMutability": "view",
      "type": "function"
    },
    {
      "inputs": [],
      "name": "owner",
      "outputs": [
        {
          "internalType": "address",
          "name": "",
          "type": "address"
        }
      ],
      "stateMutability": "view",
      "type": "function"
    },
    {
      "inputs": [
        {
          "internalType": "address",
          "name": "_user",
          "type": "address"
        },
        {
          "internalType": "uint256",
          "name": "_type",
          "type": "uint256"
        },
        {
          "internalType": "uint256",
          "name": "_row",
          "type": "uint256"
        },
        {
          "internalType": "uint256",
          "name": "_page",
          "type": "uint256"
        }
      ],
      "name": "pagination",
      "outputs": [
        {
          "internalType": "uint256[]",
          "name": "",
          "type": "uint256[]"
        }
      ],
      "stateMutability": "view",
      "type": "function"
    },
    {
      "inputs": [],
      "name": "renounceOwnership",
      "outputs": [],
      "stateMutability": "nonpayable",
      "type": "function"
    },
    {
      "inputs": [
        {
          "internalType": "address",
          "name": "_address",
          "type": "address"
        },
        {
          "internalType": "bool",
          "name": "_type",
          "type": "bool"
        }
      ],
      "name": "setExecutor",
      "outputs": [
        {
          "internalType": "bool",
          "name": "",
          "type": "bool"
        }
      ],
      "stateMutability": "nonpayable",
      "type": "function"
    },
    {
      "inputs": [
        {
          "internalType": "uint256",
          "name": "_val",
          "type": "uint256"
        }
      ],
      "name": "setFeePercent",
      "outputs": [
        {
          "internalType": "bool",
          "name": "",
          "type": "bool"
        }
      ],
      "stateMutability": "nonpayable",
      "type": "function"
    },
    {
      "inputs": [
        {
          "internalType": "uint256",
          "name": "id",
          "type": "uint256"
        },
        {
          "internalType": "address",
          "name": "user",
          "type": "address"
        },
        {
          "internalType": "uint256",
          "name": "_type",
          "type": "uint256"
        },
        {
          "internalType": "string",
          "name": "symbols",
          "type": "string"
        },
        {
          "internalType": "uint256",
          "name": "state",
          "type": "uint256"
        },
        {
          "internalType": "uint256",
          "name": "direction",
          "type": "uint256"
        },
        {
          "internalType": "uint256",
          "name": "openPrice18",
          "type": "uint256"
        },
        {
          "internalType": "uint256",
          "name": "openTime",
          "type": "uint256"
        },
        {
          "internalType": "uint256",
          "name": "closePrice18",
          "type": "uint256"
        },
        {
          "internalType": "uint256",
          "name": "closeTime",
          "type": "uint256"
        },
        {
          "internalType": "uint256",
          "name": "amt",
          "type": "uint256"
        },
        {
          "internalType": "uint256",
          "name": "margin",
          "type": "uint256"
        }
      ],
      "name": "setOrderInfo",
      "outputs": [
        {
          "internalType": "bool",
          "name": "",
          "type": "bool"
        }
      ],
      "stateMutability": "nonpayable",
      "type": "function"
    },
    {
      "inputs": [
        {
          "internalType": "address",
          "name": "_address",
          "type": "address"
        }
      ],
      "name": "setSigner",
      "outputs": [
        {
          "internalType": "bool",
          "name": "",
          "type": "bool"
        }
      ],
      "stateMutability": "nonpayable",
      "type": "function"
    },
    {
      "inputs": [],
      "name": "signer",
      "outputs": [
        {
          "internalType": "address",
          "name": "",
          "type": "address"
        }
      ],
      "stateMutability": "view",
      "type": "function"
    },
    {
      "inputs": [
        {
          "internalType": "address",
          "name": "newOwner",
          "type": "address"
        }
      ],
      "name": "transferOwnership",
      "outputs": [],
      "stateMutability": "nonpayable",
      "type": "function"
    },
    {
      "inputs": [],
      "name": "usc",
      "outputs": [
        {
          "internalType": "contract IERC20Upgradeable",
          "name": "",
          "type": "address"
        }
      ],
      "stateMutability": "view",
      "type": "function"
    }
  ],
  "bytecode": "0x608060405234801561001057600080fd5b50613206806100206000396000f3fe608060405234801561001057600080fd5b50600436106102065760003560e01c80637dc0d1d01161011a578063db4a5aa9116100ad578063f14053ad1161007c578063f14053ad1461041b578063f2fde38b14610423578063f7ab69fd14610436578063f8c8765e1461043e578063fc234d061461045157610206565b8063db4a5aa9146103cf578063e4e95520146103e2578063ec4c4f34146103f5578063f0c765e41461040857610206565b8063a8ecb028116100e9578063a8ecb0281461038e578063aaf5eb68146103a1578063aecf77b1146103a9578063c2ec527d146103bc57610206565b80637dc0d1d0146103635780637fd6f15c1461036b5780638da5cb5b14610373578063a0ad12e21461037b57610206565b806343b1f3cb1161019d5780636c19e7831161016c5780636c19e7831461030d5780636e81243714610320578063715018a6146103335780637be3a1a11461033d5780637ce3489b1461035057610206565b806343b1f3cb146102b457806348c7e528146102c75780634b989ce3146102da5780636ab34a4a146102ed57610206565b8063238ac933116101d9578063238ac933146102895780632705c55b146102915780633011d3d5146102a4578063323b9b2b146102ac57610206565b8063080270a81461020b5780630f58d242146102345780631e1bff3f146102545780631e64610c14610274575b600080fd5b61021e6102193660046126cc565b610464565b60405161022b9190612b73565b60405180910390f35b6102476102423660046129c7565b610728565b60405161022b9190613023565b61026761026236600461260e565b610749565b60405161022b9190612bb7565b61027c6107b9565b60405161022b9190612b22565b61027c6107c8565b61026761029f366004612aa2565b6107d7565b61027c610926565b610247610935565b6102476102c23660046129c7565b61093b565b6102676102d53660046125f2565b61094d565b6102676102e8366004612722565b610962565b6103006102fb3660046129c7565b610b5f565b60405161022b9190612f7f565b61026761031b3660046125f2565b610c8c565b61026761032e3660046127fd565b610cf2565b61033b610d46565b005b61024761034b3660046126a1565b610d91565b61026761035e3660046129c7565b610dae565b61027c610df8565b610247610e07565b61027c610e0d565b6102676103893660046127fd565b610e1c565b61026761039c36600461287f565b610e6a565b6102476111c2565b6102476103b73660046125f2565b6111c8565b6102476103ca3660046126a1565b6111e3565b6102676103dd366004612919565b611214565b6102476103f03660046125f2565b61163f565b6102476104033660046126a1565b61165a565b6102476104163660046126a1565b611676565b610247611693565b61033b6104313660046125f2565b611699565b61024761170a565b61033b61044c366004612646565b611710565b61026761045f3660046129f7565b6117f2565b606060008082866104c757606c8054806020026020016040519081016040528092919081815260200182805480156104bb57602002820191906000526020600020905b8154815260200190600101908083116104a7575b505050505090506105a7565b8660011415610538576001600160a01b0388166000908152606e6020908152604091829020805483518184028101840190945280845290918301828280156104bb57602002820191906000526020600020908154815260200190600101908083116104a757505050505090506105a7565b86600214156105a7576001600160a01b0388166000908152607060209081526040918290208054835181840281018401909452808452909183018282801561059f57602002820191906000526020600020905b81548152602001906001019080831161058b575b505050505090505b60006105c86105c0886105ba818a611957565b90611963565b835190611963565b90508681106105d9578692506105dd565b8092505b81516105ed886105ba818a611957565b106106135760405162461bcd60e51b815260040161060a90612ea7565b60405180910390fd5b826106305760405162461bcd60e51b815260040161060a90612f5a565b60008367ffffffffffffffff81111561065957634e487b7160e01b600052604160045260246000fd5b604051908082528060200260200182016040528015610682578160200160208202803683370190505b5090506000610692836001611963565b90505b8486101561071a578381815181106106bd57634e487b7160e01b600052603260045260246000fd5b60200260200101518287815181106106e557634e487b7160e01b600052603260045260246000fd5b6020908102919091010152806106fa5761071a565b8561070481613166565b965050808061071290613114565b915050610695565b509998505050505050505050565b606c818154811061073857600080fd5b600091825260209091200154905081565b600061075361196f565b6001600160a01b0316610764610e0d565b6001600160a01b03161461078a5760405162461bcd60e51b815260040161060a90612e3b565b506001600160a01b0382166000908152606560205260409020805482151560ff19909116179055600192915050565b6068546001600160a01b031681565b6066546001600160a01b031681565b6000838152606a602052604081206009810154607354607254849283928392899161082291670de0b6b3a76400009161081c9182906108168888611957565b90611957565b90611973565b92508560040154600114156108a757856005015481101561088b57600586015461084c9082611963565b9450610864670de0b6b3a764000061081c8785611957565b9350610870838561307a565b881015610886576000965050505050505061091f565b6108a2565b828810156108a2576000965050505050505061091f565b610914565b85600501548111156108fd5760058601546108c3908290611963565b94506108db670de0b6b3a764000061081c8785611957565b93506108e7838561307a565b8810156108a2576000965050505050505061091f565b82881015610914576000965050505050505061091f565b600196505050505050505b9392505050565b6067546001600160a01b031681565b606c5490565b606d6020526000908152604090205481565b60656020526000908152604090205460ff1681565b3360009081526065602052604081205460ff166109915760405162461bcd60e51b815260040161060a90612cce565b6000805b8751811015610b33576000606a60008a84815181106109c457634e487b7160e01b600052603260045260246000fd5b602002602001015181526020019081526020016000209050610a398983815181106109ff57634e487b7160e01b600052603260045260246000fd5b6020026020010151878481518110610a2757634e487b7160e01b600052603260045260246000fd5b602002602001015183600a01546107d7565b610b205782610a4781613166565b935050610b1e8a8260038c8681518110610a7157634e487b7160e01b600052603260045260246000fd5b60200260200101518c8781518110610a9957634e487b7160e01b600052603260045260246000fd5b60200260200101518c8881518110610ac157634e487b7160e01b600052603260045260246000fd5b60200260200101518c8981518110610ae957634e487b7160e01b600052603260045260246000fd5b60200260200101518c8a81518110610b1157634e487b7160e01b600052603260045260246000fd5b602002602001015161197f565b505b5080610b2b81613166565b915050610995565b5080610b515760405162461bcd60e51b815260040161060a90612d12565b506001979650505050505050565b610b6761235f565b6000828152606a602090815260409182902082516101608101845281546001600160a01b031681526001820154928101929092526002810180549293919291840191610bb29061312b565b80601f0160208091040260200160405190810160405280929190818152602001828054610bde9061312b565b8015610c2b5780601f10610c0057610100808354040283529160200191610c2b565b820191906000526020600020905b815481529060010190602001808311610c0e57829003601f168201915b5050505050815260200160038201548152602001600482015481526020016005820154815260200160068201548152602001600782015481526020016008820154815260200160098201548152602001600a8201548152505090505b919050565b6000610c9661196f565b6001600160a01b0316610ca7610e0d565b6001600160a01b031614610ccd5760405162461bcd60e51b815260040161060a90612e3b565b50606680546001600160a01b0383166001600160a01b03199091161790556001919050565b6000858152606a6020526040812080546001600160a01b03163314610d295760405162461bcd60e51b815260040161060a90612ecb565b610d3a888260028a8a8a8a8a61197f565b98975050505050505050565b610d4e61196f565b6001600160a01b0316610d5f610e0d565b6001600160a01b031614610d855760405162461bcd60e51b815260040161060a90612e3b565b610d8f6000611bf2565b565b606f60209081526000928352604080842090915290825290205481565b6000610db861196f565b6001600160a01b0316610dc9610e0d565b6001600160a01b031614610def5760405162461bcd60e51b815260040161060a90612e3b565b50607255600190565b6069546001600160a01b031681565b60725481565b6033546001600160a01b031690565b3360009081526065602052604081205460ff16610e4b5760405162461bcd60e51b815260040161060a90612cce565b6000868152606a60205260409020610d3a888260048a8a8a8a8a61197f565b6000868152606a6020526040812080546001600160a01b0316610e9f5760405162461bcd60e51b815260040161060a90612c0e565b6002816003015410610ec35760405162461bcd60e51b815260040161060a90612eed565b6069546040516311cdc9d960e11b81526001600160a01b039091169063239b93b290610efb908c9089908c908c908b90600401612bc2565b60206040518083038186803b158015610f1357600080fd5b505afa158015610f27573d6000803e3d6000fd5b505050506040513d601f19601f82011682018060405250810190610f4b9190612706565b610f675760405162461bcd60e51b815260040161060a90612caa565b610f728886856107d7565b610f8e5760405162461bcd60e51b815260040161060a90612e11565b6009810154600a820154607354607254600091610fbf91670de0b6b3a76400009161081c918290610816898f611957565b905060008287111561105757610fd58784611963565b606754909150610ff0906001600160a01b0316333084611c44565b606754604051630852cd8d60e31b81526001600160a01b03909116906342966c6890611020908490600401613023565b600060405180830381600087803b15801561103a57600080fd5b505af115801561104e573d6000803e3d6000fd5b505050506110ec565b6110618388611963565b60675486546040516340c10f1960e01b81529293506001600160a01b03918216926340c10f19926110989216908590600401612b5a565b602060405180830381600087803b1580156110b257600080fd5b505af11580156110c6573d6000803e3d6000fd5b505050506040513d601f19601f820116820180604052508101906110ea9190612706565b505b606754611104906001600160a01b0316333085611c44565b606854606754611121916001600160a01b03918216911684611ca2565b606860009054906101000a90046001600160a01b03166001600160a01b031663d10c06a26040518163ffffffff1660e01b8152600401602060405180830381600087803b15801561117157600080fd5b505af1158015611185573d6000803e3d6000fd5b505050506040513d601f19601f820116820180604052508101906111a99190612706565b5050505050600a01919091555060019695505050505050565b60735481565b6001600160a01b031660009081526070602052604090205490565b606e60205281600052604060002081815481106111ff57600080fd5b90600052602060002001600091509150505481565b606b546000908152606a60205260408120896112425760405162461bcd60e51b815260040161060a90612c3c565b6003810154156112645760405162461bcd60e51b815260040161060a90612eed565b6069546040516311cdc9d960e11b81526001600160a01b039091169063239b93b29061129c908e9089908e908c908a90600401612bc2565b60206040518083038186803b1580156112b457600080fd5b505afa1580156112c8573d6000803e3d6000fd5b505050506040513d601f19601f820116820180604052508101906112ec9190612706565b6113085760405162461bcd60e51b815260040161060a90612caa565b6074548a116113295760405162461bcd60e51b815260040161060a90612dce565b6000611356670de0b6b3a764000061081c60735461081c6072546108168b8d61195790919063ffffffff16565b905061137b33306113678e85611cc6565b6067546001600160a01b0316929190611c44565b6067546040516370a0823160e01b81526000916001600160a01b0316906370a08231906113ac903090600401612b22565b60206040518083038186803b1580156113c457600080fd5b505afa1580156113d8573d6000803e3d6000fd5b505050506040513d601f19601f820116820180604052508101906113fc91906129df565b60685460675491925061141c916001600160a01b03908116911684611ca2565b606860009054906101000a90046001600160a01b03166001600160a01b031663d10c06a26040518163ffffffff1660e01b8152600401602060405180830381600087803b15801561146c57600080fd5b505af1158015611480573d6000803e3d6000fd5b505050506040513d601f19601f820116820180604052508101906114a49190612706565b506067546001600160a01b03166342966c686114c08385611963565b6040518263ffffffff1660e01b81526004016114dc9190613023565b600060405180830381600087803b1580156114f657600080fd5b505af115801561150a573d6000803e3d6000fd5b5050606b54606c80546001818101835560008390527f2b4a51ab505fc96a0952efda2ba61bcd3078d4c02c39a186ec16f21883fbe016909101929092555461155493509150611963565b606b80546000908152606d602090815260408083209490945533808352606e8252938220925483546001818101865585855292842001559290525461159891611963565b336000908152606f60209081526040808320606b805485529252822092909255815491906115c583613166565b909155505082546001600160a01b031916331783556001830189905587516115f690600285019060208b01906123c2565b5060016003840155600483018a905560058301879055600683018b9055600983018690556116248183611963565b600a909301929092555060019b9a5050505050505050505050565b6001600160a01b03166000908152606e602052604090205490565b607060205281600052604060002081815481106111ff57600080fd5b607160209081526000928352604080842090915290825290205481565b60745481565b6116a161196f565b6001600160a01b03166116b2610e0d565b6001600160a01b0316146116d85760405162461bcd60e51b815260040161060a90612e3b565b6001600160a01b0381166116fe5760405162461bcd60e51b815260040161060a90612c64565b61170781611bf2565b50565b606b5481565b600054610100900460ff1680611729575060005460ff16155b6117455760405162461bcd60e51b815260040161060a90612d80565b600054610100900460ff16158015611770576000805460ff1961ff0019909116610100171660011790555b611778611cd2565b606680546001600160a01b038088166001600160a01b03199283161790925560688054878416908316179055606780548684169083161790556127106073556069805492851692909116919091179055670de0b6b3a7640000607455603260725580156117eb576000805461ff00191690555b5050505050565b60006117fc61196f565b6001600160a01b031661180d610e0d565b6001600160a01b0316146118335760405162461bcd60e51b815260040161060a90612e3b565b6040518061016001604052808d6001600160a01b031681526020018c81526020018b81526020018a815260200189815260200188815260200187815260200186815260200185815260200184815260200183815250606a60008f815260200190815260200160002060008201518160000160006101000a8154816001600160a01b0302191690836001600160a01b031602179055506020820151816001015560408201518160020190805190602001906118ee9291906123c2565b50606082015160038201556080820151600482015560a0820151600582015560c0820151600682015560e082015160078201556101008201516008820155610120820151600982015561014090910151600a909101555060019c9b505050505050505050505050565b600061091f82846130b2565b600061091f82846130d1565b3390565b600061091f8284613092565b86546000906001600160a01b03166119a95760405162461bcd60e51b815260040161060a90612c0e565b60028860030154106119cd5760405162461bcd60e51b815260040161060a90612eed565b6069546040516311cdc9d960e11b81526001600160a01b039091169063239b93b290611a05908c9087908a908a908990600401612bc2565b60206040518083038186803b158015611a1d57600080fd5b505afa158015611a31573d6000803e3d6000fd5b505050506040513d601f19601f82011682018060405250810190611a559190612706565b611a715760405162461bcd60e51b815260040161060a90612caa565b8754600489015487916001600160a01b0316906001811415611a9c57611a978b87611d56565b611aa6565b611aa68b87611f73565b606860009054906101000a90046001600160a01b03166001600160a01b031663d10c06a26040518163ffffffff1660e01b8152600401602060405180830381600087803b158015611af657600080fd5b505af1158015611b0a573d6000803e3d6000fd5b505050506040513d601f19601f82011682018060405250810190611b2e9190612706565b5060038b018a905560078b0186905560088b01889055611b5183606d606c611ffa565b6001600160a01b0382166000908152606f60209081526040808320606e909252909120611b7f918591611ffa565b6001600160a01b038216600090815260706020908152604082208054600181810183559184529190922001849055611bba906105ba846111c8565b6001600160a01b0390921660009081526071602090815260408083209583529490529290922055506001905098975050505050505050565b603380546001600160a01b038381166001600160a01b0319831681179093556040519116919082907f8be0079c531659141344cd1fd0a4f28419497f9722a3daafe3b4186f6b6457e090600090a35050565b611c9c846323b872dd60e01b858585604051602401611c6593929190612b36565b60408051601f198184030181529190526020810180516001600160e01b03166001600160e01b0319909316929092179091526120d7565b50505050565b611cc18363a9059cbb60e01b8484604051602401611c65929190612b5a565b505050565b600061091f828461307a565b600054610100900460ff1680611ceb575060005460ff16155b611d075760405162461bcd60e51b815260040161060a90612d80565b600054610100900460ff16158015611d32576000805460ff1961ff0019909116610100171660011790555b611d3a612166565b611d426121d9565b8015611707576000805461ff001916905550565b81546009830154600a84015460058501546073546072546001600160a01b039095169460009485948594919389939192918691611da791670de0b6b3a76400009161081c9182906108168a8c611957565b905081841115611e8b57611dbb8483611963565b9750611dd3670de0b6b3a764000061081c8a88611957565b9650611ddf8388611cc6565b606854606754919750611e01916001600160a01b039081169133911684611c44565b6067546040516340c10f1960e01b81526001600160a01b03909116906340c10f1990611e33908c908a90600401612b5a565b602060405180830381600087803b158015611e4d57600080fd5b505af1158015611e61573d6000803e3d6000fd5b505050506040513d601f19601f82011682018060405250810190611e859190612706565b50611f66565b611e958285611963565b9750611ea18886611957565b965082871115611eb45760009550611f66565b611ebe8388611963565b606854606754919750611ee0916001600160a01b039081169133911684611c44565b6067546040516340c10f1960e01b81526001600160a01b03909116906340c10f1990611f12908c908a90600401612b5a565b602060405180830381600087803b158015611f2c57600080fd5b505af1158015611f40573d6000803e3d6000fd5b505050506040513d601f19601f82011682018060405250810190611f649190612706565b505b5050505050505050505050565b81546009830154600a84015460058501546073546072546001600160a01b039095169460009485948594919389939192918691611fc491670de0b6b3a76400009161081c9182906108168a8c611957565b905081841015611fd857611dbb8285611963565b611fe28483611963565b9750611ea1670de0b6b3a764000061081c8a88611957565b6000838152602083905260408120548254909190839061201b906001611963565b8154811061203957634e487b7160e01b600052603260045260246000fd5b9060005260206000200154905081846000838152602001908152602001600020819055508083838154811061207e57634e487b7160e01b600052603260045260246000fd5b600091825260208083209091019290925586815290859052604081205582548390806120ba57634e487b7160e01b600052603160045260246000fd5b600190038181906000526020600020016000905590555050505050565b600061212c826040518060400160405280602081526020017f5361666545524332303a206c6f772d6c6576656c2063616c6c206661696c6564815250856001600160a01b03166122499092919063ffffffff16565b805190915015611cc1578080602001905181019061214a9190612706565b611cc15760405162461bcd60e51b815260040161060a90612f10565b600054610100900460ff168061217f575060005460ff16155b61219b5760405162461bcd60e51b815260040161060a90612d80565b600054610100900460ff16158015611d42576000805460ff1961ff0019909116610100171660011790558015611707576000805461ff001916905550565b600054610100900460ff16806121f2575060005460ff16155b61220e5760405162461bcd60e51b815260040161060a90612d80565b600054610100900460ff16158015612239576000805460ff1961ff0019909116610100171660011790555b611d4261224461196f565b611bf2565b60606122588484600085612260565b949350505050565b6060824710156122825760405162461bcd60e51b815260040161060a90612d3a565b61228b85612320565b6122a75760405162461bcd60e51b815260040161060a90612e70565b600080866001600160a01b031685876040516122c39190612b06565b60006040518083038185875af1925050503d8060008114612300576040519150601f19603f3d011682016040523d82523d6000602084013e612305565b606091505b5091509150612315828286612326565b979650505050505050565b3b151590565b6060831561233557508161091f565b8251156123455782518084602001fd5b8160405162461bcd60e51b815260040161060a9190612bfb565b60405180610160016040528060006001600160a01b03168152602001600081526020016060815260200160008152602001600081526020016000815260200160008152602001600081526020016000815260200160008152602001600081525090565b8280546123ce9061312b565b90600052602060002090601f0160209004810192826123f05760008555612436565b82601f1061240957805160ff1916838001178555612436565b82800160010185558215612436579182015b8281111561243657825182559160200191906001019061241b565b50612442929150612446565b5090565b5b808211156124425760008155600101612447565b8035610c87816131ad565b600082601f830112612476578081fd5b8135602061248b61248683613056565b61302c565b82815281810190858301855b858110156124c0576124ae898684358b0101612587565b84529284019290840190600101612497565b5090979650505050505050565b600082601f8301126124dd578081fd5b813560206124ed61248683613056565b82815281810190858301855b858110156124c057612510898684358b0101612587565b845292840192908401906001016124f9565b600082601f830112612532578081fd5b8135602061254261248683613056565b828152818101908583018385028701840188101561255e578586fd5b855b858110156124c057813584529284019290840190600101612560565b8035610c87816131c2565b600082601f830112612597578081fd5b813567ffffffffffffffff8111156125b1576125b1613197565b6125c4601f8201601f191660200161302c565b8181528460208386010111156125d8578283fd5b816020850160208301379081016020019190915292915050565b600060208284031215612603578081fd5b813561091f816131ad565b60008060408385031215612620578081fd5b823561262b816131ad565b9150602083013561263b816131c2565b809150509250929050565b6000806000806080858703121561265b578182fd5b8435612666816131ad565b93506020850135612676816131ad565b92506040850135612686816131ad565b91506060850135612696816131ad565b939692955090935050565b600080604083850312156126b3578182fd5b82356126be816131ad565b946020939093013593505050565b600080600080608085870312156126e1578384fd5b84356126ec816131ad565b966020860135965060408601359560600135945092505050565b600060208284031215612717578081fd5b815161091f816131c2565b60008060008060008060c0878903121561273a578384fd5b6127438761257c565b9550602087013567ffffffffffffffff8082111561275f578586fd5b61276b8a838b01612522565b96506040890135915080821115612780578586fd5b61278c8a838b01612522565b955060608901359150808211156127a1578384fd5b6127ad8a838b016124cd565b945060808901359150808211156127c2578384fd5b6127ce8a838b01612522565b935060a08901359150808211156127e3578283fd5b506127f089828a01612466565b9150509295509295509295565b60008060008060008060c08789031215612815578384fd5b8635612820816131c2565b95506020870135945060408701359350606087013567ffffffffffffffff8082111561284a578384fd5b6128568a838b01612587565b94506080890135935060a0890135915080821115612872578283fd5b506127f089828a01612587565b600080600080600080600060e0888a031215612899578485fd5b87356128a4816131c2565b96506020880135955060408801359450606088013567ffffffffffffffff808211156128ce578283fd5b6128da8b838c01612587565b955060808a0135945060a08a01359150808211156128f6578283fd5b506129038a828b01612587565b92505060c0880135905092959891949750929550565b60008060008060008060008060006101208a8c031215612937578283fd5b8935612942816131c2565b985060208a0135975060408a0135965060608a0135955060808a0135945060a08a013567ffffffffffffffff8082111561297a578485fd5b6129868d838e01612587565b955060c08c0135945060e08c013593506101008c01359150808211156129aa578283fd5b506129b78c828d01612587565b9150509295985092959850929598565b6000602082840312156129d8578081fd5b5035919050565b6000602082840312156129f0578081fd5b5051919050565b6000806000806000806000806000806000806101808d8f031215612a19578586fd5b8c359b50612a2960208e0161245b565b9a5060408d0135995067ffffffffffffffff60608e01351115612a4a578586fd5b612a5a8e60608f01358f01612587565b9b9e9a9d50989b60808101359a60a08201359a5060c0820135995060e08201359850610100820135975061012082013596506101408201359550610160909101359350915050565b600080600060608486031215612ab6578081fd5b505081359360208301359350604090920135919050565b6001600160a01b03169052565b60008151808452612af28160208601602086016130e8565b601f01601f19169290920160200192915050565b60008251612b188184602087016130e8565b9190910192915050565b6001600160a01b0391909116815260200190565b6001600160a01b039384168152919092166020820152604081019190915260600190565b6001600160a01b03929092168252602082015260400190565b6020808252825182820181905260009190848201906040850190845b81811015612bab57835183529284019291840191600101612b8f565b50909695505050505050565b901515815260200190565b6000861515825285602083015284604083015260a06060830152612be960a0830185612ada565b8281036080840152610d3a8185612ada565b60006020825261091f6020830184612ada565b6020808252601490820152731bdc99195c88191bd95cc81b9bdd08195e1a5cdd60621b604082015260600190565b6020808252600e908201526d1b585c99da5b881b9bc819dbdbd960921b604082015260600190565b60208082526026908201527f4f776e61626c653a206e6577206f776e657220697320746865207a65726f206160408201526564647265737360d01b606082015260800190565b6020808252600a908201526937b930b1b6329032b93960b11b604082015260600190565b60208082526024908201527f6578656375746f723a2063616c6c6572206973206e6f742074686520657865636040820152633aba37b960e11b606082015260800190565b6020808252600e908201526d2737903634b8bab4b230ba34b7b760911b604082015260600190565b60208082526026908201527f416464726573733a20696e73756666696369656e742062616c616e636520666f6040820152651c8818d85b1b60d21b606082015260800190565b6020808252602e908201527f496e697469616c697a61626c653a20636f6e747261637420697320616c72656160408201526d191e481a5b9a5d1a585b1a5e995960921b606082015260800190565b60208082526023908201527f546865207472616e73616374696f6e20616d6f756e7420697320746f6f20736d604082015262185b1b60ea1b606082015260800190565b60208082526010908201526f155cd95c881a5cc818985b9adc9d5c1d60821b604082015260600190565b6020808252818101527f4f776e61626c653a2063616c6c6572206973206e6f7420746865206f776e6572604082015260600190565b6020808252601d908201527f416464726573733a2063616c6c20746f206e6f6e2d636f6e7472616374000000604082015260600190565b6020808252600a90820152693632b733ba341032b93960b11b604082015260600190565b6020808252600890820152673ab9b2b91032b93960c11b604082015260600190565b60208082526009908201526839ba30ba329032b93960b91b604082015260600190565b6020808252602a908201527f5361666545524332303a204552433230206f7065726174696f6e20646964206e6040820152691bdd081cdd58d8d9595960b21b606082015260800190565b6020808252600b908201526a185c9c881b9bc819dbdbd960aa1b604082015260600190565b600060208252612f93602083018451612acd565b602083015160408301526040830151610160806060850152612fb9610180850183612ada565b915060608501516080850152608085015160a085015260a085015160c085015260c085015160e085015260e0850151610100818187015280870151915050610120818187015280870151915050610140818187015280870151838701525050508091505092915050565b90815260200190565b60405181810167ffffffffffffffff8111828210171561304e5761304e613197565b604052919050565b600067ffffffffffffffff82111561307057613070613197565b5060209081020190565b6000821982111561308d5761308d613181565b500190565b6000826130ad57634e487b7160e01b81526012600452602481fd5b500490565b60008160001904831182151516156130cc576130cc613181565b500290565b6000828210156130e3576130e3613181565b500390565b60005b838110156131035781810151838201526020016130eb565b83811115611c9c5750506000910152565b60008161312357613123613181565b506000190190565b60028104600182168061313f57607f821691505b6020821081141561316057634e487b7160e01b600052602260045260246000fd5b50919050565b600060001982141561317a5761317a613181565b5060010190565b634e487b7160e01b600052601160045260246000fd5b634e487b7160e01b600052604160045260246000fd5b6001600160a01b038116811461170757600080fd5b801515811461170757600080fdfea264697066735822122087a96529dc8d177f4bcb82240d93e2e607cca5a405b01866846007add7bdbafc64736f6c63430008000033",
  "linkReferences": {},
  "deployedLinkReferences": {}
}